
Source Code


000002:                                                                                                  ## Copyright:   Public domain.
000003:                                                                                                  ## Filename:    INTERPRETER.agc
000004:                                                                                                  ## Purpose:     A section of Sunburst revision 37, or Shepatin revision 0.
000005:                                                                                                  ##              It is part of an early development version of the software
000006:                                                                                                  ##              for Apollo Guidance Computer (AGC) on the unmanned Lunar
000007:                                                                                                  ##              Module (LM) flight Apollo 5. Sunburst 37 was the program
000008:                                                                                                  ##              upon which Don Eyles's offline development program Shepatin
000009:                                                                                                  ##              was based; the listing herein transcribed was actually for
000010:                                                                                                  ##              the equivalent revision 0 of Shepatin.
000011:                                                                                                  ##              This file is intended to be a faithful transcription, except
000012:                                                                                                  ##              that the code format has been changed to conform to the
000013:                                                                                                  ##              requirements of the yaYUL assembler rather than the
000014:                                                                                                  ##              original YUL assembler.
000015:                                                                                                  ## Reference:   pp. 893-984
000016:                                                                                                  ## Assembler:   yaYUL
000017:                                                                                                  ## Contact:     Ron Burkey <info@sandroid.org>.
000018:                                                                                                  ## Website:     www.ibiblio.org/apollo/index.html
000019:                                                                                                  ## Mod history: 2017-05-24 MAS  Created from Sunburst 120.
000020:                                                                                                  ##              2017-06-12 MAS  Began updating for Sunburst 37.
000021:                                                                                                  ##              2017-06-13 MAS  Completed updates for Sunburst 37.
000022:                                                                                                  ##              2017-06-15 HG   Fix opcode TC  -> TCF
000023:                                                                                                  ##              2017-06-23 RSB  Proofed comment text with
000024:                                                                                                  ##                              octopus/ProoferComments.
000025:


000027:                                                                                                  #  SECTION 1  DISPATCHER
000028:
000029:                                                                                                  #           ENTRY TO THE INTERPRETER. INTPRET SETS LOC TO THE FIRST  INSTRUCTION, BANKSET TO THE BBANK OF THE
000030:                                                                                                  #  OBJECT INTERPRETIVE PROGRAM, AND INTBIT15 TO THE BIT15 CONTENTS OF FBANK. INTERPRETIVE PROGRAMS MAY BE IN
000031:                                                                                                  #  VIRTUALLY ALL BANKS PRESENT UNDER ANY SUPER-BANK SETTING, WITH THE RESTRICTION THAT PROGRAMS IN HIGH BANKS
000032:                                                                                                  #  (BIT15 OF FBANK = 1) DO NOT REFER TO LOWBANKS, AND VICE-VERSA. THE INTERPRETER DOES NOT SWITCH SUPERBANKS.
000033:                                                                                                  #  E-BANK SWITCHING OCCURS WHENEVER GENERAL ERASABLE (100 - 3777) IS ADDRESSED.
000034:
000035:
000036:
000037:    6103                                           BLOCK    03
000038:
000039:    6103           00006        INTPRET            EXTEND                                         #  SET LOC TO THE WORD FOLLOWING THE TC.
000040:    6104           22154                           QXCH     LOC
000041:
000042:    6105           30006                 +2        CA       BBANK                                 #  INTERPRETIVE BRANCHES FINISH HERE.
000043:    6106           54155                           TS       BANKSET
000044:    6107           77737                           MASK     BIT15                                 #  GET 15TH BIT FOR INDEXABLE ADDRESSES.
000045:    6110           54105                           TS       INTBIT15
000046:
000047:
000048:    6111           16124                           TCF      NEWOPS                                #  PICK UP OP CODE PAIR AND BEGIN.
000049:
000050:
000051:
000052:    6112           22006        INTRSM             LXCH     BBANK                                 #  RESUME SUSPENDED INTERPRETIVE JOB
000053:    6113           16105                           TCF      INTPRET    +2
000054:


000056:                                                                                                  #           AT THE END OF MOST INSTRUCTIONS, CONTROL IS GIVEN TO DANZIG TO DISPATCH THE NEXT OPERATION.
000057:
000058:    6114           54153        NEWMODE            TS       MODE                                  #  PROLOGUE FOR MODE-CHANGING INSTRUCTIONS.
000059:
000060:    6115           30155        DANZIG             CA       BANKSET                               #  SET BBANK BEFORE TESTING NEWJOB SO THAT
000061:    6116           54006                           TS       BBANK                                 #  IT MAY BE SAVED DIRECTLY BY CHANJOB.
000062:
000063:    6117           10023        NOIBNKSW           CCS      EDOP                                  #  SEE IF AN ORDER CODE IS LEFT OVER FROM
000064:    6120           16133                           TCF      OPJUMP                                #  THE LAST PAIR RETRIEVED. IF SO, EXECUTE.
000065:                                                                                                  #  EDOP IS SET TO ZERO ON ITS RE-EDITING.
000066:
000067:    6121           10067                           CCS      NEWJOB                                #  SEE IF A JOB OF HIGHER PRIORITY IS
000068:    6122           15556                           TCF      CHANG2                                #  PRESENT, AND IF SO, CHANGE JOBS.
000069:
000070:
000071:    6123           24154                           INCR     LOC                                   #  ADVANCE THE LOCATION COUNTER.
000072:                                                                                                  #           ITRACE (1) REFERS TO "NEWOPS".
000073:    6124           50154        NEWOPS             INDEX    LOC                                   #  ENTRY TO BEGIN BY PICKING OP CODE PAIR.
000074:    6125           30000                           CA       0                                     #  MAY BE AN OPCODE PAIR OR A STORE CODE.
000075:    6126           10000                           CCS      A                                     #  TEST SIGN AND GET DABS(A).
000076:    6127           16421                           TCF      DOSTORE                               #  PROCESS STORE CODE.
000077:
000078:    6130           00177        LOW7               OCT      177
000079:
000080:    6131           54023                           TS       EDOP                                  #  OP CODE PAIR. LEAVE THE OTHER IN EDOP
000081:
000082:    6132           76130                           MASK     LOW7                                  #  WHERE  CCS EDOP  WILL HONOR IT NEXT.
000083:
000084:    6133           54020        OPJUMP             TS       CYR                                   #  LOWWD ENTERS HERE IF A RIGHT-HAND OP
000085:    6134           10020                           CCS      CYR                                   #  CODE IS TO BE PROCESSED. TEST PREFICES.
000086:    6135           16303                           TCF      OPJUMP2                               #  TEST SECOND PREFIX BIT.
000087:
000088:    6136           17012                           TCF      EXIT                                  #  +0 OP CODE IS EXIT.
000089:


000091:                                                                                                  #           PROCESS ADDRESSES WHICH MAY BE DIRECT, INDEXED, OR REFERENCE THE PUSHDOWN LIST.
000092:
000093:    6137           77755        ADDRESS            MASK     BIT1                                  #  SEE IF ADDRESS IS INDEXED. CYR CONTAINED
000094:    6140           10000                           CCS      A                                     #  400XX, SO BIT 1 IS NOW AS IT WAS IN CYR.
000095:    6141           16202                           TCF      INDEX                                 #  FORM INDEXED ADDRESS.
000096:
000097:
000098:    6142           50154        DIRADRES           INDEX    LOC                                   #  LOOK AHEAD TO NEXT WORD TO SEE IF
000099:    6143           40001        OCT40001           CS       1                                     #  ADDRESS IS GIVEN.
000100:    6144           10000                           CCS      A
000101:    6145           16251                           TCF      PUSHUP                                #  IF NOT.
000102:
000103:    6146           77773        NEG4               DEC      -4         B-14
000104:
000105:    6147           24154                           INCR     LOC                                   #  IF SO, TO SHOW WE PICKED UP A WORD.
000106:    6150           54106                           TS       ADDRWD
000107:


000109:                                                                                                  #           FINAL DIGESTION OF DIRECT ADDRESSES OF OP CODES WITH 01 PREFIX IS DONE HERE. IN EACH CASE, THE
000110:                                                                                                  #  REQUIRED 12-BIT SUB-ADDRESS IS LEFT IN ADDRWD, WITH ANY REQUIRED E OR F BANK SWITCHING DONE. ADDRESSES LESS
000111:
000112:                                                                                                  #  THAN 45D ARE TAKEN TO BE RELATIVE TO THE WORK AREA. THE OP CODE IS NOW IN BITS 1-5 OF CYR WITH BIT 14 = 1.
000113:
000114:
000115:    6151           66305                           AD       -ENDVAC                               #  SEE IF ADDRESS RELATIVE TO WORK AREA.
000116:    6152           10000                           CCS      A
000117:    6153           66332                           AD       -ENDERAS                              #  IF NOT, SEE IF IN GENERAL ERASABLE.
000118:    6154           16161                           TCF      IERASTST
000119:
000120:    6155           30110        NETZERO            CA       FIXLOC                                #  IF SO, LEAVE THE MODIFIED ADDRESS IN
000121:
000122:    6156           26106                           ADS      ADDRWD                                #  ADDRWD AND DISPATCH.
000123:    6157           50020        ITR15              INDEX    CYR                                   #  THIS INDEX MAKES THE NEXT INSTRUCTION
000124:    6160           76332                           7        INDJUMP    -1                         #  TCF INDJUMP + OP, EDITING CYR.
000125:
000126:    6161           00006        IERASTST           EXTEND
000127:    6162           66172                           BZMF     GEADDR                                #  GO PROCESS GENERAL-ERASABLE ADDRESS.
000128:
000129:    6163           75356                           MASK     LOW10                                 #  FIXED BANK ADDRESS. RESTORE AND ADD B15.
000130:    6164           65356                           AD       LOW10                                 #  SWITCH BANKS AND LEAVE SUBADDRESS IN
000131:    6165           56106                           XCH      ADDRWD                                #  ADDRWD FOR OPERAND RETRIEVAL. (THIS
000132:    6166           60105                           AD       INTBIT15                              #  METHOD PRECLUDES USE OF THE LAST
000133:    6167           54004                           TS       FBANK                                 #  LOCATION IN EACH FBANK.)
000134:
000135:    6170           50020        ITR12              INDEX    CYR
000136:    6171           76332                           7        INDJUMP    -1
000137:
000138:    6172           74553        GEADDR             MASK     LOW8
000139:    6173           65370                           AD       OCT1400
000140:    6174           56106                           XCH      ADDRWD
000141:    6175           54003                           TS       EBANK
000142:    6176           50020        ITR10              INDEX    CYR
000143:    6177           76332                           7        INDJUMP    -1
000144:


000146:                                                                                                  #           THE FOLLOWING ROUTINE PROCESSES INTERPRETIVE INDEXED ADDRESSES. AN INTERPRETER INDEX REGISTER MAY
000147:                                                                                                  #  CONTAIN THE ADDRESS OF ANY ERASABLE REGISTER (0-42 BEING RELATIVE TO THE VAC AREA) OR ANY INTERPRETIVE PROGRAM
000148:                                                                                                  #  BANK, OR ANY INTEGER IN THAT RANGE.
000149:
000150:    6200           35364        DODLOAD*           CAF      DLOAD*                                #  STODL* COMES HERE TO PROCESS LOAD ADR.
000151:    6201           54020                           TS       CYR                                   #  (STOVL* ENTERS HERE).
000152:
000153:    6202           30110        INDEX              CA       FIXLOC                                #  SET UP INDEX LOCATION.
000154:
000155:    6203           54120                           TS       INDEXLOC
000156:    6204           24154                           INCR     LOC                                   #  (ADDRESS ALWAYS GIVEN).
000157:    6205           50154                           INDEX    LOC
000158:    6206           40000                           CS       0
000159:    6207           10000                           CCS      A                                     #  INDEX 2 IF ADDRESS STORED COMPLEMENTED.
000160:    6210           24120                           INCR     INDEXLOC
000161:    6211           16212                           NOOP
000162:
000163:    6212           54106                           TS       ADDRWD                                #  14 BIT ADDRESS TO ADDRWD.
000164:    6213           75367                           MASK     HIGH4                                 #  IF ADDRESS GREATER THAN 2K, ADD INTBIT15
000165:
000166:    6214           00006                           EXTEND
000167:    6215           16220                           BZF      INDEX2
000168:    6216           30105                           CA       INTBIT15
000169:    6217           26106                           ADS      ADDRWD
000170:
000171:    6220           50120        INDEX2             INDEX    INDEXLOC
000172:    6221           40046                           CS       X1
000173:    6222           26106                           ADS      ADDRWD                                #  DO AUGMENT, IGNORING AND CORRECTING OVF.
000174:
000175:    6223           76330                           MASK     HIGH9                                 #  SEE IF ADDRESS IS IN WORK AREA.
000176:    6224           00006                           EXTEND
000177:    6225           16240                           BZF      INDWORK
000178:
000179:    6226           75367                           MASK     HIGH4                                 #  SEE IF IN FIXED BANK.
000180:    6227           00006                           EXTEND
000181:    6230           16242                           BZF      INDERASE
000182:
000183:    6231           30106                           CA       ADDRWD                                #  IN FIXED - SWITCH BANKS AND CREATE
000184:    6232           54004                           TS       FBANK                                 #  SUB-ADDRESS.
000185:    6233           75356                           MASK     LOW10
000186:    6234           67743                           AD       2K
000187:    6235           54106                           TS       ADDRWD
000188:    6236           50020        ITR11              INDEX    CYR
000189:
000190:    6237           36332                           3        INDJUMP    -1
000191:
000192:    6240           30110        INDWORK            CA       FIXLOC                                #  MAKE ADDRWD RELATIVE TO WORK AREA.
000193:    6241           16246                           TCF      ITR13      -1
000194:
000195:    6242           35370        INDERASE           CA       OCT1400
000196:    6243           56106                           XCH      ADDRWD
000197:    6244           54003                           TS       EBANK
000198:    6245           74553                           MASK     LOW8
000199:    6246           26106                 -1        ADS      ADDRWD


000201:    6247           50020        ITR13              INDEX    CYR
000202:
000203:    6250           36332                           3        INDJUMP    -1
000204:


000206:                                                                                                  #           PUSH-UP ROUTINES. WHEN NO OPERAND ADDRESS IS GIVEN, THE APPROPRIATE OPERAND IS TAKEN FROM THE PUSH-DOWN
000207:                                                                                                  #  LIST. IN MOST CASES THE MODE OF THE RESULT (VECTOR OR SCALAR) OF THE LAST ARITHMETIC OPERATION PERFORMED
000208:                                                                                                  #  IS THE SAME AS THE TYPE OF OPERAND DESIRED (ALL ADD/SUBTRACT ETC.). EXCEPTIONS TO THIS GENERAL RULE ARE LISTED
000209:                                                                                                  #  BELOW (NOTE THAT IN EVERY CASE THE MODE REGISTER IS LEFT INTACT):
000210:
000211:                                                                                                  #           1.  VXSC AND V/SC WANT THE OPPOSITE TYPE OF OPERAND, E.G., IF THE LAST OPERATION YIELDED A VECTOR
000212:
000213:                                                                                                  #  RESULT, VXSC WANTS A SCALAR.
000214:
000215:                                                                                                  #           2.  THE LOAD CODES SHOULD LOAD THE ACCUMULATOR INDEPENDENT OF THE RESULT OF THE LAST OPERATION. THIS
000216:                                                                                                  #  INCLUDES VLOAD, DLOAD, TLOAD, PDDL, AND PDVL (NO PUSHUP WITH SLOAD).
000217:
000218:                                                                                                  #           3.  SOME ARITHMETIC OPERATIONS REQUIRE A STANDARD TYPE OF OPERAND REGARDLESS OF THE PREVIOUS OPERATION.
000219:                                                                                                  #  THIS INCLUDES SIGN WANTING DP AND TAD REQUIRING TP.
000220:
000221:    6251           34554        PUSHUP             CAF      OCT23                                 #  IF THE LOW 5 BITS OF CYR ARE LESS THAN
000222:    6252           70020                           MASK     CYR                                   #  20, THIS OP REQUIRES SPECIAL ATTENTION.
000223:    6253           66256                           AD       -OCT10                                #  (NO -0).
000224:    6254           10000                           CCS      A
000225:
000226:    6255           16267                           TCF      REGUP                                 #  FOR ALL CODES GREATER THAN OCT 7.
000227:
000228:    6256           77767        -OCT10             OCT      -10
000229:
000230:    6257           66146                           AD       NEG4                                  #  WE NOW HAVE 7 - OP CODE(MOD4). SEE IF
000231:    6260           10000                           CCS      A                                     #  THE OP CODE (MOD4) IS THREE (REVERSE).
000232:    6261           50000                           INDEX    A                                     #  NO - THE MODE IS DEFINITE. PICK UP THE
000233:    6262           46300                           CS       NO.WDS
000234:    6263           16271                           TCF      REGUP      +2
000235:
000236:
000237:    6264           50153                           INDEX    MODE                                  #  FOR VXSC AND V/SC WE WANT THE REQUIRED
000238:    6265           46276                           CS       REVCNT                                #  PUSHLOC DECREMENT WITHOUT CHANGING THE
000239:    6266           16271                           TCF      REGUP      +2                         #  MODE AT THIS TIME.
000240:
000241:    6267           50153        REGUP              INDEX    MODE                                  #  MOST ALL OP CODES PUSHUP HERE.
000242:    6270           46300                           CS       NO.WDS
000243:    6271           26156                 +2        ADS      PUSHLOC
000244:    6272           54106                           TS       ADDRWD
000245:    6273           50020        ITR14              INDEX    CYR
000246:    6274           76332                           7        INDJUMP    -1                         #  (THE INDEX MAKES THIS A TCF.)
000247:
000248:    6275           00002                           OCT      2                                     #  REVERSE PUSHUP DECREMENT. VECTOR TAKES 2
000249:
000250:    6276           00006        REVCNT             OCT      6                                     #  WORDS, SCALAR TAKES 6.
000251:    6277           00006                           OCT      6
000252:    6300           00002        NO.WDS             OCT      2                                     #  CONVENTIONAL DECREMENT IS 6 WORDS VECTOR
000253:    6301           00003        OCTAL3             OCT      3                                     #  2 IN DP, AND 3 IN TP.
000254:    6302           00006                           OCT      6
000255:


000257:                                                                                                  #            TEST THE SECOND PREFIX BIT TO SEE IF THIS IS A MISCELLANEOUS OR A UNARY/SHORT SHIFT OPERATION.
000258:
000259:    6303           10020        OPJUMP2            CCS      CYR                                   #  TEST SECOND PREFIX BIT.
000260:    6304           16317                           TCF      OPJUMP3                               #  TEST THIRD BIT TO SEE IF UNARY OR SHIFT.
000261:
000262:    6305           77722        -ENDVAC            DEC      -45        B-14
000263:
000264:                                                                                                  #           THE FOLLOWING ROUTINE PROCESSES ADDRESSES OF SUFFIX CLASS 10. THEY ARE BASICALLY WORK AREA ADDRESSES
000265:                                                                                                  #  IN THE RANGE 0 - 52, ERASABLE ECADR CONSTANTS FROM 100 - 3777, AND FCADRS ABOVE THAT. ALL 15 BITS ARE AVAILABLE
000266:                                                                                                  #  IN CONTRAST TO SUFFIX 1, IN WHICH ONLY THE LOW ORDER 14 ARE AVAILABLE.
000267:
000268:    6306           24154        15BITADR           INCR     LOC                                   #  (ENTRY HERE FROM STCALL).
000269:
000270:    6307           50154                           INDEX    LOC                                   #  PICK UP ADDRESS WORD.
000271:    6310           30000                           CA       0
000272:    6311           54107                           TS       POLISH                                #  WE MAY NEED A SUBADDRESS LATER.
000273:
000274:    6312           36327                           CAF      LOW7+2K                               #  THESE INSTRUCTIONS ARE IN BANK 1.
000275:    6313           54004                           TS       FBANK
000276:    6314           70020                           MASK     CYR
000277:    6315           50000        ITR7               INDEX    A
000278:    6316           16373                           TCF      MISCJUMP
000279:


000281:                                                                                                  #           COMPLETE THE DISPATCHING OF UNARY AND SHORT SHIFT OPERATIONS.
000282:
000283:    6317           54004        OPJUMP3            TS       FBANK                                 #  CALL IN BANK 0 (BIT5 11-15 OF A ARE 0.)
000284:                                                                                                  #           ITRACE (6) REFERS TO "OPJUMP3".
000285:    6320           10020                           CCS      CYR                                   #  TEST THIRD PREFIX BIT.
000286:    6321           50000                           INDEX    A                                     #  THE DECREMENTED UNARY CODE IS IN BITS
000287:    6322           12000                           TCF      UNAJUMP                               #  1-4 OF A (ZERO, EXIT, HAS BEEN DETECTED)
000288:
000289:
000290:    6323           10153                           CCS      MODE                                  #  ITS A SHORT SHIFT CODE. SEE IF PRESENT
000291:    6324           12017                           TCF      SHORTT                                #  SCALAR OR VECTOR.
000292:    6325           12017                           TCF      SHORTT
000293:    6326           12121                           TCF      SHORTV                                #  CALLS THE APPROPRIATE ROUTINE.
000294:
000295:
000296:
000297:    6327     4554               OCT23              =        VD1
000298:    6327           02177        LOW7+2K            OCT      2177                                  #  OP CODE MASK + BANK 1 FBANK SETTING.
000299:    6330           77700        HIGH9              OCT      77700
000300:
000301:    6331           76000        BANKMASK           OCT      76000                                 #  FBANK MASK.
000302:    6332     6331               FBANKMSK           EQUALS   BANKMASK
000303:    6332     5673               B12T14             =        PRIO34                                #  USED IN PROCESSING STORE CODES.
000304:    6332           74056        -ENDERAS           DEC      -2001      B-14                       #  = -(2047 - 45 - 1)
000305:


000307:                                                                                                  #           THE FOLLOWING IS THE JUMP TABLE FOR OP CODES WHICH MAY HAVE INDEXABLE ADDRESSES OR MAY PUSH UP.
000308:
000309:    6333           16554        INDJUMP            TCF      VLOAD                                 #  00 - LOAD MPAC WITH A VECTOR.
000310:    6334           17133                           TCF      TAD                                   #  01 - TRIPLE PRECISION ADD TO MPAC.
000311:    6335           17701                           TCF      SIGN                                  #  02 - COMPLEMENT MPAC (V OR SC) IF X NEG.
000312:    6336           17452                           TCF      VXSC                                  #  03 - VECTOR TIMES SCALAR.
000313:    6337           16752                           TCF      CGOTO                                 #  04 - COMPUTED GO TO.
000314:    6340           16537                           TCF      TLOAD                                 #  05 - LOAD MPAC WITH TRIPLE PRECISION.
000315:    6341           16530                           TCF      DLOAD                                 #  06 - LOAD MPAC WITH A DP SCALAR.
000316:    6342           17650                           TCF      V/SC                                  #  07 - VECTOR DIVIDED BY SCALAR.
000317:
000318:    6343           16550                           TCF      SLOAD                                 #  10 - LOAD MPAC IN SINGLE PRECISION.
000319:    6344           16667                           TCF      SSP                                   #  11 - SET SINGLE PRECISION INTO X.
000320:
000321:    6345           16572                           TCF      PDDL                                  #  12 - PUSH DOWN MPAC AND RE-LOAD IN DP.
000322:    6346           17405                           TCF      MXV                                   #  13 - MATRIX POST-MULTIPLIED BY VECTOR.
000323:    6347           16626                           TCF      PDVL                                  #  14 - PUSH DOWN AND VECTOR LOAD.
000324:    6350           16675                           TCF      CCALL                                 #  15 - COMPUTED CALL.
000325:    6351           17410                           TCF      VXM                                   #  16 - MATRIX PRE-MULTIPLIED BY VECTOR.
000326:    6352           17642                           TCF      TSLC                                  #  17 - NORMALIZE MPAC (SCALAR ONLY).
000327:
000328:    6353           17620                           TCF      DMPR                                  #  20 - DP MULTIPLY AND ROUND.
000329:    6354           17623                           TCF      DDV                                   #  21 - DP DIVIDE BY.
000330:    6355           17627                           TCF      BDDV                                  #  22 - DP DIVIDE INTO.
000331:
000332:    6356           17645                           TCF      GSHIFT                                #  23 - GENERAL SHIFT INSTRUCTION.
000333:    6357           17016                           TCF      VAD                                   #  24 - VECTOR ADD.
000334:    6360           17044                           TCF      VSU                                   #  25 - VECTOR SUBTRACT.
000335:    6361           17074                           TCF      BVSU                                  #  26 - VECTOR SUBTRACT FROM.
000336:    6362           17402                           TCF      DOT                                   #  27 - VECTOR DOT PRODUCT.
000337:
000338:    6363           17532                           TCF      VXV                                   #  30 - VECTOR CROSS PRODUCT.
000339:    6364           17476                           TCF      VPROJ                                 #  31 - VECTOR PROJECTION.
000340:    6365           17062                           TCF      DSU                                   #  32 - DP SUBTRACT.
000341:    6366           17120                           TCF      BDSU                                  #  33 - DP SUBTRACT FROM.
000342:    6367           17034                           TCF      DAD                                   #  34 - DP ADD.
000343:    6370           16370                           TCF      +0                                    #  35 - AVAILABLE
000344:
000345:    6371           17616                           TCF      DMP1                                  #  36 - DP MULTIPLY.
000346:    6372           17637                           TCF      SETPD                                 #  37 - SET PUSH DOWN POINTER (DIRECT ONLY)
000347:
000348:                                                                                                  #  CODES 10 AND 14 MUST NOT PUSH UP. CODE 04 MAY BE USED FOR VECTOR DECLARE BEFORE PUSHUP IF DESIRED.
000349:


000351:                                                                                                  #           THE FOLLOWING JUMP TABLE APPLIES TO INDEX, BRANCH, AND MISCELLANEOUS INSTRUCTIONS.
000352:
000353:    6373           12557        MISCJUMP           TCF      AXT                                   #  00 - ADDRESS TO INDEX TRUE.
000354:    6374           12564                           TCF      AXC                                   #  01 - ADDRESS TO INDEX COMPLEMENTED.
000355:    6375           12567                           TCF      LXA                                   #  02 - LOAD INDEX FROM ERASABLE.
000356:    6376           12573                           TCF      LXC                                   #  03 - LOAD INDEX FROM COMPLEMENT OF ERAS.
000357:
000358:    6377           12577                           TCF      SXA                                   #  04 - STORE INDEX IN ERASABLE.
000359:    6400           12605                           TCF      XCHX                                  #  05 - EXCHANGE INDEX WITH ERASABLE.
000360:    6401           12621                           TCF      INCR                                  #  06 - INCREMENT INDEX REGISTER.
000361:    6402           12630                           TCF      TIX                                   #  07 - TRANSFER ON INDEX.
000362:
000363:    6403           12613                           TCF      XAD                                   #  10 - INDEX REGISTER ADD FROM ERASABLE.
000364:    6404           12624                           TCF      XSU                                   #  11 - INDEX SUBTRACT FROM ERASABLE.
000365:    6405           12702                           TCF      BZE/GOTO                              #  12 - BRANCH ZERO AND GOTO.
000366:    6406           12707                           TCF      BPL/BMN                               #  13 - BRANCH PLUS AND BRANCH MINUS.
000367:    6407           12662                           TCF      RTB/BHIZ                              #  14 - RETURN TO BASIC AND BRANCH HI ZERO.
000368:    6410           12722                           TCF      CALL/ITA                              #  15 - CALL AND STORE QPRET.
000369:    6411           12731                           TCF      SW/                                   #  16 - SWITCH INSTRUCTIONS AND AVAILABLE.
000370:
000371:    6412           12672                           TCF      BOV(B)                                #  17 - BRANCH ON OVERFLOW TO BASIC OR INT.
000372:


000374:                                                                                                  #           THE FOLLOWING JUMP TABLE APPIES TO UNARY INSTRUCTIONS.
000375:
000376:
000377: 00,2000                                           BANK     0                                     #  00 - EXIT - DETECTED EARLIER.
000378: 00,2000           13155        UNAJUMP            TCF      SQRT                                  #  01 - SQUARE ROOT.
000379: 00,2001           13477                           TCF      SINE                                  #  02 - SIN.
000380: 00,2002           13466                           TCF      COSINE                                #  03 - COS.
000381: 00,2003           13557                           TCF      ARCSIN                                #  04 - ARC SIN.
000382: 00,2004           13561                           TCF      ARCCOS                                #  05 - ARC COS.
000383: 00,2005           13142                           TCF      DSQ                                   #  06 - DP SQUARE.
000384: 00,2006           12116                           TCF      ROUND                                 #  07 - ROUND TO DP.
000385:
000386: 00,2007           17714                           TCF      COMP                                  #  10 - COMPLEMENT VECTOR OR SCALAR.
000387:
000388: 00,2010           13200                           TCF      VDEF                                  #  11 - VECTOR DEFINE.
000389: 00,2011           12770                           TCF      UNIT                                  #  12 - UNIT VECTOR.
000390: 00,2012           13144                           TCF      ABVALABS                              #  13 - LENGTH OF VECTOR OR MAG OF SCALAR.
000391: 00,2013           13214                           TCF      VSQ                                   #  14 - SQUARE OF LENGTH OF VECTOR.
000392: 00,2014           16413                           TCF      STADR                                 #  15 - PUSH UP ON STORE CODE.
000393: 00,2015           13244                           TCF      RVQ                                   #  16 - RETURN VIA QPRET.
000394: 00,2016           13217                           TCF      PUSH                                  #  17 - PUSH MPAC DOWN.
000395:


000397:                                                                                                  #  SECTION 2  LOAD AND STORE PACKAGE.
000398:
000399:                                                                                                  #           A SET OF EIGHT STORE CODES IS PROVIDED AS THE PRIMARY METHOD OF STORING THE MULTI-PURPOSE
000400:                                                                                                  #  ACCUMULATOR (MPAC). IF IN THE DANZIG SECTION LOC REFERS TO AN ALGEBRAICALLY POSITIVE WORD, IT IS TAKEN AS A
000401:                                                                                                  #  STORE CODE WITH A CORRESPONDING ERASABLE ADDRESS. MOST OF THESE CODES ARE TWO ADDRESS, SPECIFYING THAT THE WORD
000402:                                                                                                  #  FOLLOWING THE STORE CODE IS TO BE USED AS AN ADDRESS FROM WHICH TO RE-LOAD MPAC. FOUR OPTIONS ARE AVAILABLE:
000403:
000404:                                                                                                  #           1. STORE               STORE MPAC. THE E ADDRESS MAY BE INDEXED.
000405:
000406:                                                                                                  #           2. STODL               STORE MPAC AND RE-LOAD IT IN DP WITH THE NEXT ADDRESS (THE LOAD MAY BE INDEXED).
000407:                                                                                                  #           3. STOVL               STORE MPAC AND RE-LOAD A VECTOR (AS ABOVE).
000408:                                                                                                  #           4. STCALL              STORE AND DO A CALL (BOTH ADDRESSES MUST BE DIRECT HERE).
000409:
000410:                                                                                                  #           STODL AND STOVL WILL TAKE FROM THE PUSH-DOWN LIST IF NO LOAD ADDRESS IS GIVEN.
000411:
000412:
000413:
000414:    6413                                           BLOCK    3
000415:
000416:    6413           30155        STADR              CA       BANKSET                               #  THE STADR CODE (PUSHUP UP ON STORE
000417:    6414           54004                           TS       FBANK                                 #  ADDRESS) ENTERS HERE.
000418:    6415           24154                           INCR     LOC
000419:    6416           50154        ITR1               INDEX    LOC                                   #  THE STORECODE WAS STORED COMPLEMENTED TO
000420:    6417           40000                           CS       0                                     #  MAKE IT LOOK LIKE AN OPCODE PAIR.
000421:    6420           67763                           AD       NEGONE                                #  (YUL CANT REMOVE 1 BECAUSE OF EARLY CCS)
000422:
000423:    6421           54106        DOSTORE            TS       ADDRWD
000424:    6422           74552                           MASK     LOW11                                 #  ENTRY FROM DISPATCHER. SAVE THE ERASABLE
000425:    6423           56106                           XCH      ADDRWD                                #  ADDRESS AND JUMP ON THE STORE CODE NO.
000426:    6424           75673                           MASK     B12T14
000427:    6425           00006                           EXTEND
000428:    6426           77751                           MP       BIT5                                  #  EACH TRANSFER VECTOR ENTRY IS TWO WORDS.
000429:
000430:    6427           54023                           TS       EDOP                                  #  MAYBE 2ND OP WAS LEFT OVER FROM BRANCH
000431:    6430           50000        ITR0               INDEX    A
000432:    6431           16432                           TCF      STORJUMP
000433:


000435:                                                                                                  #           STORE CODE JUMP TABLE. CALLS THE APPROPRIATE STORING ROUTINE AND EXITS TO DANZIG OR TO ADDRESS WITH
000436:
000437:                                                                                                  #  A SUPPLIED OPERATION CODE.
000438:
000439:    6432           06462        STORJUMP           TC       STORE                                 #  STORE.
000440:    6433           16123                           TCF      NEWOPS     -1                         #  PICK UP NEW OP CODE(S).
000441:    6434           06454                           TC       STORE,1
000442:    6435           16123                           TCF      NEWOPS     -1
000443:    6436           06457                           TC       STORE,2
000444:    6437           16123                           TCF      NEWOPS     -1
000445:
000446:    6440           06462                           TC       STORE                                 #  STODL.
000447:    6441           16520                           TCF      DODLOAD
000448:
000449:    6442           06462                           TC       STORE                                 #  STODL WITH INDEXED LOAD ADDRESS.
000450:    6443           16200                           TCF      DODLOAD*
000451:
000452:    6444           06462                           TC       STORE                                 #  STOVL.
000453:    6445           16523                           TCF      DOVLOAD
000454:
000455:    6446           06462                           TC       STORE                                 #  STOVL WITH INDEXED LOAD ADDRESS.
000456:    6447           16526                           TCF      DOVLOAD*
000457:    6450           06462                           TC       STORE                                 #  STOTC.
000458:    6451           35362                           CAF      CALLCODE
000459:
000460:    6452           54020                           TS       CYR
000461:    6453           16306                           TCF      15BITADR                              #  GET A 15 BIT ADDRESS.
000462:


000464:                                                                                                  #           STORE CODE ADDRESS PROCESSOR.
000465:
000466:    6454           50110        STORE,1            INDEX    FIXLOC
000467:    6455           40046                           CS       X1
000468:    6456           16461                           TCF      PRESTORE
000469:
000470:
000471:    6457           50110        STORE,2            INDEX    FIXLOC
000472:    6460           40047                           CS       X2
000473:    6461           26106        PRESTORE           ADS      ADDRWD                                #  RESULTANT ADDRESS IS IN ERASABLE.
000474:
000475:    6462           40106        STORE              CS       ADDRWD
000476:    6463           65371                           AD       DEC45
000477:    6464           10000                           CCS      A                                     #  DOES THE ADDRESS POINT TO THE WORK AREA?
000478:    6465           30110                           CA       FIXLOC                                #  YES.
000479:    6466           16473                           TCF      AHEAD5
000480:    6467           35370                           CA       OCT1400                               #  NO.  SET EBANK & MAKE UP SUBADDRESS.
000481:    6470           56106                           XCH      ADDRWD
000482:    6471           54003                           TS       EBANK
000483:
000484:    6472           74553                           MASK     LOW8
000485:    6473           26106        AHEAD5             ADS      ADDRWD
000486:


000488:                                                                                                  #           STORING ROUTINES. STORE DP, TP, OR VECTOR AS INDICATED BY MODE.
000489:
000490:
000491:    6474           00006        STARTSTO           EXTEND                                         #  MPAC,+1 MUST BE STORED IN ANY EVENT.
000492:                                                                                                  #           ITRACE (5) REFERS TO "STARTSTO".
000493:    6475           30145                           DCA      MPAC
000494:    6476           50106                           INDEX    ADDRWD
000495:    6477           52001                           DXCH     0
000496:
000497:    6500           10153                           CCS      MODE
000498:    6501           16514                           TCF      TSTORE
000499:    6502           00002                           TC       Q
000500:
000501:    6503           00006        VSTORE             EXTEND
000502:    6504           30150                           DCA      MPAC       +3
000503:    6505           50106                           INDEX    ADDRWD
000504:    6506           52003                           DXCH     2
000505:
000506:    6507           00006                           EXTEND
000507:    6510           30152                           DCA      MPAC       +5
000508:    6511           50106                           INDEX    ADDRWD
000509:    6512           52005                           DXCH     4
000510:    6513           00002                           TC       Q
000511:
000512:    6514           30146        TSTORE             CA       MPAC       +2
000513:    6515           50106                           INDEX    ADDRWD
000514:
000515:    6516           54002                           TS       2
000516:    6517           00002                           TC       Q
000517:


000519:                                                                                                  #           ROUTINES TO BEGIN PROCESSING OF THE SECOND ADDRESS ASSOCIATED WITH ALL STORE-TYPE CODES EXCEPT STORE
000520:                                                                                                  #  ITSELF.
000521:
000522:    6520           35363        DODLOAD            CAF      DLOADCOD
000523:    6521           54020                           TS       CYR
000524:    6522           16142                           TCF      DIRADRES                              #  GO GET A DIRECT ADDRESS.
000525:
000526:    6523           37737        DOVLOAD            CAF      VLOADCOD
000527:
000528:    6524           54020                           TS       CYR
000529:    6525           16142                           TCF      DIRADRES
000530:
000531:    6526           36143        DOVLOAD*           CAF      VLOAD*
000532:    6527           16201                           TCF      DODLOAD*   +1                         #  PROLOGUE TO INDEX ROUTINE.
000533:


000535:                                                                                                  #           THE FOLLOWING LOAD INSTRUCTIONS ARE PROVIDED FOR LOADING THE MULTI-PURPOSE ACCUMULATOR MPAC.
000536:
000537:    6530           00006        DLOAD              EXTEND
000538:    6531           50106                           INDEX    ADDRWD
000539:    6532           30001                           DCA      0                                     #  PICK UP DP ARGUMENT AND LEAVE IT IN
000540:    6533           52145        SLOAD2             DXCH     MPAC                                  #  MPAC,+1, SETTING MPAC +2 TO ZERO. THE
000541:    6534           37761                           CAF      ZERO                                  #  CONTENTS OF THE OTHER FOUR REGISTERS OF
000542:    6535           54146                           TS       MPAC       +2                         #  MPAC ARE IRRELEVANT.
000543:    6536           16114                           TCF      NEWMODE                               #  DECLARE DOUBLE PRECISION MODE.
000544:
000545:    6537           50106        TLOAD              INDEX    ADDRWD
000546:    6540           30002                           CA       2                                     #  LOAD A TRIPLE PRECISION ARGUMENT INTO
000547:    6541           54146                           TS       MPAC       +2                         #  THE FIRST THREE MPAC REGISTERS, WITH THE
000548:    6542           00006                           EXTEND                                         #  CONTENTS OF THE OTHER FOUR IRRELEVANT.
000549:
000550:    6543           50106                           INDEX    ADDRWD
000551:    6544           30001                           DCA      0
000552:    6545           52145                           DXCH     MPAC
000553:    6546           37755                           CAF      ONE
000554:    6547           16114                           TCF      NEWMODE                               #  DECLARE TRIPLE PRECISION MODE.
000555:
000556:    6550           22007        SLOAD              ZL                                             #  LOAD A SINGLE PRECISION NUMBER INTO
000557:    6551           50106                           INDEX    ADDRWD                                #  MPAC, SETTING MPAC+1,2 TO ZERO. THE
000558:    6552           30000                           CA       0                                     #  CONTENTS OF THE REMAINING MPAC REGISTERS
000559:    6553           16533                           TCF      SLOAD2                                #  ARE IRRELEVANT.
000560:
000561:    6554           00006        VLOAD              EXTEND                                         #  LOAD A DOUBLE PRECISION VECTOR INTO
000562:    6555           50106                           INDEX    ADDRWD                                #  MPAC,+1, MPAC+3,4, AND MPAC+5,6. THE
000563:    6556           30001                           DCA      0                                     #  CONTENTS OF MPAC +2 ARE IRRELEVANT.
000564:    6557           52145                           DXCH     MPAC
000565:
000566:    6560           00006        ENDVLOAD           EXTEND                                         #  PDVL COMES HERE TO FINISH UP FOR DP, TP.
000567:    6561           50106                           INDEX    ADDRWD
000568:    6562           30003                           DCA      2
000569:    6563           52150                           DXCH     MPAC       +3
000570:
000571:    6564           00006                 +4        EXTEND                                         #  TPDVL FINISHES HERE.
000572:    6565           50106                           INDEX    ADDRWD
000573:
000574:    6566           30005                           DCA      4
000575:    6567           52152                           DXCH     MPAC       +5
000576:
000577:    6570           47755                           CS       ONE                                   #  DECLARE VECTOR MODE.
000578:    6571           16114                           TCF      NEWMODE
000579:


000581:                                                                                                  #           THE FOLLOWING INSTRUCTIONS ARE PROVIDED FOR STORING OPERANDS IN THE PUSHDOWN LIST:
000582:
000583:                                                                                                  #           1.  PUSH               PUSHDOWN AND NO LOAD.
000584:                                                                                                  #           2.  PDDL               PUSHDOWN AND DOUBLE PRECISION LOAD.
000585:                                                                                                  #           3.  PDVL               PUSHDOWN AND VECTOR LOAD.
000586:
000587:    6572           00006        PDDL               EXTEND
000588:    6573           50106                           INDEX    ADDRWD                                #  LOAD MPAC,+1, PUSHING THE FORMER
000589:    6574           30001                           DCA      0                                     #  CONTENTS DOWN.
000590:    6575           52145                           DXCH     MPAC
000591:    6576           50156                           INDEX    PUSHLOC
000592:    6577           52001                           DXCH     0
000593:
000594:    6600           50153                           INDEX    MODE                                  #  ADVANCE THE PUSHDOWN POINTER APPRO-
000595:    6601           36300                           CAF      NO.WDS                                #  PRIATELY.
000596:    6602           26156                           ADS      PUSHLOC
000597:
000598:    6603           10153                           CCS      MODE
000599:    6604           16621                           TCF      ENDTPUSH
000600:
000601:    6605           16617                           TCF      ENDDPUSH
000602:
000603:    6606           54153                           TS       MODE                                  #  NOW DP.
000604:    6607           54146        ENDVPUSH           TS       MPAC       +2
000605:    6610           52150                           DXCH     MPAC       +3                         #  PUSH DOWN THE REST OF THE VECTOR HERE.
000606:    6611           50156                           INDEX    PUSHLOC
000607:    6612           51775                           DXCH     0          -4
000608:
000609:    6613           52152                           DXCH     MPAC       +5
000610:    6614           50156                           INDEX    PUSHLOC
000611:
000612:    6615           51777                           DXCH     0          -2
000613:
000614:    6616           16115                           TCF      DANZIG
000615:
000616:    6617           54146        ENDDPUSH           TS       MPAC       +2                         #  SET MPAC +2 TO ZERO AND EXIT ON DP.
000617:    6620           16115                           TCF      DANZIG
000618:
000619:    6621           54153        ENDTPUSH           TS       MODE
000620:    6622           56146                           XCH      MPAC       +2                         #  ON TRIPLE, SET MPAC +2 TO ZERO, PUSHING
000621:    6623           50156                 +2        INDEX    PUSHLOC                               #  DOWN THE OLD CONTENTS
000622:    6624           53777                           TS       0          -1
000623:    6625           16115                           TCF      DANZIG
000624:


000626:                                                                                                  #           PDVL - PUSHDOWN AND VECTOR LOAD.
000627:
000628:
000629:    6626           00006        PDVL               EXTEND                                         #  RELOAD MPAC AND PUSH DOWN ITS CONTENTS.
000630:    6627           50106                           INDEX    ADDRWD
000631:    6630           30001                           DCA      0
000632:    6631           52145                           DXCH     MPAC
000633:    6632           50156                           INDEX    PUSHLOC
000634:    6633           52001                           DXCH     0
000635:
000636:    6634           50153                           INDEX    MODE                                  #  ADVANCE THE PUSHDOWN POINTER.
000637:    6635           36300                           CAF      NO.WDS
000638:    6636           26156                           ADS      PUSHLOC
000639:
000640:    6637           10153                           CCS      MODE                                  #  TEST PAST MODE.
000641:    6640           16657                           TCF      TPDVL
000642:    6641           16560                           TCF      ENDVLOAD                              #  JUST LOAD LAST FOUR REGISTERS ON DP.
000643:
000644:    6642           00006        VPDVL              EXTEND                                         #  PUSHDOWN AND RE-LOAD LAST TWO COMPONENTS
000645:    6643           50106                           INDEX    ADDRWD
000646:    6644           30003                           DCA      2
000647:    6645           52150                           DXCH     MPAC       +3
000648:    6646           50156                           INDEX    PUSHLOC
000649:    6647           51775                           DXCH     0          -4
000650:
000651:    6650           00006                           EXTEND
000652:
000653:    6651           50106                           INDEX    ADDRWD
000654:    6652           30005                           DCA      4
000655:    6653           52152                           DXCH     MPAC       +5
000656:    6654           50156                           INDEX    PUSHLOC
000657:    6655           51777                           DXCH     0          -2
000658:
000659:    6656           16115                           TCF      DANZIG
000660:
000661:    6657           00006        TPDVL              EXTEND                                         #  ON TP, WE MUST LOAD THE Y COMPONENT
000662:    6660           50106                           INDEX    ADDRWD                                #  BEFORE STORING MPAC +2 INCASE THIS IS A
000663:
000664:    6661           30003                           DCA      2                                     #  PUSHUP.
000665:    6662           52150                           DXCH     MPAC       +3
000666:
000667:    6663           30146                           CA       MPAC       +2
000668:    6664           50156                           INDEX    PUSHLOC                               #  IN DP.
000669:    6665           53777                           TS       0          -1
000670:    6666           16564                           TCF      ENDVLOAD   +4
000671:
000672:                                                                                                  #           SSP (STORE SINGLE PRECISION) IS EXECUTED HERE.
000673:
000674:    6667           24154        SSP                INCR     LOC                                   #  PICK UP THE WORD FOLLOWING THE GIVEN
000675:    6670           50154                           INDEX    LOC                                   #  ADDRESS AND STORE IT AT X.
000676:
000677:    6671           30000                           CA       0
000678:    6672           50106        STORE1             INDEX    ADDRWD                                #  SOME INDEX AND MISCELLANEOUS OPS END
000679:    6673           54000                           TS       0                                     #  HERE.


000681:    6674           16115                           TCF      DANZIG
000682:


000684:                                                                                                  #  SEQUENCE CHANGING AND SUBROUTINE CALLING OPTIONS.
000685:
000686:                                                                                                  #           THE FOLLOWING OPERATIONS ARE AVAILABLE FOR SEQUENCING CHANGING, BRANCHING, AND CALLING SUBROUTINES:
000687:
000688:                                                                                                  #           1.  GOTO               GO TO.
000689:                                                                                                  #           2.  CALL               CALL SUBROUTINE SETTING QPRET.
000690:                                                                                                  #           3.  CGOTO              COMPUTED GO TO.
000691:                                                                                                  #           4.  CCALL              COMPUTED CALL.
000692:                                                                                                  #           7.  BPL                BRANCH IF MPAC POSITIVE OR ZERO.
000693:                                                                                                  #           8.  BZE                BRANCH IF MPAC ZERO.
000694:                                                                                                  #           9.  BMN                BRANCH IF MPAC NEGATIVE NON-ZERO.
000695:
000696:    6675           24154        CCALL              INCR     LOC                                   #  MAINTAIN LOC FOR QPRET COMPUTATION.
000697:    6676           50154                           INDEX    LOC
000698:
000699:    6677           30000                           CAF      0                                     #  GET BASE ADDRESS OF CADR LIST.
000700:    6700           50106                           INDEX    ADDRWD
000701:    6701           60000                           AD       0                                     #  ADD INCREMENT.
000702:    6702           54004                           TS       FBANK                                 #  SELECT DESIRED CADR.
000703:    6703           75356                           MASK     LOW10
000704:    6704           50000                           INDEX    A
000705:    6705           32000                           CAF      10000
000706:    6706           54107                           TS       POLISH
000707:
000708:    6707           30155        CALL               CA       BANKSET                               #  FOR ANY OF THE CALL OPTIONS, MAKE UP THE
000709:
000710:    6710           76331                           MASK     BANKMASK                              #  ADDRESS OF THE NEXT OP-CODE PAIR/STORE
000711:    6711           66331                           AD       BANKMASK                              #  CODE AND LEAVE IT IN QPRET.  NOTE THAT
000712:    6712           60154                           AD       LOC                                   #  BANKMASK = -(2000 - 1).
000713:    6713           50110                           INDEX    FIXLOC
000714:    6714           54052                           TS       QPRET
000715:
000716:    6715           30107        GOTO               CA       POLISH                                #  BASIC BRANCHING SEQUENCE.
000717:    6716           75367                 +1        MASK     HIGH4
000718:    6717           00006                           EXTEND
000719:    6720           16731                           BZF      GOTOERS                               #  SEE IF ADDRESS POINTS TO FIXED OR ERAS.
000720:    6721           30155                 +4        CA       BANKSET                               #  SET EBANK PART OF BBANK. NEXT, SET UP
000721:    6722           54006                           TS       BBANK                                 #  FBANK. THE COMBINATION IS PICKED UP &
000722:
000723:    6723           30107                           CA       POLISH                                #  PUT INTO BANKSET AT INTPRET +2.
000724:    6724           54004                           TS       FBANK
000725:    6725           75356                           MASK     LOW10
000726:    6726           67743                           AD       2K
000727:    6727           54154                           TS       LOC
000728:    6730           16105                           TCF      INTPRET    +2
000729:


000731:    6731  E3,1400                                  EBANK=   1400                                  #  SO YUL DOESN'T CUSS THE "CA 1400" BELOW.
000732:
000733:    6731           30107        GOTOERS            CA       POLISH                                #  THE GIVEN ADDRESS IS IN ERASABLE - SEE
000734:    6732           66305                           AD       -ENDVAC                               #  IF RELATIVE TO THE WORK AREA.
000735:    6733           10000                           CCS      A
000736:    6734           30107                           CA       POLISH                                #  GENERAL ERASABLE.
000737:
000738:    6735           16744                           TCF      GOTOGE
000739:
000740:    6736           30110                           CA       FIXLOC                                #  WORK AREA.
000741:    6737           60107                           AD       POLISH
000742:    6740           50000                           INDEX    A                                     #  USE THE GIVEN ADDRESS AS THE ADDRESS OF
000743:    6741           30000                           CA       0                                     #  THE BRANCH ADDRESS.
000744:    6742           54107                           TS       POLISH
000745:    6743           16716                           TCF      GOTO       +1                         #  ALLOWS ARBITRARY INDIRECTNESS LEVELS.
000746:
000747:    6744           54003        GOTOGE             TS       EBANK
000748:    6745           74553                           MASK     LOW8
000749:    6746           50000                           INDEX    A                                     #  USE THE GIVEN ADDRESS AS THE ADDRESS OF
000750:
000751:    6747           31400                           CA       1400                                  #  THE BRANCH ADDRESS.
000752:    6750           54107                           TS       POLISH
000753:    6751           16716                           TCF      GOTO       +1
000754:
000755:    6752           50154        CGOTO              INDEX    LOC                                   #  COMPUTED GO TO. PICK UP ADDRESS OF CADR
000756:    6753           30001                           CA       1                                     #  LIST.
000757:    6754           50106                           INDEX    ADDRWD                                #  ADD MODIFIER.
000758:    6755           60000                           AD       0
000759:    6756           54004                           TS       FBANK                                 #  SELECT GOTO ADDRESS.
000760:    6757           75356                           MASK     LOW10
000761:
000762:    6760           50000                           INDEX    A
000763:    6761           32000                           CA       10000
000764:    6762           54107                           TS       POLISH
000765:    6763           16716                           TCF      GOTO       +1                         #  WITH ADDRESS IN A.
000766:
000767:    6764           30155        SWBRANCH           CA       BANKSET                               #  SWITCH INSTRUCTIONS WHICH ELECT TO
000768:    6765           54004                           TS       FBANK                                 #  BRANCH COME HERE TO DO SO.
000769:    6766           50154                           INDEX    LOC
000770:    6767           30001                           CA       1
000771:    6770           54107                           TS       POLISH
000772:    6771           16716                           TCF      GOTO       +1
000773:


000775:                                                                                                  #           TRIPLE PRECISION BRANCHING ROUTINE. IF CALLING TC IS AT L, RETURN IS AS FOLLOWS:
000776:
000777:
000778:                                                                                                  #           L+1  IF MPAC IS GREATER THAN ZERO.
000779:                                                                                                  #           L+2  IF MPAC IS EQUAL TO +0 OR -0.
000780:                                                                                                  #           L+3  IF MPAC IS LESS THAN ZERO.
000781:
000782:
000783:    6772           10144        BRANCH             CCS      MPAC
000784:    6773           00002                           TC       Q
000785:    6774           16776                           TCF      +2                                    #  ON ZERO.
000786:    6775           17010                           TCF      NEG
000787:
000788:
000789:    6776           10145                           CCS      MPAC       +1
000790:    6777           00002                           TC       Q
000791:    7000           17002                           TCF      +2
000792:    7001           17010                           TCF      NEG
000793:
000794:    7002           10146                           CCS      MPAC       +2
000795:    7003           00002                           TC       Q
000796:    7004           17006                           TCF      +2
000797:    7005           17010                           TCF      NEG
000798:
000799:    7006           50002        Q+1                INDEX    Q
000800:
000801:    7007           00001                           TC       1
000802:
000803:    7010           50002        NEG                INDEX    Q                                     #  IF FIRST NON-ZERO REGISTER WAS NEGATIVE.
000804:    7011           00002                           TC       2
000805:
000806:
000807:
000808:    7012     7010               Q+2                =        NEG
000809:
000810:                                                                                                  #           ITRACE (3) REFERS TO "EXIT".
000811:
000812:    7012           30155        EXIT               CA       BANKSET                               #  RESTORE USER'S BANK SETTING, AND LEAVE
000813:    7013           54006                           TS       BBANK                                 #  INTERPRETIVE MODE.
000814:    7014           50154                           INDEX    LOC
000815:    7015           10001                           TCF      1
000816:


000818:                                                                                                  #  SECTION 3 - ADD/SUBTRACT PACKAGE.
000819:
000820:                                                                                                  #           THE FOLLOWING OPERATIONS ARE PROVIDED FOR ADDING TO AND SUBTRACTING FROM THE MULTI-PURPOSE ACCUMULATOR
000821:                                                                                                  #  MPAC:
000822:
000823:                                                                                                  #           1.  DAD                DOUBLE PRECISION ADD.
000824:                                                                                                  #           2.  DSU                DOUBLE PRECISION SUBTRACT.
000825:                                                                                                  #           3.  BDSU               DOUBLE PRECISION SUBTRACT FROM.
000826:
000827:
000828:                                                                                                  #           4.  TAD                TRIPLE PRECISION ADD.
000829:
000830:                                                                                                  #           5.  VAD                VECTOR ADD.
000831:                                                                                                  #           6.  VSU                VECTOR SUBTRACT.
000832:                                                                                                  #           7.  BVSU               VECTOR SUBTRACT FROM.
000833:
000834:                                                                                                  #  THE INTERPRETIVE OVERFLOW INDICATOR OVFIND IS SET NON-ZERO IF OVERFLOW OCCURS IN ANY OF THE ABOVE.
000835:
000836:
000837:
000838:    7016           00006        VAD                EXTEND
000839:    7017           50106                           INDEX    ADDRWD
000840:    7020           30003                           DCA      2
000841:    7021           20150                           DAS      MPAC       +3
000842:    7022           00006                           EXTEND                                         #  CHECK OVERFLOW.
000843:    7023           17025                           BZF      +2
000844:    7024           07072                           TC       OVERFLOW
000845:
000846:    7025           00006                           EXTEND
000847:    7026           50106                           INDEX    ADDRWD
000848:    7027           30005                           DCA      4
000849:    7030           20152                           DAS      MPAC       +5
000850:
000851:    7031           00006                           EXTEND
000852:    7032           17034                           BZF      +2
000853:    7033           07072                           TC       OVERFLOW
000854:
000855:    7034           00006        DAD                EXTEND
000856:    7035           50106                           INDEX    ADDRWD
000857:    7036           30001                           DCA      0
000858:    7037           20145        ENDVXV             DAS      MPAC                                  #  VXV FINISHES HERE.
000859:    7040           00006                           EXTEND
000860:    7041           16115                           BZF      DANZIG
000861:
000862:    7042           07072                           TC       OVERFLOW
000863:    7043           16115                           TCF      DANZIG
000864:


000866:    7044           00006        VSU                EXTEND
000867:
000868:    7045           50106                           INDEX    ADDRWD
000869:    7046           40003                           DCS      2
000870:    7047           20150                           DAS      MPAC       +3
000871:    7050           00006                           EXTEND
000872:    7051           17053                           BZF      +2
000873:    7052           07072                           TC       OVERFLOW
000874:
000875:    7053           00006                           EXTEND
000876:    7054           50106                           INDEX    ADDRWD
000877:    7055           40005                           DCS      4
000878:    7056           20152                           DAS      MPAC       +5
000879:    7057           00006                           EXTEND
000880:
000881:    7060           17062                           BZF      +2
000882:    7061           07072                           TC       OVERFLOW
000883:
000884:    7062           00006        DSU                EXTEND
000885:    7063           50106                           INDEX    ADDRWD
000886:    7064           40001                           DCS      0
000887:    7065           20145                           DAS      MPAC
000888:    7066           00006                           EXTEND
000889:    7067           16115                           BZF      DANZIG
000890:    7070           07072                           TC       OVERFLOW
000891:
000892:    7071           16115                           TCF      DANZIG
000893:
000894:    7072           37755        OVERFLOW           CAF      ONE                                   #  SUBROUTINE TO TURN OVFIND ON.
000895:    7073           17215                           TCF      SETOVF2
000896:


000898:    7074           00006        BVSU               EXTEND
000899:    7075           50106                           INDEX    ADDRWD
000900:    7076           30003                           DCA      2
000901:    7077           52150                           DXCH     MPAC       +3
000902:    7100           00006                           EXTEND
000903:    7101           40001                           DCOM
000904:
000905:    7102           20150                           DAS      MPAC       +3
000906:    7103           00006                           EXTEND
000907:    7104           17106                           BZF      +2
000908:    7105           07072                           TC       OVERFLOW
000909:
000910:    7106           00006                           EXTEND
000911:    7107           50106                           INDEX    ADDRWD
000912:    7110           30005                           DCA      4
000913:    7111           52152                           DXCH     MPAC       +5
000914:    7112           00006                           EXTEND
000915:    7113           40001                           DCOM
000916:    7114           20152                           DAS      MPAC       +5
000917:
000918:    7115           00006                           EXTEND
000919:    7116           17120                           BZF      +2
000920:    7117           07072                           TC       OVERFLOW
000921:
000922:    7120           00006        BDSU               EXTEND
000923:    7121           50106                           INDEX    ADDRWD
000924:    7122           30001                           DCA      0
000925:    7123           52145                           DXCH     MPAC
000926:    7124           00006                           EXTEND
000927:    7125           40001                           DCOM
000928:
000929:    7126           20145                           DAS      MPAC
000930:    7127           00006                           EXTEND
000931:    7130           16115                           BZF      DANZIG
000932:    7131           07072                           TC       OVERFLOW
000933:    7132           16115                           TCF      DANZIG
000934:


000936:                                                                                                  #           TRIPLE PRECISION ADD ROUTINE.
000937:
000938:
000939:    7133           00006        TAD                EXTEND
000940:    7134           50106                           INDEX    ADDRWD
000941:    7135           30002                           DCA      1                                     #  ADD MINOR PARTS FIRST.
000942:    7136           20146                           DAS      MPAC       +1
000943:    7137           50106                           INDEX    ADDRWD
000944:    7140           60000                           AD       0
000945:    7141           60144                           AD       MPAC
000946:    7142           54144                           TS       MPAC
000947:    7143           16115                           TCF      DANZIG
000948:
000949:    7144           54111        SETOVF             TS       OVFIND                                #  SET OVFIND IF SUCH OCCURS.
000950:    7145           16115                           TCF      DANZIG
000951:


000953:                                                                                                  #  ARITHMETIC SUBROUTINES REQUIRED IN FIXED-FIXED.
000954:
000955:                                                                                                  #           1.  DMPSUB     DOUBLE PRECISION MULTIPLY. MULTIPLY THE CONTENTS OF MPAC,+1 BY THE DP WORD WHOSE ADDRESS
000956:                                                                                                  #                          IS IN ADDRWD AND LEAVE A TRIPLE PRECISION RESULT IN MPAC.
000957:                                                                                                  #           2.  ROUNDSUB   ROUND THE TRIPLE PRECISON CONTENTS OF MPAC TO DOUBLE PRECISION.
000958:                                                                                                  #           3.  DOTSUB     TAKE THE DOT PRODUCT OF THE VECTOR IN MPAC AND THE VECTOR WHOSE ADDRESS IS IN ADDRWD
000959:                                                                                                  #                          AND LEAVE THE TRIPLE PRECISION RESULT IN MPAC.
000960:                                                                                                  #           4.  POLY       USING THE CONTENTS OF MPAC AS A DP ARGUMENT, EVALUATE THE POLYNOMIAL WHOSE DEGREE AND
000961:
000962:                                                                                                  #                          COEFFICIENTS IMMEDIATELY FOLLOW THE TC POLY INSTRUCTION (SEE ROUTINE FOR DETAILS.)
000963:
000964:
000965:
000966:    7146           50002        DMP                INDEX    Q                                     #  BASIC SUBROUTINE FOR USE BY PINBALL, ETC
000967:    7147           30000                           CAF      0                                     #  ADRES OF ARGUMENT FOLLOWS  TC DMP  .
000968:    7150           24002                           INCR     Q
000969:    7151           54106                 -1        TS       ADDRWD                                #  (PROLOGUE FOR SETTING ADDRWD.)
000970:
000971:    7152           50106        DMPSUB             INDEX    ADDRWD                                #  GET MINOR PART OF OPERAND AT C(ADDRWD).
000972:
000973:    7153           30001                           CA       1
000974:    7154           54146                           TS       MPAC       +2                         #  THIS WORKS FOR SQUARING MPAC AS WELL.
000975:    7155           37761                           CAF      ZERO                                  #  SET MPAC +1 TO ZERO SO WE CAN ACCUMULATE
000976:    7156           56145                           XCH      MPAC       +1                         #  THE PARTIAL PRODUCTS WITH DAS
000977:    7157           54125                           TS       MPTEMP                                #  INSTRUCTIONS.
000978:    7160           00006                           EXTEND
000979:    7161           70146                           MP       MPAC       +2                         #  MINOR OF MPAC X MINOR OF C(ADDRWD).
000980:
000981:    7162           56146                           XCH      MPAC       +2                         #  DISCARD MINOR PART OF ABOVE RESULT AND
000982:    7163           00006                           EXTEND                                         #  FORM MAJOR OF MPAC X MINOR OF C(ADDRWD).
000983:    7164           70144                           MP       MPAC
000984:    7165           20146                           DAS      MPAC       +1                         #  GUARANTEED NO OVERFLOW.
000985:
000986:    7166           50106                           INDEX    ADDRWD                                #  GET MAJOR PART OF ARGUMENT AT C(ADDRWD).
000987:    7167           30000                           CA       0
000988:    7170           56125                           XCH      MPTEMP                                #  SAVE AND BRING OUT MINOR OF MPAC.
000989:    7171           00006                           EXTEND
000990:    7172           70125                           MP       MPTEMP                                #  MAJOR OF C(ADDRWD) X MINOR OF MPAC.
000991:    7173           20146                           DAS      MPAC       +1                         #  ACCUMULATE, SETTING A TO NET OVERFLOW.
000992:
000993:    7174           56144                           XCH      MPAC                                  #  SETTING MPAC TO 0 OR +-1.
000994:    7175           00006                           EXTEND
000995:
000996:    7176           70125                           MP       MPTEMP                                #  MAJOR OF MPAC X MAJOR OF C(ADDRWD).
000997:    7177           20145                           DAS      MPAC                                  #  GUARANTEED NO OVERFLOW.
000998:    7200           00002                           TC       Q                                     #  49 MCT = .573 MS. INCLUDING RETURN.
000999:


001001:                                                                                                  #           ROUND MPAC TO DOUBLE PRECISION, SETTING OVFIND ON THE RARE EVENT OF OVERFLOW.
001002:
001003:    7201           37761        ROUNDSUB           CAF      ZERO                                  #  SET MPAC +2 = 0 FOR SCALARS AND CHANGE
001004:    7202           54153                 +1        TS       MODE                                  #  MODE TO DP.
001005:
001006:    7203           56146        VROUND             XCH      MPAC       +2                         #  BUT WE NEEDNT TAKE THE TIME FOR VECTORS.
001007:    7204           60000                           DOUBLE
001008:    7205           54001                           TS       L
001009:    7206           00002                           TC       Q
001010:
001011:    7207           60145                           AD       MPAC       +1                         #  ADD ROUNDING BIT IF MPAC +2 WAS GREATER
001012:    7210           54145                           TS       MPAC       +1                         #  THAN .5 IN MAGNITUDE.
001013:    7211           00002                           TC       Q
001014:
001015:
001016:    7212           60144                           AD       MPAC                                  #  PROPAGATE INTERFLOW.
001017:    7213           54144                           TS       MPAC
001018:    7214           00002                           TC       Q
001019:
001020:    7215           54111        SETOVF2            TS       OVFIND                                #  (RARE).
001021:    7216           00002                           TC       Q
001022:


001024:                                                                                                  #           THE DOT PRODUCT SUBROUTINE USUALLY FORMS THE DOT PRODUCT OF THE VECTOR IN MPAC WITH A STANDARD SIX
001025:                                                                                                  #  REGISTER VECTOR WHOSE ADDRESS IS IN ADDRWD. IN THIS CASE C(DOTINC) ARE SET TO 2. VXM, HOWEVER, SETS C(DOTINC) TO
001026:                                                                                                  #  6 SO THAT DOTSUB DOTS MPAC WITH A COLUMN VECTOR OF THE MATRIX IN QUESTION IN THIS CASE.
001027:
001028:
001029:
001030:    7217           37754        PREDOT             CAF      TWO                                   #  PROLOGUE TO SET DOTINC TO 2.
001031:    7220           54126                           TS       DOTINC
001032:
001033:    7221           00006        DOTSUB             EXTEND
001034:    7222           22127                           QXCH     DOTRET                                #  SAVE RETURN.
001035:    7223           07152                           TC       DMPSUB                                #  DOT X COMPONENTS.
001036:    7224           52150                           DXCH     MPAC       +3                         #  POSITION Y COMPONENT OF MPAC FOR
001037:    7225           52145                           DXCH     MPAC                                  #  MULTIPLICATION WHILE SAVING RESULT IN
001038:    7226           52121                           DXCH     BUF                                   #  THREE WORD BUFFER, BUF.
001039:    7227           30146                           CA       MPAC       +2
001040:    7230           54122                           TS       BUF        +2
001041:
001042:    7231           30126                           CA       DOTINC                                #  ADVANCE ADDRWD TO Y COMPONENT OF
001043:
001044:    7232           26106                           ADS      ADDRWD                                #  OTHER ARGUMENT.
001045:    7233           07152                           TC       DMPSUB
001046:    7234           52146                           DXCH     MPAC       +1                         #  ACCUMULATE PARTIAL PRODUCTS.
001047:    7235           20122                           DAS      BUF        +1
001048:    7236           60144                           AD       MPAC
001049:    7237           60120                           AD       BUF
001050:    7240           54120                           TS       BUF
001051:    7241           17243                           TCF      +2
001052:    7242           54111                           TS       OVFIND                                #  IF OVERFLOW OCCURS.
001053:
001054:    7243           52152                           DXCH     MPAC       +5                         #  MULTIPLY Z COMPONENTS.
001055:    7244           52145                           DXCH     MPAC
001056:    7245           30126                           CA       DOTINC
001057:    7246           26106                           ADS      ADDRWD
001058:    7247           07152                           TC       DMPSUB
001059:    7250           52122        ENDDOT             DXCH     BUF        +1                         #  LEAVE FINAL ACCUMULATION IN MPAC.
001060:    7251           20146                           DAS      MPAC       +1
001061:    7252           60144                           AD       MPAC
001062:    7253           60120                           AD       BUF
001063:    7254           54144                           TS       MPAC
001064:    7255           00127                           TC       DOTRET
001065:
001066:    7256           54111                           TS       OVFIND                                #  ON OVERFLOW HERE.
001067:
001068:    7257           00127                           TC       DOTRET
001069:


001071:                                                                                                  #  DOUBLE PRECISION POLYNOMIAL EVALUATOR
001072:
001073:
001074:                                                                                                  #                                     N        N-1
001075:                                                                                                  #           THIS ROUTINE EVALUATES A X  + A   X    + ... + A X + A  LEAVING THE DP RESULT IN MPAC ON EXIT.
001076:                                                                                                  #                                   N      N-1              1     0
001077:
001078:                                                                                                  #  THE ROUTINE HAS TWO ENTRIES
001079:
001080:                                                                                                  #           1. ENTRY THRU POWRSERS. THE COEFFICIENTS MAY BE EITHER IN FIXED OR ERASABLE, THE CALL IS BY
001081:                                                                                                  #              TC POWRSERS, AND THE RETURN IS TO LOC(TC POWRSERS)+1. THE ENTERING DATA MUST BE AS FOLLOWS
001082:
001083:                                                                                                  #                                          A        SP     LOC-3           ADDRESS FOR REFERENCING COEF TABLE
001084:
001085:                                                                                                  #                                          L        SP     N-1             N IS THE DEGREE OF THE POWER SERIES
001086:                                                                                                  #                                          MPAC     DP     X               ARGUMENT
001087:
001088:                                                                                                  #                                          LOC-2N   DP     A(0)
001089:                                                                                                  #                                                   ...
001090:                                                                                                  #                                          LOC      DP     A(N)
001091:
001092:                                                                                                  #           2. ENTRY THRU POLY. THE CALL TO POLY AND THE ENTERING DATA MUST BE AS FOLLOWS
001093:
001094:                                                                                                  #                                          MPAC     DP     X               ARGUMENT
001095:
001096:                                                                                                  #                                          LOC      TC     POLY
001097:
001098:                                                                                                  #                                          LOC+1    SP     N-1
001099:                                                                                                  #                                          LOC+2    DP     A(0)
001100:                                                                                                  #                                                   ...
001101:                                                                                                  #                                          LOC+2N+2 DP     A(N)            RETURN IS TO LOC+2N+4
001102:
001103:    7260           00006        POWRSERS           EXTEND
001104:    7261           22131                           QXCH     POLYRET                               #  RETURN ADDRESS
001105:    7262           54107                           TS       POLISH                                #  POWER SERIES ADDRESS
001106:    7263           22130                           LXCH     POLYCNT                               #  N-1 TO COUNTER
001107:    7264           17275                           TCF      POLYCOM                               #  SKIP SET UP BY POLY
001108:
001109:    7265           50002        POLY               INDEX    Q
001110:    7266           30000                           CAF      0
001111:    7267           54130                           TS       POLYCNT                               #  N-1 TO COUNTER
001112:    7270           60000                           DOUBLE
001113:    7271           60002                           AD       Q
001114:    7272           54107                           TS       POLISH                                #  L(A(N))-3 TO POLISH
001115:    7273           67760                           AD       FIVE
001116:    7274           54131                           TS       POLYRET                               #  STORE RETURN ADDRESS
001117:
001118:    7275           35365        POLYCOM            CAF      LVBUF                                 #  INCOMING X WILL BE MOVED TO VBUF, SO
001119:    7276           54106                           TS       ADDRWD                                #  SET ADDRWD SO DMPSUB WILL MPY BY VBUF.
001120:
001121:
001122:    7277           00006                           EXTEND
001123:    7300           50107                           INDEX    POLISH
001124:    7301           30004                           DCA      3
001125:


001127:    7302           52145                           DXCH     MPAC                                  #  LOAD A(N) INTO MPAC,
001128:    7303           52113                           DXCH     VBUF                                  #  SAVING X IN VBUF
001129:    7304           17310                           TCF      POLY2
001130:
001131:    7305           54130        POLYLOOP           TS       POLYCNT                               #  SAVE DECREMENTED LOOP COUNTER
001132:    7306           47754                           CS       TWO
001133:    7307           26107                           ADS      POLISH                                #  REGRESS COEFFICIENT POINTER
001134:
001135:
001136:    7310           07152        POLY2              TC       DMPSUB                                #  MULTIPLY BY X
001137:    7311           00006                           EXTEND
001138:    7312           50107                           INDEX    POLISH
001139:    7313           30002                           DCA      1                                     #  ADD IN NEXT COEFFICIENT
001140:    7314           20145                           DAS      MPAC                                  #  USERS RESPONSIBILITY TO ASSURE NO OVFLOW
001141:
001142:    7315           10130                           CCS      POLYCNT
001143:    7316           17305                           TCF      POLYLOOP
001144:    7317           00131                           TC       POLYRET                               #  RETURN CALLER
001145:


001147:                                                                                                  #           MISCELLANEOUS MULTI-PRECISION ROUTINES REQUIRED IN FIXED-FIXED BUT NOT USED BY THE INTERPRETER.
001148:
001149:    7320           00006        TPAGREE            EXTEND                                         #  FORCE SIGN AGREEMENT AMONG THE TRIPLE-
001150:    7321           22120                           QXCH     BUF                                   #  PRECISION CONTENTS OF MPAC, RETURNING
001151:    7322           06772                           TC       BRANCH                                #  WITH THE SIGNUM OF THE INPUT IN A.
001152:    7323           17327                           TCF      ARG+
001153:    7324           17347                           TCF      ARGZERO
001154:
001155:    7325           47735                           CS       POSMAX                                #  IF NEGATIVE.
001156:    7326           17330                           TCF      +2
001157:
001158:    7327           37735        ARG+               CAF      POSMAX
001159:    7330           54121                 +2        TS       BUF        +1
001160:    7331           00006                           EXTEND
001161:
001162:    7332           24000                           AUG      A                                     #  FORMS +-1.0.
001163:    7333           60146                           AD       MPAC       +2
001164:    7334           54146                           TS       MPAC       +2
001165:    7335           37761                           CAF      ZERO
001166:    7336           60121                           AD       BUF        +1
001167:    7337           60145                           AD       MPAC       +1
001168:    7340           54145                           TS       MPAC       +1
001169:    7341           37761                           CAF      ZERO
001170:    7342           60121                           AD       BUF        +1
001171:    7343           60144                           AD       MPAC
001172:
001173:    7344           54144        ARGZERO2           TS       MPAC                                  #  ALWAYS SKIPPING UNLESS ARGZERO.
001174:    7345           54145                           TS       MPAC       +1
001175:    7346           00120                           TC       BUF                                   #  RETURN.
001176:
001177:    7347           54146        ARGZERO            TS       MPAC       +2                         #  SET ALL THREE MPAC REGISTERS TO ZERO.
001178:    7350           17344                           TCF      ARGZERO2
001179:
001180:                                                                                                  #           SHORTMP MULTIPLIES THE TP CONTENTS OF MPAC BY THE SINGLE PRECISION NUMBER ARRIVING IN A.
001181:
001182:    7351           54125        SHORTMP            TS       MPTEMP
001183:    7352           00006                           EXTEND
001184:    7353           70146                           MP       MPAC       +2
001185:
001186:    7354           54146                           TS       MPAC       +2
001187:    7355           37761                           CAF      ZERO                                  #  SO SUBSEQUENT DAS WILL WORK.
001188:    7356           56145                           XCH      MPAC       +1
001189:    7357           00006                           EXTEND
001190:    7360           70125                           MP       MPTEMP
001191:    7361           20146                           DAS      MPAC       +1
001192:    7362           56144                           XCH      MPAC                                  #  SETTING MPAC TO 0.
001193:    7363           00006                           EXTEND
001194:    7364           70125                           MP       MPTEMP
001195:    7365           20145                           DAS      MPAC
001196:
001197:    7366           00002                           TC       Q
001198:


001200:                                                                                                  #         DMPNSUB MULTIPLIES THE DP FRACTION ARRIVING IN MPAC BY THE SP
001201:                                                                                                  #  INTEGER ARRIVING IN A.  THE DP PRODUCT DEPARTS BOTH IN MPAC AND IN
001202:                                                                                                  #  A AND L.  NOTE THAT DMPNSUB NORMALLY INCREASES THE MAGNITUDE OF THE
001203:                                                                                                  #  CONTENTS OF MPAC.  THE CUSTOMER MUST INSURE THAT B(A) X B(MPAC,MPAC+1)
001204:                                                                                                  #  AND B(A) X B(MPAC) ARE LESS THAN 1 IN MAGNITUDE, WHERE B, AS IS OBVIOUS,
001205:                                                                                                  #  INDICATES THE ARRIVING CONTENTS.
001206:
001207:
001208:    7367           54125        DMPNSUB            TS       DMPNTEMP
001209:    7370           00006                           EXTEND
001210:    7371           70145                           MP       MPAC       +1
001211:    7372           52145                           DXCH     MPAC                                  #  LOW PRODUCT TO MPAC, HIGH FACTOR TO A
001212:    7373           00006                           EXTEND
001213:    7374           70125                           MP       DMPNTEMP
001214:    7375           30001                           CA       L
001215:    7376           26144                           ADS      MPAC                                  #  COMPLETING THE PRODUCT IN MPAC
001216:    7377           00006                           EXTEND
001217:    7400           30145                           DCA      MPAC                                  #  BRINGING THE PRODUCT INTO A AND L
001218:    7401           00002                           TC       Q
001219:


001221:                                                                                                  #  MISCELLANEOUS VECTOR OPERATIONS. INCLUDED HERE ARE THE FOLLOWING:
001222:
001223:
001224:                                                                                                  #           1.  DOT                DP VECTOR DOT PRODUCT.
001225:                                                                                                  #           2.  VXV                DP VECTOR CROSS PRODUCT.
001226:                                                                                                  #           3.  VXSC               DP VECTOR TIMES SCALAR.
001227:                                                                                                  #           4.  V/SC               DP VECTOR DIVIDED BY SCALAR.
001228:                                                                                                  #           5.  VPROJ              DP VECTOR PROJECTION.  ( (MPAC.X)MPAC ).
001229:                                                                                                  #           6.  VXM                DP VECTOR POST-MULTIPLIED BY MATRIX.
001230:                                                                                                  #           7.  MXV                DP VECTOR PRE-MULTIPLIED BY MATRIX.
001231:
001232:
001233:
001234:    7402           07217        DOT                TC       PREDOT                                #  DO THE DOT PRODUCT AND EXIT, CHANGING
001235:    7403           37761                           CAF      ZERO                                  #  THE MODE TO DP SCALAR.
001236:    7404           16114                           TCF      NEWMODE
001237:
001238:
001239:
001240:    7405           37754        MXV                CAF      TWO                                   #  SET UP MATINC AND DOTINC FOR ROW
001241:    7406           54130                           TS       MATINC                                #  VECTORS.
001242:    7407           17413                           TCF      VXM/MXV                               #  GO TO COMMON PORTION.
001243:
001244:    7410           44557        VXM                CS       TEN                                   #  SET MATINC AND DOTINC TO REFER TO MATRIX
001245:    7411           54130                           TS       MATINC                                #  AS THREE COLUMN VECTORS.
001246:    7412           36276                           CAF      SIX
001247:


001249:                                                                                                  #           COMMON PORTION OF MXV AND VXM.
001250:
001251:    7413           54126        VXM/MXV            TS       DOTINC
001252:                                                                                                  #           ITRACE (2) REFERS TO "VXM/MXV".
001253:    7414           07604                           TC       MPACVBUF                              #  SAVE VECTOR IN MPAC FOR FURTHER USE.
001254:
001255:    7415           07221                           TC       DOTSUB                                #  GO DOT TO GET X COMPONENT OF ANSWER.
001256:    7416           00006                           EXTEND
001257:
001258:    7417           30113                           DCA      VBUF                                  #  MOVE MPAC VECTOR BACK INTO MPAC, SAVING
001259:    7420           52145                           DXCH     MPAC                                  #  NEW X COMPONENT IN BUF2.
001260:    7421           52124                           DXCH     BUF2
001261:    7422           00006                           EXTEND
001262:    7423           30115                           DCA      VBUF       +2
001263:    7424           52150                           DXCH     MPAC       +3
001264:    7425           00006                           EXTEND
001265:    7426           30117                           DCA      VBUF       +4
001266:    7427           52152                           DXCH     MPAC       +5
001267:    7430           30130                           CA       MATINC                                #  INITIALIZE ADDRWD FOR NEXT DOT PRODUCT.
001268:
001269:    7431           26106                           ADS      ADDRWD                                #  FORMS BASE ADDRESS OF NEXT COLUMN(ROW).
001270:
001271:    7432           07221                           TC       DOTSUB
001272:    7433           52113                           DXCH     VBUF                                  #  MOVE GIVEN VECTOR BACK TO MPAC, SAVING Y
001273:    7434           52145                           DXCH     MPAC                                  #  COMPONENT OF ANSWER IN VBUF +2.
001274:    7435           52115                           DXCH     VBUF       +2
001275:    7436           52150                           DXCH     MPAC       +3
001276:    7437           52117                           DXCH     VBUF       +4
001277:    7440           52152                           DXCH     MPAC       +5
001278:    7441           30130                           CA       MATINC                                #  FORM ADDRESS OF LAST COLUMN OR ROW.
001279:    7442           26106                           ADS      ADDRWD
001280:
001281:    7443           07221                           TC       DOTSUB
001282:    7444           52124                           DXCH     BUF2                                  #  ANSWER NOW COMPLETE. PUT COMPONENTS INTO
001283:    7445           52145                           DXCH     MPAC                                  #  PROPER MPAC REGISTERS.
001284:    7446           52152                           DXCH     MPAC       +5
001285:    7447           52115                           DXCH     VBUF       +2
001286:    7450           52150                           DXCH     MPAC       +3
001287:    7451           16115                           TCF      DANZIG                                #  EXIT.
001288:


001290:                                                                                                  #           VXSC - VECTOR TIMES SCALAR.
001291:
001292:    7452           10153        VXSC               CCS      MODE                                  #  TEST PRESENT MODE.
001293:    7453           17501                           TCF      DVXSC                                 #  SEPARATE ROUTINE WHEN SCALAR IS IN MPAC.
001294:    7454           17501                           TCF      DVXSC
001295:
001296:    7455           07152        VVXSC              TC       DMPSUB                                #  COMPUTE X COMPONENT
001297:    7456           07203                           TC       VROUND                                #  AND ROUND IT.
001298:    7457           52150                           DXCH     MPAC       +3                         #  PUT Y COMPONENT INTO MPAC SAVING MPAC IN
001299:    7460           52145                           DXCH     MPAC                                  #  MPAC +3.
001300:    7461           52150                           DXCH     MPAC       +3
001301:
001302:    7462           07152                           TC       DMPSUB                                #  DO SAME FOR Y AND Z COMPONENTS.
001303:    7463           07203                           TC       VROUND
001304:
001305:    7464           52152                           DXCH     MPAC       +5
001306:    7465           52145                           DXCH     MPAC
001307:    7466           52152                           DXCH     MPAC       +5
001308:
001309:    7467           07152                           TC       DMPSUB
001310:    7470           07203                           TC       VROUND
001311:    7471           52145        VROTATEX           DXCH     MPAC                                  #  EXIT USED TO RESTORE MPAC AFTER THIS
001312:    7472           52152                           DXCH     MPAC       +5                         #  TYPE OF ROTATION. CALLED BY VECTOR SHIFT
001313:    7473           52150                           DXCH     MPAC       +3                         #  RIGHT, V/SC, ETC.
001314:    7474           52145                           DXCH     MPAC
001315:
001316:    7475           16115                           TCF      DANZIG
001317:


001319:                                                                                                  #           DP VECTOR PROJECTION ROUTINE.
001320:
001321:    7476           07217        VPROJ              TC       PREDOT                                #  (MPAC.X)MPAC IS COMPUTED AND LEFT IN
001322:    7477           47753                           CS       FOUR                                  #  MPAC. DO DOT AND FALL INTO DVXSC.
001323:    7500           26106                           ADS      ADDRWD
001324:
001325:                                                                                                  #           VXSC WHEN SCALAR ARRIVES IN MPAC AND VECTOR IS AT X.
001326:
001327:    7501           00006        DVXSC              EXTEND                                         #  SAVE SCALAR IN MPAC +3 AND GET X
001328:    7502           30145                           DCA      MPAC                                  #  COMPONENT OF ANSWER.
001329:    7503           52150                           DXCH     MPAC       +3
001330:    7504           07152                           TC       DMPSUB
001331:    7505           07203                           TC       VROUND
001332:
001333:    7506           37754                           CAF      TWO                                   #  ADVANCE ADDRWD TO Y COMPONENT OF X.
001334:    7507           26106                           ADS      ADDRWD
001335:    7510           00006                           EXTEND
001336:    7511           30150                           DCA      MPAC       +3                         #  PUT SCALAR BACK INTO MPAC AND SAVE
001337:    7512           52145                           DXCH     MPAC                                  #  X RESULT IN MPAC +5.
001338:
001339:    7513           52152                           DXCH     MPAC       +5
001340:    7514           07152                           TC       DMPSUB
001341:    7515           07203                           TC       VROUND
001342:
001343:    7516           37754                           CAF      TWO
001344:    7517           26106                           ADS      ADDRWD                                #  TO Z COMPONENT.
001345:    7520           52150                           DXCH     MPAC       +3                         #  BRING SCALAR BACK, PUTTING Y RESULT IN
001346:    7521           52145                           DXCH     MPAC                                  #  THE PROPER PLACE.
001347:    7522           52150                           DXCH     MPAC       +3
001348:    7523           07152                           TC       DMPSUB
001349:
001350:    7524           07203                           TC       VROUND
001351:
001352:    7525           52145                           DXCH     MPAC                                  #  PUT Z COMPONENT IN PROPER PLACE, ALSO
001353:    7526           52152                           DXCH     MPAC       +5                         #  POSITIONING X.
001354:    7527           52145                           DXCH     MPAC
001355:
001356:    7530           47755                           CS       ONE                                   #  MODE HAS CHANGED TO VECTOR.
001357:    7531           16114                           TCF      NEWMODE
001358:


001360:                                                                                                  #           THE VECTOR CROSS PRODUCT ROUTINE CALCULATES (X M -X M ,X M -X M ,X M -X M ) WHERE M IS THE VECTOR IN
001361:                                                                                                  #                                                         3 2  2 3  1 3  3 1  2 1  1 2
001362:
001363:                                                                                                  #  MPAC AND X THE VECTOR AT THE GIVEN ADDRESS.
001364:
001365:
001366:
001367:    7532           00006        VXV                EXTEND
001368:    7533           30152                           DCA      MPAC       +5                         #  FORM UP M3X1, LEAVING M1 IN VBUF.
001369:    7534           52145                           DXCH     MPAC
001370:    7535           52113                           DXCH     VBUF
001371:    7536           07152                           TC       DMPSUB                                #  BY X1.
001372:
001373:    7537           00006                           EXTEND
001374:    7540           40150                           DCS      MPAC       +3                         #  CALCULATE -X1M2, SAVING X1M3 IN VBUF +2.
001375:    7541           52145                           DXCH     MPAC
001376:    7542           52115                           DXCH     VBUF       +2
001377:    7543           07152                           TC       DMPSUB
001378:
001379:    7544           37754                           CAF      TWO                                   #  ADVANCE ADDRWD TO X2.
001380:    7545           26106                           ADS      ADDRWD
001381:    7546           00006                           EXTEND
001382:    7547           40152                           DCS      MPAC       +5                         #  PREPARE TO GET -X2M3, SAVING -X1M2 IN
001383:    7550           52145                           DXCH     MPAC                                  #  MPAC +5.
001384:    7551           52152                           DXCH     MPAC       +5
001385:    7552           07152                           TC       DMPSUB
001386:
001387:
001388:    7553           00006                           EXTEND
001389:    7554           30113                           DCA      VBUF                                  #  GET X2M1, SAVING -X2M3 IN VBUF +4.
001390:    7555           52145                           DXCH     MPAC
001391:    7556           52117                           DXCH     VBUF       +4
001392:    7557           07152                           TC       DMPSUB
001393:
001394:    7560           37754                           CAF      TWO                                   #  ADVANCE ADDRWD TO X3.
001395:    7561           26106                           ADS      ADDRWD
001396:    7562           00006                           EXTEND
001397:
001398:    7563           40113                           DCS      VBUF                                  #  GET -X3M1, ADDING X2M1 TO MPAC +5 TO
001399:    7564           52145                           DXCH     MPAC                                  #  COMPLETE THE Z COMPONENT OF THE ANSWER.
001400:    7565           20152                           DAS      MPAC       +5
001401:
001402:    7566           00006                           EXTEND
001403:    7567           17571                           BZF      +2
001404:    7570           07072                           TC       OVERFLOW


001406:    7571           07152                           TC       DMPSUB
001407:    7572           52115                           DXCH     VBUF       +2                         #  MOVE X1M3 TO MPAC +3 SETTING UP FOR X3M2
001408:    7573           52150                           DXCH     MPAC       +3                         #  AND ADD -X3M1 TO MPAC +3 TO COMPLETE THE
001409:    7574           52145                           DXCH     MPAC                                  #  Y COMPONENT OF THE RESULT.
001410:    7575           20150                           DAS      MPAC       +3
001411:
001412:    7576           00006                           EXTEND
001413:    7577           17601                           BZF      +2
001414:
001415:    7600           07072                           TC       OVERFLOW
001416:
001417:    7601           07152                           TC       DMPSUB
001418:    7602           52117                           DXCH     VBUF       +4                         #  GO ADD -X2M3 TO X3M2 TO COMPLETE THE X
001419:    7603           17037                           TCF      ENDVXV                                #  COMPONENT (TAIL END OF DAD).
001420:
001421:                                                                                                  #           THE MPACVBUF SUBROUTINE SAVES THE VECTOR IN MPAC IN VBUF WITHOUT CLOBBERING MPAC.
001422:
001423:    7604           00006        MPACVBUF           EXTEND                                         #  CALLED BY MXV, VXM, AND UNIT.
001424:    7605           30145                           DCA      MPAC
001425:
001426:    7606           52113                           DXCH     VBUF
001427:    7607           00006                           EXTEND
001428:    7610           30150                           DCA      MPAC       +3
001429:    7611           52115                           DXCH     VBUF       +2
001430:    7612           00006                           EXTEND
001431:    7613           30152                           DCA      MPAC       +5
001432:    7614           52117                           DXCH     VBUF       +4
001433:    7615           00002                           TC       Q                                     #  RETURN TO CALLER.
001434:


001436:                                                                                                  #           INTERPRETIVE INSTRUCTIONS WHOSE EXECUTION CONSISTS OF PRINCIPALLY CALLING SUBROUTINES.
001437:
001438:    7616           07152        DMP1               TC       DMPSUB                                #  DMP INSTRUCTION.
001439:    7617           16115                           TCF      DANZIG
001440:
001441:    7620           07152        DMPR               TC       DMPSUB
001442:    7621           07202                           TC       ROUNDSUB   +1                         #  (C(A) = +0).
001443:    7622           16115                           TCF      DANZIG
001444:
001445:    7623           00006        DDV                EXTEND
001446:    7624           50106                           INDEX    ADDRWD                                #  MOVE DIVIDEND INTO BUF.
001447:    7625           30001                           DCA      0
001448:    7626           17633                           TCF      BDDV       +4
001449:
001450:
001451:    7627           00006        BDDV               EXTEND                                         #  MOVE DIVISOR INTO MPAC SAVING MPAC, THE
001452:    7630           50106                           INDEX    ADDRWD                                #  DIVIDEND, IN BUF.
001453:    7631           30001                           DCA      0
001454:    7632           52145                           DXCH     MPAC
001455:    7633           52121                 +4        DXCH     BUF
001456:    7634           37761                           CAF      ZERO                                  #  DIVIDE ROUTINES IN BANK 0.
001457:    7635           54004                           TS       FBANK
001458:    7636           12352                           TCF      DDV/BDDV
001459:
001460:    7637           30106        SETPD              CA       ADDRWD                                #  MUST SET TO WORK AREA, OR EBANK TROUBLE.
001461:
001462:    7640           54156                           TS       PUSHLOC
001463:    7641           16117                           TCF      NOIBNKSW                              #  NO FBANK SWITCH REQUIRED.
001464:
001465:    7642           37761        TSLC               CAF      ZERO                                  #  SHIFTING ROUTINES LOCATED IN BANK 00.
001466:    7643           54004                           TS       FBANK
001467:    7644           12172                           TCF      TSLC2
001468:
001469:    7645           36130        GSHIFT             CAF      LOW7                                  #  USED AS MASK AT GENSHIFT. THIS PROCESSES
001470:    7646           54004                           TS       FBANK                                 #  ANY SHIFT INSTRUCTION (EXCEPT TSLC) WITH
001471:    7647           12214                           TCF      GENSHIFT                              #  AN ADDRESS (ROUTINES IN BANK 0).
001472:


001474:                                                                                                  #           THE FOLLOWING IS THE PROLOGUE TO V/SC. IF THE PRESENT MODE IS VECTOR, IT SAVES THE SCALAR AT X IN BUF
001475:                                                                                                  #  AND CALLS THE V/SC ROUTINE IN BANK 0. IF THE PRESENT MODE IS SCALAR, IT MOVES THE VECTOR AT X INTO MPAC, SAVING
001476:                                                                                                  #  THE SCALAR IN MPAC IN BUF BEFORE CALLING THE V/SC ROUTINE IN BANK 0.
001477:
001478:
001479:
001480:    7650           10153        V/SC               CCS      MODE
001481:    7651           17662                           TCF      DV/SC                                 #  MOVE VECTOR INTO MPAC.
001482:    7652           17662                           TCF      DV/SC
001483:
001484:    7653           00006        VV/SC              EXTEND
001485:    7654           50106                           INDEX    ADDRWD
001486:    7655           30001                           DCA      0
001487:    7656           52121        V/SC1              DXCH     BUF                                   #  IN BOTH CASES, VECTOR IS NOW IN MPAC AND
001488:    7657           37761                           CAF      ZERO                                  #  SCALAR IN BUF.
001489:    7660           54004                           TS       FBANK
001490:    7661           12616                           TCF      V/SC2
001491:
001492:    7662           00006        DV/SC              EXTEND
001493:
001494:    7663           50106                           INDEX    ADDRWD
001495:    7664           30003                           DCA      2
001496:    7665           52150                           DXCH     MPAC       +3
001497:    7666           00006                           EXTEND
001498:    7667           50106                           INDEX    ADDRWD
001499:    7670           30005                           DCA      4
001500:    7671           52152                           DXCH     MPAC       +5
001501:
001502:    7672           47755                           CS       ONE                                   #  CHANGE MODE TO VECTOR.
001503:    7673           54153                           TS       MODE
001504:
001505:    7674           00006                           EXTEND
001506:    7675           50106                           INDEX    ADDRWD
001507:    7676           30001                           DCA      0
001508:    7677           52145                           DXCH     MPAC
001509:    7700           17656                           TCF      V/SC1                                 #  FINISH PROLOGUE AT COMMON SECTION.
001510:


001512:                                                                                                  #           SIGN AND COMPLEMENT INSTRUCTIONS.
001513:
001514:
001515:    7701           50106        SIGN               INDEX    ADDRWD                                #  CALL COMP INSTRUCTION IF WORD AT X IS
001516:    7702           10000                           CCS      0                                     #  NEGATIVE NON-ZERO.
001517:    7703           16115                           TCF      DANZIG
001518:    7704           17706                           TCF      +2
001519:    7705           17714                           TCF      COMP                                  #  DO THE COMPLEMENT.
001520:
001521:    7706           50106                           INDEX    ADDRWD
001522:    7707           10001                           CCS      1
001523:    7710           16115                           TCF      DANZIG
001524:    7711           16115                           TCF      DANZIG
001525:
001526:    7712           17714                           TCF      COMP
001527:    7713           16115                           TCF      DANZIG
001528:    7714           00006        COMP               EXTEND                                         #  COMPLEMENT DP MPAC IN EVERY CASE.
001529:    7715           40145                           DCS      MPAC
001530:    7716           52145                           DXCH     MPAC
001531:
001532:    7717           10153                           CCS      MODE                                  #  EITHER COMPLEMENT MPAC +3 OR THE REST OF
001533:    7720           17731                           TCF      DCOMP                                 #  THE VECTOR ACCUMULATOR.
001534:    7721           17731                           TCF      DCOMP
001535:
001536:    7722           00006                           EXTEND                                         #  VECTOR COMPLEMENT.
001537:    7723           40150                           DCS      MPAC       +3
001538:
001539:    7724           52150                           DXCH     MPAC       +3
001540:    7725           00006                           EXTEND
001541:    7726           40152                           DCS      MPAC       +5
001542:    7727           52152                           DXCH     MPAC       +5
001543:    7730           16115                           TCF      DANZIG
001544:
001545:    7731           40146        DCOMP              CS       MPAC       +2
001546:    7732           54146                           TS       MPAC       +2
001547:    7733           16115                           TCF      DANZIG
001548:


001550:                                                                                                  #           CONSTANTS REQUIRED IN FIXED-FIXED.
001551:    7734           37777        DPOSMAX            OCT      37777
001552:    7735           37777        POSMAX             OCT      37777
001553:    7736     7736               LIMITS             EQUALS   POSMAX     +1
001554:    7736           57777        NEG1/2             OCT      -20000                                #  MUST BE TWO LOCATIONS AHEAD OF POS1/2.
001555:
001556:    7737           40000        BIT15              OCT      40000                                 #  BIT TABLE FOLLOWS.
001557:
001558:    7740           20000        BIT14              OCT      20000
001559:    7741           10000        BIT13              OCT      10000
001560:    7742           04000        BIT12              OCT      04000
001561:    7743           02000        BIT11              OCT      02000
001562:    7744           01000        BIT10              OCT      01000
001563:    7745           00400        BIT9               OCT      00400
001564:    7746           00200        BIT8               OCT      00200
001565:    7747           00100        BIT7               OCT      00100
001566:    7750           00040        BIT6               OCT      00040
001567:    7751           00020        BIT5               OCT      00020
001568:
001569:    7752           00010        BIT4               OCT      00010
001570:    7753           00004        BIT3               OCT      00004
001571:    7754           00002        BIT2               OCT      00002
001572:    7755           00001        BIT1               OCT      00001
001573:
001574:    7756     7737               NEGMAX             EQUALS   BIT15
001575:    7756     7740               HALF               EQUALS   BIT14
001576:    7756     7740               POS1/2             EQUALS   HALF
001577:    7756     7741               QUARTER            EQUALS   BIT13
001578:    7756     7743               2K                 EQUALS   BIT11
001579:    7756           00013        ELEVEN             DEC      11         B-14
001580:    7757     7756               NOUTCON            =        ELEVEN
001581:
001582:    7757     4557               TEN                =        BINCON
001583:    7757     4517               NINE               =        R2D1
001584:    7757     7752               EIGHT              EQUALS   BIT4
001585:    7757           00007        SEVEN              OCT      7
001586:    7760     6276               SIX                EQUALS   REVCNT
001587:    7760           00005        FIVE               OCT      5
001588:    7761     7753               FOUR               EQUALS   BIT3
001589:    7761     6301               THREE              EQUALS   OCTAL3
001590:    7761     7754               TWO                EQUALS   BIT2
001591:    7761     7755               ONE                EQUALS   BIT1
001592:
001593:    7761           00000        ZERO               OCT      0
001594:    7762           77777        NEG0               OCT      77777
001595:    7763           77776        NEGONE             DEC      -1         B-14
001596:
001597:    7764     7763               NEG1               =        NEGONE
001598:    7764     7763               MINUS1             EQUALS   NEG1
001599:
001600:    5355                                           BLOCK    02
001601:
001602:    5355           77775        NEG2               OCT      77775


001604:    5356           01777        LOW10              OCT      1777
001605:
001606:    5357           77774        NEG3               DEC      -3         B-14
001607:    5360           00777        LOW9               OCT      777
001608:    5361           00017        LOW4               OCT      17
001609:    5362     7757               LOW3               EQUALS   SEVEN
001610:    5362     6301               LOW2               EQUALS   THREE
001611:
001612:    5362           00032        CALLCODE           OCT      00032
001613:    5363           40014        DLOADCOD           OCT      40014
001614:    5364     7737               VLOADCOD           EQUALS   BIT15
001615:    5364           40015        DLOAD*             OCT      40015
001616:    5365     6143               VLOAD*             EQUALS   OCT40001
001617:    5365           00112        LVBUF              ADRES    VBUF
001618:
001619:    5366     5226               BIT13-14           =        PRIO30
001620:                                                                                                  #  THERE ARE FOUR POSSIBLE SETTINGS FOR CHANNEL 07 (WNACTV) FOR ACCESSING THE EVENTUALLY THREE AND ONE-HALF
001621:                                                                                                  #  PRESENTLY ONE AND ONE-HALF SUPERBANKS.
001622:
001623:    5366           00060        SUPER011           OCT      60                                    #  BITS FOR SUPERBNK SETTING 011
001624:    5367     7747               SUPER100           EQUALS   BIT7                                  #  BITS FOR SUPERBNK SETTING 100
001625:                                                                                                  #                                                                  (LAST 4K OF ROPE)
001626:                                                                                                  #  SUPER101        OCT             120                             BITS FOR SUPERBNK SETTING 101
001627:                                                                                                  #                                                                  (FIRST 8K OF ACM)
001628:                                                                                                  #  SUPER110        OCT             140                             BITS FOR SUPERBNK SETTING 110
001629:
001630:                                                                                                  #                                                                  (LAST 8K OF ACM)
001631:    5367           74000        HIGH4              OCT      74000
001632:    5370           01400        OCT1400            OCT      01400
001633:    5371           00055        DEC45              DEC      45         B-14
001634:


001636:                                                                                                  #           THE FOLLOWING SHORT SHIFT CODES REQUIRE NO ADDRESS WORD:
001637:
001638:                                                                                                  #           1.  SR1 TO SR4         SCALAR SHIFT RIGHT.
001639:                                                                                                  #           2.  SR1R TO SR4R       SCALAR SHIFT RIGHT AND ROUND.
001640:                                                                                                  #           3.  SL1 TO SL4         SCALAR SHIFT LEFT.
001641:                                                                                                  #           4.  SL1R TO SL4R       SCALAR SHIFT LEFT AND ROUND.
001642:
001643:                                                                                                  #           5.  VSR1 TO VSR8       VECTOR SHIFT RIGHT (ALWAYS ROUNDS).
001644:                                                                                                  #           6.  VSL1 TO VSL8       VECTOR SHIFT LEFT (NEVER ROUNDS).
001645:
001646:                                                                                                  #           THE FOLLOWING CODES REQUIRE AN ADDRESS WHICH MAY BE INDEXED:*
001647:
001648:                                                                                                  #           1.  SR                 SCALAR SHIFT RIGHT.
001649:                                                                                                  #           2.  SRR                SCALAR SHIFT RIGHT AND ROUND.
001650:                                                                                                  #           3.  SL                 SCALAR SHIFT LEFT.
001651:                                                                                                  #           4.  SLR                SCALAR SHIFT LEFT AND ROUND.
001652:
001653:                                                                                                  #           5.  VSR                VECTOR SHIFT RIGHT.
001654:                                                                                                  #           6.  VSL                VECTOR SHIFT LEFT.
001655:
001656:
001657:                                                                                                  #  *  IF THE ADDRESS IS INDEXED, AND THE INDEX MODIFICATION RESULTS IN A NEGATIVE SHIFT COUNT, A SHIFT OF THE
001658:                                                                                                  #  ABSOLUTE VALUE OF THE COUNT IS DONE IN THE OPPOSITE DIRECTION.
001659:
001660:
001661:
001662: 00,2017                                           BANK     00
001663:
001664: 00,2017           36276        SHORTT             CAF      SIX                                   #  SCALAR SHORT SHIFTS COME HERE. THE SHIFT
001665: 00,2020           70020                           MASK     CYR                                   #  COUNT-1 IS NOW IN BITS 2-3 OF CYR. THE
001666:
001667: 00,2021           54021                           TS       SR                                    #  ROUNDING BIT IS IN BIT1 AT THIS POINT.
001668:
001669: 00,2022           10020                           CCS      CYR                                   #  SEE IF RIGHT OR LEFT SHIFT DESIRED.
001670: 00,2023           12101                           TCF      TSSL                                  #  SHIFT LEFT.
001671:
001672: 00,2024           00024        SRDDV              DEC      20         B-14                       #  MPTEMP SETTING FOR SR BEFORE DDV.
001673:
001674: 00,2025           50021        TSSR               INDEX    SR                                    #  GET SHIFTING BIT.
001675: 00,2026           37740                           CAF      BIT14
001676: 00,2027           54125                           TS       MPTEMP
001677:
001678: 00,2030           10020                           CCS      CYR                                   #  SEE IF A ROUND IS DESIRED.
001679:
001680: 00,2031           02050        RIGHTR             TC       MPACSRND                              #  YES - SHIFT RIGHT AND ROUND.
001681: 00,2032           16114                           TCF      NEWMODE                               #  SET MODE TO DP (C(A) = 0).
001682: 00,2033           30125        MPACSHR            CA       MPTEMP                                #  DO A TRIPLE PRECISION SHIFT RIGHT.
001683: 00,2034           00006                           EXTEND
001684: 00,2035           70146                           MP       MPAC       +2
001685: 00,2036           54146                 +3        TS       MPAC       +2                         #  (EXIT FROM SQRT AND ABVAL).
001686: 00,2037           30125                           CA       MPTEMP
001687: 00,2040           00006                           EXTEND
001688: 00,2041           70144                           MP       MPAC                                  #  SHIFT MAJOR PART INTO A,L AND PLACE IN


001690: 00,2042           52145                           DXCH     MPAC                                  #  MPAC,+1.
001691: 00,2043           30125                           CA       MPTEMP
001692:
001693: 00,2044           00006                           EXTEND
001694: 00,2045           70001                           MP       L                                     #  ORIGINAL C(MPAC +1).
001695: 00,2046           20146                           DAS      MPAC       +1                         #  GUARANTEED NO OVERFLOW.
001696: 00,2047           16115                           TCF      DANZIG
001697:
001698:                                                                                                  #           MPAC SHIFT RIGHT AND ROUND SUBROUTINES.
001699:
001700: 00,2050           30146        MPACSRND           CA       MPAC       +2                         #  WE HAVE TO DO ALL THREE MULTIPLIES SINCE
001701: 00,2051           00006                           EXTEND                                         #  MPAC +1 AND MPAC +2 MIGHT HAVE SIGN
001702: 00,2052           70125                           MP       MPTEMP                                #  DISAGREEMENT WITH A SHIFT RIGHT OF 1.
001703:
001704: 00,2053           56145                           XCH      MPAC       +1
001705: 00,2054           00006                           EXTEND
001706: 00,2055           70125                           MP       MPTEMP
001707: 00,2056           56145                           XCH      MPAC       +1                         #  TRIAL MINOR PART.
001708: 00,2057           60001                           AD       L
001709:
001710: 00,2060           60000        VSHR2              DOUBLE                                         #  (FINISH VECTOR COMPONENT SHIFT RIGHT
001711: 00,2061           54146                           TS       MPAC       +2                         #  AND ROUND.
001712: 00,2062           12064                           TCF      +2
001713: 00,2063           26145                           ADS      MPAC       +1                         #  GUARANTEED NO OVERFLOW.
001714:
001715: 00,2064           37761                           CAF      ZERO
001716:
001717: 00,2065           54146                           TS       MPAC       +2
001718: 00,2066           56144                           XCH      MPAC                                  #  SETTING TO ZERO SO FOLLOWING DAS WORKS.
001719: 00,2067           00006                           EXTEND
001720: 00,2070           70125                           MP       MPTEMP
001721: 00,2071           20145                           DAS      MPAC                                  #  AGAIN NO OVERFLOW.
001722: 00,2072           00002                           TC       Q
001723:
001724: 00,2073           30125        VSHRRND            CA       MPTEMP                                #  ENTRY TO SHIFT RIGHT AND ROUND MPAC WHEN
001725: 00,2074           00006                           EXTEND                                         #  MPAC CONTAINS A VECTOR COMPONENT.
001726: 00,2075           70145                           MP       MPAC       +1
001727:
001728: 00,2076           54145                           TS       MPAC       +1
001729: 00,2077           56001                           XCH      L
001730: 00,2100           12060                           TCF      VSHR2                                 #  GO ADD ONE IF NECESSARY AND FINISH.
001731:


001733:                                                                                                  #           ROUTINE FOR SHORT SCALAR SHIFT LEFT (AND MAYBE ROUND).
001734:
001735: 00,2101           30021        TSSL               CA       SR                                    #  GET SHIFT COUNT FOR SR.
001736: 00,2102           54125                 +1        TS       MPTEMP
001737:
001738: 00,2103           00006                 +2        EXTEND                                         #  ENTRY HERE FROM SL FOR SCALARS.
001739: 00,2104           30146                           DCA      MPAC       +1                         #  SHIFTING LEFT ONE PLACE AT A TIME IS
001740: 00,2105           20146                           DAS      MPAC       +1                         #  FASTER THAN DOING THE WHOLE SHIFT WITH
001741:
001742: 00,2106           60144                           AD       MPAC                                  #  MULTIPLIES ASSUMING THAT FREQUENCY OF
001743: 00,2107           60144                           AD       MPAC                                  #  SHIFT COUNTS GOES DOWN RAPIDLY AS A
001744: 00,2110           54144                           TS       MPAC                                  #  FUNCTION OF THEIR MAGNITUDE.
001745: 00,2111           12113                           TCF      +2
001746: 00,2112           54111                           TS       OVFIND                                #  OVERFLOW. (LEAVES OVERFLOW-CORRECTED
001747:                                                                                                  #  RESULT ANYWAY).
001748: 00,2113           10125                           CCS      MPTEMP                                #  LOOP ON DECREMENTED SHIFT COUNT.
001749: 00,2114           12102                           TCF      TSSL       +1
001750:
001751: 00,2115           10020                           CCS      CYR                                   #  SEE IF ROUND WANTED.
001752:
001753: 00,2116           07201        ROUND              TC       ROUNDSUB                              #  YES - ROUND AND EXIT.
001754: 00,2117           16115                           TCF      DANZIG                                #  SL LEAVES A ZERO IN CYR FOR NO ROUND.
001755: 00,2120           16115                           TCF      DANZIG                                #  NO - EXIT IMMEDIATL
001756:


001758:                                                                                                  #  VECTOR SHIFTING ROUTINES.
001759:
001760: 00,2121           37757        SHORTV             CAF      LOW3                                  #  SAVE 3 BIT SHIFT COUNT - 1 WITHOUT
001761: 00,2122           70020                           MASK     CYR                                   #  EDITING CYR.
001762: 00,2123           54125                           TS       MPTEMP
001763: 00,2124           10020                           CCS      CYR                                   #  SEE IF LEFT OR RIGHT SHIFT.
001764: 00,2125           12145                           TCF      VSSL                                  #  VECTOR SHIFT LEFT.
001765: 00,2126           00176        OCT176             OCT      176                                   #  USED IN PROCESSED SHIFTS WITH - COUNT.
001766:
001767: 00,2127           50125        VSSR               INDEX    MPTEMP                                #  (ENTRY FROM SR). PICK UP SHIFTING BIT.
001768: 00,2130           37740                           CAF      BIT14                                 #  MPTEMP CONTAINS THE SHIFT COUNT - 1.
001769: 00,2131           54125                           TS       MPTEMP
001770: 00,2132           02073                           TC       VSHRRND                               #  SHIFT X COMPONENT.
001771:
001772:
001773: 00,2133           52145                           DXCH     MPAC                                  #  SWAP X AND Y COMPONENTS.
001774: 00,2134           52150                           DXCH     MPAC       +3
001775: 00,2135           52145                           DXCH     MPAC
001776: 00,2136           02073                           TC       VSHRRND                               #  SHIFT Y COMPONENT.
001777:
001778: 00,2137           52145                           DXCH     MPAC                                  #  SWAP Y AND Z COMPONENTS.
001779: 00,2140           52152                           DXCH     MPAC       +5
001780: 00,2141           52145                           DXCH     MPAC
001781: 00,2142           02073                           TC       VSHRRND                               #  SHIFT Z COMPONENT.
001782:
001783: 00,2143           17471                           TCF      VROTATEX                              #  RESTORE COMPONENTS TO PROPER PLACES.
001784:


001786:                                                                                                  #  VECTOR SHIFT LEFT - DONE ONE PLACE AT A TIME.
001787:
001788: 00,2144           54125                 -1        TS       MPTEMP                                #  SHIFTING LOOP.
001789:
001790: 00,2145           00006        VSSL               EXTEND
001791: 00,2146           30145                           DCA      MPAC
001792:
001793: 00,2147           20145                           DAS      MPAC
001794: 00,2150           00006                           EXTEND
001795: 00,2151           12153                           BZF      +2
001796: 00,2152           07072                           TC       OVERFLOW
001797:
001798: 00,2153           00006                           EXTEND
001799: 00,2154           30150                           DCA      MPAC       +3
001800: 00,2155           20150                           DAS      MPAC       +3
001801: 00,2156           00006                           EXTEND
001802: 00,2157           12161                           BZF      +2
001803: 00,2160           07072                           TC       OVERFLOW
001804:
001805:
001806: 00,2161           00006                           EXTEND
001807: 00,2162           30152                           DCA      MPAC       +5
001808: 00,2163           20152                           DAS      MPAC       +5
001809: 00,2164           00006                           EXTEND
001810: 00,2165           12167                           BZF      +2
001811: 00,2166           07072                           TC       OVERFLOW
001812:
001813: 00,2167           10125                           CCS      MPTEMP                                #  LOOP ON DECREMENTED SHIFT COUNTER.
001814: 00,2170           12144                           TCF      VSSL       -1
001815: 00,2171           16115                           TCF      DANZIG                                #  EXIT.
001816:


001818:                                                                                                  #           TSLC - TRIPLE SHIFT LEFT AND COUNT. SHIFTS MPAC LEFT UNTIL GREATER THAN .5 IN MAGNITUDE, LEAVING
001819:                                                                                                  #  THE COMPLEMENT OF THE NUMBER OF SHIFTS REQUIRED IN X.
001820:
001821:
001822: 00,2172           54125        TSLC2              TS       MPTEMP                                #  START BY ZEROING SHIFT COUNT (IN A NOW).
001823: 00,2173           06772                           TC       BRANCH                                #  EXIT WITH NO SHIFTING IF ARGUMENT ZERO.
001824: 00,2174           12176                           TCF      +2
001825: 00,2175           12212                           TCF      ENDTSLC                               #  STORES ZERO SHIFT COUNT IN THIS CASE.
001826:
001827: 00,2176           07320                           TC       TPAGREE                               #  MAY CAUSE UPSHIFT OF ONE EXTRA PLACE.
001828:
001829: 00,2177           30144                           CA       MPAC                                  #  BEGIN NORMALIZATION LOOP.
001830: 00,2200           12207                           TCF      TSLCTEST
001831:
001832: 00,2201           24125        TSLCLOOP           INCR     MPTEMP                                #  INCREMENT SHIFT COUNTER.
001833: 00,2202           00006                           EXTEND
001834: 00,2203           30146                           DCA      MPAC       +1
001835: 00,2204           20146                           DAS      MPAC       +1
001836: 00,2205           60144                           AD       MPAC
001837: 00,2206           26144                           ADS      MPAC
001838: 00,2207           60000        TSLCTEST           DOUBLE                                         #  SEE IF (ANOTHER) SHIFT IS REQUIRED.
001839: 00,2210           54000                           OVSK
001840: 00,2211           12201                           TCF      TSLCLOOP                              #  YES - INCREMENT COUNT AND SHIFT AGAIN.
001841:
001842: 00,2212           40125        ENDTSLC            CS       MPTEMP
001843: 00,2213           16672                           TCF      STORE1                                #  STORE SHIFT COUNT AND RETURN TO DANZIG.
001844:


001846:                                                                                                  #           THE FOLLOWING ROUTINES PROCESSES THE GENERAL SHIFT INSTRUCTIONS SR, SRR, SL, AND SLR.
001847:                                                                                                  #  THE GIVEN ADDRESS IS DECODED AS FOLLOWS:
001848:
001849:                                                                                                  #           BITS 1-7    SHIFT COUNT (SUBADDRESS) LESS THAN 125 DECIMAL.
001850:                                                                                                  #           BIT 8       PSEUDO SIGN BIT (DETECTS CHANGE IN SIGN IN INDEXED SHIFTS).
001851:                                                                                                  #           BIT 9       0 FOR LEFT SHIFT, AND 1 FOR RIGHT SHIFT.
001852:                                                                                                  #           BIT 10      1 FOR TERMINAL ROUND ON SCALAR SHIFTS, 0 OTHERWISE.
001853:                                                                                                  #           BITS 11-13  0.
001854:
001855:                                                                                                  #           BIT 14      1.
001856:                                                                                                  #           BIT 15      0.
001857:
001858:                                                                                                  #  THE ABOVE ENCODING IS DONE BY THE YUL SYSTEM.
001859:
001860:
001861:
001862: 00,2214           70106        GENSHIFT           MASK     ADDRWD                                #  GET SHIFT COUNT, TESTING FOR ZERO.
001863: 00,2215           10000                           CCS      A                                     #  (ARRIVES WITH C(A) = LOW7).
001864: 00,2216           12224                           TCF      GENSHFT2                              #  IF NON-ZERO, PROCEED WITH DECREMENTED CT
001865:
001866: 00,2217           37744                           CAF      BIT10                                 #  ZERO SHIFT COUNT. NO SHIFTS NEEDED BUT
001867: 00,2220           70106                           MASK     ADDRWD                                #  WE MIGHT HAVE TO ROUND MPAC ON SLR AND
001868: 00,2221           10000                           CCS      A                                     #  SRR (SCALAR ONLY).
001869: 00,2222           07201                           TC       ROUNDSUB
001870: 00,2223           16115                           TCF      DANZIG
001871:
001872: 00,2224           54125        GENSHFT2           TS       MPTEMP                                #  DECREMENTED SHIFT COUNT TO MPTEMP.
001873: 00,2225           37746                           CAF      BIT8                                  #  TEST MEANING OF LOW SEVEN BIT COUNT IN
001874: 00,2226           00006                           EXTEND                                         #  MPTEMP NOW.
001875: 00,2227           70106                           MP       ADDRWD
001876: 00,2230           76301                           MASK     LOW2                                  #  JUMPS ON SHIFT DIRECTION (BIT8) AND
001877: 00,2231           50000                           INDEX    A
001878:
001879: 00,2232           12233                           TCF      +1                                    #  ORIGINAL SHIFT DIRECTION (BIT 9).
001880: 00,2233           12332                           TCF      RIGHT-                                #  NEGATIVE SHIFT COUNT FOR SL OR SLR.
001881: 00,2234           12341                           TCF      LEFT                                  #  SL OR SLR.
001882: 00,2235           12336                           TCF      LEFT-                                 #  NEGATIVE SHIFT COUNT WITH SR OR SRR.
001883:


001885:                                                                                                  #           GENERAL SHIFT RIGHT.
001886:
001887: 00,2236           10153        RIGHT              CCS      MODE                                  #  SEE IF VECTOR OR SCALAR.
001888: 00,2237           12277                           TCF      GENSCR
001889: 00,2240           12277                           TCF      GENSCR
001890:
001891: 00,2241           30125                           CA       MPTEMP                                #  SEE IF SHIFT COUNT LESS THAN 14D.
001892: 00,2242           63676        VRIGHT2            AD       NEG12
001893: 00,2243           00006                           EXTEND
001894: 00,2244           62127                           BZMF     VSSR                                  #  IF SO, BRANCH AND SHIFT IMMEDIATELY.
001895:
001896: 00,2245           67763                           AD       NEGONE                                #  IF NOT, REDUCE MPTEMP BY A TOTAL OF 14,
001897: 00,2246           54125                           TS       MPTEMP                                #  AND DO A SHIFT RIGHT AND ROUND BY 14.
001898: 00,2247           37761                           CAF      ZERO                                  #  THE ROUND AT THIS STAGE MAY INTRODUCE A
001899:
001900: 00,2250           54001                           TS       L                                     #  ONE BIT ERROR IN A SHIFT RIGHT 15D.
001901: 00,2251           56144                           XCH      MPAC
001902: 00,2252           56145                           XCH      MPAC       +1
001903: 00,2253           02272                           TC       SETROUND                              #  X COMPONENT NOW SHIFTED, SO MAKE UP THE
001904: 00,2254           20145                           DAS      MPAC                                  #  ROUNDING QUANTITY (0 IN A AND 0 OR +-1
001905:                                                                                                  #  IN L).
001906: 00,2255           56147                           XCH      MPAC       +3                         #  REPEAT THE ABOVE PROCESS FOR Y AND Z.
001907: 00,2256           56150                           XCH      MPAC       +4
001908: 00,2257           02272                           TC       SETROUND
001909: 00,2260           20150                           DAS      MPAC       +3                         #  NO OVERFLOW ON THESE ADDS.
001910:
001911:
001912: 00,2261           56151                           XCH      MPAC       +5
001913: 00,2262           56152                           XCH      MPAC       +6
001914: 00,2263           02272                           TC       SETROUND
001915: 00,2264           20152                           DAS      MPAC       +5
001916:
001917: 00,2265           10125                           CCS      MPTEMP                                #  SEE IF DONE, DOING FINAL DECREMENT.
001918: 00,2266           54125                           TS       MPTEMP
001919: 00,2267           12242                           TCF      VRIGHT2
001920: 00,2270           04604        BIASLO             DEC      .2974      B-1                        #  SQRT CONSTANT
001921:
001922: 00,2271           16115                           TCF      DANZIG
001923:
001924:
001925:
001926: 00,2272           60000        SETROUND           DOUBLE                                         #  MAKES UP ROUNDING QUANTITY FROM ARRIVING
001927: 00,2273           54146                           TS       MPAC       +2                         #  C(A). L IS ZERO INITIALLY.
001928: 00,2274           37761                           CAF      ZERO
001929: 00,2275           56001                           XCH      L
001930: 00,2276           00002                           TC       Q                                     #  RETURN AND DO THE DAS, RESETTING L TO 0.
001931:


001933:                                                                                                  #           PROCESS SR AND SRR FOR SCALARS.
001934:
001935: 00,2277           30125        GENSCR             CA       MPTEMP                                #  SEE IF THE ORIGINAL SHIFT COUNT WAS LESS
001936: 00,2300           63676                 +1        AD       NEG12                                 #  THAN 14D.
001937: 00,2301           00006                           EXTEND
001938: 00,2302           62322                           BZMF     DOSSHFT                               #  DO THE SHIFT IMMEDIATELY IF SO.
001939:
001940: 00,2303           67763                 +4        AD       NEGONE                                #  IF NOT, DECREMENT SHIFT COUNT BY 14D AND
001941: 00,2304           54125                           TS       MPTEMP                                #  SHIFT MPAC RIGHT 14 PLACES.
001942: 00,2305           37761                           CAF      ZERO
001943: 00,2306           56144                           XCH      MPAC
001944: 00,2307           56145                           XCH      MPAC       +1
001945: 00,2310           54146                           TS       MPAC       +2
001946: 00,2311           10125                           CCS      MPTEMP                                #  SEE IF FINISHED, DO FINAL DECREMENT.
001947: 00,2312           54125                           TS       MPTEMP
001948: 00,2313           02300                           TC       GENSCR     +1
001949: 00,2314           22650        SLOPEHI            DEC      .5884                                 #  SQRT CONSTANT.
001950: 00,2315           37744                           CAF      BIT10                                 #  FINISHED WITH SHIFT. SEE IF ROUND
001951: 00,2316           70106                           MASK     ADDRWD                                #  WANTED.
001952:
001953: 00,2317           10000                           CCS      A
001954: 00,2320           07201                           TC       ROUNDSUB
001955: 00,2321           16115                           TCF      DANZIG                                #  DO SO AND/OR EXIT.
001956:
001957: 00,2322           50125        DOSSHFT            INDEX    MPTEMP                                #  PICK UP SHIFTING BIT.
001958: 00,2323           37740                           CAF      BIT14
001959: 00,2324           54125                           TS       MPTEMP
001960: 00,2325           37744                           CAF      BIT10                                 #  SEE IF TERMINAL ROUND DESIRED.
001961: 00,2326           70106                           MASK     ADDRWD
001962: 00,2327           10000                           CCS      A
001963:
001964: 00,2330           12031                           TCF      RIGHTR                                #  YES.
001965: 00,2331           12033                           TCF      MPACSHR                               #  JUST SHIFT RIGHT.
001966:


001968:                                                                                                  #           PROCESS THE RIGHT- (SL(R) WITH A NEGATIVE COUNT), LEFT-, AND LEFT OPTIONS.
001969:
001970:
001971: 00,2332           40125        RIGHT-             CS       MPTEMP                                #  GET ABSOLUTE VALUE - 1 OF SHIFT COUNT
001972: 00,2333           62126                           AD       OCT176                                #  UNDERSTANDING THAT BIT8 (PSEUDO-SIGN)
001973: 00,2334           54125                           TS       MPTEMP                                #  WAS 1 INITIALLY.
001974: 00,2335           12236                           TCF      RIGHT                                 #  DO NORMAL SHIFT RIGHT.
001975:
001976: 00,2336           40125        LEFT-              CS       MPTEMP                                #  SAME PROLOGUE TO LEFT FOR INDEXED RIGHT
001977: 00,2337           62126                           AD       OCT176                                #  SHIFTS WHOSE NET SHIFT COUNT IS NEGATIVE
001978: 00,2340           54125                           TS       MPTEMP
001979:
001980: 00,2341           10153        LEFT               CCS      MODE                                  #  SINCE LEFT SHIFTING IS SONE ONE PLACE AT
001981:
001982: 00,2342           12345                           TCF      GENSCL                                #  A TIME, NO COMPARISON WITH 14 NEED BE
001983: 00,2343           12345                           TCF      GENSCL                                #  DONE. FOR SCALARS, SEE IF TERMINAL ROUND
001984: 00,2344           12145                           TCF      VSSL                                  #  DESIRED. FOR VECTORS, SHIFT IMMEDIATELY.
001985:
001986: 00,2345           37750        GENSCL             CAF      BIT6                                  #  PUT ROUNDING BIT (BIT10 OF ADDRWD) INTO
001987: 00,2346           00006                           EXTEND                                         #  BIT 15 OF CYR WHERE THE ROUNDING BIT OF
001988: 00,2347           70106                           MP       ADDRWD                                #  A SHORT SHIFT LEFT WOULD BE.
001989: 00,2350           54020                           TS       CYR
001990: 00,2351           12103                           TCF      TSSL       +2                         #  DO THE SHIFT.
001991:


001993:                                                                                                  #           SCALAR DIVISION INSTRUCTIONS, DDV AND BDDV, ARE EXECUTED HERE. AT THIS POINT, THE DIVIDEND IS IN MPAC
001994:                                                                                                  #  AND THE DIVISOR IN BUF.
001995:
001996: 00,2352           47755        DDV/BDDV           CS       ONE                                   #  INITIALIZATION.
001997: 00,2353           54126                           TS       DVSIGN                                #  +-1 FOR POSITIVE QUOTIENT - -0 FOR NEG.
001998: 00,2354           54127                           TS       DVNORMCT                              #  DIVIDEND NORMALIZATION COUNT.
001999: 00,2355           54130                           TS       MAXDVSW                               #  NEAR-ONE DIVIDE FLAG.
002000:
002001:
002002: 00,2356           10120                           CCS      BUF                                   #  FORCE BUF POSITIVE WITH THE MAJOR PART
002003: 00,2357           12406                           TCF      BUF+                                  #  NON-ZERO.
002004: 00,2360           12362                           TCF      +2
002005: 00,2361           12402                           TCF      BUF-
002006:
002007: 00,2362           56121                           XCH      BUF        +1                         #  SHIFT DIVIDEND AND DIVISOR LEFT 14.
002008: 00,2363           56120                           XCH      BUF
002009: 00,2364           56145                           XCH      MPAC       +1
002010: 00,2365           56144                           XCH      MPAC
002011: 00,2366           00006                           EXTEND                                         #  CHECK FOR OVERFLOW.
002012:
002013: 00,2367           12371                           BZF      +2
002014: 00,2370           12375                           TCF      DVOVF
002015:
002016: 00,2371           10120                           CCS      BUF                                   #  TRY AGAIN ON FORMER MINOR PART.
002017: 00,2372           12406                           TCF      BUF+
002018: 00,2373           12375                           TCF      DVOVF                                 #  OVERFLOW ON ZERO DIVISOR.
002019: 00,2374           12402                           TCF      BUF-
002020:
002021: 00,2375           37735        DVOVF              CAF      POSMAX                                #  ON DIVISION OVERFLOW OF ANY SORT, SET
002022: 00,2376           54144                           TS       MPAC                                  #  SET DP MPAC TO +-POSMAX.
002023: 00,2377           02572                           TC       FINALDV    +3
002024: 00,2400           37755                           CAF      ONE                                   #  SET OVERFLOW INDICATOR AND EXIT.
002025:
002026: 00,2401           17144                           TCF      SETOVF
002027:
002028: 00,2402           00006        BUF-               EXTEND                                         #  IF BUF IS NEGATIVE, COMPLEMENT IT AND
002029: 00,2403           40121                           DCS      BUF                                   #  MAINTAIN DVSIGN FOR FINAL QUOTIENT SIGN.
002030: 00,2404           52121                           DXCH     BUF
002031: 00,2405           24126                           INCR     DVSIGN                                #  NOW -0.
002032:
002033: 00,2406           10144        BUF+               CCS      MPAC                                  #  FORCE MPAC POSITIVE, CHECKING FOR ZERO
002034: 00,2407           12423                           TCF      MPAC+                                 #  DIVIDEND IN THE PROCESS.
002035: 00,2410           12412                           TCF      +2
002036:
002037: 00,2411           12417                           TCF      MPAC-
002038: 00,2412           10145                           CCS      MPAC       +1
002039: 00,2413           12423                           TCF      MPAC+
002040: 00,2414           16115                           TCF      DANZIG                                #  EXIT IMMEDIATELY ON ZERO DIVIDEND.
002041: 00,2415           12417                           TCF      MPAC-
002042: 00,2416           16115                           TCF      DANZIG
002043:
002044: 00,2417           00006        MPAC-              EXTEND                                         #  FORCE MPAC POSITIVE AS BUF IN BUF-.
002045: 00,2420           40145                           DCS      MPAC
002046: 00,2421           52145                           DXCH     MPAC


002048: 00,2422           24126                           INCR     DVSIGN                                #  NOW +1 OR -0.
002049:


002051: 00,2423           40144        MPAC+              CS       MPAC                                  #  CHECK FOR DIVISION OVERFLOW. IF THE
002052: 00,2424           67763                           AD       NEGONE                                #  MAJOR PART OF THE DIVIDEND IS LESS THAN
002053: 00,2425           60120                           AD       BUF                                   #  THE MAJOR PART OF THE DIVISOR BY AT
002054: 00,2426           10000                           CCS      A                                     #  LEAST TWO, WE CAN PROCEED IMMEDIATELY
002055: 00,2427           12471                           TCF      DVNORM                                #  WITHOUT NORMALIZATION PRODUCING A DVMAX.
002056: 00,2430           60001        -1/2+2             OCT      60001                                 #  USED IN SQRTSUB.
002057:
002058: 00,2431           12432                           TCF      +1                                    #  IF THE ABOVE DOES NOT HOLD, FORCE SIGN
002059: 00,2432           37740                           CAF      HALF                                  #  AGREEMENT IN NUMERATOR AND DENOMINATOR
002060: 00,2433           60000                           DOUBLE                                         #  TO FACILITATE OVERFLOW AND NEAR-ONE
002061: 00,2434           60145                           AD       MPAC       +1                         #  CHECKING.
002062: 00,2435           54145                           TS       MPAC       +1
002063: 00,2436           37761                           CAF      ZERO
002064: 00,2437           67735                           AD       POSMAX
002065: 00,2440           26144                           ADS      MPAC
002066:
002067: 00,2441           37740                           CAF      HALF                                  #  SAME FOR BUF.
002068: 00,2442           60000                           DOUBLE
002069: 00,2443           60121                           AD       BUF        +1
002070:
002071: 00,2444           54121                           TS       BUF        +1
002072: 00,2445           37761                           CAF      ZERO
002073: 00,2446           67735                           AD       POSMAX
002074: 00,2447           26120                           ADS      BUF
002075:
002076: 00,2450           40144                           CS       MPAC                                  #  CHECK MAGNITUDE OF SIGN-CORRECTED
002077: 00,2451           60120                           AD       BUF                                   #  OPERANDS.
002078: 00,2452           10000                           CCS      A
002079: 00,2453           12471                           TCF      DVNORM                                #  DIVIDE OK - WILL NOT BECOME MAXDV CASE.
002080: 00,2454           00123        LBUF2              ADRES    BUF2
002081:
002082: 00,2455           12375                           TCF      DVOVF                                 #  DIVISOR NOT LESS THAN DIVIDEND - OVF.
002083:
002084: 00,2456           54130                           TS       MAXDVSW                               #  IF THE MAJOR PARTS OF THE DIVIDEND AND
002085: 00,2457           40145                           CS       MPAC       +1                         #  DIVISOR ARE EQUAL, A SPECIAL APPROXIMA-
002086: 00,2460           60121                           AD       BUF        +1                         #  TION IS USED (PROVIDED THE DIVISION IS
002087: 00,2461           00006                           EXTEND                                         #  POSSIBLE, OF COURSE).
002088: 00,2462           62375                           BZMF     DVOVF
002089: 00,2463           12471                           TCF      DVNORM                                #  IF NO OVERFLOW.
002090:


002092: 00,2464           00006        BUFNORM            EXTEND                                         #  ADD -1 TO AUGMENT SHIFT COUNT AND SHIFT
002093: 00,2465           24127                           AUG      DVNORMCT                              #  LEFT ONE PLACE.
002094:
002095: 00,2466           00006                           EXTEND
002096: 00,2467           30121                           DCA      BUF
002097: 00,2470           20121                           DAS      BUF
002098:
002099: 00,2471           30120        DVNORM             CA       BUF                                   #  SEE IF DIVISOR NORMALIZED YET.
002100: 00,2472           60000                           DOUBLE
002101: 00,2473           54000                           OVSK
002102: 00,2474           12464                           TCF      BUFNORM                               #  NO - SHIFT LEFT ONE AND TRY AGAIN.
002103:
002104: 00,2475           52145                           DXCH     MPAC                                  #  CALL DIVIDEND NORMALIZATION SEQUENCE
002105:
002106: 00,2476           50127                           INDEX    DVNORMCT                              #  PRIOR TO DOING THE DIVIDE.
002107: 00,2477           02527                           TC       MAXTEST
002108:
002109: 00,2500           54146                           TS       MPAC       +2                         #  RETURNS WITH DIVISION DONE AND C(A) = 0.
002110: 00,2501           16115                           TCF      DANZIG
002111:


002113:                                                                                                  #           THE FOLLOWING ARE PROLOGUES TO SHIFT THE DIVIDEND ARRIVING IN A AND L BEFORE THE DIVIDE.
002114:
002115: 00,2502           22021                 -21D      LXCH     SR                                    #  SPECIAL PROLOGUE FOR UNIT WHEN THE
002116: 00,2503           00006                           EXTEND                                         #  LENGTH OF THE ARGUMENT WAS NOT LESS THAN
002117: 00,2504           77740                           MP       HALF                                  #  .5. IN THIS CASE, EACH COMPONENT MUST BE
002118: 00,2505           56001                           XCH      L                                     #  SHIFTED RIGHT ONE TO PRODUCE A HALF-UNIT
002119: 00,2506           60021                           AD       SR                                    #  VECTOR.
002120: 00,2507           56001                           XCH      L
002121:
002122: 00,2510           12533                           TCF      GENDDV     +1                         #  WITH DP DIVIDEND IN A,L.
002123:
002124: 00,2511           20001                           DDOUBL                                         #  PROLOGUE WHICH NORMALIZES THE DIVIDEND
002125: 00,2512           20001                           DDOUBL                                         #  WHEN IT IS KNOWN THAT NO DIVISION
002126: 00,2513           20001                           DDOUBL                                         #  OVERFLOW WILL OCCUR.
002127: 00,2514           20001                           DDOUBL
002128: 00,2515           20001                           DDOUBL
002129: 00,2516           20001                           DDOUBL
002130: 00,2517           20001                           DDOUBL
002131: 00,2520           20001                           DDOUBL
002132:
002133: 00,2521           20001                           DDOUBL
002134: 00,2522           20001                           DDOUBL
002135: 00,2523           20001                           DDOUBL
002136: 00,2524           20001                           DDOUBL
002137: 00,2525           20001                           DDOUBL
002138: 00,2526           52145                           DXCH     MPAC
002139:
002140: 00,2527           10130        MAXTEST            CCS      MAXDVSW                               #  0 IF MAJORS MIGHT BE =, -1 OTHERWISE.
002141: 00,2530           06552        BIASHI             DEC      .4192      B-1                        #  SQRT CONSTANTS
002142:
002143: 00,2531           12604                           TCF      MAXDV                                 #  CHECK TO SEE IF THEY ARE NOW EQUAL.
002144:


002146:                                                                                                  #           THE FOLLOWING IS A GENERAL PURPOSE DOUBLE PRECISION DIVISION ROUTINE. IT DIVIDES MPAC BY BUF AND LEAVES
002147:
002148:                                                                                                  #  THE RESULT IN MPAC. THE FOLLOWING CONDITIONS MUST BE SATISFIED:
002149:
002150:                                                                                                  #           1.  THE DIVISOR (BUF) MUST BE POSITIVE AND NOT LESS THAN .5.
002151:
002152:                                                                                                  #           2.  THE DIVIDEND (MPAC) MUST BE POSITIVE WITH THE MAJOR PART OF MPAC STRICTLY LESS THAN THAT OF BUF
002153:                                                                                                  #  (A SPECIAL APPROXIMATION, MAXDV, IS USED WHEN THE MAJOR PARTS ARE EQUAL).
002154:
002155:                                                                                                  #           UNDERSTANDING THAT A/B = Q + S(R/B) WHERE S = 2(-14) AND Q AND R ARE QUOTIENT AND REMAINDER, RESPEC-
002156:                                                                                                  #  TIVELY, THE FOLLOWING APPROXIMATION IS OBTAINED BY MULTIPLYING ABOVE AND BELOW BY C - SD AND NEGLECTING TERMS OF
002157:                                                                                                  #  ORDER S-SQUARED (POSSIBLY INTRODUCING ERROR INTO THE LOW TWO BITS OF THE RESULT). SIGN AGREEMENT IS UNNECESSARY.
002158:
002159:                                                                                                  #           A + SB .      (R - QD)                                             A + SB
002160:
002161:                                                                                                  #           ------ = Q + S(------) WHERE Q AND R ARE QUOTIENT AND REMAINDER OF ------ RESPECTIVELY.
002162:                                                                                                  #           C + SD        (  C   )                                                C
002163:
002164:
002165: 00,2532           52145        GENDDV             DXCH     MPAC                                  #  WE NEED A AND B ONLY FOR FIRST DV.
002166: 00,2533           00006                 +1        EXTEND                                         #  (SPECIAL UNIT PROLOGUE ENTERS HERE).
002167: 00,2534           10120                           DV       BUF                                   #  A NOW CONTAINS Q AND L, R.
002168: 00,2535           52145                           DXCH     MPAC
002169:
002170: 00,2536           40144                           CS       MPAC                                  #  FORM DIVIDEND FOR MINOR PART OF RESULT.
002171: 00,2537           00006                           EXTEND
002172: 00,2540           70121                           MP       BUF        +1
002173: 00,2541           60145                           AD       MPAC       +1                         #  OVERFLOW AT THIS POINT IS POSITIVE SINCE
002174: 00,2542           54000                           OVSK                                           #  R IS POSITIVE IN EVERY CASE.
002175: 00,2543           12550                           TCF      +5
002176:
002177: 00,2544           00006                           EXTEND                                         #  OVERFLOW CAN BE REMOVED BY SUBTRACTING C
002178: 00,2545           60120                           SU       BUF                                   #  (BUF) ONCE SINCE R IS ALWAYS LESS THAN C
002179: 00,2546           24144                           INCR     MPAC                                  #  IN THIS CASE. INCR COMPENSATES SUBTRACT.
002180: 00,2547           12552                           TCF      +DOWN                                 #  (SINCE C(A) IS STILL POSITIVE).
002181:
002182: 00,2550           00006                 +5        EXTEND                                         #  C(A) CAN BE MADE LESS THAN C IN MAGNI-
002183:
002184: 00,2551           62562                           BZMF     -UP                                   #  TUDE BY DIMINISHING IT BY C (SINCE C IS
002185:                                                                                                  #  NOT LESS THAN .5) UNLESS C(A) = 0.
002186:


002188: 00,2552           00006        +DOWN              EXTEND
002189: 00,2553           60120                           SU       BUF                                   #  IF POSITIVE, REDUCE ONLY IF NECESSARY
002190: 00,2554           00006                           EXTEND                                         #  SINCE THE COMPENSATING INCR MIGHT CAUSE
002191: 00,2555           12560                           BZF      +3                                    #  OVERFLOW.
002192: 00,2556           00006                           EXTEND                                         #  DONT SUBTRACT UNLESS RESULT IS POSITIVE
002193: 00,2557           62566                           BZMF     ENDMAXDV                              #  OR ZERO.
002194:
002195: 00,2560           24144                 +3        INCR     MPAC                                  #  KEEP SUBTRACT HERE AND COMPENSATE.
002196: 00,2561           12567                           TCF      FINALDV
002197:
002198: 00,2562           00006        -UP                EXTEND                                         #  IF ZERO, SET MINOR PART OF RESULT TO
002199: 00,2563           12572                           BZF      FINALDV    +3                         #  ZERO.
002200:
002201: 00,2564           00006                           EXTEND                                         #  IF NEGATIVE, ADD C TO A, SUBTRACTING ONE
002202: 00,2565           26144                           DIM      MPAC                                  #  TO COMPENSATE. DIM IS OK HERE SINCE THE
002203: 00,2566           60120        ENDMAXDV           AD       BUF                                   #  MAJOR PART NEVER GOES NEGATIVE.
002204:


002206: 00,2567           22007        FINALDV            ZL                                             #  DO DV TO OBTAIN MINOR PART OF RESULT.
002207: 00,2570           00006                           EXTEND
002208:
002209: 00,2571           10120                           DV       BUF
002210: 00,2572           54145                 +3        TS       MPAC       +1
002211:
002212: 00,2573           10126                           CCS      DVSIGN                                #  LEAVE RESULT POSITIVE UNLESS C(DVSIGN)=
002213: 00,2574           00002                           TC       Q                                     #  -0.
002214: 00,2575           00002                           TC       Q
002215: 00,2576           00002                           TC       Q
002216:
002217: 00,2577           00006                           EXTEND
002218: 00,2600           40145                           DCS      MPAC
002219:
002220: 00,2601           52145                           DXCH     MPAC
002221: 00,2602           37761                           CAF      ZERO                                  #  SO WE ALWAYS RETURN WITH C(A) = 0.
002222: 00,2603           00002                           TC       Q
002223:


002225:                                                                                                  #           IF THE MAJOR PARTS OF THE DIVISOR AND DIVIDEND ARE EQUAL, BUT THE MINOR PARTS ARE SUCH THAT THE
002226:                                                                                                  #  DIVIDEND IS STRICTLY LESS THAN THE DIVISOR IN MAGNITUDE, THE FOLLOWING APPROXIMATION IS USED. THE ASSUMPTIONS
002227:                                                                                                  #  ARE THE SAME AS THE GENERAL ROUTINE WITH THE ADDITION THAT SIGN AGREEMENT IS NECESSARY (B, C, & D POSITIVE).
002228:
002229:                                                                                                  #                  C + SB .          (C + B - D)
002230:                                                                                                  #                  ------ = 37777 + S(---------)
002231:                                                                                                  #                  C + SD            (    C    )
002232:
002233:                                                                                                  #           THE DIVISION MAY BE PERFORMED IMMEDIATELY SINCE B IS STRICTLY LESS THAN D AND C IS NOT LESS THAN .5.
002234:
002235:
002236:
002237: 00,2604           40144        MAXDV              CS       MPAC                                  #  SEE IF MAXDV CASE STILL HOLDS AFTER
002238: 00,2605           60120                           AD       BUF                                   #  NORMALIZATION.
002239: 00,2606           00006                           EXTEND
002240: 00,2607           12611                           BZF      +2
002241: 00,2610           12532                           TCF      GENDDV                                #  MPAC NOW LESS THAN BUF - DIVIDE AS USUAL
002242:
002243:
002244: 00,2611           37735                 +2        CAF      POSMAX                                #  SET MAJOR PART OF RESULT.
002245: 00,2612           54144                           TS       MPAC
002246:
002247: 00,2613           40121                           CS       BUF        +1                         #  FORM DIVIDEND OF MINOR PART OF RESULT.
002248: 00,2614           60145                           AD       MPAC       +1
002249: 00,2615           12566                           TCF      ENDMAXDV                              #  GO ADD C AND DO DIVIDE, ATTACHING SIGN
002250:                                                                                                  #  BEFORE EXITING.
002251:


002253:                                                                                                  #           VECTOR DIVIDED BY SCALAR, V/SC, IS EXECUTED HERE. THE VECTOR IS NOW IN MPAC WITH SCALAR IN BUF.
002254:
002255: 00,2616           47755        V/SC2              CS       ONE                                   #  INITIALIZE DIVIDEND NORMALIZATION COUNT
002256: 00,2617           54127                           TS       DVNORMCT                              #  AND DIVISION SIGN REGISTER.
002257: 00,2620           54117                           TS       VBUF       +5
002258:
002259: 00,2621           10120                           CCS      BUF                                   #  FORCE DIVISOR POSITIVE WITH MAJOR PART
002260: 00,2622           12657                           TCF      /BUF+                                 #  NON-ZERO (IF POSSIBLE).
002261: 00,2623           12625                           TCF      +2
002262: 00,2624           12653                           TCF      /BUF-
002263:
002264: 00,2625           56121                           XCH      BUF        +1                         #  SHIFT VECTOR AND SCALAR LEFT 14.
002265: 00,2626           56120                           XCH      BUF
002266: 00,2627           56145                           XCH      MPAC       +1
002267:
002268: 00,2630           56144                           XCH      MPAC
002269: 00,2631           00006                           EXTEND                                         #  CHECK FOR OVERFLOW IN EACH CASE.
002270: 00,2632           12634                           BZF      +2
002271: 00,2633           12375                           TCF      DVOVF
002272:
002273: 00,2634           56150                           XCH      MPAC       +4
002274: 00,2635           56147                           XCH      MPAC       +3
002275: 00,2636           00006                           EXTEND
002276: 00,2637           12641                           BZF      +2
002277: 00,2640           12375                           TCF      DVOVF
002278:
002279:
002280: 00,2641           56152                           XCH      MPAC       +6
002281: 00,2642           56151                           XCH      MPAC       +5
002282: 00,2643           00006                           EXTEND
002283: 00,2644           12646                           BZF      +2
002284: 00,2645           12375                           TCF      DVOVF
002285:
002286: 00,2646           10120                           CCS      BUF
002287: 00,2647           12657                           TCF      /BUF+
002288: 00,2650           12375                           TCF      DVOVF                                 #  ZERO DIVISOR - OVERFLOW.
002289: 00,2651           12653                           TCF      /BUF-
002290: 00,2652           12375                           TCF      DVOVF
002291:
002292:
002293: 00,2653           00006        /BUF-              EXTEND                                         #  ON NEGATIVE, COMPLEMENT BUF AND MAINTAIN
002294: 00,2654           40121                           DCS      BUF                                   #  DVSIGN IN VBUF +5.
002295: 00,2655           52121                           DXCH     BUF
002296: 00,2656           24117                           INCR     VBUF       +5
002297:


002299: 00,2657           37740        /BUF+              CAF      HALF                                  #  FORCE SIGN AGREEMENT IN DIVISOR.
002300: 00,2660           60000                           DOUBLE
002301: 00,2661           60121                           AD       BUF        +1
002302: 00,2662           54121                           TS       BUF        +1
002303: 00,2663           37761                           CAF      ZERO
002304: 00,2664           67735                           AD       POSMAX
002305:
002306: 00,2665           26120                           ADS      BUF
002307:
002308: 00,2666           56123                           XCH      BUF2                                  #  LEAVE ABS(ORIGINAL DIVISOR) IN BUF2 FOR
002309: 00,2667           30121                           CA       BUF        +1                         #  OVERFLOW TESTING.
002310: 00,2670           54124                           TS       BUF2       +1
002311: 00,2671           12677                           TCF      /NORM                                 #  NORMALIZE DIVISOR IN BUF.
002312:
002313: 00,2672           00006        /NORM2             EXTEND                                         #  IF LESS THAN .5, AUGMENT DVNORMCT AND
002314: 00,2673           24127                           AUG      DVNORMCT                              #  DOUBLE DIVISOR.
002315: 00,2674           00006                           EXTEND
002316: 00,2675           30121                           DCA      BUF
002317: 00,2676           20121                           DAS      BUF
002318:
002319:
002320: 00,2677           30120        /NORM              CA       BUF                                   #  SEE IF DIVISOR NORMALIZED.
002321: 00,2700           60000                           DOUBLE
002322: 00,2701           54000                           OVSK
002323: 00,2702           12672                           TCF      /NORM2                                #  DOUBLE AND TRY AGAIN IF NOT.
002324:
002325: 00,2703           02715                           TC       V/SCDV                                #  DO X COMPONENT DIVIDE.
002326: 00,2704           52150                           DXCH     MPAC       +3                         #  SUPPLY ARGUMENTS IN USUAL SEQUENCE.
002327: 00,2705           52145                           DXCH     MPAC
002328: 00,2706           52150                           DXCH     MPAC       +3
002329:
002330: 00,2707           02715                           TC       V/SCDV                                #  Y COMPONENT.
002331: 00,2710           52152                           DXCH     MPAC       +5
002332: 00,2711           52145                           DXCH     MPAC
002333: 00,2712           52152                           DXCH     MPAC       +5
002334:
002335: 00,2713           02715                           TC       V/SCDV                                #  Z COMPONENT.
002336: 00,2714           17471                           TCF      VROTATEX                              #  GO RE-ARRANGE COMPONENTS BEFORE EXIT.
002337:


002339:                                                                                                  #           SUBROUTINE USED BY V/SC TO DIVIDE VECTOR COMPONENT IN MPAC,+1 BY THE SCALAR GIVEN IN BUF.
002340:
002341: 00,2715           30117        V/SCDV             CA       VBUF       +5                         #  REFLECTS SIGN OF SCALAR.
002342: 00,2716           54126                           TS       DVSIGN
002343:
002344: 00,2717           10144                           CCS      MPAC                                  #  FORCE MPAC POSITIVE, EXITING ON ZERO.
002345: 00,2720           12734                           TCF      /MPAC+
002346: 00,2721           12723                           TCF      +2
002347: 00,2722           12730                           TCF      /MPAC-
002348:
002349: 00,2723           10145                           CCS      MPAC       +1
002350: 00,2724           12734                           TCF      /MPAC+
002351:
002352: 00,2725           00002                           TC       Q
002353: 00,2726           12730                           TCF      /MPAC-
002354: 00,2727           00002                           TC       Q
002355:
002356: 00,2730           00006        /MPAC-             EXTEND                                         #  USUAL COMPLEMENTING AND SETTING OF SIGN.
002357: 00,2731           40145                           DCS      MPAC
002358: 00,2732           52145                           DXCH     MPAC
002359: 00,2733           24126                           INCR     DVSIGN
002360:
002361: 00,2734           47755        /MPAC+             CS       ONE                                   #  INITIALIZE NEAR-ONE SWITCH.
002362: 00,2735           54130                           TS       MAXDVSW
002363:
002364:
002365: 00,2736           40144                           CS       MPAC                                  #  CHECK POSSIBLE OVERFLOW.
002366: 00,2737           60123                           AD       BUF2                                  #  UNNORMALIZED INPUT DIVISOR.
002367: 00,2740           00006                           EXTEND
002368: 00,2741           62745                           BZMF     /AGREE                                #  CHECK FOR NEAR-ONE OR OVERFLOW.
002369:
002370: 00,2742           52145        DDVCALL            DXCH     MPAC                                  #  CALL PRE-DIVIDE NORMALIZATION.
002371: 00,2743           50127                           INDEX    DVNORMCT
002372: 00,2744           12527                           TCF      MAXTEST
002373:


002375: 00,2745           37740        /AGREE             CAF      HALF                                  #  FORCE SIGN AGREEMENT IN DIVIDEND
002376: 00,2746           60000                           DOUBLE                                         #  (ALREADY DONE FOR DIVISOR).
002377: 00,2747           60145                           AD       MPAC       +1
002378: 00,2750           54145                           TS       MPAC       +1
002379: 00,2751           37761                           CAF      ZERO
002380: 00,2752           67735                           AD       POSMAX
002381: 00,2753           26144                           ADS      MPAC
002382:
002383:
002384: 00,2754           40144                           CS       MPAC                                  #  CHECK TO SEE IF OVERFLOW GONE OR IF
002385: 00,2755           60123                           AD       BUF2                                  #  NEAR-ONE CASE IS PRESENT.
002386: 00,2756           10000                           CCS      A
002387: 00,2757           12742                           TCF      DDVCALL                               #  NOT NEAR-ONE.
002388: 00,2760           32506        SLOPELO            DEC      .8324
002389: 00,2761           12375                           TCF      DVOVF                                 #  NO HOPE.
002390:
002391: 00,2762           54130                           TS       MAXDVSW                               #  SIGNAL POSSIBLE NEAR-ONE CASE.
002392: 00,2763           40145                           CS       MPAC       +1                         #  SEE IF DIVISION CAN BE DONE.
002393: 00,2764           60124                           AD       BUF2       +1
002394:
002395: 00,2765           00006                           EXTEND
002396: 00,2766           62375                           BZMF     DVOVF
002397: 00,2767           12742                           TCF      DDVCALL                               #  GOING TO MAXDV.
002398:


002400:                                                                                                  #           THE FOLLOWING ROUTINE EXECUTES THE UNIT INSTRUCTION, WHICH TAKES THE UNIT OF THE VECTOR IN MPAC.
002401:
002402: 00,2770           07604        UNIT               TC       MPACVBUF                              #  SAVE THE ARGUMENT IN VBUF.
002403: 00,2771           37761                           CAF      ZERO                                  #  MUST SENSE OVERFLOW IN FOLLOWING DOT.
002404: 00,2772           56111                           XCH      OVFIND
002405: 00,2773           54131                           TS       TEM1
002406: 00,2774           03267                           TC       VSQSUB                                #  DOT MPAC WITH ITSELF.
002407: 00,2775           30131                           CA       TEM1
002408: 00,2776           56111                           XCH      OVFIND
002409: 00,2777           00006                           EXTEND
002410: 00,3000           13002                           BZF      +2
002411: 00,3001           12375                           TCF      DVOVF
002412: 00,3002           00006                           EXTEND
002413: 00,3003           30145                           DCA      MPAC                                  #  LEAVE THE SQUARE OF THE LENGTH OF THE
002414:
002415: 00,3004           50110                           INDEX    FIXLOC                                #  ARGUMENT IN LVSQUARE.
002416: 00,3005           52043                           DXCH     LVSQUARE
002417:
002418: 00,3006           03313                           TC       SQRTSUB                               #  GO TAKE THE NORMALIZED SQUARE ROOT.
002419:
002420: 00,3007           10144                           CCS      MPAC                                  #  CHECK FOR UNIT OVERFLOW.
002421: 00,3010           13015                           TCF      +5                                    #  MPAC IS NOT LESS THAN .5 UNLESS
002422: 00,3011           54001                           TS       L
002423: 00,3012           50110                           INDEX    FIXLOC
002424: 00,3013           52045                           DXCH     LV
002425:
002426: 00,3014           12375                           TCF      DVOVF                                 #  INPUT TO SQRTSUB WAS 0.
002427:
002428: 00,3015           43116                           CS       FOURTEEN                              #  SEE IF THE INPUT WAS SO SMALL THE THE
002429: 00,3016           60125                           AD       MPTEMP                                #  FIRST TWO REGISTERS OF THE SQUARE WERE 0
002430: 00,3017           10000                           CCS      A
002431: 00,3020           40000                           COM                                            #  IF SO, SAVE THE NEGATIVE OF THE SHIFT
002432: 00,3021           13077                           TCF      SMALL                                 #  COUNT -15D.
002433:
002434: 00,3022           13031                           TCF      LARGE                                 #  (THIS IS USUALLY THE CASE.)
002435:
002436: 00,3023           43115                           CS       THIRTEEN                              #  IF THE SHIFT COUNT WAS EXACTLY 14, SET
002437: 00,3024           54125                           TS       MPTEMP                                #  THE PRE-DIVIDE NORM COUNT TO -13D.
002438:
002439:
002440: 00,3025           30144                           CA       MPAC                                  #  SHIFT THE LENGTH RIGHT 14 BEFORE STORING
002441: 00,3026           54001        SMALL2             TS       L                                     #  (SMALL EXITS TO THIS POINT).
002442: 00,3027           37761                           CAF      ZERO
002443: 00,3030           13056                           TCF      LARGE2                                #  GO TO STORE LENGTH AND PROCEED.
002444:
002445: 00,3031           10125        LARGE              CCS      MPTEMP                                #  MOST ALL CASES COME HERE.
002446: 00,3032           13040                           TCF      LARGE3                                #  SEE IF NO NORMALIZATION WAS REQUIRED BY
002447:
002448: 00,3033           42024                           CS       SRDDV                                 #  SQRT, AND IF SO, SET UP FOR A SHIFT
002449:
002450: 00,3034           54125                           TS       MPTEMP                                #  RIGHT 1 BEFORE DIVIDING TO PRODUCE
002451: 00,3035           00006                           EXTEND                                         #  THE DESIRED HALF UNIT VECTOR.
002452: 00,3036           30145                           DCA      MPAC
002453: 00,3037           13056                           TCF      LARGE2
002454:


002456: 00,3040           40000        LARGE3             COM                                            #  LEAVE NEGATIVE OF SHIFT COUNT-1 FOR
002457: 00,3041           54125                           TS       MPTEMP                                #  PREDIVIDE LEFT SHIFT.
002458:
002459: 00,3042           40000                           COM                                            #  PICK UP REQUIRED SHIFTING BIT TO UNNORM-
002460: 00,3043           50000                           INDEX    A                                     #  ALIZE THE SQRT RESULT.
002461: 00,3044           37740                           CAF      BIT14
002462:
002463: 00,3045           54120                           TS       BUF
002464: 00,3046           00006                           EXTEND
002465: 00,3047           70145                           MP       MPAC       +1
002466: 00,3050           56120                           XCH      BUF
002467: 00,3051           00006                           EXTEND                                         #  (UNNORMALIZE THE SQRT FOR LV).
002468: 00,3052           70144                           MP       MPAC
002469: 00,3053           56001                           XCH      L
002470: 00,3054           60120                           AD       BUF
002471: 00,3055           56001                           XCH      L
002472:
002473: 00,3056           50110        LARGE2             INDEX    FIXLOC
002474: 00,3057           52045                           DXCH     LV                                    #  LENGTH NOW STORED IN WORK AREA.
002475:
002476:
002477: 00,3060           47755                           CS       ONE
002478: 00,3061           54130                           TS       MAXDVSW                               #  NO MAXDV CASES IN UNIT.
002479:
002480: 00,3062           52113                           DXCH     VBUF                                  #  PREPARE X COMPONENT FOR DIVIDE, SETTING
002481: 00,3063           52145                           DXCH     MPAC                                  #  LENGTH OF VECTOR AS DIVISOR IN BUF.
002482: 00,3064           52121                           DXCH     BUF
002483: 00,3065           03117                           TC       UNITDV
002484:
002485: 00,3066           52115                           DXCH     VBUF       +2                         #  DO Y AND Z IN USUAL FASHION SO WE CAN
002486:
002487: 00,3067           52145                           DXCH     MPAC                                  #  EXIT THROUGH VROTATEX.
002488: 00,3070           52150                           DXCH     MPAC       +3
002489: 00,3071           03117                           TC       UNITDV
002490:
002491: 00,3072           52117                           DXCH     VBUF       +4
002492: 00,3073           52145                           DXCH     MPAC
002493: 00,3074           52152                           DXCH     MPAC       +5
002494: 00,3075           03117                           TC       UNITDV
002495: 00,3076           17471                           TCF      VROTATEX                              #  AND EXIT.
002496:


002498:                                                                                                  #           IF THE LENGTH OF THE ARGUMENT VECTOR WAS LESS THAN 2(-28), EACH COMPONENT MUST BE SHIFTED LEFT AT LEAST
002499:                                                                                                  #  14 PLACES BEFORE THE DIVIDE. NOTE THAT IN THIS CASE, THE MAJOR PART OF EACH COMPONENT IS ZERO.
002500:
002501: 00,3077           54125        SMALL              TS       MPTEMP                                #  NEGATIVE OF PRE-DIVIDE SHIFT COUNT.
002502:
002503: 00,3100           37761                           CAF      ZERO                                  #  SHIFT EACH COMPONENT LEFT 14.
002504: 00,3101           56113                           XCH      VBUF       +1
002505: 00,3102           56112                           XCH      VBUF
002506: 00,3103           56115                           XCH      VBUF       +3
002507: 00,3104           56114                           XCH      VBUF       +2
002508: 00,3105           56117                           XCH      VBUF       +5
002509: 00,3106           56116                           XCH      VBUF       +4
002510:
002511: 00,3107           40125                           CS       MPTEMP
002512: 00,3110           50000                           INDEX    A
002513: 00,3111           37740                           CAF      BIT14
002514: 00,3112           00006                           EXTEND
002515: 00,3113           70144                           MP       MPAC
002516: 00,3114           13026                           TCF      SMALL2
002517:
002518: 00,3115           00015        THIRTEEN           DEC      13         B-14
002519: 00,3116           00016        FOURTEEN           DEC      14         B-14
002520:


002522:                                                                                                  #           THE FOLLOWING ROUTINE SETS UP THE CALL TO THE DIVIDE ROUTINES.
002523:
002524: 00,3117           10144        UNITDV             CCS      MPAC                                  #  FORCE MPAC POSITIVE IF POSSIBLE, SETTING
002525: 00,3120           13136                           TCF      UMPAC+                                #  DVSIGN ACCORDING TO THE SIGN OF MPAC
002526: 00,3121           13123                           TCF      +2                                    #  SINCE THE DIVISOR IS ALWAYS POSITIVE
002527: 00,3122           13130                           TCF      UMPAC-                                #  HERE.
002528:
002529: 00,3123           10145                           CCS      MPAC       +1
002530:
002531: 00,3124           13136                           TCF      UMPAC+
002532: 00,3125           00002                           TC       Q                                     #  EXIT IMMEDIATELY ON ZERO.
002533: 00,3126           13130                           TCF      UMPAC-
002534: 00,3127           00002                           TC       Q
002535:
002536: 00,3130           47761        UMPAC-             CS       ZERO                                  #  IF NEGATIVE, SET -0 IN DVSIGN FOR FINAL
002537: 00,3131           54126                           TS       DVSIGN                                #  COMPLEMENT.
002538: 00,3132           00006                           EXTEND
002539: 00,3133           40145                           DCS      MPAC                                  #  PICK UP ABSOLUTE VALUE OF ARG AND JUMP.
002540: 00,3134           50125                           INDEX    MPTEMP
002541:
002542: 00,3135           12526                           TCF      MAXTEST    -1
002543:
002544: 00,3136           54126        UMPAC+             TS       DVSIGN                                #  SET DVSIGN FOR POSITIVE QUOTIENT.
002545: 00,3137           52145                           DXCH     MPAC
002546: 00,3140           50125                           INDEX    MPTEMP
002547: 00,3141           12526                           TCF      MAXTEST    -1
002548:


002550:                                                                                                  #           MISCELLANEOUS UNARY OPERATIONS.
002551:
002552: 00,3142           03250        DSQ                TC       DSQSUB                                #  SQUARE THE DP CONTENTS OF MPAC.
002553: 00,3143           16115                           TCF      DANZIG
002554:
002555: 00,3144           10153        ABVALABS           CCS      MODE                                  #  ABVAL OR ABS INSTRUCTION.
002556: 00,3145           13174                           TCF      ABS                                   #  DO ABS ON SCALAR.
002557: 00,3146           13174                           TCF      ABS
002558:
002559: 00,3147           03267        ABVAL              TC       VSQSUB                                #  DOT MPAC WITH ITSELF.
002560: 00,3150           22153                           LXCH     MODE                                  #  MODE IS NOW DP (L ZERO AFTER DAS).
002561:
002562: 00,3151           00006                           EXTEND                                         #  STORE SQUARE OF LENGTH IN WORK AREA.
002563: 00,3152           30145                           DCA      MPAC
002564:
002565: 00,3153           50110                           INDEX    FIXLOC
002566: 00,3154           52043                           DXCH     LVSQUARE
002567:
002568: 00,3155           03313        SQRT               TC       SQRTSUB                               #  TAKE THE SQUARE ROOT OF MPAC.
002569: 00,3156           10125                           CCS      MPTEMP                                #  RETURNED NORMALIZED SQUARE ROOT. SEE IF
002570: 00,3157           13161                           TCF      +2                                    #  ANY UN-NORMALIZATION REQUIRED AND EXIT
002571: 00,3160           16115                           TCF      DANZIG                                #  IF NOT.
002572:
002573: 00,3161           63676                           AD       NEG12                                 #  A RIGHT SHIFT OF MORE THAN 13 COULD BE
002574: 00,3162           00006                           EXTEND                                         #  REQUIRED IF INPUT WAS ZERO IN MPAC,+1.
002575:
002576: 00,3163           63167                           BZMF     SQRTSHFT                              #  GOES HERE IN MOST CASES.
002577: 00,3164           22007                           ZL                                             #  IF A LONG SHIFT IS REQUIRED, GO TO
002578: 00,3165           22106                           LXCH     ADDRWD                                #  GENERAL RIGHT SHIFT ROUTINES.
002579: 00,3166           12303                           TCF      GENSCR     +4                         #  ADDRWD WAS ZERO TO PREVENT ROUND.
002580:
002581: 00,3167           50125        SQRTSHFT           INDEX    MPTEMP                                #  SELECT SHIFTING BIT AND EXIT THROUGH
002582: 00,3170           37737                           CAF      BIT15                                 #  SHIFT ROUTINES.
002583: 00,3171           54125                           TS       MPTEMP
002584: 00,3172           37761                           CAF      ZERO                                  #  TO ZERO MPAC +2 IN THE PROCESS.
002585: 00,3173           12036                           TCF      MPACSHR    +3
002586:
002587: 00,3174           06772        ABS                TC       BRANCH                                #  TEST SIGN OF MPAC AND COMPLEMENT IF
002588:
002589: 00,3175           16115                           TCF      DANZIG
002590: 00,3176           16115                           TCF      DANZIG
002591: 00,3177           17714                           TCF      COMP
002592:


002594: 00,3200           47753        VDEF               CS       FOUR                                  #  VECTOR DEFINE - ESSENTIALLY TREATS
002595: 00,3201           26156                           ADS      PUSHLOC                               #  SCALAR IN MPAC AS X COMPONENT, PUSHES UP
002596: 00,3202           00006                           EXTEND                                         #  FOR Y AND THEN AGAIN FOR Z.
002597: 00,3203           50000                           INDEX    A
002598: 00,3204           30003                           DCA      2
002599: 00,3205           52150                           DXCH     MPAC       +3
002600:
002601: 00,3206           00006                           EXTEND
002602: 00,3207           50156                           INDEX    PUSHLOC
002603: 00,3210           30001                           DCA      0
002604: 00,3211           52152                           DXCH     MPAC       +5
002605: 00,3212           47755                           CS       ONE                                   #  MODE IS NOW VECTOR.
002606: 00,3213           16114                           TCF      NEWMODE
002607:
002608: 00,3214           03267        VSQ                TC       VSQSUB                                #  DOT MPAC WITH ITSELF.
002609: 00,3215           37761                           CAF      ZERO
002610: 00,3216           16114                           TCF      NEWMODE                               #  MODE IS NOW DP.
002611:
002612: 00,3217           00006        PUSH               EXTEND                                         #  PUSH DOWN MPAC LEAVING IT LOADED.
002613:
002614: 00,3220           30145                           DCA      MPAC
002615: 00,3221           50156                           INDEX    PUSHLOC                               #  PUSH DOWN FIRST TWO REGISTERS IN EACH
002616: 00,3222           52001                           DXCH     0
002617:
002618: 00,3223           50153                           INDEX    MODE                                  #  INCREMENT PUSHDOWN POINTER.
002619: 00,3224           36300                           CAF      NO.WDS
002620: 00,3225           26156                           ADS      PUSHLOC
002621:
002622: 00,3226           10153                           CCS      MODE
002623: 00,3227           13242                           TCF      TPUSH                                 #  PUSH DOWN MPAC +2.
002624:
002625: 00,3230           16115                           TCF      DANZIG                                #  DONE FOR DP.
002626:
002627: 00,3231           00006                           EXTEND                                         #  ON VECTOR, PUSH DOWN Y AND Z COMPONENTS.
002628: 00,3232           30150                           DCA      MPAC       +3
002629: 00,3233           50156                           INDEX    PUSHLOC
002630: 00,3234           51775                           DXCH     0          -4
002631: 00,3235           00006                           EXTEND
002632: 00,3236           30152                           DCA      MPAC       +5
002633: 00,3237           50156                           INDEX    PUSHLOC
002634: 00,3240           51777                           DXCH     0          -2
002635: 00,3241           16115                           TCF      DANZIG
002636:
002637:
002638: 00,3242           30146        TPUSH              CA       MPAC       +2
002639: 00,3243           16623                           TCF      ENDTPUSH   +2
002640:
002641: 00,3244           50110        RVQ                INDEX    FIXLOC                                #  RVQ - RETURN IVA QPRET.
002642: 00,3245           30052                           CA       QPRET
002643: 00,3246           54107                           TS       POLISH
002644: 00,3247           16721                           TCF      GOTO       +4                         #  (ASSUME QPRET POINTS TO FIXED ONLY.)
002645:


002647:                                                                                                  #           THE FOLLOWING SUBROUTINES ARE USED IN SQUARING MPAC, IN BOTH THE SCALAR AND VECTOR SENSE. THEY ARE
002648:                                                                                                  #  SPECIAL CASES OF DMPSUB AND DOTSUB, PUT IN TO SAVE SOME TIME.
002649:
002650: 00,3250           30145        DSQSUB             CA       MPAC       +1                         #  SQUARES THE SCALAR CONTENTS OF MPAC.
002651: 00,3251           00006                           EXTEND
002652: 00,3252           70000                           SQUARE
002653: 00,3253           54146                           TS       MPAC       +2
002654: 00,3254           37761                           CAF      ZERO                                  #  FORM 2(CROSS TERM).
002655: 00,3255           56145                           XCH      MPAC       +1
002656: 00,3256           00006                           EXTEND
002657: 00,3257           70144                           MP       MPAC
002658: 00,3260           20001                           DDOUBL                                         #  AND MAYBE OVERFLOW.
002659:
002660: 00,3261           20146                           DAS      MPAC       +1                         #  AND SET A TO NET OVERFLOW.
002661: 00,3262           56144                           XCH      MPAC
002662: 00,3263           00006                           EXTEND
002663: 00,3264           70000                           SQUARE
002664: 00,3265           20145                           DAS      MPAC
002665: 00,3266           00002                           TC       Q
002666:
002667: 00,3267           00006        VSQSUB             EXTEND                                         #  DOTS THE VECTOR IN MPAC WITH ITSELF.
002668: 00,3270           22127                           QXCH     DOTRET
002669: 00,3271           03250                           TC       DSQSUB                                #  SQUARE THE X COMPONENT.
002670: 00,3272           52150                           DXCH     MPAC       +3
002671: 00,3273           52145                           DXCH     MPAC
002672:
002673: 00,3274           52121                           DXCH     BUF                                   #  SO WE CAN END IN DOTSUB.
002674: 00,3275           30146                           CA       MPAC       +2
002675: 00,3276           54122                           TS       BUF        +2
002676:
002677: 00,3277           03250                           TC       DSQSUB                                #  SQUARE Y COMPONENT.
002678: 00,3300           52146                           DXCH     MPAC       +1
002679: 00,3301           20122                           DAS      BUF        +1
002680: 00,3302           60144                           AD       MPAC
002681: 00,3303           60120                           AD       BUF
002682: 00,3304           54120                           TS       BUF
002683:
002684: 00,3305           13307                           TCF      +2
002685: 00,3306           54111                           TS       OVFIND                                #  IF OVERFLOW.
002686:
002687: 00,3307           52152                           DXCH     MPAC       +5
002688: 00,3310           52145                           DXCH     MPAC
002689: 00,3311           03250                           TC       DSQSUB                                #  SQUARE Z COMPONENT.
002690: 00,3312           17250                           TCF      ENDDOT                                #  END AS IN DOTSUB.
002691:


002693:                                                                                                  #           DOUBLE PRECISION SQUARE ROOT ROUTINE. TAKE THE SQUARE ROOT OF THE TRIPLE PRECISION (MPAC +2 USED ONLY
002694:                                                                                                  #  IN NORMALIZATION) CONTENTS OF MPAC AND LEAVE THE NORMALIZED RESULT IN MPAC (C(MPAC) GREATER THAN OR EQUAL TO
002695:                                                                                                  #  .5). THE RIGHT SHIFT COUNT (TO UNNORMALIZE) IS LEFT IN MPTEMP.
002696:
002697:
002698:
002699: 00,3313           37761        SQRTSUB            CAF      ZERO                                  #  START BY ZEROING RIGHT SHIFT COUNT.
002700: 00,3314           54125                           TS       MPTEMP
002701:
002702:
002703: 00,3315           10144                           CCS      MPAC                                  #  CHECK FOR POSITIVE ARGUMENT, SHIFTING
002704: 00,3316           13354                           TCF      SMPAC+                                #  FIRST SIGNIFICANT MPAC REGISTER INTO
002705: 00,3317           13321                           TCF      +2                                    #  MPAC ITSELF.
002706: 00,3320           13343                           TCF      SQRTNEG                               #  SEE IF MAG OF ARGUMENT LESS THAN 10(-4).
002707:
002708: 00,3321           56146                           XCH      MPAC       +2                         #  MPAC IS ZERO - SHIFT LEFT 14.
002709: 00,3322           56145                           XCH      MPAC       +1
002710: 00,3323           54144                           TS       MPAC
002711: 00,3324           37757                           CAF      SEVEN                                 #  AUGMENT RIGHT SHIFT COUNTER.
002712:
002713: 00,3325           54125                           TS       MPTEMP
002714:
002715: 00,3326           10144                           CCS      MPAC                                  #  SEE IF MPAC NOW PNZ.
002716: 00,3327           13354                           TCF      SMPAC+
002717: 00,3330           13332                           TCF      +2
002718: 00,3331           13346                           TCF      ZEROANS                               #  NEGATIVE BUT LESS THAN 10(-4) IN MAG.
002719:
002720: 00,3332           56145                           XCH      MPAC       +1                         #  ZERO - SHIFT LEFT 14 AGAIN.
002721: 00,3333           54144                           TS       MPAC
002722: 00,3334           37757                           CAF      SEVEN                                 #  AUGMENT RIGHT SHIFT COUNTER.
002723: 00,3335           26125                           ADS      MPTEMP
002724:
002725:
002726: 00,3336           10144                           CCS      MPAC
002727: 00,3337           13354                           TCF      SMPAC+
002728: 00,3340           00002                           TC       Q                                     #  SQRT(0) = 0.
002729: 00,3341           13346                           TCF      ZEROANS
002730: 00,3342           00002                           TC       Q
002731:
002732:
002733:
002734: 00,3343           10000        SQRTNEG            CCS      A                                     #  ARGUMENT IS NEGATIVE, BUT SEE IF SIGN-
002735: 00,3344           13352                           TCF      SQRTABRT                              #  CORRECTED ARGUMENT IS LESS THAN 10(-4)
002736:
002737: 00,3345           10145                           CCS      MPAC       +1                         #  IN MAGNITUDE. IF SO, CALL ANSWER ZERO.
002738: 00,3346           37761        ZEROANS            CAF      ZERO                                  #  FORCE ANSWER TO ZERO HERE.
002739: 00,3347           13422                           TCF      FIXROOT
002740: 00,3350           13352                           TCF      SQRTABRT
002741: 00,3351           13422                           TCF      FIXROOT
002742:
002743: 00,3352           06000        SQRTABRT           TC       ABORT
002744: 00,3353           01302                           OCT      1302
002745:


002747: 00,3354           62430        SMPAC+             AD       -1/2+2                                #  SEE IF ARGUMENT GREATER THAN OR EQUAL TO
002748:
002749: 00,3355           00006                           EXTEND                                         #  .5.
002750: 00,3356           63425                           BZMF     SRTEST                                #  IF SO, SEE IF LESS THAN .25.
002751:
002752: 00,3357           52145                           DXCH     MPAC                                  #  WE WILL TAKE THE SQUARE ROOT OF MPAC/2.
002753: 00,3360           22021                           LXCH     SR                                    #  SHIFT RIGHT 1 AND GO TO THE SQRT ROUTINE
002754: 00,3361           00006                           EXTEND
002755: 00,3362           77740                           MP       HALF
002756: 00,3363           52145                           DXCH     MPAC
002757: 00,3364           56021                           XCH      SR
002758: 00,3365           26145                           ADS      MPAC       +1                         #  GUARANTEED NO OVERFLOW.
002759:
002760: 00,3366           32314        ARGHI              CAF      SLOPEHI                               #  ARGUMENT BETWEEN .25 AND .5. GET A
002761:
002762: 00,3367           00006                           EXTEND                                         #  LINEAR APPROXIMATION FOR THIS RANGE.
002763: 00,3370           70144                           MP       MPAC
002764: 00,3371           62530                           AD       BIASHI                                #  X0/2 = (MPAC/2)(SLOPEHI) + BIASHI/2.
002765:
002766: 00,3372           54120                 +4        TS       BUF                                   #  X0/2 (ARGLO ENTERS HERE).
002767: 00,3373           30144                           CA       MPAC                                  #  SINGLE-PRECISION THROUGHOUT.
002768: 00,3374           22007                           ZL
002769: 00,3375           00006                           EXTEND
002770: 00,3376           10120                           DV       BUF                                   #  (MPAC/2)/(X0/2)
002771: 00,3377           00006                           EXTEND
002772:
002773: 00,3400           77740                           MP       HALF
002774: 00,3401           26120                           ADS      BUF                                   #  X1 = X0/2 + .5(MPAC/2)/(X0/2).
002775:
002776: 00,3402           00006                           EXTEND
002777: 00,3403           77740                           MP       HALF                                  #  FORM UP X1/2.
002778: 00,3404           52145                           DXCH     MPAC                                  #  SAVE AND BRING OUT ARGUMENT.
002779: 00,3405           00006                           EXTEND                                         #  TAKE DP QUOTIENT WITH X1.
002780: 00,3406           10120                           DV       BUF
002781: 00,3407           54121                           TS       BUF        +1                         #  SAVE MAJOR PART OF QUOTIENT.
002782: 00,3410           37761                           CAF      ZERO                                  #  FORM MINOR PART OF QUOTIENT USING
002783: 00,3411           56001                           XCH      L                                     #  (REMAINDER,0).
002784: 00,3412           00006                           EXTEND
002785:
002786: 00,3413           10120                           DV       BUF
002787: 00,3414           54001                           TS       L                                     #  IN PREPARATION FOR DAS.
002788: 00,3415           30121                           CA       BUF        +1
002789: 00,3416           20145                           DAS      MPAC                                  #  X2 = X1/2 + (MPAC/2)X1
002790:
002791: 00,3417           00006                           EXTEND                                         #  OVERFLOWS IF ARG. NEAR POSMAX.
002792: 00,3420           13424                           BZF      TCQBNK00
002793: 00,3421           37735                           CAF      POSMAX
002794: 00,3422           54144        FIXROOT            TS       MPAC
002795: 00,3423           54145                           TS       MPAC       +1
002796:
002797: 00,3424           00002        TCQBNK00           TC       Q                                     #  RETURN TO CALLER TO UNNORMALIZE, ETC.
002798:


002800: 00,3425           67741        SRTEST             AD       QUARTER                               #  ARGUMENT WAS LESS THAN .5, SEE IF LESS
002801: 00,3426           00006                           EXTEND                                         #  THAN .25.
002802: 00,3427           63451                           BZMF     SQRTNORM                              #  IF SO, BEGIN NORMALIZATION.
002803:
002804: 00,3430           52145                           DXCH     MPAC                                  #  IF BETWEEN .5 AND .25, SHIFT RIGHT 1 AND
002805: 00,3431           22021                           LXCH     SR                                    #  START AT ARGLO.
002806:
002807: 00,3432           00006                           EXTEND
002808: 00,3433           77740                           MP       HALF
002809: 00,3434           52145                           DXCH     MPAC
002810: 00,3435           56021                           XCH      SR
002811: 00,3436           26145                           ADS      MPAC       +1                         #  NO OVERFLOW.
002812:
002813: 00,3437           32760        ARGLO              CAF      SLOPELO                               #  (NORMALIZED) ARGUMENT BETWEEN .125 AND
002814: 00,3440           00006                           EXTEND                                         #  .25
002815: 00,3441           70144                           MP       MPAC
002816: 00,3442           62270                           AD       BIASLO
002817: 00,3443           13372                           TCF      ARGHI      +4                         #  BEGIN SQUARE ROOT.
002818:
002819:
002820: 00,3444           00006        SQRTNM2            EXTEND                                         #  SHIFT LEFT 2 AND INCREMENT RIGHT SHIFT
002821: 00,3445           30146                           DCA      MPAC       +1                         #  COUNT (FOR TERMINAL UNNORMALIZATION).
002822: 00,3446           20146                           DAS      MPAC       +1
002823: 00,3447           60144                           AD       MPAC
002824: 00,3450           26144                           ADS      MPAC                                  #  (NO OVERFLOW).
002825:
002826: 00,3451           24125        SQRTNORM           INCR     MPTEMP                                #  FIRST TIME THROUGH, JUST SHIFT LEFT 1
002827: 00,3452           00006                           EXTEND                                         #  (PUTS IN EFFECTIVE RIGHT SHIFT SINCE
002828: 00,3453           30146                           DCA      MPAC       +1                         #  WE WANT MPAC/2).
002829: 00,3454           20146                           DAS      MPAC       +1
002830:
002831: 00,3455           60144                           AD       MPAC
002832: 00,3456           26144                           ADS      MPAC                                  #  (AGAIN NO OVERFLOW).
002833: 00,3457           60000                           DOUBLE
002834: 00,3460           54022                           TS       CYL
002835:
002836: 00,3461           10022        NORMTEST           CCS      CYL                                   #  SEE IF ARGUMENT NOW NORMALIZED AT
002837: 00,3462           10022                           CCS      CYL                                   #  GREATER THAN .125.
002838: 00,3463           13444                           TCF      SQRTNM2                               #  NO - SHIFT LEFT 2 MORE AND TRY AGAIN.
002839: 00,3464           13366                           TCF      ARGHI                                 #  YES - NOW BETWEEN .5 AND .25.
002840: 00,3465           13437                           TCF      ARGLO                                 #  ARGUMENT NOW BETWEEN .25 AND .125.
002841:


002843:                                                                                                  #  TRIGONOMETRIC FUNCTION PACKAGE.
002844:
002845:
002846:                                                                                                  #           THE FOLLOWING TRIGONOMETRIC FUNCTIONS ARE AVAILABLE AS INTERPRETIVE OPERATIONS:
002847:
002848:                                                                                                  #           1.  SIN                COMPUTES (1/2)SINE(2 PI MPAC).
002849:                                                                                                  #           2.  COS                COMPUTES (1/2)COSINE(2 PI MPAC).
002850:
002851:                                                                                                  #           3.  ASIN               COMPUTES (1/2PI)ARCSINE(2 MPAC).
002852:                                                                                                  #           4.  ACOS               COMPUTES (1/2PI)ARCCOSINE(2 MPAC).
002853:
002854:                                                                                                  #  SIN-ASIN AND COS-ACOS ARE MUTUALLY INVERSE, IE SIN(ASIN(X)) = X.
002855:
002856:
002857:
002858: 00,3466           06772        COSINE             TC       BRANCH                                #  FINDS COSINE USING THE IDENTITY
002859: 00,3467           13472                           TCF      +3                                    #  COS(X) = SIN(PI/2 - ABS(X)).
002860: 00,3470           13475                           TCF      PRESINE
002861: 00,3471           13475                           TCF      PRESINE
002862:
002863: 00,3472           00006                 +3        EXTEND
002864: 00,3473           40145                           DCS      MPAC
002865: 00,3474           52145                           DXCH     MPAC
002866:
002867: 00,3475           37741        PRESINE            CAF      QUARTER                               #  PI/2 SCALED.
002868: 00,3476           26144                           ADS      MPAC
002869:
002870:
002871:
002872:
002873: 00,3477           52145        SINE               DXCH     MPAC                                  #  DOUBLE ARGUMENT.
002874: 00,3500           20001                           DDOUBL
002875: 00,3501           54000                           OVSK                                           #  SEE IF OVERFLOW PRESENT.
002876: 00,3502           13505                           TCF      +3                                    #  IF NOT, ARGUMENT OK AS IS.
002877:
002878: 00,3503           00006                           EXTEND                                         #  IF SO, WE LOST (OR GAINED) PI, SO
002879: 00,3504           40001                           DCOM                                           #  COMPLEMENT MPAC USING THE IDENTITY
002880:
002881:                                                                                                  #  SIN(X-(+)PI) = SIN(-X).
002882: 00,3505           52145                 +3        DXCH     MPAC
002883: 00,3506           30144                           CA       MPAC                                  #  SEE IF ARGUMENT GREATER THAN .5 IN
002884: 00,3507           60000                           DOUBLE                                         #  MAGNITUDE. IF SO, REDUCE IT TO LESS THAN
002885: 00,3510           54001                           TS       L                                     #  .5 (+-PI/2 SCALED) AS FOLLOWS:
002886: 00,3511           13522                           TCF      SN1
002887:
002888: 00,3512           50000                           INDEX    A                                     #  IF POSITIVE, FORM PI - X, IF NEGATIVE
002889: 00,3513           37737                           CAF      NEG1/2     +1                         #  USE -PI - X.
002890: 00,3514           60000                           DOUBLE
002891: 00,3515           00006                           EXTEND
002892: 00,3516           60144                           SU       MPAC                                  #  GUARANTEED NO OVERFLOW.
002893:
002894: 00,3517           54144                           TS       MPAC
002895: 00,3520           40145                           CS       MPAC       +1
002896: 00,3521           54145                           TS       MPAC       +1
002897:


002899: 00,3522           00006        SN1                EXTEND                                         #  SET UP TO EVALUATE HASTINGS POLYNOMIAL
002900: 00,3523           30145                           DCA      MPAC
002901: 00,3524           52124                           DXCH     BUF2
002902: 00,3525           03250                           TC       DSQSUB                                #  SQUARE MPAC.
002903:
002904: 00,3526           07265                           TC       POLY                                  #  EVALUATE FOURTH ORDER POLYNOMIAL.
002905: 00,3527           00003                           DEC      3          B-14
002906: 00,3530           14441 37325                     2DEC     +.3926990796
002907:
002908:
002909: 00,3532           53250 60764                     2DEC     -.6459637111
002910:
002911: 00,3534           12146 21276                     2DEC     +.318758717
002912:
002913: 00,3536           75466 71471                     2DEC     -.074780249
002914:
002915: 00,3540           00236 32757                     2DEC     +.009694988
002916:
002917: 00,3542           32454                           CAF      LBUF2                                 #  MULTIPLY BY ARGUMENT AND SHIFT LEFT 2.
002918:
002919: 00,3543           07151                           TC       DMPSUB     -1
002920:
002921: 00,3544           00006                           EXTEND
002922: 00,3545           30146                           DCA      MPAC       +1
002923: 00,3546           20146                           DAS      MPAC       +1
002924: 00,3547           60144                           AD       MPAC
002925: 00,3550           26144                           ADS      MPAC                                  #  NEITHER SHIFT OVERFLOWS.
002926: 00,3551           00006                           EXTEND
002927: 00,3552           30146                           DCA      MPAC       +1
002928: 00,3553           20146                           DAS      MPAC       +1
002929: 00,3554           60144                           AD       MPAC
002930: 00,3555           26144                           ADS      MPAC
002931:
002932: 00,3556           16115                           TCF      DANZIG
002933:


002935:                                                                                                  #           ARCSIN/ARCCOS ROUTINE.
002936:
002937: 00,3557           33600        ARCSIN             CAF      LASINEX                               #  COMPUTE ARCSIN BY USING THE IDENTITY
002938: 00,3560           13562                           TCF      +2                                    #  ARCSIN(X) = PI/2 - ARCCOS(X).
002939:
002940: 00,3561           33662        ARCCOS             CAF      LDANZIG                               #  (EXITS IMMEDIATELY).
002941: 00,3562           54126                           TS       ESCAPE
002942: 00,3563           06772                           TC       BRANCH                                #  TEST SIGN OF INPUT.
002943: 00,3564           13574                           TCF      ACOSST                                #  START IMMEDIATELY IF POSITIVE.
002944: 00,3565           13674                           TCF      ACOSZERO                              #  ARCCOS(0) = PI/2 = .25.
002945: 00,3566           00006                           EXTEND                                         #  IF NEGATIVE, USE THE IDENTITY
002946: 00,3567           40145                           DCS      MPAC                                  #  ARCCOS(X) = PI - ARCCOS(-X), FORCING
002947: 00,3570           52145                           DXCH     MPAC                                  #  ARGUMENT POSITIVE.
002948: 00,3571           33677                           CAF      TCSUBTR                               #  SET EXIT  TO DO ABOVE BEFORE
002949:
002950: 00,3572           56126                           XCH      ESCAPE                                #  ARCSIN/ARCCOS CONSIDERATIONS.
002951: 00,3573           54127                           TS       ESCAPE2
002952:
002953: 00,3574           47740        ACOSST             CS       HALF                                  #  TEST MAGNITUDE OF INPUT.
002954: 00,3575           60144                           AD       MPAC
002955: 00,3576           10000                           CCS      A
002956: 00,3577           13670                           TCF      ACOSOVF                               #  THIS IS PROBABLY AN OVERFLOW CASE.
002957:
002958: 00,3600           13656        LASINEX            TCF      ASINEX
002959:
002960: 00,3601           13611                           TCF      ACOSST2                               #  NO OVERFLOW - PROCEED.
002961:
002962: 00,3602           10145                           CCS      MPAC       +1                         #  IF MAJOR PART IS .5, CALL ANSWER 0
002963: 00,3603           37761                           CAF      ZERO                                  #  UNLESS MINOR PART NEGATIVE.
002964: 00,3604           13606                           TCF      ACOS=0
002965:
002966: 00,3605           13611                           TCF      ACOSST2
002967:
002968: 00,3606           54145        ACOS=0             TS       MPAC       +1
002969: 00,3607           54144                           TS       MPAC
002970: 00,3610           00126                           TC       ESCAPE
002971:
002972: 00,3611           00006        ACOSST2            EXTEND                                         #  NOW THAT ARGUMENT IS IN PROPER RANGE,
002973:
002974: 00,3612           40145                           DCS      MPAC                                  #  BEGIN COMPUTATION. USE HASTINGS
002975: 00,3613           67740                           AD       HALF                                  #  APPROXIMATION ARCCOS(X) = SQRT(1-X)P(X)
002976: 00,3614           52145                           DXCH     MPAC                                  #  IN A SCALED VERSION WHERE P(X) IS A
002977: 00,3615           52124                           DXCH     BUF2                                  #  SEVENTH ORDER POLYNOMIAL.
002978:
002979: 00,3616           03313                           TC       SQRTSUB                               #  RETURNS WITH NORMALIZED SQUARE ROOT.
002980:
002981: 00,3617           10125                           CCS      MPTEMP                                #  SEE IF UN-NORMALIZATION REQUIRED.
002982: 00,3620           13663                           TCF      ACOSSHR                               #  IF SO.
002983:


002985: 00,3621           52145        ACOS3              DXCH     MPAC                                  #  SET UP FOR POLYNOMIAL EVALUATION.
002986: 00,3622           52124                           DXCH     BUF2
002987: 00,3623           52145                           DXCH     MPAC
002988:
002989: 00,3624           07265                           TC       POLY
002990: 00,3625           00006                           DEC      6          B-14
002991:
002992: 00,3626           13240 23630                     2DEC     +.353553385                            #  COEFFICIENTS ARE C 2(+I)/PISQRT(2) WHERE
002993:
002994: 00,3630           74721 47775                     2DEC*    -.0483017006 B+1*                       #                    I
002995:
002996: 00,3632           02440 20237                     2DEC*    +.0200273085 B+2*                       #       WHERE C STANDS FOR ORIGINAL COEFFS.
002997:
002998: 00,3634           75067 70742                     2DEC*    -.0112931863 B+3*
002999:
003000: 00,3636           03436 26756                     2DEC*    +.00695311612 B+4*
003001:
003002: 00,3640           74037 57640                     2DEC*    -.00384617957 B+5*
003003:
003004:
003005: 00,3642           03046 07143                     2DEC*    +.001501297736 B+6*
003006:
003007: 00,3644           76654 42244                     2DEC*    -.000284160334 B+7*
003008:
003009: 00,3646           32454                           CAF      LBUF2                                 #  DO FINAL MULTIPLY AND GO TO ANY
003010: 00,3647           07151                           TC       DMPSUB     -1                         #  EPILOGUE SEQUENCES.
003011: 00,3650           00126                           TC       ESCAPE
003012:
003013: 00,3651           00006        SUBTR              EXTEND                                         #  EPILOGUE FOR NEGATIVE INPUTS TO ARCCOS.
003014: 00,3652           40145                           DCS      MPAC
003015:
003016: 00,3653           67740                           AD       HALF                                  #  FORMS PI - ARCCOS(-X) = ARCCOS(X).
003017: 00,3654           52145                           DXCH     MPAC
003018: 00,3655           00127                           TC       ESCAPE2                               #  GO TO POSSIBLE ARCSIN EPILOGUE.
003019:
003020: 00,3656           00006        ASINEX             EXTEND
003021: 00,3657           40145                           DCS      MPAC                                  #  ARCSIN EPILOGUE - GET ARCSIN(X)
003022: 00,3660           67741                           AD       QUARTER                               #  = PI/2 - ARCCOS(X).
003023: 00,3661           52145                           DXCH     MPAC
003024: 00,3662           16115        LDANZIG            TCF      DANZIG
003025:


003027: 00,3663           50000        ACOSSHR            INDEX    A                                     #  THE SHIFT RIGHT IS LESS THAN 14 SINCE
003028: 00,3664           37740                           CAF      BIT14                                 #  THE INPUT WAS NON-ZERO DP.
003029:
003030: 00,3665           54125                           TS       MPTEMP
003031: 00,3666           02073                           TC       VSHRRND                               #  DP SHIFT RIGHT AND ROUND.
003032: 00,3667           13621                           TCF      ACOS3                                 #  PROCEED.
003033:
003034: 00,3670           00006        ACOSOVF            EXTEND                                         #  IF MAJOR PART WAS ONLY 1 MORE THAN .5,
003035: 00,3671           13606                           BZF      ACOS=0                                #  CALL ANSWER ZERO.
003036:
003037: 00,3672           06000        ACOSABRT           TC       ABORT
003038: 00,3673           01301                           OCT      1301
003039:
003040: 00,3674           37741        ACOSZERO           CAF      QUARTER                               #  ACOS(0) = PI/2.
003041: 00,3675           13607                           TCF      ACOS=0     +1                         #  SET MPAC AND EXIT VIA ESCAPE.
003042:
003043: 00,3676           77763        NEG12              DEC      -12        B-14
003044: 00,3677           13651        TCSUBTR            TCF      SUBTR
003045:


003047:                                                                                                  #           THE FOLLOWING INSTRUCTIONS ARE AVAILABLE FOR SETTING, MODIFYING, AND BRANCHING ON INDEX REGISTERS:
003048:
003049:                                                                                                  #           1.  AXT                ADDRESS TO INDEX TRUE.
003050:                                                                                                  #           2.  AXC                ADDRESS TO INDEX COMPLEMENTED.
003051:                                                                                                  #           3.  LXA                LOAD INDEX FROM ERASABLE.
003052:                                                                                                  #           4.  LXC                LOAD INDEX COMPLEMENTED FROM ERASABLE.
003053:                                                                                                  #           5.  SXA                STORE INDEX IN ERASABLE.
003054:                                                                                                  #           6.  XCHX               EXCHANGE INDEX REIGSTER WITH ERASABLE.
003055:
003056:
003057:                                                                                                  #           7.  INCR               INCREMENT INDEX REGISTER.
003058:                                                                                                  #           8.  XAD                ERASABLE ADD TO INDEX REGISTER.
003059:                                                                                                  #           9.  XSU                ERASABLE SUBTRACT FROM INDEX REGISTER.
003060:
003061:                                                                                                  #          10.  TIX                BRANCH ON INDEX REGISTER AND DECREMENT.
003062:
003063:
003064:
003065: 01,2557                                           BANK     01
003066:
003067: 01,2557           02654        AXT                TC       TAGSUB                                #  SELECT APPROPRIATE INDEX REGISTER.
003068: 01,2560           30107                           CA       POLISH
003069: 01,2561           50120        XSTORE             INDEX    INDEXLOC                              #  CONTAINS C(FIXLOC) OR C(FIXLOC)+1.
003070: 01,2562           54046                           TS       X1
003071: 01,2563           16115                           TCF      DANZIG
003072:
003073: 01,2564           02654        AXC                TC       TAGSUB
003074: 01,2565           40107                           CS       POLISH
003075: 01,2566           02561                           TC       XSTORE
003076:
003077: 01,2567           02642        LXA                TC       15ADRERS                              #  LOAD INDEX REGISTER FROM ERASABLE.
003078: 01,2570           50107                           INDEX    POLISH
003079:
003080: 01,2571           30000                           CA       0
003081: 01,2572           12561                           TCF      XSTORE
003082:
003083: 01,2573           02642        LXC                TC       15ADRERS                              #  LOAD NDX REG FROM ERASABLE COMPLEMENTED.
003084: 01,2574           50107                           INDEX    POLISH
003085: 01,2575           40000                           CS       0
003086: 01,2576           12561                           TCF      XSTORE
003087:
003088: 01,2577           02642        SXA                TC       15ADRERS                              #  STORE INDEX REGISTER IN ERASABLE.
003089: 01,2600           50120                           INDEX    INDEXLOC
003090:
003091: 01,2601           30046                           CA       X1
003092: 01,2602           50107        MSTORE1            INDEX    POLISH
003093: 01,2603           54000                           TS       0
003094: 01,2604           16115                           TCF      DANZIG
003095:


003097: 01,2605           02642        XCHX               TC       15ADRERS                              #  EXCHANGE INDEX REGISTER WITH ERASABLE.
003098:
003099: 01,2606           50107                           INDEX    POLISH
003100: 01,2607           30000                           CA       0
003101: 01,2610           50120                           INDEX    INDEXLOC
003102: 01,2611           56046                           XCH      X1
003103: 01,2612           12602                           TCF      MSTORE1
003104:
003105: 01,2613           02642        XAD                TC       15ADRERS                              #  ADD ERASABLE TO INDEX REGISTER.
003106: 01,2614           50107                           INDEX    POLISH
003107: 01,2615           30000                           CA       0
003108: 01,2616           50120        XAD2               INDEX    INDEXLOC
003109: 01,2617           26046                           ADS      X1                                    #  IGNORING OVERFLOWS.
003110: 01,2620           16115                           TCF      DANZIG
003111:
003112:
003113: 01,2621           02654        INCR               TC       TAGSUB                                #  INCREMENT INDEX REGISTER.
003114: 01,2622           30107                           CA       POLISH
003115: 01,2623           12616                           TCF      XAD2
003116:
003117: 01,2624           02642        XSU                TC       15ADRERS                              #  SUBTRACT ERASABLE FROM INDEX REGISTER.
003118: 01,2625           50107                           INDEX    POLISH
003119: 01,2626           40000                           CS       0
003120: 01,2627           12616                           TCF      XAD2
003121:
003122:
003123:
003124: 01,2630           02654        TIX                TC       TAGSUB                                #  BRANCH AND DECREMENT ON INDEX.
003125: 01,2631           50120                           INDEX    INDEXLOC
003126: 01,2632           40050                           CS       S1
003127: 01,2633           50120                           INDEX    INDEXLOC
003128: 01,2634           60046                           AD       X1
003129: 01,2635           00006                           EXTEND                                         #  NO OPERATION IF DECREMENTED INDEX IS
003130: 01,2636           66115                           BZMF     DANZIG                                #  NEGATIVE OR ZERO.
003131:
003132: 01,2637           50120        DOTIXBR            INDEX    INDEXLOC
003133: 01,2640           56046                           XCH      X1                                    #  IGNORING OVERFLOWS.
003134:
003135:
003136: 01,2641           16715                           TCF      GOTO                                  #  DO THE BRANCH USING THE CADR IN POLISH.
003137:


003139:                                                                                                  #           SUBROUTINE TO CONVERT AN ERASABLE ADDRESS (11 BITS) TO AN EBANK SETTING AND SUBADDRESS.
003140:
003141: 01,2642           40107        15ADRERS           CS       POLISH
003142: 01,2643           65371                           AD       DEC45
003143: 01,2644           10000                           CCS      A                                     #  DOES THE ADDRESS POINT TO THE WORK AREA?
003144: 01,2645           30110                           CA       FIXLOC                                #  YES.  ADD FIXLOC.  EBANK OK AS IS.
003145:
003146: 01,2646           12653                           TCF      +5
003147:
003148: 01,2647           35370                           CA       OCT1400                               #  NO.  SET EBANK & MAKE UP SUBADDRESS.
003149: 01,2650           56107                           XCH      POLISH
003150: 01,2651           54003                           TS       EBANK
003151: 01,2652           74553                           MASK     LOW8
003152: 01,2653           26107                 +5        ADS      POLISH                                #  FALL INTO TAGSUB, AND RETURN VIA Q.
003153:
003154:                                                                                                  #           SUBROUTINE WHICH SETS THE ADDRESS OF THE SPECIFIED INDEX IN INDEXLOC. (ACTUALLY, THE ADDRESS -38D.)
003155:
003156: 01,2654           30110        TAGSUB             CA       FIXLOC
003157: 01,2655           54120                           TS       INDEXLOC
003158:
003159:
003160: 01,2656           10020                           CCS      CYR                                   #  BIT 15 SPECIFIES INDEX.
003161: 01,2657           24120                           INCR     INDEXLOC                              #  0 MEANS USE X2.
003162: 01,2660           00002                           TC       Q
003163: 01,2661           00002                           TC       Q                                     #  1 FOR X1.
003164:


003166:                                                                                                  #           MISCELLANEOUS OPERATION CODES WITH DIRECT ADDRESSES. INCLUDED HERE ARE:
003167:
003168:
003169:                                                                                                  #           1.  ITA                STORE QPRET (RETURN ADDRESS) IN ERASABLE.
003170:                                                                                                  #           2.  CALL               CALL A SUBROUTINE, LEAVING RETURN IN QPRET.
003171:                                                                                                  #           3.  RTB                RETURN TO BASIC LANGUAGE AT THE GIVEN ADDRESS.
003172:                                                                                                  #           4.  BHIZ               BRANCH IF THE HIGH ORDER OF MPAC IS ZERO (SINGLE PRECISION).
003173:                                                                                                  #           5.  BOV                BRANCH ON OVERFLOW.
003174:                                                                                                  #           6.  GOTO               SIMPLE SEQUENCE CHANGE.
003175:
003176: 01,2662           10020        RTB/BHIZ           CCS      CYR
003177: 01,2663           30107        RTB                CA       POLISH
003178: 01,2664           15246                           TCF      BANKJUMP                              #  CALL BASIC ROUTINE.
003179:
003180:
003181: 01,2665           10144        BHIZ               CCS      MPAC
003182: 01,2666           16115                           TCF      DANZIG
003183: 01,2667           16715                           TCF      GOTO
003184: 01,2670           16115                           TCF      DANZIG
003185: 01,2671           16715                           TCF      GOTO
003186:
003187: 01,2672           10111        BOV(B)             CCS      OVFIND                                #  BRANCH ON OVERFLOW TO BASIC OR INTERP.
003188: 01,2673           12675                           TCF      +2
003189: 01,2674           16115                           TCF      DANZIG
003190: 01,2675           54111                           TS       OVFIND
003191: 01,2676           10020                           CCS      CYR
003192:
003193: 01,2677           12663                           TCF      RTB                                   #  IF BASIC.
003194: 01,2700           00360        B5TOBB             OCT      360
003195: 01,2701           16715                           TCF      GOTO
003196:


003198: 01,2702           10020        BZE/GOTO           CCS      CYR                                   #  SEE WHICH OP-CODE IS DESIRED.
003199: 01,2703           06772                           TC       BRANCH                                #  DO BZE.
003200: 01,2704           16115                           TCF      DANZIG
003201: 01,2705           16715                           TCF      GOTO                                  #  DO GOTO.
003202: 01,2706           16115                           TCF      DANZIG
003203:
003204: 01,2707           10020        BPL/BMN            CCS      CYR
003205: 01,2710           12716                           TCF      BPL
003206:
003207: 01,2711           12000        5B10               DEC      5          B+10                       #  SHIFTS OP CODE IN SWITCH INSTRUCTION ADR
003208:
003209: 01,2712           06772                           TC       BRANCH                                #  DO BMN.
003210: 01,2713           16115                           TCF      DANZIG
003211: 01,2714           16115                           TCF      DANZIG
003212: 01,2715           16715                           TCF      GOTO                                  #  ONLY IF NNZ.
003213:
003214: 01,2716           06772        BPL                TC       BRANCH
003215: 01,2717           16715                           TCF      GOTO                                  #  IF POSITIVE OR ZERO.
003216: 01,2720           16715                           TCF      GOTO
003217: 01,2721           16115                           TCF      DANZIG
003218:
003219: 01,2722           10020        CALL/ITA           CCS      CYR
003220: 01,2723           16707                           TCF      CALL
003221:
003222: 01,2724           04725                           TC       CCSHOLE
003223: 01,2725           02642                           TC       15ADRERS                              #  STORE QPRET. (TAGSUB AFTER 15ADRERS IS
003224: 01,2726           50110                           INDEX    FIXLOC                                #  SLOW IN THIS CASE, BUT SAVES STORAGE.)
003225: 01,2727           30052                           CA       QPRET
003226: 01,2730           12602                           TCF      MSTORE1
003227:


003229:                                                                                                  #           THE FOLLOWING OPERATIONS ARE AVAILABLE FOR ALTERING AND TESTING INTERPRETIVE SWITCHES:
003230:
003231:                                                                                                  #  00       BONSET                 SET A SWITCH AND DO A GOTO IF IT WAS ON.
003232:                                                                                                  #  01       SETGO                  SET A SWITCH AND DO A GOTO.
003233:                                                                                                  #  02       BOFSET                 SET A SWITCH AND DO A GOTO IF IT WAS OFF
003234:                                                                                                  #  03       SET                    SET A SWITCH.
003235:
003236:                                                                                                  #  04       BONINV                 INVERT A SWITCH AND BRANCH IF IT WAS ON.
003237:                                                                                                  #  05       INVGO                  INVERT A SWITCH AND DO A GOTO.
003238:                                                                                                  #  06       BOFINV                 INVERT A SWITCH AND BRANCH IF IT WAS OFF
003239:                                                                                                  #  07       INVERT                 INVERT A SWITCH.
003240:
003241:                                                                                                  #  10       BONCLR                 CLEAR A SWITCH AND BRANCH IF IT WAS ON.
003242:                                                                                                  #  11       CLRGO                  CLEAR A SWITCH AND DO A GOTO.
003243:
003244:                                                                                                  #  12       BOFCLR                 CLEAR A SWITCH AND BRANCH IF IT WAS OFF.
003245:                                                                                                  #  13       CLEAR                  CLEAR A SWITCH.
003246:
003247:                                                                                                  #  14       BON                    BRANCH IF A SWITCH WAS ON.
003248:                                                                                                  #  16       BOFF                   BRANCH IF A SWITCH WAS OFF.
003249:
003250:
003251:
003252:                                                                                                  #           THE ADDRESS SUPPLIED WITH THE SWITCH INSTRUCTION IS INTERPRETED AS FOLLOWS:
003253:
003254:                                                                                                  #           BITS 1-4    SWITCH BIT NUMBER (1-15).
003255:                                                                                                  #           BITS 5-8    SWITCH OPERATION NUMBER.
003256:                                                                                                  #           BITS 9-     SWITCH WORD NUMBER (UP TO 64 SWITCH WORDS).
003257:
003258:                                                                                                  #           THE ADDRESS ITSELF IS MADE UP BY THE YUL SYSTEM ASSEMBLER. THE BRANCH INSTRUCTIONS REQUIRE TWO
003259:                                                                                                  #  ADDRESSES, THE SECOND TAKEN AS THE DIRECT (OR INDIRECT IF IN ERASABLE) ADDRESS OF THE BRANCH.
003260:
003261:
003262:
003263: 01,2731           35361        SWITCHES           CAF      LOW4                                  #  LEAVE THE SWITCH BIT IN SWBIT  .
003264: 01,2732           70107                           MASK     POLISH
003265: 01,2733           50000                           INDEX    A
003266: 01,2734           37737                           CAF      BIT15                                 #  (NUMBER FROM LEFT TO RIGHT.)
003267:
003268: 01,2735           54121                           TS       SWBIT
003269:
003270: 01,2736           37747                           CAF      BIT7                                  #  LEAVE THE SWITCH NUMBER IN SWWORD.
003271: 01,2737           00006                           EXTEND
003272: 01,2740           70107                           MP       POLISH
003273: 01,2741           54120                           TS       SWWORD
003274:
003275: 01,2742           00004                           INHINT                                         #  DURING SWITCH CHANGE SO RUPT CAN USE TOO
003276: 01,2743           50000                           INDEX    A                                     #  LEAVE THE SWITCH WORD ITSELF IN L.
003277: 01,2744           30074                           CA       STATE
003278:
003279: 01,2745           54002                           TS       Q                                     #  Q WILL BE USED AS A CHANNEL.


003281: 01,2746           37743                           CAF      BIT11
003282: 01,2747           00006                           EXTEND                                         #  DISPATCH SWITCH BIT OPERATION AS IN BITS
003283: 01,2750           70107                           MP       POLISH                                #  7-8 OF POLISH.
003284: 01,2751           73011                           MASK     B3TOB4                                #  GETS 4X2-BIT CODE.
003285: 01,2752           50000                           INDEX    A
003286: 01,2753           12754                           TCF      +1
003287:
003288:
003289: 01,2754           30121                 +1        CA       SWBIT                                 #  00 - SET SWITCH IN QUESTION.
003290: 01,2755           00006                           EXTEND
003291: 01,2756           04002                           ROR      Q
003292: 01,2757           12766                           TCF      SWSTORE
003293:
003294: 01,2760           30121                 +5        CA       SWBIT                                 #  01 - INVERT SWITCH.
003295: 01,2761           00006                           EXTEND
003296: 01,2762           06002                           RXOR     Q
003297: 01,2763           12766                           TCF      SWSTORE
003298:
003299: 01,2764           40121                 +9D       CS       SWBIT                                 #  10 - CLEAR.
003300:
003301: 01,2765           70002                           MASK     Q
003302: 01,2766           50120        SWSTORE            INDEX    SWWORD
003303: 01,2767           54074                           TS       STATE                                 #  NEW SWITCH WORD.
003304:


003306: 01,2770           00003                 +13D      RELINT                                         #  11 - NOOP.
003307: 01,2771           37741                           CAF      BIT13
003308:
003309: 01,2772           00006                           EXTEND                                         #  DISPATCH SEQUCE CHANGING OR BRANCHING
003310: 01,2773           70107                           MP       POLISH                                #  CODE.
003311: 01,2774           73011                           MASK     B3TOB4
003312: 01,2775           50000                           INDEX    A
003313: 01,2776           12777                           TCF      +1                                    #  ORIGINALLY STORED IN BITS 5-6.
003314:
003315: 01,2777           40002                 +1        CS       Q                                     #  00 - BRANCH IF ON.
003316: 01,3000           70121        TEST               MASK     SWBIT
003317: 01,3001           10000                           CCS      A
003318: 01,3002           13012                           TCF      SWSKIP
003319:
003320: 01,3003           16764                 +5        TCF      SWBRANCH                              #  01 - GO TO.
003321:
003322: 01,3004           13012                           TCF      SWSKIP                                #  HERE ONLY ON BIT 15.
003323:
003324: 01,3005           04725                           TC       CCSHOLE
003325: 01,3006           04725                           TC       CCSHOLE
003326:
003327: 01,3007           30002                 +9D       CA       Q                                     #  10 - BRANCH IF OFF.
003328: 01,3010           13000                           TCF      TEST
003329:
003330: 01,3011           00014        B3TOB4             OCT      14
003331:
003332:
003333: 01,3012           24154        SWSKIP             INCR     LOC
003334:
003335: 01,3013  01,2731               SW/                EQUALS   SWITCHES
003336:
003337: 01,3013           16115                 +13D      TCF      DANZIG                                #  11 - NOOP.

End of include-file INTERPRETER.agc.  Parent file is MAIN.agc


