
Source Code


000002:                                                                                                  ## Copyright:   Public domain.
000003:                                                                                                  ## Filename:    INTERPRETER.agc
000004:                                                                                                  ## Purpose:     A section of Sunburst revision 37, or Shepatin revision 0.
000005:                                                                                                  ##              It is part of an early development version of the software
000006:                                                                                                  ##              for Apollo Guidance Computer (AGC) on the unmanned Lunar
000007:                                                                                                  ##              Module (LM) flight Apollo 5. Sunburst 37 was the program
000008:                                                                                                  ##              upon which Don Eyles's offline development program Shepatin
000009:                                                                                                  ##              was based; the listing herein transcribed was actually for
000010:                                                                                                  ##              the equivalent revision 0 of Shepatin.
000011:                                                                                                  ##              This file is intended to be a faithful transcription, except
000012:                                                                                                  ##              that the code format has been changed to conform to the
000013:                                                                                                  ##              requirements of the yaYUL assembler rather than the
000014:                                                                                                  ##              original YUL assembler.
000015:                                                                                                  ## Reference:   pp. 893-984
000016:                                                                                                  ## Assembler:   yaYUL
000017:                                                                                                  ## Contact:     Ron Burkey <info@sandroid.org>.
000018:                                                                                                  ## Website:     www.ibiblio.org/apollo/index.html
000019:                                                                                                  ## Mod history: 2017-05-24 MAS  Created from Sunburst 120.
000020:                                                                                                  ##              2017-06-12 MAS  Began updating for Sunburst 37.
000021:                                                                                                  ##              2017-06-13 MAS  Completed updates for Sunburst 37.
000022:                                                                                                  ##              2017-06-15 HG   Fix opcode TC  -> TCF
000023:                                                                                                  ##              2017-06-23 RSB  Proofed comment text with
000024:                                                                                                  ##                              octopus/ProoferComments.
000025:                                                                                                  ##              2021-05-30 ABS  B5TOBB -> B5TOB8
000026:


000028:                                                                                                  #  SECTION 1  DISPATCHER
000029:
000030:                                                                                                  #           ENTRY TO THE INTERPRETER. INTPRET SETS LOC TO THE FIRST  INSTRUCTION, BANKSET TO THE BBANK OF THE
000031:                                                                                                  #  OBJECT INTERPRETIVE PROGRAM, AND INTBIT15 TO THE BIT15 CONTENTS OF FBANK. INTERPRETIVE PROGRAMS MAY BE IN
000032:                                                                                                  #  VIRTUALLY ALL BANKS PRESENT UNDER ANY SUPER-BANK SETTING, WITH THE RESTRICTION THAT PROGRAMS IN HIGH BANKS
000033:                                                                                                  #  (BIT15 OF FBANK = 1) DO NOT REFER TO LOWBANKS, AND VICE-VERSA. THE INTERPRETER DOES NOT SWITCH SUPERBANKS.
000034:                                                                                                  #  E-BANK SWITCHING OCCURS WHENEVER GENERAL ERASABLE (100 - 3777) IS ADDRESSED.
000035:
000036:
000037:
000038:    6103                                           BLOCK    03
000039:
000040:    6103           00006        INTPRET            EXTEND                                         #  SET LOC TO THE WORD FOLLOWING THE TC.
000041:    6104           22154                           QXCH     LOC
000042:
000043:    6105           30006                 +2        CA       BBANK                                 #  INTERPRETIVE BRANCHES FINISH HERE.
000044:    6106           54155                           TS       BANKSET
000045:    6107           77737                           MASK     BIT15                                 #  GET 15TH BIT FOR INDEXABLE ADDRESSES.
000046:    6110           54105                           TS       INTBIT15
000047:
000048:
000049:    6111           16124                           TCF      NEWOPS                                #  PICK UP OP CODE PAIR AND BEGIN.
000050:
000051:
000052:
000053:    6112           22006        INTRSM             LXCH     BBANK                                 #  RESUME SUSPENDED INTERPRETIVE JOB
000054:    6113           16105                           TCF      INTPRET    +2
000055:


000057:                                                                                                  #           AT THE END OF MOST INSTRUCTIONS, CONTROL IS GIVEN TO DANZIG TO DISPATCH THE NEXT OPERATION.
000058:
000059:    6114           54153        NEWMODE            TS       MODE                                  #  PROLOGUE FOR MODE-CHANGING INSTRUCTIONS.
000060:
000061:    6115           30155        DANZIG             CA       BANKSET                               #  SET BBANK BEFORE TESTING NEWJOB SO THAT
000062:    6116           54006                           TS       BBANK                                 #  IT MAY BE SAVED DIRECTLY BY CHANJOB.
000063:
000064:    6117           10023        NOIBNKSW           CCS      EDOP                                  #  SEE IF AN ORDER CODE IS LEFT OVER FROM
000065:    6120           16133                           TCF      OPJUMP                                #  THE LAST PAIR RETRIEVED. IF SO, EXECUTE.
000066:                                                                                                  #  EDOP IS SET TO ZERO ON ITS RE-EDITING.
000067:
000068:    6121           10067                           CCS      NEWJOB                                #  SEE IF A JOB OF HIGHER PRIORITY IS
000069:    6122           15556                           TCF      CHANG2                                #  PRESENT, AND IF SO, CHANGE JOBS.
000070:
000071:
000072:    6123           24154                           INCR     LOC                                   #  ADVANCE THE LOCATION COUNTER.
000073:                                                                                                  #           ITRACE (1) REFERS TO "NEWOPS".
000074:    6124           50154        NEWOPS             INDEX    LOC                                   #  ENTRY TO BEGIN BY PICKING OP CODE PAIR.
000075:    6125           30000                           CA       0                                     #  MAY BE AN OPCODE PAIR OR A STORE CODE.
000076:    6126           10000                           CCS      A                                     #  TEST SIGN AND GET DABS(A).
000077:    6127           16421                           TCF      DOSTORE                               #  PROCESS STORE CODE.
000078:
000079:    6130           00177        LOW7               OCT      177
000080:
000081:    6131           54023                           TS       EDOP                                  #  OP CODE PAIR. LEAVE THE OTHER IN EDOP
000082:
000083:    6132           76130                           MASK     LOW7                                  #  WHERE  CCS EDOP  WILL HONOR IT NEXT.
000084:
000085:    6133           54020        OPJUMP             TS       CYR                                   #  LOWWD ENTERS HERE IF A RIGHT-HAND OP
000086:    6134           10020                           CCS      CYR                                   #  CODE IS TO BE PROCESSED. TEST PREFICES.
000087:    6135           16303                           TCF      OPJUMP2                               #  TEST SECOND PREFIX BIT.
000088:
000089:    6136           17012                           TCF      EXIT                                  #  +0 OP CODE IS EXIT.
000090:


000092:                                                                                                  #           PROCESS ADDRESSES WHICH MAY BE DIRECT, INDEXED, OR REFERENCE THE PUSHDOWN LIST.
000093:
000094:    6137           77755        ADDRESS            MASK     BIT1                                  #  SEE IF ADDRESS IS INDEXED. CYR CONTAINED
000095:    6140           10000                           CCS      A                                     #  400XX, SO BIT 1 IS NOW AS IT WAS IN CYR.
000096:    6141           16202                           TCF      INDEX                                 #  FORM INDEXED ADDRESS.
000097:
000098:
000099:    6142           50154        DIRADRES           INDEX    LOC                                   #  LOOK AHEAD TO NEXT WORD TO SEE IF
000100:    6143           40001        OCT40001           CS       1                                     #  ADDRESS IS GIVEN.
000101:    6144           10000                           CCS      A
000102:    6145           16251                           TCF      PUSHUP                                #  IF NOT.
000103:
000104:    6146           77773        NEG4               DEC      -4         B-14
000105:
000106:    6147           24154                           INCR     LOC                                   #  IF SO, TO SHOW WE PICKED UP A WORD.
000107:    6150           54106                           TS       ADDRWD
000108:


000110:                                                                                                  #           FINAL DIGESTION OF DIRECT ADDRESSES OF OP CODES WITH 01 PREFIX IS DONE HERE. IN EACH CASE, THE
000111:                                                                                                  #  REQUIRED 12-BIT SUB-ADDRESS IS LEFT IN ADDRWD, WITH ANY REQUIRED E OR F BANK SWITCHING DONE. ADDRESSES LESS
000112:
000113:                                                                                                  #  THAN 45D ARE TAKEN TO BE RELATIVE TO THE WORK AREA. THE OP CODE IS NOW IN BITS 1-5 OF CYR WITH BIT 14 = 1.
000114:
000115:
000116:    6151           66305                           AD       -ENDVAC                               #  SEE IF ADDRESS RELATIVE TO WORK AREA.
000117:    6152           10000                           CCS      A
000118:    6153           66332                           AD       -ENDERAS                              #  IF NOT, SEE IF IN GENERAL ERASABLE.
000119:    6154           16161                           TCF      IERASTST
000120:
000121:    6155           30110        NETZERO            CA       FIXLOC                                #  IF SO, LEAVE THE MODIFIED ADDRESS IN
000122:
000123:    6156           26106                           ADS      ADDRWD                                #  ADDRWD AND DISPATCH.
000124:    6157           50020        ITR15              INDEX    CYR                                   #  THIS INDEX MAKES THE NEXT INSTRUCTION
000125:    6160           76332                           7        INDJUMP    -1                         #  TCF INDJUMP + OP, EDITING CYR.
000126:
000127:    6161           00006        IERASTST           EXTEND
000128:    6162           66172                           BZMF     GEADDR                                #  GO PROCESS GENERAL-ERASABLE ADDRESS.
000129:
000130:    6163           75356                           MASK     LOW10                                 #  FIXED BANK ADDRESS. RESTORE AND ADD B15.
000131:    6164           65356                           AD       LOW10                                 #  SWITCH BANKS AND LEAVE SUBADDRESS IN
000132:    6165           56106                           XCH      ADDRWD                                #  ADDRWD FOR OPERAND RETRIEVAL. (THIS
000133:    6166           60105                           AD       INTBIT15                              #  METHOD PRECLUDES USE OF THE LAST
000134:    6167           54004                           TS       FBANK                                 #  LOCATION IN EACH FBANK.)
000135:
000136:    6170           50020        ITR12              INDEX    CYR
000137:    6171           76332                           7        INDJUMP    -1
000138:
000139:    6172           74553        GEADDR             MASK     LOW8
000140:    6173           65370                           AD       OCT1400
000141:    6174           56106                           XCH      ADDRWD
000142:    6175           54003                           TS       EBANK
000143:    6176           50020        ITR10              INDEX    CYR
000144:    6177           76332                           7        INDJUMP    -1
000145:


000147:                                                                                                  #           THE FOLLOWING ROUTINE PROCESSES INTERPRETIVE INDEXED ADDRESSES. AN INTERPRETER INDEX REGISTER MAY
000148:                                                                                                  #  CONTAIN THE ADDRESS OF ANY ERASABLE REGISTER (0-42 BEING RELATIVE TO THE VAC AREA) OR ANY INTERPRETIVE PROGRAM
000149:                                                                                                  #  BANK, OR ANY INTEGER IN THAT RANGE.
000150:
000151:    6200           35364        DODLOAD*           CAF      DLOAD*                                #  STODL* COMES HERE TO PROCESS LOAD ADR.
000152:    6201           54020                           TS       CYR                                   #  (STOVL* ENTERS HERE).
000153:
000154:    6202           30110        INDEX              CA       FIXLOC                                #  SET UP INDEX LOCATION.
000155:
000156:    6203           54120                           TS       INDEXLOC
000157:    6204           24154                           INCR     LOC                                   #  (ADDRESS ALWAYS GIVEN).
000158:    6205           50154                           INDEX    LOC
000159:    6206           40000                           CS       0
000160:    6207           10000                           CCS      A                                     #  INDEX 2 IF ADDRESS STORED COMPLEMENTED.
000161:    6210           24120                           INCR     INDEXLOC
000162:    6211           16212                           NOOP
000163:
000164:    6212           54106                           TS       ADDRWD                                #  14 BIT ADDRESS TO ADDRWD.
000165:    6213           75367                           MASK     HIGH4                                 #  IF ADDRESS GREATER THAN 2K, ADD INTBIT15
000166:
000167:    6214           00006                           EXTEND
000168:    6215           16220                           BZF      INDEX2
000169:    6216           30105                           CA       INTBIT15
000170:    6217           26106                           ADS      ADDRWD
000171:
000172:    6220           50120        INDEX2             INDEX    INDEXLOC
000173:    6221           40046                           CS       X1
000174:    6222           26106                           ADS      ADDRWD                                #  DO AUGMENT, IGNORING AND CORRECTING OVF.
000175:
000176:    6223           76330                           MASK     HIGH9                                 #  SEE IF ADDRESS IS IN WORK AREA.
000177:    6224           00006                           EXTEND
000178:    6225           16240                           BZF      INDWORK
000179:
000180:    6226           75367                           MASK     HIGH4                                 #  SEE IF IN FIXED BANK.
000181:    6227           00006                           EXTEND
000182:    6230           16242                           BZF      INDERASE
000183:
000184:    6231           30106                           CA       ADDRWD                                #  IN FIXED - SWITCH BANKS AND CREATE
000185:    6232           54004                           TS       FBANK                                 #  SUB-ADDRESS.
000186:    6233           75356                           MASK     LOW10
000187:    6234           67743                           AD       2K
000188:    6235           54106                           TS       ADDRWD
000189:    6236           50020        ITR11              INDEX    CYR
000190:
000191:    6237           36332                           3        INDJUMP    -1
000192:
000193:    6240           30110        INDWORK            CA       FIXLOC                                #  MAKE ADDRWD RELATIVE TO WORK AREA.
000194:    6241           16246                           TCF      ITR13      -1
000195:
000196:    6242           35370        INDERASE           CA       OCT1400
000197:    6243           56106                           XCH      ADDRWD
000198:    6244           54003                           TS       EBANK
000199:    6245           74553                           MASK     LOW8
000200:    6246           26106                 -1        ADS      ADDRWD


000202:    6247           50020        ITR13              INDEX    CYR
000203:
000204:    6250           36332                           3        INDJUMP    -1
000205:


000207:                                                                                                  #           PUSH-UP ROUTINES. WHEN NO OPERAND ADDRESS IS GIVEN, THE APPROPRIATE OPERAND IS TAKEN FROM THE PUSH-DOWN
000208:                                                                                                  #  LIST. IN MOST CASES THE MODE OF THE RESULT (VECTOR OR SCALAR) OF THE LAST ARITHMETIC OPERATION PERFORMED
000209:                                                                                                  #  IS THE SAME AS THE TYPE OF OPERAND DESIRED (ALL ADD/SUBTRACT ETC.). EXCEPTIONS TO THIS GENERAL RULE ARE LISTED
000210:                                                                                                  #  BELOW (NOTE THAT IN EVERY CASE THE MODE REGISTER IS LEFT INTACT):
000211:
000212:                                                                                                  #           1.  VXSC AND V/SC WANT THE OPPOSITE TYPE OF OPERAND, E.G., IF THE LAST OPERATION YIELDED A VECTOR
000213:
000214:                                                                                                  #  RESULT, VXSC WANTS A SCALAR.
000215:
000216:                                                                                                  #           2.  THE LOAD CODES SHOULD LOAD THE ACCUMULATOR INDEPENDENT OF THE RESULT OF THE LAST OPERATION. THIS
000217:                                                                                                  #  INCLUDES VLOAD, DLOAD, TLOAD, PDDL, AND PDVL (NO PUSHUP WITH SLOAD).
000218:
000219:                                                                                                  #           3.  SOME ARITHMETIC OPERATIONS REQUIRE A STANDARD TYPE OF OPERAND REGARDLESS OF THE PREVIOUS OPERATION.
000220:                                                                                                  #  THIS INCLUDES SIGN WANTING DP AND TAD REQUIRING TP.
000221:
000222:    6251           34554        PUSHUP             CAF      OCT23                                 #  IF THE LOW 5 BITS OF CYR ARE LESS THAN
000223:    6252           70020                           MASK     CYR                                   #  20, THIS OP REQUIRES SPECIAL ATTENTION.
000224:    6253           66256                           AD       -OCT10                                #  (NO -0).
000225:    6254           10000                           CCS      A
000226:
000227:    6255           16267                           TCF      REGUP                                 #  FOR ALL CODES GREATER THAN OCT 7.
000228:
000229:    6256           77767        -OCT10             OCT      -10
000230:
000231:    6257           66146                           AD       NEG4                                  #  WE NOW HAVE 7 - OP CODE(MOD4). SEE IF
000232:    6260           10000                           CCS      A                                     #  THE OP CODE (MOD4) IS THREE (REVERSE).
000233:    6261           50000                           INDEX    A                                     #  NO - THE MODE IS DEFINITE. PICK UP THE
000234:    6262           46300                           CS       NO.WDS
000235:    6263           16271                           TCF      REGUP      +2
000236:
000237:
000238:    6264           50153                           INDEX    MODE                                  #  FOR VXSC AND V/SC WE WANT THE REQUIRED
000239:    6265           46276                           CS       REVCNT                                #  PUSHLOC DECREMENT WITHOUT CHANGING THE
000240:    6266           16271                           TCF      REGUP      +2                         #  MODE AT THIS TIME.
000241:
000242:    6267           50153        REGUP              INDEX    MODE                                  #  MOST ALL OP CODES PUSHUP HERE.
000243:    6270           46300                           CS       NO.WDS
000244:    6271           26156                 +2        ADS      PUSHLOC
000245:    6272           54106                           TS       ADDRWD
000246:    6273           50020        ITR14              INDEX    CYR
000247:    6274           76332                           7        INDJUMP    -1                         #  (THE INDEX MAKES THIS A TCF.)
000248:
000249:    6275           00002                           OCT      2                                     #  REVERSE PUSHUP DECREMENT. VECTOR TAKES 2
000250:
000251:    6276           00006        REVCNT             OCT      6                                     #  WORDS, SCALAR TAKES 6.
000252:    6277           00006                           OCT      6
000253:    6300           00002        NO.WDS             OCT      2                                     #  CONVENTIONAL DECREMENT IS 6 WORDS VECTOR
000254:    6301           00003        OCTAL3             OCT      3                                     #  2 IN DP, AND 3 IN TP.
000255:    6302           00006                           OCT      6
000256:


000258:                                                                                                  #            TEST THE SECOND PREFIX BIT TO SEE IF THIS IS A MISCELLANEOUS OR A UNARY/SHORT SHIFT OPERATION.
000259:
000260:    6303           10020        OPJUMP2            CCS      CYR                                   #  TEST SECOND PREFIX BIT.
000261:    6304           16317                           TCF      OPJUMP3                               #  TEST THIRD BIT TO SEE IF UNARY OR SHIFT.
000262:
000263:    6305           77722        -ENDVAC            DEC      -45        B-14
000264:
000265:                                                                                                  #           THE FOLLOWING ROUTINE PROCESSES ADDRESSES OF SUFFIX CLASS 10. THEY ARE BASICALLY WORK AREA ADDRESSES
000266:                                                                                                  #  IN THE RANGE 0 - 52, ERASABLE ECADR CONSTANTS FROM 100 - 3777, AND FCADRS ABOVE THAT. ALL 15 BITS ARE AVAILABLE
000267:                                                                                                  #  IN CONTRAST TO SUFFIX 1, IN WHICH ONLY THE LOW ORDER 14 ARE AVAILABLE.
000268:
000269:    6306           24154        15BITADR           INCR     LOC                                   #  (ENTRY HERE FROM STCALL).
000270:
000271:    6307           50154                           INDEX    LOC                                   #  PICK UP ADDRESS WORD.
000272:    6310           30000                           CA       0
000273:    6311           54107                           TS       POLISH                                #  WE MAY NEED A SUBADDRESS LATER.
000274:
000275:    6312           36327                           CAF      LOW7+2K                               #  THESE INSTRUCTIONS ARE IN BANK 1.
000276:    6313           54004                           TS       FBANK
000277:    6314           70020                           MASK     CYR
000278:    6315           50000        ITR7               INDEX    A
000279:    6316           16373                           TCF      MISCJUMP
000280:


000282:                                                                                                  #           COMPLETE THE DISPATCHING OF UNARY AND SHORT SHIFT OPERATIONS.
000283:
000284:    6317           54004        OPJUMP3            TS       FBANK                                 #  CALL IN BANK 0 (BIT5 11-15 OF A ARE 0.)
000285:                                                                                                  #           ITRACE (6) REFERS TO "OPJUMP3".
000286:    6320           10020                           CCS      CYR                                   #  TEST THIRD PREFIX BIT.
000287:    6321           50000                           INDEX    A                                     #  THE DECREMENTED UNARY CODE IS IN BITS
000288:    6322           12000                           TCF      UNAJUMP                               #  1-4 OF A (ZERO, EXIT, HAS BEEN DETECTED)
000289:
000290:
000291:    6323           10153                           CCS      MODE                                  #  ITS A SHORT SHIFT CODE. SEE IF PRESENT
000292:    6324           12017                           TCF      SHORTT                                #  SCALAR OR VECTOR.
000293:    6325           12017                           TCF      SHORTT
000294:    6326           12121                           TCF      SHORTV                                #  CALLS THE APPROPRIATE ROUTINE.
000295:
000296:
000297:
000298:    6327     4554               OCT23              =        VD1
000299:    6327           02177        LOW7+2K            OCT      2177                                  #  OP CODE MASK + BANK 1 FBANK SETTING.
000300:    6330           77700        HIGH9              OCT      77700
000301:
000302:    6331           76000        BANKMASK           OCT      76000                                 #  FBANK MASK.
000303:    6332     6331               FBANKMSK           EQUALS   BANKMASK
000304:    6332     5673               B12T14             =        PRIO34                                #  USED IN PROCESSING STORE CODES.
000305:    6332           74056        -ENDERAS           DEC      -2001      B-14                       #  = -(2047 - 45 - 1)
000306:


000308:                                                                                                  #           THE FOLLOWING IS THE JUMP TABLE FOR OP CODES WHICH MAY HAVE INDEXABLE ADDRESSES OR MAY PUSH UP.
000309:
000310:    6333           16554        INDJUMP            TCF      VLOAD                                 #  00 - LOAD MPAC WITH A VECTOR.
000311:    6334           17133                           TCF      TAD                                   #  01 - TRIPLE PRECISION ADD TO MPAC.
000312:    6335           17701                           TCF      SIGN                                  #  02 - COMPLEMENT MPAC (V OR SC) IF X NEG.
000313:    6336           17452                           TCF      VXSC                                  #  03 - VECTOR TIMES SCALAR.
000314:    6337           16752                           TCF      CGOTO                                 #  04 - COMPUTED GO TO.
000315:    6340           16537                           TCF      TLOAD                                 #  05 - LOAD MPAC WITH TRIPLE PRECISION.
000316:    6341           16530                           TCF      DLOAD                                 #  06 - LOAD MPAC WITH A DP SCALAR.
000317:    6342           17650                           TCF      V/SC                                  #  07 - VECTOR DIVIDED BY SCALAR.
000318:
000319:    6343           16550                           TCF      SLOAD                                 #  10 - LOAD MPAC IN SINGLE PRECISION.
000320:    6344           16667                           TCF      SSP                                   #  11 - SET SINGLE PRECISION INTO X.
000321:
000322:    6345           16572                           TCF      PDDL                                  #  12 - PUSH DOWN MPAC AND RE-LOAD IN DP.
000323:    6346           17405                           TCF      MXV                                   #  13 - MATRIX POST-MULTIPLIED BY VECTOR.
000324:    6347           16626                           TCF      PDVL                                  #  14 - PUSH DOWN AND VECTOR LOAD.
000325:    6350           16675                           TCF      CCALL                                 #  15 - COMPUTED CALL.
000326:    6351           17410                           TCF      VXM                                   #  16 - MATRIX PRE-MULTIPLIED BY VECTOR.
000327:    6352           17642                           TCF      TSLC                                  #  17 - NORMALIZE MPAC (SCALAR ONLY).
000328:
000329:    6353           17620                           TCF      DMPR                                  #  20 - DP MULTIPLY AND ROUND.
000330:    6354           17623                           TCF      DDV                                   #  21 - DP DIVIDE BY.
000331:    6355           17627                           TCF      BDDV                                  #  22 - DP DIVIDE INTO.
000332:
000333:    6356           17645                           TCF      GSHIFT                                #  23 - GENERAL SHIFT INSTRUCTION.
000334:    6357           17016                           TCF      VAD                                   #  24 - VECTOR ADD.
000335:    6360           17044                           TCF      VSU                                   #  25 - VECTOR SUBTRACT.
000336:    6361           17074                           TCF      BVSU                                  #  26 - VECTOR SUBTRACT FROM.
000337:    6362           17402                           TCF      DOT                                   #  27 - VECTOR DOT PRODUCT.
000338:
000339:    6363           17532                           TCF      VXV                                   #  30 - VECTOR CROSS PRODUCT.
000340:    6364           17476                           TCF      VPROJ                                 #  31 - VECTOR PROJECTION.
000341:    6365           17062                           TCF      DSU                                   #  32 - DP SUBTRACT.
000342:    6366           17120                           TCF      BDSU                                  #  33 - DP SUBTRACT FROM.
000343:    6367           17034                           TCF      DAD                                   #  34 - DP ADD.
000344:    6370           16370                           TCF      +0                                    #  35 - AVAILABLE
000345:
000346:    6371           17616                           TCF      DMP1                                  #  36 - DP MULTIPLY.
000347:    6372           17637                           TCF      SETPD                                 #  37 - SET PUSH DOWN POINTER (DIRECT ONLY)
000348:
000349:                                                                                                  #  CODES 10 AND 14 MUST NOT PUSH UP. CODE 04 MAY BE USED FOR VECTOR DECLARE BEFORE PUSHUP IF DESIRED.
000350:


000352:                                                                                                  #           THE FOLLOWING JUMP TABLE APPLIES TO INDEX, BRANCH, AND MISCELLANEOUS INSTRUCTIONS.
000353:
000354:    6373           12557        MISCJUMP           TCF      AXT                                   #  00 - ADDRESS TO INDEX TRUE.
000355:    6374           12564                           TCF      AXC                                   #  01 - ADDRESS TO INDEX COMPLEMENTED.
000356:    6375           12567                           TCF      LXA                                   #  02 - LOAD INDEX FROM ERASABLE.
000357:    6376           12573                           TCF      LXC                                   #  03 - LOAD INDEX FROM COMPLEMENT OF ERAS.
000358:
000359:    6377           12577                           TCF      SXA                                   #  04 - STORE INDEX IN ERASABLE.
000360:    6400           12605                           TCF      XCHX                                  #  05 - EXCHANGE INDEX WITH ERASABLE.
000361:    6401           12621                           TCF      INCR                                  #  06 - INCREMENT INDEX REGISTER.
000362:    6402           12630                           TCF      TIX                                   #  07 - TRANSFER ON INDEX.
000363:
000364:    6403           12613                           TCF      XAD                                   #  10 - INDEX REGISTER ADD FROM ERASABLE.
000365:    6404           12624                           TCF      XSU                                   #  11 - INDEX SUBTRACT FROM ERASABLE.
000366:    6405           12702                           TCF      BZE/GOTO                              #  12 - BRANCH ZERO AND GOTO.
000367:    6406           12707                           TCF      BPL/BMN                               #  13 - BRANCH PLUS AND BRANCH MINUS.
000368:    6407           12662                           TCF      RTB/BHIZ                              #  14 - RETURN TO BASIC AND BRANCH HI ZERO.
000369:    6410           12722                           TCF      CALL/ITA                              #  15 - CALL AND STORE QPRET.
000370:    6411           12731                           TCF      SW/                                   #  16 - SWITCH INSTRUCTIONS AND AVAILABLE.
000371:
000372:    6412           12672                           TCF      BOV(B)                                #  17 - BRANCH ON OVERFLOW TO BASIC OR INT.
000373:


000375:                                                                                                  #           THE FOLLOWING JUMP TABLE APPIES TO UNARY INSTRUCTIONS.
000376:
000377:
000378: 00,2000                                           BANK     0                                     #  00 - EXIT - DETECTED EARLIER.
000379: 00,2000           13155        UNAJUMP            TCF      SQRT                                  #  01 - SQUARE ROOT.
000380: 00,2001           13477                           TCF      SINE                                  #  02 - SIN.
000381: 00,2002           13466                           TCF      COSINE                                #  03 - COS.
000382: 00,2003           13557                           TCF      ARCSIN                                #  04 - ARC SIN.
000383: 00,2004           13561                           TCF      ARCCOS                                #  05 - ARC COS.
000384: 00,2005           13142                           TCF      DSQ                                   #  06 - DP SQUARE.
000385: 00,2006           12116                           TCF      ROUND                                 #  07 - ROUND TO DP.
000386:
000387: 00,2007           17714                           TCF      COMP                                  #  10 - COMPLEMENT VECTOR OR SCALAR.
000388:
000389: 00,2010           13200                           TCF      VDEF                                  #  11 - VECTOR DEFINE.
000390: 00,2011           12770                           TCF      UNIT                                  #  12 - UNIT VECTOR.
000391: 00,2012           13144                           TCF      ABVALABS                              #  13 - LENGTH OF VECTOR OR MAG OF SCALAR.
000392: 00,2013           13214                           TCF      VSQ                                   #  14 - SQUARE OF LENGTH OF VECTOR.
000393: 00,2014           16413                           TCF      STADR                                 #  15 - PUSH UP ON STORE CODE.
000394: 00,2015           13244                           TCF      RVQ                                   #  16 - RETURN VIA QPRET.
000395: 00,2016           13217                           TCF      PUSH                                  #  17 - PUSH MPAC DOWN.
000396:


000398:                                                                                                  #  SECTION 2  LOAD AND STORE PACKAGE.
000399:
000400:                                                                                                  #           A SET OF EIGHT STORE CODES IS PROVIDED AS THE PRIMARY METHOD OF STORING THE MULTI-PURPOSE
000401:                                                                                                  #  ACCUMULATOR (MPAC). IF IN THE DANZIG SECTION LOC REFERS TO AN ALGEBRAICALLY POSITIVE WORD, IT IS TAKEN AS A
000402:                                                                                                  #  STORE CODE WITH A CORRESPONDING ERASABLE ADDRESS. MOST OF THESE CODES ARE TWO ADDRESS, SPECIFYING THAT THE WORD
000403:                                                                                                  #  FOLLOWING THE STORE CODE IS TO BE USED AS AN ADDRESS FROM WHICH TO RE-LOAD MPAC. FOUR OPTIONS ARE AVAILABLE:
000404:
000405:                                                                                                  #           1. STORE               STORE MPAC. THE E ADDRESS MAY BE INDEXED.
000406:
000407:                                                                                                  #           2. STODL               STORE MPAC AND RE-LOAD IT IN DP WITH THE NEXT ADDRESS (THE LOAD MAY BE INDEXED).
000408:                                                                                                  #           3. STOVL               STORE MPAC AND RE-LOAD A VECTOR (AS ABOVE).
000409:                                                                                                  #           4. STCALL              STORE AND DO A CALL (BOTH ADDRESSES MUST BE DIRECT HERE).
000410:
000411:                                                                                                  #           STODL AND STOVL WILL TAKE FROM THE PUSH-DOWN LIST IF NO LOAD ADDRESS IS GIVEN.
000412:
000413:
000414:
000415:    6413                                           BLOCK    3
000416:
000417:    6413           30155        STADR              CA       BANKSET                               #  THE STADR CODE (PUSHUP UP ON STORE
000418:    6414           54004                           TS       FBANK                                 #  ADDRESS) ENTERS HERE.
000419:    6415           24154                           INCR     LOC
000420:    6416           50154        ITR1               INDEX    LOC                                   #  THE STORECODE WAS STORED COMPLEMENTED TO
000421:    6417           40000                           CS       0                                     #  MAKE IT LOOK LIKE AN OPCODE PAIR.
000422:    6420           67763                           AD       NEGONE                                #  (YUL CANT REMOVE 1 BECAUSE OF EARLY CCS)
000423:
000424:    6421           54106        DOSTORE            TS       ADDRWD
000425:    6422           74552                           MASK     LOW11                                 #  ENTRY FROM DISPATCHER. SAVE THE ERASABLE
000426:    6423           56106                           XCH      ADDRWD                                #  ADDRESS AND JUMP ON THE STORE CODE NO.
000427:    6424           75673                           MASK     B12T14
000428:    6425           00006                           EXTEND
000429:    6426           77751                           MP       BIT5                                  #  EACH TRANSFER VECTOR ENTRY IS TWO WORDS.
000430:
000431:    6427           54023                           TS       EDOP                                  #  MAYBE 2ND OP WAS LEFT OVER FROM BRANCH
000432:    6430           50000        ITR0               INDEX    A
000433:    6431           16432                           TCF      STORJUMP
000434:


000436:                                                                                                  #           STORE CODE JUMP TABLE. CALLS THE APPROPRIATE STORING ROUTINE AND EXITS TO DANZIG OR TO ADDRESS WITH
000437:
000438:                                                                                                  #  A SUPPLIED OPERATION CODE.
000439:
000440:    6432           06462        STORJUMP           TC       STORE                                 #  STORE.
000441:    6433           16123                           TCF      NEWOPS     -1                         #  PICK UP NEW OP CODE(S).
000442:    6434           06454                           TC       STORE,1
000443:    6435           16123                           TCF      NEWOPS     -1
000444:    6436           06457                           TC       STORE,2
000445:    6437           16123                           TCF      NEWOPS     -1
000446:
000447:    6440           06462                           TC       STORE                                 #  STODL.
000448:    6441           16520                           TCF      DODLOAD
000449:
000450:    6442           06462                           TC       STORE                                 #  STODL WITH INDEXED LOAD ADDRESS.
000451:    6443           16200                           TCF      DODLOAD*
000452:
000453:    6444           06462                           TC       STORE                                 #  STOVL.
000454:    6445           16523                           TCF      DOVLOAD
000455:
000456:    6446           06462                           TC       STORE                                 #  STOVL WITH INDEXED LOAD ADDRESS.
000457:    6447           16526                           TCF      DOVLOAD*
000458:    6450           06462                           TC       STORE                                 #  STOTC.
000459:    6451           35362                           CAF      CALLCODE
000460:
000461:    6452           54020                           TS       CYR
000462:    6453           16306                           TCF      15BITADR                              #  GET A 15 BIT ADDRESS.
000463:


000465:                                                                                                  #           STORE CODE ADDRESS PROCESSOR.
000466:
000467:    6454           50110        STORE,1            INDEX    FIXLOC
000468:    6455           40046                           CS       X1
000469:    6456           16461                           TCF      PRESTORE
000470:
000471:
000472:    6457           50110        STORE,2            INDEX    FIXLOC
000473:    6460           40047                           CS       X2
000474:    6461           26106        PRESTORE           ADS      ADDRWD                                #  RESULTANT ADDRESS IS IN ERASABLE.
000475:
000476:    6462           40106        STORE              CS       ADDRWD
000477:    6463           65371                           AD       DEC45
000478:    6464           10000                           CCS      A                                     #  DOES THE ADDRESS POINT TO THE WORK AREA?
000479:    6465           30110                           CA       FIXLOC                                #  YES.
000480:    6466           16473                           TCF      AHEAD5
000481:    6467           35370                           CA       OCT1400                               #  NO.  SET EBANK & MAKE UP SUBADDRESS.
000482:    6470           56106                           XCH      ADDRWD
000483:    6471           54003                           TS       EBANK
000484:
000485:    6472           74553                           MASK     LOW8
000486:    6473           26106        AHEAD5             ADS      ADDRWD
000487:


000489:                                                                                                  #           STORING ROUTINES. STORE DP, TP, OR VECTOR AS INDICATED BY MODE.
000490:
000491:
000492:    6474           00006        STARTSTO           EXTEND                                         #  MPAC,+1 MUST BE STORED IN ANY EVENT.
000493:                                                                                                  #           ITRACE (5) REFERS TO "STARTSTO".
000494:    6475           30145                           DCA      MPAC
000495:    6476           50106                           INDEX    ADDRWD
000496:    6477           52001                           DXCH     0
000497:
000498:    6500           10153                           CCS      MODE
000499:    6501           16514                           TCF      TSTORE
000500:    6502           00002                           TC       Q
000501:
000502:    6503           00006        VSTORE             EXTEND
000503:    6504           30150                           DCA      MPAC       +3
000504:    6505           50106                           INDEX    ADDRWD
000505:    6506           52003                           DXCH     2
000506:
000507:    6507           00006                           EXTEND
000508:    6510           30152                           DCA      MPAC       +5
000509:    6511           50106                           INDEX    ADDRWD
000510:    6512           52005                           DXCH     4
000511:    6513           00002                           TC       Q
000512:
000513:    6514           30146        TSTORE             CA       MPAC       +2
000514:    6515           50106                           INDEX    ADDRWD
000515:
000516:    6516           54002                           TS       2
000517:    6517           00002                           TC       Q
000518:


000520:                                                                                                  #           ROUTINES TO BEGIN PROCESSING OF THE SECOND ADDRESS ASSOCIATED WITH ALL STORE-TYPE CODES EXCEPT STORE
000521:                                                                                                  #  ITSELF.
000522:
000523:    6520           35363        DODLOAD            CAF      DLOADCOD
000524:    6521           54020                           TS       CYR
000525:    6522           16142                           TCF      DIRADRES                              #  GO GET A DIRECT ADDRESS.
000526:
000527:    6523           37737        DOVLOAD            CAF      VLOADCOD
000528:
000529:    6524           54020                           TS       CYR
000530:    6525           16142                           TCF      DIRADRES
000531:
000532:    6526           36143        DOVLOAD*           CAF      VLOAD*
000533:    6527           16201                           TCF      DODLOAD*   +1                         #  PROLOGUE TO INDEX ROUTINE.
000534:


000536:                                                                                                  #           THE FOLLOWING LOAD INSTRUCTIONS ARE PROVIDED FOR LOADING THE MULTI-PURPOSE ACCUMULATOR MPAC.
000537:
000538:    6530           00006        DLOAD              EXTEND
000539:    6531           50106                           INDEX    ADDRWD
000540:    6532           30001                           DCA      0                                     #  PICK UP DP ARGUMENT AND LEAVE IT IN
000541:    6533           52145        SLOAD2             DXCH     MPAC                                  #  MPAC,+1, SETTING MPAC +2 TO ZERO. THE
000542:    6534           37761                           CAF      ZERO                                  #  CONTENTS OF THE OTHER FOUR REGISTERS OF
000543:    6535           54146                           TS       MPAC       +2                         #  MPAC ARE IRRELEVANT.
000544:    6536           16114                           TCF      NEWMODE                               #  DECLARE DOUBLE PRECISION MODE.
000545:
000546:    6537           50106        TLOAD              INDEX    ADDRWD
000547:    6540           30002                           CA       2                                     #  LOAD A TRIPLE PRECISION ARGUMENT INTO
000548:    6541           54146                           TS       MPAC       +2                         #  THE FIRST THREE MPAC REGISTERS, WITH THE
000549:    6542           00006                           EXTEND                                         #  CONTENTS OF THE OTHER FOUR IRRELEVANT.
000550:
000551:    6543           50106                           INDEX    ADDRWD
000552:    6544           30001                           DCA      0
000553:    6545           52145                           DXCH     MPAC
000554:    6546           37755                           CAF      ONE
000555:    6547           16114                           TCF      NEWMODE                               #  DECLARE TRIPLE PRECISION MODE.
000556:
000557:    6550           22007        SLOAD              ZL                                             #  LOAD A SINGLE PRECISION NUMBER INTO
000558:    6551           50106                           INDEX    ADDRWD                                #  MPAC, SETTING MPAC+1,2 TO ZERO. THE
000559:    6552           30000                           CA       0                                     #  CONTENTS OF THE REMAINING MPAC REGISTERS
000560:    6553           16533                           TCF      SLOAD2                                #  ARE IRRELEVANT.
000561:
000562:    6554           00006        VLOAD              EXTEND                                         #  LOAD A DOUBLE PRECISION VECTOR INTO
000563:    6555           50106                           INDEX    ADDRWD                                #  MPAC,+1, MPAC+3,4, AND MPAC+5,6. THE
000564:    6556           30001                           DCA      0                                     #  CONTENTS OF MPAC +2 ARE IRRELEVANT.
000565:    6557           52145                           DXCH     MPAC
000566:
000567:    6560           00006        ENDVLOAD           EXTEND                                         #  PDVL COMES HERE TO FINISH UP FOR DP, TP.
000568:    6561           50106                           INDEX    ADDRWD
000569:    6562           30003                           DCA      2
000570:    6563           52150                           DXCH     MPAC       +3
000571:
000572:    6564           00006                 +4        EXTEND                                         #  TPDVL FINISHES HERE.
000573:    6565           50106                           INDEX    ADDRWD
000574:
000575:    6566           30005                           DCA      4
000576:    6567           52152                           DXCH     MPAC       +5
000577:
000578:    6570           47755                           CS       ONE                                   #  DECLARE VECTOR MODE.
000579:    6571           16114                           TCF      NEWMODE
000580:


000582:                                                                                                  #           THE FOLLOWING INSTRUCTIONS ARE PROVIDED FOR STORING OPERANDS IN THE PUSHDOWN LIST:
000583:
000584:                                                                                                  #           1.  PUSH               PUSHDOWN AND NO LOAD.
000585:                                                                                                  #           2.  PDDL               PUSHDOWN AND DOUBLE PRECISION LOAD.
000586:                                                                                                  #           3.  PDVL               PUSHDOWN AND VECTOR LOAD.
000587:
000588:    6572           00006        PDDL               EXTEND
000589:    6573           50106                           INDEX    ADDRWD                                #  LOAD MPAC,+1, PUSHING THE FORMER
000590:    6574           30001                           DCA      0                                     #  CONTENTS DOWN.
000591:    6575           52145                           DXCH     MPAC
000592:    6576           50156                           INDEX    PUSHLOC
000593:    6577           52001                           DXCH     0
000594:
000595:    6600           50153                           INDEX    MODE                                  #  ADVANCE THE PUSHDOWN POINTER APPRO-
000596:    6601           36300                           CAF      NO.WDS                                #  PRIATELY.
000597:    6602           26156                           ADS      PUSHLOC
000598:
000599:    6603           10153                           CCS      MODE
000600:    6604           16621                           TCF      ENDTPUSH
000601:
000602:    6605           16617                           TCF      ENDDPUSH
000603:
000604:    6606           54153                           TS       MODE                                  #  NOW DP.
000605:    6607           54146        ENDVPUSH           TS       MPAC       +2
000606:    6610           52150                           DXCH     MPAC       +3                         #  PUSH DOWN THE REST OF THE VECTOR HERE.
000607:    6611           50156                           INDEX    PUSHLOC
000608:    6612           51775                           DXCH     0          -4
000609:
000610:    6613           52152                           DXCH     MPAC       +5
000611:    6614           50156                           INDEX    PUSHLOC
000612:
000613:    6615           51777                           DXCH     0          -2
000614:
000615:    6616           16115                           TCF      DANZIG
000616:
000617:    6617           54146        ENDDPUSH           TS       MPAC       +2                         #  SET MPAC +2 TO ZERO AND EXIT ON DP.
000618:    6620           16115                           TCF      DANZIG
000619:
000620:    6621           54153        ENDTPUSH           TS       MODE
000621:    6622           56146                           XCH      MPAC       +2                         #  ON TRIPLE, SET MPAC +2 TO ZERO, PUSHING
000622:    6623           50156                 +2        INDEX    PUSHLOC                               #  DOWN THE OLD CONTENTS
000623:    6624           53777                           TS       0          -1
000624:    6625           16115                           TCF      DANZIG
000625:


000627:                                                                                                  #           PDVL - PUSHDOWN AND VECTOR LOAD.
000628:
000629:
000630:    6626           00006        PDVL               EXTEND                                         #  RELOAD MPAC AND PUSH DOWN ITS CONTENTS.
000631:    6627           50106                           INDEX    ADDRWD
000632:    6630           30001                           DCA      0
000633:    6631           52145                           DXCH     MPAC
000634:    6632           50156                           INDEX    PUSHLOC
000635:    6633           52001                           DXCH     0
000636:
000637:    6634           50153                           INDEX    MODE                                  #  ADVANCE THE PUSHDOWN POINTER.
000638:    6635           36300                           CAF      NO.WDS
000639:    6636           26156                           ADS      PUSHLOC
000640:
000641:    6637           10153                           CCS      MODE                                  #  TEST PAST MODE.
000642:    6640           16657                           TCF      TPDVL
000643:    6641           16560                           TCF      ENDVLOAD                              #  JUST LOAD LAST FOUR REGISTERS ON DP.
000644:
000645:    6642           00006        VPDVL              EXTEND                                         #  PUSHDOWN AND RE-LOAD LAST TWO COMPONENTS
000646:    6643           50106                           INDEX    ADDRWD
000647:    6644           30003                           DCA      2
000648:    6645           52150                           DXCH     MPAC       +3
000649:    6646           50156                           INDEX    PUSHLOC
000650:    6647           51775                           DXCH     0          -4
000651:
000652:    6650           00006                           EXTEND
000653:
000654:    6651           50106                           INDEX    ADDRWD
000655:    6652           30005                           DCA      4
000656:    6653           52152                           DXCH     MPAC       +5
000657:    6654           50156                           INDEX    PUSHLOC
000658:    6655           51777                           DXCH     0          -2
000659:
000660:    6656           16115                           TCF      DANZIG
000661:
000662:    6657           00006        TPDVL              EXTEND                                         #  ON TP, WE MUST LOAD THE Y COMPONENT
000663:    6660           50106                           INDEX    ADDRWD                                #  BEFORE STORING MPAC +2 INCASE THIS IS A
000664:
000665:    6661           30003                           DCA      2                                     #  PUSHUP.
000666:    6662           52150                           DXCH     MPAC       +3
000667:
000668:    6663           30146                           CA       MPAC       +2
000669:    6664           50156                           INDEX    PUSHLOC                               #  IN DP.
000670:    6665           53777                           TS       0          -1
000671:    6666           16564                           TCF      ENDVLOAD   +4
000672:
000673:                                                                                                  #           SSP (STORE SINGLE PRECISION) IS EXECUTED HERE.
000674:
000675:    6667           24154        SSP                INCR     LOC                                   #  PICK UP THE WORD FOLLOWING THE GIVEN
000676:    6670           50154                           INDEX    LOC                                   #  ADDRESS AND STORE IT AT X.
000677:
000678:    6671           30000                           CA       0
000679:    6672           50106        STORE1             INDEX    ADDRWD                                #  SOME INDEX AND MISCELLANEOUS OPS END
000680:    6673           54000                           TS       0                                     #  HERE.


000682:    6674           16115                           TCF      DANZIG
000683:


000685:                                                                                                  #  SEQUENCE CHANGING AND SUBROUTINE CALLING OPTIONS.
000686:
000687:                                                                                                  #           THE FOLLOWING OPERATIONS ARE AVAILABLE FOR SEQUENCING CHANGING, BRANCHING, AND CALLING SUBROUTINES:
000688:
000689:                                                                                                  #           1.  GOTO               GO TO.
000690:                                                                                                  #           2.  CALL               CALL SUBROUTINE SETTING QPRET.
000691:                                                                                                  #           3.  CGOTO              COMPUTED GO TO.
000692:                                                                                                  #           4.  CCALL              COMPUTED CALL.
000693:                                                                                                  #           7.  BPL                BRANCH IF MPAC POSITIVE OR ZERO.
000694:                                                                                                  #           8.  BZE                BRANCH IF MPAC ZERO.
000695:                                                                                                  #           9.  BMN                BRANCH IF MPAC NEGATIVE NON-ZERO.
000696:
000697:    6675           24154        CCALL              INCR     LOC                                   #  MAINTAIN LOC FOR QPRET COMPUTATION.
000698:    6676           50154                           INDEX    LOC
000699:
000700:    6677           30000                           CAF      0                                     #  GET BASE ADDRESS OF CADR LIST.
000701:    6700           50106                           INDEX    ADDRWD
000702:    6701           60000                           AD       0                                     #  ADD INCREMENT.
000703:    6702           54004                           TS       FBANK                                 #  SELECT DESIRED CADR.
000704:    6703           75356                           MASK     LOW10
000705:    6704           50000                           INDEX    A
000706:    6705           32000                           CAF      10000
000707:    6706           54107                           TS       POLISH
000708:
000709:    6707           30155        CALL               CA       BANKSET                               #  FOR ANY OF THE CALL OPTIONS, MAKE UP THE
000710:
000711:    6710           76331                           MASK     BANKMASK                              #  ADDRESS OF THE NEXT OP-CODE PAIR/STORE
000712:    6711           66331                           AD       BANKMASK                              #  CODE AND LEAVE IT IN QPRET.  NOTE THAT
000713:    6712           60154                           AD       LOC                                   #  BANKMASK = -(2000 - 1).
000714:    6713           50110                           INDEX    FIXLOC
000715:    6714           54052                           TS       QPRET
000716:
000717:    6715           30107        GOTO               CA       POLISH                                #  BASIC BRANCHING SEQUENCE.
000718:    6716           75367                 +1        MASK     HIGH4
000719:    6717           00006                           EXTEND
000720:    6720           16731                           BZF      GOTOERS                               #  SEE IF ADDRESS POINTS TO FIXED OR ERAS.
000721:    6721           30155                 +4        CA       BANKSET                               #  SET EBANK PART OF BBANK. NEXT, SET UP
000722:    6722           54006                           TS       BBANK                                 #  FBANK. THE COMBINATION IS PICKED UP &
000723:
000724:    6723           30107                           CA       POLISH                                #  PUT INTO BANKSET AT INTPRET +2.
000725:    6724           54004                           TS       FBANK
000726:    6725           75356                           MASK     LOW10
000727:    6726           67743                           AD       2K
000728:    6727           54154                           TS       LOC
000729:    6730           16105                           TCF      INTPRET    +2
000730:


000732:    6731  E3,1400                                  EBANK=   1400                                  #  SO YUL DOESN'T CUSS THE "CA 1400" BELOW.
000733:
000734:    6731           30107        GOTOERS            CA       POLISH                                #  THE GIVEN ADDRESS IS IN ERASABLE - SEE
000735:    6732           66305                           AD       -ENDVAC                               #  IF RELATIVE TO THE WORK AREA.
000736:    6733           10000                           CCS      A
000737:    6734           30107                           CA       POLISH                                #  GENERAL ERASABLE.
000738:
000739:    6735           16744                           TCF      GOTOGE
000740:
000741:    6736           30110                           CA       FIXLOC                                #  WORK AREA.
000742:    6737           60107                           AD       POLISH
000743:    6740           50000                           INDEX    A                                     #  USE THE GIVEN ADDRESS AS THE ADDRESS OF
000744:    6741           30000                           CA       0                                     #  THE BRANCH ADDRESS.
000745:    6742           54107                           TS       POLISH
000746:    6743           16716                           TCF      GOTO       +1                         #  ALLOWS ARBITRARY INDIRECTNESS LEVELS.
000747:
000748:    6744           54003        GOTOGE             TS       EBANK
000749:    6745           74553                           MASK     LOW8
000750:    6746           50000                           INDEX    A                                     #  USE THE GIVEN ADDRESS AS THE ADDRESS OF
000751:
000752:    6747           31400                           CA       1400                                  #  THE BRANCH ADDRESS.
000753:    6750           54107                           TS       POLISH
000754:    6751           16716                           TCF      GOTO       +1
000755:
000756:    6752           50154        CGOTO              INDEX    LOC                                   #  COMPUTED GO TO. PICK UP ADDRESS OF CADR
000757:    6753           30001                           CA       1                                     #  LIST.
000758:    6754           50106                           INDEX    ADDRWD                                #  ADD MODIFIER.
000759:    6755           60000                           AD       0
000760:    6756           54004                           TS       FBANK                                 #  SELECT GOTO ADDRESS.
000761:    6757           75356                           MASK     LOW10
000762:
000763:    6760           50000                           INDEX    A
000764:    6761           32000                           CA       10000
000765:    6762           54107                           TS       POLISH
000766:    6763           16716                           TCF      GOTO       +1                         #  WITH ADDRESS IN A.
000767:
000768:    6764           30155        SWBRANCH           CA       BANKSET                               #  SWITCH INSTRUCTIONS WHICH ELECT TO
000769:    6765           54004                           TS       FBANK                                 #  BRANCH COME HERE TO DO SO.
000770:    6766           50154                           INDEX    LOC
000771:    6767           30001                           CA       1
000772:    6770           54107                           TS       POLISH
000773:    6771           16716                           TCF      GOTO       +1
000774:


000776:                                                                                                  #           TRIPLE PRECISION BRANCHING ROUTINE. IF CALLING TC IS AT L, RETURN IS AS FOLLOWS:
000777:
000778:
000779:                                                                                                  #           L+1  IF MPAC IS GREATER THAN ZERO.
000780:                                                                                                  #           L+2  IF MPAC IS EQUAL TO +0 OR -0.
000781:                                                                                                  #           L+3  IF MPAC IS LESS THAN ZERO.
000782:
000783:
000784:    6772           10144        BRANCH             CCS      MPAC
000785:    6773           00002                           TC       Q
000786:    6774           16776                           TCF      +2                                    #  ON ZERO.
000787:    6775           17010                           TCF      NEG
000788:
000789:
000790:    6776           10145                           CCS      MPAC       +1
000791:    6777           00002                           TC       Q
000792:    7000           17002                           TCF      +2
000793:    7001           17010                           TCF      NEG
000794:
000795:    7002           10146                           CCS      MPAC       +2
000796:    7003           00002                           TC       Q
000797:    7004           17006                           TCF      +2
000798:    7005           17010                           TCF      NEG
000799:
000800:    7006           50002        Q+1                INDEX    Q
000801:
000802:    7007           00001                           TC       1
000803:
000804:    7010           50002        NEG                INDEX    Q                                     #  IF FIRST NON-ZERO REGISTER WAS NEGATIVE.
000805:    7011           00002                           TC       2
000806:
000807:
000808:
000809:    7012     7010               Q+2                =        NEG
000810:
000811:                                                                                                  #           ITRACE (3) REFERS TO "EXIT".
000812:
000813:    7012           30155        EXIT               CA       BANKSET                               #  RESTORE USER'S BANK SETTING, AND LEAVE
000814:    7013           54006                           TS       BBANK                                 #  INTERPRETIVE MODE.
000815:    7014           50154                           INDEX    LOC
000816:    7015           10001                           TCF      1
000817:


000819:                                                                                                  #  SECTION 3 - ADD/SUBTRACT PACKAGE.
000820:
000821:                                                                                                  #           THE FOLLOWING OPERATIONS ARE PROVIDED FOR ADDING TO AND SUBTRACTING FROM THE MULTI-PURPOSE ACCUMULATOR
000822:                                                                                                  #  MPAC:
000823:
000824:                                                                                                  #           1.  DAD                DOUBLE PRECISION ADD.
000825:                                                                                                  #           2.  DSU                DOUBLE PRECISION SUBTRACT.
000826:                                                                                                  #           3.  BDSU               DOUBLE PRECISION SUBTRACT FROM.
000827:
000828:
000829:                                                                                                  #           4.  TAD                TRIPLE PRECISION ADD.
000830:
000831:                                                                                                  #           5.  VAD                VECTOR ADD.
000832:                                                                                                  #           6.  VSU                VECTOR SUBTRACT.
000833:                                                                                                  #           7.  BVSU               VECTOR SUBTRACT FROM.
000834:
000835:                                                                                                  #  THE INTERPRETIVE OVERFLOW INDICATOR OVFIND IS SET NON-ZERO IF OVERFLOW OCCURS IN ANY OF THE ABOVE.
000836:
000837:
000838:
000839:    7016           00006        VAD                EXTEND
000840:    7017           50106                           INDEX    ADDRWD
000841:    7020           30003                           DCA      2
000842:    7021           20150                           DAS      MPAC       +3
000843:    7022           00006                           EXTEND                                         #  CHECK OVERFLOW.
000844:    7023           17025                           BZF      +2
000845:    7024           07072                           TC       OVERFLOW
000846:
000847:    7025           00006                           EXTEND
000848:    7026           50106                           INDEX    ADDRWD
000849:    7027           30005                           DCA      4
000850:    7030           20152                           DAS      MPAC       +5
000851:
000852:    7031           00006                           EXTEND
000853:    7032           17034                           BZF      +2
000854:    7033           07072                           TC       OVERFLOW
000855:
000856:    7034           00006        DAD                EXTEND
000857:    7035           50106                           INDEX    ADDRWD
000858:    7036           30001                           DCA      0
000859:    7037           20145        ENDVXV             DAS      MPAC                                  #  VXV FINISHES HERE.
000860:    7040           00006                           EXTEND
000861:    7041           16115                           BZF      DANZIG
000862:
000863:    7042           07072                           TC       OVERFLOW
000864:    7043           16115                           TCF      DANZIG
000865:


000867:    7044           00006        VSU                EXTEND
000868:
000869:    7045           50106                           INDEX    ADDRWD
000870:    7046           40003                           DCS      2
000871:    7047           20150                           DAS      MPAC       +3
000872:    7050           00006                           EXTEND
000873:    7051           17053                           BZF      +2
000874:    7052           07072                           TC       OVERFLOW
000875:
000876:    7053           00006                           EXTEND
000877:    7054           50106                           INDEX    ADDRWD
000878:    7055           40005                           DCS      4
000879:    7056           20152                           DAS      MPAC       +5
000880:    7057           00006                           EXTEND
000881:
000882:    7060           17062                           BZF      +2
000883:    7061           07072                           TC       OVERFLOW
000884:
000885:    7062           00006        DSU                EXTEND
000886:    7063           50106                           INDEX    ADDRWD
000887:    7064           40001                           DCS      0
000888:    7065           20145                           DAS      MPAC
000889:    7066           00006                           EXTEND
000890:    7067           16115                           BZF      DANZIG
000891:    7070           07072                           TC       OVERFLOW
000892:
000893:    7071           16115                           TCF      DANZIG
000894:
000895:    7072           37755        OVERFLOW           CAF      ONE                                   #  SUBROUTINE TO TURN OVFIND ON.
000896:    7073           17215                           TCF      SETOVF2
000897:


000899:    7074           00006        BVSU               EXTEND
000900:    7075           50106                           INDEX    ADDRWD
000901:    7076           30003                           DCA      2
000902:    7077           52150                           DXCH     MPAC       +3
000903:    7100           00006                           EXTEND
000904:    7101           40001                           DCOM
000905:
000906:    7102           20150                           DAS      MPAC       +3
000907:    7103           00006                           EXTEND
000908:    7104           17106                           BZF      +2
000909:    7105           07072                           TC       OVERFLOW
000910:
000911:    7106           00006                           EXTEND
000912:    7107           50106                           INDEX    ADDRWD
000913:    7110           30005                           DCA      4
000914:    7111           52152                           DXCH     MPAC       +5
000915:    7112           00006                           EXTEND
000916:    7113           40001                           DCOM
000917:    7114           20152                           DAS      MPAC       +5
000918:
000919:    7115           00006                           EXTEND
000920:    7116           17120                           BZF      +2
000921:    7117           07072                           TC       OVERFLOW
000922:
000923:    7120           00006        BDSU               EXTEND
000924:    7121           50106                           INDEX    ADDRWD
000925:    7122           30001                           DCA      0
000926:    7123           52145                           DXCH     MPAC
000927:    7124           00006                           EXTEND
000928:    7125           40001                           DCOM
000929:
000930:    7126           20145                           DAS      MPAC
000931:    7127           00006                           EXTEND
000932:    7130           16115                           BZF      DANZIG
000933:    7131           07072                           TC       OVERFLOW
000934:    7132           16115                           TCF      DANZIG
000935:


000937:                                                                                                  #           TRIPLE PRECISION ADD ROUTINE.
000938:
000939:
000940:    7133           00006        TAD                EXTEND
000941:    7134           50106                           INDEX    ADDRWD
000942:    7135           30002                           DCA      1                                     #  ADD MINOR PARTS FIRST.
000943:    7136           20146                           DAS      MPAC       +1
000944:    7137           50106                           INDEX    ADDRWD
000945:    7140           60000                           AD       0
000946:    7141           60144                           AD       MPAC
000947:    7142           54144                           TS       MPAC
000948:    7143           16115                           TCF      DANZIG
000949:
000950:    7144           54111        SETOVF             TS       OVFIND                                #  SET OVFIND IF SUCH OCCURS.
000951:    7145           16115                           TCF      DANZIG
000952:


000954:                                                                                                  #  ARITHMETIC SUBROUTINES REQUIRED IN FIXED-FIXED.
000955:
000956:                                                                                                  #           1.  DMPSUB     DOUBLE PRECISION MULTIPLY. MULTIPLY THE CONTENTS OF MPAC,+1 BY THE DP WORD WHOSE ADDRESS
000957:                                                                                                  #                          IS IN ADDRWD AND LEAVE A TRIPLE PRECISION RESULT IN MPAC.
000958:                                                                                                  #           2.  ROUNDSUB   ROUND THE TRIPLE PRECISON CONTENTS OF MPAC TO DOUBLE PRECISION.
000959:                                                                                                  #           3.  DOTSUB     TAKE THE DOT PRODUCT OF THE VECTOR IN MPAC AND THE VECTOR WHOSE ADDRESS IS IN ADDRWD
000960:                                                                                                  #                          AND LEAVE THE TRIPLE PRECISION RESULT IN MPAC.
000961:                                                                                                  #           4.  POLY       USING THE CONTENTS OF MPAC AS A DP ARGUMENT, EVALUATE THE POLYNOMIAL WHOSE DEGREE AND
000962:
000963:                                                                                                  #                          COEFFICIENTS IMMEDIATELY FOLLOW THE TC POLY INSTRUCTION (SEE ROUTINE FOR DETAILS.)
000964:
000965:
000966:
000967:    7146           50002        DMP                INDEX    Q                                     #  BASIC SUBROUTINE FOR USE BY PINBALL, ETC
000968:    7147           30000                           CAF      0                                     #  ADRES OF ARGUMENT FOLLOWS  TC DMP  .
000969:    7150           24002                           INCR     Q
000970:    7151           54106                 -1        TS       ADDRWD                                #  (PROLOGUE FOR SETTING ADDRWD.)
000971:
000972:    7152           50106        DMPSUB             INDEX    ADDRWD                                #  GET MINOR PART OF OPERAND AT C(ADDRWD).
000973:
000974:    7153           30001                           CA       1
000975:    7154           54146                           TS       MPAC       +2                         #  THIS WORKS FOR SQUARING MPAC AS WELL.
000976:    7155           37761                           CAF      ZERO                                  #  SET MPAC +1 TO ZERO SO WE CAN ACCUMULATE
000977:    7156           56145                           XCH      MPAC       +1                         #  THE PARTIAL PRODUCTS WITH DAS
000978:    7157           54125                           TS       MPTEMP                                #  INSTRUCTIONS.
000979:    7160           00006                           EXTEND
000980:    7161           70146                           MP       MPAC       +2                         #  MINOR OF MPAC X MINOR OF C(ADDRWD).
000981:
000982:    7162           56146                           XCH      MPAC       +2                         #  DISCARD MINOR PART OF ABOVE RESULT AND
000983:    7163           00006                           EXTEND                                         #  FORM MAJOR OF MPAC X MINOR OF C(ADDRWD).
000984:    7164           70144                           MP       MPAC
000985:    7165           20146                           DAS      MPAC       +1                         #  GUARANTEED NO OVERFLOW.
000986:
000987:    7166           50106                           INDEX    ADDRWD                                #  GET MAJOR PART OF ARGUMENT AT C(ADDRWD).
000988:    7167           30000                           CA       0
000989:    7170           56125                           XCH      MPTEMP                                #  SAVE AND BRING OUT MINOR OF MPAC.
000990:    7171           00006                           EXTEND
000991:    7172           70125                           MP       MPTEMP                                #  MAJOR OF C(ADDRWD) X MINOR OF MPAC.
000992:    7173           20146                           DAS      MPAC       +1                         #  ACCUMULATE, SETTING A TO NET OVERFLOW.
000993:
000994:    7174           56144                           XCH      MPAC                                  #  SETTING MPAC TO 0 OR +-1.
000995:    7175           00006                           EXTEND
000996:
000997:    7176           70125                           MP       MPTEMP                                #  MAJOR OF MPAC X MAJOR OF C(ADDRWD).
000998:    7177           20145                           DAS      MPAC                                  #  GUARANTEED NO OVERFLOW.
000999:    7200           00002                           TC       Q                                     #  49 MCT = .573 MS. INCLUDING RETURN.
001000:


001002:                                                                                                  #           ROUND MPAC TO DOUBLE PRECISION, SETTING OVFIND ON THE RARE EVENT OF OVERFLOW.
001003:
001004:    7201           37761        ROUNDSUB           CAF      ZERO                                  #  SET MPAC +2 = 0 FOR SCALARS AND CHANGE
001005:    7202           54153                 +1        TS       MODE                                  #  MODE TO DP.
001006:
001007:    7203           56146        VROUND             XCH      MPAC       +2                         #  BUT WE NEEDNT TAKE THE TIME FOR VECTORS.
001008:    7204           60000                           DOUBLE
001009:    7205           54001                           TS       L
001010:    7206           00002                           TC       Q
001011:
001012:    7207           60145                           AD       MPAC       +1                         #  ADD ROUNDING BIT IF MPAC +2 WAS GREATER
001013:    7210           54145                           TS       MPAC       +1                         #  THAN .5 IN MAGNITUDE.
001014:    7211           00002                           TC       Q
001015:
001016:
001017:    7212           60144                           AD       MPAC                                  #  PROPAGATE INTERFLOW.
001018:    7213           54144                           TS       MPAC
001019:    7214           00002                           TC       Q
001020:
001021:    7215           54111        SETOVF2            TS       OVFIND                                #  (RARE).
001022:    7216           00002                           TC       Q
001023:


001025:                                                                                                  #           THE DOT PRODUCT SUBROUTINE USUALLY FORMS THE DOT PRODUCT OF THE VECTOR IN MPAC WITH A STANDARD SIX
001026:                                                                                                  #  REGISTER VECTOR WHOSE ADDRESS IS IN ADDRWD. IN THIS CASE C(DOTINC) ARE SET TO 2. VXM, HOWEVER, SETS C(DOTINC) TO
001027:                                                                                                  #  6 SO THAT DOTSUB DOTS MPAC WITH A COLUMN VECTOR OF THE MATRIX IN QUESTION IN THIS CASE.
001028:
001029:
001030:
001031:    7217           37754        PREDOT             CAF      TWO                                   #  PROLOGUE TO SET DOTINC TO 2.
001032:    7220           54126                           TS       DOTINC
001033:
001034:    7221           00006        DOTSUB             EXTEND
001035:    7222           22127                           QXCH     DOTRET                                #  SAVE RETURN.
001036:    7223           07152                           TC       DMPSUB                                #  DOT X COMPONENTS.
001037:    7224           52150                           DXCH     MPAC       +3                         #  POSITION Y COMPONENT OF MPAC FOR
001038:    7225           52145                           DXCH     MPAC                                  #  MULTIPLICATION WHILE SAVING RESULT IN
001039:    7226           52121                           DXCH     BUF                                   #  THREE WORD BUFFER, BUF.
001040:    7227           30146                           CA       MPAC       +2
001041:    7230           54122                           TS       BUF        +2
001042:
001043:    7231           30126                           CA       DOTINC                                #  ADVANCE ADDRWD TO Y COMPONENT OF
001044:
001045:    7232           26106                           ADS      ADDRWD                                #  OTHER ARGUMENT.
001046:    7233           07152                           TC       DMPSUB
001047:    7234           52146                           DXCH     MPAC       +1                         #  ACCUMULATE PARTIAL PRODUCTS.
001048:    7235           20122                           DAS      BUF        +1
001049:    7236           60144                           AD       MPAC
001050:    7237           60120                           AD       BUF
001051:    7240           54120                           TS       BUF
001052:    7241           17243                           TCF      +2
001053:    7242           54111                           TS       OVFIND                                #  IF OVERFLOW OCCURS.
001054:
001055:    7243           52152                           DXCH     MPAC       +5                         #  MULTIPLY Z COMPONENTS.
001056:    7244           52145                           DXCH     MPAC
001057:    7245           30126                           CA       DOTINC
001058:    7246           26106                           ADS      ADDRWD
001059:    7247           07152                           TC       DMPSUB
001060:    7250           52122        ENDDOT             DXCH     BUF        +1                         #  LEAVE FINAL ACCUMULATION IN MPAC.
001061:    7251           20146                           DAS      MPAC       +1
001062:    7252           60144                           AD       MPAC
001063:    7253           60120                           AD       BUF
001064:    7254           54144                           TS       MPAC
001065:    7255           00127                           TC       DOTRET
001066:
001067:    7256           54111                           TS       OVFIND                                #  ON OVERFLOW HERE.
001068:
001069:    7257           00127                           TC       DOTRET
001070:


001072:                                                                                                  #  DOUBLE PRECISION POLYNOMIAL EVALUATOR
001073:
001074:
001075:                                                                                                  #                                     N        N-1
001076:                                                                                                  #           THIS ROUTINE EVALUATES A X  + A   X    + ... + A X + A  LEAVING THE DP RESULT IN MPAC ON EXIT.
001077:                                                                                                  #                                   N      N-1              1     0
001078:
001079:                                                                                                  #  THE ROUTINE HAS TWO ENTRIES
001080:
001081:                                                                                                  #           1. ENTRY THRU POWRSERS. THE COEFFICIENTS MAY BE EITHER IN FIXED OR ERASABLE, THE CALL IS BY
001082:                                                                                                  #              TC POWRSERS, AND THE RETURN IS TO LOC(TC POWRSERS)+1. THE ENTERING DATA MUST BE AS FOLLOWS
001083:
001084:                                                                                                  #                                          A        SP     LOC-3           ADDRESS FOR REFERENCING COEF TABLE
001085:
001086:                                                                                                  #                                          L        SP     N-1             N IS THE DEGREE OF THE POWER SERIES
001087:                                                                                                  #                                          MPAC     DP     X               ARGUMENT
001088:
001089:                                                                                                  #                                          LOC-2N   DP     A(0)
001090:                                                                                                  #                                                   ...
001091:                                                                                                  #                                          LOC      DP     A(N)
001092:
001093:                                                                                                  #           2. ENTRY THRU POLY. THE CALL TO POLY AND THE ENTERING DATA MUST BE AS FOLLOWS
001094:
001095:                                                                                                  #                                          MPAC     DP     X               ARGUMENT
001096:
001097:                                                                                                  #                                          LOC      TC     POLY
001098:
001099:                                                                                                  #                                          LOC+1    SP     N-1
001100:                                                                                                  #                                          LOC+2    DP     A(0)
001101:                                                                                                  #                                                   ...
001102:                                                                                                  #                                          LOC+2N+2 DP     A(N)            RETURN IS TO LOC+2N+4
001103:
001104:    7260           00006        POWRSERS           EXTEND
001105:    7261           22131                           QXCH     POLYRET                               #  RETURN ADDRESS
001106:    7262           54107                           TS       POLISH                                #  POWER SERIES ADDRESS
001107:    7263           22130                           LXCH     POLYCNT                               #  N-1 TO COUNTER
001108:    7264           17275                           TCF      POLYCOM                               #  SKIP SET UP BY POLY
001109:
001110:    7265           50002        POLY               INDEX    Q
001111:    7266           30000                           CAF      0
001112:    7267           54130                           TS       POLYCNT                               #  N-1 TO COUNTER
001113:    7270           60000                           DOUBLE
001114:    7271           60002                           AD       Q
001115:    7272           54107                           TS       POLISH                                #  L(A(N))-3 TO POLISH
001116:    7273           67760                           AD       FIVE
001117:    7274           54131                           TS       POLYRET                               #  STORE RETURN ADDRESS
001118:
001119:    7275           35365        POLYCOM            CAF      LVBUF                                 #  INCOMING X WILL BE MOVED TO VBUF, SO
001120:    7276           54106                           TS       ADDRWD                                #  SET ADDRWD SO DMPSUB WILL MPY BY VBUF.
001121:
001122:
001123:    7277           00006                           EXTEND
001124:    7300           50107                           INDEX    POLISH
001125:    7301           30004                           DCA      3
001126:


001128:    7302           52145                           DXCH     MPAC                                  #  LOAD A(N) INTO MPAC,
001129:    7303           52113                           DXCH     VBUF                                  #  SAVING X IN VBUF
001130:    7304           17310                           TCF      POLY2
001131:
001132:    7305           54130        POLYLOOP           TS       POLYCNT                               #  SAVE DECREMENTED LOOP COUNTER
001133:    7306           47754                           CS       TWO
001134:    7307           26107                           ADS      POLISH                                #  REGRESS COEFFICIENT POINTER
001135:
001136:
001137:    7310           07152        POLY2              TC       DMPSUB                                #  MULTIPLY BY X
001138:    7311           00006                           EXTEND
001139:    7312           50107                           INDEX    POLISH
001140:    7313           30002                           DCA      1                                     #  ADD IN NEXT COEFFICIENT
001141:    7314           20145                           DAS      MPAC                                  #  USERS RESPONSIBILITY TO ASSURE NO OVFLOW
001142:
001143:    7315           10130                           CCS      POLYCNT
001144:    7316           17305                           TCF      POLYLOOP
001145:    7317           00131                           TC       POLYRET                               #  RETURN CALLER
001146:


001148:                                                                                                  #           MISCELLANEOUS MULTI-PRECISION ROUTINES REQUIRED IN FIXED-FIXED BUT NOT USED BY THE INTERPRETER.
001149:
001150:    7320           00006        TPAGREE            EXTEND                                         #  FORCE SIGN AGREEMENT AMONG THE TRIPLE-
001151:    7321           22120                           QXCH     BUF                                   #  PRECISION CONTENTS OF MPAC, RETURNING
001152:    7322           06772                           TC       BRANCH                                #  WITH THE SIGNUM OF THE INPUT IN A.
001153:    7323           17327                           TCF      ARG+
001154:    7324           17347                           TCF      ARGZERO
001155:
001156:    7325           47735                           CS       POSMAX                                #  IF NEGATIVE.
001157:    7326           17330                           TCF      +2
001158:
001159:    7327           37735        ARG+               CAF      POSMAX
001160:    7330           54121                 +2        TS       BUF        +1
001161:    7331           00006                           EXTEND
001162:
001163:    7332           24000                           AUG      A                                     #  FORMS +-1.0.
001164:    7333           60146                           AD       MPAC       +2
001165:    7334           54146                           TS       MPAC       +2
001166:    7335           37761                           CAF      ZERO
001167:    7336           60121                           AD       BUF        +1
001168:    7337           60145                           AD       MPAC       +1
001169:    7340           54145                           TS       MPAC       +1
001170:    7341           37761                           CAF      ZERO
001171:    7342           60121                           AD       BUF        +1
001172:    7343           60144                           AD       MPAC
001173:
001174:    7344           54144        ARGZERO2           TS       MPAC                                  #  ALWAYS SKIPPING UNLESS ARGZERO.
001175:    7345           54145                           TS       MPAC       +1
001176:    7346           00120                           TC       BUF                                   #  RETURN.
001177:
001178:    7347           54146        ARGZERO            TS       MPAC       +2                         #  SET ALL THREE MPAC REGISTERS TO ZERO.
001179:    7350           17344                           TCF      ARGZERO2
001180:
001181:                                                                                                  #           SHORTMP MULTIPLIES THE TP CONTENTS OF MPAC BY THE SINGLE PRECISION NUMBER ARRIVING IN A.
001182:
001183:    7351           54125        SHORTMP            TS       MPTEMP
001184:    7352           00006                           EXTEND
001185:    7353           70146                           MP       MPAC       +2
001186:
001187:    7354           54146                           TS       MPAC       +2
001188:    7355           37761                           CAF      ZERO                                  #  SO SUBSEQUENT DAS WILL WORK.
001189:    7356           56145                           XCH      MPAC       +1
001190:    7357           00006                           EXTEND
001191:    7360           70125                           MP       MPTEMP
001192:    7361           20146                           DAS      MPAC       +1
001193:    7362           56144                           XCH      MPAC                                  #  SETTING MPAC TO 0.
001194:    7363           00006                           EXTEND
001195:    7364           70125                           MP       MPTEMP
001196:    7365           20145                           DAS      MPAC
001197:
001198:    7366           00002                           TC       Q
001199:


001201:                                                                                                  #         DMPNSUB MULTIPLIES THE DP FRACTION ARRIVING IN MPAC BY THE SP
001202:                                                                                                  #  INTEGER ARRIVING IN A.  THE DP PRODUCT DEPARTS BOTH IN MPAC AND IN
001203:                                                                                                  #  A AND L.  NOTE THAT DMPNSUB NORMALLY INCREASES THE MAGNITUDE OF THE
001204:                                                                                                  #  CONTENTS OF MPAC.  THE CUSTOMER MUST INSURE THAT B(A) X B(MPAC,MPAC+1)
001205:                                                                                                  #  AND B(A) X B(MPAC) ARE LESS THAN 1 IN MAGNITUDE, WHERE B, AS IS OBVIOUS,
001206:                                                                                                  #  INDICATES THE ARRIVING CONTENTS.
001207:
001208:
001209:    7367           54125        DMPNSUB            TS       DMPNTEMP
001210:    7370           00006                           EXTEND
001211:    7371           70145                           MP       MPAC       +1
001212:    7372           52145                           DXCH     MPAC                                  #  LOW PRODUCT TO MPAC, HIGH FACTOR TO A
001213:    7373           00006                           EXTEND
001214:    7374           70125                           MP       DMPNTEMP
001215:    7375           30001                           CA       L
001216:    7376           26144                           ADS      MPAC                                  #  COMPLETING THE PRODUCT IN MPAC
001217:    7377           00006                           EXTEND
001218:    7400           30145                           DCA      MPAC                                  #  BRINGING THE PRODUCT INTO A AND L
001219:    7401           00002                           TC       Q
001220:


001222:                                                                                                  #  MISCELLANEOUS VECTOR OPERATIONS. INCLUDED HERE ARE THE FOLLOWING:
001223:
001224:
001225:                                                                                                  #           1.  DOT                DP VECTOR DOT PRODUCT.
001226:                                                                                                  #           2.  VXV                DP VECTOR CROSS PRODUCT.
001227:                                                                                                  #           3.  VXSC               DP VECTOR TIMES SCALAR.
001228:                                                                                                  #           4.  V/SC               DP VECTOR DIVIDED BY SCALAR.
001229:                                                                                                  #           5.  VPROJ              DP VECTOR PROJECTION.  ( (MPAC.X)MPAC ).
001230:                                                                                                  #           6.  VXM                DP VECTOR POST-MULTIPLIED BY MATRIX.
001231:                                                                                                  #           7.  MXV                DP VECTOR PRE-MULTIPLIED BY MATRIX.
001232:
001233:
001234:
001235:    7402           07217        DOT                TC       PREDOT                                #  DO THE DOT PRODUCT AND EXIT, CHANGING
001236:    7403           37761                           CAF      ZERO                                  #  THE MODE TO DP SCALAR.
001237:    7404           16114                           TCF      NEWMODE
001238:
001239:
001240:
001241:    7405           37754        MXV                CAF      TWO                                   #  SET UP MATINC AND DOTINC FOR ROW
001242:    7406           54130                           TS       MATINC                                #  VECTORS.
001243:    7407           17413                           TCF      VXM/MXV                               #  GO TO COMMON PORTION.
001244:
001245:    7410           44557        VXM                CS       TEN                                   #  SET MATINC AND DOTINC TO REFER TO MATRIX
001246:    7411           54130                           TS       MATINC                                #  AS THREE COLUMN VECTORS.
001247:    7412           36276                           CAF      SIX
001248:


001250:                                                                                                  #           COMMON PORTION OF MXV AND VXM.
001251:
001252:    7413           54126        VXM/MXV            TS       DOTINC
001253:                                                                                                  #           ITRACE (2) REFERS TO "VXM/MXV".
001254:    7414           07604                           TC       MPACVBUF                              #  SAVE VECTOR IN MPAC FOR FURTHER USE.
001255:
001256:    7415           07221                           TC       DOTSUB                                #  GO DOT TO GET X COMPONENT OF ANSWER.
001257:    7416           00006                           EXTEND
001258:
001259:    7417           30113                           DCA      VBUF                                  #  MOVE MPAC VECTOR BACK INTO MPAC, SAVING
001260:    7420           52145                           DXCH     MPAC                                  #  NEW X COMPONENT IN BUF2.
001261:    7421           52124                           DXCH     BUF2
001262:    7422           00006                           EXTEND
001263:    7423           30115                           DCA      VBUF       +2
001264:    7424           52150                           DXCH     MPAC       +3
001265:    7425           00006                           EXTEND
001266:    7426           30117                           DCA      VBUF       +4
001267:    7427           52152                           DXCH     MPAC       +5
001268:    7430           30130                           CA       MATINC                                #  INITIALIZE ADDRWD FOR NEXT DOT PRODUCT.
001269:
001270:    7431           26106                           ADS      ADDRWD                                #  FORMS BASE ADDRESS OF NEXT COLUMN(ROW).
001271:
001272:    7432           07221                           TC       DOTSUB
001273:    7433           52113                           DXCH     VBUF                                  #  MOVE GIVEN VECTOR BACK TO MPAC, SAVING Y
001274:    7434           52145                           DXCH     MPAC                                  #  COMPONENT OF ANSWER IN VBUF +2.
001275:    7435           52115                           DXCH     VBUF       +2
001276:    7436           52150                           DXCH     MPAC       +3
001277:    7437           52117                           DXCH     VBUF       +4
001278:    7440           52152                           DXCH     MPAC       +5
001279:    7441           30130                           CA       MATINC                                #  FORM ADDRESS OF LAST COLUMN OR ROW.
001280:    7442           26106                           ADS      ADDRWD
001281:
001282:    7443           07221                           TC       DOTSUB
001283:    7444           52124                           DXCH     BUF2                                  #  ANSWER NOW COMPLETE. PUT COMPONENTS INTO
001284:    7445           52145                           DXCH     MPAC                                  #  PROPER MPAC REGISTERS.
001285:    7446           52152                           DXCH     MPAC       +5
001286:    7447           52115                           DXCH     VBUF       +2
001287:    7450           52150                           DXCH     MPAC       +3
001288:    7451           16115                           TCF      DANZIG                                #  EXIT.
001289:


001291:                                                                                                  #           VXSC - VECTOR TIMES SCALAR.
001292:
001293:    7452           10153        VXSC               CCS      MODE                                  #  TEST PRESENT MODE.
001294:    7453           17501                           TCF      DVXSC                                 #  SEPARATE ROUTINE WHEN SCALAR IS IN MPAC.
001295:    7454           17501                           TCF      DVXSC
001296:
001297:    7455           07152        VVXSC              TC       DMPSUB                                #  COMPUTE X COMPONENT
001298:    7456           07203                           TC       VROUND                                #  AND ROUND IT.
001299:    7457           52150                           DXCH     MPAC       +3                         #  PUT Y COMPONENT INTO MPAC SAVING MPAC IN
001300:    7460           52145                           DXCH     MPAC                                  #  MPAC +3.
001301:    7461           52150                           DXCH     MPAC       +3
001302:
001303:    7462           07152                           TC       DMPSUB                                #  DO SAME FOR Y AND Z COMPONENTS.
001304:    7463           07203                           TC       VROUND
001305:
001306:    7464           52152                           DXCH     MPAC       +5
001307:    7465           52145                           DXCH     MPAC
001308:    7466           52152                           DXCH     MPAC       +5
001309:
001310:    7467           07152                           TC       DMPSUB
001311:    7470           07203                           TC       VROUND
001312:    7471           52145        VROTATEX           DXCH     MPAC                                  #  EXIT USED TO RESTORE MPAC AFTER THIS
001313:    7472           52152                           DXCH     MPAC       +5                         #  TYPE OF ROTATION. CALLED BY VECTOR SHIFT
001314:    7473           52150                           DXCH     MPAC       +3                         #  RIGHT, V/SC, ETC.
001315:    7474           52145                           DXCH     MPAC
001316:
001317:    7475           16115                           TCF      DANZIG
001318:


001320:                                                                                                  #           DP VECTOR PROJECTION ROUTINE.
001321:
001322:    7476           07217        VPROJ              TC       PREDOT                                #  (MPAC.X)MPAC IS COMPUTED AND LEFT IN
001323:    7477           47753                           CS       FOUR                                  #  MPAC. DO DOT AND FALL INTO DVXSC.
001324:    7500           26106                           ADS      ADDRWD
001325:
001326:                                                                                                  #           VXSC WHEN SCALAR ARRIVES IN MPAC AND VECTOR IS AT X.
001327:
001328:    7501           00006        DVXSC              EXTEND                                         #  SAVE SCALAR IN MPAC +3 AND GET X
001329:    7502           30145                           DCA      MPAC                                  #  COMPONENT OF ANSWER.
001330:    7503           52150                           DXCH     MPAC       +3
001331:    7504           07152                           TC       DMPSUB
001332:    7505           07203                           TC       VROUND
001333:
001334:    7506           37754                           CAF      TWO                                   #  ADVANCE ADDRWD TO Y COMPONENT OF X.
001335:    7507           26106                           ADS      ADDRWD
001336:    7510           00006                           EXTEND
001337:    7511           30150                           DCA      MPAC       +3                         #  PUT SCALAR BACK INTO MPAC AND SAVE
001338:    7512           52145                           DXCH     MPAC                                  #  X RESULT IN MPAC +5.
001339:
001340:    7513           52152                           DXCH     MPAC       +5
001341:    7514           07152                           TC       DMPSUB
001342:    7515           07203                           TC       VROUND
001343:
001344:    7516           37754                           CAF      TWO
001345:    7517           26106                           ADS      ADDRWD                                #  TO Z COMPONENT.
001346:    7520           52150                           DXCH     MPAC       +3                         #  BRING SCALAR BACK, PUTTING Y RESULT IN
001347:    7521           52145                           DXCH     MPAC                                  #  THE PROPER PLACE.
001348:    7522           52150                           DXCH     MPAC       +3
001349:    7523           07152                           TC       DMPSUB
001350:
001351:    7524           07203                           TC       VROUND
001352:
001353:    7525           52145                           DXCH     MPAC                                  #  PUT Z COMPONENT IN PROPER PLACE, ALSO
001354:    7526           52152                           DXCH     MPAC       +5                         #  POSITIONING X.
001355:    7527           52145                           DXCH     MPAC
001356:
001357:    7530           47755                           CS       ONE                                   #  MODE HAS CHANGED TO VECTOR.
001358:    7531           16114                           TCF      NEWMODE
001359:


001361:                                                                                                  #           THE VECTOR CROSS PRODUCT ROUTINE CALCULATES (X M -X M ,X M -X M ,X M -X M ) WHERE M IS THE VECTOR IN
001362:                                                                                                  #                                                         3 2  2 3  1 3  3 1  2 1  1 2
001363:
001364:                                                                                                  #  MPAC AND X THE VECTOR AT THE GIVEN ADDRESS.
001365:
001366:
001367:
001368:    7532           00006        VXV                EXTEND
001369:    7533           30152                           DCA      MPAC       +5                         #  FORM UP M3X1, LEAVING M1 IN VBUF.
001370:    7534           52145                           DXCH     MPAC
001371:    7535           52113                           DXCH     VBUF
001372:    7536           07152                           TC       DMPSUB                                #  BY X1.
001373:
001374:    7537           00006                           EXTEND
001375:    7540           40150                           DCS      MPAC       +3                         #  CALCULATE -X1M2, SAVING X1M3 IN VBUF +2.
001376:    7541           52145                           DXCH     MPAC
001377:    7542           52115                           DXCH     VBUF       +2
001378:    7543           07152                           TC       DMPSUB
001379:
001380:    7544           37754                           CAF      TWO                                   #  ADVANCE ADDRWD TO X2.
001381:    7545           26106                           ADS      ADDRWD
001382:    7546           00006                           EXTEND
001383:    7547           40152                           DCS      MPAC       +5                         #  PREPARE TO GET -X2M3, SAVING -X1M2 IN
001384:    7550           52145                           DXCH     MPAC                                  #  MPAC +5.
001385:    7551           52152                           DXCH     MPAC       +5
001386:    7552           07152                           TC       DMPSUB
001387:
001388:
001389:    7553           00006                           EXTEND
001390:    7554           30113                           DCA      VBUF                                  #  GET X2M1, SAVING -X2M3 IN VBUF +4.
001391:    7555           52145                           DXCH     MPAC
001392:    7556           52117                           DXCH     VBUF       +4
001393:    7557           07152                           TC       DMPSUB
001394:
001395:    7560           37754                           CAF      TWO                                   #  ADVANCE ADDRWD TO X3.
001396:    7561           26106                           ADS      ADDRWD
001397:    7562           00006                           EXTEND
001398:
001399:    7563           40113                           DCS      VBUF                                  #  GET -X3M1, ADDING X2M1 TO MPAC +5 TO
001400:    7564           52145                           DXCH     MPAC                                  #  COMPLETE THE Z COMPONENT OF THE ANSWER.
001401:    7565           20152                           DAS      MPAC       +5
001402:
001403:    7566           00006                           EXTEND
001404:    7567           17571                           BZF      +2
001405:    7570           07072                           TC       OVERFLOW


001407:    7571           07152                           TC       DMPSUB
001408:    7572           52115                           DXCH     VBUF       +2                         #  MOVE X1M3 TO MPAC +3 SETTING UP FOR X3M2
001409:    7573           52150                           DXCH     MPAC       +3                         #  AND ADD -X3M1 TO MPAC +3 TO COMPLETE THE
001410:    7574           52145                           DXCH     MPAC                                  #  Y COMPONENT OF THE RESULT.
001411:    7575           20150                           DAS      MPAC       +3
001412:
001413:    7576           00006                           EXTEND
001414:    7577           17601                           BZF      +2
001415:
001416:    7600           07072                           TC       OVERFLOW
001417:
001418:    7601           07152                           TC       DMPSUB
001419:    7602           52117                           DXCH     VBUF       +4                         #  GO ADD -X2M3 TO X3M2 TO COMPLETE THE X
001420:    7603           17037                           TCF      ENDVXV                                #  COMPONENT (TAIL END OF DAD).
001421:
001422:                                                                                                  #           THE MPACVBUF SUBROUTINE SAVES THE VECTOR IN MPAC IN VBUF WITHOUT CLOBBERING MPAC.
001423:
001424:    7604           00006        MPACVBUF           EXTEND                                         #  CALLED BY MXV, VXM, AND UNIT.
001425:    7605           30145                           DCA      MPAC
001426:
001427:    7606           52113                           DXCH     VBUF
001428:    7607           00006                           EXTEND
001429:    7610           30150                           DCA      MPAC       +3
001430:    7611           52115                           DXCH     VBUF       +2
001431:    7612           00006                           EXTEND
001432:    7613           30152                           DCA      MPAC       +5
001433:    7614           52117                           DXCH     VBUF       +4
001434:    7615           00002                           TC       Q                                     #  RETURN TO CALLER.
001435:


001437:                                                                                                  #           INTERPRETIVE INSTRUCTIONS WHOSE EXECUTION CONSISTS OF PRINCIPALLY CALLING SUBROUTINES.
001438:
001439:    7616           07152        DMP1               TC       DMPSUB                                #  DMP INSTRUCTION.
001440:    7617           16115                           TCF      DANZIG
001441:
001442:    7620           07152        DMPR               TC       DMPSUB
001443:    7621           07202                           TC       ROUNDSUB   +1                         #  (C(A) = +0).
001444:    7622           16115                           TCF      DANZIG
001445:
001446:    7623           00006        DDV                EXTEND
001447:    7624           50106                           INDEX    ADDRWD                                #  MOVE DIVIDEND INTO BUF.
001448:    7625           30001                           DCA      0
001449:    7626           17633                           TCF      BDDV       +4
001450:
001451:
001452:    7627           00006        BDDV               EXTEND                                         #  MOVE DIVISOR INTO MPAC SAVING MPAC, THE
001453:    7630           50106                           INDEX    ADDRWD                                #  DIVIDEND, IN BUF.
001454:    7631           30001                           DCA      0
001455:    7632           52145                           DXCH     MPAC
001456:    7633           52121                 +4        DXCH     BUF
001457:    7634           37761                           CAF      ZERO                                  #  DIVIDE ROUTINES IN BANK 0.
001458:    7635           54004                           TS       FBANK
001459:    7636           12352                           TCF      DDV/BDDV
001460:
001461:    7637           30106        SETPD              CA       ADDRWD                                #  MUST SET TO WORK AREA, OR EBANK TROUBLE.
001462:
001463:    7640           54156                           TS       PUSHLOC
001464:    7641           16117                           TCF      NOIBNKSW                              #  NO FBANK SWITCH REQUIRED.
001465:
001466:    7642           37761        TSLC               CAF      ZERO                                  #  SHIFTING ROUTINES LOCATED IN BANK 00.
001467:    7643           54004                           TS       FBANK
001468:    7644           12172                           TCF      TSLC2
001469:
001470:    7645           36130        GSHIFT             CAF      LOW7                                  #  USED AS MASK AT GENSHIFT. THIS PROCESSES
001471:    7646           54004                           TS       FBANK                                 #  ANY SHIFT INSTRUCTION (EXCEPT TSLC) WITH
001472:    7647           12214                           TCF      GENSHIFT                              #  AN ADDRESS (ROUTINES IN BANK 0).
001473:


001475:                                                                                                  #           THE FOLLOWING IS THE PROLOGUE TO V/SC. IF THE PRESENT MODE IS VECTOR, IT SAVES THE SCALAR AT X IN BUF
001476:                                                                                                  #  AND CALLS THE V/SC ROUTINE IN BANK 0. IF THE PRESENT MODE IS SCALAR, IT MOVES THE VECTOR AT X INTO MPAC, SAVING
001477:                                                                                                  #  THE SCALAR IN MPAC IN BUF BEFORE CALLING THE V/SC ROUTINE IN BANK 0.
001478:
001479:
001480:
001481:    7650           10153        V/SC               CCS      MODE
001482:    7651           17662                           TCF      DV/SC                                 #  MOVE VECTOR INTO MPAC.
001483:    7652           17662                           TCF      DV/SC
001484:
001485:    7653           00006        VV/SC              EXTEND
001486:    7654           50106                           INDEX    ADDRWD
001487:    7655           30001                           DCA      0
001488:    7656           52121        V/SC1              DXCH     BUF                                   #  IN BOTH CASES, VECTOR IS NOW IN MPAC AND
001489:    7657           37761                           CAF      ZERO                                  #  SCALAR IN BUF.
001490:    7660           54004                           TS       FBANK
001491:    7661           12616                           TCF      V/SC2
001492:
001493:    7662           00006        DV/SC              EXTEND
001494:
001495:    7663           50106                           INDEX    ADDRWD
001496:    7664           30003                           DCA      2
001497:    7665           52150                           DXCH     MPAC       +3
001498:    7666           00006                           EXTEND
001499:    7667           50106                           INDEX    ADDRWD
001500:    7670           30005                           DCA      4
001501:    7671           52152                           DXCH     MPAC       +5
001502:
001503:    7672           47755                           CS       ONE                                   #  CHANGE MODE TO VECTOR.
001504:    7673           54153                           TS       MODE
001505:
001506:    7674           00006                           EXTEND
001507:    7675           50106                           INDEX    ADDRWD
001508:    7676           30001                           DCA      0
001509:    7677           52145                           DXCH     MPAC
001510:    7700           17656                           TCF      V/SC1                                 #  FINISH PROLOGUE AT COMMON SECTION.
001511:


001513:                                                                                                  #           SIGN AND COMPLEMENT INSTRUCTIONS.
001514:
001515:
001516:    7701           50106        SIGN               INDEX    ADDRWD                                #  CALL COMP INSTRUCTION IF WORD AT X IS
001517:    7702           10000                           CCS      0                                     #  NEGATIVE NON-ZERO.
001518:    7703           16115                           TCF      DANZIG
001519:    7704           17706                           TCF      +2
001520:    7705           17714                           TCF      COMP                                  #  DO THE COMPLEMENT.
001521:
001522:    7706           50106                           INDEX    ADDRWD
001523:    7707           10001                           CCS      1
001524:    7710           16115                           TCF      DANZIG
001525:    7711           16115                           TCF      DANZIG
001526:
001527:    7712           17714                           TCF      COMP
001528:    7713           16115                           TCF      DANZIG
001529:    7714           00006        COMP               EXTEND                                         #  COMPLEMENT DP MPAC IN EVERY CASE.
001530:    7715           40145                           DCS      MPAC
001531:    7716           52145                           DXCH     MPAC
001532:
001533:    7717           10153                           CCS      MODE                                  #  EITHER COMPLEMENT MPAC +3 OR THE REST OF
001534:    7720           17731                           TCF      DCOMP                                 #  THE VECTOR ACCUMULATOR.
001535:    7721           17731                           TCF      DCOMP
001536:
001537:    7722           00006                           EXTEND                                         #  VECTOR COMPLEMENT.
001538:    7723           40150                           DCS      MPAC       +3
001539:
001540:    7724           52150                           DXCH     MPAC       +3
001541:    7725           00006                           EXTEND
001542:    7726           40152                           DCS      MPAC       +5
001543:    7727           52152                           DXCH     MPAC       +5
001544:    7730           16115                           TCF      DANZIG
001545:
001546:    7731           40146        DCOMP              CS       MPAC       +2
001547:    7732           54146                           TS       MPAC       +2
001548:    7733           16115                           TCF      DANZIG
001549:


001551:                                                                                                  #           CONSTANTS REQUIRED IN FIXED-FIXED.
001552:    7734           37777        DPOSMAX            OCT      37777
001553:    7735           37777        POSMAX             OCT      37777
001554:    7736     7736               LIMITS             EQUALS   POSMAX     +1
001555:    7736           57777        NEG1/2             OCT      -20000                                #  MUST BE TWO LOCATIONS AHEAD OF POS1/2.
001556:
001557:    7737           40000        BIT15              OCT      40000                                 #  BIT TABLE FOLLOWS.
001558:
001559:    7740           20000        BIT14              OCT      20000
001560:    7741           10000        BIT13              OCT      10000
001561:    7742           04000        BIT12              OCT      04000
001562:    7743           02000        BIT11              OCT      02000
001563:    7744           01000        BIT10              OCT      01000
001564:    7745           00400        BIT9               OCT      00400
001565:    7746           00200        BIT8               OCT      00200
001566:    7747           00100        BIT7               OCT      00100
001567:    7750           00040        BIT6               OCT      00040
001568:    7751           00020        BIT5               OCT      00020
001569:
001570:    7752           00010        BIT4               OCT      00010
001571:    7753           00004        BIT3               OCT      00004
001572:    7754           00002        BIT2               OCT      00002
001573:    7755           00001        BIT1               OCT      00001
001574:
001575:    7756     7737               NEGMAX             EQUALS   BIT15
001576:    7756     7740               HALF               EQUALS   BIT14
001577:    7756     7740               POS1/2             EQUALS   HALF
001578:    7756     7741               QUARTER            EQUALS   BIT13
001579:    7756     7743               2K                 EQUALS   BIT11
001580:    7756           00013        ELEVEN             DEC      11         B-14
001581:    7757     7756               NOUTCON            =        ELEVEN
001582:
001583:    7757     4557               TEN                =        BINCON
001584:    7757     4517               NINE               =        R2D1
001585:    7757     7752               EIGHT              EQUALS   BIT4
001586:    7757           00007        SEVEN              OCT      7
001587:    7760     6276               SIX                EQUALS   REVCNT
001588:    7760           00005        FIVE               OCT      5
001589:    7761     7753               FOUR               EQUALS   BIT3
001590:    7761     6301               THREE              EQUALS   OCTAL3
001591:    7761     7754               TWO                EQUALS   BIT2
001592:    7761     7755               ONE                EQUALS   BIT1
001593:
001594:    7761           00000        ZERO               OCT      0
001595:    7762           77777        NEG0               OCT      77777
001596:    7763           77776        NEGONE             DEC      -1         B-14
001597:
001598:    7764     7763               NEG1               =        NEGONE
001599:    7764     7763               MINUS1             EQUALS   NEG1
001600:
001601:    5355                                           BLOCK    02
001602:
001603:    5355           77775        NEG2               OCT      77775


001605:    5356           01777        LOW10              OCT      1777
001606:
001607:    5357           77774        NEG3               DEC      -3         B-14
001608:    5360           00777        LOW9               OCT      777
001609:    5361           00017        LOW4               OCT      17
001610:    5362     7757               LOW3               EQUALS   SEVEN
001611:    5362     6301               LOW2               EQUALS   THREE
001612:
001613:    5362           00032        CALLCODE           OCT      00032
001614:    5363           40014        DLOADCOD           OCT      40014
001615:    5364     7737               VLOADCOD           EQUALS   BIT15
001616:    5364           40015        DLOAD*             OCT      40015
001617:    5365     6143               VLOAD*             EQUALS   OCT40001
001618:    5365           00112        LVBUF              ADRES    VBUF
001619:
001620:    5366     5226               BIT13-14           =        PRIO30
001621:                                                                                                  #  THERE ARE FOUR POSSIBLE SETTINGS FOR CHANNEL 07 (WNACTV) FOR ACCESSING THE EVENTUALLY THREE AND ONE-HALF
001622:                                                                                                  #  PRESENTLY ONE AND ONE-HALF SUPERBANKS.
001623:
001624:    5366           00060        SUPER011           OCT      60                                    #  BITS FOR SUPERBNK SETTING 011
001625:    5367     7747               SUPER100           EQUALS   BIT7                                  #  BITS FOR SUPERBNK SETTING 100
001626:                                                                                                  #                                                                  (LAST 4K OF ROPE)
001627:                                                                                                  #  SUPER101        OCT             120                             BITS FOR SUPERBNK SETTING 101
001628:                                                                                                  #                                                                  (FIRST 8K OF ACM)
001629:                                                                                                  #  SUPER110        OCT             140                             BITS FOR SUPERBNK SETTING 110
001630:
001631:                                                                                                  #                                                                  (LAST 8K OF ACM)
001632:    5367           74000        HIGH4              OCT      74000
001633:    5370           01400        OCT1400            OCT      01400
001634:    5371           00055        DEC45              DEC      45         B-14
001635:


001637:                                                                                                  #           THE FOLLOWING SHORT SHIFT CODES REQUIRE NO ADDRESS WORD:
001638:
001639:                                                                                                  #           1.  SR1 TO SR4         SCALAR SHIFT RIGHT.
001640:                                                                                                  #           2.  SR1R TO SR4R       SCALAR SHIFT RIGHT AND ROUND.
001641:                                                                                                  #           3.  SL1 TO SL4         SCALAR SHIFT LEFT.
001642:                                                                                                  #           4.  SL1R TO SL4R       SCALAR SHIFT LEFT AND ROUND.
001643:
001644:                                                                                                  #           5.  VSR1 TO VSR8       VECTOR SHIFT RIGHT (ALWAYS ROUNDS).
001645:                                                                                                  #           6.  VSL1 TO VSL8       VECTOR SHIFT LEFT (NEVER ROUNDS).
001646:
001647:                                                                                                  #           THE FOLLOWING CODES REQUIRE AN ADDRESS WHICH MAY BE INDEXED:*
001648:
001649:                                                                                                  #           1.  SR                 SCALAR SHIFT RIGHT.
001650:                                                                                                  #           2.  SRR                SCALAR SHIFT RIGHT AND ROUND.
001651:                                                                                                  #           3.  SL                 SCALAR SHIFT LEFT.
001652:                                                                                                  #           4.  SLR                SCALAR SHIFT LEFT AND ROUND.
001653:
001654:                                                                                                  #           5.  VSR                VECTOR SHIFT RIGHT.
001655:                                                                                                  #           6.  VSL                VECTOR SHIFT LEFT.
001656:
001657:
001658:                                                                                                  #  *  IF THE ADDRESS IS INDEXED, AND THE INDEX MODIFICATION RESULTS IN A NEGATIVE SHIFT COUNT, A SHIFT OF THE
001659:                                                                                                  #  ABSOLUTE VALUE OF THE COUNT IS DONE IN THE OPPOSITE DIRECTION.
001660:
001661:
001662:
001663: 00,2017                                           BANK     00
001664:
001665: 00,2017           36276        SHORTT             CAF      SIX                                   #  SCALAR SHORT SHIFTS COME HERE. THE SHIFT
001666: 00,2020           70020                           MASK     CYR                                   #  COUNT-1 IS NOW IN BITS 2-3 OF CYR. THE
001667:
001668: 00,2021           54021                           TS       SR                                    #  ROUNDING BIT IS IN BIT1 AT THIS POINT.
001669:
001670: 00,2022           10020                           CCS      CYR                                   #  SEE IF RIGHT OR LEFT SHIFT DESIRED.
001671: 00,2023           12101                           TCF      TSSL                                  #  SHIFT LEFT.
001672:
001673: 00,2024           00024        SRDDV              DEC      20         B-14                       #  MPTEMP SETTING FOR SR BEFORE DDV.
001674:
001675: 00,2025           50021        TSSR               INDEX    SR                                    #  GET SHIFTING BIT.
001676: 00,2026           37740                           CAF      BIT14
001677: 00,2027           54125                           TS       MPTEMP
001678:
001679: 00,2030           10020                           CCS      CYR                                   #  SEE IF A ROUND IS DESIRED.
001680:
001681: 00,2031           02050        RIGHTR             TC       MPACSRND                              #  YES - SHIFT RIGHT AND ROUND.
001682: 00,2032           16114                           TCF      NEWMODE                               #  SET MODE TO DP (C(A) = 0).
001683: 00,2033           30125        MPACSHR            CA       MPTEMP                                #  DO A TRIPLE PRECISION SHIFT RIGHT.
001684: 00,2034           00006                           EXTEND
001685: 00,2035           70146                           MP       MPAC       +2
001686: 00,2036           54146                 +3        TS       MPAC       +2                         #  (EXIT FROM SQRT AND ABVAL).
001687: 00,2037           30125                           CA       MPTEMP
001688: 00,2040           00006                           EXTEND
001689: 00,2041           70144                           MP       MPAC                                  #  SHIFT MAJOR PART INTO A,L AND PLACE IN


001691: 00,2042           52145                           DXCH     MPAC                                  #  MPAC,+1.
001692: 00,2043           30125                           CA       MPTEMP
001693:
001694: 00,2044           00006                           EXTEND
001695: 00,2045           70001                           MP       L                                     #  ORIGINAL C(MPAC +1).
001696: 00,2046           20146                           DAS      MPAC       +1                         #  GUARANTEED NO OVERFLOW.
001697: 00,2047           16115                           TCF      DANZIG
001698:
001699:                                                                                                  #           MPAC SHIFT RIGHT AND ROUND SUBROUTINES.
001700:
001701: 00,2050           30146        MPACSRND           CA       MPAC       +2                         #  WE HAVE TO DO ALL THREE MULTIPLIES SINCE
001702: 00,2051           00006                           EXTEND                                         #  MPAC +1 AND MPAC +2 MIGHT HAVE SIGN
001703: 00,2052           70125                           MP       MPTEMP                                #  DISAGREEMENT WITH A SHIFT RIGHT OF 1.
001704:
001705: 00,2053           56145                           XCH      MPAC       +1
001706: 00,2054           00006                           EXTEND
001707: 00,2055           70125                           MP       MPTEMP
001708: 00,2056           56145                           XCH      MPAC       +1                         #  TRIAL MINOR PART.
001709: 00,2057           60001                           AD       L
001710:
001711: 00,2060           60000        VSHR2              DOUBLE                                         #  (FINISH VECTOR COMPONENT SHIFT RIGHT
001712: 00,2061           54146                           TS       MPAC       +2                         #  AND ROUND.
001713: 00,2062           12064                           TCF      +2
001714: 00,2063           26145                           ADS      MPAC       +1                         #  GUARANTEED NO OVERFLOW.
001715:
001716: 00,2064           37761                           CAF      ZERO
001717:
001718: 00,2065           54146                           TS       MPAC       +2
001719: 00,2066           56144                           XCH      MPAC                                  #  SETTING TO ZERO SO FOLLOWING DAS WORKS.
001720: 00,2067           00006                           EXTEND
001721: 00,2070           70125                           MP       MPTEMP
001722: 00,2071           20145                           DAS      MPAC                                  #  AGAIN NO OVERFLOW.
001723: 00,2072           00002                           TC       Q
001724:
001725: 00,2073           30125        VSHRRND            CA       MPTEMP                                #  ENTRY TO SHIFT RIGHT AND ROUND MPAC WHEN
001726: 00,2074           00006                           EXTEND                                         #  MPAC CONTAINS A VECTOR COMPONENT.
001727: 00,2075           70145                           MP       MPAC       +1
001728:
001729: 00,2076           54145                           TS       MPAC       +1
001730: 00,2077           56001                           XCH      L
001731: 00,2100           12060                           TCF      VSHR2                                 #  GO ADD ONE IF NECESSARY AND FINISH.
001732:


001734:                                                                                                  #           ROUTINE FOR SHORT SCALAR SHIFT LEFT (AND MAYBE ROUND).
001735:
001736: 00,2101           30021        TSSL               CA       SR                                    #  GET SHIFT COUNT FOR SR.
001737: 00,2102           54125                 +1        TS       MPTEMP
001738:
001739: 00,2103           00006                 +2        EXTEND                                         #  ENTRY HERE FROM SL FOR SCALARS.
001740: 00,2104           30146                           DCA      MPAC       +1                         #  SHIFTING LEFT ONE PLACE AT A TIME IS
001741: 00,2105           20146                           DAS      MPAC       +1                         #  FASTER THAN DOING THE WHOLE SHIFT WITH
001742:
001743: 00,2106           60144                           AD       MPAC                                  #  MULTIPLIES ASSUMING THAT FREQUENCY OF
001744: 00,2107           60144                           AD       MPAC                                  #  SHIFT COUNTS GOES DOWN RAPIDLY AS A
001745: 00,2110           54144                           TS       MPAC                                  #  FUNCTION OF THEIR MAGNITUDE.
001746: 00,2111           12113                           TCF      +2
001747: 00,2112           54111                           TS       OVFIND                                #  OVERFLOW. (LEAVES OVERFLOW-CORRECTED
001748:                                                                                                  #  RESULT ANYWAY).
001749: 00,2113           10125                           CCS      MPTEMP                                #  LOOP ON DECREMENTED SHIFT COUNT.
001750: 00,2114           12102                           TCF      TSSL       +1
001751:
001752: 00,2115           10020                           CCS      CYR                                   #  SEE IF ROUND WANTED.
001753:
001754: 00,2116           07201        ROUND              TC       ROUNDSUB                              #  YES - ROUND AND EXIT.
001755: 00,2117           16115                           TCF      DANZIG                                #  SL LEAVES A ZERO IN CYR FOR NO ROUND.
001756: 00,2120           16115                           TCF      DANZIG                                #  NO - EXIT IMMEDIATL
001757:


001759:                                                                                                  #  VECTOR SHIFTING ROUTINES.
001760:
001761: 00,2121           37757        SHORTV             CAF      LOW3                                  #  SAVE 3 BIT SHIFT COUNT - 1 WITHOUT
001762: 00,2122           70020                           MASK     CYR                                   #  EDITING CYR.
001763: 00,2123           54125                           TS       MPTEMP
001764: 00,2124           10020                           CCS      CYR                                   #  SEE IF LEFT OR RIGHT SHIFT.
001765: 00,2125           12145                           TCF      VSSL                                  #  VECTOR SHIFT LEFT.
001766: 00,2126           00176        OCT176             OCT      176                                   #  USED IN PROCESSED SHIFTS WITH - COUNT.
001767:
001768: 00,2127           50125        VSSR               INDEX    MPTEMP                                #  (ENTRY FROM SR). PICK UP SHIFTING BIT.
001769: 00,2130           37740                           CAF      BIT14                                 #  MPTEMP CONTAINS THE SHIFT COUNT - 1.
001770: 00,2131           54125                           TS       MPTEMP
001771: 00,2132           02073                           TC       VSHRRND                               #  SHIFT X COMPONENT.
001772:
001773:
001774: 00,2133           52145                           DXCH     MPAC                                  #  SWAP X AND Y COMPONENTS.
001775: 00,2134           52150                           DXCH     MPAC       +3
001776: 00,2135           52145                           DXCH     MPAC
001777: 00,2136           02073                           TC       VSHRRND                               #  SHIFT Y COMPONENT.
001778:
001779: 00,2137           52145                           DXCH     MPAC                                  #  SWAP Y AND Z COMPONENTS.
001780: 00,2140           52152                           DXCH     MPAC       +5
001781: 00,2141           52145                           DXCH     MPAC
001782: 00,2142           02073                           TC       VSHRRND                               #  SHIFT Z COMPONENT.
001783:
001784: 00,2143           17471                           TCF      VROTATEX                              #  RESTORE COMPONENTS TO PROPER PLACES.
001785:


001787:                                                                                                  #  VECTOR SHIFT LEFT - DONE ONE PLACE AT A TIME.
001788:
001789: 00,2144           54125                 -1        TS       MPTEMP                                #  SHIFTING LOOP.
001790:
001791: 00,2145           00006        VSSL               EXTEND
001792: 00,2146           30145                           DCA      MPAC
001793:
001794: 00,2147           20145                           DAS      MPAC
001795: 00,2150           00006                           EXTEND
001796: 00,2151           12153                           BZF      +2
001797: 00,2152           07072                           TC       OVERFLOW
001798:
001799: 00,2153           00006                           EXTEND
001800: 00,2154           30150                           DCA      MPAC       +3
001801: 00,2155           20150                           DAS      MPAC       +3
001802: 00,2156           00006                           EXTEND
001803: 00,2157           12161                           BZF      +2
001804: 00,2160           07072                           TC       OVERFLOW
001805:
001806:
001807: 00,2161           00006                           EXTEND
001808: 00,2162           30152                           DCA      MPAC       +5
001809: 00,2163           20152                           DAS      MPAC       +5
001810: 00,2164           00006                           EXTEND
001811: 00,2165           12167                           BZF      +2
001812: 00,2166           07072                           TC       OVERFLOW
001813:
001814: 00,2167           10125                           CCS      MPTEMP                                #  LOOP ON DECREMENTED SHIFT COUNTER.
001815: 00,2170           12144                           TCF      VSSL       -1
001816: 00,2171           16115                           TCF      DANZIG                                #  EXIT.
001817:


001819:                                                                                                  #           TSLC - TRIPLE SHIFT LEFT AND COUNT. SHIFTS MPAC LEFT UNTIL GREATER THAN .5 IN MAGNITUDE, LEAVING
001820:                                                                                                  #  THE COMPLEMENT OF THE NUMBER OF SHIFTS REQUIRED IN X.
001821:
001822:
001823: 00,2172           54125        TSLC2              TS       MPTEMP                                #  START BY ZEROING SHIFT COUNT (IN A NOW).
001824: 00,2173           06772                           TC       BRANCH                                #  EXIT WITH NO SHIFTING IF ARGUMENT ZERO.
001825: 00,2174           12176                           TCF      +2
001826: 00,2175           12212                           TCF      ENDTSLC                               #  STORES ZERO SHIFT COUNT IN THIS CASE.
001827:
001828: 00,2176           07320                           TC       TPAGREE                               #  MAY CAUSE UPSHIFT OF ONE EXTRA PLACE.
001829:
001830: 00,2177           30144                           CA       MPAC                                  #  BEGIN NORMALIZATION LOOP.
001831: 00,2200           12207                           TCF      TSLCTEST
001832:
001833: 00,2201           24125        TSLCLOOP           INCR     MPTEMP                                #  INCREMENT SHIFT COUNTER.
001834: 00,2202           00006                           EXTEND
001835: 00,2203           30146                           DCA      MPAC       +1
001836: 00,2204           20146                           DAS      MPAC       +1
001837: 00,2205           60144                           AD       MPAC
001838: 00,2206           26144                           ADS      MPAC
001839: 00,2207           60000        TSLCTEST           DOUBLE                                         #  SEE IF (ANOTHER) SHIFT IS REQUIRED.
001840: 00,2210           54000                           OVSK
001841: 00,2211           12201                           TCF      TSLCLOOP                              #  YES - INCREMENT COUNT AND SHIFT AGAIN.
001842:
001843: 00,2212           40125        ENDTSLC            CS       MPTEMP
001844: 00,2213           16672                           TCF      STORE1                                #  STORE SHIFT COUNT AND RETURN TO DANZIG.
001845:


001847:                                                                                                  #           THE FOLLOWING ROUTINES PROCESSES THE GENERAL SHIFT INSTRUCTIONS SR, SRR, SL, AND SLR.
001848:                                                                                                  #  THE GIVEN ADDRESS IS DECODED AS FOLLOWS:
001849:
001850:                                                                                                  #           BITS 1-7    SHIFT COUNT (SUBADDRESS) LESS THAN 125 DECIMAL.
001851:                                                                                                  #           BIT 8       PSEUDO SIGN BIT (DETECTS CHANGE IN SIGN IN INDEXED SHIFTS).
001852:                                                                                                  #           BIT 9       0 FOR LEFT SHIFT, AND 1 FOR RIGHT SHIFT.
001853:                                                                                                  #           BIT 10      1 FOR TERMINAL ROUND ON SCALAR SHIFTS, 0 OTHERWISE.
001854:                                                                                                  #           BITS 11-13  0.
001855:
001856:                                                                                                  #           BIT 14      1.
001857:                                                                                                  #           BIT 15      0.
001858:
001859:                                                                                                  #  THE ABOVE ENCODING IS DONE BY THE YUL SYSTEM.
001860:
001861:
001862:
001863: 00,2214           70106        GENSHIFT           MASK     ADDRWD                                #  GET SHIFT COUNT, TESTING FOR ZERO.
001864: 00,2215           10000                           CCS      A                                     #  (ARRIVES WITH C(A) = LOW7).
001865: 00,2216           12224                           TCF      GENSHFT2                              #  IF NON-ZERO, PROCEED WITH DECREMENTED CT
001866:
001867: 00,2217           37744                           CAF      BIT10                                 #  ZERO SHIFT COUNT. NO SHIFTS NEEDED BUT
001868: 00,2220           70106                           MASK     ADDRWD                                #  WE MIGHT HAVE TO ROUND MPAC ON SLR AND
001869: 00,2221           10000                           CCS      A                                     #  SRR (SCALAR ONLY).
001870: 00,2222           07201                           TC       ROUNDSUB
001871: 00,2223           16115                           TCF      DANZIG
001872:
001873: 00,2224           54125        GENSHFT2           TS       MPTEMP                                #  DECREMENTED SHIFT COUNT TO MPTEMP.
001874: 00,2225           37746                           CAF      BIT8                                  #  TEST MEANING OF LOW SEVEN BIT COUNT IN
001875: 00,2226           00006                           EXTEND                                         #  MPTEMP NOW.
001876: 00,2227           70106                           MP       ADDRWD
001877: 00,2230           76301                           MASK     LOW2                                  #  JUMPS ON SHIFT DIRECTION (BIT8) AND
001878: 00,2231           50000                           INDEX    A
001879:
001880: 00,2232           12233                           TCF      +1                                    #  ORIGINAL SHIFT DIRECTION (BIT 9).
001881: 00,2233           12332                           TCF      RIGHT-                                #  NEGATIVE SHIFT COUNT FOR SL OR SLR.
001882: 00,2234           12341                           TCF      LEFT                                  #  SL OR SLR.
001883: 00,2235           12336                           TCF      LEFT-                                 #  NEGATIVE SHIFT COUNT WITH SR OR SRR.
001884:


001886:                                                                                                  #           GENERAL SHIFT RIGHT.
001887:
001888: 00,2236           10153        RIGHT              CCS      MODE                                  #  SEE IF VECTOR OR SCALAR.
001889: 00,2237           12277                           TCF      GENSCR
001890: 00,2240           12277                           TCF      GENSCR
001891:
001892: 00,2241           30125                           CA       MPTEMP                                #  SEE IF SHIFT COUNT LESS THAN 14D.
001893: 00,2242           63676        VRIGHT2            AD       NEG12
001894: 00,2243           00006                           EXTEND
001895: 00,2244           62127                           BZMF     VSSR                                  #  IF SO, BRANCH AND SHIFT IMMEDIATELY.
001896:
001897: 00,2245           67763                           AD       NEGONE                                #  IF NOT, REDUCE MPTEMP BY A TOTAL OF 14,
001898: 00,2246           54125                           TS       MPTEMP                                #  AND DO A SHIFT RIGHT AND ROUND BY 14.
001899: 00,2247           37761                           CAF      ZERO                                  #  THE ROUND AT THIS STAGE MAY INTRODUCE A
001900:
001901: 00,2250           54001                           TS       L                                     #  ONE BIT ERROR IN A SHIFT RIGHT 15D.
001902: 00,2251           56144                           XCH      MPAC
001903: 00,2252           56145                           XCH      MPAC       +1
001904: 00,2253           02272                           TC       SETROUND                              #  X COMPONENT NOW SHIFTED, SO MAKE UP THE
001905: 00,2254           20145                           DAS      MPAC                                  #  ROUNDING QUANTITY (0 IN A AND 0 OR +-1
001906:                                                                                                  #  IN L).
001907: 00,2255           56147                           XCH      MPAC       +3                         #  REPEAT THE ABOVE PROCESS FOR Y AND Z.
001908: 00,2256           56150                           XCH      MPAC       +4
001909: 00,2257           02272                           TC       SETROUND
001910: 00,2260           20150                           DAS      MPAC       +3                         #  NO OVERFLOW ON THESE ADDS.
001911:
001912:
001913: 00,2261           56151                           XCH      MPAC       +5
001914: 00,2262           56152                           XCH      MPAC       +6
001915: 00,2263           02272                           TC       SETROUND
001916: 00,2264           20152                           DAS      MPAC       +5
001917:
001918: 00,2265           10125                           CCS      MPTEMP                                #  SEE IF DONE, DOING FINAL DECREMENT.
001919: 00,2266           54125                           TS       MPTEMP
001920: 00,2267           12242                           TCF      VRIGHT2
001921: 00,2270           04604        BIASLO             DEC      .2974      B-1                        #  SQRT CONSTANT
001922:
001923: 00,2271           16115                           TCF      DANZIG
001924:
001925:
001926:
001927: 00,2272           60000        SETROUND           DOUBLE                                         #  MAKES UP ROUNDING QUANTITY FROM ARRIVING
001928: 00,2273           54146                           TS       MPAC       +2                         #  C(A). L IS ZERO INITIALLY.
001929: 00,2274           37761                           CAF      ZERO
001930: 00,2275           56001                           XCH      L
001931: 00,2276           00002                           TC       Q                                     #  RETURN AND DO THE DAS, RESETTING L TO 0.
001932:


001934:                                                                                                  #           PROCESS SR AND SRR FOR SCALARS.
001935:
001936: 00,2277           30125        GENSCR             CA       MPTEMP                                #  SEE IF THE ORIGINAL SHIFT COUNT WAS LESS
001937: 00,2300           63676                 +1        AD       NEG12                                 #  THAN 14D.
001938: 00,2301           00006                           EXTEND
001939: 00,2302           62322                           BZMF     DOSSHFT                               #  DO THE SHIFT IMMEDIATELY IF SO.
001940:
001941: 00,2303           67763                 +4        AD       NEGONE                                #  IF NOT, DECREMENT SHIFT COUNT BY 14D AND
001942: 00,2304           54125                           TS       MPTEMP                                #  SHIFT MPAC RIGHT 14 PLACES.
001943: 00,2305           37761                           CAF      ZERO
001944: 00,2306           56144                           XCH      MPAC
001945: 00,2307           56145                           XCH      MPAC       +1
001946: 00,2310           54146                           TS       MPAC       +2
001947: 00,2311           10125                           CCS      MPTEMP                                #  SEE IF FINISHED, DO FINAL DECREMENT.
001948: 00,2312           54125                           TS       MPTEMP
001949: 00,2313           02300                           TC       GENSCR     +1
001950: 00,2314           22650        SLOPEHI            DEC      .5884                                 #  SQRT CONSTANT.
001951: 00,2315           37744                           CAF      BIT10                                 #  FINISHED WITH SHIFT. SEE IF ROUND
001952: 00,2316           70106                           MASK     ADDRWD                                #  WANTED.
001953:
001954: 00,2317           10000                           CCS      A
001955: 00,2320           07201                           TC       ROUNDSUB
001956: 00,2321           16115                           TCF      DANZIG                                #  DO SO AND/OR EXIT.
001957:
001958: 00,2322           50125        DOSSHFT            INDEX    MPTEMP                                #  PICK UP SHIFTING BIT.
001959: 00,2323           37740                           CAF      BIT14
001960: 00,2324           54125                           TS       MPTEMP
001961: 00,2325           37744                           CAF      BIT10                                 #  SEE IF TERMINAL ROUND DESIRED.
001962: 00,2326           70106                           MASK     ADDRWD
001963: 00,2327           10000                           CCS      A
001964:
001965: 00,2330           12031                           TCF      RIGHTR                                #  YES.
001966: 00,2331           12033                           TCF      MPACSHR                               #  JUST SHIFT RIGHT.
001967:


001969:                                                                                                  #           PROCESS THE RIGHT- (SL(R) WITH A NEGATIVE COUNT), LEFT-, AND LEFT OPTIONS.
001970:
001971:
001972: 00,2332           40125        RIGHT-             CS       MPTEMP                                #  GET ABSOLUTE VALUE - 1 OF SHIFT COUNT
001973: 00,2333           62126                           AD       OCT176                                #  UNDERSTANDING THAT BIT8 (PSEUDO-SIGN)
001974: 00,2334           54125                           TS       MPTEMP                                #  WAS 1 INITIALLY.
001975: 00,2335           12236                           TCF      RIGHT                                 #  DO NORMAL SHIFT RIGHT.
001976:
001977: 00,2336           40125        LEFT-              CS       MPTEMP                                #  SAME PROLOGUE TO LEFT FOR INDEXED RIGHT
001978: 00,2337           62126                           AD       OCT176                                #  SHIFTS WHOSE NET SHIFT COUNT IS NEGATIVE
001979: 00,2340           54125                           TS       MPTEMP
001980:
001981: 00,2341           10153        LEFT               CCS      MODE                                  #  SINCE LEFT SHIFTING IS SONE ONE PLACE AT
001982:
001983: 00,2342           12345                           TCF      GENSCL                                #  A TIME, NO COMPARISON WITH 14 NEED BE
001984: 00,2343           12345                           TCF      GENSCL                                #  DONE. FOR SCALARS, SEE IF TERMINAL ROUND
001985: 00,2344           12145                           TCF      VSSL                                  #  DESIRED. FOR VECTORS, SHIFT IMMEDIATELY.
001986:
001987: 00,2345           37750        GENSCL             CAF      BIT6                                  #  PUT ROUNDING BIT (BIT10 OF ADDRWD) INTO
001988: 00,2346           00006                           EXTEND                                         #  BIT 15 OF CYR WHERE THE ROUNDING BIT OF
001989: 00,2347           70106                           MP       ADDRWD                                #  A SHORT SHIFT LEFT WOULD BE.
001990: 00,2350           54020                           TS       CYR
001991: 00,2351           12103                           TCF      TSSL       +2                         #  DO THE SHIFT.
001992:


001994:                                                                                                  #           SCALAR DIVISION INSTRUCTIONS, DDV AND BDDV, ARE EXECUTED HERE. AT THIS POINT, THE DIVIDEND IS IN MPAC
001995:                                                                                                  #  AND THE DIVISOR IN BUF.
001996:
001997: 00,2352           47755        DDV/BDDV           CS       ONE                                   #  INITIALIZATION.
001998: 00,2353           54126                           TS       DVSIGN                                #  +-1 FOR POSITIVE QUOTIENT - -0 FOR NEG.
001999: 00,2354           54127                           TS       DVNORMCT                              #  DIVIDEND NORMALIZATION COUNT.
002000: 00,2355           54130                           TS       MAXDVSW                               #  NEAR-ONE DIVIDE FLAG.
002001:
002002:
002003: 00,2356           10120                           CCS      BUF                                   #  FORCE BUF POSITIVE WITH THE MAJOR PART
002004: 00,2357           12406                           TCF      BUF+                                  #  NON-ZERO.
002005: 00,2360           12362                           TCF      +2
002006: 00,2361           12402                           TCF      BUF-
002007:
002008: 00,2362           56121                           XCH      BUF        +1                         #  SHIFT DIVIDEND AND DIVISOR LEFT 14.
002009: 00,2363           56120                           XCH      BUF
002010: 00,2364           56145                           XCH      MPAC       +1
002011: 00,2365           56144                           XCH      MPAC
002012: 00,2366           00006                           EXTEND                                         #  CHECK FOR OVERFLOW.
002013:
002014: 00,2367           12371                           BZF      +2
002015: 00,2370           12375                           TCF      DVOVF
002016:
002017: 00,2371           10120                           CCS      BUF                                   #  TRY AGAIN ON FORMER MINOR PART.
002018: 00,2372           12406                           TCF      BUF+
002019: 00,2373           12375                           TCF      DVOVF                                 #  OVERFLOW ON ZERO DIVISOR.
002020: 00,2374           12402                           TCF      BUF-
002021:
002022: 00,2375           37735        DVOVF              CAF      POSMAX                                #  ON DIVISION OVERFLOW OF ANY SORT, SET
002023: 00,2376           54144                           TS       MPAC                                  #  SET DP MPAC TO +-POSMAX.
002024: 00,2377           02572                           TC       FINALDV    +3
002025: 00,2400           37755                           CAF      ONE                                   #  SET OVERFLOW INDICATOR AND EXIT.
002026:
002027: 00,2401           17144                           TCF      SETOVF
002028:
002029: 00,2402           00006        BUF-               EXTEND                                         #  IF BUF IS NEGATIVE, COMPLEMENT IT AND
002030: 00,2403           40121                           DCS      BUF                                   #  MAINTAIN DVSIGN FOR FINAL QUOTIENT SIGN.
002031: 00,2404           52121                           DXCH     BUF
002032: 00,2405           24126                           INCR     DVSIGN                                #  NOW -0.
002033:
002034: 00,2406           10144        BUF+               CCS      MPAC                                  #  FORCE MPAC POSITIVE, CHECKING FOR ZERO
002035: 00,2407           12423                           TCF      MPAC+                                 #  DIVIDEND IN THE PROCESS.
002036: 00,2410           12412                           TCF      +2
002037:
002038: 00,2411           12417                           TCF      MPAC-
002039: 00,2412           10145                           CCS      MPAC       +1
002040: 00,2413           12423                           TCF      MPAC+
002041: 00,2414           16115                           TCF      DANZIG                                #  EXIT IMMEDIATELY ON ZERO DIVIDEND.
002042: 00,2415           12417                           TCF      MPAC-
002043: 00,2416           16115                           TCF      DANZIG
002044:
002045: 00,2417           00006        MPAC-              EXTEND                                         #  FORCE MPAC POSITIVE AS BUF IN BUF-.
002046: 00,2420           40145                           DCS      MPAC
002047: 00,2421           52145                           DXCH     MPAC


002049: 00,2422           24126                           INCR     DVSIGN                                #  NOW +1 OR -0.
002050:


002052: 00,2423           40144        MPAC+              CS       MPAC                                  #  CHECK FOR DIVISION OVERFLOW. IF THE
002053: 00,2424           67763                           AD       NEGONE                                #  MAJOR PART OF THE DIVIDEND IS LESS THAN
002054: 00,2425           60120                           AD       BUF                                   #  THE MAJOR PART OF THE DIVISOR BY AT
002055: 00,2426           10000                           CCS      A                                     #  LEAST TWO, WE CAN PROCEED IMMEDIATELY
002056: 00,2427           12471                           TCF      DVNORM                                #  WITHOUT NORMALIZATION PRODUCING A DVMAX.
002057: 00,2430           60001        -1/2+2             OCT      60001                                 #  USED IN SQRTSUB.
002058:
002059: 00,2431           12432                           TCF      +1                                    #  IF THE ABOVE DOES NOT HOLD, FORCE SIGN
002060: 00,2432           37740                           CAF      HALF                                  #  AGREEMENT IN NUMERATOR AND DENOMINATOR
002061: 00,2433           60000                           DOUBLE                                         #  TO FACILITATE OVERFLOW AND NEAR-ONE
002062: 00,2434           60145                           AD       MPAC       +1                         #  CHECKING.
002063: 00,2435           54145                           TS       MPAC       +1
002064: 00,2436           37761                           CAF      ZERO
002065: 00,2437           67735                           AD       POSMAX
002066: 00,2440           26144                           ADS      MPAC
002067:
002068: 00,2441           37740                           CAF      HALF                                  #  SAME FOR BUF.
002069: 00,2442           60000                           DOUBLE
002070: 00,2443           60121                           AD       BUF        +1
002071:
002072: 00,2444           54121                           TS       BUF        +1
002073: 00,2445           37761                           CAF      ZERO
002074: 00,2446           67735                           AD       POSMAX
002075: 00,2447           26120                           ADS      BUF
002076:
002077: 00,2450           40144                           CS       MPAC                                  #  CHECK MAGNITUDE OF SIGN-CORRECTED
002078: 00,2451           60120                           AD       BUF                                   #  OPERANDS.
002079: 00,2452           10000                           CCS      A
002080: 00,2453           12471                           TCF      DVNORM                                #  DIVIDE OK - WILL NOT BECOME MAXDV CASE.
002081: 00,2454           00123        LBUF2              ADRES    BUF2
002082:
002083: 00,2455           12375                           TCF      DVOVF                                 #  DIVISOR NOT LESS THAN DIVIDEND - OVF.
002084:
002085: 00,2456           54130                           TS       MAXDVSW                               #  IF THE MAJOR PARTS OF THE DIVIDEND AND
002086: 00,2457           40145                           CS       MPAC       +1                         #  DIVISOR ARE EQUAL, A SPECIAL APPROXIMA-
002087: 00,2460           60121                           AD       BUF        +1                         #  TION IS USED (PROVIDED THE DIVISION IS
002088: 00,2461           00006                           EXTEND                                         #  POSSIBLE, OF COURSE).
002089: 00,2462           62375                           BZMF     DVOVF
002090: 00,2463           12471                           TCF      DVNORM                                #  IF NO OVERFLOW.
002091:


002093: 00,2464           00006        BUFNORM            EXTEND                                         #  ADD -1 TO AUGMENT SHIFT COUNT AND SHIFT
002094: 00,2465           24127                           AUG      DVNORMCT                              #  LEFT ONE PLACE.
002095:
002096: 00,2466           00006                           EXTEND
002097: 00,2467           30121                           DCA      BUF
002098: 00,2470           20121                           DAS      BUF
002099:
002100: 00,2471           30120        DVNORM             CA       BUF                                   #  SEE IF DIVISOR NORMALIZED YET.
002101: 00,2472           60000                           DOUBLE
002102: 00,2473           54000                           OVSK
002103: 00,2474           12464                           TCF      BUFNORM                               #  NO - SHIFT LEFT ONE AND TRY AGAIN.
002104:
002105: 00,2475           52145                           DXCH     MPAC                                  #  CALL DIVIDEND NORMALIZATION SEQUENCE
002106:
002107: 00,2476           50127                           INDEX    DVNORMCT                              #  PRIOR TO DOING THE DIVIDE.
002108: 00,2477           02527                           TC       MAXTEST
002109:
002110: 00,2500           54146                           TS       MPAC       +2                         #  RETURNS WITH DIVISION DONE AND C(A) = 0.
002111: 00,2501           16115                           TCF      DANZIG
002112:


002114:                                                                                                  #           THE FOLLOWING ARE PROLOGUES TO SHIFT THE DIVIDEND ARRIVING IN A AND L BEFORE THE DIVIDE.
002115:
002116: 00,2502           22021                 -21D      LXCH     SR                                    #  SPECIAL PROLOGUE FOR UNIT WHEN THE
002117: 00,2503           00006                           EXTEND                                         #  LENGTH OF THE ARGUMENT WAS NOT LESS THAN
002118: 00,2504           77740                           MP       HALF                                  #  .5. IN THIS CASE, EACH COMPONENT MUST BE
002119: 00,2505           56001                           XCH      L                                     #  SHIFTED RIGHT ONE TO PRODUCE A HALF-UNIT
002120: 00,2506           60021                           AD       SR                                    #  VECTOR.
002121: 00,2507           56001                           XCH      L
002122:
002123: 00,2510           12533                           TCF      GENDDV     +1                         #  WITH DP DIVIDEND IN A,L.
002124:
002125: 00,2511           20001                           DDOUBL                                         #  PROLOGUE WHICH NORMALIZES THE DIVIDEND
002126: 00,2512           20001                           DDOUBL                                         #  WHEN IT IS KNOWN THAT NO DIVISION
002127: 00,2513           20001                           DDOUBL                                         #  OVERFLOW WILL OCCUR.
002128: 00,2514           20001                           DDOUBL
002129: 00,2515           20001                           DDOUBL
002130: 00,2516           20001                           DDOUBL
002131: 00,2517           20001                           DDOUBL
002132: 00,2520           20001                           DDOUBL
002133:
002134: 00,2521           20001                           DDOUBL
002135: 00,2522           20001                           DDOUBL
002136: 00,2523           20001                           DDOUBL
002137: 00,2524           20001                           DDOUBL
002138: 00,2525           20001                           DDOUBL
002139: 00,2526           52145                           DXCH     MPAC
002140:
002141: 00,2527           10130        MAXTEST            CCS      MAXDVSW                               #  0 IF MAJORS MIGHT BE =, -1 OTHERWISE.
002142: 00,2530           06552        BIASHI             DEC      .4192      B-1                        #  SQRT CONSTANTS
002143:
002144: 00,2531           12604                           TCF      MAXDV                                 #  CHECK TO SEE IF THEY ARE NOW EQUAL.
002145:


002147:                                                                                                  #           THE FOLLOWING IS A GENERAL PURPOSE DOUBLE PRECISION DIVISION ROUTINE. IT DIVIDES MPAC BY BUF AND LEAVES
002148:
002149:                                                                                                  #  THE RESULT IN MPAC. THE FOLLOWING CONDITIONS MUST BE SATISFIED:
002150:
002151:                                                                                                  #           1.  THE DIVISOR (BUF) MUST BE POSITIVE AND NOT LESS THAN .5.
002152:
002153:                                                                                                  #           2.  THE DIVIDEND (MPAC) MUST BE POSITIVE WITH THE MAJOR PART OF MPAC STRICTLY LESS THAN THAT OF BUF
002154:                                                                                                  #  (A SPECIAL APPROXIMATION, MAXDV, IS USED WHEN THE MAJOR PARTS ARE EQUAL).
002155:
002156:                                                                                                  #           UNDERSTANDING THAT A/B = Q + S(R/B) WHERE S = 2(-14) AND Q AND R ARE QUOTIENT AND REMAINDER, RESPEC-
002157:                                                                                                  #  TIVELY, THE FOLLOWING APPROXIMATION IS OBTAINED BY MULTIPLYING ABOVE AND BELOW BY C - SD AND NEGLECTING TERMS OF
002158:                                                                                                  #  ORDER S-SQUARED (POSSIBLY INTRODUCING ERROR INTO THE LOW TWO BITS OF THE RESULT). SIGN AGREEMENT IS UNNECESSARY.
002159:
002160:                                                                                                  #           A + SB .      (R - QD)                                             A + SB
002161:
002162:                                                                                                  #           ------ = Q + S(------) WHERE Q AND R ARE QUOTIENT AND REMAINDER OF ------ RESPECTIVELY.
002163:                                                                                                  #           C + SD        (  C   )                                                C
002164:
002165:
002166: 00,2532           52145        GENDDV             DXCH     MPAC                                  #  WE NEED A AND B ONLY FOR FIRST DV.
002167: 00,2533           00006                 +1        EXTEND                                         #  (SPECIAL UNIT PROLOGUE ENTERS HERE).
002168: 00,2534           10120                           DV       BUF                                   #  A NOW CONTAINS Q AND L, R.
002169: 00,2535           52145                           DXCH     MPAC
002170:
002171: 00,2536           40144                           CS       MPAC                                  #  FORM DIVIDEND FOR MINOR PART OF RESULT.
002172: 00,2537           00006                           EXTEND
002173: 00,2540           70121                           MP       BUF        +1
002174: 00,2541           60145                           AD       MPAC       +1                         #  OVERFLOW AT THIS POINT IS POSITIVE SINCE
002175: 00,2542           54000                           OVSK                                           #  R IS POSITIVE IN EVERY CASE.
002176: 00,2543           12550                           TCF      +5
002177:
002178: 00,2544           00006                           EXTEND                                         #  OVERFLOW CAN BE REMOVED BY SUBTRACTING C
002179: 00,2545           60120                           SU       BUF                                   #  (BUF) ONCE SINCE R IS ALWAYS LESS THAN C
002180: 00,2546           24144                           INCR     MPAC                                  #  IN THIS CASE. INCR COMPENSATES SUBTRACT.
002181: 00,2547           12552                           TCF      +DOWN                                 #  (SINCE C(A) IS STILL POSITIVE).
002182:
002183: 00,2550           00006                 +5        EXTEND                                         #  C(A) CAN BE MADE LESS THAN C IN MAGNI-
002184:
002185: 00,2551           62562                           BZMF     -UP                                   #  TUDE BY DIMINISHING IT BY C (SINCE C IS
002186:                                                                                                  #  NOT LESS THAN .5) UNLESS C(A) = 0.
002187:


002189: 00,2552           00006        +DOWN              EXTEND
002190: 00,2553           60120                           SU       BUF                                   #  IF POSITIVE, REDUCE ONLY IF NECESSARY
002191: 00,2554           00006                           EXTEND                                         #  SINCE THE COMPENSATING INCR MIGHT CAUSE
002192: 00,2555           12560                           BZF      +3                                    #  OVERFLOW.
002193: 00,2556           00006                           EXTEND                                         #  DONT SUBTRACT UNLESS RESULT IS POSITIVE
002194: 00,2557           62566                           BZMF     ENDMAXDV                              #  OR ZERO.
002195:
002196: 00,2560           24144                 +3        INCR     MPAC                                  #  KEEP SUBTRACT HERE AND COMPENSATE.
002197: 00,2561           12567                           TCF      FINALDV
002198:
002199: 00,2562           00006        -UP                EXTEND                                         #  IF ZERO, SET MINOR PART OF RESULT TO
002200: 00,2563           12572                           BZF      FINALDV    +3                         #  ZERO.
002201:
002202: 00,2564           00006                           EXTEND                                         #  IF NEGATIVE, ADD C TO A, SUBTRACTING ONE
002203: 00,2565           26144                           DIM      MPAC                                  #  TO COMPENSATE. DIM IS OK HERE SINCE THE
002204: 00,2566           60120        ENDMAXDV           AD       BUF                                   #  MAJOR PART NEVER GOES NEGATIVE.
002205:


002207: 00,2567           22007        FINALDV            ZL                                             #  DO DV TO OBTAIN MINOR PART OF RESULT.
002208: 00,2570           00006                           EXTEND
002209:
002210: 00,2571           10120                           DV       BUF
002211: 00,2572           54145                 +3        TS       MPAC       +1
002212:
002213: 00,2573           10126                           CCS      DVSIGN                                #  LEAVE RESULT POSITIVE UNLESS C(DVSIGN)=
002214: 00,2574           00002                           TC       Q                                     #  -0.
002215: 00,2575           00002                           TC       Q
002216: 00,2576           00002                           TC       Q
002217:
002218: 00,2577           00006                           EXTEND
002219: 00,2600           40145                           DCS      MPAC
002220:
002221: 00,2601           52145                           DXCH     MPAC
002222: 00,2602           37761                           CAF      ZERO                                  #  SO WE ALWAYS RETURN WITH C(A) = 0.
002223: 00,2603           00002                           TC       Q
002224:


002226:                                                                                                  #           IF THE MAJOR PARTS OF THE DIVISOR AND DIVIDEND ARE EQUAL, BUT THE MINOR PARTS ARE SUCH THAT THE
002227:                                                                                                  #  DIVIDEND IS STRICTLY LESS THAN THE DIVISOR IN MAGNITUDE, THE FOLLOWING APPROXIMATION IS USED. THE ASSUMPTIONS
002228:                                                                                                  #  ARE THE SAME AS THE GENERAL ROUTINE WITH THE ADDITION THAT SIGN AGREEMENT IS NECESSARY (B, C, & D POSITIVE).
002229:
002230:                                                                                                  #                  C + SB .          (C + B - D)
002231:                                                                                                  #                  ------ = 37777 + S(---------)
002232:                                                                                                  #                  C + SD            (    C    )
002233:
002234:                                                                                                  #           THE DIVISION MAY BE PERFORMED IMMEDIATELY SINCE B IS STRICTLY LESS THAN D AND C IS NOT LESS THAN .5.
002235:
002236:
002237:
002238: 00,2604           40144        MAXDV              CS       MPAC                                  #  SEE IF MAXDV CASE STILL HOLDS AFTER
002239: 00,2605           60120                           AD       BUF                                   #  NORMALIZATION.
002240: 00,2606           00006                           EXTEND
002241: 00,2607           12611                           BZF      +2
002242: 00,2610           12532                           TCF      GENDDV                                #  MPAC NOW LESS THAN BUF - DIVIDE AS USUAL
002243:
002244:
002245: 00,2611           37735                 +2        CAF      POSMAX                                #  SET MAJOR PART OF RESULT.
002246: 00,2612           54144                           TS       MPAC
002247:
002248: 00,2613           40121                           CS       BUF        +1                         #  FORM DIVIDEND OF MINOR PART OF RESULT.
002249: 00,2614           60145                           AD       MPAC       +1
002250: 00,2615           12566                           TCF      ENDMAXDV                              #  GO ADD C AND DO DIVIDE, ATTACHING SIGN
002251:                                                                                                  #  BEFORE EXITING.
002252:


002254:                                                                                                  #           VECTOR DIVIDED BY SCALAR, V/SC, IS EXECUTED HERE. THE VECTOR IS NOW IN MPAC WITH SCALAR IN BUF.
002255:
002256: 00,2616           47755        V/SC2              CS       ONE                                   #  INITIALIZE DIVIDEND NORMALIZATION COUNT
002257: 00,2617           54127                           TS       DVNORMCT                              #  AND DIVISION SIGN REGISTER.
002258: 00,2620           54117                           TS       VBUF       +5
002259:
002260: 00,2621           10120                           CCS      BUF                                   #  FORCE DIVISOR POSITIVE WITH MAJOR PART
002261: 00,2622           12657                           TCF      /BUF+                                 #  NON-ZERO (IF POSSIBLE).
002262: 00,2623           12625                           TCF      +2
002263: 00,2624           12653                           TCF      /BUF-
002264:
002265: 00,2625           56121                           XCH      BUF        +1                         #  SHIFT VECTOR AND SCALAR LEFT 14.
002266: 00,2626           56120                           XCH      BUF
002267: 00,2627           56145                           XCH      MPAC       +1
002268:
002269: 00,2630           56144                           XCH      MPAC
002270: 00,2631           00006                           EXTEND                                         #  CHECK FOR OVERFLOW IN EACH CASE.
002271: 00,2632           12634                           BZF      +2
002272: 00,2633           12375                           TCF      DVOVF
002273:
002274: 00,2634           56150                           XCH      MPAC       +4
002275: 00,2635           56147                           XCH      MPAC       +3
002276: 00,2636           00006                           EXTEND
002277: 00,2637           12641                           BZF      +2
002278: 00,2640           12375                           TCF      DVOVF
002279:
002280:
002281: 00,2641           56152                           XCH      MPAC       +6
002282: 00,2642           56151                           XCH      MPAC       +5
002283: 00,2643           00006                           EXTEND
002284: 00,2644           12646                           BZF      +2
002285: 00,2645           12375                           TCF      DVOVF
002286:
002287: 00,2646           10120                           CCS      BUF
002288: 00,2647           12657                           TCF      /BUF+
002289: 00,2650           12375                           TCF      DVOVF                                 #  ZERO DIVISOR - OVERFLOW.
002290: 00,2651           12653                           TCF      /BUF-
002291: 00,2652           12375                           TCF      DVOVF
002292:
002293:
002294: 00,2653           00006        /BUF-              EXTEND                                         #  ON NEGATIVE, COMPLEMENT BUF AND MAINTAIN
002295: 00,2654           40121                           DCS      BUF                                   #  DVSIGN IN VBUF +5.
002296: 00,2655           52121                           DXCH     BUF
002297: 00,2656           24117                           INCR     VBUF       +5
002298:


002300: 00,2657           37740        /BUF+              CAF      HALF                                  #  FORCE SIGN AGREEMENT IN DIVISOR.
002301: 00,2660           60000                           DOUBLE
002302: 00,2661           60121                           AD       BUF        +1
002303: 00,2662           54121                           TS       BUF        +1
002304: 00,2663           37761                           CAF      ZERO
002305: 00,2664           67735                           AD       POSMAX
002306:
002307: 00,2665           26120                           ADS      BUF
002308:
002309: 00,2666           56123                           XCH      BUF2                                  #  LEAVE ABS(ORIGINAL DIVISOR) IN BUF2 FOR
002310: 00,2667           30121                           CA       BUF        +1                         #  OVERFLOW TESTING.
002311: 00,2670           54124                           TS       BUF2       +1
002312: 00,2671           12677                           TCF      /NORM                                 #  NORMALIZE DIVISOR IN BUF.
002313:
002314: 00,2672           00006        /NORM2             EXTEND                                         #  IF LESS THAN .5, AUGMENT DVNORMCT AND
002315: 00,2673           24127                           AUG      DVNORMCT                              #  DOUBLE DIVISOR.
002316: 00,2674           00006                           EXTEND
002317: 00,2675           30121                           DCA      BUF
002318: 00,2676           20121                           DAS      BUF
002319:
002320:
002321: 00,2677           30120        /NORM              CA       BUF                                   #  SEE IF DIVISOR NORMALIZED.
002322: 00,2700           60000                           DOUBLE
002323: 00,2701           54000                           OVSK
002324: 00,2702           12672                           TCF      /NORM2                                #  DOUBLE AND TRY AGAIN IF NOT.
002325:
002326: 00,2703           02715                           TC       V/SCDV                                #  DO X COMPONENT DIVIDE.
002327: 00,2704           52150                           DXCH     MPAC       +3                         #  SUPPLY ARGUMENTS IN USUAL SEQUENCE.
002328: 00,2705           52145                           DXCH     MPAC
002329: 00,2706           52150                           DXCH     MPAC       +3
002330:
002331: 00,2707           02715                           TC       V/SCDV                                #  Y COMPONENT.
002332: 00,2710           52152                           DXCH     MPAC       +5
002333: 00,2711           52145                           DXCH     MPAC
002334: 00,2712           52152                           DXCH     MPAC       +5
002335:
002336: 00,2713           02715                           TC       V/SCDV                                #  Z COMPONENT.
002337: 00,2714           17471                           TCF      VROTATEX                              #  GO RE-ARRANGE COMPONENTS BEFORE EXIT.
002338:


002340:                                                                                                  #           SUBROUTINE USED BY V/SC TO DIVIDE VECTOR COMPONENT IN MPAC,+1 BY THE SCALAR GIVEN IN BUF.
002341:
002342: 00,2715           30117        V/SCDV             CA       VBUF       +5                         #  REFLECTS SIGN OF SCALAR.
002343: 00,2716           54126                           TS       DVSIGN
002344:
002345: 00,2717           10144                           CCS      MPAC                                  #  FORCE MPAC POSITIVE, EXITING ON ZERO.
002346: 00,2720           12734                           TCF      /MPAC+
002347: 00,2721           12723                           TCF      +2
002348: 00,2722           12730                           TCF      /MPAC-
002349:
002350: 00,2723           10145                           CCS      MPAC       +1
002351: 00,2724           12734                           TCF      /MPAC+
002352:
002353: 00,2725           00002                           TC       Q
002354: 00,2726           12730                           TCF      /MPAC-
002355: 00,2727           00002                           TC       Q
002356:
002357: 00,2730           00006        /MPAC-             EXTEND                                         #  USUAL COMPLEMENTING AND SETTING OF SIGN.
002358: 00,2731           40145                           DCS      MPAC
002359: 00,2732           52145                           DXCH     MPAC
002360: 00,2733           24126                           INCR     DVSIGN
002361:
002362: 00,2734           47755        /MPAC+             CS       ONE                                   #  INITIALIZE NEAR-ONE SWITCH.
002363: 00,2735           54130                           TS       MAXDVSW
002364:
002365:
002366: 00,2736           40144                           CS       MPAC                                  #  CHECK POSSIBLE OVERFLOW.
002367: 00,2737           60123                           AD       BUF2                                  #  UNNORMALIZED INPUT DIVISOR.
002368: 00,2740           00006                           EXTEND
002369: 00,2741           62745                           BZMF     /AGREE                                #  CHECK FOR NEAR-ONE OR OVERFLOW.
002370:
002371: 00,2742           52145        DDVCALL            DXCH     MPAC                                  #  CALL PRE-DIVIDE NORMALIZATION.
002372: 00,2743           50127                           INDEX    DVNORMCT
002373: 00,2744           12527                           TCF      MAXTEST
002374:


002376: 00,2745           37740        /AGREE             CAF      HALF                                  #  FORCE SIGN AGREEMENT IN DIVIDEND
002377: 00,2746           60000                           DOUBLE                                         #  (ALREADY DONE FOR DIVISOR).
002378: 00,2747           60145                           AD       MPAC       +1
002379: 00,2750           54145                           TS       MPAC       +1
002380: 00,2751           37761                           CAF      ZERO
002381: 00,2752           67735                           AD       POSMAX
002382: 00,2753           26144                           ADS      MPAC
002383:
002384:
002385: 00,2754           40144                           CS       MPAC                                  #  CHECK TO SEE IF OVERFLOW GONE OR IF
002386: 00,2755           60123                           AD       BUF2                                  #  NEAR-ONE CASE IS PRESENT.
002387: 00,2756           10000                           CCS      A
002388: 00,2757           12742                           TCF      DDVCALL                               #  NOT NEAR-ONE.
002389: 00,2760           32506        SLOPELO            DEC      .8324
002390: 00,2761           12375                           TCF      DVOVF                                 #  NO HOPE.
002391:
002392: 00,2762           54130                           TS       MAXDVSW                               #  SIGNAL POSSIBLE NEAR-ONE CASE.
002393: 00,2763           40145                           CS       MPAC       +1                         #  SEE IF DIVISION CAN BE DONE.
002394: 00,2764           60124                           AD       BUF2       +1
002395:
002396: 00,2765           00006                           EXTEND
002397: 00,2766           62375                           BZMF     DVOVF
002398: 00,2767           12742                           TCF      DDVCALL                               #  GOING TO MAXDV.
002399:


002401:                                                                                                  #           THE FOLLOWING ROUTINE EXECUTES THE UNIT INSTRUCTION, WHICH TAKES THE UNIT OF THE VECTOR IN MPAC.
002402:
002403: 00,2770           07604        UNIT               TC       MPACVBUF                              #  SAVE THE ARGUMENT IN VBUF.
002404: 00,2771           37761                           CAF      ZERO                                  #  MUST SENSE OVERFLOW IN FOLLOWING DOT.
002405: 00,2772           56111                           XCH      OVFIND
002406: 00,2773           54131                           TS       TEM1
002407: 00,2774           03267                           TC       VSQSUB                                #  DOT MPAC WITH ITSELF.
002408: 00,2775           30131                           CA       TEM1
002409: 00,2776           56111                           XCH      OVFIND
002410: 00,2777           00006                           EXTEND
002411: 00,3000           13002                           BZF      +2
002412: 00,3001           12375                           TCF      DVOVF
002413: 00,3002           00006                           EXTEND
002414: 00,3003           30145                           DCA      MPAC                                  #  LEAVE THE SQUARE OF THE LENGTH OF THE
002415:
002416: 00,3004           50110                           INDEX    FIXLOC                                #  ARGUMENT IN LVSQUARE.
002417: 00,3005           52043                           DXCH     LVSQUARE
002418:
002419: 00,3006           03313                           TC       SQRTSUB                               #  GO TAKE THE NORMALIZED SQUARE ROOT.
002420:
002421: 00,3007           10144                           CCS      MPAC                                  #  CHECK FOR UNIT OVERFLOW.
002422: 00,3010           13015                           TCF      +5                                    #  MPAC IS NOT LESS THAN .5 UNLESS
002423: 00,3011           54001                           TS       L
002424: 00,3012           50110                           INDEX    FIXLOC
002425: 00,3013           52045                           DXCH     LV
002426:
002427: 00,3014           12375                           TCF      DVOVF                                 #  INPUT TO SQRTSUB WAS 0.
002428:
002429: 00,3015           43116                           CS       FOURTEEN                              #  SEE IF THE INPUT WAS SO SMALL THE THE
002430: 00,3016           60125                           AD       MPTEMP                                #  FIRST TWO REGISTERS OF THE SQUARE WERE 0
002431: 00,3017           10000                           CCS      A
002432: 00,3020           40000                           COM                                            #  IF SO, SAVE THE NEGATIVE OF THE SHIFT
002433: 00,3021           13077                           TCF      SMALL                                 #  COUNT -15D.
002434:
002435: 00,3022           13031                           TCF      LARGE                                 #  (THIS IS USUALLY THE CASE.)
002436:
002437: 00,3023           43115                           CS       THIRTEEN                              #  IF THE SHIFT COUNT WAS EXACTLY 14, SET
002438: 00,3024           54125                           TS       MPTEMP                                #  THE PRE-DIVIDE NORM COUNT TO -13D.
002439:
002440:
002441: 00,3025           30144                           CA       MPAC                                  #  SHIFT THE LENGTH RIGHT 14 BEFORE STORING
002442: 00,3026           54001        SMALL2             TS       L                                     #  (SMALL EXITS TO THIS POINT).
002443: 00,3027           37761                           CAF      ZERO
002444: 00,3030           13056                           TCF      LARGE2                                #  GO TO STORE LENGTH AND PROCEED.
002445:
002446: 00,3031           10125        LARGE              CCS      MPTEMP                                #  MOST ALL CASES COME HERE.
002447: 00,3032           13040                           TCF      LARGE3                                #  SEE IF NO NORMALIZATION WAS REQUIRED BY
002448:
002449: 00,3033           42024                           CS       SRDDV                                 #  SQRT, AND IF SO, SET UP FOR A SHIFT
002450:
002451: 00,3034           54125                           TS       MPTEMP                                #  RIGHT 1 BEFORE DIVIDING TO PRODUCE
002452: 00,3035           00006                           EXTEND                                         #  THE DESIRED HALF UNIT VECTOR.
002453: 00,3036           30145                           DCA      MPAC
002454: 00,3037           13056                           TCF      LARGE2
002455:


002457: 00,3040           40000        LARGE3             COM                                            #  LEAVE NEGATIVE OF SHIFT COUNT-1 FOR
002458: 00,3041           54125                           TS       MPTEMP                                #  PREDIVIDE LEFT SHIFT.
002459:
002460: 00,3042           40000                           COM                                            #  PICK UP REQUIRED SHIFTING BIT TO UNNORM-
002461: 00,3043           50000                           INDEX    A                                     #  ALIZE THE SQRT RESULT.
002462: 00,3044           37740                           CAF      BIT14
002463:
002464: 00,3045           54120                           TS       BUF
002465: 00,3046           00006                           EXTEND
002466: 00,3047           70145                           MP       MPAC       +1
002467: 00,3050           56120                           XCH      BUF
002468: 00,3051           00006                           EXTEND                                         #  (UNNORMALIZE THE SQRT FOR LV).
002469: 00,3052           70144                           MP       MPAC
002470: 00,3053           56001                           XCH      L
002471: 00,3054           60120                           AD       BUF
002472: 00,3055           56001                           XCH      L
002473:
002474: 00,3056           50110        LARGE2             INDEX    FIXLOC
002475: 00,3057           52045                           DXCH     LV                                    #  LENGTH NOW STORED IN WORK AREA.
002476:
002477:
002478: 00,3060           47755                           CS       ONE
002479: 00,3061           54130                           TS       MAXDVSW                               #  NO MAXDV CASES IN UNIT.
002480:
002481: 00,3062           52113                           DXCH     VBUF                                  #  PREPARE X COMPONENT FOR DIVIDE, SETTING
002482: 00,3063           52145                           DXCH     MPAC                                  #  LENGTH OF VECTOR AS DIVISOR IN BUF.
002483: 00,3064           52121                           DXCH     BUF
002484: 00,3065           03117                           TC       UNITDV
002485:
002486: 00,3066           52115                           DXCH     VBUF       +2                         #  DO Y AND Z IN USUAL FASHION SO WE CAN
002487:
002488: 00,3067           52145                           DXCH     MPAC                                  #  EXIT THROUGH VROTATEX.
002489: 00,3070           52150                           DXCH     MPAC       +3
002490: 00,3071           03117                           TC       UNITDV
002491:
002492: 00,3072           52117                           DXCH     VBUF       +4
002493: 00,3073           52145                           DXCH     MPAC
002494: 00,3074           52152                           DXCH     MPAC       +5
002495: 00,3075           03117                           TC       UNITDV
002496: 00,3076           17471                           TCF      VROTATEX                              #  AND EXIT.
002497:


002499:                                                                                                  #           IF THE LENGTH OF THE ARGUMENT VECTOR WAS LESS THAN 2(-28), EACH COMPONENT MUST BE SHIFTED LEFT AT LEAST
002500:                                                                                                  #  14 PLACES BEFORE THE DIVIDE. NOTE THAT IN THIS CASE, THE MAJOR PART OF EACH COMPONENT IS ZERO.
002501:
002502: 00,3077           54125        SMALL              TS       MPTEMP                                #  NEGATIVE OF PRE-DIVIDE SHIFT COUNT.
002503:
002504: 00,3100           37761                           CAF      ZERO                                  #  SHIFT EACH COMPONENT LEFT 14.
002505: 00,3101           56113                           XCH      VBUF       +1
002506: 00,3102           56112                           XCH      VBUF
002507: 00,3103           56115                           XCH      VBUF       +3
002508: 00,3104           56114                           XCH      VBUF       +2
002509: 00,3105           56117                           XCH      VBUF       +5
002510: 00,3106           56116                           XCH      VBUF       +4
002511:
002512: 00,3107           40125                           CS       MPTEMP
002513: 00,3110           50000                           INDEX    A
002514: 00,3111           37740                           CAF      BIT14
002515: 00,3112           00006                           EXTEND
002516: 00,3113           70144                           MP       MPAC
002517: 00,3114           13026                           TCF      SMALL2
002518:
002519: 00,3115           00015        THIRTEEN           DEC      13         B-14
002520: 00,3116           00016        FOURTEEN           DEC      14         B-14
002521:


002523:                                                                                                  #           THE FOLLOWING ROUTINE SETS UP THE CALL TO THE DIVIDE ROUTINES.
002524:
002525: 00,3117           10144        UNITDV             CCS      MPAC                                  #  FORCE MPAC POSITIVE IF POSSIBLE, SETTING
002526: 00,3120           13136                           TCF      UMPAC+                                #  DVSIGN ACCORDING TO THE SIGN OF MPAC
002527: 00,3121           13123                           TCF      +2                                    #  SINCE THE DIVISOR IS ALWAYS POSITIVE
002528: 00,3122           13130                           TCF      UMPAC-                                #  HERE.
002529:
002530: 00,3123           10145                           CCS      MPAC       +1
002531:
002532: 00,3124           13136                           TCF      UMPAC+
002533: 00,3125           00002                           TC       Q                                     #  EXIT IMMEDIATELY ON ZERO.
002534: 00,3126           13130                           TCF      UMPAC-
002535: 00,3127           00002                           TC       Q
002536:
002537: 00,3130           47761        UMPAC-             CS       ZERO                                  #  IF NEGATIVE, SET -0 IN DVSIGN FOR FINAL
002538: 00,3131           54126                           TS       DVSIGN                                #  COMPLEMENT.
002539: 00,3132           00006                           EXTEND
002540: 00,3133           40145                           DCS      MPAC                                  #  PICK UP ABSOLUTE VALUE OF ARG AND JUMP.
002541: 00,3134           50125                           INDEX    MPTEMP
002542:
002543: 00,3135           12526                           TCF      MAXTEST    -1
002544:
002545: 00,3136           54126        UMPAC+             TS       DVSIGN                                #  SET DVSIGN FOR POSITIVE QUOTIENT.
002546: 00,3137           52145                           DXCH     MPAC
002547: 00,3140           50125                           INDEX    MPTEMP
002548: 00,3141           12526                           TCF      MAXTEST    -1
002549:


002551:                                                                                                  #           MISCELLANEOUS UNARY OPERATIONS.
002552:
002553: 00,3142           03250        DSQ                TC       DSQSUB                                #  SQUARE THE DP CONTENTS OF MPAC.
002554: 00,3143           16115                           TCF      DANZIG
002555:
002556: 00,3144           10153        ABVALABS           CCS      MODE                                  #  ABVAL OR ABS INSTRUCTION.
002557: 00,3145           13174                           TCF      ABS                                   #  DO ABS ON SCALAR.
002558: 00,3146           13174                           TCF      ABS
002559:
002560: 00,3147           03267        ABVAL              TC       VSQSUB                                #  DOT MPAC WITH ITSELF.
002561: 00,3150           22153                           LXCH     MODE                                  #  MODE IS NOW DP (L ZERO AFTER DAS).
002562:
002563: 00,3151           00006                           EXTEND                                         #  STORE SQUARE OF LENGTH IN WORK AREA.
002564: 00,3152           30145                           DCA      MPAC
002565:
002566: 00,3153           50110                           INDEX    FIXLOC
002567: 00,3154           52043                           DXCH     LVSQUARE
002568:
002569: 00,3155           03313        SQRT               TC       SQRTSUB                               #  TAKE THE SQUARE ROOT OF MPAC.
002570: 00,3156           10125                           CCS      MPTEMP                                #  RETURNED NORMALIZED SQUARE ROOT. SEE IF
002571: 00,3157           13161                           TCF      +2                                    #  ANY UN-NORMALIZATION REQUIRED AND EXIT
002572: 00,3160           16115                           TCF      DANZIG                                #  IF NOT.
002573:
002574: 00,3161           63676                           AD       NEG12                                 #  A RIGHT SHIFT OF MORE THAN 13 COULD BE
002575: 00,3162           00006                           EXTEND                                         #  REQUIRED IF INPUT WAS ZERO IN MPAC,+1.
002576:
002577: 00,3163           63167                           BZMF     SQRTSHFT                              #  GOES HERE IN MOST CASES.
002578: 00,3164           22007                           ZL                                             #  IF A LONG SHIFT IS REQUIRED, GO TO
002579: 00,3165           22106                           LXCH     ADDRWD                                #  GENERAL RIGHT SHIFT ROUTINES.
002580: 00,3166           12303                           TCF      GENSCR     +4                         #  ADDRWD WAS ZERO TO PREVENT ROUND.
002581:
002582: 00,3167           50125        SQRTSHFT           INDEX    MPTEMP                                #  SELECT SHIFTING BIT AND EXIT THROUGH
002583: 00,3170           37737                           CAF      BIT15                                 #  SHIFT ROUTINES.
002584: 00,3171           54125                           TS       MPTEMP
002585: 00,3172           37761                           CAF      ZERO                                  #  TO ZERO MPAC +2 IN THE PROCESS.
002586: 00,3173           12036                           TCF      MPACSHR    +3
002587:
002588: 00,3174           06772        ABS                TC       BRANCH                                #  TEST SIGN OF MPAC AND COMPLEMENT IF
002589:
002590: 00,3175           16115                           TCF      DANZIG
002591: 00,3176           16115                           TCF      DANZIG
002592: 00,3177           17714                           TCF      COMP
002593:


002595: 00,3200           47753        VDEF               CS       FOUR                                  #  VECTOR DEFINE - ESSENTIALLY TREATS
002596: 00,3201           26156                           ADS      PUSHLOC                               #  SCALAR IN MPAC AS X COMPONENT, PUSHES UP
002597: 00,3202           00006                           EXTEND                                         #  FOR Y AND THEN AGAIN FOR Z.
002598: 00,3203           50000                           INDEX    A
002599: 00,3204           30003                           DCA      2
002600: 00,3205           52150                           DXCH     MPAC       +3
002601:
002602: 00,3206           00006                           EXTEND
002603: 00,3207           50156                           INDEX    PUSHLOC
002604: 00,3210           30001                           DCA      0
002605: 00,3211           52152                           DXCH     MPAC       +5
002606: 00,3212           47755                           CS       ONE                                   #  MODE IS NOW VECTOR.
002607: 00,3213           16114                           TCF      NEWMODE
002608:
002609: 00,3214           03267        VSQ                TC       VSQSUB                                #  DOT MPAC WITH ITSELF.
002610: 00,3215           37761                           CAF      ZERO
002611: 00,3216           16114                           TCF      NEWMODE                               #  MODE IS NOW DP.
002612:
002613: 00,3217           00006        PUSH               EXTEND                                         #  PUSH DOWN MPAC LEAVING IT LOADED.
002614:
002615: 00,3220           30145                           DCA      MPAC
002616: 00,3221           50156                           INDEX    PUSHLOC                               #  PUSH DOWN FIRST TWO REGISTERS IN EACH
002617: 00,3222           52001                           DXCH     0
002618:
002619: 00,3223           50153                           INDEX    MODE                                  #  INCREMENT PUSHDOWN POINTER.
002620: 00,3224           36300                           CAF      NO.WDS
002621: 00,3225           26156                           ADS      PUSHLOC
002622:
002623: 00,3226           10153                           CCS      MODE
002624: 00,3227           13242                           TCF      TPUSH                                 #  PUSH DOWN MPAC +2.
002625:
002626: 00,3230           16115                           TCF      DANZIG                                #  DONE FOR DP.
002627:
002628: 00,3231           00006                           EXTEND                                         #  ON VECTOR, PUSH DOWN Y AND Z COMPONENTS.
002629: 00,3232           30150                           DCA      MPAC       +3
002630: 00,3233           50156                           INDEX    PUSHLOC
002631: 00,3234           51775                           DXCH     0          -4
002632: 00,3235           00006                           EXTEND
002633: 00,3236           30152                           DCA      MPAC       +5
002634: 00,3237           50156                           INDEX    PUSHLOC
002635: 00,3240           51777                           DXCH     0          -2
002636: 00,3241           16115                           TCF      DANZIG
002637:
002638:
002639: 00,3242           30146        TPUSH              CA       MPAC       +2
002640: 00,3243           16623                           TCF      ENDTPUSH   +2
002641:
002642: 00,3244           50110        RVQ                INDEX    FIXLOC                                #  RVQ - RETURN IVA QPRET.
002643: 00,3245           30052                           CA       QPRET
002644: 00,3246           54107                           TS       POLISH
002645: 00,3247           16721                           TCF      GOTO       +4                         #  (ASSUME QPRET POINTS TO FIXED ONLY.)
002646:


002648:                                                                                                  #           THE FOLLOWING SUBROUTINES ARE USED IN SQUARING MPAC, IN BOTH THE SCALAR AND VECTOR SENSE. THEY ARE
002649:                                                                                                  #  SPECIAL CASES OF DMPSUB AND DOTSUB, PUT IN TO SAVE SOME TIME.
002650:
002651: 00,3250           30145        DSQSUB             CA       MPAC       +1                         #  SQUARES THE SCALAR CONTENTS OF MPAC.
002652: 00,3251           00006                           EXTEND
002653: 00,3252           70000                           SQUARE
002654: 00,3253           54146                           TS       MPAC       +2
002655: 00,3254           37761                           CAF      ZERO                                  #  FORM 2(CROSS TERM).
002656: 00,3255           56145                           XCH      MPAC       +1
002657: 00,3256           00006                           EXTEND
002658: 00,3257           70144                           MP       MPAC
002659: 00,3260           20001                           DDOUBL                                         #  AND MAYBE OVERFLOW.
002660:
002661: 00,3261           20146                           DAS      MPAC       +1                         #  AND SET A TO NET OVERFLOW.
002662: 00,3262           56144                           XCH      MPAC
002663: 00,3263           00006                           EXTEND
002664: 00,3264           70000                           SQUARE
002665: 00,3265           20145                           DAS      MPAC
002666: 00,3266           00002                           TC       Q
002667:
002668: 00,3267           00006        VSQSUB             EXTEND                                         #  DOTS THE VECTOR IN MPAC WITH ITSELF.
002669: 00,3270           22127                           QXCH     DOTRET
002670: 00,3271           03250                           TC       DSQSUB                                #  SQUARE THE X COMPONENT.
002671: 00,3272           52150                           DXCH     MPAC       +3
002672: 00,3273           52145                           DXCH     MPAC
002673:
002674: 00,3274           52121                           DXCH     BUF                                   #  SO WE CAN END IN DOTSUB.
002675: 00,3275           30146                           CA       MPAC       +2
002676: 00,3276           54122                           TS       BUF        +2
002677:
002678: 00,3277           03250                           TC       DSQSUB                                #  SQUARE Y COMPONENT.
002679: 00,3300           52146                           DXCH     MPAC       +1
002680: 00,3301           20122                           DAS      BUF        +1
002681: 00,3302           60144                           AD       MPAC
002682: 00,3303           60120                           AD       BUF
002683: 00,3304           54120                           TS       BUF
002684:
002685: 00,3305           13307                           TCF      +2
002686: 00,3306           54111                           TS       OVFIND                                #  IF OVERFLOW.
002687:
002688: 00,3307           52152                           DXCH     MPAC       +5
002689: 00,3310           52145                           DXCH     MPAC
002690: 00,3311           03250                           TC       DSQSUB                                #  SQUARE Z COMPONENT.
002691: 00,3312           17250                           TCF      ENDDOT                                #  END AS IN DOTSUB.
002692:


002694:                                                                                                  #           DOUBLE PRECISION SQUARE ROOT ROUTINE. TAKE THE SQUARE ROOT OF THE TRIPLE PRECISION (MPAC +2 USED ONLY
002695:                                                                                                  #  IN NORMALIZATION) CONTENTS OF MPAC AND LEAVE THE NORMALIZED RESULT IN MPAC (C(MPAC) GREATER THAN OR EQUAL TO
002696:                                                                                                  #  .5). THE RIGHT SHIFT COUNT (TO UNNORMALIZE) IS LEFT IN MPTEMP.
002697:
002698:
002699:
002700: 00,3313           37761        SQRTSUB            CAF      ZERO                                  #  START BY ZEROING RIGHT SHIFT COUNT.
002701: 00,3314           54125                           TS       MPTEMP
002702:
002703:
002704: 00,3315           10144                           CCS      MPAC                                  #  CHECK FOR POSITIVE ARGUMENT, SHIFTING
002705: 00,3316           13354                           TCF      SMPAC+                                #  FIRST SIGNIFICANT MPAC REGISTER INTO
002706: 00,3317           13321                           TCF      +2                                    #  MPAC ITSELF.
002707: 00,3320           13343                           TCF      SQRTNEG                               #  SEE IF MAG OF ARGUMENT LESS THAN 10(-4).
002708:
002709: 00,3321           56146                           XCH      MPAC       +2                         #  MPAC IS ZERO - SHIFT LEFT 14.
002710: 00,3322           56145                           XCH      MPAC       +1
002711: 00,3323           54144                           TS       MPAC
002712: 00,3324           37757                           CAF      SEVEN                                 #  AUGMENT RIGHT SHIFT COUNTER.
002713:
002714: 00,3325           54125                           TS       MPTEMP
002715:
002716: 00,3326           10144                           CCS      MPAC                                  #  SEE IF MPAC NOW PNZ.
002717: 00,3327           13354                           TCF      SMPAC+
002718: 00,3330           13332                           TCF      +2
002719: 00,3331           13346                           TCF      ZEROANS                               #  NEGATIVE BUT LESS THAN 10(-4) IN MAG.
002720:
002721: 00,3332           56145                           XCH      MPAC       +1                         #  ZERO - SHIFT LEFT 14 AGAIN.
002722: 00,3333           54144                           TS       MPAC
002723: 00,3334           37757                           CAF      SEVEN                                 #  AUGMENT RIGHT SHIFT COUNTER.
002724: 00,3335           26125                           ADS      MPTEMP
002725:
002726:
002727: 00,3336           10144                           CCS      MPAC
002728: 00,3337           13354                           TCF      SMPAC+
002729: 00,3340           00002                           TC       Q                                     #  SQRT(0) = 0.
002730: 00,3341           13346                           TCF      ZEROANS
002731: 00,3342           00002                           TC       Q
002732:
002733:
002734:
002735: 00,3343           10000        SQRTNEG            CCS      A                                     #  ARGUMENT IS NEGATIVE, BUT SEE IF SIGN-
002736: 00,3344           13352                           TCF      SQRTABRT                              #  CORRECTED ARGUMENT IS LESS THAN 10(-4)
002737:
002738: 00,3345           10145                           CCS      MPAC       +1                         #  IN MAGNITUDE. IF SO, CALL ANSWER ZERO.
002739: 00,3346           37761        ZEROANS            CAF      ZERO                                  #  FORCE ANSWER TO ZERO HERE.
002740: 00,3347           13422                           TCF      FIXROOT
002741: 00,3350           13352                           TCF      SQRTABRT
002742: 00,3351           13422                           TCF      FIXROOT
002743:
002744: 00,3352           06000        SQRTABRT           TC       ABORT
002745: 00,3353           01302                           OCT      1302
002746:


002748: 00,3354           62430        SMPAC+             AD       -1/2+2                                #  SEE IF ARGUMENT GREATER THAN OR EQUAL TO
002749:
002750: 00,3355           00006                           EXTEND                                         #  .5.
002751: 00,3356           63425                           BZMF     SRTEST                                #  IF SO, SEE IF LESS THAN .25.
002752:
002753: 00,3357           52145                           DXCH     MPAC                                  #  WE WILL TAKE THE SQUARE ROOT OF MPAC/2.
002754: 00,3360           22021                           LXCH     SR                                    #  SHIFT RIGHT 1 AND GO TO THE SQRT ROUTINE
002755: 00,3361           00006                           EXTEND
002756: 00,3362           77740                           MP       HALF
002757: 00,3363           52145                           DXCH     MPAC
002758: 00,3364           56021                           XCH      SR
002759: 00,3365           26145                           ADS      MPAC       +1                         #  GUARANTEED NO OVERFLOW.
002760:
002761: 00,3366           32314        ARGHI              CAF      SLOPEHI                               #  ARGUMENT BETWEEN .25 AND .5. GET A
002762:
002763: 00,3367           00006                           EXTEND                                         #  LINEAR APPROXIMATION FOR THIS RANGE.
002764: 00,3370           70144                           MP       MPAC
002765: 00,3371           62530                           AD       BIASHI                                #  X0/2 = (MPAC/2)(SLOPEHI) + BIASHI/2.
002766:
002767: 00,3372           54120                 +4        TS       BUF                                   #  X0/2 (ARGLO ENTERS HERE).
002768: 00,3373           30144                           CA       MPAC                                  #  SINGLE-PRECISION THROUGHOUT.
002769: 00,3374           22007                           ZL
002770: 00,3375           00006                           EXTEND
002771: 00,3376           10120                           DV       BUF                                   #  (MPAC/2)/(X0/2)
002772: 00,3377           00006                           EXTEND
002773:
002774: 00,3400           77740                           MP       HALF
002775: 00,3401           26120                           ADS      BUF                                   #  X1 = X0/2 + .5(MPAC/2)/(X0/2).
002776:
002777: 00,3402           00006                           EXTEND
002778: 00,3403           77740                           MP       HALF                                  #  FORM UP X1/2.
002779: 00,3404           52145                           DXCH     MPAC                                  #  SAVE AND BRING OUT ARGUMENT.
002780: 00,3405           00006                           EXTEND                                         #  TAKE DP QUOTIENT WITH X1.
002781: 00,3406           10120                           DV       BUF
002782: 00,3407           54121                           TS       BUF        +1                         #  SAVE MAJOR PART OF QUOTIENT.
002783: 00,3410           37761                           CAF      ZERO                                  #  FORM MINOR PART OF QUOTIENT USING
002784: 00,3411           56001                           XCH      L                                     #  (REMAINDER,0).
002785: 00,3412           00006                           EXTEND
002786:
002787: 00,3413           10120                           DV       BUF
002788: 00,3414           54001                           TS       L                                     #  IN PREPARATION FOR DAS.
002789: 00,3415           30121                           CA       BUF        +1
002790: 00,3416           20145                           DAS      MPAC                                  #  X2 = X1/2 + (MPAC/2)X1
002791:
002792: 00,3417           00006                           EXTEND                                         #  OVERFLOWS IF ARG. NEAR POSMAX.
002793: 00,3420           13424                           BZF      TCQBNK00
002794: 00,3421           37735                           CAF      POSMAX
002795: 00,3422           54144        FIXROOT            TS       MPAC
002796: 00,3423           54145                           TS       MPAC       +1
002797:
002798: 00,3424           00002        TCQBNK00           TC       Q                                     #  RETURN TO CALLER TO UNNORMALIZE, ETC.
002799:


002801: 00,3425           67741        SRTEST             AD       QUARTER                               #  ARGUMENT WAS LESS THAN .5, SEE IF LESS
002802: 00,3426           00006                           EXTEND                                         #  THAN .25.
002803: 00,3427           63451                           BZMF     SQRTNORM                              #  IF SO, BEGIN NORMALIZATION.
002804:
002805: 00,3430           52145                           DXCH     MPAC                                  #  IF BETWEEN .5 AND .25, SHIFT RIGHT 1 AND
002806: 00,3431           22021                           LXCH     SR                                    #  START AT ARGLO.
002807:
002808: 00,3432           00006                           EXTEND
002809: 00,3433           77740                           MP       HALF
002810: 00,3434           52145                           DXCH     MPAC
002811: 00,3435           56021                           XCH      SR
002812: 00,3436           26145                           ADS      MPAC       +1                         #  NO OVERFLOW.
002813:
002814: 00,3437           32760        ARGLO              CAF      SLOPELO                               #  (NORMALIZED) ARGUMENT BETWEEN .125 AND
002815: 00,3440           00006                           EXTEND                                         #  .25
002816: 00,3441           70144                           MP       MPAC
002817: 00,3442           62270                           AD       BIASLO
002818: 00,3443           13372                           TCF      ARGHI      +4                         #  BEGIN SQUARE ROOT.
002819:
002820:
002821: 00,3444           00006        SQRTNM2            EXTEND                                         #  SHIFT LEFT 2 AND INCREMENT RIGHT SHIFT
002822: 00,3445           30146                           DCA      MPAC       +1                         #  COUNT (FOR TERMINAL UNNORMALIZATION).
002823: 00,3446           20146                           DAS      MPAC       +1
002824: 00,3447           60144                           AD       MPAC
002825: 00,3450           26144                           ADS      MPAC                                  #  (NO OVERFLOW).
002826:
002827: 00,3451           24125        SQRTNORM           INCR     MPTEMP                                #  FIRST TIME THROUGH, JUST SHIFT LEFT 1
002828: 00,3452           00006                           EXTEND                                         #  (PUTS IN EFFECTIVE RIGHT SHIFT SINCE
002829: 00,3453           30146                           DCA      MPAC       +1                         #  WE WANT MPAC/2).
002830: 00,3454           20146                           DAS      MPAC       +1
002831:
002832: 00,3455           60144                           AD       MPAC
002833: 00,3456           26144                           ADS      MPAC                                  #  (AGAIN NO OVERFLOW).
002834: 00,3457           60000                           DOUBLE
002835: 00,3460           54022                           TS       CYL
002836:
002837: 00,3461           10022        NORMTEST           CCS      CYL                                   #  SEE IF ARGUMENT NOW NORMALIZED AT
002838: 00,3462           10022                           CCS      CYL                                   #  GREATER THAN .125.
002839: 00,3463           13444                           TCF      SQRTNM2                               #  NO - SHIFT LEFT 2 MORE AND TRY AGAIN.
002840: 00,3464           13366                           TCF      ARGHI                                 #  YES - NOW BETWEEN .5 AND .25.
002841: 00,3465           13437                           TCF      ARGLO                                 #  ARGUMENT NOW BETWEEN .25 AND .125.
002842:


002844:                                                                                                  #  TRIGONOMETRIC FUNCTION PACKAGE.
002845:
002846:
002847:                                                                                                  #           THE FOLLOWING TRIGONOMETRIC FUNCTIONS ARE AVAILABLE AS INTERPRETIVE OPERATIONS:
002848:
002849:                                                                                                  #           1.  SIN                COMPUTES (1/2)SINE(2 PI MPAC).
002850:                                                                                                  #           2.  COS                COMPUTES (1/2)COSINE(2 PI MPAC).
002851:
002852:                                                                                                  #           3.  ASIN               COMPUTES (1/2PI)ARCSINE(2 MPAC).
002853:                                                                                                  #           4.  ACOS               COMPUTES (1/2PI)ARCCOSINE(2 MPAC).
002854:
002855:                                                                                                  #  SIN-ASIN AND COS-ACOS ARE MUTUALLY INVERSE, IE SIN(ASIN(X)) = X.
002856:
002857:
002858:
002859: 00,3466           06772        COSINE             TC       BRANCH                                #  FINDS COSINE USING THE IDENTITY
002860: 00,3467           13472                           TCF      +3                                    #  COS(X) = SIN(PI/2 - ABS(X)).
002861: 00,3470           13475                           TCF      PRESINE
002862: 00,3471           13475                           TCF      PRESINE
002863:
002864: 00,3472           00006                 +3        EXTEND
002865: 00,3473           40145                           DCS      MPAC
002866: 00,3474           52145                           DXCH     MPAC
002867:
002868: 00,3475           37741        PRESINE            CAF      QUARTER                               #  PI/2 SCALED.
002869: 00,3476           26144                           ADS      MPAC
002870:
002871:
002872:
002873:
002874: 00,3477           52145        SINE               DXCH     MPAC                                  #  DOUBLE ARGUMENT.
002875: 00,3500           20001                           DDOUBL
002876: 00,3501           54000                           OVSK                                           #  SEE IF OVERFLOW PRESENT.
002877: 00,3502           13505                           TCF      +3                                    #  IF NOT, ARGUMENT OK AS IS.
002878:
002879: 00,3503           00006                           EXTEND                                         #  IF SO, WE LOST (OR GAINED) PI, SO
002880: 00,3504           40001                           DCOM                                           #  COMPLEMENT MPAC USING THE IDENTITY
002881:
002882:                                                                                                  #  SIN(X-(+)PI) = SIN(-X).
002883: 00,3505           52145                 +3        DXCH     MPAC
002884: 00,3506           30144                           CA       MPAC                                  #  SEE IF ARGUMENT GREATER THAN .5 IN
002885: 00,3507           60000                           DOUBLE                                         #  MAGNITUDE. IF SO, REDUCE IT TO LESS THAN
002886: 00,3510           54001                           TS       L                                     #  .5 (+-PI/2 SCALED) AS FOLLOWS:
002887: 00,3511           13522                           TCF      SN1
002888:
002889: 00,3512           50000                           INDEX    A                                     #  IF POSITIVE, FORM PI - X, IF NEGATIVE
002890: 00,3513           37737                           CAF      NEG1/2     +1                         #  USE -PI - X.
002891: 00,3514           60000                           DOUBLE
002892: 00,3515           00006                           EXTEND
002893: 00,3516           60144                           SU       MPAC                                  #  GUARANTEED NO OVERFLOW.
002894:
002895: 00,3517           54144                           TS       MPAC
002896: 00,3520           40145                           CS       MPAC       +1
002897: 00,3521           54145                           TS       MPAC       +1
002898:


002900: 00,3522           00006        SN1                EXTEND                                         #  SET UP TO EVALUATE HASTINGS POLYNOMIAL
002901: 00,3523           30145                           DCA      MPAC
002902: 00,3524           52124                           DXCH     BUF2
002903: 00,3525           03250                           TC       DSQSUB                                #  SQUARE MPAC.
002904:
002905: 00,3526           07265                           TC       POLY                                  #  EVALUATE FOURTH ORDER POLYNOMIAL.
002906: 00,3527           00003                           DEC      3          B-14
002907: 00,3530           14441 37325                     2DEC     +.3926990796
002908:
002909:
002910: 00,3532           53250 60764                     2DEC     -.6459637111
002911:
002912: 00,3534           12146 21276                     2DEC     +.318758717
002913:
002914: 00,3536           75466 71471                     2DEC     -.074780249
002915:
002916: 00,3540           00236 32757                     2DEC     +.009694988
002917:
002918: 00,3542           32454                           CAF      LBUF2                                 #  MULTIPLY BY ARGUMENT AND SHIFT LEFT 2.
002919:
002920: 00,3543           07151                           TC       DMPSUB     -1
002921:
002922: 00,3544           00006                           EXTEND
002923: 00,3545           30146                           DCA      MPAC       +1
002924: 00,3546           20146                           DAS      MPAC       +1
002925: 00,3547           60144                           AD       MPAC
002926: 00,3550           26144                           ADS      MPAC                                  #  NEITHER SHIFT OVERFLOWS.
002927: 00,3551           00006                           EXTEND
002928: 00,3552           30146                           DCA      MPAC       +1
002929: 00,3553           20146                           DAS      MPAC       +1
002930: 00,3554           60144                           AD       MPAC
002931: 00,3555           26144                           ADS      MPAC
002932:
002933: 00,3556           16115                           TCF      DANZIG
002934:


002936:                                                                                                  #           ARCSIN/ARCCOS ROUTINE.
002937:
002938: 00,3557           33600        ARCSIN             CAF      LASINEX                               #  COMPUTE ARCSIN BY USING THE IDENTITY
002939: 00,3560           13562                           TCF      +2                                    #  ARCSIN(X) = PI/2 - ARCCOS(X).
002940:
002941: 00,3561           33662        ARCCOS             CAF      LDANZIG                               #  (EXITS IMMEDIATELY).
002942: 00,3562           54126                           TS       ESCAPE
002943: 00,3563           06772                           TC       BRANCH                                #  TEST SIGN OF INPUT.
002944: 00,3564           13574                           TCF      ACOSST                                #  START IMMEDIATELY IF POSITIVE.
002945: 00,3565           13674                           TCF      ACOSZERO                              #  ARCCOS(0) = PI/2 = .25.
002946: 00,3566           00006                           EXTEND                                         #  IF NEGATIVE, USE THE IDENTITY
002947: 00,3567           40145                           DCS      MPAC                                  #  ARCCOS(X) = PI - ARCCOS(-X), FORCING
002948: 00,3570           52145                           DXCH     MPAC                                  #  ARGUMENT POSITIVE.
002949: 00,3571           33677                           CAF      TCSUBTR                               #  SET EXIT  TO DO ABOVE BEFORE
002950:
002951: 00,3572           56126                           XCH      ESCAPE                                #  ARCSIN/ARCCOS CONSIDERATIONS.
002952: 00,3573           54127                           TS       ESCAPE2
002953:
002954: 00,3574           47740        ACOSST             CS       HALF                                  #  TEST MAGNITUDE OF INPUT.
002955: 00,3575           60144                           AD       MPAC
002956: 00,3576           10000                           CCS      A
002957: 00,3577           13670                           TCF      ACOSOVF                               #  THIS IS PROBABLY AN OVERFLOW CASE.
002958:
002959: 00,3600           13656        LASINEX            TCF      ASINEX
002960:
002961: 00,3601           13611                           TCF      ACOSST2                               #  NO OVERFLOW - PROCEED.
002962:
002963: 00,3602           10145                           CCS      MPAC       +1                         #  IF MAJOR PART IS .5, CALL ANSWER 0
002964: 00,3603           37761                           CAF      ZERO                                  #  UNLESS MINOR PART NEGATIVE.
002965: 00,3604           13606                           TCF      ACOS=0
002966:
002967: 00,3605           13611                           TCF      ACOSST2
002968:
002969: 00,3606           54145        ACOS=0             TS       MPAC       +1
002970: 00,3607           54144                           TS       MPAC
002971: 00,3610           00126                           TC       ESCAPE
002972:
002973: 00,3611           00006        ACOSST2            EXTEND                                         #  NOW THAT ARGUMENT IS IN PROPER RANGE,
002974:
002975: 00,3612           40145                           DCS      MPAC                                  #  BEGIN COMPUTATION. USE HASTINGS
002976: 00,3613           67740                           AD       HALF                                  #  APPROXIMATION ARCCOS(X) = SQRT(1-X)P(X)
002977: 00,3614           52145                           DXCH     MPAC                                  #  IN A SCALED VERSION WHERE P(X) IS A
002978: 00,3615           52124                           DXCH     BUF2                                  #  SEVENTH ORDER POLYNOMIAL.
002979:
002980: 00,3616           03313                           TC       SQRTSUB                               #  RETURNS WITH NORMALIZED SQUARE ROOT.
002981:
002982: 00,3617           10125                           CCS      MPTEMP                                #  SEE IF UN-NORMALIZATION REQUIRED.
002983: 00,3620           13663                           TCF      ACOSSHR                               #  IF SO.
002984:


002986: 00,3621           52145        ACOS3              DXCH     MPAC                                  #  SET UP FOR POLYNOMIAL EVALUATION.
002987: 00,3622           52124                           DXCH     BUF2
002988: 00,3623           52145                           DXCH     MPAC
002989:
002990: 00,3624           07265                           TC       POLY
002991: 00,3625           00006                           DEC      6          B-14
002992:
002993: 00,3626           13240 23630                     2DEC     +.353553385                            #  COEFFICIENTS ARE C 2(+I)/PISQRT(2) WHERE
002994:
002995: 00,3630           74721 47775                     2DEC*    -.0483017006 B+1*                       #                    I
002996:
002997: 00,3632           02440 20237                     2DEC*    +.0200273085 B+2*                       #       WHERE C STANDS FOR ORIGINAL COEFFS.
002998:
002999: 00,3634           75067 70742                     2DEC*    -.0112931863 B+3*
003000:
003001: 00,3636           03436 26756                     2DEC*    +.00695311612 B+4*
003002:
003003: 00,3640           74037 57640                     2DEC*    -.00384617957 B+5*
003004:
003005:
003006: 00,3642           03046 07143                     2DEC*    +.001501297736 B+6*
003007:
003008: 00,3644           76654 42244                     2DEC*    -.000284160334 B+7*
003009:
003010: 00,3646           32454                           CAF      LBUF2                                 #  DO FINAL MULTIPLY AND GO TO ANY
003011: 00,3647           07151                           TC       DMPSUB     -1                         #  EPILOGUE SEQUENCES.
003012: 00,3650           00126                           TC       ESCAPE
003013:
003014: 00,3651           00006        SUBTR              EXTEND                                         #  EPILOGUE FOR NEGATIVE INPUTS TO ARCCOS.
003015: 00,3652           40145                           DCS      MPAC
003016:
003017: 00,3653           67740                           AD       HALF                                  #  FORMS PI - ARCCOS(-X) = ARCCOS(X).
003018: 00,3654           52145                           DXCH     MPAC
003019: 00,3655           00127                           TC       ESCAPE2                               #  GO TO POSSIBLE ARCSIN EPILOGUE.
003020:
003021: 00,3656           00006        ASINEX             EXTEND
003022: 00,3657           40145                           DCS      MPAC                                  #  ARCSIN EPILOGUE - GET ARCSIN(X)
003023: 00,3660           67741                           AD       QUARTER                               #  = PI/2 - ARCCOS(X).
003024: 00,3661           52145                           DXCH     MPAC
003025: 00,3662           16115        LDANZIG            TCF      DANZIG
003026:


003028: 00,3663           50000        ACOSSHR            INDEX    A                                     #  THE SHIFT RIGHT IS LESS THAN 14 SINCE
003029: 00,3664           37740                           CAF      BIT14                                 #  THE INPUT WAS NON-ZERO DP.
003030:
003031: 00,3665           54125                           TS       MPTEMP
003032: 00,3666           02073                           TC       VSHRRND                               #  DP SHIFT RIGHT AND ROUND.
003033: 00,3667           13621                           TCF      ACOS3                                 #  PROCEED.
003034:
003035: 00,3670           00006        ACOSOVF            EXTEND                                         #  IF MAJOR PART WAS ONLY 1 MORE THAN .5,
003036: 00,3671           13606                           BZF      ACOS=0                                #  CALL ANSWER ZERO.
003037:
003038: 00,3672           06000        ACOSABRT           TC       ABORT
003039: 00,3673           01301                           OCT      1301
003040:
003041: 00,3674           37741        ACOSZERO           CAF      QUARTER                               #  ACOS(0) = PI/2.
003042: 00,3675           13607                           TCF      ACOS=0     +1                         #  SET MPAC AND EXIT VIA ESCAPE.
003043:
003044: 00,3676           77763        NEG12              DEC      -12        B-14
003045: 00,3677           13651        TCSUBTR            TCF      SUBTR
003046:


003048:                                                                                                  #           THE FOLLOWING INSTRUCTIONS ARE AVAILABLE FOR SETTING, MODIFYING, AND BRANCHING ON INDEX REGISTERS:
003049:
003050:                                                                                                  #           1.  AXT                ADDRESS TO INDEX TRUE.
003051:                                                                                                  #           2.  AXC                ADDRESS TO INDEX COMPLEMENTED.
003052:                                                                                                  #           3.  LXA                LOAD INDEX FROM ERASABLE.
003053:                                                                                                  #           4.  LXC                LOAD INDEX COMPLEMENTED FROM ERASABLE.
003054:                                                                                                  #           5.  SXA                STORE INDEX IN ERASABLE.
003055:                                                                                                  #           6.  XCHX               EXCHANGE INDEX REIGSTER WITH ERASABLE.
003056:
003057:
003058:                                                                                                  #           7.  INCR               INCREMENT INDEX REGISTER.
003059:                                                                                                  #           8.  XAD                ERASABLE ADD TO INDEX REGISTER.
003060:                                                                                                  #           9.  XSU                ERASABLE SUBTRACT FROM INDEX REGISTER.
003061:
003062:                                                                                                  #          10.  TIX                BRANCH ON INDEX REGISTER AND DECREMENT.
003063:
003064:
003065:
003066: 01,2557                                           BANK     01
003067:
003068: 01,2557           02654        AXT                TC       TAGSUB                                #  SELECT APPROPRIATE INDEX REGISTER.
003069: 01,2560           30107                           CA       POLISH
003070: 01,2561           50120        XSTORE             INDEX    INDEXLOC                              #  CONTAINS C(FIXLOC) OR C(FIXLOC)+1.
003071: 01,2562           54046                           TS       X1
003072: 01,2563           16115                           TCF      DANZIG
003073:
003074: 01,2564           02654        AXC                TC       TAGSUB
003075: 01,2565           40107                           CS       POLISH
003076: 01,2566           02561                           TC       XSTORE
003077:
003078: 01,2567           02642        LXA                TC       15ADRERS                              #  LOAD INDEX REGISTER FROM ERASABLE.
003079: 01,2570           50107                           INDEX    POLISH
003080:
003081: 01,2571           30000                           CA       0
003082: 01,2572           12561                           TCF      XSTORE
003083:
003084: 01,2573           02642        LXC                TC       15ADRERS                              #  LOAD NDX REG FROM ERASABLE COMPLEMENTED.
003085: 01,2574           50107                           INDEX    POLISH
003086: 01,2575           40000                           CS       0
003087: 01,2576           12561                           TCF      XSTORE
003088:
003089: 01,2577           02642        SXA                TC       15ADRERS                              #  STORE INDEX REGISTER IN ERASABLE.
003090: 01,2600           50120                           INDEX    INDEXLOC
003091:
003092: 01,2601           30046                           CA       X1
003093: 01,2602           50107        MSTORE1            INDEX    POLISH
003094: 01,2603           54000                           TS       0
003095: 01,2604           16115                           TCF      DANZIG
003096:


003098: 01,2605           02642        XCHX               TC       15ADRERS                              #  EXCHANGE INDEX REGISTER WITH ERASABLE.
003099:
003100: 01,2606           50107                           INDEX    POLISH
003101: 01,2607           30000                           CA       0
003102: 01,2610           50120                           INDEX    INDEXLOC
003103: 01,2611           56046                           XCH      X1
003104: 01,2612           12602                           TCF      MSTORE1
003105:
003106: 01,2613           02642        XAD                TC       15ADRERS                              #  ADD ERASABLE TO INDEX REGISTER.
003107: 01,2614           50107                           INDEX    POLISH
003108: 01,2615           30000                           CA       0
003109: 01,2616           50120        XAD2               INDEX    INDEXLOC
003110: 01,2617           26046                           ADS      X1                                    #  IGNORING OVERFLOWS.
003111: 01,2620           16115                           TCF      DANZIG
003112:
003113:
003114: 01,2621           02654        INCR               TC       TAGSUB                                #  INCREMENT INDEX REGISTER.
003115: 01,2622           30107                           CA       POLISH
003116: 01,2623           12616                           TCF      XAD2
003117:
003118: 01,2624           02642        XSU                TC       15ADRERS                              #  SUBTRACT ERASABLE FROM INDEX REGISTER.
003119: 01,2625           50107                           INDEX    POLISH
003120: 01,2626           40000                           CS       0
003121: 01,2627           12616                           TCF      XAD2
003122:
003123:
003124:
003125: 01,2630           02654        TIX                TC       TAGSUB                                #  BRANCH AND DECREMENT ON INDEX.
003126: 01,2631           50120                           INDEX    INDEXLOC
003127: 01,2632           40050                           CS       S1
003128: 01,2633           50120                           INDEX    INDEXLOC
003129: 01,2634           60046                           AD       X1
003130: 01,2635           00006                           EXTEND                                         #  NO OPERATION IF DECREMENTED INDEX IS
003131: 01,2636           66115                           BZMF     DANZIG                                #  NEGATIVE OR ZERO.
003132:
003133: 01,2637           50120        DOTIXBR            INDEX    INDEXLOC
003134: 01,2640           56046                           XCH      X1                                    #  IGNORING OVERFLOWS.
003135:
003136:
003137: 01,2641           16715                           TCF      GOTO                                  #  DO THE BRANCH USING THE CADR IN POLISH.
003138:


003140:                                                                                                  #           SUBROUTINE TO CONVERT AN ERASABLE ADDRESS (11 BITS) TO AN EBANK SETTING AND SUBADDRESS.
003141:
003142: 01,2642           40107        15ADRERS           CS       POLISH
003143: 01,2643           65371                           AD       DEC45
003144: 01,2644           10000                           CCS      A                                     #  DOES THE ADDRESS POINT TO THE WORK AREA?
003145: 01,2645           30110                           CA       FIXLOC                                #  YES.  ADD FIXLOC.  EBANK OK AS IS.
003146:
003147: 01,2646           12653                           TCF      +5
003148:
003149: 01,2647           35370                           CA       OCT1400                               #  NO.  SET EBANK & MAKE UP SUBADDRESS.
003150: 01,2650           56107                           XCH      POLISH
003151: 01,2651           54003                           TS       EBANK
003152: 01,2652           74553                           MASK     LOW8
003153: 01,2653           26107                 +5        ADS      POLISH                                #  FALL INTO TAGSUB, AND RETURN VIA Q.
003154:
003155:                                                                                                  #           SUBROUTINE WHICH SETS THE ADDRESS OF THE SPECIFIED INDEX IN INDEXLOC. (ACTUALLY, THE ADDRESS -38D.)
003156:
003157: 01,2654           30110        TAGSUB             CA       FIXLOC
003158: 01,2655           54120                           TS       INDEXLOC
003159:
003160:
003161: 01,2656           10020                           CCS      CYR                                   #  BIT 15 SPECIFIES INDEX.
003162: 01,2657           24120                           INCR     INDEXLOC                              #  0 MEANS USE X2.
003163: 01,2660           00002                           TC       Q
003164: 01,2661           00002                           TC       Q                                     #  1 FOR X1.
003165:


003167:                                                                                                  #           MISCELLANEOUS OPERATION CODES WITH DIRECT ADDRESSES. INCLUDED HERE ARE:
003168:
003169:
003170:                                                                                                  #           1.  ITA                STORE QPRET (RETURN ADDRESS) IN ERASABLE.
003171:                                                                                                  #           2.  CALL               CALL A SUBROUTINE, LEAVING RETURN IN QPRET.
003172:                                                                                                  #           3.  RTB                RETURN TO BASIC LANGUAGE AT THE GIVEN ADDRESS.
003173:                                                                                                  #           4.  BHIZ               BRANCH IF THE HIGH ORDER OF MPAC IS ZERO (SINGLE PRECISION).
003174:                                                                                                  #           5.  BOV                BRANCH ON OVERFLOW.
003175:                                                                                                  #           6.  GOTO               SIMPLE SEQUENCE CHANGE.
003176:
003177: 01,2662           10020        RTB/BHIZ           CCS      CYR
003178: 01,2663           30107        RTB                CA       POLISH
003179: 01,2664           15246                           TCF      BANKJUMP                              #  CALL BASIC ROUTINE.
003180:
003181:
003182: 01,2665           10144        BHIZ               CCS      MPAC
003183: 01,2666           16115                           TCF      DANZIG
003184: 01,2667           16715                           TCF      GOTO
003185: 01,2670           16115                           TCF      DANZIG
003186: 01,2671           16715                           TCF      GOTO
003187:
003188: 01,2672           10111        BOV(B)             CCS      OVFIND                                #  BRANCH ON OVERFLOW TO BASIC OR INTERP.
003189: 01,2673           12675                           TCF      +2
003190: 01,2674           16115                           TCF      DANZIG
003191: 01,2675           54111                           TS       OVFIND
003192: 01,2676           10020                           CCS      CYR
003193:
003194: 01,2677           12663                           TCF      RTB                                   #  IF BASIC.
003195: 01,2700           00360        B5TOB8             OCT      360
003196: 01,2701           16715                           TCF      GOTO
003197:


003199: 01,2702           10020        BZE/GOTO           CCS      CYR                                   #  SEE WHICH OP-CODE IS DESIRED.
003200: 01,2703           06772                           TC       BRANCH                                #  DO BZE.
003201: 01,2704           16115                           TCF      DANZIG
003202: 01,2705           16715                           TCF      GOTO                                  #  DO GOTO.
003203: 01,2706           16115                           TCF      DANZIG
003204:
003205: 01,2707           10020        BPL/BMN            CCS      CYR
003206: 01,2710           12716                           TCF      BPL
003207:
003208: 01,2711           12000        5B10               DEC      5          B+10                       #  SHIFTS OP CODE IN SWITCH INSTRUCTION ADR
003209:
003210: 01,2712           06772                           TC       BRANCH                                #  DO BMN.
003211: 01,2713           16115                           TCF      DANZIG
003212: 01,2714           16115                           TCF      DANZIG
003213: 01,2715           16715                           TCF      GOTO                                  #  ONLY IF NNZ.
003214:
003215: 01,2716           06772        BPL                TC       BRANCH
003216: 01,2717           16715                           TCF      GOTO                                  #  IF POSITIVE OR ZERO.
003217: 01,2720           16715                           TCF      GOTO
003218: 01,2721           16115                           TCF      DANZIG
003219:
003220: 01,2722           10020        CALL/ITA           CCS      CYR
003221: 01,2723           16707                           TCF      CALL
003222:
003223: 01,2724           04725                           TC       CCSHOLE
003224: 01,2725           02642                           TC       15ADRERS                              #  STORE QPRET. (TAGSUB AFTER 15ADRERS IS
003225: 01,2726           50110                           INDEX    FIXLOC                                #  SLOW IN THIS CASE, BUT SAVES STORAGE.)
003226: 01,2727           30052                           CA       QPRET
003227: 01,2730           12602                           TCF      MSTORE1
003228:


003230:                                                                                                  #           THE FOLLOWING OPERATIONS ARE AVAILABLE FOR ALTERING AND TESTING INTERPRETIVE SWITCHES:
003231:
003232:                                                                                                  #  00       BONSET                 SET A SWITCH AND DO A GOTO IF IT WAS ON.
003233:                                                                                                  #  01       SETGO                  SET A SWITCH AND DO A GOTO.
003234:                                                                                                  #  02       BOFSET                 SET A SWITCH AND DO A GOTO IF IT WAS OFF
003235:                                                                                                  #  03       SET                    SET A SWITCH.
003236:
003237:                                                                                                  #  04       BONINV                 INVERT A SWITCH AND BRANCH IF IT WAS ON.
003238:                                                                                                  #  05       INVGO                  INVERT A SWITCH AND DO A GOTO.
003239:                                                                                                  #  06       BOFINV                 INVERT A SWITCH AND BRANCH IF IT WAS OFF
003240:                                                                                                  #  07       INVERT                 INVERT A SWITCH.
003241:
003242:                                                                                                  #  10       BONCLR                 CLEAR A SWITCH AND BRANCH IF IT WAS ON.
003243:                                                                                                  #  11       CLRGO                  CLEAR A SWITCH AND DO A GOTO.
003244:
003245:                                                                                                  #  12       BOFCLR                 CLEAR A SWITCH AND BRANCH IF IT WAS OFF.
003246:                                                                                                  #  13       CLEAR                  CLEAR A SWITCH.
003247:
003248:                                                                                                  #  14       BON                    BRANCH IF A SWITCH WAS ON.
003249:                                                                                                  #  16       BOFF                   BRANCH IF A SWITCH WAS OFF.
003250:
003251:
003252:
003253:                                                                                                  #           THE ADDRESS SUPPLIED WITH THE SWITCH INSTRUCTION IS INTERPRETED AS FOLLOWS:
003254:
003255:                                                                                                  #           BITS 1-4    SWITCH BIT NUMBER (1-15).
003256:                                                                                                  #           BITS 5-8    SWITCH OPERATION NUMBER.
003257:                                                                                                  #           BITS 9-     SWITCH WORD NUMBER (UP TO 64 SWITCH WORDS).
003258:
003259:                                                                                                  #           THE ADDRESS ITSELF IS MADE UP BY THE YUL SYSTEM ASSEMBLER. THE BRANCH INSTRUCTIONS REQUIRE TWO
003260:                                                                                                  #  ADDRESSES, THE SECOND TAKEN AS THE DIRECT (OR INDIRECT IF IN ERASABLE) ADDRESS OF THE BRANCH.
003261:
003262:
003263:
003264: 01,2731           35361        SWITCHES           CAF      LOW4                                  #  LEAVE THE SWITCH BIT IN SWBIT  .
003265: 01,2732           70107                           MASK     POLISH
003266: 01,2733           50000                           INDEX    A
003267: 01,2734           37737                           CAF      BIT15                                 #  (NUMBER FROM LEFT TO RIGHT.)
003268:
003269: 01,2735           54121                           TS       SWBIT
003270:
003271: 01,2736           37747                           CAF      BIT7                                  #  LEAVE THE SWITCH NUMBER IN SWWORD.
003272: 01,2737           00006                           EXTEND
003273: 01,2740           70107                           MP       POLISH
003274: 01,2741           54120                           TS       SWWORD
003275:
003276: 01,2742           00004                           INHINT                                         #  DURING SWITCH CHANGE SO RUPT CAN USE TOO
003277: 01,2743           50000                           INDEX    A                                     #  LEAVE THE SWITCH WORD ITSELF IN L.
003278: 01,2744           30074                           CA       STATE
003279:
003280: 01,2745           54002                           TS       Q                                     #  Q WILL BE USED AS A CHANNEL.


003282: 01,2746           37743                           CAF      BIT11
003283: 01,2747           00006                           EXTEND                                         #  DISPATCH SWITCH BIT OPERATION AS IN BITS
003284: 01,2750           70107                           MP       POLISH                                #  7-8 OF POLISH.
003285: 01,2751           73011                           MASK     B3TOB4                                #  GETS 4X2-BIT CODE.
003286: 01,2752           50000                           INDEX    A
003287: 01,2753           12754                           TCF      +1
003288:
003289:
003290: 01,2754           30121                 +1        CA       SWBIT                                 #  00 - SET SWITCH IN QUESTION.
003291: 01,2755           00006                           EXTEND
003292: 01,2756           04002                           ROR      Q
003293: 01,2757           12766                           TCF      SWSTORE
003294:
003295: 01,2760           30121                 +5        CA       SWBIT                                 #  01 - INVERT SWITCH.
003296: 01,2761           00006                           EXTEND
003297: 01,2762           06002                           RXOR     Q
003298: 01,2763           12766                           TCF      SWSTORE
003299:
003300: 01,2764           40121                 +9D       CS       SWBIT                                 #  10 - CLEAR.
003301:
003302: 01,2765           70002                           MASK     Q
003303: 01,2766           50120        SWSTORE            INDEX    SWWORD
003304: 01,2767           54074                           TS       STATE                                 #  NEW SWITCH WORD.
003305:


003307: 01,2770           00003                 +13D      RELINT                                         #  11 - NOOP.
003308: 01,2771           37741                           CAF      BIT13
003309:
003310: 01,2772           00006                           EXTEND                                         #  DISPATCH SEQUCE CHANGING OR BRANCHING
003311: 01,2773           70107                           MP       POLISH                                #  CODE.
003312: 01,2774           73011                           MASK     B3TOB4
003313: 01,2775           50000                           INDEX    A
003314: 01,2776           12777                           TCF      +1                                    #  ORIGINALLY STORED IN BITS 5-6.
003315:
003316: 01,2777           40002                 +1        CS       Q                                     #  00 - BRANCH IF ON.
003317: 01,3000           70121        TEST               MASK     SWBIT
003318: 01,3001           10000                           CCS      A
003319: 01,3002           13012                           TCF      SWSKIP
003320:
003321: 01,3003           16764                 +5        TCF      SWBRANCH                              #  01 - GO TO.
003322:
003323: 01,3004           13012                           TCF      SWSKIP                                #  HERE ONLY ON BIT 15.
003324:
003325: 01,3005           04725                           TC       CCSHOLE
003326: 01,3006           04725                           TC       CCSHOLE
003327:
003328: 01,3007           30002                 +9D       CA       Q                                     #  10 - BRANCH IF OFF.
003329: 01,3010           13000                           TCF      TEST
003330:
003331: 01,3011           00014        B3TOB4             OCT      14
003332:
003333:
003334: 01,3012           24154        SWSKIP             INCR     LOC
003335:
003336: 01,3013  01,2731               SW/                EQUALS   SWITCHES
003337:
003338: 01,3013           16115                 +13D      TCF      DANZIG                                #  11 - NOOP.

End of include-file INTERPRETER.agc.  Parent file is MAIN.agc


