
Source Code


000002:                                                                                                  ## Copyright:   Public domain.
000003:                                                                                                  ## Filename:    INTER-BANK_COMMUNICATION.agc
000004:                                                                                                  ## Purpose:     A section of Sunburst revision 37, or Shepatin revision 0.
000005:                                                                                                  ##              It is part of an early development version of the software
000006:                                                                                                  ##              for Apollo Guidance Computer (AGC) on the unmanned Lunar
000007:                                                                                                  ##              Module (LM) flight Apollo 5. Sunburst 37 was the program
000008:                                                                                                  ##              upon which Don Eyles's offline development program Shepatin
000009:                                                                                                  ##              was based; the listing herein transcribed was actually for
000010:                                                                                                  ##              the equivalent revision 0 of Shepatin.
000011:                                                                                                  ##              This file is intended to be a faithful transcription, except
000012:                                                                                                  ##              that the code format has been changed to conform to the
000013:                                                                                                  ##              requirements of the yaYUL assembler rather than the
000014:                                                                                                  ##              original YUL assembler.
000015:                                                                                                  ## Reference:   pp. 888-892
000016:                                                                                                  ## Assembler:   yaYUL
000017:                                                                                                  ## Contact:     Ron Burkey <info@sandroid.org>.
000018:                                                                                                  ## Website:     www.ibiblio.org/apollo/index.html
000019:                                                                                                  ## Mod history: 2017-05-24 MAS  Created from Sunburst 120.
000020:                                                                                                  ##              2017-06-03 TVB  Transcribed.
000021:                                                                                                  ##              2017-06-14 HG   Fix opcode CA -> DCA
000022:                                                                                                  ##                              Add missing EXTEND
000023:                                                                                                  ##              2017-06-23 RSB  Proofed comment text with
000024:                                                                                                  ##                              octopus/ProoferComments.
000025:


000027:                                                                                                  #           THE FOLLOWING ROUTINE CAN BE USED TO CALL A SUBROUTINE IN ANOTHER BANK. IN THE BANKCALL VERSION, THE
000028:                                                                                                  #  CADR OF THE SUBROUTINE IMMEDIATELY FOLLOWS THE  TC BANKCALL  INSTRUCTION, WITH C(A) AND C(L) PRESERVED.
000029:
000030:    5224                                           BLOCK    02
000031:    5224           52124        BANKCALL           DXCH     BUF2                                  #  SAVE INCOMING A,L.
000032:    5225           50002                           INDEX    Q                                     #  PICK UP CADR.
000033:    5226           30000        BNKCAL+2           CA       0
000034:    5227           24002                           INCR     Q                                     #  SO WE RETURN TO THE LOC. AFTER THE CADR.
000035:
000036:                                                                                                  #  SWCALL IS  IDENTICAL TO BANKCALL, EXCEPT THAT THE CADR ARRIVES IN A.
000037:
000038:    5230           54001        SWCALL             TS       L
000039:    5231           22004                           LXCH     FBANK                                 #  SWITCH BANKS, SAVING RETURN.
000040:    5232           75356                           MASK     LOW10                                 #  GET SUB-ADDRESS OF CADR.
000041:    5233           56002                           XCH      Q                                     #  A,L NOW CONTAINS DP RETURN.
000042:    5234           52124                           DXCH     BUF2                                  #  RESTORING INPUTS IF THIS IS A BANKCALL.
000043:    5235           50002                           INDEX    Q
000044:    5236           02000                           TC       10000                                 #  SETTING Q TO SWRETURN.
000045:
000046:    5237           56124        SWRETURN           XCH      BUF2       +1                         #  COMES HERE TO RETURN TO CALLER. C(A,L)
000047:    5240           56004                           XCH      FBANK                                 #  ARE PRESERVED FOR RETURN.
000048:    5241           56124                           XCH      BUF2       +1
000049:    5242           00123                           TC       BUF2
000050:
000051:                                                                                                  #           THE FOLLOWING ROUTINE CAN BE USED AS A UNILATERAL JUMP WITH C(A,L) PRESERVED AND THE CADR IMMEDIATELY
000052:                                                                                                  #  FOLLOWING THE TC POSTJUMP INSTRUCTION.
000053:
000054:    5243           56002        POSTJUMP           XCH      Q                                     #  SAVE INCOMING C(A).
000055:    5244           50000                           INDEX    A                                     #  GET CADR.
000056:    5245           30000                           CA       0
000057:
000058:                                                                                                  #           BANKJUMP IS THE SAME AS POSTJUMP, EXCEPT THAT THE CADR ARRIVES IN A.
000059:
000060:    5246           54004        BANKJUMP           TS       FBANK
000061:    5247           75356                           MASK     LOW10
000062:    5250           56002                           XCH      Q                                     #  RESTORING INPUT C(A) IF THIS WAS A
000063:    5251           50002        Q+10000            INDEX    Q                                     #  POSTJUMP.
000064:    5252           12000        BNKJUP+4           TCF      10000
000065:


000067:                                                                                                  #           THE FOLLOWING ROUTINE GETS THE RETURN CADR SAVED BY SWCALL OR BANKCALL AND LEAVES IT IN A.
000068:
000069:    5253           35356        MAKECADR           CAF      LOW10
000070:    5254           70123                           MASK     BUF2
000071:    5255           60124                           AD       BUF2       +1
000072:    5256           00002                           TC       Q
000073:
000074:
000075:                                                                                                  #           THE FOLLOWING ROUTINE OBTAINS THE TWO WORDS BEGINNING AT THE ADDRESS ARRIVING IN A, AND LEAVES THEM IN
000076:                                                                                                  #  A,L.  ENTER WITH A CADR IN A, AT DATACALL WITH JUNK IN L IF NOT SWITCHING SUPERBANKS, OTHERWISE AT SUPDACAL WITH
000077:                                                                                                  #  SUPERBANK BITS IN BITS 7-5 IN L (BITS 15-8 AND 4-1 MAY BE JUNK).  DEBRIS = MPTEMP.  INHINTS FOR 180 MUSEC.
000078:
000079:    5257           54001        DATACALL           TS       L                                     #  SAVE CADR (SOLE INPUT HERE).
000080:    5260           00006                           EXTEND
000081:    5261           00007                           READ     SUPERBNK                              #  THIS PROLOGUE MAKES SUPERSWITCH VACUOUS.
000082:    5262           56001                           XCH      L                                     #  CADR IN A, SUPERBITS IN L.
000083:
000084:    5263           54125        SUPDACAL           TS       MPTEMP
000085:    5264           56004                           XCH      FBANK                                 #  SET FBANK FOR DATA.
000086:    5265           00006                           EXTEND
000087:    5266           04007                           ROR      SUPERBNK                              #  SAVE FBANK IN BITS 15-11, AND
000088:    5267           56125                           XCH      MPTEMP                                #   SUPERBANK IN BITS  7-5.
000089:    5270           75356                           MASK     LOW10
000090:    5271           56001                           XCH      L                                     #  SAVE REL. ADR. IN BANK, FETCH SUPERBITS.
000091:    5272           00004                           INHINT                                         #  BECAUSE RUPT DOES NOT SAVE SUPERBANK.
000092:    5273           00006                           EXTEND
000093:    5274           01007                           WRITE    SUPERBNK                              #  SET SUPERBANK FOR DATA.
000094:    5275           00006                           EXTEND
000095:    5276           50001                           INDEX    L
000096:    5277           32001                           DCA      10000                                 #  THIS IS SAFE EVEN IF CADR WAS END BANK.
000097:
000098:    5300           56125                           XCH      MPTEMP                                #  SAVE 1ST WD, FETCH OLD FBANK AND SBANK.
000099:    5301           00006                           EXTEND
000100:    5302           01007                           WRITE    SUPERBNK                              #  RESTORE SUPERBANK.
000101:    5303           00003                           RELINT
000102:    5304           54004                           TS       FBANK                                 #  RESTORE FBANK.
000103:    5305           30125                           CA       MPTEMP                                #  RECOVER FIRST WORD OF DATA.
000104:    5306           00002                           RETURN                                         #  24 WDS. DATACALL 516 MU, SUPDACAL 432 MU
000105:


000107:                                                                                                  #           THE FOLLOWING ROUTINES ARE IDENTICAL TO BANKCALL AND SWCALL EXCEPT THAT THEY ARE USED IN INTERRUPT.
000108:
000109:    5307           52073        IBNKCALL           DXCH     RUPTREG3                              #  USES RUPTREG3,4 FOR DP RETURN ADDRESS.
000110:    5310           50002                           INDEX    Q
000111:    5311           30000                           CAF      0
000112:    5312           24002                           INCR     Q
000113:
000114:    5313           54001        ISWCALLL           TS       L
000115:    5314           22004                           LXCH     FBANK
000116:    5315           75356                           MASK     LOW10
000117:    5316           56002                           XCH      Q
000118:    5317           52073                           DXCH     RUPTREG3
000119:    5320           50002                           INDEX    Q
000120:    5321           02000                           TC       10000
000121:
000122:    5322           56073        ISWRETRN           XCH      RUPTREG4
000123:    5323           56004                           XCH      FBANK
000124:    5324           56073                           XCH      RUPTREG4
000125:    5325           00072                           TC       RUPTREG3
000126:


000128:                                                                                                  #           THE FOLLOWING SUBROUTINES PROVIDE TO THE BASIC PROGRAMMER ENTRY INTO AND RETURN FROM ANY INTERPRETIVE
000129:                                                                                                  #  CODING WHICH DOES NOT USE THE ENTERING CONTENTS OF Q AND WHICH RETURNS VIA DANZIG. C(A) AND C(L) ARE SAVED.
000130:
000131:                                                                                                  #  USER'S RESPONSIBILITY TO FILL IN ADVANCE THE APPROPRIATE OPERAND AND ADDRESS REGISTERS USED BY THE
000132:                                                                                                  #  INTERPRETIVE CODING SUCH AS MPAC, BUF, ADDRWD, ETC.; AND TO CONFIRM THAT THE INTERPRETIVE CODING MEETS THE
000133:                                                                                                  #  ABOVE RESTRICTIONS WITH RESPECT TO Q AND DANZIG.
000134:
000135:                                                                                                  #  USEPRET AND USPRCADR MUST NOT BE USED IN INTERRUPT.
000136:
000137:                                                                                                  #  1. USEPRET ACCESSES INTERPRETIVE CODING WHICH CAN BE ENTERED WITHOUT CHANGING FBANK.
000138:                                                                                                  #     THE CALLING SEQUENCE IS AS FOLLOWS:
000139:
000140:                                                                                                  #                                          L         TC     USEPRET
000141:                                                                                                  #                                          L+1       TC,TCF INTPRETX       TC,TCF MEANS TC OR TCF
000142:                                                                                                  #                                                                          INTPRETX IS THE INTERPRETIVE CODING
000143:                                                                                                  #                                                                          RETURN IS TO L+2
000144:
000145:                                                                                                  #  2. USPRCADR ACCESSES INTERPRETIVE CODING IN OTHER THAN THE USER'S FBANK. THE CALLING SEQUENCE IS AS FOLLOWS:
000146:
000147:                                                                                                  #                                          L         TC     USPRCADR
000148:                                                                                                  #                                          L+1       CADR   INTPRETX       INTPRETX IS THE INTERPRETIVE CODING
000149:                                                                                                  #                                                                          RETURN IS TO L+2
000150:
000151:    5326           56002        USEPRET            XCH      Q                                     #  FETCH Q, SAVING A
000152:    5327           54154                           TS       LOC                                   #  L+1 TO LOC
000153:    5330           30006                           CA       BBANK
000154:    5331           54155                           TS       BANKSET                               #  USER'S BBANK TO BANKSET
000155:    5332           37746                           CA       BIT8
000156:    5333           54023                           TS       EDOP                                  #  EXIT INSTRUCTION TO EDOP
000157:    5334           30002                           CA       Q                                     #  RETRIEVE ORIGINAL A
000158:    5335           00154                           TC       LOC
000159:
000160:    5336           54154        USPRCADR           TS       LOC                                   #  SAVE A
000161:    5337           37746                           CA       BIT8
000162:    5340           54023                           TS       EDOP                                  #  EXIT INSTRUCTION TO EDOP
000163:    5341           30006                           CA       BBANK
000164:    5342           54155                           TS       BANKSET                               #  USER'S BBANK TO BANKSET
000165:    5343           50002                           INDEX    Q
000166:    5344           30000                           CA       0
000167:    5345           54004                           TS       FBANK                                 #  INTERPRETIVE BANK TO FBANK
000168:    5346           75356                           MASK     LOW10                                 #  YIELDS INTERPRETIVE RELATIVE ADDRESS
000169:    5347           56002                           XCH      Q                                     #  INTERPRETIVE ADDRESS TO Q, FETCHING L+1
000170:    5350           56154                           XCH      LOC                                   #  L+1 TO LOC, RETRIEVING ORIGINAL A
000171:    5351           15251                           TCF      Q+10000
000172:


000174:                                                                                                  #  THERE ARE FOUR POSSIBLE SETTINGS FOR CHANNEL 07. (CHANNEL 07 CONTAINS THE SUPERBANK SETTING.)
000175:                                                                                                  #                                            PSEUDO-FIXED     OCTAL PSEUDO
000176:                                                                                                  #  SUPERBANK     SETTING     S-REG. VALUE    BANK NUMBERS     ADDRESSES
000177:                                                                                                  #  ---------     -------     ------------     ------------     ------------
000178:
000179:                                                                                                  #  SUPERBANK 3     0XX       2000 - 3777        30 - 37       70000 - 107777   (WHERE XX CAN BE ANYTHING AND
000180:                                                                                                  #                                                                              WILL USUALLY BE SEEN AS 11)
000181:                                                                                                  #  SUPERBANK 4     100       2000 - 3777        40 - 47       110000 - 127777  (AS FAR AS IT CAN BE SEEN,
000182:                                                                                                  #                                                                              ONLY BANKS 40-43 WILL EVER BE
000183:                                                                                                  #                                                                              AND ARE PRESENTLY AVAILABLE)
000184:                                                                                                  #  SUPERBANK 5     101       2000 - 3777        50 - 57       130000 - 147777  (PRESENTLY NOT AVAILABLE TO
000185:                                                                                                  #                                                                              THE USER)
000186:                                                                                                  #  SUPERBANK 6     110       2000 - 3777        60 - 67       150000 - 167777  (PRESENTLY NOT AVAILABLE TO
000187:                                                                                                  #                                                                              THE USER)
000188:                                                                                                  #  ***  THIS ROUTINE MAYBE CALLED BY ANY PROGRAM LOCATED IN BANKS 00 - 27.  I.E., NO PROGRAM LIVING IN ANY
000189:                                                                                                  #  SUPERBANK SHOULD USE SUPERSW. ***
000190:
000191:                                                                                                  #  SUPERSW MAY BE CALLED IN THIS FASHION:
000192:
000193:                                                                                                  #           CAF     ABBCON          WHERE  --  ABBCON   BBCON  SOMETHIN  --
000194:                                                                                                  #           TCR     SUPERSW         (THE SUPERBNK BITS ARE IN THE BBCON)
000195:                                                                                                  #           ...       ...
000196:                                                                                                  #            .         .
000197:                                                                                                  #            .         .
000198:
000199:                                                                                                  #  OR IN THIS FASHION:
000200:
000201:                                                                                                  #           CAF     SUPERSET        WHERE SUPERSET IS ONE OF THE FOUR AVAILABLE
000202:                                                                                                  #           TCR     SUPERSW         SUPERBANK BIT CONSTANTS:
000203:                                                                                                  #           ...       ...                                   SUPER011 OCTAL  60
000204:                                                                                                  #            .         .                                    SUPER100 OCTAL 100
000205:                                                                                                  #            .         .                                    SUPER101 OCTAL 120
000206:                                                                                                  #                                                           SUPER110 OCTAL 140
000207:
000208:    5352           00006        SUPERSW            EXTEND
000209:    5353           01007                           WRITE    SUPERBNK                              #  WRITE BITS 7-6-5 OF THE ACCUMULATOR INTO
000210:                                                                                                  #  CHANNEL 07
000211:    5354           00002                           TC       Q                                     #  TC TO INSTRUCTION FOLLOWING
000212:                                                                                                  #    TC  SUPERSW

End of include-file INTER-BANK_COMMUNICATION.agc.  Parent file is MAIN.agc


