
Source Code


000002:                                                                                                  ## Copyright:   Public domain.
000003:                                                                                                  ## Filename:    INTERPRETER.agc
000004:                                                                                                  ## Purpose:     A section of Sunburst revision 37, or Shepatin revision 0.
000005:                                                                                                  ##              It is part of an early development version of the software
000006:                                                                                                  ##              for Apollo Guidance Computer (AGC) on the unmanned Lunar
000007:                                                                                                  ##              Module (LM) flight Apollo 5. Sunburst 37 was the program
000008:                                                                                                  ##              upon which Don Eyles's offline development program Shepatin
000009:                                                                                                  ##              was based; the listing herein transcribed was actually for
000010:                                                                                                  ##              the equivalent revision 0 of Shepatin.
000011:                                                                                                  ##              This file is intended to be a faithful transcription, except
000012:                                                                                                  ##              that the code format has been changed to conform to the
000013:                                                                                                  ##              requirements of the yaYUL assembler rather than the
000014:                                                                                                  ##              original YUL assembler.
000015:                                                                                                  ## Reference:   pp. 893-984
000016:                                                                                                  ## Assembler:   yaYUL
000017:                                                                                                  ## Contact:     Ron Burkey <info@sandroid.org>.
000018:                                                                                                  ## Website:     www.ibiblio.org/apollo/index.html
000019:                                                                                                  ## Mod history: 2017-05-24 MAS  Created from Sunburst 120.
000020:                                                                                                  ##              2017-06-12 MAS  Began updating for Sunburst 37.
000021:                                                                                                  ##              2017-06-13 MAS  Completed updates for Sunburst 37.
000022:                                                                                                  ##              2017-06-15 HG   Fix opcode TC  -> TCF
000023:


000025:                                                                                                  #  SECTION 1  DISPATCHER
000026:
000027:                                                                                                  #           ENTRY TO THE INTERPRETER. INTPRET SETS LOC TO THE FIRST  INSTRUCTION, BANKSET TO THE BBANK OF THE
000028:                                                                                                  #  OBJECT INTERPRETIVE PROGRAM, AND INTBIT15 TO THE BIT15 CONTENTS OF FBANK. INTERPRETIVE PROGRAMS MAY BE IN
000029:                                                                                                  #  VIRTUALLY ALL BANKS PRESENT UNDER ANY SUPER-BANK SETTING, WITH THE RESTRICTION THAT PROGRAMS IN HIGH BANKS
000030:                                                                                                  #  (BIT15 OF FBANK = 1) DO NOT REFER TO LOWBANKS, AND VICE-VERSA. THE INTERPRETER DOES NOT SWITCH SUPERBANKS.
000031:                                                                                                  #  E-BANK SWITCHING OCCURS WHENEVER GENERAL ERASABLE (100 - 3777) IS ADDRESSED.
000032:
000033:
000034:
000035:    6103                                           BLOCK    03
000036:
000037:    6103           00006        INTPRET            EXTEND                                         #  SET LOC TO THE WORD FOLLOWING THE TC.
000038:    6104           22154                           QXCH     LOC
000039:
000040:    6105           30006                 +2        CA       BBANK                                 #  INTERPRETIVE BRANCHES FINISH HERE.
000041:    6106           54155                           TS       BANKSET
000042:    6107           77737                           MASK     BIT15                                 #  GET 15TH BIT FOR INDEXABLE ADDRESSES.
000043:    6110           54105                           TS       INTBIT15
000044:
000045:
000046:    6111           16124                           TCF      NEWOPS                                #  PICK UP OP CODE PAIR AND BEGIN.
000047:
000048:
000049:
000050:    6112           22006        INTRSM             LXCH     BBANK                                 #  RESUME SUSPENDED INTERPRETIVE JOB
000051:    6113           16105                           TCF      INTPRET    +2
000052:


000054:                                                                                                  #           AT THE END OF MOST INSTRUCTIONS, CONTROL IS GIVEN TO DANZIG TO DISPATCH THE NEXT OPERATION.
000055:
000056:    6114           54153        NEWMODE            TS       MODE                                  #  PROLOGUE FOR MODE-CHANGING INSTRUCTIONS.
000057:
000058:    6115           30155        DANZIG             CA       BANKSET                               #  SET BBANK BEFORE TESTING NEWJOB SO THAT
000059:    6116           54006                           TS       BBANK                                 #  IT MAY BE SAVED DIRECTLY BY CHANJOB.
000060:
000061:    6117           10023        NOIBNKSW           CCS      EDOP                                  #  SEE IF AN ORDER CODE IS LEFT OVER FROM
000062:    6120           16133                           TCF      OPJUMP                                #  THE LAST PAIR RETRIEVED. IF SO, EXECUTE.
000063:                                                                                                  #  EDOP IS SET TO ZERO ON ITS RE-EDITING.
000064:
000065:    6121           10067                           CCS      NEWJOB                                #  SEE IF A JOB OF HIGHER PRIORITY IS
000066:    6122           15556                           TCF      CHANG2                                #  PRESENT, AND IF SO, CHANGE JOBS.
000067:
000068:
000069:    6123           24154                           INCR     LOC                                   #  ADVANCE THE LOCATION COUNTER.
000070:                                                                                                  #           ITRACE (1) REFERS TO "NEWOPS".
000071:    6124           50154        NEWOPS             INDEX    LOC                                   #  ENTRY TO BEGIN BY PICKING OP CODE PAIR.
000072:    6125           30000                           CA       0                                     #  MAY BE AN OPCODE PAIR OR A STORE CODE.
000073:    6126           10000                           CCS      A                                     #  TEST SIGN AND GET DABS(A).
000074:    6127           16421                           TCF      DOSTORE                               #  PROCESS STORE CODE.
000075:
000076:    6130           00177        LOW7               OCT      177
000077:
000078:    6131           54023                           TS       EDOP                                  #  OP CODE PAIR. LEAVE THE OTHER IN EDOP
000079:
000080:    6132           76130                           MASK     LOW7                                  #  WHERE  CCS EDOP  WILL HONOR IT NEXT.
000081:
000082:    6133           54020        OPJUMP             TS       CYR                                   #  LOWWD ENTERS HERE IF A RIGHT-HAND OP
000083:    6134           10020                           CCS      CYR                                   #  CODE IS TO BE PROCESSED. TEST PREFICES.
000084:    6135           16303                           TCF      OPJUMP2                               #  TEST SECOND PREFIX BIT.
000085:
000086:    6136           17012                           TCF      EXIT                                  #  +0 OP CODE IS EXIT.
000087:


000089:                                                                                                  #           PROCESS ADDRESSES WHICH MAY BE DIRECT, INDEXED, OR REFERENCE THE PUSHDOWN LIST.
000090:
000091:    6137           77755        ADDRESS            MASK     BIT1                                  #  SEE IF ADDRESS IS INDEXED. CYR CONTAINED
000092:    6140           10000                           CCS      A                                     #  400XX, SO BIT 1 IS NOW AS IT WAS IN CYR.
000093:    6141           16202                           TCF      INDEX                                 #  FORM INDEXED ADDRESS.
000094:
000095:
000096:    6142           50154        DIRADRES           INDEX    LOC                                   #  LOOK AHEAD TO NEXT WORD TO SEE IF
000097:    6143           40001        OCT40001           CS       1                                     #  ADDRESS IS GIVEN.
000098:    6144           10000                           CCS      A
000099:    6145           16251                           TCF      PUSHUP                                #  IF NOT.
000100:
000101:    6146           77773        NEG4               DEC      -4         B-14
000102:
000103:    6147           24154                           INCR     LOC                                   #  IF SO, TO SHOW WE PICKED UP A WORD.
000104:    6150           54106                           TS       ADDRWD
000105:


000107:                                                                                                  #           FINAL DIGESTION OF DIRECT ADDRESSES OF OP CODES WITH 01 PREFIX IS DONE HERE. IN EACH CASE, THE
000108:                                                                                                  #  REQUIRED 12-BIT SUB-ADDRESS IS LEFT IN ADDRWD, WITH ANY REQUIRED E OR F BANK SWITCHING DONE. ADDRESSES LESS
000109:
000110:                                                                                                  #  THAN 45D ARE TAKEN TO BE RELATIVE TO THE WORK AREA. THE OP CODE IS NOW IN BITS 1-5 OF CYR WITH BIT 14 = 1.
000111:
000112:
000113:    6151           66305                           AD       -ENDVAC                               #  SEE IF ADDRESS RELATIVE TO WORK AREA.
000114:    6152           10000                           CCS      A
000115:    6153           66332                           AD       -ENDERAS                              #  IF NOT, SEE IF IN GENERAL ERASABLE.
000116:    6154           16161                           TCF      IERASTST
000117:
000118:    6155           30110        NETZERO            CA       FIXLOC                                #  IF SO, LEAVE THE MODIFIED ADDRESS IN
000119:
000120:    6156           26106                           ADS      ADDRWD                                #  ADDRWD AND DISPATCH.
000121:    6157           50020        ITR15              INDEX    CYR                                   #  THIS INDEX MAKES THE NEXT INSTRUCTION
000122:    6160           76332                           7        INDJUMP    -1                         #  TCF INDJUMP + OP, EDITING CYR.
000123:
000124:    6161           00006        IERASTST           EXTEND
000125:    6162           66172                           BZMF     GEADDR                                #  GO PROCESS GENERAL-ERASABLE ADDRESS.
000126:
000127:    6163           75356                           MASK     LOW10                                 #  FIXED BANK ADDRESS. RESTORE AND ADD B15.
000128:    6164           65356                           AD       LOW10                                 #  SWITCH BANKS AND LEAVE SUBADDRESS IN
000129:    6165           56106                           XCH      ADDRWD                                #  ADDRWD FOR OPERAND RETRIEVAL. (THIS
000130:    6166           60105                           AD       INTBIT15                              #  METHOD PRECLUDES USE OF THE LAST
000131:    6167           54004                           TS       FBANK                                 #  LOCATION IN EACH FBANK.)
000132:
000133:    6170           50020        ITR12              INDEX    CYR
000134:    6171           76332                           7        INDJUMP    -1
000135:
000136:    6172           74553        GEADDR             MASK     LOW8
000137:    6173           65370                           AD       OCT1400
000138:    6174           56106                           XCH      ADDRWD
000139:    6175           54003                           TS       EBANK
000140:    6176           50020        ITR10              INDEX    CYR
000141:    6177           76332                           7        INDJUMP    -1
000142:


000144:                                                                                                  #           THE FOLLOWING ROUTINE PROCESSES INTERPRETIVE INDEXED ADDRESSES. AN INTERPRETER INDEX REGISTER MAY
000145:                                                                                                  #  CONTAIN THE ADDRESS OF ANY ERASABLE REGISTER (0-42 BEING RELATIVE TO THE VAC AREA) OR ANY INTERPRETIVE PROGRAM
000146:                                                                                                  #  BANK, OR ANY INTEGER IN THAT RANGE.
000147:
000148:    6200           35364        DODLOAD*           CAF      DLOAD*                                #  STODL* COMES HERE TO PROCESS LOAD ADR.
000149:    6201           54020                           TS       CYR                                   #  (STOVL* ENTERS HERE).
000150:
000151:    6202           30110        INDEX              CA       FIXLOC                                #  SET UP INDEX LOCATION.
000152:
000153:    6203           54120                           TS       INDEXLOC
000154:    6204           24154                           INCR     LOC                                   #  (ADDRESS ALWAYS GIVEN).
000155:    6205           50154                           INDEX    LOC
000156:    6206           40000                           CS       0
000157:    6207           10000                           CCS      A                                     #  INDEX 2 IF ADDRESS STORED COMPLEMENTED.
000158:    6210           24120                           INCR     INDEXLOC
000159:    6211           16212                           NOOP
000160:
000161:    6212           54106                           TS       ADDRWD                                #  14 BIT ADDRESS TO ADDRWD.
000162:    6213           75367                           MASK     HIGH4                                 #  IF ADDRESS GREATER THAN 2K, ADD INTBIT15
000163:
000164:    6214           00006                           EXTEND
000165:    6215           16220                           BZF      INDEX2
000166:    6216           30105                           CA       INTBIT15
000167:    6217           26106                           ADS      ADDRWD
000168:
000169:    6220           50120        INDEX2             INDEX    INDEXLOC
000170:    6221           40046                           CS       X1
000171:    6222           26106                           ADS      ADDRWD                                #  DO AUGMENT, IGNORING AND CORRECTING OVF.
000172:
000173:    6223           76330                           MASK     HIGH9                                 #  SEE IF ADDRESS IS IN WORK AREA.
000174:    6224           00006                           EXTEND
000175:    6225           16240                           BZF      INDWORK
000176:
000177:    6226           75367                           MASK     HIGH4                                 #  SEE IF IN FIXED BANK.
000178:    6227           00006                           EXTEND
000179:    6230           16242                           BZF      INDERASE
000180:
000181:    6231           30106                           CA       ADDRWD                                #  IN FIXED - SWITCH BANKS AND CREATE
000182:    6232           54004                           TS       FBANK                                 #  SUB-ADDRESS.
000183:    6233           75356                           MASK     LOW10
000184:    6234           67743                           AD       2K
000185:    6235           54106                           TS       ADDRWD
000186:    6236           50020        ITR11              INDEX    CYR
000187:
000188:    6237           36332                           3        INDJUMP    -1
000189:
000190:    6240           30110        INDWORK            CA       FIXLOC                                #  MAKE ADDRWD RELATIVE TO WORK AREA.
000191:    6241           16246                           TCF      ITR13      -1
000192:
000193:    6242           35370        INDERASE           CA       OCT1400
000194:    6243           56106                           XCH      ADDRWD
000195:    6244           54003                           TS       EBANK
000196:    6245           74553                           MASK     LOW8
000197:    6246           26106                 -1        ADS      ADDRWD


000199:    6247           50020        ITR13              INDEX    CYR
000200:
000201:    6250           36332                           3        INDJUMP    -1
000202:


000204:                                                                                                  #           PUSH-UP ROUTINES. WHEN NO OPERAND ADDRESS IS GIVEN, THE APPROPRIATE OPERAND IS TAKEN FROM THE PUSH-DOWN
000205:                                                                                                  #  LIST. IN MOST CASES THE MODE OF THE RESULT (VECTOR OR SCALAR) OF THE LAST ARITHMETIC OPERATION PERFORMED
000206:                                                                                                  #  IS THE SAME AS THE TYPE OF OPERAND DESIRED (ALL ADD/SUBTRACT ETC.). EXCEPTIONS TO THIS GENERAL RULE ARE LISTED
000207:                                                                                                  #  BELOW (NOTE THAT IN EVERY CASE THE MODE REGISTER IS LEFT INTACT):
000208:
000209:                                                                                                  #           1.  VXSC AND V/SC WANT THE OPPOSITE TYPE OF OPERAND, E.G., IF THE LAST OPERATION YIELDED A VECTOR
000210:
000211:                                                                                                  #  RESULT, VXSC WANTS A SCALAR.
000212:
000213:                                                                                                  #           2.  THE LOAD CODES SHOULD LOAD THE ACCUMULATOR INDEPENDENT OF THE RESULT OF THE LAST OPERATION. THIS
000214:                                                                                                  #  INCLUDES VLOAD, DLOAD, TLOAD, PDDL, AND PDVL (NO PUSHUP WITH SLOAD).
000215:
000216:                                                                                                  #           3.  SOME ARITHMETIC OPERATIONS REQUIRE A STANDARD TYPE OF OPERAND REGARDLESS OF THE PREVIOUS OPERATION.
000217:                                                                                                  #  THIS INCLUDES SIGN WANTING DP AND TAD REQUIRING TP.
000218:
000219:    6251           34554        PUSHUP             CAF      OCT23                                 #  IF THE LOW 5 BITS OF CYR ARE LESS THAN
000220:    6252           70020                           MASK     CYR                                   #  20, THIS OP REQUIRES SPECIAL ATTENTION.
000221:    6253           66256                           AD       -OCT10                                #  (NO -0).
000222:    6254           10000                           CCS      A
000223:
000224:    6255           16267                           TCF      REGUP                                 #  FOR ALL CODES GREATER THAN OCT 7.
000225:
000226:    6256           77767        -OCT10             OCT      -10
000227:
000228:    6257           66146                           AD       NEG4                                  #  WE NOW HAVE 7 - OP CODE(MOD4). SEE IF
000229:    6260           10000                           CCS      A                                     #  THE OP CODE (MOD4) IS THREE (REVERSE).
000230:    6261           50000                           INDEX    A                                     #  NO - THE MODE IS DEFINITE. PICK UP THE
000231:    6262           46300                           CS       NO.WDS
000232:    6263           16271                           TCF      REGUP      +2
000233:
000234:
000235:    6264           50153                           INDEX    MODE                                  #  FOR VXSC AND V/SC WE WANT THE REQUIRED
000236:    6265           46276                           CS       REVCNT                                #  PUSHLOC DECREMENT WITHOUT CHANGING THE
000237:    6266           16271                           TCF      REGUP      +2                         #  MODE AT THIS TIME.
000238:
000239:    6267           50153        REGUP              INDEX    MODE                                  #  MOST ALL OP CODES PUSHUP HERE.
000240:    6270           46300                           CS       NO.WDS
000241:    6271           26156                 +2        ADS      PUSHLOC
000242:    6272           54106                           TS       ADDRWD
000243:    6273           50020        ITR14              INDEX    CYR
000244:    6274           76332                           7        INDJUMP    -1                         #  (THE INDEX MAKES THIS A TCF.)
000245:
000246:    6275           00002                           OCT      2                                     #  REVERSE PUSHUP DECREMENT. VECTOR TAKES 2
000247:
000248:    6276           00006        REVCNT             OCT      6                                     #  WORDS, SCALAR TAKES 6.
000249:    6277           00006                           OCT      6
000250:    6300           00002        NO.WDS             OCT      2                                     #  CONVENTIONAL DECREMENT IS 6 WORDS VECTOR
000251:    6301           00003        OCTAL3             OCT      3                                     #  2 IN DP, AND 3 IN TP.
000252:    6302           00006                           OCT      6
000253:


000255:                                                                                                  #            TEST THE SECOND PREFIX BIT TO SEE IF THIS IS A MISCELLANEOUS OR A UNARY/SHORT SHIFT OPERATION.
000256:
000257:    6303           10020        OPJUMP2            CCS      CYR                                   #  TEST SECOND PREFIX BIT.
000258:    6304           16317                           TCF      OPJUMP3                               #  TEST THIRD BIT TO SEE IF UNARY OR SHIFT.
000259:
000260:    6305           77722        -ENDVAC            DEC      -45        B-14
000261:
000262:                                                                                                  #           THE FOLLOWING ROUTINE PROCESSES ADDRESSES OF SUFFIX CLASS 10. THEY ARE BASICALLY WORK AREA ADDRESSES
000263:                                                                                                  #  IN THE RANGE 0 - 52, ERASABLE ECADR CONSTANTS FROM 100 - 3777, AND FCADRS ABOVE THAT. ALL 15 BITS ARE AVAILABLE
000264:                                                                                                  #  IN CONTRAST TO SUFFIX 1, IN WHICH ONLY THE LOW ORDER 14 ARE AVAILABLE.
000265:
000266:    6306           24154        15BITADR           INCR     LOC                                   #  (ENTRY HERE FROM STCALL).
000267:
000268:    6307           50154                           INDEX    LOC                                   #  PICK UP ADDRESS WORD.
000269:    6310           30000                           CA       0
000270:    6311           54107                           TS       POLISH                                #  WE MAY NEED A SUBADDRESS LATER.
000271:
000272:    6312           36327                           CAF      LOW7+2K                               #  THESE INSTRUCTIONS ARE IN BANK 1.
000273:    6313           54004                           TS       FBANK
000274:    6314           70020                           MASK     CYR
000275:    6315           50000        ITR7               INDEX    A
000276:    6316           16373                           TCF      MISCJUMP
000277:


000279:                                                                                                  #           COMPLETE THE DISPATCHING OF UNARY AND SHORT SHIFT OPERATIONS.
000280:
000281:    6317           54004        OPJUMP3            TS       FBANK                                 #  CALL IN BANK 0 (BIT5 11-15 OF A ARE 0.)
000282:                                                                                                  #           ITRACE (6) REFERS TO "OPJUMP3".
000283:    6320           10020                           CCS      CYR                                   #  TEST THIRD PREFIX BIT.
000284:    6321           50000                           INDEX    A                                     #  THE DECREMENTED UNARY CODE IS IN BITS
000285:    6322           12000                           TCF      UNAJUMP                               #  1-4 OF A (ZERO, EXIT, HAS BEEN DETECTED)
000286:
000287:
000288:    6323           10153                           CCS      MODE                                  #  ITS A SHORT SHIFT CODE. SEE IF PRESENT
000289:    6324           12017                           TCF      SHORTT                                #  SCALAR OR VECTOR.
000290:    6325           12017                           TCF      SHORTT
000291:    6326           12121                           TCF      SHORTV                                #  CALLS THE APPROPRIATE ROUTINE.
000292:
000293:
000294:
000295:    6327     4554               OCT23              =        VD1
000296:    6327           02177        LOW7+2K            OCT      2177                                  #  OP CODE MASK + BANK 1 FBANK SETTING.
000297:    6330           77700        HIGH9              OCT      77700
000298:
000299:    6331           76000        BANKMASK           OCT      76000                                 #  FBANK MASK.
000300:    6332     6331               FBANKMSK           EQUALS   BANKMASK
000301:    6332     5673               B12T14             =        PRIO34                                #  USED IN PROCESSING STORE CODES.
000302:    6332           74056        -ENDERAS           DEC      -2001      B-14                       #  = -(2047 - 45 - 1)
000303:


000305:                                                                                                  #           THE FOLLOWING IS THE JUMP TABLE FOR OP CODES WHICH MAY HAVE INDEXABLE ADDRESSES OR MAY PUSH UP.
000306:
000307:    6333           16554        INDJUMP            TCF      VLOAD                                 #  00 - LOAD MPAC WITH A VECTOR.
000308:    6334           17133                           TCF      TAD                                   #  01 - TRIPLE PRECISION ADD TO MPAC.
000309:    6335           17701                           TCF      SIGN                                  #  02 - COMPLEMENT MPAC (V OR SC) IF X NEG.
000310:    6336           17452                           TCF      VXSC                                  #  03 - VECTOR TIMES SCALAR.
000311:    6337           16752                           TCF      CGOTO                                 #  04 - COMPUTED GO TO.
000312:    6340           16537                           TCF      TLOAD                                 #  05 - LOAD MPAC WITH TRIPLE PRECISION.
000313:    6341           16530                           TCF      DLOAD                                 #  06 - LOAD MPAC WITH A DP SCALAR.
000314:    6342           17650                           TCF      V/SC                                  #  07 - VECTOR DIVIDED BY SCALAR.
000315:
000316:    6343           16550                           TCF      SLOAD                                 #  10 - LOAD MPAC IN SINGLE PRECISION.
000317:    6344           16667                           TCF      SSP                                   #  11 - SET SINGLE PRECISION INTO X.
000318:
000319:    6345           16572                           TCF      PDDL                                  #  12 - PUSH DOWN MPAC AND RE-LOAD IN DP.
000320:    6346           17405                           TCF      MXV                                   #  13 - MATRIX POST-MULTIPLIED BY VECTOR.
000321:    6347           16626                           TCF      PDVL                                  #  14 - PUSH DOWN AND VECTOR LOAD.
000322:    6350           16675                           TCF      CCALL                                 #  15 - COMPUTED CALL.
000323:    6351           17410                           TCF      VXM                                   #  16 - MATRIX PRE-MULTIPLIED BY VECTOR.
000324:    6352           17642                           TCF      TSLC                                  #  17 - NORMALIZE MPAC (SCALAR ONLY).
000325:
000326:    6353           17620                           TCF      DMPR                                  #  20 - DP MULTIPLY AND ROUND.
000327:    6354           17623                           TCF      DDV                                   #  21 - DP DIVIDE BY.
000328:    6355           17627                           TCF      BDDV                                  #  22 - DP DIVIDE INTO.
000329:
000330:    6356           17645                           TCF      GSHIFT                                #  23 - GENERAL SHIFT INSTRUCTION.
000331:    6357           17016                           TCF      VAD                                   #  24 - VECTOR ADD.
000332:    6360           17044                           TCF      VSU                                   #  25 - VECTOR SUBTRACT.
000333:    6361           17074                           TCF      BVSU                                  #  26 - VECTOR SUBTRACT FROM.
000334:    6362           17402                           TCF      DOT                                   #  27 - VECTOR DOT PRODUCT.
000335:
000336:    6363           17532                           TCF      VXV                                   #  30 - VECTOR CROSS PRODUCT.
000337:    6364           17476                           TCF      VPROJ                                 #  31 - VECTOR PROJECTION.
000338:    6365           17062                           TCF      DSU                                   #  32 - DP SUBTRACT.
000339:    6366           17120                           TCF      BDSU                                  #  33 - DP SUBTRACT FROM.
000340:    6367           17034                           TCF      DAD                                   #  34 - DP ADD.
000341:    6370           16370                           TCF      +0                                    #  35 - AVAILABLE
000342:
000343:    6371           17616                           TCF      DMP1                                  #  36 - DP MULTIPLY.
000344:    6372           17637                           TCF      SETPD                                 #  37 - SET PUSH DOWN POINTER (DIRECT ONLY)
000345:
000346:                                                                                                  #  CODES 10 AND 14 MUST NOT PUSH UP. CODE 04 MAY BE USED FOR VECTOR DECLARE BEFORE PUSHUP IF DESIRED.
000347:


000349:                                                                                                  #           THE FOLLOWING JUMP TABLE APPLIES TO INDEX, BRANCH, AND MISCELLANEOUS INSTRUCTIONS.
000350:
000351:    6373           12557        MISCJUMP           TCF      AXT                                   #  00 - ADDRESS TO INDEX TRUE.
000352:    6374           12564                           TCF      AXC                                   #  01 - ADDRESS TO INDEX COMPLEMENTED.
000353:    6375           12567                           TCF      LXA                                   #  02 - LOAD INDEX FROM ERASABLE.
000354:    6376           12573                           TCF      LXC                                   #  03 - LOAD INDEX FROM COMPLEMENT OF ERAS.
000355:
000356:    6377           12577                           TCF      SXA                                   #  04 - STORE INDEX IN ERASABLE.
000357:    6400           12605                           TCF      XCHX                                  #  05 - EXCHANGE INDEX WITH ERASABLE.
000358:    6401           12621                           TCF      INCR                                  #  06 - INCREMENT INDEX REGISTER.
000359:    6402           12630                           TCF      TIX                                   #  07 - TRANSFER ON INDEX.
000360:
000361:    6403           12613                           TCF      XAD                                   #  10 - INDEX REGISTER ADD FROM ERASABLE.
000362:    6404           12624                           TCF      XSU                                   #  11 - INDEX SUBTRACT FROM ERASABLE.
000363:    6405           12702                           TCF      BZE/GOTO                              #  12 - BRANCH ZERO AND GOTO.
000364:    6406           12707                           TCF      BPL/BMN                               #  13 - BRANCH PLUS AND BRANCH MINUS.
000365:    6407           12662                           TCF      RTB/BHIZ                              #  14 - RETURN TO BASIC AND BRANCH HI ZERO.
000366:    6410           12722                           TCF      CALL/ITA                              #  15 - CALL AND STORE QPRET.
000367:    6411           12731                           TCF      SW/                                   #  16 - SWITCH INSTRUCTIONS AND AVAILABLE.
000368:
000369:    6412           12672                           TCF      BOV(B)                                #  17 - BRANCH ON OVERFLOW TO BASIC OR INT.
000370:


000372:                                                                                                  #           THE FOLLOWING JUMP TABLE APPIES TO UNARY INSTRUCTIONS.
000373:
000374:
000375: 00,2000                                           BANK     0                                     #  00 - EXIT - DETECTED EARLIER.
000376: 00,2000           13155        UNAJUMP            TCF      SQRT                                  #  01 - SQUARE ROOT.
000377: 00,2001           13477                           TCF      SINE                                  #  02 - SIN.
000378: 00,2002           13466                           TCF      COSINE                                #  03 - COS.
000379: 00,2003           13557                           TCF      ARCSIN                                #  04 - ARC SIN.
000380: 00,2004           13561                           TCF      ARCCOS                                #  05 - ARC COS.
000381: 00,2005           13142                           TCF      DSQ                                   #  06 - DP SQUARE.
000382: 00,2006           12116                           TCF      ROUND                                 #  07 - ROUND TO DP.
000383:
000384: 00,2007           17714                           TCF      COMP                                  #  10 - COMPLEMENT VECTOR OR SCALAR.
000385:
000386: 00,2010           13200                           TCF      VDEF                                  #  11 - VECTOR DEFINE.
000387: 00,2011           12770                           TCF      UNIT                                  #  12 - UNIT VECTOR.
000388: 00,2012           13144                           TCF      ABVALABS                              #  13 - LENGTH OF VECTOR OR MAG OF SCALAR.
000389: 00,2013           13214                           TCF      VSQ                                   #  14 - SQUARE OF LENGTH OF VECTOR.
000390: 00,2014           16413                           TCF      STADR                                 #  15 - PUSH UP ON STORE CODE.
000391: 00,2015           13244                           TCF      RVQ                                   #  16 - RETURN VIA QPRET.
000392: 00,2016           13217                           TCF      PUSH                                  #  17 - PUSH MPAC DOWN.
000393:


000395:                                                                                                  #  SECTION 2  LOAD AND STORE PACKAGE.
000396:
000397:                                                                                                  #           A SET OF EIGHT STORE CODES IS PROVIDED AS THE PRIMARY METHOD OF STORING THE MULTI-PURPOSE
000398:                                                                                                  #  ACCUMULATOR (MPAC). IF IN THE DANZIG SECTION LOC REFERS TO AN ALGEBRAICALLY POSITIVE WORD, IT IS TAKEN AS A
000399:                                                                                                  #  STORE CODE WITH A CORRESPONDING ERASABLE ADDRESS. MOST OF THESE CODES ARE TWO ADDRESS, SPECIFYING THAT THE WORD
000400:                                                                                                  #  FOLLOWING THE STORE CODE IS TO BE USED AS AN ADDRESS FROM WHICH TO RE-LOAD MPAC. FOUR OPTIONS ARE AVAILABLE:
000401:
000402:                                                                                                  #           1. STORE               STORE MPAC. THE E ADDRESS MAY BE INDEXED.
000403:
000404:                                                                                                  #           2. STODL               STORE MPAC AND RE-LOAD IT IN DP WITH THE NEXT ADDRESS (THE LOAD MAY BE INDEXED).
000405:                                                                                                  #           3. STOVL               STORE MPAC AND RE-LOAD A VECTOR (AS ABOVE).
000406:                                                                                                  #           4. STCALL              STORE AND DO A CALL (BOTH ADDRESSES MUST BE DIRECT HERE).
000407:
000408:                                                                                                  #           STODL AND STOVL WILL TAKE FROM THE PUSH-DOWN LIST IF NO LOAD ADDRESS IS GIVEN.
000409:
000410:
000411:
000412:    6413                                           BLOCK    3
000413:
000414:    6413           30155        STADR              CA       BANKSET                               #  THE STADR CODE (PUSHUP UP ON STORE
000415:    6414           54004                           TS       FBANK                                 #  ADDRESS) ENTERS HERE.
000416:    6415           24154                           INCR     LOC
000417:    6416           50154        ITR1               INDEX    LOC                                   #  THE STORECODE WAS STORED COMPLEMENTED TO
000418:    6417           40000                           CS       0                                     #  MAKE IT LOOK LIKE AN OPCODE PAIR.
000419:    6420           67763                           AD       NEGONE                                #  (YUL CANT REMOVE 1 BECAUSE OF EARLY CCS)
000420:
000421:    6421           54106        DOSTORE            TS       ADDRWD
000422:    6422           74552                           MASK     LOW11                                 #  ENTRY FROM DISPATCHER. SAVE THE ERASABLE
000423:    6423           56106                           XCH      ADDRWD                                #  ADDRESS AND JUMP ON THE STORE CODE NO.
000424:    6424           75673                           MASK     B12T14
000425:    6425           00006                           EXTEND
000426:    6426           77751                           MP       BIT5                                  #  EACH TRANSFER VECTOR ENTRY IS TWO WORDS.
000427:
000428:    6427           54023                           TS       EDOP                                  #  MAYBE 2ND OP WAS LEFT OVER FROM BRANCH
000429:    6430           50000        ITR0               INDEX    A
000430:    6431           16432                           TCF      STORJUMP
000431:


000433:                                                                                                  #           STORE CODE JUMP TABLE. CALLS THE APPROPRIATE STORING ROUTINE AND EXITS TO DANZIG OR TO ADDRESS WITH
000434:
000435:                                                                                                  #  A SUPPLIED OPERATION CODE.
000436:
000437:    6432           06462        STORJUMP           TC       STORE                                 #  STORE.
000438:    6433           16123                           TCF      NEWOPS     -1                         #  PICK UP NEW OP CODE(S).
000439:    6434           06454                           TC       STORE,1
000440:    6435           16123                           TCF      NEWOPS     -1
000441:    6436           06457                           TC       STORE,2
000442:    6437           16123                           TCF      NEWOPS     -1
000443:
000444:    6440           06462                           TC       STORE                                 #  STODL.
000445:    6441           16520                           TCF      DODLOAD
000446:
000447:    6442           06462                           TC       STORE                                 #  STODL WITH INDEXED LOAD ADDRESS.
000448:    6443           16200                           TCF      DODLOAD*
000449:
000450:    6444           06462                           TC       STORE                                 #  STOVL.
000451:    6445           16523                           TCF      DOVLOAD
000452:
000453:    6446           06462                           TC       STORE                                 #  STOVL WITH INDEXED LOAD ADDRESS.
000454:    6447           16526                           TCF      DOVLOAD*
000455:    6450           06462                           TC       STORE                                 #  STOTC.
000456:    6451           35362                           CAF      CALLCODE
000457:
000458:    6452           54020                           TS       CYR
000459:    6453           16306                           TCF      15BITADR                              #  GET A 15 BIT ADDRESS.
000460:


000462:                                                                                                  #           STORE CODE ADDRESS PROCESSOR.
000463:
000464:    6454           50110        STORE,1            INDEX    FIXLOC
000465:    6455           40046                           CS       X1
000466:    6456           16461                           TCF      PRESTORE
000467:
000468:
000469:    6457           50110        STORE,2            INDEX    FIXLOC
000470:    6460           40047                           CS       X2
000471:    6461           26106        PRESTORE           ADS      ADDRWD                                #  RESULTANT ADDRESS IS IN ERASABLE.
000472:
000473:    6462           40106        STORE              CS       ADDRWD
000474:    6463           65371                           AD       DEC45
000475:    6464           10000                           CCS      A                                     #  DOES THE ADDRESS POINT TO THE WORK AREA?
000476:    6465           30110                           CA       FIXLOC                                #  YES.
000477:    6466           16473                           TCF      AHEAD5
000478:    6467           35370                           CA       OCT1400                               #  NO.  SET EBANK & MAKE UP SUBADDRESS.
000479:    6470           56106                           XCH      ADDRWD
000480:    6471           54003                           TS       EBANK
000481:
000482:    6472           74553                           MASK     LOW8
000483:    6473           26106        AHEAD5             ADS      ADDRWD
000484:


000486:                                                                                                  #           STORING ROUTINES. STORE DP, TP, OR VECTOR AS INDICATED BY MODE.
000487:
000488:
000489:    6474           00006        STARTSTO           EXTEND                                         #  MPAC,+1 MUST BE STORED IN ANY EVENT.
000490:                                                                                                  #           ITRACE (5) REFERS TO "STARTSTO".
000491:    6475           30145                           DCA      MPAC
000492:    6476           50106                           INDEX    ADDRWD
000493:    6477           52001                           DXCH     0
000494:
000495:    6500           10153                           CCS      MODE
000496:    6501           16514                           TCF      TSTORE
000497:    6502           00002                           TC       Q
000498:
000499:    6503           00006        VSTORE             EXTEND
000500:    6504           30150                           DCA      MPAC       +3
000501:    6505           50106                           INDEX    ADDRWD
000502:    6506           52003                           DXCH     2
000503:
000504:    6507           00006                           EXTEND
000505:    6510           30152                           DCA      MPAC       +5
000506:    6511           50106                           INDEX    ADDRWD
000507:    6512           52005                           DXCH     4
000508:    6513           00002                           TC       Q
000509:
000510:    6514           30146        TSTORE             CA       MPAC       +2
000511:    6515           50106                           INDEX    ADDRWD
000512:
000513:    6516           54002                           TS       2
000514:    6517           00002                           TC       Q
000515:


000517:                                                                                                  #           ROUTINES TO BEGIN PROCESSING OF THE SECOND ADDRESS ASSOCIATED WITH ALL STORE-TYPE CODES EXCEPT STORE
000518:                                                                                                  #  ITSELF.
000519:
000520:    6520           35363        DODLOAD            CAF      DLOADCOD
000521:    6521           54020                           TS       CYR
000522:    6522           16142                           TCF      DIRADRES                              #  GO GET A DIRECT ADDRESS.
000523:
000524:    6523           37737        DOVLOAD            CAF      VLOADCOD
000525:
000526:    6524           54020                           TS       CYR
000527:    6525           16142                           TCF      DIRADRES
000528:
000529:    6526           36143        DOVLOAD*           CAF      VLOAD*
000530:    6527           16201                           TCF      DODLOAD*   +1                         #  PROLOGUE TO INDEX ROUTINE.
000531:


000533:                                                                                                  #           THE FOLLOWING LOAD INSTRUCTIONS ARE PROVIDED FOR LOADING THE MULTI-PURPOSE ACCUMULATOR MPAC.
000534:
000535:    6530           00006        DLOAD              EXTEND
000536:    6531           50106                           INDEX    ADDRWD
000537:    6532           30001                           DCA      0                                     #  PICK UP DP ARGUMENT AND LEAVE IT IN
000538:    6533           52145        SLOAD2             DXCH     MPAC                                  #  MPAC,+1, SETTING MPAC +2 TO ZERO. THE
000539:    6534           37761                           CAF      ZERO                                  #  CONTENTS OF THE OTHER FOUR REGISTERS OF
000540:    6535           54146                           TS       MPAC       +2                         #  MPAC ARE IRRELEVANT.
000541:    6536           16114                           TCF      NEWMODE                               #  DECLARE DOUBLE PRECISION MODE.
000542:
000543:    6537           50106        TLOAD              INDEX    ADDRWD
000544:    6540           30002                           CA       2                                     #  LOAD A TRIPLE PRECISION ARGUMENT INTO
000545:    6541           54146                           TS       MPAC       +2                         #  THE FIRST THREE MPAC REGISTERS, WITH THE
000546:    6542           00006                           EXTEND                                         #  CONTENTS OF THE OTHER FOUR IRRELEVANT.
000547:
000548:    6543           50106                           INDEX    ADDRWD
000549:    6544           30001                           DCA      0
000550:    6545           52145                           DXCH     MPAC
000551:    6546           37755                           CAF      ONE
000552:    6547           16114                           TCF      NEWMODE                               #  DECLARE TRIPLE PRECISION MODE.
000553:
000554:    6550           22007        SLOAD              ZL                                             #  LOAD A SINGLE PRECISION NUMBER INTO
000555:    6551           50106                           INDEX    ADDRWD                                #  MPAC, SETTING MPAC+1,2 TO ZERO. THE
000556:    6552           30000                           CA       0                                     #  CONTENTS OF THE REMAINING MPAC REGISTERS
000557:    6553           16533                           TCF      SLOAD2                                #  ARE IRRELEVANT.
000558:
000559:    6554           00006        VLOAD              EXTEND                                         #  LOAD A DOUBLE PRECISION VECTOR INTO
000560:    6555           50106                           INDEX    ADDRWD                                #  MPAC,+1, MPAC+3,4, AND MPAC+5,6. THE
000561:    6556           30001                           DCA      0                                     #  CONTENTS OF MPAC +2 ARE IRRELEVANT.
000562:    6557           52145                           DXCH     MPAC
000563:
000564:    6560           00006        ENDVLOAD           EXTEND                                         #  PDVL COMES HERE TO FINISH UP FOR DP, TP.
000565:    6561           50106                           INDEX    ADDRWD
000566:    6562           30003                           DCA      2
000567:    6563           52150                           DXCH     MPAC       +3
000568:
000569:    6564           00006                 +4        EXTEND                                         #  TPDVL FINISHES HERE.
000570:    6565           50106                           INDEX    ADDRWD
000571:
000572:    6566           30005                           DCA      4
000573:    6567           52152                           DXCH     MPAC       +5
000574:
000575:    6570           47755                           CS       ONE                                   #  DECLARE VECTOR MODE.
000576:    6571           16114                           TCF      NEWMODE
000577:


000579:                                                                                                  #           THE FOLLOWING INSTRUCTIONS ARE PROVIDED FOR STORING OPERANDS IN THE PUSHDOWN LIST:
000580:
000581:                                                                                                  #           1.  PUSH               PUSHDOWN AND NO LOAD.
000582:                                                                                                  #           2.  PDDL               PUSHDOWN AND DOUBLE PRECISION LOAD.
000583:                                                                                                  #           3.  PDVL               PUSHDOWN AND VECTOR LOAD.
000584:
000585:    6572           00006        PDDL               EXTEND
000586:    6573           50106                           INDEX    ADDRWD                                #  LOAD MPAC,+1, PUSHING THE FORMER
000587:    6574           30001                           DCA      0                                     #  CONTENTS DOWN.
000588:    6575           52145                           DXCH     MPAC
000589:    6576           50156                           INDEX    PUSHLOC
000590:    6577           52001                           DXCH     0
000591:
000592:    6600           50153                           INDEX    MODE                                  #  ADVANCE THE PUSHDOWN POINTER APPRO-
000593:    6601           36300                           CAF      NO.WDS                                #  PRIATELY.
000594:    6602           26156                           ADS      PUSHLOC
000595:
000596:    6603           10153                           CCS      MODE
000597:    6604           16621                           TCF      ENDTPUSH
000598:
000599:    6605           16617                           TCF      ENDDPUSH
000600:
000601:    6606           54153                           TS       MODE                                  #  NOW DP.
000602:    6607           54146        ENDVPUSH           TS       MPAC       +2
000603:    6610           52150                           DXCH     MPAC       +3                         #  PUSH DOWN THE REST OF THE VECTOR HERE.
000604:    6611           50156                           INDEX    PUSHLOC
000605:    6612           51775                           DXCH     0          -4
000606:
000607:    6613           52152                           DXCH     MPAC       +5
000608:    6614           50156                           INDEX    PUSHLOC
000609:
000610:    6615           51777                           DXCH     0          -2
000611:
000612:    6616           16115                           TCF      DANZIG
000613:
000614:    6617           54146        ENDDPUSH           TS       MPAC       +2                         #  SET MPAC +2 TO ZERO AND EXIT ON DP.
000615:    6620           16115                           TCF      DANZIG
000616:
000617:    6621           54153        ENDTPUSH           TS       MODE
000618:    6622           56146                           XCH      MPAC       +2                         #  ON TRIPLE, SET MPAC +2 TO ZERO, PUSHING
000619:    6623           50156                 +2        INDEX    PUSHLOC                               #  DOWN THE OLD CONTENTS
000620:    6624           53777                           TS       0          -1
000621:    6625           16115                           TCF      DANZIG
000622:


000624:                                                                                                  #           PDVL - PUSHDOWN AND VECTOR LOAD.
000625:
000626:
000627:    6626           00006        PDVL               EXTEND                                         #  RELOAD MPAC AND PUSH DOWN ITS CONTENTS.
000628:    6627           50106                           INDEX    ADDRWD
000629:    6630           30001                           DCA      0
000630:    6631           52145                           DXCH     MPAC
000631:    6632           50156                           INDEX    PUSHLOC
000632:    6633           52001                           DXCH     0
000633:
000634:    6634           50153                           INDEX    MODE                                  #  ADVANCE THE PUSHDOWN POINTER.
000635:    6635           36300                           CAF      NO.WDS
000636:    6636           26156                           ADS      PUSHLOC
000637:
000638:    6637           10153                           CCS      MODE                                  #  TEST PAST MODE.
000639:    6640           16657                           TCF      TPDVL
000640:    6641           16560                           TCF      ENDVLOAD                              #  JUST LOAD LAST FOUR REGISTERS ON DP.
000641:
000642:    6642           00006        VPDVL              EXTEND                                         #  PUSHDOWN AND RE-LOAD LAST TWO COMPONENTS
000643:    6643           50106                           INDEX    ADDRWD
000644:    6644           30003                           DCA      2
000645:    6645           52150                           DXCH     MPAC       +3
000646:    6646           50156                           INDEX    PUSHLOC
000647:    6647           51775                           DXCH     0          -4
000648:
000649:    6650           00006                           EXTEND
000650:
000651:    6651           50106                           INDEX    ADDRWD
000652:    6652           30005                           DCA      4
000653:    6653           52152                           DXCH     MPAC       +5
000654:    6654           50156                           INDEX    PUSHLOC
000655:    6655           51777                           DXCH     0          -2
000656:
000657:    6656           16115                           TCF      DANZIG
000658:
000659:    6657           00006        TPDVL              EXTEND                                         #  ON TP, WE MUST LOAD THE Y COMPONENT
000660:    6660           50106                           INDEX    ADDRWD                                #  BEFORE STORING MPAC +2 INCASE THIS IS A
000661:
000662:    6661           30003                           DCA      2                                     #  PUSHUP.
000663:    6662           52150                           DXCH     MPAC       +3
000664:
000665:    6663           30146                           CA       MPAC       +2
000666:    6664           50156                           INDEX    PUSHLOC                               #  IN DP.
000667:    6665           53777                           TS       0          -1
000668:    6666           16564                           TCF      ENDVLOAD   +4
000669:
000670:                                                                                                  #           SSP (STORE SINGLE PRECISION) IS EXECUTED HERE.
000671:
000672:    6667           24154        SSP                INCR     LOC                                   #  PICK UP THE WORD FOLLOWING THE GIVEN
000673:    6670           50154                           INDEX    LOC                                   #  ADDRESS AND STORE IT AT X.
000674:
000675:    6671           30000                           CA       0
000676:    6672           50106        STORE1             INDEX    ADDRWD                                #  SOME INDEX AND MISCELLANEOUS OPS END
000677:    6673           54000                           TS       0                                     #  HERE.


000679:    6674           16115                           TCF      DANZIG
000680:


000682:                                                                                                  #  SEQUENCE CHANGING AND SUBROUTINE CALLING OPTIONS.
000683:
000684:                                                                                                  #           THE FOLLOWING OPERATIONS ARE AVAILABLE FOR SEQUENCING CHANGING, BRANCHING, AND CALLING SUBROUTINES:
000685:
000686:                                                                                                  #           1.  GOTO               GO TO.
000687:                                                                                                  #           2.  CALL               CALL SUBROUTINE SETTING QPRET.
000688:                                                                                                  #           3.  CGOTO              COMPUTED GO TO.
000689:                                                                                                  #           4.  CCALL              COMPUTED CALL.
000690:                                                                                                  #           7.  BPL                BRANCH IF MPAC POSITIVE OR ZERO.
000691:                                                                                                  #           8.  BZE                BRANCH IF MPAC ZERO.
000692:                                                                                                  #           9.  BMN                BRANCH IF MPAC NEGATIVE NON-ZERO.
000693:
000694:    6675           24154        CCALL              INCR     LOC                                   #  MAINTAIN LOC FOR QPRET COMPUTATION.
000695:    6676           50154                           INDEX    LOC
000696:
000697:    6677           30000                           CAF      0                                     #  GET BASE ADDRESS OF CADR LIST.
000698:    6700           50106                           INDEX    ADDRWD
000699:    6701           60000                           AD       0                                     #  ADD INCREMENT.
000700:    6702           54004                           TS       FBANK                                 #  SELECT DESIRED CADR.
000701:    6703           75356                           MASK     LOW10
000702:    6704           50000                           INDEX    A
000703:    6705           32000                           CAF      10000
000704:    6706           54107                           TS       POLISH
000705:
000706:    6707           30155        CALL               CA       BANKSET                               #  FOR ANY OF THE CALL OPTIONS, MAKE UP THE
000707:
000708:    6710           76331                           MASK     BANKMASK                              #  ADDRESS OF THE NEXT OP-CODE PAIR/STORE
000709:    6711           66331                           AD       BANKMASK                              #  CODE AND LEAVE IT IN QPRET.  NOTE THAT
000710:    6712           60154                           AD       LOC                                   #  BANKMASK = -(2000 - 1).
000711:    6713           50110                           INDEX    FIXLOC
000712:    6714           54052                           TS       QPRET
000713:
000714:    6715           30107        GOTO               CA       POLISH                                #  BASIC BRANCHING SEQUENCE.
000715:    6716           75367                 +1        MASK     HIGH4
000716:    6717           00006                           EXTEND
000717:    6720           16731                           BZF      GOTOERS                               #  SEE IF ADDRESS POINTS TO FIXED OR ERAS.
000718:    6721           30155                 +4        CA       BANKSET                               #  SET EBANK PART OF BBANK. NEXT, SET UP
000719:    6722           54006                           TS       BBANK                                 #  FBANK. THE COMBINATION IS PICKED UP &
000720:
000721:    6723           30107                           CA       POLISH                                #  PUT INTO BANKSET AT INTPRET +2.
000722:    6724           54004                           TS       FBANK
000723:    6725           75356                           MASK     LOW10
000724:    6726           67743                           AD       2K
000725:    6727           54154                           TS       LOC
000726:    6730           16105                           TCF      INTPRET    +2
000727:


000729:    6731  E3,1400                                  EBANK=   1400                                  #  SO YUL DOESN'T CUSS THE "CA 1400" BELOW.
000730:
000731:    6731           30107        GOTOERS            CA       POLISH                                #  THE GIVEN ADDRESS IS IN ERASABLE - SEE
000732:    6732           66305                           AD       -ENDVAC                               #  IF RELATIVE TO THE WORK AREA.
000733:    6733           10000                           CCS      A
000734:    6734           30107                           CA       POLISH                                #  GENERAL ERASABLE.
000735:
000736:    6735           16744                           TCF      GOTOGE
000737:
000738:    6736           30110                           CA       FIXLOC                                #  WORK AREA.
000739:    6737           60107                           AD       POLISH
000740:    6740           50000                           INDEX    A                                     #  USE THE GIVEN ADDRESS AS THE ADDRESS OF
000741:    6741           30000                           CA       0                                     #  THE BRANCH ADDRESS.
000742:    6742           54107                           TS       POLISH
000743:    6743           16716                           TCF      GOTO       +1                         #  ALLOWS ARBITRARY INDIRECTNESS LEVELS.
000744:
000745:    6744           54003        GOTOGE             TS       EBANK
000746:    6745           74553                           MASK     LOW8
000747:    6746           50000                           INDEX    A                                     #  USE THE GIVEN ADDRESS AS THE ADDRESS OF
000748:
000749:    6747           31400                           CA       1400                                  #  THE BRANCH ADDRESS.
000750:    6750           54107                           TS       POLISH
000751:    6751           16716                           TCF      GOTO       +1
000752:
000753:    6752           50154        CGOTO              INDEX    LOC                                   #  COMPUTED GO TO. PICK UP ADDRESS OF CADR
000754:    6753           30001                           CA       1                                     #  LIST.
000755:    6754           50106                           INDEX    ADDRWD                                #  ADD MODIFIER.
000756:    6755           60000                           AD       0
000757:    6756           54004                           TS       FBANK                                 #  SELECT GOTO ADDRESS.
000758:    6757           75356                           MASK     LOW10
000759:
000760:    6760           50000                           INDEX    A
000761:    6761           32000                           CA       10000
000762:    6762           54107                           TS       POLISH
000763:    6763           16716                           TCF      GOTO       +1                         #  WITH ADDRESS IN A.
000764:
000765:    6764           30155        SWBRANCH           CA       BANKSET                               #  SWITCH INSTRUCTIONS WHICH ELECT TO
000766:    6765           54004                           TS       FBANK                                 #  BRANCH COME HERE TO DO SO.
000767:    6766           50154                           INDEX    LOC
000768:    6767           30001                           CA       1
000769:    6770           54107                           TS       POLISH
000770:    6771           16716                           TCF      GOTO       +1
000771:


000773:                                                                                                  #           TRIPLE PRECISION BRANCHING ROUTINE. IF CALLING TC IS AT L, RETURN IS AS FOLLOWS:
000774:
000775:
000776:                                                                                                  #           L+1  IF MPAC IS GREATER THAN ZERO.
000777:                                                                                                  #           L+2  IF MPAC IS EQUAL TO +0 OR -0.
000778:                                                                                                  #           L+3  IF MPAC IS LESS THAN ZERO.
000779:
000780:
000781:    6772           10144        BRANCH             CCS      MPAC
000782:    6773           00002                           TC       Q
000783:    6774           16776                           TCF      +2                                    #  ON ZERO.
000784:    6775           17010                           TCF      NEG
000785:
000786:
000787:    6776           10145                           CCS      MPAC       +1
000788:    6777           00002                           TC       Q
000789:    7000           17002                           TCF      +2
000790:    7001           17010                           TCF      NEG
000791:
000792:    7002           10146                           CCS      MPAC       +2
000793:    7003           00002                           TC       Q
000794:    7004           17006                           TCF      +2
000795:    7005           17010                           TCF      NEG
000796:
000797:    7006           50002        Q+1                INDEX    Q
000798:
000799:    7007           00001                           TC       1
000800:
000801:    7010           50002        NEG                INDEX    Q                                     #  IF FIRST NON-ZERO REGISTER WAS NEGATIVE.
000802:    7011           00002                           TC       2
000803:
000804:
000805:
000806:    7012     7010               Q+2                =        NEG
000807:
000808:                                                                                                  #           ITRACE (3) REFERS TO "EXIT".
000809:
000810:    7012           30155        EXIT               CA       BANKSET                               #  RESTORE USER'S BANK SETTING, AND LEAVE
000811:    7013           54006                           TS       BBANK                                 #  INTERPRETIVE MODE.
000812:    7014           50154                           INDEX    LOC
000813:    7015           10001                           TCF      1
000814:


000816:                                                                                                  #  SECTION 3 - ADD/SUBTRACT PACKAGE.
000817:
000818:                                                                                                  #           THE FOLLOWING OPERATIONS ARE PROVIDED FOR ADDING TO AND SUBTRACTING FROM THE MULTI-PURPOSE ACCUMULATOR
000819:                                                                                                  #  MPAC:
000820:
000821:                                                                                                  #           1.  DAD                DOUBLE PRECISION ADD.
000822:                                                                                                  #           2.  DSU                DOUBLE PRECISION SUBTRACT.
000823:                                                                                                  #           3.  BDSU               DOUBLE PRECISION SUBTRACT FROM.
000824:
000825:
000826:                                                                                                  #           4.  TAD                TRIPLE PRECISION ADD.
000827:
000828:                                                                                                  #           5.  VAD                VECTOR ADD.
000829:                                                                                                  #           6.  VSU                VECTOR SUBTRACT.
000830:                                                                                                  #           7.  BVSU               VECTOR SUBTRACT FROM.
000831:
000832:                                                                                                  #  THE INTERPRETIVE OVERFLOW INDICATOR OVFIND IS SET NON-ZERO IF OVERFLOW OCCURS IN ANY OF THE ABOVE.
000833:
000834:
000835:
000836:    7016           00006        VAD                EXTEND
000837:    7017           50106                           INDEX    ADDRWD
000838:    7020           30003                           DCA      2
000839:    7021           20150                           DAS      MPAC       +3
000840:    7022           00006                           EXTEND                                         #  CHECK OVERFLOW.
000841:    7023           17025                           BZF      +2
000842:    7024           07072                           TC       OVERFLOW
000843:
000844:    7025           00006                           EXTEND
000845:    7026           50106                           INDEX    ADDRWD
000846:    7027           30005                           DCA      4
000847:    7030           20152                           DAS      MPAC       +5
000848:
000849:    7031           00006                           EXTEND
000850:    7032           17034                           BZF      +2
000851:    7033           07072                           TC       OVERFLOW
000852:
000853:    7034           00006        DAD                EXTEND
000854:    7035           50106                           INDEX    ADDRWD
000855:    7036           30001                           DCA      0
000856:    7037           20145        ENDVXV             DAS      MPAC                                  #  VXV FINISHES HERE.
000857:    7040           00006                           EXTEND
000858:    7041           16115                           BZF      DANZIG
000859:
000860:    7042           07072                           TC       OVERFLOW
000861:    7043           16115                           TCF      DANZIG
000862:


000864:    7044           00006        VSU                EXTEND
000865:
000866:    7045           50106                           INDEX    ADDRWD
000867:    7046           40003                           DCS      2
000868:    7047           20150                           DAS      MPAC       +3
000869:    7050           00006                           EXTEND
000870:    7051           17053                           BZF      +2
000871:    7052           07072                           TC       OVERFLOW
000872:
000873:    7053           00006                           EXTEND
000874:    7054           50106                           INDEX    ADDRWD
000875:    7055           40005                           DCS      4
000876:    7056           20152                           DAS      MPAC       +5
000877:    7057           00006                           EXTEND
000878:
000879:    7060           17062                           BZF      +2
000880:    7061           07072                           TC       OVERFLOW
000881:
000882:    7062           00006        DSU                EXTEND
000883:    7063           50106                           INDEX    ADDRWD
000884:    7064           40001                           DCS      0
000885:    7065           20145                           DAS      MPAC
000886:    7066           00006                           EXTEND
000887:    7067           16115                           BZF      DANZIG
000888:    7070           07072                           TC       OVERFLOW
000889:
000890:    7071           16115                           TCF      DANZIG
000891:
000892:    7072           37755        OVERFLOW           CAF      ONE                                   #  SUBROUTINE TO TURN OVFIND ON.
000893:    7073           17215                           TCF      SETOVF2
000894:


000896:    7074           00006        BVSU               EXTEND
000897:    7075           50106                           INDEX    ADDRWD
000898:    7076           30003                           DCA      2
000899:    7077           52150                           DXCH     MPAC       +3
000900:    7100           00006                           EXTEND
000901:    7101           40001                           DCOM
000902:
000903:    7102           20150                           DAS      MPAC       +3
000904:    7103           00006                           EXTEND
000905:    7104           17106                           BZF      +2
000906:    7105           07072                           TC       OVERFLOW
000907:
000908:    7106           00006                           EXTEND
000909:    7107           50106                           INDEX    ADDRWD
000910:    7110           30005                           DCA      4
000911:    7111           52152                           DXCH     MPAC       +5
000912:    7112           00006                           EXTEND
000913:    7113           40001                           DCOM
000914:    7114           20152                           DAS      MPAC       +5
000915:
000916:    7115           00006                           EXTEND
000917:    7116           17120                           BZF      +2
000918:    7117           07072                           TC       OVERFLOW
000919:
000920:    7120           00006        BDSU               EXTEND
000921:    7121           50106                           INDEX    ADDRWD
000922:    7122           30001                           DCA      0
000923:    7123           52145                           DXCH     MPAC
000924:    7124           00006                           EXTEND
000925:    7125           40001                           DCOM
000926:
000927:    7126           20145                           DAS      MPAC
000928:    7127           00006                           EXTEND
000929:    7130           16115                           BZF      DANZIG
000930:    7131           07072                           TC       OVERFLOW
000931:    7132           16115                           TCF      DANZIG
000932:


000934:                                                                                                  #           TRIPLE PRECISION ADD ROUTINE.
000935:
000936:
000937:    7133           00006        TAD                EXTEND
000938:    7134           50106                           INDEX    ADDRWD
000939:    7135           30002                           DCA      1                                     #  ADD MINOR PARTS FIRST.
000940:    7136           20146                           DAS      MPAC       +1
000941:    7137           50106                           INDEX    ADDRWD
000942:    7140           60000                           AD       0
000943:    7141           60144                           AD       MPAC
000944:    7142           54144                           TS       MPAC
000945:    7143           16115                           TCF      DANZIG
000946:
000947:    7144           54111        SETOVF             TS       OVFIND                                #  SET OVFIND IF SUCH OCCURS.
000948:    7145           16115                           TCF      DANZIG
000949:


000951:                                                                                                  #  ARITHMETIC SUBROUTINES REQUIRED IN FIXED-FIXED.
000952:
000953:                                                                                                  #           1.  DMPSUB     DOUBLE PRECISION MULTIPLY. MULTIPLY THE CONTENTS OF MPAC,+1 BY THE DP WORD WHOSE ADDRESS
000954:                                                                                                  #                          IS IN ADDRWD AND LEAVE A TRIPLE PRECISION RESULT IN MPAC.
000955:                                                                                                  #           2.  ROUNDSUB   ROUND THE TRIPLE PRECISON CONTENTS OF MPAC TO DOUBLE PRECISION.
000956:                                                                                                  #           3.  DOTSUB     TAKE THE DOT PRODUCT OF THE VECTOR IN MPAC AND THE VECTOR WHOSE ADDRESS IS IN ADDRWD
000957:                                                                                                  #                          AND LEAVE THE TRIPLE PRECISION RESULT IN MPAC.
000958:                                                                                                  #           4.  POLY       USING THE CONTENTS OF MPAC AS A DP ARGUMENT, EVALUATE THE POLYNOMIAL WHOSE DEGREE AND
000959:
000960:                                                                                                  #                          COEFFICIENTS IMMEDIATELY FOLLOW THE TC POLY INSTRUCTION (SEE ROUTINE FOR DETAILS.)
000961:
000962:
000963:
000964:    7146           50002        DMP                INDEX    Q                                     #  BASIC SUBROUTINE FOR USE BY PINBALL, ETC
000965:    7147           30000                           CAF      0                                     #  ADRES OF ARGUMENT FOLLOWS  TC DMP  .
000966:    7150           24002                           INCR     Q
000967:    7151           54106                 -1        TS       ADDRWD                                #  (PROLOGUE FOR SETTING ADDRWD.)
000968:
000969:    7152           50106        DMPSUB             INDEX    ADDRWD                                #  GET MINOR PART OF OPERAND AT C(ADDRWD).
000970:
000971:    7153           30001                           CA       1
000972:    7154           54146                           TS       MPAC       +2                         #  THIS WORKS FOR SQUARING MPAC AS WELL.
000973:    7155           37761                           CAF      ZERO                                  #  SET MPAC +1 TO ZERO SO WE CAN ACCUMULATE
000974:    7156           56145                           XCH      MPAC       +1                         #  THE PARTIAL PRODUCTS WITH DAS
000975:    7157           54125                           TS       MPTEMP                                #  INSTRUCTIONS.
000976:    7160           00006                           EXTEND
000977:    7161           70146                           MP       MPAC       +2                         #  MINOR OF MPAC X MINOR OF C(ADDRWD).
000978:
000979:    7162           56146                           XCH      MPAC       +2                         #  DISCARD MINOR PART OF ABOVE RESULT AND
000980:    7163           00006                           EXTEND                                         #  FORM MAJOR OF MPAC X MINOR OF C(ADDRWD).
000981:    7164           70144                           MP       MPAC
000982:    7165           20146                           DAS      MPAC       +1                         #  GUARANTEED NO OVERFLOW.
000983:
000984:    7166           50106                           INDEX    ADDRWD                                #  GET MAJOR PART OF ARGUMENT AT C(ADDRWD).
000985:    7167           30000                           CA       0
000986:    7170           56125                           XCH      MPTEMP                                #  SAVE AND BRING OUT MINOR OF MPAC.
000987:    7171           00006                           EXTEND
000988:    7172           70125                           MP       MPTEMP                                #  MAJOR OF C(ADDRWD) X MINOR OF MPAC.
000989:    7173           20146                           DAS      MPAC       +1                         #  ACCUMULATE, SETTING A TO NET OVERFLOW.
000990:
000991:    7174           56144                           XCH      MPAC                                  #  SETTING MPAC TO 0 OR +-1.
000992:    7175           00006                           EXTEND
000993:
000994:    7176           70125                           MP       MPTEMP                                #  MAJOR OF MPAC X MAJOR OF C(ADDRWD).
000995:    7177           20145                           DAS      MPAC                                  #  GUARANTEED NO OVERFLOW.
000996:    7200           00002                           TC       Q                                     #  49 MCT = .573 MS. INCLUDING RETURN.
000997:


000999:                                                                                                  #           ROUND MPAC TO DOUBLE PRECISION, SETTING OVFIND ON THE RARE EVENT OF OVERFLOW.
001000:
001001:    7201           37761        ROUNDSUB           CAF      ZERO                                  #  SET MPAC +2 = 0 FOR SCALARS AND CHANGE
001002:    7202           54153                 +1        TS       MODE                                  #  MODE TO DP.
001003:
001004:    7203           56146        VROUND             XCH      MPAC       +2                         #  BUT WE NEEDNT TAKE THE TIME FOR VECTORS.
001005:    7204           60000                           DOUBLE
001006:    7205           54001                           TS       L
001007:    7206           00002                           TC       Q
001008:
001009:    7207           60145                           AD       MPAC       +1                         #  ADD ROUNDING BIT IF MPAC +2 WAS GREATER
001010:    7210           54145                           TS       MPAC       +1                         #  THAN .5 IN MAGNITUDE.
001011:    7211           00002                           TC       Q
001012:
001013:
001014:    7212           60144                           AD       MPAC                                  #  PROPAGATE INTERFLOW.
001015:    7213           54144                           TS       MPAC
001016:    7214           00002                           TC       Q
001017:
001018:    7215           54111        SETOVF2            TS       OVFIND                                #  (RARE).
001019:    7216           00002                           TC       Q
001020:


001022:                                                                                                  #           THE DOT PRODUCT SUBROUTINE USUALLY FORMS THE DOT PRODUCT OF THE VECTOR IN MPAC WITH A STANDARD SIX
001023:                                                                                                  #  REGISTER VECTOR WHOSE ADDRESS IS IN ADDRWD. IN THIS CASE C(DOTINC) ARE SET TO 2. VXM, HOWEVER, SETS C(DOTINC) TO
001024:                                                                                                  #  6 SO THAT DOTSUB DOTS MPAC WITH A COLUMN VECTOR OF THE MATRIX IN QUESTION IN THIS CASE.
001025:
001026:
001027:
001028:    7217           37754        PREDOT             CAF      TWO                                   #  PROLOGUE TO SET DOTINC TO 2.
001029:    7220           54126                           TS       DOTINC
001030:
001031:    7221           00006        DOTSUB             EXTEND
001032:    7222           22127                           QXCH     DOTRET                                #  SAVE RETURN.
001033:    7223           07152                           TC       DMPSUB                                #  DOT X COMPONENTS.
001034:    7224           52150                           DXCH     MPAC       +3                         #  POSITION Y COMPONENT OF MPAC FOR
001035:    7225           52145                           DXCH     MPAC                                  #  MULTIPLICATION WHILE SAVING RESULT IN
001036:    7226           52121                           DXCH     BUF                                   #  THREE WORD BUFFER, BUF.
001037:    7227           30146                           CA       MPAC       +2
001038:    7230           54122                           TS       BUF        +2
001039:
001040:    7231           30126                           CA       DOTINC                                #  ADVANCE ADDRWD TO Y COMPONENT OF
001041:
001042:    7232           26106                           ADS      ADDRWD                                #  OTHER ARGUMENT.
001043:    7233           07152                           TC       DMPSUB
001044:    7234           52146                           DXCH     MPAC       +1                         #  ACCUMULATE PARTIAL PRODUCTS.
001045:    7235           20122                           DAS      BUF        +1
001046:    7236           60144                           AD       MPAC
001047:    7237           60120                           AD       BUF
001048:    7240           54120                           TS       BUF
001049:    7241           17243                           TCF      +2
001050:    7242           54111                           TS       OVFIND                                #  IF OVERFLOW OCCURS.
001051:
001052:    7243           52152                           DXCH     MPAC       +5                         #  MULTIPLY Z COMPONENTS.
001053:    7244           52145                           DXCH     MPAC
001054:    7245           30126                           CA       DOTINC
001055:    7246           26106                           ADS      ADDRWD
001056:    7247           07152                           TC       DMPSUB
001057:    7250           52122        ENDDOT             DXCH     BUF        +1                         #  LEAVE FINAL ACCUMULATION IN MPAC.
001058:    7251           20146                           DAS      MPAC       +1
001059:    7252           60144                           AD       MPAC
001060:    7253           60120                           AD       BUF
001061:    7254           54144                           TS       MPAC
001062:    7255           00127                           TC       DOTRET
001063:
001064:    7256           54111                           TS       OVFIND                                #  ON OVERFLOW HERE.
001065:
001066:    7257           00127                           TC       DOTRET
001067:


001069:                                                                                                  #  DOUBLE PRECISION POLYNOMIAL EVALUATOR
001070:
001071:
001072:                                                                                                  #                                     N        N-1
001073:                                                                                                  #           THIS ROUTINE EVALUATES A X  + A   X    + ... + A X + A  LEAVING THE DP RESULT IN MPAC ON EXIT.
001074:                                                                                                  #                                   N      N-1              1     0
001075:
001076:                                                                                                  #  THE ROUTINE HAS TWO ENTRIES
001077:
001078:                                                                                                  #           1. ENTRY THRU POWRSERS. THE COEFFICIENTS MAY BE EITHER IN FIXED OR ERASABLE, THE CALL IS BY
001079:                                                                                                  #              TC POWRSERS, AND THE RETURN IS TO LOC(TC POWRSERS)+1. THE ENTERING DATA MUST BE AS FOLLOWS
001080:
001081:                                                                                                  #                                          A        SP     LOC-3           ADDRESS FOR REFERENCING COEF TABLE
001082:
001083:                                                                                                  #                                          L        SP     N-1             N IS THE DEGREE OF THE POWER SERIES
001084:                                                                                                  #                                          MPAC     DP     X               ARGUMENT
001085:
001086:                                                                                                  #                                          LOC-2N   DP     A(0)
001087:                                                                                                  #                                                   ...
001088:                                                                                                  #                                          LOC      DP     A(N)
001089:
001090:                                                                                                  #           2. ENTRY THRU POLY. THE CALL TO POLY AND THE ENTERING DATA MUST BE AS FOLLOWS
001091:
001092:                                                                                                  #                                          MPAC     DP     X               ARGUMENT
001093:
001094:                                                                                                  #                                          LOC      TC     POLY
001095:
001096:                                                                                                  #                                          LOC+1    SP     N-1
001097:                                                                                                  #                                          LOC+2    DP     A(0)
001098:                                                                                                  #                                                   ...
001099:                                                                                                  #                                          LOC+2N+2 DP     A(N)            RETURN IS TO LOC+2N+4
001100:
001101:    7260           00006        POWRSERS           EXTEND
001102:    7261           22131                           QXCH     POLYRET                               #  RETURN ADDRESS
001103:    7262           54107                           TS       POLISH                                #  POWER SERIES ADDRESS
001104:    7263           22130                           LXCH     POLYCNT                               #  N-1 TO COUNTER
001105:    7264           17275                           TCF      POLYCOM                               #  SKIP SET UP BY POLY
001106:
001107:    7265           50002        POLY               INDEX    Q
001108:    7266           30000                           CAF      0
001109:    7267           54130                           TS       POLYCNT                               #  N-1 TO COUNTER
001110:    7270           60000                           DOUBLE
001111:    7271           60002                           AD       Q
001112:    7272           54107                           TS       POLISH                                #  L(A(N))-3 TO POLISH
001113:    7273           67760                           AD       FIVE
001114:    7274           54131                           TS       POLYRET                               #  STORE RETURN ADDRESS
001115:
001116:    7275           35365        POLYCOM            CAF      LVBUF                                 #  INCOMING X WILL BE MOVED TO VBUF, SO
001117:    7276           54106                           TS       ADDRWD                                #  SET ADDRWD SO DMPSUB WILL MPY BY VBUF.
001118:
001119:
001120:    7277           00006                           EXTEND
001121:    7300           50107                           INDEX    POLISH
001122:    7301           30004                           DCA      3
001123:


001125:    7302           52145                           DXCH     MPAC                                  #  LOAD A(N) INTO MPAC,
001126:    7303           52113                           DXCH     VBUF                                  #  SAVING X IN VBUF
001127:    7304           17310                           TCF      POLY2
001128:
001129:    7305           54130        POLYLOOP           TS       POLYCNT                               #  SAVE DECREMENTED LOOP COUNTER
001130:    7306           47754                           CS       TWO
001131:    7307           26107                           ADS      POLISH                                #  REGRESS COEFFICIENT POINTER
001132:
001133:
001134:    7310           07152        POLY2              TC       DMPSUB                                #  MULTIPLY BY X
001135:    7311           00006                           EXTEND
001136:    7312           50107                           INDEX    POLISH
001137:    7313           30002                           DCA      1                                     #  ADD IN NEXT COEFFICIENT
001138:    7314           20145                           DAS      MPAC                                  #  USERS RESPONSIBILITY TO ASSURE NO OVFLOW
001139:
001140:    7315           10130                           CCS      POLYCNT
001141:    7316           17305                           TCF      POLYLOOP
001142:    7317           00131                           TC       POLYRET                               #  RETURN CALLER
001143:


001145:                                                                                                  #           MISCELLANEOUS MULTI-PRECISION ROUTINES REQUIRED IN FIXED-FIXED BUT NOT USED BY THE INTERPRETER.
001146:
001147:    7320           00006        TPAGREE            EXTEND                                         #  FORCE SIGN AGREEMENT AMONG THE TRIPLE-
001148:    7321           22120                           QXCH     BUF                                   #  PRECISION CONTENTS OF MPAC, RETURNING
001149:    7322           06772                           TC       BRANCH                                #  WITH SIGNUM OF THE INPUT IN A.
001150:    7323           17327                           TCF      ARG+
001151:    7324           17347                           TCF      ARGZERO
001152:
001153:    7325           47735                           CS       POSMAX                                #  IF NEGATIVE.
001154:    7326           17330                           TCF      +2
001155:
001156:    7327           37735        ARG+               CAF      POSMAX
001157:    7330           54121                 +2        TS       BUF        +1
001158:    7331           00006                           EXTEND
001159:
001160:    7332           24000                           AUG      A                                     #  FORMS +-1.0.
001161:    7333           60146                           AD       MPAC       +2
001162:    7334           54146                           TS       MPAC       +2
001163:    7335           37761                           CAF      ZERO
001164:    7336           60121                           AD       BUF        +1
001165:    7337           60145                           AD       MPAC       +1
001166:    7340           54145                           TS       MPAC       +1
001167:    7341           37761                           CAF      ZERO
001168:    7342           60121                           AD       BUF        +1
001169:    7343           60144                           AD       MPAC
001170:
001171:    7344           54144        ARGZERO2           TS       MPAC                                  #  ALWAYS SKIPPING UNLESS ARGZERO.
001172:    7345           54145                           TS       MPAC       +1
001173:    7346           00120                           TC       BUF                                   #  RETURN.
001174:
001175:    7347           54146        ARGZERO            TS       MPAC       +2                         #  SET ALL THREE MPAC REGISTERS TO ZERO.
001176:    7350           17344                           TCF      ARGZERO2
001177:
001178:                                                                                                  #           SHORTMP MULTIPLIES THE TP CONTENTS OF MPAC BY THE SINGLE PRECISION NUMBER ARRIVING IN A.
001179:
001180:    7351           54125        SHORTMP            TS       MPTEMP
001181:    7352           00006                           EXTEND
001182:    7353           70146                           MP       MPAC       +2
001183:
001184:    7354           54146                           TS       MPAC       +2
001185:    7355           37761                           CAF      ZERO                                  #  SO SUBSEQUENT DAS WILL WORK.
001186:    7356           56145                           XCH      MPAC       +1
001187:    7357           00006                           EXTEND
001188:    7360           70125                           MP       MPTEMP
001189:    7361           20146                           DAS      MPAC       +1
001190:    7362           56144                           XCH      MPAC                                  #  SETTING MPAC TO 0.
001191:    7363           00006                           EXTEND
001192:    7364           70125                           MP       MPTEMP
001193:    7365           20145                           DAS      MPAC
001194:
001195:    7366           00002                           TC       Q
001196:


001198:                                                                                                  #         DMPNSUB MULTIPLIES THE DP FRACTION ARRIVING IN MPAC BY THE SP
001199:                                                                                                  #  INTEGER ARRIVING IN A.  THE DP PRODUCT DEPARTS BOTH IN MPAC AND IN
001200:                                                                                                  #  A AND L.  NOTE THAT DMPNSUB NORMALLY INCREASES THE MAGNITUDE OF THE
001201:                                                                                                  #  CONTENTS OF MPAC.  THE CUSTOMER MUST INSURE THAT B(A) X B(MPAC,MPAC+1)
001202:                                                                                                  #  AND B(A) X B(MPAC) ARE LESS THAN 1 IN MAGNITUDE, WHERE B, AS IS OBVIOUS,
001203:                                                                                                  #  INDICATES THE ARRIVING CONTENTS.
001204:
001205:
001206:    7367           54125        DMPNSUB            TS       DMPNTEMP
001207:    7370           00006                           EXTEND
001208:    7371           70145                           MP       MPAC       +1
001209:    7372           52145                           DXCH     MPAC                                  #  LOW PRODUCT TO MPAC, HIGH FACTOR TO A
001210:    7373           00006                           EXTEND
001211:    7374           70125                           MP       DMPNTEMP
001212:    7375           30001                           CA       L
001213:    7376           26144                           ADS      MPAC                                  #  COMPLETING THE PRODUCT IN MPAC
001214:    7377           00006                           EXTEND
001215:    7400           30145                           DCA      MPAC                                  #  BRINGING THE PRODUCT INTO A AND L
001216:    7401           00002                           TC       Q
001217:


001219:                                                                                                  #  MISCELLANEOUS VECTOR OPERATIONS. INCLUDED HERE ARE THE FOLLOWING:
001220:
001221:
001222:                                                                                                  #           1.  DOT                DP VECTOR DOT PRODUCT.
001223:                                                                                                  #           2.  VXV                DP VECTOR CROSS PRODUCT.
001224:                                                                                                  #           3.  VXSC               DP VECTOR TIMES SCALAR.
001225:                                                                                                  #           4.  V/SC               DP VECTOR DIVIDED BY SCALAR.
001226:                                                                                                  #           5.  VPROJ              DP VECTOR PROJECTION.  ( (MPAC.X)MPAC ).
001227:                                                                                                  #           6.  VXM                DP VECTOR POST-MULTIPLIED BY MATRIX.
001228:                                                                                                  #           7.  MXV                DP VECTOR PRE-MULTIPLIED BY MATRIX.
001229:
001230:
001231:
001232:    7402           07217        DOT                TC       PREDOT                                #  DO THE DOT PRODUCT AND EXIT, CHANGING
001233:    7403           37761                           CAF      ZERO                                  #  THE MODE TO DP SCALAR.
001234:    7404           16114                           TCF      NEWMODE
001235:
001236:
001237:
001238:    7405           37754        MXV                CAF      TWO                                   #  SET UP MATINC AND DOTINC FOR ROW
001239:    7406           54130                           TS       MATINC                                #  VECTORS.
001240:    7407           17413                           TCF      VXM/MXV                               #  GO TO COMMON PORTION.
001241:
001242:    7410           44557        VXM                CS       TEN                                   #  SET MATINC AND DOTINC TO REFER TO MATRIX
001243:    7411           54130                           TS       MATINC                                #  AS THREE COLUMN VECTORS.
001244:    7412           36276                           CAF      SIX
001245:


001247:                                                                                                  #           COMMON PORTION OF MXV AND VXM.
001248:
001249:    7413           54126        VXM/MXV            TS       DOTINC
001250:                                                                                                  #           ITRACE (2) REFERS TO "VXM/MXV".
001251:    7414           07604                           TC       MPACVBUF                              #  SAVE VECTOR IN MPAC FOR FURTHER USE.
001252:
001253:    7415           07221                           TC       DOTSUB                                #  GO DOT TO GET X COMPONENT OF ANSWER.
001254:    7416           00006                           EXTEND
001255:
001256:    7417           30113                           DCA      VBUF                                  #  MOVE MPAC VECTOR BACK INTO MPAC, SAVING
001257:    7420           52145                           DXCH     MPAC                                  #  NEW X COMPONENT IN BUF2.
001258:    7421           52124                           DXCH     BUF2
001259:    7422           00006                           EXTEND
001260:    7423           30115                           DCA      VBUF       +2
001261:    7424           52150                           DXCH     MPAC       +3
001262:    7425           00006                           EXTEND
001263:    7426           30117                           DCA      VBUF       +4
001264:    7427           52152                           DXCH     MPAC       +5
001265:    7430           30130                           CA       MATINC                                #  INITIALIZE ADDRWD FOR NEXT DOT PRODUCT.
001266:
001267:    7431           26106                           ADS      ADDRWD                                #  FORMS BASE ADDRESS OF NEXT COLUMN(ROW).
001268:
001269:    7432           07221                           TC       DOTSUB
001270:    7433           52113                           DXCH     VBUF                                  #  MOVE GIVEN VECTOR BACK TO MPAC, SAVING Y
001271:    7434           52145                           DXCH     MPAC                                  #  COMPONENT OF ANSWER IN VBUF +2.
001272:    7435           52115                           DXCH     VBUF       +2
001273:    7436           52150                           DXCH     MPAC       +3
001274:    7437           52117                           DXCH     VBUF       +4
001275:    7440           52152                           DXCH     MPAC       +5
001276:    7441           30130                           CA       MATINC                                #  FORM ADDRESS OF LAST COLUMN OR ROW.
001277:    7442           26106                           ADS      ADDRWD
001278:
001279:    7443           07221                           TC       DOTSUB
001280:    7444           52124                           DXCH     BUF2                                  #  ANSWER NOW COMPLETE. PUT COMPONENTS INTO
001281:    7445           52145                           DXCH     MPAC                                  #  PROPER MPAC REGISTERS.
001282:    7446           52152                           DXCH     MPAC       +5
001283:    7447           52115                           DXCH     VBUF       +2
001284:    7450           52150                           DXCH     MPAC       +3
001285:    7451           16115                           TCF      DANZIG                                #  EXIT.
001286:


001288:                                                                                                  #           VXSC - VECTOR TIMES SCALAR.
001289:
001290:    7452           10153        VXSC               CCS      MODE                                  #  TEST PRESENT MODE.
001291:    7453           17501                           TCF      DVXSC                                 #  SEPARATE ROUTINE WHEN SCALAR IS IN MPAC.
001292:    7454           17501                           TCF      DVXSC
001293:
001294:    7455           07152        VVXSC              TC       DMPSUB                                #  COMPUTE X COMPONENT
001295:    7456           07203                           TC       VROUND                                #  AND ROUND IT.
001296:    7457           52150                           DXCH     MPAC       +3                         #  PUT Y COMPONENT INTO MPAC SAVING MPAC IN
001297:    7460           52145                           DXCH     MPAC                                  #  MPAC +3.
001298:    7461           52150                           DXCH     MPAC       +3
001299:
001300:    7462           07152                           TC       DMPSUB                                #  DO SAME FOR Y AND Z COMPONENTS.
001301:    7463           07203                           TC       VROUND
001302:
001303:    7464           52152                           DXCH     MPAC       +5
001304:    7465           52145                           DXCH     MPAC
001305:    7466           52152                           DXCH     MPAC       +5
001306:
001307:    7467           07152                           TC       DMPSUB
001308:    7470           07203                           TC       VROUND
001309:    7471           52145        VROTATEX           DXCH     MPAC                                  #  EXIT USED TO RESTORE MPAC AFTER THIS
001310:    7472           52152                           DXCH     MPAC       +5                         #  TYPE OF ROTATION. CALLED BY VECTOR SHIFT
001311:    7473           52150                           DXCH     MPAC       +3                         #  RIGHT, V/SC, ETC.
001312:    7474           52145                           DXCH     MPAC
001313:
001314:    7475           16115                           TCF      DANZIG
001315:


001317:                                                                                                  #           DP VECTOR PROJECTION ROUTINE.
001318:
001319:    7476           07217        VPROJ              TC       PREDOT                                #  (MPAC.X)MPAC IS COMPUTED AND LEFT IN
001320:    7477           47753                           CS       FOUR                                  #  MPAC. DO DOT AND FALL INTO DVXSC.
001321:    7500           26106                           ADS      ADDRWD
001322:
001323:                                                                                                  #           VXSC WHEN SCALAR ARRIVES IN MPAC AND VECTOR IS AT X.
001324:
001325:    7501           00006        DVXSC              EXTEND                                         #  SAVE SCALAR IN MPAC +3 AND GET X
001326:    7502           30145                           DCA      MPAC                                  #  COMPONENT OF ANSWER.
001327:    7503           52150                           DXCH     MPAC       +3
001328:    7504           07152                           TC       DMPSUB
001329:    7505           07203                           TC       VROUND
001330:
001331:    7506           37754                           CAF      TWO                                   #  ADVANCE ADDRWD TO Y COMPONENT OF X.
001332:    7507           26106                           ADS      ADDRWD
001333:    7510           00006                           EXTEND
001334:    7511           30150                           DCA      MPAC       +3                         #  PUT SCALAR BACK INTO MPAC AND SAVE
001335:    7512           52145                           DXCH     MPAC                                  #  X RESULT IN MPAC +5.
001336:
001337:    7513           52152                           DXCH     MPAC       +5
001338:    7514           07152                           TC       DMPSUB
001339:    7515           07203                           TC       VROUND
001340:
001341:    7516           37754                           CAF      TWO
001342:    7517           26106                           ADS      ADDRWD                                #  TO Z COMPONENT.
001343:    7520           52150                           DXCH     MPAC       +3                         #  BRING SCALAR BACK, PUTTING Y RESULT IN
001344:    7521           52145                           DXCH     MPAC                                  #  THE PROPER PLACE.
001345:    7522           52150                           DXCH     MPAC       +3
001346:    7523           07152                           TC       DMPSUB
001347:
001348:    7524           07203                           TC       VROUND
001349:
001350:    7525           52145                           DXCH     MPAC                                  #  PUT Z COMPONENT IN PROPER PLACE, ALSO
001351:    7526           52152                           DXCH     MPAC       +5                         #  POSITIONING X.
001352:    7527           52145                           DXCH     MPAC
001353:
001354:    7530           47755                           CS       ONE                                   #  MODE HAS CHANGED TO VECTOR.
001355:    7531           16114                           TCF      NEWMODE
001356:


001358:                                                                                                  #           THE VECTOR CROSS PRODUCT ROUTINE CALCULATES (X M -X M ,X M -X M ,X M -X M ) WHERE M IS THE VECTOR IN
001359:                                                                                                  #                                                         3 2  2 3  1 3  3 1  2 1  1 2
001360:
001361:                                                                                                  #  MPAC AND X THE VECTOR AT THE GIVEN ADDRESS.
001362:
001363:
001364:
001365:    7532           00006        VXV                EXTEND
001366:    7533           30152                           DCA      MPAC       +5                         #  FORM UP M3X1, LEAVING M1 IN VBUF.
001367:    7534           52145                           DXCH     MPAC
001368:    7535           52113                           DXCH     VBUF
001369:    7536           07152                           TC       DMPSUB                                #  BY X1.
001370:
001371:    7537           00006                           EXTEND
001372:    7540           40150                           DCS      MPAC       +3                         #  CALCULATE -X1M2, SAVING X1M3 IN VBUF +2.
001373:    7541           52145                           DXCH     MPAC
001374:    7542           52115                           DXCH     VBUF       +2
001375:    7543           07152                           TC       DMPSUB
001376:
001377:    7544           37754                           CAF      TWO                                   #  ADVANCE ADDRWD TO X2.
001378:    7545           26106                           ADS      ADDRWD
001379:    7546           00006                           EXTEND
001380:    7547           40152                           DCS      MPAC       +5                         #  PREPARE TO GET -X2M3, SAVING -X1M2 IN
001381:    7550           52145                           DXCH     MPAC                                  #  MPAC +5.
001382:    7551           52152                           DXCH     MPAC       +5
001383:    7552           07152                           TC       DMPSUB
001384:
001385:
001386:    7553           00006                           EXTEND
001387:    7554           30113                           DCA      VBUF                                  #  GET X2M1, SAVING -X2M3 IN VBUF +4.
001388:    7555           52145                           DXCH     MPAC
001389:    7556           52117                           DXCH     VBUF       +4
001390:    7557           07152                           TC       DMPSUB
001391:
001392:    7560           37754                           CAF      TWO                                   #  ADVANCE ADDRWD TO X3.
001393:    7561           26106                           ADS      ADDRWD
001394:    7562           00006                           EXTEND
001395:
001396:    7563           40113                           DCS      VBUF                                  #  GET -X3M1, ADDING X2M1 TO MPAC +5 TO
001397:    7564           52145                           DXCH     MPAC                                  #  COMPLETE THE Z COMPONENT OF THE ANSWER.
001398:    7565           20152                           DAS      MPAC       +5
001399:
001400:    7566           00006                           EXTEND
001401:    7567           17571                           BZF      +2
001402:    7570           07072                           TC       OVERFLOW


001404:    7571           07152                           TC       DMPSUB
001405:    7572           52115                           DXCH     VBUF       +2                         #  MOVE X1M3 TO MPAC +3 SETTING UP FOR X3M2
001406:    7573           52150                           DXCH     MPAC       +3                         #  AND ADD -X3M1 TO MPAC +3 TO COMPLETE THE
001407:    7574           52145                           DXCH     MPAC                                  #  Y COMPONENT OF THE RESULT.
001408:    7575           20150                           DAS      MPAC       +3
001409:
001410:    7576           00006                           EXTEND
001411:    7577           17601                           BZF      +2
001412:
001413:    7600           07072                           TC       OVERFLOW
001414:
001415:    7601           07152                           TC       DMPSUB
001416:    7602           52117                           DXCH     VBUF       +4                         #  GO ADD -X2M3 TO X3M2 TO COMPLETE THE X
001417:    7603           17037                           TCF      ENDVXV                                #  COMPONENT (TAIL END OF DAD).
001418:
001419:                                                                                                  #           THE MPACVBUF SUBROUTINE SAVES THE VECTOR IN MPAC IN VBUF WITHOUT CLOBBERING MPAC.
001420:
001421:    7604           00006        MPACVBUF           EXTEND                                         #  CALLED BY MXV, VXM, AND UNIT.
001422:    7605           30145                           DCA      MPAC
001423:
001424:    7606           52113                           DXCH     VBUF
001425:    7607           00006                           EXTEND
001426:    7610           30150                           DCA      MPAC       +3
001427:    7611           52115                           DXCH     VBUF       +2
001428:    7612           00006                           EXTEND
001429:    7613           30152                           DCA      MPAC       +5
001430:    7614           52117                           DXCH     VBUF       +4
001431:    7615           00002                           TC       Q                                     #  RETURN TO CALLER.
001432:


001434:                                                                                                  #           INTERPRETIVE INSTRUCTIONS WHOSE EXECUTION CONSISTS OF PRINCIPALLY CALLING SUBROUTINES.
001435:
001436:    7616           07152        DMP1               TC       DMPSUB                                #  DMP INSTRUCTION.
001437:    7617           16115                           TCF      DANZIG
001438:
001439:    7620           07152        DMPR               TC       DMPSUB
001440:    7621           07202                           TC       ROUNDSUB   +1                         #  (C(A) = +0).
001441:    7622           16115                           TCF      DANZIG
001442:
001443:    7623           00006        DDV                EXTEND
001444:    7624           50106                           INDEX    ADDRWD                                #  MOVE DIVIDEND INTO BUF.
001445:    7625           30001                           DCA      0
001446:    7626           17633                           TCF      BDDV       +4
001447:
001448:
001449:    7627           00006        BDDV               EXTEND                                         #  MOVE DIVISOR INTO MPAC SAVING MPAC, THE
001450:    7630           50106                           INDEX    ADDRWD                                #  DIVIDEND, IN BUF.
001451:    7631           30001                           DCA      0
001452:    7632           52145                           DXCH     MPAC
001453:    7633           52121                 +4        DXCH     BUF
001454:    7634           37761                           CAF      ZERO                                  #  DIVIDE ROUTINES IN BANK 0.
001455:    7635           54004                           TS       FBANK
001456:    7636           12352                           TCF      DDV/BDDV
001457:
001458:    7637           30106        SETPD              CA       ADDRWD                                #  MUST SET TO WORK AREA, OR EBANK TROUBLE.
001459:
001460:    7640           54156                           TS       PUSHLOC
001461:    7641           16117                           TCF      NOIBNKSW                              #  NO FBANK SWITCH REQUIRED.
001462:
001463:    7642           37761        TSLC               CAF      ZERO                                  #  SHIFTING ROUTINES LOCATED IN BANK 00.
001464:    7643           54004                           TS       FBANK
001465:    7644           12172                           TCF      TSLC2
001466:
001467:    7645           36130        GSHIFT             CAF      LOW7                                  #  USED AS MASK AT GENSHIFT. THIS PROCESSES
001468:    7646           54004                           TS       FBANK                                 #  ANY SHIFT INSTRUCTION (EXCEPT TSLC) WITH
001469:    7647           12214                           TCF      GENSHIFT                              #  AN ADDRESS (ROUTINES IN BANK 0).
001470:


001472:                                                                                                  #           THE FOLLOWING IS THE PROLOGUE TO V/SC. IF THE PRESENT MODE IS VECTOR, IT SAVES THE SCALAR AT X IN BUF
001473:                                                                                                  #  AND CALLS THE V/SC ROUTINE IN BANK 0. IF THE PRESENT MODE IS SCALAR, IT MOVES THE VECTOR AT X INTO MPAC, SAVING
001474:                                                                                                  #  THE SCALAR IN MPAC IN BUF BEFORE CALLING THE V/SC ROUTINE IN BANK 0.
001475:
001476:
001477:
001478:    7650           10153        V/SC               CCS      MODE
001479:    7651           17662                           TCF      DV/SC                                 #  MOVE VECTOR INTO MPAC.
001480:    7652           17662                           TCF      DV/SC
001481:
001482:    7653           00006        VV/SC              EXTEND
001483:    7654           50106                           INDEX    ADDRWD
001484:    7655           30001                           DCA      0
001485:    7656           52121        V/SC1              DXCH     BUF                                   #  IN BOTH CASES, VECTOR IS NOW IN MPAC AND
001486:    7657           37761                           CAF      ZERO                                  #  SCALAR IN BUF.
001487:    7660           54004                           TS       FBANK
001488:    7661           12616                           TCF      V/SC2
001489:
001490:    7662           00006        DV/SC              EXTEND
001491:
001492:    7663           50106                           INDEX    ADDRWD
001493:    7664           30003                           DCA      2
001494:    7665           52150                           DXCH     MPAC       +3
001495:    7666           00006                           EXTEND
001496:    7667           50106                           INDEX    ADDRWD
001497:    7670           30005                           DCA      4
001498:    7671           52152                           DXCH     MPAC       +5
001499:
001500:    7672           47755                           CS       ONE                                   #  CHANGE MODE TO VECTOR.
001501:    7673           54153                           TS       MODE
001502:
001503:    7674           00006                           EXTEND
001504:    7675           50106                           INDEX    ADDRWD
001505:    7676           30001                           DCA      0
001506:    7677           52145                           DXCH     MPAC
001507:    7700           17656                           TCF      V/SC1                                 #  FINISH PROLOGUE AT COMMON SECTION.
001508:


001510:                                                                                                  #           SIGN AND COMPLEMENT INSTRUCTIONS.
001511:
001512:
001513:    7701           50106        SIGN               INDEX    ADDRWD                                #  CALL COMP INSTRUCTION IF WORD AT X IS
001514:    7702           10000                           CCS      0                                     #  NEGATIVE NON-ZERO.
001515:    7703           16115                           TCF      DANZIG
001516:    7704           17706                           TCF      +2
001517:    7705           17714                           TCF      COMP                                  #  DO THE COMPLEMENT.
001518:
001519:    7706           50106                           INDEX    ADDRWD
001520:    7707           10001                           CCS      1
001521:    7710           16115                           TCF      DANZIG
001522:    7711           16115                           TCF      DANZIG
001523:
001524:    7712           17714                           TCF      COMP
001525:    7713           16115                           TCF      DANZIG
001526:    7714           00006        COMP               EXTEND                                         #  COMPLEMENT DP MPAC IN EVERY CASE.
001527:    7715           40145                           DCS      MPAC
001528:    7716           52145                           DXCH     MPAC
001529:
001530:    7717           10153                           CCS      MODE                                  #  EITHER COMPLEMENT MPAC +3 OR THE REST OF
001531:    7720           17731                           TCF      DCOMP                                 #  THE VECTOR ACCUMULATOR.
001532:    7721           17731                           TCF      DCOMP
001533:
001534:    7722           00006                           EXTEND                                         #  VECTOR COMPLEMENT.
001535:    7723           40150                           DCS      MPAC       +3
001536:
001537:    7724           52150                           DXCH     MPAC       +3
001538:    7725           00006                           EXTEND
001539:    7726           40152                           DCS      MPAC       +5
001540:    7727           52152                           DXCH     MPAC       +5
001541:    7730           16115                           TCF      DANZIG
001542:
001543:    7731           40146        DCOMP              CS       MPAC       +2
001544:    7732           54146                           TS       MPAC       +2
001545:    7733           16115                           TCF      DANZIG
001546:


001548:                                                                                                  #           CONSTANTS REQUIRED IN FIXED-FIXED.
001549:    7734           37777        DPOSMAX            OCT      37777
001550:    7735           37777        POSMAX             OCT      37777
001551:    7736     7736               LIMITS             EQUALS   POSMAX     +1
001552:    7736           57777        NEG1/2             OCT      -20000                                #  MUST BE TWO LOCATIONS AHEAD OF POS1/2.
001553:
001554:    7737           40000        BIT15              OCT      40000                                 #  BIT TABLE FOLLOWS.
001555:
001556:    7740           20000        BIT14              OCT      20000
001557:    7741           10000        BIT13              OCT      10000
001558:    7742           04000        BIT12              OCT      04000
001559:    7743           02000        BIT11              OCT      02000
001560:    7744           01000        BIT10              OCT      01000
001561:    7745           00400        BIT9               OCT      00400
001562:    7746           00200        BIT8               OCT      00200
001563:    7747           00100        BIT7               OCT      00100
001564:    7750           00040        BIT6               OCT      00040
001565:    7751           00020        BIT5               OCT      00020
001566:
001567:    7752           00010        BIT4               OCT      00010
001568:    7753           00004        BIT3               OCT      00004
001569:    7754           00002        BIT2               OCT      00002
001570:    7755           00001        BIT1               OCT      00001
001571:
001572:    7756     7737               NEGMAX             EQUALS   BIT15
001573:    7756     7740               HALF               EQUALS   BIT14
001574:    7756     7740               POS1/2             EQUALS   HALF
001575:    7756     7741               QUARTER            EQUALS   BIT13
001576:    7756     7743               2K                 EQUALS   BIT11
001577:    7756           00013        ELEVEN             DEC      11         B-14
001578:    7757     7756               NOUTCON            =        ELEVEN
001579:
001580:    7757     4557               TEN                =        BINCON
001581:    7757     4517               NINE               =        R2D1
001582:    7757     7752               EIGHT              EQUALS   BIT4
001583:    7757           00007        SEVEN              OCT      7
001584:    7760     6276               SIX                EQUALS   REVCNT
001585:    7760           00005        FIVE               OCT      5
001586:    7761     7753               FOUR               EQUALS   BIT3
001587:    7761     6301               THREE              EQUALS   OCTAL3
001588:    7761     7754               TWO                EQUALS   BIT2
001589:    7761     7755               ONE                EQUALS   BIT1
001590:
001591:    7761           00000        ZERO               OCT      0
001592:    7762           77777        NEG0               OCT      77777
001593:    7763           77776        NEGONE             DEC      -1         B-14
001594:
001595:    7764     7763               NEG1               =        NEGONE
001596:    7764     7763               MINUS1             EQUALS   NEG1
001597:
001598:    5355                                           BLOCK    02
001599:
001600:    5355           77775        NEG2               OCT      77775


001602:    5356           01777        LOW10              OCT      1777
001603:
001604:    5357           77774        NEG3               DEC      -3         B-14
001605:    5360           00777        LOW9               OCT      777
001606:    5361           00017        LOW4               OCT      17
001607:    5362     7757               LOW3               EQUALS   SEVEN
001608:    5362     6301               LOW2               EQUALS   THREE
001609:
001610:    5362           00032        CALLCODE           OCT      00032
001611:    5363           40014        DLOADCOD           OCT      40014
001612:    5364     7737               VLOADCOD           EQUALS   BIT15
001613:    5364           40015        DLOAD*             OCT      40015
001614:    5365     6143               VLOAD*             EQUALS   OCT40001
001615:    5365           00112        LVBUF              ADRES    VBUF
001616:
001617:    5366     5226               BIT13-14           =        PRIO30
001618:                                                                                                  #  THERE ARE FOUR POSSIBLE SETTINGS FOR CHANNEL 07 (WNACTV) FOR ACCESSING THE EVENTUALLY THREE AND ONE-HALF
001619:                                                                                                  #  PRESENTLY ONE AND ONE-HALF SUPERBANKS.
001620:
001621:    5366           00060        SUPER011           OCT      60                                    #  BITS FOR SUPERBNK SETTING 011
001622:    5367     7747               SUPER100           EQUALS   BIT7                                  #  BITS FOR SUPERBNK SETTING 100
001623:                                                                                                  #                                                                  (LAST 4K OF ROPE)
001624:                                                                                                  #  SUPER101        OCT             120                             BITS FOR SUPERBNK SETTING 101
001625:                                                                                                  #                                                                  (FIRST 8K OF ACM)
001626:                                                                                                  #  SUPER110        OCT             140                             BITS FOR SUPERBNK SETTING 110
001627:
001628:                                                                                                  #                                                                  (LAST 8K OF ACM)
001629:    5367           74000        HIGH4              OCT      74000
001630:    5370           01400        OCT1400            OCT      01400
001631:    5371           00055        DEC45              DEC      45         B-14
001632:


001634:                                                                                                  #           THE FOLLOWING SHORT SHIFT CODES REQUIRE NO ADDRESS WORD:
001635:
001636:                                                                                                  #           1.  SR1 TO SR4         SCALAR SHIFT RIGHT.
001637:                                                                                                  #           2.  SR1R TO SR4R       SCALAR SHIFT RIGHT AND ROUND.
001638:                                                                                                  #           3.  SL1 TO SL4         SCALAR SHIFT LEFT.
001639:                                                                                                  #           4.  SL1R TO SL4R       SCALAR SHIFT LEFT AND ROUND.
001640:
001641:                                                                                                  #           5.  VSR1 TO VSR8       VECTOR SHIFT RIGHT (ALWAYS ROUNDS).
001642:                                                                                                  #           6.  VSL1 TO VSL8       VECTOR SHIFT LEFT (NEVER ROUNDS).
001643:
001644:                                                                                                  #           THE FOLLOWING CODES REQUIRE AN ADDRESS WHICH MAY BE INDEXED:*
001645:
001646:                                                                                                  #           1.  SR                 SCALAR SHIFT RIGHT.
001647:                                                                                                  #           2.  SRR                SCALAR SHIFT RIGHT AND ROUND.
001648:                                                                                                  #           3.  SL                 SCALAR SHIFT LEFT.
001649:                                                                                                  #           4.  SLR                SCALAR SHIFT LEFT AND ROUND.
001650:
001651:                                                                                                  #           5.  VSR                VECTOR SHIFT RIGHT.
001652:                                                                                                  #           6.  VSL                VECTOR SHIFT LEFT.
001653:
001654:
001655:                                                                                                  #  *  IF THE ADDRESS IS INDEXED, AND THE INDEX MODIFICATION RESULTS IN A NEGATIVE SHIFT COUNT, A SHIFT OF THE
001656:                                                                                                  #  ABSOLUTE VALUE OF THE COUNT IS DONE IN THE OPPOSITE DIRECTION.
001657:
001658:
001659:
001660: 00,2017                                           BANK     00
001661:
001662: 00,2017           36276        SHORTT             CAF      SIX                                   #  SCALAR SHORT SHIFTS COME HERE. THE SHIFT
001663: 00,2020           70020                           MASK     CYR                                   #  COUNT-1 IS NOW IN BITS 2-3 OF CYR. THE
001664:
001665: 00,2021           54021                           TS       SR                                    #  ROUNDING BIT IS IN BIT1 AT THIS POINT.
001666:
001667: 00,2022           10020                           CCS      CYR                                   #  SEE IF RIGHT OR LEFT SHIFT DESIRED.
001668: 00,2023           12101                           TCF      TSSL                                  #  SHIFT LEFT.
001669:
001670: 00,2024           00024        SRDDV              DEC      20         B-14                       #  MPTEMP SETTING FOR SR BEFORE DDV.
001671:
001672: 00,2025           50021        TSSR               INDEX    SR                                    #  GET SHIFTING BIT.
001673: 00,2026           37740                           CAF      BIT14
001674: 00,2027           54125                           TS       MPTEMP
001675:
001676: 00,2030           10020                           CCS      CYR                                   #  SEE IF A ROUND IS DESIRED.
001677:
001678: 00,2031           02050        RIGHTR             TC       MPACSRND                              #  YES - SHIFT RIGHT AND ROUND.
001679: 00,2032           16114                           TCF      NEWMODE                               #  SET MODE TO DP (C(A) = 0).
001680: 00,2033           30125        MPACSHR            CA       MPTEMP                                #  DO A TRIPLE PRECISION SHIFT RIGHT.
001681: 00,2034           00006                           EXTEND
001682: 00,2035           70146                           MP       MPAC       +2
001683: 00,2036           54146                 +3        TS       MPAC       +2                         #  (EXIT FROM SQRT AND ABVAL).
001684: 00,2037           30125                           CA       MPTEMP
001685: 00,2040           00006                           EXTEND
001686: 00,2041           70144                           MP       MPAC                                  #  SHIFT MAJOR PART INTO A,L AND PLACE IN


001688: 00,2042           52145                           DXCH     MPAC                                  #  MPAC,+1.
001689: 00,2043           30125                           CA       MPTEMP
001690:
001691: 00,2044           00006                           EXTEND
001692: 00,2045           70001                           MP       L                                     #  ORIGINAL C(MPAC +1).
001693: 00,2046           20146                           DAS      MPAC       +1                         #  GUARANTEED NO OVERFLOW.
001694: 00,2047           16115                           TCF      DANZIG
001695:
001696:                                                                                                  #           MPAC SHIFT RIGHT AND ROUND SUBROUTINES.
001697:
001698: 00,2050           30146        MPACSRND           CA       MPAC       +2                         #  WE HAVE TO DO ALL THREE MULTIPLIES SINCE
001699: 00,2051           00006                           EXTEND                                         #  MPAC +1 AND MPAC +2 MIGHT HAVE SIGN
001700: 00,2052           70125                           MP       MPTEMP                                #  DISAGREEMENT WITH A SHIFT RIGHT OF 1.
001701:
001702: 00,2053           56145                           XCH      MPAC       +1
001703: 00,2054           00006                           EXTEND
001704: 00,2055           70125                           MP       MPTEMP
001705: 00,2056           56145                           XCH      MPAC       +1                         #  TRIAL MINOR PART.
001706: 00,2057           60001                           AD       L
001707:
001708: 00,2060           60000        VSHR2              DOUBLE                                         #  (FINISH VECTOR COMPONENT SHIFT RIGHT
001709: 00,2061           54146                           TS       MPAC       +2                         #  AND ROUND.
001710: 00,2062           12064                           TCF      +2
001711: 00,2063           26145                           ADS      MPAC       +1                         #  GUARANTEED NO OVERFLOW.
001712:
001713: 00,2064           37761                           CAF      ZERO
001714:
001715: 00,2065           54146                           TS       MPAC       +2
001716: 00,2066           56144                           XCH      MPAC                                  #  SETTING TO ZERO SO FOLLOWING DAS WORKS.
001717: 00,2067           00006                           EXTEND
001718: 00,2070           70125                           MP       MPTEMP
001719: 00,2071           20145                           DAS      MPAC                                  #  AGAIN NO OVERFLOW.
001720: 00,2072           00002                           TC       Q
001721:
001722: 00,2073           30125        VSHRRND            CA       MPTEMP                                #  ENTRY TO SHIFT RIGHT AND ROUND MPAC WHEN
001723: 00,2074           00006                           EXTEND                                         #  MPAC CONTAINS A VECTOR COMPONENT.
001724: 00,2075           70145                           MP       MPAC       +1
001725:
001726: 00,2076           54145                           TS       MPAC       +1
001727: 00,2077           56001                           XCH      L
001728: 00,2100           12060                           TCF      VSHR2                                 #  GO ADD ONE IF NECESSARY AND FINISH.
001729:


001731:                                                                                                  #           ROUTINE FOR SHORT SCALAR SHIFT LEFT (AND MAYBE ROUND).
001732:
001733: 00,2101           30021        TSSL               CA       SR                                    #  GET SHIFT COUNT FOR SR.
001734: 00,2102           54125                 +1        TS       MPTEMP
001735:
001736: 00,2103           00006                 +2        EXTEND                                         #  ENTRY HERE FROM SL FOR SCALARS.
001737: 00,2104           30146                           DCA      MPAC       +1                         #  SHIFTING LEFT ONE PLACE AT A TIME IS
001738: 00,2105           20146                           DAS      MPAC       +1                         #  FASTER THAN DOING THE WHOLE SHIFT WITH
001739:
001740: 00,2106           60144                           AD       MPAC                                  #  MULTIPLIES ASSUMING THAT FREQUENCY OF
001741: 00,2107           60144                           AD       MPAC                                  #  SHIFT COUNTS GOES DOWN RAPIDLY AS A
001742: 00,2110           54144                           TS       MPAC                                  #  FUNCTION OF THEIR MAGNITUDE.
001743: 00,2111           12113                           TCF      +2
001744: 00,2112           54111                           TS       OVFIND                                #  OVERFLOW. (LEAVES OVERFLOW-CORRECTED
001745:                                                                                                  #  RESULT ANYWAY).
001746: 00,2113           10125                           CCS      MPTEMP                                #  LOOP ON DECREMENTED SHIFT COUNT.
001747: 00,2114           12102                           TCF      TSSL       +1
001748:
001749: 00,2115           10020                           CCS      CYR                                   #  SEE IF ROUND WANTED.
001750:
001751: 00,2116           07201        ROUND              TC       ROUNDSUB                              #  YES - ROUND AND EXIT.
001752: 00,2117           16115                           TCF      DANZIG                                #  SL LEAVES A ZERO IN CYR FOR NO ROUND.
001753: 00,2120           16115                           TCF      DANZIG                                #  NO - EXIT IMMEDIATL
001754:


001756:                                                                                                  #  VECTOR SHIFTING ROUTINES.
001757:
001758: 00,2121           37757        SHORTV             CAF      LOW3                                  #  SAVE 3 BIT SHIFT COUNT - 1 WITHOUT
001759: 00,2122           70020                           MASK     CYR                                   #  EDITING CYR.
001760: 00,2123           54125                           TS       MPTEMP
001761: 00,2124           10020                           CCS      CYR                                   #  SEE IF LEFT OR RIGHT SHIFT.
001762: 00,2125           12145                           TCF      VSSL                                  #  VECTOR SHIFT LEFT.
001763: 00,2126           00176        OCT176             OCT      176                                   #  USED IN PROCESSED SHIFTS WITH - COUNT.
001764:
001765: 00,2127           50125        VSSR               INDEX    MPTEMP                                #  (ENTRY FROM SR). PICK UP SHIFTING BIT.
001766: 00,2130           37740                           CAF      BIT14                                 #  MPTEMP CONTAINS THE SHIFT COUNT - 1.
001767: 00,2131           54125                           TS       MPTEMP
001768: 00,2132           02073                           TC       VSHRRND                               #  SHIFT X COMPONENT.
001769:
001770:
001771: 00,2133           52145                           DXCH     MPAC                                  #  SWAP X AND Y COMPONENTS.
001772: 00,2134           52150                           DXCH     MPAC       +3
001773: 00,2135           52145                           DXCH     MPAC
001774: 00,2136           02073                           TC       VSHRRND                               #  SHIFT Y COMPONENT.
001775:
001776: 00,2137           52145                           DXCH     MPAC                                  #  SWAP Y AND Z COMPONENTS.
001777: 00,2140           52152                           DXCH     MPAC       +5
001778: 00,2141           52145                           DXCH     MPAC
001779: 00,2142           02073                           TC       VSHRRND                               #  SHIFT Z COMPONENT.
001780:
001781: 00,2143           17471                           TCF      VROTATEX                              #  RESTORE COMPONENTS TO PROPER PLACES.
001782:


001784:                                                                                                  #  VECTOR SHIFT LEFT - DONE ONE PLACE AT A TIME.
001785:
001786: 00,2144           54125                 -1        TS       MPTEMP                                #  SHIFTING LOOP.
001787:
001788: 00,2145           00006        VSSL               EXTEND
001789: 00,2146           30145                           DCA      MPAC
001790:
001791: 00,2147           20145                           DAS      MPAC
001792: 00,2150           00006                           EXTEND
001793: 00,2151           12153                           BZF      +2
001794: 00,2152           07072                           TC       OVERFLOW
001795:
001796: 00,2153           00006                           EXTEND
001797: 00,2154           30150                           DCA      MPAC       +3
001798: 00,2155           20150                           DAS      MPAC       +3
001799: 00,2156           00006                           EXTEND
001800: 00,2157           12161                           BZF      +2
001801: 00,2160           07072                           TC       OVERFLOW
001802:
001803:
001804: 00,2161           00006                           EXTEND
001805: 00,2162           30152                           DCA      MPAC       +5
001806: 00,2163           20152                           DAS      MPAC       +5
001807: 00,2164           00006                           EXTEND
001808: 00,2165           12167                           BZF      +2
001809: 00,2166           07072                           TC       OVERFLOW
001810:
001811: 00,2167           10125                           CCS      MPTEMP                                #  LOOP ON DECREMENTED SHIFT COUNTER.
001812: 00,2170           12144                           TCF      VSSL       -1
001813: 00,2171           16115                           TCF      DANZIG                                #  EXIT.
001814:


001816:                                                                                                  #           TSLC - TRIPLE SHIFT LEFT AND COUNT. SHIFTS MPAC LEFT UNTIL GREATER THAN .5 IN MAGNITUDE, LEAVING
001817:                                                                                                  #  THE COMPLEMENT OF THE NUMBER OF SHIFTS REQUIRED IN X.
001818:
001819:
001820: 00,2172           54125        TSLC2              TS       MPTEMP                                #  START BY ZEROING SHIFT COUNT (IN A NOW).
001821: 00,2173           06772                           TC       BRANCH                                #  EXIT WITH NO SHIFTING IF ARGUMENT ZERO.
001822: 00,2174           12176                           TCF      +2
001823: 00,2175           12212                           TCF      ENDTSLC                               #  STORES ZERO SHIFT COUNT IN THIS CASE.
001824:
001825: 00,2176           07320                           TC       TPAGREE                               #  MAY CAUSE UPSHIFT OF ONE EXTRA PLACE.
001826:
001827: 00,2177           30144                           CA       MPAC                                  #  BEGIN NORMALIZATION LOOP.
001828: 00,2200           12207                           TCF      TSLCTEST
001829:
001830: 00,2201           24125        TSLCLOOP           INCR     MPTEMP                                #  INCREMENT SHIFT COUNTER.
001831: 00,2202           00006                           EXTEND
001832: 00,2203           30146                           DCA      MPAC       +1
001833: 00,2204           20146                           DAS      MPAC       +1
001834: 00,2205           60144                           AD       MPAC
001835: 00,2206           26144                           ADS      MPAC
001836: 00,2207           60000        TSLCTEST           DOUBLE                                         #  SEE IF (ANOTHER) SHIFT IS REQUIRED.
001837: 00,2210           54000                           OVSK
001838: 00,2211           12201                           TCF      TSLCLOOP                              #  YES - INCREMENT COUNT AND SHIFT AGAIN.
001839:
001840: 00,2212           40125        ENDTSLC            CS       MPTEMP
001841: 00,2213           16672                           TCF      STORE1                                #  STORE SHIFT COUNT AND RETURN TO DANZIG.
001842:


001844:                                                                                                  #           THE FOLLOWING ROUTINES PROCESSES THE GENERAL SHIFT INSTRUCTIONS SR, SRR, SL, AND SLR.
001845:                                                                                                  #  THE GIVEN ADDRESS IS DECODED AS FOLLOWS:
001846:
001847:                                                                                                  #           BITS 1-7    SHIFT COUNT (SUBADDRESS) LESS THAN 125 DECIMAL.
001848:                                                                                                  #           BIT 8       PSEUDO SIGN BIT (DETECTS CHANGE IN SIGN IN INDEXED SHIFTS).
001849:                                                                                                  #           BIT 9       0 FOR LEFT SHIFT, AND 1 FOR RIGHT SHIFT.
001850:                                                                                                  #           BIT 10      1 FOR TERMINAL ROUND ON SCALAR SHIFTS, 0 OTHERWISE.
001851:                                                                                                  #           BITS 11-13  0.
001852:
001853:                                                                                                  #           BIT 14      1.
001854:                                                                                                  #           BIT 15      0.
001855:
001856:                                                                                                  #  THE ABOVE ENCODING IS DONE BY THE YUL SYSTEM.
001857:
001858:
001859:
001860: 00,2214           70106        GENSHIFT           MASK     ADDRWD                                #  GET SHIFT COUNT, TESTING FOR ZERO.
001861: 00,2215           10000                           CCS      A                                     #  (ARRIVES WITH C(A) = LOW7).
001862: 00,2216           12224                           TCF      GENSHFT2                              #  IF NON-ZERO, PROCEED WITH DECREMENTED CT
001863:
001864: 00,2217           37744                           CAF      BIT10                                 #  ZERO SHIFT COUNT. NO SHIFTS NEEDED BUT
001865: 00,2220           70106                           MASK     ADDRWD                                #  WE MIGHT HAVE TO ROUND MPAC ON SLR AND
001866: 00,2221           10000                           CCS      A                                     #  SRR (SCALAR ONLY).
001867: 00,2222           07201                           TC       ROUNDSUB
001868: 00,2223           16115                           TCF      DANZIG
001869:
001870: 00,2224           54125        GENSHFT2           TS       MPTEMP                                #  DECREMENTED SHIFT COUNT TO MPTEMP.
001871: 00,2225           37746                           CAF      BIT8                                  #  TEST MEANING OF LOW SEVEN BIT COUNT IN
001872: 00,2226           00006                           EXTEND                                         #  MPTEMP NOW.
001873: 00,2227           70106                           MP       ADDRWD
001874: 00,2230           76301                           MASK     LOW2                                  #  JUMPS ON SHIFT DIRECTION (BIT8) AND
001875: 00,2231           50000                           INDEX    A
001876:
001877: 00,2232           12233                           TCF      +1                                    #  ORIGINAL SHIFT DIRECTION (BIT 9).
001878: 00,2233           12332                           TCF      RIGHT-                                #  NEGATIVE SHIFT COUNT FOR SL OR SLR.
001879: 00,2234           12341                           TCF      LEFT                                  #  SL OR SLR.
001880: 00,2235           12336                           TCF      LEFT-                                 #  NEGATIVE SHIFT COUNT WITH SR OR SRR.
001881:


001883:                                                                                                  #           GENERAL SHIFT RIGHT.
001884:
001885: 00,2236           10153        RIGHT              CCS      MODE                                  #  SEE IF VECTOR OR SCALAR.
001886: 00,2237           12277                           TCF      GENSCR
001887: 00,2240           12277                           TCF      GENSCR
001888:
001889: 00,2241           30125                           CA       MPTEMP                                #  SEE IF SHIFT COUNT LESS THAN 14D.
001890: 00,2242           63676        VRIGHT2            AD       NEG12
001891: 00,2243           00006                           EXTEND
001892: 00,2244           62127                           BZMF     VSSR                                  #  IF SO, BRANCH AND SHIFT IMMEDIATELY.
001893:
001894: 00,2245           67763                           AD       NEGONE                                #  IF NOT, REDUCE MPTEMP BY A TOTAL OF 14,
001895: 00,2246           54125                           TS       MPTEMP                                #  AND DO A SHIFT RIGHT AND ROUND BY 14.
001896: 00,2247           37761                           CAF      ZERO                                  #  THE ROUND AT THIS STAGE MAY INTRODUCE A
001897:
001898: 00,2250           54001                           TS       L                                     #  ONE BIT ERROR IN A SHIFT RIGHT 15D.
001899: 00,2251           56144                           XCH      MPAC
001900: 00,2252           56145                           XCH      MPAC       +1
001901: 00,2253           02272                           TC       SETROUND                              #  X COMPONENT NOW SHIFTED, SO MAKE UP THE
001902: 00,2254           20145                           DAS      MPAC                                  #  ROUNDING QUANTITY (0 IN A AND 0 OR +-1
001903:                                                                                                  #  IN L).
001904: 00,2255           56147                           XCH      MPAC       +3                         #  REPEAT THE ABOVE PROCESS FOR Y AND Z.
001905: 00,2256           56150                           XCH      MPAC       +4
001906: 00,2257           02272                           TC       SETROUND
001907: 00,2260           20150                           DAS      MPAC       +3                         #  NO OVERFLOW ON THESE ADDS.
001908:
001909:
001910: 00,2261           56151                           XCH      MPAC       +5
001911: 00,2262           56152                           XCH      MPAC       +6
001912: 00,2263           02272                           TC       SETROUND
001913: 00,2264           20152                           DAS      MPAC       +5
001914:
001915: 00,2265           10125                           CCS      MPTEMP                                #  SEE IF DONE, DOING FINAL DECREMENT.
001916: 00,2266           54125                           TS       MPTEMP
001917: 00,2267           12242                           TCF      VRIGHT2
001918: 00,2270           04604        BIASLO             DEC      .2974      B-1                        #  SQRT CONSTANT
001919:
001920: 00,2271           16115                           TCF      DANZIG
001921:
001922:
001923:
001924: 00,2272           60000        SETROUND           DOUBLE                                         #  MAKES UP ROUNDING QUANTITY FROM ARRIVING
001925: 00,2273           54146                           TS       MPAC       +2                         #  C(A). L IS ZERO INITIALLY.
001926: 00,2274           37761                           CAF      ZERO
001927: 00,2275           56001                           XCH      L
001928: 00,2276           00002                           TC       Q                                     #  RETURN AND DO THE DAS, RESETTING L TO 0.
001929:


001931:                                                                                                  #           PROCESS SR AND SRR FOR SCALARS.
001932:
001933: 00,2277           30125        GENSCR             CA       MPTEMP                                #  SEE IF THE ORIGINAL SHIFT COUNT WAS LESS
001934: 00,2300           63676                 +1        AD       NEG12                                 #  THAN 14D.
001935: 00,2301           00006                           EXTEND
001936: 00,2302           62322                           BZMF     DOSSHFT                               #  DO THE SHIFT IMMEDIATELY IF SO.
001937:
001938: 00,2303           67763                 +4        AD       NEGONE                                #  IF NOT, DECREMENT SHIFT COUNT BY 14D AND
001939: 00,2304           54125                           TS       MPTEMP                                #  SHIFT MPAC RIGHT 14 PLACES.
001940: 00,2305           37761                           CAF      ZERO
001941: 00,2306           56144                           XCH      MPAC
001942: 00,2307           56145                           XCH      MPAC       +1
001943: 00,2310           54146                           TS       MPAC       +2
001944: 00,2311           10125                           CCS      MPTEMP                                #  SEE IF FINISHED, DO FINAL DECREMENT.
001945: 00,2312           54125                           TS       MPTEMP
001946: 00,2313           02300                           TC       GENSCR     +1
001947: 00,2314           22650        SLOPEHI            DEC      .5884                                 #  SQRT CONSTANT.
001948: 00,2315           37744                           CAF      BIT10                                 #  FINISHED WITH SHIFT. SEE IF ROUND
001949: 00,2316           70106                           MASK     ADDRWD                                #  WANTED.
001950:
001951: 00,2317           10000                           CCS      A
001952: 00,2320           07201                           TC       ROUNDSUB
001953: 00,2321           16115                           TCF      DANZIG                                #  DO SO AND/OR EXIT.
001954:
001955: 00,2322           50125        DOSSHFT            INDEX    MPTEMP                                #  PICK UP SHIFTING BIT.
001956: 00,2323           37740                           CAF      BIT14
001957: 00,2324           54125                           TS       MPTEMP
001958: 00,2325           37744                           CAF      BIT10                                 #  SEE IF TERMINAL ROUND DESIRED.
001959: 00,2326           70106                           MASK     ADDRWD
001960: 00,2327           10000                           CCS      A
001961:
001962: 00,2330           12031                           TCF      RIGHTR                                #  YES.
001963: 00,2331           12033                           TCF      MPACSHR                               #  JUST SHIFT RIGHT.
001964:


001966:                                                                                                  #           PROCESS THE RIGHT- (SL(R) WITH A NEGATIVE COUNT), LEFT-, AND LEFT OPTIONS.
001967:
001968:
001969: 00,2332           40125        RIGHT-             CS       MPTEMP                                #  GET ABSOLUTE VALUE - 1 OF SHIFT COUNT
001970: 00,2333           62126                           AD       OCT176                                #  UNDERSTANDING THAT BIT8 (PSEUDO-SIGN)
001971: 00,2334           54125                           TS       MPTEMP                                #  WAS 1 INITIALLY.
001972: 00,2335           12236                           TCF      RIGHT                                 #  DO NORMAL SHIFT RIGHT.
001973:
001974: 00,2336           40125        LEFT-              CS       MPTEMP                                #  SAME PROLOGUE TO LEFT FOR INDEXED RIGHT
001975: 00,2337           62126                           AD       OCT176                                #  SHIFTS WHOSE NET SHIFT COUNT IS NEGATIVE
001976: 00,2340           54125                           TS       MPTEMP
001977:
001978: 00,2341           10153        LEFT               CCS      MODE                                  #  SINCE LEFT SHIFTING IS SONE ONE PLACE AT
001979:
001980: 00,2342           12345                           TCF      GENSCL                                #  A TIME, NO COMPARISON WITH 14 NEED BE
001981: 00,2343           12345                           TCF      GENSCL                                #  DONE. FOR SCALARS, SEE IF TERMINAL ROUND
001982: 00,2344           12145                           TCF      VSSL                                  #  DESIRED. FOR VECTORS, SHIFT IMMEDIATELY.
001983:
001984: 00,2345           37750        GENSCL             CAF      BIT6                                  #  PUT ROUNDING BIT (BIT10 OF ADDRWD) INTO
001985: 00,2346           00006                           EXTEND                                         #  BIT 15 OF CYR WHERE THE ROUNDING BIT OF
001986: 00,2347           70106                           MP       ADDRWD                                #  A SHORT SHIFT LEFT WOULD BE.
001987: 00,2350           54020                           TS       CYR
001988: 00,2351           12103                           TCF      TSSL       +2                         #  DO THE SHIFT.
001989:


001991:                                                                                                  #           SCALAR DIVISION INSTRUCTIONS, DDV AND BDDV, ARE EXECUTED HERE. AT THIS POINT, THE DIVIDEND IS IN MPAC
001992:                                                                                                  #  AND THE DIVISOR IN BUF.
001993:
001994: 00,2352           47755        DDV/BDDV           CS       ONE                                   #  INITIALIZATION.
001995: 00,2353           54126                           TS       DVSIGN                                #  +-1 FOR POSITIVE QUOTIENT - -0 FOR NEG.
001996: 00,2354           54127                           TS       DVNORMCT                              #  DIVIDEND NORMALIZATION COUNT.
001997: 00,2355           54130                           TS       MAXDVSW                               #  NEAR-ONE DIVIDE FLAG.
001998:
001999:
002000: 00,2356           10120                           CCS      BUF                                   #  FORCE BUF POSITIVE WITH THE MAJOR PART
002001: 00,2357           12406                           TCF      BUF+                                  #  NON-ZERO.
002002: 00,2360           12362                           TCF      +2
002003: 00,2361           12402                           TCF      BUF-
002004:
002005: 00,2362           56121                           XCH      BUF        +1                         #  SHIFT DIVIDEND AND DIVISOR LEFT 14.
002006: 00,2363           56120                           XCH      BUF
002007: 00,2364           56145                           XCH      MPAC       +1
002008: 00,2365           56144                           XCH      MPAC
002009: 00,2366           00006                           EXTEND                                         #  CHECK FOR OVERFLOW.
002010:
002011: 00,2367           12371                           BZF      +2
002012: 00,2370           12375                           TCF      DVOVF
002013:
002014: 00,2371           10120                           CCS      BUF                                   #  TRY AGAIN ON FORMER MINOR PART.
002015: 00,2372           12406                           TCF      BUF+
002016: 00,2373           12375                           TCF      DVOVF                                 #  OVERFLOW ON ZERO DIVISOR.
002017: 00,2374           12402                           TCF      BUF-
002018:
002019: 00,2375           37735        DVOVF              CAF      POSMAX                                #  ON DIVISION OVERFLOW OF ANY SORT, SET
002020: 00,2376           54144                           TS       MPAC                                  #  SET DP MPAC TO +-POSMAX.
002021: 00,2377           02572                           TC       FINALDV    +3
002022: 00,2400           37755                           CAF      ONE                                   #  SET OVERFLOW INDICATOR AND EXIT.
002023:
002024: 00,2401           17144                           TCF      SETOVF
002025:
002026: 00,2402           00006        BUF-               EXTEND                                         #  IF BUF IS NEGATIVE, COMPLEMENT IT AND
002027: 00,2403           40121                           DCS      BUF                                   #  MAINTAIN DVSIGN FOR FINAL QUOTIENT SIGN.
002028: 00,2404           52121                           DXCH     BUF
002029: 00,2405           24126                           INCR     DVSIGN                                #  NOW -0.
002030:
002031: 00,2406           10144        BUF+               CCS      MPAC                                  #  FORCE MPAC POSITIVE, CHECKING FOR ZERO
002032: 00,2407           12423                           TCF      MPAC+                                 #  DIVIDEND IN THE PROCESS.
002033: 00,2410           12412                           TCF      +2
002034:
002035: 00,2411           12417                           TCF      MPAC-
002036: 00,2412           10145                           CCS      MPAC       +1
002037: 00,2413           12423                           TCF      MPAC+
002038: 00,2414           16115                           TCF      DANZIG                                #  EXIT IMMEDIATELY ON ZERO DIVIDEND.
002039: 00,2415           12417                           TCF      MPAC-
002040: 00,2416           16115                           TCF      DANZIG
002041:
002042: 00,2417           00006        MPAC-              EXTEND                                         #  FORCE MPAC POSITIVE AS BUF IN BUF-.
002043: 00,2420           40145                           DCS      MPAC
002044: 00,2421           52145                           DXCH     MPAC


002046: 00,2422           24126                           INCR     DVSIGN                                #  NOW +1 OR -0.
002047:


002049: 00,2423           40144        MPAC+              CS       MPAC                                  #  CHECK FOR DIVISION OVERFLOW. IF THE
002050: 00,2424           67763                           AD       NEGONE                                #  MAJOR PART OF THE DIVIDEND IS LESS THAN
002051: 00,2425           60120                           AD       BUF                                   #  THE MAJOR PART OF THE DIVISOR BY AT
002052: 00,2426           10000                           CCS      A                                     #  LEAST TWO, WE CAN PROCEED IMMEDIATELY
002053: 00,2427           12471                           TCF      DVNORM                                #  WITHOUT NORMALIZATION PRODUCING A DVMAX.
002054: 00,2430           60001        -1/2+2             OCT      60001                                 #  USED IN SQRTSUB.
002055:
002056: 00,2431           12432                           TCF      +1                                    #  IF THE ABOVE DOES NOT HOLD, FORCE SIGN
002057: 00,2432           37740                           CAF      HALF                                  #  AGREEMENT IN NUMERATOR AND DENOMINATOR
002058: 00,2433           60000                           DOUBLE                                         #  TO FACILITATE OVERFLOW AND NEAR-ONE
002059: 00,2434           60145                           AD       MPAC       +1                         #  CHECKING.
002060: 00,2435           54145                           TS       MPAC       +1
002061: 00,2436           37761                           CAF      ZERO
002062: 00,2437           67735                           AD       POSMAX
002063: 00,2440           26144                           ADS      MPAC
002064:
002065: 00,2441           37740                           CAF      HALF                                  #  SAME FOR BUF.
002066: 00,2442           60000                           DOUBLE
002067: 00,2443           60121                           AD       BUF        +1
002068:
002069: 00,2444           54121                           TS       BUF        +1
002070: 00,2445           37761                           CAF      ZERO
002071: 00,2446           67735                           AD       POSMAX
002072: 00,2447           26120                           ADS      BUF
002073:
002074: 00,2450           40144                           CS       MPAC                                  #  CHECK MAGNITUDE OF SIGN-CORRECTED
002075: 00,2451           60120                           AD       BUF                                   #  OPERANDS.
002076: 00,2452           10000                           CCS      A
002077: 00,2453           12471                           TCF      DVNORM                                #  DIVIDE OK - WILL NOT BECOME MAXDV CASE.
002078: 00,2454           00123        LBUF2              ADRES    BUF2
002079:
002080: 00,2455           12375                           TCF      DVOVF                                 #  DIVISOR NOT LESS THAN DIVIDEND - OVF.
002081:
002082: 00,2456           54130                           TS       MAXDVSW                               #  IF THE MAJOR PARTS OF THE DIVIDEND AND
002083: 00,2457           40145                           CS       MPAC       +1                         #  DIVISOR ARE EQUAL, A SPECIAL APPROXIMA-
002084: 00,2460           60121                           AD       BUF        +1                         #  TION IS USED (PROVIDED THE DIVISION IS
002085: 00,2461           00006                           EXTEND                                         #  POSSIBLE, OF COURSE).
002086: 00,2462           62375                           BZMF     DVOVF
002087: 00,2463           12471                           TCF      DVNORM                                #  IF NO OVERFLOW.
002088:


002090: 00,2464           00006        BUFNORM            EXTEND                                         #  ADD -1 TO AUGMENT SHIFT COUNT AND SHIFT
002091: 00,2465           24127                           AUG      DVNORMCT                              #  LEFT ONE PLACE.
002092:
002093: 00,2466           00006                           EXTEND
002094: 00,2467           30121                           DCA      BUF
002095: 00,2470           20121                           DAS      BUF
002096:
002097: 00,2471           30120        DVNORM             CA       BUF                                   #  SEE IF DIVISOR NORMALIZED YET.
002098: 00,2472           60000                           DOUBLE
002099: 00,2473           54000                           OVSK
002100: 00,2474           12464                           TCF      BUFNORM                               #  NO - SHIFT LEFT ONE AND TRY AGAIN.
002101:
002102: 00,2475           52145                           DXCH     MPAC                                  #  CALL DIVIDEND NORMALIZATION SEQUENCE
002103:
002104: 00,2476           50127                           INDEX    DVNORMCT                              #  PRIOR TO DOING THE DIVIDE.
002105: 00,2477           02527                           TC       MAXTEST
002106:
002107: 00,2500           54146                           TS       MPAC       +2                         #  RETURNS WITH DIVISION DONE AND C(A) = 0.
002108: 00,2501           16115                           TCF      DANZIG
002109:


002111:                                                                                                  #           THE FOLLOWING ARE PROLOGUES TO SHIFT THE DIVIDEND ARRIVING IN A AND L BEFORE THE DIVIDE.
002112:
002113: 00,2502           22021                 -21D      LXCH     SR                                    #  SPECIAL PROLOGUE FOR UNIT WHEN THE
002114: 00,2503           00006                           EXTEND                                         #  LENGTH OF THE ARGUMENT WAS NOT LESS THAN
002115: 00,2504           77740                           MP       HALF                                  #  .5. IN THIS CASE, EACH COMPONENT MUST BE
002116: 00,2505           56001                           XCH      L                                     #  SHIFTED RIGHT ONE TO PRODUCE A HALF-UNIT
002117: 00,2506           60021                           AD       SR                                    #  VECTOR.
002118: 00,2507           56001                           XCH      L
002119:
002120: 00,2510           12533                           TCF      GENDDV     +1                         #  WITH DP DIVIDEND IN A,L.
002121:
002122: 00,2511           20001                           DDOUBL                                         #  PROLOGUE WHICH NORMALIZES THE DIVIDEND
002123: 00,2512           20001                           DDOUBL                                         #  WHEN IT IS KNOWN THAT NO DIVISION
002124: 00,2513           20001                           DDOUBL                                         #  OVERFLOW WILL OCCUR.
002125: 00,2514           20001                           DDOUBL
002126: 00,2515           20001                           DDOUBL
002127: 00,2516           20001                           DDOUBL
002128: 00,2517           20001                           DDOUBL
002129: 00,2520           20001                           DDOUBL
002130:
002131: 00,2521           20001                           DDOUBL
002132: 00,2522           20001                           DDOUBL
002133: 00,2523           20001                           DDOUBL
002134: 00,2524           20001                           DDOUBL
002135: 00,2525           20001                           DDOUBL
002136: 00,2526           52145                           DXCH     MPAC
002137:
002138: 00,2527           10130        MAXTEST            CCS      MAXDVSW                               #  0 IF MAJORS MIGHT BE =, -1 OTHERWISE.
002139: 00,2530           06552        BIASHI             DEC      .4192      B-1                        #  SQRT CONSTANTS
002140:
002141: 00,2531           12604                           TCF      MAXDV                                 #  CHECK TO SEE IF THEY ARE NOW EQUAL.
002142:


002144:                                                                                                  #           THE FOLLOWING IS A GENERAL PURPOSE DOUBLE PRECISION DIVISION ROUTINE. IT DIVIDES MPAC BY BUF AND LEAVES
002145:
002146:                                                                                                  #  THE RESULT IN MPAC. THE FOLLOWING CONDITIONS MUST BE SATISFIED:
002147:
002148:                                                                                                  #           1.  THE DIVISOR (BUF) MUST BE POSITIVE AND NOT LESS THAN .5.
002149:
002150:                                                                                                  #           2.  THE DIVIDEND (MPAC) MUST BE POSITIVE WITH THE MAJOR PART OF MPAC STRICTLY LESS THAN THAT OF BUF
002151:                                                                                                  #  (A SPECIAL APPROXIMATION, MAXDV, IS USED WHEN THE MAJOR PARTS ARE EQUAL).
002152:
002153:                                                                                                  #           UNDERSTANDING THAT A/B = Q + S(R/B) WHERE S = 2(-14) AND Q AND R ARE QUOTIENT AND REMAINDER, RESPEC-
002154:                                                                                                  #  TIVELY, THE FOLLOWING APPROXIMATION IS OBTAINED BY MULTIPLYING ABOVE AND BELOW BY C - SD AND NEGLECTING TERMS OF
002155:                                                                                                  #  ORDER S-SQUARED (POSSIBLY INTRODUCING ERROR INTO THE LOW TWO BITS OF THE RESULT). SIGN AGREEMENT IS UNNECESSARY.
002156:
002157:                                                                                                  #           A + SB .      (R - QD)                                             A + SB
002158:
002159:                                                                                                  #           ------ = Q + S(------) WHERE Q AND R ARE QUOTIENT AND REMAINDER OF ------ RESPECTIVELY.
002160:                                                                                                  #           C + SD        (  C   }                                                C
002161:
002162:
002163: 00,2532           52145        GENDDV             DXCH     MPAC                                  #  WE NEED A AND B ONLY FOR FIRST DV.
002164: 00,2533           00006                 +1        EXTEND                                         #  (SPECIAL UNIT PROLOGUE ENTERS HERE).
002165: 00,2534           10120                           DV       BUF                                   #  A NOW CONTAINS Q AND L, R.
002166: 00,2535           52145                           DXCH     MPAC
002167:
002168: 00,2536           40144                           CS       MPAC                                  #  FORM DIVIDEND FOR MINOR PART OF RESULT.
002169: 00,2537           00006                           EXTEND
002170: 00,2540           70121                           MP       BUF        +1
002171: 00,2541           60145                           AD       MPAC       +1                         #  OVERFLOW AT THIS POINT IS POSITIVE SINCE
002172: 00,2542           54000                           OVSK                                           #  R IS POSITIVE IN EVERY CASE.
002173: 00,2543           12550                           TCF      +5
002174:
002175: 00,2544           00006                           EXTEND                                         #  OVERFLOW CAN BE REMOVED BY SUBTRACTING C
002176: 00,2545           60120                           SU       BUF                                   #  (BUF) ONCE SINCE R IS ALWAYS LESS THAN C
002177: 00,2546           24144                           INCR     MPAC                                  #  IN THIS CASE. INCR COMPENSATES SUBTRACT.
002178: 00,2547           12552                           TCF      +DOWN                                 #  (SINCE C(A) IS STILL POSITIVE).
002179:
002180: 00,2550           00006                 +5        EXTEND                                         #  C(A) CAN BE MADE LESS THAN C IN MAGNI-
002181:
002182: 00,2551           62562                           BZMF     -UP                                   #  TUDE BY DIMINISHING IT BY C (SINCE C IS
002183:                                                                                                  #  NOT LESS THAN .5) UNLESS C(A) = 0.
002184:


002186: 00,2552           00006        +DOWN              EXTEND
002187: 00,2553           60120                           SU       BUF                                   #  IF POSITIVE, REDUCE ONLY IF NECESSARY
002188: 00,2554           00006                           EXTEND                                         #  SINCE THE COMPENSATING INCR MIGHT CAUSE
002189: 00,2555           12560                           BZF      +3                                    #  OVERFLOW.
002190: 00,2556           00006                           EXTEND                                         #  DONT SUBTRACT UNLESS RESULT IS POSITIVE
002191: 00,2557           62566                           BZMF     ENDMAXDV                              #  OR ZERO.
002192:
002193: 00,2560           24144                 +3        INCR     MPAC                                  #  KEEP SUBTRACT HERE AND COMPENSATE.
002194: 00,2561           12567                           TCF      FINALDV
002195:
002196: 00,2562           00006        -UP                EXTEND                                         #  IF ZERO, SET MINOR PART OF RESULT TO
002197: 00,2563           12572                           BZF      FINALDV    +3                         #  ZERO.
002198:
002199: 00,2564           00006                           EXTEND                                         #  IF NEGATIVE, ADD C TO A, SUBTRACTING ONE
002200: 00,2565           26144                           DIM      MPAC                                  #  TO COMPENSATE. DIM IS OK HERE SINCE THE
002201: 00,2566           60120        ENDMAXDV           AD       BUF                                   #  MAJOR PART NEVER GOES NEGATIVE.
002202:


002204: 00,2567           22007        FINALDV            ZL                                             #  DO DV TO OBTAIN MINOR PART OF RESULT.
002205: 00,2570           00006                           EXTEND
002206:
002207: 00,2571           10120                           DV       BUF
002208: 00,2572           54145                 +3        TS       MPAC       +1
002209:
002210: 00,2573           10126                           CCS      DVSIGN                                #  LEAVE RESULT POSITIVE UNLESS C(DVSIGN)=
002211: 00,2574           00002                           TC       Q                                     #  -0.
002212: 00,2575           00002                           TC       Q
002213: 00,2576           00002                           TC       Q
002214:
002215: 00,2577           00006                           EXTEND
002216: 00,2600           40145                           DCS      MPAC
002217:
002218: 00,2601           52145                           DXCH     MPAC
002219: 00,2602           37761                           CAF      ZERO                                  #  SO WE ALWAYS RETURN WITH C(A) = 0.
002220: 00,2603           00002                           TC       Q
002221:


002223:                                                                                                  #           IF THE MAJOR PARTS OF THE DIVISOR AND DIVIDEND ARE EQUAL, BUT THE MINOR PARTS ARE SUCH THAT THE
002224:                                                                                                  #  DIVIDEND IS STRICTLY LESS THAN THE DIVISOR IN MAGNITUDE, THE FOLLOWING APPROXIMATION IS USED. THE ASSUMPTIONS
002225:                                                                                                  #  ARE THE SAME AS THE GENERAL ROUTINE WITH THE ADDITION THAT SIGN AGREEMENT IS NECESSARY (B, C, & D POSITIVE).
002226:
002227:                                                                                                  #                  C + SB .          (C + B - D)
002228:                                                                                                  #                  ------ = 37777 + S(---------)
002229:                                                                                                  #                  C + SD            (    C    )
002230:
002231:                                                                                                  #           THE DIVISION MAY BE PERFORMED IMMEDIATELY SINCE B IS STRICTLY LESS THAN D AND C IS NOT LESS THAN .5.
002232:
002233:
002234:
002235: 00,2604           40144        MAXDV              CS       MPAC                                  #  SEE IF MAXDV CASE STILL HOLDS AFTER
002236: 00,2605           60120                           AD       BUF                                   #  NORMALIZATION.
002237: 00,2606           00006                           EXTEND
002238: 00,2607           12611                           BZF      +2
002239: 00,2610           12532                           TCF      GENDDV                                #  MPAC NOW LESS THAN BUF - DIVIDE AS USUAL
002240:
002241:
002242: 00,2611           37735                 +2        CAF      POSMAX                                #  SET MAJOR PART OF RESULT.
002243: 00,2612           54144                           TS       MPAC
002244:
002245: 00,2613           40121                           CS       BUF        +1                         #  FORM DIVIDEND OF MINOR PART OF RESULT.
002246: 00,2614           60145                           AD       MPAC       +1
002247: 00,2615           12566                           TCF      ENDMAXDV                              #  GO ADD C AND DO DIVIDE, ATTACHING SIGN
002248:                                                                                                  #  BEFORE EXITING.
002249:


002251:                                                                                                  #           VECTOR DIVIDED BY SCALAR, V/SC, IS EXECUTED HERE. THE VECTOR IS NOW IN MPAC WITH SCALAR IN BUF.
002252:
002253: 00,2616           47755        V/SC2              CS       ONE                                   #  INITIALIZE DIVIDEND NORMALIZATION COUNT
002254: 00,2617           54127                           TS       DVNORMCT                              #  AND DIVISION SIGN REGISTER.
002255: 00,2620           54117                           TS       VBUF       +5
002256:
002257: 00,2621           10120                           CCS      BUF                                   #  FORCE DIVISOR POSITIVE WITH MAJOR PART
002258: 00,2622           12657                           TCF      /BUF+                                 #  NON-ZERO (IF POSSIBLE).
002259: 00,2623           12625                           TCF      +2
002260: 00,2624           12653                           TCF      /BUF-
002261:
002262: 00,2625           56121                           XCH      BUF        +1                         #  SHIFT VECTOR AND SCALAR LEFT 14.
002263: 00,2626           56120                           XCH      BUF
002264: 00,2627           56145                           XCH      MPAC       +1
002265:
002266: 00,2630           56144                           XCH      MPAC
002267: 00,2631           00006                           EXTEND                                         #  CHECK FOR OVERFLOW IN EACH CASE.
002268: 00,2632           12634                           BZF      +2
002269: 00,2633           12375                           TCF      DVOVF
002270:
002271: 00,2634           56150                           XCH      MPAC       +4
002272: 00,2635           56147                           XCH      MPAC       +3
002273: 00,2636           00006                           EXTEND
002274: 00,2637           12641                           BZF      +2
002275: 00,2640           12375                           TCF      DVOVF
002276:
002277:
002278: 00,2641           56152                           XCH      MPAC       +6
002279: 00,2642           56151                           XCH      MPAC       +5
002280: 00,2643           00006                           EXTEND
002281: 00,2644           12646                           BZF      +2
002282: 00,2645           12375                           TCF      DVOVF
002283:
002284: 00,2646           10120                           CCS      BUF
002285: 00,2647           12657                           TCF      /BUF+
002286: 00,2650           12375                           TCF      DVOVF                                 #  ZERO DIVISOR - OVERFLOW.
002287: 00,2651           12653                           TCF      /BUF-
002288: 00,2652           12375                           TCF      DVOVF
002289:
002290:
002291: 00,2653           00006        /BUF-              EXTEND                                         #  ON NEGATIVE, COMPLEMENT BUF AND MAINTAIN
002292: 00,2654           40121                           DCS      BUF                                   #  DVSIGN IN VBUF +5.
002293: 00,2655           52121                           DXCH     BUF
002294: 00,2656           24117                           INCR     VBUF       +5
002295:


002297: 00,2657           37740        /BUF+              CAF      HALF                                  #  FORCE SIGN AGREEMENT IN DIVISOR.
002298: 00,2660           60000                           DOUBLE
002299: 00,2661           60121                           AD       BUF        +1
002300: 00,2662           54121                           TS       BUF        +1
002301: 00,2663           37761                           CAF      ZERO
002302: 00,2664           67735                           AD       POSMAX
002303:
002304: 00,2665           26120                           ADS      BUF
002305:
002306: 00,2666           56123                           XCH      BUF2                                  #  LEAVE ABS(ORIGINAL DIVISOR) IN BUF2 FOR
002307: 00,2667           30121                           CA       BUF        +1                         #  OVERFLOW TESTING.
002308: 00,2670           54124                           TS       BUF2       +1
002309: 00,2671           12677                           TCF      /NORM                                 #  NORMALIZE DIVISOR IN BUF.
002310:
002311: 00,2672           00006        /NORM2             EXTEND                                         #  IF LESS THAN .5, AUGMENT DVNORMCT AND
002312: 00,2673           24127                           AUG      DVNORMCT                              #  DOUBLE DIVISOR.
002313: 00,2674           00006                           EXTEND
002314: 00,2675           30121                           DCA      BUF
002315: 00,2676           20121                           DAS      BUF
002316:
002317:
002318: 00,2677           30120        /NORM              CA       BUF                                   #  SEE IF DIVISOR NORMALIZED.
002319: 00,2700           60000                           DOUBLE
002320: 00,2701           54000                           OVSK
002321: 00,2702           12672                           TCF      /NORM2                                #  DOUBLE AND TRY AGAIN IF NOT.
002322:
002323: 00,2703           02715                           TC       V/SCDV                                #  DO X COMPONENT DIVIDE.
002324: 00,2704           52150                           DXCH     MPAC       +3                         #  SUPPLY ARGUMENTS IN USUAL SEQUENCE.
002325: 00,2705           52145                           DXCH     MPAC
002326: 00,2706           52150                           DXCH     MPAC       +3
002327:
002328: 00,2707           02715                           TC       V/SCDV                                #  Y COMPONENT.
002329: 00,2710           52152                           DXCH     MPAC       +5
002330: 00,2711           52145                           DXCH     MPAC
002331: 00,2712           52152                           DXCH     MPAC       +5
002332:
002333: 00,2713           02715                           TC       V/SCDV                                #  Z COMPONENT.
002334: 00,2714           17471                           TCF      VROTATEX                              #  GO RE-ARRANGE COMPONENTS BEFORE EXIT.
002335:


002337:                                                                                                  #           SUBROUTINE USED BY V/SC TO DIVIDE VECTOR COMPONENT IN MPAC,+1 BY THE SCALAR GIVEN IN BUF.
002338:
002339: 00,2715           30117        V/SCDV             CA       VBUF       +5                         #  REFLECTS SIGN OF SCALAR.
002340: 00,2716           54126                           TS       DVSIGN
002341:
002342: 00,2717           10144                           CCS      MPAC                                  #  FORCE MPAC POSITIVE, EXITING ON ZERO.
002343: 00,2720           12734                           TCF      /MPAC+
002344: 00,2721           12723                           TCF      +2
002345: 00,2722           12730                           TCF      /MPAC-
002346:
002347: 00,2723           10145                           CCS      MPAC       +1
002348: 00,2724           12734                           TCF      /MPAC+
002349:
002350: 00,2725           00002                           TC       Q
002351: 00,2726           12730                           TCF      /MPAC-
002352: 00,2727           00002                           TC       Q
002353:
002354: 00,2730           00006        /MPAC-             EXTEND                                         #  USUAL COMPLEMENTING AND SETTING OF SIGN.
002355: 00,2731           40145                           DCS      MPAC
002356: 00,2732           52145                           DXCH     MPAC
002357: 00,2733           24126                           INCR     DVSIGN
002358:
002359: 00,2734           47755        /MPAC+             CS       ONE                                   #  INITIALIZE NEAR-ONE SWITCH.
002360: 00,2735           54130                           TS       MAXDVSW
002361:
002362:
002363: 00,2736           40144                           CS       MPAC                                  #  CHECK POSSIBLE OVERFLOW.
002364: 00,2737           60123                           AD       BUF2                                  #  UNNORMALIZED INPUT DIVISOR.
002365: 00,2740           00006                           EXTEND
002366: 00,2741           62745                           BZMF     /AGREE                                #  CHECK FOR NEAR-ONE OR OVERFLOW.
002367:
002368: 00,2742           52145        DDVCALL            DXCH     MPAC                                  #  CALL PRE-DIVIDE NORMALIZATION.
002369: 00,2743           50127                           INDEX    DVNORMCT
002370: 00,2744           12527                           TCF      MAXTEST
002371:


002373: 00,2745           37740        /AGREE             CAF      HALF                                  #  FORCE SIGN AGREEMENT IN DIVIDEND
002374: 00,2746           60000                           DOUBLE                                         #  (ALREADY DONE FOR DIVISOR).
002375: 00,2747           60145                           AD       MPAC       +1
002376: 00,2750           54145                           TS       MPAC       +1
002377: 00,2751           37761                           CAF      ZERO
002378: 00,2752           67735                           AD       POSMAX
002379: 00,2753           26144                           ADS      MPAC
002380:
002381:
002382: 00,2754           40144                           CS       MPAC                                  #  CHECK TO SEE IF OVERFLOW GONE OR IF
002383: 00,2755           60123                           AD       BUF2                                  #  NEAR-ONE CASE IS PRESENT.
002384: 00,2756           10000                           CCS      A
002385: 00,2757           12742                           TCF      DDVCALL                               #  NOT NEAR-ONE.
002386: 00,2760           32506        SLOPELO            DEC      .8324
002387: 00,2761           12375                           TCF      DVOVF                                 #  NO HOPE.
002388:
002389: 00,2762           54130                           TS       MAXDVSW                               #  SIGNAL POSSIBLE NEAR-ONE CASE.
002390: 00,2763           40145                           CS       MPAC       +1                         #  SEE IF DIVISION CAN BE DONE.
002391: 00,2764           60124                           AD       BUF2       +1
002392:
002393: 00,2765           00006                           EXTEND
002394: 00,2766           62375                           BZMF     DVOVF
002395: 00,2767           12742                           TCF      DDVCALL                               #  GOING TO MAXDV.
002396:


002398:                                                                                                  #           THE FOLLOWING ROUTINE EXECUTES THE UNIT INSTRUCTION, WHICH TAKES THE UNIT OF THE VECTOR IN MPAC.
002399:
002400: 00,2770           07604        UNIT               TC       MPACVBUF                              #  SAVE THE ARGUMENT IN VBUF.
002401: 00,2771           37761                           CAF      ZERO                                  #  MUST SENSE OVERFLOW IN FOLLOWING DOT.
002402: 00,2772           56111                           XCH      OVFIND
002403: 00,2773           54131                           TS       TEM1
002404: 00,2774           03267                           TC       VSQSUB                                #  DOT MPAC WITH ITSELF.
002405: 00,2775           30131                           CA       TEM1
002406: 00,2776           56111                           XCH      OVFIND
002407: 00,2777           00006                           EXTEND
002408: 00,3000           13002                           BZF      +2
002409: 00,3001           12375                           TCF      DVOVF
002410: 00,3002           00006                           EXTEND
002411: 00,3003           30145                           DCA      MPAC                                  #  LEAVE THE SQUARE OF THE LENGTH OF THE
002412:
002413: 00,3004           50110                           INDEX    FIXLOC                                #  ARGUMENT IN LVSQUARE.
002414: 00,3005           52043                           DXCH     LVSQUARE
002415:
002416: 00,3006           03313                           TC       SQRTSUB                               #  GO TAKE THE NORMALIZED SQUARE ROOT.
002417:
002418: 00,3007           10144                           CCS      MPAC                                  #  CHECK FOR UNIT OVERFLOW.
002419: 00,3010           13015                           TCF      +5                                    #  MPAC IS NOT LESS THAN .5 UNLESS
002420: 00,3011           54001                           TS       L
002421: 00,3012           50110                           INDEX    FIXLOC
002422: 00,3013           52045                           DXCH     LV
002423:
002424: 00,3014           12375                           TCF      DVOVF                                 #  INPUT TO SQRTSUB WAS 0.
002425:
002426: 00,3015           43116                           CS       FOURTEEN                              #  SEE IF THE INPUT WAS SO SMALL THE THE
002427: 00,3016           60125                           AD       MPTEMP                                #  FIRST TWO REGISTERS OF THE SQUARE WERE 0
002428: 00,3017           10000                           CCS      A
002429: 00,3020           40000                           COM                                            #  IF SO, SAVE THE NEGATIVE OF THE SHIFT
002430: 00,3021           13077                           TCF      SMALL                                 #  COUNT -15D.
002431:
002432: 00,3022           13031                           TCF      LARGE                                 #  (THIS IS USUALLY THE CASE.)
002433:
002434: 00,3023           43115                           CS       THIRTEEN                              #  IF THE SHIFT COUNT WAS EXACTLY 14, SET
002435: 00,3024           54125                           TS       MPTEMP                                #  THE PRE-DIVIDE NORM COUNT TO -13D.
002436:
002437:
002438: 00,3025           30144                           CA       MPAC                                  #  SHIFT THE LENGTH RIGHT 14 BEFORE STORING
002439: 00,3026           54001        SMALL2             TS       L                                     #  (SMALL EXITS TO THIS POINT).
002440: 00,3027           37761                           CAF      ZERO
002441: 00,3030           13056                           TCF      LARGE2                                #  GO TO STORE LENGTH AND PROCEED.
002442:
002443: 00,3031           10125        LARGE              CCS      MPTEMP                                #  MOST ALL CASES COME HERE.
002444: 00,3032           13040                           TCF      LARGE3                                #  SEE IF NO NORMALIZATION WAS REQUIRED BY
002445:
002446: 00,3033           42024                           CS       SRDDV                                 #  SQRT, AND IF SO, SET UP FOR A SHIFT
002447:
002448: 00,3034           54125                           TS       MPTEMP                                #  RIGHT 1 BEFORE DIVIDING TO PRODUCE
002449: 00,3035           00006                           EXTEND                                         #  THE DESIRED HALF UNIT VECTOR.
002450: 00,3036           30145                           DCA      MPAC
002451: 00,3037           13056                           TCF      LARGE2
002452:


002454: 00,3040           40000        LARGE3             COM                                            #  LEAVE NEGATIVE OF SHIFT COUNT-1 FOR
002455: 00,3041           54125                           TS       MPTEMP                                #  PREDIVIDE LEFT SHIFT.
002456:
002457: 00,3042           40000                           COM                                            #  PICK UP REQUIRED SHIFTING BIT TO UNNORM-
002458: 00,3043           50000                           INDEX    A                                     #  ALIZE THE SQRT RESULT.
002459: 00,3044           37740                           CAF      BIT14
002460:
002461: 00,3045           54120                           TS       BUF
002462: 00,3046           00006                           EXTEND
002463: 00,3047           70145                           MP       MPAC       +1
002464: 00,3050           56120                           XCH      BUF
002465: 00,3051           00006                           EXTEND                                         #  (UNNORMALIZE THE SQRT FOR LV).
002466: 00,3052           70144                           MP       MPAC
002467: 00,3053           56001                           XCH      L
002468: 00,3054           60120                           AD       BUF
002469: 00,3055           56001                           XCH      L
002470:
002471: 00,3056           50110        LARGE2             INDEX    FIXLOC
002472: 00,3057           52045                           DXCH     LV                                    #  LENGTH NOW STORED IN WORK AREA.
002473:
002474:
002475: 00,3060           47755                           CS       ONE
002476: 00,3061           54130                           TS       MAXDVSW                               #  NO MAXDV CASES IN UNIT.
002477:
002478: 00,3062           52113                           DXCH     VBUF                                  #  PREPARE X COMPONENT FOR DIVIDE, SETTING
002479: 00,3063           52145                           DXCH     MPAC                                  #  LENGTH OF VECTOR AS DIVISOR IN BUF.
002480: 00,3064           52121                           DXCH     BUF
002481: 00,3065           03117                           TC       UNITDV
002482:
002483: 00,3066           52115                           DXCH     VBUF       +2                         #  DO Y AND Z IN USUAL FASHION SO WE CAN
002484:
002485: 00,3067           52145                           DXCH     MPAC                                  #  EXIT THROUGH VROTATEX.
002486: 00,3070           52150                           DXCH     MPAC       +3
002487: 00,3071           03117                           TC       UNITDV
002488:
002489: 00,3072           52117                           DXCH     VBUF       +4
002490: 00,3073           52145                           DXCH     MPAC
002491: 00,3074           52152                           DXCH     MPAC       +5
002492: 00,3075           03117                           TC       UNITDV
002493: 00,3076           17471                           TCF      VROTATEX                              #  AND EXIT.
002494:


002496:                                                                                                  #           IF THE LENGTH OF THE ARGUMENT VECTOR WAS LESS THAN 2(-28), EACH COMPONENT MUST BE SHIFTED LEFT AT LEAST
002497:                                                                                                  #  14 PLACES BEFORE THE DIVIDE. NOTE THAT IN THIS CASE, THE MAJOR PART OF EACH COMPONENT IS ZERO.
002498:
002499: 00,3077           54125        SMALL              TS       MPTEMP                                #  NEGATIVE OF PRE-DIVIDE SHIFT COUNT.
002500:
002501: 00,3100           37761                           CAF      ZERO                                  #  SHIFT EACH COMPONENT LEFT 14.
002502: 00,3101           56113                           XCH      VBUF       +1
002503: 00,3102           56112                           XCH      VBUF
002504: 00,3103           56115                           XCH      VBUF       +3
002505: 00,3104           56114                           XCH      VBUF       +2
002506: 00,3105           56117                           XCH      VBUF       +5
002507: 00,3106           56116                           XCH      VBUF       +4
002508:
002509: 00,3107           40125                           CS       MPTEMP
002510: 00,3110           50000                           INDEX    A
002511: 00,3111           37740                           CAF      BIT14
002512: 00,3112           00006                           EXTEND
002513: 00,3113           70144                           MP       MPAC
002514: 00,3114           13026                           TCF      SMALL2
002515:
002516: 00,3115           00015        THIRTEEN           DEC      13         B-14
002517: 00,3116           00016        FOURTEEN           DEC      14         B-14
002518:


002520:                                                                                                  #           THE FOLLOWING ROUTINE SETS UP THE CALL TO THE DIVIDE ROUTINES.
002521:
002522: 00,3117           10144        UNITDV             CCS      MPAC                                  #  FORCE MPAC POSITIVE IF POSSIBLE, SETTING
002523: 00,3120           13136                           TCF      UMPAC+                                #  DVSIGN ACCORDING TO THE SIGN OF MPAC
002524: 00,3121           13123                           TCF      +2                                    #  SINCE THE DIVISOR IS ALWAYS POSITIVE
002525: 00,3122           13130                           TCF      UMPAC-                                #  HERE.
002526:
002527: 00,3123           10145                           CCS      MPAC       +1
002528:
002529: 00,3124           13136                           TCF      UMPAC+
002530: 00,3125           00002                           TC       Q                                     #  EXIT IMMEDIATELY ON ZERO.
002531: 00,3126           13130                           TCF      UMPAC-
002532: 00,3127           00002                           TC       Q
002533:
002534: 00,3130           47761        UMPAC-             CS       ZERO                                  #  IF NEGATIVE, SET -0 IN DVSIGN FOR FINAL
002535: 00,3131           54126                           TS       DVSIGN                                #  COMPLEMENT.
002536: 00,3132           00006                           EXTEND
002537: 00,3133           40145                           DCS      MPAC                                  #  PICK UP ABSOLUTE VALUE OF ARG AND JUMP.
002538: 00,3134           50125                           INDEX    MPTEMP
002539:
002540: 00,3135           12526                           TCF      MAXTEST    -1
002541:
002542: 00,3136           54126        UMPAC+             TS       DVSIGN                                #  SET DVSIGN FOR POSITIVE QUOTIENT.
002543: 00,3137           52145                           DXCH     MPAC
002544: 00,3140           50125                           INDEX    MPTEMP
002545: 00,3141           12526                           TCF      MAXTEST    -1
002546:


002548:                                                                                                  #           MISCELLANEOUS UNARY OPERATIONS.
002549:
002550: 00,3142           03250        DSQ                TC       DSQSUB                                #  SQUARE THE DP CONTENTS OF MPAC.
002551: 00,3143           16115                           TCF      DANZIG
002552:
002553: 00,3144           10153        ABVALABS           CCS      MODE                                  #  ABVAL OR ABS INSTRUCTION.
002554: 00,3145           13174                           TCF      ABS                                   #  DO ABS ON SCALAR.
002555: 00,3146           13174                           TCF      ABS
002556:
002557: 00,3147           03267        ABVAL              TC       VSQSUB                                #  DOT MPAC WITH ITSELF.
002558: 00,3150           22153                           LXCH     MODE                                  #  MODE IS NOW DP (L ZERO AFTER DAS).
002559:
002560: 00,3151           00006                           EXTEND                                         #  STORE SQUARE OF LENGTH IN WORK AREA.
002561: 00,3152           30145                           DCA      MPAC
002562:
002563: 00,3153           50110                           INDEX    FIXLOC
002564: 00,3154           52043                           DXCH     LVSQUARE
002565:
002566: 00,3155           03313        SQRT               TC       SQRTSUB                               #  TAKE THE SQUARE ROOT OF MPAC.
002567: 00,3156           10125                           CCS      MPTEMP                                #  RETURNED NORMALIZED SQUARE ROOT. SEE IF
002568: 00,3157           13161                           TCF      +2                                    #  ANY UN-NORMALIZATION REQUIRED AND EXIT
002569: 00,3160           16115                           TCF      DANZIG                                #  IF NOT.
002570:
002571: 00,3161           63676                           AD       NEG12                                 #  A RIGHT SHIFT OF MORE THAN 13 COULD BE
002572: 00,3162           00006                           EXTEND                                         #  REQUIRED IF INPUT WAS ZERO IN MPAC,+1.
002573:
002574: 00,3163           63167                           BZMF     SQRTSHFT                              #  GOES HERE IN MOST CASES.
002575: 00,3164           22007                           ZL                                             #  IF A LONG SHIFT IS REQUIRED, GO TO
002576: 00,3165           22106                           LXCH     ADDRWD                                #  GENERAL RIGHT SHIFT ROUTINES.
002577: 00,3166           12303                           TCF      GENSCR     +4                         #  ADDRWD WAS ZERO TO PREVENT ROUND.
002578:
002579: 00,3167           50125        SQRTSHFT           INDEX    MPTEMP                                #  SELECT SHIFTING BIT AND EXIT THROUGH
002580: 00,3170           37737                           CAF      BIT15                                 #  SHIFT ROUTINES.
002581: 00,3171           54125                           TS       MPTEMP
002582: 00,3172           37761                           CAF      ZERO                                  #  TO ZERO MPAC +2 IN THE PROCESS.
002583: 00,3173           12036                           TCF      MPACSHR    +3
002584:
002585: 00,3174           06772        ABS                TC       BRANCH                                #  TEST SIGN OF MPAC AND COMPLEMENT IF
002586:
002587: 00,3175           16115                           TCF      DANZIG
002588: 00,3176           16115                           TCF      DANZIG
002589: 00,3177           17714                           TCF      COMP
002590:


002592: 00,3200           47753        VDEF               CS       FOUR                                  #  VECTOR DEFINE - ESSENTIALLY TREATS
002593: 00,3201           26156                           ADS      PUSHLOC                               #  SCALAR IN MPAC AS X COMPONENT, PUSHES UP
002594: 00,3202           00006                           EXTEND                                         #  FOR Y AND THEN AGAIN FOR Z.
002595: 00,3203           50000                           INDEX    A
002596: 00,3204           30003                           DCA      2
002597: 00,3205           52150                           DXCH     MPAC       +3
002598:
002599: 00,3206           00006                           EXTEND
002600: 00,3207           50156                           INDEX    PUSHLOC
002601: 00,3210           30001                           DCA      0
002602: 00,3211           52152                           DXCH     MPAC       +5
002603: 00,3212           47755                           CS       ONE                                   #  MODE IS NOW VECTOR.
002604: 00,3213           16114                           TCF      NEWMODE
002605:
002606: 00,3214           03267        VSQ                TC       VSQSUB                                #  DOT MPAC WITH ITSELF.
002607: 00,3215           37761                           CAF      ZERO
002608: 00,3216           16114                           TCF      NEWMODE                               #  MODE IS NOW DP.
002609:
002610: 00,3217           00006        PUSH               EXTEND                                         #  PUSH DOWN MPAC LEAVING IT LOADED.
002611:
002612: 00,3220           30145                           DCA      MPAC
002613: 00,3221           50156                           INDEX    PUSHLOC                               #  PUSH DOWN FIRST TWO REGISTERS IN EACH
002614: 00,3222           52001                           DXCH     0
002615:
002616: 00,3223           50153                           INDEX    MODE                                  #  INCREMENT PUSHDOWN POINTER.
002617: 00,3224           36300                           CAF      NO.WDS
002618: 00,3225           26156                           ADS      PUSHLOC
002619:
002620: 00,3226           10153                           CCS      MODE
002621: 00,3227           13242                           TCF      TPUSH                                 #  PUSH DOWN MPAC +2.
002622:
002623: 00,3230           16115                           TCF      DANZIG                                #  DONE FOR DP.
002624:
002625: 00,3231           00006                           EXTEND                                         #  ON VECTOR, PUSH DOWN Y AND Z COMPONENTS.
002626: 00,3232           30150                           DCA      MPAC       +3
002627: 00,3233           50156                           INDEX    PUSHLOC
002628: 00,3234           51775                           DXCH     0          -4
002629: 00,3235           00006                           EXTEND
002630: 00,3236           30152                           DCA      MPAC       +5
002631: 00,3237           50156                           INDEX    PUSHLOC
002632: 00,3240           51777                           DXCH     0          -2
002633: 00,3241           16115                           TCF      DANZIG
002634:
002635:
002636: 00,3242           30146        TPUSH              CA       MPAC       +2
002637: 00,3243           16623                           TCF      ENDTPUSH   +2
002638:
002639: 00,3244           50110        RVQ                INDEX    FIXLOC                                #  RVQ - RETURN IVA QPRET.
002640: 00,3245           30052                           CA       QPRET
002641: 00,3246           54107                           TS       POLISH
002642: 00,3247           16721                           TCF      GOTO       +4                         #  (ASSUME QPRET POINTS TO FIXED ONLY.)
002643:


002645:                                                                                                  #           THE FOLLOWING SUBROUTINES ARE USED IN SQUARING MPAC, IN BOTH THE SCALAR AND VECTOR SENSE. THEY ARE
002646:                                                                                                  #  SPECIAL CASES OF DMPSUB AND DOTSUB, PUT IN TO SAVE SOME TIME.
002647:
002648: 00,3250           30145        DSQSUB             CA       MPAC       +1                         #  SQUARES THE SCALAR CONTENTS OF MPAC.
002649: 00,3251           00006                           EXTEND
002650: 00,3252           70000                           SQUARE
002651: 00,3253           54146                           TS       MPAC       +2
002652: 00,3254           37761                           CAF      ZERO                                  #  FORM 2(CROSS TERM).
002653: 00,3255           56145                           XCH      MPAC       +1
002654: 00,3256           00006                           EXTEND
002655: 00,3257           70144                           MP       MPAC
002656: 00,3260           20001                           DDOUBL                                         #  AND MAYBE OVERFLOW.
002657:
002658: 00,3261           20146                           DAS      MPAC       +1                         #  AND SET A TO NET OVERFLOW.
002659: 00,3262           56144                           XCH      MPAC
002660: 00,3263           00006                           EXTEND
002661: 00,3264           70000                           SQUARE
002662: 00,3265           20145                           DAS      MPAC
002663: 00,3266           00002                           TC       Q
002664:
002665: 00,3267           00006        VSQSUB             EXTEND                                         #  DOTS THE VECTOR IN MPAC WITH ITSELF.
002666: 00,3270           22127                           QXCH     DOTRET
002667: 00,3271           03250                           TC       DSQSUB                                #  SQUARE THE X COMPONENT.
002668: 00,3272           52150                           DXCH     MPAC       +3
002669: 00,3273           52145                           DXCH     MPAC
002670:
002671: 00,3274           52121                           DXCH     BUF                                   #  SO WE CAN END IN DOTSUB.
002672: 00,3275           30146                           CA       MPAC       +2
002673: 00,3276           54122                           TS       BUF        +2
002674:
002675: 00,3277           03250                           TC       DSQSUB                                #  SQUARE Y COMPONENT.
002676: 00,3300           52146                           DXCH     MPAC       +1
002677: 00,3301           20122                           DAS      BUF        +1
002678: 00,3302           60144                           AD       MPAC
002679: 00,3303           60120                           AD       BUF
002680: 00,3304           54120                           TS       BUF
002681:
002682: 00,3305           13307                           TCF      +2
002683: 00,3306           54111                           TS       OVFIND                                #  IF OVERFLOW.
002684:
002685: 00,3307           52152                           DXCH     MPAC       +5
002686: 00,3310           52145                           DXCH     MPAC
002687: 00,3311           03250                           TC       DSQSUB                                #  SQUARE Z COMPONENT.
002688: 00,3312           17250                           TCF      ENDDOT                                #  END AS IN DOTSUB.
002689:


002691:                                                                                                  #           DOUBLE PRECISION SQUARE ROOT ROUTINE. TAKE THE SQUARE ROOT OF THE TRIPLE PRECISION (MPAC +2 USED ONLY
002692:                                                                                                  #  IN NORMALIZATION) CONTENTS OF MPAC AND LEAVE THE NORMALIZED RESULT IN MPAC (C(MPAC) GREATER THAN OR EQUAL TO
002693:                                                                                                  #  .5). THE RIGHT SHIFT COUNT (TO UNNORMALIZE) IS LEFT IN MPTEMP.
002694:
002695:
002696:
002697: 00,3313           37761        SQRTSUB            CAF      ZERO                                  #  START BY ZEROING RIGHT SHIFT COUNT.
002698: 00,3314           54125                           TS       MPTEMP
002699:
002700:
002701: 00,3315           10144                           CCS      MPAC                                  #  CHECK FOR POSITIVE ARGUMENT, SHIFTING
002702: 00,3316           13354                           TCF      SMPAC+                                #  FIRST SIGNIFICANT MPAC REGISTER INTO
002703: 00,3317           13321                           TCF      +2                                    #  MPAC ITSELF.
002704: 00,3320           13343                           TCF      SQRTNEG                               #  SEE IF MAG OF ARGUMENT LESS THAN 10(-4).
002705:
002706: 00,3321           56146                           XCH      MPAC       +2                         #  MPAC IS ZERO - SHIFT LEFT 14.
002707: 00,3322           56145                           XCH      MPAC       +1
002708: 00,3323           54144                           TS       MPAC
002709: 00,3324           37757                           CAF      SEVEN                                 #  AUGMENT RIGHT SHIFT COUNTER.
002710:
002711: 00,3325           54125                           TS       MPTEMP
002712:
002713: 00,3326           10144                           CCS      MPAC                                  #  SEE IF MPAC NOW PNZ.
002714: 00,3327           13354                           TCF      SMPAC+
002715: 00,3330           13332                           TCF      +2
002716: 00,3331           13346                           TCF      ZEROANS                               #  NEGATIVE BUT LESS THAN 10(-4) IN MAG.
002717:
002718: 00,3332           56145                           XCH      MPAC       +1                         #  ZERO - SHIFT LEFT 14 AGAIN.
002719: 00,3333           54144                           TS       MPAC
002720: 00,3334           37757                           CAF      SEVEN                                 #  AUGMENT RIGHT SHIFT COUNTER.
002721: 00,3335           26125                           ADS      MPTEMP
002722:
002723:
002724: 00,3336           10144                           CCS      MPAC
002725: 00,3337           13354                           TCF      SMPAC+
002726: 00,3340           00002                           TC       Q                                     #  SQRT(0) = 0.
002727: 00,3341           13346                           TCF      ZEROANS
002728: 00,3342           00002                           TC       Q
002729:
002730:
002731:
002732: 00,3343           10000        SQRTNEG            CCS      A                                     #  ARGUMENT IS NEGATIVE, BUT SEE IF SIGN-
002733: 00,3344           13352                           TCF      SQRTABRT                              #  CORRECTED ARGUMENT IS LESS THAN 10(-4)
002734:
002735: 00,3345           10145                           CCS      MPAC       +1                         #  IN MAGNITUDE. IF SO, CALL ANSWER ZERO.
002736: 00,3346           37761        ZEROANS            CAF      ZERO                                  #  FORCE ANSWER TO ZERO HERE.
002737: 00,3347           13422                           TCF      FIXROOT
002738: 00,3350           13352                           TCF      SQRTABRT
002739: 00,3351           13422                           TCF      FIXROOT
002740:
002741: 00,3352           06000        SQRTABRT           TC       ABORT
002742: 00,3353           01302                           OCT      1302
002743:


002745: 00,3354           62430        SMPAC+             AD       -1/2+2                                #  SEE IF ARGUMENT GREATER THAN OR EQUAL TO
002746:
002747: 00,3355           00006                           EXTEND                                         #  .5.
002748: 00,3356           63425                           BZMF     SRTEST                                #  IF SO, SEE IF LESS THAN .25.
002749:
002750: 00,3357           52145                           DXCH     MPAC                                  #  WE WILL TAKE THE SQUARE ROOT OF MPAC/2.
002751: 00,3360           22021                           LXCH     SR                                    #  SHIFT RIGHT 1 AND GO TO THE SQRT ROUTINE
002752: 00,3361           00006                           EXTEND
002753: 00,3362           77740                           MP       HALF
002754: 00,3363           52145                           DXCH     MPAC
002755: 00,3364           56021                           XCH      SR
002756: 00,3365           26145                           ADS      MPAC       +1                         #  GUARANTEED NO OVERFLOW.
002757:
002758: 00,3366           32314        ARGHI              CAF      SLOPEHI                               #  ARGUMENT BETWEEN .25 AND .5. GET A
002759:
002760: 00,3367           00006                           EXTEND                                         #  LINEAR APPROXIMATION FOR THIS RANGE.
002761: 00,3370           70144                           MP       MPAC
002762: 00,3371           62530                           AD       BIASHI                                #  X0/2 = (MPAC/2)(SLOPEHI) + BIASHI/2.
002763:
002764: 00,3372           54120                 +4        TS       BUF                                   #  X0/2 (ARGLO ENTERS HERE).
002765: 00,3373           30144                           CA       MPAC                                  #  SINGLE-PRECISION THROUGHOUT.
002766: 00,3374           22007                           ZL
002767: 00,3375           00006                           EXTEND
002768: 00,3376           10120                           DV       BUF                                   #  (MPAC/2)/(X0/2)
002769: 00,3377           00006                           EXTEND
002770:
002771: 00,3400           77740                           MP       HALF
002772: 00,3401           26120                           ADS      BUF                                   #  X1 = X0/2 + .5(MPAC/2)/(X0/2).
002773:
002774: 00,3402           00006                           EXTEND
002775: 00,3403           77740                           MP       HALF                                  #  FORM UP X1/2.
002776: 00,3404           52145                           DXCH     MPAC                                  #  SAVE AND BRING OUT ARGUMENT.
002777: 00,3405           00006                           EXTEND                                         #  TAKE DP QUOTIENT WITH X1.
002778: 00,3406           10120                           DV       BUF
002779: 00,3407           54121                           TS       BUF        +1                         #  SAVE MAJOR PART OF QUOTIENT.
002780: 00,3410           37761                           CAF      ZERO                                  #  FORM MINOR PART OF QUOTIENT USING
002781: 00,3411           56001                           XCH      L                                     #  (REMAINDER,0).
002782: 00,3412           00006                           EXTEND
002783:
002784: 00,3413           10120                           DV       BUF
002785: 00,3414           54001                           TS       L                                     #  IN PREPARATION FOR DAS.
002786: 00,3415           30121                           CA       BUF        +1
002787: 00,3416           20145                           DAS      MPAC                                  #  X2 = X1/2 + (MPAC/2)X1
002788:
002789: 00,3417           00006                           EXTEND                                         #  OVERFLOWS IF ARG. NEAR POSMAX.
002790: 00,3420           13424                           BZF      TCQBNK00
002791: 00,3421           37735                           CAF      POSMAX
002792: 00,3422           54144        FIXROOT            TS       MPAC
002793: 00,3423           54145                           TS       MPAC       +1
002794:
002795: 00,3424           00002        TCQBNK00           TC       Q                                     #  RETURN TO CALLER TO UNNORMALIZE, ETC.
002796:


002798: 00,3425           67741        SRTEST             AD       QUARTER                               #  ARGUMENT WAS LESS THAN .5, SEE IF LESS
002799: 00,3426           00006                           EXTEND                                         #  THAN .25.
002800: 00,3427           63451                           BZMF     SQRTNORM                              #  IF SO, BEGIN NORMALIZATION.
002801:
002802: 00,3430           52145                           DXCH     MPAC                                  #  IF BETWEEN .5 AND .25, SHIFT RIGHT 1 AND
002803: 00,3431           22021                           LXCH     SR                                    #  START AT ARGLO.
002804:
002805: 00,3432           00006                           EXTEND
002806: 00,3433           77740                           MP       HALF
002807: 00,3434           52145                           DXCH     MPAC
002808: 00,3435           56021                           XCH      SR
002809: 00,3436           26145                           ADS      MPAC       +1                         #  NO OVERFLOW.
002810:
002811: 00,3437           32760        ARGLO              CAF      SLOPELO                               #  (NORMALIZED) ARGUMENT BETWEEN .125 AND
002812: 00,3440           00006                           EXTEND                                         #  .25
002813: 00,3441           70144                           MP       MPAC
002814: 00,3442           62270                           AD       BIASLO
002815: 00,3443           13372                           TCF      ARGHI      +4                         #  BEGIN SQUARE ROOT.
002816:
002817:
002818: 00,3444           00006        SQRTNM2            EXTEND                                         #  SHIFT LEFT 2 AND INCREMENT RIGHT SHIFT
002819: 00,3445           30146                           DCA      MPAC       +1                         #  COUNT (FOR TERMINAL UNNORMALIZATION).
002820: 00,3446           20146                           DAS      MPAC       +1
002821: 00,3447           60144                           AD       MPAC
002822: 00,3450           26144                           ADS      MPAC                                  #  (NO OVERFLOW).
002823:
002824: 00,3451           24125        SQRTNORM           INCR     MPTEMP                                #  FIRST TIME THROUGH, JUST SHIFT LEFT 1
002825: 00,3452           00006                           EXTEND                                         #  (PUTS IN EFFECTIVE RIGHT SHIFT SINCE
002826: 00,3453           30146                           DCA      MPAC       +1                         #  WE WANT MPAC/2).
002827: 00,3454           20146                           DAS      MPAC       +1
002828:
002829: 00,3455           60144                           AD       MPAC
002830: 00,3456           26144                           ADS      MPAC                                  #  (AGAIN NO OVERFLOW).
002831: 00,3457           60000                           DOUBLE
002832: 00,3460           54022                           TS       CYL
002833:
002834: 00,3461           10022        NORMTEST           CCS      CYL                                   #  SEE IF ARGUMENT NOW NORMALIZED AT
002835: 00,3462           10022                           CCS      CYL                                   #  GREATER THAN .125.
002836: 00,3463           13444                           TCF      SQRTNM2                               #  NO - SHIFT LEFT 2 MORE AND TRY AGAIN.
002837: 00,3464           13366                           TCF      ARGHI                                 #  YES - NOW BETWEEN .5 AND .25.
002838: 00,3465           13437                           TCF      ARGLO                                 #  ARGUMENT NOW BETWEEN .25 AND .125.
002839:


002841:                                                                                                  #  TRIGONOMETRIC FUNCTION PACKAGE.
002842:
002843:
002844:                                                                                                  #           THE FOLLOWING TRIGONOMETRIC FUNCTIONS ARE AVAILABLE AS INTERPRETIVE OPERATIONS:
002845:
002846:                                                                                                  #           1.  SIN                COMPUTES (1/2)SINE(2 PI MPAC).
002847:                                                                                                  #           2.  COS                COMPUTES (1/2)COSINE(2 PI MPAC).
002848:
002849:                                                                                                  #           3.  ASIN               COMPUTES (1/2PI)ARCSINE(2 MPAC).
002850:                                                                                                  #           4.  ACOS               COMPUTES (1/2PI)ARCCOSINE(2 MPAC).
002851:
002852:                                                                                                  #  SIN-ASIN AND COS-ACOS ARE MUTUALLY INVERSE, IE SIN(ASIN(X)) = X.
002853:
002854:
002855:
002856: 00,3466           06772        COSINE             TC       BRANCH                                #  FINDS COSINE USING THE IDENTITY
002857: 00,3467           13472                           TCF      +3                                    #  COS(X) = SIN(PI/2 - ABS(X)).
002858: 00,3470           13475                           TCF      PRESINE
002859: 00,3471           13475                           TCF      PRESINE
002860:
002861: 00,3472           00006                 +3        EXTEND
002862: 00,3473           40145                           DCS      MPAC
002863: 00,3474           52145                           DXCH     MPAC
002864:
002865: 00,3475           37741        PRESINE            CAF      QUARTER                               #  PI/2 SCALED.
002866: 00,3476           26144                           ADS      MPAC
002867:
002868:
002869:
002870:
002871: 00,3477           52145        SINE               DXCH     MPAC                                  #  DOUBLE ARGUMENT.
002872: 00,3500           20001                           DDOUBL
002873: 00,3501           54000                           OVSK                                           #  SEE IF OVERFLOW PRESENT.
002874: 00,3502           13505                           TCF      +3                                    #  IF NOT, ARGUMENT OK AS IS.
002875:
002876: 00,3503           00006                           EXTEND                                         #  IF SO, WE LOST (OR GAINED) PI, SO
002877: 00,3504           40001                           DCOM                                           #  COMPLEMENT MPAC USING THE IDENTITY
002878:
002879:                                                                                                  #  SIN(X-(+)PI) = SIN(-X).
002880: 00,3505           52145                 +3        DXCH     MPAC
002881: 00,3506           30144                           CA       MPAC                                  #  SEE IF ARGUMENT GREATER THAN .5 IN
002882: 00,3507           60000                           DOUBLE                                         #  MAGNITUDE. IF SO, REDUCE IT TO LESS THAN
002883: 00,3510           54001                           TS       L                                     #  .5 (+-PI/2 SCALED) AS FOLLOWS:
002884: 00,3511           13522                           TCF      SN1
002885:
002886: 00,3512           50000                           INDEX    A                                     #  IF POSITIVE, FORM PI - X, IF NEGATIVE
002887: 00,3513           37737                           CAF      NEG1/2     +1                         #  USE -PI - X.
002888: 00,3514           60000                           DOUBLE
002889: 00,3515           00006                           EXTEND
002890: 00,3516           60144                           SU       MPAC                                  #  GUARANTEED NO OVERFLOW.
002891:
002892: 00,3517           54144                           TS       MPAC
002893: 00,3520           40145                           CS       MPAC       +1
002894: 00,3521           54145                           TS       MPAC       +1
002895:


002897: 00,3522           00006        SN1                EXTEND                                         #  SET UP TO EVALUATE HASTINGS POLYNOMIAL
002898: 00,3523           30145                           DCA      MPAC
002899: 00,3524           52124                           DXCH     BUF2
002900: 00,3525           03250                           TC       DSQSUB                                #  SQUARE MPAC.
002901:
002902: 00,3526           07265                           TC       POLY                                  #  EVALUATE FOURTH ORDER POLYNOMIAL.
002903: 00,3527           00003                           DEC      3          B-14
002904: 00,3530           14441 37325                     2DEC     +.3926990796
002905:
002906:
002907: 00,3532           53250 60764                     2DEC     -.6459637111
002908:
002909: 00,3534           12146 21276                     2DEC     +.318758717
002910:
002911: 00,3536           75466 71471                     2DEC     -.074780249
002912:
002913: 00,3540           00236 32757                     2DEC     +.009694988
002914:
002915: 00,3542           32454                           CAF      LBUF2                                 #  MULTIPLY BY ARGUMENT AND SHIFT LEFT 2.
002916:
002917: 00,3543           07151                           TC       DMPSUB     -1
002918:
002919: 00,3544           00006                           EXTEND
002920: 00,3545           30146                           DCA      MPAC       +1
002921: 00,3546           20146                           DAS      MPAC       +1
002922: 00,3547           60144                           AD       MPAC
002923: 00,3550           26144                           ADS      MPAC                                  #  NEITHER SHIFT OVERFLOWS.
002924: 00,3551           00006                           EXTEND
002925: 00,3552           30146                           DCA      MPAC       +1
002926: 00,3553           20146                           DAS      MPAC       +1
002927: 00,3554           60144                           AD       MPAC
002928: 00,3555           26144                           ADS      MPAC
002929:
002930: 00,3556           16115                           TCF      DANZIG
002931:


002933:                                                                                                  #           ARCSIN/ARCCOS ROUTINE.
002934:
002935: 00,3557           33600        ARCSIN             CAF      LASINEX                               #  COMPUTE ARCSIN BY USING THE IDENTITY
002936: 00,3560           13562                           TCF      +2                                    #  ARCSIN(X) = PI/2 - ARCCOS(X).
002937:
002938: 00,3561           33662        ARCCOS             CAF      LDANZIG                               #  (EXITS IMMEDIATELY).
002939: 00,3562           54126                           TS       ESCAPE
002940: 00,3563           06772                           TC       BRANCH                                #  TEST SIGN OF INPUT.
002941: 00,3564           13574                           TCF      ACOSST                                #  START IMMEDIATELY IF POSITIVE.
002942: 00,3565           13674                           TCF      ACOSZERO                              #  ARCCOS(0) = PI/2 = .25.
002943: 00,3566           00006                           EXTEND                                         #  IF NEGATIVE, USE THE IDENTITY
002944: 00,3567           40145                           DCS      MPAC                                  #  ARCCOS(X) = PI - ARCCOS(-X), FORCING
002945: 00,3570           52145                           DXCH     MPAC                                  #  ARGUMENT POSITIVE.
002946: 00,3571           33677                           CAF      TCSUBTR                               #  SET EXIT  TO DO ABOVE BEFORE
002947:
002948: 00,3572           56126                           XCH      ESCAPE                                #  ARCSIN/ARCCOS CONSIDERATIONS.
002949: 00,3573           54127                           TS       ESCAPE2
002950:
002951: 00,3574           47740        ACOSST             CS       HALF                                  #  TEST MAGNITUDE OF INPUT.
002952: 00,3575           60144                           AD       MPAC
002953: 00,3576           10000                           CCS      A
002954: 00,3577           13670                           TCF      ACOSOVF                               #  THIS IS PROBABLY AN OVERFLOW CASE.
002955:
002956: 00,3600           13656        LASINEX            TCF      ASINEX
002957:
002958: 00,3601           13611                           TCF      ACOSST2                               #  NO OVERFLOW - PROCEED.
002959:
002960: 00,3602           10145                           CCS      MPAC       +1                         #  IF MAJOR PART IS .5, CALL ANSWER 0
002961: 00,3603           37761                           CAF      ZERO                                  #  UNLESS MINOR PART NEGATIVE.
002962: 00,3604           13606                           TCF      ACOS=0
002963:
002964: 00,3605           13611                           TCF      ACOSST2
002965:
002966: 00,3606           54145        ACOS=0             TS       MPAC       +1
002967: 00,3607           54144                           TS       MPAC
002968: 00,3610           00126                           TC       ESCAPE
002969:
002970: 00,3611           00006        ACOSST2            EXTEND                                         #  NOW THAT ARGUMENT IS IN PROPER RANGE,
002971:
002972: 00,3612           40145                           DCS      MPAC                                  #  BEGIN COMPUTATION. USE HASTINGS
002973: 00,3613           67740                           AD       HALF                                  #  APPROXIMATION ARCCOS(X) = SQRT(1-X)P(X)
002974: 00,3614           52145                           DXCH     MPAC                                  #  IN A SCALED VERSION WHERE P(X) IS A
002975: 00,3615           52124                           DXCH     BUF2                                  #  SEVENTH ORDER POLYNOMIAL.
002976:
002977: 00,3616           03313                           TC       SQRTSUB                               #  RETURNS WITH NORMALIZED SQUARE ROOT.
002978:
002979: 00,3617           10125                           CCS      MPTEMP                                #  SEE IF UN-NORMALIZATION REQUIRED.
002980: 00,3620           13663                           TCF      ACOSSHR                               #  IF SO.
002981:


002983: 00,3621           52145        ACOS3              DXCH     MPAC                                  #  SET UP FOR POLYNOMIAL EVALUATION.
002984: 00,3622           52124                           DXCH     BUF2
002985: 00,3623           52145                           DXCH     MPAC
002986:
002987: 00,3624           07265                           TC       POLY
002988: 00,3625           00006                           DEC      6          B-14
002989:
002990: 00,3626           13240 23630                     2DEC     +.353553385                            #  COEFFICIENTS ARE C 2(+I)/PISQRT(2) WHERE
002991:
002992: 00,3630           74721 47775                     2DEC*    -.0483017006 B+1*                       #                    I
002993:
002994: 00,3632           02440 20237                     2DEC*    +.0200273085 B+2*                       #       WHERE C STANDS FOR ORIGINAL COEFFS.
002995:
002996: 00,3634           75067 70742                     2DEC*    -.0112931863 B+3*
002997:
002998: 00,3636           03436 26756                     2DEC*    +.00695311612 B+4*
002999:
003000: 00,3640           74037 57640                     2DEC*    -.00384617957 B+5*
003001:
003002:
003003: 00,3642           03046 07143                     2DEC*    +.001501297736 B+6*
003004:
003005: 00,3644           76654 42244                     2DEC*    -.000284160334 B+7*
003006:
003007: 00,3646           32454                           CAF      LBUF2                                 #  DO FINAL MULTIPLY AND GO TO ANY
003008: 00,3647           07151                           TC       DMPSUB     -1                         #  EPILOGUE SEQUENCES.
003009: 00,3650           00126                           TC       ESCAPE
003010:
003011: 00,3651           00006        SUBTR              EXTEND                                         #  EPILOGUE FOR NEGATIVE INPUTS TO ARCCOS.
003012: 00,3652           40145                           DCS      MPAC
003013:
003014: 00,3653           67740                           AD       HALF                                  #  FORMS PI - ARCCOS(-X) = ARCCOS(X).
003015: 00,3654           52145                           DXCH     MPAC
003016: 00,3655           00127                           TC       ESCAPE2                               #  GO TO POSSIBLE ARCSIN EPILOGUE.
003017:
003018: 00,3656           00006        ASINEX             EXTEND
003019: 00,3657           40145                           DCS      MPAC                                  #  ARCSIN EPILOGUE - GET ARCSIN(X)
003020: 00,3660           67741                           AD       QUARTER                               #  = PI/2 - ARCCOS(X).
003021: 00,3661           52145                           DXCH     MPAC
003022: 00,3662           16115        LDANZIG            TCF      DANZIG
003023:


003025: 00,3663           50000        ACOSSHR            INDEX    A                                     #  THE SHIFT RIGHT IS LESS THAN 14 SINCE
003026: 00,3664           37740                           CAF      BIT14                                 #  THE INPUT WAS NON-ZERO DP.
003027:
003028: 00,3665           54125                           TS       MPTEMP
003029: 00,3666           02073                           TC       VSHRRND                               #  DP SHIFT RIGHT AND ROUND.
003030: 00,3667           13621                           TCF      ACOS3                                 #  PROCEED.
003031:
003032: 00,3670           00006        ACOSOVF            EXTEND                                         #  IF MAJOR PART WAS ONLY 1 MORE THAN .5,
003033: 00,3671           13606                           BZF      ACOS=0                                #  CALL ANSWER ZERO.
003034:
003035: 00,3672           06000        ACOSABRT           TC       ABORT
003036: 00,3673           01301                           OCT      1301
003037:
003038: 00,3674           37741        ACOSZERO           CAF      QUARTER                               #  ACOS(0) = PI/2.
003039: 00,3675           13607                           TCF      ACOS=0     +1                         #  SET MPAC AND EXIT VIA ESCAPE.
003040:
003041: 00,3676           77763        NEG12              DEC      -12        B-14
003042: 00,3677           13651        TCSUBTR            TCF      SUBTR
003043:


003045:                                                                                                  #           THE FOLLOWING INSTRUCTIONS ARE AVAILABLE FOR SETTING, MODIFYING, AND BRANCHING ON INDEX REGISTERS:
003046:
003047:                                                                                                  #           1.  AXT                ADDRESS TO INDEX TRUE.
003048:                                                                                                  #           2.  AXC                ADDRESS TO INDEX COMPLEMENTED.
003049:                                                                                                  #           3.  LXA                LOAD INDEX FROM ERASABLE.
003050:                                                                                                  #           4.  LXC                LOAD INDEX COMPLEMENTED FROM ERASABLE.
003051:                                                                                                  #           5.  SXA                STORE INDEX IN ERASABLE.
003052:                                                                                                  #           6.  XCHX               EXCHANGE INDEX REIGSTER WITH ERASABLE.
003053:
003054:
003055:                                                                                                  #           7.  INCR               INCREMENT INDEX REGISTER.
003056:                                                                                                  #           8.  XAD                ERASABLE ADD TO INDEX REGISTER.
003057:                                                                                                  #           9.  XSU                ERASABLE SUBTRACT FROM INDEX REGISTER.
003058:
003059:                                                                                                  #          10.  TIX                BRANCH ON INDEX REGISTER AND DECREMENT.
003060:
003061:
003062:
003063: 01,2557                                           BANK     01
003064:
003065: 01,2557           02654        AXT                TC       TAGSUB                                #  SELECT APPROPRIATE INDEX REGISTER.
003066: 01,2560           30107                           CA       POLISH
003067: 01,2561           50120        XSTORE             INDEX    INDEXLOC                              #  CONTAINS C(FIXLOC) OR C(FIXLOC)+1.
003068: 01,2562           54046                           TS       X1
003069: 01,2563           16115                           TCF      DANZIG
003070:
003071: 01,2564           02654        AXC                TC       TAGSUB
003072: 01,2565           40107                           CS       POLISH
003073: 01,2566           02561                           TC       XSTORE
003074:
003075: 01,2567           02642        LXA                TC       15ADRERS                              #  LOAD INDEX REGISTER FROM ERASABLE.
003076: 01,2570           50107                           INDEX    POLISH
003077:
003078: 01,2571           30000                           CA       0
003079: 01,2572           12561                           TCF      XSTORE
003080:
003081: 01,2573           02642        LXC                TC       15ADRERS                              #  LOAD NDX REG FROM ERASABLE COMPLEMENTED.
003082: 01,2574           50107                           INDEX    POLISH
003083: 01,2575           40000                           CS       0
003084: 01,2576           12561                           TCF      XSTORE
003085:
003086: 01,2577           02642        SXA                TC       15ADRERS                              #  STORE INDEX REGISTER IN ERASABLE.
003087: 01,2600           50120                           INDEX    INDEXLOC
003088:
003089: 01,2601           30046                           CA       X1
003090: 01,2602           50107        MSTORE1            INDEX    POLISH
003091: 01,2603           54000                           TS       0
003092: 01,2604           16115                           TCF      DANZIG
003093:


003095: 01,2605           02642        XCHX               TC       15ADRERS                              #  EXCHANGE INDEX REGISTER WITH ERASABLE.
003096:
003097: 01,2606           50107                           INDEX    POLISH
003098: 01,2607           30000                           CA       0
003099: 01,2610           50120                           INDEX    INDEXLOC
003100: 01,2611           56046                           XCH      X1
003101: 01,2612           12602                           TCF      MSTORE1
003102:
003103: 01,2613           02642        XAD                TC       15ADRERS                              #  ADD ERASABLE TO INDEX REGISTER.
003104: 01,2614           50107                           INDEX    POLISH
003105: 01,2615           30000                           CA       0
003106: 01,2616           50120        XAD2               INDEX    INDEXLOC
003107: 01,2617           26046                           ADS      X1                                    #  IGNORING OVERFLOWS.
003108: 01,2620           16115                           TCF      DANZIG
003109:
003110:
003111: 01,2621           02654        INCR               TC       TAGSUB                                #  INCREMENT INDEX REGISTER.
003112: 01,2622           30107                           CA       POLISH
003113: 01,2623           12616                           TCF      XAD2
003114:
003115: 01,2624           02642        XSU                TC       15ADRERS                              #  SUBTRACT ERASABLE FROM INDEX REGISTER.
003116: 01,2625           50107                           INDEX    POLISH
003117: 01,2626           40000                           CS       0
003118: 01,2627           12616                           TCF      XAD2
003119:
003120:
003121:
003122: 01,2630           02654        TIX                TC       TAGSUB                                #  BRANCH AND DECREMENT ON INDEX.
003123: 01,2631           50120                           INDEX    INDEXLOC
003124: 01,2632           40050                           CS       S1
003125: 01,2633           50120                           INDEX    INDEXLOC
003126: 01,2634           60046                           AD       X1
003127: 01,2635           00006                           EXTEND                                         #  NO OPERATION IF DECREMENTED INDEX IS
003128: 01,2636           66115                           BZMF     DANZIG                                #  NEGATIVE OR ZERO.
003129:
003130: 01,2637           50120        DOTIXBR            INDEX    INDEXLOC
003131: 01,2640           56046                           XCH      X1                                    #  IGNORING OVERFLOWS.
003132:
003133:
003134: 01,2641           16715                           TCF      GOTO                                  #  DO THE BRANCH USING THE CADR IN POLISH.
003135:


003137:                                                                                                  #           SUBROUTINE TO CONVERT AN ERASABLE ADDRESS (11 BITS) TO AN EBANK SETTING AND SUBADDRESS.
003138:
003139: 01,2642           40107        15ADRERS           CS       POLISH
003140: 01,2643           65371                           AD       DEC45
003141: 01,2644           10000                           CCS      A                                     #  DOES THE ADDRESS POINT TO THE WORK AREA?
003142: 01,2645           30110                           CA       FIXLOC                                #  YES.  ADD FIXLOC.  EBANK OK AS IS.
003143:
003144: 01,2646           12653                           TCF      +5
003145:
003146: 01,2647           35370                           CA       OCT1400                               #  NO.  SET EBANK & MAKE UP SUBADDRESS.
003147: 01,2650           56107                           XCH      POLISH
003148: 01,2651           54003                           TS       EBANK
003149: 01,2652           74553                           MASK     LOW8
003150: 01,2653           26107                 +5        ADS      POLISH                                #  FALL INTO TAGSUB, AND RETURN VIA Q.
003151:
003152:                                                                                                  #           SUBROUTINE WHICH SETS THE ADDRESS OF THE SPECIFIED INDEX IN INDEXLOC. (ACTUALLY, THE ADDRESS -38D.)
003153:
003154: 01,2654           30110        TAGSUB             CA       FIXLOC
003155: 01,2655           54120                           TS       INDEXLOC
003156:
003157:
003158: 01,2656           10020                           CCS      CYR                                   #  BIT 15 SPECIFIES INDEX.
003159: 01,2657           24120                           INCR     INDEXLOC                              #  0 MEANS USE X2.
003160: 01,2660           00002                           TC       Q
003161: 01,2661           00002                           TC       Q                                     #  1 FOR X1.
003162:


003164:                                                                                                  #           MISCELLANEOUS OPERATION CODES WITH DIRECT ADDRESSES. INCLUDED HERE ARE:
003165:
003166:
003167:                                                                                                  #           1.  ITA                STORE QPRET (RETURN ADDRESS) IN ERASABLE.
003168:                                                                                                  #           2.  CALL               CALL A SUBROUTINE, LEAVING RETURN IN QPRET.
003169:                                                                                                  #           3.  RTB                RETURN TO BASIC LANGUAGE AT THE GIVEN ADDRESS.
003170:                                                                                                  #           4.  BHIZ               BRANCH IF THE HIGH ORDER OF MPAC IS ZERO (SINGLE PRECISION).
003171:                                                                                                  #           5.  BOV                BRANCH ON OVERFLOW.
003172:                                                                                                  #           6.  GOTO               SIMPLE SEQUENCE CHANGE.
003173:
003174: 01,2662           10020        RTB/BHIZ           CCS      CYR
003175: 01,2663           30107        RTB                CA       POLISH
003176: 01,2664           15246                           TCF      BANKJUMP                              #  CALL BASIC ROUTINE.
003177:
003178:
003179: 01,2665           10144        BHIZ               CCS      MPAC
003180: 01,2666           16115                           TCF      DANZIG
003181: 01,2667           16715                           TCF      GOTO
003182: 01,2670           16115                           TCF      DANZIG
003183: 01,2671           16715                           TCF      GOTO
003184:
003185: 01,2672           10111        BOV(B)             CCS      OVFIND                                #  BRANCH ON OVERFLOW TO BASIC OR INTERP.
003186: 01,2673           12675                           TCF      +2
003187: 01,2674           16115                           TCF      DANZIG
003188: 01,2675           54111                           TS       OVFIND
003189: 01,2676           10020                           CCS      CYR
003190:
003191: 01,2677           12663                           TCF      RTB                                   #  IF BASIC.
003192: 01,2700           00360        B5TOBB             OCT      360
003193: 01,2701           16715                           TCF      GOTO
003194:


003196: 01,2702           10020        BZE/GOTO           CCS      CYR                                   #  SEE WHICH OP-CODE IS DESIRED.
003197: 01,2703           06772                           TC       BRANCH                                #  DO BZE.
003198: 01,2704           16115                           TCF      DANZIG
003199: 01,2705           16715                           TCF      GOTO                                  #  DO GOTO.
003200: 01,2706           16115                           TCF      DANZIG
003201:
003202: 01,2707           10020        BPL/BMN            CCS      CYR
003203: 01,2710           12716                           TCF      BPL
003204:
003205: 01,2711           12000        5B10               DEC      5          B+10                       #  SHIFTS OP CODE IN SWITCH INSTRUCTION ADR
003206:
003207: 01,2712           06772                           TC       BRANCH                                #  DO BMN.
003208: 01,2713           16115                           TCF      DANZIG
003209: 01,2714           16115                           TCF      DANZIG
003210: 01,2715           16715                           TCF      GOTO                                  #  ONLY IF NNZ.
003211:
003212: 01,2716           06772        BPL                TC       BRANCH
003213: 01,2717           16715                           TCF      GOTO                                  #  IF POSITIVE OR ZERO.
003214: 01,2720           16715                           TCF      GOTO
003215: 01,2721           16115                           TCF      DANZIG
003216:
003217: 01,2722           10020        CALL/ITA           CCS      CYR
003218: 01,2723           16707                           TCF      CALL
003219:
003220: 01,2724           04725                           TC       CCSHOLE
003221: 01,2725           02642                           TC       15ADRERS                              #  STORE QPRET. (TAGSUB AFTER 15ADRERS IS
003222: 01,2726           50110                           INDEX    FIXLOC                                #  SLOW IN THIS CASE, BUT SAVES STORAGE.)
003223: 01,2727           30052                           CA       QPRET
003224: 01,2730           12602                           TCF      MSTORE1
003225:


003227:                                                                                                  #           THE FOLLOWING OPERATIONS ARE AVAILABLE FOR ALTERING AND TESTING INTERPRETIVE SWITCHES:
003228:
003229:                                                                                                  #  00       BONSET                 SET A SWITCH AND DO A GOTO IF IT WAS ON.
003230:                                                                                                  #  01       SETGO                  SET A SWITCH AND DO A GOTO.
003231:                                                                                                  #  02       BOFSET                 SET A SWITCH AND DO A GOTO IF IT WAS OFF
003232:                                                                                                  #  03       SET                    SET A SWITCH.
003233:
003234:                                                                                                  #  04       BONINV                 INVERT A SWITCH AND BRANCH IF IT WAS ON.
003235:                                                                                                  #  05       INVGO                  INVERT A SWITCH AND DO A GOTO.
003236:                                                                                                  #  06       BOFINV                 INVERT A SWITCH AND BRANCH IF IT WAS OFF
003237:                                                                                                  #  07       INVERT                 INVERT A SWITCH.
003238:
003239:                                                                                                  #  10       BONCLR                 CLEAR A SWITCH AND BRANCH IF IT WAS ON.
003240:                                                                                                  #  11       CLRGO                  CLEAR A SWITCH AND DO A GOTO.
003241:
003242:                                                                                                  #  12       BOFCLR                 CLEAR A SWITCH AND BRANCH IF IT WAS OFF.
003243:                                                                                                  #  13       CLEAR                  CLEAR A SWITCH.
003244:
003245:                                                                                                  #  14       BON                    BRANCH IF A SWITCH WAS ON.
003246:                                                                                                  #  16       BOFF                   BRANCH IF A SWITCH WAS OFF.
003247:
003248:
003249:
003250:                                                                                                  #           THE ADDRESS SUPPLIED WITH THE SWITCH INSTRUCTION IS INTERPRETED AS FOLLOWS:
003251:
003252:                                                                                                  #           BITS 1-4    SWITCH BIT NUMBER (1-15).
003253:                                                                                                  #           BITS 5-8    SWITCH OPERATION NUMBER.
003254:                                                                                                  #           BITS 9-     SWITCH WORD NUMBER (UP TO 64 SWITCH WORDS).
003255:
003256:                                                                                                  #           THE ADDRESS ITSELF IS MADE UP BY THE YUL SYSTEM ASSEMBLER. THE BRANCH INSTRUCTIONS REQUIRE TWO
003257:                                                                                                  #  ADDRESSES, THE SECOND TAKEN AS THE DIRECT (OR INDIRECT IF IN ERASABLE) ADDRESS OF THE BRANCH.
003258:
003259:
003260:
003261: 01,2731           35361        SWITCHES           CAF      LOW4                                  #  LEAVE THE SWITCH BIT IN SWBIT  .
003262: 01,2732           70107                           MASK     POLISH
003263: 01,2733           50000                           INDEX    A
003264: 01,2734           37737                           CAF      BIT15                                 #  (NUMBER FROM LEFT TO RIGHT.)
003265:
003266: 01,2735           54121                           TS       SWBIT
003267:
003268: 01,2736           37747                           CAF      BIT7                                  #  LEAVE THE SWITCH NUMBER IN SWWORD.
003269: 01,2737           00006                           EXTEND
003270: 01,2740           70107                           MP       POLISH
003271: 01,2741           54120                           TS       SWWORD
003272:
003273: 01,2742           00004                           INHINT                                         #  DURING SWITCH CHANGE SO RUPT CAN USE TOO
003274: 01,2743           50000                           INDEX    A                                     #  LEAVE THE SWITCH WORD ITSELF IN L.
003275: 01,2744           30074                           CA       STATE
003276:
003277: 01,2745           54002                           TS       Q                                     #  Q WILL BE USED AS A CHANNEL.


003279: 01,2746           37743                           CAF      BIT11
003280: 01,2747           00006                           EXTEND                                         #  DISPATCH SWITCH BIT OPERATION AS IN BITS
003281: 01,2750           70107                           MP       POLISH                                #  7-8 OF POLISH.
003282: 01,2751           73011                           MASK     B3TOB4                                #  GETS 4X2-BIT CODE.
003283: 01,2752           50000                           INDEX    A
003284: 01,2753           12754                           TCF      +1
003285:
003286:
003287: 01,2754           30121                 +1        CA       SWBIT                                 #  00 - SET SWITCH IN QUESTION.
003288: 01,2755           00006                           EXTEND
003289: 01,2756           04002                           ROR      Q
003290: 01,2757           12766                           TCF      SWSTORE
003291:
003292: 01,2760           30121                 +5        CA       SWBIT                                 #  01 - INVERT SWITCH.
003293: 01,2761           00006                           EXTEND
003294: 01,2762           06002                           RXOR     Q
003295: 01,2763           12766                           TCF      SWSTORE
003296:
003297: 01,2764           40121                 +9D       CS       SWBIT                                 #  10 - CLEAR.
003298:
003299: 01,2765           70002                           MASK     Q
003300: 01,2766           50120        SWSTORE            INDEX    SWWORD
003301: 01,2767           54074                           TS       STATE                                 #  NEW SWITCH WORD.
003302:


003304: 01,2770           00003                 +13D      RELINT                                         #  11 - NOOP.
003305: 01,2771           37741                           CAF      BIT13
003306:
003307: 01,2772           00006                           EXTEND                                         #  DISPATCH SEQUCE CHANGING OR BRANCHING
003308: 01,2773           70107                           MP       POLISH                                #  CODE.
003309: 01,2774           73011                           MASK     B3TOB4
003310: 01,2775           50000                           INDEX    A
003311: 01,2776           12777                           TCF      +1                                    #  ORIGINALLY STORED IN BITS 5-6.
003312:
003313: 01,2777           40002                 +1        CS       Q                                     #  00 - BRANCH IF ON.
003314: 01,3000           70121        TEST               MASK     SWBIT
003315: 01,3001           10000                           CCS      A
003316: 01,3002           13012                           TCF      SWSKIP
003317:
003318: 01,3003           16764                 +5        TCF      SWBRANCH                              #  01 - GO TO.
003319:
003320: 01,3004           13012                           TCF      SWSKIP                                #  HERE ONLY ON BIT 15.
003321:
003322: 01,3005           04725                           TC       CCSHOLE
003323: 01,3006           04725                           TC       CCSHOLE
003324:
003325: 01,3007           30002                 +9D       CA       Q                                     #  10 - BRANCH IF OFF.
003326: 01,3010           13000                           TCF      TEST
003327:
003328: 01,3011           00014        B3TOB4             OCT      14
003329:
003330:
003331: 01,3012           24154        SWSKIP             INCR     LOC
003332:
003333: 01,3013  01,2731               SW/                EQUALS   SWITCHES
003334:
003335: 01,3013           16115                 +13D      TCF      DANZIG                                #  11 - NOOP.

End of include-file INTERPRETER.agc.  Parent file is MAIN.agc


