
Source Code


000002:                                                                                                  ## Copyright:   Public domain.
000003:                                                                                                  ## Filename:    INTEGRATION_INITIALIZATION.agc
000004:                                                                                                  ## Purpose:     A section of Sunburst revision 37, or Shepatin revision 0.
000005:                                                                                                  ##              It is part of an early development version of the software
000006:                                                                                                  ##              for Apollo Guidance Computer (AGC) on the unmanned Lunar
000007:                                                                                                  ##              Module (LM) flight Apollo 5. Sunburst 37 was the program
000008:                                                                                                  ##              upon which Don Eyles's offline development program Shepatin
000009:                                                                                                  ##              was based; the listing herein transcribed was actually for
000010:                                                                                                  ##              the equivalent revision 0 of Shepatin.
000011:                                                                                                  ##              This file is intended to be a faithful transcription, except
000012:                                                                                                  ##              that the code format has been changed to conform to the
000013:                                                                                                  ##              requirements of the yaYUL assembler rather than the
000014:                                                                                                  ##              original YUL assembler.
000015:                                                                                                  ## Reference:   pp. 713-722
000016:                                                                                                  ## Assembler:   yaYUL
000017:                                                                                                  ## Contact:     Ron Burkey <info@sandroid.org>.
000018:                                                                                                  ## Website:     www.ibiblio.org/apollo/index.html
000019:                                                                                                  ## Mod history: 2017-05-24 MAS  Created from Sunburst 120.
000020:                                                                                                  ##              2017-06-13 HG   Transcribed
000021:


000023:                                                                                                  #  AVETOMID PERFORMS THE TRANSITION FROM A THRUSTING PHASE TO A COASTING PHASE.  THE ROUTINE INITIALIZES THE
000024:                                                                                                  #  ORBITAL INTEGRATION PROGRAM AND RESCALES AND TRANSFORMS LEMS STATE VECTOR FROM THE STABLE MEMBER COORDINATE
000025:                                                                                                  #  SYSTEM USED IN AVERAGEG TO THE REFERENCE SYSTEM USED IN ORBITAL INTEGRATION DURING COAST
000026:                                                                                                  #  INPUT - LEM STATE VECTOR IN SM COORDINATE SYSTEM AND TIME
000027:                                                                                                  #     RN, POSITION IN METERS SCALED AT 2(+24)
000028:                                                                                                  #     VN, VELOCITY IN M/CSEC SCALED AT 2(+7)
000029:                                                                                                  #     PIPTIME, TIME IN CSEC CORRESPONDING TO RN, VN
000030:
000031:                                                                                                  #  OUTPUT - LEM STATE VECTOR IN REF. COORDINATE SYSTEM AND TIME
000032:                                                                                                  #     RRECT AND RCV, POSITION IN KM SCALED AT 2(+14)
000033:                                                                                                  #     VRECT AND VCV, VELOCITY IN 1/SQRT(KM) SCALED AT 2(-6)
000034:                                                                                                  #     TET, TIME IN CSEC
000035:                                                                                                  #     P-MEMORY (REFRRECT TO REFRRECT + 42)
000036:
000037:                                                                                                  #  AVETOMID CALLING SEQUENCE
000038:                                                                                                  #     L-2   EXTEND
000039:                                                                                                  #     L-1   DCA    (2CADR OF AVETOMID)
000040:                                                                                                  #     L     DXCH   Z
000041:                                                                                                  #           DELETE
000042:
000043:                                                                                                  #  NORMAL EXIT
000044:                                                                                                  #     AT L+1 OF CALLING SEQUENCE
000045:
000046: 07,2073                                           BANK     07
000047: 07,2073  E4,1400                                  EBANK=   AMEMORY
000048: 07,2073           53631        AVETOMID           DXCH     AVMIDRTN
000049: 07,2074           06103                           TC       INTPRET
000050: 07,2075           77624                           CALL                                           #  ORBITAL INTEGRATION INITIALIZATION
000051: 07,2076           16267                                    INITINT
000052: 07,2077           77775                           VLOAD
000053: 07,2100           16175                                    ZEROVEC
000054: 07,2101           02015                           STORE    TDELTAV                               #  ZERO POS DEVIATIONS
000055:
000056: 07,2102           02023                           STORE    TNUV                                  #  ZERO VEL DEVIATIONS
000057: 07,2103           02045                           STORE    TC                                    #  ALSO CLEARS TET AND XKEP
000058:
000059: 07,2104           66370        SMTOREF            AXT,1    SSP                                   #  SET UP TIX LOOP FOR STATE VEC TRANSFORM
000060: 07,2105           00014                                    12D
000061: 07,2106           00051                                    S1
000062: 07,2107           00006                                    6
000063: 07,2110           73773        SMTOREF1           VLOAD*   VXSC*                                 #  TRANSFORM STATE FROM SM TO REF SYSTEM
000064: 07,2111           01025                                    RN         +12D,1
000065: 07,2112           16217                                    SCLRAVMD   +12D,1
000066: 07,2113           72505                           VXM      VSL2
000067: 07,2114           01275                                    REFSMMAT
000068: 07,2115           06015                           STORE    RRECT      +12D,1
000069: 07,2116           06045                           STORE    RCV        +12D,1
000070:
000071: 07,2117           77500                           TIX,1    EXIT
000072: 07,2120           16110                                    SMTOREF1
000073: 07,2121           00006                           EXTEND


000075: 07,2122           31321                           DCA      PIPTIME                               #  SAVE PIPTIME
000076: 07,2123           53447                           DXCH     TET                                   #  PIPTIME UN TET
000077:
000078: 07,2124           02245                           TC       MOVETEMP                              #  TRANSFER STATE AND INIT. DATA TO P-MEM
000079: 07,2125           53631                           DXCH     AVMIDRTN
000080: 07,2126           52006                           DXCH     Z
000081: 07,2127           02400        PIPEBANK           OCT      02400                                 #  EBANK 05
000082: 07,2130           77776        TESTLOOP           EXIT                                           #  FOR DUMP.
000083:
000084: 07,2131           06103                           TC       INTPRET
000085:
000086: 07,2132           40145                           DLOAD    BOV
000087: 07,2133           02167                                    TDEC
000088: 07,2134           16135                                    +1                                    #  CLEAR OVERFLOW INDICATOR
000089:
000090: 07,2135           47025                           DSU      RTB
000091: 07,2136           02047                                    TET
000092: 07,2137           33565                                    SGNAGREE
000093: 07,2140           56261                           SL       DDV
000094: 07,2141           20214                                    11D
000095: 07,2142           17703                                    EARTHTAB   +9D
000096: 07,2143           02163                           STORE    DT/2
000097: 07,2144           51400                           BOV      ABS
000098: 07,2145           16156                                    USEMAXDT
000099: 07,2146           50025                           DSU      BMN
000100: 07,2147           16205                                    DT/2MIN
000101: 07,2150           16317                                    DECISION                              #  INTEGRATION FINISHED-DECIDE WHERE TO GO
000102: 07,2151           45215                           DAD      DSU
000103: 07,2152           16205                                    DT/2MIN
000104: 07,2153           16213                                    DT/2MAX
000105: 07,2154           77640                           BMN
000106: 07,2155           17376                                    TIMESTEP
000107: 07,2156           75345        USEMAXDT           DLOAD    SIGN
000108: 07,2157           16213                                    DT/2MAX
000109: 07,2160           02163                                    DT/2
000110: 07,2161           36163                           STCALL   DT/2
000111: 07,2162           17376                                    TIMESTEP
000112: 07,2163           00016        SCALER             DEC      14         B-14
000113:
000114: 07,2164           00004        SCALDELT           DEC      4          B-14
000115: 07,2165           00022        SCALEDT            DEC      18         B-14
000116: 07,2166           00000 05360  28SECS             2DEC     2800       B-28
000117:
000118: 07,2170           00001 24570  270SECS            2DEC     27000      B-28
000119:
000120: 07,2172           00000 00310  2SECS              2DEC     200        B-28
000121:
000122: 07,2174           00000 00000  ZEROVEC            2DEC     0          B-28
000123:
000124: 07,2176           00000 00000                     2DEC     0          B-28
000125:
000126: 07,2200           00000 00000                     2DEC     0          B-28
000127:


000129:                                                                                                  #  THE ORDER OF THE SIX FOLLOWING CONSTANTS CANNOT BE CHANGED
000130:
000131: 07,2202           20304 23351  SCLRAVMD           2DEC     .512                                  #  METERS TO KM  1/2(1024/1000)
000132:
000133: 07,2204           00000 17565  DT/2MIN            2DEC     .00003
000134:
000135: 07,2206           37200 00000  SCLRMDAV           2DEC     1000       B-10                       #  KM TO METERS
000136:
000137: 07,2210           24605 15301  SCLVAVMD           2DEC     .64876819                             #  METERS/CSEC TO 1/SQR(KM)
000138:
000139: 07,2212           12317 00451  DT/2MAX            2DEC     .65027077  B-1                        #  270 SEC MAX TIME STEP
000140:
000141: 07,2214           30523 00147  SCLVMDAV           2DEC     .7706913                              #  1/SQR(KM) TO METERS/CSEC
000142:


000144:                                                                                                  #  STATEINT IS CALLED UP UNDER A JOB EVERY 539 SECONDS DURING A COASTING   PHASE BY THE MISSION SCHEDULING
000145:                                                                                                  #  MAINTENANCE ROUTINE TO MAINTAIN THE LEMS STATE VECTOR WITHIN TWO INTEGRATION STEPS (540 SECONDS) OF THE CURRENT
000146:
000147:                                                                                                  #  TIME (TIME2).  THE ROUTINE COMPARES TIME2 WITH TET (THAT TIME CORRESPONDING TO THE STATE VECTOR IN STORAGE).
000148:                                                                                                  #  IF TET LAGS BY 270 SECONDS OR MORE, THE ORBITAL INTEGRATION PROGRAM IS  CALLED UP AND THE STATE IS UPDATED TO
000149:                                                                                                  #  TIME2.  IF TET DOES NOT LAG, STATEINT IS TERMINATED BY ENDOFJOB.
000150:
000151:                                                                                                  #  INPUT-STATEINT ASSUMES THAT THE COASTING IN PROGRESS WAS INITIALIZED BY
000152:                                                                                                  #     THE AVETOMID ROUTINE.
000153:
000154: 07,2216           00006        STATEINT           EXTEND
000155: 07,2217           30025                           DCA      TIME2                                 #  GET CURRENT TIME IN TDEC
000156: 07,2220           53567                           DXCH     TDEC
000157: 07,2221           06027                           TC       FLAG2UP                               #  SET ORBITAL INTEGRATION FLAG
000158: 07,2222           00100                           OCT      100
000159: 07,2223           02256                           TC       MOVEPERM                              #  BRING STATE FROM PMEMORY
000160: 07,2224           06103                           TC       INTPRET
000161:
000162: 07,2225           45345                           DLOAD    DSU                                   #  FORM TDEC-TET
000163: 07,2226           02167                                    TDEC
000164: 07,2227           02047                                    TET
000165: 07,2230           45240                           BMN      DSU                                   #  IS STATE LAGGING
000166: 07,2231           16243                                    NOINT                                 #  NO, TET GREATER THAN TDEC
000167: 07,2232           16171                                    270SECS
000168: 07,2233           66240                           BMN      SSP
000169: 07,2234           16243                                    NOINT                                 #  NO, TET GREATER THAN TDEC-270 SECS.
000170:
000171: 07,2235           02201                                    MEASMODE                              #  BRING TO CURRENT TIME-SET MEASMODE (-1)
000172: 07,2236           77776                           DEC      -1         B-14
000173: 07,2237           77624                           CALL
000174: 07,2240           16267                                    INITINT                               #  INITIALIZE BRANCH REGS
000175: 07,2241           77650                           GOTO
000176: 07,2242           16130                                    TESTLOOP                              #  START INTEGRATION FROM TET TO TDEC
000177: 07,2243           77776        NOINT              EXIT                                           #  TEMPORARY STATEINT EXIT
000178: 07,2244           12474                           TCF      INTOUT                                #  NO INTEGRATION, TERMINATE THIS JOB
000179:


000181:                                                                                                  #  MOVETEMP TRANSFERS RRECT TO RRECT +42 FROM A-MEMORY TO P-MEMORY
000182:
000183:                                                                                                  #  CALLING SEQUENCE
000184:                                                                                                  #     L   TC   MOVETEMP
000185:
000186:                                                                                                  #  NORMAL EXIT AT L+1
000187: 07,2245           32333        MOVETEMP           CAF      FORTYTWO
000188: 07,2246           55605                           TS       DIFEQCNT                              #  INITIALIZE INDEX
000189:
000190: 07,2247           51605                           INDEX    DIFEQCNT
000191: 07,2250           31400                           CA       RRECT                                 #  PICK UP RRECT TO RRECT +42 FROM A-MEMORY
000192: 07,2251           51605                           INDEX    DIFEQCNT
000193: 07,2252           55222                           TS       REFRRECT                              #  STORE IN REFRRECT TO REFRRECT +42 IN P-M
000194: 07,2253           11605                           CCS      DIFEQCNT                              #  IS TRANSFER COMPLETE
000195: 07,2254           12246                           TCF      MOVETEMP   +1                         #  NO-LOOP AGAIN.
000196: 07,2255           00002                           TC       Q                                     #  TRANSFER COMPLETE-RETURN
000197:
000198:                                                                                                  #  MOVEPERM TRANSFERS REFRRECT TO REFRRECT +42 FROM PMEMORY TO A-MEMORY
000199:
000200: 07,2256           32333        MOVEPERM           CAF      FORTYTWO
000201: 07,2257           55605                           TS       DIFEQCNT
000202: 07,2260           51605                           INDEX    DIFEQCNT
000203: 07,2261           31222                           CA       REFRRECT
000204: 07,2262           51605                           INDEX    DIFEQCNT
000205: 07,2263           55400                           TS       RRECT
000206: 07,2264           11605                           CCS      DIFEQCNT
000207: 07,2265           12257                           TCF      MOVEPERM   +1
000208: 07,2266           00002                           TC       Q
000209:
000210: 07,2267           66331        INITINT            SSP      SSP
000211: 07,2270           02230                                    PBODY                                 #  EARTHTAB INTO PBOAY
000212: 07,2271           17671                                    EARTHTAB
000213:
000214: 07,2272           02205                                    STEPEXIT                              #  TESTLOOP INTO STEPEXIT
000215: 07,2273           16130                                    TESTLOOP
000216: 07,2274           43014                           CLEAR    CLEAR
000217: 07,2275           00262                                    MIDFLAG                               #  ZERO ON 206
000218: 07,2276           00263                                    MOONFLAG                              #  ZERO ON 206
000219: 07,2277           43414                           CLEAR    RVQ
000220: 07,2300           00260                                    WMATFLAG                              #  W-MATRIX NOT USED ON 206
000221:


000223:                                                                                                  #  MIDTOAVE PERFORMS THE STATE VECTOR TRANSITION FROM A COASTING PHASE
000224:                                                                                                  #  USING THE ORBITAL INTEGRATION PROGRAMS TO A TRUSTING PHASE WHICH USES
000225:                                                                                                  #  AVERAGEG INTEGRATION.  THE ROUTINE RESCALES AND TRANSFORMS THE STATE
000226:                                                                                                  #  VECTOR AT TIGN-30, TIGN-2 AND TIGN FROM REFERENCE COORDINATES TO
000227:                                                                                                  #  STABLE MEMBER COORDINATES AS DIRECTED BY THE DECISION ROUTINE
000228:
000229:                                                                                                  #  INPUT-MIDTOAVE ASSUMES THAT THE COASTING INTEGRATION WAS INITIALIZED
000230:                                                                                                  #     BY THE AVETOMID ROUTINE,  STATE IN REF. COORD. IN PMEMORY.
000231:
000232:                                                                                                  #     RRECT, RCV-POSITION IN KM SCALED AT 2(+14)
000233:                                                                                                  #     VRECT, VCV- VELOCITY IN 1/SQRT(KM) SCALED AT 2(-6)
000234:                                                                                                  #     TET, TIME IN CSECS.
000235:
000236:                                                                                                  #  OUTPUT-STATE IN STABLE MEMBER COORDINATES
000237:
000238:                                                                                                  #  AT TIGN-30
000239:                                                                                                  #     RAVEGON, POSITION IN METERS SCALED IN 2(+24)
000240:                                                                                                  #     VAVEGON, VELOCITY IN METERS/CSEC SCALED AT 2(+7)
000241:
000242:                                                                                                  #  AT TIGN-2
000243:                                                                                                  #     RIG-2SEC, POSITION IN METERS SCALED AT 2(+24)
000244:
000245:                                                                                                  #  AT TIGN
000246:
000247:                                                                                                  #     RIGNTION, POSITION IN METERS SCALED AT 2(+24)
000248:                                                                                                  #     VIGNTION, VELOCITY IN METERS/CSEC SCALED AT 2(+7)
000249:
000250:                                                                                                  #  CALLING SEQUENCE
000251:                                                                                                  #     (COMPUTE TDEC=TIME OF IGNITION-30 SECS.)
000252:                                                                                                  #     L-2   EXTEND
000253:                                                                                                  #     L-1   DCA    (2CADR OF MIDTOAVE)
000254:                                                                                                  #     L     DXCH   Z
000255:
000256:                                                                                                  #  NORMAL EXIT
000257:                                                                                                  #     L+1 OF CALLING SEQUENCE
000258:
000259: 07,2301           53631        RVUPDATE           DXCH     AVMIDRTN
000260: 07,2302           37755                           CAF      BIT1                                  #  SET MEASMODE TO +1 TO INTEGRATE STATE
000261:
000262: 07,2303           12306                           TCF      MIDTOAVE   +2                         #  TO TDEC AND STORED IN RIGNTION ONLY
000263:
000264: 07,2304           53631        MIDTOAVE           DXCH     AVMIDRTN
000265: 07,2305           37762                           CA       NEG0
000266: 07,2306           55600                           TS       MEASMODE                              #  SET MEASMODE (-0) TO INTEGRATE TO IG-30
000267: 07,2307           06027                           TC       FLAG2UP                               #  SET ORBITAL INTEGRATION FLAG
000268: 07,2310           00100                           OCT      100
000269: 07,2311           02256                           TC       MOVEPERM                              #  BRING STATE FROM PMEMORY
000270: 07,2312           06103                           TC       INTPRET
000271: 07,2313           77624                           CALL                                           #  INITIALIZE ORBITAL INTEGRATION REGS
000272: 07,2314           16267                                    INITINT
000273: 07,2315           77650                           GOTO
000274: 07,2316           16130                                    TESTLOOP                              #  GO TO ORBITAL INTEGRATION
000275:


000277:                                                                                                  #  THE DECISION ROUTINE DETERMINES THE ACTION TO BE TAKEN AFTER ORBITAL
000278:                                                                                                  #  INTEGRATION HAS UPDATED THE STATE VECTOR TO THE TIME INDICATED
000279:                                                                                                  #  BY TDEC.  THE ACTION TAKEN IS BASED ON THE CONTENTS OF MEASMODE,
000280:
000281:                                                                                                  #  C(MEASMODE)=(-0), STATE INTEGRATED (REF. COORD.) TO TIGN-30, SET
000282:                                                                                                  #              MEASMODE=(+0), SET TDEC=TIGN-2SECS.
000283:                                                                                                  #  C(MEASMODE)=(+0), POSITION VECTOR INTEGRATED TO TIGN-2, SET MEASMODE=,+1
000284:                                                                                                  #              SET TDEC=TIGN
000285:                                                                                                  #  C(MEASMODE)=(+1), STATE INTEGRATED TO TIGN, TRANSFORM STATE FROM REF TO
000286:                                                                                                  #              SM COORD. SYSTEM AND RETURN TO MISSION PROGRAM
000287:                                                                                                  #  C(MEASMODE)=(-1), STATE INTEGRATED TO TDEC DURING COAST PHASE, TERMINATE
000288:                                                                                                  #              STATEINT JOB INITIATED BY MISSION SCHEDULING PACKAGE
000289:
000290: 07,2317           77776        DECISION           EXIT
000291: 07,2320           11600                           CCS      MEASMODE
000292: 07,2321           12324                           TCF      +3                                    #  STATE IN REF  COOR AT IGN
000293: 07,2322           12324                           TCF      +2                                    #  STATE IN REF COORD AT IGN-2
000294: 07,2323           12427                           TCF      COASTINT                              #  COAST INTEGRATION STEP COMPLETE
000295: 07,2324           06103                           TC       INTPRET
000296: 07,2325           77624                           CALL
000297:
000298: 07,2326           17426                                    RECTIFY                               #  RECTIFY AT IGN-30,IGN-2,IGN
000299:
000300: 07,2327           77776                           EXIT
000301: 07,2330           11600                           CCS      MEASMODE
000302: 07,2331           12403                           TCF      REFTOSM                               #  STATE AT TIGN-FINISH UP MIDTOAVE
000303: 07,2332           12364                           TCF      IGN-2SEC                              #  POS AT TIGN-2, DO TIGN NEXT
000304: 07,2333           00051        FORTYTWO           DEC      41         B-14
000305: 07,2334           12335                           TCF      AVEGON                                #  STATE AT TIGN-30, DO TIGN-2 NEXT
000306:
000307: 07,2335           06103        AVEGON             TC       INTPRET
000308: 07,2336           66370                           AXT,1    SSP                                   #  SET LOOP
000309: 07,2337           00014                                    12D
000310: 07,2340           00051                                    S1
000311: 07,2341           00006                                    6
000312: 07,2342           73773        SPECPLS1           VLOAD*   VXSC*
000313: 07,2343           02015                                    RRECT      +12D,1
000314: 07,2344           16223                                    SCLRMDAV   +12D,1                     #    REF TO SM SCALE FACTOR
000315: 07,2345           76521                           MXV      VSL1
000316: 07,2346           01275                                    REFSMMAT
000317: 07,2347           06131                           STORE    RAVEGON    +12D,1
000318: 07,2350           71300                           TIX,1    DLOAD
000319: 07,2351           16342                                    SPECPLS1
000320: 07,2352           02167                                    TDEC                                  #  TDEC NOW=TIGN-30
000321:
000322: 07,2353           01321                           STORE    PIPTIME                               #  SAVE TIGN-30 IN PIPTIME FOR AVERAGEG
000323: 07,2354           02111                           STORE    TAVEGON                               #  TIME TIG-30 FOR DWNLINK IN NORMLIZE
000324: 07,2355           77615                           DAD
000325: 07,2356           16167                                    28SECS                                #  TDEC + 28SECS
000326: 07,2357           02167                           STORE    TDEC                                  #  TDEC SET TIGN-2
000327: 07,2360           52131                           SSP      GOTO
000328: 07,2361           02201                                    MEASMODE                              #  SET MEASMODE=(+0)
000329:


000331: 07,2362           00000                                    0
000332: 07,2363           16130                                    TESTLOOP                              #  GO INTEGRATE STATE TO IGN-2
000333:
000334: 07,2364           06103        IGN-2SEC           TC       INTPRET
000335: 07,2365           74375                           VLOAD    VXSC                                  #  TRANSFORM POS AT IGN-2 FROM REF TO SM
000336: 07,2366           02001                                    RRECT
000337: 07,2367           16207                                    SCLRMDAV
000338: 07,2370           76521                           MXV      VSL1
000339: 07,2371           01275                                    REFSMMAT
000340: 07,2372           16131                           STODL    RIG-2SEC                              #  POS IN SM COORD. AT IGN-2
000341: 07,2373           02167                                    TDEC
000342: 07,2374           77615                           DAD
000343: 07,2375           16173                                    2SECS
000344: 07,2376           02167                           STORE    TDEC                                  #  TDEC SET TIGN
000345: 07,2377           52131                           SSP      GOTO
000346: 07,2400           02201                                    MEASMODE                              #  SET MEASMODE=(+1)
000347: 07,2401           00001                                    1
000348: 07,2402           16130                                    TESTLOOP                              #  GO INTEGRATE STATE TO TIGN
000349:


000351:
000352: 07,2403           06045        REFTOSM            TC       FLAG2DWN                              #  REMOVE ORBITAL INTEGRATION GLAG
000353: 07,2404           00100                           OCT      100
000354: 07,2405           06103                           TC       INTPRET
000355: 07,2406           66370                           AXT,1    SSP                                   #  SET UP TIX LOOP
000356: 07,2407           00014                                    12D                                   #  12 IN X1
000357: 07,2410           00051                                    S1                                    #  6 IN S1
000358: 07,2411           00006                                    6
000359: 07,2412           73773        REFTOSM1           VLOAD*   VXSC*                                 #  TRANSFORM STATE AT TIGN FROM REF TO SM
000360:
000361: 07,2413           02015                                    RRECT      +12D,1
000362: 07,2414           16223                                    SCLRMDAV   +12D,1                     #  REF TO SM SCALE FACTOR
000363: 07,2415           76521                           MXV      VSL1
000364: 07,2416           01275                                    REFSMMAT
000365: 07,2417           06015                           STORE    RIGNTION   +12D,1                     #    STATE AT TIGN IN SM COORDINATES
000366: 07,2420           77500                           TIX,1    EXIT
000367: 07,2421           16412                                    REFTOSM1
000368: 07,2422           00006                           EXTEND                                         #  PLAY SAFE WITH BASIC********************
000369: 07,2423           31447                           DCA      TET                                   #  ****************************************
000370: 07,2424           53670                           DXCH     TIGN                                  #  STATE TIME FOR DOWNLINK IN VPATCHER
000371: 07,2425           53631                           DXCH     AVMIDRTN
000372: 07,2426           52006                           DXCH     Z
000373:                                                                                                  #  THE COASTINT ROUTINE TERMINATES THE ORBITAL INTEGRATION JOB SET BY
000374:                                                                                                  #  MISSION SCHEDULING ROUTINE EVERY 539 SECONDS DURING COASTING PHASES.
000375:                                                                                                  #  THE ROUTINE TRANSFERS THE STATE VECTOR AND ALL OTHER ORBITAL INTEGRATION
000376:                                                                                                  #  QUANTITIES TO P-MEMORY.  IT FORMS A TOTAL STATE VECTOR AND TRANSFORMS IT
000377:                                                                                                  #  TO STABLE MEMBER COORDINATES AND STORES IT WITH TIME IN RN, VN AND
000378:                                                                                                  #  STATIME FOR DOWNLINK.  THE ROUTINE THEN REMOVES THE INTEGRATION FLAG
000379:                                                                                                  #  TO ALLOW GROUND UPDATE OF THE STATE VECTOR AND DOES ENDOFJOB.
000380:
000381: 07,2427           02245        COASTINT           TC       MOVETEMP
000382: 07,2430           06103                           TC       INTPRET
000383: 07,2431           40575                           VLOAD    VSR8                                  #  FORM TOTAL STATE VECTOR
000384:
000385: 07,2432           01237                                    DELTAV
000386: 07,2433           53342                           VSR2     VAD
000387: 07,2434           01253                                    REFRCV
000388: 07,2435           26001                           STOVL    RRECT
000389: 07,2436           01245                                    NUV
000390: 07,2437           53202                           VSR8     VAD
000391: 07,2440           01261                                    REFVCV
000392: 07,2441           02007                           STORE    VRECT                                 #  TOTAL VEL. VECTOR
000393:
000394: 07,2442           66370                           AXT,1    SSP                                   #  SET TIX LOOP TO TRANSFORM STATE TO SM
000395: 07,2443           00014                                    12D
000396: 07,2444           00051                                    S1
000397: 07,2445           00006                                    6
000398: 07,2446           73773        TRANTOSM           VLOAD*   VXSC*                                 #  TRANSFORM STATE AND RE-STORE IN RRECT
000399: 07,2447           02015                                    RRECT      +12D,1
000400: 07,2450           16223                                    SCLRMDAV   +12D,1
000401: 07,2451           76521                           MXV      VSL1
000402: 07,2452           01275                                    REFSMMAT
000403: 07,2453           06015                           STORE    RRECT      +12D,1                     #  STATE IN SM SYSTEM
000404:


000406: 07,2454           77700                           TIX,1
000407: 07,2455           16446                                    TRANTOSM
000408: 07,2456           77776                           EXIT
000409:
000410: 07,2457           00004                           INHINT                                         #  INHIBIT INTERUPT TO STORE STATE IN RN
000411: 07,2460           37756                           CAF      ELEVEN                                #  INITIALIZE INDEX TO DEC 11
000412: 07,2461           54070        STATORN            TS       RUPTREG1
000413: 07,2462           50070                           INDEX    RUPTREG1
000414: 07,2463           31400                           CA       RRECT                                 #  PICK RRECT + NEXT 11 REGS
000415: 07,2464           50070                           INDEX    RUPTREG1
000416: 07,2465           55010                           TS       RN                                    #  JAM IN RN TO RN+11 FOR DOWNLINK
000417: 07,2466           10070                           CCS      RUPTREG1
000418: 07,2467           12461                           TCF      STATORN
000419: 07,2470           00006                           EXTEND
000420:
000421: 07,2471           31271                           DCA      TE                                    #  GET STATE TIME
000422: 07,2472           53341                           DXCH     STATIME
000423: 07,2473           00003                           RELINT                                         #  STATE AND TIME IN DOWNLINK REGS
000424:
000425: 07,2474           06045        INTOUT             TC       FLAG2DWN                              #  REMOVE ORBITAL INTEGRATION FLAG
000426: 07,2475           00100                           OCT      100
000427:
000428: 07,2476           05605                           TC       ENDOFJOB

End of include-file INTEGRATION_INITIALIZATION.agc.  Parent file is MAIN.agc


