
Source Code


000002:                                                                                                  ## Copyright:   Public domain.
000003:                                                                                                  ## Filename:    INTERRUPT_LEAD_INS.agc
000004:                                                                                                  ## Purpose:     A section of Sunburst revision 37, or Shepatin revision 0.
000005:                                                                                                  ##              It is part of an early development version of the software
000006:                                                                                                  ##              for Apollo Guidance Computer (AGC) on the unmanned Lunar
000007:                                                                                                  ##              Module (LM) flight Apollo 5. Sunburst 37 was the program
000008:                                                                                                  ##              upon which Don Eyles's offline development program Shepatin
000009:                                                                                                  ##              was based; the listing herein transcribed was actually for
000010:                                                                                                  ##              the equivalent revision 0 of Shepatin.
000011:                                                                                                  ##              This file is intended to be a faithful transcription, except
000012:                                                                                                  ##              that the code format has been changed to conform to the
000013:                                                                                                  ##              requirements of the yaYUL assembler rather than the
000014:                                                                                                  ##              original YUL assembler.
000015:                                                                                                  ## Reference:   pp. 54-55
000016:                                                                                                  ## Assembler:   yaYUL
000017:                                                                                                  ## Contact:     Ron Burkey <info@sandroid.org>.
000018:                                                                                                  ## Website:     www.ibiblio.org/apollo/index.html
000019:                                                                                                  ## Mod history: 2017-05-24 MAS  Created from Sunburst 120.
000020:                                                                                                  ##              2017-05-27 HG   Transcribed
000021:
000022:


000024:    4000                                           SETLOC   4000
000025:
000026:    4000           00004                           INHINT                                         #  GO
000027:    4001           34054                           CAF      GOBB
000028:    4002           56006                           XCH      BBANK
000029:    4003           12142                           TCF      GOPROG
000030:
000031:    4004           52011                           DXCH     ARUPT                                 #  T6RUPT
000032:    4005           00006                           EXTEND
000033:    4006           35040                           DCA      T6ADR
000034:    4007           52006                           DTCB
000035:
000036:    4010           52011                           DXCH     ARUPT                                 #  T5RUPT
000037:    4011           00006                           EXTEND
000038:    4012           31001                           DCA      T5ADR
000039:    4013           52006                           DTCB
000040:
000041:    4014           52011                           DXCH     ARUPT                                 #  T3RUPT
000042:    4015           34056                           CAF      T3RPTBB
000043:    4016           56006                           XCH      BBANK
000044:    4017           13530                           TCF      T3RUPT
000045:
000046:    4020           52011                           DXCH     ARUPT                                 #  T4RUPT
000047:    4021           34063                           CAF      T4RPTBB
000048:    4022           56006                           XCH      BBANK
000049:    4023           12000                           TCF      T4RUPT
000050:
000051:    4024           52011                           DXCH     ARUPT                                 #  KEYRUPT1
000052:    4025           34057                           CAF      KEYRPTBB
000053:    4026           56006                           XCH      BBANK
000054:    4027           13506                           TCF      KEYRUPT1
000055:
000056:    4030           52011                           DXCH     ARUPT                                 #  KEYRUPT2
000057:    4031           34060                           CAF      MKRUPTBB
000058:    4032           56006                           XCH      BBANK
000059:    4033           13233                           TCF      MARKRUPT
000060:
000061:    4034           52011                           DXCH     ARUPT                                 #  UPRUPT
000062:    4035           34057                           CAF      UPRPTBB
000063:    4036           56006                           XCH      BBANK
000064:    4037           13526                           TCF      UPRUPT
000065:
000066:    4040           52011                           DXCH     ARUPT                                 #  DOWNRUPT
000067:    4041           34061                           CAF      DWNRPTBB
000068:    4042           56006                           XCH      BBANK
000069:    4043           12117                           TCF      DODOWNTM
000070:
000071:    4044           52011                           DXCH     ARUPT                                 #  RADAR RUPT
000072:    4045           34062                           CAF      RDRPTBB
000073:    4046           56006                           XCH      BBANK
000074:
000075:


000077:    4047           15754                           TCF      NOQRSM     +1                         #  WAS TCF RADAREAD (NO RADAR IN 206).
000078:
000079:                                                                                                  #  TRAPS 31B AND 32 SHOULD NEVER BE SET. THEREFORE-
000080:                                                                                                  #  RUPT 10 WILL ALWAYS REFER TO THE HAND CONTROLLER LPD OR MINIMUM IMPULSE
000081:                                                                                                  #  USE. SEE GEORGE CHERRY FOR RATIONALE REGARDING THE AFORESAID.
000082:
000083:    4050           52011                           DXCH     ARUPT                                 #  RUPT10 USED FOR RHC MINIMP MODE ONLY.
000084:    4051           37754                           CAF      TWO
000085:    4052           55007                           TS       DELAYCTR
000086:    4053           15755                           TCF      NOQBRSM
000087:
000088:    4054  E3,1400                                  EBANK=   LST1                                  #  RESTART USES E0, E3
000089:    4054           02003        GOBB               BBCON    GOPROG
000090:
000091:    4055     0025                                  EBANK=   TIME1
000092:    4055           04000        T6RPTBB            BBCON    RESUME                                #  ***FIX LATER***
000093:
000094:    4056  E3,1400                                  EBANK=   LST1
000095:    4056           02003        T3RPTBB            BBCON    T3RUPT
000096:
000097:    4057     0073                                  EBANK=   KEYTEMP1
000098:    4057           26000        KEYRPTBB           BBCON    KEYRUPT1
000099:
000100:    4060  E3,1467                                  EBANK=   AOTAZ
000101:    4060           26003        MKRUPTBB           BBCON    MARKRUPT
000102:
000103:    4061     4057               UPRPTBB            =        KEYRPTBB
000104:
000105:    4061  E7,1404                                  EBANK=   DNTMBUFF
000106:    4061           32007        DWNRPTBB           BBCON    DODOWNTM
000107:
000108:    4062     0413                                  EBANK=   RADMODES
000109:    4062           20001        RDRPTBB            BBCON    RADAREAD
000110:
000111:    4063  E6,1404                                  EBANK=   M11
000112:    4063           24006        T4RPTBB            BBCON    T4RUPTA

End of include-file INTERRUPT_LEAD_INS.agc.  Parent file is MAIN.agc


