
Source Code


000002:                                                                                                  ## Copyright:   Public domain.
000003:                                                                                                  ## Filename:    INTER-BANK_COMMUNICATION.agc
000004:                                                                                                  ## Purpose:     A section of Sunburst revision 37, or Shepatin revision 0.
000005:                                                                                                  ##              It is part of an early development version of the software
000006:                                                                                                  ##              for Apollo Guidance Computer (AGC) on the unmanned Lunar
000007:                                                                                                  ##              Module (LM) flight Apollo 5. Sunburst 37 was the program
000008:                                                                                                  ##              upon which Don Eyles's offline development program Shepatin
000009:                                                                                                  ##              was based; the listing herein transcribed was actually for
000010:                                                                                                  ##              the equivalent revision 0 of Shepatin.
000011:                                                                                                  ##              This file is intended to be a faithful transcription, except
000012:                                                                                                  ##              that the code format has been changed to conform to the
000013:                                                                                                  ##              requirements of the yaYUL assembler rather than the
000014:                                                                                                  ##              original YUL assembler.
000015:                                                                                                  ## Reference:   pp. 888-892
000016:                                                                                                  ## Assembler:   yaYUL
000017:                                                                                                  ## Contact:     Ron Burkey <info@sandroid.org>.
000018:                                                                                                  ## Website:     www.ibiblio.org/apollo/index.html
000019:                                                                                                  ## Mod history: 2017-05-24 MAS  Created from Sunburst 120.
000020:                                                                                                  ##              2017-06-03 TVB  Transcribed.
000021:                                                                                                  ##              2017-06-14 HG   Fix opcode CA -> DCA
000022:                                                                                                  ##                              Add missing EXTEND
000023:                                                                                                  ##              2017-06-23 RSB  Proofed comment text with
000024:                                                                                                  ##                              octopus/ProoferComments.
000025:                                                                                                  ##              2021-05-30 ABS  ISWCALLL -> ISWCALL
000026:


000028:                                                                                                  #           THE FOLLOWING ROUTINE CAN BE USED TO CALL A SUBROUTINE IN ANOTHER BANK. IN THE BANKCALL VERSION, THE
000029:                                                                                                  #  CADR OF THE SUBROUTINE IMMEDIATELY FOLLOWS THE  TC BANKCALL  INSTRUCTION, WITH C(A) AND C(L) PRESERVED.
000030:
000031:    5224                                           BLOCK    02
000032:    5224           52124        BANKCALL           DXCH     BUF2                                  #  SAVE INCOMING A,L.
000033:    5225           50002                           INDEX    Q                                     #  PICK UP CADR.
000034:    5226           30000        BNKCAL+2           CA       0
000035:    5227           24002                           INCR     Q                                     #  SO WE RETURN TO THE LOC. AFTER THE CADR.
000036:
000037:                                                                                                  #  SWCALL IS  IDENTICAL TO BANKCALL, EXCEPT THAT THE CADR ARRIVES IN A.
000038:
000039:    5230           54001        SWCALL             TS       L
000040:    5231           22004                           LXCH     FBANK                                 #  SWITCH BANKS, SAVING RETURN.
000041:    5232           75356                           MASK     LOW10                                 #  GET SUB-ADDRESS OF CADR.
000042:    5233           56002                           XCH      Q                                     #  A,L NOW CONTAINS DP RETURN.
000043:    5234           52124                           DXCH     BUF2                                  #  RESTORING INPUTS IF THIS IS A BANKCALL.
000044:    5235           50002                           INDEX    Q
000045:    5236           02000                           TC       10000                                 #  SETTING Q TO SWRETURN.
000046:
000047:    5237           56124        SWRETURN           XCH      BUF2       +1                         #  COMES HERE TO RETURN TO CALLER. C(A,L)
000048:    5240           56004                           XCH      FBANK                                 #  ARE PRESERVED FOR RETURN.
000049:    5241           56124                           XCH      BUF2       +1
000050:    5242           00123                           TC       BUF2
000051:
000052:                                                                                                  #           THE FOLLOWING ROUTINE CAN BE USED AS A UNILATERAL JUMP WITH C(A,L) PRESERVED AND THE CADR IMMEDIATELY
000053:                                                                                                  #  FOLLOWING THE TC POSTJUMP INSTRUCTION.
000054:
000055:    5243           56002        POSTJUMP           XCH      Q                                     #  SAVE INCOMING C(A).
000056:    5244           50000                           INDEX    A                                     #  GET CADR.
000057:    5245           30000                           CA       0
000058:
000059:                                                                                                  #           BANKJUMP IS THE SAME AS POSTJUMP, EXCEPT THAT THE CADR ARRIVES IN A.
000060:
000061:    5246           54004        BANKJUMP           TS       FBANK
000062:    5247           75356                           MASK     LOW10
000063:    5250           56002                           XCH      Q                                     #  RESTORING INPUT C(A) IF THIS WAS A
000064:    5251           50002        Q+10000            INDEX    Q                                     #  POSTJUMP.
000065:    5252           12000        BNKJUP+4           TCF      10000
000066:


000068:                                                                                                  #           THE FOLLOWING ROUTINE GETS THE RETURN CADR SAVED BY SWCALL OR BANKCALL AND LEAVES IT IN A.
000069:
000070:    5253           35356        MAKECADR           CAF      LOW10
000071:    5254           70123                           MASK     BUF2
000072:    5255           60124                           AD       BUF2       +1
000073:    5256           00002                           TC       Q
000074:
000075:
000076:                                                                                                  #           THE FOLLOWING ROUTINE OBTAINS THE TWO WORDS BEGINNING AT THE ADDRESS ARRIVING IN A, AND LEAVES THEM IN
000077:                                                                                                  #  A,L.  ENTER WITH A CADR IN A, AT DATACALL WITH JUNK IN L IF NOT SWITCHING SUPERBANKS, OTHERWISE AT SUPDACAL WITH
000078:                                                                                                  #  SUPERBANK BITS IN BITS 7-5 IN L (BITS 15-8 AND 4-1 MAY BE JUNK).  DEBRIS = MPTEMP.  INHINTS FOR 180 MUSEC.
000079:
000080:    5257           54001        DATACALL           TS       L                                     #  SAVE CADR (SOLE INPUT HERE).
000081:    5260           00006                           EXTEND
000082:    5261           00007                           READ     SUPERBNK                              #  THIS PROLOGUE MAKES SUPERSWITCH VACUOUS.
000083:    5262           56001                           XCH      L                                     #  CADR IN A, SUPERBITS IN L.
000084:
000085:    5263           54125        SUPDACAL           TS       MPTEMP
000086:    5264           56004                           XCH      FBANK                                 #  SET FBANK FOR DATA.
000087:    5265           00006                           EXTEND
000088:    5266           04007                           ROR      SUPERBNK                              #  SAVE FBANK IN BITS 15-11, AND
000089:    5267           56125                           XCH      MPTEMP                                #   SUPERBANK IN BITS  7-5.
000090:    5270           75356                           MASK     LOW10
000091:    5271           56001                           XCH      L                                     #  SAVE REL. ADR. IN BANK, FETCH SUPERBITS.
000092:    5272           00004                           INHINT                                         #  BECAUSE RUPT DOES NOT SAVE SUPERBANK.
000093:    5273           00006                           EXTEND
000094:    5274           01007                           WRITE    SUPERBNK                              #  SET SUPERBANK FOR DATA.
000095:    5275           00006                           EXTEND
000096:    5276           50001                           INDEX    L
000097:    5277           32001                           DCA      10000                                 #  THIS IS SAFE EVEN IF CADR WAS END BANK.
000098:
000099:    5300           56125                           XCH      MPTEMP                                #  SAVE 1ST WD, FETCH OLD FBANK AND SBANK.
000100:    5301           00006                           EXTEND
000101:    5302           01007                           WRITE    SUPERBNK                              #  RESTORE SUPERBANK.
000102:    5303           00003                           RELINT
000103:    5304           54004                           TS       FBANK                                 #  RESTORE FBANK.
000104:    5305           30125                           CA       MPTEMP                                #  RECOVER FIRST WORD OF DATA.
000105:    5306           00002                           RETURN                                         #  24 WDS. DATACALL 516 MU, SUPDACAL 432 MU
000106:


000108:                                                                                                  #           THE FOLLOWING ROUTINES ARE IDENTICAL TO BANKCALL AND SWCALL EXCEPT THAT THEY ARE USED IN INTERRUPT.
000109:
000110:    5307           52073        IBNKCALL           DXCH     RUPTREG3                              #  USES RUPTREG3,4 FOR DP RETURN ADDRESS.
000111:    5310           50002                           INDEX    Q
000112:    5311           30000                           CAF      0
000113:    5312           24002                           INCR     Q
000114:
000115:    5313           54001        ISWCALL            TS       L
000116:    5314           22004                           LXCH     FBANK
000117:    5315           75356                           MASK     LOW10
000118:    5316           56002                           XCH      Q
000119:    5317           52073                           DXCH     RUPTREG3
000120:    5320           50002                           INDEX    Q
000121:    5321           02000                           TC       10000
000122:
000123:    5322           56073        ISWRETRN           XCH      RUPTREG4
000124:    5323           56004                           XCH      FBANK
000125:    5324           56073                           XCH      RUPTREG4
000126:    5325           00072                           TC       RUPTREG3
000127:


000129:                                                                                                  #           THE FOLLOWING SUBROUTINES PROVIDE TO THE BASIC PROGRAMMER ENTRY INTO AND RETURN FROM ANY INTERPRETIVE
000130:                                                                                                  #  CODING WHICH DOES NOT USE THE ENTERING CONTENTS OF Q AND WHICH RETURNS VIA DANZIG. C(A) AND C(L) ARE SAVED.
000131:
000132:                                                                                                  #  USER'S RESPONSIBILITY TO FILL IN ADVANCE THE APPROPRIATE OPERAND AND ADDRESS REGISTERS USED BY THE
000133:                                                                                                  #  INTERPRETIVE CODING SUCH AS MPAC, BUF, ADDRWD, ETC.; AND TO CONFIRM THAT THE INTERPRETIVE CODING MEETS THE
000134:                                                                                                  #  ABOVE RESTRICTIONS WITH RESPECT TO Q AND DANZIG.
000135:
000136:                                                                                                  #  USEPRET AND USPRCADR MUST NOT BE USED IN INTERRUPT.
000137:
000138:                                                                                                  #  1. USEPRET ACCESSES INTERPRETIVE CODING WHICH CAN BE ENTERED WITHOUT CHANGING FBANK.
000139:                                                                                                  #     THE CALLING SEQUENCE IS AS FOLLOWS:
000140:
000141:                                                                                                  #                                          L         TC     USEPRET
000142:                                                                                                  #                                          L+1       TC,TCF INTPRETX       TC,TCF MEANS TC OR TCF
000143:                                                                                                  #                                                                          INTPRETX IS THE INTERPRETIVE CODING
000144:                                                                                                  #                                                                          RETURN IS TO L+2
000145:
000146:                                                                                                  #  2. USPRCADR ACCESSES INTERPRETIVE CODING IN OTHER THAN THE USER'S FBANK. THE CALLING SEQUENCE IS AS FOLLOWS:
000147:
000148:                                                                                                  #                                          L         TC     USPRCADR
000149:                                                                                                  #                                          L+1       CADR   INTPRETX       INTPRETX IS THE INTERPRETIVE CODING
000150:                                                                                                  #                                                                          RETURN IS TO L+2
000151:
000152:    5326           56002        USEPRET            XCH      Q                                     #  FETCH Q, SAVING A
000153:    5327           54154                           TS       LOC                                   #  L+1 TO LOC
000154:    5330           30006                           CA       BBANK
000155:    5331           54155                           TS       BANKSET                               #  USER'S BBANK TO BANKSET
000156:    5332           37746                           CA       BIT8
000157:    5333           54023                           TS       EDOP                                  #  EXIT INSTRUCTION TO EDOP
000158:    5334           30002                           CA       Q                                     #  RETRIEVE ORIGINAL A
000159:    5335           00154                           TC       LOC
000160:
000161:    5336           54154        USPRCADR           TS       LOC                                   #  SAVE A
000162:    5337           37746                           CA       BIT8
000163:    5340           54023                           TS       EDOP                                  #  EXIT INSTRUCTION TO EDOP
000164:    5341           30006                           CA       BBANK
000165:    5342           54155                           TS       BANKSET                               #  USER'S BBANK TO BANKSET
000166:    5343           50002                           INDEX    Q
000167:    5344           30000                           CA       0
000168:    5345           54004                           TS       FBANK                                 #  INTERPRETIVE BANK TO FBANK
000169:    5346           75356                           MASK     LOW10                                 #  YIELDS INTERPRETIVE RELATIVE ADDRESS
000170:    5347           56002                           XCH      Q                                     #  INTERPRETIVE ADDRESS TO Q, FETCHING L+1
000171:    5350           56154                           XCH      LOC                                   #  L+1 TO LOC, RETRIEVING ORIGINAL A
000172:    5351           15251                           TCF      Q+10000
000173:


000175:                                                                                                  #  THERE ARE FOUR POSSIBLE SETTINGS FOR CHANNEL 07. (CHANNEL 07 CONTAINS THE SUPERBANK SETTING.)
000176:                                                                                                  #                                            PSEUDO-FIXED     OCTAL PSEUDO
000177:                                                                                                  #  SUPERBANK     SETTING     S-REG. VALUE    BANK NUMBERS     ADDRESSES
000178:                                                                                                  #  ---------     -------     ------------     ------------     ------------
000179:
000180:                                                                                                  #  SUPERBANK 3     0XX       2000 - 3777        30 - 37       70000 - 107777   (WHERE XX CAN BE ANYTHING AND
000181:                                                                                                  #                                                                              WILL USUALLY BE SEEN AS 11)
000182:                                                                                                  #  SUPERBANK 4     100       2000 - 3777        40 - 47       110000 - 127777  (AS FAR AS IT CAN BE SEEN,
000183:                                                                                                  #                                                                              ONLY BANKS 40-43 WILL EVER BE
000184:                                                                                                  #                                                                              AND ARE PRESENTLY AVAILABLE)
000185:                                                                                                  #  SUPERBANK 5     101       2000 - 3777        50 - 57       130000 - 147777  (PRESENTLY NOT AVAILABLE TO
000186:                                                                                                  #                                                                              THE USER)
000187:                                                                                                  #  SUPERBANK 6     110       2000 - 3777        60 - 67       150000 - 167777  (PRESENTLY NOT AVAILABLE TO
000188:                                                                                                  #                                                                              THE USER)
000189:                                                                                                  #  ***  THIS ROUTINE MAYBE CALLED BY ANY PROGRAM LOCATED IN BANKS 00 - 27.  I.E., NO PROGRAM LIVING IN ANY
000190:                                                                                                  #  SUPERBANK SHOULD USE SUPERSW. ***
000191:
000192:                                                                                                  #  SUPERSW MAY BE CALLED IN THIS FASHION:
000193:
000194:                                                                                                  #           CAF     ABBCON          WHERE  --  ABBCON   BBCON  SOMETHIN  --
000195:                                                                                                  #           TCR     SUPERSW         (THE SUPERBNK BITS ARE IN THE BBCON)
000196:                                                                                                  #           ...       ...
000197:                                                                                                  #            .         .
000198:                                                                                                  #            .         .
000199:
000200:                                                                                                  #  OR IN THIS FASHION:
000201:
000202:                                                                                                  #           CAF     SUPERSET        WHERE SUPERSET IS ONE OF THE FOUR AVAILABLE
000203:                                                                                                  #           TCR     SUPERSW         SUPERBANK BIT CONSTANTS:
000204:                                                                                                  #           ...       ...                                   SUPER011 OCTAL  60
000205:                                                                                                  #            .         .                                    SUPER100 OCTAL 100
000206:                                                                                                  #            .         .                                    SUPER101 OCTAL 120
000207:                                                                                                  #                                                           SUPER110 OCTAL 140
000208:
000209:    5352           00006        SUPERSW            EXTEND
000210:    5353           01007                           WRITE    SUPERBNK                              #  WRITE BITS 7-6-5 OF THE ACCUMULATOR INTO
000211:                                                                                                  #  CHANNEL 07
000212:    5354           00002                           TC       Q                                     #  TC TO INSTRUCTION FOLLOWING
000213:                                                                                                  #    TC  SUPERSW

End of include-file INTER-BANK_COMMUNICATION.agc.  Parent file is MAIN.agc


