
Source Code


000002:                                                                                                  ## Copyright:   Public domain.
000003:                                                                                                  ## Filename:    KALCMANU_STEERING.agc
000004:                                                                                                  ## Purpose:     A section of Sunburst revision 37, or Shepatin revision 0.
000005:                                                                                                  ##              It is part of an early development version of the software
000006:                                                                                                  ##              for Apollo Guidance Computer (AGC) on the unmanned Lunar
000007:                                                                                                  ##              Module (LM) flight Apollo 5. Sunburst 37 was the program
000008:                                                                                                  ##              upon which Don Eyles's offline development program Shepatin
000009:                                                                                                  ##              was based; the listing herein transcribed was actually for
000010:                                                                                                  ##              the equivalent revision 0 of Shepatin.
000011:                                                                                                  ##              This file is intended to be a faithful transcription, except
000012:                                                                                                  ##              that the code format has been changed to conform to the
000013:                                                                                                  ##              requirements of the yaYUL assembler rather than the
000014:                                                                                                  ##              original YUL assembler.
000015:                                                                                                  ## Reference:   pp. 627-631
000016:                                                                                                  ## Assembler:   yaYUL
000017:                                                                                                  ## Contact:     Ron Burkey <info@sandroid.org>.
000018:                                                                                                  ## Website:     www.ibiblio.org/apollo/index.html
000019:                                                                                                  ## Mod history: 2017-05-24 MAS  Created from Sunburst 120.
000020:                                                                                                  ##              2017-06-13 RSB  Transcribed
000021:


000023:                                                                                                  #  GENERATION OF STEERING COMMANDS FOR DIGITAL AUTOPILOT FREE FALL MANEUVERS
000024:
000025:                                                                                                  #  NEW COMMANDS WILL BE GENERATED EVERY ONE SECOND DURING THE MANEUVER
000026:
000027: 34,3514  E3,1605                                  EBANK=   TTEMP
000028:
000029: 34,3514           06103        NEWDELHI           TC       INTPRET
000030: 34,3515           75160                           AXC,1    AXC,2
000031: 34,3516           01535                                    MIS                                   #  COMPUTE THE NEW MATRIX FROM S/C TO
000032: 34,3517           01557                                    KEL                                   #  STABLE MEMBER AXES
000033: 34,3520           77624                           CALL
000034: 34,3521           73442                                    MXM3
000035: 34,3522           45575                           VLOAD    STADR
000036: 34,3523           52225                           STOVL    MIS        +12D                       #  CALCULATE NEW DESIRED CDU ANGLES
000037: 34,3524           77626                           STADR
000038: 34,3525           52233                           STOVL    MIS        +6D
000039: 34,3526           77626                           STADR
000040: 34,3527           76241                           STORE    MIS
000041: 34,3530           45160                           AXC,1    CALL
000042:
000043: 34,3531           01535                                    MIS
000044: 34,3532           70727                                    DCMTOCDU                              #  PICK UP THE NEW CDU ANGLES FROM MATRIX
000045: 34,3533           77634                           RTB
000046: 34,3534           33573                                    V1STO2S
000047: 34,3535           01602                           STORE    NCDU                                  #  NEW CDU ANGLES
000048: 34,3536           77414                           BONCLR   EXIT
000049: 34,3537           01202                                    32D
000050: 34,3540           71620                                    MANUSTAT                              #  TO START MANEUVER
000051: 34,3541           37754                           CAF      TWO                                   #           +0 OTHERWISE
000052: 34,3542           55653        INCRDCDU           TS       SPNDX
000053: 34,3543           51653                           INDEX    SPNDX
000054: 34,3544           31532                           CA       BCDU                                  #  INITIAL CDU ANGLES
000055: 34,3545           00006                           EXTEND                                         #  OR PREVIOUS DESIRED CDU ANGLES
000056: 34,3546           51653                           INDEX    SPNDX
000057: 34,3547           21601                           MSU      NCDU
000058: 34,3550           00006                           EXTEND
000059: 34,3551           73617                           MP       DT/TAU
000060: 34,3552           10000                           CCS      A                                     #  CONVERT TO 2S COMPLEMENT
000061: 34,3553           67755                           AD       ONE
000062: 34,3554           13556                           TCF      +2
000063: 34,3555           40000                           COM
000064: 34,3556           51653                           INDEX    SPNDX
000065: 34,3557           54771                           TS       DELDCDU                               #  ANGLE INCREMENTS TO BE ADDED TO
000066:
000067: 34,3560           51653                           INDEX    SPNDX                                 #  CDUXD, CDUYD, CDUZD EVERY TENTH SECOND
000068: 34,3561           31601                           CA       NCDU                                  #  BY LEM DAP
000069: 34,3562           51653                           INDEX    SPNDX
000070: 34,3563           57532                           XCH      BCDU
000071: 34,3564           51653                           INDEX    SPNDX
000072: 34,3565           54766                           TS       CDUXD
000073: 34,3566           11653                           CCS      SPNDX
000074: 34,3567           13542                           TCF      INCRDCDU                              #  LOOP FOR THREE AXES
000075:


000077:                                                                                                  #  COMPARE PRESENT TIME WITH TIME TO TERMINATE MANEUVER
000078:
000079: 34,3570           00006        TMANUCHK           EXTEND
000080: 34,3571           40025                           DCS      TIME2
000081: 34,3572           53606                           DXCH     TTEMP
000082: 34,3573           00006                           EXTEND
000083: 34,3574           31645                           DCA      TM
000084: 34,3575           21606                           DAS      TTEMP                                 #  TM+T0-1-T
000085: 34,3576           11605                           CCS      TTEMP
000086: 34,3577           13647                           TCF      CONTMANU                              #  (TM+T0)-T G 164 SEC
000087: 34,3600           13602                           TCF      +2
000088: 34,3601           13645                           TCF      OVERMANU                              #  (TM+T0)-T L -164 SEC
000089: 34,3602           11606                           CCS      TTEMP      +1
000090: 34,3603           13647                           TCF      CONTMANU                              #  (TM+T0)-T G 1 SEC
000091: 34,3604           13606                           TCF      MANUOFF                               #  (TM+T0)-T E 1 SEC
000092: 34,3605           40000                           COM                                            #  (TM+T0)-T L 1 SEC
000093: 34,3606           63644        MANUOFF            AD       ONESEK     +1                         #  (TM+T0)-T E 1 SEC
000094: 34,3607           00006                           EXTEND
000095: 34,3610           63645                           BZMF     OVERMANU                              #  THIS IS A SAFETY PLAY
000096: 34,3611           00004        MANUSTAL           INHINT                                         #  PREPARE TO STOP THE MANEUVER
000097: 34,3612           05701                           TC       WAITLIST
000098: 34,3613  E3,1605                                  EBANK=   TTEMP
000099: 34,3613           03673 70063                     2CADR    MANUSTOP
000100:
000101: 34,3615           00003                           RELINT
000102: 34,3616           15605                           TCF      ENDOFJOB
000103:
000104: 34,3617           03146        DT/TAU             DEC      .1
000105:
000106: 34,3620           77776        MANUSTAT           EXIT                                           #  INITIALIZATION ROUTINE
000107: 34,3621           00006                           EXTEND                                         #  FOR AUTOMATIC MANEUVERS
000108: 34,3622           30025                           DCA      TIME2
000109: 34,3623           21645                           DAS      TM                                    #  TM+T0    MANEUVER COMPLETION TIME
000110: 34,3624           00006                           EXTEND
000111: 34,3625           43644                           DCS      ONESEK
000112: 34,3626           21645                           DAS      TM                                    #  (TM+T0)-1
000113: 34,3627           31634                           CA       BRATE                                 #  X-AXIS MANEUVER RATE
000114: 34,3630           54774                           TS       OMEGAPD
000115: 34,3631           31636                           CA       BRATE      +2                         #  Y-AXIS MANEUVER RATE
000116: 34,3632           54775                           TS       OMEGAQD
000117: 34,3633           31640                           CA       BRATE      +4                         #  Z-AXIS MANEUVER RATE
000118: 34,3634           54776                           TS       OMEGARD
000119: 34,3635           30025                           CA       TIME1
000120: 34,3636           63644                           AD       ONESEK     +1
000121: 34,3637           57604                           XCH      NEXTIME
000122: 34,3640           06027                           TC       FLAG2UP                               #  SET BIT 11 OF FLAGWRD2
000123: 34,3641           02000                           OCT      2000                                  #  TO SIGNAL KALCMANU IN PROCESS
000124: 34,3642           13541                           TCF      INCRDCDU   -1
000125:
000126: 34,3643           00000        ONESEK             DEC      0          B-14


000128: 34,3644           00144                           DEC      100        B-14
000129:
000130: 34,3645           37755        OVERMANU           CAF      ONE                                   #  SAFETY PLAY
000131: 34,3646           13611                           TCF      MANUSTAL
000132:
000133: 34,3647           40025        CONTMANU           CS       TIME1                                 #  RESET FOR NEXT DCDU UPDATE
000134: 34,3650           61604                           AD       NEXTIME
000135: 34,3651           10000                           CCS      A
000136:
000137: 34,3652           67755                           AD       ONE
000138: 34,3653           13656                           TCF      MANUCALL
000139: 34,3654           67737                           AD       NEGMAX
000140: 34,3655           40000                           COM
000141: 34,3656           00004        MANUCALL           INHINT                                         #  CALL FOR NEXT UPDATE VIA WAITLIST
000142: 34,3657           05701                           TC       WAITLIST
000143: 34,3660  E3,1605                                  EBANK=   TTEMP
000144: 34,3660           03666 70063                     2CADR    UPDTCALL
000145:
000146: 34,3662           00003                           RELINT
000147: 34,3663           33644                           CAF      ONESEK     +1                         #  INCREMENT TIME FOR NEXT UPDATE
000148: 34,3664           27604                           ADS      NEXTIME
000149: 34,3665           15605                           TCF      ENDOFJOB
000150:
000151:
000152:
000153: 34,3666           35673        UPDTCALL           CAF      PRIO34                                #  SATELLITE PROGRAM TO CALL FOR UPDATE
000154: 34,3667           05534                           TC       FINDVAC                               #  OF STEERING COMMANDS
000155: 34,3670  E3,1605                                  EBANK=   TTEMP
000156: 34,3670           03514 70063                     2CADR    NEWDELHI
000157:
000158: 34,3672           05745                           TC       TASKOVER
000159:


000161:                                                                                                  #  ROUTINE FOR TERMINATING AUTOMATIC MANEUVERS
000162:
000163: 34,3673           37761        MANUSTOP           CAF      ZERO                                  #  ZERO MANEUVER RATES
000164: 34,3674           54773                           TS       DELDCDU2
000165: 34,3675           54776                           TS       OMEGARD
000166: 34,3676           54772                           TS       DELDCDU1
000167: 34,3677           54775                           TS       OMEGAQD
000168: 34,3700           31633                           CA       CPSI                                  #  SET DESIRED GIMBAL ANGLES TO
000169: 34,3701           54770                           TS       CDUZD                                 #  DESIRED FINAL GIMBAL ANGLES
000170: 34,3702           31632                           CA       CTHETA
000171: 34,3703           54767                           TS       CDUYD
000172: 34,3704           30076                           CA       STATE      +2                         #  CHECK TO SEE IF A FINAL YAW NECESSARY
000173: 34,3705           77740                           MASK     BIT14
000174: 34,3706           00006                           EXTEND
000175:
000176: 34,3707           13722                           BZF      KALCROLL
000177: 34,3710           31631        ENDROLL            CA       CPHI                                  #  NO FINAL YAW
000178: 34,3711           54766                           TS       CDUXD
000179: 34,3712           37761                           CAF      ZERO
000180: 34,3713           54774                           TS       OMEGAPD                               #  I.E. MANEUVER DID NOT GO THRU
000181: 34,3714           54771                           TS       DELDCDU                               #  GIMBAL LOCK ORIGINALLY
000182: 34,3715           06045        GOODMANU           TC       FLAG2DWN                              #  RESET BIT 11 OF FLAGWRD2 TO SIGNAL END
000183: 34,3716           02000                           OCT      2000                                  #  OF KALCMANU
000184: 34,3717           36301                           CAF      THREE
000185: 34,3720           05243                           TC       POSTJUMP                              #  RETURN UNDER WAITLIST VIA GOODEND
000186: 34,3721           26731                           CADR     GOODEND                               #  AND WAKE UP USER
000187:
000188: 34,3722           30076        KALCROLL           CA       STATE      +2                         #  STATE SWITCH NO. 33
000189: 34,3723           77742                           MASK     BIT12                                 #  0(OFF) = PERFORM A FINAL YAW
000190: 34,3724           00006                           EXTEND                                         #           IF NECESSARY
000191: 34,3725           13727                           BZF      DOROLL                                #  1(ON) = IGNORE ANY FINAL YAW
000192: 34,3726           13712                           TCF      ENDROLL    +2
000193: 34,3727           31631        DOROLL             CA       CPHI
000194: 34,3730           00006                           EXTEND                                         #  PERFORM A FINAL ROLL  TO
000195: 34,3731           20766                           MSU      CDUXD                                 #  COMPLETE AUTOMATIC MANEUVER
000196: 34,3732           00006                           EXTEND
000197: 34,3733           63743                           BZMF     FROLLNEG
000198: 34,3734           54001        FROLLPOS           TS       L
000199:
000200: 34,3735           33762                           CA       ROLLRATE
000201: 34,3736           54774                           TS       OMEGAPD
000202: 34,3737           43763                           CS       DELFROLL
000203: 34,3740           67755                           AD       ONE
000204: 34,3741           54771                           TS       DELDCDU
000205: 34,3742           13751                           TCF      ROLLSTAL
000206: 34,3743           40000        FROLLNEG           COM
000207: 34,3744           54001                           TS       L
000208: 34,3745           43762                           CS       ROLLRATE
000209: 34,3746           54774                           TS       OMEGAPD
000210: 34,3747           33763                           CA       DELFROLL
000211: 34,3750           54771                           TS       DELDCDU
000212: 34,3751           30001        ROLLSTAL           CA       L                                     #  ABS(CPHI-CDUXD)


000214: 34,3752           00006                           EXTEND
000215: 34,3753           73764                           MP       INVRATE
000216: 34,3754           00006                           EXTEND
000217: 34,3755           63710                           BZMF     ENDROLL
000218: 34,3756           05701                           TC       WAITLIST
000219: 34,3757  E3,1605                                  EBANK=   TTEMP
000220: 34,3757           03710 70063                     2CADR    ENDROLL
000221:
000222: 34,3761           05745                           TC       TASKOVER
000223:
000224: 34,3762           01320        ROLLRATE           DEC      720        B-14                       #  = 1.98 DEGREES/SEC
000225: 34,3763           00022        DELFROLL           DEC      18         B-14                       #  MUST BE A WHOLE NUMBER
000226: 34,3764           21616        INVRATE            DEC      .555555

End of include-file KALCMANU_STEERING.agc.  Parent file is MAIN.agc


