
Source Code


000002:                                                                                                  ## Copyright:   Public domain.
000003:                                                                                                  ## Filename:    KEYRUPT,_UPRUPT.agc
000004:                                                                                                  ## Purpose:     A section of Sunburst revision 37, or Shepatin revision 0.
000005:                                                                                                  ##              It is part of an early development version of the software
000006:                                                                                                  ##              for Apollo Guidance Computer (AGC) on the unmanned Lunar
000007:                                                                                                  ##              Module (LM) flight Apollo 5. Sunburst 37 was the program
000008:                                                                                                  ##              upon which Don Eyles's offline development program Shepatin
000009:                                                                                                  ##              was based; the listing herein transcribed was actually for
000010:                                                                                                  ##              the equivalent revision 0 of Shepatin.
000011:                                                                                                  ##              This file is intended to be a faithful transcription, except
000012:                                                                                                  ##              that the code format has been changed to conform to the
000013:                                                                                                  ##              requirements of the yaYUL assembler rather than the
000014:                                                                                                  ##              original YUL assembler.
000015:                                                                                                  ## Reference:   pp. 215-218
000016:                                                                                                  ## Assembler:   yaYUL
000017:                                                                                                  ## Contact:     Ron Burkey <info@sandroid.org>.
000018:                                                                                                  ## Website:     www.ibiblio.org/apollo/index.html
000019:                                                                                                  ## Mod history: 2017-05-24 MAS  Created from Sunburst 120.
000020:                                                                                                  ##              2017-05-29 HG   Transcribed
000021:


000023: 13,3506                                           BANK     13
000024: 13,3506           54016        KEYRUPT1           TS       BANKRUPT
000025: 13,3507           56002                           XCH      Q
000026: 13,3510           54012                           TS       QRUPT
000027: 13,3511           04574                           TC       LODSAMPT                              #  TIME IS SNATCHED IN RUPT FOR NOUN 65.
000028: 13,3512           34545                           CAF      LOW5
000029: 13,3513           00006                           EXTEND
000030: 13,3514           02015                           RAND     MNKEYIN
000031: 13,3515           54073        KEYCOM             TS       RUPTREG4
000032: 13,3516           35226                           CAF      CHRPRIO
000033: 13,3517           05523                           TC       NOVAC
000034: 13,3520     0270                                  EBANK=   DSPCOUNT
000035: 13,3520           02002 10000                     2CADR    CHARIN
000036: 13,3522           30073                           CA       RUPTREG4
000037: 13,3523           50064                           INDEX    LOCCTR
000038: 13,3524           54144                           TS       MPAC                                  #  LEAVE 5 BIT KEY CDE IN MPAC FOR CHARIN
000039: 13,3525           05751                           TC       RESUME
000040:


000042:                                                                                                  #  UPRUPT PROGRAM
000043:
000044: 13,3526           54016        UPRUPT             TS       BANKRUPT
000045: 13,3527           56002                           XCH      Q
000046: 13,3530           54012                           TS       QRUPT
000047: 13,3531           04574                           TC       LODSAMPT                              #  TIME IS SNATCHED IN RUPT FOR NOUN 65.
000048: 13,3532           37761                           CAF      ZERO
000049: 13,3533           56045                           XCH      INLINK
000050: 13,3534           54073                           TS       KEYTEMP1
000051: 13,3535           37753                           CAF      BIT3                                  #  TURN ON UPACT LIGHT
000052: 13,3536           00006                           EXTEND                                         #  (BIT 3 OF CHANNEL 11)
000053: 13,3537           05011                           WOR      DSALMOUT
000054: 13,3540           34545        UPRPT1             CAF      LOW5                                  #  TEST FOR TRIPLE CHAR REDUNDANCY
000055: 13,3541           70073                           MASK     KEYTEMP1                              #  LOW5 OF WORD
000056: 13,3542           56073                           XCH      KEYTEMP1                              #  LOW5 INTO KEYTEMP1
000057: 13,3543           56021                           XCH      SR                                    #  WHOLE WORD INTO SR
000058: 13,3544           55076                           TS       KEYTEMP2                              #  ORIGINAL SR INTO KEYTEMP2
000059: 13,3545           03611                           TC       SRGHT5
000060: 13,3546           74545                           MASK     LOW5                                  #  MID 5
000061: 13,3547           63623                           AD       HI10
000062: 13,3550           03620                           TC       UPTEST
000063: 13,3551           03611                           TC       SRGHT5
000064: 13,3552           74545                           MASK     LOW5                                  #  HIGH 5
000065: 13,3553           40000                           COM
000066: 13,3554           03620                           TC       UPTEST
000067: 13,3555           03605        UPCK               TC       RESTORSR                              #  CODE IS GOOD
000068:
000069: 13,3556           43562                           CS       ELRCODE                               #  IF CODE = ERROR LIGHT RESET, PUT +0
000070: 13,3557           60073                           AD       KEYTEMP1                              #  INTO BIT1 OF UPLOCK.
000071: 13,3560           10000                           CCS      A                                     #  IF CODE NOT= ELR, PASS CODE ONLY IF
000072: 13,3561           03570                           TC       TSTUPLOK                              #  BIT1 OF UPLOCK = 0.
000073: 13,3562           00022        ELRCODE            OCT      22
000074: 13,3563           03570                           TC       TSTUPLOK
000075: 13,3564           47753                           CS       BIT3
000076: 13,3565           70075                           MASK     FLAGWRD1
000077: 13,3566           54075                           TS       FLAGWRD1
000078: 13,3567           03574                           TC       ACCEPTUP
000079: 13,3570           37753        TSTUPLOK           CAF      BIT3
000080: 13,3571           70075                           MASK     FLAGWRD1
000081: 13,3572           10000                           CCS      A
000082: 13,3573           05751                           TC       RESUME                                #  BIT1 OF UPLOCK = 1.
000083: 13,3574           56073        ACCEPTUP           XCH      KEYTEMP1                              #  BIT1 OF UPLOCK = 0.
000084: 13,3575           03515                           TC       KEYCOM
000085:
000086: 13,3576           03605        TMFAIL2            TC       RESTORSR                              #  CODE IS BAD
000087: 13,3577           47753                           CS       BIT3
000088: 13,3600           70075                           MASK     FLAGWRD1
000089: 13,3601           67753                           AD       BIT3
000090: 13,3602           54075                           TS       FLAGWRD1
000091: 13,3603           05751        TMFAIL1            TC       TMALM
000092:
000093: 13,3604           05751                           TC       RESUME
000094:


000096: 13,3605           57076        RESTORSR           XCH      KEYTEMP2
000097: 13,3606           60000                           DOUBLE
000098: 13,3607           54021                           TS       SR
000099: 13,3610           00002                           TC       Q
000100:
000101: 13,3611     5751               TMALM              =        RESUME                                #  FOR NOW
000102:
000103: 13,3611           40021        SRGHT5             CS       SR
000104:
000105: 13,3612           40021                           CS       SR
000106: 13,3613           40021                           CS       SR
000107: 13,3614           40021                           CS       SR
000108: 13,3615           40021                           CS       SR
000109: 13,3616           40000                           CS       A
000110: 13,3617           00002                           TC       Q                                     #  DELIVERS WORD UNCOMPLEMENTED
000111:
000112: 13,3620           60073        UPTEST             AD       KEYTEMP1
000113: 13,3621           10000                           CCS      A
000114: 13,3622           03576                           TC       TMFAIL2
000115: 13,3623           77740        HI10               OCT      77740
000116: 13,3624           03576                           TC       TMFAIL2
000117: 13,3625           00002                           TC       Q
000118:
000119:                                                                                                  #  UPACT IS TURNED OFF BY VBRELDSP, ALSO BY ERROR LIGHT RESET.
000120:


000122:                                                                                                  #  THE RECEPTION OF A BAD CODE BY UPLINK LOCKS OUT FURTHER UPLINK ACTIVITY
000123:                                                                                                  #  BY PLACING A 1 INTO BIT1 OF UPLOCK. BIT9 (ALONG WITH BIT11) OF TMKEYBUF
000124:                                                                                                  #  IS SET TO 1 TO SEND AN INDICATION OF THIS SITUATION DOWN THE DOWNLINK.
000125:                                                                                                  #  THE UPLINK INTERLOCK IS ALLOWED WHEN AN ERROR LIGHT RESET CODE IS SENT
000126:                                                                                                  #  UP THE UPLINK, OR WHEN A FRESH START IS PERFORMED.

End of include-file KEYRUPT,_UPRUPT.agc.  Parent file is MAIN.agc


