
Source Code


000002:                                                                                                  ## Copyright:   Public domain.
000003:                                                                                                  ## Filename:    LAMB.agc
000004:                                                                                                  ## Purpose:     A section of Sunburst revision 37, or Shepatin revision 0.
000005:                                                                                                  ##              It is part of an early development version of the software
000006:                                                                                                  ##              for Apollo Guidance Computer (AGC) on the unmanned Lunar
000007:                                                                                                  ##              Module (LM) flight Apollo 5. Sunburst 37 was the program
000008:                                                                                                  ##              upon which Don Eyles's offline development program Shepatin
000009:                                                                                                  ##              was based; the listing herein transcribed was actually for
000010:                                                                                                  ##              the equivalent revision 0 of Shepatin.
000011:                                                                                                  ##              This file is intended to be a faithful transcription, except
000012:                                                                                                  ##              that the code format has been changed to conform to the
000013:                                                                                                  ##              requirements of the yaYUL assembler rather than the
000014:                                                                                                  ##              original YUL assembler.
000015:                                                                                                  ## Reference:   pp. 865-884
000016:                                                                                                  ## Assembler:   yaYUL
000017:                                                                                                  ## Contact:     Ron Burkey <info@sandroid.org>.
000018:                                                                                                  ## Website:     www.ibiblio.org/apollo/index.html
000019:                                                                                                  ## Mod history: 2017-05-24 MAS  Created from Sunburst 120.
000020:                                                                                                  ##              2017-06-10 MAS  Updated for Sunburst 37.
000021:                                                                                                  ##              2017-06-14 HG   Fix interpretive operand COGAMIN -> COGAMN
000022:                                                                                                  ##              2017-06-23 RSB  Proofed comment text with
000023:                                                                                                  ##                              octopus/ProoferComments.
000024:


000026: 36,2430                                           BANK     36
000027: 36,2430  E3,1671                                  EBANK=   RTN
000028:
000029:
000030:                                                                                                  #   PROGRAM NAME ... LAMBERT ROUTINE                                        DATE ... 11/29/66
000031:
000032:                                                                                                  #   MOD NO ... 3                                                            LOG SECTION ...LAMB
000033:
000034:                                                                                                  #                                                                           ASSEMBLY ... SUNBURST REVISION 03
000035:
000036:                                                                                                  #   MODIFICATION BY ... J.J. BESTER AND L.G. HULL
000037:                                                                                                  #   FUNCTIONAL DESCRIPTION ...
000038:
000039:                                                                                                  #     THIS SUBROUTINE SOLVES FOR THE CONIC TRAJECTORY BETWEEN R0VEC AND R1VEC WHICH SATISFIES A SPECIFIED TIME
000040:                                                                                                  #   OF FLIGHT, TFL.  A SLOPE ITERATOR IS USED TO FORCE THE TIME OF FLIGHT TO CONVERGE.
000041:
000042:
000043:
000044:                                                                                                  #   CALLING SEQUENCE:
000045:
000046:                                                                                                  #   THIS ROUTINE IS CALLED IN THE INTERPRETIVE MODE BY
000047:                                                                                                  #                                                                  CALL
000048:                                                                                                  #                                                                           LAMBERT
000049:
000050:
000051:
000052:                                                                                                  #   NORMAL EXIT MODE:
000053:
000054:                                                                                                  #   EXIT FROM THIS ROUTINE IS IN BASIC BY
000055:                                                                                                  #                                                                  TCF      ENDOFJOB
000056:
000057:
000058:
000059:                                                                                                  #   OUTPUT:
000060:
000061:                                                                                                  #   THE OUTPUT OF THIS ROUTINE (WITH SCALING INDICATED IN PARENTHESES) CONSISTS OF ...
000062:
000063:                                                                                                  #   V0VEC (+7)    -THE REQUIRED VELOCITY VECTOR IN METERS/CENTISECONDS
000064:
000065:                                                                                                  #  DONESW         -THE DONE SWITCH INDICATING WHETHER THE JOB HAS BEEN COMPLETED.  WHEN THE JOB IS DONE IT
000066:                                                                                                  #                  IS TURNED ON.
000067:
000068:                                                                                                  #   CONVSW        - THE CONVERGENCE SWITCH INDICATING WHETHER THE ITERATION PROCESS HAS CONVERGED.  IT IS TURNED
000069:                                                                                                  #                  ON IF CONVERGENCE HAS NOT OCCURRED, BUT AN ESTIMATE OF V0VEC IS NEVERTHELESS GIVEN.
000070:
000071:
000072:
000073:                                                                                                  #   INPUT:
000074:
000075:                                                                                                  #   THE QUANTITIES INPUTED AND THEIR SCALE FACTORS ARE ...


000077:                                                                                                  #  RCOV   (+25)   -INITIAL POSITION IN METERS.
000078:                                                                                                  #   R1VEC (+25)   -THE TARGET POSITION IN METERS.
000079:
000080:                                                                                                  #   TFL (+28)     -TIME OF FLIGHT IN CENTISECONDS.
000081:
000082:                                                                                                  #   UNNORM (+1)   -A UNIT VECTOR IN THE DIRECTION OF THE ANGULAR MOMENTUM  VECTOR.
000083:
000084:                                                                                                  #   TAG5          -A PARAMETER SET TO -0.5 IF THE TRUE ANOMALY DIFFERENCE BETWEEN R0VEC AND R1VEC IS MORE THAN
000085:                                                                                                  #                  180 DEGREES.  OTHERWISE IT SHOULD BE SET TO +0.5.
000086:
000087:                                                                                                  #   GUESSW        -THE GUESS SWITCH, IF A FIRST GUESS TO THE COTANGENT OF THE FLIGHT PATH ANGLE IS AVAILABLE THE
000088:                                                                                                  #                  SWITCH SHOULD BE SET , CLEAR IF NO GUESS IS FORTHCOMING.
000089:
000090:                                                                                                  #   COGAVAIL (+5) -THE AVAILABLE COTANGENT OF THE FLIGHT PATH ANGLE.  IF A GUESS IS AVAILABLE THE GUESSW SHOULD BE
000091:                                                                                                  #                  SET AND THE GUESS PLACED HERE BEFORE THE LAMBERT ROUTINE IS ENTERED.  AFTER ONE PASS THROUGH
000092:                                                                                                  #                  LAMBERT, THE LAST ITERATED VALUE OF THE COTANGENT IS PLACED IN COGAVAIL AND  MAY BE USED AS THE
000093:                                                                                                  #                  GUESS FOR THE NEXT PASS.
000094:
000095:
000096:
000097:                                                                                                  #   THE FOLLOWING SWITCHES ARE IN THIS ROUTINE , THOUGH THEY ARE NOT USED FOR THIS PARTICULAR MISSION AND ARE
000098:                                                                                                  #   ALWAYS CLEAR IN 206.
000099:
000100:                                                                                                  #   MOONSW        - THE MOON SWITCH: 1-INSIDE THE SPHERE OF INFLUENCE OF THE MOON (35,000 N.MI.)
000101:                                                                                                  #                                    0-OUTSIDE
000102:
000103:                                                                                                  #   ESCPSW        -THE ESCAPE SWITCH: 1-HYPERBOLIC ORBIT
000104:                                                                                                  #                                     0-ELLIPTIC ORBIT
000105:
000106:                                                                                                  #   SMANGLSW      -SMALL ANGLE SWITCH: 1-SMALL TRANSFER ANGLES
000107:                                                                                                  #                                      0-LARGE ANGLES (THE USUAL CASE)
000108:
000109:                                                                                                  #   TWO SWITCHES ARE USED INTERNALLY.  THEY ARE ...
000110:
000111:                                                                                                  #   ITERSW        -THE ITERATION SWITCH: 1-FIRST ITERATION IS TO TAKE PLACE
000112:                                                                                                  #                                        0-SUBSEQUENT ITERATIONS
000113:
000114:                                                                                                  #   PIESW         -THE 180 DEGREES SWITCH: 1-ANGLES GREATER THAN 180 DEGREES WITH TAG5=-0.5
000115:                                                                                                  #                                          0-ANGLES LESS THAN 180, TAG5=0.5
000116:
000117:
000118:
000119:                                                                                                  #   DEBRIS ...
000120:
000121:                                                                                                  #     THE LAMBERT ROUTINE INTERNALLY USES SCALING WHICH IS DIFFERENT FROM THAT USED BY THE MAIN PROGRAM.
000122:                                                                                                  #   INTERNAL TO LAMBERT,
000123:                                                                                                  #                                7
000124:                                                                                                  #   LENGTH IS SCALED BY RNORM = 2  RE
000125:
000126:                                                                                                  #   VELOCITY IS SCALED BY VNORM = 2 SQRT(MU/RE)


000128:                                                                                                  #                              10        3
000129:                                                                                                  #   TIME IS SCALED BY TNORM = 2   SQRT(RE /MU)
000130:                                                                                                  #   WHERE MU IS THE GRAVITATIONAL CONSTANT TIMES THE MASS OF THE EARTH AND RE IS THE RADIUS OF THE EARTH.
000131:                                                                                                  #            22
000132:                                                                                                  #   FOR RE, 2   METERS IS USED. HOWEVER, INPUT AND OUTPUT QUANTITIES HAVE  SCALING COMPATIBLE WITH THE REST OF THE
000133:                                                                                                  #   PROGRAM.  RESCALING WILL BE DONE BY THE LAMBERT ROUTINE BEFORE COMPUTATIONS BEGIN.
000134:


000136: 36,2430           40214        LAMBERT            SET      SETPD
000137: 36,2431           02062                                    ITERSW
000138:
000139: 36,2432           00001                                    0D
000140: 36,2433           43014                           CLEAR    CLEAR
000141: 36,2434           02265                                    MOONSW
000142: 36,2435           02261                                    DONESW
000143: 36,2436           43014                           CLEAR    CLEAR
000144: 36,2437           02265                                    SMANGLSW
000145: 36,2440           02264                                    PIESW
000146: 36,2441           51145                           DLOAD    BPL
000147: 36,2442           01673                                    TAG5
000148: 36,2443           74446                                    +3
000149:
000150: 36,2444           77614                           SET
000151: 36,2445           02064                                    PIESW
000152: 36,2446           77614                           BON
000153: 36,2447           02303                                    GUESSW
000154: 36,2450           74456                                    +6
000155: 36,2451           77745                           DLOAD
000156: 36,2452           35447                                    D1/4
000157: 36,2453           01735                           STORE    TWEEKIT
000158: 36,2454           77650                           GOTO
000159: 36,2455           74461                                    PROG
000160: 36,2456           77745                           DLOAD
000161: 36,2457           35443                                    D1/64
000162:
000163: 36,2460           01735                           STORE    TWEEKIT
000164: 36,2461           41345        PROG               DLOAD    DMP
000165: 36,2462           02167                                    TFL
000166: 36,2463           35473                                    TFACT
000167: 36,2464           77652                           SL3                                            #  RESCALE TIME OF FLIGHT
000168: 36,2465           25674                           STOVL    TF
000169: 36,2466           02141                                    RCOV                                  #  RCOV (+25) ASSUMED
000170: 36,2467           77702                           VSR4
000171: 36,2470           35711                           STCALL   R0VEC
000172: 36,2471           74715                                    DTPRD
000173:
000174: 36,2472           77624                           CALL
000175: 36,2473           74736                                    CGTH
000176: 36,2474           60345                           DLOAD    NORM
000177: 36,2475           00045                                    36D
000178: 36,2476           00047                                    X1
000179: 36,2477           53665                           BDDV     SL*
000180: 36,2500           00041                                    32D
000181: 36,2501           20172                                    0          -7,1
000182: 36,2502           14037                           STODL    30D                                   #  30D=R (+7)
000183:
000184: 36,2503           35451                                    D1/2
000185: 36,2504           70425                           DSU      SR1
000186:
000187: 36,2505           00035                                    28D
000188: 36,2506           00025                           STORE    20D                                   #  20D=1-CSTH (+2) (FOR PCALC IN LOOP)
000189:
000190: 36,2507           65301                           NORM     PDDL                                  #  1-CSTH (+2-N1)               PL AT 2D


000192: 36,2510           00047                                    X1
000193: 36,2511           00037                                    30D
000194: 36,2512           77671                           DDV                                            #                               PL AT 0D
000195: 36,2513           75457                           SL*      SQRT
000196: 36,2514           20175                                    0          -4,1
000197: 36,2515           44214                           BOFF     BDSU
000198: 36,2516           02345                                    ESCPSW
000199: 36,2517           74664                                    ELIPLMTS
000200:
000201: 36,2520           00021                                    16D
000202: 36,2521           51406                           PUSH     ABS                                   #                               PL AT 2D
000203: 36,2522           44205                           DMP      BDSU                                  #                               PL AT 0D
000204: 36,2523           35461                                    PERCENT
000205: 36,2524           77626                           STADR
000206: 36,2525           63744                           STODL    26D                                   #  26D=COGAMX
000207:
000208: 36,2526           00031                                    24D
000209: 36,2527           77742                           SR1
000210: 36,2530           00023                           STORE    18D                                   #  18D=SIN(TH) (+2) (FOR PCALC IN LOOP)
000211:
000212: 36,2531           65301                           NORM     PDDL                                  #  SIN(TH) (+1-N1)              PL AT 2D
000213: 36,2532           00047                                    X1
000214: 36,2533           00035                                    28D
000215: 36,2534           45261                           SR       DSU
000216: 36,2535           20607                                    6
000217: 36,2536           00037                                    30D
000218: 36,2537           00037                           STORE    30D                                   #  30D=COS(TH)-R (+7)  (FOR PCALC IN LOOP)
000219:
000220: 36,2540           56214                           BON      DDV                                   #                               PL AT 0D
000221: 36,2541           02304                                    PIESW
000222: 36,2542           74553                                    ABSMIN
000223: 36,2543           40057                           SL*      BOV
000224:
000225: 36,2544           20201                                    0,1
000226: 36,2545           74553                                    ABSMIN
000227: 36,2546           51406                           PUSH     ABS                                   #  (CSTH-R)/SNTH (+5)           PL AT 2D
000228: 36,2547           43205                           DMP      DAD                                   #                               PL AT 0D
000229: 36,2550           35461                                    PERCENT
000230: 36,2551           77650                           GOTO
000231: 36,2552           74556                                    +4
000232: 36,2553           71201        ABSMIN             SETPD    DLOAD                                 #                               PL AT 0D
000233: 36,2554           00001                                    0D
000234: 36,2555           35471                                    ABSOLMIN
000235:
000236: 36,2556           00027                           STORE    22D                                   #  22D=COGAMN (+5)
000237: 36,2557           71214                           BOFF     DLOAD                                 #                               PL AT 2D
000238: 36,2560           02343                                    GUESSW
000239: 36,2561           74644                                    FIRSTCOG
000240: 36,2562           01676                                    COGAVAIL
000241: 36,2563           45214                           BON      DSU                                   #  IF ESCPSW IS OFF, CHECK IF COGAVAIL
000242: 36,2564           02305                                    ESCPSW                                #  IS LESS THAN COGAMN
000243: 36,2565           74577                                    LOOP
000244: 36,2566           00027                                    22D
000245: 36,2567           71244                           BPL      DLOAD


000247: 36,2570           74575                                    +5
000248:
000249: 36,2571           00027                                    COGAMN                                #  COGAVAIL IS A BAD GUESS, SO PUT
000250: 36,2572           01676                           STORE    COGAVAIL                              #  COGAMN IN COGAVAIL
000251: 36,2573           77650                           GOTO
000252: 36,2574           74577                                    LOOP
000253: 36,2575           77745                           DLOAD
000254: 36,2576           01676                                    COGAVAIL
000255: 36,2577           01733        LOOP               STORE    INDEP
000256: 36,2600           45205                           DMP      DSU
000257: 36,2601           00023                                    18D
000258: 36,2602           00037                                    30D
000259: 36,2603           55301                           NORM     BDDV
000260: 36,2604           00047                                    X1
000261:
000262: 36,2605           00025                                    20D
000263: 36,2606           40057                           SL*      BOV
000264: 36,2607           20172                                    0          -7,1
000265: 36,2610           74712                                    SPEEDY
000266: 36,2611           34043        PSTORE             STCALL   34D                                   #  34D=P (+2)
000267: 36,2612           74751                                    SMAR
000268: 36,2613           77624                           CALL
000269: 36,2614           74766                                    TRIGFNS
000270: 36,2615           77624                           CALL
000271: 36,2616           75151                                    SMA
000272:
000273: 36,2617           77624                           CALL
000274: 36,2620           75217                                    DELTIME
000275: 36,2621           01737        ZOOM               STORE    DEPVAR
000276: 36,2622           77621                           BDSU
000277: 36,2623           01674                                    TF
000278: 36,2624           01743                           STORE    DELDEP
000279: 36,2625           45246                           ABS      DSU
000280: 36,2626           35475                                    DEPCRIT
000281: 36,2627           45040                           BMN      CALL
000282: 36,2630           74651                                    TIMECONV
000283: 36,2631           75316                                    ITERATOR
000284: 36,2632           45246                           ABS      DSU
000285:
000286: 36,2633           35453                                    NEARZERO
000287: 36,2634           71240                           BMN      DLOAD
000288: 36,2635           74661                                    NOSOL
000289: 36,2636           01737                                    DEPVAR
000290: 36,2637           15741                           STODL    PREVDEP
000291: 36,2640           01745                                    DELINDEP
000292: 36,2641           52015                           DAD      GOTO
000293: 36,2642           01733                                    INDEP
000294: 36,2643           74577                                    LOOP
000295: 36,2644           65342        FIRSTCOG           SR1      PDDL                                  #                               PL AT 2D
000296:
000297: 36,2645           00033                                    26D
000298: 36,2646           43342                           SR1      DAD                                   #                               PL AT 0D
000299: 36,2647           77650                           GOTO
000300: 36,2650           74577                                    LOOP


000302: 36,2651           77745        TIMECONV           DLOAD
000303: 36,2652           01733                                    INDEP
000304: 36,2653           01676                           STORE    COGAVAIL
000305: 36,2654           34023                           STCALL   18D                                   #  18D=COGA (+5)
000306: 36,2655           75405                                    INITV
000307: 36,2656           77414                           SET      EXIT
000308:
000309: 36,2657           02061                                    DONESW
000310: 36,2660           15605                           TCF      ENDOFJOB
000311: 36,2661           52014        NOSOL              SET      GOTO
000312: 36,2662           02060                                    CONVSW
000313: 36,2663           74651                                    TIMECONV
000314: 36,2664           43206        ELIPLMTS           PUSH     DAD                                   #                               PL AT 2D
000315: 36,2665           00021                                    16D
000316: 36,2666           51406                           PUSH     ABS                                   #                               PL AT 4D
000317: 36,2667           44205                           DMP      BDSU                                  #                               PL AT 2D
000318: 36,2670           35461                                    PERCENT
000319: 36,2671           77626                           STADR
000320: 36,2672           63744                           STODL    26D                                   #  26D=COGAMX (+5)
000321: 36,2673           00035                                    28D
000322: 36,2674           45261                           SR       DSU
000323: 36,2675           20607                                    6
000324: 36,2676           00037                                    30D
000325: 36,2677           14037                           STODL    30D                                   #  30D=CSTH-R (+7)
000326: 36,2700           00031                                    24D
000327: 36,2701           77742                           SR1
000328: 36,2702           14023                           STODL    18D
000329: 36,2703           00021                                    16D
000330: 36,2704           41425                           DSU      PUSH                                  #                               PL AT 0D,2D
000331:
000332: 36,2705           41246                           ABS      DMP
000333: 36,2706           35461                                    PERCENT
000334: 36,2707           77615                           DAD                                            #                               PL AT 0D
000335: 36,2710           77650                           GOTO
000336: 36,2711           74556                                    ABSMIN     +3
000337: 36,2712           52145        SPEEDY             DLOAD    GOTO
000338: 36,2713           35076                                    DZERO
000339: 36,2714           74621                                    ZOOM
000340:                                                                                                  #  V0VEC (+1) IN MPAC.
000341:


000343:                                                                                                  #  THIS SECTION CALCULATES THE SINE AND COSINE OF THE ANGLE BETWEEN R0VEC
000344:                                                                                                  #  AND R1VEC. THE SIGN OF SIN(TH) IS DETERMINED BY TAG5.  THE COSINE OF THE
000345:
000346:                                                                                                  #  ANGLE IS STORED IN 28D WHILE THE SINE IS IN MPAC AS WELL AS IN 24D, BOTH
000347:                                                                                                  #  ARE SCALED BY  (+2).
000348:
000349:
000350:
000351:                                                                                                  #  ASSUMES R0VEC (+7) , R1VEC (+7) , TAG5 (+/- ACCORDING TO ANGLE GREATER
000352:                                                                                                  #  OR LESS THAN 180 DEG) AVAILABLE.
000353: 36,2715           53575        DTPRD              VLOAD    UNIT
000354: 36,2716           01711                                    R0VEC
000355: 36,2717           15703                           STODL    UNR1
000356:
000357: 36,2720           00045                                    36D
000358: 36,2721           24041                           STOVL    32D                                   #  32D=R1 (+7)
000359: 36,2722           02365                                    R1VEC
000360: 36,2723           77702                           VSR4
000361: 36,2724           41456                           UNIT     PUSH                                  #  32D=R1 (+7)                  PL AT 6D
000362: 36,2725           72441                           DOT      SL1
000363: 36,2726           01703                                    UNR1
000364: 36,2727           24035                           STOVL    28D                                   #  28D=COS(TH) (+1)
000365: 36,2730           01703                                    UNR1
000366: 36,2731           76435                           VXV      VSL1                                  #                               PL AT 0D
000367: 36,2732           75246                           ABVAL    SIGN
000368: 36,2733           01673                                    TAG5
000369:
000370: 36,2734           00031                           STORE    24D                                   #  24D=SIN(TH) (+1)
000371: 36,2735           77616                           RVQ
000372:
000373:                                                                                                  #           28D=COS(TH) (+1), 24D=SIN(TH) (+1)=MPAC.
000374:


000376:                                                                                                  #  THIS SECTION COMPUTES COT(TH/2) = (1+COS(TH))/SIN(TH) SCALED BY (+5),
000377:                                                                                                  #  AND STORES IT IN 16D.  NOTE THAT COT(TH/2) WILL OVERFLOW IF THE ANGLE
000378:                                                                                                  #  TH IS LESS THAN 3 DEG 35 MINUTES OR GREATER THAN 356 DEG 25 MINUTES.
000379:
000380:
000381:
000382:                                                                                                  #  ASSUMES SNTH(+1) IN MPAC, 28D=CSTH (+1).
000383: 36,2736           60254        CGTH               BZE      NORM                                  #  SNTH (+1-N1)
000384:
000385: 36,2737           74747                                    THISPI
000386: 36,2740           00047                                    X1
000387: 36,2741           70525                           PDDL     SR1
000388: 36,2742           00035                                    28D
000389: 36,2743           56215                           DAD      DDV                                   #                               PL AT 0D
000390: 36,2744           35447                                    D1/4
000391: 36,2745           77657                           SL*
000392: 36,2746           20175                                    0          -4,1
000393: 36,2747           00021        THISPI             STORE    16D
000394: 36,2750           77616                           RVQ
000395:
000396:                                                                                                  #           COGTH (+5)=16D.
000397:


000399:                                                                                                  #  THIS SECTION USES COT(GAMMA),I.E. COGA (+5) AND P (+2) TO CALCULATE R1A
000400:
000401:                                                                                                  #  SCALED BY (+6) AND STORES THE RESULT IN 14D.
000402:
000403:
000404:
000405:                                                                                                  #  ASSUMES COGA=INDEP (+5), P (+2)=34D.
000406: 36,2751           63545        SMAR               DLOAD    DSQ
000407: 36,2752           01733                                    INDEP
000408: 36,2753           60215                           DAD      NORM
000409: 36,2754           35441                                    D1/1024
000410: 36,2755           00047                                    X1
000411: 36,2756           53605                           DMP      SR*
000412: 36,2757           00043                                    34D
000413:
000414: 36,2760           20573                                    0          -6,1
000415: 36,2761           40021                           BDSU     BOV
000416: 36,2762           35445                                    D1/32
000417: 36,2763           74712                                    SPEEDY
000418: 36,2764           00017        SMARSTOR           STORE    14D                                   #  14D=R1A (+6)
000419: 36,2765           77616                           RVQ
000420:
000421:
000422:
000423:                                                                                                  #  R1A (+6)=2-P(1+COGA*COGA) IN 14D.
000424:


000426:                                                                                                  #  ASSUMES 16D=COGTH (+5), INDEP=COGA(+5), 34D=P (+2), 14D= R1A (+6).
000427: 36,2766           45345        TRIGFNS            DLOAD    DSU
000428: 36,2767           00021                                    16D
000429: 36,2770           01733                                    INDEP
000430: 36,2771           00045                           STORE    36D                                   #  36D=DCOT=COT(TH/2)-COGA (+5)
000431:
000432:
000433: 36,2772           60316                           DSQ      NORM
000434: 36,2773           00047                                    X1
000435: 36,2774           70405                           DMP      SR1
000436: 36,2775           00043                                    34D
000437: 36,2776           51525                           PDDL     ABS                                   #  DCOT*DCOT (+13-N1)           PL AT 2D
000438: 36,2777           00017                                    14D
000439: 36,3000           55301                           NORM     BDDV                                  #  COGDS (+7-N1+N2)             PL AT 0D
000440: 36,3001           00051                                    S1
000441: 36,3002           53660                           XSU,1    SR*
000442: 36,3003           00050                                    S1
000443: 36,3004           20604                                    3,1
000444: 36,3005           77600                           BOV
000445:
000446: 36,3006           75146                                    COGDSOVF
000447: 36,3007           75206        COGDSTOR           PUSH     SIGN                                  #  COGDS (+10)
000448: 36,3010           00017                                    14D
000449: 36,3011           60215                           DAD      NORM
000450: 36,3012           35441                                    D1/1024
000451: 36,3013           00047                                    X1
000452: 36,3014           65265                           BDDV     PDDL                                  #  2D=1-CSD (-7+N1)             PL AT 4D
000453: 36,3015           35447                                    D1/4
000454: 36,3016           00001                                    0D
000455: 36,3017           60366                           SQRT     NORM
000456:
000457: 36,3020           00050                                    X2
000458: 36,3021           75205                           DMP      SIGN
000459: 36,3022           00003                                    2D
000460: 36,3023           00045                                    36D                                   #  SND=+-(1-CSD)SQRT(COGDS) (-2+N1-N2)
000461: 36,3024           43064                           XSU,2    BON
000462: 36,3025           00046                                    X1
000463: 36,3026           02305                                    ESCPSW
000464: 36,3027           75053                                    HYPTRIG                               #  DUE TO DIFFERENT SCALING
000465: 36,3030           65257                           SR*      PDDL                                  #  DXNGE WITH PD,2D=SND (+1)    PL AT 4D
000466: 36,3031           57173                                    3,2
000467: 36,3032           40057                           SL*      BOV
000468: 36,3033           20171                                    0          -8D,1
000469:
000470: 36,3034           75050                                    HALFCIRC
000471: 36,3035           57406        COSFN              PUSH     DCOMP                                 #  4D=(1-CSD)(+1)               PL AT 6D
000472: 36,3036           65415                           DAD      ACOS
000473: 36,3037           35451                                    D1/2
000474: 36,3040           41365                           SIGN     DMP
000475: 36,3041           00045                                    36D
000476: 36,3042           05600                                    PI/4                                  #  CONVERT FROM CIRCLES TO RADIANS/8
000477: 36,3043           43244                           BPL      DAD
000478: 36,3044           75046                                    +2
000479: 36,3045           05600                                    PI/4


000481: 36,3046           00001                           STORE    0D                                    #  0D=DELTAE (+3)
000482: 36,3047           77616                           RVQ
000483:
000484:
000485:
000486: 36,3050           52145        HALFCIRC           DLOAD    GOTO
000487: 36,3051           35455                                    NEARI
000488: 36,3052           75035                                    COSFN
000489: 36,3053           57457        HYPTRIG            SR*      DCOMP
000490: 36,3054           57162                                    12D,2
000491: 36,3055           77725                           PDDL                                           #  DXNGE WITH PD,2D=SND (+10)   PL AT 4D
000492: 36,3056           41457                           SL*      PUSH
000493:
000494: 36,3057           20160                                    0          -17D,1                     #  4D=(1-CSD) (+10)             PL AT 6D
000495: 36,3060           43276                           DCOMP    DAD
000496: 36,3061           35441                                    D1/1024
000497: 36,3062           65342                           SR1      PDDL                                  #                               PL AT 8D
000498: 36,3063           00003                                    2D
000499: 36,3064           43342                           SR1      DAD                                   #  ARG=COSH(DELG)+SINH(DELG) (+11) PL AT 6D
000500:
000501: 36,3065           44301                           NORM     BDSU                                  #  THIS IS AN ARCSINH ROUTINE
000502: 36,3066           01700                                    SPLOC                                 #  ARG=.5-ARG (+11-N1)
000503: 36,3067           35451                                    D1/2
000504: 36,3070           77776                           EXIT
000505: 36,3071           34557        ARCSINH            CA       TEN
000506:
000507: 36,3072           27677                           ADS      SPLOC                                 #  C(SPLOC)=10-N1
000508: 36,3073           07265                           TC       POLY
000509: 36,3074           00011                           DEC      9          B-14
000510: 36,3075           00000 00000  DZERO              2DEC     .0
000511:
000512: 36,3077           00400 00000                     2DEC     .015625
000513:
000514: 36,3101           00400 00000                     2DEC     .015625
000515:
000516: 36,3103           00525 12525                     2DEC     .020833333
000517:
000518: 36,3105           01000 00000                     2DEC     .03125
000519:
000520: 36,3107           01463 06315                     2DEC     .05
000521:
000522: 36,3111           02525 12525                     2DEC     .083333333
000523:
000524: 36,3113           04444 22222                     2DEC     .14285714
000525:
000526: 36,3115           10000 00000                     2DEC     .25
000527:
000528: 36,3117           16161 30706                     2DEC     .44444444
000529:
000530:
000531: 36,3121           31463 06315                     2DEC     .8
000532:
000533: 36,3123           37761                           CAF      ZERO
000534:


000536: 36,3124           54146                           TS       MPAC       +2
000537: 36,3125           00006                           EXTEND
000538: 36,3126           33463                           DCA      LN2/128
000539: 36,3127           52145                           DXCH     MPAC                                  #  MPAC,+1 CONTAINS LN2/128
000540: 36,3130           53701                           DXCH     SPLOC      +1                         #  SPLOC+1,+2 CONTAINS LN(1/2-ARGS)/128
000541: 36,3131           31677                           CA       SPLOC
000542: 36,3132           07351                           TC       SHORTMP
000543: 36,3133           52146                           DXCH     MPAC       +1
000544:
000545: 36,3134           52145                           DXCH     MPAC                                  #  MPAC CONTAINS (10-N1)LN2/128
000546: 36,3135           53701                           DXCH     SPLOC      +1                         #  A,L CONTAIN LN(1/2-ARGS)/128
000547: 36,3136           00006                           EXTEND
000548: 36,3137           40001                           DCOM
000549: 36,3140           20145                           DAS      MPAC
000550: 36,3141           06103                           TC       INTPRET
000551: 36,3142           77661                           SR
000552: 36,3143           20606                                    5
000553: 36,3144           00001                           STORE    0D                                    #  0D=DELG (+12)                PL AT 6D
000554: 36,3145           77616                           RVQ
000555:
000556:
000557:
000558: 36,3146           52145        COGDSOVF           DLOAD    GOTO
000559: 36,3147           35457                                    BIGNO                                 #  BIGNO=NEARONE-DP1/1024
000560: 36,3150           75007                                    COGDSTOR
000561:                                                                                                  #  RETURNS WITH 0D=DELE (+3) OR DELG(+12),,2D=SND (+1 OR +10),4D=1-CSD (+1
000562:                                                                                                  #  OR +10), AND PUSHLOC AT 6D
000563:


000565:                                                                                                  #  ASSUMES 14D=R1A (+6), 32D= R1 (+7)
000566:
000567: 36,3151           60345        SMA                DLOAD    NORM                                  #  THIS IS ESSENTIALLY A FLOATING POINT SUB
000568: 36,3152           00017                                    14D                                   #  C(SPLOC+1)=-N1
000569: 36,3153           01701                                    SPLOC      +1                         #  SPLOC LATER WILL BE STORED IN X1 FOR SHF
000570: 36,3154           60325                           PDDL     NORM
000571: 36,3155           00041                                    32D
000572: 36,3156           01700                                    SPLOC                                 #  C(SPLOC)=-N2
000573: 36,3157           56342                           SR1      DDV
000574: 36,3160           77446                           ABS      EXIT                                  #  ABS(R1/R1A) (+2+N1-N2)
000575: 36,3161           41700                           CS       SPLOC      +1
000576: 36,3162           61677                           AD       SPLOC
000577: 36,3163           55677                           TS       SPLOC
000578: 36,3164           54020                           TS       CYR
000579:
000580: 36,3165           30020                           CA       CYR
000581: 36,3166           60000                           DOUBLE
000582: 36,3167           54000                           OVSK
000583: 36,3170           13173                           TCF      EVEN
000584: 36,3171           37755        ODD                CA       ONE
000585: 36,3172           13174                           TCF      STORETAG
000586: 36,3173           37761        EVEN               CA       ZERO
000587: 36,3174           55700        STORETAG           TS       SPLOC      +1                         #  A TAG TO DESIGNATE ADDITIONAL SHIFTRIGHT
000588: 36,3175           27677                           ADS      SPLOC                                 #  C(SPLOC)=N1-N2+0 OR 1
000589: 36,3176           31677                           CA       SPLOC
000590:
000591: 36,3177           54021                           TS       SR
000592: 36,3200           60021                           AD       SR
000593: 36,3201           55677                           TS       SPLOC                                 #  C(SPLOC)=3(N1-N2+0 OR 1)/2
000594: 36,3202           06103                           TC       INTPRET
000595: 36,3203           53740                           LXC,1    SR*
000596: 36,3204           01700                                    SPLOC      +1
000597: 36,3205           20601                                    0,1
000598: 36,3206           73006                           PUSH     LXA,2                                 #  ABS(R1/R1A) (+2+N1-N2+0 OR 1)  PL DOWN 2
000599: 36,3207           01677                                    SPLOC                                 #  C(X2)=+3(N1-N2+0 OR 1)/2
000600: 36,3210           41366                           SQRT     DMP                                   #  ARG TO THE 3/2 POWER,SCALED +3+(3/2)(N1
000601:                                                                                                  #  -N2 +0 OR 1)                 PL UP 2
000602: 36,3211           41214                           BOFF     DMP
000603:
000604: 36,3212           02345                                    MOONSW
000605: 36,3213           75215                                    +2
000606: 36,3214           35465                                    ROOTMU
000607: 36,3215           00015                           STORE    12D                                   #  12D=SQRT(ABS(R1/R1A))ABS(R1/R1A)
000608: 36,3216           77616                           RVQ                                            #  SCALED (+3 OR +7)+(3/2)(N1-N2+0 OR 1)
000609:                                                                                                  #  SMA TO THE 3/2 POWER * ROOTMU IN 12D.
000610:                                                                                                  #  IF LSW1 SET, INSIDE SPHERE AND 12D SCALED +7+C(X2)
000611:                                                                                                  #  IF LSW1 OFF, OUTSIDE SPHERE AND 12D SCALED +3+C(X2)
000612:


000614:                                                                                                  #  THIS IS KEPLERS EQUATION FOR TIME-OF-FLIGHT BETWEEN TWO POINTS ON A
000615:                                                                                                  #  CONIC TRAJECTORY.  IT ASSUMES R1A (+6)=14D, P (+2)=34D, 1-CSD (+1,+10,-2
000616:                                                                                                  #  =4D, SND (+1,+10,-2)=2D, D (+3,+12,0)=0D.
000617:
000618: 36,3217           41345        DELTIME            DLOAD    DMP                                   #                               PL AT 6D
000619: 36,3220           00043                                    34D
000620:
000621: 36,3221           00017                                    14D
000622: 36,3222           40061                           SL       BOV
000623: 36,3223           20207                                    6
000624: 36,3224           74712                                    SPEEDY
000625: 36,3225           75446                           ABS      SQRT
000626: 36,3226           77605                           DMP                                            #                               PL AT 4D
000627: 36,3227           72205                           DMP      TLOAD
000628: 36,3230           01733                                    INDEP
000629: 36,3231           00145                                    MPAC                                  #  CHANGES MODE TO TP (00001).
000630: 36,3232           45325                           PDDL     DSU                                   #  SQRT(P ABS(R1A))(1-CSD)COGA (+7 OR 16)
000631: 36,3233           00017                                    14D                                   #                               PL AT 7D
000632: 36,3234           35443                                    D1/64
000633:
000634: 36,3235           77605                           DMP
000635: 36,3236           00003                                    2D
000636: 36,3237           65351                           TLOAD    PDDL                                  #  (R1A-1)SND (+7 OR16)
000637: 36,3240           00145                                    MPAC                                  #  CHANGES MODE TO TP           PL AT 10D
000638: 36,3241           00001                                    0D
000639: 36,3242           76202                           SR4      TAD                                   #  PL PUSHES UP 3 SINCE TAD GOVERNS INSTEAD
000640: 36,3243           77771                           TAD                                            #  OF MODE. MODE REMAINS DP.    PL AT 7D,4D
000641: 36,3244           75301                           NORM     SIGN
000642: 36,3245           00047                                    X1
000643: 36,3246           00017                                    14D
000644:
000645: 36,3247           56005                           DMP      XAD,1                                 #  T (+(3 OR 7)+C(X2)+(7 OR 16)+C(X1))
000646: 36,3250           00015                                    12D
000647: 36,3251           00047                                    X2
000648: 36,3252           77614                           BON
000649: 36,3253           02305                                    SMANGLSW
000650: 36,3254           75305                                    THETASM
000651: 36,3255           43014                           BOFF     BOFF
000652: 36,3256           02345                                    MOONSW
000653: 36,3257           75270                                    NEARERTH
000654: 36,3260           02345                                    ESCPSW
000655: 36,3261           75265                                    +4
000656: 36,3262           52057                           SR*      GOTO
000657:
000658: 36,3263           20564                                    0          -13D,1
000659: 36,3264           75300                                    TMESTORE
000660: 36,3265           52057                           SR*      GOTO
000661: 36,3266           20575                                    0          -4,1
000662: 36,3267           75300                                    TMESTORE
000663: 36,3270           53614        NEARERTH           BOFF     SR*
000664: 36,3271           02345                                    ESCPSW
000665: 36,3272           75276                                    +4
000666: 36,3273           20570                                    0          -9D,1
000667: 36,3274           77650                           GOTO


000669: 36,3275           75300                                    TMESTORE
000670: 36,3276           77657                           SR*
000671:
000672: 36,3277           20601                                    0,1
000673: 36,3300           77600        TMESTORE           BOV
000674: 36,3301           75313                                    TIMELONG
000675: 36,3302           00015                           STORE    12D                                   #  12D=T (+10)
000676: 36,3303           43401                           SETPD    RVQ
000677: 36,3304           00001                                    0D
000678:
000679:
000680:
000681: 36,3305           42414        THETASM            BOFF     SL4                                   #  T (+7 +C(X1))
000682:
000683: 36,3306           02342                                    ITERSW
000684: 36,3307           75310                                    ERTHSFER
000685: 36,3310           52057        ERTHSFER           SR*      GOTO
000686: 36,3311           20604                                    3,1
000687: 36,3312           75300                                    TMESTORE
000688:
000689: 36,3313           52145        TIMELONG           DLOAD    GOTO
000690: 36,3314           35455                                    NEARI
000691: 36,3315           75302                                    TMESTORE   +2
000692:
000693:
000694:
000695:                                                                                                  #  T (+10) IN 12D  AND IN MPAC.
000696:
000697:


000699:                                                                                                  #  THIS IS A GENERAL NEWTON ITERATOR WHEREIN A STARTING INDEPENDENT VARIABL
000700:                                                                                                  #  IS INPUT AND THE CHANGE IN THE INDEPENDENT VARIABLE IS OUTPUT.  THE
000701:                                                                                                  #  BOUNDS OF THE INDEPENDENT VARIABLE,MAXINDEP AND MININDEP, MUST BE AVAILA
000702:                                                                                                  #  BLE AND SWITCH 7 MUST BE SET.  IF A GOOD GUESS TO INDEP IS KNOWN,
000703:                                                                                                  #  TWEEKIT SHOULD BE SET TO A SMALL FRACTION,DEPENDING ON HOW WELL INDEP IS
000704:                                                                                                  #  KNOWN.  OTHERWISE THE FIRST GUESS TO INDEP SHOULD BE .5(MAXINDEP+MININ-
000705:                                                                                                  #  DEP) AND TWEEKIT SHOULD BE SET TO .25. IT IS ASSUMED THAT THE CRITERIA
000706:                                                                                                  #  FOR EXITING FROM THE CALLING PROGRAMS LOOP IS IN THE CALLING PROGRAM.
000707:
000708:                                                                                                  #  THE DEPENDENT VARIABLE MUST BE IN DEPVAR AND THE PREVIOUS ONE MUST BE IN
000709:                                                                                                  #  PREVDEP.  THE SIGN OF TWEEKIT SOULD BE +/- ACCORDING TO WHETHER THE
000710:                                                                                                  #  SINGLE-VALUED FUNCTION IS MONOTONICLY INCREASING OR DECREASING.
000711:
000712:
000713:
000714: 36,3316           71214        ITERATOR           BONCLR   DLOAD
000715: 36,3317           02202                                    ITERSW
000716: 36,3320           75347                                    FRSTTIME
000717: 36,3321           01737                                    DEPVAR
000718:
000719: 36,3322           60225                           DSU      NORM
000720: 36,3323           01741                                    PREVDEP
000721: 36,3324           00047                                    X1
000722: 36,3325           70525                           PDDL     SR1                                   #                               PL DOWN 2
000723: 36,3326           01743                                    DELDEP
000724: 36,3327           77671                           DDV                                            #                               PL UP 2
000725: 36,3330           53605                           DMP      SL*
000726: 36,3331           01745                                    DELINDEP
000727: 36,3332           20202                                    1,1
000728: 36,3333           01745        NEWDELTA           STORE    DELINDEP
000729: 36,3334           71240                           BMN      DLOAD                                 #  NOW MUST CHECK TO SEE IF THIS DELTA CAN
000730: 36,3335           75361                                    MINCHECK                              #  CAUSE THE INDEPENDENT VARIABLE TO EXCEED
000731:
000732: 36,3336           00033                                    MAXINDEP                              #  ITS LIMITS.
000733: 36,3337           45225                           DSU      DSU
000734: 36,3340           01733                                    INDEP
000735: 36,3341           01745                                    DELINDEP
000736: 36,3342           50000                           BOV      BMN
000737: 36,3343           75373                                    XEEDULMT
000738: 36,3344           75373                                    XEEDULMT
000739: 36,3345           43545                           DLOAD    RVQ
000740: 36,3346           01745                                    DELINDEP
000741:
000742:
000743:
000744: 36,3347           41345        FRSTTIME           DLOAD    DMP
000745: 36,3350           00027                                    MININDEP
000746: 36,3351           01735                                    TWEEKIT                               #  TWEEKIT SHOULD BE SET  .25  IF THE FIRST
000747:                                                                                                  #  GUESS OF INDEP WAS .5(MAXINDEP+MININDEP)
000748: 36,3352           41325                           PDDL     DMP                                   #                               DOWN 2D
000749: 36,3353           00033                                    MAXINDEP
000750: 36,3354           01735                                    TWEEKIT
000751: 36,3355           77625                           DSU                                            #                               UP 2D


000753: 36,3356           52165                           SIGN     GOTO
000754:
000755: 36,3357           01743                                    DELDEP
000756: 36,3360           75333                                    NEWDELTA
000757: 36,3361           45345        MINCHECK           DLOAD    DSU
000758: 36,3362           00027                                    MININDEP
000759: 36,3363           01733                                    INDEP
000760: 36,3364           40025                           DSU      BOV
000761: 36,3365           01745                                    DELINDEP
000762: 36,3366           75400                                    XEEDLLMT
000763: 36,3367           71244                           BPL      DLOAD
000764: 36,3370           75400                                    XEEDLLMT
000765: 36,3371           01745                                    DELINDEP
000766: 36,3372           77616                           RVQ
000767:
000768:
000769:
000770:
000771: 36,3373           45345        XEEDULMT           DLOAD    DSU
000772: 36,3374           00033                                    MAXINDEP
000773: 36,3375           01733                                    INDEP
000774: 36,3376           01745                           STORE    DELINDEP
000775: 36,3377           77616                           RVQ
000776:
000777:
000778: 36,3400           45345        XEEDLLMT           DLOAD    DSU
000779: 36,3401           00027                                    MININDEP
000780: 36,3402           01733                                    INDEP
000781: 36,3403           01745                           STORE    DELINDEP
000782: 36,3404           77616                           RVQ
000783:


000785:                                                                                                  #  ASSUMES 32D=R (+7), 34D=P (+2), TAG5 (+/-), 18D=COGA (+5), UNR1 (+1), R2
000786:                                                                                                  #  VEC (+7) AVAILABLE.
000787: 36,3405           60345        INITV              DLOAD    NORM
000788: 36,3406           00041                                    32D
000789: 36,3407           00047                                    X1
000790: 36,3410           70525                           PDDL     SR1                                   #  R1 (+7-N1)                   PL AT 2D
000791:
000792: 36,3411           00043                                    34D
000793: 36,3412           77671                           DDV                                            #  P/R1 (-4+N1)                 PL AT 0D
000794: 36,3413           41214                           BOFF     DMP
000795: 36,3414           02345                                    MOONSW
000796: 36,3415           75422                                    OUTSIDE
000797: 36,3416           35467                                    MU
000798: 36,3417           52057                           SL*      GOTO
000799: 36,3420           20165                                    0          -12D,1
000800: 36,3421           75424                                    MAGVTAN
000801: 36,3422           77657        OUTSIDE            SL*
000802: 36,3423           20173                                    0          -6,1
000803: 36,3424           63366        MAGVTAN            SQRT     PDVL                                  #  V SIN(GAMMA) (+1)            PL AT 2D
000804:
000805:
000806: 36,3425           01703                                    UNR1
000807: 36,3426           63361                           VXSC     PDVL                                  #  2D=COGA UNR1 (+6)            PL AT 8D
000808: 36,3427           00023                                    18D
000809: 36,3430           01725                                    UNNORM
000810: 36,3431           60435                           VXV      VSR4                                  #  UNVTAN (+6)
000811: 36,3432           01703                                    UNR1
000812: 36,3433           74255                           VAD      VXSC                                  #                               PL AT 2D,0D
000813: 36,3434           46561                           VXSC     VSL7
000814: 36,3435           35473                                    VFACT                                 #  SCALE FOR ASCENT STEERING AT +7
000815:
000816: 36,3436           01717                           STORE    V0VEC
000817: 36,3437           77616                           RVQ
000818:
000819:                                                                                                  #  RETURNS WITH VELOCITY IN MPAC AND IN V0VEC SCALED (+1)
000820:
000821:


000823: 36,3440           00020 00000  D1/1024            2DEC     .5         B-9
000824:
000825: 36,3442           00400 00000  D1/64              2DEC     .5         B-5
000826:
000827: 36,3444           01000 00000  D1/32              2DEC     .5         B-4
000828:
000829: 36,3446           10000 00000  D1/4               2DEC     .5         B-1
000830:
000831: 36,3450           20000 00000  D1/2               2DEC     .5
000832:


000836: 36,3452           00000 00001  NEARZERO           2OCT     1
000837:
000838: 36,3454           37777 37777  NEARI              2OCT     3777737777
000839:
000840: 36,3456           37757 37777  BIGNO              2OCT     3775737777
000841:
000842: 36,3460           00020 14223  PERCENT            2DEC     E-3        B-28
000843:
000844: 36,3462           00130 27103  LN2/128            2DEC     .693147181 B-7
000845:
000846: 36,3464           22031 22343  ROOTMU             2DEC     9.0249769  B-4
000847:
000848: 36,3466           31111 32405  MU                 2DEC     .0122774395 B+6
000849:
000850:
000851: 36,3470           40010 40042  ABSOLMIN           2DEC     -.999511590
000852:
000853: 36,3472           30276 05000  VFACT              2DEC     .761606218
000854:
000855: 36,3474  36,3472               TFACT              EQUALS   VFACT
000856: 36,3474           00000 00003  DEPCRIT            2DEC     .000000012
000857:
000858: 36,3476                        COGAMN             EQUALS   22D                                   #  TEMP PATCH BY COVELLI ******************

End of include-file LAMB.agc.  Parent file is MAIN.agc


