
Source Code


000002:                                                                                                  ## Copyright:   Public domain.
000003:                                                                                                  ## Filename:    LAMB.agc
000004:                                                                                                  ## Purpose:     A section of Sunburst revision 37, or Shepatin revision 0.
000005:                                                                                                  ##              It is part of an early development version of the software
000006:                                                                                                  ##              for Apollo Guidance Computer (AGC) on the unmanned Lunar
000007:                                                                                                  ##              Module (LM) flight Apollo 5. Sunburst 37 was the program
000008:                                                                                                  ##              upon which Don Eyles's offline development program Shepatin
000009:                                                                                                  ##              was based; the listing herein transcribed was actually for
000010:                                                                                                  ##              the equivalent revision 0 of Shepatin.
000011:                                                                                                  ##              This file is intended to be a faithful transcription, except
000012:                                                                                                  ##              that the code format has been changed to conform to the
000013:                                                                                                  ##              requirements of the yaYUL assembler rather than the
000014:                                                                                                  ##              original YUL assembler.
000015:                                                                                                  ## Reference:   pp. 865-884
000016:                                                                                                  ## Assembler:   yaYUL
000017:                                                                                                  ## Contact:     Ron Burkey <info@sandroid.org>.
000018:                                                                                                  ## Website:     www.ibiblio.org/apollo/index.html
000019:                                                                                                  ## Mod history: 2017-05-24 MAS  Created from Sunburst 120.
000020:                                                                                                  ##              2017-06-10 MAS  Updated for Sunburst 37.
000021:                                                                                                  ##              2017-06-14 HG   Fix interpretive operand COGAMIN -> COGAMN
000022:


000024: 36,2430                                           BANK     36
000025: 36,2430  E3,1671                                  EBANK=   RTN
000026:
000027:
000028:                                                                                                  #   PROGRAM NAME ... LAMBERT ROUTINE                                        DATE ... 11/29/66
000029:
000030:                                                                                                  #   MOD NO ... 3                                                            LOG SECTION ...LAMB
000031:
000032:                                                                                                  #                                                                           ASSEMBLY ... SUNBURST REVISION 03
000033:
000034:                                                                                                  #   MODIFICATION BY ... J.J. BESTER AND L.G. HULL
000035:                                                                                                  #   FUNCTIONAL DESCRIPTION ...
000036:
000037:                                                                                                  #     THIS SUBROUTINE SOLVES FOR THE CONIC TRAJECTORY BETWEEN R0VEC AND R1VEC WHICH SATISFIES A SPECIFIED TIME
000038:                                                                                                  #   OF FLIGHT, TFL.  A SLOPE ITERATOR IS USED TO FORCE THE TIME OF FLIGHT TO CONVERGE.
000039:
000040:
000041:
000042:                                                                                                  #   CALLING SEQUENCE:
000043:
000044:                                                                                                  #   THIS ROUTINE IS CALLED IN THE INTERPRETIVE MODE BY
000045:                                                                                                  #                                                                  CALL
000046:                                                                                                  #                                                                           LAMBERT
000047:
000048:
000049:
000050:                                                                                                  #   NORMAL EXIT MODE:
000051:
000052:                                                                                                  #   EXIT FROM THIS ROUTINE IS IN BASIC BY
000053:                                                                                                  #                                                                  TCF      ENDOFJOB
000054:
000055:
000056:
000057:                                                                                                  #   OUTPUT:
000058:
000059:                                                                                                  #   THE OUTPUT OF THIS ROUTINE (WITH SCALING INDICATED IN PARENTHESES) CONSISTS OF ...
000060:
000061:                                                                                                  #   V0VEC (+7)    -THE REQUIRED VELOCITY VECTOR IN METERS/CENTISECONDS
000062:
000063:                                                                                                  #  DONESW         -THE DONE SWITCH INDICATING WHETHER THE JOB HAS BEEN COMPLETED.  WHEN THE JOB IS DONE IT
000064:                                                                                                  #                  IS TURNED ON.
000065:
000066:                                                                                                  #   CONVSW        - THE CONVERGENCE SWITCH INDICATING WHETHER THE ITERATION PROCESS HAS CONVERGED.  IT IS TURNED
000067:                                                                                                  #                  ON IF CONVERGENCE HAS NOT OCCURRED, BUT AN ESTIMATE OF V0VEC IS NEVERTHELESS GIVEN.
000068:
000069:
000070:
000071:                                                                                                  #   INPUT:
000072:
000073:                                                                                                  #   THE QUANTITIES INPUTED AND THEIR SCALE FACTORS ARE ...


000075:                                                                                                  #  RCOV   (+25)   -INITIAL POSITION IN METERS.
000076:                                                                                                  #   R1VEC (+25)   -THE TARGET POSITION IN METERS.
000077:
000078:                                                                                                  #   TFL (+28)     -TIME OF FLIGHT IN CENTISECONDS.
000079:
000080:                                                                                                  #   UNNORM (+1)   -A UNIT VECTOR IN THE DIRECTION OF THE ANGULAR MOMENTUM  VECTOR.
000081:
000082:                                                                                                  #   TAG5          -A PARAMETER SET TO -0.5 IF THE TRUE ANOMALY DIFFERENCE BETWEEN R0VEC AND R1VEC IS MORE THAN
000083:                                                                                                  #                  180 DEGREES.  OTHERWISE IT SHOULD BE SET TO +0.5.
000084:
000085:                                                                                                  #   GUESSW        -THE GUESS SWITCH, IF A FIRST GUESS TO THE COTANGENT OF THE FLIGHT PATH ANGLE IS AVAILABLE THE
000086:                                                                                                  #                  SWITCH SHOULD BE SET , CLEAR IF NO GUESS IS FORTHCOMING.
000087:
000088:                                                                                                  #   COGAVAIL (+5) -THE AVAILABLE COTANGENT OF THE FLIGHT PATH ANGLE.  IF A GUESS IS AVAILABLE THE GUESSW SHOULD BE
000089:                                                                                                  #                  SET AND THE GUESS PLACED HERE BEFORE THE LAMBERT ROUTINE IS ENTERED.  AFTER ONE PASS THROUGH
000090:                                                                                                  #                  LAMBERT, THE LAST ITERATED VALUE OF THE COTANGENT IS PLACED IN COGAVAIL AND  MAY BE USED AS THE
000091:                                                                                                  #                  GUESS FOR THE NEXT PASS.
000092:
000093:
000094:
000095:                                                                                                  #   THE FOLLOWING SWITCHES ARE IN THIS ROUTINE , THOUGH THEY ARE NOT USED FOR THIS PARTICULAR MISSION AND ARE
000096:                                                                                                  #   ALWAYS CLEAR IN 206.
000097:
000098:                                                                                                  #   MOONSW        - THE MOON SWITCH: 1-INSIDE THE SPHERE OF INFLUENCE OF THE MOON (35,000 N.MI.)
000099:                                                                                                  #                                    0-OUTSIDE
000100:
000101:                                                                                                  #   ESCPSW        -THE ESCAPE SWITCH: 1-HYPERBOLIC ORBIT
000102:                                                                                                  #                                     0-ELLIPTIC ORBIT
000103:
000104:                                                                                                  #   SMANGLSW      -SMALL ANGLE SWITCH: 1-SMALL TRANSFER ANGLES
000105:                                                                                                  #                                      0-LARGE ANGLES (THE USUAL CASE)
000106:
000107:                                                                                                  #   TWO SWITCHES ARE USED INTERNALLY.  THEY ARE ...
000108:
000109:                                                                                                  #   ITERSW        -THE ITERATION SWITCH: 1-FIRST ITERATION IS TO TAKE PLACE
000110:                                                                                                  #                                        0-SUBSEQUENT ITERATIONS
000111:
000112:                                                                                                  #   PIESW         -THE 180 DEGREES SWITCH: 1-ANGLES GREATER THAN 180 DEGREES WITH TAG5=-0.5
000113:                                                                                                  #                                          0-ANGLES LESS THAN 180, TAG5=0.5
000114:
000115:
000116:
000117:                                                                                                  #   DEBRIS ...
000118:
000119:                                                                                                  #     THE LAMBERT ROUTINE INTERNALLY USES SCALING WHICH IS DIFFERENT FROM THAT USED BY THE MAIN PROGRAM.
000120:                                                                                                  #   INTERNAL TO LAMBERT,
000121:                                                                                                  #                                7
000122:                                                                                                  #   LENGTH IS SCALED BY RNORM = 2  RE
000123:
000124:                                                                                                  #   VELOCITY IS SCALED BY VNORM = 2 SQRT(MU/RE)


000126:                                                                                                  #                              10        3
000127:                                                                                                  #   TIME IS SCALED BY TNORM = 2   SQRT(RE /MU)
000128:                                                                                                  #   WHERE MU IS THE GRAVITATIONAL CONSTANT TIMES THE MASS OF THE EARTH AND RE IS THE RADIUS OF THE EARTH.
000129:                                                                                                  #            22
000130:                                                                                                  #   FOR RE, 2   METERS IS USED. HOWEVER, INPUT AND OUTPUT QUANTITIES HAVE  SCALING COMPATIBLE WITH THE REST OF THE
000131:                                                                                                  #   PROGRAM.  RESCALING WILL BE DONE BY THE LAMBERT ROUTINE BEFORE COMPUTATIONS BEGIN.
000132:


000134: 36,2430           40214        LAMBERT            SET      SETPD
000135: 36,2431           02062                                    ITERSW
000136:
000137: 36,2432           00001                                    0D
000138: 36,2433           43014                           CLEAR    CLEAR
000139: 36,2434           02265                                    MOONSW
000140: 36,2435           02261                                    DONESW
000141: 36,2436           43014                           CLEAR    CLEAR
000142: 36,2437           02265                                    SMANGLSW
000143: 36,2440           02264                                    PIESW
000144: 36,2441           51145                           DLOAD    BPL
000145: 36,2442           01673                                    TAG5
000146: 36,2443           74446                                    +3
000147:
000148: 36,2444           77614                           SET
000149: 36,2445           02064                                    PIESW
000150: 36,2446           77614                           BON
000151: 36,2447           02303                                    GUESSW
000152: 36,2450           74456                                    +6
000153: 36,2451           77745                           DLOAD
000154: 36,2452           35447                                    D1/4
000155: 36,2453           01735                           STORE    TWEEKIT
000156: 36,2454           77650                           GOTO
000157: 36,2455           74461                                    PROG
000158: 36,2456           77745                           DLOAD
000159: 36,2457           35443                                    D1/64
000160:
000161: 36,2460           01735                           STORE    TWEEKIT
000162: 36,2461           41345        PROG               DLOAD    DMP
000163: 36,2462           02167                                    TFL
000164: 36,2463           35473                                    TFACT
000165: 36,2464           77652                           SL3                                            #  RESCALE TIME OF FLIGHT
000166: 36,2465           25674                           STOVL    TF
000167: 36,2466           02141                                    RCOV                                  #  RCOV (+25) ASSUMED
000168: 36,2467           77702                           VSR4
000169: 36,2470           35711                           STCALL   R0VEC
000170: 36,2471           74715                                    DTPRD
000171:
000172: 36,2472           77624                           CALL
000173: 36,2473           74736                                    CGTH
000174: 36,2474           60345                           DLOAD    NORM
000175: 36,2475           00045                                    36D
000176: 36,2476           00047                                    X1
000177: 36,2477           53665                           BDDV     SL*
000178: 36,2500           00041                                    32D
000179: 36,2501           20172                                    0          -7,1
000180: 36,2502           14037                           STODL    30D                                   #  30D=R (+7)
000181:
000182: 36,2503           35451                                    D1/2
000183: 36,2504           70425                           DSU      SR1
000184:
000185: 36,2505           00035                                    28D
000186: 36,2506           00025                           STORE    20D                                   #  20D=1-CSTH (+2) (FOR PCALC IN LOOP)
000187:
000188: 36,2507           65301                           NORM     PDDL                                  #  1-CSTH (+2-N1)               PL AT 2D


000190: 36,2510           00047                                    X1
000191: 36,2511           00037                                    30D
000192: 36,2512           77671                           DDV                                            #                               PL AT 0D
000193: 36,2513           75457                           SL*      SQRT
000194: 36,2514           20175                                    0          -4,1
000195: 36,2515           44214                           BOFF     BDSU
000196: 36,2516           02345                                    ESCPSW
000197: 36,2517           74664                                    ELIPLMTS
000198:
000199: 36,2520           00021                                    16D
000200: 36,2521           51406                           PUSH     ABS                                   #                               PL AT 2D
000201: 36,2522           44205                           DMP      BDSU                                  #                               PL AT 0D
000202: 36,2523           35461                                    PERCENT
000203: 36,2524           77626                           STADR
000204: 36,2525           63744                           STODL    26D                                   #  26D=COGAMX
000205:
000206: 36,2526           00031                                    24D
000207: 36,2527           77742                           SR1
000208: 36,2530           00023                           STORE    18D                                   #  18D=SIN(TH) (+2) (FOR PCALC IN LOOP)
000209:
000210: 36,2531           65301                           NORM     PDDL                                  #  SIN(TH) (+1-N1)              PL AT 2D
000211: 36,2532           00047                                    X1
000212: 36,2533           00035                                    28D
000213: 36,2534           45261                           SR       DSU
000214: 36,2535           20607                                    6
000215: 36,2536           00037                                    30D
000216: 36,2537           00037                           STORE    30D                                   #  30D=COS(TH)-R (+7)  (FOR PCALC IN LOOP)
000217:
000218: 36,2540           56214                           BON      DDV                                   #                               PL AT 0D
000219: 36,2541           02304                                    PIESW
000220: 36,2542           74553                                    ABSMIN
000221: 36,2543           40057                           SL*      BOV
000222:
000223: 36,2544           20201                                    0,1
000224: 36,2545           74553                                    ABSMIN
000225: 36,2546           51406                           PUSH     ABS                                   #  (CSTH-R)/SNTH (+5)           PL AT 2D
000226: 36,2547           43205                           DMP      DAD                                   #                               PL AT 0D
000227: 36,2550           35461                                    PERCENT
000228: 36,2551           77650                           GOTO
000229: 36,2552           74556                                    +4
000230: 36,2553           71201        ABSMIN             SETPD    DLOAD                                 #                               PL AT 0D
000231: 36,2554           00001                                    0D
000232: 36,2555           35471                                    ABSOLMIN
000233:
000234: 36,2556           00027                           STORE    22D                                   #  22D=COGAMN (+5)
000235: 36,2557           71214                           BOFF     DLOAD                                 #                               PL AT 2D
000236: 36,2560           02343                                    GUESSW
000237: 36,2561           74644                                    FIRSTCOG
000238: 36,2562           01676                                    COGAVAIL
000239: 36,2563           45214                           BON      DSU                                   #  IF ESCPSW IS OFF, CHECK IF COGAVAIL
000240: 36,2564           02305                                    ESCPSW                                #  IS LESS THAN COGAMN
000241: 36,2565           74577                                    LOOP
000242: 36,2566           00027                                    22D
000243: 36,2567           71244                           BPL      DLOAD


000245: 36,2570           74575                                    +5
000246:
000247: 36,2571           00027                                    COGAMN                                #  COGAVAIL IS A BAD GUESS, SO PUT
000248: 36,2572           01676                           STORE    COGAVAIL                              #  COGAMN IN COGAVAIL
000249: 36,2573           77650                           GOTO
000250: 36,2574           74577                                    LOOP
000251: 36,2575           77745                           DLOAD
000252: 36,2576           01676                                    COGAVAIL
000253: 36,2577           01733        LOOP               STORE    INDEP
000254: 36,2600           45205                           DMP      DSU
000255: 36,2601           00023                                    18D
000256: 36,2602           00037                                    30D
000257: 36,2603           55301                           NORM     BDDV
000258: 36,2604           00047                                    X1
000259:
000260: 36,2605           00025                                    20D
000261: 36,2606           40057                           SL*      BOV
000262: 36,2607           20172                                    0          -7,1
000263: 36,2610           74712                                    SPEEDY
000264: 36,2611           34043        PSTORE             STCALL   34D                                   #  34D=P (+2)
000265: 36,2612           74751                                    SMAR
000266: 36,2613           77624                           CALL
000267: 36,2614           74766                                    TRIGFNS
000268: 36,2615           77624                           CALL
000269: 36,2616           75151                                    SMA
000270:
000271: 36,2617           77624                           CALL
000272: 36,2620           75217                                    DELTIME
000273: 36,2621           01737        ZOOM               STORE    DEPVAR
000274: 36,2622           77621                           BDSU
000275: 36,2623           01674                                    TF
000276: 36,2624           01743                           STORE    DELDEP
000277: 36,2625           45246                           ABS      DSU
000278: 36,2626           35475                                    DEPCRIT
000279: 36,2627           45040                           BMN      CALL
000280: 36,2630           74651                                    TIMECONV
000281: 36,2631           75316                                    ITERATOR
000282: 36,2632           45246                           ABS      DSU
000283:
000284: 36,2633           35453                                    NEARZERO
000285: 36,2634           71240                           BMN      DLOAD
000286: 36,2635           74661                                    NOSOL
000287: 36,2636           01737                                    DEPVAR
000288: 36,2637           15741                           STODL    PREVDEP
000289: 36,2640           01745                                    DELINDEP
000290: 36,2641           52015                           DAD      GOTO
000291: 36,2642           01733                                    INDEP
000292: 36,2643           74577                                    LOOP
000293: 36,2644           65342        FIRSTCOG           SR1      PDDL                                  #                               PL AT 2D
000294:
000295: 36,2645           00033                                    26D
000296: 36,2646           43342                           SR1      DAD                                   #                               PL AT 0D
000297: 36,2647           77650                           GOTO
000298: 36,2650           74577                                    LOOP


000300: 36,2651           77745        TIMECONV           DLOAD
000301: 36,2652           01733                                    INDEP
000302: 36,2653           01676                           STORE    COGAVAIL
000303: 36,2654           34023                           STCALL   18D                                   #  18D=COGA (+5)
000304: 36,2655           75405                                    INITV
000305: 36,2656           77414                           SET      EXIT
000306:
000307: 36,2657           02061                                    DONESW
000308: 36,2660           15605                           TCF      ENDOFJOB
000309: 36,2661           52014        NOSOL              SET      GOTO
000310: 36,2662           02060                                    CONVSW
000311: 36,2663           74651                                    TIMECONV
000312: 36,2664           43206        ELIPLMTS           PUSH     DAD                                   #                               PL AT 2D
000313: 36,2665           00021                                    16D
000314: 36,2666           51406                           PUSH     ABS                                   #                               PL AT 4D
000315: 36,2667           44205                           DMP      BDSU                                  #                               PL AT 2D
000316: 36,2670           35461                                    PERCENT
000317: 36,2671           77626                           STADR
000318: 36,2672           63744                           STODL    26D                                   #  26D=COGAMX (+5)
000319: 36,2673           00035                                    28D
000320: 36,2674           45261                           SR       DSU
000321: 36,2675           20607                                    6
000322: 36,2676           00037                                    30D
000323: 36,2677           14037                           STODL    30D                                   #  30D=CSTH-R (+7)
000324: 36,2700           00031                                    24D
000325: 36,2701           77742                           SR1
000326: 36,2702           14023                           STODL    18D
000327: 36,2703           00021                                    16D
000328: 36,2704           41425                           DSU      PUSH                                  #                               PL AT 0D,2D
000329:
000330: 36,2705           41246                           ABS      DMP
000331: 36,2706           35461                                    PERCENT
000332: 36,2707           77615                           DAD                                            #                               PL AT 0D
000333: 36,2710           77650                           GOTO
000334: 36,2711           74556                                    ABSMIN     +3
000335: 36,2712           52145        SPEEDY             DLOAD    GOTO
000336: 36,2713           35076                                    DZERO
000337: 36,2714           74621                                    ZOOM
000338:                                                                                                  #  V0VEC (+1) IN MPAC.
000339:


000341:                                                                                                  #  THIS SECTION CALCULATES THE SINE AND COSINE OF THE ANGLE BETWEEN R0VEC
000342:                                                                                                  #  AND R1VEC. THE SIGN OF SIN(TH) IS DETERMINED BY TAG5.  THE COSINE OF THE
000343:
000344:                                                                                                  #  ANGLE IS STORED IN 28D WHILE THE SINE IS IN MPAC AS WELL AS IN 24D, BOTH
000345:                                                                                                  #  ARE SCALED BY  (+2).
000346:
000347:
000348:
000349:                                                                                                  #  ASSUMES R0VEC (+7) , R1VEC (+7) , TAG5 (+/- ACCORDING TO ANGLE GREATER
000350:                                                                                                  #  OR LESS THAN 180 DEG) AVAILABLE.
000351: 36,2715           53575        DTPRD              VLOAD    UNIT
000352: 36,2716           01711                                    R0VEC
000353: 36,2717           15703                           STODL    UNR1
000354:
000355: 36,2720           00045                                    36D
000356: 36,2721           24041                           STOVL    32D                                   #  32D=R1 (+7)
000357: 36,2722           02365                                    R1VEC
000358: 36,2723           77702                           VSR4
000359: 36,2724           41456                           UNIT     PUSH                                  #  32D=R1 (+7)                  PL AT 6D
000360: 36,2725           72441                           DOT      SL1
000361: 36,2726           01703                                    UNR1
000362: 36,2727           24035                           STOVL    28D                                   #  28D=COS(TH) (+1)
000363: 36,2730           01703                                    UNR1
000364: 36,2731           76435                           VXV      VSL1                                  #                               PL AT 0D
000365: 36,2732           75246                           ABVAL    SIGN
000366: 36,2733           01673                                    TAG5
000367:
000368: 36,2734           00031                           STORE    24D                                   #  24D=SIN(TH) (+1)
000369: 36,2735           77616                           RVQ
000370:
000371:                                                                                                  #           28D=COS(TH) (+1), 24D=SIN(TH) (+1)=MPAC.
000372:


000374:                                                                                                  #  THIS SECTION COMPUTES COT(TH/2) = (1+COS(TH))/SIN(TH) SCALED BY (+5),
000375:                                                                                                  #  AND STORES IT IN 16D.  NOTE THAT COT(TH/2) WILL OVERFLOW IF THE ANGLE
000376:                                                                                                  #  TH IS LESS THAN 3 DEG 35 MINUTES OR GREATER THAN 356 DEG 25 MINUTES.
000377:
000378:
000379:
000380:                                                                                                  #  ASSUMES SNTH(+1) IN MPAC, 28D=CSTH (+1).
000381: 36,2736           60254        CGTH               BZE      NORM                                  #  SNTH (+1-N1)
000382:
000383: 36,2737           74747                                    THISPI
000384: 36,2740           00047                                    X1
000385: 36,2741           70525                           PDDL     SR1
000386: 36,2742           00035                                    28D
000387: 36,2743           56215                           DAD      DDV                                   #                               PL AT 0D
000388: 36,2744           35447                                    D1/4
000389: 36,2745           77657                           SL*
000390: 36,2746           20175                                    0          -4,1
000391: 36,2747           00021        THISPI             STORE    16D
000392: 36,2750           77616                           RVQ
000393:
000394:                                                                                                  #           COGTH (+5)=16D.
000395:


000397:                                                                                                  #  THIS SECTION USES COT(GAMMA),I.E. COGA (+5) AND P (+2) TO CALCULATE R1A
000398:
000399:                                                                                                  #  SCALED BY (+6) AND STORES THE RESULT IN 14D.
000400:
000401:
000402:
000403:                                                                                                  #  ASSUMES COGA=INDEP (+5), P (+2)=34D.
000404: 36,2751           63545        SMAR               DLOAD    DSQ
000405: 36,2752           01733                                    INDEP
000406: 36,2753           60215                           DAD      NORM
000407: 36,2754           35441                                    D1/1024
000408: 36,2755           00047                                    X1
000409: 36,2756           53605                           DMP      SR*
000410: 36,2757           00043                                    34D
000411:
000412: 36,2760           20573                                    0          -6,1
000413: 36,2761           40021                           BDSU     BOV
000414: 36,2762           35445                                    D1/32
000415: 36,2763           74712                                    SPEEDY
000416: 36,2764           00017        SMARSTOR           STORE    14D                                   #  14D=R1A (+6)
000417: 36,2765           77616                           RVQ
000418:
000419:
000420:
000421:                                                                                                  #  R1A (+6)=2-P(1+COGA*COGA) IN 14D.
000422:


000424:                                                                                                  #  ASSUMES 16D=COGTH (+5), INDEP=COGA(+5), 34D=P (+2), 14D= R1A (+6).
000425: 36,2766           45345        TRIGFNS            DLOAD    DSU
000426: 36,2767           00021                                    16D
000427: 36,2770           01733                                    INDEP
000428: 36,2771           00045                           STORE    36D                                   #  36D=DCOT=COT(TH/2)-COGA (+5)
000429:
000430:
000431: 36,2772           60316                           DSQ      NORM
000432: 36,2773           00047                                    X1
000433: 36,2774           70405                           DMP      SR1
000434: 36,2775           00043                                    34D
000435: 36,2776           51525                           PDDL     ABS                                   #  DCOT*DCOT (+13-N1)           PL AT 2D
000436: 36,2777           00017                                    14D
000437: 36,3000           55301                           NORM     BDDV                                  #  COGDS (+7-N1+N2)             PL AT 0D
000438: 36,3001           00051                                    S1
000439: 36,3002           53660                           XSU,1    SR*
000440: 36,3003           00050                                    S1
000441: 36,3004           20604                                    3,1
000442: 36,3005           77600                           BOV
000443:
000444: 36,3006           75146                                    COGDSOVF
000445: 36,3007           75206        COGDSTOR           PUSH     SIGN                                  #  COGDS (+10)
000446: 36,3010           00017                                    14D
000447: 36,3011           60215                           DAD      NORM
000448: 36,3012           35441                                    D1/1024
000449: 36,3013           00047                                    X1
000450: 36,3014           65265                           BDDV     PDDL                                  #  2D=1-CSD (-7+N1)             PL AT 4D
000451: 36,3015           35447                                    D1/4
000452: 36,3016           00001                                    0D
000453: 36,3017           60366                           SQRT     NORM
000454:
000455: 36,3020           00050                                    X2
000456: 36,3021           75205                           DMP      SIGN
000457: 36,3022           00003                                    2D
000458: 36,3023           00045                                    36D                                   #  SND=+-(1-CSD)SQRT(COGDS) (-2+N1-N2)
000459: 36,3024           43064                           XSU,2    BON
000460: 36,3025           00046                                    X1
000461: 36,3026           02305                                    ESCPSW
000462: 36,3027           75053                                    HYPTRIG                               #  DUE TO DIFFERENT SCALING
000463: 36,3030           65257                           SR*      PDDL                                  #  DXNGE WITH PD,2D=SND (+1)    PL AT 4D
000464: 36,3031           57173                                    3,2
000465: 36,3032           40057                           SL*      BOV
000466: 36,3033           20171                                    0          -8D,1
000467:
000468: 36,3034           75050                                    HALFCIRC
000469: 36,3035           57406        COSFN              PUSH     DCOMP                                 #  4D=(1-CSD)(+1)               PL AT 6D
000470: 36,3036           65415                           DAD      ACOS
000471: 36,3037           35451                                    D1/2
000472: 36,3040           41365                           SIGN     DMP
000473: 36,3041           00045                                    36D
000474: 36,3042           05600                                    PI/4                                  #  CONVERT FROM CIRCLES TO RADIANS/8
000475: 36,3043           43244                           BPL      DAD
000476: 36,3044           75046                                    +2
000477: 36,3045           05600                                    PI/4


000479: 36,3046           00001                           STORE    0D                                    #  0D=DELTAE (+3)
000480: 36,3047           77616                           RVQ
000481:
000482:
000483:
000484: 36,3050           52145        HALFCIRC           DLOAD    GOTO
000485: 36,3051           35455                                    NEARI
000486: 36,3052           75035                                    COSFN
000487: 36,3053           57457        HYPTRIG            SR*      DCOMP
000488: 36,3054           57162                                    12D,2
000489: 36,3055           77725                           PDDL                                           #  DXNGE WITH PD,2D=SND (+10)   PL AT 4D
000490: 36,3056           41457                           SL*      PUSH
000491:
000492: 36,3057           20160                                    0          -17D,1                     #  4D=(1-CSD) (+10)             PL AT 6D
000493: 36,3060           43276                           DCOMP    DAD
000494: 36,3061           35441                                    D1/1024
000495: 36,3062           65342                           SR1      PDDL                                  #                               PL AT 8D
000496: 36,3063           00003                                    2D
000497: 36,3064           43342                           SR1      DAD                                   #  ARG=COSH(DELG)+SINH(DELG) (+11) PL AT 6D
000498:
000499: 36,3065           44301                           NORM     BDSU                                  #  THIS IS AN ARCSINH ROUTINE
000500: 36,3066           01700                                    SPLOC                                 #  ARG=.5-ARG (+11-N1)
000501: 36,3067           35451                                    D1/2
000502: 36,3070           77776                           EXIT
000503: 36,3071           34557        ARCSINH            CA       TEN
000504:
000505: 36,3072           27677                           ADS      SPLOC                                 #  C(SPLOC)=10-N1
000506: 36,3073           07265                           TC       POLY
000507: 36,3074           00011                           DEC      9          B-14
000508: 36,3075           00000 00000  DZERO              2DEC     .0
000509:
000510: 36,3077           00400 00000                     2DEC     .015625
000511:
000512: 36,3101           00400 00000                     2DEC     .015625
000513:
000514: 36,3103           00525 12525                     2DEC     .020833333
000515:
000516: 36,3105           01000 00000                     2DEC     .03125
000517:
000518: 36,3107           01463 06315                     2DEC     .05
000519:
000520: 36,3111           02525 12525                     2DEC     .083333333
000521:
000522: 36,3113           04444 22222                     2DEC     .14285714
000523:
000524: 36,3115           10000 00000                     2DEC     .25
000525:
000526: 36,3117           16161 30706                     2DEC     .44444444
000527:
000528:
000529: 36,3121           31463 06315                     2DEC     .8
000530:
000531: 36,3123           37761                           CAF      ZERO
000532:


000534: 36,3124           54146                           TS       MPAC       +2
000535: 36,3125           00006                           EXTEND
000536: 36,3126           33463                           DCA      LN2/128
000537: 36,3127           52145                           DXCH     MPAC                                  #  MPAC,+1 CONTAINS LN2/128
000538: 36,3130           53701                           DXCH     SPLOC      +1                         #  SPLOC+1,+2 CONTAINS LN(1/2-ARGS)/128
000539: 36,3131           31677                           CA       SPLOC
000540: 36,3132           07351                           TC       SHORTMP
000541: 36,3133           52146                           DXCH     MPAC       +1
000542:
000543: 36,3134           52145                           DXCH     MPAC                                  #  MPAC CONTAINS (10-N1)LN2/128
000544: 36,3135           53701                           DXCH     SPLOC      +1                         #  A,L CONTAIN LN(1/2-ARGS)/128
000545: 36,3136           00006                           EXTEND
000546: 36,3137           40001                           DCOM
000547: 36,3140           20145                           DAS      MPAC
000548: 36,3141           06103                           TC       INTPRET
000549: 36,3142           77661                           SR
000550: 36,3143           20606                                    5
000551: 36,3144           00001                           STORE    0D                                    #  0D=DELG (+12)                PL AT 6D
000552: 36,3145           77616                           RVQ
000553:
000554:
000555:
000556: 36,3146           52145        COGDSOVF           DLOAD    GOTO
000557: 36,3147           35457                                    BIGNO                                 #  BIGNO=NEARONE-DP1/1024
000558: 36,3150           75007                                    COGDSTOR
000559:                                                                                                  #  RETURNS WITH 0D=DELE (+3) OR DELG(+12),,2D=SND (+1 OR +10),4D=1-CSD (+1
000560:                                                                                                  #  OR +10), AND PUSHLOC AT 6D
000561:


000563:                                                                                                  #  ASSUMES 14D=R1A (+6), 32D= R1 (+7)
000564:
000565: 36,3151           60345        SMA                DLOAD    NORM                                  #  THIS IS ESSENTIALLY A FLOATING POINT SUB
000566: 36,3152           00017                                    14D                                   #  C(SPLOC+1)=-N1
000567: 36,3153           01701                                    SPLOC      +1                         #  SPLOC LATER WILL BE STORED IN X1 FOR SHF
000568: 36,3154           60325                           PDDL     NORM
000569: 36,3155           00041                                    32D
000570: 36,3156           01700                                    SPLOC                                 #  C(SPLOC)=-N2
000571: 36,3157           56342                           SR1      DDV
000572: 36,3160           77446                           ABS      EXIT                                  #  ABS(R1/R1A) (+2+N1-N2)
000573: 36,3161           41700                           CS       SPLOC      +1
000574: 36,3162           61677                           AD       SPLOC
000575: 36,3163           55677                           TS       SPLOC
000576: 36,3164           54020                           TS       CYR
000577:
000578: 36,3165           30020                           CA       CYR
000579: 36,3166           60000                           DOUBLE
000580: 36,3167           54000                           OVSK
000581: 36,3170           13173                           TCF      EVEN
000582: 36,3171           37755        ODD                CA       ONE
000583: 36,3172           13174                           TCF      STORETAG
000584: 36,3173           37761        EVEN               CA       ZERO
000585: 36,3174           55700        STORETAG           TS       SPLOC      +1                         #  A TAG TO DESIGNATE ADDITIONAL SHIFTRIGHT
000586: 36,3175           27677                           ADS      SPLOC                                 #  C(SPLOC)=N1-N2+0 OR 1
000587: 36,3176           31677                           CA       SPLOC
000588:
000589: 36,3177           54021                           TS       SR
000590: 36,3200           60021                           AD       SR
000591: 36,3201           55677                           TS       SPLOC                                 #  C(SPLOC)=3(N1-N2+0 OR 1)/2
000592: 36,3202           06103                           TC       INTPRET
000593: 36,3203           53740                           LXC,1    SR*
000594: 36,3204           01700                                    SPLOC      +1
000595: 36,3205           20601                                    0,1
000596: 36,3206           73006                           PUSH     LXA,2                                 #  ABS(R1/R1A) (+2+N1-N2+0 OR 1)  PL DOWN 2
000597: 36,3207           01677                                    SPLOC                                 #  C(X2)=+3(N1-N2+0 OR 1)/2
000598: 36,3210           41366                           SQRT     DMP                                   #  ARG TO THE 3/2 POWER,SCALED +3+(3/2)(N1
000599:                                                                                                  #  -N2 +0 OR 1)                 PL UP 2
000600: 36,3211           41214                           BOFF     DMP
000601:
000602: 36,3212           02345                                    MOONSW
000603: 36,3213           75215                                    +2
000604: 36,3214           35465                                    ROOTMU
000605: 36,3215           00015                           STORE    12D                                   #  12D=SQRT(ABS(R1/R1A))ABS(R1/R1A)
000606: 36,3216           77616                           RVQ                                            #  SCALED (+3 OR +7)+(3/2)(N1-N2+0 OR 1)
000607:                                                                                                  #  SMA TO THE 3/2 POWER * ROOTMU IN 12D.
000608:                                                                                                  #  IF LSW1 SET, INSIDE SPHERE AND 12D SCALED +7+C(X2)
000609:                                                                                                  #  IF LSW1 OFF, OUTSIDE SPHERE AND 12D SCALED +3+C(X2)
000610:


000612:                                                                                                  #  THIS IS KEPLERS EQUATION FOR TIME-OF-FLIGHT BETWEEN TWO POINTS ON A
000613:                                                                                                  #  CONIC TRAJECTORY.  IT ASSUMES R1A (+6)=14D, P (+2)=34D, 1-CSD (+1,+10,-2
000614:                                                                                                  #  =4D, SND (+1,+10,-2)=2D, D (+3,+12,0)=0D.
000615:
000616: 36,3217           41345        DELTIME            DLOAD    DMP                                   #                               PL AT 6D
000617: 36,3220           00043                                    34D
000618:
000619: 36,3221           00017                                    14D
000620: 36,3222           40061                           SL       BOV
000621: 36,3223           20207                                    6
000622: 36,3224           74712                                    SPEEDY
000623: 36,3225           75446                           ABS      SQRT
000624: 36,3226           77605                           DMP                                            #                               PL AT 4D
000625: 36,3227           72205                           DMP      TLOAD
000626: 36,3230           01733                                    INDEP
000627: 36,3231           00145                                    MPAC                                  #  CHANGES MODE TO TP (00001).
000628: 36,3232           45325                           PDDL     DSU                                   #  SQRT(P ABS(R1A))(1-CSD)COGA (+7 OR 16)
000629: 36,3233           00017                                    14D                                   #                               PL AT 7D
000630: 36,3234           35443                                    D1/64
000631:
000632: 36,3235           77605                           DMP
000633: 36,3236           00003                                    2D
000634: 36,3237           65351                           TLOAD    PDDL                                  #  (R1A-1)SND (+7 OR16)
000635: 36,3240           00145                                    MPAC                                  #  CHANGES MODE TO TP           PL AT 10D
000636: 36,3241           00001                                    0D
000637: 36,3242           76202                           SR4      TAD                                   #  PL PUSHES UP 3 SINCE TAD GOVERNS INSTEAD
000638: 36,3243           77771                           TAD                                            #  OF MODE. MODE REMAINS DP.    PL AT 7D,4D
000639: 36,3244           75301                           NORM     SIGN
000640: 36,3245           00047                                    X1
000641: 36,3246           00017                                    14D
000642:
000643: 36,3247           56005                           DMP      XAD,1                                 #  T (+(3 OR 7)+C(X2)+(7 OR 16)+C(X1))
000644: 36,3250           00015                                    12D
000645: 36,3251           00047                                    X2
000646: 36,3252           77614                           BON
000647: 36,3253           02305                                    SMANGLSW
000648: 36,3254           75305                                    THETASM
000649: 36,3255           43014                           BOFF     BOFF
000650: 36,3256           02345                                    MOONSW
000651: 36,3257           75270                                    NEARERTH
000652: 36,3260           02345                                    ESCPSW
000653: 36,3261           75265                                    +4
000654: 36,3262           52057                           SR*      GOTO
000655:
000656: 36,3263           20564                                    0          -13D,1
000657: 36,3264           75300                                    TMESTORE
000658: 36,3265           52057                           SR*      GOTO
000659: 36,3266           20575                                    0          -4,1
000660: 36,3267           75300                                    TMESTORE
000661: 36,3270           53614        NEARERTH           BOFF     SR*
000662: 36,3271           02345                                    ESCPSW
000663: 36,3272           75276                                    +4
000664: 36,3273           20570                                    0          -9D,1
000665: 36,3274           77650                           GOTO


000667: 36,3275           75300                                    TMESTORE
000668: 36,3276           77657                           SR*
000669:
000670: 36,3277           20601                                    0,1
000671: 36,3300           77600        TMESTORE           BOV
000672: 36,3301           75313                                    TIMELONG
000673: 36,3302           00015                           STORE    12D                                   #  12D=T (+10)
000674: 36,3303           43401                           SETPD    RVQ
000675: 36,3304           00001                                    0D
000676:
000677:
000678:
000679: 36,3305           42414        THETASM            BOFF     SL4                                   #  T (+7 +C(X1))
000680:
000681: 36,3306           02342                                    ITERSW
000682: 36,3307           75310                                    ERTHSFER
000683: 36,3310           52057        ERTHSFER           SR*      GOTO
000684: 36,3311           20604                                    3,1
000685: 36,3312           75300                                    TMESTORE
000686:
000687: 36,3313           52145        TIMELONG           DLOAD    GOTO
000688: 36,3314           35455                                    NEARI
000689: 36,3315           75302                                    TMESTORE   +2
000690:
000691:
000692:
000693:                                                                                                  #  T (+10) IN 12D  AND IN MPAC.
000694:
000695:


000697:                                                                                                  #  THIS IS A GENERAL NEWTON ITERATOR WHEREIN A STARTING INDEPENDENT VARIABL
000698:                                                                                                  #  IS INPUT AND THE CHANGE IN THE INDEPENDENT VARIABLE IS OUTPUT.  THE
000699:                                                                                                  #  BOUNDS OF THE INDEPENDENT VARIABLE,MAXINDEP AND MININDEP, MUST BE AVAILA
000700:                                                                                                  #  BLE AND SWITCH 7 MUST BE SET.  IF A GOOD GUESS TO INDEP IS KNOWN,
000701:                                                                                                  #  TWEEKIT SHOULD BE SET TO A SMALL FRACTION,DEPENDING ON HOW WELL INDEP IS
000702:                                                                                                  #  KNOWN.  OTHERWISE THE FIRST GUESS TO INDEP SHOULD BE .5(MAXINDEP+MININ-
000703:                                                                                                  #  DEP) AND TWEEKIT SHOULD BE SET TO .25. IT IS ASSUMED THAT THE CRITERIA
000704:                                                                                                  #  FOR EXITING FROM THE CALLING PROGRAMS LOOP IS IN THE CALLING PROGRAM.
000705:
000706:                                                                                                  #  THE DEPENDENT VARIABLE MUST BE IN DEPVAR AND THE PREVIOUS ONE MUST BE IN
000707:                                                                                                  #  PREVDEP.  THE SIGN OF TWEEKIT SOULD BE +/- ACCORDING TO WHETHER THE
000708:                                                                                                  #  SINGLE-VALUED FUNCTION IS MONOTONICLY INCREASING OR DECREASING.
000709:
000710:
000711:
000712: 36,3316           71214        ITERATOR           BONCLR   DLOAD
000713: 36,3317           02202                                    ITERSW
000714: 36,3320           75347                                    FRSTTIME
000715: 36,3321           01737                                    DEPVAR
000716:
000717: 36,3322           60225                           DSU      NORM
000718: 36,3323           01741                                    PREVDEP
000719: 36,3324           00047                                    X1
000720: 36,3325           70525                           PDDL     SR1                                   #                               PL DOWN 2
000721: 36,3326           01743                                    DELDEP
000722: 36,3327           77671                           DDV                                            #                               PL UP 2
000723: 36,3330           53605                           DMP      SL*
000724: 36,3331           01745                                    DELINDEP
000725: 36,3332           20202                                    1,1
000726: 36,3333           01745        NEWDELTA           STORE    DELINDEP
000727: 36,3334           71240                           BMN      DLOAD                                 #  NOW MUST CHECK TO SEE IF THIS DELTA CAN
000728: 36,3335           75361                                    MINCHECK                              #  CAUSE THE INDEPENDENT VARIABLE TO EXCEED
000729:
000730: 36,3336           00033                                    MAXINDEP                              #  ITS LIMITS.
000731: 36,3337           45225                           DSU      DSU
000732: 36,3340           01733                                    INDEP
000733: 36,3341           01745                                    DELINDEP
000734: 36,3342           50000                           BOV      BMN
000735: 36,3343           75373                                    XEEDULMT
000736: 36,3344           75373                                    XEEDULMT
000737: 36,3345           43545                           DLOAD    RVQ
000738: 36,3346           01745                                    DELINDEP
000739:
000740:
000741:
000742: 36,3347           41345        FRSTTIME           DLOAD    DMP
000743: 36,3350           00027                                    MININDEP
000744: 36,3351           01735                                    TWEEKIT                               #  TWEEKIT SHOULD BE SET  .25  IF THE FIRST
000745:                                                                                                  #  GUESS OF INDEP WAS .5(MAXINDEP+MININDEP)
000746: 36,3352           41325                           PDDL     DMP                                   #                               DOWN 2D
000747: 36,3353           00033                                    MAXINDEP
000748: 36,3354           01735                                    TWEEKIT
000749: 36,3355           77625                           DSU                                            #                               UP 2D


000751: 36,3356           52165                           SIGN     GOTO
000752:
000753: 36,3357           01743                                    DELDEP
000754: 36,3360           75333                                    NEWDELTA
000755: 36,3361           45345        MINCHECK           DLOAD    DSU
000756: 36,3362           00027                                    MININDEP
000757: 36,3363           01733                                    INDEP
000758: 36,3364           40025                           DSU      BOV
000759: 36,3365           01745                                    DELINDEP
000760: 36,3366           75400                                    XEEDLLMT
000761: 36,3367           71244                           BPL      DLOAD
000762: 36,3370           75400                                    XEEDLLMT
000763: 36,3371           01745                                    DELINDEP
000764: 36,3372           77616                           RVQ
000765:
000766:
000767:
000768:
000769: 36,3373           45345        XEEDULMT           DLOAD    DSU
000770: 36,3374           00033                                    MAXINDEP
000771: 36,3375           01733                                    INDEP
000772: 36,3376           01745                           STORE    DELINDEP
000773: 36,3377           77616                           RVQ
000774:
000775:
000776: 36,3400           45345        XEEDLLMT           DLOAD    DSU
000777: 36,3401           00027                                    MININDEP
000778: 36,3402           01733                                    INDEP
000779: 36,3403           01745                           STORE    DELINDEP
000780: 36,3404           77616                           RVQ
000781:


000783:                                                                                                  #  ASSUMES 32D=R (+7), 34D=P (+2), TAG5 (+/-), 18D=COGA (+5), UNR1 (+1), R2
000784:                                                                                                  #  VEC (+7) AVAILABLE.
000785: 36,3405           60345        INITV              DLOAD    NORM
000786: 36,3406           00041                                    32D
000787: 36,3407           00047                                    X1
000788: 36,3410           70525                           PDDL     SR1                                   #  R1 (+7-N1)                   PL AT 2D
000789:
000790: 36,3411           00043                                    34D
000791: 36,3412           77671                           DDV                                            #  P/R1 (-4+N1)                 PL AT 0D
000792: 36,3413           41214                           BOFF     DMP
000793: 36,3414           02345                                    MOONSW
000794: 36,3415           75422                                    OUTSIDE
000795: 36,3416           35467                                    MU
000796: 36,3417           52057                           SL*      GOTO
000797: 36,3420           20165                                    0          -12D,1
000798: 36,3421           75424                                    MAGVTAN
000799: 36,3422           77657        OUTSIDE            SL*
000800: 36,3423           20173                                    0          -6,1
000801: 36,3424           63366        MAGVTAN            SQRT     PDVL                                  #  V SIN(GAMMA) (+1)            PL AT 2D
000802:
000803:
000804: 36,3425           01703                                    UNR1
000805: 36,3426           63361                           VXSC     PDVL                                  #  2D=COGA UNR1 (+6)            PL AT 8D
000806: 36,3427           00023                                    18D
000807: 36,3430           01725                                    UNNORM
000808: 36,3431           60435                           VXV      VSR4                                  #  UNVTAN (+6)
000809: 36,3432           01703                                    UNR1
000810: 36,3433           74255                           VAD      VXSC                                  #                               PL AT 2D,0D
000811: 36,3434           46561                           VXSC     VSL7
000812: 36,3435           35473                                    VFACT                                 #  SCALE FOR ASCENT STEERING AT +7
000813:
000814: 36,3436           01717                           STORE    V0VEC
000815: 36,3437           77616                           RVQ
000816:
000817:                                                                                                  #  RETURNS WITH VELOCITY IN MPAC AND IN V0VEC SCALED (+1)
000818:
000819:


000821: 36,3440           00020 00000  D1/1024            2DEC     .5         B-9
000822:
000823: 36,3442           00400 00000  D1/64              2DEC     .5         B-5
000824:
000825: 36,3444           01000 00000  D1/32              2DEC     .5         B-4
000826:
000827: 36,3446           10000 00000  D1/4               2DEC     .5         B-1
000828:
000829: 36,3450           20000 00000  D1/2               2DEC     .5
000830:


000834: 36,3452           00000 00001  NEARZERO           2OCT     1
000835:
000836: 36,3454           37777 37777  NEARI              2OCT     3777737777
000837:
000838: 36,3456           37757 37777  BIGNO              2OCT     3775737777
000839:
000840: 36,3460           00020 14223  PERCENT            2DEC     E-3        B-28
000841:
000842: 36,3462           00130 27103  LN2/128            2DEC     .693147181 B-7
000843:
000844: 36,3464           22031 22343  ROOTMU             2DEC     9.0249769  B-4
000845:
000846: 36,3466           31111 32405  MU                 2DEC     .0122774395 B+6
000847:
000848:
000849: 36,3470           40010 40042  ABSOLMIN           2DEC     -.999511590
000850:
000851: 36,3472           30276 05000  VFACT              2DEC     .761606218
000852:
000853: 36,3474  36,3472               TFACT              EQUALS   VFACT
000854: 36,3474           00000 00003  DEPCRIT            2DEC     .000000012
000855:
000856: 36,3476                        COGAMN             EQUALS   22D                                   #  TEMP PATCH BY COVELLI ******************

End of include-file LAMB.agc.  Parent file is MAIN.agc


