
Source Code


000002:                                                                                                  ## Copyright:   Public domain.
000003:                                                                                                  ## Filename:    LEM_FLIGHT_CONTROL_SYSTEM_TEST.agc
000004:                                                                                                  ## Purpose:     A section of Sunburst revision 37, or Shepatin revision 0.
000005:                                                                                                  ##              It is part of an early development version of the software
000006:                                                                                                  ##              for Apollo Guidance Computer (AGC) on the unmanned Lunar
000007:                                                                                                  ##              Module (LM) flight Apollo 5. Sunburst 37 was the program
000008:                                                                                                  ##              upon which Don Eyles's offline development program Shepatin
000009:                                                                                                  ##              was based; the listing herein transcribed was actually for
000010:                                                                                                  ##              the equivalent revision 0 of Shepatin.
000011:                                                                                                  ##              This file is intended to be a faithful transcription, except
000012:                                                                                                  ##              that the code format has been changed to conform to the
000013:                                                                                                  ##              requirements of the yaYUL assembler rather than the
000014:                                                                                                  ##              original YUL assembler.
000015:                                                                                                  ## Reference:   pp. 348-360
000016:                                                                                                  ## Assembler:   yaYUL
000017:                                                                                                  ## Contact:     Ron Burkey <info@sandroid.org>.
000018:                                                                                                  ## Website:     www.ibiblio.org/apollo/index.html
000019:                                                                                                  ## Mod history: 2017-05-24 MAS  Created from Sunburst 120.
000020:                                                                                                  ##              2017-06-05 MAS  Transcribed.
000021:                                                                                                  ##              2017-06-22 RSB  Proofed comment text with
000022:                                                                                                  ##                              octopus/ProoferComments.
000023:                                                                                                  ##              2021-05-30 ABS  Added missing EBANK= statement.
000024:


000026: 06,2467                                           BANK     6
000027: 06,2467  E4,1407                                  EBANK=   JETSTEP
000028:
000029:
000030:
000031:                                                                                                  #  LEM FCS TEST  ENTRY AND INITIALIZATION JOB.
000032:
000033:                                                                                                  #        THIS JOB INITIALIZES THE ERASABLE TABLES FOR THE FCS TEST AND PUTS THE FOLLOWING PROGRAMS UNDER
000034:                                                                                                  #  WAITLIST CONTROL.
000035:                                                                                                  #             (1) RCS JET SET TASK
000036:                                                                                                  #             (2) ENGINE ON - OFF TASK
000037:                                                                                                  #             (3) DESCENT ENGINE GIMBAL TRIM TASK
000038:                                                                                                  #             (4) DESCENT ENGINE THROTTLE TASK
000039:                                                                                                  #             (5) INTERFACE CHANNEL LOOK TASK
000040:
000041:
000042:
000043: 06,2467           04633        FCSSTART           TC       GRABWAIT                              #  SO NOTHING DISRUPTS THE LOAD.
000044: 06,2470           32543                           CAF      JSTEPADR                              #  THE START OF THE LIST.
000045: 06,2471           10000        FCS3               CCS      A
000046: 06,2472           54146                           TS       MPAC       +2
000047: 06,2473           32546        FCS2               CAF      V04N01K                               #  DISPLAY PRESENT CONTENTS IN R2.
000048: 06,2474           04646                           TC       NVSBWAIT
000049: 06,2475           24146                           INCR     MPAC       +2
000050: 06,2476           32544                           CAF      V21N02K
000051:
000052: 06,2477           04646                           TC       NVSBWAIT                              #  IN CASE IT,S BUSY BUT IT SHOULDN,T BE.
000053: 06,2500           04464                           TC       ENDIDLE                               #  WHILE LOADING.
000054: 06,2501           02504                           TC       +3                                    #  V34E. TERMINATE LOAD OF THIS LIST
000055:                                                                                                  #  SECTION, GO TO NEW SECTION OR TO TEST.
000056: 06,2502           02503                           TC       +1                                    #  V33E. PRESENT CONTENTS OK, PROCEED TO
000057:                                                                                                  #  NEXT LOCATION IN LIST.
000058: 06,2503           02473                           TC       FCS2
000059: 06,2504           32545                           CAF      V21N30K
000060: 06,2505           04646                           TC       NVSBWAIT
000061: 06,2506           04464                           TC       ENDIDLE
000062: 06,2507           05604                           TC       EJFREE
000063: 06,2510           02513                           TC       FCSTEST1                              #  PROCEED TO TEST.
000064: 06,2511           30337                           CAE      DSPTEM1                               #  NEW ADDRESS.
000065: 06,2512           02471                           TC       FCS3
000066: 06,2513           32547        FCSTEST1           CAF      V47K
000067: 06,2514           04646                           TC       NVSBWAIT                              #  OUR VERB IN THE LIGHTS.
000068: 06,2515           00004        FCSTEST            INHINT
000069: 06,2516           37754                           CAF      TWO                                   #  20MS.
000070: 06,2517           05701                           TC       WAITLIST
000071: 06,2520  E4,1407                                  EBANK=   JETSTEP
000072: 06,2520           02554 14004                     2CADR    JETSTART
000073:
000074: 06,2522           37755                           CAF      BIT1                                  #  10MS.
000075:
000076: 06,2523           05701                           TC       WAITLIST
000077: 06,2524  E4,1407                                  EBANK=   JETSTEP


000079: 06,2524           02707 14004                     2CADR    ENGSTART
000080:
000081: 06,2526           36301                           CAF      THREE                                 #  30MS.
000082: 06,2527           05701                           TC       WAITLIST
000083: 06,2530  E4,1407                                  EBANK=   JETSTEP
000084: 06,2530           03004 14004                     2CADR    TRIMTOP
000085:
000086: 06,2532           37753                           CAF      FOUR                                  #  40MS.
000087:
000088: 06,2533           05701                           TC       WAITLIST
000089: 06,2534  E4,1407                                  EBANK=   JETSTEP
000090: 06,2534           03124 14004                     2CADR    THRSTART
000091:
000092: 06,2536           37760                           CAF      FIVE                                  #  50MS.
000093: 06,2537           05701                           TC       WAITLIST
000094: 06,2540  E4,1407                                  EBANK=   JETSTEP
000095: 06,2540           03212 14004                     2CADR    LOOKTOP
000096:
000097: 06,2542           05604                           TC       EJFREE                                #  NOW THEY START.
000098:
000099: 06,2543           02007        JSTEPADR           ECADR    JETSTEP
000100: 06,2544           02102        V21N02K            OCT      02102
000101: 06,2545           02130        V21N30K            OCT      02130
000102: 06,2546           00401        V04N01K            OCT      00401
000103: 06,2547           04700        V47K               OCT      04700
000104:


000106:                                                                                                  #  LEM FCS TEST   RCS JETSET TASK
000107:                                                                                                  #      THIS JOB ISSUES A PROFILE OF  JET ON-OFF SIGNALS AS DETERMINED BY THE CONSTANTS IN A SET OF SIX REGISTERS.
000108:                                                                                                  #  THE SIX REGISTERS ARE, (1) NTIMES, THE NUMBER OF TIMES A PARTICULAR STEP WILL BE PERFORMED. (2) NEXTTIME, THE
000109:                                                                                                  #  TIME BETWEEN STEPS, A MAXIMUM OF 2 MINUTES, (3) JETONTM, THE TIME TO TURN THE JETS ON, SCALED FOR T3, (4) JET-
000110:                                                                                                  #  OFFTM, THE TIME AFTER ONTM TO TURN THE JETS OFF, (5) XJETS, THE PARTICULAR X JETS TO BE TURNED ON AND OFF
000111:                                                                                                  #  DURING EACH REPEAT OF A STEP, AND (6) YZJETS,, THE Y AND Z JETS TO BE TURNED ON AND OFF DURING EACH REPEAT OF A
000112:                                                                                                  #  STEP.  XJETS AND YZJETS MUST BE IN THE SAME FORMAT AS CHANNELS 5 AND6 RESPECTIVELY.  THERE ARE EIGHT SETS OF
000113:                                                                                                  #  THESE SIX REGISTERS.
000114:                                                                                                  #      THE REGISTER JETSTEP IS USED TO INDEX THE 8 SETS OF REGISTERS, THE ALLOWABLE VALUES OF JETSTEP ARE +0 THRU 7
000115:                                                                                                  #      THIS JOB WILL BE ENTERED BUT IMMEDIATELY ENDED IF THE INITIAL VALUES OF JETSTEP AND NTIMES ARE +0.
000116:
000117:
000118:
000119: 06,2550           11407        NEXTSET            CCS      JETSTEP                               #  IT MAY BE ZERO.
000120:
000121: 06,2551           02553                           TC       +2                                    #  NOPE
000122: 06,2552           05745                           TC       TASKOVER                              #  IT IS SO WE ARE DONE WITH THIS TASK.
000123: 06,2553           55407                           TS       JETSTEP
000124:
000125: 06,2554           51407        JETSTART           NDX      JETSTEP                               #  ENTER HERE.
000126: 06,2555           11410                           CCS      NTIMES                                #  SEE IF THIS STEP IS FINISHED.
000127: 06,2556           02560                           TC       +2                                    #  NO
000128: 06,2557           02550                           TC       NEXTSET                               #  YES
000129: 06,2560           51407                           NDX      JETSTEP
000130: 06,2561           31420                           CAE      NEXTTIME                              #  MUST BE SCALED FOR T3.  REMEMBER TO BIAS
000131:                                                                                                  #  THIS FOR ON TIME.
000132: 06,2562           05701                           TC       WAITLIST
000133: 06,2563  E4,1407                                  EBANK=   JETSTEP
000134: 06,2563           02577 14004                     2CADR    JTOP
000135:
000136: 06,2565           05745                           TC       TASKOVER
000137:
000138: 06,2566           37761        JETOFF             CAF      ZERO
000139: 06,2567           00006                           EXTEND
000140: 06,2570           01005                           WRITE    5
000141: 06,2571           00006                           EXTEND
000142: 06,2572           01006                           WRITE    6
000143: 06,2573           51407                           NDX      JETSTEP
000144:
000145: 06,2574           11410                           CCS      NTIMES
000146: 06,2575           51407                           NDX      JETSTEP
000147: 06,2576           55410                           TS       NTIMES                                #  ONE LESS TIME.
000148: 06,2577           51407        JTOP               NDX      JETSTEP
000149: 06,2600           11410                           CCS      NTIMES                                #  FOR LOOPING.
000150: 06,2601           02603                           TC       +2
000151: 06,2602           02550                           TC       NEXTSET
000152: 06,2603           51407                           NDX      JETSTEP
000153: 06,2604           31430                           CAE      JETONTM                               #  SCALED FOR T3.  TIME FOR JETS ON.
000154: 06,2605           05701                           TC       WAITLIST
000155: 06,2606  E4,1407                                  EBANK=   JETSTEP
000156: 06,2606           02611 14004                     2CADR    JETON
000157:


000159: 06,2610           05745                           TC       TASKOVER
000160:
000161: 06,2611           51407        JETON              NDX      JETSTEP
000162: 06,2612           31440                           CAE      XJETS                                 #  MUST BE IN CHANNEL 5 FORMAT.
000163: 06,2613           55401                           TS       XJBUF
000164: 06,2614           51407                           NDX      JETSTEP
000165: 06,2615           31450                           CAE      YZJETS                                #  MUST BE IN CHANNEL 6 FORMAT.
000166: 06,2616           55402                           TS       YZJBUF
000167: 06,2617           00006        JFAILCK            EXTEND                                         #  THIS ROUTINE EXAMINES EACH JETFAIL BIT
000168: 06,2620           00032                           READ     32                                    #  AND IF A FAILURE IS INDICATED THE CORRES
000169: 06,2621           40000                           COM                                            #  PONDING COMMANDS ARE MASKED OUT .
000170: 06,2622           55403                           TS       JFBUF                                 #  SAVE 32 REINVERTED.
000171: 06,2623           37757                           CAF      SEVEN
000172: 06,2624           55404        JF3                TS       FCNTR
000173: 06,2625           31403                           CAE      JFBUF
000174: 06,2626           51404                           NDX      FCNTR
000175: 06,2627           77746                           MASK     BIT8
000176: 06,2630           10000                           CCS      A
000177: 06,2631           02650                           TC       JFAIL
000178:
000179: 06,2632           11404        JFAIL1             CCS      FCNTR
000180: 06,2633           02624                           TC       JF3
000181: 06,2634           31401                           CAE      XJBUF
000182: 06,2635           00006                           EXTEND
000183: 06,2636           01005                           WRITE    5                                     #  XJETS GO ON.
000184: 06,2637           31402                           CAE      YZJBUF
000185: 06,2640           00006                           EXTEND
000186: 06,2641           01006                           WRITE    6                                     #  YZJETS GO ON.
000187: 06,2642           51407                           NDX      JETSTEP
000188: 06,2643           31460                           CAE      JETOFFTM                              #  JET OFF TIME SCALED FOR T3.
000189: 06,2644           05701                           TC       WAITLIST
000190: 06,2645  E4,1407                                  EBANK=   JETSTEP
000191: 06,2645           02566 14004                     2CADR    JETOFF
000192:
000193: 06,2647           05745                           TC       TASKOVER
000194:
000195: 06,2650           51404        JFAIL              NDX      FCNTR
000196: 06,2651           42673                           CS       XJETMASK
000197: 06,2652           71401                           MASK     XJBUF
000198: 06,2653           55401                           TS       XJBUF
000199: 06,2654           51404                           NDX      FCNTR
000200: 06,2655           42663                           CS       YZJETMSK
000201: 06,2656           71402                           MASK     YZJBUF
000202:
000203: 06,2657           55402                           TS       YZJBUF
000204: 06,2660           04744                           TC       ALARM
000205: 06,2661           01410                           OCT      01410                                 #  TEMPORARY JET FAIL ALARM CODE.
000206: 06,2662           02632                           TC       JFAIL1
000207:


000209: 06,2663           00010        YZJETMSK           OCT      00010                                 #  JET 11
000210: 06,2664           00020                           OCT      00020                                 #  JET 12
000211:
000212: 06,2665           00004                           OCT      00004                                 #  JET 15
000213: 06,2666           00200                           OCT      00200                                 #  JET 16
000214: 06,2667           00001                           OCT      00001                                 #  JET 7
000215: 06,2670           00002                           OCT      00002                                 #  JET 3
000216: 06,2671           00040                           OCT      00040                                 #  JET 8
000217: 06,2672           00100                           OCT      00100                                 #  JET 4
000218:
000219: 06,2673           00040        XJETMASK           OCT      00040                                 #  JET 10
000220: 06,2674           00020                           OCT      00020                                 #  JET 9
000221: 06,2675           00100                           OCT      00100                                 #  JET 13
000222: 06,2676           00200                           OCT      00200                                 #  JET 14
000223: 06,2677           00010                           OCT      00010                                 #  JET 6
000224: 06,2700           00001                           OCT      00001                                 #  JET 1
000225: 06,2701           00004                           OCT      00004                                 #  JET 5
000226: 06,2702           00002                           OCT      00002                                 #  JET 2
000227:


000229:                                                                                                  #  LEM FCS TEST  ENGINE ON - OFF TASK
000230:                                                                                                  #  THIS TASK TURNS THE LEM ASCENT OR DESCENT ENGINE ON AND OFF ACCORDING TOTHE CONSTANTS STORED IN THE FIVE SETS OF
000231:                                                                                                  #  REGISTERS, (1) CYLTIMES, WHICH CONTAINS THE NUMBER OF TIMES A PARTICULARSTEP WILL BE REPEATED, (2) NEXTCYLT,
000232:                                                                                                  #   WHICH CONTAINS THE TIME BETWEEN STEPS SCALED FOR T3, (3) ONTIME, WHICH CONTAINS THE TIME TO TURN THE ENGINE ON
000233:                                                                                                  #  WHICH ALSO DETERMINES THE LENGTH OF TIME THE ENGIME WILL BE OFF WITHIN A SERIES OF ON:OFF CYCLES, (4) OFFTIME,
000234:                                                                                                  #   WHICH CONTAINS THE NUMBER OF 2 MINUTES BEFORE THE ENGINE WILL BE TURNED OFF, AND (5) OFFTIMER, WHICH
000235:                                                                                                  #  CONTAINS THE RESIDUAL TIME BEFORE THE ENGINE WILL BE TURNED OFF.  OFFTIME AND OFFTIMER DETERMINE THE LENGTH
000236:                                                                                                  #  OF TIME THE ENGINE WILL BE ON IN ANY ONE CYCLE. THERE ARE THREE SETS OF THESE REGISTERS.
000237:
000238:                                                                                                  #      THE ENGSTEP REGISTER IS USED AS AN INDEX TO PICK UP A PARTICULAR SET  OF THE ABOVE 5 REGISTERS.  THIS TASK
000239:                                                                                                  #  WILL BE ENTERED BUT IMMEDIATELY ENDED IF ENGSTEP AND CYLTIMES = +0.     THE ALLOWABLE VALUES OF ENGSTEP ARE +0,
000240:                                                                                                  #  1 AND 2.
000241:
000242:
000243:
000244: 06,2703           11470        NXTONOFF           CCS      ENGSTEP
000245: 06,2704           02706                           TC       +2
000246: 06,2705           05745                           TC       TASKOVER                              #  EXIT HERE WHEN STEP AND CYL ARE +0.
000247: 06,2706           55470                           TS       ENGSTEP                               #  ONE LESS.
000248:
000249: 06,2707           51470        ENGSTART           NDX      ENGSTEP                               #  ENTER HERE.
000250: 06,2710           11471                           CCS      CYLTIMES                              #  NUM OF EACH  ON/OFF SET
000251: 06,2711           02713                           TC       +2
000252: 06,2712           02703                           TC       NXTONOFF                              #  NO MORE OF THIS SET
000253: 06,2713           51470                           NDX      ENGSTEP
000254: 06,2714           31474                           CAE      NEXTCYLT                              #  START OF NEXT CYCLE.
000255: 06,2715           05701                           TC       WAITLIST
000256: 06,2716  E4,1470                                  EBANK=   ENGSTEP
000257: 06,2716           02737 14004                     2CADR    ENGONTM
000258:
000259: 06,2720           05745                           TC       TASKOVER
000260:
000261: 06,2721           45226        ENGRESET           CS       PRIO30                                #  BITS 13 AND 14.
000262: 06,2722           00006                           EXTEND
000263: 06,2723           02011                           RAND     11
000264: 06,2724           67740                           AD       BIT14
000265: 06,2725           00006                           EXTEND
000266: 06,2726           01011                           WRITE    11                                    #  ENG ON = 0, ENG OFF = 1.
000267: 06,2727           51470                           NDX      ENGSTEP
000268: 06,2730           11471                           CCS      CYLTIMES
000269: 06,2731           10000                           CCS      A
000270: 06,2732           02734                           TC       +2
000271: 06,2733           02703                           TC       NXTONOFF                              #  WAS ONE.
000272: 06,2734           67755                           AD       ONE                                   #  WAS MORE THAN ONE.
000273: 06,2735           51470                           NDX      ENGSTEP
000274: 06,2736           55471                           TS       CYLTIMES
000275:
000276: 06,2737           51470        ENGONTM            NDX      ENGSTEP
000277: 06,2740           31502                           CAE      OFFTIME
000278: 06,2741           55406                           TS       OFFTMBUF
000279: 06,2742           51470                           NDX      ENGSTEP


000281: 06,2743           31477                           CAE      ONTIME
000282: 06,2744           05701                           TC       WAITLIST
000283: 06,2745  E4,1470                                  EBANK=   ENGSTEP
000284: 06,2745           02750 14004                     2CADR    ENGSET
000285:
000286: 06,2747           05745                           TC       TASKOVER
000287:
000288: 06,2750           45226        ENGSET             CS       PRIO30
000289: 06,2751           00006                           EXTEND
000290: 06,2752           02011                           RAND     11
000291: 06,2753           67741                           AD       BIT13
000292: 06,2754           00006                           EXTEND
000293: 06,2755           01011                           WRITE    11                                    #  ENG ON = 1, ENG OFF = 0.
000294: 06,2756           11406        ENGRST             CCS      OFFTMBUF
000295:
000296: 06,2757           02766                           TC       LTIMEON                               #  AT LEAST 2MIN. BEFORE ENGINE OFF.
000297: 06,2760           51470                           NDX      ENGSTEP
000298: 06,2761           31505                           CAE      OFFTIMER                              #  LESS THAN 2MIN. TO ENGINE OFF.
000299: 06,2762           05701                           TC       WAITLIST
000300: 06,2763  E4,1470                                  EBANK=   ENGSTEP
000301: 06,2763           02721 14004                     2CADR    ENGRESET
000302:
000303: 06,2765           05745                           TC       TASKOVER
000304:
000305: 06,2766           11406        LTIMEON            CCS      OFFTMBUF                              #  IS THERE ANY MORE.
000306: 06,2767           02771                           TC       +2                                    #  YES.
000307: 06,2770           02756                           TC       ENGRST                                #  NO.
000308: 06,2771           55406                           TS       OFFTMBUF                              #  ONE LESS.
000309: 06,2772           32777                           CAF      2MIN
000310: 06,2773           05701                           TC       WAITLIST
000311: 06,2774  E4,1470                                  EBANK=   ENGSTEP
000312: 06,2774           02766 14004                     2CADR    LTIMEON
000313:
000314: 06,2776           05745                           TC       TASKOVER
000315:
000316: 06,2777           27340        2MIN               DEC      12000      B-14
000317:


000319:                                                                                                  #  LEM FCS TEST  TRIM TASK
000320:                                                                                                  #  THIS PROGRAM ISSUES A PROFILE OF PITCH AND ROLL TRIM COMMANDS TO THE LEM DESCENT ENGINE GIMBAL IN ACCORDANCEWITH
000321:                                                                                                  #  THE VALUE S IN THE TRIMSTEP REGISTER AND THE 12 SETS OF 5 REGISTERS CALLED NUMTIMES, STEPDLYT, TRIMONT, TRIMOFFT
000322:                                                                                                  #  AND TRIMIND.  TRIMSTEP IS USED TO PICK UP A PARTICULAR SET OF THE 5 REGISTERS AND HAS ALLOWABLE VALUES FROM +0
000323:                                                                                                  #  THROUGH +11 DECIMAL.  THE 5 REGISTERS IN EACH SET ARE DEFINED AS FOLLOWS
000324:                                                                                                  #      (1) NUMTIMES DETERMINES THE NUMBER OF TIMES THE COMMAND IN TRIMIND  WILL BE ISSUED.  VALUES FROM +0 TO
000325:                                                                                                  #  OCT 37777 ARE PERMITTED.
000326:                                                                                                  #      (2) STEPDLYT DETERMINES THE TIME BETWEEN THE START OF A STEP AND THE BEGINNING OF TRIMONT.  STEPDLYT MUST BE
000327:                                                                                                  #  FORMATTED FOR T3, ITS MAXIMUM VALUE IS 2 MINUTES.
000328:                                                                                                  #      (3) TRIMONT DETERMINES THE TIME BETWEEN THE END OF STEPDLYT OR TRIMOFFT AND THE TIME THE TRIM COMMANDS ARE
000329:                                                                                                  #  ISSUED.  IT MUST BE FORMATTED FOR T3.
000330:                                                                                                  #      (4) TRIMOFFT DETERMINES THE LENGTH OF TIME THE TRIM COMMAND WILL BE ON, FORMATTED FOR T3.
000331:                                                                                                  #      (5) TRIMIND DETERMINES THE PITCH AND ROLL COMMAND TO BE ISSUED.  THE FORMAT IS, BIT9=1=+ PITCH COMMAND,
000332:                                                                                                  #  BIT10=1=-PITCH, BIT11=1= +ROLL, BIT12=1= -ROLL.  A BIT=0 INDICATES NO COMMAND.  ANY COMBINATION OF COMMANDS IS
000333:                                                                                                  #  PERMITTED.
000334:                                                                                                  #     THIS TASK WILL BE ENTERED BUT IMMEDIATELY ENDED IF TRIMSTEP AND NUMTIMES = +0.
000335:
000336:
000337:
000338: 06,3000           11510        NEXTTRIM           CCS      TRIMSTEP
000339:
000340: 06,3001           03003                           TC       +2
000341: 06,3002           05745                           TC       TASKOVER                              #  EXIT HERE.
000342: 06,3003           55510                           TS       TRIMSTEP                              #  LESS ONE.
000343:
000344: 06,3004           51510        TRIMTOP            NDX      TRIMSTEP                              #  ENTER HERE.
000345: 06,3005           11511                           CCS      NUMTIMES
000346: 06,3006           03010                           TC       +2
000347: 06,3007           03000                           TC       NEXTTRIM
000348: 06,3010           51510                           NDX      TRIMSTEP
000349: 06,3011           31525                           CAE      STEPDLYT
000350: 06,3012           05701                           TC       WAITLIST
000351: 06,3013  E4,1510                                  EBANK=   TRIMSTEP
000352: 06,3013           03031 14004                     2CADR    TRIMSET
000353:
000354: 06,3015           05745                           TC       TASKOVER
000355:
000356: 06,3016           43115        TRIMOFF            CS       TRIMMASK
000357: 06,3017           00006                           EXTEND
000358: 06,3020           03012                           WAND     12                                    #  TRIM GOES OFF.
000359: 06,3021           51510        NUMSTEP            NDX      TRIMSTEP
000360: 06,3022           11511                           CCS      NUMTIMES
000361: 06,3023           10000                           CCS      A
000362: 06,3024           03026                           TC       +2
000363:
000364: 06,3025           03000                           TC       NEXTTRIM                              #  WAS ONE.
000365: 06,3026           67755                           AD       ONE
000366: 06,3027           51510                           NDX      TRIMSTEP
000367: 06,3030           55511                           TS       NUMTIMES
000368: 06,3031           51510        TRIMSET            NDX      TRIMSTEP
000369: 06,3032           31541                           CAE      TRIMONT
000370: 06,3033           05701                           TC       WAITLIST


000372: 06,3034  E4,1510                                  EBANK=   TRIMSTEP
000373: 06,3034           03037 14004                     2CADR    TRIMON
000374:
000375:
000376: 06,3036           05745                           TC       TASKOVER
000377:
000378: 06,3037           33114        TRIMON             CAF      BITS9,10                              #  CHECK PITCH AND ROLL TRIM FAIL BITS.
000379: 06,3040           00006                           EXTEND
000380: 06,3041           06032                           RXOR     32
000381: 06,3042           73114                           MASK     BITS9,10
000382: 06,3043           00006                           EXTEND
000383: 06,3044           13052                           BZF      TRIMON1
000384: 06,3045           35674                           CAF      PRIO35                                #  FAIL IS ON. FLASH FAIL CODE (01400) AND
000385: 06,3046           05523                           TC       NOVAC                                 #  IDLE UNTIL SOMEONE RESETS IT, TERMINATES
000386: 06,3047  E4,1407                                  EBANK=   JETSTEP
000387: 06,3047           03065 14004                     2CADR    PERFORM                               #  THE TASK, OR DECIDES TO PROCEED WITH IT.
000388:
000389: 06,3051           05745                           TC       TASKOVER
000390:
000391: 06,3052           51510        TRIMON1            NDX      TRIMSTEP
000392: 06,3053           31571                           CAE      TRIMIND
000393: 06,3054           73115                           MASK     TRIMMASK                              #  SAFETY PLAY
000394: 06,3055           00006                           EXTEND
000395: 06,3056           05012                           WOR      12                                    #  TRIM STARTS.
000396: 06,3057           51510                           NDX      TRIMSTEP
000397: 06,3060           31555                           CAE      TRIMOFFT
000398:
000399: 06,3061           05701                           TC       WAITLIST
000400: 06,3062  E4,1510                                  EBANK=   TRIMSTEP
000401: 06,3062           03016 14004                     2CADR    TRIMOFF
000402:
000403: 06,3064           05745                           TC       TASKOVER
000404:
000405: 06,3065           04633        PERFORM            TC       GRABWAIT                              #  KEY RELEASE MAY COME ON.
000406: 06,3066           33114                           CAF      TRIMCODE                              #  01400
000407: 06,3067           54337                           TS       DSPTEM1
000408: 06,3070           33116                           CAF      V01N25K
000409: 06,3071           04646                           TC       NVSBWAIT
000410: 06,3072           33117                           CAF      V50K                                  #  PLEASE PERFORM.
000411: 06,3073           04646                           TC       NVSBWAIT
000412: 06,3074           04611                           TC       FLASHON                               #  ANY RESPONSE TURNS IT OFF.
000413: 06,3075           04464                           TC       ENDIDLE                               #  WAIT FOR SOMEONE TO DO SOMETHING.
000414: 06,3076           05604                           TC       EJFREE                                #  V34E. TERMINATE THE TASK.
000415: 06,3077           03106                           TC       TR1                                   #  V33E. PROCEED WITH THE FAIL ON.
000416: 06,3100           00004                           INHINT                                         #  ENTER. THE FAIL HAS BEEN RESET.
000417: 06,3101           37754                           CAF      BIT2                                  #  20MS.
000418: 06,3102           05701                           TC       WAITLIST
000419: 06,3103  E4,1407                                  EBANK=   JETSTEP
000420: 06,3103           03037 14004                     2CADR    TRIMON                                #  CHECK AGAIN TO BE SURE. THEN PROCEED..
000421:
000422:
000423: 06,3105           05604                           TC       EJFREE
000424:


000426: 06,3106           00004        TR1                INHINT                                         #  PROCEED WITH THE FAIL.
000427: 06,3107           37754                           CAF      BIT2                                  #  20MS.
000428: 06,3110           05701                           TC       WAITLIST
000429: 06,3111  E4,1407                                  EBANK=   JETSTEP
000430: 06,3111           03052 14004                     2CADR    TRIMON1                               #  BYPASS THE RECHECK.
000431:
000432: 06,3113           05604                           TC       EJFREE
000433:
000434: 06,3114           01400        BITS9,10           OCT      01400
000435: 06,3115  06,3114               TRIMCODE           EQUALS   BITS9,10
000436: 06,3115           07400        TRIMMASK           OCT      07400
000437: 06,3116           00125        V01N25K            OCT      00125
000438: 06,3117           05000        V50K               OCT      05000
000439:


000441:                                                                                                  #  LEM FCS TEST  THROTTLE TASK
000442:                                                                                                  #     THIS PROGRAM ISSUES A PROFILE OF THROTTLE COMMANDS TO THE LEM DESCENT ENGINE.  THE PROFILE IS DETERMINED BY
000443:                                                                                                  #  THE VALUES IN THE THRTSTEP REGISTER AND THE 6  SETS OF REGISTERS, 5 PER SET, CALLED  DOTIMES, DELAY, THR1TIME,
000444:                                                                                                  #  THCOMM1 AND THCOMM2.  THE THRTSTEP REGISTER VALUE IS USED TO INDEX THE  6  SETS OF 5 REGISTERS AND HAS ALLOWABLE
000445:                                                                                                  #  VALUES OF +0 THROUGH +5.  THE 5 REGISTERS PER SET ARE DEFINED AS FOLLOWS
000446:                                                                                                  #      (1) DOTIMES DETERMINES THE NUMBER OF TIMES THE THROTTLE WILL BE EXERCISED AS PER THE VALUES OF THR1TIME,
000447:                                                                                                  #  THCOMM1 AND THCOMM2 OF THE CURRENT STEP.  IT HAS ALLOWABLE VALUES OF +0 THROUGH 37777 OCT.
000448:                                                                                                  #      (2) DELAY DETERMINES THE TIME BETWEEN THE START OF A STEP AND THE BE GINNING OF THR1TIME. ITIS CALLED ONLY
000449:                                                                                                  #  ONCE PER STEP,I.E., REPEATS OF THE SAME THCOMM1 AND THCOMM2 START AT THR1TIME.  DELAY MUST BE FORMATTED FOR T3
000450:                                                                                                  #  AND HENCE HAS A MAXIMUM VALUE OF 2 MINUTES.
000451:                                                                                                  #      (3) THR1TIME DETERMINES THE TIME BETWEEN THE END OF DELAY OR THE END   OF THCOMM2 AND THE START OF
000452:                                                                                                  #  THCOMM1.  IT MUST BE FORMATTED FOR T3.
000453:                                                                                                  #      (4) THCOMM1 AND (5) THCOMM2 DETERMINE THE NUMBER OF THRUST INCREASE  OR DECREASE PULSES TOBE ISSUED AT A
000454:                                                                                                  #  3.2KPPS RATE.  THE RANGE OF POSSIBLE VALUES OF EITHER IS FROM POSMAX (OCT 37777) TO NEGMAX (OCT 40000) ALTHOUGH
000455:
000456:                                                                                                  #  THE ACTUAL THROTTLE RANGE IS FROM OCT 6116 TO OCT 71661 (+,- 3150 DEC).
000457:                                                                                                  #     THIS TASK WILL BE ENTERED BUT IMMEDIATELY ENDED IF THE INITIAL VALUES OF THRTSTEP AND DOTIMES ARE +0.
000458:
000459:
000460:
000461: 06,3120           11605        NEXTTHRT           CCS      THRTSTEP
000462: 06,3121           03123                           TC       +2
000463: 06,3122           05745                           TC       TASKOVER                              #  EXIT HERE.
000464: 06,3123           55605                           TS       THRTSTEP
000465:
000466: 06,3124           51605        THRSTART           NDX      THRTSTEP                              #  ENTER HERE.
000467: 06,3125           11606                           CCS      DOTIMES                               #  NUMBER OF TIMES COMMANDS 1 AND 2 DONE.
000468: 06,3126           03130                           TC       +2
000469: 06,3127           03120                           TC       NEXTTHRT
000470: 06,3130           51605                           NDX      THRTSTEP
000471: 06,3131           31614                           CAE      DELAY                                 #  TIME BETWEEN STEPS.  BIAS FOR THR1TIME.
000472:                                                                                                  #  MUST BE SCALED FOR T3.
000473: 06,3132           05701                           TC       WAITLIST
000474: 06,3133  E4,1605                                  EBANK=   THRTSTEP
000475: 06,3133           03156 14004                     2CADR    THROTON1
000476:
000477: 06,3135           05745                           TC       TASKOVER
000478:
000479: 06,3136           51605        THR2COMM           NDX      THRTSTEP
000480: 06,3137           31636                           CAE      THCOMM2                               #  SAME REMARKS AS FOR THCOMM1.
000481: 06,3140           03174                           TC       THROTON
000482: 06,3141           67755                           AD       BIT1                                  #  10MS IN CASE OF NO THCOMM2.
000483: 06,3142           05701                           TC       WAITLIST
000484: 06,3143  E4,1605                                  EBANK=   THRTSTEP
000485: 06,3143           03146 14004                     2CADR    CKDOTIME
000486:
000487: 06,3145           05745                           TC       TASKOVER
000488:
000489: 06,3146           51605        CKDOTIME           NDX      THRTSTEP
000490: 06,3147           11606                           CCS      DOTIMES
000491: 06,3150           10000                           CCS      A


000493: 06,3151           03153                           TC       +2
000494: 06,3152           03120                           TC       NEXTTHRT                              #  WAS ONE.
000495: 06,3153           67755                           AD       ONE
000496: 06,3154           51605                           NDX      THRTSTEP
000497: 06,3155           55606                           TS       DOTIMES
000498: 06,3156           51605        THROTON1           NDX      THRTSTEP
000499: 06,3157           31622                           CAE      THR1TIME                              #  TIME BETWEEN DOTIMES.  SCALED FOR T3.
000500: 06,3160           05701                           TC       WAITLIST
000501: 06,3161  E4,1605                                  EBANK=   THRTSTEP
000502: 06,3161           03164 14004                     2CADR    THR1COMM
000503:
000504: 06,3163           05745                           TC       TASKOVER
000505:
000506: 06,3164           51605        THR1COMM           NDX      THRTSTEP
000507: 06,3165           31630                           CAE      THCOMM1                               #  SHOULD BE NO LARGER THAN 3150DEC.
000508: 06,3166           03174                           TC       THROTON
000509: 06,3167           63211                           AD       250MS                                 #  SO ACE CAN SAMPLE.
000510: 06,3170           05701                           TC       WAITLIST
000511: 06,3171  E4,1605                                  EBANK=   THRTSTEP
000512:
000513: 06,3171           03136 14004                     2CADR    THR2COMM
000514:
000515: 06,3173           05745                           TC       TASKOVER
000516:
000517: 06,3174           54055        THROTON            TS       THRUST                                #  THROTTLE OUTPUT COUNTER.
000518: 06,3175           55405                           TS       THBUF                                 #  SAVE FOR BZMF.
000519: 06,3176           37752                           CAF      BIT4
000520: 06,3177           00006                           EXTEND
000521: 06,3200           05014                           WOR      14                                    #  ENABLE THRUST DRIVE.  COMMAND STARTS NOW
000522: 06,3201           31405                           CAE      THBUF
000523: 06,3202           00006                           EXTEND
000524: 06,3203           63205                           BZMF     +2
000525: 06,3204           40000                           COM
000526: 06,3205           40000                           COM
000527: 06,3206           00006                           EXTEND
000528: 06,3207           77744                           MP       BIT10                                 #  SCALES FOR T3.
000529: 06,3210           00002                           TC       Q
000530:
000531: 06,3211           00031        250MS              OCT      00031
000532:


000534:                                                                                                  #  LEM FCS TEST  INTERFACE LOOK TASK.
000535:
000536:                                                                                                  #      THIS PROGRAM KEEPS A RUNNING HISTORY OF THE STATE OF ALL THE BITS IN INPUT CHANNELS 30, 31, 32 AND 33.
000537:                                                                                                  #  IT DOES THIS BY DETECTING A CHANGE OF AN INPUT BIT FROM AN INITIAL ONE STATE TO A ZERO STATE OR FROM AN INITIAL
000538:                                                                                                  #  ZERO TO A ONE.  THE HISTORY IS MAINTAINED IN TWO BUFFER REGISTERS FOR EACH CHANNEL, ONE FOR STORING ONE TO ZERO
000539:                                                                                                  #  CHANGES (30BUF1, +1, +2, AND +3) AND ONE FOR ZERO TO ONE CHANGES (30BUF0, +1 +2 AND +3).  THE OPERATOR MUST
000540:                                                                                                  #  LOAD THE INITIAL STATES OF THE INPUT CHANNELS INTO THEIR RESPECTIVE BUFFER REGISTERS BEFORE THIS PROGRAM IS IN-
000541:                                                                                                  #  ITIATED.
000542:                                                                                                  #      TO ALLOW THIS PROGRAM TO RUN C(QUITLOOK) MUST BE SET GREATER THAN +0 BEFORE IT IS STARTED.  IF THE OPERATOR
000543:                                                                                                  #  DOES NOT DESIRE THIS PROGRAM TO RUN HE SHOULD SET C(QUITLOOK)=+0 BEFORE STARTING THE FCS TEST.  AFTER THIS TASK
000544:                                                                                                  #  IS RUNNING THE OPERATOR CAN STOP IT BY SETTING C(QUITLOOK) = +0.
000545:                                                                                                  #      NO DISPLAYS OF EITHER THE BUFFER REGISTERS OR CHANNELS ARE INCORPORATED INTO THIS PROGRAM.  THIS WAS DONE TO
000546:                                                                                                  #  ALLOW THE TEST OPERATOR MONITORING FLEXIBILITY.  FOR REAL TIME MONITORING IT IS SUGGESTED THAT THE BUFFER
000547:
000548:                                                                                                  #  REGISTERS BE DISPLAYED WITH THE MONITOR VERBS (11 THROUGH 15).  ON THE OTHER HAND, THE OPERATOR MAY ELECT TO
000549:                                                                                                  #  PERFORM NO REAL TIME MONITORING UNTIL THE TEST IS COMPLETED, WHEN THE BUFFER REGISTERS WOULD BE CALLED FOR
000550:                                                                                                  #  DISPLAY (VERB 01) AND RECORDED.
000551:                                                                                                  #      THIS PROGRAM IS PRIMARILY INTENDED FOR INTERFACE MONITORING DURING THE LEM VIBRATION TEST AT BETHPAGE, N.Y.,
000552:                                                                                                  #  ALTHOUGH IT MAY ALSO BE USEFUL DURING VEHICAL LEVEL EMI TESTS.
000553:
000554: 06,3212           11654        LOOKTOP            CCS      QUITLOOK                              #  IS THIS TASK WANTED.
000555: 06,3213           03215                           TC       +2                                    #  YES.
000556: 06,3214           05745                           TC       TASKOVER                              #  NO.
000557: 06,3215           36301                           CAF      THREE                                 #  START SCAN OF CHANNELS.
000558: 06,3216           55655        LOOKLOOP           TS       CHCNTR                                #  3, 2, 1, 0.
000559: 06,3217           51655                           NDX      CHCNTR
000560:
000561: 06,3220           31644                           CAE      30BUF1
000562: 06,3221           00006                           EXTEND
000563: 06,3222           51655                           NDX      CHCNTR
000564: 06,3223           02030                           RAND     30                                    #  DETECTS CHANGES FROM 1 TO 0.
000565: 06,3224           51655                           NDX      CHCNTR
000566: 06,3225           57644                           XCH      30BUF1                                #  STORE NEW ZEROS.
000567: 06,3226           51655                           NDX      CHCNTR
000568: 06,3227           31650                           CAE      30BUF0
000569: 06,3230           00006                           EXTEND
000570: 06,3231           51655                           NDX      CHCNTR
000571: 06,3232           04030                           ROR      30                                    #  DETECTS CHANGES FROM 0 TO 1.
000572: 06,3233           51655                           NDX      CHCNTR
000573: 06,3234           57650                           XCH      30BUF0                                #  STORE NEW ONES.
000574: 06,3235           11655                           CCS      CHCNTR                                #  IS THIS SCAN DONE.
000575: 06,3236           03216                           TC       LOOKLOOP                              #  NO.
000576: 06,3237           34557                           CAF      TEN                                   #  YES.  100MS RECALL.
000577: 06,3240           05701                           TC       WAITLIST
000578: 06,3241  E4,1654                                  EBANK=   QUITLOOK
000579: 06,3241           03212 14004                     2CADR    LOOKTOP
000580:
000581: 06,3243           05745                           TC       TASKOVER
000582:

End of include-file LEM_FLIGHT_CONTROL_SYSTEM_TEST.agc.  Parent file is MAIN.agc


