
Source Code


000002:                                                                                                  ## Copyright:   Public domain.
000003:                                                                                                  ## Filename:    LMP_COMMAND_ROUTINES.agc
000004:                                                                                                  ## Purpose:     A section of Sunburst revision 37, or Shepatin revision 0.
000005:                                                                                                  ##              It is part of an early development version of the software
000006:                                                                                                  ##              for Apollo Guidance Computer (AGC) on the unmanned Lunar
000007:                                                                                                  ##              Module (LM) flight Apollo 5. Sunburst 37 was the program
000008:                                                                                                  ##              upon which Don Eyles's offline development program Shepatin
000009:                                                                                                  ##              was based; the listing herein transcribed was actually for
000010:                                                                                                  ##              the equivalent revision 0 of Shepatin.
000011:                                                                                                  ##              This file is intended to be a faithful transcription, except
000012:                                                                                                  ##              that the code format has been changed to conform to the
000013:                                                                                                  ##              requirements of the yaYUL assembler rather than the
000014:                                                                                                  ##              original YUL assembler.
000015:                                                                                                  ## Reference:   pp. 746-747
000016:                                                                                                  ## Assembler:   yaYUL
000017:                                                                                                  ## Contact:     Ron Burkey <info@sandroid.org>.
000018:                                                                                                  ## Website:     www.ibiblio.org/apollo/index.html
000019:                                                                                                  ## Mod history: 2017-05-24 MAS  Created from Sunburst 120.
000020:                                                                                                  ##              2017-06-08 HG   Transcribed
000021:                                                                                                  ##              2017-06-23 RSB  Proofed comment text with
000022:                                                                                                  ##                              octopus/ProoferComments.
000023:


000025:                                                                                                  #           THE FOLLOWING SUBROUTINES ALLOW MISSION PROGRAMS TO REQUEST LMP (LEM MISSION PROGRAMMER) OUTPUTS.
000026:
000027:                                                                                                  #  THE PROPER DECIMAL CODE IS ENTERED INTO A TABLE AND FROM THENCE TO CHANNEL 10 VIA T4RUPT AND ARE INCLUDED IN
000028:                                                                                                  #  THE DOWNLINK.
000029:
000030:                                                                                                  #           FOUR ROUTINES ARE PROVIDED:
000031:
000032:                                                                                                  #                                                   TC     1LMP            CALLED UNDER EXEC OR RUPT. DELIVERS CODE
000033:                                                                                                  #                                                   DEC    LMPCODE         AND RETURNS IMMEDIATELY.
000034:
000035:                                                                                                  #                                                   TC     2LMP            SAME AS 1LMP BUT TWO CODES ARE
000036:                                                                                                  #                                                   DEC    LMPCODE1        SENT.
000037:                                                                                                  #                                                   DEC    LMPCODE2
000038:
000039:                                                                                                  #                                                   TC     1LMP+DT         ASSUMES CALLED AS PART OF WAITLIST TASK.
000040:                                                                                                  #                                                   DEC    LMPCODE         DELIVERS LMP CODE, DOES A VARDELAY FOR
000041:                                                                                                  #                                                   DEC    DT              DT, AND THEN RETURNS UNDER WL CONTROL.
000042:
000043:                                                                                                  #                                                   TC     2LMP+DT         SAME AS 1LMP+DT BUT TWO CODES SENT.
000044:                                                                                                  #                                                   DEC    LMPCODE1
000045:                                                                                                  #                                                   DEC    LMPCODE2
000046:                                                                                                  #                                                   DEC    DT
000047:
000048:                                                                                                  #  WARNING  ***** PROGRAMS UNDER EXEC WHICH CALL 1LMP + 2LMP MUST FIRST
000049:
000050:                                                                                                  #                 INHIBIT INTERRUPT....RETURNS STILL INHIBITED.
000051:
000052:
000053:
000054:    5065                                           BLOCK    02
000055:    5065           50002        2LMP               INDEX    Q                                     #  PICK UP 1ST CODE
000056:    5066           30000                           CA       0
000057:    5067           24002                           INCR     Q
000058:    5070           22002                           LXCH     Q                                     #  SAVE 2ND CODE ADDRESS IN L
000059:
000060:    5071                        LMPGROUP           EQUALS   2
000061:    5071     1115               LMPTBASE           EQUALS   TBASE2
000062:
000063:    5071     1102               LMPPHASE           EQUALS   PHASE2
000064:
000065:    5071           05076                           TC       STORCOM    -1                         #  TO STORE IN BUFFER AND UPDATE POINTER
000066:
000067:    5072           22002                           LXCH     Q                                     #  RETREIVE 2ND CODE ADDRESS FROM L.
000068:
000069:    5073           50002        1LMP               INDEX    Q
000070:    5074           30000                           CA       0                                     #  GET LMP CODE
000071:    5075           24002                           INCR     Q                                     #  SET RETURN.
000072:    5076           67737                           AD       BIT15                                 #  SET SIGN TO SHOW NEW COMMAND IN BUFFER
000073:
000074:    5077           51142        STORCOM            INDEX    LMPIN
000075:    5100           55132                           TS       LMPCMD                                #  INSERT IN NEXT SLOT IN BUFFER
000076:
000077:    5101           11142        UPLMPIN            CCS      LMPIN                                 #  UPDATE POINTER
000078:


000080:    5102           15104                           TCF      +2
000081:    5103           37757                           CAF      SEVEN
000082:    5104           55142                           TS       LMPIN
000083:    5105           00002                           TC       Q
000084:
000085:    5106           50002        2LMP+DT            INDEX    Q
000086:    5107           30000                           CA       0                                     #  PICK UP 1ST CODE
000087:    5110           24002                           INCR     Q
000088:    5111           22002                           LXCH     Q                                     #  2ND CODE ADDRESS IN L.
000089:
000090:    5112           05076                           TC       STORCOM    -1                         #  STORE IN BUFFER AND UPDATE POINTER
000091:
000092:    5113           15115                           TCF      +2
000093:
000094:    5114           00006        1LMP+DT            EXTEND                                         #  SAVE RETURN FOR RESTARTS
000095:    5115           23145                           QXCH     LMPRET                                #  IS LXCH IF FROM ABOVE
000096:    5116           30006                           CA       BBANK
000097:    5117           55146                           TS       LMPBBANK
000098:
000099:    5120           00006                           EXTEND
000100:    5121           51145                           INDEX    LMPRET
000101:    5122           30001                           DCA      0                                     #  PICK UP CODE AND DT
000102:    5123           05076                           TC       STORCOM    -1                         #  GO TO STORE CODE AND UPDATE POINTER
000103:
000104:    5124           23147                           LXCH     SAVDT                                 #  SAVE FOR RESTART
000105:    5125           04147                           TC       PHASCHNG                              #  RESTART PROTECT DELAY
000106:    5126           47012                           OCT      47012
000107:    5127           76630                           -GENADR  SAVDT
000108:    5130     1115                                  EBANK=   TBASE2
000109:    5130           05136 04002                     2CADR    LMPRST
000110:
000111:    5132           31147                           CA       SAVDT                                 #  WAIT DT SECONDS
000112:    5133           05722                           TC       VARDELAY
000113:
000114:    5134           51145        LMPEXIT            INDEX    LMPRET
000115:    5135           00002                           TC       2
000116:
000117:    5136           31146        LMPRST             CA       LMPBBANK                              #  LMP+DT RESTARTS COME HERE
000118:    5137           54006                           TS       BBANK                                 #  AFTER DELAY.
000119:    5140           05134                           TC       LMPEXIT

End of include-file LMP_COMMAND_ROUTINES.agc.  Parent file is MAIN.agc


