
Source Code


000002:                                                                                                  ## Copyright:   Public domain.
000003:                                                                                                  ## Filename:    LOGSUB_ROUTINE.agc
000004:                                                                                                  ## Purpose:     A section of Sunburst revision 37, or Shepatin revision 0.
000005:                                                                                                  ##              It is part of an early development version of the software
000006:                                                                                                  ##              for Apollo Guidance Computer (AGC) on the unmanned Lunar
000007:                                                                                                  ##              Module (LM) flight Apollo 5. Sunburst 37 was the program
000008:                                                                                                  ##              upon which Don Eyles's offline development program Shepatin
000009:                                                                                                  ##              was based; the listing herein transcribed was actually for
000010:                                                                                                  ##              the equivalent revision 0 of Shepatin.
000011:                                                                                                  ##              This file is intended to be a faithful transcription, except
000012:                                                                                                  ##              that the code format has been changed to conform to the
000013:                                                                                                  ##              requirements of the yaYUL assembler rather than the
000014:                                                                                                  ##              original YUL assembler.
000015:                                                                                                  ## Reference:   p.  864
000016:                                                                                                  ## Assembler:   yaYUL
000017:                                                                                                  ## Contact:     Ron Burkey <info@sandroid.org>.
000018:                                                                                                  ## Website:     www.ibiblio.org/apollo/index.html
000019:                                                                                                  ## Mod history: 2017-05-24 MAS  Created from Sunburst 120.
000020:                                                                                                  ##              2017-06-13 HG   Transcribed
000021:                                                                                                  ##              2017-06-23 RSB  Proofed comment text with
000022:                                                                                                  ##                              octopus/ProoferComments.
000023:


000025:                                                                                                  #  INPUT....X IN MPAC
000026:                                                                                                  #  OUTPUT...-LOG(X)/32 IN MPAC
000027:
000028:
000029: 32,2771                                           BANK     32
000030: 32,2771           44301        LOGSUB             NORM     BDSU
000031: 32,2772           00121                                    BUF
000032: 32,2773           25040                                    ALMOST1
000033: 32,2774           77776                           EXIT
000034: 32,2775           07265                           TC       POLY
000035: 32,2776           00006                           DEC      6          B-14
000036: 32,2777           00000 00002                     2DEC     .0000000060
000037:
000038:
000039: 32,3001           76777 77175                     2DEC     -.0312514377
000040:
000041: 32,3003           77400 75416                     2DEC     -.0155686771
000042:
000043: 32,3005           77507 65515                     2DEC     -.0112502068
000044:
000045: 32,3007           77741 63547                     2DEC     -.0018545108
000046:
000047: 32,3011           77052 55373                     2DEC     -.0286607906
000048:
000049: 32,3013           01167 30361                     2DEC     .0385598563
000050:
000051:
000052: 32,3015           76520 75267                     2DEC     -.0419361902
000053:
000054: 32,3017           37761                           CAF      ZERO
000055: 32,3020           54146                           TS       MPAC       +2
000056: 32,3021           00006                           EXTEND
000057: 32,3022           33036                           DCA      CLOG2/32
000058: 32,3023           52145                           DXCH     MPAC
000059: 32,3024           52122                           DXCH     BUF        +1
000060: 32,3025           30120                           CA       BUF
000061: 32,3026           07351                           TC       SHORTMP
000062:
000063: 32,3027           52146                           DXCH     MPAC       +1
000064: 32,3030           52145                           DXCH     MPAC
000065: 32,3031           52122                           DXCH     BUF        +1
000066: 32,3032           20145                           DAS      MPAC
000067: 32,3033           06103                           TC       INTPRET
000068: 32,3034           43476                           DCOMP    RVQ
000069: 32,3035           00542 34414  CLOG2/32           2DEC     .0216608494
000070:
000071: 32,3037           37777 37777  ALMOST1            2DEC     .999999999

End of include-file LOGSUB_ROUTINE.agc.  Parent file is MAIN.agc


