
Source Code


000002:                                                                                                  ## Copyright:   Public domain.
000003:                                                                                                  ## Filename:    MISSION_PHASE_2_GUIDANCE_REFERENCE_RELEASE_PLUS_BOOST_MONITOR.agc
000004:                                                                                                  ## Purpose:     A section of Sunburst revision 37, or Shepatin revision 0.
000005:                                                                                                  ##              It is part of an early development version of the software
000006:                                                                                                  ##              for Apollo Guidance Computer (AGC) on the unmanned Lunar
000007:                                                                                                  ##              Module (LM) flight Apollo 5. Sunburst 37 was the program
000008:                                                                                                  ##              upon which Don Eyles's offline development program Shepatin
000009:                                                                                                  ##              was based; the listing herein transcribed was actually for
000010:                                                                                                  ##              the equivalent revision 0 of Shepatin.
000011:                                                                                                  ##              This file is intended to be a faithful transcription, except
000012:                                                                                                  ##              that the code format has been changed to conform to the
000013:                                                                                                  ##              requirements of the yaYUL assembler rather than the
000014:                                                                                                  ##              original YUL assembler.
000015:                                                                                                  ## Reference:   pp. 632-643
000016:                                                                                                  ## Assembler:   yaYUL
000017:                                                                                                  ## Contact:     Ron Burkey <info@sandroid.org>.
000018:                                                                                                  ## Website:     www.ibiblio.org/apollo/index.html
000019:                                                                                                  ## Mod history: 2017-05-24 MAS  Created from Sunburst 120.
000020:                                                                                                  ##              2017-06-13 RSB  Transcribed.
000021:                                                                                                  ##              2017-06-13 HG   Fix operator DXCH ->QXCH
000022:                                                                                                  ##                              Fix operator REFSSMAT -> REFSMMAT
000023:                                                                                                  ##                              Fix comment (missing #) near label SHOW12
000024:                                                                                                  ##              2017-06-22 RSB  Proofed comment text with
000025:                                                                                                  ##                              octopus/ProoferComments.
000026:


000028:                                                                                                  #  PROGRAM NAME - MISSION PHASE 2 GUIDANCE REFERENCE RELEASE + BOOST MONITOR.
000029:
000030:                                                                                                  #  MODIFICATION NUMBER - 1         DATE - NOVEMBER 22, 1966                MODIFICATION BY - COVELLI
000031:
000032:
000033:
000034:                                                                                                  #  FUNCTIONAL DESCRIPTION -
000035:
000036:                                                                                                  #     THE FUNCTION OF MISSION PHASE 2 IS TO CONTROL THE SEQUENCE OF EVENTS IN THE 206 FLIGHT FROM GUIDANCE
000037:                                                                                                  #  REFERENCE RELEASE THROUGH LIFTOFF TO THE SIVB BOOSTER SHUTDOWN.
000038:
000039:                                                                                                  #     AT GUIDANCE REFERENCE RELEASE, THE GRR FLAG IS SET,  PREREAD IS CALLED TO BEGIN COMPUTATION OF POSITION AND
000040:                                                                                                  #  VELOCITY, AND CALLS ARE MADE FOR DFI T/M CALIBRATION AND LIFTOFF
000041:
000042:                                                                                                  #     WHEN PRELAUNCH DETECTS THAT THE GRR FLAG IS SET, IT TERMINATES GYROCOMPASSING AND CALLS MP2JOB. MP2JOB
000043:                                                                                                  #  DISPLAYS 7 IN THE MAJOR MODE AND GOES TO MATRXJOB TO COMPUTE REFSMMAT.
000044:
000045:                                                                                                  #     AT LIFTOFF, THE LGC CLOCK IS ZEROED, CALLS ARE MADE FOR THE COLD FIRE PURGE AND POST LET JETTISON PROGRAMS.
000046:                                                                                                  #  THE MAJOR MODE IS CHANGED TO 11.
000047:
000048:                                                                                                  #     AT POST LET JETTISON, THE DV MONITOR IS ENABLED TO DETECT BOOSTER SHUTDOWN, THE ABORT COMMAND MONITOR AND THE
000049:                                                                                                  #  TUMBLE MONITOR ARE ENABLED, AND THE MAJOR MODE IS CHANGED TO 12.
000050:
000051:                                                                                                  #     THE VARIOUS LMP COMMANDS REQUIRED FOR MP2 ARE SCHEDULED BY WAITLIST CALLS.
000052:
000053:                                                                                                  #     AT DETECTION OF SIVB SHUTDOWN, AN EXECUTIVE CALL IS MADE TO MISSION PHASE 6.
000054:
000055:
000056:
000057:                                                                                                  #  CALLING SEQUENCE :
000058:
000059:                                                                                                  #     MISSION PHASE 2 IS BEGUN UPON RECEIPT OF THE GUIDANCE REFERENCE RELEASE SIGNAL (VERB 65 ENTER) VIA UPLINK.
000060:
000061:
000062:
000063:                                                                                                  #  SUBROUTINES CALLED :
000064:
000065:                                                                                                  #           PREREAD                1LMP
000066:                                                                                                  #           TUMTASK                2LMP
000067:                                                                                                  #           NEWMODEX               PHASCHNG
000068:                                                                                                  #           FINDVAC                NEWPHASE
000069:                                                                                                  #           NOVAC                  DFITMCAL
000070:                                                                                                  #           SPVAC                  IBNKCALL
000071:                                                                                                  #           WAITLIST
000072:                                                                                                  #           LONGCALL
000073:
000074:
000075:
000076:                                                                                                  #  NORMAL EXIT MODES :


000078:                                                                                                  #     EXIT TO MISSION PHASE 6 AT SIVB SHUTDOWN.
000079:
000080:
000081:
000082:                                                                                                  #  ABORT EXIT MODES :
000083:
000084:                                                                                                  #     TO MISSION PHASE 3 IF SUBORBITAL ABORT COMMAND RECEIVED VIA UPLINK.
000085:                                                                                                  #     TO MISSION PHASE 4 IF CONTINGENCY ORBIT INSERTION COMMAND RECEIVED VIA UPLINK.
000086:
000087:                                                                                                  #     TO CHARALRM IF EITHER OF THE ABOVE ABORT COMMANDS RECEIVED WHILE ABORT COMMAND MONITOR NOT ENABLED.
000088:
000089:
000090:
000091:                                                                                                  #  OUTPUT :
000092:
000093:                                                                                                  #           TGRR          TIME OF GUIDANCE REFERENCE RELEASE
000094:                                                                                                  #           TPRELTER      TIME OF GYROCOMPASSING TERMINATION
000095:                                                                                                  #           TLIFTOFF      TIME OF LIFTOFF AND LGC CLOCK ZEROING
000096:                                                                                                  #           GRR FLAG      BIT2 FLAGWRD1 SET TO INDICATE GRR SIGNAL RECEIVED
000097:                                                                                                  #           SERVICER IS GOING AT END OF MISSION PHASE 2


000101:                                                                                                  #           MAJOR MODE DISPLAYS
000102:                                                                                                  #  ERASABLE INITIALIZATION :
000103:
000104:                                                                                                  #           DT-DFITM      DELTA TIME FROM GRR TO DFI T/M CALIBRATION, SINGLE PRECISION SCALED AT 2(+14) CS.
000105:                                                                                                  #           DT-LIFT       DELTA TIME FROM GRR TO LIFTOFF, DOUBLE PRECISION SCALED AT 2(+28) CS.
000106:                                                                                                  #           DT-LETJT      DELTA TIME FROM LIFTOFF TO POST LET JETTISON, DOUBLE PRECISION SCALED AT 2(+28) CS.
000107:                                                                                                  #           RAVEGON       POSITION AT GRR IN SM CO-ORDINATES, VECTOR SCALED AT 2(+24) M.
000108:                                                                                                  #           VAVEGON       VELOCITY AT GRR IN SM CO-ORDINATES, VECTOR SCALED AT 2(+7) M/CS.
000109:
000110:                                                                                                  #  ********  ALL OF THE ERASABLE INITIALIZATION MUST BE DONE DURING THE PRE-LAUNCH ERASABLE LOAD  *****************
000111:
000112:
000113:
000114:                                                                                                  #  DEBRIS :
000115:
000116:                                                                                                  #     CENTRALS AND EXECUTIVE WORK AREA.
000117:
000118:
000119:
000120: 27,2000                                           BANK     27
000121: 27,2000  E3,1746                                  EBANK=   TGRR
000122:
000123:
000124:
000125: 27,2000           36301        GRRPLACE           CAF      THREE                                 #  COME HERE ON VERB 65 - GRR
000126: 27,2001           04234                           TC       NEWPHASE
000127: 27,2002           00002                           OCT      00002


000129: 27,2003           00004                           INHINT
000130: 27,2004           32024                           CA       MP2BBSET                              #  SET BBCON FOR MP2
000131: 27,2005           54006                           TS       BBANK
000132:
000133: 27,2006           00006                           EXTEND
000134: 27,2007           30025                           DCA      TIME2
000135: 27,2010           53747                           DXCH     TGRR                                  #  SAVE TIME OF GUIDANCE REFERENCE RELEASE
000136:
000137: 27,2011           40075                           CS       FLAGWRD1
000138: 27,2012           77754                           MASK     BIT2
000139: 27,2013           26075                           ADS      FLAGWRD1                              #  GET GRR FLAG  BIT2  FLAGWRD1
000140:
000141: 27,2014           31760                           CA       DT-DFITM
000142: 27,2015           05701                           TC       WAITLIST                              #  SET UP DFI T/M CALIBRATION ROUTINE
000143: 27,2016  E3,1746                                  EBANK=   TGRR
000144: 27,2016           02204 56003                     2CADR    PREDFITM
000145:
000146: 27,2020           00006                           EXTEND
000147: 27,2021           31757                           DCA      DT-LIFT
000148: 27,2022           05757                           TC       LONGCALL                              #  SET UP CALL TO LIFTOFF PROGRAM
000149: 27,2023  E3,1746                                  EBANK=   TGRR
000150: 27,2023           02240 56003  MP2BBS-1           2CADR    LIFTOFF
000151:
000152: 27,2025           32360                           CA       AVEGADRS
000153: 27,2026           55322                           TS       DVSELECT
000154:
000155: 27,2027           00006                           EXTEND
000156: 27,2030           32456                           DCA      SVEXADRS
000157: 27,2031           53073                           DXCH     AVGEXIT
000158:
000159: 27,2032           00006                           EXTEND
000160: 27,2033           32456                           DCA      SVEXADRS
000161: 27,2034           53075                           DXCH     DVMNEXIT
000162:
000163: 27,2035           37755                           CA       ONE
000164: 27,2036           05701                           TC       WAITLIST
000165: 27,2037  E5,1506                                  EBANK=   DVTOTAL
000166: 27,2037           02011 60065                     2CADR    BIBIBIAS                              #  START SERVICER WITH NO LAST BIAS
000167:
000168: 27,2041           37761                           CAF      ZERO
000169: 27,2042           04234                           TC       NEWPHASE
000170: 27,2043           00002                           OCT      00002
000171: 27,2044           37743                           CAF      EBANK4
000172: 27,2045           54002                           TS       Q                                     #  E4 IN Q
000173: 27,2046           00006                           EXTEND
000174: 27,2047           31747                           DCA      TGRR                                  #  IN A,L
000175: 27,2050           00006                           EXTEND
000176: 27,2051           22003                           QXCH     EBANK                                 #  SWITCH EBANK, SAVE OLD IN Q
000177: 27,2052  E4,1723                                  EBANK=   TEVENT
000178: 27,2052           53724                           DXCH     TEVENT                                #  SET TGRR IN TEVENT


000180: 27,2053  E3,1746                                  EBANK=   TGRR
000181: 27,2053           00006                           EXTEND
000182: 27,2054           22003                           QXCH     EBANK                                 #  RESTORE EBANK
000183:
000184: 27,2055           15605                           TCF      ENDOFJOB
000185:
000186: 27,2056  27,2024               MP2BBSET           EQUALS   MP2BBS-1   +1                         #  BBCON FOR MP2
000187:
000188:
000189: 27,2056           04147        MP2JOB             TC       PHASCHNG
000190: 27,2057           01022                           OCT      01022                                 #  PICK UP HERE ON RESTART
000191:
000192: 27,2060           37754                           CAF      TWO                                   #  SET 2 IN MISSION PHASE REGISTER
000193: 27,2061           54765                           TS       PHASENUM
000194:
000195: 27,2062           00006                           EXTEND
000196: 27,2063           31155                           DCA      TEMTPREL                              #  SAVE TIME OF PRELAUNCH TERMINATION
000197: 27,2064           53753                           DXCH     TPRELTER
000198:
000199: 27,2065           04105        SHOW7              TC       NEWMODEX                              #  DISPLAY 7 IN MAJOR MODE
000200: 27,2066           00007                           OCT      00007
000201:
000202:                                                                                                  #  GO TO MATRXJOB TO COMPUTE REFSMMAT
000203:


000205:                                                                                                  #  PROGRAM DESCRIPTION- MATRXJOB                                           DATE- 18 NOV 1966
000206:                                                                                                  #  MOD NO- 1                                                               LOG SECTION- MP 2 GRR + BOOST MONITOR
000207:                                                                                                  #  MOD BY- LICKLY, KERNAN                                                  ASSEMBLY- SUNBURST REVISION 8
000208:
000209:                                                                                                  #  FUNCTIONAL DESCRIPTION
000210:
000211:                                                                                                  #           THIS PROGRAM CONSTRUCTS THE MATRIX WHICH RELATES THE STABLE MEMBER INERTIAL FRAME TO THE REFERENCE
000212:                                                                                                  #  FRAME (Z NORTH, X ALONG THE VERNAL EQUINOX.)
000213:
000214:                                                                                                  #           TWO INTERMEDIATE COORDINATE SYSTEMS ARE USED: A LOCAL, EARTH FIXED, VERTICAL, SOUTH, EAST SYSTEM AND AN
000215:                                                                                                  #  EARTH REFERENCE X, Y, Z SYSTEM.  IN THIS LATTER SYSTEM, THE Z AXIS IS THE EARTH'S ROTATION AXIS, THE X AXIS IS
000216:                                                                                                  #  NORMAL TO Z IN THE PLANE OF Z AND THE LOCAL VERTICAL, POSITIVE IN THE DIRECTION OF V.  Y IS Z CROSS X.
000217:
000218:                                                                                                  #           THE FIRST COMPUTATION IS OF AZGR, THE ANGLE BETWEEN THE REFERENCE INERTIAL AND EARTH REFERENCE X-Z
000219:                                                                                                  #  PLANES (THE Z AXES ARE COINCIDENT).  AZGR IS COMPUTED BY CONVERTING THE TIME FROM THE BEGINNING OF THE EPHEMERIS
000220:                                                                                                  #  YEAR TO RELEASE (TEPHEM + TPRELTER) TO REVOLUTIONS (DAYS).  THE WHOLE REVS ARE DISCARDED AND THE INITIAL ANGLE
000221:                                                                                                  #  (AZ0) BETWEEN THE GREENWICH MERIDIAN AND THE REFERENCE X-Z PLANES IS ADDED.  ADDING THE LONGITUDE YIELDS AZGR.
000222:
000223:                                                                                                  #           THE FOLLOWING COMPUTATIONS ARE THEN PERFORMED.
000224:
000225:                                                                                                  #  LOCAL VERTICAL(ER) = COS(LATITUDE), 0, SIN(LATITUDE)  IN EARTH REFERENCE
000226:
000227:                                                                                                  #  LOCAL VERTICAL(IR) = COS(LAT)COS(AZGR), COS(LAT)SIN(AZGR), SIN(LAT)  IN INERTIAL REFERENCE
000228:
000229:                                                                                                  #  LOCAL EAST(IR) = NXV = -COS(LAT)SIN(AZGR), COS(LAT)COS(AZGR), 0  IN INERTIAL REFERENCE
000230:
000231:                                                                                                  #  LOCAL SOUTH(IR) = E(IR) X V(IR)
000232:
000233:                                                                                                  #           THE RELATIONSHIP OF THE STABLE MEMBER AXES TO THE V, S, E AXES IS GIVEN BY ZSMAZ, THE ANGLE FROM NORTH
000234:                                                                                                  #  TO ZSM, AND TILT, THE ANGLE ABOUT ZSM FROM VERTICAL TO XSM.
000235:
000236:                                                                                                  #  ZSM(IR) = EAST(IR)COS(ZSMAZ - 90) + SOUTH(IR)SIN(ZSMAZ - 90)
000237:
000238:                                                                                                  #  YSM(IR) = (ZSM(IR) X V(IR))COS(TILT) - V(IR)SIN(TILT)
000239:
000240:                                                                                                  #  XSM(IR) = YSM(IR) X ZSM(IR)
000241:
000242:                                                                                                  #           THESE THREE HALF-UNIT VECTORS, XSM(IR), YSM(IR), AND ZSM(IR) ARE THE SM AXES EXPRESSED IN INERTIAL
000243:                                                                                                  #  REFERENCE COORDINATES AND THEY FORM REFSMMAT, THE REFERENCE TO STABLE MEMBER MATRIX.
000244:
000245:                                                                                                  #  THE INPUT (PRELAUNCH ERASABLE LOAD) REQUIREMENTS ARE:
000246:
000247:                                                                                                  #  1) TEPHEM       THE TRIPLE PRECISION TIME IN CENTISECONDS FROM MIDNIGHT JULY 1, OF THE EPHEMERIS YEAR TO
000248:                                                                                                  #  MIDNIGHT OF THE LAUNCH DAY (SIDEREAL CONVERTED TO MEAN SOLAR.)
000249:
000250:                                                                                                  #     IT IS ASSUMED THAT DURING THE LAUNCH COUNTDOWN THE LGC CLOCK (TIME2, TIME1) WILL BE ALIGNED TO REFLECT A
000251:                                                                                                  #  ZERO VALUE AT MIDNIGHT OF THE LAUNCH DAY.  IF NOT, THE DIFFERENCE MUST BE ADDED TO TEPHEM.
000252:
000253:                                                                                                  #  2) TILT         THE ROTATION OF XSM ABOUT ZSM (RIGHT HAND RULE) FROM VERTICAL IN REVOLUTIONS.
000254:


000256:                                                                                                  #  3) ZSMAZ        THE ANGLE FROM NORTH TO ZSM IN REVOLUTIONS.
000257:
000258:                                                                                                  #  THE OUTPUTS OF THIS PROGRAM ARE:
000259:
000260:                                                                                                  #  1) REFSMMAT     THE HALF-UNIT MATRIX WHICH TRANSFORMS FROM REFERENCE INERTIAL TO SM INERTIAL.
000261:
000262:                                                                                                  #  2) AZGR         THE ANGLE BETWEEN PAD 37 B VERTICAL AND THE REFERENCE X-Z PLANE IN REVOLUTIONS.
000263:
000264:                                                                                                  #  CALLING SEQUENCE : CONTINUATION OF MP2JOB
000265:                                                                                                  #  NORMAL EXIT MODE-   TC  ENDOFJOB
000266:
000267:                                                                                                  #  ALARM OR ABORT EXITS-  NONE
000268:
000269:                                                                                                  #  DEBRIS-  SPECIALS, CENTRALS AND EXECUTIVE WORK AREA.
000270:
000271: 27,2067           06103        MATRXJOB           TC       INTPRET
000272: 27,2070           54345                           DLOAD    SR
000273: 27,2071           01753                                    TPRELTER                              #  MAKE ALIGN STOP TIME TP.
000274: 27,2072           20617                                    14D
000275: 27,2073           47171                           TAD      RTB
000276: 27,2074           01772                                    TEPHEM                                #  TP CS FROM JULY 1 TO LAUNCH DAY.
000277: 27,2075           33606                                    TPMODE                                #  SET STORE MODE TO TRIPLE.
000278: 27,2076           00025                           STORE    20D                                   #  TP CS FROM JULY 1 TO RELEASE.
000279: 27,2077           60335                           SLOAD    NORM
000280: 27,2100           00025                                    20D
000281: 27,2101           00047                                    X1                                    #  -9 OR -10.
000282: 27,2102           47005                           DMP      RTB
000283: 27,2103           16367                                    WEARTH                                #  REVS PER 2(28)CS.
000284: 27,2104           33565                                    SGNAGREE
000285: 27,2105           65257                           SR*      PDDL
000286: 27,2106           20556                                    0          -19D,1                     #  GETS RID OF WHOLE REVS.
000287: 27,2107           00026                                    21D
000288: 27,2110           47005                           DMP      RTB
000289: 27,2111           16367                                    WEARTH
000290: 27,2112           33565                                    SGNAGREE
000291: 27,2113           43261                           SLR      DAD
000292: 27,2114           21206                                    5                                     #  DP FRACTION OF A REV.
000293: 27,2115           43215                           DAD      DAD
000294: 27,2116           16371                                    AZ0                                   #  MERIDIAN ANGLE AT JULY 1.
000295: 27,2117           16373                                    P37BLONG                              #  PAD ANGLE TO MERIDIAN.
000296: 27,2120           01764                           STORE    AZGR                                  #  VERT. AZ. AT RELEASE WRT X-Z INERTIAL.
000297:
000298: 27,2121           77756                           SIN
000299: 27,2122           71525                           PDDL     COS
000300: 27,2123           01764                                    AZGR
000301: 27,2124           73525                           PDDL     SIN
000302: 27,2125           16375                                    P37BLAT                               #  LOCAL VERTICAL Z IN EARTH REF. SIN(L).
000303: 27,2126           15301                           STODL    REFSMMAT   +4                         #  ALSO LOCAL VERT Z IN REF. INERTIAL.
000304: 27,2127           16375                                    P37BLAT
000305: 27,2130           72546                           COS      SL1                                   #  SAVES 2 SL'S LATER.


000307: 27,2131           00025                           STORE    20D                                   #  LOCAL VER. X IN EARTH REF.  COS(L).
000308: 27,2132           45405                           DMP      STADR
000309: 27,2133           76502                           STORE    REFSMMAT                              #  LOCAL VERT X IN INERTIAL = COS(L)COS(AZ)
000310: 27,2134           14150                           STODL    MPAC       +3                         #  ALSO Y OF EAST IN INERTIAL.
000311: 27,2135           17057                                    DPZRO
000312: 27,2136           14152                           STODL    MPAC       +5                         #  Z OF EAST IN INERTIAL = 0.
000313: 27,2137           77605                           DMP
000314: 27,2140           00025                                    20D
000315: 27,2141           01277                           STORE    REFSMMAT   +2                         #  LOCAL VERT Y IN INERTIAL=COS(L)SIN(AZ).
000316: 27,2142           47076                           DCOMP    RTB                                   #  ALSO -X OF EAST IN INERTIAL.
000317: 27,2143           33563                                    VECMODE                               #  SET STORE MODE TO VECTOR.
000318: 27,2144           47206                           PUSH     VXV                                   #  EAST INTO PD.
000319: 27,2145           01275                                    REFSMMAT
000320: 27,2146           77656                           UNIT
000321: 27,2147           15311                           STODL    REFSMMAT   +12D                       #  UNIT SOUTH IN INERTIAL INTO REF +12TEMP
000322: 27,2150           01770                                    ZSMAZ                                 #  ZSM WRT NORTH.
000323: 27,2151           41425                           DSU      PUSH                                  #  AZ - 90 = ANG INTO PD.
000324: 27,2152           16377                                    90DEG
000325: 27,2153           74356                           SIN      VXSC
000326: 27,2154           01311                                    REFSMMAT   +12D                       #  (STH)SIN(ANG) INTO R +12D (TEMP).
000327: 27,2155           15311                           STODL    REFSMMAT   +12D                       #  ANG FROM PD.
000328: 27,2156           74346                           COS      VXSC                                  #  EAST FROM PD.
000329: 27,2157           53455                           VAD      UNIT
000330: 27,2160           01311                                    REFSMMAT   +12D
000331: 27,2161           01311                           STORE    REFSMMAT   +12D                       #  ZREFSM = (E)COS(ANG) + (STH)SIN(ANG).
000332:
000333: 27,2162           53435                           VXV      UNIT
000334: 27,2163           01275                                    REFSMMAT                              #  YREFSM(UNTILTED)= Z CROSS VERT = Y1.
000335: 27,2164           71525                           PDDL     COS                                   #  INTO PD.
000336: 27,2165           01766                                    TILT                                  #  TILT IS POS ABOUT ZSM FROM UNTILTED YSM.
000337: 27,2166           77761                           VXSC
000338: 27,2167           73525                           PDDL     SIN                                   #  (Y1)COS(T) INTO PD.
000339: 27,2170           01766                                    TILT
000340: 27,2171           51361                           VXSC     BVSU
000341: 27,2172           01275                                    REFSMMAT
000342: 27,2173           77656                           UNIT
000343: 27,2174           01303                           STORE    REFSMMAT   +6                         #  YREFSM = (Y1)COS(T) - (VERT)SIN(T).
000344:
000345: 27,2175           53435                           VXV      UNIT
000346: 27,2176           01311                                    REFSMMAT   +12D
000347: 27,2177           01275                           STORE    REFSMMAT                              #  XREFSM = Y CROSS Z.
000348: 27,2200           77776                           EXIT
000349:
000350: 27,2201           04147                           TC       PHASCHNG
000351: 27,2202           00072                           OCT      00072                                 #  RESTART PREDFITM
000352: 27,2203           05605                           TC       ENDOFJOB
000353:
000354: 27,2204           04147        PREDFITM           TC       PHASCHNG
000355: 27,2205           40042                           OCT      40042                                 #  PROTECT WAITLIST CALL TO PROG11
000356:


000358: 27,2206           05307        DFITMTSK           TC       IBNKCALL
000359: 27,2207           56211                           CADR     DFITMCAL
000360:
000361: 27,2210           15745                           TCF      TASKOVER
000362:
000363: 27,2211           05073        DFITMCAL           TC       1LMP                                  #  MUST BE CALLED BY IBNKCALL (OR ISWCALL)
000364: 27,2212           00354                           DEC      236        B-14                       #    IN INTERRUPT OR INHIBITED
000365: 27,2213           32363                           CA       12SEC
000366: 27,2214           05701                           TC       WAITLIST                              #  CALL DFITMCL1 IN 12 SECONDS
000367: 27,2215  E3,1746                                  EBANK=   TGRR
000368: 27,2215           02220 56003                     2CADR    DFITMCL1
000369:
000370: 27,2217           15322                           TCF      ISWRETRN
000371:
000372: 27,2220           05065        DFITMCL1           TC       2LMP
000373: 27,2221           00355                           DEC      237        B-14                       #  DFI T/M CALIBRATE OFF
000374: 27,2222           00306                           DEC      198        B-14                       #  MASTER C+W ALARM RESET - COMMAND
000375: 27,2223           04147                           TC       PHASCHNG
000376: 27,2224           40113                           OCT      40113                                 #  PROTECT DFITMCL2
000377:
000378: 27,2225           32362                           CA       200CS
000379: 27,2226           05701                           TC       WAITLIST                              #  CALL DFITMCL2 IN 2 SECONDS
000380: 27,2227  E3,1746                                  EBANK=   TGRR
000381: 27,2227           02232 56003                     2CADR    DFITMCL2
000382:
000383: 27,2231           15745                           TCF      TASKOVER
000384:
000385: 27,2232           05073        DFITMCL2           TC       1LMP
000386: 27,2233           00307                           DEC      199        B-14                       #  MASTER C+W ALARM RESET - COMMAND RESET
000387: 27,2234           37761                           CA       ZERO
000388: 27,2235           04234                           TC       NEWPHASE
000389: 27,2236           00003                           OCT      00003                                 #  GROUP 3 INACTIVE
000390: 27,2237           15745                           TCF      TASKOVER
000391:
000392: 27,2240           00006        LIFTOFF            EXTEND
000393: 27,2241           30025                           DCA      TIME2
000394: 27,2242           53751                           DXCH     TLIFTOFF                              #  SAVE TIME OF LIFTOFF
000395:
000396: 27,2243           04147                           TC       PHASCHNG
000397: 27,2244           01013                           OCT      01013                                 #  PICK UP HERE ON RESTART
000398:
000399: 27,2245           37761                           CA       ZERO
000400: 27,2246           54001                           TS       L
000401: 27,2247           52025                           DXCH     TIME2                                 #  ZERO TIME2, TIME1
000402:
000403: 27,2250           04147                           TC       PHASCHNG
000404: 27,2251           40062                           OCT      40062                                 #  PROTECT RCSPURGE AND SHOW11
000405:
000406: 27,2252           32365                           CA       105SEC
000407:


000409: 27,2253           05701                           TC       WAITLIST                              #  CALL RCSPURGE IN 105 SECONDS
000410: 27,2254  E3,1746                                  EBANK=   TGRR
000411:
000412: 27,2254           02306 56003                     2CADR    RCSPURGE
000413:
000414: 27,2256           00006                           EXTEND
000415: 27,2257           31762                           DCA      DT-LETJT
000416: 27,2260           05757                           TC       LONGCALL
000417: 27,2261  E3,1746                                  EBANK=   TGRR
000418: 27,2261           02316 56003                     2CADR    POSTLET
000419:
000420: 27,2263           37740                           CA       PRIO20
000421: 27,2264           05523                           TC       NOVAC
000422: 27,2265  E3,1746                                  EBANK=   TGRR
000423: 27,2265           02301 56003                     2CADR    SHOW11
000424:
000425: 27,2267           37743                           CAF      EBANK4
000426: 27,2270           54002                           TS       Q                                     #  E4 IN Q
000427: 27,2271           00006                           EXTEND
000428: 27,2272           31751                           DCA      TLIFTOFF                              #  IN A,L
000429: 27,2273           00006                           EXTEND
000430: 27,2274           22003                           QXCH     EBANK                                 #  SWITCH EBANK, SAVE OLD IN Q
000431: 27,2275  E4,1723                                  EBANK=   TEVENT
000432: 27,2275           53724                           DXCH     TEVENT                                #  SET TLIFTOFF IN TEVENT
000433: 27,2276  E3,1746                                  EBANK=   TGRR
000434: 27,2276           00006                           EXTEND
000435: 27,2277           22003                           QXCH     EBANK                                 #  RESTORE EBANK
000436:
000437: 27,2300           15745                           TCF      TASKOVER
000438:
000439: 27,2301           04105        SHOW11             TC       NEWMODEX
000440: 27,2302           00011                           OCT      00011                                 #  DISPLAY 11 IN MAJOR MODE
000441:
000442: 27,2303           04147                           TC       PHASCHNG
000443: 27,2304           00132                           OCT      00132                                 #  PROTECT RCSPURGE
000444: 27,2305           15605                           TCF      ENDOFJOB
000445:
000446: 27,2306           32400        RCSPURGE           CA       +XJETSON
000447: 27,2307           00006                           EXTEND
000448: 27,2310           01005                           WRITE    5                                     #  TURN ON +X TRANSLATION
000449:
000450: 27,2311           32364                           CA       75SEC
000451: 27,2312           05701                           TC       WAITLIST                              #  CALL +X TRANSLATION OFF IN 75 SECONDS
000452: 27,2313  E3,1746                                  EBANK=   TGRR
000453: 27,2313           02337 56003                     2CADR    PURGEOFF
000454:
000455: 27,2315           15745                           TCF      TASKOVER
000456:
000457:
000458: 27,2316           32361        POSTLET            CA       BOOSTADR                              #  MONITOR DELV FOR BOOSTER SHUTDOWN
000459: 27,2317           55322                           TS       DVSELECT


000461:
000462: 27,2320           40076                           CS       FLAGWRD2                              #  ENABLE ABORT COMMAND MONITOR
000463: 27,2321           77745                           MASK     BIT9                                  #  BIT 9  FLAGWORD 2
000464: 27,2322           26076                           ADS      FLAGWRD2
000465:
000466: 27,2323           37755                           CA       BIT1
000467: 27,2324           05701                           TC       WAITLIST                              #  ENABLE TUMBLE MONITOR
000468: 27,2325  E6,1423                                  EBANK=   OMEGA
000469: 27,2325           02402 60066                     2CADR    TUMTASK
000470:
000471:
000472: 27,2327           37740                           CA       PRIO20
000473: 27,2330           05523                           TC       NOVAC
000474: 27,2331  E3,1746                                  EBANK=   TGRR
000475: 27,2331           02334 56003                     2CADR    SHOW12
000476:
000477: 27,2333           15745                           TCF      TASKOVER
000478:
000479: 27,2334           04105        SHOW12             TC       NEWMODEX
000480: 27,2335           00012                           OCT      00012                                 #  DISPLAY 12 IN MAJOR MODE
000481: 27,2336           15605                           TCF      ENDOFJOB
000482:
000483: 27,2337           37761        PURGEOFF           CA       ZERO
000484: 27,2340           00006                           EXTEND
000485: 27,2341           01005                           WRITE    5                                     #  TURN OFF RCS JETS
000486:
000487: 27,2342           05073                           TC       1LMP
000488: 27,2343           00272                           DEC      186        B-14                       #  ECS PRIMARY WATER VALVE OPEN
000489:
000490: 27,2344           04147                           TC       PHASCHNG
000491: 27,2345           40172                           OCT      40172                                 #  PROTECT WATEROFF
000492:
000493: 27,2346           32362                           CA       200CS
000494: 27,2347           05701                           TC       WAITLIST                              #  CALL WATEROFF IN 2 SECONDS
000495: 27,2350  E3,1746                                  EBANK=   TGRR
000496: 27,2350           02353 56003                     2CADR    WATEROFF
000497:
000498: 27,2352           15745                           TCF      TASKOVER
000499:
000500: 27,2353           05073        WATEROFF           TC       1LMP
000501: 27,2354           00273                           DEC      187        B-14                       #  ECS PRIMARY WATER VALVE - OPEN RESET
000502: 27,2355           04147                           TC       PHASCHNG
000503: 27,2356           00002                           OCT      00002                                 #  GROUP 2 INACTIVE
000504:
000505: 27,2357           15745                           TCF      TASKOVER                              #  END OF MISSION PHASE 2
000506:
000507:
000508:                                                                                                  #  DELTA T S AND OTHER CONSTANTS FOR MP2
000509: 27,2360           02233        AVEGADRS           GENADR   AVERAGEG
000510: 27,2361           02214        BOOSTADR           GENADR   BOOSTMON


000512: 27,2362  27,2455               SVEXADRS           EQUALS   SVEXITAD
000513: 27,2362           00310        200CS              DEC      200        B-14
000514: 27,2363           02260        12SEC              DEC      1200       B-14
000515: 27,2364           16514        75SEC              DEC      7500       B-14
000516: 27,2365           24404        105SEC             DEC      10500      B-14
000517: 27,2366           37116 32623  WEARTH             2DEC     31.1539787 B-5                        #  REVOLUTIONS PER 2(28) CENTISECONDS.
000518:
000519: 27,2370           00000 00000  AZ0                2DEC     0          B-28                       #  TEMP
000520:
000521: 27,2372           30655 14640  P37BLONG           2DEC     .77620852                             #  80 DEG 33 MIN 53.76306 SEC WEST
000522:
000523: 27,2374           02422 16752  P37BLAT            2DEC     .079252160                            #  28 DEG 31 MIN 50.79945 SEC NORTH
000524:
000525: 27,2376           10000 00000  90DEG              2DEC     .25
000526:
000527: 27,2400           00252        +XJETSON           OCT      00252                                 #  BITS FOR +X TRANSLATION JETS
000528:
000529:
000530:                                                                                                  #  ABORT COMMAND MONITOR - DETECTS
000531:                                                                                                  #  SUBORBITAL ABORT AND CONTINGENCY
000532:                                                                                                  #  ORBIT INSERTION
000533:
000534: 27,2401           00004        SUBABORT           INHINT                                         #  SUBORBITAL ABORT - ZERO ABORTNDX TO
000535: 27,2402           37761                           CAF      ZERO                                  #  SET UP MISSION PHASE 3
000536: 27,2403           12406                           TCF      CONORBIT   +2
000537:
000538: 27,2404           00004        CONORBIT           INHINT                                         #  CONTINGENCY ORBIT INSERTION - ABORTNDX
000539: 27,2405           37754                           CAF      TWO                                   #  SET TO 2 TO SET UP MISSION PHASE 4
000540: 27,2406           54001                           TS       L                                     #  SAVE IN L
000541: 27,2407           37745                           CAF      BIT9                                  #  CHECK WHETHER ABORT COMMAND MONITOR IS
000542: 27,2410           70076                           MASK     FLAGWRD2                              #  ENABLED
000543: 27,2411           00006                           EXTEND
000544: 27,2412           12450                           BZF      BADCHAR                               #  IF NOT, GO TO BADCHAR
000545: 27,2413           35370                           CAF      EBANK3                                #  SET EBANK
000546: 27,2414           54003                           TS       EBANK
000547: 27,2415           23760                           LXCH     ABORTNDX                              #  STORE ABORTNDX
000548: 27,2416           32360                           CAF      AVEGADRS
000549:
000550: 27,2417           55322                           TS       DVSELECT                              #  TURN OFF BOOSTMON
000551: 27,2420           00006                           EXTEND
000552: 27,2421           32460                           DCA      ABORTRET                              #  SET UP TO RETURN TO ABORTRTN
000553: 27,2422           52376                           DXCH     FLUSHREG
000554: 27,2423           05243                           TC       POSTJUMP
000555: 27,2424           16015                           CADR     ENEMA                                 #  WIPE EVERYTHING OUT
000556:
000557:
000558: 27,2425           00004        ABORTRTN           INHINT
000559: 27,2426           00006                           EXTEND
000560: 27,2427           32462                           DCA      ENDJOBC2                              #  CLEAR FLUSHREG


000562: 27,2430           52376                           DXCH     FLUSHREG
000563:
000564: 27,2431           37755                           CAF      BIT1
000565: 27,2432           05701                           TC       WAITLIST                              #  RE-ESTABLISH TUMBLE MONITOR
000566: 27,2433  E6,1423                                  EBANK=   OMEGA
000567: 27,2433           02402 60066                     2CADR    TUMTASK
000568:
000569: 27,2435           35667                           CAF      PRIO27
000570: 27,2436           54063                           TS       NEWPRIO                               #  SET UP MP3 OR MP4 VIA SPVAC
000571:
000572: 27,2437           00006                           EXTEND
000573: 27,2440           51760                           INDEX    ABORTNDX                              #  GET RIGHT 2CADR
000574: 27,2441           32445                           DCA      MP3-4ADR
000575: 27,2442           05544                           TC       SPVAC                                 #  SET UP JOB
000576: 27,2443           15605                           TCF      ENDOFJOB
000577:
000578:
000579: 27,2444  E4,1566                                  EBANK=   TDEC
000580: 27,2444           02000 52004  MP3-4ADR           2CADR    MP03JOB                               #  DO NOT CHANGE THE ORDER OF THESE 2 CARDS
000581:
000582: 27,2446  E4,1566                                  EBANK=   TDEC
000583: 27,2446           02000 66064                     2CADR    MP4JOB                                #  THEY ARE IN AN INDEXED TABLE
000584:
000585: 27,2450           00003        BADCHAR            RELINT
000586: 27,2451           05243                           TC       POSTJUMP                              #  ILLEGAL CHARACTER    BACK TO PINBALL
000587: 27,2452           11313                           CADR     CHARALRM
000588:
000589: 27,2453  E4,1566                                  EBANK=   TDEC                                  #  LEFT-OVERS FROM DELETED MISSION PHASE 18
000590: 27,2453           02304 16004  MIDAVEAD           2CADR    MIDTOAVE
000591:
000592: 27,2455  E4,1566                                  EBANK=   TDEC
000593: 27,2455           02312 60064  SVEXITAD           2CADR    SERVEXIT
000594:
000595:
000596: 27,2457  E3,1760                                  EBANK=   ABORTNDX
000597: 27,2457           02425 56003  ABORTRET           2CADR    ABORTRTN
000598:
000599: 27,2461  E3,1760                                  EBANK=   ABORTNDX
000600: 27,2461           05605 04003  ENDJOBC2           2CADR    ENDOFJOB

End of include-file MISSION_PHASE_2_GUIDANCE_REFERENCE_RELEASE_PLUS_BOOST_MONITOR.agc.  Parent file is MAIN.agc


