
Source Code


000002:                                                                                                  ## Copyright:   Public domain.
000003:                                                                                                  ## Filename:    MISSION_PHASE_6_COAST_SIVB_ATTACHED.agc
000004:                                                                                                  ## Purpose:     A section of Sunburst revision 37, or Shepatin revision 0.
000005:                                                                                                  ##              It is part of an early development version of the software
000006:                                                                                                  ##              for Apollo Guidance Computer (AGC) on the unmanned Lunar
000007:                                                                                                  ##              Module (LM) flight Apollo 5. Sunburst 37 was the program
000008:                                                                                                  ##              upon which Don Eyles's offline development program Shepatin
000009:                                                                                                  ##              was based; the listing herein transcribed was actually for
000010:                                                                                                  ##              the equivalent revision 0 of Shepatin.
000011:                                                                                                  ##              This file is intended to be a faithful transcription, except
000012:                                                                                                  ##              that the code format has been changed to conform to the
000013:                                                                                                  ##              requirements of the yaYUL assembler rather than the
000014:                                                                                                  ##              original YUL assembler.
000015:                                                                                                  ## Reference:   pp. 666-668
000016:                                                                                                  ## Assembler:   yaYUL
000017:                                                                                                  ## Contact:     Ron Burkey <info@sandroid.org>.
000018:                                                                                                  ## Website:     www.ibiblio.org/apollo/index.html
000019:                                                                                                  ## Mod history: 2017-05-24 MAS  Created from Sunburst 120.
000020:                                                                                                  ##              2017-06-13 HG   Transcribed
000021:                                                                                                  ##              2017-06-22 RSB  Proofed comment text with
000022:                                                                                                  ##                              octopus/ProoferComments.
000023:


000025:                                                                                                  #  PROGRAM DESCRIPTION
000026:                                                                                                  #     COAST SIVB ATTACHED
000027:
000028:                                                                                                  #  MOD NO   1      DATE - 4 NOV 66
000029:
000030:                                                                                                  #  MOD BY - OVERBAUGH
000031:                                                                                                  #  FUNCTIONAL DESCRIPTION
000032:                                                                                                  #     WHEN THE DV MONITOR DETECTS SIVB SHUTDOWN THE
000033:                                                                                                  #     THRUST MISSION CONTROL PROGRAM INITIATES MP6.
000034:                                                                                                  #     DURING THIS PHASE THE ABORT COMMAND MONITOR AND
000035:                                                                                                  #     THE TUMBLE MONITOR ARE TERMINATED AND THE C-BAND
000036:                                                                                                  #     XPONDER IS SET TO ON*.  WHEN THRUST DUE TO
000037:                                                                                                  #     VENTING BECOMES NEGLIGIBLE READING OF
000038:                                                                                                  #     THE PIPAS IS TERMINATED.
000039:
000040:                                                                                                  #  NORMAL EXIT MODES -
000041:                                                                                                  #     TC   TASKOVER
000042:
000043:                                                                                                  #  ERASABLE INITIALIZATION REQUIRED
000044:                                                                                                  #     MP6TO7
000045:
000046:                                                                                                  #  OUTPUT
000047:                                                                                                  #     UPDATE MODREG
000048:                                                                                                  #     TERMINATE ABORT COMMAND MONITOR
000049:                                                                                                  #     TERMINATE TUMBLE MONITOR
000050:                                                                                                  #     MISSION SCHEDULING REGISTERS SET TO CALL MP7
000051:
000052:                                                                                                  #  DEBRIS
000053:                                                                                                  #     CENTRALS,A,Q,Z
000054:
000055:                                                                                                  #  SUBROUTINES CALLED
000056:                                                                                                  #     EXECUTIVE(ENDOFJOB)
000057:                                                                                                  #     WAITLIST
000058:                                                                                                  #     LONGCALL
000059:                                                                                                  #     NEWMODEX
000060:                                                                                                  #     1LMP
000061:                                                                                                  #     FLAG1DWN
000062:                                                                                                  #     FLAG2DWN
000063:                                                                                                  #     SCHEDULE ENTRY ROUTINE(MPENTRY)
000064:
000065: 27,2463                                           BANK     27
000066: 27,2463  E3,1774                                  EBANK=   MP6TO7
000067:
000068: 27,2463           04105        MP6JOB             TC       NEWMODEX                              #  UPDATE MODREG
000069: 27,2464           00013                           OCT      13
000070:
000071: 27,2465           36276                           CAF      SIX
000072: 27,2466           54765                           TS       PHASENUM
000073:
000074: 27,2467           04147                           TC       PHASCHNG


000076: 27,2470           47012                           OCT      47012
000077: 27,2471           13560                           DEC      6000       B-14
000078: 27,2472  E3,1774                                  EBANK=   MP6TO7
000079: 27,2472           02504 56003                     2CADR    MP6A
000080:
000081: 27,2474           32503                           CAF      DEC6000                               #  INITIALIZE 1 MIN DELAY
000082: 27,2475           00004                           INHINT
000083: 27,2476           05701                           TC       WAITLIST
000084: 27,2477  E3,1774                                  EBANK=   MP6TO7
000085: 27,2477           02504 56003                     2CADR    MP6A
000086:
000087: 27,2501           00003                           RELINT
000088: 27,2502           15605                           TCF      ENDOFJOB
000089: 27,2503           13560        DEC6000            DEC      6000       B-14
000090:
000091: 27,2504           04147        MP6A               TC       PHASCHNG
000092: 27,2505           47012                           OCT      47012
000093: 27,2506           27340                           DEC      12000      B-14
000094: 27,2507  E3,1774                                  EBANK=   MP6TO7
000095: 27,2507           02523 56003                     2CADR    MP6B
000096:
000097:
000098: 27,2511           32522                           CAF      DEC12000                              #  INITIALIZE 2 MIN WAIT
000099: 27,2512           05701                           TC       WAITLIST
000100: 27,2513  E3,1774                                  EBANK=   MP6TO7
000101: 27,2513           02523 56003                     2CADR    MP6B
000102:                                                                                                  #  REF   2 LAST 667     27,2514   56003 1  TERMINATE ABORT COMMAND MONITOR
000103:
000104: 27,2515           06045                           TC       FLAG2DWN
000105: 27,2516           00400                           OCT      00400                                 #  BIT 9
000106:
000107:                                                                                                  #                                          TERMINATE TUMBLE MONITOR
000108:
000109: 27,2517           06036                           TC       FLAG1DWN
000110: 27,2520           20000                           OCT      20000                                 #  BIT14
000111: 27,2521           15745                           TCF      TASKOVER
000112: 27,2522           27340        DEC12000           DEC      12000      B-14
000113:
000114: 27,2523           04147        MP6B               TC       PHASCHNG
000115: 27,2524           27042                           OCT      27042
000116: 27,2525           75241                           -GENADR  536SEC
000117: 27,2526  E3,1774                                  EBANK=   MP6TO7
000118: 27,2526           02540 56003                     2CADR    CBXPNDR
000119:                                                                                                  #  REF   1              27,2527   56003 1  CALL C-BAND TRANSPONDER-ON*
000120:
000121: 27,2530           00006                           EXTEND
000122: 27,2531           32537                           DCA      536SEC                                #  SET LONGCALL= T+8M 56S
000123: 27,2532           05757                           TC       LONGCALL                              #  FOR C-BAND TRANSPONDER-ON*
000124: 27,2533  E3,1774                                  EBANK=   MP6TO7
000125: 27,2533           02540 56003                     2CADR    CBXPNDR
000126:


000128: 27,2535           15745                           TCF      TASKOVER
000129: 27,2536           00003 10540  536SEC             2DEC     53600      B-28
000130:
000131:                                                                                                  #                       27,2537   10540 1  C-BAND TRANSPONDER-ON*
000132:
000133: 27,2540           05073        CBXPNDR            TC       1LMP
000134: 27,2541           00152                           DEC      106        B-14
000135:
000136: 27,2542           04127                           TC       2PHSCHNG
000137: 27,2543           00002                           OCT      00002
000138: 27,2544           05013                           OCT      05013
000139: 27,2545           77777                           OCT      77777
000140:
000141:                                                                                                  #                                    CALL SCHEDULE ENTRY ROUTINE
000142:
000143: 27,2546           05141                           TC       MPENTRY
000144: 27,2547           00001                           DEC      1          B-14                       #  J=1
000145: 27,2550           00007                           DEC      7          B-14                       #  MP=7
000146: 27,2551           01774                           ADRES    MP6TO7                                #  DT = 28 MIN
000147:
000148:                                                                                                  #                                    TERMINATE READING OF PIPAS.
000149:                                                                                                  #                                    THRUST DUE TO VENTING AFTER SIVB
000150:                                                                                                  #                                    SHUTDOWN HAS BECOME NEGLIGIBLE.
000151:
000152: 27,2552           06036                           TC       FLAG1DWN                              #  TERMINATE DV MONITOR
000153: 27,2553           00001                           OCT      1
000154: 27,2554           15745                           TCF      TASKOVER
000155:
000156:                                                                                                  #  END OF MISSION PHASE 6

End of include-file MISSION_PHASE_6_COAST_SIVB_ATTACHED.agc.  Parent file is MAIN.agc


