
Source Code


000002:                                                                                                  ## Copyright:   Public domain.
000003:                                                                                                  ## Filename:    MISSION_PHASE_11_-_DPS2_FITH_APS1.agc
000004:                                                                                                  ## Purpose:     A section of Sunburst revision 37, or Shepatin revision 0.
000005:                                                                                                  ##              It is part of an early development version of the software
000006:                                                                                                  ##              for Apollo Guidance Computer (AGC) on the unmanned Lunar
000007:                                                                                                  ##              Module (LM) flight Apollo 5. Sunburst 37 was the program
000008:                                                                                                  ##              upon which Don Eyles's offline development program Shepatin
000009:                                                                                                  ##              was based; the listing herein transcribed was actually for
000010:                                                                                                  ##              the equivalent revision 0 of Shepatin.
000011:                                                                                                  ##              This file is intended to be a faithful transcription, except
000012:                                                                                                  ##              that the code format has been changed to conform to the
000013:                                                                                                  ##              requirements of the yaYUL assembler rather than the
000014:                                                                                                  ##              original YUL assembler.
000015:                                                                                                  ## Reference:   pp. 693-703
000016:                                                                                                  ## Assembler:   yaYUL
000017:                                                                                                  ## Contact:     Ron Burkey <info@sandroid.org>.
000018:                                                                                                  ## Website:     www.ibiblio.org/apollo/index.html
000019:                                                                                                  ## Mod history: 2017-05-24 MAS  Created from Sunburst 120.
000020:                                                                                                  ##              2017-06-06 HG   Transcribed
000021:                                                                                                  ##              2017-06-15 HG   Fix operator TCF -> TC
000022:                                                                                                  ##                                  operand  IBNKCALL -> BANKCALL
000023:


000025: 36,2000                                           BANK     36
000026: 36,2000  E4,1566                                  EBANK=   TDEC
000027: 36,2000  E4,1662               EMP11JOB           EQUALS   MPRETRN
000028:                                                                                                  #  MISSION PHASE 11 DOES PROG32-PREDPS2, PROG42-DPS2 BURN BRAKING GUIDANCE,
000029:                                                                                                  #  PROG43-APPROACH GUIDANCE, PROG43-RANDOM THROTTLE PROGRAM AND PROG74-THE
000030:                                                                                                  #  FIRE-IN-THE-HOLE AND APS1 BURN
000031:
000032:                                                                                                  #  THE APPROXIMATE STARTING TIME OF THESE PROG IS SHOWN BELOW
000033:
000034:                                                                                                  #  T       PROG32
000035:                                                                                                  #  T+187   DPS2 IGNITION (TIG11)
000036:                                                                                                  #  TIG+26  PROG42
000037:                                                                                                  #  TIG+705 PROG44
000038:                                                                                                  #  TIG+757 PROG74
000039:                                                                                                  #  TIG+792 MISSION TERMINATED
000040:
000041:
000042:
000043: 36,2000           00006        MP11JOB            EXTEND
000044: 36,2001           30025                           DCA      TIME2
000045: 36,2002           53567                           DXCH     TDEC
000046: 36,2003           04105                           TC       NEWMODEX                              #  SET DISPLAY
000047: 36,2004           00032                           OCT      32
000048:
000049: 36,2005           32311                           CAF      1SEC11                                #  SETUP MP11 TASK-REQUIRES 75 SECS AND
000050: 36,2006           00004                           INHINT                                         #  TERMINATES ITSELF
000051: 36,2007           05701                           TC       WAITLIST
000052: 36,2010  E4,1566                                  EBANK=   TDEC
000053: 36,2010           02401 74064                     2CADR    MP11TASK
000054:
000055: 36,2012           00003                           RELINT
000056:
000057: 36,2013           32336                           CAF      135SECS                               #  SET TDEC =TIG-50
000058: 36,2014           54001                           TS       L
000059: 36,2015           37761                           CAF      ZERO
000060: 36,2016           21567                           DAS      TDEC
000061:
000062: 36,2017           00006                           EXTEND                                         #  SET RETURN FROM MIDTOAVE TO INTRTN
000063: 36,2020           32361                           DCA      MDAVADR
000064: 36,2021           52006                           DXCH     Z                                     #  DO MIDTOAVE VIA RVUPDATE
000065:
000066: 36,2022           00006        INTRTN             EXTEND
000067: 36,2023           32353                           DCA      DPS2ADR                               #  INTEGRATION DONE-DO PRE-DPS2
000068: 36,2024           52006                           DXCH     Z                                     #  STATE AT RIGNTION-TIME AT TET FOR PREDPS
000069:
000070:                                                                                                  #   PRE-DPS2 RETURN TO RETPREB WITH ULLAGE-ON TIME AT TULLG, (TIG-7.5).
000071:                                                                                                  #  THE DESIRED 1/2 UNIT THRUST VECTOR AT POINTVSM.
000072:                                                                                                  #   STATE VECTOR IN SM COORDINATES STORED AT RN, VN WITH CORRESPONDING
000073:                                                                                                  #   TIME AT PIPTIME WHERE (TULLG - PIPTIME)IS BETWEEN
000074:                                                                                                  #   3.8 AND 6 SECS.
000075:


000077:
000078: 36,2025           00004        RETPREB            INHINT
000079: 36,2026           00006                           EXTEND
000080: 36,2027           31457                           DCA      TULLG                                 #  C(TULLG)=TIG-7.5
000081: 36,2030           52145                           DXCH     MPAC
000082: 36,2031           42337                           CS       22.5SECS
000083: 36,2032           54001                           TS       L
000084: 36,2033           37761                           CAF      ZERO
000085: 36,2034           54146                           TS       MPAC       +2
000086: 36,2035           20145                           DAS      MPAC                                  #  C(MPAC)=TIG-30
000087: 36,2036           00006                           EXTEND
000088: 36,2037           40025                           DCS      TIME2                                 #  GET CURRENT TIME
000089: 36,2040           20145                           DAS      MPAC                                  #  C(MPAC)=DELTA(TIG-30)
000090: 36,2041           07320                           TC       TPAGREE                               #  MAKE SIGNS AGREE
000091: 36,2042           52145                           DXCH     MPAC
000092:
000093: 36,2043           05757                           TC       LONGCALL
000094: 36,2044  E4,1566                                  EBANK=   TDEC
000095: 36,2044           02102 74064                     2CADR    TIG11-30
000096:
000097: 36,2046           00003                           RELINT
000098:
000099: 36,2047           06103                           TC       INTPRET
000100: 36,2050           77775                           VLOAD
000101: 36,2051           01011                                    RN                                    #  STATE STORED IN RAVEGON AND VAVEGON FOR
000102: 36,2052           26115                           STOVL    RAVEGON                               #  AVERAGE G INITIALIZATION AT PIPTIME
000103: 36,2053           01017                                    VN
000104: 36,2054           16123                           STODL    VAVEGON
000105: 36,2055           35451                                    D1/2                                  #  JAM .5,0,0 IN SCAXIS FOR KALCMANU
000106: 36,2056           15664                           STODL    SCAXIS
000107: 36,2057           35076                                    DZERO
000108: 36,2060           01666                           STORE    SCAXIS     +2
000109: 36,2061           15670                           STODL    SCAXIS     +4
000110: 36,2062           01321                                    PIPTIME                               #  THIS TIME CONSISTANT WITH STATE-RAVEGON
000111: 36,2063           02264                           STORE    DT11TEMP                              #  USED AFTER KALCMANU TO CALL PREREAD
000112: 36,2064           43131                           SSP      SET
000113: 36,2065           01653                                    RATEINDX                              #  SET KALCMANU FOR ANGULAR RATE OF 5 DEG/S
000114: 36,2066           00004                                    4
000115: 36,2067           01063                                    33D
000116:
000117: 36,2070           77776                           EXIT
000118:
000119: 36,2071           35226                           CAF      PRIO30                                #  DO ATTITUDE MANEUVER JOB.
000120: 36,2072           00004                           INHINT
000121: 36,2073           05534                           TC       FINDVAC
000122: 36,2074  E3,1535                                  EBANK=   MIS
000123: 36,2074           02001 70063                     2CADR    VECPOINT
000124:
000125: 36,2076           05224                           TC       BANKCALL
000126: 36,2077           26754                           CADR     ATTSTALL                              #  PUT MP11 TO SLEEP - KALCMANU WILL WAKE
000127:
000128: 36,2100           04732                           TC       CURTAINS                              #  KALCMANU HAS GIMBALOC PROBLEMS-CURTAINS
000129: 36,2101           05605                           TC       ENDOFJOB                              #  WAIT FOR TIG-30
000130:


000132:
000133: 36,2102           37743        TIG11-30           CAF      BIT11                                 #  SEE IF ATTITUDE MANEUVER DONE
000134: 36,2103           70076                           MASK     FLAGWRD2
000135: 36,2104           10000                           CCS      A
000136: 36,2105           02277                           TC       DOCURTN                               #  KALCMANU NOT-DO CURTJOB
000137: 36,2106           04105                           TC       NEWMODEX                              #  SET MODE TO PROG42
000138: 36,2107           00042                           OCT      42
000139:
000140: 36,2110           00006                           EXTEND
000141: 36,2111           40025                           DCS      TIME2                                 #  GET PIPTIME-TIME2
000142: 36,2112           21664                           DAS      DT11TEMP
000143: 36,2113           11664                           CCS      DT11TEMP   +1
000144: 36,2114           67755                           AD       ONE                                   #  MAKE SURE OF POSITIVE WAITLIST CALL
000145: 36,2115           12120                           TCF      +3
000146: 36,2116           40000                           COM
000147: 36,2117           67735                           AD       POSMAX
000148: 36,2120           05701                           TC       WAITLIST
000149: 36,2121  E4,1566                                  EBANK=   TDEC
000150: 36,2121           02364 74064                     2CADR    PREAVEG
000151:
000152: 36,2123           06074        DPSTART            TC       ENGINOF1
000153:
000154: 36,2124           05114                           TC       1LMP+DT
000155: 36,2125           00226                           DEC      150        B-14                       #  ARM DESCENT ENGINE
000156: 36,2126           01750                           DEC      1000       B-14                       #  DELAY 10 SECONDS
000157:
000158: 36,2127           37755                           CAF      BIT1                                  #   START UP ABORT STAGE MONITOR
000159: 36,2130           05701                           TC       WAITLIST
000160: 36,2131  E4,1566                                  EBANK=   TDEC
000161: 36,2131           02245 74064                     2CADR    ABMON
000162: 36,2133           05114        TIG11-20           TC       1LMP+DT
000163: 36,2134           00126                           DEC      86         B-14                       #  SET MANUAL THROTTLE TO 10 %
000164: 36,2135           00620                           DEC      400        B-14                       #  DELAY 4 SECONDS
000165:
000166: 36,2136           05106        TIG11-16           TC       2LMP+DT
000167: 36,2137           00344                           DEC      228        B-14                       #  ENABLE DPS PQGS ARM 1
000168: 36,2140           00304                           DEC      196        B-14                       #  ENABLE DPS PQGS ARM 2
000169: 36,2141           00144                           DEC      100        B-14                       #  DELAY 1 SECOND
000170:
000171: 36,2142           05106        TIG11-15           TC       2LMP+DT
000172: 36,2143           00364                           DEC      244        B-14                       #  DPS PQGS =1 ON
000173: 36,2144           00324                           DEC      212        B-14                       #  DPS PQGS =2 ON
000174:
000175: 36,2145           01356                           DEC      750        B-14                       #  DELAY 7.5 SECONDS
000176:
000177: 36,2146           05307        TIG-7.5            TC       IBNKCALL
000178: 36,2147           34024                           CADR     ULLAGE                                #  CALL FOR 4 JET ULLAGE
000179:
000180: 36,2150           05717                           TC       FIXDELAY
000181: 36,2151           01356                           DEC      750        B-14                       #  DELAY 7.5 SECONDS, UNTIL ENGINEON
000182:


000184:
000185: 36,2152           06054        TIG11              TC       ENGINEON
000186: 36,2153           05717                           TC       FIXDELAY
000187:
000188: 36,2154           00062                           DEC      50         B-14                       #  DELAY HALF A SECOND
000189:
000190: 36,2155           05307                           TC       IBNKCALL
000191: 36,2156           34030                           CADR     NOULLAGE
000192:
000193: 36,2157           05717                           TC       FIXDELAY
000194: 36,2160           04766                           DEC      2550       B-14                       #  WAIT 25.5 SECONDS
000195:
000196: 36,2161           37735        TIG11+26           CAF      POSMAX                                #  HAVE BEEN AT 10% THROTTLE FOR 26 SECONDS
000197: 36,2162           55335                           TS       PCNTF                                 #  NOW CALL FOR MAXIMUM THRUST (92.5%)
000198:
000199: 36,2163           00006                           EXTEND
000200: 36,2164           32355                           DCA      PCNTFAD
000201: 36,2165           52006                           DXCH     Z
000202:
000203: 36,2166           00006                           EXTEND
000204: 36,2167           32351                           DCA      BURNADR                               #  STARTING DPS2 GUIDANCE: TIG +26 SECONDS
000205: 36,2170           53073                           DXCH     AVGEXIT
000206:
000207: 36,2171           05745                           TC       TASKOVER
000208:
000209: 36,2172           00006        RETBURN            EXTEND                                         #  RETURN FROM BURN GUIDANCE
000210: 36,2173           32363                           DCA      ADROFSER                              #  SET SERVICER EXIT TO KILL BURN GUID
000211:
000212: 36,2174           53073                           DXCH     AVGEXIT
000213:
000214: 36,2175           37755                           CAF      BIT1                                  #  SET TASK FOR RANDOM THROTTLE
000215: 36,2176           00004                           INHINT
000216: 36,2177           05701                           TC       WAITLIST                              #  PROGRAM P44
000217: 36,2200  E4,1566                                  EBANK=   TDEC
000218: 36,2200           02203 74064                     2CADR    PROG44
000219:
000220: 36,2202           05605                           TC       ENDOFJOB                              #  READACCS STILL ACTIVE.
000221:


000223:
000224:                                                                                                  #  THE DPS2 RANDOM THROTTLE PROG44 STARTS APPROXIMATELY AT TIG+705. THE
000225:                                                                                                  #  EXACT TIME AND THRUST LEVEL SETTING AT THE START OF PROG44 ARE COMPUTED
000226:                                                                                                  #  BY BURN GUIDANCE PROG43.  THE SUBSEQUENT THRUST COMMANDS ARE LISTED.
000227:
000228:                                                                                                  #  T    10 PERCENT THRUST
000229:                                                                                                  #  T+10 50 PERCENT
000230:                                                                                                  #  T+30 30 PERCENT
000231:                                                                                                  #  T+40 20 PERCENT
000232:                                                                                                  #  T+50 92.5 PERCENT FOR 2 SECS THEN FIRE-IN-THE-HOLE
000233:
000234: 36,2203           04105        PROG44             TC       NEWMODEX
000235: 36,2204           00044                           OCT      44                                    #  SET MODE TO RANDOM THROTTLE
000236:
000237: 36,2205           32341                           CAF      22SECS11                              #  DO ASCENT COOLANT VALVE TASK IN 22 SECS
000238: 36,2206           05701                           TC       WAITLIST
000239: 36,2207  E4,1566                                  EBANK=   TDEC
000240: 36,2207           02422 74064                     2CADR    ASWTVLON                              #  COOLANT VALVE CALL
000241:
000242: 36,2211           37753        INDPCT             CAF      FOUR
000243: 36,2212           55662                           TS       MPRETRN                               #  INDEX.
000244:
000245: 36,2213           50000                           INDEX    A                                     #  OFFSET POINTER
000246: 36,2214           32342                           CAF      20PCTHR                               #  AMOUNT OF THROTTLE
000247: 36,2215           55335                           TS       PCNTF
000248:
000249: 36,2216           00006                           EXTEND
000250: 36,2217           32355                           DCA      PCNTFAD                               #  GO TO THRUSTING ROUTINE
000251: 36,2220           52006                           DXCH     Z
000252:
000253: 36,2221           05717                           TC       FIXDELAY
000254: 36,2222           01750        10SECS11           DEC      1000       B-14                       #  DELAY 10 SECS
000255:
000256: 36,2223           11662                           CCS      MPRETRN                               #  DECREMENT INDEX
000257: 36,2224           02212                           TC       INDPCT     +1                         #  NO
000258:
000259: 36,2225           37735                           CAF      925PCTHR                              #  TURN ON 92.5 THRUST
000260: 36,2226           55335                           TS       PCNTF
000261: 36,2227           00006                           EXTEND
000262: 36,2230           32355                           DCA      PCNTFAD                               #  GO FOR THRUSTING
000263: 36,2231           52006                           DXCH     Z
000264:
000265: 36,2232           32311                           CAF      1SEC11                                #  THRUST AT MAX FOR 2 SEC, 1 SEC HERE AND
000266: 36,2233           05701                           TC       WAITLIST                              #  1 MORE IN FITHCMD
000267: 36,2234  E4,1566                                  EBANK=   TDEC
000268: 36,2234           02237 74064                     2CADR    FITHCMD
000269:
000270: 36,2236           05745                           TC       TASKOVER
000271:
000272:                                                                                                  #  FITH/APS1 PROGRAM 74
000273:


000275:                                                                                                  #  WITH DETECTION OF THE ABORT STAGE DISCRETE BY THE ABORT STAGE MONITOR
000276:                                                                                                  #  THE FOLLOWING EVENTS OCCUR BY PROGRAM OR ARE PROCESSED AUTOMATICALLY
000277:                                                                                                  #  BY THE LEM SEQUENCER.
000278:
000279:                                                                                                  #   T-1.0 ABORT STAGE ARM (PROGRAMMED)
000280:                                                                                                  #   T     ABORT STAGE COMMAND (PROGRAMMED)
000281:                                                                                                  #        ATTITUDE HOLD (PROGRAMMED)
000282:                                                                                                  #   T+.04 ASCENT PRESSURIZED
000283:                                                                                                  #   T+.15 DESCENT ENGINE-OFF
000284:                                                                                                  #   T+.42 ASCENT ENGINE ARM
000285:                                                                                                  #         ASCENT/DESCENT STAGING INITIATED
000286:                                                                                                  #         STAGE VERIFIED
000287:                                                                                                  #   T+.46 INTERSTAGE BOLTS FIRED
000288:                                                                                                  #         ASCENT STAGE UMBILICAL ELECTRICAL DEADFACE
000289:
000290:                                                                                                  #   T+.50 DESCENT STAGE UMBILICAL ELEC. DEADFACE
000291:                                                                                                  #   T+.55 ASCENT/DESCENT STAGE UMBILICAL CUT
000292:                                                                                                  #   T+.78 ASCENT ENGINE REACHES 90 PC THRUST
000293:                                                                                                  #  T+1.0 CHANGE LEM MASS (PROGRAMMED)
000294:                                                                                                  #        DESCENT ENGINE ARM-OFF (PROGRAMMED)
000295:                                                                                                  #  T+5.0 ASCENT ENGINE-OFF (PROGRAMMED)
000296:
000297: 36,2237           05114        FITHCMD            TC       1LMP+DT                               #  THRUST AT MAX FOR 1 MORE SEC AND ABORT
000298: 36,2240           00026                           DEC      22         B-14                       #  ABORT SATGE ARM
000299: 36,2241           00144                           DEC      100        B-14                       #  DELAY 1.0 SEC.
000300:
000301: 36,2242           05073                           TC       1LMP                                  #  INITIATE ABORT STAGE COMMAND
000302: 36,2243           00046                           DEC      38         B-14
000303:
000304: 36,2244           05745                           TC       TASKOVER                              #  LET ABORT MONITOR TAKE IT FROM HERE
000305:
000306: 36,2245           37752        ABMON              CAF      BIT4                                  #  ABORT STAGE MONITOR SAMPLES CHANNEL
000307: 36,2246           00006                           EXTEND                                         #  30 FOR ABORT STAGE DISCRETE EVERY .5 SEC
000308: 36,2247           02030                           RAND     30
000309: 36,2250           00006                           EXTEND
000310: 36,2251           12255                           BZF      FITHGCMD                              #  ABORT DISCRETE PRESENT-KILL MONITOR
000311:
000312: 36,2252           05717                           TC       FIXDELAY                              #  NO ABORT DISCRETE-CONTINUE TO MONITOR
000313:
000314: 36,2253           00062                           DEC      50         B-14                       #  DELAY .5 SECS
000315: 36,2254           12245                           TCF      ABMON
000316:
000317: 36,2255           05307        FITHGCMD           TC       IBNKCALL
000318: 36,2256           34057                           CADR     STOPRATE                              #  SET ATTITUDE HOLD
000319:
000320: 36,2257           04105                           TC       NEWMODEX                              #  SET MODE TO FIRE-IN-THE-HOLE
000321: 36,2260           00074                           OCT      74                                    #  PROG74
000322:
000323: 36,2261  E5,1540                                  EBANK=   MASSES                                #  EBANK5
000324: 36,2261           35677                           CAF      EBANK5
000325: 36,2262           54003                           TS       EBANK                                 #  JAM 05 IN EBANK
000326: 36,2263           00006                           EXTEND
000327:


000329: 36,2264           31543                           DCA      LEMMASS2                              #  CHANGE LEM MASS AT DPS/APS SEPARATION
000330: 36,2265           53333                           DXCH     MASS
000331: 36,2266           37743                           CAF      BIT11                                 #  RETURN EBANK TO 04
000332: 36,2267           54003                           TS       EBANK
000333: 36,2270  E4,1566                                  EBANK=   TDEC
000334:
000335: 36,2270           05717                           TC       FIXDELAY
000336: 36,2271           00144                           DEC      100        B-14                       #  DELAY 1 SEC TO DPS ARM OFF
000337:
000338: 36,2272           05114                           TC       1LMP+DT                               #  ENGINE SELECT-DESC ARM OFF-
000339: 36,2273           00227                           DEC      151        B-14                       #  APS BURN FOR 5 SECS
000340: 36,2274           00620                           DEC      400        B-14                       #  DELAY 4.0 SECONDS
000341:
000342: 36,2275           06071                           TC       ENGINOFF                              #  GO FOR ENGINE SHUTDOWN
000343:
000344: 36,2276           05745                           TC       TASKOVER
000345:
000346:
000347:
000348: 36,2277           05224        DOCURTN            TC       BANKCALL                              #   GO SET UP CURTAIN JOB
000349: 36,2300           57267                           CADR     CURTJOB
000350:
000351: 36,2301           32311        MP11TERM           CAF      1SEC11                                #  SET TO DO MP11 TERMINAL TASKS IN 1 SEC
000352: 36,2302           00004                           INHINT
000353: 36,2303           05701                           TC       WAITLIST
000354: 36,2304  E4,1566                                  EBANK=   TDEC
000355: 36,2304           02307 74064                     2CADR    MP11OUT
000356:
000357: 36,2306           05605                           TC       ENDOFJOB                              #  TERMINATE JOB SET BY DVMON
000358:
000359: 36,2307           05114        MP11OUT            TC       1LMP+DT
000360: 36,2310           00047                           DEC      39         B-14                       #  INITIATE ABORT STAGE COMMAND RESET
000361: 36,2311           00144        1SEC11             DEC      100        B-14                       #  DELAY 1 SEC
000362:
000363: 36,2312           05114                           TC       1LMP+DT
000364: 36,2313           00267                           DEC      183        B-14                       #  LANDING RADAR POWER OFF
000365: 36,2314           01440                           DEC      800        B-14                       #  DELAY 8 SECS
000366:
000367: 36,2315           05106                           TC       2LMP+DT
000368: 36,2316           00365                           DEC      245        B-14                       #  DPS PQGS U AND 2 OFF
000369: 36,2317           00325                           DEC      213        B-14
000370: 36,2320           00144                           DEC      100        B-14                       #  DELAY 1 SEC
000371:
000372: 36,2321           05106                           TC       2LMP+DT
000373: 36,2322           00345                           DEC      229        B-14                       #  DPS PQGS ARM 1 AND 2 DISABLE
000374: 36,2323           00305                           DEC      197        B-14
000375: 36,2324           03554                           DEC      1900       B-14                       #  DELAY 19 SECS TO KILL AVEG
000376:
000377: 36,2325           06036                           TC       FLAG1DWN                              #  KILL AVERAGE G
000378: 36,2326           00001                           OCT      1
000379:


000381: 36,2327           05307                           TC       IBNKCALL
000382: 36,2330           34012                           CADR     SETMAXDB
000383:
000384: 36,2331           05141                           TC       MPENTRY                               #  SETUP MISSION PHASE SCHEDULING
000385: 36,2332           00002                           DEC      2          B-14                       #  TIMER -2-
000386: 36,2333           00015                           DEC      13         B-14                       #  MISSION PHASE -13-
000387: 36,2334           01753                           ADRES    MP11TO13
000388: 36,2335           05745                           TC       TASKOVER                              #  MISSION PHASE 11 COMPLETE
000389:


000391:                                                                                                  #  ????????????????????????????????
000392:                                                                                                  #  NUMERICAL AND ADDRESS CONSTANTS
000393:                                                                                                  #  ????????????????????????????????
000394:
000395:
000396:
000397:                                                                                                  #                                          ** TIME CONSTANTS **
000398:
000399: 36,2336           32274        135SECS            DEC      13500      B-14
000400: 36,2337           04312        22.5SECS           DEC      2250       B-14
000401: 36,2340           04766        25.5SECS           DEC      2550       B-14
000402: 36,2341           04230        22SECS11           DEC      2200       B-14
000403:
000404:
000405:
000406:                                                                                                  #                                          ** THRUST LEVEL CONSTANTS **
000407:
000408: 36,2342           06315        20PCTHR            DEC      .2
000409: 36,2343           14632                           DEC      .4
000410: 36,2344           11463                           DEC      .3
000411: 36,2345           20000                           DEC      .5
000412: 36,2346           03146                           DEC      .1
000413: 36,2347     7735               925PCTHR           =        POSMAX                                #  FOR MAXIMUM PERMITTED THRUST (92.5%)
000414:
000415:
000416:
000417:                                                                                                  #                                          ** ADDRESS CONSTANTS **
000418:
000419: 36,2347           02233        AVEG11AD           GENADR   AVERAGEG
000420: 36,2350  E4,1566                                  EBANK=   TDEC
000421: 36,2350           02041 44004  BURNADR            2CADR    BURN
000422:
000423:
000424: 36,2352  E4,1566                                  EBANK=   TDEC
000425: 36,2352           02000 44004  DPS2ADR            2CADR    PREBURN
000426:
000427: 36,2354  E5,1557                                  EBANK=   ETHROT                                #  EBANK 5
000428: 36,2354           03367 60065  PCNTFAD            2CADR    PCNTFMAX
000429:
000430: 36,2356  E4,1566                                  EBANK=   TDEC
000431: 36,2356           02301 74064  MP11TMAD           2CADR    MP11TERM
000432:
000433: 36,2360  E4,1566                                  EBANK=   TDEC
000434: 36,2360           02301 16004  MDAVADR            2CADR    RVUPDATE
000435:
000436: 36,2362  E5,1511                                  EBANK=   DVCNTR
000437: 36,2362           02312 60065  ADROFSER           2CADR    SERVEXIT
000438:


000440:                                                                                                  #  ????????????????????????????????
000441:                                                                                                  #  TASKS CALLED ELSEWHERE IN MP11
000442:                                                                                                  #  ????????????????????????????????
000443:
000444:
000445:
000446: 36,2364           37755        PREAVEG            CAF      BIT1                                  #  SET UP PREREAD FOR RIGHT NOW
000447: 36,2365           05701                           TC       WAITLIST
000448: 36,2366  E5,1506                                  EBANK=   DVTOTAL
000449: 36,2366           02000 60065                     2CADR    PREREAD
000450:
000451: 36,2370           32347                           CAF      AVEG11AD                              #  GENADR OF AVERAGE G
000452: 36,2371           55322                           TS       DVSELECT
000453:
000454: 36,2372           00006                           EXTEND                                         #  SET SRVICER EXIT
000455: 36,2373           32363                           DCA      ADROFSER
000456: 36,2374           53073                           DXCH     AVGEXIT
000457:
000458: 36,2375           00006                           EXTEND                                         #  SET MP RETURN FOR ENGINE SHUT DOWN
000459: 36,2376           32357                           DCA      MP11TMAD
000460: 36,2377           53075                           DXCH     DVMNEXIT
000461:
000462: 36,2400           05745                           TC       TASKOVER
000463:
000464:
000465: 36,2401           05114        MP11TASK           TC       1LMP+DT
000466: 36,2402           00354                           DEC      236        B-14                       #  DFI T/M CALIBRATION -ON
000467: 36,2403           02260                           DEC      1200       B-14                       #  DELAY 12 SECS
000468:
000469: 36,2404           05106                           TC       2LMP+DT
000470: 36,2405           00355                           DEC      237        B-14                       #  DFI T/M CALIBRATE -OFF
000471: 36,2406           00306                           DEC      198        B-14                       #  C+W ALARM RESET -COMMAND
000472: 36,2407           00310        2SECS11            DEC      200        B-14                       #  DELAY 2 SECS
000473:
000474: 36,2410           05114                           TC       1LMP+DT
000475: 36,2411           00307                           DEC      199        B-14                       #  C+W ALARM RESET-COMMAND RESET
000476: 36,2412           00144                           DEC      100        B-14                       #  DELAY 1 SEC
000477:
000478: 36,2413           05106                           TC       2LMP+DT
000479: 36,2414           00266                           DEC      182        B-14                       #  LR POWER -ON
000480: 36,2415           00032                           DEC      26         B-14                       #  RADAR SELFTEST -ON
000481: 36,2416           13560                           DEC      6000       B-14                       #  DELAY 60 SECS.
000482:
000483: 36,2417           05073                           TC       1LMP
000484: 36,2420           00033                           DEC      27         B-14                       #  RADAR SELFTEST-OFF
000485:
000486: 36,2421           05745                           TC       TASKOVER
000487:


000489:
000490: 36,2422           05114        ASWTVLON           TC       1LMP+DT
000491: 36,2423           00336                           DEC      222        B-14                       #  ASCENT WATER COOLANT VALVE - OPEN
000492: 36,2424           00310                           DEC      200        B-14                       #  DELAY 2.0 SEC.
000493:
000494: 36,2425           05073                           TC       1LMP
000495: 36,2426           00337                           DEC      223        B-14                       #  ASCENT WATER COOLANT VALVE - OPEN RESET
000496:
000497: 36,2427           05745                           TC       TASKOVER

End of include-file MISSION_PHASE_11_-_DPS2_FITH_APS1.agc.  Parent file is MAIN.agc


