
Source Code


000002:                                                                                                  ## Copyright:   Public domain.
000003:                                                                                                  ## Filename:    MISSION_PHASE_13_-_APS2.agc
000004:                                                                                                  ## Purpose:     A section of Sunburst revision 37, or Shepatin revision 0.
000005:                                                                                                  ##              It is part of an early development version of the software
000006:                                                                                                  ##              for Apollo Guidance Computer (AGC) on the unmanned Lunar
000007:                                                                                                  ##              Module (LM) flight Apollo 5. Sunburst 37 was the program
000008:                                                                                                  ##              upon which Don Eyles's offline development program Shepatin
000009:                                                                                                  ##              was based; the listing herein transcribed was actually for
000010:                                                                                                  ##              the equivalent revision 0 of Shepatin.
000011:                                                                                                  ##              This file is intended to be a faithful transcription, except
000012:                                                                                                  ##              that the code format has been changed to conform to the
000013:                                                                                                  ##              requirements of the yaYUL assembler rather than the
000014:                                                                                                  ##              original YUL assembler.
000015:                                                                                                  ## Reference:   pp. 704-710
000016:                                                                                                  ## Assembler:   yaYUL
000017:                                                                                                  ## Contact:     Ron Burkey <info@sandroid.org>.
000018:                                                                                                  ## Website:     www.ibiblio.org/apollo/index.html
000019:                                                                                                  ## Mod history: 2017-05-24 MAS  Created from Sunburst 120.
000020:                                                                                                  ##              2017-06-14 HG   Transcribed
000021:


000023:                                                                                                  #  MISSION PHASE 13 EXERCISES THE ASCENT GUIDANCE EQUATIONS OF PROG 46
000024:                                                                                                  #  THE PREREAD TASK IS SET TO OCCUR IN 140 SECS AT TIG-30 AND AVETOMID DONE
000025:                                                                                                  #  THE PRE-APS2 PROG 34 IS EXECUTED AND KALCMANU JOB IS STARTED
000026:                                                                                                  #  THE ENGINEON TASK IS STARTED AT TIG-30 AND IGN IS AT 170 SECS AFTER
000027:                                                                                                  #  START OF MP13
000028:                                                                                                  #  THE ASCENT GUIDANCE EQUATIONS START BETWEEN TIG+1 AND +2 SECS
000029:                                                                                                  #  THE ASC FEED TEST STARTS AT TIG+9 AND TERMINATES 365 SECS LATER
000030:
000031: 27,3071                                           BANK     27
000032: 27,3071  E4,1400                                  EBANK=   AMEMORY
000033:
000034: 27,3071           00006        MP13JOB            EXTEND
000035: 27,3072           30025                           DCA      TIME2                                 #  PICK UP CURRENT TIME
000036: 27,3073           53567                           DXCH     TDEC
000037: 27,3074           04105                           TC       NEWMODEX                              #  SET MODE
000038: 27,3075           00034                           OCT      34
000039:
000040: 27,3076           22007                           ZL                                             #  SET TDEC TO TIME AT TIG-30
000041: 27,3077           33253                           CAF      140SECS                               #  TIME TO TIGN-30
000042: 27,3100           56001                           XCH      L
000043: 27,3101           21567                           DAS      TDEC                                  #  TDEC =TIGN-30 FOR MIDTOAVE
000044:
000045: 27,3102           33253                           CAF      140SECS
000046: 27,3103           00004                           INHINT
000047: 27,3104           05701                           TC       WAITLIST                              #  SET TASK FOR TIGN-30
000048: 27,3105  E4,1566                                  EBANK=   TDEC
000049:
000050: 27,3105           03142 56004                     2CADR    TIG13-30
000051:
000052: 27,3107           00003                           RELINT
000053:
000054: 27,3110           00006                           EXTEND
000055: 27,3111           32454                           DCA      MIDAVEAD                              #  DO MIDTOAVE COMPUTATION
000056: 27,3112           52006                           DXCH     Z
000057:
000058: 27,3113           00006                           EXTEND
000059: 27,3114           33260                           DCA      PREAP2AD                              #  DO PRE-APS2 TO GET DESIRED ATTITUDE
000060: 27,3115           52006                           DXCH     Z                                     #  STORES VECTORS POINTVSM AND SCAXIS
000061:
000062: 27,3116           06103                           TC       INTPRET
000063: 27,3117           43131                           SSP      SET
000064: 27,3120           01653                                    RATEINDX                              #  SET KALCMANU FOR ANGULAR RATE OF 5DEG/S
000065: 27,3121           00004                                    4
000066: 27,3122           01063                                    33D
000067: 27,3123           77776                           EXIT
000068:
000069: 27,3124           35226                           CAF      PRIO30                                #  SET UP ATTITUDE MANEUVER JOB.
000070: 27,3125           00004                           INHINT
000071: 27,3126           05534                           TC       FINDVAC
000072: 27,3127  E3,1535                                  EBANK=   MIS
000073: 27,3127           02001 70063                     2CADR    VECPOINT
000074:


000076: 27,3131           37755                           CAF      BIT1
000077: 27,3132           00004                           INHINT
000078: 27,3133           05701                           TC       WAITLIST                              #  SET UP DFI T/M CALIBRATE TASK
000079: 27,3134  E4,1566                                  EBANK=   TDEC
000080: 27,3134           03274 56004                     2CADR    DFICAL                                #  DFICAL REQUIRES 14 SECS AND ENDS ITSELF
000081:
000082: 27,3136           05224                           TC       BANKCALL                              #  PUT MP13 TO SLEEP-KALCMANU WILL WAKE
000083: 27,3137           26754                           CADR     ATTSTALL
000084: 27,3140           04732                           TC       CURTAINS                              #  BAD END RETURN FROM KALCMANU
000085:
000086: 27,3141           05605                           TC       ENDOFJOB                              #  WAIT FOR TIG-30 TASK TO INTERUPT
000087:
000088: 27,3142           37755        TIG13-30           CAF      BIT1                                  #  SET PREREAD FOR NOW
000089: 27,3143           05701                           TC       WAITLIST
000090: 27,3144  E5,1506                                  EBANK=   DVTOTAL
000091: 27,3144           02000 60065                     2CADR    PREREAD
000092:
000093: 27,3146           37743                           CAF      BIT11                                 #  SEE IF ATTITUDE MANEUVER DONE
000094: 27,3147           70076                           MASK     FLAGWRD2
000095: 27,3150           10000                           CCS      A
000096: 27,3151           13267                           TCF      CURTJOB                               #  NO-SET UP CURTAINS JOB
000097:
000098: 27,3152           04105                           TC       NEWMODEX
000099: 27,3153           00046                           OCT      46                                    #  SET MODE TO PROG46
000100:
000101: 27,3154           33256                           CAF      AVEG13AD                              #  GENADR OF AVEG IN DVSELECT
000102: 27,3155           55322                           TS       DVSELECT
000103:
000104: 27,3156           00006                           EXTEND
000105: 27,3157           33266                           DCA      SVEX13AD                              #  2CADR SERVEXIT IN AVEGEXIT
000106: 27,3160           53073                           DXCH     AVGEXIT
000107:
000108: 27,3161           00006                           EXTEND
000109: 27,3162           33262                           DCA      MP13TMAD
000110: 27,3163           53075                           DXCH     DVMNEXIT                              #  SET MP RETURN FOR ENGINE SHUT DOWN
000111:
000112: 27,3164           06074                           TC       ENGINOF1                              #  JUST TO ENSURE ENGINE OFF
000113:
000114: 27,3165           05114                           TC       1LMP+DT
000115: 27,3166           00206                           DEC      134        B-14                       #  ENGINE SELECT-APS ARM
000116: 27,3167           03326                           DEC      1750       B-14                       #  DELAY 17.5 SECS
000117:
000118: 27,3170           05307                           TC       IBNKCALL
000119: 27,3171           34024                           CADR     ULLAGE                                #  COMMAND 4 JET ULLAGE-ON
000120:
000121: 27,3172           05717                           TC       FIXDELAY
000122: 27,3173           02342                           DEC      1250       B-14                       #  DELAY 12.5 SECS TO IGNITION
000123:
000124: 27,3174           06054        TIG13              TC       ENGINEON                              #  FIRE UP APS ENGINE
000125:


000127: 27,3175           05717                           TC       FIXDELAY
000128: 27,3176           00062                           DEC      50         B-14                       #  DELAY .5 SECS
000129:
000130: 27,3177           05307                           TC       IBNKCALL
000131: 27,3200           34030                           CADR     NOULLAGE                              #  ULLAGE JETS OFF AT TIG + .5
000132:
000133: 27,3201           05717                           TC       FIXDELAY
000134: 27,3202           00062                           DEC      50         B-14                       #  DELAY .5 SECS AND START ASCENT GUIDANCE
000135: 27,3203           00006                           EXTEND
000136: 27,3204           33264                           DCA      ATMAGAD
000137: 27,3205           53073                           DXCH     AVGEXIT                               #  SET AVEG LOOP TO THRUST MAGNITUDE FILTER
000138:
000139: 27,3206           05717                           TC       FIXDELAY
000140: 27,3207           01440                           DEC      800        B-14                       #  START 8 SECS AND DO FEED TEST
000141: 27,3210           03306                           TC       FEEDTEST                              #  START FEED TEST ROUTINE
000142:
000143: 27,3211           00006                           EXTEND
000144: 27,3212           33255                           DCA      342SECS
000145: 27,3213           05757                           TC       LONGCALL
000146: 27,3214  E4,1566                                  EBANK=   TDEC
000147: 27,3214           03217 56004                     2CADR    MP13+544
000148:
000149: 27,3216           05745                           TC       TASKOVER
000150:
000151: 27,3217           03343        MP13+544           TC       FEEDREST                              #  DO FEED TEST RESET ROUTINE
000152:
000153: 27,3220           05745                           TC       TASKOVER                              #  WAIT FOR GUIDANCE TO DO ENGINE OFF
000154:
000155: 27,3221           37755        MP13TERM           CAF      BIT1                                  #  SET MP13 TERMINAL TASKS
000156: 27,3222           00004                           INHINT
000157: 27,3223           05701                           TC       WAITLIST
000158: 27,3224  E4,1566                                  EBANK=   TDEC
000159: 27,3224           03227 56004                     2CADR    MP13OUT
000160:
000161: 27,3226           05605                           TC       ENDOFJOB                              #  KILL JOB SET BY DVMON
000162:
000163: 27,3227           00006        MP13OUT            EXTEND                                         #  APS ENGINE OFF-TERMINATE MP13
000164: 27,3230           32456                           DCA      SVEXITAD                              #  REMOVE ASCENT PROG FROM SERVICER
000165: 27,3231           53073                           DXCH     AVGEXIT
000166:
000167: 27,3232           05307                           TC       IBNKCALL                              #  DEADBAND SELECT-MAX
000168: 27,3233           34012                           CADR     SETMAXDB
000169:
000170: 27,3234           05307                           TC       IBNKCALL                              #  SET ATTITUDE HOLD
000171: 27,3235           34057                           CADR     STOPRATE
000172:
000173: 27,3236           03343                           TC       FEEDREST                              #  DO THIS IN CASE OF EARLY ENG SHUT DOWN
000174:
000175: 27,3237           05717                           TC       FIXDELAY
000176: 27,3240           00144                           DEC      100        B-14                       #  DELAY 1 SEC
000177:


000179: 27,3241           05073                           TC       1LMP
000180: 27,3242           00207                           DEC      135        B-14                       #  APS ARM OFF
000181:
000182: 27,3243           05717                           TC       FIXDELAY
000183: 27,3244           05524                           DEC      2900       B-14                       #  DELAY 29 SECS TO KILL AVEG
000184:
000185: 27,3245           06036                           TC       FLAG1DWN                              #  KILL AVE G
000186: 27,3246           00001                           OCT      1
000187:
000188: 27,3247           05745                           TC       TASKOVER                              #  MISSION PHASE 13 COMPLETE
000189:
000190: 27,3250           00144        1SEC13             DEC      100        B-14
000191: 27,3251           00310        2SECS13            DEC      200        B-14
000192: 27,3252           02260        12SECS13           DEC      1200       B-14
000193: 27,3253           33260        140SECS            DEC      14000      B-14
000194: 27,3254           00002 02630  342SECS            2DEC     34200      B-28                       #  342 SECONDS
000195:
000196: 27,3256           02233        AVEG13AD           GENADR   AVERAGEG
000197: 27,3257  E4,1566                                  EBANK=   TDEC
000198: 27,3257           02000 64064  PREAP2AD           2CADR    PREAPS2
000199:
000200: 27,3261  E4,1566                                  EBANK=   TDEC
000201: 27,3261           03221 56004  MP13TMAD           2CADR    MP13TERM
000202:
000203: 27,3263  E4,1566                                  EBANK=   TDEC
000204: 27,3263           02713 64064  ATMAGAD            2CADR    ATMAG
000205:
000206: 27,3265  E5,1506                                  EBANK=   DVTOTAL
000207: 27,3265           02312 60065  SVEX13AD           2CADR    SERVEXIT
000208:


000210: 27,3267           35676        CURTJOB            CAF      PRIO37                                #  SET UP JOB TO GO TO CURTAINS
000211: 27,3270           05523                           TC       NOVAC
000212: 27,3271     1361                                  EBANK=   SFAIL
000213: 27,3271           04732 04002                     2CADR    CURTAINS
000214:
000215: 27,3273           05745                           TC       TASKOVER
000216:
000217: 27,3274           05114        DFICAL             TC       1LMP+DT                               #  LMP COMMAND
000218: 27,3275           00354                           DEC      236        B-14                       #  DFI T/M CALIBRATE - ON
000219: 27,3276           02260                           DEC      1200       B-14                       #  DELAY 12 SECS
000220:
000221: 27,3277           05106                           TC       2LMP+DT                               #  LMP COMMANDS
000222: 27,3300           00355                           DEC      237        B-14                       #  DFI T/M CALIBRATE - OFF
000223: 27,3301           00306                           DEC      198        B-14                       #  MASTER C+W ALARM RESET - COMMAND
000224: 27,3302           00310                           DEC      200        B-14                       #  DELAY 2.0 SECONDS
000225:
000226: 27,3303           05073                           TC       1LMP                                  #  LMP COMMAND
000227: 27,3304           00307                           DEC      199        B-14                       #  MASTER C+W ALARM RESET - COMMAND RESET
000228: 27,3305           05745                           TC       TASKOVER                              #  TERMINATE DFI CALIBRATE TASK
000229:


000231: 27,3306           00006        FEEDTEST           EXTEND
000232: 27,3307           23662                           QXCH     MPRETRN
000233: 27,3310           06027                           TC       FLAG2UP                               #  SET ASC FEED TEST FLAG
000234: 27,3311           00200                           OCT      200
000235:
000236: 27,3312           05114                           TC       1LMP+DT                               #  TIME T
000237: 27,3313           00176                           DEC      126        B-14                       #  RCS ASCENT FEED VALVE - ARM
000238: 27,3314           00144                           DEC      100        B-14                       #  DELAY 1 SEC
000239:
000240: 27,3315           05106                           TC       2LMP+DT                               #  T+1
000241: 27,3316           00074                           DEC      60         B-14                       #  RCS ASCENT FEED VALVES8 SYS A-OPEN
000242: 27,3317           00254                           DEC      172        B-14                       #  RCS MAIN S/O VALVES SYS A-CLOSE
000243: 27,3320           00310                           DEC      200        B-14                       #  DELAY FOR 2 SECS
000244:
000245: 27,3321           05106                           TC       2LMP+DT                               #  T+3
000246: 27,3322           00075                           DEC      61         B-14                       #  RCS ASCENT FEED VALVES SYS A-OPEN RESET
000247: 27,3323           00255                           DEC      173        B-14                       #  RCS MAIN S/O VALVES SYS A-CLOSE RESET
000248: 27,3324           01440                           DEC      800        B-14                       #  DELAY FOR 8 SECS
000249:
000250: 27,3325           05106                           TC       2LMP+DT                               #  T+11
000251: 27,3326           00076                           DEC      62         B-14                       #  RCS ASCENT FEED VALVES SYS B-OPEN
000252: 27,3327           00256                           DEC      174        B-14                       #  RCS MAIN S/O VALVES SYS B -CLOSE
000253: 27,3330           00310                           DEC      200        B-14                       #  DELAY FOR 2 SECS
000254:
000255: 27,3331           05106                           TC       2LMP+DT                               #  T+13
000256: 27,3332           00077                           DEC      63         B-14                       #  RCS ASCENT FEED VALVES SYS B-OPEN RESET
000257: 27,3333           00257                           DEC      175        B-14                       #  RCS MAIN S/O VALVES SYS B-CLOSE RESET
000258: 27,3334           01440                           DEC      800        B-14                       #  DELAY 8 SECS
000259:
000260: 27,3335           05114                           TC       1LMP+DT                               #  T+21
000261: 27,3336           00374                           DEC      252        B-14                       #  RCS MANIFOLD CROSSFEED VALVES-OPEN
000262: 27,3337           00310                           DEC      200        B-14                       #  DELAY FOR 2 SECS
000263:
000264: 27,3340           05073                           TC       1LMP                                  #  T+23
000265: 27,3341           00375                           DEC      253        B-14                       #  RCS MANIFOLD CROSSFEED VALVES-OPEN RESET
000266:
000267: 27,3342           01662                           TC       MPRETRN
000268:


000270: 27,3343           40076        FEEDREST           CS       FLAGWRD2                              #  CHECK FEED TEST FLAG
000271: 27,3344           77746                           MASK     BIT8
000272: 27,3345           10000                           CCS      A
000273: 27,3346           00002                           TC       Q                                     #  FLAG DOWN-NO RESET
000274:
000275: 27,3347           00006                           EXTEND                                         #  FLAG UP - DO FEED TEST RESET
000276: 27,3350           23662                           QXCH     MPRETRN
000277:
000278: 27,3351           06045                           TC       FLAG2DWN                              #  FEED TEST FLAG DOWN
000279: 27,3352           00200                           OCT      200
000280:
000281: 27,3353           05114                           TC       1LMP+DT                               #  TIME T
000282: 27,3354           00376                           DEC      254        B-14                       #  RCS MANIFOLD CROSSFEED VALVES -CLOSE
000283: 27,3355           00144                           DEC      100        B-14                       #  DELAY 1 SEC
000284:
000285: 27,3356           05106                           TC       2LMP+DT                               #  T+1
000286: 27,3357           00274                           DEC      188        B-14                       #  RCS MAIN S/O VALVES SYS A-OPEN
000287: 27,3360           00114                           DEC      76         B-14                       #  RCS ASCENT FEED VALVES SYS A-CLOSE
000288: 27,3361           00144                           DEC      100        B-14                       #  DELAY 1 SECS
000289:
000290: 27,3362           05114                           TC       1LMP+DT                               #  T+2
000291: 27,3363           00377                           DEC      255        B-14                       #  RCS MANIFOLD CROSSFEED VALVES-CLOSE RESE
000292: 27,3364           00144                           DEC      100        B-14                       #  DELAY 1 SEC
000293:
000294: 27,3365           05106                           TC       2LMP+DT                               #  T+3
000295: 27,3366           00275                           DEC      189        B-14                       #  RCS MAIN S/O VALVES SYS A-OPEN RESET
000296: 27,3367           00115                           DEC      77         B-14                       #  RCS ASCENT FEED VALVES SYS A-CLOSE RESET
000297: 27,3370           01440                           DEC      800        B-14                       #  DELAY 8 SECS
000298:
000299: 27,3371           05106                           TC       2LMP+DT                               #  T+11
000300: 27,3372           00276                           DEC      190        B-14                       #  RCS MAIN S/O VALVES SYS B-OPEN
000301: 27,3373           00116                           DEC      78         B-14                       #  RCS ASCENT FEED VALVES SYS B-CLOSE
000302: 27,3374           00144                           DEC      100        B-14                       #  DELAY 1 SEC
000303:
000304: 27,3375           05114                           TC       1LMP+DT                               #  T+12
000305: 27,3376           00177                           DEC      127        B-14                       #  RCS ASCENT FEED VALVE-SAFE
000306: 27,3377           00144                           DEC      100        B-14                       #  DELAY 1 SEC
000307:
000308: 27,3400           05065                           TC       2LMP                                  #  T+13
000309: 27,3401           00277                           DEC      191        B-14                       #  RCS MAIN S/O VALVES SYS B-OPEN RESET
000310: 27,3402           00117                           DEC      79         B-14                       #  RCS ASCENT FEED VALVES SYS B-CLOSE RESET
000311:
000312: 27,3403           01662                           TC       MPRETRN                               #  RETURN TO MISSION PROGRAM
000313:

End of include-file MISSION_PHASE_13_-_APS2.agc.  Parent file is MAIN.agc


