
Source Code


000002:                                                                                                  ## Copyright:   Public domain.
000003:                                                                                                  ## Filename:    MISSION_PHASE_11_-_DPS2_FITH_APS1.agc
000004:                                                                                                  ## Purpose:     A section of Sunburst revision 37, or Shepatin revision 0.
000005:                                                                                                  ##              It is part of an early development version of the software
000006:                                                                                                  ##              for Apollo Guidance Computer (AGC) on the unmanned Lunar
000007:                                                                                                  ##              Module (LM) flight Apollo 5. Sunburst 37 was the program
000008:                                                                                                  ##              upon which Don Eyles's offline development program Shepatin
000009:                                                                                                  ##              was based; the listing herein transcribed was actually for
000010:                                                                                                  ##              the equivalent revision 0 of Shepatin.
000011:                                                                                                  ##              This file is intended to be a faithful transcription, except
000012:                                                                                                  ##              that the code format has been changed to conform to the
000013:                                                                                                  ##              requirements of the yaYUL assembler rather than the
000014:                                                                                                  ##              original YUL assembler.
000015:                                                                                                  ## Reference:   pp. 693-703
000016:                                                                                                  ## Assembler:   yaYUL
000017:                                                                                                  ## Contact:     Ron Burkey <info@sandroid.org>.
000018:                                                                                                  ## Website:     www.ibiblio.org/apollo/index.html
000019:                                                                                                  ## Mod history: 2017-05-24 MAS  Created from Sunburst 120.
000020:                                                                                                  ##              2017-06-06 HG   Transcribed
000021:                                                                                                  ##              2017-06-15 HG   Fix operator TCF -> TC
000022:                                                                                                  ##                                  operand  IBNKCALL -> BANKCALL
000023:                                                                                                  ##              2017-06-23 RSB  Proofed comment text with
000024:                                                                                                  ##                              octopus/ProoferComments.
000025:


000027: 36,2000                                           BANK     36
000028: 36,2000  E4,1566                                  EBANK=   TDEC
000029: 36,2000  E4,1662               EMP11JOB           EQUALS   MPRETRN
000030:                                                                                                  #  MISSION PHASE 11 DOES PROG32-PREDPS2, PROG42-DPS2 BURN BRAKING GUIDANCE,
000031:                                                                                                  #  PROG43-APPROACH GUIDANCE, PROG43-RANDOM THROTTLE PROGRAM AND PROG74-THE
000032:                                                                                                  #  FIRE-IN-THE-HOLE AND APS1 BURN
000033:
000034:                                                                                                  #  THE APPROXIMATE STARTING TIME OF THESE PROG IS SHOWN BELOW
000035:
000036:                                                                                                  #  T       PROG32
000037:                                                                                                  #  T+187   DPS2 IGNITION (TIG11)
000038:                                                                                                  #  TIG+26  PROG42
000039:                                                                                                  #  TIG+705 PROG44
000040:                                                                                                  #  TIG+757 PROG74
000041:                                                                                                  #  TIG+792 MISSION TERMINATED
000042:
000043:
000044:
000045: 36,2000           00006        MP11JOB            EXTEND
000046: 36,2001           30025                           DCA      TIME2
000047: 36,2002           53567                           DXCH     TDEC
000048: 36,2003           04105                           TC       NEWMODEX                              #  SET DISPLAY
000049: 36,2004           00032                           OCT      32
000050:
000051: 36,2005           32311                           CAF      1SEC11                                #  SETUP MP11 TASK-REQUIRES 75 SECS AND
000052: 36,2006           00004                           INHINT                                         #  TERMINATES ITSELF
000053: 36,2007           05701                           TC       WAITLIST
000054: 36,2010  E4,1566                                  EBANK=   TDEC
000055: 36,2010           02401 74064                     2CADR    MP11TASK
000056:
000057: 36,2012           00003                           RELINT
000058:
000059: 36,2013           32336                           CAF      135SECS                               #  SET TDEC =TIG-50
000060: 36,2014           54001                           TS       L
000061: 36,2015           37761                           CAF      ZERO
000062: 36,2016           21567                           DAS      TDEC
000063:
000064: 36,2017           00006                           EXTEND                                         #  SET RETURN FROM MIDTOAVE TO INTRTN
000065: 36,2020           32361                           DCA      MDAVADR
000066: 36,2021           52006                           DXCH     Z                                     #  DO MIDTOAVE VIA RVUPDATE
000067:
000068: 36,2022           00006        INTRTN             EXTEND
000069: 36,2023           32353                           DCA      DPS2ADR                               #  INTEGRATION DONE-DO PRE-DPS2
000070: 36,2024           52006                           DXCH     Z                                     #  STATE AT RIGNTION-TIME AT TET FOR PREDPS
000071:
000072:                                                                                                  #   PRE-DPS2 RETURN TO RETPREB WITH ULLAGE-ON TIME AT TULLG, (TIG-7.5).
000073:                                                                                                  #  THE DESIRED 1/2 UNIT THRUST VECTOR AT POINTVSM.
000074:                                                                                                  #   STATE VECTOR IN SM COORDINATES STORED AT RN, VN WITH CORRESPONDING
000075:                                                                                                  #   TIME AT PIPTIME WHERE (TULLG - PIPTIME)IS BETWEEN
000076:                                                                                                  #   3.8 AND 6 SECS.
000077:


000079:
000080: 36,2025           00004        RETPREB            INHINT
000081: 36,2026           00006                           EXTEND
000082: 36,2027           31457                           DCA      TULLG                                 #  C(TULLG)=TIG-7.5
000083: 36,2030           52145                           DXCH     MPAC
000084: 36,2031           42337                           CS       22.5SECS
000085: 36,2032           54001                           TS       L
000086: 36,2033           37761                           CAF      ZERO
000087: 36,2034           54146                           TS       MPAC       +2
000088: 36,2035           20145                           DAS      MPAC                                  #  C(MPAC)=TIG-30
000089: 36,2036           00006                           EXTEND
000090: 36,2037           40025                           DCS      TIME2                                 #  GET CURRENT TIME
000091: 36,2040           20145                           DAS      MPAC                                  #  C(MPAC)=DELTA(TIG-30)
000092: 36,2041           07320                           TC       TPAGREE                               #  MAKE SIGNS AGREE
000093: 36,2042           52145                           DXCH     MPAC
000094:
000095: 36,2043           05757                           TC       LONGCALL
000096: 36,2044  E4,1566                                  EBANK=   TDEC
000097: 36,2044           02102 74064                     2CADR    TIG11-30
000098:
000099: 36,2046           00003                           RELINT
000100:
000101: 36,2047           06103                           TC       INTPRET
000102: 36,2050           77775                           VLOAD
000103: 36,2051           01011                                    RN                                    #  STATE STORED IN RAVEGON AND VAVEGON FOR
000104: 36,2052           26115                           STOVL    RAVEGON                               #  AVERAGE G INITIALIZATION AT PIPTIME
000105: 36,2053           01017                                    VN
000106: 36,2054           16123                           STODL    VAVEGON
000107: 36,2055           35451                                    D1/2                                  #  JAM .5,0,0 IN SCAXIS FOR KALCMANU
000108: 36,2056           15664                           STODL    SCAXIS
000109: 36,2057           35076                                    DZERO
000110: 36,2060           01666                           STORE    SCAXIS     +2
000111: 36,2061           15670                           STODL    SCAXIS     +4
000112: 36,2062           01321                                    PIPTIME                               #  THIS TIME CONSISTANT WITH STATE-RAVEGON
000113: 36,2063           02264                           STORE    DT11TEMP                              #  USED AFTER KALCMANU TO CALL PREREAD
000114: 36,2064           43131                           SSP      SET
000115: 36,2065           01653                                    RATEINDX                              #  SET KALCMANU FOR ANGULAR RATE OF 5 DEG/S
000116: 36,2066           00004                                    4
000117: 36,2067           01063                                    33D
000118:
000119: 36,2070           77776                           EXIT
000120:
000121: 36,2071           35226                           CAF      PRIO30                                #  DO ATTITUDE MANEUVER JOB
000122: 36,2072           00004                           INHINT
000123: 36,2073           05534                           TC       FINDVAC
000124: 36,2074  E3,1535                                  EBANK=   MIS
000125: 36,2074           02001 70063                     2CADR    VECPOINT
000126:
000127: 36,2076           05224                           TC       BANKCALL
000128: 36,2077           26754                           CADR     ATTSTALL                              #  PUT MP11 TO SLEEP - KALCMANU WILL WAKE
000129:
000130: 36,2100           04732                           TC       CURTAINS                              #  KALCMANU HAS GIMBALOC PROBLEMS-CURTAINS
000131: 36,2101           05605                           TC       ENDOFJOB                              #  WAIT FOR TIG-30
000132:


000134:
000135: 36,2102           37743        TIG11-30           CAF      BIT11                                 #  SEE IF ATTITUDE MANEUVER DONE
000136: 36,2103           70076                           MASK     FLAGWRD2
000137: 36,2104           10000                           CCS      A
000138: 36,2105           02277                           TC       DOCURTN                               #  KALCMANU NOT-DO CURTJOB
000139: 36,2106           04105                           TC       NEWMODEX                              #  SET MODE TO PROG42
000140: 36,2107           00042                           OCT      42
000141:
000142: 36,2110           00006                           EXTEND
000143: 36,2111           40025                           DCS      TIME2                                 #  GET PIPTIME-TIME2
000144: 36,2112           21664                           DAS      DT11TEMP
000145: 36,2113           11664                           CCS      DT11TEMP   +1
000146: 36,2114           67755                           AD       ONE                                   #  MAKE SURE OF POSITIVE WAITLIST CALL
000147: 36,2115           12120                           TCF      +3
000148: 36,2116           40000                           COM
000149: 36,2117           67735                           AD       POSMAX
000150: 36,2120           05701                           TC       WAITLIST
000151: 36,2121  E4,1566                                  EBANK=   TDEC
000152: 36,2121           02364 74064                     2CADR    PREAVEG
000153:
000154: 36,2123           06074        DPSTART            TC       ENGINOF1
000155:
000156: 36,2124           05114                           TC       1LMP+DT
000157: 36,2125           00226                           DEC      150        B-14                       #  ARM DESCENT ENGINE
000158: 36,2126           01750                           DEC      1000       B-14                       #  DELAY 10 SECONDS
000159:
000160: 36,2127           37755                           CAF      BIT1                                  #   START UP ABORT STAGE MONITOR
000161: 36,2130           05701                           TC       WAITLIST
000162: 36,2131  E4,1566                                  EBANK=   TDEC
000163: 36,2131           02245 74064                     2CADR    ABMON
000164: 36,2133           05114        TIG11-20           TC       1LMP+DT
000165: 36,2134           00126                           DEC      86         B-14                       #  SET MANUAL THROTTLE TO 10 %
000166: 36,2135           00620                           DEC      400        B-14                       #  DELAY 4 SECONDS
000167:
000168: 36,2136           05106        TIG11-16           TC       2LMP+DT
000169: 36,2137           00344                           DEC      228        B-14                       #  ENABLE DPS PQGS ARM 1
000170: 36,2140           00304                           DEC      196        B-14                       #  ENABLE DPS PQGS ARM 2
000171: 36,2141           00144                           DEC      100        B-14                       #  DELAY 1 SECOND
000172:
000173: 36,2142           05106        TIG11-15           TC       2LMP+DT
000174: 36,2143           00364                           DEC      244        B-14                       #  DPS PQGS =1 ON
000175: 36,2144           00324                           DEC      212        B-14                       #  DPS PQGS =2 ON
000176:
000177: 36,2145           01356                           DEC      750        B-14                       #  DELAY 7.5 SECONDS
000178:
000179: 36,2146           05307        TIG-7.5            TC       IBNKCALL
000180: 36,2147           34024                           CADR     ULLAGE                                #  CALL FOR 4 JET ULLAGE
000181:
000182: 36,2150           05717                           TC       FIXDELAY
000183: 36,2151           01356                           DEC      750        B-14                       #  DELAY 7.5 SECONDS, UNTIL ENGINEON
000184:


000186:
000187: 36,2152           06054        TIG11              TC       ENGINEON
000188: 36,2153           05717                           TC       FIXDELAY
000189:
000190: 36,2154           00062                           DEC      50         B-14                       #  DELAY HALF A SECOND
000191:
000192: 36,2155           05307                           TC       IBNKCALL
000193: 36,2156           34030                           CADR     NOULLAGE
000194:
000195: 36,2157           05717                           TC       FIXDELAY
000196: 36,2160           04766                           DEC      2550       B-14                       #  WAIT 25.5 SECONDS
000197:
000198: 36,2161           37735        TIG11+26           CAF      POSMAX                                #  HAVE BEEN AT 10% THROTTLE FOR 26 SECONDS
000199: 36,2162           55335                           TS       PCNTF                                 #  NOW CALL FOR MAXIMUM THRUST (92.5%)
000200:
000201: 36,2163           00006                           EXTEND
000202: 36,2164           32355                           DCA      PCNTFAD
000203: 36,2165           52006                           DXCH     Z
000204:
000205: 36,2166           00006                           EXTEND
000206: 36,2167           32351                           DCA      BURNADR                               #  STARTING DPS2 GUIDANCE: TIG +26 SECONDS
000207: 36,2170           53073                           DXCH     AVGEXIT
000208:
000209: 36,2171           05745                           TC       TASKOVER
000210:
000211: 36,2172           00006        RETBURN            EXTEND                                         #  RETURN FROM BURN GUIDANCE
000212: 36,2173           32363                           DCA      ADROFSER                              #  SET SERVICER EXIT TO KILL BURN GUID
000213:
000214: 36,2174           53073                           DXCH     AVGEXIT
000215:
000216: 36,2175           37755                           CAF      BIT1                                  #  SET TASK FOR RANDOM THROTTLE
000217: 36,2176           00004                           INHINT
000218: 36,2177           05701                           TC       WAITLIST                              #  PROGRAM P44
000219: 36,2200  E4,1566                                  EBANK=   TDEC
000220: 36,2200           02203 74064                     2CADR    PROG44
000221:
000222: 36,2202           05605                           TC       ENDOFJOB                              #  READACCS STILL ACTIVE
000223:


000225:
000226:                                                                                                  #  THE DPS2 RANDOM THROTTLE PROG44 STARTS APPROXIMATELY AT TIG+705. THE
000227:                                                                                                  #  EXACT TIME AND THRUST LEVEL SETTING AT THE START OF PROG44 ARE COMPUTED
000228:                                                                                                  #  BY BURN GUIDANCE PROG43.  THE SUBSEQUENT THRUST COMMANDS ARE LISTED.
000229:
000230:                                                                                                  #  T    10 PERCENT THRUST
000231:                                                                                                  #  T+10 50 PERCENT
000232:                                                                                                  #  T+30 30 PERCENT
000233:                                                                                                  #  T+40 20 PERCENT
000234:                                                                                                  #  T+50 92.5 PERCENT FOR 2 SECS THEN FIRE-IN-THE-HOLE
000235:
000236: 36,2203           04105        PROG44             TC       NEWMODEX
000237: 36,2204           00044                           OCT      44                                    #  SET MODE TO RANDOM THROTTLE
000238:
000239: 36,2205           32341                           CAF      22SECS11                              #  DO ASCENT COOLANT VALVE TASK IN 22 SECS
000240: 36,2206           05701                           TC       WAITLIST
000241: 36,2207  E4,1566                                  EBANK=   TDEC
000242: 36,2207           02422 74064                     2CADR    ASWTVLON                              #  COOLANT VALVE CALL
000243:
000244: 36,2211           37753        INDPCT             CAF      FOUR
000245: 36,2212           55662                           TS       MPRETRN                               #  INDEX
000246:
000247: 36,2213           50000                           INDEX    A                                     #  OFFSET POINTER
000248: 36,2214           32342                           CAF      20PCTHR                               #  AMOUNT OF THROTTLE
000249: 36,2215           55335                           TS       PCNTF
000250:
000251: 36,2216           00006                           EXTEND
000252: 36,2217           32355                           DCA      PCNTFAD                               #  GO TO THRUSTING ROUTINE
000253: 36,2220           52006                           DXCH     Z
000254:
000255: 36,2221           05717                           TC       FIXDELAY
000256: 36,2222           01750        10SECS11           DEC      1000       B-14                       #  DELAY 10 SECS
000257:
000258: 36,2223           11662                           CCS      MPRETRN                               #  DECREMENT INDEX
000259: 36,2224           02212                           TC       INDPCT     +1                         #  NO
000260:
000261: 36,2225           37735                           CAF      925PCTHR                              #  TURN ON 92.5 THRUST
000262: 36,2226           55335                           TS       PCNTF
000263: 36,2227           00006                           EXTEND
000264: 36,2230           32355                           DCA      PCNTFAD                               #  GO FOR THRUSTING
000265: 36,2231           52006                           DXCH     Z
000266:
000267: 36,2232           32311                           CAF      1SEC11                                #  THRUST AT MAX FOR 2 SEC, 1 SEC HERE AND
000268: 36,2233           05701                           TC       WAITLIST                              #  1 MORE IN FITHCMD
000269: 36,2234  E4,1566                                  EBANK=   TDEC
000270: 36,2234           02237 74064                     2CADR    FITHCMD
000271:
000272: 36,2236           05745                           TC       TASKOVER
000273:
000274:                                                                                                  #  FITH/APS1 BURN PROGRAM 74
000275:


000277:                                                                                                  #  WITH DETECTION OF THE ABORT STAGE DISCRETE BY THE ABORT STAGE MONITOR
000278:                                                                                                  #  THE FOLLOWING EVENTS OCCUR BY PROGRAM OR ARE PROCESSED AUTOMATICALLY
000279:                                                                                                  #  BY THE LEM SEQUENCER.
000280:
000281:                                                                                                  #   T-1.0 ABORT STAGE ARM (PROGRAMMED)
000282:                                                                                                  #   T     ABORT STAGE COMMAND (PROGRAMMED)
000283:                                                                                                  #        ATTITUDE HOLD (PROGRAMMED)
000284:                                                                                                  #   T+.04 ASCENT PRESSURIZED
000285:                                                                                                  #   T+.15 DESCENT ENGINE-OFF
000286:                                                                                                  #   T+.42 ASCENT ENGINE ARM
000287:                                                                                                  #         ASCENT/DESCENT STAGING INITIATED
000288:                                                                                                  #         STAGE VERIFIED
000289:                                                                                                  #   T+.46 INTERSTAGE BOLTS FIRED
000290:                                                                                                  #         ASCENT STAGE UMBILICAL ELECTRICAL DEADFACE
000291:
000292:                                                                                                  #   T+.50 DESCENT STAGE UMBILICAL ELEC. DEADFACE
000293:                                                                                                  #   T+.55 ASCENT/DESCENT STAGE UMBILICAL CUT
000294:                                                                                                  #   T+.78 ASCENT ENGINE REACHES 90 PC THRUST
000295:                                                                                                  #  T+1.0 CHANGE LEM MASS (PROGRAMMED)
000296:                                                                                                  #        DESCENT ENGINE ARM-OFF (PROGRAMMED)
000297:                                                                                                  #  T+5.0 ASCENT ENGINE-OFF (PROGRAMMED)
000298:
000299: 36,2237           05114        FITHCMD            TC       1LMP+DT                               #  THRUST AT MAX FOR 1 MORE SEC AND ABORT
000300: 36,2240           00026                           DEC      22         B-14                       #  ABORT STAGE ARM
000301: 36,2241           00144                           DEC      100        B-14                       #  DELAY 1.0 SEC.
000302:
000303: 36,2242           05073                           TC       1LMP                                  #  INITIATE ABORT STAGE COMMAND
000304: 36,2243           00046                           DEC      38         B-14
000305:
000306: 36,2244           05745                           TC       TASKOVER                              #  LET ABORT MONITOR TAKE IT FROM HERE
000307:
000308: 36,2245           37752        ABMON              CAF      BIT4                                  #  ABORT STAGE MONITOR SAMPLES CHANNEL
000309: 36,2246           00006                           EXTEND                                         #  30 FOR ABORT STAGE DISCRETE EVERY .5 SEC
000310: 36,2247           02030                           RAND     30
000311: 36,2250           00006                           EXTEND
000312: 36,2251           12255                           BZF      FITHGCMD                              #  ABORT DISCRETE PRESENT-KILL MONITOR
000313:
000314: 36,2252           05717                           TC       FIXDELAY                              #  NO ABORT DISCRETE-CONTINUE TO MONITOR
000315:
000316: 36,2253           00062                           DEC      50         B-14                       #  DELAY .5 SECS
000317: 36,2254           12245                           TCF      ABMON
000318:
000319: 36,2255           05307        FITHGCMD           TC       IBNKCALL
000320: 36,2256           34057                           CADR     STOPRATE                              #  SET ATTITUDE HOLD
000321:
000322: 36,2257           04105                           TC       NEWMODEX                              #  SET MODE TO FIRE-IN-THE-HOLE
000323: 36,2260           00074                           OCT      74                                    #  PROG74
000324:
000325: 36,2261  E5,1540                                  EBANK=   MASSES                                #  EBANK5
000326: 36,2261           35677                           CAF      EBANK5
000327: 36,2262           54003                           TS       EBANK                                 #  JAM 05 IN EBANK
000328: 36,2263           00006                           EXTEND
000329:


000331: 36,2264           31543                           DCA      LEMMASS2                              #  CHANGE LEM MASS AT DPS/APS SEPARATION
000332: 36,2265           53333                           DXCH     MASS
000333: 36,2266           37743                           CAF      BIT11                                 #  RETURN EBANK TO 04
000334: 36,2267           54003                           TS       EBANK
000335: 36,2270  E4,1566                                  EBANK=   TDEC
000336:
000337: 36,2270           05717                           TC       FIXDELAY
000338: 36,2271           00144                           DEC      100        B-14                       #  DELAY 1 SEC TO DPS ARM OFF
000339:
000340: 36,2272           05114                           TC       1LMP+DT                               #  ENGINE SELECT-DESC ARM OFF-
000341: 36,2273           00227                           DEC      151        B-14                       #  APS BURN FOR 5 SECS
000342: 36,2274           00620                           DEC      400        B-14                       #  DELAY 4.0 SECONDS
000343:
000344: 36,2275           06071                           TC       ENGINOFF                              #  GO FOR ENGINE SHUTDOWN
000345:
000346: 36,2276           05745                           TC       TASKOVER
000347:
000348:
000349:
000350: 36,2277           05224        DOCURTN            TC       BANKCALL                              #   GO SET UP CURTAIN JOB
000351: 36,2300           57267                           CADR     CURTJOB
000352:
000353: 36,2301           32311        MP11TERM           CAF      1SEC11                                #  SET TO DO MP11 TERMINAL TASKS IN 1 SEC
000354: 36,2302           00004                           INHINT
000355: 36,2303           05701                           TC       WAITLIST
000356: 36,2304  E4,1566                                  EBANK=   TDEC
000357: 36,2304           02307 74064                     2CADR    MP11OUT
000358:
000359: 36,2306           05605                           TC       ENDOFJOB                              #  TERMINATE JOB SET BY DVMON
000360:
000361: 36,2307           05114        MP11OUT            TC       1LMP+DT
000362: 36,2310           00047                           DEC      39         B-14                       #  INITIATE ABORT STAGE COMMAND RESET
000363: 36,2311           00144        1SEC11             DEC      100        B-14                       #  DELAY 1 SEC
000364:
000365: 36,2312           05114                           TC       1LMP+DT
000366: 36,2313           00267                           DEC      183        B-14                       #  LANDING RADAR POWER OFF
000367: 36,2314           01440                           DEC      800        B-14                       #  DELAY 8 SECS
000368:
000369: 36,2315           05106                           TC       2LMP+DT
000370: 36,2316           00365                           DEC      245        B-14                       #  DPS PQGS U AND 2 OFF
000371: 36,2317           00325                           DEC      213        B-14
000372: 36,2320           00144                           DEC      100        B-14                       #  DELAY 1 SEC
000373:
000374: 36,2321           05106                           TC       2LMP+DT
000375: 36,2322           00345                           DEC      229        B-14                       #  DPS PQGS ARM 1 AND 2 DISABLE
000376: 36,2323           00305                           DEC      197        B-14
000377: 36,2324           03554                           DEC      1900       B-14                       #  DELAY 19 SECS TO KILL AVEG
000378:
000379: 36,2325           06036                           TC       FLAG1DWN                              #  KILL AVERAGE G
000380: 36,2326           00001                           OCT      1
000381:


000383: 36,2327           05307                           TC       IBNKCALL
000384: 36,2330           34012                           CADR     SETMAXDB
000385:
000386: 36,2331           05141                           TC       MPENTRY                               #  SETUP MISSION PHASE SCHEDULING
000387: 36,2332           00002                           DEC      2          B-14                       #  TIMER -2-
000388: 36,2333           00015                           DEC      13         B-14                       #  MISSION PHASE -13-
000389: 36,2334           01753                           ADRES    MP11TO13
000390: 36,2335           05745                           TC       TASKOVER                              #  MISSION PHASE 11 COMPLETE
000391:


000393:                                                                                                  #  ????????????????????????????????
000394:                                                                                                  #  NUMERICAL AND ADDRESS CONSTANTS
000395:                                                                                                  #  ????????????????????????????????
000396:
000397:
000398:
000399:                                                                                                  #                                          ** TIME CONSTANTS **
000400:
000401: 36,2336           32274        135SECS            DEC      13500      B-14
000402: 36,2337           04312        22.5SECS           DEC      2250       B-14
000403: 36,2340           04766        25.5SECS           DEC      2550       B-14
000404: 36,2341           04230        22SECS11           DEC      2200       B-14
000405:
000406:
000407:
000408:                                                                                                  #                                          ** THRUST LEVEL CONSTANTS **
000409:
000410: 36,2342           06315        20PCTHR            DEC      .2
000411: 36,2343           14632                           DEC      .4
000412: 36,2344           11463                           DEC      .3
000413: 36,2345           20000                           DEC      .5
000414: 36,2346           03146                           DEC      .1
000415: 36,2347     7735               925PCTHR           =        POSMAX                                #  FOR MAXIMUM PERMITTED THRUST (92.5%)
000416:
000417:
000418:
000419:                                                                                                  #                                          ** ADDRESS CONSTANTS **
000420:
000421: 36,2347           02233        AVEG11AD           GENADR   AVERAGEG
000422: 36,2350  E4,1566                                  EBANK=   TDEC
000423: 36,2350           02041 44004  BURNADR            2CADR    BURN
000424:
000425:
000426: 36,2352  E4,1566                                  EBANK=   TDEC
000427: 36,2352           02000 44004  DPS2ADR            2CADR    PREBURN
000428:
000429: 36,2354  E5,1557                                  EBANK=   ETHROT                                #  EBANK 5
000430: 36,2354           03367 60065  PCNTFAD            2CADR    PCNTFMAX
000431:
000432: 36,2356  E4,1566                                  EBANK=   TDEC
000433: 36,2356           02301 74064  MP11TMAD           2CADR    MP11TERM
000434:
000435: 36,2360  E4,1566                                  EBANK=   TDEC
000436: 36,2360           02301 16004  MDAVADR            2CADR    RVUPDATE
000437:
000438: 36,2362  E5,1511                                  EBANK=   DVCNTR
000439: 36,2362           02312 60065  ADROFSER           2CADR    SERVEXIT
000440:


000442:                                                                                                  #  ????????????????????????????????
000443:                                                                                                  #  TASKS CALLED ELSEWHERE IN MP11
000444:                                                                                                  #  ????????????????????????????????
000445:
000446:
000447:
000448: 36,2364           37755        PREAVEG            CAF      BIT1                                  #  SET UP PREREAD FOR RIGHT NOW
000449: 36,2365           05701                           TC       WAITLIST
000450: 36,2366  E5,1506                                  EBANK=   DVTOTAL
000451: 36,2366           02000 60065                     2CADR    PREREAD
000452:
000453: 36,2370           32347                           CAF      AVEG11AD                              #  GENADR OF AVERAGE G
000454: 36,2371           55322                           TS       DVSELECT
000455:
000456: 36,2372           00006                           EXTEND                                         #  SET SERVICER EXIT
000457: 36,2373           32363                           DCA      ADROFSER
000458: 36,2374           53073                           DXCH     AVGEXIT
000459:
000460: 36,2375           00006                           EXTEND                                         #  SET MP RETURN FOR ENGINE SHUT DOWN
000461: 36,2376           32357                           DCA      MP11TMAD
000462: 36,2377           53075                           DXCH     DVMNEXIT
000463:
000464: 36,2400           05745                           TC       TASKOVER
000465:
000466:
000467: 36,2401           05114        MP11TASK           TC       1LMP+DT
000468: 36,2402           00354                           DEC      236        B-14                       #  DFI T/M CALIBRATION -ON
000469: 36,2403           02260                           DEC      1200       B-14                       #  DELAY 12 SECS
000470:
000471: 36,2404           05106                           TC       2LMP+DT
000472: 36,2405           00355                           DEC      237        B-14                       #  DFI T/M CALIBRATE -OFF
000473: 36,2406           00306                           DEC      198        B-14                       #  C+W ALARM RESET -COMMAND
000474: 36,2407           00310        2SECS11            DEC      200        B-14                       #  DELAY 2 SECS
000475:
000476: 36,2410           05114                           TC       1LMP+DT
000477: 36,2411           00307                           DEC      199        B-14                       #  C+W ALARM RESET-COMMAND RESET
000478: 36,2412           00144                           DEC      100        B-14                       #  DELAY 1 SEC
000479:
000480: 36,2413           05106                           TC       2LMP+DT
000481: 36,2414           00266                           DEC      182        B-14                       #  LR POWER -ON
000482: 36,2415           00032                           DEC      26         B-14                       #  RADAR SELFTEST -ON
000483: 36,2416           13560                           DEC      6000       B-14                       #  DELAY 60 SECS.
000484:
000485: 36,2417           05073                           TC       1LMP
000486: 36,2420           00033                           DEC      27         B-14                       #  RADAR SELFTEST-OFF
000487:
000488: 36,2421           05745                           TC       TASKOVER
000489:


000491:
000492: 36,2422           05114        ASWTVLON           TC       1LMP+DT
000493: 36,2423           00336                           DEC      222        B-14                       #  ASCENT WATER COOLANT VALVE - OPEN
000494: 36,2424           00310                           DEC      200        B-14                       #  DELAY 2.0 SEC.
000495:
000496: 36,2425           05073                           TC       1LMP
000497: 36,2426           00337                           DEC      223        B-14                       #  ASCENT WATER COOLANT VALVE - OPEN RESET
000498:
000499: 36,2427           05745                           TC       TASKOVER

End of include-file MISSION_PHASE_11_-_DPS2_FITH_APS1.agc.  Parent file is MAIN.agc


