
Source Code


000002:                                                                                                  ## Copyright:   Public domain.
000003:                                                                                                  ## Filename:    MISSION_PHASE_16_-_RCS_COLD_SOAK.agc
000004:                                                                                                  ## Purpose:     A section of Sunburst revision 37, or Shepatin revision 0.
000005:                                                                                                  ##              It is part of an early development version of the software
000006:                                                                                                  ##              for Apollo Guidance Computer (AGC) on the unmanned Lunar
000007:                                                                                                  ##              Module (LM) flight Apollo 5. Sunburst 37 was the program
000008:                                                                                                  ##              upon which Don Eyles's offline development program Shepatin
000009:                                                                                                  ##              was based; the listing herein transcribed was actually for
000010:                                                                                                  ##              the equivalent revision 0 of Shepatin.
000011:                                                                                                  ##              This file is intended to be a faithful transcription, except
000012:                                                                                                  ##              that the code format has been changed to conform to the
000013:                                                                                                  ##              requirements of the yaYUL assembler rather than the
000014:                                                                                                  ##              original YUL assembler.
000015:                                                                                                  ## Reference:   pp. 711-712
000016:                                                                                                  ## Assembler:   yaYUL
000017:                                                                                                  ## Contact:     Ron Burkey <info@sandroid.org>.
000018:                                                                                                  ## Website:     www.ibiblio.org/apollo/index.html
000019:                                                                                                  ## Mod history: 2017-05-24 MAS  Created from Sunburst 120.
000020:                                                                                                  ##              2017-06-08 HG   Transcribed
000021:


000023: 27,3404                                           BANK     27
000024: 27,3404  E6,1407                                  EBANK=   EDOT
000025:                                                                                                  #  PROGRAM DESCRIPTION
000026:                                                                                                  #  MOD NO- 0                                           LOG SECTION-
000027:                                                                                                  #  ******** NOTE-     MP16 NOT UP TO DATE ********
000028:                                                                                                  #                                                      RCS COLD SOAK
000029:                                                                                                  #  FUNCTIONAL DESCRIPTION-
000030:                                                                                                  #           CHANGE ATTITUDE OF SPACECRAFT TO REQUIRED
000031:                                                                                                  #           ATTITUDE FOR COLD SOAK PHASES.
000032:                                                                                                  #           ISSUE LMP COMMANDS, ETC.
000033:                                                                                                  #           ACCORDING TO GSOP.
000034:                                                                                                  #  CALLING SEQUENCE-
000035:                                                                                                  #           START MP 16 WHEN MISSION TIMER 4
000036:                                                                                                  #           COUNTS TO ZERO.
000037:                                                                                                  #  SUBROUTINES CALLED-
000038:                                                                                                  #           BANKCALL
000039:                                                                                                  #           DFI T/M CAL. ROUTINE
000040:                                                                                                  #           EXECUTIVE
000041:                                                                                                  #           LEM MISSION PROGRAMMER
000042:                                                                                                  #           KALCMANU
000043:                                                                                                  #           WAITLIST
000044:                                                                                                  #  NORMAL EXIT MODES-
000045:                                                                                                  #           TC    ENDOFJOB/TASKOVER
000046:                                                                                                  #  ALARM OR ABORT EXIT MODES-   NONE
000047:                                                                                                  #  OUTPUT- (INTERFACE, DISPLAYS, MEANINGFUL INFORMATIONLEFT IN ERASABLE).
000048:                                                                                                  #           SAME AS FOR KALCMANU EXCEPT-
000049:                                                                                                  #           BIT 13 OF DAPBOOLS IS SET TO 1 BEFORE EXIT.
000050:                                                                                                  #  ERASABLE INITIALIZATION REQUIRED-
000051:                                                                                                  #           TEPHEM   IN CENTISECONDS TRIPLE PRECISION
000052:                                                                                                  #  DEBRIS- (ERASABLE LOCATIONS DESTROYED BY THIS PROGRAM)
000053:                                                                                                  #           SAME AS FOR KALCMANU
000054:                                                                                                  #  ORIENT THE LEM TO RCS COLD SOAK ATTITUDE
000055:                                                                                                  #  (S/C X-AXIS NORMAL TO THE ECLIPTIC AND BISECTOR
000056:                                                                                                  #  OF +Z/-Y AXES TOWARD THE SUN)
000057:
000058:                                                                                                  #  START MISSION PHASE 16 WHEN MP TIMER 4 COUNTS TO ZERO
000059:
000060: 27,3404           04105        MP16JOB            TC       NEWMODEX                              #  UPDATE PROGRAM NUMBER
000061: 27,3405           00016                           OCT      16                                    #  ON DSKY
000062:
000063: 27,3406           02655                           TC       COLDSOAK                              #  CALCULATE CDU ANGLES REQUIRED
000064: 27,3407           37740                           CAF      PRIOKM                                #  SCHEDULE KALCMANU
000065: 27,3410           00004                           INHINT
000066: 27,3411           05534                           TC       FINDVAC
000067: 27,3412  E6,1407                                  EBANK=   EDOT
000068: 27,3412           02067 70066                     2CADR    KALCMAN3
000069:
000070: 27,3414           00003                           RELINT
000071: 27,3415           10067                           CCS      NEWJOB                                #  FORCE KALCMANU JOB ON
000072: 27,3416           05550                           TC       CHANG1
000073:


000075: 27,3417           05224                           TC       BANKCALL                              #  PUT JOB TO SLEEP TILL
000076: 27,3420           26754                           CADR     ATTSTALL                              #  MANEUVER COMPLETED
000077: 27,3421           13422                           NOOP                                           #  TC   BADATT-SICK RETURN- ***FIX THIS***
000078:
000079: 27,3422           33433                           CAF      DEC1000                               #  GOOD RETURN--MAN. COMPLETED
000080: 27,3423           00004                           INHINT
000081: 27,3424           05701                           TC       WAITLIST                              #  WAIT 10 SECONDS
000082: 27,3425  E6,1407                                  EBANK=   EDOT
000083: 27,3425           03434 56006                     2CADR    PHAS16A
000084:
000085: 27,3427           00003                           RELINT
000086: 27,3430           33432                           CAF      P16WAKE                               #  PUT THIS JOB
000087: 27,3431           05563                           TC       JOBSLEEP                              #  TO SLEEP
000088: 27,3432           57441        P16WAKE            CADR     PHAS16B
000089: 27,3433           01750        DEC1000            DEC      1000       B-14
000090: 27,3434           33432        PHAS16A            CAF      P16WAKE                               #  REACTIVATE THE JOB
000091: 27,3435           05567                           TC       JOBWAKE                               #  THAT WAS PUT TO SLEEP
000092: 27,3436           05307                           TC       IBNKCALL                              #  DO DFI T/M CALIBRATION ROUTINE
000093: 27,3437           56211                           CADR     DFITMCAL
000094:
000095: 27,3440           05745                           TC       TASKOVER
000096:
000097:                                                                                                  #                                          WAIT FOR COMPLETION OF CALIBRATION + 1 SECOND
000098:
000099: 27,3441           33470        PHAS16B            CAF      DEC1300                               #  13 SECONDS
000100: 27,3442           00004                           INHINT
000101:
000102: 27,3443           05701                           TC       WAITLIST
000103: 27,3444  E6,1407                                  EBANK=   EDOT
000104: 27,3444           03447 56006                     2CADR    P16MXDB
000105:
000106: 27,3446           05605                           TC       ENDOFJOB
000107: 27,3447           37741        P16MXDB            CAF      BIT13                                 #  SELECT MAX DEADBAND FOR DAP-
000108: 27,3450           26077                           ADS      DAPBOOLS                              #  SET BIT 13 OF DAPBOOLS =1
000109: 27,3451           05073                           TC       1LMP                                  #  THRUSTER ISOL VALVES PR 3A CLOSE
000110: 27,3452           00136                           DEC      94         B-14
000111: 27,3453           05073                           TC       1LMP                                  #  THRUSTER ISOL VALVES 3B CLOSE
000112: 27,3454           00156                           DEC      110        B-14
000113: 27,3455           33462                           CAF      DEC200                                #  WAIT 2 SECS
000114: 27,3456           05701                           TC       WAITLIST
000115: 27,3457  E6,1407                                  EBANK=   EDOT
000116: 27,3457           03463 56006                     2CADR    P16CLS
000117:
000118: 27,3461           05745                           TC       TASKOVER
000119: 27,3462           00310        DEC200             DEC      200        B-14
000120: 27,3463           05073        P16CLS             TC       1LMP                                  #  THRUSTER ISOL VALVES PR 3A-
000121: 27,3464           00137                           DEC      95         B-14                       #  CLOSE RESET
000122: 27,3465           05073                           TC       1LMP                                  #  THRUSTER ISOL VALVES PR 3B-
000123: 27,3466           00157                           DEC      111        B-14                       #  CLOSE RESET
000124: 27,3467           05745                           TC       TASKOVER
000125: 27,3470           02424        DEC1300            DEC      1300       B-14

End of include-file MISSION_PHASE_16_-_RCS_COLD_SOAK.agc.  Parent file is MAIN.agc


