
Source Code


000002:                                                                                                  ## Copyright:   Public domain.
000003:                                                                                                  ## Filename:    MISSION_PHASE_6_COAST_SIVB_ATTACHED.agc
000004:                                                                                                  ## Purpose:     A section of Sunburst revision 37, or Shepatin revision 0.
000005:                                                                                                  ##              It is part of an early development version of the software
000006:                                                                                                  ##              for Apollo Guidance Computer (AGC) on the unmanned Lunar
000007:                                                                                                  ##              Module (LM) flight Apollo 5. Sunburst 37 was the program
000008:                                                                                                  ##              upon which Don Eyles's offline development program Shepatin
000009:                                                                                                  ##              was based; the listing herein transcribed was actually for
000010:                                                                                                  ##              the equivalent revision 0 of Shepatin.
000011:                                                                                                  ##              This file is intended to be a faithful transcription, except
000012:                                                                                                  ##              that the code format has been changed to conform to the
000013:                                                                                                  ##              requirements of the yaYUL assembler rather than the
000014:                                                                                                  ##              original YUL assembler.
000015:                                                                                                  ## Reference:   pp. 666-668
000016:                                                                                                  ## Assembler:   yaYUL
000017:                                                                                                  ## Contact:     Ron Burkey <info@sandroid.org>.
000018:                                                                                                  ## Website:     www.ibiblio.org/apollo/index.html
000019:                                                                                                  ## Mod history: 2017-05-24 MAS  Created from Sunburst 120.
000020:                                                                                                  ##              2017-06-13 HG   Transcribed
000021:


000023:                                                                                                  #  PROGRAM DESCRIPTION
000024:                                                                                                  #     COAST SIVB ATTACHED
000025:
000026:                                                                                                  #  MOD NO   1      DATE - 4 NOV 66
000027:
000028:                                                                                                  #  MOD BY - OVERBAUGH
000029:                                                                                                  #  FUNCTIONAL DESCRIPTION
000030:                                                                                                  #     WHEN THE DV MONITOR DETECTS SIVB SHUTDOWN THE
000031:                                                                                                  #     THRUST MISSION CONTROL PROGRAM INITIATES MP6.
000032:                                                                                                  #     DURING THIS PHASE THE ABORT COMMAND MONITOR AND
000033:                                                                                                  #     THE TUMBLE MONITOR ARE TERMINATED AND THE C-BAND
000034:                                                                                                  #     XPONDER IS SET TO ON*.  WHEN THRUST DUE TO
000035:                                                                                                  #     VENTING BECOMES NEGLIGIBLE READING OF
000036:                                                                                                  #     THE PIPAS IS TERMINATED.
000037:
000038:                                                                                                  #  NORMAL EXIT MODES -
000039:                                                                                                  #     TC   TASKOVER
000040:
000041:                                                                                                  #  ERASABLE INITIALIZATION REQUIRED
000042:                                                                                                  #     MP6TO7
000043:
000044:                                                                                                  #  OUTPUT
000045:                                                                                                  #     UPDATE MODREG
000046:                                                                                                  #     TERMINATE ABORT COMMAND MONITOR
000047:                                                                                                  #     TERMINATE TUMBLE MONITOR
000048:                                                                                                  #     MISSION SCHEDULING REGISTERS SET TO CALL MP7
000049:
000050:                                                                                                  #  DEBRIS
000051:                                                                                                  #     CENTRALS,A,Q,Z
000052:
000053:                                                                                                  #  SUBROUTINES CALLED
000054:                                                                                                  #     EXECUTIVE(ENDOFJOB)
000055:                                                                                                  #     WAITLIST
000056:                                                                                                  #     LONGCALL
000057:                                                                                                  #     NEWMODEX
000058:                                                                                                  #     1LMP
000059:                                                                                                  #     FLAG1DWN
000060:                                                                                                  #     FLAG2DWN
000061:                                                                                                  #     SCHEDULE ENTRY ROUTINE(MPENTRY)
000062:
000063: 27,2463                                           BANK     27
000064: 27,2463  E3,1774                                  EBANK=   MP6TO7
000065:
000066: 27,2463           04105        MP6JOB             TC       NEWMODEX                              #  UPDATE MODREG
000067: 27,2464           00013                           OCT      13
000068:
000069: 27,2465           36276                           CAF      SIX
000070: 27,2466           54765                           TS       PHASENUM
000071:
000072: 27,2467           04147                           TC       PHASCHNG


000074: 27,2470           47012                           OCT      47012
000075: 27,2471           13560                           DEC      6000       B-14
000076: 27,2472  E3,1774                                  EBANK=   MP6TO7
000077: 27,2472           02504 56003                     2CADR    MP6A
000078:
000079: 27,2474           32503                           CAF      DEC6000                               #  INITIALIZE 1 MIN DELAY
000080: 27,2475           00004                           INHINT
000081: 27,2476           05701                           TC       WAITLIST
000082: 27,2477  E3,1774                                  EBANK=   MP6TO7
000083: 27,2477           02504 56003                     2CADR    MP6A
000084:
000085: 27,2501           00003                           RELINT
000086: 27,2502           15605                           TCF      ENDOFJOB
000087: 27,2503           13560        DEC6000            DEC      6000       B-14
000088:
000089: 27,2504           04147        MP6A               TC       PHASCHNG
000090: 27,2505           47012                           OCT      47012
000091: 27,2506           27340                           DEC      12000      B-14
000092: 27,2507  E3,1774                                  EBANK=   MP6TO7
000093: 27,2507           02523 56003                     2CADR    MP6B
000094:
000095:
000096: 27,2511           32522                           CAF      DEC12000                              #  INITIALIZE 2 MIN WAIT
000097: 27,2512           05701                           TC       WAITLIST
000098: 27,2513  E3,1774                                  EBANK=   MP6TO7
000099: 27,2513           02523 56003                     2CADR    MP6B
000100:                                                                                                  #                                          TERMINATE ABORT COMMAND MONITOR
000101:
000102: 27,2515           06045                           TC       FLAG2DWN
000103: 27,2516           00400                           OCT      00400                                 #  BIT 9
000104:
000105:                                                                                                  #                                          TERMINATE TUMBLE MONITOR
000106:
000107: 27,2517           06036                           TC       FLAG1DWN
000108: 27,2520           20000                           OCT      20000                                 #  BIT14
000109: 27,2521           15745                           TCF      TASKOVER
000110: 27,2522           27340        DEC12000           DEC      12000      B-14
000111:
000112: 27,2523           04147        MP6B               TC       PHASCHNG
000113: 27,2524           27042                           OCT      27042
000114: 27,2525           75241                           -GENADR  536SEC
000115: 27,2526  E3,1774                                  EBANK=   MP6TO7
000116: 27,2526           02540 56003                     2CADR    CBXPNDR
000117:                                                                                                  #  REF   1       27,2527   56063 1  CALL C-BAND TRANSPONDER-ON*
000118:
000119: 27,2530           00006                           EXTEND
000120: 27,2531           32537                           DCA      536SEC                                #  SET LONGCALL= T+8M 56S
000121: 27,2532           05757                           TC       LONGCALL                              #  FOR C-BAND TRANSPONDER-ON*
000122: 27,2533  E3,1774                                  EBANK=   MP6TO7
000123: 27,2533           02540 56003                     2CADR    CBXPNDR
000124:


000126: 27,2535           15745                           TCF      TASKOVER
000127: 27,2536           00003 10540  536SEC             2DEC     53600      B-28
000128:
000129:                                                                                                  #                27,2537   10540 1  C-BAND TRANSPONDER-ON*
000130:
000131: 27,2540           05073        CBXPNDR            TC       1LMP
000132: 27,2541           00152                           DEC      106        B-14
000133:
000134: 27,2542           04127                           TC       2PHSCHNG
000135: 27,2543           00002                           OCT      00002
000136: 27,2544           05013                           OCT      05013
000137: 27,2545           77777                           OCT      77777
000138:
000139:                                                                                                  #                                    CALL SCHEDULE ENTRY ROUTINE
000140:
000141: 27,2546           05141                           TC       MPENTRY
000142: 27,2547           00001                           DEC      1          B-14                       #  J=1
000143: 27,2550           00007                           DEC      7          B-14                       #  MP=7
000144: 27,2551           01774                           ADRES    MP6TO7                                #  DT = 28 MIN
000145:
000146:                                                                                                  #                                    TERMINATE READING OF PIPAS.
000147:                                                                                                  #                                    THRUST DUE TO VENTING AFTER SIVB
000148:                                                                                                  #                                    SHUTDOWN HAS BECOME NEGLIGIBLE.
000149:
000150: 27,2552           06036                           TC       FLAG1DWN                              #  TERMINATE DV MONITOR
000151: 27,2553           00001                           OCT      1
000152: 27,2554           15745                           TCF      TASKOVER
000153:
000154:                                                                                                  #  END OF MISSION PHASE 6

End of include-file MISSION_PHASE_6_COAST_SIVB_ATTACHED.agc.  Parent file is MAIN.agc


