
Source Code


000002:                                                                                                  ## Copyright:   Public domain.
000003:                                                                                                  ## Filename:    MP4-CONTINGENCY_ORBIT_INSERTION.agc
000004:                                                                                                  ## Purpose:     A section of Sunburst revision 37, or Shepatin revision 0.
000005:                                                                                                  ##              It is part of an early development version of the software
000006:                                                                                                  ##              for Apollo Guidance Computer (AGC) on the unmanned Lunar
000007:                                                                                                  ##              Module (LM) flight Apollo 5. Sunburst 37 was the program
000008:                                                                                                  ##              upon which Don Eyles's offline development program Shepatin
000009:                                                                                                  ##              was based; the listing herein transcribed was actually for
000010:                                                                                                  ##              the equivalent revision 0 of Shepatin.
000011:                                                                                                  ##              This file is intended to be a faithful transcription, except
000012:                                                                                                  ##              that the code format has been changed to conform to the
000013:                                                                                                  ##              requirements of the yaYUL assembler rather than the
000014:                                                                                                  ##              original YUL assembler.
000015:                                                                                                  ## Reference:   pp. 654-665
000016:                                                                                                  ## Assembler:   yaYUL
000017:                                                                                                  ## Contact:     Ron Burkey <info@sandroid.org>.
000018:                                                                                                  ## Website:     www.ibiblio.org/apollo/index.html
000019:                                                                                                  ## Mod history: 2017-05-24 MAS  Created from Sunburst 120.
000020:                                                                                                  ##              2017-06-14 RSB  Transcribed.
000021:                                                                                                  ##              2017-06-14 HG   Fix operand WACHTHTD -> WACTTHTD
000022:                                                                                                  ##                                          TDECTEMP -> TDEC
000023:                                                                                                  ##                                          RUPREG3  -> RUPTREG3
000024:                                                                                                  ##                                          RUPREG1  -> RUPTREG1
000025:                                                                                                  ##                              Remove constant 004CEK
000026:


000028: 33,2000                                           BANK     33
000029:
000030: 33,2000  E4,1566                                  EBANK=   TDEC
000031:                                                                                                  #  PROGRAM NAME-                   DATE-
000032:                                                                                                  #           MISSION PHASE 4                 2 DECEMBER 1966
000033:                                                                                                  #  MOD NO- 20                      LOG SECTION-
000034:                                                                                                  #  MOD BY- SCHULENBERG                      MP4-CONTINGENCY ORBIT INSERTION
000035:
000036:                                                                                                  #  FUNCTIONAL DESCRIPTION-
000037:                                                                                                  #           CONTINGENCY ORBIT INSERTION IS CALLED BY GROUND IN EVENT OF PREMATURE SIVB SHUTDOWN AND ATTEMPTS TO
000038:                                                                                                  #  EFFECT AN ORBITAL INSERTION USING THE DPS ENGINE AND THE GUIDANCE EQUATIONS USED FOR THE APS BURNS. THE
000039:                                                                                                  #  PROGRAM LEAVES MISSION PHASE TIMERS INHIBITED AND LEAVES FURTHER CONTROLTO THE GROUND VIA UPLINK.
000040:                                                                                                  #  CALLING SEQUENCE-               SUBROUTINES CALLED-
000041:                                                                                                  #           START MP4 WHEN ABORT            FLAG1UP          FLAG1DWN
000042:
000043:                                                                                                  #  COMMAND MONITOR DETECTS MP4              FIXDELAY         WAITLIST
000044:                                                                                                  #  COMMAND VIA LGC UPLINK.                  VPATCHER         KALCMANU
000045:                                                                                                  #                                           ASCENT           UL4JETON
000046:                                                                                                  #  NORMAL EXIT MODES-                       LMP              UL4JETOF
000047:                                                                                                  #           TASKOVER (AWAITS                EXECUTIVE        ENGINEON
000048:                                                                                                  #  FURTHER COMMANDS FROM GROUND)            MIDTOAVE         ENGINOFF
000049:                                                                                                  #  ALARM EXIT MODES-                        BANKCALL         ENGINOF1
000050:                                                                                                  #           NONE                            IBNKCALL         LASTBIAS
000051:
000052:                                                                                                  #  ERASABLE INITIALIZATION REQUIRED-
000053:                                                                                                  #           NONE
000054:
000055:                                                                                                  #  OUTPUT- SAME AS FOR KALCMANU
000056:                                                                                                  #  DEBRIS- SAME AS FOR KALCMANU
000057:
000058: 33,2000           00006        MP4JOB             EXTEND
000059: 33,2001           32545                           DCA      WACTTHTD                              #  TO ENABLE A RESTART
000060: 33,2002           52376                           DXCH     FLUSHREG
000061:
000062: 33,2003           04105                           TC       NEWMODEX                              #  START CONTINGENCY ORBIT INSERTION
000063: 33,2004           00072                           OCT      72
000064:
000065: 33,2005           37753                           CAF      FOUR                                  #  SIGNAL START OF MISSION PHASE 4
000066: 33,2006           54765                           TS       PHASENUM
000067:
000068: 33,2007           06036                           TC       FLAG1DWN                              #  TERMINATE AVEG AND DO AUTO AVETOMID
000069: 33,2010           00001                           OCT      1
000070:
000071: 33,2011           00004                           INHINT
000072: 33,2012           37755                           CAF      BIT1
000073: 33,2013           05701                           TC       WAITLIST                              #  SHORT WAITLIST TO INITIALIZE LMP COMMAND
000074: 33,2014  E4,1566                                  EBANK=   TDEC
000075: 33,2014           02017 66064                     2CADR    ABORTPRR
000076:
000077: 33,2016           15605                           TCF      ENDOFJOB                              #  END MP4JOB


000079:
000080:                                                                                                  #  RCS ABORT PRESSURIZATION ROUTINE
000081:
000082: 33,2017           37761        ABORTPRR           CAF      ZERO                                  #  INSURE RCS JETS OFF
000083: 33,2020           00006                           EXTEND
000084: 33,2021           01005                           WRITE    5
000085:
000086: 33,2022           05717                           TC       FIXDELAY
000087: 33,2023           00144                           DEC      100        B-14                       #  DELAY ONE SECOND
000088:
000089: 33,2024           05106                           TC       2LMP+DT
000090: 33,2025           00274                           DEC      188        B-14                       #  RCS MAIN S/O VALVES, SYS A-OPEN**
000091: 33,2026           00276                           DEC      190        B-14                       #  RCS MAIN S/O VALVES, SYS B-OPEN**
000092: 33,2027           00144                           DEC      100        B-14                       #  DELAY ONE SECOND
000093:
000094: 33,2030           05114                           TC       1LMP+DT
000095: 33,2031           00004                           DEC      4          B-14                       #  ED BATTERY ACTIVATION-ON
000096: 33,2032           00144                           DEC      100        B-14                       #  DELAY ONE SECOND
000097:
000098: 33,2033           05106                           TC       2LMP+DT
000099: 33,2034           00275                           DEC      189        B-14                       #  RCS MAIN S/O VALVES, SYS A-OPEN RESET
000100: 33,2035           00277                           DEC      191        B-14                       #  RCS MAIN S/O VALVES, SYS B-OPEN RESET
000101: 33,2036           00144                           DEC      100        B-14                       #  DELAY ONE SECOND
000102:
000103: 33,2037           05114                           TC       1LMP+DT
000104: 33,2040           00006                           DEC      6          B-14                       #  RCS PRESSURE-FIRE**
000105: 33,2041           00144                           DEC      100        B-14                       #  DELAY ONE SECOND
000106:
000107: 33,2042           05114                           TC       1LMP+DT
000108: 33,2043           00005                           DEC      5          B-14                       #  ED BATTERY ACTIVATION-SAFE
000109: 33,2044           00144                           DEC      100        B-14                       #  DELAY ONE SECOND
000110:
000111: 33,2045           05114                           TC       1LMP+DT
000112: 33,2046           00007                           DEC      7          B-14                       #  RCS PRESSURE - FIRE RESET
000113: 33,2047           00620                           DEC      400        B-14                       #  DELAY FOUR SECONDS
000114:
000115:                                                                                                  #  END RCS ABORT PRESSURIZATION ROUTINE
000116:
000117: 33,2050           30075        TUMBLCHK           CA       FLAGWRD1
000118: 33,2051           77741                           MASK     BIT13
000119: 33,2052           00006                           EXTEND
000120: 33,2053           12057                           BZF      NOTUMBL
000121:
000122: 33,2054           05717                           TC       FIXDELAY
000123: 33,2055           00062                           DEC      50         B-14                       #  DELAY .5 SECS AND CHECK AGAIN
000124: 33,2056           12050                           TCF      TUMBLCHK
000125:
000126: 33,2057           06036        NOTUMBL            TC       FLAG1DWN                              #  IF NO TUMBLING-TERMINATE MONITOR
000127: 33,2060           20000                           OCT      20000                                 #  TERMINATE TUMBLE MONITOR
000128:
000129: 33,2061           06045                           TC       FLAG2DWN                              #  TERMINATE ABORT COMMAND MONITOR


000131:
000132: 33,2062           00400                           OCT      00400
000133:
000134: 33,2063           00006        TIG4-51            EXTEND
000135: 33,2064           30025                           DCA      TIME2                                 #  GET CURRENT TIME
000136: 33,2065           53567                           DXCH     TDEC
000137:
000138: 33,2066           32467                           CAF      021CEK                                #  UPDATE STATE TO TIG4-30
000139: 33,2067           54001                           TS       L
000140: 33,2070           37761                           CAF      ZERO
000141: 33,2071           21567                           DAS      TDEC
000142:
000143:                                                                                                  #  BEGIN ABORT LEM/S4B SEPARATION PROCEDURE
000144:
000145: 33,2072           32530        MP4SEP             CAF      MASSADR                               #  DECLARE EBANK= 5
000146: 33,2073           54003                           TS       EBANK
000147: 33,2074  E5,1540                                  EBANK=   MASSES
000148:
000149: 33,2074           00006                           EXTEND
000150: 33,2075           31541                           DCA      LEMMASS1                              #  INITIALIZE MASS MONITOR
000151: 33,2076           53333                           DXCH     MASS
000152:
000153: 33,2077           37761                           CAF      ZERO                                  #  INITIALIZE DELAREA FOR MASS MONITOR
000154: 33,2100           55551                           TS       DELAREA
000155: 33,2101           55552                           TS       DELAREA    +1
000156:
000157: 33,2102           32527                           CAF      TDECADR                               #  DECLARE EBANK= 4
000158: 33,2103           54003                           TS       EBANK
000159: 33,2104  E4,1566                                  EBANK=   TDEC
000160:
000161: 33,2104           32471                           CAF      XTRANSON                              #  +X TRANSLATION- ON (PRE-DAP)
000162: 33,2105           00006                           EXTEND
000163: 33,2106           01005                           WRITE    5
000164:
000165: 33,2107           05307                           TC       IBNKCALL                              #  +X TRANSLATION-ON (4JET)
000166: 33,2110           34024                           CADR     ULLAGE
000167:
000168: 33,2111           05114                           TC       1LMP+DT
000169: 33,2112           00072                           DEC      58         B-14                       #  LEM/SIVB SEPARATE - ARM ON
000170: 33,2113           00062                           DEC      50         B-14                       #  DELAY 500 MS.
000171:
000172: 33,2114           40077                           CS       DAPBOOLS
000173: 33,2115           77743                           MASK     GODAPGO                               #  TURN ON THE DAP
000174: 33,2116           26077                           ADS      DAPBOOLS
000175:
000176: 33,2117           05307                           TC       IBNKCALL
000177: 33,2120           34012                           CADR     SETMAXDB
000178:
000179: 33,2121           05717                           TC       FIXDELAY                              #  WAIT FOR 300 MS.
000180: 33,2122           00062                           DEC      50         B-14                       #  DELAY 500 MS.


000182:
000183: 33,2123           05307                           TC       IBNKCALL                              #  HOLD VEHICLE ATTITUDE RATE
000184: 33,2124           34034                           CADR     HOLDRATE
000185:
000186: 33,2125           05114                           TC       1LMP+DT
000187: 33,2126           00132                           DEC      90         B-14                       #  LEM/SIVB SEPARATE- COMMAND
000188: 33,2127           00012                           DEC      10         B-14                       #  DELAY 100 MS.
000189:
000190: 33,2130           05307                           TC       IBNKCALL
000191: 33,2131           34000                           CADR     SETMINDB
000192:
000193: 33,2132           05717                           TC       FIXDELAY
000194: 33,2133           00132                           DEC      90         B-14                       #  DELAY 900 MS.
000195:
000196: 33,2134           05114        TIG4-49            TC       1LMP+DT
000197: 33,2135           00073                           DEC      59         B-14                       #  LEM/S4B SEPARATE-ARM-OFF
000198: 33,2136           00144                           DEC      100        B-14                       #  DELAY ONE SECOND
000199:
000200: 33,2137           05073        TIG4-48            TC       1LMP
000201: 33,2140           00133                           DEC      91         B-14                       #  LEM/S4B SEPARATE-COMMAND RESET
000202:
000203:                                                                                                  #  END LEM/S4B SEPARATION ROUTINE
000204:
000205: 33,2141           32466                           CAF      007CEK
000206: 33,2142           05701                           TC       WAITLIST
000207: 33,2143  E4,1566                                  EBANK=   TDEC
000208: 33,2143           02265 66064                     2CADR    TIG4-41
000209:
000210: 33,2145           35667                           CAF      PRIO27                                #  START NEW JOB FOR CALCULATIONS
000211: 33,2146           05534                           TC       FINDVAC
000212: 33,2147  E4,1566                                  EBANK=   TDEC
000213: 33,2147           02152 66064                     2CADR    LONGJOB
000214:
000215: 33,2151           15745                           TCF      TASKOVER                              #  END TIG4-48 TASK
000216:
000217: 33,2152           00006        LONGJOB            EXTEND
000218: 33,2153           32537                           DCA      ORBINTAD                              #  DO ORBITAL INTEGRATION
000219: 33,2154           52006                           DXCH     Z
000220:
000221: 33,2155           32546        PRECOI             CAF      KALC4AD
000222: 33,2156           55450                           TS       ASCRET
000223: 33,2157           06103                           TC       INTPRET
000224: 33,2160           77624                           CALL
000225: 33,2161           60347                                    VPATCHER                              #  RESCALE AND LOAD IGN STATES IN RN AND VN
000226: 33,2162           77745                           DLOAD
000227: 33,2163           26525                                    RCRIT                                 #  RCRIT=INJECTION ALTITUDE*2(-25)
000228: 33,2164           26375                           STOVL    RCO
000229: 33,2165           01017                                    VN                                    #  VN FROM VPATCHER=VIGNTION*2(-7) M/CS
000230: 33,2166           53435                           VXV      UNIT
000231: 33,2167           01011                                    RN                                    #  RN FROM VPATCHER=RIGNTION*2(N-29) M
000232: 33,2170           26007                           STOVL    QAXIS                                 #  UNIT HORIZONTAL VECTOR NORMAL TO ORBIT


000234: 33,2171           01033                                    UNITR                                 #  UNITR FROM AVEG=UNIT(RIGNTION)*2(-1) M
000235: 33,2172           02001                           STORE    PAXIS1
000236: 33,2173           76435                           VXV      VSL1
000237: 33,2174           02007                                    QAXIS
000238: 33,2175           26015                           STOVL    SAXIS                                 #  UNIT HORIZONTAL VECTOR PARALLEL TO ORBIT
000239: 33,2176           26475                                    ABLOCK
000240: 33,2177           26023                           STOVL    AT
000241: 33,2200           26503                                    BBLOCK
000242: 33,2201           26031                           STOVL    ATMEAS
000243: 33,2202           26517                                    CBLOCK
000244: 33,2203           16041                           STODL    RDOTD
000245: 33,2204           26511                                    KR1EST
000246: 33,2205           16037                           STODL    KR1                                   #  LOAD ATTITUDE LIMITING PARAMETER
000247: 33,2206           26513                                    TGOEST
000248: 33,2207           02350                           STORE    TGO
000249: 33,2210           43014                           CLEAR    CLEAR
000250: 33,2211           01674                                    DIRECT
000251: 33,2212           01675                                    PASS
000252: 33,2213           50375                           VLOAD    DOT
000253: 33,2214           02015                                    SAXIS
000254: 33,2215           01017                                    VN                                    #  ZDOT*2(-8)
000255: 33,2216           77752                           SL1                                            #   *2(-7)
000256: 33,2217           26105                           STOVL    ZDOT
000257: 33,2220           02001                                    PAXIS1
000258: 33,2221           72441                           DOT      SL1                                   #  RDOT*2(-8)
000259: 33,2222           01017                                    VN                                    #   *2(-7)
000260: 33,2223           16147                           STODL    RDOT
000261: 33,2224           26517                                    DP0
000262: 33,2225           02111                           STORE    GEFF                                  #  GEFF=0
000263: 33,2226           02067                           STORE    YDOT                                  #  YDOT=0
000264: 33,2227           52014                           SET      GOTO
000265: 33,2230           01473                                    56D                                   #  SET FOR RETURN
000266: 33,2231           64367                                    GAIN       +1                         #  GO TO USE ASCENT TGO SECTION
000267: 33,2232           43345        TKNOWN             DLOAD    DAD
000268: 33,2233           02041                                    RDOTD
000269: 33,2234           02147                                    RDOT                                  #  (RDOT+RDOTD)*2(-7)
000270: 33,2235           41342                           SR1      DMP                                   #   .5RDOTAVE*2(-7)
000271: 33,2236           02350                                    TGO                                   #  RGO*2(-24),SINCE TGO IS *2(-17)
000272: 33,2237           70415                           DAD      SR1                                   #  RFREE IS RCO FOR NO R-CONTROL,*2(-24)
000273: 33,2240           01047                                    RMAG                                  #   *2(-25)
000274: 33,2241           51025                           DSU      BPL
000275: 33,2242           02375                                    RCO
000276: 33,2243           66247                                    FREE-R
000277: 33,2244           52014                           CLEAR    GOTO                                  #  IF RFREE SMTHAN RCO, CONSTRAIN RCO
000278: 33,2245           01676                                    HC
000279: 33,2246           64120                                    ASCENT
000280: 33,2247           52014        FREE-R             SET      GOTO
000281: 33,2250           01476                                    HC                                    #  IF RFREE GRTHAN RCO, FREE RCO
000282: 33,2251           64120                                    ASCENT
000283: 33,2252           77775        PREKALC4           VLOAD


000285: 33,2253           02057                                    UT                                    #  GET UT FROM ASCENT OUTPUT REGISTER
000286: 33,2254           25656                           STOVL    POINTVSM                              #  KALCMANU INPUT REGISTER
000287: 33,2255           26515                                    BODYVECT                              #  LOAD BODY AXES VECTOR IN SM COORDS
000288: 33,2256           01664                           STORE    SCAXIS                                #  KALCMANU INPUT VECTOR
000289: 33,2257           66214                           SET      SSP
000290: 33,2260           01063                                    33D
000291:
000292: 33,2261           01653                                    RATEINDX
000293: 33,2262           00006                                    6                                     #  10 DEG/SEC.
000294: 33,2263           77776                           EXIT
000295:
000296: 33,2264           15605                           TCF      ENDOFJOB                              #  END LONGJOB
000297:
000298: 33,2265           32526        TIG4-41            CAF      AVGENADR                              #  GENADR OF AVERAGEG
000299: 33,2266           55322                           TS       DVSELECT
000300:
000301: 33,2267           00006                           EXTEND
000302: 33,2270           32535                           DCA      EXITADR                               #  SET AVEG TO EXIT TO END OF JOB UNTIL
000303: 33,2271           53073                           DXCH     AVGEXIT                               #  IT IS RESET TO ATMAG
000304:
000305: 33,2272           00006                           EXTEND
000306: 33,2273           32533                           DCA      MP4TM1AD                              #  SET MONITOR EXIT
000307: 33,2274           53075                           DXCH     DVMNEXIT
000308:
000309: 33,2275           05114                           TC       1LMP+DT
000310: 33,2276           00004                           DEC      4          B-14                       #  ED BATTERY ACTIVATION-ON
000311: 33,2277           00620                           DEC      400        B-14                       #  DELAY 4 SECONDS
000312:
000313: 33,2300           05307        TIG4-37            TC       IBNKCALL                              #  +X TRANSLATION- OFF
000314: 33,2301           34030                           CADR     NOULLAGE
000315:
000316: 33,2302           05307                           TC       IBNKCALL
000317: 33,2303           34057                           CADR     STOPRATE                              #  HOLD VEHICLE ATTITUDE
000318:
000319: 33,2304           05717                           TC       FIXDELAY
000320: 33,2305           00144                           DEC      100        B-14                       #  DELAY ONE SECOND
000321:
000322: 33,2306           05073        TIG4-36            TC       1LMP
000323: 33,2307           00010                           DEC      8          B-14                       #  LANDING GEAR DEPLOY-FIRE
000324:
000325: 33,2310           32463                           CAF      002CEK
000326: 33,2311           05701                           TC       WAITLIST
000327: 33,2312  E4,1566                                  EBANK=   TDEC
000328: 33,2312           02321 66064                     2CADR    TIG4-34
000329:
000330: 33,2314           35226                           CAF      PRIO30                                #  CALL KALCMANU
000331: 33,2315           05534                           TC       FINDVAC
000332: 33,2316  E3,1535                                  EBANK=   MIS
000333: 33,2316           02001 70063                     2CADR    VECPOINT
000334:


000336: 33,2320           15745                           TCF      TASKOVER                              #  END TIG4-36 TASK
000337:
000338: 33,2321           42470        TIG4-34            CS       030CEK                                #  SET PREREAD CALL (AUTO LASTBIAS)
000339: 33,2322           02550                           TC       TASKSETR
000340: 33,2323           05701                           TC       WAITLIST
000341: 33,2324  E5,1506                                  EBANK=   DVTOTAL
000342: 33,2324           02000 60065                     2CADR    PREREAD
000343:
000344: 33,2326           05114                           TC       1LMP+DT
000345: 33,2327           00011                           DEC      9          B-14                       #  LANDING GEAR DEPLOY- FIRE RESET
000346: 33,2330           00622                           DEC      402        B-14                       #  DELAY 4 SECONDS
000347:
000348: 33,2331           06074        TIG4-30            TC       ENGINOF1                              #  REMOVE EXTRANEOUS ENGINE DISCRETES
000349:
000350: 33,2332           05106                           TC       2LMP+DT
000351: 33,2333           00226                           DEC      150        B-14                       #  ENGINE SELECT- DESC ARM
000352: 33,2334           00126                           DEC      86         B-14                       #  MANUAL THROTTLE- ON 10 PERCENT
000353: 33,2335           02566                           DEC      1398       B-14                       #  DELAY 14 SECONDS
000354:
000355: 33,2336           05106        TIG4-16            TC       2LMP+DT
000356: 33,2337           00344                           DEC      228        B-14                       #  DPS PQGS ARM NO 1 - ENABLE
000357: 33,2340           00304                           DEC      196        B-14                       #  DPS PQGS ARM NO 2- ENABLE
000358: 33,2341           00144                           DEC      100        B-14
000359:
000360: 33,2342           05106        TIG4-15            TC       2LMP+DT
000361: 33,2343           00364                           DEC      244        B-14                       #  DPS PQGS NO 1- ON
000362: 33,2344           00324                           DEC      212        B-14                       #  DPS PQGS NO 2- ON
000363: 33,2345           01356                           DEC      750        B-14                       #  DELAY 7.5 SECONDS
000364:
000365: 33,2346           05307        TIG4-7.5           TC       IBNKCALL                              #  +X TRANSLATION- ON
000366: 33,2347           34024                           CADR     ULLAGE
000367:
000368: 33,2350           05717                           TC       FIXDELAY
000369: 33,2351           01356                           DEC      750        B-14                       #  DELAY 7.5 SECONDS
000370:
000371: 33,2352           35670                           CAF      PRIO31                                #  SET UP JOB FOR ATTSTAL
000372: 33,2353           05523                           TC       NOVAC
000373: 33,2354  E4,1566                                  EBANK=   TDEC
000374: 33,2354           02357 66064                     2CADR    IGNTEST
000375:
000376: 33,2356           15745                           TCF      TASKOVER
000377:
000378: 33,2357           05224        IGNTEST            TC       BANKCALL                              #  WAIT UNTIL MANEUVER IS FINISHED
000379: 33,2360           26754                           CADR     ATTSTALL
000380: 33,2361           04732                           TC       CURTAINS
000381:
000382: 33,2362           06054        MP4IGN             TC       ENGINEON                              #  IGNITE DPS ENGINE
000383:
000384: 33,2363           32531                           CAF      THRSTADR                              #  DECLARE EBANK= 6
000385: 33,2364           54003                           TS       EBANK


000387: 33,2365  E6,1523                                  EBANK=   THRSTCMD
000388:
000389: 33,2365           32472                           CAF      10PERTHR                              #  REPORT EXPECTED THRUST TO DAP
000390: 33,2366           55523                           TS       THRSTCMD
000391:
000392: 33,2367           00004                           INHINT
000393: 33,2370           32464                           CAF      003CEK
000394: 33,2371           05701                           TC       WAITLIST
000395: 33,2372  E4,1566                                  EBANK=   TDEC
000396: 33,2372           02375 66064                     2CADR    MP4IGN+3
000397:
000398: 33,2374           15605                           TCF      ENDOFJOB
000399:
000400: 33,2375           05307        MP4IGN+3           TC       IBNKCALL                              #  +X TRANSLATION- OFF
000401: 33,2376           34030                           CADR     NOULLAGE
000402:
000403: 33,2377           05114                           TC       1LMP+DT
000404: 33,2400           00005                           DEC      5          B-14                       #  ED BATTERY ACTIVATION- SAFE
000405: 33,2401           04374                           DEC      2300       B-14                       #  DELAY 23 SECONDS
000406:
000407: 33,2402           37735        MAXTHRST           CAF      POSMAX                                #  CALL FOR 92.5 PERCENT THRUST
000408: 33,2403           55335                           TS       PCNTF
000409: 33,2404           00006                           EXTEND
000410: 33,2405           32541                           DCA      PCNTFMAD
000411: 33,2406           52006                           DTCB
000412:
000413: 33,2407           32473                           CAF      92PERTHR                              #  REPORT EXPECTED THRUST TO DAP
000414: 33,2410           55523                           TS       THRSTCMD
000415:
000416: 33,2411           32527                           CAF      TDECADR                               #  DECLARE EBANK= 4
000417: 33,2412           54003                           TS       EBANK
000418: 33,2413  E4,1566                                  EBANK=   TDEC
000419:
000420: 33,2413           05717                           TC       FIXDELAY
000421: 33,2414           00144                           DEC      100        B-14                       #  DELAY ONE SECOND
000422:
000423: 33,2415           00006        GUIDANCE           EXTEND                                         #  TUNE IN ASCENT GUIDANCE
000424: 33,2416           32543                           DCA      ATMAG4
000425: 33,2417           53073                           DXCH     AVGEXIT
000426:
000427: 33,2420           32547                           CAF      CDUJOBAD
000428: 33,2421           55450                           TS       ASCRET
000429:
000430: 33,2422           15745                           TCF      TASKOVER
000431:
000432: 33,2423           00006        MP4TERM1           EXTEND
000433: 33,2424           32535                           DCA      EXITADR                               #  RESET AVERAGE G EXIT
000434: 33,2425           53073                           DXCH     AVGEXIT
000435:
000436: 33,2426           05224                           TC       BANKCALL


000438:
000439: 33,2427           34057                           CADR     STOPRATE                              #  HOLD VEHICLE ATTITUDE
000440:
000441: 33,2430           00004                           INHINT
000442: 33,2431           32465                           CAF      005CEK
000443: 33,2432           05701                           TC       WAITLIST
000444: 33,2433  E4,1566                                  EBANK=   TDEC
000445: 33,2433           02436 66064                     2CADR    TCO+5
000446:
000447: 33,2435           15605                           TCF      ENDOFJOB
000448:
000449: 33,2436           05106        TCO+5              TC       2LMP+DT
000450: 33,2437           00227                           DEC      151        B-14                       #  ENGINE SELECT-DESC ARM-OFF
000451: 33,2440           00127                           DEC      87         B-14                       #  MANUAL THROTTLE-RESET (30 PERCENT)
000452: 33,2441           00144                           DEC      100        B-14                       #  DELAY ONE SECOND
000453:
000454: 33,2442           05307                           TC       IBNKCALL                              #  SET MAXIMUM DEADBAND
000455: 33,2443           34012                           CADR     SETMAXDB
000456:
000457: 33,2444           05717                           TC       FIXDELAY
000458: 33,2445           01604                           DEC      900        B-14                       #  DELAY NINE SECONDS
000459:
000460: 33,2446           05106        TCO+15             TC       2LMP+DT
000461: 33,2447           00365                           DEC      245        B-14                       #  DPS PQGS NO 1- OFF
000462: 33,2450           00325                           DEC      213        B-14                       #  DPS PQGS NO 2- OFF
000463: 33,2451           00144                           DEC      100        B-14
000464:
000465: 33,2452           05106                           TC       2LMP+DT
000466: 33,2453           00345                           DEC      229        B-14                       #  DPS PQGS ARM NO 1- DISABLE
000467: 33,2454           00305                           DEC      197        B-14                       #  DPS PQGS ARM NO 2- DISABLE
000468: 33,2455           02570                           DEC      1400       B-14                       #  DELAY 14 SECONDS
000469:
000470: 33,2456           06036                           TC       FLAG1DWN                              #  TERMINATE AVEG AND DO AUTO AVETOMID
000471: 33,2457           00001                           OCT      1
000472:
000473: 33,2460           47753                           CS       FOUR                                  #  ALLOW AVEG TO POOH IF IT WANTS TO.
000474: 33,2461           54765                           TS       PHASENUM
000475:
000476: 33,2462           15745                           TCF      TASKOVER
000477:
000478:                                                                                                  #  ************************************************************************
000479:                                                                                                  #  TIME INCREMENTS FOR WAITLISTS IN MP4 - XXXXXCEK = DEC XXXXX00 CS
000480:                                                                                                  #  ************************************************************************         4
000481: 33,2463           00310        002CEK             DEC      200        B-14
000482:
000483: 33,2464           00454        003CEK             DEC      300        B-14
000484:
000485: 33,2465           00764        005CEK             DEC      500        B-14
000486:
000487: 33,2466           01274        007CEK             DEC      700        B-14


000489:
000490: 33,2467           04064        021CEK             DEC      2100       B-14
000491:
000492: 33,2470           05670        030CEK             DEC      3000       B-14
000493:
000494: 33,2471           00252        XTRANSON           OCT      00252                                 #  CHANNEL 5 CODE FOR 4-JET TRANSLATION
000495:
000496: 33,2472           02032        10PERTHR           DEC      1050       B-14
000497:
000498: 33,2473           22756        92PERTHR           DEC      9710       B-14
000499:
000500:                                                                                                  #  ************************************************************************
000501:                                                                                                  #  CONSTANTS FOR PRECOI CALCULATIONS AND FOR INITIALIZATION OF ASCENT EO.
000502:                                                                                                  #  ************************************************************************
000503: 33,2474           04520 01267  ABLOCK             2DEC     2.8420     E-4        B9              #  MAXACC92
000504:
000505: 33,2476           21231 12223                     2DEC     3.3788     E-2        B4              #  1/EXVEL
000506:
000507: 33,2500           31330 10000                     2DEC     1.0413     E5         B-17            #  TBUP4
000508:
000509: 33,2502           00000 00000  BBLOCK             2DEC     0          B-28                       #  ACCSTEP
000510:
000511: 33,2504           00000 00000                     2DEC     0          B-28                       #  ACCSTEP +2
000512:
000513: 33,2506           36314 31463  KREST              2DEC     0.95
000514:
000515: 33,2510           11727 01217  KR1EST             2DEC     0.31
000516:
000517: 33,2512           14152 00000  TGOEST             2DEC     50000      B-17
000518:
000519: 33,2514           20000 00000  BODYVECT           2DEC     .5
000520:
000521: 33,2516           00000 00000  CBLOCK             2DEC     0          B-28                       #  RDOTD
000522:
000523: 33,2520           00000 00000                     2DEC     0          B-28                       #  YDOTD
000524:
000525: 33,2522           23462 33073                     2DEC     7.8397245  E1         B-7
000526:
000527: 33,2524           14356 15012  RCRIT              2DEC*    6.5355846  E6         B-24*
000528:
000529:                                                                                                  #  ************************************************************************
000530:                                                                                                  #  GENADRS, ECADRS, AND 2CADRS USED IN MP4
000531:                                                                                                  #  ************************************************************************
000532:
000533: 33,2526           02233        AVGENADR           GENADR   AVERAGEG
000534:
000535: 33,2527           02166        TDECADR            ECADR    TDEC                                  #  FOR EBANK= 4
000536:
000537: 33,2530           02540        MASSADR            ECADR    MASSES                                #  FOR EBANK= 5
000538:


000540: 33,2531           03123        THRSTADR           ECADR    THRSTCMD                              #  FOR EBANK= 6
000541:
000542: 33,2532  E4,1566                                  EBANK=   TDEC
000543: 33,2532           02423 66064  MP4TM1AD           2CADR    MP4TERM1
000544:
000545: 33,2534  E4,1566                                  EBANK=   TDEC
000546: 33,2534           02312 60064  EXITADR            2CADR    SERVEXIT
000547:
000548: 33,2536  E4,1400                                  EBANK=   AMEMORY
000549: 33,2536           02304 16004  ORBINTAD           2CADR    MIDTOAVE
000550:
000551: 33,2540  E5,1557                                  EBANK=   ETHROT
000552: 33,2540           03367 60065  PCNTFMAD           2CADR    PCNTFMAX
000553:
000554: 33,2542  E4,1566                                  EBANK=   TDEC
000555: 33,2542           02713 64064  ATMAG4             2CADR    ATMAG
000556:
000557: 33,2544  E4,1566                                  EBANK=   TDEC
000558: 33,2544           05605 04004  WACTTHTD           2CADR    ENDOFJOB
000559:
000560: 33,2546           66252        KALC4AD            FCADR    PREKALC4
000561:
000562: 33,2547           60643        CDUJOBAD           FCADR    FINDCDUD
000563:
000564:                                                                                                  #  ************************************************************************
000565:                                                                                                  #  TASKSETR SUBROUTINE - NOT YET AVAILABLE TO OTHER FIXED BANKS
000566:
000567:                                                                                                  #  ************************************************************************
000568:
000569: 33,2550           00004        TASKSETR           INHINT
000570: 33,2551           00006                           EXTEND
000571: 33,2552           23154                           QXCH     TEMX
000572: 33,2553           54001                           TS       L
000573: 33,2554           37761                           CAF      ZERO
000574: 33,2555           52145                           DXCH     MPAC
000575: 33,2556           52071                           DXCH     RUPTREG1
000576: 33,2557           37761                           CAF      ZERO
000577: 33,2560           56146                           XCH      MPAC       +2
000578: 33,2561           54072                           TS       RUPTREG3
000579: 33,2562           00006                           EXTEND
000580: 33,2563           40025                           DCS      TIME2
000581: 33,2564           20145                           DAS      MPAC
000582: 33,2565           30003                           CA       EBANK
000583: 33,2566           55155                           TS       TEMY
000584: 33,2567           32527                           CAF      TDECADR
000585: 33,2570           54003                           TS       EBANK
000586: 33,2571           00006                           EXTEND
000587: 33,2572           31567                           DCA      TDEC
000588: 33,2573           20145                           DAS      MPAC
000589: 33,2574           07320                           TC       TPAGREE
000590: 33,2575           30072                           CA       RUPTREG3


000592: 33,2576           54146                           TS       MPAC       +2
000593: 33,2577           52071                           DXCH     RUPTREG1
000594: 33,2600           52145                           DXCH     MPAC
000595: 33,2601           00006                           EXTEND
000596: 33,2602           12605                           BZF      +3
000597: 33,2603           06000                           TC       ABORT
000598: 33,2604           00404                           OCT      00404
000599: 33,2605           56001                           XCH      L
000600: 33,2606           00006                           EXTEND
000601: 33,2607           62603                           BZMF     -4
000602: 33,2610           23155                           LXCH     TEMY
000603: 33,2611           22003                           LXCH     EBANK
000604: 33,2612           00003                           RELINT
000605: 33,2613           01154                           TC       TEMX
000606:                                                                                                  #  ************************************************************************

End of include-file MP4-CONTINGENCY_ORBIT_INSERTION.agc.  Parent file is MAIN.agc


