
Source Code


000002:                                                                                                  ## Copyright:   Public domain.
000003:                                                                                                  ## Filename:    MP9-DPS_1_BURN.agc
000004:                                                                                                  ## Purpose:     A section of Sunburst revision 37, or Shepatin revision 0.
000005:                                                                                                  ##              It is part of an early development version of the software
000006:                                                                                                  ##              for Apollo Guidance Computer (AGC) on the unmanned Lunar
000007:                                                                                                  ##              Module (LM) flight Apollo 5. Sunburst 37 was the program
000008:                                                                                                  ##              upon which Don Eyles's offline development program Shepatin
000009:                                                                                                  ##              was based; the listing herein transcribed was actually for
000010:                                                                                                  ##              the equivalent revision 0 of Shepatin.
000011:                                                                                                  ##              This file is intended to be a faithful transcription, except
000012:                                                                                                  ##              that the code format has been changed to conform to the
000013:                                                                                                  ##              requirements of the yaYUL assembler rather than the
000014:                                                                                                  ##              original YUL assembler.
000015:                                                                                                  ## Reference:   pp. 684-692
000016:                                                                                                  ## Assembler:   yaYUL
000017:                                                                                                  ## Contact:     Ron Burkey <info@sandroid.org>.
000018:                                                                                                  ## Website:     www.ibiblio.org/apollo/index.html
000019:                                                                                                  ## Mod history: 2017-05-24 MAS  Created from Sunburst 120.
000020:                                                                                                  ##              2017-06-14 RSB  Transcribe
000021:                                                                                                  ##              2017-06-14 HG   Fix operand THRUSTCMD -> THRSTCMD
000022:                                                                                                  ##                                          AVEXIT    -> AVGEXIT
000023:                                                                                                  ##              2017-06-15 HG   Fix value DELTAT9    B-35 -> B-38
000024:


000026:                                                                                                  #  MISSION PHASE 9
000027:
000028: 33,2614                                           BANK     33
000029: 33,2614  E4,1566                                  EBANK=   TDEC
000030:                                                                                                  #  PROGRAM DESCRIPTION-MISSION PHASE9-DPS1 BURN                            DATE-28 OCT 66
000031:                                                                                                  #  MOD NO-2                                                                LOG SECTION-MP9
000032:                                                                                                  #  MOD BY- CHO                                                             ASSEMBLY-SUNBURST REV24
000033:
000034:                                                                                                  #  FUNCTIONAL DESCRIPTION
000035:                                                                                                  #          THIS PHASE IS STARTED 3HOUR 1MIN AND 49SECS AFTER THE TERMINATI ON OF SIVB/LEM SEPARATION +X TRANSLATI
000036:                                                                                                  #  ON AND BY THE INITIATION OF PROGRAM 31 (PRE-DPS1 BURN). PROGRAM 31      CALLS FOR DPS CUTOFF TDI 5MIN AND
000037:                                                                                                  #  15SECS LATER. IN ORDER TO ALIGN THE VEHICLE THRUST AXIS ALONG THE DESIRED ACCELERATION VECTOR DURING PRE-DPS1
000038:                                                                                                  #  PHASE, THE FOLLOWING COMPUTATIONS ARE MADE - VEHICLE STATE VECTOR FORWARD INTEGRATION TO THE DESCENT
000039:                                                                                                  #  INJECTION CUTOFF TIME TDI, VELOCITY TO BE GAINED VG, THE MANEUVER THRUST TIME TTHRUST, DPS1 IGNITION TIME TIGN
000040:                                                                                                  #  AND FINALLY DESIRED THRUST DIRECTION UNITVG. PROGRAM 31 ALSO COMMANDS LANDING GEAR DEPLOYMENT AND CALL FOR
000041:                                                                                                  #  A MANEUVER TO THE FIRING ATTITUDE.
000042:                                                                                                  #          PROGRAM 41, DPS1 BURN IS STARTED 36SECS BEFORE IGNITION. THIS PROGRAM ARMS THE DESCENT ENGINE,
000043:                                                                                                  #  COMMANDS +X TRANSLATION AND COMMANDS ENGINE ON. DURING THE BURN, THE VELOCITY TO BE GAINED  AND TIME TO
000044:                                                                                                  #  CUTOFF TGO ARE COMPUTED EVERY TWO SECONDS. WHEN TGO FALLS BELOW THE CRITICAL VALUE ENGINE OFF SIGNAL COUNTER
000045:                                                                                                  #  IS SET. WHEN POST ENGINE CUTOFF ROUTINE IS PERFORMED, MPENTRY NO.1 IS SET TO START MP11 IN 31MIN 11SECS.
000046:
000047:                                                                                                  #  CALLING SEQUENCE- AFTER THE TERMINATION OF SIVB/LEM SEPARATION +X TRANSLATION AND BY THE INITIATION OF
000048:                                                                                                  #  PROGRAM 31.
000049:
000050:                                                                                                  #  NORMAL EXIT MODES- TASKOVER (AWAITS MPENTRY INTO MP11 VIA NO.1)
000051:
000052:                                                                                                  #  ALARM EXIT MODE- NONE
000053:
000054:                                                                                                  #  SUBROUTINES CALLED- FIXDELAY, 1LMP, 2LMP, EXECUTIVE, MIDTOAVE, BANKCALL, IBNKCALL, WAITLIST, KALCMANU,
000055:                                                                                                  #  UL4JETON, UL4JETOFF, ENGINEON, ENGINOFF, NEWMODEX, DFITCAL, RVUPDADR, TPAGREE, TASKOVER, ENDOFJOB, ENGOF1
000056:
000057:
000058:                                                                                                  #  INPUT- RN, VN, RP, MUEARTH, TDI
000059:
000060:                                                                                                  #  OUTPUT- VG, TTHRUST, TIGN, UNITVG, TGO
000061:
000062:                                                                                                  #  ERASABLE INITIALIZATION REQUIRED-
000063:
000064:                                                                                                  #  DEBRIS- TDEC
000065:
000066: 33,2614           04105        MP9JOB             TC       NEWMODEX                              #  DISPLAY PROGRAM NUMBER IN DSKY
000067: 33,2615           00031                           OCTAL    31
000068:
000069: 33,2616  E4,1566                                  EBANK=   TDEC
000070: 33,2616           00006                           EXTEND
000071: 33,2617           30025                           DCA      TIME2                                 #  PICK UP CURRENT TIME
000072: 33,2620           53666                           DXCH     TDI
000073: 33,2621           00006                           EXTEND
000074: 33,2622           33264                           DCA      5M15S
000075: 33,2623           21666                           DAS      TDI                                   #  SET TDI=TIME2+5M15S
000076:


000078:
000079: 33,2624           33247                           CAF      EQU2ADR                               #  SET COMPUTATIINAL STEPS
000080: 33,2625           55662                           TS       SHJUMP1
000081:
000082: 33,2626           00006                           EXTEND
000083: 33,2627           31666                           DCA      TDI
000084: 33,2630           53567                           DXCH     TDEC
000085: 33,2631           00006                           EXTEND
000086: 33,2632           33256                           DCA      RVUPDADR                              #  STATE VECTOR UPDATE FOR PRE-DPS1 BURN
000087:
000088: 33,2633           52006                           DXCH     Z
000089:
000090: 33,2634           06103                           TC       INTPRET
000091: 33,2635           77624                           CALL
000092: 33,2636           60347                                    VPATCHER                              #  RESCALE AND LOAD TDI STATES IN RN AN VN
000093: 33,2637           77650                           GOTO
000094: 33,2640           67204                                    DPS1EQU1                              #  COMPUTES VELOCITY TO BE GAINED.
000095:
000096: 33,2641           77745        DPS1EQU2           DLOAD                                          #  COMPUTES MANEUVER THRUST TIME
000097: 33,2642           00045                                    LV                                    #  ABVAL(VG)
000098: 33,2643           45261                           SR       DSU
000099: 33,2644           20613                                    10D                                   #  NOW VG SCALED AT 2(+17)M/CS
000100: 33,2645           27266                                    DPA
000101: 33,2646           43271                           DDV      DAD
000102: 33,2647           27270                                    DPB
000103: 33,2650           27272                                    DPC
000104: 33,2651           26264                           STOVL    TTHRUST                               #  SCALED AT 2(+28)CS
000105: 33,2652           02272                                    UNITVG
000106: 33,2653           25656                           STOVL    POINTVSM                              #  KALCMANU INPUT REGISTER
000107: 33,2654           26515                                    BODYVECT                              #  LOAD BODY AXES VECTOR IN SM COORD.
000108: 33,2655           01664                           STORE    SCAXIS                                #  KALCMANU INPUT VECTOR
000109: 33,2656           66214                           SET      SSP
000110: 33,2657           01063                                    33D
000111:
000112: 33,2660           01653                                    RATEINDX
000113: 33,2661           00004                                    4                                     #  SET KALCMANU FOR ANGULAR RATE OF 5DEG/S
000114: 33,2662           77776                           EXIT
000115:
000116: 33,2663           00006                           EXTEND
000117: 33,2664           41664                           DCS      TTHRUST                               #  COMPUTES TIGN
000118: 33,2665           53670                           DXCH     TIGN
000119:
000120: 33,2666           00006                           EXTEND
000121: 33,2667           31666                           DCA      TDI
000122: 33,2670           21670                           DAS      TIGN                                  #  TIGN=TDI-TTHRUST  (SCALED AT 2(+28)CS)
000123: 33,2671           33250                           CAF      EQU3ADR
000124: 33,2672           55662                           TS       SHJUMP1
000125:
000126: 33,2673           00004                           INHINT
000127: 33,2674           33310                           CAF      90SECS9                               #  CALL POSTKALC 90 SECS LATER
000128: 33,2675           05701                           TC       WAITLIST
000129: 33,2676  E4,1566                                  EBANK=   TDEC
000130: 33,2676           02710 66064                     2CADR    POSTKALC


000132: 33,2700           35226                           CAF      PRIO30                                #  CALL KALCMANU JOB- START INDICATOR UP*
000133: 33,2701           05534                           TC       FINDVAC
000134: 33,2702  E3,1535                                  EBANK=   MIS
000135: 33,2702           02001 70063                     2CADR    VECPOINT
000136:
000137: 33,2704           05224                           TC       BANKCALL
000138: 33,2705           26754                           CADR     ATTSTALL                              #  SEE IF KALCMANU FINISHED
000139: 33,2706           04732        CURT9              TC       CURTAINS                              #  UNFINISHED MANEUVER
000140:
000141: 33,2707           15605                           TCF      ENDOFJOB                              #  GOOD RETURN- END MP9JOB
000142:
000143: 33,2710           33304        POSTKALC           CAF      10SECS9                               #  CALL DFITMTSK 10SECS LATER
000144: 33,2711           05701                           TC       WAITLIST
000145: 33,2712  E3,1746                                  EBANK=   TGRR
000146:
000147: 33,2712           02206 56003                     2CADR    DFITMTSK                              #  DFI T/M CALIBRATION ROUTINE
000148:
000149: 33,2714           40076                           CS       FLAGWRD2                              #  CHECK KALCMANU BIT
000150: 33,2715           77743                           MASK     BIT11
000151: 33,2716           10000                           CCS      A
000152:
000153: 33,2717           02725                           TC       GOODKALC                              #  GOOD RETURN
000154:
000155: 33,2720           35676                           CAF      PRIO37                                #  BAD RETURN
000156: 33,2721           05534                           TC       FINDVAC
000157: 33,2722  E4,1566                                  EBANK=   TDEC
000158: 33,2722           02706 66064                     2CADR    CURT9
000159:
000160: 33,2724           05745                           TC       TASKOVER                              #  END POSTKALC TASK
000161:
000162: 33,2725           33305        GOODKALC           CAF      11SECS9
000163: 33,2726           05701                           TC       WAITLIST
000164: 33,2727  E4,1566                                  EBANK=   TDEC
000165: 33,2727           02747 66064                     2CADR    182LMP
000166:
000167: 33,2731           00006                           EXTEND                                         #  CALL DPS1 BURN PROG. AT TIGN-36SECS.
000168: 33,2732           40025                           DCS      TIME2
000169: 33,2733           52062                           DXCH     ITEMP1
000170:
000171: 33,2734           00006                           EXTEND
000172: 33,2735           31670                           DCA      TIGN
000173: 33,2736           20062                           DAS      ITEMP1
000174: 33,2737           00006                           EXTEND
000175: 33,2740           43262                           DCS      36SECSD9
000176: 33,2741           20062                           DAS      ITEMP1
000177: 33,2742           52062                           DXCH     ITEMP1
000178:
000179: 33,2743           05757                           TC       LONGCALL
000180: 33,2744  E4,1566                                  EBANK=   TDEC
000181: 33,2744           02767 66064                     2CADR    TIG9-36
000182:
000183: 33,2746           15745                           TCF      TASKOVER                              #  END GOODKALC TASK


000185:
000186: 33,2747           05106        182LMP             TC       2LMP+DT
000187: 33,2750           00266                           DEC      182        B-14                       #  LANDING RADAR POWER ON
000188: 33,2751           00032                           DEC      26         B-14                       #  RADAR SELF TEST-ON
000189: 33,2752           11444                           DEC      4900       B-14
000190:
000191: 33,2753           05114                           TC       1LMP+DT
000192: 33,2754           00004                           DEC      4          B-14                       #  ED BATTERY ACTIVATION -ON
000193: 33,2755           00764                           DEC      500        B-14
000194:
000195: 33,2756           05114                           TC       1LMP+DT
000196: 33,2757           00010                           DEC      8          B-14                       #  LANDING GEAR DEPLOY -FIRE
000197: 33,2760           00310                           DEC      200        B-14
000198:
000199: 33,2761           05114                           TC       1LMP+DT
000200: 33,2762           00011                           DEC      9          B-14                       #  LANDING GEAR DEPLOY- FIRE RESET
000201: 33,2763           00620                           DEC      400        B-14
000202:
000203: 33,2764           05073                           TC       1LMP
000204: 33,2765           00033                           DEC      27         B-14                       #  RADAR SELF TEST-OFF.
000205:
000206: 33,2766           05745                           TC       TASKOVER                              #  END 182LMP TASK
000207:
000208: 33,2767           04105        TIG9-36            TC       NEWMODEX                              #  DISPLAY PROGRAM NUMBER ON DSKY
000209: 33,2770           00041                           OCT      41
000210:
000211: 33,2771           06074                           TC       ENGINOF1                              #  MAKE SURE ENGINE OFF
000212:
000213: 33,2772           05065                           TC       2LMP
000214: 33,2773           00226                           DEC      150        B-14                       #  ENGINE SELECT DESC ARM
000215: 33,2774           00126                           DEC      86         B-14                       #  MANUAL THROTTLE ON (10PERCENT)
000216:
000217: 33,2775           33306                           CA       20SECS9
000218: 33,2776           05701                           TC       WAITLIST
000219: 33,2777  E4,1566                                  EBANK=   TDEC
000220: 33,2777           03234 66064                     2CADR    228LMP
000221:
000222: 33,3001           35667                           CAF      PRIO27
000223: 33,3002           05534                           TC       FINDVAC
000224: 33,3003  E4,1566                                  EBANK=   TDEC
000225: 33,3003           03006 66064                     2CADR    ORBINTJB
000226:
000227: 33,3005           15745                           TCF      TASKOVER                              #  END TIG9-36 TASK
000228:
000229: 33,3006           00006        ORBINTJB           EXTEND
000230: 33,3007           31670                           DCA      TIGN
000231: 33,3010           53567                           DXCH     TDEC
000232: 33,3011           43307                           CS       30SECS9
000233: 33,3012           54001                           TS       L
000234: 33,3013           47761                           CS       ZERO
000235: 33,3014           21567                           DAS      TDEC                                  #  TDEC NOW CONTAINS TIGN-30 SECS.
000236:


000238: 33,3015           00006                           EXTEND
000239: 33,3016           32537                           DCA      ORBINTAD
000240:
000241: 33,3017           52006                           DXCH     Z
000242:
000243:                                                                                                  #  RN AND VN IN STABLE MEMBER COORDINATES. SCALING IS AS IN AVEG.
000244:
000245:                                                                                                  #           DELETE
000246: 33,3020           32526                           CAF      AVGENADR
000247: 33,3021           55322                           TS       DVSELECT                              #  SELECT AGS MONITOR
000248:
000249: 33,3022           00006                           EXTEND
000250: 33,3023           32535                           DCA      EXITADR
000251: 33,3024           53073                           DXCH     AVGEXIT                               #  SET AVERAGEG EXIT
000252:
000253: 33,3025           00006                           EXTEND
000254: 33,3026           33254                           DCA      MP9TM1AD
000255: 33,3027           53075                           DXCH     DVMNEXIT                              #  SET MONITOR EXIT
000256:
000257: 33,3030           43307                           CS       30SECS9                               #  CALL PREREAD AT TIGN-30SECS.
000258: 33,3031           02550                           TC       TASKSETR
000259:
000260: 33,3032           00004                           INHINT
000261: 33,3033           05701                           TC       WAITLIST
000262: 33,3034  E5,1506                                  EBANK=   DVTOTAL
000263: 33,3034           02000 60065                     2CADR    PREREAD
000264:
000265: 33,3036           43302                           CS       4SECS9                                #  CALL TVC FOR DPS1 AT TIG-4SECS
000266: 33,3037           02550                           TC       TASKSETR
000267: 33,3040           00004                           INHINT
000268: 33,3041           05701                           TC       WAITLIST
000269: 33,3042     1072                                  EBANK=   AVGEXIT
000270: 33,3042           03045 66062                     2CADR    TIG9-4
000271:
000272: 33,3044           15605                           TCF      ENDOFJOB                              #  END ORBITAL INTEGRATION JOB
000273:
000274: 33,3045           33302        TIG9-4             CAF      4SECS9                                #  DO ENGINE ON AT TIG-0 SEC
000275: 33,3046           05701                           TC       WAITLIST
000276: 33,3047  E6,1523                                  EBANK=   THRSTCMD
000277: 33,3047           03055 66066                     2CADR    TIG9-0
000278:
000279: 33,3051           00006                           EXTEND
000280: 33,3052           33252                           DCA      EQU1ADR
000281: 33,3053           53073                           DXCH     AVGEXIT                               #  AVG ROUTINE GOES TO VG COMPUTATION
000282:
000283: 33,3054           15745                           TCF      TASKOVER                              #  END TIG9-4 TASK
000284:
000285: 33,3055           06054        TIG9-0             TC       ENGINEON                              #  COMMAND ENGINE ON
000286:
000287: 33,3056           05717                           TC       FIXDELAY
000288: 33,3057           00062                           DEC      50         B-14


000290:
000291: 33,3060           05307                           TC       IBNKCALL
000292: 33,3061           34030                           CADR     NOULLAGE                              #  +X TRANSLATION-  OFF
000293:
000294: 33,3062  E6,1523                                  EBANK=   THRSTCMD                              #  DECLARE EBANK=6
000295: 33,3062           32472                           CAF      10PERTHR                              #  REPORT 10 PERCENT THRUST TO DAP
000296: 33,3063           55523                           TS       THRSTCMD
000297:
000298: 33,3064           05717                           TC       FIXDELAY
000299:
000300: 33,3065           00372                           DEC      250        B-14
000301:
000302: 33,3066           05114                           TC       1LMP+DT
000303: 33,3067           00005                           DEC      5          B-14                       #  ED BATTERY ACTIVATION-SAFE
000304: 33,3070           04374                           DEC      2300       B-14
000305:
000306: 33,3071           37735        MAXTHR9            CAF      POSMAX                                #  CALL FOR 92.5 PERCENT THRUST
000307: 33,3072           55335                           TS       PCNTF
000308: 33,3073           00006                           EXTEND
000309: 33,3074           32541                           DCA      PCNTFMAD
000310: 33,3075           52006                           DTCB
000311:
000312: 33,3076           32473                           CAF      92PERTHR                              #  REPORT THRUST TO DAP
000313: 33,3077           55523                           TS       THRSTCMD
000314: 33,3100           15745                           TCF      TASKOVER                              #  END TIG9-0 TASK
000315:
000316: 33,3101  E4,1566                                  EBANK=   TDEC                                  #  DECLARE EBANK=4
000317:
000318: 33,3101           77624        DPS1EQU3           CALL
000319: 33,3102           67111                                    CALCTGO
000320: 33,3103           77775                           VLOAD
000321: 33,3104           02272                                    UNITVG
000322: 33,3105           02233                           STORE    AXISD                                 #  FINDCDUD INPUT
000323: 33,3106           77624                           CALL
000324: 33,3107           60643                                    FINDCDUD
000325:
000326: 33,3110           15605                           TCF      ENDOFJOB                              #  END DPS1EQU3 JOB DURING BURN ONLY
000327:
000328: 33,3111           45345        CALCTGO            DLOAD    DSU
000329: 33,3112           00045                                    LV                                    #  ABVAL(VG)
000330: 33,3113           27274                                    VTAILOFF
000331: 33,3114           56205                           DMP      DDV
000332: 33,3115           27276                                    DELTAT9
000333: 33,3116           02535                                    ABDELV
000334: 33,3117           02350                           STORE    TTGO                                  #  FOR DWLK ONLY
000335:
000336: 33,3120           02350                           STORE    TGO
000337:
000338: 33,3121           51025                           DSU      BPL
000339: 33,3122           27260                                    4SECSD9
000340: 33,3123           00052                                    QPRET
000341: 33,3124           77776                           EXIT


000343:
000344: 33,3125           00004                           INHINT                                         #  CUTOFF SIGNAL COUNTER SET
000345: 33,3126           31750                           CA       TGO        +1
000346: 33,3127           05701                           TC       WAITLIST
000347: 33,3130     0766                                  EBANK=   CDUXD
000348: 33,3130           03133 66061                     2CADR    CUTOFF
000349:
000350: 33,3132           15605                           TCF      ENDOFJOB                              #  END DPS1 BURN EQUATION JOB
000351:
000352: 33,3133           06071        CUTOFF             TC       ENGINOFF                              #  ENGINE OFF
000353:
000354: 33,3134           05307                           TC       IBNKCALL
000355: 33,3135           34057                           CADR     STOPRATE                              #  HOLD VEHICLE ATTITUDE
000356:
000357: 33,3136           15745                           TCF      TASKOVER                              #  END CUTOFF TASK
000358:
000359: 33,3137           00006        MP9TERM1           EXTEND
000360: 33,3140           32535                           DCA      EXITADR
000361: 33,3141           53073                           DXCH     AVGEXIT
000362:
000363: 33,3142           00004                           INHINT
000364: 33,3143           33303                           CAF      5SECS9
000365: 33,3144           05701                           TC       WAITLIST
000366: 33,3145  E4,1566                                  EBANK=   TDEC
000367: 33,3145           03150 66064                     2CADR    87LMP
000368:
000369: 33,3147           15605                           TCF      ENDOFJOB                              #  END MP9TERM1 JOB
000370:
000371: 33,3150           05106        87LMP              TC       2LMP+DT
000372: 33,3151           00127                           DEC      87         B-14                       #  MANUAL THROTTLE - RESET (30 PERCENT.)
000373: 33,3152           00227                           DEC      151        B-14                       #  ENGINE SELECT-DESC ARM-OFF
000374: 33,3153           01750                           DEC      1000       B-14
000375:
000376: 33,3154           05106                           TC       2LMP+DT
000377: 33,3155           00365                           DEC      245        B-14                       #  DPS PQGS NO1 - OFF
000378: 33,3156           00325                           DEC      213        B-14                       #  DPS PQGS NO2 - OFF
000379: 33,3157           00144                           DEC      100        B-14
000380:
000381: 33,3160           05106                           TC       2LMP+DT
000382:
000383: 33,3161           00345                           DEC      229        B-14                       #  DPS PQGS ARM NO1 DISABLE
000384: 33,3162           00305                           DEC      197        B-14                       #  DPS PQGS ARM NO2 DISABLE
000385: 33,3163           02570                           DEC      1400       B-14
000386:
000387: 33,3164           05307                           TC       IBNKCALL
000388: 33,3165           34012                           CADR     SETMAXDB
000389:
000390: 33,3166           05073                           TC       1LMP
000391: 33,3167           00032                           DEC      26         B-14                       #  RADAR SELF TEST ON
000392:
000393: 33,3170           05717                           TC       FIXDELAY
000394: 33,3171           13560                           DEC      6000       B-14


000396:
000397: 33,3172           05065                           TC       2LMP
000398: 33,3173           00033                           DEC      27         B-14                       #  RADAR SELF TEST POWER - OFF
000399: 33,3174           00267                           DEC      183        B-14                       #  LANDING RADAR POWER - OFF
000400:
000401: 33,3175           05141                           TC       MPENTRY                               #  CALL NEXT MISSION ENTRY ROUTINE
000402: 33,3176           00001                           DEC      1          B-14
000403: 33,3177           00013                           DEC      11         B-14
000404: 33,3200           01752                           ADRES    MP9-11DT
000405:
000406: 33,3201           06036                           TC       FLAG1DWN                              #  KNOCK DOWN AVERAGEG FLAG
000407: 33,3202           00001                           OCT      00001
000408:
000409: 33,3203           15745                           TCF      TASKOVER                              #  MISSION PHASE 9 COMPLETE
000410:
000411: 33,3204           47375        DPS1EQU1           VLOAD    VXV
000412: 33,3205           01017                                    VN                                    #  VN SCALED AT 2(+7)M/CS
000413: 33,3206           01033                                    UNITR                                 #  UNITR IS UNIT VECTOR ALONG RN
000414: 33,3207           63256                           UNIT     PDVL
000415: 33,3210           01033                                    UNITR
000416: 33,3211           77635                           VXV
000417: 33,3212           43325                           PDDL     DAD
000418: 33,3213           02355                                    RP                                    #  TARGET DISTANCE - PERIGEE OR APOGEE
000419: 33,3214           01047                                    RMAG                                  #  RP AND RMAG SCALED AT 2(+24)M
000420: 33,3215           65205                           DMP      PDDL
000421: 33,3216           01047                                    RMAG
000422: 33,3217           02355                                    RP
000423: 33,3220           56205                           DMP      DDV
000424: 33,3221           27300                                    2MUERTH9                              #  SCALED AT 2(+38)M(3)/CS(2).
000425: 33,3222           74366                           SQRT     VXSC
000426: 33,3223           77752                           VSL2
000427: 33,3224           02326                           STORE    VDVECT                                #  FOR DWNLK ONLY. SCALED AT 2(+7)M/CS
000428:
000429: 33,3225           77651                           VSU
000430: 33,3226           01017                                    VN
000431: 33,3227           02334                           STORE    VGVECT                                #  FOR DWNLK ONLY. SCALED AT 2(+7)M/CS
000432:
000433: 33,3230           77656                           UNIT                                           #  LEAVES ABVAL IN LV
000434: 33,3231           02272                           STORE    UNITVG
000435:
000436: 33,3232           77650                           GOTO
000437: 33,3233           02262                                    SHJUMP1
000438:
000439: 33,3234           05106        228LMP             TC       2LMP+DT
000440: 33,3235           00344                           DEC      228        B-14                       #  DPS PQGS ARM NO1 - ENABLE
000441: 33,3236           00304                           DEC      196        B-14                       #  DPS PQGS ARM NO2 - ENABLE
000442: 33,3237           00144                           DEC      100        B-14
000443:
000444: 33,3240           05106                           TC       2LMP+DT
000445: 33,3241           00364                           DEC      244        B-14                       #  DPS PQGS NO1 - ON
000446: 33,3242           00324                           DEC      212        B-14                       #  DPS PQGS NO2 - ON


000448: 33,3243           01356                           DEC      750        B-14
000449:
000450: 33,3244           05307                           TC       IBNKCALL
000451: 33,3245           34024                           CADR     ULLAGE                                #  +X TRANSLATION ON.
000452: 33,3246           15745                           TCF      TASKOVER                              #  END 228LMP TASK
000453:
000454:                                                                                                  #           ********************************
000455:
000456: 33,3247           66641        EQU2ADR            CADR     DPS1EQU2
000457:
000458: 33,3250           67101        EQU3ADR            CADR     DPS1EQU3
000459:
000460: 33,3251  E4,1566                                  EBANK=   TDEC
000461: 33,3251           03204 66064  EQU1ADR            2CADR    DPS1EQU1
000462:
000463: 33,3253  E4,1566                                  EBANK=   TDEC
000464: 33,3253           03137 66064  MP9TM1AD           2CADR    MP9TERM1
000465:
000466: 33,3255  E4,1566                                  EBANK=   TDEC
000467: 33,3255           02301 16004  RVUPDADR           2CADR    RVUPDATE
000468:
000469: 33,3257           00000 00620  4SECSD9            2DEC     400        B-28
000470:
000471: 33,3261           00000 07020  36SECSD9           2DEC     3600       B-28
000472:
000473: 33,3263           00001 35414  5M15S              2DEC     31500      B-28
000474:
000475:
000476: 33,3265           00000 00302  DPA                2DEC     .09449     B-17                       #  SCALED AT 2(+17)M/CS
000477:
000478: 33,3267           22653 21315  DPB                2DEC     .0002874   B+11                       #  SCALED AT 2(-11)M/CS(+2)
000479:
000480: 33,3271           00000 05050  DPC                2DEC     2600.      B-28                       #  SCALED AT 2(+28)CS
000481:
000482: 33,3273           00000 00000  VTAILOFF           2DEC     0          B-28                       #  ***** GET THE NUMBER
000483:
000484: 33,3275           00000 03641  DELTAT9            2DEC     200        E+4        B-38            #  2SEC/KPIP
000485:
000486: 33,3277           11217 27040  2MUERTH9           2DEC*    3.98603223 E+10       B-37*
000487:
000488: 33,3301           00144        1SEC9              DEC      100        B-14
000489: 33,3302           00620        4SECS9             DEC      400        B-14
000490: 33,3303           00764        5SECS9             DEC      500        B-14
000491: 33,3304           01750        10SECS9            DEC      1000       B-14
000492: 33,3305           02114        11SECS9            DEC      1100       B-14
000493: 33,3306           03720        20SECS9            DEC      2000       B-14
000494: 33,3307           05670        30SECS9            DEC      3000       B-14
000495: 33,3310           21450        90SECS9            DEC      9000       B-14
000496: 33,3311           27340        120SECS9           DEC      12000      B-14
000497:                                                                                                  #           ********************************

End of include-file MP9-DPS_1_BURN.agc.  Parent file is MAIN.agc


