
Source Code


000002:                                                                                                  ## Copyright:   Public domain.
000003:                                                                                                  ## Filename:    MP_3_-_SUBORBITAL_ABORT.agc
000004:                                                                                                  ## Purpose:     A section of Sunburst revision 37, or Shepatin revision 0.
000005:                                                                                                  ##              It is part of an early development version of the software
000006:                                                                                                  ##              for Apollo Guidance Computer (AGC) on the unmanned Lunar
000007:                                                                                                  ##              Module (LM) flight Apollo 5. Sunburst 37 was the program
000008:                                                                                                  ##              upon which Don Eyles's offline development program Shepatin
000009:                                                                                                  ##              was based; the listing herein transcribed was actually for
000010:                                                                                                  ##              the equivalent revision 0 of Shepatin.
000011:                                                                                                  ##              This file is intended to be a faithful transcription, except
000012:                                                                                                  ##              that the code format has been changed to conform to the
000013:                                                                                                  ##              requirements of the yaYUL assembler rather than the
000014:                                                                                                  ##              original YUL assembler.
000015:                                                                                                  ## Reference:   pp. 644-653
000016:                                                                                                  ## Assembler:   yaYUL
000017:                                                                                                  ## Contact:     Ron Burkey <info@sandroid.org>.
000018:                                                                                                  ## Website:     www.ibiblio.org/apollo/index.html
000019:                                                                                                  ## Mod history: 2017-05-24 MAS  Created from Sunburst 120.
000020:                                                                                                  ##              2017-06-14 RSB  Transcribed.  Note that while the comments (date,
000021:                                                                                                  ##                              mod no, mod by, assembly revision) identify this
000022:                                                                                                  ##                              code as being identical to that in Sunburst 120,
000023:                                                                                                  ##                              in reality it has many differences.
000024:                                                                                                  ##              2017-06-15 HG   Fix operand BIT2 -> BIT4
000025:


000027: 25,2000                                           BANK     25
000028: 25,2000  E4,1566                                  EBANK=   TDEC
000029:
000030:
000031:
000032:                                                                                                  #  PROGRAM DESCRIPTION- MISSION PHASE 3 - SUBORBITAL ABORT                 DATE- 28 OCT 66
000033:                                                                                                  #  MOD NO- 0                                                               LOG SECTION- MP 3 - SUBORBITAL ABORT
000034:                                                                                                  #  MOD BY- GILBERT                                                         ASSEMBLY- SUNBURST REVISION 17
000035:
000036:                                                                                                  #  FUNCTIONAL DESCRIPTION
000037:                                                                                                  #           IN THE FIRST 10 SECONDS OF THIS PHASE, THE GROUND IS CAUSING THE NOSECONE TO BE JETTISONED AND THE SLA
000038:                                                                                                  #  PANELS TO BE DEPLOYED. 10 SECONDS AFTER RECEIPT OF THE ABORT COMMAND, MP3 CHECKS TUMBLING AND PROCEEDS ONLY
000039:                                                                                                  #  WHEN THE INDICATED TUMBLING RATES ARE LESS THAN 3 DEGREES PER SECOND. MP3 THEN STARTS +X TRANSLATION AND
000040:                                                                                                  #  COMMANDS SIVB/LEM SEPARATION. 13 SECONDS AFTER SEPARATION THE DESCENT ENGINE IS TURNED ON FOR 5 SECONDS, THEN
000041:                                                                                                  #  IGNITED AGAIN AFTER A 5 SECOND COAST AND LEFT ON THROUGH THE ABORT STAGE COMMAND WHICH IS SENT/RECEIVED 31
000042:                                                                                                  #  SECONDS LATER. THE APS ENGINE IS TURNED OFF 5 SECONDS AFTER ABORT STAGE, THEN IGNITED AGAIN AFTER A 30 SECOND
000043:                                                                                                  #  COAST FOR A FINAL 60 SECOND BURN. IMU COMPENSATION CONTINUES THROUGHOUT THIS MISSION PHASE.
000044:
000045:                                                                                                  #  CALLING SEQUENCE
000046:                                                                                                  #      SUBORBITAL ABORT IS STARTED AT THE DISCRETION OF THE GROUND IN THE EVENT OF AN ABORT DURING THE EARLIER PART
000047:                                                                                                  #  OF BOOST. KEY CODE 23 IS SENT VIA UPLINK.
000048:
000049:                                                                                                  #  SUBROUTINES CALLED
000050:                                                                                                  #     NEWMODEX, WAITLIST, FIXDELAY, 1LMP, 2LMP, 1LMP+DT, 2LMP+DT, FLAG1DWN, ENGINEON, ENGINOFF, ENGINOF1, PREREAD,
000051:                                                                                                  #  READACCS, SERVICER, AVERAGEG.
000052:
000053:                                                                                                  #  NORMAL EXIT MODES
000054:                                                                                                  #      TASKOVER.
000055:
000056:                                                                                                  #  ALARM OR ABORT EXIT MODES
000057:                                                                                                  #      MAJOR MODE 71.
000058:
000059:                                                                                                  #  INPUT
000060:                                                                                                  #      DVSELECT SET FOR READACCS AND SERVICER
000061:
000062:                                                                                                  #  OUTPUT
000063:                                                                                                  #      ''LAST RITES''
000064:
000065:                                                                                                  #  ERASABLE INITIALIZATION REQUIRED
000066:                                                                                                  #      KEY CODE 23 SENT VIA UPLINK.
000067:
000068:                                                                                                  #  DEBRIS
000069:                                                                                                  #      CENTRALS - A,L,Q
000070:                                                                                                  #      OTHER    - ERASABLES IN SUBROUTINES USED
000071:


000073: 25,2000           04105        MP03JOB            TC       NEWMODEX                              #  DISPLAY MAJOR MODE 71
000074: 25,2001           00071                           OCT      71
000075:
000076: 25,2002           04147                           TC       PHASCHNG
000077: 25,2003           47012                           OCT      47012
000078: 25,2004           00001                           DEC      1          B-14
000079: 25,2005  E4,1566                                  EBANK=   TDEC
000080: 25,2005           02015 52004                     2CADR    SBORB1
000081:
000082: 25,2007           00004                           INHINT
000083: 25,2010           37755                           CAF      ONE                                   #  10 MS. - CONTINUE UNDER WAITLIST CONTROL
000084: 25,2011           05701                           TC       WAITLIST
000085: 25,2012  E4,1566                                  EBANK=   TDEC
000086: 25,2012           02015 52004                     2CADR    SBORB1
000087:
000088: 25,2014           15605                           TCF      ENDOFJOB                              #  AND RELINT
000089:
000090: 25,2015           04147        SBORB1             TC       PHASCHNG
000091: 25,2016           05012                           OCT      05012
000092: 25,2017           77777                           OCT      77777
000093:
000094: 25,2020           37761                           CAF      ZERO                                  #  INSURE RCS JETS OFF
000095: 25,2021           00006                           EXTEND
000096: 25,2022           01005                           WRITE    5
000097:
000098: 25,2023           04147                           TC       PHASCHNG
000099: 25,2024           47012                           OCT      47012
000100: 25,2025           00144                           DEC      100        B-14
000101: 25,2026  E4,1566                                  EBANK=   TDEC
000102: 25,2026           02032 52004                     2CADR    SBORB2
000103:
000104: 25,2030           05717                           TC       FIXDELAY                              #  WAIT 1 SECOND
000105: 25,2031           00144                           DEC      100        B-14
000106:
000107: 25,2032           05106        SBORB2             TC       2LMP+DT
000108: 25,2033           00274                           DEC      188        B-14                       #  RCS MAIN S/O VALVES, SYS. A - OPEN **
000109: 25,2034           00276                           DEC      190        B-14                       #  RCS MAIN S/O VALVES, SYS. B - OPEN **
000110: 25,2035           00144                           DEC      100        B-14                       #  WAIT 1 SECOND
000111:
000112: 25,2036           05114                           TC       1LMP+DT
000113: 25,2037           00004                           DEC      4          B-14                       #  ED BATTERY ACTIVATION - ON *
000114: 25,2040           00144                           DEC      100        B-14                       #  WAIT 1 SECOND
000115:
000116: 25,2041           05106                           TC       2LMP+DT
000117: 25,2042           00275                           DEC      189        B-14                       #  RESET **
000118: 25,2043           00277                           DEC      191        B-14                       #  RESET **
000119: 25,2044           00144                           DEC      100        B-14                       #  WAIT 1 SECOND
000120:
000121: 25,2045           05114                           TC       1LMP+DT
000122: 25,2046           00006                           DEC      6          B-14                       #  RCS PRESSURIZE - FIRE **


000124: 25,2047           00144                           DEC      100        B-14                       #  WAIT 1 SECOND
000125:
000126: 25,2050           05114                           TC       1LMP+DT
000127: 25,2051           00005                           DEC      5          B-14                       #  ED BATTERY ACTIVATION - SAFE *
000128: 25,2052           00144                           DEC      100        B-14                       #  WAIT 1 SECOND
000129:
000130: 25,2053           05114                           TC       1LMP+DT
000131: 25,2054           00007                           DEC      7          B-14                       #  RESET **
000132: 25,2055           00620                           DEC      400        B-14                       #  WAIT 4 SECONDS
000133:
000134: 25,2056           40075        TUMBCHK            CS       FLAGWRD1                              #  IS VEHICLE RATE LESS THAN 3 DEG/SEC
000135: 25,2057           77741                           MASK     BIT13
000136: 25,2060           10000                           CCS      A
000137: 25,2061           12065                           TCF      TUMB1                                 #  YES
000138:
000139: 25,2062           05717                           TC       FIXDELAY                              #  WAIT .5 SECONDS
000140: 25,2063           00062                           DEC      50         B-14
000141:
000142: 25,2064           12056                           TCF      TUMBCHK
000143:
000144: 25,2065           04147        TUMB1              TC       PHASCHNG
000145: 25,2066           05012                           OCT      05012
000146: 25,2067           77777                           OCT      77777
000147:
000148: 25,2070           06036                           TC       FLAG1DWN                              #  TERMINATE TUMBLE MONITOR
000149: 25,2071           20000                           OCT      20000
000150:
000151: 25,2072           06045                           TC       FLAG2DWN                              #  TERMINATE ABORT COMMAND MONITOR
000152: 25,2073           00400                           OCT      00400
000153:
000154: 25,2074           32766                           CAF      JETS+X                                #  COMMAND +X TRANSLATION - ON (4 JET)
000155: 25,2075           00006                           EXTEND
000156: 25,2076           01005                           WRITE    5
000157: 25,2077           05307                           TC       IBNKCALL
000158: 25,2100           34024                           CADR     ULLAGE                                #  USE LATER
000159:
000160: 25,2101           05114                           TC       1LMP+DT
000161: 25,2102           00072                           DEC      58         B-14                       #  LEM/S4B SEPARATE ARM - ON *
000162:
000163: 25,2103           00062                           DEC      50         B-14                       #  WAIT 500 MILLISECONDS
000164:
000165: 25,2104           40077                           CS       DAPBOOLS                              #  ENABLE DAP
000166: 25,2105           77743                           MASK     GODAPGO
000167: 25,2106           26077                           ADS      DAPBOOLS
000168:
000169: 25,2107           05307                           TC       IBNKCALL                              #  DEADBAND SELECT - MAX
000170: 25,2110           34012                           CADR     SETMAXDB
000171:
000172: 25,2111           05717                           TC       FIXDELAY                              #  WAIT 500 MILLISECONDS
000173: 25,2112           00062                           DEC      50         B-14


000175:
000176: 25,2113           05307                           TC       IBNKCALL                              #  GET VEHICLE RATE
000177: 25,2114           34034                           CADR     SETRATE                               #  HOLD VEHICLE ATTITUDE RATE
000178:
000179: 25,2115           05106                           TC       2LMP+DT
000180: 25,2116           00132                           DEC      90         B-14                       #  LEM/S4B SEPARATE - COMMAND **
000181: 25,2117           00004                           DEC      4          B-14                       #  ED BATTERY ACTIVATION - ON *
000182: 25,2120           00012                           DEC      10         B-14                       #  WAIT 100 MILLISECONDS
000183:
000184: 25,2121           05307                           TC       IBNKCALL                              #  DEADBAND SELECT - MIN
000185: 25,2122           34000                           CADR     SETMINDB
000186:
000187: 25,2123  E5,1540                                  EBANK=   LEMMASS1
000188: 25,2123           35677                           CAF      EBANK5
000189: 25,2124           54003                           TS       EBANK
000190:
000191: 25,2125           00006                           EXTEND
000192: 25,2126           31541                           DCA      LEMMASS1
000193: 25,2127           53333                           DXCH     MASS
000194:
000195: 25,2130           37761                           CAF      ZERO
000196: 25,2131           55551                           TS       DELAREA
000197: 25,2132           55552                           TS       DELAREA    +1
000198:
000199: 25,2133  E4,1566                                  EBANK=   TDEC
000200: 25,2133           37743                           CAF      EBANK4
000201: 25,2134           54003                           TS       EBANK
000202:
000203: 25,2135           05717                           TC       FIXDELAY                              #  WAIT 900 MILLISECONDS
000204: 25,2136           00132                           DEC      90         B-14
000205:
000206: 25,2137           06074                           TC       ENGINOF1                              #  INSURE THAT ENGINE IS OFF
000207:
000208: 25,2140           05106                           TC       2LMP+DT
000209: 25,2141           00073                           DEC      59         B-14                       #  LEM/S4B SEPARATE ARM - OFF *
000210: 25,2142           00226                           DEC      150        B-14                       #  ENGINE SELECT - DESC ARM *
000211: 25,2143           00001                           DEC      1          B-14                       #  WAIT 10 MILLISECONDS
000212:
000213: 25,2144           37744                           CAF      BIT10                                 #  START ABORT STAGE DISCRETE MONITOR
000214: 25,2145           05701                           TC       WAITLIST
000215: 25,2146  E4,1566                                  EBANK=   TDEC
000216: 25,2146           02415 52004                     2CADR    ABTSTGDM
000217:
000218: 25,2150           04127                           TC       2PHSCHNG
000219: 25,2151           40072                           OCT      40072
000220:
000221: 25,2152           47014                           OCT      47014
000222: 25,2153           01000                           DEC      512        B-14
000223: 25,2154  E4,1566                                  EBANK=   TDEC
000224: 25,2154           02415 52004                     2CADR    ABTSTGDM
000225:
000226: 25,2156           05307        SBORBA             TC       IBNKCALL                              #  DEADBAND SELECT - MIN


000228: 25,2157           34000                           CADR     SETMINDB
000229:
000230: 25,2160           05114                           TC       1LMP+DT
000231: 25,2161           00126                           DEC      86         B-14                       #  MANUAL THROTTLE - ON (10 PC) *
000232: 25,2162           00144                           DEC      100        B-14                       #  WAIT 1 SECOND
000233:
000234: 25,2163           05114                           TC       1LMP+DT
000235: 25,2164           00133                           DEC      91         B-14                       #  RESET **
000236: 25,2165           01130                           DEC      600        B-14                       #  WAIT 6 SECONDS
000237:
000238: 25,2166           05307                           TC       IBNKCALL                              #  HOLD LEM ATTITUDE
000239: 25,2167           34057                           CADR     STOPRATE
000240: 25,2170           04147                           TC       PHASCHNG
000241: 25,2171           47012                           OCT      47012
000242: 25,2172           00620                           DEC      400        B-14
000243: 25,2173  E4,1566                                  EBANK=   TDEC
000244: 25,2173           02177 52004                     2CADR    SBORB3
000245:
000246: 25,2175           05717                           TC       FIXDELAY                              #  WAIT 4 SECONDS
000247: 25,2176           00620                           DEC      400        B-14
000248:
000249: 25,2177           05114        SBORB3             TC       1LMP+DT
000250: 25,2200           00010                           DEC      8          B-14                       #  LANDING GEAR DEPLOY - FIRE **
000251: 25,2201           00144                           DEC      100        B-14                       #  WAIT 1 SECOND
000252:
000253: 25,2202           06054                           TC       ENGINEON                              #  COMMAND ENGINE - ON
000254:
000255: 25,2203           04147                           TC       PHASCHNG
000256: 25,2204           47012                           OCT      47012
000257: 25,2205           00144                           DEC      100        B-14
000258: 25,2206  E4,1566                                  EBANK=   TDEC
000259: 25,2206           02212 52004                     2CADR    SBORB4
000260:
000261: 25,2210           05717                           TC       FIXDELAY                              #  WAIT 1 SECOND
000262: 25,2211           00144                           DEC      100        B-14
000263:
000264: 25,2212           05106        SBORB4             TC       2LMP+DT
000265: 25,2213           00005                           DEC      5          B-14                       #  ED BATTERY ACTIVATION - SAFE *
000266: 25,2214           00011                           DEC      9          B-14                       #  RESET **
000267: 25,2215           00620                           DEC      400        B-14                       #  WAIT 4 SECONDS
000268:
000269: 25,2216           06071                           TC       ENGINOFF                              #  COMMAND ENGINE - OFF
000270:
000271: 25,2217           04147                           TC       PHASCHNG
000272: 25,2220           47012                           OCT      47012
000273: 25,2221           00764                           DEC      500        B-14
000274: 25,2222  E4,1566                                  EBANK=   TDEC
000275: 25,2222           02226 52004                     2CADR    SBORB5
000276:
000277: 25,2224           05717                           TC       FIXDELAY                              #  WAIT 5 SECONDS


000279: 25,2225           00764                           DEC      500        B-14
000280:
000281: 25,2226           06054        SBORB5             TC       ENGINEON                              #  COMMAND ENGINE - ON
000282:
000283: 25,2227           04147                           TC       PHASCHNG
000284: 25,2230           47012                           OCT      47012
000285: 25,2231           00310                           DEC      200        B-14
000286: 25,2232  E4,1566                                  EBANK=   TDEC
000287: 25,2232           02236 52004                     2CADR    SBORB6
000288:
000289: 25,2234           05717                           TC       FIXDELAY                              #  WAIT 2 SECONDS
000290: 25,2235           00310                           DEC      200        B-14
000291:
000292: 25,2236           05307        SBORB6             TC       IBNKCALL                              #  COMMAND +X TRANSLATION - OFF (4 JET)
000293: 25,2237           34030                           CADR     NOULLAGE
000294:
000295: 25,2240           04147                           TC       PHASCHNG
000296: 25,2241           47012                           OCT      47012
000297: 25,2242           03554                           DEC      1900       B-14
000298: 25,2243  E4,1566                                  EBANK=   TDEC
000299: 25,2243           02247 52004                     2CADR    SBORB7
000300:
000301: 25,2245           05717                           TC       FIXDELAY                              #  WAIT 19 SECONDS
000302: 25,2246           03554                           DEC      1900       B-14
000303:
000304: 25,2247           05114        SBORB7             TC       1LMP+DT
000305: 25,2250           00336                           DEC      222        B-14                       #  ASCENT WATER COOLANT VALVE - OPEN **
000306: 25,2251           00310                           DEC      200        B-14                       #  WAIT 2 SECONDS
000307:
000308: 25,2252           05114                           TC       1LMP+DT
000309: 25,2253           00337                           DEC      223        B-14                       #  RESET **
000310: 25,2254           00454                           DEC      300        B-14                       #  WAIT 3 SECONDS
000311:
000312: 25,2255           35226                           CAF      PRIO30                                #  THRUST REQUEST DURING JOB
000313: 25,2256           05534                           TC       FINDVAC
000314: 25,2257  E5,1557                                  EBANK=   ETHROT
000315: 25,2257           02443 52005                     2CADR    TRST90PC
000316:
000317: 25,2261           04127                           TC       2PHSCHNG
000318: 25,2262           40112                           OCT      40112
000319: 25,2263           07023                           OCT      07023
000320: 25,2264           30000                           OCT      30000
000321: 25,2265  E5,1557                                  EBANK=   ETHROT
000322: 25,2265           02443 52005                     2CADR    TRST90PC
000323:
000324: 25,2267           05717                           TC       FIXDELAY                              #  WAIT 4 SECONDS
000325: 25,2270           00620                           DEC      400        B-14
000326:
000327: 25,2271           05114        SBORB8             TC       1LMP+DT
000328: 25,2272           00026                           DEC      22         B-14                       #  ABORT STAGE - COMMAND *


000330: 25,2273           00144                           DEC      100        B-14                       #  WAIT 1 SECOND
000331:
000332: 25,2274           05114                           TC       1LMP+DT
000333: 25,2275           00046                           DEC      38         B-14                       #  ABORT STAGE - COMMAND *
000334: 25,2276           00001                           DEC      1          B-14                       #  WAIT 10 MS
000335:
000336: 25,2277           04147                           TC       PHASCHNG
000337: 25,2300           00002                           OCT      00002
000338:
000339: 25,2301           15745                           TCF      TASKOVER                              #  ABORT STAGE DISCRETE MONITOR RUNNING
000340:
000341:
000342: 25,2302           00006        SBORBB             EXTEND
000343: 25,2303           32462                           DCA      ENDJOB2C
000344: 25,2304           52376                           DXCH     FLUSHREG
000345:
000346: 25,2305           04147                           TC       PHASCHNG
000347: 25,2306           47012                           OCT      47012
000348: 25,2307           00144                           DEC      100        B-14
000349: 25,2310  E4,1566                                  EBANK=   TDEC
000350: 25,2310           02323 52004                     2CADR    SBORB9
000351:
000352: 25,2312  E5,1542                                  EBANK=   LEMMASS2
000353: 25,2312           35677                           CAF      EBANK5
000354: 25,2313           54003                           TS       EBANK
000355:
000356: 25,2314           00006                           EXTEND
000357: 25,2315           31543                           DCA      LEMMASS2
000358: 25,2316           53333                           DXCH     MASS
000359:
000360: 25,2317  E4,1566                                  EBANK=   TDEC
000361: 25,2317           37743                           CAF      EBANK4
000362: 25,2320           54003                           TS       EBANK
000363:
000364: 25,2321           05717                           TC       FIXDELAY                              #  WAIT 1 SECOND
000365: 25,2322           00144                           DEC      100        B-14
000366:
000367: 25,2323           05114        SBORB9             TC       1LMP+DT
000368: 25,2324           00227                           DEC      151        B-14                       #  ENGINE SELECT - DESC ARM OFF *
000369: 25,2325           00620                           DEC      400        B-14                       #  WAIT 4 SECONDS
000370:
000371: 25,2326           06071                           TC       ENGINOFF                              #  COMMAND ENGINE - OFF
000372:
000373: 25,2327           04147                           TC       PHASCHNG
000374: 25,2330           47012                           OCT      47012
000375: 25,2331           00144                           DEC      100        B-14
000376: 25,2332  E4,1566                                  EBANK=   TDEC
000377: 25,2332           02336 52004                     2CADR    SBORB10


000379:
000380: 25,2334           05717                           TC       FIXDELAY                              #  WAIT 1 SECOND
000381: 25,2335           00144                           DEC      100        B-14
000382:
000383: 25,2336           05114        SBORB10            TC       1LMP+DT
000384: 25,2337           00047                           DEC      39         B-14                       #  ABORT STAGE - COMMAND RESET *
000385: 25,2340           05214                           DEC      2700       B-14                       #  WAIT 27 SECONDS
000386:
000387: 25,2341           05307                           TC       IBNKCALL                              #  COMMAND +X TRANSLATION - ON (4 JET)
000388: 25,2342           34024                           CADR     ULLAGE
000389:
000390: 25,2343           04147                           TC       PHASCHNG
000391: 25,2344           47012                           OCT      47012
000392: 25,2345           00310                           DEC      200        B-14
000393: 25,2346  E4,1566                                  EBANK=   TDEC
000394: 25,2346           02352 52004                     2CADR    SBORB11
000395:
000396: 25,2350           05717                           TC       FIXDELAY                              #  WAIT 2 SECONDS
000397: 25,2351           00310                           DEC      200        B-14
000398:
000399: 25,2352           06054        SBORB11            TC       ENGINEON                              #  COMMAND ENGINE - ON
000400:
000401: 25,2353           04147                           TC       PHASCHNG
000402: 25,2354           47012                           OCT      47012
000403: 25,2355           00310                           DEC      200        B-14
000404: 25,2356  E4,1566                                  EBANK=   TDEC
000405: 25,2356           02362 52004                     2CADR    SBORB12
000406:
000407: 25,2360           05717                           TC       FIXDELAY                              #  WAIT 2 SECONDS
000408: 25,2361           00310                           DEC      200        B-14
000409:
000410: 25,2362           05307        SBORB12            TC       IBNKCALL                              #  COMMAND +X TRANSLATION - OFF (4 JET)
000411: 25,2363           34030                           CADR     NOULLAGE
000412:
000413: 25,2364           04147                           TC       PHASCHNG
000414: 25,2365           47012                           OCT      47012
000415: 25,2366           13250                           DEC      5800       B-14
000416: 25,2367  E4,1566                                  EBANK=   TDEC
000417: 25,2367           02373 52004                     2CADR    SBORB13
000418:
000419: 25,2371           05717                           TC       FIXDELAY                              #  WAIT 58 SECONDS
000420: 25,2372           13250                           DEC      5800       B-14
000421:
000422: 25,2373           06071        SBORB13            TC       ENGINOFF                              #  COMMAND ENGINE - OFF
000423:
000424: 25,2374           04147                           TC       PHASCHNG
000425: 25,2375           47012                           OCT      47012
000426: 25,2376           00144                           DEC      100        B-14
000427: 25,2377  E4,1566                                  EBANK=   TDEC
000428: 25,2377           02403 52004                     2CADR    SBORB14


000430:
000431: 25,2401           05717                           TC       FIXDELAY                              #  WAIT 1 SECOND
000432: 25,2402           00144                           DEC      100        B-14
000433:
000434: 25,2403           05114        SBORB14            TC       1LMP+DT
000435: 25,2404           00207                           DEC      135        B-14                       #  ENGINE SELECT - ASC ARM OFF *
000436: 25,2405           05524                           DEC      2900       B-14                       #  WAIT 29 SECONDS
000437:
000438: 25,2406           06036                           TC       FLAG1DWN                              #  KNOCK DOWN AVERAGEG FLAG
000439: 25,2407           00001                           OCT      00001
000440:
000441: 25,2410           05307                           TC       IBNKCALL                              #  DEADBAND SELECT - MAX
000442: 25,2411           34012                           CADR     SETMAXDB
000443:
000444: 25,2412           04147                           TC       PHASCHNG
000445: 25,2413           00002                           OCT      00002
000446:
000447: 25,2414           05745                           TC       TASKOVER
000448:
000449:
000450: 25,2415           37752        ABTSTGDM           CAF      BIT4                                  #  ABORT STAGE DISCRETE MONITOR
000451: 25,2416           00006                           EXTEND
000452: 25,2417           02030                           RAND     30
000453:
000454: 25,2420           00006                           EXTEND
000455: 25,2421           12425                           BZF      ABTSTG1                               #  YES
000456:
000457: 25,2422           05717                           TC       FIXDELAY                              #  WAIT .5 SECONDS
000458: 25,2423           00062                           DEC      50         B-14
000459:
000460: 25,2424           12415                           TCF      ABTSTGDM
000461:
000462: 25,2425           04127        ABTSTG1            TC       2PHSCHNG
000463: 25,2426           00004                           OCT      00004
000464: 25,2427           47012                           OCT      47012
000465: 25,2430           77777                           OCT      77777
000466: 25,2431  E4,1566                                  EBANK=   TDEC
000467: 25,2431           02302 52004                     2CADR    SBORBB
000468:
000469: 25,2433           00006                           EXTEND
000470: 25,2434           32464                           DCA      SBORBB2C
000471: 25,2435           52376                           DXCH     FLUSHREG
000472:
000473: 25,2436           35676                           CAF      PRIO37                                #  GENERATE RESTART IMMEDIATELY
000474: 25,2437           05523                           TC       NOVAC
000475: 25,2440  E4,1566                                  EBANK=   TDEC
000476: 25,2440           02015 16004                     2CADR    ENEMA
000477:
000478: 25,2442           15745                           TCF      TASKOVER
000479:


000481:
000482:
000483:
000484: 25,2443           37735        TRST90PC           CAF      POSMAX                                #  INCREASE THROTTLE 90 PERCENT
000485: 25,2444           55335                           TS       PCNTF
000486: 25,2445           00006                           EXTEND
000487: 25,2446           32466                           DCA      THRSTLOC
000488: 25,2447           52006                           DXCH     Z
000489:
000490: 25,2450           04147                           TC       PHASCHNG
000491: 25,2451           00003                           OCT      00003
000492:
000493: 25,2452           15605                           TCF      ENDOFJOB
000494:
000495:
000496: 25,2453           00004        SBORBBJB           INHINT
000497: 25,2454           37755                           CAF      BIT1
000498: 25,2455           05701                           TC       WAITLIST
000499: 25,2456  E4,1566                                  EBANK=   TDEC
000500: 25,2456           02302 52004                     2CADR    SBORBB
000501:
000502: 25,2460           15605                           TCF      ENDOFJOB
000503:
000504:
000505: 25,2461  E3,1400                                  EBANK=   LST1
000506: 25,2461           05605 04003  ENDJOB2C           2CADR    ENDOFJOB
000507:
000508: 25,2463  E4,1566                                  EBANK=   TDEC
000509: 25,2463           02453 52004  SBORBB2C           2CADR    SBORBBJB
000510:
000511: 25,2465  E5,1557                                  EBANK=   ETHROT
000512: 25,2465           03367 60065  THRSTLOC           2CADR    PCNTFMAX

End of include-file MP_3_-_SUBORBITAL_ABORT.agc.  Parent file is MAIN.agc


