
Source Code


000002:                                                                                                  ## Copyright:   Public domain.
000003:                                                                                                  ## Filename:    MP_3_-_SUBORBITAL_ABORT.agc
000004:                                                                                                  ## Purpose:     A section of Sunburst revision 37, or Shepatin revision 0.
000005:                                                                                                  ##              It is part of an early development version of the software
000006:                                                                                                  ##              for Apollo Guidance Computer (AGC) on the unmanned Lunar
000007:                                                                                                  ##              Module (LM) flight Apollo 5. Sunburst 37 was the program
000008:                                                                                                  ##              upon which Don Eyles's offline development program Shepatin
000009:                                                                                                  ##              was based; the listing herein transcribed was actually for
000010:                                                                                                  ##              the equivalent revision 0 of Shepatin.
000011:                                                                                                  ##              This file is intended to be a faithful transcription, except
000012:                                                                                                  ##              that the code format has been changed to conform to the
000013:                                                                                                  ##              requirements of the yaYUL assembler rather than the
000014:                                                                                                  ##              original YUL assembler.
000015:                                                                                                  ## Reference:   pp. 644-653
000016:                                                                                                  ## Assembler:   yaYUL
000017:                                                                                                  ## Contact:     Ron Burkey <info@sandroid.org>.
000018:                                                                                                  ## Website:     www.ibiblio.org/apollo/index.html
000019:                                                                                                  ## Mod history: 2017-05-24 MAS  Created from Sunburst 120.
000020:                                                                                                  ##              2017-06-14 RSB  Transcribed.  Note that while the comments (date,
000021:                                                                                                  ##                              mod no, mod by, assembly revision) identify this
000022:                                                                                                  ##                              code as being identical to that in Sunburst 120,
000023:                                                                                                  ##                              in reality it has many differences.
000024:                                                                                                  ##              2017-06-15 HG   Fix operand BIT2 -> BIT4
000025:                                                                                                  ##              2017-06-22 RSB  Proofed comment text with
000026:                                                                                                  ##                              octopus/ProoferComments.
000027:


000029: 25,2000                                           BANK     25
000030: 25,2000  E4,1566                                  EBANK=   TDEC
000031:
000032:
000033:
000034:                                                                                                  #  PROGRAM DESCRIPTION- MISSION PHASE 3 - SUBORBITAL ABORT                 DATE- 28 OCT 66
000035:                                                                                                  #  MOD NO- 0                                                               LOG SECTION- MP 3 - SUBORBITAL ABORT
000036:                                                                                                  #  MOD BY- GILBERT                                                         ASSEMBLY- SUNBURST REVISION 17
000037:
000038:                                                                                                  #  FUNCTIONAL DESCRIPTION
000039:                                                                                                  #           IN THE FIRST 10 SECONDS OF THIS PHASE, THE GROUND IS CAUSING THE NOSECONE TO BE JETTISONED AND THE SLA
000040:                                                                                                  #  PANELS TO BE DEPLOYED. 10 SECONDS AFTER RECEIPT OF THE ABORT COMMAND, MP3 CHECKS TUMBLING AND PROCEEDS ONLY
000041:                                                                                                  #  WHEN THE INDICATED TUMBLING RATES ARE LESS THAN 3 DEGREES PER SECOND. MP3 THEN STARTS +X TRANSLATION AND
000042:                                                                                                  #  COMMANDS SIVB/LEM SEPARATION. 13 SECONDS AFTER SEPARATION THE DESCENT ENGINE IS TURNED ON FOR 5 SECONDS, THEN
000043:                                                                                                  #  IGNITED AGAIN AFTER A 5 SECOND COAST AND LEFT ON THROUGH THE ABORT STAGE COMMAND WHICH IS SENT/RECEIVED 31
000044:                                                                                                  #  SECONDS LATER. THE APS ENGINE IS TURNED OFF 5 SECONDS AFTER ABORT STAGE, THEN IGNITED AGAIN AFTER A 30 SECOND
000045:                                                                                                  #  COAST FOR A FINAL 60 SECOND BURN. IMU COMPENSATION CONTINUES THROUGHOUT THIS MISSION PHASE.
000046:
000047:                                                                                                  #  CALLING SEQUENCE
000048:                                                                                                  #      SUBORBITAL ABORT IS STARTED AT THE DISCRETION OF THE GROUND IN THE EVENT OF AN ABORT DURING THE EARLIER PART
000049:                                                                                                  #  OF BOOST. KEY CODE 23 IS SENT VIA UPLINK.
000050:
000051:                                                                                                  #  SUBROUTINES CALLED
000052:                                                                                                  #     NEWMODEX, WAITLIST, FIXDELAY, 1LMP, 2LMP, 1LMP+DT, 2LMP+DT, FLAG1DWN, ENGINEON, ENGINOFF, ENGINOF1, PREREAD,
000053:                                                                                                  #  READACCS, SERVICER, AVERAGEG.
000054:
000055:                                                                                                  #  NORMAL EXIT MODES
000056:                                                                                                  #      TASKOVER.
000057:
000058:                                                                                                  #  ALARM OR ABORT EXIT MODES
000059:                                                                                                  #      MAJOR MODE 71.
000060:
000061:                                                                                                  #  INPUT
000062:                                                                                                  #      DVSELECT SET FOR READACCS AND SERVICER
000063:
000064:                                                                                                  #  OUTPUT
000065:                                                                                                  #      ''LAST RITES''
000066:
000067:                                                                                                  #  ERASABLE INITIALIZATION REQUIRED
000068:                                                                                                  #      KEY CODE 23 SENT VIA UPLINK.
000069:
000070:                                                                                                  #  DEBRIS
000071:                                                                                                  #      CENTRALS - A,L,Q
000072:                                                                                                  #      OTHER    - ERASABLES IN SUBROUTINES USED
000073:


000075: 25,2000           04105        MP03JOB            TC       NEWMODEX                              #  DISPLAY MAJOR MODE 71
000076: 25,2001           00071                           OCT      71
000077:
000078: 25,2002           04147                           TC       PHASCHNG
000079: 25,2003           47012                           OCT      47012
000080: 25,2004           00001                           DEC      1          B-14
000081: 25,2005  E4,1566                                  EBANK=   TDEC
000082: 25,2005           02015 52004                     2CADR    SBORB1
000083:
000084: 25,2007           00004                           INHINT
000085: 25,2010           37755                           CAF      ONE                                   #  10 MS. - CONTINUE UNDER WAITLIST CONTROL
000086: 25,2011           05701                           TC       WAITLIST
000087: 25,2012  E4,1566                                  EBANK=   TDEC
000088: 25,2012           02015 52004                     2CADR    SBORB1
000089:
000090: 25,2014           15605                           TCF      ENDOFJOB                              #  AND RELINT
000091:
000092: 25,2015           04147        SBORB1             TC       PHASCHNG
000093: 25,2016           05012                           OCT      05012
000094: 25,2017           77777                           OCT      77777
000095:
000096: 25,2020           37761                           CAF      ZERO                                  #  INSURE RCS JETS OFF
000097: 25,2021           00006                           EXTEND
000098: 25,2022           01005                           WRITE    5
000099:
000100: 25,2023           04147                           TC       PHASCHNG
000101: 25,2024           47012                           OCT      47012
000102: 25,2025           00144                           DEC      100        B-14
000103: 25,2026  E4,1566                                  EBANK=   TDEC
000104: 25,2026           02032 52004                     2CADR    SBORB2
000105:
000106: 25,2030           05717                           TC       FIXDELAY                              #  WAIT 1 SECOND
000107: 25,2031           00144                           DEC      100        B-14
000108:
000109: 25,2032           05106        SBORB2             TC       2LMP+DT
000110: 25,2033           00274                           DEC      188        B-14                       #  RCS MAIN S/O VALVES, SYS. A - OPEN **
000111: 25,2034           00276                           DEC      190        B-14                       #  RCS MAIN S/O VALVES, SYS. B - OPEN **
000112: 25,2035           00144                           DEC      100        B-14                       #  WAIT 1 SECOND
000113:
000114: 25,2036           05114                           TC       1LMP+DT
000115: 25,2037           00004                           DEC      4          B-14                       #  ED BATTERY ACTIVATION - ON *
000116: 25,2040           00144                           DEC      100        B-14                       #  WAIT 1 SECOND
000117:
000118: 25,2041           05106                           TC       2LMP+DT
000119: 25,2042           00275                           DEC      189        B-14                       #  RESET **
000120: 25,2043           00277                           DEC      191        B-14                       #  RESET **
000121: 25,2044           00144                           DEC      100        B-14                       #  WAIT 1 SECOND
000122:
000123: 25,2045           05114                           TC       1LMP+DT
000124: 25,2046           00006                           DEC      6          B-14                       #  RCS PRESSURIZE - FIRE **


000126: 25,2047           00144                           DEC      100        B-14                       #  WAIT 1 SECOND
000127:
000128: 25,2050           05114                           TC       1LMP+DT
000129: 25,2051           00005                           DEC      5          B-14                       #  ED BATTERY ACTIVATION - SAFE *
000130: 25,2052           00144                           DEC      100        B-14                       #  WAIT 1 SECOND
000131:
000132: 25,2053           05114                           TC       1LMP+DT
000133: 25,2054           00007                           DEC      7          B-14                       #  RESET **
000134: 25,2055           00620                           DEC      400        B-14                       #  WAIT 4 SECONDS
000135:
000136: 25,2056           40075        TUMBCHK            CS       FLAGWRD1                              #  IS VEHICLE RATE LESS THAN 3 DEG/SEC
000137: 25,2057           77741                           MASK     BIT13
000138: 25,2060           10000                           CCS      A
000139: 25,2061           12065                           TCF      TUMB1                                 #  YES
000140:
000141: 25,2062           05717                           TC       FIXDELAY                              #  WAIT .5 SECONDS
000142: 25,2063           00062                           DEC      50         B-14
000143:
000144: 25,2064           12056                           TCF      TUMBCHK
000145:
000146: 25,2065           04147        TUMB1              TC       PHASCHNG
000147: 25,2066           05012                           OCT      05012
000148: 25,2067           77777                           OCT      77777
000149:
000150: 25,2070           06036                           TC       FLAG1DWN                              #  TERMINATE TUMBLE MONITOR
000151: 25,2071           20000                           OCT      20000
000152:
000153: 25,2072           06045                           TC       FLAG2DWN                              #  TERMINATE ABORT COMMAND MONITOR
000154: 25,2073           00400                           OCT      00400
000155:
000156: 25,2074           32766                           CAF      JETS+X                                #  COMMAND +X TRANSLATION - ON (4 JET)
000157: 25,2075           00006                           EXTEND
000158: 25,2076           01005                           WRITE    5
000159: 25,2077           05307                           TC       IBNKCALL
000160: 25,2100           34024                           CADR     ULLAGE                                #  USE LATER
000161:
000162: 25,2101           05114                           TC       1LMP+DT
000163: 25,2102           00072                           DEC      58         B-14                       #  LEM/S4B SEPARATE ARM - ON *
000164:
000165: 25,2103           00062                           DEC      50         B-14                       #  WAIT 500 MILLISECONDS
000166:
000167: 25,2104           40077                           CS       DAPBOOLS                              #  ENABLE DAP
000168: 25,2105           77743                           MASK     GODAPGO
000169: 25,2106           26077                           ADS      DAPBOOLS
000170:
000171: 25,2107           05307                           TC       IBNKCALL                              #  DEADBAND SELECT - MAX
000172: 25,2110           34012                           CADR     SETMAXDB
000173:
000174: 25,2111           05717                           TC       FIXDELAY                              #  WAIT 500 MILLISECONDS
000175: 25,2112           00062                           DEC      50         B-14


000177:
000178: 25,2113           05307                           TC       IBNKCALL                              #  GET VEHICLE RATE
000179: 25,2114           34034                           CADR     SETRATE                               #  HOLD VEHICLE ATTITUDE RATE
000180:
000181: 25,2115           05106                           TC       2LMP+DT
000182: 25,2116           00132                           DEC      90         B-14                       #  LEM/S4B SEPARATE - COMMAND **
000183: 25,2117           00004                           DEC      4          B-14                       #  ED BATTERY ACTIVATION - ON *
000184: 25,2120           00012                           DEC      10         B-14                       #  WAIT 100 MILLISECONDS
000185:
000186: 25,2121           05307                           TC       IBNKCALL                              #  DEADBAND SELECT - MIN
000187: 25,2122           34000                           CADR     SETMINDB
000188:
000189: 25,2123  E5,1540                                  EBANK=   LEMMASS1
000190: 25,2123           35677                           CAF      EBANK5
000191: 25,2124           54003                           TS       EBANK
000192:
000193: 25,2125           00006                           EXTEND
000194: 25,2126           31541                           DCA      LEMMASS1
000195: 25,2127           53333                           DXCH     MASS
000196:
000197: 25,2130           37761                           CAF      ZERO
000198: 25,2131           55551                           TS       DELAREA
000199: 25,2132           55552                           TS       DELAREA    +1
000200:
000201: 25,2133  E4,1566                                  EBANK=   TDEC
000202: 25,2133           37743                           CAF      EBANK4
000203: 25,2134           54003                           TS       EBANK
000204:
000205: 25,2135           05717                           TC       FIXDELAY                              #  WAIT 900 MILLISECONDS
000206: 25,2136           00132                           DEC      90         B-14
000207:
000208: 25,2137           06074                           TC       ENGINOF1                              #  INSURE THAT ENGINE IS OFF
000209:
000210: 25,2140           05106                           TC       2LMP+DT
000211: 25,2141           00073                           DEC      59         B-14                       #  LEM/S4B SEPARATE ARM - OFF *
000212: 25,2142           00226                           DEC      150        B-14                       #  ENGINE SELECT - DESC ARM *
000213: 25,2143           00001                           DEC      1          B-14                       #  WAIT 10 MILLISECONDS
000214:
000215: 25,2144           37744                           CAF      BIT10                                 #  START ABORT STAGE DISCRETE MONITOR
000216: 25,2145           05701                           TC       WAITLIST
000217: 25,2146  E4,1566                                  EBANK=   TDEC
000218: 25,2146           02415 52004                     2CADR    ABTSTGDM
000219:
000220: 25,2150           04127                           TC       2PHSCHNG
000221: 25,2151           40072                           OCT      40072
000222:
000223: 25,2152           47014                           OCT      47014
000224: 25,2153           01000                           DEC      512        B-14
000225: 25,2154  E4,1566                                  EBANK=   TDEC
000226: 25,2154           02415 52004                     2CADR    ABTSTGDM
000227:
000228: 25,2156           05307        SBORBA             TC       IBNKCALL                              #  DEADBAND SELECT - MIN


000230: 25,2157           34000                           CADR     SETMINDB
000231:
000232: 25,2160           05114                           TC       1LMP+DT
000233: 25,2161           00126                           DEC      86         B-14                       #  MANUAL THROTTLE - ON (10 PC) *
000234: 25,2162           00144                           DEC      100        B-14                       #  WAIT 1 SECOND
000235:
000236: 25,2163           05114                           TC       1LMP+DT
000237: 25,2164           00133                           DEC      91         B-14                       #  RESET **
000238: 25,2165           01130                           DEC      600        B-14                       #  WAIT 6 SECONDS
000239:
000240: 25,2166           05307                           TC       IBNKCALL                              #  HOLD LEM ATTITUDE
000241: 25,2167           34057                           CADR     STOPRATE
000242: 25,2170           04147                           TC       PHASCHNG
000243: 25,2171           47012                           OCT      47012
000244: 25,2172           00620                           DEC      400        B-14
000245: 25,2173  E4,1566                                  EBANK=   TDEC
000246: 25,2173           02177 52004                     2CADR    SBORB3
000247:
000248: 25,2175           05717                           TC       FIXDELAY                              #  WAIT 4 SECONDS
000249: 25,2176           00620                           DEC      400        B-14
000250:
000251: 25,2177           05114        SBORB3             TC       1LMP+DT
000252: 25,2200           00010                           DEC      8          B-14                       #  LANDING GEAR DEPLOY - FIRE **
000253: 25,2201           00144                           DEC      100        B-14                       #  WAIT 1 SECOND
000254:
000255: 25,2202           06054                           TC       ENGINEON                              #  COMMAND ENGINE - ON
000256:
000257: 25,2203           04147                           TC       PHASCHNG
000258: 25,2204           47012                           OCT      47012
000259: 25,2205           00144                           DEC      100        B-14
000260: 25,2206  E4,1566                                  EBANK=   TDEC
000261: 25,2206           02212 52004                     2CADR    SBORB4
000262:
000263: 25,2210           05717                           TC       FIXDELAY                              #  WAIT 1 SECOND
000264: 25,2211           00144                           DEC      100        B-14
000265:
000266: 25,2212           05106        SBORB4             TC       2LMP+DT
000267: 25,2213           00005                           DEC      5          B-14                       #  ED BATTERY ACTIVATION - SAFE *
000268: 25,2214           00011                           DEC      9          B-14                       #  RESET **
000269: 25,2215           00620                           DEC      400        B-14                       #  WAIT 4 SECONDS
000270:
000271: 25,2216           06071                           TC       ENGINOFF                              #  COMMAND ENGINE - OFF
000272:
000273: 25,2217           04147                           TC       PHASCHNG
000274: 25,2220           47012                           OCT      47012
000275: 25,2221           00764                           DEC      500        B-14
000276: 25,2222  E4,1566                                  EBANK=   TDEC
000277: 25,2222           02226 52004                     2CADR    SBORB5
000278:
000279: 25,2224           05717                           TC       FIXDELAY                              #  WAIT 5 SECONDS


000281: 25,2225           00764                           DEC      500        B-14
000282:
000283: 25,2226           06054        SBORB5             TC       ENGINEON                              #  COMMAND ENGINE - ON
000284:
000285: 25,2227           04147                           TC       PHASCHNG
000286: 25,2230           47012                           OCT      47012
000287: 25,2231           00310                           DEC      200        B-14
000288: 25,2232  E4,1566                                  EBANK=   TDEC
000289: 25,2232           02236 52004                     2CADR    SBORB6
000290:
000291: 25,2234           05717                           TC       FIXDELAY                              #  WAIT 2 SECONDS
000292: 25,2235           00310                           DEC      200        B-14
000293:
000294: 25,2236           05307        SBORB6             TC       IBNKCALL                              #  COMMAND +X TRANSLATION - OFF (4 JET)
000295: 25,2237           34030                           CADR     NOULLAGE
000296:
000297: 25,2240           04147                           TC       PHASCHNG
000298: 25,2241           47012                           OCT      47012
000299: 25,2242           03554                           DEC      1900       B-14
000300: 25,2243  E4,1566                                  EBANK=   TDEC
000301: 25,2243           02247 52004                     2CADR    SBORB7
000302:
000303: 25,2245           05717                           TC       FIXDELAY                              #  WAIT 19 SECONDS
000304: 25,2246           03554                           DEC      1900       B-14
000305:
000306: 25,2247           05114        SBORB7             TC       1LMP+DT
000307: 25,2250           00336                           DEC      222        B-14                       #  ASCENT WATER COOLANT VALVE - OPEN **
000308: 25,2251           00310                           DEC      200        B-14                       #  WAIT 2 SECONDS
000309:
000310: 25,2252           05114                           TC       1LMP+DT
000311: 25,2253           00337                           DEC      223        B-14                       #  RESET **
000312: 25,2254           00454                           DEC      300        B-14                       #  WAIT 3 SECONDS
000313:
000314: 25,2255           35226                           CAF      PRIO30                                #  THRUST REQUEST DURING JOB
000315: 25,2256           05534                           TC       FINDVAC
000316: 25,2257  E5,1557                                  EBANK=   ETHROT
000317: 25,2257           02443 52005                     2CADR    TRST90PC
000318:
000319: 25,2261           04127                           TC       2PHSCHNG
000320: 25,2262           40112                           OCT      40112
000321: 25,2263           07023                           OCT      07023
000322: 25,2264           30000                           OCT      30000
000323: 25,2265  E5,1557                                  EBANK=   ETHROT
000324: 25,2265           02443 52005                     2CADR    TRST90PC
000325:
000326: 25,2267           05717                           TC       FIXDELAY                              #  WAIT 4 SECONDS
000327: 25,2270           00620                           DEC      400        B-14
000328:
000329: 25,2271           05114        SBORB8             TC       1LMP+DT
000330: 25,2272           00026                           DEC      22         B-14                       #  ABORT STAGE - ARM *


000332: 25,2273           00144                           DEC      100        B-14                       #  WAIT 1 SECOND
000333:
000334: 25,2274           05114                           TC       1LMP+DT
000335: 25,2275           00046                           DEC      38         B-14                       #  ABORT STAGE - COMMAND *
000336: 25,2276           00001                           DEC      1          B-14                       #  WAIT 10 MS
000337:
000338: 25,2277           04147                           TC       PHASCHNG
000339: 25,2300           00002                           OCT      00002
000340:
000341: 25,2301           15745                           TCF      TASKOVER                              #  ABORT STAGE DISCRETE MONITOR RUNNING
000342:
000343:
000344: 25,2302           00006        SBORBB             EXTEND
000345: 25,2303           32462                           DCA      ENDJOB2C
000346: 25,2304           52376                           DXCH     FLUSHREG
000347:
000348: 25,2305           04147                           TC       PHASCHNG
000349: 25,2306           47012                           OCT      47012
000350: 25,2307           00144                           DEC      100        B-14
000351: 25,2310  E4,1566                                  EBANK=   TDEC
000352: 25,2310           02323 52004                     2CADR    SBORB9
000353:
000354: 25,2312  E5,1542                                  EBANK=   LEMMASS2
000355: 25,2312           35677                           CAF      EBANK5
000356: 25,2313           54003                           TS       EBANK
000357:
000358: 25,2314           00006                           EXTEND
000359: 25,2315           31543                           DCA      LEMMASS2
000360: 25,2316           53333                           DXCH     MASS
000361:
000362: 25,2317  E4,1566                                  EBANK=   TDEC
000363: 25,2317           37743                           CAF      EBANK4
000364: 25,2320           54003                           TS       EBANK
000365:
000366: 25,2321           05717                           TC       FIXDELAY                              #  WAIT 1 SECOND
000367: 25,2322           00144                           DEC      100        B-14
000368:
000369: 25,2323           05114        SBORB9             TC       1LMP+DT
000370: 25,2324           00227                           DEC      151        B-14                       #  ENGINE SELECT - DESC ARM OFF *
000371: 25,2325           00620                           DEC      400        B-14                       #  WAIT 4 SECONDS
000372:
000373: 25,2326           06071                           TC       ENGINOFF                              #  COMMAND ENGINE - OFF
000374:
000375: 25,2327           04147                           TC       PHASCHNG
000376: 25,2330           47012                           OCT      47012
000377: 25,2331           00144                           DEC      100        B-14
000378: 25,2332  E4,1566                                  EBANK=   TDEC
000379: 25,2332           02336 52004                     2CADR    SBORB10


000381:
000382: 25,2334           05717                           TC       FIXDELAY                              #  WAIT 1 SECOND
000383: 25,2335           00144                           DEC      100        B-14
000384:
000385: 25,2336           05114        SBORB10            TC       1LMP+DT
000386: 25,2337           00047                           DEC      39         B-14                       #  ABORT STAGE - COMMAND RESET *
000387: 25,2340           05214                           DEC      2700       B-14                       #  WAIT 27 SECONDS
000388:
000389: 25,2341           05307                           TC       IBNKCALL                              #  COMMAND +X TRANSLATION - ON (4 JET)
000390: 25,2342           34024                           CADR     ULLAGE
000391:
000392: 25,2343           04147                           TC       PHASCHNG
000393: 25,2344           47012                           OCT      47012
000394: 25,2345           00310                           DEC      200        B-14
000395: 25,2346  E4,1566                                  EBANK=   TDEC
000396: 25,2346           02352 52004                     2CADR    SBORB11
000397:
000398: 25,2350           05717                           TC       FIXDELAY                              #  WAIT 2 SECONDS
000399: 25,2351           00310                           DEC      200        B-14
000400:
000401: 25,2352           06054        SBORB11            TC       ENGINEON                              #  COMMAND ENGINE - ON
000402:
000403: 25,2353           04147                           TC       PHASCHNG
000404: 25,2354           47012                           OCT      47012
000405: 25,2355           00310                           DEC      200        B-14
000406: 25,2356  E4,1566                                  EBANK=   TDEC
000407: 25,2356           02362 52004                     2CADR    SBORB12
000408:
000409: 25,2360           05717                           TC       FIXDELAY                              #  WAIT 2 SECONDS
000410: 25,2361           00310                           DEC      200        B-14
000411:
000412: 25,2362           05307        SBORB12            TC       IBNKCALL                              #  COMMAND +X TRANSLATION - OFF (4 JET)
000413: 25,2363           34030                           CADR     NOULLAGE
000414:
000415: 25,2364           04147                           TC       PHASCHNG
000416: 25,2365           47012                           OCT      47012
000417: 25,2366           13250                           DEC      5800       B-14
000418: 25,2367  E4,1566                                  EBANK=   TDEC
000419: 25,2367           02373 52004                     2CADR    SBORB13
000420:
000421: 25,2371           05717                           TC       FIXDELAY                              #  WAIT 58 SECONDS
000422: 25,2372           13250                           DEC      5800       B-14
000423:
000424: 25,2373           06071        SBORB13            TC       ENGINOFF                              #  COMMAND ENGINE - OFF
000425:
000426: 25,2374           04147                           TC       PHASCHNG
000427: 25,2375           47012                           OCT      47012
000428: 25,2376           00144                           DEC      100        B-14
000429: 25,2377  E4,1566                                  EBANK=   TDEC
000430: 25,2377           02403 52004                     2CADR    SBORB14


000432:
000433: 25,2401           05717                           TC       FIXDELAY                              #  WAIT 1 SECOND
000434: 25,2402           00144                           DEC      100        B-14
000435:
000436: 25,2403           05114        SBORB14            TC       1LMP+DT
000437: 25,2404           00207                           DEC      135        B-14                       #  ENGINE SELECT - ASC ARM OFF *
000438: 25,2405           05524                           DEC      2900       B-14                       #  WAIT 29 SECONDS
000439:
000440: 25,2406           06036                           TC       FLAG1DWN                              #  KNOCK DOWN AVERAGEG FLAG
000441: 25,2407           00001                           OCT      00001
000442:
000443: 25,2410           05307                           TC       IBNKCALL                              #  DEADBAND SELECT - MAX
000444: 25,2411           34012                           CADR     SETMAXDB
000445:
000446: 25,2412           04147                           TC       PHASCHNG
000447: 25,2413           00002                           OCT      00002
000448:
000449: 25,2414           05745                           TC       TASKOVER
000450:
000451:
000452: 25,2415           37752        ABTSTGDM           CAF      BIT4                                  #  ABORT STAGE DISCRETE MONITOR
000453: 25,2416           00006                           EXTEND
000454: 25,2417           02030                           RAND     30
000455:
000456: 25,2420           00006                           EXTEND
000457: 25,2421           12425                           BZF      ABTSTG1                               #  YES
000458:
000459: 25,2422           05717                           TC       FIXDELAY                              #  WAIT .5 SECONDS
000460: 25,2423           00062                           DEC      50         B-14
000461:
000462: 25,2424           12415                           TCF      ABTSTGDM
000463:
000464: 25,2425           04127        ABTSTG1            TC       2PHSCHNG
000465: 25,2426           00004                           OCT      00004
000466: 25,2427           47012                           OCT      47012
000467: 25,2430           77777                           OCT      77777
000468: 25,2431  E4,1566                                  EBANK=   TDEC
000469: 25,2431           02302 52004                     2CADR    SBORBB
000470:
000471: 25,2433           00006                           EXTEND
000472: 25,2434           32464                           DCA      SBORBB2C
000473: 25,2435           52376                           DXCH     FLUSHREG
000474:
000475: 25,2436           35676                           CAF      PRIO37                                #  GENERATE RESTART IMMEDIATELY
000476: 25,2437           05523                           TC       NOVAC
000477: 25,2440  E4,1566                                  EBANK=   TDEC
000478: 25,2440           02015 16004                     2CADR    ENEMA
000479:
000480: 25,2442           15745                           TCF      TASKOVER
000481:


000483:
000484:
000485:
000486: 25,2443           37735        TRST90PC           CAF      POSMAX                                #  INCREASE THROTTLE 90 PERCENT
000487: 25,2444           55335                           TS       PCNTF
000488: 25,2445           00006                           EXTEND
000489: 25,2446           32466                           DCA      THRSTLOC
000490: 25,2447           52006                           DXCH     Z
000491:
000492: 25,2450           04147                           TC       PHASCHNG
000493: 25,2451           00003                           OCT      00003
000494:
000495: 25,2452           15605                           TCF      ENDOFJOB
000496:
000497:
000498: 25,2453           00004        SBORBBJB           INHINT
000499: 25,2454           37755                           CAF      BIT1
000500: 25,2455           05701                           TC       WAITLIST
000501: 25,2456  E4,1566                                  EBANK=   TDEC
000502: 25,2456           02302 52004                     2CADR    SBORBB
000503:
000504: 25,2460           15605                           TCF      ENDOFJOB
000505:
000506:
000507: 25,2461  E3,1400                                  EBANK=   LST1
000508: 25,2461           05605 04003  ENDJOB2C           2CADR    ENDOFJOB
000509:
000510: 25,2463  E4,1566                                  EBANK=   TDEC
000511: 25,2463           02453 52004  SBORBB2C           2CADR    SBORBBJB
000512:
000513: 25,2465  E5,1557                                  EBANK=   ETHROT
000514: 25,2465           03367 60065  THRSTLOC           2CADR    PCNTFMAX

End of include-file MP_3_-_SUBORBITAL_ABORT.agc.  Parent file is MAIN.agc


