
Source Code


000002:                                                                                                  ## Copyright:   Public domain.
000003:                                                                                                  ## Filename:    MP_7_-_SIVB_LEM_SEPARATION.agc
000004:                                                                                                  ## Purpose:     A section of Sunburst revision 37, or Shepatin revision 0.
000005:                                                                                                  ##              It is part of an early development version of the software
000006:                                                                                                  ##              for Apollo Guidance Computer (AGC) on the unmanned Lunar
000007:                                                                                                  ##              Module (LM) flight Apollo 5. Sunburst 37 was the program
000008:                                                                                                  ##              upon which Don Eyles's offline development program Shepatin
000009:                                                                                                  ##              was based; the listing herein transcribed was actually for
000010:                                                                                                  ##              the equivalent revision 0 of Shepatin.
000011:                                                                                                  ##              This file is intended to be a faithful transcription, except
000012:                                                                                                  ##              that the code format has been changed to conform to the
000013:                                                                                                  ##              requirements of the yaYUL assembler rather than the
000014:                                                                                                  ##              original YUL assembler.
000015:                                                                                                  ## Reference:   pp. 669-675
000016:                                                                                                  ## Assembler:   yaYUL
000017:                                                                                                  ## Contact:     Ron Burkey <info@sandroid.org>.
000018:                                                                                                  ## Website:     www.ibiblio.org/apollo/index.html
000019:                                                                                                  ## Mod history: 2017-05-24 MAS  Created from Sunburst 120.
000020:                                                                                                  ##              2017-06-14 RSB  Transcribed.
000021:                                                                                                  ##              2017-06-14 HG   Fix operand EBANK -> EBANK4
000022:                                                                                                  ##              2017-06-22 RSB  Proofed comment text with
000023:                                                                                                  ##                              octopus/ProoferComments.
000024:


000026: 25,2467                                           BANK     25
000027: 25,2467  E4,1566                                  EBANK=   TDEC
000028:
000029:                                                                                                  #  PROGRAM DESCRIPTION- MISSION PHASE 7 - SIVB/LEM SEPARATION              DATE- 21 OCT 66
000030:                                                                                                  #  MOD NO- 0                                                               LOG SECTION- MP 7 - SIVB/LEM SEPARATION
000031:                                                                                                  #  MOD BY- GILBERT                                                         ASSEMBLY- SUNBURST REVISION 12
000032:
000033:                                                                                                  #  FUNCTIONAL DESCRIPTION
000034:
000035:                                                                                                  #            SIVB/LEM SEPARATION IS STARTED 39 MIN. 56 SEC. AFTER SIVB SHUTDOWN IS DETECTED. AT 00/11/04, ONE
000036:                                                                                                  #  MINUTE AFTER BOOST SHUTDOWN IS DETECTED, MISSION TIMER NO. 1 IS SET TO 38M 56S AND MISSION PHASE REGISTER NO. 1
000037:                                                                                                  #  TO MP 7. MISSION PHASE 7 STARTS AT 00/50/00. THIS PROGRAM COMMANDS A SEQUENCE OF EVENTS INCLUDING RCS COLD
000038:                                                                                                  #  FIRE PURGE, RCS PRESSURIZATION, S BAND SYSTEM ACTIVATION, +X TRANSLATION INITIATION OF LEM/SIVB SEPARATION
000039:                                                                                                  #  SEQUENCE, AND AGS ACTIVATION. IMMEDIATELY AFTER PHYSICAL SEPARATION, 00/54/00, THE PGNCS HOLDS THE ATTITUDE RATE
000040:                                                                                                  #  WHICH EXISTED AT SEPARATION TO MINIMIZE THE PROBABILITY OF RE-CONTACT. RCS +X TRANSLATION IS TERMINATED 15
000041:                                                                                                  #  SECONDS AFTER SEPARATION AT 00/54/15 AT WHICH TIME AUTOMATIC ATTITUDE HOLD IS INITIATED. THIS TERMINATION
000042:                                                                                                  #  FOLLOWS A SEQUENCE STARTING AT 00/53/55 DURING WHICH THE JETS ARE TURNED ON FOR 10 SECONDS, OFF FOR 5 SECONDS,
000043:                                                                                                  #  AND ON FOR 5 SECONDS. THIS IS DUE TO THE POSSIBILITY OF HEAT AFFECTING THE RENDEZVOUS RADAR ANTENNAE.
000044:                                                                                                  #  MISSION PHASE TIMER NO. 4 IS SET TO START MISSION PHASE 8 (DPS COLD SOAK) IN 08 SECONDS. MISSION PHASE TIMER
000045:                                                                                                  #  NO. 2 IS SET TO START MISSION PHASE 9 (DPS 1) IN 3H 1M 47S. MAJOR MODE 14 IS DISPLAYED DURING THIS PHASE.
000046:
000047:                                                                                                  #  CALLING SEQUENCE
000048:                                                                                                  #      SIVB/LEM SEPARATION IS CALLED BY THE MISSION SCHEDULING ROUTINE AS A JOB. THE MISSION SCHEDULING ENTRY
000049:                                                                                                  #  ROUTINE WAS CALLED 1 MINUTE AFTER BOOST SHUTDOWN IN MISSION PHASE 6 TO SET TIMER NO. 1 TO 38 MINUTES 56 SECONDS.
000050:
000051:                                                                                                  #  SUBROUTINES CALLED
000052:                                                                                                  #      NEWMODEX, WAITLIST, FIXDELAY, 1LMP+DT, 2LMP+DT, FLAG1UP, FLAG1DWN, MPENTRY, MIDTOAVE, AVETOMID, TPAGREE,
000053:                                                                                                  #  PREREAD, READACCS, SERVICER, AVERAGEG.
000054:
000055:                                                                                                  #  NORMAL EXIT MODE
000056:                                                                                                  #      TASKOVER (ENDOFJOB INITIALLY SINCE TASK IS REQUESTED)
000057:
000058:                                                                                                  #  ALARM OR ABORT EXIT MODES
000059:                                                                                                  #      NONE
000060:
000061:                                                                                                  #  INPUT
000062:                                                                                                  #      MISSION SCHEDULING MAINTENANCE ROUTINE MUST BE INHIBITED AT BEGINNING AND ENABLED AT END OF MISSION PHASE 7.
000063:
000064:                                                                                                  #  OUTPUT
000065:                                                                                                  #      RCS COLD FIRE PURGE, RCS PRESSURIZATION, S BAND SYSTEM ACTIVATION, +X TRANSLATION, INITIATION OF LEM/SIVB
000066:                                                                                                  #  SEPARATION SEQUENCE, AND SCHEDULING OF MISSION PHASES 8 AND 9 (DPS COLD SOAK AND DPS 1).
000067:
000068:                                                                                                  #  ERASABLE INITIALIZATION REQUIRED
000069:                                                                                                  #      NORMAL MISSION SEQUENCE SETS ERASABLES PROPERLY
000070:
000071:                                                                                                  #  DEBRIS
000072:                                                                                                  #      CENTRALS - A,L,Q
000073:                                                                                                  #      OTHER    - ERASABLES IN SUBROUTINES USED
000074:


000076: 25,2467           00006        MP07JOB            EXTEND
000077: 25,2470           30025                           DCA      TIME2                                 #  SET UP TIME FOR MIDTOAVE
000078: 25,2471           53567                           DXCH     TDEC
000079: 25,2472           00006                           EXTEND
000080: 25,2473           32761                           DCA      MP07DELT
000081: 25,2474           21567                           DAS      TDEC
000082:
000083: 25,2475           00006                           EXTEND
000084: 25,2476           31567                           DCA      TDEC
000085: 25,2477           52422                           DXCH     TIMEHOLD                              #  NO RADAR ON 206
000086:
000087: 25,2500           04105                           TC       NEWMODEX                              #  DISPLAY MAJOR MODE 14
000088: 25,2501           00014                           OCT      14
000089:
000090: 25,2502           00006                           EXTEND
000091: 25,2503           32763                           DCA      MIDAVE2C                              #  PRIOR TO THRUST
000092: 25,2504           52006                           DXCH     Z
000093:
000094: 25,2505           04147                           TC       PHASCHNG
000095: 25,2506           05022                           OCT      05022
000096: 25,2507           20000                           OCT      20000
000097:
000098: 25,2510           32767                           CAF      AVRAGEG7                              #  SERVICER CALLS AVERAGEG
000099: 25,2511           55322                           TS       DVSELECT
000100:
000101: 25,2512           00006                           EXTEND
000102: 25,2513           32765                           DCA      SVREXIT                               #  NORMAL EXIT FROM AVERAGEG
000103: 25,2514           53073                           DXCH     AVGEXIT
000104:
000105: 25,2515           32766                           CAF      JETS+X                                #  RCS COLD FIRE PURGE
000106: 25,2516           00006                           EXTEND
000107: 25,2517           01005                           WRITE    5
000108:
000109: 25,2520           04147                           TC       PHASCHNG
000110: 25,2521           47012                           OCT      47012
000111: 25,2522           07640                           DEC      4000       B-14
000112: 25,2523  E4,1566                                  EBANK=   TDEC
000113: 25,2523           02533 52004                     2CADR    SIVBSEP
000114:
000115:
000116: 25,2525           00004                           INHINT
000117: 25,2526           32757                           CAF      40SEC
000118: 25,2527           05701                           TC       WAITLIST
000119: 25,2530  E4,1566                                  EBANK=   TDEC
000120: 25,2530           02533 52004                     2CADR    SIVBSEP
000121:
000122: 25,2532           05605                           TC       ENDOFJOB                              #  AND RELINT
000123:
000124: 25,2533           04147        SIVBSEP            TC       PHASCHNG
000125: 25,2534           05012                           OCT      05012
000126: 25,2535           77777                           OCT      77777


000128: 25,2536           37761                           CAF      ZERO                                  #  TERMINATE RCS COLD FIRE PURGE
000129: 25,2537           00006                           EXTEND
000130: 25,2540           01005                           WRITE    5
000131:
000132: 25,2541           04147                           TC       PHASCHNG
000133: 25,2542           47012                           OCT      47012
000134: 25,2543           00620                           DEC      400        B-14
000135: 25,2544  E4,1566                                  EBANK=   TDEC
000136: 25,2544           02550 52004                     2CADR    SIVB1
000137:
000138: 25,2546           05717                           TC       FIXDELAY                              #  WAIT 4 SECONDS
000139: 25,2547           00620                           DEC      400        B-14
000140:
000141: 25,2550           05106        SIVB1              TC       2LMP+DT
000142: 25,2551           00274                           DEC      188        B-14                       #  RCS MAIN S/O VALVES, SYS. A - OPEN **
000143: 25,2552           00276                           DEC      190        B-14                       #  RCS MAIN S/O VALVES, SYS. B - OPEN **
000144: 25,2553           00144                           DEC      100        B-14                       #  WAIT 1 SECOND
000145:
000146: 25,2554           05114                           TC       1LMP+DT
000147:
000148: 25,2555           00004                           DEC      4          B-14                       #  ED BATTERY ACTIVATION - ON
000149: 25,2556           00144                           DEC      100        B-14                       #  WAIT 1 SECOND
000150:
000151: 25,2557           05106                           TC       2LMP+DT
000152: 25,2560           00275                           DEC      189        B-14                       #  RESET **
000153: 25,2561           00277                           DEC      191        B-14                       #  RESET **
000154: 25,2562           01604                           DEC      900        B-14                       #  WAIT 9 SECONDS
000155:
000156: 25,2563           05114                           TC       1LMP+DT
000157: 25,2564           00006                           DEC      6          B-14                       #  RCS PRESSURIZE - FIRE **
000158: 25,2565           00310                           DEC      200        B-14                       #  WAIT 2 SECONDS
000159:
000160: 25,2566           05114                           TC       1LMP+DT
000161: 25,2567           00007                           DEC      7          B-14                       #  RESET **
000162: 25,2570           05360                           DEC      2800       B-14                       #  WAIT 28 SECONDS
000163:
000164: 25,2571           05114                           TC       1LMP+DT
000165: 25,2572           00005                           DEC      5          B-14                       #  ED BATTERY ACTIVATION - SAFE *
000166: 25,2573           22434                           DEC      9500       B-14                       #  WAIT 95 SECONDS                              ...
000167:
000168: 25,2574           00006                           EXTEND
000169: 25,2575           30422                           DCA      TIMEHOLD
000170: 25,2576           53664                           DXCH     DT2TEMPD
000171:
000172: 25,2577           00006                           EXTEND
000173: 25,2600           40025                           DCS      TIME2                                 #  TIG - 28 SEC.  =  TDEC + 2 SEC.
000174: 25,2601           21664                           DAS      DT2TEMPD
000175:
000176: 25,2602           04147                           TC       PHASCHNG
000177: 25,2603           05012                           OCT      05012
000178: 25,2604           77777                           OCT      77777
000179:


000181: 25,2605           00006                           EXTEND
000182: 25,2606           31664                           DCA      DT2TEMPD
000183:
000184: 25,2607           52422                           DXCH     TIMEHOLD
000185: 25,2610           10422                           CCS      TIMEHOLD   +1                         #  INSURE WAITLIST TIME POSITIVE
000186: 25,2611           67755                           AD       ONE
000187: 25,2612           12615                           TCF      +3
000188: 25,2613           40000                           COM
000189: 25,2614           67735                           AD       POSMAX
000190: 25,2615           55662                           TS       DT2TEMP
000191: 25,2616           05701                           TC       WAITLIST                              #  REQUEST LASTBIAS AT TIG - 30 SECONDS
000192: 25,2617  E4,1566                                  EBANK=   TDEC
000193: 25,2617           02770 52004                     2CADR    TIG-30
000194:
000195: 25,2621           04127                           TC       2PHSCHNG
000196: 25,2622           40052                           OCT      40052
000197: 25,2623           47014                           OCT      47014
000198: 25,2624           76115                           -GENADR  DT2TEMP
000199: 25,2625  E4,1566                                  EBANK=   TDEC
000200: 25,2625           02770 52004                     2CADR    TIG-30
000201:
000202: 25,2627           05717                           TC       FIXDELAY                              #  WAIT 55 SECONDS
000203: 25,2630           12574                           DEC      5500       B-14
000204:
000205: 25,2631           05307        SIVB2              TC       IBNKCALL                              #  DEADBAND SELECT - MAX
000206: 25,2632           34012                           CADR     SETMAXDB
000207:
000208: 25,2633           32766                           CAF      JETS+X                                #  COMMAND +X TRANSLATION - ON (4 JET)
000209: 25,2634           00006                           EXTEND
000210: 25,2635           01005                           WRITE    5
000211: 25,2636           05307                           TC       IBNKCALL
000212: 25,2637           34024                           CADR     ULLAGE
000213:
000214: 25,2640           04147                           TC       PHASCHNG
000215: 25,2641           47012                           OCT      47012
000216: 25,2642           00144                           DEC      100        B-14
000217: 25,2643  E4,1566                                  EBANK=   TDEC
000218: 25,2643           02647 52004                     2CADR    SIVB3
000219:
000220: 25,2645           05717                           TC       FIXDELAY                              #  WAIT 1 SECOND
000221: 25,2646           00144                           DEC      100        B-14
000222:
000223: 25,2647           05114        SIVB3              TC       1LMP+DT
000224: 25,2650           00212                           DEC      138        B-14                       #  XMTR/RCVR (S-BAND) - PRIM *
000225: 25,2651           00454                           DEC      300        B-14                       #  WAIT 3 SECONDS
000226:
000227: 25,2652           05114                           TC       1LMP+DT
000228: 25,2653           00072                           DEC      58         B-14                       #  LEM/SIVB SEPARATE ARM - ON *
000229: 25,2654           00062                           DEC      50         B-14                       #  WAIT 500 MILLISECONDS
000230:
000231: 25,2655           40077                           CS       DAPBOOLS                              #  ENABLE DAP


000233: 25,2656           77743                           MASK     GODAPGO
000234: 25,2657           26077                           ADS      DAPBOOLS
000235:
000236: 25,2660           05717                           TC       FIXDELAY                              #  WAIT 500 MILLISECONDS
000237: 25,2661           00062                           DEC      50         B-14
000238:
000239: 25,2662           05307                           TC       IBNKCALL                              #  GET VEHICLE RATE
000240: 25,2663           34034                           CADR     SETRATE                               #  HOLD VEHICLE ATTITUDE RATE
000241:
000242: 25,2664           05114                           TC       1LMP+DT
000243: 25,2665           00132                           DEC      90         B-14                       #  LEM/SIVB SEPARATE - COMMAND **
000244: 25,2666           00012                           DEC      10         B-14                       #  WAIT 100 MILLISECONDS
000245:
000246: 25,2667           05307                           TC       IBNKCALL                              #  DEADBAND SELECT - MIN
000247: 25,2670           34000                           CADR     SETMINDB
000248:
000249: 25,2671  E5,1540                                  EBANK=   LEMMASS1
000250: 25,2671           35677                           CAF      EBANK5
000251: 25,2672           54003                           TS       EBANK
000252:
000253: 25,2673           00006                           EXTEND
000254: 25,2674           31541                           DCA      LEMMASS1
000255: 25,2675           53333                           DXCH     MASS
000256:
000257: 25,2676           37761                           CAF      ZERO
000258: 25,2677           55551                           TS       DELAREA
000259: 25,2700           55552                           TS       DELAREA    +1
000260:
000261: 25,2701  E4,1566                                  EBANK=   TDEC
000262: 25,2701           37743                           CAF      EBANK4
000263: 25,2702           54003                           TS       EBANK
000264:
000265: 25,2703           05717                           TC       FIXDELAY                              #  WAIT 900 MILLISECONDS
000266: 25,2704           00132                           DEC      90         B-14
000267:
000268: 25,2705           05114                           TC       1LMP+DT
000269: 25,2706           00073                           DEC      59         B-14                       #  LEM/SIVB SEPARATE ARM - OFF *
000270: 25,2707           00144                           DEC      100        B-14                       #  WAIT 1 SECOND
000271:
000272: 25,2710           05114                           TC       1LMP+DT
000273: 25,2711           00133                           DEC      91         B-14                       #  RESET **
000274: 25,2712           00454                           DEC      300        B-14                       #  WAIT 3 SECONDS
000275:
000276: 25,2713           05307                           TC       IBNKCALL                              #  COMMAND +X TRANSLATION - OFF (4 JET)
000277: 25,2714           34030                           CADR     NOULLAGE
000278:
000279: 25,2715           04147                           TC       PHASCHNG
000280: 25,2716           47012                           OCT      47012
000281: 25,2717           00764                           DEC      500        B-14
000282: 25,2720  E4,1566                                  EBANK=   TDEC


000284: 25,2720           02724 52004                     2CADR    SIVB4
000285:
000286: 25,2722           05717                           TC       FIXDELAY                              #  WAIT 5 SECONDS
000287: 25,2723           00764                           DEC      500        B-14
000288:
000289: 25,2724           05307        SIVB4              TC       IBNKCALL                              #  COMMAND +X TRANSLATION - ON (4 JET)
000290: 25,2725           34024                           CADR     ULLAGE
000291:
000292: 25,2726           04147                           TC       PHASCHNG
000293: 25,2727           47012                           OCT      47012
000294: 25,2730           00764                           DEC      500        B-14
000295: 25,2731  E4,1566                                  EBANK=   TDEC
000296: 25,2731           02735 52004                     2CADR    SIVB5
000297:
000298: 25,2733           05717                           TC       FIXDELAY                              #  WAIT 5 SECONDS
000299: 25,2734           00764                           DEC      500        B-14
000300:
000301: 25,2735           05307        SIVB5              TC       IBNKCALL                              #  COMMAND +X TRANSLATION - OFF (4 JET)
000302: 25,2736           34030                           CADR     NOULLAGE
000303:
000304: 25,2737           06036                           TC       FLAG1DWN                              #  KNOCK DOWN AVERAGEG FLAG
000305: 25,2740           00001                           OCT      00001
000306:
000307: 25,2741           05307                           TC       IBNKCALL                              #  HOLD LEM ATTITUDE
000308: 25,2742           34057                           CADR     STOPRATE
000309:
000310: 25,2743           05307                           TC       IBNKCALL                              #  DEADBAND SELECT - MAX
000311: 25,2744           34012                           CADR     SETMAXDB
000312:
000313: 25,2745           04127                           TC       2PHSCHNG
000314: 25,2746           00002                           OCT      00002
000315: 25,2747           05013                           OCT      05013
000316: 25,2750           77777                           OCT      77777
000317:
000318: 25,2751           05141                           TC       MPENTRY                               #  SCHEDULE DPS COLD SOAK
000319: 25,2752           00004                           DEC      4          B-14                       #  TIMER NO. 4
000320: 25,2753           00010                           DEC      8          B-14                       #  MISSION PHASE 8
000321:
000322: 25,2754           01752                           ADRES    MPDTO8
000323:
000324: 25,2755           15745                           TCF      TASKOVER
000325:


000327: 25,2756           00310        2SEC               DEC      200        B-14
000328: 25,2757           07640        40SEC              DEC      4000       B-14
000329: 25,2760           00001 10024  MP07DELT           2DEC     20500      B-28
000330:
000331: 25,2762  E4,1566                                  EBANK=   TDEC
000332: 25,2762           02304 16004  MIDAVE2C           2CADR    MIDTOAVE
000333:
000334: 25,2764  E4,1566                                  EBANK=   TDEC
000335: 25,2764           02312 60064  SVREXIT            2CADR    SERVEXIT
000336:
000337: 25,2766           00252        JETS+X             OCT      00252
000338: 25,2767           02233        AVRAGEG7           GENADR   AVERAGEG
000339:
000340:
000341:
000342: 25,2770           37755        TIG-30             CAF      BIT1                                  #  PREREAD CALLS READACCS IN 2 SECONDS
000343: 25,2771           05701                           TC       WAITLIST
000344: 25,2772  E5,1506                                  EBANK=   DVTOTAL
000345:
000346: 25,2772           02000 60065                     2CADR    PREREAD
000347:
000348: 25,2774           04147                           TC       PHASCHNG
000349: 25,2775           40045                           OCT      40045
000350:
000351: 25,2776           04147        TASK4OUT           TC       PHASCHNG
000352: 25,2777           00004                           OCT      00004
000353:
000354: 25,3000           15745                           TCF      TASKOVER

End of include-file MP_7_-_SIVB_LEM_SEPARATION.agc.  Parent file is MAIN.agc


