
Source Code


000002:                                                                                                  ## Copyright:   Public domain.
000003:                                                                                                  ## Filename:    P-AXIS_REACTION_CONTROL_SYSTEM_AUTOPILOT.agc
000004:                                                                                                  ## Purpose:     A section of Sunburst revision 37, or Shepatin revision 0.
000005:                                                                                                  ##              It is part of an early development version of the software
000006:                                                                                                  ##              for Apollo Guidance Computer (AGC) on the unmanned Lunar
000007:                                                                                                  ##              Module (LM) flight Apollo 5. Sunburst 37 was the program
000008:                                                                                                  ##              upon which Don Eyles's offline development program Shepatin
000009:                                                                                                  ##              was based; the listing herein transcribed was actually for
000010:                                                                                                  ##              the equivalent revision 0 of Shepatin.
000011:                                                                                                  ##              This file is intended to be a faithful transcription, except
000012:                                                                                                  ##              that the code format has been changed to conform to the
000013:                                                                                                  ##              requirements of the yaYUL assembler rather than the
000014:                                                                                                  ##              original YUL assembler.
000015:                                                                                                  ## Reference:   pp. 468-490
000016:                                                                                                  ## Assembler:   yaYUL
000017:                                                                                                  ## Contact:     Ron Burkey <info@sandroid.org>.
000018:                                                                                                  ## Website:     www.ibiblio.org/apollo/index.html
000019:                                                                                                  ## Mod history: 2017-05-24 MAS  Created from Sunburst 120.
000020:                                                                                                  ##              2017-06-03 HG   Transcribed
000021:                                                                                                  ##              2017-06-15 HG   Fix operand EDOTP -> EDOT
000022:                                                                                                  ##              2017-06-15 MAS  Removed a stray 'A' from an EXTEND.
000023:                                                                                                  ##              2017-06-22 RSB  Proofed comment text with
000024:                                                                                                  ##                              octopus/ProoferComments.
000025:


000027: 16,2346                                           BANK     16
000028: 16,2346  E6,1541                                  EBANK=   DT
000029:
000030:                                                                                                  #  THE FOLLOWING T5RUPT ENTRY BEGINS THE PROGRAM WHICH CONTROLS THE P-AXIS ACTION OF THE LEM USING THE RCS JETS.
000031:                                                                                                  #  THE NOMINAL TIME BETWEEN THE P-AXIS RUPTS IS 100 MS IN ALL NON-IDLING MODES OF THE DAP.
000032:
000033: 16,2346           33601        PAXIS              CAF      MS30P                                 #  RESET TIMER IMMEDIATELY: DT = 30 MS
000034: 16,2347           54030                           TS       TIME5
000035:
000036: 16,2350           22016                           LXCH     BANKRUPT                              #  INTERRUPT LEAD IN (CONTINUED)
000037: 16,2351           00006                           EXTEND
000038: 16,2352           22012                           QXCH     QRUPT
000039:
000040:                                                                                                  #  CHECK TO SEE IF DAP IS STILL IN USE:
000041:
000042: 16,2353           02104                           TC       CHEKBITS                              #  RETURN IS TO I+1 IF DAP SHOULD STAY ON.
000043:
000044:                                                                                                  #  WHILE DAP IS ON, SET UP EITHER A KALMAN FILTER RUPT OR A DUMMY FILTER RUPT BY SETTING UP T5ADR FROM ERASABLE.
000045:
000046: 16,2354           00006                           EXTEND                                         #  T5ADR IS SET TO EITHER FILTER OR
000047: 16,2355           31572                           DCA      PFILTADR                              #  DUMMYFIL IN A BLIND MANNER SINCE
000048: 16,2356           53001                           DXCH     T5ADR                                 #  PFILTADR IS SET UP ELSEWHERE
000049:
000050:                                                                                                  #  DO P AXIS RATE DERIVATION AND CONTROL LAW.
000051:                                                                                                  #  DERIVE DELTA P.
000052:
000053: 16,2357           37761                           CA       ZERO
000054: 16,2360           54061                           TS       ITEMP1
000055: 16,2361           31610                           CAE      TP
000056: 16,2362           63600                           AD       NEGCSP1
000057: 16,2363           00006                           EXTEND
000058: 16,2364           62370                           BZMF     DOTORQUE
000059: 16,2365           54061                           TS       ITEMP1
000060: 16,2366           33615                           CA       CSPAT1P
000061: 16,2367           12376                           TCF      SCALEDTP
000062: 16,2370           31610        DOTORQUE           CA       TP
000063: 16,2371           00006                           EXTEND
000064: 16,2372           77751                           MP       BIT5
000065: 16,2373           30001                           CAE      L
000066: 16,2374           00006                           EXTEND
000067: 16,2375           73603                           MP       16/25
000068: 16,2376           55610        SCALEDTP           TS       TP
000069: 16,2377           00006                           EXTEND
000070: 16,2400           71634                           MP       WFORP
000071: 16,2401           61637                           AD       (1-K)/8
000072: 16,2402           00006                           EXTEND
000073: 16,2403           71610                           MP       TP
000074: 16,2404           00006                           EXTEND
000075: 16,2405           77752                           MP       BIT4
000076: 16,2406           31612                           CA       1JACC
000077:


000079: 16,2407           00006                           EXTEND
000080: 16,2410           70001                           MP       L
000081: 16,2411           00006                           EXTEND
000082: 16,2412           71651                           MP       NO.PJETS
000083: 16,2413           23603                           LXCH     JETRATE
000084: 16,2414           30061                           CA       ITEMP1
000085: 16,2415           55610                           TS       TP
000086:
000087: 16,2416           30032                           CAE      CDUX
000088: 16,2417           54001                           TS       L
000089: 16,2420           00006                           EXTEND
000090: 16,2421           21426                           MSU      OLDXFORP                              #  SCALED AT PI
000091: 16,2422           23426                           LXCH     OLDXFORP
000092: 16,2423           00006                           EXTEND
000093: 16,2424           77747                           MP       BIT7
000094: 16,2425           22062                           LXCH     DELTAP                                #  SCALE AT PI/2(6)
000095: 16,2426           30033                           CA       CDUY
000096: 16,2427           54001                           TS       L
000097: 16,2430           00006                           EXTEND
000098: 16,2431           21427                           MSU      OLDYFORP                              #  SCALED AT PI
000099: 16,2432           23427                           LXCH     OLDYFORP
000100: 16,2433           00006                           EXTEND
000101: 16,2434           77747                           MP       BIT7                                  #  INTO L SCALED AT PI/2(6)
000102: 16,2435           31404                           CA       M11                                   #  M11 SCALED AT 1
000103: 16,2436           00006                           EXTEND
000104: 16,2437           70001                           MP       L                                     #  INTO A SCALED AT PI/2(6).
000105: 16,2440           60062                           AD       DELTAP
000106: 16,2441           00006                           EXTEND
000107: 16,2442           71634                           MP       WFORP                                 #  SCALED AT 2(4)=16, RESULT IN A AT PI/4.
000108: 16,2443           57416                           XCH      OMEGAP                                #  W*DELTAP IN OMEGAP LOC. OLD OMEGAP IN A.
000109: 16,2444           00006                           EXTEND
000110: 16,2445           71636                           MP       (1-K)                                 #  SCALED AT 1
000111:
000112: 16,2446           61603                           AD       JETRATE                               #  RATE DUE TO JETS TORQUING.
000113: 16,2447           27416                           ADS      OMEGAP                                #  PRATE= WFORP*DELTAP+ALPHA*LAST-PRATE+TPF
000114: 16,2450           01646        PAXFILT            TC       PJUMPADR
000115: 16,2451           32342        SKIPPAXS           CA       VISNORMQ
000116: 16,2452           55646                           TS       PJUMPADR
000117: 16,2453           15751                           TCF      RESUME
000118:
000119: 16,2454           05041        CHKVISFZ           TC       T6JOBCHK                              #  CHECK FOR T6 RUPT.
000120:
000121: 16,2455           37745                           CAF      VIZPHASE
000122: 16,2456           70077                           MASK     DAPBOOLS
000123: 16,2457           00006                           EXTEND
000124: 16,2460           12462                           BZF      +2
000125: 16,2461           13056                           TCF      PURGENCY                              #  ATTITUDE STEER DURING VISIBILITY PHASE
000126:
000127: 16,2462           37744                           CAF      BIT10                                 #  BIT10=1 FOR RHC MINIMUM IMPULSE MODE
000128: 16,2463           70077                           MASK     DAPBOOLS
000129: 16,2464           00006                           EXTEND
000130:


000132:
000133: 16,2465           12537                           BZF      DETENTCK                              #  BRANCH FOR RATE COMMAND
000134:
000135: 16,2466           11007                           CCS      DELAYCTR                              #  DELAYCTR IS SET TO 3 BY RUPTIO
000136:
000137: 16,2467           12475                           TCF      WHICHONE                              #  LOOK FOR JET TO TURN ON
000138:
000139: 16,2470           12525                           TCF      CHEKALL6
000140:
000141: 16,2471           37742                           CAF      BIT12                                 #  PERMIT NEXT RUPT10.DELAYCTR IS NEG
000142: 16,2472           00006                           EXTEND                                         #  WHEN PREVIOUS READING OF 31 FOUND
000143: 16,2473           05013                           WOR      13                                    #  ALL SWITCHES OPEN.
000144: 16,2474           13051                           TCF      JETSOFF
000145:
000146: 16,2475           55007        WHICHONE           TS       DELAYCTR                              #  DECREMENT DELAYCTR
000147:
000148: 16,2476           37753                           CAF      BIT3
000149: 16,2477           00006                           EXTEND
000150: 16,2500           02031                           RAND     31
000151: 16,2501           00006                           EXTEND
000152: 16,2502           12511                           BZF      +MINIMP
000153:
000154: 16,2503           37752                           CAF      BIT4
000155: 16,2504           00006                           EXTEND
000156: 16,2505           02031                           RAND     31
000157: 16,2506           00006                           EXTEND
000158:
000159: 16,2507           12513                           BZF      -MINIMP
000160:
000161: 16,2510           13051                           TCF      JETSOFF
000162:
000163: 16,2511           37755        +MINIMP            CAF      BIT1
000164: 16,2512           12514                           TCF      +2
000165: 16,2513           47755        -MINIMP            CS       BIT1
000166: 16,2514           55435                 +2        TS       TJETSIGN                              #  SAVE SIGN OF P-AXIS ROTATION
000167:
000168: 16,2515           33573                           CA       PTJMINT6
000169: 16,2516           55007                           TS       DELAYCTR                              #  AGAIN UNTIL NEXT RUPT
000170:
000171: 16,2517           37737                           CAF      NEGMAX                                #  RECORD TWO JETS FOR MINIMUM IMPULSE BE-
000172: 16,2520           55461                           TS       NJET                                  #  FORE SELECTING POLICY
000173:
000174: 16,2521           33573                           CAF      PTJMINT6                              #  SET UP JET TIMES
000175: 16,2522           55610                           TS       TP
000176: 16,2523           55475                           TS       TOFJTCHG
000177: 16,2524           12730                           TCF      PJETSLEC                              #  AND GO SELECT JET POLICY
000178:
000179: 16,2525           00006        CHEKALL6           EXTEND
000180: 16,2526           00031                           READ     31
000181: 16,2527           40000                           COM
000182: 16,2530           73612                           MASK     DAPLOW6
000183: 16,2531           00006                           EXTEND
000184:


000186: 16,2532           12534                           BZF      +2
000187:
000188: 16,2533           13051                           TCF      JETSOFF
000189: 16,2534           47755                           CS       BIT1                                  #  PUTTING NEGATIVE NUMBER IN DELAYCTR
000190: 16,2535           55007                           TS       DELAYCTR                              #  WILL CAUSE RUPT TO BE ENABLED NEXT TIME
000191: 16,2536           13051                           TCF      JETSOFF
000192:
000193: 16,2537           37737        DETENTCK           CA       BIT15
000194: 16,2540           00006                           EXTEND
000195: 16,2541           02031                           RAND     31                                    #  CHECK OUT-OF-DETENT BIT.INVERTED.
000196: 16,2542           00006                           EXTEND
000197: 16,2543           12600                           BZF      RHCMOVED                              #  BRANCH IF OUT OF DETENT
000198:                                                                                                  # ........................................................................
000199: 16,2544           37755                           CAF      BIT1                                  #  IN DETENT.CHECK THE RATE COMMAND BIT
000200: 16,2545           70077                           MASK     DAPBOOLS                              #  BIT1 OF DAPBOOLS IS RATE COMMAND BIT
000201: 16,2546           00006                           EXTEND
000202: 16,2547           13056                           BZF      PURGENCY                              #  BRANCH IF NOT IN RATE COMMAND
000203:                                                                                                  # ........................................................................
000204: 16,2550           37741                           CAF      BIT13                                 #  CHECK ATTITUDE HOLD BIT
000205:
000206: 16,2551           00006                           EXTEND
000207: 16,2552           02031                           RAND     31
000208: 16,2553           00006                           EXTEND
000209: 16,2554           12651                           BZF      JOEY                                  #  BRANCH IF IN ATTITUDE HOLD
000210:                                                                                                  # ........................................................................
000211: 16,2555           11416                           CCS      OMEGAP                                #  HERE IF IN X-AXIS OVER-RIDE
000212: 16,2556           12562                           TCF      +4
000213: 16,2557           12566                           TCF      RATEDONE
000214: 16,2560           12562                           TCF      +2
000215: 16,2561           12566                           TCF      RATEDONE
000216: 16,2562           61476                           AD       -RATEDB
000217: 16,2563           00006                           EXTEND
000218: 16,2564           62566                           BZMF     RATEDONE
000219: 16,2565           12651                           TCF      JOEY
000220:
000221: 16,2566           47755        RATEDONE           CS       BIT1
000222: 16,2567           70077                           MASK     DAPBOOLS
000223: 16,2570           54077                           TS       DAPBOOLS
000224:
000225:                                                                                                  #  READ CDUS INTO CDU DESIRED REGISTERS
000226:
000227: 16,2571           30032                           CA       CDUX
000228: 16,2572           54766                           TS       CDUXD
000229:
000230: 16,2573           30033                           CA       CDUY
000231: 16,2574           54767                           TS       CDUYD
000232: 16,2575           30034                           CA       CDUZ
000233: 16,2576           54770                           TS       CDUZD
000234:
000235: 16,2577           13051                           TCF      JETSOFF
000236:
000237: 16,2600           37755        RHCMOVED           CAF      BIT1                                  #  CHECKING THE RATE COMMAND BIT
000238: 16,2601           70077                           MASK     DAPBOOLS
000239:


000241: 16,2602           00006                           EXTEND
000242: 16,2603           12623                           BZF      JUSTOUT
000243:
000244:                                                                                                  #  READ,ZERO, AND ENABLE COUNTERS
000245:                                                                                                  #  SYSTEM HAS BEEN IN RATE COMMAND FOR AT LEAST THE TIME OF A CAP CHARGE
000246:
000247: 16,2604           30043                           CAE      P-RHCCTR                              #  1 BIT IN P-RHCCTR WORTH 0.6256 DEG/SEC
000248: 16,2605           00006                           EXTEND
000249: 16,2606           77745                           MP       BIT9
000250: 16,2607           30001                           CA       L
000251: 16,2610           00006                           EXTEND
000252: 16,2611           73602                           MP       0.88975
000253: 16,2612           55436                           TS       PRATECOM                              #  COMMANDED RATE SCALED AT PI/4
000254:
000255: 16,2613           37761                           CAF      ZERO                                  #  ZERO COUNTERS
000256: 16,2614           54043                           TS       P-RHCCTR
000257: 16,2615           54042                           TS       Q-RHCCTR
000258: 16,2616           54044                           TS       R-RHCCTR
000259: 16,2617           33613                           CA       BITS8,9                               #  ENABALE COUNTERS, START READING
000260: 16,2620           00006                           EXTEND
000261: 16,2621           05013                           WOR      13
000262: 16,2622           12653                           TCF      OBEYRATE
000263:                                                                                                  # ........................................................................
000264: 16,2623           24077        JUSTOUT            INCR     DAPBOOLS                              #  ALWAYS SETS BIT1 ON RATE COMMAND BIT
000265: 16,2624           37754                           CAF      BIT2
000266: 16,2625           00006                           EXTEND
000267:
000268: 16,2626           02030                           RAND     30
000269: 16,2627           00006                           EXTEND
000270: 16,2630           12635                           BZF      +5                                    #  BRANCH FOR ASCENT CONSTANTS
000271:
000272: 16,2631           33605                           CAF      -D2JTLIM                              #  -1.4 DEG/SEC SCALED AT PI/4
000273: 16,2632           55477                           TS       -2JETLIM
000274: 16,2633           33604                           CAF      -DRATEDB                              #  -0.4 DEG/SEC SCALED AT PI/4
000275: 16,2634           12640                           TCF      +4
000276:
000277: 16,2635           33606                 +5        CAF      -A2JTLIM                              #  -2.0 DEG/SEC SCALED AT PI/4
000278: 16,2636           55477                           TS       -2JETLIM
000279: 16,2637           33607                           CAF      -ARATEDB                              #  -1.0 DEG/SEC SCALED AT PI/4
000280: 16,2640           55476                 +4        TS       -RATEDB
000281:
000282: 16,2641           37761                           CAF      ZERO                                  #  ZERO COUNTERS
000283: 16,2642           54043                           TS       P-RHCCTR
000284: 16,2643           54042                           TS       Q-RHCCTR
000285: 16,2644           54044                           TS       R-RHCCTR
000286: 16,2645           33613                           CA       BITS8,9
000287: 16,2646           00006                           EXTEND
000288: 16,2647           05013                           WOR      13
000289: 16,2650           13051                           TCF      JETSOFF
000290:                                                                                                  # ........................................................................
000291:
000292: 16,2651           37761        JOEY               CAF      ZERO
000293:


000295: 16,2652           55436                           TS       PRATECOM
000296:
000297:                                                                                                  #  IN THIS SECTION P RATE ERROR IS COMPUTED AND T-JET IS CALCULATED
000298:
000299: 16,2653           41416        OBEYRATE           CS       OMEGAP
000300: 16,2654           61436                           AD       PRATECOM
000301: 16,2655           10000                           CCS      A                                     #  IF POSITIVE, NON-ZERO, STORE POSITIVE
000302: 16,2656           37755                           CAF      BIT1                                  #  P-AXIS ROTATION
000303:
000304: 16,2657           12661                           TCF      +2                                    #  WILL NOT COME HERE DIRECTLY
000305: 16,2660           47755                           CS       BIT1                                  #  NEGATIVE, NON-ZERO, STORE NEGATIVE
000306: 16,2661           55435                           TS       TJETSIGN                              #  P-AXIS ROTATION.  NO NEG ZERO POSSIBLE
000307:
000308: 16,2662           11466        OBEYRAPE           CCS      PERROR                                #  GET ABVAL OF RATE P-ERROR
000309: 16,2663           12667                           TCF      +4
000310: 16,2664           13051                           TCF      JETSOFF
000311: 16,2665           12667                           TCF      +2
000312: 16,2666           13051                           TCF      JETSOFF
000313: 16,2667           67755                           AD       BIT1
000314: 16,2670           55462                           TS       PRATEDIF                              #  ABVAL OF RATE ERROR SCALED AT PI/4
000315:
000316: 16,2671           05041                           TC       T6JOBCHK                              #  T6JOBCHK IS IN FIXED-FIXED
000317:
000318: 16,2672           31476                           CA       -RATEDB
000319: 16,2673           61462                           AD       PRATEDIF
000320: 16,2674           00006                           EXTEND
000321: 16,2675           63051                           BZMF     JETSOFF                               #  RATE ERROR INSIDE DEADBAND
000322:
000323: 16,2676           31462                           CAE      PRATEDIF                              #  START TJET COMPUTATION
000324: 16,2677           00006                           EXTEND
000325: 16,2700           71441                           MP       1/2JTSP                               #  1/2JTACC SCALED AT 2EXP(8)/PI
000326: 16,2701           00006                           EXTEND
000327:
000328: 16,2702           77753                           MP       BIT3                                  #  ENOUGH FOR 4 JETS
000329: 16,2703           30001                           CAE      L
000330: 16,2704           00006                           EXTEND
000331: 16,2705           73610                           MP       25/32                                 #  A CONTAINS TJFT SCALED AT 2EXP(4)(16/25)
000332: 16,2706           55610                           TS       TP
000333: 16,2707           55475                           TS       TOFJTCHG
000334:
000335: 16,2710           31462                           CAE      PRATEDIF                              #  TEST WHETHER 2 OR 4 JETS TO BE USED BY
000336: 16,2711           61477                           AD       -2JETLIM                              #  COMPARING DELTA RATE WITH 2 JET LIMIT
000337: 16,2712           00006                           EXTEND
000338: 16,2713           62717                           BZMF     +4                                    #  IF NEGATIVE, 2 JETS ARE ENOUGH
000339:
000340: 16,2714           37735                           CAF      POSMAX                                #  POSITIVE, NON-ZERO.  PUT POSMAX IN NJET
000341: 16,2715           55461                           TS       NJET
000342: 16,2716           12730                           TCF      PJETSLEC                              #  AND GO SELECT GOOD POLICY
000343:
000344: 16,2717           37737                           CAF      NEGMAX                                #  2 JETS, PUT NEGMAX IN NJET,
000345: 16,2720           55461                           TS       NJET
000346: 16,2721           31610                           CAE      TP                                    #  DOUBLE TP,
000347:


000349: 16,2722           60000                           DOUBLE
000350: 16,2723           55610                           TS       TP                                    #  AND GO CHECK MINIMUM IMPULSE
000351:
000352:                                                                                                  # ........................................................................
000353:                                                                                                  #  CHECK RATE COMMAND ON TIME AGAINST MINIMUM IMPULSE
000354: 16,2724           55475                           TS       TOFJTCHG
000355: 16,2725           63611                           AD       -TJMINT6
000356: 16,2726           00006                           EXTEND                                         #    AS TP. TEST JFT TIME. IS IT GREATER OR
000357: 16,2727           63051                           BZMF     JETSOFF                               #  LESS THAN A MINIMUM IMPULSE
000358:                                                                                                  # ........................................................................
000359:


000361:                                                                                                  #  PROGRAM NAME: PJETSLEC                       DATE: DECEMBER 9, 1966
000362:
000363:                                                                                                  #  MODIFICATION 0 BY JOHN BLISS(ADAMS ASSOCIATES) ROOM 7-286, X183
000364:
000365:                                                                                                  #  LOG SECTION: P-AXIS REACTION CONTROL SYSTEM AUTOPILOT -- FIRST PUT INTO SUNBURST(III) REVISION 29
000366:
000367:
000368:
000369:                                                                                                  #  FUNCTIONAL DESCRIPTION:
000370:
000371:                                                                                                  #      THE OBJECT OF PJETSLEC IS TO CHOOSE THE BEST JET POLICY WHOSE NECESSARY JETS HAVE NOT BEEN RECORDED AS
000372:                                                                                                  #  FAILED IN THE CH6MASK REGISTER.  THE CONDITIONS ON SELECTION ARE THE NUMBER OF JETS REQUESTED(2 OR 4), THE
000373:                                                                                                  #  SENSE OF P-AXIS ROTATION REQUIRED(+/-), AND ALTERNATING USE OF DIAGONAL FORCE-COUPLED PAIRS OF JETS.
000374:
000375:                                                                                                  #      PJETSLEC FIRST READS CHANNEL 6 TO SEE IF THE JETS ARE CURRENTLY FIRING.  IF THEY ARE, THE TIME OF JET
000376:                                                                                                  #  SELECTION COMPUTATION(5 MS.) IS SUBTRACTED FROM TOFJTCHG AND CONTROL GOES DIRECTLY TO TEST THE SENSE OF P-AXIS
000377:                                                                                                  #  ROTATION.  THE DIAGONAL FORCE-COUPLED PAIRS OF JETS ARE NOT SWITCHED, BECAUSE IT WOULD BE INEFFICIENT TO TURN
000378:                                                                                                  #  ONE OFF AND THE OTHER ON IN RAPID SUCCESSION.  IF THE JETS ARE OFF, THE MINIMUM IMPULSE DELAY TIME IS ADDED TO
000379:
000380:                                                                                                  #  TOFJTCHG AND THE DIAGONAL JETS ARE SWITCHED TO COMPLY WITH THE ALTERNATION CONDITION.
000381:
000382:                                                                                                  #      IF THE P-AXIS IS +, REL = 7, IF -, REL = 0,.  NJET IS TESTED NEXT; IF POSMAX, 4 JETS DESIRED, REL = REL +6,
000383:                                                                                                  #  CTR = 6.  IF NEGMAX, 2 JETS DESIRED, REL = REL + 5, CTR = 5.  IF 4 JETS DESIRED, GO TO POLICY TESTING LOOP
000384:                                                                                                  #  WITHOUT TESTING TO SEE WHICH DIAGONAL PAIR IS PREFERRED THIS TIME.
000385:
000386:                                                                                                  #      IF 2 JETS ARE DESIRED, SEE WHETHER NO. 2 PAIR IS PREFERRED.  IF IT IS, TEST IT FIRST AND USE IT IF IT'S OK.
000387:                                                                                                  #  IF IT HAS FAILED, GO TO THE TEST LOOP TO TEST THE POLICIES IN ORDER.  IF NO. 1 POLICY IS PREFERRED, GO DIRECTLY
000388:                                                                                                  #  TO THE TEST LOOP.
000389:
000390:                                                                                                  #      THE TEST LOOP USES REL TO PICK UP THE NEXT POLICY IN PPOLTABL AND CTR TO KEEP TRACK OF THE NUMBER OF
000391:                                                                                                  #  POLICIES(1-7) TESTED.  WHEN A GOOD POLICY IS FOUND, IT IS WRITTEN INTO CHANNEL 6, OTHERWISE THE NEXT POLICY IS
000392:                                                                                                  #  TRIED.  IF NO GOOD POLICIES ARE FOUND, CONTROL GOES TO ABORTJET TO TURN OFF THE JETS AND THE DAP.
000393:
000394:                                                                                                  #      WHEN A GOOD POLICY IS FOUND, WRITEP IS CALLED TO WRITE THE POLICY INTO CHANNEL 6, +/-2/4 IS STORED IN
000395:                                                                                                  #  NO.PJETS, AND BIT9 IS PUT INTO JTSATCHG TO CAUSE THE P-AXIS JETS TO BE TURNED OFF ON THE NEXT T6RUPT. CONTROL
000396:                                                                                                  #  THEN TRANSFERS TO TORKVEC.
000397:
000398:                                                                                                  #  CALLING SEQUENCES: NONE                      SUBROUTINES CALLED:
000399:
000400:                                                                                                  #                                               WRITEP - WRITES C(A). THE
000401:                                                                                                  #                                               SELECTED JET POLICY, INTO
000402:                                                                                                  #                                               CHANNEL 6
000403:
000404:
000405:                                                                                                  #  NORMAL EXIT MODES:                           ALARM OR ABORT EXIT MODES:
000406:
000407:                                                                                                  #      TCF TORKVEC                                       EXTEND
000408:                                                                                                  #                                                        DCA    ABORTADR
000409:                                                                                                  #                                                        DTCB
000410:
000411:                                                                                                  #                                                        EBANK= JTSONNOW
000412:


000414:                                                                                                  #                                               ABORTADR 2CADR  ABORTJET
000415:
000416:                                                                                                  #                                               THIS SEQUENCE IS FOLLOWED
000417:                                                                                                  #                                               IF NONE OF THE POLICIES IS
000418:                                                                                                  #                                               WITHOUT JET FAILURES
000419:
000420:                                                                                                  #  ERASABLE INITIALIZATION REQUIRED
000421:
000422:                                                                                                  #      TP        =  ) TIME PERIOD OF JET FIRING
000423:                                                                                                  #      TOFJTCHG  =  ) AT T6 SCALING, 625 MICROSECONDS PER BIT
000424:                                                                                                  #      NJET      =  37777, 40000, DEPENDING ON WHETHER 4 OR 2 JETS DESIRED
000425:                                                                                                  #      TJETSIGN  = +/-00001, DEPENDING ON DISIRED SENSE OF P-AXIS ROTATION
000426:                                                                                                  #      CH6MASK   =  BITS 1-8 INDICATE WHETHER CORRESPONDING JETS HAVE FAILED - BIT ON IS FAILURE, BIT OFF IS OK.
000427:                                                                                                  #      DAPBOOLS,BIT5(AORBSYST) =0/1, DEPENDING UPON WHETHER DIAGONAL 1 OR DIAGONAL 2 WAS PREFERRED DURING LAST PASS
000428:
000429:                                                                                                  #  OUTPUT:
000430:
000431:                                                                                                  #      CHANNEL 6 - CONTAINS SELECTED JET POLICY UNLESS NONE IS AVAILABLE
000432:                                                                                                  #      NO.PJETS  - +/-2/4, SENSE OF P-AXIS ROTATION AND NUMBER OF JETS USED
000433:                                                                                                  #                  BY POLICY ACTUALLY SELECTED(MAY NOT = 4 IF 4 JETS RE-
000434:                                                                                                  #                  QUESTED BUT ONE OR MORE JETS FAILED)
000435:                                                                                                  #      TOFJTCHG  - MODIFIED BY MCOMP OR -14TOMIN DEPENDING ON WHETHER THE
000436:                                                                                                  #                  JETS WERE ON WHEN PJETSLEC WAS CALLED
000437:                                                                                                  #      DAPBOOLS, BIT5(AORBSYST) = 1/0, IF THE INPUT VALUE WAS 0/1, UNLESS JETS WERE ON WHEN PJETSLEC STARTED.
000438:
000439:                                                                                                  #      JTSATCHG  - = BIT9, UNLESS NO POLICIES AVAILABLE
000440:
000441:                                                                                                  #      NJET, TP, TJETSIGN, AND CH6MASK NOT CHANGED BY PJETSLEC
000442:
000443:                                                                                                  #      REL AND CTR ARE LEFT AT THEIR LAST VALUES WHEN THE GOOD POLICY WAS
000444:                                                                                                  #      FOUND
000445:
000446:                                                                                                  #  DEBRIS:
000447:
000448:                                                                                                  #      REL = ITEMP5
000449:                                                                                                  #      CTR = ITEMP6
000450:                                                                                                  #      A,L,Q
000451:
000452: 16,2730           00006        PJETSLEC           EXTEND                                         #  BEGIN JET SELECT ROUTINE BY SEEING WHE-
000453: 16,2731           00006                           READ     6                                     #  THER THE JETS ARE TURNED ON(CHANNEL 6
000454: 16,2732           00006                           EXTEND                                         #  NON-ZERO)
000455: 16,2733           12737                           BZF      +4                                    #  IF THE JETS AREN'T ON, GET MINIMP DELAY
000456:
000457: 16,2734           33576                           CAF      MCOMPT                                #  CONTAINS -TIME OF JET SELECTION
000458: 16,2735           27475                           ADS      TOFJTCHG                              #  ADD IT TO TOFJTCHG(TO REDUCE JET FIRING)
000459: 16,2736           12746                           TCF      TESTSIGN                              #  SINCE JETS ALREADY ON, DONT SWITCH DIAGS
000460:
000461: 16,2737           33577                           CAF      14-TJMIN                              #  PICK UP MINIMUM IMPULSE DELAY TIME
000462: 16,2740           27475                           ADS      TOFJTCHG                              #  AND ADD TO TOFJTCHG(TO LENGTHEN FIRING)
000463:


000465: 16,2741           37751                           CAF      AORBSYST                              #  IF JETS NOT ON NOW. START BY
000466: 16,2742           22077                           LXCH     DAPBOOLS                              #  SWITCHING BIT5 IN DAPBOOLS.
000467: 16,2743           00006                           EXTEND                                         #  BIT5 ON - DIAGONAL JETS 15,7 AND 8, 16
000468: 16,2744           06001                           RXOR     L
000469: 16,2745           54077                           TS       DAPBOOLS                              #  BIT5 OFF - DIAGONAL JETS 4,12 AND 3, 11
000470:
000471: 16,2746           37761        TESTSIGN           CAF      ZERO                                  #  COME HERE DIRECTLY IF JETS ALREADY ON
000472: 16,2747           54065                           TS       REL                                   #  INITIALIZE ADDRESSING INDEX AT ZERO
000473:
000474: 16,2750           11435                           CCS      TJETSIGN                              #  TEST DIRECTION OF P-AXIS ROTATION(ROLL)
000475: 16,2751           37757                           CAF      SEVEN                                 #  IF POSITIVE, GET POLICY FROM LOWER SEVEN
000476: 16,2752           26065                           ADS      REL                                   #  LOCATIONS OF TABLE
000477:
000478: 16,2753           11461                           CCS      NJET                                  #  SET IF 4-JET POLICY IS REQUESTED
000479: 16,2754           36276                           CAF      SIX                                   #  IT IS, PICK UP 6 FOR REL AND CTR
000480: 16,2755           12776                           TCF      FILCOUNT                              #  AND GO STORE THEM
000481:
000482: 16,2756           37760                           CAF      FIVE                                  #  2 JETS ONLY REQUESTED, PICK UP 5, STORE
000483: 16,2757           26065                           ADS      REL                                   #  IN REL AND CTR
000484: 16,2760           54066                           TS       CTR
000485: 16,2761           40077                           CS       DAPBOOLS                              #  CHECK BIT5 IN DAPBOOLS TO SEE WHICH PAIR
000486: 16,2762           77751                           MASK     AORBSYST                              #  OF DIAGONAL JETS SHOULD BE USED NEXT
000487: 16,2763           10000                           CCS      A
000488: 16,2764           13000                           TCF      TESTPOL                               #  FIRST PAIR, SO GO TO TESTING LOOP NOW
000489:
000490: 16,2765           00006                           EXTEND                                         #  SECOND PAIR, DECREMENT REL TO 4 OR 11.
000491: 16,2766           26065                           DIM      REL
000492: 16,2767           50065                           INDEX    REL                                   #  PICK UP SECOND DIAGONAL PAIR FROM POLICY
000493: 16,2770           33033                           CAF      PPOLTABL
000494: 16,2771           71503                           MASK     CH6MASK                               #  TABLE AND COMPARE WITH FAILURE BITS
000495: 16,2772           00006                           EXTEND
000496: 16,2773           13014                           BZF      WRITEPOL                              #  THE JETS ARE GOOD, GO WRITE IN CHANNEL
000497:
000498: 16,2774           24065                           INCR     REL                                   #  THE JET(S) HAVE FAILED FOR THIS POLICY,
000499: 16,2775           13000                           TCF      TESTPOL                               #  RESTORE REL AND DO TEST POLICY LOOP
000500:
000501: 16,2776           26065        FILCOUNT           ADS      REL                                   #  COME HERE TO SET REL AND CTR FOR 4-JET
000502: 16,2777           54066                           TS       CTR                                   #  POLICY REQUESTED.  ALSO, SET CTR -1 HERE
000503:
000504: 16,3000           50065        TESTPOL            INDEX    REL                                   #  PICK UP NEXT POLICY AS LOCATED RELATIVE
000505: 16,3001           33033                           CAF      PPOLTABL                              #  TO PPOLTABL BY REL.
000506: 16,3002           71503                           MASK     CH6MASK                               #  COMPARE WITH FAILURE BITS
000507: 16,3003           00006                           EXTEND
000508: 16,3004           13014                           BZF      WRITEPOL                              #  THE JETS ARE GOOD, WRITE IN THE CHANNEL
000509:
000510: 16,3005           00006                           EXTEND                                         #  THE JET(S) HAVE FAILED FOR THIS POLICY
000511: 16,3006           26065                           DIM      REL                                   #  DECREMENT THE INDEX.
000512: 16,3007           10066                           CCS      CTR                                   #  SEE IF ALL POLICIES HAVE BEEN TESTED.
000513: 16,3010           12777                           TCF      TESTPOL    -1                         #  CTR NOT ZERO, A = CTR -1, DO LOOP AGAIN
000514: 16,3011           00006                           EXTEND                                         #  CTR ZERO, ALL ALLOWABLE POLICIES FAILED
000515: 16,3012           33032                           DCA      ABORTADR                              #  PICK UP 2CADR OF ABORTJET
000516:


000518: 16,3013           52006                           DTCB                                           #  AND GO THERE
000519:
000520: 16,3014           50065        WRITEPOL           INDEX    REL                                   #  A GOOD POLICY IS FOUND, PICK IT UP AND
000521: 16,3015           33033                           CAF      PPOLTABL
000522: 16,3016           06012                           TC       WRITEP                                #  GO WRITE IT IN CHANNEL 6 AND RETURN
000523:
000524: 16,3017           10000                           CCS      A                                     #  THE POLICY IS STILL IN A, TEST NUMBER OF
000525: 16,3020           37754                           CAF      TWO
000526: 16,3021           13023                           TCF      +2                                    #  JETS(BIT15 ON FOR 4-JET POLICIES) AND
000527: 16,3022           37753                           CAF      FOUR
000528: 16,3023           00006                           EXTEND                                         #  MULTIPLY BY TJETSIGN(+/-1) TO GET +/-2,4
000529: 16,3024           71435                           MP       TJETSIGN
000530: 16,3025           23651                           LXCH     NO.PJETS                              #  IN L, WHICH IS THEN STORED IN NO.PJETS
000531:
000532: 16,3026           37745                           CAF      BIT9                                  #  TURN OFF P-AXIS JETS AFTER T6RUPT
000533: 16,3027           55472                           TS       JTSATCHG
000534:
000535: 16,3030           13407                           TCF      TORKVEC                               #  RECONSTRUCT P TORQUE VECTOR, THEN JTLST.
000536:
000537: 16,3031  E6,1471                                  EBANK=   JTSONNOW                              #  WOULD YOU BELIEVE, EBANK = 6
000538: 16,3031           02243 40006  ABORTADR           2CADR    ABORTJET                              #  WHERE TO GO WHEN ALL JET POLICIES FAIL
000539:                                                                                                  #  ................................................................................................................
000540:
000541:                                                                                                  #  TABLE OF P-AXIS JET POLICIES IS ASSEMBLED HERE TO BE ADDRESSED BY RELATIVE INDEX FROM BASE ADDRESS PPOLTABLE
000542:
000543:                                                                                                  #                                           CHANNEL 6 BITS                 INDEX                            JETS ON
000544:
000545: 16,3033           00202        PPOLTABL           OCTAL    00202                                 #  REL=0    -P NON-FORCE COUPLE 4- 16, 3
000546: 16,3034           00210                           OCTAL    00210                                 #  REL=1    -P NON-FORCE COUPLE 3- 11, 16
000547: 16,3035           00050                           OCTAL    00050                                 #  REL=2    -P NON-FORCE COUPLE 2- 8, 11
000548: 16,3036           00042                           OCTAL    00042                                 #  REL=3    -P NON-FORCE COUPLE 1- 3, 8
000549: 16,3037           00240                           OCTAL    00240                                 #  REL=4    NUMBER TWO FORCE COUPLE- 8, 16
000550: 16,3040           00012                           OCTAL    00012                                 #  REL=5    -P 2-JET FORCE COUPLE- 3, 11
000551: 16,3041           40252                           OCTAL    40252                                 #  REL=6    -P 4-JET POLICY- 3, 8, 11, 16
000552:
000553: 16,3042           00101                           OCTAL    00101                                 #  REL=7    +P NON-FORCE COUPLE 4- 7, 4
000554: 16,3043           00021                           OCTAL    00021                                 #  REL=8D   +P NON-FORCE COUPLE 3- 12, 7
000555:
000556: 16,3044           00024                           OCTAL    00024                                 #  REL=9D   +P NON-FORCE COUPLE 2- 15, 12
000557: 16,3045           00104                           OCTAL    00104                                 #  REL=10D  +P NON-FORCE COUPLE 1- 4, 15
000558: 16,3046           00005                           OCTAL    00005                                 #  REL=11D  NUMBER TWO FORCE COUPLE- 15, 7
000559: 16,3047           00120                           OCTAL    00120                                 #  REL=12D  +P 2-JET FORCE COUPLE- 4, 12
000560: 16,3050           40125                           OCTAL    40125                                 #  REL=13D  +P 4-JET POLICY- 4, 15, 12, 7
000561:
000562:                                                                                                  #  ................................................................................................................
000563:
000564: 16,3051           37761        JETSOFF            CAF      ZERO
000565: 16,3052           55610                           TS       TP
000566: 16,3053           55475                           TS       TOFJTCHG
000567: 16,3054           06012                           TC       WRITEP                                #  TURN ON P JETS USING T6JOB SUBROUTINE
000568:


000570:
000571: 16,3055           15751                           TCF      RESUME
000572:                                                                                                  #  P-AXIS URGENCY FUNCTION CALCULATION
000573:
000574:                                                                                                  #  (NOTE -- M13 = 1 IDENTICALLY IMPLIES NULL MULTIPLICATION.)
000575:
000576: 16,3056           30033        PURGENCY           CA       CDUY                                  #  P-ERROR CALCULATION
000577: 16,3057           00006                           EXTEND
000578: 16,3060           20767                           MSU      CDUYD                                 #  CDU VALUE - ANGLE DESIRED (Y-AXIS)
000579: 16,3061           00006                           EXTEND
000580: 16,3062           71404                           MP       M11                                   #  (CDUY-CDUYD)M11 SCALED AT PI RADIANS
000581: 16,3063           57411                           XCH      E                                     #  SAVE FIRST TERM (OF TWO)
000582: 16,3064           30032                           CA       CDUX                                  #  THIRD COMPONENT
000583: 16,3065           00006                           EXTEND
000584: 16,3066           20766                           MSU      CDUXD                                 #  CDU VALUE - ANGLE DESIRED (X-AXIS)
000585:                                                                                                  #                EXTEND
000586:                                                                                                  #                MP              M13
000587: 16,3067           27411                           ADS      E                                     #  SAVE SUM OF TERMS, NO OVERFLOW EVR
000588:
000589: 16,3070           55466                           TS       PERROR                                #  SAVE P ERROR FOR DISPLAY
000590:
000591: 16,3071           30077                           CAE      DAPBOOLS                              #  BIT15 = 0 FOR SPS BACK-UP
000592: 16,3072           00006                           EXTEND
000593: 16,3073           63145                           BZMF     NOBACKUP                              #  DAPBOOLS IS NEVER +0.
000594: 16,3074           40774                           CS       OMEGAPD                               #  THIS IS THE P-AXIS RCS BACK-UP CODING
000595: 16,3075           61416                           AD       OMEGAP
000596: 16,3076           55407                           TS       EDOT
000597:
000598: 16,3077           37735                           CAF      SLOPEMP
000599:
000600: 16,3100           00006                           EXTEND
000601: 16,3101           71411                           MP       E
000602: 16,3102           61407                           AD       EDOT
000603: 16,3103           00006                           EXTEND
000604: 16,3104           63131                           BZMF     PLUSDP
000605:
000606: 16,3105           33143                           CAF      NEGDP
000607:
000608: 16,3106           54063        GCOMPER            TS       ITEMP3
000609: 16,3107           31407                           CAE      EDOT
000610: 16,3110           00006                           EXTEND
000611: 16,3111           70000                           SQUARE
000612: 16,3112           00006                           EXTEND
000613: 16,3113           73144                           MP       1/2AP
000614:
000615: 16,3114           61411                           AD       E
000616: 16,3115           63143                           AD       NEGDP
000617: 16,3116           00006                           EXTEND
000618: 16,3117           63137                           BZMF     UCOAST
000619:
000620: 16,3120           30063                           CAE      ITEMP3
000621: 16,3121           00006                           EXTEND
000622:


000624: 16,3122           63127                           BZMF     NEGPJET
000625:
000626: 16,3123           33142                           CAF      POSP
000627: 16,3124           00006        JETPON             EXTEND
000628: 16,3125           01006                           WRITE    6
000629: 16,3126           15751                           TCF      RESUME
000630:
000631: 16,3127           33141        NEGPJET            CAF      NEGP
000632: 16,3130           13124                           TCF      JETPON
000633:
000634: 16,3131           41411        PLUSDP             CS       E
000635: 16,3132           57411                           XCH      E
000636: 16,3133           41407                           CS       EDOT
000637: 16,3134           57407                           XCH      EDOT
000638: 16,3135           43143                           CS       NEGDP
000639: 16,3136           13106                           TCF      GCOMPER
000640: 16,3137           37761        UCOAST             CAF      ZERO
000641: 16,3140           13124                           TCF      JETPON
000642: 16,3141           00120        NEGP               OCT      00120
000643: 16,3142           00240        POSP               OCT      00240
000644: 16,3143           77644        NEGDP              DEC      -0.00555
000645: 16,3144     7735               SLOPEMP            EQUALS   POSMAX
000646: 16,3144           06743        1/2AP              DEC      0.217
000647: 16,3145           37740        NOBACKUP           CAF      BIT14
000648: 16,3146           55710                           TS       SIGNTAG                               #  INDICATES EDOT POSITIVE FOR TIME BEING
000649: 16,3147           40774                           CS       OMEGAPD
000650:
000651: 16,3150           61416                           AD       OMEGAP
000652: 16,3151           10000                           CCS      A
000653: 16,3152           13164                           TCF      SCALEDOT
000654: 16,3153           13174                           TCF      PTJETLAW
000655: 16,3154           13156                           TCF      REFLECT
000656: 16,3155           13174                           TCF      PTJETLAW
000657: 16,3156           55407        REFLECT            TS       EDOT
000658: 16,3157           47740                           CS       BIT14
000659: 16,3160           55710                           TS       SIGNTAG                               #  INDICATES EDOT REALLY NEGATIVE
000660: 16,3161           41466                           CS       PERROR
000661: 16,3162           55411                           TS       E
000662: 16,3163           31407                           CAE      EDOT
000663: 16,3164           67755        SCALEDOT           AD       BIT1
000664: 16,3165           00006                           EXTEND
000665: 16,3166           77753                           MP       BIT3
000666: 16,3167           00006                           EXTEND
000667: 16,3170           13173                           BZF      PTJETLAW   -1
000668: 16,3171           37735                           CAF      POSMAX
000669: 16,3172           13174                           TCF      PTJETLAW
000670: 16,3173           30001                           CAE      L
000671: 16,3174           55407        PTJETLAW           TS       EDOT
000672: 16,3175           00006                           EXTEND
000673: 16,3176           71407                           MP       EDOT
000674:
000675: 16,3177           55412                           TS       EDOT(2)
000676:


000678: 16,3200           37763                           CAF      NEGONE
000679: 16,3201           55435                           TS       TJETSIGN
000680: 16,3202           37737                           CAF      NEGMAX
000681: 16,3203           55461                           TS       NJET                                  #  INDICATES 2 JETS ONLY FOR TIME BEING
000682: 16,3204           31412                           CAE      EDOT(2)
000683: 16,3205           00006                           EXTEND
000684: 16,3206           71441                           MP       1/2JTSP
000685: 16,3207           00006                           EXTEND
000686:
000687: 16,3210           77740                           MP       BIT14
000688: 16,3211           61411                           AD       E
000689: 16,3212           00006                           EXTEND
000690: 16,3213           61415                           SU       DB
000691: 16,3214           55445                           TS       FCT1
000692: 16,3215           00006                           EXTEND
000693: 16,3216           63252                           BZMF     5,6,7,8
000694: 16,3217           31407                           CAE      EDOT
000695: 16,3220           00006                           EXTEND
000696: 16,3221           71441                           MP       1/2JTSP
000697: 16,3222           55512                           TS       TERMA
000698: 16,3223           40000                           COM
000699: 16,3224           67743                           AD       BIT11                                 #  1SECOND SCALED AT 16 SECONDS
000700: 16,3225           00006                           EXTEND
000701: 16,3226           63247                           BZMF     MULTIJET
000702: 16,3227           43575                           CS       +1.5CSP
000703: 16,3230           61512                           AD       TERMA
000704: 16,3231           00006                           EXTEND
000705: 16,3232           63235                           BZMF     +3
000706: 16,3233           37740        MAXPTJET           CAF      BIT14
000707: 16,3234           13375                           TCF      FINDSIGN
000708: 16,3235           41445                           CS       FCT1
000709: 16,3236           61626                           AD       MINIMPDB
000710:
000711: 16,3237           00006                           EXTEND
000712: 16,3240           63302                           BZMF     PMBR
000713: 16,3241           31512                           CAE      TERMA
000714: 16,3242           63567                           AD       -35AT16
000715: 16,3243           00006                           EXTEND
000716: 16,3244           63364                           BZMF     ZONE4
000717: 16,3245           63571                           AD       38.7AT16
000718: 16,3246           13344                           TCF      SCALTJET
000719: 16,3247           37735        MULTIJET           CAF      POSMAX
000720: 16,3250           55461                           TS       NJET
000721: 16,3251           13233                           TCF      MAXPTJET
000722: 16,3252           31412        5,6,7,8            CAE      EDOT(2)
000723: 16,3253           00006                           EXTEND
000724: 16,3254           72336                           MP       .5ACCMIN
000725: 16,3255           61411                           AD       E
000726: 16,3256           61415                           AD       DB
000727: 16,3257           61625                           AD       DBMINIMP
000728: 16,3260           00006                           EXTEND
000729: 16,3261           63263                           BZMF     +2
000730:


000732: 16,3262           13051        ZONE5              TCF      JETSOFF
000733: 16,3263           43565                 +2        CS       RATEMAX
000734: 16,3264           61407                           AD       EDOT
000735: 16,3265           00006                           EXTEND
000736: 16,3266           63270                           BZMF     ZONES6,7
000737: 16,3267           13051        ZONE8              TCF      JETSOFF
000738: 16,3270           37755        ZONES6,7           CAF      BIT1
000739: 16,3271           55435                           TS       TJETSIGN
000740: 16,3272           41407                           CS       EDOT
000741: 16,3273           00006                           EXTEND
000742: 16,3274           71441                           MP       1/2JTSP
000743: 16,3275           55512                           TS       TERMA
000744: 16,3276           41445                           CS       FCT1
000745: 16,3277           61411                           AD       E
000746:
000747: 16,3300           61411                           AD       E
000748: 16,3301           61626                           AD       MINIMPDB
000749: 16,3302           55445        PMBR               TS       FCT1                                  #  FCT1 NOW HOLDS -FCT5 OR -FCT2
000750: 16,3303           31441                           CAE      1/2JTSP
000751: 16,3304           00006                           EXTEND
000752: 16,3305           77740                           MP       BIT14
000753: 16,3306           62336                           AD       .5ACCMIN
000754: 16,3307           55447                           TS       DENOM
000755: 16,3310           00006                           EXTEND
000756: 16,3311           73566                           MP       RATEMAX2
000757: 16,3312           61445                           AD       FCT1
000758: 16,3313           00006                           EXTEND
000759: 16,3314           63350                           BZMF     MISSROOT
000760: 16,3315           31445                           CAE      FCT1
000761: 16,3316           00006                           EXTEND
000762: 16,3317           11447                           DV       DENOM
000763: 16,3320           00006                           EXTEND
000764: 16,3321           71441                           MP       1/2JTSP
000765: 16,3322           00006                           EXTEND
000766: 16,3323           71441                           MP       1/2JTSP
000767: 16,3324           55513                           TS       TERMB
000768: 16,3325           43575                           CS       +1.5CSP
000769: 16,3326           61512                           AD       TERMA
000770:
000771: 16,3327           00006                           EXTEND
000772: 16,3330           70000                           SQUARE
000773: 16,3331           61513                           AD       TERMB
000774: 16,3332           00006                           EXTEND
000775: 16,3333           63233                           BZMF     MAXPTJET
000776: 16,3334           43572                           CS       TMINAT16
000777: 16,3335           61512                           AD       TERMA
000778: 16,3336           00006                           EXTEND
000779: 16,3337           63354                           BZMF     LASTTEST
000780: 16,3340           05041        ROOTNEXT           TC       T6JOBCHK
000781: 16,3341           41513                           CS       TERMB
000782: 16,3342           05435                           TC       SPROOT
000783: 16,3343           61512        SUMTJ              AD       TERMA
000784:


000786: 16,3344           60000        SCALTJET           DOUBLE
000787: 16,3345           00006                           EXTEND
000788: 16,3346           73610                           MP       25/32
000789: 16,3347           13375                           TCF      FINDSIGN
000790: 16,3350           33564        MISSROOT           CAF      RATEMAX+                              #  RATEMAX+ = RATEMAX+0.6DEGREES/SECOND
000791: 16,3351           00006                           EXTEND
000792: 16,3352           71441                           MP       1/2JTSP
000793: 16,3353           13343                           TCF      SUMTJ
000794: 16,3354           43572        LASTTEST           CS       TMINAT16
000795: 16,3355           61512                           AD       TERMA
000796: 16,3356           00006                           EXTEND
000797: 16,3357           70000                           SQUARE
000798: 16,3360           61513                           AD       TERMB
000799: 16,3361           00006                           EXTEND
000800: 16,3362           63340                           BZMF     ROOTNEXT
000801: 16,3363           13051                           TCF      JETSOFF
000802: 16,3364           31710        ZONE4              CAE      SIGNTAG
000803: 16,3365           00006                           EXTEND
000804: 16,3366           63371                           BZMF     +3
000805:
000806: 16,3367           43574                           CS       .1DPS
000807: 16,3370           13372                           TCF      +2
000808: 16,3371           33574                           CA       .1DPS
000809: 16,3372           60774                           AD       OMEGAPD
000810: 16,3373           55416                           TS       OMEGAP
000811: 16,3374           33573                           CAF      PTJMINT6
000812: 16,3375           55610        FINDSIGN           TS       TP
000813: 16,3376           31710                           CAE      SIGNTAG                               #  NEVER ZERO
000814: 16,3377           00006                           EXTEND
000815: 16,3400           63402                           BZMF     +2                                    #  EQUIVALENT TO BRANCH ON MINUS
000816: 16,3401           13404                           TCF      +3
000817: 16,3402           41435                           CS       TJETSIGN
000818: 16,3403           55435                           TS       TJETSIGN
000819: 16,3404           31610                           CAE      TP                                    #  LOAD TOFJTCHG
000820: 16,3405           55475                           TS       TOFJTCHG
000821: 16,3406           12730                           TCF      PJETSLEC                              #  AND GO SELECT GOOD POLICY
000822:
000823:                                                                                                  #  TORQUE VECTOR RECONSTRUCTION FOR THE P-AXIS
000824:
000825: 16,3407           41475        TORKVEC            CS       TOFJTCHG
000826: 16,3410           63575                           AD       +1.5CSP                               #  USE 150 MS. TO TEST FOR A PAXIS SKIP.
000827: 16,3411           00006                           EXTEND
000828: 16,3412           65751                           BZMF     RESUME                                #  TP GREATER THAN 150MS THEN DO NORMAL P.
000829:
000830: 16,3413           33616                           CA       PSKIPADR                              #  SET UP A P AXIS SKIP.
000831: 16,3414           55646                           TS       PJUMPADR                              #  GOES TO JTLST FROM HERE
000832:


000834:
000835:                                                                                                  #  PROGRAM NAME   JTLST
000836:
000837:                                                                                                  #  WRITTEN BY  DICK GRAN ( GAEC - CALL LR-5-1331 AREA CODE 516 )
000838:
000839:                                                                                                  #  THIS PROGRAM IN CONJUNCTION WITH T6-RUPT PROGRAMS ALLOWS JETS TO BE
000840:                                                                                                  #  TURNED OFF AT THE COMPUTED OFF TIME. THIS TASK IS ACCOMPLISHED BY USING
000841:                                                                                                  #  A JET LIST WHICH IS SET UP AS FOLLOWS ....
000842:
000843:                                                                                                  #                  JET OFF TIMES    DESIRED JETS AT THIS TIME
000844:
000845:                                                                                                  #                    TIME6          T6NEXTJT
000846:                                                                                                  #                    T6NEXT         T6NEXTJT +1
000847:                                                                                                  #                    T6NEXT +1      T6NEXTJT +2
000848:
000849:                                                                                                  #  THESE LOCATIONS RECEIVE THE JET ON TIMES SCALED AS T6 (.625 MS/BIT). AS
000850:                                                                                                  #  AN EXAMPLE OF HOW THE PROGRAM WORKS, CONSIDER THE FOLLOWING PROBLEM...
000851:                                                                                                  #      50 MS AGO A P AXIS JET COMPUTATION DECIDED JETS 12 AND 15 SHOULD BE
000852:                                                                                                  #      ON FOR 120 MS. AFTER 120 MS IT WAS FURTHER DECIDED THAT JETS 12,15
000853:                                                                                                  #      16 AND 3  SHOULD BE ON UNTIL THE NEXT P AXIS COMPUTATION (WHICH
000854:                                                                                                  #      OCCURS IN 200 MS AFTER THE LAST P AXIS JET COMPUTATION). AT THE
000855:                                                                                                  #      CURRENT TIME THE QR AXES COMPUTES THAT JET 2 SHOULD BE ON FOR 65 MS
000856:                                                                                                  #      AND JET 9 SHOULD BE ON FOR 72.5 MS. AFTER 72.5 MS NO FURTHER QR JETS
000857:                                                                                                  #      SHOULD BE ON. THIS SEQUENCE OF JETS CORRESPONDS TO A +P ROTATION
000858:                                                                                                  #      WITH A SIMULTANEOUS +Y AND -Z TRANSLATION AND ALSO A -V (DIAGONAL)
000859:                                                                                                  #      ROTATION ABOUT THE Y AND Z AXES . NOTE JET 9 IS ON LONGER THAN JET 2
000860:                                                                                                  #      WHICH WOULD BE THE CASE IF THE Q-R JETS HAD BEEN ON BEFORE. IN THIS
000861:
000862:                                                                                                  #      CASE, THE FOLLOWING SEQUENCE OF EVENTS OCCURRED AT THE P AXIS
000863:                                                                                                  #      COMPUTATION .....
000864:
000865:                                                                                                  #           1) CHANNEL 6 WAS LOADED WITH OCTAL 24 TO TURN ON JETS 12 AND 15
000866:
000867:                                                                                                  #           2) TIME 6 WAS LOADED WITH 120 MS
000868:
000869:                                                                                                  #           3) T6NEXT WAS LOADED WITH +0 ( THIS INDICATES THE CONTENTS OF
000870:                                                                                                  #               T6NEXT ARE NOT TO BE USED IN THE T6JOB PROGRAM)
000871:
000872:                                                                                                  #           4) T6NEXTJT WAS LOADED WITH OCTAL 226 TO CAUSE JETS 3,12,15
000873:                                                                                                  #               AND 16 TO GO ON WHEN T6 HAS BEEN DECREMENTED TO -0.
000874:
000875:                                                                                                  #           5) THE T6 CLOCK WAS TURNED ON TO BEGIN COUNTING DOWN TIME 6
000876:
000877:                                                                                                  #      AT THE QR AXES JET LIST COMPUTATION, THE T6 CLOCK HAS BEEN REDUCED
000878:                                                                                                  #      TO 70 MS (120-50) THEREFORE THE FOLLOWING OCCURS ....
000879:
000880:                                                                                                  #           1) CHANNEL 5 IS LOADED WITH OCTAL 40022 TO TURN ON JETS 2 AND
000881:                                                                                                  #               9. ( THIS IS PERFORMED IN THE SECTION CALLED RATE)
000882:
000883:                                                                                                  #           2) THE BANK IS SWITCHED FROM THE QR BANK TO THE P BANK (WHERE
000884:                                                                                                  #               THE JET LIST IS STORED) AS FOLLOWS ....
000885:
000886:                                                                                                  #                      DCA   JTLSTADR
000887:


000889:                                                                                                  #                      DTCB             ( IN THE QR AXES ONLY)
000890:
000891:                                                                                                  #           3) THE DESIRED JET ON TIME FOR JET 2 IS COMPARED WITH T6.
000892:
000893:                                                                                                  #           4) SINCE T6 IS GREATER THAN THE DESIRED JET ON TIME FOR JET 2,
000894:                                                                                                  #               T6 IS CHANGED TO 65 MS AND T6NEXT  IS LOADED WITH 5 MS.
000895:                                                                                                  #               ( THE DIFFERENCE BETWEEN JET ON TIME AND T6)
000896:
000897:                                                                                                  #           5) T6NEXTJT IS CHANGED TO OCTAL 40020 , AND THE FORMER CONTENTS
000898:                                                                                                  #               OF T6NEXTJT IS PLACED IN T6NEXTJT +1. THIS CAUSES JET 9 TO
000899:                                                                                                  #               REMAIN ON AND JET 2 TO BE TURNED OFF WHEN T6 IS DECREMENTED
000900:                                                                                                  #               TO ZERO. IT ALSO ASSIGNS THE P AXIS JET CODE TO THE
000901:                                                                                                  #               TIME IN T6NEXT.
000902:
000903:                                                                                                  #           6) THE CONTENTS OF T6NEXT (5MS) IS COMPARED WITH THE
000904:                                                                                                  #               DIFFERENCE BETWEEN THE TWO QR AXIS JET ON TIMES. SINCE HERE
000905:                                                                                                  #               THE DIFFERENCE IS 7.5 MS WHICH IS GREATER THAN THE CONTENTS
000906:                                                                                                  #               OF T6NEXT (5MS), THE ADDITIONAL QR AXIS RUPT OCCURS AFTER
000907:                                                                                                  #               THE RUPT STORED IN T6NEXT. THUS 2.5 MS (7.5 - 5) IS STORED
000908:                                                                                                  #               IN T6NEXT +1
000909:
000910:                                                                                                  #           7) T6NEXTJT +2 IS MADE EQUAL TO THE JETS WHICH ARE TO BE ON
000911:                                                                                                  #               AFTER THE 75 MS HAS ELAPSED (IN THE CASE HERE IT IS ZERO)
000912:
000913:                                                                                                  #      THUS FOR THE EXAMPLE CONSIDERED THE JET LIST IS ....
000914:
000915:                                                                                                  #           JET TIMES               JET CODES
000916:                                                                                                  #     TIME6     = 65MS.      T6NEXTJT    = 40020     SIGN IS NEGATIVE TO
000917:                                                                                                  #     T6NEXT    =  5 MS.     T6NEXTJT +1 = 00226        INDICATES Q-R AXIS
000918:                                                                                                  #     T6NEXT +1 =2.5 MS.     T6NEXTJT +2=, 40000        JETS,POSITIVE TO
000919:                                                                                                  #                                                       INDICATE P JETS.
000920:                                                                                                  #     CHANNEL 6 = 00024
000921:
000922:                                                                                                  #     CHANNEL 5 = 00022   SIGN IS LOST ONCE THE JET CODE IS LOADED
000923:
000924:                                                                                                  #  THIS EXAMPLE AND THE CODING SHOULD ALLOW ONE TO UNDERSTAND THE JET LIST.
000925:                                                                                                  #    ONE FURTHER COMMENT IS IN ORDER - IF THE JET ON TIMES EXCEED 150 MS,
000926:                                                                                                  #    THE JETS ARE TURNED ON AND THE JET LIST IS NOT ENTERED. IN 100 MS
000927:                                                                                                  #    A NEW JET ON TIME IS COMPUTED WHICH WILL RESET THE JETS IF NEEDED.
000928:                                                                                                  #    WHEN THE JET ON TIME IS LESS THAN 150MS, THE JET LIST IS LOADED AS
000929:                                                                                                  #    DISCUSSED ABOVE AND THE TJET COMPUTATION IS SKIPPED NEXT TIME, THAT IS
000930:                                                                                                  #    THE AXIS IS NOT REPEATED AGAIN UNTIL 200 MS HAS ELAPSED. THIS INSURES
000931:                                                                                                  #    THAT WHEN A NEW JET TIME IS COMPUTED THE JET LIST WILL NOT HAVE
000932:                                                                                                  #    A TIME STORED WHICH CORRESPONDS TO THE AXIS JUST COMPLETED.
000933:
000934: 16,3415           10031        JTLST              CCS      TIME6                                 #   TEST CURRENT STATE OF T6.
000935: 16,3416           13441                           TCF      T6ONNOW                               #   IF T6 IS + THEN CLOCK IS ON.
000936: 16,3417           13423                           TCF      T6OFFNOW                              #   IF T6 IS + ZERO THEN T6 MUST BE OFF
000937: 16,3420           13441                           TCF      T6ONNOW                               #     SINCE ALL DINC S LEAD TO MINUS ZERO.
000938: 16,3421           05045                           TC       T6JOB                                 #  WE ARE IN THE UNIQUE STATE WHICH SAYS
000939: 16,3422           13415                           TCF      JTLST                                 #    A T6 INTERRUPT IS WAITING.DO T6 JOB.
000940:


000942: 16,3423           31475        T6OFFNOW           CA       TOFJTCHG
000943: 16,3424           54031                           TS       TIME6                                 #  WE ARE HERE IF T6 CLOCK IS OFF.
000944: 16,3425           37737                           CA       BIT15
000945: 16,3426           00006                           EXTEND                                         #  TURN CLOCK PULSE FOR T6 ON AND LOAD T6.
000946: 16,3427           05013                           WOR      13
000947: 16,3430           31472                           CA       JTSATCHG
000948: 16,3431           55004                           TS       T6NEXTJT
000949: 16,3432           37761                           CA       ZERO
000950: 16,3433           57474                           XCH      ADDTLT6                               #  SET UP NEXT T6 INTERRUPT AFTER THE
000951: 16,3434           55002                           TS       T6NEXT                                #    CURRENT ONE IS COMPLETE. ADDTLT6 MAY
000952: 16,3435           37761                           CA       ZERO                                  #    BE ZERO IN WHICH CASE NO MORE T6.
000953: 16,3436           57473                           XCH      ADDT6JTS
000954: 16,3437           55005                           TS       T6NEXTJT   +1
000955: 16,3440           15751                           TCF      RESUME
000956:
000957: 16,3441           11002        T6ONNOW            CCS      T6NEXT                                #  HERE IF T6 IS NOW ON. SEE IF T6NEXT IS
000958: 16,3442           13522                           TCF      T6NXT=+                               #    ZERO OR NOT.
000959: 16,3443           41475                           CS       TOFJTCHG                              #  T6NEXT IS NEVER NEGATIVE.
000960: 16,3444           60031                           AD       TIME6                                 #  A CONTAINS T6 - TJET.
000961: 16,3445           10000                           CCS      A                                     #  TEST SIGN OF A (SAVING THE DIFFERENCE).
000962: 16,3446           67755                           AD       ONE
000963: 16,3447           13464                           TCF      JTSFIRST                              #  TJET IS LESS THAN T6.
000964: 16,3450           13451                           NOOP                                           #  IF DIFFERENCE I SNEGATIVE OR ZERO
000965: 16,3451           67755                           AD       ONE                                   #    WE ADD 1 SO ZERO CAN NEVER BE IN LIST.
000966: 16,3452           55002                           TS       T6NEXT
000967: 16,3453           31472                           CA       JTSATCHG
000968: 16,3454           55005                           TS       T6NEXTJT   +1                         #  BEGIN SETTING UP JETS IN THE JET LIST.
000969: 16,3455           37761                           CA       ZERO
000970: 16,3456           57474                           XCH      ADDTLT6
000971: 16,3457           55003                           TS       T6NEXT     +1
000972: 16,3460           37761                           CA       ZERO
000973: 16,3461           57473                           XCH      ADDT6JTS
000974: 16,3462           55006                           TS       T6NEXTJT   +2
000975: 16,3463           15751                           TCF      RESUME
000976: 16,3464           55002        JTSFIRST           TS       T6NEXT                                #  HERE IF TJET IS LESS THAN T6.
000977: 16,3465           31475                           CA       TOFJTCHG
000978: 16,3466           54031                           TS       TIME6                                 #  SWITCH T6 AND TJET)
000979: 16,3467           31472                           CA       JTSATCHG
000980:
000981: 16,3470           57004                           XCH      T6NEXTJT                              #  BEGIN SWITCHING JET WORDS IN JET LIST.
000982: 16,3471           55005                           TS       T6NEXTJT   +1
000983: 16,3472           41474                           CS       ADDTLT6
000984: 16,3473           00006                           EXTEND
000985: 16,3474           15751                           BZF      RESUME                                #  SEE IF AN ADDITIONAL (QR) JET TIME IS
000986: 16,3475           61002                           AD       T6NEXT                                #    REQUIRED.
000987: 16,3476           10000                           CCS      A                                     #  IF AN ADDITIONAL T6 IS NEEDEN, COMPARE
000988: 16,3477           67755                           AD       ONE                                   #    IT WITH THE CONTENTS OF T6NEXT.
000989: 16,3500           13511                           TCF      +11
000990: 16,3501           13502                           NOOP
000991: 16,3502           67755                           AD       ONE
000992: 16,3503           55003                           TS       T6NEXT     +1
000993: 16,3504           37761                           CA       ZERO
000994:


000996: 16,3505           55474                           TS       ADDTLT6
000997: 16,3506           57473                           XCH      ADDT6JTS
000998: 16,3507           55006                           TS       T6NEXTJT   +2
000999: 16,3510           15751                           TCF      RESUME
001000: 16,3511           55003                 +11       TS       T6NEXT     +1
001001: 16,3512           37761                           CA       ZERO
001002: 16,3513           57474                           XCH      ADDTLT6
001003: 16,3514           55002                           TS       T6NEXT
001004: 16,3515           37761                           CA       ZERO
001005: 16,3516           57473                           XCH      ADDT6JTS
001006: 16,3517           57005                           XCH      T6NEXTJT   +1
001007: 16,3520           55006                           TS       T6NEXTJT   +2
001008: 16,3521           15751                           TCF      RESUME
001009: 16,3522           41475        T6NXT=+            CS       TOFJTCHG
001010: 16,3523           60031                           AD       TIME6
001011: 16,3524           61002                           AD       T6NEXT
001012: 16,3525           10000                           CCS      A
001013: 16,3526           67755                           AD       ONE
001014: 16,3527           13536                           TCF      +7
001015:
001016: 16,3530           13531                           NOOP
001017: 16,3531           67755                           AD       ONE
001018: 16,3532           55003                           TS       T6NEXT     +1
001019: 16,3533           31472                           CA       JTSATCHG
001020: 16,3534           55006                           TS       T6NEXTJT   +2
001021: 16,3535           15751                           TCF      RESUME
001022: 16,3536           54001                 +7        TS       L
001023: 16,3537           41475                           CS       TOFJTCHG
001024: 16,3540           60031                           AD       TIME6
001025: 16,3541           10000                           CCS      A
001026: 16,3542           67755                           AD       ONE
001027: 16,3543           13553                           TCF      JTSB4T6
001028: 16,3544           13545                           NOOP
001029: 16,3545           67755                           AD       ONE
001030: 16,3546           55002                           TS       T6NEXT
001031: 16,3547           30001                           CA       L
001032: 16,3550           55003                           TS       T6NEXT     +1
001033: 16,3551           31472                           CA       JTSATCHG
001034: 16,3552           13561                           TCF      +7
001035: 16,3553           57002        JTSB4T6            XCH      T6NEXT
001036: 16,3554           55003                           TS       T6NEXT     +1
001037: 16,3555           31475                           CA       TOFJTCHG
001038: 16,3556           54031                           TS       TIME6
001039:
001040: 16,3557           31472                           CA       JTSATCHG
001041: 16,3560           57004                           XCH      T6NEXTJT
001042: 16,3561           57005                 +7        XCH      T6NEXTJT   +1
001043: 16,3562           57006                           XCH      T6NEXTJT   +2
001044: 16,3563           15751                           TCF      RESUME
001045:                                                                                                  #  T-JET LAW FIXED CONSTANTS
001046:
001047: 16,3564           36115        RATEMAX+           DEC      0.94222
001048:


001050: 16,3565           34344        RATEMAX            DEC      0.88889
001051: 16,3566           31221        RATEMAX2           DEC      0.79012
001052:
001053: 16,3567           77733        -35AT16            DEC      -0.00219
001054: 16,3570           77071        -5DEG+1            DEC      -.02772                               #  -5 DEGREES + CCSBIT SCALED AT PI RADIANS
001055: 16,3571           00050        38.7AT16           DEC      0.00242
001056: 16,3572           00010        TMINAT16           DEC      0.00047
001057: 16,3573           00014        PTJMINT6           DEC      0.00073
001058: 16,3574           00044        .1DPS              DEC      0.00222
001059: 16,3575           00360        +1.5CSP            DEC      +0.01465
001060: 16,3576           77767        MCOMPT             DEC      -0.00049                              #  -5MS. SCALED AS T6 (P-AXIS COMP TIME).
001061: 16,3577           00013        14-TJMIN           DEC      11         B-14
001062: 16,3600           77537        NEGCSP1            DEC      -.00977
001063: 16,3601           37775        MS30P              OCTAL    37775
001064: 16,3602           34362        0.88975            DEC      0.88975
001065: 16,3603           24366        16/25              DEC      0.64000
001066: 16,3604           77555        -DRATEDB           OCTAL    77555                                 #  -0.4 DEG/SEC SCALED AT PI/4 RADIANS/SEC
001067: 16,3605           77001        -D2JTLIM           OCTAL    77001                                 #  -1.4 DEG/SEC SCALED AT PI/4
001068: 16,3606           76447        -A2JTLIM           OCTAL    76447                                 #  -2.0 DEG/SEC SCALED AT PI/4
001069: 16,3607           77223        -ARATEDB           OCTAL    77223                                 #  -1.0 DEG/SEC SCALED AT PI/4
001070: 16,3610           31000        25/32              DEC      .78125
001071: 16,3611           77762        -TJMINT6           OCTAL    77762                                 #  -(7.5 MS + 1 BIT) SCALED AS TIME6 CLOCK
001072: 16,3612           00077        DAPLOW6            OCT      00077
001073: 16,3613           00600        BITS8,9            OCTAL    00600
001074: 16,3614           71462        UPM                DEC      -.2                                   #  TEMPORARY ESTIMATE
001075: 16,3615           03146        CSPAT1P            DEC      0.10000                               #  100 MS AT 1.
001076:
001077: 16,3616           02451        PSKIPADR           GENADR   SKIPPAXS
001078: 16,3617           37603        JETLWADR           CADR     TJETLAW
001079:
001080:
001081:
001082: 16,3620           22016        SETIDLE            LXCH     BANKRUPT                              #  FIRST T5RUPT AFTER FRESH START COMES
001083: 16,3621           32303                           CAF      IDLERADR                              #  HERE, DAPIDLER IS STARTED IN 1 SECOND.
001084: 16,3622           55000                           TS       T5ADR
001085: 16,3623           33630                           CAF      1SECRUPT
001086: 16,3624           54030                           TS       TIME5
001087: 16,3625           32076                           CAF      WIDEDB
001088: 16,3626           55415                           TS       DB
001089: 16,3627           15753                           TCF      NOQRSM
001090:
001091: 16,3630           37634        1SECRUPT           OCTAL    37634                                 #  1 SECOND SCALED AS TIME5 (100 PULSES)
001092:
001093:                                                                                                  #  DUMMY FILTER RUPT AFTER P-AXIS RUPT.
001094: 16,3631  E6,1656                                  EBANK=   AOSQTERM
001095: 16,3631           33710        DUMMYFIL           CAF      TWENTYMS                              #  RESET TIMER IMEDIATELY.  DT=20 MS
001096: 16,3632           54030                           TS       TIME5
001097: 16,3633           22016                           LXCH     BANKRUPT                              #  INTERRUPT LEAD-IN (CONTINUED).
001098:
001099: 16,3634           00006                           EXTEND                                         #  SET UP QRAXIS RUPT.
001100:
001101: 16,3635           33712                           DCA      DFQRAXIS
001102: 16,3636           53001                           DXCH     T5ADR
001103:


001105:                                                                                                  #  INCREMENT AOSTERM IN DESCENT MODE TO IMPROVE RATE DERIVATION DURING QRAXIS CONTROL.
001106:
001107: 16,3637           37754                           CAF      BIT2                                  #  STAGE BIT IS ONE FOR DESCENT.
001108: 16,3640           00006                           EXTEND
001109: 16,3641           02030                           RAND     30                                    #  READ STAGE BIT
001110: 16,3642           00006                           EXTEND
001111: 16,3643           15753                           BZF      NOQRSM                                #  NOT IN DESCENT MODE.     RESUME.
001112:
001113:
001114: 16,3644           37740                           CAF      BIT14                                 #  IS THE ENGINE OFF BIT SET.
001115: 16,3645           00006                           EXTEND
001116: 16,3646           02011                           RAND     11                                    #  READ ENGINE OFF BIT.
001117: 16,3647           00006                           EXTEND
001118: 16,3650           13655                           BZF      DLOOPBGN                              #  ZERO WHEN ENGINE IS NOT OFF.
001119:
001120: 16,3651           37761                           CAF      ZERO                                  #  YES.  ENGINE IS OFF.
001121: 16,3652           55656                           TS       AOSQTERM
001122: 16,3653           55657                           TS       AOSRTERM
001123: 16,3654           15753                           TCF      NOQRSM                                #  RESUME.
001124: 16,3655           37755        DLOOPBGN           CAF      BIT1                                  #  FIRST THE R-AXIS, THEN THE Q-AXIS.
001125: 16,3656           54061        DLOOP              TS       ITEMP1
001126: 16,3657           60000                           DOUBLE
001127: 16,3660           54062                           TS       ITEMP2
001128: 16,3661           50061                           INDEX    ITEMP1
001129: 16,3662           33705                           CA       PITCHBTS
001130: 16,3663           00006                           EXTEND
001131: 16,3664           02012                           RAND     12                                    #  IS PITCH(ROLL) GIMBAL MOVING.
001132: 16,3665           00006                           EXTEND
001133: 16,3666           13702                           BZF      DLOOPCHK                              #  ZERO WHEN GIMBAL IS NOT MOVING.
001134:
001135:                                                                                                  #  FORM ACCDOT*CSP(2)*(1-.5*K) SCALED AT PI/4.  THIS IS THE INCREMENT TO BE ADDED TO THE OFFSET ACCELERATION TERM.
001136:
001137: 16,3667           31636                           CAE      (1-K)                                 #  (1-K)   IS SCALED AT 1.
001138: 16,3670           00006                           EXTEND
001139: 16,3671           77745                           MP       BIT9                                  #  .5*(1-K) , SCALED AT 2(5).
001140: 16,3672           67745                           AD       BIT9                                  #  (1.-.5*K) SCALED AT 2(5).
001141: 16,3673           00006                           EXTEND
001142: 16,3674           73707                           MP       CSPSQ                                 #  CSP(2)*(1.-.5*K) AT 2(5)
001143: 16,3675           00006                           EXTEND
001144: 16,3676           50062                           INDEX    ITEMP2                                #  SELECT THE AXIS .
001145: 16,3677           71532                           MP       QACCDOT                               #  QACCDOT AT PI/2(7).
001146: 16,3700           50061                           INDEX    ITEMP1
001147: 16,3701           27656                           ADS      AOSQTERM                              #  ADD INCREMENT SCALED AT PI/4.
001148: 16,3702           10061        DLOOPCHK           CCS      ITEMP1
001149: 16,3703           13656                           TCF      DLOOP                                 #  R-AXIS DONE.  NOW DO THE Q-AXIS.
001150: 16,3704           15753                           TCF      NOQRSM                                #  RESUME.
001151: 16,3705           01400        PITCHBTS           OCT      01400                                 #  PITCH GIMBAL BITS  (9,10).
001152: 16,3706           06000                           OCT      06000                                 #  ROLL GIMBAL BITS,  (11,12).
001153: 16,3707           00243        CSPSQ              OCT      00243                                 #  .01 SCALED AT 1, FOR CSP(2).
001154: 16,3710           37776        TWENTYMS           OCT      37776                                 #  20 MS FOR T5.
001155: 16,3711  E6,1467                                  EBANK=   QERROR
001156:


001158: 16,3711           02002 36006  DFQRAXIS           2CADR    QRAXIS

End of include-file P-AXIS_REACTION_CONTROL_SYSTEM_AUTOPILOT.agc.  Parent file is MAIN.agc


