
Source Code


000002:                                                                                                  ## Copyright:   Public domain.
000003:                                                                                                  ## Filename:    PHASE_TABLE_MAINTENANCE.agc
000004:                                                                                                  ## Purpose:     A section of Sunburst revision 37, or Shepatin revision 0.
000005:                                                                                                  ##              It is part of an early development version of the software
000006:                                                                                                  ##              for Apollo Guidance Computer (AGC) on the unmanned Lunar
000007:                                                                                                  ##              Module (LM) flight Apollo 5. Sunburst 37 was the program
000008:                                                                                                  ##              upon which Don Eyles's offline development program Shepatin
000009:                                                                                                  ##              was based; the listing herein transcribed was actually for
000010:                                                                                                  ##              the equivalent revision 0 of Shepatin.
000011:                                                                                                  ##              This file is intended to be a faithful transcription, except
000012:                                                                                                  ##              that the code format has been changed to conform to the
000013:                                                                                                  ##              requirements of the yaYUL assembler rather than the
000014:                                                                                                  ##              original YUL assembler.
000015:                                                                                                  ## Reference:   pp. 67-77
000016:                                                                                                  ## Assembler:   yaYUL
000017:                                                                                                  ## Contact:     Ron Burkey <info@sandroid.org>.
000018:                                                                                                  ## Website:     www.ibiblio.org/apollo/index.html
000019:                                                                                                  ## Mod history: 2017-05-24 MAS  Created from Sunburst 120.
000020:                                                                                                  ##              2017-05-29 HG   Transcribed
000021:                                                                                                  ##              2017-06-21 RSB  Proofed using octopus/ProoferComments.
000022:


000024:                                                                                                  #           SUBROUTINE TO UPDATE THE PROGRAM NUMBER DISPLAY ON THE DSKY.
000025:
000026:    4105                                           BLOCK    02
000027:    4105           50002        NEWMODEX           INDEX    Q                                     #  UPDATE MODREG.
000028:    4106           30000                           CAF      0
000029:    4107           24002                           INCR     Q
000030:    4110           56302                           XCH      MODREG
000031:    4111           40000                           COM                                            #  IF NO CHANGE IN MODE, RETURN IMMEDIATELY
000032:    4112           60302                           AD       MODREG
000033:    4113           00006                           EXTEND
000034:    4114           17011                           BZF      TCQ
000035:
000036:    4115           34120                           CAF      +3                                    #  CALL PINBALL SUBROUTINE
000037:    4116           22006        PREBJUMP           LXCH     BBANK                                 #  PUTS BBANK IN L
000038:
000039:    4117           15246                           TCF      BANKJUMP                              #  PUTS Q INTO A
000040:    4120           72000                           CADR     SETUPDSP
000041:
000042:                                                                                                  #           RETURN TO CALLER +3 IF MODE = THAT AT CALLER +1. OTHERWISE RETURN TO CALLER +2.
000043:
000044:    4121           50002        CHECKMM            INDEX    Q
000045:    4122           40000                           CS       0
000046:    4123           60302                           AD       MODREG
000047:    4124           00006                           EXTEND
000048:    4125           17010                           BZF      Q+2
000049:    4126           17006                           TCF      Q+1                                   #  NO MATCH
000050:
000051:    4127     7011               TCQ                =        Q+2        +1
000052:
000053: 35,2000                                           BANK     35
000054:
000055: 35,2000           00004        SETUPDSP           INHINT
000056: 35,2001           52071                           DXCH     RUPTREG1                              #  SAVE CALLER-S RETURN 2CADR
000057: 35,2002           35226                           CAF      PRIO30                                #    EITHER A TASK OR JOB CAN COME TO
000058: 35,2003           05523                           TC       NOVAC                                 #    NEWMODEX
000059: 35,2004     0302                                  EBANK=   MODREG
000060: 35,2004           02011 72060                     2CADR    DSPMMJOB
000061:
000062: 35,2006           52071                           DXCH     RUPTREG1
000063: 35,2007           00003                           RELINT
000064: 35,2010           52006                           DXCH     Z                                     #  RETURN
000065:
000066: 35,2011           05224        DSPMMJOB           TC       BANKCALL
000067: 35,2012           13403                           CADR     DSPMM1
000068: 35,2013           15605                           TCF      ENDOFJOB
000069:
000070:    4127                                           BLOCK    02
000071:


000073:
000074:                                                                                                  #  PHASCHNG IS THE MAIN WAY OF MAKING PHASE CHANGES FOR RESTARTS.  THERE ARE THREE FORMS OF PHASCHNG, KNOWN AS TYPE
000075:                                                                                                  #  A, TYPE B, AND TYPE C. THEY ARE ALL CALLED AS FOLLOWS, WHERE OCT XXXXX   CONTAINS THE PHASE INFORMATION,
000076:
000077:                                                                                                  #                                                   TC     PHASCHNG
000078:                                                                                                  #                                                   OCT    XXXXX
000079:
000080:                                                                                                  #  TYPE A IS CONCERNED WITH FIXED PHASE CHANGES, THAT IS, PHASE INFORMATIONTHAT IS STORED PERMANENTLY.  THESE
000081:                                                                                                  #  OPTIONS ARE, WHERE G STANDS FOR A GROUP AND .X FOR THE PHASE.
000082:
000083:                                                                                                  #                  G.0             INACTIVE, WILLNOT PERMIT A GROUP G RESTART
000084:                                                                                                  #                  G.1             WILL CAUSE THE LAST DISPLAY TO BE REACTIVATED, USED MAINLY IN MANNED FLIGHTS
000085:                                                                                                  #                  G.EVEN          A DOUBLE TABLE RESTART, CAN CAUSE ANY COMBINATION OF TWO JOBS, TASKS, AND/OR
000086:                                                                                                  #                                  LONGCALL TO BE RESTARTED.
000087:                                                                                                  #                  G.ODD NOT .1    A SINGLE TABLE RESTART, CAN CAUSE EITHER A JOB, TASK, OR LONGCALL RESTART
000088:
000089:                                                                                                  #  THIS INFORMATION IS PUT INTO THE OCTAL WORD AFTER TC PHASCHNG AS FOLLOWS
000090:
000091:                                                                                                  #                  TL0 00P PPP PPP GGG                                               ,
000092:
000093:                                                                                                  #  WHERE EACH LETTER OR NUMBER STANDS FOR A BIT.  THE G:S STAND FOR THE GROUP, OCTAL 1 - 7, THE P:S FOR THE PHASE,
000094:                                                                                                  #  OCTAL 0 - 127.  0:S MUST BE 0.              IF ONE WISHES TO HAVE THE TBASE OF GROUP G TO BE SET AT THIS TIME,
000095:                                                                                                  #  T IS SET TO 1, OTHERWISE IT IS SET TO 0.  SIMIARLY IF ONE WISHES TO SET LONGBASE, THEN L IS SET TO 1, OTHERWISE
000096:                                                                                                  #  IT IS SET TO 0.  SOME EXAMPLES,
000097:
000098:                                                                                                  #                                                   TC     PHASCHNG        THIS WILL CAUSE GROUP 3 TO BE SET TO 0,
000099:                                                                                                  #                                                   OCT    00003           MAKING GROUP 3 INACTIVE
000100:
000101:                                                                                                  #                                                   TC     PHASCHNG        IF A RESTART OCCURS THIS WOULD CAUSE
000102:                                                                                                  #                                                   OCT    00012           GROUP 2 TO RESTART THE LAST DISPLAY
000103:
000104:                                                                                                  #                                                   TC     PHASCHNG        THIS SETS THE TBASE OF GROUP 4 AND IN
000105:                                                                                                  #                                                   OCT    40064           CASE OF A RESTART WOULD START UP THE TWO
000106:                                                                                                  #                                                                          THINGS LOCATED IN THE DOUBLE 4.6 RESTART
000107:                                                                                                  #                                                                          LOCATION
000108:                                                                                                  #                                                   TC     PHASCHNG        THIS SETS LONGBASE AND UPON A RESTART
000109:                                                                                                  #                                                   OCT    20135           CAUSES 5.13 TO BE RESTARTED  (SINCE
000110:                                                                                                  #                                                                          LONGBASE WAS SET THIS SINGLE ENTRY
000111:                                                                                                  #                                                                          SHOULD BE A LONGCALL)
000112:                                                                                                  #                                                   TC     PHASCHNG        SINCE BOTH TBASE4 AND LONGBASE ARE SET,
000113:                                                                                                  #                                                   OCT    60124           4.12 SHOULD CONTAIN BOTH A TASK AND A
000114:                                                                                                  #                                                                          LONGCALL TO BE RESTARTED
000115:
000116:                                                                                                  #  TYPE C PHASCHNG CONTAINS THE VARIABLE TYPE OF PHASCHNG INFORMATION. INSTEAD OF THE INFORMATION BEING IN A
000117:
000118:                                                                                                  #  PERMANENT FORM, ONE STORES THE DESIRED RESTART INFORMATION IN A VARIABKE LOCATION. THE BITS ARE AS FOLLOWS,
000119:
000120:                                                                                                  #                  TL0 1AD XXX CJW GGG
000121:
000122:                                                                                                  #  WHERE EACH LETTER OR NUMBER STANDS FOR A BIT.  THE G:S STAND FOR THE GROUP, OCTAL 1 - 7.  IF THE RESTART IS TO
000123:                                                                                                  #  BE BY WAITLIST, W IS SET TO 1, IF IT IS A JOB, J IS SET TO 1, IF IT IS A LONGCALL, C IS SET TO 1. ONLY ONE OF
000124:                                                                                                  #  THESE THREE BIT S MAY BE SET.  X:S ARE IGNORED  1 MUST BE 1, AND 0 MUST  BE 0.  AGAIN T STANDS FOR THE TBASE,
000125:


000127:                                                                                                  #  AND L FOR LONGBASE.  THE BITS A AND D ARE CONCERNED WITH THE VARIABLE INFORMATION. IF D IS SET TO 1, A PRIORITY
000128:                                                                                                  #  OR DELTA TIME WILL BE READ FROM THE NEXT LOCATION AFTER THE OCTAL INFORMATION, IF THIS IS TO BE INDIRECT, THAT
000129:
000130:                                                                                                  #  IS, THE NAME OF A LOCATION CONTAINING THE INFORMATION (DELTA TIME ONLY), THEN THIS IS GIVEN AS THE -GENADR OF
000131:                                                                                                  #  THAT LOCATION WHICH CONTAINS THE DELTA TIME.  IF THE OLD PRIORITY OR DELTA TIME IS TO BE USED, THAT WHICH IS
000132:                                                                                                  #  ALREADY IN THE VARIABLE STORAGE, THEN D IS SET TO 0. NEXT THE A BIT IS USED.  IF IT IS SET TO 0, THE ADDRESS
000133:                                                                                                  #  THAT WOULD BE RESTARTED DURING A RESTART IS THE NEXT LOCATION AFTER THE  PHASE INFORMATION, THAT IS, EITHER
000134:                                                                                                  #  (TC PHASCHNG) +2 OR +3, DEPENDING ON WHETHER D HAD BEEN SET OR NOT.  IF A IS SET TO 1, THEN THE ADDRESS THAT
000135:                                                                                                  #  WOULD BE RESTARTED IS THE 2CADR THAT IS READ FROM THE NEXT TWO LOCATIONS.  EXAMPLES,
000136:
000137:                                                                                                  #                                          AD       TC     PHASCHNG        THIS WOULD CAUSE LOCATION AD +3 TO BE
000138:                                                                                                  #                                          AD+1     OCT    05023           RESTARTED BY GROUP THREE WITHA PRIORITY
000139:                                                                                                  #                                          AD+2     OCT    23000           OF 23.  NOTE UPON RETURNING IT WOULD
000140:                                                                                                  #                                          AD+3                            ALSO GO TO AD+3
000141:
000142:                                                                                                  #                                          AD       TC     PHASCHNG        GROUP  1 WOULD CAUSE CAUSE CALLCALL TO
000143:                                                                                                  #                                          AD+1     OCT    27441           BE STARTED AS A LONGCALL FROM THE TIME
000144:                                                                                                  #                                          AD+2    -GENADR DELTIME         STORED IN LONGBASE (LONGBASE WAS SET) BY
000145:                                                                                                  #                                          AD+3     2CADR  CALLCALL        A DELTATIME STORED IN DELTIME.  THE
000146:                                                                                                  #                                          AD+4                            BBCON OF THE 2CADR SHOULD CONTAIN THE E
000147:                                                                                                  #                                          AD+5                            BANK OF DELTIME. PHASCHNG RETURNS TO
000148:                                                                                                  #                                                                          LOCATION AD+5
000149:
000150:                                                                                                  #  TYPE B PHASCHNG IS A COMBINATION OF VARIABLE AND FIXED PHASE CHANGES. IT WILL START UP A JOB AS INDICATED
000151:                                                                                                  #  BELOW AND ALSO START UP ONE FIXED RESTART, THAT IS EITHER AN G.1 OR  A G.ODD OR THE FIRST ENTRY OF G.EVEN
000152:                                                                                                  #  DOUBLE ENTRY.  THE BIT INFORMATION IS AS FOLLOWS,
000153:
000154:                                                                                                  #                  TL1 DAP PPP PPP GGG
000155:
000156:                                                                                                  #  WHERE EACH LETTER OR NUMBER STANDS FOR A BIT.  THE G:S STAND FOR THE GROUP, OCTAL 1 - 7, THE P:S FOR THE FIXED
000157:                                                                                                  #  PHASE INFORMATION, OCTAL 0 - 127. 1 MUST BE 1.  AND AGAIN T STANDS FOR THE TBASE AND L FOR LONGBASE. D THIS
000158:                                                                                                  #  TIME STANDS ONLY FOR PRIORITY SINCE THIS WILL BE CONSIDERED A JOB, AND IT MUST BE GIVEN DIRECTLY IF GIVEN.
000159:                                                                                                  #  AGAIN A STANDS FOR THE ADDRESS OF THE LOCATION TO BE RESTARTED, 1 IF THE 2CADR IS GIVEN , OR 0 IF IT IS TO BE
000160:                                                                                                  #  THE NEXT LOCATION.(THE RETURN LOCATION OF PHASCHNG) EXAMPLES,
000161:
000162:                                                                                                  #                                          AD       TC     PHASCHNG        TBASE IS SET AND ARESTART CAUSE GROUP 3
000163:                                                                                                  #                                          AD+1     OCT    56043           TO START THE JOB AJOBAJOB WITH PRIORITY
000164:
000165:                                                                                                  #                                          AD+2     OCT    31000           31 AND THE FIRST ENTRY OF 3.4SPOT(WE CAN
000166:                                                                                                  #                                          AD+3     2CADR  AJOBAJOB        ASSUME IT IS A TASK SINCE WE SET TBASE3)
000167:                                                                                                  #                                          AD+4                            UPON RETURN FROM PHASCHNG CONTROL WOULD
000168:                                                                                                  #                                          AD+5                            GO TO AD+5
000169:
000170:                                                                                                  #                                          AD       TC     PHASCHNG        UPON A RESTART THE LAST DISPLAY WOULD BE
000171:                                                                                                  #                                          AD+1     OCT    10015           RESTARTED AND A JOB WITH THE PREVIOUSLY
000172:                                                                                                  #                                          AD+2                            STORED PRIORITY WOULD BE BEGUN AT AD+2
000173:                                                                                                  #                                                                          BY MEANS OF GROUP 5
000174:
000175:                                                                                                  #  SUMMARY OF BITS
000176:
000177:                                                                                                  #  TYPE A          TL0 00P PPP PPP GGG
000178:


000180:                                                                                                  #  TYPE B          TL1 DAP PPP PPP GGG
000181:
000182:                                                                                                  #  TYPE C          TL0 1AD XXX CJW GGG
000183:


000185:                                                                                                  #  2PHSCHNG IS USED WHEN ONE WISHES TO START UP A GROUP OR CHANGE A GROUP WHILE UNDER THE CONTROL OF A DIFFERENT
000186:                                                                                                  #  GROUP. FOR EXAMPLE, CHANGE THE PHASE OF GROUP 3 WHILE THE PORTION OF THE PROGRAM IS UNDER GROUP 5. ALL 2PHSCHNG
000187:                                                                                                  #  CALLS ARE MADE IN THE FOLLOWING MANNER,
000188:
000189:                                                                                                  #                                                   TC     2PHSCHNG
000190:                                                                                                  #                                                   OCT    XXXXX
000191:                                                                                                  #                                                   OCT    YYYYY
000192:
000193:                                                                                                  #  WHERE OCT XXXXX MUST BE OF TYPE A AND OCT YYYYY MAY BE OF EITHER TYPE A OR TYPE B OR TYPEC.  THERE IS ONE
000194:                                                                                                  #  DIFFERENCE --- NOTE- IF LONGBASE IS TO BE SET THIS INFORMATION IS GIVEN IN THE OCT YYYYY INFORMATION, IT WILL
000195:                                                                                                  #  BE DISREGARDED IF GIVEN WITH THE OCT XXXXX INFORMATION. A COUPLE OF EXAMPLES MAY HELP,
000196:
000197:                                                                                                  #                                          AD       TC     2PHSCHNG        SET TBASE3 AND IF A RESTART OCCURS START
000198:                                                                                                  #                                          AD+1     OCT    40083           THE TWO ENTRIES IN 3.8 TABLE LOCATION
000199:
000200:                                                                                                  #                                          AD+2     OCT    05025           THIS IS OF TYPE C, SET THE JOB TO BE
000201:                                                                                                  #                                          AD+3     OCT    18000           TO BE LOCATION AD+4, WITH A PRIORITY 18,
000202:                                                                                                  #                                          AD+4                            FOR GROUP 5 PHASE INFORMATION
000203:
000204:    4127           00004        2PHSCHNG           INHINT                                         #  THE ENTRY FOR A DOUBLE PHASE CHANGE
000205:    4130           50002                           NDX      Q
000206:    4131           30000                           CA       0
000207:    4132           24002                           INCR     Q
000208:    4133           54072                           TS       TEMPP2
000209:
000210:    4134           77757                           MASK     OCT7
000211:    4135           60000                           DOUBLE
000212:    4136           54071                           TS       TEMPG2
000213:
000214:    4137           30072                           CA       TEMPP2
000215:    4140           74227                           MASK     OCT17770                              #  NEED ONLY 1770, BUT WHY GET A NEW CONST.
000216:    4141           00006                           EXTEND
000217:    4142           77742                           MP       BIT12
000218:    4143           56072                           XCH      TEMPP2
000219:
000220:    4144           77737                           MASK     BIT15
000221:    4145           54066                           TS       TEMPSW2                               #  INDICATES WHETHER TO SET TBASE OR NOT
000222:
000223:    4146           14152                           TCF      PHASCHNG   +3
000224:
000225:
000226:    4147           00004        PHASCHNG           INHINT
000227:    4150           37755                           CA       ONE                                   #  INDICATESWE CAME FROM A PHASCHNG ENTRY
000228:    4151           54066                           TS       TEMPSW2
000229:
000230:    4152           50002                           NDX      Q
000231:    4153           30000                           CA       0
000232:    4154           24002                           INCR     Q
000233:    4155           54065                           TS       TEMPSW
000234:
000235:    4156           00006                           EXTEND
000236:


000238:    4157           34162                           DCA      ADRPCHN2                              #  OFF TO SWITCHED BANK
000239:    4160           52006                           DTCB
000240:
000241:    4161  E3,1400                                  EBANK=   LST1
000242:    4161           02365 14003  ADRPCHN2           2CADR    PHSCHNG2
000243:
000244:    4163           22073        ONEORTWO           LXCH     TEMPBBCN
000245:    4164           22006                           LXCH     BBANK
000246:    4165           22073                           LXCH     TEMPBBCN
000247:
000248:    4166           75656                           MASK     OCT14000                              #  SEE WHAT KIND OF PHASE CHANGE IT IS
000249:    4167           10000                           CCS      A
000250:    4170           14230                           TCF      CHECKB                                #   IT IS OF TYPE :B:
000251:
000252:    4171           30062                           CA       TEMPP
000253:    4172           77747                           MASK     BIT7
000254:    4173           10000                           CCS      A                                     #   SHALL WE USE THE OLD PRIORITY
000255:    4174           14214                           TCF      GETPRIO                               #   NO GET A NEW PRIORITY (OR DELTA T)
000256:
000257:    4175           50061        OLDPRIO            NDX      TEMPG                                 #   USE THE OLD PRIORITY (OR DELTA T)
000258:    4176           31112                           CA       PHSPRDT1   -2
000259:    4177           54070                           TS       TEMPPR
000260:
000261:    4200           30062        CON1               CA       TEMPP                                 #  SEE IF A 2CADR IS GIVEN
000262:    4201           77746                           MASK     BIT8
000263:    4202           10000                           CCS      A
000264:    4203           14220                           TCF      GETNEWNM
000265:
000266:    4204           30002                           CA       Q
000267:    4205           54063                           TS       TEMPNM
000268:    4206           30006                           CA       BB
000269:    4207           54064                           TS       TEMPBB
000270:
000271:    4210           34213        TOCON2             CA       CON2ADR                               #  BACK TO SWITCHED BANK
000272:    4211           22073                           LXCH     TEMPBBCN
000273:    4212           52006                           DTCB
000274:
000275:    4213           02453        CON2ADR            GENADR   CON2
000276:
000277:    4214           50002        GETPRIO            NDX      Q                                     #  DON:T CARE IF DIRECT OR INDIRECT
000278:    4215           30000                           CA       0                                     #  LEAVE THAT DECISION TO RESTARTS
000279:    4216           24002                           INCR     Q                                     #  OBTAIN RETURN ADDRESS
000280:
000281:    4217           14177                           TCF      CON1       -1
000282:
000283:    4220           00006        GETNEWNM           EXTEND
000284:    4221           50002                           INDEX    Q
000285:    4222           30001                           DCA      0
000286:    4223           52064                           DXCH     TEMPNM
000287:    4224           37754                           CA       TWO
000288:


000290:    4225           26002                           ADS      Q                                     #  OBTAIN RETURN ADDRESS
000291:
000292:    4226           14210                           TCF      TOCON2
000293:
000294:    4227           17770        OCT17770           OCT      17770
000295:    4230     5656               OCT14000           EQUALS   PRIO14
000296:    4230     7757               OCT7               EQUALS   SEVEN
000297:    4230     0061               TEMPG              EQUALS   ITEMP1
000298:    4230     0062               TEMPP              EQUALS   ITEMP2
000299:    4230     0063               TEMPNM             EQUALS   ITEMP3
000300:    4230     0064               TEMPBB             EQUALS   ITEMP4
000301:    4230     0065               TEMPSW             EQUALS   ITEMP5
000302:    4230     0066               TEMPSW2            EQUALS   ITEMP6
000303:    4230     0070               TEMPPR             EQUALS   RUPTREG1
000304:    4230     0071               TEMPG2             EQUALS   RUPTREG2
000305:    4230     0072               TEMPP2             EQUALS   RUPTREG3
000306:
000307:    4230     0073               TEMPBBCN           EQUALS   RUPTREG4
000308:    4230  0000006               BB                 EQUALS   BBANK
000309:
000310:
000311:
000312: 06,2365                                           BANK     06
000313:
000314: 06,2365  E3,1516                                  EBANK=   PHSNAME1
000315: 06,2365           22073        PHSCHNG2           LXCH     TEMPBBCN
000316:
000317: 06,2366           30065                           CA       TEMPSW
000318: 06,2367           77757                           MASK     OCT7
000319: 06,2370           60000                           DOUBLE
000320: 06,2371           54061                           TS       TEMPG
000321:
000322: 06,2372           30065                           CA       TEMPSW
000323: 06,2373           74227                           MASK     OCT17770
000324: 06,2374           00006                           EXTEND
000325: 06,2375           77742                           MP       BIT12
000326: 06,2376           54062                           TS       TEMPP
000327:
000328: 06,2377           30065                           CA       TEMPSW
000329: 06,2400           72436                           MASK     OCT60000
000330: 06,2401           56065                           XCH      TEMPSW
000331: 06,2402           75656                           MASK     OCT14000
000332: 06,2403           10000                           CCS      A
000333:
000334: 06,2404           14163                           TCF      ONEORTWO
000335:
000336: 06,2405           30062                           CA       TEMPP                                 #  START STORING THE PHASE INFORMATION
000337: 06,2406           50061                           NDX      TEMPG
000338: 06,2407           55076                           TS       PHASE1     -2
000339:
000340: 06,2410           10066        BELOW1             CCS      TEMPSW2                               #  IS IT A PHASCHNG OR A 2PHSCHNG
000341:


000343: 06,2411           12425                           TCF      BELOW2                                #  IT:S A PHASCHNG
000344:
000345: 06,2412           12413                           TCF      +1                                    #  IT:S A 2PHSCHNG
000346: 06,2413           40072                           CS       TEMPP2
000347: 06,2414           22072                           LXCH     TEMPP2
000348: 06,2415           50071                           NDX      TEMPG2
000349: 06,2416           53076                           DXCH     -PHASE1    -2
000350:
000351: 06,2417           10066                           CCS      TEMPSW2
000352: 06,2420           12421                           NOOP                                           #  CAN:T GET HERE
000353: 06,2421           12425                           TCF      BELOW2
000354:
000355: 06,2422           40025                           CS       TIME1
000356: 06,2423           50071                           NDX      TEMPG2
000357: 06,2424           55111                           TS       TBASE1     -2
000358:
000359: 06,2425           10065        BELOW2             CCS      TEMPSW                                #  SEE IF WE SHOULD SET TBASE OR LONGBASE
000360: 06,2426           12441                           TCF      BELOW3                                #  SET LONGBASE ONLY
000361: 06,2427           12444                           TCF      BELOW4                                #  SET NEITHER
000362:
000363: 06,2430           40025                           CS       TIME1                                 #  SET TBASE TO BEGIN WITH
000364: 06,2431           50061                           NDX      TEMPG
000365: 06,2432           55111                           TS       TBASE1     -2
000366:
000367: 06,2433           30065                           CA       TEMPSW                                #   SHALL WE NOW SET LONGBASE
000368: 06,2434           62437                           AD       BIT14COM
000369: 06,2435           10000                           CCS      A
000370: 06,2436           60000        OCT60000           OCT      60000                                 #  ***** CANT GET HERE *****
000371: 06,2437           17777        BIT14COM           OCT      17777                                 #  ***** CANT GET HERE *****
000372: 06,2440           12444                           TCF      BELOW4                                #  NO WE NEED ONLY SET TBASE
000373:
000374: 06,2441           00006        BELOW3             EXTEND                                         #  SET LONGBASE
000375:
000376: 06,2442           30025                           DCA      TIME2
000377: 06,2443           53433                           DXCH     LONGBASE
000378:
000379: 06,2444           40062        BELOW4             CS       TEMPP                                 #  AND STORE THE FINAL PART OF THE PHASE
000380: 06,2445           50061                           NDX      TEMPG
000381: 06,2446           55075                           TS       -PHASE1    -2
000382:
000383: 06,2447           30002                           CA       Q
000384: 06,2450           22073                           LXCH     TEMPBBCN
000385: 06,2451           00003                           RELINT
000386: 06,2452           52006                           DTCB
000387: 06,2453           22073        CON2               LXCH     TEMPBBCN
000388:
000389: 06,2454           30062                           CA       TEMPP
000390: 06,2455           50061                           NDX      TEMPG
000391: 06,2456           55076                           TS       PHASE1     -2
000392:
000393: 06,2457           30070                           CA       TEMPPR
000394:


000396: 06,2460           50061                           NDX      TEMPG
000397: 06,2461           55112                           TS       PHSPRDT1   -2
000398:
000399: 06,2462           00006                           EXTEND
000400: 06,2463           30064                           DCA      TEMPNM
000401: 06,2464           50061                           NDX      TEMPG
000402: 06,2465           53515                           DXCH     PHSNAME1   -2
000403:
000404: 06,2466           12410                           TCF      BELOW1
000405:
000406:    4230                                           BLOCK    02
000407:    4230           77742        CHECKB             MASK     BIT12                                 #  SINCE THIS IS OF TYPE B, THIS BIT SHOULD
000408:    4231           10000                           CCS      A                                     #   BE HERE IF WE ARE TO GET A NEW PRIORITY
000409:    4232           14214                           TCF      GETPRIO                               #  IT IS, SO GET NEW PRIORITY
000410:
000411:    4233           14175                           TCF      OLDPRIO                               #  IT ISN:T, USE THE OLD PRIORITY
000412:


000414:                                                                                                  #  PROGRAM DESCRIPTION: NEWPHASE                                           DATE: 11 NOV 1966
000415:                                                                                                  #  MOD: 1                                                                  ASSEMBLY: SUNBURST REV
000416:                                                                                                  #  MOD BY: COPPS                                                           LOG SECTION: PHASE TABLE MAINTENANCE
000417:                                                                                                  #  FUNCTIONAL DESCRIPTION:
000418:                                                                                                  #                NEWPHASE IS THE QUICK WAY TO MAKE A NON VARIABLE PHASE CHANGE. IT INCLUDES THE OPTION OF SETTING
000419:                                                                                                  #           TBASE OF THE GROUP. IF TBASE IS TO BE SET,  -C(TIME1) IS STORED IN THE TBASE TABLE AS FOLLOWS:
000420:
000421:                                                                                                  #                  (L-1) TBASE0
000422:                                                                                                  #                  (L)   TBASE1 (IF GROUP=1)
000423:                                                                                                  #                  (L+1)
000424:                                                                                                  #                  (L+2) TBASE2 (IF GROUP=2)
000425:                                                                                                  #                  -----
000426:                                                                                                  #                  (L+6) TBASE4 (IF GROUP=4)
000427:                                                                                                  #                  (L+7)
000428:                                                                                                  #                  (L+8) TBASE5 (IF GROUP=5)
000429:
000430:                                                                                                  #           IN ANY CASE, THE NEGATIVE OF THE PHASE, FOLLOWED (IN THE NEXT REGISTER)  BY THE PHASE, IS STORED IN THE
000431:                                                                                                  #           PHASE TABLE AS FOLLOWS:
000432:
000433:                                                                                                  #                  (L)   -PHASE1 (IF GROUP=1)
000434:
000435:                                                                                                  #                  (L+1) PHASE1
000436:                                                                                                  #                  (L+2) -PHASE2 (IF GROUP=2)
000437:                                                                                                  #                  (L+3) PHASE2
000438:                                                                                                  #                  -----
000439:                                                                                                  #                  (L+7) PHASE 4
000440:                                                                                                  #                  (L+8) -PHASE5 (IF GROUP=5)
000441:                                                                                                  #                  (L+9) PHASE5
000442:
000443:                                                                                                  #  CALLING SEQUENCE:
000444:                                                                                                  #                EXAMPLE IS FOR PLACING A PHASE OF FIVE INTO GROUP THREE:
000445:
000446:                                                                                                  #           1) IF TBASE IS NOT TO BE SET:
000447:                                                                                                  #                                          L-1      CA     FIVE
000448:                                                                                                  #                                          L        TC     NEWPHASE
000449:                                                                                                  #                                          L+1      OCT    00003
000450:
000451:                                                                                                  #           2) IF TBASE IS TO BE SET:
000452:                                                                                                  #                                          L-1      CS     FIVE
000453:                                                                                                  #                                          L        TC     NEWPHASE
000454:                                                                                                  #                                          L+1      OCT    00003
000455:
000456:                                                                                                  #  SUBROUTINES CALLED: NONE
000457:
000458:                                                                                                  #  NORMAL EXIT MODE: AT L+2 OF CALLING SEQUENCE
000459:
000460:                                                                                                  #  ALARM OR ABORT EXITS: NONE
000461:
000462:                                                                                                  #  OUTPUT: PHASE TABLE AND TBASE TABLE UPDATED
000463:
000464:                                                                                                  #  ERASABLE INITIALIZATION REQ,D: NONE
000465:


000467:                                                                                                  #  DEBRIS: A,L,TEMPG
000468:
000469:                                                                                                  #  ***WARNING*** THIS PROGRAM IS TO BE PLACED IN FIXED-FIXED AND UNSWITCHED ERASABLE.
000470:
000471:    4234                                           BLOCK    02
000472:    4234           00004        NEWPHASE           INHINT
000473:
000474:    4235           54001                           TS       L                                     #  SAVE FOR FURTHER USE
000475:
000476:    4236           50002                           NDX      Q                                     #  OBTAIN THE GROUP NUMBER
000477:    4237           30000                           CA       0
000478:    4240           24002                           INCR     Q                                     #  OBTAIN THE RETURN ADDRESS
000479:    4241           60000                           DOUBLE                                         #  SAVE THE GROUP IN A FORM USED FOR
000480:    4242           54061                           TS       TEMPG                                 #  INDEXING
000481:
000482:    4243           10001                           CCS      L                                     #  SEE IF WE ARE TO SET TBASE
000483:    4244           14253                           TCF      +7                                    #  NO, THE DELTA T WAS POSITIVE
000484:    4245           14253                           TCF      +6
000485:
000486:    4246           24000                           INCR     A                                     #  SET TBASE AND STORE PHASE CORRECTLY
000487:    4247           54001                           TS       L
000488:
000489:    4250           40025                           CS       TIME1                                 #  SET TBASE
000490:    4251           50061                           NDX      TEMPG
000491:    4252           55111                           TS       TBASE1     -2
000492:
000493:    4253           40001                           CS       L                                     #  NOW PUT THE PHASE IN THE RIGHT TABLE LOC
000494:    4254           50061                           NDX      TEMPG
000495:    4255           53076                           DXCH     -PHASE1    -2
000496:
000497:    4256           00003                           RELINT
000498:    4257           00002                           TC       Q                                     #  NOW RETURN TO CALLER
000499:
000500:    4260           24000        NUFAZ+10           INCR     A                                     #  SET TBASE AND STORE BASE CORRECTLY

End of include-file PHASE_TABLE_MAINTENANCE.agc.  Parent file is MAIN.agc


