
Source Code


000002:                                                                                                  ## Copyright:   Public domain.
000003:                                                                                                  ## Filename:    PINBALL_GAME__BUTTONS_AND_LIGHTS.agc
000004:                                                                                                  ## Purpose:     A section of Sunburst revision 37, or Shepatin revision 0.
000005:                                                                                                  ##              It is part of an early development version of the software
000006:                                                                                                  ##              for Apollo Guidance Computer (AGC) on the unmanned Lunar
000007:                                                                                                  ##              Module (LM) flight Apollo 5. Sunburst 37 was the program
000008:                                                                                                  ##              upon which Don Eyles's offline development program Shepatin
000009:                                                                                                  ##              was based; the listing herein transcribed was actually for
000010:                                                                                                  ##              the equivalent revision 0 of Shepatin.
000011:                                                                                                  ##              This file is intended to be a faithful transcription, except
000012:                                                                                                  ##              that the code format has been changed to conform to the
000013:                                                                                                  ##              requirements of the yaYUL assembler rather than the
000014:                                                                                                  ##              original YUL assembler.
000015:                                                                                                  ## Reference:   pp. 219-299
000016:                                                                                                  ## Assembler:   yaYUL
000017:                                                                                                  ## Contact:     Ron Burkey <info@sandroid.org>.
000018:                                                                                                  ## Website:     www.ibiblio.org/apollo/index.html
000019:                                                                                                  ## Mod history: 2017-05-24 MAS  Created from Sunburst 120.
000020:                                                                                                  ##              2017-06-06 RSB  Transcribed through page 258, with
000021:                                                                                                  ##                              pp. 259-299 remaining to be done.
000022:                                                                                                  ##              2017-06-07 RSB  Completed transcription.
000023:


000025:                                                                                                  #  PROGRAM NAME - KEYBOARD AND DISPLAY PROGRAM           DATE - 22 NOV 1966
000026:                                                                                                  #  MOD NO - 0                                            LOG SECTION - PINBALL GAME
000027:                                                                                                  #  MOD BY - FILENE                                                     BUTTONS AND LIGHTS
000028:                                                                                                  #                                                        ASSEMBLY - SUNBURST REV 18
000029:
000030:                                                                                                  #  FUNCTIONAL DESCRIPTION-
000031:
000032:                                                                                                  #     THE KEYBOARD AND DISPLAY SYSTEM PROGRAM OPERATES UNDER EXECUTIVE
000033:                                                                                                  #  CONTROL AND PROCESSES INFORMATION EXCHANGED BETWEEN THE AGC AND THE
000034:                                                                                                  #  COMPUTER OPERATOR.  THE INPUTS TO THE PROGRAM ARE FROM THE KEYBOARD,
000035:                                                                                                  #  FROM INTERNAL PROGRAMS, AND FROM THE UPLINK.
000036:                                                                                                  #     THE LANGUAGE OF COMMUNICATION WITH THE PROGRAM IS A PAIR OF WORDS
000037:                                                                                                  #  KNOWN AS VERB AND NOUN.  EACH OF THESE IS REPRESENTED BY A 2 CHARACTER
000038:                                                                                                  #  OCTAL NUMBER.  THE VERB CODE INDICATES WHAT ACTION IS TO BE TAKEN,
000039:                                                                                                  #  NOUN CODE INDICATES TO WHAT THIS ACTION IS APPLIED.  NOUNS USUALLY
000040:                                                                                                  #  REFER TO A GROUP OF ERASABLE REGISTERS.
000041:
000042:                                                                                                  #  VERBS ARE GROUPED INTO DISPLAYS, LOADS, MONITORS (DISPLAYS THAT ARE
000043:                                                                                                  #  UPDATED ONCE PER SECOND), SPECIAL FUNCTIONS, AND EXTENDED VERBS(THESE
000044:                                                                                                  #  ARE OUTSIDE OF THE DOMAIN OF PINBALL AND CAN BE FOUND UNDER LOG SECTION
000045:                                                                                                  #  :EXTENDED VERBS:).
000046:                                                                                                  #  A LIST OF VERBS AND NOUNS IS GIVEN IN LOG SECTION :ASSEMBLY AND
000047:                                                                                                  #  OPERATION INFORMATION:.
000048:
000049:
000050:                                                                                                  #  CALLING SEQUENCES -
000051:
000052:                                                                                                  #  KEYBOARD:
000053:                                                                                                  #     EACH DEPRESSION OF A KEYBOARD BUTTON ACTIVATES INTERRUPT KEYRUPT1
000054:                                                                                                  #  AND PLACES THE 5 BIT KEY CODE INTO CHANNEL 15.  KEYRUPT1 PLACES THE KEY
000055:                                                                                                  #  CODE INTO MPAC, ENTERS AN EXECUTIVE REQUEST FOR THE KEYBOARD AND DISPLAY
000056:                                                                                                  #  PROGRAM (AT :CHARIN:), AND EXECUTES A RESUME.
000057:
000058:                                                                                                  #  UPLINK:
000059:                                                                                                  #     EACH WORD RECEIVED BY THE UPLINK ACTIVATES INTERRUPT UPRUPT WHICH
000060:                                                                                                  #  PLACES THE 5 BIT KEY CODE INTO MPAC, ENTERS AN EXECUTIVE REQUEST FOR THE
000061:                                                                                                  #  KEYBOARD AND DISPLAY PROGRAM (AT:CHARIN:) AND EXECUTES A RESUME.
000062:
000063:                                                                                                  #  INTERNAL PROGRAMS:
000064:                                                                                                  #     INTERNAL PROGRAMS CALL PINBALL AT :NVSUB: WITH THE DESIRED VERB/NOUN
000065:                                                                                                  #  CODE IN A (LOW 6 BITS FOR NOUN, NEXT 6 BITS FOR VERB).  DETAILS
000066:                                                                                                  #  DESCRIBED ON REMARKS CARDS JUST BEFORE :NVSUB: AND :NVSUBWAIT: (SEE
000067:
000068:                                                                                                  #  SYMBOL TABLE FOR PAGE NUMBERS).
000069:                                                                                                  #     THERE IS AN INTERLOCK SYSTEM FOR INTERNAL PROGRAMS THAT MUST BE USED
000070:                                                                                                  #  IN CONJUNCTION WITH :NVSUB:.  THIS IS CALLED GRAB/FREE.  DETAILS
000071:                                                                                                  #  DESCRIBED ON REMARKS JUST BEFORE :GRABDSP:, :GRABWAIT: (SEE SYMBOL TABLE
000072:                                                                                                  #  FOR PAGE NUMBERS).
000073:


000075:                                                                                                  #  NORMAL EXIT MODES-
000076:
000077:                                                                                                  #     IF PINBALL WAS CALLED BY EXTERNAL ACTION, EXIT IS TO :ENDOFJOB:.
000078:
000079:                                                                                                  #     IF PINBALL WAS CALLED BY INTERNAL PROGRAMS, EXIT FROM PINBALL IS BACK
000080:                                                                                                  #  TO CALLING ROUTINE.  DETAILS DESCRIBED IN REMARKS CARDS JUST BEFORE
000081:                                                                                                  #  :NVSUB: AND :NVSUBWAIT: (SEE SYMBOL TABLE FOR PAGE NUMBERS).
000082:
000083:
000084:                                                                                                  #  ALARM OR ABORT EXIT MODES-
000085:
000086:                                                                                                  #  EXTERNAL INITIATION:
000087:                                                                                                  #     IF SOME IMPROPER SEQUENCE OF KEY CODES IS DETECTED, THE OPERATOR
000088:                                                                                                  #  ERROR LIGHT IS TURNED ON AND EXIT IS TO :ENDOFJOB:.
000089:
000090:                                                                                                  #  INTERNAL PROGRAM INITIATION:
000091:                                                                                                  #     IF AN ILLEGAL V/N COMBINATION IS ATTEMPTED, AN ABORT IS CAUSED
000092:                                                                                                  #  (WITH OCTAL 01501) AND EXIT TO :ENDOFJOB:.
000093:
000094:                                                                                                  #  CONDITIONS LEADING TO THE ABOVE ARE DESCRIBED IN DIGITAL DEVELOPMENT
000095:                                                                                                  #  REPORT NO. 11.
000096:
000097:
000098:                                                                                                  #  OUTPUT-
000099:
000100:                                                                                                  #     INFORMATION TO BE SENT TO THE DISPLAY PANEL IS LEFT IN THE :DSPTAB:
000101:                                                                                                  #  BUFFERS REGISTERS (UNDER EXEC CONTROL).  :DSPOUT: (A PART OF T4RUPT)
000102:                                                                                                  #  HANDLES THE PLACING OF THE :DSPTAB: INFORMATION INTO OUTPUT CHANNEL 10
000103:                                                                                                  #  IN INTERRUPT.
000104:
000105:
000106:                                                                                                  #  ERASABLE INITIALIZATION-
000107:
000108:                                                                                                  #     FRESH START AND RESTART INITIALIZE THE NECESSARY E REGISTERS FOR
000109:                                                                                                  #  PINBALL IN :STARTSUB:.   REGISTERS ARE:  DSPTAB BUFFER, CADRSTOR,
000110:                                                                                                  #  REQRET, CLPASS, DSPLOCK, MONSAVE, MONSAVE1, GRABLOCK, VERBREG, NOUNREG,
000111:                                                                                                  #  DSPLIST, +1, +2, DSPCOUNT.
000112:
000113:                                                                                                  #  A COMPLETE LIST OF ALL THE ERASABLES (BOTH RESERVED AND TEMPORARIES) FOR
000114:                                                                                                  #  PINBALL IS GIVEN BELOW.
000115:
000116:
000117:                                                                                                  #  THE FOLLOWING ARE OF GENERAL INTEREST-
000118:
000119:                                                                                                  #     REMARKS CARDS PRECEDE THE REFERENCED SYMBOL DEFINITION.  SEE SYMBOL
000120:                                                                                                  #  TABLE TO FIND APPROPRIATE PAGE NUMBERS.


000122:
000123:                                                                                                  #     NVSUB   CALLING POINT FOR INTERNAL USE OF PINBALL.
000124:                                                                                                  #               OF RELATED INTEREST   NVSUBWAIT
000125:                                                                                                  #                                     NVSUBSY
000126:                                                                                                  #                                     PRENVBSY
000127:
000128:                                                                                                  #     GRABDSP   INTERLOCK SYSTEM FOR INTERNAL PROGRAMS THAT MUST BE USED
000129:                                                                                                  #     FREEDSP   IN CONJUNCTION WITH :NVSUB:.
000130:                                                                                                  #                 OF RELATED INTEREST   GRABWAIT
000131:
000132:                                                                                                  #                                       GRABUSY
000133:                                                                                                  #                                       PREGBSY
000134:
000135:                                                                                                  #     ENDIDLE    ROUTINE FOR INTERNAL PROGRAMS WISHING TO GO TO SLEEP WHILE
000136:                                                                                                  #                AWAITING OPERATORS RESPONSE.
000137:                                                                                                  #                  OF RELATED INTEREST   DATAWAIT
000138:
000139:                                                                                                  #     MONITOR    VERBS FOR PERIODIC ( 1 PER SEC) DISPLAY.
000140:
000141:                                                                                                  #     THE NOUN TABLE FORMAT IS DESCRIBED ON A PAGE OF REMARKS CARDS JUST
000142:                                                                                                  #     BEFORE :DSPABC: (SEE SYMBOL TABLE FOR PAGE NUMBER).
000143:
000144:                                                                                                  #     THE NOUN TABLES THEMSELVES ARE FOUND ON 7 PAGES STARTING AT :NNADTAB:
000145:
000146:
000147:                                                                                                  #  FOR FURTHER DETAILS ABOUT OPERATION OF THE KEYBOARD AND DISPLAY SYSTEM
000148:                                                                                                  #  PROGRAM, SEE THE MISSION PLAN AND/OR DIGITAL DEVELOPMENT REPORT NO. 11.
000149:


000151:                                                                                                  #  KEYBOARD AND DISPLAY PROGRAM
000152:
000153:                                                                                                  #  THE FOLLOWING QUOTATION IS PROVIDED THROUGH THE COUTESY OF THE AUTHORS.
000154:
000155:                                                                                                  #        ::IT WILL BE PROVED TO THY FACE THAT THOU HAST MEN ABOUT THEE THAT
000156:                                                                                                  #  USUALLY TALK OF A NOUN AND A VERB, AND SUCH ABOMINABLE WORDS AS NO
000157:                                                                                                  #  CHRISTIAN EAR CAN ENDURE TO HEAR.::
000158:
000159:                                                                                                  #                       HENRY 6, ACT 2, SCENE 4
000160:


000163:
000164:
000165:                                                                                                  #  THE FOLLOWING ASSIGNMENTS FOR PINBALL ARE MADE ELSEWHERE
000166:
000167:
000168:                                                                                                  #  RESERVED FOR PINBALL EXECUTIVE ACTION
000169:
000170:                                                                                                  #  DSPCOUNT      ERASE                   DISPLAY POSITION INDICATOR
000171:                                                                                                  #  DECBRNCH      ERASE                   +DEC, -DEC, OCT INDICATOR
000172:                                                                                                  #  VERBREG       ERASE                   VERB CODE
000173:                                                                                                  #  NOUNREG       ERASE                   NOUN CODE
000174:                                                                                                  #  XREG          ERASE                   R1 INPUT BUFFER
000175:                                                                                                  #  YREG          ERASE                   R2 INPUT BUFFER
000176:                                                                                                  #  ZREG          ERASE                   R3 INPUT BUFFER
000177:                                                                                                  #  XREGLP        ERASE                   LO PART OF XREG (FOR DEC CONV ONLY)
000178:                                                                                                  #  YREGLP        ERASE                   LO PART OF YREG (FOR DEC CONV ONLY)
000179:                                                                                                  #  ZREGLP        ERASE                   LO PART OF ZREG (FOR DEC CONV ONLY)
000180:                                                                                                  #  MODREG        ERASE                   MODE CODE
000181:                                                                                                  #  DSPLOCK       ERASE                   KEYBOARD/SUBROUTINE CALL INTERLOCK
000182:                                                                                                  #  REQRET        ERASE                   RETURN REGISTER FOR LOAD
000183:                                                                                                  #  LOADSTAT      ERASE                   STATUS INDICATOR FOR LOADTST
000184:                                                                                                  #  CLPASS        ERASE                   PASS INDICATOR CLEAR
000185:                                                                                                  #  NOUT          ERASE                   ACTIVITY COUNTER FOR DSPTAB
000186:                                                                                                  #  NOUNCADR      ERASE                   MACHINE CADR FOR NOUN
000187:                                                                                                  #  MONSAVE       ERASE                   N/V CODE FOR MONITOR. (= MONSAVE1-1)
000188:
000189:                                                                                                  #  MONSAVE1      ERASE                   NOUNCADR FOR MONITOR (MATBS) = MONSAVE+1
000190:                                                                                                  #  DSPTAB        ERASE           +13D    0-10,DISPLAY PANEL BUFFER.11-13,C RELAYS
000191:                                                                                                  #  CADRSTOR      ERASE                   ENDIDLE STORAGE
000192:                                                                                                  #  GRABLOCK      ERASE                   INTERNAL INTERLOCK FOR DISPLAY SYSTEM
000193:                                                                                                  #  NVQTEM        ERASE                   NVSUB STORAGE FOR CALLING ADDRESS
000194:                                                                                                  #                                        MUST = NVBNKTEM-1
000195:                                                                                                  #  NVBNKTEM      ERASE                   NVSUB STORAGE FOR CALLING BANK
000196:                                                                                                  #                                        MUST = NVQTEM+1
000197:                                                                                                  #  DSPLIST       ERASE           +2      WAITING LIST FOR DSP SYST INTERNAL USE
000198:                                                                                                  #  EXTVBACT      ERASE                   EXTENDED VERB ACTIVITY INTERLOCK
000199:                                                                                                  #  DSPTEM1       ERASE           +2      BUFFER STORAGE AREA 1 (MOSTLY FOR TIME)
000200:                                                                                                  #  DSPTEM2       ERASE           +2      BUFFER STORAGE AREA 2 (MOSTLY FOR DEG)
000201:


000203:                                                                                                  #  END OF ERASABLES RESERVED FOR PINBALL EXECUTIVE ACTION
000204:
000205:
000206:                                                                                                  #  TEMPORARIES FOR PINBALL EXECUTIVE ACTION
000207:
000208:                                                                                                  #  DSEXIT        =       INTB15+         RETURN FOR DSPIN
000209:                                                                                                  #  EXITEM        =       INTB15+         RETURN FOR SCALE FACTOR ROUTINE SELECT
000210:                                                                                                  #  BLANKRET      =       INTB15+         RETURN FOR 2BLANK
000211:
000212:                                                                                                  #  WRDRET        =       INTBIT15        RETURN FOR 5BLANK
000213:                                                                                                  #  WDRET         =       INTBIT15        RETURN FOR DSPWD
000214:                                                                                                  #  DECRET        =       INTBIT15        RETURN FOR PUTCOM(DEC LOAD)
000215:                                                                                                  #  21/22REG      =       INTBIT15        TEMP FOR CHARIN
000216:
000217:                                                                                                  #  UPDATRET      =       POLISH          RETURN FOR UPDATNN, UPDATVB
000218:                                                                                                  #  CHAR          =       POLISH          TEMP FOR CHARIN
000219:                                                                                                  #  ERCNT         =       POLISH          COUNTER FOR ERROR LIGHT RESET
000220:                                                                                                  #  DECOUNT       =       POLISH          COUNTER FOR SCALING AND DISPLAY (DEC)
000221:
000222:                                                                                                  #  SGNON         =       VBUF            TEMP FOR +,- ON
000223:                                                                                                  #  NOUNTEM       =       VBUF            COUNTER FOR MIXNOUN FETCH
000224:                                                                                                  #  DISTEM        =       VBUF            COUNTER FOR OCTAL DISPLAY VERBS
000225:                                                                                                  #  DECTEM        =       VBUF            COUNTER FOR FETCH (DEC DISPLAY VERBS)
000226:
000227:                                                                                                  #  SGNOFF        =       VBUF    +1      TEMP FOR +,- ON
000228:                                                                                                  #  NVTEMP        =       VBUF    +1      TEMP FOR NVSUB
000229:                                                                                                  #  SFTEMP1       =       VBUF    +1      STORAGE FOR SF CONST HI PART(=SFTEMP2-1)
000230:
000231:                                                                                                  #  CODE          =       VBUF    +2      FOR DSPIN
000232:                                                                                                  #  SFTEMP2       =       VBUF    +2      STORAGE FOR SF CONST LO PART(=SFTEMP1+1)
000233:
000234:                                                                                                  #  MIXTEMP       =       VBUF    +3      FOR MIXNOUN DATA
000235:                                                                                                  #  SIGNRET       =       VBUF    +3      RETURN FOR +,- ON
000236:
000237:                                                                                                  #  ALSO MIXTEMP+1 = VBUF+4, MIXTEMP+2 = VBUF+5.
000238:
000239:                                                                                                  #  ENTRET        =       DOTINC          EXIT FROM ENTER
000240:
000241:                                                                                                  #  WDCNT         =       DOTRET          CHAR COUNTER FOR DSPWD
000242:                                                                                                  #  INREL         =       DOTRET          INPUT BUFFER SELECTOR ( X,Y,Z, REG )
000243:
000244:                                                                                                  #  DSPMMTEM      =       MATINC          DSPCOUNT SAVE FOR DSPMM
000245:
000246:                                                                                                  #  MIXBR         =       MATINC          INDICATOR FOR MIXED OR NORMAL NOUN
000247:
000248:                                                                                                  #  TEM1          ERASE                   EXEC TEMP
000249:                                                                                                  #  DSREL         =       TEM1            REL ADDRESS FOR DSPIN
000250:
000251:                                                                                                  #  TEM2          ERASE                   EXEC TEMP
000252:                                                                                                  #  DSMAG         =       TEM2            MAGNITUDE STORE FOR DSPIN


000254:                                                                                                  #  IDADDTEM      =       TEM2            MIXNOUN INDIRECT ADDRESS STORAGE
000255:
000256:                                                                                                  #  TEM3          ERASE                   EXEC TEMP
000257:                                                                                                  #  COUNT         =       TEM3            FOR DSPIN
000258:
000259:                                                                                                  #  TEM4          ERASE                   EXEC TEMP
000260:                                                                                                  #  LSTPTR        =       TEM4            LIST POINTER FOR GRABUSY
000261:                                                                                                  #  RELRET        =       TEM4            RETURN FOR RELDSP
000262:                                                                                                  #  FREERET       =       TEM4            RETURN FOR FREEDSP
000263:
000264:                                                                                                  #  TEM5          ERASE                   EXEC TEMP
000265:                                                                                                  #  NOUNADD       =       TEM5            TEMP STORAGE FOR NOUN ADDRESS
000266:
000267:                                                                                                  #  NNADTEM       ERASE                   TEMP FOR NOUN ADDRESS TABLE ENTRY
000268:                                                                                                  #  NNTYPTEM      ERASE                   TEMP FOR NOUN TYPE TABLE ENTRY
000269:                                                                                                  #  IDAD1TEM      ERASE                   TEMP FOR INDIR ADRESS TABLE ENTRY(MIXNN)
000270:                                                                                                  #                                        MUST = IDAD2TEM-1, = IDAD3TEM-2.
000271:                                                                                                  #  IDAD2TEM      ERASE                   TEMP FOR INDIR ADRESS TABLE ENTRY(MIXNN)
000272:                                                                                                  #                                        MUST = IDAD1TEM+1, = IDAD3TEM-1.
000273:                                                                                                  #  IDAD3TEM      ERASE                   TEMP FOR INDIR ADRESS TABLE ENTRY(MIXNN)
000274:                                                                                                  #                                        MUST = IDAD1TEM+2, = IDAD2TEM+1.
000275:                                                                                                  #  RUTMXTEM      ERASE                   TEMP FOR SF ROUT TABLE ENTRY(MIXNN ONLY)
000276:                                                                                                  #  END OF TEMPORARIES FOR PINBALL EXECUTIVE ACTION
000277:
000278:
000279:                                                                                                  #  RESERVED FOR PINBALL INTERRUPT ACTION
000280:
000281:                                                                                                  #  DSPCNT        ERASE                   COUNTER FOR DSPOUT
000282:                                                                                                  #  UPLOCK        ERASE                   BIT1 = UPLINK INTERLOCK (ACTIVATED BY
000283:                                                                                                  #                                                                                RECEPTION OF A BAD MESSAGE IN UPLINK)
000284:                                                                                                  #  END OF ERASABLES RESERVED FOR PINBALL INTERRUPT ACTION
000285:
000286:
000287:
000288:                                                                                                  #  TEMPORARIES FOR PINBALL INTERRUPT ACTION
000289:
000290:                                                                                                  #  KEYTEMP1      =       WAITEXIT        TEMP FOR KEYRUPT, UPRUPT
000291:                                                                                                  #  DSRUPTEM      =       WAITEXIT        TEMP FOR DSPOUT
000292:                                                                                                  #  KEYTEMP2      =       RUPTAGN         TEMP FOR KEYRUPT, UPRUPT
000293:                                                                                                  #  END OF TEMPORARIES FOR PINBALL INTERRUPT ACTION
000294:


000296:                                                                                                  #  THE INPUT CODES ASSUMED FOR THE KEYBOARD ARE,
000297:                                                                                                  #  0        10000
000298:                                                                                                  #  1        00001
000299:                                                                                                  #  9        01001
000300:                                                                                                  #  VERB     10001
000301:                                                                                                  #  ERROR RES10010
000302:                                                                                                  #  KEY RLSE 11001
000303:                                                                                                  #  +        11010
000304:
000305:                                                                                                  #  -        11011
000306:                                                                                                  #  ENTER    11100
000307:                                                                                                  #  CLEAR    11110
000308:                                                                                                  #  NOUN     11111
000309:
000310:
000311:                                                                                                  #  OUTPUT FORMAT FOR DISPLAY PANEL. SET OUT0 TO  AAAABCCCCCDDDDD.
000312:                                                                                                  #  A-S SELECT A RELAYWORD. THIS DETERMINES WHICH PAIR OF CHARACTERS ARE
000313:                                                                                                  #  ENERGIZED.
000314:                                                                                                  #  B FOR SPECIAL RELAYS SUCH AS SIGNS ETC.
000315:                                                                                                  #  C-S  5 BIT RELAY CODE FOR LEFT CHAR OF PAIR SELECTED BY RELAYWORD
000316:                                                                                                  #  D-S  5 BIT RELAY CODE FOR RIGHTCHAR OF PAIR SELECTED BY RELAYWORD.
000317:
000318:                                                                                                  #  THE PANEL APPEARS AS FOLLOWS,
000319:                                                                                                  #  MD1    MD2                         (MAJOR MODE)
000320:                                                                                                  #  VD1    VD2 (VERB)    ND1    ND2    (NOUN)
000321:                                                                                                  #  R1D1   R1D2   R1D3   R1D4   R1D5   (R1)
000322:                                                                                                  #  R2D1   R2D2   R2D3   R2D4   R2D5   (R2)
000323:                                                                                                  #  R3D1   R3D2   R3D3   R3D4   R3D5   (R3)
000324:
000325:                                                                                                  #  EACH OF THESE IS GIVEN A DSPCOUNT NUMBER FOR USE WITHIN COMPUTATION ONLY
000326:                                                                                                  #  MD1   25     R2D1  11         ALL ARE OCTAL
000327:
000328:                                                                                                  #  MD2   24     R2D2  10
000329:                                                                                                  #  VD1   23     R2D3   7
000330:                                                                                                  #  VD2   22     R2D4   6
000331:                                                                                                  #  ND1   21     R2D5   5
000332:                                                                                                  #  ND2   20     R3D1   4
000333:                                                                                                  #  R1D1  16     R3D2   3
000334:                                                                                                  #  R1D2  15     R3D3   2
000335:                                                                                                  #  R1D3  14     R3D4   1
000336:                                                                                                  #  R1D4  13     R3D5   0
000337:                                                                                                  #  R1D5  12
000338:
000339:
000340:                                                                                                  #  THERE IS AN 11 REGISTER TABLE (DSPTAB) FOR THE DISPLAY PANEL.
000341:
000342:                                                                                                  #  DSPTAB RELAYWD       BIT11     BITS 10-6     BITS 5-1
000343:                                                                                                  #  RELADD
000344:                                                                                                  #  10     1011                    MD1  (25)     MD2  (24)
000345:                                                                                                  #  9      1010                    VD1  (23)     VD2  (22)


000347:                                                                                                  #  8      1001                    ND1  (21)     ND2  (20)
000348:                                                                                                  #  7      1000                                  R1D1 (16)
000349:                                                                                                  #  6      0111          +R1       R1D2 (15)     R1D3 (14)
000350:                                                                                                  #  5      0110          -R1       R1D4 (13)     R1D5 (12)
000351:                                                                                                  #  4      0101          +R2       R2D1 (11)     R2D2 (10)
000352:                                                                                                  #  3      0100          -R2       R2D3 (7)      R2D4 (6)
000353:                                                                                                  #  2      0011                    R2D5 (5)      R3D1 (4)
000354:                                                                                                  #  1      0010          +R3       R3D2 (3)      R3D3 (2)
000355:                                                                                                  #  0      0001          -R3       R3D4 (1)      R3D5 (0)
000356:                                                                                                  #         0000   NO RELAYWORD
000357:
000358:
000359:                                                                                                  #  THE 5 BIT RELAY CODES ARE,
000360:                                                                                                  #  BLANK      00000
000361:                                                                                                  #  0          10101
000362:                                                                                                  #  1          00011
000363:                                                                                                  #  2          11001
000364:                                                                                                  #  3          11011
000365:                                                                                                  #  4          01111
000366:                                                                                                  #  5          11110
000367:                                                                                                  #  6          11100
000368:                                                                                                  #  7          10011
000369:                                                                                                  #  8          11101
000370:                                                                                                  #  9          11111
000371:


000373:                                                                                                  #  START OF EXECUTIVE SECTION OF PINBALL
000374:
000375: 04,2000                                           SETLOC   20000
000376:
000377: 04,2000           03472        GRABUSYB           TC       GRABUSY1                              #  STANDARD LEAD INS. DONT MOVE.
000378: 04,2001           03514        NVSUBSYB           TC       NVSUBSY1
000379:
000380: 04,2002           37755        CHARIN             CAF      ONE                                   #  BLOCK DISPLAY SYST
000381: 04,2003           56303                           XCH      DSPLOCK                               #  MAKE DSP SYST BUSY, BUT SAVE OLD
000382: 04,2004           54105                           TS       21/22REG                              #  C(DSPLOCK) FOR ERROR LIGHT RESET.
000383: 04,2005           56144                           XCH      MPAC
000384: 04,2006           54107                           TS       CHAR
000385: 04,2007           50000                           INDEX    A
000386: 04,2010           02011                           TC       +1                                    #  INPUT CODE    FUNCTION
000387: 04,2011           03313                           TC       CHARALRM                              #  0
000388: 04,2012           02070                           TC       NUM                                   #  1
000389: 04,2013           02070                           TC       NUM                                   #  2
000390: 04,2014           02070                           TC       NUM                                   #  3
000391:
000392: 04,2015           02070                           TC       NUM                                   #  4
000393: 04,2016           02070                           TC       NUM                                   #  5
000394: 04,2017           02070                           TC       NUM                                   #  6
000395: 04,2020           02070                           TC       NUM                                   #  7
000396: 04,2021           02061                           TC       89TEST                                #  10            8
000397: 04,2022           02061                           TC       89TEST                                #  11            9
000398: 04,2023           03313                           TC       CHARALRM                              #  12
000399: 04,2024           03313                           TC       CHARALRM                              #  13
000400: 04,2025           03313                           TC       CHARALRM                              #  14
000401: 04,2026           03313                           TC       CHARALRM                              #  15
000402: 04,2027           03313                           TC       CHARALRM                              #  16
000403: 04,2030           03313                           TC       CHARALRM                              #  17
000404: 04,2031           02066                           TC       NUM        -2                         #  20            0
000405: 04,2032           02243                           TC       VERB                                  #  21            VERB
000406: 04,2033           02355                           TC       ERROR                                 #  22            ERROR LIGHT RESET
000407: 04,2034           02053                           TC       ABRT23GO                              #  23            SUBORBIT ABORT
000408: 04,2035           02056                           TC       ABRT24GO                              #  24            CONORBIT ABORT
000409: 04,2036           03313                           TC       CHARALRM                              #  25
000410: 04,2037           03313                           TC       CHARALRM                              #  26
000411: 04,2040           03313                           TC       CHARALRM                              #  27
000412: 04,2041           03313                           TC       CHARALRM                              #  30
000413: 04,2042           03336                           TC       VBRELDSP                              #  31            KEY RELEASE
000414: 04,2043           02275                           TC       POSGN                                 #  32            +
000415:
000416: 04,2044           02262                           TC       NEGSGN                                #  33            -
000417: 04,2045           02051                           TC       ENTERJMP                              #  34            ENTER
000418: 04,2046           03313                           TC       CHARALRM                              #  35
000419: 04,2047           02446                           TC       CLEAR                                 #  36            CLEAR
000420: 04,2050           02256                           TC       NOUN                                  #  37            NOUN
000421:


000423: 04,2051           05243        ENTERJMP           TC       POSTJUMP
000424: 04,2052           12003                           CADR     ENTER
000425:
000426: 04,2053           04655        ABRT23GO           TC       RELDSP
000427: 04,2054           05243                           TC       POSTJUMP
000428: 04,2055           56401                           CADR     SUBABORT
000429: 04,2056           04655        ABRT24GO           TC       RELDSP
000430: 04,2057           05243                           TC       POSTJUMP
000431: 04,2060           56404                           CADR     CONORBIT
000432:
000433: 04,2061           36301        89TEST             CAF      THREE
000434: 04,2062           70271                           MASK     DECBRNCH
000435: 04,2063           10000                           CCS      A
000436: 04,2064           02070                           TC       NUM                                   #  IF DECBRNCH IS +, 8 OR 9 OK
000437: 04,2065           03313                           TC       CHARALRM                              #  IF DECBRNCH IS +0, REJECT 8 OR 9
000438:
000439:
000440:                                                                                                  #  NUM ASSEMBLES OCTAL 3 BITS AT A TIME. FOR DECIMAL IT CONVERTS INCOMING
000441:                                                                                                  #  WORD AS A FRACTION, KEEPING RESULTS TO DP.
000442:                                                                                                  #  OCTAL RESULTS ARE LEFT IN XREG, YREG, OR ZREG. HI PART OF DEC IN XREG,
000443:                                                                                                  #  YREG, ZREG. THE LOW PARTS IN XREGLP, YREGLP, OR ZREGLP)
000444:                                                                                                  #  DECBRNCH IS LEFT AT +0 FOR OCT, +1 FOR + DEC, +2 FOR - DEC.
000445:                                                                                                  #  IF DSPCOUNT WAS LEFT -, NO MORE DATA IS ACCEPTED.
000446:
000447: 04,2066           37761                           CAF      ZERO
000448:
000449: 04,2067           54107                           TS       CHAR
000450: 04,2070           10270        NUM                CCS      DSPCOUNT
000451: 04,2071           02075                           TC       +4                                    #  +
000452: 04,2072           02075                           TC       +3                                    #  +0
000453: 04,2073           02074                           TC       +1                                    #  -BLOCK DATA IN IF DSPCOUNT IS -
000454: 04,2074           05605                           TC       ENDOFJOB                              #  -0
000455: 04,2075           02213                           TC       GETINREL
000456: 04,2076           10306                           CCS      CLPASS                                #  IF CLPASS IS + OR +0, MAKE IT +0.
000457: 04,2077           37761                           CAF      ZERO
000458: 04,2100           54306                           TS       CLPASS
000459: 04,2101           02102                           TC       +1
000460: 04,2102           50107                           INDEX    CHAR
000461: 04,2103           34267                           CAF      RELTAB
000462: 04,2104           74545                           MASK     LOW5
000463: 04,2105           54114                           TS       CODE
000464: 04,2106           30270                           CA       DSPCOUNT
000465: 04,2107           54133                           TS       COUNT
000466: 04,2110           03217                           TC       DSPIN
000467: 04,2111           36301                           CAF      THREE
000468: 04,2112           70271                           MASK     DECBRNCH
000469: 04,2113           10000                           CCS      A                                     #  +0, OCTAL.  +1, + DEC.  +2, - DEC.
000470: 04,2114           02125                           TC       DECTOBIN                              #  +
000471: 04,2115           50127                           INDEX    INREL                                 #  +0 OCTAL
000472:
000473: 04,2116           56272                           XCH      VERBREG


000475: 04,2117           54022                           TS       CYL
000476: 04,2120           40022                           CS       CYL
000477: 04,2121           40022                           CS       CYL
000478: 04,2122           56022                           XCH      CYL
000479: 04,2123           60107                           AD       CHAR
000480: 04,2124           02142                           TC       ENDNMTST
000481: 04,2125           50127        DECTOBIN           INDEX    INREL
000482: 04,2126           56272                           XCH      VERBREG
000483:
000484: 04,2127           54144                           TS       MPAC                                  #  SUM X 2EXP-14 IN MPAC
000485: 04,2130           37761                           CAF      ZERO
000486: 04,2131           54145                           TS       MPAC       +1
000487: 04,2132           34557                           CAF      TEN                                   #  10 X 2EXP-14
000488: 04,2133           07351                           TC       SHORTMP                               #  10SUM X 2EXP-28 IN MPAC, MPAC+1
000489: 04,2134           56145                           XCH      MPAC       +1
000490: 04,2135           60107                           AD       CHAR
000491: 04,2136           54145                           TS       MPAC       +1
000492: 04,2137           02142                           TC       ENDNMTST                              #  NO OF
000493: 04,2140           26144                           ADS      MPAC                                  #  OF MUST BE 5TH CHAR
000494: 04,2141           02160                           TC       DECEND
000495: 04,2142           50127        ENDNMTST           INDEX    INREL
000496: 04,2143           54272                           TS       VERBREG
000497: 04,2144           40270                           CS       DSPCOUNT
000498: 04,2145           50127                           INDEX    INREL
000499: 04,2146           62204                           AD       CRITCON
000500: 04,2147           00006                           EXTEND
000501: 04,2150           12152                           BZF      ENDNUM                                #  -0, DSPCOUNT = CRITCON
000502: 04,2151           02201                           TC       MORNUM                                #  - , DSPCOUNT G/ CRITCON
000503: 04,2152           36301        ENDNUM             CAF      THREE
000504: 04,2153           70271                           MASK     DECBRNCH
000505: 04,2154           10000                           CCS      A
000506: 04,2155           02160                           TC       DECEND
000507:
000508: 04,2156           40270        ENDALL             CS       DSPCOUNT                              #  BLOCK NUMIN BY PLACING DSPCOUNT
000509: 04,2157           02202                           TC       MORNUM     +1                         #  NEGATIVELY
000510: 04,2160           07146        DECEND             TC       DMP                                   #  MULT SUM X 2EXP-28 IN MPAC, MPAC+1 BY
000511: 04,2161           02211                           ADRES    DECON                                 #  2EXP14/10EXP5. GIVES(SUM/10EXP5)X2EXP-14
000512: 04,2162           36301                           CAF      THREE                                 #  IN MPAC, +1, +2.
000513: 04,2163           70271                           MASK     DECBRNCH
000514: 04,2164           50000                           INDEX    A
000515: 04,2165           02165                           TC       +0
000516: 04,2166           02172                           TC       +DECSGN
000517: 04,2167           00006                           EXTEND                                         #  - CASE
000518: 04,2170           40146                           DCS      MPAC       +1
000519: 04,2171           52146                           DXCH     MPAC       +1
000520: 04,2172           56146        +DECSGN            XCH      MPAC       +2
000521: 04,2173           50127                           INDEX    INREL
000522: 04,2174           54275                           TS       XREGLP     -2
000523: 04,2175           56145                           XCH      MPAC       +1
000524: 04,2176           50127                           INDEX    INREL
000525: 04,2177           54272                           TS       VERBREG
000526: 04,2200           02156                           TC       ENDALL


000528: 04,2201           10270        MORNUM             CCS      DSPCOUNT                              #  DECREMENT DSPCOUNT
000529: 04,2202           54270                           TS       DSPCOUNT
000530: 04,2203           05605                           TC       ENDOFJOB
000531:
000532: 04,2204           00022        CRITCON            OCT      22                                    #  (DEC 18)
000533: 04,2205           00020                           OCT      20                                    #  (DEC 16)
000534: 04,2206           00012                           OCT      12                                    #  (DEC 10)
000535: 04,2207           00005                           OCT      5
000536: 04,2210           00000                           OCT      0
000537:


000541: 04,2211           05174 13261  DECON              2DEC     1          E-5        B14             #  2EXP14/10EXP5 = .16384 DEC
000542:
000543:                                                                                                  #  GETINREL GETS PROPER DATA REG REL ADDRESS FOR CURRENT C(DSPCOUNT) AND
000544:                                                                                                  #  PUTS IN INTO INREL. +0 VERBREG, 1 NOUNREG, 2 XREG, 3 YREG, 4 ZREG.
000545:
000546: 04,2213           50270        GETINREL           INDEX    DSPCOUNT
000547: 04,2214           32217                           CAF      INRELTAB
000548: 04,2215           54127                           TS       INREL                                 #  (A TEMP, REG)
000549: 04,2216           00002                           TC       Q
000550:
000551: 04,2217           00004        INRELTAB           OCT      4                                     #  R3D5 (DSPCOUNT = 0)
000552: 04,2220           00004                           OCT      4                                     #  R3D4           =(1)
000553: 04,2221           00004                           OCT      4                                     #  R3D3           =(2)
000554: 04,2222           00004                           OCT      4                                     #  R3D2           =(3)
000555: 04,2223           00004                           OCT      4                                     #  R3D1           =(4)
000556: 04,2224           00003                           OCT      3                                     #  R2D5           =(5)
000557: 04,2225           00003                           OCT      3                                     #  R2D4           =(6)
000558: 04,2226           00003                           OCT      3                                     #  R2D3           =(7)
000559: 04,2227           00003                           OCT      3                                     #  R2D2           =(8D)
000560: 04,2230           00003                           OCT      3                                     #  R2D1           =(9D)
000561: 04,2231           00002                           OCT      2                                     #  R1D5           =(10D)
000562: 04,2232           00002                           OCT      2                                     #  R1D4           =(11D)
000563: 04,2233           00002                           OCT      2                                     #  R1D3           =(12D)
000564: 04,2234           00002                           OCT      2                                     #  R1D2           =(13D)
000565: 04,2235           00002                           OCT      2                                     #  R1D1           =(14D)
000566: 04,2236           04725                           TC       CCSHOLE                               #  NO DSPCOUNT NUMBER = 15D
000567:
000568: 04,2237           00001                           OCT      1                                     #  ND2            =(16D)
000569: 04,2240           00001                           OCT      1                                     #  ND1            =(17D)
000570: 04,2241           00000                           OCT      0                                     #  VD2            =(18D)
000571: 04,2242           00000                           OCT      0                                     #  VD1            =(19D)
000572:
000573: 04,2243           37761        VERB               CAF      ZERO
000574: 04,2244           54272                           TS       VERBREG
000575: 04,2245           34554                           CAF      VD1
000576: 04,2246           54270        NVCOM              TS       DSPCOUNT
000577: 04,2247           02557                           TC       2BLANK


000579: 04,2250           37761                           CAF      ZERO
000580: 04,2251           54271                           TS       DECBRNCH
000581: 04,2252           54304                           TS       REQRET                                #  SET FOR ENTPAS0
000582: 04,2253           34474                           CAF      ENDINST                               #  IF DSPALARM OCCURS BEFORE FIRST ENTPAS0
000583: 04,2254           54126                           TS       ENTRET                                #  OR NVSUB, ENTRET MUST ALREADY BE SET
000584:                                                                                                  #  TO TC ENDOFJOB
000585: 04,2255           05605                           TC       ENDOFJOB
000586: 04,2256           37761        NOUN               CAF      ZERO
000587: 04,2257           54273                           TS       NOUNREG
000588: 04,2260           34555                           CAF      ND1                                   #  ND1, OCT 21 (DEC 17)
000589: 04,2261           02246                           TC       NVCOM
000590:
000591:
000592: 04,2262           02334        NEGSGN             TC       SIGNTEST
000593: 04,2263           02321                           TC       -ON
000594: 04,2264           37754                           CAF      TWO
000595: 04,2265           50127        BOTHSGN            INDEX    INREL                                 #  SET DEC COMP BIT TO 1 (IN DECBRNCH)
000596: 04,2266           67747                           AD       BIT7                                  #  BIT 5 FOR R1, BIT 4 FOR R2,
000597:
000598: 04,2267           26271                           ADS      DECBRNCH                              #  BIT 3 FOR R3.
000599: 04,2270           10306        FIXCLPAS           CCS      CLPASS                                #  IF CLPASS IS + OR +0, MAKE IT +0.
000600: 04,2271           37761                           CAF      ZERO
000601: 04,2272           54306                           TS       CLPASS
000602: 04,2273           02274                           TC       +1
000603: 04,2274           05605                           TC       ENDOFJOB
000604:
000605: 04,2275           02334        POSGN              TC       SIGNTEST
000606: 04,2276           02301                           TC       +ON
000607: 04,2277           37755                           CAF      ONE
000608: 04,2300           02265                           TC       BOTHSGN
000609:
000610: 04,2301           22002        +ON                LXCH     Q
000611: 04,2302           02213                           TC       GETINREL
000612: 04,2303           50127                           INDEX    INREL
000613: 04,2304           32327                           CAF      SGNTAB     -2
000614: 04,2305           54113                           TS       SGNOFF
000615: 04,2306           67755                           AD       ONE
000616: 04,2307           54112                           TS       SGNON
000617: 04,2310           37761        SGNCOM             CAF      ZERO
000618: 04,2311           54114                           TS       CODE
000619: 04,2312           56113                           XCH      SGNOFF
000620: 04,2313           03301                           TC       11DSPIN
000621:
000622: 04,2314           37743                           CAF      BIT11
000623: 04,2315           54114                           TS       CODE
000624: 04,2316           56112                           XCH      SGNON
000625: 04,2317           03301                           TC       11DSPIN
000626: 04,2320           00001                           TC       L
000627: 04,2321           22002        -ON                LXCH     Q
000628: 04,2322           02213                           TC       GETINREL
000629: 04,2323           50127                           INDEX    INREL


000631: 04,2324           32327                           CAF      SGNTAB     -2
000632: 04,2325           54112                           TS       SGNON
000633:
000634: 04,2326           67755                           AD       ONE
000635: 04,2327           54113                           TS       SGNOFF
000636: 04,2330           02310                           TC       SGNCOM
000637:
000638: 04,2331           00005        SGNTAB             OCT      5                                     #  -R1
000639: 04,2332           00003                           OCT      3                                     #  -R2
000640: 04,2333           00000                           OCT      0                                     #  -R3
000641:
000642: 04,2334           22002        SIGNTEST           LXCH     Q                                     #  ALLOWS +,- ONLY WHEN DSPCOUNT=R1D1,
000643: 04,2335           36301                           CAF      THREE                                 #  R2D1, OR R3D1. ALLOWS ONLY FIRST OF
000644: 04,2336           70271                           MASK     DECBRNCH                              #  CONSEQUTIVE +/- CHARACTERS.
000645: 04,2337           10000                           CCS      A                                     #  IF LOW 2 BITS OF DECBRNCH NOT = 0, SIGN
000646: 04,2340           05605                           TC       ENDOFJOB                              #  FOR THIS WORD ALREADY IN. REJECT.
000647: 04,2341           44516                           CS       R1D1
000648: 04,2342           02350                           TC       SGNTST1
000649: 04,2343           44517                           CS       R2D1
000650: 04,2344           02350                           TC       SGNTST1
000651: 04,2345           44520                           CS       R3D1
000652: 04,2346           02350                           TC       SGNTST1
000653: 04,2347           05605                           TC       ENDOFJOB                              #  NO MATCH FOUND. SIGN ILLEGAL
000654: 04,2350           60270        SGNTST1            AD       DSPCOUNT
000655:
000656: 04,2351           00006                           EXTEND
000657: 04,2352           12354                           BZF      +2                                    #  MATCH FOUND
000658: 04,2353           00002                           TC       Q
000659: 04,2354           00001                           TC       L                                     #  SIGN LEGAL
000660:
000661:                                                                                                  #  ERROR LIGHT RESET (RSET) TURNS OFF,
000662:                                                                                                  #  UPLINK ACTIVITY, AUTO, HOLD, FREE, NO ATT, OPERATOR ERROR,
000663:                                                                                                  #  PROG ALM, TRACKER FAIL.
000664:                                                                                                  #  LEAVES GIMBAL LOCK ALONE.
000665:                                                                                                  #  IT ALSO ZEROES THE :TEST ALARM: OUT BIT, WHICH TURNS OFF STBY,RESTART.
000666:                                                                                                  #  IT ALSO SETS :CAUTION RESET: TO 1.
000667:                                                                                                  #  IT ALSO FORCES BIT 12 OF ALL DSPTAB ENTRIES TO 1.
000668:
000669: 04,2355           56105        ERROR              XCH      21/22REG                              #  RESTORE ORIGINAL C(DSPLOCK). THUS ERROR
000670: 04,2356           54303                           TS       DSPLOCK                               #  LIGHT RESET LEAVES DSPLOCK UNCHANGED.
000671: 04,2357           00004                           INHINT
000672: 04,2360           37744                           CAF      BIT10                                 #  TURN ON :CAUTION RESET: OUTBIT
000673: 04,2361           00006                           EXTEND
000674: 04,2362           05011                           WOR      DSALMOUT                              #  BIT10 CHAN 11
000675: 04,2363           32444                           CAF      GL+NOATT                              #  LEAVE GIMBAL LOCK AND NO ATT INTACT,
000676: 04,2364           70326                           MASK     DSPTAB     +11D                       #  TURNING OFF AUTO, HOLD, FREE,
000677:
000678: 04,2365           67737                           AD       BIT15                                 #  PROG ALARM, AND TRACKER.
000679: 04,2366           54326                           TS       DSPTAB     +11D


000681: 04,2367           45660                           CS       PRIO16                                #  RESET FAIL BITS WHICH GENERATE PROG
000682: 04,2370           70366                           MASK     IMODES33                              #  ALARM SO THAT IF THE FAILURE STILL
000683: 04,2371           65660                           AD       PRIO16                                #  EXISTS, THE ALARM WILL COME BACK.
000684: 04,2372           54366                           TS       IMODES33
000685: 04,2373           47744                           CS       BIT10
000686: 04,2374           70365                           MASK     IMODES30
000687: 04,2375           67744                           AD       BIT10
000688: 04,2376           54365                           TS       IMODES30
000689:
000690: 04,2377           42443                           CS       RFAILS
000691: 04,2400           70413                           MASK     RADMODES
000692: 04,2401           67747                           AD       BIT7
000693: 04,2402           54413                           TS       RADMODES
000694:
000695: 04,2403           47744                           CS       BIT10                                 #  TURN OFF :TEST ALARM: OUTBIT.
000696: 04,2404           00006                           EXTEND
000697: 04,2405           03013                           WAND     CHAN13
000698: 04,2406           42442                           CS       ERCON                                 #  TURN OFF UPLINK ACTIVITY,
000699: 04,2407           00006                           EXTEND                                         #  OPERATOR ERROR.
000700: 04,2410           03011                           WAND     DSALMOUT
000701: 04,2411           34557        TSTAB              CAF      BINCON                                #  (DEC 10)
000702: 04,2412           54107                           TS       ERCNT                                 #  ERCNT = COUNT
000703: 04,2413           00004                           INHINT
000704: 04,2414           50107                           INDEX    ERCNT
000705: 04,2415           10313                           CCS      DSPTAB
000706: 04,2416           67755                           AD       ONE
000707: 04,2417           02424                           TC       ERPLUS
000708: 04,2420           67755                           AD       ONE
000709: 04,2421           40000        ERMINUS            CS       A
000710: 04,2422           72445                           MASK     NOTBIT12
000711: 04,2423           02427                           TC       ERCOM
000712: 04,2424           40000        ERPLUS             CS       A
000713:
000714: 04,2425           72445                           MASK     NOTBIT12
000715: 04,2426           40000                           CS       A                                     #  MIGHT WANT TO RESET CLPASS, DECBRNCH,
000716: 04,2427           50107        ERCOM              INDEX    ERCNT                                 #  ETC.
000717: 04,2430           54313                           TS       DSPTAB
000718: 04,2431           00003                           RELINT
000719: 04,2432           10107                           CCS      ERCNT
000720: 04,2433           02412                           TC       TSTAB      +1
000721: 04,2434           37761                           CAF      ZERO
000722: 04,2435           55363                           TS       FAILREG
000723: 04,2436           55364                           TS       FAILREG    +1
000724: 04,2437           55365                           TS       FAILREG    +2
000725: 04,2440           55361                           TS       SFAIL
000726: 04,2441           05605                           TC       ENDOFJOB
000727:
000728: 04,2442           00104        ERCON              OCT      104                                   #  CHAN 11 BITS 3,7.
000729:                                                                                                  #  UPLINK ACTIVITY, AND OPERATOR ERROR.
000730: 04,2443           00330        RFAILS             OCT      330                                   #  RADAR CDU AND DATA FAIL FLAGS.
000731: 04,2444           00050        GL+NOATT           OCT      00050                                 #  NO ATT AND GIMBAL LOCK LAMPS


000733: 04,2445           73777        NOTBIT12           OCT      73777
000734:
000735:
000736:                                                                                                  #  CLEAR BLANKS WHICH R1, R2, R3 IS CURRENT OR LAST TO BE DISPLAYED(PERTINE
000737:                                                                                                  #  NT XREG,YREG,ZREG IS CLEARED). SUCCESSIVE CLEARS TAKE CARE OF EACH RX
000738:                                                                                                  #  L/ RC UNTIL R1 IS DONE. THEN NO FURTHER ACTION
000739:
000740:                                                                                                  #  THE SINGLE COMPONENT LOAD VERBS ALLOW ONLY THE SINGLE RC THAT IS
000741:                                                                                                  #  APPROPRIATE TO BE CLEARED.
000742:
000743:                                                                                                  #  CLPASS   +0  PASS0, CAN BE BACKED UP
000744:                                                                                                  #           +NZ  HIPASS, CAN BE BACKED UP
000745:                                                                                                  #           -NZ  PASS0, CANNOT BE BACKED UP
000746:
000747: 04,2446           10270        CLEAR              CCS      DSPCOUNT
000748: 04,2447           67755                           AD       ONE
000749: 04,2450           02452                           TC       +2
000750: 04,2451           67755                           AD       ONE
000751: 04,2452           50000                           INDEX    A                                     #  DO NOT CHANGE DSPCOUNT BECAUSE MAY LATER
000752: 04,2453           32217                           CAF      INRELTAB                              #  FAIL LEGALTST.
000753: 04,2454           54127                           TS       INREL                                 #  MUST SET INREL, EVEN FOR HIPASS.
000754: 04,2455           10306                           CCS      CLPASS
000755: 04,2456           02464                           TC       CLPASHI                               #  +
000756: 04,2457           02461                           TC       +2                                    #  +0    IF CLPASS IS +0 OR -, IT IS PASS0
000757: 04,2460           02461                           TC       +1                                    #  -
000758: 04,2461           30127                           CA       INREL
000759: 04,2462           02506                           TC       LEGALTST
000760: 04,2463           02501                           TC       CLEAR1
000761: 04,2464           10127        CLPASHI            CCS      INREL
000762: 04,2465           54127                           TS       INREL
000763: 04,2466           02506                           TC       LEGALTST
000764: 04,2467           32555                           CAF      DOUBLK     +2                         #  +3 TO - NUMBER. BACKS DATA REQUESTS.
000765: 04,2470           26304                           ADS      REQRET
000766: 04,2471           30127                           CA       INREL
000767: 04,2472           54115                           TS       MIXTEMP                               #  TEMP STORAGE FOR INREL
000768: 04,2473           00006                           EXTEND
000769: 04,2474           26272                           DIM      VERBREG                               #  DECREMENT VERB AND RE-DISPLAY
000770:
000771: 04,2475           05224                           TC       BANKCALL
000772: 04,2476           12315                           CADR     UPDATVB
000773: 04,2477           30115                           CA       MIXTEMP
000774: 04,2500           54127                           TS       INREL                                 #  RESTORE INREL
000775: 04,2501           02504        CLEAR1             TC       CLR5
000776: 04,2502           24306                           INCR     CLPASS                                #  ONLY IF CLPASS IS + OR +0,
000777: 04,2503           05605                           TC       ENDOFJOB                              #  SET FOR HIGHER PASS.
000778: 04,2504           22002        CLR5               LXCH     Q                                     #  USES 5BLANK  BUT AVOIDS ITS TC GETINREL
000779: 04,2505           02516                           TC       5BLANK     +2
000780: 04,2506           65355        LEGALTST           AD       NEG2
000781: 04,2507           10000                           CCS      A
000782: 04,2510           00002                           TC       Q                                     #  LEGAL  INREL G/ 2


000784: 04,2511           04725                           TC       CCSHOLE
000785: 04,2512           05605                           TC       ENDOFJOB                              #  ILLEGAL   INREL= 0,1
000786: 04,2513           00002                           TC       Q                                     #  LEGAL    INREL = 2
000787:
000788:                                                                                                  #  5BLANK BLANKS 5 CHAR DISPLAY WORD IN R1, R2, OR R3. IT ALSO ZEROES XREG,
000789:                                                                                                  #  YREG, OR ZREG.PLACE ANY + DSPCOUNT NUMBER FOR PERTINENT RC INTO DSPCOUNT
000790:                                                                                                  #  DSPCOUNT IS LEFT SET TO LEFT MOST DSP NUMB FOR RC JUST BLANKED.
000791:
000792: 04,2514           22002        5BLANK             LXCH     Q
000793: 04,2515           02213                           TC       GETINREL
000794: 04,2516           37761                           CAF      ZERO
000795: 04,2517           50127                           INDEX    INREL
000796: 04,2520           54272                           TS       VERBREG                               #  ZERO X, Y, Z REG.
000797: 04,2521           50127                           INDEX    INREL
000798: 04,2522           54275                           TS       XREGLP     -2
000799: 04,2523           54114                           TS       CODE
000800: 04,2524           50127                           INDEX    INREL                                 #  ZERO PERTINENT DEC COMP BIT.
000801:
000802: 04,2525           47747                           CS       BIT7                                  #  PROTECT OTHERS
000803: 04,2526           70271                           MASK     DECBRNCH
000804: 04,2527           72556                           MASK     BRNCHCON                              #  ZERO LOW 2 BITS.
000805: 04,2530           54271                           TS       DECBRNCH
000806: 04,2531           50127                           INDEX    INREL
000807: 04,2532           32546                           CAF      SINBLANK   -2                         #  BLANK ISOLATED CHAR SEPARATELY
000808: 04,2533           54133                           TS       COUNT
000809: 04,2534           03217                           TC       DSPIN
000810: 04,2535           50127        5BLANK1            INDEX    INREL
000811: 04,2536           32551                           CAF      DOUBLK     -2
000812: 04,2537           54270                           TS       DSPCOUNT
000813: 04,2540           02557                           TC       2BLANK
000814: 04,2541           47754                           CS       TWO
000815: 04,2542           26270                           ADS      DSPCOUNT
000816: 04,2543           02557                           TC       2BLANK
000817: 04,2544           50127                           INDEX    INREL
000818: 04,2545           34514                           CAF      R1D1       -2
000819: 04,2546           54270                           TS       DSPCOUNT                              #  SET DSPCOUNT TO LEFT MOST DSP NUMBER
000820: 04,2547           00001                           TC       L                                     #  OF REG. JUST BLANKED
000821:
000822: 04,2550           00016        SINBLANK           OCT      16                                    #  DEC 14
000823: 04,2551           00005                           OCT      5
000824: 04,2552           00004                           OCT      4
000825:
000826: 04,2553           00015        DOUBLK             OCT      15                                    #  DEC 13
000827: 04,2554           00011                           OCT      11                                    #  DEC 9
000828: 04,2555           00003                           OCT      3
000829:
000830: 04,2556           77774        BRNCHCON           OCT      77774
000831:
000832:                                                                                                  #  2BLANK BLANKS TWO CHAR. PLACE DSP NUMBER OF LEFT CHAR  OF THE PAIR INTO
000833:                                                                                                  #  DSPCOUNT. THIS NUMBER IS LEFT IN DSPCOUNT


000835:
000836: 04,2557           30270        2BLANK             CA       DSPCOUNT
000837: 04,2560           54021                           TS       SR
000838:
000839: 04,2561           42572                           CS       BLANKCON
000840: 04,2562           00004                           INHINT
000841: 04,2563           50021                           INDEX    SR
000842: 04,2564           56313                           XCH      DSPTAB
000843: 04,2565           00006                           EXTEND
000844: 04,2566           62570                           BZMF     +2                                    #  IF OLD CONTENTS -, NOUT OK
000845: 04,2567           24307                           INCR     NOUT                                  #  IF OLD CONTENTS +, +1 TO NOUT
000846: 04,2570           00003                           RELINT                                         #  IF -,NOUT OK
000847: 04,2571           00002                           TC       Q
000848: 04,2572           04000        BLANKCON           OCT      4000
000849:


000851:                                                                                                  #  ENTER PASS 0 IS THE EXECUTE FUNCTION. HIGHER ORDER ENTERS ARE TO LOAD
000852:                                                                                                  #  DATA. THE SIGN OF REQRET DETERMINES THE PASS, + FOR PASS 0,- FOR HIGHER
000853:                                                                                                  #  PASSES.
000854:
000855:
000856:                                                                                                  #  MACHINE CADR TO BE SPECIFIED (MCTBS) NOUNS DESIRE AN ECADR TO BE LOADED
000857:                                                                                                  #  WHEN USED WITH LOAD VERBS, MONITOR VERBS, OR DISPLAY VERBS (EXCEPT
000858:
000859:                                                                                                  #  VERB = FIXED MEMORY DISPLAY, WHICH REQUIRES AN FCADR).
000860:
000861: 05,2000                                           SETLOC   22000
000862:
000863: 05,2000           03344        NVSUBB             TC       NVSUB1                                #  STANDARD LEAD INS. DONT MOVE.
000864: 05,2001           13403        DSPMM              TCF      DSPMM1
000865: 05,2002           02663        LOADLV1            TC       LOADLV
000866:                                                                                                  #  END OF STANDARD LEAD INS.
000867:
000868:
000869: 05,2003           37761        ENTER              CAF      ZERO
000870: 05,2004           54306                           TS       CLPASS
000871: 05,2005           34474                           CAF      ENDINST
000872: 05,2006           54126                           TS       ENTRET
000873: 05,2007           10304                           CCS      REQRET
000874: 05,2010           02031                           TC       ENTPAS0                               #  IF +, PASS 0
000875: 05,2011           02031                           TC       ENTPAS0                               #  IF +, PASS 0
000876: 05,2012           02013                           TC       +1                                    #  IF -, NOT PASS 0
000877: 05,2013           36301                           CAF      THREE                                 #  IF DEC, ALARM IF LESS THAN 5 CHAR IN,
000878: 05,2014           70271                           MASK     DECBRNCH                              #  BUT LEAVE REQRET - AND FLASH ON, SO
000879:
000880: 05,2015           10000                           CCS      A                                     #  OPERATOR CAN SUPPLY MISSING NUMERICAL
000881: 05,2016           02020                           TC       +2                                    #  CHARACTERS AND CONTINUE.
000882: 05,2017           02024                           TC       ACCEPTWD                              #  OCTAL. ANY NUMBER OF CHAR OK.
000883: 05,2020           10270                           CCS      DSPCOUNT
000884: 05,2021           02324                           TC       GODSPALM                              #  LESS THAN 5 CHAR DEC(DSPCOUNT IS +)
000885: 05,2022           02324                           TC       GODSPALM                              #  LESS THAN 5 CHAR DEC(DSPCOUNT IS +)
000886: 05,2023           02024                           TC       +1                                    #  5 CHAR IN (DSPCOUNT IS -)
000887: 05,2024           40304        ACCEPTWD           CS       REQRET                                #  5 CHAR IN (DSPCOUNT IS -)
000888: 05,2025           54304                           TS       REQRET                                #  SET REQRET +.
000889: 05,2026           04615                           TC       FLASHOFF
000890: 05,2027           00304                           TC       REQRET
000891:
000892: 05,2030     0126               ENTEXIT            =        ENTRET
000893:
000894: 05,2030           00030        LOWVERB            OCT      30                                    #  LOWER VERB THAT AVOIDS NOUN TEST
000895:
000896: 05,2031           37761        ENTPAS0            CAF      ZERO                                  #   NOUN VERB SUB ENTERS HERE
000897: 05,2032           54271                           TS       DECBRNCH
000898: 05,2033           40272        TESTVB             CS       VERBREG                               #  IF VERB IS 30-77, SKIP NOUN TEST


000900: 05,2034           62030                           AD       LOWVERB                               #  30-VB
000901: 05,2035           00006                           EXTEND
000902: 05,2036           62116                           BZMF     VERBFAN                               #  VERB G/E 30
000903: 05,2037           00006        TESTNN             EXTEND                                         #  VERB L/ 30
000904: 05,2040           32076                           DCA      LODNNLOC                              #  SWITCH BANKS TO NOUN TABLE READING
000905: 05,2041           52006                           DXCH     Z                                     #  ROUTINE.
000906: 05,2042           50130                           INDEX    MIXBR
000907: 05,2043           02043                           TC       +0
000908: 05,2044           02046                           TC       +2                                    #  NORMAL
000909: 05,2045           02176                           TC       MIXNOUN                               #  MIXED
000910: 05,2046           10136                           CCS      NNADTEM                               #  NORMAL
000911: 05,2047           02114                           TC       VERBFAN    -2                         #       NORMAL IF +
000912: 05,2050           02324                           TC       GODSPALM                              #  NOT IN USE   IF +0
000913: 05,2051           02055                           TC       REQADD                                #  SPECIFY MACHINE CADR IF -
000914:
000915: 05,2052           24310                           INCR     NOUNCADR                              #  AUGMENT MACHINE CADR IF -0
000916: 05,2053           04510                           TC       SETNADD                               #  ECADR FROM NOUNCADR. SETS EB, NOUNADD.
000917: 05,2054           02102                           TC       INTMCTBS   +2
000918: 05,2055           37737        REQADD             CAF      BIT15                                 #  SET CLPASS FOR PASS 0 ONLY
000919: 05,2056           54306                           TS       CLPASS
000920: 05,2057           44474                           CS       ENDINST                               #  TEST IF REACHED HERE FROM INTERNAL OR
000921: 05,2060           60126                           AD       ENTEXIT                               #              FROM EXTERNAL
000922: 05,2061           00006                           EXTEND
000923: 05,2062           12064                           BZF      +2                                    #  EXTERNAL MACH CADR TO BE SPECIFIED
000924: 05,2063           02100                           TC       INTMCTBS
000925: 05,2064           02256                           TC       REQDATZ                               #  EXTERNAL MACH CADR TO BE SPECIFIED
000926: 05,2065           10271                           CCS      DECBRNCH
000927: 05,2066           02324                           TC       GODSPALM                              #  ALARM IF DECIMAL USED FOR MCTBS
000928: 05,2067           56276                           XCH      ZREG                                  #  OCTAL USED    OK
000929: 05,2070           04502                           TC       SETNCADR                              #  ECADR INTO NOUNCADR. SET EB, NOUNADD.
000930: 05,2071           00006                           EXTEND
000931: 05,2072           32076                           DCA      LODNNLOC                              #  SWITCH BANKS TO NOUN TABLE READING
000932: 05,2073           52006                           DXCH     Z                                     #  ROUTINE.
000933: 05,2074           02116                           TC       VERBFAN
000934:
000935: 05,2075     0270                                  EBANK=   DSPCOUNT
000936: 05,2075           02000 46000  LODNNLOC           2CADR    LODNNTAB
000937:
000938: 05,2077           77772        NEG5               OCT      77772
000939:
000940: 05,2100           30146        INTMCTBS           CA       MPAC       +2                         #  INTERNAL MACH CADR TO BE SPECIFIED.
000941: 05,2101           04502                           TC       SETNCADR                              #  ECADR INTO NOUNCADR. SET EB, NOUNADD.
000942: 05,2102           47752                           CS       BIT4                                  #  NVSUB CALL LEFT CADR IN MPAC+2 FOR MACH
000943: 05,2103           70272                           MASK     VERBREG                               #  CADR TO BE SPECIFIED.
000944: 05,2104           62077                           AD       NEG5                                  #  MASKING MAKES VB15 LOOK LIKE VB05.
000945: 05,2105           00006                           EXTEND
000946: 05,2106           12116                           BZF      VERBFAN                               #  VB = 05 OR 15, DO NOT DISPLAY CADR.
000947: 05,2107           34520                           CAF      R3D1                                  #  VB NOT = 05 OR 15, DISPLAY CADR.
000948: 05,2110           54270                           TS       DSPCOUNT
000949: 05,2111           30310                           CA       NOUNCADR
000950: 05,2112           03222                           TC       DSPOCTWD


000952: 05,2113           02116                           TC       VERBFAN
000953:
000954: 05,2114           67755                           AD       ONE
000955: 05,2115           04502                           TC       SETNCADR                              #  ECADR INTO NOUNCADR. SETS EB, NOUNADD.
000956: 05,2116           42131        VERBFAN            CS       LST2CON
000957: 05,2117           60272                           AD       VERBREG                               #  VERB-LST2CON
000958: 05,2120           10000                           CCS      A
000959: 05,2121           67755                           AD       ONE                                   #  VERB G/ LST2CON
000960: 05,2122           02124                           TC       +2
000961: 05,2123           02133                           TC       VBFANDIR                              #  VERB L/ LST2CON
000962: 05,2124           54144                           TS       MPAC
000963: 05,2125           04655                           TC       RELDSP                                #  RELEASE DISPLAY SYST
000964: 05,2126           56144                           XCH      MPAC                                  #  ALSO TURN OFF RELEASE DISPLAY SYST LIGHT
000965: 05,2127           62132                           AD       LST2CADR
000966: 05,2130           05246                           TC       BANKJUMP
000967: 05,2131           00040        LST2CON            OCT      40                                    #  FIRST LST2 VERB
000968: 05,2132           22000        LST2CADR           CADR     LST2FAN
000969:
000970: 05,2133           50272        VBFANDIR           INDEX    VERBREG
000971:
000972: 05,2134           32136                           CAF      VERBTAB
000973: 05,2135           05246                           TC       BANKJUMP
000974:
000975: 05,2136           12324        VERBTAB            CADR     GODSPALM                              #  VB00 ILLEGAL
000976: 05,2137           12340                           CADR     DSPA                                  #  VB01 DISPLAY OCT COMP 1 (R1)
000977: 05,2140           12345                           CADR     DSPB                                  #  VB02 DISPLAY OCT COMP 2 (R1)
000978: 05,2141           12352                           CADR     DSPC                                  #  VB03 DISPLAY OCT COMP 3 (R1)
000979: 05,2142           12333                           CADR     DSPAB                                 #  VB04 DISPLAY OCT COMP 1,2 (R1,R2)
000980: 05,2143           12326                           CADR     DSPABC                                #  VB05 DISPLAY OCT COMP 1,2,3 (R1,R2,R3)
000981: 05,2144           12445                           CADR     DECDSP                                #  VB06 DECIMAL DISPLAY
000982: 05,2145           10722                           CADR     DSPDPDEC                              #  VB07 DP DECIMAL DISPLAY (R1,R2)
000983: 05,2146           11315                           CADR     DSPALARM                              #  VB10 SPARE
000984: 05,2147           13077                           CADR     MONITOR                               #  VB11 MONITOR OCT COMP 1 (R1)
000985: 05,2150           13077                           CADR     MONITOR                               #  VB12 MONITOR OCT COMP 2 (R1)
000986: 05,2151           13077                           CADR     MONITOR                               #  VB13 MONITOR OCT COMP 3 (R1)
000987: 05,2152           13077                           CADR     MONITOR                               #  VB14 MONITOR OCT COMP 1,2 (R1,R2)
000988: 05,2153           13077                           CADR     MONITOR                               #  VB15 MONITOR OCT COMP 1,2,3 (R1,R2,R3)
000989: 05,2154           13077                           CADR     MONITOR                               #  VB16 MONITOR DECIMAL
000990: 05,2155           13077                           CADR     MONITOR                               #  VB17 MONITOR DP DEC  (R1,R2)
000991: 05,2156           12324                           CADR     GODSPALM                              #  VB20 SPARE
000992: 05,2157           12620                           CADR     ALOAD                                 #  VB21 LOAD COMP 1 (R1)
000993: 05,2160           12631                           CADR     BLOAD                                 #  VB22 LOAD COMP 2 (R2)
000994: 05,2161           12646                           CADR     CLOAD                                 #  VB23 LOAD COMP 3 (R3)
000995:
000996: 05,2162           12572                           CADR     ABLOAD                                #  VB24 LOAD COMP 1,2 (R1,R2)
000997: 05,2163           12535                           CADR     ABCLOAD                               #  VB25 LOAD COMP 1,2,3 (R1,R2,R3)
000998: 05,2164           12324                           CADR     GODSPALM                              #  VB26 SPARE
000999: 05,2165           13214                           CADR     DSPFMEM                               #  VB27 FIXED MEMORY DISPLAY
001000:                                                                                                  #  THE FOLLOWING VERBS MAKE NO NOUN TEST
001001: 05,2166           13314        REQEXLOC           CADR     VBRQEXEC                              #  VB30 REQUEST EXECUTIVE
001002: 05,2167           13340                           CADR     VBRQWAIT                              #  VB31 REQUEST WAITLIST
001003: 05,2170           11343                           CADR     BUMP                                  #  VB32 C(R2) INTO R3, C(R1) INTO R2


001005: 05,2171           11326                           CADR     VBPROC                                #  VB33 PROCEED WITHOUT DATA
001006: 05,2172           11333                           CADR     VBTERM                                #  VB34 TERMINATE CURRENT TEST OR LOAD REQ
001007:
001008: 05,2173           13414                           CADR     VBTSTLTS                              #  VB35 TEST LIGHTS
001009: 05,2174           02000                           CADR     SLAP1                                 #  VB36 FRESH START
001010: 05,2175           13267        ENDVBFAN           CADR     MMCHANG                               #  VB37 CHANGE MAJOR MODE
001011:
001012:                                                                                                  #  THE LIST2 VERBFAN IS LOCATED IN THE EXTENDED VERB BANK.
001013:


001015:                                                                                                  #  NNADTAB CONTAINS A RELATIVE ADDRESS, IDADDREL(IN LOW 10 BITS), REFERRING
001016:                                                                                                  #  TO WHERE 3 CONSECUTIVE ADDRESSES ARE STORED (IN IDADDTAB).
001017:                                                                                                  #  MIXNOUN GETS DATA AND STORES IN MIXTEMP,+1,+2. IT SETS NOUNADD FOR
001018:                                                                                                  #   MIXTEMP.
001019:
001020: 05,2176           10136        MIXNOUN            CCS      NNADTEM
001021: 05,2177           02203                           TC       +4                                    #  +  IN USE
001022: 05,2200           02324                           TC       GODSPALM                              #  +0  NOT IN USE
001023:
001024: 05,2201           02203                           TC       +2                                    #  -  IN USE
001025: 05,2202           02203                           TC       +1                                    #  -0  IN USE
001026: 05,2203           46276                           CS       SIX
001027: 05,2204           60272                           AD       VERBREG
001028: 05,2205           00006                           EXTEND
001029: 05,2206           62210                           BZMF     +2                                    #  VERB L/E 6
001030: 05,2207           02116                           TC       VERBFAN                               #  AVOID MIXNOUN SWAP IF VB NOT = DISPLAY
001031: 05,2210           37754                           CAF      TWO
001032: 05,2211           54107        MIXNN1             TS       DECOUNT
001033: 05,2212           62235                           AD       MIXAD
001034: 05,2213           54135                           TS       NOUNADD                               #  SET NOUNADD TO MIXTEMP + K
001035: 05,2214           50107                           INDEX    DECOUNT                               #  GET IDADDTAB ENTRY FOR COMPONENT K
001036: 05,2215           30140                           CA       IDAD1TEM                              #  OF NOUN.
001037: 05,2216           54112                           TS       NOUNTEM
001038:                                                                                                  #  TEST FOR DP(FOR OCT DISPLAY). IF SO, GET
001039:                                                                                                  #    MINOR PART ONLY.
001040: 05,2217           02721                           TC       SFRUTMIX                              #  GET SF ROUT NUMBER IN A
001041: 05,2220           02236                           TC       DPTEST
001042: 05,2221           02223                           TC       MIXNN2                                #  NO DP
001043: 05,2222           24112                           INCR     NOUNTEM                               #  DP GET MINOR PART
001044: 05,2223           30112        MIXNN2             CA       NOUNTEM
001045: 05,2224           74552                           MASK     LOW11                                 #  ESUBK (NO DP)  OR (ESUBK)+1    FOR DP
001046: 05,2225           04512                           TC       SETEBANK                              #  SET EBANK, LEAVE EADRES IN A.
001047:
001048: 05,2226           50000                           INDEX    A                                     #  PICK UP C(ESUBK)  NOT DP
001049: 05,2227           30000                           CA       0                                     #  OR C((ESUBK)+1)  FOR DP MINOR PART
001050: 05,2230           50135                           INDEX    NOUNADD
001051: 05,2231           56000                           XCH      0                                     #  STORE IN MIXTEM + K
001052: 05,2232           10107                           CCS      DECOUNT
001053: 05,2233           02211                           TC       MIXNN1
001054: 05,2234           02116                           TC       VERBFAN
001055:
001056: 05,2235           00115        MIXAD              TC       MIXTEMP
001057:
001058:                                                                                                  #  DPTEST   ENTER WITH SF ROUT NUMBER IN A.
001059:                                                                                                  #           RETURNS TO L+1 IF NO DP.
001060:                                                                                                  #           RETURNS TO L+2 IF DP.
001061:
001062: 05,2236           50000        DPTEST             INDEX    A
001063: 05,2237           12240                           TCF      +1
001064: 05,2240           00002                           TC       Q                                     #  OCTAL ONLY  NO DP


001066: 05,2241           00002                           TC       Q                                     #  FRACT NO DP
001067: 05,2242           00002                           TC       Q                                     #  DEG  NO DP
001068: 05,2243           00002                           TC       Q                                     #  ARITH  NO DP
001069: 05,2244           12250                           TCF      DPTEST1                               #  DP1OUT
001070: 05,2245           12250                           TCF      DPTEST1                               #  DP2OUT
001071: 05,2246           00002                           TC       Q                                     #  OPDEG  NO DP
001072: 05,2247           12250                           TCF      DPTEST1                               #  DP3OUT
001073: 05,2250           50002        DPTEST1            INDEX    Q
001074: 05,2251           00001                           TC       1                                     #  RETURN TO L+2
001075:
001076: 05,2252           34516        REQDATX            CAF      R1D1
001077: 05,2253           12257                           TCF      REQCOM
001078:
001079: 05,2254           34517        REQDATY            CAF      R2D1
001080: 05,2255           12257                           TCF      REQCOM
001081: 05,2256           34520        REQDATZ            CAF      R3D1
001082: 05,2257           54270        REQCOM             TS       DSPCOUNT
001083: 05,2260           40002                           CS       Q
001084: 05,2261           54304                           TS       REQRET
001085: 05,2262           05224                           TC       BANKCALL
001086: 05,2263           10514                           CADR     5BLANK
001087: 05,2264           04611                           TC       FLASHON
001088: 05,2265           44474                           CS       ENDINST
001089: 05,2266           60126                           AD       ENTEXIT
001090: 05,2267           00006                           EXTEND
001091: 05,2270           12273                           BZF      ENDRQDAT                              #  ENTEXIT = ENDOFJOB. EXTERNALLY INITIATED
001092: 05,2271           47761                           CS       ZERO                                  #  ENTEXIT NOT ENDOFJOB. NVSUB INITIATED
001093: 05,2272           54327                           TS       CADRSTOR                              #  NVSUB INITIATED LOAD. SET CADRSTOR TO -0
001094: 05,2273           00126        ENDRQDAT           TC       ENTEXIT
001095:
001096:                                                                                                  #  IF NVSUB INITIATED LOAD, SET CADRSTOR TO -0 TO TELL RECALTST TO RELEASE
001097:                                                                                                  #  DISPLAY IF ENDIDLE WAS NOT USED. (NECESSARY FOR DATAWAIT)
001098:
001099: 05,2274           54273                           TS       NOUNREG
001100:
001101: 05,2275           56002        UPDATNN            XCH      Q
001102: 05,2276           54107                           TS       UPDATRET
001103: 05,2277           00006                           EXTEND
001104: 05,2300           32076                           DCA      LODNNLOC                              #  SWITCH BANKS TO NOUN TABLE READING
001105: 05,2301           52006                           DXCH     Z                                     #  ROUTINE.
001106: 05,2302           10136                           CCS      NNADTEM
001107: 05,2303           67755                           AD       ONE                                   #  NORMAL
001108: 05,2304           12307                           TCF      PUTADD
001109: 05,2305           12310                           TCF      PUTADD     +1                         #  MCTBS  DONT CHANGE NOUNADD
001110: 05,2306           12310                           TCF      PUTADD     +1                         #  MCTBI  DONT CHANGE NOUNADD
001111: 05,2307           04502        PUTADD             TC       SETNCADR                              #  ECADR INTO NOUNCADR. SETS EB, NOUNADD.
001112: 05,2310           34555                           CAF      ND1
001113: 05,2311           54270                           TS       DSPCOUNT


001115: 05,2312           30273                           CA       NOUNREG
001116: 05,2313           12322                           TCF      UPDAT1
001117:
001118: 05,2314           54272                           TS       VERBREG
001119: 05,2315           56002        UPDATVB            XCH      Q
001120: 05,2316           54107                           TS       UPDATRET
001121: 05,2317           34554                           CAF      VD1
001122: 05,2320           54270                           TS       DSPCOUNT
001123: 05,2321           30272                           CA       VERBREG
001124: 05,2322           03255        UPDAT1             TC       DSP2BIT
001125: 05,2323           00107                           TC       UPDATRET
001126:
001127: 05,2324           05243        GODSPALM           TC       POSTJUMP
001128: 05,2325           11315                           CADR     DSPALARM
001129:


001131:                                                                                                  #           NOUN TABLES
001132:                                                                                                  #  NOUN CODE L/ 55, NORMAL CASE.  NOUN CODE G/E 55, MIXED NOUN CASE.
001133:
001134:                                                                                                  #  FOR NORMAL CASE, NNADTAB CONTAINS ONE       ECADR     FOR EACH NOUN.
001135:                                                                                                  #  +0 INDICATES NOUN NOT USED.   - ENTRY INDICATES MACHINE CADR(E OR F) TO
001136:                                                                                                  #  BE SPECIFIED. -1 INDICATES CHANNEL TO BE SPECIFIED. -0 INDICATES AUGMENT
001137:                                                                                                  #  OF LAST MACHINE CADR SUPPLIED.
001138:
001139:                                                                                                  #  FOR MIXED CASE, NNADTAB CONTAINS ONE INDIRECT ADDRESS(IDADDREL) IN LOW
001140:                                                                                                  #  10 BITS, AND THE COMPONENT CODE NUMBER IN THE HIGH 5 BITS.
001141:
001142:                                                                                                  #  NNTYPTAB IS A PACKED TABLE OF THE FORM MMMMMNNNNNPPPPP.
001143:
001144:                                                                                                  #  FOR THE NORMAL CASE, M-S ARE THE COMPONENT CODE NUMBER.
001145:                                                                                                  #                       N-S ARE THE SF ROUTINE CODE NUMBER.
001146:                                                                                                  #                       P-S ARE THE SF CONSTANT CODE NUMBER.
001147:
001148:                                                                                                  #  MIXED CASE,M-S ARE THE SF CONSTANT3 CODE NUMBER     3 COMPONENT CASE
001149:                                                                                                  #             N-S ARE THE SF CONSTANT2 CODE NUMBER
001150:                                                                                                  #             P-S ARE THE SF CONSTANT1 CODE NUMBER
001151:                                                                                                  #             N-S ARE THE SF CONSTANT2 CODE NUMBER     2 COMPONENT CASE
001152:                                                                                                  #             P-S ARE THE SF CONSTANT1 CODE NUMBER
001153:                                                                                                  #             P-S ARE THE SF CONSTANT1 CODE NUMBER      1 COMPONENT CASE
001154:
001155:                                                                                                  #  THERE IS ALSO AN INDIRECT ADDRESS TABLE(IDADDTAB) FOR MIXED CASE ONLY.
001156:                                                                                                  #  EACH ENTRY CONTAINS ONE ECADR.    IDADDREL IS THE RELATIVE ADDRESS OF
001157:
001158:                                                                                                  #  THE FIRST OF THESE ENTRIES.
001159:                                                                                                  #  THERE IS ONE ENTRY IN THIS TABLE FOR EACH COMPONENT OF A MIXED NOUN
001160:                                                                                                  #  THEY ARE LISTED IN ORDER OF ASCENDING K.
001161:
001162:                                                                                                  #  THERE IS ALSO A SCALE FACTOR ROUTINE NUMBER TABLE( RUTMXTAB ) FOR MIXED
001163:                                                                                                  #  CASE ONLY. THERE IS ONE ENTRY PER MIXED NOUN. THE FORM IS,
001164:                                                                                                  #        QQQQQRRRRRSSSSS
001165:                                                                                                  #  Q-S ARE THE SF ROUTINE 3 CODE NUMBER     3 COMPONENT CASE
001166:                                                                                                  #  R-S ARE THE SF ROUTINE 2 CODE NUMBER
001167:                                                                                                  #  S-S ARE THE SF ROUTINE 1 CODE NUMBER
001168:                                                                                                  #  R-S ARE THE SF ROUTINE 2 CODE NUMBER     2 COMPONENT CASE
001169:                                                                                                  #  S-S ARE THE SF ROUTINE 1 CODE NUMBER
001170:
001171:
001172:                                                                                                  #  IN OCTAL DISPLAY AND LOAD (OCT OR DEC) VERBS, EXCLUDE USE OF VERBS WHOSE
001173:                                                                                                  #  COMPONENT NUMBER IS GREATER THAN THE NUMBER OF COMPONENTS IN NOUN.
001174:                                                                                                  #  ALL MACHINE ADDRESS TO BE SPECIFIED NOUNS ARE 1 COMPONENT.
001175:                                                                                                  #  ONLY EXCEPTION IS NOUN 01 TO ALLOW OCTAL DISPLAYS AND LOADS OF
001176:                                                                                                  #  AN UNCONTOLLED NUMBER OF COMPONENTS.
001177:
001178:
001179:                                                                                                  #  IN MULTI-COMPONENT LOAD VERBS, NO MIXING OF OCTAL AND DECIMAL DATA
001180:                                                                                                  #  COMPONENT WORDS IS ALLOWED. ALARM IF VIOLATION.


001182:
001183:                                                                                                  #  IN DECIMAL LOADS OF DATA, 5 NUMERICAL CHARACTERS MUST BE KEYED IN
001184:                                                                                                  #  BEFORE EACH ENTER. IF NOT, ALARM.
001185:


001187:                                                                                                  #           DISPLAY VERBS
001188:
001189: 05,2326           47754        DSPABC             CS       TWO
001190: 05,2327           02376                           TC       COMPTEST
001191: 05,2330           50135                           INDEX    NOUNADD
001192: 05,2331           40002                           CS       2
001193: 05,2332           56122                           XCH      BUF        +2
001194: 05,2333           47755        DSPAB              CS       ONE
001195: 05,2334           02376                           TC       COMPTEST
001196: 05,2335           50135                           INDEX    NOUNADD
001197: 05,2336           40001                           CS       1
001198: 05,2337           56121                           XCH      BUF        +1
001199: 05,2340           02420        DSPA               TC       TSTFORDP
001200: 05,2341           50135                           INDEX    NOUNADD
001201: 05,2342           40000                           CS       0
001202:
001203: 05,2343           56120        DSPCOM1            XCH      BUF
001204: 05,2344           02357                           TC       DSPCOM2
001205: 05,2345           47755        DSPB               CS       ONE
001206: 05,2346           02376                           TC       COMPTEST
001207: 05,2347           50135                           INDEX    NOUNADD
001208: 05,2350           40001                           CS       1
001209: 05,2351           02343                           TC       DSPCOM1
001210: 05,2352           47754        DSPC               CS       TWO
001211: 05,2353           02376                           TC       COMPTEST
001212: 05,2354           50135                           INDEX    NOUNADD
001213: 05,2355           40002                           CS       2
001214: 05,2356           02343                           TC       DSPCOM1
001215: 05,2357           47754        DSPCOM2            CS       TWO                                   #  A  B  C  AB  ABC
001216: 05,2360           60272                           AD       VERBREG                               #  -1 -0 +1 +2  +3   IN A
001217: 05,2361           10000                           CCS      A                                     #  +0 +0 +0 +1  +2    IN A AFTER CCS
001218: 05,2362           02365                           TC       DSPCOM3
001219: 05,2363           00126                           TC       ENTEXIT
001220: 05,2364           02365                           TC       +1
001221: 05,2365           54112        DSPCOM3            TS       DISTEM                                #  +0,+1,+2 INTO DISTEM
001222: 05,2366           50000                           INDEX    A
001223: 05,2367           34516                           CAF      R1D1
001224: 05,2370           54270                           TS       DSPCOUNT
001225: 05,2371           50112                           INDEX    DISTEM
001226:
001227: 05,2372           40120                           CS       BUF
001228: 05,2373           03222                           TC       DSPOCTWD
001229: 05,2374           56112                           XCH      DISTEM
001230: 05,2375           02361                           TC       DSPCOM2    +2
001231:
001232:                                                                                                  #  COMPTEST ALARMS IF COMPONENT NUMBER OF VERB(LOAD OR OCT DISPLAY) IS
001233:                                                                                                  #  GREATER THAN THE HIGHEST COMPONENT NUMBER OF NOUN.
001234:                                                                                                  #  NOUN 01 IS EXCLUDED FROM TEST.
001235: 05,2376           54113        COMPTEST           TS       SFTEMP1                               #  - VERB COMP
001236: 05,2377           22002                           LXCH     Q
001237: 05,2400           47755        COMPTST1           CS       ONE
001238: 05,2401           60273                           AD       NOUNREG
001239: 05,2402           00006                           EXTEND


001241: 05,2403           12417                           BZF      NDCMPTST                              #  NOUN = 01, ANY COMP OK
001242: 05,2404           50130                           INDEX    MIXBR                                 #  NOUN NOT = 01.
001243: 05,2405           32442                           CAF      COMPICK    -1
001244: 05,2406           50000                           INDEX    A
001245: 05,2407           30000                           CA       0
001246: 05,2410           74547                           MASK     HI5
001247: 05,2411           04530                           TC       LEFT5                                 #  NOUN COMP
001248: 05,2412           60113                           AD       SFTEMP1                               #  NOUN COMP - VERB COMP
001249: 05,2413           10000                           CCS      A
001250: 05,2414           00001                           TC       L                                     #  NOUN COMP G/ VERB COMP
001251: 05,2415           04725                           TC       CCSHOLE
001252: 05,2416           02324                           TC       GODSPALM                              #  NOUN COMP L/ VERB COMP
001253: 05,2417           00001        NDCMPTST           TC       L                                     #  NOUN COMP = VERB COMP
001254:
001255:
001256: 05,2420           22002        TSTFORDP           LXCH     Q                                     #  TEST FOR DP. IF SO, GET MINOR PART ONLY.
001257: 05,2421           30136                           CA       NNADTEM
001258: 05,2422           67755                           AD       ONE                                   #  IF NNADTEM = -1, CHANNEL TO BE SPECIFIED
001259:
001260: 05,2423           00006                           EXTEND
001261: 05,2424           12436                           BZF      CHANDSP
001262: 05,2425           50130                           INDEX    MIXBR
001263: 05,2426           02426                           TC       +0
001264: 05,2427           02431                           TC       +2                                    #  NORMAL
001265: 05,2430           00001                           TC       L                                     #  MIXED CASE ALREADY HANDLED IN MIXNOUN
001266: 05,2431           02713                           TC       SFRUTNOR
001267: 05,2432           02236                           TC       DPTEST
001268: 05,2433           00001                           TC       L                                     #  NO DP
001269: 05,2434           24135                           INCR     NOUNADD                               #  DP    E+1 INTO NOUNADD FOR MINOR PART.
001270: 05,2435           00001                           TC       L
001271:
001272: 05,2436           00006        CHANDSP            EXTEND
001273: 05,2437           50310                           INDEX    NOUNCADR
001274: 05,2440           00000                           READ     0
001275: 05,2441           40000                           CS       A
001276: 05,2442           12343                           TCF      DSPCOM1
001277:
001278:
001279: 05,2443           00137        COMPICK            ADRES    NNTYPTEM
001280:
001281: 05,2444           00136                           ADRES    NNADTEM
001282:
001283: 05,2445           50130        DECDSP             INDEX    MIXBR                                 #  NORMAL                MIXED
001284: 05,2446           32442                           CAF      COMPICK    -1                         #  ADRES NNTYPTEM        ADRES NNADTEM
001285: 05,2447           50000                           INDEX    A
001286: 05,2450           30000                           CA       0                                     #  C(NNTYPTEM)           C(NNADTEM)
001287: 05,2451           74547                           MASK     HI5                                   #  GET HI5 OF NNTYPTAB(NORM)OF NNADTAB (MIX)
001288: 05,2452           04530                           TC       LEFT5


001290:
001291: 05,2453           54107                           TS       DECOUNT                               #  COMP NUMBER INTO DECOUNT
001292: 05,2454           54112        DSPDCGET           TS       DECTEM                                #  PICKS UP DATA
001293:
001294: 05,2455           60135                           AD       NOUNADD                               #  DECTEM  1COMP +0, 2COMP +1, 3COMP +2
001295: 05,2456           50000                           INDEX    A
001296: 05,2457           40000                           CS       0
001297: 05,2460           50112                           INDEX    DECTEM
001298: 05,2461           56274                           XCH      XREG                                  #  CANT USE BUF SINCE DMP USES IT.
001299: 05,2462           10112                           CCS      DECTEM
001300: 05,2463           02454                           TC       DSPDCGET                              #  MORE TO GET
001301: 05,2464           37761        DSPDCPUT           CAF      ZERO                                  #  DISPLAYS DATA
001302: 05,2465           54145                           TS       MPAC       +1                         #  DECOUNT 1COMP +0, 2COMP +1, 3COMP +2
001303: 05,2466           54146                           TS       MPAC       +2
001304: 05,2467           50107                           INDEX    DECOUNT
001305: 05,2470           34516                           CAF      R1D1
001306: 05,2471           54270                           TS       DSPCOUNT
001307: 05,2472           50107                           INDEX    DECOUNT
001308: 05,2473           40274                           CS       XREG
001309: 05,2474           54144                           TS       MPAC
001310: 05,2475           02734                           TC       SFCONUM                               #  2X( SF CON NUMB ) IN A
001311: 05,2476           54113                           TS       SFTEMP1
001312: 05,2477           00006                           EXTEND                                         #  SWITCH BANKS TO SF CONSTANT TABLE
001313: 05,2500           32512                           DCA      GTSFOUTL                              #     READING ROUTINE.
001314: 05,2501           52006                           DXCH     Z                                     #  LOADS SFTEMP1, SFTEMP2.
001315: 05,2502           50130                           INDEX    MIXBR
001316: 05,2503           02503                           TC       +0
001317:
001318: 05,2504           02507                           TC       DSPSFNOR
001319: 05,2505           02721                           TC       SFRUTMIX
001320: 05,2506           02522                           TC       DECDSP3
001321:
001322: 05,2507           02713        DSPSFNOR           TC       SFRUTNOR
001323: 05,2510           02522                           TC       DECDSP3
001324:
001325: 05,2511     0270                                  EBANK=   DSPCOUNT
001326: 05,2511           02037 46000  GTSFOUTL           2CADR    GTSFOUT
001327:
001328:
001329: 05,2513           05224        DSPDCEND           TC       BANKCALL                              #  ALL SFOUT ROUTINES END HERE
001330: 05,2514           11117                           CADR     DSPDECWD
001331: 05,2515           10107                           CCS      DECOUNT
001332: 05,2516           02520                           TC       +2
001333: 05,2517           00126                           TC       ENTEXIT
001334: 05,2520           54107                           TS       DECOUNT
001335: 05,2521           02464                           TC       DSPDCPUT                              #  MORE TO DISPLAY
001336:
001337: 05,2522           50000        DECDSP3            INDEX    A
001338:
001339: 05,2523           32525                           CAF      SFOUTABR
001340: 05,2524           05246                           TC       BANKJUMP
001341:


001343: 05,2525           11315        SFOUTABR           CADR     DSPALARM                              #  ALARM IF DEC DISP WITH OCTAL ONLY NOUN
001344: 05,2526           12513                           CADR     DSPDCEND
001345: 05,2527           10573                           CADR     DEGOUTSF
001346: 05,2530           10660                           CADR     ARTOUTSF
001347: 05,2531           10665                           CADR     DP1OUTSF
001348: 05,2532           10672                           CADR     DP2OUTSF
001349: 05,2533           10601                           CADR     OPDEGOUT
001350: 05,2534           10674                           CADR     DP3OUTSF
001351:
001352: 05,2535                        ENDRTOUT           EQUALS
001353:
001354:                                                                                                  #          THE FOLLOWING IS ATYPICAL SF ROUTINE . IT USES MPAC. LEAVES RESU
001355:                                                                                                  #  LTS IN MPAC, MPAC+1. ENDS WITH TC DSPDCEND
001356:
001357: 04,2573                                           SETLOC   BLANKCON   +1
001358:
001359:                                                                                                  #     DEGOUTSF SCALES BY .18 THE LOW 14 BITS OF ANGLE , ADDING .18 FOR
001360:                                                                                                  #  NUMBERS IN THE NEGATIVE (AGC) RANGE.
001361:
001362: 04,2573           37761        DEGOUTSF           CAF      ZERO
001363: 04,2574           54146                           TS       MPAC       +2                         #  SET INDEX FOR FULL SCALE
001364: 04,2575           02632                           TC       FIXRANGE
001365: 04,2576           02600                           TC       +2                                    #  NO AUGMENT NEEDED (SFTEMP1 AND 2 ARE 0)
001366: 04,2577           02625                           TC       SETAUG                                #  SET AUGMENTER ACCORDING TO C(MPAC +2)
001367: 04,2600           02643                           TC       DEGCOM
001368:
001369:                                                                                                  #  OPDEGOUT SCALES BY .45 (THE RANGE IS 90 DEGREES) AND ADDS A 20 DEG BIAS.
001370:
001371: 04,2601           10144        OPDEGOUT           CCS      MPAC                                  #  RANGE IS 90 DEG
001372: 04,2602           56144                           XCH      MPAC                                  #  IF POS OR POS 0 THEN ADD BIAS AND
001373: 04,2603           02606                           TC       +3                                    #  CORRECT FOR POSSIBLE OVERFLOW
001374: 04,2604           02615                           TC       NEGOPT                                #  IF NEG NON ZERO
001375: 04,2605           67763                           AD       NEG1                                  #  IF NEG ZERO SUBTRACT 1
001376: 04,2606           62657                           AD       20BIAS
001377: 04,2607           54144        BIASCOM            TS       MPAC                                  #  TEST FOR OVERFLOW
001378: 04,2610           02613                           TC       +3                                    #  NO OVFLOW
001379: 04,2611           37737                           CAF      BIT15                                 #  IF OVFLOW
001380: 04,2612           26144                           ADS      MPAC
001381: 04,2613           37754                           CAF      TWO                                   #  SET MULTIPLIER TO .45
001382: 04,2614           02574                           TC       DEGOUTSF   +1
001383:
001384: 04,2615           56144        NEGOPT             XCH      MPAC                                  #  NEGATIVE CASE
001385: 04,2616           62657                           AD       20BIAS
001386: 04,2617           10000                           CCS      A
001387: 04,2620           02607                           TC       BIASCOM                               #  IF POS THEN SUBTRACT 1 BECAUSE OF 2SCOM
001388: 04,2621           04725                           TC       CCSHOLE
001389: 04,2622           67755                           AD       ONE                                   #  IF NEG RESTORE SUM
001390:


001392: 04,2623           40000                           COM                                            #  IF NEG 0 LEAVE NEG 0
001393: 04,2624           02607                           TC       BIASCOM
001394:
001395: 04,2625           00006        SETAUG             EXTEND                                         #  LOADS SFTEMP1 AND SFTEMP2 WITH THE
001396: 04,2626           50146                           INDEX    MPAC       +2                         #  DP AUGMENTER CONSTANT
001397: 04,2627           32654                           DCA      DEGTAB
001398: 04,2630           52114                           DXCH     SFTEMP1
001399: 04,2631           00002                           TC       Q
001400:
001401: 04,2632           10144        FIXRANGE           CCS      MPAC                                  #  IF MPAC IS + RETURN TO L+1
001402: 04,2633           00002                           TC       Q                                     #  IF MPAC IS - RETURN TO L+2 AFTER
001403: 04,2634           00002                           TC       Q                                     #  MASKING OUT THE SIGN BIT
001404: 04,2635           12636                           TCF      +1
001405: 04,2636           47737                           CS       BIT15
001406:
001407: 04,2637           70144                           MASK     MPAC
001408: 04,2640           54144                           TS       MPAC
001409: 04,2641           50002                           INDEX    Q
001410: 04,2642           00001                           TC       1
001411:
001412: 04,2643           00006        DEGCOM             EXTEND                                         #  LOADS MULTIPLIER , DOES SHORTMP, AND
001413: 04,2644           50146                           INDEX    MPAC       +2                         #  ADDS AUGMENTER.
001414: 04,2645           32654                           DCA      DEGTAB
001415: 04,2646           52145                           DXCH     MPAC                                  #  ADJUSTED ANGLE IN A
001416: 04,2647           07351                           TC       SHORTMP
001417: 04,2650           52114                           DXCH     SFTEMP1
001418: 04,2651           20145                           DAS      MPAC
001419: 04,2652           02663                           TC       SCOUTEND
001420:
001421:
001422: 04,2653           05605        DEGTAB             OCT      05605                                 #  HI PART OF     .18
001423: 04,2654           03656                           OCT      03656                                 #  LOW PART OF    .18
001424: 04,2655           16314                           OCT      16314                                 #  HI PART OF     .45
001425: 04,2656           31463                           OCT      31463                                 #  LO PART OF     .45
001426:
001427: 04,2657           16040        20BIAS             OCT      16040                                 #  20 DEG BIAS FOR OPTICS
001428:
001429: 04,2660           52114        ARTOUTSF           DXCH     SFTEMP1                               #  ASSUMES POINT AT LEFT OF DP SFCON
001430: 04,2661           52145                           DXCH     MPAC
001431: 04,2662           07351                           TC       SHORTMP
001432: 04,2663           05243        SCOUTEND           TC       POSTJUMP
001433: 04,2664           12513                           CADR     DSPDCEND
001434:
001435: 04,2665           02677        DP1OUTSF           TC       DPOUT                                 #  SCALES MPAC, MPAC +1 BY DP SCALE FACTOR
001436: 04,2666           56146                           XCH      MPAC       +2                         #  IN SFTEMP1, SFTEMP2.  THEN SCALE RESULT
001437: 04,2667           56145                           XCH      MPAC       +1                         #  BY B14.
001438: 04,2670           54144                           TS       MPAC
001439: 04,2671           02663                           TC       SCOUTEND


001441:
001442: 04,2672           02677        DP2OUTSF           TC       DPOUT                                 #  SCALES MPAC, MPAC +1 BY DP SCALE FACTOR
001443: 04,2673           02663                           TC       SCOUTEND
001444:
001445:
001446: 04,2674           02677        DP3OUTSF           TC       DPOUT                                 #  ASSUMES POINT BETWEEN BITS 7-8 OF HIGH
001447: 04,2675           03072                           TC       TPLEFT7                               #  PART OF SFCON. SHIFTS RESULTS LEFT 7.
001448: 04,2676           02663                           TC       SCOUTEND
001449:
001450:                                                                                                  #  DPOUT PICKS UP FRESH DATA FOR BOTH HI AND LO COMPONENTS.
001451:                                                                                                  #  THIS IS NEEDED FOR TIME DISPLAY.
001452:
001453: 04,2677           56002        DPOUT              XCH      Q
001454: 04,2700           54111                           TS       OVFIND
001455: 04,2701           50130                           INDEX    MIXBR
001456: 04,2702           02702                           TC       +0
001457: 04,2703           02720                           TC       DPOUTNOR
001458: 04,2704           50107                           INDEX    DECOUNT                               #  GET IDADDTAB ENTRY FOR COMPONENT K
001459:
001460: 04,2705           30140                           CA       IDAD1TEM                              #      OF NOUN.
001461: 04,2706           74552                           MASK     LOW11                                 #  E SUBK
001462: 04,2707           04512                           TC       SETEBANK                              #  SET EB, LEAVE EADRES IN A.
001463: 04,2710           00006        DPOUTCOM           EXTEND
001464: 04,2711           50000                           INDEX    A                                     #  MIXED         NORMAL
001465: 04,2712           30001                           DCA      0                                     #  C(ESUBK)      C(E)
001466: 04,2713           52145                           DXCH     MPAC                                  #  C((E SUBK)+1)      C(E+1)
001467: 04,2714           07320                           TC       TPAGREE
001468: 04,2715           07146                           TC       DMP
001469: 04,2716           00113                           ADRES    SFTEMP1
001470: 04,2717           00111                           TC       OVFIND
001471:
001472: 04,2720           30135        DPOUTNOR           CA       NOUNADD                               #  E
001473: 04,2721           02710                           TC       DPOUTCOM
001474:
001475:
001476:                                                                                                  #  THIS IS A SPECIAL PURPOSE VERB FOR DISPLAYING A DOUBLE PRECISION AGC
001477:                                                                                                  #  WORD AS 10 DECIMAL DIGITS ON THE AGC DISPLAY PANEL.  IT CAN BE USED WITH
001478:                                                                                                  #  ANY NOUN, EXCEPT MIXED NOUNS. IT DISPLAYS THE CONTENTS
001479:                                                                                                  #  OF THE REGISTER NOUNADD IS POINTING TO .  IF USED WITH NOUNS WHICH ARE
001480:                                                                                                  #  INHERENTLY NOT DP SUCH AS THE CDU COUNTERS THE DISPLAY WILL BE GARBAGE.
001481:                                                                                                  #  DISPLAY IS IN R1 AND R2 ONLY WITH THE SIGN IN R1.
001482:
001483:
001484: 04,2722           50130        DSPDPDEC           INDEX    MIXBR
001485: 04,2723           02723                           TC       +0
001486: 04,2724           02726                           TC       +2                                    #  NORMAL NOUN
001487: 04,2725           03315                           TC       DSPALARM
001488:


001490: 04,2726           00006                           EXTEND
001491: 04,2727           50135                           INDEX    NOUNADD
001492:
001493: 04,2730           30001                           DCA      0
001494: 04,2731           52145                           DXCH     MPAC
001495: 04,2732           34516                           CAF      R1D1
001496: 04,2733           54270                           TS       DSPCOUNT
001497: 04,2734           37761                           CAF      ZERO
001498: 04,2735           54146                           TS       MPAC       +2
001499: 04,2736           07320                           TC       TPAGREE
001500: 04,2737           03173                           TC       DSP2DEC
001501: 04,2740           00126        ENDDPDEC           TC       ENTEXIT
001502:


001504:                                                                                                  #           LOAD VERBS
001505:
001506:
001507: 05,2535                                           SETLOC   ENDRTOUT
001508:
001509: 05,2535           47754        ABCLOAD            CS       TWO
001510: 05,2536           02376                           TC       COMPTEST
001511:
001512: 05,2537           32673                           CAF      VBSP1LD
001513: 05,2540           02314                           TC       UPDATVB    -1
001514: 05,2541           02252                           TC       REQDATX
001515: 05,2542           32674                           CAF      VBSP2LD
001516: 05,2543           02314                           TC       UPDATVB    -1
001517: 05,2544           02254                           TC       REQDATY
001518: 05,2545           32675                           CAF      VBSP3LD
001519: 05,2546           02314                           TC       UPDATVB    -1
001520: 05,2547           02256                           TC       REQDATZ
001521:
001522:
001523: 05,2550           46276        PUTXYZ             CS       SIX                                   #  TEST THAT THE 3 DATA WORDS LOADED ARE
001524: 05,2551           02676                           TC       ALLDC/OC                              #  ALL DEC OR ALL OCT.
001525: 05,2552           00006                           EXTEND
001526: 05,2553           32076                           DCA      LODNNLOC                              #  SWITCH BANKS TO NOUN TABLE READING
001527: 05,2554           52006                           DXCH     Z                                     #  ROUTINE.
001528: 05,2555           37761                           CAF      ZERO                                  #  X COMP
001529: 05,2556           02762                           TC       PUTCOM
001530: 05,2557           50135                           INDEX    NOUNADD
001531: 05,2560           54000                           TS       0
001532: 05,2561           37755                           CAF      ONE                                   #  Y COMP
001533: 05,2562           02762                           TC       PUTCOM
001534:
001535: 05,2563           50135                           INDEX    NOUNADD
001536: 05,2564           54001                           TS       1
001537: 05,2565           37754                           CAF      TWO                                   #  Z COMP
001538: 05,2566           02762                           TC       PUTCOM
001539: 05,2567           50135                           INDEX    NOUNADD
001540: 05,2570           54002                           TS       2
001541: 05,2571           02663                           TC       LOADLV
001542:
001543: 05,2572           47755        ABLOAD             CS       ONE
001544: 05,2573           02376                           TC       COMPTEST
001545: 05,2574           32673                           CAF      VBSP1LD
001546: 05,2575           02314                           TC       UPDATVB    -1
001547: 05,2576           02252                           TC       REQDATX
001548: 05,2577           32674                           CAF      VBSP2LD
001549: 05,2600           02314                           TC       UPDATVB    -1
001550: 05,2601           02254                           TC       REQDATY
001551: 05,2602           47760        PUTXY              CS       FIVE                                  #  TEST THAT THE 2 DATA WORDS LOADED ARE
001552: 05,2603           02676                           TC       ALLDC/OC                              #  ALL DEC OR ALL OCT.
001553: 05,2604           00006                           EXTEND


001555: 05,2605           32076                           DCA      LODNNLOC                              #  SWITCH BANKS TO NOUN TABLE READING
001556: 05,2606           52006                           DXCH     Z                                     #  ROUTINE.
001557: 05,2607           37761                           CAF      ZERO                                  #  X COMP
001558: 05,2610           02762                           TC       PUTCOM
001559: 05,2611           50135                           INDEX    NOUNADD
001560: 05,2612           54000                           TS       0
001561: 05,2613           37755                           CAF      ONE                                   #  Y COMP
001562: 05,2614           02762                           TC       PUTCOM
001563: 05,2615           50135                           INDEX    NOUNADD
001564: 05,2616           54001                           TS       1
001565: 05,2617           02663                           TC       LOADLV
001566:
001567: 05,2620           02252        ALOAD              TC       REQDATX
001568: 05,2621           00006                           EXTEND
001569:
001570: 05,2622           32076                           DCA      LODNNLOC                              #  SWITCH BANKS TO NOUN TABLE READING
001571: 05,2623           52006                           DXCH     Z                                     #  ROUTINE.
001572: 05,2624           37761                           CAF      ZERO                                  #  X COMP
001573: 05,2625           02762                           TC       PUTCOM
001574: 05,2626           50135                           INDEX    NOUNADD
001575: 05,2627           54000                           TS       0
001576: 05,2630           02663                           TC       LOADLV
001577:
001578: 05,2631           47755        BLOAD              CS       ONE
001579: 05,2632           02376                           TC       COMPTEST
001580: 05,2633           37737                           CAF      BIT15                                 #  SET CLPASS FOR PASS0 ONLY
001581: 05,2634           54306                           TS       CLPASS
001582: 05,2635           02254                           TC       REQDATY
001583: 05,2636           00006                           EXTEND
001584: 05,2637           32076                           DCA      LODNNLOC                              #  SWITCH BANKS TO NOUN TABLE READING
001585: 05,2640           52006                           DXCH     Z                                     #  ROUTINE.
001586: 05,2641           37755                           CAF      ONE
001587: 05,2642           02762                           TC       PUTCOM
001588: 05,2643           50135                           INDEX    NOUNADD
001589: 05,2644           54001                           TS       1
001590: 05,2645           02663                           TC       LOADLV
001591:
001592: 05,2646           47754        CLOAD              CS       TWO
001593:
001594: 05,2647           02376                           TC       COMPTEST
001595: 05,2650           37737                           CAF      BIT15                                 #  SET CLPASS FOR PASS0 ONLY
001596: 05,2651           54306                           TS       CLPASS
001597: 05,2652           02256                           TC       REQDATZ
001598: 05,2653           00006                           EXTEND
001599: 05,2654           32076                           DCA      LODNNLOC                              #  SWITCH BANKS TO NOUN TABLE READING
001600: 05,2655           52006                           DXCH     Z                                     #  ROUTINE.
001601: 05,2656           37754                           CAF      TWO
001602: 05,2657           02762                           TC       PUTCOM
001603: 05,2660           50135                           INDEX    NOUNADD
001604: 05,2661           54002                           TS       2
001605: 05,2662           02663                           TC       LOADLV
001606:


001608: 05,2663           37761        LOADLV             CAF      ZERO
001609: 05,2664           54271                           TS       DECBRNCH
001610: 05,2665           47761                           CS       ZERO
001611: 05,2666           54305                           TS       LOADSTAT
001612: 05,2667           44554                           CS       VD1                                   #  TO BLOCK NUMERICAL CHARACTERS AND
001613: 05,2670           54270                           TS       DSPCOUNT                              #  CLEARS AFTER A COMPLETED LOAD
001614: 05,2671           05243                           TC       POSTJUMP                              #  AFTER COMPLETED LOAD, GO TO RECALTST
001615: 05,2672           11440                           CADR     RECALTST                              #  TO SEE IF THERE IS RECALL FROM ENDIDLE.
001616:
001617: 05,2673           00021        VBSP1LD            OCT      21                                    #  VB21 = ALOAD
001618: 05,2674           00022        VBSP2LD            OCT      22                                    #  VB22 = BLOAD
001619: 05,2675           00023        VBSP3LD            OCT      23                                    #  VB23 = CLOAD
001620:
001621: 05,2676           54107        ALLDC/OC           TS       DECOUNT                               #  TESTS THAT DATA WORDS LOADED ARE EITHER
001622: 05,2677           40271                           CS       DECBRNCH                              #  ALL DEC OR ALL OCT. ALARMS IF NOT.
001623: 05,2700           54021                           TS       SR
001624: 05,2701           40021                           CS       SR
001625: 05,2702           40021                           CS       SR                                    #  SHIFTED RIGHT 2
001626:
001627: 05,2703           10000                           CCS      A                                     #  DEC COMP BITS IN LOW 3
001628: 05,2704           12706                           TCF      +2                                    #  SOME ONES IN LOW 3
001629: 05,2705           00002                           TC       Q                                     #  ALL ZEROS. ALL OCTAL.  OK
001630: 05,2706           60107                           AD       DECOUNT                               #  DEC COMP = 7 FOR 3COMP, =6 FOR 2COMP
001631: 05,2707           00006                           EXTEND                                         #  (BUT IT HAS BEEN DECREMENTED BY CCS)
001632: 05,2710           12712                           BZF      +2                                    #  MUST MATCH 6 FOR 3COMP, 5 FOR 2COMP.
001633: 05,2711           02324                           TC       GODSPALM
001634: 05,2712           00002        GOQ                TC       Q                                     #  ALL REQUIRED ARE DEC.  OK
001635:
001636: 05,2713           56002        SFRUTNOR           XCH      Q                                     #  GETS SF ROUTINE NUMBER FOR NORMAL CASE
001637: 05,2714           54104                           TS       EXITEM                                #  CANT USE L FOR RETURN. TSTFORDP USES L.
001638: 05,2715           34546                           CAF      MID5
001639: 05,2716           70137                           MASK     NNTYPTEM
001640: 05,2717           04521                           TC       RIGHT5
001641: 05,2720           00104                           TC       EXITEM                                #  SF ROUTINE NUMBER IN A
001642:
001643: 05,2721           56002        SFRUTMIX           XCH      Q                                     #  GETS SF ROUTINE NUMBER FOR MIXED CASE
001644: 05,2722           54104                           TS       EXITEM
001645: 05,2723           50107                           INDEX    DECOUNT
001646: 05,2724           32753                           CAF      DISPLACE                              #  PUT TC GOQ, TC RIGHT5, OR TC LEFT5 IN L
001647: 05,2725           54001                           TS       L
001648:
001649: 05,2726           50107                           INDEX    DECOUNT
001650: 05,2727           34545                           CAF      LOW5                                  #  LOW5, MID5, OR HI5 IN A
001651: 05,2730           70143                           MASK     RUTMXTEM                              #  GET HI5, MID5, OR LOW5 OF RUTMXTAB ENTRY
001652: 05,2731           50001                           INDEX    L
001653: 05,2732           00000                           TC       0
001654:                                                                                                  #  DO TC GOQ(DECOUNT=0), DO TC RIGHT5(DECOUNT=1), DO TC LEFT5(DECOUNT=2).
001655: 05,2733           00104        SFRET1             TC       EXITEM                                #  SF ROUTINE NUMBER IN A
001656:


001658: 05,2734           56002        SFCONUM            XCH      Q                                     #  GETS 2X( SF CONSTANT NUMBER)
001659: 05,2735           54104                           TS       EXITEM
001660:
001661: 05,2736           50130                           INDEX    MIXBR
001662: 05,2737           02737                           TC       +0
001663: 05,2740           02756                           TC       CONUMNOR                              #  NORMAL NOUN
001664: 05,2741           50107                           INDEX    DECOUNT                               #  MIXED NOUN
001665: 05,2742           32753                           CAF      DISPLACE
001666: 05,2743           54001                           TS       L                                     #  PUT TC GOQ, TC RIGHT5, OR TC LEFT5 IN L
001667: 05,2744           50107                           INDEX    DECOUNT
001668: 05,2745           34545                           CAF      LOW5
001669: 05,2746           70137                           MASK     NNTYPTEM
001670: 05,2747           50001                           INDEX    L
001671: 05,2750           00000                           TC       0
001672:                                                                                                  #  DO TC GOQ(DECOUNT=0), DO TC RIGHT5(DECOUNT=1), DO TC LEFT5(DECOUNT=2).
001673: 05,2751           60000        SFRET              DOUBLE                                         #  2X(SF CONSTANT NUMBER ) IN A
001674: 05,2752           00104                           TC       EXITEM
001675:
001676: 05,2753           02712        DISPLACE           TC       GOQ
001677: 05,2754           04521                           TC       RIGHT5
001678: 05,2755           04530                           TC       LEFT5
001679:
001680: 05,2756           34545        CONUMNOR           CAF      LOW5                                  #  NORMAL NOUN ALWAYS GETS LOW 5 OF
001681: 05,2757           70137                           MASK     NNTYPTEM                              #  NNTYPTAB FOR SF CONUM.
001682: 05,2760           60000                           DOUBLE
001683: 05,2761           00104                           TC       EXITEM                                #  2X( SF CONSTANT NUMBER) IN A
001684:
001685:
001686: 05,2762           54107        PUTCOM             TS       DECOUNT
001687: 05,2763           56002                           XCH      Q
001688: 05,2764           54105                           TS       DECRET
001689: 05,2765           37761                           CAF      ZERO
001690: 05,2766           54111                           TS       OVFIND
001691: 05,2767           50107                           INDEX    DECOUNT
001692: 05,2770           56277                           XCH      XREGLP
001693: 05,2771           54145                           TS       MPAC       +1
001694: 05,2772           50107                           INDEX    DECOUNT
001695: 05,2773           56274                           XCH      XREG
001696: 05,2774           54144                           TS       MPAC
001697: 05,2775           50130                           INDEX    MIXBR
001698: 05,2776           02776                           TC       +0
001699: 05,2777           03023                           TC       PUTNORM                               #  NORMAL NOUN
001700:                                                                                                  #  IF MIXNOUN, PLACE ADDRESS FOR COMPONENT K INTO NOUNADD, SET EBANK BITS.
001701: 05,3000           50107                           INDEX    DECOUNT                               #  GET IDADDTAB ENTRY FOR COMPONENT K
001702: 05,3001           30140                           CA       IDAD1TEM                              #          OF NOUN.
001703: 05,3002           74552                           MASK     LOW11                                 #  (ECADR)SUBK FOR CURRENT COMP OF NOUN
001704: 05,3003           04502                           TC       SETNCADR                              #  ECADR INTO NOUNCADR. SETS EB, NOUNADD.
001705: 05,3004           00006                           EXTEND                                         #  C(NOUNADD) IN A UPON RETURN
001706: 05,3005           60107                           SU       DECOUNT                               #  PLACE (ESUBK)-K INTO NOUNADD
001707:
001708: 05,3006           54135                           TS       NOUNADD


001710: 05,3007           10271                           CCS      DECBRNCH
001711: 05,3010           03051                           TC       PUTDECSF                              #  +  DEC
001712: 05,3011           02721                           TC       SFRUTMIX                              #  +0  OCTAL
001713: 05,3012           02236                           TC       DPTEST
001714: 05,3013           03040                           TC       PUTCOM2                               #  NO DP
001715:                                                                                                  #  TEST FOR DP SCALE FOR OCT LOAD. IF SO,
001716:                                                                                                  #  +0 INTO MAJOR PART. SET NOUNADD FOR
001717:                                                                                                  #  LOADING OCTAL WORD INTO MINOR PART.
001718:
001719: 05,3014           24135        PUTDPCOM           INCR     NOUNADD                               #  DP  (ESUBK)-K+1  OR  E+1
001720: 05,3015           30135                           CA       NOUNADD                               #  NOUNADD NOW SET FOR MINOR PART
001721: 05,3016           26107                           ADS      DECOUNT                               #  (ESUBK)+1  OR  E+1  INTO DECOUNT
001722: 05,3017           37761                           CAF      ZERO                                  #  NOUNADD SET FOR MINOR PART
001723: 05,3020           50107                           INDEX    DECOUNT
001724: 05,3021           53777                           TS       0          -1                         #  ZERO MAJOR PART(ESUBK OR E)
001725: 05,3022           03040                           TC       PUTCOM2
001726:
001727: 05,3023           04510        PUTNORM            TC       SETNADD                               #  ECADR FROM NOUNCADR. SETS EB, NOUNADD.
001728: 05,3024           10271                           CCS      DECBRNCH
001729: 05,3025           03051                           TC       PUTDECSF                              #  +  DEC
001730: 05,3026           02713                           TC       SFRUTNOR                              #  +0  OCTAL
001731: 05,3027           02236                           TC       DPTEST
001732: 05,3030           03034                           TC       PUTCOM2    -4                         #  NO DP
001733: 05,3031           37761                           CAF      ZERO                                  #  DP
001734: 05,3032           54107                           TS       DECOUNT
001735: 05,3033           03014                           TC       PUTDPCOM
001736:
001737: 05,3034           30136                           CA       NNADTEM
001738: 05,3035           67755                           AD       ONE                                   #  IF NNADTEM = -1, CHANNEL TO BE SPECIFIED
001739: 05,3036           00006                           EXTEND
001740: 05,3037           13044                           BZF      CHANLOAD
001741: 05,3040           56144        PUTCOM2            XCH      MPAC
001742:
001743: 05,3041           00105                           TC       DECRET
001744:
001745: 05,3042     0270                                  EBANK=   DSPCOUNT
001746: 05,3042           02045 46000  GTSFINLC           2CADR    GTSFIN
001747:
001748:
001749: 05,3044           56144        CHANLOAD           XCH      MPAC
001750: 05,3045           00006                           EXTEND
001751: 05,3046           50310                           INDEX    NOUNCADR
001752: 05,3047           01000                           WRITE    0
001753: 05,3050           02663                           TC       LOADLV
001754:
001755:                                                                                                  #  PUTDECSF FINDS MIXBR AND DECOUNT STILL SET FROM PUTCOM
001756:
001757: 05,3051           02734        PUTDECSF           TC       SFCONUM                               #  2X(SF CON NUMB) IN A
001758: 05,3052           54113                           TS       SFTEMP1


001760: 05,3053           00006                           EXTEND                                         #  SWITCH BANKS TO SF CONSTANT TABLE
001761: 05,3054           33043                           DCA      GTSFINLC                              #  READING ROUTINE.
001762: 05,3055           52006                           DXCH     Z                                     #  LOADS SFTEMP1, SFTEMP2.
001763: 05,3056           50130                           INDEX    MIXBR
001764: 05,3057           03057                           TC       +0
001765: 05,3060           03063                           TC       PUTSFNOR
001766: 05,3061           02721                           TC       SFRUTMIX
001767: 05,3062           03064                           TC       PUTDCSF2
001768: 05,3063           02713        PUTSFNOR           TC       SFRUTNOR
001769:
001770: 05,3064           50000        PUTDCSF2           INDEX    A
001771: 05,3065           33067                           CAF      SFINTABR
001772: 05,3066           05246                           TC       BANKJUMP                              #  SWITCH BANKS FOR EXPANSHION ROOM
001773: 05,3067           11315        SFINTABR           CADR     DSPALARM                              #  ALARM IF DEC LOAD WITH OCTAL ONLY NOUN
001774:
001775: 05,3070           11021                           CADR     BINROUND
001776: 05,3071           10741                           CADR     DEGINSF
001777: 05,3072           11011                           CADR     ARTHINSF
001778: 05,3073           11041                           CADR     DPINSF
001779: 05,3074           11066                           CADR     DPINSF2
001780: 05,3075           11024                           CADR     OPTDEGIN
001781: 05,3076           11041                           CADR     DPINSF                                #  SAME AS ARITHDP1
001782: 05,3077                        ENDRUTIN           EQUALS
001783:
001784:
001785:                                                                                                  #  SCALE FACTORS FOR THOSE ROUTINES NEEDING THEM ARE AVAILABLE IN SFTEMP1.
001786:                                                                                                  #  ALL SFIN ROUTINES USE MPAC MPAC+1. LEAVE RESULT IN A. END WITH TC DECRET
001787:
001788: 04,2741                                           SETLOC   ENDDPDEC   +1
001789:
001790:                                                                                                  #  DEGINSF APPLIES 1000/180 = 5.55555(10) = 5.43434(8)
001791:
001792: 04,2741           07146        DEGINSF            TC       DMP                                   #  SF ROUTINE FOR DEC DEGREES
001793: 04,2742           03004                           ADRES    DEGCON1                               #  MULT BY 5.5  5(10)X2EXP-3
001794: 04,2743           10145                           CCS      MPAC       +1                         #  THIS ROUNDS OFF MPAC+1 BEFORE SHIFT
001795:
001796: 04,2744           37743                           CAF      BIT11                                 #  LEFT 3, AND CAUSES 360.00 TO OF/UF
001797: 04,2745           02747                           TC       +2                                    #  WHEN SHIFTED LEFT AND ALARM.
001798: 04,2746           47743                           CS       BIT11
001799: 04,2747           60145                           AD       MPAC       +1
001800: 04,2750           03104                           TC       2ROUND     +2
001801: 04,2751           04600                           TC       TPSL1                                 #  LEFT 1
001802: 04,2752           04600        DEGINSF2           TC       TPSL1                                 #  LEFT 2
001803: 04,2753           03113                           TC       TESTOFUF
001804: 04,2754           04600                           TC       TPSL1                                 #  RETURNS IF NO OF/UF (LEFT3)
001805: 04,2755           10144                           CCS      MPAC
001806: 04,2756           02762                           TC       SIGNFIX                               #  IF +, GO TO SIGNFIX
001807: 04,2757           02762                           TC       SIGNFIX                               #  IF +0, GO TO SIGNFIX
001808: 04,2760           40000                           COM                                            #  IF - , USE -MAGNITUDE +1


001810: 04,2761           54144                           TS       MPAC                                  #  IF -0, USE +0
001811: 04,2762           10111        SIGNFIX            CCS      OVFIND
001812: 04,2763           03000                           TC       SGNTO1                                #  IF OVERFLOW
001813: 04,2764           02774                           TC       ENDSCALE                              #  NO OVERFLOW/UNDERFLOW
001814: 04,2765           10144                           CCS      MPAC                                  #  IF UF FORCE SIGN TO 0 EXCEPT -180
001815: 04,2766           04725                           TC       CCSHOLE
001816: 04,2767           02776                           TC       NEG180
001817: 04,2770           02771                           TC       +1
001818: 04,2771           56144                           XCH      MPAC
001819: 04,2772           77735                           MASK     POSMAX
001820: 04,2773           54144                           TS       MPAC
001821: 04,2774           05243        ENDSCALE           TC       POSTJUMP
001822: 04,2775           13040                           CADR     PUTCOM2
001823:
001824: 04,2776           47735        NEG180             CS       POSMAX
001825: 04,2777           02773                           TC       ENDSCALE   -1
001826:
001827: 04,3000           40144        SGNTO1             CS       MPAC                                  #  IF OF FORCE SIGN TO 1
001828: 04,3001           77735                           MASK     POSMAX
001829:
001830: 04,3002           40000                           CS       A
001831: 04,3003           02773                           TC       ENDSCALE   -1
001832:
001833: 04,3004           26161 30707  DEGCON1            2DEC     5.555555555 B-3
001834:
001835: 04,3006           21616 07071  DEGCON2            2DEC     2.222222222 B-2
001836:
001837: 04,3010           71527        NEG.2              OCT      -06250                                #  = .197753906  I.E. THE BIAS SCALED
001838:
001839: 04,3011           07146        ARTHINSF           TC       DMP                                   #  SCALES MPAC, +1 BY SFTEMP1, SFTEMP2.
001840: 04,3012           00113                           ADRES    SFTEMP1                               #  ASSUMES POINT BETWEEN HI AND LO PARTS
001841: 04,3013           56146                           XCH      MPAC       +2                         #  OF SFCON. SHIFTS RESULTS LEFT BY 14.
001842: 04,3014           56145                           XCH      MPAC       +1                         #  (BY TAKING RESULTS FROM MPAC+1, MPAC+2)
001843: 04,3015           56144                           XCH      MPAC
001844: 04,3016           00006                           EXTEND
001845: 04,3017           13021                           BZF      BINROUND
001846: 04,3020           03315                           TC       DSPALARM                              #  TOO LARGE A LOAD
001847: 04,3021           03102        BINROUND           TC       2ROUND
001848: 04,3022           03113                           TC       TESTOFUF
001849: 04,3023           02774                           TC       ENDSCALE                              #  RETURNS IF NO OF/UF
001850:
001851:
001852: 04,3024           10144        OPTDEGIN           CCS      MPAC                                  #  OPTICS SCALING ROUTINE
001853: 04,3025           03031                           TC       +4
001854: 04,3026           03031                           TC       +3
001855: 04,3027           03315                           TC       DSPALARM                              #  REJECT NEGATIVE INPUT
001856: 04,3030           03315                           TC       DSPALARM                              #         DITTO
001857: 04,3031           33010        OPDEGIN2           CAF      NEG.2                                 #  RANGE IS 90 DEG
001858: 04,3032           26144                           ADS      MPAC                                  #  SUBTRACT BIAS
001859: 04,3033           07146                           TC       DMP                                   #  MULT BY 100 / 45 B-2
001860:


001862: 04,3034           03006                           ADRES    DEGCON2
001863: 04,3035           37742                           CAF      BIT12                                 #  ROUND AS IN DEGINSF
001864:
001865: 04,3036           60145                           AD       MPAC       +1
001866: 04,3037           03104                           TC       2ROUND     +2
001867: 04,3040           02752                           TC       DEGINSF2
001868:
001869: 04,3041           07146        DPINSF             TC       DMP                                   #  SCALES MPAC, MPAC +1 BY SFTEMP1,
001870: 04,3042           00113                           ADRES    SFTEMP1                               #  SFTEMP2.  STORES LOW PART OF RESULT
001871: 04,3043           56146                           XCH      MPAC       +2                         #  IN (E SUBK) +1 OR E+1
001872: 04,3044           60000                           DOUBLE
001873: 04,3045           54146                           TS       MPAC       +2
001874: 04,3046           37761                           CAF      ZERO
001875: 04,3047           60145                           AD       MPAC       +1
001876: 04,3050           03104                           TC       2ROUND     +2
001877: 04,3051           03113                           TC       TESTOFUF
001878: 04,3052           50130                           INDEX    MIXBR                                 #  RETURNS IF NO OF/UF
001879: 04,3053           03053                           TC       +0
001880: 04,3054           03064                           TC       DPINORM
001881: 04,3055           30107                           CA       DECOUNT                               #  MIXEDNOUN
001882: 04,3056           60135        DPINCOM            AD       NOUNADD                               #      MIXED               NORMAL
001883: 04,3057           54002                           TS       Q                                     #    E SUBK            E
001884: 04,3060           56145                           XCH      MPAC       +1
001885: 04,3061           50002                           INDEX    Q
001886: 04,3062           54001                           TS       1                                     #  PLACE LOW PART IN
001887: 04,3063           02774                           TC       ENDSCALE                              #  (E SUBK) +1    MIXED
001888:
001889: 04,3064           37761        DPINORM            CAF      ZERO                                  #  E +1         NORMAL
001890: 04,3065           03056                           TC       DPINCOM
001891:
001892:
001893: 04,3066           07146        DPINSF2            TC       DMP                                   #  ASSUMES POINT BETWEEN BITS 7-8 OF HIGH
001894: 04,3067           00113                           ADRES    SFTEMP1                               #  PART OF SF CONST. DPINSF2 SHIFTS RESULTS
001895: 04,3070           03072                           TC       TPLEFT7                               #  LEFT BY 7, ROUNDS MPAC+2 INTO MPAC+1.
001896: 04,3071           03043                           TC       DPINSF     +2
001897:
001898:
001899: 04,3072           56002        TPLEFT7            XCH      Q                                     #  OPERATES ON MPAC, MPAC+1, MPAC+2
001900: 04,3073           54114                           TS       SFTEMP2                               #  CANT USE L FOR RETURN. TPSL1 USES L.
001901: 04,3074           36276                           CAF      SIX                                   #  LEFT BY 7
001902: 04,3075           54113        LEFT7COM           TS       SFTEMP1
001903: 04,3076           04600                           TC       TPSL1
001904: 04,3077           10113                           CCS      SFTEMP1
001905: 04,3100           03075                           TC       LEFT7COM
001906: 04,3101           00114                           TC       SFTEMP2
001907:
001908: 04,3102           56145        2ROUND             XCH      MPAC       +1
001909: 04,3103           60000                           DOUBLE


001911: 04,3104           54145                           TS       MPAC       +1
001912: 04,3105           00002                           TC       Q                                     #  IF MPAC+1 DOES NOT OF/UF
001913: 04,3106           60144                           AD       MPAC
001914: 04,3107           54144                           TS       MPAC
001915: 04,3110           00002                           TC       Q                                     #  IF MPAC DOES NOT OF/UF
001916: 04,3111           54111                           TS       OVFIND
001917: 04,3112           00002        2RNDEND            TC       Q
001918:
001919: 04,3113           10111        TESTOFUF           CCS      OVFIND                                #  RETURNS IF NO OF/UF
001920: 04,3114           03315                           TC       DSPALARM                              #  OF
001921: 04,3115           00002                           TC       Q
001922: 04,3116           03315                           TC       DSPALARM                              #  UF
001923:


001925:                                                                                                  #  MONITOR ALLOWS OTHER KEYBOARD ACTIVITY. IT IS ENDED BY VERB TERMINATE,
001926:                                                                                                  #  ANY NVSUB CALL THAT PASSES THE DSPLOCK, OR ANOTHER MONITOR.
001927:
001928:                                                                                                  #  MONITOR ACTION IS SUSPENDED, BUT NOT ENDED, BY ANY KEYBOARD ACTION,
001929:                                                                                                  #  EXCEPT ERROR LIGHT RESET. IT BEGINS AGAIN WHEN KEY RELEASE IS PERFORMED.
001930:                                                                                                  #  MONITOR SAVES THE NOUN AND APPROPRIATE DISPLAY VERB IN MONSAVE. IT SAVES
001931:                                                                                                  #  NOUNCADR IN MONSAVE1, IF NOUN = MACHINE CADR TO BE SPECIFIED. BIT 15 OF
001932:                                                                                                  #  MONSAVE1 IS THE KILL MONITOR SIGNAL (KILLER BIT).
001933:
001934:                                                                                                  #  MONSAVE INDICATES IF MONITOR IS ON(+=ON, +0=OFF)
001935:                                                                                                  #  IF MONSAVE IS +, MONITOR ENTERS NO REQUEST, BUT TURNS KILLER BIT OFF.
001936:                                                                                                  #  IF MONSAVE IS +0, MONITOR ENTERS REQUEST AND TURNS KILLER BIT OFF.
001937:
001938:                                                                                                  #  NVSUB AND VB=TERMINATE TURN KILL MONITOR BIT ON.
001939:
001940:                                                                                                  #  IF KILLER BIT IS ON, MONREQ ENTERS NO FURTHER REQUESTS, ZEROS MONSAVE
001941:                                                                                                  #  AND MONSAVE1 (TURNING OFF KILLER BIT).
001942:
001943:
001944:                                                                                                  #  MONITOR DOSENT TEST FOR MATBS SINCE NVSUB CAN HANDLE INTERNAL MATBS NOW
001945: 05,3077                                           SETLOC   ENDRUTIN
001946:
001947: 05,3077           47737        MONITOR            CS       BIT15
001948: 05,3100           70310                           MASK     NOUNCADR
001949: 05,3101           54145        MONIT1             TS       MPAC       +1                         #  TEMP STORAGE
001950: 05,3102           33401                           CAF      LOW6
001951: 05,3103           70272                           MASK     VERBREG
001952: 05,3104           04530                           TC       LEFT5
001953: 05,3105           54022                           TS       CYL
001954: 05,3106           56022                           XCH      CYL
001955: 05,3107           60273                           AD       NOUNREG
001956: 05,3110           54144                           TS       MPAC                                  #  TEMP STORAGE
001957: 05,3111           40330                           CS       GRABLOCK                              #  NEITHER CASE SEARCHES LIST.
001958: 05,3112           67754                           AD       TWO
001959: 05,3113           10000                           CCS      A
001960: 05,3114           04700                           TC       RELDSP1                               #  GRABLOCK=0,1. +0 INTO DSPLOCK AND
001961: 05,3115           03121                           TC       +4                                    #  TURN OFF KEY RLSE LIGHT.
001962:
001963: 05,3116           04725                           TC       CCSHOLE
001964: 05,3117           37761                           CAF      ZERO                                  #  GRABLOCK=2. +0 INTO DSPLOCK AND
001965: 05,3120           54303                           TS       DSPLOCK                               #  LEAVE KEY RLSE LIGHT ALONE
001966: 05,3121           00004                           INHINT
001967: 05,3122           10311                           CCS      MONSAVE
001968: 05,3123           03130                           TC       +5                                    #  IF MONSAVE WAS +, NO REQUEST
001969: 05,3124           37755                           CAF      ONE                                   #  IF MONSAVE WAS 0, REQUEST MONREQ
001970: 05,3125           05701                           TC       WAITLIST
001971: 05,3126     0270                                  EBANK=   DSPCOUNT
001972: 05,3126           03134 12000                     2CADR    MONREQ
001973:
001974: 05,3130           52145                           DXCH     MPAC                                  #  PLACE MONITOR VERB AND NOUN INTO MONSAVE


001976: 05,3131           52312                           DXCH     MONSAVE                               #  ZERO THE KILL MONITOR BIT
001977: 05,3132           00003                           RELINT
001978: 05,3133           00126                           TC       ENTRET
001979:
001980:
001981: 05,3134           04574        MONREQ             TC       LODSAMPT                              #  CALLED BY WAITLIST
001982: 05,3135           10312                           CCS      MONSAVE1                              #  TIME IS SNATCHED IN RUPT FOR NOUN 65
001983: 05,3136           03142                           TC       +4                                    #  IF KILLER BIT = 0, ENTER REQUESTS
001984: 05,3137           03142                           TC       +3                                    #  IF KILLER BIT = 0, ENTER REQUESTS
001985: 05,3140           03153                           TC       KILLMON                               #  IF KILLER BIT = 1, NO REQUESTS
001986: 05,3141           03153                           TC       KILLMON                               #  IF KILLER BIT = 1, NO REQUESTS
001987: 05,3142           33157                           CAF      MONDEL
001988: 05,3143           05701                           TC       WAITLIST                              #  ENTER WAITLIST REQUEST FOR MONREQ
001989: 05,3144     0270                                  EBANK=   DSPCOUNT
001990: 05,3144           03134 12000                     2CADR    MONREQ
001991:
001992: 05,3146           35226                           CAF      CHRPRIO
001993: 05,3147           05523                           TC       NOVAC                                 #  ENTER EXEC REQUEST FOR MONDO
001994:
001995: 05,3150     0270                                  EBANK=   DSPCOUNT
001996: 05,3150           03160 12000                     2CADR    MONDO
001997:
001998: 05,3152           05745                           TC       TASKOVER
001999:
002000: 05,3153           37761        KILLMON            CAF      ZERO                                  #  ZERO MONSAVE AND TURN KILLER BIT OFF
002001: 05,3154           54311                           TS       MONSAVE
002002: 05,3155           54312                           TS       MONSAVE1                              #  TURN OFF KILL MONITOR BIT.
002003: 05,3156           05745                           TC       TASKOVER
002004:
002005:
002006: 05,3157           00144        MONDEL             OCT      144                                   #  FOR 1 SEC MONITOR INTERVALS
002007:
002008:
002009: 05,3160           10312        MONDO              CCS      MONSAVE1                              #  CALLED BY EXEC
002010: 05,3161           03165                           TC       +4                                    #  IF KILLER BIT = 0, CONTINUE
002011: 05,3162           03165                           TC       +3                                    #  IF KILLER BIT = 0, CONTINUE
002012: 05,3163           05605                           TC       ENDOFJOB                              #  IN CASE TERMINATE CAME SINCE LAST MONREQ
002013: 05,3164           05605                           TC       ENDOFJOB                              #  IN CASE TERMINATE CAME SINCE LAST MONREQ
002014: 05,3165           10303                           CCS      DSPLOCK
002015: 05,3166           03212                           TC       MONBUSY                               #  NVSUB IS BUSY
002016:
002017: 05,3167           33401                           CAF      LOW6                                  #  NVSUB IS AVAILABLE
002018: 05,3170           70311                           MASK     MONSAVE
002019: 05,3171           54113                           TS       NVTEMP
002020: 05,3172           04447                           TC       NVSUBMON                              #  PLACE NOUN INTO NOUNREG AND DISPLAY IT
002021: 05,3173           05605                           TC       ENDOFJOB                              #  IN CASE OF ALARM DURING DISPLAY
002022: 05,3174           33210                           CAF      MONMASK
002023: 05,3175           70311                           MASK     MONSAVE                               #  CHANGE MONITOR VERB TO DISPLAY VERB
002024: 05,3176           04521                           TC       RIGHT5


002026: 05,3177           54020                           TS       CYR
002027: 05,3200           56020                           XCH      CYR
002028:
002029: 05,3201           54272                           TS       VERBREG
002030: 05,3202           33211                           CAF      MONBACK                               #  SET RETURN TO PASTEVB AFTER DATA DISPLAY
002031: 05,3203           54126                           TS       ENTRET
002032: 05,3204           47737                           CS       BIT15
002033: 05,3205           70312                           MASK     MONSAVE1                              #  PUT ECADR INTO MPAC +2. INTMCTBS WILL
002034: 05,3206           54146                           TS       MPAC       +2                         #  DISPLAY IT AND SET NOUNCADR, NOUNADD,
002035: 05,3207           02037        ENDMONDO           TC       TESTNN                                #  EBANK.
002036:
002037:    4424                                           SETLOC   ENDRMODF
002038:
002039:    4424           34432        PASTEVB            CAF      MIDSIX
002040:    4425           70311                           MASK     MONSAVE
002041:    4426           54113                           TS       NVTEMP                                #  PLACE MONITOR VERB INTO VERBREG AND
002042:    4427           04447                           TC       NVSUBMON                              #       DISPLAY IT.
002043:    4430           04431                           TC       +1                                    #  IN CASE OF ALARM DURING DISPLAY
002044:    4431           05605        ENDPASTE           TC       ENDOFJOB
002045:
002046:    4432           07700        MIDSIX             OCT      07700
002047:
002048: 05,3210                                           SETLOC   ENDMONDO   +1
002049: 05,3210           00700        MONMASK            OCT      700
002050: 05,3211           04424        MONBACK            ADRES    PASTEVB
002051:
002052: 05,3212           04570        MONBUSY            TC       RELDSPON                              #  TURN KEY RELEASE LIGHT
002053: 05,3213           05605                           TC       ENDOFJOB
002054:
002055:
002056:                                                                                                  #  DSPFMEM IS USED TO DISPLAY (IN OCTAL) ANY FIXED REGISTER.
002057:                                                                                                  #  IT IS USED WITH NOUN = MACHINE CADR TO BE SPECIFIED. THE FCADR OF THE
002058:                                                                                                  #  DESIRED LOCATION IS THEN PUNCHED IN. IT HANDLES F/F ( FCADR 4000-7777)
002059:
002060: 05,3214           34516        DSPFMEM            CAF      R1D1                                  #  IF F/F, DATACALL USES BANK 02 OR 03.
002061: 05,3215           54270                           TS       DSPCOUNT
002062: 05,3216           30310                           CA       NOUNCADR                              #  ORIGINAL FCADR LOADED STILL IN NOUNCADR.
002063: 05,3217           05257                           TC       DATACALL
002064: 05,3220           03222                           TC       DSPOCTWD
002065: 05,3221           05605                           TC       ENDOFJOB
002066:


002068:                                                                                                  #   DSPDECWD CONVERTS C(MPAC) AND C(MPAC +1)TO A SIGN AND 5 CHAR DECIMAL
002069:                                                                                                  #  STARTING IN LOC SPECIFIED IN DSPCOUNT
002070:
002071: 04,3117                                           SETLOC   TESTOFUF   +4
002072:
002073: 04,3117           56002        DSPDECWD           XCH      Q                                     #  USES SHORTMP THROUGHOUT
002074: 04,3120           54105                           TS       WDRET                                 #  CANT USE L FOR RETURN.+ON USES L.
002075: 04,3121           10144                           CCS      MPAC
002076:
002077: 04,3122           03131                           TC       +7
002078: 04,3123           03131                           TC       +6
002079: 04,3124           67755                           AD       ONE
002080: 04,3125           54144                           TS       MPAC
002081: 04,3126           02321                           TC       -ON
002082: 04,3127           40145                           CS       MPAC       +1
002083: 04,3130           03133                           TC       +3
002084: 04,3131           02301                           TC       +ON
002085: 04,3132           56145                           XCH      MPAC       +1
002086: 04,3133           63172                           AD       DECROUND
002087: 04,3134           54145                           TS       MPAC       +1
002088: 04,3135           37761                           CAF      ZERO
002089: 04,3136           60144                           AD       MPAC
002090: 04,3137           54144                           TS       MPAC
002091: 04,3140           03144                           TC       +4
002092: 04,3141           37735                           CAF      POSMAX
002093: 04,3142           54144                           TS       MPAC
002094: 04,3143           54145                           TS       MPAC       +1
002095: 04,3144           37753                           CAF      FOUR
002096: 04,3145           54127        DSPDCWD1           TS       WDCNT
002097: 04,3146           34557                           CAF      BINCON
002098: 04,3147           07351                           TC       SHORTMP
002099: 04,3150           50144        TRACE1             INDEX    MPAC
002100:
002101: 04,3151           34267                           CAF      RELTAB
002102: 04,3152           74545                           MASK     LOW5
002103: 04,3153           54114                           TS       CODE
002104: 04,3154           37761                           CAF      ZERO
002105: 04,3155           56146                           XCH      MPAC       +2
002106: 04,3156           56145                           XCH      MPAC       +1
002107: 04,3157           54144                           TS       MPAC
002108: 04,3160           56270                           XCH      DSPCOUNT
002109: 04,3161           54133        TRACE1S            TS       COUNT
002110: 04,3162           10000                           CCS      A                                     #  DECREMENT DSPCOUNT EXCEPT AT +0
002111: 04,3163           54270                           TS       DSPCOUNT
002112: 04,3164           03217                           TC       DSPIN
002113: 04,3165           10127                           CCS      WDCNT
002114: 04,3166           03145                           TC       DSPDCWD1
002115: 04,3167           44554                           CS       VD1
002116: 04,3170           54270                           TS       DSPCOUNT
002117: 04,3171           00105                           TC       WDRET
002118:
002119: 04,3172           02476        DECROUND           OCT      02476
002120:


002122:                                                                                                  #  DSP2DEC CONVERTS C(MPAC) AND C(MPAC+1) INTO A SIGN AND 10 CHAR DECIMAL
002123:                                                                                                  #  STARTING IN THE LOC SPECIFIED IN DSPCOUNT.
002124:
002125: 04,3173           56002        DSP2DEC            XCH      Q
002126: 04,3174           54105                           TS       WDRET                                 #  MUST USE SAME RETURN AS DSPDECWD
002127: 04,3175           37761                           CAF      ZERO
002128: 04,3176           54114                           TS       CODE
002129: 04,3177           36301                           CAF      THREE
002130: 04,3200           03301                           TC       11DSPIN                               #  -R2 OFF
002131: 04,3201           37753                           CAF      FOUR
002132: 04,3202           03301                           TC       11DSPIN                               #  +R2 OFF
002133: 04,3203           10144                           CCS      MPAC
002134: 04,3204           03214                           TC       +8D
002135: 04,3205           03214                           TC       +7
002136:
002137: 04,3206           67755                           AD       ONE
002138: 04,3207           54144                           TS       MPAC
002139: 04,3210           02321                           TC       -ON
002140: 04,3211           40145                           CS       MPAC       +1
002141: 04,3212           54145                           TS       MPAC       +1
002142: 04,3213           03215                           TC       +2
002143: 04,3214           02301                           TC       +ON
002144: 04,3215           34517                           CAF      R2D1
002145: 04,3216           03145        END2DEC            TC       DSPDCWD1
002146:
002147:
002148: 05,3222                                           SETLOC   DSPFMEM    +6
002149:                                                                                                  #  DSPOCTWD DISPLAYS C(A) UPON ENTRY AS A 5 CHAR OCT STARTING IN THE DSP
002150:                                                                                                  #  CHAR SPECIFIED IN DSPCOUNT. IT STOPS AFTER 5 CHAR HAVE BEEN DISPLAYED.
002151:
002152: 05,3222           54022        DSPOCTWD           TS       CYL
002153: 05,3223           56002                           XCH      Q
002154: 05,3224           54105                           TS       WDRET                                 #  MUST USE SAME RETURN AS DSP2BIT.
002155: 05,3225           37740                           CAF      BIT14                                 #  TO BLANK SIGNS
002156: 05,3226           26270                           ADS      DSPCOUNT
002157: 05,3227           37753                           CAF      FOUR
002158: 05,3230           54127        WDAGAIN            TS       WDCNT
002159:
002160: 05,3231           40022                           CS       CYL
002161: 05,3232           40022                           CS       CYL
002162: 05,3233           40022                           CS       CYL
002163: 05,3234           40000                           CS       A
002164: 05,3235           77757                           MASK     DSPMSK
002165: 05,3236           50000                           INDEX    A
002166: 05,3237           34267                           CAF      RELTAB
002167: 05,3240           74545                           MASK     LOW5
002168: 05,3241           54114                           TS       CODE
002169: 05,3242           56270                           XCH      DSPCOUNT
002170: 05,3243           54133                           TS       COUNT
002171: 05,3244           10000                           CCS      A                                     #  DECREMENT DSPCOUNT EXCEPT AT +0
002172: 05,3245           54270                           TS       DSPCOUNT


002174: 05,3246           05243                           TC       POSTJUMP
002175: 05,3247           11307                           CADR     DSPOCTIN
002176: 05,3250           10127        OCTBACK            CCS      WDCNT
002177: 05,3251           03230                           TC       WDAGAIN                               #  +
002178: 05,3252           44554        DSPLV              CS       VD1                                   #  TO BLOCK NUMERICAL CHARACTERS, CLEARS,
002179: 05,3253           54270                           TS       DSPCOUNT                              #  AND SIGNS AFTER A COMPLETED DISPLAY.
002180: 05,3254           00105                           TC       WDRET
002181:
002182: 05,3255     7757               DSPMSK             =        SEVEN
002183:
002184:
002185:                                                                                                  #  DSP2BIT DISPLAYS C(A) UPON ENTRY AS A 2 CHAR OCT BEGINNING IN THE DSP
002186:                                                                                                  #  LOC SPECIFIED IN DSPCOUNT BY PRE CYCLING RIGHT C(A) AND USING THE LOGIC
002187:                                                                                                  #  OF THE 5 CHAR OCTAL DISPLAY
002188:
002189: 05,3255           54020        DSP2BIT            TS       CYR
002190: 05,3256           56002                           XCH      Q
002191: 05,3257           54105                           TS       WDRET                                 #  CANT USE L AS RETURN. UPDATNN USES L.
002192:
002193: 05,3260           37755                           CAF      ONE
002194: 05,3261           54127                           TS       WDCNT
002195: 05,3262           40020                           CS       CYR
002196: 05,3263           40020                           CS       CYR
002197: 05,3264           56020                           XCH      CYR
002198: 05,3265           54022                           TS       CYL
002199: 05,3266           03235                           TC       WDAGAIN    +5
002200:
002201:
002202:                                                                                                  #  FOR DSPIN PLACE 0/25 OCT INTO COUNT, 5 BIT RELAY CODE INTO CODE. BOTH
002203:                                                                                                  #  ARE DESTROYED. IF BIT14 OF COUNT IS 1, SIGN IS BLANKED WITH LEFT CHAR.
002204:                                                                                                  #  FOR DSPIN1 PLACE 0,1 INTO BIT11 OF CODE, 2 INTO COUNT, REL ADDRESS OF
002205:                                                                                                  #  DSPTAB ENTRY INTO DSREL.
002206:
002207: 04,3217                                           SETLOC   END2DEC    +1
002208:
002209: 04,3217           56002        DSPIN              XCH      Q                                     #  CANT USE L FOR RETURN, SINCE MANY OF THE
002210: 04,3220           54104                           TS       DSEXIT                                #  ROUTINES CALLING DSPIN USE L AS RETURN.
002211: 04,3221           34545                           CAF      LOW5
002212: 04,3222           70133                           MASK     COUNT
002213: 04,3223           54021                           TS       SR
002214: 04,3224           56021                           XCH      SR
002215:
002216: 04,3225           54131                           TS       DSREL
002217: 04,3226           37755                           CAF      BIT1
002218: 04,3227           70133                           MASK     COUNT
002219: 04,3230           10000                           CCS      A
002220: 04,3231           03233                           TC       +2                                    #  LEFT IF COUNT IS ODD
002221: 04,3232           03243                           TC       DSPIN1     -1                         #  RIGHT IF COUNT IS EVEN
002222: 04,3233           56114                           XCH      CODE
002223: 04,3234           04537                           TC       SLEFT5                                #  DOES NOT USE CYL


002225: 04,3235           54114                           TS       CODE
002226: 04,3236           37740                           CAF      BIT14
002227:
002228: 04,3237           70133                           MASK     COUNT
002229: 04,3240           10000                           CCS      A
002230: 04,3241           37754                           CAF      TWO                                   #  BIT14 = 1, BLANK SIGN
002231: 04,3242           67755                           AD       ONE                                   #  BIT14 = 0, LEAVE SIGN ALONE
002232: 04,3243           54133                           TS       COUNT                                 #  +0 INTO COUNT FOR RIGHT
002233:                                                                                                  #  +1 INTO COUNT FOR LEFT(SIGN LEFT ALONE)
002234:                                                                                                  #  +3 INTO COUNT FOR LEFT(TO BLANK SIGN)
002235: 04,3244           00004        DSPIN1             INHINT
002236: 04,3245           50131                           INDEX    DSREL
002237: 04,3246           10313                           CCS      DSPTAB
002238: 04,3247           03251                           TC       +2                                    #  IF +
002239: 04,3250           04725                           TC       CCSHOLE
002240: 04,3251           67755                           AD       ONE                                   #  IF -
002241: 04,3252           54132                           TS       DSMAG
002242: 04,3253           50133                           INDEX    COUNT
002243: 04,3254           73275                           MASK     DSMSK
002244: 04,3255           00006                           EXTEND
002245: 04,3256           60114                           SU       CODE
002246: 04,3257           00006                           EXTEND
002247: 04,3260           13273                           BZF      DSLV                                  #  SAME
002248: 04,3261           50133        DFRNT              INDEX    COUNT
002249: 04,3262           43275                           CS       DSMSK                                 #  MASK WITH 77740,76037, OR 75777
002250: 04,3263           70132                           MASK     DSMAG
002251:
002252: 04,3264           60114                           AD       CODE
002253: 04,3265           40000                           CS       A
002254: 04,3266           50131                           INDEX    DSREL
002255: 04,3267           56313                           XCH      DSPTAB
002256: 04,3270           00006                           EXTEND
002257: 04,3271           63273                           BZMF     DSLV                                  #  DSPTAB ENTRY WAS -
002258: 04,3272           24307                           INCR     NOUT                                  #  DSPTAB ENTRY WAS +
002259: 04,3273           00003        DSLV               RELINT
002260: 04,3274           00104                           TC       DSEXIT
002261:
002262: 04,3275           00037        DSMSK              OCT      37
002263: 04,3276           01740                           OCT      1740
002264: 04,3277           02000                           OCT      2000
002265: 04,3300           03740                           OCT      3740
002266:
002267:
002268:                                                                                                  #  FOR 11DSPIN, PUT REL ADDRESSS OF DSPTAB ENTRY INTO A, 1 IN BIT11 OR 0 IN
002269:                                                                                                  #  BIT11 OF CODE.
002270:
002271: 04,3301           54131        11DSPIN            TS       DSREL
002272: 04,3302           37754                           CAF      TWO
002273: 04,3303           54133                           TS       COUNT
002274:
002275: 04,3304           56002                           XCH      Q                                     #  MUST USE SAME RETURN AS DSPIN
002276: 04,3305           54104                           TS       DSEXIT


002278: 04,3306           03244                           TC       DSPIN1
002279:
002280:
002281: 04,3307           03217        DSPOCTIN           TC       DSPIN                                 #  SO DSPOCTWD DOESNT USE SWCALL
002282: 04,3310           33312                           CAF      +2
002283: 04,3311           05246                           TC       BANKJUMP
002284: 04,3312           13250        ENDSPOCT           CADR     OCTBACK
002285:
002286:
002287:                                                                                                  #  DSPALARM FINDS TC NVSUBEND IN ENTRET FOR NVSUB INITIATED ROUTINES.
002288:                                                                                                  #  ABORT WITH 01501.
002289:                                                                                                  #  DSPALARM FINDS TC ENDOFJOB IN ENTRET FOR KEYBOARD INITIATED ROUTINES.
002290:                                                                                                  #  DO TC ENTRET.
002291:
002292: 04,3313           34474        CHARALRM           CAF      ENDINST                               #  ALARMS WHICH MUST DO ENDOFJOBS COME
002293: 04,3314           54126                           TS       ENTRET                                #  HERE. ALLOWS ENTRET TO BE TEMP ERASABLE
002294:
002295: 04,3315           04560        DSPALARM           TC       FALTON                                #  TURN ON OPERATOR ERROR LIGHT
002296: 04,3316           43325                           CS       NVSBENDL
002297: 04,3317           60126                           AD       ENTEXIT
002298: 04,3320           00006                           EXTEND
002299: 04,3321           13323                           BZF      +2                                    #  NVSUB INITIATED. ABORT
002300: 04,3322           00126                           TC       ENTEXIT                               #  NOT NVSUB INITIATED.
002301: 04,3323           06000                           TC       ABORT
002302: 04,3324           01501                           OCT      01501
002303: 04,3325           04453        NVSBENDL           TC       NVSUBEND
002304:
002305:
002306:                                                                                                  #  MMCHANG USES NOUN DISPLAY UNTIL ENTER. THEN IT USES MODE DISP.
002307:
002308:                                                                                                  #  IT GOES TO MODROUT WITH THE NEW M M CODE IN A, BUT NOT DISPLAYED IN
002309:                                                                                                  #  M M LIGHTS.
002310:
002311: 05,3267                                           SETLOC   DSP2BIT    +10D
002312:
002313: 05,3267           03302        MMCHANG            TC       REQMM
002314: 05,3270           37761                           CAF      ZERO
002315: 05,3271           56273                           XCH      NOUNREG
002316: 05,3272           54144                           TS       MPAC
002317: 05,3273           34555                           CAF      ND1
002318: 05,3274           54270                           TS       DSPCOUNT
002319: 05,3275           05224                           TC       BANKCALL
002320: 05,3276           10557                           CADR     2BLANK
002321: 05,3277           30144                           CA       MPAC
002322: 05,3300           05243                           TC       POSTJUMP
002323: 05,3301           11315                           CADR     MODROUTB                              #  GO THRU STANDARD LOC.
002324:


002326: 05,3302  04,3315               MODROUTB           =        DSPALARM                              #  **FIX LATER**
002327: 05,3302           40002        REQMM              CS       Q
002328: 05,3303           54304                           TS       REQRET
002329: 05,3304           34555                           CAF      ND1
002330: 05,3305           54270                           TS       DSPCOUNT
002331: 05,3306           37761                           CAF      ZERO
002332: 05,3307           54273                           TS       NOUNREG
002333: 05,3310           05224                           TC       BANKCALL
002334: 05,3311           10557                           CADR     2BLANK
002335: 05,3312           04611                           TC       FLASHON
002336: 05,3313           00126                           TC       ENTEXIT
002337:
002338:
002339:                                                                                                  #  VBRQEXEC ENTERS REQUEST TO EXEC     FOR ANY ADDRESS WITH ANY PRIORITY.
002340:                                                                                                  #  IT DOES ENDOFJOB AFTER ENTERING REQUEST. DISPLAY SYST IS RELEASED.
002341:                                                                                                  #  IT ASSUMES NOUN 26 HAS BEEN PRELOADED WITH
002342:                                                                                                  #  COMPONENT 1  PRIORITY(BITS 10-14) BIT1=0 FOR NOVAC, BIT1=1 FOR FINDVAC.
002343:                                                                                                  #  COMPONENT 2  JOB ADRES (12 BIT )
002344:                                                                                                  #  COMPONENT 3  BBCON
002345:
002346: 05,3314           37755        VBRQEXEC           CAF      BIT1
002347: 05,3315           70337                           MASK     DSPTEM1
002348: 05,3316           10000                           CCS      A
002349: 05,3317           03336                           TC       SETVAC                                #  IF BIT1 = 1, FINDVAC
002350: 05,3320           35741                           CAF      TCNOVAC                               #  IF BIT1 = 0, NOVAC
002351: 05,3321           54144        REQEX1             TS       MPAC                                  #  TC NOVAC  OR  TC FINDVAC INTO MPAC
002352: 05,3322           47755                           CS       BIT1
002353: 05,3323           70337                           MASK     DSPTEM1
002354: 05,3324           54150                           TS       MPAC       +4                         #  PRIO INTO MPAC+4 AS A TEMP
002355: 05,3325           04655        REQUESTC           TC       RELDSP
002356: 05,3326           34474                           CA       ENDINST
002357: 05,3327           54147                           TS       MPAC       +3                         #  TC ENDOFJOB INTO MPAC+3
002358: 05,3330           00006                           EXTEND
002359: 05,3331           30341                           DCA      DSPTEM1    +1                         #  JOB ADRES INTO MPAC+1
002360: 05,3332           52146                           DXCH     MPAC       +1                         #  BBCON INTO MPAC+2
002361: 05,3333           30150                           CA       MPAC       +4                         #  PRIO IN A
002362: 05,3334           00004                           INHINT
002363:
002364: 05,3335           00144                           TC       MPAC
002365:
002366: 05,3336           34551        SETVAC             CAF      TCFINDVC
002367: 05,3337           03321                           TC       REQEX1
002368:
002369:                                                                                                  #  VBRQWAIT ENTERS REQUEST TO WAITLIST FOR ANY ADDRESS WITH ANY DELAY.
002370:                                                                                                  #  IT DOES ENDOFJOB AFTER ENTERING REQUEST.DISPLAY SYST IS RELEASED.
002371:                                                                                                  #  IT ASSUMES NOUN 26 HAS BEEN PRELOADED WITH
002372:                                                                                                  #  COMPONENT 1  DELAY (LOW BITS)
002373:                                                                                                  #  COMPONENT 2  TASK ADRES (12 BIT)
002374:                                                                                                  #  COMPONENT 3  BBCON


002376: 05,3340           34550        VBRQWAIT           CAF      TCWAIT
002377: 05,3341           54144                           TS       MPAC                                  #  TC WAITLIST INTO MPAC
002378: 05,3342           30337                           CA       DSPTEM1                               #  TIME DELAY
002379: 05,3343           03324        ENDRQWT            TC       REQUESTC   -1
002380:
002381:                                                                                                  #  REQUESTC WILL PUT TASK ADRES INTO MPAC+1, BBCON INTO MPAC+2,
002382:                                                                                                  #  TC ENDOFJOB INTO MPAC+3. IT WILL TAKE TIME DELAY OUT OF MPAC+4 AND
002383:                                                                                                  #  LEAVE IT IN A, INHINT AND TC MPAC.
002384:
002385:
002386: 04,3326                                           SETLOC   NVSBENDL   +1
002387: 04,3326           37755        VBPROC             CAF      ONE                                   #  PROCEED WITHOUT DATA
002388: 04,3327           54305                           TS       LOADSTAT
002389: 04,3330           04655                           TC       RELDSP
002390: 04,3331           04615                           TC       FLASHOFF
002391: 04,3332           03440                           TC       RECALTST                              #  SEE IF THERE IS ANY RECALL FROM ENDIDLE
002392:
002393:
002394: 04,3333           04455        VBTERM             TC       KILMONON                              #  TURN ON KILL MONITOR BIT
002395: 04,3334           47755                           CS       ONE
002396: 04,3335           03327                           TC       VBPROC     +1                         #  TERM VERB SETS LOADSTAT NEG
002397:
002398:
002399:                                                                                                  #  FLASH IS TURNED OFF ONLY BY PROCEED WITHOUT DATA, TERMINATE, END OF LOAD
002400:
002401:                                                                                                  #  VBRELDSP TURNS OFF RELEASE DISPLAY SYSTEM LIGHT(AND SEARCHES LIST ONLY
002402:                                                                                                  #  IF THIS LIGHT WAS TURNED ON BY NVSUBUSY), AND TURNS OFF UPACT LIGHT.
002403:
002404: 04,3336           47753        VBRELDSP           CS       BIT3
002405: 04,3337           00006                           EXTEND
002406: 04,3340           03011                           WAND     DSALMOUT                              #  TURN OFF UPACT LIGHT
002407: 04,3341           04655                           TC       RELDSP                                #  SEARCHES LIST
002408: 04,3342           05605                           TC       ENDOFJOB
002409:
002410:
002411:                                                                                                  #  BUMP SHIFTS WORD DISPLAYED IN R2 TO R3, R1 TO R2. IT BLANKS R1.
002412:
002413: 04,3343           37760        BUMP               CAF      FIVE                                  #  R2D5
002414: 04,3344           54270                           TS       DSPCOUNT
002415: 04,3345           54133                           TS       COUNT
002416: 04,3346           37755                           CAF      ONE                                   #  SHIFT DATA OF R2 TO R3, R1 TO R2
002417: 04,3347           70133                           MASK     COUNT
002418: 04,3350           56133                           XCH      COUNT                                 #  +0 INTO COUNT IF EVEN (RIGHT)
002419: 04,3351           54021                           TS       SR                                    #  +1 INTO COUNT IF ODD (LEFT)


002421: 04,3352           56021                           XCH      SR                                    #  DSREL IN A
002422: 04,3353           50000                           INDEX    A
002423:
002424: 04,3354           10313                           CCS      DSPTAB
002425: 04,3355           03357                           TC       +2
002426: 04,3356           04725                           TC       CCSHOLE
002427: 04,3357           67755                           AD       ONE                                   #  DSMAG IN A
002428: 04,3360           50133                           INDEX    COUNT
002429: 04,3361           73275                           MASK     DSMSK
002430: 04,3362           50133                           INDEX    COUNT
002431: 04,3363           03364                           TC       +1
002432: 04,3364           03366                           TC       +2                                    #  EVEN(RIGHT)  OK
002433: 04,3365           04521                           TC       RIGHT5                                #  ODD(LEFT)  SHIFT RIGHT
002434: 04,3366           54114                           TS       CODE
002435: 04,3367           47760                           CS       FIVE
002436: 04,3370           60270                           AD       DSPCOUNT                              #  DSPCOUNT-5
002437: 04,3371           10000                           CCS      A                                     #  TO PREVENT -0
002438: 04,3372           67755                           AD       ONE
002439: 04,3373           03375                           TC       +2
002440: 04,3374           04725                           TC       CCSHOLE
002441: 04,3375           54133                           TS       COUNT
002442: 04,3376           03217                           TC       DSPIN                                 #  CODE ALREADY IN CODE
002443: 04,3377           40270                           CS       DSPCOUNT
002444: 04,3400           64516                           AD       R1D1                                  #  OCT 16
002445: 04,3401           10000                           CCS      A
002446: 04,3402           56270                           XCH      DSPCOUNT                              #  +, DSPCOUNT L/ OCT 16
002447:
002448: 04,3403           67755                           AD       ONE                                   #  INCREMENT DSPCOUNT
002449: 04,3404           03344                           TC       BUMP       +1
002450:
002451: 04,3405           37761        SWSGN              CAF      ZERO                                  #  -0, DSPCOUNT= OCT 16. DO SIGN SHIFT
002452: 04,3406           54270                           TS       DSPCOUNT
002453: 04,3407           63436                           AD       SWTAB      +2                         #  OCT 3
002454: 04,3410           50000                           INDEX    A                                     #  PICKUP ORDER , DSREL=3,4,5,6.
002455: 04,3411           10313                           CCS      DSPTAB                                #                   (-R2,+R2,-R1,+R1)
002456: 04,3412           03414                           TC       +2
002457: 04,3413           04725                           TC       CCSHOLE
002458: 04,3414           67755                           AD       ONE
002459: 04,3415           77743                           MASK     BIT11
002460: 04,3416           54114                           TS       CODE
002461: 04,3417           50270                           INDEX    DSPCOUNT
002462: 04,3420           33434                           CAF      SWTAB                                 #  PUT AWAY ORDER, DSREL= 0,1,3,4.
002463: 04,3421           03301                           TC       11DSPIN                               #                   (-R3,+R3,-R2,+R2.)
002464: 04,3422           40270                           CS       DSPCOUNT
002465: 04,3423           63436                           AD       SWTAB      +2                         #  OCT 3
002466: 04,3424           10000                           CCS      A
002467: 04,3425           56270                           XCH      DSPCOUNT                              #  +, DSPCOUNT L/ 3
002468: 04,3426           67755                           AD       ONE                                   #  INCREMENT DSPCOUNT
002469: 04,3427           03406                           TC       SWSGN      +1
002470: 04,3430           34516                           CAF      R1D1                                  #  -0,       DSPCOUNT = 3
002471:
002472: 04,3431           54270                           TS       DSPCOUNT
002473: 04,3432           02514                           TC       5BLANK                                #  BLANKS R1


002475: 04,3433           00126                           TC       ENTEXIT
002476:
002477: 04,3434           00000        SWTAB              OCT      0                                     #  -R3
002478: 04,3435           00001                           OCT      1                                     #  +R3
002479: 04,3436           00003                           OCT      3                                     #  -R2
002480: 04,3437           00004                           OCT      4                                     #  +R2
002481:


002483:                                                                                                  #  NVSUB IS USED FOR SUB ROUTINE CALLS FROM WITHIN COMPUTER. IT CAN BE
002484:                                                                                                  #  USED TO DO ANY THING THE KEYBOARD CAN CALL. PLACE  ...VVVVVVNNNNNN
002485:                                                                                                  #  INTO A.      V-S ARE 6 BIT VERB CODE. N-S , 6 BIT NOUN CODE.
002486:
002487:                                                                                                  #  NVSUB CAN BE USED WITH MACH CADR TO BE SPEC BY PLACING THE CADR INTO
002488:                                                                                                  #  MPAC+2 BEFORE THE STANDARD NVSUB CALL.
002489:
002490:                                                                                                  #   NVSUB RETURNS TO 2+ CALLING LOC AFTER PERFORMING TASK, IF DISPLAY
002491:                                                                                                  #  SYSTEM IS AVAILABLE. THE NEW NOUN AND VERB CODES ARE DISPLAYED.
002492:                                                                                                  #  IF V:S =0, THE NEW NOUN CODE IS DISPLAYED ONLY(RETURN WITH NO FURTHER
002493:                                                                                                  #  ACTION). IF N-S =0, THE NEW VERB CODE IS DISPLAYED ONLY(RETURN WITH NO
002494:                                                                                                  #  FURTHER ACTION).
002495:
002496:                                                                                                  #  IT RETURNS TO 1+ CALLING LOC WITHOUT PERFORMING TASK, IF DISPLAY
002497:
002498:                                                                                                  #  SYSTEM IS BLOCKED (NOTHING IS DISPLAYED IN THIS CASE).
002499:                                                                                                  #  IT DOES TC ABORT (WITH OCT 01501) IF IT ENCOUNTERS A DISPLAY PROGRAM
002500:                                                                                                  #  ALARM CONDITION BEFORE RETURN TO CALLER.
002501:
002502:                                                                                                  #  THE DISPLAY SYSTEM IS BLOCKED BY THE DEPRESSION OF ANY
002503:                                                                                                  #  KEY, EXCEPT ERROR LIGHT RESET. ALSO BY ENDIDLE.
002504:                                                                                                  #       IT IS RELEASED BY SPECIAL VERB = RELEASE DISPLAY, ALL GO TO VERBS,
002505:                                                                                                  #  PROCEED WITHOUT DATA, TERMINATE, INITIALIZE EXECUTIVE,
002506:                                                                                                  #  RECALL PART OF RECALTST IF ENDIDLE WAS USED,
002507:                                                                                                  #  IN RECALTST IF NVSUB INITIATED LOAD AND ENDIDLE WAS NOT USED,
002508:                                                                                                  #  VB = REQUEST EXECUTIVE, VB = REQUEST WAITLIST,
002509:                                                                                                  #  MONITOR SET UP.
002510:
002511:                                                                                                  #  A NVSUB CALL THAT PASSES DSPLOCK ENDS OLD MONITOR.
002512:
002513:                                                                                                  #  DSPLOCK IS THE INTERLOCK FOR USE OF KEYBOARD AND DISPLAY SYSTEM WHICH
002514:                                                                                                  #  LOCKS OUT INTERNAL USE WHENEVER THERE IS EXTERNAL KEYBOARD ACTION.
002515:
002516:                                                                                                  #  NVSUB IN FIXED-FIXED PLACES 2+CALLING LOC INTO NVQTEM, TC NVSUBEND INTO
002517:                                                                                                  #  ENTRET. (THIS WILL RESTORE OLD CALLING BANK BITS)
002518:
002519:    4433                                           SETLOC   MIDSIX     +1
002520:    4433           54113        NVSUB              TS       NVTEMP                                #  IN FIXED FIXED
002521:    4434           10303                           CCS      DSPLOCK
002522:    4435           00002                           TC       Q                                     #  DSP SYST BLOCKED. RET TO 1+ CALLING LOC
002523:    4436           30002                           CA       Q                                     #  DSP SYST AVAILABLE
002524:    4437           67755                           AD       ONE
002525:    4440           54331                           TS       NVQTEM                                #  2 + CALLING LOC INTO NVQTEM
002526:    4441           04455                           TC       KILMONON                              #  TURN ON KILL MONITOR BIT
002527:    4442           34446        NVSUBCOM           CAF      NVSBBBNK
002528:
002529:    4443           56006                           XCH      BBANK
002530:    4444           54332                           TS       NVBNKTEM
002531:    4445           02000                           TC       NVSUBB                                #  GO TO NVSUB1 THRU STANDARD LOC
002532:    4446     0270                                  EBANK=   DSPCOUNT
002533:    4446           12000        NVSBBBNK           BBCON    NVSUB1
002534:


002536:    4447           30002        NVSUBMON           CA       Q                                     #  MONDO COMES HERE
002537:    4450           67755                           AD       ONE
002538:    4451           54331                           TS       NVQTEM                                #  2 + CALLING LOC INTO NVQTEM
002539:    4452           04442                           TC       NVSUBCOM
002540:
002541:    4453           52332        NVSUBEND           DXCH     NVQTEM                                #  NVBNKTEM MUST = NVQTEM+1
002542:    4454           52006                           DXCH     Z                                     #  DTCB
002543:
002544: 05,3344                                           SETLOC   ENDRQWT    +1
002545:
002546: 05,3344           33363        NVSUB1             CAF      ENTSET                                #  IN BANK
002547: 05,3345           54126                           TS       ENTRET                                #  SET RETURN TO NVSUBEND
002548: 05,3346           33401                           CAF      LOW6
002549: 05,3347           70113                           MASK     NVTEMP
002550: 05,3350           54144                           TS       MPAC                                  #  TEMP STORAGE
002551: 05,3351           33402                           CAF      MID6
002552: 05,3352           70113                           MASK     NVTEMP
002553: 05,3353           04521                           TC       RIGHT5
002554:
002555: 05,3354           54020                           TS       CYR
002556: 05,3355           56020                           XCH      CYR
002557: 05,3356           54145                           TS       MPAC       +1                         #  TEMP STORAGE
002558: 05,3357           10144                           CCS      MPAC                                  #  TEST NOUN
002559: 05,3360           03364                           TC       +4                                    #  IF NOUN NOT +0, GO ON
002560: 05,3361           56145                           XCH      MPAC       +1
002561: 05,3362           02314                           TC       UPDATVB    -1                         #  IF NOUN = +0, DISPLAY VERB . THEN RETURN
002562: 05,3363           04453        ENTSET             TC       NVSUBEND
002563: 05,3364           10145                           CCS      MPAC       +1                         #  TEST VERB
002564: 05,3365           03371                           TC       +4                                    #  IF VERB NOT +0, GO ON
002565: 05,3366           56144                           XCH      MPAC
002566: 05,3367           02274                           TC       UPDATNN    -1                         #  IF VERB = +0, DISPLAY NOUN. THEN RETURN
002567: 05,3370           04453                           TC       NVSUBEND
002568: 05,3371           56145                           XCH      MPAC       +1
002569: 05,3372           02314                           TC       UPDATVB    -1                         #  IF BOTH NOUN AND VERB NOT +0, DISPLAY
002570: 05,3373           56144                           XCH      MPAC                                  #  BOTH AND GO TO ENTPAS0
002571: 05,3374           02274                           TC       UPDATNN    -1
002572: 05,3375           37761                           CAF      ZERO
002573: 05,3376           54305                           TS       LOADSTAT                              #  SET FOR WAITING FOR DATA CONDITION
002574: 05,3377           54306                           TS       CLPASS
002575: 05,3400           02031                           TC       ENTPAS0
002576:
002577:                                                                                                  #  IF INTERNAL MACH CADR TO BE SPECIFIED, MPAC+2 WILL BE PLACED INTO
002578:
002579:                                                                                                  #  NOUNCADR IN ENTPAS0 (INTMCTBS ).
002580:
002581:
002582: 05,3401           00077        LOW6               OCT      77
002583: 05,3402           07700        MID6               OCT      7700
002584:


002586:    4455                                           SETLOC   NVSUBEND   +2
002587:    4455           47737        KILMONON           CS       BIT15                                 #  FORCE BIT 15 OF MONSAVE1 TO 1.
002588:
002589:    4456           00004                           INHINT                                         #          THIS IS THE KILL MONITOR BIT.
002590:    4457           70312                           MASK     MONSAVE1
002591:    4460           67737                           AD       BIT15
002592:    4461           54312                           TS       MONSAVE1
002593:    4462           00003                           RELINT
002594:    4463           00002                           TC       Q
002595:
002596:
002597:                                                                                                  #  LOADSTAT  +0 INACTIVE(WAITING FOR DATA). SET BY NVSUB
002598:                                                                                                  #            +1  PROCEED NO DATA. SET BY SPECIAL VERB
002599:                                                                                                  #           -1 TERMINATE   SET BY SPECIAL VERB
002600:                                                                                                  #           -0 DATA IN   SET BY END OF LOAD ROUTINE
002601:
002602:
002603:                                                                                                  #  L  TC ENDIDLE  (FIXED FIXED)
002604:                                                                                                  #  ROUTINES THAT REQUEST LOADS THROUGH NVSUB SHOULD USE ENDIDLE WHILE
002605:                                                                                                  #  WAITING FOR THE DATA TO BE LOADED. ENDIDLE PUTS CURRENT JOB TO SLEEP.
002606:                                                                                                  #  ENDIDLE CANNOT BE CALLED FROM ERASABLE MEMORY, SINCE JOBSLEEP AND
002607:                                                                                                  #  JOBWAKE CAN HANDLE ONLY FIXED MEMORY.
002608:                                                                                                  #  RECALTST TESTS LOADSTAT AND WAKES JOB UP TO,
002609:                                                                                                  #  L+1      FOR TERMINATE
002610:
002611:                                                                                                  #  L+2      FOR PROCEED WITHOUT DATA
002612:                                                                                                  #  L+3      FOR DATA IN
002613:                                                                                                  #  IT DOES NOTHING     IF LOADSTAT INDICATES WAITING FOR DATA.
002614:
002615:    4464           37755        ENDIDLE            CAF      ONE
002616:    4465           54303                           TS       DSPLOCK
002617:    4466           22004                           LXCH     FBANK
002618:    4467           56002                           XCH      Q
002619:    4470           52124                           DXCH     BUF2
002620:    4471           05253                           TC       MAKECADR
002621:    4472           54327                           TS       CADRSTOR
002622:    4473           05563                           TC       JOBSLEEP
002623:
002624:    4474           05605        ENDINST            TC       ENDOFJOB
002625:
002626:                                                                                                  #  DATAWAIT IS AN ALTERNATIVE TO ENDIDLE. IT RETURNS IMMEDIATELY IF
002627:                                                                                                  #  LOADSTAT INDICATES THAT DATA IS ALREADY IN, OR PROCEED OR TERMINATE HAS
002628:                                                                                                  #  BEEN EXECUTED. RETURN FORMAT IS SAME AS FOR ENDIDLE.
002629:                                                                                                  #  DATAWAIT CANNOT BE CALLED FROM ERASABLE MEMORY, SINCE JOBSLEEP
002630:                                                                                                  #  AND JOBWAKE CAN HANDLE ONLY FIXED MEMORY.
002631:                                                                                                  #  DATAWAIT SHOULD BE USED ONLY AFTER REQUESTING A LOAD VERB.
002632:
002633:    4475           10305        DATAWAIT           CCS      LOADSTAT


002635:    4476           17006                           TCF      DATWAIT1                              #  PROCEED. RETURN TO L+2.
002636:    4477           14464                           TCF      ENDIDLE                               #  STILL WAITING. GO TO SLEEP.
002637:    4500           00002                           TC       Q                                     #  TERMINATE. RETURN TO L+1.
002638:    4501           17010                           TCF      Q+2                                   #  DATA IN. RETURN TO L+3
002639:    4502     7006               DATWAIT1           =        Q+1                                   #  RETURN TO L+2
002640:
002641:                                                                                                  #  DATAWAIT DOES NOT RELEASE DISPLAY SYST. IT IS RELEASED AT END OF NVSUB
002642:                                                                                                  #  INITIATED LOAD, IF ENDIDLE WAS NOT USED.
002643:
002644:
002645: 05,3403                                           SETLOC   MID6       +1
002646:                                                                                                  #  DSPMM  PLACE MAJOR MODE CODE INTO MODREG
002647:
002648: 05,3403           34556        DSPMM1             CAF      MD1                                   #  GETS HERE THRU DSPMM (STANDARD LEAD IN)
002649: 05,3404           56270                           XCH      DSPCOUNT
002650: 05,3405           54130                           TS       DSPMMTEM                              #  SAVE DSPCOUNT
002651: 05,3406           30302                           CA       MODREG
002652: 05,3407           22002                           LXCH     Q
002653: 05,3410           03255                           TC       DSP2BIT
002654: 05,3411           56130                           XCH      DSPMMTEM                              #  RESTORE DSPCOUNT
002655: 05,3412           54270                           TS       DSPCOUNT
002656: 05,3413           00001        DSPMMEND           TC       L
002657:
002658:
002659:                                                                                                  #  RECALTST IS ENTERED DIRECTLY AFTER DATA IS
002660:                                                                                                  #  LOADED, TERMINATE VERB IS EXECUTED, OR THE PROCEED WITHOUT DATA VERB IS
002661:                                                                                                  #  EXECUTED. IT WAKES UP JOB THAT DID TC ENDIDLE.
002662:
002663:                                                                                                  #  IF NVSUB INITIATED LOAD, AND ENDIDLE WAS NOT USED, THEN IT RELEASES
002664:                                                                                                  #  DISPLAY SYST. (NEEDED FOR DATAWAIT)
002665:
002666: 04,3440                                           SETLOC   SWTAB      +4
002667:
002668: 04,3440           10327        RECALTST           CCS      CADRSTOR
002669: 04,3441           03446                           TC       RECAL1
002670: 04,3442           05605                           TC       ENDOFJOB                              #  NORMAL EXIT IF KEYBOARD INITIATED
002671: 04,3443           03446                           TC       RECAL1
002672: 04,3444           54327                           TS       CADRSTOR                              #  -0. CONCLUSION OF NVSUB INITIATED LOAD.
002673: 04,3445           03464                           TC       RECAL3                                #  +0 INTO CADRSTOR, RELEASE DISPLAY,
002674:                                                                                                  #     AND ENDOFJOB. NEEDED FOR DATAWAIT.
002675: 04,3446           37761        RECAL1             CAF      ZERO
002676: 04,3447           56327                           XCH      CADRSTOR
002677: 04,3450           00004                           INHINT
002678: 04,3451           05567                           TC       JOBWAKE
002679: 04,3452           10305                           CCS      LOADSTAT
002680: 04,3453           03470                           TC       DOPROC                                #  + PROCEED WITHOUT DATA
002681: 04,3454           05605                           TC       ENDOFJOB                              #  PATHALOGICAL CASE EXIT
002682: 04,3455           03466                           TC       DOTERM                                #  - TERMINATE


002684: 04,3456           37754                           CAF      TWO
002685: 04,3457           50064        RECAL2             INDEX    LOCCTR
002686: 04,3460           60154                           AD       LOC                                   #  LOC IS + FOR BASIC JOBS
002687: 04,3461           50064                           INDEX    LOCCTR
002688: 04,3462           54154                           TS       LOC
002689: 04,3463           00003                           RELINT
002690: 04,3464           04700        RECAL3             TC       RELDSP1                               #  DOES NOT SEARCH LIST
002691: 04,3465           05605                           TC       ENDOFJOB
002692:
002693: 04,3466           37761        DOTERM             CAF      ZERO
002694: 04,3467           03457                           TC       RECAL2
002695:
002696: 04,3470           37755        DOPROC             CAF      ONE
002697: 04,3471           03457                           TC       RECAL2
002698:


002700:                                                                                                  #  THE FOLLOWING REFERS TO THE NOUN TABLES
002701:
002702:
002703:                                                                                                  #  COMPONENT CODE NUMBER           INTERPRETATION
002704:
002705:                                                                                                  #  00000                           1 COMPONENT
002706:                                                                                                  #  00001                           2 COMPONENT (EACH S P)
002707:                                                                                                  #  00010                           3 COMPONENT (EACH SP)
002708:
002709:
002710:                                                                                                  #  SF ROUTINE CODE NUMBER          INTERPRETATION
002711:
002712:                                                                                                  #  00000    OCTAL ONLY
002713:                                                                                                  #  00001    STRAIGHT FRACTIONAL
002714:                                                                                                  #  00010    DEGREES (XXX.XX)
002715:                                                                                                  #  00011    ARITHMETIC SF
002716:                                                                                                  #  00100    ARITH DP1   OUT(MULT BY 2/14 AT END)      IN(STRAIGHT)
002717:
002718:                                                                                                  #  00101    ARITH DP2   OUT(STRAIGHT)                 IN(SL 7 AT END)
002719:                                                                                                  #  00110    OPTICS DEGREES(XX.XXX MAX 89.999) OR (XXX.XX MAX 179.99)
002720:                                                                                                  #  00111    ARITH DP3   OUT ( SL 7 AT END)       IN ( STRAIGHT)
002721:                                                                                                  #  END OF SF ROUTINE CODE NUMBERS
002722:
002723:
002724:                                                                                                  #  SF CONSTANT CODE NUMBER         INTERPRETATION
002725:
002726:                                                                                                  #  00000                           WHOLE
002727:                                                                                                  #  00000                           TIME SEC(XXX.XX)SAME AS WHOLE (ARITH DP1)
002728:                                                                                                  #  00001                           TIME HOURS(XXX.XX) USE ARITH DP2
002729:                                                                                                  #  00010                           DEGREES
002730:                                                                                                  #  00010                           OPTICS DEGREES
002731:                                                                                                  #  00011                           GYRO DEGREES (XX.XXX)  USE ARITHDP3
002732:                                                                                                  #  00100                           GYRO BIAS DRIFT .BBXXXXX MILLIRAD/SEC
002733:                                                                                                  #  00101                           GYRO AXIS ACCEL. DRIFT
002734:                                                                                                  #                                  .BBXXXXX (MILLIRAD/SEC) / (CM/SEC SEC)
002735:                                                                                                  #  00110                           PIPA BIAS X.XXXX CM/SEC SEC
002736:                                                                                                  #  00111                           PIPA SCALE FACTOR ERROR
002737:                                                                                                  #                                      XXXXX. PARTS/MILLION
002738:                                                                                                  #  01000                           POSITION(XXXX.X KILOMETERS) USE ARITHDP3
002739:                                                                                                  #  01001                           VELOCITY(XXXX.X METERS/SEC) USE ARITHDP2
002740:
002741:                                                                                                  #  01010                           TIME HOURS(XXX.XX)WEEKS INSIDE(ARITHDP2)
002742:                                                                                                  #  01011                           ELEVATION DEGREES(89.999MAX) USE ARITH
002743:                                                                                                  #  01100                           RENDEZVOUS RADAR RANGE(XXXXXB.FEET)
002744:                                                                                                  #                                                              USE ARITHDP1
002745:                                                                                                  #  01101                           RENDEZVOUS RADAR RANGE RATE(XXXXX.FT/SEC
002746:                                                                                                  #                                                              USE ARITHDP1
002747:                                                                                                  #  01110                           LANDING RADAR ALTITUDE(XXXXX.FEET)
002748:                                                                                                  #                                                              USE ARITHDP1


002750:                                                                                                  #  01111                           INITIAL/FINAL ALTITUDE(XXXXX.FEET)
002751:                                                                                                  #                                                              USE ARITHDP1
002752:
002753:                                                                                                  #  10000                           ALTITUDE RATE(XXXXX.FEET)      USE ARITH
002754:                                                                                                  #  10001                           FORWARD/LATERAL VELOCITY(XXXXX.FEET/SEC)
002755:                                                                                                  #                                                                 USE ARITH
002756:                                                                                                  #  10010                           ROTATIONAL HAND CONTROLLER ANGLE RATES
002757:                                                                                                  #                                        XXXXX.DEG/SEC            USE ARITH
002758:                                                                                                  #  10011                           LANDING RADAR VELX(XXXXX.FEET/SEC)
002759:                                                                                                  #                                                              USE ARITHDP1
002760:                                                                                                  #  10100                           LANDING RADAR VELY(XXXXX.FEET/SEC)
002761:                                                                                                  #                                                              USE ARITHDP1
002762:                                                                                                  #  10101                           LANDING RADAR VELZ(XXXXX.FEET/SEC)
002763:                                                                                                  #                                                              USE ARITHDP1
002764:                                                                                                  #  10110                           OPTICAL TRACKER AZIMUTH ANGLE(XXX.XXDEG)
002765:                                                                                                  #                                                              USE ARITHDP1
002766:                                                                                                  #  END OF SF CONSTANT CODE NUMBERS
002767:
002768:                                                                                                  #  FOR GREATER THAN SINGLE PRECISION SCALES, PUT ADDRESS OF MAJOR PART INTO
002769:                                                                                                  #  NOUN TABLES.
002770:                                                                                                  #  OCTAL LOADS PLACE +0 INTO MAJOR PART, DATA INTO MINOR PART.
002771:                                                                                                  #  OCTAL DISPLAYS SHOW MINOR PART ONLY.
002772:                                                                                                  #  TO GET AT BOTH MAJOR AND MINOR PARTS (IN OCTAL), USE NOUN 01.
002773:


002775:                                                                                                  #  THE FOLLOWING ROUTINES ARE FOR READING THE NOUN TABLES AND THE SF TABLES
002776:                                                                                                  #  (WHICH ARE IN A SEPARATE BANK FROM THE REST OF PINBALL). THESE READING
002777:                                                                                                  #  ROUTINES ARE IN THE SAME BANK AS THE TABLES. THEY ARE CALLED BY DXCH Z.
002778:
002779:
002780:                                                                                                  #  LODNNTAB LOADS NNADTEM WITH THE NNADTAB ENTRY, NNTYPTEM WITH THE
002781:                                                                                                  #  NNTYPTAB ENTRY. IF THE NOUN IS MIXED, IDAD1TEM IS LOADED WITH THE FIRST
002782:
002783:                                                                                                  #  IDADDTAB ENTRY, IDAD2TEM THE SECOND IDADDTAB ENTRY, IDAD3TEM THE THIRD
002784:                                                                                                  #  IDADDTAB ENTRY, RUTMXTEM WITH THE RUTMXTAB ENTRY, MIXBR IS SET FOR
002785:                                                                                                  #  MIXED OR NORMAL NOUN.
002786:
002787: 23,2000                                           BANK     23
002788: 23,2000           52142        LODNNTAB           DXCH     IDAD2TEM                              #  SAVE RETURN INFO IN IDAD2TEM, IDAD3TEM.
002789: 23,2001           50273                           INDEX    NOUNREG
002790: 23,2002           32052                           CAF      NNADTAB
002791: 23,2003           54136                           TS       NNADTEM
002792: 23,2004           50273                           INDEX    NOUNREG
002793: 23,2005           32152                           CAF      NNTYPTAB
002794: 23,2006           54137                           TS       NNTYPTEM
002795: 23,2007           40273                           CS       NOUNREG
002796: 23,2010           62036                           AD       MIXCON
002797: 23,2011           00006                           EXTEND
002798: 23,2012           62016                           BZMF     LODMIXNN                              #  NOUN NUMBER G/E FIRST MIXED NOUN
002799: 23,2013           37755                           CAF      ONE                                   #  NOUN NUMBER L/ FIRST MIXED NOUN
002800: 23,2014           54130                           TS       MIXBR                                 #  NORMAL.  +1 INTO MIXBR.
002801: 23,2015           02034                           TC       LODNLV
002802: 23,2016           37754        LODMIXNN           CAF      TWO                                   #  MIXED.  +2 INTO MIXBR.
002803: 23,2017           54130                           TS       MIXBR
002804: 23,2020           50273                           INDEX    NOUNREG
002805: 23,2021           32420                           CAF      RUTMXTAB   -55
002806:
002807: 23,2022           54143                           TS       RUTMXTEM
002808: 23,2023           35356                           CAF      LOW10
002809: 23,2024           70136                           MASK     NNADTEM
002810: 23,2025           54002                           TS       Q                                     #  TEMP
002811: 23,2026           50000                           INDEX    A
002812: 23,2027           32406                           CAF      IDADDTAB
002813: 23,2030           54140                           TS       IDAD1TEM                              #  LOAD IDAD1TEM WITH FIRST IDADDTAB ENTRY
002814: 23,2031           00006                           EXTEND
002815: 23,2032           50002                           INDEX    Q                                     #  LOAD IDAD2TEM WITH 2ND IDADDTAB ENTRY
002816: 23,2033           32410                           DCA      IDADDTAB   +1                         #  LOAD IDAD3TEM WITH 3RD IDADDTAB ENTRY.
002817: 23,2034           52142        LODNLV             DXCH     IDAD2TEM                              #  PUT RETURN INFO INTO A, L.
002818: 23,2035           52006                           DXCH     Z
002819:
002820: 23,2036           00055        MIXCON             OCT      55                                    #  FIRST MIXED NOUN = 55.
002821:
002822:
002823:                                                                                                  #  GTSFOUT LOADS SFTEMP1, SFTEMP2 WITH THE DP SFOUTAB ENTRIES.


002825:
002826: 23,2037           52114        GTSFOUT            DXCH     SFTEMP1                               #  2X(SFCONUM) ARRIVES IN SFTEMP1.
002827: 23,2040           00006                           EXTEND
002828: 23,2041           50000                           INDEX    A
002829: 23,2042           32331                           DCA      SFOUTAB
002830: 23,2043           52114        SFCOM              DXCH     SFTEMP1
002831: 23,2044           52006                           DXCH     Z
002832:
002833:
002834:                                                                                                  #  GTSFIN LOADS SFTEMP1, SFTEMP2 WITH THE DP SFINTAB ENTRIES.
002835:
002836: 23,2045           52114        GTSFIN             DXCH     SFTEMP1                               #  2X(SFCONUM) ARRIVES IN SFTEMP1.
002837: 23,2046           00006                           EXTEND
002838: 23,2047           50000                           INDEX    A
002839:
002840: 23,2050           32253                           DCA      SFINTAB
002841: 23,2051           12043                           TCF      SFCOM
002842:
002843:                                                                                                  #  NN  NORMAL NOUNS
002844: 23,2052           00000        NNADTAB            OCT      00000                                 #  00 NOT IN USE
002845: 23,2053           40000                           OCT      40000                                 #  01 SPECIFY MACHINE ADDRESS (FRACTIONAL)
002846: 23,2054           40000                           OCT      40000                                 #  02 SPECIFY MACHINE ADDRESS (WHOLE)
002847: 23,2055           40000                           OCT      40000                                 #  03 SPECIFY MACHINE ADDRESS (DEGREES)
002848: 23,2056           40000                           OCT      40000                                 #  04 SPECIFY MACHINE ADDRESS (HOURS)
002849: 23,2057           40000                           OCT      40000                                 #  05 SPECIFY MACHINE ADDRESS (SECONDS)
002850: 23,2060           40000                           OCT      40000                                 #  06 SPECIFY MACHINE ADDRESS (GYRO DEG)
002851: 23,2061           00000                           OCT      00000                                 #  07 SPARE
002852: 23,2062           77776                           OCT      77776                                 #  10 CHANNEL TO BE SPECIFIED
002853: 23,2063           00000                           OCT      00000                                 #  11 SPARE
002854: 23,2064           00000                           OCT      00000                                 #  12 SPARE
002855: 23,2065           00000                           OCT      00000                                 #  13 SPARE
002856: 23,2066           00000                           OCT      00000                                 #  14 SPARE
002857: 23,2067           77777                           OCT      77777                                 #  15 INCREMENT MACHINE ADDRESS
002858: 23,2070           00024                           ECADR    TIME2                                 #  16 TIME SECONDS
002859: 23,2071           00024                           ECADR    TIME2                                 #  17 TIME HOURS
002860: 23,2072           00032                           ECADR    CDUX                                  #  20 ICDU
002861:
002862: 23,2073           00037                           ECADR    PIPAX                                 #  21 PIPAS
002863: 23,2074           00400                           ECADR    THETAD                                #  22 NEW ANGLES I
002864: 23,2075           00342                           ECADR    DSPTEM2                               #  23 DELTA ANGLES I
002865: 23,2076           00337                           ECADR    DSPTEM1                               #  24 DELTA TIME (SEC)
002866: 23,2077           00337                           ECADR    DSPTEM1                               #  25 CHECKLIST
002867: 23,2100           00337                           ECADR    DSPTEM1                               #  26 PRIO/DELAY, ADRES, BBCON
002868: 23,2101           01357                           ECADR    SMODE                                 #  27 SELF TEST ON/OFF SWITCH
002869: 23,2102           00337                           ECADR    DSPTEM1                               #  30 STAR NUMBERS
002870: 23,2103           01361                           ECADR    SFAIL                                 #  31 SFAIL, ERCOUNT, FAILREG.
002871: 23,2104           02166                           ECADR    TDEC                                  #  32 DECISION TIME (MIDCOURSE)
002872: 23,2105           02046                           ECADR    TET                                   #  33 EPHEMERIS TIME(MIDCOURSE)
002873: 23,2106           02174                           ECADR    MEASQ                                 #  34 MEASURED QUANTITY (MIDCOURSE)
002874: 23,2107           00337                           ECADR    DSPTEM1                               #  35 INBIT MESSAGE


002876: 23,2110           01500                           ECADR    LANDMARK                              #  36 LANDMARK DATA 1
002877: 23,2111           01503                           ECADR    LANDMARK   +3                         #  37 LANDMARK DATA 2
002878: 23,2112           00035                           ECADR    OPTY                                  #  40 RENDEZVOUS RADAR ANGLES (TRUN, SHAFT)
002879: 23,2113           00423                           ECADR    TANG                                  #  41 NEW REND. RADAR ANGLES (TRUN, SHAFT)
002880: 23,2114           00342                           ECADR    DSPTEM2                               #  42 AOT ROTATION ANGLES
002881: 23,2115           00374                           ECADR    XYMARK                                #  43 AOT DETENT CODE
002882: 23,2116           00357                           ECADR    FORVEL                                #  44 FORWARD VELOCITY, LATERAL VELOCITY
002883: 23,2117           03032                           ECADR    PCOM                                  #  45 ROTATIONAL HAND CONTROLLER ANGLE RATE
002884: 23,2120           00000                           OCT      00000                                 #  46 SPARE
002885: 23,2121           00000                           OCT      00000                                 #  47 SPARE
002886: 23,2122           01363                           ECADR    FAILREG                               #  50 FAILREG, FAILREG +1, FAILREG +2.
002887: 23,2123           01342                           ECADR    ALMCADR                               #  51 ALCADR, ALMCADR +1
002888: 23,2124           01444                           ECADR    GBIASX                                #  52 GYRO BIAS DRIFT
002889: 23,2125           01447                           ECADR    ADIAX                                 #  53 GYRO INPUT AXIS ACCELERATION DRIFT
002890: 23,2126           01452                           ECADR    ADSRAX                                #  54 GYRO SPIN AXIS ACCELERATION DRIFT
002891:
002892:                                                                                                  #  NN  MIXED NOUNS
002893: 23,2127           02000                           OCT      02000                                 #  55 LANDING RADAR ALTITUDE, TIME(SEC)
002894: 23,2130           02002                           OCT      02002                                 #  56 LANDING RADAR VELX, TIME(SEC)
002895:
002896: 23,2131           02004                           OCT      02004                                 #  57 LANDING RADAR VELY, TIME(SEC)
002897: 23,2132           02006                           OCT      02006                                 #  60 LANDING RADAR VELZ, TIME(SEC)
002898: 23,2133           02010                           OCT      02010                                 #  61 TARGET AZIMUTH AND ELEVATION
002899: 23,2134           04012                           OCT      04012                                 #  62 RENDEZVOUS RADAR RANGE, TRUN, SHAFT
002900: 23,2135           04015                           OCT      04015                                 #  63 REND. RADAR RANGE RATE, TRUN, SHAFT
002901: 23,2136           04020                           OCT      04020                                 #  64 INITIAL ALT, FINAL ALT, ALT RATE
002902: 23,2137           02023                           OCT      02023                                 #  65 SAMPLED TIME (HOURS AND SECONDS)
002903:                                                                                                  #       (FETCHED IN INTERRUPT)
002904: 23,2140           04025                           OCT      04025                                 #  66 SYSTEM TEST RESULTS
002905: 23,2141           04030                           OCT      04030                                 #  67 DELTA GYRO ANGLES
002906: 23,2142           02033                           OCT      02033                                 #  70 OPTICAL TRACKER ANGLES (AZIMUTH,ELEV)
002907: 23,2143           02035                           OCT      02035                                 #  71 DESIRED OPT. TRACK. ANGLES (AZ, ELEV)
002908: 23,2144           04037                           OCT      04037                                 #  72 DELTA POSITION
002909: 23,2145           04042                           OCT      04042                                 #  73 DELTA VELOCITY
002910: 23,2146           04045                           OCT      04045                                 #  74 MEASUREMENT DATA (MIDCOURSE)
002911: 23,2147           04050                           OCT      04050                                 #  75 MEASUREMENT DEVIATIONS (MIDCOURSE)
002912: 23,2150           04053                           OCT      04053                                 #  76 POSITION VECTOR
002913: 23,2151           04056                           OCT      04056                                 #  77 VELOCITY VECTOR
002914:
002915:                                                                                                  #  NN        NORMAL NOUNS
002916: 23,2152           00000        NNTYPTAB           OCT      00000                                 #  00 NOT IN USE
002917:
002918: 23,2153           00040                           OCT      00040                                 #  01 1COMP  FRACTIONAL
002919: 23,2154           00140                           OCT      00140                                 #  02 1COMP  WHOLE
002920: 23,2155           00102                           OCT      00102                                 #  03 1COMP  DEGREES
002921: 23,2156           00241                           OCT      00241                                 #  04 1COMP  HOURS
002922: 23,2157           00200                           OCT      00200                                 #  05 1COMP  SECONDS
002923: 23,2160           00343                           OCT      00343                                 #  06 1COMP  GYRO DEGREES
002924: 23,2161           00000                           OCT      00000                                 #  07        SPARE
002925: 23,2162           00000                           OCT      00000                                 #  10 1COMP  OCTAL ONLY


002927: 23,2163           00000                           OCT      00000                                 #  11        SPARE
002928: 23,2164           00000                           OCT      00000                                 #  12        SPARE
002929:
002930: 23,2165           00000                           OCT      00000                                 #  13        SPARE
002931: 23,2166           00000                           OCT      00000                                 #  14        SPARE
002932: 23,2167           00000                           OCT      00000                                 #  15 1COMP  OCTAL ONLY
002933: 23,2170           00200                           OCT      00200                                 #  16 1COMP  SECONDS
002934: 23,2171           00241                           OCT      00241                                 #  17 1COMP  HOURS
002935: 23,2172           04102                           OCT      04102                                 #  20 3COMP  DEGREES
002936: 23,2173           04140                           OCT      04140                                 #  21 3COMP  WHOLE
002937: 23,2174           04102                           OCT      04102                                 #  22 3COMP  DEGREES
002938: 23,2175           04102                           OCT      04102                                 #  23 3COMP  DEGREES
002939: 23,2176           00200                           OCT      00200                                 #  24 1COMP  SECONDS
002940: 23,2177           00140                           OCT      00140                                 #  25 1COMP  WHOLE
002941: 23,2200           04000                           OCT      04000                                 #  26 3COMP  OCTAL ONLY
002942: 23,2201           00140                           OCT      00140                                 #  27 1COMP  WHOLE
002943: 23,2202           04140                           OCT      04140                                 #  30 3COMP  WHOLE
002944: 23,2203           04000                           OCT      04000                                 #  31 3COMP  OCTAL ONLY
002945: 23,2204           00252                           OCT      00252                                 #  32 1COMP  TIME WEEKS
002946: 23,2205           00252                           OCT      00252                                 #  33 1COMP  TIME WEEKS
002947: 23,2206           00350                           OCT      00350                                 #  34 1COMP  POSITION
002948: 23,2207           04000                           OCT      04000                                 #  35 3COMP  OCTAL ONLY
002949: 23,2210           04000                           OCT      04000                                 #  36 3COMP  OCTAL ONLY
002950: 23,2211           04000                           OCT      04000                                 #  37 3COMP  OCTAL ONLY
002951: 23,2212           02102                           OCT      02102                                 #  40 2COMP  DEGREES
002952: 23,2213           02102                           OCT      02102                                 #  41 2COMP  DEGREES
002953:
002954: 23,2214           02102                           OCT      02102                                 #  42 2COMP  DEGREES
002955: 23,2215           00140                           OCT      00140                                 #  43 1COMP  WHOLE
002956: 23,2216           02161                           OCT      02161                                 #  44 2COMP  FORWARD/LATERAL VELOCITY
002957: 23,2217           04162                           OCT      04162                                 #  45 3COMP  ROT HAND CONT ANGLE RATE
002958: 23,2220           00000                           OCT      00000                                 #  46        SPARE
002959: 23,2221           00000                           OCT      00000                                 #  47        SPARE
002960: 23,2222           04000                           OCT      04000                                 #  50 3COMP  OCTAL ONLY
002961: 23,2223           02000                           OCT      02000                                 #  51 2COMP  OCTAL ONLY
002962: 23,2224           04144                           OCT      04144                                 #  52 3COMP  GYRO BIAS DRIFT
002963: 23,2225           04145                           OCT      04145                                 #  53 3COMP  GYRO AXIS ACCEL. DRIFT
002964: 23,2226           04145                           OCT      04145                                 #  54 3COMP  GYRO AXIS ACCEL. DRIFT
002965:
002966:                                                                                                  #  NN        MIXED NOUNS
002967: 23,2227           00016                           OCT      00016                                 #  55 2COMP  LANDING RADAR ALT, SECONDS
002968: 23,2230           00023                           OCT      00023                                 #  56 2COMP  LANDING RADAR VELX, SECONDS
002969: 23,2231           00024                           OCT      00024                                 #  57 2COMP  LANDING RADAR VELY, SECONDS
002970: 23,2232           00025                           OCT      00025                                 #  60 2COMP  LANDING RADAR VELZ, SECONDS
002971: 23,2233           00542                           OCT      00542                                 #  61 2COMP  DEGREES, ELEVATION DEGREES
002972: 23,2234           04114                           OCT      04114                                 #  62 3COMP  REND. RADAR RANGE, DEG, DEG
002973: 23,2235           04115                           OCT      04115                                 #  63 3COMP  REND. RAD. RANGE RATE, DEG,DEG
002974: 23,2236           40757                           OCT      40757                                 #  64 3COMP  IN/FN ALT, IN/FN ALT, ALT RATE
002975: 23,2237           00001                           OCT      00001                                 #  65 2COMP  HOURS, SECONDS
002976: 23,2240           00000                           OCT      00000                                 #  66 3COMP  WHOLE, FRACTIONAL, WHOLE
002977:
002978: 23,2241           06143                           OCT      06143                                 #  67 3COMP  GYRO DEGREES FOR EACH
002979: 23,2242           00126                           OCT      00126                                 #  70 2COMP  OPT TRACK AZIMUTH, DEGREES


002981: 23,2243           00126                           OCT      00126                                 #  71 2COMP  OPT TRACK AZIMUTH, DEGREES
002982: 23,2244           20410                           OCT      20410                                 #  72 3COMP  POSITION FOR EACH
002983: 23,2245           22451                           OCT      22451                                 #  73 3COMP  VELOCITY FOR EACH
002984: 23,2246           00412                           OCT      00412                                 #  74 3COMP  TIME WEEKS, POSITION, WHOLE
002985: 23,2247           20450                           OCT      20450                                 #  75 3COMP  POSITION, VELOCITY, POSITION
002986: 23,2250           20410                           OCT      20410                                 #  76 3COMP  POSITION FOR EACH
002987: 23,2251           22451                           OCT      22451                                 #  77 3COMP  VELOCITY FOR EACH
002988:
002989:
002990: 23,2252           00006        SFINTAB            OCT      00006                                 #  WHOLE,TIME(SEC)
002991: 23,2253           03240                           OCT      03240
002992: 23,2254           00253                           OCT      00253                                 #  TIME HOURS ( = 1.3..... )
002993: 23,2255           25124                           OCT      25124                                 #    (POINT BETWEEN BITS 7-8 )
002994: 23,2256           00000                           OCT      0                                     #  DEGREES (SFCON IN DEGINSF )
002995: 23,2257           00000                           OCT      0
002996: 23,2260           10707                           OCT      10707                                 #  GYRO DEGREES
002997: 23,2261           03435                           OCT      03435                                 #              UPPED BY 1
002998: 23,2262           00001                           OCT      00001                                 #  GYRO BIAS DRIFT
002999: 23,2263           02133                           OCT      02133
003000: 23,2264           00011                           OCT      00011                                 #  GYRO AXIS ACCEL. DRIFT
003001: 23,2265           30322                           OCT      30322
003002: 23,2266           00004                           OCT      00004                                 #  PIPA BIAS
003003: 23,2267           14021                           OCT      14021
003004: 23,2270           00314                           OCT      00314                                 #  PIPA SCALE ERROR.
003005: 23,2271           31463                           OCT      31463
003006: 23,2272           23420                           OCT      23420                                 #  POSITION
003007: 23,2273           00000                           OCT      00000
003008: 23,2274           00201                           OCT      00201                                 #  VELOCITY
003009: 23,2275           30327                           OCT      30327                                 #  ( POINT BETWEEN BITS 7-8 )
003010: 23,2276           01371                           OCT      01371                                 #  TIME WEEKS
003011: 23,2277           34750                           OCT      34750                                 #  ( POINT BETWEEN BITS 7-8 )
003012:
003013: 23,2300           00001                           OCT      00001                                 #  ELEVATION DEGREES
003014: 23,2301           03434                           OCT      03434
003015: 23,2302           00006                           OCT      00006                                 #  RENDEZVOUS RADAR RANGE
003016: 23,2303           20162                           OCT      20162
003017: 23,2304           00011                           OCT      00011                                 #  RENDEZVOUS RADAR RANGE RATE
003018: 23,2305           27066                           OCT      27066
003019: 23,2306           00005                           OCT      00005                                 #  LANDING RADAR ALTITUDE
003020: 23,2307           24733                           OCT      24733
003021: 23,2310           00002                           OCT      00002                                 #  INITIAL/FINAL ALTITUDE
003022: 23,2311           23224                           OCT      23224
003023: 23,2312           00014                           OCT      00014                                 #  ALTITUDE RATE
003024: 23,2313           06500                           OCT      06500
003025: 23,2314           00012                           OCT      00012                                 #  FORWARD/LATERAL VELOCITY
003026: 23,2315           36455                           OCT      36455
003027: 23,2316           04256                           OCT      04256                                 #  ROT HAND CONT ANGLE RATE
003028: 23,2317           07071                           OCT      07071
003029: 23,2320           00011                           OCT      00011                                 #  LANDING RADAR VELX
003030: 23,2321           17410                           OCT      17410


003032: 23,2322           00004                           OCT      00004                                 #  LANDING RADAR VELY
003033: 23,2323           33740                           OCT      33740
003034: 23,2324           00007                           OCT      00007                                 #  LANDING RADAR VELZ
003035: 23,2325           03701                           OCT      03701
003036: 23,2326           00005                           OCT      00005                                 #  OPTICAL AZIMUTH TRACKER ANGLE
003037: 23,2327           21616                           OCT      21616
003038:                                                                                                  #  END OF SFINTAB
003039:
003040:
003041: 23,2330           05174        SFOUTAB            OCT      05174                                 #  WHOLE, TIME(SEC)
003042: 23,2331           13261                           OCT      13261
003043: 23,2332           27670                           OCT      27670                                 #  TIME HOURS
003044: 23,2333           31357                           OCT      31357
003045:
003046: 23,2334           00000                           OCT      0                                     #  DEGREES
003047: 23,2335           00000                           OCT      0
003048: 23,2336           00714                           OCT      00714                                 #  GYRO DEGREES
003049: 23,2337           31463                           OCT      31463                                 #  (POINT BETWEEN BITS 7-8)
003050: 23,2340           35753                           OCT      35753                                 #  GYRO BIAS DRIFT
003051: 23,2341           32323                           OCT      32323
003052: 23,2342           03216                           OCT      03216                                 #  GYRO AXIS ACCEL. DRIFT
003053: 23,2343           06400                           OCT      06400
003054: 23,2344           07237                           OCT      07237                                 #  PIPA BIAS
003055: 23,2345           37776                           OCT      37776
003056: 23,2346           00120                           OCT      00120                                 #  PIPA SCALE ERROR
003057: 23,2347           00000                           OCT      00000
003058: 23,2350           00321                           OCT      00321                                 #  POSITION
003059: 23,2351           26706                           OCT      26706                                 #  ( POINT BETWEEN BITS 7-8 )
003060: 23,2352           37441                           OCT      37441                                 #  VELOCITY
003061: 23,2353           14247                           OCT      14247
003062: 23,2354           05300                           OCT      05300                                 #  TIME WEEKS
003063: 23,2355           20305                           OCT      20305
003064: 23,2356           34631                           OCT      34631                                 #  ELEVATION DEGREES
003065: 23,2357           23146                           OCT      23146
003066: 23,2360           04725                           OCT      04725                                 #  RENDEZVOUS RADAR RANGE
003067: 23,2361           35454                           OCT      35454
003068: 23,2362           03225                           OCT      03225                                 #  RENDEZVOUS RADAR RANGE RATE
003069:
003070: 23,2363           07470                           OCT      07470
003071: 23,2364           05521                           OCT      05521                                 #  LANDING RADAR ALTITUDE
003072: 23,2365           30260                           OCT      30260
003073: 23,2366           14226                           OCT      14226                                 #  INITIAL/FINAL ALTITUDE
003074: 23,2367           31757                           OCT      31757
003075: 23,2370           02476                           OCT      02476                                 #  ALTITUDE RATE
003076: 23,2371           05531                           OCT      05531
003077: 23,2372           02727                           OCT      02727                                 #  FORWARD/LATERAL VELOCITY
003078: 23,2373           16415                           OCT      16415
003079: 23,2374           00007                           OCT      00007                                 #  ROT HAND CONT ANGLE RATE
003080: 23,2375           13734                           OCT      13734
003081: 23,2376           03277                           OCT      03277                                 #  LANDING RADAR VELX
003082: 23,2377           14165                           OCT      14165


003084: 23,2400           06442                           OCT      06442                                 #  LANDING RADAR VELY
003085: 23,2401           04735                           OCT      04735
003086: 23,2402           04374                           OCT      04374                                 #  LANDING RADAR VELZ
003087: 23,2403           30251                           OCT      30251
003088: 23,2404           05605                           OCT      05605                                 #  OPTICAL TRACKER AZIMUTH ANGLE
003089: 23,2405           03656                           OCT      03656
003090:                                                                                                  #  END OF SFOUTAB
003091:
003092:
003093:                                                                                                  #  MIXNOUN  SF ROUT
003094: 23,2406           03462        IDADDTAB           ECADR    RSTACK     +18D                       #  01       LANDING RADAR ALTITUDE
003095: 23,2407           03466                           ECADR    RSTACK     +22D                       #  01       SECONDS
003096: 23,2410           03440                           ECADR    RSTACK                                #  02       LANDING RADAR VELX
003097: 23,2411           03444                           ECADR    RSTACK     +4                         #  02       SECONDS
003098: 23,2412           03446                           ECADR    RSTACK     +6                         #  03       LANDING RADAR VELY
003099: 23,2413           03452                           ECADR    RSTACK     +10D                       #  03       SECONDS
003100: 23,2414           03454                           ECADR    RSTACK     +12D                       #  04       LANDING RADAR VELZ
003101: 23,2415           03460                           ECADR    RSTACK     +16D                       #  04       SECONDS
003102:
003103: 23,2416           00337                           ECADR    DSPTEM1                               #  05       DEGREES
003104: 23,2417           00340                           ECADR    DSPTEM1    +1                         #  05       ELEVATION DEGREES
003105: 23,2420           03440                           ECADR    RSTACK                                #  06       RENDEZVOUS RADAR RANGE
003106: 23,2421           03442                           ECADR    RSTACK     +2                         #  06       DEGREES
003107: 23,2422           03443                           ECADR    RSTACK     +3                         #  06       DEGREES
003108: 23,2423           03446                           ECADR    RSTACK     +6                         #  07       RENDEZVOUS RADAR RANGE RATE
003109: 23,2424           03450                           ECADR    RSTACK     +8D                        #  07       DEGREES
003110: 23,2425           03451                           ECADR    RSTACK     +9D                        #  07       DEGREES
003111: 23,2426           00351                           ECADR    ALT                                   #  10       INITIAL/FINAL ALTITUDE
003112: 23,2427           00354                           ECADR    FINALT                                #  10       INITIAL/FINAL ALTITUDE
003113: 23,2430           00353                           ECADR    ALTRATE                               #  10       ALTITUDE RATE
003114: 23,2431           00013                           ECADR    SAMPTIME                              #  11       HOURS
003115: 23,2432           00013                           ECADR    SAMPTIME                              #  11       SECONDS
003116: 23,2433           00342                           ECADR    DSPTEM2                               #  12       WHOLE
003117: 23,2434           00343                           ECADR    DSPTEM2    +1                         #  12       FRACTIONAL
003118: 23,2435           00344                           ECADR    DSPTEM2    +2                         #  12       WHOLE
003119: 23,2436           00403                           ECADR    DELVX                                 #  13       GYRO DEGREES
003120: 23,2437           00405                           ECADR    DELVX      +2                         #  13       GYRO DEGREES
003121: 23,2440           00407                           ECADR    DELVX      +4                         #  13       GYRO DEGREES
003122: 23,2441           01475                           ECADR    AZANG                                 #  14       OPT TRACK AZIMUTH ANGLE
003123: 23,2442           01475                           ECADR    ELANG                                 #  14       DEGREES
003124: 23,2443           01475                           ECADR    DESLOTSY                              #  15       OPT TRACK AZIMUTH ANGLE
003125: 23,2444           01475                           ECADR    DESLOTSX                              #  15       DEGREES
003126:
003127: 23,2445           02052                           ECADR    DELR                                  #  16       POSITION
003128: 23,2446           02054                           ECADR    DELR       +2                         #  16       POSITION
003129: 23,2447           02056                           ECADR    DELR       +4                         #  16       POSITION
003130: 23,2450           02060                           ECADR    DELVEL                                #  17       VELOCITY
003131: 23,2451           02062                           ECADR    DELVEL     +2                         #  17       VELOCITY
003132: 23,2452           02064                           ECADR    DELVEL     +4                         #  17       VELOCITY
003133: 23,2453           02166                           ECADR    TDEC                                  #  20       TIME WEEKS
003134: 23,2454           02174                           ECADR    MEASQ                                 #  20       POSITION


003136: 23,2455           02200                           ECADR    MEASMODE                              #  20       WHOLE
003137: 23,2456           00337                           ECADR    DSPTEM1                               #  21       POSITION
003138:
003139: 23,2457           00341                           ECADR    DSPTEM1    +2                         #  21       VELOCITY
003140: 23,2460           02176                           ECADR    DELTAQ                                #  21       POSITION
003141: 23,2461           00337                           ECADR    DSPTEM1                               #  22       POSITION
003142: 23,2462           00341                           ECADR    DSPTEM1    +2                         #  22       POSITION
003143: 23,2463           00343                           ECADR    DSPTEM1    +4                         #  22       POSITION
003144: 23,2464           00337                           ECADR    DSPTEM1                               #  23       VELOCITY
003145: 23,2465           00341                           ECADR    DSPTEM1    +2                         #  23       VELOCITY
003146: 23,2466           00343                           ECADR    DSPTEM1    +4                         #  23       VELOCITY
003147: 23,2467           00000                           OCT      00000                                 #           SPARE
003148: 23,2470           00000                           OCT      00000                                 #           SPARE
003149: 23,2471           00000                           OCT      00000                                 #           SPARE
003150: 23,2472           00000                           OCT      00000                                 #           SPARE
003151: 23,2473           00000                           OCT      00000                                 #           SPARE
003152: 23,2474           00000                           OCT      00000                                 #           SPARE
003153:                                                                                                  #  END OF IDADDTAB
003154:
003155:                                                                                                  #  MIXNOUN  SF ROUT
003156: 23,2475           00204        RUTMXTAB           OCT      00204                                 #  01  LANDING RADAR ALTITUDE, SECONDS
003157: 23,2476           00204                           OCT      00204                                 #  02  LANDING RADAR VELX, SECONDS
003158: 23,2477           00204                           OCT      00204                                 #  03  LANDING RADAR VELY, SECONDS
003159: 23,2500           00204                           OCT      00204                                 #  04  LANDING RADAR VELZ, SECONDS
003160:
003161: 23,2501           00142                           OCT      00142                                 #  05  DEGREES, ELEVATION DEGREES
003162: 23,2502           04104                           OCT      04104                                 #  06  RENDEZVOUS RADAR RANGE, DEG, DEG
003163: 23,2503           04104                           OCT      04104                                 #  07  REND. RADAR RANGE RATE, DEG, DEG
003164: 23,2504           06204                           OCT      06204                                 #  10  INIT/FIN ALT, INIT/FIN ALT, ALT RATE
003165: 23,2505           00205                           OCT      00205                                 #  11  HOURS, SECONDS
003166: 23,2506           06043                           OCT      06043                                 #  12  WHOLE, FRACTIONAL, WHOLE
003167: 23,2507           16347                           OCT      16347                                 #  13  GYRO DEGREES (FOR EACH)
003168: 23,2510           00104                           OCT      00104                                 #  14  OPT TRACK AZIMUTH ANGLE, DEGREES
003169: 23,2511           00104                           OCT      00104                                 #  15  OPT TRACK AZIMUTH ANGLE, DEGREES
003170: 23,2512           16347                           OCT      16347                                 #  16  POSITION (FOR EACH)
003171: 23,2513           12245                           OCT      12245                                 #  17  VELOCITY (FOR EACH)
003172: 23,2514           06345                           OCT      06345                                 #  20  TIME WEEKS, POSITION, WHOLE
003173: 23,2515           16247                           OCT      16247                                 #  21  POSITION, VELOCITY, POSITION
003174: 23,2516           16347                           OCT      16347                                 #  22  POSITION (FOR EACH)
003175: 23,2517           12245                           OCT      12245                                 #  23  VELOCITY (FOR EACH)
003176:                                                                                                  #  END OF RUTMXTAB
003177:


003179:                                                                                                  #  MISCELLANEOUS SERVICE ROUTINES IN FIXED/FIXED
003180:
003181:    4502                                           BLOCK    02
003182:
003183:                                                                                                  #  SETNCADR       E CADR ARRIVES IN A. IT IS STORED IN NOUNCADR. EBANK BITS
003184:                                                                                                  #                 ARE SET. E ADRES IS DERIVED AND PUT INTO NOUNADD.
003185:
003186:    4502           54310        SETNCADR           TS       NOUNCADR                              #  STORE ECADR
003187:    4503           54003                           TS       EBANK                                 #  SET EBANK BITS
003188:    4504           74553                           MASK     LOW8
003189:    4505           65370                           AD       OCT1400
003190:    4506           54135                           TS       NOUNADD                               #  PUT E ADRES INTO NOUNADD
003191:    4507           00002                           TC       Q
003192:
003193:                                                                                                  #  SETNADD        GETS E CADR FROM NOUNCADR, SETS EBANK BITS, DERIVES
003194:                                                                                                  #                 E ADRES AND PUTS IT INTO NOUNADD.
003195:
003196:    4510           30310        SETNADD            CA       NOUNCADR
003197:    4511           14503                           TCF      SETNCADR   +1
003198:
003199:                                                                                                  #  SETEBANK       E CADR ARRIVES IN A. EBANK BITS ARE SET. E ADRES IS
003200:                                                                                                  #                 DERIVED AND LEFT IN A.
003201:
003202:    4512           54003        SETEBANK           TS       EBANK                                 #  SET EBANK BITS
003203:    4513           74553                           MASK     LOW8
003204:    4514           65370                           AD       OCT1400                               #  E ADRES LEFT IN A
003205:    4515           00002                           TC       Q
003206:
003207:
003208:    4516           00016        R1D1               OCT      16
003209:    4517           00011        R2D1               OCT      11
003210:    4520           00004        R3D1               OCT      4
003211:
003212:    4521           54020        RIGHT5             TS       CYR
003213:    4522           40020                           CS       CYR
003214:    4523           40020                           CS       CYR
003215:    4524           40020                           CS       CYR
003216:    4525           40020                           CS       CYR
003217:    4526           56020                           XCH      CYR
003218:    4527           00002                           TC       Q
003219:
003220:    4530           54022        LEFT5              TS       CYL
003221:    4531           40022                           CS       CYL
003222:    4532           40022                           CS       CYL


003224:    4533           40022                           CS       CYL
003225:    4534           40022                           CS       CYL
003226:    4535           56022                           XCH      CYL
003227:    4536           00002                           TC       Q
003228:
003229:    4537           60000        SLEFT5             DOUBLE
003230:    4540           60000                           DOUBLE
003231:    4541           60000                           DOUBLE
003232:    4542           60000                           DOUBLE
003233:    4543           60000                           DOUBLE
003234:    4544           00002                           TC       Q
003235:
003236:
003237:    4545           00037        LOW5               OCT      37
003238:    4546           01740        MID5               OCT      1740
003239:    4547           76000        HI5                OCT      76000                                 #  MUST STAY HERE
003240:
003241:    4550     5741               TCNOVAC            =        SVCT3      +5
003242:    4550           05701        TCWAIT             TC       WAITLIST
003243:    4551     5735               TCTSKOVR           =        SVCT3      +1
003244:    4551           05534        TCFINDVC           TC       FINDVAC
003245:
003246:
003247:    4552     5226               CHRPRIO            =        PRIO30                                #  EXEC PRIORITY OF CHARIN
003248:
003249:    4552           03777        LOW11              OCT      3777
003250:    4553     4552               B12-1              EQUALS   LOW11
003251:    4553           00377        LOW8               OCT      377
003252:    4554           00023        VD1                OCT      23
003253:    4555           00021        ND1                OCT      21
003254:    4556           00025        MD1                OCT      25
003255:
003256:    4557           00012        BINCON             DEC      10         B-14
003257:
003258:    4560           37747        FALTON             CA       BIT7                                  #  TURN ON OPERATOR ERROR LIGHT
003259:    4561           00006                           EXTEND
003260:
003261:    4562           05011                           WOR      DSALMOUT                              #  BIT 7 OF CHANNEL 11
003262:    4563           00002                           TC       Q
003263:
003264:    4564           47747        FALTOF             CS       BIT7                                  #  TURN OFF OPERATOR ERROR LIGHT
003265:    4565           00006                           EXTEND
003266:    4566           03011                           WAND     DSALMOUT                              #  BIT 7 OF CHANNEL 11
003267:    4567           00002                           TC       Q
003268:
003269:    4570           37751        RELDSPON           CAF      BIT5                                  #  TURN ON KEY RELEASE LIGHT
003270:    4571           00006                           EXTEND
003271:    4572           05011                           WOR      DSALMOUT                              #  BIT 5 OF CHANNEL 11
003272:    4573           00002                           TC       Q
003273:


003275:    4574           00006        LODSAMPT           EXTEND
003276:    4575           30025                           DCA      TIME2
003277:    4576           52014                           DXCH     SAMPTIME
003278:    4577           00002                           TC       Q
003279:
003280:
003281:    4600           00006        TPSL1              EXTEND                                         #  SHIFTS MPAC, +1, +2 LEFT 1
003282:    4601           30146                           DCA      MPAC       +1                         #  LEAVES OVFIND SET TO +/- 1 FOR OF/UF
003283:    4602           20146                           DAS      MPAC       +1
003284:    4603           60144                           AD       MPAC
003285:    4604           26144                           ADS      MPAC
003286:    4605           54007                           TS       7                                     #  TS A DOES NOT CHANGE A ON OF/UF.
003287:    4606           00002                           TC       Q                                     #  NO NET OF/UF
003288:    4607           54111                           TS       OVFIND                                #  OVFIND SET TO +/- 1 FOR OF/UF
003289:    4610           00002                           TC       Q
003290:
003291:
003292:    4611           37750        FLASHON            CAF      BIT6                                  #  TURN ON V/N FLASH
003293:    4612           00006                           EXTEND                                         #  BIT 6 OF CHANNEL 11
003294:    4613           05011                           WOR      DSALMOUT
003295:    4614           00002                           TC       Q
003296:
003297:    4615           47750        FLASHOFF           CS       BIT6                                  #  TURN OFF V/N FLASH
003298:    4616           00006                           EXTEND
003299:    4617           03011                           WAND     DSALMOUT                              #  BIT 6 OF CHANNEL 11
003300:    4620           00002                           TC       Q
003301:


003303:                                                                                                  #  INTERNAL ROUTINES THAT USE THE KEYBOARD AND DISPLAY SYSTEM(THRU
003304:                                                                                                  #  NVSUB) MUST  TC GRABDSP  BEFOREHAND , TO GRAB THE DISPLAY SYSTEM AND
003305:
003306:                                                                                                  #  MAKE IT BUSY TO OTHER INTERNAL USERS.
003307:
003308:                                                                                                  #        WHEN FINISHED , THERE MUST BE A TC FREEDSP , TO RELEASE THE
003309:                                                                                                  #  SYSTEM FOR OTHER INTERNAL USERS.
003310:
003311:                                                                                                  #        THE CALLING SEQUENCES ARE
003312:                                                                                                  #  L        TC     GRABDSP
003313:                                                                                                  #  L+1      RETURN HERE WHEN SYSTEM IS ALREADY GRABBED
003314:                                                                                                  #  L+2      RETURN HERE MEANS YOU HAVE IT
003315:
003316:                                                                                                  #  L        TC     NVSUB
003317:                                                                                                  #  L+1      RETURN HERE IF OPERATOR HAS INTERVENED
003318:                                                                                                  #  L+2      RETURN HERE AFTER EXECUTION
003319:
003320:                                                                                                  #        A ROUTINE CALLED GRABUSY IS PROVIDED (USE IS OPTIONAL) TO PUT YOUR
003321:                                                                                                  #  JOB TO SLEEP UNTIL  THE SYSTEM IS FREED BY THE JOB HOLDING IT.
003322:                                                                                                  #  GRABUSY CANNOT BE CALLED FROM E MEMORY, SINCE JOBSLEEP AND JOBWAKE
003323:                                                                                                  #  HANDLE ONLY FIXED MEMORY.
003324:                                                                                                  #  YOUR CADR IS PUT AT FIRST AVAILABLE SLOT IN A WAITING LIST (FIFO).
003325:
003326:                                                                                                  #        THE CALLING SEQUENCE IS
003327:
003328:                                                                                                  #           CAF    WAKEFCADR
003329:                                                                                                  #           TC     GRABUSY
003330:
003331:                                                                                                  #        A ROUTINE CALLED  NVSUBUSY IS PROVIDED (USE IS OPTIONAL)  TO PUT
003332:                                                                                                  #  YOUR JOB TO SLEEP UNTIL THE OPERATOR RELEASES IT.
003333:                                                                                                  #  NVSUBUSY CANNOT BE CALLED FROM E MEMORY, SINCE JOBSLEEP AND JOBWAKE
003334:                                                                                                  #  HANDLE ONLY FIXED MEMORY.
003335:                                                                                                  #                                              YOUR CADR IS PUT
003336:                                                                                                  #  ON TOP OF A WAITING LIST (FIFO).  IT ALSO TURNS ON KEY RELEASE LIGHT.
003337:
003338:                                                                                                  #         THE CALLING SEQUENCE IS
003339:                                                                                                  #           CAF    WAKEFCADR
003340:                                                                                                  #           TC     NVSUBUSY
003341:
003342:
003343:                                                                                                  #  AFTER A TC FREEDSP, THE INTERNAL INTERLOCK IS KEPT BUSY FOR 1.75 SECS.
003344:                                                                                                  #  AFTER WHICH A CADR IS CALLED FROM THE LIST. THIS INSURES THAT ALL
003345:                                                                                                  #  DISPLAYS WAITING WILL BE VISIBLE.
003346:
003347:
003348:                                                                                                  #  GRABLOCK IS THE INTERNAL INTERLOCK FOR THE USE OF THE KEYBOARD
003349:                                                                                                  #  AND DISPLAY SYSTEM.
003350:                                                                                                  #  +0  FREE


003352:                                                                                                  #  +1  SOME INTERNAL ROUTINE HAS GRABBED DSP SYST
003353:                                                                                                  #  +2  SOME INTERNAL ROUTINE HAS GONE TO NVSUBUSY
003354:
003355:    4621           10330        GRABDSP            CCS      GRABLOCK
003356:    4622           00002                           TC       Q                                     #  ALREADY GRABBED, RETURN TO L+1
003357:    4623           37755                           CAF      ONE                                   #  NOT GRABBED, SET TO +1
003358:    4624           54330                           TS       GRABLOCK                              #  AND RETURN TO L+2
003359:    4625           17006                           TCF      Q+1
003360:
003361:
003362:    4626           35356        PREGBSY            CAF      LOW10                                 #  SPECIAL ENTRANCE FOR ROUTINES IN FIXED
003363:    4627           70002                           MASK     Q                                     #  BANKS ONLY DESIRING THE FCADR OF
003364:    4630           60004                           AD       FBANK                                 #  1 + (LOC FROM WHICH TC PREGBSY WAS DONE)
003365:    4631           05243        GRABUSY            TC       POSTJUMP                              #  TO BE ENTERED.
003366:    4632           10000                           CADR     GRABUSYB
003367: 04,3472                                           SETLOC   DOPROC     +2
003368: 04,3472           54001        GRABUSY1           TS       L
003369: 04,3473           10330                           CCS      GRABLOCK
003370: 04,3474           03477                           TC       +3                                    #  STILL GRABBED
003371: 04,3475           30001                           CA       L                                     #  NOT GRABBED SO DO DIRECT CALL
003372: 04,3476           05246                           TC       BANKJUMP
003373: 04,3477           37754                           CAF      TWO
003374: 04,3500           54134                           TS       LSTPTR
003375: 04,3501           50134                           INDEX    LSTPTR                                #  SEARCH LIST FOR FIRST AVAILABLE SPACE
003376: 04,3502           10333                           CCS      DSPLIST                               #  FROM BOTTOM.
003377: 04,3503           03505                           TC       +2
003378: 04,3504           03510                           TC       PUTINLST                              #  SPACE FOUND
003379: 04,3505           10134                           CCS      LSTPTR                                #  DECREMENT POINTER
003380: 04,3506           03500                           TC       -6
003381: 04,3507           03554                           TC       LSTFULL
003382: 04,3510           30001        PUTINLST           CA       L
003383: 04,3511           50134                           INDEX    LSTPTR
003384: 04,3512           54333                           TS       DSPLIST
003385: 04,3513           05563                           TC       JOBSLEEP
003386:
003387:
003388:                                                                                                  #  GRABWAIT IS A SPECIAL ENTRANCE FOR ROUTINES IN FIXED BANKS ONLY. IF
003389:                                                                                                  #  SYSTEM IS NOT GRABBED, IT GRABS IT AND RETURNS TO L+1 ( L = LOC FROM
003390:                                                                                                  #  WHICH THE TC GRABWAIT WAS DONE). IF SYSTEM IS GRABBED, IT PUTS CALLING
003391:                                                                                                  #  JOB TO SLEEP WITH L+1 GOING INTO LIST FOR EVENTUAL WAKING UP WHEN
003392:                                                                                                  #  SYSTEM IS FREED.
003393:
003394:    4633                                           SETLOC   GRABUSY    +2
003395:    4633           10330        GRABWAIT           CCS      GRABLOCK
003396:    4634           14626                           TCF      PREGBSY                               #  GRABBED. PUT L+1 INTO LIST. GO TO SLEEP.
003397:    4635           37755                           CAF      ONE                                   #  NOT GRABBED. GRAB AND RETURN TO L+1.


003399:    4636           54330                           TS       GRABLOCK
003400:    4637           00002                           TC       Q
003401:
003402:
003403:    4640           44645        PRENVBSY           CS       2K+3                                  #  SPECIAL ENTRANCE FOR ROUTINES IN FIXED
003404:    4641           60002                           AD       Q                                     #  BANKS ONLY DESIRING THE FCADR OF(LOC
003405:    4642           60004                           AD       FBANK                                 #  FROM WHICH THE TC PRENVBSY WAS DONE) -2
003406:    4643           05243        NVSUBUSY           TC       POSTJUMP                              #  TO BE ENTERED.
003407:    4644           10001                           CADR     NVSUBSYB
003408:    4645           02003        2K+3               OCT      2003
003409:
003410: 04,3514                                           SETLOC   PUTINLST   +4
003411: 04,3514           54001        NVSUBSY1           TS       L
003412:
003413: 04,3515           10303                           CCS      DSPLOCK                               #  TEST IF REALLY LOCKED OUT
003414: 04,3516           03521                           TC       +3                                    #  STILL BUSY
003415: 04,3517           30001                           CA       L                                     #  DSPLOCK = +0 SO RETURN DIRECTLY
003416: 04,3520           05246                           TC       BANKJUMP
003417: 04,3521           37754                           CAF      TWO                                   #  SET FOR GRABBED STATE AND NVSUBUSY USE
003418: 04,3522           54330                           TS       GRABLOCK
003419: 04,3523           30001                           CA       L
003420: 04,3524           56335                           XCH      DSPLIST    +2                         #  ENTER CADR INTO FIRST POSITION OF LIST
003421: 04,3525           56334                           XCH      DSPLIST    +1                         #          (BOTTOM)
003422: 04,3526           56333                           XCH      DSPLIST
003423: 04,3527           10000                           CCS      A
003424: 04,3530           03554                           TC       LSTFULL
003425: 04,3531           03533                           TC       +2
003426: 04,3532           03554                           TC       LSTFULL
003427: 04,3533           04570                           TC       RELDSPON
003428: 04,3534           30001                           CA       L
003429: 04,3535           05563        ENDNVBSY           TC       JOBSLEEP
003430:
003431:
003432:                                                                                                  #  NVSBWAIT IS A SPECIAL ENTRANCE FOR ROUTINES IN FIXED BANKS ONLY. IF
003433:                                                                                                  #  SYSTEM IS NOT BUSY, IT EXECUTES V/N AND RETURNS TO L+1 (L= LOC FROM
003434:                                                                                                  #  WHICH THE TC NVSBWAIT WAS DONE). IF SYSTEM IS BUSY, IT PUTS CALLING JOB
003435:
003436:                                                                                                  #  TO SLEEP WITH L-1 GOING INTO LIST FOR EVENTUAL WAKING UP WHEN SYSTEM
003437:                                                                                                  #  IS NOT BUSY.
003438:
003439:    4646                                           SETLOC   NVSUBUSY   +3
003440:    4646           54113        NVSBWAIT           TS       NVTEMP
003441:    4647           10303                           CCS      DSPLOCK
003442:    4650           14653                           TCF      NVSBWT1                               #  BUSY
003443:    4651           30002                           CA       Q                                     #  FREE. NVSUB WILL SAVE L+1 FOR RETURN
003444:    4652           14440                           TCF      NVSUB      +5                         #  AFTER EXECUTION.
003445:    4653           24002        NVSBWT1            INCR     Q                                     #  L+2. PRENVBSY WILL PUT L-1 INTO LIST AND
003446:    4654           14640                           TCF      PRENVBSY                              #  GO TO SLEEP.
003447:


003449:    4655           56002        RELDSP             XCH      Q                                     #  SET DSPLOCK TO +0, TURN RELDSP LIGHT
003450:    4656           54134                           TS       RELRET                                #  OFF, SEARCH DSPLIST
003451:    4657           37763                           CAF      NEG1
003452:    4660           60330                           AD       GRABLOCK
003453:    4661           00006                           EXTEND                                         #  SEARCH LIST ONLY IF GRABLOCK = +2
003454:    4662           64670                           BZMF     RELDSP2                               #    (SOMEONE USED NVSUBUSY)
003455:    4663           04703                           TC       WKSEARCH
003456:    4664           04670                           TC       RELDSP2                               #  LIST EMPTY
003457:    4665           05567                           TC       JOBWAKE                               #  LIST NOT EMPTY
003458:    4666           37755                           CAF      ONE
003459:    4667           54330                           TS       GRABLOCK
003460:    4670           00004        RELDSP2            INHINT
003461:    4671           47751                           CS       BIT5                                  #  TURN OFF KEY RELEASE LIGHT
003462:    4672           00006                           EXTEND                                         #  (BIT 5 OF CHANNEL 11)
003463:    4673           03011                           WAND     DSALMOUT
003464:    4674           37761                           CAF      ZERO
003465:    4675           54303                           TS       DSPLOCK
003466:    4676           00003                           RELINT
003467:    4677           00134                           TC       RELRET
003468:
003469:    4700           56002        RELDSP1            XCH      Q                                     #  SET DSPLOCK TO +0. RELDSP LIGHT OFF.
003470:    4701           54134                           TS       RELRET                                #  NO LIST SEARCH
003471:    4702           04670                           TC       RELDSP2
003472:
003473:
003474:    4703           37761        WKSEARCH           CAF      ZERO                                  #  SEARCHES LIST. LEAVES RESULT IN A.
003475:    4704           56333                           XCH      DSPLIST                               #  IF EMPTY, RETURN TO L+1.
003476:    4705           56334                           XCH      DSPLIST    +1                         #  IF NOT EMPTY, INHINT AND RETURN TO L+2.
003477:    4706           56335                           XCH      DSPLIST    +2
003478:    4707           00006                           EXTEND
003479:    4710           17011                           BZF      TCQ                                   #  EMPTY, RETURN TO L+1
003480:    4711           00004                           INHINT                                         #  NOT EMPTY
003481:    4712           17006                           TCF      Q+1                                   #  RETURN TO L+2
003482:
003483:    4713           56002        FREEDSP            XCH      Q
003484:    4714           54134                           TS       FREERET
003485:    4715           00004                           INHINT
003486:    4716           34724                           CAF      SHOTIME
003487:    4717           05701                           TC       WAITLIST
003488:    4720     0270                                  EBANK=   DSPCOUNT
003489:
003490:    4720           03536 10000                     2CADR    FREEWAIT
003491:
003492:    4722           00003                           RELINT
003493:    4723           00134                           TC       FREERET
003494:
003495:    4724           00257        SHOTIME            DEC      175        B-14                       #  SET FOR 1.75 SEC.
003496: 04,3536                                           SETLOC   ENDNVBSY   +1
003497:


003499: 04,3536           35226        FREEWAIT           CAF      CHRPRIO                               #  CALLED BY T3RUPT
003500: 04,3537           05523                           TC       NOVAC
003501:
003502: 04,3540     0270                                  EBANK=   DSPCOUNT
003503: 04,3540           03543 10000                     2CADR    FREDSPDO
003504:
003505: 04,3542           05745                           TC       TASKOVER
003506:
003507:
003508: 04,3543           04703        FREDSPDO           TC       WKSEARCH                              #  CALLED BY EXECUTIVE
003509: 04,3544           03552                           TC       LSTEMPTY                              #  LIST EMPTY
003510: 04,3545           05567                           TC       JOBWAKE                               #  LIST NOT EMPTY
003511: 04,3546           00003                           RELINT
003512: 04,3547           37755                           CAF      ONE                                   #  SET FOR GRABBED CONDITION
003513: 04,3550           54330                           TS       GRABLOCK
003514: 04,3551           05605                           TC       ENDOFJOB
003515: 04,3552           37761        LSTEMPTY           CAF      ZERO                                  #  SET FOR FREE CONDITION
003516: 04,3553           03550                           TC       -3
003517:
003518:
003519: 04,3554           06000        LSTFULL            TC       ABORT
003520: 04,3555           01206                           OCT      01206                                 #  PINBALL WAITING LINE FULL.
003521:


003523:                                                                                                  #  VBTSTLTS TURNS ON ALL DISPLAY PANEL LIGHTS. AFTER 5 SEC, IT TURNS
003524:                                                                                                  #  OFF THE CAUTION AND STATUS LIGHTS.
003525:
003526: 05,3414                                           SETLOC   DSPMMEND   +1
003527:
003528: 05,3414           00004        VBTSTLTS           INHINT
003529: 05,3415           47755                           CS       BIT1                                  #  SET BIT 1 OF IMODES33 SO IMUMON WONT
003530: 05,3416           70366                           MASK     IMODES33                              #  TURN OUT ANY LAMPS.
003531:
003532: 05,3417           67755                           AD       BIT1
003533: 05,3420           54366                           TS       IMODES33
003534:
003535: 05,3421           33457                           CAF      TSTCON1                               #  TURN ON UPLINK ACTIVITY, TEMP, KEY RLSE,
003536: 05,3422           00006                           EXTEND                                         #  V/N FLASH, OPERATOR ERROR.
003537: 05,3423           05011                           WOR      DSALMOUT
003538: 05,3424           33460                           CAF      TSTCON2                               #  TURN ON NO ATT, GIMBAL LOCK, TRACKER,
003539: 05,3425           54326                           TS       DSPTAB     +11D                       #  PROG ALM.
003540: 05,3426           37744                           CAF      BIT10                                 #  TURN ON TEST ALARM OUTBIT
003541: 05,3427           00006                           EXTEND
003542: 05,3430           05013                           WOR      CHAN13
003543: 05,3431           34557                           CAF      TEN
003544: 05,3432           54107        TSTLTS1            TS       ERCNT
003545: 05,3433           43455                           CS       FULLDSP
003546: 05,3434           50107                           INDEX    ERCNT
003547: 05,3435           54313                           TS       DSPTAB
003548: 05,3436           10107                           CCS      ERCNT
003549: 05,3437           03432                           TC       TSTLTS1
003550: 05,3440           43456                           CS       FULLDSP1
003551: 05,3441           54314                           TS       DSPTAB     +1                         #  TURN ON 3 PLUS SIGNS
003552: 05,3442           54317                           TS       DSPTAB     +4
003553: 05,3443           54321                           TS       DSPTAB     +6
003554: 05,3444           37756                           CAF      ELEVEN
003555:
003556: 05,3445           54307                           TS       NOUT
003557: 05,3446           00003                           RELINT
003558: 05,3447           33462                           CAF      SHOLTS
003559: 05,3450           00004                           INHINT
003560: 05,3451           05701                           TC       WAITLIST
003561: 05,3452     0313                                  EBANK=   DSPTAB
003562: 05,3452           03463 12000                     2CADR    TSTLTS2
003563:
003564: 05,3454           05605                           TC       ENDOFJOB                              #  DSPLOCK IS LEFT BUSY (FROM KEYBOARD
003565:                                                                                                  #  ACTION) UNTIL TSTLTS3 TO INSURE THAT
003566:                                                                                                  #  LIGHTS TEST WILL BE SEEN.
003567:
003568: 05,3455           05675        FULLDSP            OCT      05675                                 #  DISPLAY ALL 8:S
003569: 05,3456           07675        FULLDSP1           OCT      07675                                 #  DISPLAY ALL 8:S AND +
003570: 05,3457           00175        TSTCON1            OCT      00175
003571:                                                                                                  #  UPLINK ACTIVITY, TEMP, KEY RLSE,
003572:                                                                                                  #  V/N FLASH, OPERATOR ERROR.


003574: 05,3460           40650        TSTCON2            OCT      40650                                 #  DSPTAB+11D  BITS 4,6,8,9,
003575:                                                                                                  #  NO ATT, GIMBAL LOCK, TRACKER, PROG ALM.
003576: 05,3461           00115        TSTCON3            OCT      00115                                 #  CHAN 11  BITS 1, 3, 4, 7.
003577:                                                                                                  #  UPLINK ACTIVITY, TEMP, OPERATOR ERROR.
003578: 05,3462           00764        SHOLTS             OCT      764                                   #  5 SEC
003579:
003580: 05,3463           35226        TSTLTS2            CAF      CHRPRIO                               #  CALLED BY WAITLIST
003581: 05,3464           05523                           TC       NOVAC
003582: 05,3465     0313                                  EBANK=   DSPTAB
003583: 05,3465           03470 12000                     2CADR    TSTLTS3
003584:
003585: 05,3467           05745                           TC       TASKOVER
003586:
003587:
003588: 05,3470           43461        TSTLTS3            CS       TSTCON3                               #  CALLED BY EXECUTIVE
003589: 05,3471           00004                           INHINT
003590: 05,3472           00006                           EXTEND                                         #  TURN OFF  UPLINK ACTIVITY, TEMP,
003591: 05,3473           03011                           WAND     DSALMOUT                              #  OPERATOR ERROR.
003592: 05,3474           47744                           CS       BIT10                                 #  TURN OFF TEST ALARM OUTBIT
003593: 05,3475           00006                           EXTEND
003594: 05,3476           03013                           WAND     CHAN13
003595: 05,3477           37737                           CAF      BIT15                                 #  TURN OFF AUTO, HOLD, FREE, NO ATT, SPARE
003596: 05,3500           54326                           TS       DSPTAB     +11D                       #  GIMBAL LOCK, SPARE, TRACKER, PROG ALM
003597: 05,3501           43521                           CS       13-11,1                               #  SET BITS TO INDICATE ALL LAMPS OUT. TEST
003598: 05,3502           70366                           MASK     IMODES33                              #  LIGHTS COMPLETE.
003599: 05,3503           65660                           AD       PRIO16
003600: 05,3504           54366                           TS       IMODES33
003601:
003602: 05,3505           43523                           CS       OCT55000
003603: 05,3506           70365                           MASK     IMODES30
003604: 05,3507           65657                           AD       PRIO15                                #  15000.
003605: 05,3510           54365                           TS       IMODES30
003606:
003607: 05,3511           43522                           CS       RFAILS2
003608: 05,3512           70413                           MASK     RADMODES
003609:
003610: 05,3513           67747                           AD       BIT7
003611: 05,3514           54413                           TS       RADMODES
003612:
003613: 05,3515           00003                           RELINT
003614:
003615: 05,3516           02001                           TC       DSPMM                                 #  REDISPLAY C(MODREG)
003616: 05,3517           05243                           TC       POSTJUMP                              #  TURN OFF KEY RLSE LIGHT (AND SEARCH LIST
003617: 05,3520           11333                           CADR     VBTERM                                #  IF APPROPRIATE).
003618:                                                                                                  #  TURN OFF V/N FLASH, SET LOADSTAT FOR
003619:                                                                                                  #  FOR TERMINATE CONDITION, AND TO TO
003620:                                                                                                  #  RECALTST. FINALLY DO TC ENDOFJOB.
003621:


003623: 05,3521           16001        13-11,1            OCT      16001
003624: 05,3522           00330        RFAILS2            OCT      330                                   #  RADAR CDU AND DATA FAIL FLAGS.
003625: 05,3523           55000        OCT55000           OCT      55000

End of include-file PINBALL_GAME__BUTTONS_AND_LIGHTS.agc.  Parent file is MAIN.agc


