
Source Code


000002:                                                                                                  ## Copyright:   Public domain.
000003:                                                                                                  ## Filename:    PIPA_READER.agc
000004:                                                                                                  ## Purpose:     A section of Sunburst revision 37, or Shepatin revision 0.
000005:                                                                                                  ##              It is part of an early development version of the software
000006:                                                                                                  ##              for Apollo Guidance Computer (AGC) on the unmanned Lunar
000007:                                                                                                  ##              Module (LM) flight Apollo 5. Sunburst 37 was the program
000008:                                                                                                  ##              upon which Don Eyles's offline development program Shepatin
000009:                                                                                                  ##              was based; the listing herein transcribed was actually for
000010:                                                                                                  ##              the equivalent revision 0 of Shepatin.
000011:                                                                                                  ##              This file is intended to be a faithful transcription, except
000012:                                                                                                  ##              that the code format has been changed to conform to the
000013:                                                                                                  ##              requirements of the yaYUL assembler rather than the
000014:                                                                                                  ##              original YUL assembler.
000015:                                                                                                  ## Reference:   pp. 780-783
000016:                                                                                                  ## Assembler:   yaYUL
000017:                                                                                                  ## Contact:     Ron Burkey <info@sandroid.org>.
000018:                                                                                                  ## Website:     www.ibiblio.org/apollo/index.html
000019:                                                                                                  ## Mod history: 2017-05-24 MAS  Created from Sunburst 120.
000020:                                                                                                  ##              2017-06-14 HG   Transcribed
000021:                                                                                                  ##              2017-06-23 RSB  Proofed comment text with
000022:                                                                                                  ##                              octopus/ProoferComments.
000023:


000025:
000026:                                                                                                  #     SUBROUTINE TO READ PIPA COUNTERS, TRYING TO BE VERY CAREFUL SO THAT IT WILL BE RESTARTABLE.
000027:                                                                                                  #     PIPA READINGS ARE STORED IN THE VECTOR DELV. THE HIGH ORDER PART OF EACH COMPONENT CONTAINS THE PIPA READING,
000028:
000029:                                                                                                  #  AND THE LOW ORDER PART HAS -0 AFTER THE PIPAS HAVE BEEN READ. RESTARTS BEGIN AT REPIPASR.
000030:
000031:
000032:                                                                                                  #     AT THE END OF THE PIPA READER THE CDUS ARE READ AND STORED AS A
000033:                                                                                                  #  VECTOR IN CDUTEMP.  THE HIGH ORDER PART OF EACH COMPONENT CONTAINS
000034:                                                                                                  #  THE CDU READING IN 2S COMP IN THE ORDER CDUX,Y,Z.  THE THRUST
000035:                                                                                                  #  VECTOR ESTIMATOR IN FINDCDUD REQUIRES THE CDUS BE READ AT PIPTIME.
000036:
000037:                                                                                                  #  CALLING SEQUENCE AND EXIT
000038:
000039:                                                                                                  #     THE CALLING SEQUENCE TO PIPASR IS
000040:
000041:                                                                                                  #                                                   EXTEND
000042:                                                                                                  #                                                   DCA    PIP2CADR
000043:                                                                                                  #                                                   DXCH   Z
000044:
000045:                                                                                                  #  THE RETURN ADDRESS,WHICH IS STORED IN (A,L),IS SAVED IN PIPRETRN. THE RETURN FROM PIPASR IS
000046:
000047:                                                                                                  #                                                   EXTEND
000048:                                                                                                  #                                                   DCA    PIPRETRN
000049:                                                                                                  #                                                   DXCH   Z
000050:
000051:                                                                                                  #  WHICH RETURNS TO THE LOCATION AFTER THE CALL. ON A RESTART,PIPASR IS CALLED BY REPIPASR.
000052:
000053:
000054:
000055:                                                                                                  #  INPUT
000056:
000057:                                                                                                  #     INPUT IS THROUGH THE COUNTERS PIPAX, PIPAY, PIPAZ, AND TIME2.
000058:
000059:
000060:                                                                                                  #  OUTPUT
000061:
000062:                                                                                                  #     THE PIPA READINGS ARE OUTPUT THROUGH THE VECTOR DELV. DELTAT, SCALED AT 2(+28)CS, IS COMPUTED FOR AVERAGEG.
000063:
000064:                                                                                                  #  PIPTIME CONTAINS THE NEGATIVE OF THE CURRENT TIME.
000065:
000066:
000067:                                                                                                  #  DEBRIS (ERASABLE LOCATIONS DESTROYED BY PROGRAM)
000068:
000069:                                                                                                  #     TEMX  TEMY  TEMZ  TEMXY  PIPAGE  PIPTIME  PIPAX  PIPAY  PIPAZ
000070:
000071:                                                                                                  #  (ARRIVE IN INTERRUPTED STATE OR INHIBITED AFTER RESTART. EXIT
000072:                                                                                                  #  THRU ISWRETURN)
000073:
000074: 30,2506                                           BANK     30
000075:
000076: 30,2506           53317        PIPASR             DXCH     PIPRETRN
000077: 30,2507           47761                           CS       ZERO                                  #  PUT THESE INTO THE IMPOSSIBLE STATE
000078: 30,2510           55154                           TS       TEMX                                  #  FOR THEIR INITIAL VALUES.
000079:


000081: 30,2511           55155                           TS       TEMY
000082: 30,2512           55156                           TS       TEMZ
000083: 30,2513           37761                           CA       ZERO
000084: 30,2514           54404                           TS       DELVX      +1
000085: 30,2515           54406                           TS       DELVY      +1                         #  PIP COUNTERS MAY NOT HAVE POS ZERO IN
000086: 30,2516           54410                           TS       DELVZ      +1
000087: 30,2517           55160                           TS       PIPAGE                                #  ZERO THIS TO INDICATE IN PIPA READING.
000088:
000089:
000090:                                                                                                  #  COMPUTE DELTAT FOR AVERAGEG, SAVING -(CURRENT TIME) IN PIPTIME.
000091:
000092: 30,2520           00006        REPIP1             EXTEND
000093: 30,2521           30025                           DCA      TIME2                                 #  CURRENT TIME
000094: 30,2522           53321                           DXCH     PIPTIME
000095:
000096: 30,2523           40037                           CS       PIPAX
000097: 30,2524           55157                           TS       TEMXY
000098: 30,2525           57154                           XCH      TEMX                                  #  PUT NEGZERO INTO PIPACTRS AS READ
000099: 30,2526           56037                           XCH      PIPAX
000100:
000101: 30,2527           54403        REPIP1B            TS       DELVX
000102: 30,2530           54404                           TS       DELVX      +1                         #  DOUBLE SAVE
000103:
000104: 30,2531           40040        REPIP2             CS       PIPAY
000105: 30,2532           55157                           TS       TEMXY
000106: 30,2533           57155                           XCH      TEMY
000107: 30,2534           56040                           XCH      PIPAY
000108: 30,2535           54405        REPIP2B            TS       DELVY
000109: 30,2536           54406                           TS       DELVY      +1
000110:
000111: 30,2537           40041        REPIP3             CS       PIPAZ                                 #  REPEAT PROCESS FOR Z PIPA.
000112: 30,2540           55157                           TS       TEMXY                                 #  SAVE NEG OF PIPA READ
000113:
000114: 30,2541           57156                           XCH      TEMZ                                  #  SAVE HERE AS PICK UP NEGZERO
000115: 30,2542           56041                           XCH      PIPAZ                                 #  RESETTING PIPA AS READ OUT
000116: 30,2543           54407        REPIP3B            TS       DELVZ                                 #  AND STORE IN Z.
000117: 30,2544           54410                           TS       DELVZ      +1                         #  SHOWS THAT IT REALLY MADE IT.
000118:
000119: 30,2545           47761        REPIP4             CS       ZERO
000120: 30,2546           54404                           TS       DELVX      +1                         #  LEAVE THESE AT NEGZERO
000121: 30,2547           54406                           TS       DELVY      +1
000122: 30,2550           54410                           TS       DELVZ      +1
000123: 30,2551           30032                           CA       CDUX                                  #  READ CDUS INTO CDUTEMP AS A VECTOR
000124:
000125: 30,2552           55342                           TS       CDUTEMP
000126: 30,2553           30033                           CA       CDUY                                  #  THE THRUST ESTIMATION FILTER IN FINDCDUD
000127: 30,2554           55344                           TS       CDUTEMP    +2                         #  REQUIRES THAT THE CDUS BE READ AT THE
000128: 30,2555           30034                           CA       CDUZ                                  #  TIME THE PIPAS ARE READ
000129: 30,2556           55346                           TS       CDUTEMP    +4
000130: 30,2557           37761                           CAF      ZERO
000131: 30,2560           55343                           TS       CDUTEMP    +1
000132: 30,2561           55345                           TS       CDUTEMP    +3
000133: 30,2562           55347                           TS       CDUTEMP    +5
000134:


000136: 30,2563           00006                           EXTEND
000137:
000138: 30,2564           31317                           DCA      PIPRETRN                              #  RETURN TO LOCATION AFTER CALL
000139: 30,2565           52006                           DXCH     Z
000140:


000142:
000143: 30,2566           00006        REREADAC           EXTEND
000144: 30,2567           32636                           DCA      DONECAD
000145: 30,2570           53317                           DXCH     PIPRETRN
000146:
000147: 30,2571           11160        REPIPASR           CCS      PIPAGE                                #  WAS I READING PIPS.
000148:
000149: 30,2572           12507                           TCF      PIPASR     +1
000150: 30,2573           10410                           CCS      DELVZ      +1                         #  PIPAGE = 0  (I WAS READING PIPS.)
000151: 30,2574           12545                           TCF      REPIP4                                #  Z WAS READ OK
000152: 30,2575           12600                           TCF      +3                                    #  Z NOT DONE, CHECK Y.
000153: 30,2576           12545                           TCF      REPIP4
000154: 30,2577           12545                           TCF      REPIP4
000155:
000156: 30,2600           10406                           CCS      DELVY      +1                         #  HAS IT CHANGED FROM ITS +ZERO INIT VALU
000157: 30,2601           12604                           TCF      +3                                    #  YES, Y DONE.  TRY TO REDO Z.
000158: 30,2602           12613                           TCF      CHKDELVX                              #  NO, GO LOOK AT X.
000159: 30,2603           12604                           TCF      +1                                    #  YES
000160:
000161: 30,2604           11156                           CCS      TEMZ                                  #  DOES TEMZ STILL = -0.
000162: 30,2605           12611                           TCF      +4                                    #  NO-TRY TO RESTORE
000163: 30,2606           12611                           TCF      +3
000164: 30,2607           12611                           TCF      +2
000165: 30,2610           12537                           TCF      REPIP3                                #  YES, GO BACK AND READ Z AGAIN.
000166:
000167: 30,2611           41157                           CS       TEMXY                                 #  MUCH MORE LOGIC COULD BE INCORPORATED
000168: 30,2612           12543                           TCF      REPIP3B                               #  TO CHECK PIPA CTR FOR SIZE
000169:
000170: 30,2613           10404        CHKDELVX           CCS      DELVX      +1                         #  HAS THIS CHANGED.
000171:
000172: 30,2614           12617                           TCF      +3                                    #  YES
000173: 30,2615           12626                           TCF      CHKTEMX                               #  NO
000174: 30,2616           12617                           TCF      +1                                    #  YES
000175: 30,2617           11155                           CCS      TEMY
000176: 30,2620           12624                           TCF      +4
000177: 30,2621           12624                           TCF      +3
000178: 30,2622           12624                           TCF      +2
000179: 30,2623           12531                           TCF      REPIP2
000180: 30,2624           41157                           CS       TEMXY
000181: 30,2625           12535                           TCF      REPIP2B
000182:
000183: 30,2626           11154        CHKTEMX            CCS      TEMX                                  #  HAS THIS CHANGED.
000184:
000185: 30,2627           12633                           TCF      +4                                    #  YES
000186: 30,2630           12633                           TCF      +3                                    #  YES
000187: 30,2631           12633                           TCF      +2                                    #  YES
000188: 30,2632           12520                           TCF      REPIP1                                #  NO
000189: 30,2633           41157                           CS       TEMXY
000190: 30,2634           12527                           TCF      REPIP1B
000191:
000192: 30,2635  E5,1511                                  EBANK=   DVCNTR
000193: 30,2635           02061 60065  DONECAD            2CADR    PIPSDONE

End of include-file PIPA_READER.agc.  Parent file is MAIN.agc


