
Source Code


000002:                                                                                                  ## Copyright:   Public domain.
000003:                                                                                                  ## Filename:    Q,R-AXES_JET_SELECT_AND_FAILURE_CONTROL_LOGIC.agc
000004:                                                                                                  ## Purpose:     A section of Sunburst revision 37, or Shepatin revision 0.
000005:                                                                                                  ##              It is part of an early development version of the software
000006:                                                                                                  ##              for Apollo Guidance Computer (AGC) on the unmanned Lunar
000007:                                                                                                  ##              Module (LM) flight Apollo 5. Sunburst 37 was the program
000008:                                                                                                  ##              upon which Don Eyles's offline development program Shepatin
000009:                                                                                                  ##              was based; the listing herein transcribed was actually for
000010:                                                                                                  ##              the equivalent revision 0 of Shepatin.
000011:                                                                                                  ##              This file is intended to be a faithful transcription, except
000012:                                                                                                  ##              that the code format has been changed to conform to the
000013:                                                                                                  ##              requirements of the yaYUL assembler rather than the
000014:                                                                                                  ##              original YUL assembler.
000015:                                                                                                  ## Reference:   pp. 520-534
000016:                                                                                                  ## Assembler:   yaYUL
000017:                                                                                                  ## Contact:     Ron Burkey <info@sandroid.org>.
000018:                                                                                                  ## Website:     www.ibiblio.org/apollo/index.html
000019:                                                                                                  ## Mod history: 2017-05-24 MAS  Created from Sunburst 120.
000020:                                                                                                  ##              2017-05-30 HG   Transcribed
000021:


000023:                                                                                                  #  PROGRAM: POLTYPEP               MOD. NO. 1  DATE: NOVEMBER 14, 1966
000024:
000025:                                                                                                  #  AUTHOR: JONATHAN D. ADDELSTON (ADAMS ASSOCIATES)
000026:
000027:                                                                                                  #  THIS PROGRAM IS DESIGNED TO SELECT A POLICY OF JETS (OF WHICH NONE HAVE FAILED) WHICH CAN BE USED TO CREATE THE
000028:                                                                                                  #  ROTATION AND/OR TRANSLATION WHICH IS REQUIRED BY THE LM DAP.  FROM THE INDEX "NETACNDX" (WHICH MUST BE SET WHEN
000029:                                                                                                  #  ROTATION IS REQUESTED), THE OPTIMAL POLICY IS SELECTED.  WHEN FAILURES ARE DETECTED WITHIN A CHOSEN POLICY, AN
000030:                                                                                                  #  ALTERNATE POLICY IS SELECTED.  IF ALL ALTERNATE POLICIES ARE EXHAUSTED WITHOUT FINDING AN UNFAILED POLICY, A JET
000031:                                                                                                  #  FAILURE ABORT IS INITIATED.  WHEN THE ROUTINE IS USE FOR TRANSLATION JETS ONLY, "TRANONLY" MUST BE SET POSITIVE
000032:                                                                                                  #  (NONZERO) AND THE ENTRY POINT IS "+/-XTRAN".
000033:
000034:                                                                                                  #  CALLING SEQUENCES:
000035:
000036:                                                                                                  #  1. FOR ROTATION (WITH POSSIBLE +X TRANSLATION):
000037:
000038:                                                                                                  #                                                   CAF    RETURN          (GENADR OF RETURN)
000039:                                                                                                  #                                                   TS     TJETADR
000040:                                                                                                  #                                                   ...
000041:                                                                                                  #                                                   CAF    INDEXVAL        INDICATE ROT. AXIS, DIRECTION,
000042:                                                                                                  #                                                   TS     NETACNDX        AND NUMBER OF JETS.
000043:                                                                                                  #                                                   EXTEND
000044:                                                                                                  #                                                   DCA    POLADR          TRANSFER ACROSS BANKS TO POLTYPEP.
000045:                                                                                                  #                                                   DTCB
000046:
000047:                                                                                                  #  2. FOR TRANSLATION ONLY:
000048:
000049:                                                                                                  #                                                   CAF    POSMAX/NEGMAX   INDICATE -X TRANSLATION BY POSMAX.
000050:                                                                                                  #                                                   TS     ANYTRANS                 +X TRANSLATION BY NEGMAX.
000051:                                                                                                  #                                                   CAF    ZERO            ZERO EXTRANEOUS FLAGS FOR ROUTINE
000052:                                                                                                  #                                                   TS     TRANSNOW        ...
000053:                                                                                                  #                                                   TS     TRANSAVE        ...
000054:                                                                                                  #                                                   EXTEND
000055:                                                                                                  #                                                   DCA    JTPOLADR        TRANSFER ACROSS BANKS TO +/-XTRAN
000056:                                                                                                  #                                                   TS     TRANONLY        (AND SET TRANONLY POSITIVE NONZERO.)
000057:                                                                                                  #                                                   DTCB
000058:
000059:                                                                                                  #  SUBROUTINES CALLED: NONE.
000060:
000061:                                                                                                  #  NORMAL RETURN  1. FOR ROTATION, TO ADDRESS IN BANK 17 SPECIFIED BY C(TJETADR).
000062:                                                                                                  #                 2. FOR TRANSLATION, RESUME.
000063:
000064:                                                                                                  #  ALARM/ABORT MODE: WHENEVER THERE IS NO USABLE JET POLICY FOUND, TRANSFER TO JETABORT.
000065:
000066:                                                                                                  #  INPUT: NETACNDX,CH5MASK,1/NETACS.
000067:
000068:                                                                                                  #  OUTPUT: JETS ON IN CHANNEL 5, JTSATCHG.
000069:
000070:                                                                                                  #  DEBRIS: A,L,ALLL ITEMPS,ALL RUPTREGS.
000071:
000072:                                                                                                  #  INITIALIZATION AT ROTATION REQUEST ENTRY POINT:
000073:


000075: 20,2170                                           BANK     20
000076: 20,2170  E6,1471                                  EBANK=   JTSONNOW
000077:
000078: 20,2170           37761        POLTYPEP           CAF      ZERO                                  #  SET VOLATILE SWITCHES TO INDICATE
000079: 20,2171           54070                           TS       TRANONLY                              #  1) TRANSLATION ENTRY NOT MADE (ROTATION)
000080: 20,2172           54071                           TS       ANYTRANS                              #  2) NO TRANSLATION KNOWN YET.
000081: 20,2173           54072                           TS       TRANSNOW                              #  3) NO TRANS. DURING ROT. KNOWN YET.
000082: 20,2174           54073                           TS       TRANSAVE                              #  4) NO TRANSLATION POLICY SELECTED YET.
000083:
000084:                                                                                                  #  TEST FOR SENSE OF ROTATION JETS.  (MAKE TRANSLATION REQUEST FROM THE ASTRONAUT'S STICK OVERRIDE INTERNAL ULLAGE)
000085:
000086: 20,2175           37747                           CAF      BIT7                                  #  ASTRONAUT +X TRANSLATION REQUEST TEST.
000087: 20,2176           00006                           EXTEND
000088: 20,2177           02031                           RAND     31
000089: 20,2200           00006                           EXTEND
000090: 20,2201           12264                           BZF      +XTRANSL
000091:
000092: 20,2202           37746                           CAF      BIT8                                  #  ASTRONAUT -X TRANSLATION REQUEST TEST.
000093: 20,2203           00006                           EXTEND
000094: 20,2204           02031                           RAND     31
000095: 20,2205           00006                           EXTEND
000096: 20,2206           12271                           BZF      -XSENSE
000097:
000098:                                                                                                  #  CHECK FOR ULLAGE OR ASCENT BURN:
000099:
000100: 20,2207           32455        ULL/+X             CAF      BITS6&8                               #  CHECK FOR ULLAGE OR ASCENT BURN: (EITHER
000101: 20,2210           70077                           MASK     DAPBOOLS                              #  BIT REQUIRES +X SENSE FOR ROTATION JETS)
000102: 20,2211           10000                           CCS      A                                     #  BIT6: ULLAGE BIT  (+X TRANSLATION ASKED)
000103: 20,2212           12260                           TCF      +XSELECT                              #  BIT8: ASCENT BURN (NO TRANSLATION ASKED)
000104:
000105:                                                                                                  #  LM IS EITHER IN POWERED DESCENT OR IN COASTING FLIGHT  SELECT JETS WHICH ARE PAIRED IN FORCE COUPLES.
000106:
000107: 20,2213           50061                           INDEX    NETACNDX                              #  PICK UP FORCE-COUPLE TABLE INDEX AND THE
000108: 20,2214           32475                           CAF      NORMLPOL                              #  NUMBER OF POLICIES TO CHECK (PACKED).
000109:
000110:                                                                                                  #  UNPACK THE RELATIVE ADDRESS OF THE BEST POLICY AND THE NUMBER OF ALTERNATE POLICIES TO CHECK WITHIN THE LOOP.
000111:
000112:                                                                                                  #  THIS BITS ARE PACKED THUSLY  0XYYY, WHERE X BECOMES C(LOOPCTR) AND YYY BECOMES C(POLRELOC). BITS8,9 ARE ZERO.
000113:
000114: 20,2215           54001        NUMBALTS           TS       L                                     #  SAVE FULL WORD TO GET BITS 10-12, LATER.
000115: 20,2216           76130                           MASK     LOW7                                  #  MASK BITS GIVING INDEX VALUE FOR BEST
000116: 20,2217           54063                           TS       POLRELOC                              #  POLICY (W.R.T. TOP OF POLTABLE).
000117:
000118: 20,2220           37750                           CAF      BIT6                                  #  EXTRACT BITS 10-12 OF ORIGINAL WORD:
000119: 20,2221           00006                           EXTEND                                         #  THIS VALUE IS USED AS A LOOP COUNTER TO
000120: 20,2222           70001                           MP       L                                     #  TEST ALL THE FEASIBLE JET POLICIES FOR
000121: 20,2223           54064        BESTPOLS           TS       LOOPCTR                               #  THE GIVEN REQUEST.  (ALSO TOP 0F LOOP.)
000122:


000124:                                                                                                  #  LOOP TP SET UP "TRANSNOW" AND REJECT ALL FAILED POLICIES:
000125:
000126: 20,2224           50063                           INDEX    POLRELOC                              #  PICK UP NEXT POLICY TO CHECK FOR FAILURE
000127: 20,2225           32553                           CAF      POLTABLE                              #  (MUST DO A "CAF" THEN "CCS" FOR RANGE.)
000128: 20,2226           10000                           CCS      A                                     #  IF POLICY TABLE ENTRY IS NEGATIVE, THEN
000129: 20,2227           54065        CHKFAILS           TS       THISPOLY                              #  A FLAG IS SET TO DO SOME TRANSLATION
000130: 20,2230           12233                           TCF      +3                                    #  WITH THE ROTATION POLICY SELECTED. IF
000131: 20,2231           54072                           TS       TRANSNOW                              #  REQUESTED. POLTABLE VALUES ARE CCS-ABLE.
000132: 20,2232           12227                           TCF      CHKFAILS                              #  TRANSNOW (ONCE ON) STAYS ON FOR THIS CSP
000133:
000134: 20,2233           71502                           MASK     CH5MASK                               #  COMPARE THISPOLY WITH BITS OF FAILED JET
000135: 20,2234           10000                           CCS      A                                     #  IF C(A) = +0, THEN THERE ARE NO FAILURES
000136: 20,2235           12237                           TCF      +2                                    #  IN THIS POLICY AND THE LM DAP USES IT.
000137: 20,2236           12276                           TCF      POLFOUND                              #  IF C(A) IS NOT +0, IT IS POSITIVE AND
000138:
000139: 20,2237           00006                           EXTEND                                         #  FIRST THE RELATIVE ADDRESS INDEXER IS
000140: 20,2240           26063                           DIM      POLRELOC                              #  DECREMENTED BY ONE FOR THE NEXT POLICY,
000141: 20,2241           10064                           CCS      LOOPCTR                               #  THEN A CHECK IS MADE FOR ANY MORE USABLE
000142: 20,2242           12223                           TCF      BESTPOLS                              #  POLICIES, IF NO MORE, C(LOOPCTR) = +0.
000143:
000144:                                                                                                  #  ***** JET FAILURE ABORT SEQUENCE. *****
000145:
000146: 20,2243           37761        ABORTJET           CAF      ZERO                                  #  TURN OFF ALL JETS.
000147: 20,2244           00006                           EXTEND
000148: 20,2245           01005                           WRITE    5
000149: 20,2246           00006                           EXTEND
000150: 20,2247           01006                           WRITE    6
000151:
000152: 20,2250           35676                           CAF      PRIO37                                #  ABORT PRIORITY.
000153: 20,2251           05523                           TC       NOVAC                                 #  CALL JETABORT THROUGH EXECUTIVE.
000154: 20,2252  E6,1471                                  EBANK=   JTSONNOW
000155: 20,2252           02070 16006                     2CADR    JETABORT
000156: 20,2254           47743                           CS       GODAPGO                               #  SET GODAPGO TO TURN LM DAP OFF WHEN THIS
000157: 20,2255           70077                           MASK     DAPBOOLS                              #  BIT IS CHECKED IN THE NEXT P-AXIS RUPT.
000158: 20,2256           54077                           TS       DAPBOOLS
000159:
000160: 20,2257           15751                           TCF      RESUME
000161:
000162:                                                                                                  #  ***** END JET FAILURE ABORT SEQUENCE. *****
000163:


000165:                                                                                                  #  ENTER HERE AFTER ULLAGE/ASCENT DETECTION:
000166:
000167: 20,2260           40077        +XSELECT           CS       DAPBOOLS                              #  CHECK FOR ULLAGE  BIT6/DAPBOOLS =1.
000168: 20,2261           77750                           MASK     ULLAGER                               #  IF THE ULLAGE BIT IS 0, THEN THE LM IS
000169: 20,2262           10000                           CCS      A                                     #  IN AN ASCENT BURN AND NO +X TRANSLATION
000170: 20,2263           12266                           TCF      +XSENSE                               #  HAS BEEN REQUESTED (SEE ULL/+X).
000171:
000172:                                                                                                  #  ENTER HERE FOR +X TRANSLATION:
000173:
000174: 20,2264           37737        +XTRANSL           CAF      NEGMAX                                #  INDICATE +X TRANSLATION FOR CCS LATER.
000175: 20,2265           54071                           TS       ANYTRANS                              #  (ANYTRANS IS A VOLATILE SWITCH.)
000176:
000177:                                                                                                  #  ENTER HERE FOR +X SENSE JETS:
000178:
000179: 20,2266           50061        +XSENSE            INDEX    NETACNDX                              #  PICK UP +X SENSE TABLE INDEX AND THE
000180: 20,2267           32515                           CAF      +SENSTAB                              #  NUMBER OF ALTERNATE POLICIES TO CHECK.
000181:
000182: 20,2270           12215                           TCF      NUMBALTS                              #  GO TO BEGIN FAILURE CHECKING (ROTATION).
000183:
000184:                                                                                                  #  ENTER HERE FOR -X TRANSLATION:
000185:
000186: 20,2271           37735        -XSENSE            CAF      POSMAX                                #  INDICATE -X TRANSLATION FOR CCS LATER.
000187: 20,2272           54071                           TS       ANYTRANS                              #  (ANYTRANS IS A VOLATILE SWITCH.)
000188:
000189: 20,2273           50061                           INDEX    NETACNDX                              #  PICK UP -X SENSE TABLE INDEX AND THE
000190: 20,2274           32535                           CAF      -SENSTAB                              #  NUMBER OF ALTERNATE POLICIES TO CHECK.
000191:
000192: 20,2275           12215                           TCF      NUMBALTS                              #  GO TO BEGIN FAILURE CHECKING (ROTATION).
000193:
000194:                                                                                                  #  ENTER HERE AFTER A ROTATION POLICY HAS BEEN FOUND:
000195:
000196: 20,2276           30065        POLFOUND           CAE      THISPOLY                              #  GET POSITIVE-VALUED POLICY TABLE ENTRY
000197: 20,2277           00006                           EXTEND                                         #  WHICH IS INSURED AGAINST FAILURE.
000198: 20,2300           77752                           MP       BIT4                                  #  UNPACK BITS 12-14 OF TABLE ENTRY GET THE
000199: 20,2301           50000                           INDEX    A                                     #  NUMBER OF Q-AXIS JETS FROM TORQUE TABLE.
000200: 20,2302           32456                           CAF      TORKTABL                              #  SAVE FOR TORQUE VECTOR RECONSTRUCTION
000201: 20,2303           55606                           TS       NO.QJETS                              #  AND FOR DETERMINING 1/NETACC.
000202:
000203: 20,2304           30001                           CAE      L                                     #  UNPACK BITS 9-11 OF TABLE ENTRY WHICH
000204: 20,2305           00006                           EXTEND                                         #  ARE NOW BITS 12-14 OF THE L-REGISTER.
000205: 20,2306           77752                           MP       BIT4                                  #  (BIT15 OF L IS 0 DUE TO SIGN AGREEMENT.)
000206: 20,2307           50000                           INDEX    A                                     #  GET NUMBER OF R-AXIS JETS FROM TORQUE
000207: 20,2310           32456                           CAF      TORKTABL                              #  TABLE.  SAVE FOR TORQUE VECTOR RECON-
000208:
000209: 20,2311           55607                           TS       NO.RJETS                              #  STRUCTION AND FOR GETTING 1/NETACC.
000210:
000211:                                                                                                  #  PICK OUT ROTATION JETS FROM TABLE ENTRY:
000212:
000213: 20,2312           30065                           CAE      THISPOLY                              #  UNPACK BITS 1-8 OF TABLE ENTRY (DONE
000214: 20,2313           74553                           MASK     LOW8                                  #  MOST EASILY BY THE MASKING OPERATION).
000215: 20,2314           67737                           AD       BIT15                                 #  SET SIGN TO INDICATE Q,R-AXES JETS.
000216:


000218: 20,2315           55471                           TS       JTSONNOW                              #  SET POLICY UP FOR IMMEDIATE USE.
000219:


000221:
000222:                                                                                                  #  ENTRY POINT FOR +X TRANS, OR -X TRANS. REQUEST ALONE:
000223:
000224:                                                                                                  #  (ALSO CONTINUATION OF TRANSLATION-WITH-ROTATION LOGIC.)
000225:
000226: 20,2316           37754        +/-XTRAN           CAF      TWO                                   #  SET UP LOOP TO TEST ALL THREE POSSIBLE
000227: 20,2317           54064                           TS       LOOPCTR                               #  TRANSLATION POLICIES, IF 4 JETS ASKED.
000228:
000229: 20,2320           10071                           CCS      ANYTRANS                              #  TEST FOR TRANSLATION REQUESTS: -0 UNUSED
000230:
000231: 20,2321           12325                           TCF      -XPOLICY                              #  POSMAX: -X TRANSLATION.
000232: 20,2322           12412                           TCF      LATERJET                              #   +ZERO: NO TRANSLATION.
000233:
000234:                                                                                                  #  ENTER HERE FOR +X TRANSLATION POLICIES:
000235:
000236: 20,2323           37754        +XPOLICY           CAF      TWO                                   #  NEGMAX: +X TRANSLATION.
000237: 20,2324           12326                           TCF      +2                                    #  SET POLRELOC FOR +X TRANS. INDEXING.
000238:
000239:                                                                                                  #  ENTER HERE FOR -X TRANSLATION POLICIES:
000240:
000241: 20,2325           37760        -XPOLICY           CAF      FIVE                                  #  SET POLRELOC FOR -X TRANS. INDEXING.
000242: 20,2326           54063                           TS       POLRELOC                              #  (INITIAL VALUE ALWAYS FOR 4-JET POLICY.)
000243:
000244:                                                                                                  #  TEST FOR TRANSLATION TO BE COMBINED WITH ROTATION JETS.
000245:
000246: 20,2327           10072                           CCS      TRANSNOW                              #  TEST IF TRANSLATION WITH ROTATION IS
000247: 20,2330           12375                           TCF      TRANCONT                              #  REQUESTED, IF SO, OVER-RIDE 4-JET TEST.
000248:
000249:                                                                                                  #  DETERMINE IF LM DAP IS IN 2 OR 4 JET TRANSLATION MODE:
000250:
000251: 20,2331           40077                           CS       DAPBOOLS                              #  TEST FOR 2/4-JET TRANSLATION MODE IN
000252: 20,2332           77752                           MASK     ACC4OR2X                              #  BIT4/DAPBOOLS (ASTRONAUT DSKY INPUT)
000253: 20,2333           10000                           CCS      A                                     #  0: 2 JET MODE (SKIP OUT).
000254:
000255: 20,2334           12375                           TCF      TRANCONT                              #  1: 4 JET MODE (CONTINUE).
000256:
000257:                                                                                                  #  TEST TRANSLATION POLICIES FOR JET FAILURES:
000258:
000259: 20,2335           50063        TRANNEXT           INDEX    POLRELOC                              #  PICK UP POLICY FOR +/-X TRANSLATION
000260: 20,2336           32545                           CAF      TRANPOLY                              #  FROM TABLE (INDEXED WITHIN REQUESTED
000261: 20,2337           54065                           TS       THISPOLY                              #  RANGE OF POLICIES); TEST FOR FAILURES
000262: 20,2340           71502                           MASK     CH5MASK                               #  IF NO FAILURES, C(A) = +0.  IF POLICY
000263: 20,2341           10000                           CCS      A                                     #  CANNOT BE USED , C(A) IS POSITIVE.
000264: 20,2342           12373                           TCF      TRANCNTD                              #  IF FAILED, CHECK FOR STORE GOOD TRANS.
000265:
000266:                                                                                                  #  SPECIAL TESTS ARE NEEDED FOR TRANSLATION DURING ROTATION:
000267:
000268: 20,2343           10072                           CCS      TRANSNOW                              #  TEST FOR TRANSLATION DURING ROTATION
000269: 20,2344           12363                           TCF      TRANSTOR                              #  IF SO, GO TEST THIS POLICY FOR USE NOW.
000270:
000271:                                                                                                  #  TEST FOR ONLY TRANSLATION REQUEST:
000272:
000273: 20,2345           10070                           CCS      TRANONLY                              #  TEST FOR PURE TRANSLATION REQUEST
000274:


000276: 20,2346           12357                           TCF      TRANOROT                              #  IF SO, GIVE TRANSLATION, NO ROTATION
000277:
000278:                                                                                                  #  SPECIAL TEST FOR GOOD 4-JET TRANSLATION:
000279:
000280: 20,2347           47754                           CS       TWO                                   #  TEST IF POLICY IS USING FOUR JETS (WHICH
000281: 20,2350           60064                           AD       LOOPCTR                               #  IS EQUIVALENT TO LOOPCTR = 2).  IF 4-JET
000282: 20,2351           00006                           EXTEND                                         #  THIS POLICY MUST BE USED AS JTSATCHG.
000283: 20,2352           12355                           BZF      TRAN4JET                              #  OTHERWISE, MUST CHECK TRANSAVE FIRST.
000284:
000285:                                                                                                  #  WHEN NOT 4-JET TRANSLATION,  CHECK FOR SAVED POLICY:
000286:
000287: 20,2353           10073                           CCS      TRANSAVE                              #  TEST FOR SAVED POLICY; IF SAVED, USE IT.
000288: 20,2354           12411                           TCF      TRANUSED                              #  IF NOT SAVED YET, USE THIS POLICY.
000289:
000290:                                                                                                  #  USE THIS POLICY (EITHER 4 JETS OR BEST 2 JET):
000291:
000292: 20,2355           30065        TRAN4JET           CAE      THISPOLY                              #  USE THIS UNFAILED POLICY AS THE TRANS-
000293: 20,2356           12412                           TCF      LATERJET                              #  LATION POLICY AFTER ROTATION.
000294:
000295:                                                                                                  #  FOR TRANSLATION WITHOUT ROTATION, TURN JETS ON IMMEDIATELY AND RESUME:
000296:
000297: 20,2357           30065        TRANOROT           CAE      THISPOLY                              #  TURN ON UNFAILED Q,R-AXES JETS AS A PURE
000298: 20,2360           00006                           EXTEND                                         #  TRANSLATION POLICY WITHOUT ANY TJETLAW
000299: 20,2361           01005                           WRITE    5                                     #  CALCULATIONS (AND NO TIME6 SETTING).
000300:
000301: 20,2362           15751                           TCF      RESUME                                #  END T5RUPT SINCE JETS ON FOR FULL CSP.
000302:
000303:                                                                                                  #  TEST THIS TRANSLATION FOR USE DURING ROTATION:
000304:
000305: 20,2363           30065        TRANSTOR           CAE      THISPOLY                              #  SAVE THIS POLICY FOR LATER USE AS THE
000306: 20,2364           54073                           TS       TRANSAVE                              #  JTSATCHG POLICY UNLESS IT IS SUPERCEDED.
000307: 20,2365           71471                           MASK     JTSONNOW                              #  TEST FOR USE WITH ROTATION POLICY  MUST
000308: 20,2366           10000                           CCS      A                                     #  HAVE NO JETS IN COMMON WITH JTSONNOW.
000309: 20,2367           12375                           TCF      TRANCONT                              #  C(A) POSITIVE MEANS POLICIES CONFLICT.
000310:
000311:                                                                                                  #  COINCIDENT TRANSLATION FOUND, GO FIND PURE TRANSLATION POLICY (FOR USE AFTER ROTATION):
000312:
000313: 20,2370           30065                           CAE      THISPOLY                              #  USE BOTH ROTATION AND TRANSLATION JETS
000314:
000315: 20,2371           27471                           ADS      JTSONNOW                              #  AT JTSONNOW (BIT 15 IS ALREADY SET).
000316:
000317: 20,2372           12404                           TCF      TRANSLAT                              #  GO TO START FINDING JTSATCHG POLICY.
000318:
000319:                                                                                                  #  STOP SEARCH IF GOOD TRANSLATION POLICY ALREADY RECORDED:
000320:
000321: 20,2373           10073        TRANCNTD           CCS      TRANSAVE                              #  TEST FOR PREVIOUSLY SAVED TRANSLATION
000322: 20,2374           12411                           TCF      TRANUSED                              #  POLICY, IF IT EXISTS, USE IT.
000323:
000324:                                                                                                  #  CONTINUE FAILURE CHECKING LOOP:
000325:
000326: 20,2375           00006        TRANCONT           EXTEND                                         #  CONTINUE THE TRANSLATION-FAIL LOOP
000327:


000329: 20,2376           26063                           DIM      POLRELOC                              #  DECREMENT THE TRANSLATION POLICY INDEX
000330: 20,2377           10064                           CCS      LOOPCTR                               #  AND THEN TEST LOOPCTR FOR CONTINUATION
000331: 20,2400           12407                           TCF      TRNRESET                              #  OF JET FAILURE TESTING.
000332:
000333:                                                                                                  #  IF NO TRANSLATION CAN BE FOUND FOR ROTATION POLICY, ALL IS NOT LOST, OTHERWISE, START JET FAILURE ABORT:
000334:
000335: 20,2401           10072                           CCS      TRANSNOW                              #  IF FAILURES STOP TRANSLATION DURING
000336: 20,2402           12404                           TCF      TRANSLAT                              #  ROTATION' CONTINUE BY FINDING JTSATCHG.
000337:
000338: 20,2403           12243                           TCF      ABORTJET                              #  TURN OFF JETS AND ABORT.
000339:
000340:                                                                                                  #  BEGIN SEARCH FOR JTSATCHG POLICY:
000341:
000342: 20,2404           37761        TRANSLAT           CAF      ZERO                                  #  SET VOLATILE FLAG TO INDICATE SEARCH IS
000343: 20,2405           54072                           TS       TRANSNOW                              #  FOR JTSATCHG, AFTER TRANSNOW DONE.
000344:
000345: 20,2406           12316                           TCF      +/-XTRAN                              #  GO TO RE-INITIALIZE LOOP FROM SCRATCH.
000346:
000347:                                                                                                  #  "TOP OF LOOP" (FOR ALL BUT FIRST PASS):
000348:
000349: 20,2407           54064        TRNRESET           TS       LOOPCTR                               #  RESET LOOP COUNTER TO CONTINUE LOOPING
000350: 20,2410           12335                           TCF      TRANNEXT                              #  GO TO CONTINUATION OF LOOP (AT THE TOP).
000351:
000352:                                                                                                  #  RECONSTRUCT FLAGGED JET POLICY:
000353:
000354: 20,2411           67755        TRANUSED           AD       ONE                                   #  RESET POLICY THAT WAS POSITIVE AND CCSED
000355: 20,2412           67737        LATERJET           AD       BIT15                                 #  SET BIT 15 TO INDICATE Q,R-AXES POLICY.
000356: 20,2413           55472                           TS       JTSATCHG                              #  USE FOR JTSATCHG TRANSLATION POLICY.
000357:
000358:                                                                                                  #  TRANSFORM INITIAL POINTER TO 2-JET POLICY:
000359:
000360: 20,2414           37755                           CAF      ONE                                   #  FROM THE INDEX VALUE INDICATING NUMBER
000361: 20,2415           70061                           MASK     NETACNDX                              #  OF JETS, DIRECTION, AND AXIS' COMPUTE
000362: 20,2416           10000                           CCS      A                                     #  THE INDEX VALUE FOR 2 JETS ABOUT THAT
000363: 20,2417           12422                           TCF      +3                                    #  AXIS (IN THAT DIRECTION).  CONTRIVANCE
000364: 20,2420           00006                           EXTEND                                         #  MAKES THIS EQUIVALENT TO  IF BIT1 IS ON.
000365: 20,2421           24061                           AUG      NETACNDX                              #  (INDEP. OF SIGN)  AUGMENT  NETACNDX.
000366:
000367:                                                                                                  #  TRANSFORM POINTER TO CORRESPOND TO JETS ACTUALLY CHOSEN.
000368:
000369: 20,2422           11606                           CCS      NO.QJETS                              #  TRANSFORM INDEX TO APPROPRIATE VALUE FOR
000370: 20,2423           12425                           TCF      +2                                    #  THE NUMBER OF JETS SELECTED.
000371: 20,2424           12436                           TCF      ALLRJETS                              #  IF NO.QJETS ZERO, NO.RJETS IS NONZERO.
000372:
000373: 20,2425           10000                           CCS      A                                     #  IF NO.QJETS +/-1, NO.RJETS IS +/-1 (BY
000374: 20,2426           12430                           TCF      +2                                    #  DEFINITION)  SO SUBTRACT ONE FROM INDEX.
000375: 20,2427           12433                           TCF      SMALAXIS                              #  GO TRANSFORM FOR 1 U,V-AXIS JET.
000376: 20,2430           10000                           CCS      A                                     #  IF STILL NONZERO ON THIRD CCS, NO.QJETS
000377: 20,2431           24061                           INCR     NETACNDX                              #  MUST HAVE BEEN +/-4, SO ADD ONE TO THE
000378: 20,2432           12445                           TCF      NETACGET                              #  INDEX, OTHERWISE, NO CHANGE (2 JETS).
000379:


000381: 20,2433           00006        SMALAXIS           EXTEND                                         #  DECREMENT INDEX FOR 1 JET AROUND EITHER
000382: 20,2434           26061                           DIM      NETACNDX                              #  THE U- OR V- AXIS.
000383:
000384: 20,2435           12445                           TCF      NETACGET                              #  (GO PICK UP INVERSE OF NET ACCELERATION)
000385:
000386: 20,2436           11607        ALLRJETS           CCS      NO.RJETS                              #  WHEN NO.QJETS ZERO, TEST NO.RJETS WHICH
000387: 20,2437           77754                           MASK     TWO                                   #  IS ONLY +/-2 OR +/-4.  NOTE LAST THREE
000388: 20,2440           12442                           TCF      +2                                    #  BITS OF THESE AFTER CCS  001 OR 011.
000389: 20,2441           77754                           MASK     TWO                                   #  ONLY BIT2 DISTINGUISHES BETWEEN THE TWO.
000390: 20,2442           00006                           EXTEND                                         #  IF BIT2 = 0, THEN TWO JETS, NO CHANGE.
000391: 20,2443           12445                           BZF      +2                                    #  IF BIT2 = 1, THEN FOUR JETS, SO THE
000392: 20,2444           24061                           INCR     NETACNDX                              #  INDEX MUST BE INCREMENTED.
000393:
000394:                                                                                                  #  PICK UP AND SAVE 1/NETACC FOR TJETLAW:
000395:
000396: 20,2445           50061        NETACGET           INDEX    NETACNDX                              #  USE THE INDEX VALUE FOR THE EXACT JETS
000397: 20,2446           31700                           CAE      1/NETACS                              #  USED, PICK UP THE APPROPRIATE 1/NETACC
000398: 20,2447           54066                           TS       1/NETACC                              #  AND SAVE FOR USE BY THE TJETLAW.
000399:
000400:                                                                                                  #  RETURN TO APPROPRIATE TJETLAW:
000401:
000402: 20,2450           32454                           CAF      BBANKSET                              #  ALWAYS RETURN TO THE FIXED BANK OF THE
000403: 20,2451           54001                           TS       L                                     #  Q,R-AXES REACTION CONTROL SYSTEM LM DAP.
000404: 20,2452           30062                           CAE      TJETADR                               #  USE VARIABLE GENADR WITH WHICH TO
000405: 20,2453           52006                           DTCB                                           #  CROSS BANKS TO RETURN.
000406:
000407: 20,2454  E6,1417                                  EBANK=   OMEGAQ
000408: 20,2454           36006        BBANKSET           BBCON    QRAXIS                                #  BBCON OF Q,R-AXES RCS LM DAP.
000409:
000410: 20,2455           00240        BITS6&8            OCTAL    00240                                 #  ULLAGE AND ASCENT BURN DAPBOOLS BITS.
000411:


000413:
000414:                                                                                                  #  TABLE OF Q,R-JET NUMBERS AND DIRECTIONS:
000415:
000416: 20,2456           00000        TORKTABL           DEC      0          B-14                       #  FROM THE 3 PACKED BITS IN A WORD FROM
000417: 20,2457           00001                           DEC      +1         B-14                       #  POLTABLE, THE POLTYPEP PROGRAM SELECTS
000418: 20,2460           77776                           DEC      -1         B-14                       #  THE APPROPRIATE NO.QJETS OR NO.RJETS
000419: 20,2461           00002                           DEC      +2         B-14                       #  AS FOLLOWS:
000420: 20,2462           77775                           DEC      -2         B-14                       #  000: NO JETS
000421: 20,2463           00004                           DEC      +4         B-14                       #  001: +1 JET   011: +2 JETS  101: +4 JETS
000422:
000423: 20,2464           77773                           DEC      -4         B-14                       #  010: -1 JET   100: -2 JETS  110: -4 JETS
000424:
000425:
000426:                                                                                                  #  RELATIVE ADDRESSES AND NUMBER OF ALTERNATE POLICIES ARE LISTED IN THE FOLLOWING TABLES.  EACH ENTRY HAS THE FORM
000427:                                                                                                  #           0XYYY  WHERE   X INDICATES THE NUMBER OF ALTERNATE POLICIES AND
000428:                                                                                                  #                        YYY IS THE RELATIVE ADDRESS IN POLTABLE OF THE "OPTIMAL" POLICY.
000429:
000430:                                                                                                  #  FORCE-COUPLE POLICIES:
000431:
000432: 20,2465           03003                           OCTAL    03003                                 #  +2 Q-AXIS JETS
000433: 20,2466           04004                           OCTAL    04004                                 #  +4 Q-AXIS JETS
000434: 20,2467           03010                           OCTAL    03010                                 #  -2 Q-AXIS JETS
000435: 20,2470           04011                           OCTAL    04011                                 #  -4 Q-AXIS JETS
000436: 20,2471           03015                           OCTAL    03015                                 #  +2 R-AXIS JETS
000437: 20,2472           04016                           OCTAL    04016                                 #  +4 R-AXIS JETS
000438: 20,2473           03022                           OCTAL    03022                                 #  -2 R-AXIS JETS
000439: 20,2474           04023                           OCTAL    04023                                 #  -4 R-AXIS JETS
000440: 20,2475           02026        NORMLPOL           OCTAL    02026                                 #  +2 U-AXIS JETS
000441: 20,2476           02026                           OCTAL    02026                                 #  +2 U-AXIS JETS
000442: 20,2477           02031                           OCTAL    02031                                 #  -2 U-AXIS JETS
000443: 20,2500           02031                           OCTAL    02031                                 #  -2 U-AXIS JEST
000444: 20,2501           02034                           OCTAL    02034                                 #  +2 V-AXIS JETS
000445:
000446: 20,2502           02034                           OCTAL    02034                                 #  +2 V-AXIS JETS
000447: 20,2503           02037                           OCTAL    02037                                 #  -2 V-AXIS JETS
000448: 20,2504           02037                           OCTAL    02037                                 #  -2 V-AXIS JETS
000449:


000451:
000452:                                                                                                  #  +X SENSE POLICIES:
000453:
000454: 20,2505           03043                           OCTAL    03043                                 #  +2 Q-AXIS JETS
000455: 20,2506           04044                           OCTAL    04044                                 #  +4 Q-AXIS JETS
000456: 20,2507           03050                           OCTAL    03050                                 #  -2 Q-AXIS JETS
000457: 20,2510           04051                           OCTAL    04051                                 #  -4 Q-AXIS JETS
000458: 20,2511           03055                           OCTAL    03055                                 #  +2 R-AXIS JETS
000459: 20,2512           04056                           OCTAL    04056                                 #  +4 R-AXIS JETS
000460: 20,2513           03062                           OCTAL    03062                                 #  -2 R-AXIS JETS
000461: 20,2514           04063                           OCTAL    04063                                 #  -4 R-AXIS JETS
000462: 20,2515           01024        +SENSTAB           OCTAL    01024                                 #  +1 U-AXIS JETS
000463: 20,2516           02025                           OCTAL    02025                                 #  +2 U-AXIS JETS
000464: 20,2517           01027                           OCTAL    01027                                 #  -1 U-AXIS JETS
000465: 20,2520           02030                           OCTAL    02030                                 #  -2 U-AXIS JETS
000466:
000467: 20,2521           01032                           OCTAL    01032                                 #  +1 V-AXIS JETS
000468: 20,2522           02033                           OCTAL    02033                                 #  +2 V-AXIS JETS
000469: 20,2523           01036                           OCTAL    01036                                 #  -1 V-AXIS JETS
000470: 20,2524           02037                           OCTAL    02037                                 #  -2 V-AXIS JETS
000471:
000472:                                                                                                  #  -X SENSE POLICIES:
000473:
000474: 20,2525           03067                           OCTAL    03067                                 #  +2 Q-AXIS JETS
000475: 20,2526           04070                           OCTAL    04070                                 #  +4 Q-AXIS JETS
000476: 20,2527           03074                           OCTAL    03074                                 #  -2 Q-AXIS JETS
000477: 20,2530           04075                           OCTAL    04075                                 #  -4 Q-AXIS JETS
000478: 20,2531           03101                           OCTAL    03101                                 #  +2 R-AXIS JETS
000479: 20,2532           04102                           OCTAL    04102                                 #  +4 R-AXIS JETS
000480: 20,2533           03106                           OCTAL    03106                                 #  -2 R-AXIS JETS
000481: 20,2534           04107                           OCTAL    04107                                 #  -4 R-AXIS JETS
000482: 20,2535           01111        -SENSTAB           OCTAL    01111                                 #  +1 U-AXIS JETS
000483: 20,2536           02112                           OCTAL    02112                                 #  +2 U-AXIS JETS
000484: 20,2537           01114                           OCTAL    01114                                 #  -1 U-AXIS JETS
000485: 20,2540           02115                           OCTAL    02115                                 #  -2 U-AXIS JETS
000486: 20,2541           01117                           OCTAL    01117                                 #  +1 V-AXIS JETS
000487: 20,2542           02120                           OCTAL    02120                                 #  +2 V-AXIS JETS
000488: 20,2543           01122                           OCTAL    01122                                 #  -1 V-AXIS JETS
000489: 20,2544           02123                           OCTAL    02123                                 #  -2 V AXIS JETS
000490:


000492:
000493:                                                                                                  #  X-AXIS TRANSLATION POLICIES:
000494:
000495: 20,2545           00042        TRANPOLY           OCTAL    +00042                                #   2 10       * +X TRANSLATION JETS     0
000496: 20,2546           00210                           OCTAL    +00210                                #   6 14       *                         1
000497: 20,2547           00252                           OCTAL    +00252                                #   2  6 10 14 *                         2
000498:
000499: 20,2550           00104                           OCTAL    +00104                                #   3 13       * -X TRANSLATION JETS     3
000500: 20,2551           00021                           OCTAL    +00021                                #   1  9       *                         4
000501: 20,2552           00125                           OCTAL    +00125                                #   1  5  9 13 *                         5
000502:


000504:
000505:                                                                                                  #  ROTATION JET POLICIES;
000506:
000507:                                                                                                  #  FORCE COUPLE POLICIES:
000508:
000509: 20,2553           14025        POLTABLE           OCTAL    +14025                                #   5  9       * +Q-AXIS FORCE COUPLES    0
000510: 20,2554           14203                           OCTAL    +14203                                #   2 14       *                          1
000511: 20,2555           14221                           OCTAL    +14221                                #   9 14       *                          2
000512: 20,2556           14007                           OCTAL    +14007                                #   2  5       *                          3
000513: 20,2557           24227                           OCTAL    +24227                                #   2  5  9 14 *                          4
000514:
000515: 20,2560           20051                           OCTAL    +20051                                #   6 10       * -Q-AXIS FORCE-COUPLES    5
000516: 20,2561           20102                           OCTAL    +20102                                #   1 13       *                          6
000517: 20,2562           20141                           OCTAL    +20141                                #  10 13       *                          7
000518: 20,2563           20012                           OCTAL    +20012                                #   1  6       *                         10
000519: 20,2564           30152                           OCTAL    +30152                                #   1  6 10 13 *                         11
000520:
000521: 20,2565           01641                           OCTAL    +01641                                #  10 14       * +R-AXIS FORCE-COUPLES   12
000522: 20,2566           01406                           OCTAL    +01406                                #   1  5       *                         13
000523: 20,2567           01445                           OCTAL    +01445                                #   5 10       *                         14
000524: 20,2570           01602                           OCTAL    +01602                                #   1 14       *                         15
000525: 20,2571           02646                           OCTAL    +02646                                #   1  5 10 14 *                         16
000526:
000527: 20,2572           02121                           OCTAL    +02121                                #   9 13       * -R-AXIS FORCE-COUPLES   17
000528: 20,2573           02013                           OCTAL    +02013                                #   2  6       *                         20
000529: 20,2574           02103                           OCTAL    +02103                                #   2 13       *                         21
000530: 20,2575           02031                           OCTAL    +02031                                #   6  9       *                         22
000531:
000532: 20,2576           03133                           OCTAL    +03133                                #   2  6  9 13 *                         23
000533:
000534:                                                                                                  #  FORCE COUPLE AND +X SENSE POLICIES:
000535:
000536: 20,2577           73372                           OCTAL    -04405                                #   5          * +U-AXIS FORCE-COUPLES   24
000537: 20,2600           73176                           OCTAL    -04601                                #  14          *     AND +X SENSE        25
000538: 20,2601           62172                           OCTAL    -15605                                #   5 14       *                         26
000539:
000540: 20,2602           66676                           OCTAL    -11101                                #  13          * -U-AXIS FORCE-COUPLES   27
000541: 20,2603           66766                           OCTAL    -11011                                #   6          *     AND +X SENSE        30
000542: 20,2604           55666                           OCTAL    -22111                                #   6 13       *                         31
000543:
000544: 20,2605           67375                           OCTAL    -10402                                #   1          * +V-AXIS FORCE-COUPLES   32
000545: 20,2606           67336                           OCTAL    -10441                                #  10          *     AND +X SENSE        33
000546: 20,2607           56335                           OCTAL    -21442                                #   1 10       *                         34
000547:
000548: 20,2610           72756                           OCTAL    -05021                                #   9          * -V-AXIS FORCE-COUPLES   35
000549: 20,2611           72774                           OCTAL    -05003                                #   2          *     AND +X SENSE        36
000550: 20,2612           61754                           OCTAL    -16023                                #   2  9       *                         37
000551:


000553:
000554:                                                                                                  #  +X SENSE POLICIES:
000555:
000556: 20,2613           14025                           OCTAL    +14025                                #   5  9       * +Q-AXIS +X SENSE JETS   40
000557: 20,2614           14221                           OCTAL    +14221                                #   9 14       *                         41
000558: 20,2615           14007                           OCTAL    +14007                                #   2  5       *                         42
000559: 20,2616           14203                           OCTAL    +14203                                #   2 14       *                         43
000560: 20,2617           24227                           OCTAL    +24227                                #   2  5  9 14 *                         44
000561:
000562: 20,2620           20102                           OCTAL    +20102                                #   1 13       * -Q-AXIS +X SENSE JETS   45
000563: 20,2621           20141                           OCTAL    +20141                                #  10 13       *                         46
000564: 20,2622           20012                           OCTAL    +20012                                #   1  6       *                         47
000565: 20,2623           20051                           OCTAL    +20051                                #   6 10       *                         50
000566: 20,2624           30152                           OCTAL    +30152                                #   1  6 10 13 *                         51
000567:
000568: 20,2625           01406                           OCTAL    +01406                                #   1  5       * +R-AXIS +X SENSE JETS   52
000569: 20,2626           01445                           OCTAL    +01445                                #   5 10       *                         53
000570: 20,2627           01602                           OCTAL    +01602                                #   1 14       *                         54
000571: 20,2630           01641                           OCTAL    +01641                                #  10 14       *                         55
000572: 20,2631           02646                           OCTAL    +02646                                #   1  5 10 14 *                         56
000573:
000574: 20,2632           02121                           OCTAL    +02121                                #   9 13       * -R-AXIS +X SENSE JETS   57
000575: 20,2633           02103                           OCTAL    +02103                                #   2 13       *                         60
000576: 20,2634           02031                           OCTAL    +02031                                #   6  9       *                         61
000577: 20,2635           02013                           OCTAL    +02013                                #   2  6       *                         62
000578: 20,2636           03133                           OCTAL    +03133                                #   2  6  9 13 *                         63
000579:


000581:
000582:                                                                                                  #  -X SENSE POLICIES:
000583:
000584: 20,2637           14203                           OCTAL    +14203                                #   2 14       * +Q-AXIS -X SENSE JETS   64
000585: 20,2640           14221                           OCTAL    +14221                                #   9 14       *                         65
000586: 20,2641           14007                           OCTAL    +14007                                #   2  5       *                         66
000587: 20,2642           14025                           OCTAL    +14025                                #   5  9       *                         67
000588: 20,2643           24227                           OCTAL    +24227                                #   2  5  9 14 *                         70
000589:
000590: 20,2644           20051                           OCTAL    +20051                                #   6 10       * -Q-AXIS -X SENSE JETS   71
000591: 20,2645           20141                           OCTAL    +20141                                #  10 13       *                         72
000592: 20,2646           20012                           OCTAL    +20012                                #   1  6       *                         73
000593: 20,2647           20102                           OCTAL    +20102                                #   1 13       *                         74
000594: 20,2650           30152                           OCTAL    +30152                                #   1  6 10 13 *                         75
000595:
000596: 20,2651           01641                           OCTAL    +01641                                #  10 14       * +R-AXIS -X SENSE JETS   76
000597: 20,2652           01445                           OCTAL    +01445                                #   5 10       *                         77
000598: 20,2653           01602                           OCTAL    +01602                                #   1 14       *                        100
000599: 20,2654           01406                           OCTAL    +01406                                #   1  5       *                        101
000600: 20,2655           02646                           OCTAL    +02646                                #   1  5 10 14 *                        102
000601:
000602: 20,2656           02013                           OCTAL    +02013                                #   2  6       * -R-AXIS -X SENSE JETS  103
000603: 20,2657           02103                           OCTAL    +02103                                #   2 13       *                        104
000604: 20,2660           02031                           OCTAL    +02031                                #   6  9       *                        105
000605: 20,2661           02121                           OCTAL    +02121                                #   9  13      *                        106
000606: 20,2662           03133                           OCTAL    +03133                                #   2  6  9 13 *                        107
000607:
000608: 20,2663           73176                           OCTAL    -04601                                #  14          * +U-AXIS -X SENSE JETS  110
000609: 20,2664           73372                           OCTAL    -04405                                #   5          *                        111
000610: 20,2665           62172                           OCTAL    -15605                                #   5 14       *                        112
000611:
000612: 20,2666           66766                           OCTAL    -11011                                #   6          * -U-AXIS -X SENSE JETS  113
000613: 20,2667           66676                           OCTAL    -11101                                #  13          *                        114
000614: 20,2670           55666                           OCTAL    -22111                                #   6 13       *                        115
000615:
000616: 20,2671           67336                           OCTAL    -10441                                #  10          * +V-AXIS -X SENSE JETS  116
000617: 20,2672           67375                           OCTAL    -10402                                #   1          *                        117
000618: 20,2673           56335                           OCTAL    -21442                                #   1 10       *                        120
000619:
000620: 20,2674           72774                           OCTAL    -05003                                #   2          * -V-AXIS -X SENSE JETS  121
000621: 20,2675           72756                           OCTAL    -05021                                #   9          *                        122
000622: 20,2676           61754                           OCTAL    -16023                                #   2  9       *                        123

End of include-file Q,R-AXES_JET_SELECT_AND_FAILURE_CONTROL_LOGIC.agc.  Parent file is MAIN.agc


