
Source Code


000002:                                                                                                  ## Copyright:   Public domain.
000003:                                                                                                  ## Filename:    Q,R-AXES_REACTION_CONTROL_SYSTEM_AUTOPILOT.agc
000004:                                                                                                  ## Purpose:     A section of Sunburst revision 37, or Shepatin revision 0.
000005:                                                                                                  ##              It is part of an early development version of the software
000006:                                                                                                  ##              for Apollo Guidance Computer (AGC) on the unmanned Lunar
000007:                                                                                                  ##              Module (LM) flight Apollo 5. Sunburst 37 was the program
000008:                                                                                                  ##              upon which Don Eyles's offline development program Shepatin
000009:                                                                                                  ##              was based; the listing herein transcribed was actually for
000010:                                                                                                  ##              the equivalent revision 0 of Shepatin.
000011:                                                                                                  ##              This file is intended to be a faithful transcription, except
000012:                                                                                                  ##              that the code format has been changed to conform to the
000013:                                                                                                  ##              requirements of the yaYUL assembler rather than the
000014:                                                                                                  ##              original YUL assembler.
000015:                                                                                                  ## Reference:   pp. 491-519
000016:                                                                                                  ## Assembler:   yaYUL
000017:                                                                                                  ## Contact:     Ron Burkey <info@sandroid.org>.
000018:                                                                                                  ## Website:     www.ibiblio.org/apollo/index.html
000019:                                                                                                  ## Mod history: 2017-05-24 MAS  Created from Sunburst 120.
000020:                                                                                                  ##              2017-06-01 HG   Transcribed
000021:                                                                                                  ##              2017-06-15 HG   Fix operator DXCH -> TS
000022:                                                                                                  ##                                           DAS  -> ADS
000023:                                                                                                  ##                                           DXCH -> XCH
000024:                                                                                                  ##                                           TC   -> TCF
000025:                                                                                                  ##                                           BZMF -> BZF
000026:                                                                                                  ##                              change value MCOMPTQR  DEC -16  -> OCTAL 77765
000027:


000029: 17,2000                                           BANK     17
000030: 17,2000  E6,1541                                  EBANK=   DT
000031:                                                                                                  #  THE FOLLOWING T5RUPT ENTRY BEGINS THE PROGRAM WHICH CONTROLS THE Q,R-AXIS ACTION OF THE LEM USING THE RCS JETS.
000032:                                                                                                  #  THE NOMINAL TIME BETWEEN THE Q,R-AXIS RUPTS IS 100 MS (UNLESS THE TRIM GIMBAL CONTROL SYSTEM IS USED, IN WHICH
000033:                                                                                                  #  CASE THIS PROGRAM IS IDLE).
000034:
000035: 17,2000  E6,1541                                  EBANK=   DT
000036: 17,2000           03011 40006  NULLFILT           2CADR    FILDUMMY
000037:
000038: 17,2002           32563        QRAXIS             CAF      MS30QR                                #  RESET TIMER IMMEDIATELY: DT = 30 MS
000039: 17,2003           54030                           TS       TIME5
000040:
000041: 17,2004           22016                           LXCH     BANKRUPT                              #  INTERRUPT LEAD IN (CONTINUED)
000042: 17,2005           00006                           EXTEND
000043: 17,2006           22012                           QXCH     QRUPT
000044:
000045:                                                                                                  #  SET UP A DUMMY KALMAN FILTER T5RUPT.  (THIS MAY BE RESET TO THE KALMAN FILTER INITIALIZATION PASS, IF THE TRIM
000046:                                                                                                  #  GIMBAL CONTROL SYSTEM SHOULD BE USED.)
000047:
000048: 17,2007           00006                           EXTEND
000049: 17,2010           32001                           DCA      NULLFILT
000050: 17,2011           53001                           DXCH     T5ADR
000051:
000052:                                                                                                  #  CALCULATE LEM BODY RATES FOR Q AND R AXES:
000053:
000054:                                                                                                  #  THIS COMPUTATION IS VALID FOR BOTH ASCENT AND DESCENT SINCE THE OFFSET ACCELERATION TERM IS INCLUDED ALWAYS,
000055:                                                                                                  #  BUT HAS VALUE ZERO IN DESCENT, AND SINCE THE WEIGHTING FACTORS ARE IN ERASABLE AND DISTINCT.
000056:
000057:                                                                                                  #  FIRST, CONSTRUCT Y AND Z CDU INCREMENTS:
000058:
000059: 17,2012           30033                           CAE      CDUY                                  #  2'S COMPLEMENT MEASUREMENT SCALED AT PI
000060: 17,2013           54001                           TS       L                                     #  (SAVE FOR UPDATING OF OLDYFORQ)
000061: 17,2014           00006                           EXTEND                                         #  FORM INCREMENT IN CDUY FOR LAST 100 MS
000062: 17,2015           21430                           MSU      OLDYFORQ                              #  (100 MS OLD CDUY SAVED FROM LAST PASS)
000063: 17,2016           23430                           LXCH     OLDYFORQ                              #  UPDATE OLDYFORQ WITH NEW CDUY VALUE
000064: 17,2017           00006                           EXTEND                                         #  RESCALE DELTA CDUY FROM PI RADIANS TO
000065: 17,2020           77747                           MP       BIT7                                  #  PI/2(6) RADIANS BY MULTIPLYING BY 64
000066: 17,2021           22061                           LXCH     ITEMP1                                #  SAVE 1'S COMPLEMENT VALUE TEMPORARILY
000067: 17,2022           30034                           CAE      CDUZ                                  #  2'S COMPLEMENT MEASUREMENT SCALED AT PI
000068: 17,2023           54001                           TS       L                                     #  (SAVE FOR UPDATING OF OLDZFORQ)
000069: 17,2024           00006                           EXTEND                                         #  FORM INCREMENT IN CDUZ FOR LAST 100 MS
000070: 17,2025           21431                           MSU      OLDZFORQ                              #  (100 MS OLD CDUZ SAVED FROM LAST PASS)
000071:
000072: 17,2026           23431                           LXCH     OLDZFORQ                              #  UPDATE OLDZFORQ WITH NEW CDUZ VALUE
000073: 17,2027           00006                           EXTEND                                         #  RESCALE DELTA CDUZ FROM PI RADIANS TO
000074: 17,2030           77747                           MP       BIT7                                  #  PI/2(6) RADIANS BY MULTIPLYING BY 64
000075: 17,2031           22062                           LXCH     ITEMP2                                #  SAVE 1'S COMPLEMENT VALUE TEMPORARILY
000076:


000078:                                                                                                  #  SECOND, TRANSFORM CPU INCREMENTS TO BODY-ANGLE INCREMENTS:
000079:
000080: 17,2032           31406                           CAE      M31                                   #  MATRIX*VECTOR(WITH x COMPONENT ZERO)
000081: 17,2033           00006                           EXTEND
000082: 17,2034           70061                           MP       ITEMP1                                #  M31 * ITEMP1 = M31 * DELTA CDUY
000083: 17,2035           54063                           TS       ITEMP3
000084: 17,2036           31403                           CAE      M32                                   #  M32 * ITEMP2 = M32 * DELTA CDUZ
000085: 17,2037           00006                           EXTEND
000086: 17,2040           70062                           MP       ITEMP2                                #  DELTAR = M31*(DEL CDUY) + M32*(DEL CDUZ)
000087: 17,2041           26063                           ADS      ITEMP3                                #  R_BODY_ANGLE INCREMENT SCALED AT PI/2(6)
000088:
000089: 17,2042           31405                           CAE      M21                                   #  MATRIX*VECTOR(WITH X COMPONENT ZERO)
000090: 17,2043           00006                           EXTEND                                         #  CLOBBERS ITEMP2=DEL CDUZ, FOR EFFICIENCY
000091: 17,2044           70061                           MP       ITEMP1                                #  M21 * ITEMP1 = M21 * DELTA CDUY
000092: 17,2045           56062                           XCH      ITEMP2                                #  M22 * ITEMP2 = M22 * DELTA CDUZ
000093: 17,2046           00006                           EXTEND
000094: 17,2047           71401                           MP       M22                                   #  DELTAQ = M21*(DEL CDUY) + M22*(DEL CDUZ)
000095: 17,2050           26062                           ADS      ITEMP2                                #  Q_BODY_ANGLE INCREMENT SCALED AT PI/2(6)
000096:
000097:                                                                                                  #  FINALLY, DERIVE Q AND R BODY ANGULAR RATES:
000098:
000099: 17,2051           00006                           EXTEND                                         #  WFORQR IS K/(NOMINAL DT) SCALED AT 16
000100: 17,2052           71635                           MP       WFORQR                                #  FORM WEIGHTED VALUE OF MEASURED DATA
000101: 17,2053           57417                           XCH      OMEGAQ                                #  SAVE AND BEGIN TO WEIGHT VALUE OF OLD W
000102: 17,2054           00006                           EXTEND                                         #  (1-K) IS SCALED AT 1 FOR EFFICIENT CALC
000103: 17,2055           71636                           MP       (1-K)                                 #  (K CHANGES EVERY 2 SECONDS IN ASCENT.)
000104:
000105: 17,2056           61604                           AD       JETRATEQ                              #  WEIGHTED TERM DUE TO JET ACCELERATION
000106: 17,2057           61656                           AD       AOSQTERM                              #  TERM DUE TO ASCENT OFFSET ACCELERATION
000107: 17,2060           27417                           ADS      OMEGAQ                                #  TOTAL RATE ESTIMATE SCALED AT PI/4
000108:
000109: 17,2061           30063                           CAE      ITEMP3                                #  GET DELTAR
000110: 17,2062           00006                           EXTEND                                         #  WFORQR IS K/(NOMINAL DT) SCALED AT 16
000111: 17,2063           71635                           MP       WFORQR                                #  FORM WEIGHTED VALUE OF MEASURED DATA
000112: 17,2064           57421                           XCH      OMEGAR                                #  SAVE AND BEGIN TO WEIGHT VALUE OF OLD W
000113: 17,2065           00006                           EXTEND                                         #  (1-K) IS SCALED AT 1 FOR EFFICIENT CALC
000114: 17,2066           71636                           MP       (1-K)                                 #  (K CHANGES EVERY 2 SECONDS IN ASCENT.)
000115: 17,2067           61605                           AD       JETRATER                              #  WEIGHTED TERM DUE TO JET ACCELERATION
000116: 17,2070           61657                           AD       AOSRTERM                              #  TERM DUE TO ASCENT OFFSET ACCELERATION
000117: 17,2071           27421                           ADS      OMEGAR                                #  TOTAL RATE ESTIMATE SCALED AT PI/4
000118:
000119: 17,2072           01647                           TC       QJUMPADR
000120: 17,2073           32076        SKIPQRAX           CA       NORMQADR
000121: 17,2074           55647                           TS       QJUMPADR
000122: 17,2075           15751                           TCF      RESUME
000123: 17,2076           02077        NORMQADR           GENADR   NORMALQ
000124: 17,2077           37741        NORMALQ            CAF      BIT13                                 #  CHECKING ATTITUDE HOLD BIT
000125: 17,2100           00006                           EXTEND
000126: 17,2101           02031                           RAND     31                                    #  BITS INVERTED
000127: 17,2102           00006                           EXTEND
000128:
000129: 17,2103           12117                           BZF      CHKBIT10
000130:


000132: 17,2104           37740                           CAF      BIT14                                 #  ATT HOLD BIT NOT PRESENT. CHECK FOR AUTO
000133: 17,2105           00006                           EXTEND
000134: 17,2106           02031                           RAND     31
000135: 17,2107           00006                           EXTEND
000136: 17,2110           12620                           BZF      ATTSTEER                              #  AUTOMATIC STEERING, CHECK FOR RATE HOLD
000137: 17,2111           00006                           EXTEND                                         #  IF MODE SELECT SW OFF DO DAPIDLER NEXT
000138: 17,2112           32116                           DCA      IDLEADRQ
000139: 17,2113           53001                           DXCH     T5ADR
000140:
000141: 17,2114           15751                           TCF      RESUME
000142:
000143: 17,2115  E6,1541                                  EBANK=   DT
000144: 17,2115           02136 34006  IDLEADRQ           2CADR    DAPIDLER
000145: 17,2117           37744        CHKBIT10           CAF      BIT10                                 #  BIT10=1 FOR MIN IMP USE OF RHC
000146: 17,2120           70077                           MASK     DAPBOOLS
000147: 17,2121           00006                           EXTEND
000148: 17,2122           12162                           BZF      CHEKSTIK                              #  IN ATT-HOLD/RATE-COMMAND IF BIT10=0
000149:
000150: 17,2123           31007                           CAE      DELAYCTR                              #  SET TO 2 BY RUPT 10
000151: 17,2124           00006                           EXTEND
000152: 17,2125           12416                           BZF      XTRANS
000153:
000154: 17,2126           32571                           CA       MINTADR
000155: 17,2127           54062                           TS       TJETADR
000156:
000157: 17,2130           37755                           CA       BIT1
000158: 17,2131           00006                           EXTEND
000159: 17,2132           02031                           RAND     31
000160: 17,2133           00006                           EXTEND
000161: 17,2134           13504                           BZF      2JETS+Q
000162:
000163: 17,2135           37754                           CA       BIT2
000164: 17,2136           00006                           EXTEND
000165: 17,2137           02031                           RAND     31
000166: 17,2140           00006                           EXTEND
000167: 17,2141           13331                           BZF      2JETS-Q
000168:
000169: 17,2142           37751                           CA       BIT5
000170: 17,2143           00006                           EXTEND
000171: 17,2144           02031                           RAND     31
000172: 17,2145           00006                           EXTEND
000173: 17,2146           13470                           BZF      2JETS+R
000174:
000175: 17,2147           37750                           CA       BIT6
000176: 17,2150           00006                           EXTEND
000177: 17,2151           02031                           RAND     31
000178: 17,2152           00006                           EXTEND
000179: 17,2153           13270                           BZF      2JETS-R
000180:
000181: 17,2154           12416                           TCF      XTRANS
000182:


000184: 17,2155           32560        MINTJET            CAF      +T6TJMIN
000185: 17,2156           55611                           TS       TQR
000186: 17,2157           37761                           CA       ZERO
000187: 17,2160           55007                           TS       DELAYCTR
000188: 17,2161           12462                           TCF      TORQUEV
000189:
000190: 17,2162           37737        CHEKSTIK           CAF      BIT15                                 #  OUT-OF-DETENT BIT
000191: 17,2163           00006                           EXTEND
000192: 17,2164           02031                           RAND     31                                    #  BITS INVERTED
000193:
000194: 17,2165           00006                           EXTEND
000195: 17,2166           12231                           BZF      RHCACTIV                              #  BRANCH IF OUT OF DETENT
000196: 17,2167           37755                           CA       BIT1                                  #  OUR RATE COMMAND BIT
000197: 17,2170           70077                           MASK     DAPBOOLS
000198:
000199: 17,2171           00006                           EXTEND
000200: 17,2172           62620                           BZMF     ATTSTEER                              #  AUTOMATIC STEERING, CHECK FOR RATE HOLD
000201:                                                                                                  #  WE WERE IN RATE COMMAND AND RATES MUST BE MADE SMALLER
000202:
000203:                                                                                                  #   ARE RATES SMALL ENOUGH NOW
000204: 17,2173           31416                           CA       OMEGAP
000205: 17,2174           00006                           EXTEND
000206: 17,2175           70000                           SQUARE
000207: 17,2176           52062                           DXCH     ITEMP1
000208:
000209: 17,2177           31417                           CA       OMEGAQ
000210: 17,2200           00006                           EXTEND
000211: 17,2201           70000                           SQUARE
000212: 17,2202           20062                           DAS      ITEMP1
000213:
000214: 17,2203           31421                           CA       OMEGAR
000215: 17,2204           00006                           EXTEND
000216: 17,2205           70000                           SQUARE
000217: 17,2206           20062                           DAS      ITEMP1
000218:
000219:                                                                                                  #  WE NOW HAVE SQUARED MAGNITUDE OF RATE VECTOR IN ITEMP1
000220: 17,2207           42565                           CS       16/32400                              #  1 DEG/SEC SCALED AT PI.PI/16
000221: 17,2210           60061                           AD       ITEMP1
000222:
000223: 17,2211           00006                           EXTEND
000224: 17,2212           62220                           BZMF     RATESMAL
000225:
000226:                                                                                                  #           THE RATE IS NOT SMALL ENOUGH YET.
000227:
000228: 17,2213           31417                           CA       OMEGAQ
000229: 17,2214           55424                           TS       QRATEDIF
000230: 17,2215           31421                           CA       OMEGAR
000231: 17,2216           55425                           TS       RRATEDIF
000232: 17,2217           12264                           TCF      OBEYQRRC
000233:
000234: 17,2220           47755        RATESMAL           CS       BIT1
000235:


000237: 17,2221           70077                           MASK     DAPBOOLS                              #  RATE COMMAND BIT SET TO ZERO
000238: 17,2222           54077                           TS       DAPBOOLS
000239:
000240: 17,2223           30032                           CAE      CDUX
000241: 17,2224           54766                           TS       CDUXD
000242: 17,2225           30033                           CAE      CDUY
000243: 17,2226           54767                           TS       CDUYD
000244: 17,2227           30034                           CAE      CDUZ
000245: 17,2230           54770                           TS       CDUZD
000246:
000247: 17,2231           37755        RHCACTIV           CAF      BIT1
000248: 17,2232           70077                           MASK     DAPBOOLS
000249: 17,2233           00006                           EXTEND
000250: 17,2234           12416                           BZF      XTRANS                                #  LET P AXIS SET THE RATE COMMAND BIT
000251:
000252: 17,2235           30042                           CAE      Q-RHCCTR
000253: 17,2236           00006                           EXTEND
000254: 17,2237           77745                           MP       BIT9
000255: 17,2240           32572                           CA       -.88975
000256:
000257: 17,2241           00006                           EXTEND
000258: 17,2242           70001                           MP       L                                     #  -Q RATE COMMAND SCALED AT PI/4
000259: 17,2243           61417                           AD       OMEGAQ
000260: 17,2244           55424                           TS       QRATEDIF
000261:
000262: 17,2245           30044                           CAE      R-RHCCTR
000263: 17,2246           00006                           EXTEND
000264: 17,2247           77745                           MP       BIT9
000265: 17,2250           32572                           CA       -.88975
000266: 17,2251           00006                           EXTEND
000267: 17,2252           70001                           MP       L                                     #  -R RATE COMMAND SCALED AT PI/4.
000268: 17,2253           61421                           AD       OMEGAR
000269: 17,2254           55425                           TS       RRATEDIF
000270:
000271:                                                                                                  #  ZERO,ENABLE,AND START COUNTERS 99
000272: 17,2255           37761                           CAF      ZERO
000273: 17,2256           54043                           TS       P-RHCCTR
000274: 17,2257           54042                           TS       Q-RHCCTR
000275: 17,2260           54044                           TS       R-RHCCTR
000276: 17,2261           32566                           CAF      BIT8,9
000277: 17,2262           00006                           EXTEND
000278: 17,2263           05013                           WOR      13
000279:
000280: 17,2264           32611        OBEYQRRC           CA       RTJETADR
000281: 17,2265           54062                           TS       TJETADR
000282:
000283: 17,2266           11424                           CCS      QRATEDIF
000284: 17,2267           12330                           TCF      POSQEROR
000285: 17,2270           12272                           TCF      NOQJETS
000286: 17,2271           12277                           TCF      NEGQEROR
000287:


000289: 17,2272           11425        NOQJETS            CCS      RRATEDIF                              #  CHECK SIGN OF RATE ERROR AND GET ABVAL
000290: 17,2273           12357                           TCF      R+,CHKDB
000291:
000292: 17,2274           12416                           TCF      XTRANS
000293: 17,2275           12370                           TCF      R-,CHKDB
000294: 17,2276           12416                           TCF      XTRANS
000295:
000296: 17,2277           61476        NEGQEROR           AD       -RATEDB
000297: 17,2300           00006                           EXTEND
000298: 17,2301           62272                           BZMF     NOQJETS
000299:
000300: 17,2302           11425                           CCS      RRATEDIF
000301: 17,2303           12314                           TCF      R+Q-CHKR
000302: 17,2304           12306                           TCF      Q-NORJTS
000303: 17,2305           12321                           TCF      R-Q-CHKR
000304:
000305: 17,2306           41424        Q-NORJTS           CS       QRATEDIF
000306: 17,2307           55440                           TS       RATEDIF
000307: 17,2310           61477                           AD       -2JETLIM
000308: 17,2311           00006                           EXTEND
000309: 17,2312           63504                           BZMF     2JETS+Q
000310: 17,2313           13502                           TCF      4JETS+Q
000311:
000312: 17,2314           61476        R+Q-CHKR           AD       -RATEDB
000313: 17,2315           00006                           EXTEND
000314: 17,2316           62306                           BZMF     Q-NORJTS
000315:
000316: 17,2317           03565                           TC       EDOTVGEN
000317: 17,2320           13417                           TCF      2-V.RATE
000318:
000319: 17,2321           61476        R-Q-CHKR           AD       -RATEDB
000320: 17,2322           00006                           EXTEND
000321: 17,2323           62306                           BZMF     Q-NORJTS
000322: 17,2324           03561                           TC       EDOTUGEN
000323: 17,2325           00006                           EXTEND
000324: 17,2326           61425                           SU       RRATEDIF
000325: 17,2327           13444                           TCF      2+U.RATE
000326:
000327: 17,2330           61476        POSQEROR           AD       -RATEDB
000328: 17,2331           00006                           EXTEND
000329: 17,2332           62272                           BZMF     NOQJETS
000330:
000331: 17,2333           11425                           CCS      RRATEDIF
000332: 17,2334           12345                           TCF      R+Q+CHKR
000333: 17,2335           12337                           TCF      Q+NORJTS
000334: 17,2336           12352                           TCF      R-Q+CHKR
000335:
000336: 17,2337           31424        Q+NORJTS           CA       QRATEDIF
000337: 17,2340           55440                           TS       RATEDIF
000338: 17,2341           61477                           AD       -2JETLIM
000339:
000340: 17,2342           00006                           EXTEND
000341: 17,2343           63331                           BZMF     2JETS-Q
000342:


000344: 17,2344           13327                           TCF      4JETS-Q
000345:
000346: 17,2345           61476        R+Q+CHKR           AD       -RATEDB
000347: 17,2346           00006                           EXTEND
000348: 17,2347           62337                           BZMF     Q+NORJTS
000349: 17,2350           03561                           TC       EDOTUGEN
000350: 17,2351           13307                           TCF      2-U.RATE
000351:
000352: 17,2352           61476        R-Q+CHKR           AD       -RATEDB
000353: 17,2353           00006                           EXTEND
000354: 17,2354           62337                           BZMF     Q+NORJTS
000355: 17,2355           03565                           TC       EDOTVGEN
000356: 17,2356           13350                           TCF      2+V.RATE
000357:
000358: 17,2357           61476        R+,CHKDB           AD       -RATEDB
000359: 17,2360           00006                           EXTEND
000360: 17,2361           62416                           BZMF     XTRANS
000361: 17,2362           31425                           CA       RRATEDIF
000362: 17,2363           55440                           TS       RATEDIF
000363: 17,2364           61477                           AD       -2JETLIM
000364: 17,2365           00006                           EXTEND
000365: 17,2366           63270                           BZMF     2JETS-R
000366: 17,2367           13266                           TCF      4JETS-R
000367:
000368: 17,2370           61476        R-,CHKDB           AD       -RATEDB
000369: 17,2371           00006                           EXTEND
000370: 17,2372           62416                           BZMF     XTRANS
000371: 17,2373           41425                           CS       RRATEDIF
000372: 17,2374           55440                           TS       RATEDIF
000373: 17,2375           61477                           AD       -2JETLIM
000374: 17,2376           00006                           EXTEND
000375: 17,2377           63470                           BZMF     2JETS+R
000376:
000377: 17,2400           13466                           TCF      4JETS+R
000378:
000379: 17,2401           11440        RTJETIME           CCS      RATEDIF                               #  SCALED AT PI/4 RADIANS/SECOND
000380: 17,2402           67755                           AD       ONE
000381: 17,2403           12405                           TCF      +2
000382: 17,2404           67755                           AD       ONE                                   #  ABS(RATEDIF)
000383: 17,2405           00006                           EXTEND
000384: 17,2406           70066                           MP       1/NJETAC                              #  SCALED AT 2(8)/PI SECOND(2)/RADIANS
000385: 17,2407           00006                           EXTEND
000386: 17,2410           77752                           MP       BIT4                                  #  SCALED AT 2(3) SECONDS
000387: 17,2411           30001                           CAE      L
000388: 17,2412           00006                           EXTEND
000389: 17,2413           72561                           MP       25/32.QR                              #  TJET NOW PROPERLY SCALED IN A
000390: 17,2414           55611                           TS       TQR                                   #  AT 2(4)16/25 SECONDS
000391: 17,2415           12462                           TCF      TORQUEV
000392:


000394:                                                                                                  #  DAPSECTION: XTRANS              MOD. NO. 1  DATE: NOVEMBER 20, 1966
000395:
000396:                                                                                                  #  AUTHOR: JOHN S. BLISS (ADAMS ASSOCIATES)
000397:
000398:                                                                                                  #  MODIFICATION BY: JONATHAN D. ADDELSTON (ADAMS ASSOCIATES)
000399:
000400:                                                                                                  #  X-AXIS TRANSLATION LOGIC (IN THE ABSENSE OF Q,R-AXIS ROTATION) IS INITIATED IN THE "XTRANS" SECTION.
000401:
000402:                                                                                                  #  XTRANS FIRST SETS ADDTLT6 AND ADDT6JTS TO ZERO FOR USE BY "JTLST" AND "T6JOB" WHEN THEY ARE CALLED.  IT THEN
000403:                                                                                                  #  CHECKS FOR PLUS OR MINUS X TRANSLATION REQUESTS FROM THE ASTRONAUT'S STICK.  IF NONE IS REQUESTED IN THAT WAY,
000404:                                                                                                  #  THE ULLAGE BIT OF DAPBOOLS IS CHECKED.  (NOTE THAT THE ORDER OF THE TESTS ALLOWS THE ASTRONAUT TO OVERRIDE THE
000405:                                                                                                  #  INTERNAL ULLAGE REQUEST.)  IF NO TRANSLATION IS REQUESTED, ALL Q,R-AXIS JETS ARE TURNED OFF AND THE INTERRUPT
000406:                                                                                                  #  IS TERMINATED.
000407:
000408:
000409:                                                                                                  #  CALLING SEQUENCE: NONE.         SUBROUTINES CALLED: +/-TRANS
000410:
000411:                                                                                                  #  NORMAL EXIT: 1. IF NO TRANSLATION: RESUME.
000412:                                                                                                  #               2.IF SOME TRANSLATION: +/-TRANS
000413:
000414:                                                                                                  #  ALARM/ABORT MODE: NONE.
000415:
000416:                                                                                                  #  INPUT:  ULLAGER/DAPBOOLS,BITS7,8/CHANNEL 31.
000417:
000418:                                                                                                  #  OUTPUT: C(ANYTRANS) = NEGMAX FOR +X TRANSLATION.
000419:                                                                                                  #          C(ANYTRANS) = POSMAX FOR -X TRANSLATION.
000420:                                                                                                  #          C(TRANSNOW) = C(TRANSAVE) = +0.
000421:                                                                                                  #          C(TRANONLY) = PNZ
000422:
000423:                                                                                                  #  DEBRIS: A,L,
000424:
000425:
000426: 17,2416           37761        XTRANS             CAF      ZERO                                  #  PICK UP ZERO AND INITIALIZE
000427: 17,2417           55474                           TS       ADDTLT6
000428: 17,2420           55473                           TS       ADDT6JTS
000429:
000430: 17,2421           55611                           TS       TQR                                   #  A ZERO OF JET TIME FOR THE TORQUE VEXTOR
000431:
000432: 17,2422           37747                           CAF      BIT7                                  #  IS PLUS X TRANSLATION DESIRED
000433:
000434: 17,2423           00006                           EXTEND
000435: 17,2424           02031                           RAND     31                                    #  CHANNEL 31 BITS INVERTED
000436: 17,2425           00006                           EXTEND
000437: 17,2426           12444                           BZF      +XORULGE                              #  YES, +X
000438:
000439: 17,2427           37746                           CAF      BIT8                                  #  NO, IS MINUS X TRANSLATION DESIRED
000440: 17,2430           00006                           EXTEND
000441: 17,2431           02031                           RAND     31                                    #  CHANNEL 31 BITS INVERTED
000442: 17,2432           00006                           EXTEND
000443: 17,2433           12446                           BZF      -XTRANS                               #  YES, -X
000444:
000445: 17,2434           37750                           CAF      BIT6                                  #  NO, IS ULLAGE(+X TRANSLATION) DESIRED
000446: 17,2435           70077                           MASK     DAPBOOLS
000447:


000449: 17,2436           10000                           CCS      A
000450: 17,2437           12444                           TCF      +XORULGE                              #  YES, ULLAGE
000451:
000452: 17,2440           37761                           CAF      ZERO                                  #  SINCE NEITHER ROTATION NOR TRANSLATION
000453: 17,2441           00006                           EXTEND                                         #  ARE NEEDED, TURN OFF ALL JETS FOR THE
000454: 17,2442           01005                           WRITE    5                                     #  Q,R-AXES.
000455:
000456: 17,2443           15751                           TCF      RESUME
000457:
000458: 17,2444           37737        +XORULGE           CAF      NEGMAX                                #  PLUS TRANSLATION OR ULLAGE DESIRED:
000459: 17,2445           12447                           TCF      +2                                    #  LOAD NEGMAX IN A AND SKIP NEXT OPCODE TO
000460:
000461: 17,2446           37735        -XTRANS            CAF      POSMAX                                #  -X TRANSLATION DESIRED, A = POSMAX, AND
000462: 17,2447           54071                           TS       ANYTRANS                              #  LOAD ANYTRANS WITH A(NEG/POS MAX)
000463:
000464: 17,2450           37761                           CAF      ZERO                                  #  INITIALIZE TRANSNOW AND TRANSAVE WITH
000465: 17,2451           54072                           TS       TRANSNOW                              #  ZERO FOR USE IN THE JET POLICY SELECTION
000466: 17,2452           54073                           TS       TRANSAVE                              #  PROGRAM.
000467:
000468: 17,2453           00006                           EXTEND                                         #  SET UP 2CADR FOR TRANSFER TO +/-XTRAN.
000469: 17,2454           32460                           DCA      JTPOLADR
000470: 17,2455           54070                           TS       TRANONLY                              #  STORE POSITIVE, NON-ZERO S-REGISTER IN
000471: 17,2456           52006                           DTCB                                           #  TRANONLY.  AFTER +/-XTRAN, GO TO JTLST.
000472:
000473: 17,2457  E6,1471                                  EBANK=   JTSONNOW
000474: 17,2457           02316 40006  JTPOLADR           2CADR    +/-XTRAN                              #  TRANSLATION ONLY ENTRY TO JET POLICY
000475:


000477:                                                                                                  #  DO NECESSAY PARTS OF Q,R-AXES TORQUE VECTOR RECONSTRUCTION HERE AND NOW.  FOR OTHER PARTS WAIT UNTIL THE NEXT
000478:                                                                                                  #  P-AXIS RCS DAP T5RUPT
000479:
000480: 17,2461           55611        NORMRETN           TS       TQR
000481:
000482:
000483: 17,2462           41611        TORQUEV            CS       TQR                                   #  CALCULATED Q,R JET TIME (AS IN TIME6)
000484: 17,2463           62560                           AD       +T6TJMIN
000485: 17,2464           00006                           EXTEND                                         #    CORRECT BRANCH.
000486: 17,2465           62471                           BZMF     TQRGTTMI                              #  BRANCH FOR TQR = OR GREATER THAN MINIMP.
000487: 17,2466           37761                           CA       ZERO
000488: 17,2467           55475                           TS       TOFJTCHG                              #  SINCE TQR LESS THAN A MINIMUM IMPULSE,
000489: 17,2470           12416                           TCF      XTRANS                                #  SEE IF TRANSLATION IS DESIRED .
000490: 17,2471           31611        TQRGTTMI           CAE      TQR
000491: 17,2472           55475                           TS       TOFJTCHG
000492: 17,2473           62557                           AD       -1.5CSP
000493: 17,2474           00006                           EXTEND
000494: 17,2475           62502                           BZMF     DOQRSKIP
000495: 17,2476           31471                           CAE      JTSONNOW
000496: 17,2477           06015                           TC       WRITEQR                               #  TURN ON QR JETS USING T6JOB SUBROUTINE.
000497: 17,2500           15751                           TCF      RESUME
000498:
000499: 17,2501           02073        SKIPQRAD           GENADR   SKIPQRAX
000500: 17,2502           32501        DOQRSKIP           CA       SKIPQRAD
000501: 17,2503           55647                           TS       QJUMPADR
000502:
000503:                                                                                                  #  CHANGE JET ON AND OFF BITS TO ACCOUNT FOR THE PRESENT STATE OF THE
000504:                                                                                                  #    CHANNEL. THE CHANGES ACCOUNT FOR PURE ROTATION ONLY- NOT TRANSLATION.
000505: 17,2504           31471                           CA       JTSONNOW                              #  = JETS WHICH ARE TO GO ON NOW.
000506: 17,2505           00006                           EXTEND
000507: 17,2506           02005                           RAND     5                                     #  MASK THE CHANNEL WITH THE DESIRED STATE.
000508: 17,2507           00006                           EXTEND
000509: 17,2510           12535                           BZF      NOQRON                                #  A IS ZERO IF NO JETS TO GO ON ARE ON.
000510: 17,2511           67737                           AD       BIT15                                 #  MAKE DIFFERENCE CORRESPOND TO A QR JET.
000511: 17,2512           00006                           EXTEND
000512: 17,2513           61471                           SU       JTSONNOW                              #  RESULT IS COMPLEMENT OF JET BITS WHICH
000513: 17,2514           54001                           TS       L                                     #    ARE TO BE ON FOR 6.5MS MORE THAN CALC.
000514: 17,2515           00006                           EXTEND
000515: 17,2516           12542                           BZF      JTSAREON                              #  A=0,THUS ALL JETS TO GO ON ARE NOW ON.
000516: 17,2517           31472        TRSLTMN2           CAE      JTSATCHG
000517: 17,2520           77735                           MASK     POSMAX                                #  REMOVE BIT15 FROM JTSATCHG.
000518: 17,2521           00006                           EXTEND
000519: 17,2522           12526                           BZF      NOTRANS                               #  IF JTSATCHG = 0 THEN NO TRANSLATION NOW.
000520: 17,2523           32570                           CA       14-TQRMN
000521: 17,2524           27475                           ADS      TOFJTCHG                              #  INSURE T GREATER THAN 14 MS.
000522: 17,2525           12552                           TCF      TOJTLST
000523: 17,2526           40001        NOTRANS            CS       L
000524: 17,2527           67737                           AD       BIT15                                 #  MAKE JET BITS CORRESPOND TO QR AXIS.
000525: 17,2530           57472                           XCH      JTSATCHG                              #  JTSONNOW - L = JETS ON AT TOFJTCHG.
000526:
000527: 17,2531           55473                           TS       ADDT6JTS                              #  JTS ON AT TOFJTCHG +ONDELAY.
000528:


000530: 17,2532           32570                           CA       14-TQRMN
000531: 17,2533           55474                           TS       ADDTLT6
000532: 17,2534           12552                           TCF      TOJTLST
000533: 17,2535           32570        NOQRON             CA       14-TQRMN
000534: 17,2536           27475                           ADS      TOFJTCHG
000535: 17,2537           37761                           CA       ZERO
000536: 17,2540           55474                           TS       ADDTLT6
000537: 17,2541           12552                           TCF      TOJTLST
000538:
000539: 17,2542           31472        JTSAREON           CAE      JTSATCHG
000540: 17,2543           77735                           MASK     POSMAX
000541: 17,2544           00006                           EXTEND
000542: 17,2545           12550                           BZF      +3
000543: 17,2546           32567                           CAF      MCOMPTQR
000544: 17,2547           27475                           ADS      TOFJTCHG
000545: 17,2550           37761                           CA       ZERO
000546: 17,2551           55474                           TS       ADDTLT6
000547: 17,2552           31471        TOJTLST            CA       JTSONNOW
000548: 17,2553           06015                           TC       WRITEQR
000549: 17,2554           00006                           EXTEND
000550: 17,2555           32610                           DCA      JTLSTADR
000551: 17,2556           52006                           DTCB
000552: 17,2557           77417        -1.5CSP            DEC      -0.01465
000553: 17,2560           00014        +T6TJMIN           DEC      +.00073
000554: 17,2561           31000        25/32.QR           DEC      0.78125
000555: 17,2562           37776        MS20QR             OCTAL    37776
000556: 17,2563           37775        MS30QR             OCTAL    37775
000557: 17,2564           37773        MS50QR             OCTAL    37773
000558: 17,2565           00010        16/32400           DEC      0.00049
000559: 17,2566           00600        BIT8,9             OCTAL    00600
000560: 17,2567           77765        MCOMPTQR           OCTAL    77765                                 #  -10 MS COMPUTATION TIME
000561: 17,2570           00013        14-TQRMN           DEC      11         B-14
000562:
000563: 17,2571           02155        MINTADR            GENADR   MINTJET
000564: 17,2572           43415        -.88975            DEC      -.88975
000565: 17,2573           20000        (1-K),QR           DEC      0.50000                               #  K = 1/2
000566: 17,2574           02000        (1-KQ)/8           DEC      0.06250
000567: 17,2575           77557        -90MS              DEC      -.00879
000568: 17,2576           00220        +90MS              DEC      0.00879
000569: 17,2577           77537        NEGCSP2            DEC      -.00977
000570: 17,2600           40252        ALL+XJTS           OCTAL    40252
000571: 17,2601           00201        2,10-OUT           OCTAL    00201
000572: 17,2602           40042        +X,A               OCTAL    40042
000573: 17,2603           40210        +X,B               OCTAL    40210
000574: 17,2604           00104        1,9-OUT            OCTAL    00104
000575: 17,2605           40104        -X,A               OCTAL    40104
000576: 17,2606           40021        -X,B               OCTAL    40021
000577: 17,2607  E6,1471                                  EBANK=   JTSONNOW
000578: 17,2607           03415 34006  JTLSTADR           2CADR    JTLST
000579: 17,2611           02401        RTJETADR           GENADR   RTJETIME
000580:


000582:                                                                                                  #  Q,R-AXES ATTITUDE STEERING CALCULATIONS:
000583:
000584:                                                                                                  #  (EXECUTED WHEN LGC IS IN AUTOMATIC SCSMODE OR IF SCSMODE IS ATTITUDE HOLD AND THE ROTATIONAL HAND CONTROLLER IS
000585:                                                                                                  #  NEITHER OUT OF DETENT NOR IS THE RATE COMMAND BIT SET IN DAPBOOLS)
000586:
000587:                                                                                                  #  IMMEDIATELY AFTER CALCULATING THE ATTITUDE ERRORS, THE FOLLOWING TESTS ARE MADE TO DETERMINE WETHER THE DESCENT
000588:                                                                                                  #  ENGINE TRIM GIMBAL SHOULD BE USED TO CONTROL THE LEM ATTITUDE RATHER THAN THE RCS JETS:
000589:
000590:                                                                                                  #           1) IS THE TRIM GIMBAL FUNCTIONALLY OPERATIVE?
000591:                                                                                                  #           2) ARE THE Q-R-AXES RCS JETS OFF?
000592:                                                                                                  #           3) ARE BOTH TRIM GIMBAL DRIVES OFF?
000593:                                                                                                  #           4) IS THE LEM RATE LESS THAN .5 DEG/SEC ABOUT BOTH AXES?
000594:
000595: 17,2612           32617        GOTOGTS            CAF      INITFILT                              #  ERRORS NOW CONTROLLABLE BY TRIM GIMBAL
000596:
000597: 17,2613           55000                           TS       T5ADR                                 #  SET T5RUPT TO GO TO FILTER INITIALIZING
000598: 17,2614           15751                           TCF      RESUME                                #  PROGRAM
000599:
000600: 17,2615           07400        BGIM24             OCTAL    07400
000601: 17,2616           03603        DESCADR            GENADR   TJETLAW
000602: 17,2617           02000        INITFILT           GENADR   FILTINIT                              #  ADDRESS OF FILTER INITIALIZATION RUPT
000603:
000604:                                                                                                  #  "ATTSTEER" IS THE NOMINAL ENTRY POINT FOR REACTION CONTROL SYSTEM ATTITUDE STEERING:
000605:                                                                                                  #  BEGIN ATTSTEER BY CHECKING IF RATE HOLD MODE(CURRENTLY USED ONLY AT SIVB
000606:                                                                                                  #  -LEM SEPARATION-206 MISSION PHASE 6) IS REQUESTED(BIT 14 OF DAPBOOLS ON)
000607:                                                                                                  #  IF BIT 14 IS OFF, BRANCH TO QERRCALC DIRECTLY AND BEGIN AUTOMATIC
000608:                                                                                                  #  STEERING.  IF BIT 14 IS ON, TEST BIT 3 OF DAPBOOLS TO SEE IF THE DESIRED
000609:                                                                                                  #  RATE HAS BEEN SAVED YET.  IF IT IS ON, THIS IS NOT THE FIRST PASS AND
000610:                                                                                                  #  THE RATE HAS BEEN SAVED.  GO DIRECTLY TO QERRCALC FOR AUTOMATIC STEERING
000611:                                                                                                  #  IF THE BIT IS OFF, THE RATE MUST BE SAVED.  TRANSFER TO SAVERATE(BANK25)
000612:                                                                                                  #  AND RETURN AFTER FIRST PASS TO RESUME AND DAPIDLER.
000613:
000614:                                                                                                  #  IN ORDER TO USE RATE HOLD, THE MISSION PROGRAMMER MUST SET BIT 14 OF
000615:                                                                                                  #  DAPBOOLS ON AND SET BIT 3 OF DAPBOOLS TO ZERO.  UPON RETURNING FROM THE
000616:                                                                                                  #  FIRST PASS AT LEAST THROUGH RATE HOLD, THE MISSION PROGRAMMER MUST RESET
000617:                                                                                                  #  BIT 3 TO ITS PREVIOUS VALUE IF THIS IS NOT 1, BECASUE SAVERATE SETS BIT3
000618:                                                                                                  #  TO 1 FOR ALL PASSES AFTER THE FIRST IN ORDER NOT TO SAVE THE RATE AGAIN.
000619:
000620:
000621:                                                                                                  #  IN ADDITION TO NON-RATE HOLD MODE AND NON-FIRST PASS RATE HOLD MODE
000622:                                                                                                  #  EXITS RO QERRCALC, THE FIRST PASS EXITS TO RESUME, IE. OUT OF INTERRUPT
000623:                                                                                                  #  AND BACK TO DAPIDLER TO AWAIT THE NEXT CALL TO DAP.
000624:
000625:                                                                                                  #  RATE HOLD PRODUCES THE FOLLOWING OUTPUT IN ERASABLE --
000626:
000627:                                                                                                  #     CDUD - SCALED AT +/-PI, DESIRED GIMBAL ANGLE
000628:
000629:                                                                                                  #     DELCDU - SCALED AT +/-PI, INCREMENT TO CDUD EVERY 100MS
000630:
000631:                                                                                                  #     OMEGAPD, QD, RD - SCALED AT +/-PI/4, BODY AXIS RATES
000632:
000633:                                                                                                  #  ALL THESE ARE USED BY AUTOMATIC STEERING MODE EQUATIONS.
000634:


000636:                                                                                                  #  RATE HOLD REQUIRES OMEGAP, Q, R EVERY .25 SE, AND ALSO REQUIRES PILO-
000637:                                                                                                  #  TO-GIMBAL AXIS MATRIX ELEMENTS, MR12, 22, 13, 23 TO BE LOCATED IN THAT
000638:                                                                                                  #  ORDER
000639:
000640:                                                                                                  #  FINALLY, RATE HOLD LEAVES DEBRIS IN --
000641:
000642:                                                                                                  #     DLCDUIDX - LOOP INDEX USED IN COMPUTING DELCDUS, =1, 0
000643:
000644:                                                                                                  #     ITEMP1 - STORES TEMPORARY PRODUCTS AND SUMS, LEFT WITH DELCDUY IN 1S.
000645:
000646:
000647:
000648: 17,2620           40077        ATTSTEER           CS       DAPBOOLS
000649: 17,2621           77740                           MASK     BIT14
000650: 17,2622           10000                           CCS      A
000651: 17,2623           12660                           TCF      QERRCALC
000652:
000653:                                                                                                  #  CHECK DAPBOOLS, BIT3, TO SEE IF DESIRED RATE HAS BEEN SAVED YET
000654:
000655:                                                                                                  #  TO COMPUTE THE DELCDUS, Y AND Z, WE SET UP A LOOP AND SOLVE THE EQUATION
000656:
000657:                                                                                                  #   C(DELCDUY+DLCDUIDX)=(OMEGAQ).C(MR12+DLCDUIDX)+OMEGARD.C(MR13+DLCDUIDX))
000658:                                                                                                  #                          .(100MS) SCALED AT PI IN 2S COMPLEMENT(LIKE CDUS)
000659:
000660:                                                                                                  #  DURING THIS COMPUTATION, ITEMP1 IS USED TO STORE THE PARTIAL SUMS AND
000661:                                                                                                  #  PRODUCTS.  DELCDUY IS RESCALED TO 1 AS MR12 AND MR13 ARE SCALED AT 2.
000662:                                                                                                  #  AFTER CONVERTING TO TWOS COMPLEMENT, WE SET DELCDUX TO ZERO TO AVOID ANY
000663:                                                                                                  #  ROLL DURING RATE HOLD MODE.  NOTE THAT DELCDUS ARE COMPUTED IN THE NEGA-
000664:                                                                                                  #  TIVE TO ALLOW 2S COMP. MOD. SUBTRACT LATER ON (CDU-(-DELCDU))
000665:
000666: 17,2624           37755                           CAF      ONE                                   #  SET UP LOOP INDEX TO COMPUTE DELCDUS
000667: 17,2625           55645        NEXDLCDU           TS       DLCDUIDX                              #  DLCDUIDX = C(A)
000668:
000669: 17,2626           40775                           CS       OMEGAQD                               #  DLCDUIDX = 1              DLCDUIDX = 0
000670: 17,2627           00006                           EXTEND                                         #  ITEMP1=-OMEGAQD.MR22
000671: 17,2630           51645                           INDEX    DLCDUIDX
000672: 17,2631           71400                           MP       MR12                                  #  MR22 SCALED AT 1       MR12 SCALED AT 2
000673: 17,2632           54061                           TS       ITEMP1                                #                      ITEMP1=-OMEGAQD.MR12
000674:
000675: 17,2633           40776                           CS       OMEGARD                               #  C(A)=ITEMP1 -OMEGARD.M23
000676: 17,2634           00006                           EXTEND
000677: 17,2635           51645                           INDEX    DLCDUIDX                              #                 C(A)=ITEMP1 -OMEGARD.MR13
000678: 17,2636           71402                           MP       MR13                                  #  MR23 SCALED AT 1        MR13 SCALED AT 2
000679:
000680: 17,2637           60061                           AD       ITEMP1
000681: 17,2640           00006                           EXTEND                                         #  DELT = 100 MS. SCALED AT 4 SEC.
000682: 17,2641           73374                           MP       100MSCAL
000683: 17,2642           54061                           TS       ITEMP1                                #  ITEMP1 = C(A) . DELT
000684:
000685: 17,2643           11645                           CCS      DLCDUIDX                              #  CHECK INDEX FOR RESCALING
000686: 17,2644           12647                           TCF      +3                                    #  DELCDUZ SCALED AT PI/4, RESCALE UNNEEDED
000687:


000689: 17,2645           30061                           CAE      ITEMP1                                #  DELCDUY SCALED AT PI/2, RESCALE BY
000690: 17,2646           26061                           ADS      ITEMP1                                #  ADDING TO ITSELF
000691:
000692: 17,2647           10061                           CCS      ITEMP1                                #  CONVERT DELCDUS TO TWOS COMPLEMENT (SAME
000693: 17,2650           67755                           AD       ONE                                   #  AS CDUS).  ADD ONE TO RESTORE PRE-CCS A
000694: 17,2651           12653                           TCF      STODLCDU                              #  STORE DIRECT IF POSITIVE ZERO
000695: 17,2652           40000                           COM                                            #  COMPLEMENT IF NECGATIVE, CSS INCREMENTS
000696: 17,2653           51645        STODLCDU           INDEX    DLCDUIDX                              #  IF NEGATIVE ZERO, STORE POSITIVE ZERO
000697: 17,2654           54772                           TS       DELCDUY                               #  STORE FINAL DELCDUZ OR DELCDUY
000698:
000699: 17,2655           11645                           CCS      DLCDUIDX                              #  TEST INDEX DLCDUIDX, EITHER 1 OR 0
000700: 17,2656           12625                           TCF      NEXDLCDU                              #  IF 1, DO DELCDUY
000701: 17,2657           54771                           TS       DELCDUX                               #  DELDUZ,Y DONE, 0 TO DELCDUX-NO ROLL
000702:
000703: 17,2660           30033        QERRCALC           CAE      CDUY                                  #  Q-ERROR CALCULATION
000704: 17,2661           00006                           EXTEND
000705: 17,2662           20767                           MSU      CDUYD                                 #  CDU ANGLE - ANGLE DESIRED (Y-AXIS)
000706: 17,2663           54061                           TS       ITEMP1                                #  SAVE FOR RERRCALC
000707: 17,2664           00006                           EXTEND
000708: 17,2665           71405                           MP       M21                                   #  (CDUY-CDUYD)*M21 SCALED AT PI RADIANS
000709: 17,2666           57413                           XCH      ER                                    #  SAVE FIRST TERM (OF TWO) IN OPP.AXIS REG
000710: 17,2667           30034                           CAE      CDUZ                                  #  SECOND TERM CALCULATION:
000711: 17,2670           00006                           EXTEND
000712: 17,2671           20770                           MSU      CDUZD                                 #  CDU ANGLE -ANGLE DESIRED (Z-AXIS)
000713: 17,2672           54062                           TS       ITEMP2                                #  SAVE FOR RERRCALC
000714: 17,2673           00006                           EXTEND
000715:
000716: 17,2674           71401                           MP       M22                                   #  (CDUZ-CDUZD)*M22 SCALED AT PI RADIANS
000717: 17,2675           27413                           ADS      ER                                    #  SAVE SUM OF TERMS, NO OVERFLOW EVER
000718: 17,2676           55467                           TS       QERROR                                #  SAVE QERROR FOR EIGHT-BALL DISPLAY
000719:
000720: 17,2677           30061        RERRCALC           CAE      ITEMP1                                #  R-ERROR CALCULATION:
000721: 17,2700           00006                           EXTEND                                         #  CDU ANGLE -ANGLE DESIRED (Y-AXIS)
000722: 17,2701           71406                           MP       M31                                   #  (CDUY-CDUYD)*M31 SCALED AT PI RADIANS
000723: 17,2702           57411                           XCH      E                                     #  SAVE FIRST TERM (OF TWO) IN OPP.AXIS REG
000724: 17,2703           30062                           CAE      ITEMP2                                #  SECOND TERM CALCULATION:
000725: 17,2704           00006                           EXTEND                                         #  CDU ANGLE -ANGLE DESIRED (Z-AXIS)
000726: 17,2705           71403                           MP       M32                                   #  (CDUZ-CDUZD)*M32 SCALED AT PI RADIANS
000727: 17,2706           27411                           ADS      E                                     #  SAVE SUM OF TERMS, NO OVERFLOW EVER
000728: 17,2707           55470                           TS       RERROR                                #  SAVE R-ERROR FOR EIGHT-BALL DISPLAY
000729:
000730:                                                                                                  #  TEST (1): IS THE TRIM GIMBAL FUNCTIONALLY OPERATIVE?
000731:
000732: 17,2710           37754                           CAF      BIT2                                  #  ETST TO SEE IF LEM AND DAP MODES ALLOW
000733: 17,2711           70077                           MASK     DAPBOOLS                              #  USE OF TRIM GIMBAL CONTROL SYSTEM:
000734: 17,2712           10000                           CCS      A                                     #  BIT2 = 0 MEANS THAT TRIM GIMBAL CONTROL
000735: 17,2713           12755                           TCF      STILLRCS                              #  IS POSSIBLE, SO TEST OTHER TG CONDITIONS
000736:
000737:                                                                                                  #  TEST (2): ARE THE Q,R-AXES RCS JETS OFF?
000738: 17,2714           00006                           EXTEND                                         #  BUT, IF JETS ARE OFF AND TRIM GIMBAL MAY
000739:
000740: 17,2715           00005                           READ     5                                     #  POSSIBLY BE USED: BEING IN THE JET COAST
000741:


000743: 17,2716           10000                           CCS      A                                     #  REGION OF THE PHASE PLANE IS A NECESSARY
000744: 17,2717           12755                           TCF      STILLRCS                              #  BUT INSUFFICIENT REASON FOR GTS USE
000745:
000746:                                                                                                  #  TEST(3): ARE BOTH TRIM GIMBAL DRIVES OFF?
000747:
000748: 17,2720           00006                           EXTEND                                         #  BITS 9-12 OF CHANNEL 12 ARE THE SIGNALS
000749: 17,2721           00012                           READ     12                                    #  WHICH DRIVE THE TRIM GIMBAL ENGINE:
000750: 17,2722           72615                           MASK     BGIM24                                #  IF NONE OF THESE BITS ARE ON, THEN BOTH
000751:
000752: 17,2723           10000                           CCS      A                                     #  WAITLIST TASKS TO TURN OFF THE DRIVES
000753: 17,2724           12755                           TCF      STILLRCS                              #  HAVE BEEN DONE AND GTS CONTROL CAN OCCUR
000754:
000755:                                                                                                  #  TEST(4): IS THE LEM RATE LESS THAN .5 DEG/SEC ABOUT BOTH AXES?
000756:
000757: 17,2725           37755                           CA       BIT1
000758: 17,2726           54066        LOOPTOP            TS       QRCNTR
000759: 17,2727           60000                           DOUBLE
000760: 17,2730           50000                           INDEX    A
000761: 17,2731           11417                           CCS      OMEGAQ                                #  IS ERROR RATE SMALL ENOUGH FOR GTS.
000762: 17,2732           62753                           AD       -RATLM+1                              #  -.5 DEG/SEC SCALED AT PI/4 + 1 BIT
000763: 17,2733           12735                           TCF      +2
000764: 17,2734           62753                           AD       -RATLM+1
000765: 17,2735           00006                           EXTEND
000766: 17,2736           62740                           BZMF     +2                                    #  IS RATE LESS,EQUAL .5 DEG/SEC.
000767: 17,2737           12755                           TCF      STILLRCS                              #  NO.      SO USE RCS.
000768: 17,2740           50066                           INDEX    QRCNTR                                #  YES.     TRY THE ERROR MAGNITUDE.
000769: 17,2741           11467                           CCS      QDIFF                                 #  IS ERROR SMALL ENOUGH FOR GTS.
000770: 17,2742           62754                           AD       -XBND+1                               #  -1.4 DEG SCALED AT PI    + 1 BIT
000771: 17,2743           12745                           TCF      +2
000772: 17,2744           62754                           AD       -XBND+1
000773: 17,2745           00006                           EXTEND
000774: 17,2746           62750                           BZMF     +2                                    #  IS ERROR LESS,EQUAL 1.4 DEG.
000775:
000776: 17,2747           12755                           TCF      STILLRCS                              #  NO.      USE RCS CONTROL.
000777: 17,2750           10066                           CCS      QRCNTR                                #  THIS AXIS IS FINE.   ARE BOTH DONE.
000778: 17,2751           12726                           TCF      LOOPTOP                               #  NOW TRY THE Q AXIS
000779: 17,2752           12612                           TCF      GOTOGTS                               #  TRANSFER TO TRIM GIMBAL CONTROL
000780: 17,2753           77512        -RATLM+1           OCT      77512                                 #  -.5 DEG/SEC SCALED AT PI/4  + 1 BIT
000781: 17,2754           77601        -XBND+1            OCT      77601                                 #  -1.4 DEG SCALED AT PI, + 1 BIT.
000782:                                                                                                  #  "STILLRCS" IS THE ENTRY POINT TO RCS ATTITUDE STERRING WHENEVER IT IS FOUND THAT THE TRIM GIMBAL CONTROL
000783:                                                                                                  #  SYSTEM SHOULD NOT BE USED;
000784:
000785:                                                                                                  #  BRANCH TO SPSRCS WHEN BIT 15 = 0 FOR SPS BACKUP
000786:
000787: 17,2755           10077        STILLRCS           CCS      DAPBOOLS
000788: 17,2756           13576                           TCF      SPSBAKUP
000789: 17,2757           12760                           NOOP
000790: 17,2760           32616                           CAF      DESCADR                               #  SET JET SELECT LOGIC RETURN ADDRESS TO
000791: 17,2761           54062                           TS       TJETADR                               #  THE Q,R-AXIS TJETLAW CALCULATION
000792:
000793: 17,2762           05041                           TC       T6JOBCHK                              #  CHECK T6 CLOCK RUPT BEFORE SUBROUTINE
000794:


000796:
000797:                                                                                                  #  Q,R-AXES URGENCY FUNCTION LOOP:
000798:
000799:                                                                                                  #  SET UP LOOP TO DO R-AXIS, THEN Q-AXIS:
000800:
000801: 17,2763           37755                           CAF      ONE                                   #  1: REFERS TO R-AXIS VARIABLES.
000802: 17,2764           54061                           TS       AXISCNTR                              #  0: REFERS TO Q-AXIS VARIABLES.
000803:
000804:                                                                                                  #  PICK UP EDOT AND RESCALE FROM PI/4 TO PI/16 RADIANS/SECOND:
000805:
000806: 17,2765           50061        URGLOOP            INDEX    AXISCNTR                              #  ERROR RATES ARE PRE-CALCULATED BY RATE
000807: 17,2766           31424                           CAE      EDOTQ                                 #  DERIVATION SCALED AT PI/4 RADIANS/SECOND
000808: 17,2767           00006                           EXTEND                                         #  MULTIPLYING BY FOUR (BIT3) LEAVES EDOT
000809: 17,2770           77753                           MP       FOUR                                  #  AS C(L) IF EDOT LESS THAN 11.25 DEG/SEC.
000810: 17,2771           00006                           EXTEND
000811:
000812: 17,2772           12774                           BZF      +2                                    #  IF C(A) NON-ZERO, THEN EDOT GREATER THAN
000813: 17,2773           13042                           TCF      EDOTMAX                               #  11.25 DEG/SEC IN MAGNITUDE, SO LIMIT IT.
000814:
000815: 17,2774           10001                           CCS      L                                     #  INSURE NON-ZERO EDOT:
000816: 17,2775           67754                           AD       TWO                                   #  C(L) PNZ REMAINS UNCHANGED.
000817: 17,2776           13000                           TCF      +2                                    #  C(L) NNZ REMAINS UNCHANGED.
000818: 17,2777           40000                           COM                                            #  C(L)  +0 BECOMES 77776.
000819: 17,3000           67763                           AD       NEG1                                  #  C(L)  -0 BECOMES 77776.
000820: 17,3001           55407        EDOTSTOR           TS       EDOT                                  #  SAVE NON-ZERO EDOT SCALED AT PI/16.
000821:
000822: 17,3002           00006                           EXTEND                                         #  CALCULATE (EDOT)(EDOT):
000823: 17,3003           70000                           SQUARE
000824: 17,3004           55412                           TS       EDOT(2)                               #  SCALED AT PI(2)/2(+8) RAD(2)/SEC(2).
000825:
000826: 17,3005           00006                           EXTEND                                         #   0.5               +8       2
000827: 17,3006           50061                           INDEX    AXISCNTR                              #  ------  SCALED AT 2  /PI SEC /RAD.
000828: 17,3007           71711                           MP       1/ACCQ                                #  ACCQ,R
000829: 17,3010           00006                           EXTEND                                         #  DEADBAND = 5.0 OR 1.0 OR 0.3 DEGREES
000830: 17,3011           61415                           SU       DB                                    #  SCALED AT PI RADIANS.
000831: 17,3012           55442                           TS       FPQR                                  #  0.5(1/ACC)EDOT(2)-DB SCALED AT PI RADS.
000832:
000833: 17,3013           31412                           CAE      EDOT(2)                               #  SCALED AT PI(2)/2(8) RAD(2)/SEC(2).
000834: 17,3014           00006                           EXTEND
000835:
000836: 17,3015           50061                           INDEX    AXISCNTR
000837: 17,3016           71713                           MP       1/AMINQ                               #  .5(1/ACCMIN) AT 2(8)/PI SEC(2)/RAD.
000838: 17,3017           61415                           AD       DB                                    #  DEADBAND SCALED AT PI RADIANS.
000839: 17,3020           55460                           TS       FPQRMIN                               #  .5(1/ACCMIN)EDOT(2)+DB SCALED AT PI RAD.
000840:
000841: 17,3021           11407                           CCS      EDOT                                  #  EDOT TEST ON SIGN (NON-ZERO):
000842: 17,3022           31411                           CAE      E                                     #  ATTITUDE ERROR FOR THIS AXIS
000843: 17,3023           13025                           TCF      +2                                    #  SCALED AT PI RADIANS.
000844: 17,3024           13047                           TCF      EDOTNEG
000845: 17,3025           27442                           ADS      FPQR                                  #  E+0.5(1/ACC)EDOT(2)-DB SCALED AT PI RAD.
000846:
000847: 17,3026           11407        FTEST              CCS      EDOT                                  #  EDOT GUARANTEED NOT +0 OR -0.
000848: 17,3027           11442                           CCS      FPQR                                  #  FPQR ---------- NOT +0.
000849:


000851: 17,3030           13035                           TCF      QUICKURG                              #  EDOT.G.+0, FPQR.G.+0.
000852: 17,3031           11442                           CCS      FPQR                                  #  EDOT.L.-0.
000853: 17,3032           13053                           TCF      FMINCALC                              #  EDOT.L.-0,FPQR.G.+0/EDOT.G.+0,FPQR.L.-0.
000854: 17,3033           13053                           TCF      FMINCALC                              #  EDOT.G.+0,FPQR.E.-0 (FROM FIRST CCS).
000855: 17,3034           13035                           TCF      QUICKURG                              #  EDOT.L.-0,FPQR.L.-0.
000856:
000857: 17,3035           31407        QUICKURG           CAE      EDOT                                  #  EDOT.L.-0,FPQR.E.-0 (FROM 2ND CCS).
000858: 17,3036           00006                           EXTEND                                         #  SCALE FROM PI/16 TO PI RADIANS/SECOND
000859: 17,3037           77743                           MP       BIT11                                 #  TO HAVE SAME SCALING AS FPQR AFTER THE
000860: 17,3040           61442                           AD       FPQR                                  #  IMPLICIT MULT. OF FPQR BY 1/SEC.
000861: 17,3041           13075                           TCF      URGMULT                               #  THIS URGENCY = (1/ACC)(FPQR+EDOT).
000862:
000863: 17,3042           10000        EDOTMAX            CCS      A                                     #  GUARANTEED NOT +0 OR -0.
000864: 17,3043           37735                           CAF      POSMAX
000865: 17,3044           13001                           TCF      EDOTSTOR                              #  SET EDOT TO SIGNED MAXIMUM.
000866: 17,3045           47735                           CS       POSMAX
000867: 17,3046           13001                           TCF      EDOTSTOR                              #  SCALED AT PI/16 RADIANS/SECOND.
000868:
000869: 17,3047           41442        EDOTNEG            CS       FPQR                                  #  SCALED AT PI RADIANS
000870:
000871: 17,3050           61411                           AD       E                                     #  ATTITUDE ERROR FOR THIS AXIS
000872: 17,3051           55442                           TS       FPQR                                  #  E-0.5(1/ACC)EDOT(2)+DB SCALED AT PI RAD.
000873: 17,3052           13026                           TCF      FTEST
000874:
000875: 17,3053           11442        FMINCALC           CCS      FPQR                                  #  NECESSARY RETEST ON FPQR;
000876: 17,3054           41460                           CS       FPQRMIN
000877: 17,3055           13057                           TCF      +2                                    #  E-0.5(1/ACCMIN)EDOT(2)-DB
000878: 17,3056           31460                           CAE      FPQRMIN
000879: 17,3057           61411                           AD       E                                     #  E+0.5(1/ACCMIN)EDOT(2)+DB
000880: 17,3060           55460                           TS       FPQRMIN                               #  SCALED AT PI RADIANS.
000881:
000882: 17,3061           11407                           CCS      EDOT                                  #  EDOT    GUARANTEED NOT +0 OR -0.
000883: 17,3062           11460                           CCS      FPQRMIN                               #  FPQRMIN GUARANTEED NOT +0 (CALL IT F).
000884: 17,3063           13070                           TCF      ZEROURG                               #  EDOT.G.+0, F.G.+0.
000885: 17,3064           11460                           CCS      FPQRMIN                               #  EDOT.L.-0.
000886: 17,3065           13074                           TCF      NORMURG                               #  EDOT.L.-0, F.G.+0 / EDOT.G.+0, F.L.-0.
000887: 17,3066           13074                           TCF      NORMURG                               #  EDOT.G.+0, F.E.-0 (FROM FIRST CCS).
000888: 17,3067           13070                           TCF      ZEROURG                               #  EDOT.L.-0, F.L.-0.
000889: 17,3070           00006        ZEROURG            EXTEND                                         #  EDOT.L.-0, F.E.-0 (FROM 2ND CCS).
000890:
000891: 17,3071           33166                           DCA      DPZEROY                               #  THIS URGENCY IS ZERO.
000892: 17,3072           53505                           DXCH     URGENCYQ
000893: 17,3073           13101                           TCF      MOREURG                               #  TEST FOR NEXT AXIS
000894:
000895: 17,3074           31460        NORMURG            CAE      FPQRMIN                               #  THIS URGENCY IS FPQRMIN(1/ACC).
000896: 17,3075           00006        URGMULT            EXTEND
000897: 17,3076           50061                           INDEX    AXISCNTR
000898: 17,3077           71711                           MP       1/ACCQ
000899: 17,3100           53505                           DXCH     URGENCYQ                              #  SAVE D.P. SCALED AT 2(+9).
000900:
000901: 17,3101           10061        MOREURG            CCS      AXISCNTR                              #  TEST FOR END OF LOOP
000902:


000904: 17,3102           13104                           TCF      +2                                    #  CONTINUE.
000905: 17,3103           13167                           TCF      URGSCALQ                              #  FINISHED.
000906:
000907: 17,3104           54061                           TS       AXISCNTR                              #  Q-AXIS
000908:
000909: 17,3105           00006                           EXTEND
000910: 17,3106           31505                           DCA      URGENCYQ                              #  SET URGENCYR
000911: 17,3107           53507                           DXCH     URGENCYR
000912:
000913: 17,3110           53412                           DXCH     E                                     #  SET ER,EDOT(2)R
000914: 17,3111           53414                           DXCH     ER
000915: 17,3112           55411                           TS       EQ                                    #  SET EQ
000916: 17,3113           31407                           CAE      EDOT
000917: 17,3114           55410                           TS       EDOT(R)                               #  SET EDOT(R).
000918:
000919: 17,3115           12765                           TCF      URGLOOP                               #  CONTINUE.
000920:
000921:                                                                                                  #  SUFFICIENT TEST FOR URGENCY RESCALING:
000922:
000923: 17,3116           11506        URGSCALR           CCS      URGENCYR                              #  IF ABVAL(URGENCYR) LESS THAN SCALE BOUND
000924: 17,3117           63164                           AD       SCALEBND
000925: 17,3120           13122                           TCF      +2                                    #  THEN BOTH URGENCIES CAN BE RESCALED FROM
000926: 17,3121           63164                           AD       SCALEBND
000927: 17,3122           00006                           EXTEND                                         #  2(+9) TO 2(+4) SECONDS.
000928: 17,3123           63125                           BZMF     URGSCALE
000929: 17,3124           13175                           TCF      URGLIMS
000930:
000931:                                                                                                  #  RESCALE BOTH URGENCIES FROM 2(+9) TO 2(+4) SECONDS:
000932:
000933: 17,3125           31504        URGSCALE           CAE      URGENCYQ
000934: 17,3126           00006                           EXTEND
000935: 17,3127           77750                           MP       BIT6
000936: 17,3130           23504                           LXCH     URGENCYQ
000937: 17,3131           31505                           CAE      URGENCYQ   +1
000938: 17,3132           00006                           EXTEND
000939: 17,3133           77750                           MP       BIT6
000940: 17,3134           27504                           ADS      URGENCYQ
000941:
000942: 17,3135           31506                           CAE      URGENCYR
000943: 17,3136           00006                           EXTEND
000944: 17,3137           77750                           MP       BIT6
000945: 17,3140           23506                           LXCH     URGENCYR
000946: 17,3141           31507                           CAE      URGENCYR   +1
000947: 17,3142           00006                           EXTEND
000948: 17,3143           77750                           MP       BIT6
000949: 17,3144           27506                           ADS      URGENCYR
000950:
000951: 17,3145           33163                           CAF      URGLM2                                #  SET URGENCY LIMIT FOR 2(+4) SCALING.
000952: 17,3146           54066                           TS       URGLIMIT
000953: 17,3147           13177                           TCF      URGFUDGE
000954:


000956: 17,3150           31717        URGRATQM           CAE      URGRATQ
000957: 17,3151           00006                           EXTEND
000958: 17,3152           71504                           MP       URGENCYQ
000959: 17,3153           55504                           TS       URGENCYQ
000960: 17,3154           13206                           TCF      URGFUDG1
000961:
000962: 17,3155           31720        URGRATRM           CAE      URGRATR
000963: 17,3156           00006                           EXTEND
000964:
000965: 17,3157           71506                           MP       URGENCYR
000966: 17,3160           55506                           TS       URGENCYR
000967: 17,3161           13215                           TCF      URGPLANE
000968:
000969: 17,3162           77637        URGLM1             DEC      -0.00586                              #  -3 SECONDS SCALED AT 2(+9)
000970: 17,3163           71777        URGLM2             DEC      -0.1875                               #  -3 SECONDS SCALED AT 2(+4)
000971: 17,3164           77002        SCALEBND           DEC      -0.03105                              #  -16 SECONDS SCALED AT 2(+9)
000972: 17,3165           00000 00000  DPZEROY            2DEC     0          B-28
000973:                                                                                                  #  NECESSARY TEST FOR URGENCY RESCALING:
000974:
000975: 17,3167           11504        URGSCALQ           CCS      URGENCYQ                              #  IF ABVAL(URGENCYQ) LESS THAN SCALE BOUND
000976: 17,3170           63164                           AD       SCALEBND
000977: 17,3171           13173                           TCF      +2                                    #  THEN TEST URGENCYR FOR RESCALABLE
000978: 17,3172           63164                           AD       SCALEBND
000979: 17,3173           00006                           EXTEND                                         #  MAGNITUDE.
000980: 17,3174           63116                           BZMF     URGSCALR
000981:
000982:                                                                                                  #  USE URGENCY CORRECTION FACTOR RATIO WHEN NECESSARY:
000983:
000984: 17,3175           33162        URGLIMS            CAF      URGLM1                                #  SET URGENCY LIMIT FOR 2(+9) SCALING.
000985: 17,3176           54066                           TS       URGLIMIT
000986:
000987:
000988: 17,3177           31652        URGFUDGE           CAE      AOSQ                                  #  TEST ON ASOQ(URGENCYQ) GREATER THAN ZERO
000989: 17,3200           00006                           EXTEND
000990:
000991: 17,3201           13206                           BZF      URGFUDG1                              #  (IF AOSQ ZERO, DO NOT USE URGRATQ.)
000992: 17,3202           00006                           EXTEND
000993: 17,3203           71504                           MP       URGENCYQ                              #  IF PRODUCT NEGATIVE, APPLY URGRATQ.
000994: 17,3204           00006                           EXTEND
000995: 17,3205           63150                           BZMF     URGRATQM
000996:
000997: 17,3206           31653        URGFUDG1           CAE      AOSR                                  #  TEST ON AOSR(URGENCYR) GREATER THAN ZERO
000998: 17,3207           00006                           EXTEND
000999: 17,3210           13215                           BZF      URGPLANE                              #  (IF AOSR ZERO, DO NOT USE URGRATQ.)
001000: 17,3211           00006                           EXTEND
001001: 17,3212           71506                           MP       URGENCYR                              #  IF PRODUCT NEGATIVE, APPLY URGRATR.
001002: 17,3213           00006                           EXTEND
001003: 17,3214           63155                           BZMF     URGRATRM
001004:
001005: 17,3215           31504        URGPLANE           CAE      URGENCYQ                              #  BEGIN URGENCY-PLANE COMPUTATIONS:
001006: 17,3216           00006                           EXTEND
001007:


001009: 17,3217           13357                           BZF      BURGZERO                              #  TEST FOR BOTH URGENCIES ZERO
001010:
001011: 17,3220           00006                           EXTEND
001012: 17,3221           73375                           MP       -TAN22.5
001013: 17,3222           61506                           AD       URGENCYR
001014: 17,3223           00006                           EXTEND
001015: 17,3224           73372                           MP       COS22.5
001016: 17,3225           55512                           TS       TERMA                                 #  UR.COS(22.5)-UQ.SIN(22.5)
001017:
001018: 17,3226           41506                           CS       URGENCYR
001019: 17,3227           00006                           EXTEND
001020: 17,3230           73375                           MP       -TAN22.5
001021: 17,3231           61504                           AD       URGENCYQ
001022: 17,3232           00006                           EXTEND
001023:
001024: 17,3233           73372                           MP       COS22.5
001025: 17,3234           55513                           TS       TERMB                                 #  UR.SIN(22.5)+UQ.COS(22.5)
001026:
001027: 17,3235           61512        A+B/A-B            AD       TERMA
001028: 17,3236           55510                           TS       A+B
001029: 17,3237           41513        A-B/ONLY           CS       TERMB
001030: 17,3240           61512                           AD       TERMA
001031: 17,3241           55511                           TS       A-B
001032:
001033:                                                                                                  #  AXIS AND MODE SELECTION
001034:
001035: 17,3242           31513                           CAE      TERMB                                 #  B URGENCY TEST
001036: 17,3243           00006                           EXTEND
001037: 17,3244           63376                           BZMF     NEGBURG
001038:
001039: 17,3245           31512        POSBURG            CAE      TERMA                                 #  A URGENCY TEST
001040: 17,3246           00006                           EXTEND
001041: 17,3247           63316                           BZMF     NETAPOSB
001042:
001043: 17,3250           31511        POSAPOSB           CAE      A-B
001044: 17,3251           00006                           EXTEND
001045: 17,3252           63274                           BZMF     MINUSU                                #  NEGATIVE U-AXIS SELECTED
001046:
001047: 17,3253           31714        2/4JET-R           CAE      1/AMINR
001048: 17,3254           55627                           TS       .5ACCMNE
001049: 17,3255           00006                           EXTEND
001050: 17,3256           31414                           DCA      ER
001051: 17,3257           53412                           DXCH     E
001052: 17,3260           31410                           CAE      EDOT(R)
001053: 17,3261           55407                           TS       EDOT
001054: 17,3262           30066                           CAE      URGLIMIT
001055: 17,3263           61506                           AD       URGENCYR
001056: 17,3264           00006                           EXTEND
001057: 17,3265           63270                           BZMF     2JETS-R
001058:
001059: 17,3266           47755        4JETS-R            CS       ONE
001060:


001062: 17,3267           13507                           TCF      POLTYPE                               #  GO FIND BEST POLICY
001063:
001064: 17,3270           11663        2JETS-R            CCS      NJ-R
001065: 17,3271           13266                           TCF      4JETS-R
001066: 17,3272           47754                           CS       TWO
001067: 17,3273           13507                           TCF      POLTYPE                               #  GO FIND BEST POLICY
001068:
001069: 17,3274           31715        MINUSU             CAE      1/AMINU
001070: 17,3275           55627                           TS       .5ACCMNE
001071: 17,3276           31506                           CAE      URGENCYR
001072: 17,3277           61506                           AD       URGENCYR
001073: 17,3300           10000                           CCS      A
001074: 17,3301           60066                           AD       URGLIMIT
001075: 17,3302           13304                           TCF      +2
001076: 17,3303           60066                           AD       URGLIMIT
001077: 17,3304           00006                           EXTEND
001078: 17,3305           63311                           BZMF     2JETS-U
001079:
001080: 17,3306           03523        2JETSM-U           TC       UXFORM
001081:
001082: 17,3307           36301        2-U.RATE           CAF      THREE
001083: 17,3310           13507                           TCF      POLTYPE                               #  GO FIND BEST POLICY
001084:
001085: 17,3311           11665        2JETS-U            CCS      NJ-U
001086: 17,3312           13306                           TCF      2JETSM-U
001087: 17,3313           03523                           TC       UXFORM
001088: 17,3314           37754                           CAF      TWO
001089: 17,3315           13507                           TCF      POLTYPE                               #  GO FIND BEST POLICY
001090:
001091: 17,3316           31510        NETAPOSB           CAE      A+B
001092: 17,3317           00006                           EXTEND
001093: 17,3320           63335                           BZMF     PLUSV
001094:
001095: 17,3321           31713        2/4JET-Q           CAE      1/AMINQ
001096: 17,3322           55627                           TS       .5ACCMNE
001097: 17,3323           30066                           CAE      URGLIMIT
001098: 17,3324           61504                           AD       URGENCYQ
001099: 17,3325           00006                           EXTEND
001100: 17,3326           63331                           BZMF     2JETS-Q
001101:
001102: 17,3327           47760        4JETS-Q            CS       FIVE
001103: 17,3330           13507                           TCF      POLTYPE                               #  GO FIND BEST POLICY
001104:
001105: 17,3331           11661        2JETS-Q            CCS      NJ-Q
001106: 17,3332           13327                           TCF      4JETS-Q
001107: 17,3333           46276                           CS       SIX
001108: 17,3334           13507                           TCF      POLTYPE                               #  GO FIND BEST POLICY
001109:
001110: 17,3335           31716        PLUSV              CAE      1/AMINV
001111: 17,3336           55627                           TS       .5ACCMNE
001112: 17,3337           41504                           CS       URGENCYQ
001113:


001115: 17,3340           61506                           AD       URGENCYR
001116: 17,3341           10000                           CCS      A
001117:
001118:
001119: 17,3342           60066                           AD       URGLIMIT
001120: 17,3343           13345                           TCF      +2
001121: 17,3344           60066                           AD       URGLIMIT
001122: 17,3345           00006                           EXTEND
001123: 17,3346           63352                           BZMF     2JETS+V
001124:
001125: 17,3347           03515        2JETSM+V           TC       VXFORM
001126: 17,3350           37760        2+V.RATE           CAF      FIVE
001127: 17,3351           13507                           TCF      POLTYPE                               #  GO FIND BEST POLICY
001128:
001129: 17,3352           11666        2JETS+V            CCS      NJ+V
001130: 17,3353           13347                           TCF      2JETSM+V
001131: 17,3354           03515                           TC       VXFORM
001132: 17,3355           37753                           CAF      FOUR
001133: 17,3356           13507                           TCF      POLTYPE                               #  GO FIND BEST POLICY
001134:
001135: 17,3357           31506        BURGZERO           CAE      URGENCYR                              #  TEST FOR SECOND URGENCY ALSO ZERO
001136: 17,3360           00006                           EXTEND
001137: 17,3361           12416                           BZF      XTRANS                                #  NO ROTATION NEEDED NOW.
001138:
001139: 17,3362           00006                           EXTEND                                         #  TIME SAVING A,B CALCULATION
001140: 17,3363           73373                           MP       SIN22.5
001141: 17,3364           55513                           TS       TERMB                                 #  UR.SIN(22.5)
001142:
001143: 17,3365           31506                           CAE      URGENCYR
001144: 17,3366           00006                           EXTEND
001145: 17,3367           73372                           MP       COS22.5
001146: 17,3370           55512                           TS       TERMA                                 #  UR.COS(22.5)
001147: 17,3371           13237                           TCF      A-B/ONLY
001148:
001149: 17,3372           35441        COS22.5            DEC      0.92388                               #  COSINE OF 22.5 DEGREES
001150: 17,3373           14176        SIN22.5            DEC      0.38268                               #  SINE OF 22.5 DEGREES
001151: 17,3374           00632        100MSCAL           DEC      0.025
001152: 17,3375           62575        -TAN22.5           DEC      -.41421                               #  NEGATIVE OF TANGENT OF 22.5 DEGREES
001153:
001154: 17,3376           31512        NEGBURG            CAE      TERMA                                 #  A URGENCY TEST
001155: 17,3377           00006                           EXTEND
001156: 17,3400           63426                           BZMF     NEGANEGB
001157:
001158: 17,3401           31510        POSANEGB           CAE      A+B
001159: 17,3402           00006                           EXTEND
001160: 17,3403           63474                           BZMF     2/4JET+Q
001161:
001162: 17,3404           31716        MINUSV             CAE      1/AMINV
001163: 17,3405           55627                           TS       .5ACCMNE
001164: 17,3406           41504                           CS       URGENCYQ
001165: 17,3407           61506                           AD       URGENCYR
001166:
001167: 17,3410           10000                           CCS      A
001168: 17,3411           60066                           AD       URGLIMIT
001169:


001171: 17,3412           13414                           TCF      +2
001172: 17,3413           60066                           AD       URGLIMIT
001173: 17,3414           00006                           EXTEND
001174: 17,3415           63421                           BZMF     2JETS-V
001175:
001176: 17,3416           03515        2JETSM-V           TC       VXFORM
001177: 17,3417           37757        2-V.RATE           CAF      SEVEN
001178: 17,3420           13507                           TCF      POLTYPE                               #  GO FIND BEST POLICY
001179:
001180: 17,3421           11667        2JETS-V            CCS      NJ-V
001181: 17,3422           13416                           TCF      2JETSM-V
001182: 17,3423           03515                           TC       VXFORM
001183: 17,3424           36276                           CAF      SIX
001184: 17,3425           13507                           TCF      POLTYPE                               #  GO FIND BEST POLICY
001185:
001186: 17,3426           31511        NEGANEGB           CAE      A-B
001187: 17,3427           00006                           EXTEND
001188: 17,3430           63453                           BZMF     2/4JET+R
001189:
001190: 17,3431           31715        PLUSU              CAE      1/AMINU
001191: 17,3432           55627                           TS       .5ACCMNE
001192: 17,3433           31504                           CAE      URGENCYQ
001193: 17,3434           61506                           AD       URGENCYR
001194: 17,3435           10000                           CCS      A
001195: 17,3436           60066                           AD       URGLIMIT
001196: 17,3437           13441                           TCF      +2
001197: 17,3440           60066                           AD       URGLIMIT
001198: 17,3441           00006                           EXTEND
001199: 17,3442           63446                           BZMF     2JETS+U
001200:
001201: 17,3443           03523        2JETSM+U           TC       UXFORM
001202: 17,3444           37755        2+U.RATE           CAF      ONE
001203:
001204: 17,3445           13507                           TCF      POLTYPE                               #  GO FIND BEST POLICY
001205:
001206: 17,3446           11664        2JETS+U            CCS      NJ+U
001207: 17,3447           13443                           TCF      2JETSM+U
001208: 17,3450           03523                           TC       UXFORM
001209: 17,3451           37761                           CAF      ZERO
001210: 17,3452           13507                           TCF      POLTYPE                               #  GO FIND BEST POLICY
001211:
001212: 17,3453           31714        2/4JET+R           CAE      1/AMINR
001213: 17,3454           55627                           TS       .5ACCMNE
001214: 17,3455           00006                           EXTEND
001215: 17,3456           31414                           DCA      ER
001216: 17,3457           53412                           DXCH     E
001217: 17,3460           31410                           CAE      EDOT(R)
001218: 17,3461           55407                           TS       EDOT
001219: 17,3462           30066                           CAE      URGLIMIT
001220: 17,3463           61506                           AD       URGENCYR
001221:
001222: 17,3464           00006                           EXTEND
001223:


001225: 17,3465           63470                           BZMF     2JETS+R
001226:
001227: 17,3466           46301        4JETS+R            CS       THREE
001228: 17,3467           13507                           TCF      POLTYPE                               #  GO FIND BEST POLICY
001229:
001230: 17,3470           11662        2JETS+R            CCS      NJ+R
001231: 17,3471           13466                           TCF      4JETS+R
001232: 17,3472           47753                           CS       FOUR
001233: 17,3473           13507                           TCF      POLTYPE                               #  GO FIND BEST POLICY
001234:
001235: 17,3474           31713        2/4JET+Q           CAE      1/AMINQ
001236: 17,3475           55627                           TS       .5ACCMNE
001237: 17,3476           30066                           CAE      URGLIMIT
001238: 17,3477           61504                           AD       URGENCYQ
001239:
001240: 17,3500           00006                           EXTEND
001241: 17,3501           63504                           BZMF     2JETS+Q
001242:
001243: 17,3502           47757        4JETS+Q            CS       SEVEN
001244: 17,3503           13507                           TCF      POLTYPE                               #  GO FIND BEST POLICY
001245:
001246: 17,3504           11660        2JETS+Q            CCS      NJ+Q
001247: 17,3505           13502                           TCF      4JETS+Q
001248: 17,3506           47752                           CS       EIGHT
001249:
001250:                                                                                                  #  GENERALIZED CALLING SEQUENCE FOR ALL Q,R-AXES ROTATIONS (FROM BANK 17):
001251:
001252: 17,3507           54061        POLTYPE            TS       NETACNDX                              #  SAVE INDEX INDICATING AXIS, DIRECTION,
001253: 17,3510           00006                           EXTEND                                         #  AND NUMBER OF JETS REQUESTED (THIS SPEC-
001254: 17,3511           33514                           DCA      POLADR                                #  IFIES THE "OPTIMAL" POLICY.  TRANSFER
001255: 17,3512           52006                           DTCB                                           #  ACROSS BANKS TO POLICY SELECTION ROUTINE
001256:
001257: 17,3513  E6,1471                                  EBANK=   JTSONNOW
001258: 17,3513           02170 40006  POLADR             2CADR    POLTYPEP                              #  2CADR OF JET POLICY SELECT ROUINTE.
001259:
001260:


001262:                                                                                                  #  SUBROUTINES UXFORM AND VXFORM CALCULATE NEEDED VALUES FOR T-JET LAW
001263:                                                                                                  #  (THEY GO OFF TO REDUCE RATE, IF NECESSARY, AND THEN DO NOT RETURN)
001264:
001265: 17,3515           31705        VXFORM             CAE      1/2JETSV                              #  GET INVERSE OF V-JET ACCELERATION
001266: 17,3516           54066                           TS       1/NJETAC
001267: 17,3517           41411                           CS       EQ                                    #  COMPLEMENT FOR TRANSFORMATION
001268: 17,3520           55411                           TS       EQ
001269: 17,3521           41424                           CS       EDOTQ
001270: 17,3522           13526                           TCF      UVXFORM    +1
001271: 17,3523           31701        UXFORM             CAE      1/2JETSU                              #  SET INVERSE OF U-JET ACCELERATION
001272: 17,3524           54066                           TS       1/NJETAC
001273:
001274: 17,3525           31424        UVXFORM            CAE      EDOTQ                                 #  TRANSFORM ANGULAR RATE TO U/V-AXIS
001275: 17,3526           61425                           AD       EDOTR
001276: 17,3527           00006                           EXTEND
001277: 17,3530           73575                           MP       .707
001278: 17,3531           55407                           TS       EDOT                                  #  SAVE FOR REDUCEUV
001279: 17,3532           00006                           EXTEND
001280: 17,3533           77753                           MP       BIT3
001281: 17,3534           00006                           EXTEND
001282:
001283: 17,3535           13543                           BZF      UVEDOT                                #  BRANCH IF RESCALING SUCCESSFUL.
001284:
001285: 17,3536           10000                           CCS      A                                     #  LIMIT EDOT TO +/- 11.25 DEG/SEC.
001286: 17,3537           37735                           CAF      POSMAX
001287: 17,3540           13544                           TCF      UVEDOT1
001288: 17,3541           47735                           CS       POSMAX
001289: 17,3542           13544                           TCF      UVEDOT1
001290:
001291: 17,3543           30001        UVEDOT             CAE      L
001292: 17,3544           55407        UVEDOT1            TS       EDOT                                  #  RATE ERROR SCALED AT PI/16.
001293: 17,3545           00006                           EXTEND
001294: 17,3546           70000                           SQUARE
001295: 17,3547           55412                           TS       EDOT(2)                               #  SAVE RATE SQUARED SCALED AT PI(2)/2(8)
001296:
001297: 17,3550           77533        -1.6CSP            DEC      -.01000
001298: 17,3551           00014        +TJMINT6           DEC      +.00073
001299: 17,3552           77767        -TJMIN16           DEC      -.00047
001300: 17,3553  17,3552               -TJMINQR           EQUALS   -TJMIN16
001301: 17,3553           00050        38.5MAT4           DEC      0.00242                               #  38.75 MS SCALED AT 4
001302: 17,3554           77733        -MS35AT4           DEC      -.00219                               #  -35MS SCALED AT 4
001303: 17,3555           34344        MAXRATE            DEC      0.88889                               #  10 DEGREES/SECOND SCALED AT PI/16
001304: 17,3556           31221        MAXRATE2           DEC      0.79012                               #  100 DEG(2)/SEC(2) SCALED AT PI(2)/2(8)
001305: 17,3557           01552        .6DEG/SC           DEC      0.05333                               #  6/10 DEGREES/SECOND SCALED AT PI/16
001306:
001307: 17,3560           31000        25/32QR            DEC      0.78125
001308:


001310:                                                                                                  #  THESE TWO SUBROUTINES TRANSFORM EDOTQ,EDOTR INTO THE U/V-AXIS (RESPECTIVELY) FOR THE RATE COMMAND MODE (ONLY).
001311:                                                                                                  #  VALUE IS STORED IN EDOTGEN SCALED AT PI/4 RADIANS/SECOND.
001312:
001313: 17,3561                                           BANK     17
001314: 17,3561           31701        EDOTUGEN           CAE      1/2JETSU                              #  FOR U-AXIS TRANSFORMATION
001315: 17,3562           54066                           TS       1/NJETAC
001316: 17,3563           31424                           CAE      EDOTQ
001317: 17,3564           13570                           TCF      +4
001318: 17,3565           31705        EDOTVGEN           CAE      1/2JETSV                              #  FOR V-AXIS TRANSFORMATION
001319: 17,3566           54066                           TS       1/NJETAC
001320: 17,3567           41424                           CS       EDOTQ
001321: 17,3570           61425                           AD       EDOTR
001322: 17,3571           00006                           EXTEND
001323: 17,3572           73575                           MP       .707
001324: 17,3573           55440                           TS       RATEDIF
001325: 17,3574           00002                           TC       Q
001326:
001327:
001328:
001329: 17,3575           26501        .707               DEC      0.70711
001330:
001331: 17,3576           00006        SPSBAKUP           EXTEND
001332: 17,3577           33602                           DCA      SPSRCSAD
001333: 17,3600           52006                           DXCH     Z
001334: 17,3601  E6,1541                                  EBANK=   DT
001335: 17,3601           03536 42006  SPSRCSAD           2CADR    SPSRCS
001336:


001338:                                                                                                  #  *********TJETLAW************************************************************************************************
001339:
001340: 17,3603           41407        TJETLAW            CS       EDOT                                  #  TEST ON EDOT SIGN:
001341: 17,3604           00006                           EXTEND
001342: 17,3605           63611                           BZMF     +4
001343: 17,3606           55407                           TS       EDOT                                  #  SIGNS OF E AND EDOT CHANGED IF EDOT NEG,
001344: 17,3607           41411                           CS       E                                     #  TO CONSIDER FUNCTIONS IN THE UPPER HALF
001345: 17,3610           55411                           TS       E                                     #  OF THE E-DOT PHASE PLANE.
001346:
001347: 17,3611           31412                           CAE      EDOT(2)                               #  SCALED AT PI(2)/2(+8) RAD(2)/SEC(2)
001348: 17,3612           00006                           EXTEND                                         #  1/NETACC HAS BEEN SET FOR N-JETS WITH
001349: 17,3613           70066                           MP       1/NETACC                              #  IMPLICIT FACTOR OF (1/2).
001350: 17,3614           61411                           AD       E                                     #  ATTITUDE ERROR SCALED AT PI RADIANS.
001351: 17,3615           00006                           EXTEND                                         #  DEADBAND VALUE SCALED AT PI RADIANS.
001352: 17,3616           61415                           SU       DB                                    #  E+.5EDOT/NETACC-DB
001353: 17,3617           55445                           TS       HDAP                                  #  SCALED AT PI RADIANS.
001354:
001355: 17,3620           00006                           EXTEND
001356: 17,3621           63662                           BZMF     NEGHDAP
001357:
001358: 17,3622           31407                           CAE      EDOT                                  #  RATE ERROR; LIMITED TO +/- 11.25 DEG/SEC
001359: 17,3623           00006                           EXTEND                                         #  SCALED AT PI/LG RADIANS/SECOND.
001360: 17,3624           70066                           MP       1/NETACC                              #  SCALED AT 2(+8)/PI SEC(2)/RAD: (ACC) (-1)
001361: 17,3625           20001                           DDOUBL                                         #  SCALED AT 2(+4) SECONDS.
001362: 17,3626           55512                           TS       TERMA
001363:
001364: 17,3627           63550                           AD       -1.6CSP                               #  (EDOT/NETACC)-1.5CSP SCALED AT 16 SECS.
001365: 17,3630           00006                           EXTEND
001366: 17,3631           63634                           BZMF     +3
001367:
001368: 17,3632           37740        MAXTJET            CAF      BIT14                                 #  (1/2) IS LIKE POSMAX AT THIS SCALING.
001369: 17,3633           12461                           TCF      NORMRETN                              #  (OVERFLOW IS PREVENTED IN THIS WAY.)
001370:
001371: 17,3634           41445                           CS       HDAP                                  #  DBMINIMP-E-(EDOT(2)/NETACC)+DB
001372: 17,3635           61626                           AD       MINIMPDB                              #  SCALED AT PI RADIANS.
001373: 17,3636           00006                           EXTEND                                         #  (DURING APS BURNS, DBMINIMP=-DB.)
001374: 17,3637           63711                           BZMF     MAINBRCH
001375:
001376: 17,3640           31512                           CAE      TERMA                                 #  EDOT/NETACC-35MS SCALED AT 16 SECONDS.
001377: 17,3641           63554                           AD       -MS35AT4
001378: 17,3642           00006                           EXTEND                                         #  COMPARE TIME-TO-GET-ZERO-RATE WITH 35MS.
001379: 17,3643           63646                           BZMF     INZONE4
001380:
001381: 17,3644           63553                           AD       38.5MAT4                              #  TIME-TO-GET-ZERO-RATE + 1/2 MINIMP.
001382: 17,3645           13752                           TCF      TJETSCAL
001383:
001384: 17,3646           31606        INZONE4            CAE      NO.QJETS                              #  IF NO Q-AXIS JETS THEN MUST HAVE R-AXIS
001385: 17,3647           00006                           EXTEND
001386: 17,3650           13656                           BZF      ROTRAXIS
001387:


001389: 17,3651           30775                           CAE      OMEGAQD                               #  WITH Q-AXIS JETS, ZERO THE RATE ERROR.
001390: 17,3652           55417                           TS       OMEGAQ
001391:
001392: 17,3653           31607                           CAE      NO.RJETS                              #  IF NO R-AXIS JETS, THEN Q-AXIS JETS WERE
001393: 17,3654           00006                           EXTEND                                         #  ALREADY FOUND.
001394: 17,3655           13660                           BZF      DOTJMIN
001395:
001396: 17,3656           30776        ROTRAXIS           CAE      OMEGARD                               #  WITH R-AXIS JETS, ZERO THE RATE ERROR.
001397: 17,3657           55421                           TS       OMEGAR
001398:
001399: 17,3660           33551        DOTJMIN            CAF      +TJMINT6                              #  USE MINIMUM IMPULSE DT FOR TQR.
001400: 17,3661           12461                           TCF      NORMRETN
001401:
001402: 17,3662           31412        NEGHDAP            CAE      EDOT(2)                               #  RATE ERROR SQUARED SCALED AT PI(2)/2(8).
001403:
001404: 17,3663           00006                           EXTEND
001405: 17,3664           71627                           MP       .5ACCMNE                              #  .5(1/ACCMIN) AT 2(8)/PI SEC(2)/RAD.
001406: 17,3665           61411                           AD       E                                     #  ATTITUDE ERROR SCALED AT PI RADIANS
001407: 17,3666           61415                           AD       DB                                    #  DEADBANDS (2) SCALED AT PI RADIANS
001408: 17,3667           61625                           AD       DBMINIMP                              #  (DURING APS BURNS DBMINIMP = 0.)
001409: 17,3670           00006                           EXTEND
001410: 17,3671           63673                           BZMF     +2
001411: 17,3672           12416                           TCF      XTRANS                                #  NO ROTATION JETS NEEDED.
001412:
001413: 17,3673           43555                 +2        CS       MAXRATE                               #  10 DEGREES/SECOND SCALED AT PI/16.
001414: 17,3674           61407                           AD       EDOT                                  #  EDOT-MAXRATE SCALED AT PI/16 RAD/SEC.
001415: 17,3675           00006                           EXTEND
001416: 17,3676           63700                           BZMF     +2
001417: 17,3677           12416                           TCF      XTRANS
001418:
001419: 17,3700           41407                 +2        CS       EDOT                                  #  RATE ERROR SCALED AT PI/16 RAD/SEC.
001420: 17,3701           00006                           EXTEND                                         #  (LIMITED TO +/< 11.25 DEG/SEC.)
001421: 17,3702           70066                           MP       1/NETACC                              #  SCALED AT 2(+8)/PI SEC(2)/RAD; (ACC):-1)
001422: 17,3703           20001                           DDOUBL                                         #  SCALED AT 2(+4) SECONDS.
001423: 17,3704           55512                           TS       TERMA
001424:
001425: 17,3705           41445                           CS       HDAP                                  #  -E+.51EDOT(2)/NETACC+DB
001426: 17,3706           61411                           AD       E
001427:
001428: 17,3707           61411                           AD       E                                     #  TWICE ERROR NEGATES E OF HDAP(ABOVE)
001429: 17,3710           61626                           AD       MINIMPDB
001430: 17,3711           55445        MAINBRCH           TS       HDAP                                  #  -HDAP(ABOVE)+2E+DBMINIMP AT PI RADIANS.
001431:
001432: 17,3712           30066                           CAE      1/NETACC                              #  .5(1/NETACC+1/ACCMIN) SCALED AT 2(8)/PI.
001433: 17,3713           27627                           ADS      .5ACCMNE                              #  .5ACCMNE NOW HOLDS DENOM.
001434:
001435: 17,3714           00006                           EXTEND                                         #  DENOM(MAXRATE(2)).HDAP AT PI RADIANS.
001436: 17,3715           73556                           MP       MAXRATE2
001437: 17,3716           61445                           AD       HDAP
001438: 17,3717           00006                           EXTEND
001439: 17,3720           63756                           BZMF     NOROOT


001441: 17,3721           31445                           CAE      HDAP                                  #  +(HDAP)/(DENOM)(1)NETACC(2) AT 2(8)
001442: 17,3722           00006                           EXTEND
001443: 17,3723           11627                           DV       .5ACCMNE
001444: 17,3724           00006                           EXTEND
001445: 17,3725           70066                           MP       1/NETACC
001446: 17,3726           00006                           EXTEND
001447: 17,3727           70066                           MP       1/NETACC
001448: 17,3730           20001                           DDOUBL
001449: 17,3731           20001                           DDOUBL
001450: 17,3732           55513                           TS       TERMB
001451:
001452: 17,3733           33550                           CAF      -1.6CSP                               #  -1.6(CSP)-EDOT/NETACC SCALED AT  16 SECS
001453: 17,3734           61512                           AD       TERMA
001454: 17,3735           00006                           EXTEND
001455: 17,3736           70000                           SQUARE                                         #  (-1.6(CSP)-EDOT/NETACC)(2)   AT 256 SECS
001456: 17,3737           61513                           AD       TERMB
001457: 17,3740           00006                           EXTEND                                         #  (-1.6(CSP)-EDOT/NETACC)(2)+TERMB
001458: 17,3741           63632                           BZMF     MAXTJET
001459:
001460:
001461: 17,3742           33552                           CAF      -TJMIN16                              #  -EDOT/NETACC-TJMIN SCALED AT 16.
001462: 17,3743           61512                           AD       TERMA
001463: 17,3744           00006                           EXTEND
001464: 17,3745           63764                           BZMF     MAYNOJET
001465:
001466: 17,3746           05041        PREROOT            TC       T6JOBCHK
001467:
001468: 17,3747           41513                           CS       TERMB
001469: 17,3750           05435                           TC       SPROOT                                #  SQRT(-TERMB) SCALED AT 2(4) SECONDS.
001470: 17,3751           61512        TJSUM              AD       TERMA                                 #  TERMA+SQRT(-TERMB)
001471:
001472: 17,3752           60000        TJETSCAL           DOUBLE                                         #  NOW SCALED AT 2(+3) SECONDS.
001473: 17,3753           00006                           EXTEND
001474: 17,3754           73560                           MP       25/32QR                               #  SCALED TO 16/25 2(+4) SECONDS AS TIME6.
001475: 17,3755           12461                           TCF      NORMRETN
001476:
001477: 17,3756           33555        NOROOT             CAF      MAXRATE
001478: 17,3757           63557                           AD       .6DEG/SC                              #  MAXRATE+DEL SCALED AT PI/16 RAD/SEC
001479: 17,3760           00006                           EXTEND
001480: 17,3761           70066                           MP       1/NETACC                              #  (MAXRATE+DEL)/NETACC
001481: 17,3762           20001                           DDOUBL                                         #  SCALED AT 2(+4) SECONDS
001482: 17,3763           13751                           TCF      TJSUM
001483:
001484:
001485: 17,3764           33552        MAYNOJET           CAF      -TJMIN16
001486: 17,3765           61512                           AD       TERMA                                 #  TERMA-TJMIN SCALED AT 2(+4) SECONDS.
001487: 17,3766           00006                           EXTEND
001488: 17,3767           70000                           SQUARE                                         #  SCALED AT 2(+8) SECONDS.
001489: 17,3770           61513                           AD       TERMB
001490: 17,3771           00006                           EXTEND
001491: 17,3772           63746                           BZMF     PREROOT                               #  (TERMA-TJMIN)(2)+TERMB AT 2(8) SECONDS.
001492: 17,3773           12416                           TCF      XTRANS                                #  NO ROTATION JETS.

End of include-file Q,R-AXES_REACTION_CONTROL_SYSTEM_AUTOPILOT.agc.  Parent file is MAIN.agc


