
Source Code


000002:                                                                                                  ## Copyright:   Public domain.
000003:                                                                                                  ## Filename:    RADAR_TEST_PROGRAMS.agc
000004:                                                                                                  ## Purpose:     A section of Sunburst revision 37, or Shepatin revision 0.
000005:                                                                                                  ##              It is part of an early development version of the software
000006:                                                                                                  ##              for Apollo Guidance Computer (AGC) on the unmanned Lunar
000007:                                                                                                  ##              Module (LM) flight Apollo 5. Sunburst 37 was the program
000008:                                                                                                  ##              upon which Don Eyles's offline development program Shepatin
000009:                                                                                                  ##              was based; the listing herein transcribed was actually for
000010:                                                                                                  ##              the equivalent revision 0 of Shepatin.
000011:                                                                                                  ##              This file is intended to be a faithful transcription, except
000012:                                                                                                  ##              that the code format has been changed to conform to the
000013:                                                                                                  ##              requirements of the yaYUL assembler rather than the
000014:                                                                                                  ##              original YUL assembler.
000015:                                                                                                  ## Reference:   pp. 185-186
000016:                                                                                                  ## Assembler:   yaYUL
000017:                                                                                                  ## Contact:     Ron Burkey <info@sandroid.org>.
000018:                                                                                                  ## Website:     www.ibiblio.org/apollo/index.html
000019:                                                                                                  ## Mod history: 2017-05-24 MAS  Created from Sunburst 120.
000020:                                                                                                  ##              2017-05-30 HG   Transcribed
000021:                                                                                                  ##              2017-06-21 RSB  Proofed using octopus/ProoferComments.
000022:


000024: 10,3260                                           BANK     10
000025: 10,3260  E7,1435                                  EBANK=   RSTKLOC
000026:
000027:                                                                                                  #           RADAR SAMPLING LOOP.
000028:
000029: 10,3260           11436        RADSAMP            CCS      RSAMPDT                               #  TIMES NORMAL ONCE-PER-SECOND SAMPLING.
000030: 10,3261           13263                           TCF      +2
000031:
000032:
000033: 10,3262           15745                           TCF      TASKOVER                              #  +0 INSERTED MANUALLY TERMINATES TEST.
000034:
000035: 10,3263           05701                           TC       WAITLIST
000036: 10,3264  E7,1435                                  EBANK=   RSTKLOC
000037: 10,3264           03260 20007                     2CADR    RADSAMP
000038: 10,3266           35665                           CAF      PRIO25
000039: 10,3267           05523                           TC       NOVAC
000040: 10,3270  E7,1435                                  EBANK=   RSTKLOC
000041: 10,3270           03300 20007                     2CADR    DORSAMP
000042: 10,3272           33331                           CAF      1/6                                   #  FOR CYCLIC SAMPLING, RTSTDEX =
000043: 10,3273           00006                           EXTEND                                         #  RTSTLOC/6 + RTSTBASE.
000044: 10,3274           71435                           MP       RTSTLOC
000045: 10,3275           61434                           AD       RTSTBASE                              #  0 FOR RR, 2 FOR LR.
000046: 10,3276           55432                           TS       RTSTDEX
000047:
000048: 10,3277           15745                           TCF      TASKOVER
000049:
000050:                                                                                                  #           DO THE ACTUAL RADAR SAMPLE.
000051:
000052: 10,3300           03332        DORSAMP            TC       VARADAR                               #  SELECTS VARIABLE RADAR CHANNEL.
000053: 10,3301           05224                           TC       BANKCALL
000054:
000055: 10,3302           26756                           CADR     RADSTALL
000056: 10,3303           25437                           INCR     RFAILCNT                              #  ADVANCE FAIL COUNTER BUT ACCEPT BAD DATA
000057:
000058: 10,3304           00004        DORSAMP2           INHINT                                         #  YES - UPDATE TM BUFFER.
000059: 10,3305           52416                           DXCH     SAMPLSUM
000060: 10,3306           51435                           INDEX    RTSTLOC
000061: 10,3307           53441                           DXCH     RSTACK
000062:
000063: 10,3310           52420                           DXCH     OPTYHOLD
000064: 10,3311           51435                           INDEX    RSTKLOC
000065: 10,3312           53443                           DXCH     RSTACK     +2
000066:
000067: 10,3313           52422                           DXCH     TIMEHOLD
000068: 10,3314           51435                           INDEX    RSTKLOC
000069: 10,3315           53445                           DXCH     RSTACK     +4
000070:
000071: 10,3316           41435                           CS       RTSTLOC                               #  CYCLE RTSTLOC.
000072: 10,3317           61433                           AD       RTSTMAX
000073: 10,3320           00006                           EXTEND
000074:


000076: 10,3321           13324                           BZF      +3
000077: 10,3322           31435                           CA       RTSTLOC
000078: 10,3323           66276                           AD       SIX
000079: 10,3324           55435                           TS       RTSTLOC
000080:
000081: 10,3325           11436                           CCS      RSAMPDT                               #  SEE IF TIME TO RE-SAMPLE.
000082: 10,3326           15605                           TCF      ENDOFJOB                              #  NO - WAIT FOR T3 (REGULAR SAMPLING).
000083:
000084: 10,3327           15605                           TCF      ENDOFJOB                              #  TEST TERMINATED.
000085: 10,3330           13300                           TCF      DORSAMP                               #  JUMP RIGHT BACK AND GET ANOTHER SAMPLE.
000086:
000087: 10,3331           05341        1/6                DEC      .17
000088:
000089:                                                                                                  #           VARIABLE RADAR DATA CALLER FOR ONE MEASUREMENT ONLY.
000090:
000091: 10,3332           37755        VARADAR            CAF      ONE                                   #  WILL BE SENT TO RADAR ROUTINE IN A BY
000092: 10,3333           54123                           TS       BUF2                                  #  SWCALL.
000093: 10,3334           51432                           INDEX    RTSTDEX
000094: 10,3335           33337                           CAF      RDRLOCS
000095: 10,3336           15230                           TCF      SWCALL                                #  NOT TOUCHING Q.
000096:
000097: 10,3337           20650        RDRLOCS            CADR     RRRANGE                               #  = 0
000098: 10,3340           20646                           CADR     RRRDOT                                #  = 1
000099: 10,3341           20644                           CADR     LRVELX                                #  = 2
000100: 10,3342           20642                           CADR     LRVELY                                #  = 3
000101: 10,3343           20640                           CADR     LRVELZ                                #  = 4
000102: 10,3344           20636                           CADR     LRALT                                 #  = 5

End of include-file RADAR_TEST_PROGRAMS.agc.  Parent file is MAIN.agc


