
Source Code


000002:                                                                                                  ## Copyright:   Public domain.
000003:                                                                                                  ## Filename:    RADAR_LEAD-IN_ROUTINES.agc
000004:                                                                                                  ## Purpose:     A section of Sunburst revision 37, or Shepatin revision 0.
000005:                                                                                                  ##              It is part of an early development version of the software
000006:                                                                                                  ##              for Apollo Guidance Computer (AGC) on the unmanned Lunar
000007:                                                                                                  ##              Module (LM) flight Apollo 5. Sunburst 37 was the program
000008:                                                                                                  ##              upon which Don Eyles's offline development program Shepatin
000009:                                                                                                  ##              was based; the listing herein transcribed was actually for
000010:                                                                                                  ##              the equivalent revision 0 of Shepatin.
000011:                                                                                                  ##              This file is intended to be a faithful transcription, except
000012:                                                                                                  ##              that the code format has been changed to conform to the
000013:                                                                                                  ##              requirements of the yaYUL assembler rather than the
000014:                                                                                                  ##              original YUL assembler.
000015:                                                                                                  ## Reference:   pp. 155-184
000016:                                                                                                  ## Assembler:   yaYUL
000017:                                                                                                  ## Contact:     Ron Burkey <info@sandroid.org>.
000018:                                                                                                  ## Website:     www.ibiblio.org/apollo/index.html
000019:                                                                                                  ## Mod history: 2017-05-24 MAS  Created from Sunburst 120.
000020:                                                                                                  ##              2017-05-31 RSB  Transcribed.
000021:


000023:    4312                                           BLOCK    02
000024:    4312  E3,1464                                  EBANK=   RRRET
000025:
000026:                                                                                                  #           THE FOLLOWING SUBROUTINE RETURNS TO CALLER + 2 IF THE ABSOLUTE VALUE OF C(A) IS GREATER THAN THE
000027:                                                                                                  #  NEGATIVE OF THE NUMBER AT CALLER +1. OTHERWISE IT RETURNS TO CALLER +3. MAY BE CALLED IN RUPT OR UNDER EXEC.
000028:
000029:    4312           00006        MAGSUB             EXTEND
000030:    4313           64315                           BZMF     +2
000031:    4314           14316                           TCF      +2
000032:    4315           40000                           COM
000033:
000034:    4316           50002                           INDEX    Q
000035:    4317           60000                           AD       0
000036:    4320           00006                           EXTEND
000037:    4321           67010                           BZMF     Q+2                                   #  ABS(A) LEQ CONSTANT
000038:    4322           17006                           TCF      Q+1                                   #  ABS(A) G CONSTANT
000039:


000041:                                                                                                  #           THE FOLLOWING SUBROUTINE CHECKS RR GIMBAL ANGLES TO SEE IF THEY ARE IN THE LIMITS OF THE CURRENT MODE.
000042:                                                                                                  #  CALLING SEQUENCE IS AS FOLLOWS:
000043:
000044:                                                                                                  #                                                   TC     RRLIMCHK        (WITH INTERRUPT INHIBITED).
000045:                                                                                                  #                                                   ADRES  T,S             (IN UNSWITCHED E OR CURRENT EBANK).
000046:
000047:                                                                                                  #           RETURN IS TO CALLER +2 IF NOT IN LIMITS AND TO CALLER +3 IF SO.
000048:
000049:    4323           50002        RRLIMCHK           INDEX    Q                                     #  READ GIMBAL ANGLES INTO ITEMP STORAGE.
000050:    4324           30000                           CAF      0
000051:    4325           24002                           INCR     Q
000052:    4326           00006                           EXTEND
000053:    4327           50000                           INDEX    A
000054:    4330           30001                           DCA      0
000055:    4331           52062                           DXCH     ITEMP1
000056:    4332           22002                           LXCH     Q                                     #  L(CALLER +2) TO L.
000057:
000058:    4333           37742                           CAF      BIT12                                 #  SEE WHICH MODE RR IS IN.
000059:    4334           70413                           MASK     RADMODES
000060:    4335           10000                           CCS      A
000061:    4336           14351                           TCF      MODE2CHK
000062:
000063:    4337           30061                           CA       ITEMP1                                #  MODE 1 IS DEFINED AS
000064:    4340           04312                           TC       MAGSUB                                #      1. ABS(T) L 55 DEGS.
000065:    4341           66161                           DEC      -.30555                               #      2. ABS(S + 5.5 DEGS) L 64.5 DEGS
000066:    4342           00001                           TC       L                                     #          (SHAFT LIMITS AT +59, -70 DEGS)
000067:
000068:    4343           34363                           CAF      5.5DEGS
000069:    4344           60062                           AD       ITEMP2                                #  S
000070:    4345           04312                           TC       MAGSUB
000071:    4346           64420                           DEC      -.35833                               #  64.5 DEGS
000072:    4347           00001                           TC       L
000073:    4350           04361                           TC       RRLIMOK                               #  IN LIMITS.
000074:
000075:    4351           34365        MODE2CHK           CAF      82DEGS                                #  MODE 2 IS DEFINED AS
000076:    4352           60062                           AD       ITEMP2                                #      1. ABS(T) G 125 DEGS.
000077:    4353           04312                           TC       MAGSUB                                #      2. ABS(S + 82 DEGS) L 57 DEGS
000078:    4354           65673                           DEC      -.31667                               #          (SHAFT LIMITS AT -25, -139 DEGS)
000079:    4355           00001                           TC       L
000080:
000081:    4356           30061                           CA       ITEMP1
000082:    4357           04312                           TC       MAGSUB
000083:    4360           51615                           DEC      -.69444                               #  125 DEGS
000084:
000085:    4361           50001        RRLIMOK            INDEX    L
000086:    4362           00001                           TC       L                                     #  ( = TC 1)
000087:
000088:    4363           00765        5.5DEGS            DEC      .03056
000089:    4364           00707        5DEGS              DEC      .02777                                #  SCALED IN HALF-REVOLUTIONS
000090:    4365           16450        82DEGS             DEC      .45556
000091:


000093:                                                                                                  #           THE FOLLOWING ROUTINE UPDATES THE TRACKER FAIL LAMP ON THE DSKY. IF EITHER:
000094:
000095:                                                                                                  #           1. N SAMPLES OF RR DATA COULD NOT BE OBTAINED FROM 2N TRIES
000096:                                                                                                  #           2. N SAMPLES OF LR DATA COULD NOT BE TAKEN IN 2N TRIES WITH EITHER THE ALT OR VEL INFORMATION.
000097:                                                                                                  #           3. RR CDU FAILED WITH RR IN AUTO MODE AND RR CDU NOT BEING ZEROED.
000098:
000099:    4366           37755        SETTRKF            CAF      BIT1                                  #  NO ACTION IF DURING LAMP TEST.
000100:    4367           70366                           MASK     IMODES33
000101:
000102:    4370           10000                           CCS      A
000103:    4371           00002                           TC       Q
000104:
000105:    4372           34422                           CAF      13,7,2                                #  SEE IF CDU FAILED.
000106:    4373           70413                           MASK     RADMODES
000107:    4374           00006                           EXTEND
000108:    4375           14405                           BZF      TRKFLON                               #  CONDITION 3 ABOVE.
000109:
000110:    4376           40413                           CS       RADMODES                              #  SEE IF LR FAILED.
000111:    4377           74423                           MASK     8,5
000112:    4400           00006                           EXTEND
000113:    4401           14405                           BZF      TRKFLON                               #  CONDITION 2 ABOVE.
000114:
000115:    4402           37752                           CAF      BIT4                                  #  SEE IF RR DATA FAILED.
000116:    4403           70413                           MASK     RADMODES
000117:    4404           10000                           CCS      A
000118:    4405           37746        TRKFLON            CAF      BIT8
000119:    4406           60326                           AD       DSPTAB     +11D                       #  HALF ADD DESIRED AND PRESENT STATES.
000120:    4407           77746                           MASK     BIT8
000121:    4410           00006                           EXTEND
000122:    4411           17011                           BZF      TCQ                                   #  NO CHANGE.
000123:
000124:    4412           54001                           TS       L                                     #  INVERT BIT 8 AND SET BIT 15.
000125:
000126:    4413           30326                           CA       DSPTAB     +11D                       #  CANT USE LXCH DSPTAB +11D (RESTART PROB)
000127:    4414           00006                           EXTEND
000128:    4415           06001                           RXOR     L
000129:    4416           77735                           MASK     POSMAX
000130:    4417           67737                           AD       BIT15
000131:    4420           54326                           TS       DSPTAB     +11D
000132:    4421           00002                           TC       Q
000133:
000134:    4422           10102        13,7,2             OCT      10102
000135:    4423           00220        8,5                OCT      00220
000136:
000137:    4424                        ENDRMODF           EQUALS
000138:


000140:                                                                                                  #           TURNON SEQUENCE TO ZERO THE CDUS AND DETERMINE THE RR MODE.
000141:
000142: 10,2000                                           BANK     10
000143:
000144: 10,2000           02013        RRTURNON           TC       RRZEROSB
000145: 10,2001           05717                           TC       FIXDELAY                              #  WAIT 1 SEC BEFORE REMOVING TURN ON FLAG
000146: 10,2002           00144                           DEC      100        B-14                       #  SO A MONITOR REPOSITION WONT ALARM.
000147: 10,2003           47755                           CS       BIT1
000148: 10,2004           70413                           MASK     RADMODES
000149: 10,2005           54413                           TS       RADMODES
000150: 10,2006           40074                           CS       STATE                                 #  SEE IF SOMEONE IS WAITING TO USE THE RR.
000151: 10,2007           77747                           MASK     RRUSEFLG
000152: 10,2010           10000                           CCS      A
000153: 10,2011           15745                           TCF      TASKOVER
000154:
000155: 10,2012           13241                           TCF      ENDRADAR                              #  CHECK RR CDU FAIL BEFORE EXIT.
000156:


000158:                                                                                                  #           CLOSED SUBROUTINE TO ZERO THE RR CDUS.
000159:
000160: 10,2013           00006        RRZEROSB           EXTEND
000161: 10,2014           23464                           QXCH     RRRET
000162: 10,2015           37755                           CAF      BIT1                                  #  BIT 13 OF RADMODES MUST BE SET BEFORE
000163: 10,2016           00006                           EXTEND                                         #  COMING HERE.
000164: 10,2017           05012                           WOR      12
000165: 10,2020           05717                           TC       FIXDELAY
000166: 10,2021           00002                           DEC      2          B-14
000167:
000168: 10,2022           37761                           CAF      ZERO
000169: 10,2023           54035                           TS       OPTY
000170: 10,2024           54036                           TS       OPTX
000171: 10,2025           47755                           CS       ONE                                   #  REMOVE ZEROING BIT.
000172: 10,2026           00006                           EXTEND
000173: 10,2027           03012                           WAND     12
000174: 10,2030           05717                           TC       FIXDELAY
000175: 10,2031           00620                           DEC      400        B-14
000176:
000177: 10,2032           47741                           CS       BIT13                                 #  REMOVE ZEROING IN PROCESS BIT.
000178: 10,2033           70413                           MASK     RADMODES
000179: 10,2034           54413                           TS       RADMODES
000180:
000181: 10,2035           30035                           CA       OPTY
000182: 10,2036           04312                           TC       MAGSUB
000183: 10,2037           57777                           DEC      -.5
000184: 10,2040           12043                           TCF      +3                                    #  IF MODE 2.
000185:
000186: 10,2041           37761                           CAF      ZERO
000187: 10,2042           12044                           TCF      +2
000188: 10,2043           37742                           CAF      BIT12
000189: 10,2044           56413                           XCH      RADMODES
000190: 10,2045           75520                           MASK     -BIT12
000191: 10,2046           26413                           ADS      RADMODES
000192:
000193: 10,2047           04366                           TC       SETTRKF                               #  TRACKER LAMP MIGHT GO ON NOW.
000194:
000195: 10,2050           01464                           TC       RRRET                                 #  DONE.
000196:
000197: 10,2051     5520               -BIT12             EQUALS   -1/8                                  #  IN SPROOT
000198:


000200:                                                                                                  #           SEQUENCE OF TASKS TO DRIVE THE RR TO A SAFE POSITION.
000201:
000202: 10,2051           02106        DORREPOS           TC       SETRRECR                              #  SET UP RR CDU ERROR COUNTERS.
000203:
000204: 10,2052           37755                           CAF      BIT1                                  #  DO AN ALARM UNLESS RR JUST TURNED ON.
000205: 10,2053           70413                           MASK     RADMODES
000206: 10,2054           10000                           CCS      A
000207: 10,2055           12060                           TCF      +3
000208:
000209: 10,2056           04744                           TC       ALARM
000210: 10,2057           00501                           OCT      501
000211: 10,2060           05717                           TC       FIXDELAY
000212: 10,2061           00002                           DEC      2          B-14
000213:
000214: 10,2062           37742                           CAF      BIT12                                 #  MANEUVER TRUNNION ANGLE TO NOMINAL POS.
000215: 10,2063           70413                           MASK     RADMODES
000216: 10,2064           10000                           CCS      A
000217: 10,2065           37737                           CAF      BIT15                                 #  0 FOR MODE 1 AND 180 FOR MODE 2.
000218: 10,2066           02150                           TC       RRTONLY
000219:
000220: 10,2067           37742                           CAF      BIT12                                 #  NOW PUT SHAFT IN RIGHT POSITION.
000221: 10,2070           70413                           MASK     RADMODES
000222: 10,2071           10000                           CCS      A
000223: 10,2072           47740                           CS       HALF                                  #  -90 FOR MODE 2.
000224: 10,2073           02153                           TC       RRSONLY
000225:
000226: 10,2074           47743        REPOSRPT           CS       BIT11                                 #  RETURNS HERE FROM RR1AXIS IN REMODE
000227:                                                                                                  #  REQUESTED DURING REPOSITION.
000228: 10,2075           70413                           MASK     RADMODES                              #  REMOVE REPOSITION BIT.
000229: 10,2076           54413                           TS       RADMODES
000230: 10,2077           77744                           MASK     BIT10                                 #  SEE IF SOMEONE IS WAITING TO DESIGNATE.
000231: 10,2100           10000                           CCS      A
000232: 10,2101           12422                           TCF      BEGDES
000233: 10,2102           47754                           CS       BIT2                                  #  IF NO FURTHER ANTENNA CONTROL REQUIRED,
000234: 10,2103           00006                           EXTEND                                         #  REMOVE ERROR COUNTER ENABLE.
000235: 10,2104           03012                           WAND     12
000236: 10,2105           15745                           TCF      TASKOVER
000237:
000238: 10,2106           37754        SETRRECR           CAF      BIT2                                  #  SET UP RR ERROR COUNTERS.
000239: 10,2107           00006                           EXTEND
000240: 10,2110           05012                           WOR      12
000241:
000242: 10,2111           37761                           CAF      ZERO
000243: 10,2112           54361                           TS       LASTYCMD
000244: 10,2113           54362                           TS       LASTXCMD
000245: 10,2114           00002                           TC       Q
000246:


000248:                                                                                                  #           GENERAL REMODING SUBROUTINE. DRIVES TRUNION TO 0 (180), THEN DRIVES SHAFT TO -45, AND FINALLY DRIVES
000249:                                                                                                  #  TRUNNION TO -130 (-50) BEFORE INITIATING 2-AXIS CONTROL. ALL RE-MODING IS DONE WITH SINGLE AXIS ROTATIONS (SEE
000250:                                                                                                  #  RR1AXIS).
000251:
000252: 10,2115           37742        REMODE             CAF      BIT12                                 #  DRIVE TRUNNION TO 0 (180).
000253: 10,2116           70413                           MASK     RADMODES                              #  (ERROR COUNTER ALREADY ENABLED)
000254: 10,2117           10000                           CCS      A
000255: 10,2120           37737                           CAF      BIT15
000256:
000257: 10,2121           02150                           TC       RRTONLY
000258:
000259: 10,2122           32137                           CAF      -45DEGSR
000260: 10,2123           02153                           TC       RRSONLY
000261:
000262: 10,2124           40413                           CS       RADMODES
000263: 10,2125           77742                           MASK     BIT12
000264: 10,2126           10000                           CCS      A
000265: 10,2127           32141                           CAF      -80DEGSR                              #  GO TO T = -130 (-50).
000266: 10,2130           62140                           AD       -50DEGSR
000267: 10,2131           02150                           TC       RRTONLY
000268:
000269: 10,2132           02142                           TC       RMODINV
000270:
000271: 10,2133           47740                           CS       BIT14                                 #  END OF REMODE.
000272: 10,2134           70413                           MASK     RADMODES
000273: 10,2135           54413                           TS       RADMODES
000274:
000275: 10,2136           02431                           TC       STDESIG                               #  BEGIN 2-AXIS CONTROL.
000276:
000277: 10,2137           70000        -45DEGSR           OCT      70000
000278: 10,2140           67070        -50DEGSR           DEC      -.27778
000279: 10,2141           61615        -80DEGSR           DEC      -.44444
000280:
000281: 10,2142           22413        RMODINV            LXCH     RADMODES                              #  INVERT THE MODE STATUS.
000282: 10,2143           37742                           CAF      BIT12
000283: 10,2144           00006                           EXTEND
000284: 10,2145           06001                           RXOR     L
000285: 10,2146           54413                           TS       RADMODES
000286: 10,2147           00002                           TC       Q
000287:


000289:                                                                                                  #           SUBROUTINES FOR DOING SINGLE AXIS RR MANEUVERS FOR REMODE AND REPOSITION. DRIVES TO WITHIN 1 DEGREE.
000290:
000291: 10,2150           55465        RRTONLY            TS       RDES                                  #  DESIRED TRUNION ANGLE.
000292: 10,2151           37761                           CAF      ZERO
000293: 10,2152           12155                           TCF      RR1AXIS
000294:
000295: 10,2153           55465        RRSONLY            TS       RDES                                  #  SHAFT COMMANDS ARE UNRESOLVED SINCE THIS
000296: 10,2154           37755                           CAF      ONE                                   #  ROUTINE ENTERED ONLY WHEN T = 0 OR 180.
000297:
000298: 10,2155           55466        RR1AXIS            TS       RRINDEX
000299: 10,2156           00006                           EXTEND
000300: 10,2157           23464                           QXCH     RRRET
000301: 10,2160           12163                           TCF      RR1AX2
000302:
000303: 10,2161           05717        NXTRR1AX           TC       FIXDELAY
000304: 10,2162           00062                           DEC      50         B-14                       #  2 SAMPLES PER SECOND.
000305:
000306: 10,2163           40413        RR1AX2             CS       RADMODES                              #  IF SOMEONE REQUESTES AS DESIGNATE WHICH
000307: 10,2164           75663                           MASK     PRIO22                                #  REQUIRES A REMODE AND A REPOSITION IS IN
000308: 10,2165           00006                           EXTEND                                         #  PROGRESS, INTERRUPT IT AND START THE
000309: 10,2166           12074                           BZF      REPOSRPT                              #  REMODE IMMEDIATELY.
000310:
000311: 10,2167           31465                           CA       RDES
000312: 10,2170           00006                           EXTEND
000313: 10,2171           51466                           INDEX    RRINDEX
000314: 10,2172           20035                           MSU      OPTY
000315: 10,2173           54002                           TS       Q                                     #  SAVE ERROR SIGNAL.
000316: 10,2174           00006                           EXTEND
000317: 10,2175           72212                           MP       RRSPGAIN                              #  TRIES TO NULL .7 OF ERROR OVER NEXT .5
000318: 10,2176           54001                           TS       L
000319: 10,2177           30002                           CA       Q                                     #  SEE IF WITHIN 1 DEGREE.
000320: 10,2200           04312                           TC       MAGSUB
000321: 10,2201           77644                           DEC      -.00555                               #  SCALED IN HALF-REVS.
000322:
000323: 10,2202           12204                           TCF      +2                                    #  NO.
000324: 10,2203           01464                           TC       RRRET                                 #  RETURN TO CALLER.
000325:
000326: 10,2204           11466                           CCS      RRINDEX                               #  COMMAND FOR OTHER AXIS IS ZERO.
000327:
000328: 10,2205           12207                           TCF      +2                                    #  SETTING A TO 0.
000329: 10,2206           56001                           XCH      L
000330: 10,2207           52424                           DXCH     TANG
000331:
000332: 10,2210           02213                           TC       RROUT
000333:
000334: 10,2211           12161                           TCF      NXTRR1AX                              #  COME BACK IN .5 SECONDS.
000335:
000336: 10,2212           22715        RRSPGAIN           DEC      .59062                                #  NULL .7 ERROR IN .5 SEC.
000337:


000339:                                                                                                  #           THE FOLLOWING ROUTINE RECEIVES RR GYRO COMMANDS IN TANG,+1 IN ERROR COUNTER SCALING. RROUT LIMITS THEM
000340:                                                                                                  #  AND GENERATES COMMANDS TO THE CDU TO ADJUST THE ERROR COUNTERS TO THE DESIRED VALUES. RUPT MUST BE INHIBITED.
000341:
000342: 10,2213           22002        RROUT              LXCH     Q                                     #  SAVE RETURN.
000343: 10,2214           37755                           CAF      ONE                                   #  LOOP TWICE.
000344: 10,2215           54062        RROUT2             TS       ITEMP2
000345: 10,2216           50000                           INDEX    A
000346: 10,2217           30423                           CA       TANG
000347: 10,2220           54061                           TS       ITEMP1                                #  SAVE SIGN OF COMMAND FOR LIMITING.
000348:
000349: 10,2221           04312                           TC       MAGSUB                                #  SEE IF WITHIN LMITS.
000350: 10,2222           77177        -RRLIMIT           DEC      -384       B-14
000351: 10,2223           12241                           TCF      RROUTLIM                              #  LIMIT COMMAND TO MAG OF 384.
000352:
000353: 10,2224           30061        SETRRCTR           CA       ITEMP1                                #  COUNT OUT DIFFERENCE BETWEEN DESIRED
000354: 10,2225           50062                           INDEX    ITEMP2                                #  STATE AND PRESENT STATE AS RECORDED IN
000355: 10,2226           56361                           XCH      LASTYCMD                              #  LASTYCMD AND LASTXCMD
000356: 10,2227           40000                           COM
000357: 10,2230           60061                           AD       ITEMP1
000358:
000359: 10,2231           50062                           INDEX    ITEMP2
000360: 10,2232           54053                           TS       OPTYCMD
000361:
000362: 10,2233           10062                           CCS      ITEMP2                                #  PROCESS BOTH INPUTS.
000363: 10,2234           12215                           TCF      RROUT2
000364:
000365: 10,2235           35652                           CAF      PRIO6                                 #  ENABLE COUNTERS.
000366: 10,2236           00006                           EXTEND
000367: 10,2237           05014                           WOR      14
000368:
000369: 10,2240           00001                           TC       L                                     #  RETURN.
000370:
000371: 10,2241           10061        RROUTLIM           CCS      ITEMP1                                #  LIMIT COMMAND TO ABS VAL OF 384.
000372: 10,2242           42222                           CS       -RRLIMIT
000373: 10,2243           12245                           TCF      +2
000374: 10,2244           32222                           CA       -RRLIMIT
000375: 10,2245           54061                           TS       ITEMP1
000376: 10,2246           12225                           TCF      SETRRCTR   +1
000377:


000379:                                                                                                  #           ROUTINE TO ZERO THE RR CDUS AND DETERMINE THE ANTENNA MODE.
000380:
000381: 10,2247           00004        RRZERO             INHINT
000382: 10,2250           47747                           CS       RRUSEFLG                              #  SET FLAG TO SHOW SOMEONE USING THE RR.
000383: 10,2251           70074                           MASK     STATE
000384: 10,2252           67747                           AD       RRUSEFLG
000385: 10,2253           54074                           TS       STATE
000386:
000387: 10,2254           37755                           CAF      BIT1                                  #  SEE IF RR COMING UP. IF SO, TURNON
000388: 10,2255           70413                           MASK     RADMODES                              #  PROGRAM WILL DO THE WORK.
000389: 10,2256           10000                           CCS      A
000390: 10,2257           12302                           TCF      ROADBACK
000391:
000392: 10,2260           37743                           CAF      BIT11                                 #  SEE IF MONITOR REPOSITION IN PROGRESS.
000393: 10,2261           70413                           MASK     RADMODES                              #  IF SO, DONT RE-ZERO CDUS.
000394: 10,2262           10000                           CCS      A
000395: 10,2263           13223                           TCF      RADNOOP                               #  (IMMEDIATE TASK TO RGOODEND).
000396:
000397: 10,2264           47741                           CS       BIT13                                 #  SET FLAG TO SHOW ZEROING IN PROGRESS.
000398: 10,2265           70413                           MASK     RADMODES
000399: 10,2266           67741                           AD       BIT13
000400: 10,2267           54413                           TS       RADMODES
000401:
000402: 10,2270           37755                           CAF      ONE
000403: 10,2271           05701                           TC       WAITLIST
000404:
000405: 10,2272  E3,1464                                  EBANK=   RRRET
000406: 10,2272           02304 20003                     2CADR    RRZ2
000407:
000408: 10,2274           40413                           CS       RADMODES                              #  SEE IF IN AUTO MODE.
000409: 10,2275           77754                           MASK     BIT2
000410: 10,2276           10000                           CCS      A
000411: 10,2277           12302                           TCF      ROADBACK
000412: 10,2300           04744                           TC       ALARM                                 #  AUTO DISCRETE NOT PRESENT - TRYING
000413: 10,2301           00510                           OCT      510
000414: 10,2302           00003        ROADBACK           RELINT
000415: 10,2303           15237                           TCF      SWRETURN
000416:
000417: 10,2304           02013        RRZ2               TC       RRZEROSB                              #  COMMON TO TURNON AND RRZERO.
000418: 10,2305           13241                           TCF      ENDRADAR
000419:
000420: 10,2306     7747               RRUSEFLG           EQUALS   BIT7
000421: 10,2306     7751               LOKONFLG           EQUALS   BIT5
000422:


000424:                                                                                                  #           STABLE-MEMBER RR DESIGNATE ROUTINE. DESIGNATE TO A SM LOS VECTOR (HALF-UNIT) IN RRTARGET. REMODES IF
000425:                                                                                                  #  REQUIRED. RETURNS TO CALLER IF MANEUVER REQUIRED FOR DES AND SKIPS IF IT CAN BE DONE IN PRESENT VEH ATTITUDE.
000426:
000427: 10,2306           43020        RRDESSM            STQ      CLEAR
000428: 10,2307           00427                                    DESRET
000429: 10,2310           00271                                    RRNBSW
000430: 10,2311           66234                           RTB      SSP                                   #  READ CDUS FOR SMNB.
000431: 10,2312           33540                                    READCDUS
000432: 10,2313           00051                                    S1
000433: 10,2314           00024                                    20D
000434: 10,2315           24025                           STOVL    20D
000435: 10,2316           00416                                    RRTARGET
000436: 10,2317           34041                           STCALL   32D
000437: 10,2320           32576                                    SMNB
000438:
000439: 10,2321           77624                           CALL                                           #  GET RR GIMBAL ANGLES IN PRESENT AND
000440: 10,2322           33422                                    RRANGLES                              #  ALTERNATE MODE.
000441: 10,2323           77776                           EXIT
000442:
000443: 10,2324           00004                           INHINT
000444: 10,2325           04323                           TC       RRLIMCHK
000445: 10,2326           00423                           ADRES    MODEA                                 #  CONFIGURATION FOR CURRENT MODE.
000446: 10,2327           12351                           TCF      TRYSWS
000447:
000448: 10,2330           24427        OKDESSM            INCR     DESRET                                #  INCREMENT SAYS NO VEHICLE MANEUVER REQ.
000449:


000451:                                                                                                  #           AT THIS POINT WE ARE READY TO BEGIN DESIGNATION. THE TARGET IS STORED AS A HALF-UNIT VECTOR IN RRTARGET
000452:                                                                                                  #  WITH RRNBSW SET IF IT IS REFERRED TO NAV BASE AXES. LOKONSW IS SET IF LOCKON IS DESIRED. BIT14 OF RADMODES IS
000453:                                                                                                  #  SET IF A REMODE IS REQUIRED. AT THIS TIME, THE ANTENNA MAY BE IN A MONITOR REPOSITION OPERATION. IN THIS
000454:                                                                                                  #  CASE, IF A REMODE IS REQUIRED IT MAY HAVE ALREADY BEGUN BUT IT ANY CASE THE REPOSITION WILL BE INTERRUPTED.
000455:                                                                                                  #  OTHERWISE, THE REPOSITION WILL BE COMPLETED BEFORE 2-AXIS DESIGNATION BEGINS.
000456:
000457: 10,2331           32350        STARTDES           CAF      MAXTRIES                              #  ALLOW 30 SECS.
000458: 10,2332           54430                           TS       DESCOUNT
000459:
000460: 10,2333           37744                           CAF      BIT10                                 #  SHOW DESIGNATE REQUIRED.
000461: 10,2334           26413                           ADS      RADMODES
000462: 10,2335           77743                           MASK     BIT11                                 #  SEE IF REPOSITION IN PROGRESS.
000463: 10,2336           10000                           CCS      A
000464: 10,2337           12345                           TCF      DESRETRN                              #  ECTR ALREADY SET UP.
000465:
000466: 10,2340           02106                           TC       SETRRECR                              #  SET UP ERROR COUNTERS.
000467:
000468: 10,2341           37754                           CAF      TWO
000469: 10,2342           05701                           TC       WAITLIST
000470: 10,2343  E3,1464                                  EBANK=   RRRET
000471: 10,2343           02422 20003                     2CADR    BEGDES
000472:
000473: 10,2345           00003        DESRETRN           RELINT                                         #  RETURN VIA DESRET
000474: 10,2346           30427                 +1        CA       DESRET
000475: 10,2347           15246                           TCF      BANKJUMP
000476:
000477: 10,2350           00074        MAXTRIES           DEC      60         B-14
000478:


000480:                                                                                                  #           SEE IF RRDESSM CAN BE ACCOMPLISHED AFTER A REMODE.
000481:
000482: 10,2351           02142        TRYSWS             TC       RMODINV                               #  (NOTE RUPT INHIBIT)
000483: 10,2352           04323                           TC       RRLIMCHK                              #  TRY DIFFERENT MODE.
000484: 10,2353           00425                           ADRES    MODEB
000485: 10,2354           12361                           TCF      NODESSM                               #  VEHICLE MANEUVER REQUIRED.
000486:
000487: 10,2355           02142                           TC       RMODINV                               #  RESET BIT12
000488: 10,2356           37740                           CAF      BIT14                                 #  SET FLAG FOR REMODE.
000489: 10,2357           26413                           ADS      RADMODES
000490:
000491: 10,2360           12330                           TCF      OKDESSM
000492:
000493: 10,2361           02142        NODESSM            TC       RMODINV                               #  RE-INVERT MODE AND RETURN WITHOUT IN-
000494: 10,2362           12345                           TCF      DESRETRN                              #  CREMENTING DESRET
000495:


000497:                                                                                                  #           DESIGNATE TO SPECIFIC RR GIMBAL ANGLES (INDEPENDENT OF VEHICLE MOTION). ENTER WITH DESIRED ANGLES IN
000498:                                                                                                  #  TANG AND TANG +1.
000499:
000500: 10,2363           77420        RRDESNB            STQ      EXIT                                  #  ENTER IN INTERP. - EXIT BASIC.
000501: 10,2364           00427                                    DESRET
000502:
000503: 10,2365           00004                           INHINT                                         #  SEE IF CURRENT MODE OK.
000504: 10,2366           04323                           TC       RRLIMCHK
000505: 10,2367           00423                           ADRES    TANG
000506: 10,2370           12402                           TCF      TRYSWN                                #  SEE IF IN OTHER MODE.
000507:
000508: 10,2371           00003        OKDESNB            RELINT
000509: 10,2372           06103                           TC       INTPRET
000510:
000511: 10,2373           77624                           CALL                                           #  GET LOS IN NB COORDS.
000512: 10,2374           33475                                    RRNB
000513: 10,2375           00416                           STORE    RRTARGET
000514:
000515: 10,2376           77414                           SET      EXIT
000516: 10,2377           00071                                    RRNBSW
000517:
000518: 10,2400           00004                           INHINT
000519: 10,2401           12331                           TCF      STARTDES
000520:
000521: 10,2402           02142        TRYSWN             TC       RMODINV                               #  SEE IF OTHER MODE WILL DO.
000522: 10,2403           04323                           TC       RRLIMCHK
000523:
000524: 10,2404           00423                           ADRES    TANG
000525: 10,2405           12412                           TCF      NODESNB                               #  NOT POSSIBLE.
000526:
000527: 10,2406           02142                           TC       RMODINV
000528: 10,2407           37740                           CAF      BIT14                                 #  CALL FOR REMODE.
000529: 10,2410           26413                           ADS      RADMODES
000530: 10,2411           12371                           TCF      OKDESNB
000531:
000532: 10,2412           37755        NODESNB            CAF      BIT1                                  #  CALL FOR ERROR RETURN.
000533: 10,2413           05701                           TC       WAITLIST
000534: 10,2414  E3,1464                                  EBANK=   RRRET
000535: 10,2414           03255 20003                     2CADR    RDBADEND
000536:
000537: 10,2416           02142                           TC       RMODINV
000538: 10,2417           04744                           TC       ALARM                                 #  BAD GIMBAL ANGLE INPUTS.
000539: 10,2420           00502                           OCT      502
000540: 10,2421           12346                           TCF      DESRETRN   +1                         #  ALARM DID A RELINT.
000541:


000543:                                                                                                  #           WAITLIST TASKS TO RUN RR DESIGNATION.
000544:
000545: 10,2422           37740        BEGDES             CAF      BIT14                                 #  ENTER HERE FROM STARTDES OR REPOSRPT.
000546: 10,2423           70413                           MASK     RADMODES                              #  SEE IF REMODE REQUIRED.
000547: 10,2424           10000                           CCS      A
000548: 10,2425           12115                           TCF      REMODE
000549: 10,2426           12431                           TCF      STDESIG
000550:
000551: 10,2427           05717        DESLOOP            TC       FIXDELAY                              #  2 SAMPLES PER SECOND.
000552: 10,2430           00062                           DEC      50         B-14
000553:
000554: 10,2431           37743        STDESIG            CAF      BIT11                                 #  ENTRY FROM BEGDES AND REMODE.
000555: 10,2432           70413                           MASK     RADMODES                              #  SEE IF GIMBAL LIMIT MONITOR HAS FOUND US
000556: 10,2433           10000                           CCS      A                                     #  OUT OF BOUNDS. IF SO, THIS BIT SHOWS A
000557: 10,2434           12454                           TCF      BADDES                                #  REPOSITION TO BE IN PROGRESS.
000558:
000559: 10,2435           10413                           CCS      RADMODES                              #  SEE IF CONTINUOUS DESIGNATE WANTED.
000560: 10,2436           12441                           TCF      +3                                    #  IF SO, DONT CHECK BIT 10 TO SEE IF IN
000561: 10,2437           12441                           TCF      +2                                    #  LIMITS BUT GO RIGHT TO FINDVAC ENTRY.
000562: 10,2440           12461                           TCF      MOREDES    +1
000563:
000564: 10,2441           40413                           CS       RADMODES                              #  IF NON-CONTINUOUS, SEE IF END OF
000565: 10,2442           77744                           MASK     BIT10                                 #  PROBLEM (DATA GOOD IF LOCK-ON WANTED OR
000566: 10,2443           10000                           CCS      A                                     #  WITHIN LIMITS IF NOT). IF SO, EXIT AFTER
000567: 10,2444           13241                           TCF      ENDRADAR                              #  CHECKING RR CDU FAIL.
000568:
000569: 10,2445           10430                           CCS      DESCOUNT                              #  SEE IF TIME LIMIT HAS EXPIRED.
000570: 10,2446           12460                           TCF      MOREDES
000571:
000572: 10,2447           04744                           TC       ALARM                                 #  OUT OF TIME.
000573: 10,2450           00503                           OCT      503
000574:
000575: 10,2451           42466                           CS       B14+B2                                #  IF OUT OF TIME, REMOVE ECR ENABLE + TRKR
000576: 10,2452           00006                           EXTEND
000577: 10,2453           03012                           WAND     12
000578: 10,2454           47744        BADDES             CS       BIT10                                 #  REMOVE DESIGNATE FLAG.
000579: 10,2455           70413                           MASK     RADMODES
000580: 10,2456           54413                           TS       RADMODES
000581: 10,2457           13255                           TCF      RDBADEND
000582:
000583: 10,2460           54430        MOREDES            TS       DESCOUNT
000584: 10,2461           35666                           CAF      PRIO26                                #  UPDATE GYRO TORQUE COMMANDS.
000585: 10,2462           05534                           TC       FINDVAC
000586: 10,2463  E3,1464                                  EBANK=   RRRET
000587: 10,2463           02467 20003                     2CADR    DODES
000588:
000589: 10,2465           12427                           TCF      DESLOOP
000590:
000591: 10,2466           20002        B14+B2             OCT      20002
000592:


000594:                                                                                                  #           CALCULATE GYRO TORQUE COMMANDS.
000595:
000596: 10,2467           00006        DODES              EXTEND
000597: 10,2470           30036                           DCA      OPTY
000598: 10,2471           52424                           DXCH     TANG
000599:
000600: 10,2472           06103                           TC       INTPRET
000601:
000602: 10,2473           77775                           VLOAD                                          #  MOVE TARGET VECTOR TO 32D.
000603: 10,2474           00416                                    RRTARGET
000604: 10,2475           00041                           STORE    32D
000605:
000606: 10,2476           47014                           BON      RTB                                   #  DO STABLE-MEMBER TO NAVBASE TRANSFORMA-
000607: 10,2477           00311                                    RRNBSW                                #  TION IF TARGET IN SM COORDS. OTHERWISE,
000608:
000609: 10,2500           20507                                    DONBRD                                #  IN NB COORDS ALREADY.
000610: 10,2501           33540                                    READCDUS
000611:
000612: 10,2502           77731                           SSP
000613: 10,2503           00051                                    S1
000614: 10,2504           00024                                    20D                                   #  LOC OF ICDUS.
000615: 10,2505           34025                           STCALL   20D
000616: 10,2506           32576                                    SMNB
000617:


000619: 10,2507           67201        DONBRD             SETPD    SLOAD                                 #  DO NAVBASE TO RADAR DISH TRANSFORMATION.
000620: 10,2510           00001                                    0
000621: 10,2511           00425                                    TANG       +1
000622: 10,2512           41434                           RTB      PUSH                                  #  SHAFT COMMAND = V(32D).(COS(S), 0,
000623: 10,2513           33524                                    CDULOGIC                              #       (-SIN(S)).
000624: 10,2514           65356                           SIN      PDDL                                  #  SIN(S) TO 0 AND COS(S) TO 2.
000625: 10,2515           41546                           COS      PUSH
000626: 10,2516           65205                           DMP      PDDL
000627: 10,2517           00041                                    32D
000628: 10,2520           00045                                    36D
000629: 10,2521           44205                           DMP      BDSU
000630: 10,2522           00001                                    0
000631: 10,2523           77626                           STADR
000632: 10,2524           77352                           STORE    TANG       +1                         #  SHAFT COMMAND
000633:
000634: 10,2525           47135                           SLOAD    RTB
000635: 10,2526           00424                                    TANG
000636: 10,2527           33524                                    CDULOGIC
000637: 10,2530           71406                           PUSH     COS                                   #  COS(T) TO 4.
000638:
000639: 10,2531           73525                           PDDL     SIN
000640: 10,2532           41206                           PUSH     DMP                                   #  SIN(T) TO 6.
000641: 10,2533           00003                                    2
000642: 10,2534           65352                           SL1      PDDL                                  #  DEFINE VECTOR U = (SIN(T)SIN(S))
000643: 10,2535           00005                                    4                                     #                    (   COS(T)   )
000644: 10,2536           41325                           PDDL     DMP                                   #                    (SIN(T)COS(S))
000645: 10,2537           00007                                    6
000646: 10,2540           00001                                    0
000647: 10,2541           55552                           SL1      VDEF
000648: 10,2542           77441                           DOT      EXIT                                  #  DOT U WITH LOS TO GET TRUNNION COMMAND.
000649: 10,2543           00041                                    32D
000650:


000652:                                                                                                  #           AT THIS POINT WE HAVE A ROTATION VECTOR IN DISH AXES LYING IN THE TS PLANE. CONVERT THIS TO A
000653:                                                                                                  #  COMMANDED RATE AND ENABLE THE TRACKER IF WE ARE WITHIN 1 DEGREE OF THE TARGET.
000654:
000655: 10,2544           40144                           CS       MPAC                                  #  DOT WAS NEGATIVE OF DESIRED ANGLE.
000656: 10,2545           54423                           TS       TANG
000657:
000658: 10,2546           40413                           CS       RADMODES                              #  A RELAY IN THE RR REVERSES POLARITY OF
000659: 10,2547           77742                           MASK     BIT12                                 #  THE SHAFT COMMANDS IN MODE 2 SO THAT A
000660: 10,2550           10000                           CCS      A                                     #  POSITIVE TORQUE APPLIED TO THE SHAFT
000661: 10,2551           12554                           TCF      +3                                    #  GYRO CAUSES A POSITIVE CHANGE IN THE
000662:
000663: 10,2552           40424                           CS       TANG       +1                         #  SHAFT ANGLE. COMPENSATE FOR THIS SWITCH
000664: 10,2553           54424                           TS       TANG       +1                         #  BY CHANGING THE POLARITY OF OUR COMMAND.
000665:
000666: 10,2554           37761                           CAF      ZERO
000667: 10,2555           54145                           TS       MPAC       +1
000668: 10,2556           37755                           CAF      ONE
000669:
000670: 10,2557           54144        RRSCALUP           TS       MPAC
000671: 10,2560           50000                           INDEX    A
000672: 10,2561           30423                           CA       TANG                                  #  TRUNNION COMPONENT OF ROTATION.
000673: 10,2562           00006                           EXTEND
000674: 10,2563           72635                           MP       RDESGAIN                              #  SCALING ON INPUT ANGLE WAS 4 RADIANS.
000675: 10,2564           50144                           INDEX    MPAC
000676: 10,2565           56423                           XCH      TANG                                  #  MAKE EACH COMPONENT LESS THAN .7 DEGREES
000677:
000678: 10,2566           04312                           TC       MAGSUB                                #  BEFORE SENDING TRACK ENABLE.
000679: 10,2567           77715                           DEC      -.00305
000680: 10,2570           24145                           INCR     MPAC       +1                         #  IF OUT OF BOUNDS.
000681:
000682: 10,2571           10144                           CCS      MPAC
000683: 10,2572           12557                           TCF      RRSCALUP
000684:


000686:                                                                                                  #           SEE IF TRACKER SHOULD BE ENABLED OR DISABLED.
000687:
000688: 10,2573           00004                           INHINT
000689:
000690: 10,2574           10413                           CCS      RADMODES                              #  IF CONTINUOUS DESIGNATE WANTED, PUT OUT
000691: 10,2575           12600                           TCF      +3                                    #  COMMANDS WITHOUT CHECKING MAGNITUDE OF
000692: 10,2576           12600                           TCF      +2                                    #  ERROR SIGNALS.
000693: 10,2577           12625                           TCF      TRKOFF
000694:
000695: 10,2600           10145                           CCS      MPAC       +1                         #  SEE IF BOTH AXES WERE WITHIN .7 DEGS.
000696: 10,2601           12625                           TCF      TRKOFF
000697:
000698: 10,2602           40074                           CS       STATE                                 #  IF WITHIN LIMITS AND NO LOCK-ON WANTED,
000699: 10,2603           77751                           MASK     LOKONFLG                              #  PROBLEM IS FINISHED.
000700: 10,2604           10000                           CCS      A
000701: 10,2605           12616                           TCF      RRDESDUN
000702:
000703: 10,2606           37740                           CAF      BIT14                                 #  ENABLE THE TRACKER.
000704: 10,2607           00006                           EXTEND
000705: 10,2610           05012                           WOR      12
000706:
000707: 10,2611           37752                           CAF      BIT4                                  #  SEE IF DATA GOOD RECEIVED YET.
000708: 10,2612           00006                           EXTEND
000709: 10,2613           02033                           RAND     33
000710: 10,2614           10000                           CCS      A
000711: 10,2615           12630                           TCF      DORROUT
000712:
000713: 10,2616           47744        RRDESDUN           CS       BIT10                                 #  WHEN PROBLEM DONE, REMOVE BIT 10 SO NEXT
000714: 10,2617           70413                           MASK     RADMODES                              #  WAITLIST TASK WE WILL GO TO RGOODEND.
000715: 10,2620           54413                           TS       RADMODES
000716:
000717: 10,2621           47754                           CS       BIT2
000718:
000719: 10,2622           00006                           EXTEND
000720: 10,2623           03012                           WAND     12
000721: 10,2624           15605                           TCF      ENDOFJOB                              #  WITH ECTR DISABLED.
000722:
000723: 10,2625           47740        TRKOFF             CS       BIT14
000724: 10,2626           00006                           EXTEND
000725: 10,2627           03012                           WAND     12
000726:
000727: 10,2630           40413        DORROUT            CS       RADMODES                              #  PUT OUT COMMAND UNLESS MONITOR
000728: 10,2631           77743                           MASK     BIT11                                 #  REPOSITION HAS TAKEN OVER.
000729: 10,2632           10000                           CCS      A
000730: 10,2633           02213                           TC       RROUT
000731:
000732: 10,2634           15605                           TCF      ENDOFJOB
000733:
000734: 10,2635           21122        RDESGAIN           DEC      .53624                                #  TRIES TO NULL .5 ERROR IN .5 SEC.
000735:


000737:                                                                                                  #  RADAR READ INITIALIZATION
000738:
000739:                                                                                                  #  RADAR DATA ARE READ BY A BANKCALL FOR THE APPROPRIATE LEAD-IN BELOW.
000740:
000741: 10,2636           02652        LRALT              TC       INITREAD   -1                         #  ONE SAMPLE PER READING.
000742: 10,2637           00017        ALLREAD            OCT      17
000743:
000744: 10,2640           02653        LRVELZ             TC       INITREAD
000745: 10,2641           00016                           OCT      16
000746:
000747: 10,2642           02653        LRVELY             TC       INITREAD
000748: 10,2643           00015                           OCT      15
000749:
000750: 10,2644           02653        LRVELX             TC       INITREAD
000751: 10,2645           00014                           OCT      14
000752:
000753: 10,2646           02652        RRRDOT             TC       INITREAD   -1
000754: 10,2647           00012                           OCT      12
000755:
000756: 10,2650           02652        RRRANGE            TC       INITREAD   -1
000757: 10,2651           00011                           OCT      11
000758:


000760: 10,2652           37755                 -1        CAF      ONE                                   #  ENTRY TO TAKE ONLY 1 SAMPLE.
000761: 10,2653           00004        INITREAD           INHINT
000762:
000763: 10,2654           54421                           TS       TIMEHOLD                              #  GET DT OF MIDPOINT OF NOMINAL SAMPLING
000764: 10,2655           00006                           EXTEND                                         #  INTERVAL (ASSUMES NO BAD SAMPLES WILL BE
000765: 10,2656           77753                           MP       BIT3                                  #  ENCOUNTERED).
000766: 10,2657           52422                           DXCH     TIMEHOLD
000767:
000768: 10,2660           10000                           CCS      A
000769: 10,2661           54425                           TS       NSAMP
000770: 10,2662           67755                           AD       ONE
000771:                                                                                                  #           INSERT FOLLOWING INSTRUCTION TO GET 2N TRIES FOR N SAMPLES.
000772:                                                                                                  #                                                   DOUBLE
000773: 10,2663           54414                           TS       SAMPLIM
000774:
000775: 10,2664           32706                           CAF      DGBITS                                #  READ CURRENT VALUE OF DATA GOOD BITS.
000776: 10,2665           00006                           EXTEND
000777: 10,2666           02033                           RAND     33
000778: 10,2667           54427                           TS       OLDATAGD
000779:
000780: 10,2670           42637                           CS       ALLREAD
000781: 10,2671           00006                           EXTEND
000782: 10,2672           03013                           WAND     13                                    #  REMOVE ALL RADAR BITS
000783:
000784: 10,2673           50002                           INDEX    Q
000785: 10,2674           30000                           CAF      0
000786: 10,2675           00006                           EXTEND
000787: 10,2676           05013                           WOR      13                                    #  SET NEW RADAR BITS
000788:
000789: 10,2677           00006                           EXTEND
000790: 10,2700           30025                           DCA      TIME2
000791: 10,2701           20422                           DAS      TIMEHOLD                              #  TIME OF NOMINAL MIDPOINT.
000792:
000793: 10,2702           37761                           CAF      ZERO
000794: 10,2703           54001                           TS       L
000795: 10,2704           52416                           DXCH     SAMPLSUM
000796: 10,2705           12302                           TCF      ROADBACK
000797:
000798: 10,2706           00230        DGBITS             OCT      230
000799:


000801:                                                                                                  #  RADAR RUPT READER
000802:
000803:                                                                                                  #  THIS ROUTINE STARTS FROM A RADARUPT. IT READS THE DATA $ LOTS MORE.
000804:
000805: 10,2707           54016        RADAREAD           TS       BANKRUPT
000806: 10,2710           00006                           EXTEND
000807: 10,2711           22012                           QXCH     QRUPT
000808:
000809: 10,2712           00006        ANGLREAD           EXTEND
000810: 10,2713           30036                           DCA      OPTY
000811: 10,2714           52420                           DXCH     OPTYHOLD                              #  SAVE RAW CDU ANGLES
000812:
000813: 10,2715           10414        TRYCOUNT           CCS      SAMPLIM
000814: 10,2716           12730                           TCF      PLENTY
000815: 10,2717           12723                           TCF      NOMORE
000816: 10,2720           04744                           TC       ALARM
000817: 10,2721           00520                           OCT      520
000818: 10,2722           05751                           TC       RESUME
000819:
000820: 10,2723           04744        NOMORE             TC       ALARM
000821: 10,2724           00521                           OCT      521
000822: 10,2725           47755        BADRAD             CS       ONE
000823: 10,2726           54414                           TS       SAMPLIM
000824: 10,2727           03253                           TC       RDBADEND   -2
000825:
000826: 10,2730           54414        PLENTY             TS       SAMPLIM
000827:
000828: 10,2731           37753                           CAF      BIT3
000829: 10,2732           00006                           EXTEND
000830: 10,2733           02013                           RAND     13                                    #  TO FIND OUT WHICH RADAR
000831: 10,2734           00006                           EXTEND
000832: 10,2735           13014                           BZF      RENDRAD
000833:
000834: 10,2736           30413        LRPOSCHK           CA       RADMODES                              #  SEE IF LR IN DESIRED POSITION.
000835: 10,2737           00006                           EXTEND
000836: 10,2740           06033                           RXOR     33
000837: 10,2741           77750                           MASK     BIT6
000838:
000839: 10,2742           00006                           EXTEND
000840: 10,2743           12747                           BZF      VELCHK
000841:
000842: 10,2744           04744                           TC       ALARM
000843: 10,2745           00522                           OCT      522
000844: 10,2746           02725                           TC       BADRAD
000845:
000846: 10,2747           36301        VELCHK             CAF      BIN3                                  #  = 00003 OCT
000847: 10,2750           00006                           EXTEND
000848: 10,2751           06013                           RXOR     13
000849: 10,2752           76301                           MASK     BIN3
000850: 10,2753           00006                           EXTEND
000851:
000852: 10,2754           13010                           BZF      LRHEIGHT                              #  TAKE A LR RANGE READING
000853:


000855: 10,2755           37735                           CAF      POSMAX
000856: 10,2756           70046                           MASK     RNRAD
000857: 10,2757           63156                           AD       LVELBIAS
000858: 10,2760           54001                           TS       L
000859: 10,2761           30046                           CAE      RNRAD
000860: 10,2762           60000                           DOUBLE
000861: 10,2763           77755                           MASK     BIT1
000862: 10,2764           52064                           DXCH     ITEMP3
000863:
000864: 10,2765           37746                           CAF      BIT8                                  #  DATA GOOD ISNT CHECKED UNTIL AFTER READ-
000865: 10,2766           03126                           TC       DGCHECK                               #  ING DATA SO SOME RADAR TESTS WILL WORK
000866:                                                                                                  #  INDEPENDENT OF DATA GOOD.
000867:
000868: 10,2767           10425                           CCS      NSAMP
000869: 10,2770           03000                           TC       NOEND
000870: 10,2771           47755        GOODRAD            CS       ONE
000871: 10,2772           54414                           TS       SAMPLIM
000872: 10,2773           40061                           CS       ITEMP1                                #  WHEN ENOUGH GOOD DATA HAS BEEN GATHERED,
000873: 10,2774           70413                           MASK     RADMODES                              #  RESET DATA FAIL FLAGS FOR SETTRKF.
000874: 10,2775           54413                           TS       RADMODES
000875: 10,2776           04366                           TC       SETTRKF                               #  LAMP MIGHT GO OFF IF DATA JUST GOOD.
000876: 10,2777           03246                           TC       RGOODEND   -2
000877:
000878: 10,3000           54425        NOEND              TS       NSAMP
000879: 10,3001           10414        RESAMPLE           CCS      SAMPLIM                               #  SEE IF ANY MORE TRIES SHOULD BE MADE.
000880: 10,3002           13004                           TCF      +2
000881: 10,3003           13145                           TCF      DATAFAIL                              #  N SAMPLES NOT AVAILABLE.
000882: 10,3004           37752                           CAF      BIT4                                  #  RESET ACTIVITY BIT.
000883: 10,3005           00006                           EXTEND
000884: 10,3006           05013                           WOR      13                                    #  RESET ACTIVITY BIT
000885: 10,3007           05751                           TC       RESUME
000886:
000887:
000888: 10,3010           37751        LRHEIGHT           CAF      BIT5
000889: 10,3011           54061                           TS       ITEMP1                                #  (POSITION OF DATA GOOD BIT IN CHAN 33)
000890:
000891: 10,3012           37745                           CAF      BIT9
000892: 10,3013           03036                           TC       SCALECHK   -1
000893:
000894: 10,3014           37743        RENDRAD            CAF      BIT11                                 #  MAKE SURE ANTENNA HAS NOT GONE OUT OF
000895: 10,3015           70413                           MASK     RADMODES                              #  LIMITS.
000896: 10,3016           10000                           CCS      A
000897: 10,3017           12725                           TCF      BADRAD
000898:
000899: 10,3020           40413                           CS       RADMODES                              #  BE SURE RR CDU HASNT FAILED.
000900: 10,3021           77747                           MASK     BIT7
000901: 10,3022           10000                           CCS      A
000902: 10,3023           12725                           TCF      BADRAD
000903:


000905: 10,3024           37752                           CAF      BIT4                                  #  SEE IF DATA HAS BEEN GOOD.
000906: 10,3025           54061                           TS       ITEMP1                                #  (POSITION OF DATA GOOD BIT IN CHAN 33)
000907:
000908: 10,3026           37755                           CAF      BIT1                                  #  SEE IF RR RDOT.
000909: 10,3027           00006                           EXTEND
000910: 10,3030           02013                           RAND     13
000911: 10,3031           54002                           TS       Q                                     #  FOR LATER TESTING.
000912: 10,3032           10000                           CCS      A
000913: 10,3033           13035                           TCF      +2
000914: 10,3034           13047                           TCF      RADIN                                 #  NO SCALE CHECK FOR RR RDOT.
000915: 10,3035           37753                           CAF      BIT3
000916: 10,3036           54001                           TS       L
000917:
000918: 10,3037           00006        SCALECHK           EXTEND
000919:
000920: 10,3040           02033                           RAND     33                                    #  SCALE STATUS NOW
000921: 10,3041           56001                           XCH      L
000922: 10,3042           70413                           MASK     RADMODES                              #  SCALE STATUS BEFORE
000923: 10,3043           00006                           EXTEND
000924: 10,3044           06001                           RXOR     01                                    #  SEE IF THEY DIFFER
000925: 10,3045           10000                           CCS      A
000926: 10,3046           03066                           TC       SCALCHNG                              #  THEY DIFFER
000927:
000928: 10,3047           37735        RADIN              CAF      POSMAX
000929: 10,3050           70046                           MASK     RNRAD
000930: 10,3051           54064                           TS       ITEMP4
000931:
000932: 10,3052           30046                           CAE      RNRAD
000933: 10,3053           60000                           DOUBLE
000934: 10,3054           77755                           MASK     BIT1
000935: 10,3055           54063                           TS       ITEMP3
000936:
000937: 10,3056           10002                           CCS      Q                                     #  SEE IF RR RDOT.
000938: 10,3057           13100                           TCF      SCALADJ                               #  NO, BUT SCALE CHANGING MAY BE NEEDED.
000939:
000940: 10,3060           00006                           EXTEND                                         #  IF RR RANGE RATE, THROW OUT BIAS.
000941: 10,3061           43160                           DCS      RDOTBIAS
000942: 10,3062           20064        DASAMPL            DAS      ITEMP3
000943:
000944: 10,3063           30061        DGCHECK2           CA       ITEMP1                                #  SEE THAT DATA HAS BEEN GOOD BEFORE AND
000945: 10,3064           03127                           TC       DGCHECK    +1                         #  AFTER TAKING SAMPLE.
000946: 10,3065           02771                           TC       GOODRAD
000947:
000948: 10,3066           22413        SCALCHNG           LXCH     RADMODES
000949: 10,3067           67755                           AD       BIT1
000950: 10,3070           00006                           EXTEND
000951: 10,3071           06001                           RXOR     01
000952: 10,3072           54413                           TS       RADMODES
000953: 10,3073           32706                           CAF      DGBITS                                #  UPDATE LAST VALUE OF DATA GOOD BITS.
000954: 10,3074           00006                           EXTEND
000955: 10,3075           02033                           RAND     33
000956: 10,3076           54427                           TS       OLDATAGD


000958: 10,3077           12725                           TCF      BADRAD
000959:


000961:                                                                                                  #           THE FOLLOWING ROUTINE INCORPORATES RR RANGE AND LR ALT SCALE INFORMATION AND LEAVES DATA AT LO SCALE.
000962:
000963: 10,3100           10001        SCALADJ            CCS      L                                     #  L HAS SCALE INBIT FOR THIS RADAR.
000964: 10,3101           13103                           TCF      +2                                    #  ON HIGH SCALE.
000965: 10,3102           13063                           TCF      DGCHECK2
000966:
000967: 10,3103           52064                           DXCH     ITEMP3
000968: 10,3104           20001                           DDOUBL
000969: 10,3105           20001                           DDOUBL
000970: 10,3106           20001                           DDOUBL
000971: 10,3107           52064                           DXCH     ITEMP3
000972:
000973: 10,3110           37753                           CAF      BIT3                                  #  SEE IF LR OR RR.
000974: 10,3111           00006                           EXTEND
000975: 10,3112           02013                           RAND     13
000976: 10,3113           00006                           EXTEND                                         #  IF RR, NO MORE ACTION REQUIRED.
000977: 10,3114           13063                           BZF      DGCHECK2
000978:
000979: 10,3115           33155                           CAF      LRRATIO                               #  IF LR, CONVERT TO LO SCALING.
000980: 10,3116           00006                           EXTEND
000981: 10,3117           70064                           MP       ITEMP4
000982: 10,3120           54064                           TS       ITEMP4
000983: 10,3121           37761                           CAF      ZERO                                  #  (SO SUBSEQUENT DAS WILL BE OK)
000984: 10,3122           56063                           XCH      ITEMP3
000985: 10,3123           00006                           EXTEND
000986: 10,3124           73155                           MP       LRRATIO
000987:
000988: 10,3125           13062                           TCF      DASAMPL
000989:


000991: 10,3126           54061        DGCHECK            TS       ITEMP1                                #  UPDATE DATA GOOD BIT IN OLDATAGD AND
000992: 10,3127           00006                           EXTEND                                         #  MAKE SURE IT WAS ON BEFORE AND AFTER THE
000993: 10,3130           02033                           RAND     33                                    #  SAMPLE WAS TAKEN BEFORE RETURNING. IF
000994: 10,3131           54001                           TS       L                                     #  NOT, GOES TO RESAMPLE TO TRY AGAIN. IF
000995: 10,3132           40061                           CS       ITEMP1                                #  MAX NUMBER OF TRIES HAS BEEN REACHED,
000996: 10,3133           70427                           MASK     OLDATAGD                              #  THE BIT CORRESPONDING TO THE DATA GOOD
000997: 10,3134           60001                           AD       L                                     #  WHICH FAILED TO APPEAR IS IN ITEMP1 AND
000998: 10,3135           56427                           XCH      OLDATAGD                              #  CAN BE USED TO SET RADMODES WHICH VIA
000999:
001000: 10,3136           70061                           MASK     ITEMP1                                #  SETTRKF SETS THE TRACKER FAIL LAMP.
001001: 10,3137           60001                           AD       L
001002: 10,3140           10000                           CCS      A                                     #  SHOULD BOTH BE ZERO.
001003: 10,3141           03001                           TC       RESAMPLE
001004: 10,3142           52064                           DXCH     ITEMP3                                #  IF DATA GOOD BEFORE AND AFTER, ADD TO
001005: 10,3143           20416                           DAS      SAMPLSUM                              #  ACCUMULATION.
001006: 10,3144           00002                           TC       Q
001007:
001008: 10,3145           40061        DATAFAIL           CS       ITEMP1                                #  IN THE ABOVE CASE, SET RADMODES BIT
001009: 10,3146           70413                           MASK     RADMODES                              #  SHOWING SOME RADAR DATA FAILED.
001010: 10,3147           60061                           AD       ITEMP1
001011: 10,3150           54413                           TS       RADMODES
001012:
001013: 10,3151           52064                           DXCH     ITEMP3                                #  IF WE HAVE BEEN UNABLE TO GATHER N
001014: 10,3152           52416                           DXCH     SAMPLSUM                              #  SAMPLES, USE LAST ONE ONLY.
001015:
001016: 10,3153           04366                           TC       SETTRKF
001017:
001018: 10,3154           12723                           TCF      NOMORE
001019:
001020: 10,3155           23773        LRRATIO            DEC      4.9977     B-3
001021: 10,3156           47777        LVELBIAS           DEC      -12288     B-14                       #  LANDING RADAR BIAS FOR 153.6 KC.
001022: 10,3157           00001 01150  RDOTBIAS           2DEC     17000      B-28                       #  BIAS COUNT FOR RR RANGE RATE
001023:


001025:                                                                                                  #  THIS ROUTINE CHANGES THE LR POSITION, AND CHECKS THAT IT GOT THERE.
001026:
001027: 10,3161           00004        LRPOS2             INHINT
001028:
001029: 10,3162           47750                           CS       BIT6                                  #  DESIRED LR POSITION IS NOW 2.
001030: 10,3163           70413                           MASK     RADMODES
001031: 10,3164           67750                           AD       BIT6
001032: 10,3165           54413                           TS       RADMODES
001033:
001034: 10,3166           37747                           CAF      BIT7
001035: 10,3167           00006                           EXTEND
001036: 10,3170           02033                           RAND     33                                    #  SEE IF ALREADY THERE.
001037: 10,3171           00006                           EXTEND
001038: 10,3172           13223                           BZF      RADNOOP
001039:
001040: 10,3173           37741                           CAF      BIT13
001041: 10,3174           00006                           EXTEND
001042: 10,3175           05012                           WOR      12                                    #  COMMAND TO POSITION 2
001043:
001044: 10,3176           33240                           CAF      6SECS                                 #  START SCANNING FOR INBIT AFTER 7 SECS.
001045: 10,3177           05701                           TC       WAITLIST
001046: 10,3200  E3,1464                                  EBANK=   RRRET
001047: 10,3200           03236 20003                     2CADR    LRPOSCAN
001048:
001049: 10,3202           02302                           TC       ROADBACK
001050:
001051: 10,3203           54414        LRPOSNXT           TS       SAMPLIM
001052: 10,3204           05717                           TC       FIXDELAY                              #  SCAN ONCE PER SECOND 15 TIMES MAX AFTER
001053: 10,3205           00144                           DEC      100        B-14                       #  INITIAL DELAY OF 7 SECONDS.
001054:
001055: 10,3206           37747                           CAF      BIT7
001056: 10,3207           00006                           EXTEND
001057: 10,3210           02033                           RAND     33
001058: 10,3211           00006                           EXTEND
001059: 10,3212           13230                           BZF      LASTLRDT                              #  IF THERE, WAIT FINAL SECOND FOR BOUNCE.
001060:
001061: 10,3213           10414                           CCS      SAMPLIM                               #  SEE IF MAX TIME UP.
001062: 10,3214           13203                           TCF      LRPOSNXT
001063:
001064: 10,3215           47741                           CS       BIT13                                 #  IF TIME UP, DISABLE COMMAND AND ALARM.
001065: 10,3216           00006                           EXTEND
001066: 10,3217           03012                           WAND     12
001067:
001068: 10,3220           04744                           TC       ALARM                                 #  LR ANTENNA DIDNT MAKE IT.
001069: 10,3221           00523                           OCT      523
001070: 10,3222           13255                           TCF      RDBADEND
001071:
001072: 10,3223           37755        RADNOOP            CAF      ONE                                   #  NO FURTHER ACTION REQUESTED.
001073: 10,3224           05701                           TC       WAITLIST
001074: 10,3225  E3,1464                                  EBANK=   RRRET


001076: 10,3225           03250 20003                     2CADR    RGOODEND
001077:
001078: 10,3227           02302                           TC       ROADBACK
001079:
001080: 10,3230           05717        LASTLRDT           TC       FIXDELAY                              #  WAIT ONE SECOND AFTER RECEIPT OF INBIT
001081: 10,3231           00144                           DEC      100        B-14                       #  TO WAIT FOR ANTENNA BOUNCE TO DIE OUT.
001082:
001083: 10,3232           47741                           CS       BIT13                                 #  REMOVE COMMAND
001084: 10,3233           00006                           EXTEND
001085: 10,3234           03012                           WAND     12
001086: 10,3235           13250                           TCF      RGOODEND
001087:
001088: 10,3236           37751        LRPOSCAN           CAF      BIT5                                  #  SET UP FOR 15 SAMPLES.
001089: 10,3237           13203                           TCF      LRPOSNXT
001090:
001091: 10,3240           01130        6SECS              DEC      600        B-14
001092:


001094:                                                                                                  #           SEQUENCES TO TERMINATE RR OPERATIONS.
001095:
001096: 10,3241           37747        ENDRADAR           CAF      BIT7                                  #  PROLOG TO CHECK RR CDU FAIL BEFORE END.
001097: 10,3242           70413                           MASK     RADMODES
001098: 10,3243           10000                           CCS      A
001099: 10,3244           13250                           TCF      RGOODEND
001100: 10,3245           13255                           TCF      RDBADEND
001101: 10,3246           47761                 -2        CS       ZERO                                  #  RGOODEND WHEN NOT UNDER WAITLIST CONTROL
001102: 10,3247           55076                           TS       RUPTAGN
001103:
001104: 10,3250           37754        RGOODEND           CAF      TWO
001105: 10,3251           05243                           TC       POSTJUMP
001106: 10,3252           26731                           CADR     GOODEND
001107:
001108: 10,3253           47761                 -2        CS       ZERO                                  #  RDBADEND WHEN NOT UNDER WAITLIST.
001109: 10,3254           55076                           TS       RUPTAGN
001110: 10,3255           37754        RDBADEND           CAF      TWO
001111: 10,3256           05243                           TC       POSTJUMP
001112: 10,3257           26726                           CADR     BADEND
001113:
001114: 10,3260     6301               BIN3               EQUALS   THREE
001115:
001116:

End of include-file RADAR_LEAD-IN_ROUTINES.agc.  Parent file is MAIN.agc


