
Source Code


000002:                                                                                                  ## Copyright:   Public domain.
000003:                                                                                                  ## Filename:    RCS_FAILURE_MONITOR.agc
000004:                                                                                                  ## Purpose:     A section of Sunburst revision 37, or Shepatin revision 0.
000005:                                                                                                  ##              It is part of an early development version of the software
000006:                                                                                                  ##              for Apollo Guidance Computer (AGC) on the unmanned Lunar
000007:                                                                                                  ##              Module (LM) flight Apollo 5. Sunburst 37 was the program
000008:                                                                                                  ##              upon which Don Eyles's offline development program Shepatin
000009:                                                                                                  ##              was based; the listing herein transcribed was actually for
000010:                                                                                                  ##              the equivalent revision 0 of Shepatin.
000011:                                                                                                  ##              This file is intended to be a faithful transcription, except
000012:                                                                                                  ##              that the code format has been changed to conform to the
000013:                                                                                                  ##              requirements of the yaYUL assembler rather than the
000014:                                                                                                  ##              original YUL assembler.
000015:                                                                                                  ## Reference:   pp. 535-537
000016:                                                                                                  ## Assembler:   yaYUL
000017:                                                                                                  ## Contact:     Ron Burkey <info@sandroid.org>.
000018:                                                                                                  ## Website:     www.ibiblio.org/apollo/index.html
000019:                                                                                                  ## Mod history: 2017-05-24 MAS  Created from Sunburst 120.
000020:                                                                                                  ##              2017-05-31 HG   Transcribed
000021:                                                                                                  ##              2017-06-15 HG   Fix operand BIT6 -> BIT8
000022:                                                                                                  ##              2017-06-22 RSB  Proofed comment text with
000023:                                                                                                  ##                              octopus/ProoferComments.
000024:


000026:                                                                                                  #  FAILURE MONITOR FOR LM RCS JETS (4 TIMES A SECOND).
000027:
000028:                                                                                                  #  *** FAILSW CAPABILITY FOR CHECKOUT ONLY ***
000029:
000030: 20,2677  E6,1541                                  EBANK=   DT
000031: 12,3203                                           BANK     12
000032:
000033: 12,3203           15751        RCSMONIT           TCF      RESUME                                #  *** TO STOP ENDLESS LOOPS. ***
000034:
000035:
000036:
000037: 12,3204           15751                           TCF      ENDRCSFL                              #  DO NOTHING IF POSITIVE
000038:
000039: 12,3205           31501                           CA       LASTFAIL                              #  LAST FAILURE CHANNEL VALUE
000040: 12,3206           00006                           EXTEND
000041: 12,3207           06032                           RXOR     32
000042: 12,3210           74553                           MASK     LOW8
000043: 12,3211           00006                           EXTEND
000044: 12,3212           15751                           BZF      NOSTCHG                               #  NO STATUS CHANGE, FINISHED
000045:
000046: 12,3213           00006                           EXTEND
000047: 12,3214           33217                           DCA      MNTRCS
000048: 12,3215           52006                           DTCB
000049: 12,3216  E6,1541                                  EBANK=   DT
000050: 12,3216           02677 40006  MNTRCS             2CADR    RCSMNTR
000051: 12,3220                        ENDT4S             EQUALS
000052:
000053:
000054: 20,2677                                           BANK     20
000055: 20,2677  E6,1541                                  EBANK=   DT
000056: 20,2677           37761        RCSMNTR            CA       ZERO                                  #  THERE IS A DIFFERENCE, CLEAR MASKS
000057: 20,2700           55502                           TS       CH5MASK
000058: 20,2701           55503                           TS       CH6MASK
000059:
000060: 20,2702           00006                           EXTEND                                         #  READ PRESENT FAILURES
000061: 20,2703           00032                           READ     32
000062: 20,2704           55501                           TS       LASTFAIL                              #  SAVE FOR NEXT PASS
000063:
000064: 20,2705           40000                           COM                                            #  FAILURES NOW ONES
000065: 20,2706           00006                           EXTEND
000066: 20,2707           77747                           MP       BIT7                                  #  SHIFT TO TEST LOW 8 BITS
000067: 20,2710           37761                           CA       ZERO
000068:
000069: 20,2711           54061                           TS       FAILCTR                               #  INITIALIZE COUNTER
000070: 20,2712           30001                           CA       L
000071: 20,2713           12716                           TCF      NXTRCSPR   +1
000072:
000073: 20,2714           67755                 -1        AD       BIT1
000074: 20,2715           24061        NXTRCSPR           INCR     FAILCTR
000075: 20,2716           60000                 +1        DOUBLE
000076:


000078: 20,2717           54062                           TS       FAILTEMP                              #  OVERFLOW CHECK
000079: 20,2720           12715                           TCF      NXTRCSPR
000080:
000081: 20,2721           50061                           INDEX    FAILCTR
000082: 20,2722           02726                           TC       RCSFJUMP                              #  GO THROUGH JUMP TABLE
000083:
000084: 20,2723           10062                           CCS      FAILTEMP
000085: 20,2724           12714                           TCF      NXTRCSPR   -1                         #  FINISH EARLY, OR MORE TO DO
000086:
000087: 20,2725           15751                           TCF      ENDRCSFL
000088: 20,2726           12736        RCSFJUMP           TCF      FM10/11
000089: 20,2727           12743                           TCF      FM9/12
000090: 20,2730           12750                           TCF      FM13/15
000091: 20,2731           12755                           TCF      FM14/16
000092: 20,2732           12762                           TCF      FM6/7
000093: 20,2733           12767                           TCF      FM1/3
000094: 20,2734           12774                           TCF      FM5/8
000095: 20,2735           13001                           TCF      FM2/4
000096:
000097: 20,2736           37750        FM10/11            CA       BIT6
000098: 20,2737           27502                           ADS      CH5MASK
000099: 20,2740           37752                           CA       BIT4
000100: 20,2741           27503                           ADS      CH6MASK
000101: 20,2742           00002                           TC       Q
000102:
000103: 20,2743           37751        FM9/12             CA       BIT5
000104:
000105: 20,2744           27502                           ADS      CH5MASK
000106: 20,2745           37751                           CA       BIT5
000107: 20,2746           27503                           ADS      CH6MASK
000108: 20,2747           00002                           TC       Q
000109:
000110: 20,2750           37747        FM13/15            CA       BIT7
000111: 20,2751           27502                           ADS      CH5MASK
000112: 20,2752           37753                           CA       BIT3
000113: 20,2753           27503                           ADS      CH6MASK
000114: 20,2754           00002                           TC       Q
000115:
000116: 20,2755           37746        FM14/16            CA       BIT8
000117: 20,2756           27502                           ADS      CH5MASK
000118: 20,2757           37746                           CA       BIT8
000119: 20,2760           27503                           ADS      CH6MASK
000120: 20,2761           00002                           TC       Q
000121:
000122: 20,2762           37752        FM6/7              CA       BIT4
000123: 20,2763           27502                           ADS      CH5MASK
000124: 20,2764           37755                           CA       BIT1
000125: 20,2765           27503                           ADS      CH6MASK
000126: 20,2766           00002                           TC       Q
000127:
000128: 20,2767           37755        FM1/3              CA       BIT1
000129:


000131: 20,2770           27502                           ADS      CH5MASK
000132: 20,2771           37754                           CA       BIT2
000133: 20,2772           27503                           ADS      CH6MASK
000134: 20,2773           00002                           TC       Q
000135:
000136: 20,2774           37753        FM5/8              CA       BIT3
000137: 20,2775           27502                           ADS      CH5MASK
000138: 20,2776           37750                           CA       BIT6
000139:
000140: 20,2777           27503                           ADS      CH6MASK
000141: 20,3000           00002                           TC       Q
000142:
000143: 20,3001           37754        FM2/4              CA       BIT2
000144: 20,3002           27502                           ADS      CH5MASK
000145: 20,3003           37747                           CA       BIT7
000146: 20,3004           27503                           ADS      CH6MASK
000147: 20,3005           00002                           TC       Q
000148:
000149: 20,3006     5751               ENDRCSFL           EQUALS   RESUME
000150: 20,3006     5751               NOSTCHG            EQUALS   RESUME

End of include-file RCS_FAILURE_MONITOR.agc.  Parent file is MAIN.agc


