
Source Code


000002:                                                                                                  ## Copyright:   Public domain.
000003:                                                                                                  ## Filename:    RESTART_TABLES_AND_RESTARTS_ROUTINE.agc
000004:                                                                                                  ## Purpose:     A section of Sunburst revision 37, or Shepatin revision 0.
000005:                                                                                                  ##              It is part of an early development version of the software
000006:                                                                                                  ##              for Apollo Guidance Computer (AGC) on the unmanned Lunar
000007:                                                                                                  ##              Module (LM) flight Apollo 5. Sunburst 37 was the program
000008:                                                                                                  ##              upon which Don Eyles's offline development program Shepatin
000009:                                                                                                  ##              was based; the listing herein transcribed was actually for
000010:                                                                                                  ##              the equivalent revision 0 of Shepatin.
000011:                                                                                                  ##              This file is intended to be a faithful transcription, except
000012:                                                                                                  ##              that the code format has been changed to conform to the
000013:                                                                                                  ##              requirements of the yaYUL assembler rather than the
000014:                                                                                                  ##              original YUL assembler.
000015:                                                                                                  ## Reference:   pp. 56-66
000016:                                                                                                  ## Assembler:   yaYUL
000017:                                                                                                  ## Contact:     Ron Burkey <info@sandroid.org>.
000018:                                                                                                  ## Website:     www.ibiblio.org/apollo/index.html
000019:                                                                                                  ## Mod history: 2017-05-24 MAS  Created from Sunburst 120.
000020:                                                                                                  ##              2017-05-28 HG   Transcribed
000021:                                                                                                  ##              2017-06-15 HG   Fix operator CS  -> CA
000022:                                                                                                  ##              2017-06-15 HG   Fix operator -2CADR -> 2CADR
000023:                                                                                                  ##              2017-06-21 RSB  Proofed using octopus/ProoferComments.
000024:


000026:                                                                                                  #  RESTART TABLES
000027:                                                                                                  #   DO NOT REMOVE FROM THE BEGINNING OF THIS BANK
000028:                                                                                                  #  ------------------
000029:
000030:                                                                                                  #  THERE ARE TWO FORMS OF RESTART TABLES FOR EACH GROUP.  THEY ARE KNOWN AS THE EVEN RESTART TABLES AND THE ODD
000031:                                                                                                  #  RESTART TABLES.  THE ODD TABLES HAVE ONLY ONE ENTRY OF THREE LOCATIONS WHILE THE EVEN TABLES HAVE TWO ENTRIES
000032:                                                                                                  #  EACH USING THREE LOCATIONS. THE INFORMATION AS TO WHETHER IT IS A JOB, WAITLIST, OR A LONGCALL IS GIVEN BY THE
000033:                                                                                                  #  WAY THINGS ARE PUT INTO THE TABLES.
000034:                                                                                                  #       A JOB HAS ITS PRIORITY STORED IN PRDTTAB OF THE CORRECT PHASE SPOT WITH ITS 2CADR IN THE CADRTAB. FOR
000035:                                                                                                  #  EXAMPLE,
000036:
000037:                                                                                                  #                                          5.7SPOT  OCT    23000
000038:                                                                                                  #                                                   2CADR  SOMEJOB
000039:
000040:                                                                                                  #  A RESTART OF GROUP 5 WITH PHASE SEVEN WOULD THEN CAUSE SOMEJOB TO BE RESTARTED WITH A PRIORITY OF 23.
000041:
000042:                                                                                                  #  A LONGCALL HAS ITS GENADR OF ITS 2CADR STORED NEGATIVELY AND ITS BBCON STORED POSITIVELY.  IN ITS PRDTTAB IS
000043:                                                                                                  #  PLACED THE LOCATION OF A DP REGISTER THAT CONTAINS THE DELTA TIME THAT LONGCALL HAD BEEN ORIGINALLY STARTED
000044:                                                                                                  #  WITH.  EXAMPLE,
000045:
000046:                                                                                                  #                                          3.6SPOT  GENADR DELTAT
000047:                                                                                                  #                                                  -GENADR LONGTASK
000048:                                                                                                  #                                                   BBCON  LONGTASK
000049:
000050:                                                                                                  #                                                   OCT    31000
000051:                                                                                                  #                                                   2CADR  JOBAGAIN
000052:
000053:                                                                                                  #  THIS WOULD START UP LONGTASK AT THE APPROPRIATE TIME, OR IMMEDIATELY IF THE TIME HAD ALREADY PASSED. IT SHOULD
000054:                                                                                                  #  BE NOTED THAT IF DELTAT IS IN A SWITCHED E BANK, THIS INFORMATOIN SHOULD BE IN THE BBCON OFTHE 2CADR OF THE
000055:                                                                                                  #  TASK.  FROM ABOVE, WE SEE THAT THE SECOND PART OF THIS PHASE WOULD BE STARTED AS A JOB WITH A PRIORITY OF 31.
000056:
000057:                                                                                                  #  WAITLIST CALLS ARE IDENTIFIED BY THE FACT THAT THEIR 2CADR IS STORED NEGATIVELY. IF PRDTTAB OF THE PHASE SPOT
000058:                                                                                                  #  IS POSITIVE, THEN IT CONTAINS THE DELTA TIME, IF PRDTTAB IS NEGATIVE THEN IT IS THE -GENADR OF AN ERASABLE
000059:                                                                                                  #  LOCATION CONTAINING THE DELTA TIME, THAT IS, THE TIME IS STORED INDIRECTLY.  IT SHOULD BE NOTED AS ABOVE, THAT
000060:                                                                                                  #  IF THE TIME IS STORED INDIRECTLY, THE BBCON MUST CONTAIN THE NECESSARY E BANK INFORMATION IF APPLICABLE.  WITH
000061:                                                                                                  #  WAITLIST WE HAVE ONE FURTHER OPTION, IF -0 IS STORED IN PRDTTAB, IT WILL CAUSE AN IMMEDIATE RESTART OF THE
000062:                                                                                                  #  TASK.  EXAMPLES,
000063:
000064:                                                                                                  #                                                   OCT    77777           THIS WILL CAUSE AN IMMEDIATE RESTART
000065:                                                                                                  #                                                  -2CADR  ATASK           OF THE TASK :ATASK:
000066:
000067:                                                                                                  #                                                   DEC    200             IF THE TIME OF THE 2 SECONDS SINCE DUMMY
000068:                                                                                                  #                                                  -2CADR  DUMMY           WAS PUT ON WAITLIST IS UP, IT WILL BEGIN
000069:                                                                                                  #                                                                          IN 10 MS, OTHERWISE IT WILL BEGIN WHEN
000070:
000071:                                                                                                  #                                                                          IT NORMALLY WOULD HAVE BEGUN.
000072:
000073:                                                                                                  #                                                  -GENADR DTIME           WHERE DTIME CONTAINS THE DELTA TIME
000074:                                                                                                  #                                                  -2CADR  TASKTASK        OTHERWISE THIS IS AS ABOVE
000075:
000076:                                                                                                  #  *****    NOW THE TABLES THEMSELVES *****
000077:


000079:
000080:    4064                        PRDTTAB            EQUALS   24000                                 #  USED TO FIND THE PRIORITY OR DELTA TIME
000081:    4064                        CADRTAB            EQUALS   24001                                 #  THIS AND THE NEXT LOCATION (RELATIVE)
000082:
000083:                                                                                                  #      CONTAIN THE RESTART CADR
000084:
000085: 06,2000                                           BANK     06
000086:
000087: 06,2000  E3,1400                                  EBANK=   LST1                                  #  GOPROG MUST SWITCH IN THIS EBANK
000088:
000089: 06,2000           02360        PHS2CADR           GENADR   PHSPART2                              #  DO NOT REMOVE THE FOLLOWING 6 LOCATIONS
000090: 06,2001           02147        PRT2CADR           GENADR   GETPART2                              #      FROM BEGINNING OF BANK
000091: 06,2002           05757        LGCLCADR           GENADR   LONGCALL
000092: 06,2003           05534        FVACCADR           GENADR   FINDVAC
000093: 06,2004           05701        WTLTCADR           GENADR   WAITLIST
000094: 06,2005           05237        RTRNCADR           TC       SWRETURN
000095:
000096: 06,2006           10000        1.2SPOT            OCT      10000                                 #  TEMPORARY ENTRY TO ESTABLISH TABLE
000097: 06,2007  E3,1400                                  EBANK=   LST1
000098: 06,2007           05614 04003                     2CADR    DUMMYJOB
000099:
000100: 06,2011           10000                           OCT      10000
000101: 06,2012  E3,1400                                  EBANK=   LST1
000102: 06,2012           05614 04003                     2CADR    DUMMYJOB
000103:                                                                                                  #  ANY MORE GROUP 1.EVEN RESTART VALUES SHOULD GO HERE
000104:
000105: 06,2014  06,2006               1.3SPOT            EQUALS   1.2SPOT
000106:
000107:                                                                                                  #  ANY MORE GROUP 1.ODD RESTART VALUES SHOULD GO HERE
000108:
000109: 06,2014  06,2006               2.2SPOT            EQUALS   1.2SPOT
000110:
000111:                                                                                                  #  ANY MORE GROUP 2.EVEN RESTART VALUES SHOULD GO HERE
000112:
000113: 06,2014           77777        2.3SPOT            OCT      77777                                 #  MISSION SCHEDULING PACKAGE TO SET UP
000114: 06,2015  E3,1400                                  EBANK=   LST1
000115: 06,2015           75621 15714                     -2CADR   REDOMDUE
000116:
000117: 06,2017           12574        2.5SPOT            DEC      5500       B-14
000118: 06,2020  E4,1566                                  EBANK=   TDEC
000119: 06,2020           75146 25773                     -2CADR   SIVB2
000120:
000121: 06,2022           77777        2.7SPOT            OCT      77777
000122: 06,2023  E4,1566                                  EBANK=   TDEC
000123: 06,2023           75621 25773                     -2CADR   SBORBA
000124:
000125: 06,2025           00620        2.11SPOT           DEC      400        B-14
000126: 06,2026  E4,1566                                  EBANK=   TDEC
000127: 06,2026           75506 25773                     -2CADR   SBORB8
000128:
000129:                                                                                                  #  ANY MORE GROUP 2.0DD RESTART VALUES SHOULD GO HERE
000130:


000132: 06,2030  06,2006               3.2SPOT            EQUALS   1.2SPOT
000133:                                                                                                  #  ANY MORE GROUP 3.EVEN RESTART VALUES SHOULD GO HERE
000134:
000135: 06,2030  06,2006               3.3SPOT            EQUALS   1.2SPOT
000136:                                                                                                  #  ANY MORE GROUP 3.0DD RESTART VALUES SHOULD GO HERE
000137:
000138: 06,2030  06,2006               4.2SPOT            EQUALS   1.2SPOT
000139:
000140:                                                                                                  #  ANY MORE GROUP 4.EVEN RESTART VALUES SHOULD GO HERE
000141:
000142: 06,2030  06,2006               4.3SPOT            EQUALS   1.2SPOT
000143:                                                                                                  #  ANY MORE GROUP 4.0DD RESTART VALUES SHOULD GO HERE
000144:
000145: 06,2030           21000        5.2SPOT            OCT      21000
000146: 06,2031  E4,1514                                  EBANK=   RAVEGON
000147: 06,2031           02317 60064                     2CADR    NORMLIZE
000148:
000149: 06,2033           00310                           DEC      200        B-14
000150: 06,2034  E5,1511                                  EBANK=   DVCNTR
000151: 06,2034           75211 17712                     -2CADR   REREADAC
000152:
000153: 06,2036           00310        5.4SPOT            DEC      200        B-14
000154: 06,2037  E5,1570                                  EBANK=   BMEMORY
000155: 06,2037           75777 17712                     -2CADR   PREREAD
000156:
000157: 06,2041           32000                           OCT      32000
000158: 06,2042  E3,1400                                  EBANK=   LST1
000159: 06,2042           03571 24003                     2CADR    LASTBIAS
000160:
000161: 06,2044           00310        5.6SPOT            DEC      200        B-14
000162: 06,2045  E5,1511                                  EBANK=   DVCNTR
000163: 06,2045           75211 17712                     -2CADR   REREADAC
000164:
000165: 06,2047           20000                           OCT      20000
000166: 06,2050  E5,1511                                  EBANK=   DVCNTR
000167: 06,2050           02115 60065                     2CADR    SERVICER
000168:                                                                                                  #  ANY MORE GROUP 5.EVEN RESTART VALUES SHOULD GO HERE
000169:
000170: 06,2052           00310        5.3SPOT            DEC      200        B-14
000171: 06,2053  E5,1511                                  EBANK=   DVCNTR
000172: 06,2053           75211 17712                     -2CADR   REREADAC
000173:
000174: 06,2055           77777        5.5SPOT            OCT      77777                                 #  REPLACES INACTIVE 5.0 FOR FAKESTRT
000175: 06,2056     1167                                  EBANK=   MTIMER4                               #  * * * REMOVE IF RESTARTS RETURN * * *
000176: 06,2056           75227 75775                     -2CADR   POOH2
000177:
000178: 06,2060           20000        5.7SPOT            OCT      20000
000179: 06,2061  E5,1400                                  EBANK=   XSM
000180: 06,2061           02016 72065                     2CADR    RSTGTS1
000181:


000183: 06,2063           77777        5.11SPOT           OCT      77777
000184: 06,2064  E5,1400                                  EBANK=   XSM
000185: 06,2064           75707 05712                     -2CADR   ALLOOP1
000186:
000187: 06,2066           20000        5.13SPOT           OCT      20000
000188: 06,2067  E5,1400                                  EBANK=   XSM
000189: 06,2067           02752 72065                     2CADR    WTLISTNT
000190:
000191: 06,2071           20000        5.15SPOT           OCT      20000
000192: 06,2072  E5,1400                                  EBANK=   XSM
000193: 06,2072           02637 72065                     2CADR    RESTEST1
000194:
000195: 06,2074           20000        5.17SPOT           OCT      20000
000196: 06,2075  E5,1400                                  EBANK=   XSM
000197:
000198: 06,2075           02730 72065                     2CADR    GEOSTRT4
000199:
000200: 06,2077           20000        5.21SPOT           OCT      20000
000201: 06,2100  E5,1400                                  EBANK=   XSM
000202: 06,2100           02140 72065                     2CADR    ALFLT1
000203:
000204: 06,2102           77777        5.23SPOT           OCT      77777
000205: 06,2103  E5,1400                                  EBANK=   XSM
000206: 06,2103           75656 05712                     -2CADR   SPECSTS
000207:
000208: 06,2105           20000        5.25SPOT           OCT      20000
000209: 06,2106  E5,1400                                  EBANK=   XSM
000210: 06,2106           02652 72065                     2CADR    RESTEST3
000211:
000212: 06,2110           20000        5.27SPOT           OCT      20000
000213: 06,2111  E5,1400                                  EBANK=   XSM
000214: 06,2111           02615 72065                     2CADR    RESTAIER
000215:
000216: 06,2113           77777        5.31SPOT           OCT      77777
000217: 06,2114  E5,1400                                  EBANK=   XSM
000218: 06,2114           75666 05712                     -2CADR   PIPSTRTS
000219:                                                                                                  #  ANY MORE GROUP 5.ODD RESTART VALUES SHOULD GO HERE
000220:
000221: 06,2116  06,2006               6.2SPOT            EQUALS   1.2SPOT
000222:                                                                                                  #  ANY MORE GROUP 6.EVEN RESTART VALUES SHOULD GO HERE
000223:
000224: 06,2116  06,2006               6.3SPOT            EQUALS   1.2SPOT
000225:                                                                                                  #  ANY MORE GROUP 6.0DD RESTART VALUES SHOULD GO HERE
000226:
000227: 06,2116           00000        SIZETAB            GENADR   1.2SPOT    -24006
000228: 06,2117           00002                           GENADR   1.3SPOT    -24004
000229: 06,2120           00000                           GENADR   2.2SPOT    -24006
000230: 06,2121           00010                           GENADR   2.3SPOT    -24004
000231: 06,2122           00000                           GENADR   3.2SPOT    -24006
000232: 06,2123           00002                           GENADR   3.3SPOT    -24004
000233:


000235: 06,2124           00000                           GENADR   4.2SPOT    -24006
000236: 06,2125           00002                           GENADR   4.3SPOT    -24004
000237: 06,2126           00022                           GENADR   5.2SPOT    -24006
000238: 06,2127           00046                           GENADR   5.3SPOT    -24004
000239: 06,2130           00000                           GENADR   6.2SPOT    -24006
000240: 06,2131           00002                           GENADR   6.3SPOT    -24004
000241:


000243: 06,2132           30151        RESTARTS           CA       MPAC       +5                         #  GET GROUP NUMBER -1
000244:
000245: 06,2133           60000                           DOUBLE                                         #  SAVE FOR INDEXING
000246: 06,2134           54145                           TS       TEMP2G
000247:
000248: 06,2135           32003                           CA       FVACCADR                              #  LET:S ASSUME THIS IS A JOB, THIS WILL
000249: 06,2136           54110                           TS       GOLOC      -1                         #  SAVE US A COUPLE OF LOCATIONS, BUT NOT
000250:                                                                                                  #  NECESSARIALY ANY TIME  - SO BE IT -
000251:
000252: 06,2137           32000                           CA       PHS2CADR                              #  SET UP EXIT IN CASE IT IS AN EVEN
000253: 06,2140           54147                           TS       TEMPSWCH                              #  TABLE PHASE
000254:
000255: 06,2141           32005                           CA       RTRNCADR                              #  TO SAVE TIME ASSUME IT WILL GET NEXT
000256: 06,2142           54113                           TS       GOLOC      +2                         #  GROUP AFTER THIS
000257:
000258: 06,2143           30144                           CA       TEMPPHS
000259: 06,2144           75370                           MASK     OCT1400
000260: 06,2145           10000                           CCS      A                                     #  IS IT A VARIABLE OR TABLE RESTART
000261: 06,2146           12157                           TCF      ITSAVAR                               #  IT;S A VARIABLE RESTART
000262:
000263: 06,2147           10144        GETPART2           CCS      TEMPPHS                               #  IS IT AN X.1 RESTART
000264: 06,2150           10000                           CCS      A
000265: 06,2151           12246                           TCF      ITSATBL                               #  NO, ITS A TABLE RESTART
000266:
000267: 06,2152           35656                           CA       PRIO14                                #  IT IS AN X.1 RESTART, THEREFORE START
000268:
000269: 06,2153           05534                           TC       FINDVAC                               #  THE DISPLAY RESTART JOB
000270: 06,2154  E3,1400                                  EBANK=   LST1
000271: 06,2154           05605 04003                     2CADR    INITDSP
000272:
000273: 06,2156           02005                           TC       RTRNCADR                              #  FINISHED WITH THIS GROUP, GET NEXT ONE
000274:
000275: 06,2157     5605               INITDSP            EQUALS   ENDOFJOB
000276:
000277: 06,2157           77744        ITSAVAR            MASK     BIT10                                 #  SEE IF IT IS TYPE B
000278: 06,2160           10000                           CCS      A
000279: 06,2161           12230                           TCF      ITSLIKEB                              #  YES,IT IS TYPE B
000280:
000281: 06,2162           00006                           EXTEND                                         #  STORE THE JOB (OR TASK) 2CADR FOR EXIT
000282: 06,2163           50145                           NDX      TEMP2G
000283: 06,2164           31517                           DCA      PHSNAME1
000284: 06,2165           52112                           DXCH     GOLOC
000285:
000286: 06,2166           30144                           CA       TEMPPHS                               #  SEE IF THIS IS A JOB, TASK, OR A LONGCAL
000287: 06,2167           77757                           MASK     OCT7
000288: 06,2170           65355                           AD       MINUS2
000289: 06,2171           10000                           CCS      A
000290: 06,2172           12331                           TCF      ITSLNGCL                              #  ITS A LONGCALL
000291:
000292: 06,2173           37776        OCT37776           OCT      37776                                 #  CANT GET HERE
000293:


000295: 06,2174           12176                           TCF      ITSAWAIT
000296:
000297: 06,2175           12243                           TCF      ITSAJOB                               #  ITS A JOB
000298:
000299: 06,2176           32004        ITSAWAIT           CA       WTLTCADR                              #  SET UP WAITLIST CALL
000300: 06,2177           54110                           TS       GOLOC      -1
000301:
000302: 06,2200           50145                           NDX      TEMP2G                                #  DIRECTLY STORED
000303:
000304: 06,2201           31114                           CA       PHSPRDT1
000305: 06,2202           10000        TIMETEST           CCS      A                                     #  IS IT AN IMMEDIATE RESTART
000306: 06,2203           24000                           INCR     A                                     #  NO.
000307: 06,2204           12207                           TCF      FINDTIME                              #  FIND OUT WHEN IT SHOULD BEGIN
000308:
000309: 06,2205           14064                           TCF      ITSINDIR                              #  STORED INDIRECTLY
000310:
000311: 06,2206           12226                           TCF      IMEDIATE                              #  IT WANTS AN IMMEDIATE RESTART
000312:
000313:                                                                                                  #  ***** THIS MUST BE IN FIXED FIXED *****
000314:
000315:    4064                                           BLOCK    02
000316:    4064           22112        ITSINDIR           LXCH     GOLOC      +1                         #  GET THE CORRECT E BANK IN CASE THIS IS
000317:    4065           22006                           LXCH     BB                                    #  SWITCHED ERRASIBLE
000318:
000319:    4066           50000                           NDX      A                                     #  GET THE TIME INDIRECTLY
000320:    4067           30001                           CA       1
000321:
000322:    4070           22006                           LXCH     BB                                    #  RESTORE THE BB AND GOLOC
000323:    4071           22112                           LXCH     GOLOC      +1
000324:
000325:    4072           12207                           TCF      FINDTIME                              #  FIND OUT WHEN IT SHOULD BEGIN
000326:
000327:                                                                                                  #  ***** YOUB MAY RETURN TO SWITCHED FIXED *****
000328:
000329: 06,2207                                           BANK     06
000330: 06,2207           40000        FINDTIME           COM                                            #  MAKE NEGITIVE SINCE IT WILL BE SUBTRACTD
000331: 06,2210           54001                           TS       L                                     #  AND SAVE
000332: 06,2211           50145                           NDX      TEMP2G
000333: 06,2212           41113                           CS       TBASE1
000334: 06,2213           00006                           EXTEND
000335: 06,2214           60025                           SU       TIME1
000336: 06,2215           10000                           CCS      A
000337: 06,2216           40000                           COM
000338: 06,2217           62173                           AD       OCT37776
000339: 06,2220           67755                           AD       ONE
000340: 06,2221           60001                           AD       L
000341: 06,2222           10000                           CCS      A
000342: 06,2223           37761                           CA       ZERO
000343: 06,2224           12226                           TCF      +2
000344: 06,2225           12226                           TCF      +1
000345: 06,2226           67755        IMEDIATE           AD       ONE
000346:


000348: 06,2227           00110                           TC       GOLOC      -1
000349: 06,2230           32005        ITSLIKEB           CA       RTRNCADR                              #  TYPE B,             SO STORE RETURN IN
000350: 06,2231           54147                           TS       TEMPSWCH                              #  TEMPSWCH IN CASE OF AN EVEN PHASE
000351:
000352: 06,2232           32001                           CA       PRT2CADR                              #  SET UP EXIT TO GET TABLE PART OF THIS
000353: 06,2233           54113                           TS       GOLOC      +2                         #  VARIABLE TYPE OF PHASE
000354:
000355: 06,2234           30144                           CA       TEMPPHS                               #  MAKE THE PHASE LOOK RIGHT FOR THE TABLE
000356: 06,2235           76130                           MASK     OCT177                                #  PART OF THIS VARIABLE PHASE
000357: 06,2236           54144                           TS       TEMPPHS
000358:
000359: 06,2237           00006                           EXTEND
000360: 06,2240           50145                           NDX      TEMP2G                                #  OBTAIN THE JOB:S 2CADR
000361: 06,2241           31517                           DCA      PHSNAME1
000362:
000363: 06,2242           52112                           DXCH     GOLOC
000364:
000365: 06,2243           50145        ITSAJOB            NDX      TEMP2G                                #  NOW ADD THE PRIORITY AND LET:S GO
000366: 06,2244           31114                           CA       PHSPRDT1
000367: 06,2245           00110                           TC       GOLOC      -1
000368:
000369: 06,2246           54020        ITSATBL            TS       CYR                                   #  FIND OUT IF THE PHASE IS ODD OR EVEN
000370: 06,2247           10020                           CCS      CYR
000371: 06,2250           12251                           TCF      +1                                    #  IT:S EVEN
000372: 06,2251           12347                           TCF      ITSEVEN
000373:
000374: 06,2252           32005                           CA       RTRNCADR                              #  IN CASE THIS IS THE SECOND PART OF A
000375: 06,2253           54113                           TS       GOLOC      +2                         #  TYPE B RESTART, WE NEED PROPER EXIT
000376:
000377: 06,2254           30144                           CA       TEMPPHS                               #  SET UP POINTER FOR FINDING OUR PLACE IN
000378: 06,2255           54021                           TS       SR                                    #  THE RESTART TABLES
000379: 06,2256           60021                           AD       SR
000380: 06,2257           50145                           NDX      TEMP2G
000381: 06,2260           62117                           AD       SIZETAB    +1
000382: 06,2261           54146                           TS       POINTER
000383:
000384: 06,2262           00006        CONTBL2            EXTEND                                         #  FIND OUT WHAT:S IN THE TABLE
000385: 06,2263           50146                           NDX      POINTER
000386:
000387: 06,2264           32002                           DCA      CADRTAB                               #  GET THE 2CADR
000388:
000389: 06,2265           22112                           LXCH     GOLOC      +1                         #  STORE THE BB INFORMATION
000390:
000391: 06,2266           10000                           CCS      A                                     #  IS IT A JOB OR IS IT TIMED
000392: 06,2267           24000                           INCR     A                                     #  POSITIVE, MUST BE A JOB
000393: 06,2270           12343                           TCF      ITSAJOB2
000394:
000395: 06,2271           24000                           INCR     A                                     #  MUST BE EITHER A WAITLIST OR LONGCALL
000396: 06,2272           54111                           TS       GOLOC                                 #  LET-S STORE THE CORRECT CADR
000397:
000398: 06,2273           32004                           CA       WTLTCADR                              #  SET UP OUR EXIT TO WAITLIST
000399: 06,2274           54110                           TS       GOLOC      -1
000400:


000402: 06,2275           30112                           CA       GOLOC      +1                         #  NOW FIND OUT IF IT IS A WAITLIST CALL
000403: 06,2276           77744                           MASK     BIT10                                 #  THIS SHOULD BE ONE IF WE HAVE -BB
000404: 06,2277           10000                           CCS      A                                     #  FOR THAT MATTER SO SHOULD BE BITS 9,8,7,
000405:                                                                                                  #  6,5, AND LAST BUT NOT LEAST (PERHAPS NOT
000406:                                                                                                  #  IN IMPORTANCE ANYWAY. BIT 4
000407: 06,2300           12336                           TCF      ITSWTLST                              #  IT IS A WAITLIST CALL
000408:
000409: 06,2301           50146                           NDX      POINTER                               #  OBTAIN THE ORIGINAL DELTA T
000410: 06,2302           32000                           CA       PRDTTAB                               #  ADDRESS FOR THIS LONGCALL
000411:
000412: 06,2303           14073                           TCF      ITSLGCL1                              #  NOW GO GET THE DELTA TIME
000413:
000414:                                                                                                  #  ***** THIS MUST BE IN FIXED FIXED *****
000415:
000416:    4073                                           BLOCK    02
000417:    4073           22112        ITSLGCL1           LXCH     GOLOC      +1                         #  OBTAIN THE CORRECT E BANK
000418:    4074           22006                           LXCH     BB
000419:    4075           22112                           LXCH     GOLOC      +1                         #  AND PRESERVE OUR E AND F BANKS
000420:
000421:    4076           00006                           EXTEND                                         #  GET THE DELTA TIME
000422:    4077           50000                           NDX      A
000423:    4100           30001                           DCA      0
000424:
000425:    4101           22112                           LXCH     GOLOC      +1                         #  RESTORE OUR E AND F BANK
000426:    4102           22006                           LXCH     BB                                    #  RESTORE THE TASKS E AND F BANKS
000427:    4103           22112                           LXCH     GOLOC      +1                         #  AND PRESERVE OUR L
000428:
000429:    4104           12304                           TCF      ITSLGCL2                              #  NOW LET:S PROCESS THIS LONGCALL
000430:
000431:                                                                                                  #  ***** YOUB MAY RETURN TO SWITCHED FIXED *****
000432:
000433: 06,2304                                           BANK     06
000434: 06,2304           53153        ITSLGCL2           DXCH     LONGTIME
000435:
000436: 06,2305           00006                           EXTEND                                         #  CALCULATE TIME LEFT
000437: 06,2306           40025                           DCS      TIME2
000438: 06,2307           21153                           DAS      LONGTIME
000439: 06,2310           00006                           EXTEND
000440: 06,2311           31433                           DCA      LONGBASE
000441: 06,2312           21153                           DAS      LONGTIME
000442:
000443: 06,2313           11152                           CCS      LONGTIME                              #  FIND OUT HOW THIS SHOULD BE RESTARTED
000444: 06,2314           12324                           TCF      LONGCLCL
000445:
000446: 06,2315           12317                           TCF      +2
000447: 06,2316           12223                           TCF      IMEDIATE   -3
000448: 06,2317           11153                           CCS      LONGTIME   +1
000449: 06,2320           12324                           TCF      LONGCLCL
000450: 06,2321           12322                           NOOP                                           #  CAN:T GET HERE    *********
000451: 06,2322           12223                           TCF      IMEDIATE   -3
000452: 06,2323           12226                           TCF      IMEDIATE
000453:


000455: 06,2324           32002        LONGCLCL           CA       LGCLCADR                              #  WE WILL GO TO LONGCALL
000456: 06,2325           54110                           TS       GOLOC      -1
000457:
000458: 06,2326           00006                           EXTEND                                         #  PREPARE OUR ENTRY TO LONGCALL
000459: 06,2327           31153                           DCA      LONGTIME
000460: 06,2330           00110                           TC       GOLOC      -1
000461:
000462: 06,2331           32004        ITSLNGCL           CA       WTLTCADR                              #  ASSUME IT WILL GO TO WAITLIST
000463: 06,2332           54110                           TS       GOLOC      -1
000464:
000465: 06,2333           50145                           NDX      TEMP2G
000466: 06,2334           31114                           CA       PHSPRDT1                              #  GET THE DELTA T ADDRESS
000467:
000468: 06,2335           14073                           TCF      ITSLGCL1                              #  NOW GET THE DELTA TIME
000469:
000470: 06,2336           40112        ITSWTLST           CS       GOLOC      +1                         #  CORRECT THE BBCON INFORMATION
000471: 06,2337           54112                           TS       GOLOC      +1
000472:
000473: 06,2340           50146                           NDX      POINTER                               #  GET THE DT AND FIND OUT IF IT WAS STORED
000474: 06,2341           32000                           CA       PRDTTAB                               #  DIRECTLY OR INDIRECTLY
000475:
000476: 06,2342           12202                           TCF      TIMETEST                              #  FIND OUT HOW THE TIME IS STORED
000477:
000478: 06,2343           56111        ITSAJOB2           XCH      GOLOC                                 #  STORE THE CADR
000479:
000480: 06,2344           50146                           NDX      POINTER                               #  ADD THE PRIORITY AND LET:S GO
000481: 06,2345           32000                           CA       PRDTTAB
000482:
000483: 06,2346           00110                           TC       GOLOC      -1
000484:
000485: 06,2347           30147        ITSEVEN            CA       TEMPSWCH                              #  SET UP FOR EITHER THE SECOND PART OF THE
000486: 06,2350           54113                           TS       GOLOC      +2                         #  TABLE, OR A RETURN FOR THE NEXT GROUP
000487:
000488: 06,2351           50145                           NDX      TEMP2G                                #  SET UP POINTER FOR OUR LOCATION WITHIN
000489: 06,2352           32116                           CA       SIZETAB                               #  THE TABLE
000490: 06,2353           60144                           AD       TEMPPHS                               #  THIS MAY LOOK BAD BUT LET:S SEE YOU DO
000491: 06,2354           60144                           AD       TEMPPHS                               #  BETTER IN TIME OR NUMBERR OF LOCATIONS
000492:
000493: 06,2355           60144                           AD       TEMPPHS
000494: 06,2356           54146                           TS       POINTER
000495:
000496: 06,2357           12262                           TCF      CONTBL2                               #  NOW PROCESS WHAT IS IN THE TABLE
000497:
000498: 06,2360           36301        PHSPART2           CA       THREE                                 #  SET THE POINTER FOR THE SECOND HALF OF
000499: 06,2361           26146                           ADS      POINTER                               #  THE TABLE
000500:
000501: 06,2362           32005                           CA       RTRNCADR                              #  THIS WILL BE OUR LAST TIME THROUGH THE
000502: 06,2363           54113                           TS       GOLOC      +2                         #  EVEN TABLE , SO AFTER IT  GET THE NEXT
000503:                                                                                                  #  GROUP
000504: 06,2364           12262                           TCF      CONTBL2                               #  SO LET:S GET THE SECOND ENTRY IN THE TBL
000505:


000507: 06,2365     0144               TEMPPHS            EQUALS   MPAC
000508: 06,2365     0145               TEMP2G             EQUALS   MPAC       +1
000509: 06,2365     0146               POINTER            EQUALS   MPAC       +2
000510: 06,2365     0147               TEMPSWCH           EQUALS   MPAC       +3
000511: 06,2365     0111               GOLOC              EQUALS   OVFIND
000512: 06,2365     5355               MINUS2             EQUALS   NEG2
000513: 06,2365     6130               OCT177             EQUALS   LOW7

End of include-file RESTART_TABLES_AND_RESTARTS_ROUTINE.agc.  Parent file is MAIN.agc


