
Source Code


000002:                                                                                                  ## Copyright:   Public domain.
000003:                                                                                                  ## Filename:    RTB_OP_CODES.agc
000004:                                                                                                  ## Purpose:     A section of Sunburst revision 37, or Shepatin revision 0.
000005:                                                                                                  ##              It is part of an early development version of the software
000006:                                                                                                  ##              for Apollo Guidance Computer (AGC) on the unmanned Lunar
000007:                                                                                                  ##              Module (LM) flight Apollo 5. Sunburst 37 was the program
000008:                                                                                                  ##              upon which Don Eyles's offline development program Shepatin
000009:                                                                                                  ##              was based; the listing herein transcribed was actually for
000010:                                                                                                  ##              the equivalent revision 0 of Shepatin.
000011:                                                                                                  ##              This file is intended to be a faithful transcription, except
000012:                                                                                                  ##              that the code format has been changed to conform to the
000013:                                                                                                  ##              requirements of the yaYUL assembler rather than the
000014:                                                                                                  ##              original YUL assembler.
000015:                                                                                                  ## Reference:   pp. 342-347
000016:                                                                                                  ## Assembler:   yaYUL
000017:                                                                                                  ## Contact:     Ron Burkey <info@sandroid.org>.
000018:                                                                                                  ## Website:     www.ibiblio.org/apollo/index.html
000019:                                                                                                  ## Mod history: 2017-05-24 MAS  Created from Sunburst 120.
000020:                                                                                                  ##              2017-06-06 HG   Transcribed
000021:                                                                                                  ##              2017-06-22 RSB  Proofed comment text with
000022:                                                                                                  ##                              octopus/ProoferComments.
000023:


000025: 15,3521                                           BANK     15
000026:                                                                                                  #           LOAD TIME2, TIME1 INTO MPAC:
000027:
000028: 15,3521           00006        LOADTIME           EXTEND
000029: 15,3522           30025                           DCA      TIME2
000030: 15,3523           16533                           TCF      SLOAD2
000031:
000032:                                                                                                  #           CONVERT THE SINGLE PRECISION 2'S COMPLEMENT NUMBER ARRIVING IN MPAC (SCALED IN HALF-REVOLUTIONS) TO A
000033:                                                                                                  #  DP 1'S COMPLEMENT NUMBER SCALED IN REVOLUTIONS.
000034:
000035: 15,3524           10144        CDULOGIC           CCS      MPAC
000036: 15,3525           37761                           CAF      ZERO
000037: 15,3526           13531                           TCF      +3
000038: 15,3527           13530                           NOOP
000039: 15,3530           47740                           CS       HALF
000040:
000041: 15,3531           54145                           TS       MPAC       +1
000042: 15,3532           37761                           CAF      ZERO
000043: 15,3533           56144                           XCH      MPAC
000044: 15,3534           00006                           EXTEND
000045: 15,3535           77740                           MP       HALF
000046: 15,3536           20145                           DAS      MPAC
000047: 15,3537           16535                           TCF      SLOAD2     +2                         #  C(A) = +0.
000048:
000049:                                                                                                  #           READ IMU CDUS INTO MPAC AS A VECTOR. ESPECIALLY USEFUL IN CONNECTION WITH SMNB, ETC.
000050:
000051: 15,3540           00004        READCDUS           INHINT
000052: 15,3541           30033                           CA       CDUY                                  #  IN ORDER Y Z X
000053: 15,3542           54144                           TS       MPAC
000054: 15,3543           30034                           CA       CDUZ
000055: 15,3544           54147                           TS       MPAC       +3
000056: 15,3545           30032                           CA       CDUX
000057: 15,3546           13555                           TCF      READPIPS   +6                         #  COMMON CODING.
000058:
000059:                                                                                                  #           READ THE PIPS INTO MPAC WITHOUT CHANGING THEM:
000060:
000061: 15,3547           00004        READPIPS           INHINT
000062:
000063: 15,3550           30037                           CA       PIPAX
000064: 15,3551           54144                           TS       MPAC
000065: 15,3552           30040                           CA       PIPAY
000066: 15,3553           54147                           TS       MPAC       +3
000067: 15,3554           30041                           CA       PIPAZ
000068: 15,3555           00003                           RELINT
000069: 15,3556           54151                           TS       MPAC       +5
000070:
000071: 15,3557           37761                           CAF      ZERO
000072: 15,3560           54145                           TS       MPAC       +1
000073: 15,3561           54150                           TS       MPAC       +4
000074: 15,3562           54152                           TS       MPAC       +6
000075:


000077: 15,3563           47755        VECMODE            CS       ONE
000078: 15,3564           16114                           TCF      NEWMODE
000079:
000080:                                                                                                  #           FORCE TP SIGN AGREEMENT IN MPAC:
000081:
000082: 15,3565           07320        SGNAGREE           TC       TPAGREE
000083: 15,3566           16115                           TCF      DANZIG
000084:
000085:                                                                                                  #           CONVERT THE DP 1'S COMPLEMENT ANGLE SCALED IN REVOLUTIONS TO A SINGLE PRECISION 2'S COMPLEMENT ANGLE
000086:                                                                                                  #  SCALED IN HALF-REVOLUTIONS.
000087:
000088: 15,3567           03617        1STO2S             TC       1TO2SUB
000089: 15,3570           37761                           CAF      ZERO
000090: 15,3571           54145                           TS       MPAC       +1
000091: 15,3572           16114                           TCF      NEWMODE
000092:
000093:                                                                                                  #           DO 1STO2S ON A VECTOR OF ANGLES:
000094:
000095: 15,3573           03617        V1STO2S            TC       1TO2SUB                               #  ANSWER ARRIVES IN A AND MPAC.
000096:
000097: 15,3574           52152                           DXCH     MPAC       +5
000098: 15,3575           52145                           DXCH     MPAC
000099: 15,3576           03617                           TC       1TO2SUB
000100: 15,3577           54146                           TS       MPAC       +2
000101:
000102: 15,3600           52150                           DXCH     MPAC       +3
000103: 15,3601           52145                           DXCH     MPAC
000104: 15,3602           03617                           TC       1TO2SUB
000105: 15,3603           54145                           TS       MPAC       +1
000106:
000107: 15,3604           30151                           CA       MPAC       +5
000108: 15,3605           54144                           TS       MPAC
000109:
000110: 15,3606           37755        TPMODE             CAF      ONE                                   #  MODE IS TP.
000111: 15,3607           16114                           TCF      NEWMODE
000112:
000113:                                                                                                  #           V1STO2S FOR 2 COMPONENT VECTOR, USED BY RR.
000114:
000115: 15,3610           03617        2V1STO2S           TC       1TO2SUB
000116: 15,3611           52150                           DXCH     MPAC       +3
000117: 15,3612           52145                           DXCH     MPAC
000118: 15,3613           03617                           TC       1TO2SUB
000119: 15,3614           54001                           TS       L
000120:
000121: 15,3615           30147                           CA       MPAC       +3
000122: 15,3616           16533                           TCF      SLOAD2
000123:
000124:                                                                                                  #           SUBROUTINE TO DO DOUBLING AND 1'S TO 2'S COMVERSION:
000125:
000126: 15,3617           52145        1TO2SUB            DXCH     MPAC                                  #  FINAL MPAC +1 UNSPECIFIED.
000127: 15,3620           20001                           DDOUBL
000128:


000130: 15,3621           10000                           CCS      A
000131: 15,3622           67755                           AD       ONE
000132:
000133: 15,3623           13625                           TCF      +2
000134: 15,3624           40000                           COM                                            #  THIS WAS REVERSE OF MSU.
000135:
000136: 15,3625           54144                           TS       MPAC                                  #  AND SKIP ON OVERFLOW.
000137: 15,3626           00002                           TC       Q
000138:
000139: 15,3627           50000                           INDEX    A                                     #  OVERFLOW UNCORRECT AND IN MSU.
000140: 15,3630           37736                           CAF      LIMITS
000141: 15,3631           26144                           ADS      MPAC
000142: 15,3632           00002                           TC       Q
000143:


000145:                                                                                                  #           SUBROUTINE TO INCREMENT CDUS
000146: 15,3633           33646        INCRCDUS           CAF      LOCTHETA
000147: 15,3634           54120                           TS       BUF                                   #  PLACE ADRES(THETA) IN BUF.
000148: 15,3635           30144                           CAE      MPAC                                  #  INCREMENT IN 1S COMPL.
000149: 15,3636           03647                           TC       CDUINC
000150:
000151: 15,3637           24120                           INCR     BUF
000152: 15,3640           30147                           CAE      MPAC       +3
000153:
000154: 15,3641           03647                           TC       CDUINC
000155:
000156: 15,3642           24120                           INCR     BUF
000157: 15,3643           30151                           CAE      MPAC       +5
000158: 15,3644           03647                           TC       CDUINC
000159:
000160: 15,3645           13563                           TCF      VECMODE
000161:
000162: 15,3646           00400        LOCTHETA           ADRES    THETAD
000163:
000164:                                                                                                  #           THE FOLLOWING ROUTINE INCREMENTS IN 2S COMPLEMENT THE REGISTER WHOSE ADDRESS IS IN BUF BY THE 1S COMPL.
000165:                                                                                                  #  QUANTITY FOUND IN TEM2. THIS MAY BE USED TO INCREMENT DESIRED IMU AND OPTICS CDU ANGLES OR ANY OTHER 2S COMPL.
000166:                                                                                                  #  (+0 UNEQUAL TO -0) QUANTITY. MAY BE CALLED BY BANKCALL/SWCALL.
000167:
000168: 15,3647           54132        CDUINC             TS       TEM2                                  #  1S COMPL.QUANT. ARRIVES IN ACC. STORE IT
000169: 15,3650           50120                           INDEX    BUF
000170: 15,3651           10000                           CCS      0                                     #  CHANGE 2S COMPL. ANGLE(IN BUF)INTO 1S
000171: 15,3652           67755                           AD       ONE
000172: 15,3653           13657                           TCF      +4
000173: 15,3654           67755                           AD       ONE
000174: 15,3655           67755                           AD       ONE                                   #  OVERFLOW HERE IF 2S COMPL. IS 180 DEG.
000175: 15,3656           40000                           COM
000176:
000177: 15,3657           60132                           AD       TEM2                                  #  ADD IN INCREMENT. WILL OVERFLOW IF RE-
000178:                                                                                                  #  SULT MOVES FROM 2ND TO 3D QUAD.(OR BACK)
000179: 15,3660           10000                           CCS      A                                     #  BACK TO 2S COMPL.
000180: 15,3661           67755                           AD       ONE
000181: 15,3662           13664                           TCF      +2
000182: 15,3663           40000                           COM
000183: 15,3664           54132                           TS       TEM2                                  #  STORE 14BIT QUANTITY WITH PRESENT SIGN
000184: 15,3665           13671                           TCF      +4
000185: 15,3666           50000                           INDEX    A                                     #  OVERFLOW MEANS CORRECT 14BIT VALUE,WRONG
000186:                                                                                                  #   SIGN.
000187: 15,3667           37736                           CAF      LIMITS                                #  FIX IT,BY ADDING IN 37777 OR 40000
000188: 15,3670           60132                           AD       TEM2
000189:
000190: 15,3671           50120                           INDEX    BUF
000191: 15,3672           54000                           TS       0                                     #  STORE NEW ANGLE IN 2S COMPLEMENT.
000192: 15,3673           00002                           TC       Q
000193:


000195:                                                                                                  #           RTB TO TORQUE GYROS, EXCEPT FOR THE CALL TO IMUSTALL. ECADR OF COMMANDS ARRIVES IN X1.
000196:
000197: 15,3674           50110        PULSEIMU           INDEX    FIXLOC                                #  ADDRESS OF GYRO COMMANDS SHOULD BE IN X1
000198: 15,3675           30046                           CA       X1
000199: 15,3676           05224                           TC       BANKCALL
000200: 15,3677           26361                           CADR     IMUPULSE
000201: 15,3700           16115                           TCF      DANZIG
000202:


000204:                                                                                                  #           THE FOLLOWING ROUTINE IS USED ONLY IN BENCH TESTING THE RR.
000205:
000206: 15,3701           05717        RRSIM              TC       FIXDELAY
000207: 15,3702           00062                           DEC      50         B-14
000208:
000209: 15,3703           37754        RRSIM2             CAF      BIT2                                  #  SEE IF RR ECTR ENABLED.
000210: 15,3704           00006                           EXTEND
000211: 15,3705           02012                           RAND     12
000212: 15,3706           00006                           EXTEND
000213: 15,3707           13701                           BZF      RRSIM
000214:
000215: 15,3710           30132                           CA       TEM2                                  #  SAVE EXEC TEMPS SINCE IN RUPT.
000216: 15,3711           54070                           TS       RUPTREG1
000217: 15,3712           33752                           CAF      LOPTY
000218: 15,3713           56120                           XCH      BUF
000219: 15,3714           54071                           TS       RUPTREG2
000220: 15,3715           30361                           CA       LASTYCMD                              #  ECTR.
000221: 15,3716           60000                           DOUBLE
000222: 15,3717           00006                           EXTEND
000223:
000224: 15,3720           73753                           MP       RRSIMG
000225: 15,3721           03647                           TC       CDUINC
000226: 15,3722           24120                           INCR     BUF
000227: 15,3723           30035                           CA       OPTY                                  #  SHAFT CMD IS DIVIDED BY THE ABS VALUE OF
000228: 15,3724           00006                           EXTEND                                         #  THE COS OF THE TRUNNION ANGLE.
000229: 15,3725           20007                           MSU      7                                     #  TO 1S COMPLEMENT.
000230: 15,3726           05372                           TC       SPCOS                                 #                                  *
000231: 15,3727           00006                           EXTEND                                         #  SPCOS NOW GIVES COS SCALED AT 1 *
000232: 15,3730           77740                           MP       BIT14                                 #      (A DAP GROUP FIX)           *
000233: 15,3731           10000                           CCS      A
000234: 15,3732           13735                           TCF      +3
000235: 15,3733           13735                           TCF      +2
000236: 15,3734           13735                           TCF      +1
000237: 15,3735           67755                           AD       ONE
000238: 15,3736           54061                           TS       ITEMP1
000239:
000240: 15,3737           30362                           CA       LASTXCMD                              #  SHAFT RATE DEPENDS ON TRUNNION.
000241: 15,3740           00006                           EXTEND
000242: 15,3741           73753                           MP       RRSIMG
000243: 15,3742           00006                           EXTEND
000244: 15,3743           10061                           DV       ITEMP1
000245: 15,3744           03647                           TC       CDUINC
000246: 15,3745           30070                           CA       RUPTREG1
000247:
000248: 15,3746           54132                           TS       TEM2
000249: 15,3747           30071                           CA       RUPTREG2
000250: 15,3750           54120                           TS       BUF
000251: 15,3751           13701                           TCF      RRSIM
000252:
000253: 15,3752           00035        LOPTY              ADRES    OPTY
000254: 15,3753           22755        RRSIMG             DEC      .59259

End of include-file RTB_OP_CODES.agc.  Parent file is MAIN.agc


