
Source Code


000002:                                                                                                  ## Copyright:   Public domain.
000003:                                                                                                  ## Filename:    SECOND_DPS_GUIDANCE.agc
000004:                                                                                                  ## Purpose:     A section of Sunburst revision 37, or Shepatin revision 0.
000005:                                                                                                  ##              It is part of an early development version of the software
000006:                                                                                                  ##              for Apollo Guidance Computer (AGC) on the unmanned Lunar
000007:                                                                                                  ##              Module (LM) flight Apollo 5. Sunburst 37 was the program
000008:                                                                                                  ##              upon which Don Eyles's offline development program Shepatin
000009:                                                                                                  ##              was based; the listing herein transcribed was actually for
000010:                                                                                                  ##              the equivalent revision 0 of Shepatin.
000011:                                                                                                  ##              This file is intended to be a faithful transcription, except
000012:                                                                                                  ##              that the code format has been changed to conform to the
000013:                                                                                                  ##              requirements of the yaYUL assembler rather than the
000014:                                                                                                  ##              original YUL assembler.
000015:                                                                                                  ## Reference:   pp. 814-850
000016:                                                                                                  ## Assembler:   yaYUL
000017:                                                                                                  ## Contact:     Ron Burkey <info@sandroid.org>.
000018:                                                                                                  ## Website:     www.ibiblio.org/apollo/index.html
000019:                                                                                                  ## Mod history: 2017-05-24 MAS  Created from Sunburst 120.
000020:                                                                                                  ##              2017-06-13 HG   Transcribed
000021:                                                                                                  ##              2017-06-15 HG   Fix interpretive operand /AFC/ -> /ACF/
000022:                                                                                                  ##              2017-06-17 MAS  Added a workaround for yaYUL calculating a
000023:                                                                                                  ##                              fractional number off by one.
000024:


000026:
000027:                                                                                                  #  PROGRAM NAME - SECOND DPS GUIDANCE
000028:
000029:                                                                                                  #  MOD NO. - 0
000030:
000031:                                                                                                  #  MODIFICATION BY - KLUMPP AND EYLES
000032:
000033:                                                                                                  #  FUNCTIONAL DESCRIPTION -
000034:
000035:                                                                                                  #       THERE ARE TWO MODES OF OPERATION OF THE SECOND DPS GUIDANCE PROGRAM (2DPS).  PRIOR TO THE IGNITION
000036:                                                                                                  #  SEQUENCE 2DPS IS OPERATED IN THE PRE-IGNITION MODE FOR THE PURPOSE OF PROVIDING, FOR THE IGNITION
000037:                                                                                                  #  SEQUENCE, THE TIME OF INITIATION AND THE DIRECTION OF THRUST.  IMMEDIATELY AFTER THE IGNITION SEQUENCE
000038:                                                                                                  #  IS COMPLETED, INCLUDING THE COMMAND OF MAXIMUM THRUST, 2DPS IS ENGAGED IN THE THRUSTING MODE FOR THE
000039:
000040:                                                                                                  #  PURPOSE OF PROVIDING THRUST ACCELERATION MAGNITUDE AND DIRECTION COMMANDS NECESSARY TO CONDUCT THE
000041:                                                                                                  #  SIMULATED POWERED LANDING MANEUVER.
000042:
000043:                                                                                                  #       PRIOR TO LAUNCH, ERASABLE MEMORY MUST BE LOADED WITH THE SEMI-UNIT NORMAL TO THE PLANE OF THE
000044:                                                                                                  #  REQUIRED ORBIT CPT6/2, AND DATA WHICH INDIRECTLY SPECIFICIES THE NOMINAL IGNITION TIME TIGNOM.  THESE
000045:                                                                                                  #  DATA MAY BE ADJUSTED, AS A GROUP, VIA THE UPLINK, UNTIL 200 SECONDS PRIOR TO THE TIGNOM IMPLIED BY THE
000046:                                                                                                  #  PRE-LAUNCH LOAD OR IMPLIED BY THE UPLINK DATA, WHICHEVER IS EARLIER.  A DESCRIPTION OF THE METHOD OF
000047:                                                                                                  #  UPDATING TIGNOM IS IN THE PROVINCE OF THE MISSION CONTROL PROGRAM (MCP) MISSION PHASE 11 -
000048:                                                                                                  #  DPS2/FITH/APS1.  THE TARGETING IS CONTROLLED BY THE SEMI-UNIT VECTOR CPT6/2 AS DESCRIBED IN THE 206 GSOP.
000049:
000050:
000051:                                                                                                  #       AT APPROXIMATELY 180 SECONDS PRIOR TO TIGNOM, THE MCP ENGAGES 2DPS IN THE PRE-IGNITION MODE BY
000052:                                                                                                  #  PROVIDING AN EXTRAPOLATED TIME AND STATE IN THE REGISTERS TET, RIGNTION, VIGNTION, AND TRANSFERRING
000053:                                                                                                  #  CONTROL TO LOCATION PREBURN IN 2DPS.  THIS TIME AND STATE ARE AT APPROXIMATELY 50 SECONDS PRIOR TO
000054:                                                                                                  #  TIGNOM.  (THE NAMES RIGNTION, VIGNTION, CHOSEN TO INDICATE USAGE WITH OTHER GUIDANCE PROGRAMS, ARE
000055:                                                                                                  #  MISLEADING WITH 2DPS IN THAT THE EXTRAPOLATED STATE PROVIDED IN THESE REGISTERS IS NOT THAT EXPECTED AT
000056:                                                                                                  #  IGNITION BUT RATHER AT 50 SECONDS PRIOR TO IGNITION.)  2DPS TRANSFERS THE CONTENTS OF TET TO PIPTIME
000057:                                                                                                  #  AND CALLS SUBROUTINE VPATCHER WHICH TRANSFERS THE STATE TO RN, VN AND INITIALIZES FOR CALCRVG.
000058:                                                                                                  #  USING CALCRVG AS A SUBROUTINE, AND INTERNAL SUBROUTINES IGNITN1 AND IGNITN2, 2DPS MOVES THE TIME AND
000059:                                                                                                  #  STATE FORWARD TO A TIME GREATER THAN OR EQUAL TO TULLG-6 SECONDS AND LESS THAN OR EQUAL TO TULLG-3.8 SECONDS,
000060:                                                                                                  #  LEAVING THIS CONSISTENT SET IN PIPTIME, RN, VN, WHERE TULLG IS THE PRECISE TIME FOR ULLAGE TO BE INITIATED
000061:                                                                                                  #  AND IS LEFT IN THE REGISTER OF THAT NAME.  2DPS LEAVES A SEMI-UNIT VECTOR IN THE DIRECTION IN WHICH
000062:                                                                                                  #  THRUST IS TO BE COMMANDED DURING THE IGNITION SEQUENCE IN THE REGISTER POINTVSM AND BRANCHES TO
000063:
000064:                                                                                                  #  LOCATION RETPREB IN THE MISSION CONTROL PROGRAM.
000065:
000066:                                                                                                  #       USING THE DATA LEFT BY THE PRE-IGNITION MODE OF 2DPS, THE MCP ENGAGES KALCMANU TO PROPERLY
000067:                                                                                                  #  ORIENT THE SPACECRAFT FOR THE IGNITION SEQUENCE, AND ISSUES THE WAITLIST CALLS WHICH CAUSE THE
000068:                                                                                                  #  READACCS, SERVICER, PGNCSMON LOOP TO BE ESTABLISHED (WITH 2DPS NOT IN THE LOOP) AND PRODUCE ULLAGE,
000069:                                                                                                  #  ENGINE IGNITION, AND FINALLY MAXIMUM THRUST.  IMMEDIATELY AFTER MAXIMUM THRUST IS COMMANDED, THE MCP
000070:                                                                                                  #  PLACES THE 2BCADR OF BURN (EBANK= E2DPS) IN THE AVGEXIT WHICH CAUSES 2DPS TO BE ADDED TO THE READACCS,
000071:                                                                                                  #  SERVICER, PGNCSMON LOOP IMMEDIATELY FOLLOWING CALCRVG.
000072:
000073:                                                                                                  #       WHEN CONTROL IS GIVEN TO 2DPS WITH THE 2BCADR OF BURN IN AVGEXIT, 2DPS OPERATES IN THE THRUSTING
000074:
000075:                                                                                                  #  MODE.  IT GENERATES THE SEQUENCING REQUIRED TO CONDUCT THE SIMULATED POWERED LANDING MANEUVER AND ISSUES
000076:                                                                                                  #  THE THRUST ACCELERATION MAGNITUDE AND DIRECTION COMMANDS.
000077:
000078:                                                                                                  #       2DPS GENERATES THE SEQUENCING BY INCREMENTING THE HIGH ORDER PART OF AVGEXIT, BY AN APPROPRIATE
000079:                                                                                                  #  INTEGER, TO ACCOMPLISH EACH CHANGE OF 2DPS PHASE.  THE INCREMENTING OF AVGEXIT CAUSES, ON THE SUBSEQUENT
000080:


000082:                                                                                                  #  PASS THROUGH 2DPS, CONTROL TO BEGIN AT A NEW POINT IN THE SECOND DPS FLITE SEQUENCE TABLE, AND
000083:                                                                                                  #  CONSEQUENTLY THE CORRESPONDING 2DPS MODING TO BE ESTABLISHED.
000084:
000085:                                                                                                  #       2DPS GENERATES THE THRUST ACCELERATION MAGNITUDE AND DIRECTION COMMANDS ON THE BASIS OF THE
000086:                                                                                                  #  CONTENTS OF PIPTIME, RN, VN, AT THE BEGINNING OF THE PASS.  TO ISSUE THE THRUST ACCELERATION DIRECTION
000087:                                                                                                  #  COMMAND, 2DPS PLACES A SEMI-UNIT VECTOR IN THE REQUIRED DIRECTION IN THE REGISTER AXISD AND CALLS
000088:
000089:                                                                                                  #  FINDCDUD AS A SUBROUTINE.  TO ISSUE THE MAGNITUDE COMMAND, 2DPS PLACES THE REQUIRED MAGNITUDE IN THE
000090:                                                                                                  #  REGISTER /ACF/ AND CALLS THROTCON AS A SUBROUTINE.
000091:
000092:                                                                                                  #       BEFORE BUT NOT INCLUDING THE LAST PASS, 2DPS TERMINATES THE JOB PERIODICALLY STARTED BY READACCS
000093:                                                                                                  #  BY BRANCHING TO ENDOFJOB.
000094:
000095:                                                                                                  #       ON THE LAST PASS 2DPS PLACES THE SEMI-UNIT VECTOR ALONG THE NORMAL TO THE DESIRED ORBITAL PLANE,
000096:                                                                                                  #  CPT6/2, IN THE REGISTER AXISD, CALLS FINDCDUD, AND BRANCHES TO LOCATION RETBURN IN THE MCP.  THE MCP
000097:                                                                                                  #  REMOVES 2DPS FROM THE READACCS, SERVICER, PGNCSMON LOOP AND ISSUES THE WAITLIST CALLS WHICH PRODUCE THE
000098:                                                                                                  #  RANDOM THROTTLING.  THE MCP DOES NOT CHANGE THE CONTENTS OF AXISD SUPPLIED BY 2DPS.  CONSEQUENTLY THE
000099:                                                                                                  #  THRUST ACCELERATION DURING RANDOM THROTTLING IS NORMAL TO THE ORBITAL PLANE.
000100:


000102:                                                                                                  #  INTERFACE SPECIFICATIONS -
000103:
000104:                                                                                                  #  SPECIFICATION           PRE-IGNITION MODE          THRUSTING MODE
000105:
000106:                                                                                                  #  CALLING SEQUENCE -      DTCB TO PREBURN            DTCB TO BURN
000107:                                                                                                  #                          (EBANK= E2DPS)             (EBANK= E2DPS)
000108:
000109:                                                                                                  #  NORMAL EXITS -          DTCB TO LOCATION           PRIOR TO LAST PASS -
000110:                                                                                                  #                          RETPREB (EBANK=            TC TO ENDOFJOB
000111:                                                                                                  #                          EMP11JOB) IN MISSION
000112:                                                                                                  #                          CONTROL PROGRAM.           LAST PASS -
000113:                                                                                                  #                                                     DTCB TO LOCATION
000114:
000115:                                                                                                  #                                                     RETBURN (EBANK=
000116:                                                                                                  #                                                     EMP11JOB) IN MISSION
000117:                                                                                                  #                                                     CONTROL PROGRAM
000118:
000119:                                                                                                  #  ALARM OR ABORT EXITS -  NONE                       NONE
000120:
000121:                                                                                                  #  ERASABLE                CPT6/2 (IMU COORDS)        2BCADR OF BURN
000122:                                                                                                  #     INITIALIZATION -     OTHER INITIALIZATION       (EBANK= E2DPS) MUST
000123:                                                                                                  #                          DONE INTERNALLY            BE IN AVGEXIT.  OTHER
000124:                                                                                                  #                                                     INITIALIZATION DONE IN
000125:                                                                                                  #                                                                          N PRE-
000126:
000127:                                                                                                  #                                                     IGNITION MODE.
000128:
000129:                                                                                                  #  INPUTS -                TET                        PIPTIME
000130:                                                                                                  #                          RIGNTION                   RN
000131:                                                                                                  #                          VIGNTION                   VN
000132:
000133:                                                                                                  #  OUTPUTS -               PIPTIME                    AXISD
000134:                                                                                                  #                          RN                         /ACF/
000135:                                                                                                  #                          VN
000136:                                                                                                  #                          TULLG
000137:
000138:                                                                                                  #                          POINTVSM
000139:
000140:                                                                                                  #  ERASABLES -             AMEMORY THROUGH            SAME
000141:                                                                                                  #                          AMEMORY +217 OCT
000142:                                                                                                  #                          PLUS 6 FOR CPT6/2 (NOT
000143:                                                                                                  #                          YET ASSIGNED)
000144:
000145:                                                                                                  #  SUBROUTINES CALLED -    ROOTPSRS                   ROOTPSRS
000146:                                                                                                  #                          VPATCHER                   FINDCDUD
000147:                                                                                                  #                          CALCRVG                    THROTCON
000148:


000150: 22,2000                                           BANK     22
000151: 22,2000  E4,1400                                  EBANK=   E2DPS
000152:                                                                                                  #  ************************************************************************
000153:                                                                                                  #  INITIALIZATION OF SECOND DPS GUIDANCE - PREBURN
000154:                                                                                                  #  ************************************************************************
000155:
000156: 22,2000  22,2000               PREBURN            =        INIT2DPS
000157: 22,2000           03373        INIT2DPS           TC       PRETINIT                              #  INITIALIZES INTERPRETER
000158:
000159:
000160:                                                                                                  #  CLEAR ORBITAL INTEGRATION VARIABLES FROM REGISTERS IN COMMON WITH 2DPS
000161:
000162: 22,2001           06103                           TC       INTPRET
000163: 22,2002           77745                           DLOAD
000164: 22,2003           02047                                    TET                                   #  EXTRAPOLATED TIME FROM ORBITAL INTEGRATN
000165: 22,2004           35321                           STCALL   PIPTIME                               #  TIME REGISTER OF PIPASR
000166: 22,2005           60347                                    VPATCHER                              #  TRANSFERS RIGNTION, VIGNTION TO RN, VN,
000167: 22,2006           77776                           EXIT                                           #  AND DUPLICATES FUNCTIONS OF NORMLIZE
000168: 22,2007           04147                           TC       PHASCHNG                              #  PREVENTS REREADING ORBITAL INTEGRATION
000169:
000170: 22,2010           04022                 +402      OCT      04022                                 #  VARIABLES AFTER WRITING OVER THEM
000171:
000172:                                                                                                  #  COMMON REGISTERS ARE CLEARED
000173:
000174: 22,2011           06103                           TC       INTPRET
000175: 22,2012           77745                           DLOAD
000176: 22,2013           05547                                    IGNALGL
000177: 22,2014           25073                           STOVL    AVGEXIT                               #  SET UP RETURN ADDRESS IN AVGEXIT
000178: 22,2015           05562                                    ZEROPOS
000179: 22,2016           02213                           STORE    GDOTM1                                #  DERIVATIVE OF G FOR USE BY IGNITN1
000180: 22,2017           16171                           STODL    UNAFC/2
000181: 22,2020           05562                                    ZEROPOS
000182:
000183: 22,2021           02055                           STORE    TTF/4TMP                              #  ZERO AS IF COMING FROM PREVIOUS PHASE
000184: 22,2022           77776                           EXIT
000185: 22,2023           33561                           CA       ZEROPOS
000186: 22,2024           55402                           TS       FLPASS0                               #  SHOWS THIS IS INITIAL PASS THIS PHASE
000187: 22,2025           03205                           TC       XTRTPIP                               #  SETS TPIP EXTRAPOLATED
000188: 22,2026           37735                           CA       POSMAX
000189: 22,2027           55564                           TS       /AFC/                                 #  FORCES INITIALIZATION OF COUNTFC
000190: 22,2030           55565                           TS       /AFC/      +1                         #  ONLY REASON: TO ASSURE GOOD PARITY
000191: 22,2031           55404                           TS       COUNTFCT                              #  ONLY REASON: TO ASSURE GOOD PARITY
000192: 22,2032           01072                           TC       AVGEXIT                               #  RETURNS TO APPROPRIATE LOCATION IN 2DPS
000193:


000195:                                                                                                  #  ************************************************************************
000196:                                                                                                  #  SECOND DPS FLITE SEQUENCE TABLE
000197:                                                                                                  #  ************************************************************************
000198:
000199:                                                                                                  #  INDIRECT ADDRESSES
000200:
000201: 22,2033  22,2041               BURN               =        QUAD0X
000202: 22,2033                        BRTTFNU            =        1
000203: 22,2033                        PARL               =        2
000204: 22,2033                        TBRL               =        3
000205: 22,2033                        TTF/4CR            =        4
000206: 22,2033                        BRXEND             =        5
000207:
000208: 22,2033           12210        IGNALG             TCF      TTFINCR
000209: 22,2034           12172                           TCF      ADTTFNU                               #  AS IF COMING FROM PREVIOUS PHASE
000210: 22,2035           00000                           OCT      00000
000211: 22,2036           02113                           ADRES    TBRIGAL
000212: 22,2037           77664                           DEC      -1.5       E2         B-15            #  -1.5 SECONDS, TTF UNITS, COMPARES TTF/4
000213: 22,2040           12645                           TCF      EXIGEND
000214:
000215: 22,2041           12210        QUAD0X             TCF      TTFINCR
000216: 22,2042           12207                           TCF      RETTTFNU                              #  AS IF CONTINUING PREBURN PHASE
000217: 22,2043           00000                           OCT      00000
000218:
000219: 22,2044           02117                           ADRES    TBRQUAD
000220: 22,2045           73465                           DEC      -045       E2         B-15            #  -045 SECONDS, TTF UNITS, COMPARES TTF/4
000221: 22,2046           12721                           TCF      EXQDLIN
000222:
000223: 22,2047           12210        QUAD0F             TCF      TTFINCR
000224: 22,2050           12172                           TCF      ADTTFNU
000225: 22,2051           00027                           OCT      00027
000226: 22,2052           02117                           ADRES    TBRQUAD
000227: 22,2053           77551                           DEC      -3.0       E2         B-15            #  -3.0 SECONDS, TTF UNITS, COMPARES TTF/4
000228: 22,2054           12721                           TCF      EXQDLIN
000229:
000230: 22,2055           13140        LING0F             TCF      LSETEVN
000231:
000232: 22,2056           12207                           TCF      RETTTFNU
000233: 22,2057           00027                           OCT      00027
000234: 22,2060           02123                           ADRES    TBRLING
000235: 22,2061           77746                           DEC      -.50       E2         B-15            #  -.50 SECONDS, TTF UNITS, COMPARES TTF/4
000236: 22,2062           12721                           TCF      EXQDLIN
000237:
000238: 22,2063           13155        LING1F             TCF      LSETODD
000239: 22,2064           12172                           TCF      ADTTFNU
000240: 22,2065           00056                           OCT      00056
000241: 22,2066           02123                           ADRES    TBRLING
000242:
000243: 22,2067           77746                           DEC      -.50       E2         B-15            #  -.50 SECONDS, TTF UNITS, COMPARES TTF/4
000244: 22,2070           12721                           TCF      EXQDLIN
000245:
000246: 22,2071           12210        QUAD2F             TCF      TTFINCR
000247: 22,2072           12172                           TCF      ADTTFNU
000248:


000250: 22,2073           00065                           OCT      00065
000251: 22,2074           02117                           ADRES    TBRQUAD
000252: 22,2075           77551                           DEC      -3.0       E2         B-15            #  -3.0 SECONDS, TTF UNITS, COMPARES TTF/4
000253: 22,2076           12721                           TCF      EXQDLIN
000254:
000255: 22,2077           13140        LING2F             TCF      LSETEVN
000256:
000257: 22,2100           12207                           TCF      RETTTFNU
000258: 22,2101           00065                           OCT      00065
000259: 22,2102           02123                           ADRES    TBRLING
000260: 22,2103           77746                           DEC      -.50       E2         B-15            #  -.50 SECONDS, TTF UNITS, COMPARES TTF/4
000261: 22,2104           12721                           TCF      EXQDLIN
000262:
000263: 22,2105           13155        LING3F             TCF      LSETODD
000264: 22,2106           12172                           TCF      ADTTFNU
000265: 22,2107           00114                           OCT      00114
000266: 22,2110           02123                           ADRES    TBRLING


000270: 22,2111           77763                           OCT      77763                                 #  -.25 SECONDS, TTF UNITS, COMPRES TTF/4
000271: 22,2112           12733                           TCF      EXFINAL
000272:
000273:
000274:
000275:
000276:                                                                                                  #  ************************************************************************
000277:                                                                                                  #  SECOND DPS ROAD MAPS (BRANCH TABLES)
000278:                                                                                                  #  ************************************************************************
000279:
000280:                                                                                                  #  INDIRECT ADDRESSES
000281:
000282: 22,2113                        BRIGN1             =        0
000283:
000284: 22,2113                        BRLING             =        1
000285: 22,2113                        BRIGN2             =        2
000286: 22,2113                        BRXMID             =        3
000287:
000288: 22,2113           12750        TBRIGAL            TCF      IGNITN1
000289: 22,2114           12413                           TCF      TTF/4CL
000290: 22,2115           13041                           TCF      IGNITN2
000291: 22,2116           12615                           TCF      EXIGMID
000292:
000293: 22,2117           12164        TBRQUAD            TCF      RETIGN1
000294: 22,2120           12413                           TCF      TTF/4CL
000295: 22,2121           12571                           TCF      RETIGN2
000296:
000297: 22,2122           12721                           TCF      EXQDLIN
000298:
000299: 22,2123           12164        TBRLING            TCF      RETIGN1
000300: 22,2124           13171                           TCF      LINGUID
000301: 22,2125           12571                           TCF      RETIGN2
000302: 22,2126           12721                           TCF      EXQDLIN
000303:


000305:                                                                                                  #  ************************************************************************
000306:                                                                                                  #  INITIALIZATION FOR EACH PASS
000307:                                                                                                  #  ************************************************************************
000308:
000309:                                                                                                  #  NTLZPASS SETS INDICES, FILLS TPIPOLD, TPIP, R, V EVERY PASS; BRANCHES TO IGNITN1, ADTTFNU WHEN APPROPRIATE.
000310:
000311: 22,2127           00006        NTLZPASS           EXTEND
000312: 22,2130           23406                           QXCH     RETNTLZ
000313:
000314: 22,2131           03373                           TC       PRETINIT                              #  INITIALIZES INTERPRETER
000315:
000316:
000317: 22,2132           00006                           EXTEND
000318: 22,2133           51072                           INDEX    AVGEXIT
000319: 22,2134           30003                           DCA      PARL                                  #  LOADS ADRESES OF PARMTR AND BRANCH TABLS
000320: 22,2135           53401                           DXCH     NDX2DPS
000321: 22,2136           00006                           EXTEND
000322: 22,2137           41401                           DCS      NDX2DPS
000323: 22,2140           50110                           INDEX    FIXLOC
000324: 22,2141           52047                           DXCH     X1                                    #  LOADS BOTH INTRP NDX REGS, NEEDED OR NOT
000325:
000326:                                                                                                  #  FILL TPIPOLD AND TPIP
000327:
000328: 22,2142           00006                           EXTEND
000329: 22,2143           31447                           DCA      TPIP
000330:
000331: 22,2144           53451                           DXCH     TPIPOLD
000332: 22,2145           04147                           TC       PHASCHNG                              #  PROTECT TPIPOLD AND
000333: 22,2146           04022                 +402      OCT      04022                                 #  PREVENT RETURNING TO PREVIOUS PROGRAM
000334: 22,2147           00006                           EXTEND
000335: 22,2150           31321                           DCA      PIPTIME
000336: 22,2151           53447                           DXCH     TPIP
000337:
000338:                                                                                                  #  FILL R AND V
000339:
000340: 22,2152           06103                           TC       INTPRET
000341:
000342: 22,2153           77775                           VLOAD
000343: 22,2154           01011                                    RN
000344: 22,2155           26061                           STOVL    R                                     #  RN TO R WITHOUT RESCALING
000345: 22,2156           01017                                    VN
000346: 22,2157           77742                           VSR2
000347: 22,2160           02071                           STORE    V                                     #  VN TO V WITH SCALING ADJUSTMENT
000348: 22,2161           77776                           EXIT
000349:
000350:                                                                                                  #  IGNITN1 AND ADTTFNU BRANCH DECISIONS
000351:
000352: 22,2162           51401                           INDEX    NDXBR
000353: 22,2163           10000                           TCF      BRIGN1                                #  TO IGNITN1 WHEN APPROPRIATE
000354:
000355: 22,2164           04147        RETIGN1            TC       PHASCHNG                              #  RETURN HERE WHETHER OR NOT DO IGNITN1.
000356: 22,2165           04022                 +402      OCT      04022                                 #  PROTECT TTF/4TMP AS USED BY IGNITN1 FROM
000357:
000358:                                                                                                  ## Page 821
000359:                                                                                                  #  WIPEOUT BY ADTTFNU AND TTFINCR. ALSO
000360:                                                                                                  #  PROTECT RTEMP, VTEMP FROM RS, VS (SHRE)
000361:
000362: 22,2166           11402                           CCS      FLPASS0
000363: 22,2167           12211                           TCF      TTFINCR    +1                         #  ON OTHER THAN FIRST PASS IN ANY PHASE.
000364: 22,2170           51072                           INDEX    AVGEXIT
000365: 22,2171           10001                           TCF      BRTTFNU                               #  TO ADTTFNU WHEN APPROPRIATE
000366:
000367:
000368:                                                                                                  #  ADD TTF/4NU TO TTF/4 FROM LAST PASS
000369:
000370: 22,2172           00006        ADTTFNU            EXTEND
000371: 22,2173           31453                           DCA      TTF/4
000372: 22,2174           53455                           DXCH     TTF/4TMP
000373: 22,2175           51400                           INDEX    NDX2DPS
000374: 22,2176           33422                           CA       TTF/4NU
000375: 22,2177           27454                           ADS      TTF/4TMP
000376: 22,2200           04147                           TC       PHASCHNG                              #  PROTECT TTF/4
000377: 22,2201           04022                 +402      OCT      04022
000378:
000379: 22,2202           00006                           EXTEND
000380: 22,2203           31455                           DCA      TTF/4TMP
000381: 22,2204           53453                           DXCH     TTF/4                                 #  RENEWED TTF/4
000382:
000383: 22,2205           04147                           TC       PHASCHNG                              #  PROTECT TTF/4TMP FROM WIPEOUT BY TTFINCR
000384: 22,2206           04022                 +402      OCT      04022
000385: 22,2207           01406        RETTTFNU           TC       RETNTLZ
000386:
000387:
000388:
000389:                                                                                                  #  ************************************************************************
000390:                                                                                                  #  INCREMENT TTF/4
000391:
000392:                                                                                                  #  ************************************************************************
000393:
000394: 22,2210           02127        TTFINCR            TC       NTLZPASS
000395: 22,2211           00006                 +1        EXTEND
000396: 22,2212           41451                           DCS      TPIPOLD
000397: 22,2213           52145                           DXCH     MPAC
000398: 22,2214           00006                           EXTEND
000399: 22,2215           31447                           DCA      TPIP
000400: 22,2216           20145                           DAS      MPAC
000401: 22,2217           37742                           CA       TSCALE
000402:
000403: 22,2220           07367                           TC       DMPNSUB                               #  (TPIP-TPIPOLD)/4 TO MPAC, TTF UNITS
000404:
000405: 22,2221           00006                           EXTEND
000406: 22,2222           31453                           DCA      TTF/4
000407: 22,2223           20145                           DAS      MPAC                                  #  YIELDS INCREMENTED TTF/4 IN MPAC
000408: 22,2224           52145                           DXCH     MPAC
000409: 22,2225           53455                           DXCH     TTF/4TMP
000410: 22,2226           04147                           TC       PHASCHNG                              #  PROTECT TTF/4
000411: 22,2227           04022                 +402      OCT      04022
000412: 22,2230           00006                           EXTEND
000413:


000415: 22,2231           31455                           DCA      TTF/4TMP
000416:
000417: 22,2232           53453                           DXCH     TTF/4                                 #  INCREMENTED TTF/4
000418:
000419:
000420:
000421:                                                                                                  #  ************************************************************************
000422:                                                                                                  #  SET UP STATE IN LOCAL, PLANE, SPHERICAL COORDINATES
000423:                                                                                                  #  ************************************************************************
000424:
000425: 22,2233           06103        STUP2DPS           TC       INTPRET
000426: 22,2234           53575                           VLOAD    UNIT
000427: 22,2235           02061                                    R
000428: 22,2236           26012                           STOVL    CLT/2                                 #  DEFINITION OF MATRIX CLT/2
000429:
000430: 22,2237           02357                                    CPT6/2
000431: 22,2240           53435                           VXV      UNIT
000432: 22,2241           02012                                    CLT/2
000433: 22,2242           26020                           STOVL    CLT/2      +6
000434: 22,2243           02012                                    CLT/2
000435: 22,2244           76435                           VXV      VSL1
000436: 22,2245           02020                                    CLT/2      +6
000437: 22,2246           26026                           STOVL    CLT/2      +14
000438: 22,2247           02071                                    V
000439: 22,2250           76521                           MXV      VSL1
000440:
000441: 22,2251           02012                                    CLT/2                                 #  -      *     -
000442: 22,2252           26077                           STOVL    VL                                    #  VL = 2 CLT/2 V
000443: 22,2253           02061                                    R
000444: 22,2254           72441                           DOT      SL1
000445: 22,2255           02357                                    CPT6/2                                #        - -
000446: 22,2256           26105                           STOVL    RP2                                   #  RP2 = R.CPT6
000447: 22,2257           02061                                    R
000448: 22,2260           50235                           VXV      DOT
000449: 22,2261           02071                                    V
000450: 22,2262           02357                                    CPT6/2
000451: 22,2263           77752                           SL1                                            #           - - -
000452: 22,2264           26107                           STOVL    MAP2                                  #  MAP2 = 2 R*V.CPT6/2
000453:
000454: 22,2265           02061                                    R
000455: 22,2266           77646                           ABVAL                                          #                  -
000456: 22,2267           16067                           STODL    RLENGTH                               #  RLENGTH = ABVAL(R)
000457: 22,2270           02105                                    RP2
000458: 22,2271           65316                           DSQ      PDDL
000459: 22,2272           02067                                    RLENGTH
000460: 22,2273           45316                           DSQ      DSU
000461: 22,2274           77766                           SQRT                                           #                   2    2
000462: 22,2275           16111                           STODL    RC                                    #  RC = SQRT(RLENGTH -RP2 )
000463: 22,2276           02067                                    RLENGTH                               #                -
000464:
000465: 22,2277           16113                           STODL    RS                                    #  DEFINITION OF RS, FIRST COMPONENT
000466: 22,2300           02111                                    RC
000467: 22,2301           77671                           DDV
000468: 22,2302           02067                                    RLENGTH
000469: 22,2303           16127                           STODL    CRS2                                  #  COSINE (RS2) = RC/RLENGTH
000470:


000472: 22,2304           02105                                    RP2
000473: 22,2305           77671                           DDV
000474: 22,2306           02067                                    RLENGTH
000475: 22,2307           16131                           STODL    SRS2                                  #  SINE (RS2) = RP2/RLENGTH
000476: 22,2310           02105                                    RP2
000477: 22,2311           77671                           DDV
000478:
000479: 22,2312           02111                                    RC
000480: 22,2313           16133                           STODL    TRS2                                  #  TNEGENT (RS2) = RP2/RC
000481: 22,2314           02131                                    SRS2
000482: 22,2315           67542                           SR1      ARCSIN
000483: 22,2316           52405                           DMP      SL3
000484: 22,2317           05600                                    PI/4                                  #                -
000485: 22,2320           16117                           STODL    RS         +4                         #  DEFINITION OF RS, THIRD COMPONENT
000486: 22,2321           02103                                    VL         +4
000487: 22,2322           65271                           DDV      PDDL                                  #  THIS PUSH DOWN IS FOR 3RD COMP OF VS.
000488: 22,2323           02067                                    RLENGTH
000489: 22,2324           02101                                    VL         +2
000490: 22,2325           65271                           DDV      PDDL                                  #  THIS PUSH DOWN IS FOR 2ND COMP OF VS.
000491:
000492: 22,2326           02111                                    RC
000493: 22,2327           02077                                    VL
000494: 22,2330           77666                           VDEF                                           #  DEFINITION OF SPHERICAL VELOCITY VECTOR
000495: 22,2331           16121                           STODL    VS
000496: 22,2332           02123                                    VS         +2
000497: 22,2333           77716                           DSQ
000498: 22,2334           41205                           DMP      DMP
000499: 22,2335           02131                                    SRS2
000500: 22,2336           02127                                    CRS2
000501: 22,2337           41325                           PDDL     DMP
000502:
000503: 22,2340           02125                                    VS         +4
000504: 22,2341           02121                                    VS
000505: 22,2342           72471                           DDV      SL1
000506: 22,2343           02067                                    RLENGTH
000507: 22,2344           57415                           DAD      DCOMP
000508: 22,2345           41325                           PDDL     DMP                                   #  THIS PUSH DOWN IS FOR 3RD COMP OF ASPRT.
000509: 22,2346           02123                                    VS         +2
000510: 22,2347           02121                                    VS
000511: 22,2350           77671                           DDV
000512: 22,2351           02067                                    RLENGTH
000513: 22,2352           41325                           PDDL     DMP
000514: 22,2353           02133                                    TRS2
000515:
000516: 22,2354           02125                                    VS         +4
000517: 22,2355           77605                           DMP
000518: 22,2356           02123                                    VS         +2
000519: 22,2357           72425                           DSU      SL1
000520: 22,2360           63525                           PDDL     DSQ                                   #  THIS PUSH DOWN IS FOR 2ND COMP OF ASPRT.
000521: 22,2361           02067                                    RLENGTH
000522: 22,2362           77665                           BDDV
000523: 22,2363           21143                                    MUEARTH
000524: 22,2364           63525                           PDDL     DSQ
000525: 22,2365           02125                                    VS         +4
000526:


000528: 22,2366           77605                           DMP                                            #                     -
000529: 22,2367           02067                                    RLENGTH                               #        THIS MONSTER ASPRT REPRESENTS
000530:
000531: 22,2370           63525                           PDDL     DSQ                                   #        INCIDENTAL ACCELERATIONS; DUE
000532: 22,2371           02127                                    CRS2                                  #        TO GRAVITY, CORIOLIS FORCES,
000533: 22,2372           63525                           PDDL     DSQ                                   #        AND SO FORTH.
000534: 22,2373           02123                                    VS         +2
000535: 22,2374           41205                           DMP      DMP
000536: 22,2375           02067                                    RLENGTH
000537: 22,2376           45215                           DAD      DSU
000538: 22,2377           77666                           VDEF                                           #  DEFINITION OF ASPRT
000539: 22,2400           02135                           STORE    ASPRT
000540: 22,2401           77776                           EXIT
000541:
000542: 22,2402           37761                           CA       ZERO                                  #        SECOND COMPONENTS
000543: 22,2403           55514                           TS       RS         +2                         #        OF RS AND VS ARE
000544: 22,2404           55515                           TS       RS         +3                         #        ZEROED HERE TO PREVENT
000545: 22,2405           55522                           TS       VS         +2                         #        OVERFLOW TROUBLE IN
000546: 22,2406           55523                           TS       VS         +3                         #        THE ACS EQUATION.
000547: 22,2407           04147                           TC       PHASCHNG                              #  TIME ONLY?
000548: 22,2410           04022                 +402      OCT      04022
000549: 22,2411           51401                           INDEX    NDXBR
000550: 22,2412           10001                           TCF      BRLING                                #  POSSIBLE BRANCH TO LINEAR GUIDANCE
000551:


000553:                                                                                                  #  ************************************************************************
000554:                                                                                                  #  TTF/4 COMPUTATION
000555:                                                                                                  #  ************************************************************************
000556:
000557: 22,2413           00006        TTF/4CL            EXTEND
000558: 22,2414           51400                           INDEX    NDX2DPS
000559: 22,2415           33446                           DCA      JDS2
000560: 22,2416           53442                           DXCH     TABLTTF    +6                         #  A(3) = JDS2 TO TABLTTF
000561:
000562: 22,2417           00006                           EXTEND
000563: 22,2420           51400                           INDEX    NDX2DPS
000564: 22,2421           33430                           DCA      ADS        +4
000565: 22,2422           20001                           DDOUBL
000566: 22,2423           52145                           DXCH     MPAC
000567: 22,2424           33576                           CA       SP3/4
000568: 22,2425           07351                           TC       SHORTMP                               #  LEAVING  A(2) IN MPAC
000569: 22,2426           52145                           DXCH     MPAC
000570: 22,2427           53440                           DXCH     TABLTTF    +4                         #  A(2) = (6 ADS2)/4 TO TABLTTF
000571: 22,2430           37746                           CA       BIT8
000572:
000573: 22,2431           55443                           TS       TABLTTF    +10                        #  FRACTIONAL PRECISION FOR TTF TO TABLE
000574: 22,2432           00006                           EXTEND
000575: 22,2433           31525                           DCA      VS         +4
000576: 22,2434           52145                           DXCH     MPAC
000577: 22,2435           33572                           CA       SP3/8
000578: 22,2436           07351                           TC       SHORTMP                               #  YIELDS 6/16 VS2 IN MPAC
000579: 22,2437           00006                           EXTEND
000580: 22,2440           51400                           INDEX    NDX2DPS
000581: 22,2441           33444                           DCA      VDS        +4
000582: 22,2442           20001                           DDOUBL
000583: 22,2443           52145                           DXCH     MPAC
000584: 22,2444           53436                           DXCH     TABLTTF    +2                         #  STORE 6/16 VS2 IN TABLTTF
000585:
000586: 22,2445           33573                           CA       SP9/16
000587: 22,2446           07351                           TC       SHORTMP                               #  YIELDS 18/16 VDS2 IN MPAC
000588: 22,2447           00006                           EXTEND
000589: 22,2450           41517                           DCS      RS         +4
000590: 22,2451           52145                           DXCH     MPAC                                  #  -RS2 TO MPAC, FETCHING 18/16 VDS2
000591: 22,2452           21436                           DAS      TABLTTF    +2                         #  A(1) = (6 VS2+18 VDS2)/16
000592:
000593: 22,2453           00006                           EXTEND
000594: 22,2454           51400                           INDEX    NDX2DPS
000595: 22,2455           33436                           DCA      RDS        +4
000596:
000597: 22,2456           20145                           DAS      MPAC                                  #  YIELDS -RS2+RDS2 IN MPAC
000598: 22,2457           33572                           CA       SP3/8
000599: 22,2460           07351                           TC       SHORTMP
000600: 22,2461           00006                           EXTEND
000601: 22,2462           30145                           DCA      MPAC
000602: 22,2463           53434                           DXCH     TABLTTF                               #  A(0)  =-24(RS2-RDS2)/64
000603:
000604: 22,2464           00004                           INHINT                                         #  SET INHIBITED LOOP TO STORE FOR DWNLINK
000605: 22,2465           37756                           CAF      ELEVEN                                #  INITIALIZE INDEX TO DEC 11
000606: 22,2466           54070        RVSTOR             TS       RUPTREG1
000607:


000609: 22,2467           50070                           INDEX    RUPTREG1
000610:
000611: 22,2470           31050                           CA       RN1
000612: 22,2471           50070                           INDEX    RUPTREG1
000613: 22,2472           55010                           TS       RN                                    #  STORE UPDATED RN, VN
000614: 22,2473           10070                           CCS      RUPTREG1
000615: 22,2474           12466                           TCF      RVSTOR
000616: 22,2475           00006                           EXTEND
000617: 22,2476           31445                           DCA      PIPTIMET
000618: 22,2477           53321                           DXCH     PIPTIME                               #  UPDATED PIPTIME
000619: 22,2500           00006                           EXTEND
000620: 22,2501           31321                           DCA      PIPTIME
000621: 22,2502           53341                           DXCH     STATIME                               #  STATE TIME FOR DWNLINK
000622: 22,2503           00003                           RELINT
000623:
000624: 22,2504           04147                           TC       PHASCHNG                              #  TIME ONLY?
000625: 22,2505           04022                 +402      OCT      04022
000626:
000627:
000628:
000629:                                                                                                  #  ************************************************************************
000630:                                                                                                  #  QUADRATIC GUIDANCE - SPHERICAL ACCELERATION AS QUADRATIC TIME FUNCTION
000631:                                                                                                  #  ************************************************************************
000632:
000633:                                                                                                  #   -
000634:                                                                                                  #   ACS EQUATION IS PROGRAMMED LIKE THIS:
000635:                                                                                                  #                         -  -
000636:                                                                                                  #           -  -      1/2(RS-RDS)
000637:                                                                                                  #          (VS+VDS) - -----------
000638:                                                                                                  #    -                   TTF/4      -
000639:                                                                                                  #    ACS = ---------------------- + ADS
000640:                                                                                                  #                2/3(TTF/4)
000641:
000642: 22,2506           06103                           TC       INTPRET
000643: 22,2507           41345                           DLOAD    DMP
000644: 22,2510           02053                                    TTF/4
000645: 22,2511           05575                                    2DPS2/3
000646:
000647: 22,2512           51715                           PDVL     VSU*
000648: 22,2513           02113                                    RS
000649: 22,2514           05432                                    RDS,1
000650: 22,2515           70362                           VSR1     V/SC
000651: 22,2516           02053                                    TTF/4
000652: 22,2517           52715                           PDVL     VAD*
000653: 22,2520           02121                                    VS
000654: 22,2521           05440                                    VDS,1
000655: 22,2522           70251                           VSU      V/SC
000656: 22,2523           77653                           VAD*
000657: 22,2524           05424                                    ADS,1
000658: 22,2525           02143                           STORE    ACS                                   #  BEHOLD, UNWORTHY MORTAL
000659: 22,2526           77651                           VSU
000660: 22,2527           02135                                    ASPRT                                 #  -      -     -
000661: 22,2530           16151                           STODL    AFCS                                  #  AFCS = ACS - ASPRT
000662:


000664: 22,2531           02111                                    RC
000665: 22,2532           41316                           DSQ      DMP
000666: 22,2533           02053                                    TTF/4
000667: 22,2534           45325                           PDDL     DSU
000668: 22,2535           02107                                    MAP2
000669: 22,2536           05450                                    MADP2
000670:
000671: 22,2537           77702                           SR2
000672: 22,2540           45471                           DDV      STADR                                 #                            2
000673: 22,2541           61624                           STODL    AFCS       +2                         #  AFCS  = 1/4(MAP -MADP )/RC (TTF/4)
000674: 22,2542           02155                                    AFCS       +4                         #      1          2     2
000675:
000676:
000677:
000678:                                                                                                  #  ************************************************************************
000679:                                                                                                  #  THRUST ACCEL POINTING AND MAGNITUDE COMMANDS - DUE TO QUAD OR LINR GUID
000680:                                                                                                  #  ************************************************************************
000681:
000682: 22,2543           65205        AFCCALC            DMP      PDDL                                  #  COMES HERE FROM LINGUID.
000683:
000684: 22,2544           02067                                    RLENGTH
000685: 22,2545           02153                                    AFCS       +2
000686: 22,2546           65205                           DMP      PDDL
000687: 22,2547           02111                                    RC
000688: 22,2550           02151                                    AFCS
000689: 22,2551           61266                           VDEF     VXM
000690: 22,2552           02012                                    CLT/2
000691: 22,2553           77772                           VSL1                                           #  -                                     *
000692: 22,2554           02157                           STORE    AFC                                   #  AFC = 2(AFCS , RC AFCS ,RLENGTH AFCS )CLT/2
000693: 22,2555           77656                           UNIT                                           #              0         1             2
000694:
000695: 22,2556           16171                           STODL    UNAFC/2
000696: 22,2557           00045                                    36D                                   #  MAGNITUDE OF AFC, /AFC/
000697: 22,2560           02165                           STORE    /AFC/                                 #  FOR IGNITION ALGORITHM
000698: 22,2561           77762                           SR1R                                           #  CONVERTS /AFC/ TO THROTCON UNITS, /ACF/
000699: 22,2562           01335                           STORE    /ACF/                                 #  FOR THROTTLE CONTROL SUBR THROTCON
000700: 22,2563           77776                           EXIT
000701: 22,2564           51401                           INDEX    NDXBR
000702: 22,2565           10002                           TCF      BRIGN2
000703:
000704: 22,2566           54111                 -3        TS       OVFIND                                #  RETURN FROM TTF/4 OVERFLOW
000705: 22,2567           37760                 -2        CA       FIVE                                  #  RETURN RESETTING COUNTFC
000706: 22,2570           55404                 -1        TS       COUNTFCT                              #  RETURN DECREMENTING COUNTFC
000707:
000708: 22,2571           04147        RETIGN2            TC       PHASCHNG                              #  RETURN (NORMAL) FROM IGNITN2
000709: 22,2572           04022                 +402      OCT      04022                                 #  PREVENT GOING FAR BACK IN 2DPS AFTR EXIT
000710:
000711:
000712:
000713:                                                                                                  #  ************************************************************************
000714:                                                                                                  #  PREPARE TO EXIT
000715:                                                                                                  #  ************************************************************************
000716:
000717: 22,2573           25402                           INCR     FLPASS0                               #  INCR FIRST PASS FLAG. REPEATS ARE OK.
000718:


000720: 22,2574           51072                           INDEX    AVGEXIT
000721: 22,2575           40004                           CS       TTF/4CR
000722:
000723: 22,2576           61452                           AD       TTF/4
000724: 22,2577           00006                           EXTEND
000725: 22,2600           51401                           INDEX    NDXBR
000726: 22,2601           60003                           BZMF     BRXMID                                #  CONTINUE PRESENT PHASE
000727:
000728: 22,2602           31072                           CA       AVGEXIT                               #  PREPARE FOR NEW PHASE
000729: 22,2603           55405                           TS       AVGXTEMP                              #  TEMPORARY PROTECTION FOR AVGEXIT
000730: 22,2604           04147                           TC       PHASCHNG                              #  PROTECT AVGEXIT
000731: 22,2605           04022                 +402      OCT      04022
000732: 22,2606           31405                           CA       AVGXTEMP
000733:
000734: 22,2607           66276                           AD       SIX
000735: 22,2610           55072                           TS       AVGEXIT
000736: 22,2611           37761                           CA       ZERO
000737: 22,2612           55402                           TS       FLPASS0                               #  RESET FLAG INDICATING PASS ZERO (FIRST)
000738: 22,2613           51405                           INDEX    AVGXTEMP
000739: 22,2614           10005                           TCF      BRXEND
000740:


000742:                                                                                                  #  ************************************************************************
000743:                                                                                                  #  ROUTINES FOR EXITING FROM SECOND DPS GUIDANCE. THESE ARE:
000744:                                                                                                  #  ************************************************************************
000745:
000746:                                                                                                  #  1.       EXIGMID CALLS CALCRVG AS AN INTERPRETIVE SUBROUTINE UP UNTIL BUT NOT INCLUDING THE LAST PASS DURING
000747:                                                                                                  #           THE PREBURN PHASE. UPON RETURN EXIGMID RESTARTS 2DPS.
000748:
000749:                                                                                                  #  2.       EXIGEND IS USED ON THE LAST PASS DURING PREBURN. IT SETS UP FOR KALCMANU, FOR THE SUBSEQUENT 2DPS
000750:
000751:                                                                                                  #           BURN, AND EXITS TO THE MISSION CONTROL PROGRAM.
000752:
000753:                                                                                                  #  3.       EXQDLIN IS USED TO TERMINATE EACH PASS UP UNTIL BUT NOT INCLUDING THE LAST PASS ON ALL 2DPS BURN
000754:                                                                                                  #           PHASES. EXQDLIN OBTAINS ATTITUDE AND THROTTLE CONTROL AND TERMINATES THE JOB.
000755:
000756:                                                                                                  #  4.       EXFINAL IS THE FINAL 2DPS EXIT. IT SETS UP AND ISSUES THE ATTITUDE COMMAND FOR RANDOM THROTTLING, OBTAINS
000757:                                                                                                  #           ATTITUDE AND THROTTLE CONTROL, AND EXITS TO THE MISSION CONTROL PROGRAM.
000758:
000759:
000760:
000761:                                                                                                  #  EXIGMID SETS UP FOR CALCRVG TO MOVE STATE FORWARD A SPECIFIED TIME, INITIALIZES THE INTERPRETER, CALLS CALCRVG
000762:                                                                                                  #  AS AN INTERPRETIVE SUBROUTINE, AND UPON RETURN SETS UP FOR IGNALG AND BRANCHES INDIRECTLY THERETO.
000763:
000764: 22,2615           03373        EXIGMID            TC       PRETINIT                              #  INITIALIZES INTERPRETER FOR CALCRVG
000765:                                                                                                  #  SUCCEEDING CODING MUST NOT UNDO
000766:
000767: 22,2616           06103                           TC       INTPRET
000768: 22,2617           43345                           DLOAD    DAD
000769: 22,2620           05567                                    PIGNALG
000770: 22,2621           01321                                    PIPTIME
000771: 22,2622           26045                           STOVL    PIPTIMET                              #  UPDATED PIPTIME TEMPORARY STORAGE
000772: 22,2623           05562                                    ZEROPOS
000773: 22,2624           34404                           STCALL   DELV                                  #  DELV = 0
000774:
000775: 22,2625           61077                                    CALCRVG                               #  STEPS FORWARD IN TIME LEAVING RN1, VN1
000776: 22,2626           77776                           EXIT
000777:
000778: 22,2627           33545                           CA       E2DPSL                                #  ASSURE CORRECT EBANK BEFORE
000779: 22,2630           54003                           TS       EBANK                                 #  DOING PHASCHNG
000780: 22,2631           04147                           TC       PHASCHNG                              #  PROTECT PIPTIME. PREVENT REDOING CALCRVG
000781: 22,2632           04022                 +402      OCT      04022
000782: 22,2633           06103                           TC       INTPRET
000783: 22,2634           77745                           DLOAD
000784: 22,2635           02045                                    PIPTIMET
000785:
000786: 22,2636           25321                           STOVL    PIPTIME                               #  UPDATED PIPTIME
000787: 22,2637           01051                                    RN1
000788: 22,2640           25011                           STOVL    RN                                    #  UPDATED POSITION
000789: 22,2641           01057                                    VN1
000790: 22,2642           01017                           STORE    VN                                    #  UPDATED VELOCITY
000791: 22,2643           77776                           EXIT
000792: 22,2644           01072                           TC       AVGEXIT                               #  RETURNS TO APPROPRIATE LOCATION IN 2DPS
000793:


000795:
000796:                                                                                                  #  EXIGEND EXTRAPOLATES UNAFC/2 TO TTF/4 = 0, SETS UP FOR MISSION CONTROL PROGRAM, SETS UP FOR THE SUCCEEDING
000797:
000798:                                                                                                  #  BRAKING PHASE, AND EXITS TO THE MISSION CONTROL PROGRAM.
000799:
000800:                                                                                                  #  EXTRAPOLATE UNAFC/2
000801:
000802:                                                                                                  #  UNAFC/2 = UNAFC/2+(UNAFC/2-UNAFC/2O)(TTF)/(TPIPOLD-TPIP)
000803:
000804: 22,2645           00006        EXIGEND            EXTEND
000805: 22,2646           31451                           DCA      TPIPOLD
000806: 22,2647           52145                           DXCH     MPAC
000807: 22,2650           00006                           EXTEND
000808: 22,2651           41447                           DCS      TPIP
000809: 22,2652           20145                           DAS      MPAC
000810:
000811: 22,2653           37742                           CA       TSCALE
000812: 22,2654           00006                           EXTEND
000813: 22,2655           77753                           MP       BIT3                                  #  MULTIPLIES BY N = 4 LEAVING RESULT IN L
000814: 22,2656           30001                           CA       L                                     #  ASSUMES N(TPIPOLD-TPIP)/4>TTF/4 IN MAGN.
000815: 22,2657           07367                           TC       DMPNSUB                               #  N(TPIPOLD-TPIP)/4 TO MPAC, TTF UNITS
000816: 22,2660           00006                           EXTEND
000817: 22,2661           31453                           DCA      TTF/4
000818: 22,2662           52145                           DXCH     MPAC                                  #  DIVIDEND TO MPAC
000819: 22,2663           52121                           DXCH     BUF                                   #  DIVISOR TO BUF
000820: 22,2664           05336                           TC       USPRCADR
000821:
000822: 22,2665           00352                           CADR     DDV/BDDV                              #  (TTF/4)/(N(TPIPOLD-TPIP)/4) TO MPAC
000823:
000824: 22,2666           37761                           CA       ZERO
000825: 22,2667           54153                           TS       MODE                                  #  TO INDICATE DP IN MPAC
000826:
000827: 22,2670           06103                           TC       INTPRET
000828: 22,2671           52315                           PDVL     VSU
000829: 22,2672           02171                                    UNAFC/2
000830: 22,2673           02177                                    UNAFC/20
000831: 22,2674           74352                           VSL2     VXSC                                  #  VSL2 UNDOES MP BIT3 PRECEDING
000832: 22,2675           02171                                    UNAFC/2
000833: 22,2676           77655                           VAD
000834:
000835: 22,2677           02171                                    UNAFC/2                               #  YIELDS EXTRAPOLATED UNAFC/2
000836:
000837:                                                                                                  #  SET UP FOR MISSION CONTROL PROGRAM
000838:
000839: 22,2700           15656                           STODL    POINTVSM                              #  STORE FOR KALCMANU
000840: 22,2701           02053                                    TTF/4
000841: 22,2702           41276                           DCOMP    DMP
000842: 22,2703           05561                                    TSCALINV
000843: 22,2704           77615                           DAD
000844: 22,2705           01321                                    PIPTIME
000845:
000846: 22,2706           02057                           STORE    TULLG                                 #  TIME AT WHICH ULLAGE IS TO START
000847:
000848:                                                                                                  #  SET UP FOR BRAKING PHASE
000849:
000850: 22,2707           77776                           EXIT
000851:


000853: 22,2710           04147                           TC       PHASCHNG                              #  PROTECT TTF/4 AND PREVENT REREADING REG-
000854: 22,2711           04022                 +402      OCT      04022                                 #  ISTERS REWRITTEN BY MISN CONT PROGRAM
000855: 22,2712           00006                           EXTEND
000856: 22,2713           31455                           DCA      TTF/4TMP
000857: 22,2714           53453                           DXCH     TTF/4
000858:
000859:                                                                                                  #  RETURN TO MISSION CONTROL PROGRAM
000860:
000861: 22,2715           03373                           TC       PRETINIT                              #  INITIALIZES INTERPRETER
000862: 22,2716           00006                           EXTEND
000863: 22,2717           33553                           DCA      RETPREBL
000864: 22,2720           52006                           DTCB
000865:


000867:                                                                                                  #  EXQDLIN STORES THE SEMI-UNIT VECTOR DEFINING THE DIRECTION OF COMMANDED THRUST ACCELERATION (UNAFC/2) IN THE
000868:                                                                                                  #  APPROPRIATE REGISTERS OF FINDCDUD (AXISD) AND CALLS FINDCDUD AND THROTCON AS SUBROUTINES.
000869:
000870:                                                                                                  #  THEN EXQDLIN TRANSFERS THE COMMANDED THRUST ACCELERATION MAGNITUDE (/AFC/) TO THE APPROPRIATE RESGISTERS OF
000871:                                                                                                  #  THROTCON, (/ACF/), CHANGING SCALING, AND CALLS THROTCON AS A SUBROUTINE.
000872:                                                                                                  #  FINALLY EXQDLIN TERMINATES THE JOB.
000873:
000874: 22,2721           06103        EXQDLIN            TC       INTPRET
000875: 22,2722           77775                           VLOAD
000876: 22,2723           02171                                    UNAFC/2
000877: 22,2724           36233                           STCALL   AXISD
000878: 22,2725           60643                                    FINDCDUD                              #  ATTITUDE CONTROL
000879: 22,2726           77776                           EXIT
000880:
000881:
000882: 22,2727           00006                           EXTEND
000883: 22,2730           33557                           DCA      THROTCOL
000884: 22,2731           52006                           DTCB                                           #  THROTTLE CONTROL
000885: 22,2732           05605                           TC       ENDOFJOB                              #  TERMINATES THE JOB PERIODICALLY STARTED
000886:                                                                                                  #  BY A WAITLIST CALL FROM READACCS
000887:
000888:
000889:
000890:                                                                                                  #  EXFINAL IS THE FINAL EXIT FROM 2DPS. FIRST EXFINAL PLACES THE SEMI-UNIT NORMAL TO THE ORBITAL PLANE (CPT6/2)
000891:                                                                                                  #  IN AXISD AND CALLS FINDCDUD AS A SUBROUTINE. THIS CAUSES FURTHER THRUSTING TO BE NORMAL TO THE ORBITAL PLANE.
000892:                                                                                                  #  THEN EXFINAL TRANSFERS TEH COMMANDED THRUST ACCELERATION MAGNITUDE (/AFC/) TO THE APPROPRIATE REGISTERS OF
000893:
000894:                                                                                                  #  THROTCON, (ACF/), CHANGING SCALING, AND CALLS THROTCON AS A SUBROUTINE.
000895:                                                                                                  #  FINALLY EXFINAL RETURNS TO THE MISSION CONTROL PROGRAM WHICH EXECUTES THE RANDOM THROTTLING.
000896:
000897: 22,2733           06103        EXFINAL            TC       INTPRET
000898: 22,2734           77775                           VLOAD
000899: 22,2735           02357                                    CPT6/2
000900: 22,2736           36233                           STCALL   AXISD
000901: 22,2737           60643                                    FINDCDUD                              #  ATTITUDE CONTROL
000902: 22,2740           77776                           EXIT
000903:
000904: 22,2741           00006                           EXTEND
000905: 22,2742           33557                           DCA      THROTCOL
000906: 22,2743           52006                           DTCB                                           #  THROTTLE CONTROL
000907: 22,2744           03373                           TC       PRETINIT                              #  INITIALIZE INTERPRETER
000908: 22,2745           00006                           EXTEND
000909: 22,2746           33555                           DCA      RETBURNL
000910: 22,2747           52006                           DTCB
000911:


000913:                                                                                                  #  ************************************************************************
000914:                                                                                                  #  SPECIAL PURPOSE SUBROUTINES OF SECOND DPS GUIDANCE
000915:                                                                                                  #  ************************************************************************
000916:
000917:                                                                                                  #  ************************************************************************
000918:                                                                                                  #  IGNITION ALGORITHM
000919:                                                                                                  #  ************************************************************************
000920:
000921:
000922:                                                                                                  #  IGNITN1 EXTRAPOLATES THE GIVEN STATE FORWARD THROUGH THE TIME INTERVAL REQUIRED TO ACCOMPLISH ULLAGE AND TO
000923:                                                                                                  #  LITE AT LOW THRUST AND TRIM THE ENGINE. THE EXTRAPOLATION ENDS AT THE TIME MAXIMUM THRUST WOULD BE COMMANDED
000924:                                                                                                  #  IF THE LITEUP PROCEDURE WERE INITIATED AT THE CURRENT GIVEN TIME. (THE GIVEN TIME IS NOT TRUE. ALL GIVEN
000925:                                                                                                  #  CONDITIONS INCLUDE A FREE-FALL EXTRAPOLATION OF THE ACTUAL ORBIT.) THE EXTRAPOLATION PERFORMED BY IGNITN1
000926:                                                                                                  #  INCLUDES ALL EFFECTS OF ENGINE THRUST DURING THE LITEUP PROCEDURE, AND IT USES THE
000927:                                                                                                  #  THRUST POINTING DIRECTION WHICH WILL BE COMMANDED AT THE INITIATION OF MAXIMUM THRUST.
000928:                                                                                                  #  THIS EXTRAPOLATED STATE IS THEN FED TO THE GUIDANCE EQUATIONS, WHICH COMPUTE THE THRUST POINTING
000929:                                                                                                  #  DIRECTION (UNAFC/2) AND THE THRUST ACCELERATION MAGNITUDE COMMAND (/AFC/).
000930:
000931:                                                                                                  #  IGNITN2 THEN RECEIVES THIS OUTPUT DATA FROM THE GUIDANCE EQUATIONS AND DETERMINES WHETHER THE THRUST
000932:
000933:                                                                                                  #  ACCELERATION MAGNITUDE COMMAND IS MONOTONICALLY INCREASING. WHEN IT IS, IGNITN2 USES THE PRESENT AND PREVIOUS
000934:                                                                                                  #  VALUES TO COMPUTE ONE QUARTER OF THE PRESENT TIME (TTF/4) RELATIVE TO THE TIME AT WHICH THE THRUST
000935:                                                                                                  #  ACCELERATION MAGNITUDE COMMAND WILL REACH THE CRITERION VALUE (/AFC/CR) WHICH CORRESPONDS TO MAXIMUM THROTTLE.
000936:                                                                                                  #  WHEN TTF/4 SO COMPUTED REACHES THE TIME CRITERION FOR TERMINATING THE PREBURN PHASE (TTF/4CR),
000937:                                                                                                  #  EXIGEND IS PROCESSED, TERMINATING THE PHASE AND RETURNING CONTROL TO THE MISSION CONTROL PROGRAM.
000938:                                                                                                  #  THE MISSION CONTROL PROGRAM EXECUTES THE COMPUTED IGNITION SEQUENCE. IGNITN2 MUST ALSO, ON EACH PASS,
000939:                                                                                                  #  REESTABLISH CERTAIN DATA REQUIRED FOR THE SUBSEQUENT PASS.
000940:
000941:                                                                                                  #  IGNITION ALGORITHM PART 1
000942:                                                                                                  #  ************************************************************************
000943:
000944:                                                                                                  #  DO TEMPORARY STORAGE
000945:
000946: 22,2750           06103        IGNITN1            TC       INTPRET
000947: 22,2751           77745                           DLOAD
000948: 22,2752           02165                                    /AFC/
000949: 22,2753           26167                           STOVL    /AFC/OLD                              #  OLD VALUE OF /AFC/ FOR USE BY IGNITN2
000950:
000951: 22,2754           02171                                    UNAFC/2
000952: 22,2755           26177                           STOVL    UNAFC/20                              #  OLD VALUE OF UNAFC/2
000953:
000954:                                                                                                  #  EXTRAPOLATE STATE
000955:
000956:
000957: 22,2756           02061                                    R
000958: 22,2757           24011                           STOVL    RDUM
000959: 22,2760           02071                                    V
000960: 22,2761           24017                           STOVL    VDUM
000961: 22,2762           02213                                    GDOTM1
000962: 22,2763           14025                           STODL    JDUM
000963: 22,2764           05407                                    PFCULLG                               #  ULLAGE PERIOD
000964: 22,2765           14007                           STODL    PDUM                                  #  DUMMY PERIOD
000965: 22,2766           05411                                    AFULLG                                #  LEAVE AFULLG IN MPAC
000966:


000968: 22,2767           77624                           CALL                                           #  EXTRAPOLATES DUMMY STATE AND
000969:
000970: 22,2770           45124                                    XTRIGN1                               #  LEAVES INITIAL GRAVITY IN GDUM
000971:
000972: 22,2771           77775                           VLOAD
000973: 22,2772           00033                                    GDUM
000974: 22,2773           16205                           STODL    GDUMPRES                              #  SAVE INITL GRAVITY FOR COMPUTING GDOTM1
000975:
000976: 22,2774           05413                                    PFCLITE                               #  LITEUP PERIOD
000977: 22,2775           14007                           STODL    PDUM
000978: 22,2776           05415                                    AFLITE                                #  LEAVE AFLITE IN MPAC
000979: 22,2777           77624                           CALL
000980: 22,3000           45124                                    XTRIGN1                               #  EXTRAPOLATE
000981:
000982:
000983: 22,3001           77745                           DLOAD
000984: 22,3002           05417                                    PFCTRIM                               #  TRIM PERIOD
000985: 22,3003           14007                           STODL    PDUM
000986: 22,3004           05421                                    AFTRIM                                #  LEAVE AFTRIM IN MPAC
000987: 22,3005           77624                           CALL
000988: 22,3006           45124                                    XTRIGN1                               #  YIELDS FINAL EXTRAPOLATED STATE
000989:
000990: 22,3007           77775                           VLOAD
000991: 22,3010           00011                                    RDUM
000992: 22,3011           26113                           STOVL    RTEMP                                 #  RESTART PROTECTION FOR EXTRAPOLATED R
000993:
000994: 22,3012           00017                                    VDUM
000995: 22,3013           36121                           STCALL   VTEMP                                 #  RESTART PROTECTION FOR EXTRAPOLATED V
000996:
000997:                                                                                                  #  COMPUTE DERIVATIVE OF GRAVITY
000998:
000999: 22,3014           45363                                    GDUMCL                                #  YIELDS FINAL GRAVITY IN MPAC AND GDUM
001000: 22,3015           70251                           VSU      V/SC
001001: 22,3016           02205                                    GDUMPRES
001002: 22,3017           05401                                    PPHM1                                 #  COMPLETES COMPUTATION OF DERIV OF G
001003: 22,3020           02213                           STORE    GDOTM1                                #  FOR USE NEXT PASS. PROTECTION NOT RQD.
001004: 22,3021           77776                           EXIT
001005:
001006:
001007:                                                                                                  #  GENERATION OF EXTRAPOLATED DATA COMPLETE. PROTECT AND TRANSFER TO STORAGE.
001008:
001009: 22,3022           04147                           TC       PHASCHNG                              #  PROTECT R, V
001010: 22,3023           04022                 +402      OCT      04022
001011: 22,3024           06103                           TC       INTPRET
001012: 22,3025           77745                           DLOAD
001013: 22,3026           02055                                    TTF/4TMP
001014: 22,3027           26053                           STOVL    TTF/4                                 #  RESTORES TTF/4 TO LAST VALUE BY GUIDANCE
001015: 22,3030           02113                                    RTEMP
001016: 22,3031           26061                           STOVL    R                                     #  EXTRAPOLATED R
001017:
001018: 22,3032           02121                                    VTEMP
001019: 22,3033           02071                           STORE    V                                     #  EXTRAPOLATED V
001020: 22,3034           77776                           EXIT
001021: 22,3035           31404                           CA       COUNTFCT
001022: 22,3036           55403                           TS       COUNTFC                               #  FOR IGNITN2
001023:


001025: 22,3037           03205                           TC       XTRTPIP                               #  YIELDS TPIP EXTRAPOLATED
001026: 22,3040           12164                           TCF      RETIGN1
001027:
001028:
001029:
001030:                                                                                                  #  IGNITION ALGORITHM PART 2
001031:
001032:                                                                                                  #  ************************************************************************
001033:
001034: 22,3041           00006        IGNITN2            EXTEND
001035: 22,3042           31453                           DCA      TTF/4
001036: 22,3043           53455                           DXCH     TTF/4TMP                              #  SAVE TTF/4 FOR NEXT PASS
001037: 22,3044           04147                           TC       PHASCHNG                              #  PROTECT TTF/4
001038: 22,3045           04022                 +402      OCT      04022
001039: 22,3046           47735                           CS       POSMAX
001040: 22,3047           55452                           TS       TTF/4                                 #  PREVENT PREMATURE TERMINATION OF PREBURN
001041:
001042:                                                                                                  #  TEST WHETHER /AFC/ > /AFC/OLD, IF SO TEST WHETHER COUNTFC = 0.
001043:
001044: 22,3050           00006                           EXTEND
001045: 22,3051           31565                           DCA      /AFC/
001046: 22,3052           52145                           DXCH     MPAC
001047: 22,3053           00006                           EXTEND
001048: 22,3054           41567                           DCS      /AFC/OLD
001049: 22,3055           20145                           DAS      MPAC                                  #  /AFC/-/AFC/OLD IN MPAC
001050:
001051: 22,3056           10144                           CCS      MPAC                                  #  TEST HI ORDER
001052: 22,3057           13065                           TCF      TCOUNTFC
001053: 22,3060           13062                           TCF      TSTLOAFC
001054:
001055: 22,3061           12567                           TCF      RETIGN2    -2                         #  RESET COUNTFC
001056: 22,3062           30145        TSTLOAFC           CA       MPAC       +1                         #  TEST LO ORDER
001057: 22,3063           00006                           EXTEND
001058: 22,3064           62567                           BZMF     RETIGN2    -2                         #  RESET COUNTFC
001059: 22,3065           11403        TCOUNTFC           CCS      COUNTFC
001060: 22,3066           12570                           TCF      RETIGN2    -1                         #  DECREMENT COUNTFC
001061:
001062:                                                                                                  #  RESET TTF/4 BY EXTRAPOLATING /AFC/
001063:
001064:                                                                                                  #  TTF/4 = (1/4)(TPIPOLD-TPIP)(/AFC/-/AFC/CR)/(/AFC/OLD-/AFC/)
001065:
001066: 22,3067           00006                           EXTEND
001067:
001068: 22,3070           31451                           DCA      TPIPOLD
001069: 22,3071           52145                           DXCH     MPAC
001070: 22,3072           00006                           EXTEND
001071: 22,3073           41447                           DCS      TPIP
001072: 22,3074           20145                           DAS      MPAC
001073: 22,3075           37742                           CA       TSCALE
001074: 22,3076           07367                           TC       DMPNSUB                               #  (1/4)(TPIPOLD-TPIP) TO MPAC, TTF UNITS
001075:
001076: 22,3077           00006                           EXTEND
001077: 22,3100           31565                           DCA      /AFC/
001078:


001080: 22,3101           52150                           DXCH     MPAC       +3
001081: 22,3102           00006                           EXTEND
001082:
001083: 22,3103           43405                           DCS      /AFC/CR
001084: 22,3104           20150                           DAS      MPAC       +3
001085: 22,3105           07146                           TC       DMP
001086: 22,3106           00147                           GENADR   MPAC       +3
001087:
001088: 22,3107           00006                           EXTEND
001089: 22,3110           31567                           DCA      /AFC/OLD
001090: 22,3111           52121                           DXCH     BUF
001091: 22,3112           00006                           EXTEND
001092: 22,3113           41565                           DCS      /AFC/
001093:
001094: 22,3114           20121                           DAS      BUF
001095: 22,3115           05336                           TC       USPRCADR
001096: 22,3116           00352                           CADR     DDV/BDDV                              #  YIELDS TTF/4 IN MPAC
001097:
001098: 22,3117           10111                           CCS      OVFIND
001099: 22,3120           12566                           TCF      RETIGN2    -3                         #  IF TTF/4 OVFL. RESETS OVFIND, COUNTFC.
001100:
001101: 22,3121           52145                           DXCH     MPAC
001102: 22,3122           53453                           DXCH     TTF/4
001103: 22,3123           12571                           TCF      RETIGN2
001104:
001105:
001106:
001107:                                                                                                  #  ************************************************************************
001108:                                                                                                  #  SPECIAL PURPOSE STATE EXTRAPOLATION SUBROUTINE FOR IGNITN1
001109:                                                                                                  #  ************************************************************************
001110:
001111:                                                                                                  #  XTRIGN1 RECEIVES THE EXTRAPOLATION PERIOD IN PDUM; THE INITIAL STATE IN RDUM, VDUM; THE THRUST ACCELERATION
001112:                                                                                                  #  MAGNITUDE IN MPAC, DIRECTION IN UNAFC/2; AND JERK IN JDUM.
001113:
001114:                                                                                                  #  IT LEAVES GRAVITY IN GDUM, THE TOTAL INITIAL ACCELERATION IN ADUM, AND THE EXTRAPOLATED STATE IN RDUM, VDUM.
001115:
001116:                                                                                                  #  PRESENTLY THE DUM REGISTERS OCCUPY LOCATIONS FIXLOC +6 THRU FIXLOC +45 OCTAL.
001117:
001118: 22,3124           77620        XTRIGN1            STQ
001119: 22,3125           02007                                    RETXIGN1                              #  SAVE QPRET
001120: 22,3126           74352                           SL1      VXSC
001121: 22,3127           02171                                    UNAFC/2
001122: 22,3130           45006                           PUSH     CALL                                  #  PUSHES AF UNAFC
001123: 22,3131           45363                                    GDUMCL                                #  YIELDS GRAVITY IN MPAC AND GDUM
001124: 22,3132           45455                           VAD      STADR
001125: 22,3133           77736                           STORE    ADUM                                  #  ADUM = AF UNAFC+G
001126: 22,3134           77624                           CALL
001127: 22,3135           45333                                    XTRDUMST                              #  EXTRAPOLATES RDUM, VDUM
001128: 22,3136           77650                           GOTO
001129: 22,3137           02007                                    RETXIGN1
001130:


001132:                                                                                                  #  ************************************************************************
001133:                                                                                                  #  LINEAR GUIDANCE - SPHERICAL ACCELERATION AS LINEAR TIME FUNCTION
001134:                                                                                                  #  ************************************************************************
001135:
001136:                                                                                                  #  SET LINEAR GUIDANCE COEFFICIENTS IN EVEN NUMBERED PHASES
001137:                                                                                                  #  ************************************************************************
001138:
001139: 22,3140           02127        LSETEVN            TC       NTLZPASS
001140:
001141: 22,3141           06103                           TC       INTPRET
001142: 22,3142           77773                           VLOAD*
001143: 22,3143           05424                                    ADS,1                                 #  -       -
001144: 22,3144           16205                           STODL    ALINS                                 #  ALINS = ADS
001145: 22,3145           02153                                    AFCS       +2
001146: 22,3146           77615                           DAD
001147: 22,3147           02137                                    ASPRT      +2
001148: 22,3150           02145                           STORE    ACS        +2
001149: 22,3151           26207                           STOVL    ALINS      +2                         #  ALINS  = ACS  = AFCS  + ASPRT
001150: 22,3152           02205                                    ALINS                                 #       2      2       2        2
001151: 22,3153           77650                           GOTO
001152: 22,3154           45162                                    LINSET
001153:
001154:                                                                                                  #  SET LINEAR GUIDANCE COEFFICIENTS IN ODD NUMBERED PHASES
001155:                                                                                                  #  ************************************************************************
001156:
001157: 22,3155           02127        LSETODD            TC       NTLZPASS
001158: 22,3156           06103                           TC       INTPRET
001159: 22,3157           77773                           VLOAD*
001160: 22,3160           05424                                    ADS,1                                 #  -       -
001161: 22,3161           02205                           STORE    ALINS                                 #  ADINS = ADS
001162:
001163:
001164:                                                                                                  #  COMMON PARTS OF LSETEVN AND LSETODD
001165:                                                                                                  #  ************************************************************************
001166:
001167: 22,3162           77645        LINSET             BVSU
001168: 22,3163           02143                                    ACS
001169: 22,3164           70342                           VSR2     V/SC
001170: 22,3165           02053                                    TTF/4                                 #  -            -     -
001171: 22,3166           02213                           STORE    JLINS                                 #  JLINS = 1/4 (ACS - ALINS)/(TTF/4)
001172: 22,3167           77776                           EXIT
001173: 22,3170           12211                           TCF      TTFINCR    +1
001174:
001175:                                                                                                  #  LINEAR GUIDANCE EQUATIONS
001176:                                                                                                  #  ************************************************************************
001177:
001178: 22,3171           06103        LINGUID            TC       INTPRET
001179: 22,3172           74375                           VLOAD    VXSC
001180: 22,3173           02213                                    JLINS
001181: 22,3174           02053                                    TTF/4
001182: 22,3175           77752                           VSL2
001183: 22,3176           52255                           VAD      VSU
001184:


001186: 22,3177           02205                                    ALINS
001187:
001188: 22,3200           02135                                    ASPRT                                 #  -        -               -       -
001189: 22,3201           16151                           STODL    AFCS                                  #  AFCS = 4 JLINS/(TTF/4) + ALINS - ASPRT
001190: 22,3202           02155                                    AFCS       +4
001191: 22,3203           77650                           GOTO
001192: 22,3204           44543                                    AFCCALC
001193:
001194:
001195:
001196:                                                                                                  #  ************************************************************************
001197:                                                                                                  #  SUBROUTINE TO SET TPIP EXTRAPOLATED
001198:                                                                                                  #  ************************************************************************
001199:
001200: 22,3205           00006        XTRTPIP            EXTEND
001201: 22,3206           31321                           DCA      PIPTIME
001202: 22,3207           53447                           DXCH     TPIP
001203: 22,3210           00006                           EXTEND
001204: 22,3211           33403                           DCA      PPHM1CS
001205: 22,3212           21447                           DAS      TPIP
001206: 22,3213           00002                           TC       Q
001207:


001209:                                                                                                  #  ************************************************************************
001210:                                                                                                  #  GENERAL PURPOSE SUBROUTINES CONTRIBUTED BY SECOND DPS GUIDANCE
001211:                                                                                                  #  ************************************************************************
001212:
001213:                                                                                                  #  ************************************************************************
001214:                                                                                                  #  DOUBLE PRECISION ROOT FINDER SUBROUTINE
001215:                                                                                                  #  ************************************************************************
001216:
001217:                                                                                                  #                                                          N        N-1
001218:                                                                                                  #           ROOTPSRS FINDS ONE ROOT OF THE POWER SERIES A X  + A   X    + ... + A X + A
001219:                                                                                                  #                                                        N      N-1              1     0
001220:
001221:                                                                                                  #  USING NEWTON'S METHOD STARTING WITH AN INITIAL GUESS FOR THE ROOT. THE ENTERING DATA MUST BE AS FOLLOWS:
001222:
001223:                                                                                                  #                                          A        SP     LOC-3           ADRES FOR REFERENCING PWR COF TABL
001224:                                                                                                  #                                          L        SP     N-1             N IS THE DEGREE OF THE POWER SERIES
001225:                                                                                                  #                                          MPAC     DP     X               INITIAL GUESS FOR ROOT
001226:
001227:                                                                                                  #                                          LOC-2N   DP     A(0)
001228:                                                                                                  #                                                   ...
001229:                                                                                                  #                                          LOC      DP     A(N)
001230:                                                                                                  #                                          LOC+2    SP     PRECROOT        PREC RQD OF ROOT (AS FRACT OF 1ST GUESS)
001231:
001232:                                                                                                  #  THE DP RESULT IS LEFT IN MPAC UPON EXIT, AND A SP COUNT OF THE ITERATIONS TO CONVERGENCE IS LEFT IN MPAC+2.
001233:                                                                                                  #  RETURN IS TO LOC(TC POWRSERS)+1.
001234:
001235:                                                                                                  #           PRECAUTION: ROOTPSRS MAKES NO CHECKS FOR OVERFLOW OR FOR IMPROPER USAGE. IMPROPER USAGE COULD
001236:                                                                                                  #  PRECLUDE CONVERGENCE OR REQUIRE EXCESSIVE ITERATIONS. AS A SPECIFIC EXAMPLE, ROOTPSRS FORMS A DERIVATIVE
001237:
001238:                                                                                                  #  COEFFICIENT TABLE BY MULTIPLYING EACH A(I) BY I, WHERE I RANGES FROM 1 TO N. IF AN ELEMENT OF THE DERIVATIVE
001239:                                                                                                  #  COEFFICIENT TABLE = 1 OR > 1 IN MAGNITUDE, ONLY THE EXCESS IS RETAINED. ROOTPSRS MAY CONVERGE ON THE CORRECT
001240:                                                                                                  #  ROOT NONETHELESS, BUT IT MAY TAKE AN EXCESSIVE NUMBER OF ITERATIONS. THEREFORE THE USER SHOULD RECOGNIZE:
001241:
001242:                                                                                                  #  1. USER'S RESPONSIBILITY TO ASSURE THAT I X A(I) < 1 IN MAGNITUDE FOR ALL I.
001243:
001244:                                                                                                  #  2. USER'S RESPONSIBILITY TO ASSURE OVERFLOW WILL NOT OCCUR IN EVALUATING EITHER THE RESIDUAL OR THE DERIVATIVE
001245:                                                                                                  #     POWER SERIES. THIS OVERFLOW WOULD BE PRODUCED BY SUBROUTINE POWRSERS, CALLED BY ROOTPSRS, AND MIGHT NOT
001246:                                                                                                  #     PRECLUDE EVENTUAL CONVERGENCE.
001247:
001248:                                                                                                  #  3. AT PRESENT, ERASABLE LOCATIONS ARE RESERVED ONLY FOR N UP TO 5. AN N IN EXCESS OF 5 WILL PRODUCE CHAOS.
001249:                                                                                                  #     ALL ERASABLES USED BY ROOTPSRS ARE UNSWITCHED LOCATED IN THE REGION FROM MPAC-33 OCT TO MPAC+7.
001250:
001251:                                                                                                  #  4. THE ITERATION COUNT RETURNED IN MPAC+2 MAY BE USED TO DETECT ABNORMAL PERFORMANCE.
001252:
001253:                                                                                                  #  STORE ENTERING DATA, INITLIZE ERASABLES
001254:
001255: 22,3214           00006        ROOTPSRS           EXTEND
001256: 22,3215           22122                           QXCH     RETROOT                               #  RETURN ADRES
001257: 22,3216           54107                           TS       PWRPTR                                #  PWR TABL POINTER
001258: 22,3217           52150                           DXCH     MPAC       +3                         #  PWR TABL ADRES, N-1
001259: 22,3220           33332                           CA       DERTABLL
001260:


001262: 22,3221           54131                           TS       DERPTR                                #  DER TABL POINTER
001263: 22,3222           54151                           TS       MPAC       +5                         #  DER TABL ADRES
001264:
001265: 22,3223           10150                           CCS      MPAC       +4                         #  NO POWER SERIES OF DEGREE 1 OR LESS
001266: 22,3224           54152                           TS       MPAC       +6                         #  N-2
001267: 22,3225           37761                           CA       ZERO                                  #  MODE USED AS ITERATION COUNTER. MODE
001268: 22,3226           54153                           TS       MODE                                  #  MUST BE POS SO ABS WON'T COMP MPAC+3 ETC
001269:
001270:                                                                                                  #  COMPUTE CRITERION TO STOP ITERATING
001271:
001272: 22,3227           00006                           EXTEND
001273: 22,3230           30145                           DCA      MPAC                                  #  FETCH ROOT GUESS, KEEPING IT IN MPAC
001274: 22,3231           52117                           DXCH     ROOTPS                                #  AND IN ROOTPS
001275:
001276: 22,3232           50147                           INDEX    MPAC       +3                         #  PWR TABL ADRES
001277: 22,3233           30005                           CA       5                                     #  PRECROOT TO A
001278: 22,3234           07351                           TC       SHORTMP                               #  YIELDS DP PRODUCT IN MPAC
001279: 22,3235           05336                           TC       USPRCADR
001280: 22,3236           01174                           CADR     ABS                                   #  YIELDS ABVAL OF CRITERION ON DX IN MPAC
001281: 22,3237           52145                           DXCH     MPAC
001282: 22,3240           52115                           DXCH     DXCRIT                                #  CRITERION
001283:
001284:                                                                                                  #  SET UP DER COF TABL
001285:
001286: 22,3241           00006                           EXTEND
001287: 22,3242           50107                           INDEX    PWRPTR
001288:
001289: 22,3243           30004                           DCA      3
001290: 22,3244           52145                           DXCH     MPAC                                  #  A(N) TO MPAC
001291:
001292: 22,3245           30150                           CA       MPAC       +4                         #  N-1 TO A
001293:
001294: 22,3246           54130        DERCLOOP           TS       PWRCNT                                #  LOOP COUNTER
001295: 22,3247           67755                           AD       ONE
001296: 22,3250           07367                           TC       DMPNSUB                               #  YIELDS DERCOF = I X A(I) IN MPAC
001297: 22,3251           00006                           EXTEND
001298: 22,3252           50107                           INDEX    PWRPTR
001299:
001300: 22,3253           30002                           DCA      1
001301: 22,3254           52145                           DXCH     MPAC                                  #  A(I-1) TO MPAC, FETCHING DERCOF
001302: 22,3255           50131                           INDEX    DERPTR
001303: 22,3256           52004                           DXCH     3                                     #  DERCOF TO DER TABL
001304: 22,3257           47754                           CS       TWO
001305: 22,3260           26107                           ADS      PWRPTR                                #  DECREMENT PWR POINTER
001306: 22,3261           47754                           CS       TWO
001307: 22,3262           26131                           ADS      DERPTR                                #  DECREMENT DER POINTER
001308: 22,3263           10130                           CCS      PWRCNT
001309: 22,3264           13246                           TCF      DERCLOOP
001310:
001311:                                                                                                  #  CONVERGE ON ROOT
001312:
001313:
001314: 22,3265           00006        ROOTLOOP           EXTEND
001315: 22,3266           30117                           DCA      ROOTPS                                #  FETCH CURRENT ROOT
001316: 22,3267           52145                           DXCH     MPAC                                  #  LEAVE IN MPAC
001317:


001319: 22,3270           00006                           EXTEND
001320: 22,3271           30152                           DCA      MPAC       +5                         #  LOAD A, L WITH DER TABL ADRES, N-2
001321: 22,3272           07260                           TC       POWRSERS                              #  YIELDS DERIVATIVE IN MPAC
001322:
001323: 22,3273           00006                           EXTEND
001324: 22,3274           30117                           DCA      ROOTPS
001325: 22,3275           52145                           DXCH     MPAC                                  #  CURRENT ROOT TO MPAC, FETCHING DERIVTIVE
001326: 22,3276           52121                           DXCH     BUF                                   #  LEAVE DERIVATIVE IN BUF AS DIVISOR
001327:
001328: 22,3277           00006                           EXTEND
001329: 22,3300           30150                           DCA      MPAC       +3                         #  LOAD A, L WITH PWR TABL ADRES, N-1
001330: 22,3301           07260                           TC       POWRSERS                              #  YIELDS RESIDUAL IN MPAC
001331:
001332: 22,3302           05336                           TC       USPRCADR
001333: 22,3303           00352                           CADR     DDV/BDDV                              #  YIELDS -DX IN MPAC
001334:
001335: 22,3304           00006                           EXTEND
001336: 22,3305           40145                           DCS      MPAC                                  #  FETCH DX, LEAVING -DX IN MPAC
001337: 22,3306           20117                           DAS      ROOTPS                                #  CORRECTED ROOT NOW IN ROOTPS
001338:
001339:
001340: 22,3307           05336                           TC       USPRCADR
001341: 22,3310           01174                           CADR     ABS                                   #  YIELDS ABS(DX) IN MPAC
001342: 22,3311           00006                           EXTEND
001343: 22,3312           40115                           DCS      DXCRIT
001344: 22,3313           20145                           DAS      MPAC                                  #  ABS(DX)-ABS(DXCRIT) IN MPAC
001345:
001346: 22,3314           24153                           INCR     MODE                                  #  INCREMENT ITERATION COUNTER
001347:
001348: 22,3315           10144                           CCS      MPAC                                  #  TEST HI ORDER DX
001349: 22,3316           13265                           TCF      ROOTLOOP
001350: 22,3317           13321                           TCF      TESTLODX
001351:
001352: 22,3320           13325                           TCF      ROOTSTOR
001353: 22,3321           10145        TESTLODX           CCS      MPAC       +1                         #  TEST LO ORDER DX
001354: 22,3322           13265                           TCF      ROOTLOOP
001355: 22,3323           13325                           TCF      ROOTSTOR
001356: 22,3324           13325                           TCF      ROOTSTOR
001357: 22,3325           52117        ROOTSTOR           DXCH     ROOTPS
001358: 22,3326           52145                           DXCH     MPAC                                  #  STORE DP ROOT IN MPAC, MPAC+1
001359: 22,3327           30153                           CA       MODE
001360: 22,3330           54146                           TS       MPAC       +2                         #  STORE SP ITERATION COUNT IN MPAC+2
001361: 22,3331           00122                           TC       RETROOT
001362:
001363: 22,3332           00137        DERTABLL           ADRES    DERCOFN    -3
001364:


001366:                                                                                                  #  ************************************************************************
001367:                                                                                                  #  GENERAL PURPOSE SUBROUTINE FOR EXTRAPOLATING DUMMY STATE RDUM, VDUM
001368:                                                                                                  #  ************************************************************************
001369:
001370:                                                                                                  #  XTRDUMST REQUIRES THE EXTRAPOLATION PERIOD, INITIAL POSITION, INITIAL VELOCITY, INITIAL ACCELERATION, JERK
001371:                                                                                                  #  TO ARRIVE IN PDUM, RDUM, VDUM, ADUM, JDUM.
001372:
001373:                                                                                                  #  IT LEAVES THE EXTRAPOLATED STATE IN RDUM, VDUM.
001374:
001375:                                                                                                  #  PRESENTLY THE DUM REGISTERS ARE LOCATIONS FIXLOC +6 THRU FIXLOC +31 OCTAL, AND FIXLOC +40 OCTAL THRU
001376:                                                                                                  #  FIXLOC +45 OCTAL.
001377:
001378:                                                                                                  #                                              2            3
001379:                                                                                                  #  THE EQNS ARE RDUM = RDUM+VDUM PDUM+ADUM PDUM /2+JDUM PDUM /6,
001380:
001381:                                                                                                  #                                              2
001382:                                                                                                  #               VDUM = VDUM+ADUM PDUM+JDUM PDUM /2.
001383:
001384:                                                                                                  #  THEY ARE PROGRAMMED AS RDUM = ((JDUM PDUM/3+ADUM)PDUM/2+VDUM)PDUM+RDUM
001385:
001386:                                                                                                  #                         VDUM = (JDUM PDUM/2+ADUM)PDUM+VDUM
001387:
001388: 22,3333           77745        XTRDUMST           DLOAD
001389: 22,3334           00007                                    PDUM
001390: 22,3335           74205                           DMP      VXSC
001391:
001392: 22,3336           05571                                    1/3DP
001393: 22,3337           00025                                    JDUM
001394: 22,3340           74255                           VAD      VXSC
001395: 22,3341           00041                                    ADUM
001396: 22,3342           00007                                    PDUM
001397: 22,3343           53362                           VSR1     VAD
001398: 22,3344           00017                                    VDUM
001399: 22,3345           53361                           VXSC     VAD
001400: 22,3346           00007                                    PDUM
001401: 22,3347           00011                                    RDUM
001402: 22,3350           14011                           STODL    RDUM                                  #  EXTRAPOLATED RDUM. NO RESTART PROTECTION
001403:
001404:
001405: 22,3351           00007                                    PDUM
001406: 22,3352           74362                           SR1R     VXSC
001407: 22,3353           00025                                    JDUM
001408: 22,3354           74255                           VAD      VXSC
001409: 22,3355           00041                                    ADUM
001410: 22,3356           00007                                    PDUM
001411: 22,3357           77655                           VAD
001412: 22,3360           00017                                    VDUM
001413: 22,3361           00017                           STORE    VDUM                                  #  EXTRAPOLATED VDUM. NO RESTART PROTECTION
001414: 22,3362           77616                           RVQ
001415:


001417:                                                                                                  #  ************************************************************************
001418:                                                                                                  #  DUMMY GRAVITY SUBROUTINE
001419:                                                                                                  #  ************************************************************************
001420:
001421:                                                                                                  #  GDUMCL COMPUTES GRAVITY GIVEN POSITION IN RDUM, LEAVING RESULT IN MPAC AND GDUM.
001422:
001423:                                                                                                  #                                          2
001424:                                                                                                  #  GDUM =-MUEARTH UNIT(RDUM)/((ABVAL(RDUM)) )
001425:
001426: 22,3363           57575        GDUMCL             VLOAD    VCOMP
001427: 22,3364           00011                                    RDUM
001428: 22,3365           74256                           UNIT     VXSC
001429: 22,3366           21143                                    MUEARTH
001430: 22,3367           76541                           V/SC     VSL1                                  #  SHIFT COMPENSATES FOR SEMI-UNIT
001431: 22,3370           00043                                    42
001432: 22,3371           00033                           STORE    GDUM
001433: 22,3372           77616                           RVQ
001434:
001435:
001436:
001437:                                                                                                  #  ************************************************************************
001438:                                                                                                  #  INTERPRETER INITIALIZATION SUBROUTINE
001439:                                                                                                  #  ************************************************************************
001440:
001441: 22,3373           30110        PRETINIT           CA       FIXLOC
001442: 22,3374           54156                           TS       PUSHLOC
001443: 22,3375           37761                           CA       ZERO
001444: 22,3376           54111                           TS       OVFIND
001445: 22,3377           00002                           TC       Q
001446:


001448:                                                                                                  #  ************************************************************************
001449:                                                                                                  #  SECOND DPS TARGET PARAMETERS
001450:
001451:                                                                                                  #  ************************************************************************
001452:
001453:                                                                                                  #  PARAMETER TABLE INDIRECT ADDRESSES
001454:
001455: 22,3400  22,3422               TTF/4NU            =        TTF/4N0X
001456: 22,3400  22,3423               ADS                =        A0XS
001457: 22,3400  22,3431               RDS                =        R0XS
001458: 22,3400  22,3437               VDS                =        V0XS
001459: 22,3400  22,3445               JDS2               =        J0XS2
001460: 22,3400  22,3447               MADP2              =        MA0XP2
001461:
001462:
001463:                                                                                                  #  A CONSISTENT SET OF UNITS IS USED THRUOUT THE SECOND DPS GUIDANCE. THESE UNITS ARE:
001464:                                                                                                  #  TIME 2(  15)CS; LENGTH 2(  24)M; ANGLE 2(   0)RAD.
001465:
001466:                                                                                                  #  IGNITION ALGORITHM - PREBURN PARAMETERS
001467:                                                                                                  #  ************************************************************************
001468:
001469: 22,3400           03213 00000  PPHM1              2DEC*    +3.350000000 E+3        B-15*
001470:
001471: 22,3402           00000 06426  PPHM1CS            2DEC*    +3.350000000 E+3        B-28*
001472:
001473: 22,3404           00466 37617  /AFC/CR            2DEC*    +2.965861098 E-4        B+6*
001474:
001475:
001476: 22,3406           00567 00000  PFCULLG            2DEC*    +7.500000000 E+2        B-15*
001477:
001478: 22,3410           00006 13657  AFULLG             2DEC*    +6.074952094 E-6        B+6*
001479:
001480: 22,3412           00226 00000  PFCLITE            2DEC*    +3.000000000 E+2        B-15*
001481:
001482: 22,3414           00041 21100  AFLITE             2DEC*    +3.198162867 E-5        B+6*
001483:
001484: 22,3416           02176 00000  PFCTRIM            2DEC*    +2.300000000 E+3        B-15*
001485:
001486:
001487: 22,3420           00041 22563  AFTRIM             2DEC*    +3.202931538 E-5        B+6*
001488:


001490:                                                                                                  #  PARAMETER TABLE FOR BURN PHASES
001491:                                                                                                  #  ************************************************************************
001492:
001493: 22,3422           65006        TTF/4N0X           DEC*     -1.125000000 E+4        B-15*
001494:
001495: 22,3423           77646 43535  A0XS               2DEC*    -8.572092116 E-5        B+6*
001496:
001497: 22,3425           00000 00000                     2DEC     0          B-28
001498:
001499:
001500: 22,3427           02376 35641                     2DEC*    +7.269884947 E-11       B+30*
001501:
001502: 22,3431           14634 00651  R0XS               2DEC*    +6.713370537 E+6        B-24*
001503:
001504: 22,3433           00000 00000                     2DEC     0          B-28
001505:
001506: 22,3435           00255 00717                     2DEC*    +1.056080555 E-2        B-0*
001507:
001508: 22,3437           77735 66716  V0XS               2DEC*    -1.071382748 E+0        B-9*
001509:
001510:
001511: 22,3441           00000 00000                     2DEC     0          B-28
001512:
001513: 22,3443           77024 46232                     2DEC*    -9.160545259 E-7        B+15*
001514:
001515: 22,3445           01260 30176  J0XS2              2DEC*    +1.194804087 E-15       B+45*
001516:
001517: 22,3447           01727 22763  MA0XP2             2DEC*    +5.156859816 E+8        B-33*
001518:


001520: 22,3451           75435        TTF/4N0F           DEC*     -2.500000000 E+3        B-15*
001521:
001522:
001523: 22,3452           77713 45300  A0FS               2DEC*    -5.038447857 E-5        B+6*
001524:
001525: 22,3454           00000 00000                     2DEC     0          B-28
001526:
001527: 22,3456           01357 27066                     2DEC*    +4.273045103 E-11       B+30*
001528:
001529: 22,3460           14617 11361  R0FS               2DEC*    +6.700335070 E+6        B-24*
001530:
001531: 22,3462           00000 00000                     2DEC     0          B-28
001532:
001533: 22,3464           00067 06341                     2DEC*    +3.369214099 E-3        B-0*
001534:
001535:
001536: 22,3466           77716 61241  V0FS               2DEC*    -1.545589897 E+0        B-9*
001537:
001538: 22,3470           00000 00000                     2DEC     0          B-28
001539:
001540: 22,3472           77354 43410                     2DEC*    -5.138853270 E-7        B+15*
001541:
001542: 22,3474           00441 31226  J0FS2              2DEC*    +5.027062289 E-16       B+45*
001543:
001544: 22,3476           01727 22763  MA0FP2             2DEC*    +5.156859816 E+8        B-33*
001545:
001546:
001547:
001548: 22,3500           77715        TTF/4NU1           DEC*     -1.000000000 E+2        B-15*
001549:
001550: 22,3501           00064 34377  A1FS               2DEC*    +5.044035031 E-5        B+6*
001551:
001552: 22,3503           00000 00000                     2DEC*    0          B-28
001553:
001554: 22,3505           01360 21617                     2DEC*    +4.277783493 E-11       B+30*
001555:


001560: 22,3507           74550        TTF/4NU2           OCT      74550
001561:
001562: 22,3510           00213 25223  A2FS               2DEC*    +1.331951587 E-4        B+6*
001563:
001564: 22,3512           00000 00000                     2DEC     0          B-28
001565:
001566:
001567: 22,3514           00536 14712                     2DEC*    +1.991810043 E-11       B+30*
001568:
001569: 22,3516           14602 17421  R2FS               2DEC*    +6.687217073 E+6        B-24*
001570:
001571: 22,3520           00000 00000                     2DEC     0          B-28
001572:
001573: 22,3522           00000 06001                     2DEC*    +1.144811884 E-5        B-0*
001574:
001575: 22,3524           77774 45220  V2FS               2DEC*    -1.198407174 E-1        B-9*
001576:
001577: 22,3526           00000 00000                     2DEC     0          B-28
001578:
001579: 22,3530           77764 43337                     2DEC*    -2.215170344 E-8        B+15*
001580:
001581: 22,3532           74137 67600  J2FS2              2DEC*    -3.386627333 E-15       B+45*
001582:
001583: 22,3534           01727 22763  MA2FP2             2DEC*    +5.156859816 E+8        B-33*
001584:
001585:
001586:
001587: 22,3536           77602        TTF/4NU3           DEC*     -2.500000000 E+2        B-15*
001588:
001589: 22,3537           00000 00000  A3FS               2DEC*    +1.536879692 E-13       B+6*
001590:
001591: 22,3541           00000 00000                     2DEC*    0          B-28
001592:
001593: 22,3543           00654 37552                     2DEC*    +2.438530673 E-11       B+30*
001594:


001596:                                                                                                  #  ************************************************************************
001597:                                                                                                  #  SECOND DPS CONSTANTS
001598:
001599:                                                                                                  #  ************************************************************************
001600:
001601:                                                                                                  #  ADDRESS CONSTANTS
001602:
001603: 22,3545           02000        E2DPSL             ECADR    E2DPS                                 #  FOR ACCESSING EBANK OF 2DPS
001604: 22,3546  E4,1400                                  EBANK=   E2DPS
001605: 22,3546           02033 44004  IGNALGL            2BCADR   IGNALG
001606:
001607:
001608:                                                                                                  #  THE NEXT TWO CONSTANTS MUST BE KEPT
001609:                                                                                                  #  IN ORDER AND ADJACENT
001610: 22,3550           01436        TABLTTFL           ADRES    TABLTTF    +3                         #  ADRES TO REF TTF TABL
001611: 22,3551           00002        DEGTTF-1           OCT      2                                     #  DEGREE-1 OF TTF POWER SERIES
001612:
001613: 22,3552  E4,1662                                  EBANK=   EMP11JOB
001614: 22,3552           02025 74064  RETPREBL           2BCADR   RETPREB
001615:
001616: 22,3554  E4,1662                                  EBANK=   EMP11JOB
001617: 22,3554           02172 74064  RETBURNL           2BCADR   RETBURN
001618:
001619: 22,3556  E5,1557                                  EBANK=   ETHROT
001620: 22,3556           03377 60065  THROTCOL           2BCADR   THROTCON
001621:
001622:
001623:                                                                                                  #  ARITHMETIC FRACTIONS AND INTEGERS
001624:
001625: 22,3560     7742               TSCALE             =        BIT12
001626:
001627: 22,3560           00010        TSCALINV           OCT      00010
001628: 22,3561           00000        ZEROPOS            OCT      00000                                 #  LO ORDER PART OF TSCALINV, AND
001629: 22,3562           00000                           OCT      00000                                 #  FIRST COMPONENT OF ZERO VECTOR
001630: 22,3563           77777        ZERONEG            OCT      77777
001631:
001632: 22,3564           77777                           OCT      77777
001633: 22,3565           00000                           OCT      00000                                 #  LAST COMPONENT OF ZERO VECTOR, AND
001634: 22,3566           00000        PIGNALG            OCT      00000                                 #  HI ORDER PART OF PIGNALG, TPIP UNITS
001635: 22,3567           00310                           DEC      +2         E+2B-14                    #  LO ORDER PART OF PIGNALG, TPIP UNITS
001636:
001637: 22,3570           12525 12525  1/3DP              2DEC     .3333333333
001638:


001642: 22,3572           14000        SP3/8              DEC      .375       B14


001646: 22,3573           22000        SP9/16             DEC      .5625      B14
001647: 22,3574           25252 25253  2/3DP              2DEC     .6666666667
001648:
001649: 22,3576  22,3574               2DPS2/3            =        2/3DP


001653: 22,3576           30000        SP3/4              DEC      .75        B14
001654: 22,3577           31103 36652  PI/4               2DEC     +3.14159265 B-2
001655:
001656:


001658:
001659:                                                                                                  #  ************************************************************************
001660:                                                                                                  #  VARIOUS TEMPORARY TEST ROUTINES FOR SUBROUTINES CONTRIBUTED BY 2DPS
001661:                                                                                                  #  ************************************************************************
001662:
001663:                                                                                                  #  TEST ROOTPSRS ON 5TH DEGREE POWER SERIES
001664:
001665: 22,3601           00006        RUTTEST            EXTEND
001666: 22,3602           33627                           DCA      RUTINIT
001667:
001668: 22,3603           52145                           DXCH     MPAC
001669:
001670: 22,3604           00006                           EXTEND
001671: 22,3605           33646                           DCA      RUTTABLL
001672: 22,3606           03214                           TC       ROOTPSRS
001673:
001674:                                                                                                  #  TEST POLY ON SIN 30 DEGREES
001675:
001676: 22,3607           06103        POLYTEST           TC       INTPRET
001677: 22,3610           73545                           DLOAD    SIN
001678:
001679: 22,3611           05650                                    QTSTPOLY
001680:
001681:                                                                                                  #  TEST USEPRET ON V/SC
001682:
001683: 22,3612           26111                           STOVL    RC
001684: 22,3613           05511                                    A2FS
001685: 22,3614           02113                           STORE    RS
001686: 22,3615           77776                           EXIT
001687: 22,3616           33653                           CA       OCT1/2L
001688: 22,3617           54106                           TS       ADDRWD
001689: 22,3620           05326                           TC       USEPRET
001690: 22,3621           07650                           TC       V/SC
001691:
001692: 22,3622           06103                           TC       INTPRET
001693: 22,3623           02121                           STORE    VS
001694: 22,3624           77776                           EXIT
001695: 22,3625           37755        END2DPST           CA       ONE
001696:
001697:                                                                                                  #  TEMP CONSTANTS FOR TESTS


001701: 22,3626           30000        RUTINIT            DEC      .75        B14
001702: 22,3627           00000                           OCT      0
001703:
001704: 22,3630           00000                           OCT      0
001705: 22,3631           00000                           OCT      0
001706:


001710: 22,3632           00040                           DEC      1.953125   E-3        B14
001711: 22,3633           00000                           OCT      0
001712:
001713: 22,3634           00000                           OCT      0
001714: 22,3635           00000                           OCT      0
001715:


001719: 22,3636           76577                           DEC      -3.90625   E-2        B14
001720:


001722: 22,3637           00000                           OCT      0
001723:
001724: 22,3640           00000                           OCT      0
001725: 22,3641           00000                           OCT      0
001726:


001730: 22,3642           04000        RUTTABL            DEC      +.125      B14
001731: 22,3643           00000                           OCT      0
001732:
001733: 22,3644           00001        RUTPREC            OCT      1
001734:
001735: 22,3645           03637        RUTTABLL           ADRES    RUTTABL    -3
001736: 22,3646           00004                           OCT      4
001737:
001738: 22,3647           02525 12525  QTSTPOLY           2DEC     .083333333
001739:


001743: 22,3651           20000        OCT1/2             DEC      .5         B14
001744: 22,3652           00000                           OCT      0
001745: 22,3653           03651        OCT1/2L            ADRES    OCT1/2

End of include-file SECOND_DPS_GUIDANCE.agc.  Parent file is MAIN.agc


