
Source Code


000002:                                                                                                  ## Copyright:   Public domain.
000003:                                                                                                  ## Filename:    SINGLE_PRECISION_SUBROUTINES.agc
000004:                                                                                                  ## Purpose:     A section of Sunburst revision 37, or Shepatin revision 0.
000005:                                                                                                  ##              It is part of an early development version of the software
000006:                                                                                                  ##              for Apollo Guidance Computer (AGC) on the unmanned Lunar
000007:                                                                                                  ##              Module (LM) flight Apollo 5. Sunburst 37 was the program
000008:                                                                                                  ##              upon which Don Eyles's offline development program Shepatin
000009:                                                                                                  ##              was based; the listing herein transcribed was actually for
000010:                                                                                                  ##              the equivalent revision 0 of Shepatin.
000011:                                                                                                  ##              This file is intended to be a faithful transcription, except
000012:                                                                                                  ##              that the code format has been changed to conform to the
000013:                                                                                                  ##              requirements of the yaYUL assembler rather than the
000014:                                                                                                  ##              original YUL assembler.
000015:                                                                                                  ## Reference:   pp. 985-987
000016:                                                                                                  ## Assembler:   yaYUL
000017:                                                                                                  ## Contact:     Ron Burkey <info@sandroid.org>.
000018:                                                                                                  ## Website:     www.ibiblio.org/apollo/index.html
000019:                                                                                                  ## Mod history: 2017-05-24 MAS  Created from Sunburst 120.
000020:                                                                                                  ##              2017-06-17 NV   Updated for Sunburst 37
000021:
000022:


000024:    5372                                           BLOCK    02
000025:                                                                                                  #  SINGLE PRECISION SINE AND COSINE
000026:
000027:    5372           67740        SPCOS              AD       HALF                                  #  ARGUMENTS SCALED AT PI
000028:    5373           55127        SPSIN              TS       TEMK
000029:    5374           15376                           TCF      SPT
000030:    5375           41127                           CS       TEMK
000031:    5376           60000        SPT                DOUBLE
000032:    5377           55127                           TS       TEMK
000033:    5400           15411                           TCF      POLLEY
000034:    5401           57127                           XCH      TEMK
000035:    5402           51127                           INDEX    TEMK
000036:    5403           67736                           AD       LIMITS
000037:    5404           40000                           COM
000038:    5405           61127                           AD       TEMK
000039:    5406           55127                           TS       TEMK
000040:    5407           15411                           TCF      POLLEY
000041:    5410           15427                           TCF      ARG90
000042:    5411           00006        POLLEY             EXTEND
000043:    5412           71127                           MP       TEMK
000044:    5413           55130                           TS       SQ
000045:    5414           00006                           EXTEND
000046:    5415           75434                           MP       C5/2
000047:    5416           65433                           AD       C3/2
000048:    5417           00006                           EXTEND
000049:    5420           71130                           MP       SQ
000050:    5421           65432                           AD       C1/2
000051:    5422           00006                           EXTEND
000052:    5423           71127                           MP       TEMK
000053:    5424           20001                           DDOUBL
000054:    5425           55127                           TS       TEMK
000055:    5426           00002                           TC       Q
000056:    5427           50000        ARG90              INDEX    A
000057:    5430           47736                           CS       LIMITS
000058:    5431           00002                           TC       Q                                     #  RESULT SCALED AT 1
000059:    5432           31103        C1/2               DEC      .7853134
000060:    5433           65552        C3/2               DEC      -.3216146
000061:    5434           01124        C5/2               DEC      .0363551


000063:                                                                                                  #  ENTER WITH ARGUMENT IN A, EXIT WITH ROOT IN A.  IF GIVEN A NEGATIVE ARGUMENT, THE RETURN SKIPS WITH CCS RESULT.
000064:                                                                                                  #  MINUS ZERO RETURNS LIKE PLUS ZERO.
000065:                                                                                                  #  MAXIMUM ERROR IN ANSWER IS NO GREATER THAN 2 BITS.
000066:                                                                                                  #  INTERRUPT PROGRAMS USING SPROOT MUST SAVE AND RESTORE SR.
000067:
000068:
000069:
000070:    5435           55131        SPROOT             TS       SQRARG                                #  ENTER WITH C(A) = Y
000071:    5436           10000                           CCS      A
000072:    5437           15443                           TCF      POSARG                                #  IF PNZ, CONTINUE
000073:    5440           00002                           TC       Q                                     #  RETURN WITH 0 FOR +0
000074:    5441           24002                           INCR     Q
000075:    5442           00002                           TC       Q                                     #  RETURN WITH 0 FOR -0
000076:
000077:    5443           00006        POSARG             EXTEND
000078:    5444           23130                           QXCH     ROOTRET                               #  WILL BE CALLING SPROOT1
000079:    5445           65522                           AD       63/64+1                               #  B(A) = Y - 1
000080:    5446           54000                           OVSK
000081:    5447           15511                           TCF      SPROOT2
000082:    5450           57131                           XCH      SQRARG                                #  ARG JUGGLING
000083:
000084:    5451           55131        SPROOT3            TS       SQRARG
000085:    5452           54021                           TS       SR                                    #  C(A) = Y
000086:    5453           56021                           XCH      SR                                    #  (LOSE 1 BIT)
000087:    5454           55127                           TS       HALFY                                 #  HALFY = Y/2
000088:    5455           65520                           AD       -1/8                                  #  FORM Y/2 - 1/8
000089:    5456           10000                           CCS      A                                     #  TEST FOR FIRST GUESS
000090:    5457           65521                           AD       5/8+1                                 #  Y .G. 1/4, X = Y/2 + 1/2
000091:    5460           05465                           TC       HIGUESS                               #  +0 IMPOSSIBLE FROM ADDITION
000092:    5461           15462                           NOOP                                           #  Y .LE. 1/4, X/2 = Y + 1/16
000093:    5462           37743                           CAF      BIT11                                 #  1/16
000094:    5463           61131                           AD       SQRARG                                #  SQRARG = Y
000095:    5464           60000                           DOUBLE                                         #  X FROM X/2
000096:    5465           05500        HIGUESS            TC       SPROOT1
000097:    5466           05500                           TC       SPROOT1                               #  ITERATE TWICE
000098:    5467           57130                           XCH      ROOTRET                               #  SAVE ANSWER AND GET Q
000099:    5470           10000                           CCS      A
000100:    5471           57130                           XCH      ROOTRET                               #  NO SHIFT NEEDED
000101:    5472           05476                           TC       ROOTBCK
000102:    5473           57130                           XCH      ROOTRET                               #  Q NEG, SHIFT RIGHT THREE
000103:    5474           00006                           EXTEND
000104:    5475           77742                           MP       BIT12                                 #  EXP -3
000105:    5476           51130        ROOTBCK            INDEX    ROOTRET                               #  ROOTRET = Q - 1
000106:    5477           00001                           TC       1                                     #  RETURN, C(A) = SQRT(Y)
000107:
000108:    5500           56021        SPROOT1            XCH      SR                                    #  SR = X/2
000109:    5501           41127                           CS       HALFY                                 #  NEWTON ITER  X = X/2 + (Y/2 / X/2) / 2
000110:    5502           22007                           ZL
000111:    5503           00006                           EXTEND
000112:    5504           10021                           DV       SR                                    #  C(SR) = X/2 DV DOES NOT EDIT


000114:    5505           56021                           XCH      SR
000115:    5506           00006                           EXTEND
000116:    5507           60021                           SU       SR
000117:    5510           00002                           TC       Q                                     #  C(A) = X (NEXT)
000118:
000119:    5511           41130        SPROOT2            CS       ROOTRET                               #  SET RETURN Q NEG, AS FLAG
000120:    5512           55130                           TS       ROOTRET
000121:    5513           37747                           CAF      BIT7                                  #  SHIFT FOR SIGNIFCANCE
000122:    5514           00006                           EXTEND
000123:    5515           71131                           MP       SQRARG
000124:    5516           30001                           CA       L                                     #  B(A) = 0
000125:    5517           05451                           TC       SPROOT3
000126:
000127:    5520           73777        -1/8               OCTAL    73777
000128:    5521           24001        5/8+1              OCTAL    24001
000129:    5522           37401        63/64+1            OCTAL    37401
000130:

End of include-file SINGLE_PRECISION_SUBROUTINES.agc.  Parent file is MAIN.agc


