
Source Code


000002:                                                                                                  ## Copyright:   Public domain.
000003:                                                                                                  ## Filename:    SPS_BACK-UP_RCS_CONTROL.agc
000004:                                                                                                  ## Purpose:     A section of Sunburst revision 37, or Shepatin revision 0.
000005:                                                                                                  ##              It is part of an early development version of the software
000006:                                                                                                  ##              for Apollo Guidance Computer (AGC) on the unmanned Lunar
000007:                                                                                                  ##              Module (LM) flight Apollo 5. Sunburst 37 was the program
000008:                                                                                                  ##              upon which Don Eyles's offline development program Shepatin
000009:                                                                                                  ##              was based; the listing herein transcribed was actually for
000010:                                                                                                  ##              the equivalent revision 0 of Shepatin.
000011:                                                                                                  ##              This file is intended to be a faithful transcription, except
000012:                                                                                                  ##              that the code format has been changed to conform to the
000013:                                                                                                  ##              requirements of the yaYUL assembler rather than the
000014:                                                                                                  ##              original YUL assembler.
000015:                                                                                                  ## Reference:   pp. 591-594
000016:                                                                                                  ## Assembler:   yaYUL
000017:                                                                                                  ## Contact:     Ron Burkey <info@sandroid.org>.
000018:                                                                                                  ## Website:     www.ibiblio.org/apollo/index.html
000019:                                                                                                  ## Mod history: 2017-05-24 MAS  Created from Sunburst 120.
000020:                                                                                                  ##              2017-06-03 HG   Transribed
000021:


000023: 21,3536                                           BANK     21
000024: 21,3536  E6,1541                                  EBANK=   DT
000025:
000026: 21,3536           40775        SPSRCS             CS       OMEGAQD
000027: 21,3537           61417                           AD       OMEGAQ
000028: 21,3540           55424                           TS       EDOTQ                                 #   EDOT = OMEGAQ - OMEGAQD
000029:
000030: 21,3541           33727                           CAF      SLOPEMQ
000031: 21,3542           00006                           EXTEND
000032: 21,3543           71413                           MP       ER
000033: 21,3544           61424                           AD       EDOTQ
000034: 21,3545           00006                           EXTEND                                         #  F = SLOPE M * E + EDOT
000035: 21,3546           63605                           BZMF     PLUSD                                 #  DQ NEGATIVE FOR POSITIVE F
000036:
000037: 21,3547           33741                           CAF      NEGD                                  #  STORE DIRECTION TO THRUST IN ITEMP3
000038:
000039: 21,3550           54063        GCOMPUTE           TS       ITEMP3
000040: 21,3551           31424                           CAE      EDOTQ
000041: 21,3552           00006                           EXTEND
000042:
000043: 21,3553           70000                           SQUARE
000044: 21,3554           00006                           EXTEND
000045: 21,3555           73732                           MP       1/2AQ
000046: 21,3556           54062                           TS       ITEMP2                                #  ITEMP2 = (1/2A) EDOT**2
000047:
000048: 21,3557           61413                           AD       ER
000049: 21,3560           63741                           AD       NEGD                                  #  DB IS SPECIFIED BY NEGD IN SPS MODE
000050:
000051: 21,3561           00006                           EXTEND
000052: 21,3562           63613                           BZMF     UZERO
000053:
000054: 21,3563           31424                           CAE      EDOTQ                                 #  G WAS POSITIVE, NOW TEST EDOT
000055:
000056: 21,3564           00006                           EXTEND
000057: 21,3565           63576                           BZMF     ULOW
000058:
000059: 21,3566           60062                           AD       ITEMP2                                #  EDOT WAS POSITIVE, CALCULATE HIGH U CASE
000060: 21,3567           00006                           EXTEND
000061: 21,3570           73727                           MP       SLOPEMQ
000062: 21,3571           61413                           AD       ER
000063: 21,3572           00006                           EXTEND
000064: 21,3573           73733                           MP       1/AQ
000065: 21,3574           55504                           TS       URGENCYQ
000066:
000067: 21,3575           13615                           TCF      RCALC
000068:
000069: 21,3576           00006        ULOW               EXTEND
000070: 21,3577           73727                           MP       SLOPEMQ
000071: 21,3600           61413                           AD       ER                                    #  EDOT WAS NEGATIVE, CALCULATE LOW U CASE
000072: 21,3601           00006                           EXTEND
000073: 21,3602           73733                           MP       1/AQ
000074:


000076: 21,3603           55504                           TS       URGENCYQ
000077:
000078: 21,3604           13615                           TCF      RCALC
000079:
000080: 21,3605           41413        PLUSD              CS       ER
000081: 21,3606           57413                           XCH      ER
000082: 21,3607           41424                           CS       EDOTQ
000083: 21,3610           57424                           XCH      EDOTQ
000084: 21,3611           43741                           CS       NEGD
000085: 21,3612           13550                           TCF      GCOMPUTE
000086:
000087: 21,3613           37761        UZERO              CAF      ZERO                                  #  G = 0, NO URGENCY
000088: 21,3614           55504                           TS       URGENCYQ
000089:
000090: 21,3615           40776        RCALC              CS       OMEGARD                               #  REPEAT CALCULATIONS FOR R-AXIS
000091: 21,3616           61421                           AD       OMEGAR
000092: 21,3617           55425                           TS       EDOTR
000093:
000094: 21,3620           33730                           CAF      SLOPEMR
000095: 21,3621           00006                           EXTEND
000096: 21,3622           71411                           MP       E
000097: 21,3623           61425                           AD       EDOTR
000098: 21,3624           00006                           EXTEND
000099: 21,3625           63664                           BZMF     PLUSDR
000100:
000101: 21,3626           33741                           CAF      NEGD
000102:
000103: 21,3627           54064        GCOMPUTR           TS       ITEMP4
000104: 21,3630           31425                           CAE      EDOTR
000105: 21,3631           00006                           EXTEND
000106: 21,3632           70000                           SQUARE
000107: 21,3633           00006                           EXTEND
000108: 21,3634           73731                           MP       1/2AR
000109: 21,3635           54062                           TS       ITEMP2
000110:
000111: 21,3636           61411                           AD       E
000112: 21,3637           63741                           AD       NEGD
000113:
000114: 21,3640           00006                           EXTEND
000115: 21,3641           63672                           BZMF     UZEROR
000116:
000117: 21,3642           31425                           CAE      EDOTR
000118:
000119: 21,3643           00006                           EXTEND
000120: 21,3644           63655                           BZMF     ULOWR
000121:
000122: 21,3645           60062                           AD       ITEMP2                                #  EDOT WAS POSITIVE, CALCULATE HIGH U CASE
000123: 21,3646           00006                           EXTEND
000124: 21,3647           73730                           MP       SLOPEMR
000125: 21,3650           61411                           AD       E
000126:


000128: 21,3651           00006                           EXTEND
000129: 21,3652           73734                           MP       1/AR
000130: 21,3653           55506                           TS       URGENCYR
000131:
000132: 21,3654           13673                           TCF      CHNLTEST
000133:
000134: 21,3655           00006        ULOWR              EXTEND                                         #  EODT WAS NEGATIVE, CALCULATE LOW U CASE
000135: 21,3656           73730                           MP       SLOPEMR
000136:
000137: 21,3657           61411                           AD       E
000138: 21,3660           00006                           EXTEND
000139: 21,3661           73734                           MP       1/AR
000140: 21,3662           55506                           TS       URGENCYR
000141:
000142: 21,3663           13673                           TCF      CHNLTEST
000143:
000144: 21,3664           41411        PLUSDR             CS       E
000145: 21,3665           57411                           XCH      E
000146: 21,3666           41425                           CS       EDOTR
000147: 21,3667           57425                           XCH      EDOTR
000148: 21,3670           43741                           CS       NEGD
000149: 21,3671           13627                           TCF      GCOMPUTR
000150:
000151: 21,3672           37761        UZEROR             CAF      ZERO
000152: 21,3673           00006        CHNLTEST           EXTEND
000153: 21,3674           61504                           SU       URGENCYQ                              #  TEST = URGENCYR - URGENCYQ
000154: 21,3675           10000                           CCS      A
000155: 21,3676           13714                           TCF      DRTEST
000156: 21,3677           13701                           TCF      URTEST
000157: 21,3700           13705                           TCF      DQTEST
000158: 21,3701           31504        URTEST             CAE      URGENCYQ
000159: 21,3702           00006                           EXTEND
000160:
000161: 21,3703           13723                           BZF      NOJET
000162: 21,3704           13714                           TCF      DRTEST
000163:
000164: 21,3705           30063        DQTEST             CAE      ITEMP3
000165: 21,3706           00006                           EXTEND
000166: 21,3707           63712                           BZMF     NEGQ
000167: 21,3710           33736                           CAF      POSQ
000168: 21,3711           13724                           TCF      JETCMD
000169:
000170: 21,3712           33735        NEGQ               CAF      NEGQT
000171: 21,3713           13724                           TCF      JETCMD
000172:
000173: 21,3714           30064        DRTEST             CAE      ITEMP4
000174: 21,3715           00006                           EXTEND
000175: 21,3716           63721                           BZMF     NEGR
000176: 21,3717           33737                           CAF      POSR
000177: 21,3720           13724                           TCF      JETCMD
000178:
000179: 21,3721           33740        NEGR               CAF      NEGRT
000180:


000182: 21,3722           13724                           TCF      JETCMD
000183:
000184: 21,3723           37761        NOJET              CAF      ZERO
000185: 21,3724           00006        JETCMD             EXTEND
000186: 21,3725           01005                           WRITE    5
000187: 21,3726           15751                           TCF      RESUME
000188:
000189:
000190: 21,3727           37777        SLOPEMQ            OCT      37777
000191: 21,3730           37777        SLOPEMR            OCT      37777
000192: 21,3731           06743        1/2AR              DEC      0.2170
000193: 21,3732           06743        1/2AQ              DEC      0.217
000194: 21,3733           15707        1/AQ               DEC      0.434
000195:
000196: 21,3734           15707        1/AR               DEC      0.434
000197: 21,3735           00011        NEGQT              OCT      00011
000198: 21,3736           00006        POSQ               OCT      00006
000199: 21,3737           00201        POSR               OCT      00201
000200: 21,3740           00102        NEGRT              OCT      00102
000201: 21,3741           77644        NEGD               DEC      -0.00555

End of include-file SPS_BACK-UP_RCS_CONTROL.agc.  Parent file is MAIN.agc


