
Source Code


000002:                                                                                                  ## Copyright:   Public domain.
000003:                                                                                                  ## Filename:    SPS_BACK-UP_RCS_CONTROL.agc
000004:                                                                                                  ## Purpose:     A section of Sunburst revision 37, or Shepatin revision 0.
000005:                                                                                                  ##              It is part of an early development version of the software
000006:                                                                                                  ##              for Apollo Guidance Computer (AGC) on the unmanned Lunar
000007:                                                                                                  ##              Module (LM) flight Apollo 5. Sunburst 37 was the program
000008:                                                                                                  ##              upon which Don Eyles's offline development program Shepatin
000009:                                                                                                  ##              was based; the listing herein transcribed was actually for
000010:                                                                                                  ##              the equivalent revision 0 of Shepatin.
000011:                                                                                                  ##              This file is intended to be a faithful transcription, except
000012:                                                                                                  ##              that the code format has been changed to conform to the
000013:                                                                                                  ##              requirements of the yaYUL assembler rather than the
000014:                                                                                                  ##              original YUL assembler.
000015:                                                                                                  ## Reference:   pp. 591-594
000016:                                                                                                  ## Assembler:   yaYUL
000017:                                                                                                  ## Contact:     Ron Burkey <info@sandroid.org>.
000018:                                                                                                  ## Website:     www.ibiblio.org/apollo/index.html
000019:                                                                                                  ## Mod history: 2017-05-24 MAS  Created from Sunburst 120.
000020:                                                                                                  ##              2017-06-03 HG   Transribed
000021:                                                                                                  ##              2017-06-22 RSB  Proofed comment text with
000022:                                                                                                  ##                              octopus/ProoferComments.
000023:


000025: 21,3536                                           BANK     21
000026: 21,3536  E6,1541                                  EBANK=   DT
000027:
000028: 21,3536           40775        SPSRCS             CS       OMEGAQD
000029: 21,3537           61417                           AD       OMEGAQ
000030: 21,3540           55424                           TS       EDOTQ                                 #   EDOT = OMEGAQ - OMEGAQD
000031:
000032: 21,3541           33727                           CAF      SLOPEMQ
000033: 21,3542           00006                           EXTEND
000034: 21,3543           71413                           MP       ER
000035: 21,3544           61424                           AD       EDOTQ
000036: 21,3545           00006                           EXTEND                                         #  F = SLOPE M * E + EDOT
000037: 21,3546           63605                           BZMF     PLUSD                                 #  DQ NEGATIVE FOR POSITIVE F
000038:
000039: 21,3547           33741                           CAF      NEGD                                  #  STORE DIRECTION TO THRUST IN ITEMP3
000040:
000041: 21,3550           54063        GCOMPUTE           TS       ITEMP3
000042: 21,3551           31424                           CAE      EDOTQ
000043: 21,3552           00006                           EXTEND
000044:
000045: 21,3553           70000                           SQUARE
000046: 21,3554           00006                           EXTEND
000047: 21,3555           73732                           MP       1/2AQ
000048: 21,3556           54062                           TS       ITEMP2                                #  ITEMP2 = (1/2A) EDOT**2
000049:
000050: 21,3557           61413                           AD       ER
000051: 21,3560           63741                           AD       NEGD                                  #  DB IS SPECIFIED BY NEGD IN SPS MODE
000052:
000053: 21,3561           00006                           EXTEND
000054: 21,3562           63613                           BZMF     UZERO
000055:
000056: 21,3563           31424                           CAE      EDOTQ                                 #  G WAS POSITIVE, NOW TEST EDOT
000057:
000058: 21,3564           00006                           EXTEND
000059: 21,3565           63576                           BZMF     ULOW
000060:
000061: 21,3566           60062                           AD       ITEMP2                                #  EDOT WAS POSITIVE, CALCULATE HIGH U CASE
000062: 21,3567           00006                           EXTEND
000063: 21,3570           73727                           MP       SLOPEMQ
000064: 21,3571           61413                           AD       ER
000065: 21,3572           00006                           EXTEND
000066: 21,3573           73733                           MP       1/AQ
000067: 21,3574           55504                           TS       URGENCYQ
000068:
000069: 21,3575           13615                           TCF      RCALC
000070:
000071: 21,3576           00006        ULOW               EXTEND
000072: 21,3577           73727                           MP       SLOPEMQ
000073: 21,3600           61413                           AD       ER                                    #  EDOT WAS NEGATIVE, CALCULATE LOW U CASE
000074: 21,3601           00006                           EXTEND
000075: 21,3602           73733                           MP       1/AQ
000076:


000078: 21,3603           55504                           TS       URGENCYQ
000079:
000080: 21,3604           13615                           TCF      RCALC
000081:
000082: 21,3605           41413        PLUSD              CS       ER
000083: 21,3606           57413                           XCH      ER
000084: 21,3607           41424                           CS       EDOTQ
000085: 21,3610           57424                           XCH      EDOTQ
000086: 21,3611           43741                           CS       NEGD
000087: 21,3612           13550                           TCF      GCOMPUTE
000088:
000089: 21,3613           37761        UZERO              CAF      ZERO                                  #  G = 0, NO URGENCY
000090: 21,3614           55504                           TS       URGENCYQ
000091:
000092: 21,3615           40776        RCALC              CS       OMEGARD                               #  REPEAT CALCULATIONS FOR R-AXIS
000093: 21,3616           61421                           AD       OMEGAR
000094: 21,3617           55425                           TS       EDOTR
000095:
000096: 21,3620           33730                           CAF      SLOPEMR
000097: 21,3621           00006                           EXTEND
000098: 21,3622           71411                           MP       E
000099: 21,3623           61425                           AD       EDOTR
000100: 21,3624           00006                           EXTEND
000101: 21,3625           63664                           BZMF     PLUSDR
000102:
000103: 21,3626           33741                           CAF      NEGD
000104:
000105: 21,3627           54064        GCOMPUTR           TS       ITEMP4
000106: 21,3630           31425                           CAE      EDOTR
000107: 21,3631           00006                           EXTEND
000108: 21,3632           70000                           SQUARE
000109: 21,3633           00006                           EXTEND
000110: 21,3634           73731                           MP       1/2AR
000111: 21,3635           54062                           TS       ITEMP2
000112:
000113: 21,3636           61411                           AD       E
000114: 21,3637           63741                           AD       NEGD
000115:
000116: 21,3640           00006                           EXTEND
000117: 21,3641           63672                           BZMF     UZEROR
000118:
000119: 21,3642           31425                           CAE      EDOTR
000120:
000121: 21,3643           00006                           EXTEND
000122: 21,3644           63655                           BZMF     ULOWR
000123:
000124: 21,3645           60062                           AD       ITEMP2                                #  EDOT WAS POSITIVE, CALCULATE HIGH U CASE
000125: 21,3646           00006                           EXTEND
000126: 21,3647           73730                           MP       SLOPEMR
000127: 21,3650           61411                           AD       E
000128:


000130: 21,3651           00006                           EXTEND
000131: 21,3652           73734                           MP       1/AR
000132: 21,3653           55506                           TS       URGENCYR
000133:
000134: 21,3654           13673                           TCF      CHNLTEST
000135:
000136: 21,3655           00006        ULOWR              EXTEND                                         #  EODT WAS NEGATIVE, CALCULATE LOW U CASE
000137: 21,3656           73730                           MP       SLOPEMR
000138:
000139: 21,3657           61411                           AD       E
000140: 21,3660           00006                           EXTEND
000141: 21,3661           73734                           MP       1/AR
000142: 21,3662           55506                           TS       URGENCYR
000143:
000144: 21,3663           13673                           TCF      CHNLTEST
000145:
000146: 21,3664           41411        PLUSDR             CS       E
000147: 21,3665           57411                           XCH      E
000148: 21,3666           41425                           CS       EDOTR
000149: 21,3667           57425                           XCH      EDOTR
000150: 21,3670           43741                           CS       NEGD
000151: 21,3671           13627                           TCF      GCOMPUTR
000152:
000153: 21,3672           37761        UZEROR             CAF      ZERO
000154: 21,3673           00006        CHNLTEST           EXTEND
000155: 21,3674           61504                           SU       URGENCYQ                              #  TEST = URGENCYR - URGENCYQ
000156: 21,3675           10000                           CCS      A
000157: 21,3676           13714                           TCF      DRTEST
000158: 21,3677           13701                           TCF      URTEST
000159: 21,3700           13705                           TCF      DQTEST
000160: 21,3701           31504        URTEST             CAE      URGENCYQ
000161: 21,3702           00006                           EXTEND
000162:
000163: 21,3703           13723                           BZF      NOJET
000164: 21,3704           13714                           TCF      DRTEST
000165:
000166: 21,3705           30063        DQTEST             CAE      ITEMP3
000167: 21,3706           00006                           EXTEND
000168: 21,3707           63712                           BZMF     NEGQ
000169: 21,3710           33736                           CAF      POSQ
000170: 21,3711           13724                           TCF      JETCMD
000171:
000172: 21,3712           33735        NEGQ               CAF      NEGQT
000173: 21,3713           13724                           TCF      JETCMD
000174:
000175: 21,3714           30064        DRTEST             CAE      ITEMP4
000176: 21,3715           00006                           EXTEND
000177: 21,3716           63721                           BZMF     NEGR
000178: 21,3717           33737                           CAF      POSR
000179: 21,3720           13724                           TCF      JETCMD
000180:
000181: 21,3721           33740        NEGR               CAF      NEGRT
000182:


000184: 21,3722           13724                           TCF      JETCMD
000185:
000186: 21,3723           37761        NOJET              CAF      ZERO
000187: 21,3724           00006        JETCMD             EXTEND
000188: 21,3725           01005                           WRITE    5
000189: 21,3726           15751                           TCF      RESUME
000190:
000191:
000192: 21,3727           37777        SLOPEMQ            OCT      37777
000193: 21,3730           37777        SLOPEMR            OCT      37777
000194: 21,3731           06743        1/2AR              DEC      0.2170
000195: 21,3732           06743        1/2AQ              DEC      0.217
000196: 21,3733           15707        1/AQ               DEC      0.434
000197:
000198: 21,3734           15707        1/AR               DEC      0.434                                 #  DESCENT STAGE ACC CONST SCALED AT 16/PI
000199: 21,3735           00011        NEGQT              OCT      00011
000200: 21,3736           00006        POSQ               OCT      00006
000201: 21,3737           00201        POSR               OCT      00201
000202: 21,3740           00102        NEGRT              OCT      00102
000203: 21,3741           77644        NEGD               DEC      -0.00555

End of include-file SPS_BACK-UP_RCS_CONTROL.agc.  Parent file is MAIN.agc


