
Source Code


000002:                                                                                                  ## Copyright:   Public domain.
000003:                                                                                                  ## Filename:    T4RUPT_PROGRAM.agc
000004:                                                                                                  ## Purpose:     A section of Sunburst revision 37, or Shepatin revision 0.
000005:                                                                                                  ##              It is part of an early development version of the software
000006:                                                                                                  ##              for Apollo Guidance Computer (AGC) on the unmanned Lunar
000007:                                                                                                  ##              Module (LM) flight Apollo 5. Sunburst 37 was the program
000008:                                                                                                  ##              upon which Don Eyles's offline development program Shepatin
000009:                                                                                                  ##              was based; the listing herein transcribed was actually for
000010:                                                                                                  ##              the equivalent revision 0 of Shepatin.
000011:                                                                                                  ##              This file is intended to be a faithful transcription, except
000012:                                                                                                  ##              that the code format has been changed to conform to the
000013:                                                                                                  ##              requirements of the yaYUL assembler rather than the
000014:                                                                                                  ##              original YUL assembler.
000015:                                                                                                  ## Reference:   pp. 90-123
000016:                                                                                                  ## Assembler:   yaYUL
000017:                                                                                                  ## Contact:     Ron Burkey <info@sandroid.org>.
000018:                                                                                                  ## Website:     www.ibiblio.org/apollo/index.html
000019:                                                                                                  ## Mod history: 2017-05-24 MAS  Created from Sunburst 120.
000020:                                                                                                  ##              2017-05-29 HG   Transcribed
000021:                                                                                                  ##              2017-06-15 HG   Fix operator TCF  -> TC
000022:                                                                                                  ##                                           CS   -> CAF
000023:                                                                                                  ##              2017-06-21 RSB  Proofed using octopus/ProoferComments.
000024:


000026: 12,2000                                           BANK     12
000027: 12,2000  E6,1404                                  EBANK=   M11
000028: 12,2000           54016        T4RUPT             TS       BANKRUPT
000029:
000030: 12,2001           37761                           CA       ZERO
000031: 12,2002           00006                           EXTEND                                         #  ZERO OUT0 EVERY T4RUPT.
000032: 12,2003           01010                           WRITE    OUT0
000033:
000034: 12,2004           50346                           INDEX    T4LOC                                 #  NORMALLY TO NORMT4, BUT TO LMPRESET OR
000035: 12,2005           10000                           TCF      0                                     #  DSKYRSET AFTER OUT0 COMMAND.
000036:
000037: 12,2006           10347        NORMT4             CCS      DSRUPTSW                              #  GOES 7(-1)0.
000038: 12,2007           12011                           TCF      +2
000039: 12,2010           37757                           CAF      SEVEN
000040: 12,2011           54347                           TS       DSRUPTSW
000041:
000042: 12,2012           12030                           TCF      T4RUPTA
000043:
000044: 12,2013           34265        LMPRESET           CAF      LNORMT4                               #  DO THINGS IN THIS ORDER FOR RESTART
000045: 12,2014           54346                           TS       T4LOC                                 #  PROTECTION.
000046: 12,2015           31144                           CA       LMPOUTT                               #  NEW VALUE OF OUTPUT POINTER.
000047: 12,2016           55143                           TS       LMPOUT
000048: 12,2017           47755                           CS       ONE                                   #  TO SHOW OUTPUT POINTER ALREADY UPDATED.
000049: 12,2020           55144                           TS       LMPOUTT
000050: 12,2021           34263                           CAF      90MRUPT
000051: 12,2022           12026                           TCF      +4
000052:
000053: 12,2023           34265        DSKYRSET           CAF      LNORMT4                               #  20 MS ON / 100 MS OFF.
000054: 12,2024           54346                           TS       T4LOC
000055: 12,2025           34264                           CAF      100MRUPT
000056: 12,2026           54027                 +4        TS       TIME4
000057: 12,2027           15753                           TCF      NOQRSM
000058:
000059:    4263                                           BLOCK    02
000060:    4263           37767        90MRUPT            DEC      16375      B-14
000061:    4264           37766        100MRUPT           DEC      16374      B-14
000062:    4265           02006        LNORMT4            ADRES    NORMT4
000063:    4266           74000        74K                OCT      74000
000064:
000065:                                                                                                  #  RELTAB IS A PACKED TABLE. RELAYWORD CODE IN UPPER 4 BITS, RELAY CODE
000066:                                                                                                  #  IN LOWER 5 BITS.
000067:
000068:    4267           04025        RELTAB             OCT      04025
000069:    4270           10003                           OCT      10003
000070:    4271           14031                           OCT      14031
000071:    4272           20033                           OCT      20033
000072:    4273           24017                           OCT      24017
000073:    4274           30036                           OCT      30036
000074:    4275           34034                           OCT      34034
000075:    4276           40023                           OCT      40023
000076:    4277           44035                           OCT      44035
000077:


000079:    4300           50037                           OCT      50037
000080:    4301           54000                           OCT      54000
000081:    4302           60000        RELTAB11           OCT      60000
000082:


000084:                                                                                                  #  SWITCHED-BANK PORTION.
000085:
000086: 12,2030                                           BANK     12
000087: 12,2030           00006        T4RUPTA            EXTEND
000088: 12,2031           22012                           QXCH     QRUPT
000089:
000090: 12,2032           51143                           INDEX    LMPOUT                                #  SEE IF LMP COMMAND TO BE PUT OUT.
000091: 12,2033           11132                           CCS      LMPCMD
000092: 12,2034           12056                           TCF      CDRVE                                 #  BIT 15 = 1 AND (UP TO) BITS 1 - 11
000093: 12,2035           12056                           TCF      CDRVE                                 #  CONTAIN THE COMMAND.
000094:
000095: 12,2036           32147                           CAF      LLMPRS                                #  SET T4 FOR SPECIAL RUPT AND SHOW LMP
000096: 12,2037           54346                           TS       T4LOC                                 #  COMMAND IN PROGRESS IF RESTART.
000097:
000098: 12,2040           34552                           CAF      LOW11
000099: 12,2041           51143                           INDEX    LMPOUT
000100: 12,2042           71132                           MASK     LMPCMD                                #  LEAVE COMMAND PORTION INTACT.
000101: 12,2043           51143                           INDEX    LMPOUT
000102: 12,2044           55132                           TS       LMPCMD
000103: 12,2045           64266                           AD       74K
000104:
000105: 12,2046           00006                           EXTEND
000106: 12,2047           01010                           WRITE    OUT0
000107:
000108: 12,2050           11143                           CCS      LMPOUT                                #  PREDICT NEW VALUE OF LMPOUT BUT DONT
000109: 12,2051           12053                           TCF      +2                                    #  UPDATE IT UNTIL COMMAND SENT (IN CASE OF
000110: 12,2052           37757                           CAF      SEVEN                                 #  RESTART.)
000111: 12,2053           55144                           TS       LMPOUTT
000112:
000113: 12,2054           32150                           CAF      30MRUPT
000114: 12,2055           12133                           TCF      SETTIME4
000115:
000116: 12,2056           10326        CDRVE              CCS      DSPTAB     +11D
000117: 12,2057           02066                           TC       DSPOUT
000118: 12,2060           02066                           TC       DSPOUT
000119:
000120: 12,2061           56326                           XCH      DSPTAB     +11D
000121: 12,2062           74552                           MASK     LOW11
000122: 12,2063           54326                           TS       DSPTAB     +11D
000123: 12,2064           64302                           AD       RELTAB11
000124: 12,2065           02126                           TC       DSPLAYC
000125:


000127:                                                                                                  #  DSPOUT PROGRAM. PUTS OUT DISPLAYS.
000128:
000129: 12,2066           10307        DSPOUT             CCS      NOUT                                  #  DRIVE DISPLAY SYSTEM RELAYS.
000130: 12,2067           12072                           TCF      +3
000131:
000132: 12,2070           32107        NODSPOUT           CAF      120MRUPT                              #  SET FOR RUPT IN 120 MS IF NO RELAYS.
000133: 12,2071           12133                           TCF      SETTIME4
000134:
000135: 12,2072           54307                           TS       NOUT
000136: 12,2073           47761                           CS       ZERO
000137: 12,2074           54073                           TS       DSRUPTEM                              #  SET TO -0 FOR 1ST PASS THRU DSPTAB
000138: 12,2075           56345                           XCH      DSPCNT
000139: 12,2076           67762                           AD       NEG0                                  #  TO PREVENT +0
000140: 12,2077           54345                           TS       DSPCNT
000141: 12,2100           50345        DSPSCAN            INDEX    DSPCNT
000142: 12,2101           10313                           CCS      DSPTAB
000143: 12,2102           10345                           CCS      DSPCNT                                #  IF DSPTAB ENTRY +, SKIP
000144: 12,2103           02076                           TC       DSPSCAN    -2                         #  IF DSPCNT +, AGAIN
000145: 12,2104           02115                           TC       DSPLAY                                #  IF DSPTAB ENTRY -, DISPLAY
000146: 12,2105           00012        TABLNTH            OCT      12                                    #  DEC 10   LENGTH OF DSPTAB
000147: 12,2106           10073                           CCS      DSRUPTEM                              #  IF DSRUPTEM=+0,2ND PASS THRU DSPTAB
000148: 12,2107           37764        120MRUPT           DEC      16372      B-14                       #  (DSPCNT = 0). +0 INTO NOUT.
000149: 12,2110           54307                           TS       NOUT
000150: 12,2111           12070                           TCF      NODSPOUT
000151: 12,2112           54073                           TS       DSRUPTEM                              #  IF DSRUPTEM=-0,1ST PASS THRU DSPTAB
000152: 12,2113           32105                           CAF      TABLNTH                               #  (DSPCNT=0). +0 INTO DSRUPTEM. PASS AGAIN
000153:
000154: 12,2114           02077                           TC       DSPSCAN    -1
000155:
000156: 12,2115           67755        DSPLAY             AD       ONE
000157: 12,2116           50345                           INDEX    DSPCNT
000158: 12,2117           54313                           TS       DSPTAB                                #  REPLACE POSITIVELY
000159: 12,2120           74552                           MASK     LOW11                                 #  REMOVE BITS 12 TO 15
000160: 12,2121           54073                           TS       DSRUPTEM
000161: 12,2122           34547                           CAF      HI5
000162: 12,2123           50345                           INDEX    DSPCNT
000163: 12,2124           74267                           MASK     RELTAB                                #  PICK UP BITS 12 TO 15 OF RELTAB ENTRY
000164: 12,2125           60073                           AD       DSRUPTEM
000165: 12,2126           00006        DSPLAYC            EXTEND
000166: 12,2127           01010                           WRITE    OUT0
000167:
000168: 12,2130           32146                           CAF      LDSKYRS
000169: 12,2131           54346                           TS       T4LOC
000170: 12,2132           32151                           CAF      20MRUPT
000171:
000172: 12,2133           54027        SETTIME4           TS       TIME4
000173:


000175:                                                                                                  #           JUMP TO APPROPRIATE ONCE-PER SECOND (.96 SEC ACTUALLY) ACTIVITY
000176:
000177: 12,2134           50347        T4JUMP             INDEX    DSRUPTSW
000178: 12,2135           12136                           TCF      +1
000179:
000180: 12,2136           02152                           TC       ALTOUT
000181:
000182: 12,2137           03176                           TC       NORRGMON                              #  WAS TCF RRAUTCHK (NO RADAR IN 206).
000183:
000184: 12,2140           12305                           TCF      IMUMON
000185: 12,2141           13176                           TCF      DAPT4S
000186: 12,2142           02217                           TC       ALTROUT
000187: 12,2143           03176                           TC       NORRGMON                              #  WAS TCF RRAUTCHK (NO RADAR IN 206).
000188: 12,2144           12305                           TCF      IMUMON
000189: 12,2145           13176                           TCF      DAPT4S
000190:
000191: 12,2146           02023        LDSKYRS            ADRES    DSKYRSET
000192: 12,2147           02013        LLMPRS             ADRES    LMPRESET
000193:
000194: 12,2150           37775        30MRUPT            DEC      16381      B-14
000195: 12,2151           37776        20MRUPT            DEC      16382      B-14
000196:


000198:                                                                                                  #  THIS ROUTINE SERVICES THE METER OUTPUTS.
000199:
000200:
000201:
000202:                                                                                                  #  DIDFLG INDICATES THE STATE OF THE PROGRAM..............
000203:                                                                                                  #  IF GREATER THAN ZERO, THEN UNABLE TO DISPLAY DATA
000204:                                                                                                  #  IF EQUAL TO ZERO, THEN THE PROGRAM IS IN USE
000205:                                                                                                  #  IF LESS THAN ZERO, THEN THE PROGRAM IS ABLE TO BE USED............
000206:
000207: 12,2152           02225        ALTOUT             TC       DISINDAT
000208: 12,2153           47754                           CS       BIT2
000209: 12,2154           00006                           EXTEND
000210: 12,2155           03014                           WAND     14                                    #  SET UP OUTPUT FOR ALTITUDE
000211: 12,2156           10351                           CCS      ALT                                   #  -1 IF OLD DATA TO BE EXTRAPOLATED.
000212:
000213: 12,2157           12163                           TCF      +4                                    #  NEW DATA.
000214: 12,2160           12163                           TCF      +3
000215: 12,2161           12167                           TCF      OLDDATA
000216:
000217: 12,2162           54351                           TS       ALT                                   #  CHANGE -0 IN ALT TO +0.
000218: 12,2163           47755                           CS       ONE                                   #  RESET ALTSAVE.
000219: 12,2164           52352                           DXCH     ALT
000220: 12,2165           52364        ZDATA2             DXCH     ALTSAVE
000221: 12,2166           12207                           TCF      NEWDATA
000222:
000223: 12,2167           30353        OLDDATA            CA       ALTRATE                               #  USE ALTRATE TO EXTRAPOLATE.
000224: 12,2170           00006                           EXTEND
000225: 12,2171           72302                           MP       ARTOA                                 #  RATE APPLIES FOR .96 SEC.
000226: 12,2172           60364                           AD       ALTSAVE    +1
000227: 12,2173           54364                           TS       ALTSAVE    +1                         #  AND MAYBE SKIP.
000228: 12,2174           37761                           CAF      ZERO
000229: 12,2175           26363                           ADS      ALTSAVE
000230:
000231: 12,2176           37735                           CAF      POSMAX                                #  FORCE SIGN AGREEMENT ASSUMING ALTSAVE IS
000232: 12,2177           67755                           AD       ONE                                   #  NOT NEGATIVE. IF IT IS, THE FINAL TS
000233: 12,2200           60364                           AD       ALTSAVE    +1                         #  WILL NOT SKIP AND WE CAN SET ALTSAVE TO
000234: 12,2201           54364                           TS       ALTSAVE    +1                         #  ZERO IN THAT CASE.
000235: 12,2202           37761                           CAF      ZERO
000236:
000237: 12,2203           67735                           AD       POSMAX
000238: 12,2204           60363                           AD       ALTSAVE
000239: 12,2205           54363                           TS       ALTSAVE
000240: 12,2206           12277                           TCF      ZERODATA                              #  ALTSAVE NEGATIVE - SET TO ZERO.
000241:
000242: 12,2207           10363        NEWDATA            CCS      ALTSAVE                               #  MAKE UP 15 BIT UNSIGNED OUTPUT.
000243: 12,2210           37737                           CAF      BIT15                                 #  MAJOR PART +1 OR +0.
000244: 12,2211           60364                           AD       ALTSAVE    +1
000245: 12,2212           54060        METEROUT           TS       ALTM
000246: 12,2213           32303                           CAF      BITSET
000247: 12,2214           00006                           EXTEND
000248: 12,2215           05014                           WOR      14
000249: 12,2216           12276                           TCF      DONEDID
000250:


000252: 12,2217           02225        ALTROUT            TC       DISINDAT
000253: 12,2220           37754                           CAF      BIT2
000254:
000255: 12,2221           00006                           EXTEND
000256: 12,2222           05014                           WOR      14                                    #  SET UP OUTPUT FOR ALT. RATE
000257: 12,2223           30353                           CA       ALTRATE
000258: 12,2224           12212                           TCF      METEROUT
000259:
000260: 12,2225           10350        DISINDAT           CCS      DIDFLG
000261: 12,2226           12273                           TCF      ALLDONE                               #  NOTE THAT THIS SHOULD ALWAYS GO TO
000262:                                                                                                  #  ALLDONE AND NOT DONEDID SINCE THE
000263:                                                                                                  #  AVAILABILITY OF DATA MAY DISAPPEAR WHILE
000264:                                                                                                  #  THE ASTRONAUT HAS THE BUTTON DOWN.
000265: 12,2227           12230                           NOOP
000266: 12,2230           37750                           CAF      BIT6
000267: 12,2231           00006                           EXTEND
000268: 12,2232           02030                           RAND     30                                    #  CHECK DISPLAY INERTIAL DATA BIT
000269: 12,2233           10000                           CCS      A
000270: 12,2234           12273                           TCF      ALLDONE
000271: 12,2235           10350                           CCS      DIDFLG
000272: 12,2236           12237                           NOOP
000273: 12,2237           12260                           TCF      GOAGN
000274:
000275: 12,2240           37746        FIRSTIME           CAF      BIT8
000276: 12,2241           00006                           EXTEND
000277: 12,2242           05012                           WOR      12                                    #  ENABLE DISPLAY INERTIAL DATA
000278:
000279: 12,2243           37761                           CAF      ZERO
000280: 12,2244           54350                           TS       DIDFLG
000281: 12,2245           54362                           TS       LASTXCMD
000282: 12,2246           54361                           TS       LASTYCMD
000283: 12,2247           36276                           CAF      SIX
000284: 12,2250           05701                           TC       WAITLIST
000285: 12,2251  E6,1404                                  EBANK=   M11
000286: 12,2251           02254 24006                     2CADR    INTLZE
000287:
000288: 12,2253           02276                           TC       DONEDID
000289:
000290: 12,2254           37754        INTLZE             CAF      BIT2
000291: 12,2255           00006                           EXTEND
000292: 12,2256           05012                           WOR      12                                    #  ENABLE RR ERROR COUNTER
000293: 12,2257           05745                           TC       TASKOVER
000294:
000295: 12,2260           40362        GOAGN              CS       LASTXCMD
000296: 12,2261           60357                           AD       FORVEL
000297: 12,2262           54054                           TS       OPTXCMD
000298: 12,2263           30357                           CA       FORVEL
000299: 12,2264           54362                           TS       LASTXCMD
000300: 12,2265           40361                           CS       LASTYCMD
000301: 12,2266           60360                           AD       LATVEL
000302:
000303: 12,2267           54053                           TS       OPTYCMD
000304: 12,2270           30360                           CA       LATVEL
000305:


000307: 12,2271           54361                           TS       LASTYCMD
000308: 12,2272           00002                           TC       Q
000309:
000310: 12,2273           42304        ALLDONE            CS       DIDRESET                              #  REMOVE DISPLAY INERTIAL DATA AND ECTR.
000311: 12,2274           00006                           EXTEND
000312: 12,2275           03012                           WAND     12                                    #  RESET RR ERROR COUNTER
000313: 12,2276           15751        DONEDID            TCF      RESUME                                #  ** FIX LATER**
000314:
000315: 12,2277           37761        ZERODATA           CAF      ZERO
000316: 12,2300           54001                           TS       L
000317: 12,2301           12165                           TCF      ZDATA2
000318:
000319: 12,2302           06432        ARTOA              DEC      .20469                                #  ALT DUE TO ALTRATE FOR .96 SEC.
000320: 12,2303           06004        BITSET             OCT      6004
000321:
000322: 12,2304           00202        DIDRESET           OCT      202
000323:


000325:                                                                                                  #  PROGRAM NAME:  IMUMON
000326:
000327:                                                                                                  #  FUNCTIONAL DESCRIPTION:  THIS PROGRAM IS ENTERED EVERY 480 MS.  IT DETECTS CHANGES OF THE IMU STATUS BITS IN
000328:                                                                                                  #  CHANNEL 30 AND CALLS THE APPROPRIATE SUBROUTINES.  THE BITS PROCESSED AND THEIR RELEVANT SUBROUTINES ARE:
000329:
000330:                                                                                                  #           FUNCTION               BIT    SUBROUTINE CALLED
000331:                                                                                                  #           --------               ---    -----------------
000332:                                                                                                  #           TEMP IN LIMITS          15    TLIM
000333:                                                                                                  #           ISS TURN-ON REQUEST     14    ITURNON
000334:                                                                                                  #           IMU FAIL                13    IMUFAIL (SETISSW)
000335:                                                                                                  #           IMU CDU FAIL            12    ICDUFAIL (SETISSW)
000336:                                                                                                  #           IMU CAGE                11    IMUCAGE
000337:                                                                                                  #           IMU OPERATE              9    IMUOP
000338:
000339:                                                                                                  #           THE LAST SAMPLED STATE OF THESE BITS IS LEFT IN IMODES30.  ALSO, EACH SUBROUTINE CALLED FINDS THE NEW
000340:                                                                                                  #  VALUE OF THE BIT IN A, WITH Q SET TO THE PROPER RETURN LOCATION, NXTIFAIL.
000341:
000342:                                                                                                  #  CALLING SEQUENCE:  T4RUPT EVERY 480 MILLISECONDS.
000343:
000344:                                                                                                  #  JOBS OR TASKS INITIATED:  NONE.
000345:
000346:                                                                                                  #  SUBROUTINES CALLED:  TLIM, ITURNON, SETISSW, IMUCAGE, IMUOP.
000347:
000348:                                                                                                  #  ERASABLE INITIALIZATION:
000349:                                                                                                  #           FRESH START OR RESTART WITH NO GROUPS ACTIVE: C(IMODES30) = OCT 37411.
000350:                                                                                                  #           RESTART WITH ACTIVE GROUPS: C(IMODES30) = (B(IMODES30)AND(OCT 00035)) PLUS OCT 37400.
000351:                                                                                                  #                                       THIS LEAVES IMU FAIL BITS INTACT.
000352:
000353:                                                                                                  #  ALARMS:  NONE.
000354:
000355:                                                                                                  #  EXIT:  TNONTEST.
000356:
000357:                                                                                                  #  OUTPUT:  UPDATED IMODES30 WITH CHANGES PROCESSED BY APPROPRIATE SUBROUTINE.
000358:
000359: 12,2305           33056        IMUMON             CAF      BITS4&5                               #  DISABLE DAP IF ZERO ICDU OR COARSE ALIGN
000360: 12,2306           00006                           EXTEND
000361: 12,2307           02012                           RAND     12
000362: 12,2310           00006                           EXTEND
000363:
000364: 12,2311           62315                           BZMF     IMUNON1
000365: 12,2312           00006                           EXTEND
000366: 12,2313           33035                           DCA      T4DAP
000367: 12,2314           53001                           DXCH     T5ADR
000368:
000369: 12,2315           30365        IMUNON1            CA       IMODES30                              #  SEE IF THERE HAS BEEN A CHANGE IN THE
000370: 12,2316           00006                           EXTEND                                         #  RELEVANT BITS OF CHAN 30.
000371: 12,2317           06030                           RXOR     30
000372: 12,2320           73042                           MASK     30RDMSK
000373: 12,2321           00006                           EXTEND
000374: 12,2322           12352                           BZF      TNONTEST                              #  NO CHANGE IN STATUS.
000375:


000377: 12,2323           54070                           TS       RUPTREG1                              #  SAVE BITS WHICH HAVE CHANGED.
000378: 12,2324           22365                           LXCH     IMODES30                              #  UPDATE IMODES30.
000379: 12,2325           00006                           EXTEND
000380: 12,2326           06001                           RXOR     L
000381: 12,2327           54365                           TS       IMODES30
000382:
000383: 12,2330           47755                           CS       ONE
000384: 12,2331           56070                           XCH      RUPTREG1
000385: 12,2332           00006                           EXTEND
000386: 12,2333           62624                           BZMF     TLIM                                  #  CHANGE IN IMU TEMP.
000387: 12,2334           12336                           TCF      NXTIFBIT                              #  BEGIN BIT SCAN.
000388:
000389: 12,2335           67755                 -1        AD       ONE                                   #  (RE-ENTERS HERE FROM NXTIFAIL.)
000390: 12,2336           24070        NXTIFBIT           INCR     RUPTREG1                              #  ADVANCE BIT POSITION NUMBER.
000391: 12,2337           60000                 +1        DOUBLE
000392: 12,2340           54000                           TS       A                                     #  SKIP IF OVERFLOW.
000393: 12,2341           12336                           TCF      NXTIFBIT                              #  LOOK FOR BIT.
000394:
000395: 12,2342           56071                           XCH      RUPTREG2                              #  SAVE OVERFLOW-CORRECTED DATA.
000396: 12,2343           50070                           INDEX    RUPTREG1                              #  SELECT NEW VALUE OF THIS BIT.
000397:
000398: 12,2344           37740                           CAF      BIT14
000399: 12,2345           70365                           MASK     IMODES30
000400: 12,2346           50070                           INDEX    RUPTREG1
000401: 12,2347           03036                           TC       IFAILJMP
000402:
000403: 12,2350           10071        NXTIFAIL           CCS      RUPTREG2                              #  PROCESS ANY ADDITIONAL CHANGES.
000404: 12,2351           12335                           TCF      NXTIFBIT   -1
000405:


000407:                                                                                                  #  PROGRAM NAME:  TNONTEST.
000408:
000409:                                                                                                  #  FUNCTIONAL DESCRIPTION:  THIS PROGRAM HONORS REQUESTS FOR ISS INITIALIZATION.  ISS TURN-ON (CHANNEL 30 BIT 14)
000410:                                                                                                  #  AND ISS OPERATE (CHANNEL 30 BIT 9) REQUESTS ARE TREATED AS A PAIR AND PROCESSING TAKES PLACE .480 SECONDS
000411:                                                                                                  #  AFTER EITHER ONE APPEARS.  THIS INITIALIZATION TAKES ON ONE OF THE FOLLOWING THREE FORMS:
000412:
000413:                                                                                                  #           1)  ISS TURN-ON:  IN THIS SITUATION THE COMPUTER IS OPERATING WHEN THE ISS IS TURNED ON.  NOMINALLY,
000414:                                                                                                  #           BOTH ISS TURN-ON AND ISS OPERATE APPEAR.  THE PLATFORM IS CAGED FOR 90 SECONDS AND THE ICDU'S ZEROED
000415:                                                                                                  #           SO THAT AT THE END OF THE PROCESS THE GIMBAL LOCK MONITOR WILL FUNCTION PROPERLY.
000416:
000417:                                                                                                  #           2)  ICDU INITIALIZATION:  IN THIS CASE THE COMPUTER WAS PROBABLY TURNED ON WITH THE ISS IN OPERATE OR
000418:                                                                                                  #           A FRESH START WAS DONE WITH THE ISS IN OPERATE.  IN THIS CASE ONLY ISS OPERATE IS ON.  THE ICDU'S ARE
000419:                                                                                                  #           ZEROED SO THE GIMBAL LOCK MONITOR WILL FUNCTION.  AN EXCEPTION IS IF THE ISS IS IN GIMBAL LOCK AFTER
000420:                                                                                                  #           A RESTART, THE ICDU'S WILL NOT BE ZEROED.
000421:
000422:                                                                                                  #           3)  RESTART WITH RESTARTABLE PROGRAM USING THE IMU:  IN THIS CASE, NO INITIALIZATION TAKES PLACE SINCE
000423:                                                                                                  #           IT IS ASSUMED THAT THE USING PROGRAM DID THE INITIALIZATION AND THEREFORE T4RUPT SHOULD NOT INTERFERE.
000424:
000425:                                                                                                  #  IMODES30 BIT 7 IS SET = 1 BY THE FIRST BIT (CHANNEL 30 BIT 14 OR 9) WHICH ARRIVES.  FOLLOWING THIS. TNONTEST IS
000426:                                                                                                  #  ENTERED, FINDS BIT 7 = 1 BUT BIT 8 = 0, SO IT SETS BIT 8 = 1 AND EXITS.  THE NEXT TIME IT FINDS BIT 8 = 1 AND
000427:                                                                                                  #  PROCEEDS, SETTING BITS 8 AND 7 = 0.  AT PROCTNON, IF ISS TURN-ON REQUEST IS PRESENT, THE ISS IS CAGED (ZERO +
000428:                                                                                                  #  COARSE).  IF ISS OPERATE IS NOT PRESENT PROGRAM ALARM 00213 IS ISSUED.  AT THE END OF A 90 SECOND CAGE, BIT 2
000429:                                                                                                  #  OF IMODES30 IS TESTED.  IF IT IS = 1, ISS TURN-ON WAS NOT PRESENT FOR THE ENTIRE 90 SECONDS.  IN THAT CASE, IF
000430:                                                                                                  #  THE ISS TURN-ON REQUEST IS PRESENT THE 90 SECOND WAIT IS REPEATED, OTHERWISE NO ACTION OCCURS UNLESS A PROGRAM
000431:                                                                                                  #  WAS WAITING FOR THE INITIALIZATION IN WHICH CASE THE PROGRAM IS GIVEN AN IMUSTALL ERROR RETURN.  IF THE DELAY
000432:                                                                                                  #  WENT PROPERLY, THE ISS DELAY OUTBIT IS SENT AND THE ICDU'S ZEROED.  A TASK IS INITIATED TO REMOVE THE PIPA FAIL
000433:
000434:                                                                                                  #  INHIBIT BIT IN 10.24 SECONDS.  IF A MISSION PROGRAM WAS WAITING IT IS INFORMED VIA ENDIMU.
000435:
000436:                                                                                                  #  AT PROCTNON, IF ONLY ISS OPERATE IS PRESENT (OPONLY), THE CDU'S ARE ZEROED UNLESS THE PLATFORM IS IN COARSE
000437:                                                                                                  #  ALIGN (= GIMBAL LOCK HERE) OR A MISSION PROGRAM IS USING THE IMU (IMUSEFLG = 1).
000438:
000439:                                                                                                  #  CALLING SEQUENCE:  T4RUPT EVERY 480 MILLISECONDS AFTER IMUMON.
000440:
000441:                                                                                                  #  JOBS OR TASKS INITIATED:  1) ENDTNON, 90 SECONDS AFTER CAGING STARTED.  2) ISSUP, 4 SECONDS AFTER CAGING DONE.
000442:                                                                                                  #           3) PFAILOK, 10.24 SECONDS AFTER INITIALIZATION COMPLETED.  4) UNZ2, 320 MILLISECONDS AFTER ZEROING
000443:                                                                                                  #           STARTED.
000444:
000445:                                                                                                  #  SUBROUTINES CALLED:  CAGESUB, CAGESUB2, ZEROICDU, ENDIMU, IMUBAD, NOATTOFF, SETISSW, VARDELAY.
000446:
000447:                                                                                                  #  ERASABLE INITIALIZATION:  SEE IMUMON.
000448:
000449:                                                                                                  #  ALARMS:  PROGRAM ALARM 00213 IF ISS TURN-ON REQUESTED WITHOUT ISS OPERATE.
000450:
000451:                                                                                                  #  EXIT:  ENDTNON EXITS TO C33TEST.  TASKS HAVING TO DO WITH INITIALIZATION EXIT AS FOLLOWS:  MISSION PROGRAM
000452:                                                                                                  #  WAITING AND INITIALIZATION COMPLETE, EXIT TO ENDIMU, MISSION PROGRAM WAITING AND INITIALIZATION FAILED, EXIT TO
000453:                                                                                                  #  IMUBAD, IMU NOT IN USE, EXIT TO TASKOVER.
000454:
000455:                                                                                                  #  OUTPUT:  ISS INITIALIZED.
000456:
000457: 12,2352           40365        TNONTEST           CS       IMODES30                              #  AFTER PROCESSING ALL CHANGES, SEE IF IT
000458:


000460: 12,2353           77747                           MASK     BIT7                                  #  IS TIME TO ACT ON A TURN-ON SEQUENCE.
000461: 12,2354           10000                           CCS      A
000462: 12,2355           12507                           TCF      C33TEST                               #  NO - EXAMINE CHANNEL 33.
000463:
000464: 12,2356           37746                           CAF      BIT8                                  #  SEE IF FIRST SAMPLE OR SECOND.
000465: 12,2357           70365                           MASK     IMODES30
000466: 12,2360           10000                           CCS      A
000467: 12,2361           12365                           TCF      PROCTNON                              #  REACT AFTER SECOND SAMPLE.
000468:
000469: 12,2362           37746                           CAF      BIT8                                  #  IF FIRST SAMPLE, SET BIT TO REACT NEXT
000470: 12,2363           26365                           ADS      IMODES30                              #  TIME.
000471: 12,2364           12507                           TCF      C33TEST
000472:
000473:                                                                                                  #           PROCESS IMU TURN-ON REQUESTS AFTER WAITING 1 SAMPLE FOR ALL SIGNALS TO ARRIVE.
000474:
000475: 12,2365           43061        PROCTNON           CS       BITS7&8
000476: 12,2366           70365                           MASK     IMODES30
000477: 12,2367           54365                           TS       IMODES30
000478: 12,2370           77740                           MASK     BIT14                                 #  SEE IF TURN-ON REQUEST.
000479: 12,2371           10000                           CCS      A
000480: 12,2372           12465                           TCF      OPONLY                                #  OPERATE ON ONLY.
000481:
000482: 12,2373           40365                           CS       IMODES30                              #  IF TURN-ON REQUEST, WE SHOULD HAVE IMU
000483: 12,2374           77745                           MASK     BIT9                                  #  OPERATE.
000484: 12,2375           10000                           CCS      A
000485: 12,2376           12401                           TCF      +3
000486:
000487: 12,2377           04744                           TC       ALARM                                 #  ALARM IF NOT.
000488: 12,2400           00213                           OCT      213
000489:
000490: 12,2401           03012                 +3        TC       CAGESUB
000491: 12,2402           33067                           CAF      90SECS
000492:
000493: 12,2403           05701                           TC       WAITLIST
000494: 12,2404  E6,1404                                  EBANK=   M11
000495: 12,2404           02411 24006                     2CADR    ENDTNON
000496:
000497: 12,2406           12507                           TCF      C33TEST
000498:
000499: 12,2407           33067        RETNON             CAF      90SECS
000500: 12,2410           05722                           TC       VARDELAY
000501:
000502: 12,2411           47754        ENDTNON            CS       BIT2                                  #  RESET TURN-ON REQUEST FAIL BIT.
000503: 12,2412           70365                           MASK     IMODES30
000504: 12,2413           56365                           XCH      IMODES30
000505: 12,2414           77754                           MASK     BIT2                                  #  IF IT WAS OFF, SEND ISS DELAY COMPLETE.
000506: 12,2415           00006                           EXTEND
000507: 12,2416           12431                           BZF      ENDTNON2
000508:
000509: 12,2417           37740                           CAF      BIT14                                 #  IF IT WAS ON AND TURN-ON REQUEST NOW
000510: 12,2420           70365                           MASK     IMODES30                              #  PRESENT, RE-ENTER 90 SEC DELAY IN WL.
000511:


000513: 12,2421           00006                           EXTEND
000514: 12,2422           12407                           BZF      RETNON
000515:
000516: 12,2423           40074                           CS       STATE                                 #  IF IT IS NOT ON NOW, SEE IF A PROG WAS
000517: 12,2424           77746                           MASK     IMUSEFLG                              #  WAITING.
000518: 12,2425           10000                           CCS      A
000519: 12,2426           15745                           TCF      TASKOVER
000520: 12,2427           05243                           TC       POSTJUMP
000521: 12,2430           26703                           CADR     IMUBAD                                #  UNSUCCESSFUL TURN-ON.
000522:
000523: 12,2431           37737        ENDTNON2           CAF      BIT15                                 #  SEND ISS DELAY COMPLETE.
000524: 12,2432           00006                           EXTEND
000525: 12,2433           05012                           WOR      CHAN12
000526:
000527: 12,2434           05307                           TC       IBNKCALL                              #  TURN OFF NO ATT LAMP.
000528: 12,2435           26323                           CADR     NOATTOFF
000529:
000530: 12,2436           04303        UNZ2               TC       ZEROICDU
000531:
000532: 12,2437           43056                           CS       BITS4&5                               #  REMOVE ZERO AND COARSE.
000533: 12,2440           00006                           EXTEND
000534: 12,2441           03012                           WAND     CHAN12
000535:
000536: 12,2442           34310                           CAF      4SECS                                 #  WAIT 4 SECS FOR COUNTERS TO FIND GIMBALS
000537: 12,2443           05722                           TC       VARDELAY
000538:
000539: 12,2444           43057        ISSUP              CS       OCT54                                 #  REMOVE CAGING, IMU FAIL INHIBIT, AND
000540: 12,2445           70365                           MASK     IMODES30                              #  ICDUFAIL INHIBIT FLAGS.
000541: 12,2446           54365                           TS       IMODES30
000542:
000543: 12,2447           02763                           TC       SETISSW                               #  ISS WARNING MIGHT HAVE BEEN INHIBITED.
000544:
000545: 12,2450           47737                           CS       BIT15                                 #  REMOVE IMU DELAY COMPLETE DISCRETE.
000546: 12,2451           00006                           EXTEND
000547: 12,2452           03012                           WAND     12
000548:
000549: 12,2453           37743                           CAF      BIT11                                 #  DONT ENABLE PROG ALARM ON PIP FAIL FOR
000550: 12,2454           05701                           TC       WAITLIST                              #  ANOTHER 10 SECS.
000551:
000552: 12,2455  E6,1404                                  EBANK=   M11
000553: 12,2455           02307 26006                     2CADR    PFAILOK
000554:
000555: 12,2457           40074                           CS       STATE                                 #  SEE IF ANYONE IS WAITING FOR THE IMU AT
000556: 12,2460           77746                           MASK     IMUSEFLG                              #  IMUZERO. IF SO, WAKE THEM UP.
000557: 12,2461           10000                           CCS      A
000558: 12,2462           15745                           TCF      TASKOVER
000559:
000560: 12,2463           05243                           TC       POSTJUMP
000561: 12,2464           26675                           CADR     ENDIMU
000562:
000563: 12,2465           37752        OPONLY             CAF      BIT4                                  #  IF OPERATE ON ONLY, AND WE ARE IN COARSE
000564:


000566: 12,2466           00006                           EXTEND                                         #  ALIGN, DONT ZERO THE CDUS BECAUSE WE
000567: 12,2467           02012                           RAND     CHAN12                                #  MIGHT BE IN GIMBAL LOCK.
000568: 12,2470           10000                           CCS      A
000569: 12,2471           12507                           TCF      C33TEST
000570:
000571: 12,2472           37746                           CAF      IMUSEFLG                              #  OTHERWISE, ZERO THE COUNTERS
000572: 12,2473           70074                           MASK     STATE                                 #  UNLESS SOMEONE IS USING THE IMU.
000573: 12,2474           10000                           CCS      A
000574: 12,2475           12507                           TCF      C33TEST
000575:
000576: 12,2476           03024                           TC       CAGESUB2                              #  SET TURNON FLAGS.
000577:
000578: 12,2477           37751                           CAF      BIT5
000579: 12,2500           00006                           EXTEND
000580: 12,2501           05012                           WOR      12
000581:
000582: 12,2502           37750                           CAF      BIT6                                  #  WAIT 300 MS FOR AGS TO RECEIVE SIGNAL.
000583: 12,2503           05701                           TC       WAITLIST
000584: 12,2504  E6,1404                                  EBANK=   M11
000585: 12,2504           02436 24006                     2CADR    UNZ2
000586:
000587: 12,2506           12507                           TCF      C33TEST
000588:


000590:                                                                                                  #  PROGRAM NAME:  C33TEST
000591:
000592:                                                                                                  #  FUNCTIONAL DESCRIPTION:  THIS PROGRAM MONITORS THREE FLIP-FLOP INBITS OF CHANNEL 33 AND CALLS THE APPROPRIATE
000593:                                                                                                  #  SUBROUTINE TO PROCESS A CHANGE.  IT IS ANALOGOUS TO IMUMON, WHICH MONITORS CHANNEL 30, EXCEPT THAT IT READS
000594:                                                                                                  #  CHANNEL 33 WITH A WAND INSTRUCTION BECAUSE A 'WRITE' PULSE IS REQUIRED TO RESET THE FLIP-FLOPS.  THE BITS
000595:                                                                                                  #  PROCESSED AND THE SUBROUTINES CALLED ARE:
000596:
000597:                                                                                                  #           BIT    FUNCTION                SUBROUTINE
000598:                                                                                                  #           ---    --------                ----------
000599:                                                                                                  #            13    PIPA FAIL               PIPFAIL
000600:                                                                                                  #            12    DOWNLINK TOO FAST       DNTMFAST
000601:                                                                                                  #            11    UPLINK TOO FAST         UPTMFAST
000602:
000603:                                                                                                  #  UPON ENTRY TO THE SUBROUTINE, THE NEW BIT STATE IS IN A.
000604:
000605:                                                                                                  #  CALLING SEQUENCE:  EVERY 480 MILLISECONDS AFTER TNONTEST.
000606:
000607:                                                                                                  #  JOBS OR TASKS INITIATED:  NONE.
000608:
000609:                                                                                                  #  SUBROUTINES CALLED:  PIPFAIL, DNTMFAST AND UPTMFAST ON BIT CHANGES.
000610:
000611:                                                                                                  #  ERASABLE INITIALIZATION:  C(IMODES33) = OCT 16000 ON A FRESH START OR RESTART, THEREFORE, THESE ALARMS WILL
000612:                                                                                                  #  REAPPEAR IF THE CONDITIONS PERSIST.
000613:
000614:                                                                                                  #  ALARMS:  NONE.
000615:
000616:                                                                                                  #  EXIT:  GLOCKMON.
000617:
000618:                                                                                                  #  OUTPUT:  UPDATED BITS 13, 12 AND 11 OF IMODES33 WITH CHANGES PROCESSED.
000619:
000620: 12,2507           30366        C33TEST            CA       IMODES33                              #  SEE IF RELEVANT CHAN 33 BITS HAVE
000621: 12,2510           75660                           MASK     33RDMSK
000622: 12,2511           54001                           TS       L                                     #  CHANGED.
000623: 12,2512           35660                           CAF      33RDMSK
000624: 12,2513           00006                           EXTEND
000625: 12,2514           03033                           WAND     33                                    #  RESETS FLIP-FLOP INPUTS.
000626: 12,2515           00006                           EXTEND
000627: 12,2516           06001                           RXOR     L
000628: 12,2517           00006                           EXTEND
000629: 12,2520           12547                           BZF      GLOCKMON                              #  ON NO CHANGE.
000630:
000631: 12,2521           54070                           TS       RUPTREG1                              #  SAVE BITS WHICH HAVE CHANGED.
000632: 12,2522           22366                           LXCH     IMODES33
000633: 12,2523           00006                           EXTEND
000634: 12,2524           06001                           RXOR     L
000635: 12,2525           54366                           TS       IMODES33                              #  UPDATED IMODES33.
000636:
000637: 12,2526           37761                           CAF      ZERO
000638: 12,2527           56070                           XCH      RUPTREG1
000639: 12,2530           60000                           DOUBLE
000640:


000642: 12,2531           12534                           TCF      NXTIBT     +1                         #  SCAN FOR BIT CHANGES.
000643:
000644: 12,2532           67755                 -1        AD       ONE
000645: 12,2533           24070        NXTIBT             INCR     RUPTREG1
000646: 12,2534           60000                 +1        DOUBLE
000647: 12,2535           54000                           TS       A                                     #  (CODING IDENTICAL TO CHAN 30).
000648: 12,2536           12533                           TCF      NXTIBT
000649:
000650: 12,2537           56071                           XCH      RUPTREG2
000651: 12,2540           50070                           INDEX    RUPTREG1                              #  GET NEW VALUE OF BIT WHICH CHANGED.
000652: 12,2541           37741                           CAF      BIT13
000653: 12,2542           70366                           MASK     IMODES33
000654: 12,2543           50070                           INDEX    RUPTREG1
000655: 12,2544           03044                           TC       C33JMP
000656:
000657: 12,2545           10071        NXTFL33            CCS      RUPTREG2                              #  PROCESS POSSIBLE ADDITIONAL CHANGES.
000658: 12,2546           12532                           TCF      NXTIBT     -1
000659:


000661:                                                                                                  #  PROGRAM NAME:  GLOCKMON
000662:
000663:                                                                                                  #  FUNCTIONAL DESCRIPTION:  THIS PROGRAM MONITORS THE CDUZ COUNTER TO DETERMINE WHETHER THE ISS IS IN GIMBAL LOCK
000664:                                                                                                  #  AND TAKES ACTION IF IT IS.  THREE REGIONS OF MIDDLE GIMBAL ANGLE (MGA) ARE USED:
000665:
000666:                                                                                                  #           1) ABS(MGA) LESS THAN OR EQUAL TO 70 DEGREES - NORMAL MODE.
000667:                                                                                                  #           2) ABS(MGA) GREATER THAN 70 DEGREES AND LESS THAN OR EQUAL TO 85 DEGREES - GIMBAL LOCK LAMP TURNED ON.
000668:                                                                                                  #           3) ABS(MGA) GREATER THAN 85 DEGREES - ISS PUT IN COARSE ALIGN AND NO ATT LAMP TURNED ON.
000669:
000670:                                                                                                  #  CALLING SEQUENCE:  EVERY 480 MILLISECONDS AFTER C33TEST.
000671:
000672:                                                                                                  #  JOBS OR TASKS INITIATED:  NONE.
000673:
000674:                                                                                                  #  SUBROUTINES CALLED:  1) SETCOARS WHEN ABS(MGA) GREATER THAN 85 DEGREES AND ISS NOT IN COARSE ALIGN.
000675:                                                                                                  #                       2) LAMPTEST BEFORE TURNING OFF GIMBAL LOCK LAMP.
000676:
000677:                                                                                                  #  ERASABLE INITIALIZATION:
000678:                                                                                                  #           1) FRESH START OR RESTART WITH NO GROUPS ACTIVE:  C(CDUZ) = 0, IMODES30 BIT 6 = 0, IMODES33 BIT 1 =  0.
000679:                                                                                                  #           2) RESTART WITH GROUPS ACTIVE:  SAME AS FRESH START EXCEPT C(CDUZ) NOT CHANGED SO GIMBAL MONITOR
000680:                                                                                                  #                                           PROCEEDS AS BEFORE.
000681:
000682:                                                                                                  #  ALARMS:  1) MGA REGION (2) CAUSES GIMBAL LOCK LAMP TO BE LIT.
000683:                                                                                                  #           2) MGA REGION (3) CAUSES THE ISS TO BE PUT IN COARSE ALIGN AND THE NO ATT LAMP TO BE LIT IF EITHER NOT
000684:                                                                                                  #              SO ALREADY.
000685:
000686: 12,2547           10034        GLOCKMON           CCS      CDUZ
000687: 12,2550           12554                           TCF      GLOCKCHK                              #  SEE IF MAGNITUDE OF MGA IS GREATER THAN
000688: 12,2551           12574                           TCF      SETGLOCK                              #  70 DEGREES.
000689: 12,2552           12554                           TCF      GLOCKCHK
000690: 12,2553           12574                           TCF      SETGLOCK
000691:
000692: 12,2554           62621        GLOCKCHK           AD       -70DEGS
000693: 12,2555           00006                           EXTEND
000694: 12,2556           62573                           BZMF     SETGLOCK   -1                         #  NO LOCK.
000695:
000696: 12,2557           62622                           AD       -15DEGS                               #  SEE IF ABS(MGA) GREATER THAN 85 DEGREES.
000697: 12,2560           00006                           EXTEND
000698: 12,2561           62571                           BZMF     NOGIMRUN
000699:
000700: 12,2562           37752                           CAF      BIT4                                  #  IF SO, SYSTEM SHOULD BE IN COARSE ALIGN
000701: 12,2563           00006                           EXTEND                                         #  TO PREVENT GIMBAL RUNAWAY.
000702: 12,2564           02012                           RAND     12
000703: 12,2565           10000                           CCS      A
000704: 12,2566           12571                           TCF      NOGIMRUN
000705:
000706: 12,2567           05307                           TC       IBNKCALL
000707: 12,2570           26231                           CADR     SETCOARS
000708:
000709: 12,2571           37750        NOGIMRUN           CAF      BIT6                                  #  TURN ON GIMBAL LOCK LAMP.
000710: 12,2572           12574                           TCF      SETGLOCK
000711:


000713: 12,2573           37761                 -1        CAF      ZERO
000714: 12,2574           60326        SETGLOCK           AD       DSPTAB     +11D                       #  SEE IF PRESENT STATE OF GIMBAL LOCK LAMP
000715: 12,2575           77750                           MASK     BIT6                                  #  AGREES WITH DESIRED STATE BY HALF ADDING
000716: 12,2576           00006                           EXTEND                                         #  THE TWO.
000717: 12,2577           13203                           BZF      GLOCKOK                               #  OK AS IS.
000718:
000719: 12,2600           70326                           MASK     DSPTAB     +11D                       #  IF OFF, DONT TURN ON IF IMU BEING CAGED.
000720: 12,2601           10000                           CCS      A
000721: 12,2602           12616                           TCF      GLAMPTST                              #  TURN OFF UNLESS LAMP TEST IN PROGRESS.
000722:
000723: 12,2603           37750                           CAF      BIT6
000724: 12,2604           70365                           MASK     IMODES30
000725: 12,2605           10000                           CCS      A
000726: 12,2606           13203                           TCF      GLOCKOK
000727:
000728: 12,2607           40326        GLINVERT           CS       DSPTAB     +11D                       #  INVERT GIMBAL LOCK LAMP.
000729: 12,2610           77750                           MASK     BIT6
000730: 12,2611           67737                           AD       BIT15                                 #  TO INDICATE CHANGE IN DSPTAB +11D.
000731: 12,2612           56326                           XCH      DSPTAB     +11D
000732:
000733: 12,2613           72623                           MASK     OCT37737
000734: 12,2614           26326                           ADS      DSPTAB     +11D
000735: 12,2615           13203                           TCF      GLOCKOK
000736:
000737: 12,2616           03047        GLAMPTST           TC       LAMPTEST                              #  TURN OFF UNLESS LAMP TEST IN PROGRESS.
000738: 12,2617           13203                           TCF      GLOCKOK
000739: 12,2620           12607                           TCF      GLINVERT
000740:
000741: 12,2621           63434        -70DEGS            DEC      -.38888                               #  -70 DEGREES SCALED IN HALF-REVOLUTIONS.
000742: 12,2622           75252        -15DEGS            DEC      -.08333
000743: 12,2623           37737        OCT37737           OCT      37737
000744:


000746:                                                                                                  #  PROGRAM NAME:  TLIM.
000747:
000748:                                                                                                  #  FUNCTIONAL DESCRIPTION:  THIS PROGRAM MAINTAINS THE TEMP LAMP (BIT 4 OF CHANNEL 11) ON THE DSKY TO AGREE WITH
000749:                                                                                                  #  THE TEMP SIGNAL FROM THE ISS (BIT 15 OF CHANNEL 30).  HOWEVER, THE LIGHT WILL NOT BE TURNED OFF IF A LAMP TEST
000750:                                                                                                  #  IS IN PROGRESS.
000751:
000752:                                                                                                  #  CALLING SEQUENCE:  CALLED BY IMUMON ON A CHANGE OF BIT 15 OF CHANNEL 30.
000753:
000754:                                                                                                  #  JOBS OR TASKS INITIATED:  NONE.
000755:
000756:                                                                                                  #  SUBROUTINES CALLED:  LAMPTEST.
000757:
000758:                                                                                                  #  ERASABLE INITIALIZATION:  FRESH START AND RESTART TURN THE TEMP LAMP OFF.
000759:
000760:                                                                                                  #  ALARMS:  TEMP LAMP TURNED ON WHEN IMU TEMP GOES OUT OF LIMITS.
000761:
000762:                                                                                                  #  EXIT:  NXTIFAIL.
000763:
000764:                                                                                                  #  OUTPUT:  SERVICE OF TEMP LAMP.                                          IN A, EXCEPT FOR TLIM.
000765:
000766: 12,2624           77735        TLIM               MASK     POSMAX                                #  REMOVE BIT FROM WORD OF CHANGES AND SET
000767: 12,2625           54071                           TS       RUPTREG2                              #  DSKY TEMP LAMP ACCORDINGLY.
000768:
000769: 12,2626           10365                           CCS      IMODES30
000770: 12,2627           12635                           TCF      TEMPOK
000771: 12,2630           12635                           TCF      TEMPOK
000772:
000773: 12,2631           37752                           CAF      BIT4                                  #  TURN ON LAMP.
000774: 12,2632           00006                           EXTEND
000775: 12,2633           05011                           WOR      11
000776: 12,2634           12350                           TCF      NXTIFAIL
000777:
000778: 12,2635           03047        TEMPOK             TC       LAMPTEST                              #  IF TEMP NOW OK, DONT TURN OFF LAMP IF
000779: 12,2636           12350                           TCF      NXTIFAIL                              #  LAMP TEST IN PROGRESS.
000780:
000781: 12,2637           47752                           CS       BIT4
000782: 12,2640           00006                           EXTEND
000783: 12,2641           03011                           WAND     11
000784: 12,2642           12350                           TCF      NXTIFAIL
000785:


000787:                                                                                                  #  PROGRAM NAME:  ITURNON.
000788:
000789:                                                                                                  #  FUNCTIONAL DESCRIPTION:  THIS PROGRAM IS CALLED BY IMUMON WHEN A CHANGE OF BIT 14 OF CHANNEL 30 (ISS TURN-ON
000790:                                                                                                  #  REQUEST) IS DETECTED.  UPON ENTRY, ITURNON CHECKS IF A TURN-ON DELAY SEQUENCE HAS FAILED, AND IF SO, IT EXITS.
000791:                                                                                                  #  IF NOT, IT CHECKS WHETHER THE TURN-ON REQUEST CHANGE IS TO ON OR OFF.  IF ON, IT SETS BIT7 OF IMODES30 TO 1 SO
000792:                                                                                                  #  THAT TNONTEST WILL INITIATE THE ISS INITIALIZATION SEQUENCE.  IF OFF, THE TURN-ON DELAY SIGNAL, CHANNEL 12 BIT
000793:                                                                                                  #  15, IS CHECKED AND IF IT IS ON, ITURNON EXITS.  IF THE DELAY SIGNAL IS OFF, PROGRAM ALARM 00207 IS ISSUED, BIT 2
000794:                                                                                                  #  OF IMODES30 IS SET TO 1 AND THE PROGRAM EXITS.
000795:
000796:                                                                                                  #           THE SETTING OF BIT 2 OF IMODES30 (ISS DELAY SEQUENCE FAIL) INHIBITS THIS ROUTINE AND IMUOP FROM
000797:                                                                                                  #  PROCESSING ANY CHANGES.  THIS BIT WILL BE RESET BY THE ENDTNON ROUTINE WHEN THE CURRENT 90 SECOND DELAY PERIOD
000798:                                                                                                  #  ENDS.
000799:
000800:                                                                                                  #  CALLING SEQUENCE:  FROM IMUMOM WHEN ISS TURN-ON REQUEST CHANGES STATE.
000801:
000802:                                                                                                  #  JOBS OR TASKS INITIATED:  NONE.
000803:
000804:                                                                                                  #  SUBROUTINES CALLED:  ALARM, IF THE ISS TURN-ON REQUEST IS NOT PRESENT FOR 90 SECONDS.
000805:
000806:                                                                                                  #  ERASABLE INITIALIZATION:  FRESH START AND RESTART SET BIT 15 OF CHANNEL 12 AND BITS 2 AND 7 OF IMODES30 TO 0,
000807:                                                                                                  #  AND BIT 14 OF IMODES30 TO 1.
000808:
000809:                                                                                                  #  ALARMS: PROGRAM ALARM 00207 IS ISSUED IF THE ISS TURN-ON REQUEST SIGNAL IS NOT PRESENT FOR 90 SECONDS.
000810:
000811:                                                                                                  #  EXIT:  NXTIFAIL.
000812:
000813:                                                                                                  #  OUTPUT:  BIT 7 OF IMODES30 TO START ISS INITIALIZATION, OR BIT 2 OF IMODES30 AND PROGRAM ALARM 00207 TO INDICATE
000814:                                                                                                  #  A FAILED TURN-ON SEQUENCE.
000815:
000816: 12,2643           37754        ITURNON            CAF      BIT2                                  #  IF DELAY REQUEST HAS GONE OFF
000817: 12,2644           70365                           MASK     IMODES30                              #  PREMATURELY, DO NOT PROCESS ANY CHANGES
000818: 12,2645           10000                           CCS      A                                     #  UNTIL THE CURRENT 90 SEC WAIT EXPIRES.
000819:
000820: 12,2646           12350                           TCF      NXTIFAIL
000821:
000822: 12,2647           37740                           CAF      BIT14                                 #  SEE IF JUST ON OR OFF.
000823: 12,2650           70365                           MASK     IMODES30
000824: 12,2651           00006                           EXTEND
000825: 12,2652           12666                           BZF      ITURNON2                              #  IF JUST ON.
000826:
000827: 12,2653           37737                           CAF      BIT15
000828: 12,2654           00006                           EXTEND                                         #  SEE IF DELAY PRESENT DISCRETE HAS BEEN
000829: 12,2655           02012                           RAND     12                                    #  SENT.  IF SO, ACTION COMPLETE.
000830: 12,2656           00006                           EXTEND
000831: 12,2657           12661                           BZF      +2
000832: 12,2660           12350                           TCF      NXTIFAIL
000833:
000834: 12,2661           37754                           CAF      BIT2                                  #  IF NOT, SET BIT TO INDICATE REQUEST NOT
000835: 12,2662           26365                           ADS      IMODES30                              #  PRESENT FOR FULL DURATION.
000836: 12,2663           04744                           TC       ALARM
000837: 12,2664           00207                           OCT      207
000838: 12,2665           12350                           TCF      NXTIFAIL
000839:


000841: 12,2666           47747        ITURNON2           CS       BIT7                                  #  SET BIT 7 TO INITIATE WAIT OF 1 SAMPLE.
000842: 12,2667           70365                           MASK     IMODES30
000843: 12,2670           67747                           AD       BIT7
000844: 12,2671           54365                           TS       IMODES30
000845: 12,2672           12350                           TCF      NXTIFAIL
000846:


000848:                                                                                                  #  PROGRAM NAME:  IMUCAGE.
000849:
000850:                                                                                                  #  FUNCTIONAL DESCRIPTION:  THIS PROGRAM PROCESSES CHANGES OF THE IMUCAGE INBIT, CHANNEL 30 BIT 11.  IF THE BIT
000851:                                                                                                  #  CHANGES TO 0 (CAGE BUTTON PRESSED), THE ISS IS CAGED (ICDU ZERO + COARSE ALIGN + NO ATT LAMP) UNTIL THE
000852:                                                                                                  #  ASTRONAUT SELECTS ANOTHER PROGRAM TO ALIGN THE ISS.  ANY PULSE TRAINS TO THE ICDU'S AND GYRO'S ARE TERMINATED,
000853:                                                                                                  #  THE ASSOCIATED OUTCOUNTERS ARE ZEROED AND THE GYRO'S ARE DE-SELECTED.  NO ACTION OCCURS WHEN THE BUTTON IS
000854:                                                                                                  #  RELEASED (INBIT CHANGES TO 1).
000855:
000856:                                                                                                  #  CALLING SEQUENCE:  BY IMUMON WHEN IMU CAGE BIT CHANGES.
000857:
000858:                                                                                                  #  JOBS OR TASKS INITIATED:  NONE.
000859:
000860:                                                                                                  #  SUBROUTINES CALLED:  CAGESUB.
000861:
000862:                                                                                                  #  ERASABLE INITIALIZATION:  FRESH START AND RESTART SET BIT 11 OF IMODES30 TO 1.
000863:
000864:                                                                                                  #  ALARMS: NONE.
000865:
000866:                                                                                                  #  EXIT:  NXTIFAIL.
000867:
000868:                                                                                                  #  OUTPUT:  ISS CAGED, COUNTERS ZEROED, PULSE TRAINS TERMINATED AND NO ATT LAMP LIT.
000869:
000870: 12,2673           10000        IMUCAGE            CCS      A                                     #  NO ACTION IF GOING OFF.
000871: 12,2674           12350                           TCF      NXTIFAIL
000872:
000873: 12,2675           43064                           CS       OCT71000                              #  TERMINATE ICDU AND GYRO PULSE TRAINS.
000874: 12,2676           00006                           EXTEND
000875: 12,2677           03014                           WAND     14
000876:
000877: 12,2700           03012                           TC       CAGESUB
000878:
000879: 12,2701           37761                           CAF      ZERO                                  #  ZERO COMMAND OUT-COUNTERS.
000880: 12,2702           54050                           TS       CDUXCMD
000881: 12,2703           54051                           TS       CDUYCMD
000882: 12,2704           54052                           TS       CDUZCMD
000883: 12,2705           54047                           TS       GYROCMD
000884:
000885: 12,2706           43063                           CS       OCT1700                               #  HAVING WAITED AT LEAST 27 MCT FROM
000886: 12,2707           00006                           EXTEND                                         #  GYRO PULSE TRAIN TERMINATION, WE CAN
000887: 12,2710           03014                           WAND     14                                    #  DE-SELECT THE GYROS.
000888:
000889: 12,2711           12350                           TCF      NXTIFAIL
000890:


000892:                                                                                                  #  PROGRAM NAME:  IMUOP.
000893:
000894:                                                                                                  #  FUNCTIONAL DESCRIPTION:  THIS PROGRAM PROCESSES CHANGES IN THE ISS OPERATE DISCRETE, BIT 9 OF CHANNEL 30.
000895:                                                                                                  #  IF THE INBIT CHANGES TO 0, INDICATING ISS ON, IMUOP GENERALLY SETS BIT 7 OF IMODES30 TO 1 TO REQUEST ISS
000896:                                                                                                  #  INITIALIZATION VIA TNONTEST.  AN EXCEPTION IS DURING A FAILED ISS DELAY DURING WHICH BIT 2 OF IMODES30 IS SET
000897:                                                                                                  #  TO 1 AND NO FURTHER INITIALIZATION IS REQUIRED.  WHEN THE INBIT CHANGES TO 1, INDICATING ISS OFF, IMUSEFLG IS
000898:                                                                                                  #  TESTED TO SEE IF ANY PROGRAM WAS USING THE ISS.  IF SO, PROGRAM ALARM 00214 IS ISSUED.
000899:
000900:                                                                                                  #  CALLING SEQUENCE:  BY IMUMON WHEN BIT 9 OF CHANNEL 30 CHANGES.
000901:
000902:                                                                                                  #  JOBS OR TASKS INITIATED:  NONE.
000903:
000904:                                                                                                  #  SUBROUTINES CALLED:  ALARM, IF ISS IS TURNED OFF WHILE IN USE.
000905:
000906:                                                                                                  #  ERASABLE INITIALIZATION:  ON FRESH START AND RESTART, BIT 9 OF IMODES30 IS SET TO 1 EXCEPT WHEN THE GIMBAL LOCK
000907:                                                                                                  #  LAMP IS ON, IN WHICH CASE IT IS SET TO 0.  THIS PREVENTS ICDU ZERO BY TNONTEST WITH THE ISS IN GIMBAL LOCK.
000908:
000909:                                                                                                  #  ALARMS:  PROGRAM ALARM 00214 IF THE ISS IS TURNED OFF WHILE IN USE.
000910:
000911:                                                                                                  #  EXIT:  NXTIFAIL.
000912:
000913:                                                                                                  #  OUTPUT:  ISS INITIALIZATION REQUEST (IMODES30 BIT 7) OR PROGRAM ALARM 00214.
000914:
000915: 12,2712           00006        IMUOP              EXTEND
000916: 12,2713           12723                           BZF      IMUOP2
000917:
000918: 12,2714           40074                           CS       STATE                                 #  IF GOING OFF, ALARM IF PROG USING IMU.
000919: 12,2715           77746                           MASK     IMUSEFLG
000920: 12,2716           10000                           CCS      A
000921: 12,2717           12350                           TCF      NXTIFAIL
000922:
000923: 12,2720           04744                           TC       ALARM
000924: 12,2721           00214                           OCT      214
000925: 12,2722           12350                           TCF      NXTIFAIL
000926:
000927: 12,2723           37754        IMUOP2             CAF      BIT2                                  #  SEE IF FAILED ISS TURN-ON SEQ IN PROG.
000928: 12,2724           70365                           MASK     IMODES30
000929: 12,2725           10000                           CCS      A
000930: 12,2726           12350                           TCF      NXTIFAIL                              #  IF SO, DONT PROCESS UNTIL PRESENT 90
000931: 12,2727           12666                           TCF      ITURNON2                              #  SECONDS EXPIRES.
000932:


000934:                                                                                                  #  PROGRAM NAME:  PIPFAIL
000935:
000936:                                                                                                  #  FUNCTIONAL DESCRIPTION:  THIS PROGRAM PROCESSES CHANGES OF BIT 13 OF CHANNEL 33, PIPA FAIL.  IT SETS BIT 10 OF
000937:                                                                                                  #  IMODES30 TO AGREE.  IT CALLS SETISSW IN CASE A PIPA FAIL NECESSITATES AN ISS WARNING.  IF NOT,I.E., IMODES30
000938:                                                                                                  #  BIT 1 = 1, AND A PIPA FAIL IS PRESENT AND THE ISS IS NOT BEING INITIALIZED, PROGRAM ALARM 00212 IS ISSUED.
000939:
000940:                                                                                                  #  CALLING SEQUENCE:  BY C33TEST ON CHANGES OF CHANNEL 33 BIT 13.
000941:
000942:                                                                                                  #  JOBS OR TASKS INITIATED:  NONE.
000943:
000944:                                                                                                  #  SUBROUTINES CALLED:  1) SETISSW, AND 2) ALARM (SEE FUNCTIONAL DESCRIPTION).
000945:
000946:                                                                                                  #  ERASABLE INITIALIZATION:  SEE IMUMON FOR INITIALIZATION OF IMODES30.  THE RELAVANT BITS ARE 5, 7, 8, 9, AND 10.
000947:
000948:                                                                                                  #  ALARMS:  PROGRAM ALARM 00212 IF PIPA FAIL IS PRESENT BUT NEITHER ISS WARNING IS TO BE ISSUED NOR THE ISS IS
000949:                                                                                                  #  BEING INITIALIZED.
000950:
000951:                                                                                                  #  EXIT:  NXTFL33.
000952:
000953:                                                                                                  #  OUTPUT:  PROGRAM ALARM 00212 AND ISS WARNING MAINTENANCE.
000954:
000955: 12,2730           10000        PIPFAIL            CCS      A                                     #  SET BIT10 IN IMODES30 SO ALL ISS WARNING
000956: 12,2731           37744                           CAF      BIT10                                 #  INFO IS IN ONE REGISTER.
000957: 12,2732           56365                           XCH      IMODES30
000958: 12,2733           73066                           MASK     -BIT10
000959: 12,2734           26365                           ADS      IMODES30
000960:
000961: 12,2735           02763                           TC       SETISSW
000962:
000963: 12,2736           40365                           CS       IMODES30                              #  IF PIP FAIL DOESNT LIGHT ISS WARNING, DO
000964: 12,2737           77755                           MASK     BIT1                                  #  A PROGRAM ALARM IF IMU OPERATING BUT NOT
000965: 12,2740           10000                           CCS      A                                     #  CAGED OR BEING TURNED ON.
000966:
000967: 12,2741           12545                           TCF      NXTFL33
000968:
000969: 12,2742           30365                           CA       IMODES30
000970: 12,2743           73062                           MASK     OCT1720
000971: 12,2744           10000                           CCS      A
000972: 12,2745           12545                           TCF      NXTFL33                               #  ABOVE CONDITION NOT MET.
000973:
000974: 12,2746           04744                           TC       ALARM
000975: 12,2747           00212                           OCT      212
000976: 12,2750           12545                           TCF      NXTFL33
000977:


000979:                                                                                                  #  PROGRAM NAMES:  DNTMFAST, UPTMFAST
000980:
000981:                                                                                                  #  FUNCTIONAL DESCRIPTION:  THESE PROGRAMS PROCESS CHANGES OF BITS 12 AND 11 OF CHANNEL 33.  IF A BIT CHANGES TO A
000982:                                                                                                  #  0, A PROGRAM ALARM IS ISSUED.  THE ALARMS ARE:
000983:
000984:                                                                                                  #           BIT    ALARM           CAUSE
000985:                                                                                                  #           ---    -----           -----
000986:                                                                                                  #            12    01105           DOWNLINK TOO FAST
000987:                                                                                                  #            11    01106           UPLINK TOO FAST
000988:
000989:                                                                                                  #  CALLING SEQUENCE:  BY C33TEST ON A BIT CHANGE.
000990:
000991:                                                                                                  #  SUBROUTINES CALLED:  ALARM, IF A BIT CHANGES TO A 0.
000992:
000993:                                                                                                  #  ERASABLE INITIALIZATION:  FRESH START OR RESTART, BITS 12 AND 11 OF IMODES33 ARE SET TO 1.
000994:
000995:                                                                                                  #  ALARMS:  SET FUNCTIONAL DESCRIPTION.
000996:
000997:                                                                                                  #  EXIT:  NXTFL33.
000998:
000999:                                                                                                  #  OUTPUT:  PROGRAM ALARM ON A BIT CHANGE TO 0.
001000:
001001: 12,2751           10000        DNTMFAST           CCS      A                                     #  DO PROG ALARM IF TM TOO FAST.
001002: 12,2752           12545                           TCF      NXTFL33
001003:
001004: 12,2753           04744                           TC       ALARM
001005: 12,2754           01105                           OCT      1105
001006: 12,2755           12545                           TCF      NXTFL33
001007:
001008: 12,2756           10000        UPTMFAST           CCS      A                                     #  SAME AS DNLINK TOO FAST WITH DIFFERENT
001009: 12,2757           12545                           TCF      NXTFL33                               #  ALARM CODE.
001010:
001011: 12,2760           04744                           TC       ALARM
001012: 12,2761           01106                           OCT      1106
001013: 12,2762           12545                           TCF      NXTFL33
001014:


001016:                                                                                                  #  PROGRAM NAME:  SETISSW
001017:
001018:                                                                                                  #  FUNCTIONAL DESCRIPTION:  THIS PROGRAM TURNS THE ISS WARNING LAMP ON AND OFF (CHANNEL 11 BIT 1 = 1 FOR ON,
001019:                                                                                                  #  0 FOR OFF) DEPENDING ON THE STATUS OF IMODES30 BITS 13 (IMU FAIL) AND 4 (INHIBIT IMU FAIL), 12 (ICDU FAIL) AND
001020:                                                                                                  #  3 (INHIBIT ICDU FAIL), AND 10 (PIPA FAIL) AND 1 (INHIBIT PIPA FAIL).  THE LAMP IS LEFT ON IF A LAMP TEST IS IN
001021:                                                                                                  #  PROGRESS.
001022:
001023:                                                                                                  #  CALLING SEQUENCE:  CALLED BY IMUMON ON CHANGES TO IMU FAIL AND ICDU FAIL.  CALLED BY IFAILOK AND PFAILOK UPON
001024:                                                                                                  #  REMOVAL OF THE FAIL INHIBITS.  CALLED BY PIPFAIL WHEN THE PIPA FAIL DISCRETE CHANGES.  IT IS CALLED BY PIPUSE
001025:                                                                                                  #  SINCE THE PIPA FAIL PROGRAM ALARM MAY NECESSITATE AN ISS WARNING, AND LIKEWISE BY PIPFREE WHEN THE ALARM DEPARTS
001026:                                                                                                  #  AND IT IS CALLED BY IMUZERO3 AND ISSUP AFTER THE FAIL INHIBITS HAVE BEEN REMOVED.
001027:
001028:                                                                                                  #  JOBS OR TASKS INITIATED:  NONE.
001029:
001030:                                                                                                  #  SUBROUTINES CALLED:  NONE.
001031:
001032:                                                                                                  #  ERASABLE INITIALIZATION:
001033:
001034:                                                                                                  #           1) IMODES30 - SEE IMUMON.
001035:                                                                                                  #           2) IMODES33 BIT 1 = 0 (LAMP TEST NOT IN PROGRESS).
001036:
001037:                                                                                                  #  ALARMS:  ISS WARNING.
001038:
001039:                                                                                                  #  EXIT: VIA Q.
001040:
001041:                                                                                                  #  OUTPUT: ISS WARNING LAMP SET PROPERLY.
001042:
001043: 12,2763           33054        SETISSW            CAF      OCT15                                 #  SET ISS WARNING USING THE FAIL BITS IN
001044: 12,2764           70365                           MASK     IMODES30                              #  BITS 13, 12, AND 10 OF IMODES30 AND THE
001045: 12,2765           00006                           EXTEND                                         #  FAILURE INHIBIT BITS IN POSITIONS
001046: 12,2766           77744                           MP       BIT10                                 #  4, 3, AND 1.
001047: 12,2767           30365                           CA       IMODES30
001048: 12,2770           00006                           EXTEND
001049: 12,2771           04001                           ROR      L                                     #  0 INDICATES FAILURE.
001050: 12,2772           40000                           COM
001051: 12,2773           75657                           MASK     OCT15000
001052: 12,2774           10000                           CCS      A
001053: 12,2775           13006                           TCF      ISSWON                                #  FAILURE.
001054:
001055: 12,2776           37755        ISSWOFF            CAF      BIT1                                  #  DONT TURN OFF ISS WARNING IF LAMP TEST
001056: 12,2777           70366                           MASK     IMODES33                              #  IN PROGRESS.
001057: 12,3000           10000                           CCS      A
001058: 12,3001           00002                           TC       Q
001059:
001060: 12,3002           47755                           CS       BIT1
001061: 12,3003           00006                           EXTEND
001062: 12,3004           03011                           WAND     11
001063: 12,3005           00002                           TC       Q
001064:
001065: 12,3006           37755        ISSWON             CAF      BIT1
001066:


001068: 12,3007           00006                           EXTEND
001069: 12,3010           05011                           WOR      11
001070:
001071: 12,3011           00002                           TC       Q
001072:
001073: 12,3012           43065        CAGESUB            CS       BITS6&15                              #  SET OUTBITS AND INTERNAL FLAGS FOR
001074: 12,3013           00006                           EXTEND                                         #  SYSTEM TURN-ON OR CAGE.  DISABLE THE
001075: 12,3014           03012                           WAND     12                                    #  ERROR COUNTER AND REMOVE IMU DELAY COMP.
001076: 12,3015           33056                           CAF      BITS4&5                               #  SEND ZERO AND COARSE.
001077: 12,3016           00006                           EXTEND
001078: 12,3017           05012                           WOR      12
001079:
001080: 12,3020           43055                           CS       OC40010                               #  TURN ON NO ATT LAMP.
001081: 12,3021           70326                           MASK     DSPTAB     +11D
001082: 12,3022           63055                           AD       OC40010
001083: 12,3023           54326                           TS       DSPTAB     +11D
001084:
001085: 12,3024           43060        CAGESUB2           CS       OCT75                                 #  SET FLAGS TO INDICATE CAGING OR TURN-ON,
001086: 12,3025           70365                           MASK     IMODES30                              #  AND TO INHIBIT ALL ISS WARNING INFO.
001087: 12,3026           63060                           AD       OCT75
001088: 12,3027           54365                           TS       IMODES30
001089:
001090: 12,3030           00006                           EXTEND
001091: 12,3031           33035                           DCA      T4DAP                                 #  DISABLE DAP DURING ISS INITIALIZATION
001092: 12,3032           53001                           DXCH     T5ADR
001093:
001094: 12,3033           00002                           TC       Q
001095:
001096: 12,3034  E6,1541                                  EBANK=   DT
001097: 12,3034           02136 34006  T4DAP              2CADR    DAPIDLER
001098: 12,3036  12,2763               IMUFAIL            EQUALS   SETISSW
001099: 12,3036  12,2763               ICDUFAIL           EQUALS   SETISSW
001100:


001102:                                                                                                  #           JUMP TABLES AND CONSTANTS.
001103:
001104: 12,3036           12643        IFAILJMP           TCF      ITURNON                               #  CHANNEL 30 DISPATCH.
001105: 12,3037           12763                           TCF      IMUFAIL
001106: 12,3040           12763                           TCF      ICDUFAIL
001107: 12,3041           12673                           TCF      IMUCAGE
001108: 12,3042           76400        30RDMSK            OCT      76400                                 #  (BIT 10 NOT SAMPLED HERE).
001109: 12,3043           12712                           TCF      IMUOP
001110:
001111: 12,3044           12730        C33JMP             TCF      PIPFAIL                               #  CHANNEL 33 DISPATCH.
001112: 12,3045           12751                           TCF      DNTMFAST
001113: 12,3046           12756                           TCF      UPTMFAST
001114:
001115:                                                                                                  #           SUBROUTINE TO SKIP IF LAMP TEST NOT IN PROGRESS.
001116: 12,3047           40366        LAMPTEST           CS       IMODES33                              #  BIT 1 OF IMODES33 = 1 IF LAMP TEST IN
001117: 12,3050           77755                           MASK     BIT1                                  #  PROGRESS.
001118: 12,3051           10000                           CCS      A
001119: 12,3052           24002                           INCR     Q
001120: 12,3053           00002                           TC       Q
001121:
001122: 12,3054     5660               33RDMSK            EQUALS   PRIO16
001123: 12,3054           00015        OCT15              OCT      15
001124: 12,3055           40010        OC40010            OCT      40010
001125: 12,3056           00030        BITS4&5            OCT      30
001126: 12,3057           00054        OCT54              OCT      54
001127: 12,3060           00075        OCT75              OCT      75
001128: 12,3061           00300        BITS7&8            OCT      300
001129: 12,3062           01720        OCT1720            OCT      1720
001130: 12,3063           01700        OCT1700            OCT      1700
001131: 12,3064     5657               OCT15000           EQUALS   PRIO15
001132: 12,3064           71000        OCT71000           OCT      71000
001133: 12,3065           40040        BITS6&15           OCT      40040
001134:
001135: 12,3066           76777        -BIT10             OCT      -1000
001136:
001137: 12,3067           21450        90SECS             DEC      9000       B-14
001138: 12,3070           00014        120MS              DEC      12         B-14
001139:
001140: 12,3071  12,3203               GLOCKOK            EQUALS   RCSMONIT
001141: 12,3071  12,3203               NOIMUON            EQUALS   GLOCKOK
001142:


001144:                                                                                                  #           RR INBIT MONITOR.
001145:
001146: 12,3071           30413        RRAUTCHK           CA       RADMODES                              #  SEE IF CHANGE IN RR AUTO MODE BIT.
001147: 12,3072           00006                           EXTEND
001148: 12,3073           06033                           RXOR     33
001149: 12,3074           77754                           MASK     BIT2
001150: 12,3075           00006                           EXTEND
001151: 12,3076           13132                           BZF      RRCDUCHK
001152:
001153: 12,3077           22413                           LXCH     RADMODES                              #  UPDATE RADMODES.
001154: 12,3100           00006                           EXTEND
001155: 12,3101           06001                           RXOR     L
001156: 12,3102           54413                           TS       RADMODES
001157: 12,3103           77754                           MASK     BIT2                                  #  SEE IF JUST ON.
001158:
001159: 12,3104           10000                           CCS      A
001160: 12,3105           13124                           TCF      RROFF                                 #  OFF.
001161:
001162: 12,3106           37747                           CAF      BIT7                                  #  IF JUST ON AND SOME PROGRAM IS USING THE
001163: 12,3107           70074                           MASK     STATE                                 #  RR, DONT ZERO THE CDUS.
001164: 12,3110           10000                           CCS      A
001165: 12,3111           13132                           TCF      RRCDUCHK
001166:
001167: 12,3112           43123                           CS       OCT10001                              #  SET BITS TO INDICATE ZERO AND TURNON
001168: 12,3113           70413                           MASK     RADMODES                              #  IN PROGRESS.
001169: 12,3114           63123                           AD       OCT10001
001170: 12,3115           54413                           TS       RADMODES
001171:
001172: 12,3116           37755                           CAF      ONE
001173: 12,3117           05701                           TC       WAITLIST
001174: 12,3120  E6,1404                                  EBANK=   M11
001175: 12,3120           02000 20006                     2CADR    RRTURNON
001176: 12,3122           13176                           TCF      NORRGMON
001177:
001178: 12,3123           10001        OCT10001           OCT      10001
001179:
001180: 12,3124           40074        RROFF              CS       STATE                                 #  IF SOMEONE WAS USING THE RR, DISPLAY AN
001181:
001182: 12,3125           77747                           MASK     BIT7                                  #  ALARM IF THE RR GOES OUT OF AUTO MODE.
001183: 12,3126           10000                           CCS      A
001184: 12,3127           13132                           TCF      RRCDUCHK
001185:
001186: 12,3130           04744                           TC       ALARM
001187: 12,3131           00514                           OCT      514
001188:


001190:                                                                                                  #           CHECK FOR RR CDU FAIL.
001191:
001192: 12,3132           30413        RRCDUCHK           CA       RADMODES                              #  LAST SAMPLED BIT IN RADMODES.
001193: 12,3133           00006                           EXTEND
001194: 12,3134           06030                           RXOR     30
001195: 12,3135           77747                           MASK     BIT7
001196: 12,3136           00006                           EXTEND
001197: 12,3137           13152                           BZF      RRGIMON
001198:
001199: 12,3140           37754                           CAF      BIT2                                  #  IF RR NOT IN AUTO MODE, DONT CHANGE BIT
001200: 12,3141           70413                           MASK     RADMODES                              #  7 OF RADMODES. IF THIS WERE NOT DONE,
001201: 12,3142           10000                           CCS      A                                     #  THE TRACKER FAIL MIGHT COME ON WHEN
001202: 12,3143           13176                           TCF      NORRGMON                              #  JUST READING LR DATA.
001203:
001204: 12,3144           37747                           CAF      BIT7                                  #  SET BIT 7 OF RADMODES FOR SETTRKF.
001205: 12,3145           22413                           LXCH     RADMODES                              #  UPDATE RADMODES.
001206: 12,3146           00006                           EXTEND
001207: 12,3147           06001                           RXOR     L
001208: 12,3150           54413                           TS       RADMODES
001209:
001210: 12,3151           04366        TRKFLCDU           TC       SETTRKF                               #  UPDATE TRACKER FAIL LAMP ON DSKY.
001211:


001213:                                                                                                  #           THE RR GIMBAL LIMIT MONITOR IS ENABLED WHENEVER THE RR IS IN THE AUTO MODE EXCEPT WHEN THE RR CDUS ARE
001214:                                                                                                  #  BEING ZEROED, OR DURING A REMODE OR MONITOR REPOSITION OPERATION. THE LATTER IS INITIATED BY THIS MONITOR WHEN
001215:
001216:                                                                                                  #  THE GIMBALS EXCEED THE LIMITS FOR THE CURRENT MODE. A ROUTINE IS INITIATED TO DRIVE THE GIMBALS TO T = 0 AND
001217:                                                                                                  #  S = 0 IF IN MODE 1 AND T = 180 WITH S = -90 FOR MODE 2.
001218:
001219: 12,3152           33174        RRGIMON            CAF      OCT32002                              #  INHIBITED BY REMODE, ZEROING, MONITOR.
001220: 12,3153           70413                           MASK     RADMODES                              #  OR RR NOT IN AUTO.
001221: 12,3154           10000                           CCS      A
001222: 12,3155           13176                           TCF      NORRGMON
001223:
001224: 12,3156           04323                           TC       RRLIMCHK                              #  SEE IF ANGLES IN LIMITS.
001225: 12,3157           00035                           ADRES    OPTY
001226:
001227: 12,3160           13162                           TCF      MONREPOS
001228:
001229: 12,3161           13176                           TCF      NORRGMON                              #  (ADDITIONAL CODING MAY GO HERE).
001230:
001231: 12,3162           37743        MONREPOS           CAF      BIT11                                 #  SET FLAG TO SHOW REPOSITION IN PROGRESS.
001232: 12,3163           26413                           ADS      RADMODES
001233:
001234: 12,3164           43175                           CS       OCT20002                              #  DISABLE TRACKER AND ERROR COUNTER.
001235: 12,3165           00006                           EXTEND
001236: 12,3166           03012                           WAND     12
001237:
001238: 12,3167           37754                           CAF      TWO
001239:
001240: 12,3170           05701                           TC       WAITLIST
001241: 12,3171  E6,1404                                  EBANK=   M11
001242: 12,3171           02051 20006                     2CADR    DORREPOS
001243: 12,3173           13176                           TCF      NORRGMON
001244:
001245: 12,3174           32002        OCT32002           OCT      32002
001246: 12,3175           20002        OCT20002           OCT      20002
001247:


001249:                                                                                                  #  PROGRAM NAME:  GPMATRIX (DAPT4S) MOD. NO. 2 DATE: OCTOBER 27, 1966
001250:
001251:                                                                                                  #  AUTHOR:  JONATHAN D. ADDELSTON (ADAMS ASSOCIATES)
001252:
001253:                                                                                                  #  THIS PROGRAM CALCULATES ALL THE SINGLE-PRECISION MATRIX ELEMENTS WHICH ARE USED BY LEM DAP TO TRANSFORM VECTORS
001254:                                                                                                  #  FROM GIMBAL TO PILOT (BODY) AXES AND BACK AGAIN.  THESE ELEMENTS ARE USED EXCLUSIVELY BY BASIC LANGUAGE ROUTINES
001255:                                                                                                  #  AND THEREFORE ARE NOT ARRAYED FOR USE BY INTERPRETIVE PROGRAMS.
001256:
001257:                                                                                                  #  CALLING SEQUENCE:  GPMATRIX IS TRANSFERRED TO FROM DAPT4S AND IS THUS EXECUTED 4 TIMES A SECOND BY T4RUPT.
001258:                                                                                                  #  DAPT4S IS LISTED IN T4JUMP TABLE TWICE EXPLICITLY AND ALSO OCCURS AFTER RRAUTCHK (WHICH IS ALSO LISTED TWICE).
001259:
001260:                                                                                                  #  SUBROUTINES CALLED: SPSIN, SPCOS.
001261:
001262:                                                                                                  #  NORMAL EXIT: RESUME.
001263:
001264:                                                                                                  #  ALARM/ABORT MODE:  THERE ARE NO REAL ALARMS OR ABORTS.  HOWEVER, WHEN THE MIDDLE GIMBAL ANGLE NEARS GIMBAL LOCK,
001265:                                                                                                  #  A DIVISION BY COS(MG) WILL CAUSE OVERFLOW (I.E. A BAD QUOTIENT).  THIS CONDITION IS PREVENTED BY TESTING COS(MG)
001266:                                                                                                  #  AND SUBSTITUTING POSMAX/NEGMAX FOR THE INCALCULABLE QUANTITIES.
001267:
001268:                                                                                                  #  INPUT: CDUX,CDUY,CDUZ.          OUTPUT: M11,M21,M31,M22,M32,MR12,MR13.
001269:                                                                                                  #                                          (ALSO MR22=M22,MR23=M32)
001270:
001271:                                                                                                  #  AOG = CDUX, AIG = CDUY, AMG = CDUZ: MNEMONIC IS: OIM = XYZ
001272:
001273:                                                                                                  #     *       *    SIN(MG)        0         1      *
001274:                                                                                                  #     M   =   *    COS(MG)COS(OG) SIN(OG)   0      *
001275:                                                                                                  #      GP     *   -COS(MG)SIN(OG) COS(OG)   0      *
001276:
001277:                                                                                                  #     *       *  0    COS(OG)/COS(MG)         -SIN(OG)/COS(MG)         *
001278:                                                                                                  #     M   =   *  0    SIN(OG)                  COS(OG)                 *
001279:                                                                                                  #      PG     *  1   -SIN(MG)COS(OG)/COS(MG)   SIN(MG)SIN(OG)/COS(MG)  *
001280:
001281:                                                                                                  #  THIS CODING TRANSFERS CONTROL TO THE DAP FIXED BANK FOR GPMATRIX:
001282:
001283: 12,3176                                           BANK     12
001284: 12,3176  E6,1404                                  EBANK=   M11
001285:
001286: 12,3176           00006        DAPT4S             EXTEND                                         #  GET 2CADR OF GPMATRIX
001287: 12,3177           33202                           DCA      DAPT4
001288: 12,3200           52006                           DTCB                                           #  CROSS BANKS
001289:
001290: 12,3201  12,3176               NORRGMON           EQUALS   DAPT4S
001291:
001292: 12,3201  E6,1404                                  EBANK=   M11
001293: 12,3201           02000 40006  DAPT4              2CADR    GPMATRIX
001294:


001296:                                                                                                  #  T4RUPT DAP LOGIC:
001297:
001298: 20,2000                                           BANK     20
001299: 20,2000  E6,1404                                  EBANK=   M11
001300:
001301: 20,2000           30034        GPMATRIX           CAE      CDUZ                                  #  SINGLE ENTRY POINT
001302: 20,2001           05373                           TC       SPSIN                                 #  SIN(CDUZ) = SIN(MG)
001303: 20,2002           55404                           TS       M11                                   #  SCALED AT 1
001304:
001305: 20,2003           30034                           CAE      CDUZ
001306: 20,2004           05372                           TC       SPCOS                                 #  COS(CDUZ) = COS(MG)
001307: 20,2005           55457                           TS       COSMG                                 #  SCALED AT 1 (ONLY A FACTOR)
001308:
001309: 20,2006           30032                           CAE      CDUX
001310:
001311: 20,2007           05373                           TC       SPSIN                                 #  SIN(CDUX) = SIN(OG)
001312: 20,2010           55401                           TS       M22                                   #  SCALED AT 1 (ALSO IS MR22)
001313:
001314: 20,2011           41401                           CS       M22
001315: 20,2012           00006                           EXTEND
001316: 20,2013           71457                           MP       COSMG                                 #  -SIN(OG)COS(MG)
001317: 20,2014           55406                           TS       M31                                   #  SCALED AT 1
001318:
001319: 20,2015           30032                           CAE      CDUX
001320: 20,2016           05372                           TC       SPCOS                                 #  COS(CDUX) = COS(OG)
001321: 20,2017           55403                           TS       M32                                   #  SCALED AT 1 (ALSO IS MR23)
001322:
001323: 20,2020           00006                           EXTEND
001324: 20,2021           71457                           MP       COSMG                                 #  COS(OG)COS(MG)
001325: 20,2022           55405                           TS       M21                                   #  SCALED AT 1
001326:
001327: 20,2023           31457                           CAE      COSMG                                 #  TEST FOR GIMBAL LOCK (OVERFLOW) REGION
001328: 20,2024           67736                           AD       NEG1/2                                #  BY TESTING MIDDLE GIMBAL ANGLE FOR
001329: 20,2025           00006                           EXTEND                                         #  VALUES EQUAL TO OR GREATER THAN 60 DEGS.
001330: 20,2026           62043                           BZMF     GPGLOCK
001331:
001332: 20,2027           31403                           CAE      M32
001333: 20,2030           00006                           EXTEND
001334:
001335: 20,2031           77740                           MP       BIT14                                 #  SCALE FOR DIVISION
001336: 20,2032           00006                           EXTEND
001337: 20,2033           11457                           DV       COSMG                                 #  COS(OG)/COS(MG)
001338: 20,2034           55400                           TS       MR12                                  #  SCALED AT 2
001339:
001340: 20,2035           41401                           CS       M22
001341: 20,2036           00006                           EXTEND
001342: 20,2037           77740                           MP       BIT14                                 #  SCALE FOR DIVISION
001343: 20,2040           00006                           EXTEND
001344: 20,2041           11457                           DV       COSMG                                 #  -SIN(OG)/COS(MG)
001345: 20,2042           12054                           TCF      MR13STOR
001346:


001348:                                                                                                  #  SPECIAL LOGIC FOR MIDDLE GIMBAL ANGLES GREATER THAN OR EQUAL TO 60 DEGS:
001349:
001350: 20,2043           11403        GPGLOCK            CCS      M32                                   #  SINCE DIVISION BY COS(MG) MIGHT CREATE
001351: 20,2044           37735                           CAF      POSMAX
001352: 20,2045           12047                           TCF      +2                                    #  OVERFLOW (I.E. A NUMBER GREATER THAN 2)
001353: 20,2046           37737                           CAF      NEGMAX
001354: 20,2047           55400                           TS       MR12                                  #  USE THE VALUE SGN(NUMERATOR)*POSMAX AS
001355:
001356: 20,2050           11401                           CCS      M22
001357: 20,2051           37735                           CAF      POSMAX                                #  THE CLOSEST APPROXIMATION
001358: 20,2052           12054                           TCF      +2
001359: 20,2053           37737                           CAF      NEGMAX
001360: 20,2054           55402        MR13STOR           TS       MR13                                  #  SCALED AT 2
001361:
001362: 20,2055           15751                           TCF      RESUME

End of include-file T4RUPT_PROGRAM.agc.  Parent file is MAIN.agc


