
Source Code


000002:                                                                                                  ## Copyright:   Public domain.
000003:                                                                                                  ## Filename:    T4RUPT_PROGRAM.agc
000004:                                                                                                  ## Purpose:     A section of Sunburst revision 37, or Shepatin revision 0.
000005:                                                                                                  ##              It is part of an early development version of the software
000006:                                                                                                  ##              for Apollo Guidance Computer (AGC) on the unmanned Lunar
000007:                                                                                                  ##              Module (LM) flight Apollo 5. Sunburst 37 was the program
000008:                                                                                                  ##              upon which Don Eyles's offline development program Shepatin
000009:                                                                                                  ##              was based; the listing herein transcribed was actually for
000010:                                                                                                  ##              the equivalent revision 0 of Shepatin.
000011:                                                                                                  ##              This file is intended to be a faithful transcription, except
000012:                                                                                                  ##              that the code format has been changed to conform to the
000013:                                                                                                  ##              requirements of the yaYUL assembler rather than the
000014:                                                                                                  ##              original YUL assembler.
000015:                                                                                                  ## Reference:   pp. 90-123
000016:                                                                                                  ## Assembler:   yaYUL
000017:                                                                                                  ## Contact:     Ron Burkey <info@sandroid.org>.
000018:                                                                                                  ## Website:     www.ibiblio.org/apollo/index.html
000019:                                                                                                  ## Mod history: 2017-05-24 MAS  Created from Sunburst 120.
000020:                                                                                                  ##              2017-05-29 HG   Transcribed
000021:                                                                                                  ##              2017-06-15 HG   Fix operator TCF  -> TC
000022:                                                                                                  ##                                           CS   -> CAF
000023:


000025: 12,2000                                           BANK     12
000026: 12,2000  E6,1404                                  EBANK=   M11
000027: 12,2000           54016        T4RUPT             TS       BANKRUPT
000028:
000029: 12,2001           37761                           CA       ZERO
000030: 12,2002           00006                           EXTEND                                         #  ZERO OUT0 EVERY T4RUPT.
000031: 12,2003           01010                           WRITE    OUT0
000032:
000033: 12,2004           50346                           INDEX    T4LOC                                 #  NORMALLY TO NORMT4, BUT TO LMPRESET OR
000034: 12,2005           10000                           TCF      0                                     #  DSKYRSET AFTER OUT0 COMMAND.
000035:
000036: 12,2006           10347        NORMT4             CCS      DSRUPTSW                              #  GOES 7(-1)0.
000037: 12,2007           12011                           TCF      +2
000038: 12,2010           37757                           CAF      SEVEN
000039: 12,2011           54347                           TS       DSRUPTSW
000040:
000041: 12,2012           12030                           TCF      T4RUPTA
000042:
000043: 12,2013           34265        LMPRESET           CAF      LNORMT4                               #  DO THINGS IN THIS ORDER FOR RESTART
000044: 12,2014           54346                           TS       T4LOC                                 #  PROTECTION.
000045: 12,2015           31144                           CA       LMPOUTT                               #  NEW VALUE OF OUTPUT POINTER.
000046: 12,2016           55143                           TS       LMPOUT
000047: 12,2017           47755                           CS       ONE                                   #  TO SHOW OUTPUT POINTER ALREADY UPDATED.
000048: 12,2020           55144                           TS       LMPOUTT
000049: 12,2021           34263                           CAF      90MRUPT
000050: 12,2022           12026                           TCF      +4
000051:
000052: 12,2023           34265        DSKYRSET           CAF      LNORMT4                               #  20 MS ON / 100 MS OFF.
000053: 12,2024           54346                           TS       T4LOC
000054: 12,2025           34264                           CAF      100MRUPT
000055: 12,2026           54027                 +4        TS       TIME4
000056: 12,2027           15753                           TCF      NOQRSM
000057:
000058:    4263                                           BLOCK    02
000059:    4263           37767        90MRUPT            DEC      16375      B-14
000060:    4264           37766        100MRUPT           DEC      16374      B-14
000061:    4265           02006        LNORMT4            ADRES    NORMT4
000062:    4266           74000        74K                OCT      74000
000063:
000064:                                                                                                  #  RELTAB IS A PACKED TABLE. RELAYWORD CODE IN UPPER 4 BITS, RELAY CODE
000065:                                                                                                  #  IN LOWER 5 BITS.
000066:
000067:    4267           04025        RELTAB             OCT      04025
000068:    4270           10003                           OCT      10003
000069:    4271           14031                           OCT      14031
000070:    4272           20033                           OCT      20033
000071:    4273           24017                           OCT      24017
000072:    4274           30036                           OCT      30036
000073:    4275           34034                           OCT      34034
000074:    4276           40023                           OCT      40023
000075:    4277           44035                           OCT      44035
000076:


000078:    4300           50037                           OCT      50037
000079:    4301           54000                           OCT      54000
000080:    4302           60000        RELTAB11           OCT      60000
000081:


000083:                                                                                                  #  SWITCHED-BANK PORTION.
000084:
000085: 12,2030                                           BANK     12
000086: 12,2030           00006        T4RUPTA            EXTEND
000087: 12,2031           22012                           QXCH     QRUPT
000088:
000089: 12,2032           51143                           INDEX    LMPOUT                                #  SEE IF LMP COMMAND TO BE PUT OUT.
000090: 12,2033           11132                           CCS      LMPCMD
000091: 12,2034           12056                           TCF      CDRVE                                 #  BIT 15 = 1 AND (UP TO) BITS 1 - 11
000092: 12,2035           12056                           TCF      CDRVE                                 #  CONTAIN THE COMMAND.
000093:
000094: 12,2036           32147                           CAF      LLMPRS                                #  SET T4 FOR SPECIAL RUPT AND SHOW LMP
000095: 12,2037           54346                           TS       T4LOC                                 #  COMMAND IN PROGRESS IF RESTART.
000096:
000097: 12,2040           34552                           CAF      LOW11
000098: 12,2041           51143                           INDEX    LMPOUT
000099: 12,2042           71132                           MASK     LMPCMD                                #  LEAVE COMMAND PORTION INTACT.
000100: 12,2043           51143                           INDEX    LMPOUT
000101: 12,2044           55132                           TS       LMPCMD
000102: 12,2045           64266                           AD       74K
000103:
000104: 12,2046           00006                           EXTEND
000105: 12,2047           01010                           WRITE    OUT0
000106:
000107: 12,2050           11143                           CCS      LMPOUT                                #  PREDICT NEW VALUE OF LMPOUT BUT DONT
000108: 12,2051           12053                           TCF      +2                                    #  UPDATE IT UNTIL COMMAND SENT (IN CASE OF
000109: 12,2052           37757                           CAF      SEVEN                                 #  RESTART.)
000110: 12,2053           55144                           TS       LMPOUTT
000111:
000112: 12,2054           32150                           CAF      30MRUPT
000113: 12,2055           12133                           TCF      SETTIME4
000114:
000115: 12,2056           10326        CDRVE              CCS      DSPTAB     +11D
000116: 12,2057           02066                           TC       DSPOUT
000117: 12,2060           02066                           TC       DSPOUT
000118:
000119: 12,2061           56326                           XCH      DSPTAB     +11D
000120: 12,2062           74552                           MASK     LOW11
000121: 12,2063           54326                           TS       DSPTAB     +11D
000122: 12,2064           64302                           AD       RELTAB11
000123: 12,2065           02126                           TC       DSPLAYC
000124:


000126:                                                                                                  #  DSPOUT PROGRAM. PUTS OUT DISPLAYS.
000127:
000128: 12,2066           10307        DSPOUT             CCS      NOUT                                  #  DRIVE DISPLAY SYSTEM RELAYS.
000129: 12,2067           12072                           TCF      +3
000130:
000131: 12,2070           32107        NODSPOUT           CAF      120MRUPT                              #  SET FOR RUPT IN 120 MS IF NO RELAYS.
000132: 12,2071           12133                           TCF      SETTIME4
000133:
000134: 12,2072           54307                           TS       NOUT
000135: 12,2073           47761                           CS       ZERO
000136: 12,2074           54073                           TS       DSRUPTEM                              #  SET TO -0 FOR 1ST PASS THRU DSPTAB
000137: 12,2075           56345                           XCH      DSPCNT
000138: 12,2076           67762                           AD       NEG0                                  #  TO PREVENT +0
000139: 12,2077           54345                           TS       DSPCNT
000140: 12,2100           50345        DSPSCAN            INDEX    DSPCNT
000141: 12,2101           10313                           CCS      DSPTAB
000142: 12,2102           10345                           CCS      DSPCNT                                #  IF DSPTAB ENTRY +, SKIP
000143: 12,2103           02076                           TC       DSPSCAN    -2                         #  IF DSPCNT +, AGAIN
000144: 12,2104           02115                           TC       DSPLAY                                #  IF DSPTAB ENTRY -, DISPLAY
000145: 12,2105           00012        TABLNTH            OCT      12                                    #  DEC 10   LENGTH OF DSPTAB
000146: 12,2106           10073                           CCS      DSRUPTEM                              #  IF DSRUPTEM=+0,2ND PASS THRU DSPTAB
000147: 12,2107           37764        120MRUPT           DEC      16372      B-14                       #  (DSPCNT = 0). +0 INTO NOUT.
000148: 12,2110           54307                           TS       NOUT
000149: 12,2111           12070                           TCF      NODSPOUT
000150: 12,2112           54073                           TS       DSRUPTEM                              #  IF DSRUPTEM=-0,1ST PASS THRU DSPTAB
000151: 12,2113           32105                           CAF      TABLNTH                               #  (DSPCNT=0). +0 INTO DSRUPTEM. PASS AGAIN
000152:
000153: 12,2114           02077                           TC       DSPSCAN    -1
000154:
000155: 12,2115           67755        DSPLAY             AD       ONE
000156: 12,2116           50345                           INDEX    DSPCNT
000157: 12,2117           54313                           TS       DSPTAB                                #  REPLACE POSITIVELY
000158: 12,2120           74552                           MASK     LOW11                                 #  REMOVE BITS 12 TO 15
000159: 12,2121           54073                           TS       DSRUPTEM
000160: 12,2122           34547                           CAF      HI5
000161: 12,2123           50345                           INDEX    DSPCNT
000162: 12,2124           74267                           MASK     RELTAB                                #  PICK UP BITS 12 TO 15 OF RELTAB ENTRY
000163: 12,2125           60073                           AD       DSRUPTEM
000164: 12,2126           00006        DSPLAYC            EXTEND
000165: 12,2127           01010                           WRITE    OUT0
000166:
000167: 12,2130           32146                           CAF      LDSKYRS
000168: 12,2131           54346                           TS       T4LOC
000169: 12,2132           32151                           CAF      20MRUPT
000170:
000171: 12,2133           54027        SETTIME4           TS       TIME4
000172:


000174:                                                                                                  #           JUMP TO APPROPRIATE ONCE-PER SECOND (.96 SEC ACTUALLY) ACTIVITY
000175:
000176: 12,2134           50347        T4JUMP             INDEX    DSRUPTSW
000177: 12,2135           12136                           TCF      +1
000178:
000179: 12,2136           02152                           TC       ALTOUT
000180:
000181: 12,2137           03176                           TC       NORRGMON                              #  WAS TCF RRAUTCHK (NO RADAR IN 206).
000182:
000183: 12,2140           12305                           TCF      IMUMON
000184: 12,2141           13176                           TCF      DAPT4S
000185: 12,2142           02217                           TC       ALTROUT
000186: 12,2143           03176                           TC       NORRGMON                              #  WAS TCF RRAUTCHK (NO RADAR IN 206).
000187: 12,2144           12305                           TCF      IMUMON
000188: 12,2145           13176                           TCF      DAPT4S
000189:
000190: 12,2146           02023        LDSKYRS            ADRES    DSKYRSET
000191: 12,2147           02013        LLMPRS             ADRES    LMPRESET
000192:
000193: 12,2150           37775        30MRUPT            DEC      16381      B-14
000194: 12,2151           37776        20MRUPT            DEC      16382      B-14
000195:


000197:                                                                                                  #  THIS ROUTINE SERVICES THE METER OUTPUTS.
000198:
000199:
000200:
000201:                                                                                                  #  DIDFLG INDICATES THE STATE OF THE PROGRAM..............
000202:                                                                                                  #  IF GREATER THAN ZERO, THEN UNABLE TO DISPLAY DATA
000203:                                                                                                  #  IF EQUAL TO ZERO, THEN THE PROGRAM IS IN USE
000204:                                                                                                  #  IF LESS THAN ZERO, THEN THE PROGRAM IS ABLE TO BE USED............
000205:
000206: 12,2152           02225        ALTOUT             TC       DISINDAT
000207: 12,2153           47754                           CS       BIT2
000208: 12,2154           00006                           EXTEND
000209: 12,2155           03014                           WAND     14                                    #  SET UP OUTPUT FOR ALTITUDE
000210: 12,2156           10351                           CCS      ALT                                   #  -1 IF OLD DATA TO BE EXTRAPOLATED.
000211:
000212: 12,2157           12163                           TCF      +4                                    #  NEW DATA.
000213: 12,2160           12163                           TCF      +3
000214: 12,2161           12167                           TCF      OLDDATA
000215:
000216: 12,2162           54351                           TS       ALT                                   #  CHANGE -0 IN ALT TO +0.
000217: 12,2163           47755                           CS       ONE                                   #  RESET ALTSAVE.
000218: 12,2164           52352                           DXCH     ALT
000219: 12,2165           52364        ZDATA2             DXCH     ALTSAVE
000220: 12,2166           12207                           TCF      NEWDATA
000221:
000222: 12,2167           30353        OLDDATA            CA       ALTRATE                               #  USE ALTRATE TO EXTRAPOLATE.
000223: 12,2170           00006                           EXTEND
000224: 12,2171           72302                           MP       ARTOA                                 #  RATE APPLIES FOR .96 SEC.
000225: 12,2172           60364                           AD       ALTSAVE    +1
000226: 12,2173           54364                           TS       ALTSAVE    +1                         #  AND MAYBE SKIP.
000227: 12,2174           37761                           CAF      ZERO
000228: 12,2175           26363                           ADS      ALTSAVE
000229:
000230: 12,2176           37735                           CAF      POSMAX                                #  FORCE SIGN AGREEMENT ASSUMING ALTSAVE IS
000231: 12,2177           67755                           AD       ONE                                   #  NOT NEGATIVE. IF IT IS, THE FINAL TS
000232: 12,2200           60364                           AD       ALTSAVE    +1                         #  WILL NOT SKIP AND WE CAN SET ALTSAVE TO
000233: 12,2201           54364                           TS       ALTSAVE    +1                         #  ZERO IN THAT CASE.
000234: 12,2202           37761                           CAF      ZERO
000235:
000236: 12,2203           67735                           AD       POSMAX
000237: 12,2204           60363                           AD       ALTSAVE
000238: 12,2205           54363                           TS       ALTSAVE
000239: 12,2206           12277                           TCF      ZERODATA                              #  ALTSAVE NEGATIVE - SET TO ZERO.
000240:
000241: 12,2207           10363        NEWDATA            CCS      ALTSAVE                               #  MAKE UP 15 BIT UNSIGNED OUTPUT.
000242: 12,2210           37737                           CAF      BIT15                                 #  MAJOR PART +1 OR +0.
000243: 12,2211           60364                           AD       ALTSAVE    +1
000244: 12,2212           54060        METEROUT           TS       ALTM
000245: 12,2213           32303                           CAF      BITSET
000246: 12,2214           00006                           EXTEND
000247: 12,2215           05014                           WOR      14
000248: 12,2216           12276                           TCF      DONEDID
000249:


000251: 12,2217           02225        ALTROUT            TC       DISINDAT
000252: 12,2220           37754                           CAF      BIT2
000253:
000254: 12,2221           00006                           EXTEND
000255: 12,2222           05014                           WOR      14                                    #  SET UP OUTPUT FOR ALT. RATE
000256: 12,2223           30353                           CA       ALTRATE
000257: 12,2224           12212                           TCF      METEROUT
000258:
000259: 12,2225           10350        DISINDAT           CCS      DIDFLG
000260: 12,2226           12273                           TCF      ALLDONE                               #  NOTE THAT THIS SHOULD ALWAYS GO TO
000261:                                                                                                  #  ALLDONE AND NOT DONEDID SINCE THE
000262:                                                                                                  #  AVAILABILITY OF DATA MAY DISAPPEAR WHILE
000263:                                                                                                  #  THE ASTRONAUT HAS THE BUTTON DOWN.
000264: 12,2227           12230                           NOOP
000265: 12,2230           37750                           CAF      BIT6
000266: 12,2231           00006                           EXTEND
000267: 12,2232           02030                           RAND     30                                    #  CHECK DISPLAY INERTIAL DATA BIT
000268: 12,2233           10000                           CCS      A
000269: 12,2234           12273                           TCF      ALLDONE
000270: 12,2235           10350                           CCS      DIDFLG
000271: 12,2236           12237                           NOOP
000272: 12,2237           12260                           TCF      GOAGN
000273:
000274: 12,2240           37746        FIRSTIME           CAF      BIT8
000275: 12,2241           00006                           EXTEND
000276: 12,2242           05012                           WOR      12                                    #  ENABLE DISPLAY INERTIAL DATA
000277:
000278: 12,2243           37761                           CAF      ZERO
000279: 12,2244           54350                           TS       DIDFLG
000280: 12,2245           54362                           TS       LASTXCMD
000281: 12,2246           54361                           TS       LASTYCMD
000282: 12,2247           36276                           CAF      SIX
000283: 12,2250           05701                           TC       WAITLIST
000284: 12,2251  E6,1404                                  EBANK=   M11
000285: 12,2251           02254 24006                     2CADR    INTLZE
000286:
000287: 12,2253           02276                           TC       DONEDID
000288:
000289: 12,2254           37754        INTLZE             CAF      BIT2
000290: 12,2255           00006                           EXTEND
000291: 12,2256           05012                           WOR      12                                    #  ENABLE RR ERROR COUNTER
000292: 12,2257           05745                           TC       TASKOVER
000293:
000294: 12,2260           40362        GOAGN              CS       LASTXCMD
000295: 12,2261           60357                           AD       FORVEL
000296: 12,2262           54054                           TS       OPTXCMD
000297: 12,2263           30357                           CA       FORVEL
000298: 12,2264           54362                           TS       LASTXCMD
000299: 12,2265           40361                           CS       LASTYCMD
000300: 12,2266           60360                           AD       LATVEL
000301:
000302: 12,2267           54053                           TS       OPTYCMD
000303: 12,2270           30360                           CA       LATVEL
000304:


000306: 12,2271           54361                           TS       LASTYCMD
000307: 12,2272           00002                           TC       Q
000308:
000309: 12,2273           42304        ALLDONE            CS       DIDRESET                              #  REMOVE DISPLAY INERTIAL DATA AND ECTR.
000310: 12,2274           00006                           EXTEND
000311: 12,2275           03012                           WAND     12                                    #  RESET RR ERROR COUNTER
000312: 12,2276           15751        DONEDID            TCF      RESUME                                #  ** FIX LATER**
000313:
000314: 12,2277           37761        ZERODATA           CAF      ZERO
000315: 12,2300           54001                           TS       L
000316: 12,2301           12165                           TCF      ZDATA2
000317:
000318: 12,2302           06432        ARTOA              DEC      .20469                                #  ALT DUE TO ALTRATE FOR .96 SEC.
000319: 12,2303           06004        BITSET             OCT      6004
000320:
000321: 12,2304           00202        DIDRESET           OCT      202
000322:


000324:                                                                                                  #  PROGRAM NAME:  IMUMON
000325:
000326:                                                                                                  #  FUNCTIONAL DESCRIPTION:  THIS PROGRAM IS ENTERED EVERY 480 MS.  IT DETECTS CHANGES OF THE IMU STATUS BITS IN
000327:                                                                                                  #  CHANNEL 30 AND CALLS THE APPROPRIATE SUBROUTINES.  THE BITS PROCESSED AND THEIR RELEVANT SUBROUTINES ARE:
000328:
000329:                                                                                                  #           FUNCTION               BIT    SUBROUTINE CALLED
000330:                                                                                                  #           --------               ---    -----------------
000331:                                                                                                  #           TEMP IN LIMITS          15    TLIM
000332:                                                                                                  #           ISS TURN-ON REQUEST     14    ITURNON
000333:                                                                                                  #           IMU FAIL                13    IMUFAIL (SETISSW)
000334:                                                                                                  #           IMU CDU FAIL            12    ICDUFAIL (SETISSW)
000335:                                                                                                  #           IMU CAGE                11    IMUCAGE
000336:                                                                                                  #           IMU OPERATE              9    IMUOP
000337:
000338:                                                                                                  #           THE LAST SAMPLED STATE OF THESE BITS IS LEFT IN IMODES30.  ALSO, EACH SUBROUTINE CALLED FINDS THE NEW
000339:                                                                                                  #  VALUE OF THE BIT IN A, WITH Q SET TO THE PROPER RETURN LOCATION, NXTIFAIL.
000340:
000341:                                                                                                  #  CALLING SEQUENCE:  T4RUPT EVERY 480 MILLISECONDS.
000342:
000343:                                                                                                  #  JOBS OR TASKS INITIATED:  NONE.
000344:
000345:                                                                                                  #  SUBROUTINES CALLED:  TLIM, ITURNON, SETISSW, IMUCAGE, IMUOP.
000346:
000347:                                                                                                  #  ERASABLE INITIALIZATION:
000348:                                                                                                  #           FRESH START OR RESTART WITH NO GROUPS ACTIVE: C(IMODES30) = OCT 37411.
000349:                                                                                                  #           RESTART WITH ACTIVE GROUPS: C(IMODES30) = (B(IMODES30)AND(OCT 00035)) PLUS OCT 37400.
000350:                                                                                                  #                                       THIS LEAVES IMU FAIL BITS INTACT.
000351:
000352:                                                                                                  #  ALARMS:  NONE.
000353:
000354:                                                                                                  #  EXIT:  TNONTEST.
000355:
000356:                                                                                                  #  OUTPUT:  UPDATED IMODES30 WITH CHANGES PROCESSED BY APPROPRIATE SUBROUTINE.
000357:
000358: 12,2305           33056        IMUMON             CAF      BITS4&5                               #  DISABLE DAP IF ZERO ICDU OR COARSE ALIGN
000359: 12,2306           00006                           EXTEND
000360: 12,2307           02012                           RAND     12
000361: 12,2310           00006                           EXTEND
000362:
000363: 12,2311           62315                           BZMF     IMUNON1
000364: 12,2312           00006                           EXTEND
000365: 12,2313           33035                           DCA      T4DAP
000366: 12,2314           53001                           DXCH     T5ADR
000367:
000368: 12,2315           30365        IMUNON1            CA       IMODES30                              #  SEE IF THERE HAS BEEN A CHANGE IN THE
000369: 12,2316           00006                           EXTEND                                         #  RELEVANT BITS OF CHAN 30.
000370: 12,2317           06030                           RXOR     30
000371: 12,2320           73042                           MASK     30RDMSK
000372: 12,2321           00006                           EXTEND
000373: 12,2322           12352                           BZF      TNONTEST                              #  NO CHANGE IN STATUS.
000374:


000376: 12,2323           54070                           TS       RUPTREG1                              #  SAVE BITS WHICH HAVE CHANGED.
000377: 12,2324           22365                           LXCH     IMODES30                              #  UPDATE IMODES30.
000378: 12,2325           00006                           EXTEND
000379: 12,2326           06001                           RXOR     L
000380: 12,2327           54365                           TS       IMODES30
000381:
000382: 12,2330           47755                           CS       ONE
000383: 12,2331           56070                           XCH      RUPTREG1
000384: 12,2332           00006                           EXTEND
000385: 12,2333           62624                           BZMF     TLIM                                  #  CHANGE IN IMU TEMP.
000386: 12,2334           12336                           TCF      NXTIFBIT                              #  BEGIN BIT SCAN.
000387:
000388: 12,2335           67755                 -1        AD       ONE                                   #  (RE-ENTERS HERE FROM NXTIFAIL.)
000389: 12,2336           24070        NXTIFBIT           INCR     RUPTREG1                              #  ADVANCE BIT POSITION NUMBER.
000390: 12,2337           60000                 +1        DOUBLE
000391: 12,2340           54000                           TS       A                                     #  SKIP IF OVERFLOW.
000392: 12,2341           12336                           TCF      NXTIFBIT                              #  LOOK FOR BIT.
000393:
000394: 12,2342           56071                           XCH      RUPTREG2                              #  SAVE OVERFLOW-CORRECTED DATA.
000395: 12,2343           50070                           INDEX    RUPTREG1                              #  SELECT NEW VALUE OF THIS BIT.
000396:
000397: 12,2344           37740                           CAF      BIT14
000398: 12,2345           70365                           MASK     IMODES30
000399: 12,2346           50070                           INDEX    RUPTREG1
000400: 12,2347           03036                           TC       IFAILJMP
000401:
000402: 12,2350           10071        NXTIFAIL           CCS      RUPTREG2                              #  PROCESS ANY ADDITIONAL CHANGES.
000403: 12,2351           12335                           TCF      NXTIFBIT   -1
000404:


000406:                                                                                                  #  PROGRAM NAME:  TNONTEST.
000407:
000408:                                                                                                  #  FUNCTIONAL DESCRIPTION:  THIS PROGRAM HONORS REQUESTS FOR ISS INITIALIZATION.  ISS TURN-ON (CHANNEL 30 BIT 14)
000409:                                                                                                  #  AND ISS OPERATE (CHANNEL 30 BIT 9) REQUESTS ARE TREATED AS A PAIR AND PROCESSING TAKES PLACE .480 SECONDS
000410:                                                                                                  #  AFTER EITHER ONE APPEARS.  THIS INITIALIZATION TAKES ON ONE OF THE FOLLOWING THREE FORMS:
000411:
000412:                                                                                                  #           1)  ISS TURN-ON:  IN THIS SITUATION THE COMPUTER IS OPERATING WHEN THE ISS IS TURNED ON.  NOMINALLY,
000413:                                                                                                  #           BOTH ISS TURN-ON AND ISS OPERATE APPEAR.  THE PLATFORM IS CAGED FOR 90 SECONDS AND THE ICDU'S ZEROED
000414:                                                                                                  #           SO THAT AT THE END OF THE PROCESS THE GIMBAL LOCK MONITOR WILL FUNCTION PROPERLY.
000415:
000416:                                                                                                  #           2)  ICDU INITIALIZATION:  IN THIS CASE THE COMPUTER WAS PROBABLY TURNED ON WITH THE ISS IN OPERATE OR
000417:                                                                                                  #           A FRESH START WAS DONE WITH THE ISS IN OPERATE.  IN THIS CASE ONLY ISS OPERATE IS ON.  THE ICDU'S ARE
000418:                                                                                                  #           ZEROED SO THE GIMBAL LOCK MONITOR WILL FUNCTION.  AN EXCEPTION IS IF THE ISS IS IN GIMBAL LOCK AFTER
000419:                                                                                                  #           A RESTART, THE ICDU'S WILL NOT BE ZEROED.
000420:
000421:                                                                                                  #           3)  RESTART WITH RESTARTABLE PROGRAM USING THE IMU:  IN THIS CASE, NO INITIALIZATION TAKES PLACE SINCE
000422:                                                                                                  #           IT IS ASSUMED THAT THE USING PROGRAM DID THE INITIALIZATION AND THEREFORE T4RUPT SHOULD NOT INTERFERE.
000423:
000424:                                                                                                  #  IMODES30 BIT 7 IS SET = 1 BY THE FIRST BIT (CHANNEL 30 BIT 14 OR 9) WHICH ARRIVES.  FOLLOWING THIS. TNONTEST IS
000425:                                                                                                  #  ENTERED, FINDS BIT 7 = 1 BUT BIT 8 = 0, SO IT SETS BIT 8 = 1 AND EXITS.  THE NEXT TIME IT FINDS BIT 8 = 1 AND
000426:                                                                                                  #  PROCEEDS, SETTING BITS 8 AND 7 = 0.  AT PROCTNON, IF ISS TURN-ON REQUEST IS PRESENT, THE ISS IS CAGED (ZERO +
000427:                                                                                                  #  COARSE).  IF ISS OPERATE IS NOT PRESENT PROGRAM ALARM 00213 IS ISSUED.  AT THE END OF A 90 SECOND CAGE, BIT 2
000428:                                                                                                  #  OF IMODES30 IS TESTED.  IF IT IS = 1, ISS TURN-ON WAS NOT PRESENT FOR THE ENTIRE 90 SECONDS.  IN THAT CASE, IF
000429:                                                                                                  #  THE ISS TURN-ON REQUEST IS PRESENT THE 90 SECOND WAIT IS REPEATED, OTHERWISE NO ACTION OCCURS UNLESS A PROGRAM
000430:                                                                                                  #  WAS WAITING FOR THE INITIALIZATION IN WHICH CASE THE PROGRAM IS GIVEN AN IMUSTALL ERROR RETURN.  IF THE DELAY
000431:                                                                                                  #  WENT PROPERLY, THE ISS DELAY OUTBIT IS SENT AND THE ICDU'S ZEROED.  A TASK IS INITIATED TO REMOVE THE PIPA FAIL
000432:
000433:                                                                                                  #  INHIBIT BIT IN 10.24 SECONDS.  IF A MISSION PROGRAM WAS WAITING IT IS INFORMED VIA ENDIMU.
000434:
000435:                                                                                                  #  AT PROCTNON, IF ONLY ISS OPERATE IS PRESENT (OPONLY), THE CDU'S ARE ZEROED UNLESS THE PLATFORM IS IN COARSE
000436:                                                                                                  #  ALIGN (= GIMBAL LOCK HERE) OR A MISSION PROGRAM IS USING THE IMU (IMUSEFLG = 1).
000437:
000438:                                                                                                  #  CALLING SEQUENCE:  T4RUPT EVERY 480 MILLISECONDS AFTER IMUMON.
000439:
000440:                                                                                                  #  JOBS OR TASKS INITIATED:  1) ENDTNON, 90 SECONDS AFTER CAGING STARTED.  2) ISSUP, 4 SECONDS AFTER CAGING DONE.
000441:                                                                                                  #           3) PFAILOK, 10.24 SECONDS AFTER INITIALIZATION COMPLETED.  4) UNZ2, 320 MILLISECONDS AFTER ZEROING
000442:                                                                                                  #           STARTED.
000443:
000444:                                                                                                  #  SUBROUTINES CALLED:  CAGESUB, CAGESUB2, ZEROICDU, ENDIMU, IMUBAD, NOATTOFF, SETISSW, VARDELAY.
000445:
000446:                                                                                                  #  ERASABLE INITIALIZATION:  SEE IMUMON.
000447:
000448:                                                                                                  #  ALARMS:  PROGRAM ALARM 00213 IF ISS TURN-ON REQUESTED WITHOUT ISS OPERATE.
000449:
000450:                                                                                                  #  EXIT:  ENDTNON EXITS TO C33TEST.  TASKS HAVING TO DO WITH INITIALIZATION EXIT AS FOLLOWS:  MISSION PROGRAM
000451:                                                                                                  #  WAITING AND INITIALIZATION COMPLETE, EXIT TO ENDIMU, MISSION PROGRAM WAITING AND INITIALIZATION FAILED, EXIT TO
000452:                                                                                                  #  IMUBAD, IMU NOT IN USE, EXIT TO TASKOVER.
000453:
000454:                                                                                                  #  OUTPUT:  ISS INITIALIZED.
000455:
000456: 12,2352           40365        TNONTEST           CS       IMODES30                              #  AFTER PROCESSING ALL CHANGES, SEE IF IT
000457:


000459: 12,2353           77747                           MASK     BIT7                                  #  IS TIME TO ACT ON A TURN-ON SEQUENCE.
000460: 12,2354           10000                           CCS      A
000461: 12,2355           12507                           TCF      C33TEST                               #  NO - EXAMINE CHANNEL 33.
000462:
000463: 12,2356           37746                           CAF      BIT8                                  #  SEE IF FIRST SAMPLE OR SECOND.
000464: 12,2357           70365                           MASK     IMODES30
000465: 12,2360           10000                           CCS      A
000466: 12,2361           12365                           TCF      PROCTNON                              #  REACT AFTER SECOND SAMPLE.
000467:
000468: 12,2362           37746                           CAF      BIT8                                  #  IF FIRST SAMPLE, SET BIT TO REACT NEXT
000469: 12,2363           26365                           ADS      IMODES30                              #  TIME.
000470: 12,2364           12507                           TCF      C33TEST
000471:
000472:                                                                                                  #           PROCESS IMU TURN-ON REQUESTS AFTER WAITING 1 SAMPLE FOR ALL SIGNALS TO ARRIVE.
000473:
000474: 12,2365           43061        PROCTNON           CS       BITS7&8
000475: 12,2366           70365                           MASK     IMODES30
000476: 12,2367           54365                           TS       IMODES30
000477: 12,2370           77740                           MASK     BIT14                                 #  SEE IF TURN-ON REQUEST.
000478: 12,2371           10000                           CCS      A
000479: 12,2372           12465                           TCF      OPONLY                                #  OPERATE ON ONLY.
000480:
000481: 12,2373           40365                           CS       IMODES30                              #  IF TURN-ON REQUEST, WE SHOULD HAVE IMU
000482: 12,2374           77745                           MASK     BIT9                                  #  OPERATE.
000483: 12,2375           10000                           CCS      A
000484: 12,2376           12401                           TCF      +3
000485:
000486: 12,2377           04744                           TC       ALARM                                 #  ALARM IF NOT.
000487: 12,2400           00213                           OCT      213
000488:
000489: 12,2401           03012                 +3        TC       CAGESUB
000490: 12,2402           33067                           CAF      90SECS
000491:
000492: 12,2403           05701                           TC       WAITLIST
000493: 12,2404  E6,1404                                  EBANK=   M11
000494: 12,2404           02411 24006                     2CADR    ENDTNON
000495:
000496: 12,2406           12507                           TCF      C33TEST
000497:
000498: 12,2407           33067        RETNON             CAF      90SECS
000499: 12,2410           05722                           TC       VARDELAY
000500:
000501: 12,2411           47754        ENDTNON            CS       BIT2                                  #  RESET TURN-ON REQUEST FAIL BIT.
000502: 12,2412           70365                           MASK     IMODES30
000503: 12,2413           56365                           XCH      IMODES30
000504: 12,2414           77754                           MASK     BIT2                                  #  IF IT WAS OFF, SEND ISS DELAY COMPLETE.
000505: 12,2415           00006                           EXTEND
000506: 12,2416           12431                           BZF      ENDTNON2
000507:
000508: 12,2417           37740                           CAF      BIT14                                 #  IF IT WAS ON AND TURN-ON REQUEST NOW
000509: 12,2420           70365                           MASK     IMODES30                              #  PRESENT, RE-ENTER 90 SEC DELAY IN WL.
000510:


000512: 12,2421           00006                           EXTEND
000513: 12,2422           12407                           BZF      RETNON
000514:
000515: 12,2423           40074                           CS       STATE                                 #  IF IT IS NOT ON NOW, SEE IF A PROG WAS
000516: 12,2424           77746                           MASK     IMUSEFLG                              #  WAITING.
000517: 12,2425           10000                           CCS      A
000518: 12,2426           15745                           TCF      TASKOVER
000519: 12,2427           05243                           TC       POSTJUMP
000520: 12,2430           26703                           CADR     IMUBAD                                #  UNSUCCESSFUL TURN-ON.
000521:
000522: 12,2431           37737        ENDTNON2           CAF      BIT15                                 #  SEND ISS DELAY COMPLETE.
000523: 12,2432           00006                           EXTEND
000524: 12,2433           05012                           WOR      CHAN12
000525:
000526: 12,2434           05307                           TC       IBNKCALL                              #  TURN OFF NO ATT LAMP.
000527: 12,2435           26323                           CADR     NOATTOFF
000528:
000529: 12,2436           04303        UNZ2               TC       ZEROICDU
000530:
000531: 12,2437           43056                           CS       BITS4&5                               #  REMOVE ZERO AND COARSE.
000532: 12,2440           00006                           EXTEND
000533: 12,2441           03012                           WAND     CHAN12
000534:
000535: 12,2442           34310                           CAF      4SECS                                 #  WAIT 4 SECS FOR COUNTERS TO FIND GIMBALS
000536: 12,2443           05722                           TC       VARDELAY
000537:
000538: 12,2444           43057        ISSUP              CS       OCT54                                 #  REMOVE CAGING, IMU FAIL INHIBIT, AND
000539: 12,2445           70365                           MASK     IMODES30                              #  ICDUFAIL INHIBIT FLAGS.
000540: 12,2446           54365                           TS       IMODES30
000541:
000542: 12,2447           02763                           TC       SETISSW                               #  ISS WARNING MIGHT HAVE BEEN INHIBITED.
000543:
000544: 12,2450           47737                           CS       BIT15                                 #  REMOVE IMU DELAY COMPLETE DISCRETE.
000545: 12,2451           00006                           EXTEND
000546: 12,2452           03012                           WAND     12
000547:
000548: 12,2453           37743                           CAF      BIT11                                 #  DONT ENABLE PROG ALARM ON PIP FAIL FOR
000549: 12,2454           05701                           TC       WAITLIST                              #  ANOTHER 10 SECS.
000550:
000551: 12,2455  E6,1404                                  EBANK=   M11
000552: 12,2455           02307 26006                     2CADR    PFAILOK
000553:
000554: 12,2457           40074                           CS       STATE                                 #  SEE IF ANYONE IS WAITING FOR THE IMU AT
000555: 12,2460           77746                           MASK     IMUSEFLG                              #  IMUZERO. IF SO, WAKE THEM UP.
000556: 12,2461           10000                           CCS      A
000557: 12,2462           15745                           TCF      TASKOVER
000558:
000559: 12,2463           05243                           TC       POSTJUMP
000560: 12,2464           26675                           CADR     ENDIMU
000561:
000562: 12,2465           37752        OPONLY             CAF      BIT4                                  #  IF OPERATE ON ONLY, AND WE ARE IN COARSE
000563:


000565: 12,2466           00006                           EXTEND                                         #  ALIGN, DONT ZERO THE CDUS BECAUSE WE
000566: 12,2467           02012                           RAND     CHAN12                                #  MIGHT BE IN GIMBAL LOCK.
000567: 12,2470           10000                           CCS      A
000568: 12,2471           12507                           TCF      C33TEST
000569:
000570: 12,2472           37746                           CAF      IMUSEFLG                              #  OTHERWISE, ZERO THE COUNTERS
000571: 12,2473           70074                           MASK     STATE                                 #  UNLESS SOMEONE IS USING THE IMU.
000572: 12,2474           10000                           CCS      A
000573: 12,2475           12507                           TCF      C33TEST
000574:
000575: 12,2476           03024                           TC       CAGESUB2                              #  SET TURNON FLAGS.
000576:
000577: 12,2477           37751                           CAF      BIT5
000578: 12,2500           00006                           EXTEND
000579: 12,2501           05012                           WOR      12
000580:
000581: 12,2502           37750                           CAF      BIT6                                  #  WAIT 300 MS FOR AGS TO RECEIVE SIGNAL.
000582: 12,2503           05701                           TC       WAITLIST
000583: 12,2504  E6,1404                                  EBANK=   M11
000584: 12,2504           02436 24006                     2CADR    UNZ2
000585:
000586: 12,2506           12507                           TCF      C33TEST
000587:


000589:                                                                                                  #  PROGRAM NAME:  C33TEST
000590:
000591:                                                                                                  #  FUNCTIONAL DESCRIPTION:  THIS PROGRAM MONITORS THREE FLIP-FLOP INBITS OF CHANNEL 33 AND CALLS THE APPROPRIATE
000592:                                                                                                  #  SUBROUTINE TO PROCESS A CHANGE.  IT IS ANALOGOUS TO IMUMON, WHICH MONITORS CHANNEL 30, EXCEPT THAT IT READS
000593:                                                                                                  #  CHANNEL 33 WITH A WAND INSTRUCTION BECAUSE A 'WRITE' PULSE IS REQUIRED TO RESET THE FLIP-FLOPS.  THE BITS
000594:                                                                                                  #  PROCESSED AND THE SUBROUTINES CALLED ARE:
000595:
000596:                                                                                                  #           BIT    FUNCTION                SUBROUTINE
000597:                                                                                                  #           ---    --------                ----------
000598:                                                                                                  #            13    PIPA FAIL               PIPFAIL
000599:                                                                                                  #            12    DOWNLINK TOO FAST       DNTMFAST
000600:                                                                                                  #            11    UPLINK TOO FAST         UPTMFAST
000601:
000602:                                                                                                  #  UPON ENTRY TO THE SUBROUTINE, THE NEW BIT STATE IS IN A.
000603:
000604:                                                                                                  #  CALLING SEQUENCE:  EVERY 480 MILLISECONDS AFTER TNONTEST.
000605:
000606:                                                                                                  #  JOBS OR TASKS INITIATED:  NONE.
000607:
000608:                                                                                                  #  SUBROUTINES CALLED:  PIPFAIL, DNTMFAST AND UPTMFAST ON BIT CHANGES.
000609:
000610:                                                                                                  #  ERASABLE INITIALIZATION:  C(IMODES33) = OCT 16000 ON A FRESH START OR RESTART, THEREFORE, THESE ALARMS WILL
000611:                                                                                                  #  REAPPEAR IF THE CONDITIONS PERSIST.
000612:
000613:                                                                                                  #  ALARMS:  NONE.
000614:
000615:                                                                                                  #  EXIT:  GLOCKMON.
000616:
000617:                                                                                                  #  OUTPUT:  UPDATED BITS 13, 12 AND 11 OF IMODES33 WITH CHANGES PROCESSED.
000618:
000619: 12,2507           30366        C33TEST            CA       IMODES33                              #  SEE IF RELEVANT CHAN 33 BITS HAVE
000620: 12,2510           75660                           MASK     33RDMSK
000621: 12,2511           54001                           TS       L                                     #  CHANGED.
000622: 12,2512           35660                           CAF      33RDMSK
000623: 12,2513           00006                           EXTEND
000624: 12,2514           03033                           WAND     33                                    #  RESETS FLIP-FLOP INPUTS.
000625: 12,2515           00006                           EXTEND
000626: 12,2516           06001                           RXOR     L
000627: 12,2517           00006                           EXTEND
000628: 12,2520           12547                           BZF      GLOCKMON                              #  ON NO CHANGE.
000629:
000630: 12,2521           54070                           TS       RUPTREG1                              #  SAVE BITS WHICH HAVE CHANGED.
000631: 12,2522           22366                           LXCH     IMODES33
000632: 12,2523           00006                           EXTEND
000633: 12,2524           06001                           RXOR     L
000634: 12,2525           54366                           TS       IMODES33                              #  UPDATED IMODES33.
000635:
000636: 12,2526           37761                           CAF      ZERO
000637: 12,2527           56070                           XCH      RUPTREG1
000638: 12,2530           60000                           DOUBLE
000639:


000641: 12,2531           12534                           TCF      NXTIBT     +1                         #  SCAN FOR BIT CHANGES.
000642:
000643: 12,2532           67755                 -1        AD       ONE
000644: 12,2533           24070        NXTIBT             INCR     RUPTREG1
000645: 12,2534           60000                 +1        DOUBLE
000646: 12,2535           54000                           TS       A                                     #  (CODING IDENTICAL TO CHAN 30).
000647: 12,2536           12533                           TCF      NXTIBT
000648:
000649: 12,2537           56071                           XCH      RUPTREG2
000650: 12,2540           50070                           INDEX    RUPTREG1                              #  GET NEW VALUE OF BIT WHICH CHANGED.
000651: 12,2541           37741                           CAF      BIT13
000652: 12,2542           70366                           MASK     IMODES33
000653: 12,2543           50070                           INDEX    RUPTREG1
000654: 12,2544           03044                           TC       C33JMP
000655:
000656: 12,2545           10071        NXTFL33            CCS      RUPTREG2                              #  PROCESS POSSIBLE ADDITIONAL CHANGES.
000657: 12,2546           12532                           TCF      NXTIBT     -1
000658:


000660:                                                                                                  #  PROGRAM NAME:  GLOCKMON
000661:
000662:                                                                                                  #  FUNCTIONAL DESCRIPTION:  THIS PROGRAM MONITORS THE CDUZ COUNTER TO DETERMINE WHETHER THE ISS IS IN GIMBAL LOCK
000663:                                                                                                  #  AND TAKES ACTION IF IT IS.  THREE REGIONS OF MIDDLE GIMBAL ANGLE (MGA) ARE USED:
000664:
000665:                                                                                                  #           1) ABS(MGA) LESS THAN OR EQUAL TO 70 DEGREES - NORMAL MODE.
000666:                                                                                                  #           2) ABS(MGA) GREATER THAN 70 DEGREES AND LESS THAN OR EQUAL TO 85 DEGREES - GIMBAL LOCK LAMP TURNED ON.
000667:                                                                                                  #           3) ABS(MGA) GREATER THAN 85 DEGREES - ISS PUT IN COARSE ALIGN AND NO ATT LAMP TURNED ON.
000668:
000669:                                                                                                  #  CALLING SEQUENCE:  EVERY 480 MILLISECONDS AFTER C33TEST.
000670:
000671:                                                                                                  #  JOBS OR TASKS INITIATED:  NONE.
000672:
000673:                                                                                                  #  SUBROUTINES CALLED:  1) SETCOARS WHEN ABS(MGA) GREATER THAN 85 DEGREES AND ISS NOT IN COARSE ALIGN.
000674:                                                                                                  #                       2) LAMPTEST BEFORE TURNING OFF GIMBAL LOCK LAMP.
000675:
000676:                                                                                                  #  ERASABLE INITIALIZATION:
000677:                                                                                                  #           1) FRESH START OR RESTART WITH NO GROUPS ACTIVE:  C(CDUZ) = 0, IMODES30 BIT 6 = 0, IMODES33 BIT 1 =  0.
000678:                                                                                                  #           2) RESTART WITH GROUPS ACTIVE:  SAME AS FRESH START EXCEPT C(CDUZ) NOT CHANGED SO GIMBAL MONITOR
000679:                                                                                                  #                                           PROCEEDS AS BEFORE.
000680:
000681:                                                                                                  #  ALARMS:  1) MGA REGION (2) CAUSES GIMBAL LOCK LAMP TO BE LIT.
000682:                                                                                                  #           2) MGA REGION (3) CAUSES THE ISS TO BE PUT IN COARSE ALIGN AND THE NO ATT LAMP TO BE LIT IF EITHER NOT
000683:                                                                                                  #              SO ALREADY.
000684:
000685: 12,2547           10034        GLOCKMON           CCS      CDUZ
000686: 12,2550           12554                           TCF      GLOCKCHK                              #  SEE IF MAGNITUDE OF MGA IS GREATER THAN
000687: 12,2551           12574                           TCF      SETGLOCK                              #  70 DEGREES.
000688: 12,2552           12554                           TCF      GLOCKCHK
000689: 12,2553           12574                           TCF      SETGLOCK
000690:
000691: 12,2554           62621        GLOCKCHK           AD       -70DEGS
000692: 12,2555           00006                           EXTEND
000693: 12,2556           62573                           BZMF     SETGLOCK   -1                         #  NO LOCK.
000694:
000695: 12,2557           62622                           AD       -15DEGS                               #  SEE IF ABS(MGA) GREATER THAN 85 DEGREES.
000696: 12,2560           00006                           EXTEND
000697: 12,2561           62571                           BZMF     NOGIMRUN
000698:
000699: 12,2562           37752                           CAF      BIT4                                  #  IF SO, SYSTEM SHOULD BE IN COARSE ALIGN
000700: 12,2563           00006                           EXTEND                                         #  TO PREVENT GIMBAL RUNAWAY.
000701: 12,2564           02012                           RAND     12
000702: 12,2565           10000                           CCS      A
000703: 12,2566           12571                           TCF      NOGIMRUN
000704:
000705: 12,2567           05307                           TC       IBNKCALL
000706: 12,2570           26231                           CADR     SETCOARS
000707:
000708: 12,2571           37750        NOGIMRUN           CAF      BIT6                                  #  TURN ON GIMBAL LOCK LAMP.
000709: 12,2572           12574                           TCF      SETGLOCK
000710:


000712: 12,2573           37761                 -1        CAF      ZERO
000713: 12,2574           60326        SETGLOCK           AD       DSPTAB     +11D                       #  SEE IF PRESENT STATE OF GIMBAL LOCK LAMP
000714: 12,2575           77750                           MASK     BIT6                                  #  AGREES WITH DESIRED STATE BY HALF ADDING
000715: 12,2576           00006                           EXTEND                                         #  THE TWO.
000716: 12,2577           13203                           BZF      GLOCKOK                               #  OK AS IS.
000717:
000718: 12,2600           70326                           MASK     DSPTAB     +11D                       #  IF OFF, DONT TURN ON IF IMU BEING CAGED.
000719: 12,2601           10000                           CCS      A
000720: 12,2602           12616                           TCF      GLAMPTST                              #  TURN OFF UNLESS LAMP TEST IN PROGRESS.
000721:
000722: 12,2603           37750                           CAF      BIT6
000723: 12,2604           70365                           MASK     IMODES30
000724: 12,2605           10000                           CCS      A
000725: 12,2606           13203                           TCF      GLOCKOK
000726:
000727: 12,2607           40326        GLINVERT           CS       DSPTAB     +11D                       #  INVERT GIMBAL LOCK LAMP.
000728: 12,2610           77750                           MASK     BIT6
000729: 12,2611           67737                           AD       BIT15                                 #  TO INDICATE CHANGE IN DSPTAB +11D.
000730: 12,2612           56326                           XCH      DSPTAB     +11D
000731:
000732: 12,2613           72623                           MASK     OCT37737
000733: 12,2614           26326                           ADS      DSPTAB     +11D
000734: 12,2615           13203                           TCF      GLOCKOK
000735:
000736: 12,2616           03047        GLAMPTST           TC       LAMPTEST                              #  TURN OFF UNLESS LAMP TEST IN PROGRESS.
000737: 12,2617           13203                           TCF      GLOCKOK
000738: 12,2620           12607                           TCF      GLINVERT
000739:
000740: 12,2621           63434        -70DEGS            DEC      -.38888                               #  -70 DEGREES SCALED IN HALF-REVOLUTIONS.
000741: 12,2622           75252        -15DEGS            DEC      -.08333
000742: 12,2623           37737        OCT37737           OCT      37737
000743:


000745:                                                                                                  #  PROGRAM NAME:  TLIM.
000746:
000747:                                                                                                  #  FUNCTIONAL DESCRIPTION:  THIS PROGRAM MAINTAINS THE TEMP LAMP (BIT 4 OF CHANNEL 11) ON THE DSKY TO AGREE WITH
000748:                                                                                                  #  THE TEMP SIGNAL FROM THE ISS (BIT 15 OF CHANNEL 30).  HOWEVER, THE LIGHT WILL NOT BE TURNED OFF IF A LAMP TEST
000749:                                                                                                  #  IS IN PROGRESS.
000750:
000751:                                                                                                  #  CALLING SEQUENCE:  CALLED BY IMUMON ON A CHANGE OF BIT 15 OF CHANNEL 30.
000752:
000753:                                                                                                  #  JOBS OR TASKS INITIATED:  NONE.
000754:
000755:                                                                                                  #  SUBROUTINES CALLED:  LAMPTEST.
000756:
000757:                                                                                                  #  ERASABLE INITIALIZATION:  FRESH START AND RESTART TURN THE TEMP LAMP OFF.
000758:
000759:                                                                                                  #  ALARMS:  TEMP LAMP TURNED ON WHEN IMU TEMP GOES OUT OF LIMITS.
000760:
000761:                                                                                                  #  EXIT:  NXTIFAIL.
000762:
000763:                                                                                                  #  OUTPUT:  SERVICE OF TEMP LAMP.                                          IN A, EXCEPT FOR TLIM.
000764:
000765: 12,2624           77735        TLIM               MASK     POSMAX                                #  REMOVE BIT FROM WORD OF CHANGES AND SET
000766: 12,2625           54071                           TS       RUPTREG2                              #  DSKY TEMP LAMP ACCORDINGLY.
000767:
000768: 12,2626           10365                           CCS      IMODES30
000769: 12,2627           12635                           TCF      TEMPOK
000770: 12,2630           12635                           TCF      TEMPOK
000771:
000772: 12,2631           37752                           CAF      BIT4                                  #  TURN ON LAMP.
000773: 12,2632           00006                           EXTEND
000774: 12,2633           05011                           WOR      11
000775: 12,2634           12350                           TCF      NXTIFAIL
000776:
000777: 12,2635           03047        TEMPOK             TC       LAMPTEST                              #  IF TEMP NOW OK, DONT TURN OFF LAMP IF
000778: 12,2636           12350                           TCF      NXTIFAIL                              #  LAMP TEST IN PROGRESS.
000779:
000780: 12,2637           47752                           CS       BIT4
000781: 12,2640           00006                           EXTEND
000782: 12,2641           03011                           WAND     11
000783: 12,2642           12350                           TCF      NXTIFAIL
000784:


000786:                                                                                                  #  PROGRAM NAME:  ITURNON.
000787:
000788:                                                                                                  #  FUNCTIONAL DESCRIPTION:  THIS PROGRAM IS CALLED BY IMUMON WHEN A CHANGE OF BIT 14 OF CHANNEL 30 (ISS TURN-ON
000789:                                                                                                  #  REQUEST) IS DETECTED.  UPON ENTRY, ITURNON CHECKS IF A TURN-ON DELAY SEQUENCE HAS FAILED, AND IF SO, IT EXITS.
000790:                                                                                                  #  IF NOT, IT CHECKS WHETHER THE TURN-ON REQUEST CHANGE IS TO ON OR OFF.  IF ON, IT SETS BIT7 OF IMODES30 TO 1 SO
000791:                                                                                                  #  THAT TNONTEST WILL INITIATE THE ISS INITIALIZATION SEQUENCE.  IF OFF, THE TURN-ON DELAY SIGNAL, CHANNEL 12 BIT
000792:                                                                                                  #  15, IS CHECKED AND IF IT IS ON, ITURNON EXITS.  IF THE DELAY SIGNAL IS OFF, PROGRAM ALARM 00207 IS ISSUED, BIT 2
000793:                                                                                                  #  OF IMODES30 IS SET TO 1 AND THE PROGRAM EXITS.
000794:
000795:                                                                                                  #           THE SETTING OF BIT 2 OF IMODES30 (ISS DELAY SEQUENCE FAIL) INHIBITS THIS ROUTINE AND IMUOP FROM
000796:                                                                                                  #  PROCESSING ANY CHANGES.  THIS BIT WILL BE RESET BY THE ENDTNON ROUTINE WHEN THE CURRENT 90 SECOND DELAY PERIOD
000797:                                                                                                  #  ENDS.
000798:
000799:                                                                                                  #  CALLING SEQUENCE:  FROM IMUMOM WHEN ISS TURN-ON REQUEST CHANGES STATE.
000800:
000801:                                                                                                  #  JOBS OR TASKS INITIATED:  NONE.
000802:
000803:                                                                                                  #  SUBROUTINES CALLED:  ALARM, IF THE ISS TURN-ON REQUEST IS NOT PRESENT FOR 90 SECONDS.
000804:
000805:                                                                                                  #  ERASABLE INITIALIZATION:  FRESH START AND RESTART SET BIT 15 OF CHANNEL 12 AND BITS 2 AND 7 OF IMODES30 TO 0,
000806:                                                                                                  #  AND BIT 14 OF IMODES30 TO 1.
000807:
000808:                                                                                                  #  ALARMS: PROGRAM ALARM 00207 IS ISSUED IF THE ISS TURN-ON REQUEST SIGNAL IS NOT PRESENT FOR 90 SECONDS.
000809:
000810:                                                                                                  #  EXIT:  NXTIFAIL.
000811:
000812:                                                                                                  #  OUTPUT:  BIT 7 OF IMODES30 TO START ISS INITIALIZATION, OR BIT 2 OF IMODES30 AND PROGRAM ALARM 00207 TO INDICATE
000813:                                                                                                  #  A FAILED TURN-ON SEQUENCE.
000814:
000815: 12,2643           37754        ITURNON            CAF      BIT2                                  #  IF DELAY REQUEST HAS GONE OFF
000816: 12,2644           70365                           MASK     IMODES30                              #  PREMATURELY, DO NOT PROCESS ANY CHANGES
000817: 12,2645           10000                           CCS      A                                     #  UNTIL THE CURRENT 90 SEC WAIT EXPIRES.
000818:
000819: 12,2646           12350                           TCF      NXTIFAIL
000820:
000821: 12,2647           37740                           CAF      BIT14                                 #  SEE IF JUST ON OR OFF.
000822: 12,2650           70365                           MASK     IMODES30
000823: 12,2651           00006                           EXTEND
000824: 12,2652           12666                           BZF      ITURNON2                              #  IF JUST ON.
000825:
000826: 12,2653           37737                           CAF      BIT15
000827: 12,2654           00006                           EXTEND                                         #  SEE IF DELAY PRESENT DISCRETE HAS BEEN
000828: 12,2655           02012                           RAND     12                                    #  SENT.  IF SO, ACTION COMPLETE.
000829: 12,2656           00006                           EXTEND
000830: 12,2657           12661                           BZF      +2
000831: 12,2660           12350                           TCF      NXTIFAIL
000832:
000833: 12,2661           37754                           CAF      BIT2                                  #  IF NOT, SET BIT TO INDICATE REQUEST NOT
000834: 12,2662           26365                           ADS      IMODES30                              #  PRESENT FOR FULL DURATION.
000835: 12,2663           04744                           TC       ALARM
000836: 12,2664           00207                           OCT      207
000837: 12,2665           12350                           TCF      NXTIFAIL
000838:


000840: 12,2666           47747        ITURNON2           CS       BIT7                                  #  SET BIT 7 TO INITIATE WAIT OF 1 SAMPLE.
000841: 12,2667           70365                           MASK     IMODES30
000842: 12,2670           67747                           AD       BIT7
000843: 12,2671           54365                           TS       IMODES30
000844: 12,2672           12350                           TCF      NXTIFAIL
000845:


000847:                                                                                                  #  PROGRAM NAME:  IMUCAGE.
000848:
000849:                                                                                                  #  FUNCTIONAL DESCRIPTION:  THIS PROGRAM PROCESSES CHANGES OF THE IMUCAGE INBIT, CHANNEL 30 BIT 11.  IF THE BIT
000850:                                                                                                  #  CHANGES TO 0 (CAGE BUTTON PRESSED), THE ISS IS CAGED (ICDU ZERO + COARSE ALIGN + NO ATT LAMP) UNTIL THE
000851:                                                                                                  #  ASTRONAUT SELECTS ANOTHER PROGRAM TO ALIGN THE ISS.  ANY PULSE TRAINS TO THE ICDU'S AND GYRO'S ARE TERMINATED,
000852:                                                                                                  #  THE ASSOCIATED OUTCOUNTERS ARE ZEROED AND THE GYRO'S ARE DE-SELECTED.  NO ACTION OCCURS WHEN THE BUTTON IS
000853:                                                                                                  #  RELEASED (INBIT CHANGES TO 1).
000854:
000855:                                                                                                  #  CALLING SEQUENCE:  BY IMUMON WHEN IMU CAGE BIT CHANGES.
000856:
000857:                                                                                                  #  JOBS OR TASKS INITIATED:  NONE.
000858:
000859:                                                                                                  #  SUBROUTINES CALLED:  CAGESUB.
000860:
000861:                                                                                                  #  ERASABLE INITIALIZATION:  FRESH START AND RESTART SET BIT 11 OF IMODES30 TO 1.
000862:
000863:                                                                                                  #  ALARMS: NONE.
000864:
000865:                                                                                                  #  EXIT:  NXTIFAIL.
000866:
000867:                                                                                                  #  OUTPUT:  ISS CAGED, COUNTERS ZEROED, PULSE TRAINS TERMINATED AND NO ATT LAMP LIT.
000868:
000869: 12,2673           10000        IMUCAGE            CCS      A                                     #  NO ACTION IF GOING OFF.
000870: 12,2674           12350                           TCF      NXTIFAIL
000871:
000872: 12,2675           43064                           CS       OCT71000                              #  TERMINATE ICDU AND GYRO PULSE TRAINS.
000873: 12,2676           00006                           EXTEND
000874: 12,2677           03014                           WAND     14
000875:
000876: 12,2700           03012                           TC       CAGESUB
000877:
000878: 12,2701           37761                           CAF      ZERO                                  #  ZERO COMMAND OUT-COUNTERS
000879: 12,2702           54050                           TS       CDUXCMD
000880: 12,2703           54051                           TS       CDUYCMD
000881: 12,2704           54052                           TS       CDUZCMD
000882: 12,2705           54047                           TS       GYROCMD
000883:
000884: 12,2706           43063                           CS       OCT1700                               #  HAVING WAITED AT LEAST 27 MCT FROM
000885: 12,2707           00006                           EXTEND                                         #  GYRO PULSE TRAIN TERMINATION, WE CAN
000886: 12,2710           03014                           WAND     14                                    #  DE-SELECT THE GYROS.
000887:
000888: 12,2711           12350                           TCF      NXTIFAIL
000889:


000891:                                                                                                  #  PROGRAM NAME:  IMUOP.
000892:
000893:                                                                                                  #  FUNCTIONAL DESCRIPTION:  THIS PROGRAM PROCESSES CHANGES IN THE ISS OPERATE DISCRETE, BIT 9 OF CHANNEL 30.
000894:                                                                                                  #  IF THE INBIT CHANGES TO 0, INDICATING ISS ON, IMUOP GENERALLY SETS BIT 7 OF IMODES30 TO 1 TO REQUEST ISS
000895:                                                                                                  #  INITIALIZATION VIA TNONTEST.  AN EXCEPTION IS DURING A FAILED ISS DELAY DURING WHICH BIT 2 OF IMODES30 IS SET
000896:                                                                                                  #  TO 1 AND NO FURTHER INITIALIZATION IS REQUIRED.  WHEN THE INBIT CHANGES TO 1, INDICATING ISS OFF, IMUSEFLG IS
000897:                                                                                                  #  TESTED TO SEE IF ANY PROGRAM WAS USING THE ISS.  IF SO, PROGRAM ALARM 00214 IS ISSUED.
000898:
000899:                                                                                                  #  CALLING SEQUENCE:  BY IMUMON WHEN BIT 9 OF CHANNEL 30 CHANGES.
000900:
000901:                                                                                                  #  JOBS OR TASKS INITIATED:  NONE.
000902:
000903:                                                                                                  #  SUBROUTINES CALLED:  ALARM, IF ISS IS TURNED OFF WHILE IN USE.
000904:
000905:                                                                                                  #  ERASABLE INITIALIZATION:  ON FRESH START AND RESTART, BIT 9 OF IMODES30 IS SET TO 1 EXCEPT WHEN THE GIMBAL LOCK
000906:                                                                                                  #  LAMP IS ON, IN WHICH CASE IT IS SET TO 0.  THIS PREVENTS ICDU ZERO BY TNONTEST WITH THE ISS IN GIMBAL LOCK.
000907:
000908:                                                                                                  #  ALARMS:  PROGRAM ALARM 00214 IF THE ISS IS TURNED OFF WHILE IN USE.
000909:
000910:                                                                                                  #  EXIT:  NXTIFAIL.
000911:
000912:                                                                                                  #  OUTPUT:  ISS INITIALIZATION REQUEST (IMODES30 BIT 7) OR PROGRAM ALARM 00214.
000913:
000914: 12,2712           00006        IMUOP              EXTEND
000915: 12,2713           12723                           BZF      IMUOP2
000916:
000917: 12,2714           40074                           CS       STATE                                 #  IF GOING OFF, ALARM IF PROG USING IMU.
000918: 12,2715           77746                           MASK     IMUSEFLG
000919: 12,2716           10000                           CCS      A
000920: 12,2717           12350                           TCF      NXTIFAIL
000921:
000922: 12,2720           04744                           TC       ALARM
000923: 12,2721           00214                           OCT      214
000924: 12,2722           12350                           TCF      NXTIFAIL
000925:
000926: 12,2723           37754        IMUOP2             CAF      BIT2                                  #  SEE IF FAILED ISS TURN-ON SEQ IN PROG.
000927: 12,2724           70365                           MASK     IMODES30
000928: 12,2725           10000                           CCS      A
000929: 12,2726           12350                           TCF      NXTIFAIL                              #  IF SO, DONT PROCESS UNTIL PRESENT 90
000930: 12,2727           12666                           TCF      ITURNON2                              #  SECONDS EXPIRES.
000931:


000933:                                                                                                  #  PROGRAM NAME:  PIPFAIL
000934:
000935:                                                                                                  #  FUNCTIONAL DESCRIPTION:  THIS PROGRAM PROCESSES CHANGES OF BIT 13 OF CHANNEL 33, PIPA FAIL.  IT SETS BIT 10 OF
000936:                                                                                                  #  IMODES30 TO AGREE.  IT CALLS SETISSW IN CASE A PIPA FAIL NECESSITATES AN ISS WARNING.  IF NOT,I.E., IMODES30
000937:                                                                                                  #  BIT 1 = 1, AND A PIPA FAIL IS PRESENT AND THE ISS IS NOT BEING INITIALIZED, PROGRAM ALARM 00212 IS ISSUED.
000938:
000939:                                                                                                  #  CALLING SEQUENCE:  BY C33TEST ON CHANGES OF CHANNEL 33 BIT 13.
000940:
000941:                                                                                                  #  JOBS OR TASKS INITIATED:  NONE.
000942:
000943:                                                                                                  #  SUBROUTINES CALLED:  1) SETISSW, AND 2) ALARM (SEE FUNCTIONAL DESCRIPTION).
000944:
000945:                                                                                                  #  ERASABLE INITIALIZATION:  SEE IMUMON FOR INITIALIZATION OF IMODES30.  THE RELAVANT BITS ARE 5, 7, 8, 9, AND 10.
000946:
000947:                                                                                                  #  ALARMS:  PROGRAM ALARM 00212 IF PIPA FAIL IS PRESENT BUT NEITHER ISS WARNING IS TO BE ISSUED NOR THE ISS IS
000948:                                                                                                  #  BEING INITIALIZED.
000949:
000950:                                                                                                  #  EXIT:  NXTFL33.
000951:
000952:                                                                                                  #  OUTPUT:  PROGRAM ALARM 00212 AND ISS WARNING MAINTENANCE.
000953:
000954: 12,2730           10000        PIPFAIL            CCS      A                                     #  SET BIT10 IN IMODES30 SO ALL ISS WARNING
000955: 12,2731           37744                           CAF      BIT10                                 #  INFO IS IN ONE REGISTER.
000956: 12,2732           56365                           XCH      IMODES30
000957: 12,2733           73066                           MASK     -BIT10
000958: 12,2734           26365                           ADS      IMODES30
000959:
000960: 12,2735           02763                           TC       SETISSW
000961:
000962: 12,2736           40365                           CS       IMODES30                              #  IF PIP FAIL DOESNT LIGHT ISS WARNING, DO
000963: 12,2737           77755                           MASK     BIT1                                  #  A PROGRAM ALARM IF IMU OPERATING BUT NOT
000964: 12,2740           10000                           CCS      A                                     #  CAGED OR BEING TURNED ON.
000965:
000966: 12,2741           12545                           TCF      NXTFL33
000967:
000968: 12,2742           30365                           CA       IMODES30
000969: 12,2743           73062                           MASK     OCT1720
000970: 12,2744           10000                           CCS      A
000971: 12,2745           12545                           TCF      NXTFL33                               #  ABOVE CONDITION NOT MET.
000972:
000973: 12,2746           04744                           TC       ALARM
000974: 12,2747           00212                           OCT      212
000975: 12,2750           12545                           TCF      NXTFL33
000976:


000978:                                                                                                  #  PROGRAM NAMES:  DNTMFAST, UPTMFAST
000979:
000980:                                                                                                  #  FUNCTIONAL DESCRIPTION:  THESE PROGRAMS PROCESS CHANGES OF BITS 12 AND 11 OF CHANNEL 33.  IF A BIT CHANGES TO A
000981:                                                                                                  #  0, A PROGRAM ALARM IS ISSUED.  THE ALARMS ARE:
000982:
000983:                                                                                                  #           BIT    ALARM           CAUSE
000984:                                                                                                  #           ---    -----           -----
000985:                                                                                                  #            12    01105           DOWNLINK TOO FAST
000986:                                                                                                  #            11    01106           UPLINK TOO FAST
000987:
000988:                                                                                                  #  CALLING SEQUENCE:  BY C33TEST ON A BIT CHANGE.
000989:
000990:                                                                                                  #  SUBROUTINES CALLED:  ALARM, IF A BIT CHANGES TO A 0.
000991:
000992:                                                                                                  #  ERASABLE INITIALIZATION:  FRESH START OR RESTART, BITS 12 AND 11 OF IMODES33 ARE SET TO 1.
000993:
000994:                                                                                                  #  ALARMS:  SET FUNCTIONAL DESCRIPTION.
000995:
000996:                                                                                                  #  EXIT:  NXTFL33.
000997:
000998:                                                                                                  #  OUTPUT:  PROGRAM ALARM ON A BIT CHANGE TO 0.
000999:
001000: 12,2751           10000        DNTMFAST           CCS      A                                     #  DO PROG ALARM IF TM TOO FAST.
001001: 12,2752           12545                           TCF      NXTFL33
001002:
001003: 12,2753           04744                           TC       ALARM
001004: 12,2754           01105                           OCT      1105
001005: 12,2755           12545                           TCF      NXTFL33
001006:
001007: 12,2756           10000        UPTMFAST           CCS      A                                     #  SAME AS DNLINK TOO FAST WITH DIFFERENT
001008: 12,2757           12545                           TCF      NXTFL33                               #  ALARM CODE.
001009:
001010: 12,2760           04744                           TC       ALARM
001011: 12,2761           01106                           OCT      1106
001012: 12,2762           12545                           TCF      NXTFL33
001013:


001015:                                                                                                  #  PROGRAM NAME:  SETISSW
001016:
001017:                                                                                                  #  FUNCTIONAL DESCRIPTION:  THIS PROGRAM TURNS THE ISS WARNING LAMP ON AND OFF (CHANNEL 11 BIT 1 = 1 FOR ON,
001018:                                                                                                  #  0 FOR OFF) DEPENDING ON THE STATUS OF IMODES30 BITS 13 (IMU FAIL) AND 4 (INHIBIT IMU FAIL), 12 (ICDU FAIL) AND
001019:                                                                                                  #  3 (INHIBIT ICDU FAIL), AND 10 (PIPA FAIL) AND 1 (INHIBIT PIPA FAIL).  THE LAMP IS LEFT ON IF A LAMP TEST IS IN
001020:                                                                                                  #  PROGRESS.
001021:
001022:                                                                                                  #  CALLING SEQUENCE:  CALLED BY IMUMON ON CHANGES TO IMU FAIL AND ICDU FAIL.  CALLED BY IFAILOK AND PFAILOK UPON
001023:                                                                                                  #  REMOVAL OF THE FAIL INHIBITS.  CALLED BY PIPFAIL WHEN THE PIPA FAIL DISCRETE CHANGES.  IT IS CALLED BY PIPUSE
001024:                                                                                                  #  SINCE THE PIPA FAIL PROGRAM ALARM MAY NECESSITATE AN ISS WARNING, AND LIKEWISE BY PIPFREE WHEN THE ALARM DEPARTS
001025:                                                                                                  #  AND IT IS CALLED BY IMUZERO3 AND ISSUP AFTER THE FAIL INHIBITS HAVE BEEN REMOVED.
001026:
001027:                                                                                                  #  JOBS OR TASKS INITIATED:  NONE.
001028:
001029:                                                                                                  #  SUBROUTINES CALLED:  NONE.
001030:
001031:                                                                                                  #  ERASABLE INITIALIZATION:
001032:
001033:                                                                                                  #           1) IMODES30 - SEE IMUMON.
001034:                                                                                                  #           2) IMODES33 BIT 1 = 0 (LAMP TEST NOT IN PROGRESS).
001035:
001036:                                                                                                  #  ALARMS:  ISS WARNING.
001037:
001038:                                                                                                  #  EXIT: VIA Q.
001039:
001040:                                                                                                  #  OUTPUT: ISS WARNING LAMP SET PROPERLY.
001041:
001042: 12,2763           33054        SETISSW            CAF      OCT15                                 #  SET ISS WARNING USING THE FAIL BITS IN
001043: 12,2764           70365                           MASK     IMODES30                              #  BITS 13, 12, AND 10 OF IMODES30 AND THE
001044: 12,2765           00006                           EXTEND                                         #  FAILURE INHIBIT BITS IN POSITIONS
001045: 12,2766           77744                           MP       BIT10                                 #  4, 3, AND 1.
001046: 12,2767           30365                           CA       IMODES30
001047: 12,2770           00006                           EXTEND
001048: 12,2771           04001                           ROR      L                                     #  0 INDICATES FAILURE.
001049: 12,2772           40000                           COM
001050: 12,2773           75657                           MASK     OCT15000
001051: 12,2774           10000                           CCS      A
001052: 12,2775           13006                           TCF      ISSWON                                #  FAILURE.
001053:
001054: 12,2776           37755        ISSWOFF            CAF      BIT1                                  #  DONT TURN OFF ISS WARNING IF LAMP TEST
001055: 12,2777           70366                           MASK     IMODES33                              #  IN PROGRESS.
001056: 12,3000           10000                           CCS      A
001057: 12,3001           00002                           TC       Q
001058:
001059: 12,3002           47755                           CS       BIT1
001060: 12,3003           00006                           EXTEND
001061: 12,3004           03011                           WAND     11
001062: 12,3005           00002                           TC       Q
001063:
001064: 12,3006           37755        ISSWON             CAF      BIT1
001065:


001067: 12,3007           00006                           EXTEND
001068: 12,3010           05011                           WOR      11
001069:
001070: 12,3011           00002                           TC       Q
001071:
001072: 12,3012           43065        CAGESUB            CS       BITS6&15                              #  SET OUTBITS AND INTERNAL FLAGS FOR
001073: 12,3013           00006                           EXTEND                                         #  SYSTEM TURN-ON OR CAGE.  DISABLE THE
001074: 12,3014           03012                           WAND     12                                    #  ERROR COUNTER AND REMOVE IMU DELAY COMP.
001075: 12,3015           33056                           CAF      BITS4&5                               #  SEND ZERO AND COARSE.
001076: 12,3016           00006                           EXTEND
001077: 12,3017           05012                           WOR      12
001078:
001079: 12,3020           43055                           CS       OC40010                               #  TURN ON NO ATT LAMP.
001080: 12,3021           70326                           MASK     DSPTAB     +11D
001081: 12,3022           63055                           AD       OC40010
001082: 12,3023           54326                           TS       DSPTAB     +11D
001083:
001084: 12,3024           43060        CAGESUB2           CS       OCT75                                 #  SET FLAGS TO INDICATE CAGING OR TURN-ON,
001085: 12,3025           70365                           MASK     IMODES30                              #  AND TO INHIBIT ALL ISS WARNING INFO.
001086: 12,3026           63060                           AD       OCT75
001087: 12,3027           54365                           TS       IMODES30
001088:
001089: 12,3030           00006                           EXTEND
001090: 12,3031           33035                           DCA      T4DAP                                 #  DISABLE DAP DURING ISS INITIALIZATION
001091: 12,3032           53001                           DXCH     T5ADR
001092:
001093: 12,3033           00002                           TC       Q
001094:
001095: 12,3034  E6,1541                                  EBANK=   DT
001096: 12,3034           02136 34006  T4DAP              2CADR    DAPIDLER
001097: 12,3036  12,2763               IMUFAIL            EQUALS   SETISSW
001098: 12,3036  12,2763               ICDUFAIL           EQUALS   SETISSW
001099:


001101:                                                                                                  #           JUMP TABLES AND CONSTANTS.
001102:
001103: 12,3036           12643        IFAILJMP           TCF      ITURNON                               #  CHANNEL 30 DISPATCH.
001104: 12,3037           12763                           TCF      IMUFAIL
001105: 12,3040           12763                           TCF      ICDUFAIL
001106: 12,3041           12673                           TCF      IMUCAGE
001107: 12,3042           76400        30RDMSK            OCT      76400                                 #  (BIT 10 NOT SAMPLED HERE).
001108: 12,3043           12712                           TCF      IMUOP
001109:
001110: 12,3044           12730        C33JMP             TCF      PIPFAIL                               #  CHANNEL 33 DISPATCH.
001111: 12,3045           12751                           TCF      DNTMFAST
001112: 12,3046           12756                           TCF      UPTMFAST
001113:
001114:                                                                                                  #           SUBROUTINE TO SKIP IF LAMP TEST NOT IN PROGRESS.
001115: 12,3047           40366        LAMPTEST           CS       IMODES33                              #  BIT 1 OF IMODES33 = 1 IF LAMP TEST IN
001116: 12,3050           77755                           MASK     BIT1                                  #  PROGRESS.
001117: 12,3051           10000                           CCS      A
001118: 12,3052           24002                           INCR     Q
001119: 12,3053           00002                           TC       Q
001120:
001121: 12,3054     5660               33RDMSK            EQUALS   PRIO16
001122: 12,3054           00015        OCT15              OCT      15
001123: 12,3055           40010        OC40010            OCT      40010
001124: 12,3056           00030        BITS4&5            OCT      30
001125: 12,3057           00054        OCT54              OCT      54
001126: 12,3060           00075        OCT75              OCT      75
001127: 12,3061           00300        BITS7&8            OCT      300
001128: 12,3062           01720        OCT1720            OCT      1720
001129: 12,3063           01700        OCT1700            OCT      1700
001130: 12,3064     5657               OCT15000           EQUALS   PRIO15
001131: 12,3064           71000        OCT71000           OCT      71000
001132: 12,3065           40040        BITS6&15           OCT      40040
001133:
001134: 12,3066           76777        -BIT10             OCT      -1000
001135:
001136: 12,3067           21450        90SECS             DEC      9000       B-14
001137: 12,3070           00014        120MS              DEC      12         B-14
001138:
001139: 12,3071  12,3203               GLOCKOK            EQUALS   RCSMONIT
001140: 12,3071  12,3203               NOIMUON            EQUALS   GLOCKOK
001141:


001143:                                                                                                  #           RR INBIT MONITOR.
001144:
001145: 12,3071           30413        RRAUTCHK           CA       RADMODES                              #  SEE IF CHANGE IN RR AUTO MODE BIT.
001146: 12,3072           00006                           EXTEND
001147: 12,3073           06033                           RXOR     33
001148: 12,3074           77754                           MASK     BIT2
001149: 12,3075           00006                           EXTEND
001150: 12,3076           13132                           BZF      RRCDUCHK
001151:
001152: 12,3077           22413                           LXCH     RADMODES                              #  UPDATE RADMODES.
001153: 12,3100           00006                           EXTEND
001154: 12,3101           06001                           RXOR     L
001155: 12,3102           54413                           TS       RADMODES
001156: 12,3103           77754                           MASK     BIT2                                  #  SEE IF JUST ON.
001157:
001158: 12,3104           10000                           CCS      A
001159: 12,3105           13124                           TCF      RROFF                                 #  OFF.
001160:
001161: 12,3106           37747                           CAF      BIT7                                  #  IF JUST ON AND SOME PROGRAM IS USING THE
001162: 12,3107           70074                           MASK     STATE                                 #  RR, DONT ZERO THE CDUS.
001163: 12,3110           10000                           CCS      A
001164: 12,3111           13132                           TCF      RRCDUCHK
001165:
001166: 12,3112           43123                           CS       OCT10001                              #  SET BITS TO INDICATE ZERO AND TURNON
001167: 12,3113           70413                           MASK     RADMODES                              #  IN PROGRESS.
001168: 12,3114           63123                           AD       OCT10001
001169: 12,3115           54413                           TS       RADMODES
001170:
001171: 12,3116           37755                           CAF      ONE
001172: 12,3117           05701                           TC       WAITLIST
001173: 12,3120  E6,1404                                  EBANK=   M11
001174: 12,3120           02000 20006                     2CADR    RRTURNON
001175: 12,3122           13176                           TCF      NORRGMON
001176:
001177: 12,3123           10001        OCT10001           OCT      10001
001178:
001179: 12,3124           40074        RROFF              CS       STATE                                 #  IF SOMEONE WAS USING THE RR, DISPLAY AN
001180:
001181: 12,3125           77747                           MASK     BIT7                                  #  ALARM IF THE RR GOES OUT OF AUTO MODE.
001182: 12,3126           10000                           CCS      A
001183: 12,3127           13132                           TCF      RRCDUCHK
001184:
001185: 12,3130           04744                           TC       ALARM
001186: 12,3131           00514                           OCT      514
001187:


001189:                                                                                                  #           CHECK FOR RR CDU FAIL.
001190:
001191: 12,3132           30413        RRCDUCHK           CA       RADMODES                              #  LAST SAMPLED BIT IN RADMODES.
001192: 12,3133           00006                           EXTEND
001193: 12,3134           06030                           RXOR     30
001194: 12,3135           77747                           MASK     BIT7
001195: 12,3136           00006                           EXTEND
001196: 12,3137           13152                           BZF      RRGIMON
001197:
001198: 12,3140           37754                           CAF      BIT2                                  #  IF RR NOT IN AUTO MODE, DONT CHANGE BIT
001199: 12,3141           70413                           MASK     RADMODES                              #  7 OF RADMODES. IF THIS WERE NOT DONE,
001200: 12,3142           10000                           CCS      A                                     #  THE TRACKER FAIL MIGHT COME ON WHEN
001201: 12,3143           13176                           TCF      NORRGMON                              #  JUST READING LR DATA.
001202:
001203: 12,3144           37747                           CAF      BIT7                                  #  SET BIT 7 OF RADMODES FOR SETTRKF.
001204: 12,3145           22413                           LXCH     RADMODES                              #  UPDATE RADMODES.
001205: 12,3146           00006                           EXTEND
001206: 12,3147           06001                           RXOR     L
001207: 12,3150           54413                           TS       RADMODES
001208:
001209: 12,3151           04366        TRKFLCDU           TC       SETTRKF                               #  UPDATE TRACKER FAIL LAMP ON DSKY.
001210:


001212:                                                                                                  #           THE RR GIMBAL LIMIT MONITOR IS ENABLED WHENEVER THE RR IS IN THE AUTO MODE EXCEPT WHEN THE RR CDUS ARE
001213:                                                                                                  #  BEING ZEROED, OR DURING A REMODE OR MONITOR REPOSITION OPERATION. THE LATTER IS INITIATED BY THIS MONITOR WHEN
001214:
001215:                                                                                                  #  THE GIMBALS EXCEED THE LIMITS FOR THE CURRENT MODE. A ROUTINE IS INITIATED TO DRIVE THE GIMBALS TO T = 0 AND
001216:                                                                                                  #  S = 0 IF IN MODE 1 AND T = 180 WITH S = -90 FOR MODE 2.
001217:
001218: 12,3152           33174        RRGIMON            CAF      OCT32002                              #  INHIBITED BY REMODE, ZEROING, MONITOR.
001219: 12,3153           70413                           MASK     RADMODES                              #  OR RR NOT IN AUTO.
001220: 12,3154           10000                           CCS      A
001221: 12,3155           13176                           TCF      NORRGMON
001222:
001223: 12,3156           04323                           TC       RRLIMCHK                              #  SET IF ANGLES IN LIMITS.
001224: 12,3157           00035                           ADRES    OPTY
001225:
001226: 12,3160           13162                           TCF      MONREPOS
001227:
001228: 12,3161           13176                           TCF      NORRGMON                              #  (ADDITIONAL CODING MAY GO HERE).
001229:
001230: 12,3162           37743        MONREPOS           CAF      BIT11                                 #  SET FLAG TO SHOW REPOSITION IN PROGRESS.
001231: 12,3163           26413                           ADS      RADMODES
001232:
001233: 12,3164           43175                           CS       OCT20002                              #  DISABLE TRACKER AND ERROR COUNTER.
001234: 12,3165           00006                           EXTEND
001235: 12,3166           03012                           WAND     12
001236:
001237: 12,3167           37754                           CAF      TWO
001238:
001239: 12,3170           05701                           TC       WAITLIST
001240: 12,3171  E6,1404                                  EBANK=   M11
001241: 12,3171           02051 20006                     2CADR    DORREPOS
001242: 12,3173           13176                           TCF      NORRGMON
001243:
001244: 12,3174           32002        OCT32002           OCT      32002
001245: 12,3175           20002        OCT20002           OCT      20002
001246:


001248:                                                                                                  #  PROGRAM NAME:  GPMATRIX (DAPT4S) MOD. NO. 2 DATE: OCTOBER 27, 1966
001249:
001250:                                                                                                  #  AUTHOR:  JONATHAN D. ADDELSTON (ADAMS ASSOCIATES)
001251:
001252:                                                                                                  #  THIS PROGRAM CALCULATES ALL THE SINGLE-PRECISION MATRIX ELEMENTS WHICH ARE USED BY LEM DAP TO TRANSFORM VECTORS
001253:                                                                                                  #  FROM GIMBAL TO PILOT (BODY) AXES AND BACK AGAIN.  THESE ELEMENTS ARE USED EXCLUSIVELY BY BASIC LANGUAGE ROUTINES
001254:                                                                                                  #  AND THEREFORE ARE NOT ARRAYED FOR USE BY INTERPRETIVE PROGRAMS.
001255:
001256:                                                                                                  #  CALLING SEQUENCE:  GPMATRIX IS TRANSFERRED TO FROM DAPT4S AND IS THUS EXECUTED 4 TIMES A SECOND BY T4RUPT.
001257:                                                                                                  #  DAPT4S IS LISTED IN T4JUMP TABLE TWICE EXPLICITLY AND ALSO OCCURS AFTER RRAUTCHK (WHICH IS ALSO LISTED TWICE).
001258:
001259:                                                                                                  #  SUBROUTINES CALLED: SPSIN, SPCOS.
001260:
001261:                                                                                                  #  NORMAL EXIT: RESUME.
001262:
001263:                                                                                                  #  ALARM/ABORT MODE:  THERE ARE NO REAL ALARMS OR ABORTS.  HOWEVER, WHEN THE MIDDLE GIMBAL ANGLE NEARS GIMBAL LOCK,
001264:                                                                                                  #  A DIVISION BY COS(MG) WILL CAUSE OVERFLOW (I.E. A BAD QUOTIENT).  THIS CONDITION IS PREVENTED BY TESTING COS(MG)
001265:                                                                                                  #  AND SUBSTITUTING POSMAX/NEGMAX FOR THE INCALCULABLE QUANTITIES.
001266:
001267:                                                                                                  #  INPUT: CDUX,CDUY,CDUZ.          OUTPUT: M11,M21,M31,M22,M32,MR12,MR13.
001268:                                                                                                  #                                          (ALSO MR22=M22,MR23=M32)
001269:
001270:                                                                                                  #  AOG = CDUX, AIG = CDUY, AMG = CDUZ: MNEMONIC IS: OIM = XYZ
001271:
001272:                                                                                                  #     *       *    SIN(MG)        0         1      *
001273:                                                                                                  #     M   =   *    COS(MG)COS(OG) SIN(OG)   0      *
001274:                                                                                                  #      GP     *   -COS(MG)SIN(OG) COS(OG)   0      *
001275:
001276:                                                                                                  #     *       *  0    COS(OG)/COS(MG)         -SIN(OG)/COS(MG)         *
001277:                                                                                                  #     M   =   *  0    SIN(OG)                  COS(OG)                 *
001278:                                                                                                  #      PG     *  1   -SIN(MG)COS(OG)/COS(MG)   SIN(MG)SIN(OG)/COS(MG)  *
001279:
001280:                                                                                                  #  THIS CODING TRANSFERS CONTROL TO THE DAP FIXED BANK FOR GPMATRIX:
001281:
001282: 12,3176                                           BANK     12
001283: 12,3176  E6,1404                                  EBANK=   M11
001284:
001285: 12,3176           00006        DAPT4S             EXTEND                                         #  GET 2CADR OF GPMATRIX
001286: 12,3177           33202                           DCA      DAPT4
001287: 12,3200           52006                           DTCB                                           #  CROSS BANKS
001288:
001289: 12,3201  12,3176               NORRGMON           EQUALS   DAPT4S
001290:
001291: 12,3201  E6,1404                                  EBANK=   M11
001292: 12,3201           02000 40006  DAPT4              2CADR    GPMATRIX
001293:


001295:                                                                                                  #  T4RUPT DAP LOGIC:
001296:
001297: 20,2000                                           BANK     20
001298: 20,2000  E6,1404                                  EBANK=   M11
001299:
001300: 20,2000           30034        GPMATRIX           CAE      CDUZ                                  #  SINGLE ENTRY POINT
001301: 20,2001           05373                           TC       SPSIN                                 #  SIN(CDUZ) = SIN(MG)
001302: 20,2002           55404                           TS       M11                                   #  SCALED AT 1
001303:
001304: 20,2003           30034                           CAE      CDUZ
001305: 20,2004           05372                           TC       SPCOS                                 #  COS(CDUZ) = COS(MG)
001306: 20,2005           55457                           TS       COSMG                                 #  SCALED AT 1 (ONLY A FACTOR)
001307:
001308: 20,2006           30032                           CAE      CDUX
001309:
001310: 20,2007           05373                           TC       SPSIN                                 #  SIN(CDUX) = SIN(OG)
001311: 20,2010           55401                           TS       M22                                   #  SCALED AT 1 (ALSO IS MR22)
001312:
001313: 20,2011           41401                           CS       M22
001314: 20,2012           00006                           EXTEND
001315: 20,2013           71457                           MP       COSMG                                 #  -SIN(OG)COS(MG)
001316: 20,2014           55406                           TS       M31                                   #  SCALED AT 1
001317:
001318: 20,2015           30032                           CAE      CDUX
001319: 20,2016           05372                           TC       SPCOS                                 #  COS(CDUX) = COS(OG)
001320: 20,2017           55403                           TS       M32                                   #  SCALED AT 1 (ALSO IS MR23)
001321:
001322: 20,2020           00006                           EXTEND
001323: 20,2021           71457                           MP       COSMG                                 #  COS(OG)COS(MG)
001324: 20,2022           55405                           TS       M21                                   #  SCALED AT 1
001325:
001326: 20,2023           31457                           CAE      COSMG                                 #  TEST FOR GIMBAL LOCK (OVERFLOW) REGION
001327: 20,2024           67736                           AD       NEG1/2                                #  BY TESTING MIDDLE GIMBAL ANGLE FOR
001328: 20,2025           00006                           EXTEND                                         #  VALUES EQUAL TO OR GREATER THAN 60 DEGS.
001329: 20,2026           62043                           BZMF     GPGLOCK
001330:
001331: 20,2027           31403                           CAE      M32
001332: 20,2030           00006                           EXTEND
001333:
001334: 20,2031           77740                           MP       BIT14                                 #  SCALE FOR DIVISION
001335: 20,2032           00006                           EXTEND
001336: 20,2033           11457                           DV       COSMG                                 #  COS(OG)/COS(MG)
001337: 20,2034           55400                           TS       MR12                                  #  SCALED AT 2
001338:
001339: 20,2035           41401                           CS       M22
001340: 20,2036           00006                           EXTEND
001341: 20,2037           77740                           MP       BIT14                                 #  SCALE FOR DIVISION
001342: 20,2040           00006                           EXTEND
001343: 20,2041           11457                           DV       COSMG                                 #  -SIN(OG)/COS(MG)
001344: 20,2042           12054                           TCF      MR13STOR
001345:


001347:                                                                                                  #  SPECIAL LOGIC FOR MIDDLE GIMBAL ANGLES GREATER THAN OR EQUAL TO 60 DEG:
001348:
001349: 20,2043           11403        GPGLOCK            CCS      M32                                   #  SINCE DIVISION BY COS(MG) MIGHT CREATE
001350: 20,2044           37735                           CAF      POSMAX
001351: 20,2045           12047                           TCF      +2                                    #  OVERFLOW (I.E. A NUMBER GREATER THAN 2)
001352: 20,2046           37737                           CAF      NEGMAX
001353: 20,2047           55400                           TS       MR12                                  #  USE THE VALUE SGN(NUMERATOR)*POSMAX AS
001354:
001355: 20,2050           11401                           CCS      M22
001356: 20,2051           37735                           CAF      POSMAX                                #  THE CLOSEST APPROXIMATION
001357: 20,2052           12054                           TCF      +2
001358: 20,2053           37737                           CAF      NEGMAX
001359: 20,2054           55402        MR13STOR           TS       MR13                                  #  SCALED AT 2
001360:
001361: 20,2055           15751                           TCF      RESUME

End of include-file T4RUPT_PROGRAM.agc.  Parent file is MAIN.agc


