
Source Code


000002:                                                                                                  ## Copyright:   Public domain.
000003:                                                                                                  ## Filename:    T6-RUPT_PROGRAMS.agc
000004:                                                                                                  ## Purpose:     A section of Sunburst revision 37, or Shepatin revision 0.
000005:                                                                                                  ##              It is part of an early development version of the software
000006:                                                                                                  ##              for Apollo Guidance Computer (AGC) on the unmanned Lunar
000007:                                                                                                  ##              Module (LM) flight Apollo 5. Sunburst 37 was the program
000008:                                                                                                  ##              upon which Don Eyles's offline development program Shepatin
000009:                                                                                                  ##              was based; the listing herein transcribed was actually for
000010:                                                                                                  ##              the equivalent revision 0 of Shepatin.
000011:                                                                                                  ##              This file is intended to be a faithful transcription, except
000012:                                                                                                  ##              that the code format has been changed to conform to the
000013:                                                                                                  ##              requirements of the yaYUL assembler rather than the
000014:                                                                                                  ##              original YUL assembler.
000015:                                                                                                  ## Reference:   pp. 460-462
000016:                                                                                                  ## Assembler:   yaYUL
000017:                                                                                                  ## Contact:     Ron Burkey <info@sandroid.org>.
000018:                                                                                                  ## Website:     www.ibiblio.org/apollo/index.html
000019:                                                                                                  ## Mod history: 2017-05-24 MAS  Created from Sunburst 120.
000020:                                                                                                  ##              2017-05-30 HG   Transcribed
000021:                                                                                                  ##              2017-06-22 RSB  Proofed comment text with
000022:                                                                                                  ##                              octopus/ProoferComments.
000023:


000025:                                                                                                  #  PROGRAM NAMES: (1) DOT6RUPT     MOD. NO. 2  DATE: NOVEMBER 15, 1966
000026:
000027:                                                                                                  #                 (2) T6JOBCHK
000028:
000029:                                                                                                  #  MODIFICATION BY: JONATHAN D. ADDELSTON (ADAMS ASSOCIATES)
000030:
000031:                                                                                                  #  THESE PROGRAMS ENABLE THE LM DAP TO CONTROL THE THRUST TIMES OF THE REACTION CONTROL SYSTEM JETS BY USING TIME6.
000032:                                                                                                  #  SINCE THE LM DAP MAINTAINS EXCLUSIVE CONTROL OVER TIME6 AND ITS INTERRUPTS, THE FOLLOWING CONVENTIONS HAVE BEEN
000033:                                                                                                  #  ESTABLISHED AND MUST NOT BE TAMPERED WITH:
000034:                                                                                                  #           1. NO NUMBER IS EVER PLACED INTO TIME6 EXCEPT BY LM DAP.
000035:                                                                                                  #           2. NO PROGRAM OTHER THAN LM DAP ENABLES THE TIME6 COUNTER.
000036:                                                                                                  #           3. ONLY POSITIVE NUMBERS ARE ENTERED INTO TIME6, SO IT COUNTS DOWN TO -0 (MINUS ZERO) TO INTERRUPT.
000037:                                                                                                  #           4. IF -0 IS NOT IN TIME6 WHEN THE INTERRUPT OCCURS, THEN THE INTERRUPT HAS ALREADY BEEN PROCESSED.
000038:                                                                                                  #           5. ALL PROGRAMS WHICH OPERATE IN EITHER INTERRUPT MODE OR WITH INTERRUPT INHIBITED MUST CALL T6JOBCHK
000039:                                                                                                  #              EVERY 6 MILLISECONDS TO PROCESS A POSSIBLE WAITING T6RUPT BEFORE IT CAN BE HONORED BY THE HARDWARE.
000040:
000041:                                                                                                  #  DOT6RUPT CALLING SEQUENCE:
000042:
000043:                                                                                                  #  REF   1                 4004  52 011 0           DXCH   ARUPT           T6RUPT
000044:                                                                                                  #                          4005  0 0006 1           EXTEND
000045:                                                                                                  #  REF   1                 4006  3 5045 0           DCA    T6ADR
000046:                                                                                                  #                          4007  52 006 0           DTCB
000047:
000048:                                                                                                  #  T6JOBCHK CALLING SEQUENCE:
000049:
000050:                                                                                                  #  REF   0              23,1000  0 4200 1           TC     T6JOBCHK
000051:
000052:                                                                                                  #  SUBROUTINES CALLED:   DOT6RUPT CALLS T6JOBCHK.
000053:
000054:                                                                                                  #  NORMAL EXIT MODES:    DOT6RUPT TRANSFERS CONTROL TO RESUME.
000055:                                                                                                  #                        T6JOBCHK TRANSFERS CONTROL TO CALLER AT LOCATION AFTER CALL.
000056:
000057:                                                                                                  #  ALARM/ABORT MODES:    NONE.
000058:
000059:                                                                                                  #  INPUT: TIME6,T6NEXT REGS,T6NEXTJT REGS.
000060:
000061:                                                                                                  #  OUTPUT: (SAME AS INPUT.)
000062:
000063:                                                                                                  #  DEBRIS: DOT6RUPT: NONE.  T6JOBCHK: A,L
000064:
000065:                                                                                                  #  *** NOTE: AS OF MOD. NO. 2, T6NEXT AND T6NEXTJT LISTS ARE IN UNSWITCHED ERASABLE. ***
000066:


000068:
000069:    5037                                           BLOCK    02
000070:    5037     1002                                  EBANK=   T6NEXT
000071:
000072:    5037     1002                                  EBANK=   T6NEXT
000073:    5037           02077 34002  T6ADR              2CADR    DOT6RUPT                              #  2CADR OF INTERRUPT PROCESSOR.
000074:
000075: 16,2077                                           BANK     16
000076: 16,2077     1002                                  EBANK=   T6NEXT
000077:
000078: 16,2077           22016        DOT6RUPT           LXCH     BANKRUPT                              #  (INTERRUPT LEAD IN CONTINUED)
000079: 16,2100           00006                           EXTEND
000080: 16,2101           22012                           QXCH     QRUPT
000081:
000082: 16,2102           05041                           TC       T6JOBCHK                              #  CALL T6JOBCHK
000083:
000084: 16,2103           15751                           TCF      RESUME                                #  END TIME6 RUPT
000085:
000086:
000087:
000088:    5041                                           BLOCK    02
000089:    5041     1002                                  EBANK=   T6NEXT
000090:
000091:    5041           10031        T6JOBCHK           CCS      TIME6                                 #  CHECK TIME6 FOR WAITING T6RUPT:
000092:    5042           00002                           TC       Q                                     #  NONE: CLOCK COUTING DOWN.
000093:    5043           00002                           TC       Q                                     #  NONE: T6RUPT ALREADY PROCESSED.
000094:    5044           00002                           TC       Q                                     #  NONE: INVALID VALUE. (POSSIBLE ABORT.)
000095:
000096:                                                                                                  #  CONTROL PASSES TO T6JOB ONLY WHEN C(TIME6) = -0 (I.E. WHEN A T6RUPT MUST BE PROCESSED).
000097:
000098:    5045           37761        T6JOB              CAF      ZERO                                  #  UPDATE ORDERED LIST OF TIME6 DT'S:
000099:    5046           57003                           XCH      T6NEXT     +1                         #  1) PUSH FIRST ENTRY INTO TIME6.
000100:    5047           57002                           XCH      T6NEXT                                #  2) PUSH SECOND ENTRY INTO FIRST PLACE.
000101:
000102:    5050           54031                           TS       TIME6                                 #  3) ZERO LAST (SECOND) DT IN LIST.
000103:
000104:    5051           10031                           CCS      TIME6                                 #  TIME6 EITHER POSITIVE OR PLUS ZERO:
000105:    5052           15055                           TCF      T6NZERO                               #  (BRANCH IF TIME6 STILL ACTIVE.)
000106:
000107:    5053           31004                           CAE      T6NEXTJT                              #  THESE ARE TRANSLATION JETS (NO DT),
000108:    5054           16010                           TCF      WRITEJTS                              #  DETERMINE CHANNEL AND WRITE.
000109:
000110:    5055           37737        T6NZERO            CAF      BIT15                                 #  ENABLE TIME6 COUNTER TO START TIMING
000111:    5056           00006                           EXTEND                                         #  THIS JET FIRING (PROPER JETS NOT YET
000112:    5057           05013                           WOR      13                                    #  WRITTEN INTO CHANNEL, BUT WILL BE SOON).
000113:
000114:    5060           37761                           CAF      ZERO                                  #  UPDATE ORDERED LIST OF JET POLICIES:
000115:    5061           57006                           XCH      T6NEXTJT   +2                         #  1) LEAVE JETS TO GO ON NOW IN A.
000116:    5062           57005                           XCH      T6NEXTJT   +1                         #  2) CYCLE LIST UP TOWARD TOP.
000117:    5063           57004                           XCH      T6NEXTJT                              #  3) ZERO LAST ENTRY IN LIST.
000118:
000119:    5064           16010                           TCF      WRITEJTS                              #  TEMP. FIX UNTIL NEXT REV: JON A.
000120:


000122:                                                                                                  #  THE FOLLOWING JET-ON LOGIC MAY BE USED AS A SUBROUTINE (3 ENTRY POINTS):
000123:
000124:                                                                                                  #  FIRST, LET SGN(A) DETERMINE THE JET CHANNEL:
000125:                                                                                                  #           POSITIVE IMPLIES P-AXIS POLICY.
000126:                                                                                                  #           NEGATIVE IMPLIES Q,R-AXES POLICY.
000127:
000128:    6010                                           BLOCK    03
000129:
000130:    6010           00006        WRITEJTS           EXTEND                                         #  TEST FOR CHANNEL TO WRITE POLICY IN:
000131:    6011           66015                           BZMF     WRITEQR                               #  NEG: Q,R-AXES JETS IN CHANNEL 5
000132:
000133:                                                                                                  #  SECOND, FOR P-AXIS JET POLICIES:
000134:
000135:    6012           00006        WRITEP             EXTEND                                         #  POS: P-AXIS   JETS IN CHANNEL 6
000136:
000137:    6013           01006                           WRITE    6
000138:    6014           00002                           TC       Q                                     #  RETURN.
000139:
000140:                                                                                                  #  THIRD, FOR Q,R-AXES JET POLICIES:
000141:
000142:    6015           00006        WRITEQR            EXTEND                                         #  Q,R-AXES JETS IN CHANNEL 5
000143:    6016           01005                           WRITE    5
000144:    6017           00002                           TC       Q                                     #  RETURN.

End of include-file T6-RUPT_PROGRAMS.agc.  Parent file is MAIN.agc


