
Source Code


000002:                                                                                                  ## Copyright:   Public domain.
000003:                                                                                                  ## Filename:    THROTTLE_CONTROL.agc
000004:                                                                                                  ## Purpose:     A section of Sunburst revision 37, or Shepatin revision 0.
000005:                                                                                                  ##              It is part of an early development version of the software
000006:                                                                                                  ##              for Apollo Guidance Computer (AGC) on the unmanned Lunar
000007:                                                                                                  ##              Module (LM) flight Apollo 5. Sunburst 37 was the program
000008:                                                                                                  ##              upon which Don Eyles's offline development program Shepatin
000009:                                                                                                  ##              was based; the listing herein transcribed was actually for
000010:                                                                                                  ##              the equivalent revision 0 of Shepatin.
000011:                                                                                                  ##              This file is intended to be a faithful transcription, except
000012:                                                                                                  ##              that the code format has been changed to conform to the
000013:                                                                                                  ##              requirements of the yaYUL assembler rather than the
000014:                                                                                                  ##              original YUL assembler.
000015:                                                                                                  ## Reference:   pp. 795-801
000016:                                                                                                  ## Assembler:   yaYUL
000017:                                                                                                  ## Contact:     Ron Burkey <info@sandroid.org>.
000018:                                                                                                  ## Website:     www.ibiblio.org/apollo/index.html
000019:                                                                                                  ## Mod history: 2017-05-24 MAS  Created from Sunburst 120.
000020:                                                                                                  ##              2017-06-09 HG   Transcribed
000021:                                                                                                  ##              2017-06-15 HG   Fix operator DXCH -> DAS
000022:
000023:


000025: 30,3356                                           BANK     30
000026: 30,3356  E5,1557                                  EBANK=   ETHROT
000027:
000028:
000029:                                                                                                  #    INPUTS TO THROTTLE CONTROL ARE /A/ AND /AFC/, ACCELERATIONS PRESENT
000030:
000031:                                                                                                  #  AND DESIRED, SCALED IN UNITS OF 2(-5) M/CS/CS, AND MASS IN UNITS OF
000032:                                                                                                  #  2(15) KILOGRAMMS.
000033:                                                                                                  #    THIS PROGRAM CAUSES THE THROTTLE TO RESPOND TO ACCELERATION COMMANDS
000034:                                                                                                  #  IN THE MANNER DESCRIBED BY FIGURE 5.3-5 OF THE FLIGHT 206 GSOP.
000035:
000036:                                                                                                  #  ***************
000037:                                                                                                  #  * SUBROUTINES *
000038:                                                                                                  #  ***************
000039:
000040:                                                                                                  #  THIS SUBROUTINE MULTIPLIES ACCELERATION
000041:                                                                                                  #  (ARRIVING IN A AND L) BY MASS AND LEAVES
000042:                                                                                                  #  FORCE (THRUST) IN A AND L, SCALED AT
000043:
000044:                                                                                                  #  ABOUT 3.3 POUNDS PER BIT.
000045: 30,3356           00006        MASSMULT           EXTEND
000046: 30,3357           22120                           QXCH     BUF                                   #  PRESERVING RETURN ADDRESS
000047: 30,3360           52145                           DXCH     MPAC
000048: 30,3361           07146                           TC       DMP                                   #  LEAVES ODDLY SCALED FORCE IN MPAC
000049: 30,3362           01332                           ADRES    MASS
000050: 30,3363           07146                           TC       DMP                                   #  LEAVES PROPERLY SCALED FORCE IN MPAC
000051: 30,3364           03526                           ADRES    SCALEFAC
000052: 30,3365           52146                           DXCH     MPAC       +1                         #  LOADING FORCE INTO A AND L
000053: 30,3366           00120                           TC       BUF
000054:


000056:                                                                                                  #  ***********
000057:
000058:                                                                                                  #  * ENTRIES *
000059:                                                                                                  #  ***********
000060:
000061:                                                                                                  #  THIS ENTRY SETS UP A JOB WHICH WILL
000062:                                                                                                  #  DELIVER A SPECIFIED FRACTION OF MAXIMUM
000063:                                                                                                  #  THRUST.   THIS FRACTION ARRIVES (SP) IN
000064:                                                                                                  #  REGISTER PCNTF.
000065:
000066: 30,3367           53567        PCNTFMAX           DXCH     RTNHOLD                               #  RETAINING 2CADR FOR RETURN TO USER
000067: 30,3370           35665                           CAF      PRIO25
000068:
000069: 30,3371           00004                           INHINT
000070: 30,3372           05523                           TC       NOVAC
000071: 30,3373  E5,1557                                  EBANK=   ETHROT
000072: 30,3373           03410 60065                     2CADR    PCNTJOB
000073:
000074: 30,3375           00003                           RELINT
000075: 30,3376           13406                           TCF      AWAY
000076:
000077:                                                                                                  #  NORMAL ENTRY FROM GUIDANCE EQUATIONS:
000078:                                                                                                  #                                          THE JOB SET UP HERE DELIVERS A THRUST
000079:                                                                                                  #  CORRESPONDING TO THE DESIRED MAGNITUDE
000080:                                                                                                  #  OF THRUST-ACCELERATION.   THIS VALUE
000081:
000082:                                                                                                  #  ARRIVES (DP) IN /ACF/.
000083:
000084: 30,3377           53567        THROTCON           DXCH     RTNHOLD                               #  RETAINING 2CADR FOR RETURN TO USER
000085: 30,3400           35226                           CAF      PRIO30
000086: 30,3401           00004                           INHINT
000087: 30,3402           05523                           TC       NOVAC
000088: 30,3403  E5,1557                                  EBANK=   ETHROT
000089: 30,3403           03422 60065                     2CADR    ACCLJOB
000090:
000091: 30,3405           00003                           RELINT
000092:
000093:                                                                                                  #  THIS RETURN IS COMMON TO BOTH ENTRIES.
000094:
000095: 30,3406           53567        AWAY               DXCH     RTNHOLD
000096: 30,3407           52006                           DTCB
000097:


000099:                                                                                                  #  ***************
000100:                                                                                                  #  * COMPUTATION *
000101:                                                                                                  #  ***************
000102:
000103: 30,3410           04147        PCNTJOB            TC       PHASCHNG
000104: 30,3411           04024                           OCT      04024                                 #  ?
000105:
000106:
000107: 30,3412           00006                           EXTEND
000108: 30,3413           43521                           DCS      -FMAX
000109: 30,3414           52145                           DXCH     MPAC
000110: 30,3415           31335                           CA       PCNTF
000111: 30,3416           07351                           TC       SHORTMP
000112: 30,3417           52145                           DXCH     MPAC                                  #  LOADING
000113: 30,3420           53563                           DXCH     FC                                    #  STORING
000114: 30,3421           13430                           TCF      FOLDCALC
000115:
000116:
000117:
000118: 30,3422  30,3422               ACCLJOB            =        FCCALC
000119:
000120: 30,3422           04147        FCCALC             TC       PHASCHNG
000121: 30,3423           04024                           OCT      04024                                 #  ?
000122:
000123: 30,3424           00006                           EXTEND
000124: 30,3425           31335                           DCA      /ACF/
000125: 30,3426           03356                           TC       MASSMULT
000126: 30,3427           53563                           DXCH     FC                                    #  FC = MASS /ACF/, SCALED
000127:
000128:
000129:
000130: 30,3430           00006        FOLDCALC           EXTEND
000131: 30,3431           31337                           DCA      /AF/
000132: 30,3432           03356                           TC       MASSMULT
000133: 30,3433           53560                           DXCH     FOLD                                  #  FOLD = MASS /AF/, SCALED
000134:
000135:
000136:
000137:                                                                                                  #  AFTER FIRST ZEROING PIF, THIS ROUTINE
000138:                                                                                                  #  CHECKS THE ENGINE-OFF BIT.  IF THE
000139:                                                                                                  #  ENGINE PROVES TO BE OFF FCOLD IS SET TO
000140:
000141:                                                                                                  #  10 PERCENT FMAX, AND, SINCE /AF/ DOES
000142:                                                                                                  #  NOT REFLECT THE 10 PRECENT SETTING OF
000143:                                                                                                  #  THE HAND THROTTLE, -10 PRECENT FMAX
000144:                                                                                                  #  IS ADDED INTO PIF.
000145:
000146: 30,3434           37761        NEXTNEXT           CA       ZERO
000147: 30,3435           55564                           TS       PIF
000148: 30,3436           55565                           TS       PIF        +1
000149: 30,3437           37740                           CA       BIT14
000150:


000152: 30,3440           00006                           EXTEND
000153:
000154: 30,3441           02011                           RAND     11
000155: 30,3442           00006                           EXTEND
000156: 30,3443           13450                           BZF      WHERETO                               #  BRANCH HERE IF ENGINE IS ON
000157: 30,3444           43524                           CS       -.1FMAX
000158: 30,3445           55561                           TS       FCOLD                                 #  SETTING FCOLD
000159: 30,3446           33524                           CA       -.1FMAX
000160: 30,3447           55564                           TS       PIF                                   #  SETTING PIF
000161:


000163:
000164:                                                                                                  #  ************
000165:                                                                                                  #  * DECISION *
000166:                                                                                                  #  ************
000167:
000168: 30,3450           31562        WHERETO            CA       FC
000169:
000170: 30,3451           63524                           AD       -.1FMAX
000171: 30,3452           00006                           EXTEND
000172: 30,3453           63473                           BZMF     TIPTOE                                #  BRANCH IF FC < OR = 10 PRECENT MAX
000173: 30,3454           31562                           CA       FC
000174: 30,3455           63523                           AD       -.52FMAX
000175: 30,3456           00006                           EXTEND
000176: 30,3457           63476                           BZMF     DOPIF                                 #  BRANCH IF FC < 52 PRECENT
000177: 30,3460           41562                           CS       FC
000178: 30,3461           63522                           AD       .58FMAX
000179: 30,3462           00006                           EXTEND
000180: 30,3463           63470                           BZMF     FLATOUT                               #  BRANCH IF FC > OR = 58 PRECENT FMAX,
000181: 30,3464           31561                           CA       FCOLD                                 #    OTHERWISE, TEST FCOLD
000182:
000183: 30,3465           63520                           AD       -FMAX
000184: 30,3466           00006                           EXTEND
000185: 30,3467           63476                           BZMF     DOPIF                                 #  BRANCH IF FCOLD < OR = 100 PRECENT FMAX,
000186:                                                                                                  #   OTHERWISE (IN WHICH CASE FCOLD=HIGHT)
000187:                                                                                                  #   PROCEED TO FLATOUT
000188:


000190:                                                                                                  #  *************
000191:
000192:                                                                                                  #  * EXECUTION *
000193:                                                                                                  #  *************
000194:
000195: 30,3470           33517        FLATOUT            CA       2FMAX
000196: 30,3471           55562                           TS       FC
000197: 30,3472           13476                           TCF      DOPIF
000198:
000199: 30,3473           00006        TIPTOE             EXTEND
000200: 30,3474           43525                           DCS      -.1FMAX
000201: 30,3475           53563                           DXCH     FC
000202:
000203: 30,3476           04147        DOPIF              TC       PHASCHNG
000204: 30,3477           04024                           OCT      04024                                 #  ?
000205:
000206: 30,3500           00006                           EXTEND
000207: 30,3501           31563                           DCA      FC
000208: 30,3502           55561                           TS       FCOLD                                 #  HISTORY
000209: 30,3503           21565                           DAS      PIF                                   #  OKAY SINCE PIF PREVIOUSLY WAS ZEROOED
000210: 30,3504           00006                           EXTEND
000211: 30,3505           41560                           DCS      FOLD
000212: 30,3506           21565                           DAS      PIF                                   #  PIF = FC - FOLD + PRESETTING (IF ANY)
000213: 30,3507           31564                           CA       PIF
000214:
000215:
000216: 30,3510           54055        DOIT               TS       THRUST
000217: 30,3511           37752                           CAF      BIT4
000218: 30,3512           00006                           EXTEND
000219: 30,3513           05014                           WOR      14                                    #  AND THE ENGINE DOES THE REST...
000220:
000221: 30,3514           04147                           TC       PHASCHNG
000222: 30,3515           04024                           OCT      04024                                 #  GROUP NUMBER NOT FINALIZED
000223:
000224: 30,3516           15605                           TCF      ENDOFJOB
000225:


000227:                                                                                                  #  *************
000228:                                                                                                  #  * CONSTANTS *
000229:                                                                                                  #  *************
000230:
000231:                                                                                                  #  CONSTANTS FOR DECISION
000232:
000233: 30,3517           14400        2FMAX              DEC      +6400      B-14                       #  200% FMAX
000234:
000235:
000236: 30,3520           06200 00000  -FMAX              2DEC     +3200      B-14                       #  100 % FMAX, NEGATIVE
000237:
000238: 30,3522           03500        .58FMAX            DEC      +1856      B-14                       #   58 % FMAX
000239:
000240: 30,3523           74601        -.52FMAX           DEC      -1662      B-14                       #  JUST UNDER 52 % FMAX, NEGATIVE
000241:
000242: 30,3524           77277 77777  -.1FMAX            2DEC     -320       B-14                       #   10 % FMAX. NEGATIVE
000243:
000244: 30,3526           00056 32570  SCALEFAC           2DEC     46.835424  B-14                       #  ABOUT 10000/(3 16 4.4482)  B-14

End of include-file THROTTLE_CONTROL.agc.  Parent file is MAIN.agc


