
Source Code


000002:                                                                                                  ## Copyright:   Public domain.
000003:                                                                                                  ## Filename:    THRUST_MISSION_CONTROL_PROGRAM_TJS.agc
000004:                                                                                                  ## Purpose:     A section of Sunburst revision 37, or Shepatin revision 0.
000005:                                                                                                  ##              It is part of an early development version of the software
000006:                                                                                                  ##              for Apollo Guidance Computer (AGC) on the unmanned Lunar
000007:                                                                                                  ##              Module (LM) flight Apollo 5. Sunburst 37 was the program
000008:                                                                                                  ##              upon which Don Eyles's offline development program Shepatin
000009:                                                                                                  ##              was based; the listing herein transcribed was actually for
000010:                                                                                                  ##              the equivalent revision 0 of Shepatin.
000011:                                                                                                  ##              This file is intended to be a faithful transcription, except
000012:                                                                                                  ##              that the code format has been changed to conform to the
000013:                                                                                                  ##              requirements of the yaYUL assembler rather than the
000014:                                                                                                  ##              original YUL assembler.
000015:                                                                                                  ## Reference:   pp. 763-776
000016:                                                                                                  ## Assembler:   yaYUL
000017:                                                                                                  ## Contact:     Ron Burkey <info@sandroid.org>.
000018:                                                                                                  ## Website:     www.ibiblio.org/apollo/index.html
000019:                                                                                                  ## Mod history: 2017-05-24 MAS  Created from Sunburst 120.
000020:                                                                                                  ##              2017-06-03 MAS  Transcribed.
000021:                                                                                                  ##              2017-06-08 HG   Fix operand SETDVCNT -> DVSELECT
000022:                                                                                                  ##                              Remove non existent section
000023:                                                                                                  ##              2017-06-23 RSB  Proofed comment text with
000024:                                                                                                  ##                              octopus/ProoferComments.
000025:


000027:                                                                                                  #  **SERVICER ROUTINES**
000028:
000029:                                                                                                  #        MOD NO. 00      MODIFICATION BY A. KOSMALA      NOV. 1966
000030:
000031:
000032:
000033:                                                                                                  #    *FUNCTIONAL DESCRIPTION*
000034:
000035:                                                                                                  #      THE THRUST MISSION CONTROL PROGRAM TJS IS USED BY ALL MISSION PHASES WHICH INCLUDE A BURN.
000036:
000037:                                                                                                  #      THE NORMAL ENTRY TO THE THRUST MISSION CONTROL PROGRAM IS THROUGH PREREAD.  PREREAD SCHEDULES THE JOB
000038:                                                                                                  #  LASTBIAS.  BOOST PHASE ENTERS THE PREREAD ROUTINE AT BIBIBIAS, BYPASSING THE LASTBIAS JOB.  PIPS ARE CLEARED,
000039:                                                                                                  #  AVERAGE G FLAG IS SET, DRIFT FLAG IS UNSET.  DV MONITOR AND FINDCUD ARE INITIALIZED, THE JOB NORMLIZE IS
000040:                                                                                                  #  SCHEDULED, AND A WAITLIST CALL IS MADE TO START READACCS IN TWO SECONDS.
000041:
000042:                                                                                                  #      NORMLIZE PERFORMS THE SCALING AND INITIALIZATION REQUIRED PRIOR TO THE FIRST ENTRY TO AVERAGE G.
000043:
000044:                                                                                                  #      IN THE READACCS SECTION, THE ACCELEROMETERS ARE READ BY THE PIPASR SUBROUTINE.  IF THE AVERAGE G FLAG IS
000045:                                                                                                  #  SET, READACCS IS CALLED TO RECYCLE IN TWO SECONDS.  IF THE AVERAGE G FLAG IS DOWN, AVERAGE G EXIT (AVEGEXIT)
000046:
000047:                                                                                                  #  IS SET FOR THE FINAL PASS, AND READACCS IS NOT CALLED AGAIN.  IN EITHER CASE, THE SERVICER JOB IS ESTABLISHED.
000048:
000049:                                                                                                  #      THE SERVICER ROUTINE CHECKS FOR RUNAWAY PIPS (DELV GREATER THAN 3200 PULSES/SEC FOR 2 SEC) AND SENDS
000050:                                                                                                  #  ALARM CODE 205 IF BAD PIP IS FOUND.  PIPS ARE COMPENSATED IN 1/PIPA SUBROUTINE, MASS IS UPDATED BY MASSMON
000051:                                                                                                  #  SUBROUTINE, AND CONTROL IS TRANSFERRED TO THE MONITOR SPECIFIED BY DVSELECT.   DVSELECT IS SET BY THE BOOST
000052:                                                                                                  #  PHASE TO BOOSTMON, AND BY THE ENGINEON ROUTINE TO PGNCSMON.  USERS STARTING SERVICER BEFORE THE ENGINE IS
000053:                                                                                                  #  TURNED ON SHOULD INSURE BYPASSING DVMON INITIALLY BY SETTING DVSELECT TO THE GENADR OF AVERAGE G.
000054:
000055:                                                                                                  #      THE BOOST MONITOR (BOOSTMON) CHECKS DELV AGAINST THRSHLD+, THE THRESHOLD ACCELERATION FOR THE BOOST PHASE.
000056:                                                                                                  #  IF DELV IS BELOW THRESHOLD, INDICATING TERMINATION OF BOOST, MISSION PHASE 6 IS SCHEDULED AS A JOB, DVSELECT
000057:
000058:                                                                                                  #  IS ALTERED TO BYPASS BOOSTMON AND PROCEED DIRECTLY TO AVERAGE G.
000059:
000060:                                                                                                  #      THE PGNCS MONITOR (PGNCSMON) COMPARES ACTUAL THRUST TO THE THRESHOLD VALUE FOR THE +X ACCELERATION
000061:                                                                                                  #  (100 CM/SEC).  IF THRUST IS FOUND BELOW THIS VALUE FOR TWO CYCLES (I.E., FOUR SECONDS) AS DETERMINED BY DVCNTR,
000062:                                                                                                  #  A JOB IS SCHEDULED TO BRANCH TO THE LOCATION SPECIFIED BY DVMNEXIT, PREVIOUSLY SET BY THE USERS PROGRAM.
000063:                                                                                                  #  DVSELECT IS ALTERED TO BYPASS PGNCSMON, AND CONTROL IS TRANSFERRED TO AVERAGE G.
000064:
000065:                                                                                                  #      THE AVERAGE G ROUTINE UPDATES RN, VN, AND GDT/2 VECTORS, USING THE SUBROUTINE CALCRVG.  THE NORMAL EXIT IS
000066:                                                                                                  #  THROUGH AVEGEXIT, WHICH MUST PREVIOUSLY HAVE BEEN SET BY THE USER.  THE  FINAL EXIT, SET INTO AVEGEXIT BY
000067:                                                                                                  #  READACCS WHEN IT  FINDS THE AVERAGE G FLAG DOWN, SETS UP FREE FALL GYRO COMPENSATION, SETS THE DRIFT FLAG ON,
000068:                                                                                                  #  PERFORMS AVETOMID ROUTINE, AND TRANSFERS CONTROL TO POOH, THUS CLEARING  ALL ACTIVITY UNTIL A NEW MISSION
000069:                                                                                                  #  PHASE IS DUE.
000070:
000071:
000072:                                                                                                  #  ***** WARNING TO USERS *****
000073:
000074:                                                                                                  #  THE USER MUST SET DVMNEXIT TO THE 2CADR OF A JOB TO BE PERFORMED WHEN ENGINE SHUTDOWN IS DETECTED BY SERVICER.
000075:                                                                                                  #  IN GENERAL, THE AVERAGE G FLAG WILL BE TURNED OFF BY THE USER AT THAT TIME, ALLOWING JUST ONE MORE PASS THROUGH
000076:                                                                                                  #  AVERAGE G.  ALL ACTIVITY OF THE USERS MISSION PHASE MUST HAVE BEEN COMPLETED BEFORE THIS LAST PASS THROUGH
000077:                                                                                                  #  AVERAGE G, DUE TO THE PERFORMANCE OF POOH AS DESCRIBED ABOVE.
000078:
000079:                                                                                                  #      AVGEXIT MUST BE SET BY THE USER TO THE 2CADR OF THE JOB (E.G., STEERING) TO BE PERFORMED AFTER EACH PASS


000081:                                                                                                  #  THROUGH AVERAGE G.  IF NO OTHER JOB IS TO BE DONE, AVEGEXIT SHOULD BE SET TO SERVEXIT.
000082:
000083:
000084:                                                                                                  #      USER MUST INITIALIZE DVSELECT TO THE GENADR OF AVERAGE G UNLESS THE ENGINEON ROUTINE HAS BEEN PERFORMED
000085:                                                                                                  #  BEFORE THE START OF SERVICER.
000086:
000087:                                                                                                  #      USERS (EXCEPT FOR BOOST PHASE) MUST PERFORM MTDTOAVE ROUTINE BEFORE STARTING PREREAD.
000088:
000089:
000090:
000091:                                                                                                  #  CALLING SEQUENCE IS NORMAL WAITLIST CALL FOR PREREAD.  (READACCS WILL START TWO SECONDS LATER.)
000092:


000094:                                                                                                  #  SUBROUTINES CALLED
000095:
000096:                                                                                                  #  LASTBIAS  PIPASR  FLAG1UP  FLAG2DWN  NORMLIZE  READACCS  SERVICER  1/PIPA  MASSMON  AVERAGE G  CALCRVG
000097:                                                                                                  #  PHASCHNG  AVETOMID  POOH
000098:
000099:
000100:
000101:                                                                                                  #  NORMAL EXIT MODES .. AVEGEXIT, DVMNEXIT, TASKOVER, ENDOFJOB.
000102:
000103:
000104:                                                                                                  #  ALARM CODE 205 GIVEN IF RUNAWAY PIP.  PROGRAM THEN CONTINUES IN NORMAL SEQUENCE.
000105:
000106:
000107:
000108:                                                                                                  #      ERASABLE INITIALIZATION REQUIRED
000109:
000110:                                                                                                  #                 MASS .. INITIALIZED IN ERASABLE LOAD
000111:                                                                                                  #                 RAVEGON AND VAVEGON .. INITIALIZED IN ERASABLE LOAD - UPDATED BEFORE EACH CALL FOR PREREAD.
000112:
000113:
000114:
000115:                                                                                                  #  OUTPUT
000116:
000117:                                                                                                  #  DELV(6)  RN(6)  VN(6)  GDT/2(6)  CDUTEMP(6)  MASS(2)  DELAREA(2)  PIPTIME(2)  OLDBT1(1)
000118:
000119:
000120:
000121:                                                                                                  #  DEBRIS
000122:
000123:                                                                                                  #       CENTRALS ... A, L, Q
000124:
000125:                                                                                                  #       OTHER .... DVCNTR, ITEMP1, ITEMP2, RN1(6), VN1(6), GDT1/2(6), DAREATMP(2), MASSTEMP(2), PIPAGE, TEMX,
000126:
000127:                                                                                                  #                  TEMY, TEMZ, TEMXY, PIPCTR
000128:
000129:
000130:                                                                                                  #      *** THRUST MISSION CONTROL IS RESTART PROTECTED AND USES RESTART GROUP 5. ***
000131:
000132:
000133:
000134: 30,2000                                           BANK     30
000135: 30,2000  E5,1511                                  EBANK=   DVCNTR
000136:                                                                                                  #  *************************************   PREREAD   **************************************************************
000137:
000138: 30,2000           04147        PREREAD            TC       PHASCHNG
000139: 30,2001           07015                           OCT      07015
000140: 30,2002           77777                           OCT      77777
000141:
000142: 30,2003  E5,1511                                  EBANK=   DVCNTR


000144: 30,2003           02011 60065                     2CADR    BIBIBIAS                              #  SKIP LASTBIAS AFTER RESTART
000145:
000146:
000147: 30,2005           35671                           CAF      PRIO32
000148: 30,2006           05523                           TC       NOVAC
000149: 30,2007  E3,1444                                  EBANK=   NBDX
000150: 30,2007           03571 24003                     2CADR    LASTBIAS                              #  DO LAST GYRO COMPENSATION IN FREE FALL
000151:
000152: 30,2011           00006        BIBIBIAS           EXTEND
000153: 30,2012           32106                           DCA      PIP2CADR                              #  CLEAR + READ PIPS LAST TIME IN FREE FALL
000154: 30,2013           52006                           DXCH     Z
000155:
000156: 30,2014           06020                           TC       FLAG1UP                               #  SET AVEG FLAG
000157: 30,2015           00001                           OCT      1
000158:
000159:
000160: 30,2016           06045                           TC       FLAG2DWN                              #  KNOCK DOWN DRIFT FLAG
000161: 30,2017           40000                           OCT      40000
000162:
000163: 30,2020           37755                           CAF      ONE                                   #  INITIALIZE DV MONITOR
000164: 30,2021           55511                           TS       DVCNTR
000165: 30,2022           37743                           CAF      EBANK4
000166: 30,2023           54003                           TS       EBANK
000167: 30,2024  E4,1640                                  EBANK=   AXIS                                  #  CORCT IS DEAD, LONG LIVE AXIS
000168:
000169: 30,2024           37740                           CAF      BIT14                                 #  INITIALIZE AXIS TO (0.5,0,0)
000170: 30,2025           55640                           TS       AXIS                                  #  FOR FINDCDUD
000171: 30,2026           37761                           CAF      ZERO
000172: 30,2027           55641                           TS       AXIS       +1
000173: 30,2030           55642                           TS       AXIS       +2
000174: 30,2031           55643                           TS       AXIS       +3
000175: 30,2032           55644                           TS       AXIS       +4
000176: 30,2033           55645                           TS       AXIS       +5
000177:
000178: 30,2034           35662                           CAF      PRIO21                                #  SET UP TO DO NORMLIZE REQUIRED PRIOR
000179: 30,2035           05534                           TC       FINDVAC                               #  TO FIRST ENTRY TO AVERAGE G.
000180: 30,2036  E4,1514                                  EBANK=   RAVEGON
000181: 30,2036           02317 60064                     2CADR    NORMLIZE
000182:
000183:
000184: 30,2040           32154                           CAF      200DEC
000185: 30,2041           05701                           TC       WAITLIST
000186: 30,2042  E5,1511                                  EBANK=   DVCNTR
000187: 30,2042           02047 60065                     2CADR    READACCS
000188:
000189: 30,2044           04147                           TC       PHASCHNG
000190: 30,2045           40025                           OCT      40025
000191:
000192: 30,2046           15745                           TCF      TASKOVER
000193:


000195:                                                                                                  #  *************************************   READACCS   *************************************************************
000196: 30,2047  E5,1537                                  EBANK=   NEGXDV
000197: 30,2047           00006        READACCS           EXTEND
000198: 30,2050           32106                           DCA      PIP2CADR
000199: 30,2051           52006                           DXCH     Z                                     #  CALL PIPASR
000200: 30,2052           11110                           CCS      PHASE5                                #  LAST PASS CHECK
000201:
000202: 30,2053           12055                           TCF      +2
000203: 30,2054           15745                           TCF      TASKOVER
000204: 30,2055           41110                           CS       PHASE5                                #  THESE 4 INSTRUCTIONS ONLY IN FOR
000205: 30,2056           67760                           AD       FIVE                                  #  FAKESTART.  REMOVE IF REAL RESTARTS
000206: 30,2057           00006                           EXTEND                                         #  RETURN.
000207: 30,2060           15745                           BZF      TASKOVER
000208:
000209: 30,2061           04147        PIPSDONE           TC       PHASCHNG
000210: 30,2062           05015                           OCT      05015
000211: 30,2063           77777                           OCT      77777
000212:
000213: 30,2064           37754                           CAF      TWO                                   #  SHOW PIPS HAVE BEEN READ FOR REREADAC
000214:
000215: 30,2065           55160                           TS       PIPAGE
000216:
000217: 30,2066           40075        CHEKAVEG           CS       FLAGWRD1
000218: 30,2067           77755                           MASK     BIT1
000219: 30,2070           10000                           CCS      A                                     #  IF AVEG FLAG DOWN SET FINAL EXIT AVEG
000220: 30,2071           02107                           TC       AVEGOUT
000221:
000222: 30,2072           32154                           CAF      200DEC                                #  READ PIPS AT 2 SECOND INTERVALS
000223: 30,2073           05701                           TC       WAITLIST
000224: 30,2074  E5,1570                                  EBANK=   BMEMORY
000225:
000226: 30,2074           02047 60065                     2CADR    READACCS
000227:
000228: 30,2076           37740        MAKESERV           CAF      PRIO20                                #  ESTABLISH SERVICER ROUTINE
000229: 30,2077           05534                           TC       FINDVAC
000230: 30,2100  E5,1570                                  EBANK=   BMEMORY
000231: 30,2100           02115 60065                     2CADR    SERVICER
000232:
000233: 30,2102           04147                           TC       PHASCHNG                              #  RESTART SERVICER AND READACCS
000234: 30,2103           40065                           OCT      40065                                 #  SEE RESTART TABLES
000235:
000236: 30,2104           15745                           TCF      TASKOVER                              #  END PREVIOUS READACCS WAITLIST TASK
000237:
000238:
000239: 30,2105  E5,1570                                  EBANK=   BMEMORY
000240: 30,2105           02506 60065  PIP2CADR           2CADR    PIPASR
000241:
000242: 30,2107           00006        AVEGOUT            EXTEND
000243: 30,2110           32114                           DCA      AVOUTCAD
000244: 30,2111           53073                           DXCH     AVGEXIT
000245: 30,2112           12076                           TCF      MAKESERV
000246:
000247: 30,2113  E5,1570                                  EBANK=   BMEMORY
000248: 30,2113           02274 60065  AVOUTCAD           2CADR    AVGEND
000249:


000251:                                                                                                  #  *************************************   SERVICER   *************************************************************
000252:                                                                                                  #
000253:
000254:
000255:                                                                                                  #  DO SAVEM AND RESTOREM LATER IF NORMAL RESTARTS SHOULD EVER RETURN
000256:
000257: 30,2115           37754        SERVICER           CAF      TWO
000258: 30,2116           55512        PIPCHECK           TS       PIPCTR
000259:
000260: 30,2117           60000                           DOUBLE
000261: 30,2120           50000                           INDEX    A
000262: 30,2121           10403                           CCS      DELVX
000263: 30,2122           02124                           TC       +2
000264:
000265: 30,2123           02132                           TC       PIPLOOP
000266:
000267: 30,2124           62152                           AD       -MAXDELV                              #  DO PIPA-SATURATION TEST BEFORE
000268: 30,2125           00006                           EXTEND
000269: 30,2126           62132                           BZMF     PIPLOOP                               #  COMPENSATION.
000270:
000271: 30,2127           04744                           TC       ALARM
000272: 30,2130           00205                           OCT      00205                                 #  SATURATED-PIPA ALARM
000273: 30,2131           02233                           TC       AVERAGEG
000274:
000275: 30,2132           11512        PIPLOOP            CCS      PIPCTR
000276: 30,2133           12116                           TCF      PIPCHECK
000277:
000278:
000279: 30,2134           04147                           TC       PHASCHNG                              #  RESTART REREADAC + SERVICER
000280: 30,2135           16035                           OCT      16035
000281: 30,2136           20000                           OCT      20000
000282: 30,2137  E5,1570                                  EBANK=   BMEMORY
000283: 30,2137           02143 60065                     2CADR    GOMASS
000284:
000285: 30,2141           05224                           TC       BANKCALL                              #  PIPA COMPENSATION CALL
000286: 30,2142           25220                           CADR     1/PIPA
000287:
000288: 30,2143           06103        GOMASS             TC       INTPRET
000289: 30,2144           51575                           VLOAD    ABVAL
000290: 30,2145           00404                                    DELV
000291: 30,2146           36535                           STCALL   ABDELV
000292: 30,2147           61146                                    MASSMON
000293:
000294: 30,2150           77776                           EXIT
000295: 30,2151           01322                           TC       DVSELECT
000296: 30,2152  30,2233               AGSMON             EQUALS   AVERAGEG
000297:
000298: 30,2152           63401        -MAXDELV           DEC      -6398      B-14                       #  3200 PULSES/SEC FOR 2 SEC.  CCS TAKES 1.
000299: 30,2153           00132        PLUSXDVA           DEC      90         B-14                       #  90 CM/SEC = ASCENT THRESHOLD
000300: 30,2154           00310        200DEC             DEC      200        B-14
000301:
000302:
000303: 30,2155           00062        PLUSXDVD           DEC      50         B-14                       #  50 CM/SEC = DESCENT THRESHOLD
000304: 30,2156           37754        PGNCSMON           CAF      BIT2                                  #  CHECK CHANNEL 30 TO SEE IF STAGING HAS


000306: 30,2157           00006                           EXTEND                                         #  OCCURRED.  IF BIT2 IS ON WE ARE UNSTAGED
000307: 30,2160           02030                           RAND     30                                    #  AND DESCENT PLUSXDV IS USED -- OTHERWISE
000308: 30,2161           50000                           INDEX    A                                     #  THE ASCENT PLUSXDV IS EMPLOYED.
000309: 30,2162           42153                           CS       PLUSXDVA
000310: 30,2163           61534                           AD       ABDELV                                #  ACCELERATION
000311: 30,2164           00006                           EXTEND
000312: 30,2165           62171                           BZMF     THRUSTLO
000313:
000314:
000315: 30,2166           37755        RESETDV            CAF      ONE
000316: 30,2167           55511                           TS       DVCNTR                                #  THRUST OK. RESET DV MONITOR AND
000317: 30,2170           12233                           TCF      AVERAGEG                              #  BRANCH TO AVERAGEG
000318:
000319: 30,2171           31511        THRUSTLO           CA       DVCNTR
000320: 30,2172           00006                           EXTEND
000321: 30,2173           62203                           BZMF     NODV
000322: 30,2174           04147                           TC       PHASCHNG
000323: 30,2175           12035                           OCT      12035
000324: 30,2176  E5,1511                                  EBANK=   DVCNTR
000325:
000326: 30,2176           02233 60065                     2CADR    AVERAGEG
000327:
000328: 30,2200           00006                           EXTEND
000329: 30,2201           27511                           DIM      DVCNTR
000330: 30,2202           12233                           TCF      AVERAGEG
000331:
000332: 30,2203           35226        NODV               CAF      PRIO30                                #  SET UP HIGH PRIO FINDVAC TO DVEXIT
000333: 30,2204           00004                           INHINT
000334: 30,2205           05534                           TC       FINDVAC
000335: 30,2206  E5,1511                                  EBANK=   DVCNTR
000336: 30,2206           02211 60065                     2CADR    DVEXIT
000337:
000338:
000339: 30,2210           12225                           TCF      DVMNKILL   -1                         #  AND REMOVE DV MONITOR
000340:
000341: 30,2211           00006        DVEXIT             EXTEND                                         #  BRANCH TO SELECTED LOCATION
000342: 30,2212           31075                           DCA      DVMNEXIT
000343: 30,2213           52006                           DXCH     Z
000344:
000345: 30,2214           41534        BOOSTMON           CS       ABDELV                                #  COMPARE ABDELV TO THRSHLD+ TO DETECT
000346: 30,2215           62231                           AD       THRSHLD+                              #  BOOSTER SHUTDOWN
000347: 30,2216           00006                           EXTEND
000348: 30,2217           62166                           BZMF     RESETDV
000349:
000350: 30,2220           00004                           INHINT                                         #  SHUTDOWN HAS OCCURRED
000351: 30,2221           37740                           CAF      PRIO20
000352: 30,2222           05523                           TC       NOVAC                                 #  SET UP MISSION PHASE 6 JOB
000353: 30,2223  E5,1570                                  EBANK=   BMEMORY
000354: 30,2223           02463 56005                     2CADR    MP6JOB                                #  NO VAC AREA NEEDED
000355:
000356: 30,2225           00003                 -1        RELINT
000357: 30,2226           32230        DVMNKILL           CAF      AVEGADDR                              #  REMOVE DV MONITOR FROM SERVICER
000358: 30,2227           55322                           TS       DVSELECT
000359:


000361: 30,2230           02233        AVEGADDR           TC       AVERAGEG
000362:
000363: 30,2231           00000 00000  THRSHLD+           2DEC     0.                                    #  TEMPORARY **************** PLEASE PATCH
000364:
000365:
000366:                                                                                                  #  *********************************   FLAG SUBROUTINES   *********************************************************
000367:
000368:    6020                                           BLOCK    03
000369:                                                                                                  #     THE FLAG SUBROUTINES ARE USED TO SET OR RESET FLAGS (BITS) IN FLAGWRD1 AND FLAGWRD2. THE BIT(S) TO BE SET OR
000370:                                                                                                  #  RESET IS(ARE) INDICATED BY THE OCTAL NUMBER FOLLOWING THE TC CALL. THE CALLING SEQUENCES ARE -
000371:
000372:                                                                                                  #                                                   TC     FLAG1UP         SET BIT(S) IN FLAGWRD1 CORRESPONDING TO
000373:
000374:                                                                                                  #                                                   OCT    XXXXX           THE 1 BITS IN NUMBER XXXXX.
000375:
000376:                                                                                                  #                                                   TC     FLAG1DWN        RESET BIT(S) IN FLAGWRD1 CORRESPONDING
000377:                                                                                                  #                                                   OCT    XXXXX           TO THE 1 BITS IN NUMBER XXXXX.
000378:
000379:                                                                                                  #  THE CALLING SEQUENCES FOR FLAGWRD2 ARE SIMILAR.
000380:
000381:                                                                                                  #     NOTE THAT FLAGWRD1 AND FLAGWRD2 CORRESPOND TO INTERPRETIVE SWITCHES 15D THROUGH 44D.
000382:
000383:                                                                                                  #           FLAGWORD BITS ARE DEFINED IN LOG SECTION "ERASABLE ASSIGNMENTS"
000384:
000385:    6020           00004        FLAG1UP            INHINT                                         #  SET FLAG 1 SUBROUTINE
000386:    6021           40075                           CS       FLAGWRD1
000387:    6022           50002                           INDEX    Q
000388:    6023           70000                           MASK     0
000389:    6024           26075                           ADS      FLAGWRD1
000390:
000391:    6025           00003                           RELINT
000392:    6026           17006                           TCF      Q+1
000393:
000394:    6027           00004        FLAG2UP            INHINT                                         #  SET FLAG 2 SUBROUTINE
000395:    6030           40076                           CS       FLAGWRD2
000396:    6031           50002                           INDEX    Q
000397:
000398:    6032           70000                           MASK     0
000399:    6033           26076                           ADS      FLAGWRD2
000400:
000401:    6034           00003                           RELINT
000402:    6035           17006                           TCF      Q+1
000403:
000404:    6036           50002        FLAG1DWN           INDEX    Q                                     #  RESET FLAG 1 SUBROUTINE
000405:    6037           40000                           CS       0
000406:    6040           00004                           INHINT
000407:    6041           70075                           MASK     FLAGWRD1
000408:
000409:    6042           54075                           TS       FLAGWRD1
000410:    6043           00003                           RELINT
000411:    6044           17006                           TCF      Q+1
000412:


000414:    6045           50002        FLAG2DWN           INDEX    Q                                     #  RESET FLAG 2 SUBROUTINE
000415:    6046           40000                           CS       0
000416:    6047           00004                           INHINT
000417:    6050           70076                           MASK     FLAGWRD2
000418:    6051           54076                           TS       FLAGWRD2
000419:    6052           00003                           RELINT
000420:
000421:    6053           17006                           TCF      Q+1
000422:
000423:    6054  E4,1566                                  EBANK=   TDEC
000424:                                                                                                  #  ******************************************ENGINE ON-OFF ROUTINES**********************************************
000425:
000426:                                                                                                  #  ALL BLOCK 2 COMPUTERS HAVE THE ENGINE-ON AND ENGINE-OFF DISCRETES IN BITS 13 AND 14 RESPECTIVELY OF CHANNEL 11.
000427:                                                                                                  #  IF LEM DESCENT ENGINE SEES A 1,1 CONDITION (BOTH OUTPUT TRANSISTORS CONDUCTING) OR A 0,0 CONDITION (BOTH OUTPUT
000428:                                                                                                  #  TRANSISTORS NON-CONDUCTING) THEY WILL IGNORE THE SIGNAL AND REMAIN IN THE STATE THEY WERE PREVIOUSLY IN. THIS
000429:                                                                                                  #  ALLOWS THE COMPUTER TO ZERO ALL THE OUTPUT BITS DURING A RESTART AND NOT SHUT THE ENGINE OFF. THERE IS NO TIME
000430:                                                                                                  #  LIMIT AS TO HOW LONG AN IMPROPER STATE (1,1) OR (0,0) CAN LAST WITH DESCENT ENGINE.
000431:
000432:                                                                                                  #  THE LEM ASCENT ENGINE WILL BE TURNED ON BY AN ERRONEOUS 1,1 CONDITION WHICH LASTS LONGER THAN 1 MILLISECOND,
000433:
000434:                                                                                                  #  THEREFORE THE LGC MUST BE PROGRAMMED TO SET THE BITS TO THE PROPER STATE WITHIN 0.5 MILLISECOND FOLLOWING
000435:                                                                                                  #  RECOVERY FROM A RESTART
000436:
000437:                                                                                                  #  ENGINE ON AND OFF COMMANDS ARE NOTED IN THE EVENT REGISTERS FOR
000438:                                                                                                  #  DOWNLINK.  IF IT IS DESIRED TO SIMPLY ENSURE ENGINE OFF PRIOR TO AN
000439:                                                                                                  #  ENGINE ARM COMMAND, ENGINEOF1 SHOULD BE USED SO THAT EVENT IS NOT
000440:                                                                                                  #  ENTERED IN DOWNLINK.
000441:
000442:    6054           00006        ENGINEON           EXTEND
000443:    6055           30025                           DCA      TIME2                                 #  ENG ON EVENT NOTED IN DOWNLINK
000444:
000445:    6056           53724                           DXCH     TEVENT
000446:
000447:    6057           36070                           CA       PGNSCADR                              #  SET DVMONITOR TO EXPECT THRUST
000448:    6060           55322                           TS       DVSELECT
000449:
000450:    6061           45226                           CS       PRIO30                                #  ENGINE ON BIT13.  ENGINE OFF BIT14
000451:    6062           00006                           EXTEND
000452:    6063           02011                           RAND     11
000453:    6064           67741                           AD       BIT13
000454:    6065           00006                           EXTEND
000455:    6066           01011                           WRITE    11
000456:    6067           00002                           TC       Q
000457:
000458:
000459:
000460:
000461:    6070           02156        PGNSCADR           GENADR   PGNCSMON
000462:
000463:    6071           00006        ENGINOFF           EXTEND
000464:    6072           30025                           DCA      TIME2                                 #  NOTE ENGINE OFF EVENT TO DOWNLINK
000465:    6073           53724                           DXCH     TEVENT
000466:
000467:    6074           45226        ENGINOF1           CS       PRIOR30                               #  NO DWNLINK HERE


000469:    6075           00006                           EXTEND
000470:    6076           02011                           RAND     11
000471:
000472:    6077           67740                           AD       BIT14
000473:    6100           00006                           EXTEND
000474:    6101           01011                           WRITE    11
000475:    6102           00002                           TC       Q                                     #  RETURN
000476:
000477:    6103     5226               PRIOR30            EQUALS   PRIO30
000478:
000479:    6103     1154               QTEMP              EQUALS   TEMX
000480:
000481: 30,2233                                           BANK     30
000482:
000483:
000484:
000485:
000486:
000487: 30,2233  E5,1506                                  EBANK=   DVTOTAL
000488: 30,2233           06103        AVERAGEG           TC       INTPRET
000489: 30,2234           77624                           CALL
000490: 30,2235           61077                                    CALCRVG
000491: 30,2236           77776                           EXIT
000492:
000493: 30,2237           04147                           TC       PHASCHNG
000494: 30,2240           10035                           OCT      10035
000495:
000496: 30,2241           00004        COPYCYCL           INHINT
000497: 30,2242           37752                           CAF      EIGHT
000498: 30,2243           54061                           TS       ITEMP1
000499: 30,2244           60000                           DOUBLE
000500: 30,2245           54062                           TS       ITEMP2
000501: 30,2246           00006                           EXTEND
000502: 30,2247           50062                           INDEX    ITEMP2
000503: 30,2250           31051                           DCA      RN1
000504: 30,2251           50062                           INDEX    ITEMP2
000505:
000506: 30,2252           53011                           DXCH     RN
000507: 30,2253           10061                           CCS      ITEMP1
000508: 30,2254           12243                           TCF      COPYCYCL   +2
000509: 30,2255           00006                           EXTEND
000510: 30,2256           31560                           DCA      DAREATMP
000511: 30,2257           53552                           DXCH     DELAREA
000512: 30,2260           00006                           EXTEND
000513: 30,2261           31562                           DCA      MASSTEMP
000514: 30,2262           53333                           DXCH     MASS
000515: 30,2263           00006                           EXTEND
000516: 30,2264           31321                           DCA      PIPTIME
000517: 30,2265           53341                           DXCH     STATIME                               #  STATE VECTOR TIME FOR DWNLINK
000518:
000519: 30,2266           00003                           RELINT
000520:
000521: 30,2267           04147                           TC       PHASCHNG
000522: 30,2270           10035                           OCT      10035
000523:


000525: 30,2271           00006                           EXTEND
000526: 30,2272           31073                           DCA      AVGEXIT
000527: 30,2273           52006                           DXCH     Z                                     #  AVERAGEG EXIT
000528:
000529: 30,2274           31321        AVGEND             CA       PIPTIME    +1                         #  FINAL AVERAGE G EXIT
000530: 30,2275           55163                           TS       OLDBT1                                #  SET UP FREE FALL GYRO COMPENSATION
000531:
000532: 30,2276           06027                           TC       FLAG2UP                               #  SET DRIFT FLAG
000533:
000534: 30,2277           40000                           OCT      40000
000535:
000536: 30,2300           00006                           EXTEND
000537: 30,2301           32316                           DCA      AVEMIDAD                              #  TRANSFER STATE VECTOR VIA AVETOMID
000538: 30,2302           52006                           DXCH     Z
000539:
000540: 30,2303           04147                           TC       PHASCHNG
000541: 30,2304           00055                           OCT      55                                    #  *** MEANS INACTIVE ONLY FOR FAKESTRT
000542:
000543: 30,2305           47753                           CS       FOUR
000544:
000545: 30,2306           60765                           AD       PHASENUM
000546: 30,2307           00006                           EXTEND
000547: 30,2310           15605                           BZF      ENDOFJOB
000548:
000549: 30,2311           14261                           TCF      POOH
000550:
000551: 30,2312           04147        SERVEXIT           TC       PHASCHNG
000552: 30,2313           00035                           OCT      00035
000553:
000554: 30,2314           15605                           TCF      ENDOFJOB
000555:
000556: 30,2315  E4,1630                                  EBANK=   AVMIDRTN
000557:
000558: 30,2315           02073 16004  AVEMIDAD           2CADR    AVETOMID
000559:


000561:                                                                                                  #     NORMLIZE PERFORMS THE INITIALIZATION REQUIRED PRIOR TO THE FIRST ENTRY TO AVERAGEG, AND SCALES RN SO THAT IT
000562:
000563:                                                                                                  #  HAS 1 LEADING BINARY ZERO. IN MOST MISSIONS, RN WILL BE SCALED AT 2(+29), BUT IN THE 206 MISSION, RN WILL BE
000564:                                                                                                  #  SCALED AT 2(+24)M.  TIME OF RN,VN IS IN STATIME FOR DWNLINK
000565:
000566:
000567: 30,2317  E4,1514                                  EBANK=   RAVEGON
000568: 30,2317           00004        NORMLIZE           INHINT
000569: 30,2320  E4,1566                                  EBANK=   TDEC
000570: 30,2320           37743                           CAF      EBANK4
000571: 30,2321           56003                           XCH      EBANK
000572: 30,2322           54071                           TS       RUPTREG2
000573: 30,2323           37756                           CAF      ELEVEN                                #  INITIALIZE INDEX-DEC 11
000574:
000575: 30,2324           54070                           TS       RUPTREG1
000576: 30,2325           50070                           INDEX    RUPTREG1
000577: 30,2326           31514                           CA       RAVEGON
000578: 30,2327           50070                           INDEX    RUPTREG1
000579: 30,2330           55010                           TS       RN                                    #  STORE RN, VN
000580: 30,2331           10070                           CCS      RUPTREG1
000581: 30,2332           12321                           TCF      NORMLIZE   +2
000582: 30,2333           00006                           EXTEND
000583: 30,2334           31511                           DCA      TAVEGON
000584: 30,2335           53341                           DXCH     STATIME                               #  STATE TIME FOR DWNLINK
000585:
000586: 30,2336           30071                           CA       RUPTREG2
000587: 30,2337           54003                           TS       EBANK
000588: 30,2340           00003                           RELINT
000589: 30,2341           06103                           TC       INTPRET
000590: 30,2342           77624                           CALL
000591: 30,2343           61043                                    CALCGRAV                              #  INITIALIZE UNITR RMAG GDT1
000592: 30,2344           01025                           STORE    GDT/2
000593:
000594: 30,2345           77776                           EXIT
000595: 30,2346           15605                           TCF      ENDOFJOB
000596:


000598:                                                                                                  #     VPATCHER IS AN ADAPTATION OF NORMLIZE WHICH IS CALLED AFTER MIDTOAVE HAS BEEN PERFORMED AND PRIOR TO
000599:                                                                                                  #  PREBURN PROGRAMS THAT REQUIRE IGNITION STATE POSITION, VELOCITY, AND GRAVITY VECTORS IN REGISTERS RN,VN, AND
000600:                                                                                                  #  GDT/2.  THE REGISTERS ARE RE-INITIALIZED BY NORMLIZE WHEN PREREAD CALLEDRED BY NORMLIZE WHEN PREREAD IS CALLED
000601:
000602:
000603:                                                                                                  #  NAME=               DATE=
000604:                                                                                                  #     VPATCHER            20 OCTOBER 1966
000605:                                                                                                  #  PROGRAMMER          SUBROUTINES CALLED
000606:                                                                                                  #     SCHULENBERG         CALCGRAV
000607:
000608:                                                                                                  #  CALLING SEQUENCE
000609:                                                                                                  #     IF IN BASIC   L-1 TC      INTPRET
000610:                                                                                                  #                   L   CALL    VPATCHER
000611:                                                                                                  #                   L+1 EXIT
000612:                                                                                                  #  NORMAL EXIT
000613:                                                                                                  #     AT L+1 OF CALLING SEQUENCE
000614:                                                                                                  #  DEBRIS
000615:                                                                                                  #     RN, VN, GDT/2, UNITR, RMAG
000616:
000617:                                                                                                  #  OUTPUT
000618:                                                                                                  #     RIGNITION IN RN*2(+24)M
000619:                                                                                                  #     VIGNITION IN VN*2(+7)M/CS
000620:                                                                                                  #     GDT/2 AT IGNITION IN GDT/2*2(+7)M/CS
000621:                                                                                                  #     UNIT RIGNITION IN UNITR *2(+1)M
000622:                                                                                                  #     RMAG AT 2(+24)M
000623:
000624: 30,2347           77620        VPATCHER           STQ
000625: 30,2350           01154                                    QTEMP
000626: 30,2351           77776                           EXIT
000627: 30,2352           00004                           INHINT
000628: 30,2353  E4,1566                                  EBANK=   TDEC
000629: 30,2353           37743                           CAF      EBANK4
000630: 30,2354           56003                           XCH      EBANK
000631: 30,2355           54071                           TS       RUPTREG2
000632: 30,2356           37756                           CAF      ELEVEN                                #  INITIALIZE INDEX TO DEC 11
000633: 30,2357           54070        VPATLOOP           TS       RUPTREG1
000634: 30,2360           50070                           INDEX    RUPTREG1
000635: 30,2361           31400                           CA       RIGNTION
000636: 30,2362           50070                           INDEX    RUPTREG1
000637: 30,2363           55010                           TS       RN                                    #  STORE RN,VN
000638:
000639: 30,2364           10070                           CCS      RUPTREG1
000640: 30,2365           12357                           TCF      VPATLOOP
000641: 30,2366           00006                           EXTEND
000642: 30,2367           31670                           DCA      TIGN
000643: 30,2370           53341                           DXCH     STATIME                               #  STATE TIME FOR DWNLINK
000644: 30,2371           30071                           CA       RUPTREG2
000645: 30,2372           54003                           TS       EBANK
000646: 30,2373           00003                           RELINT
000647: 30,2374           06103                           TC       INTPRET


000649: 30,2375           77624                           CALL
000650: 30,2376           61043                                    CALCGRAV
000651:
000652: 30,2377           01025                           STORE    GDT/2
000653:
000654: 30,2400           77650                           GOTO
000655: 30,2401           01154                                    QTEMP

End of include-file THRUST_MISSION_CONTROL_PROGRAM_TJS.agc.  Parent file is MAIN.agc


