
Source Code


000002:                                                                                                  ## Copyright:   Public domain.
000003:                                                                                                  ## Filename:    THRUST_MAGNITUDE_FILTER.agc
000004:                                                                                                  ## Purpose:     A section of Sunburst revision 37, or Shepatin revision 0.
000005:                                                                                                  ##              It is part of an early development version of the software
000006:                                                                                                  ##              for Apollo Guidance Computer (AGC) on the unmanned Lunar
000007:                                                                                                  ##              Module (LM) flight Apollo 5. Sunburst 37 was the program
000008:                                                                                                  ##              upon which Don Eyles's offline development program Shepatin
000009:                                                                                                  ##              was based; the listing herein transcribed was actually for
000010:                                                                                                  ##              the equivalent revision 0 of Shepatin.
000011:                                                                                                  ##              This file is intended to be a faithful transcription, except
000012:                                                                                                  ##              that the code format has been changed to conform to the
000013:                                                                                                  ##              requirements of the yaYUL assembler rather than the
000014:                                                                                                  ##              original YUL assembler.
000015:                                                                                                  ## Reference:   pp. 862-863
000016:                                                                                                  ## Assembler:   yaYUL
000017:                                                                                                  ## Contact:     Ron Burkey <info@sandroid.org>.
000018:                                                                                                  ## Website:     www.ibiblio.org/apollo/index.html
000019:                                                                                                  ## Mod history: 2017-05-24 MAS  Created from Sunburst 120.
000020:                                                                                                  ##              2017-06-08 HG   Transcribed
000021:                                                                                                  ##              2017-06-23 RSB  Proofed comment text with
000022:                                                                                                  ##                              octopus/ProoferComments.
000023:


000025:                                                                                                  #  PROGRAM NAME - ATMAG
000026:
000027:                                                                                                  #  MODIFICATION BY - BERMAN AND CATTANACH
000028:
000029:                                                                                                  #  FUNCTIONAL DESCRIPTION -
000030:
000031:                                                                                                  #      THE THRUST MAGNITUDE FILTER CONVERTS ABDELV TO M/CS, INVERTS AND COMBINES IT WITH TWO PRECEDING
000032:                                                                                                  #  INPUTS TO PRODUCE THE INVERTED EXHAUST VELOCITY, BURN UP TIME, AND ANTICIPATED THRUST ACCELERATION FOR
000033:                                                                                                  #  THE NEXT TIME INCREMENT.  THRUST MAGNITUDE FILTER IS BYPASSED UNTIL AFTER THE MAIN ENGINE GOES ON.
000034:
000035:                                                                                                  #  CALLING SEQUENCE - ATMAG IS ENTERED BY EXTEND                AND        EXTEND
000036:                                                                                                  #                                        DCA     ATMAGAD                   DCA     ATMAG4
000037:                                                                                                  #                                        DXCH    AVGEXIT                   DXCH    AVGEXIT
000038:                                                                                                  #  NORMAL EXIT - FROM ATMAG BY GOTO
000039:
000040:                                                                                                  #                                    ASCENT
000041:
000042:                                                                                                  #  OUTPUT - INVERTED EXHAUST VELOCITY, BURN UP TIME, AND ANTICIPATED THRUST ACCELERATION
000043:
000044:                                                                                                  #  ERASABLE INITIALIZATION REQUIRED - THIS IS DONE BY PRE-APS PROGRAMS
000045:
000046:                                                                                                  #  DEBRIS - ABDVCONV, 1/DV1, 1/DV2, 1/VE, TBUP, AT.
000047:
000048:                                                                                                  #  ALARM OR ABORT EXIT MODES -
000049:
000050:                                                                                                  #  SUBROUTINES CALLED - NONE
000051:
000052: 32,2713                                           BANK     32
000053:
000054: 32,2713  E4,1452                                  EBANK=   TCO                                   #  EBANK4
000055:
000056: 32,2713           06103        ATMAG              TC       INTPRET
000057: 32,2714           45345                           DLOAD    DSU
000058: 32,2715           02165                                    ABDVCONV                              #  ABDVCONV (PIPA READING CONVERTED TO
000059: 32,2716           24766                                    DVMIN                                 #  M/CS) IS INVERTED AND SCALED AT 2**-5
000060: 32,2717           67240                           BMN      SLOAD                                 #  AS INPUT TO FILTER
000061: 32,2720           64762                                    FILTEND
000062: 32,2721           24765                                    BIT6H
000063:
000064: 32,2722           77471                           DDV      EXIT
000065: 32,2723           02165                                    ABDVCONV
000066:
000067: 32,2724           52145                           DXCH     MPAC
000068: 32,2725           53563                           DXCH     1/DV2
000069: 32,2726           53561                           DXCH     1/DV1
000070: 32,2727           52145                           DXCH     MPAC                                  #  MPAC=1/DV0*2**-5
000071:
000072: 32,2730           06103                           TC       INTPRET
000073: 32,2731           45206                           PUSH     DSU                                   #  PUSH DOWN 1/DVO                       2
000074:
000075: 32,2732           02163                                    1/DV2                                 #  MPAC = (1/DV0-1/DV2)*2**-5
000076: 32,2733           54206                           PUSH     SLR                                   #                                        4
000077: 32,2734           21211                                    8D                                    #  MPAC = (1/DV0-1/DV2)*2**3 = 1/VE*2**4
000078:


000080: 32,2735           16025                           STODL    1/VE                                  #  INVERTED EXHAUST VELOCITY              2
000081:
000082: 32,2736           43342                           SR1      DAD                                   #  MPAC = (1/DV0-1/DV2)*2**-6
000083: 32,2737           02161                                    1/DV1                                 #  MPAC = (1/DV0+2/DV1-1/DV2)*2**-6
000084: 32,2740           43362                           SR1R     DAD                                   #  MPAC = (5/DV0+2/DV1-1/DV2)*2**-7       0
000085: 32,2741           41205                           DMP      DMP
000086:
000087: 32,2742           24665                                    DP2/3H                                #  (5/6DV0+1/3DV1-1/6DV2)*2**-5
000088: 32,2743           24770                                    DTASC1                                #  MPAC = (1/DV3*2**-5) * (DELTAT*2**-8) =
000089:                                                                                                  #         DELTAT/DV3*2**-13
000090: 32,2744           77671                           DDV
000091: 32,2745           02025                                    1/VE                                  #  (TBUP/VE*2**-13)/(1/VE*2**4)=TBUP*2**-17
000092: 32,2746           16027                           STODL    TBUP                                  #  BURN UP TIME
000093:
000094: 32,2747           02161                                    1/DV1                                 #  MPAC = 2**-5/DV1
000095: 32,2750           45342                           SR1      DSU                                   #  MPAC = 2**-6/DV1
000096: 32,2751           00001                                    00D                                   #  MPAC = (-2/DV0+1/DV1)*2**-6
000097: 32,2752           43342                           SR1      DAD                                   #  MPAC = (-2/DV0+1/DV1)*2**-7
000098: 32,2753           02163                                    1/DV2                                 #  MPAC = (-2/DV0+1/DV1+4/DV2)*2**-7
000099:
000100: 32,2754           41205                           DMP      DMP                                   #  MPAC = (-2/3DV0+1/3DV1+4/3DV2)*2**-6 =
000101: 32,2755           24665                                    DP2/3H                                #         1/DV3*2**-6
000102: 32,2756           24770                                    DTASC1                                #  MPAC = (1/DV3*2**-6)*(DELTAT*2**-8) =
000103:                                                                                                  #  DELTA/DV3*2**-14 = 1/AT*2**-14
000104: 32,2757           77665                           BDDV
000105: 32,2760           35445                                    D1/32                                 #  MPAC = 2**-5/(1/AT*2**-14) = AT*2**9
000106: 32,2761           02023                           STORE    AT                                    #  ANTICIPATED THRUST ACCELERATION
000107:
000108: 32,2762           77650        FILTEND            GOTO
000109: 32,2763           64120                                    ASCENT
000110:
000111: 32,2764           00040        BIT6H              OCT      40
000112: 32,2765           00017 13412  DVMIN              2DEC     .03
000113: 32,2767           31000 00000  DTASC1             2DEC     200        B-28

End of include-file THRUST_MAGNITUDE_FILTER.agc.  Parent file is MAIN.agc


