
Source Code


000002:                                                                                                  ## Copyright:   Public domain.
000003:                                                                                                  ## Filename:    THRUST_MISSION_CONTROL_PROGRAM_TJS.agc
000004:                                                                                                  ## Purpose:     A section of Sunburst revision 37, or Shepatin revision 0.
000005:                                                                                                  ##              It is part of an early development version of the software
000006:                                                                                                  ##              for Apollo Guidance Computer (AGC) on the unmanned Lunar
000007:                                                                                                  ##              Module (LM) flight Apollo 5. Sunburst 37 was the program
000008:                                                                                                  ##              upon which Don Eyles's offline development program Shepatin
000009:                                                                                                  ##              was based; the listing herein transcribed was actually for
000010:                                                                                                  ##              the equivalent revision 0 of Shepatin.
000011:                                                                                                  ##              This file is intended to be a faithful transcription, except
000012:                                                                                                  ##              that the code format has been changed to conform to the
000013:                                                                                                  ##              requirements of the yaYUL assembler rather than the
000014:                                                                                                  ##              original YUL assembler.
000015:                                                                                                  ## Reference:   pp. 763-776
000016:                                                                                                  ## Assembler:   yaYUL
000017:                                                                                                  ## Contact:     Ron Burkey <info@sandroid.org>.
000018:                                                                                                  ## Website:     www.ibiblio.org/apollo/index.html
000019:                                                                                                  ## Mod history: 2017-05-24 MAS  Created from Sunburst 120.
000020:                                                                                                  ##              2017-06-03 MAS  Transcribed.
000021:                                                                                                  ##              2017-06-08 HG   Fix operand SETDVCNT -> DVSELECT
000022:                                                                                                  ##                              Remove non existent section


000024:                                                                                                  #  **SERVICER ROUTINES**
000025:
000026:                                                                                                  #        MOD NO. 00      MODIFICATION BY A. KOSMALA      NOV. 1966
000027:
000028:
000029:
000030:                                                                                                  #    *FUNCTIONAL DESCRIPTION*
000031:
000032:                                                                                                  #      THE THRUST MISSION CONGROL PROGRAM TJS IS USED BY ALL MISSION PHASES WHICH INCLUDE A BURN.
000033:
000034:                                                                                                  #      THE NORMAL ENTRY TO THE THRUST MISSION CONTROL PROGRAM IS THROUGH PREREAD.  PREREAD SCHEDULES THE JOB
000035:                                                                                                  #  LASTBIAS.  BOOST PHASE ENTERS THE PREREAD ROUTINE AT BIBIBIAS, BYPASSING THE LASTBIAS JOB.  PIPS ARE CLEARED,
000036:                                                                                                  #  AVERAGE G FLAG IS SET, DRIFT FLAG IS UNSET.  DV MONITOR AND FINDCUD ARE INITIALIZED, THE JOB NORMLIZE IS
000037:                                                                                                  #  SCHEDULED, AND A WAITLIST CALL IS MADE TO START READACCS IN TWO SECONDS.
000038:
000039:                                                                                                  #      NORMLIZE PERFORMS THE SCALING AND INITIALIZATION REQUIRED PRIOR TO THE FIRST ENTRY TO AVERAGE G.
000040:
000041:                                                                                                  #      IN THE READACCS SECTION, THE ACCELEROMETERS ARE READ BY THE PIPASR SUBROUTINE.  IF THE AVERAGE G FLAG IS
000042:                                                                                                  #  SET, READACCS IS CALLED TO RECYCLE IN TWO SECONDS.  IF THE AVERAGE G FLAG IS DOWN, AVERAGE G EXIT (AVEGEXIT)
000043:
000044:                                                                                                  #  IS SET FOR THE FINAL PASS, AND READACCS IS NOT CALLED AGAIN.  IN EITHER CASE, THE SERVICER JOB IS ESTABLISHED.
000045:
000046:                                                                                                  #      THE SERVICER ROUTINE CHECKS FOR RUNAWAY PIPS (DELV GREATER THAN 3200 PULSES/SEC FOR 2 SEC) AND SENDS
000047:                                                                                                  #  ALARM CODE 205 IF BAD PIP IS FOUND.  PIPS ARE COMPENSATED IN 1/PIPA SUBROUTINE, MASS IS UPDATED BY MASSMON
000048:                                                                                                  #  SUBROUTINE, AND CONTROL IS TRANSFERRED TO THE MONITOR SPECIFIED BY DVSELECT.   DVSELECT IS SET BY THE BOOST
000049:                                                                                                  #  PHASE TO BOOSTMON, AND BY THE ENGINEON ROUTINE TO PGNCSMON.  USERS STARTING SERVICER BEFORE THE ENGINE IS
000050:                                                                                                  #  TURNED ON SHOULD INSURE BYPASSING DVMON INITIALLY BY SETTING DVSELECT TO THE GENADR OF AVERAGE G.
000051:
000052:                                                                                                  #      THE BOOST MONITOR (BOOSTMON) CHECKS DELV AGAINST THRSHLD+, THE THRESHOLD ACCELERATION FOR THE BOOST PHASE.
000053:                                                                                                  #  IF DELV IS BELOW THRESHOLD, INDICATING TERMINATION OF BOOST, MISSION PHASE 6 IS SCHEDULED AS A JOB, DVSELECT
000054:
000055:                                                                                                  #  IS ALTERED TO BYPASS BOOSTMON AND PROCEED DIRECTLY TO AVERAGE G.
000056:
000057:                                                                                                  #      THE PGNCS MONITOR (PGNCSMON) COMPARES ACTUAL THRUST TO THE THRESHOLD VALUE FOR THE +X ACCELERATION
000058:                                                                                                  #  (100 CM/SEC).  IF THRUST IS FOUND BELOW THIS VALUE FOR TWO CYCLES (I.E., FOUR SECONDS) AS DETERMINED BY DVCNTR,
000059:                                                                                                  #  A JOB IS SCHEDULED TO BRANCH TO THE LOCATION SPECIFIED BY DVMNEXIT, PREVIOUSLY SET BY THE USERS PROGRAM.
000060:                                                                                                  #  DVSELECT IS ALTERED TO BYPASS PGNCSMON, AND CONTROL IS TRANSFERRED TO AVERAGE G.
000061:
000062:                                                                                                  #      THE AVERAGE G ROUTINE UPDATES RN, VN, AND GDT/2 VECTORS, USING THE SUBROUTINE CALCRVG.  THE NORMAL EXIT IS
000063:                                                                                                  #  THROUGH AVEGEXIT, WHICH MUST PREVIOUSLY HAVE BEEN SET BY THE USER.  THE  FINAL EXIT, SET INTO AVEGEXIT BY
000064:                                                                                                  #  READACCS WHEN IT  FINDS THE AVERAGE G FLAG DOWN, SETS UP FREE FALL GYRO COMPENSATION, SETS THE DRIFT FLAG ON,
000065:                                                                                                  #  PERFORMS AVETOMID ROUTINE, AND TRANSFERS CONTROL TO POOH, THUS CLEARING  ALL ACTIVITY UNTIL A NEW MISSION
000066:                                                                                                  #  PHASE IS DUE.
000067:
000068:
000069:                                                                                                  #  ***** WARNING TO USERS *****
000070:
000071:                                                                                                  #  THE USER MUST SET DVMNEXIT TO THE 2CADR OF A JOB TO BE PERFORMED WHEN ENGINE SHUTDOWN IS DETECTED BY SERVICER.
000072:                                                                                                  #  IN GENERAL, THE AVERAGE G FLAG WILL BE TURNED OFF BY THE USER AT THAT TIME, ALLOWING JUST ONE MORE PASS THROUGH
000073:                                                                                                  #  AVERAGE G.  ALL ACTIVITY OF THE USERS MISSION PHASE MUST HAVE BEEN COMPLETED BEFORE THIS LAST PASS THROUGH
000074:                                                                                                  #  AVERAGE G, DUE TO THE PERFORMANCE OF POOH AS DESCRIBED ABOVE.
000075:
000076:                                                                                                  #      AVGEXIT MUST BE SET BY THE USER TO THE 2CADR OF THE JOB (E.G., STEERING) TO BE PERFORMED AFTER EACH PASS


000078:                                                                                                  #  THROUGH AVERAGE G.  IF NO OTHER JOB IS TO BE DONE, AVEGEXIT SHOULD BE SET TO SERVEXIT.
000079:
000080:
000081:                                                                                                  #      USER MUST INITIALIZE DVSELECT TO THE GENADR OF AVERAGE G UNLESS THE ENGINEON ROUTINE HAS BEEN PERFORMED
000082:                                                                                                  #  BEFORE THE START OF SERVICER.
000083:
000084:                                                                                                  #      USERS (EXCEPT FOR BOOST PHASE) MUST PERFORM MTDTOAVE ROUTINE BEFORE STARTING PREREAD.
000085:
000086:
000087:
000088:                                                                                                  #  CALLING SEQUENCE IS NORMAL WAITLIST CALL FOR PREREAD.  (READACCS WILL START TWO SECONDS LATER.)
000089:


000091:                                                                                                  #  SUBROUTINES CALLED
000092:
000093:                                                                                                  #  LASTBIAS  PIPASR  FLAG1UP  FLAG2DWN  NORMLIZE  READACCS  SERVICER  1/PIPA  MASSMON  AVERAGE G  CALCRVG
000094:                                                                                                  #  PHASCHNG  AVETOMID  POOH
000095:
000096:
000097:
000098:                                                                                                  #  NORMAL EXIT MODES .. AVEGEXIT, DVMNEXIT, TASKOVER, ENDOFJOB.
000099:
000100:
000101:                                                                                                  #  ALARM CODE 205 GIVEN IF RUNAWAY PIP.  PROGRAM THEN CONTINUES IN NORMAL SEQUENCE.
000102:
000103:
000104:
000105:                                                                                                  #      ERASABLE INITIALIZATION REQUIRED
000106:
000107:                                                                                                  #                 MASS .. INITIALIZED IN ERASABLE LOAD
000108:                                                                                                  #                 RAVEGON AND VAVEGON .. INITIALIZED IN ERASABLE LOAD - UPDATED BEFORE EACH CALL FOR PREREAD.
000109:
000110:
000111:
000112:                                                                                                  #  OUTPUT
000113:
000114:                                                                                                  #  DELV(6)  RN(6)  VN(6)  GDT/2(6)  CDUTEMP(6)  MASS(2)  DELAREA(2)  PIPTIME(2)  OLDBT1(1)
000115:
000116:
000117:
000118:                                                                                                  #  DEBRIS
000119:
000120:                                                                                                  #       CENTRALS ... A, L, Q
000121:
000122:                                                                                                  #       OTHER .... DVCNTR, ITEMP1, ITEMP2, RN1(6), VN1(6), GDT1/2(6), DAREATMP(2), MASSTEMP(2), PIPAGE, TEMX,
000123:
000124:                                                                                                  #                  TEMY, TEMZ, TEMXY, PIPCTR
000125:
000126:
000127:                                                                                                  #      *** THRUST MISSION CONTROL IS RESTART PROTECTED AND USES RESTART GROUP 5. ***
000128:
000129:
000130:
000131: 30,2000                                           BANK     30
000132: 30,2000  E5,1511                                  EBANK=   DVCNTR
000133:                                                                                                  #  *************************************   PREREAD   **************************************************************
000134:
000135: 30,2000           04147        PREREAD            TC       PHASCHNG
000136: 30,2001           07015                           OCT      07015
000137: 30,2002           77777                           OCT      77777
000138:
000139: 30,2003  E5,1511                                  EBANK=   DVCNTR


000141: 30,2003           02011 60065                     2CADR    BIBIBIAS                              #  SKIP LASTBIAS AFTER RESTART
000142:
000143:
000144: 30,2005           35671                           CAF      PRIO32
000145: 30,2006           05523                           TC       NOVAC
000146: 30,2007  E3,1444                                  EBANK=   NBDX
000147: 30,2007           03571 24003                     2CADR    LASTBIAS                              #  DO LAST GYRO COMPENSATION IN FREE FALL
000148:
000149: 30,2011           00006        BIBIBIAS           EXTEND
000150: 30,2012           32106                           DCA      PIP2CADR                              #  CLEAR + READ PIPS LAST TIME IN FREE FALL
000151: 30,2013           52006                           DXCH     Z
000152:
000153: 30,2014           06020                           TC       FLAG1UP                               #  SET AVEG FLAG
000154: 30,2015           00001                           OCT      1
000155:
000156:
000157: 30,2016           06045                           TC       FLAG2DWN                              #  KNOCK DOWN DRIFT FLAG
000158: 30,2017           40000                           OCT      40000
000159:
000160: 30,2020           37755                           CAF      ONE                                   #  INITIALIZE DV MONITOR
000161: 30,2021           55511                           TS       DVCNTR
000162: 30,2022           37743                           CAF      EBANK4
000163: 30,2023           54003                           TS       EBANK
000164: 30,2024  E4,1640                                  EBANK=   AXIS                                  #  CORCT IS DEAD, LONG LIVE AXIS
000165:
000166: 30,2024           37740                           CAF      BIT14                                 #  INITIALIZE AXIS TO (0.5,0,0)
000167: 30,2025           55640                           TS       AXIS                                  #  FOR FINDCDUD
000168: 30,2026           37761                           CAF      ZERO
000169: 30,2027           55641                           TS       AXIS       +1
000170: 30,2030           55642                           TS       AXIS       +2
000171: 30,2031           55643                           TS       AXIS       +3
000172: 30,2032           55644                           TS       AXIS       +4
000173: 30,2033           55645                           TS       AXIS       +5
000174:
000175: 30,2034           35662                           CAF      PRIO21                                #  SET UP TO DO NORMLIZE REQUIRED PRIOR
000176: 30,2035           05534                           TC       FINDVAC                               #  TO FIRST ENTRY TO AVERAGE G.
000177: 30,2036  E4,1514                                  EBANK=   RAVEGON
000178: 30,2036           02317 60064                     2CADR    NORMLIZE
000179:
000180:
000181: 30,2040           32154                           CAF      200DEC
000182: 30,2041           05701                           TC       WAITLIST
000183: 30,2042  E5,1511                                  EBANK=   DVCNTR
000184: 30,2042           02047 60065                     2CADR    READACCS
000185:
000186: 30,2044           04147                           TC       PHASCHNG
000187: 30,2045           40025                           OCT      40025
000188:
000189: 30,2046           15745                           TCF      TASKOVER
000190:


000192:                                                                                                  #  *************************************   READACCS   *************************************************************
000193: 30,2047  E5,1537                                  EBANK=   NEGXDV
000194: 30,2047           00006        READACCS           EXTEND
000195: 30,2050           32106                           DCA      PIP2CADR
000196: 30,2051           52006                           DXCH     Z                                     #  CALL PIPASR
000197: 30,2052           11110                           CCS      PHASE5                                #  LAST PAST CHECK
000198:
000199: 30,2053           12055                           TCF      +2
000200: 30,2054           15745                           TCF      TASKOVER
000201: 30,2055           41110                           CS       PHASE5                                #  THESE 4 INSTRUCTIONS ONLY IN FOR
000202: 30,2056           67760                           AD       FIVE                                  #  FAKESTART.  REMOVE IF REAL RESTARTS
000203: 30,2057           00006                           EXTEND                                         #  RETURN.
000204: 30,2060           15745                           BZF      TASKOVER
000205:
000206: 30,2061           04147        PIPSDONE           TC       PHASCHNG
000207: 30,2062           05015                           OCT      05015
000208: 30,2063           77777                           OCT      77777
000209:
000210: 30,2064           37754                           CAF      TWO                                   #  SHOW PIPS HAVE BEEN READ FOR REREADAC
000211:
000212: 30,2065           55160                           TS       PIPAGE
000213:
000214: 30,2066           40075        CHEKAVEG           CS       FLAGWRD1
000215: 30,2067           77755                           MASK     BIT1
000216: 30,2070           10000                           CCS      A                                     #  IF AVEG FLAG DOWN SET FINAL EXIT AVEG
000217: 30,2071           02107                           TC       AVEGOUT
000218:
000219: 30,2072           32154                           CAF      200DEC                                #  READ PIPS AT 2 SECOND INTERVALS
000220: 30,2073           05701                           TC       WAITLIST
000221: 30,2074  E5,1570                                  EBANK=   BMEMORY
000222:
000223: 30,2074           02047 60065                     2CADR    READACCS
000224:
000225: 30,2076           37740        MAKESERV           CAF      PRIO20                                #  ESTABLISH SERVICER ROUTINE
000226: 30,2077           05534                           TC       FINDVAC
000227: 30,2100  E5,1570                                  EBANK=   BMEMORY
000228: 30,2100           02115 60065                     2CADR    SERVICER
000229:
000230: 30,2102           04147                           TC       PHASCHNG                              #  RESTART SERVICER AND READACCS
000231: 30,2103           40065                           OCT      40065                                 #  SEE RESTART TABLES
000232:
000233: 30,2104           15745                           TCF      TASKOVER                              #  END PREVIOUS READACCS WAITLIST TASK
000234:
000235:
000236: 30,2105  E5,1570                                  EBANK=   BMEMORY
000237: 30,2105           02506 60065  PIP2CADR           2CADR    PIPASR
000238:
000239: 30,2107           00006        AVEGOUT            EXTEND
000240: 30,2110           32114                           DCA      AVOUTCAD
000241: 30,2111           53073                           DXCH     AVGEXIT
000242: 30,2112           12076                           TCF      MAKESERV
000243:
000244: 30,2113  E5,1570                                  EBANK=   BMEMORY
000245: 30,2113           02274 60065  AVOUTCAD           2CADR    AVGEND
000246:


000248:                                                                                                  #  *************************************   SERVICER   *************************************************************
000249:                                                                                                  #
000250:
000251:
000252:                                                                                                  #  DO SAVEM AND RESTOREM LATER IF NORMAL RESTARTS SHOULD EVER RETURN
000253:
000254: 30,2115           37754        SERVICER           CAF      TWO
000255: 30,2116           55512        PIPCHECK           TS       PIPCTR
000256:
000257: 30,2117           60000                           DOUBLE
000258: 30,2120           50000                           INDEX    A
000259: 30,2121           10403                           CCS      DELVX
000260: 30,2122           02124                           TC       +2
000261:
000262: 30,2123           02132                           TC       PIPLOOP
000263:
000264: 30,2124           62152                           AD       -MAXDELV                              #  DO PIPA-SATURATION TEST BEFORE
000265: 30,2125           00006                           EXTEND
000266: 30,2126           62132                           BZMF     PIPLOOP                               #  COMPENSATION.
000267:
000268: 30,2127           04744                           TC       ALARM
000269: 30,2130           00205                           OCT      00205                                 #  SATURATED-PIPA ALARM
000270: 30,2131           02233                           TC       AVERAGEG
000271:
000272: 30,2132           11512        PIPLOOP            CCS      PIPCTR
000273: 30,2133           12116                           TCF      PIPCHECK
000274:
000275:
000276: 30,2134           04147                           TC       PHASCHNG                              #  RESTART REREADAC + SERVICER
000277: 30,2135           16035                           OCT      16035
000278: 30,2136           20000                           OCT      20000
000279: 30,2137  E5,1570                                  EBANK=   BMEMORY
000280: 30,2137           02143 60065                     2CADR    GOMASS
000281:
000282: 30,2141           05224                           TC       BANKCALL                              #  PIPA COMPENSATION CALL
000283: 30,2142           25220                           CADR     1/PIPA
000284:
000285: 30,2143           06103        GOMASS             TC       INTPRET
000286: 30,2144           51575                           VLOAD    ABVAL
000287: 30,2145           00404                                    DELV
000288: 30,2146           36535                           STCALL   ABDELV
000289: 30,2147           61146                                    MASSMON
000290:
000291: 30,2150           77776                           EXIT
000292: 30,2151           01322                           TC       DVSELECT
000293: 30,2152  30,2233               AGSMON             EQUALS   AVERAGEG
000294:
000295: 30,2152           63401        -MAXDELV           DEC      -6398      B-14                       #  3200 PULSES/SEC FOR 2 SEC.  CCS TAKES 1.
000296: 30,2153           00132        PLUSXDVA           DEC      90         B-14                       #  90 CM/SEC = ASCENT THRESHOLD
000297: 30,2154           00310        200DEC             DEC      200        B-14
000298:
000299:
000300: 30,2155           00062        PLUSXDVD           DEC      50         B-14                       #  50 CM/SEC = DESCENT THRESHOLD
000301: 30,2156           37754        PGNCSMON           CAF      BIT2                                  #  CHECK CHANNEL 30 TO SEE IF STAGING HAS


000303: 30,2157           00006                           EXTEND                                         #  OCCURRED.  IF BIT2 IS ON WE ARE UNSTAGED
000304: 30,2160           02030                           RAND     30                                    #  AND DESCENT PLUSXDV IS USED -- OTHERWISE
000305: 30,2161           50000                           INDEX    A                                     #  THE ASCENT PLUSXDV IS EMPLOYED.
000306: 30,2162           42153                           CS       PLUSXDVA
000307: 30,2163           61534                           AD       ABDELV                                #  ACCELERATION
000308: 30,2164           00006                           EXTEND
000309: 30,2165           62171                           BZMF     THRUSTLO
000310:
000311:
000312: 30,2166           37755        RESETDV            CAF      ONE
000313: 30,2167           55511                           TS       DVCNTR                                #  THRUST OK. RESET DV MONITOR AND
000314: 30,2170           12233                           TCF      AVERAGEG                              #  BRANCH TO AVERAGEG
000315:
000316: 30,2171           31511        THRUSTLO           CA       DVCNTR
000317: 30,2172           00006                           EXTEND
000318: 30,2173           62203                           BZMF     NODV
000319: 30,2174           04147                           TC       PHASCHNG
000320: 30,2175           12035                           OCT      12035
000321: 30,2176  E5,1511                                  EBANK=   DVCNTR
000322:
000323: 30,2176           02233 60065                     2CADR    AVERAGEG
000324:
000325: 30,2200           00006                           EXTEND
000326: 30,2201           27511                           DIM      DVCNTR
000327: 30,2202           12233                           TCF      AVERAGEG
000328:
000329: 30,2203           35226        NODV               CAF      PRIO30                                #  SET UP HIGH PRIO FINDVAC TO DVEXIT
000330: 30,2204           00004                           INHINT
000331: 30,2205           05534                           TC       FINDVAC
000332: 30,2206  E5,1511                                  EBANK=   DVCNTR
000333: 30,2206           02211 60065                     2CADR    DVEXIT
000334:
000335:
000336: 30,2210           12225                           TCF      DVMNKILL   -1                         #  AND REMOVE DV MONITOR
000337:
000338: 30,2211           00006        DVEXIT             EXTEND                                         #  BRANCH TO SELECTED LOCATION
000339: 30,2212           31075                           DCA      DVMNEXIT
000340: 30,2213           52006                           DXCH     Z
000341:
000342: 30,2214           41534        BOOSTMON           CS       ABDELV                                #  COMPARE ABDELV TO THRSHLD+ TO DETECT
000343: 30,2215           62231                           AD       THRSHLD+                              #  BOOSTER SHUTDOWN
000344: 30,2216           00006                           EXTEND
000345: 30,2217           62166                           BZMF     RESETDV
000346:
000347: 30,2220           00004                           INHINT                                         #  SHUTDOWN HAS OCCURRED
000348: 30,2221           37740                           CAF      PRIO20
000349: 30,2222           05523                           TC       NOVAC                                 #  SET UP MISSION PHASE 6 JOB
000350: 30,2223  E5,1570                                  EBANK=   BMEMORY
000351: 30,2223           02463 56005                     2CADR    MP6JOB                                #  NO VAC AREA NEEDED
000352:
000353: 30,2225           00003                 -1        RELINT
000354: 30,2226           32230        DVMNKILL           CAF      AVEGADDR                              #  REMOVE DV MONITOR FROM SERVICER
000355: 30,2227           55322                           TS       DVSELECT
000356:


000358: 30,2230           02233        AVEGADDR           TC       AVERAGEG
000359:
000360: 30,2231           00000 00000  THRSHLD+           2DEC     0.                                    #  TEMPORARY **************** PLEASE PATCH
000361:
000362:
000363:                                                                                                  #  *********************************   FLAG SUBROUTINES   *********************************************************
000364:
000365:    6020                                           BLOCK    03
000366:                                                                                                  #     THE FLAG SUBROUTINES ARE USED TO SET OR RESET FLAGS (BITS) IN FLAGWRD1 AND FLAGWRD2. THE BIT(S) TO BE SET OR
000367:                                                                                                  #  RESET IS(ARE) INDICATED BY THE OCTAL NUMBER FOLLOWING THE TC CALL. THE CALLING SEQUENCES ARE -
000368:
000369:                                                                                                  #                                                   TC     FLAG1UP         SET BIT(S) IN FLAGWRD1 CORRESPONDING TO
000370:
000371:                                                                                                  #                                                   OCT    XXXXX           THE 1 BITS IN NUMBER XXXXX.
000372:
000373:                                                                                                  #                                                   TC     FLAG1DWN        RESET BIT(S) IN FLAGWRD1 CORRESPONDING
000374:                                                                                                  #                                                   OCT    XXXXX           TO THE 1 BITS IN NUMBER XXXXX.
000375:
000376:                                                                                                  #  THE CALLING SEQUENCES FOR FLAGWRD2 ARE SIMILAR.
000377:
000378:                                                                                                  #     NOTE THAT FLAGWRD1 AND FLAGWRD2 CORRESPOND TO INTERPRETIVE SWITCHES 15D THROUGH 44D.
000379:
000380:                                                                                                  #           FLAGWORD BITS ARE DEFINED IN LOG SECTION "ERASABLE ASSIGNMENTS"
000381:
000382:    6020           00004        FLAG1UP            INHINT                                         #  SET FLAG 1 SUBROUTINE
000383:    6021           40075                           CS       FLAGWRD1
000384:    6022           50002                           INDEX    Q
000385:    6023           70000                           MASK     0
000386:    6024           26075                           ADS      FLAGWRD1
000387:
000388:    6025           00003                           RELINT
000389:    6026           17006                           TCF      Q+1
000390:
000391:    6027           00004        FLAG2UP            INHINT                                         #  SET FLAG 2 SUBROUTINE
000392:    6030           40076                           CS       FLAGWRD2
000393:    6031           50002                           INDEX    Q
000394:
000395:    6032           70000                           MASK     0
000396:    6033           26076                           ADS      FLAGWRD2
000397:
000398:    6034           00003                           RELINT
000399:    6035           17006                           TCF      Q+1
000400:
000401:    6036           50002        FLAG1DWN           INDEX    Q                                     #  RESET FLAG 1 SUBROUTINE
000402:    6037           40000                           CS       0
000403:    6040           00004                           INHINT
000404:    6041           70075                           MASK     FLAGWRD1
000405:
000406:    6042           54075                           TS       FLAGWRD1
000407:    6043           00003                           RELINT
000408:    6044           17006                           TCF      Q+1
000409:


000411:    6045           50002        FLAG2DWN           INDEX    Q                                     #  RESET FLAG 2 SUBROUTINE
000412:    6046           40000                           CS       0
000413:    6047           00004                           INHINT
000414:    6050           70076                           MASK     FLAGWRD2
000415:    6051           54076                           TS       FLAGWRD2
000416:    6052           00003                           RELINT
000417:
000418:    6053           17006                           TCF      Q+1
000419:
000420:    6054  E4,1566                                  EBANK=   TDEC
000421:                                                                                                  #  ******************************************ENGINE ON-OFF ROUTINES**********************************************
000422:
000423:                                                                                                  #  ALL BLOCK 2 COMPUTERS HAVE THE ENGINE-ON AND ENGINE-OFF DISCRETES IN BITS 13 AND 14 RESPECTIVELY OF CHANNEL 11.
000424:                                                                                                  #  IF LEM DESCENT ENGINE SEES A 1,1 CONDITION (BOTH OUTPUT TRANSISTORS CONDUCTING) OR A 0,0 CONDITION (BOTH OUTPUT
000425:                                                                                                  #  TRANSISTORS NON-CONDUCTING) THEY WILL IGNORE THE SIGNAL AND REMAIN IN THE STATE THEY WERE PREVIOUSLY IN. THIS
000426:                                                                                                  #  ALLOWS THE COMPUTER TO ZERO ALL THE OUTPUT BITS DURING A RESTART AND NOT SHUT THE ENGINE OFF. THERE IS NO TIME
000427:                                                                                                  #  LIMIT AS TO HOW LONG AN IMPROPER STATE (1,1) OR (0,0) CAN LAST WITH DESCENT ENGINE.
000428:
000429:                                                                                                  #  THE LEM ASCENT ENGINE WILL BE TURNED ON BY AN ERRONEOUS 1,1 CONDITION WHICH LASTS LONGER THAN 1 MILLISECOND,
000430:
000431:                                                                                                  #  THEREFORE THE LGC MUST BE PROGRAMMED TO SET THE BITS TO THE PROPER STATE WITHIN 0.5 MILLISECOND FOLLOWING
000432:                                                                                                  #  RECOVERY FROM A RESTART
000433:
000434:                                                                                                  #  ENGINE ON AND OFF COMMANDS ARE NOTED IN THE EVENT REGISTERS FOR
000435:                                                                                                  #  DOWNLINK.  IF IT IS DESIRED TO SIMPLY ENSURE ENGINE OFF PRIOR TO AN
000436:                                                                                                  #  ENGINE ARM COMMAND, ENGINEOF1 SHOULD BE USED SO THAT EVENT IS NOT
000437:                                                                                                  #  ENTERED IN DOWNLINK.
000438:
000439:    6054           00006        ENGINEON           EXTEND
000440:    6055           30025                           DCA      TIME2                                 #  ENG ON EVENT NOTED IN DOWNLINK
000441:
000442:    6056           53724                           DXCH     TEVENT
000443:
000444:    6057           36070                           CA       PGNSCADR                              #  SET DVMONITOR TO EXPECT THRUST
000445:    6060           55322                           TS       DVSELECT
000446:
000447:    6061           45226                           CS       PRIO30                                #  ENGINE ON BIT13.  ENGINE OFF BIT14
000448:    6062           00006                           EXTEND                                         #  DEPENDING ON THE ARM COMMAND
000449:    6063           02011                           RAND     11
000450:    6064           67741                           AD       BIT13
000451:    6065           00006                           EXTEND
000452:    6066           01011                           WRITE    11
000453:    6067           00002                           TC       Q
000454:
000455:
000456:
000457:
000458:    6070           02156        PGNSCADR           GENADR   PGNCSMON
000459:
000460:    6071           00006        ENGINOFF           EXTEND
000461:    6072           30025                           DCA      TIME2                                 #  NOTE ENGINE OFF EVENT TO DOWNLINK
000462:    6073           53724                           DXCH     TEVENT
000463:
000464:    6074           45226        ENGINOF1           CS       PRIOR30                               #  NO DOWNLINK HERE


000466:    6075           00006                           EXTEND
000467:    6076           02011                           RAND     11
000468:
000469:    6077           67740                           AD       BIT14
000470:    6100           00006                           EXTEND
000471:    6101           01011                           WRITE    11
000472:    6102           00002                           TC       Q                                     #  RETURN
000473:
000474:    6103     5226               PRIOR30            EQUALS   PRIO30
000475:
000476:    6103     1154               QTEMP              EQUALS   TEMX
000477:
000478: 30,2233                                           BANK     30
000479:
000480:
000481:
000482:
000483:
000484: 30,2233  E5,1506                                  EBANK=   DVTOTAL
000485: 30,2233           06103        AVERAGEG           TC       INTPRET
000486: 30,2234           77624                           CALL
000487: 30,2235           61077                                    CALCRVG
000488: 30,2236           77776                           EXIT
000489:
000490: 30,2237           04147                           TC       PHASCHNG
000491: 30,2240           10035                           OCT      10035
000492:
000493: 30,2241           00004        COPYCYCL           INHINT
000494: 30,2242           37752                           CAF      EIGHT
000495: 30,2243           54061                           TS       ITEMP1
000496: 30,2244           60000                           DOUBLE
000497: 30,2245           54062                           TS       ITEMP2
000498: 30,2246           00006                           EXTEND
000499: 30,2247           50062                           INDEX    ITEMP2
000500: 30,2250           31051                           DCA      RN1
000501: 30,2251           50062                           INDEX    ITEMP2
000502:
000503: 30,2252           53011                           DXCH     RN
000504: 30,2253           10061                           CCS      ITEMP1
000505: 30,2254           12243                           TCF      COPYCYCL   +2
000506: 30,2255           00006                           EXTEND
000507: 30,2256           31560                           DCA      DAREATMP
000508: 30,2257           53552                           DXCH     DELAREA
000509: 30,2260           00006                           EXTEND
000510: 30,2261           31562                           DCA      MASSTEMP
000511: 30,2262           53333                           DXCH     MASS
000512: 30,2263           00006                           EXTEND
000513: 30,2264           31321                           DCA      PIPTIME
000514: 30,2265           53341                           DXCH     STATIME                               #  STATE VECTOR TIME FOR DOWNLINK
000515:
000516: 30,2266           00003                           RELINT
000517:
000518: 30,2267           04147                           TC       PHASCHNG
000519: 30,2270           10035                           OCT      10035
000520:


000522: 30,2271           00006                           EXTEND
000523: 30,2272           31073                           DCA      AVGEXIT
000524: 30,2273           52006                           DXCH     Z                                     #  AVERAGEG EXIT
000525:
000526: 30,2274           31321        AVGEND             CA       PIPTIME    +1                         #  FINAL AVERAGE G EXIT
000527: 30,2275           55163                           TS       OLDBT1                                #  SET UP FREE FALL GYRO COMPENSATION
000528:
000529: 30,2276           06027                           TC       FLAG2UP                               #  SET DRIFT FLAG
000530:
000531: 30,2277           40000                           OCT      40000
000532:
000533: 30,2300           00006                           EXTEND
000534: 30,2301           32316                           DCA      AVEMIDAD                              #  TRANSFER STATE VECTOR VIA AVETOMID
000535: 30,2302           52006                           DXCH     Z
000536:
000537: 30,2303           04147                           TC       PHASCHNG
000538: 30,2304           00055                           OCT      55                                    #  *** MEANS INACTIVE ONLY FOR FAKESTRT
000539:
000540: 30,2305           47753                           CS       FOUR
000541:
000542: 30,2306           60765                           AD       PHASENUM
000543: 30,2307           00006                           EXTEND
000544: 30,2310           15605                           BZF      ENDOFJOB
000545:
000546: 30,2311           14261                           TCF      POOH
000547:
000548: 30,2312           04147        SERVEXIT           TC       PHASCHNG
000549: 30,2313           00035                           OCT      00035
000550:
000551: 30,2314           15605                           TCF      ENDOFJOB
000552:
000553: 30,2315  E4,1630                                  EBANK=   AVMIDRTN
000554:
000555: 30,2315           02073 16004  AVEMIDAD           2CADR    AVETOMID
000556:


000558:                                                                                                  #     NORMLIZE PERFORMS THE INITIALIZATION REQUIRED PRIOR TO THE FIRST ENTRY TO AVERAGEG, AND SCALES RN SO THAT IT
000559:
000560:                                                                                                  #  HAS 1 LEADING BINARY ZERO. IN MOST MISSIONS, RN WILL BE SCALED AT 2(+29), BUT IN THE 206 MISSION, RN WILL BE
000561:                                                                                                  #  SCALED AT 2(+24)M.  TIME OF RN,VN IS IN STATIME FOR DWNLINK
000562:
000563:
000564: 30,2317  E4,1514                                  EBANK=   RAVEGON
000565: 30,2317           00004        NORMLIZE           INHINT
000566: 30,2320  E4,1566                                  EBANK=   TDEC
000567: 30,2320           37743                           CAF      EBANK4
000568: 30,2321           56003                           XCH      EBANK
000569: 30,2322           54071                           TS       RUPTREG2
000570: 30,2323           37756                           CAF      ELEVEN                                #  INITIALIZE INDEX-DEC 11
000571:
000572: 30,2324           54070                           TS       RUPTREG1
000573: 30,2325           50070                           INDEX    RUPTREG1
000574: 30,2326           31514                           CA       RAVEGON
000575: 30,2327           50070                           INDEX    RUPTREG1
000576: 30,2330           55010                           TS       RN                                    #  STORE RN, VN
000577: 30,2331           10070                           CCS      RUPTREG1
000578: 30,2332           12321                           TCF      NORMLIZE   +2
000579: 30,2333           00006                           EXTEND
000580: 30,2334           31511                           DCA      TAVEGON
000581: 30,2335           53341                           DXCH     STATIME                               #  STATE TIME FOR DWNLINK
000582:
000583: 30,2336           30071                           CA       RUPTREG2
000584: 30,2337           54003                           TS       EBANK
000585: 30,2340           00003                           RELINT
000586: 30,2341           06103                           TC       INTPRET
000587: 30,2342           77624                           CALL
000588: 30,2343           61043                                    CALCGRAV                              #  INITIALIZE UNITR RMAG GDT1
000589: 30,2344           01025                           STORE    GDT/2
000590:
000591: 30,2345           77776                           EXIT
000592: 30,2346           15605                           TCF      ENDOFJOB
000593:


000595:                                                                                                  #     VPATCHER IS AN ADAPTATION OF NORMLIZE WHICH IS CALLED AFTER MIDTOAVE HAS BEEN PERFORMED AND PRIOR TO
000596:                                                                                                  #  PREBURN PROGRAMS THAT REQUIRE IGNITION STATE POSITION, VELOCITY, AND GRAVITY VECTORS IN REGISTERS RN,VN, AND
000597:                                                                                                  #  GDT/2.  THE REGISTERS ARE RE-INITIALIZED BY NORMLIZE WHEN PREREAD CALLEDRED BY NORMLIZE WHEN PREREAD IS CALLED
000598:
000599:
000600:                                                                                                  #  NAME=               DATE=
000601:                                                                                                  #     VPATCHER            20 OCTOBER 1966
000602:                                                                                                  #  PROGRAMMER          SUBROUTINES CALLED
000603:                                                                                                  #     SCHULENBERG         CALCGRAV
000604:
000605:                                                                                                  #  CALLING SEQUENCE
000606:                                                                                                  #     IF IN BASIC   L-1 TC      INTPRET
000607:                                                                                                  #                   L   CALL    VPATCHER
000608:                                                                                                  #                   L+1 EXIT
000609:                                                                                                  #  NORMAL EXIT
000610:                                                                                                  #     AT L+1 OF CALLING SEQUENCE
000611:                                                                                                  #  DEBRIS
000612:                                                                                                  #     RN, VN, GDT/2, UNITR, RMAG
000613:
000614:                                                                                                  #  OUTPUT
000615:                                                                                                  #     RIGNITION IN RN*2(+24)M
000616:                                                                                                  #     VIGNITION IN VN*2(+7)M/CS
000617:                                                                                                  #     GDT/2 AT IGNITION IN GDT/2*2(+7)M/CS
000618:                                                                                                  #     UNIT RIGNITION IN UNITR *2(+1)M
000619:                                                                                                  #     RMAG AT 2(+24)M
000620:
000621: 30,2347           77620        VPATCHER           STQ
000622: 30,2350           01154                                    QTEMP
000623: 30,2351           77776                           EXIT
000624: 30,2352           00004                           INHINT
000625: 30,2353  E4,1566                                  EBANK=   TDEC
000626: 30,2353           37743                           CAF      EBANK4
000627: 30,2354           56003                           XCH      EBANK
000628: 30,2355           54071                           TS       RUPTREG2
000629: 30,2356           37756                           CAF      ELEVEN                                #  INITIALIZE INDEX TO DEC 11
000630: 30,2357           54070        VPATLOOP           TS       RUPTREG1
000631: 30,2360           50070                           INDEX    RUPTREG1
000632: 30,2361           31400                           CA       RIGNTION
000633: 30,2362           50070                           INDEX    RUPTREG1
000634: 30,2363           55010                           TS       RN                                    #  STORE RN,VN
000635:
000636: 30,2364           10070                           CCS      RUPTREG1
000637: 30,2365           12357                           TCF      VPATLOOP
000638: 30,2366           00006                           EXTEND
000639: 30,2367           31670                           DCA      TIGN
000640: 30,2370           53341                           DXCH     STATIME                               #  STATE TIME FOR DWNLINK
000641: 30,2371           30071                           CA       RUPTREG2
000642: 30,2372           54003                           TS       EBANK
000643: 30,2373           00003                           RELINT
000644: 30,2374           06103                           TC       INTPRET


000646: 30,2375           77624                           CALL
000647: 30,2376           61043                                    CALCGRAV
000648:
000649: 30,2377           01025                           STORE    GDT/2
000650:
000651: 30,2400           77650                           GOTO
000652: 30,2401           01154                                    QTEMP

End of include-file THRUST_MISSION_CONTROL_PROGRAM_TJS.agc.  Parent file is MAIN.agc


