
Source Code


000002:                                                                                                  ## Copyright:   Public domain.
000003:                                                                                                  ## Filename:    TRIM_GIMBAL_CONTROL_SYSTEM.agc
000004:                                                                                                  ## Purpose:     A section of Sunburst revision 37, or Shepatin revision 0.
000005:                                                                                                  ##              It is part of an early development version of the software
000006:                                                                                                  ##              for Apollo Guidance Computer (AGC) on the unmanned Lunar
000007:                                                                                                  ##              Module (LM) flight Apollo 5. Sunburst 37 was the program
000008:                                                                                                  ##              upon which Don Eyles's offline development program Shepatin
000009:                                                                                                  ##              was based; the listing herein transcribed was actually for
000010:                                                                                                  ##              the equivalent revision 0 of Shepatin.
000011:                                                                                                  ##              This file is intended to be a faithful transcription, except
000012:                                                                                                  ##              that the code format has been changed to conform to the
000013:                                                                                                  ##              requirements of the yaYUL assembler rather than the
000014:                                                                                                  ##              original YUL assembler.
000015:                                                                                                  ## Reference:   pp. 554-568
000016:                                                                                                  ## Assembler:   yaYUL
000017:                                                                                                  ## Contact:     Ron Burkey <info@sandroid.org>.
000018:                                                                                                  ## Website:     www.ibiblio.org/apollo/index.html
000019:                                                                                                  ## Mod history: 2017-05-24 MAS  Created from Sunburst 120.
000020:                                                                                                  ##              2017-06-07 HG   Transcribed
000021:                                                                                                  ##              2017-06-15 HG   Fix operand  ACENTRAL -> A2CNTRAL
000022:                                                                                                  ##                                  operator CS -> CAE
000023:                                                                                                  ##                                           TC -> INDEX
000024:


000026: 21,2561                                           BANK     21
000027: 21,2561  E6,1541                                  EBANK=   DT
000028:                                                                                                  #  CONTROL REACHES THIS POINT UNDER EITHER OF THE FOLLOWING TWO CONDITIONS ONCE THE DESCENT ENGINE AND THE DIGITAL
000029:                                                                                                  #  AUTOPILOT ARE BOTH ON:
000030:                                                                                                  #           A) THE TRIM GIMBAL CONTROL LAW WAS ON DURING THE PREVIOUS Q,R-AXIS TIME5 INTERRUPT (OR THE DAPIDLER
000031:                                                                                                  #              INITIALIZATION WAS SET FOR TRIM GIMBAL CONTROL AND THIS IS THE FIRST PASS), OR
000032:                                                                                                  #           B) THE Q,R-AXES RCS JET CONTROL LAW ATTITUDE STEERING MODE REDUCED THE ATTITUDE ERROR TO LESS THAN
000033:                                                                                                  #  1DEGREE ON EACH AXIS ON ITS LAST TIME5 INTERRUPT.
000034:
000035:                                                                                                  #  THE FOLLOWING T5RUPT ENTRY BEGINS THE TRIM GIMBAL CONTROL LAW.  SINCE IT IS ASSUMED THAT THE LEM WILL REMAIN
000036:                                                                                                  #  UNDER TRIM GIMBAL CONTROL, A KALMAN FILTER RUPT IS SET UP TO BEGIN 30 MS FROM THE TRIM GIMBAL RUPT.
000037:
000038: 21,2561           32374        GTS                CAF      MS30F                                 #  RESET TIMER IMMEDIATELY: DT = 30 MS
000039: 21,2562           54030                           TS       TIME5
000040:
000041: 21,2563           22016                           LXCH     BANKRUPT                              #  INTERRUPT LEAD IN (CONTINUED)
000042: 21,2564           00006                           EXTEND
000043: 21,2565           22012                           QXCH     QRUPT
000044:
000045: 21,2566           00006                           EXTEND
000046: 21,2567           32403                           DCA      POSTPFIL
000047: 21,2570           53001                           DXCH     T5ADR
000048:
000049: 21,2571           12663                           TCF      GTSTEST                               #  SKIP OVER XFORMS UNTIL REORGANIZATION
000050:
000051: 21,2572           00006        GIMBAL             EXTEND                                         #  GET D.P. FILTERED CDUY VALUE (ONES COMP)
000052: 21,2573           31553                           DCA      CDUYFIL                               #  SCALED AT 2PI RADIANS
000053: 21,2574           02303                           TC       ONETOTWO                              #  FORM S.P. VALUE IN TWOS COMPLEMENT AT PI
000054: 21,2575           00006                           EXTEND
000055: 21,2576           20767                           MSU      CDUYD                                 #  FORM Y-AXIS ERROR IN ONES COMPLEMENT
000056: 21,2577           55467                           TS       QDIFF                                 #  (SAVE IN Q-AXIS ERROR LOC: EFFICIENCY)
000057:
000058: 21,2600           00006                           EXTEND                                         #  GET D.P. FILTERED CDUZ VALUE (ONES COMP)
000059: 21,2601           31555                           DCA      CDUZFIL                               #  SCALED AT 2PI RADIANS
000060: 21,2602           02303                           TC       ONETOTWO                              #  FORM S.P. VALUE IN TWOS COMPLEMENT AT PI
000061: 21,2603           00006                           EXTEND
000062: 21,2604           20770                           MSU      CDUZD                                 #  FORM Z-AXIS ERROR IN ONES COMPLEMENT
000063: 21,2605           55470                           TS       RDIFF                                 #  (SAVE IN R-AXIS ERROR LOC: EFFICIENCY)
000064:
000065:                                                                                                  #  TRANSFORM Y,Z CDU ERRORS TO THE Q,R-AXES.
000066:
000067: 21,2606           00006                           EXTEND                                         #  GET BOTH Y AND Z CDU ERRORS AT PI RAD
000068: 21,2607           31470                           DCA      QDIFF
000069: 21,2610           03420                           TC       QTRANSF                               #  FORM Q-ERROR IN A (SCALED AT PI RAD)
000070: 21,2611           53470                           DXCH     QDIFF                                 #  STORE Q-ERROR, GET BOTH Y,Z CDU ERRORS
000071: 21,2612           03430                           TC       RTRANSF                               #  FORM R-ERROR IN A (SCALED AT PI RAD)
000072: 21,2613           57470                           XCH      RDIFF                                 #  STORE R-ERROR
000073:
000074:                                                                                                  #  TRANSFORM THE FILTERED Y,Z RATES TO THE Q,R-AXES.
000075:                                                                                                  #  (THESE MAY BE NEEDED FOR THE RATE DERIVATION FOR THE JETS IF THEY MUST BE USED.)
000076:


000078: 21,2614           31560                           CAE      DCDUZFIL                              #  GET FILTERED Y,Z RATES
000079: 21,2615           54001                           TS       L                                     #  SCALED AT PI/4 RADIANS/SECOND
000080: 21,2616           31556                           CAE      DCDUYFIL
000081: 21,2617           03420                           TC       QTRANSF                               #  FOR Q-AXIS RATE
000082: 21,2620           55417                           TS       OMEGAQ                                #  STORED SCALED AT PI/4 RADIANS/SECOND
000083:
000084: 21,2621           31560                           CAE      DCDUZFIL                              #  GET FILTERED Y,Z RATES
000085: 21,2622           54001                           TS       L                                     #  SCALED AT PI/4 RADIANS/SECOND
000086: 21,2623           31556                           CAE      DCDUYFIL
000087: 21,2624           03430                           TC       RTRANSF                               #  FOR R-AXIS RATE
000088: 21,2625           55421                           TS       OMEGAR                                #  STORED SCALED AT PI/4 RADIANS/SECOND
000089:
000090:                                                                                                  #  TRANSFORM THE FILTERED Y,Z ACCELERATIONS TO THE Q,R-AXES.
000091:                                                                                                  #  (THESE MAY BE NEEDED TO CALCULATE TRIM GIMBAL OFF-TIMES IF ATTITUDE ERROR HAS GONE BEYOND TRIM GIMBAL CONTROL.)
000092:
000093: 21,2626           31564                           CAE      D2CDUZFL                              #  GET FILTERED Y,Z ACCELERATIONS
000094: 21,2627           54001                           TS       L                                     #  SCALED AT PI/8 RADIANS/SECOND(2)
000095: 21,2630           31562                           CAE      D2CDUYFL
000096: 21,2631           03420                           TC       QTRANSF                               #  FORM Q-AXIS ACCELERATION
000097:
000098: 21,2632           55420                           TS       ALPHAQ                                #  STORE AT PI/8 RADIANS/SECOND(2)
000099:
000100: 21,2633           31564                           CAE      D2CDUZFL                              #  GET FILTERED Y,Z ACCELERATIONS
000101: 21,2634           54001                           TS       L                                     #  SCALED AT PI/8 RADIANS/SECOND(2)
000102: 21,2635           31562                           CAE      D2CDUYFL
000103: 21,2636           03430                           TC       RTRANSF                               #  FORM R-AXIS ACCELERATION
000104: 21,2637           55422                           TS       ALPHAR                                #  STORE AT PI/8 RADIANS/SECOND(2)
000105:
000106:                                                                                                  #  EXTRAPOLATE THETA AND OMEGA OVER THE 20 MS DELAY BETWEEN THE KALMAN FILTER AND TRIM GIMBAL CONTROL.
000107:
000108: 21,2640           31417                           CAE      OMEGAQ
000109: 21,2641           00006                           EXTEND
000110: 21,2642           72661                           MP       DTW
000111: 21,2643           27467                           ADS      QDIFF
000112:
000113: 21,2644           31421                           CAE      OMEGAR
000114: 21,2645           00006                           EXTEND
000115: 21,2646           72661                           MP       DTW
000116: 21,2647           27470                           ADS      RDIFF
000117:
000118: 21,2650           31420                           CAE      ALPHAQ
000119: 21,2651           00006                           EXTEND
000120: 21,2652           72662                           MP       DTA
000121:
000122: 21,2653           27417                           ADS      OMEGAQ
000123:
000124: 21,2654           31422                           CAE      ALPHAR
000125: 21,2655           00006                           EXTEND
000126: 21,2656           72662                           MP       DTA
000127: 21,2657           27421                           ADS      OMEGAR
000128:
000129: 21,2660           15751                           TCF      RESUME
000130:


000132:
000133: 21,2661           00122        DTW                DEC      .005
000134: 21,2662           00051        DTA                DEC      .0025
000135:
000136:                                                                                                  #  TEST TO SEE IF TRIM GIMBAL CONTROL LAW HAS KEPT BOTH ATTITUDE ERRORS BELOW THE 1 DEGREE BOUNDARY WITH THE REGION
000137:                                                                                                  #  OF RCS CONTROL LAW DOMINANCE OR IS STILL REDUCING THE ERROR.
000138:
000139: 21,2663           37754        GTSTEST            CAF      TRYGIMBL                              #  VERIFY THAT GTS IS STILL OPERATIVE.
000140: 21,2664           70077                           MASK     DAPBOOLS
000141: 21,2665           10000                           CCS      A
000142: 21,2666           12720                           TCF      RCSCNTRL                              #  GTS NOT OPERATIVE
000143: 21,2667           37755                           CAF      BIT1
000144: 21,2670           54066        LOOPTEST           TS       QRCNTR
000145: 21,2671           50066                           INDEX    QRCNTR
000146: 21,2672           11467                           CCS      QDIFF                                 #  SCALED AT PI.
000147: 21,2673           62716                           AD       -TGBND+1                              #  -2 DEG SCALED AT PI, + 1 BIT.
000148: 21,2674           12676                           TCF      +2
000149: 21,2675           62716                           AD       -TGBND+1
000150: 21,2676           00006                           EXTEND
000151: 21,2677           62701                           BZMF     +2                                    #  IS ERROR MAG LESS,EQUAL 2 DEG.
000152: 21,2700           12720                           TCF      RCSCNTRL                              #  NO.   GO TO JETS.
000153: 21,2701           30066                           CA       QRCNTR                                #  YES.  TRY RATE MAGNITUDE.
000154: 21,2702           60000                           DOUBLE
000155: 21,2703           50000                           INDEX    A
000156: 21,2704           11417                           CCS      OMEGAQ                                #  SCALED AT PI/4.
000157: 21,2705           62717                           AD       -RATBD+1                              #  -.65 DEC/SEC SCALED AT PI/4  + 1 BIT
000158: 21,2706           12710                           TCF      +2
000159:
000160: 21,2707           62717                           AD       -RATBD+1
000161: 21,2710           00006                           EXTEND
000162: 21,2711           62713                           BZMF     +2                                    #  IS RATE MAG LESS,EQUAL .65 DEG/SEC.
000163: 21,2712           12720                           TCF      RCSCNTRL                              #  NO.    GO TO JETS.
000164: 21,2713           10066                           CCS      QRCNTR                                #  YES.  THIS AXIS IS FINE. ARE BOTH DONE.
000165: 21,2714           12670                           TCF      LOOPTEST                              #  TRY THE Q AXIS NOW.
000166: 21,2715           12765                           TCF      GTSRAXIS                              #  USE TRIM GIMBAL CONTROL.
000167: 21,2716           77512        -TGBND+1           OCT      77512                                 #  -2 DEG SCALED AT PI, + 1 BIT.
000168: 21,2717           77423        -RATBD+1           OCT      77423                                 #  -.65 DEG/SEC SCALED AT PI/4  + 1 BIT
000169:                                                                                                  #  ATTITUDE ERROR IS BEYOND TRIM GIMBAL CONTROL LAW RANGE.  SET UP FOR RCS CONTROL LAW (Q,R-AXIS) AND CALCULATE
000170:                                                                                                  #  TIMES TO TURN OFF THE GIMBAL DRIVES.
000171:
000172: 21,2720           32743        RCSCNTRL           CAF      POSTQRFL                              #  CHANGE LOCATION OF NEXT T5RUPT FROM
000173: 21,2721           55000                           TS       T5ADR                                 #  FILTER TO FILDUMMY
000174:
000175: 21,2722           00006                           EXTEND                                         #  SET UP POST P-AXIS T5RUPT TO GO TO
000176: 21,2723           32745                           DCA      QRJPFILT                              #  DUMMYFIL INSTEAD OF FILTER.  USE 2CADR
000177: 21,2724           53572                           DXCH     PFILTADR                              #  BECAUSE DUMMYFIL NOW IN BANK 16.
000178:
000179: 21,2725           00006                           EXTEND                                         #  PREPARE FOR SEQUENCED RESUMPTION OF
000180: 21,2726           30034                           DCA      CDUY                                  #  Q,R-AXIS RCS CONTROL RATE DERIVATION
000181: 21,2727           53431                           DXCH     OLDYFORQ                              #  BY PROVIDING OLD CDU READINGS
000182:
000183: 21,2730           00006                           EXTEND                                         #  MOVE FILTERED AND TRANSFORMED ATTITUDE
000184:


000186: 21,2731           31470                           DCA      QDIFF                                 #  ERRORS INTO ERASABLE FOR Q,R-AXIS RCS
000187: 21,2732           57470                           XCH      RERROR                                #  CONTROL; NOTR THAT THE AXES SEEM TO BE
000188: 21,2733           23467                           LXCH     QERROR                                #  INTERCHANGED BUT ARE NOT CONFUSED
000189:
000190: 21,2734           37755                           CAF      ONE
000191: 21,2735           05701                           TC       WAITLIST
000192: 21,2736  E6,1541                                  EBANK=   DT
000193: 21,2736           02750 42006                     2CADR    CHEKDRIV                              #  DO TGOFF CALCULATION IN WAITLIST TASK
000194:
000195: 21,2740           00006                           EXTEND                                         #  GO TO Q,R-AXES CONTROL IMMEDIATELY
000196: 21,2741           32747                           DCA      TGENTRY
000197: 21,2742           52006                           DTCB
000198:
000199: 21,2743           03011        POSTQRFL           GENADR   FILDUMMY
000200: 21,2744  E6,1656                                  EBANK=   AOSQTERM
000201: 21,2744           03631 34006  QRJPFILT           2CADR    DUMMYFIL                              #  NECESSARY BECAUSE DUMMYFIL IN BANK 16.
000202:
000203: 21,2746  E6,1541                                  EBANK=   DT
000204: 21,2746           02755 36006  TGENTRY            2CADR    STILLRCS
000205:
000206:
000207: 21,2750           37761        CHEKDRIV           CAF      ZERO                                  #  CALCULATE Q-AXIS GIMBAL DRIVE SHUTDOWN
000208: 21,2751           03441                           TC       TGOFFCAL
000209: 21,2752           05701                           TC       WAITLIST
000210: 21,2753  E6,1541                                  EBANK=   DT
000211: 21,2753           03367 42006                     2CADR    OFFGIMQ
000212:
000213: 21,2755           37754                           CAF      TWO                                   #  CALCULTAE R-AXIS GIMBAL DRIVE SHUTDOWN
000214: 21,2756           03441                           TC       TGOFFCAL
000215: 21,2757           05701                           TC       WAITLIST
000216:
000217: 21,2760  E6,1541                                  EBANK=   DT
000218: 21,2760           03372 42006                     2CADR    OFFGIMR
000219:
000220: 21,2762           03377                           TC       WRCHN12                               #  SET UP DRIVES AS OF NOW
000221:
000222: 21,2763           15745                           TCF      TASKOVER
000223:


000225:
000226:                                                                                                  #  THE DRIVE SETTING ALGORITHM
000227:                                                                                                  #  DEL = SGN(OMEGA.K + SGN(ALPHA)ALPHA(2)/2)    ONLY +1/-1
000228:
000229:                                                                                                  #  NEGUSUM = ERROR.K(2) + DEL((OMEGA.K.DEL + ALPHA(2)/2)(3/2) + ALPHA(OMEGA.K.DEL + ALPHA(2)/3)
000230:
000231:                                                                                                  #  DRIVE = -SGN(NEGUSUM)
000232:
000233: 21,2764           76504        -.04266            DEC      -.04266
000234: 21,2765           37754        GTSRAXIS           CAF      TWO                                   #  SET INDEXER FOR R-AXIS CALCULATIONS
000235: 21,2766           54066                           TS       QRCNTR
000236: 21,2767           12772                           TCF      GTSQAXIS
000237:
000238: 21,2770           37761        GOQTRIMG           CAF      ZERO                                  #  SET INDEXER FOR Q-AXIS CALCULATIONS
000239: 21,2771           54066                           TS       QRCNTR
000240:
000241: 21,2772           00006        GTSQAXIS           EXTEND
000242: 21,2773           50066                           INDEX    QRCNTR                                #  PICK UP K AND K(2) FOR THIS AXIS
000243: 21,2774           31526                           DCA      KQ
000244: 21,2775           52062                           DXCH     KCENTRAL
000245:
000246: 21,2776           00006                           EXTEND
000247: 21,2777           50066                           INDEX    QRCNTR                                #  PICK UP OMEGA AND ALPHA FOR THIS AXIS
000248: 21,3000           31420                           DCA      OMEGAQ
000249: 21,3001           52064                           DXCH     WCENTRAL
000250:
000251: 21,3002           30066                           CAE      QRCNTR
000252: 21,3003           00006                           EXTEND
000253: 21,3004           13007                           BZF      +3
000254: 21,3005           31470                           CAE      RDIFF
000255: 21,3006           13010                           TCF      +2
000256: 21,3007           31467                           CAE      QDIFF
000257:
000258: 21,3010           00006                           EXTEND                                         #  RESCALE DIFFERENCE BY MULTIPLYING BY
000259: 21,3011           77747                           MP       BIT7                                  #  2(6)
000260: 21,3012           22071                           LXCH     ETHETA
000261:
000262: 21,3013           30061                           CAE      KCENTRAL                              #  TEST ON MAGNITUDE OF ACCDOT
000263: 21,3014           62764                           AD       -.04266
000264:
000265: 21,3015           00006                           EXTEND
000266: 21,3016           63032                           BZMF     ACCDOTSM                              #  BRANCH IF ACCDOT IS SMALL
000267:
000268: 21,3017           37740        ACCDOTLG           CAF      BIT14                                 #  ACCDOT IS COMPARITIVELY LARGE
000269: 21,3020           54072                           TS       SF1                                   #  SET UP SCALE FACTORS
000270: 21,3021           37742                           CAF      BIT12
000271: 21,3022           54073        WSFTEST            TS       SF2
000272:
000273: 21,3023           10063                           CCS      WCENTRAL                              #  TEST ON MAGNITUDE OF OMEGA
000274: 21,3024           63055                           AD       -.04438
000275: 21,3025           13027                           TCF      +2
000276: 21,3026           63055                           AD       -.04438
000277:


000279: 21,3027           00006                           EXTEND
000280: 21,3030           63046                           BZMF     ASFTEST                               #  IF SMALL, GO TO ALPHA TEST
000281:
000282: 21,3031           13070                           TCF      WLARGE
000283:
000284: 21,3032           30061        ACCDOTSM           CAE      KCENTRAL                              #  RESCALE IF ACCDOT IS SMALL
000285: 21,3033           00006                           EXTEND
000286: 21,3034           77751                           MP       BIT5                                  #  RESCALE K BY MULTIPLYING BY 2(4)
000287: 21,3035           22061                           LXCH     KCENTRAL
000288: 21,3036           30061                           CAE      KCENTRAL
000289: 21,3037           00006                           EXTEND
000290: 21,3040           70000                           SQUARE
000291: 21,3041           54062                           TS       K2CNTRAL
000292: 21,3042           37744                           CAF      BIT10                                 #  SET UP VARIABLE SCALE FACTORS
000293: 21,3043           54072                           TS       SF1
000294: 21,3044           37752                           CAF      BIT4
000295: 21,3045           13022                           TCF      WSFTEST                               #  GO TEST ON MAGNITUDE OF OMEGA
000296:
000297: 21,3046           10064        ASFTEST            CCS      ACENTRAL                              #  TEST ON MAGNITUDE OF ALPHA
000298:
000299: 21,3047           63056                           AD       -.08882
000300: 21,3050           13052                           TCF      +2
000301: 21,3051           63056                           AD       -.08882
000302: 21,3052           00006                           EXTEND
000303: 21,3053           63057                           BZMF     WARESCAL                              #  IF SMALL, GO TO W,A RESCALING
000304: 21,3054           13070                           TCF      WLARGE                                #  IF LARGE, DO SAME AS IF W LARGE
000305:
000306: 21,3055           76450        -.04438            DEC      -.04438
000307: 21,3056           75120        -.08882            DEC      -.08882
000308:
000309: 21,3057           30063        WARESCAL           CAE      WCENTRAL                              #  RESCALE OMEGA BY MULTIPLYING BY 2(4)
000310: 21,3060           00006                           EXTEND
000311: 21,3061           77751                           MP       BIT5
000312: 21,3062           22063                           LXCH     WCENTRAL
000313:
000314: 21,3063           30064                           CAE      ACENTRAL                              #  RESCALE ALPHA BY MULTIPLYING BY 2(3)
000315: 21,3064           00006                           EXTEND
000316: 21,3065           77752                           MP       BIT4
000317: 21,3066           22064                           LXCH     ACENTRAL
000318:
000319: 21,3067           13100                           TCF      ALGORTHM
000320:
000321: 21,3070           30072        WLARGE             CAE      SF1                                   #  RESCALE VARIABLE SCALE FACTORS
000322:
000323: 21,3071           00006                           EXTEND
000324: 21,3072           77741                           MP       BIT13                                 #  SF1 = SF1*2(-2)
000325: 21,3073           54072                           TS       SF1
000326: 21,3074           30073                           CAE      SF2
000327: 21,3075           00006                           EXTEND
000328: 21,3076           77750                           MP       BIT6                                  #  SF2 = SF2*2(-9)
000329: 21,3077           54073                           TS       SF2
000330:


000332: 21,3100           30071        ALGORTHM           CAE      ETHETA                                #  GET RESCALED ERROR THETA
000333: 21,3101           00006                           EXTEND
000334:
000335: 21,3102           70062                           MP       K2CNTRAL                              #  FORM K(2)*THETA IN D.P.
000336: 21,3103           22070                           LXCH     K2THETA
000337: 21,3104           00006                           EXTEND                                         #  FORM K(2)*THETA*SF2 IN D.P.
000338: 21,3105           70073                           MP       SF2
000339: 21,3106           52071                           DXCH     K2THETA
000340: 21,3107           00006                           EXTEND
000341: 21,3110           70073                           MP       SF2
000342: 21,3111           26071                           ADS      K2THETA    +1
000343:
000344: 21,3112           30063                           CA       WCENTRAL                              #  GET OMEGA
000345: 21,3113           00006                           EXTEND
000346: 21,3114           70061                           MP       KCENTRAL                              #  FORM K*OMEGA IN D.P.
000347: 21,3115           22061                           LXCH     OMEGA.K
000348: 21,3116           00006                           EXTEND                                         #  FORM OMEGA*K*SF1 IN D.P.
000349: 21,3117           70072                           MP       SF1
000350: 21,3120           52062                           DXCH     OMEGA.K
000351: 21,3121           00006                           EXTEND
000352: 21,3122           70072                           MP       SF1
000353: 21,3123           26062                           ADS      OMEGA.K    +1
000354:
000355: 21,3124           30064                           CA       ACENTRAL                              #  FORM ALPHA(2) IN D.P.
000356: 21,3125           00006                           EXTEND
000357: 21,3126           70000                           SQUARE
000358:
000359: 21,3127           52073                           DXCH     A2CNTRAL
000360:
000361: 21,3130           30064                           CAE      ACENTRAL                              #  GET SGN(ALPHA)
000362: 21,3131           00006                           EXTEND
000363: 21,3132           63136                           BZMF     +4
000364: 21,3133           00006                           EXTEND
000365: 21,3134           30073                           DCA      A2CNTRAL
000366: 21,3135           13140                           TCF      +3
000367: 21,3136           00006                           EXTEND
000368: 21,3137           40073                           DCS      A2CNTRAL
000369: 21,3140           53521                           DXCH     FUNCTION                              #  SAVE AS SGN(ALPHA)ALPHA(2)
000370: 21,3141           00006                           EXTEND
000371: 21,3142           30062                           DCA      OMEGA.K
000372: 21,3143           21521                           DAS      FUNCTION                              #  FORM FUNCT1
000373:
000374: 21,3144           11520                           CCS      FUNCTION                              #  DEL = SGN(FUNCT1)
000375: 21,3145           13151                           TCF      POSFNCT1
000376: 21,3146           13150                           TCF      +2
000377: 21,3147           13153                           TCF      NEGFNCT1
000378:
000379: 21,3150           11521                           CCS      FUNCTION   +1                         #  USE LOW ORDER WORD DINCE HIGH IS ZERO
000380: 21,3151           37754        POSFNCT1           CAF      TWO
000381: 21,3152           13154                           TCF      +2
000382:
000383: 21,3153           37761        NEGFNCT1           CAF      ZERO
000384: 21,3154           67763                           AD       NEG1
000385:


000387: 21,3155           54065                           TS       DEL
000388:
000389: 21,3156           10065                           CCS      DEL                                   #  MAKE OMEGA*K REALLY DEL*OMEGA*K
000390: 21,3157           13164                           TCF      FUNCT2                                #  (NOTHING NEED BE DONE)
000391: 21,3160           25253        .66667             DEC      .66667
000392: 21,3161           00006                           EXTEND
000393: 21,3162           40062                           DCS      OMEGA.K
000394: 21,3163           52062                           DXCH     OMEGA.K                               #  CHANGE SIGN OF OMEGA.K
000395:
000396: 21,3164           00006        FUNCT2             EXTEND
000397: 21,3165           30062                           DCA      OMEGA.K
000398: 21,3166           53521                           DXCH     FUNCTION                              #  DEL*OMEGA*K
000399: 21,3167           00006                           EXTEND
000400: 21,3170           30073                           DCA      A2CNTRAL
000401: 21,3171           21521                           DAS      FUNCTION                              #  DEL*OMEGA*K + SGN(ALPHA)ALPHA(2)
000402:
000403: 21,3172           30072        FUNCT3             CAE      A2CNTRAL                              #  CALCULATE (2/3)SGN(ALPHA)ALPHA(2)
000404: 21,3173           00006                           EXTEND
000405: 21,3174           73160                           MP       .66667
000406: 21,3175           52073                           DXCH     A2CNTRAL
000407: 21,3176           56001                           XCH      L
000408: 21,3177           00006                           EXTEND
000409: 21,3200           73160                           MP       .66667
000410: 21,3201           26073                           ADS      A2CNTRAL   +1
000411: 21,3202           54001                           TS       L
000412: 21,3203           13205                           TCF      +2
000413: 21,3204           60072                           AD       A2CNTRAL
000414:
000415: 21,3205           52062                           DXCH     OMEGA.K                               #  DEL*OMEGA*K+
000416: 21,3206           20073                           DAS      A2CNTRAL                              #  (2/3)SGN(ALPHAALPHA(2)=G
000417:
000418: 21,3207           30072                           CAE      A2CNTRAL                              #  G*ALPHA IN D.P.
000419:
000420: 21,3210           00006                           EXTEND
000421: 21,3211           70064                           MP       ACENTRAL
000422: 21,3212           52073                           DXCH     A2CNTRAL
000423: 21,3213           56001                           XCH      L
000424: 21,3214           00006                           EXTEND
000425: 21,3215           70064                           MP       ACENTRAL
000426: 21,3216           26073                           ADS      A2CNTRAL   +1
000427: 21,3217           54001                           TS       L
000428: 21,3220           13222                           TCF      +2
000429: 21,3221           26072                           ADS      A2CNTRAL
000430:
000431: 21,3222           52073                           DXCH     A2CNTRAL                              #  FIRST AND THIRD TERMS
000432: 21,3223           20071                           DAS      K2THETA                               #  SUMMED IN D.P.
000433:
000434:                                                                                                  #  THE FOLLOWING SECTION CALCULATES .707*DEL*FUNCTION(3/2) AND ADDS IT TO THE OTHER TWO TERMS OF NEGUSUM.
000435:
000436: 21,3224           11520                           CCS      FUNCTION                              #  TEST FOR HIHJ ORDER WORD NON-ZERO
000437: 21,3225           13272                           TCF      FMAGTEST                              #  YES, SEE IF RESCALING IS NECESSARY
000438:


000440: 21,3226           13230                           TCF      +2                                    #  NO, USE LOW ORDER WORD ONLY
000441: 21,3227           26501        .707GTS            DEC      .70711                                #  (CCS HOLE USED FOR DATA)
000442: 21,3230           05041                           TC       T6JOBCHK
000443:
000444: 21,3231           31521                           CAE      FUNCTION   +1                         #  USE LOW ORDER WORD ONLY
000445: 21,3232           05435                           TC       SPROOT                                #  SQUARE ROOT SUBROUTINE CALL
000446: 21,3233           00006                           EXTEND                                         #          3/2
000447: 21,3234           71521                           MP       FUNCTION   +1                         #  FUNCTION
000448: 21,3235           00006                           EXTEND                                         #  (NEEDS TO BE SHIFTED RIGHT 21 PLACES)
000449: 21,3236           77746                           MP       BIT8
000450: 21,3237           56001                           XCH      L
000451: 21,3240           37761                           CAF      ZERO                                  #               3/2
000452: 21,3241           53521                           DXCH     FUNCTION                              #  SAVE FUNCTION    IN FUNCTION LOCATION
000453: 21,3242           13257                           TCF      DELTEST
000454:
000455: 21,3243           31520        SQRESCAL           CAE      FUNCTION                              #  HIGH ORDER WORD OF FUNCTION NEEDS TO BE
000456: 21,3244           00006                           EXTEND                                         #  RESCALED FOR ACCURACY, SO MUTLIPLY D.P.
000457: 21,3245           77747                           MP       BIT7                                  #  VALUE BY 2(6)
000458: 21,3246           23520                           LXCH     FUNCTION
000459: 21,3247           37761                           CAF      ZERO
000460: 21,3250           57521                           XCH      FUNCTION   +1
000461: 21,3251           00006                           EXTEND
000462: 21,3252           77747                           MP       BIT7
000463: 21,3253           21521                           DAS      FUNCTION
000464:
000465: 21,3254           37761                           CAF      ZERO                                  #  SET FLAG TO GO TO RESCALE, AND GO TO DO
000466: 21,3255           55517                           TS       MULTFLAG                              #  SQUARE ROOT AND FUNTION(3/2)
000467: 21,3256           13277                           TCF      DOSPROOT
000468:
000469: 21,3257           47735        DELTEST            CS       POSMAX                                #  SET FLAG TO GO TO NEGUSUM
000470: 21,3260           55517                           TS       MULTFLAG
000471: 21,3261           10065                           CCS      DEL                                   #  GET DEL*.707
000472: 21,3262           33227                           CAF      .707GTS
000473: 21,3263           13265                           TCF      +2
000474: 21,3264           43227                           CS       .707GTS
000475: 21,3265           13301                           TCF      SPDMULT                               #  GO TO MULTIPLY ROUTINE
000476:
000477: 21,3266           37735        RESHIFT            CAF      POSMAX                                #  SET FLAG TO GO TO DELTEST
000478:
000479: 21,3267           55517                           TS       MULTFLAG
000480: 21,3270           37750                           CAF      BIT6
000481: 21,3271           13301                           TCF      SPDMULT                               #  GOTO MULTIPLY ROUTINR
000482:
000483: 21,3272           65522        FMAGTEST           AD       63/64+1                               #  IF MAGNITUDE OF HIGH ORDER WORD IS LESS
000484: 21,3273           54000                           OVSK                                           #  THAN 1/64 RESCALE WHOLE D.P. WORD
000485: 21,3274           13243                           TCF      SQRESCAL
000486:
000487: 21,3275           37735                           CAF      POSMAX
000488: 21,3276           55517                           TS       MULTFLAG
000489:
000490: 21,3277           31520        DOSPROOT           CAE      FUNCTION                              #  USE HIGH ORDER WORD ONLY
000491:


000493: 21,3300           05435                           TC       SPROOT                                #  SQUARE ROOT SUBROUTINE CALL
000494:
000495: 21,3301           57520        SPDMULT            XCH      FUNCTION                              #  THIS IS AN OPEN SUBROUTINE WHICH USES
000496: 21,3302           00006                           EXTEND                                         #  MULTFLAG AS A RETURN SWITCH.
000497: 21,3303           71520                           MP       FUNCTION                              #  IT MULTIPLIES FUNCTION (D.P.) BY C(A)
000498: 21,3304           53521                           DXCH     FUNCTION                              #  AND LEAVES THE RESULT IN FUNCTION (D.P.)
000499: 21,3305           00006                           EXTEND                                         #  IT IS USED FOR-
000500: 21,3306           70001                           MP       L                                     #  1) F(1/2)*F
000501: 21,3307           27521                           ADS      FUNCTION   +1                         #  2) (.707*DEL)*F
000502: 21,3310           54001                           TS       L                                     #  3) 2(-9)*F
000503: 21,3311           13313                           TCF      +2
000504: 21,3312           27520                           ADS      FUNCTION
000505:
000506: 21,3313           11517                           CCS      MULTFLAG                              #  POSMAX MEANS GO TO DELTEST
000507: 21,3314           13257                           TCF      DELTEST                               #  ZERO   MEANS GO TO RESHIFT
000508: 21,3315           13266                           TCF      RESHIFT                               #  NEGMAX MEANS GO TO NEGUSUM
000509:
000510: 21,3316           00006        NEGUSUM            EXTEND                                         #  FORM FINAL SUM FOR NEGUSUM
000511: 21,3317           31521                           DCA      FUNCTION
000512:
000513: 21,3320           20071                           DAS      K2THETA
000514:
000515: 21,3321           10070                           CCS      K2THETA                               #  TEST FOR ZERO HIGH ORDER PART
000516: 21,3322           13326                           TCF      NEGDRIVE
000517: 21,3323           13325                           TCF      +2
000518: 21,3324           13330                           TCF      POSDRIVE
000519:
000520: 21,3325           10071                           CCS      K2THETA    +1                         #  SIGN TEST ON LOW ORDER PART
000521: 21,3326           37754        NEGDRIVE           CAF      TWO
000522: 21,3327           13331                           TCF      +2
000523: 21,3330           37761        POSDRIVE           CAF      ZERO
000524: 21,3331           67763                           AD       NEG1
000525: 21,3332           50066                           INDEX    ITEMP6                                #  SET NEGUQ,R TO NEG DRIVE
000526: 21,3333           55522                           TS       NEGUQ
000527:
000528: 21,3334           40000                           COM
000529: 21,3335           00006                           EXTEND                                         #  SEND BACK JERK TERM
000530: 21,3336           50066                           INDEX    ITEMP6
000531: 21,3337           71531                           MP       ACCDOTQ
000532: 21,3340           50066                           INDEX    ITEMP6
000533: 21,3341           23532                           LXCH     QACCDOT
000534:
000535: 21,3342           10066                           CCS      QRCNTR                                #  LOOP COUNTER
000536:
000537: 21,3343           12770                           TCF      GOQTRIMG
000538:
000539:                                                                                                  #  TRANSFORM JERKS BACK TO GIMBAL AXES.
000540:
000541: 21,3344           31532                           CAE      QACCDOT                               #  SCALED AT PI/2(7)
000542: 21,3345           00006                           EXTEND
000543: 21,3346           71400                           MP       MR12                                  #  SCALED AT 2
000544: 21,3347           55566                           TS       Y3DOT
000545:


000547: 21,3350           31534                           CAE      RACCDOT                               #  SCALED AT PI/2(7)
000548: 21,3351           00006                           EXTEND
000549:
000550: 21,3352           71402                           MP       MR13                                  #  SCALED AT 2
000551: 21,3353           27566                           ADS      Y3DOT
000552: 21,3354           27566                           ADS      Y3DOT                                 #  SCALED AT PI/2(7)
000553:
000554: 21,3355           31532                           CAE      QACCDOT                               #  SCALED AT PI/2(7)
000555: 21,3356           00006                           EXTEND
000556: 21,3357           71401                           MP       MR22                                  #  SCALED AT 1
000557: 21,3360           55570                           TS       Z3DOT
000558: 21,3361           31534                           CAE      RACCDOT                               #  SCALED AT PI/2(7)
000559: 21,3362           00006                           EXTEND
000560: 21,3363           71403                           MP       MR23                                  #  SCALED AT 1
000561: 21,3364           27570                           ADS      Z3DOT                                 #  SCALED AT PI/2(7)
000562:
000563: 21,3365           03377                           TC       WRCHN12                               #  SEND GIMBAL DRIVES TO SERVOS
000564: 21,3366           15751                           TCF      RESUME                                #  WAIT UNTIL NEXT TRIM GIMBAL RUPT
000565:
000566:                                                                                                  #  WAITLIST TASKS TO SET TRIM GIMBAL TURN OFF BITS.
000567:
000568: 21,3367           37761        OFFGIMQ            CAF      ZERO                                  #  SET Q-AXIS FLAG TO ZERO
000569: 21,3370           55522                           TS       NEGUQ
000570: 21,3371           13374                           TCF      +3
000571: 21,3372           37761        OFFGIMR            CAF      ZERO                                  #  SET R-AXIS FLAG TO ZERO
000572: 21,3373           55524                           TS       NEGUR
000573:
000574: 21,3374           03377                           TC       WRCHN12                               #  FLAGS TO CHANNEL BITS
000575: 21,3375           15745                           TCF      TASKOVER
000576:
000577:                                                                                                  #  THE WRCHN12 SUBROUTINE SETS BITS 9,10,11,12 OF CHANNEL 12 ON THE BASIS OF THE CONTENTS OF NEGUQ,NEGUR WHICH ARE
000578:                                                                                                  #  THE NEGATIVES OF THE TRIM GIMBAL DESIRED DRIVES.
000579:
000580: 21,3376           07400        BGIM               OCTAL    07400
000581: 21,3377     0066               CHNL12             EQUALS   ITEMP6
000582:
000583: 21,3377           43376        WRCHN12            CS       BGIM                                  #  SAVE THE REST OF CHANNEL 12 DURING TESTS
000584: 21,3400           00006                           EXTEND
000585: 21,3401           02012                           RAND     12
000586: 21,3402           54066                           TS       CHNL12                                #  (TEMPORARY STORAGE)
000587:
000588: 21,3403           11522                           CCS      NEGUQ
000589: 21,3404           37745                           CAF      BIT9
000590: 21,3405           13407                           TCF      +2
000591: 21,3406           37744                           CAF      BIT10
000592: 21,3407           26066                           ADS      CHNL12
000593:
000594: 21,3410           11524                           CCS      NEGUR
000595: 21,3411           37743                           CAF      BIT11
000596: 21,3412           13414                           TCF      +2
000597:
000598: 21,3413           37742                           CAF      BIT12
000599: 21,3414           26066                           ADS      CHNL12                                #  (STORED RESULT NOT USED AT PRESENT)
000600:


000602: 21,3415           00006                           EXTEND
000603: 21,3416           01012                           WRITE    12
000604:
000605: 21,3417           00002                           TC       Q                                     #  SIMPLE RETURN ALWAYS
000606:
000607:                                                                                                  #  Q,R-TRANSF TRANSFORMS A Y,Z GIMBAL COORDINATE VARIABLE PAIR (IN A,L) TO PILOT COORDINATES (Q/R), RETURNED IN A.
000608:                                                                                                  #  (THE MATRIX M FROM GIMBAL TO PILOT AXES IS ASSUMED TO BE DONE BY T4RUPT AND SCALED AT +1.)
000609:
000610: 21,3420     0066               QRERAS             EQUALS   ITEMP6
000611:
000612: 21,3420           22066        QTRANSF            LXCH     QRERAS                                #  SAVE Z-AXIS VARIABLE
000613: 21,3421           00006                           EXTEND
000614: 21,3422           71405                           MP       M21                                   #  (Y-AXIS)*M21
000615: 21,3423           56066                           XCH      QRERAS                                #  SAVE, GET Z-AXIS VARIABLE
000616: 21,3424           00006                           EXTEND
000617: 21,3425           71401                           MP       M22                                   #  (Z-AXIS)*M22
000618: 21,3426           60066                           AD       QRERAS                                #  SUM = (Y-AXIS)*M21 + (Z-AXIS)*M22
000619: 21,3427           00002                           TC       Q                                     #  RETURN WITH SUM IN A
000620:
000621: 21,3430           22066        RTRANSF            LXCH     QRERAS                                #  SAVE Z-AXIS VARIABLE
000622: 21,3431           00006                           EXTEND
000623: 21,3432           71406                           MP       M31                                   #  (Y-AXIS)*M31
000624: 21,3433           56066                           XCH      QRERAS                                #  SAVE, GET Z-AXIS VARIABLE
000625: 21,3434           00006                           EXTEND
000626: 21,3435           71403                           MP       M32                                   #  (Z-AXIS)*M32
000627: 21,3436           60066                           AD       QRERAS                                #  SUM = (Y-AXIS)*M31 + (Z-AXIS)*M32
000628: 21,3437           00002                           TC       Q                                     #  RETURN WITH SUM IN A
000629:
000630: 21,3440           25253        (2/3)              DEC      0.66667
000631:


000633:                                                                                                  #  SUBROUTINE: TGOFFCAL            MOD. NO. 1  DATE: AUGUST 22, 1966
000634:
000635:                                                                                                  #  PROGRAM DESIGN BY: RICHARD D. GOSS (MIT/IL)
000636:
000637:                                                                                                  #  PROGRAM IMPLEMENTATION BY: JONATHAN D. ADDELSTON (ADAMS ASSOCIATES)
000638:
000639:                                                                                                  #  MODIFIED 30 NOV 66, TO USE ACCDOTQ AND ACCDOTR.              CRAIG WORK
000640:                                                                                                  #  THIS SUBROUTINE CALCULATES THE TRIM GIMBAL SHUTDOWN TIME FOR EITHER THE Q OR THE R AXIS (DEPENDING ON THE
000641:                                                                                                  #  CALLING SEQUENCE).  THIS TIME IS SCALED FOR IMMEDIATE USE BY A WAITLIST CALL AS SHOWN IN THE CALLING SEQUENCES.
000642:                                                                                                  #  IF THE TIME-TO-GO IS MORE THAN TWO MINUTES, IT IS LIMITED TO TWO MINUTES DUE TO THE WAITLIST SPECIFICATION.  IF
000643:                                                                                                  #  THE TIME-TO-GO IS LESS THAN TEN MILLISECONDS, THE SHUTDOWN IS PERFORMED IMMEDIATELY AND THE WAITLIST CALL IS
000644:                                                                                                  #  BY-PASSED.
000645:
000646:                                                                                                  #  THESE TIME-TO-GO CALCULATIONS ARE DESIGNED TO DRIVE THE TRIM GIMBAL TO A POSITION WHERE THE DESCENT ENGINE WILL
000647:
000648:                                                                                                  #  CAUSE NO ANGULAR ACCELERATION.  THIS SUBROUTINE IS CALLED ONLY FROM THE WAITLIST TASK CHEKDRIV WHICH IS
000649:                                                                                                  #  INITIATED ONLY WHEN THE TRIM GIMBAL CONTROL LAW HAS LOST CONTROL OF THE LEM VEHICLE ATTITUDE AND MUST RETURN TO
000650:                                                                                                  #  THE USE OF REACTION CONTROL SYSTEM JETS.
000651:
000652:                                                                                                  #  CALLING SEQUENCES:
000653:
000654:                                                                                                  #                      26,1000  3 7657 1            CAF    ZERO            Q-AXIS INDEXER
000655:                                                                                                  #                      26,1001  0 $$$$ $            TC     TGOFFCAL        CALL TGOFFCAL (*** REPLACE $$ ***)
000656:                                                                                                  #                      26,1002  0 4511 0            TC     WAITLIST        CALL WAITLIST WITH CALCULATED TIME
000657:                                                                                                  #                      26,1003   0$$$$ $            2CADR  OFFGIMQ         2CADR OF Q-AXIS SHUTDOWN PROGRAM
000658:                                                                                                  #                      26,1004   54006 1
000659:
000660:                                                                                                  #                      26,1005  3 7657 1            CAF     TWO            R-AXIS INDEXER
000661:                                                                                                  #                      26,1006  0 $$$$ $            TC      TGOFFCAL       CALL TGOFFCAL (*** REPLACE $$ ***)
000662:                                                                                                  #                      26,1007  0 4511 0            TC      WAITLIST       CALL WAITLIST WITH CALCULATED TIME
000663:                                                                                                  #                      26,1010   0$$$$ $            2CADR   OFFGIMR        2CADR OF R-AXIS SHUTDOWN PROGRAM
000664:                                                                                                  #                      26,10022  54006 1
000665:
000666:                                                                                                  #  SUBROUTINES CALLED: NONE, BUT WRCHNL12 IS CALLED AFTER BOTH TGOFFCALL CALLS.
000667:
000668:                                                                                                  #  NORMAL EXITS: TO WAITLIST CALL OR BEYOND 2CADR IN CALLING SEQUENCE AS SPECIFIED ABOVE.
000669:
000670:                                                                                                  #  ALARM OR ABORT EXIT MODES: NONE
000671:
000672:                                                                                                  #  INPUT: 1. THE AXIS INDEXER: 0 FOR Q, 2 FOR R (SEE CALLING SEQUENCES)
000673:                                                                                                  #         2. THE SIGNED TIME DERIVATIVE OF ACCELERATION (QACCDOT OR RACCDOT) SCALED AT PI/2(7) RAD/SEC(3).
000674:                                                                                                  #         3. THE ACCELERATION APPROXIMATION FROM THE DESCENT KALMAN FILTER TRANSFORMED TO PILOT AXES (ALPHAQ OR
000675:                                                                                                  #  ALPHAR) SCALED AT PI/8 RAD/SEC(2).
000676:
000677:                                                                                                  #         4. CHANNEL 12 CONTAINS THE GIMBAL DRIVES AND OTHER BITS.
000678:                                                                                                  #  OUTPUT 5. THE NEGATIVE GIMBAL DRIVE FLAG (NEGUQ AND NEGUR) WHERE A +1 BIT REQUESTS POSITIVE GIMBAL DRIVE
000679:                                                                                                  #            (ANGULAR ACCELERATION DECREASING), A -1 BIT REQUESTS NEGATIVE GIMBAL DRIVE (ANG. ACC. INCREASING).
000680:                                                                                                  #            A ZERO INDICATES NO DRIVE.
000681:                                                                                                  #         6. TIME REQUIRED TO ZERO ACCELERATION, SCALED FOR WAITLIST
000682:
000683:                                                                                                  #  ERASABLE STORAGE CONFIGURATION (NEEDED BY THE INDEXING METHODS):
000684:


000686:
000687:                                                                                                  #                                          NEGUQ    ERASE   +2             NEGATIVE OF Q-AXIS GIMBAL DRIVE
000688:                                                                                                  #                                          (SPWORD) EQUALS NEGUQ +1        ANY S.P. ERASABLE NUMBER, NOW THRSTCMD
000689:                                                                                                  #                                          NEGUR    EQUALS NEGUQ +2        NEGATIVE OF R-AXIS GIMBAL DRIVE
000690:
000691:                                                                                                  #                                          ACCDOTQ  ERASE   +2             Q-JERK TERM SCALED AT PI/2(7) RAD/SEC(3)
000692:                                                                                                  #                                          (SPWORD) EQUALS ACCDOTQ +1      ANY S.P. ERASABLE NUMBER  NOW QACCDOT
000693:                                                                                                  #                                          ACCDOTR  EQUALS ACCDOTQ +2      R-JERK TERM SCALED AT PI/2(7) RAD/SEC(3)
000694:                                                                                                  #                                                                          ACCDOTQ,ACCDOTR ARE MAGNITUDES.
000695:                                                                                                  #                                          ALPHAQ   ERASE   +2             Q-AXIS ACCELERATION SCALED AT PI/8 R/S2
000696:                                                                                                  #                                          (SPWORD) EQUALS ALPHAQ +1       ANY S.P. ERASABLE NUMBER, NOW OMEGAR
000697:                                                                                                  #                                          ALPHAR   EQUALS ALPHAQ +2       R-AXIS ACCELERATION SCALED AT PI/8 R/S2
000698:                                                                                                  #                                                                          NOTE: NOW OMEGAP,OMEGAQ PRECEDE ALPHAQ
000699:
000700:                                                                                                  #  DEBRIS: L, Q, ITEMP1, ITEMP2, ITEMP6
000701:
000702:
000703: 21,3441           54061        TGOFFCAL           TS       QRNDXER                               #  Q OR R AXIS INDEXER
000704: 21,3442           50061                           INDEX    QRNDXER                               #  GET JERK TERM MAGNITUDE SCALED AT
000705:
000706: 21,3443           31531                           CAE      ACCDOTQ                               #       PI/2(7) IN RADIANS/SEC(3).
000707: 21,3444           00006                           EXTEND                                         #  UNLESS THETA TRIPLE-DOT MAGNITUDE IS NON
000708: 21,3445           63525                           BZMF     TGOFFNOW                              #       -ZERO, SET DRIVE TO ZERO NOW.
000709: 21,3446           54062                           TS       NZACCDOT                              #  SAVE NON-ZERO DENOMINATOR.
000710: 21,3447           50061                           INDEX    QRNDXER                               #  INITIALIZE THE AOSTERM WHICH WILL BE UP-
000711: 21,3450           31420                           CAE      ALPHAQ                                #  DATED IN THE DUMMYFIL CALCULATION FOR
000712: 21,3451           00006                           EXTEND                                         #  USE IN THE QRAXIS RATE DERIVATION.  SET
000713: 21,3452           73535                           MP       .1-.05K)                              #  AOSTERM TO ALPHA*CSP*(1-.5*K), WHERE CSP
000714: 21,3453           56001                           XCH      L                                     #  IS .1 SEC, K IS .5   THEN AOSTERM IS SET
000715: 21,3454           10061                           CCS      QRNDXER                               #  TO .075*ALPHA, SCALED AT PI/4,WHILE
000716: 21,3455           50000                           INDEX    A                                     #  ALPHA IS SCALED AT PI/8( THE CONSTANT IS
000717: 21,3456           23656                           LXCH     AOSQTERM                              #  SCALED AT 2.
000718: 21,3457           50061                           INDEX    QRNDXER                               #  GET ACCELERATION SCALED AT PI/8
000719: 21,3460           31420                           CAE      ALPHAQ                                #       RAD/SEC(2).
000720: 21,3461           00006                           EXTEND                                         #  IF ACCELERATION IS ALREADY ZERO, EXIT.
000721: 21,3462           13525                           BZF      TGOFFNOW                              #  OTHERWISE, PROCEED WITH NON-ZERO ALPHA.
000722: 21,3463           00006                           EXTEND                                         #  SET NEGUQ TO THE SIGN OF ALPHA. THEN USE
000723: 21,3464           63470                           BZMF     NEGALPH                               #    THE MAGNITUDE OF ALPHA TO COMPUTE TIME
000724: 21,3465           54066                           TS       ITEMP6
000725: 21,3466           37755                           CAF      BIT1
000726: 21,3467           13473                           TCF      +4
000727: 21,3470           40000        NEGALPH            CS       A
000728: 21,3471           54066                           TS       ITEMP6
000729:
000730: 21,3472           47755                           CS       BIT1
000731: 21,3473           50061                           INDEX    QRNDXER                               #  STORE THE DRIVE DIRECTION FLAG
000732: 21,3474           55522                           TS       NEGUQ                                 #  TIME = MAGNITUDE OF (ALPHA/ACCDOT),
000733: 21,3475           40000                           COM                                            #  LEAVES THE SIGN OF Q(R)ACCDOT IN A.
000734: 21,3476           00006                           EXTEND                                         #  STORE ACCDOT TO REFLECT THE CHANGE IN
000735: 21,3477           50061                           INDEX    QRNDXER                               #  GIMBAL DRIVE DIRECTION (POSSIBLE).  THIS
000736: 21,3500           71531                           MP       ACCDOTQ                               #  CAN BE ESSENTIAL FOR DUMMYFIL, IN CASE
000737: 21,3501           50061                           INDEX    QRNDXER                               #  Q(R)ACCDOT IS NOT INITIALIZED BEFORE
000738:


000740: 21,3502           23532                           LXCH     QACCDOT                               #  EXECUTING DUMMYFIL.
000741: 21,3503           30066                           CAE      ITEMP6
000742:
000743: 21,3504           00006                           EXTEND                                         #  MULTIPLY BY 1/16
000744: 21,3505           77743                           MP       BIT11                                 #  TO CHANGE SCALING TO 2PI RAD/SEC(2)
000745: 21,3506           00006                           EXTEND                                         #  ACCDOT SCALED AT PI/2(7) IN DENOMINATOR
000746: 21,3507           10062                           DV       NZACCDOT                              #  YIELDS TIME SCALED AT 256 SECONDS
000747: 21,3510           63533                           AD       -2MIN256                              #  COMPARE WITH MAXIMUM 2 MINUTE DELAY OF
000748: 21,3511           10000                           CCS      A                                     #  WAITLIST ACTION (TIMES AT 256 SECONDS)
000749: 21,3512           43532                           CS       -2MINWL                               #  MORE THAN TWO MINUTES, USE 2MINUTES
000750: 21,3513           00002                           TC       Q                                     #  RETURN WL CALL WITH 2 MIN AT 1BIT=10MS
000751:
000752: 21,3514           67755                           AD       ONE                                   #  (CORRECT FOR CCS BIT)
000753: 21,3515           00006                           EXTEND                                         #  CALCULATE DT = ABS(T-2MIN)
000754: 21,3516           73534                           MP       128/164                               #  AND RESCALE DT TO WAITLIST SCALING
000755: 21,3517           20001                           DDOUBL
000756: 21,3520           63532                           AD       -2MINWL                               #  -T = DT + 2MIN (IN WAITLIST SCALING)
000757: 21,3521           40000                           COM                                            #  MAKE T POSITIVE FOR WAITLIST
000758: 21,3522           00006                           EXTEND                                         #  MAKE FINAL CHECK TO INSURE T .G. 10 MS
000759: 21,3523           63525                           BZMF     TGOFFNOW                              #  DO SHUTDOWN NOW (COULD USE BZF)
000760: 21,3524           00002                           TC       Q                                     #  RETURN TO WAITLIST CALL WITH WL TIME
000761:
000762: 21,3525           37761        TGOFFNOW           CAF      ZERO                                  #  MAKE SURE PLUS ZERO FOR DRIVE FLAG
000763: 21,3526           50061                           INDEX    QRNDXER                               #  TURN OFF DRIVE FLAG NOW
000764: 21,3527           55522                           TS       NEGUQ
000765: 21,3530           50002                           INDEX    Q
000766:
000767: 21,3531           00003                           TC       3                                     #  SKIP WAITLIST CALL AND 2CADR
000768:
000769:
000770:
000771: 21,3532     0061               QRNDXER            EQUALS   ITEMP1                                #  INDEXER FOR Q OR R AXIS
000772: 21,3532     0062               NZACCDOT           EQUALS   ITEMP2                                #  TEMPORARY STORAGE FOR NON-ZERO ACCDOT
000773: 21,3532           50437        -2MINWL            DEC      -12000     B-14                       #  - 2 MINUTES SCALED FOR WAITLIST
000774: 21,3533           60777        -2MIN256           DEC      -.46875                               #  - 2 MINUTES SCALED AT 256
000775: 21,3534           31000        128/164            OCTAL    31000                                 #  128/163.84 CONVERTING 256 TO WAITLIST/2
000776: 21,3535           01146        .1-.05K)           OCTAL    01146                                 #  .0375=.075 SCALED AT 2

End of include-file TRIM_GIMBAL_CONTROL_SYSTEM.agc.  Parent file is MAIN.agc


