
Source Code


000002:                                                                                                  ## Copyright:   Public domain.
000003:                                                                                                  ## Filename:    TUMBLE_MONITOR.agc
000004:                                                                                                  ## Purpose:     A section of Sunburst revision 37, or Shepatin revision 0.
000005:                                                                                                  ##              It is part of an early development version of the software
000006:                                                                                                  ##              for Apollo Guidance Computer (AGC) on the unmanned Lunar
000007:                                                                                                  ##              Module (LM) flight Apollo 5. Sunburst 37 was the program
000008:                                                                                                  ##              upon which Don Eyles's offline development program Shepatin
000009:                                                                                                  ##              was based; the listing herein transcribed was actually for
000010:                                                                                                  ##              the equivalent revision 0 of Shepatin.
000011:                                                                                                  ##              This file is intended to be a faithful transcription, except
000012:                                                                                                  ##              that the code format has been changed to conform to the
000013:                                                                                                  ##              requirements of the yaYUL assembler rather than the
000014:                                                                                                  ##              original YUL assembler.
000015:                                                                                                  ## Reference:   pp. 777-779
000016:                                                                                                  ## Assembler:   yaYUL
000017:                                                                                                  ## Contact:     Ron Burkey <info@sandroid.org>.
000018:                                                                                                  ## Website:     www.ibiblio.org/apollo/index.html
000019:                                                                                                  ## Mod history: 2017-05-24 MAS  Created from Sunburst 120.
000020:                                                                                                  ##              2017-06-13 HG   Transcribed
000021:                                                                                                  ##              2017-06-23 RSB  Proofed comment text with
000022:                                                                                                  ##                              octopus/ProoferComments.
000023:


000025:                                                                                                  #  PROGRAM DETECTS SPIN ABOUT NAV.AXES AND SETS BIT 13 OF FLAGWORD1 ON IF SPIN IS IN EXCESS OF 2.99 DEGREES/SEC .
000026:                                                                                                  #  NO CONTROL ACTION IS EXERTED . TO DISCONTINUE MONITORING , TURN BIT 14  OF FLAGWORD1 OFF . TO INITIATE MONITOR ,
000027:                                                                                                  #  SET UP WAITLIST CALL FOR TUMTASK. IT IS ASSUMED THAT THE IMU,S ARE IN   FINE ALIGN .
000028:
000029:
000030:
000031:                                                                                                  #  NAME=                           DATE=
000032:                                                                                                  #    TUMBLE MONITOR                  29 AUGUST 1966
000033:
000034:                                                                                                  #  PROGRAMMER=                     REVISIONS=
000035:                                                                                                  #    G.MANSBACH EXT-182              NANSTONE/2
000036:                                                                                                  #                                    NANSTONE/7
000037:                                                                                                  #                                    NANSTONE/15   10/27/66
000038:                                                                                                  #                                    NANSTONE/3    11/12/66
000039:                                                                                                  #  CALLING SEQUENCE=               SUBROUTINES CALLED=
000040:                                                                                                  #           CAF    (DT)              FLAG1UP
000041:                                                                                                  #           TC     WAITLIST          FLAG1DOWN
000042:                                                                                                  #           EBANK= OMEGA
000043:                                                                                                  #           2CADR  TUMTASK
000044:
000045:                                                                                                  #  NORMAL EXIT MODES=              ABORT MODE=
000046:                                                                                                  #           TC     TASKOVER          TURN BIT 14 OF FLAGWORD1 OFF
000047:                                                                                                  #  OUTPUT=
000048:                                                                                                  #    SET BIT 13 OF FLAGWORD1 ON/OFF
000049:                                                                                                  #  DEBRIS=
000050:                                                                                                  #    PCDUY,PCDUZ,PCDUX,DCDUY,DCDUZ,OMEGA
000051: 30,2402                                           BANK     30
000052: 30,2402  E6,1423                                  EBANK=   OMEGA
000053:                                                                                                  #  INITIALIZATION ROUTINE FOR TUMBLE
000054:                                                                                                  #  MONITOR
000055:
000056: 30,2402           04147        TUMTASK            TC       PHASCHNG                              #  IMMEDIATE RECALL
000057:
000058: 30,2403           05013                           OCT      05013                                 #  *TUMTASK*
000059: 30,2404           77777                           OCT      77777
000060: 30,2405           06020                           TC       FLAG1UP                               #  TURN TUMBLE MONITOR ON
000061: 30,2406           20000                           OCT      20000
000062: 30,2407           02461                           TC       RESET
000063: 30,2410           05745                           TC       TASKOVER
000064:
000065:
000066: 30,2411           37740        TMTSK              CA       BIT14
000067: 30,2412           70075                           MASK     FLAGWRD1                              #  IS TUMBLE MONITOR STILL NEEDED
000068:
000069: 30,2413           00006                           EXTEND
000070: 30,2414           12454                           BZF      EOTUM                                 #  IT IS NOT.  DISCONTINUE MONITORING
000071:
000072: 30,2415           02461                           TC       RESET                                 #  IT IS.
000073:                                                                                                  #  COMPUTE ROTATION RATE ABOUT PILOT AXES
000074:                                                                                                  #  USING OUTPUT OF *TRANSFORMATION MATRIX
000075:                                                                                                  #  CALCULATION* OF *TRUPT PROGRAM*
000076:
000077:                                                                                                  #  COMPUTE
000078:                                                                                                  #         * OMEGAX *   *     *   * DCDUY *
000079:


000081:                                                                                                  #         * OMEGAY * = * M   * X * DCDUZ *
000082:
000083:                                                                                                  #         * OMEGAZ *   *  GP *   *+DCDUX *
000084:
000085: 30,2416           55423                           TS       OMEGA                                 #  COMPUTE OMEGAX
000086: 30,2417           31404                           CA       M11
000087: 30,2420           02440                           TC       EVAL
000088: 30,2421           31401                           CA       M22                                   #  COMPUTE OMEGAY
000089: 30,2422           00006                           EXTEND
000090: 30,2423           71421                           MP       DCDUZ
000091: 30,2424           55423                           TS       OMEGA
000092: 30,2425           31405                           CA       M21
000093: 30,2426           02440                           TC       EVAL
000094: 30,2427           31403                           CA       M32                                   #  COMPUTE OMEGAZ
000095:
000096: 30,2430           00006                           EXTEND
000097: 30,2431           71421                           MP       DCDUZ
000098: 30,2432           55423                           TS       OMEGA
000099: 30,2433           31406                           CA       M31
000100: 30,2434           02440                           TC       EVAL
000101:                                                                                                  #  NO TUMBLE NOTED
000102: 30,2435           06036                           TC       FLAG1DWN                              #  REMOVE TUMBLE FLAG
000103: 30,2436           10000                           OCT      10000
000104: 30,2437           05745                           TC       TASKOVER
000105: 30,2440           00006        EVAL               EXTEND                                         #  COMPLETE OMEGA CALCULATION
000106:
000107: 30,2441           71417                           MP       DCDUY
000108: 30,2442           61423                           AD       OMEGA                                 #  SCALE FACTOR OF PI
000109:                                                                                                  #  EVALUATE TUMBLE RATE
000110: 30,2443           00006                           EXTEND                                         #  SET ALL VALUES NEG.
000111: 30,2444           62446                           BZMF     +2
000112: 30,2445           40000                           CS       A
000113: 30,2446           62460                           AD       CRIT                                  #  CAUSE UNDERFLOW IF OMEGA IS GREATER THAN
000114: 30,2447           54000                           OVSK                                           #  OR = TO 2.99 DEGREES/SEC
000115: 30,2450           00002                           RETURN                                         #  NO TUMBLE . EVALUATE NEXT AXIS
000116:
000117:                                                                                                  #  EXCESSIVE TUMBLE NOTED ABOUT AN AXIS
000118: 30,2451           06020                           TC       FLAG1UP                               #  SET TUMBLE FLAG AND DISCONTINUE CALCS.
000119: 30,2452           10000                           OCT      10000
000120: 30,2453           05745                           TC       TASKOVER
000121: 30,2454           04147        EOTUM              TC       PHASCHNG
000122: 30,2455           00003                           OCT      3
000123: 30,2456           05745                           TC       TASKOVER
000124: 30,2457           00144        1SECTM             DEC      100        B-14                       #  1 SECOND
000125: 30,2460           40417        CRIT               OCT      40417                                 #  NEGMAX + 00417   421 = 2.99 DEGREES
000126:
000127:
000128:                                                                                                  #  RECALL MONITOR IN
000129:                                                                                                  #     1 SECOND
000130: 30,2461           00006        RESET              EXTEND
000131: 30,2462           23423                           QXCH     OMEGA
000132: 30,2463           32457                           CA       1SECTM
000133: 30,2464           05701                           TC       WAITLIST
000134:


000136: 30,2465  E6,1423                                  EBANK=   OMEGA
000137: 30,2465           02411 60066                     2CADR    TMTSK
000138:                                                                                                  #  STORE PRESENT CDU(X,Y,Z) AND
000139:                                                                                                  #  COMPUTE DELTA(CDU(X,Y,Z)/SEC =
000140:                                                                                                  #  DCDU(X,Y,Z)
000141: 30,2467           30033                           CA       CDUY                                  #  FOR Y-AXIS
000142:
000143: 30,2470           57412                           XCH      PCDUY                                 #  STORE PRESENT VALUE AND RECOVER PREVIOUS
000144: 30,2471           00006                           EXTEND
000145: 30,2472           20033                           MSU      CDUY
000146: 30,2473           55417                           TS       DCDUY                                 #  = CDUX(T-1)-CDUX(T)
000147: 30,2474           30034                           CA       CDUZ                                  #  FOR Z-AXIS
000148: 30,2475           57413                           XCH      PCDUZ
000149: 30,2476           00006                           EXTEND
000150: 30,2477           20034                           MSU      CDUZ
000151: 30,2500           55421                           TS       DCDUZ
000152: 30,2501           30032                           CA       CDUX                                  #  FOR X-AXIS
000153: 30,2502           57411                           XCH      PCDUX
000154: 30,2503           00006                           EXTEND
000155:
000156: 30,2504           20032                           MSU      CDUX
000157: 30,2505           01423                           TC       OMEGA

End of include-file TUMBLE_MONITOR.agc.  Parent file is MAIN.agc


