
Source Code


000002:                                                                                                  ## Copyright:   Public domain.
000003:                                                                                                  ## Filename:    UPDATE_PROGRAM_PART_2_OF_2.agc
000004:                                                                                                  ## Purpose:     A section of Sunburst revision 37, or Shepatin revision 0.
000005:                                                                                                  ##              It is part of an early development version of the software
000006:                                                                                                  ##              for Apollo Guidance Computer (AGC) on the unmanned Lunar
000007:                                                                                                  ##              Module (LM) flight Apollo 5. Sunburst 37 was the program
000008:                                                                                                  ##              upon which Don Eyles's offline development program Shepatin
000009:                                                                                                  ##              was based; the listing herein transcribed was actually for
000010:                                                                                                  ##              the equivalent revision 0 of Shepatin.
000011:                                                                                                  ##              This file is intended to be a faithful transcription, except
000012:                                                                                                  ##              that the code format has been changed to conform to the
000013:                                                                                                  ##              requirements of the yaYUL assembler rather than the
000014:                                                                                                  ##              original YUL assembler.
000015:                                                                                                  ## Reference:   pp. 305-310
000016:                                                                                                  ## Assembler:   yaYUL
000017:                                                                                                  ## Contact:     Ron Burkey <info@sandroid.org>.
000018:                                                                                                  ## Website:     www.ibiblio.org/apollo/index.html
000019:                                                                                                  ## Mod history: 2017-05-24 MAS  Created from Sunburst 120.
000020:                                                                                                  ##              2017-05-30 HG   Transcribed
000021:                                                                                                  ##              2017-06-22 RSB  Proofed comment text with
000022:                                                                                                  ##                              octopus/ProoferComments.
000023:


000025: 26,2000                                           BANK     26
000026: 26,2000  E4,1677                                  EBANK=   STBUFF
000027: 26,2000           32430        UPPART2            CA       UPE4
000028: 26,2001           54003                           TS       EBANK
000029: 26,2002           04121                           TC       CHECKMM
000030: 26,2003           00027                           OCT      27
000031: 26,2004           02006                           TC       +2
000032: 26,2005           02426                           TC       21XCTALM
000033:
000034: 26,2006           37755                           CA       ONE
000035: 26,2007           55715                           TS       STCOUNT
000036: 26,2010           04633                           TC       GRABWAIT
000037: 26,2011           30144                           CA       MPAC
000038: 26,2012           55721                           TS       UPVERB
000039: 26,2013           30302                           CA       MODREG
000040: 26,2014           55716                           TS       UPOLDMOD
000041: 26,2015           04105                           TC       NEWMODEX
000042: 26,2016           00027                           OCT      27
000043: 26,2017           41721                           CS       UPVERB
000044: 26,2020           62324                           AD       21OCT75
000045: 26,2021           00006                           EXTEND
000046: 26,2022           12026                           BZF      +4
000047: 26,2023           30145                           CA       MPAC       +1
000048: 26,2024           55722                           TS       COMPNUMB
000049: 26,2025           02046                           TC       UPIN       +1
000050: 26,2026           37755        UPNO33             CA       ONE                                   #  CONTINUE V75
000051: 26,2027           62437                           AD       ASTBFM1
000052: 26,2030           54146                           TS       MPAC       +2
000053: 26,2031           32326                           CA       STATENV                               #  FLASH V21 N01
000054: 26,2032           02405                           TC       UPNVCALL                              #  LOAD V33 OR OCTAL NO.
000055: 26,2033           02026                           TC       UPNO33                                #  V33, IGNORE
000056: 26,2034           37753                           CA       FOUR                                  #  OCTAL NO. IN STBUFF
000057:
000058: 26,2035           55717                           TS       UPTEMP
000059: 26,2036           31677                           CA       STBUFF
000060: 26,2037           02415                           TC       UPRANGE                               #  IS STBUFF GE 1 AND LE 4
000061: 26,2040           02026                           TC       UPNO33                                #   NO, TRY AGAIN
000062: 26,2041           51677                           INDEX    STBUFF                                #   YES
000063: 26,2042           32431                           CA       AOFC       -1
000064: 26,2043           55722                           TS       COMPNUMB
000065: 26,2044           37754                           CA       TWO
000066: 26,2045           55715        UPIN               TS       STCOUNT
000067: 26,2046           32437                           CA       ASTBFM1
000068: 26,2047           61715                           AD       STCOUNT
000069: 26,2050           54146                           TS       MPAC       +2
000070: 26,2051           32326                           CA       STATENV
000071: 26,2052           02405                           TC       UPNVCALL
000072: 26,2053           02046                           TC       UPIN       +1                         #  V33 , IGNORE
000073: 26,2054           41715                           CS       STCOUNT                               #  OCTAL NO.
000074: 26,2055           61722                           AD       COMPNUMB
000075: 26,2056           00006                           EXTEND
000076: 26,2057           12062                           BZF      +3
000077:


000079: 26,2060           25715                           INCR     STCOUNT
000080: 26,2061           02046                           TC       UPIN       +1
000081: 26,2062           32436        UPHERE             CA       UPAOFTP1
000082: 26,2063           54146                           TS       MPAC       +2
000083: 26,2064           32431                           CA       OCTID
000084: 26,2065           02405                           TC       UPNVCALL
000085: 26,2066           02077                           TC       UPSTORE                               #  V33, VERIFY
000086: 26,2067           31722                           CA       COMPNUMB                              #  OCTAL IDENTIFIER
000087: 26,2070           55717                           TS       UPTEMP
000088: 26,2071           31720                           CA       UPTEMP1
000089: 26,2072           02415                           TC       UPRANGE
000090: 26,2073           02062                           TC       UPHERE                                #  BAD OCTAL IDENTIFIER
000091: 26,2074           31720                           CA       UPTEMP1
000092: 26,2075           62437                           AD       ASTBFM1
000093:
000094: 26,2076           02050                           TC       UPIN       +3
000095: 26,2077           04713        UPSTORE            TC       FREEDSP
000096: 26,2100           00004                           INHINT
000097: 26,2101           40076                           CS       FLAGWRD2                              #  INVERT VERIFLAG FOR GROUND VERIFY
000098: 26,2102           77750                           MASK     BIT6
000099: 26,2103           54002                           TS       Q
000100: 26,2104           47750                           CS       BIT6
000101: 26,2105           70076                           MASK     FLAGWRD2
000102: 26,2106           60002                           AD       Q
000103: 26,2107           54076                           TS       FLAGWRD2
000104: 26,2110           04121                           TC       CHECKMM
000105: 26,2111           00027                           OCT      27
000106: 26,2112           02115                           TC       UPRETURN
000107: 26,2113           31716                           CA       UPOLDMOD                              #  RESTORE PRE-P27 MODE
000108: 26,2114           04110                           TC       NEWMODEX   +3
000109: 26,2115           37751        UPRETURN           CA       BIT5
000110: 26,2116           70076                           MASK     FLAGWRD2
000111: 26,2117           00006                           EXTEND
000112: 26,2120           12426                           BZF      21XCTALM
000113: 26,2121           42135                           CS       21OCT64                               #    BEGIN STORING DATA FROM STBUFF
000114: 26,2122           61721                           AD       UPVERB                                #  YES, CONTINUE
000115: 26,2123           50000                           INDEX    A
000116: 26,2124           02125                           TC       +1
000117:
000118: 26,2125           53701                           DXCH     STBUFF     +1
000119: 26,2126           53220                           DXCH     UPGET
000120: 26,2127           02250                           TC       UPEND64
000121: 26,2130           02257                           TC       UPEND67                               #  V67
000122: 26,2131           02263                           TC       UPEND70                               #  V70
000123: 26,2132           02271                           TC       UPEND71                               #  V71
000124: 26,2133           02277                           TC       UPEND72                               #  V72
000125: 26,2134           02307                           TC       UPEND73
000126: 26,2135           00064        21OCT64            OCT      00064
000127: 26,2136           02313                           TC       UPEND75                               #  V75
000128: 26,2137           40076        UPEND76            CS       FLAGWRD2                              #  IS ORBITAL INTEGRATION ON
000129: 26,2140           77747                           MASK     BIT7
000130: 26,2141           00006                           EXTEND
000131:


000133: 26,2142           12234                           BZF      SETUPRCK                              #  YES, SET UP 3SEC CALL TO CHECK AGAIN
000134: 26,2143           00006                           EXTEND                                         #  V76
000135: 26,2144           31700                           DCA      STBUFF                                #  NO, BEGIN LOAD OF UPDATE PARAMETERS
000136: 26,2145           53223                           DXCH     REFRRECT
000137: 26,2146           00006                           EXTEND
000138: 26,2147           31700                           DCA      STBUFF
000139: 26,2150           53253                           DXCH     REFRCV
000140: 26,2151           00006                           EXTEND
000141: 26,2152           31702                           DCA      STBUFF     +2
000142: 26,2153           53225                           DXCH     REFRRECT   +2
000143: 26,2154           00006                           EXTEND
000144: 26,2155           31702                           DCA      STBUFF     +2
000145: 26,2156           53255                           DXCH     REFRCV     +2
000146: 26,2157           00006                           EXTEND
000147: 26,2160           31704                           DCA      STBUFF     +4
000148: 26,2161           53227                           DXCH     REFRRECT   +4
000149: 26,2162           00006                           EXTEND
000150: 26,2163           31704                           DCA      STBUFF     +4
000151: 26,2164           53257                           DXCH     REFRCV     +4
000152:
000153: 26,2165           00006                           EXTEND
000154: 26,2166           31706                           DCA      STBUFF     +6
000155: 26,2167           53231                           DXCH     REFVRECT
000156: 26,2170           00006                           EXTEND
000157: 26,2171           31706                           DCA      STBUFF     +6
000158: 26,2172           53261                           DXCH     REFVCV
000159: 26,2173           00006                           EXTEND
000160: 26,2174           31710                           DCA      STBUFF     +8D
000161: 26,2175           53233                           DXCH     REFVRECT   +2
000162: 26,2176           00006                           EXTEND
000163: 26,2177           31710                           DCA      STBUFF     +8D
000164: 26,2200           53263                           DXCH     REFVCV     +2
000165: 26,2201           00006                           EXTEND
000166: 26,2202           31712                           DCA      STBUFF     +10D
000167: 26,2203           53235                           DXCH     REFVRECT   +4
000168: 26,2204           00006                           EXTEND
000169: 26,2205           31712                           DCA      STBUFF     +10D
000170: 26,2206           53265                           DXCH     REFVCV     +4
000171: 26,2207           00006                           EXTEND
000172: 26,2210           31714                           DCA      STBUFF     +12D
000173: 26,2211           53271                           DXCH     TE
000174: 26,2212           37761                           CA       ZERO
000175: 26,2213           55236                           TS       DELTAV
000176:
000177: 26,2214           55237                           TS       DELTAV     +1
000178: 26,2215           55240                           TS       DELTAV     +2
000179: 26,2216           55241                           TS       DELTAV     +3
000180: 26,2217           55242                           TS       DELTAV     +4
000181: 26,2220           55243                           TS       DELTAV     +5
000182: 26,2221           55244                           TS       NUV
000183: 26,2222           55245                           TS       NUV        +1
000184: 26,2223           55246                           TS       NUV        +2
000185:


000187: 26,2224           55247                           TS       NUV        +3
000188: 26,2225           55250                           TS       NUV        +4
000189:
000190: 26,2226           55251                           TS       NUV        +5
000191: 26,2227           55266                           TS       REFTC
000192: 26,2230           55267                           TS       REFTC      +1
000193: 26,2231           55272                           TS       REFXKEP
000194: 26,2232           55273                           TS       REFXKEP    +1
000195: 26,2233           02403                           TC       UPQUIT
000196: 26,2234           32440        SETUPRCK           CA       3SEC21
000197: 26,2235           05701                           TC       WAITLIST
000198: 26,2236  E4,1677                                  EBANK=   STBUFF
000199: 26,2236           02241 54004                     2CADR    UPDOAGN
000200:
000201: 26,2240           05605                           TC       ENDOFJOB
000202: 26,2241           35667        UPDOAGN            CA       PRIO27
000203: 26,2242           05523                           TC       NOVAC
000204: 26,2243  E4,1677                                  EBANK=   STBUFF
000205: 26,2243           02246 54004                     2CADR    UPINHINT
000206: 26,2245           05745                           TC       TASKOVER
000207: 26,2246           00004        UPINHINT           INHINT
000208: 26,2247           02115                           TC       UPRETURN
000209: 26,2250           31677        UPEND64            CA       STBUFF
000210: 26,2251           55216                           TS       UPINDEX
000211: 26,2252           35667                           CA       PRIO27
000212:
000213: 26,2253           05534                           TC       FINDVAC
000214: 26,2254  E4,1677                                  EBANK=   STBUFF
000215: 26,2254           02347 62064                     2CADR    MGETUP
000216:
000217: 26,2256           02403                           TC       UPQUIT
000218: 26,2257           31677        UPEND67            CA       STBUFF
000219: 26,2260           55216                           TS       UPINDEX
000220: 26,2261           05243                           TC       POSTJUMP
000221: 26,2262           62226                           CADR     DOV67
000222: 26,2263           31677        UPEND70            CA       STBUFF
000223: 26,2264           55216                           TS       UPINDEX
000224: 26,2265           31700                           CA       STBUFF     +1
000225: 26,2266           55215                           TS       UPDT
000226: 26,2267           05243                           TC       POSTJUMP
000227: 26,2270           62201                           CADR     DOV70
000228: 26,2271           31677        UPEND71            CA       STBUFF
000229: 26,2272           55216                           TS       UPINDEX
000230: 26,2273           31700                           CA       STBUFF     +1
000231: 26,2274           55214                           TS       UPPHASE
000232: 26,2275           05243                           TC       POSTJUMP
000233: 26,2276           62204                           CADR     DOV71
000234: 26,2277           31677        UPEND72            CA       STBUFF
000235: 26,2300           55216                           TS       UPINDEX
000236:
000237: 26,2301           31700                           CA       STBUFF     +1
000238: 26,2302           55214                           TS       UPPHASE
000239:


000241: 26,2303           31701                           CA       STBUFF     +2
000242: 26,2304           55215                           TS       UPDT
000243: 26,2305           05243                           TC       POSTJUMP
000244: 26,2306           62203                           CADR     DOV72
000245: 26,2307           31677        UPEND73            CA       STBUFF
000246: 26,2310           55216                           TS       UPINDEX
000247: 26,2311           05243                           TC       POSTJUMP
000248: 26,2312           62210                           CADR     DOV73
000249:
000250: 26,2313           47754        UPEND75            CS       BIT2                                  #  V75
000251: 26,2314           61722                           AD       COMPNUMB
000252: 26,2315           50000                           INDEX    A
000253: 26,2316           02316                           TC       -0
000254: 26,2317           00006        I=1                EXTEND
000255: 26,2320           31701                           DCA      STBUFF     +1
000256: 26,2321           53755                           DXCH     RP
000257: 26,2322           02403                           TC       UPQUIT
000258: 26,2323           02347                           TC       I=2
000259: 26,2324           00075        21OCT75            OCT      75
000260: 26,2325           02361                           TC       I=4
000261: 26,2326           02101        STATENV            OCT      2101
000262: 26,2327           00006        I=3                EXTEND
000263: 26,2330           31701                           DCA      STBUFF     +1
000264: 26,2331           53765                           DXCH     R1VEC
000265: 26,2332           00006                           EXTEND
000266: 26,2333           31703                           DCA      STBUFF     +3
000267: 26,2334           53767                           DXCH     R1VEC      +2
000268: 26,2335           00006                           EXTEND
000269: 26,2336           31705                           DCA      STBUFF     +5
000270: 26,2337           53771                           DXCH     R1VEC      +4
000271: 26,2340           00006                           EXTEND
000272: 26,2341           31707                           DCA      STBUFF     +7
000273:
000274: 26,2342           53773                           DXCH     TINT
000275: 26,2343           00006                           EXTEND
000276: 26,2344           31711                           DCA      STBUFF     +9D
000277: 26,2345           53775                           DXCH     RCO
000278: 26,2346           02403                           TC       UPQUIT
000279: 26,2347           00006        I=2                EXTEND
000280: 26,2350           31701                           DCA      STBUFF     +1
000281: 26,2351           53757                           DXCH     CPT6/2
000282: 26,2352           00006                           EXTEND
000283: 26,2353           31703                           DCA      STBUFF     +3
000284: 26,2354           53761                           DXCH     CPT6/2     +2
000285: 26,2355           00006                           EXTEND
000286: 26,2356           31705                           DCA      STBUFF     +5
000287: 26,2357           53763                           DXCH     CPT6/2     +4
000288: 26,2360           02403                           TC       UPQUIT
000289: 26,2361           00006        I=4                EXTEND
000290: 26,2362           31701                           DCA      STBUFF     +1
000291: 26,2363           53765                           DXCH     R1VEC
000292: 26,2364           00006                           EXTEND
000293:


000295: 26,2365           31703                           DCA      STBUFF     +3
000296: 26,2366           53767                           DXCH     R1VEC      +2
000297: 26,2367           00006                           EXTEND
000298: 26,2370           31705                           DCA      STBUFF     +5
000299: 26,2371           53771                           DXCH     R1VEC      +4
000300: 26,2372           00006                           EXTEND
000301: 26,2373           31707                           DCA      STBUFF     +7
000302: 26,2374           53773                           DXCH     TINT
000303: 26,2375           04713                           TC       FREEDSP
000304: 26,2376           04121                           TC       CHECKMM
000305: 26,2377           00027                           OCT      27
000306: 26,2400           02403                           TC       +3
000307: 26,2401           31716                           CA       UPOLDMOD
000308: 26,2402           04110                           TC       NEWMODEX   +3
000309:
000310: 26,2403           05224        UPQUIT             TC       BANKCALL                              #  TERMINATES JOB
000311: 26,2404           62373                           CADR     ENDUP
000312: 26,2405           00006        UPNVCALL           EXTEND
000313: 26,2406           23717                           QXCH     UPTEMP
000314: 26,2407           04646                           TC       NVSBWAIT
000315: 26,2410           04464                           TC       ENDIDLE
000316: 26,2411           02375                           TC       UPQUIT     -6
000317: 26,2412           01717                           TC       UPTEMP                                #  V33 RETURN TO Q
000318: 26,2413           25717                           INCR     UPTEMP                                #      RETURN TO Q+1
000319: 26,2414           01717                           TC       UPTEMP
000320: 26,2415           00006        UPRANGE            EXTEND
000321: 26,2416           62425                           BZMF     UPRAUS                                #  C(A) LE ZERO RETURN TO Q
000322: 26,2417           40000                           CS       A
000323: 26,2420           24000                           INCR     A
000324: 26,2421           61717                           AD       UPTEMP
000325: 26,2422           00006                           EXTEND
000326: 26,2423           62425                           BZMF     UPRAUS                                #  C(A) GT C(LOC) RETURN TO Q
000327: 26,2424           24002                           INCR     Q
000328: 26,2425           00002        UPRAUS             TC       Q                                     #  C(A) LE C(LOC) AND GT 0 RETURN TO Q+1
000329: 26,2426           05224        21XCTALM           TC       BANKCALL
000330: 26,2427           22053                           CADR     XACTALM
000331:
000332: 26,2430           02000        UPE4               OCT      2000
000333:
000334: 26,2431           02102        OCTID              OCT      02102
000335: 26,2432           00003        AOFC               OCT      00003
000336: 26,2433           00007                           OCT      00007
000337: 26,2434           00013                           OCT      00013
000338: 26,2435           00011                           OCT      00011
000339: 26,2436           02320        UPAOFTP1           ECADR    UPTEMP1
000340: 26,2437           02276        ASTBFM1            ECADR    STBUFF     -1
000341: 26,2440           00454        3SEC21             DEC      300        B-14

End of include-file UPDATE_PROGRAM_PART_2_OF_2.agc.  Parent file is MAIN.agc


