
Source Code


000002:                                                                                                  ## Copyright:   Public domain.
000003:                                                                                                  ## Filename:    UPDATE_PROGRAM_PART_1_OF_2.agc
000004:                                                                                                  ## Purpose:     A section of Sunburst revision 37, or Shepatin revision 0.
000005:                                                                                                  ##              It is part of an early development version of the software
000006:                                                                                                  ##              for Apollo Guidance Computer (AGC) on the unmanned Lunar
000007:                                                                                                  ##              Module (LM) flight Apollo 5. Sunburst 37 was the program
000008:                                                                                                  ##              upon which Don Eyles's offline development program Shepatin
000009:                                                                                                  ##              was based; the listing herein transcribed was actually for
000010:                                                                                                  ##              the equivalent revision 0 of Shepatin.
000011:                                                                                                  ##              This file is intended to be a faithful transcription, except
000012:                                                                                                  ##              that the code format has been changed to conform to the
000013:                                                                                                  ##              requirements of the yaYUL assembler rather than the
000014:                                                                                                  ##              original YUL assembler.
000015:                                                                                                  ## Reference:   pp. 303-304
000016:                                                                                                  ## Assembler:   yaYUL
000017:                                                                                                  ## Contact:     Ron Burkey <info@sandroid.org>.
000018:                                                                                                  ## Website:     www.ibiblio.org/apollo/index.html
000019:                                                                                                  ## Mod history: 2017-05-24 MAS  Created from Sunburst 120.
000020:                                                                                                  ##              2017-05-29 HG   Transcribed
000021:                                                                                                  ##              2017-06-22 RSB  Proofed comment text with
000022:                                                                                                  ##                              octopus/ProoferComments.
000023:


000025: 11,3247                                           BANK     11
000026: 11,3247  E4,1677                                  EBANK=   STBUFF
000027:                                                                                                  #  THE UPDATE PROGRAM PROCESSES COMMANDS AND DATA INSERTIONS REQUESTED BY THE GROUND VIA UPLINK
000028:                                                                                                  #  THE PROGRAM IS INITIATED BY UPLINK ENTRY OF VERBS 60,61,64-76
000029:
000030:                                                                                                  #      INPUT
000031:                                                                                                  #  ENTRY           DESCRIPTION OF DATA
000032:                                                                                                  #   V64EIEXXXXXE   DOUBLE PRECISION GROUND ELAPSED TIMEIN CSEC (OCTAL)
000033:                                                                                                  #    XXXXXE
000034:                                                                                                  #   V65E           SET GUIDANCE REFERENCE RELEASE DISCRETE
000035:                                                                                                  #   V66E           INITIATE THE LGC DFI TLM CALIBRATE ROUTINE
000036:                                                                                                  #   V67EXXXE       ENTER A THREE DIGIT OCTAL NUMBER REPRESENTING THE
000037:                                                                                                  #                   8-BIT COMMAND TO BE SENT TO THE LMP
000038:                                                                                                  #   V70EIETTTTTE   TIMER I IS SET TO TTTTT (OCTAL,SEC) UNLESS
000039:                                                                                                  #                   TTTTT=+0 OR -0 WHEN THE TIMER IS SET TO -0 OR
000040:                                                                                                  #                   TTTTT .LT. -0 WHICH STARTS MISSION PHASE
000041:                                                                                                  #   V71EIEPPE      MISSION PHASE REGISTER I IS SET TO PP (OCTAL)
000042:                                                                                                  #   V72EIEPPETTTTTE    SAME AS V70,V71
000043:                                                                                                  #   V73EIE         CHANGE THE STATE (ENABLE OR INHIBIT) OF DPS COLD SOAK
000044:
000045:                                                                                                  #                   DISCRETE (I=1), OR RCS COLD SOAK DISCRETE (I=2).
000046:                                                                                                  #   V74E           STOP MISSION TIMERS
000047:                                                                                                  #   V75E1EXXXXXE... FOR DPS1, ENTER MSB,LSB OF R(P)
000048:                                                                                                  #   V75E2EXXXXXE... FOR DPS2, ENTER MSB,LSB OF CPT(6),CPT(7),CPT(8). THE
000049:                                                                                                  #                   DESIRED VALUE X 0.5 SHOULD BE ENTERED
000050:                                                                                                  #   V75E3EXXXXXE... FOR APS2,ENTER MSB,LSB OF RCSM(TA)0, RCSM(TA)1,
000051:                                                                                                  #                   RCSM(TA)2,TA,RD,TIME IN CSEC X 2(28)
000052:                                                                                                  #                   POSITION IN METERS X 2(-24)
000053:                                                                                                  #   V75E4EXXXXXE... FOR APS3, ENTER ALL BUT RD ABOVE
000054:                                                                                                  #   V76EXXXXXE...  STATE VECTOR MSB,LSB OF X,Y,Z,XVEL,YVEL,ZVEL,TIME.
000055:                                                                                                  #                   TIME IN CSEC X 2(28)
000056:                                                                                                  #                   POSITION IN METERS X 2(-24) X 0.512
000057:                                                                                                  #                   VELOCITY IN METERS/CSEC X 2(-7) X0.64876819
000058: 11,3247           05243        65UPDAT            TC       POSTJUMP
000059: 11,3250           56000                           CADR     GRRPLACE
000060: 11,3251           05243        74UPDAT            TC       POSTJUMP
000061: 11,3252           16000                           CADR     DOV74
000062: 11,3253           00004        66UPDAT            INHINT
000063: 11,3254           05307                           TC       IBNKCALL
000064: 11,3255           56211                           CADR     DFITMCAL
000065: 11,3256           15605                           TCF      ENDOFJOB
000066:
000067: 11,3257           33316        73UPDAT            CA       OCT73
000068:
000069: 11,3260           03262                           TC       67UPDAT    +1
000070: 11,3261           33317        67UPDAT            CA       OCT67
000071: 11,3262           54144                           TS       MPAC
000072: 11,3263           37755                           CA       ONE
000073: 11,3264           03304                           TC       76UPDAT    +3
000074: 11,3265           33320        70UPDAT            CA       OCT70
000075: 11,3266           03270                           TC       71UPDAT    +1
000076: 11,3267           33321        71UPDAT            CA       OCT71
000077:


000079: 11,3270           54144                           TS       MPAC
000080: 11,3271           37754                           CA       TWO
000081:
000082: 11,3272           03304                           TC       76UPDAT    +3
000083: 11,3273           33322        64UPDAT            CA       11OCT64
000084: 11,3274           03276                           TC       72UPDAT    +1
000085: 11,3275           33323        72UPDAT            CA       OCT72
000086: 11,3276           54144                           TS       MPAC
000087: 11,3277           36301                           CA       THREE
000088: 11,3300           03304                           TC       76UPDAT    +3
000089: 11,3301           33324        76UPDAT            CA       OCT76
000090: 11,3302           54144                           TS       MPAC
000091: 11,3303           33325                           CA       11OCT16
000092: 11,3304           54145                           TS       MPAC       +1
000093: 11,3305           03310                           TC       75UPDAT    +2
000094: 11,3306           33326        75UPDAT            CA       11OCT75
000095: 11,3307           54144                           TS       MPAC
000096: 11,3310           30076                           CA       FLAGWRD2                              #  TEST IF TIMERS ENABLED
000097: 11,3311           77751                           MASK     BIT5
000098: 11,3312           00006                           EXTEND
000099: 11,3313           12053                           BZF      XACTALM                               #   NO, RETURN
000100: 11,3314           05224                           TC       BANKCALL
000101: 11,3315           54000                           CADR     UPPART2
000102: 11,3316           00073        OCT73              OCT      00073
000103: 11,3317           00067        OCT67              OCT      00067
000104: 11,3320           00070        OCT70              OCT      00070
000105:
000106: 11,3321           00071        OCT71              OCT      00071
000107: 11,3322           00064        11OCT64            OCT      00064
000108: 11,3323           00072        OCT72              OCT      00072
000109: 11,3324           00076        OCT76              OCT      00076
000110: 11,3325           00016        11OCT16            OCT      16
000111: 11,3326           00075        11OCT75            OCT      00075

End of include-file UPDATE_PROGRAM_PART_1_OF_2.agc.  Parent file is MAIN.agc


