
Source Code


000002:                                                                                                  ## Copyright:   Public domain.
000003:                                                                                                  ## Filename:    WAITLIST.agc
000004:                                                                                                  ## Purpose:     A section of Sunburst revision 37, or Shepatin revision 0.
000005:                                                                                                  ##              It is part of an early development version of the software
000006:                                                                                                  ##              for Apollo Guidance Computer (AGC) on the unmanned Lunar
000007:                                                                                                  ##              Module (LM) flight Apollo 5. Sunburst 37 was the program
000008:                                                                                                  ##              upon which Don Eyles's offline development program Shepatin
000009:                                                                                                  ##              was based; the listing herein transcribed was actually for
000010:                                                                                                  ##              the equivalent revision 0 of Shepatin.
000011:                                                                                                  ##              This file is intended to be a faithful transcription, except
000012:                                                                                                  ##              that the code format has been changed to conform to the
000013:                                                                                                  ##              requirements of the yaYUL assembler rather than the
000014:                                                                                                  ##              original YUL assembler.
000015:                                                                                                  ## Reference:   pp. 1001-1013
000016:                                                                                                  ## Assembler:   yaYUL
000017:                                                                                                  ## Contact:     Ron Burkey <info@sandroid.org>.
000018:                                                                                                  ## Website:     www.ibiblio.org/apollo/index.html
000019:                                                                                                  ## Mod history: 2017-05-24 MAS  Created from Sunburst 120.
000020:                                                                                                  ##              2017-06-03 TVB  Transcribed.
000021:                                                                                                  ##              2017-06-15 HG   Fix operator XCH -> TS
000022:


000024:
000025:                                                                                                  #  PROGRAM DESCRIPTION                                                           DATE - 10 OCTOBER 1966
000026:                                                                                                  #  MOD NO - 2                                                                    LOG SECTION - WAITLIST
000027:                                                                                                  #  MOD BY - MILLER      (DTMAX INCREASED TO 162.5 SEC)                           ASSEMBLY SUNBURST REV 5
000028:
000029:                                                                                                  #  FUNCTIONAL DESCRIPTION-
000030:                                                                                                  #             PART OF A SECTION OF PROGRAMS,-WAITLIST, TASKOVER, T3RUPT, USED TO CALL A PROGRAM, (CALLED A TASK),
000031:                                                                                                  #        WHICH IS TO BEGIN IN C(A) CENTISECONDS.  WAITLIST UPDATES TIME3, LST1 AND LST2.  THE MEANING OF THESE LISTS
000032:                                                                                                  #        FOLLOW.
000033:
000034:                                                                                                  #                C(TIME3) = 16384 -(T1-T) CENTISECONDS, (T=PRESENT TIME, T1-TIME FOR TASK1)
000035:
000036:                                                                                                  #                        C(LST1)         =       -(T2-T1)+1
000037:                                                                                                  #                        C(LST1 +1)      =       -(T3-T2)+1
000038:                                                                                                  #                        C(LST1 +2)      =       -(T4-T3)+1
000039:                                                                                                  #                                        .
000040:                                                                                                  #                                        .
000041:                                                                                                  #                        C(LST1 +6)      =       -(T8-T7)+1
000042:                                                                                                  #                        C(LST1 +7)      =       -(T9-T8)+1
000043:
000044:                                                                                                  #                        C(LST2)         =       2CADR OF TASK1
000045:                                                                                                  #                        C(LST2 +2)      =       2CADR OF TASK2
000046:                                                                                                  #                                        .
000047:                                                                                                  #                                        .
000048:                                                                                                  #                        C(LST2 +14)     =       2CADR OF TASK8
000049:                                                                                                  #                        C(LST2 +16)     =       2CADR OF TASK9
000050:
000051:                                                                                                  #  WARNINGS-
000052:                                                                                                  #  --------
000053:                                                                                                  #        1)      1 <= C(A) <= 16250D (1 CENTISECOND TO 162.5 SEC)
000054:                                                                                                  #        2)      9 TASKS MAXIMUM
000055:                                                                                                  #        3)      TASKS CALLED UNDER INTERRUPT INHIBITED
000056:                                                                                                  #        4)      TASKS END BY TC TASKOVER
000057:
000058:                                                                                                  #  CALLING SEQUENCE-
000059:                                                                                                  #        L-2     CAF     DELTAT  (TIME IN CENTISECONDS TO TASK START)
000060:                                                                                                  #        L-1     INHINT
000061:                                                                                                  #        L       TC      WAITLIST
000062:                                                                                                  #        L+1     2CADR   DESIRED TASK
000063:                                                                                                  #        L+2     (MINOR OF 2CADR)
000064:                                                                                                  #        L+3     RELINT          (RETURNS HERE)
000065:
000066:                                                                                                  #  NORMAL EXIT MODES-
000067:
000068:                                                                                                  #        AT L+3 OF CALLING SEQUENCE
000069:
000070:                                                                                                  #  ALARM OR ABORT EXIT MODES-
000071:


000073:
000074:                                                                                                  #        TC      ABORT
000075:                                                                                                  #        OCT     1203    (WAITLIST OVERFLOW - TOO MANY TASKS)
000076:
000077:                                                                                                  #  ERASABLE INITIALIZATION REQUIRED-
000078:
000079:                                                                                                  #        ACCOMPLISHED BY FRESH START,--LST2,..., LST2 +16 =ENDTASK
000080:                                                                                                  #                                      LST1,..., LST1 +7  =NEG1/2
000081:
000082:                                                                                                  #  OUTPUT--
000083:
000084:                                                                                                  #        LST1 AND LST2 UPDATED WITH NEW TASK AND ASSOCIATED TIME.
000085:
000086:                                                                                                  #  DEBRIS-
000087:
000088:                                                                                                  #        CENTRALS- A,Q,L
000089:                                                                                                  #        OTHER   - WAITEXIT, WAITADR, WAITTEMP, WAITBANK
000090:                                                                                                  #  DETAILED ANALYSIS OF TIMING-
000091:
000092:                                                                                                  #             CONTROL WILL NOT BE RETURNED TO THE SPECIFIED ADDRESS (2CADR) IN EXACTLY DELTA T CENTISECONDS.
000093:                                                                                                  #        THE APPROXIMATE TIME MAY BE CALCULATED AS FOLLOWS
000094:
000095:                                                                                                  #                LET TO = THE TIME OF THE TC WAITLIST
000096:                                                                                                  #                LET TS = TO +147U + COUNTER INCREMENTS (SET UP TIME)
000097:                                                                                                  #                LET X  = TS -(100TS)/100  (VARIANCE FROM COUNTERS)
000098:                                                                                                  #                LET Y  = LENGTH OF TIME OF INHIBIT INTERRUPT AFTER T3RUPT
000099:                                                                                                  #                LET Z  = LENGTH OF TIME TO PROCESS TASKS WHICH ARE DUE THIS T3RUPT BUT DISPATCHED EARLIER.
000100:                                                                                                  #        (Z=0, USUALLY)
000101:                                                                                                  #                LET DELTD = THE ACTUAL TIME TAKEN TO GIVE CONTROL TO 2CADR
000102:                                                                                                  #             THEN   DELTD = TS+DELTA T -X +Y +Z +1.05MS* +COUNTERS*
000103:
000104:                                                                                                  #        *-THE TIME TAKEN BY WAITLIST ITSELF AND THE COUNTER TICKING DURING THIS WAITLIST TIME.
000105:
000106:                                                                                                  #             IN SHORT, THE ACTUAL TIME TO RETURN CONTROL TO A 2CADR IS AUGMENTED BY THE TIME TO SET UP THE TASK:S
000107:                                                                                                  #        INTERRUPT, ALL COUNTERS TICKING, THE T3RUPT PROCESSING TIME, THE WAITLIST PROCESSING TIME AND THE POSSIBILITY
000108:                                                                                                  #        OF OTHER TASKS INHIBITING THE INTERRUPT.
000109:
000110:    5701                                           BLOCK    02
000111:    5701  E3,1400                                  EBANK=   LST1                                  #  TASK LISTS IN SWITCHED E BANK.
000112:
000113:    5701           56002        WAITLIST           XCH      Q                                     #   SAVE DELTA T IN Q AND RETURN IN
000114:    5702           54061                           TS       WAITEXIT                              #  WAITEXIT.
000115:    5703           00006                           EXTEND
000116:    5704           50000                           INDEX    A
000117:    5705           30001                           DCA      0                                     #  PICK UP 2CADR OF TASK.
000118:    5706           54063                           TS       WAITADR                               #  BBCON WILL REMAIN IN L.
000119:    5707           35716        DLY2               CAF      WAITBB                                #  ENTRY FROM FIXDELAY AND VARDELAY.
000120:    5710           56006                           XCH      BBANK
000121:    5711           13360                           TCF      WAIT2
000122:
000123:                                                                                                  #  RETURN TO CALLER AFTER TASK INSERTION:
000124:


000126:
000127:    5712           30062        LVWTLIST           CA       WAITBANK
000128:    5713           54006                           TS       BBANK
000129:    5714           50061                           INDEX    WAITEXIT
000130:    5715           00002                           TC       2
000131:
000132:    5716  E3,1400                                  EBANK=   LST1
000133:    5716           02003        WAITBB             BBCON    WAIT2
000134:
000135:                                                                                                  #  RETURN TO CALLER +2 AFTER WAITING DT SPECIFIED AT CALLER +1.
000136:
000137:    5717           50002        FIXDELAY           INDEX    Q                                     #  BOTH ROUTINES MUST BE CALLED UNDER
000138:    5720           30000                           CAF      0                                     #  WAITLIST CONTROL AND TERMINATE THE TASK
000139:    5721           24002                           INCR     Q                                     #  IN WHICH THEY WERE CALLED.
000140:
000141:                                                                                                  #  RETURN TO CALLER +1 AFTER WAITING THE DT AS ARRIVING IN A.
000142:
000143:    5722           56002        VARDELAY           XCH      Q                                     #  DT TO Q. TASK ADRES TO WAITADR.
000144:    5723           54063                           TS       WAITADR
000145:    5724           30006                           CA       BBANK                                 #  BBANK IS SAVED DURING DELAY.
000146:    5725           54001                           TS       L
000147:    5726           35731                           CAF      DELAYEX
000148:    5727           54061                           TS       WAITEXIT                              #  GO TO TASKOVER AFTER TASK ENTRY.
000149:    5730           15707                           TCF      DLY2
000150:
000151:    5731           15743        DELAYEX            TCF      TASKOVER   -2                         #  RETURNS TO TASKOVER
000152:


000154:
000155:                                                                                                  #  ENDTASK MUST BE ENTERED IN FIXED-FIXED SO IT IS DISTINGUISHABLE BY ITS ADRES ALONE.
000156:
000157:    5732  E3,1400                                  EBANK=   LST1
000158:    5732           72043 73774  ENDTASK            -2CADR   SVCT3
000159:
000160:    5734           10076        SVCT3              CCS      FLAGWRD2                              #  DRIFT FLAG
000161:    5735           15745                           TCF      TASKOVER
000162:    5736           15745                           TCF      TASKOVER
000163:    5737           15740                           TCF      +1
000164:
000165:    5740           35674                           CAF      PRIO35                                #  COMPENSATE FOR NBD COEFFICIENTS ONLY
000166:    5741           05523                           TC       NOVAC                                 #      ENABLE EVERY 81.93 SECONDS
000167:    5742  E3,1444                                  EBANK=   NBDX
000168:    5742           03503 24003                     2CADR    NBDONLY
000169:
000170:    5744           15745                           TCF      TASKOVER
000171:


000173:
000174:                                                                                                  #  BEGIN TASK INSERTION.
000175:
000176: 01,3360                                           BANK     01
000177: 01,3360           54062        WAIT2              TS       WAITBANK                              #  BBANK OF CALLING PROGRAM.
000178: 01,3361           40026                           CS       TIME3
000179: 01,3362           67746                           AD       BIT8                                  #  BIT 8 = OCT 200
000180: 01,3363           10000                           CCS      A                                     #  TEST 200 - C(TIME3).  IF POSITIVE,
000181:                                                                                                  #  IT MEANS THAT TIME3 OVERFLOW HAS OCCURRED PRIOR TO CS TIME3 AND THAT
000182:                                                                                                  #  C(TIME3) = T - T1, INSTEAD OF 1.0 - (T1 - T).  THE FOLLOWING FOUR
000183:                                                                                                  #  ORDERS SET C(A) = TD - T1 + 1 IN EITHER CASE.
000184:
000185: 01,3364           66143                           AD       OCT40001                              #  OVERFLOW HAS OCCURRED.  SET C(A) =
000186: 01,3365           40000                           CS       A                                     #  T - T1 + 1.0 - 201
000187:
000188:                                                                                                  #  NORMAL CASE (C(A) NNZ) YIELDS SAME C(A):  -( -(1.0-(T1-T)) + 200) - 1
000189:
000190: 01,3366           63514                           AD       OCT40201
000191: 01,3367           60002                           AD       Q                                     #  RESULT = TD - T1 + 1.
000192:
000193: 01,3370           10000                           CCS      A                                     #  TEST TD - T1 + 1
000194:
000195: 01,3371           61400                           AD       LST1                                  #  IF TD - T1 POS, GO TO WTLST5 WITH
000196: 01,3372           13434                           TCF      WTLST5                                #  C(A) = (TD - T1) + C(LST1) = TD-T2+1
000197:
000198: 01,3373           13374                           NOOP
000199: 01,3374           40002                           CS       Q
000200:
000201:                                                                                                  #  NOTE THAT THIS PROGRAM SECTION IS NEVER ENTERED WHEN T-T1 G/E -1,
000202:                                                                                                  #  SINCE TD-T1+1 = (TD-T) + (T-T1+1), AND DELTA T = TD-T G/E +1.  (G/E
000203:                                                                                                  #  SYMBOL MEANS GREATER THAN OR EQUAL TO).  THUS THERE NEED BE NO CON-
000204:                                                                                                  #  CERN OVER A PREVIOUS OR IMMINENT OVERFLOW OF TIME3 HERE.
000205:
000206: 01,3375           67740                           AD       POS1/2                                #  WHEN TD IS NEXT, FORM QUANTITY
000207: 01,3376           67740                           AD       POS1/2                                #        1.0 - DELTA T = 1.0 - (TD - T)
000208: 01,3377           56026                           XCH      TIME3
000209: 01,3400           67737                           AD       NEGMAX
000210: 01,3401           60002                           AD       Q                                     #  1.0 - DELTAT T NOW COMPLETE.
000211: 01,3402           00006                           EXTEND                                         #  ZERO INDEX Q.
000212: 01,3403           22007                           QXCH     7                                     #  (ZQ)
000213:


000215: 01,3404           57400        WTLST4             XCH      LST1
000216: 01,3405           57401                           XCH      LST1       +1
000217: 01,3406           57402                           XCH      LST1       +2
000218: 01,3407           57403                           XCH      LST1       +3
000219: 01,3410           57404                           XCH      LST1       +4
000220: 01,3411           57405                           XCH      LST1       +5
000221: 01,3412           57406                           XCH      LST1       +6
000222: 01,3413           57407                           XCH      LST1       +7
000223:
000224: 01,3414           30063                           CA       WAITADR                               #  (MINOR PART OF TASK CADR HAS BEEN IN L.)
000225: 01,3415           50002                           INDEX    Q
000226: 01,3416           13417                           TCF      +1
000227:
000228: 01,3417           53411                           DXCH     LST2
000229: 01,3420           53413                           DXCH     LST2       +2
000230: 01,3421           53415                           DXCH     LST2       +4
000231: 01,3422           53417                           DXCH     LST2       +6
000232: 01,3423           53421                           DXCH     LST2       +8D
000233: 01,3424           53423                           DXCH     LST2       +10D                       #  AT END, CHECK THAT C(LST2+10) IS STD
000234: 01,3425           53425                           DXCH     LST2       +12D
000235: 01,3426           53427                           DXCH     LST2       +14D
000236: 01,3427           53431                           DXCH     LST2       +16D
000237: 01,3430           65732                           AD       ENDTASK                               #  END ITEM, AS CHECK FOR EXCEEDING
000238:                                                                                                  #  THE LENGTH OF THE LIST.
000239: 01,3431           00006                           EXTEND                                         #  DUMMY TASK ADRES SHOULD BE IN FIXED-
000240: 01,3432           15712                           BZF      LVWTLIST                              #  FIXED SO ITS ADRES ALONE DISTINGUISHES
000241: 01,3433           13507                           TCF      WTABORT                               #  IT.
000242:


000244:
000245: 01,3434           10000        WTLST5             CCS      A                                     #  TEST TD - T2 + 1
000246: 01,3435           61401                           AD       LST1       +1
000247: 01,3436           13442                           TCF      +4
000248: 01,3437           67755                           AD       ONE
000249: 01,3440           03515                           TC       WTLST2
000250: 01,3441           00001                           OCT      1
000251:
000252: 01,3442           10000                 +4        CCS      A                                     #  TEST TD - T3 + 1
000253: 01,3443           61402                           AD       LST1       +2
000254: 01,3444           13450                           TCF      +4
000255: 01,3445           67755                           AD       ONE
000256: 01,3446           03515                           TC       WTLST2
000257: 01,3447           00002                           OCT      2
000258:
000259: 01,3450           10000                 +4        CCS      A                                     #  TEST TD - T4 + 1
000260: 01,3451           61403                           AD       LST1       +3
000261: 01,3452           13456                           TCF      +4
000262: 01,3453           67755                           AD       ONE
000263: 01,3454           03515                           TC       WTLST2
000264: 01,3455           00003                           OCT      3
000265:
000266: 01,3456           10000                 +4        CCS      A                                     #  TEST TD - T5 + 1
000267: 01,3457           61404                           AD       LST1       +4
000268: 01,3460           13464                           TCF      +4
000269: 01,3461           67755                           AD       ONE
000270: 01,3462           03515                           TC       WTLST2
000271: 01,3463           00004                           OCT      4
000272:
000273: 01,3464           10000                 +4        CCS      A                                     #  TEST TD - T6 + 1
000274: 01,3465           61405                           AD       LST1       +5
000275: 01,3466           13472                           TCF      +4
000276: 01,3467           67755                           AD       ONE
000277: 01,3470           03515                           TC       WTLST2
000278: 01,3471           00005                           OCT      5
000279:
000280: 01,3472           10000                 +4        CCS      A                                     #  TEST TD - T7 + 1
000281: 01,3473           61406                           AD       LST1       +6
000282: 01,3474           13500                           TCF      +4
000283: 01,3475           67755                           AD       ONE
000284: 01,3476           03515                           TC       WTLST2
000285: 01,3477           00006                           OCT      6
000286:


000288:
000289: 01,3500           10000                 +4        CCS      A
000290: 01,3501           61407                           AD       LST1       +7
000291: 01,3502           13506                           TCF      +4
000292: 01,3503           67755                           AD       ONE
000293: 01,3504           03515                           TC       WTLST2
000294: 01,3505           00007                           OCT      7
000295:
000296: 01,3506           10000                 +4        CCS      A
000297: 01,3507           06000        WTABORT            TC       ABORT                                 #  NO ROOM IN THE INN.
000298: 01,3510           01203                           OCT      1203
000299:
000300: 01,3511           67755                           AD       ONE
000301: 01,3512           03515                           TC       WTLST2
000302: 01,3513           00010                           OCT      10
000303:
000304: 01,3514           40201        OCT40201           OCT      40201
000305:


000307:
000308:                                                                                                  #  THE ENTRY TO WTLST2 JUST PRECEDING OCT N IS FOR T  LE TD LE T   -1.
000309:                                                                                                  #                                                   N           N+1
000310:                                                                                                  #  (LE MEANS LESS THAN OR EQUAL TO).  AT ENTRY, C(A) = -(TD - T   + 1)
000311:                                                                                                  #                                                              N+1
000312:                                                                                                  #  THE LST1 ENTRY -(T   -T +1) IS TO BE REPLACED BY -(TD - T  + 1), AND
000313:                                                                                                  #                    N+1  N                                 N
000314:                                                                                                  #  THE ENTRY -(T   - TD + 1) IS TO BE INSERTED IMMEDIATELY FOLLOWING.
000315:                                                                                                  #               N+1
000316:
000317: 01,3515           54064        WTLST2             TS       WAITTEMP                              #  C(A) = -(TD - T + 1)
000318: 01,3516           50002                           INDEX    Q
000319: 01,3517           30000                           CAF      0
000320: 01,3520           54002                           TS       Q                                     #  INDEX VALUE INTO Q.
000321:
000322: 01,3521           37755                           CAF      ONE
000323: 01,3522           60064                           AD       WAITTEMP
000324: 01,3523           50002                           INDEX    Q                                     #  C(A) = -(TD - T ) + 1.
000325: 01,3524           27377                           ADS      LST1       -1                         #                 N
000326:
000327: 01,3525           40064                           CS       WAITTEMP
000328: 01,3526           50002                           INDEX    Q
000329: 01,3527           13404                           TCF      WTLST4
000330:
000331:                                                                                                  #        C(TIME3)        =       1.0 - (T1 - T)
000332:
000333:                                                                                                  #        C(LST1   )       =       - (T2 - T1) + 1
000334:                                                                                                  #        C(LST1+1 )       =       - (T3 - T2) + 1
000335:                                                                                                  #        C(LST1+2 )       =       - (T4 - T3) + 1
000336:                                                                                                  #        C(LST1+3 )       =       - (T5 - T4) + 1
000337:                                                                                                  #        C(LST1+4 )       =       - (T6 - T5) + 1
000338:
000339:                                                                                                  #        C(LST2   )       =       2CADR TASK1
000340:                                                                                                  #        C(LST2+2 )       =       2CADR TASK2
000341:                                                                                                  #        C(LST2+4 )       =       2CADR TASK3
000342:                                                                                                  #        C(LST2+6 )       =       2CADR TASK4
000343:                                                                                                  #        C(LST2+8 )       =       2CADR TASK5
000344:                                                                                                  #        C(LST2+10)       =       2CADR TASK6
000345:


000347:
000348:                                                                                                  #  ENTERS HERE ON T3 RUPT TO DISPATCH WAITLISTED TASK.
000349:
000350: 01,3530           54016        T3RUPT             TS       BANKRUPT
000351: 01,3531           00006                           EXTEND
000352: 01,3532           22012                           QXCH     QRUPT
000353:
000354: 01,3533           37736        T3RUPT2            CAF      NEG1/2                                #  DISPATCH WAITLIST TASK.
000355: 01,3534           57407                           XCH      LST1       +7
000356: 01,3535           57406                           XCH      LST1       +6
000357: 01,3536           57405                           XCH      LST1       +5
000358: 01,3537           57404                           XCH      LST1       +4                         #  1. MOVE UP LST1 CONTENTS, ENTERING
000359: 01,3540           57403                           XCH      LST1       +3                         #     A VALUE OF 1/2 +1 AT THE BOTTOM
000360: 01,3541           57402                           XCH      LST1       +2                         #     FOR T6-T5, CORRESPONDING TO THE
000361: 01,3542           57401                           XCH      LST1       +1                         #     INTERVAL 81.91 SEC FOR ENDTASK.
000362: 01,3543           57400                           XCH      LST1
000363: 01,3544           67735                           AD       POSMAX                                #  2. SET T3 = 1.0 - T2 - T USING LIST 1.
000364: 01,3545           26026                           ADS      TIME3                                 #  SO T3 WONT TICK DURING UPDATE.
000365: 01,3546           55076                           TS       RUPTAGN
000366: 01,3547           47761                           CS       ZERO
000367: 01,3550           55076                           TS       RUPTAGN                               #  SETS RUPTAGN TO +1 ON OVERFLOW.
000368:
000369: 01,3551           00006                           EXTEND                                         #  DISPATCH TASK.
000370: 01,3552           45733                           DCS      ENDTASK
000371: 01,3553           53431                           DXCH     LST2       +16D
000372: 01,3554           53427                           DXCH     LST2       +14D
000373: 01,3555           53425                           DXCH     LST2       +12D
000374: 01,3556           53423                           DXCH     LST2       +10D
000375: 01,3557           53421                           DXCH     LST2       +8D
000376: 01,3560           53417                           DXCH     LST2       +6
000377: 01,3561           53415                           DXCH     LST2       +4
000378: 01,3562           53413                           DXCH     LST2       +2
000379: 01,3563           53411                           DXCH     LST2
000380:
000381: 01,3564           52006                           DTCB
000382:


000384:
000385:                                                                                                  #  RETURN, AFTER EXECUTION OF T3 OVERFLOW TASK:
000386:
000387:    5745                                           BLOCK    02
000388:    5745           11076        TASKOVER           CCS      RUPTAGN                               #  IF +1 RETURN TO T3RUPT, IF -0 RESUME.
000389:    5746           35716                           CAF      WAITBB
000390:    5747           54006                           TS       BBANK
000391:    5750           13533                           TCF      T3RUPT2                               #  DISPATCH NEXT TASK IF IT WAS DUE.
000392:
000393:    5751           00006        RESUME             EXTEND
000394:    5752           22012                           QXCH     QRUPT
000395:    5753           30016        NOQRSM             CA       BANKRUPT
000396:    5754           54006                           TS       BBANK
000397:    5755           52011        NOQBRSM            DXCH     ARUPT
000398:    5756           50017                           RESUME
000399:


000401:
000402:                                                                                                  #  LONGCALL
000403:
000404:                                                                                                  #  LONGCALL IS CALLED WITH THE DELTA TIME ARRIVING IN A,L SCALED AS TIME2,TIME1 WITH THE 2CADR OF THE TASK
000405:                                                                                                  #  IMMEDIATELY FOLLOWING THE TC LONGCALL.  FOR EXAMPLE, IT MIGHT BE DONE AS FOLLOWS WHERE TIMELOC IS THE NAME OF
000406:                                                                                                  #  A DP REGISTER CONTAINING A DELTA TIME AND WHERE TASKTODO IS THE NAME OF THE LOCATION AT WHICH LONGCALL IS TO
000407:                                                                                                  #  START
000408:
000409:                                                                                                  #                EXTEND
000410:                                                                                                  #                DCA             TIMELOC
000411:                                                                                                  #                TC              LONGCALL
000412:                                                                                                  #                2CADR           TASKTODO
000413:
000414:                                                                                                  #  *** THE FOLLOWING IS TO BE IN FIXED-FIXED AND UNSWITCHED ERRASIBLE ***
000415:
000416:    5757                                           BLOCK    02
000417:    5757  E3,1400                                  EBANK=   LST1
000418:    5757           53153        LONGCALL           DXCH     LONGTIME                              #  OBTAIN THE DELTA TIME
000419:
000420:    5760           00006                           EXTEND                                         #  OBTAIN THE 2CADR
000421:    5761           50002                           NDX      Q
000422:    5762           30001                           DCA      0
000423:    5763           53151                           DXCH     LONGCADR
000424:
000425:    5764           00006                           EXTEND                                         #  NOW GO TO THE APPROPRIATE SWITCHED BANK
000426:    5765           35770                           DCA      LGCL2CDR                              #  FOR THE REST OF LONGCALL
000427:    5766           52006                           DTCB
000428:
000429:    5767  E3,1400                                  EBANK=   LST1
000430:    5767           03565 02003  LGCL2CDR           2CADR    LNGCALL2
000431:
000432:                                                                                                  #  *** THE FOLLOWING MAY BE IN A SWITCHED BANK, INCLUDING ITS ERASABLE ***
000433:
000434: 01,3565                                           BANK     01
000435: 01,3565           23435        LNGCALL2           LXCH     LONGEXIT   +1                         #  SAVE THE CORRECT BB FOR RETURN
000436: 01,3566           37754                           CA       TWO                                   #  OBTAIN THE RETURN ADDRESS
000437: 01,3567           26002                           ADS      Q
000438: 01,3570           55434                           TS       LONGEXIT
000439:
000440:                                                                                                  #  *** WAITLIST TASK LONGCYCL ***
000441:
000442: 01,3571           00006        LONGCYCL           EXTEND                                         #  CAN WE SUCCESFULLY TAKE ABOUT 1.25
000443: 01,3572           43603                           DCS      DPBIT14                               #  MINUTES OFF OF LONGTIME
000444: 01,3573           21153                           DAS      LONGTIME
000445:
000446: 01,3574           11153                           CCS      LONGTIME   +1                         #  THE REASONIBG BEHIND THIS PART IS
000447: 01,3575           13614                           TCF      MUCHTIME                              #  INVOLVED, TAKING INTO ACCOUNT THAT THE
000448:                                                                                                  #  WORDS MAY NOT BE SIGNED CORRECTED (DP
000449:                                                                                                  #  BASIC INSTRUCTIONS
000450:                                                                                                  #  DO NOT SIGN CORRECT) AND THAT WE SUBTRAC
000451:                                                                                                  #  TED BIT14 (1 OVER HALF THE POS. VALUE
000452:                                                                                                  #  REPRESENTABLE IN SINGLE WORD)
000453:


000455:
000456: 01,3576           13577                           NOOP                                           #  CAN:T GET HERE **********
000457: 01,3577           13600                           TCF      +1
000458: 01,3600           11152                           CCS      LONGTIME
000459: 01,3601           13614                           TCF      MUCHTIME
000460: 01,3602           00000        DPBIT14            OCT      00000
000461: 01,3603           20000                           OCT      20000
000462:
000463:                                                                                                  #  LONGCALL
000464:
000465: 01,3604           37740        LASTTIME           CA       BIT14                                 #  GET BACK THE CORRECT DELTA TFOR WAITLIST
000466: 01,3605           27153                           ADS      LONGTIME   +1
000467: 01,3606           05701                           TC       WAITLIST
000468: 01,3607  E3,1400                                  EBANK=   LST1
000469: 01,3607           03621 02003                     2CADR    GETCADR                               #  THE ENTRY TO OUR LONGCADR
000470:
000471: 01,3611           33623        LONGRTRN           CA       TSKOVCDR                              #  SET IT UP SO THAT ONLY THE FIRST EXIT IS
000472: 01,3612           53435                           DXCH     LONGEXIT                              #  TO THE CALLER OF LONGCALL
000473: 01,3613           52006                           DTCB                                           #  THE REST ARE TO TASKOVER
000474:
000475: 01,3614           37740        MUCHTIME           CA       BIT14                                 #  WE HAVE OVER OUR ABOUT 1.25 MINUTES
000476: 01,3615           05701                           TC       WAITLIST                              #  SO SET UP FOR ANOTHER CYCLE THROUGH HERE
000477: 01,3616  E3,1400                                  EBANK=   LST1
000478: 01,3616           03571 02003                     2CADR    LONGCYCL
000479:
000480: 01,3620           13611                           TCF      LONGRTRN                              #  NOW EXIT PROPERLY
000481:
000482:                                                                                                  #  *** WAITLIST TASK GETCADR ***
000483:
000484: 01,3621           53151        GETCADR            DXCH     LONGCADR                              #  GET THE LONGCALL THAT WE WISHED TO START
000485: 01,3622           52006                           DTCB                                           #  AND TRANSFER CONTROL TO IT
000486:
000487: 01,3623           05745        TSKOVCDR           GENADR   TASKOVER

End of include-file WAITLIST.agc.  Parent file is MAIN.agc


