
Source Code


000002:                                                                                                  ## Copyright:   Public domain.
000003:                                                                                                  ## Filename:    ALARM_AND_ABORT.agc
000004:                                                                                                  ## Purpose:     Part of the source code for Luminary 1A build 099.
000005:                                                                                                  ##              It is part of the source code for the Lunar Module's (LM)
000006:                                                                                                  ##              Apollo Guidance Computer (AGC), for Apollo 11.
000007:                                                                                                  ## Assembler:   yaYUL
000008:                                                                                                  ## Contact:     Ron Burkey <info@sandroid.org>.
000009:                                                                                                  ## Website:     www.ibiblio.org/apollo.
000010:                                                                                                  ## Pages:       1381-1385
000011:                                                                                                  ## Mod history: 2009-05-10 SN   (Sergio Navarro).  Started adapting
000012:                                                                                                  ##                              from the Luminary131/ file of the same
000013:                                                                                                  ##                              name, using Luminary099 page images.
000014:                                                                                                  ##              2009-06-05 RSB  Fixed a type.
000015:                                                                                                  ##              2011-01-06 JL   Fixed pseudo-label indentation.
000016:                                                                                                  ##              2016-12-13 RSB  GOTOP00H -> GOTOPOOH
000017:                                                                                                  ##              2016-12-18 RSB  Proofed text comments with octopus/ProoferComments
000018:                                                                                                  ##                              and corrected the errors found.
000019:                                                                                                  ##              2017-03-03 RSB  Snapshot of Luminary 99 Rev 1.
000020:


000022:                                                                                                  #  THE FOLLOWING SUBROUTINE MAY BE CALLED TO DISPLAY A NON-ABORTIVE ALARM CONDITION.  IT MAY BE CALLED
000023:                                                                                                  #  EITHER IN INTERRUPT OR UNDER EXECUTIVE CONTROL.
000024:
000025:                                                                                                  #  CALLING SEQUENCE IS AS FOLLOWS:
000026:                                                                                                  #                TC      ALARM
000027:                                                                                                  #                OCT     AAANN           ALARM NO. NN IN GENERAL AREA AAA.
000028:                                                                                                  #                                        (RETURNS HERE)
000029:
000030:    5567                                           BLOCK    02
000031:    4000                                           SETLOC   FFTAG7
000032:    4000                                           BANK
000033:
000034:    5567     0375                                  EBANK=   FAILREG
000035:
000036:    5567                                           COUNT*   $$/ALARM
000037:
000038:                                                                                                  #  ALARM TURNS ON THE PROGRAM ALARM LIGHT, BUT DOES NOT DISPLAY.
000039:
000040:    5567           00004        ALARM              INHINT
000041:
000042:    5570           30002                           CA       Q
000043:    5571           55363        ALARM2             TS       ALMCADR
000044:    5572           50002                           INDEX    Q
000045:    5573           30000                           CA       0
000046:    5574           54001        BORTENT            TS       L
000047:
000048:    5575           30006        PRIOENT            CA       BBANK
000049:    5576           00006                 +1        EXTEND
000050:    5577           04007                           ROR      SUPERBNK                              #  ADD SUPER BITS.
000051:    5600           55364                           TS       ALMCADR    +1
000052:
000053:    5601           30002        LARMENT            CA       Q                                     #  STORE RETURN FOR ALARM
000054:    5602           54061                           TS       ITEMP1
000055:
000056:    5603           10375        CHKFAIL1           CCS      FAILREG                               #  IS ANYTHING IN FAILREG
000057:    5604           15607                           TCF      CHKFAIL2                              #  YES TRY NEXT REG
000058:    5605           22375                           LXCH     FAILREG
000059:    5606           15621                           TCF      PROGLARM                              #  TURN ALARM LIGHT ON FOR FIRST ALARM
000060:
000061:    5607           10376        CHKFAIL2           CCS      FAILREG    +1
000062:    5610           15613                           TCF      FAIL3
000063:    5611           22376                           LXCH     FAILREG    +1
000064:    5612           15624                           TCF      MULTEXIT
000065:
000066:    5613           30377        FAIL3              CA       FAILREG    +2
000067:    5614           74733                           MASK     POSMAX
000068:    5615           10000                           CCS      A
000069:    5616           15630                           TCF      MULTFAIL
000070:    5617           22377                           LXCH     FAILREG    +2
000071:    5620           15624                           TCF      MULTEXIT
000072:


000074:
000075:    5621           41036        PROGLARM           CS       DSPTAB     +11D
000076:    5622           75642                           MASK     OCT40400
000077:    5623           27036                           ADS      DSPTAB     +11D
000078:
000079:
000080:    5624           56061        MULTEXIT           XCH      ITEMP1                                #  OBTAIN RETURN ADDRESS IN A
000081:    5625           00003                           RELINT
000082:    5626           50000                           INDEX    A
000083:    5627           00001                           TC       1
000084:
000085:    5630           30001        MULTFAIL           CA       L
000086:    5631           64735                           AD       BIT15
000087:    5632           54377                           TS       FAILREG    +2
000088:
000089:    5633           15624                           TCF      MULTEXIT
000090:
000091:                                                                                                  #  PRIOLARM DISPLAYS V05N09 VIA PRIODSPR WITH 3 RETURNS TO THE USER FROM THE ASTRONAUT AT CALL LOC +1,+2,+3 AND
000092:                                                                                                  #  AN IMMEDIATE RETURN TO THE USER AT CALL LOC +4.  EXAMPLE FOLLOWS,
000093:                                                                                                  #                CAF     OCTXX           ALARM CODE
000094:                                                                                                  #                TC      BANKCALL
000095:                                                                                                  #                CADR    PRIOLARM
000096:                                                                                                  #                ...     ...
000097:                                                                                                  #                ...     ...
000098:                                                                                                  #                ...     ...             ASTRONAUT RETURN
000099:                                                                                                  #                TC      PHASCHNG        IMMEDIATE RETURN TO USER.  RESTART
000100:                                                                                                  #                OCT     X.1             PHASE CHANGE FOR PRIO DISPLAY
000101:
000102: 10,3562                                           BANK     10
000103: 10,2000                                           SETLOC   DISPLAYS
000104: 10,2000                                           BANK
000105:
000106: 10,3562                                           COUNT*   $$/DSPLA
000107: 10,3562           00004        PRIOLARM           INHINT                                         #  * * * KEEP IN DISPLAY ROUTINES BANK
000108: 10,3563           54001                           TS       L                                     #  SAVE ALARM CODE
000109:
000110: 10,3564           30133                           CA       BUF2                                  #  2 CADR OF PRIOLARM USER
000111: 10,3565           55363                           TS       ALMCADR
000112: 10,3566           30134                           CA       BUF2       +1
000113: 10,3567           05576                           TC       PRIOENT    +1                         #  * LEAVE L ALONE
000114: 10,3570           77467        -2SEC              DEC      -200       B-14                       #  *** DONT MOVE
000115: 10,3571           35006                           CAF      V05N09
000116: 10,3572           12504                           TCF      PRIODSPR
000117:
000118:    5634                                           BLOCK    02
000119:    4000                                           SETLOC   FFTAG7
000120:    4000                                           BANK
000121:
000122:    5634                                           COUNT*   $$/ALARM
000123:    5634           00004        BAILOUT            INHINT
000124:    5635           30002                           CA       Q


000126:    5636           55363                           TS       ALMCADR
000127:
000128:    5637           50002                           INDEX    Q
000129:    5640           30000                           CAF      0
000130:    5641           05574                           TC       BORTENT
000131:    5642           40400        OCT40400           OCT      40400
000132:
000133:    5643           00004                           INHINT
000134:    5644           34752        WHIMPER            CA       TWO
000135:    5645           60005                           AD       Z
000136:    5646           54017                           TS       BRUPT
000137:    5647           50017                           RESUME
000138:    5650           04635                           TC       POSTJUMP                              #  RESUME SENDS CONTROL HERE
000139:    5651           12765                           CADR     ENEMA
000140:    5652           00004        POODOO             INHINT
000141:    5653           30002                           CA       Q
000142:    5654           55363        ABORT2             TS       ALMCADR
000143:    5655           50002                           INDEX    Q
000144:    5656           30000                           CAF      0
000145:    5657           05574                           TC       BORTENT
000146:    5660           77770        OCT77770           OCT      77770                                 #  DON'T MOVE
000147:
000148:    5661           34765                           CAF      OCT35                                 #  4.35SPOT FOR GOPOODOO
000149:    5662           54001                           TS       L
000150:    5663           40000                           COM
000151:    5664           52761                           DXCH     -PHASE4
000152:    5665           00004        GOPOODOO           INHINT
000153:    5666           04616                           TC       BANKCALL                              #  RESET STATEFLG, REINTFLG, AND NODOFLAG.
000154:    5667           27755                           CADR     FLAGS
000155:    5670           30103                           CA       FLAGWRD7                              #  IS SERVICER CURRENTLY IN OPERATION?
000156:    5671           74746                           MASK     V37FLBIT
000157:    5672           10000                           CCS      A
000158:    5673           15701                           TCF      STRTIDLE
000159:    5674           04616                           TC       BANKCALL                              #  TERMINATE GRPS 1, 3, 5, AND 6
000160:    5675           12652                           CADR     V37KLEAN
000161:    5676           04616                           TC       BANKCALL                              #  TERMINATE GRPS 2, 4, 1, 3, 5, AND 6
000162:    5677           12643                           CADR     MR.KLEAN                              #        (I.E., GRP 4 LAST)
000163:    5700           15644                           TCF      WHIMPER
000164:    5701           35743        STRTIDLE           CAF      BBSERVDL
000165:    5702           04727                           TC       SUPERSW
000166:    5703           04616                           TC       BANKCALL                              #  PUT SERVICER INTO ITS "GROUND" STATE
000167:    5704           57321                           CADR     SERVIDLE                              #  AND PROCEED TO GOTOPOOH.
000168:    5705           00004        CCSHOLE            INHINT
000169:    5706           30002                           CA       Q
000170:    5707           05654                           TC       ABORT2
000171:    5710           01103        OCT21103           OCT      1103
000172:    5711           00004        CURTAINS           INHINT
000173:    5712           30002                           CA       Q
000174:    5713           05571                           TC       ALARM2
000175:    5714           00217        OCT217             OCT      00217


000177:    5715           01363                           TC       ALMCADR                               #  RETURN TO USER
000178:
000179:    5716           00004        BAILOUT1           INHINT
000180:    5717           53364                           DXCH     ALMCADR
000181:    5720           35742                           CAF      ADR40400
000182:    5721           54061        BOTHABRT           TS       ITEMP1
000183:    5722           50002                           INDEX    Q
000184:    5723           30000                           CAF      0
000185:    5724           54001                           TS       L
000186:    5725           15603                           TCF      CHKFAIL1
000187:    5726           00004        POODOO1            INHINT
000188:    5727           53364                           DXCH     ALMCADR
000189:    5730           35741                           CAF      ADR77770
000190:    5731           15721                           TCF      BOTHABRT
000191:
000192:    5732           00004        ALARM1             INHINT
000193:    5733           53364                           DXCH     ALMCADR
000194:    5734           00004        ALMNCADR           INHINT
000195:    5735           50002                           INDEX    Q
000196:    5736           30000                           CA       0
000197:    5737           54001                           TS       L
000198:    5740           15601                           TCF      LARMENT
000199:
000200:    5741           15660        ADR77770           TCF      OCT77770
000201:    5742           15642        ADR40400           TCF      OCT40400
000202:    5743     5155               DOALARM            EQUALS   ENDOFJOB
000203:    5743  E7,1515                                  EBANK=   DVCNTR
000204:    5743           56067        BBSERVDL           BBCON    SERVIDLE
000205:
000206:                                                                                                  #  CALLING SEQUENCE FOR VARALARM
000207:                                                                                                  #                CAF     (ALARM)
000208:                                                                                                  #                TC      VARALARM
000209:
000210:                                                                                                  #  VARALARM TURNS ON PROGRAM ALARM LIGHT BUT DOES NOT DISPLAY
000211:
000212:    5744           00004        VARALARM           INHINT
000213:
000214:    5745           54001                           TS       L                                     #  SAVE USERS ALARM CODE
000215:
000216:    5746           30002                           CA       Q                                     #  SAVE USERS Q
000217:    5747           55363                           TS       ALMCADR
000218:
000219:    5750           05575                           TC       PRIOENT
000220:    5751           00014        OCT14              OCT      14                                    #  DONT MOVE
000221:
000222:    5752           01363                           TC       ALMCADR                               #  RETURN TO USER
000223:
000224:    5753     5644               ABORT              EQUALS   WHIMPER
000225: 13,3755                                           BANK     13
000226: 13,2000                                           SETLOC   ABTFLGS
000227: 13,2000                                           BANK


000229: 13,3755                                           COUNT*   $$/ALARM
000230:
000231: 13,3755           44747        FLAGS              CS       STATEBIT
000232: 13,3756           70077                           MASK     FLAGWRD3
000233: 13,3757           54077                           TS       FLAGWRD3
000234: 13,3760           44745                           CS       REINTBIT
000235: 13,3761           70106                           MASK     FLGWRD10
000236: 13,3762           54106                           TS       FLGWRD10
000237: 13,3763           44753                           CS       NODOBIT
000238: 13,3764           70076                           MASK     FLAGWRD2
000239: 13,3765           54076                           TS       FLAGWRD2
000240: 13,3766           00002                           TC       Q
000241:

End of include-file ALARM_AND_ABORT.agc.  Parent file is MAIN.agc


