
Source Code


000002:                                                                                                  ## Copyright:   Public domain.
000003:                                                                                                  ## Filename:    CONIC_SUBROUTINES.agc
000004:                                                                                                  ## Purpose:     Part of the source code for Luminary 1A build 099.
000005:                                                                                                  ##              It is part of the source code for the Lunar Module's (LM)
000006:                                                                                                  ##              Apollo Guidance Computer (AGC), for Apollo 11.
000007:                                                                                                  ##
000008:                                                                                                  ## Assembler:   yaYUL
000009:                                                                                                  ## Contact:     Jim Lawton <jim DOT lawton AT gmail.com>
000010:                                                                                                  ## Website:     www.ibiblio.org/apollo.
000011:                                                                                                  ## Pages:       1159-1204
000012:                                                                                                  ## Mod history: 2009-05-28 JL   Started updating from page images.
000013:                                                                                                  ##              2009-06-02 JL   Finished updating from page images.
000014:                                                                                                  ##              2010-12-31 JL   Fixed page number comments.
000015:                                                                                                  ##              2016-12-17 RSB  Proofed text comments with octopus/ProoferComments
000016:                                                                                                  ##                              and corrected the errors found.
000017:                                                                                                  ##              2017-01-28 RSB  WTIH -> WITH and WHCIH -> WHICH.
000018:                                                                                                  ##              2017-03-03 RSB  Snapshot of Luminary 99 Rev 1.
000019:


000021:                                                                                                  #  PROGRAM DESCRIPTION - ENTIRE CONIC SUBROUTINE LOG SECTION     DATE - 1 SEPTEMBER 1967
000022:                                                                                                  #  MOD NO. - 0                                                   LOG SECTION - CONIC SUBROUTINES
000023:                                                                                                  #  MOD BY KRAUSE                                                 ASSEMBLY - COLOSSUS REVISION 88
000024:
000025:                                                                                                  #  FUNCTIONAL DESCRIPTION -
000026:                                                                                                  #        THE FOLLOWING SET OF SUBROUTINES SOLVE VARIOUS PROBLEMS INVOLVING THE TRAJECTORY PRODUCED BY A CENTRAL
000027:                                                                                                  #  INVERSE-SQUARE FORCE ACTING ON A POINT MASS, AS OUTLINED IN THE CMC AND LGC LUNAR LANDING MISSION GSOP, SECTION
000028:                                                                                                  #  5.5.1.2.  A GENERAL USAGE POINT-OF-VIEW WAS TAKEN IN FORMULATING, MECHANIZING, AND SCALING THE SUBROUTINES,
000029:                                                                                                  #  RATHER THAN OPTIMIZING EACH FOR A PARTICULAR USE.  THEREFORE, MULTIPLE USAGE CAN BE MADE OF THE SUBROUTINES
000030:                                                                                                  #  INVOLVING ANY REALISTIC SET OF CONSTRAINTS.  IT SHOULD BE NOTED THAT ONLY ONE SET OF CODING IS USED, WHETHER THE
000031:                                                                                                  #  EARTH, MOON, OR ANY OTHER CELESTIAL BODY IS SPECIFIED AS THE CENTRAL BODY OF THE PROBLEM, PROVIDED ONE OBSERVES
000032:                                                                                                  #  THE INHERENT SCALE CHANGE REQUIRED IN POSITION, VELOCITY, MU, AND TIME, AS OUTLINED IN MISSION PROGRAMMING
000033:                                                                                                  #  DEFINITION MEMO NO. 10.  THIS CAN BE ACCOMPLISHED BY SIMPLY ADDING TO THE MUTABLE AND INITIALIZING THE SUBROU-
000034:                                                                                                  #  TINES APPROPRIATELY.
000035:
000036:                                                                                                  #        DUE TO THE UNIFORMITY OF THE EQUATIONS INVOLVED, CODING WAS MINIMIZED BY TREATING INDIVIDUAL EQUATIONS AND
000037:                                                                                                  #  BLOCKS OF EQUATIONS AS SUBROUTINES OF LOWER RANK WHENEVER POSSIBLE.  AS A RESULT, THREE BY-PRODUCTS SUBROUTINES,
000038:                                                                                                  #  DIRECTLY USABLE AS INDEPENDENT SUBROUTINES, WERE GENERATED.
000039:
000040:                                                                                                  #  RESTRICTIONS -
000041:                                                                                                  #        THE ONLY LIMITATION IN THE SCOPE OF PROBLEM WHICH CAN BE SOLVED BY A PARTICULAR SUBROUTINE IS THE SCALING
000042:                                                                                                  #  LIMIT OF EACH PARAMETER AS SPECIFIED IN THE GSOP.  THESE SCALING LIMITS WERE CHOSEN SO THAT ALL FEASIBLE TRAJEC-
000043:                                                                                                  #  TORIES COULD BE HANDLED.
000044:
000045:                                                                                                  #        SINCE THE SUBROUTINES (EXCEPT KEPLER) USE COMMON SUBROUTINES OF LOWER RANK WHICH USE ERASABLE OTHER THAN
000046:                                                                                                  #  THE PUSHLIST (DUE TO ITS LIMITED SIZE) AND COMMON INTERPRETIVE SWITCHES, THE CONIC SUBROUTINES CANNOT BE ALLOWED
000047:                                                                                                  #  TO INTERRUPT EACH OTHER.  IT IS UP TO THE USER TO GUARANTEE THIS CONDITION.
000048:


000050:                                                                                                  #  PROGRAM DESCRIPTION - KEPLER SUBROUTINE                       DATE - 11 OCTOBER 1967
000051:                                                                                                  #  MOD NO. -1                                                    LOG SECTION - CONIC SUBROUTINES
000052:                                                                                                  #  MOD BY KRAUSE                                                 ASSEMBLY - COLOSSUS 103 AND SUNDANCE 222
000053:                                                                                                  #  MOD NO. - 2 (AUGUST 1968) BY ROBERTSON: TO PERMIT BACKDATING BY MORE THAN ONE ORBITAL PERIOD.
000054:                                                                                                  #  MOD NO. - 3 (DEC 1968) BY ROBERTSON:  SUPPRESSION OF X-MODULO-ING
000055:                                                                                                  #  MOD. NO. - 4 (JAN 1969) BY ROBERTSON:  CLEAR OVFIND AT KEPLER ENTRY
000056:
000057:                                                                                                  #  FUNCTIONAL DESCRIPTION -
000058:                                                                                                  #        THIS SUBROUTINE, GIVEN AN INITIAL STATE VECTOR AND THE DESIRED TRANSFER TIME THROUGH WHICH THE STATE IS TO
000059:                                                                                                  #  BE UPDATED ALONG A CONIC TRAJECTORY, COMPUTES THE NEW, UPDATED STATE VECTOR.  THE TRAJECTORY MAY BE ANY CONIC
000060:                                                                                                  #  SECTION - CIRCULAR, ELLIPTIC, PARABOLIC, HYPERPOLIC, OR RECTILINEAR WITH RESPECT TO THE EARTH OR THE MOON.  THE
000061:                                                                                                  #  USE OF THE SUBROUTINE CAN BE EXTENDED USING OTHER PRIMARY BODIES BY SIMPLE ADDITIONS TO THE MUTABLE WITHOUT
000062:                                                                                                  #  INTRODUCING ANY CODING CHANGES, ACCEPTING THE INHERENT SCALE FACTOR CHANGES IN POSITION AND VELOCITY.  AN ITERA-
000063:                                                                                                  #  TION TECHNIQUE IS UTILIZED IN THE COMPUTATION.
000064:
000065:                                                                                                  #        IF A NEGATIVE TIME-OF-FLIGHT IS INPUT, THE PROGRAM WILL SOLVE FOR THE STATE WHICH WOULD BE PRODUCED BY
000066:                                                                                                  #  EXTRAPOLATING THE POSITION BACKWARD IN TIME.
000067:
000068:                                                                                                  #        IF THE ABSOLUTE VALUE OF THE DESIRED TRANSFER TIME EXCEEDS THE ORBITAL PERIOD, THE SUBROUTINE, THROUGH A
000069:                                                                                                  #   MODULAR TECHNIQUE, WILL COMPUTE THE STATE CORRESPONDING TO THE DESIRED TIME (WHETHER POSITIVE OR NEGATIVE).
000070:
000071:                                                                                                  #  THE RESTRICTIONS ARE -
000072:                                                                                                  #        1. (PREVIOUS RESTRICTION ON THE NEGATIVE DESIRED TRANSFER TIME IS NOW DELETED.)
000073:                                                                                                  #        2. THE PARAMETERS IN THE PROBLEM CANNOT EXCEED THEIR SCALING LIMITS AS SPECIFIED IN THE GSOP.  IF
000074:                                                                                                  #           ANY OF THESE LIMITS ARE EXCEEDED, THE RESULTING SOLUTION WILL BE MEANINGLESS.
000075:
000076:                                                                                                  #        THE NUMBER OF ITERATIONS AND, THEREFORE, THE COMPUTATION SPEED IS DEPENDENT ON THE ACCURACY OF THE
000077:                                                                                                  #  GUESS, XKFPNEW.  THE AGC COMPUTATION TIME IS APPROXIMATELY .061 SECONDS FOR INITIALIZATION, .065 SECONDS FOR THE
000078:                                                                                                  #  FINAL COMPUTATIONS, PLUS .083 SECONDS FOR EACH ITERATION.
000079:
000080:                                                                                                  #  REFERENCES -
000081:                                                                                                  #        R-479, MISSION PROGRAMMING DEFINITION MEMO NO. 10, LUNAR LANDING MISSION GSOP, SECTION 5.5, SGA
000082:                                                                                                  #        MEMO 67-4.
000083:
000084:                                                                                                  #  INPUT - ERASABLE INITIALIZATION REQUIRED
000085:                                                                                                  #                        * SCALE FACTOR  *
000086:                                                                                                  #        VARIABLE        *IN POWERS OF 2 *               DESCRIPTION AND REMARKS
000087:                                                                                                  #        --------        *-------------- *               -----------------------
000088:                                                                                                  #        RRECT           * +29 FOR EARTH *       DP INITIAL POSITION VECTOR IN METERS
000089:                                                                                                  #                        * +27 FOR MOON  *


000091:                                                                                                  #        VRECT           * +7 FOR EARTH  *       DP INITIAL VELOCITY VECTOR IN METERS/CENTISECOND
000092:                                                                                                  #                        * +5 FOR MOON   *
000093:                                                                                                  #        X1 (38D)        * NONE          *       INDEX REGISTER SET TO -2D OR -10D ACCORDING TO WHETHER THE EARTH OR MOON,
000094:                                                                                                  #                        *               *               RESPECTIVELY, IS THE CENTRAL BODY
000095:                                                                                                  #        TAU.            * +28           *       DESIRED TRANSFER TIME IN CENTISECONDS (DP)
000096:                                                                                                  #                        *               *               MAY BE POS OR NEG AND ABSOLUTE VALUE MAY BE GREATER OR LESS THAN ONE ORBITAL PERIOD.
000097:                                                                                                  #        XKEPNEW         * +17 FOR EARTH *       DP GUESS OF ROOT X OF KEPLERS EQN IN SQRT(METERS). SIGN SHOULD AGREE WITH THAT OF TAU.
000098:                                                                                                  #                        * +16 FOR MOON  *               AND ABS VALUE SHOULD BE LESS THAN THAT CORRESPONDING TO A PERIOD, VIZ, 2PI SQRT(SEMI-
000099:                                                                                                  #                        *               *               MAJOR AXIS), FOR SPEED OF CONVERGENCE, BUT IF EITHER CONDITION FAILS, XKEPNEW IS RESET
000100:                                                                                                  #                        *               *               BY KEPLER TO A POOR BUT VALID GUESS.
000101:                                                                                                  #        TC              * +28           *       DP PREV. VALUE OF TIME IN CENTISECS.  MUST BE LESS THAN ONE ORBITAL PERIOD.
000102:                                                                                                  #        XPREV           * +17 FOR EARTH *       DP PREV. VALUE OF X IN SQRT(METERS).  MUST BE LESS THAN AN X CORRESPONDING TO ONE
000103:                                                                                                  #                        * +16 FOR MOON  *               ORBITAL PERIOD, VIZ, 2PI SQRT(SEMI-MAJOR AXIS)
000104:
000105:                                                                                                  #  SUBROUTINES CALLED -
000106:                                                                                                  #        DELTIME
000107:
000108:                                                                                                  #  CALLING SEQUENCE AND NORMAL EXIT MODES -
000109:                                                                                                  #        KEPRTN-2        GOTO                    MUST BE IN INTERPRETIVE MODE BUT OVFIND ARBITRARY.
000110:                                                                                                  #        KEPRTN-1                KEPLER          RETURNS WITH XPREV IN MPAC. PL IS AT 0.
000111:                                                                                                  #        KEPRTN          ...                     CONTINUE
000112:
000113:                                                                                                  #  KEPLER MUST NOT BE CALLED DIRECTLY SINCE AN INTERRUPTION OF IT WOULD DESTROY THE ERASABLES IT NEEDS TO COMPLETE
000114:                                                                                                  #  THE INTERRUPTED JOB.  THEREFORE THE USER MUST CALL CSMCONIC OR LEMCONIC WHICH GUARANTEES NO INTERRUPTS AND WHICH
000115:                                                                                                  #  ALSO CALLS KEPPREP TO COMPUTE A GUESS OF XKEPNEW.
000116:
000117:                                                                                                  #  ABORT EXIT MODES -
000118:                                                                                                  #        NONE
000119:
000120:                                                                                                  #  OUTPUT -
000121:                                                                                                  #                        * SCALE FACTOR  *
000122:                                                                                                  #        VARIABLE        *IN POWERS OF 2 *       DESCRIPTION AND REMARKS
000123:                                                                                                  #        --------        *-------------- *       -----------------------
000124:                                                                                                  #        RCV             * +29 FOR EARTH *       DP TERMINAL POSITION VECTOR IN METERS
000125:                                                                                                  #                        * +27 FOR MOON  *
000126:                                                                                                  #        VCV             * +7 FOR EARTH  *       DP TERMINAL VELOCITY VECTOR IN METERS/CENTISEC
000127:                                                                                                  #                        * +5 FOR MOON   *
000128:                                                                                                  #        TC              * +28           *       DP TRANSFER TIME IN CENTISECS TO WHICH KEPLER CONVERGED. ALWAYS LESS THAN ONE PERIOD.
000129:                                                                                                  #        XPREV           * +17 FOR EARTH *       DP VALUE OF X IN SQRT(METERS) TO WHICH KEPLER CONVERGED. ALWAYS LESS THAN THE X
000130:                                                                                                  #                        * +16 FOR MOON  *               CORRESPONDING TO ONE PERIOD.


000132:                                                                                                  #  FOR OTHER OUTPUT WHICH MAY BE OF USE, SEE DEBRIS.
000133:
000134:                                                                                                  #  DEBRIS -
000135:                                                                                                  #        PARAMETERS WHICH MAY BE OF USE -
000136:                                                                                                  #                        * SCALE FACTOR  *
000137:                                                                                                  #        VARIABLE        *IN POWERS OF 2 *       DESCRIPTION AND REMARKS
000138:                                                                                                  #        --------        *-------------- *       -----------------------
000139:                                                                                                  #        URRECT          * +1            *       DP UNIT VECTOR OF INITIAL POSITION
000140:                                                                                                  #        R1              * +29 FOR EARTH *       DP MAGNITUDE OF INITIAL POSITION IN METERS
000141:                                                                                                  #                        * +27 FOR MOON  *
000142:                                                                                                  #        ALPHA           * -22 FOR EARTH *       DP INVERSE OF SEMIMAJOR AXIS IN 1/METERS
000143:                                                                                                  #                        * -20 FOR MOON  *
000144:                                                                                                  #        TMODULO         * +28           *       DP INTEGRAL NUMBER OF PERIODS IN CENTISECS, WHICH WAS SUBTRACTED FROM TAU, TO PRODUCE A
000145:                                                                                                  #                        *               *       TAU. OF LESS THAN ONE PERIOD.
000146:
000147:                                                                                                  #  PARAMETERS OF NO USE -
000148:                                                                                                  #        DP PARAMETERS - EPSILONT, DELX, DELT, RCNORM, XMODULO, PLUS PUSHLIST REGISTERS 0 THROUGH 39D.
000149:


000151:
000152:                                                                                                  #  PROGRAM DESCRIPTION - LAMBERT SUBROUTINE                      DATE - 1 SEPTEMBER 1967
000153:                                                                                                  #  MOD NO. - 0                                                   LOG SECTION - CONIC SUBROUTINES
000154:                                                                                                  #  MOD BY KRAUSE                                                 ASSEMBLY - COLOSSUS REVISION 88
000155:
000156:                                                                                                  #  FUNCTIONAL DESCRIPTION -
000157:                                                                                                  #        THIS SUBROUTINE CALCULATES THE INITIAL VELOCITY REQUIRED TO TRANSFER A POINT-MASS ALONG A CONIC TRAJECTORY
000158:                                                                                                  #  FROM AN INITIAL POSITION TO A TERMINAL POSITION IN A PRESCRIBED TIME INTERVAL.  THE RESULTING TRAJECTORY MAY BE
000159:                                                                                                  #  A SECTION OF A CIRCLE, ELLIPSE, PARABOLA, OR HYPERBOLA WITH RESPECT TO THE EARTH OR THE MOON.  THE USE OF THE
000160:                                                                                                  #  SUBROUTINE CAN BE EXTENDED USING OTHER PRIMARY BODIES BY SIMPLE ADDITIONS TO THE MUTABLE WITHOUT INTRODUCING ANY
000161:                                                                                                  #  CODING CHANGES, ACCEPTING THE INHERENT SCALE FACTOR CHANGES IN POSITION AND VELOCITY.  AN ITERATION TECHNIQUE IS
000162:                                                                                                  #  UTILIZED IN THE COMPUTATION.
000163:
000164:                                                                                                  #  THE RESTRICTIONS ARE -
000165:                                                                                                  #        1. RECTILINEAR TRAJECTORIES CANNOT BE COMPUTED.
000166:                                                                                                  #        2. AN ACCURACY DEGRADATION OCCURS AS THE COSINE OF THE TRUE ANOMALY DIFFERENCE APPROACHES +1.0.
000167:                                                                                                  #        3. THE ANGLE BETWEEN ANY POSITION VECTOR AND ITS VELOCITY VECTOR MUST BE GREATER THAN 1 DEGREE 47.5 MINUTES
000168:                                                                                                  #           AND LESS THAN 178 DEGREES 12.5 MINUTES.
000169:                                                                                                  #        4. NEGATIVE TRANSFER TIME IS AMBIGUOUS AND WILL RESULT IN NO SOLUTION.
000170:                                                                                                  #        5. THE PARAMETERS IN THE PROBLEM MUST NOT EXCEED THEIR SCALING LIMITS SPECIFIED IN THE GSOP.  IF THE
000171:                                                                                                  #           LIMITS ARE EXCEEDED, THE RESULTING SOLUTION WILL BE MEANINGLESS.
000172:
000173:                                                                                                  #        THE NUMBER OF ITERATIONS AND, THEREFORE, THE COMPUTATIONS SPEED IS DEPENDENT ON THE ACCURACY OF THE FIRST
000174:                                                                                                  #  GUESS OF THE INDEPENDENT VARIABLE, COGA.                                 THE AGC COMPUTATION TIME IS APPROXIMATE-
000175:                                                                                                  #  LY .105 SECONDS FOR INITIALIZATION, .069 SECONDS FOR FINAL COMPUTATIONS, PLUS .205 SECONDS FOR EACH ITERATION.
000176:
000177:                                                                                                  #  REFERENCES -
000178:                                                                                                  #        R-479, MISSION PROGRAMMING DEFINITION MEMO NO. 10, LUNAR LANDING MISSION GSOP - SECTION 5.5, SGA MEMO 67-8,
000179:                                                                                                  #        SGA MEMO 67-4.
000180:
000181:                                                                                                  #  INPUT - ERASABLE INITIALIZATION REQUIRED
000182:                                                                                                  #
000183:                                                                                                  #                        * SCALE FACTOR  *
000184:                                                                                                  #        VARIABLE        *IN POWERS OF 2 *       DESCRIPTION AND REMARKS
000185:                                                                                                  #        --------        *-------------- *       -----------------------
000186:                                                                                                  #        R1VEC           * +29 FOR EARTH *       DP INITIAL POSITION VECTOR IN METERS
000187:                                                                                                  #                        * +27 FOR MOON  *
000188:                                                                                                  #        R2VEC           * +29 FOR EARTH *       DP TARGET OR TERMINAL POSITION VECTOR IN METERS
000189:                                                                                                  #                        * +27 FOR MOON  *
000190:                                                                                                  #        TDESIRED        * +28           *       DP DESIRED TRANSFER TIME IN CENTISECONDS
000191:                                                                                                  #        X1 (38D)        * NONE          *       INDEX REGISTER SET TO -2D OR -10D ACCORDING TO WHETHER THE EARTH OR MOON,
000192:                                                                                                  #                        *               *               RESPECTIVELY, IS THE CENTRAL BODY
000193:                                                                                                  #        GEOMSGN         * NONE          *       SP +.5 IF DESIRED TRANSFER ANGLE IS LESS THAN 180 DEGREES, -.5 IF GREATER THAN 180 DEG.
000194:                                                                                                  #        GUESSW          * NONE          *       AN INTERPRETER SWITCH TO BE SET IF NO GUESS OF COGA IS AVAILABLE, CLEAR IF A GUESS OF


000196:                                                                                                  #                        *               *               COGA IS TO BE USED BY LAMBERT
000197:                                                                                                  #        COGA            * +5            *       DP GUESS OF COTANGNT OF FLIGHT PATH ANGLE (MEASURED FROM VERTICAL).  THIS WILL BE
000198:                                                                                                  #                                        *       IGNORED IF GUESSW IS SET.
000199:                                                                                                  #        NORMSW          * NONE          *       AN INTERPRETER SWITCH TO BE SET IF UN IS TO BE AN INPUT TO THE SUBROUTINE, CLEAR IF
000200:                                                                                                  #                        *               *               LAMBERT IS TO COMPUTE ITS OWN NORMAL (UN).
000201:                                                                                                  #        UN              * +1            *       DP UNIT NORMAL TO THE DESIRED ORBIT PLANE IN THE DIRECTION OF THE RESULTING ANGULAR
000202:                                                                                                  #                        *               *               MOMENTUM VECTOR.  THIS WILL BE IGNORED IF NORMSW IS CLEAR.
000203:                                                                                                  #        VTARGTAG        * NONE          *       A S.P. TAG TO BE SET TO ZERO IF LAMBERT IS TO COMPUTE THE VELOCITY AT R2VEC AS WELL AS
000204:                                                                                                  #                        *               *               AT R1VEC.
000205:                                                                                                  #        ITERCTR         * NONE          *       A S.P. COUNTER WHICH SPECIFIES THE MAXIMUM NUMBER OF ITERATIONS ALLOWABLE.
000206:                                                                                                  #                        *               *               (AN ITERATION MEANS A PASS THRU KEPLER EQN (DELTIME). AT LEAST ONE OF THESE MUST
000207:                                                                                                  #                        *               *               ALWAYS OCCUR, EVEN IF COGA CORRESPONDING TO SOLUTION WERE INPUT AS A GUESS.)
000208:                                                                                                  #                        *               *               TWENTY ITERATIONS ARE SUFFICIENT TO SOLVE ALL PROBLEMS INCLUDING THOSE WITHOUT GUESS.
000209:
000210:                                                                                                  #  SUBROUTINES CALLED -
000211:                                                                                                  #        GEOM, GETX, DELTIME, ITERATOR, LAMENTER (PART OF NEWSTATE)
000212:
000213:                                                                                                  #  CALLING SEQUENCE AND NORMAL EXIT MODES -
000214:                                                                                                  #        L       CALL                    MUST BE IN INTERPRETIVE MODE BUT OVFIND ARBITRARY.
000215:                                                                                                  #        L+1             LAMBERT         RETURNS WITH PL AT 0 AND WITH VVEC IN MPAC IF VTARGTAG WAS NON-ZERO OR VTARGET
000216:                                                                                                  #                                        IN MPAC IF VTARGTAG WAS ZERO
000217:                                                                                                  #        L+2     BON                     CONTINUE IF SOLNSW CLEAR SINCE SOLUTION IS ACCEPTABLE
000218:                                                                                                  #        L+3             SOLNSW
000219:                                                                                                  #        L+4             LAMABORT
000220:
000221:                                                                                                  #        IF A LAMBERT RESULT IS TO BE A FIRST GUESS FOR THE NEXT LAMBERT CALCULATION, COGA MUST BE PRESERVED AND
000222:                                                                                                  #  GUESSW MUST BE CLEAR FOR EACH SUCCEEDING LAMBERT CALL.
000223:
000224:                                                                                                  #  ABORT EXIT MODES -
000225:                                                                                                  #        IF SOLNSW WAS SET UPON EXITING, EITHER LAMBERT WAS ASKED TO COMPUTE A TRANSFER TOO NEAR 0 OR 360 DEG, OR T
000226:                                                                                                  #  WAS TOO SMALL TO PRODUCE A REALISTIC TRANSFER BETWEEN R1VEC AND R2VEC.  IN EITHER CASE THE FIX MUST BE MADE
000227:                                                                                                  #  ACCORDING TO THE NEEDS OF THE PARTICULAR USER.  THE ABORT EXIT MODE MAY BE CODED AS ...
000228:                                                                                                  #  LAMABORT      DLOAD   ABS             A MEASURE OF PROXIMITY TO 0 OR
000229:                                                                                                  #                        1-CSTH          360 DEGREES.
000230:                                                                                                  #                DSU     BMN
000231:                                                                                                  #                        ONEBIT
000232:                                                                                                  #                        CHANGER2        CHANGE R2VEC DIRECTION SLIGHTLY.
000233:                                                                                                  #                DLOAD   DAD
000234:                                                                                                  #                        TDESIRED
000235:                                                                                                  #                        SOMETIME
000236:                                                                                                  #                STCALL  TDESIRED        INCREASE TDESIRED
000237:                                                                                                  #                        LAMBERT
000238:


000240:                                                                                                  #  OUTPUT -
000241:                                                                                                  #                        * SCALE FACTOR  *
000242:                                                                                                  #        VARIABLE        *IN POWERS OF 2 *       DESCRIPTION AND REMARKS
000243:                                                                                                  #        --------        *-------------- *       -----------------------
000244:                                                                                                  #        VVEC            * +7 FOR EARTH  *       DP INITIAL VELOCITY VECTOR IN METERS/CENTISECOND REQUIRED TO SATISFY THE BOUNDARY VALUE
000245:                                                                                                  #                        * +5 FOR MOON   *               PROBLEM.
000246:                                                                                                  #        VTARGET         * +7 FOR EARTH  *       DP RESULTANT VELOCITY VECTOR AT R2VEC IN METERS/CENTISECOND.
000247:                                                                                                  #                        * +5 FOR MOON   *
000248:                                                                                                  #        SOLNSW          * NONE          *       INTERPRETER SWITCH WHICH IS SET IF THE SUBROUTINE CANNOT SOLVE THE PROBLEM, CLEAR IF THE
000249:                                                                                                  #                        *               *               SOLUTION EXISTS.
000250:
000251:                                                                                                  #        FOR OTHER OUTPUT WHICH MAY BE OF USE, SEE DEBRIS.
000252:
000253:                                                                                                  #  DEBRIS -
000254:                                                                                                  #        PARAMETERS WHICH MAY BE OF USE -
000255:
000256:                                                                                                  #                        * SCALE FACTOR  *
000257:                                                                                                  #        VARIABLE        *IN POWERS OF 2 *       DESCRIPTION AND REMARKS
000258:                                                                                                  #        --------        *-------------- *       -----------------------
000259:                                                                                                  #        SNTH            * +1            *       DP SIN OF ANGLE BETWEEN R1VEC AND R2VEC
000260:                                                                                                  #        CSTH            * +1            *       DP COSINE OF ANGLE
000261:                                                                                                  #        1-CSTH          * +2            *       DP 1-CSTH
000262:                                                                                                  #        COGA            * +5            *       DP COTAN OF INITIAL REQUIRED FLIGHT PATH ANGLE MEASURED FROM VERTICAL
000263:                                                                                                  #        P               * +4            *       DP RATIO OF SEMILATUS RECTUM TO INITIAL RADIUS
000264:                                                                                                  #        R1A             * +6            *       DP RATIO OF INITIAL RADIUS TO SEMIMAJOR AXIS
000265:                                                                                                  #        R1 (32D)        * +29 FOR EARTH *       DP INITIAL RADIUS IN METERS
000266:                                                                                                  #                        * +27 FOR MOON  *
000267:                                                                                                  #        UR1             * +1            *       DP UNIT VECTOR OF R1VEC
000268:                                                                                                  #        U2              * +1            *       DP UNIT VECTOR OF R2VEC
000269:
000270:                                                                                                  #        PARAMETERS OF NO USE
000271:                                                                                                  #                DP PARAMETERS - EPSILONL, CSTH-RHO, TPREV, TERRLAMB, R2, RTNLAMB (SP), PLUS PUSHLIST REGISTER 0 THROUGH 41D
000272:                                                                                                  #                ADDITIONAL INTERPRETIVE SWITCHES USED - INFINFLG, 360SW, SLOPESW, ORDERSW
000273:


000275:                                                                                                  #  PROGRAM DESCRIPTION - TIME-THETA SUBROUTINE                   DATE - 1 SEPTEMBER 1967
000276:                                                                                                  #  MOD NO. - 0                                                   LOG SECTION - CONIC SUBROUTINES
000277:                                                                                                  #  MOD BY KRAUSE                                                 ASSEMBLY - COLOSSUS REVISION 88
000278:
000279:                                                                                                  #  FUNCTIONAL DESCRIPTION -
000280:                                                                                                  #        THIS SUBROUTINE, GIVEN AN INITIAL STATE VECTOR AND A DESIRED TRUE-ANOMALY-DIFFERENCE THROUGH WHICH THE
000281:                                                                                                  #  STATE IS TO BE UPDATED ALONG A CONIC TRAJECTORY, CALCULATES THE CORRESPONDING TIME-OF-FLIGHT AND, IN ADDITION,
000282:                                                                                                  #  PROVIDES THE OPTION OF COMPUTING THE NEW UPDATED STATE VECTOR.  THE RESULTING TRAJECTORY MAY BE A SECTION OF A
000283:                                                                                                  #  CIRCLE, ELLIPSE, PARABOLA, OR HYPERBOLA WITH RESPECT TO THE EARTH OR THE MOON.  THE USE OF THE SUBROUTINE CAN BE
000284:                                                                                                  #  EXTENDED USING OTHER PRIMARY BODIES BY SIMPLE ADDITIONS TO THE MUTABLE WITHOUT INTRODUCING ANY CODING CHANGES,
000285:                                                                                                  #  ACCEPTING THE INHERENT SCALE FACTOR CHANGES IN POSITION AND VELOCITY.
000286:
000287:                                                                                                  #  THE RESTRICTIONS ARE -
000288:                                                                                                  #        1. THE ANGLE BETWEEN ANY POSITION VECTOR AND ITS VELOCITY VECTOR MUST BE GREATER THAN 1 DEGREE 47.5 MINUTES
000289:                                                                                                  #           AND LESS THAN 178 DEGREES 12.5 MINUTES.
000290:                                                                                                  #        2. THE PARAMETERS IN THE PROBLEM MUST NOT EXCEED THEIR SCALING LIMITS SPECIFIED IN THE GSOP.  IF THE LIMITS
000291:                                                                                                  #           ARE EXCEEDED, THE RESULTING SOLUTION WILL BE MEANINGLESS.
000292:
000293:                                                                                                  #        THE AGC COMPUTATION TIME IS APPROXIMATELY .292 SECONDS.
000294:
000295:                                                                                                  #  REFERENCES -
000296:                                                                                                  #        R-479, MISSION PROGRAMMING DEFINITION MEMO NO. 10, LUNAR LANDING MISSION GSOP-SECTION 5.5, SGA MEMO 67-8.
000297:
000298:                                                                                                  #  INPUT - ERASABLE INITIALIZATION REQUIRED
000299:                                                                                                  #                        * SCALE FACTOR  *
000300:                                                                                                  #        VARIABLE        *IN POWERS OF 2 *       DESCRIPTION AND REMARKS
000301:                                                                                                  #        --------        *-------------- *       -----------------------
000302:                                                                                                  #        RVEC            * +29 FOR EARTH *       DP INITIAL POSITION VECTOR IN METERS
000303:                                                                                                  #                        * +27 FOR MOON  *
000304:                                                                                                  #        VVEC            * +7 FOR EARTH  *       DP INITIAL VELOCITY VECTOR IN METERS/CENTISECOND
000305:                                                                                                  #                        * +5 FOR MOON   *
000306:                                                                                                  #        SNTH            * +1            *       DP SINE OF TRUE-ANOMALY-DIFFERENCE THROUGH WHICH THE STATE IS TO BE UPDATED
000307:                                                                                                  #        CSTH            * +1            *       DP COSINE OF THE ANGLE
000308:                                                                                                  #        RVSW            * NONE          *       AN INTERPRETIVE SWITCH TO BE SET IF ONLY TIME IS TO BE AN OUTPUT, CLEAR IF THE NEW STATE
000309:                                                                                                  #                        *               *               IS TO BE COMPUTED ALSO.
000310:                                                                                                  #        X1 (38D)        * NONE          *       INDEX REGISTER TO BE SET TO -2D OR -10D ACCORDING TO WHETHER THE EARTH OR MOON,
000311:                                                                                                  #                        *               *               RESPECTIVELY, IS THE CENTRAL BODY.
000312:
000313:                                                                                                  #  SUBROUTINES CALLED -


000315:                                                                                                  #        PARAM, GEOM, GETX, DELTIME, NEWSTATE
000316:
000317:                                                                                                  #  CALLING SEQUENCE AND NORMAL EXIT MODES -
000318:                                                                                                  #        IF ONLY TIME IS DESIRED AS OUTPUT -
000319:                                                                                                  #        L       SET     CALL            MUST BE IN INTERPRETIVE MODE BUT OVFIND ARBITRARY.
000320:                                                                                                  #        L+1             RVSW
000321:                                                                                                  #        L+2             TIMETHET        RETURN WITH PL AT 0 AND T IN MPAC
000322:                                                                                                  #        L+3     ...                     CONTINUE
000323:
000324:                                                                                                  #        IF THE UPDATE STATE VECTOR IS DESIRED AS WELL -
000325:                                                                                                  #        L       CLEAR   CALL            MUST BE IN INTERPRETIVE MODE BUT OVFIND ARBITRARY.
000326:                                                                                                  #        L+1             RVSW
000327:                                                                                                  #        L+2             TIMETHET        RETURNS WITH PL AT 6.  THE INITIAL POSITION VECTOR IS IN 0D OF THE PUSHLIST AND
000328:                                                                                                  #                                        THE INITIAL VELOCITY VECTOR IN MPAC.
000329:                                                                                                  #        L+3     STOVL   NEWVVEC
000330:                                                                                                  #        L+4     STADR
000331:                                                                                                  #        L+5     STORE   NEWRVEC         NEWVVEC AND NEWRVEC ARE SYMBOLIC REPRESENTATIONS OF THE USERS LOCATIONS.
000332:                                                                                                  #        L+6     ...                     CONTINUE
000333:
000334:                                                                                                  #  ABORT EXIT MODES -
000335:                                                                                                  #        IF COGAFLAG AND/OR INFINFLG IS SET AT THE EXIT TO TIME-THETA, TIME-THETA WILL TRANSFER TO POODOO WITH
000336:                                                                                                  #        AN ALARM CODE (ORIGINALLY 00607), AND NOT RETURN TO THE CALLING PROGRAM.  (PCR 692 AND 721).
000337:
000338:                                                                                                  #  OUTPUT -
000339:                                                                                                  #                        * SCALE FACTOR  *
000340:                                                                                                  #        VARIABLE        *IN POWERS OF 2 *       DESCRIPTION AND REMARKS
000341:                                                                                                  #        --------        *-------------- *       -----------------------
000342:                                                                                                  #        T (30D)         * +28           *       DP TRANSFER TIME IN CENTISECONDS
000343:                                                                                                  #        INFINFLG        * NONE          *       AN INTERPRETIVE SWITCH WHICH IS SET IF THE TRANSFER ANGLE REQUIRES CLOSURE THROUGH
000344:                                                                                                  #                        *               *               INFINITY (NO SOLUTION), CLEAR IF A PHYSICAL SOLUTION IS POSSIBLE.
000345:                                                                                                  #        COGAFLAG        * NONE          *       AN INTERPRETIVE SWITCH WHICH IS SET IF RESTRICTION 1 HAS BEEN VIOLATED (NO SOLUTION),
000346:                                                                                                  #                        *               *               CLEAR IF NOT.
000347:
000348:                                                                                                  #        IN ADDITION, IF RVSW IS CLEAR, THE FOLLOWING ARE OUTPUT -
000349:                                                                                                  #        MPAC            * +7 FOR EARTH  *       DP TERMINAL VELOCITY VECTOR IN METERS/CENTISEC.
000350:                                                                                                  #         MPAC +5        * +5 FOR MOON   *
000351:                                                                                                  #        0D - 5D         * +29 FOR EARTH *       DP TERMINAL POSITION VECTOR IN METERS (PL AT 6D)
000352:                                                                                                  #                        * +27 FOR MOON  *
000353:
000354:                                                                                                  #        FOR OTHER OUTPUT WHICH MAY BE OF USE, SEE DEBRIS.
000355:


000357:                                                                                                  #  DEBRIS -
000358:                                                                                                  #        PARAMETERS WHICH MAY BE OF USE -
000359:                                                                                                  #
000360:                                                                                                  #                        * SCALE FACTOR  *
000361:                                                                                                  #        VARIABLE        *IN POWERS OF 2 *       DESCRIPTION AND REMARKS
000362:                                                                                                  #        --------        *-------------- *       -----------------------
000363:                                                                                                  #        R1 (32D)        * +29 FOR EARTH *       DP MAGNITUDE OF INITIAL POSITION VECTOR, RVEC, IN METERS
000364:                                                                                                  #                        * +27 FOR MOON  *
000365:                                                                                                  #        R1A             * +6            *       DP RATIO OF R1 TO SEMIMAJOR AXIS (NEG. FOR HYPERBOLIC TRAJECTORIES)
000366:                                                                                                  #        P               * +4            *       DP RATIO OF SEMILATUS RECTUM TO R1
000367:                                                                                                  #        COGA            * +5            *       DP COTAN OF ANGLE BETWEEN RVEC AND VVEC
000368:                                                                                                  #        UR1             * +1            *       DP UNIT VECTOR OF RVEC
000369:                                                                                                  #        U2              * +1            *       DP UNIT VECTOR OF VVEC
000370:                                                                                                  #        UN              * +1            *       DP UNIT VECTOR OF UR1*U2
000371:
000372:                                                                                                  #        PARAMETERS OF NO USE -
000373:                                                                                                  #        SP PARAMETERS - RTNTT, GEOMSGN, RTNPRM, MAGVEC2=R2 (DP), PLUS PUSHLIST LOCATIONS 0-11D, 14D-21D, 24D-39D, 41D
000374:                                                                                                  #        ADDITIONAL INTERPRETIVE SWITCHES USED - NORMSW, 360SW
000375:


000377:                                                                                                  #  PROGRAM DESCRIPTION - TIME-RADIUS SUBROUTINE          DATE - 11 OCTOBER 1967
000378:                                                                                                  #  MOD NO. -1                                            LOG SECTION - CONIC SUBROUTINES
000379:                                                                                                  #  MOD BY KRAUSE                                         ASSEMBLY - COLOSSUS REVISION 88
000380:
000381:                                                                                                  #  FUNCTIONAL DESCRIPTION -
000382:
000383:                                                                                                  #        THIS SUBROUTINE, GIVEN AN INITIAL STATE VECTOR AND A DESIRED RADIUS TO WHICH THE
000384:                                                                                                  #        STATE IS TO BE UPDATED ALONG A CONIC TRAJECTORY, CALCULATES THE CORRESPONDING TIME-OF-FLIGHT AND, IN ADDITION,
000385:                                                                                                  #        PROVIDES THE OPTION OF COMPUTING THE NEW UPDATED STATE VECTOR.  THE RESULTING TRAJECTORY MAY BE A SECTION OF A
000386:                                                                                                  #        CIRCLE, ELLIPSE, PARABOLA, OR HYPERBOLA WITH RESPECT TO THE EARTH OR THE MOON.  THE USE OF THE SUBROUTINE CAN BE
000387:                                                                                                  #        EXTENDED USING OTHER PRIMARY BODIES BY SIMPLE ADDITIONS TO THE MUTABLE WITHOUT INTRODUCING ANY CODING CHANGES,
000388:                                                                                                  #        ACCEPTING THE INHERENT SCALE FACTOR CHANGES IN POSITION AND VELOCITY.
000389:
000390:                                                                                                  #        IF THE DESIRED RADIUS IS BEYOND THE RADIUS OF APOCENTER OF THE CONIC OR BELOW THE RADIUS OF PERICENTER,
000391:                                                                                                  #        APSESW WILL BE SET AND THE SUBROUTINE WILL RETURN THE APOCENTER OR PERICENTER SOLUTION, RESPECTIVELY.
000392:
000393:                                                                                                  #  THE RESTRICTIONS ARE -
000394:                                                                                                  #        1. THE ANGLE BETWEEN ANY POSITION VECTOR AND ITS VELOCITY VECTOR MUST BE GREATER THAN 1 DEGREE 47.5 MINUTES
000395:                                                                                                  #           AND LESS THAN 178 DEGREES 12.5 MINUTES.
000396:                                                                                                  #        2. THE PARAMETERS IN THE PROBLEM MUST NOT EXCEED THEIR SCALING LIMITS SPECIFIED IN THE GSOP.  IF THE LIMITS
000397:                                                                                                  #           ARE EXCEEDED, THE RESULTING SOLUTION WILL BE MEANINGLESS.
000398:                                                                                                  #        3. AN ACCURACY DEGRADATION OCCURS AS THE SENSITIVITIES OF TIME AND UPDATED STATE VECTOR TO CHANGES IN
000399:                                                                                                  #           RDESIRED INCREASE.  THIS WILL OCCUR NEAR EITHER APSIS OF THE CONIC AND WHEN THE CONIC IS NEARLY CIRCULAR.  IN
000400:                                                                                                  #           PARTICULAR, IF THE CONIC IS AN EXACT CIRCLE, THE PROBLEM IS UNDEFINED AND THE SUBROUTINE WILL ABORT.
000401:
000402:                                                                                                  #        THE AGC COMPUTATION TIME IS APPROXIMATELY .363 SECONDS
000403:
000404:                                                                                                  #  REFERENCES -
000405:                                                                                                  #        R-479, MISSION PROGRAMMING DEFINITION MEMO NO. 10, LUNAR LANDING MISSION GSOP-SECTION 5.5, SGA MEMO 67-8.
000406:
000407:                                                                                                  #  INPUT - ERASABLE INITIALIZATION REQUIRED
000408:                                                                                                  #                        * SCALE FACTOR  *
000409:                                                                                                  #        VARIABLE        *IN POWERS OF 2 *       DESCRIPTION AND REMARKS
000410:                                                                                                  #        --------        *-------------- *       -----------------------
000411:                                                                                                  #        RVEC            * +29 FOR EARTH *       DP INITIAL POSITION VECTOR IN METERS
000412:                                                                                                  #                        * +27 FOR MOON  *
000413:                                                                                                  #        VVEC            * +7 FOR EARTH  *       DP INITIAL VELOCITY VECTOR IN METERS/CENTISECOND
000414:                                                                                                  #                        * +5 FOR MOON   *
000415:                                                                                                  #        RDESIRED        * +29 FOR EARTH *       DP TERMINAL RADIAL DISTANCE ON CONIC TRAJECTORY FOR WHICH TRANSFER TIME IS TO BE
000416:                                                                                                  #                        * +27 FOR MOON  *               COMPUTED.
000417:                                                                                                  #        SGNRDOT         * NONE          *       SP TAG SET TO +.5 OR -.5 ACCORDING TO WHETHER THE RADIAL VELOCITY AT RDESIRED IS TO BE
000418:                                                                                                  #                        *               *               POSITIVE OR NEGATIVE, RESPECTIVELY.   THIS TAG REDUCES THE DOUBLE-VALUED PROBLEM TO A


000420:                                                                                                  #                        *               *               SINGLE-VALUED PROBLEM.
000421:                                                                                                  #        X1 (38D)        * NONE          *       INDEX REGISTER TO BE SET TO -2D OR -10D ACCORDING TO WHETHER THE EARTH OR MOON,
000422:                                                                                                  #                        *               *               RESPECTIVELY, IS THE CENTRAL BODY.
000423:                                                                                                  #        RVSW            * NONE          *       AN INTERPRETIVE SWITCH TO BE SET IF ONLY TIME IS TO BE AN OUTPUT, CLEAR IF THE NEW STATE
000424:                                                                                                  #                        *               *               IS TO BE COMPUTED ALSO.
000425:
000426:                                                                                                  #  SUBROUTINES CALLED -
000427:                                                                                                  #        PARAM, GEOM, GETX, DELTIME, NEWSTATE
000428:
000429:                                                                                                  #  CALLING SEQUENCE AND NORMAL EXIT MODES -
000430:
000431:                                                                                                  #        IF ONLY TIME IS DESIRED AS OUTPUT -
000432:                                                                                                  #        L       SET     CALL            MUST BE IN INTERPRETIVE MODE BUT OVFIND ARBITRARY.
000433:                                                                                                  #        L+1             RVSW
000434:                                                                                                  #        L+2             TIMERAD         RETURN WITH PL AT 0 AND T IN MPAC
000435:                                                                                                  #        L+3     ...                     CONTINUE
000436:
000437:                                                                                                  #        IF THE UPDATE STATE VECTOR IS DESIRED AS WELL -
000438:                                                                                                  #        L       CLEAR   CALL            MUST BE IN INTERPRETIVE MODE BUT OVFIND ARBITRARY.
000439:                                                                                                  #        L+1             RVSW
000440:                                                                                                  #        L+2             TIMERAD         RETURNS WITH PL AT 6.  THE INITIAL POSITION VECTOR IS IN 0D OF THE PUSHLIST AND
000441:                                                                                                  #                                        THE INITIAL VELOCITY VECTOR IN MPAC.
000442:                                                                                                  #        L+3     STOVL   NEWVVEC
000443:                                                                                                  #        L+4     STADR
000444:                                                                                                  #        L+5     STORE   NEWRVEC         NEWVVEC AND NEWRVEC ARE SYMBOLIC REPRESENTATIONS OF THE USERS LOCATIONS.
000445:                                                                                                  #        L+6     ...                     CONTINUE
000446:
000447:                                                                                                  #  ABORT EXIT MODES -
000448:                                                                                                  #        IF SOLNSW AND/OR COGAFLAG AND/OR INFINFLG IS SET AT THE EXIT TO TIME-RADIUS, TIME-RADIUS WILL TRANSFER
000449:                                                                                                  #        TO POODOO WITH AN ALARM CODE (ORIGINALLY 00607), AND NOT RETURN TO THE CALLING PROGRAM. (PCR 692 & 721)
000450:
000451:                                                                                                  #  OUTPUT -
000452:                                                                                                  #                        * SCALE FACTOR  *
000453:                                                                                                  #        VARIABLE        *IN POWERS OF 2 *       DESCRIPTION AND REMARKS
000454:                                                                                                  #        --------        *-------------- *       -----------------------
000455:                                                                                                  #        T (30D)         * +28           *       DP TRANSFER TIME IN CENTISECONDS
000456:                                                                                                  #        INFINFLG        * NONE          *       AN INTERPRETIVE SWITCH WHICH IS SET IF RDESIRED AND SGNRDOT REQUIRE CLOSURE THROUGH
000457:                                                                                                  #                        *               *               INFINITY (NO SOLUTION), CLEAR IF A PHYSICAL SOLUTION IS POSSIBLE.
000458:                                                                                                  #        COGAFLAG        * NONE          *       AN INTERPRETIVE SWITCH WHICH IS SET IF RESTRICTION 1 HAS BEEN VIOLATED (NO SOLUTION),
000459:                                                                                                  #                        *               *               CLEAR IF NOT.
000460:                                                                                                  #        APSESW          * NONE          *       AN INTERPRETIVE SWITCH WHICH IS SET IF RDESIRED WAS GREATER THAN RADIUS OF APOCENTER OR


000462:                                                                                                  #                        *               *               LESS THAN RADIUS OF PERICENTER.  THE APOCENTER OR PERICENTER SOLUTION, RESPECTIVELY,
000463:                                                                                                  #                        *               *               WILL THEN BE RETURNED.  THE SWITCH IS CLEAR IF RDESIRED WAS BETWEEN PERICENTER AND
000464:                                                                                                  #                        *               *               APOCENTER.
000465:                                                                                                  #        SOLNSW          * NONE          *       AN INTERPRETIVE SWITCH WHICH IS SET IF THE CONIC IS SO CLOSE TO A CIRCLE THAT THE TERMIN
000466:                                                                                                  #                                        *               POINT IS AMBIGUOUS, VIOLATING RESTRICTION 3.  IF ECCENTRICITY IS GREATER THAN 2-TO-THE-
000467:                                                                                                  #                                        *               MINUS-18, THE SWITCH IS CLEAR.
000468:
000469:                                                                                                  #        IN ADDITION, IF RVSW IS CLEAR, THE FOLLOWING ARE OUTPUT -
000470:
000471:                                                                                                  #        MPAC            * +7 FOR EARTH  *       DP TERMINAL VELOCITY VECTOR IN METERS/CENTISEC.
000472:                                                                                                  #         MPAC +5        * +5 FOR MOON   *
000473:                                                                                                  #        0D - 5D         * +29 FOR EARTH *       DP TERMINAL POSITION VECTOR IN METERS (PL AT 6D)
000474:                                                                                                  #                        * +27 FOR MOON  *
000475:
000476:                                                                                                  #        FOR OTHER OUTPUT WHICH MAY BE OF USE, SEE DEBRIS.
000477:
000478:                                                                                                  #  DEBRIS -
000479:                                                                                                  #        PARAMETERS WHICH MAY BE OF USE -
000480:
000481:                                                                                                  #                        * SCALE FACTOR  *
000482:                                                                                                  #        VARIABLE        *IN POWERS OF 2 *       DESCRIPTION AND REMARKS
000483:                                                                                                  #        --------        *-------------- *       -----------------------
000484:                                                                                                  #        R1 (32D)        * +29 FOR EARTH *       DP MAGNITUDE OF INITIAL POSITION VECTOR, RVEC, IN METERS
000485:                                                                                                  #                        * +27 FOR MOON  *
000486:                                                                                                  #        R1A             * +6            *       DP RATIO OF R1 TO SEMIMAJOR AXIS (NEG. FOR HYPERBOLIC TRAJECTORIES)
000487:                                                                                                  #        P               * +4            *       DP RATIO OF SEMILATUS RECTUM TO R1
000488:                                                                                                  #        COGA            * +5            *       DP COTAN OF ANGLE BETWEEN RVEC AND VVEC
000489:                                                                                                  #        UR1             * +1            *       DP UNIT VECTOR OF RVEC
000490:                                                                                                  #        U2              * +1            *       DP UNIT VECTOR OF VVEC
000491:                                                                                                  #        UN              * +1            *       DP UNIT VECTOR OF UR1*U2
000492:                                                                                                  #        CSTH            * +1            *       DP COSINE OF TRUE ANOMALY DIFFERENCE BETWEEN RVEC AND RDESIRED.
000493:                                                                                                  #        SNTH            * +1            *       DP SINE OF TRUE ANOMALY DIFFERENCE.
000494:
000495:                                                                                                  #        PARAMETERS OF NO USE -
000496:                                                                                                  #                SP PARAMETERS - RTNTT, GEOMSGN, RTNPRM, MAGVEC2=R2 (DP), PLUS PUSHLIST LOCATIONS 0-11D, 14D-21D, 24D-39D, 41D
000497:                                                                                                  #                ADDITIONAL INTERPRETIVE SWITCHES USED - NORMSW, 360SW
000498:
000499:


000501:                                                                                                  #  PROGRAM DESCRIPTION - APSIDES SUBROUTINE              DATE - 1 SEPTEMBER 1967
000502:                                                                                                  #  MOD NO. - 0                                           LOG SECTION - CONIC SUBROUTINES
000503:                                                                                                  #  MOD BY KRAUSE                                         ASSEMBLY - COLOSSUS REVISION 88
000504:
000505:                                                                                                  #  FUNCTIONAL DESCRIPTION -
000506:
000507:                                                                                                  #        THIS SUBROUTINE, GIVEN AN INITIAL STATE VECTOR CALCULATES THE RADIUS OF PERICENTER AND OF APOCENTER AND THE
000508:                                                                                                  #        ECCENTRICITY OF THE RESULTING CONIC TRAJECTORY, WHICH MAY BE A STRAIGHT LINE,
000509:                                                                                                  #        CIRCLE, ELLIPSE, PARABOLA, OR HYPERBOLA WITH RESPECT TO THE EARTH OR THE MOON.  THE USE OF THE SUBROUTINE CAN BE
000510:                                                                                                  #        EXTENDED USING OTHER PRIMARY BODIES BY SIMPLE ADDITIONS TO THE MUTABLE WITHOUT INTRODUCING ANY CODING CHANGES,
000511:                                                                                                  #        ACCEPTING THE INHERENT SCALE FACTOR CHANGES IN POSITION AND VELOCITY.
000512:
000513:                                                                                                  #  THE RESTRICTIONS ARE -
000514:                                                                                                  #        1. IF APOCENTER IS BEYOND THE SCALING OF POSITION, THE SCALE FACTOR LIMIT (536,870,910 METERS WITH RESPECT
000515:                                                                                                  #           TO THE EARTH OR 134,217,727.5 METERS WITH RESPECT TO THE MOON) WILL BE RETURNED.
000516:                                                                                                  #        2. THE PARAMETERS IN THE PROBLEM MUST NOT EXCEED THEIR SCALING LIMITS SPECIFIED IN THE GSOP.  IF THE LIMITS
000517:                                                                                                  #           ARE EXCEEDED, THE RESULTING SOLUTION WILL BE MEANINGLESS.
000518:
000519:                                                                                                  #        THE AGC COMPUTATION TIME IS APPROXIMATELY .103 SECONDS.
000520:
000521:                                                                                                  #  REFERENCES -
000522:                                                                                                  #        MISSION PROGRAMMING DEFINITION MEMO NO. 10, LUNAR LANDING MISSION GSOP-SECTION 5.5
000523:
000524:                                                                                                  #  INPUT - ERASABLE INITIALIZATION REQUIRED
000525:                                                                                                  #                        * SCALE FACTOR  *
000526:                                                                                                  #        VARIABLE        *IN POWERS OF 2 *       DESCRIPTION AND REMARKS
000527:                                                                                                  #        --------        *-------------- *       -----------------------
000528:                                                                                                  #        RVEC            * +29 FOR EARTH *       DP INITIAL POSITION VECTOR IN METERS
000529:                                                                                                  #                        * +27 FOR MOON  *
000530:                                                                                                  #        VVEC            * +7 FOR EARTH  *       DP INITIAL VELOCITY VECTOR IN METERS/CENTISECOND
000531:                                                                                                  #                        * +5 FOR MOON   *
000532:                                                                                                  #        X1 (38D)        * NONE          *       INDEX REGISTER TO BE SET TO -2D OR -10D ACCORDING TO WHETHER THE EARTH OR MOON,
000533:                                                                                                  #                        *               *               RESPECTIVELY, IS THE CENTRAL BODY.
000534:
000535:                                                                                                  #  SUBROUTINES CALLED -
000536:                                                                                                  #        PARAM, GEOM
000537:
000538:                                                                                                  #  CALLING SEQUENCE AND NORMAL EXIT MODES -


000540:                                                                                                  #        IF ONLY TIME IS DESIRED AS OUTPUT -
000541:                                                                                                  #        L       CALL                    MUST BE IN INTERPRETIVE MODE BUT OVFIND ARBITRARY.
000542:                                                                                                  #        L+1             APSIDES         RETURNS WITH PL AT 0, RADIUS OF APOCENTER IN MPAC AND RADIUS OF PERICENTER IN 0D
000543:                                                                                                  #        L+2     STODL   APOAPSE
000544:                                                                                                  #        L+3             0D
000545:                                                                                                  #        L+4     STORE   PERIAPSE        APOAPSE AND PERIAPSE ARE SYMBOLIC REPRESENTATIONS OF THE USERS LOCATIONS
000546:                                                                                                  #        L+5     ...                     CONTINUE
000547:
000548:                                                                                                  #  OUTPUT -
000549:                                                                                                  #                        * SCALE FACTOR  *
000550:                                                                                                  #        VARIABLE        *IN POWERS OF 2 *       DESCRIPTION AND REMARKS
000551:                                                                                                  #        --------        *-------------- *       -----------------------
000552:                                                                                                  #        MPAC            * +29 FOR EARTH *       DP RADIUS OF APOCENTER IN METERS
000553:                                                                                                  #                        * +27 FOR MOON  *
000554:                                                                                                  #        0D-1D           * +29 FOR EARTH *       DP RADIUS OF PERICENTER IN METERS
000555:                                                                                                  #                        * +27 FOR MOON  *
000556:                                                                                                  #        ECC             * +3            *       DP ECCENTRICITY OF CONIC TRAJECTORY.
000557:
000558:                                                                                                  #        FOR OTHER OUTPUT WHICH MAY BE OF USE, SEE DEBRIS.
000559:
000560:                                                                                                  #  DEBRIS -
000561:
000562:                                                                                                  #        PARAMETERS WHICH MAY BE OF USE -
000563:
000564:                                                                                                  #                        * SCALE FACTOR  *
000565:                                                                                                  #        VARIABLE        *IN POWERS OF 2 *       DESCRIPTION AND REMARKS
000566:                                                                                                  #        --------        *-------------- *       -----------------------
000567:                                                                                                  #        R1 (32D)        * +29 FOR EARTH *       DP MAGNITUDE OF INITIAL POSITION VECTOR, RVEC, IN METERS
000568:                                                                                                  #                        * +27 FOR MOON  *
000569:                                                                                                  #        R1A             * +6            *       DP RATIO OF R1 TO SEMIMAJOR AXIS (NEG. FOR HYPERBOLIC TRAJECTORIES)
000570:                                                                                                  #        P               * +4            *       DP RATIO OF SEMILATUS RECTUM TO R1
000571:                                                                                                  #        COGA            * +5            *       DP COTAN OF ANGLE BETWEEN RVEC AND VVEC
000572:                                                                                                  #        UR1             * +1            *       DP UNIT VECTOR OF RVEC
000573:                                                                                                  #        U2              * +1            *       DP UNIT VECTOR OF VVEC
000574:                                                                                                  #        UN              * +1            *       DP UNIT VECTOR OF UR1*U2
000575:                                                                                                  #        MAGVEC2         * +7 FOR EARTH  *       DP MAGNITUDE OF VVEC
000576:                                                                                                  #                        * +5 FOR MOON   *
000577:
000578:                                                                                                  #        PARAMETERS OF NO USE -
000579:                                                                                                  #                SP PARAMETERS - RTNAPSE, GEOMSGN, RTNPRM, PLUS PUSHLIST LOCATIONS 0-5, 10D-11D, 14D-21D, 31D-38D.
000580:                                                                                                  #                ADDITIONAL INTERPRETIVE SWITCHES USED - NORMSW
000581:
000582: 12,2000                                           SETLOC   CONICS


000584: 12,2000                                           BANK
000585:
000586: 12,2023                                           COUNT*   $$/CONIC
000587: 12,2023  E5,1721                                  EBANK=   UR1
000588: 12,2023           40001        KEPLERN            SETPD    BOV
000589: 12,2024           00001                                    0
000590: 12,2025           24026                                    +1
000591: 12,2026           77773                           VLOAD*
000592: 12,2027           10005                                    MUTABLE,1
000593: 12,2030           24017                           STOVL    14D
000594: 12,2031           01503                                    RRECT
000595: 12,2032           66256                           UNIT     SSP
000596: 12,2033           00027                                    ITERCTR
000597: 12,2034           00024                                    20D
000598: 12,2035           16647                           STODL    URRECT
000599: 12,2036           00045                                    36D
000600: 12,2037           24041                           STOVL    R1
000601: 12,2040           01503                                    RRECT
000602: 12,2041           76441                           DOT      SL1R
000603: 12,2042           01511                                    VRECT
000604: 12,2043           76405                           DMP      SL1R
000605: 12,2044           00023                                    1/ROOTMU                              #  1/ROOTMU (-17 OR -14)
000606: 12,2045           24043                           STOVL    KEPC1                                 #  C1=R.V/ROOTMU (+17 OR +16)
000607: 12,2046           01511                                    VRECT
000608: 12,2047           57236                           VSQ      DMPR
000609: 12,2050           00017                                    1/MU                                  #  1/MU (-34 OR -28)
000610: 12,2051           52405                           DMP      SL3
000611: 12,2052           00041                                    R1
000612: 12,2053           61425                           DSU      ROUND
000613: 12,2054           11035                                    D1/64
000614: 12,2055           00045                           STORE    KEPC2                                 #  C2=RV.V/MU -1 (+6)
000615:
000616: 12,2056           74421                           BDSU     SR1R
000617: 12,2057           11035                                    D1/64
000618: 12,2060           77671                           DDV
000619: 12,2061           00041                                    R1
000620: 12,2062           00011                           STORE    ALPHA                                 #  ALPHA=(1-C2)/R1 (-22 OR -20)
000621:
000622: 12,2063           71244                           BPL      DLOAD                                 #  MAXIMUM X DEPENDS ON TYPE OF CONIC
000623: 12,2064           24073                                    1REV
000624: 12,2065           11053                                    -50SC                                 #  -50SC (+12)
000625: 12,2066           40071                           DDV      BOV
000626: 12,2067           00011                                    ALPHA
000627: 12,2070           24077                                    STOREMAX
000628: 12,2071           52166                           SQRT     GOTO
000629: 12,2072           24077                                    STOREMAX
000630:
000631: 12,2073           55366        1REV               SQRT     BDDV


000633: 12,2074           11055                                    2PISC                                 #  2PISC (+6)
000634: 12,2075           77600                           BOV
000635: 12,2076           24077                                    STOREMAX
000636: 12,2077           00013        STOREMAX           STORE    XMAX
000637: 12,2100           65205                           DMP      PDDL
000638: 12,2101           00023                                    1/ROOTMU
000639: 12,2102           00011                                    ALPHA
000640: 12,2103           65301                           NORM     PDDL
000641: 12,2104           00047                                    X1
000642: 12,2105           56257                           SL*      DDV
000643: 12,2106           20173                                    0          -6,1
000644: 12,2107           50000                           BOV      BMN
000645: 12,2110           24124                                    MODDONE
000646: 12,2111           24124                                    MODDONE                               #  MPAC=PERIOD
000647: 12,2112           51525        PERIODCH           PDDL     ABS                                   #  0D=PERIOD
000648: 12,2113           02074                                    TAU.
000649: 12,2114           50025                           DSU      BMN
000650: 12,2115           00001                                    0D
000651: 12,2116           24124                                    MODDONE
000652: 12,2117           77765                           SIGN
000653: 12,2120           02074                                    TAU.
000654: 12,2121           16074                           STODL    TAU.
000655: 12,2122           77650                           GOTO
000656: 12,2123           24112                                    PERIODCH
000657: 12,2124           71201        MODDONE            SETPD    DLOAD
000658: 12,2125           00001                                    0
000659: 12,2126           02130                                    XKEPNEW
000660: 12,2127           00025                           STORE    X
000661: 12,2130           53165                           SIGN     BZE
000662: 12,2131           02074                                    TAU.
000663: 12,2132           24302                                    BADX
000664: 12,2133           51440                           BMN      ABS
000665: 12,2134           24302                                    BADX
000666: 12,2135           51025                           DSU      BPL
000667: 12,2136           00013                                    XMAX
000668: 12,2137           24302                                    BADX
000669: 12,2140           51145        STORBNDS           DLOAD    BPL
000670: 12,2141           02074                                    TAU.
000671: 12,2142           24152                                    STOREMIN
000672: 12,2143           57545                           DLOAD    DCOMP
000673: 12,2144           00013                                    XMAX
000674: 12,2145           14015                           STODL    XMIN
000675: 12,2146           24007                                    KEPZERO
000676: 12,2147           00013                           STORE    XMAX
000677: 12,2150           77650                           GOTO
000678: 12,2151           24155                                    DXCOMP
000679: 12,2152           77745        STOREMIN           DLOAD
000680: 12,2153           24007                                    KEPZERO
000681: 12,2154           00015                           STORE    XMIN
000682: 12,2155           57345        DXCOMP             DLOAD    DMPR


000684: 12,2156           02074                                    TAU.
000685: 12,2157           11046                                    BEE22
000686: 12,2160           77646                           ABS
000687: 12,2161           16177                           STODL    EPSILONT
000688: 12,2162           01553                                    XPREV
000689: 12,2163           77621        XDIFF              BDSU
000690: 12,2164           00025                                    X
000691: 12,2165           02643                           STORE    DELX
000692:
000693: 12,2166           63545        KEPLOOP            DLOAD    DSQ
000694: 12,2167           00025                                    X                                     #  X=XKEP
000695: 12,2170           41501                           NORM     PUSH                                  #  0D=XSQ (+34 OR +32 -N1)       PL AT 2
000696: 12,2171           00047                                    X1
000697: 12,2172           53605                           DMP      SRR*
000698: 12,2173           00011                                    ALPHA
000699: 12,2174           21573                                    0          -6,1
000700: 12,2175           34031                           STCALL   XI                                    #  XI=ALPHA XSQ (+6)
000701: 12,2176           24421                                    DELTIME
000702: 12,2177           44200                           BOV      BDSU
000703: 12,2200           24311                                    TIMEOVFL                              #  UNLIKELY
000704: 12,2201           02074                                    TAU.
000705: 12,2202           02645                           STORE    DELT                                  #  DELT=DELINDEP
000706: 12,2203           44246                           ABS      BDSU
000707: 12,2204           02177                                    EPSILONT
000708: 12,2205           71244                           BPL      DLOAD
000709: 12,2206           24333                                    KEPCONVG
000710: 12,2207           00037                                    T
000711: 12,2210           60225                           DSU      NORM
000712: 12,2211           01551                                    TC
000713: 12,2212           00047                                    X1
000714: 12,2213           60325                           PDDL     NORM
000715: 12,2214           02643                                    DELX
000716: 12,2215           00050                                    X2
000717: 12,2216           41260                           XSU,1    DMP
000718: 12,2217           00047                                    X2
000719: 12,2220           02645                                    DELT
000720: 12,2221           56257                           SLR*     DDV
000721: 12,2222           21202                                    1,1
000722: 12,2223           41542                           SR1      PUSH                                  #  0D=TRIAL DELX         PL AT 2
000723: 12,2224           71244                           BPL      DLOAD
000724: 12,2225           24246                                    POSDELX
000725: 12,2226           00025                                    X
000726: 12,2227           00013                           STORE    XMAX                                  #  MOVE MAX BOUND IN
000727: 12,2230           45221                           BDSU     DSU                                   #                        PL AT 0
000728: 12,2231           00015                                    XMIN
000729: 12,2232           51000                           BOV      BPL
000730: 12,2233           24240                                    NDXCHNGE
000731: 12,2234           24240                                    NDXCHNGE
000732: 12,2235           52145                           DLOAD    GOTO


000734: 12,2236           00001                                    0D
000735: 12,2237           24260                                    NEWDELX
000736:
000737: 12,2240           45345        NDXCHNGE           DLOAD    DSU
000738: 12,2241           00015                                    XMIN
000739: 12,2242           00025                                    X
000740: 12,2243           52075                           DMPR     GOTO                                  #  TO FORCE MPAC +2 TO ZERO
000741: 12,2244           11051                                    DP9/10
000742: 12,2245           24260                                    NEWDELX
000743:
000744: 12,2246           77745        POSDELX            DLOAD
000745: 12,2247           00025                                    X
000746: 12,2250           00015                           STORE    XMIN                                  #  MOVE MIN BOUND IN
000747: 12,2251           45221                           BDSU     DSU                                   #                        PL AT 0
000748: 12,2252           00013                                    XMAX
000749: 12,2253           50000                           BOV      BMN
000750: 12,2254           24274                                    PDXCHNGE
000751: 12,2255           24274                                    PDXCHNGE
000752: 12,2256           77745                           DLOAD
000753: 12,2257           00001                                    0D
000754: 12,2260           02643        NEWDELX            STORE    DELX
000755: 12,2261           43254                           BZE      DAD
000756: 12,2262           24333                                    KEPCONVG
000757: 12,2263           00025                                    X
000758: 12,2264           14025                           STODL    X
000759: 12,2265           00037                                    T
000760: 12,2266           01551                           STORE    TC
000761: 12,2267           46034        BRNCHCTR           RTB      BHIZ
000762: 12,2270           24644                                    CHECKCTR
000763: 12,2271           24333                                    KEPCONVG
000764: 12,2272           77650                           GOTO
000765: 12,2273           24166                                    KEPLOOP                               #  ITERATE
000766:
000767: 12,2274           45345        PDXCHNGE           DLOAD    DSU
000768: 12,2275           00013                                    XMAX
000769: 12,2276           00025                                    X
000770: 12,2277           52075                           DMPR     GOTO                                  #  TO FORCE MPAC +2 TO ZERO
000771: 12,2300           11051                                    DP9/10
000772: 12,2301           24260                                    NEWDELX
000773:
000774: 12,2302           70545        BADX               DLOAD    SR1
000775: 12,2303           00013                                    XMAX
000776: 12,2304           77765                           SIGN
000777: 12,2305           02074                                    TAU.
000778: 12,2306           00025                           STORE    X
000779: 12,2307           77650                           GOTO


000781: 12,2310           24140                                    STORBNDS
000782: 12,2311           50145        TIMEOVFL           DLOAD    BMN                                   #  X WAS TOO BIG
000783: 12,2312           00025                                    X
000784: 12,2313           24330                                    NEGTOVFL
000785: 12,2314           00013                           STORE    XMAX
000786: 12,2315           70545        CMNTOVFL           DLOAD    SR1
000787: 12,2316           02643                                    DELX
000788: 12,2317           02643                           STORE    DELX
000789: 12,2320           44254                           BZE      BDSU
000790: 12,2321           02112                                    KEPRTN
000791: 12,2322           00025                                    X
000792: 12,2323           14025                           STODL    X
000793: 12,2324           01551                                    TC
000794: 12,2325           00037                           STORE    T
000795: 12,2326           77650                           GOTO
000796: 12,2327           24267                                    BRNCHCTR
000797: 12,2330           00015        NEGTOVFL           STORE    XMIN
000798: 12,2331           77650                           GOTO
000799: 12,2332           24315                                    CMNTOVFL
000800: 12,2333           44545        KEPCONVG           DLOAD    SR4R
000801: 12,2334           00041                                    R1
000802: 12,2335           74225                           DSU      VXSC
000803: 12,2336           00035                                    XSQC(XI)
000804: 12,2337           02647                                    URRECT
000805: 12,2340           65372                           VSL1     PDDL                                  #  0D=(R1-XSQC(XI))URRECT (+33 OR +31)
000806: 12,2341           00025                                    X
000807: 12,2342           60316                           DSQ      NORM
000808: 12,2343           00047                                    X1
000809: 12,2344           57275                           DMPR     DMPR
000810: 12,2345           00023                                    1/ROOTMU
000811: 12,2346           00025                                    X
000812: 12,2347           53605                           DMP      SRR*
000813: 12,2350           00033                                    S(XI)
000814: 12,2351           21572                                    0          -7,1
000815: 12,2352           77621                           BDSU
000816: 12,2353           00037                                    T
000817: 12,2354           74352                           SL1      VXSC
000818: 12,2355           01511                                    VRECT
000819: 12,2356           53372                           VSL1     VAD                                   #                                PL AT 0
000820: 12,2357           77712                           VSL4
000821: 12,2360           01535                           STORE    RCV                                   #  RCV (+29 OR +27)
000822:
000823: 12,2361           60246                           ABVAL    NORM
000824: 12,2362           00050                                    X2
000825: 12,2363           14043                           STODL    RCNORM
000826: 12,2364           00031                                    XI
000827: 12,2365           45275                           DMPR     DSU
000828: 12,2366           00033                                    S(XI)
000829: 12,2367           11033                                    D1/128


000831: 12,2370           76405                           DMP      SL1R
000832: 12,2371           00021                                    ROOTMU
000833: 12,2372           53605                           DMP      SLR*
000834: 12,2373           00025                                    X
000835: 12,2374           56601                                    0          -3,2
000836: 12,2375           74271                           DDV      VXSC
000837: 12,2376           00043                                    RCNORM
000838: 12,2377           02647                                    URRECT
000839: 12,2400           65372                           VSL1     PDDL                                  #  0D=URRECT(XI S(XI)-1)X ROOTMU/RCV (+15
000840: 12,2401           00035                                    XSQC(XI)                              #  OR +13)                       PL AT 6
000841: 12,2402           56257                           SLR*     DDV
000842: 12,2403           56602                                    0          -4,2
000843: 12,2404           00043                                    RCNORM
000844: 12,2405           74221                           BDSU     VXSC
000845: 12,2406           11047                                    D1/256
000846: 12,2407           01511                                    VRECT
000847: 12,2410           42455                           VAD      VSL8
000848: 12,2411           77626                           STADR                                          #                                PL AT 0
000849: 12,2412           62234                           STODL    VCV                                   #  VCV (+7 OR +5)
000850: 12,2413           00037                                    T
000851: 12,2414           15551                           STODL    TC
000852: 12,2415           00025                                    X
000853: 12,2416           01553                           STORE    XPREV
000854: 12,2417           77650                           GOTO
000855: 12,2420           02112                                    KEPRTN
000856:


000858: 12,2421           77776        DELTIME            EXIT                                           #  MPAC=XI (+6), 0D=XSQ (+34 OR +32 -N1)
000859: 12,2422           07222                           TC       POLY
000860: 12,2423           00010                           DEC      8          B-14
000861: 12,2424           02525 12526                     2DEC     .083333334
000862: 12,2426           67356 75666                     2DEC     -.266666684
000863: 12,2430           15001 23771                     2DEC     .406349155
000864: 12,2432           64342 43674                     2DEC     -.361198675
000865: 12,2434           06563 04645                     2DEC     .210153242
000866: 12,2436           75173 52672                     2DEC     -.086221951
000867: 12,2440           00656 14331                     2DEC     .026268812
000868: 12,2442           77633 40512                     2DEC     -.006163316
000869: 12,2444           00023 11210                     2DEC     .001177342
000870: 12,2446           77774 67506                     2DEC     -.000199055
000871:
000872: 12,2450           06037                           TC       INTPRET
000873: 12,2451           14033                           STODL    S(XI)
000874: 12,2452           00031                                    XI
000875: 12,2453           77776                           EXIT
000876: 12,2454           07222                           TC       POLY
000877: 12,2455           00010                           DEC      8          B-14
000878: 12,2456           01000 00000                     2DEC     .031250001
000879: 12,2460           72525 52506                     2DEC     -.166666719
000880: 12,2462           13301 15337                     2DEC     .355555413
000881: 12,2464           62776 54733                     2DEC     -.406347410
000882: 12,2466           11176 13267                     2DEC     .288962094
000883: 12,2470           73410 51674                     2DEC     -.140117894
000884: 12,2472           01446 33641                     2DEC     .049247387
000885: 12,2474           77451 65233                     2DEC     -.013081923
000886: 12,2476           00055 37266                     2DEC     .002806389
000887: 12,2500           77767 52336                     2DEC     -.000529414
000888: 12,2502           06037                           TC       INTPRET


000890: 12,2503           53605                           DMP      SRR*                                  #                                PL AT 0
000891: 12,2504           00001                                    0D
000892: 12,2505           21574                                    0          -5,1
000893: 12,2506           00035                           STORE    XSQC(XI)                              #  XSQC(XI) (+33 OR +31)
000894: 12,2507           72405                           DMP      SL1
000895: 12,2510           00043                                    KEPC1
000896: 12,2511           65234                           RTB      PDDL                                  #  XCH WITH PL. 0D=C1 XSQ C(XI) (+49 OR +46
000897: 12,2512           21633                                    TPMODE                                #                                PL AT 0,3
000898: 12,2513           53605                           DMP      SRR*
000899: 12,2514           00033                                    S(XI)
000900: 12,2515           21574                                    0          -5,1
000901: 12,2516           72405                           DMP      SL1
000902: 12,2517           00045                                    KEPC2
000903: 12,2520           65234                           RTB      PDDL                                  #  3D=C2 XSQ S(XI) (+35 OR +33)  PL AT 6
000904: 12,2521           21633                                    TPMODE
000905: 12,2522           00041                                    R1
000906: 12,2523           76261                           SR       TAD                                   #                                PL AT 3
000907: 12,2524           20607                                    6
000908: 12,2525           41301                           NORM     DMP                                   #  TO PRESERVE SIGNIF.
000909: 12,2526           00047                                    X1
000910: 12,2527           00025                                    X
000911: 12,2530           76257                           SR*      TAD                                   #  X(C2 XSQ S(XI) +R1) (+49 OR +46)  PL AT 0
000912: 12,2531           20576                                    0          -3,1
000913: 12,2532           57232                           SL4R     DMPR
000914: 12,2533           00023                                    1/ROOTMU
000915: 12,2534           00037                           STORE    T
000916: 12,2535           77616                           RVQ
000917:


000919: 12,2536           71214        ITERATOR           BONCLR   DLOAD
000920: 12,2537           00614                                    SLOPESW
000921: 12,2540           24606                                    FIRSTIME
000922: 12,2541           00037                                    DEP
000923: 12,2542           60225                           DSU      NORM
000924: 12,2543           02762                                    DEPREV
000925: 12,2544           00047                                    X1
000926: 12,2545           60325                           PDDL     NORM
000927: 12,2546           00015                                    DELINDEP
000928: 12,2547           00050                                    X2
000929: 12,2550           41260                           XSU,1    DMP
000930: 12,2551           00047                                    X2
000931: 12,2552           02760                                    DELDEP
000932: 12,2553           56257                           SLR*     DDV                                   #                                PL UP 2
000933: 12,2554           21202                                    1,1
000934: 12,2555           43142                           SR1      BOFF
000935: 12,2556           04351                                    ORDERSW
000936: 12,2557           24562                                    SGNCHECK
000937: 12,2560           75246                           ABS      SIGN                                  #  IN CASE 2ND DERIV. CHANGED SIGN, MUST
000938: 12,2561           02760                                    DELDEP                                #  DISREGARD IT TO FIND MIN.
000939:
000940: 12,2562           51006        SGNCHECK           PUSH     BPL                                   #  TRIAL DELINDEP                PL DOWN 2
000941: 12,2563           24620                                    POSDEL
000942: 12,2564           43145                           DLOAD    BON
000943: 12,2565           02766                                    INDEP
000944: 12,2566           04311                                    ORDERSW
000945: 12,2567           24571                                    MINCHECK
000946: 12,2570           00017                           STORE    MAX                                   #  IF NOT 2ND ORDER, CAN MOVE MAX BOUND IN.
000947:
000948: 12,2571           45221        MINCHECK           BDSU     DSU
000949: 12,2572           00011                                    MIN
000950: 12,2573           51000                           BOV      BPL
000951: 12,2574           24600                                    MODNGDEL
000952: 12,2575           24600                                    MODNGDEL
000953: 12,2576           77650                           GOTO
000954: 12,2577           24632                                    DELOK
000955:
000956: 12,2600           45345        MODNGDEL           DLOAD    DSU                                   #  TRIAL DELINDEP WOULD EXCEED MIN BOUND
000957: 12,2601           00011                                    MIN
000958: 12,2602           02766                                    INDEP
000959: 12,2603           52005                           DMP      GOTO
000960: 12,2604           11051                                    DP9/10
000961: 12,2605           24634                                    NEWDEL
000962:
000963: 12,2606           41345        FIRSTIME           DLOAD    DMP
000964: 12,2607           00011                                    MIN
000965: 12,2610           00051                                    TWEEKIT                               #  DLOAD TWEEKIT(40D) SENSITIVE TO CHANGE.
000966: 12,2611           41325                           PDDL     DMP                                   #  S2(41D) SHOULDNT CONTAIN HI ORDER ONES


000968: 12,2612           00017                                    MAX
000969: 12,2613           00051                                    TWEEKIT
000970: 12,2614           77625                           DSU
000971: 12,2615           52165                           SIGN     GOTO
000972: 12,2616           02760                                    DELDEP
000973: 12,2617           24562                                    SGNCHECK
000974:
000975: 12,2620           43145        POSDEL             DLOAD    BON
000976: 12,2621           02766                                    INDEP
000977: 12,2622           04311                                    ORDERSW
000978: 12,2623           24625                                    MAXCHECK
000979: 12,2624           00011                           STORE    MIN                                   #  IF NOT 2ND ORDER, CAN MOVE MIN BOUND IN.
000980:
000981: 12,2625           45221        MAXCHECK           BDSU     DSU
000982: 12,2626           00017                                    MAX
000983: 12,2627           50000                           BOV      BMN
000984: 12,2630           24636                                    MODPSDEL
000985: 12,2631           24636                                    MODPSDEL
000986: 12,2632           77745        DELOK              DLOAD
000987: 12,2633           00001                                    0D
000988: 12,2634           00015        NEWDEL             STORE    DELINDEP
000989: 12,2635           77616                           RVQ
000990:
000991: 12,2636           45345        MODPSDEL           DLOAD    DSU
000992: 12,2637           00017                                    MAX
000993: 12,2640           02766                                    INDEP
000994: 12,2641           52005                           DMP      GOTO
000995: 12,2642           11051                                    DP9/10
000996: 12,2643           24634                                    NEWDEL
000997:
000998: 12,2644           44753        CHECKCTR           CS       ONE
000999: 12,2645           50120                           INDEX    FIXLOC
001000: 12,2646           60026                           AD       ITERCTR
001001: 12,2647           50120                           INDEX    FIXLOC
001002: 12,2650           54026                           TS       ITERCTR
001003: 12,2651           54154                           TS       MPAC
001004: 12,2652           06061                           TC       DANZIG
001005:


001007: 12,2653           44545        NEWSTATE           DLOAD    SR4R
001008: 12,2654           00041                                    R1
001009: 12,2655           74225                           DSU      VXSC
001010: 12,2656           00035                                    XSQC(XI)
001011: 12,2657           02722                                    UR1
001012: 12,2660           65372                           VSL1     PDDL                                  #  0D=(R1-XSQC(XI))UR1 (+33 OR 31) PL AT 6
001013: 12,2661           00025                                    X
001014: 12,2662           60316                           DSQ      NORM
001015: 12,2663           00047                                    X1
001016: 12,2664           57275                           DMPR     DMPR
001017: 12,2665           00023                                    1/ROOTMU
001018: 12,2666           00025                                    X
001019: 12,2667           53605                           DMP      SRR*
001020: 12,2670           00033                                    S(XI)
001021: 12,2671           21572                                    0          -7,1
001022: 12,2672           77621                           BDSU
001023: 12,2673           00037                                    T
001024: 12,2674           74352                           SL1      VXSC
001025: 12,2675           02744                                    VVEC
001026: 12,2676           53372                           VSL1     VAD                                   #                                PL AT 0
001027: 12,2677           41512                           VSL4     PUSH
001028: 12,2700           77646                           ABVAL
001029: 12,2701           77701        LAMENTER           NORM
001030: 12,2702           00047                                    X1
001031: 12,2703           16720                           STODL    R2
001032: 12,2704           00031                                    XI
001033: 12,2705           45205                           DMP      DSU
001034: 12,2706           00033                                    S(XI)
001035: 12,2707           11033                                    D1/128
001036: 12,2710           76405                           DMP      SL1R
001037: 12,2711           00021                                    ROOTMU
001038: 12,2712           53605                           DMP      SLR*
001039: 12,2713           00025                                    X
001040: 12,2714           21176                                    0          -3,1
001041: 12,2715           74271                           DDV      VXSC
001042: 12,2716           02720                                    R2
001043: 12,2717           02722                                    UR1
001044: 12,2720           65372                           VSL1     PDDL                                  #  6D=V2VEC PART (+15 OR 13)     PL AT 12
001045: 12,2721           00035                                    XSQC(XI)
001046: 12,2722           56257                           SLR*     DDV
001047: 12,2723           21175                                    0          -4,1
001048: 12,2724           02720                                    R2
001049: 12,2725           77621                           BDSU
001050: 12,2726           11047                                    D1/256
001051: 12,2727           53361                           VXSC     VAD                                   #                                PL AT 6
001052: 12,2730           02744                                    VVEC
001053: 12,2731           43412                           VSL8     RVQ
001054:


001056: 04,2000                                           SETLOC   CONICS1
001057: 04,2000                                           BANK
001058:
001059: 04,3027                                           COUNT*   $$/CONIC
001060:                                                                                                  #  DO NOT DISTURB THE ORDER OF THESE CDS, OVERLAYS HAVE BEEN MADE.
001061: 04,3027           00000        BEE17              DEC      0          B-14                       #  KEEP WITH D1/8 2DEC 1.0B-17 (0000004000)
001062: 04,3030           04000 00000  D1/8               2DEC     1.0        B-3
001063: 04,3032           00200 00000  D1/128             2DEC     1.0        B-7
001064: 04,3034           00400 00000  D1/64              2DEC     1.0        B-6
001065: 04,3036           10000 00000  D1/4               2DEC     1.0        B-2
001066: 04,3040           02000 00000  D1/16              2DEC     1.0        B-4
001067: 04,3042           01000 00000  D1/32              2DEC     1.0        B-5
001068: 04,3044           00020 00000  D1/1024            2DEC     1.0        B-10
001069: 04,3046           00100 00000  D1/256             2DEC     1.0        B-8
001070: 04,3050           34631 23146  DP9/10             2DEC     .9
001071: 04,3052  12,2006               KEPZERO            EQUALS   LO6ZEROS
001072: 04,3052           77467 77777  -50SC              2DEC     -50.0      B-12
001073: 04,3054           03110 17665  2PISC              2DEC     6.28318530 B-6
001074: 04,3056  04,3041               BEE19              EQUALS   D1/32      -1                         #  2DEC 1.0 B-19 (00000 01000)
001075: 04,3056  04,3045               BEE22              EQUALS   D1/256     -1                         #  2DEC 1.0 B-22 (00000 00100)
001076: 04,3056           00000 00001  ONEBIT             2DEC     1.0        B-28
001077: 04,3060           37767 37737  COGUPLIM           2DEC     .999511597
001078: 04,3062           40010 40040  COGLOLIM           2DEC     -.999511597
001079:


001081: 12,2000                                           SETLOC   CONICS
001082: 12,2000                                           BANK
001083:
001084: 12,2732                                           COUNT*   $$/CONIC
001085: 12,2732           40220        TIMETHET           STQ      SETPD                                 #                                PL AT 0
001086: 12,2733           02710                                    RTNTT
001087: 12,2734           00001                                    0
001088: 12,2735           77600                           BOV
001089: 12,2736           24737                                    +1
001090: 12,2737           63375                           VLOAD    PDVL                                  #  SETUP FOR PARAM CALL          PL AT 6
001091: 12,2740           02655                                    RVEC
001092: 12,2741           02744                                    VVEC
001093: 12,2742           77624                           CALL
001094: 12,2743           11064                                    PARAM
001095: 12,2744           45000                           BOV      CALL                                  #                                PL AT 0
001096: 12,2745           24764                                    COGAOVFL
001097: 12,2746           24767                                    GETX
001098: 12,2747           43145        COMMNOUT           DLOAD    BON
001099: 12,2750           00031                                    XI
001100: 12,2751           04310                                    INFINFLG
001101: 12,2752           25742                                    ABTCONIC
001102: 12,2753           45014                           CLEAR    CALL
001103: 12,2754           04273                                    COGAFLAG
001104: 12,2755           24421                                    DELTIME
001105: 12,2756           45014                           BON      CALL
001106: 12,2757           03706                                    RVSW
001107: 12,2760           02710                                    RTNTT
001108: 12,2761           24653                                    NEWSTATE
001109: 12,2762           77650                           GOTO
001110: 12,2763           02710                                    RTNTT
001111:
001112: 12,2764           77614        COGAOVFL           SETGO
001113: 12,2765           04033                                    COGAFLAG
001114: 12,2766           25742                                    ABTCONIC
001115:
001116: 04,3064                                           BANK     4
001117: 04,2000                                           SETLOC   CONICS1
001118: 04,2000                                           BANK
001119: 04,3064                                           COUNT*   $$/CONIC
001120: 04,3064           43020        PARAM              STQ      CLEAR                                 #  MPAC=V1VEC, 0D=R1VEC          PL AT 6
001121: 04,3065           02753                                    RTNPRM
001122: 04,3066           03665                                    NORMSW
001123: 04,3067           77614                           CLEAR
001124: 04,3070           04273                                    COGAFLAG
001125: 04,3071           45131                           SSP      CALL
001126: 04,3072           02673                                    GEOMSGN
001127: 04,3073           27777                                    37777                                 #  GAMMA ALWAYS LESS THAN 180DEG
001128: 04,3074           11130                                    GEOM                                  #  MPAC=SNGA (+1), 0D=CSGA (+1)  PL AT 2
001129: 04,3075           14045                           STODL    36D                                   #  36D=SIN GAMMA (+1)            PL AT 0
001130: 04,3076           56261                           SR       DDV


001132: 04,3077           20606                                    5
001133: 04,3100           00045                                    36D
001134: 04,3101           32766                           STOVL*   COGA
001135: 04,3102           10005                                    MUTABLE,1
001136: 04,3103           14017                           STODL    1/MU
001137: 04,3104           02720                                    MAGVEC2
001138: 04,3105           60316                           DSQ      NORM
001139: 04,3106           00047                                    X1
001140: 04,3107           41275                           DMPR     DMP
001141: 04,3110           00017                                    1/MU
001142: 04,3111           00041                                    R1
001143: 04,3112           77657                           SRR*
001144: 04,3113           21576                                    0          -3,1
001145: 04,3114           44206                           PUSH     BDSU                                  #  0D=R1 V1SQ/MU (+6)            PL AT 2
001146: 04,3115           11043                                    D1/32
001147: 04,3116           16742                           STODL    R1A                                   #  R1A (+6)                      PL AT 0
001148:
001149: 04,3117           60205                           DMP      NORM
001150: 04,3120           00045                                    36D
001151: 04,3121           00047                                    X1
001152: 04,3122           53605                           DMP      SR*
001153: 04,3123           00045                                    36D
001154: 04,3124           20575                                    0          -4,1
001155: 04,3125           02740                           STORE    P                                     #  P (+4)
001156: 04,3126           77650                           GOTO
001157: 04,3127           02753                                    RTNPRM
001158:


001160: 04,3130           77656        GEOM               UNIT                                           #  MPAC=V2VEC, 0D=R1VEC          PL AT 6
001161: 04,3131           16712                           STODL    U2                                    #  U2 (+1)
001162: 04,3132           00045                                    36D
001163: 04,3133           26720                           STOVL    MAGVEC2                               #                                PL AT 0
001164: 04,3134           77656                           UNIT
001165: 04,3135           02722                           STORE    UR1                                   #  UR1 (+1)
001166: 04,3136           72441                           DOT      SL1
001167: 04,3137           02712                                    U2
001168: 04,3140           77725                           PDDL                                           #  0D=CSTH (+1)                  PL AT 2
001169: 04,3141           00045                                    36D
001170: 04,3142           24041                           STOVL    R1                                    #  R1 (+29 OR +27)
001171: 04,3143           02722                                    UR1
001172: 04,3144           76435                           VXV      VSL1
001173: 04,3145           02712                                    U2
001174: 04,3146           75214                           BON      SIGN
001175: 04,3147           03705                                    NORMSW
001176: 04,3150           11162                                    HAVENORM
001177: 04,3151           02673                                    GEOMSGN
001178: 04,3152           40056                           UNIT     BOV
001179: 04,3153           11160                                    COLINEAR
001180: 04,3154           16674        UNITNORM           STODL    UN                                    #  UN (+1)
001181: 04,3155           00045                                    36D
001182: 04,3156           43565                           SIGN     RVQ                                   #  MPAC=SNTH (+1), 34D=SNTH.SNTH (+2)
001183: 04,3157           02673                                    GEOMSGN
001184:
001185: 04,3160           52162        COLINEAR           VSR1     GOTO
001186: 04,3161           11154                                    UNITNORM
001187:
001188: 04,3162           75246        HAVENORM           ABVAL    SIGN
001189: 04,3163           02673                                    GEOMSGN
001190: 04,3164           77616                           RVQ                                            #  MPAC=SNTH (+1), 34D=SNTH.SNTH (+2)
001191:


001193: 12,2767                                           BANK     12
001194: 12,2000                                           SETLOC   CONICS
001195: 12,2000                                           BANK
001196:
001197: 12,2767                                           COUNT*   $$/CONIC
001198: 12,2767           66374        GETX               AXT,2    SSP                                   #  ASSUMES P (+4) IN MPAC
001199: 12,2770           00003                                    3
001200: 12,2771           00052                                    S2
001201: 12,2772           00001                                    1
001202: 12,2773           77614                           CLEAR
001203: 12,2774           04276                                    360SW
001204: 12,2775           65366                           SQRT     PDDL                                  #  0D=SQRT(P)                    PL AT 2
001205: 12,2776           02732                                    CSTH
001206: 12,2777           44342                           SR1      BDSU
001207: 12,3000           11037                                    D1/4
001208: 12,3001           54325                           PDDL     SRR                                   #                                PL AT 4D
001209: 12,3002           02730                                    SNTH
001210: 12,3003           21607                                    6
001211: 12,3004           77671                           DDV                                            #                                PL AT 2
001212: 12,3005           77600                           BOV
001213: 12,3006           25122                                    360CHECK
001214: 12,3007           41225                           DSU      DMP
001215: 12,3010           02766                                    COGA                                  #                                PL AT 0
001216: 12,3011           40132                           SL2R     BOV
001217: 12,3012           25122                                    360CHECK
001218: 12,3013           63406        WLOOP              PUSH     DSQ                                   #  0D=W (+5)                     PL AT 2
001219: 12,3014           65351                           TLOAD    PDDL                                  #  2D=WSQ (+10)                  PL AT 5
001220: 12,3015           00155                                    MPAC
001221: 12,3016           02742                                    R1A
001222: 12,3017           76202                           SR4      TAD                                   #                                PL AT 2
001223: 12,3020           75440                           BMN      SQRT
001224: 12,3021           25205                                    INFINITY
001225: 12,3022           43306                           ROUND    DAD                                   #                                PL AT 0D
001226: 12,3023           61000                           BOV      TIX,2
001227: 12,3024           25120                                    RESETX2
001228: 12,3025           25013                                    WLOOP
001229:
001230: 12,3026           40065                           BDDV     BOV
001231: 12,3027           11033                                    D1/128
001232: 12,3030           25205                                    INFINITY
001233: 12,3031           41440        POLYCOEF           BMN      PUSH                                  #  0D=1/W (+2) OR 16/W (+6)      PL AT 2
001234: 12,3032           25205                                    INFINITY
001235: 12,3033           77716                           DSQ
001236: 12,3034           41301                           NORM     DMP
001237: 12,3035           00047                                    X1
001238: 12,3036           02742                                    R1A
001239: 12,3037           77457                           SRR*     EXIT
001240: 12,3040           21567                                    0          -10D,1
001241: 12,3041           07222                           TC       POLY


001243: 12,3042           00005                           DEC      5          B-14
001244: 12,3043           20000 00000                     2DEC     .5
001245: 12,3045           72525 52471                     2DEC     -.166666770
001246: 12,3047           03146 15003                     2DEC     .100000392
001247: 12,3051           75556 45210                     2DEC     -.071401086
001248: 12,3053           01615 13553                     2DEC     .055503292
001249: 12,3055           76371 63777                     2DEC     -.047264098
001250: 12,3057           01232 27367                     2DEC     .040694204
001251:
001252: 12,3061           06037                           TC       INTPRET
001253: 12,3062           76405                           DMP      SL1R                                  #                                PL AT 0D
001254: 12,3063           43006                           PUSH     BON
001255: 12,3064           04316                                    360SW
001256: 12,3065           25172                                    TRUE360X
001257: 12,3066           60316        XCOMMON            DSQ      NORM
001258: 12,3067           00047                                    X1
001259: 12,3070           53605                           DMP      SRR*
001260: 12,3071           02742                                    R1A
001261: 12,3072           21565                                    0          -12D,1
001262: 12,3073           14031                           STODL    XI                                    #  XI (+6)
001263: 12,3074           00041                                    R1
001264: 12,3075           75542                           SR1      SQRT
001265: 12,3076           41306                           ROUND    DMP
001266: 12,3077           77632                           SL4R                                           #                                PL AT 0
001267: 12,3100           00025                           STORE    X                                     #  X (+17 OR +16)
001268:
001269: 12,3101           60316                           DSQ      NORM
001270: 12,3102           00047                                    X1
001271: 12,3103           41325                           PDDL     DMP                                   #  0D=XSQ (+34 OR +32 -N1)       PL AT 2
001272: 12,3104           02740                                    P
001273: 12,3105           00041                                    R1
001274: 12,3106           75452                           SL3      SQRT
001275: 12,3107           56405                           DMP      SL3R
001276: 12,3110           02766                                    COGA
001277: 12,3111           14043                           STODL    KEPC1
001278: 12,3112           02742                                    R1A
001279: 12,3113           43021                           BDSU     CLEAR
001280: 12,3114           11035                                    D1/64
001281: 12,3115           04270                                    INFINFLG
001282: 12,3116           00045                           STORE    KEPC2
001283: 12,3117           77616                           RVQ
001284:


001286: 12,3120           77774        RESETX2            AXT,2
001287: 12,3121           00003                                    3
001288:
001289: 12,3122           51001        360CHECK           SETPD    BPL
001290: 12,3123           00001                                    0D
001291: 12,3124           25127                                    INVRSEQN
001292: 12,3125           77614                           SET
001293: 12,3126           04076                                    360SW
001294:
001295: 12,3127           75545        INVRSEQN           DLOAD    SQRT
001296: 12,3130           02740                                    P
001297: 12,3131           41325                           PDDL     DMP                                   #  0D=SQRT(P) (+2)               PL AT 2
001298: 12,3132           02730                                    SNTH
001299: 12,3133           02766                                    COGA
001300: 12,3134           65352                           SL1      PDDL                                  #  2D=SNTH COGA (+5)             PL AT 4
001301: 12,3135           02732                                    CSTH
001302: 12,3136           43202                           SR4      DAD
001303: 12,3137           11043                                    D1/32
001304: 12,3140           41225                           DSU      DMP                                   #                                PL AT 2,0
001305: 12,3141           55301                           NORM     BDDV
001306: 12,3142           00047                                    X1
001307: 12,3143           02730                                    SNTH
001308: 12,3144           51457                           SLR*     ABS                                   #  NOTE: NEAR 360 CASE TREATED DIFFERENTLY
001309: 12,3145           21174                                    0          -5,1
001310: 12,3146           63406                           PUSH     DSQ                                   #  0D=1/W (-1)                   PL AT 2
001311: 12,3147           14043                           STODL    34D
001312: 12,3150           11041                                    D1/16
001313: 12,3151           63406        1/WLOOP            PUSH     DSQ                                   #  2D=G (+4)                     PL AT 4
001314: 12,3152           65234                           RTB      PDDL                                  #                                PL AT 7
001315: 12,3153           21633                                    TPMODE
001316: 12,3154           02742                                    R1A
001317: 12,3155           40405                           DMP      SR4
001318: 12,3156           00043                                    34D
001319: 12,3157           77771                           TAD                                            #                                PL AT 4
001320: 12,3160           75440                           BMN      SQRT
001321: 12,3161           25205                                    INFINITY
001322: 12,3162           77615                           DAD                                            #                                PL AT 2
001323: 12,3163           60304                           TIX,2    NORM
001324: 12,3164           25151                                    1/WLOOP
001325: 12,3165           00047                                    X1
001326: 12,3166           77665                           BDDV
001327: 12,3167           52057                           SLR*     GOTO                                  #                                PL AT 0
001328: 12,3170           21172                                    0          -7,1
001329: 12,3171           25031                                    POLYCOEF
001330:
001331: 12,3172           50145        TRUE360X           DLOAD    BMN
001332: 12,3173           02742                                    R1A


001334: 12,3174           25205                                    INFINITY
001335: 12,3175           60366                           SQRT     NORM
001336: 12,3176           00047                                    X1
001337: 12,3177           53665                           BDDV     SL*
001338: 12,3200           11055                                    2PISC
001339: 12,3201           20176                                    0          -3,1
001340: 12,3202           41425                           DSU      PUSH                                  #  0D=2PI/SQRT(R1A) -X           PL AT 0,2
001341: 12,3203           77650                           GOTO
001342: 12,3204           25066                                    XCOMMON
001343: 12,3205           40001        INFINITY           SETPD    BOV                                   #  NO SOLUTION EXISTS SINCE CLOSURE THROUGH
001344: 12,3206           00001                                    0                                     #  INFINITY IS REQUIRED
001345: 12,3207           25210                                    OVFLCLR
001346: 12,3210           43414        OVFLCLR            SET      RVQ
001347: 12,3211           04070                                    INFINFLG
001348:


001350: 12,3212           40220        LAMBERT            STQ      SETPD
001351: 12,3213           02710                                    RTNLAMB
001352: 12,3214           00001                                    0D
001353: 12,3215           77600                           BOV
001354: 12,3216           25217                                    +1
001355: 12,3217           76614                           CLEAR    VLOAD*
001356: 12,3220           02674                                    SOLNSW
001357: 12,3221           10005                                    MUTABLE,1
001358: 12,3222           14017                           STODL    1/MU
001359: 12,3223           02671                                    TDESIRED
001360: 12,3224           77675                           DMPR
001361: 12,3225           11042                                    BEE19
001362: 12,3226           02764                           STORE    EPSILONL
001363: 12,3227           77214                           SET      VLOAD
001364: 12,3230           00474                                    SLOPESW
001365: 12,3231           02655                                    R1VEC
001366: 12,3232           45115                           PDVL     CALL                                  #  0D=R1VEC (+29 OR +27)         PL AT 6
001367: 12,3233           02663                                    R2VEC                                 #  MPAC=R2VEC (+29 OR +27)
001368: 12,3234           11130                                    GEOM
001369: 12,3235           16730                           STODL    SNTH                                  #  0D=CSTH (+1)                  PL AT 2
001370: 12,3236           02720                                    MAGVEC2
001371: 12,3237           65301                           NORM     PDDL                                  #                                PL AT 4
001372: 12,3240           00047                                    X1
001373: 12,3241           00041                                    R1
001374: 12,3242           56342                           SR1      DDV                                   #                                PL AT 2
001375: 12,3243           65257                           SL*      PDDL                                  #  DXCH WITH 0D, 0D=R1/R2 (+7)   PL AT 0,2
001376: 12,3244           20173                                    0          -6,1
001377: 12,3245           77626                           STADR
001378: 12,3246           75045                           STORE    CSTH                                  #  CSTH (+1)
001379: 12,3247           44342                           SR1      BDSU
001380: 12,3250           11037                                    D1/4
001381: 12,3251           02734                           STORE    1-CSTH                                #  1-CSTH (+2)
001382:
001383: 12,3252           53106                           ROUND    BZE
001384: 12,3253           25463                                    360LAMB
001385: 12,3254           65301                           NORM     PDDL                                  #                                PL AT 4
001386: 12,3255           00047                                    X1
001387: 12,3256           00001                                    0D
001388: 12,3257           56342                           SR1      DDV                                   #                                PL AT 2
001389: 12,3260           75457                           SL*      SQRT
001390: 12,3261           20176                                    0          -3,1
001391: 12,3262           54325                           PDDL     SR                                    #  2D=SQRT(2R1/R2(1-CSTH)) (+5)  PL AT 4
001392: 12,3263           02730                                    SNTH
001393: 12,3264           20607                                    6
001394: 12,3265           43271                           DDV      DAD                                   #                                PL AT 2
001395: 12,3266           02734                                    1-CSTH
001396: 12,3267           77626                           STADR
001397: 12,3270           77760                           STORE    COGAMAX
001398: 12,3271           50000                           BOV      BMN                                   #  IF OVFL, COGAMAX=COGUPLIM
001399: 12,3272           25277                                    UPLIM                                 #  IF NEG, USE EVEN IF LT COGLOLIM, SINCE


001401: 12,3273           25302                                    MAXCOGA                               #        THIS WOULD BE RESET IN LAMBLOOP
001402: 12,3274           50025                           DSU      BMN                                   #  IF COGAMAX GT COGUPLIM, COGAMAX=COGUPLIM
001403: 12,3275           11061                                    COGUPLIM
001404: 12,3276           25302                                    MAXCOGA                               #  OTHERWISE OK, SO GO TO MAXCOGA
001405: 12,3277           77745        UPLIM              DLOAD
001406: 12,3300           11061                                    COGUPLIM                              #  COGUPLIM=.999511597 = MAX VALUE OF COGA
001407: 12,3301           00017                           STORE    COGAMAX                               #        NOT CAUSING OVFL IN R1A CALCULATION
001408: 12,3302           77745        MAXCOGA            DLOAD
001409: 12,3303           02732                                    CSTH
001410: 12,3304           45261                           SR       DSU                                   #                                PL AT 0
001411: 12,3305           20607                                    6
001412: 12,3306           77626                           STADR
001413: 12,3307           61041                           STODL    CSTH-RHO
001414: 12,3310           02673                                    GEOMSGN
001415: 12,3311           71240                           BMN      DLOAD
001416: 12,3312           25503                                    LOLIM
001417: 12,3313           02736                                    CSTH-RHO
001418: 12,3314           56352                           SL1      DDV
001419: 12,3315           02730                                    SNTH
001420: 12,3316           77600                           BOV
001421: 12,3317           25503                                    LOLIM
001422: 12,3320           00011        MINCOGA            STORE    COGAMIN                               #  COGAMIN (+5)
001423: 12,3321           66214                           BON      SSP
001424: 12,3322           00715                                    GUESSW
001425: 12,3323           25467                                    NOGUESS
001426: 12,3324           00051                                    TWEEKIT
001427: 12,3325           00001                                    00001
001428: 12,3326           77745                           DLOAD
001429: 12,3327           02766                                    COGA
001430:
001431: 12,3330           77605        LAMBLOOP           DMP
001432: 12,3331           02730                                    SNTH
001433: 12,3332           45342                           SR1      DSU
001434: 12,3333           02736                                    CSTH-RHO
001435: 12,3334           65301                           NORM     PDDL                                  #  0D=SNTH COGA-(CSTH-RHO) (+7+C(X1)) PL=2
001436: 12,3335           00047                                    X1
001437: 12,3336           02734                                    1-CSTH
001438: 12,3337           56257                           SL*      DDV                                   #  1-CSTH (+2)                   PL AT 0
001439: 12,3340           20170                                    0          -9D,1
001440: 12,3341           53040                           BMN      BZE
001441: 12,3342           25417                                    NEGP
001442: 12,3343           25417                                    NEGP
001443: 12,3344           16740                           STODL    P                                     #  P=(1-CSTH)/(SNTH COGA-(CSTH-RHO)) (+4)
001444: 12,3345           02766                                    COGA
001445: 12,3346           43316                           DSQ      DAD
001446: 12,3347           11045                                    D1/1024
001447: 12,3350           41301                           NORM     DMP
001448: 12,3351           00047                                    X1
001449: 12,3352           02740                                    P


001451: 12,3353           44257                           SR*      BDSU
001452: 12,3354           20571                                    0          -8D,1
001453: 12,3355           11043                                    D1/32
001454: 12,3356           16742                           STODL    R1A                                   #  R1A=2-P(1+COGA COGA) (+6)
001455: 12,3357           02740                                    P
001456: 12,3360           45000                           BOV      CALL
001457: 12,3361           25422                                    HIENERGY
001458: 12,3362           24767                                    GETX
001459: 12,3363           77745                           DLOAD
001460: 12,3364           00037                                    T
001461: 12,3365           16762                           STODL    TPREV
001462: 12,3366           00031                                    XI
001463: 12,3367           45014                           BON      CALL
001464: 12,3370           04310                                    INFINFLG
001465: 12,3371           25417                                    NEGP                                  #  HAVE EXCEEDED THEORETICAL BOUNDS
001466: 12,3372           24421                                    DELTIME
001467: 12,3373           44200                           BOV      BDSU
001468: 12,3374           25437                                    BIGTIME
001469: 12,3375           02671                                    TDESIRED
001470: 12,3376           02760                           STORE    TERRLAMB
001471: 12,3377           44246                           ABS      BDSU
001472: 12,3400           02764                                    EPSILONL
001473: 12,3401           47044                           BPL      RTB
001474: 12,3402           25506                                    INITV
001475: 12,3403           24644                                    CHECKCTR
001476: 12,3404           45030                           BHIZ     CALL
001477: 12,3405           25450                                    SUFFCHEK
001478: 12,3406           24536                                    ITERATOR
001479: 12,3407           53145                           DLOAD    BZE
001480: 12,3410           00155                                    MPAC
001481: 12,3411           25450                                    SUFFCHEK
001482: 12,3412           77615                           DAD
001483: 12,3413           02766                                    COGA
001484: 12,3414           02766                           STORE    COGA
001485: 12,3415           77650                           GOTO
001486: 12,3416           25330                                    LAMBLOOP
001487:
001488: 12,3417           51145        NEGP               DLOAD    BPL                                   #  IMPOSSIBLE TRAJECTORY DUE TO INACCURATE
001489: 12,3420           00015                                    DCOGA                                 #  BOUND CALCULATION. TRY NEW COGA.
001490: 12,3421           25442                                    LOENERGY
001491:
001492: 12,3422           71201        HIENERGY           SETPD    DLOAD                                 #  HIGH ENERGY TRAJECTORY RESULTED
001493: 12,3423           00001                                    0
001494: 12,3424           02766                                    COGA                                  #  IN OVFL OF P OR R1A, OR XI EXCEEDING 50.
001495: 12,3425           00011                           STORE    COGAMIN                               #  THIS IS THE NEW BOUND.
001496: 12,3426           70545        COMMONLM           DLOAD    SR1
001497: 12,3427           00015                                    DCOGA


001499: 12,3430           00015                           STORE    DCOGA                                 #  USE DCOGA/2 AS DECREMENT
001500: 12,3431           44254                           BZE      BDSU
001501: 12,3432           25450                                    SUFFCHEK
001502: 12,3433           02766                                    COGA
001503: 12,3434           02766                           STORE    COGA
001504: 12,3435           77650                           GOTO                                           #  RESTART THIS LOOP
001505: 12,3436           25330                                    LAMBLOOP
001506:
001507: 12,3437           77745        BIGTIME            DLOAD
001508: 12,3440           02762                                    TPREV
001509: 12,3441           00037                           STORE    T
001510:
001511: 12,3442           71201        LOENERGY           SETPD    DLOAD                                 #  LOW ENERGY TRAJECTORY RESULTED
001512: 12,3443           00001                                    0
001513: 12,3444           02766                                    COGA                                  #  IN OVERFLOW OF TIME.
001514: 12,3445           00017                           STORE    COGAMAX                               #  THIS IS THE NEW BOUND.
001515: 12,3446           77650                           GOTO
001516: 12,3447           25426                                    COMMONLM
001517:
001518: 12,3450           51545        SUFFCHEK           DLOAD    ABS
001519: 12,3451           02760                                    TERRLAMB
001520: 12,3452           41325                           PDDL     DMP                                   #                                PL AT 2D
001521: 12,3453           02671                                    TDESIRED
001522: 12,3454           11030                                    BEE17
001523: 12,3455           45215                           DAD      DSU                                   #                                PL AT 0D
001524: 12,3456           11057                                    ONEBIT
001525: 12,3457           43044                           BPL      SETGO
001526: 12,3460           25506                                    INITV
001527: 12,3461           02434                                    SOLNSW
001528: 12,3462           25506                                    INITV
001529: 12,3463           43001        360LAMB            SETPD    SETGO                                 #  LAMBERT CANNOT HANDLE CSTH=1
001530: 12,3464           00001                                    0
001531: 12,3465           02434                                    SOLNSW
001532: 12,3466           02710                                    RTNLAMB
001533:
001534: 12,3467           71331        NOGUESS            SSP      DLOAD
001535: 12,3470           00051                                    TWEEKIT
001536: 12,3471           10000                                    20000
001537: 12,3472           00011                                    COGAMIN
001538: 12,3473           65342                           SR1      PDDL                                  #                                PL AT 2
001539: 12,3474           00017                                    COGAMAX
001540: 12,3475           43342                           SR1      DAD
001541: 12,3476           77626                           STADR                                          #                                PL AT 0
001542: 12,3477           75011                           STORE    COGA
001543: 12,3500           00015                           STORE    DCOGA
001544: 12,3501           77650                           GOTO


001546: 12,3502           25330                                    LAMBLOOP
001547:
001548: 12,3503           52145        LOLIM              DLOAD    GOTO
001549: 12,3504           11063                                    COGLOLIM                              #  COGLOLIM=-.999511597
001550: 12,3505           25320                                    MINCOGA
001551:
001552: 12,3506           60345        INITV              DLOAD    NORM
001553: 12,3507           00041                                    R1
001554: 12,3510           00047                                    X1
001555: 12,3511           70525                           PDDL     SR1                                   #                                PL AT 2
001556: 12,3512           02740                                    P
001557: 12,3513           77671                           DDV                                            #                                PL AT 0
001558: 12,3514           75457                           SL*      SQRT
001559: 12,3515           20175                                    0          -4,1
001560: 12,3516           72405                           DMP      SL1
001561: 12,3517           00021                                    ROOTMU
001562: 12,3520           41206                           PUSH     DMP                                   #  0D=VTAN (+7)                  PL AT 2
001563: 12,3521           02766                                    COGA
001564: 12,3522           74261                           SL       VXSC
001565: 12,3523           20206                                    5
001566: 12,3524           02722                                    UR1
001567: 12,3525           77725                           PDDL                                           #  XCH WITH 0D                   PL AT 0,6
001568: 12,3526           76561                           VXSC     VSL1
001569: 12,3527           02674                                    UN
001570: 12,3530           53235                           VXV      VAD                                   #                                PL AT 0
001571: 12,3531           02722                                    UR1
001572: 12,3532           77772                           VSL1
001573: 12,3533           02744                           STORE    VVEC
001574: 12,3534           53135                           SLOAD    BZE
001575: 12,3535           02702                                    VTARGTAG
001576: 12,3536           25541                                    TARGETV
001577: 12,3537           77650                           GOTO
001578: 12,3540           02710                                    RTNLAMB
001579:
001580: 12,3541           45145        TARGETV            DLOAD    CALL
001581: 12,3542           02720                                    MAGVEC2
001582: 12,3543           24701                                    LAMENTER
001583: 12,3544           02703                           STORE    VTARGET
001584: 12,3545           77650                           GOTO
001585: 12,3546           02710                                    RTNLAMB
001586:


001588: 12,3547           40220        TIMERAD            STQ      SETPD                                 #                                PL AT 0
001589: 12,3550           02710                                    RTNTR
001590: 12,3551           00001                                    0
001591: 12,3552           77600                           BOV
001592: 12,3553           25554                                    +1
001593: 12,3554           63375                           VLOAD    PDVL                                  #                                PL AT 6
001594: 12,3555           02655                                    RVEC
001595: 12,3556           02744                                    VVEC
001596: 12,3557           77624                           CALL
001597: 12,3560           11064                                    PARAM
001598: 12,3561           71200                           BOV      DLOAD                                 #                                PL AT 0
001599: 12,3562           24764                                    COGAOVFL
001600: 12,3563           11043                                    D1/32
001601: 12,3564           41225                           DSU      DMP
001602: 12,3565           02742                                    R1A
001603: 12,3566           02740                                    P
001604: 12,3567           41366                           SQRT     DMP
001605: 12,3570           02766                                    COGA
001606: 12,3571           74212                           SL4      VXSC
001607: 12,3572           02712                                    U2
001608: 12,3573           45325                           PDDL     DSU                                   #                                PL AT 6
001609: 12,3574           11035                                    D1/64
001610: 12,3575           02742                                    R1A
001611: 12,3576           52361                           VXSC     VSU                                   #                                PL AT 0
001612: 12,3577           02722                                    UR1
001613: 12,3600           53512                           VSL4     UNIT
001614: 12,3601           77600                           BOV
001615: 12,3602           25660                                    CIRCULAR
001616: 12,3603           60325                           PDDL     NORM                                  #  0D=UNIT(ECC) (+3)             PL AT 6
001617: 12,3604           02756                                    RDESIRED                              #  36D=ECC (+3)
001618: 12,3605           00047                                    X1
001619: 12,3606           41325                           PDDL     DMP                                   #                                PL AT 8
001620: 12,3607           00041                                    R1
001621: 12,3610           02740                                    P
001622: 12,3611           56257                           SL*      DDV                                   #                                PL AT 6
001623: 12,3612           20201                                    0,1
001624: 12,3613           56225                           DSU      DDV
001625: 12,3614           11041                                    D1/16
001626: 12,3615           00045                                    36D                                   #  36D=ECC (+3)
001627: 12,3616           00031                           STORE    COSF
001628: 12,3617           63400                           BOV      DSQ
001629: 12,3620           25664                                    BADR2
001630: 12,3621           50021                           BDSU     BMN
001631: 12,3622           11037                                    D1/4
001632: 12,3623           25664                                    BADR2
001633: 12,3624           75366                           SQRT     SIGN
001634: 12,3625           02755                                    SGNRDOT
001635: 12,3626           77614                           CLEAR
001636: 12,3627           04272                                    APSESW


001638: 12,3630           76561        TERMNVEC           VXSC     VSL1
001639: 12,3631           02674                                    UN
001640: 12,3632           63235                           VXV      PDVL                                  #  VXCH WITH 0D                  PL AT 0,6
001641: 12,3633           00001                                    0D
001642: 12,3634           53361                           VXSC     VAD                                   #                                PL AT 0
001643: 12,3635           00031                                    COSF
001644: 12,3636           41572                           VSL1     PUSH                                  #  0D=U2                         PL AT 6
001645:
001646: 12,3637           56241                           DOT      DDV                                   #  LIMITS RESULT TO POSMAX OR NEGMAX
001647: 12,3640           02722                                    UR1
001648: 12,3641           25756                                    DP1/4
001649: 12,3642           40142                           SR1      BOV                                   #  SCALE BACK DOWN TO NORMAL
001650: 12,3643           25644                                    +1                                    #  CLEAR OVFIND IF SET
001651: 12,3644           26732                           STOVL    CSTH                                  #  CSTH (+1)
001652: 12,3645           02722                                    UR1
001653: 12,3646           76435                           VXV      VSL1
001654: 12,3647           72441                           DOT      SL1
001655: 12,3650           02674                                    UN
001656: 12,3651           16730                           STODL    SNTH                                  #  SNTH (+1)
001657: 12,3652           02740                                    P
001658: 12,3653           77624                           CALL
001659: 12,3654           24767                                    GETX
001660: 12,3655           77614                           CLRGO
001661: 12,3656           02634                                    SOLNSW
001662: 12,3657           24747                                    COMMNOUT
001663:
001664: 12,3660           43001        CIRCULAR           SETPD    SETGO
001665: 12,3661           00001                                    0
001666: 12,3662           02434                                    SOLNSW
001667: 12,3663           25742                                    ABTCONIC
001668:
001669: 12,3664           75345        BADR2              DLOAD    SIGN
001670: 12,3665           24005                                    LODPHALF
001671: 12,3666           00031                                    COSF
001672: 12,3667           14031                           STODL    COSF
001673: 12,3670           24007                                    KEPZERO
001674: 12,3671           77614                           SETGO
001675: 12,3672           04032                                    APSESW
001676: 12,3673           25630                                    TERMNVEC
001677:


001679: 12,3674           40220        APSIDES            STQ      SETPD                                 #                                PL AT 0
001680: 12,3675           02710                                    RTNAPSE
001681: 12,3676           00001                                    0D
001682: 12,3677           77600                           BOV
001683: 12,3700           25701                                    +1
001684: 12,3701           63375                           VLOAD    PDVL                                  #                                PL AT 6
001685: 12,3702           02655                                    RVEC
001686: 12,3703           02744                                    VVEC
001687: 12,3704           77624                           CALL
001688: 12,3705           11064                                    PARAM
001689: 12,3706           77600                           BOV                                            #                                PL AT 0
001690: 12,3707           25710                                    GETECC
001691: 12,3710           42405        GETECC             DMP      SL4
001692: 12,3711           02742                                    R1A
001693: 12,3712           75421                           BDSU     SQRT
001694: 12,3713           11035                                    D1/64
001695: 12,3714           02752                           STORE    ECC
001696: 12,3715           65215                           DAD      PDDL                                  #                                PL AT 2
001697: 12,3716           11031                                    D1/8
001698: 12,3717           00041                                    R1
001699: 12,3720           72405                           DMP      SL1
001700: 12,3721           02740                                    P
001701: 12,3722           77671                           DDV                                            #                                PL AT 0
001702: 12,3723           60325                           PDDL     NORM                                  #  0D=RP (+29 OR +27)            PL AT 2
001703: 12,3724           02742                                    R1A
001704: 12,3725           00047                                    X1
001705: 12,3726           53725                           PDDL     SL*                                   #                                PL AT 4
001706: 12,3727           00041                                    R1
001707: 12,3730           20174                                    0          -5,1
001708: 12,3731           45271                           DDV      DSU                                   #                                PL AT 2,0
001709: 12,3732           50000                           BOV      BMN
001710: 12,3733           25737                                    INFINAPO
001711: 12,3734           25737                                    INFINAPO
001712: 12,3735           77650                           GOTO
001713: 12,3736           02710                                    RTNAPSE
001714: 12,3737           52145        INFINAPO           DLOAD    GOTO                                  #  RETURNS WITH APOAPSIS IN MPAC, PERIAPSIS
001715: 12,3740           24020                                    LDPOSMAX
001716: 12,3741           02710                                    RTNAPSE                               #  THAT PL IS AT 0.
001717:


001719: 12,3742           77776        ABTCONIC           EXIT
001720: 12,3743           05652                           TC       POODOO
001721: 12,3744           00607                           OCT      00607
001722:


001724: 12,3745  12,2017               LDPOSMAX           EQUALS   LODPMAX                               #  DPPOSMAX IN LOW MEMORY.
001725:
001726:                                                                                                  #  ERASABLE ASSIGNMENTS
001727:
001728:                                                                                                  #  KEPLER SUBROUTINE
001729:
001730:                                                                                                  #        INPUT -
001731:                                                                                                  #  RRECT         ERASE   +5
001732:                                                                                                  #  VRECT         ERASE   +5
001733:                                                                                                  #  TAU.          ERASE   +1


001735:                                                                                                  #  XKEP          ERASE   +1
001736:                                                                                                  #  TC            ERASE   +1
001737:                                                                                                  #  XPREV         ERASE   +1
001738: 12,3745                        1/MU               EQUALS   14D
001739: 12,3745                        ROOTMU             EQUALS   16D
001740: 12,3745                        1/ROOTMU           EQUALS   18D
001741:
001742:                                                                                                  #        OUTPUT -
001743:                                                                                                  #  RCV           ERASE   +5
001744:                                                                                                  #  VCV           ERASE   +5


001746:                                                                                                  #  RC            ERASE   +1
001747:                                                                                                  #  XPREV         ERASE   +1
001748:
001749:                                                                                                  #        DEBRIS -
001750: 12,3745                        ALPHA              EQUALS   8D
001751: 12,3745                        XMAX               EQUALS   10D
001752: 12,3745                        XMIN               EQUALS   12D
001753: 12,3745                        X                  EQUALS   20D
001754: 12,3745                        XI                 EQUALS   24D
001755: 12,3745                        S(XI)              EQUALS   26D
001756: 12,3745                        XSQC(XI)           EQUALS   28D
001757: 12,3745                        T                  EQUALS   30D
001758: 12,3745                        R1                 EQUALS   32D
001759: 12,3745                        KEPC1              EQUALS   34D
001760: 12,3745                        KEPC2              EQUALS   36D
001761:                                                                                                  #  DELX          ERASE   +1
001762:                                                                                                  #  DELT          ERASE   +1
001763:                                                                                                  #  URRECT        ERASE   +5
001764:                                                                                                  #  RCNORM        ERASE   +1
001765:                                                                                                  #  XPREV         EQUALS  XKEP
001766:
001767:
001768:                                                                                                  #  LAMBERT SUBROUTINE
001769:
001770:                                                                                                  #        INPUT -
001771:                                                                                                  #  R1VEC         ERASE   +5
001772:                                                                                                  #  R2VEC         ERASE   +5
001773:                                                                                                  #  TDESIRED      ERASE   +1
001774:                                                                                                  #  GEOMSGN       ERASE   +0
001775:                                                                                                  #  GUESSW                        0 IF COGA GUESS AVAILABLE, 1 IF NOT


001777:                                                                                                  #  COGA          ERASE   +1      INPUT ONLY IF GUESSW IS ZERO.
001778:                                                                                                  #  NORMSW                        0 IF UN TO BE COMPUTED, 1 IF UN INPUT
001779:                                                                                                  #  UN            ERASE   +5      ONLY USED IF NORMSW IS 1
001780:                                                                                                  #  VTARGTAG      ERASE   +0
001781:                                                                                                  #  TWEEKIT       EQUALS  40D     ONLY USED IF GUESSW IS 0
001782:
001783:                                                                                                  #        OUTPUT -
001784:                                                                                                  #  VTARGET       ERASE   +5      AVAILABLE ONLY IF VTARGTAG IS ZERO.
001785:                                                                                                  #  V1VEC         EQUALS  MPAC
001786:
001787:                                                                                                  #        DEBRIS -
001788:                                                                                                  #  RTNLAMB       ERASE   +0
001789:                                                                                                  #  U2            ERASE   +5
001790:                                                                                                  #  MAGVEC2       ERASE   +1
001791:                                                                                                  #  UR1           ERASE   +5


001793:                                                                                                  #  R1            EQUALS  31D
001794:                                                                                                  #  UN            ERASE   +5
001795:                                                                                                  #  SNTH          ERASE   +1
001796:                                                                                                  #  CSTH          ERASE   +1
001797:                                                                                                  #  1-CSTH        ERASE   +1
001798:                                                                                                  #  CSTH-RHO      ERASE   +1
001799: 12,3745                        COGAMAX            EQUALS   14D                                   #  CLOBBERS 1/MU
001800: 12,3745                        COGAMIN            EQUALS   8D
001801: 12,3745                        DCOGA              EQUALS   12D
001802:                                                                                                  #  TWEEKIT       EQUALS  40D
001803:                                                                                                  #  P             ERASE   +1
001804:                                                                                                  #  COGA          ERASE   +1
001805:                                                                                                  #  R1A           ERASE   +1
001806:                                                                                                  #  X             EQUALS  20D
001807:                                                                                                  #  XSQ           EQUALS  22D
001808:                                                                                                  #  XI            EQUALS  24D
001809:                                                                                                  #  S(XI)         EQUALS  26D
001810:                                                                                                  #  XSQC(XI)      EQUALS  28D
001811:                                                                                                  #  T             EQUALS  30D
001812:                                                                                                  #  KEPC1         EQUALS  34D
001813:                                                                                                  #  KEPC2         EQUALS  36D
001814:                                                                                                  #  SLOPESW
001815:                                                                                                  #  SOLNSW
001816:
001817:                                                                                                  #        OTHERS -
001818:                                                                                                  #  RVEC          EQUALS  R1VEC
001819:                                                                                                  #  VVEC          ERASE   +5
001820:                                                                                                  #  COGAFLAG
001821:                                                                                                  #  RVSW
001822:                                                                                                  #  INFINFLG
001823:                                                                                                  #  APSESW
001824:                                                                                                  #  360SW
001825:                                                                                                  #  RTNTT         EQUALS  RTNLAMB
001826:                                                                                                  #  ECC           ERASE   +1
001827:                                                                                                  #  RTNTR         EQUALS  RTNLAMB


001829:                                                                                                  #  RTNAPSE       EQUALS  RTNLAMB
001830:                                                                                                  #  R2            EQUALS  MAGVEC2
001831: 12,3745                        COSF               EQUALS   24D
001832:                                                                                                  #  RTNPRM        ERASE   +0
001833:                                                                                                  #  SCNRDOT       ERASE   +0
001834:                                                                                                  #  RDESIRED      ERASE   +1
001835:
001836:
001837:                                                                                                  #  ITERATOR SUBROUTINE
001838:                                                                                                  #  ORDERSW
001839: 12,3745                        MAX                EQUALS   14D                                   #  CLOBBERS 1/MU
001840: 12,3745                        MIN                EQUALS   8D


001842:                                                                                                  #  INDEP         ERASE   +1
001843: 12,3745                        DELINDEP           EQUALS   12D
001844: 12,3745                        ITERCTR            EQUALS   22D
001845: 12,3745                        DEP                EQUALS   30D


001847:                                                                                                  #  DELDEP        ERASE   +1


001849:                                                                                                  #  DEPREV        ERASE   +1
001850: 12,3745                        TWEEKIT            EQUALS   40D
001851:
001852:
001853:                                                                                                  #  MORE KEPLER
001854:                                                                                                  #  EPSILONT      ERASE   +1
001855:
001856:
001857:                                                                                                  #  MORE LAMBERT
001858:                                                                                                  #  TERRLAMB      EQUALS  DELDEP
001859:                                                                                                  #  TPREV         EQUALS  DEPREV
001860:
001861:                                                                                                  #  EPSILONL      EQUALS  EPSILONT +2     DOUBLE PRECISION WORD

End of include-file CONIC_SUBROUTINES.agc.  Parent file is MAIN.agc


