
Source Code


000002:                                                                                                  ## Copyright:   Public domain.
000003:                                                                                                  ## Filename:    DAP_INTERFACE_SUBROUTINES.agc
000004:                                                                                                  ## Purpose:     Part of the source code for Luminary 1A build 099.
000005:                                                                                                  ##              It is part of the source code for the Lunar Module's (LM)
000006:                                                                                                  ##              Apollo Guidance Computer (AGC), for Apollo 11.
000007:                                                                                                  ## Assembler:   yaYUL
000008:                                                                                                  ## Contact:     Ron Burkey <info@sandroid.org>.
000009:                                                                                                  ## Website:     www.ibiblio.org/apollo.
000010:                                                                                                  ## Pages:       1406-1409
000011:                                                                                                  ## Mod history: 2009-05-10 SN   (Sergio Navarro).  Started adapting
000012:                                                                                                  ##                              from the Luminary131/ file of the same
000013:                                                                                                  ##                              name, using Luminary099 page images.
000014:                                                                                                  ##              2011-01-06 JL   Fixed pseudo-label indentation.
000015:                                                                                                  ##              2016-12-18 RSB  Proofed text comments with octopus/ProoferComments
000016:                                                                                                  ##                              and corrected the errors found.
000017:                                                                                                  ##              2017-03-03 RSB  Snapshot of Luminary 99 Rev 1.
000018:


000020: 20,2123                                           BANK     20
000021: 20,2000                                           SETLOC   DAPS3
000022: 20,2000                                           BANK
000023:
000024: 20,2123  E6,1635                                  EBANK=   CDUXD
000025: 20,2123                                           COUNT*   $$/DAPIF
000026:
000027:                                                                                                  #  MOD 0         DATE    11/15/66        BY GEORGE W. CHERRY
000028:                                                                                                  #  MOD 1                  1/23/67        MODIFICATION BY PETER ADLER
000029:
000030:                                                                                                  #  FUNCTIONAL DESCRIPTION
000031:                                                                                                  #        HEREIN ARE A COLLECTION OF SUBROUTINES WHICH ALLOW MISSION CONTROL PROGRAMS TO CONTROL THE MODE
000032:                                                                                                  #        AND INTERFACE WITH THE DAP.
000033:
000034:                                                                                                  #  CALLING SEQUENCES
000035:                                                                                                  #        IN INTERRUPT OR WITH INTERRUPT INHIBITED
000036:                                                                                                  #                TC      IBNKCALL
000037:                                                                                                  #                FCADR   ROUTINE
000038:                                                                                                  #        IN A JOB WITHOUT INTERRUPT INHIBITED
000039:                                                                                                  #                INHINT
000040:                                                                                                  #                TC      IBNKCALL
000041:                                                                                                  #                FCADR   ROUTINE
000042:                                                                                                  #                RELINT
000043:
000044:                                                                                                  #  OUTPUT
000045:                                                                                                  #        SEE INDIVIDUAL ROUTINES BELOW
000046:
000047:                                                                                                  #  DEBRIS
000048:                                                                                                  #        A, L, AND SOMETIMES MDUETEMP                    ODE     NOT IN PULSES MODE
000049:


000051:                                                                                                  #  SUBROUTINE NAMES:
000052:                                                                                                  #        SETMAXDB, SETMINDB, RESTORDB, PFLITEDB
000053:                                                                                                  #  MODIFIED:     30 JANUARY 1968 BY P S WEISSMAN TO CREATE RESTORDB.
000054:                                                                                                  #  MODIFIED:     1 MARCH 1968 BY P S WEISSMAN TO SAVE EBANK AND CREATE PFLITEDB
000055:
000056:                                                                                                  #  FUNCTIONAL DESCRIPTION:
000057:                                                                                                  #        SETMAXDB - SET DEADBAND TO 5.0 DEGREES
000058:                                                                                                  #        SETMINDB - SET DEADBAND TO 0.3 DEGREE
000059:                                                                                                  #        RESTORDB - SET DEADBAND TO MAX OR MIN ACCORDING TO SETTING OF DBSELECT BIT OF DAPBOOLS
000060:                                                                                                  #        PFLITEDB - SET DEADBAND TO 1.0 DEGREE AND ZERO THE COMMANDED ATTITUDE CHANGE AND COMMANDED RATE
000061:
000062:                                                                                                  #        ALL ENTRIES SET UP A NOVAC JOB TO DO 1/ACCS SO THAT THE TJETLAW SWITCH CURVES ARE POSITIONED TO
000063:                                                                                                  #        REFLECT THE NEW DEADBAND.  IT SHOULD BE NOTED THAT THE DEADBAND REFERS TO THE ATTITUDE IN THE P-, U-, AND V-AXES.
000064:
000065:                                                                                                  #  SUBROUTINE CALLED:    NOVAC
000066:
000067:                                                                                                  #  CALLING SEQUENCE:     SAME AS ABOVE
000068:                                                                                                  #                        OR      TC RESTORDB +1    FROM ALLCOAST
000069:
000070:                                                                                                  #  DEBRIS:               A, L, Q, RUPTREG1, (ITEMPS IN NOVAC)
000071:
000072: 20,2123           30111        RESTORDB           CAE      DAPBOOLS                              #  DETERMINE CREW-SELECTED DEADBAND.
000073: 20,2124           74750                           MASK     DBSELECT
000074: 20,2125           00006                           EXTEND
000075: 20,2126           12140                           BZF      SETMINDB
000076:
000077: 20,2127           32151        SETMAXDB           CAF      WIDEDB                                #  SET 5 DEGREE DEADBAND.
000078: 20,2130           55346                 +1        TS       DB
000079:
000080: 20,2131           00006                           EXTEND                                         #  SET UP JOB TO RE-POSITION SWITCH CURVES.
000081: 20,2132           22070                           QXCH     RUPTREG1
000082: 20,2133           37715        CALLACCS           CAF      PRIO27
000083: 20,2134           05072                           TC       NOVAC
000084: 20,2135  E6,1537                                  EBANK=   AOSQ
000085: 20,2135           02454 40106                     2CADR    1/ACCJOB
000086:
000087: 20,2137           00070                           TC       RUPTREG1                              #  RETURN TO CALLER.
000088:
000089: 20,2140           32150        SETMINDB           CAF      NARROWDB                              #  SET 0.3 DEGREE DEADBAND.
000090: 20,2141           12130                           TCF      SETMAXDB   +1
000091:
000092: 20,2142           00006        PFLITEDB           EXTEND                                         #  THE RETURN FROM CALLACCS IS TO RUPTREG1.
000093: 20,2143           22070                           QXCH     RUPTREG1
000094: 20,2144           02153                           TC       ZATTEROR                              #  ZERO THE ERRORS AND COMMANDED RATES.
000095: 20,2145           32152                           CAF      POWERDB                               #  SET DB TO 1.0 DEG.
000096: 20,2146           55346                           TS       DB
000097: 20,2147           12133                           TCF      CALLACCS                              #  SET UP 1/ACCS AND RETURN TO CALLER.
000098: 20,2150           00155        NARROWDB           OCTAL    00155                                 #  0.3 DEGREE SCALED AT 45.


000100: 20,2151           03434        WIDEDB             OCTAL    03434                                 #  5.0 DEGREES SCALED AT 45.
000101: 20,2152           00554        POWERDB            DEC      .02222                                #  1.0 DEGREE SCALED AT 45.
000102:
000103: 20,2153           35015        ZATTEROR           CAF      EBANK6
000104: 20,2154           56003                           XCH      EBANK
000105: 20,2155           54001                           TS       L                                     #  SAVE CALLERS EBANK IN L.
000106: 20,2156           30032                           CAE      CDUX
000107: 20,2157           55635                           TS       CDUXD
000108: 20,2160           30033                           CAE      CDUY
000109: 20,2161           55636                           TS       CDUYD
000110: 20,2162           30034                           CAE      CDUZ
000111: 20,2163           55637                           TS       CDUZD
000112: 20,2164           12170                           TCF      STOPRATE   +3
000113:
000114: 20,2165           35015        STOPRATE           CAF      EBANK6
000115: 20,2166           56003                           XCH      EBANK
000116: 20,2167           54001                           TS       L                                     #  SAVE CALLERS EBANK IN L.
000117: 20,2170           34755                 +3        CAF      ZERO
000118: 20,2171           55643                           TS       OMEGAPD
000119: 20,2172           55644                           TS       OMEGAQD
000120: 20,2173           55645                           TS       OMEGARD
000121: 20,2174           55640                           TS       DELCDUX
000122: 20,2175           55641                           TS       DELCDUY
000123: 20,2176           55642                           TS       DELCDUZ
000124: 20,2177           55277                           TS       DELPEROR
000125: 20,2200           55300                           TS       DELQEROR
000126: 20,2201           55301                           TS       DELREROR
000127: 20,2202           22003                           LXCH     EBANK                                 #  RESTORE CALLERS EBANK.
000128: 20,2203           00002                           TC       Q
000129:
000130:                                                                                                  #  SUBROUTINE NAME:      ALLCOAST
000131:                                                                                                  #  WILL BE CALLED BY FRESH STARTS AND ENGINE OFF ROUTINES.               -
000132:
000133:                                                                                                  #  CALLING SEQUENCE:     (SAME AS ABOVE)
000134:
000135:                                                                                                  #  EXIT:                 RETURN TO Q.
000136:
000137:                                                                                                  #  SUBROUTINES CALLED:   STOPRATE, RESTORDB, NOVAC
000138:
000139:                                                                                                  #  ZERO:                 (FOR ALL AXES) AOS, ALPHA, AOSTERM, OMEGAD, DELCDU, DELEROR
000140:
000141:                                                                                                  #  OUTPUT:               DRIFTBIT/DAPBOOLS, DB, JOB TO DO 1/ACCS
000142:
000143:                                                                                                  #  DEBRIS:               A, L, Q, RUPTREG1, RUPTREG2, (ITEMPS IN NOVAC)
000144:
000145: 20,2204           00006        ALLCOAST           EXTEND                                         #  SAVE Q FOR RETURN
000146: 20,2205           22071                           QXCH     RUPTREG2


000148: 20,2206           02165                           TC       STOPRATE                              #  CLEAR RATE INTERFACE.  RETURN WITH A=0
000149: 20,2207           22003                           LXCH     EBANK                                 #  AND L=EBANK6.  SAVE CALLERS EBANK.
000150: 20,2210           55537                           TS       AOSQ
000151: 20,2211           55540                           TS       AOSQ       +1
000152: 20,2212           55541                           TS       AOSR
000153: 20,2213           55542                           TS       AOSR       +1
000154: 20,2214           55424                           TS       ALPHAQ                                #  FOR DOWNLIST.
000155: 20,2215           55425                           TS       ALPHAR
000156: 20,2216           55545                           TS       AOSQTERM
000157: 20,2217           55546                           TS       AOSRTERM
000158: 20,2220           22003                           LXCH     EBANK                                 #  RESTORE EBANK (EBANK6 NO LONGER NEEDED)
000159:
000160: 20,2221           40111                           CS       DAPBOOLS                              #  SET UP DRIFTBIT
000161: 20,2222           74744                           MASK     DRIFTBIT
000162: 20,2223           26111                           ADS      DAPBOOLS
000163: 20,2224           02124                           TC       RESTORDB   +1                         #  RESTORE DEADBANK TO CREW-SELECTED VALUE.
000164:
000165: 20,2225           00071                           TC       RUPTREG2                              #  RETURN.
000166:

End of include-file DAP_INTERFACE_SUBROUTINES.agc.  Parent file is MAIN.agc


