
Source Code


000002:                                                                                                  ## Copyright:   Public domain.
000003:                                                                                                  ## Filename:    DISPLAY_INTERFACE_ROUTINES.agc
000004:                                                                                                  ## Purpose:     Part of the source code for Luminary 1A build 099.
000005:                                                                                                  ##              It is part of the source code for the Lunar Module's (LM)
000006:                                                                                                  ##              Apollo Guidance Computer (AGC), for Apollo 11.
000007:                                                                                                  ## Assembler:   yaYUL
000008:                                                                                                  ## Contact:     Ron Burkey <info@sandroid.org>.
000009:                                                                                                  ## Website:     www.ibiblio.org/apollo.
000010:                                                                                                  ## Pages:       1341-1373
000011:                                                                                                  ## Mod history: 2009-05-27 RSB  Adapted from the corresponding
000012:                                                                                                  ##                              Luminary131 file, using page
000013:                                                                                                  ##                              images from Luminary 1A.
000014:                                                                                                  ##              2011-01-06 JL   Fixed pseudo-label indentation.
000015:                                                                                                  ##              2011-05-08 JL   Removed workaround.
000016:                                                                                                  ##              2016-12-18 RSB  Proofed text comments with octopus/ProoferComments
000017:                                                                                                  ##                              and corrected the errors found.
000018:                                                                                                  ##              2017-03-03 RSB  Snapshot of Luminary 99 Rev 1.
000019:


000021:                                                                                                  #  DISPLAYS CAN BE CLASSIFIED INTO THE FOLLOWING CATEGORIES -
000022:                                                                                                  #        1.  PRIORITY DISPLAYS - DISPLAYS WHICH TAKE PRIORITY OVER ALL OTHER DISPLAYS.  USUALLY THESE DISPLAYS ARE SENT
000023:                                                                                                  #            OUT UNDER CRITICAL ALARM CONDITIONS.
000024:                                                                                                  #        2.  EXTENDED VERB DISPLAYS - ALL EXTENDED VERBS AND MARK ROUTINES SHOULD USE EXTENDED VERB (MARK) DISPLAYS.
000025:                                                                                                  #        3.  NORMAL DISPLAYS - ALL MISSION PROGRAM DISPLAYS WHICH INTERFACE WITH THE ASTRONAUT DURING THE NORMAL
000026:                                                                                                  #            SEQUENCE OF EVENTS.
000027:                                                                                                  #        4.  MISC. DISPLAYS - ALL DISPLAYS NOT HANDLED BY THE DISPLAY INTERFACE ROUTINES.  THESE INCLUDE SUCH DISPLAYS AS
000028:                                                                                                  #            MM DISPLAYS AND SPECIAL PURPOSE DISPLAYS HANDLED BY PINBALL.
000029:                                                                                                  #        5.  ASTRONAUT INITIATED DISPLAYS - ALL DISPLAYS INITIATED EXTERNALLY.
000030:
000031:                                                                                                  #  THE FOLLOWING TERMS ARE USED TO DESCRIBE THE STATUS OF DISPLAYS -
000032:                                                                                                  #        1.  ACTIVE - THE DISPLAY WHICH IS (1) BEING DISPLAYED TO THE ASTRONAUT AND WAITING FOR A RESPONSE OR
000033:                                                                                                  #            (2) WAITING FIRST IN LINE FOR THE ASTRONAUT TO FINISH USING THE DSKY OR (3) BEING DISPLAYED ON THE DSKY
000034:                                                                                                  #            BUT NOT WAITING FOR A RESPONSE.
000035:                                                                                                  #        2.  INACTIVE - A DISPLAY WHICH HAS (1) BEEN ACTIVE BUT WAS INTERRUPTED BY A DISPLAY OF HIGHER PRIORITY,
000036:                                                                                                  #            (2) BEEN PUT INTO THE WAITING LIST AT TIME IT WAS REQUESTED DUE TO THE FACT A HIGHER PRIORITY DISPLAY
000037:                                                                                                  #            WAS ALREADY GOING, (3) BEEN INTERRUPTED BY THE ASTRONAUT (CALLED A PINBRANCH CONDITION, SINCE THIS TYPE
000038:                                                                                                  #            OF INACTIVE DISPLAY IS USUALLY REACTIVATED ONLY BY PINBALL) OR (4) A DISPLAY WHICH HAS FINISHED BUT STILL
000039:                                                                                                  #            HAS INFO SAVED FOR RESTART PURPOSES.
000040:
000041:                                                                                                  #  DISPLAY PRIORITIES WORK AS FOLLOWS -
000042:                                                                                                  #        INTERRUPTS -
000043:                                                                                                  #                1.  THE ASTRONAUT CAN INTERRUPT ANY DISPLAY WITH AN EXTERNAL DISPLAY REQUEST.
000044:                                                                                                  #                2.  INTERNAL DISPLAYS CAN NOT BE SENT OUT WHEN THE ASTRONAUT IS USING THE DSKY.
000045:                                                                                                  #                3.  PRIORITY DISPLAYS INTERRUPT ALL OTHER TYPES OF INTERNAL DISPLAYS.  A PRIORITY DISPLAY INTERRUPTING ANOTHER
000046:                                                                                                  #                    PRIORITY DISPLAY WILL CAUSE AN ABORT UNLESS BIT14 IS SET FOR THE LINUS ROUTINE.
000047:                                                                                                  #                4.  A MARK DISPLAY INTERRUPTS ANY NORMAL DISPLAY.
000048:                                                                                                  #                5.  A MARK THAT INTERRUPTS A MARK COMPLETELY REPLACES IT.
000049:
000050:                                                                                                  #        ORDER OF WAITING DISPLAYS -
000051:                                                                                                  #                1.  ASTRONAUT EXTERNAL USE
000052:                                                                                                  #                2.  PRIORITY
000053:                                                                                                  #                3.  INTERRUPTED MARK
000054:                                                                                                  #                4.  INTERRUPTED NORMAL
000055:                                                                                                  #                5.  MARK TO BE REQUESTED (SEE DESCRIPTION OF ENDMARK)
000056:                                                                                                  #                6.  MARK WAITING
000057:                                                                                                  #                7.  NORMAL WAITING
000058:


000060:                                                                                                  #  THE DISPLAY ROUTINES ARE INTENDED TO SERVE AS AN INTERFACE BETWEEN THE USER AND PINBALL.  THE
000061:                                                                                                  #  FOLLOWING STATEMENTS CAN BE MADE ABOUT NORMAL DISPLAYS AND PRIORITY DISPLAYS (A DESCRIPTION OF MARK ROUTINES
000062:                                                                                                  #  WILL FOLLOW LATER):
000063:                                                                                                  #        1.  ALL ROUTINES THAT END IN R HAVE AN IMMEDIATE RETURN TO THE USER.  FOR ALL FLASHING DISPLAYS THIS RETURN
000064:                                                                                                  #            IS TO THE USERS CALL CADR +4.  FOR THE ONLY NON FLASHING IMMEDIATE RETURN DISPLAY (GODSPR) THIS RETURN
000065:                                                                                                  #            IS TO THE USERS CALLING LOC +1.
000066:                                                                                                  #        2.  ALL ROUTINES NOT ENDING IN R DO NOT DO AN IMMEDIATE RETURN TO THE USER.
000067:                                                                                                  #        3.  ALL ROUTINES THAT END IN R START A SEPARATE JOB (MAKEPLAY) WITH USERS JOB PRIORITY.
000068:                                                                                                  #        4.  ALL ROUTINES NOT ENDING IN R BRANCH DIRECTLY TO MAKEPLAY WHICH MAKES THESE DISPLAYS A PART OF THE
000069:                                                                                                  #            USERS JOB.
000070:                                                                                                  #        5.  ALL DISPLAY ROUTINES ARE CALLED VIA BANKCALL.
000071:                                                                                                  #        6.  TO RESTART A DISPLAY THE USER WILL GENERALLY USE A PHASE OF ONE WITH DESIRED RESTART GROUP (SEE
000072:                                                                                                  #            DESCRIPTION OF RESTARTS).
000073:                                                                                                  #        7.  ALL FLASHING DISPLAYS HAVE 3 RETURNS TO THE USER FROM ASTRONAUT RESPONSES.  A TERMINATE (V34) BRANCHES
000074:                                                                                                  #            TO THE USERS CALL CADR +1.  A PROCEED (V33) BRANCHES TO THE USERS CALL CADR +2.  AN ENTER OR RECYCLE
000075:                                                                                                  #            (V32) BRANCHES TO THE USERS CALL CADR +3.
000076:                                                                                                  #        8.  ALL ROUTINES MUST BE USED UNDER EXECUTIVE CONTROL.
000077:
000078:                                                                                                  #  A DESCRIPTION OF EACH ROUTINE WITH AN EXAMPLE FOLLOWS:
000079:                                                                                                  #        GODSP IS USED TO DISPLAY A VERB NOUN ARRIVING IN A.  NO RETURN IS MADE TO THE USER.
000080:                                                                                                  #                1.  GODSP IS NOT RESTARTABLE
000081:                                                                                                  #                2.  A VERB PASTE WITH GODSP ALWAYS TURNS ON THE FLASH.
000082:                                                                                                  #                                CAF     VXXNYY
000083:                                                                                                  #                                TC      BANKCALL
000084:                                                                                                  #                                CADR    GODSP
000085:                                                                                                  #                        VXXNYY  OCT     0XXYY
000086:                                                                                                  #        GODSPR IS THE SAME AS GODSP ONLY RETURN IS TO THE USER.
000087:                                                                                                  #                                CAF     VXXNYY
000088:                                                                                                  #                                TC      BANKCALL
000089:                                                                                                  #                                CADR    GODSPR
000090:                                                                                                  #                                ...     ...             IMMEDIATE RETURN OF GODSPR
000091:                                                                                                  #        GOFLASH DISPLAYS A FLASHING VERB NOUN WITH NO IMMEDIATE RETURN TO THE USER.  3 RETURNS ARE POSSIBLE FROM
000092:                                                                                                  #        THE ASTRONAUT (SEE NO. 7 ABOVE).
000093:                                                                                                  #                                CAF     VXXNYY          VXX NYY WILL BE A FLASHING VERB NOUN.
000094:                                                                                                  #                                TC      BANKCALL
000095:                                                                                                  #                                CADR    GOFLASH
000096:                                                                                                  #                                ...     ...             TERMINATE RETURN
000097:                                                                                                  #                                ...     ...             PROCEED RETURN
000098:                                                                                                  #                                ...     ...             ENTER OR RECYCLE RETURN
000099:                                                                                                  #        GOPERF1 IS ENTERED WITH DESIRED CHECKLIST VALUE IN A.  GOPERF1 WILL DISPLAY THIS VALUE IN R1 BY MEANS OF A


000101:                                                                                                  #        V01 N25.  A FLASHING PLEASE PERFORM ON CHECKLIST (V50 N25) IS THEN DISPLAYED.  NO IMMEDIATE RETURN IS MADE TO
000102:                                                                                                  #        USER (SEE NO. 7 ABOVE).
000103:                                                                                                  #        GOPERF1 BLANKS REGISTERS R2 AND R3
000104:                                                                                                  #                                CAF     OCTXX           CODE FOR CHECKLIST VALUE XX
000105:                                                                                                  #                                TC      BANKCALL
000106:                                                                                                  #                                CADR    GOPERF1
000107:                                                                                                  #                                ...     ...             TERMINATE RETURN
000108:                                                                                                  #                                ...     ...             PROCEED RETURN
000109:                                                                                                  #                                ...     ...             ENTER RETURN
000110:                                                                                                  #        GOPERF2 IS ENTERED WITH A VARIABLE NOUN AND V01 (V00 FOR N10 OR N11) IN A.  GOPERF2 WILL FIRST DISPLAY THE
000111:                                                                                                  #        REQUESTED NOUN BY MEANS OF A V01NYY OR A V00NYY.  PLEASE PERFORM ON NOUN (V50 NYY) THEN BECOMES A FLASHING
000112:                                                                                                  #        DISPLAY.  NO IMMEDIATE RETURN IS MADE TO THE USER (SEE NO. 7 ABOVE).
000113:                                                                                                  #        GOPERF2 DOES NOT BLANK ANY REGISTERS
000114:                                                                                                  #                                CAF     VXXNYY          VARIABLE NOUN YY. XX=00 OR 01.
000115:                                                                                                  #                                TC      BANKCALL
000116:                                                                                                  #                                CADR    GOPERF2
000117:                                                                                                  #                                ...     ...             TERMINATE RETURN
000118:                                                                                                  #                                ...     ...             PROCEED RETURN
000119:                                                                                                  #                                ...     ...             ENTER RETURN
000120:                                                                                                  #        GOPERF3 IS USED FOR A PLEASE PERFORM ON A PROGRAM NUMBER.  THE DESIRED PROGRAM NO. IS ENTERED IN A.  GOPERF3
000121:                                                                                                  #        DISPLAYS THE NO. BY MEANS OF A V06 N07 FOLLOWED BY A FLASHING V50 N07 FOR A PLEASE PERFORM.  NO IMMEDIATE RETURN
000122:                                                                                                  #        IS MADE TO THE USER (SEE NO. 7 ABOVE).
000123:                                                                                                  #        GOPERF3 BLANKS REGISTERS R2 AND R3
000124:                                                                                                  #                                CAF     DECXX           REQUEST PERFORM ON PXX
000125:                                                                                                  #                                TC      BANKCALL
000126:                                                                                                  #                                CADR    GOPERF3
000127:                                                                                                  #                                ...     ...             TERMINATE RETURN
000128:                                                                                                  #                                ...     ...             PROCEED RETURN
000129:                                                                                                  #                                ...     ...             ENTER RETURN
000130:                                                                                                  #        GOPERF4 IS USED FOR A PLEASE PERFORM ON AN OPTION.  THE DESIRED OPTION IS ENTERED IN A AND STORED IN OPTION1.
000131:                                                                                                  #        GOPERF4 DISPLAYS R1 AND R2 BY MEANS OF A V04N06 FOLLOWED BY A FLASHING V50N06 FOR A PLEASE PERFORM.  NO
000132:                                                                                                  #        IMMEDIATE RETURN IS MADE TO THE USER (SEE NO. 7 ABOVE).
000133:                                                                                                  #                                CAF     OCTXX           REQUEST PERFORM ON OPTION XX
000134:                                                                                                  #                                TC      BANKCALL
000135:                                                                                                  #                                CADR    GOPERF4
000136:                                                                                                  #                                ...     ...             TERMINATE RETURN
000137:                                                                                                  #                                ...     ...             PROCEED RETURN
000138:                                                                                                  #                                ...     ...             ENTER RETURN
000139:                                                                                                  #        GOPERF4 BLANKS REGISTER R3


000141:                                                                                                  #        GODSPRET IS USED TO DISPLAY A VERB NOUN ARRIVING IN A WITH A RETURN TO THE USER AFTER THE DISPLAY HAS BEEN SENT
000142:                                                                                                  #        OUT.
000143:                                                                                                  #                                CAF     VXXNYY
000144:                                                                                                  #                                TC      BANKCALL
000145:                                                                                                  #                                CADR    GODSPRET
000146:                                                                                                  #                                ...     ...             RETURN TO USER
000147:                                                                                                  #        REGODSP IS USED TO DISPLAY A VERB NOUN ARRIVING IN A.  REGODSP IS THE SAME AS GODSP ONLY REGODSP REPLACES ANY
000148:                                                                                                  #        ACTIVE NORMAL DISPLAY IF ONE WAS ACTIVE.
000149:                                                                                                  #                                CAF     VXXNYY
000150:                                                                                                  #                                TC      BANKCALL
000151:                                                                                                  #                                CADR    REGODSP
000152:                                                                                                  #        REFLASH IS THE SAME AS GOFLASH ONLY REFLASH REPLACES ANY ACTIVE NORMAL DISPLAY IF ONE WAS ACTIVE.
000153:                                                                                                  #                                CAF     VXXNYY          VXX NYY WILL BE A FLASHING VERB NOUN
000154:                                                                                                  #                                TC      BANKCALL
000155:                                                                                                  #                                CADR    REFLASH
000156:                                                                                                  #                                ...     ...             TERMINATE RETURN
000157:                                                                                                  #                                ...     ...             PROCEED RETURN
000158:                                                                                                  #                                ...     ...             ENTER RETURN
000159:                                                                                                  #        GOFLASHR IS SAME AS GOFLASH ONLY AN IMMEDIATE RETURN IS MADE TO THE USERS CALL CADR +4.
000160:                                                                                                  #                                CAF     VXXNYY
000161:                                                                                                  #                                TC      BANKCALL
000162:                                                                                                  #                                CADR    GOFLASHR
000163:                                                                                                  #                                ...     ...             TERMINATE RETURN
000164:                                                                                                  #                                ...     ...             PROCEED RETURN
000165:                                                                                                  #                                ...     ...             ENTER OR RECYCLE RETURN
000166:                                                                                                  #                                ...     ...             IMMEDIATE RETURN FROM GOFLASHR
000167:                                                                                                  #        GOPERF1R IS THE SAME AS GOPERF1 ONLY GOPERF1R HAS AN IMMEDIATE RETURN TO USERS CALL CADR +4.
000168:                                                                                                  #        GOPERF1R BLANKS REGISTERS R2 AND R3
000169:                                                                                                  #                                CAF     OCTXX           CODE FOR CHECKLIST VALUE XX.
000170:                                                                                                  #                                TC      BANKCALL
000171:                                                                                                  #                                CADR    GOPERF1R
000172:                                                                                                  #                                ...     ...             TERMINATE RETURN
000173:                                                                                                  #                                ...     ...             PROCEED RETURN
000174:                                                                                                  #                                ...     ...             ENTER RETURN
000175:                                                                                                  #                                ...     ...             IMMEDIATE RETURN FROM GOPERF1R
000176:                                                                                                  #        GOPERF2R IS THE SAME AS GOPERF2 ONLY AN IMMEDIATE RETURN IS MADE TO USERS CALL CADR +4.


000178:                                                                                                  #        GOPERF2R DOES NOT BLANK ANY REGISTERS
000179:                                                                                                  #                                CAF     VXXNYY          VARIABLE NOUN YY REQUESTED.  XX=00 OR 01
000180:                                                                                                  #                                TC      BANKCALL
000181:                                                                                                  #                                CADR    GOPERF2R
000182:                                                                                                  #                                ...     ...             TERMINATE RETURN
000183:                                                                                                  #                                ...     ...             PROCEED RETURN
000184:                                                                                                  #                                ...     ...             ENTER RETURN
000185:                                                                                                  #                                ...     ...             IMMEDIATE RETURN HERE FROM GOPERF2R
000186:                                                                                                  #        GOPERF3R IS THE SAME AS GOPERF3 ONLY AN IMMEDIATE RETURN IS MADE TO USERS CALL CADR +4.
000187:                                                                                                  #        GOPERF3R BLANKS REGISTERS R2 AND R3
000188:                                                                                                  #                                CAF     PROGXX          PERFORM PROGRAM XX
000189:                                                                                                  #                                TC      BANKCALL
000190:                                                                                                  #                                CADR    GOPERF3R
000191:                                                                                                  #                                ...     ...             TERMINATE RETURN
000192:                                                                                                  #                                ...     ...             PROCEED RETURN
000193:                                                                                                  #                                ...     ...             ENTER RETURN
000194:                                                                                                  #                                ...     ...             GOPERF3R IMMEDIATELY RETURNS HERE
000195:                                                                                                  #        GOPERF4R IS THE SAME AS GOPERF4 ONLY AN IMMEDIATE RETURN IS MADE TO USERS CALL CADR +4.
000196:                                                                                                  #                                CAF     OCTXX           REQUEST PERFORM ON OPTIONXX
000197:                                                                                                  #                                TC      BANKCALL
000198:                                                                                                  #                                CADR    GOPERF4R
000199:                                                                                                  #                                ...     ...             TERMINATE RETURN
000200:                                                                                                  #                                ...     ...             PROCEED RETURN
000201:                                                                                                  #                                ...     ...             ENTER RETURN
000202:                                                                                                  #                                ...     ...             IMMEDIATE RETURN TO USER
000203:                                                                                                  #        GOPERF4R BLANKS REGISTER R3
000204:                                                                                                  #        REFLASHR IS THE SAME AS REFLASH ONLY AN IMMEDIATE RETURN IS MADE TO THE USERS CALL CADR +4.
000205:                                                                                                  #                                CAF     VXXNYY          VXX NYY WILL BE A FLASHING VERB NOUN
000206:                                                                                                  #                                TC      BANKCALL
000207:                                                                                                  #                                CADR    REFLASHR
000208:                                                                                                  #                                ...     ...             TERMINATE RETURN
000209:                                                                                                  #                                ...     ...             PROCEED RETURN
000210:                                                                                                  #                                ...     ...             ENTER RETURN
000211:                                                                                                  #                                ...     ...             IMMEDIATE RETURN TO USER
000212:                                                                                                  #        REGODSPR IS THE SAME AS REGODSP ONLY A RETURN (IMMEDIATE) IS MADE TO THE USER.


000214:                                                                                                  #                                CAF     VXXNYY
000215:                                                                                                  #                                TC      BANKCALL
000216:                                                                                                  #                                CADR    REGODSPR
000217:                                                                                                  #                                ...     ...             IMMEDIATE RETURN TO USER


000219:                                                                                                  #        GOMARK IS USED TO DISPLAY A MARK VERB NOUN ARRIVING IN A.  NO RETURN IS MADE TO THE USER.
000220:                                                                                                  #        GOXDSP = GOMARK
000221:                                                                                                  #                                CAF     VXXNYY          VXXNYY CONTAINS VERB AND NOUN
000222:                                                                                                  #                                TC      BANKCALL
000223:                                                                                                  #                                CADR    GOMARK          OTHER EXTENDED VERBS USE CADR GOXDSP
000224:                                                                                                  #        GOMARKR IS THE SAME AS GOMARK ONLY RETURN IS TO THE USER.
000225:                                                                                                  #        GOXDSPR = GOMARKR
000226:                                                                                                  #                                CAF     VXXNYY
000227:                                                                                                  #                                TC      BANKCALL
000228:                                                                                                  #                                CADR    GOMARKR         OTHER EXTENDED VERBS USE CADR GOXDSPR
000229:                                                                                                  #                                ...     ...             IMMEDIATE RETURN OF GOMARKR
000230:                                                                                                  #        GOMARKF DISPLAYS A FLASHING MARK VERB NOUN WITH NO IMMEDIATE RETURN TO THE USER.  3 RETURNS ARE POSSIBLE FROM
000231:                                                                                                  #        THE ASTRONAUT (SEE NO. 7 ABOVE).
000232:                                                                                                  #        GOXDSPF = GOMARKF
000233:                                                                                                  #                                CAF     VXXNYY          VXXNYY WILL BE A FLASHING MARK VERB NOUN
000234:                                                                                                  #                                TC      BANKCALL
000235:                                                                                                  #                                CADR    GOMARKF         OTHER EXTENDED VERBS USE CADR GOXDSPF
000236:                                                                                                  #                                ...     ...             TERMINATE RETURN
000237:                                                                                                  #                                ...     ...             PROCEED RETURN
000238:                                                                                                  #                                ...     ...             ENTER OR RECYCLE RETURN
000239:                                                                                                  #        GOMARKFR IS THE SAME AS GOMARKF ONLY AN IMMEDIATE RETURN IS MADE TO THE USER CALL CADR +4.
000240:                                                                                                  #        GOXDSPFR = GOMARKFR
000241:                                                                                                  #                                CAF     VXXNYY          FLASHING MARK VERB NOUN
000242:                                                                                                  #                                TC      BANKCALL
000243:                                                                                                  #                                CADR    GOMARKFR        OTHER EXTENDED VERBS USE CADR GOXDSPFR
000244:                                                                                                  #                                ...     ...             TERMINATE RETURN
000245:                                                                                                  #                                ...     ...             PROCEED RETURN
000246:                                                                                                  #                                ...     ...             ENTER OR RECYCLE RETURN
000247:                                                                                                  #                                ...     ...             IMMEDIATE RETURN TO THE USER
000248:                                                                                                  #        GOMARK1 IS USED FOR A PLEASE PERFORM ON A MARK REQUEST WITH ONLY 1 ASTRONAUT RETURN TO THE USER.  NO IMMEDIATE
000249:                                                                                                  #        RETURN IS MADE.  THE DESIRED MARK PLEASE PERFORM VERB AND DESIRED NOUN IS ENTERED IN A.  GOMARK1 DISPLAYS R1, R2, R
000250:                                                                                                  #        MEANS OF A V05NYY FOLLOWED BY A FLASHING V5XNYY FOR A PLEASE PERFORM.  THE ASTRONAUT WILL RESPOND WITH A MARK
000251:                                                                                                  #        OR MARK REJECT OR AN ENTER.  THE ENTER IS THE ONLY ASTRONAUT RESPONSE THAT WILL COME BACK TO THE USER.
000252:                                                                                                  #                                CAF     V5XNYY          X=1,2,3,4       Y=NOUN
000253:                                                                                                  #                                TC      BANKCALL


000255:                                                                                                  #                                CADR    GOMARK1
000256:                                                                                                  #                                ...     ...             ENTER RETURN
000257:                                                                                                  #        *** IF BLANKING DESIRED ON NON R ROUTINES, NOTIFY DISPLAYER.
000258:
000259:                                                                                                  #        GOMARK1R IS THE SAME AS A GOMARK1 ONLY AN IMMEDIATE RETURN IS MADE TO THE USERS CALL CADR +2.
000260:                                                                                                  #                                CAF     V5XNYY          X=1,2,3,4       YY=NOUN
000261:                                                                                                  #                                TC      BANKCALL
000262:                                                                                                  #                                CADR    GOMARK1R
000263:                                                                                                  #                                ...     ...             ASTRONAUT ENTER RETURN
000264:                                                                                                  #                                ...     ...             IMMEDIATE RETURN TO USER
000265:                                                                                                  #        GOMARK2 IS THE SAME AS GOMARK1 ONLY 3 RETURNS ARE MADE TO THE USER FROM THE ASTRONAUT.
000266:                                                                                                  #                                CAF     V5XNYY          X=1,2,3,4       YY=NOUN
000267:                                                                                                  #                                TC      BANKCALL
000268:                                                                                                  #                                CADR    GOMARK2
000269:                                                                                                  #                                ...     ...             TERMINATE RETURN
000270:                                                                                                  #                                ...     ...             PROCEED RETURN
000271:                                                                                                  #                                ...     ...             ENTER RETURN
000272:                                                                                                  #        GOMARK2R IS THE SAME AS GOMARK1R ONLY 3 ASTRONAUT RETURNS ARE MADE TO THE USER.
000273:                                                                                                  #                                CAF     V5XNYY          X=0,1,2,3,4     YY=NOUN
000274:                                                                                                  #                                TC      BANKCALL
000275:                                                                                                  #                                CADR    GOMARK2R
000276:                                                                                                  #                                ...     ...             TERMINATE RETURN
000277:                                                                                                  #                                ...     ...             PROCEED RETURN
000278:                                                                                                  #                                ...     ...             ENTER RETURN
000279:                                                                                                  #                                ...     ...             IMMEDIATE RETURN TO THE USER
000280:                                                                                                  #        GOMARK3 IS USED FOR A PLEASE PERFORM ON A MARK REQUEST WITH A 3 COMP. DEC DISPLAY.  THE DESIRED MARK PLEASE
000281:                                                                                                  #        PERFORM VERB AND NOUN ARE ENTERED IN A.  GOMARK3 DISPLAYS R1, R2, R3 BY MEANS OF A V06NYY FOLLOWED BY A FLASHING
000282:                                                                                                  #        V5XNYY FOR A PLEASE PERFORM.  GOMARK3 HAS 3 ASTRONAUT RETURNS TO THE USER WITH NO IMMEDIATE RETURN.
000283:                                                                                                  #                                CAF     V5XNYY          X=1,2,3,4       YY=NOUN
000284:                                                                                                  #                                TC      BANKCALL
000285:                                                                                                  #                                CADR    GOMARK3
000286:                                                                                                  #                                ...     ...             TERMINATE RETURN
000287:                                                                                                  #                                ...     ...             PROCEED RETURN
000288:                                                                                                  #                                ...     ...             ENTER RETURN
000289:                                                                                                  #        GOMARK4 IS THE SAME AS GOMARK3 ONLY R2 AND R3 ARE BLANKED AND R1 IS DISPLAYED IN OCTAL.
000290:                                                                                                  #                                CAF     V5XNYY          X=1,2,3,4       YY=NOUN
000291:                                                                                                  #                                TC      BANKCALL
000292:                                                                                                  #                                CADR    GOMARK4
000293:                                                                                                  #                                ...     ...             TERMINATE RETURN
000294:                                                                                                  #                                ...     ...             PROCEED RETURN


000296:                                                                                                  #                        ...     ...                     ENTER RETURN
000297:                                                                                                  #        EXDSPRET IS USED TO DISPLAY A VERB NOUN ARRIVING IN A WITH A RETURN MADE TO THE USER AFTER THE DISPLAY HAS BEEN
000298:                                                                                                  #        SENT OUT.
000299:                                                                                                  #                                CAF     VXXNYY
000300:                                                                                                  #                                TC      BANKCALL
000301:                                                                                                  #                                CADR    EXDSPRET
000302:                                                                                                  #                                ...     ...             RETURN TO USER
000303:                                                                                                  #        KLEENEX CLEANS OUT ALL MARK DISPLAYS (ACTIVE AND INACTIVE). A RETURN IS MADE TO THE USER AFTER THE MARK DISPLAYS
000304:                                                                                                  #        HAVE BEEN CLEANED OUT.
000305:                                                                                                  #                                TC      BANKCALL
000306:                                                                                                  #                                CADR    KLEENEX
000307:                                                                                                  #                                ...     ...             RETURN TO USER
000308:                                                                                                  #        MARKBRAN IS A SPECIAL PURPOSE ROUTINE USED FOR SAVING JOB VAC AREAS (SEE DESCRIPTION OF MARKBRAN BELOW).
000309:                                                                                                  #                                TC      BANKCALL
000310:                                                                                                  #                                CADR    MARKBRAN
000311:                                                                                                  #                                ...     ...             BAD RETURN IF MARK DISPLAY NOT ACTIVE
000312:                                                                                                  #                                                        (GOOD RETURN TO IMMEDIATE RETURN LOC OF
000313:                                                                                                  #                                                        LAST FLASHING MARK R ROUTINE)
000314:                                                                                                  #        PINBRNCH REESTABLISHES THE LAST ACTIVE FLASHING DISPLAY.  IF THERE IS NO ACTIVE FLASHING DISPLAY, THE DSKY IS
000315:                                                                                                  #        BLANKED AND CONTROL IS SENT TO ENDOFJOB.
000316:                                                                                                  #                                TC      POSTJUMP
000317:                                                                                                  #                                CADR    PINBRNCH
000318:                                                                                                  #        PRIODSP IS USED AS A PRIORITY DISPLAY.  IT WILL DISPLAY A GOFLASH TYPE DISPLAY WITH THREE POSSIBLE RETURNS FROM
000319:                                                                                                  #        THE ASTRONAUT (SEE NO. 7 ABOVE).
000320:                                                                                                  #        THE MAIN PURPOSE OF PRIODSP IS TO REPLACE THE PRESENT DISPLAY WITH A DISPLAY OF HIGHER PRIORITY AND TO
000321:                                                                                                  #        PROVIDE A MEANS FOR RESTORING THE OLD DISPLAY WHEN THE PRIORITY DISPLAY
000322:                                                                                                  #        IS RESPONDED TO BY THE ASTRONAUT.
000323:                                                                                                  #        THE FORMER DISPLAY IS RESTORED BY AN AUTOMATIC BRANCH TO WAKE UP THE DISPLAY THAT WAS INTERRUPTED BY THE
000324:                                                                                                  #        PRIO DISPLAY.
000325:                                                                                                  #                                CAF     VXXNYY          VXXNYY WILL BE A FLASHING VERB NOUN
000326:                                                                                                  #                                TC      BANKCALL
000327:                                                                                                  #                                CADR    PRIODSP
000328:                                                                                                  #                                ...     ...             TERMINATE RETURN
000329:                                                                                                  #                                ...     ...             PROCEED RETURN


000331:                                                                                                  #                                ...     ...             ENTER OR RECYCLE RETURN
000332:                                                                                                  #        PRIODSPR IS THE SAME AS PRIODSP ONLY AN IMMEDIATE RETURN IS MADE TO THE USERS CALL CADR +4.
000333:                                                                                                  #                                CAF     VXXNYY          VXXNYY WILL BE A FLASHING VERB NOUN
000334:                                                                                                  #                                TC      BANKCALL
000335:                                                                                                  #                                CADR    PRIODSPR
000336:                                                                                                  #                                ...     ...             TERMINATE RETURN
000337:                                                                                                  #                                ...     ...             PROCEED RETURN
000338:                                                                                                  #                                ...     ...             ENTER OR RECYCLE RETURN
000339:                                                                                                  #                                ...     ...             IMMEDIATE RETURN
000340:                                                                                                  #        PRIOLARM DOES A V05N09 PRIODSPR.
000341:
000342:                                                                                                  #        CLEANDSP CLEANS OUT ALL NORMAL DISPLAYS (ACTIVE AND INACTIVE).  A RETURN IS MADE TO THE USER AFTER NORMAL
000343:                                                                                                  #        DISPLAYS ARE CLEANED OUT.
000344:                                                                                                  #                                TC      BANKCALL
000345:                                                                                                  #                                CADR    CLEANDSP
000346:                                                                                                  #                                ...     ...             RETURN TO USER


000348:
000349:                                                                                                  #  GENERAL INFORMATION
000350:                                                                                                  #  -------------------
000351:
000352:                                                                                                  #  ALARM OR ABORT EXIT MODES --
000353:                                                                                                  #        PRIOBORT        TC      ABORT
000354:                                                                                                  #                        OCT     1502
000355:
000356:                                                                                                  #        PRIOBORT IS BRANCED TO WHEN (1) A NORMAL DISPLAY IS REQUESTED AND ANOTHER NORMAL DISPLAY IS ALREADY ACTIVE
000357:                                                                                                  #        (REFLASH AND REGODSP ARE EXCEPTIONS) OR (2) A PRIORITY DISPLAY IS REQUESTED WHEN ANOTHER PRIORITY DISPLAY IS
000358:                                                                                                  #        ALREADY ACTIVE (A PRIORITY WITH LINUS BIT14 IS AN EXCEPTION).
000359:
000360:                                                                                                  #  ERASABLE INITIALIZATION REQUIRED --
000361:                                                                                                  #        ACCOMPLISHED BY FRESH START -   1.  FLAGWRD4 (USED EXCLUSIVELY BY DISPLAY INTERFACE ROUTINES)
000362:                                                                                                  #                                        2.  NVSAVE = NORMAL VERB AND NOUN REGISTER.
000363:                                                                                                  #                                        3.  EBANKTEM = NORMAL INACTIVE FLAGWORD (ALSO CONTAINS NORMALS EBANK).
000364:                                                                                                  #                                        5.  R1SAVE = MARKBRAN CONTROL WORD
000365:                                                                                                  #                                        4.  RESTREG = PRIORITY 30 AND SUPERBANK 3.
000366:
000367:                                                                                                  #  OUTPUT --
000368:                                                                                                  #        NVWORD = PRIO VERB AND NOUN
000369:                                                                                                  #        NVWORD +1 (MARKNV) = MARK VERB AND NOUN
000370:                                                                                                  #        NVWORD +2 (NVSAVE) = NORMAL VERB AND NOUN
000371:                                                                                                  #        DSPFLG (EBANKSAV) = PRIO FLAGWORD (INCLUDING EBANK)
000372:                                                                                                  #        DSPFLG +1 (MARKEBAN) = MARK FLAGWORD (INCLUDING EBANK)
000373:                                                                                                  #        DSPFLG +2 (EBANKTEM) = NORMAL FLAGWORD (INCLUDIG EBANK)
000374:
000375:                                                                                                  #        CADRFLSH = PRIO USERS CALL CADR +1 LOCATION
000376:                                                                                                  #        CADRFLSH +1 (MARKFLSH) = MARK USERS CALL CADR +1 LOCATION
000377:                                                                                                  #        CADRFLSH +2 (TEMPFLSH) = NORMAL USERS CALL CADR +1 LOCATION
000378:                                                                                                  #        PRIOTIME = TIME EACH PRIO REQUEST FIRST SENT OUT
000379:                                                                                                  #        OPTION1 = DESIRED OPTION FROM GOPERF4
000380:                                                                                                  #        FLAGWRD4 = BIT INFO FOR CONTROL OF ALL DISPLAY ROUTINES
000381:                                                                                                  #        DSPTEM1 = R1 INFO FOR ASTRONAUT FROM PERFORM DISPLAYS (NORMAL)
000382:
000383:                                                                                                  #  SUBROUTINES USED -- NVSUB, FLAGUP, FLAGDOWN, ENDOFJOB, BLANKSUB, ABORT, JOBWAKE, JOBSLEEP, FINDVAC, PRIOCHNG,
000384:                                                                                                  #        JAMTERM, NVSUBUSY, FLASHON, ENDIDLE, CHANG1, BANKJUMP, MAKECADR, NOVAC.
000385:
000386:                                                                                                  #  DEBRIS -- (STORED INTO)
000387:                                                                                                  #        TEMPORARY TEMPORARIES - A, Q, L, MPAC +2, MPAC +3, MPAC +4, MPAC +5, MPAC +6, RUPTREG2, RUPTREG3, CYL,
000388:                                                                                                  #                EBANK, RUPTREG4, LOC, BANKSET, MODE, MPAC, MPAC +1          4, FACEREG
000389:                                                                                                  #        ERASABES (SHARED AND USED WITH OTHER PROGRAMS) CADRSTOR, DSPLIST, LOC, DSPTEM1, OPTION1
000390:                                                                                                  #        ERASABLES (USED ONLY BY DISPLAY ROUTINES) - NVWORD,+1,+2, DSPFLG,+1,+2, CADRFLSH,+1,+2, PRIOTIME, FLAGWRD4,


000392:                                                                                                  #                R1SAVE, MARK2PAC.
000393:
000394:                                                                                                  #  DEBRIS -- (USED BUT NOT STORED INTO) - NOUNREG, VERBREG, LOCCTR, MONSAVE1
000395:
000396:                                                                                                  #  FLAGWORD DESCRIPTIONS --
000397:                                                                                                  #        FLAGWRD4 - SEE DESCRIPTION UNDER LOG SECTION ERASABLE ASSIGNMENTS
000398:
000399:                                                                                                  #        DSPFLG, DSPFLG+1, DSPFLG +2-
000400:                                                                                                  #        ----------------------------
000401:                                                                                                  #        BITS 1  BLANK R1
000402:                                                                                                  #             2  BLANK R2
000403:                                                                                                  #             3  BLANK R3
000404:                                                                                                  #             4  FLASHING DISPLAY REQUESTED
000405:                                                                                                  #             5  PERFORM DISPLAY REQUESTED
000406:                                                                                                  #             6  -----                   EXDSPRET                GODSPRET
000407:                                                                                                  #             7  PRIO DISPLAY            -----                   -----
000408:                                                                                                  #             8  -----                   DEC MARK PERFORM        -----
000409:                                                                                                  #             9  EBANK
000410:                                                                                                  #            10  EBANK
000411:                                                                                                  #            11  EBANK
000412:                                                                                                  #            12  -----                   -----                   V99PASTE
000413:                                                                                                  #            13  2ND PART OF PERFORM
000414:                                                                                                  #            14  REFLASH OR REDO         -----                   REFLASH OR REDO
000415:                                                                                                  #            15  -----                   MARK REQUEST            -----
000416:
000417:                                                                                                  #  RESTARTING DISPLAYS --
000418:
000419:                                                                                                  #  RULES FOR THE DSKY OPERATOR --
000420:                                                                                                  #        1.  PROCEED AND TERMINATE SERVE AS RESPONSES TO REQUESTS FOR OPERATOR RESPONSE (FLASHING V/N).  AS LONG
000421:                                                                                                  #            AS THERE IS ANY REQUEST AWAITING OPERATOR RESPONSE, ANY USE OF PROCEED OR TERMINATE WILL SERVE AS
000422:                                                                                                  #            RESPONSES TO THAT REQUEST.  CARE SHOULD BE EXERCISED IN ATTEMPTING TO KILL AN OPERATOR INITIATED MONITOR
000423:                                                                                                  #            WITH PROCEED AND TERMINATE FOR THIS REASON.
000424:                                                                                                  #        2.  THE ASTRONAUT MUST RESPOND TO A PRIORITY DISPLAY NO SOONER THAN 2 SECONDS FROM THE TIME THE
000425:                                                                                                  #            PROGRAM SENT OUT THE REQUEST FOR OPERATOR RESPONSE (THE ASTRONAUT WOULD SEE THIS DISPLAY FOR LESS TIME
000426:                                                                                                  #            DUE TO TIME IT TAKES TO GET DISPLAY SENT OUT.)  IF THE ASTRONAUT RESPONDS TOO SOON, THE PRIORITY DISPLAY
000427:                                                                                                  #             IS SENT OUT AGAIN -- AND AGAIN UNTIL AN ACCUMULATED 2 SECS      FROM THE TIME THE FIRST PRIORITY DISPLAY
000428:                                                                                                  #            OUT.  THE SAME 2 SEC. DELAY WILL OCCUR AT 163.84 SECS OR IN ANY MULTIPLE OF THAT TIME DUE TO PROGRAM
000429:                                                                                                  #            CONSIDERATION.
000430:                                                                                                  #        3.  KEY RELEASE BUTTON -
000431:                                                                                                  #            A)  IF THE KEY RELEASE LIGHT IS ON, IT SIMPLY RELEASES THE KEYBOARD AND DISPLAY FOR INTERNAL USE.
000432:                                                                                                  #            B)  IF THE KEY RELEASE LIGHT IS OFF, AND IF SOME REQUEST FOR OPERATOR RESPONSE (FLASHING V/N) IS STILL
000433:                                                                                                  #                AWAITING RESPONSE THEN IT RE-ESTABLISHES THE DISPLAYS THAT ORIGINALLY REQUESTED RESPONSE.
000434:                                                                                                  #            IF AN OPERATOR WANTS THEREFORE TO RE-ESTABLISH BUT CONDITION (A) IS ENCOUNTERED, A SECOND DEPRESSION OF
000435:                                                                                                  #            KEY RELEASE BUTTON MAY BE NECESSARY.
000436:                                                                                                  #        4.  IT IS IMPORTANT TO ANSWER ALL REQUESTS FOR OPERATOR RESPONSE.
000437:                                                                                                  #        5.  IT IS ALWAYS GOOD PRACTICE TO TERMINATE AN EXTENDED VERB BEFORE ASKING FOR ANOTHER ONE OR THE SAME ONE
000438:                                                                                                  #            OVER AGAIN.
000439:
000440:                                                                                                  #  SPECIAL CONSIDERATIONS--


000442:                                                                                                  #        1.  MPAC +2 SAVED ONLY IN MARK DISPLAYS
000443:                                                                                                  #        2.  GODSP(R), REGODSP(R), GOMARK(R) ALWAYS TURN ON THE FLASH IF ENTERED WITH A PASTE VERB REQUEST.
000444:                                                                                                  #        3.  ALL NORMAL DISPLAYS ARE RESTARTABLE EXCEPT GODSP(R), REGODSP(R)
000445:                                                                                                  #        4.  ALL EXTENDED VERBS WITH DISPLAYS SHOULD START WITH A TC TESTXACT AND FINISH WITH A TC ENDEXT.
000446:                                                                                                  #        5.  GODSP(R) AND REGODSP(R) MUST BE IN THE SAME EBANK AND SUPERBANK AS THE LAST NORMAL DISPLAY RESTARTED
000447:                                                                                                  #            BY A .1 RESTART PHASE CHANGE.
000448:                                                                                                  #        6.  IN ORDER TO SET UP A NON DISPLAY .1 RESTART POINT, THE USER MUST MAKE CERTAIN THAT RESTREG CONTAINS THE
000449:                                                                                                  #            CORRECT PRIORITY AND SUPERBANK AND THAT EBANKTEM CONTAINS THE CO
000450:                                                                                                  #        7.  IF CLEANDSP IS RESTARTED VIA A .1 PHASE CHANGE, CAF ZERO SHOULD BE EXECUTED BEFORE THE TC BANKCALL.
000451:


000453:                                                                                                  #  CALLING SEQUENCE FOR BLANKING
000454:                                                                                                  #                CAF     BITX            X=1,2,3 BLANK R1,R2,R3 RESPECTIVELY
000455:                                                                                                  #                TC      BLANKET
000456:                                                                                                  #                ...     ...             RETURN TO USER HERE
000457:                                                                                                  #  IN ORDER TO USE BLANKET CORRECTLY THE USER MUST USE A DISPLAY ROUTINE THAT ENDS IN R FIRST FOLLOWED BY THE CALL
000458:                                                                                                  #  TO BLANKET AT THE IMMEDIATE RETURN LOC.
000459:    5464                                           BLOCK    02
000460:    4000                                           SETLOC   FFTAG4
000461:    4000                                           BANK
000462:
000463:    5464                                           COUNT*   $$/DSPLA
000464:    5464           54162        BLANKET            TS       MPAC       +6
000465:    5465           40160                           CS       PLAYTEM4
000466:    5466           70162                           MASK     MPAC       +6
000467:    5467           50161                           INDEX    MPAC       +5
000468:    5470           26160                           ADS      PLAYTEM4
000469:
000470:    5471           00002                           TC       Q
000471:
000472:    5472           04635        ENDMARK            TC       POSTJUMP
000473:    5473           20326                           CADR     MARKEND
000474:
000475:    5474           34755        CLEARMRK           CAF      ZERO
000476:    5475           55044                           TS       EXTVBACT
000477:
000478:    5476           00004                 +2        INHINT
000479:    5477           44753                           CS       XDSPBIT
000480:    5500           70100                           MASK     FLAGWRD4
000481:    5501           54100                           TS       FLAGWRD4
000482:
000483:    5502           00003                           RELINT
000484:    5503           00002                           TC       Q
000485:
000486:                                                                                                  #  *** ALL EXTENDED VERB ROUTINES THAT HAVE AT LEAST ONE FLASHING DISPLAY MUST TCF ENDMARK OR TCF ENDEXT WHEN
000487:                                                                                                  #  FINISHED.
000488:
000489: 10,2326                                           BANK     10
000490: 10,2000                                           SETLOC   DISPLAYS
000491: 10,2000                                           BANK
000492:
000493: 10,2326                                           COUNT*   $$/DSPLA
000494:
000495:                                                                                                  #  NTERONLY IS USED TO DIFFERENTIATE THE MARK ROUTINE WITH ONLY ONE RETURN TO THE USER FROM THE MARKING ROUTINE WIT
000496:                                                                                                  #  3 RETURNS TO THE USER.  THIS ROUTINE IS ONLY USED BY GOMARK1 AND GOMARK1R.
000497:
000498: 10,2326           05474        MARKEND            TC       CLEARMRK
000499: 10,2327           13421                           TCF      MARKOVER
000500:
000501: 10,2330           54155        GOMARK             TS       PLAYTEM1                              #  ENTRANCE FOR MARK GODSP


000503: 10,2331           34735        GOMARS             CAF      BIT15                                 #  BIT15 SET FOR ALL MARK REQUESTS
000504: 10,2332           12500                           TCF      GOFLASH2
000505:
000506: 10,2333           34755        KLEENEX            CAF      ZERO                                  #  CLEAN OUT EXTENDED VERBS
000507: 10,2334           54155        GOMARKF            TS       PLAYTEM1                              #  ENTRANCE FOR MARK GOFLASH
000508:
000509: 10,2335           33031                           CAF      MARKFMSK                              #  MARK, FLASH
000510: 10,2336           12500                           TCF      GOFLASH2
000511:
000512: 10,2337           54155        GOMARK2            TS       PLAYTEM1                              #  MARK GOPERFS-3 AST. RETURNS
000513: 10,2340           33520        MARKFORM           CAF      MPERFMSK                              #  MARK, PERFORM, FLASH
000514: 10,2341           12500                           TCF      GOFLASH2
000515:
000516: 10,2342           54155        GOMARK3            TS       PLAYTEM1                              #  USED FOR 3COMP DECIMAL PERFORM
000517: 10,2343           33505                           CAF      MARK3MSK
000518: 10,2344           12500                           TCF      GOFLASH2
000519:
000520: 10,2345           54155        GOMARK4            TS       PLAYTEM1
000521: 10,2346           33506                           CAF      MARK4MSK                              #  MARK,PERFORM,FLASH,BLANK
000522: 10,2347           12500                           TCF      GOFLASH2
000523:
000524: 10,2350           54155        GOMARKR            TS       PLAYTEM1                              #  ENTR+NCE FOR MARK GODSPR
000525:
000526: 10,2351           34735                           CAF      BIT15
000527: 10,2352           12453                           TCF      GODSPR2
000528:
000529: 10,2353           54155        GOMARKFR           TS       PLAYTEM1                              #  ENTRANCE FOR MARK GOFLASHR
000530:
000531: 10,2354           33031                           CAF      MARKFMSK
000532: 10,2355           12637                           TCF      GODSPRS
000533:
000534: 10,2356           54155        GOMARK2R           TS       PLAYTEM1                              #  MARK GOPERFS-3 AST. RETS+ IMMEDIATE RET.
000535: 10,2357           33520                           CAF      MPERFMSK                              #  MARK, PERFORM, FLASH
000536: 10,2360           12637                           TCF      GODSPRS
000537:
000538: 10,2361           54155        GOMARK3R           TS       PLAYTEM1
000539: 10,2362           33505                           CAF      MARK3MSK
000540: 10,2363           12637                           TCF      GODSPRS
000541:
000542: 10,2364           34753        MAKEMARK           CAF      ONE
000543: 10,2365           02735                           TC       COPIES
000544:
000545: 10,2366           30100                           CA       FLAGWRD4                              #  IS NORM OR PRIO BUSY OR WAITING
000546: 10,2367           73521                           MASK     OCT34300
000547: 10,2370           10000                           CCS      A
000548: 10,2371           12427                           TCF      CHKPRIO
000549:
000550: 10,2372           30100                           CA       FLAGWRD4                              #  IS MARK SLEEPING DUE TO ASTRO BUSY
000551: 10,2373           74743                           MASK     MRKNVBIT
000552:
000553: 10,2374           00006                           EXTEND


000555: 10,2375           12377                           BZF      MARKPLAY                              #  NO
000556:
000557: 10,2376           15155                           TCF      ENDOFJOB
000558:
000559: 10,2377           00004        MARKPLAY           INHINT
000560: 10,2400           44756                           CS       FIVE                                  #  RESET MARK OVER NORM, SET MARK
000561: 10,2401           70100                           MASK     FLAGWRD4
000562: 10,2402           64753                           AD       ONE
000563: 10,2403           54100                           TS       FLAGWRD4
000564: 10,2404           00003                           RELINT
000565:
000566: 10,2405           41071        GOGOMARK           CS       MARKFLAG                              #  PERFORM
000567: 10,2406           74747                           MASK     BIT5
000568: 10,2407           10000                           CCS      A
000569: 10,2410           12413                           TCF      MARKCOP
000570: 10,2411           40370                           CS       MARKNV
000571: 10,2412           54370                           TS       MARKNV
000572:
000573: 10,2413           34753        MARKCOP            CAF      ONE                                   #  MARK INDEX
000574: 10,2414           12616                           TCF      PRIOPLAY
000575:
000576: 10,2415           30165        COPYTOGO           CA       MPAC2SAV
000577: 10,2416           54156                           TS       MPAC       +2
000578:
000579: 10,2417           50164        COPYPACS           INDEX    COPINDEX
000580: 10,2420           33531                           CAF      PRIOOCT
000581: 10,2421           54162                           TS       GENMASK
000582:
000583: 10,2422           50164                           INDEX    COPINDEX
000584: 10,2423           31070                           CAF      EBANKSAV
000585: 10,2424           54160                           TS       TEMPOR2                               #  ACTIVE EBANK AND FLAG
000586:
000587: 10,2425           54003                           TS       EBANK
000588:
000589: 10,2426           00002                           TC       Q
000590:
000591:                                                                                                  #  PINCHEK CHECKS TO SEE IF THE CURRENT MARK REQUEST IS MADE BY THE ASTRONAUT WHILE INTERRUPTING A GOPLAY DISPLAY
000592:                                                                                                  #  (A NORMAL OR A PRIO).  IF THE ASTRONAUT TRIES TO MARK DURING A PRIO, THE CHECK FAIL LIGHT GOES ON AND THE MARK
000593:                                                                                                  #  REQUEST IS ENDED.  IF HE TRIES TO MARK DURING A NORM, THE MARK IS ALLOWED.  IN THIS CASE THE NORM IS PUT TO SLEEP
000594:                                                                                                  #  UNTIL ALL MARKING IS FINISHED.
000595:
000596:                                                                                                  #  IF THE MARK REQUEST COMES FROM THE PROGRAM DURING A TIME THE ASTRONAUT IS NOT INTERRUPTING A NORMAL OR A
000597:                                                                                                  #  PRIO, THE MARK REQUEST IS PUT TO SLEEP UNTIL THE +RESENT ACTIVE DISPLAY IS RESPONDED TO BY THE ASTRONAUT.
000598:
000599: 10,2427           30100        CHKPRIO            CA       FLAGWRD4                              #  MARK ATTEMPT DURING PRIO
000600: 10,2430           73254                           MASK     OCT24100
000601: 10,2431           10000                           CCS      A
000602: 10,2432           13454                           TCF      MARSLEEP
000603:
000604: 10,2433           40100                           CS       FLAGWRD4


000606: 10,2434           74751                           MASK     MKOVBIT                               #  SET MARK OVER NORM
000607: 10,2435           00004                           INHINT
000608: 10,2436           26100                           ADS      FLAGWRD4
000609:
000610: 10,2437           12534                           TCF      SETNORM
000611:
000612: 10,2440           30370        MARKPERF           CA       MARKNV
000613: 10,2441           74144                           MASK     VERBMASK
000614: 10,2442           13120                           TCF      NV50DSP
000615:
000616: 10,2443           54155        GODSP              TS       PLAYTEM1
000617:
000618: 10,2444           34755        GODSP2             CAF      ZERO
000619: 10,2445           12500                           TCF      GOFLASH2
000620:
000621: 10,2446           54155        GODSPRET           TS       PLAYTEM1                              #  ENTRANCE FOR A GODSP WITH A PASTE
000622:
000623: 10,2447           34746                           CAF      BIT6                                  #  SET BIT6 TO GO BACK TO USER AFTER NVSUB
000624: 10,2450           12500                           TCF      GOFLASH2
000625:
000626: 10,2451           54155        GODSPR             TS       PLAYTEM1
000627:
000628: 10,2452           34755        GODSPR1            CAF      ZERO
000629: 10,2453           54160        GODSPR2            TS       PLAYTEM4
000630:
000631: 10,2454           34755                           CAF      ZERO                                  #  * DONT MOVE
000632: 10,2455           12641                           TCF      GODSPRS1
000633:
000634:                                                                                                  #  CLEANDSP IS USED FOR CLEARING OUT A NORMAL DISPLAY THAT IS PRESENTLY ACTIVE OR A NORMAL DISPLAY THAT IS
000635:                                                                                                  #  SET UP TO BE STARTED OR RESTARTED.
000636:
000637:                                                                                                  #  NORMALLY THE USER WILL NOT NEED TO USE THIS ROUTINE SINCE A NEW NORMAL DISPLAY AUTOMATICALLY CLEARS OUT AN
000638:                                                                                                  #  OLD DISPLAY.
000639:
000640:                                                                                                  #  CALLING SEQUENCE FOR CLEANDSP -
000641:
000642:                                                                                                  #                TC      BANKCALL
000643:                                                                                                  #                CADR    CLEANDSP
000644:
000645: 10,2456           34755        CLEANDSP           CAF      ZERO
000646: 10,2457           54155        REFLASH            TS       PLAYTEM1
000647:
000648: 10,2460           33504                           CAF      REDOMASK                              #  FLASH AND PERMIT
000649: 10,2461           12500                           TCF      GOFLASH2
000650:
000651: 10,2462           54155        REFLASHR           TS       PLAYTEM1
000652:
000653: 10,2463           33504                           CAF      REDOMASK                              #  FLASH AND PERMIT
000654: 10,2464           12637                           TCF      GODSPRS
000655:


000657: 10,2465           54155        REGODSP            TS       PLAYTEM1
000658:
000659: 10,2466           34736                           CAF      BIT14
000660: 10,2467           12500                           TCF      GOFLASH2
000661:
000662: 10,2470           54155        REGODSPR           TS       PLAYTEM1
000663:
000664: 10,2471           34736                           CAF      BIT14
000665: 10,2472           12453                           TCF      GODSPR2
000666:
000667: 10,2473           54155        CLOCPLAY           TS       PLAYTEM1
000668: 10,2474           33543                           CAF      CLOCKCON
000669: 10,2475           12500                           TCF      GOFLASH2
000670:
000671: 10,2476           54155        GOFLASH            TS       PLAYTEM1
000672:
000673: 10,2477           34750                           CAF      BIT4                                  #  LEAVE ONLY FLASH BIT SET
000674: 10,2500           54160        GOFLASH2           TS       PLAYTEM4
000675:
000676: 10,2501           02722                           TC       SAVELOCS
000677:
000678: 10,2502           00003                           RELINT
000679:
000680: 10,2503           12546                           TCF      MAKEPLAY                              #  BRANCH DIRECT WITH NO SEPARATE JOB CALL
000681:
000682: 10,2504           54155        PRIODSPR           TS       PLAYTEM1
000683:
000684: 10,2505           33523                           CAF      BITS7+4
000685: 10,2506           12637                           TCF      GODSPRS
000686:
000687: 10,2507           54155        PRIODSP            TS       PLAYTEM1
000688:
000689: 10,2510           33523        SETPRIO            CAF      BITS7+4
000690: 10,2511           12500                           TCF      GOFLASH2
000691:
000692: 10,2512           34755        MAKEPRIO           CAF      ZERO
000693: 10,2513           54164                           TS       COPINDEX
000694:
000695: 10,2514           03374                           TC       LINUSCHR
000696: 10,2515           12522                           TCF      HIPRIO                                #  LINUS RETURN
000697: 10,2516           30100                           CA       FLAGWRD4
000698: 10,2517           73542                           MASK     OCT20100                              #  IS PRIO IN ENDIDLE OR BUSY
000699: 10,2520           10000                           CCS      A
000700: 10,2521           12575                           TCF      PRIOBORT                              #  YES, ABORT
000701:
000702: 10,2522           30100        HIPRIO             CA       FLAGWRD4                              #  MARK ACTIVE
000703: 10,2523           75642                           MASK     OCT40400
000704: 10,2524           00006                           EXTEND
000705: 10,2525           12530                           BZF      ASKIFNRM                              #  NO
000706:


000708: 10,2526           34755        SETMARK            CAF      ZERO
000709: 10,2527           12774                           TCF      JOBXCHS
000710:
000711: 10,2530           30100        ASKIFNRM           CA       FLAGWRD4                              #  NORMAL ACTIVE
000712: 10,2531           73540                           MASK     OCT10200                              #  BITS 13+8
000713: 10,2532           00006                           EXTEND
000714: 10,2533           12536                           BZF      OKTOCOPY                              #  NO
000715:
000716: 10,2534           34753        SETNORM            CAF      ONE
000717: 10,2535           12774                           TCF      JOBXCHS
000718:
000719: 10,2536           02734        OKTOCOPY           TC       COPYNORM
000720: 10,2537           03205                           TC       WITCHONE
000721:
000722: 10,2540           05137                           TC       JOBWAKE
000723:
000724: 10,2541           03222                           TC       XCHTOEND
000725:
000726: 10,2542           30025        REDOPRIO           CA       TIME1                                 #  SAVE TIME PRIODSP SENT OUT
000727: 10,2543           55165                           TS       PRIOTIME
000728:
000729: 10,2544           34755        KEEPPRIO           CAF      ZERO                                  #  START UP PRIO DISPLAY
000730: 10,2545           12616                           TCF      PRIOPLAY
000731:
000732: 10,2546           30167        MAKEPLAY           CA       PRIORITY                              #  SAVE USERS PRIORITY
000733: 10,2547           77725                           MASK     PRIO37
000734: 10,2550           54163                           TS       USERPRIO
000735:
000736: 10,2551           37721                           CAF      PRIO33                                #  RAISE PRIORITY FOR FAST JOBS AFTER WAKE
000737: 10,2552           05146                           TC       PRIOCHNG
000738:
000739: 10,2553           30160                           CA       PLAYTEM4                              #  IS IT MARK OR PRIO OR NORM
000740: 10,2554           73522                           MASK     BITS15+7
000741: 10,2555           10000                           CCS      A
000742: 10,2556           12512                           TCF      MAKEPRIO                              #  ITS PRIO
000743: 10,2557           12561                           TCF      IFLEGAL
000744: 10,2560           12364                           TCF      MAKEMARK                              #  ITS MARK
000745:
000746: 10,2561           34752        IFLEGAL            CAF      TWO
000747: 10,2562           54164                           TS       COPINDEX
000748:
000749: 10,2563           03374                           TC       LINUSCHR
000750:
000751: 10,2564           12577                           TCF      OKTOPLAY                              #  LINUS RETURN
000752: 10,2565           41072                           CS       EBANKTEM
000753: 10,2566           74750                           MASK     BIT4
000754: 10,2567           10000                           CCS      A
000755: 10,2570           12577                           TCF      OKTOPLAY                              #  NO
000756:
000757: 10,2571           30100                           CA       FLAGWRD4                              #  WAS NORM ASLEEP


000759: 10,2572           73513                           MASK     NBUSMASK                              #  ARE ANY NORMS ASLEEP
000760: 10,2573           00006                           EXTEND
000761: 10,2574           12577                           BZF      OKTOPLAY                              #  NO
000762:
000763: 10,2575           05652        PRIOBORT           TC       POODOO
000764: 10,2576           01502                           OCT      1502
000765:
000766: 10,2577           02736        OKTOPLAY           TC       COPIES2
000767:
000768: 10,2600           30163                           CA       USERPRIO
000769: 10,2601           00006                           EXTEND
000770: 10,2602           04007                           ROR      SUPERBNK
000771: 10,2603           54366                           TS       RESTREG
000772:
000773: 10,2604           30100                           CA       FLAGWRD4                              #  PRIO OR MARK GOING
000774: 10,2605           73514                           MASK     PMMASK
000775: 10,2606           10000                           CCS      A
000776: 10,2607           12754                           TCF      GOSLEEPS                              #  YES
000777:
000778: 10,2610           12612                           TCF      +2
000779: 10,2611           12754                           TCF      GOSLEEPS                              #  MARK GOING
000780:
000781:                                                                                                  #  COULD PUT NORM BUSY CHECK HERE TO SAVE TIME
000782:
000783: 10,2612           03205                           TC       WITCHONE                              #  IS IT NVSUB BUSY, ENDIDLE OR NOONE
000784: 10,2613           05137                           TC       JOBWAKE
000785:
000786: 10,2614           03222                           TC       XCHTOEND
000787:
000788: 10,2615           34752        PLAYJUM1           CAF      TWO
000789: 10,2616           54164        PRIOPLAY           TS       COPINDEX
000790:
000791: 10,2617           13070                           TCF      GOPLAY
000792:
000793: 10,2620           54155        EXDSPRET           TS       PLAYTEM1
000794:
000795: 10,2621           37734                           CAF      BIT15+6
000796: 10,2622           12500                           TCF      GOFLASH2
000797:
000798: 10,2623           55045        GOPERF1            TS       NORMTEM1                              #  STORE DESIRED CHECKLIST VALUE
000799: 10,2624           33476                           CAF      V01N25                                #  USED TO DISPLAY CHECKLIST VALUE IN R1
000800:
000801: 10,2625           54155        GOPERFS            TS       PLAYTEM1
000802:
000803: 10,2626           33475                           CAF      PERFMASK                              #  LEAVE ONLY FLASH, PERFORM, BLANKING
000804: 10,2627           12500                           TCF      GOFLASH2
000805:
000806: 10,2630           54155        GOPERF2            TS       PLAYTEM1                              #  DESIRED VERB-NOUN TO DISPLAY R1,R2,R3
000807:
000808: 10,2631           33501                           CAF      PERF2MSK
000809: 10,2632           12500                           TCF      GOFLASH2
000810:


000812: 10,2633           02715        GOPERF4            TC       PURRS4
000813:
000814: 10,2634           12500                           TCF      GOFLASH2
000815:
000816: 10,2635           54155        GOFLASHR           TS       PLAYTEM1
000817:
000818: 10,2636           34750                           CAF      BIT4                                  #  LEAVE ONLY FLASH BIT SET
000819: 10,2637           54160        GODSPRS            TS       PLAYTEM4
000820:
000821: 10,2640           36245                           CAF      THREE
000822:
000823: 10,2641           00004        GODSPRS1           INHINT                                         #  IMMEDIATE RETURN IS CALL CADR +4
000824: 10,2642           54072                           TS       RUPTREG3
000825:
000826: 10,2643           30167                           CA       PRIORITY                              #  MAKE DISPLAY ONE HIGHER THAN USER
000827: 10,2644           77725                           MASK     PRIO37
000828: 10,2645           54063                           TS       NEWPRIO
000829:
000830: 10,2646           30160                           CA       PLAYTEM4                              #  IS THIS A FLASHING R DISPLAY
000831: 10,2647           74750                           MASK     BIT4
000832: 10,2650           10000                           CCS      A
000833: 10,2651           12657                           TCF      VACDSP                                #  YES, MAKE DSPLAY JOB A VAC
000834: 10,2652           30063                           CA       NEWPRIO                               #  NO, MAKE DSPLAY JOB A NOVAC
000835: 10,2653           05072                           TC       NOVAC
000836: 10,2654  E7,1471                                  EBANK=   WHOCARES
000837: 10,2654           02546 20067                     2CADR    MAKEPLAY
000838:
000839: 10,2656           12665                           TCF      BOTHJOBS
000840:
000841: 10,2657           30006        VACDSP             CA       BBANK
000842: 10,2660           00006                           EXTEND
000843: 10,2661           04007                           ROR      SUPERBNK
000844: 10,2662           54001                           TS       L
000845: 10,2663           33537                           CAF      MAKEGEN
000846: 10,2664           05116                           TC       SPVAC
000847:
000848: 10,2665           02722        BOTHJOBS           TC       SAVELOCS                              #  COPY TEMPS INTO PERMANENT REGISTERS
000849:
000850: 10,2666           00006                           EXTEND                                         #  SAVE NVWORD AND USERS MPAC +2
000851: 10,2667           30156                           DCA      MPAC       +1
000852: 10,2670           50064                           INDEX    LOCCTR
000853: 10,2671           52156                           DXCH     MPAC       +1
000854:
000855: 10,2672           00006                           EXTEND                                         #  SAVE USERS CADR, FLAGS AND EBANK
000856: 10,2673           30160                           DCA      MPAC       +3
000857: 10,2674           50064                           INDEX    LOCCTR
000858: 10,2675           52160                           DXCH     MPAC       +3
000859:
000860: 10,2676           30064                           CA       LOCCTR
000861: 10,2677           54161                           TS       MPAC       +5


000863: 10,2700           02727                           TC       SAVELOCR
000864: 10,2701           00003                           RELINT
000865:
000866: 10,2702           14640                           TCF      BANKJUMP                              #  CALL CADR +4
000867:
000868: 10,2703           55045        GOPERF1R           TS       NORMTEM1                              #  DESIRED CHECKLIST VALUE
000869:
000870: 10,2704           33476                           CAF      V01N25                                #  DISPLAYS CHECKLIST VALUE IN R1
000871:
000872: 10,2705           54155        GOPERFRS           TS       PLAYTEM1
000873:
000874: 10,2706           33475                           CAF      PERFMASK                              #  LEAVE ONLY FLASH, PERFORM, BLANKING
000875: 10,2707           12637                           TCF      GODSPRS
000876:
000877: 10,2710           54155        GOPERF2R           TS       PLAYTEM1                              #  DESIRED VERB-NOUN TO DISPLAY R1,R2,R3
000878:
000879: 10,2711           33501                           CAF      PERF2MSK
000880: 10,2712           12637                           TCF      GODSPRS
000881:
000882: 10,2713           02715        GOPERF4R           TC       PURRS4
000883:
000884: 10,2714           12637                           TCF      GODSPRS
000885:
000886: 10,2715           55144        PURRS4             TS       OPTION1                               #  DESIRED OPTION CODE
000887:
000888: 10,2716           33502                           CAF      V04N06
000889: 10,2717           54155                           TS       PLAYTEM1
000890:
000891: 10,2720           33503                           CAF      PERF4MSK                              #  FLASH, PERFORM AND BLANK R3
000892: 10,2721           00002                           TC       Q
000893:
000894: 10,2722           00004        SAVELOCS           INHINT
000895:
000896: 10,2723           43512                           CS       OCT3400                               #  EBANK BITS
000897: 10,2724           70160                           MASK     PLAYTEM4
000898: 10,2725           60003                           AD       EBANK
000899: 10,2726           54160                           TS       PLAYTEM4
000900:
000901: 10,2727           22002        SAVELOCR           LXCH     Q
000902:
000903: 10,2730           04645                           TC       MAKECADR
000904: 10,2731           54157                           TS       PLAYTEM3
000905:
000906: 10,2732           60072                           AD       RUPTREG3                              #  NOT USED FOR NON R ROUTINES
000907: 10,2733           00001                           TC       L
000908:
000909: 10,2734           34755        COPYNORM           CAF      ZERO
000910: 10,2735           54164        COPIES             TS       COPINDEX
000911: 10,2736           00004        COPIES2            INHINT
000912: 10,2737           30160                           CA       PLAYTEM4                              #  FLAGWORD
000913:


000915: 10,2740           50164                           INDEX    COPINDEX
000916: 10,2741           55070                           TS       EBANKSAV                              #  EQUIV TO DSPFLG
000917:
000918: 10,2742           73530                           MASK     CADRMASK                              #  FLASH AND GODSPRET
000919: 10,2743           00006                           EXTEND
000920: 10,2744           12750                           BZF      SKIPADD
000921:
000922: 10,2745           30157                           CA       PLAYTEM3
000923: 10,2746           50164                           INDEX    COPINDEX
000924: 10,2747           54372                           TS       CADRFLSH
000925:
000926: 10,2750           30155        SKIPADD            CA       PLAYTEM1                              #  VERB NOUN
000927: 10,2751           50164                           INDEX    COPINDEX
000928: 10,2752           54367                           TS       NVWORD
000929:
000930: 10,2753           13231                           TCF      RELINTQ
000931:
000932: 10,2754           50164        GOSLEEPS           INDEX    COPINDEX
000933: 10,2755           33531                           CA       PRIOOCT
000934: 10,2756           72760                           MASK     WAITMASK
000935: 10,2757           03544                           TC       UPENT2
000936: 10,2760           03004        WAITMASK           OCT      3004
000937: 10,2761           44753                           CS       ONE
000938: 10,2762           60164                           AD       COPINDEX
000939: 10,2763           54154                           TS       FACEREG
000940:
000941: 10,2764           50154        XCHSLEEP           INDEX    FACEREG
000942: 10,2765           33510                           CAF      WAKECADR
000943: 10,2766           00004                           INHINT
000944: 10,2767           05137                           TC       JOBWAKE                               #  FIND CADR IN JOB AREA
000945:
000946: 10,2770           03222                           TC       XCHTOEND                              #  CAUSES AWAKENED JOB TO GO TO ENDOFJOB
000947:
000948: 10,2771           50154                           INDEX    FACEREG                               #  REPLACE SAME CADR BUT NEW JOB AREA
000949: 10,2772           33510                           CAF      WAKECADR
000950: 10,2773           15133                           TCF      JOBSLEEP
000951:
000952: 10,2774           54154        JOBXCHS            TS       FACEREG                               #  CONTROLS TYPE OF DISPLAY PUT TO SLEEP
000953: 10,2775           03205                           TC       WITCHONE
000954: 10,2776           05137                           TC       JOBWAKE
000955: 10,2777           30154                           CA       FACEREG
000956: 10,3000           50064                           INDEX    LOCCTR
000957: 10,3001           54154                           TS       FACEREG
000958:
000959: 10,3002           33015                           CAF      XCHQADD
000960: 10,3003           03223                           TC       XCHNYLOC
000961:
000962: 10,3004           50154                           INDEX    FACEREG
000963: 10,3005           33532                           CA       MARKOCT
000964: 10,3006           73534                           MASK     IDLESLEP
000965:


000967: 10,3007           03554                           TC       DOWNENT2
000968: 10,3010           74004        IDLEMASK           OCT      74004                                 #  * DONT MOVE
000969:
000970: 10,3011           50154                           INDEX    FACEREG                               #  BIT SHOWS PRIO INTERRUPTED NORM OR MARK
000971: 10,3012           34747                           CA       BIT5                                  #  BIT5 FOR MARK, BIT4 FOR NORMAL
000972: 10,3013           64751                           AD       FOUR
000973: 10,3014           03544                           TC       UPENT2                                #  FLAG ROUTINE DOES RELINT
000974: 10,3015           02764        XCHQADD            GENADR   XCHSLEEP                              #  * DONT MOVE
000975: 10,3016           30100                           CA       FLAGWRD4
000976: 10,3017           74751                           MASK     MKOVBIT                               #  MARK OVER NORM?
000977: 10,3020           10000                           CCS      A
000978: 10,3021           02377        GENMARK            TC       MARKPLAY                              #  USED AS GENADR FOR JOBWAKE
000979: 10,3022           12536                           TCF      OKTOCOPY
000980:
000981: 10,3023           34755        MARKWAKE           CAF      ZERO
000982: 10,3024           54160        WAKEPLAY           TS       TEMPOR2
000983:
000984: 10,3025           50160                           INDEX    TEMPOR2
000985: 10,3026           33524                           CA       BITS5+11
000986: 10,3027           64751                           AD       FOUR
000987: 10,3030           03554                           TC       DOWNENT2
000988: 10,3031           40010        MARKFMSK           OCT      40010                                 #  ***DONT MOVE
000989:
000990: 10,3032           50160                           INDEX    TEMPOR2
000991: 10,3033           33510                           CAF      WAKECADR
000992: 10,3034           00004                           INHINT
000993: 10,3035           05137                           TC       JOBWAKE
000994:
000995: 10,3036           13335                           TCF      ENDRET
000996:
000997:                                                                                                  #  ALL .1 RESTARTS BRANCH DIRECTLY TO INITDSP.  NORMAL DISPLAYS ARE THE ONLY DISPLAYS ALLOWED TO USE .1 RESTARTS
000998:                                                                                                  #  INITDSP FIRST RESTORES THE EBANK AND THE SUPERBANK TO THE MOST RECENT NORMAL EBANK AND SUPERBANK.
000999:
001000:                                                                                                  #  IF THE MOST RECENT NORMAL DISPLAY REQUEST WAS NOT FINISHED, CONTROLIS SENT BACK TO THE LAST NORMAL USER.
001001:                                                                                                  #  OTHERWISE THE NORMAL DISPLAY SET UP IN THE NORMAL DISPLAY REGS IS STARTED UP IMMEDIATELY.
001002:
001003: 10,3037           31072        INITDSP            CA       EBANKTEM                              #  RESTORE MOST RECECT NORMAL EBANK
001004: 10,3040           54003                           TS       EBANK
001005:
001006: 10,3041           30366                           CA       RESTREG                               #  SUPERBANK AND JOB PRIORITY
001007: 10,3042           04727                           TC       SUPERSW                               #  RESTORE SUPERBANK
001008:
001009: 10,3043           77725                           MASK     PRIO37
001010: 10,3044           05146                           TC       PRIOCHNG
001011:
001012: 10,3045           46245                           CS       THREE
001013: 10,3046           60374                           AD       TEMPFLSH
001014: 10,3047           14640                           TCF      BANKJUMP
001015:
001016: 10,3050           00003        PINBRNCH           RELINT                                         #  FOR GOPIN USERS
001017: 10,3051           31073                           CA       MARK2PAC                              #  NEEDED TO SAVE MPAC +2 FOR MARK USERS


001019: 10,3052           54156                           TS       MPAC       +2                         #  ONLY
001020:
001021: 10,3053           30100                           CA       FLAGWRD4                              #  PINBRANCH CONDITION
001022: 10,3054           77740                           MASK     PINMASK
001023: 10,3055           10000                           CCS      A
001024: 10,3056           13061                           TCF      +3
001025: 10,3057           13471                           TCF      ERASER                                #  ** NOTHING IN ENDIDLE
001026: 10,3060           12377                           TCF      MARKPLAY
001027:
001028: 10,3061           05504        NORMBNCH           TC       UPFLAG                                #  SET PINBRANCH BIT
001029: 10,3062           00105                           ADRES    PINBRFLG
001030:
001031: 10,3063           34736                           CAF      PRIODBIT                              #  PRIO INTERRUPTED
001032: 10,3064           70100                           MASK     FLAGWRD4
001033: 10,3065           10000                           CCS      A
001034: 10,3066           12544                           TCF      KEEPPRIO
001035:
001036: 10,3067           12615                           TCF      PLAYJUM1
001037:
001038: 10,3070           02417        NVDSP              TC       COPYPACS
001039:
001040: 10,3071           30160                           CA       TEMPOR2                               #  SET UP BLANK BITS FOR NVMONOPT IN CASE
001041: 10,3072           74757                           MASK     SEVEN                                 #  USER REQUESTS BLANKING MONITOR
001042: 10,3073           54001                           TS       L
001043:
001044: 10,3074           44737                           CS       BIT13
001045: 10,3075           50164                           INDEX    COPINDEX
001046: 10,3076           71070                           MASK     DSPFLG
001047: 10,3077           50164                           INDEX    COPINDEX
001048: 10,3100           55070                           TS       DSPFLG
001049:
001050: 10,3101           74744                           MASK     BIT8                                  #  BIT8 SET IF DEC MARK PERFORM DISPLAY
001051: 10,3102           54141                           TS       TEM1
001052:
001053: 10,3103           30156                           CA       MPAC       +2
001054: 10,3104           54165                           TS       MPAC2SAV
001055:
001056: 10,3105           55073                           TS       MARK2PAC                              #  * FOR DISK ONLY *
001057: 10,3106           50164                           INDEX    COPINDEX
001058: 10,3107           10367                           CCS      NVWORD
001059: 10,3110           13117                           TCF      NVDSP1
001060: 10,3111           13233                           TCF      CLEANEND
001061: 10,3112           40370                           CS       MARKNV
001062: 10,3113           54370                           TS       MARKNV                                #  IN CASE MARKPLAY AWAKENED AFTER SLEEPING
001063: 10,3114           76074                           MASK     LOW7
001064: 10,3115           63515                           AD       V05N00M1
001065: 10,3116           60141                           AD       TEM1
001066: 10,3117           64753        NVDSP1             AD       ONE
001067: 10,3120           04155        NV50DSP            TC       NVMONOPT
001068: 10,3121           13245                           TCF      REST                                  #  IF BUSY
001069:


001071: 10,3122           04433                           TC       FLASHOFF                              #  IN CASE OF EXTENDED VERB NON FLASH
001072:
001073: 10,3123           02415                           TC       COPYTOGO                              #  MPACS DESTROYED BY NVSUB
001074: 10,3124           05516                           TC       DOWNFLAG                              #  UNSET SLEEPING BITS
001075: 10,3125           00102                           ADRES    MRKNVFLG
001076: 10,3126           05516                           TC       DOWNFLAG
001077: 10,3127           00103                           ADRES    NRMNVFLG
001078: 10,3130           05516                           TC       DOWNFLAG
001079: 10,3131           00104                           ADRES    PRONVFLG
001080: 10,3132           30160        BLANKCHK           CA       TEMPOR2                               #  BLANK BITS 1,2,3 IF SET
001081: 10,3133           04255                           TC       BLANKSUB
001082: 10,3134           13070                           TCF      NVDSP
001083: 10,3135           34747        PERFCHEK           CAF      BIT5                                  #  BIT5 FOR PERFORM
001084: 10,3136           70160                           MASK     TEMPOR2
001085: 10,3137           10000                           CCS      A                                     #  IS THIS A GOPERF DISPLAY
001086: 10,3140           13163                           TCF      1STOR2ND                              #  YES
001087:
001088: 10,3141           34750        GOANIDLE           CAF      BIT4
001089: 10,3142           70160                           MASK     TEMPOR2
001090: 10,3143           10000                           CCS      A
001091: 10,3144           13260                           TCF      FLASHSUB                              #  IT IS
001092:
001093: 10,3145           40160                           CS       TEMPOR2                               #  IS THIS A GODSPRET
001094: 10,3146           74746                           MASK     BIT6
001095: 10,3147           10000                           CCS      A
001096: 10,3150           13155                           TCF      ISITN00
001097:
001098: 10,3151           50164                           INDEX    COPINDEX
001099: 10,3152           30372                           CA       CADRFLSH
001100: 10,3153           54157                           TS       MPAC       +3
001101: 10,3154           13353                           TCF      ENDIT
001102:
001103: 10,3155           50164        ISITN00            INDEX    COPINDEX                              #  IS THIS A PASTE
001104: 10,3156           30367                           CA       NVWORD
001105: 10,3157           76074                           MASK     LOW7                                  #  CHECK MADE FOR PINBRNCH AND PRIO ON MARK
001106: 10,3160           00006                           EXTEND
001107: 10,3161           13260                           BZF      FLASHSUB                              #  YES, ASSUME PASTE ALWAYS ON FLASH
001108:
001109: 10,3162           15155                           TCF      ENDOFJOB                              #  NOT FLASH, NOT GOPERF, THERFORE EXIT
001110:
001111: 10,3163           30160        1STOR2ND           CA       TEMPOR2
001112: 10,3164           74737                           MASK     BIT13
001113: 10,3165           10000                           CCS      A
001114: 10,3166           13141                           TCF      GOANIDLE                              #  SECOND
001115:
001116: 10,3167           34737                           CA       BIT13
001117: 10,3170           50164                           INDEX    COPINDEX
001118: 10,3171           27070                           ADS      DSPFLG
001119:
001120: 10,3172           22007                           ZL


001122: 10,3173           00006                           EXTEND                                         #  IS IT MARK
001123: 10,3174           62440                           BZMF     MARKPERF                              #  YES
001124:
001125: 10,3175           74740                           MASK     BIT12
001126: 10,3176           00006                           EXTEND
001127: 10,3177           13203                           BZF      V50PASTE
001128: 10,3200           41067                           CS       NVWORD1                               #  NVOWRD1= -0 IS V97.  NVWORD1= -400 IS V99
001129: 10,3201           63541                           AD       V97N00
001130: 10,3202           13120                           TCF      NV50DSP
001131: 10,3203           33500        V50PASTE           CAF      V50N00
001132: 10,3204           13120                           TCF      NV50DSP                               #  DISPLAY SECOND PART OF GOPERF
001133:
001134: 10,3205           44747        WITCHONE           CS       BIT5                                  #  TURN OFF KEY RELEASE LIGHT
001135: 10,3206           00006                           EXTEND
001136: 10,3207           03011                           WAND     DSALMOUT
001137:
001138: 10,3210           30100                           CA       FLAGWRD4
001139: 10,3211           73516                           MASK     NVBUSMSK                              #  IS IT NVSUB ASLEEP
001140: 10,3212           10000                           CCS      A
001141: 10,3213           34753                           CAF      ONE
001142: 10,3214           54001                           TS       L
001143: 10,3215           34755                           CAF      ZERO
001144: 10,3216           50001                           INDEX    L
001145: 10,3217           57042                           XCH      CADRSTOR
001146:
001147: 10,3220           00004                           INHINT
001148: 10,3221           00002                           TC       Q
001149:
001150: 10,3222           34217        XCHTOEND           CAF      ENDINST                               #  TC ENDOFJOB REPLACES GENADR IN LOC FOR
001151: 10,3223           56064        XCHNYLOC           XCH      LOCCTR                                #  WAS THIS ADDRESS SLEEPING
001152: 10,3224           00006                           EXTEND
001153: 10,3225           63231                           BZMF     RELINTQ                               #  NO
001154: 10,3226           56064                           XCH      LOCCTR                                #  YES
001155: 10,3227           50064                           INDEX    LOCCTR
001156: 10,3230           54164                           TS       LOC
001157:
001158: 10,3231           00003        RELINTQ            RELINT
001159: 10,3232           00002                           TC       Q                                     #  BACK TO USER
001160:
001161: 10,3233           37720        CLEANEND           CAF      PRIO32                                #  ONE LOWER THAN DISPLAYS SLEEPING
001162: 10,3234           05105                           TC       FINDVAC
001163: 10,3235     0371                                  EBANK=   NVSAVE
001164: 10,3235           04231 04060                     2CADR    JAMTERM
001165:
001166: 10,3237           13261                           TCF      FLASHSUB   +1
001167:
001168: 10,3240           30100        ISITPRIO           CA       FLAGWRD4
001169: 10,3241           73266                           MASK     ITISMASK                              #  IS PINBRFLG, MARKIDFLG SET
001170: 10,3242           00006                           EXTEND


001172: 10,3243           12575                           BZF      PRIOBORT
001173: 10,3244           15155                           TCF      ENDOFJOB
001174:
001175: 10,3245           11042        REST               CCS      CADRSTOR                              #  IS SOMEONE IN ENDIDLE
001176: 10,3246           15155                           TCF      ENDOFJOB                              #  YES
001177: 10,3247           13251                           TCF      RESTSLEP
001178:
001179: 10,3250           15155                           TCF      ENDOFJOB
001180:
001181: 10,3251           30162        RESTSLEP           CA       GENMASK                               #  SET NVSLEEP BITS
001182: 10,3252           73517                           MASK     ASTROMSK
001183: 10,3253           03544                           TC       UPENT2
001184: 10,3254           24100        OCT24100           OCT      24100                                 #  ***DONT MOVE
001185:
001186: 10,3255           50164                           INDEX    COPINDEX
001187: 10,3256           33507                           CAF      NVCADR
001188: 10,3257           04442                           TC       NVSUBUSY                              #  BUSY OR ABORT IF ILLEGAL
001189:
001190: 10,3260           04427        FLASHSUB           TC       FLASHON
001191:
001192: 10,3261           30164                           CA       COPINDEX                              #  COPINDEX DESTROYED BY ENDIDLE
001193: 10,3262           54157                           TS       COPMPAC
001194:
001195: 10,3263           30162                           CA       GENMASK
001196: 10,3264           73010                           MASK     IDLEMASK
001197: 10,3265           03544                           TC       UPENT2
001198: 10,3266           40040        ITISMASK           OCT      40040                                 #  *** ENDIDLE ALLOW *** DONT MOVE
001199:
001200: 10,3267           31074                           CA       R1SAVE                                #  IS THIS A REPEAT AND RETURN DISPLAY
001201: 10,3270           50164                           INDEX    COPINDEX
001202: 10,3271           74751                           MASK     BIT3
001203: 10,3272           10000                           CCS      A
001204: 10,3273           13360                           TCF      UNSETR1                               #  YES
001205:
001206: 10,3274           11042                           CCS      CADRSTOR                              #  SEE IF SOMEONE ALREADY IN ENDIDLE
001207: 10,3275           13240                           TCF      ISITPRIO
001208: 10,3276           13300                           TCF      +2
001209: 10,3277           13240                           TCF      ISITPRIO
001210:
001211: 10,3300           04207                           TC       ENDIDLE
001212: 10,3301           13372        IDLERET1           TCF      TERMATE
001213:
001214: 10,3302           13411                           TCF      PROCEED                               #  ENDIDLE RETURNS HERE ON PROCEED
001215:
001216: 10,3303           43526                           CS       LOWLOAD
001217: 10,3304           60154                           AD       MPAC                                  #  VERBREG
001218: 10,3305           00006                           EXTEND
001219: 10,3306           26000                           DIM      A
001220: 10,3307           00006                           EXTEND
001221: 10,3310           13461                           BZF      LOADITIS                              #  V21 OR V22 OR V23 ON DSKY
001222:


001224: 10,3311           34752        OKTOENT            CAF      TWO
001225: 10,3312           54161        ENDOUT             TS       OUTHERE
001226:
001227: 10,3313           30100                           CA       FLAGWRD4                              #  CHECK NATURE OF ENDIDLE RETURN
001228: 10,3314           74101                           MASK     OCT60000
001229: 10,3315           10000                           CCS      A
001230: 10,3316           13321                           TCF      TIMECHEK                              #  PRIO ENDIDLE RETURN
001231: 10,3317           13427                           TCF      NORMRET                               #  NORMAL ENDIDLE RETURN
001232: 10,3320           13413                           TCF      MARKRET                               #  MARK ENDIDLE RETURN
001233:
001234: 10,3321           40025        TIMECHEK           CS       TIME1
001235: 10,3322           61165                           AD       PRIOTIME
001236: 10,3323           10000                           CCS      A
001237: 10,3324           40000                           COM
001238: 10,3325           67731                           AD       OCT37776
001239: 10,3326           64753                           AD       ONE
001240: 10,3327           63570                           AD       -2SEC
001241: 10,3330           00006                           EXTEND
001242: 10,3331           62544                           BZMF     KEEPPRIO
001243:
001244: 10,3332           13427                           TCF      NORMRET
001245:
001246: 10,3333           34753        NORMWAKE           CAF      ONE
001247: 10,3334           13024                           TCF      WAKEPLAY
001248:
001249: 10,3335           10161        ENDRET             CCS      OUTHERE
001250: 10,3336           64753                           AD       ONE
001251: 10,3337           13341                           TCF      +2                                    #  NORMAL ENDIDLE EXIT
001252: 10,3340           15155                           TCF      ENDOFJOB
001253: 10,3341           50157                           INDEX    COPMPAC
001254: 10,3342           60372                           AD       CADRFLSH
001255: 10,3343           54157                           TS       MPAC       +3
001256:
001257: 10,3344           30162                           CA       GENMASK                               #  REMOVE ENDIDLE AND PINBRANCH BITS
001258: 10,3345           73347                           MASK     PINIDMSK
001259: 10,3346           03554                           TC       DOWNENT2
001260: 10,3347           74044        PINIDMSK           OCT      74044                                 #  *** DONT MOVE
001261:
001262: 10,3350           46245                           CS       THREE                                 #  BLANK EVERYTHING EXCEPT MM
001263: 10,3351           04154                           TC       NVSUB
001264: 10,3352           13353                           TCF      +1
001265:
001266: 10,3353           30163        ENDIT              CA       USERPRIO                              #  RETURN TO USERS PRIORITY
001267: 10,3354           77725                           MASK     PRIO37
001268: 10,3355           05146                           TC       PRIOCHNG
001269: 10,3356           30157                           CA       MPAC       +3
001270: 10,3357           14640                           TCF      BANKJUMP
001271:
001272: 10,3360           50164        UNSETR1            INDEX    COPINDEX                              #  RESET REPEAT AND RETURN REQUEST
001273: 10,3361           44751                           CS       BIT3


001275: 10,3362           71074                           MASK     R1SAVE
001276: 10,3363           55074                           TS       R1SAVE
001277:
001278: 10,3364           34755                           CAF      ZERO                                  #  *** 205 ONLY MARKBRAN USERS IN
001279: 10,3365           04727                           TC       SUPERSW                               #  SUPERBANK 0
001280:
001281: 10,3366           36245                 -1        CAF      THREE                                 #  RETURN TO USERS IMMEDIATE RETURN LOC
001282: 10,3367           50164        IMMEDRET           INDEX    COPINDEX
001283: 10,3370           60372                           AD       CADRFLSH
001284: 10,3371           14640                           TCF      BANKJUMP
001285:
001286: 10,3372           34755        TERMATE            CAF      ZERO                                  #  ASTRONAUT TERMINATE (V34) RETURNS TO
001287: 10,3373           13312                           TCF      ENDOUT
001288:
001289: 10,3374           40160        LINUSCHR           CS       PLAYTEM4                              #  IS THIS A LINUS
001290: 10,3375           74736                           MASK     BIT14
001291: 10,3376           10000                           CCS      A
001292: 10,3377           16737                           TCF      Q+1                                   #  NO
001293: 10,3400           40157                           CS       PLAYTEM3                              #  YES, IS IT ALREADY IN ENDIDLE
001294: 10,3401           50164                           INDEX    COPINDEX
001295: 10,3402           60372                           AD       CADRFLSH
001296: 10,3403           00006                           EXTEND
001297: 10,3404           13406                           BZF      +2                                    #  YES
001298:
001299: 10,3405           00002                           TC       Q                                     #  NO
001300: 10,3406           11012                           CCS      DSPLOCK                               #  IS THE ASTRONAUT BUSY
001301: 10,3407           05155                           TC       ENDOFJOB                              #  END THE NEW DISPLAY, ITS ALREADY ACTIVE
001302: 10,3410           00002                           TC       Q
001303:
001304:                                                                                                  #  MORE LOGIC COULD BE INCORPORATED HERE TO MAKE SURE A RECYCLE IS A RECYCLAND CONVERSLY THAT A LOAD IS A LOAD.
001305:
001306: 10,3411           34753        PROCEED            CAF      ONE                                   #  ASTRONAUT PROCEED (V33) RETURNS
001307: 10,3412           13312                           TCF      ENDOUT
001308:
001309:                                                                                                  #  LASTPLAY CHECKS TO SEE IF (1) THE LAST NORMAL DISPLAY WAS EITHER INTERRUPTED BY A PRIO OR A MARK (MARK
001310:                                                                                                  #  COULD ONLY HAPPEN DURING PINBRANCH) OR IF (2) THE LAST NORMAL DISPLAY WAS REQUESTED WHILE A HIGHER PRIORITY
001311:                                                                                                  #  DISPLAY WAS GOING RESULTING IN THE NORMAL BEING PUT TO SLEEP.
001312:
001313:                                                                                                  #  IF EITHER OF THE ABOVE 2 CONDITIONS EXISTS, THE NORMAL DISPLAY IS AWAKENED TO GO TO PLAYJUM1 WHICH STARTS
001314:                                                                                                  #  UP THE MOST RECENT VALID NORMAL DISPLAY.  IF THESE 2 CONDITIONS DO NOT EXIST, CONTROL GOES TO PLAYJUM1 WHICH IS
001315:                                                                                                  #  STARTED IMMEDIATELY WITH THE ASSUMPTION THAT THE MOST RECENT NORMAL DISPLAY IS ALREADY IN-ENDIDLE (DURING A
001316:                                                                                                  #  PINBRANCH) OR THAT A RESTART HAS OCCURRED AND THE DISPLAY CAN BE STARTED AS A .1 RESTART.
001317:
001318: 10,3413           46242        MARKRET            CS       SIX
001319: 10,3414           70100                           MASK     FLAGWRD4
001320: 10,3415           00004                           INHINT                                         #  *** MAY MOVE DISPLAY FLAGWORD OUT OF
001321: 10,3416           54100                           TS       FLAGWRD4
001322:
001323: 10,3417           00003                           RELINT                                         #  INHINT REALM
001324: 10,3420           13335                           TCF      ENDRET
001325:


001327: 10,3421           37747        MARKOVER           CAF      MINUS1                                #  RUPTREG2 IS - MEANS ENDOFJOB TO ENDRET
001328: 10,3422           54161                           TS       OUTHERE
001329:
001330: 10,3423           30100                           CA       FLAGWRD4                              #  IS ENDIDFLG SET
001331: 10,3424           74355                           MASK     PRIO30                                #  IS NORMAL OR PRIO IN ENDIDLE
001332: 10,3425           10000                           CCS      A
001333: 10,3426           13061                           TCF      NORMBNCH
001334:
001335: 10,3427           30100        NORMRET            CA       FLAGWRD4                              #  IS MARK SLEEPING
001336: 10,3430           73524                           MASK     BITS5+11                              #  OR WAITING
001337: 10,3431           10000                           CCS      A
001338: 10,3432           13023                           TCF      MARKWAKE
001339:
001340: 10,3433           30100                           CA       FLAGWRD4                              #  NO
001341: 10,3434           73525                           MASK     BITS4+10                              #  IS NORMAL INTERRUPTED OR WAITING
001342: 10,3435           10000                           CCS      A
001343: 10,3436           13333                           TCF      NORMWAKE                              #  YES
001344:
001345: 10,3437           31072                           CA       EBANKTEM                              #  NO, WAS IT A FLASH REQUEST
001346: 10,3440           74771                           MASK     OCT50                                 #  OR A GODSPRET
001347: 10,3441           10000                           CCS      A
001348: 10,3442           13335                           TCF      ENDRET                                #  YES
001349: 10,3443           30371                           CA       NVSAVE
001350: 10,3444           00006                           EXTEND
001351: 10,3445           13335                           BZF      ENDRET
001352:
001353: 10,3446           35025                           CAF      PRIO15
001354: 10,3447           00004                           INHINT
001355: 10,3450           05072                           TC       NOVAC
001356: 10,3451     0367                                  EBANK=   NVWORD
001357: 10,3451           02615 20060                     2CADR    PLAYJUM1
001358:
001359: 10,3453           13335                           TCF      ENDRET
001360:
001361: 10,3454           30100        MARSLEEP           CA       FLAGWRD4                              #  IS MARK ALREADY IN
001362: 10,3455           73524                           MASK     BITS5+11
001363: 10,3456           10000                           CCS      A
001364: 10,3457           15155                           TCF      ENDOFJOB                              #  YES
001365: 10,3460           12754                           TCF      GOSLEEPS
001366:
001367: 10,3461           50157        LOADITIS           INDEX    COPMPAC
001368: 10,3462           30367                           CA       NVWORD
001369: 10,3463           76074                           MASK     LOW7
001370: 10,3464           40000                           COM
001371: 10,3465           60155                           AD       MPAC       +1                         #  NOUNREG
001372: 10,3466           00006                           EXTEND
001373: 10,3467           13311                           BZF      OKTOENT                               #  NO, THEN LOAD IS VALID
001374: 10,3470           13050                           TCF      PINBRNCH                              #  YES, ACCEPT LOAD BUT ASK FOR LAST AGAIN
001375:


001377: 10,3471           46245        ERASER             CS       THREE                                 #  BLANK EVERYTHING EXCEPT MM
001378: 10,3472           04154                           TC       NVSUB
001379: 10,3473           15155                           TCF      ENDOFJOB
001380: 10,3474           15155                           TCF      ENDOFJOB
001381:
001382: 10,3475           00036        PERFMASK           OCT      0036                                  #  FLASH, PERFORM, BLANK R2 AND R3
001383: 10,3476           00231        V01N25             VN       00125
001384: 10,3477           01407        V06N07             VN       00607                                 #  GOPERF3 VN DISPLAY BEFORE V50
001385: 10,3500           14400        V50N00             VN       5000
001386: 10,3501           00030        PERF2MSK           OCT      00030                                 #  FLASH, PERFORM
001387: 10,3502           01006        V04N06             VN       00406
001388: 10,3503           00014        PERF4MSK           OCT      14                                    #  FLASH, BLANK R3
001389: 10,3504  10,3050               GOAGIN             EQUALS   PINBRNCH
001390: 10,3504           20010        REDOMASK           OCT      20010                                 #  BITS 4 AND 14
001391: 10,3505           40230        MARK3MSK           OCT      40230                                 #  MARK, DECIMAL NOUN, PERFORM, FLASH
001392: 10,3506           40036        MARK4MSK           OCT      40036                                 #  MARK, PERFORM, FLASH, BLANK 2 AND 3
001393: 10,3507           20542        NVCADR             CADR     REDOPRIO
001394: 10,3510           20377        WAKECADR           CADR     MARKPLAY
001395: 10,3511           20615                           CADR     PLAYJUM1
001396:
001397: 10,3512           03400        OCT3400            OCT      3400                                  #  EBANK MASK
001398: 10,3513           11210        NBUSMASK           OCT      11210
001399: 10,3514           66521        PMMASK             OCT      66521
001400: 10,3515     4144               VERBMASK           =        MID7                                  #  (OCT 37600)
001401: 10,3515           01177        V05N00M1           OCT      1177                                  #  V05 MINUS ONE
001402: 10,3516  10,2330               GOXDSP             EQUALS   GOMARK
001403: 10,3516  10,2350               GOXDSPR            EQUALS   GOMARKR
001404: 10,3516  10,2334               GOXDSPF            EQUALS   GOMARKF
001405: 10,3516  10,2353               GOXDSPFR           EQUALS   GOMARKFR
001406: 10,3516     5472               ENDEXT             EQUALS   ENDMARK
001407: 10,3516     0165               MPAC2SAV           EQUALS   BANKSET
001408: 10,3516           00700        NVBUSMSK           OCT      700
001409: 10,3517           00704        ASTROMSK           OCT      704
001410: 10,3520           40030        MPERFMSK           OCT      40030                                 #  BIT 15,5,4 FOR MARK,PERFORM,FLASH
001411: 10,3521           34300        OCT34300           OCT      34300
001412: 10,3522           40100        BITS15+7           OCT      40100
001413: 10,3523           00110        BITS7+4            OCT      110
001414: 10,3524     1070               DSPFLG             EQUALS   EBANKSAV
001415: 10,3524     1071               MARKFLAG           EQUALS   MARKEBAN
001416: 10,3524     1072               SAVEFLAG           EQUALS   EBANKTEM
001417: 10,3524           02020        BITS5+11           OCT      2020                                  #  * DONT MOVE
001418: 10,3525           01010        BITS4+10           OCT      1010                                  #  * DONT MOVE
001419: 10,3526           00026        LOWLOAD            DEC      22         B-14
001420: 10,3527           77730        BUSYMASK           OCT      77730
001421: 10,3530           00050        CADRMASK           OCT      50
001422: 10,3531     7740               PINMASK            EQUALS   13,14,15
001423: 10,3531  10,3070               GOPLAY             EQUALS   NVDSP
001424:                                                                                                  #  PRIOSAVE      EQUALS  R1SAVE
001425: 10,3531     0157               COPMPAC            EQUALS   MPAC       +3
001426: 10,3531     0160               TEMPOR2            EQUALS   MPAC       +4
001427:


001429: 10,3531     0161               OUTHERE            EQUALS   MPAC       +5
001430: 10,3531     0164               COPINDEX           EQUALS   LOC
001431: 10,3531     0163               USERPRIO           EQUALS   MODE
001432: 10,3531     0162               GENMASK            EQUALS   MPAC       +6
001433: 10,3531           20144        PRIOOCT            OCT      20144                                 #  PRIO
001434: 10,3532           42424        MARKOCT            OCT      42424                                 #  MARK
001435: 10,3533           11254                           OCT      11254                                 #  NORM
001436:
001437: 10,3534           74704        IDLESLEP           OCT      74704
001438: 10,3535           67777        OCT67777           OCT      67777
001439: 10,3536     5464               LINUS              EQUALS   BLANKET
001440: 10,3536     0154               FACEREG            EQUALS   MPAC
001441: 10,3536     0155               PLAYTEM1           EQUALS   MPAC       +1
001442: 10,3536     0157               PLAYTEM3           EQUALS   MPAC       +3
001443: 10,3536     0160               PLAYTEM4           EQUALS   MPAC       +4
001444: 10,3536           40420        OCT40420           OCT      40420
001445: 10,3537           02546        MAKEGEN            GENADR   MAKEPLAY
001446: 10,3540           10200        OCT10200           OCT      10200
001447: 10,3541           30200        V97N00             VN       09700                                 #  PASTE FOR V97 OR V99
001448: 10,3542           20100        OCT20100           OCT      20100
001449: 10,3543           24030        CLOCKCON           OCT      24030                                 #  FLASH, PERFORM, V99 OR V97 PASTE, REFLASH

End of include-file DISPLAY_INTERFACE_ROUTINES.agc.  Parent file is MAIN.agc


