
Source Code


000002:                                                                                                  ## Copyright:   Public domain.
000003:                                                                                                  ## Filename:    FLAGWORD_ASSIGNMENTS.agc
000004:                                                                                                  ## Purpose:     Part of the source code for Luminary 1A build 099.
000005:                                                                                                  ##              It is part of the source code for the Lunar Module's (LM)
000006:                                                                                                  ##              Apollo Guidance Computer (AGC), for Apollo 11.
000007:                                                                                                  ## Assembler:   yaYUL
000008:                                                                                                  ## Contact:     Onno Hommes <ohommes@cmu.edu>.
000009:                                                                                                  ## Website:     www.ibiblio.org/apollo.
000010:                                                                                                  ## Pages:       0061-0089
000011:                                                                                                  ## Mod history: 2009-05-15 OH   Transcribed from page images.
000012:                                                                                                  ##              2009-05-17 RSB  Extended to (blank) p. 89.
000013:                                                                                                  ##              2010-12-31 JL   Fixed page number comment.
000014:                                                                                                  ##              2016-12-13 RSB  Proofed text comments with octopus/ProoferComments
000015:                                                                                                  ##                              and corrected the errors found.
000016:                                                                                                  ##              2017-03-02 RSB  Comment-text fixes identified whilst
000017:                                                                                                  ##                              proofing Luminary 116.
000018:                                                                                                  ##              2017-03-03 RSB  Snapshot of Luminary 99 Rev 1.
000019:                                                                                                  ##              2017-03-15 RSB  Comment-text fixes identified in 5-way
000020:                                                                                                  ##                              side-by-side diff of Luminary 69/99/116/131/210.
000021:                                                                                                  ##              2017-08-14 MAS  Fixed a typo found while transcribing Zerlina 56.
000022:


000024:                                                                                                  #  FLAGWORDS 0-11        ARE DOWNLINKED AND CAN BE SET AND CLEARED BY UP-FLAG AND DOWN-FLAG INSTRUCTIONS IN THE
000025:                                                                                                  #                        INTERPRETER.  THESE WERE PREVIOUSLY LISTED UNDER "INTERPRETIVE SWITCH BIT ASSIGNMENTS" IN
000026:                                                                                                  #                        THE ERASABLE LOG SECTION.  FLAGWORDS 12 & 13 WERE PREVIOUSLY RADMODES AND DAPBOOLS AND
000027:                                                                                                  #                        ARE STILL DOWNLINKED UNDER THOSE NAMES.
000028:
000029:                                                                                                  #                ALPHABETICAL LIST OF FLAGWORDS
000030:
000031:
000032:                                                                                                  #  FLAGWORD      DEC. NUMBER     BIT AND FLAG            BIT NAME
000033:
000034:                                                                                                  #  ACCOKFLG      207             BIT  3 FLAG 13          ACCSOKAY
000035:                                                                                                  #  ACC4-2FL      199             BIT 11 FLAG 13          ACC4OR2X
000036:                                                                                                  #  ACMODFLG      032             BIT 13 FLAG  2          ACMODBIT
000037:                                                                                                  #  ALTSCALE      186             BIT  9 FLAG 12          ALTSCBIT
000038:                                                                                                  #  ANTENFLG      183             BIT 12 FLAG 12          ANTENBIT
000039:                                                                                                  #  AORBSFLG      205             BIT  5 FLAG 13          AORBSYST
000040:                                                                                                  #  AORBTFLG      200             BIT 10 FLAG 13          AORBTRAN
000041:                                                                                                  #  APSESW        130             BIT  5 FLAG  8          APSESBIT
000042:                                                                                                  #  APSFLAG       152             BIT 13 FLAG 10          APSFLBIT
000043:                                                                                                  #  ASTNFLAG      108             BIT 12 FLAG  7          ASTNBIT
000044:                                                                                                  #  ATTFLAG       104             BIT  1 FLAG  6          ATTFLBIT
000045:                                                                                                  #  AUTOMODE      193             BIT  2 FLAG 12          AUTOMBIT
000046:                                                                                                  #  AUTR1FLG      209             BIT  1 FLAG 13          AUTRATE1
000047:                                                                                                  #  AUTR2FLG      208             BIT  2 FLAG 13          AUTRATE2
000048:                                                                                                  #  AUXFLAG       103             BIT  2 FLAG  6          AUXFLBIT
000049:                                                                                                  #  AVEGFLAG      115             BIT  5 FLAG  7          AVEGFBIT
000050:                                                                                                  #  AVEMIDSW      149             BIT  1 FLAG  9          AVEMDBIT
000051:                                                                                                  #  AVFLAG        040             BIT  5 FLAG  2          AVFLBIT
000052:                                                                                                  #  CALCMAN2      043             BIT  2 FLAG  2          CALC2BIT
000053:                                                                                                  #  CALCMAN3      042             BIT  3 FLAG  2          CALC3BIT
000054:                                                                                                  #  CDESFLAG      180             BIT 15 FLAG 12          CDESBIT
000055:                                                                                                  #  CMOONFLG      123             BIT 12 FLAG  8          CMOONBIT
000056:                                                                                                  #  COGAFLAG      131             BIT  4 FLAG  8          COGAFBIT
000057:                                                                                                  #  CSMDKFLG      197             BIT 13 FLAG 13          CSMDOCKD
000058:                                                                                                  #  CULTFLAG      053             BIT  7 FLAG  3          CULTBIT
000059:                                                                                                  #  DAPBOOLS                      FLGWRD13
000060:                                                                                                  #  DBSELFLG      206             BIT  4 FLAG 13          DBSELECT
000061:                                                                                                  #  DESIGFLG      185             BIT 10 FLAG 12          DESIGBIT
000062:                                                                                                  #  DIDFLAG       016             BIT 14 FLAG             DIDFLBIT
000063:                                                                                                  #  DIMOFLAG      059             BIT  1 FLAG  3          DIMOBIT
000064:                                                                                                  #  DMENFLG       081             BIT  9 FLAG  5          DMENFBIT
000065:                                                                                                  #  DRIFTDFL      202             BIT  8 FLAG 13          DRIFTBIT
000066:                                                                                                  #  DRIFTFLG      030             BIT 15 FLAG  2          DRFTBIT
000067:                                                                                                  #  DSKYFLAG      075             BIT 15 FLAG  5          DSKYFBIT


000069:                                                                                                  #  D6OR9FLG      058             BIT  2 FLAG  3          D6OR9BIT
000070:                                                                                                  #  ENGONFLG      083             BIT  7 FLAG  5          ENGONBIT
000071:                                                                                                  #  ERADFLAG      017             BIT 13 FLAG  1          ERADFBIT
000072:                                                                                                  #  ETPIFLAG      038             BIT  7 FLAG  2          ETPIBIT         EQUIVALENT FLAG NAME: OPTNSW
000073:                                                                                                  #  FINALFLG      039             BIT  6 FLAG  2          FINALBIT
000074:                                                                                                  #  FLAGWRD0      (000-014)       (STATE +0)
000075:                                                                                                  #  FLAGWRD1      (015-029)       (STATE +1)
000076:                                                                                                  #  FLAGWRD2      (030-044)       (STATE +2)
000077:                                                                                                  #  FLAGWRD3      (045-059)       (STATE +3)
000078:                                                                                                  #  FLAGWRD4      (060-074)       (STATE +4)
000079:                                                                                                  #  FLAGWRD5      (075-089)       (STATE +5)
000080:                                                                                                  #  FLAGWRD6      (090-104)       (STATE +6)
000081:                                                                                                  #  FLAGWRD7      (105-119)       (STATE +7)
000082:                                                                                                  #  FLAGWRD8      (120-134)       (STATE +8D)
000083:                                                                                                  #  FLAGWRD9      (135-149)       (STATE +9D)
000084:                                                                                                  #  FLAP          142             BIT  8 FLAG  9          FLAPBIT
000085:                                                                                                  #  FLGWRD10      (150-164)       (STATE +10D)
000086:                                                                                                  #  FLGWRD11      (165-179)       (STATE +11D)
000087:                                                                                                  #  FLGWRD12      (180-194)       (STATE +12D)
000088:                                                                                                  #  FLGWRD13      (195-209)       (STATE +13D)
000089:                                                                                                  #  FLPC          138             BIT 12 FLAG  9          FLPCBIT
000090:                                                                                                  #  FLPI          139             BIT 11 FLAG  9          FLPIBIT
000091:                                                                                                  #  FLRCS         149             BIT 10 FLAG  9          FLRCSBIT
000092:                                                                                                  #  FLUNDISP      125             BIT 10 FLAG  8          FLUNDBIT
000093:                                                                                                  #  FLVR          136             BIT 14 FLAG  9          FLVRBIT
000094:                                                                                                  #  FREEFLAG      012             BIT  3 FLAG  0          FREEFBIT
000095:                                                                                                  #  FSPASFLG      005             BIT 10 FLAG  0          FSPASBIT
000096:                                                                                                  #  GLOKFAIL      046             BIT 14 FLAG  3          GLOKFBIT
000097:                                                                                                  #  GMBDRVSW      095             BIT 10 FLAG  6          GMBDRBIT
000098:                                                                                                  #  GUESSW        028             BIT  2 FLAG  1          GUESSBIT
000099:                                                                                                  #  HFLSHFLG      179             BIT  1 FLAG 11          HFLSHBIT
000100:                                                                                                  #  IDLEFLAG      113             BIT  7 FLAG  7          IDLEFBIT
000101:                                                                                                  #  IGNFLAG       107             BIT 13 FLAG  7          IGNFLBIT
000102:                                                                                                  #  IMPULSW       036             BIT  9 FLAG  2          IMPULBIT
000103:                                                                                                  #  IMUSE         007             BIT  8 FLAG  0          IMUSEBIT
000104:                                                                                                  #  INFINFLG      128             BIT  7 FLAG  8          INFINBIT
000105:                                                                                                  #  INITALGN      133             BIT  2 FLAG  8          INITABIT
000106:                                                                                                  #  INTFLAG       151             BIT 14 FLAG 10          INTFLBIT
000107:                                                                                                  #  INTYPFLG      056             BIT  4 FLAG  3          INTYPBIT
000108:                                                                                                  #  ITSWICH       105             BIT 15 FLAG  7          ITSWBIT
000109:                                                                                                  #  JSWITCH       001             BIT 14 FLAG  0          JSWCHBIT
000110:                                                                                                  #  LETABORT      141             BIT  9 FLAG  9          LETABBIT
000111:                                                                                                  #  LMOONFLG      124             BIT 11 FLAG  8          LMOONBIT
000112:                                                                                                  #  LOKONSW       010             BIT  5 FLAG  0          LOKONBIT
000113:                                                                                                  #  LOSCMFLG      033             BIT 12 FLAG  2          LOSCMBIT
000114:                                                                                                  #  LRALTFLG      190             BIT  5 FLAG 12          LRALTBIT
000115:                                                                                                  #  LRBYPASS      165             BIT 15 FLAG 11          LRBYBIT
000116:                                                                                                  #  LRINH         172             BIT  8 FLAG 11          LRINHBIT
000117:                                                                                                  #  LRPOSFLG      189             BIT  6 FLAG 12          LRPOSBIT
000118:                                                                                                  #  LRVELFLG      187             BIT  8 FLAG 12          LRVELBIT


000120:                                                                                                  #  LUNAFLAG      048             BIT 12 FLAG  3          LUNABIT
000121:                                                                                                  #  MANUFLAG      106             BIT 14 FLAG  7          MANUFBIT
000122:                                                                                                  #  MGLVFLAG      088             BIT  2 FLAG  5          MGLVFBIT
000123:                                                                                                  #  MIDAVFLG      148             BIT  2 FLAG  9          MIDAVBIT
000124:                                                                                                  #  MIDFLAG       002             BIT 13 FLAG  0          MIDFLBIT
000125:                                                                                                  #  MID1FLAG      147             BIT  3 FLAG  9          MID1BIT
000126:                                                                                                  #  MKOVFLAG      072             BIT  3 FLAG  4          MKOVBIT
000127:                                                                                                  #  MOONFLAG      003             BIT 12 FLAG  0          MOONBIT
000128:                                                                                                  #  MRKIDFLG      060             BIT 15 FLAG  4          MRKIDBIT
000129:                                                                                                  #  MRKNVFLG      066             BIT  9 FLAG  4          MRKNVBIT
000130:                                                                                                  #  MRUPTFLG      070             BIT  5 FLAG  4          MRUPTBIT
000131:                                                                                                  #  MUNFLAG       097             BIT  8 FLAG  6          MUNFLBIT
000132:                                                                                                  #  MWAITFLG      064             BIT 11 FLAG  4          MWAITBIT
000133:                                                                                                  #  NEEDLFLG      011             BIT  4 FLAG  0          NEEDLBIT
000134:                                                                                                  #  NEWIFLG       122             BIT 13 FLAG  8          NEWIBIT
000135:                                                                                                  #  NJETSFLG      015             BIT 15 FLAG             NJETSBIT
000136:                                                                                                  #  NODOFLAG      044             BIT  1 FLAG  2          NODOBIT
000137:                                                                                                  #  NOLRREAD      170             BIT 10 FLAG 11          NOLRRBIT
000138:                                                                                                  #  NORMSW        110             BIT 10 FLAG  7          NORMSBIT
000139:                                                                                                  #  NORRMON       086             BIT  4 FLAG  5          NORRMBIT
000140:                                                                                                  #  NOR29FLG      049             BIT 11 FLAG  3          NR29FBIT
000141:                                                                                                  #  NOTHROTL      078             BIT 12 FLAG  5          NOTHRBIT
000142:                                                                                                  #  NOUPFLAG      024             BIT  6 FLAG  1          NOUPFBIT
000143:                                                                                                  #  NRMNVFLG      067             BIT  8 FLAG  4          NRMNVBIT
000144:                                                                                                  #  NRMIDFLG      062             BIT 13 FLAG  4          NRMIDBIT
000145:                                                                                                  #  NRUPTFLG      071             BIT  4 FLAG  4          NRUPTBIT
000146:                                                                                                  #  NTARGFLG      102             BIT  3 FLAG  6          NTARGBIT
000147:                                                                                                  #  NWAITFLG      065             BIT 10 FLAG  4          NWAITBIT
000148:                                                                                                  #  OLDESFLG      014             BIT  1 FLAG  0          OLDESBIT
000149:                                                                                                  #  OPTNSW        038             BIT  7 FLAG  2          OPTNBIT         EQUIVALENT FLAG NAME: ETPIFLAG
000150:                                                                                                  #  ORBWFLAG      054             BIT  6 FLAG  3          ORBWFBIT
000151:                                                                                                  #  ORDERSW       129             BIT  6 FLAG  8          ORDERBIT
000152:                                                                                                  #  OURRCFLG      198             BIT 12 FLAG 13          OURRCBIT
000153:                                                                                                  #  PDSPFLAG      063             BIT 12 FLAG  4          PDSPFBIT
000154:                                                                                                  #  PFRATFLG      041             BIT  4 FLAG  2          PFRATBIT
000155:                                                                                                  #  PINBRFLG      069             BIT  6 FLAG  4          PINBRBIT
000156:                                                                                                  #  PRECIFLG      052             BIT  8 FLAG  3          PRECIBIT
000157:                                                                                                  #  PRIODFLG      061             BIT 14 FLAG  1          PRIODBIT
000158:                                                                                                  #  PRONVFLG      068             BIT  7 FLAG  4          PRONVBIT
000159:                                                                                                  #  PSTHIGAT      169             BIT 11 FLAG 11          PSTHIBIT
000160:                                                                                                  #  PULSEFLG      195             BIT 15 FLAG 13          PULSES
000161:                                                                                                  #  P21FLAG       004             BIT 11 FLAG  0          P21FLBIT
000162:                                                                                                  #  P25FLAG       006             BIT  9 FLAG  0          P25FLBIT
000163:                                                                                                  #  P39/79SW      126             BIT  9 FLAG  8          P39SWBIT
000164:                                                                                                  #  QUITFLAG      145             BIT 5 FLAG 9            QUITBIT
000165:                                                                                                  #  RADMODES                      FLGWRD12
000166:                                                                                                  #  RASFLAG                       FLGWRD10
000167:                                                                                                  #  RCDUFAIL      188             BIT  7 FLAG 12          RCDUFBIT
000168:                                                                                                  #  RCDU0FLG      182             BIT 13 FLAG 12          RCDU0BIT
000169:                                                                                                  #  READLR        174             BIT  6 FLAG 11          READLBIT


000171:                                                                                                  #  READRFLG      051             BIT  9 FLAG  3          READRBIT        EQUIVALENT FLAG NAME:  R04FLAG
000172:                                                                                                  #  READVEL       175             BIT  5 FLAG 11          READVBIT
000173:                                                                                                  #  REDFLAG       099             BIT  6 FLAG  6          REDFLBIT
000174:                                                                                                  #  REFSMFLG      047             BIT 13 FLAG  3          REFSMBIT
000175:                                                                                                  #  REINTFLG      158             BIT  7 FLAG 10          REINTBIT
000176:                                                                                                  #  REMODFLG      181             BIT 14 FLAG 12          REMODBIT
000177:                                                                                                  #  RENDWFLG      089             BIT  1 FLAG  5          RENDWBIT
000178:                                                                                                  #  REPOSMON      184             BIT 11 FLAG 12          REPOSBIT
000179:                                                                                                  #  RHCSCFLG      203             BIT  7 FLAG 13          RHCSCALE
000180:                                                                                                  #  RNDVZFLG      008             BIT  7 FLAG  0          RNDVZBIT
000181:                                                                                                  #  RNGEDATA      176             BIT  4 FLAG 11          RNGEDBIT
000182:                                                                                                  #  RNGSCFLG      080             BIT 10 FLAG  5          RNGSCBIT
000183:                                                                                                  #  RODFLAG       018             BIT 12 FLAG  1          RODFLBIT
000184:                                                                                                  #  ROTFLAG       144             BIT  6 FLAG  9          ROTFLBIT
000185:                                                                                                  #  RPQFLAG       120             BIT 15 FLAG  8          RPQFLBIT
000186:                                                                                                  #  RRDATAFL      191             BIT  4 FLAG 12          RRDATABT
000187:                                                                                                  #  RRNBSW        009             BIT  6 FLAG  0          RRNBBIT
000188:                                                                                                  #  RRRSFLAG      192             BIT  3 FLAG 12          RRRSBIT
000189:                                                                                                  #  RVSW          111             BIT  9 FLAG  7          RVSWBIT
000190:                                                                                                  #  R04FLAG       051             BIT  9 FLAG  3          R04FLBIT        EQUIVALENT FLAG NAME:  READRFLG
000191:                                                                                                  #  R10FLAG       013             BIT  2 FLAG  0          R10FLBIT
000192:                                                                                                  #  R61FLAG       020             BIT 10 FLAG  1          R61FLBIT
000193:                                                                                                  #  R77FLAG       079             BIT 11 FLAG  5          R77FLBIT
000194:                                                                                                  #  SCALBAD       177             BIT  3 FLAG 11          SCABBIT
000195:                                                                                                  #  SLOPESW       027             BIT  3 FLAG  1          SLOPEBIT
000196:                                                                                                  #  SNUFFER       077             BIT 13 FLAG  5          SNUFFBIT
000197:                                                                                                  #  SOLNSW        087             BIT  3 FLAG  5          SOLNSBIT
000198:                                                                                                  #  SRCHOPTN      031             BIT 14 FLAG  2          SRCHOBIT
000199:                                                                                                  #  STATEFLG      055             BIT  5 FLAG  3          STATEBIT
000200:                                                                                                  #  STEERSW       034             BIT 11 FLAG  2          STEERBIT
000201:                                                                                                  #  SURFFLAG      127             BIT  8 FLAG  8          SURFFBIT
000202:                                                                                                  #  SWANDISP      109             BIT 11 FLAG  7          SWANDBIT
000203:                                                                                                  #  S32.1F1       090             BIT 15 FLAG  6          S32BIT1
000204:                                                                                                  #  S32.1F2       092             BIT 14 FLAG  6          S32BIT2
000205:                                                                                                  #  S32.1F3A      092             BIT 13 FLAG  6          S32BIT3A
000206:                                                                                                  #  S32.1S3B      093             BIT 12 FLAG  6          S32BIT3B
000207:                                                                                                  #  TFFSW         119             BIT  1 FLAG  7          TFFSWBIT
000208:                                                                                                  #  TRACKFLG      025             BIT  5 FLAG  1          TRACKBIT
000209:                                                                                                  #  TURNONFL      194             BIT  1 FLAG 12          TURNONBT
000210:                                                                                                  #  ULLAGFLG      204             BIT  6 FLAG 13          ULLAGER
000211:                                                                                                  #  UPDATFLG      023             BIT  7 FLAG  1          UPDATBIT
000212:                                                                                                  #  UPLOCKFL      116             BIT  4 FLAG 7           UPLOCBIT
000213:                                                                                                  #  USEQRFLG      196             BIT 14 FLAG 13          USEQRJTS
000214:                                                                                                  #  VEHUPFLG      022             BIT  8 FLAG  1          VEHUPBIT
000215:                                                                                                  #  VELDATA       173             BIT  7 FLAG 11          VELDABIT
000216:                                                                                                  #  VERIFLAG      117             BIT  3 FLAG  7          VERIFBIT
000217:                                                                                                  #  VFLAG         050             BIT 10 FLAG  3          VFLAGBIT
000218:                                                                                                  #  VFLSHFLG      178             BIT  2 FLAG 11          VFLSHBIT
000219:                                                                                                  #  VINTFLAG      057             BIT  3 FLAG  3          VINTFBIT
000220:                                                                                                  #  VXINH         168             BIT 12 FLAG 11          VXINHBIT


000222:                                                                                                  #  V37FLAG       114             BIT  6 FLAG  7          V37FLBIT
000223:                                                                                                  #  V67FLAG       112             BIT  8 FLAG  7          V67FLBIT
000224:                                                                                                  #  V82EMFLG      118             BIT  2 FLAG  7          V82EMBIT
000225:                                                                                                  #  XDELVFLG      037             BIT  8 FLAG  2          XDELVBIT
000226:                                                                                                  #  XDSPFLAG      074             BIT  1 FLAG  4          XDSPBIT
000227:                                                                                                  #  XORFLG        171             BIT  9 FLAG 11          XORFLBIT
000228:                                                                                                  #  XOVINFLG      201             BIT  9 FLAG 13          XOVINHIB
000229:                                                                                                  #  3AXISFLG      084             BIT  6 FLAG  5          3AXISBIT
000230:                                                                                                  #  360SW         134             BIT  1 FLAG  8          360SWBIT
000231:
000232:                                                                                                  #  ASSIGNMENT AND DESCRIPTION OF FLAGWORDS
000233:
000234: 26,2022     0074               FLAGWRD0           =        STATE      +0                         #  (000-014)
000235:
000236:                                                                                                  #        (SET)                   (RESET)
000237:
000238:                                                                                                  #  BIT 15 FLAG 0 (S)
000239:                                                                                                  #                =       000D
000240:                                                                                                  #                =       BIT15
000241:
000242:                                                                                                  #  BIT 14 FLAG 0 (S)
000243: 26,2022                        JSWITCH            =        001D                                  #        INTEGRATION OF W        INTEGRATION OF STATE
000244: 26,2022     4736               JSWCHBIT           =        BIT14                                 #        MATRIX                  VECTOR
000245:
000246:                                                                                                  #  BIT 13 FLAG 0 (S)
000247: 26,2022                        MIDFLAG            =        002D                                  #        INTEGRATION WITH        INTEGRATION WITHOUT
000248:                                                                                                  #        SECONDARY BODY AND      SOLAR PERTURBATIONS
000249: 26,2022     4737               MIDFLBIT           =        BIT13                                 #        SOLAR PERTURBATIONS
000250:
000251:                                                                                                  #  BIT 12 FLAG 0 (L)
000252: 26,2022                        MOONFLAG           =        003D                                  #        MOON IS SPHERE OF       EARTH IS SPHERE OF
000253: 26,2022     4740               MOONBIT            =        BIT12                                 #        INFLUENCE               INFLUENCE
000254:
000255:                                                                                                  #  BIT 11 FLAG 0
000256: 26,2022                        P21FLAG            =        004D                                  #        USE BASE VECTORS        1ST PASS -- CALC-
000257: 26,2022     4741               P21FLBIT           =        BIT11                                 #        ALREADY CALCULATED      ULATE BASE VECTORS
000258:
000259:                                                                                                  #  BIT 10 FLAG 0
000260: 26,2022                        FSPASFLG           =        005D                                  #        FIRST PASS THROUGH      NOT FIRST PASS THRU
000261: 26,2022     4742               FSPASBIT           =        BIT10                                 #        REPOSITION ROUTINE      REPOSITION ROUTINE
000262:


000264:                                                                                                  #  BIT 9 FLAG 0  (S)
000265: 26,2022                        P25FLAG            =        006D                                  #        P25 OPERATING           P25 NOT OPERATING
000266: 26,2022     4743               P25FLBIT           =        BIT9
000267:
000268:                                                                                                  #  BIT 8 FLAG 0  (S)
000269: 26,2022                        IMUSE              =        007D                                  #        IMU IN USE              IMU NOT IN USE
000270: 26,2022     4744               IMUSEBIT           =        BIT8
000271:
000272:                                                                                                  #  BIT 7 FLAG 0  (S)
000273: 26,2022                        RNDVZFLG           =        008D                                  #        P20 RUNNING (RADAR      P20 NOT RUNNING
000274: 26,2022     4745               RNDVZBIT           =        BIT7                                  #        IN USE)
000275:
000276:                                                                                                  #  BIT 6 FLAG 0  (S)
000277: 26,2022                        RRNBSW             =        009D                                  #        RADAR TARGET IN         RADAR TARGET IN
000278: 26,2022     4746               RRNBBIT            =        BIT6                                  #        NB COORDINATES          SM COORDINATES
000279:
000280:                                                                                                  #  BIT 5 FLAG 0  (S)
000281: 26,2022                        LOKONSW            =        010D                                  #        RADAR LOCK-ON           RADAR LOCK-ON NOT
000282: 26,2022     4747               LOKONBIT           =        BIT5                                  #        DESIRED                 DESIRED
000283:
000284:                                                                                                  #  BIT 4 FLAG 0  (S)
000285: 26,2022                        NEEDLFLG           =        011D                                  #        TOTAL ATTITUDE          A/P FOLLOWING
000286: 26,2022     4750               NEEDLBIT           =        BIT4                                  #        ERROR DISPLAYED         ERROR DISPLAYED
000287:
000288:                                                                                                  #  BIT 3 FLAG 0
000289: 26,2022                        FREEFLAG           =        012D                                  #  (USED BY P51-53 TEMP IN MANY DIFFERENT
000290:                                                                                                  #  ROUTINES & BY LUNAR + SOLAR EPHEMERIDES)
000291: 26,2022     4751               FREEFBIT           =        BIT3
000292:
000293:                                                                                                  #  BIT 2 FLAG 0
000294: 26,2022                        R10FLAG            =        013D                                  #        R10 OUTPUTS DATA TO     BESIDES OUTPUT WHEN
000295: 26,2022     4752               R10FLBIT           =        BIT2                                  #        ALTITUDE & ALTITUDE     SET, R10 ALSO OUTPUT
000296:                                                                                                  #        RATE METERS ONLY        TO FORWARD & LATERAL
000297:                                                                                                  #                                VELOCITY CROSSPOINTR
000298:
000299:                                                                                                  #  BIT 1 FLAG 0  (L)
000300: 26,2022                        OLDESFLG           =        014D                                  #        R29 GYRO CMD LOOP       R29 GYRO CMD LOOP
000301: 26,2022     4753               OLDESBIT           =        BIT1                                  #        REQUESTED               NOT REQUESTED
000302:
000303:
000304: 26,2022     0075               FLAGWRD1           =        STATE      +1                         #  (015-029)
000305:


000307:                                                                                                  #        (SET)                   (RESET)
000308:
000309:                                                                                                  #  BIT 15 FLAG 1 (S)
000310: 26,2022                        NJETSFLG           =        015D                                  #        TWO JET RCS BURN        FOUR JET RCS BURN
000311: 26,2022     4735               NJETSBIT           =        BIT15
000312:
000313:                                                                                                  #  BIT 14 FLAG 1 (L)
000314: 26,2022                        DIDFLAG            =        016D                                  #        INERTIAL DATA IS        PERFORM DATA DISPLAY
000315: 26,2022     4736               DIDFLBIT           =        BIT14                                 #        AVAILABLE               INITIALIZATION FUNCS
000316:
000317:                                                                                                  #  BIT 13 FLAG 1 (S)
000318: 26,2022                        ERADFLAG           =        017D                                  #        COMPUTE REARTH          USE CONSTANT REARTH
000319: 26,2022     4737               ERADFBIT           =        BIT13                                 #        FISCHER ELLIPSOID       PAD RADIUS
000320:
000321:                                                                                                  #  BIT 12 FLAG 1
000322: 26,2022                        RODFLAG            =        018D                                  #        IF IN P66, NORMAL       IF IN P66, RE-INIT-
000323: 26,2022     4740               RODFLBIT           =        BIT12                                 #        OPERATION CONTINUES.    IALIZATION IS PER-
000324:                                                                                                  #        RESTART CLEARS FLAG     FORMED AND FLAG IS
000325:
000326:                                                                                                  #  BIT 11 FLAG 1
000327:                                                                                                  #                =       019D
000328:                                                                                                  #                =       BIT11
000329:
000330:                                                                                                  #  BIT 10 FLAG 1 (L)
000331: 26,2022                        R61FLAG            =        020D                                  #        RUN R61 LEM             RUN R65 LEM
000332: 26,2022     4742               R61FLBIT           =        BIT10
000333:
000334:                                                                                                  #  BIT 9 FLAG 1
000335:                                                                                                  #                =       021D
000336:                                                                                                  #                =       BIT9
000337:
000338:                                                                                                  #  BIT 8 FLAG 1  (S)
000339: 26,2022                        VEHUPFLG           =        022D                                  #        CSM STATE VECTOR        LEM STATE VECTOR
000340: 26,2022     4744               VEHUPBIT           =        BIT8                                  #        BEING UPDATED           BEING UPDATED
000341:
000342:                                                                                                  #  BIT 7 FLAG 1  (S)
000343: 26,2022                        UPDATFLG           =        023D                                  #        UPDATING BY MARKS       UPDATING BY MARKS
000344: 26,2022     4745               UPDATBIT           =        BIT7                                  #        ALLOWED                 NOT ALLOWED
000345:
000346:                                                                                                  #  BIT 6 FLAG 1  (S)
000347: 26,2022                        NOUPFLAG           =        024D                                  #        NEITHER CSM             EITHER STATE
000348:                                                                                                  #        NOR LM STATE VECTOR     VECTOR MAY BE
000349: 26,2022     4746               NOUPFBIT           =        BIT6                                  #        MAY BE UPDATED          UPDATED
000350:


000352:                                                                                                  #  BIT 5 FLAG 1  (S)
000353: 26,2022                        TRACKFLG           =        025D                                  #        TRACKING ALLOWED        TRACKING NOT ALLOWED
000354: 26,2022     4747               TRACKBIT           =        BIT5
000355:
000356:                                                                                                  #  BIT 4 FLAG 1
000357:                                                                                                  #                =       026D
000358:                                                                                                  #                =       BIT4
000359:
000360:                                                                                                  #  BIT 3 FLAG 1  (S)
000361: 26,2022                        SLOPESW            =        027D                                  #        ITERATE WITH BIAS       ITERATE WITH REGULAR
000362:                                                                                                  #        METHOD IN ITERATOR      FALSI METHOD IN
000363: 26,2022     4751               SLOPEBIT           =        BIT3                                  #                                ITERATOR
000364:
000365:                                                                                                  #  BIT 2 FLAG 1  (S)
000366: 26,2022                        GUESSW             =        028D                                  #        NO STARTING VALUE       STARTING VALUE FOR
000367: 26,2022     4752               GUESSBIT           =        BIT2                                  #        FOR ITERATION           ITERATION EXISTS
000368:
000369:                                                                                                  #  BIT 1 FLAG 1
000370:                                                                                                  #                =       029D
000371:
000372: 26,2022     0076               FLAGWRD2           =        STATE      +2                         #  (030-044)
000373:
000374:                                                                                                  #        (SET)                   (RESET)
000375:
000376:                                                                                                  #  BIT 15 FLAG 2 (S)
000377: 26,2022                        DRIFTFLG           =        030D                                  #        T3RUPT CALLS GYRO       T3RUPT DOES NO GYRO
000378: 26,2022     4735               DRFTBIT            =        BIT15                                 #        COMPENSATION            COMPENSATION
000379:
000380:                                                                                                  #  BIT 14 FLAG 2 (S)
000381: 26,2022                        SRCHOPTN           =        031D                                  #        RADAR IN AUTOMATIC      RADAR NOT IN AUTO-
000382: 26,2022     4736               SRCHOBIT           =        BIT14                                 #        SEARCH OPTION (R24)     MATIC SEARCH OPTION
000383:
000384:                                                                                                  #  BIT 13 FLAG 2 (S)
000385: 26,2022                        ACMODFLG           =        032D                                  #        MANUAL ACQUISITION      AUTO ACQUISITION
000386: 26,2022     4737               ACMODBIT           =        BIT13                                 #        BY RENDESVOUS RADAR     BY RENDESVOUS RADAR
000387:
000388:                                                                                                  #  BIT 12 FLAG 2 (S)
000389: 26,2022                        LOSCMFLG           =        033D                                  #        LINE OF SIGHT BEING     LINE OF SIGHT NOT
000390:                                                                                                  #        COMPUTED (R21)          BEING COMPUTED
000391: 26,2022     4740               LOSCMBIT           =        BIT12
000392:


000394:                                                                                                  #        IN R29 (L): RR GYRO     IN R29 (L): RR GYRO
000395:                                                                                                  #        CMD LOOP RUNNING        CMD LOOP OFF
000396:
000397:                                                                                                  #  BIT 11 FLAG 2 (S)
000398: 26,2022                        STEERSW            =        034D                                  #        SUFFICIENT THRUST       INSUFFICIENT THRUST
000399: 26,2022     4741               STEERBIT           =        BIT11                                 #        IS PRESENT              IS PRESENT
000400:
000401:                                                                                                  #  BIT 10 FLAG 2 (S)
000402:
000403:                                                                                                  #  BIT 9 FLAG 2 (S)
000404: 26,2022                        IMPULSW            =        036D                                  #        MINIMUM IMPULSE         STEERING BURN (NO
000405:                                                                                                  #        BURN (CUTOFF TIME       CUTOFF TIME YET
000406: 26,2022     4743               IMPULBIT           =        BIT9                                  #        SPECIFIED)              AVAILABLE)
000407:
000408:                                                                                                  #  BIT 8 FLAG 2 (S)
000409: 26,2022                        XDELVFLG           =        037D                                  #        EXTERNAL DELTAV VG      LAMBERT (AIMPOINT)
000410: 26,2022     4744               XDELVBIT           =        BIT8                                  #        COMPUTATION             VG COMPUTATION
000411:
000412:                                                                                                  #  BIT 7 FLAG 2 (S)
000413: 26,2022                        ETPIFLAG           =        038D                                  #        ELEVATION ANGLE         TPI TIME SUPPLIED
000414:                                                                                                  #        SUPPLIED FOR            FOR P34,74 TO COMPUT
000415: 26,2022     4745               ETPIBIT            =        BIT7                                  #        P34,74                  ELEVATION
000416:
000417:                                                                                                  #  BIT 7 FLAG 2 (L)
000418: 26,2022  0000046               OPTNSW             =        ETPIFLAG                              #        SOI PHASE OF P38/78     SOR PHASE OF P38/78
000419: 26,2022     4745               OPTNBIT            =        BIT7
000420:
000421:                                                                                                  #  BIT 6 FLAG 2 (S)
000422: 26,2022                        FINALFLG           =        039D                                  #        LAST PASS THROUGH       INTERIM PASS THROUGH
000423:                                                                                                  #        RENDEZVOUS PROGRAM      RENDEZVOUS PROGRAM
000424: 26,2022     4746               FINALBIT           =        BIT6                                  #        COMPUTATIONS            COMPUTATIONS
000425:
000426:                                                                                                  #  BIT 5 FLAG 2 (S)
000427: 26,2022                        AVFLAG             =        040D                                  #        LEM IS ACTIVE           CSM IS ACTIVE
000428: 26,2022     4747               AVFLBIT            =        BIT5                                  #        VEHICLE                 VEHICLE
000429:
000430:                                                                                                  #  BIT 4 FLAG 2 (S)
000431: 26,2022                        PFRATFLG           =        041D                                  #        PREFERRED ATTITUDE      PREFERRED ATTITUDE
000432: 26,2022     4750               PFRATBIT           =        BIT4                                  #        COMPUTED                NOT COMPUTED
000433:
000434:                                                                                                  #  BIT 3 FLAG 2 (S)
000435:


000437: 26,2022                        CALCMAN3           =        042D                                  #        NO FINAL ROLL           FINAL ROLL IS
000438: 26,2022     4751               CALC3BIT           =        BIT3                                  #                                NECESSARY
000439:
000440:                                                                                                  #  BIT 2 FLAG 2 (S)
000441: 26,2022                        CALCMAN2           =        043D                                  #        PERFORM MANEUVER        BYPASS STARTING
000442: 26,2022     4752               CALC2BIT           =        BIT2                                  #        STARTING PROCEDURE      PROCEDURE
000443:
000444:                                                                                                  #  BIT 1 FLAG 2 (S)
000445: 26,2022                        NODOFLAG           =        044D                                  #        V37 NOT PERMITTED       V37 PERMITTED
000446: 26,2022     4753               NODOBIT            =        BIT1
000447:
000448: 26,2022     0077               FLAGWRD3           =        STATE      +3                         #  (045-059)
000449:
000450:                                                                                                  #        (SET)                   (RESET)
000451:
000452:                                                                                                  #  BIT 15 FLAG 3
000453:                                                                                                  #                =       045D
000454:
000455:                                                                                                  #  BIT 14 FLAG 3 (S)
000456: 26,2022                        GLOKFAIL           =        046D                                  #        GIMBAL LOCK HAS         NOT IN GIMBAL LOCK
000457: 26,2022     4736               GLOKFBIT           =        BIT14                                 #        OCCURRED
000458:
000459:                                                                                                  #  BIT 13 FLAG 3 *** PROTECTED FROM FRESH START ***
000460: 26,2022                        REFSMFLG           =        047D                                  #        REFSMMAT GOOD           REFSMMAT NO GOOD
000461: 26,2022     4737               REFSMBIT           =        BIT13
000462:
000463:                                                                                                  #  BIT 12 FLAG 3 (S)
000464: 26,2022                        LUNAFLAG           =        048D                                  #        LUNAR LAT-LONG          EARTH LAT-LONG
000465: 26,2022     4740               LUNABIT            =        BIT12
000466:
000467:                                                                                                  #  BIT 11 FLAG 3 (L)
000468: 26,2022                        NOR29FLG           =        049D                                  #        R29 NOT ALLOWED         R29 ALOWED (RR DES-
000469: 26,2022     4741               NR29FBIT           =        BIT11                                 #                                IGNATE, POWERED FLT)
000470:
000471:                                                                                                  #  BIT 10 FLAG 3 (S)
000472: 26,2022                        VFLAG              =        050D                                  #        LESS THAN TWO STARS     TWO STARS IN FIELD
000473: 26,2022     4742               VFLAGBIT           =        BIT10                                 #        IN FIELD OF VIEW        OF VIEW
000474:
000475:                                                                                                  #  BIT 9 FLAG 3  (S)
000476: 26,2022                        R04FLAG            =        051D                                  #        ALARM 521               ALARM 521 ALLOWED
000477:                                                                                                  #        SUPPRESSED


000479: 26,2022     4743               R04FLBIT           =        BIT9
000480:
000481:                                                                                                  #  BIT 9 FLAG 3  (L)
000482: 26,2022  0000063               READRFLG           =        R04FLAG                               #        READING RR DATA         NOT READING RR DATA
000483: 26,2022     4743               READRBIT           =        BIT9                                  #        PURSUANT TO R29         PURSUANT TO R29
000484:
000485:                                                                                                  #  BIT 8 FLAG 3  (S)
000486: 26,2022                        PRECIFLG           =        052D                                  #        NORMAL INTEGRATION      ENGAGES 4-TIME STEP
000487:                                                                                                  #        IN POO                  (POO) LOGIC IN INTE-
000488: 26,2022     4744               PRECIBIT           =        BIT8                                  #                                GRATION
000489:
000490:                                                                                                  #  BIT 7 FLAG 3  (S)
000491: 26,2022                        CULTFLAG           =        053D                                  #        STAR OCCULTED           STAR NOT OCCULTED
000492: 26,2022     4745               CULTBIT            =        BIT7
000493:
000494:                                                                                                  #  BIT 6 FLAG 3  (S)
000495: 26,2022                        ORBWFLAG           =        054D                                  #        W MATRIX VALID FOR      W MATRIX INVALID FOR
000496: 26,2022     4746               ORBWFBIT           =        BIT6                                  #        ORBITAL NAVIGATION      ORBITAL NAVIGATION
000497:
000498:                                                                                                  #  BIT 5 FLAG 3  (S)
000499: 26,2022                        STATEFLG           =        055D                                  #        PERMANENT STATE         PERMANENT STATE
000500: 26,2022     4747               STATEBIT           =        BIT5                                  #        VECTOR UPDATED          VECTOR NOT UPDATED
000501:
000502:                                                                                                  #  BIT 4 FLAG 3  (S)
000503: 26,2022                        INTYPFLG           =        056D                                  #        CONIC INTEGRATION       ENCKE INTEGRATION
000504: 26,2022     4750               INTYPBIT           =        BIT4
000505:
000506:                                                                                                  #  BIT 3 FLAG 3  (S)
000507: 26,2022                        VINTFLAG           =        057D                                  #        CSM STATE VECTOR        LEM STATE VECTOR
000508: 26,2022     4751               VINTFBIT           =        BIT3                                  #        BEING INTEGRATED        BEING INTEGRATED
000509:
000510:                                                                                                  #  BIT 2 FLAG 3 (S)
000511: 26,2022                        D6OR9FLG           =        058D                                  #        DIMENSION OF W IS 9     DIMENSION OF W IS 6
000512: 26,2022     4752               D6OR9BIT           =        BIT2                                  #        FOR INTEGRATION         FOR INTEGRATION
000513:
000514:                                                                                                  #  BIT 1 FLAG 3  (S)
000515: 26,2022                        DIM0FLAG           =        059D                                  #        W MATRIX IS TO BE       W MATRIX IS NOT TO
000516: 26,2022     4753               DIM0BIT            =        BIT1                                  #        USED                    BE USED
000517:
000518: 26,2022     0100               FLAGWRD4           =        STATE      +4                         #  (060-074)
000519:


000521:                                                                                                  #        (SET)                   (RESET)
000522:
000523:                                                                                                  #  BIT 15 FLAG 4 (S)
000524: 26,2022                        MRKIDFLG           =        060D                                  #        MARK DISPLAY IN         NO MARK DISPLAY IN
000525: 26,2022     4735               MRKIDBIT           =        BIT15                                 #        ENDIDLE                 ENDIDLE
000526:
000527:                                                                                                  #  BIT 14 FLAG 4 (S)
000528: 26,2022                        PRIODFLG           =        061D                                  #        PRIORITY DISPLAY IN     NO PRIORITY DISPLAY
000529: 26,2022     4736               PRIODBIT           =        BIT14                                 #        ENDIDLE                 IN ENDIDLE
000530:
000531:                                                                                                  #  BIT 13 FLAG 4 (S)
000532: 26,2022                        NRMIDFLG           =        062D                                  #        NORMAL DISPLAY IN       NO NORMAL DISPLAY
000533: 26,2022     4737               NRMIDBIT           =        BIT13                                 #        ENDIDLE                 IN ENDIDLE
000534:
000535:                                                                                                  #  BIT 12 FLAG 4 (S)
000536: 26,2022                        PDSPFLAG           =        063D                                  #        P20 SETS SO AS TO       LEAVE AS NORMAL DISP
000537:                                                                                                  #        TURN A NORMAL DIS-
000538: 26,2022     4740               PDSPFBIT           =        BIT12                                 #        PLAY INTO A PRIORITY
000539:                                                                                                  #        DISPLAY IN R60
000540:
000541:                                                                                                  #  BIT 11 FLAG 4 (S)
000542: 26,2022                        MWAITFLG           =        064D                                  #        HIGHER PRIORITY         NO HIGHER PRIORITY
000543:                                                                                                  #        DISPLAY OPERATING       DISPLAY OPERATING
000544: 26,2022     4741               MWAITBIT           =        BIT11                                 #        WHEN MARK DISPLAY       WHEN MARK DISPLAY
000545:                                                                                                  #        INITIATED               INITIATED
000546:
000547:                                                                                                  #  BIT 10 FLAG 4 (S)
000548: 26,2022                        NWAITFLG           =        065D                                  #        HIGHER PRIORITY         NO HIGHER PRIORITY
000549:                                                                                                  #        DISPLAY OPERATING       DISPLAY OPERATING
000550: 26,2022     4742               NWAITBIT           =        BIT10                                 #        WHEN NORMAL             WHEN NORMAL DISPLAY
000551:                                                                                                  #        DISPLAY INITIATED       INITIATED
000552:
000553:                                                                                                  #  BIT 9 FLAG 4  (S)
000554: 26,2022                        MRKNVFLG           =        066D                                  #        ASTRONAUT USING         ASTRONAUT NOT USING
000555:                                                                                                  #        KEYBOARD WHEN MARK      KEYBOARD WHEN MARK
000556: 26,2022     4743               MRKNVBIT           =        BIT9                                  #        DISPLAY INITIATED       DISPLAY INITIATED
000557:
000558:                                                                                                  #  BIT 8 FLAG 4  (S)
000559: 26,2022                        NRMNVFLG           =        067D                                  #        ASTRONAUT USING         ASTRONAUT NOT USING
000560:                                                                                                  #        KEYBOARD WHEN           KEYBOARD WHEN
000561: 26,2022     4744               NRMNVBIT           =        BIT8                                  #        NORMAL DISPLAY          NORMAL DISPLAY
000562:                                                                                                  #        INITIATED               INITIATED
000563:
000564:                                                                                                  #  BIT 7 FLAG 4  (S)
000565: 26,2022                        PRONVFLG           =        068D                                  #        ASTRONAUT USING         ASTRONAUT NOT USING
000566:


000568:                                                                                                  #        KEYBOARD WHEN           KEYBOARD WHEN
000569: 26,2022     4745               PRONVBIT           =        BIT7                                  #        PRIORITY DISPLAY        PRIORITY DISPLAY
000570:                                                                                                  #        INITIATED               INITIATED
000571:
000572:                                                                                                  #  BIT 6 FLAG 4  (S)
000573: 26,2022                        PINBRFLG           =        069D                                  #        ASTRONAUT HAS           ASTRONAUT HAS NOT
000574:                                                                                                  #        INTERFERED WITH         INTERFERED WITH
000575: 26,2022     4746               PINBRBIT           =        BIT6                                  #        EXISTING DISPLAY        EXISTING DISPLAY
000576:
000577:                                                                                                  #  BIT 5 FLAG 4  (S)
000578: 26,2022                        MRUPTFLG           =        070D                                  #        MARK DISPLAY            MARK DISPLAY NOT
000579:                                                                                                  #        INTERRUPTED BY          INTERRUPTED BY
000580: 26,2022     4747               MRUPTBIT           =        BIT5                                  #        PRIORITY DISPLAY        PRIORITY DISPLAY
000581:
000582:                                                                                                  #  BIT 4 FLAG 4  (S)
000583: 26,2022                        NRUPTFLG           =        071D                                  #        NORMAL DISPLAY          NORMAL DISPLAY NOT
000584:                                                                                                  #        INTERRUPTED BY          INTERRUPTED BY
000585: 26,2022     4750               NRUPTBIT           =        BIT4                                  #        PRIORITY OR MARK        PRIORITY OR MARK
000586:                                                                                                  #        DISPLAY                 DISPLAY
000587:
000588:                                                                                                  #  BIT 3 FLAG 4  (S)
000589: 26,2022                        MKOVFLAG           =        072D                                  #        MARK DISPLAY OVER       NO MARK DISPLAY OVER
000590: 26,2022     4751               MKOVBIT            =        BIT3                                  #        NORMAL                  NORMAL
000591:
000592:                                                                                                  #  BIT 2 FLAG 4
000593:                                                                                                  #                =       073D
000594:
000595:
000596:                                                                                                  #  BIT 1 FLAG 4  (S)
000597: 26,2022                        XDSPFLAG           =        074D                                  #        MARK DISPLAY NOT        NO SPECIAL MARK
000598: 26,2022     4753               XDSPBIT            =        BIT1                                  #        TO BE INTERRUPTED       INFORMATION
000599:
000600: 26,2022     0101               FLAGWRD5           =        STATE      +5                         #  (075-089)
000601:
000602:                                                                                                  #        (SET)                   (RESET)
000603:
000604:                                                                                                  #  BIT 15 FLAG 5 (S)
000605: 26,2022                        DSKYFLAG           =        075D                                  #        DISPLAYS SENT TO        NO DISPLAYS TO DSKY
000606: 26,2022     4735               DSKYFBIT           =        BIT15                                 #        DSKY
000607:
000608:                                                                                                  #  BIT 14 FLAG 5
000609:                                                                                                  #                =       076D
000610:                                                                                                  #                =       BIT14
000611:


000613:                                                                                                  #  BIT 13 FLAG 5 (S,L)
000614: 26,2022                        SNUFFER            =        077D                                  #        U,V JETS DISABLED       U,V JETS ENABLED
000615:                                                                                                  #        DURING DPS              DURING DPS
000616: 26,2022     4737               SNUFFBIT           =        BIT13                                 #        BURNS (V65)             BURNS (V75)
000617:
000618:                                                                                                  #  BIT 12 FLAG 5 (S)
000619: 26,2022                        NOTHROTL           =        078D                                  #        INHIBIT FULL            PERMIT FULL THROTTLE
000620: 26,2022     4740               NOTHRBIT           =        BIT12                                 #        THROTTLE
000621:
000622:                                                                                                  #  BIT 11 FLAG 5 (S,L)
000623: 26,2022                        R77FLAG            =        079D                                  #        R77 IS ON,              R77 IS NOT ON.
000624:                                                                                                  #        SUPPRESS ALL RADAR
000625:                                                                                                  #        ALARMS AND TRACKER
000626: 26,2022     4741               R77FLBIT           =        BIT11                                 #        FAILS
000627:
000628:                                                                                                  #  BIT 10 FLAG 5 (S)
000629: 26,2022                        RNGSCFLG           =        080D                                  #        SCALE CHANGE HAS        NO SCALE CHANGE HAS
000630:                                                                                                  #        OCCURRED DURING         OCCURRED DURING
000631: 26,2022     4742               RNGSCBIT           =        BIT10                                 #        RR READING              RR READING
000632:
000633:                                                                                                  #  BIT 9 FLAG 5  (S)
000634: 26,2022                        DMENFLG            =        081D                                  #        DIMENSION OF W IS 9     DIMENSION OF W IS 6
000635: 26,2022     4743               DMENFBIT           =        BIT9                                  #        FOR INCORPORATION       FOR INCORPORATION
000636:
000637:                                                                                                  #  BIT 8 FLAG 5  (S)
000638:                                                                                                  #                =       082D
000639:                                                                                                  #                =       BIT8
000640:
000641:                                                                                                  #  BIT 7 FLAG 5  (S)
000642: 26,2022                        ENGONFLG           =        083D                                  #        ENGINE TURNED ON        ENGINE TURNED OFF
000643: 26,2022     4745               ENGONBIT           =        BIT7                                  #
000644:
000645:                                                                                                  #  BIT 6 FLAG 5  (S)
000646: 26,2022                        3AXISFLG           =        084D                                  #        MANEUVER SPECIFIED      MANEUVER SPECIFIED
000647:                                                                                                  #        BY THREE AXES           BY ONE AXIS; R60
000648: 26,2022     4746               3AXISBIT           =        BIT6                                  #                                CALLS VECPOINT.
000649:
000650:                                                                                                  #  BIT 5 FLAG 5
000651:                                                                                                  #                =       085D
000652:
000653:                                                                                                  #  BIT 4 FLAG 5  (S)
000654:


000656: 26,2022                        NORRMON            =        086D                                  #        BYPASS RR GIMBAL        PERFORM
000657: 26,2022     4750               NORRMBIT           =        BIT4                                  #        MONITOR                 RR GIMBAL MONITOR
000658:
000659:                                                                                                  #  BIT 3 FLAG 5  (S)
000660: 26,2022                        SOLNSW             =        087D                                  #        LAMBERT DOES NOT        LAMBERT CONVERGES OR
000661:                                                                                                  #        CONVERGE, OR TIME-RAD   TIME-RADIUS NON
000662: 26,2022     4751               SOLNSBIT           =        BIT3                                  #        NEARLY CIRCULAR         CIRCULAR
000663:
000664:                                                                                                  #  BIT 2 FLAG 5  (S)
000665: 26,2022                        MGLVFLAG           =        088D                                  #        LOCAL VERTICAL          MIDDLE GIMBAL ANGLE
000666:                                                                                                  #        COORDINATES             COMPUTED
000667: 26,2022     4752               MGLVFBIT           =        BIT2                                  #        COMPUTED
000668:
000669:                                                                                                  #  BIT 1 FLAG 5  (S)
000670: 26,2022                        RENDWFLG           =        089D                                  #        W MATRIX VALID          W MATRIX INVALID
000671:                                                                                                  #        FOR RENDEZVOUS          FOR RENDEZVOUS
000672: 26,2022     4753               RENDWBIT           =        BIT1                                  #        NAVIGATION              NAVIGATION
000673:
000674:
000675: 26,2022     0102               FLAGWRD6           =        STATE      +6                         #  (090-104)
000676:
000677:                                                                                                  #        (SET)                   (RESET)
000678:
000679:                                                                                                  #  BIT 15 FLAG 6 (S)
000680: 26,2022                        S32.1F1            =        090D                                  #        DELTA V AT CSI TIME     DVT1 LESS THEN MAX
000681: 26,2022     4735               S32BIT1            =        BIT15                                 #        ONE EXCEEDS MAX
000682:
000683:                                                                                                  #  BIT 14 FLAG 6 (S)
000684: 26,2022                        S32.1F2            =        091D                                  #        FIRST PASS OF           REITERATION OF
000685: 26,2022     4736               S32BIT2            =        BIT14                                 #        NEWTON ITERATION        NEWTON
000686:
000687:                                                                                                  #  BIT 13 FLAG 6 (S)
000688: 26,2022                        S32.1F3A           =        092D                                  #  BIT 13 AND BIT 12 FUNCTION AS AN ORDERED
000689: 26,2022     4737               S32BIT3A           =        BIT13                                 #  PAIR (13,12) INDICATING THE POSSIBLE OC-
000690:                                                                                                  #  CURRANCE OF 2NEWTON ITERATIONS FOR S32.1
000691:                                                                                                  #  IN THE PROGRAM IN THE FOLLOWING ORDER:
000692:                                                                                                  #  BIT 12 FLAG 6                                   (0,1) (I.E. BIT 13 RESET, BIT 12 SET)
000693: 26,2022                        S32.1F3B           =        093D                                  #       = FIRST NEWTON ITERATION BEING DONE
000694: 26,2022     4740               S32BIT3B           =        BIT12                                 #  (0,0)= FIRST PASS OF SECOND NEWT.ITERAT.
000695:                                                                                                  #  (1,1)= 50 FT/SEC STAGE OF SEC. NEWT.ITER
000696:                                                                                                  #  (1,0)= REMAINDER OF SECOND NEWTON ITERA.
000697:                                                                                                  #  BIT 11 FLAG 6 (S)
000698:


000700:                                                                                                  #  BIT 10 FLAG 6 (S)
000701: 26,2022                        GMBDRVSW           =        095D                                  #        TRIMGIMB OVER           TRIMGIMB NOT OVER
000702: 26,2022     4742               GMBDRBIT           =        BIT10                                 #
000703:
000704:                                                                                                  #  BIT 9 FLAG 6
000705:                                                                                                  #                =       096D
000706:                                                                                                  #                =       BIT9
000707:
000708:                                                                                                  #  BIT 8 FLAG 6  (S)
000709: 26,2022                        MUNFLAG            =        097D                                  #        SERVICER CALLS          SERVICER CALLS
000710: 26,2022     4744               MUNFLBIT           =        BIT8                                  #        MUNRVG                  CALCRVG
000711:
000712:                                                                                                  #  BIT 7 FLAG 6  (L)
000713:
000714:
000715:                                                                                                  #  BIT 6 FLAG 6  (L)
000716: 26,2022                        REDFLAG            =        099D                                  #        LANDING SITE            LANDING SITE
000717:                                                                                                  #        REDESIGNATION           REDESIGNATION NOT
000718: 26,2022     4746               REDFLBIT           =        BIT6                                  #        PERMITTED               PERMITTED
000719:
000720:                                                                                                  #  BIT 5 FLAG 6
000721:                                                                                                  #                =       100D
000722:
000723:                                                                                                  #  BIT 4 FLAG 6
000724:                                                                                                  #                =       101D
000725:
000726:                                                                                                  #  BIT 3 FLAG 6  (S)
000727: 26,2022                        NTARGFLG           =        102D                                  #        ASTRONAUT DID           ASTRONAUT DID NOT
000728:                                                                                                  #        OVERWRITE DELTA         OVERWRITE DELTA
000729: 26,2022     4751               NTARGBIT           =        BIT3                                  #        VELOCITY AT TPI         VELOCITY
000730:                                                                                                  #        OR TPM (P34,35)
000731:
000732:                                                                                                  #  BIT 2 FLAG 6
000733: 26,2022                        AUXFLAG            =        103D                                  #        PROVIDING IDLEFLAG      SERVICER WILL SKIP
000734: 26,2022     4752               AUXFLBIT           =        BIT2                                  #        IS NOT SET, SERV-       DVMON ON ITS NEXT
000735:                                                                                                  #        ICER WILL EXERCISE      PASS EVEN IF THE
000736:                                                                                                  #        DVMON ON ITS NEXT       IDLEFLAG IS NOT SET.
000737:                                                                                                  #        PASS.                   IT WILL THEN SET
000738:                                                                                                  #                                AUXFLAG.
000739:
000740:                                                                                                  #  BIT 1 FLAG 6  (L)
000741: 26,2022                        ATTFLAG            =        104D                                  #        LEM ATTITUDE EXISTS     NO LEM ATTITUDE
000742:                                                                                                  #        IN MOON-FIXED           AVAILABLE IN MOON-
000743:


000745: 26,2022     4753               ATTFLBIT           =        BIT1                                  #        COORDINATES             FIXED COORDINATES
000746:
000747: 26,2022     0103               FLAGWRD7           =        STATE      +7                         #  (105-119)
000748:
000749:                                                                                                  #        (SET)                   (RESET)
000750:
000751:                                                                                                  #  BIT 15 FLAG 7 (S)
000752: 26,2022                        ITSWICH            =        105D                                  #        P34;TPI TIME TO BE      TPI HAS BEEN
000753: 26,2022     4735               ITSWBIT            =        BIT15                                 #        COMPUTED                COMPUTED
000754:
000755:                                                                                                  #  BIT 14 FLAG 7 (S)
000756: 26,2022                        MANUFLAG           =        106D                                  #        ATTITUDE MANEUVER       NO ATTITUDE MANEUVER
000757:                                                                                                  #        GOING DURING RR         DURING RR SEARCH
000758: 26,2022     4736               MANUFBIT           =        BIT14                                 #        SEARCH
000759:
000760:                                                                                                  #  BIT 13 FLAG 7 (S)
000761: 26,2022                        IGNFLAG            =        107D                                  #        TIG HAS ARRIVED         TIG HAS NOT ARRIVED
000762: 26,2022     4737               IGNFLBIT           =        BIT13                                 #
000763:
000764:                                                                                                  #  BIT 12 FLAG 7 (S)
000765: 26,2022                        ASTNFLAG           =        108D                                  #        ASTRONAUT HAS           ASTRONAUT HAS NOT
000766: 26,2022     4740               ASTNBIT            =        BIT12                                 #        OKAYED IGNITION         OKAYED IGNITION
000767:
000768:                                                                                                  #  BIT 11 FLAG 7 (L)
000769: 26,2022                        SWANDISP           =        109D                                  #        LANDING ANALOG          LANDING ANALOG
000770: 26,2022     4741               SWANDBIT           =        BIT11                                 #        DISPLAYS ENABLED        DISPLAYS SUPPRESSED
000771:
000772:                                                                                                  #  BIT 10 FLAG 7 (S)
000773: 26,2022                        NORMSW             =        110D                                  #        UNIT NORMAL INPUT       LAMBERT COMPUTES ITS
000774: 26,2022     4742               NORMSBIT           =        BIT10                                 #        TO LAMBERT              OWN UNIT NORMAL
000775:
000776:                                                                                                  #  BIT 9 FLAG 7  (S)
000777: 26,2022                        RVSW               =        111D                                  #        DO NOT COMPUTE          COMPUTE FINAL STATE
000778:                                                                                                  #        FINAL STATE VECTOR      VECTOR IN TIME-THETA
000779: 26,2022     4743               RVSWBIT            =        BIT9                                  #        IN TIME-THETA
000780:
000781:                                                                                                  #  BIT 8 FLAG 7  (S)
000782: 26,2022                        V67FLAG            =        112D                                  #        ASTRONAUT OVERWRITE     ASTRONAUT DOES NOT
000783:                                                                                                  #        W-MATRIX INITIAL        OVERWRITE W-MATRIX
000784: 26,2022     4744               V67FLBIT           =        BIT8                                  #        VALUES                  INITIAL VALUES
000785:


000787:                                                                                                  #  BIT 7 FLAG 7  (S)
000788: 26,2022                        IDLEFLAG           =        113D                                  #        NO DV MONITOR           CONNECT DV MONITOR
000789: 26,2022     4745               IDLEFBIT           =        BIT7                                  #
000790:
000791:                                                                                                  #  BIT 6 FLAG 7  (S)
000792: 26,2022                        V37FLAG            =        114D                                  #        AVERAGEG (SERVICER)     AVERAGEG (SERVICER)
000793: 26,2022     4746               V37FLBIT           =        BIT6                                  #        RUNNING                 OFF
000794:
000795:                                                                                                  #  BIT 5 FLAG 7  (S)
000796: 26,2022                        AVEGFLAG           =        115D                                  #        AVERAGEG (SERVICER)     AVERAGEG (SERVICER)
000797: 26,2022     4747               AVEGFBIT           =        BIT5                                  #        DESIRED                 NOT DESIRED
000798:
000799:                                                                                                  #  BIT 4 FLAG 7  (S)
000800: 26,2022                        UPLOCKFL           =        116D                                  #        K-KBAR-K FAIL           NO K-KBAR-K FAIL
000801: 26,2022     4750               UPLOCBIT           =        BIT4                                  #
000802:
000803:                                                                                                  #  BIT 3 FLAG 7  (S)
000804: 26,2022                        VERIFLAG           =        117D                                  #  CHANGED WHEN V33E OCCURS AT END OF P27
000805: 26,2022     4751               VERIFBIT           =        BIT3                                  #
000806:
000807:                                                                                                  #  BIT 2 FLAG 7  (L,C)
000808: 26,2022                        V82EMFLG           =        118D                                  #        MOON VICINITY           EARTH VICINITY
000809: 26,2022     4752               V82EMBIT           =        BIT2                                  #
000810:
000811:                                                                                                  #  BIT 1 FLAG 7  (S)
000812: 26,2022                        TFFSW              =        119D                                  #        CALCULATE TPERIGEE      CALCULATE TFF
000813: 26,2022     4753               TFFSWBIT           =        BIT1                                  #
000814:
000815:
000816: 26,2022     0104               FLAGWRD8           =        STATE      +8D                        #  (120-134)
000817:
000818:                                                                                                  #        (SET)                   (RESET)
000819:
000820:                                                                                                  #  BIT 15 FLAG 8 (S)
000821: 26,2022                        RPQFLAG            =        120D                                  #        RPQ NOT COMPUTED        RPQ COMPUTED
000822:                                                                                                  #        (RPQ = VECTOR BE-
000823: 26,2022     4735               RPQFLBIT           =        BIT15                                 #        TWEEN SECONDARY BODY
000824:                                                                                                  #        AND PRIMARY BODY
000825:
000826:                                                                                                  #  BIT 14 FLAG 8
000827:                                                                                                  #                =       121D
000828:                                                                                                  #                =       BIT14
000829:


000831:                                                                                                  #  BIT 13 FLAG 8 (S)
000832: 26,2022                        NEWIFLG            =        122D                                  #        FIRST PASS THROUGH      SUCCEEDING ITERATION
000833: 26,2022     4737               NEWIBIT            =        BIT13                                 #        INTEGRATION             OF INTEGRATION
000834:
000835:                                                                                                  #  BIT 12 FLAG 8 *** PROTECTED FROM FRESH START ***
000836: 26,2022                        CMOONFLG           =        123D                                  #        PERMANENT CSM STATE     PERMANENT CSM STATE
000837: 26,2022     4740               CMOONBIT           =        BIT12                                 #        IN LUNAR SPHERE         IN EARTH SPHERE
000838:
000839:                                                                                                  #  BIT 11 FLAG 8 *** PROTECTED FROM FRESH START ***
000840: 26,2022                        LMOONFLG           =        124D                                  #        PERMANENT LM STATE      PERMANENT LM STATE
000841: 26,2022     4741               LMOONBIT           =        BIT11                                 #        IN LUNAR SPHERE         IN EARTH SPHERE
000842:
000843:                                                                                                  #  BIT 10 FLAG 8 (L)
000844: 26,2022                        FLUNDISP           =        125D                                  #        CURRENT GUIDANCE        CURRENT GUIDANCE
000845: 26,2022     4742               FLUNDBIT           =        BIT10                                 #        DISPLAYS INHIBITED      DISPLAYS PERMITTED
000846:
000847:                                                                                                  #  BIT 9 FLAG 8  (L)
000848: 26,2022                        P39/79SW           =        126D                                  #        P39/79 OPERATING        P38/P78 OPERATING
000849: 26,2022     4743               P39SWBIT           =        BIT9                                  #
000850:
000851:                                                                                                  #  BIT 8 FLAG 8  *** PROTECTED FROM FRESH START ***
000852: 26,2022                        SURFFLAG           =        127D                                  #        LM ON LUNAR SURFACE     LM NOT ON LUNAR
000853: 26,2022     4744               SURFFBIT           =        BIT8                                  #                                SURFACE
000854:
000855:                                                                                                  #  BIT 7 FLAG 8  (S)
000856: 26,2022                        INFINFLG           =        128D                                  #        NO CONIC SOLUTION       CONIC SOLUTION
000857:                                                                                                  #        (CLOSURE THROUGH        EXISTS
000858: 26,2022     4745               INFINBIT           =        BIT7                                  #        INFINITY REQUIRED)
000859:
000860:                                                                                                  #  BIT 6 FLAG 8  (S)
000861: 26,2022                        ORDERSW            =        129D                                  #        ITERATOR USES 2ND       ITERATOR USES 1ST
000862: 26,2022     4746               ORDERBIT           =        BIT6                                  #        ORDER MINIMUM MODE      ORDER STANDARD MODE
000863:
000864:                                                                                                  #  BIT 5 FLAG 8  (S)
000865: 26,2022                        APSESW             =        130D                                  #        RDESIRED OUTSIDE        RDESIRED INSIDE
000866:                                                                                                  #        PERICENTER-APOCENTER    PERICENTER-APOCENTER
000867: 26,2022     4747               APSESBIT           =        BIT5                                  #        RANGE IN TIME-RADI      RANGE IN TIME-RADIUS
000868:
000869:                                                                                                  #  BIT 4 FLAG 8  (S)
000870: 26,2022                        COGAFLAG           =        131D                                  #        NO CONIC SOLUTION -     CONIC SOLUTION
000871:                                                                                                  #        TOO CLOSE TO RECTI-     EXISTS(COGA DOES NOT
000872:


000874: 26,2022     4750               COGAFBIT           =        BIT4                                  #        LINEAR (COGA OVRFLWS)   OVERFLOW)
000875:
000876:                                                                                                  #  BIT 3 FLAG 8
000877:                                                                                                  #                =       132D
000878:
000879:                                                                                                  #  BIT 2 FLAG 8  (L)
000880: 26,2022                        INITALGN           =        133D                                  #        INITIAL PASS THRU       SECOND PASS THRU P57
000881: 26,2022     4752               INITABIT           =        BIT2                                  #        P57                     (CHECK RESET-MILLARD)
000882:
000883:                                                                                                  #  BIT 1 FLAG 8  (S)
000884: 26,2022                        360SW              =        134D                                  #        TRANSFER ANGLE NEAR     TRANSFER ANGLE NOT
000885: 26,2022     4753               360SWBIT           =        BIT1                                  #        360 DEGREES             NEAR 360 DEGREES
000886:
000887:
000888: 26,2022     0105               FLAGWRD9           =        STATE      +9D                        #  (135-149)
000889:
000890:                                                                                                  #        (SET)                   (RESET)
000891:
000892:                                                                                                  #  BIT 15 FLAG 9
000893:                                                                                                  #                =       135D
000894:                                                                                                  #                =       BIT15
000895:
000896:                                                                                                  #  BIT 14 FLAG 9 (L)
000897: 26,2022                        FLVR               =        136D                                  #        VERTICAL RISE           NON-VERTICAL RISE
000898: 26,2022     4736               FLVRBIT            =        BIT14                                 #        (ASCENT GUIDANCE)
000899:
000900:                                                                                                  #  BIT 13 FLAG 9
000901:                                                                                                  #                =       137D
000902:
000903:                                                                                                  #  BIT 12 FLAG 9 (L)
000904: 26,2022                        FLPC               =        138D                                  #        NO POSITION CONTROL     POSITION CONTROL
000905: 26,2022     4740               FLPCBIT            =        BIT12                                 #        (ASCENT GUIDANCE)
000906:
000907:                                                                                                  #  BIT 11 FLAG 9 (L)
000908: 26,2022                        FLPI               =        139D                                  #        PRE-IGNITION PHASE      REGULAR GUIDANCE
000909: 26,2022     4741               FLPIBIT            =        BIT11                                 #        (ASCENT GUIDANCE)
000910:
000911:                                                                                                  #  BIT 10 FLAG 9 (L)
000912: 26,2022                        FLRCS              =        140D                                  #        RCS INJECTION MODE      MAIN ENGINE MODE
000913: 26,2022     4742               FLRCSBIT           =        BIT10                                 #        (ASCENT GUIDANCE)
000914:
000915:                                                                                                  #  BIT 9 FLAG 9  (L)
000916:


000918: 26,2022                        LETABORT           =        141D                                  #        ABORT PROGRAMS          ABORT PROGRAMS
000919: 26,2022     4743               LETABBIT           =        BIT9                                  #        ARE ENABLED             ARE NOT ENABLED
000920:
000921:                                                                                                  #  BIT 8 FLAG 9  (L)
000922: 26,2022                        FLAP               =        142D                                  #        APS CONTINUED ABORT     APS ABORT IS NOT A
000923:                                                                                                  #        AFTER DPS STAGING       CONTINUATION
000924: 26,2022     4744               FLAPBIT            =        BIT8                                  #        (ASCENT GUIDANCE)
000925:
000926:                                                                                                  #  BIT 7 FLAG 9  (L)
000927:                                                                                                  #                =       143D
000928:
000929:
000930:                                                                                                  #  BIT 6 FLAG 9  (L)
000931: 26,2022                        ROTFLAG            =        144D                                  #        P70 AND P71 WILL        P70 AND P71 WILL NOT
000932: 26,2022     4746               ROTFLBIT           =        BIT6                                  #        FORCE VEHICLE           FORCE VEHICLE
000933:                                                                                                  #        ROTATION IN THE         ROTATION IN THE
000934:                                                                                                  #        PREFERRED DIRECTION.    PREFERRED DIRECTION
000935:
000936:                                                                                                  #  BIT 5 FLAG 9  (S)
000937: 26,2022                        QUITFLAG           =        145D                                  #        DISCONTINUE INTEGR.     CONTINUE INTEGRATION
000938: 26,2022     4747               QUITBIT            =        BIT5                                  #
000939:
000940:                                                                                                  #  BIT 4 FLAG 9
000941:                                                                                                  #                =       146D
000942:                                                                                                  #                =       BIT4
000943:
000944:                                                                                                  #  BIT 3 FLAG 9  (L)
000945: 26,2022                        MID1FLAG           =        147D                                  #        INTEGRATE TO TDEC       INTEGRATE TO THE
000946: 26,2022     4751               MID1FBIT           =        BIT3                                  #                                THEN-PRESENT TIME
000947:
000948:                                                                                                  #  BIT 2 FLAG 9  (L)
000949: 26,2022                        MIDAVFLG           =        148D                                  #        INTEGRATION ENTERED     INTEGRATION WAS
000950:                                                                                                  #        FROM ONE OF MIDTOAV     NOT ENTERED VIA
000951: 26,2022     4752               MIDAVBIT           =        BIT2                                  #        PORTALS                 MIDTOAV
000952:
000953:                                                                                                  #  BIT 1 FLAG 9  (S)
000954: 26,2022                        AVEMIDSW           =        149D                                  #        AVETOMID CALLING        NO AVETOMID W INTEGR
000955:                                                                                                  #        FOR W.MATRIX INTEGR     ALLOW SET UP RM,VN.
000956: 26,2022     4753               AVEMDBIT           =        BIT1                                  #        DONT WRITE OVER RN,     PIPTIME
000957:                                                                                                  #        VN,PIPTIME
000958:
000959:
000960: 26,2022     0106               RASFLAG            EQUALS   FLGWRD10                              #  WAS ONLY AN INSTALL-ERASTALL FLAG
000961:


000963: 26,2022     0106               FLGWRD10           =        STATE      +10D                       #  (150-164)
000964:
000965:                                                                                                  #        (SET)                   (RESET)
000966:
000967:                                                                                                  #  BIT 15 FLAG 10
000968:                                                                                                  #                =       150D
000969:
000970:                                                                                                  #  BIT 14 FLAG 10 (L,C)
000971: 26,2022                        INTFLAG            =        151D                                  #        INTEGRATION IN          INTEGRATION NOT IN
000972: 26,2022     4736               INTFLBIT           =        BIT14                                 #        PROGRESS                PROGRESS
000973:
000974:                                                                                                  #  BIT 13 FLAG 10 (S,L)
000975: 26,2022                        APSFLAG            =        152D                                  #        ASCENT STAGE            DESCENT STAGE
000976: 26,2022     4737               APSFLBIT           =        BIT13                                 #         *** PROTECTED FROM FRESH START ***
000977:
000978:                                                                                                  #  BIT 12 FLAG 10
000979:                                                                                                  #                =       153D
000980:
000981:                                                                                                  #  BIT 11 FLAG 10
000982:                                                                                                  #                =       154D
000983:
000984:                                                                                                  #  BIT 10 FLAG 10
000985:                                                                                                  #                =       155D
000986:
000987:                                                                                                  #  BIT 9 FLAG 10
000988:                                                                                                  #                =       156D
000989:
000990:                                                                                                  #  BIT 8 FLAG 10
000991:                                                                                                  #                =       157D
000992:
000993:                                                                                                  #  BIT 7 FLAG 10 (L,C)
000994: 26,2022                        REINTFLG           =        158D                                  #        INTEGRATION ROUTINE     INTEGRATION ROUTINE
000995: 26,2022     4745               REINTBIT           =        BIT7                                  #        TO BE RESTARTED         NOT TO BE RESTARTED
000996:
000997:                                                                                                  #  BIT 6 FLAG 10
000998:                                                                                                  #                =       159D
000999:
001000:                                                                                                  #  BIT 5 FLAG 10
001001:                                                                                                  #                =       160D
001002:


001004:                                                                                                  #  BIT 4 FLAG 10
001005:                                                                                                  #                =       161D
001006:
001007:                                                                                                  #  BIT 3 FLAG 10
001008:                                                                                                  #                =       162D
001009:
001010:                                                                                                  #  BIT 2 FLAG 10
001011:                                                                                                  #                =       163D
001012:
001013:                                                                                                  #  BIT 1 FLAG 10
001014:                                                                                                  #                =       164D
001015:
001016:
001017:
001018: 26,2022     0107               FLGWRD11           =        STATE      +11D                       #  (165-179)
001019:
001020:                                                                                                  #        (SET)                   (RESET)
001021:
001022:                                                                                                  #  BIT 15 FLAG 11 (L)(R12)
001023: 26,2022                        LRBYPASS           =        165D                                  #        BYPASS ALL LANDING      DO NOT BYPASS LR
001024: 26,2022     4735               LRBYBIT            =        BIT15                                 #        RADAR UPDATES           UPDATES
001025:
001026:                                                                                                  #  BIT 14 FLAG 11
001027:                                                                                                  #                =       166D
001028:                                                                                                  #                =       BIT14
001029:
001030:                                                                                                  #                =       BIT 13 FLAG 11
001031:                                                                                                  #                =       167D
001032:                                                                                                  #                =       BIT13
001033:
001034:                                                                                                  #  BIT 12 FLAG 11 (L)(R12)
001035: 26,2022                        VXINH              =        168D                                  #        IF Z VELOCITY DATA      UPDATE X AXIS
001036:                                                                                                  #        UNREASONABLE,           VELOCITY
001037: 26,2022     4740               VXINHBIT           =        BIT12                                 #        BYPASS X VELOCITY
001038:                                                                                                  #        UPDATE ON NEXT PASS
001039:
001040:                                                                                                  #  BIT 11 FLAG 11 (L)(R12)
001041: 26,2022                        PSTHIGAT           =        169D                                  #        PAST HIGATE             PREHIGATE
001042: 26,2022     4741               PSTHIBIT           =        BIT11                                 #
001043:
001044:                                                                                                  #  BIT 10 FLAG 11 (L)(R12)
001045:


001047: 26,2022                        NOLRREAD           =        170D                                  #        LANDING RADAR           LR NOT REPOSITIONING
001048:                                                                                                  #        REPOSITIONING;
001049: 26,2022     4742               NOLRRBIT           =        BIT10                                 #        BYPASS UPDATE
001050:
001051:                                                                                                  #  BIT 9 FLAG 11 (L)(R12)
001052: 26,2022                        XORFLG             =        171D                                  #        BELOW LIMIT             ABOVE LIMIT DO
001053:                                                                                                  #        INHIBIT X AXIS          NOT INHIBIT
001054: 26,2022     4743               XORFLBIT           =        BIT9                                  #        OVERRIDE
001055:
001056:                                                                                                  #  BIT 8 FLAG 11
001057: 26,2022                        LRINH              =        172D                                  #        LANDING RADAR UP-       LR UPDATES INHIBITED
001058: 26,2022     4744               LRINHBIT           =        BIT8                                  #        DATES PERMITTED         BY ASTRONAUT
001059:                                                                                                  #        BY ASTRONAUT
001060:
001061:                                                                                                  #  BIT 7 FLAG 11 (L)(R12)
001062: 26,2022                        VELDATA            =        173D                                  #        LR VELOCITY             LR VELOCITY MEASURE
001063: 26,2022     4745               VELDABIT           =        BIT7                                  #        MEASUREMENT MADE        NOT MADE
001064:
001065:                                                                                                  #  BIT 6 FLAG 11 (L)(R12)
001066: 26,2022                        READLR             =        174D                                  #        OK TO READ LR           DO NOT READ LR RANGE
001067: 26,2022     4746               READLBIT           =        BIT6                                  #        RANGE DATA              DATA
001068:
001069:                                                                                                  #  BIT 5 FLAG 11 (L)(R12)
001070: 26,2022                        READVEL            =        175D                                  #        OK TO READ LR           DO NOT READ LR
001071: 26,2022     4747               READVBIT           =        BIT5                                  #        VELOCITY DATA           VELOCITY DATA
001072:
001073:                                                                                                  #  BIT 4 FLAG 11 (L)(R12)
001074: 26,2022                        RNGEDATA           =        176D                                  #        LR ALTITUDE             LR ALTITUDE MEASURE
001075: 26,2022     4750               RNGEDBIT           =        BIT4                                  #        MEASUREMENT MADE        NOT MADE
001076:
001077:                                                                                                  #  BIT 3 FLAG 11
001078: 26,2022                        SCALBAD            =        177D                                  #        LR LOW SCALE DIS-       LR SCALE DISCRETE
001079: 26,2022     4751               SCABBIT            =        BIT3                                  #        CRETE NOT PRESENT       APPEARS OK
001080:                                                                                                  #        WHEN IT SHOULD BE
001081:
001082:                                                                                                  #  BIT 2 FLAG 11 (L)(R12)
001083: 26,2022                        VFLSHFLG           =        178D                                  #        LR VELOCITY FAIL        LR VEL FAIL LAMP
001084:                                                                                                  #        LAMP SHOULD BE          SHOULDN'T FLASH
001085: 26,2022     4752               VFLSHBIT           =        BIT2                                  #        FLASHING
001086:
001087:                                                                                                  #  BIT 1 FLAG 11 (L)(R12)


001089: 26,2022                        HFLSHFLG           =        179D                                  #        LR ALTITUDE FAIL        LR ALTITUDE FAIL
001090: 26,2022     4753               HFLSHBIT           =        BIT1                                  #        LAMP SHOULD BE          LAMP SHOULD NOT BE
001091:                                                                                                  #        FLASHING                FLASHING
001092:
001093: 26,2022     0110               RADMODES           EQUALS   FLGWRD12                              #  RADAR FLAG WORD
001094:
001095: 26,2022     0110               FLGWRD12           =        STATE      +12D                       #  (180-194)             WAS RADMODES
001096:
001097:                                                                                                  #        (SET)                   (RESET)
001098:
001099:                                                                                                  #  BIT 15 FLAG 12
001100: 26,2022                        CDESFLAG           =        180D                                  #        CONTINUOUS DESIG-       LGC CHECKS FOR LOCK-
001101: 26,2022     4735               CDESBIT            =        BIT15                                 #        NATE. LGC COMMANDS      ON WHEN ANTENNA
001102:                                                                                                  #        RR REGARDLESS OF        BEING DESIGNATED
001103:                                                                                                  #        LOCK-ON
001104:
001105:                                                                                                  #  BIT 14 FLAG 12
001106: 26,2022                        REMODFLG           =        181D                                  #        CHANGE IN ANTENNA       NO REMODE REQUESTED
001107: 26,2022     4736               REMODBIT           =        BIT14                                 #        MODE BEEN REQUESTED     OR OCCURRING
001108:                                                                                                  #        I.E., REMODE
001109:
001110:                                                                                                  #  BIT 13 FLAG 12
001111: 26,2022                        RCDU0FLG           =        182D                                  #        RR CDU'S BEING          RR CDU'S NOT BEING
001112: 26,2022     4737               RCDU0BIT           =        BIT13                                 #        ZEROED                  ZEROED
001113:
001114:                                                                                                  #  BIT 12 FLAG 12
001115: 26,2022                        ANTENFLG           =        183D                                  #        RR ANTENNA MODE IS      RR ANTENNA IN MODE 1
001116: 26,2022     4740               ANTENBIT           =        BIT12                                 #        MODE 2
001117:
001118:                                                                                                  #  BIT 11 FLAG 12
001119: 26,2022                        REPOSMON           =        184D                                  #        REPOSITION MONITOR.     NO REPOSITION TAKING
001120: 26,2022     4741               REPOSBIT           =        BIT11                                 #        RR REPOSITION IS        PLACE
001121:                                                                                                  #        TAKING PLACE
001122:
001123:                                                                                                  #  BIT 10 FLAG 12
001124: 26,2022                        DESIGFLG           =        185D                                  #        RR DESIGNATE            RR DESIGNATE NOT
001125: 26,2022     4742               DESIGBIT           =        BIT10                                 #        REQUESTED OR IN         REQUESTED OR IN
001126:                                                                                                  #        PROGRESS                PROGRESS
001127:
001128:                                                                                                  #  BIT 9 FLAG 12
001129: 26,2022                        ALTSCALE           =        186D                                  #        LR ALTITUDE READING     LR ALTITUDE READING
001130: 26,2022     4743               ALTSCBIT           =        BIT9                                  #        IS ON HIGH SCALE        IS ON LOW SCALE
001131:


001133:                                                                                                  #  BIT 8 FLAG 12
001134: 26,2022                        LRVELFLG           =        187D                                  #        LR VELOCITY DATA        NO LR VELOCITY DATA
001135: 26,2022     4744               LRVELBIT           =        BIT8                                  #        FAIL                    FAIL
001136:
001137:                                                                                                  #  BIT 7 FLAG 12
001138: 26,2022                        RCDUFAIL           =        188D                                  #        RR CDU FAIL HAS         RR CDU FAIL OCCURRED
001139: 26,2022     4745               RCDUFBIT           =        BIT7                                  #        NOT OCCURRED
001140:
001141:                                                                                                  #  BIT 6 FLAG 12
001142: 26,2022                        LRPOSFLG           =        189D                                  #        LANDING RADAR           LR POSITION 1
001143: 26,2022     4746               LRPOSBIT           =        BIT6                                  #        POSITION 2
001144:
001145:                                                                                                  #  BIT 5 FLAG 12
001146: 26,2022                        LRALTFLG           =        190D                                  #        LR ALTITUDE DATA        NO LR ALTITUDE DATA
001147: 26,2022     4747               LRALTBIT           =        BIT5                                  #        FAIL.  COULD NOT BE     FAIL
001148:                                                                                                  #        READ SUCCESSFULLY.
001149:
001150:                                                                                                  #  BIT 4 FLAG 12
001151: 26,2022                        RRDATAFL           =        191D                                  #        RR DATA FAIL.           NO RR DATA FAIL.
001152: 26,2022     4750               RRDATABT           =        BIT4                                  #        DATA COULD NOT BE
001153:                                                                                                  #        READ SUCCESSFULLY
001154:
001155:                                                                                                  #  BIT 3 FLAG 12
001156: 26,2022                        RRRSFLAG           =        192D                                  #        RR RANGE READING        RR RANGE READING ON
001157: 26,2022     4751               RRRSBIT            =        BIT3                                  #        ON THE HIGH SCALE       THE LOW SCALE
001158:
001159:                                                                                                  #  BIT 2 FLAG 12
001160: 26,2022                        AUTOMODE           =        193D                                  #        RR NOT IN AUTO MODE.    RR IN AUTO MODE
001161: 26,2022     4752               AUTOMBIT           =        BIT2                                  #        AUTO MODE DISCRETE
001162:                                                                                                  #        IS NOT PRESENT
001163:
001164:                                                                                                  #  BIT 1 FLAG 12
001165: 26,2022                        TURNONFL           =        194D                                  #        RR TURN-ON SEQUENCE     NO RR TURN-ON
001166: 26,2022     4753               TURNONBT           =        BIT1                                  #        IN PROGRESS.  (ZERO     SEQUENCE IN PROGRESS
001167:                                                                                                  #        CDU'S, FIX ANTENNA
001168:                                                                                                  #        MODE)
001169:
001170: 26,2022     0111               DAPBOOLS           EQUALS   FLGWRD13                              #  DIGITAL AUTOPILOT FLAGWORD
001171:


001173: 26,2022     0111               FLGWRD13           =        STATE      +13D                       #  (195-209)     WAS DAPBOOLS
001174:
001175:                                                                                                  #        (SET)                   (RESET)
001176:
001177:                                                                                                  #  BIT 15 FLAG 13
001178: 26,2022                        PULSEFLG           =        195D                                  #        MINIMUM IMPULSE         NOT IN MINIMUM
001179: 26,2022     4735               PULSES             =        BIT15                                 #        COMMAND MODE IN         IMPULSE COMMAND MODE
001180:                                                                                                  #        "ATT HOLD" (V76)        (V77)
001181:
001182:                                                                                                  #  BIT 14 FLAG 13
001183: 26,2022                        USEQRFLG           =        196D                                  #        GIMBAL UNUSABLE.        TRIM GIMBAL MAY BE
001184: 26,2022     4736               USEQRJTS           =        BIT14                                 #        USE JETS ONLY.          USED.
001185:
001186:                                                                                                  #  BIT 13 FLAG 13
001187: 26,2022                        CSMDKFLG           =        197D                                  #        CSM DOCKED.  USE        CSM NOT DOCKED TO LM
001188: 26,2022     4737               CSMDOCKD           =        BIT13                                 #        BACKUP DAP
001189:
001190:                                                                                                  #  BIT 12 FLAG 13
001191: 26,2022                        OURRCFLG           =        198D                                  #        CURRENT DAP PASS        CURRENT DAP PASS IS
001192: 26,2022     4740               OURRCBIT           =        BIT12                                 #        IS RATE COMMAND         NOT RATE COMMAND
001193:
001194:                                                                                                  #  BIT 11 FLAG 13
001195: 26,2022                        ACC4-2FL           =        199D                                  #        4 JET X-AXIS TRANS-     2 JET X-AXIS TRANS-
001196: 26,2022     4741               ACC4OR2X           =        BIT11                                 #        LATION REQUESTED        LATION REQUESTED
001197:
001198:                                                                                                  #  BIT 10 FLAG 13
001199: 26,2022                        AORBTFLG           =        200D                                  #        B SYSTEM FOR X-         A SYSTEM FOR X-
001200: 26,2022     4742               AORBTRAN           =        BIT10                                 #        TRANSLATION             TRANSLATION PREFER'D
001201:
001202:                                                                                                  #  BIT 9 FLAG 13
001203: 26,2022                        XOVINFLG           =        201D                                  #        X-AXIS OVERRIDE         X-AXIS OVERRIDE OKAY
001204: 26,2022     4743               XOVINHIB           =        BIT9                                  #        LOCKED OUT
001205:
001206:                                                                                                  #  BIT 8 FLAG 13
001207: 26,2022                        DRIFTDFL           =        202D                                  #        ASSUME 0 OFFSET         USE OFFSET ACCELERA-
001208: 26,2022     4744               DRIFTBIT           =        BIT8                                  #        DRIFTING FLIGHT.        TION ESTIMATE
001209:
001210:                                                                                                  #  BIT 7 FLAG 13
001211: 26,2022                        RHCSCFLG           =        203D                                  #        NORMAL RHC SCALING      FINE RHC SCALING
001212: 26,2022     4745               RHCSCALE           =        BIT7                                  #        REQUESTED               REQUESTED
001213:


001215:                                                                                                  #  BIT 6 FLAG 13
001216: 26,2022                        ULLAGFLG           =        204D                                  #        ULLAGE REQUEST BY       NO INTERNAL ULLAGE
001217: 26,2022     4746               ULLAGER            =        BIT6                                  #        MISSION PROGRAM         REQUEST
001218:
001219:                                                                                                  #  BIT 5 FLAG 13
001220: 26,2022                        AORBSFLG           =        205D                                  #        P-AXIS COUPLES 7.15     P-AXIS COUPLES 4.12
001221: 26,2022     4747               AORBSYST           =        BIT5                                  #        AND 8,16 PREFERRED      AND 3,11 PREFERRED
001222:
001223:                                                                                                  #  BIT 4 FLAG 13
001224: 26,2022                        DBSELFLG           =        206D                                  #        MAX DB SELECTED         MIN DB SELECTED BY
001225: 26,2022     4750               DBSELECT           =        BIT4                                  #        BY CREW (5 DEG)         CREW (0.3 DEG)
001226:
001227:                                                                                                  #  BIT 3 FLAG 13
001228: 26,2022                        ACCOKFLG           =        207D                                  #        CONTROL AUTHORITY       RESTART OR FRESH ST.
001229: 26,2022     4751               ACCSOKAY           =        BIT3                                  #        VALUES FROM 1/ACCS      SINCE LAST 1/ACCS;
001230:                                                                                                  #        USABLE                  OUTPUTS SUSPECT.
001231:
001232:                                                                                                  #  BIT 2 FLAG 13
001233: 26,2022                        AUTR2FLG           =        208D                                  #  THESE FLAGS ARE USED TOGETHER TO INDICAT
001234: 26,2022     4752               AUTRATE2           =        BIT2                                  #  ASTRONAUT-CHOSEN KALCMANU MANEUVER RATES
001235:                                                                                                  #  (0,0)=(BIT2,BIT1)=    0.2 DEG/SEC
001236:                                                                                                  #  (0,1)=                0.5 DEG/SEC
001237:                                                                                                  #  BIT 1 FLAG 13
001238: 26,2022                        AUTR1FLG           =        209D                                  #  (1,0)=                2.0 DEG/SEC
001239: 26,2022     4753               AUTRATE1           =        BIT1                                  #  (1,1)=               10.0 DEG/SEC
001240:


001243:

End of include-file FLAGWORD_ASSIGNMENTS.agc.  Parent file is MAIN.agc


