
Source Code


000002:                                                                                                  ## Copyright:   Public domain.
000003:                                                                                                  ## Filename:    FLAGWORD_ASSIGNMENTS.agc
000004:                                                                                                  ## Purpose:     Part of the source code for Luminary 1A build 099.
000005:                                                                                                  ##              It is part of the source code for the Lunar Module's (LM)
000006:                                                                                                  ##              Apollo Guidance Computer (AGC), for Apollo 11.
000007:                                                                                                  ## Assembler:   yaYUL
000008:                                                                                                  ## Contact:     Onno Hommes <ohommes@cmu.edu>.
000009:                                                                                                  ## Website:     www.ibiblio.org/apollo.
000010:                                                                                                  ## Pages:       0061-0089
000011:                                                                                                  ## Mod history: 2009-05-15 OH   Transcribed from page images.
000012:                                                                                                  ##              2009-05-17 RSB  Extended to (blank) p. 89.
000013:                                                                                                  ##              2010-12-31 JL   Fixed page number comment.
000014:                                                                                                  ##              2016-12-13 RSB  Proofed text comments with octopus/ProoferComments
000015:                                                                                                  ##                              and corrected the errors found.
000016:                                                                                                  ##              2017-03-02 RSB  Comment-text fixes identified whilst
000017:                                                                                                  ##                              proofing Luminary 116.
000018:                                                                                                  ##              2017-03-03 RSB  Snapshot of Luminary 99 Rev 1.
000019:                                                                                                  ##              2017-03-15 RSB  Comment-text fixes identified in 5-way
000020:                                                                                                  ##                              side-by-side diff of Luminary 69/99/116/131/210.
000021:


000023:                                                                                                  #  FLAGWORDS 0-11        ARE DOWNLINKED AND CAN BE SET AND CLEARED BY UP-FLAG AND DOWN-FLAG INSTRUCTIONS IN THE
000024:                                                                                                  #                        INTERPRETER.  THESE WERE PREVIOUSLY LISTED UNDER "INTERPRETIVE SWITCH BIT ASSIGNMENTS" IN
000025:                                                                                                  #                        THE ERASABLE LOG SECTION.  FLAGWORDS 12 & 13 WERE PREVIOUSLY RADMODES AND DAPBOOLS AND
000026:                                                                                                  #                        ARE STILL DOWNLINKED UNDER THOSE NAMES.
000027:
000028:                                                                                                  #                ALPHABETICAL LIST OF FLAGWORDS
000029:
000030:
000031:                                                                                                  #  FLAGWORD      DEC. NUMBER     BIT AND FLAG            BIT NAME
000032:
000033:                                                                                                  #  ACCOKFLG      207             BIT  3 FLAG 13          ACCSOKAY
000034:                                                                                                  #  ACC4-2FL      199             BIT 11 FLAG 13          ACC4OR2X
000035:                                                                                                  #  ACMODFLG      032             BIT 13 FLAG  2          ACMODBIT
000036:                                                                                                  #  ALTSCALE      186             BIT  9 FLAG 12          ALTSCBIT
000037:                                                                                                  #  ANTENFLG      183             BIT 12 FLAG 12          ANTENBIT
000038:                                                                                                  #  AORBSFLG      205             BIT  5 FLAG 13          AORBSYST
000039:                                                                                                  #  AORBTFLG      200             BIT 10 FLAG 13          AORBTRAN
000040:                                                                                                  #  APSESW        130             BIT  5 FLAG  8          APSESBIT
000041:                                                                                                  #  APSFLAG       152             BIT 13 FLAG 10          APSFLBIT
000042:                                                                                                  #  ASTNFLAG      108             BIT 12 FLAG  7          ASTNBIT
000043:                                                                                                  #  ATTFLAG       104             BIT  1 FLAG  6          ATTFLBIT
000044:                                                                                                  #  AUTOMODE      193             BIT  2 FLAG 12          AUTOMBIT
000045:                                                                                                  #  AUTR1FLG      209             BIT  1 FLAG 13          AUTRATE1
000046:                                                                                                  #  AUTR2FLG      208             BIT  2 FLAG 13          AUTRATE2
000047:                                                                                                  #  AUXFLAG       103             BIT  2 FLAG  6          AUXFLBIT
000048:                                                                                                  #  AVEGFLAG      115             BIT  5 FLAG  7          AVEGFBIT
000049:                                                                                                  #  AVEMIDSW      149             BIT  1 FLAG  9          AVEMDBIT
000050:                                                                                                  #  AVFLAG        040             BIT  5 FLAG  2          AVFLBIT
000051:                                                                                                  #  CALCMAN2      043             BIT  2 FLAG  2          CALC2BIT
000052:                                                                                                  #  CALCMAN3      042             BIT  3 FLAG  2          CALC3BIT
000053:                                                                                                  #  CDESFLAG      180             BIT 15 FLAG 12          CDESBIT
000054:                                                                                                  #  CMOONFLG      123             BIT 12 FLAG  8          CMOONBIT
000055:                                                                                                  #  COGAFLAG      131             BIT  4 FLAG  8          COGAFBIT
000056:                                                                                                  #  CSMDKFLG      197             BIT 13 FLAG 13          CSMDOCKD
000057:                                                                                                  #  CULTFLAG      053             BIT  7 FLAG  3          CULTBIT
000058:                                                                                                  #  DAPBOOLS                      FLGWRD13
000059:                                                                                                  #  DBSELFLG      206             BIT  4 FLAG 13          DBSELECT
000060:                                                                                                  #  DESIGFLG      185             BIT 10 FLAG 12          DESIGBIT
000061:                                                                                                  #  DIDFLAG       016             BIT 14 FLAG             DIDFLBIT
000062:                                                                                                  #  DIMOFLAG      059             BIT  1 FLAG  3          DIMOBIT
000063:                                                                                                  #  DMENFLG       081             BIT  9 FLAG  5          DMENFBIT
000064:                                                                                                  #  DRIFTDFL      202             BIT  8 FLAG 13          DRIFTBIT
000065:                                                                                                  #  DRIFTFLG      030             BIT 15 FLAG  2          DRFTBIT
000066:                                                                                                  #  DSKYFLAG      075             BIT 15 FLAG  5          DSKYFBIT


000068:                                                                                                  #  D6OR9FLG      058             BIT  2 FLAG  3          D6OR9BIT
000069:                                                                                                  #  ENGONFLG      083             BIT  7 FLAG  5          ENGONBIT
000070:                                                                                                  #  ERADFLAG      017             BIT 13 FLAG  1          ERADFBIT
000071:                                                                                                  #  ETPIFLAG      038             BIT  7 FLAG  2          ETPIBIT         EQUIVALENT FLAG NAME: OPTNSW
000072:                                                                                                  #  FINALFLG      039             BIT  6 FLAG  2          FINALBIT
000073:                                                                                                  #  FLAGWRD0      (000-014)       (STATE +0)
000074:                                                                                                  #  FLAGWRD1      (015-029)       (STATE +1)
000075:                                                                                                  #  FLAGWRD2      (030-044)       (STATE +2)
000076:                                                                                                  #  FLAGWRD3      (045-059)       (STATE +3)
000077:                                                                                                  #  FLAGWRD4      (060-074)       (STATE +4)
000078:                                                                                                  #  FLAGWRD5      (075-089)       (STATE +5)
000079:                                                                                                  #  FLAGWRD6      (090-104)       (STATE +6)
000080:                                                                                                  #  FLAGWRD7      (105-119)       (STATE +7)
000081:                                                                                                  #  FLAGWRD8      (120-134)       (STATE +8D)
000082:                                                                                                  #  FLAGWRD9      (135-149)       (STATE +9D)
000083:                                                                                                  #  FLAP          142             BIT  8 FLAG  9          FLAPBIT
000084:                                                                                                  #  FLGWRD10      (150-164)       (STATE +10D)
000085:                                                                                                  #  FLGWRD11      (165-179)       (STATE +11D)
000086:                                                                                                  #  FLGWRD12      (180-194)       (STATE +12D)
000087:                                                                                                  #  FLGWRD13      (195-209)       (STATE +13D)
000088:                                                                                                  #  FLPC          138             BIT 12 FLAG  9          FLPCBIT
000089:                                                                                                  #  FLPI          139             BIT 11 FLAG  9          FLPIBIT
000090:                                                                                                  #  FLRCS         149             BIT 10 FLAG  9          FLRCSBIT
000091:                                                                                                  #  FLUNDISP      125             BIT 10 FLAG  8          FLUNDBIT
000092:                                                                                                  #  FLVR          136             BIT 14 FLAG  9          FLVRBIT
000093:                                                                                                  #  FREEFLAG      012             BIT  3 FLAG  0          FREEFBIT
000094:                                                                                                  #  FSPASFLG      005             BIT 10 FLAG  0          FSPASBIT
000095:                                                                                                  #  GLOKFAIL      046             BIT 14 FLAG  3          GLOKFBIT
000096:                                                                                                  #  GMBDRVSW      095             BIT 10 FLAG  6          GMBDRBIT
000097:                                                                                                  #  GUESSW        028             BIT  2 FLAG  1          GUESSBIT
000098:                                                                                                  #  HFLSHFLG      179             BIT  1 FLAG 11          HFLSHBIT
000099:                                                                                                  #  IDLEFLAG      113             BIT  7 FLAG  7          IDLEFBIT
000100:                                                                                                  #  IGNFLAG       107             BIT 13 FLAG  7          IGNFLBIT
000101:                                                                                                  #  IMPULSW       036             BIT  9 FLAG  2          IMPULBIT
000102:                                                                                                  #  IMUSE         007             BIT  8 FLAG  0          IMUSEBIT
000103:                                                                                                  #  INFINFLG      128             BIT  7 FLAG  8          INFINBIT
000104:                                                                                                  #  INITALGN      133             BIT  2 FLAG  8          INITABIT
000105:                                                                                                  #  INTFLAG       151             BIT 14 FLAG 10          INTFLBIT
000106:                                                                                                  #  INTYPFLG      056             BIT  4 FLAG  3          INTYPBIT
000107:                                                                                                  #  ITSWICH       105             BIT 15 FLAG  7          ITSWBIT
000108:                                                                                                  #  JSWITCH       001             BIT 14 FLAG  0          JSWCHBIT
000109:                                                                                                  #  LETABORT      141             BIT  9 FLAG  9          LETABBIT
000110:                                                                                                  #  LMOONFLG      124             BIT 11 FLAG  8          LMOONBIT
000111:                                                                                                  #  LOKONSW       010             BIT  5 FLAG  0          LOKONBIT
000112:                                                                                                  #  LOSCMFLG      033             BIT 12 FLAG  2          LOSCMBIT
000113:                                                                                                  #  LRALTFLG      190             BIT  5 FLAG 12          LRALTBIT
000114:                                                                                                  #  LRBYPASS      165             BIT 15 FLAG 11          LRBYBIT
000115:                                                                                                  #  LRINH         172             BIT  8 FLAG 11          LRINHBIT
000116:                                                                                                  #  LRPOSFLG      189             BIT  6 FLAG 12          LRPOSBIT
000117:                                                                                                  #  LRVELFLG      187             BIT  8 FLAG 12          LRVELBIT


000119:                                                                                                  #  LUNAFLAG      048             BIT 12 FLAG  3          LUNABIT
000120:                                                                                                  #  MANUFLAG      106             BIT 14 FLAG  7          MANUFBIT
000121:                                                                                                  #  MGLVFLAG      088             BIT  2 FLAG  5          MGLVFBIT
000122:                                                                                                  #  MIDAVFLG      148             BIT  2 FLAG  9          MIDAVBIT
000123:                                                                                                  #  MIDFLAG       002             BIT 13 FLAG  0          MIDFLBIT
000124:                                                                                                  #  MID1FLAG      147             BIT  3 FLAG  9          MID1BIT
000125:                                                                                                  #  MKOVFLAG      072             BIT  3 FLAG  4          MKOVBIT
000126:                                                                                                  #  MOONFLAG      003             BIT 12 FLAG  0          MOONBIT
000127:                                                                                                  #  MRKIDFLG      060             BIT 15 FLAG  4          MRKIDBIT
000128:                                                                                                  #  MRKNVFLG      066             BIT  9 FLAG  4          MRKNVBIT
000129:                                                                                                  #  MRUPTFLG      070             BIT  5 FLAG  4          MRUPTBIT
000130:                                                                                                  #  MUNFLAG       097             BIT  8 FLAG  6          MUNFLBIT
000131:                                                                                                  #  MWAITFLG      064             BIT 11 FLAG  4          MWAITBIT
000132:                                                                                                  #  NEEDLFLG      011             BIT  4 FLAG  0          NEEDLBIT
000133:                                                                                                  #  NEWIFLG       122             BIT 13 FLAG  8          NEWIBIT
000134:                                                                                                  #  NJETSFLG      015             BIT 15 FLAG             NJETSBIT
000135:                                                                                                  #  NODOFLAG      044             BIT  1 FLAG  2          NODOBIT
000136:                                                                                                  #  NOLRREAD      170             BIT 10 FLAG 11          NOLRRBIT
000137:                                                                                                  #  NORMSW        110             BIT 10 FLAG  7          NORMSBIT
000138:                                                                                                  #  NORRMON       086             BIT  4 FLAG  5          NORRMBIT
000139:                                                                                                  #  NOR29FLG      049             BIT 11 FLAG  3          NR29FBIT
000140:                                                                                                  #  NOTHROTL      078             BIT 12 FLAG  5          NOTHRBIT
000141:                                                                                                  #  NOUPFLAG      024             BIT  6 FLAG  1          NOUPFBIT
000142:                                                                                                  #  NRMNVFLG      067             BIT  8 FLAG  4          NRMNVBIT
000143:                                                                                                  #  NRMIDFLG      062             BIT 13 FLAG  4          NRMIDBIT
000144:                                                                                                  #  NRUPTFLG      071             BIT  4 FLAG  4          NRUPTBIT
000145:                                                                                                  #  NTARGFLG      102             BIT  3 FLAG  6          NTARGBIT
000146:                                                                                                  #  NWAITFLG      065             BIT 10 FLAG  4          NWAITBIT
000147:                                                                                                  #  OLDESFLG      014             BIT  1 FLAG  0          OLDESBIT
000148:                                                                                                  #  OPTNSW        038             BIT  7 FLAG  2          OPTNBIT         EQUIVALENT FLAG NAME: ETPIFLAG
000149:                                                                                                  #  ORBWFLAG      054             BIT  6 FLAG  3          ORBWFBIT
000150:                                                                                                  #  ORDERSW       129             BIT  6 FLAG  8          ORDERBIT
000151:                                                                                                  #  OURRCFLG      198             BIT 12 FLAG 13          OURRCBIT
000152:                                                                                                  #  PDSPFLAG      063             BIT 12 FLAG  4          PDSPFBIT
000153:                                                                                                  #  PFRATFLG      041             BIT  4 FLAG  2          PFRATBIT
000154:                                                                                                  #  PINBRFLG      069             BIT  6 FLAG  4          PINBRBIT
000155:                                                                                                  #  PRECIFLG      052             BIT  8 FLAG  3          PRECIBIT
000156:                                                                                                  #  PRIODFLG      061             BIT 14 FLAG  1          PRIODBIT
000157:                                                                                                  #  PRONVFLG      068             BIT  7 FLAG  4          PRONVBIT
000158:                                                                                                  #  PSTHIGAT      169             BIT 11 FLAG 11          PSTHIBIT
000159:                                                                                                  #  PULSEFLG      195             BIT 15 FLAG 13          PULSES
000160:                                                                                                  #  P21FLAG       004             BIT 11 FLAG  0          P21FLBIT
000161:                                                                                                  #  P25FLAG       006             BIT  9 FLAG  0          P25FLBIT
000162:                                                                                                  #  P39/79SW      126             BIT  9 FLAG  8          P39SWBIT
000163:                                                                                                  #  QUITFLAG      145             BIT 5 FLAG 9            QUITBIT
000164:                                                                                                  #  RADMODES                      FLGWRD12
000165:                                                                                                  #  RASFLAG                       FLGWRD10
000166:                                                                                                  #  RCDUFAIL      188             BIT  7 FLAG 12          RCDUFBIT
000167:                                                                                                  #  RCDU0FLG      182             BIT 13 FLAG 12          RCDU0BIT
000168:                                                                                                  #  READLR        174             BIT  6 FLAG 11          READLBIT


000170:                                                                                                  #  READRFLG      051             BIT  9 FLAG  3          READRBIT        EQUIVALENT FLAG NAME:  R04FLAG
000171:                                                                                                  #  READVEL       175             BIT  5 FLAG 11          READVBIT
000172:                                                                                                  #  REDFLAG       099             BIT  6 FLAG  6          REDFLBIT
000173:                                                                                                  #  REFSMFLG      047             BIT 13 FLAG  3          REFSMBIT
000174:                                                                                                  #  REINTFLG      158             BIT  7 FLAG 10          REINTBIT
000175:                                                                                                  #  REMODFLG      181             BIT 14 FLAG 12          REMODBIT
000176:                                                                                                  #  RENDWFLG      089             BIT  1 FLAG  5          RENDWBIT
000177:                                                                                                  #  REPOSMON      184             BIT 11 FLAG 12          REPOSBIT
000178:                                                                                                  #  RHCSCFLG      203             BIT  7 FLAG 13          RHCSCALE
000179:                                                                                                  #  RNDVZFLG      008             BIT  7 FLAG  0          RNDVZBIT
000180:                                                                                                  #  RNGEDATA      176             BIT  4 FLAG 11          RNGEDBIT
000181:                                                                                                  #  RNGSCFLG      080             BIT 10 FLAG  5          RNGSCBIT
000182:                                                                                                  #  RODFLAG       018             BIT 12 FLAG  1          RODFLBIT
000183:                                                                                                  #  ROTFLAG       144             BIT  6 FLAG  9          ROTFLBIT
000184:                                                                                                  #  RPQFLAG       120             BIT 15 FLAG  8          RPQFLBIT
000185:                                                                                                  #  RRDATAFL      191             BIT  4 FLAG 12          RRDATABT
000186:                                                                                                  #  RRNBSW        009             BIT  6 FLAG  0          RRNBBIT
000187:                                                                                                  #  RRRSFLAG      192             BIT  3 FLAG 12          RRRSBIT
000188:                                                                                                  #  RVSW          111             BIT  9 FLAG  7          RVSWBIT
000189:                                                                                                  #  R04FLAG       051             BIT  9 FLAG  3          R04FLBIT        EQUIVALENT FLAG NAME:  READRFLG
000190:                                                                                                  #  R10FLAG       013             BIT  2 FLAG  0          R10FLBIT
000191:                                                                                                  #  R61FLAG       020             BIT 10 FLAG  1          R61FLBIT
000192:                                                                                                  #  R77FLAG       079             BIT 11 FLAG  5          R77FLBIT
000193:                                                                                                  #  SCALBAD       177             BIT  3 FLAG 11          SCABBIT
000194:                                                                                                  #  SLOPESW       027             BIT  3 FLAG  1          SLOPEBIT
000195:                                                                                                  #  SNUFFER       077             BIT 13 FLAG  5          SNUFFBIT
000196:                                                                                                  #  SOLNSW        087             BIT  3 FLAG  5          SOLNSBIT
000197:                                                                                                  #  SRCHOPTN      031             BIT 14 FLAG  2          SRCHOBIT
000198:                                                                                                  #  STATEFLG      055             BIT  5 FLAG  3          STATEBIT
000199:                                                                                                  #  STEERSW       034             BIT 11 FLAG  2          STEERBIT
000200:                                                                                                  #  SURFFLAG      127             BIT  8 FLAG  8          SURFFBIT
000201:                                                                                                  #  SWANDISP      109             BIT 11 FLAG  7          SWANDBIT
000202:                                                                                                  #  S32.1F1       090             BIT 15 FLAG  6          S32BIT1
000203:                                                                                                  #  S32.1F2       092             BIT 14 FLAG  6          S32BIT2
000204:                                                                                                  #  S32.1F3A      092             BIT 13 FLAG  6          S32BIT3A
000205:                                                                                                  #  S32.1S3B      093             BIT 12 FLAG  6          S32BIT3B
000206:                                                                                                  #  TFFSW         119             BIT  1 FLAG  7          TFFSWBIT
000207:                                                                                                  #  TRACKFLG      025             BIT  5 FLAG  1          TRACKBIT
000208:                                                                                                  #  TURNONFL      194             BIT  1 FLAG 12          TURNONBT
000209:                                                                                                  #  ULLAGFLG      204             BIT  6 FLAG 13          ULLAGER
000210:                                                                                                  #  UPDATFLG      023             BIT  7 FLAG  1          UPDATBIT
000211:                                                                                                  #  UPLOCKFL      116             BIT  4 FLAG 7           UPLOCBIT
000212:                                                                                                  #  USEQRFLG      196             BIT 14 FLAG 13          USEQRJTS
000213:                                                                                                  #  VEHUPFLG      022             BIT  8 FLAG  1          VEHUPBIT
000214:                                                                                                  #  VELDATA       173             BIT  7 FLAG 11          VELDABIT
000215:                                                                                                  #  VERIFLAG      117             BIT  3 FLAG  7          VERIFBIT
000216:                                                                                                  #  VFLAG         050             BIT 10 FLAG  3          VFLAGBIT
000217:                                                                                                  #  VFLSHFLG      178             BIT  2 FLAG 11          VFLSHBIT
000218:                                                                                                  #  VINTFLAG      057             BIT  3 FLAG  3          VINTFBIT
000219:                                                                                                  #  VXINH         168             BIT 12 FLAG 11          VXINHBIT


000221:                                                                                                  #  V37FLAG       114             BIT  6 FLAG  7          V37FLBIT
000222:                                                                                                  #  V67FLAG       112             BIT  8 FLAG  7          V67FLBIT
000223:                                                                                                  #  V82EMFLG      118             BIT  2 FLAG  7          V82EMBIT
000224:                                                                                                  #  XDELVFLG      037             BIT  8 FLAG  2          XDELVBIT
000225:                                                                                                  #  XDSPFLAG      074             BIT  1 FLAG  4          XDSPBIT
000226:                                                                                                  #  XORFLG        171             BIT  9 FLAG 11          XORFLBIT
000227:                                                                                                  #  XOVINFLG      201             BIT  9 FLAG 13          XOVINHIB
000228:                                                                                                  #  3AXISFLG      084             BIT  6 FLAG  5          3AXISBIT
000229:                                                                                                  #  360SW         134             BIT  1 FLAG  8          360SWBIT
000230:
000231:                                                                                                  #  ASSIGNMENT AND DESCRIPTION OF FLAGWORDS
000232:
000233: 26,2022     0074               FLAGWRD0           =        STATE      +0                         #  (000-014)
000234:
000235:                                                                                                  #        (SET)                   (RESET)
000236:
000237:                                                                                                  #  BIT 15 FLAG 0 (S)
000238:                                                                                                  #                =       000D
000239:                                                                                                  #                =       BIT15
000240:
000241:                                                                                                  #  BIT 14 FLAG 0 (S)
000242: 26,2022                        JSWITCH            =        001D                                  #        INTEGRATION OF W        INTEGRATION OF STATE
000243: 26,2022     4736               JSWCHBIT           =        BIT14                                 #        MATRIX                  VECTOR
000244:
000245:                                                                                                  #  BIT 13 FLAG 0 (S)
000246: 26,2022                        MIDFLAG            =        002D                                  #        INTEGRATION WITH        INTEGRATION WITHOUT
000247:                                                                                                  #        SECONDARY BODY AND      SOLAR PERTURBATIONS
000248: 26,2022     4737               MIDFLBIT           =        BIT13                                 #        SOLAR PERTURBATIONS
000249:
000250:                                                                                                  #  BIT 12 FLAG 0 (L)
000251: 26,2022                        MOONFLAG           =        003D                                  #        MOON IS SPHERE OF       EARTH IS SPHERE OF
000252: 26,2022     4740               MOONBIT            =        BIT12                                 #        INFLUENCE               INFLUENCE
000253:
000254:                                                                                                  #  BIT 11 FLAG 0
000255: 26,2022                        P21FLAG            =        004D                                  #        USE BASE VECTORS        1ST PASS -- CALC-
000256: 26,2022     4741               P21FLBIT           =        BIT11                                 #        ALREADY CALCULATED      ULATE BASE VECTORS
000257:
000258:                                                                                                  #  BIT 10 FLAG 0
000259: 26,2022                        FSPASFLG           =        005D                                  #        FIRST PASS THROUGH      NOT FIRST PASS THRU
000260: 26,2022     4742               FSPASBIT           =        BIT10                                 #        REPOSITION ROUTINE      REPOSITION ROUTINE
000261:


000263:                                                                                                  #  BIT 9 FLAG 0  (S)
000264: 26,2022                        P25FLAG            =        006D                                  #        P25 OPERATING           P25 NOT OPERATING
000265: 26,2022     4743               P25FLBIT           =        BIT9
000266:
000267:                                                                                                  #  BIT 8 FLAG 0  (S)
000268: 26,2022                        IMUSE              =        007D                                  #        IMU IN USE              IMU NOT IN USE
000269: 26,2022     4744               IMUSEBIT           =        BIT8
000270:
000271:                                                                                                  #  BIT 7 FLAG 0  (S)
000272: 26,2022                        RNDVZFLG           =        008D                                  #        P20 RUNNING (RADAR      P20 NOT RUNNING
000273: 26,2022     4745               RNDVZBIT           =        BIT7                                  #        IN USE)
000274:
000275:                                                                                                  #  BIT 6 FLAG 0  (S)
000276: 26,2022                        RRNBSW             =        009D                                  #        RADAR TARGET IN         RADAR TARGET IN
000277: 26,2022     4746               RRNBBIT            =        BIT6                                  #        NB COORDINATES          SM COORDINATES
000278:
000279:                                                                                                  #  BIT 5 FLAG 0  (S)
000280: 26,2022                        LOKONSW            =        010D                                  #        RADAR LOCK-ON           RADAR LOCK-ON NOT
000281: 26,2022     4747               LOKONBIT           =        BIT5                                  #        DESIRED                 DESIRED
000282:
000283:                                                                                                  #  BIT 4 FLAG 0  (S)
000284: 26,2022                        NEEDLFLG           =        011D                                  #        TOTAL ATTITUDE          A/P FOLLOWING
000285: 26,2022     4750               NEEDLBIT           =        BIT4                                  #        ERROR DISPLAYED         ERROR DISPLAYED
000286:
000287:                                                                                                  #  BIT 3 FLAG 0
000288: 26,2022                        FREEFLAG           =        012D                                  #  (USED BY P51-53 TEMP IN MANY DIFFERENT
000289:                                                                                                  #  ROUTINES & BY LUNAR + SOLAR EPHEMERIDES)
000290: 26,2022     4751               FREEFBIT           =        BIT3
000291:
000292:                                                                                                  #  BIT 2 FLAG 0
000293: 26,2022                        R10FLAG            =        013D                                  #        R10 OUTPUTS DATA TO     BESIDES OUTPUT WHEN
000294: 26,2022     4752               R10FLBIT           =        BIT2                                  #        ALTITUDE & ALTITUDE     SET, R10 ALSO OUTPUT
000295:                                                                                                  #        RATE METERS ONLY        TO FORWARD & LATERAL
000296:                                                                                                  #                                VELOCITY CROSSPOINTR
000297:
000298:                                                                                                  #  BIT 1 FLAG 0  (L)
000299: 26,2022                        OLDESFLG           =        014D                                  #        R29 GYRO CMD LOOP       R29 GYRO CMD LOOP
000300: 26,2022     4753               OLDESBIT           =        BIT1                                  #        REQUESTED               NOT REQUESTED
000301:
000302:
000303: 26,2022     0075               FLAGWRD1           =        STATE      +1                         #  (015-029)
000304:


000306:                                                                                                  #        (SET)                   (RESET)
000307:
000308:                                                                                                  #  BIT 15 FLAG 1 (S)
000309: 26,2022                        NJETSFLG           =        015D                                  #        TWO JET RCS BURN        FOUR JET RCS BURN
000310: 26,2022     4735               NJETSBIT           =        BIT15
000311:
000312:                                                                                                  #  BIT 14 FLAG 1 (L)
000313: 26,2022                        DIDFLAG            =        016D                                  #        INERTIAL DATA IS        PERFORM DATA DISPLAY
000314: 26,2022     4736               DIDFLBIT           =        BIT14                                 #        AVAILABLE               INITIALIZATION FUNCS
000315:
000316:                                                                                                  #  BIT 13 FLAG 1 (S)
000317: 26,2022                        ERADFLAG           =        017D                                  #        COMPUTE REARTH          USE CONSTANT REARTH
000318: 26,2022     4737               ERADFBIT           =        BIT13                                 #        FISCHER ELLIPSOID       PAD RADIUS
000319:
000320:                                                                                                  #  BIT 12 FLAG 1
000321: 26,2022                        RODFLAG            =        018D                                  #        IF IN P66, NORMAL       IF IN P66, RE-INIT-
000322: 26,2022     4740               RODFLBIT           =        BIT12                                 #        OPERATION CONTINUES.    IALIZATION IS PER-
000323:                                                                                                  #        RESTART CLEARS FLAG     FORMED AND FLAG IS
000324:
000325:                                                                                                  #  BIT 11 FLAG 1
000326:                                                                                                  #                =       019D
000327:                                                                                                  #                =       BIT11
000328:
000329:                                                                                                  #  BIT 10 FLAG 1 (L)
000330: 26,2022                        R61FLAG            =        020D                                  #        RUN R61 LEM             RUN R65 LEM
000331: 26,2022     4742               R61FLBIT           =        BIT10
000332:
000333:                                                                                                  #  BIT 9 FLAG 1
000334:                                                                                                  #                =       021D
000335:                                                                                                  #                =       BIT9
000336:
000337:                                                                                                  #  BIT 8 FLAG 1  (S)
000338: 26,2022                        VEHUPFLG           =        022D                                  #        CSM STATE VECTOR        LEM STATE VECTOR
000339: 26,2022     4744               VEHUPBIT           =        BIT8                                  #        BEING UPDATED           BEING UPDATED
000340:
000341:                                                                                                  #  BIT 7 FLAG 1  (S)
000342: 26,2022                        UPDATFLG           =        023D                                  #        UPDATING BY MARKS       UPDATING BY MARKS
000343: 26,2022     4745               UPDATBIT           =        BIT7                                  #        ALLOWED                 NOT ALLOWED
000344:
000345:                                                                                                  #  BIT 6 FLAG 1  (S)
000346: 26,2022                        NOUPFLAG           =        024D                                  #        NEITHER CSM             EITHER STATE
000347:                                                                                                  #        NOR LM STATE VECTOR     VECTOR MAY BE
000348: 26,2022     4746               NOUPFBIT           =        BIT6                                  #        MAY BE UPDATED          UPDATED
000349:


000351:                                                                                                  #  BIT 5 FLAG 1  (S)
000352: 26,2022                        TRACKFLG           =        025D                                  #        TRACKING ALLOWED        TRACKING NOT ALLOWED
000353: 26,2022     4747               TRACKBIT           =        BIT5
000354:
000355:                                                                                                  #  BIT 4 FLAG 1
000356:                                                                                                  #                =       026D
000357:                                                                                                  #                =       BIT4
000358:
000359:                                                                                                  #  BIT 3 FLAG 1  (S)
000360: 26,2022                        SLOPESW            =        027D                                  #        ITERATE WITH BIAS       ITERATE WITH REGULAR
000361:                                                                                                  #        METHOD IN ITERATOR      FALSI METHOD IN
000362: 26,2022     4751               SLOPEBIT           =        BIT3                                  #                                ITERATOR
000363:
000364:                                                                                                  #  BIT 2 FLAG 1  (S)
000365: 26,2022                        GUESSW             =        028D                                  #        NO STARTING VALUE       STARTING VALUE FOR
000366: 26,2022     4752               GUESSBIT           =        BIT2                                  #        FOR ITERATION           ITERATION EXISTS
000367:
000368:                                                                                                  #  BIT 1 FLAG 1
000369:                                                                                                  #                =       029D
000370:
000371: 26,2022     0076               FLAGWRD2           =        STATE      +2                         #  (030-044)
000372:
000373:                                                                                                  #        (SET)                   (RESET)
000374:
000375:                                                                                                  #  BIT 15 FLAG 2 (S)
000376: 26,2022                        DRIFTFLG           =        030D                                  #        T3RUPT CALLS GYRO       T3RUPT DOES NO GYRO
000377: 26,2022     4735               DRFTBIT            =        BIT15                                 #        COMPENSATION            COMPENSATION
000378:
000379:                                                                                                  #  BIT 14 FLAG 2 (S)
000380: 26,2022                        SRCHOPTN           =        031D                                  #        RADAR IN AUTOMATIC      RADAR NOT IN AUTO-
000381: 26,2022     4736               SRCHOBIT           =        BIT14                                 #        SEARCH OPTION (R24)     MATIC SEARCH OPTION
000382:
000383:                                                                                                  #  BIT 13 FLAG 2 (S)
000384: 26,2022                        ACMODFLG           =        032D                                  #        MANUAL ACQUISITION      AUTO ACQUISITION
000385: 26,2022     4737               ACMODBIT           =        BIT13                                 #        BY RENDESVOUS RADAR     BY RENDESVOUS RADAR
000386:
000387:                                                                                                  #  BIT 12 FLAG 2 (S)
000388: 26,2022                        LOSCMFLG           =        033D                                  #        LINE OF SIGHT BEING     LINE OF SIGHT NOT
000389:                                                                                                  #        COMPUTED (R21)          BEING COMPUTED
000390: 26,2022     4740               LOSCMBIT           =        BIT12
000391:


000393:                                                                                                  #        IN R29 (L): RR GYRO     IN R29 (L): RR GYRO
000394:                                                                                                  #        CMD LOOP RUNNING        CMD LOOP OFF
000395:
000396:                                                                                                  #  BIT 11 FLAG 2 (S)
000397: 26,2022                        STEERSW            =        034D                                  #        SUFFICIENT THRUST       INSUFFICIENT THRUST
000398: 26,2022     4741               STEERBIT           =        BIT11                                 #        IS PRESENT              IS PRESENT
000399:
000400:                                                                                                  #  BIT 10 FLAG 2 (S)
000401:
000402:                                                                                                  #  BIT 9 FLAG 2 (S)
000403: 26,2022                        IMPULSW            =        036D                                  #        MINIMUM IMPULSE         STEERING BURN (NO
000404:                                                                                                  #        BURN (CUTOFF TIME       CUTOFF TIME YET
000405: 26,2022     4743               IMPULBIT           =        BIT9                                  #        SPECIFIED)              AVAILABLE)
000406:
000407:                                                                                                  #  BIT 8 FLAG 2 (S)
000408: 26,2022                        XDELVFLG           =        037D                                  #        EXTERNAL DELTAV VG      LAMBERT (AIMPOINT)
000409: 26,2022     4744               XDELVBIT           =        BIT8                                  #        COMPUTATION             VG COMPUTATION
000410:
000411:                                                                                                  #  BIT 7 FLAG 2 (S)
000412: 26,2022                        ETPIFLAG           =        038D                                  #        ELEVATION ANGLE         TPI TIME SUPPLIED
000413:                                                                                                  #        SUPPLIED FOR            FOR P34,74 TO COMPUT
000414: 26,2022     4745               ETPIBIT            =        BIT7                                  #        P34,74                  ELEVATION
000415:
000416:                                                                                                  #  BIT 7 FLAG 2 (L)
000417: 26,2022  0000046               OPTNSW             =        ETPIFLAG                              #        SOI PHASE OF P38/78     SOR PHASE OF P38/78
000418: 26,2022     4745               OPTNBIT            =        BIT7
000419:
000420:                                                                                                  #  BIT 6 FLAG 2 (S)
000421: 26,2022                        FINALFLG           =        039D                                  #        LAST PASS THROUGH       INTERIM PASS THROUGH
000422:                                                                                                  #        RENDEZVOUS PROGRAM      RENDEZVOUS PROGRAM
000423: 26,2022     4746               FINALBIT           =        BIT6                                  #        COMPUTATIONS            COMPUTATIONS
000424:
000425:                                                                                                  #  BIT 5 FLAG 2 (S)
000426: 26,2022                        AVFLAG             =        040D                                  #        LEM IS ACTIVE           CSM IS ACTIVE
000427: 26,2022     4747               AVFLBIT            =        BIT5                                  #        VEHICLE                 VEHICLE
000428:
000429:                                                                                                  #  BIT 4 FLAG 2 (S)
000430: 26,2022                        PFRATFLG           =        041D                                  #        PREFERRED ATTITUDE      PREFERRED ATTITUDE
000431: 26,2022     4750               PFRATBIT           =        BIT4                                  #        COMPUTED                NOT COMPUTED
000432:
000433:                                                                                                  #  BIT 3 FLAG 2 (S)
000434:


000436: 26,2022                        CALCMAN3           =        042D                                  #        NO FINAL ROLL           FINAL ROLL IS
000437: 26,2022     4751               CALC3BIT           =        BIT3                                  #                                NECESSARY
000438:
000439:                                                                                                  #  BIT 2 FLAG 2 (S)
000440: 26,2022                        CALCMAN2           =        043D                                  #        PERFORM MANEUVER        BYPASS STARTING
000441: 26,2022     4752               CALC2BIT           =        BIT2                                  #        STARTING PROCEDURE      PROCEDURE
000442:
000443:                                                                                                  #  BIT 1 FLAG 2 (S)
000444: 26,2022                        NODOFLAG           =        044D                                  #        V37 NOT PERMITTED       V37 PERMITTED
000445: 26,2022     4753               NODOBIT            =        BIT1
000446:
000447: 26,2022     0077               FLAGWRD3           =        STATE      +3                         #  (045-059)
000448:
000449:                                                                                                  #        (SET)                   (RESET)
000450:
000451:                                                                                                  #  BIT 15 FLAG 3
000452:                                                                                                  #                =       045D
000453:
000454:                                                                                                  #  BIT 14 FLAG 3 (S)
000455: 26,2022                        GLOKFAIL           =        046D                                  #        GIMBAL LOCK HAS         NOT IN GIMBAL LOCK
000456: 26,2022     4736               GLOKFBIT           =        BIT14                                 #        OCCURRED
000457:
000458:                                                                                                  #  BIT 13 FLAG 3 *** PROTECTED FROM FRESH START ***
000459: 26,2022                        REFSMFLG           =        047D                                  #        REFSMMAT GOOD           REFSMMAT NO GOOD
000460: 26,2022     4737               REFSMBIT           =        BIT13
000461:
000462:                                                                                                  #  BIT 12 FLAG 3 (S)
000463: 26,2022                        LUNAFLAG           =        048D                                  #        LUNAR LAT-LONG          EARTH LAT-LONG
000464: 26,2022     4740               LUNABIT            =        BIT12
000465:
000466:                                                                                                  #  BIT 11 FLAG 3 (L)
000467: 26,2022                        NOR29FLG           =        049D                                  #        R29 NOT ALLOWED         R29 ALOWED (RR DES-
000468: 26,2022     4741               NR29FBIT           =        BIT11                                 #                                IGNATE, POWERED FLT)
000469:
000470:                                                                                                  #  BIT 10 FLAG 3 (S)
000471: 26,2022                        VFLAG              =        050D                                  #        LESS THAN TWO STARS     TWO STARS IN FIELD
000472: 26,2022     4742               VFLAGBIT           =        BIT10                                 #        IN FIELD OF VIEW        OF VIEW
000473:
000474:                                                                                                  #  BIT 9 FLAG 3  (S)
000475: 26,2022                        R04FLAG            =        051D                                  #        ALARM 521               ALARM 521 ALLOWED
000476:                                                                                                  #        SUPPRESSED


000478: 26,2022     4743               R04FLBIT           =        BIT9
000479:
000480:                                                                                                  #  BIT 9 FLAG 3  (L)
000481: 26,2022  0000063               READRFLG           =        R04FLAG                               #        READING RR DATA         NOT READING RR DATA
000482: 26,2022     4743               READRBIT           =        BIT9                                  #        PURSUANT TO R29         PURSUANT TO R29
000483:
000484:                                                                                                  #  BIT 8 FLAG 3  (S)
000485: 26,2022                        PRECIFLG           =        052D                                  #        NORMAL INTEGRATION      ENGAGES 4-TIME STEP
000486:                                                                                                  #        IN POO                  (POO) LOGIC IN INTE-
000487: 26,2022     4744               PRECIBIT           =        BIT8                                  #                                GRATION
000488:
000489:                                                                                                  #  BIT 7 FLAG 3  (S)
000490: 26,2022                        CULTFLAG           =        053D                                  #        STAR OCCULTED           STAR NOT OCCULTED
000491: 26,2022     4745               CULTBIT            =        BIT7
000492:
000493:                                                                                                  #  BIT 6 FLAG 3  (S)
000494: 26,2022                        ORBWFLAG           =        054D                                  #        W MATRIX VALID FOR      W MATRIX INVALID FOR
000495: 26,2022     4746               ORBWFBIT           =        BIT6                                  #        ORBITAL NAVIGATION      ORBITAL NAVIGATION
000496:
000497:                                                                                                  #  BIT 5 FLAG 3  (S)
000498: 26,2022                        STATEFLG           =        055D                                  #        PERMANENT STATE         PERMANENT STATE
000499: 26,2022     4747               STATEBIT           =        BIT5                                  #        VECTOR UPDATED          VECTOR NOT UPDATED
000500:
000501:                                                                                                  #  BIT 4 FLAG 3  (S)
000502: 26,2022                        INTYPFLG           =        056D                                  #        CONIC INTEGRATION       ENCKE INTEGRATION
000503: 26,2022     4750               INTYPBIT           =        BIT4
000504:
000505:                                                                                                  #  BIT 3 FLAG 3  (S)
000506: 26,2022                        VINTFLAG           =        057D                                  #        CSM STATE VECTOR        LEM STATE VECTOR
000507: 26,2022     4751               VINTFBIT           =        BIT3                                  #        BEING INTEGRATED        BEING INTEGRATED
000508:
000509:                                                                                                  #  BIT 2 FLAG 3 (S)
000510: 26,2022                        D6OR9FLG           =        058D                                  #        DIMENSION OF W IS 9     DIMENSION OF W IS 6
000511: 26,2022     4752               D6OR9BIT           =        BIT2                                  #        FOR INTEGRATION         FOR INTEGRATION
000512:
000513:                                                                                                  #  BIT 1 FLAG 3  (S)
000514: 26,2022                        DIM0FLAG           =        059D                                  #        W MATRIX IS TO BE       W MATRIX IS NOT TO
000515: 26,2022     4753               DIM0BIT            =        BIT1                                  #        USED                    BE USED
000516:
000517: 26,2022     0100               FLAGWRD4           =        STATE      +4                         #  (060-074)
000518:


000520:                                                                                                  #        (SET)                   (RESET)
000521:
000522:                                                                                                  #  BIT 15 FLAG 4 (S)
000523: 26,2022                        MRKIDFLG           =        060D                                  #        MARK DISPLAY IN         NO MARK DISPLAY IN
000524: 26,2022     4735               MRKIDBIT           =        BIT15                                 #        ENDIDLE                 ENDIDLE
000525:
000526:                                                                                                  #  BIT 14 FLAG 4 (S)
000527: 26,2022                        PRIODFLG           =        061D                                  #        PRIORITY DISPLAY IN     NO PRIORITY DISPLAY
000528: 26,2022     4736               PRIODBIT           =        BIT14                                 #        ENDIDLE                 IN ENDIDLE
000529:
000530:                                                                                                  #  BIT 13 FLAG 4 (S)
000531: 26,2022                        NRMIDFLG           =        062D                                  #        NORMAL DISPLAY IN       NO NORMAL DISPLAY
000532: 26,2022     4737               NRMIDBIT           =        BIT13                                 #        ENDIDLE                 IN ENDIDLE
000533:
000534:                                                                                                  #  BIT 12 FLAG 4 (S)
000535: 26,2022                        PDSPFLAG           =        063D                                  #        P20 SETS SO AS TO       LEAVE AS NORMAL DISP
000536:                                                                                                  #        TURN A NORMAL DIS-
000537: 26,2022     4740               PDSPFBIT           =        BIT12                                 #        PLAY INTO A PRIORITY
000538:                                                                                                  #        DISPLAY IN R60
000539:
000540:                                                                                                  #  BIT 11 FLAG 4 (S)
000541: 26,2022                        MWAITFLG           =        064D                                  #        HIGHER PRIORITY         NO HIGHER PRIORITY
000542:                                                                                                  #        DISPLAY OPERATING       DISPLAY OPERATING
000543: 26,2022     4741               MWAITBIT           =        BIT11                                 #        WHEN MARK DISPLAY       WHEN MARK DISPLAY
000544:                                                                                                  #        INITIATED               INITIATED
000545:
000546:                                                                                                  #  BIT 10 FLAG 4 (S)
000547: 26,2022                        NWAITFLG           =        065D                                  #        HIGHER PRIORITY         NO HIGHER PRIORITY
000548:                                                                                                  #        DISPLAY OPERATING       DISPLAY OPERATING
000549: 26,2022     4742               NWAITBIT           =        BIT10                                 #        WHEN NORMAL             WHEN NORMAL DISPLAY
000550:                                                                                                  #        DISPLAY INITIATED       INITIATED
000551:
000552:                                                                                                  #  BIT 9 FLAG 4  (S)
000553: 26,2022                        MRKNVFLG           =        066D                                  #        ASTRONAUT USING         ASTRONAUT NOT USING
000554:                                                                                                  #        KEYBOARD WHEN MARK      KEYBOARD WHEN MARK
000555: 26,2022     4743               MRKNVBIT           =        BIT9                                  #        DISPLAY INITIATED       DISPLAY INITIATED
000556:
000557:                                                                                                  #  BIT 8 FLAG 4  (S)
000558: 26,2022                        NRMNVFLG           =        067D                                  #        ASTRONAUT USING         ASTRONAUT NOT USING
000559:                                                                                                  #        KEYBOARD WHEN           KEYBOARD WHEN
000560: 26,2022     4744               NRMNVBIT           =        BIT8                                  #        NORMAL DISPLAY          NORMAL DISPLAY
000561:                                                                                                  #        INITIATED               INITIATED
000562:
000563:                                                                                                  #  BIT 7 FLAG 4  (S)
000564: 26,2022                        PRONVFLG           =        068D                                  #        ASTRONAUT USING         ASTRONAUT NOT USING
000565:


000567:                                                                                                  #        KEYBOARD WHEN           KEYBOARD WHEN
000568: 26,2022     4745               PRONVBIT           =        BIT7                                  #        PRIORITY DISPLAY        PRIORITY DISPLAY
000569:                                                                                                  #        INITIATED               INITIATED
000570:
000571:                                                                                                  #  BIT 6 FLAG 4  (S)
000572: 26,2022                        PINBRFLG           =        069D                                  #        ASTRONAUT HAS           ASTRONAUT HAS NOT
000573:                                                                                                  #        INTERFERED WITH         INTERFERED WITH
000574: 26,2022     4746               PINBRBIT           =        BIT6                                  #        EXISTING DISPLAY        EXISTING DISPLAY
000575:
000576:                                                                                                  #  BIT 5 FLAG 4  (S)
000577: 26,2022                        MRUPTFLG           =        070D                                  #        MARK DISPLAY            MARK DISPLAY NOT
000578:                                                                                                  #        INTERRUPTED BY          INTERRUPTED BY
000579: 26,2022     4747               MRUPTBIT           =        BIT5                                  #        PRIORITY DISPLAY        PRIORITY DISPLAY
000580:
000581:                                                                                                  #  BIT 4 FLAG 4  (S)
000582: 26,2022                        NRUPTFLG           =        071D                                  #        NORMAL DISPLAY          NORMAL DISPLAY NOT
000583:                                                                                                  #        INTERRUPTED BY          INTERRUPTED BY
000584: 26,2022     4750               NRUPTBIT           =        BIT4                                  #        PRIORITY OR MARK        PRIORITY OR MARK
000585:                                                                                                  #        DISPLAY                 DISPLAY
000586:
000587:                                                                                                  #  BIT 3 FLAG 4  (S)
000588: 26,2022                        MKOVFLAG           =        072D                                  #        MARK DISPLAY OVER       NO MARK DISPLAY OVER
000589: 26,2022     4751               MKOVBIT            =        BIT3                                  #        NORMAL                  NORMAL
000590:
000591:                                                                                                  #  BIT 2 FLAG 4
000592:                                                                                                  #                =       073D
000593:
000594:
000595:                                                                                                  #  BIT 1 FLAG 4  (S)
000596: 26,2022                        XDSPFLAG           =        074D                                  #        MARK DISPLAY NOT        NO SPECIAL MARK
000597: 26,2022     4753               XDSPBIT            =        BIT1                                  #        TO BE INTERRUPTED       INFORMATION
000598:
000599: 26,2022     0101               FLAGWRD5           =        STATE      +5                         #  (075-089)
000600:
000601:                                                                                                  #        (SET)                   (RESET)
000602:
000603:                                                                                                  #  BIT 15 FLAG 5 (S)
000604: 26,2022                        DSKYFLAG           =        075D                                  #        DISPLAYS SENT TO        NO DISPLAYS TO DSKY
000605: 26,2022     4735               DSKYFBIT           =        BIT15                                 #        DSKY
000606:
000607:                                                                                                  #  BIT 14 FLAG 5
000608:                                                                                                  #                =       076D
000609:                                                                                                  #                =       BIT14
000610:


000612:                                                                                                  #  BIT 13 FLAG 5 (S,L)
000613: 26,2022                        SNUFFER            =        077D                                  #        U,V JETS DISABLED       U,V JETS ENABLED
000614:                                                                                                  #        DURING DPS              DURING DPS
000615: 26,2022     4737               SNUFFBIT           =        BIT13                                 #        BURNS (V65)             BURNS (V75)
000616:
000617:                                                                                                  #  BIT 12 FLAG 5 (S)
000618: 26,2022                        NOTHROTL           =        078D                                  #        INHIBIT FULL            PERMIT FULL THROTTLE
000619: 26,2022     4740               NOTHRBIT           =        BIT12                                 #        THROTTLE
000620:
000621:                                                                                                  #  BIT 11 FLAG 5 (S,L)
000622: 26,2022                        R77FLAG            =        079D                                  #        R77 IS ON,              R77 IS NOT ON.
000623:                                                                                                  #        SUPPRESS ALL RADAR
000624:                                                                                                  #        ALARMS AND TRACKER
000625: 26,2022     4741               R77FLBIT           =        BIT11                                 #        FAILS
000626:
000627:                                                                                                  #  BIT 10 FLAG 5 (S)
000628: 26,2022                        RNGSCFLG           =        080D                                  #        SCALE CHANGE HAS        NO SCALE CHANGE HAS
000629:                                                                                                  #        OCCURRED DURING         OCCURRED DURING
000630: 26,2022     4742               RNGSCBIT           =        BIT10                                 #        RR READING              RR READING
000631:
000632:                                                                                                  #  BIT 9 FLAG 5  (S)
000633: 26,2022                        DMENFLG            =        081D                                  #        DIMENSION OF W IS 9     DIMENSION OF W IS 6
000634: 26,2022     4743               DMENFBIT           =        BIT9                                  #        FOR INCORPORATION       FOR INCORPORATION
000635:
000636:                                                                                                  #  BIT 8 FLAG 5  (S)
000637:                                                                                                  #                =       082D
000638:                                                                                                  #                =       BIT8
000639:
000640:                                                                                                  #  BIT 7 FLAG 5  (S)
000641: 26,2022                        ENGONFLG           =        083D                                  #        ENGINE TURNED ON        ENGINE TURNED OFF
000642: 26,2022     4745               ENGONBIT           =        BIT7                                  #
000643:
000644:                                                                                                  #  BIT 6 FLAG 5  (S)
000645: 26,2022                        3AXISFLG           =        084D                                  #        MANEUVER SPECIFIED      MANEUVER SPECIFIED
000646:                                                                                                  #        BY THREE AXES           BY ONE AXIS; R60
000647: 26,2022     4746               3AXISBIT           =        BIT6                                  #                                CALLS VECPOINT.
000648:
000649:                                                                                                  #  BIT 5 FLAG 5
000650:                                                                                                  #                =       085D
000651:
000652:                                                                                                  #  BIT 4 FLAG 5  (S)
000653:


000655: 26,2022                        NORRMON            =        086D                                  #        BYPASS RR GIMBAL        PERFORM
000656: 26,2022     4750               NORRMBIT           =        BIT4                                  #        MONITOR                 RR GIMBAL MONITOR
000657:
000658:                                                                                                  #  BIT 3 FLAG 5  (S)
000659: 26,2022                        SOLNSW             =        087D                                  #        LAMBERT DOES NOT        LAMBERT CONVERGES OR
000660:                                                                                                  #        CONVERGE, OR TIME-RAD   TIME-RADIUS NON
000661: 26,2022     4751               SOLNSBIT           =        BIT3                                  #        NEARLY CIRCULAR         CIRCULAR
000662:
000663:                                                                                                  #  BIT 2 FLAG 5  (S)
000664: 26,2022                        MGLVFLAG           =        088D                                  #        LOCAL VERTICAL          MIDDLE GIMBAL ANGLE
000665:                                                                                                  #        COORDINATES             COMPUTED
000666: 26,2022     4752               MGLVFBIT           =        BIT2                                  #        COMPUTED
000667:
000668:                                                                                                  #  BIT 1 FLAG 5  (S)
000669: 26,2022                        RENDWFLG           =        089D                                  #        W MATRIX VALID          W MATRIX INVALID
000670:                                                                                                  #        FOR RENDEZVOUS          FOR RENDEZVOUS
000671: 26,2022     4753               RENDWBIT           =        BIT1                                  #        NAVIGATION              NAVIGATION
000672:
000673:
000674: 26,2022     0102               FLAGWRD6           =        STATE      +6                         #  (090-104)
000675:
000676:                                                                                                  #        (SET)                   (RESET)
000677:
000678:                                                                                                  #  BIT 15 FLAG 6 (S)
000679: 26,2022                        S32.1F1            =        090D                                  #        DELTA V AT CSI TIME     DVT1 LESS THEN MAX
000680: 26,2022     4735               S32BIT1            =        BIT15                                 #        ONE EXCEEDS MAX
000681:
000682:                                                                                                  #  BIT 14 FLAG 6 (S)
000683: 26,2022                        S32.1F2            =        091D                                  #        FIRST PASS OF           REITERATION OF
000684: 26,2022     4736               S32BIT2            =        BIT14                                 #        NEWTON ITERATION        NEWTON
000685:
000686:                                                                                                  #  BIT 13 FLAG 6 (S)
000687: 26,2022                        S32.1F3A           =        092D                                  #  BIT 13 AND BIT 12 FUNCTION AS AN ORDERED
000688: 26,2022     4737               S32BIT3A           =        BIT13                                 #  PAIR (13,12) INDICATING THE POSSIBLE OC-
000689:                                                                                                  #  CURRANCE OF 2NEWTON ITERATIONS FOR S32.1
000690:                                                                                                  #  IN THE PROGRAM IN THE FOLLOWING ORDER:
000691:                                                                                                  #  BIT 12 FLAG 6                                   (0,1) (I.E. BIT 13 RESET, BIT 12 SET)
000692: 26,2022                        S32.1F3B           =        093D                                  #       = FIRST NEWTON ITERATION BEING DONE
000693: 26,2022     4740               S32BIT3B           =        BIT12                                 #  (0,0)= FIRST PASS OF SECOND NEWT.ITERAT.
000694:                                                                                                  #  (1,1)= 50 FT/SEC STAGE OF SEC. NEWT.ITER
000695:                                                                                                  #  (1,0)= REMAINDER OF SECOND NEWTON ITERA.
000696:                                                                                                  #  BIT 11 FLAG 6 (S)
000697:


000699:                                                                                                  #  BIT 10 FLAG 6 (S)
000700: 26,2022                        GMBDRVSW           =        095D                                  #        TRIMGIMB OVER           TRIMGIMB NOT OVER
000701: 26,2022     4742               GMBDRBIT           =        BIT10                                 #
000702:
000703:                                                                                                  #  BIT 9 FLAG 6
000704:                                                                                                  #                =       096D
000705:                                                                                                  #                =       BIT9
000706:
000707:                                                                                                  #  BIT 8 FLAG 6  (S)
000708: 26,2022                        MUNFLAG            =        097D                                  #        SERVICER CALLS          SERVICER CALLS
000709: 26,2022     4744               MUNFLBIT           =        BIT8                                  #        MUNRVG                  CALCRVG
000710:
000711:                                                                                                  #  BIT 7 FLAG 6  (L)
000712:
000713:
000714:                                                                                                  #  BIT 6 FLAG 6  (L)
000715: 26,2022                        REDFLAG            =        099D                                  #        LANDING SITE            LANDING SITE
000716:                                                                                                  #        REDESIGNATION           REDESIGNATION NOT
000717: 26,2022     4746               REDFLBIT           =        BIT6                                  #        PERMITTED               PERMITTED
000718:
000719:                                                                                                  #  BIT 5 FLAG 6
000720:                                                                                                  #                =       100D
000721:
000722:                                                                                                  #  BIT 4 FLAG 6
000723:                                                                                                  #                =       101D
000724:
000725:                                                                                                  #  BIT 3 FLAG 6  (S)
000726: 26,2022                        NTARGFLG           =        102D                                  #        ASTRONAUT DID           ASTRONAUT DID NOT
000727:                                                                                                  #        OVERWRITE DELTA         OVERWRITE DELTA
000728: 26,2022     4751               NTARGBIT           =        BIT3                                  #        VELOCITY AT TPI         VELOCITY
000729:                                                                                                  #        OR TPM (P34,35)
000730:
000731:                                                                                                  #  BIT 2 FLAG 6
000732: 26,2022                        AUXFLAG            =        103D                                  #        PROVIDING IDLEFLAG      SERVICER WILL SKIP
000733: 26,2022     4752               AUXFLBIT           =        BIT2                                  #        IS NOT SET, SERV-       DVMON ON ITS NEXT
000734:                                                                                                  #        ICER WILL EXERCISE      PASS EVEN IF THE
000735:                                                                                                  #        DVMON ON ITS NEXT       IDLEFLAG IS NOT SET.
000736:                                                                                                  #        PASS.                   IT WILL THEN SET
000737:                                                                                                  #                                AUXFLAG.
000738:
000739:                                                                                                  #  BIT 1 FLAG 6  (L)
000740: 26,2022                        ATTFLAG            =        104D                                  #        LEM ATTITUDE EXISTS     NO LEM ATTITUDE
000741:                                                                                                  #        IN MOON-FIXED           AVAILABLE IN MOON-
000742:


000744: 26,2022     4753               ATTFLBIT           =        BIT1                                  #        COORDINATES             FIXED COORDINATES
000745:
000746: 26,2022     0103               FLAGWRD7           =        STATE      +7                         #  (105-119)
000747:
000748:                                                                                                  #        (SET)                   (RESET)
000749:
000750:                                                                                                  #  BIT 15 FLAG 7 (S)
000751: 26,2022                        ITSWICH            =        105D                                  #        R34;TPI TIME TO BE      TPI HAS BEEN
000752: 26,2022     4735               ITSWBIT            =        BIT15                                 #        COMPUTED                COMPUTED
000753:
000754:                                                                                                  #  BIT 14 FLAG 7 (S)
000755: 26,2022                        MANUFLAG           =        106D                                  #        ATTITUDE MANEUVER       NO ATTITUDE MANEUVER
000756:                                                                                                  #        GOING DURING RR         DURING RR SEARCH
000757: 26,2022     4736               MANUFBIT           =        BIT14                                 #        SEARCH
000758:
000759:                                                                                                  #  BIT 13 FLAG 7 (S)
000760: 26,2022                        IGNFLAG            =        107D                                  #        TIG HAS ARRIVED         TIG HAS NOT ARRIVED
000761: 26,2022     4737               IGNFLBIT           =        BIT13                                 #
000762:
000763:                                                                                                  #  BIT 12 FLAG 7 (S)
000764: 26,2022                        ASTNFLAG           =        108D                                  #        ASTRONAUT HAS           ASTRONAUT HAS NOT
000765: 26,2022     4740               ASTNBIT            =        BIT12                                 #        OKAYED IGNITION         OKAYED IGNITION
000766:
000767:                                                                                                  #  BIT 11 FLAG 7 (L)
000768: 26,2022                        SWANDISP           =        109D                                  #        LANDING ANALOG          LANDING ANALOG
000769: 26,2022     4741               SWANDBIT           =        BIT11                                 #        DISPLAYS ENABLED        DISPLAYS SUPPRESSED
000770:
000771:                                                                                                  #  BIT 10 FLAG 7 (S)
000772: 26,2022                        NORMSW             =        110D                                  #        UNIT NORMAL INPUT       LAMBERT COMPUTES ITS
000773: 26,2022     4742               NORMSBIT           =        BIT10                                 #        TO LAMBERT              OWN UNIT NORMAL
000774:
000775:                                                                                                  #  BIT 9 FLAG 7  (S)
000776: 26,2022                        RVSW               =        111D                                  #        DO NOT COMPUTE          COMPUTE FINAL STATE
000777:                                                                                                  #        FINAL STATE VECTOR      VECTOR IN TIME-THETA
000778: 26,2022     4743               RVSWBIT            =        BIT9                                  #        IN TIME-THETA
000779:
000780:                                                                                                  #  BIT 8 FLAG 7  (S)
000781: 26,2022                        V67FLAG            =        112D                                  #        ASTRONAUT OVERWRITE     ASTRONAUT DOES NOT
000782:                                                                                                  #        W-MATRIX INITIAL        OVERWRITE W-MATRIX
000783: 26,2022     4744               V67FLBIT           =        BIT8                                  #        VALUES                  INITIAL VALUES
000784:


000786:                                                                                                  #  BIT 7 FLAG 7  (S)
000787: 26,2022                        IDLEFLAG           =        113D                                  #        NO DV MONITOR           CONNECT DV MONITOR
000788: 26,2022     4745               IDLEFBIT           =        BIT7                                  #
000789:
000790:                                                                                                  #  BIT 6 FLAG 7  (S)
000791: 26,2022                        V37FLAG            =        114D                                  #        AVERAGEG (SERVICER)     AVERAGEG (SERVICER)
000792: 26,2022     4746               V37FLBIT           =        BIT6                                  #        RUNNING                 OFF
000793:
000794:                                                                                                  #  BIT 5 FLAG 7  (S)
000795: 26,2022                        AVEGFLAG           =        115D                                  #        AVERAGEG (SERVICER)     AVERAGEG (SERVICER)
000796: 26,2022     4747               AVEGFBIT           =        BIT5                                  #        DESIRED                 NOT DESIRED
000797:
000798:                                                                                                  #  BIT 4 FLAG 7  (S)
000799: 26,2022                        UPLOCKFL           =        116D                                  #        K-KBAR-K FAIL           NO K-KBAR-K FAIL
000800: 26,2022     4750               UPLOCBIT           =        BIT4                                  #
000801:
000802:                                                                                                  #  BIT 3 FLAG 7  (S)
000803: 26,2022                        VERIFLAG           =        117D                                  #  CHANGED WHEN V33E OCCURS AT END OF P27
000804: 26,2022     4751               VERIFBIT           =        BIT3                                  #
000805:
000806:                                                                                                  #  BIT 2 FLAG 7  (L,C)
000807: 26,2022                        V82EMFLG           =        118D                                  #        MOON VICINITY           EARTH VICINITY
000808: 26,2022     4752               V82EMBIT           =        BIT2                                  #
000809:
000810:                                                                                                  #  BIT 1 FLAG 7  (S)
000811: 26,2022                        TFFSW              =        119D                                  #        CALCULATE TPERIGEE      CALCULATE TFF
000812: 26,2022     4753               TFFSWBIT           =        BIT1                                  #
000813:
000814:
000815: 26,2022     0104               FLAGWRD8           =        STATE      +8D                        #  (120-134)
000816:
000817:                                                                                                  #        (SET)                   (RESET)
000818:
000819:                                                                                                  #  BIT 15 FLAG 8 (S)
000820: 26,2022                        RPQFLAG            =        120D                                  #        RPQ NOT COMPUTED        RPQ COMPUTED
000821:                                                                                                  #        (RPQ = VECTOR BE-
000822: 26,2022     4735               RPQFLBIT           =        BIT15                                 #        TWEEN SECONDARY BODY
000823:                                                                                                  #        AND PRIMARY BODY
000824:
000825:                                                                                                  #  BIT 14 FLAG 8
000826:                                                                                                  #                =       121D
000827:                                                                                                  #                =       BIT14
000828:


000830:                                                                                                  #  BIT 13 FLAG 8 (S)
000831: 26,2022                        NEWIFLG            =        122D                                  #        FIRST PASS THROUGH      SUCCEEDING ITERATION
000832: 26,2022     4737               NEWIBIT            =        BIT13                                 #        INTEGRATION             OF INTEGRATION
000833:
000834:                                                                                                  #  BIT 12 FLAG 8 *** PROTECTED FROM FRESH START ***
000835: 26,2022                        CMOONFLG           =        123D                                  #        PERMANENT CSM STATE     PERMANENT CSM STATE
000836: 26,2022     4740               CMOONBIT           =        BIT12                                 #        IN LUNAR SPHERE         IN EARTH SPHERE
000837:
000838:                                                                                                  #  BIT 11 FLAG 8 *** PROTECTED FROM FRESH START ***
000839: 26,2022                        LMOONFLG           =        124D                                  #        PERMANENT LM STATE      PERMANENT LM STATE
000840: 26,2022     4741               LMOONBIT           =        BIT11                                 #        IN LUNAR SPHERE         IN EARTH SPHERE
000841:
000842:                                                                                                  #  BIT 10 FLAG 8 (L)
000843: 26,2022                        FLUNDISP           =        125D                                  #        CURRENT GUIDANCE        CURRENT GUIDANCE
000844: 26,2022     4742               FLUNDBIT           =        BIT10                                 #        DISPLAYS INHIBITED      DISPLAYS PERMITTED
000845:
000846:                                                                                                  #  BIT 9 FLAG 8  (L)
000847: 26,2022                        P39/79SW           =        126D                                  #        P39/79 OPERATING        P38/P78 OPERATING
000848: 26,2022     4743               P39SWBIT           =        BIT9                                  #
000849:
000850:                                                                                                  #  BIT 8 FLAG 8  *** PROTECTED FROM FRESH START ***
000851: 26,2022                        SURFFLAG           =        127D                                  #        LM ON LUNAR SURFACE     LM NOT ON LUNAR
000852: 26,2022     4744               SURFFBIT           =        BIT8                                  #                                SURFACE
000853:
000854:                                                                                                  #  BIT 7 FLAG 8  (S)
000855: 26,2022                        INFINFLG           =        128D                                  #        NO CONIC SOLUTION       CONIC SOLUTION
000856:                                                                                                  #        (CLOSURE THROUGH        EXISTS
000857: 26,2022     4745               INFINBIT           =        BIT7                                  #        INFINITY REQUIRED)
000858:
000859:                                                                                                  #  BIT 6 FLAG 8  (S)
000860: 26,2022                        ORDERSW            =        129D                                  #        ITERATOR USES 2ND       ITERATOR USES 1ST
000861: 26,2022     4746               ORDERBIT           =        BIT6                                  #        ORDER MINIMUM MODE      ORDER STANDARD MODE
000862:
000863:                                                                                                  #  BIT 5 FLAG 8  (S)
000864: 26,2022                        APSESW             =        130D                                  #        RDESIRED OUTSIDE        RDESIRED INSIDE
000865:                                                                                                  #        PERICENTER-APOCENTER    PERICENTER-APOCENTER
000866: 26,2022     4747               APSESBIT           =        BIT5                                  #        RANGE IN TIME-RADI      RANGE IN TIME-RADIUS
000867:
000868:                                                                                                  #  BIT 4 FLAG 8  (S)
000869: 26,2022                        COGAFLAG           =        131D                                  #        NO CONIC SOLUTION -     CONIC SOLUTION
000870:                                                                                                  #        TOO CLOSE TO RECTI-     EXISTS(COGA DOES NOT
000871:


000873: 26,2022     4750               COGAFBIT           =        BIT4                                  #        LINEAR (COGA OVRFLWS)   OVERFLOW)
000874:
000875:                                                                                                  #  BIT 3 FLAG 8
000876:                                                                                                  #                =       132D
000877:
000878:                                                                                                  #  BIT 2 FLAG 8  (L)
000879: 26,2022                        INITALGN           =        133D                                  #        INITIAL PASS THRU       SECOND PASS THRU P57
000880: 26,2022     4752               INITABIT           =        BIT2                                  #        P57                     (CHECK RESET-MILLARD)
000881:
000882:                                                                                                  #  BIT 1 FLAG 8  (S)
000883: 26,2022                        360SW              =        134D                                  #        TRANSFER ANGLE NEAR     TRANSFER ANGLE NOT
000884: 26,2022     4753               360SWBIT           =        BIT1                                  #        360 DEGREES             NEAR 360 DEGREES
000885:
000886:
000887: 26,2022     0105               FLAGWRD9           =        STATE      +9D                        #  (135-149)
000888:
000889:                                                                                                  #        (SET)                   (RESET)
000890:
000891:                                                                                                  #  BIT 15 FLAG 9
000892:                                                                                                  #                =       135D
000893:                                                                                                  #                =       BIT15
000894:
000895:                                                                                                  #  BIT 14 FLAG 9 (L)
000896: 26,2022                        FLVR               =        136D                                  #        VERTICAL RISE           NON-VERTICAL RISE
000897: 26,2022     4736               FLVRBIT            =        BIT14                                 #        (ASCENT GUIDANCE)
000898:
000899:                                                                                                  #  BIT 13 FLAG 9
000900:                                                                                                  #                =       137D
000901:
000902:                                                                                                  #  BIT 12 FLAG 9 (L)
000903: 26,2022                        FLPC               =        138D                                  #        NO POSITION CONTROL     POSITION CONTROL
000904: 26,2022     4740               FLPCBIT            =        BIT12                                 #        (ASCENT GUIDANCE)
000905:
000906:                                                                                                  #  BIT 11 FLAG 9 (L)
000907: 26,2022                        FLPI               =        139D                                  #        PRE-IGNITION PHASE      REGULAR GUIDANCE
000908: 26,2022     4741               FLPIBIT            =        BIT11                                 #        (ASCENT GUIDANCE)
000909:
000910:                                                                                                  #  BIT 10 FLAG 9 (L)
000911: 26,2022                        FLRCS              =        140D                                  #        RCS INJECTION MODE      MAIN ENGINE MODE
000912: 26,2022     4742               FLRCSBIT           =        BIT10                                 #        (ASCENT GUIDANCE)
000913:
000914:                                                                                                  #  BIT 9 FLAG 9  (L)
000915:


000917: 26,2022                        LETABORT           =        141D                                  #        ABORT PROGRAMS          ABORT PROGRAMS
000918: 26,2022     4743               LETABBIT           =        BIT9                                  #        ARE ENABLED             ARE NOT ENABLED
000919:
000920:                                                                                                  #  BIT 8 FLAG 9  (L)
000921: 26,2022                        FLAP               =        142D                                  #        APS CONTINUED ABORT     APS ABORT IS NOT A
000922:                                                                                                  #        AFTER DPS STAGING       CONTINUATION
000923: 26,2022     4744               FLAPBIT            =        BIT8                                  #        (ASCENT GUIDANCE)
000924:
000925:                                                                                                  #  BIT 7 FLAG 9  (L)
000926:                                                                                                  #                =       143D
000927:
000928:
000929:                                                                                                  #  BIT 6 FLAG 9  (L)
000930: 26,2022                        ROTFLAG            =        144D                                  #        P70 AND P71 WILL        P70 AND P71 WILL NOT
000931: 26,2022     4746               ROTFLBIT           =        BIT6                                  #        FORCE VEHICLE           FORCE VEHICLE
000932:                                                                                                  #        ROTATION IN THE         ROTATION IN THE
000933:                                                                                                  #        PREFERRED DIRECTION.    PREFERRED DIRECTION
000934:
000935:                                                                                                  #  BIT 5 FLAG 9  (S)
000936: 26,2022                        QUITFLAG           =        145D                                  #        DISCONTINUE INTEGR.     CONTINUE INTEGRATION
000937: 26,2022     4747               QUITBIT            =        BIT5                                  #
000938:
000939:                                                                                                  #  BIT 4 FLAG 9
000940:                                                                                                  #                =       146D
000941:                                                                                                  #                =       BIT4
000942:
000943:                                                                                                  #  BIT 3 FLAG 9  (L)
000944: 26,2022                        MID1FLAG           =        147D                                  #        INTEGRATE TO TDEC       INTEGRATE TO THE
000945: 26,2022     4751               MID1FBIT           =        BIT3                                  #                                THEN-PRESENT TIME
000946:
000947:                                                                                                  #  BIT 2 FLAG 9  (L)
000948: 26,2022                        MIDAVFLG           =        148D                                  #        INTEGRATION ENTERED     INTEGRATION WAS
000949:                                                                                                  #        FROM ONE OF MIDTOAV     NOT ENTERED VIA
000950: 26,2022     4752               MIDAVBIT           =        BIT2                                  #        PORTALS                 MIDTOAV
000951:
000952:                                                                                                  #  BIT 1 FLAG 9  (S)
000953: 26,2022                        AVEMIDSW           =        149D                                  #        AVETOMID CALLING        NO AVETOMID W INTEGR
000954:                                                                                                  #        FOR W.MATRIX INTEGR     ALLOW SET UP RM,VN.
000955: 26,2022     4753               AVEMDBIT           =        BIT1                                  #        DONT WRITE OVER RN,     PIPTIME
000956:                                                                                                  #        VN,PIPTIME
000957:
000958:
000959: 26,2022     0106               RASFLAG            EQUALS   FLGWRD10                              #  WAS ONLY AN INSTALL-ERASTALL FLAG
000960:


000962: 26,2022     0106               FLGWRD10           =        STATE      +10D                       #  (150-164)
000963:
000964:                                                                                                  #        (SET)                   (RESET)
000965:
000966:                                                                                                  #  BIT 15 FLAG 10
000967:                                                                                                  #                =       150D
000968:
000969:                                                                                                  #  BIT 14 FLAG 10 (L,C)
000970: 26,2022                        INTFLAG            =        151D                                  #        INTEGRATION IN          INTEGRATION NOT IN
000971: 26,2022     4736               INTFLBIT           =        BIT14                                 #        PROGRESS                PROGRESS
000972:
000973:                                                                                                  #  BIT 13 FLAG 10 (S,L)
000974: 26,2022                        APSFLAG            =        152D                                  #        ASCENT STAGE            DESCENT STAGE
000975: 26,2022     4737               APSFLBIT           =        BIT13                                 #         *** PROTECTED FROM FRESH START ***
000976:
000977:                                                                                                  #  BIT 12 FLAG 10
000978:                                                                                                  #                =       153D
000979:
000980:                                                                                                  #  BIT 11 FLAG 10
000981:                                                                                                  #                =       154D
000982:
000983:                                                                                                  #  BIT 10 FLAG 10
000984:                                                                                                  #                =       155D
000985:
000986:                                                                                                  #  BIT 9 FLAG 10
000987:                                                                                                  #                =       156D
000988:
000989:                                                                                                  #  BIT 8 FLAG 10
000990:                                                                                                  #                =       157D
000991:
000992:                                                                                                  #  BIT 7 FLAG 10 (L,C)
000993: 26,2022                        REINTFLG           =        158D                                  #        INTEGRATION ROUTINE     INTEGRATION ROUTINE
000994: 26,2022     4745               REINTBIT           =        BIT7                                  #        TO BE RESTARTED         NOT TO BE RESTARTED
000995:
000996:                                                                                                  #  BIT 6 FLAG 10
000997:                                                                                                  #                =       159D
000998:
000999:                                                                                                  #  BIT 5 FLAG 10
001000:                                                                                                  #                =       160D
001001:


001003:                                                                                                  #  BIT 4 FLAG 10
001004:                                                                                                  #                =       161D
001005:
001006:                                                                                                  #  BIT 3 FLAG 10
001007:                                                                                                  #                =       162D
001008:
001009:                                                                                                  #  BIT 2 FLAG 10
001010:                                                                                                  #                =       163D
001011:
001012:                                                                                                  #  BIT 1 FLAG 10
001013:                                                                                                  #                =       164D
001014:
001015:
001016:
001017: 26,2022     0107               FLGWRD11           =        STATE      +11D                       #  (165-179)
001018:
001019:                                                                                                  #        (SET)                   (RESET)
001020:
001021:                                                                                                  #  BIT 15 FLAG 11 (L)(R12)
001022: 26,2022                        LRBYPASS           =        165D                                  #        BYPASS ALL LANDING      DO NOT BYPASS LR
001023: 26,2022     4735               LRBYBIT            =        BIT15                                 #        RADAR UPDATES           UPDATES
001024:
001025:                                                                                                  #  BIT 14 FLAG 11
001026:                                                                                                  #                =       166D
001027:                                                                                                  #                =       BIT14
001028:
001029:                                                                                                  #                =       BIT 13 FLAG 11
001030:                                                                                                  #                =       167D
001031:                                                                                                  #                =       BIT13
001032:
001033:                                                                                                  #  BIT 12 FLAG 11 (L)(R12)
001034: 26,2022                        VXINH              =        168D                                  #        IF Z VELOCITY DATA      UPDATE X AXIS
001035:                                                                                                  #        UNREASONABLE,           VELOCITY
001036: 26,2022     4740               VXINHBIT           =        BIT12                                 #        BYPASS X VELOCITY
001037:                                                                                                  #        UPDATE ON NEXT PASS
001038:
001039:                                                                                                  #  BIT 11 FLAG 11 (L)(R12)
001040: 26,2022                        PSTHIGAT           =        169D                                  #        PAST HIGATE             PREHIGATE
001041: 26,2022     4741               PSTHIBIT           =        BIT11                                 #
001042:
001043:                                                                                                  #  BIT 10 FLAG 11 (L)(R12)
001044:


001046: 26,2022                        NOLRREAD           =        170D                                  #        LANDING RADAR           LR NOT REPOSITIONING
001047:                                                                                                  #        REPOSITIONING;
001048: 26,2022     4742               NOLRRBIT           =        BIT10                                 #        BYPASS UPDATE
001049:
001050:                                                                                                  #  BIT 9 FLAG 11 (L)(R12)
001051: 26,2022                        XORFLG             =        171D                                  #        BELOW LIMIT             ABOVE LIMIT DO
001052:                                                                                                  #        INHIBIT X AXIS          NOT INHIBIT
001053: 26,2022     4743               XORFLBIT           =        BIT9                                  #        OVERRIDE
001054:
001055:                                                                                                  #  BIT 8 FLAG 11
001056: 26,2022                        LRINH              =        172D                                  #        LANDING RADAR UP-       LR UPDATES INHIBITED
001057: 26,2022     4744               LRINHBIT           =        BIT8                                  #        DATES PERMITTED         BY ASTRONAUT
001058:                                                                                                  #        BY ASTRONAUT
001059:
001060:                                                                                                  #  BIT 7 FLAG 11 (L)(R12)
001061: 26,2022                        VELDATA            =        173D                                  #        LR VELOCITY             LR VELOCITY MEASURE
001062: 26,2022     4745               VELDABIT           =        BIT7                                  #        MEASUREMENT MADE        NOT MADE
001063:
001064:                                                                                                  #  BIT 6 FLAG 11 (L)(R12)
001065: 26,2022                        READLR             =        174D                                  #        OK TO READ LR           DO NOT READ LR RANGE
001066: 26,2022     4746               READLBIT           =        BIT6                                  #        RANGE DATA              DATA
001067:
001068:                                                                                                  #  BIT 5 FLAG 11 (L)(R12)
001069: 26,2022                        READVEL            =        175D                                  #        OK TO READ LR           DO NOT READ LR
001070: 26,2022     4747               READVBIT           =        BIT5                                  #        VELOCITY DATA           VELOCITY DATA
001071:
001072:                                                                                                  #  BIT 4 FLAG 11 (L)(R12)
001073: 26,2022                        RNGEDATA           =        176D                                  #        LR ALTITUDE             LR ALTITUDE MEASURE
001074: 26,2022     4750               RNGEDBIT           =        BIT4                                  #        MEASUREMENT MADE        NOT MADE
001075:
001076:                                                                                                  #  BIT 3 FLAG 11
001077: 26,2022                        SCALBAD            =        177D                                  #        LR LOW SCALE DIS-       LR SCALE DISCRETE
001078: 26,2022     4751               SCABBIT            =        BIT3                                  #        CRETE NOT PRESENT       APPEARS OK
001079:                                                                                                  #        WHEN IT SHOULD BE
001080:
001081:                                                                                                  #  BIT 2 FLAG 11 (L)(R12)
001082: 26,2022                        VFLSHFLG           =        178D                                  #        LR VELOCITY FAIL        LR VEL FAIL LAMP
001083:                                                                                                  #        LAMP SHOULD BE          SHOULDN'T FLASH
001084: 26,2022     4752               VFLSHBIT           =        BIT2                                  #        FLASHING
001085:
001086:                                                                                                  #  BIT 1 FLAG 11 (L)(R12)


001088: 26,2022                        HFLSHFLG           =        179D                                  #        LR ALTITUDE FAIL        LR ALTITUDE FAIL
001089: 26,2022     4753               HFLSHBIT           =        BIT1                                  #        LAMP SHOULD BE          LAMP SHOULD NOT BE
001090:                                                                                                  #        FLASHING                FLASHING
001091:
001092: 26,2022     0110               RADMODES           EQUALS   FLGWRD12                              #  RADAR FLAG WORD
001093:
001094: 26,2022     0110               FLGWRD12           =        STATE      +12D                       #  (180-194)             WAS RADMODES
001095:
001096:                                                                                                  #        (SET)                   (RESET)
001097:
001098:                                                                                                  #  BIT 15 FLAG 12
001099: 26,2022                        CDESFLAG           =        180D                                  #        CONTINUOUS DESIG-       LGC CHECKS FOR LOCK-
001100: 26,2022     4735               CDESBIT            =        BIT15                                 #        NATE. LGC COMMANDS      ON WHEN ANTENNA
001101:                                                                                                  #        RR REGARDLESS OF        BEING DESIGNATED
001102:                                                                                                  #        LOCK-ON
001103:
001104:                                                                                                  #  BIT 14 FLAG 12
001105: 26,2022                        REMODFLG           =        181D                                  #        CHANGE IN ANTENNA       NO REMODE REQUESTED
001106: 26,2022     4736               REMODBIT           =        BIT14                                 #        MODE BEEN REQUESTED     OR OCCURRING
001107:                                                                                                  #        I.E., REMODE
001108:
001109:                                                                                                  #  BIT 13 FLAG 12
001110: 26,2022                        RCDU0FLG           =        182D                                  #        RR CDU'S BEING          RR CDU'S NOT BEING
001111: 26,2022     4737               RCDU0BIT           =        BIT13                                 #        ZEROED                  ZEROED
001112:
001113:                                                                                                  #  BIT 12 FLAG 12
001114: 26,2022                        ANTENFLG           =        183D                                  #        RR ANTENNA MODE IS      RR ANTENNA IN MODE 1
001115: 26,2022     4740               ANTENBIT           =        BIT12                                 #        MODE 2
001116:
001117:                                                                                                  #  BIT 11 FLAG 12
001118: 26,2022                        REPOSMON           =        184D                                  #        REPOSITION MONITOR.     NO REPOSITION TAKING
001119: 26,2022     4741               REPOSBIT           =        BIT11                                 #        RR REPOSITION IS        PLACE
001120:                                                                                                  #        TAKING PLACE
001121:
001122:                                                                                                  #  BIT 10 FLAG 12
001123: 26,2022                        DESIGFLG           =        185D                                  #        RR DESIGNATE            RR DESIGNATE NOT
001124: 26,2022     4742               DESIGBIT           =        BIT10                                 #        REQUESTED OR IN         REQUESTED OR IN
001125:                                                                                                  #        PROGRESS                PROGRESS
001126:
001127:                                                                                                  #  BIT 9 FLAG 12
001128: 26,2022                        ALTSCALE           =        186D                                  #        LR ALTITUDE READING     LR ALTITUDE READING
001129: 26,2022     4743               ALTSCBIT           =        BIT9                                  #        IS ON HIGH SCALE        IS ON LOW SCALE
001130:


001132:                                                                                                  #  BIT 8 FLAG 12
001133: 26,2022                        LRVELFLG           =        187D                                  #        LR VELOCITY DATA        NO LR VELOCITY DATA
001134: 26,2022     4744               LRVELBIT           =        BIT8                                  #        FAIL                    FAIL
001135:
001136:                                                                                                  #  BIT 7 FLAG 12
001137: 26,2022                        RCDUFAIL           =        188D                                  #        RR CDU FAIL HAS         RR CDU FAIL OCCURRED
001138: 26,2022     4745               RCDUFBIT           =        BIT7                                  #        NOT OCCURRED
001139:
001140:                                                                                                  #  BIT 6 FLAG 12
001141: 26,2022                        LRPOSFLG           =        189D                                  #        LANDING RADAR           LR POSITION 1
001142: 26,2022     4746               LRPOSBIT           =        BIT6                                  #        POSITION 2
001143:
001144:                                                                                                  #  BIT 5 FLAG 12
001145: 26,2022                        LRALTFLG           =        190D                                  #        LR ALTITUDE DATA        NO LR ALTITUDE DATA
001146: 26,2022     4747               LRALTBIT           =        BIT5                                  #        FAIL.  COULD NOT BE     FAIL
001147:                                                                                                  #        READ SUCCESSFULLY.
001148:
001149:                                                                                                  #  BIT 4 FLAG 12
001150: 26,2022                        RRDATAFL           =        191D                                  #        RR DATA FAIL.           NO RR DATA FAIL.
001151: 26,2022     4750               RRDATABT           =        BIT4                                  #        DATA COULD NOT BE
001152:                                                                                                  #        READ SUCCESSFULLY
001153:
001154:                                                                                                  #  BIT 3 FLAG 12
001155: 26,2022                        RRRSFLAG           =        192D                                  #        RR RANGE READING        RR RANGE READING ON
001156: 26,2022     4751               RRRSBIT            =        BIT3                                  #        ON THE HIGH SCALE       THE LOW SCALE
001157:
001158:                                                                                                  #  BIT 2 FLAG 12
001159: 26,2022                        AUTOMODE           =        193D                                  #        RR NOT IN AUTO MODE.    RR IN AUTO MODE
001160: 26,2022     4752               AUTOMBIT           =        BIT2                                  #        AUTO MODE DISCRETE
001161:                                                                                                  #        IS NOT PRESENT
001162:
001163:                                                                                                  #  BIT 1 FLAG 12
001164: 26,2022                        TURNONFL           =        194D                                  #        RR TURN-ON SEQUENCE     NO RR TURN-ON
001165: 26,2022     4753               TURNONBT           =        BIT1                                  #        IN PROGRESS.  (ZERO     SEQUENCE IN PROGRESS
001166:                                                                                                  #        CDU'S, FIX ANTENNA
001167:                                                                                                  #        MODE)
001168:
001169: 26,2022     0111               DAPBOOLS           EQUALS   FLGWRD13                              #  DIGITAL AUTOPILOT FLAGWORD
001170:


001172: 26,2022     0111               FLGWRD13           =        STATE      +13D                       #  (195-209)     WAS DAPBOOLS
001173:
001174:                                                                                                  #        (SET)                   (RESET)
001175:
001176:                                                                                                  #  BIT 15 FLAG 13
001177: 26,2022                        PULSEFLG           =        195D                                  #        MINIMUM IMPULSE         NOT IN MINIMUM
001178: 26,2022     4735               PULSES             =        BIT15                                 #        COMMAND MODE IN         IMPULSE COMMAND MODE
001179:                                                                                                  #        "ATT HOLD" (V76)        (V77)
001180:
001181:                                                                                                  #  BIT 14 FLAG 13
001182: 26,2022                        USEQRFLG           =        196D                                  #        GIMBAL UNUSABLE.        TRIM GIMBAL MAY BE
001183: 26,2022     4736               USEQRJTS           =        BIT14                                 #        USE JETS ONLY.          USED.
001184:
001185:                                                                                                  #  BIT 13 FLAG 13
001186: 26,2022                        CSMDKFLG           =        197D                                  #        CSM DOCKED.  USE        CSM NOT DOCKED TO LM
001187: 26,2022     4737               CSMDOCKD           =        BIT13                                 #        BACKUP DAP
001188:
001189:                                                                                                  #  BIT 12 FLAG 13
001190: 26,2022                        OURRCFLG           =        198D                                  #        CURRENT DAP PASS        CURRENT DAP PASS IS
001191: 26,2022     4740               OURRCBIT           =        BIT12                                 #        IS RATE COMMAND         NOT RATE COMMAND
001192:
001193:                                                                                                  #  BIT 11 FLAG 13
001194: 26,2022                        ACC4-2FL           =        199D                                  #        4 JET X-AXIS TRANS-     2 JET X-AXIS TRANS-
001195: 26,2022     4741               ACC4OR2X           =        BIT11                                 #        LATION REQUESTED        LATION REQUESTED
001196:
001197:                                                                                                  #  BIT 10 FLAG 13
001198: 26,2022                        AORBTFLG           =        200D                                  #        B SYSTEM FOR X-         A SYSTEM FOR X-
001199: 26,2022     4742               AORBTRAN           =        BIT10                                 #        TRANSLATION             TRANSLATION PREFER'D
001200:
001201:                                                                                                  #  BIT 9 FLAG 13
001202: 26,2022                        XOVINFLG           =        201D                                  #        X-AXIS OVERRIDE         X-AXIS OVERRIDE OKAY
001203: 26,2022     4743               XOVINHIB           =        BIT9                                  #        LOCKED OUT
001204:
001205:                                                                                                  #  BIT 8 FLAG 13
001206: 26,2022                        DRIFTDFL           =        202D                                  #        ASSUME 0 OFFSET         USE OFFSET ACCELERA-
001207: 26,2022     4744               DRIFTBIT           =        BIT8                                  #        DRIFTING FLIGHT.        TION ESTIMATE
001208:
001209:                                                                                                  #  BIT 7 FLAG 13
001210: 26,2022                        RHCSCFLG           =        203D                                  #        NORMAL RHC SCALING      FINE RHC SCALING
001211: 26,2022     4745               RHCSCALE           =        BIT7                                  #        REQUESTED               REQUESTED
001212:


001214:                                                                                                  #  BIT 6 FLAG 13
001215: 26,2022                        ULLAGFLG           =        204D                                  #        ULLAGE REQUEST BY       NO INTERNAL ULLAGE
001216: 26,2022     4746               ULLAGER            =        BIT6                                  #        MISSION PROGRAM         REQUEST
001217:
001218:                                                                                                  #  BIT 5 FLAG 13
001219: 26,2022                        AORBSFLG           =        205D                                  #        P-AXIS COUPLES 7.15     P-AXIS COUPLES 4.12
001220: 26,2022     4747               AORBSYST           =        BIT5                                  #        AND 8,16 PREFERRED      AND 3,11 PREFERRED
001221:
001222:                                                                                                  #  BIT 4 FLAG 13
001223: 26,2022                        DBSELFLG           =        206D                                  #        MAX DB SELECTED         MIN DB SELECTED BY
001224: 26,2022     4750               DBSELECT           =        BIT4                                  #        BY CREW (5 DEG)         CREW (0.3 DEG)
001225:
001226:                                                                                                  #  BIT 3 FLAG 13
001227: 26,2022                        ACCOKFLG           =        207D                                  #        CONTROL AUTHORITY       RESTART OR FRESH ST.
001228: 26,2022     4751               ACCSOKAY           =        BIT3                                  #        VALUES FROM 1/ACCS      SINCE LAST 1/ACCS;
001229:                                                                                                  #        USABLE                  OUTPUTS SUSPECT.
001230:
001231:                                                                                                  #  BIT 2 FLAG 13
001232: 26,2022                        AUTR2FLG           =        208D                                  #  THESE FLAGS ARE USED TOGETHER TO INDICAT
001233: 26,2022     4752               AUTRATE2           =        BIT2                                  #  ASTRONAUT-CHOSEN KALCMANU MANEUVER RATES
001234:                                                                                                  #  (0,0)=(BIT2,BIT1)=    0.2 DEG/SEC
001235:                                                                                                  #  (0,1)=                0.5 DEG/SEC
001236:                                                                                                  #  BIT 1 FLAG 13
001237: 26,2022                        AUTR1FLG           =        209D                                  #  (1,0)=                2.0 DEG/SEC
001238: 26,2022     4753               AUTRATE1           =        BIT1                                  #  (1,1)=               10.0 DEG/SEC
001239:


001242:

End of include-file FLAGWORD_ASSIGNMENTS.agc.  Parent file is MAIN.agc


