
Source Code


000002:                                                                                                  ## Copyright:   Public domain.
000003:                                                                                                  ## Filename:    FRESH_START_AND_RESTART.agc
000004:                                                                                                  ## Purpose:     Part of the source code for Luminary 1A build 099.
000005:                                                                                                  ##              It is part of the source code for the Lunar Module's (LM)
000006:                                                                                                  ##              Apollo Guidance Computer (AGC), for Apollo 11.
000007:                                                                                                  ## Assembler:   yaYUL
000008:                                                                                                  ## Contact:     Hartmuth Gutsche <hgutsche@xplornet.com>.
000009:                                                                                                  ## Website:     www.ibiblio.org/apollo.
000010:                                                                                                  ## Pages:       211-237
000011:                                                                                                  ## Mod history: 2009-05-19 HG   Transcribed from page images.
000012:                                                                                                  ##              2010-12-31 JL   Fixed page number comments.
000013:                                                                                                  ##              2011-01-06 JL   Fixed pseudo-label indentation.
000014:                                                                                                  ##              2011-01-06 JL   Added missing comment characters.
000015:                                                                                                  ##              2016-12-13 RSB  Proofed text comments with octopus/ProoferComments
000016:                                                                                                  ##                              and corrected the errors found.
000017:                                                                                                  ##              2016-12-13 RSB  GOTOP00H -> GOTOPOOH
000018:                                                                                                  ##              2017-03-03 RSB  Snapshot of Luminary 99 Rev 1.
000019:                                                                                                  ##              2017-03-13 RSB  Comment-text fixes noted in proofing Luminary 116.
000020:                                                                                                  ##              2017-08-15 RSB  Comment-text fixes identified in proofing vs AP11ROPE.
000021:                                                                                                  ##              2017-08-19 MAS  Fixed label errors found transcribing Zerlina 56.
000022:


000024: 10,2000                                           BANK     10
000025: 05,2000                                           SETLOC   FRANDRES
000026: 05,2000                                           BANK
000027:
000028: 05,2447  E3,1400                                  EBANK=   LST1
000029:
000030: 05,2447                                           COUNT*   $$/START                              #  FRESH AND RESTART
000031: 05,2447           00004        SLAP1              INHINT                                         #  FRESH START.  COMES HERE FROM PINBALL.
000032: 05,2450           03107                           TC       STARTSUB                              #  SUBROUTINE DOES MOST OF THE WORK.
000033:
000034: 05,2451           12456        STARTSW            TCF      SKIPSIM                               #  PATCH....TCF STARTSIM...FOR SIMULATION
000035: 05,2452           34736        STARTSIM           CAF      BIT14
000036: 05,2453           05105                           TC       FINDVAC
000037: 05,2454           77777        SIM2CADR           OCT      77777                                 #  PATCH 2CADR (AND EBANK DESIGNATION) OF
000038: 05,2455           77777                           OCT      77777                                 #  SIMULATION START ADDRESS.
000039:
000040: 05,2456           31036        SKIPSIM            CA       DSPTAB     +11D                       #  TURN OFF ALL DSPTAB +11D LAMPS
000041: 05,2457           74771                           MASK     BITS4&6                               #  EXCEPT THE GIMBAL LOCK & NO ATT ONLY ON
000042: 05,2460           64735                           AD       BIT15                                 #  REQUESTED FRESH START.
000043: 05,2461           55036                           TS       DSPTAB     +11D
000044:
000045: 05,2462           34740                           CA       BIT12                                 #  INITIALIZE DOWNLINK ERASABLE MEMORY
000046: 05,2463           54333                           TS       DUMPCNT                               #  DUMP FOR ONE PASS.
000047:
000048: 05,2464           34755                           CA       ZERO
000049: 05,2465           55365                           TS       ERCOUNT
000050: 05,2466           54375                           TS       FAILREG
000051: 05,2467           54376                           TS       FAILREG    +1
000052: 05,2470           54377                           TS       FAILREG    +2
000053: 05,2471           54320                           TS       REDOCTR
000054:
000055: 05,2472           44644                           CS       PRIO12
000056: 05,2473           55313                           TS       DSRUPTSW
000057:
000058: 05,2474           34736        DOFSTART           CAF      BIT14                                 #  INSURE ENGINE IS OFF.
000059: 05,2475           00006                           EXTEND
000060: 05,2476           01011                           WRITE    DSALMOUT
000061: 05,2477           44755                           CS       ZERO
000062: 05,2500           54055                           TS       THRUST
000063:
000064: 05,2501           34751        DOFSTRT1           CAF      FOUR
000065: 05,2502           55273                           TS       RCSFLAGS                              #  INITIALIZE ATTITUDE ERROR DISPLAYS.
000066: 05,2503           34355                           CA       PRIO30
000067: 05,2504           54366                           TS       RESTREG                               #  SUPER BANK PRIORITY FOR DISPLAYS.
000068:
000069: 05,2505           34755                           CA       ZERO
000070: 05,2506           55246                           TS       ABDELV                                #  DAP INITIALIZATION
000071: 05,2507           54371                           TS       NVSAVE
000072: 05,2510           55072                           TS       EBANKTEM


000074: 05,2511           55262                           TS       CH5MASK
000075: 05,2512           55263                           TS       CH6MASK
000076: 05,2513           55276                           TS       PVALVEST                              #  FOR RCS FAILURE MONITOR
000077: 05,2514           55360                           TS       ERESTORE                              #  ***** MUST NOT BE REMOVED FROM DOFSTART
000078: 05,2515           55362                           TS       SMODE                                 #  ***** MUST NOT BE REMOVED FROM DOFSTART
000079: 05,2516           54332                           TS       DNLSTCOD                              #  SELECT POO DOWNLIST
000080: 05,2517           55324                           TS       AGSWORD                               #  ALLOW AGS INITIALIZATION
000081: 05,2520           55501                           TS       UPSVFLAG                              #  ZERO UPDATE STATE VECTOR REQUEST FLAGWRD
000082: 05,2521           00006                           EXTEND
000083: 05,2522           01005                           WRITE    CHAN5                                 #  TURN OFF RCS JETS.
000084: 05,2523           00006                           EXTEND
000085: 05,2524           01006                           WRITE    CHAN6                                 #  TURN OFF RCS JETS.
000086: 05,2525           00006                           EXTEND
000087: 05,2526           01012                           WRITE    CHAN12
000088: 05,2527           00006                           EXTEND
000089: 05,2530           01013                           WRITE    CHAN13
000090: 05,2531           00006                           EXTEND
000091: 05,2532           01014                           WRITE    CHAN14
000092: 05,2533           41036                           CS       DSPTAB     +11D
000093: 05,2534           74771                           MASK     BITS4&6
000094: 05,2535           10000                           CCS      A
000095: 05,2536           02542                           TC       +4
000096: 05,2537           34771                           CA       BITS4&6
000097: 05,2540           00006                           EXTEND                                         #  THE IMU WAS IN COARSE ALIGN IN GIMBAL
000098: 05,2541           05012                           WOR      CHAN12                                #  LOCK, SO PUT IT BACK INTO COARSE ALIGN.
000099: 05,2542           02643                 +4        TC       MR.KLEAN
000100:
000101: 05,2543           44755                           CS       ZERO
000102: 05,2544           55011                           TS       MODREG
000103:
000104: 05,2545           33362                           CAF      IM30INIF                              #  FRESH START IMU INITIALIZATION.
000105: 05,2546           55302                           TS       IMODES30
000106:
000107: 05,2547           33067                           CAF      MAXDB
000108: 05,2550           55346                           TS       DB
000109: 05,2551           34751                           CAF      FOUR
000110: 05,2552           55325                           TS       RATEINDX                              #  INITIALIZE KALCMANU RATE
000111: 05,2553           33063                           CA       BOOLSTRT
000112: 05,2554           54111                           TS       DAPBOOLS
000113: 05,2555           35015                           CAF      EBANK6
000114: 05,2556           54003                           TS       EBANK
000115: 05,2557  E6,1400                                  EBANK=   HIASCENT
000116:
000117: 05,2557           33060                           CA       STIKSTRT
000118: 05,2560           55444                           TS       STIKSENS
000119: 05,2561           33061                           CA       RATESTRT
000120: 05,2562           55476                           TS       -RATEDB
000121: 05,2563           32000                           CAF      FULLAPS                               #  INITIALIZE MAXIMUM ASCENT MASS FOR USE
000122: 05,2564           55400                           TS       HIASCENT                              #    BY 1/ACCS UNTIL THE PAD LOAD IS DONE.
000123: 05,2565           33064                           CA       77001OCT                              #      LOAD DAP FILTER GAINS PAD LOAD


000125: 05,2566           55403                           TS       DKTRAP                                #        TO BEST PRESENT ESTIMATE OF GOODIES
000126: 05,2567           55406                           TS       LMTRAP                                #  .14 DEG
000127: 05,2570           33065                           CA       60DEC
000128: 05,2571           55405                           TS       DKKAOSN
000129: 05,2572           55410                           TS       LMKAOSN                               #  6 SEC GAIN FOR ALPHA
000130: 05,2573           34755                           CA       ZERO
000131: 05,2574           55407                           TS       LMOMEGAN                              #  UNITY GAIN
000132: 05,2575           34363                           CA       TEN
000133: 05,2576           55404                           TS       DKOMEGAN                              #  1 SEC GAIN FOR OMEGA
000134: 05,2577           34744                           CAF      BIT8                                  #  SET DOCKED DB TO 1.4 DEG.  MAY OVERWRITE
000135: 05,2600           55411                           TS       DKDB                                  #        WITH PAD LOAD.
000136: 05,2601           35026                           CAF      IM33INIT
000137: 05,2602           64746                           AD       BIT6                                  #  KEEP BOTH DAP AND ERROR-NEEDLES DISPLAY
000138: 05,2603           55303                           TS       IMODES33                              #        OFF UNTIL ICDU ZERO IS FINISHED.
000139:
000140: 05,2604           00006                           EXTEND                                         #  INITIALIZE SWITCHES ONLY ON FRESH START.
000141: 05,2605           33367                           DCA      SWINIT
000142: 05,2606           52075                           DXCH     STATE
000143: 05,2607           33370                           CA       SWINIT     +2
000144: 05,2610           54076                           TS       STATE      +2
000145: 05,2611           34737                           CA       REFSMBIT                              #  DO NOT ALTER REFSMFLG ON FRESH START.
000146: 05,2612           70077                           MASK     STATE      +3
000147: 05,2613           63371                           AD       SWINIT     +3
000148: 05,2614           54077                           TS       STATE      +3
000149: 05,2615           00006                           EXTEND
000150: 05,2616           33373                           DCA      SWINIT     +4
000151: 05,2617           52101                           DXCH     STATE      +4
000152: 05,2620           00006                           EXTEND
000153: 05,2621           33375                           DCA      SWINIT     +6
000154: 05,2622           52103                           DXCH     STATE      +6
000155: 05,2623           34744                           CA       SURFFBIT                              #  DO NOT ALTER  SURFFLAG ON FRESH START.
000156: 05,2624           64740                           AD       CMOONBIT                              #                CMOONFLG
000157: 05,2625           64741                           AD       LMOONBIT                              #                LMOONFLG
000158: 05,2626           70104                           MASK     STATE      +8D
000159: 05,2627           63376                           AD       SWINIT     +8D
000160: 05,2630           54104                           TS       STATE      +8D
000161: 05,2631           33377                           CA       SWINIT     +9D
000162: 05,2632           54105                           TS       STATE      +9D
000163: 05,2633           34737                           CA       APSFLBIT                              #  DO NOT ALTER APSFLAG ON FRESH START.
000164: 05,2634           70106                           MASK     STATE      +10D
000165: 05,2635           63400                           AD       SWINIT     +10D
000166: 05,2636           54106                           TS       STATE      +10D
000167: 05,2637           33401                           CAF      SWINIT     +11D
000168: 05,2640           54107                           TS       STATE      +11D
000169:
000170: 05,2641           04635        ENDRSTRT           TC       POSTJUMP                              #  NOW IN ANOTHER BANK.
000171: 05,2642           03210                           CADR     DUMMYJOB   +2                         #  PICKS UP AT RELINT.   (DONT ZERO NEWJOB)
000172:
000173: 05,2643           00004        MR.KLEAN           INHINT


000175: 05,2644           00006                           EXTEND
000176: 05,2645           34755                           DCA      NEG0
000177: 05,2646           52755                           DXCH     -PHASE2
000178: 05,2647           00006        P00KLEAN           EXTEND
000179: 05,2650           34755                           DCA      NEG0
000180: 05,2651           52761                           DXCH     -PHASE4
000181: 05,2652           00006        V37KLEAN           EXTEND
000182: 05,2653           34755                           DCA      NEG0
000183: 05,2654           52753                           DXCH     -PHASE1
000184: 05,2655           00006                           EXTEND
000185: 05,2656           34755                           DCA      NEG0
000186: 05,2657           52757                           DXCH     -PHASE3
000187: 05,2660           00006                           EXTEND
000188: 05,2661           34755                           DCA      NEG0
000189: 05,2662           52763                           DXCH     -PHASE5
000190: 05,2663           00006                           EXTEND
000191: 05,2664           34755                           DCA      NEG0
000192: 05,2665           52765                           DXCH     -PHASE6
000193: 05,2666           00002                           TC       Q
000194:


000196:                                                                                                  #  COMES HERE FROM LOCATION 4000, GOJAM. RESTART ANY PROGRAMS WHICH MAY HAVE BEEN RUNNING AT THE TIME
000197:
000198: 05,2667  E3,1400                                  EBANK=   LST1
000199: 05,2667           24320        GOPROG             INCR     REDOCTR                               #  ADVANCE RESTART COUNTER.
000200:
000201: 05,2670           22002                           LXCH     Q
000202: 05,2671           00006                           EXTEND
000203: 05,2672           04007                           ROR      SUPERBNK
000204: 05,2673           53433                           DXCH     RSBBQ
000205: 05,2674           31036                           CA       DSPTAB     +11D
000206: 05,2675           74750                           MASK     BIT4
000207: 05,2676           00006                           EXTEND
000208: 05,2677           12703                           BZF      +4
000209: 05,2700           64746                           AD       BIT6                                  #  SET ERROR COUNTER ENABLE
000210: 05,2701           00006                           EXTEND
000211: 05,2702           05012                           WOR      CHAN12                                #  ISS WAS IN COARS ALIGN SO GO BACK TO
000212: 05,2703           03070        BUTTONS            TC       LIGHTSET
000213:
000214:                                                                                                  #  ERASCHK TEMPORARILY STORES THE CONTENTS OF TWO ERASABLE LOCATIONS, X
000215:                                                                                                  #  AND X+1 INTO SKEEP5 AND SKEEP6.  IT ALSO STORES X INTO SKEEP7 AND
000216:                                                                                                  #  ERESTORE.  IF ERASCHK IS INTERRUPTED BY A RESTART, C(ERESTORE) SHOULD
000217:                                                                                                  #  EQUAL C(SKEEP7), AND BE A + NUMBER LESS THAN 2000 OCT.  OTHERWISE
000218:                                                                                                  #  C(ERESTORE) SHOULD EQUAL +0.
000219:
000220: 05,2704           34350                           CAF      HI5
000221: 05,2705           71360                           MASK     ERESTORE
000222: 05,2706           00006                           EXTEND
000223: 05,2707           12711                           BZF      +2                                    #  IF ERESTORE NOT = +0 OR +N LESS THAN 2K,
000224: 05,2710           13105                           TCF      NONAVKEY   +3                         #  DO FRESH START - E MEMORY MIGHT BE BAD
000225: 05,2711           41360                           CS       ERESTORE
000226: 05,2712           00006                           EXTEND
000227: 05,2713           12730                           BZF      DORSTART                              #  = +0 CONTINUE WITH RESTART.
000228: 05,2714           61377                           AD       SKEEP7
000229: 05,2715           00006                           EXTEND
000230: 05,2716           12720                           BZF      +2                                    #  = SKEEP7, RESTORE E MEMORY.
000231: 05,2717           13105                           TCF      NONAVKEY   +3                         #  DO FRESH START - E MEMORY MIGHT BE BAD
000232: 05,2720           31374                           CA       SKEEP4
000233: 05,2721           54003                           TS       EBANK                                 #  EBANK OF E MEMORY THAT WAS UNDER TEST.
000234: 05,2722           00006                           EXTEND                                         #  (NOT DXCH SINCE THIS MIGHT HAPPEN AGAIN)
000235: 05,2723           31376                           DCA      SKEEP5
000236: 05,2724           51377                           INDEX    SKEEP7
000237: 05,2725           52001                           DXCH     0000                                  #  E MEMORY RESTORED.
000238: 05,2726           34755                           CA       ZERO
000239: 05,2727           55360                           TS       ERESTORE
000240: 05,2730           03107        DORSTART           TC       STARTSUB                              #  DO INITIALIZATION AFTER ERASE RESTORE.
000241:
000242: 05,2731           44736        SETINFL            CS       INTFLBIT
000243: 05,2732           70106                           MASK     FLGWRD10
000244: 05,2733           54106                           TS       FLGWRD10


000246: 05,2734           33364                           CA       9,6,4                                 #  LEAVE PROG ALARM, GIMBAL LOCK, NO ATT
000247: 05,2735           71036                           MASK     DSPTAB     +11D                       #  LAMPS INTACT ON HARDWARE RESTART
000248: 05,2736           64735                           AD       BIT15
000249: 05,2737           57036                           XCH      DSPTAB     +11D
000250: 05,2740           33350                           CAF      IFAILINH                              #  LEAVE IMU FAILURE INHIBITS INTACT ON
000251: 05,2741           71302                           MASK     IMODES30                              #  HARDWARE RESTART. RESET ALL FAILURE
000252: 05,2742           63363                           AD       IM30INIR                              #  CODES.
000253: 05,2743           55302                           TS       IMODES30
000254:
000255: 05,2744           31324                           CA       AGSWORD                               #  BE SURE OF CORRECT DOWNLIST
000256: 05,2745           54332                           TS       DNLSTCOD
000257:
000258: 05,2746           34750                           CA       BIT4                                  #  TURN ON THROTTLE COUNTER
000259: 05,2747           00006                           EXTEND
000260: 05,2750           05014                           WOR      CHAN14                                #  TURN ON THRUST DRIVE
000261: 05,2751           40101                           CS       FLAGWRD5
000262: 05,2752           74745                           MASK     ENGONBIT
000263: 05,2753           10000                           CCS      A
000264: 05,2754           12761                           TCF      +5
000265: 05,2755           34737                           CAF      BIT13
000266: 05,2756           00006                           EXTEND
000267: 05,2757           05011                           WOR      DSALMOUT                              #  TURN ENGINE ON
000268: 05,2760           12775                           TCF      GOPROG3
000269: 05,2761           34736                 +5        CAF      BIT14
000270: 05,2762           00006                           EXTEND
000271: 05,2763           05011                           WOR      DSALMOUT                              #  TURN ENGINE OFF.
000272: 05,2764           12775                           TCF      GOPROG3
000273:
000274: 05,2765           00004        ENEMA              INHINT
000275: 05,2766           03116                           TC       STARTSB1
000276: 05,2767           12771                           TCF      GOPROG2A
000277: 05,2770           03146        GOPROG2            TC       STARTSB2
000278: 05,2771           03070        GOPROG2A           TC       LIGHTSET
000279: 05,2772           43066                           CS       RSFLGBTS                              #  CLEAR BITS 7 AND 14.
000280: 05,2773           70106                           MASK     FLGWRD10
000281: 05,2774           54106                           TS       FLGWRD10
000282:
000283: 05,2775           34756        GOPROG3            CAF      NUMGRPS                               #  VERIFY PHASE TABLE AGREEMENTS
000284: 05,2776           54161        PCLOOP             TS       MPAC       +5
000285: 05,2777           60000                           DOUBLE
000286: 05,3000           00006                           EXTEND
000287: 05,3001           50000                           INDEX    A
000288: 05,3002           30753                           DCA      -PHASE1                               #  COMPLEMENT INTO A, DIRECT INTO L.
000289: 05,3003           00006                           EXTEND
000290: 05,3004           06001                           RXOR     LCHAN                                 #  RESULT MUST BE -0 FOR AGREEMENT.
000291: 05,3005           10000                           CCS      A
000292: 05,3006           13054                           TCF      PTBAD                                 #  RESTART FAILURE.
000293: 05,3007           13054                           TCF      PTBAD
000294: 05,3010           13054                           TCF      PTBAD


000296: 05,3011           10161                           CCS      MPAC       +5                         #  PROCESS ALL RESTART GROUPS.
000297: 05,3012           12776                           TCF      PCLOOP
000298:
000299: 05,3013           54162                           TS       MPAC       +6                         #  SET TO +0.
000300: 05,3014           05315                           TC       MMDSPLAY                              #  DISPLAY MAJOR MODE
000301:
000302: 05,3015           00004                           INHINT                                         #  RELINT DONE IN MMDSPLAY
000303:
000304: 05,3016           44736                           CS       DIDFLBIT                              #  CLEAR DIDFLAG IN ORDER TO FORCE R10 TO
000305: 05,3017           70075                           MASK     FLAGWRD1                              #  RE-INITIALIZE ITSELF IF IT HAD BEEN
000306: 05,3020           54075                           TS       FLAGWRD1                              #  OPERATING AT THE TIME OF THE RESTART.
000307:
000308: 05,3021           44740                           CS       RODFLBIT                              #  CLEAR RODFLAG.  IF P66 IS IN OPERATION
000309: 05,3022           70075                           MASK     FLAGWRD1                              #        IT WILL RE-INITIALIZE ITSELF AND
000310: 05,3023           54075                           TS       FLAGWRD1                              #        CONTINUE.
000311:
000312: 05,3024           44741                           CS       P21FLBIT                              #  CLEAR P21 FLAG SO THAT P21 WILL COMPUTE
000313: 05,3025           70074                           MASK     FLAGWRD0                              #  NEW BASE STATE VECTORS.
000314: 05,3026           54074                           TS       FLAGWRD0
000315:
000316: 05,3027           34756                           CAF      NUMGRPS                               #  SEE IF ANY GROUPS RUNNING.
000317: 05,3030           54161        NXTRST             TS       MPAC       +5
000318: 05,3031           60000                           DOUBLE
000319: 05,3032           50000                           INDEX    A
000320: 05,3033           10753                           CCS      PHASE1
000321: 05,3034           13036                           TCF      PACTIVE                               #  PNZ - GROUP ACTIVE.
000322: 05,3035           13043                           TCF      PINACT                                #  +0 - GROUP NOT RUNNING.
000323:
000324: 05,3036           54154        PACTIVE            TS       MPAC
000325: 05,3037           24154                           INCR     MPAC                                  #  ABS OF PHASE.
000326: 05,3040           24162                           INCR     MPAC       +6                         #  INDICATE GROUP DEMANDS PRESENT.
000327: 05,3041           33062                           CA       RACTCADR
000328: 05,3042           04622                           TC       SWCALL                                #  MUST RETURN TO SWRETURN.
000329:
000330: 05,3043           10161        PINACT             CCS      MPAC       +5                         #  PROCESS ALL RESTART GROUPS.
000331: 05,3044           13030                           TCF      NXTRST
000332:
000333: 05,3045           10162                           CCS      MPAC       +6                         #  NO, CHECK PHASE ACTIVITY FLAG
000334: 05,3046           12641                           TCF      ENDRSTRT                              #  PHASE ACTIVE
000335: 05,3047           34735                           CAF      BIT15                                 #  IS MODE -0
000336: 05,3050           71011                           MASK     MODREG
000337: 05,3051           00006                           EXTEND
000338: 05,3052           16001                           BZF      GOTOPOOH                              #  NO
000339: 05,3053           12641                           TCF      ENDRSTRT                              #  YES
000340: 05,3054           05567        PTBAD              TC       ALARM                                 #  SET ALARM TO SHOW PHASE TABLE FAILURE.
000341: 05,3055           01107                           OCT      1107
000342:
000343: 05,3056           12501                           TCF      DOFSTRT1
000344:                                                                                                  # ******** ****** ******


000346:                                                                                                  #  DO NOT USE GOPROG2 OR ENEMA WITHOUT CONSULTING POOH PEOPLE
000347:
000348: 05,3057     4737               OCT10000           =        BIT13
000349: 05,3057     4355               OCT30000           =        PRIO30
000350: 05,3057           07777        OCT7777            OCT      7777
000351: 05,3060           32321        STIKSTRT           DEC      0.825268                              #  20 D/S MAXIMUM COMMANDED RATE
000352: 05,3061           77445        RATESTRT           DEC      -218       B-14
000353: 05,3062           03526        RACTCADR           CADR     RESTARTS
000354: 05,3063           21312        BOOLSTRT           OCT      21312
000355: 05,3064           77001        77001OCT           OCT      77001                                 #  .14 DEG SCALED AT 4.5 DEG
000356: 05,3065           00074        60DEC              DEC      60         B-14
000357: 05,3066           20100        RSFLGBTS           OCT      20100
000358: 05,3067           03434        MAXDB              OCTAL    03434                                 #  5 DEG ATTITUDE DEADBAND, SCALED AT 45.
000359:
000360: 05,3070           34747        LIGHTSET           CAF      BIT5                                  #  CHECK FOR MARK REJECT AND ERROR RESET
000361: 05,3071           00006                           EXTEND
000362: 05,3072           02016                           RAND     NAVKEYIN
000363: 05,3073           00006                           EXTEND
000364: 05,3074           13102                           BZF      NONAVKEY                              #  NO MARK REJECT
000365: 05,3075           00006                           EXTEND
000366: 05,3076           00015                           READ     MNKEYIN                               #  CHECK IF KEYS 2M AND 5M ON
000367: 05,3077           63361                           AD       -ELR                                  #  MAIN DSKY KEYCODE (BITS 1-5)
000368: 05,3100           00006                           EXTEND
000369: 05,3101           13103                           BZF      +2
000370:
000371: 05,3102           00002        NONAVKEY           TC       Q
000372:
000373: 05,3103           03107                           TC       STARTSUB
000374: 05,3104           12474                           TCF      DOFSTART
000375: 05,3105           03107                 +3        TC       STARTSUB
000376: 05,3106           12501                           TCF      DOFSTRT1                              #  DO FRESH START BUT DON'T TOUCH ENGINE
000377:


000379:                                                                                                  #  INITIALIZATION COMMON TO BOTH FRESH START AND RESTART.
000380:
000381: 05,3107  E6,1537                                  EBANK=   AOSQ
000382: 05,3107           33351        STARTSUB           CAF      LDNPHAS1                              #  SET POINTER SO NEXT 20MS DOWNRUPT WILL
000383: 05,3110           54335                           TS       DNTMGOTO                              #  CAUSE THE CURRENT DOWNLIST TO BE
000384:                                                                                                  #  INTERRUPTED AND START SENDING FROM THE
000385:                                                                                                  #  BEGINNING OF THE CURRENT DOWNLIST.
000386: 05,3111           34746                           CAF      BIT6
000387: 05,3112           00006                           EXTEND
000388: 05,3113           02033                           RAND     CHAN33
000389: 05,3114           63365                           AD       RMODINIT
000390: 05,3115           54110                           TS       RADMODES
000391:
000392: 05,3116           34733        STARTSB1           CAF      POSMAX
000393: 05,3117           54026                           TS       TIME3
000394: 05,3120           67746                           AD       MINUS2
000395: 05,3121           54027                           TS       TIME4
000396: 05,3122           67747                           AD       NEGONE
000397: 05,3123           54030                           TS       TIME5
000398:
000399: 05,3124           35015                           CAF      EBANK6
000400: 05,3125           54003                           TS       EBANK
000401:
000402: 05,3126           44737                           CS       BIT13                                 #  CAUSE DAPIDLER TO CALL 1/ACCS
000403: 05,3127           71273                           MASK     RCSFLAGS
000404: 05,3130           55273                           TS       RCSFLAGS                              #  ZERO BIT 13
000405: 05,3131           34733                           CAF      POSMAX                                #  DISABLE TIME6 CLOCK.  JUST IN CASE A T6
000406: 05,3132           55466                           TS       T6NEXT                                #        RUPT IS ALREADY IN THE PRIORITY CHAIN,
000407: 05,3133           00006                           EXTEND                                         #        ENSURE THAT IT'S INPUTS WILL RENDER IT
000408: 05,3134           03013                           WAND     CHAN13                                #        INEFFECTUAL.
000409: 05,3135           34755                           CAF      ZERO
000410: 05,3136           55465                           TS       NXT6ADR
000411: 05,3137           55472                           TS       NEXTP
000412:
000413: 05,3140           44751                           CS       ACCSOKAY
000414: 05,3141           70111                           MASK     DAPBOOLS
000415: 05,3142           54111                           TS       DAPBOOLS
000416:
000417: 05,3143           00006                           EXTEND                                         #  SET T5RUPT FOR DAPIDLER PROGRAM.
000418: 05,3144           33347                           DCA      IDLEADR
000419: 05,3145           53275                           DXCH     T5ADR
000420:
000421: 05,3146           33360        STARTSB2           CAF      OCT30001                              #  DURING SOFTWARE RESTART, DO NOT DISTURB
000422: 05,3147           00006                           EXTEND                                         #  ENGINE ON, OFF AND ISS WARNING.
000423: 05,3150           03011                           WAND     DSALMOUT
000424:
000425: 05,3151           44743                           CS       READRBIT                              #  CLEAR READRFLG FOR R29.
000426: 05,3152           70077                           MASK     FLAGWRD3
000427: 05,3153           54077                           TS       FLAGWRD3


000429:
000430: 05,3154           40077                           CS       FLAGWRD3                              #  DURING SOFTWARE RESTART, CLEAR TURNON,
000431: 05,3155           74741                           MASK     NR29FBIT                              #  REPOSITION, CDU ZERO AND REMODE BITS
000432: 05,3156           00006                           EXTEND                                         #  IN RADMODES, SINCE TASKS ASSOCIATED
000433: 05,3157           13161                           BZF      +2                                    #  WITH THESE BITS HAVE BEEN KILLED
000434: 05,3160           34742                           CAF      BIT10                                 #  ALSO IF R29 HAD BEEN REQUESTED,
000435: 05,3161           63354                           AD       OCT32001                              #  (NOR29FLG = 0) CLEAR BIT 10 RADMODES
000436: 05,3162           40000                           COM                                            #  TO MAKE R29 FORGET IT HAD STARTED
000437: 05,3163           70110                           MASK     RADMODES                              #  DESIGNATING
000438: 05,3164           54110                           TS       RADMODES
000439: 05,3165           33356                           CAF      OCT27470                              #  DURING SOFTWARE RESTART, DO NOT DISTURB
000440: 05,3166           00006                           EXTEND                                         #  IMU FLAGS.  (COURSE ALIGN ENABLE, ZERO
000441: 05,3167           03012                           WAND     CHAN12                                #  IMU CDUS, ENABLE IMU COUNTER) AND GIMBAL
000442:                                                                                                  #  TRIM DRIVES.  LEAVE RR LOCKON ENABLE
000443:                                                                                                  #  ALONE.
000444:
000445: 05,3170           44750                           CS       NORRMBIT                              #  ENABLE R25.
000446: 05,3171           70101                           MASK     FLAGWRD5
000447: 05,3172           54101                           TS       FLAGWRD5
000448:
000449: 05,3173           44741                           CS       R77FLBIT                              #  CLEAR R77FLAG
000450: 05,3174           70101                           MASK     FLAGWRD5
000451: 05,3175           54101                           TS       FLAGWRD5
000452: 05,3176           33357                           CAF      OCT74160                              #  DURING SOFTWARE RESTART, DO NOT DUSTURB
000453: 05,3177           00006                           EXTEND                                         #  TELEMETRY FLAGS, RESET TRAP FLAGS, AND
000454: 05,3200           03013                           WAND     CHAN13                                #  ENABLE T6RUPT FLAG.
000455:
000456: 05,3201           34740                           CAF      BIT12                                 #  REENABLE RUPT10 (RUPT QUICKLY
000457: 05,3202           00006                           EXTEND                                         #        RESUMES EXCEPT DURING P64)
000458: 05,3203           05013                           WOR      CHAN13
000459:
000460: 05,3204           34746                           CAF      BIT6                                  #  DURING SOFTWARE RESTART, DO NOT DISTURB
000461: 05,3205           00006                           EXTEND                                         #  GYRO ENABLE FLAG.
000462: 05,3206           03014                           WAND     CHAN14
000463:
000464: 05,3207  E3,1400                                  EBANK=   LST1
000465: 05,3207           35007                           CAF      STARTEB
000466: 05,3210           54003                           TS       EBANK                                 #  SET FOR E3
000467:
000468: 05,3211           34734                           CAF      NEG1/2                                #  INITIALIZE WAITLIST DELTA-TS.
000469: 05,3212           55407                           TS       LST1       +7
000470: 05,3213           55406                           TS       LST1       +6
000471: 05,3214           55405                           TS       LST1       +5
000472: 05,3215           55404                           TS       LST1       +4
000473: 05,3216           55403                           TS       LST1       +3
000474: 05,3217           55402                           TS       LST1       +2
000475: 05,3220           55401                           TS       LST1       +1
000476: 05,3221           55400                           TS       LST1
000477:
000478: 05,3222           45236                           CS       ENDTASK
000479: 05,3223           55410                           TS       LST2


000481: 05,3224           55412                           TS       LST2       +2
000482: 05,3225           55414                           TS       LST2       +4
000483: 05,3226           55416                           TS       LST2       +6
000484: 05,3227           55420                           TS       LST2       +8D
000485: 05,3230           55422                           TS       LST2       +10D
000486: 05,3231           55424                           TS       LST2       +12D
000487: 05,3232           55426                           TS       LST2       +14D
000488: 05,3233           55430                           TS       LST2       +16D
000489: 05,3234           45237                           CS       ENDTASK    +1
000490: 05,3235           55411                           TS       LST2       +1
000491: 05,3236           55413                           TS       LST2       +3
000492: 05,3237           55415                           TS       LST2       +5
000493: 05,3240           55417                           TS       LST2       +7
000494: 05,3241           55421                           TS       LST2       +9D
000495: 05,3242           55423                           TS       LST2       +11D
000496: 05,3243           55425                           TS       LST2       +13D
000497: 05,3244           55427                           TS       LST2       +15D
000498: 05,3245           55431                           TS       LST2       +17D
000499:
000500: 05,3246           44755                           CS       ZERO                                  #  MAKE ALL EXECUTIVE REGISTER SETS
000501: 05,3247           54167                           TS       PRIORITY                              #  AVAILABLE.
000502: 05,3250           54203                           TS       PRIORITY   +12D
000503: 05,3251           54217                           TS       PRIORITY   +24D
000504: 05,3252           54233                           TS       PRIORITY   +36D
000505: 05,3253           54247                           TS       PRIORITY   +48D
000506: 05,3254           54263                           TS       PRIORITY   +60D
000507: 05,3255           54277                           TS       PRIORITY   +72D
000508: 05,3256           54313                           TS       PRIORITY   +84D
000509:
000510: 05,3257           55313                           TS       DSRUPTSW
000511: 05,3260           54067                           TS       NEWJOB                                #  SHOWS NO ACTIVE JOBS.
000512:
000513: 05,3261           33353                           CAF      VAC1ADRC                              #  MAKE ALL VAC AREAS AVAILABLE.
000514: 05,3262           54400                           TS       VAC1USE
000515: 05,3263           63355                           AD       LTHVACA
000516: 05,3264           54454                           TS       VAC2USE
000517: 05,3265           63355                           AD       LTHVACA
000518: 05,3266           54530                           TS       VAC3USE
000519: 05,3267           63355                           AD       LTHVACA
000520: 05,3270           54604                           TS       VAC4USE
000521: 05,3271           63355                           AD       LTHVACA
000522: 05,3272           54660                           TS       VAC5USE
000523:
000524: 05,3273           34363                           CAF      TEN
000525: 05,3274           54154        DSPOFF             TS       MPAC                                  #  R1, R2, R3).
000526: 05,3275           44740                           CS       BIT12
000527: 05,3276           50154                           INDEX    MPAC
000528: 05,3277           55023                           TS       DSPTAB
000529: 05,3300           10154                           CCS      MPAC
000530: 05,3301           13274                           TCF      DSPOFF
000531:


000533: 05,3302           55326                           TS       DELAYLOC
000534: 05,3303           55327                           TS       DELAYLOC   +1
000535: 05,3304           55330                           TS       DELAYLOC   +2
000536: 05,3305           55074                           TS       R1SAVE
000537: 05,3306           54045                           TS       INLINK
000538: 05,3307           54776                           TS       DSPCNT
000539: 05,3310           55042                           TS       CADRSTOR
000540: 05,3311           55013                           TS       REQRET
000541: 05,3312           55015                           TS       CLPASS
000542: 05,3313           55012                           TS       DSPLOCK
000543: 05,3314           55020                           TS       MONSAVE                               #  KILL MONITOR
000544: 05,3315           55021                           TS       MONSAVE1
000545: 05,3316           55001                           TS       VERBREG
000546: 05,3317           55002                           TS       NOUNREG
000547: 05,3320           55043                           TS       DSPLIST
000548: 05,3321           55312                           TS       MARKSTAT
000549: 05,3322           55044                           TS       EXTVBACT                              #  MAKE EXTENDED VERBS AVAILABLE
000550: 05,3323           55304                           TS       IMUCADR
000551: 05,3324           55305                           TS       OPTCADR
000552: 05,3325           55306                           TS       RADCADR
000553: 05,3326           55307                           TS       ATTCADR
000554: 05,3327           55314                           TS       LGYRO
000555: 05,3330           54100                           TS       FLAGWRD4                              #  KILL INTERFACE DISPLAYS
000556: 05,3331           34760                           CAF      NOUTCON
000557: 05,3332           55016                           TS       NOUT
000558:
000559: 05,3333           44753                           CS       ONE
000560: 05,3334           55100                           TS       SAMPLIM
000561: 05,3335           34746                           CAF      BIT6
000562: 05,3336           71303                           MASK     IMODES33                              #  LEAVE BIT 6 UNCHANGED
000563: 05,3337           65026                           AD       IM33INIT                              #  NO PIP OR TM FAILS.  BIT6=0 IN THIS WORD.
000564: 05,3340           55303                           TS       IMODES33
000565:
000566: 05,3341           33352                           CAF      LESCHK                                #  SELF CHECK GO-TO REGISTER.
000567: 05,3342           55361                           TS       SELFRET
000568:
000569: 05,3343           44360                           CS       VD1
000570: 05,3344           54777                           TS       DSPCOUNT
000571:
000572: 05,3345           00002                           TC       Q
000573: 05,3346  E6,1537                                  EBANK=   AOSQ
000574: 05,3346           02024 34066  IDLEADR            2CADR    DAPIDLER
000575:
000576: 05,3350           00435        IFAILINH           OCT      435
000577: 05,3351           03515        LDNPHAS1           GENADR   DNPHASE1
000578: 05,3352           03336        LESCHK             GENADR   SELFCHK
000579: 05,3353           00400        VAC1ADRC           ADRES    VAC1USE
000580: 05,3354           32001        OCT32001           OCT      32001
000581: 05,3355           00054        LTHVACA            DEC      44         B-14
000582:


000584: 05,3356           27470        OCT27470           OCT      27470
000585: 05,3357           74160        OCT74160           OCT      74160
000586: 05,3360           30001        OCT30001           OCT      30001
000587: 05,3361     5007               STARTEB            EQUALS   EBANK3
000588: 05,3361     4756               NUMGRPS            EQUALS   FIVE
000589: 05,3361           77755        -ELR               OCT      -22                                   #  -ERROR LIGHT RESET KEY CODE.
000590: 05,3362           37411        IM30INIF           OCT      37411                                 #  INHIBITS IMU FAIL FOR 5 SEC AND PIP ISSW
000591: 05,3363           37000        IM30INIR           OCT      37000
000592: 05,3364     5026               IM33INIT           =        PRIO16                                #  NO PIP OR TM FAIL SIGNALS.
000593: 05,3364           00450        9,6,4              OCT      450
000594: 05,3365           00102        RMODINIT           OCT      00102
000595: 05,3366           00000        SWINIT             OCT      0
000596: 05,3367           00000                           OCT      0
000597: 05,3370           00000                           OCT      0
000598: 05,3371           02000                           OCT      02000                                 #  BIT 11 = NOR29FLG
000599: 05,3372           00000                           OCT      0
000600: 05,3373           00000                           OCT      0
000601: 05,3374           00000                           OCT      0
000602: 05,3375           00100                           OCT      00100
000603:
000604: 05,3376           00000                           OCT      0
000605: 05,3377           00000                           OCT      0
000606: 05,3400           00000                           OCT      0
000607: 05,3401           40000                           OCT      40000                                 #  BIT 15 = LRBYPASS.
000608:


000610:                                                                                                  #  PROGRAM NAME          GOTOPOOH                ASSEMBLY SUNDANCE
000611:                                                                                                  #  LOG SECTION           FRESH START AND RESTART
000612:
000613:                                                                                                  #  FUNCTIONAL DESCRIPTION
000614:
000615:                                                                                                  #        FLASH V 37 ON DSKY %MM CHANGE REQUEST "
000616:
000617:                                                                                                  #  INPUT/OUTPUT INFORMATION
000618:
000619:                                                                                                  #        A. CALLING SEQUENCE                     TC GOTOPOOH
000620:                                                                                                  #        B. ERASABLE INITIALIZATION              NONE
000621:                                                                                                  #        C. OUTPUT FLASH V 37 ON DSKY
000622:                                                                                                  #        D. DEBRIS                               L
000623:
000624:                                                                                                  #  PROGRAM ANALYSIS
000625:
000626:                                                                                                  #        A. SUBROUTINES CALLED                   PRIODSPR, LINUS
000627:                                                                                                  #        B. NORMAL EXIT                          TCF ENDOFJOB
000628:                                                                                                  #        C. ALARM AND ABORT EXITS                NONE
000629:
000630:    6001                                           BLOCK    03
000631:    6000                                           SETLOC   FFTAG5
000632:    6000                                           BANK
000633:
000634:    6001                                           COUNT*   $$/P00
000635:    6001           34764        GOTOPOOH           CAF      OCT33                                 #  4.33 SPOT FOR GOPOOFIX
000636:    6002           54001                           TS       L
000637:    6003           40000                           COM
000638:    6004           52761                           DXCH     -PHASE4
000639:
000640:    6005           04635                           TC       POSTJUMP
000641:    6006           10024                           CADR     GOPOOFIX
000642:    6007           00024        OCT24              MM       20         B-14
000643:    6010           00031        OCT31              MM       25         B-14
000644:
000645: 20,2004                                           BANK     20
000646: 04,2000                                           SETLOC   VERB37
000647: 04,2000                                           BANK
000648:
000649: 04,2024                                           COUNT*   $$/P00                                #  VERB 37 AND P00 IN BANK 4.
000650: 04,2024           05516        GOPOOFIX           TC       DOWNFLAG                              #  ALLOW X-AXIS OVERRIDE
000651: 04,2025           00311                           ADRES    XOVINFLG
000652:
000653: 04,2026           05516                           TC       DOWNFLAG                              #  INSURE THAT ULLAGE IS OFF
000654: 04,2027           00314                           ADRES    ULLAGFLG


000656: 04,2030           05476                           TC       CLEARMRK   +2                         #  RELEASE MARK DISPLAY SYSTEM.
000657: 04,2031           32037                           CAF      V37N99
000658: 04,2032           04616                           TC       BANKCALL
000659: 04,2033           20476                           CADR     GOFLASH
000660: 04,2034           12031                           TCF      -3
000661: 04,2035           12031                           TCF      -4
000662: 04,2036           12031                           TCF      -5
000663:
000664: 04,2037           11343        V37N99             VN       3799
000665:


000667:                                                                                                  #  PROGRAM NAME          V37                     ASSEMBLY SUNDANCE
000668:
000669:                                                                                                  #  LOG SECTION           FRESH START AND RESTART
000670:
000671:                                                                                                  #  FUNCTIONAL DESCRIPTION
000672:
000673:                                                                                                  #        1. CHECK IF NEW PROGRAM ALLOWED.  IF BIT 1 OF FLAGWRD2 (NODOFLAG) IS SET, AN ALARM 1520 IS CALLED.
000674:                                                                                                  #        2. CHECK FOR VALIDITY OF PROGRAM SELECTED.  IF AN INVALID PROGRAM IS SELECTED, THE OPERATOR ERROR LIGHT IS
000675:                                                                                                  #           SET AND CURRENT ACTIVITY, IF ANY, CONTINUES.
000676:                                                                                                  #        3. SERVICER IS TERMINATED IF IT HAS BEEN RUNNING.
000677:                                                                                                  #        4. INSTALL IS EXECUTED TO AVOID INTERRUPTING INTEGRATION.
000678:                                                                                                  #        5. THE ENGINE IS TURNED OFF AND THE DAP IS INITIALIZED FOR COAST.
000679:                                                                                                  #        6. TRACK AND UPDATE FLAGS ARE SET TO ZERO.
000680:                                                                                                  #        7. DISPLAY SYSTEM IS RELEASED.
000681:                                                                                                  #        8. THE FOLLOWING ARE PERFORMED FOR EACH OF THE THREE CASES.
000682:                                                                                                  #                A. PROGRAM SELECTED IS P00.
000683:                                                                                                  #                        1. RENDEZVOUS AND P25 FLAGS ARE RESET.  (KILL P20 AND P25)
000684:                                                                                                  #                        2. STATINT1 IS SCHEDULED BY SETTING RESTART GROUP 2.
000685:                                                                                                  #                        3. MAJOR MODE 00 IS STORED IN THE MODE REGISTER (MODREG).
000686:                                                                                                  #                        4. SUPERBANK 3 IS SELECTED.
000687:                                                                                                  #                        5. NODOFLAG IS RESET.
000688:                                                                                                  #                        6. ALL RESTART GROUPS EXCEPT GROUP2 ARE CLEARED. CONTROL IS TRANSFERRED TO RESTART PROGRAM (GOPROG2)
000689:                                                                                                  #                           WHICH CAUSES ALL CURRENT ACTIVITY TO BE DISCONTINUED AND A 9 MINUTE INTEGRATION CYCLE TO BE
000690:                                                                                                  #                           INITIATED.
000691:                                                                                                  #                B. PROGRAM SELECTED IS P20 OR P25.
000692:                                                                                                  #                        1. IF THE CURRENT MAJOR MODE IS THE SAME AS THE SELECTED NEWPROGRAM, THE PROGRAM IS RE-INITIALIZED
000693:                                                                                                  #                           VIA V37XEQ, ALL RESTART GROUPS, EXCEPT GROUP 4 ARE CLEARED.
000694:                                                                                                  #                        2. IF THE CURRENT MAJOR MODE IS NOT EQUAL TO THE NEW REQUEST, A CHECK IS MADE TO SEE IF THE REQUEST-
000695:                                                                                                  #                           ED MAJOR MODE HAS BEEN RUNNING IN THE BACKGROUND,
000696:                                                                                                  #                           AND IF IT HAS, NO NEW PROGRAM IS SCHEDULED, THE EXISTING
000697:                                                                                                  #                           P20 OR P25 IS RESTARTED TO CONTINUE, AND ITS MM IS SET.
000698:                                                                                                  #                        3. CONTROL IS TRANSFERRED TO GOPROG2.
000699:                                                                                                  #                C. PROGRAM SELECTED IS NEITHER P00, P20, NOR P25
000700:                                                                                                  #                        1. V37XEQ IS SCHEDULED (AS A JOB) BY SETTING RESTART GROUP 4
000701:                                                                                                  #                        2. ALL CURRENT ACTIVITY EXCEPT RENDEZVOUS AND TRACKING IS DISCONTINUED BY CLEARING ALL RESTART
000702:                                                                                                  #                           GROUPS.  IF THE RENDEZVOUS OR THE P25 FLAG IS ON, GROUP 2 IS NOT CLEARED, ALLOWING THESE PROGRAMS
000703:                                                                                                  #                           TO CONTINUE.
000704:
000705:                                                                                                  #  INPUT/OUTPUT INFORMATION
000706:
000707:                                                                                                  #        A. CALLING SEQUENCE
000708:                                                                                                  #                CONTROL IS DIRECTED TO V37 BY THE VERBFAN ROUTINE.
000709:                                                                                                  #                VERBFAN GOES TO C(VERBTAB+C(VERBREG)). VERB 37 = MMCHANG.
000710:                                                                                                  #                MMCHANG EXECUTES A   TC POSTJUMP, CADR V37.
000711:
000712:                                                                                                  #        B. ERASABLE INITIALIZATION              NONE
000713:
000714:                                                                                                  #        C. OUTPUT


000716:                                                                                                  #                MAJOR MODE CHANGE
000717:
000718:                                                                                                  #        D. DEBRIS
000719:                                                                                                  #                MMNUMBER, MPAC +1, MINDEX, BASETEMP +C(MINDEX), FLAGWRD0, FLAGWRD1, FLAGWRD2, MODREG, GOLOC -1,
000720:                                                                                                  #                GOLOC, GOLOC +1, GOLOC +2, BASETEMP, -PHASE2, PHASE2, -PHASE4
000721:
000722:                                                                                                  #  PROGRAM ANALYSIS
000723:
000724:                                                                                                  #        A. SUBROUTINES CALLED
000725:                                                                                                  #                ALARM, RELDSP, PINBRNCH, INTSTALL, ENGINOF2, ALLCOAST, V37KLEAN, GOPROG2, FALTON, FINDVAC, SUPERSW,
000726:                                                                                                  #                DSPMM
000727:
000728:                                                                                                  #        B. NORMAL EXIT                          TC ENDOFJOB
000729:
000730:                                                                                                  #        C. ALARMS                               1520 (MAJOR MODE CHANGE NOT PERMITTED)
000731:
000732: 04,2040           54775        V37                TS       MMNUMBER                              #  SAVE MAJOR MODE
000733: 04,2041           34355                           CAF      PRIO30                                #  RESTART AT PINBALL PRIORITY
000734: 04,2042           54366                           TS       RESTREG
000735:
000736: 04,2043           31302                           CA       IMODES30                              #  IS IMU BEINB INITIALIZED
000737: 04,2044           74746                           MASK     BIT6
000738: 04,2045           10000                           CCS      A
000739: 04,2046           12065                           TCF      CANTROD
000740:
000741: 04,2047           40775                           CS       MMNUMBER                              #  IS P70 REQUESTED?
000742: 04,2050           62400                           AD       DEC70
000743: 04,2051           00006                           EXTEND
000744: 04,2052           12373                           BZF      SETUP70                               #  YES
000745: 04,2053           64753                           AD       ONE                                   #  IS P71 REQUESTED?
000746: 04,2054           00006                           EXTEND
000747: 04,2055           12372                           BZF      SETUP71                               #  YES
000748:
000749: 04,2056           30775                           CA       MMNUMBER                              #  IS NEW REQUEST POO
000750: 04,2057           00006                           EXTEND
000751: 04,2060           12107                           BZF      ISSERVON                              #  YES, CHECK SERVICER STATUS
000752:
000753: 04,2061           40076                           CS       FLAGWRD2                              #  NO, IS NODO V37 FLAG SET
000754: 04,2062           74753                           MASK     NODOBIT
000755: 04,2063           10000                           CCS      A
000756: 04,2064           12072                           TCF      CHECKTAB                              #  NO
000757: 04,2065           05567        CANTROD            TC       ALARM
000758: 04,2066           01520                           OCT      1520
000759:
000760: 04,2067           04457        V37BAD             TC       RELDSP                                #  RELEASES DISPLAY FROM ASTRONAUT
000761:
000762: 04,2070           04635                           TC       POSTJUMP                              #  BRING BACK LAST NORMAL DISPLAY IF THERE
000763: 04,2071           21050                           CADR     PINBRNCH                              #  WAS ONE.  OTHERWISE DO AN EOJ.
000764:
000765: 04,2072           32477        CHECKTAB           CA       NOV37MM                               #  INDEX FOR MM TABLES.
000766:


000768: 04,2073           54155        AGAINMM            TS       MPAC       +1
000769: 04,2074           50155                           NDX      MPAC       +1
000770: 04,2075           32441                           CA       PREMM1                                #  OBTAIN WHICH MM THIS IS FOR
000771: 04,2076           76074                           MASK     LOW7
000772: 04,2077           40000                           COM
000773: 04,2100           60775                           AD       MMNUMBER
000774: 04,2101           10000                           CCS      A
000775: 04,2102           10155                           CCS      MPAC       +1                         #  IF GR, SEE IF ANY MORE IN LIST
000776: 04,2103           12073                           TCF      AGAINMM                               #  YES, GET NEXT ONE
000777: 04,2104           12322                           TCF      V37NONO                               #  LAST TIME OR PASSED MM
000778:
000779: 04,2105           30155                           CA       MPAC       +1
000780: 04,2106           54774                           TS       MINDEX                                #  SAVE INDEX FOR LATER
000781:
000782: 04,2107           40103        ISSERVON           CS       FLAGWRD7                              #  V37 FLAG SET - I.E. IS SERVICER GOING
000783: 04,2110           74746                           MASK     V37FLBIT
000784: 04,2111           10000                           CCS      A
000785: 04,2112           12134                           TCF      CANV37                                #  NO
000786:
000787: 04,2113           05516                           TC       DOWNFLAG                              #  YES, TURN OFF THE AVERAGE FLAG AND
000788: 04,2114           00163                           ADRES    AVEGFLAG                              #  WAIT FOR SERVICER TO RETURN TO CANV37.
000789:
000790: 04,2115           32366                           CAF      V37RETAD
000791: 04,2116           55260                           TS       OUTROUTE
000792:
000793: 04,2117           15155                           TCF      ENDOFJOB
000794:
000795: 04,2120           40074        V37RET             CS       FLAGWRD0                              #  IS P20 OR P22 RUNNING?
000796: 04,2121           74745                           MASK     RNDVZBIT
000797: 04,2122           10000                           CCS      A
000798: 04,2123           12125                           TCF      +2                                    #  NO. CHECK FOR P25.
000799: 04,2124           12132                           TCF      2.7SPT                                #  YES. DO 2.7SPOT
000800: 04,2125           40074                           CS       FLAGWRD0                              #  IS P25 RUNNING?
000801: 04,2126           74743                           MASK     P25FLBIT
000802: 04,2127           10000                           CCS      A
000803: 04,2130           32367        2.0SPT             CA       OCT37667
000804: 04,2131           64747        2.11SPT            AD       BIT5
000805: 04,2132           62370        2.7SPT             AD       OCT40072
000806: 04,2133           05357                           TC       PHSCHNGA
000807:
000808: 04,2134           34755        CANV37             CAF      ZERO
000809: 04,2135           00006                           EXTEND
000810: 04,2136           01007                           WRITE    SUPERBNK
000811:
000812: 04,2137           32365                           CAF      R00AD
000813: 04,2140           54374                           TS       TEMPFLSH
000814:
000815: 04,2141           05353                           TC       PHASCHNG
000816: 04,2142           00014                           OCT      14
000817:


000819:
000820: 04,2143           06037        R00                TC       INTPRET
000821:
000822: 04,2144           77624                           CALL                                           #  WAIT FOR INTEGRATION TO FINISH
000823: 04,2145           27414                                    INTSTALL
000824: 04,2146           77776        DUMMYAD            EXIT
000825:
000826: 04,2147           05516                           TC       DOWNFLAG
000827: 04,2150           00124                           ADRES    3AXISFLG                              #  RESET 3-AXIS FLAG
000828:
000829: 04,2151           34735                           CAF      LRBYBIT                               #  CLEAN UP THE R12 FLAGWORD.
000830: 04,2152           54107                           TS       FLGWRD11
000831:
000832: 04,2153           05516                           TC       DOWNFLAG                              #  INSURE THAT THE R04FLAG IS CLEAR.
000833: 04,2154           00063                           ADRES    R04FLAG
000834:
000835: 04,2155           05516                           TC       DOWNFLAG                              #  INSURE MUNFLAG IS CLEAR.
000836: 04,2156           00141                           ADRES    MUNFLAG
000837:
000838: 04,2157           05516                           TC       DOWNFLAG                              #  ALLOW X-AXIS OVERRIDE.
000839: 04,2160           00311                           ADRES    XOVINFLG
000840: 04,2161           10775                           CCS      MMNUMBER                              #  IS THIS A POOH REQUEST
000841: 04,2162           12310                           TCF      NOUVEAU                               #  NO, PICK UP NEW PROGRAM
000842:
000843: 04,2163           04457        P00H               TC       RELDSP                                #  RELEASE DISPLAY SYSTEM
000844:
000845: 04,2164           35017                           CAF      PRIO5                                 #  SET VARIABLE RESTART PRIORITY FOR
000846: 04,2165           55056                           TS       PHSPRDT2                              #  P00 INTEGRATION.
000847:
000848: 04,2166           06011                           TC       CLRADMOD                              #  CLRADMOD DOES AN INHINT.
000849:
000850: 04,2167           44753                           CS       NODOBIT                               #  TURN OFF NODOFLAG.
000851: 04,2170           70076                           MASK     FLAGWRD2
000852: 04,2171           54076                           TS       FLAGWRD2
000853:
000854: 04,2172           34756                           CA       FIVE                                  #  SET RESTART FOR STATEINT1
000855: 04,2173           54001                           TS       L
000856: 04,2174           40000                           COM
000857: 04,2175           52755                           DXCH     -PHASE2
000858:
000859: 04,2176           42371                           CS       OCT700                                #  TURN OFF P20, P25, IMU IN USE FLAG
000860: 04,2177           70074                           MASK     FLAGWRD0
000861: 04,2200           54074                           TS       FLAGWRD0                              #                         RENDFLG
000862:
000863: 04,2201           34755                           CAF      DNLADP00
000864:
000865: 04,2202           54332        SEUDOP00           TS       DNLSTCOD                              #  SET UP APPROPRIATE DOWNLIST CODE
000866: 04,2203           55324                           TS       AGSWORD                               #    (CURRENT LIST WILL BE COMPLETED BEFORE
000867:                                                                                                  #      NEW ONE IS STARTED)
000868: 04,2204           04674                           TC       IBNKCALL
000869: 04,2205           75555                           CADR     ENGINOF1
000870:


000872: 04,2206           04674                           TC       IBNKCALL                              #  INSURE ALLCOAST.
000873: 04,2207           40204                           CADR     ALLCOAST                              #  DOES A RESTORDB.
000874:
000875: 04,2210           44775                           CS       OCT120                                #  TURN OFF TRACK, UPDATE FLAGS
000876: 04,2211           55072                           TS       EBANKTEM
000877: 04,2212           70075                           MASK     FLAGWRD1
000878: 04,2213           54075                           TS       FLAGWRD1
000879:
000880: 04,2214           04674                           TC       IBNKCALL                              #  KILL GROUPS 1,3,5,6
000881: 04,2215           12652                           CADR     V37KLEAN
000882:
000883: 04,2216           10775                           CCS      MMNUMBER                              #  IS IT POOH
000884: 04,2217           12226                           TCF      RENDVOO                               #  NO
000885: 04,2220           04674        GOMOD              TC       IBNKCALL                              #  REDUNDANT EXCEPT FOR GROUP 4
000886: 04,2221           12647                           CADR     P00KLEAN
000887:
000888: 04,2222           30775                           CA       MMNUMBER
000889: 04,2223           55011                           TS       MODREG
000890:
000891: 04,2224           04635        GOGOPROG           TC       POSTJUMP
000892: 04,2225           12770                           CADR     GOPROG2
000893:
000894: 04,2226           41011        RENDVOO            CS       MODREG                                #  IS CURRENT PROGRAM 22
000895: 04,2227           62326                           AD       OCT26
000896: 04,2230           00006                           EXTEND
000897: 04,2231           12250                           BZF      RESET22                               #  YES - CLEAR RENDEZVOUS FLAG
000898:
000899: 04,2232           40775                           CS       MMNUMBER                              #  IS NEW PROGRAM P22
000900: 04,2233           62326                           AD       OCT26
000901: 04,2234           00006                           EXTEND
000902: 04,2235           12250                           BZF      RESET22
000903:
000904: 04,2236           67746                           AD       NEG2                                  #  IS NEW PROGRAM = P20 OR P25
000905: 04,2237           00006                           EXTEND
000906: 04,2240           12262                           BZF      RENDNOO                               #  YES
000907: 04,2241           64756                           AD       FIVE                                  #  25
000908: 04,2242           00006                           EXTEND
000909: 04,2243           12262                           BZF      RENDNOO                               #  YES
000910:
000911: 04,2244           32324                           CA       OCT500                                #  NO, IS EITHER P20 OR P25 RUNNING
000912: 04,2245           70074                           MASK     FLAGWRD0
000913: 04,2246           10000                           CCS      A
000914: 04,2247           12257                           TCF      P00FIZZ                               #  YES, LEAVE GROUP 2 TO PICK UP P20 OR P25
000915:
000916: 04,2250           42371        RESET22            CS       OCT700                                #  CLEAR RENDEZVOUS, P25
000917: 04,2251           70074                           MASK     FLAGWRD0                              #  AND IMU IN USE FLAGS
000918: 04,2252           54074                           TS       FLAGWRD0
000919: 04,2253           06011                           TC       CLRADMOD


000921:
000922: 04,2254           00006        KILL2              EXTEND                                         #  NO, KILL 2
000923: 04,2255           34755                           DCA      NEG0
000924: 04,2256           52755                           DXCH     -PHASE2
000925:
000926: 04,2257           32364        P00FIZZ            CAF      V37QCAD                               #  RESTART POINT FOR V37XEQ
000927: 04,2260           54374                           TS       TEMPFLSH
000928:
000929: 04,2261           12224                           TCF      GOGOPROG
000930:
000931: 04,2262           41011        RENDNOO            CS       MODREG
000932: 04,2263           66007                           AD       OCT24
000933: 04,2264           00006                           EXTEND
000934: 04,2265           12254                           BZF      KILL2                                 #  P20 OR P25 ON TOP OF P20 OR P25 -
000935:
000936: 04,2266           64756                           AD       FIVE
000937: 04,2267           00006                           EXTEND
000938: 04,2270           12254                           BZF      KILL2
000939:
000940: 04,2271           32324                           CA       OCT500
000941: 04,2272           70074                           MASK     FLAGWRD0
000942: 04,2273           60775                           AD       MMNUMBER
000943: 04,2274           40000                           COM
000944: 04,2275           62327                           AD       P20REG                                #  IS IT 20 AND IS RENDEZVOUS FLAG ON
000945: 04,2276           00006                           EXTEND
000946: 04,2277           12304                           BZF      STATQUO                               #  YES
000947: 04,2300           62325                           AD       OCT305                                #  IS IT 25 AND IS P25 BIT ON
000948: 04,2301           00006                           EXTEND
000949: 04,2302           12304                           BZF      STATQUO                               #  YES, LEAVE AS IS
000950: 04,2303           12254                           TCF      KILL2
000951:
000952: 04,2304           40075        STATQUO            CS       FLAGWRD1                              #  SET TRACKFLAG
000953: 04,2305           74775                           MASK     OCT120                                #        UPDATE FLAG
000954: 04,2306           26075                           ADS      FLAGWRD1
000955:
000956: 04,2307           12220                           TCF      GOMOD
000957:
000958: 04,2310           32324        NOUVEAU            CAF      OCT500                                #  IS P20 OR P25 FLAG SET
000959: 04,2311           70074                           MASK     FLAGWRD0
000960: 04,2312           10000                           CCS      A
000961: 04,2313           12316                           TCF      +3                                    #  YES
000962: 04,2314           05516                           TC       DOWNFLAG                              #  NO, RESET IMUINUSE FLAG
000963: 04,2315           00007                           ADRES    IMUSE
000964:
000965: 04,2316           50774                           INDEX    MINDEX
000966: 04,2317           32500                           CAF      DNLADMM1                              #  OBTAIN APPROPRIATE DOWNLIST ADDRESS
000967:
000968: 04,2320           00004                           INHINT
000969: 04,2321           12202                           TCF      SEUDOP00
000970:
000971: 04,2322           04364        V37NONO            TC       FALTON                                #  COME HERE IF MM REQUESTED DOESNT EXIST


000973: 04,2323           12067                           TCF      V37BAD
000974:
000975: 04,2324     4750               OCT00010           EQUALS   BIT4
000976: 04,2324           00500        OCT500             OCT      500                                   #  BITS 7 AND 9
000977: 04,2325           00305        OCT305             OCT      305
000978: 04,2326           00026        OCT26              OCT      26
000979: 04,2327           00124        P20REG             OCT      124
000980:
000981: 04,2330           00004        V37XEQ             INHINT
000982: 04,2331           50774                           INDEX    MINDEX
000983: 04,2332           32441                           CAF      PREMM1                                #  OBTAIN PRIO, EBANK, AND MM
000984: 04,2333           55060                           TS       MMTEMP
000985: 04,2334           54020                           TS       CYR                                   #  SHIFT RIGHT TO BITS 14-10
000986:
000987: 04,2335           30020                           CA       CYR
000988: 04,2336           77725                           MASK     PRIO37
000989: 04,2337           55062                           TS       PHSPRDT4                              #  PRESET GROUP 4 RESTART PRIORITY
000990: 04,2340           54063                           TS       NEWPRIO                               #  STORE PRIO FOR SPVAC
000991:
000992: 04,2341           31060                           CA       MMTEMP                                #  OBTAIN EBANK - BITS 8, 9, 10 OF MMTEMP.
000993: 04,2342           00006                           EXTEND
000994: 04,2343           74744                           MP       BIT8
000995: 04,2344           74757                           MASK     LOW3
000996: 04,2345           54001                           TS       L
000997:
000998: 04,2346           50774                           INDEX    MINDEX
000999: 04,2347           32403                           CAF      FCADRMM1
001000: 04,2350           55061                           TS       BASETEMP                              #  MAKE BBCON BY ADDING HI5 OF FCADR
001001: 04,2351           74350                           MASK     HI5
001002: 04,2352           26001                           ADS      L
001003:
001004: 04,2353           31061                           CA       BASETEMP                              #  OBTAIN GENADR PORTION OF 2CADR.
001005: 04,2354           75012                           MASK     LOW10
001006: 04,2355           64741                           AD       BIT11
001007:
001008: 04,2356           05116                           TC       SPVAC
001009:
001010: 04,2357           31060        V37XEQC            CA       MMTEMP                                #  UPON RETURN FROM FINDVAC PLACE THE
001011: 04,2360           76074                           MASK     LOW7                                  #  NEW MM IN MODREG (THE LOW 7 BITS OF
001012: 04,2361           05314                           TC       NEWMODEA                              #  PHSPRDT1)
001013:
001014: 04,2362           04457                           TC       RELDSP                                #  RELEASE DISPLAY
001015: 04,2363           05155                           TC       ENDOFJOB                              #  AND EXIT
001016:
001017: 04,2364     5660               NEG7               EQUALS   OCT77770
001018:
001019: 04,2364     1060               MMTEMP             EQUALS   PHSPRDT3
001020: 04,2364     1061               BASETEMP           EQUALS   TBASE4
001021: 04,2364           10333        V37QCAD            CADR     V37XEQ     +3
001022: 04,2365           10146        R00AD              CADR     DUMMYAD
001023:


001025: 04,2366           10120        V37RETAD           CADR     V37RET
001026: 04,2367           37667        OCT37667           OCT      37667
001027: 04,2370           40072        OCT40072           OCT      40072
001028: 04,2371           00700        OCT700             OCT      700
001029:
001030: 04,2372           36245        SETUP71            CAF      THREE
001031: 04,2373           54002        SETUP70            TS       Q
001032: 04,2374           00006                           EXTEND
001033: 04,2375           32402                           DCA      P70CADR
001034: 04,2376           60002                           AD       Q
001035: 04,2377           52006                           DTCB
001036:
001037: 04,2400           00106        DEC70              DEC      70         B-14
001038: 04,2401  E7,1520                                  EBANK=   R
001039: 04,2401           02072 42067  P70CADR            2CADR    P70
001040:
001041:                                                                                                  #  FOR VERB 37 TWO TABLES ARE MAINTAINED.  EACH TABLE HAS AN ENTRY FOR EACH
001042:                                                                                                  #  MAJOR MODE THAT CAN BE STARTED FROM THE KEYBOARD.  THE ENTRIES ARE PUT
001043:                                                                                                  #  INTO THE TABLE WITH THE ENTRY FOR THE HIGHEST MAJOR MODE COMING FIRST,
001044:                                                                                                  #  TO THE LOWEST MAJOR MODE WHICH IS THE LAST ENTRY IN EACH TABLE.
001045:
001046:                                                                                                  #  THE FCADRMM TABLE CONTAINS THE FCADR OF THE STARTING JOB OF
001047:                                                                                                  #  THE MAJOR MODE.  FOR EXAMPLE,
001048:
001049:                                                                                                  #        FCADRMM1        FCADR   P79             START OF P 79
001050:                                                                                                  #                        FCADR   PROG18          START OF P 18
001051:                                                                                                  #                        FCADR   P01             START OF P 01
001052:
001053:                                                                                                  #  NOTE,         THE FIRST ENTRY MUST BE LABLED FCADRMM1.
001054:                                                                                                  #  ----
001055:
001056: 04,2403           71526        FCADRMM1           FCADR    P79
001057: 04,2404           71274                           FCADR    P78
001058: 04,2405           26207                           FCADR    P76
001059: 04,2406           72731                           FCADR    P75
001060: 04,2407           72547                           FCADR    P74
001061: 04,2410           72220                           FCADR    P73
001062: 04,2411           72031                           FCADR    P72
001063: 04,2412           62144                           FCADR    LANDJUNK
001064: 04,2413           64776                           FCADR    P63LM
001065: 04,2414           33314                           FCADR    P57
001066: 04,2415           32050                           FCADR    PROG52
001067: 04,2416           31427                           FCADR    P51
001068: 04,2417           75436                           FCADR    P47LM
001069: 04,2420           75410                           FCADR    P42LM
001070: 04,2421           75272                           FCADR    P41LM
001071: 04,2422           75147                           FCADR    P40LM
001072: 04,2423           71521                           FCADR    P39
001073: 04,2424           71271                           FCADR    P38


001075: 04,2425           72725                           FCADR    P35
001076: 04,2426           72545                           FCADR    P34
001077: 04,2427           72216                           FCADR    P33
001078: 04,2430           72027                           FCADR    P32
001079: 04,2431           72450                           FCADR    P31
001080: 04,2432           72000                           FCADR    P30
001081: 04,2433           50404                           FCADR    PROG25
001082: 04,2434           50000                           FCADR    PROG22
001083: 04,2435           51505                           FCADR    PROG21
001084: 04,2436           50000                           FCADR    PROG20
001085: 04,2437           60061                           FCADR    P12LM
001086: 04,2440           77655                           FCADR    P06
001087:
001088:                                                                                                  #  THE PREMM TABLE CONTAINS THE E-BANK, MAJOR MODE, AND PRIORITY
001089:                                                                                                  #  INFORMATION, IT IS IN THE FOLLOWING FORM,
001090:
001091:                                                                                                  #        PPP PPE EEM MMM MMM
001092:
001093:                                                                                                  #        WHERE THE       7 M BITS CONTAIN THE MAJOR MODE NUMBER
001094:                                                                                                  #                        3 E BITS CONTAIN THE E-BANK NUMBER
001095:                                                                                                  #                        5 P BITS CONTAIN THE PRIORITY AT WHICH THE JOB IS
001096:                                                                                                  #                            TO BE STARTED
001097:
001098:                                                                                                  #        FOR EXAMPLE,
001099:
001100:                                                                                                  #                PREMM1          OCT     67213           PRIORITY        33
001101:                                                                                                  #                                                        E-BANK  5
001102:                                                                                                  #                                                        MAJOR MODE      11
001103:                                                                                                  #                                OCT     25437           PRIORITY        12
001104:                                                                                                  #                                                        E-BANK  6
001105:                                                                                                  #                                                        MAJOR MODE      31
001106:
001107:                                                                                                  #  NOTE,         THE FIRST ENTRY MUST BE LABELED PREMM1
001108:
001109: 04,2441           27717        PREMM1             OCT      27717                                 #  MM 79         EBANK 7         PRIO 13
001110: 04,2442           27716                           OCT      27716                                 #  MM 78         EBANK 7         PRIO 13
001111: 04,2443           27714                           OCT      27714                                 #  MM 76         EBANK 7         PRIO 13
001112: 04,2444           27713                           OCT      27713                                 #  MM 75         EBANK 7         PRIO 13
001113: 04,2445           27712                           OCT      27712                                 #  MM 74         EBANK 7         PRIO 13
001114: 04,2446           27711                           OCT      27711                                 #  MM 73         EBANK 7         PRIO 13
001115: 04,2447           27710                           OCT      27710                                 #  MM 72         EBANK 7         PRIO 13
001116: 04,2450           27704                           OCT      27704                                 #  MM 68         EBANK 7         PRIO 13
001117: 04,2451           27677                           OCT      27677                                 #  MM 63         EBANK 7         PRIO 13
001118: 04,2452           27271                           OCT      27271                                 #  MM 57         EBANK 5         PRIO 13
001119: 04,2453           27264                           OCT      27264                                 #  MM 52         EBANK 5         PRIO 13
001120: 04,2454           27263                           OCT      27263                                 #  MM 51         EBANK 5         PRIO 13
001121: 04,2455           27657                           OCT      27657                                 #  MM 47         EBANK 7         PRIO 13
001122: 04,2456           27652                           OCT      27652                                 #  MM 42         EBANK 7         PRIO 13
001123: 04,2457           27651                           OCT      27651                                 #  MM 41         EBANK 7         PRIO 13
001124: 04,2460           27650                           OCT      27650                                 #  MM 40         EBANK 7         PRIO 13
001125: 04,2461           27647                           OCT      27647                                 #  MM 39         EBANK 7         PRIO 13
001126: 04,2462           27646                           OCT      27646                                 #  MM 38         EBANK 7         PRIO 13


001128: 04,2463           27643                           OCT      27643                                 #  MM 35         EBANK 7         PRIO 13
001129: 04,2464           27642                           OCT      27642                                 #  MM 34         EBANK 7         PRIO 13
001130: 04,2465           27641                           OCT      27641                                 #  MM 33         EBANK 7         PRIO 13
001131: 04,2466           27640                           OCT      27640                                 #  MM 32         EBANK 7         PRIO 13
001132: 04,2467           27637                           OCT      27637                                 #  MM 31         EBANK 7         PRIO 13
001133: 04,2470           27636                           OCT      27636                                 #  MM 30         EBANK 7         PRIO 13
001134: 04,2471           27631                           OCT      27631                                 #  MM 25         EBANK 7         PRIO 13
001135: 04,2472           27626                           OCT      27626                                 #  MM 22         EBANK 7         PRIO 13
001136: 04,2473           27625                           OCT      27625                                 #  MM 21         EBANK 7         PRIO 13
001137: 04,2474           27624                           OCT      27624                                 #  MM 20         EBANK 7         PRIO 13
001138: 04,2475           27614                           OCT      27614                                 #  MM 12         EBANK 7         PRIO 13
001139: 04,2476           27006                           OCT      27006                                 #  MM 06         EBANK 4         PRIO 13
001140:
001141:                                                                                                  #  NOTE,         THE FOLLOWING CONSTANT IS THE NUMBER OF ENTRIES IN EACH OF
001142:                                                                                                  #  ----          THE ABOVE LISTS-1(IE, THE NUMBER OF MAJOR MODES (EXCEPT P00)
001143:                                                                                                  #                THAT CAN BE CALLED FROM THE KEYBOARD MINUS ONE)
001144:
001145: 04,2477           00035        NOV37MM            DEC      29         B-14                       #  MM'S -1
001146:
001147: 04,2500           00002        DNLADMM1           ADRES    RENDEZVU                              #  P79
001148: 04,2501           00002                           ADRES    RENDEZVU                              #  P78
001149: 04,2502           00002                           ADRES    RENDEZVU
001150: 04,2503           00002                           ADRES    RENDEZVU                              #  P75
001151: 04,2504           00002                           ADRES    RENDEZVU                              #  P74
001152: 04,2505           00002                           ADRES    RENDEZVU                              #  P73
001153: 04,2506           00002                           ADRES    RENDEZVU                              #  P72
001154: 04,2507           00004                           ADRES    DESASCNT                              #  P68
001155: 04,2510           00004                           ADRES    DESASCNT                              #  P63
001156: 04,2511           00005                           ADRES    LUNRSALN                              #  P57
001157: 04,2512           00000                           ADRES    COSTALIN                              #  P52
001158: 04,2513           00000                           ADRES    COSTALIN                              #  P51
001159: 04,2514           00003                           ADRES    ORBMANUV                              #  P47
001160: 04,2515           00003                           ADRES    ORBMANUV                              #  P42
001161: 04,2516           00003                           ADRES    ORBMANUV                              #  P41
001162: 04,2517           00003                           ADRES    ORBMANUV                              #  P40
001163: 04,2520           00002                           ADRES    RENDEZVU                              #  P39
001164: 04,2521           00002                           ADRES    RENDEZVU                              #  P38
001165: 04,2522           00002                           ADRES    RENDEZVU                              #  P35
001166: 04,2523           00002                           ADRES    RENDEZVU                              #  P34
001167: 04,2524           00002                           ADRES    RENDEZVU                              #  P33
001168: 04,2525           00002                           ADRES    RENDEZVU                              #  P32
001169: 04,2526           00002                           ADRES    RENDEZVU                              #  P31LM
001170: 04,2527           00002                           ADRES    RENDEZVU                              #  P30
001171: 04,2530           00002                           ADRES    RENDEZVU                              #  P25
001172: 04,2531           00005                           ADRES    LUNRSALN                              #  P22
001173: 04,2532           00002                           ADRES    RENDEZVU                              #  P21
001174: 04,2533           00002                           ADRES    RENDEZVU                              #  P20
001175: 04,2534           00004                           ADRES    DESASCNT                              #  P12
001176: 04,2535           00000                           ADRES    COSTALIN                              #  P06
001177: 04,2536     4755               DNLADP00           =        ZERO
001178: 04,2536                        COSTALIN           =        0


001180: 04,2536                        AGSUPDAT           =        1
001181: 04,2536                        RENDEZVU           =        2
001182: 04,2536                        ORBMANUV           =        3
001183: 04,2536                        DESASCNT           =        4
001184: 04,2536                        LUNRSALN           =        5
001185:
001186: 13,2026                                           BANK     13
001187: 13,2000                                           SETLOC   INTINIT
001188: 13,2000                                           BANK
001189:
001190: 13,2026                                           COUNT*   $$/INTIN
001191:
001192: 13,2026  E3,1554                                  EBANK=   RRECTCSM
001193:
001194:                                                                                                  #  THIS ROUTINE DOES THE POO INTEGRATION
001195:
001196: 13,2026           43014        STATEUP            SET      BOF                                   #  EXTRAPOLATE CM STATE VECTOR
001197: 13,2027           01474                                    VINTFLAG
001198: 13,2030           04347                                    SURFFLAG                              #  ALSO 6X6 W-MATRIX IF LM ON LUNAR
001199: 13,2031           26036                                    DOINT                                 #        SURFACE AND W-MATRIX VALID
001200: 13,2032           43014                           BOF      SET                                   #        FOR RENDEZVOUS NAVIGATION.
001201: 13,2033           02756                                    RENDWFLG
001202: 13,2034           26036                                    DOINT
001203: 13,2035           01476                                    DIM0FLAG
001204: 13,2036           45014        DOINT              CLEAR    CALL
001205: 13,2037           01667                                    PRECIFLG                              #  ENGAGES 4-TIME STEP LOGIC IN INTEGRATION
001206: 13,2040           27134                                    INTEGRV                               #  WHEN MODREG = 0
001207:
001208: 13,2041           71214                           BON      DLOAD
001209: 13,2042           04307                                    SURFFLAG
001210: 13,2043           26063                                    NO-INT
001211: 13,2044           01571                                    TETCSM
001212: 13,2045           34041                           STCALL   TDEC1
001213: 13,2046           27414                                    INTSTALL
001214: 13,2047           45014                           CLEAR    CALL                                  #  EXTRAPOLATE LM STATE VECTOR
001215: 13,2050           01674                                    VINTFLAG
001216: 13,2051           26644                                    SETIFLGS
001217: 13,2052           77614                           BOF                                            #  ALSO 9X9 W-MATRIX IF W IS VALID
001218: 13,2053           02756                                    RENDWFLG
001219: 13,2054           26060                                    DOINT2
001220: 13,2055           43014                           SET      SET
001221: 13,2056           01476                                    DIM0FLAG
001222: 13,2057           01475                                    D6OR9FLG
001223: 13,2060           45014        DOINT2             SET      CALL
001224: 13,2061           01467                                    PRECIFLG                              #  DISENGAGE 4 TIME STEP LOGIC IN INTEG.
001225: 13,2062           27134                                    INTEGRV
001226: 13,2063           77614        NO-INT             CLRGO
001227: 13,2064           01236                                    NODOFLAG
001228: 13,2065           26632                                    ENDINT


001230:                                                                                                  #  THISVINT IS CALLED BY MIDTOAV1 AND 2
001231:
001232: 13,2066           43414        THISVINT           CLEAR    RVQ
001233: 13,2067           01674                                    VINTFLAG
001234:
001235:

End of include-file FRESH_START_AND_RESTART.agc.  Parent file is MAIN.agc


