
Source Code


000002:                                                                                                  ## Copyright:   Public domain.
000003:                                                                                                  ## Filename:    GIMBAL_LOCK_AVOIDANCE.agc
000004:                                                                                                  ## Purpose:     Part of the source code for Luminary 1A build 099.
000005:                                                                                                  ##              It is part of the source code for the Lunar Module's (LM)
000006:                                                                                                  ##              Apollo Guidance Computer (AGC), for Apollo 11.
000007:                                                                                                  ## Assembler:   yaYUL
000008:                                                                                                  ## Contact:     Ron Burkey <info@sandroid.org>.
000009:                                                                                                  ## Website:     www.ibiblio.org/apollo.
000010:                                                                                                  ## Pages:       364
000011:                                                                                                  ## Mod history: 2009-05-17 RSB  Adapted from the corresponding
000012:                                                                                                  ##                              Luminary131 file, using page
000013:                                                                                                  ##                              images from Luminary 1A.
000014:                                                                                                  ##              2010-12-31 JL   Fixed page number comment.
000015:                                                                                                  ##              2016-12-14 RSB  Proofed text comments with octopus/ProoferComments
000016:                                                                                                  ##                              but no errors found.
000017:                                                                                                  ##              2017-03-03 RSB  Snapshot of Luminary 99 Rev 1.
000018:                                                                                                  ##              2017-03-15 RSB  Comment-text proofed using 5-way
000019:                                                                                                  ##                              side-by-side diff of Luminary 69/99/116/131/210,
000020:                                                                                                  ##                              but no errors (or any differences) found.
000021:                                                                                                  ##              2017-08-22 RSB  Fixed comment-text typo identified in ZERLINA 56.
000022:


000024: 15,2050                                           BANK     15
000025:
000026: 22,2000                                           SETLOC   KALCMON1
000027: 22,2000                                           BANK
000028:
000029:                                                                                                  #  DETECTING GIMBAL LOCK
000030: 22,2744  22,2744               LOCSKIRT           EQUALS   NOGIMLOC
000031:
000032: 22,2744           77614        NOGIMLOC           SET
000033: 22,2745           01074                                    CALCMAN3
000034: 22,2746           70740        WCALC              LXC,1    DLOAD*
000035: 22,2747           01325                                    RATEINDX                              #  CHOOSE THE DESIRED MANEUVER RATE
000036: 22,2750           04772                                    ARATE,1                               #  FROM A LIST OF FOUR
000037: 22,2751           45002                           SR4      CALL                                  #  COMPUTE THE INCREMENTAL ROTATION MATRIX
000038: 22,2752           44527                                    DELCOMP                               #  DEL CORRESPONDING TO A 1 SEC ROTATION
000039:                                                                                                  #  ABOUT COF
000040: 22,2753           74343                           DLOAD*   VXSC
000041: 22,2754           04772                                    ARATE,1
000042: 22,2755           03271                                    COF
000043: 22,2756           17326                           STODL    BRATE                                 #  COMPONENT MANEUVER RATES 45 DEG/SEC
000044: 22,2757           03336                                    AM
000045: 22,2760           55605                           DMP      DDV*
000046: 22,2761           05002                                    ANGLTIME
000047: 22,2762           04772                                    ARATE,1
000048: 22,2763           77661                           SR
000049: 22,2764           20606                                    5
000050: 22,2765           03334                           STORE    TM                                    #  MANEUVER EXECUTION TIME SCALED AS T2
000051: 22,2766           77614                           SETGO
000052: 22,2767           01035                                    CALCMAN2                              #  0(OFF) = CONTINUE MANEUVER
000053: 22,2770           45010                                    NEWANGL    +1                         #  1(ON) = START MANEUVER
000054:
000055:                                                                                                  #  THE FOUR SELECTABLE FREE FALL MANEUVER RATES SELECTED BY
000056:                                                                                                  #  LOADING RATEINDX WITH 0, 2, 4, 6, RESPECTIVELY
000057:
000058: 22,2771           00221 24255  ARATE              2DEC     .0088888888                            #  = 0.2 DEG/SEC         $ 22.5 DEG/SEC
000059:
000060: 22,2773           00554 02660                     2DEC     .0222222222                            #  = 0.5 DEG/SEC         $ 22.5 DEG/SEC
000061:
000062: 22,2775           02660 13301                     2DEC     .0888888888                            #  = 2.0 DEG/SEC         $ 22.5 DEG/SEC
000063:
000064: 22,2777           16161 30707                     2DEC     .4444444444                            #  = 10.0 DEG/SEC        $ 22.5 DEG/SEC
000065:
000066: 22,3001           00003 04000  ANGLTIME           2DEC     .0001907349                            #  = 100B-19 FUDGE FACTOR TO CONVERT
000067:                                                                                                  #  MANEUVER ANGLE TO MANEUVER TIME
000068:
000069:

End of include-file GIMBAL_LOCK_AVOIDANCE.agc.  Parent file is MAIN.agc


