
Source Code


000002:                                                                                                  ## Copyright:   Public domain.
000003:                                                                                                  ## Filename:    IMU_COMPENSATION_PACKAGE.agc
000004:                                                                                                  ## Purpose:     Part of the source code for Luminary 1A build 099.
000005:                                                                                                  ##              It is part of the source code for the Lunar Module's (LM)
000006:                                                                                                  ##              Apollo Guidance Computer (AGC), for Apollo 11.
000007:                                                                                                  ## Assembler:   yaYUL
000008:                                                                                                  ## Contact:     Ron Burkey <info@sandroid.org>.
000009:                                                                                                  ## Website:     www.ibiblio.org/apollo.
000010:                                                                                                  ## Pages:       326-337
000011:                                                                                                  ## Mod history: 2009-05-16 RSB  Adapted from the corresponding
000012:                                                                                                  ##                              Luminary131 file, using page
000013:                                                                                                  ##                              images from Luminary 1A.
000014:                                                                                                  ##              2009-06-07 RSB  Corrected a typo.
000015:                                                                                                  ##              2016-12-14 RSB  Proofed text comments with octopus/ProoferComments
000016:                                                                                                  ##                              and corrected the errors found.
000017:                                                                                                  ##              2017-03-03 RSB  Snapshot of Luminary 99 Rev 1.
000018:


000020: 07,2667                                           BANK     7
000021: 06,2000                                           SETLOC   IMUCOMP
000022: 06,2000                                           BANK
000023:
000024: 06,3263  E3,1460                                  EBANK=   NBDX
000025:
000026: 06,3263                                           COUNT*   $$/ICOMP
000027: 06,3263           33531        1/PIPA             CAF      LGCOMP                                #  SAVE EBANK OF CALLING PROGRAM
000028: 06,3264           56003                           XCH      EBANK
000029: 06,3265           54163                           TS       MODE
000030:
000031: 06,3266           11477                           CCS      GCOMPSW                               #  BYPASS IF GCOMPSW NEGATIVE
000032: 06,3267           13272                           TCF      +3
000033: 06,3270           13272                           TCF      +2
000034: 06,3271           13353                           TCF      IRIG1                                 #  RETURN
000035:
000036: 06,3272           34751        1/PIPA1            CAF      FOUR                                  #  PIPAZ, PIPAY, PIPAX
000037: 06,3273           54132                           TS       BUF        +2
000038:
000039: 06,3274           50132                           INDEX    BUF        +2
000040: 06,3275           31453                           CA       PIPASCF                               #  (P.P.M.) X 2(-9)
000041: 06,3276           00006                           EXTEND
000042: 06,3277           50132                           INDEX    BUF        +2
000043: 06,3300           70324                           MP       DELVX                                 #  (PP) X 2(+14) NOW (PIPA PULSES) X 2(+5)
000044: 06,3301           54002                           TS       Q                                     #  SAVE MAJOR PART
000045:
000046: 06,3302           30001                           CA       L                                     #  MINOR PART
000047: 06,3303           00006                           EXTEND
000048: 06,3304           74746                           MP       BIT6                                  #  SCALE 2(+9)   SHIFT RIGHT 9
000049: 06,3305           50132                           INDEX    BUF        +2
000050: 06,3306           54325                           TS       DELVX      +1                         #  FRACTIONAL PIPA PULSES SCALED 2(+14)
000051:
000052: 06,3307           30002                           CA       Q                                     #  MAJOR PART
000053: 06,3310           00006                           EXTEND
000054: 06,3311           74746                           MP       BIT6                                  #  SCALE 2(+9)   SHIFT RIGHT 9
000055: 06,3312           50132                           INDEX    BUF        +2
000056: 06,3313           20325                           DAS      DELVX                                 #  (PIPAI) + (PIPAI)(SFE)
000057:
000058: 06,3314           50132                           INDEX    BUF        +2
000059: 06,3315           41452                           CS       PIPABIAS                              #  (PIPA PULSES)/(CS) X 2(-5)             *
000060: 06,3316           00006                           EXTEND
000061: 06,3317           71075                           MP       1/PIPADT                              #  (CS) X 2(+8) NOW (PIPA PULSES) X 2(+3) *
000062: 06,3320           00006                           EXTEND
000063: 06,3321           74750                           MP       BIT4                                  #  SCALE 2(+11) SHIFT RIGHT 11            *
000064: 06,3322           50132                           INDEX    BUF        +2
000065: 06,3323           20325                           DAS      DELVX                                 #  (PIPAI) + (PIPAI)(SFE) - (BIAS)(DELTAT)
000066:
000067: 06,3324           10132                           CCS      BUF        +2                         #  PIPAZ, PIPAY, PIPAX
000068: 06,3325           67747                           AD       NEG1
000069: 06,3326           13273                           TCF      1/PIPA1    +1


000071: 06,3327           13330                           NOOP                                           #  LESS THAN ZERO IMPOSSIBLE
000072:


000074: 06,3330           55477        IRIGCOMP           TS       GCOMPSW                               #  INDICATE COMMANDS 2 PULSES OR LESS.
000075: 06,3331           54130                           TS       BUF                                   #  INDEX COUNTER.  IRIGX, IRIGY, IRIGZ.
000076:
000077: 06,3332           03356                           TC       IRIGX                                 #  COMPENSATE ACCELERATION TERMS
000078:
000079: 06,3333           41460                           CS       NBDX                                  #  (GYRO PULSES)/(CS) X 2(-5)
000080: 06,3334           03454                           TC       DRIFTSUB                              #  -(NBOX)(DELTAT)       (GYRO PULSES) X 2(+14)
000081:
000082: 06,3335           03373                           TC       IRIGY                                 #  COMPENSATE ACCELERATION TERMS
000083:
000084: 06,3336           41461                           CS       NBDY                                  #  (GYRO PULSES)/(CS) X 2(-5)
000085: 06,3337           03454                           TC       DRIFTSUB                              #  +(NBDY)(DELTAT)       (GYRO PULSES) X 2(+14)
000086:
000087: 06,3340           03410                           TC       IRIGZ                                 #  COMPENSATE ACCELERATION TERMS
000088:
000089: 06,3341           31462                           CA       NBDZ                                  #  (GYRO PULSES)/(CS) X 2(-5)
000090: 06,3342           03454                           TC       DRIFTSUB                              #  +(NBDZ)(DELTAT)       (GYRO PULSES) X 2(+14)
000091:
000092: 06,3343           11477                           CCS      GCOMPSW                               #  ARE GYRO COMMANDS GREATER THAN 2 PULSES
000093: 06,3344           13346                           TCF      +2                                    #  YES   SEND OUT GYRO TORQUING COMMANDS.
000094: 06,3345           13353                           TCF      IRIG1                                 #  NO    RETURN
000095:
000096: 06,3346           35031                           CA       PRIO21                                #  PRIO GREATER THAN SERVICER
000097: 06,3347           05072                           TC       NOVAC                                 #  SEND OUT GYRO TORQUING COMMANDS.
000098: 06,3350  E3,1460                                  EBANK=   NBDX
000099: 06,3350           03507 14063                     2CADR    1/GYRO
000100:
000101: 06,3352           00003                           RELINT
000102: 06,3353           30163        IRIG1              CA       MODE                                  #  RESTORE CALLERS EBANK
000103: 06,3354           54003                           TS       EBANK
000104: 06,3355           14631                           TCF      SWRETURN
000105:


000107: 06,3356           00006        IRIGX              EXTEND
000108: 06,3357           22156                           QXCH     MPAC       +2                         #  SAVE Q
000109: 06,3360           00006                           EXTEND
000110: 06,3361           40325                           DCS      DELVX                                 #  (PIPA PULSES) X 2(+14)
000111: 06,3362           52155                           DXCH     MPAC
000112: 06,3363           31463                           CA       ADIAX                                 #  (GYRO PULSES)/(PIPA PULSE) X 2(-6)            *
000113: 06,3364           03425                           TC       GCOMPSUB                              #  -(ADIAX)(PIPAX)          (GYRO PULSES) X 2(+14)
000114:
000115: 06,3365           00006                           EXTEND                                         #
000116: 06,3366           40327                           DCS      DELVY                                 #        (PIPA PULSES) X 2(+14)
000117: 06,3367           52155                           DXCH     MPAC                                  #
000118: 06,3370           41466                           CS       ADSRAX                                #        (GYRO PULSES)/(PIPA PULSE) X 2(-6)      *
000119: 06,3371           03425                           TC       GCOMPSUB                              #        -(ADSRAX)(PIPAY)   (GYRO PULSES) X 2(+14)
000120:
000121:                                                                                                  #                EXTEND                  ***
000122:                                                                                                  #                DCS     DELVZ           ***     (PIPA PULSES) X 2(+14)
000123:                                                                                                  #                DXCH    MPAC            ***
000124:                                                                                                  #                CA      ADOAX           ***     (GYRO PULSES)/(PIPA PULSE) X 2(-6)      *
000125:                                                                                                  #                TC      GCOMPSUB        ***     -(ADOAX)(PIPAZ)    (GYRO PULSES) X 2(+14)
000126:
000127: 06,3372           00156                           TC       MPAC       +2
000128:
000129: 06,3373           00006        IRIGY              EXTEND
000130: 06,3374           22156                           QXCH     MPAC       +2                         #  SAVE Q
000131: 06,3375           00006                           EXTEND
000132: 06,3376           40327                           DCS      DELVY                                 #  (PIPA PULSES) X 2(+14)
000133: 06,3377           52155                           DXCH     MPAC
000134: 06,3400           31464                           CA       ADIAY                                 #  (GYRO PULSES)/(PIPA PULSE) X 2(-6)            *
000135: 06,3401           03425                           TC       GCOMPSUB                              #  -(ADIAY)(PIPAY)          (GYRO PULSES) X 2(+14)
000136:
000137: 06,3402           00006                           EXTEND
000138: 06,3403           40331                           DCS      DELVZ                                 #  (PIPA PULSES) X 2(+14)
000139: 06,3404           52155                           DXCH     MPAC
000140: 06,3405           41467                           CS       ADSRAY                                #  (GYRO PULSES)/(PIPA PULSE) X 2(-6)            *
000141: 06,3406           03425                           TC       GCOMPSUB                              #  +(ADSRAY)(PIPAZ)              (GYRO PULSES) X 2(+14)
000142:
000143:                                                                                                  #                EXTEND                  ***
000144:                                                                                                  #                DCS     DELVX           ***     (PIPA PULSES) X 2(+14)
000145:                                                                                                  #                DXCH    MPAC            ***
000146:                                                                                                  #                CA      ADOAY           ***     (GYRO PULSES)/(PIPA PULSE) X 2(-6)      *
000147:                                                                                                  #                TC      GCOMPSUB        ***     -(ADOAY)(PIPAX)   (GYRO PULSES) X 2(+14)
000148:
000149: 06,3407           00156                           TC       MPAC       +2
000150:
000151: 06,3410           00006        IRIGZ              EXTEND
000152: 06,3411           22156                           QXCH     MPAC       +2                         #  SAVE Q
000153: 06,3412           00006                           EXTEND
000154: 06,3413           40327                           DCS      DELVY                                 #  (PIPA PULSES) X 2(+14)
000155: 06,3414           52155                           DXCH     MPAC
000156: 06,3415           31470                           CA       ADSRAZ                                #  (GYRO PULSES)/(PIPA PULSE) X 2(-6)            *


000158: 06,3416           03425                           TC       GCOMPSUB                              #  -(ADSRAZ)(PIPAY)        (GYRO PULSES) X 2(+14)
000159:
000160: 06,3417           00006                           EXTEND
000161: 06,3420           40331                           DCS      DELVZ                                 #  (PIPA PULSES) X 2(+14)
000162: 06,3421           52155                           DXCH     MPAC
000163: 06,3422           31465                           CA       ADIAZ                                 #  (GYRO PULSES)/(PIPA PULSE) X 2(-6)            *
000164: 06,3423           03425                           TC       GCOMPSUB                              #  -(ADIAZ)(PIPAZ)          (GYRO PULSES) X 2(+14)
000165:
000166:                                                                                                  #                EXTEND                  ***
000167:                                                                                                  #                DCS     DELVX           ***     (PIPA PULSE) X 2(+14)
000168:                                                                                                  #                DXCH    MPAC            ***
000169:                                                                                                  #                CS      ADOAZ           ***     (GYRO PULSES)/(PIPA PULSE) X 2(-6)      *
000170:                                                                                                  #                TC      GCOMPSUB        ***     +(ADOAZ)(PIPAX)    (GYRO PULSES) X 2(+14)
000171:
000172: 06,3424           00156                           TC       MPAC       +2
000173:


000175: 06,3425           56154        GCOMPSUB           XCH      MPAC                                  #  ADIA OR ADSRA COEFFICIENT ARRIVES IN A
000176: 06,3426           00006                           EXTEND                                         #  C(MPAC) = (PIPA PULSES) X 2(+14)
000177: 06,3427           70154                           MP       MPAC                                  #  (GYRO PULSES)/(PIPA PULSE) X 2(-6)            *
000178: 06,3430           52123                           DXCH     VBUF                                  #  NOW = (GYRO PULSES) X 2(+8)                   *
000179:
000180: 06,3431           30155                           CA       MPAC       +1                         #  MINOR PART PIPA PULSES
000181: 06,3432           00006                           EXTEND
000182: 06,3433           70154                           MP       MPAC                                  #  ADIA OR ADSRA
000183: 06,3434           54001                           TS       L
000184: 06,3435           34755                           CAF      ZERO
000185: 06,3436           20123                           DAS      VBUF                                  #  NOW = (GYRO PULSES) X 2(+8)                   *
000186:
000187: 06,3437           30122                           CA       VBUF                                  #  PARTIAL RESULT - MAJOR
000188: 06,3440           00006                           EXTEND
000189: 06,3441           74743                           MP       BIT9                                  #  SCALE 2(+6)   SHIFT RIGHT 6                   *
000190: 06,3442           50130                           INDEX    BUF                                   #  RESULT = (GYRO PULSES) X 2(+14)
000191: 06,3443           21472                           DAS      GCOMP                                 #  HI(ADIA)(PIPAI) OR HI(ADSRA)(PIPAI)
000192:
000193: 06,3444           30123                           CA       VBUF       +1                         #  PARTIAL RESULT - MINOR
000194: 06,3445           00006                           EXTEND
000195: 06,3446           74743                           MP       BIT9                                  #  SCALE 2(+6)   SHIFT RIGHT 6                   *
000196: 06,3447           54001                           TS       L
000197: 06,3450           34755                           CAF      ZERO
000198: 06,3451           50130                           INDEX    BUF                                   #  RESULT = (GYRO PULSES) X 2(+14)
000199: 06,3452           21472                           DAS      GCOMP                                 #  (ADIA)(PIPAI) OR (ADSRA)(PIPAI)
000200:
000201: 06,3453           00002                           TC       Q
000202:


000204: 06,3454           00006        DRIFTSUB           EXTEND
000205: 06,3455           22131                           QXCH     BUF        +1
000206:
000207: 06,3456           00006                           EXTEND                                         #  C(A) = NBD    (GYRO PULSES)/(CS) X 2(-5)
000208: 06,3457           71075                           MP       1/PIPADT                              #  (CS) X 2(+8)  NOW (GYRO PULSES) X 2(+3)
000209: 06,3460           22155                           LXCH     MPAC       +1                         #  SAVE FOR FRACTIONAL COMPENSATION
000210: 06,3461           00006                           EXTEND
000211: 06,3462           74750                           MP       BIT4                                  #  SCALE 2(+11)  SHIFT RIGHT 11
000212: 06,3463           50130                           INDEX    BUF
000213: 06,3464           21472                           DAS      GCOMP                                 #  HI(NBD)(DELTAT)       (GYRO PULSES) X 2(+14)
000214:
000215: 06,3465           30155                           CA       MPAC       +1                         #  NOW MINOR PART
000216: 06,3466           00006                           EXTEND
000217: 06,3467           74750                           MP       BIT4                                  #  SCALE 2(+11)          SHIFT RIGHT 11
000218: 06,3470           54001                           TS       L
000219: 06,3471           34755                           CAF      ZERO
000220: 06,3472           50130                           INDEX    BUF                                   #  ADD IN FRACTIONAL COMPENSATION
000221: 06,3473           21472                           DAS      GCOMP                                 #  (NBD)(DELTAT)         (GYRO PULSES) X 2(+14)
000222:
000223: 06,3474           34752        DRFTSUB2           CAF      TWO                                   #  PIPAX, PIPAY, PIPAZ
000224: 06,3475           60130                           AD       BUF
000225: 06,3476           56130                           XCH      BUF
000226: 06,3477           50000                           INDEX    A
000227: 06,3500           11471                           CCS      GCOMP                                 #  ARE GYRO COMMANDS 1 PULSE OR GREATER
000228: 06,3501           13503                           TCF      +2                                    #  YES
000229: 06,3502           00131                           TC       BUF        +1                         #  NO
000230:
000231: 06,3503           73553                           MASK     COMPCHK                               #  DEC -1
000232: 06,3504           10000                           CCS      A                                     #  ARE GYRO COMMANDS GREATER THAN 2 PULSES
000233: 06,3505           55477                           TS       GCOMPSW                               #  YES - SET GCOMPSW POSITIVE
000234: 06,3506           00131                           TC       BUF        +1                         #  NO
000235:


000237: 06,3507           34751        1/GYRO             CAF      FOUR                                  #  PIPAZ, PIPAY, PIPAX
000238: 06,3510           54130                           TS       BUF
000239:
000240: 06,3511           50130                           INDEX    BUF                                   #  SCALE GYRO COMMANDS FOR IMUPULSE
000241: 06,3512           31472                           CA       GCOMP      +1                         #  FRACTIONAL PULSES
000242: 06,3513           00006                           EXTEND
000243: 06,3514           74744                           MP       BIT8                                  #  SHIFT RIGHT 7
000244: 06,3515           50130                           INDEX    BUF
000245: 06,3516           55472                           TS       GCOMP      +1                         #  FRACTIONAL PULSES SCALED
000246:
000247: 06,3517           34755                           CAF      ZERO                                  #  SET GCOMP = 0 FOR DAS INSTRUCTION
000248: 06,3520           50130                           INDEX    BUF
000249: 06,3521           57471                           XCH      GCOMP                                 #  GYRO PULSES
000250: 06,3522           00006                           EXTEND
000251: 06,3523           74744                           MP       BIT8                                  #  SHIFT RIGHT 7
000252: 06,3524           50130                           INDEX    BUF
000253: 06,3525           21472                           DAS      GCOMP                                 #  ADD THESE TO FRACTIONAL PULSES ABOVE
000254:
000255: 06,3526           10130                           CCS      BUF                                   #  PIPAZ, PIPAY, PIPAX
000256: 06,3527           67747                           AD       NEG1
000257: 06,3530           13510                           TCF      1/GYRO     +1
000258: 06,3531           01471        LGCOMP             ECADR    GCOMP                                 #  LESS THAN ZERO IMPOSSIBLE
000259:
000260: 06,3532           33531                           CAF      LGCOMP
000261: 06,3533           04616                           TC       BANKCALL
000262: 06,3534           17323                           CADR     IMUPULSE                              #  CALL GYRO TORQUING ROUTINE
000263: 06,3535           04616                           TC       BANKCALL
000264: 06,3536           17716                           CADR     IMUSTALL                              #  WAIT FOR PULSES TO GET OUT
000265: 06,3537           15155                           TCF      ENDOFJOB                              #  TEMPORARY
000266:
000267: 06,3540           34751        GCOMP1             CAF      FOUR                                  #  PIPAZ, PIPAY, PIPAX
000268: 06,3541           54130                           TS       BUF
000269:
000270: 06,3542           50130                           INDEX    BUF                                   #  RESCALE
000271: 06,3543           31472                           CA       GCOMP      +1
000272: 06,3544           00006                           EXTEND
000273: 06,3545           74744                           MP       BIT8                                  #  SHIFT MINOR PART LEFT 7 - MAJOR PART = 0
000274: 06,3546           50130                           INDEX    BUF
000275: 06,3547           23472                           LXCH     GCOMP      +1                         #  BITS 8-14 OF MINOR PART WERE = 0
000276:
000277: 06,3550           10130                           CCS      BUF                                   #  PIPAZ, PIPAY, PIPAX
000278: 06,3551           67747                           AD       NEG1
000279: 06,3552           13541                           TCF      GCOMP1     +1
000280: 06,3553           77776        COMPCHK            DEC      -1         B-14                       #  LESS THAN ZERO IMPOSSIBLE
000281: 06,3554           15155                           TCF      ENDOFJOB
000282:


000284: 06,3555           11477        NBDONLY            CCS      GCOMPSW                               #  BYPASS IF GCOMPSW NEGATIVE
000285: 06,3556           13561                           TCF      +3
000286: 06,3557           13561                           TCF      +2
000287: 06,3560           15155                           TCF      ENDOFJOB
000288:
000289: 06,3561           00004                           INHINT
000290: 06,3562           10076                           CCS      FLAGWRD2                              #  PREREAD T3RUPT MAY COINCIDE
000291: 06,3563           15155                           TCF      ENDOFJOB
000292: 06,3564           15155                           TCF      ENDOFJOB
000293: 06,3565           13566                           TCF      +1
000294:
000295: 06,3566           30104                           CA       FLAGWRD8                              #  IF SURFACE FLAG IS SET, SET TEM1
000296: 06,3567           74744                           MASK     BIT8                                  #  POSITIVE SO THAT THE ACCELERATION TERMS
000297: 06,3570           54141                           TS       TEM1                                  #  WILL BE COMPENSATED.
000298: 06,3571           00006                           EXTEND
000299: 06,3572           13575                           BZF      +3                                    #  ARE WE ON THE SURFACE
000300:
000301: 06,3573           04674                           TC       IBNKCALL                              #  ON THE SURFACE
000302: 06,3574           77544                           CADR     PIPASR     +3                         #  READ PIPAS, BUT DO NOT SCALE THEM
000303:
000304: 06,3575           30025                           CA       TIME1                                 #  (CS) X 2(+14)
000305: 06,3576           57075                           XCH      1/PIPADT                              #  PREVIOUS TIME
000306: 06,3577           00003                           RELINT
000307: 06,3600           40000                           COM
000308: 06,3601           61075                           AD       1/PIPADT                              #  PRESENT TIME - PREVIOUS TIME
000309: 06,3602           64736        NBD2               AD       HALF                                  #  CORRECT FOR POSSIBLE TIME1 TICK
000310: 06,3603           64736                           AD       HALF
000311: 06,3604           56001                           XCH      L                                     #  IF TIME1 DID NOT TICK, REMOVE RESULTING
000312: 06,3605           56001                           XCH      L                                     #  OVERFLOW.
000313:
000314: 06,3606           00006        NBD3               EXTEND                                         #  C(A) = DELTAT         (CS) X 2(+14)
000315: 06,3607           74742                           MP       BIT10                                 #  SHIFT RIGHT 5
000316: 06,3610           52125                           DXCH     VBUF       +2
000317:
000318: 06,3611           34755                           CA       ZERO
000319: 06,3612           55477                           TS       GCOMPSW                               #  INDICATE COMMANDS 2 PULSES OR LESS.
000320: 06,3613           54130                           TS       BUF                                   #  INDEX- X, Y, Z.
000321:
000322: 06,3614           10141                           CCS      TEM1                                  #  IF SURFACE FLAG IS SET,
000323: 06,3615           03356                           TC       IRIGX                                 #  COMPENSATE ACCELERATION TERMS.
000324:
000325: 06,3616           00006                           EXTEND
000326: 06,3617           30125                           DCA      VBUF       +2
000327: 06,3620           52155                           DXCH     MPAC                                  #  DELTAT NOW SCALED (CS) X 2(+19)
000328:
000329: 06,3621           41460                           CS       NBDX                                  #  (GYRO PULSES)/(CS) X 2(-5)
000330: 06,3622           03644                           TC       FBIASSUB                              #  -(NBOX)(DELTAT)       (GYRO PULSES) X 2(+14)
000331:
000332: 06,3623           10141                           CCS      TEM1                                  #  IF SURFACE FLAG IS SET,
000333: 06,3624           03373                           TC       IRIGY                                 #  COMPENSATE ACCELERATION TERMS.


000335: 06,3625           00006                           EXTEND
000336: 06,3626           40125                           DCS      VBUF       +2
000337: 06,3627           52155                           DXCH     MPAC                                  #  DELTAT SCALED (CS) X 2(+19)
000338: 06,3630           31461                           CA       NBDY                                  #  (GYRO PULSES)/(CS) X 2(-5)
000339: 06,3631           03644                           TC       FBIASSUB                              #  -(NBDY)(DELTAT)       (GYRO PULSES) X 2(+14)
000340:
000341: 06,3632           10141                           CCS      TEM1                                  #  IF SURFACE FLAG IS SET,
000342: 06,3633           03410                           TC       IRIGZ                                 #  COMPENSATE ACCELERATION TERMS
000343:
000344: 06,3634           00006                           EXTEND
000345: 06,3635           40125                           DCS      VBUF       +2
000346: 06,3636           52155                           DXCH     MPAC                                  #  DELTAT SCALED (CS) X 2(+19)
000347: 06,3637           41462                           CS       NBDZ                                  #  (GYRO PULSES)/(CS) X 2(-5)
000348: 06,3640           03644                           TC       FBIASSUB                              #  +(NBDZ)(DELTAT)       (GYRO PULSES) X 2(+14)
000349:
000350: 06,3641           11477                           CCS      GCOMPSW                               #  ARE GYRO COMMANDS GREATER THAN 2 PULSES
000351: 06,3642           13507                           TCF      1/GYRO                                #  YES
000352: 06,3643           15155                           TCF      ENDOFJOB                              #  NO
000353:


000355: 06,3644           56002        FBIASSUB           XCH      Q
000356: 06,3645           54131                           TS       BUF        +1
000357:
000358: 06,3646           30002                           CA       Q                                     #  NBD SCALED (GYRO PULSES)/(CS) X 2(-5)
000359: 06,3647           00006                           EXTEND
000360: 06,3650           70154                           MP       MPAC                                  #  DELTAT SCALED (CS) X 2(+19)
000361: 06,3651           50130                           INDEX    BUF
000362: 06,3652           21472                           DAS      GCOMP                                 #  HI(NBD)(DELTAT)       (GYRO PULSES) X 2(+14)
000363:
000364: 06,3653           30002                           CA       Q                                     #  NOW FRACTIONAL PART
000365: 06,3654           00006                           EXTEND
000366: 06,3655           70155                           MP       MPAC       +1
000367: 06,3656           54001                           TS       L
000368: 06,3657           34755                           CAF      ZERO
000369: 06,3660           50130                           INDEX    BUF
000370: 06,3661           21472                           DAS      GCOMP                                 #  (NBD)(DELTAT)         (GYRO PULSES) X 2(+14)
000371:
000372: 06,3662           13474                           TCF      DRFTSUB2                              #  CHECK MAGNITUDE OF COMPENSATION
000373:
000374: 06,3663           04616        LASTBIAS           TC       BANKCALL
000375: 06,3664           17277                           CADR     PIPUSE1
000376:
000377: 06,3665           11477                           CCS      GCOMPSW
000378: 06,3666           13671                           TCF      +3
000379: 06,3667           13671                           TCF      +2
000380: 06,3670           15155                           TCF      ENDOFJOB
000381:
000382: 06,3671           30104                           CA       FLAGWRD8                              #  IF SURFACE FLAG IS SET, SET TEM1
000383: 06,3672           74744                           MASK     SURFFBIT                              #  POSITIVE SO THAT THE ACCELERATION TERMS
000384: 06,3673           54141                           TS       TEM1                                  #  WILL BE COMPENSATED.
000385:
000386: 06,3674           37716                           CAF      PRIO31                                #  2 SECONDS SCALED (CS) X 2(+8)
000387: 06,3675           57075                           XCH      1/PIPADT
000388: 06,3676           40000                           COM
000389: 06,3677           61235                           AD       PIPTIME    +1
000390: 06,3700           13602                           TCF      NBD2
000391:
000392: 06,3701           33531        GCOMPZER           CAF      LGCOMP                                #  ROUTINE TO ZERO GCOMP BEFORE FIRST
000393: 06,3702           56003                           XCH      EBANK                                 #  CALL TO 1/PIPA
000394: 06,3703           54163                           TS       MODE
000395:
000396: 06,3704           34755                           CAF      ZERO
000397: 06,3705           55477                           TS       GCOMPSW
000398: 06,3706           55471                           TS       GCOMP
000399: 06,3707           55472                           TS       GCOMP      +1
000400: 06,3710           55473                           TS       GCOMP      +2
000401: 06,3711           55474                           TS       GCOMP      +3
000402: 06,3712           55475                           TS       GCOMP      +4


000404: 06,3713           55476                           TS       GCOMP      +5
000405:
000406: 06,3714           13353                           TCF      IRIG1                                 #  RESTORE EBANK AND RETURN
000407:

End of include-file IMU_COMPENSATION_PACKAGE.agc.  Parent file is MAIN.agc


