
Source Code


000002:                                                                                                  ## Copyright:   Public domain.
000003:                                                                                                  ## Filename:    INFLIGHT_ALIGNMENT_ROUTINES.agc
000004:                                                                                                  ## Purpose:     Part of the source code for Luminary 1A build 099.
000005:                                                                                                  ##              It is part of the source code for the Lunar Module's (LM)
000006:                                                                                                  ##              Apollo Guidance Computer (AGC), for Apollo 11.
000007:                                                                                                  ## Assembler:   yaYUL
000008:                                                                                                  ## Contact:     Ron Burkey <info@sandroid.org>.
000009:                                                                                                  ## Website:     www.ibiblio.org/apollo.
000010:                                                                                                  ## Pages:       1249-1258
000011:                                                                                                  ## Mod history: 2009-05-26 RSB  Adapted from the corresponding
000012:                                                                                                  ##                              Luminary131 file, using page
000013:                                                                                                  ##                              images from Luminary 1A.
000014:                                                                                                  ##              2016-12-17 RSB  Proofed text comments with octopus/ProoferComments
000015:                                                                                                  ##                              and corrected the errors found.
000016:                                                                                                  ##              2017-03-03 RSB  Snapshot of Luminary 99 Rev 1.
000017:                                                                                                  ##              2017-03-17 RSB  Comment-text fixes identified in diff'ing
000018:                                                                                                  ##                              Luminary 99 vs Comanche 55.
000019:


000021: 22,3773                                           BANK     22
000022: 23,2000                                           SETLOC   INFLIGHT
000023: 23,2000                                           BANK
000024:
000025: 23,3247  E5,1642                                  EBANK=   XSM
000026:
000027:                                                                                                  #  CALCGTA COMPUTES THE GYRO TORQUE ANGLES REQUIRED TO BRING THE STABLE MEMBER INTO THE DESIRED ORIENTATION.
000028:
000029:                                                                                                  #  THE INPUT IS THE DESIRED STABLE MEMBER COORDINATES REFERRED TO PRESENT STABLE MEMBER COORDINATES.  THE THREE
000030:                                                                                                  #  HALF-UNIT VECTORS ARE STORED AT XDC, YDC, AND ZDC.
000031:
000032:                                                                                                  #  THE OUTPUTS ARE THE THREE GYRO TORQUING ANGLES TO BE APPLIED TO THE Y, Z, AND X GYROS AND ARE STORED DP AT IGC,
000033:                                                                                                  #  MGC, AND OGC RESPECTIVELY.
000034:
000035: 23,3247                                           COUNT*   $$/INFLT
000036: 23,3247           71220        CALCGTA            ITA      DLOAD                                 #  PUSHDOWN 00-03, 16D-27D, 34D-37D
000037: 23,3250           00051                                    S2                                    #  XDC = (XD1 XD2 XD3)
000038: 23,3251           02665                                    XDC                                   #  YDC = (YD1 YD2 YD3)
000039: 23,3252           65325                           PDDL     PDDL                                  #  ZDC = (ZD1 ZD2 ZD3)
000040: 23,3253           06522                                    HI6ZEROS
000041: 23,3254           02671                                    XDC        +4
000042: 23,3255           55476                           DCOMP    VDEF
000043: 23,3256           77656                           UNIT
000044: 23,3257           14027                           STODL    ZPRIME                                #  ZP = UNIT(-XD3 0 XD1) = (ZP1 ZP2 ZP3)
000045: 23,3260           00027                                    ZPRIME
000046:
000047: 23,3261           77742                           SR1
000048: 23,3262           14023                           STODL    SINTH                                 #  SIN(IGC) = ZP1
000049: 23,3263           00033                                    ZPRIME     +4
000050: 23,3264           77742                           SR1
000051: 23,3265           34021                           STCALL   COSTH                                 #  COS(IGC) = ZP3
000052: 23,3266           47320                                    ARCTRIG
000053:
000054: 23,3267           16742                           STODL    IGC                                   #  Y GYRO TORQUING ANGLE   FRACTION OF REV.
000055: 23,3270           02667                                    XDC        +2
000056: 23,3271           77742                           SR1
000057: 23,3272           14023                           STODL    SINTH                                 #  SIN(MGC) = XD2
000058: 23,3273           00027                                    ZPRIME
000059:
000060: 23,3274           65205                           DMP      PDDL
000061: 23,3275           02671                                    XDC        +4                         #  PD00 = (ZP1)(XD3)
000062: 23,3276           00033                                    ZPRIME     +4
000063:
000064: 23,3277           45205                           DMP      DSU
000065: 23,3300           02665                                    XDC                                   #  MPAC = (ZP3)(XD1)
000066: 23,3301           77626                           STADR
000067: 23,3302           43756                           STCALL   COSTH                                 #  COS(MGC) = MPAC - PD00
000068: 23,3303           47320                                    ARCTRIG


000070: 23,3304           26744                           STOVL    MGC                                   #  Z GYRO TORQUING ANGLE   FRACTION OF REV.
000071: 23,3305           00027                                    ZPRIME
000072: 23,3306           77641                           DOT
000073: 23,3307           02701                                    ZDC
000074: 23,3310           24021                           STOVL    COSTH                                 #  COS(OGC) = ZP . ZDC
000075: 23,3311           00027                                    ZPRIME
000076: 23,3312           77641                           DOT
000077: 23,3313           02673                                    YDC
000078: 23,3314           34023                           STCALL   SINTH                                 #  SIN(OGC) = ZP . YDC
000079: 23,3315           47320                                    ARCTRIG
000080:
000081: 23,3316           36740                           STCALL   OGC                                   #  X GYRO TORQUING ANGLE   FRACTION OF REV.
000082: 23,3317           00051                                    S2
000083:


000085:                                                                                                  #  ARCTRIG COMPUTES AN ANGLE GIVEN THE SINE AND COSINE OF THIS ANGLE.
000086:
000087:                                                                                                  #  THE INPUTS ARE SIN/4 AND COS/4 STORED DP AT SINTH AND COSTH.
000088:
000089:                                                                                                  #  THE OUTPUT IS THE CALCULATED ANGLE BETWEEN +.5 AND -.5 REVOLUTIONS AND STORED AT THETA.  THE OUTPUT IS ALSO
000090:                                                                                                  #  AVAILABLE AT MPAC.
000091:
000092: 23,3320           51545        ARCTRIG            DLOAD    ABS                                   #  PUSHDOWN  16D-21D
000093: 23,3321           00023                                    SINTH
000094: 23,3322           50025                           DSU      BMN
000095: 23,3323           07534                                    QTSN45                                #  ABS(SIN/4) - SIN(45)/4
000096: 23,3324           47333                                    TRIG1                                 #  IF (-45,45) OR (135,-135)
000097:
000098: 23,3325           72545                           DLOAD    SL1                                   #  (45,135) OR (-135,-45)
000099: 23,3326           00021                                    COSTH
000100: 23,3327           75326                           ACOS     SIGN
000101: 23,3330           00023                                    SINTH
000102: 23,3331           00025                           STORE    THETA                                 #  X = ARCCOS(COS) WITH SIGN(SIN)
000103: 23,3332           77616                           RVQ
000104:
000105: 23,3333           72545        TRIG1              DLOAD    SL1                                   #  (-45,45) OR (135,-135)
000106: 23,3334           00023                                    SINTH
000107: 23,3335           77736                           ASIN
000108: 23,3336           14025                           STODL    THETA                                 #  X = ARCSIN(SIN) WITH SIGN(SIN)
000109: 23,3337           00021                                    COSTH
000110: 23,3340           77640                           BMN
000111: 23,3341           47344                                    TRIG2                                 #  IF (135,-135)
000112:
000113: 23,3342           43545                           DLOAD    RVQ
000114: 23,3343           00025                                    THETA                                 #  X = ARCSIN(SIN)   (-45,45)
000115:
000116: 23,3344           75345        TRIG2              DLOAD    SIGN                                  #  (135,-135)
000117: 23,3345           06520                                    HIDPHALF
000118: 23,3346           00023                                    SINTH
000119: 23,3347           77625                           DSU
000120: 23,3350           00025                                    THETA
000121: 23,3351           00025                           STORE    THETA                                 #  X = .5 WITH SIGN(SIN) - ARCSIN(SIN)
000122: 23,3352           77616                           RVQ                                            #        (+) - (+) OR (-) - (-)
000123:


000125:                                                                                                  #  SMNB, NBSM, AND AXISROT, WHICH USED TO APPEAR HERE, HAVE BEEN
000126:                                                                                                  #  COMBINED IN A ROUTINE CALLED AX*SR*T, WHICH APPEARS AMONG THE POWERED
000127:                                                                                                  #  FLIGHT SUBROUTINES.
000128:


000130:                                                                                                  #  CALCGA COMPUTES THE CDU DRIVING ANGLES REQUIRED TO BRING THE STABLE MEMBER INTO THE DESIRED ORIENTATION.
000131:
000132:                                                                                                  #  THE INPUTS ARE  1) THE NAVIGATION BASE COORDINATES REFERRED TO ANY COORDINATE SYSTEM.  THE THREE HALF-UNIT
000133:                                                                                                  #  VECTORS ARE STORED AT XNB, YNB, AND ZNB.  2) THE DESIRED STABLE MEMBER COORDINATES REFERRED TO THE SAME
000134:                                                                                                  #  COORDINATE SYSTEM ARE STORED AT XSM, YSM, AND ZSM.
000135:
000136:                                                                                                  #  THE OUTPUTS ARE THE THREE CDU DRIVING ANGLES AND ARE STORED SP AT THETAD, THETAD +1, AND THETAD +2.
000137:
000138: 23,3353           77601        CALCGA             SETPD                                          #  PUSHDOWN 00-05, 16D-21D, 34D-37D
000139: 23,3354           00001                                    0
000140: 23,3355           47375                           VLOAD    VXV
000141: 23,3356           02665                                    XNB                                   #  XNB = OGA (OUTER GIMBAL AXIS)
000142: 23,3357           02651                                    YSM                                   #  YSM = IGA (INNER GIMBAL AXIS)
000143: 23,3360           41456                           UNIT     PUSH                                  #  PD0 = UNIT(OGA X IGA) = MGA
000144:
000145: 23,3361           44041                           DOT      ITA
000146: 23,3362           02701                                    ZNB
000147: 23,3363           00051                                    S2
000148: 23,3364           24021                           STOVL    COSTH                                 #  COS(OG) = MGA . ZNB
000149: 23,3365           00001                                    0
000150: 23,3366           77641                           DOT
000151: 23,3367           02673                                    YNB
000152: 23,3370           34023                           STCALL   SINTH                                 #  SIN(OG) = MGA . YNB
000153: 23,3371           47320                                    ARCTRIG
000154: 23,3372           26740                           STOVL    OGC
000155: 23,3373           00001                                    0
000156:
000157: 23,3374           50235                           VXV      DOT                                   #  PROVISION FOR MG ANGLE OF 90 DEGREES
000158: 23,3375           02665                                    XNB
000159: 23,3376           02651                                    YSM
000160: 23,3377           77752                           SL1
000161: 23,3400           24021                           STOVL    COSTH                                 #  COS(MG) = IGA . (MGA X OGA)
000162: 23,3401           02651                                    YSM
000163: 23,3402           77641                           DOT
000164: 23,3403           02665                                    XNB
000165: 23,3404           34023                           STCALL   SINTH                                 #  SIN(MG) = IGA . OGA
000166: 23,3405           47320                                    ARCTRIG
000167: 23,3406           02744                           STORE    MGC
000168:
000169: 23,3407           45246                           ABS      DSU
000170: 23,3410           07536                                    .166...
000171: 23,3411           77644                           BPL
000172: 23,3412           47431                                    GIMLOCK1                              #  IF ANGLE GREATER THAN 60 DEGREES
000173:
000174: 23,3413           50375        CALCGA1            VLOAD    DOT
000175: 23,3414           02657                                    ZSM
000176: 23,3415           00001                                    0
000177: 23,3416           24021                           STOVL    COSTH                                 #  COS(IG) = ZSM . MGA
000178: 23,3417           02643                                    XSM


000180: 23,3420           45441                           DOT      STADR
000181: 23,3421           43754                           STCALL   SINTH                                 #  SIN(IG) = XSM . MGA
000182: 23,3422           47320                                    ARCTRIG
000183:
000184: 23,3423           26742                           STOVL    IGC
000185: 23,3424           02740                                    OGC
000186: 23,3425           77634                           RTB
000187: 23,3426           21620                                    V1STO2S
000188: 23,3427           34322                           STCALL   THETAD
000189: 23,3430           00051                                    S2
000190:
000191: 23,3431           77776        GIMLOCK1           EXIT
000192: 23,3432           05567                           TC       ALARM
000193: 23,3433           00401                           OCT      00401
000194: 23,3434           05504                           TC       UPFLAG                                #  GIMBAL LOCK HAS OCCURED
000195: 23,3435           00056                           ADRES    GLOKFAIL
000196:
000197: 23,3436           06037                           TC       INTPRET
000198: 23,3437           77650                           GOTO
000199: 23,3440           47413                                    CALCGA1
000200:


000202:                                                                                                  #  AXISGEN COMPUTES THE COORDINATES OF ONE COORDINATE SYSTEM REFERRED TO ANOTHER COORDINATE SYSTEM.
000203:
000204:                                                                                                  #  THE INPUTS ARE  1) THE STAR1 VECTOR REFERRED TO COORDINATE SYSTEM A STORED AT STARAD.  2) THE STAR2 VECTOR
000205:                                                                                                  #  REFERRED TO COORDINATE SYSTEM A STORED AT STARAD +6.  3) THE STAR1 VECTOR REFERRED TO COORDINATE SYSTEM B STORED
000206:                                                                                                  #  AT LOCATION 6 OF THE VAC AREA.  4) THE STAR2 VECTOR REFERRED TO COORDINATE SYSTEM B STORED AT LOCATION 12D OF
000207:                                                                                                  #  THE VAC AREA.
000208:
000209:                                                                                                  #  THE OUTPUT DEFINES COORDINATE SYSTEM A REFERRED TO COORDINATE SYSTEM B.  THE THREE HALF-UNIT VECTORS ARE STORED
000210:                                                                                                  #  AT LOCATIONS XDC, XDC +6, XDC +12D, AND STARAD, STARAD +6, STARAD +12D.
000211:
000212: 23,3441           66370        AXISGEN            AXT,1    SSP                                   #  PUSHDOWN 00-30D, 34D-37D
000213: 23,3442           02714                                    STARAD     +6
000214: 23,3443           00051                                    S1
000215: 23,3444           02700                                    STARAD     -6
000216:
000217: 23,3445           77601                           SETPD
000218: 23,3446           00001                                    0
000219: 23,3447           46773        AXISGEN1           VLOAD*   VXV*                                  #  06D   UA = S1
000220: 23,3450           02723                                    STARAD     +12D,1                     #        STARAD +00D     UB = S1
000221: 23,3451           02731                                    STARAD     +18D,1
000222: 23,3452           77656                           UNIT                                           #  12D   VA = UNIT(S1 X S2)
000223: 23,3453           06731                           STORE    STARAD     +18D,1                     #        STARAD +06D     VB = UNIT(S1 X S2)
000224: 23,3454           77773                           VLOAD*
000225: 23,3455           02723                                    STARAD     +12D,1
000226:
000227: 23,3456           76433                           VXV*     VSL1
000228: 23,3457           02731                                    STARAD     +18D,1                     #  18D   WA = UA X VA
000229: 23,3460           06737                           STORE    STARAD     +24D,1                     #        STARAD +12D     WB = UB X VB
000230:
000231: 23,3461           77700                           TIX,1
000232: 23,3462           47447                                    AXISGEN1
000233:
000234: 23,3463           66160                           AXC,1    SXA,1
000235: 23,3464           00006                                    6
000236: 23,3465           00036                                    30D
000237:
000238: 23,3466           66370                           AXT,1    SSP
000239: 23,3467           00022                                    18D
000240: 23,3470           00051                                    S1
000241: 23,3471           00006                                    6
000242:
000243: 23,3472           66374                           AXT,2    SSP
000244: 23,3473           00006                                    6
000245: 23,3474           00052                                    S2
000246: 23,3475           00002                                    2
000247:
000248: 23,3476           76720        AXISGEN2           XCHX,1   VLOAD*
000249: 23,3477           00036                                    30D                                   #  X1=-6 X2=+6   X1=-6 X2=+4     X1=-6 X2=+2
000250: 23,3500           00001                                    0,1
000251:


000253: 23,3501           62757                           VXSC*    PDVL*                                 #  J=(UA)(UB1)   J=(UA)(UB2)     J=(UA)(UB3)
000254: 23,3502           75062                                    STARAD     +6,2
000255: 23,3503           00007                                    6,1
000256: 23,3504           77757                           VXSC*
000257: 23,3505           75054                                    STARAD     +12D,2
000258: 23,3506           30031                           STOVL*   24D                                   #  K=(VA)(VB1)   J=(VA)(VB2)     J=(VA)(VB3)
000259: 23,3507           00015                                    12D,1
000260:
000261: 23,3510           53357                           VXSC*    VAD
000262: 23,3511           75046                                    STARAD     +18D,2                     #  L=(WA)(WB1)   J=(WA)(WB2)     J=(WA)(WB3)
000263: 23,3512           76455                           VAD      VSL1
000264: 23,3513           00031                                    24D
000265: 23,3514           53520                           XCHX,1   UNIT
000266: 23,3515           00036                                    30D
000267: 23,3516           06707                           STORE    XDC        +18D,1                     #  XDC = L+J+K   YDC = L+J+K     ZDC = L+J+K
000268:
000269: 23,3517           77700                           TIX,1
000270: 23,3520           47521                                    AXISGEN3
000271:
000272: 23,3521           77704        AXISGEN3           TIX,2
000273: 23,3522           47476                                    AXISGEN2
000274:
000275: 23,3523           77775                           VLOAD
000276: 23,3524           02665                                    XDC
000277: 23,3525           26707                           STOVL    STARAD
000278: 23,3526           02673                                    YDC
000279: 23,3527           26715                           STOVL    STARAD     +6
000280: 23,3530           02701                                    ZDC
000281: 23,3531           02723                           STORE    STARAD     +12D
000282:
000283: 23,3532           77616                           RVQ
000284:


000286: 23,3533           05520 26075  QTSN45             2DEC     .1768
000287:
000288: 23,3535           05252 25253  .166...            2DEC     .1666666667
000289:


000292:

End of include-file INFLIGHT_ALIGNMENT_ROUTINES.agc.  Parent file is MAIN.agc


