
Source Code


000002:                                                                                                  ## Copyright:   Public domain.
000003:                                                                                                  ## Filename:    INTER-BANK_COMMUNICATION.agc
000004:                                                                                                  ## Purpose:     Part of the source code for Luminary 1A build 099.
000005:                                                                                                  ##              It is part of the source code for the Lunar Module's (LM)
000006:                                                                                                  ##              Apollo Guidance Computer (AGC), for Apollo 11.
000007:                                                                                                  ## Assembler:   yaYUL
000008:                                                                                                  ## Contact:     Ron Burkey <info@sandroid.org>.
000009:                                                                                                  ## Website:     www.ibiblio.org/apollo.
000010:                                                                                                  ## Pages:       998-1001
000011:                                                                                                  ## Mod history: 2009-05-24 RSB  Adapted from the corresponding
000012:                                                                                                  ##                              Luminary131 file, using page
000013:                                                                                                  ##                              images from Luminary 1A.
000014:                                                                                                  ##              2011-05-08 JL   Removed workaround.
000015:                                                                                                  ##              2016-12-17 RSB  Proofed text comments with octopus/ProoferComments
000016:                                                                                                  ##                              and corrected the errors found.
000017:                                                                                                  ##              2017-03-03 RSB  Snapshot of Luminary 99 Rev 1.
000018:


000020:                                                                                                  #  THE FOLLOWING ROUTINE CAN BE USED TO CALL A SUBROUTINE IN ANOTHER BANK. IN THE BANKCALL VERSION, THE
000021:                                                                                                  #  CADR OF THE SUBROUTINE IMMEDIATELY FOLLOWS THE TC BANKCALL INSTRUCTION, WITH C(A) AND C(L) PRESERVED.
000022:
000023:    4616                                           BLOCK    02
000024:    4616                                           COUNT*   $$/BANK
000025:    4616           52134        BANKCALL           DXCH     BUF2                                  #  SAVE INCOMING A,L.
000026:    4617           50002                           INDEX    Q                                     #  PICK UP CADR.
000027:    4620           30000                           CA       0
000028:    4621           24002                           INCR     Q                                     #  SO WE RETURN TO THE LOC. AFTER THE CADR.
000029:
000030:                                                                                                  #  SWCALL IS  IDENTICAL TO BANKCALL, EXCEPT THAT THE CADR ARRIVES IN A.
000031:
000032:    4622           54001        SWCALL             TS       L
000033:    4623           22004                           LXCH     FBANK                                 #  SWITCH BANKS, SAVING RETURN.
000034:    4624           75012                           MASK     LOW10                                 #  GET SUB-ADDRESS OF CADR.
000035:    4625           56002                           XCH      Q                                     #  A,L NOW CONTAINS DP RETURN.
000036:    4626           52134                           DXCH     BUF2                                  #  RESTORING INPUTS IF THIS IS A BANKCALL.
000037:    4627           50002                           INDEX    Q
000038:    4630           02000                           TC       10000                                 #  SETTING Q TO SWRETURN.
000039:
000040:    4631           56134        SWRETURN           XCH      BUF2       +1                         #  COMES HERE TO RETURN TO CALLER. C(A,L)
000041:    4632           56004                           XCH      FBANK                                 #  ARE PRESERVED FOR RETURN.
000042:    4633           56134                           XCH      BUF2       +1
000043:    4634           00133                           TC       BUF2
000044:
000045:                                                                                                  #  THE FOLLOWING ROUTINE CAN BE USED AS A UNILATERAL JUMP WITH C(A,L) PRESERVED AND THE CADR IMMEDIATELY
000046:                                                                                                  #  FOLLOWING THE TC POSTJUMP INSTRUCTION.
000047:
000048:    4635           56002        POSTJUMP           XCH      Q                                     #  SAVE INCOMING C(A).
000049:    4636           50000                           INDEX    A                                     #  GET CADR.
000050:    4637           30000                           CA       0
000051:
000052:                                                                                                  #  BANKJUMP IS THE SAME AS POSTJUMP, EXCEPT THAT THE CADR ARRIVES IN A.
000053:
000054:    4640           54004        BANKJUMP           TS       FBANK
000055:    4641           75012                           MASK     LOW10
000056:    4642           56002                           XCH      Q                                     #  RESTORING INPUT C(A) IF THIS WAS A
000057:    4643           50002        Q+10000            INDEX    Q                                     #  POSTJUMP.
000058:    4644           12000        PRIO12             TCF      10000                                 #  PRIO12 = TCF  10000 = 12000
000059:


000061:                                                                                                  #  THE FOLLOWING ROUTINE GETS THE RETURN CADR SAVED BY SWCALL OR BANKCALL AND LEAVES IT IN A.
000062:
000063:    4645           35012        MAKECADR           CAF      LOW10
000064:    4646           70133                           MASK     BUF2
000065:    4647           60134                           AD       BUF2       +1
000066:    4650           00002                           TC       Q
000067:
000068:    4651           54135        SUPDACAL           TS       MPTEMP
000069:    4652           56004                           XCH      FBANK                                 #  SET FBANK FOR DATA.
000070:    4653           00006                           EXTEND
000071:    4654           04007                           ROR      SUPERBNK                              #  SAVE FBANK IN BITS 15-11, AND
000072:    4655           56135                           XCH      MPTEMP                                #  SUPERBANK IN BITS 7-5.
000073:    4656           75012                           MASK     LOW10
000074:    4657           56001                           XCH      L                                     #  SAVE REL. ADR. IN BANK, FETCH SUPERBITS.
000075:    4660           00004                           INHINT                                         #  BECAUSE RUPT DOES NOT SAVE SUPERBANK.
000076:    4661           00006                           EXTEND
000077:    4662           01007                           WRITE    SUPERBNK                              #  SET SUPERBANK FOR DATA.
000078:    4663           50001                           INDEX    L
000079:    4664           32000                           CA       10000                                 #  PINBALL (FIX MEM DISP) PREVENTS DCA HERE
000080:    4665           56135                           XCH      MPTEMP                                #  SAVE 1ST WD, FETCH OLD FBANK AND SBANK.
000081:    4666           00006                           EXTEND
000082:    4667           01007                           WRITE    SUPERBNK                              #  RESTORE SUPERBANK.
000083:    4670           00003                           RELINT
000084:    4671           54004                           TS       FBANK                                 #  RESTORE FBANK.
000085:    4672           30135                           CA       MPTEMP                                #  RECOVER FIRST WORD OF DATA.
000086:    4673           00002                           RETURN                                         #  24 WDS. DATACALL 516 MU, SUPDACAL 432 MU
000087:


000089:                                                                                                  #  THE FOLLOWING ROUTINES ARE IDENTICAL TO BANKCALL AND SWCALL EXCEPT THAT THEY ARE USED IN INTERRUPT.
000090:
000091:    4674           52073        IBNKCALL           DXCH     RUPTREG3                              #  USES RUPTREG3,4 FOR DP RETURN ADDRESS.
000092:    4675           50002                           INDEX    Q
000093:    4676           30000                           CAF      0
000094:    4677           24002                           INCR     Q
000095:
000096:    4700           54001        ISWCALLL           TS       L
000097:    4701           22004                           LXCH     FBANK
000098:    4702           75012                           MASK     LOW10
000099:    4703           56002                           XCH      Q
000100:    4704           52073                           DXCH     RUPTREG3
000101:    4705           50002                           INDEX    Q
000102:    4706           02000                           TC       10000
000103:
000104:    4707           56073        ISWRETRN           XCH      RUPTREG4
000105:    4710           56004                           XCH      FBANK
000106:    4711           56073                           XCH      RUPTREG4
000107:    4712           00072                           TC       RUPTREG3
000108:
000109:                                                                                                  #  2. USPRCADR ACCESSES INTERPRETIVE CODING IN OTHER THAN THE USER'S FBANK.  THE CALLING SEQUENCE IS AS FOLLOWS:
000110:                                                                                                  #        L       TC      USPRCADR
000111:                                                                                                  #        L+1     CADR    INTPRETX        INTPRETX IS THE INTERPRETIVE CODING
000112:                                                                                                  #                                        RETURN IS TO L+2
000113:
000114:    4713           54164        USPRCADR           TS       LOC                                   #  SAVE A
000115:    4714           34744                           CA       BIT8
000116:    4715           54023                           TS       EDOP                                  #  EXIT INSTRUCTION TO EDOP
000117:    4716           30006                           CA       BBANK
000118:    4717           54165                           TS       BANKSET                               #  USER'S BBANK TO BANKSET
000119:    4720           50002                           INDEX    Q
000120:    4721           30000                           CA       0
000121:    4722           54004                           TS       FBANK                                 #  INTERPRETIVE BANK TO FBANK
000122:    4723           75012                           MASK     LOW10                                 #  YIELDS INTERPRETIVE RELATIVE ADDRESS
000123:    4724           56002                           XCH      Q                                     #  INTERPRETIVE ADDRESS TO Q, FETCHING L+1
000124:    4725           56164                           XCH      LOC                                   #  L+1 TO LOC, RETRIEVING ORIGINAL A
000125:    4726           14643                           TCF      Q+10000
000126:


000128:                                                                                                  #  THERE ARE FOUR POSSIBLE SETTINGS FOR CHANNEL 07.  (CHANNEL 07 CONTAINS THE SUPERBANK SETTING.)
000129:
000130:                                                                                                  #                                        PSEUDO-FIXED      OCTAL PSEUDO
000131:                                                                                                  #  SUPERBANK     SETTING S-REG. VALUE    BANK NUMBERS      ADDRESSES
000132:                                                                                                  #  ----------    ------- ------------     ------------      ------------
000133:                                                                                                  #  SUPERBANK 3     OXX    2000 - 3777       30 - 37       70000 - 107777         (WHERE XX CAN BE ANYTHING AND
000134:                                                                                                  #                                                                                WILL USUALLY BE SEEN AS 11)
000135:                                                                                                  #  SUPERBANK 4     100    2000 - 3777       40 - 47      110000 - 127777         (AS FAR AS IT CAN BE SEEN,
000136:                                                                                                  #                                                                                ONLY BANKS 40-43 WILL EVER BE
000137:                                                                                                  #                                                                                AND ARE PRESENTLY AVAILABLE)
000138:                                                                                                  #  SUPERBANK 5     101    2000 - 3777       50 - 57      130000 - 147777         (PRESENTLY NOT AVAILABLE TO
000139:                                                                                                  #                                                                                THE USER)
000140:                                                                                                  #  SUPERBANK 6     110    2000 - 3777       60 - 67      150000 - 167777         (PRESENTLY NOT AVAILABLE TO
000141:                                                                                                  #                                                                                THE USER)
000142:                                                                                                  #  *** THIS ROUTINE MAY BE CALLED BY ANY PROGRAM LOCATED IN BANKS 00 - 27.  I.E., NO PROGRAM LIVING IN ANY
000143:                                                                                                  #  SUPERBANK SHOULD USE SUPERSW. ***
000144:
000145:                                                                                                  #  SUPERSW MAY BE CALLED IN THIS FASHION:
000146:                                                                                                  #        CAF     ABBCON          WHERE      ABBCON   BBCON  SOMETHIN
000147:                                                                                                  #        TCR     SUPERSW         (THE SUPERBNK BITS ARE IN THE BBCON)
000148:                                                                                                  #        ...       ...
000149:                                                                                                  #         .         .
000150:                                                                                                  #         .         .
000151:                                                                                                  #  OR IN THIS FASHION:
000152:                                                                                                  #        CAF     SUPERSET        WHERE SUPERSET IS ONE OF THE FOUR AVAILABLE
000153:                                                                                                  #        TCR     SUPERSW         SUPERBANK BIT CONSTANTS:
000154:                                                                                                  #        ...       ...                                   SUPER011 OCTAL  60
000155:                                                                                                  #         .         .                                    SUPER100 OCTAL 100
000156:                                                                                                  #         .         .                                    SUPER101 OCTAL 120
000157:                                                                                                  #                                                        SUPER110 OCTAL 140
000158:
000159:    4727           00006        SUPERSW            EXTEND
000160:    4730           01007                           WRITE    SUPERBNK                              #  WRITE BITS 7-6-5 OF THE ACCUMULATOR INTO
000161:                                                                                                  #  CHANNEL 07
000162:    4731           00002                           TC       Q                                     #  TC TO INSTRUCTION FOLLOWING
000163:                                                                                                  #        TC SUPERSW
000164:

End of include-file INTER-BANK_COMMUNICATION.agc.  Parent file is MAIN.agc


