
Source Code


000002:                                                                                                  ## Copyright:   Public domain.
000003:                                                                                                  ## Filename:    INTERRUT_LEAD_INS.agc
000004:                                                                                                  ## Purpose:     Part of the source code for Luminary 1A build 099.
000005:                                                                                                  ##              It is part of the source code for the Lunar Module's (LM)
000006:                                                                                                  ##              Apollo Guidance Computer (AGC), for Apollo 11.
000007:                                                                                                  ## Assembler:   yaYUL
000008:                                                                                                  ## Contact:     Onno Hommes <ohommes@cmu.edu>.
000009:                                                                                                  ## Website:     www.ibiblio.org/apollo.
000010:                                                                                                  ## Pages:       0153-0154
000011:                                                                                                  ## Mod history: 2009-05-14 OH   Transcribed from page images.
000012:                                                                                                  ##              2016-12-13 RSB  Proofed text comments with octopus/ProoferComments
000013:                                                                                                  ##                              and corrected the errors found.
000014:                                                                                                  ##              2017-03-03 RSB  Snapshot of Luminary 99 Rev 1.
000015:


000017:    4000                                           SETLOC   4000
000018:
000019:    4000                                           COUNT*   $$/RUPTS                              #  FIX-FIX LEAD INS
000020:    4000           00004                           INHINT                                         #  GO
000021:    4001           34054                           CAF      GOBB
000022:    4002           56006                           XCH      BBANK
000023:    4003           12667                           TCF      GOPROG
000024:
000025:    4004           52011                           DXCH     ARUPT                                 #  T6RUPT
000026:    4005           00006                           EXTEND
000027:    4006           34056                           DCA      T6ADR
000028:    4007           52006                           DTCB
000029:
000030:    4010           52011                           DXCH     ARUPT                                 #  T5RUPT - AUTOPILOT
000031:    4011           00006                           EXTEND
000032:    4012           31275                           DCA      T5ADR
000033:    4013           52006                           DTCB
000034:
000035:    4014           52011                           DXCH     ARUPT                                 #  T3RUPT
000036:    4015           34057                           CAF      T3RPTBB
000037:    4016           56006                           XCH      BBANK
000038:    4017           13407                           TCF      T3RUPT
000039:
000040:    4020           52011                           DXCH     ARUPT                                 #  T4RUPT
000041:    4021           34064                           CAF      T4RPTBB
000042:    4022           56006                           XCH      BBANK
000043:    4023           12000                           TCF      T4RUPT
000044:
000045:    4024           52011                           DXCH     ARUPT                                 #  KEYRUPT1
000046:    4025           34060                           CAF      KEYRPTBB
000047:    4026           56006                           XCH      BBANK
000048:    4027           13274                           TCF      KEYRUPT1
000049:
000050:    4030           52011                           DXCH     ARUPT                                 #  KEYRUPT2
000051:    4031           34061                           CAF      MKRUPTBB
000052:    4032           56006                           XCH      BBANK
000053:    4033           12332                           TCF      MARKRUPT
000054:
000055:    4034           52011                           DXCH     ARUPT                                 #  UPRUPT
000056:    4035           34060                           CAF      UPRPTBB
000057:    4036           56006                           XCH      BBANK
000058:    4037           13317                           TCF      UPRUPT
000059:
000060:    4040           52011                           DXCH     ARUPT                                 #  DOWNRUPT
000061:    4041           34062                           CAF      DWNRPTBB
000062:    4042           56006                           XCH      BBANK
000063:    4043           13506                           TCF      DODOWNTM
000064:
000065:    4044           52011                           DXCH     ARUPT                                 #  RADAR RUPT
000066:    4045           34063                           CAF      RDRPTBB


000068:    4046           56006                           XCH      BBANK
000069:    4047           13150                           TCF      RADAREAD
000070:
000071:    4050           52011                           DXCH     ARUPT                                 #  RUPT10 IS USED ONLY BY LANDING GUIDANCE
000072:    4051           34065                           CA       RUPT10BB
000073:    4052           56006                           XCH      BBANK
000074:    4053           12275                           TCF      PITFALL
000075:
000076:
000077:    4054  E3,1400                                  EBANK=   LST1                                  #  RESTART USES E0, E3
000078:    4054           12103        GOBB               BBCON    GOPROG
000079:
000080:    4055  E6,1464                                  EBANK=   PERROR
000081:    4055           02065 36106  T6ADR              2CADR    DOT6RUPT
000082:
000083:    4057  E3,1400                                  EBANK=   LST1
000084:    4057           02103        T3RPTBB            BBCON    T3RUPT
000085:
000086:    4060     0073                                  EBANK=   KEYTEMP1
000087:    4060           10100        KEYRPTBB           BBCON    KEYRUPT1
000088:
000089:    4061  E7,1404                                  EBANK=   AOTAZ
000090:    4061           16107        MKRUPTBB           BBCON    MARKRUPT
000091:
000092:    4062     4060               UPRPTBB            =        KEYRPTBB
000093:
000094:    4062     0340                                  EBANK=   DNTMBUFF
000095:    4062           12100        DWNRPTBB           BBCON    DODOWNTM
000096:
000097:    4063     0110                                  EBANK=   RADMODES
000098:    4063           52100        RDRPTBB            BBCON    RADAREAD
000099:
000100:    4064  E6,1414                                  EBANK=   M11
000101:    4064           14106        T4RPTBB            BBCON    T4RUPT
000102:
000103:    4065     1265                                  EBANK=   ELVIRA
000104:    4065           22102        RUPT10BB           BBCON    PITFALL
000105:

End of include-file INTERRUPT_LEAD_INS.agc.  Parent file is MAIN.agc


