
Source Code


000002:                                                                                                  ## Copyright:   Public domain.
000003:                                                                                                  ## Filename:    INTERPRETIVE_CONSTANT.agc
000004:                                                                                                  ## Purpose:     Part of the source code for Luminary 1A build 099.
000005:                                                                                                  ##              It is part of the source code for the Lunar Module's (LM)
000006:                                                                                                  ##              Apollo Guidance Computer (AGC), for Apollo 11.
000007:                                                                                                  ## Assembler:   yaYUL
000008:                                                                                                  ## Contact:     Ron Burkey <info@sandroid.org>.
000009:                                                                                                  ## Website:     www.ibiblio.org/apollo.
000010:                                                                                                  ## Pages:       1100-1101
000011:                                                                                                  ## Mod history: 2009-05-25 RSB  Adapted from the corresponding
000012:                                                                                                  ##                              Luminary131 file, using page
000013:                                                                                                  ##                              images from Luminary 1A.
000014:                                                                                                  ##              2016-12-17 RSB  Proofed text comments with octopus/ProoferComments
000015:                                                                                                  ##                              but no errors found.
000016:                                                                                                  ##              2017-03-03 RSB  Snapshot of Luminary 99 Rev 1.
000017:


000019: 23,2000                                           SETLOC   INTPRET1
000020: 23,2000                                           BANK
000021:
000022: 23,2511                                           COUNT*   $$/ICONS
000023: 23,2511           10000 00000  DP1/4TH            2DEC     .25
000024:
000025: 23,2513           00000 00000  UNITZ              2DEC     0          B-28
000026:
000027: 23,2515           00000 00000  UNITY              2DEC     0          B-28
000028:
000029: 23,2517           20000 00000  UNITX              2DEC     .5
000030:
000031: 23,2521           00000 00000  ZEROVECS           2DEC     0          B-28
000032:
000033: 23,2523           00000 00000                     2DEC     0          B-28
000034:
000035: 23,2525           00000 00000                     2DEC     0          B-28
000036:
000037: 23,2527  23,2517               DPHALF             =        UNITX
000038: 23,2527           37777        DPPOSMAX           OCT      37777
000039: 23,2530           37777                           OCT      37777
000040:


000042:                                                                                                  #  INTERPRETIVE CONSTANTS IN THE OTHER HALF-MEMORY
000043:
000044: 12,2000                                           SETLOC   INTPRET2
000045: 12,2000                                           BANK
000046:
000047: 12,2000                                           COUNT*   $$/ICONS
000048: 12,2000           00000 00000  ZUNIT              2DEC     0          B-28
000049:
000050: 12,2002           00000 00000  YUNIT              2DEC     0          B-28
000051:
000052: 12,2004           20000 00000  XUNIT              2DEC     .5
000053:
000054: 12,2006           00000 00000  ZEROVEC            2DEC     0          B-28
000055:
000056: 12,2010           00000 00000                     2DEC     0          B-28
000057:
000058: 12,2012           00000 00000                     2DEC     0          B-28
000059:
000060: 12,2014           77777                           OCT      77777                                 #  -0, -6, -12 MUST REMAIN IN THIS ORDER
000061: 12,2015           77771        DFC-6              DEC      -6         B-14
000062: 12,2016           77763        DFC-12             DEC      -12        B-14
000063: 12,2017           37777 37777  LODPMAX            2OCT     3777737777                            #  THESE TWO CONSTANTS MUST REMAIN
000064:
000065: 12,2021           37777 37777  LODPMAX1           2OCT     3777737777                            #  ADJACENT AND THE SAME FOR INTEGRATION
000066:
000067: 12,2023  12,2006               ZERODP             =        ZEROVEC
000068: 12,2023  12,2004               HALFDP             =        XUNIT
000069:
000070:

End of include-file INTERPRETIVE_CONSTANTS.agc.  Parent file is MAIN.agc


