
Source Code


000002:                                                                                                  ## Copyright:   Public domain.
000003:                                                                                                  ## Filename:    INTERPRETER.agc
000004:                                                                                                  ## Purpose:     Part of the source code for Luminary 1A build 099.
000005:                                                                                                  ##              It is part of the source code for the Lunar Module's (LM)
000006:                                                                                                  ##              Apollo Guidance Computer (AGC), for Apollo 11.
000007:                                                                                                  ## Assembler:   yaYUL
000008:                                                                                                  ## Contact:     Ron Burkey <info@sandroid.org>.
000009:                                                                                                  ## Website:     www.ibiblio.org/apollo.
000010:                                                                                                  ## Pages:       1002-1094
000011:                                                                                                  ## Mod history: 2009-05-25 RSB  Adapted from the corresponding
000012:                                                                                                  ##                              Luminary131 file, using page
000013:                                                                                                  ##                              images from Luminary 1A.
000014:                                                                                                  ##              2011-01-06 JL   Fixed pseudo-label indentation.
000015:                                                                                                  ##              2011-05-08 JL   Removed workarounds.
000016:                                                                                                  ##              2016-12-17 RSB  Proofed text comments with octopus/ProoferComments
000017:                                                                                                  ##                              and corrected the errors found.
000018:                                                                                                  ##              2017-01-28 RSB  Back-ported some comment-text fixes made in Luminary 69.
000019:                                                                                                  ##              2017-02-05 RSB  Back-ported comment corrections
000020:                                                                                                  ##                              identified while proofing Artemis 072.
000021:                                                                                                  ##              2017-03-03 RSB  Snapshot of Luminary 99 Rev 1.
000022:                                                                                                  ##              2017-03-13 RSB  Comment-text fixes noted in proofing Luminary 116.
000023:                                                                                                  ##              2017-03-15 RSB  Comment-text fixes identified in 5-way
000024:                                                                                                  ##                              side-by-side diff of Luminary 69/99/116/131/210.
000025:                                                                                                  ##              2021-05-30 ABS  Added IRT0 location symbol to match Luminary 99 Rev 1.
000026:                                                                                                  ##                              B5TOBB -> B5TOB8
000027:


000029:                                                                                                  #  SECTION 1   DISPATCHER
000030:
000031:                                                                                                  #  ENTRY TO THE INTERPRETER.  INTPRET SETS LOC TO THE FIRST INSTRUCTION, BANKSET TO THE BBANK OF THE
000032:                                                                                                  #  OBJECT INTERPRETIVE PROGRAM, AND INTBIT15 TO THE BIT15 CONTENTS OF FBANK.  INTERPRETIVE PROGRAMS MAY BE IN
000033:                                                                                                  #  VIRTUALLY ALL BANKS PRESENT UNDER ANY SUPER-BANK SETTING, WITH THE RESTRICTION THAT PROGRAMS IN HIGH BANKS
000034:                                                                                                  #  (BIT15 OF FBANK = 1) DO NOT REFER TO LOWBANKS, AND VICE-VERSA.  THE INTERPRETER DOES NOT SWITCH SUPERBANKS.
000035:                                                                                                  #  E-BANK SWITCHING OCCURS WHENEVER GENERAL ERASABLE (100-3777) IS ADDRESSED.
000036:
000037:    6037                                           BLOCK    03
000038:
000039:    6037                                           COUNT*   $$/INTER
000040:    6037           00003        INTPRET            RELINT
000041:    6040           00006                           EXTEND                                         #  SET LOC TO THE WORD FOLLOWING THE TC.
000042:    6041           22164                           QXCH     LOC
000043:
000044:    6042           30006                 +2        CA       BBANK                                 #  INTERPRETIVE BRANCHES FINISH HERE.
000045:    6043           54165                           TS       BANKSET
000046:    6044           74735                           MASK     BIT15                                 #  GET 15TH BIT FOR INDEXABLE ADDRESSES.
000047:    6045           54115                           TS       INTBIT15
000048:
000049:    6046           54023                           TS       EDOP                                  #  MAKE SURE NO INSTRUCTIONS LEFT OVER
000050:
000051:    6047           16070                           TCF      NEWOPS                                #  PICK UP OP CODE PAIR AND BEGIN.
000052:
000053:    6050           22006        INTRSM             LXCH     BBANK                                 #  RESUME SUSPENDED INTERPRETIVE JOB
000054:    6051           16042                           TCF      INTPRET    +3
000055:
000056:                                                                                                  #  DLOAD LOADS MPAC, MPAC +1, LEAVING ZERO IN MPAC +2.
000057:
000058:    6052           00006        DLOAD              EXTEND
000059:    6053           50116                           INDEX    ADDRWD
000060:    6054           30001                           DCA      0                                     #  LOAD DP C(C(ADDRWD)) INTO MPAC,MPAX +1
000061:    6055           52155        SLOAD2             DXCH     MPAC
000062:    6056           34755                           CAF      ZERO                                  #  ZERO MPAC +2
000063:


000065:                                                                                                  #  AT THE END OF MOST INSTRUCTIONS, CONTROL IS GIVEN TO DANZIG TO DISPATCH THE NEXT OPERATION.
000066:
000067:    6057           54156                           TS       MPAC       +2                         #  AND DECLARE DP MODE
000068:
000069:    6060           54163        NEWMODE            TS       MODE                                  #  PROLOGUE FOR MODE-CHANGING INSTRUCTIONS.
000070:
000071:    6061           30165        DANZIG             CA       BANKSET                               #  SET BBANK BEFORE TESTING NEWJOB SO THAT
000072:    6062           54006                           TS       BBANK                                 #  IT MAY BE SAVED DIRECTLY BY CHANJOB.
000073:
000074:    6063           10023        NOIBNKSW           CCS      EDOP                                  #  SEE IF AN ORDER CODE IS LEFT OVER FROM
000075:    6064           16077                           TCF      OPJUMP                                #  THE LAST PAIR RETRIEVED.  IF SO, EXECUTE.
000076:                                                                                                  #  EDOP IS SET TO ZERO ON ITS RE-EDITING.
000077:
000078:    6065           10067                           CCS      NEWJOB                                #  SEE IF A JOB OF HIGHER PRIORITY IS
000079:    6066           15126                           TCF      CHANG2                                #  PRESENT, AND IF SO, CHANGE JOBS.
000080:
000081:    6067           24164                           INCR     LOC                                   #  ADVANCE THE LOCATION COUNTER.
000082:
000083:                                                                                                  #  ITRACE (1) REFERS TO "NEWOPS".
000084:    6070           50164        NEWOPS             INDEX    LOC                                   #  ENTRY TO BEGIN BY PICKING OP CODE PAIR.
000085:    6071           30000                           CA       0                                     #  MAY BE AN OPCODE PAIR OR A STORE CODE.
000086:    6072           10000                           CCS      A                                     #  TEST SIGN AND GET DABS(A).
000087:    6073           16362                           TCF      DOSTORE                               #  PROCESS STORE CODE.
000088:
000089:    6074           00177        LOW7               OCT      177
000090:
000091:    6075           54023                           TS       EDOP                                  #  OP CODE PAIR.  LEAVE THE OTHER IN EDOP
000092:    6076           76074                           MASK     LOW7                                  #  WHERE CCS EDOP WILL HONOR IT NEXT.
000093:
000094:    6077           54020        OPJUMP             TS       CYR                                   #  LOWWD ENTERS HERE IF A RIGHT-HAND OP
000095:    6100           10020                           CCS      CYR                                   #  CODE IS TO BE PROCESSED.  TEST PREFICES.
000096:    6101           16247                           TCF      OPJUMP2                               #  TEST SECOND PREFIX BIT.
000097:
000098:    6102           16743                           TCF      EXIT                                  #  +0 OP CODE IS EXIT.
000099:


000101:                                                                                                  #  PROCESS ADDRESSES WHICH MAY BE DIRECT, INDEXED, OR REFERENCE THE PUSHDOWN LIST.
000102:
000103:    6103           74753        ADDRESS            MASK     BIT1                                  #  SEE IF ADDRESS IS INDEXED.  CYR CONTAINED
000104:    6104           10000                           CCS      A                                     #  400XX, SO BIT 1 IS NOW AS IT WAS IN CYR.
000105:    6105           16146                           TCF      INDEX                                 #  FORM INDEXED ADDRESS.
000106:
000107:    6106           50164        DIRADRES           INDEX    LOC                                   #  LOOK AHEAD TO NEXT WORD TO SEE IF
000108:    6107           40001        OCT40001           CS       1                                     #  ADDRESS IS GIVEN.
000109:    6110           10000                           CCS      A
000110:    6111           16215                           TCF      PUSHUP                                #  IF NOT.
000111:
000112:    6112           77773        NEG4               DEC      -4         B-14
000113:
000114:    6113           24164                           INCR     LOC                                   #  IF SO, TO SHOW WE PICKED UP A WORD.
000115:    6114           54116                           TS       ADDRWD
000116:


000118:                                                                                                  #  FINAL DIGESTION OF DIRECT ADDRESSES OF OP CODES WITH 01 PREFIX IS DONE HERE.   IN EACH CASE, THE
000119:                                                                                                  #  REQUIRED 12-BIT SUB-ADDRESS IS LEFT IN ADDRWD, WITH ANY REQUIRED E OR F BANK SWITCHING DONE.  ADDRESSES LESS
000120:                                                                                                  #  THAN 45D ARE TAKEN TO BE RELATIVE TO THE WORK AREA.  THE OP CODE IS NOW IN BITS 1-5 OF CYR WITH BIT 14 = 1.
000121:
000122:    6115           66251                           AD       -ENDVAC                               #  SEE IF ADDRESS RELATIVE TO WORK AREA.
000123:    6116           10000                           CCS      A
000124:    6117           67743                           AD       -ENDERAS                              #  IF NOT, SEE IF IN GENERAL ERASABLE.
000125:    6120           16125                           TCF      IERASTST
000126:
000127:    6121           30120        NETZERO            CA       FIXLOC                                #  IF SO, LEAVE THE MODIFIED ADDRESS IN
000128:    6122           26116                           ADS      ADDRWD                                #  ADDRWD AND DISPATCH.
000129:    6123           50020        ITR15              INDEX    CYR                                   #  THIS INDEX MAKES THE NEXT INSTRUCTION
000130:    6124           76273                           7        INDJUMP    -1                         #  TCF INDJUMP + OP, EDITING CYR.
000131:
000132:    6125           00006        IERASTST           EXTEND
000133:    6126           66136                           BZMF     GEADDR                                #  GO PROCESS GENERAL-ERASABLE ADDRESS.
000134:
000135:    6127           75012                           MASK     LOW10                                 #  FIXED BANK ADDRESS. RESTORE AND ADD B15.
000136:    6130           65012                           AD       LOW10                                 #  SWITCH BANKS AND LEAVE SUBADDRESS IN
000137:    6131           56116                           XCH      ADDRWD                                #  ADDRWD FOR OPERAND RETRIEVAL. (THIS
000138:    6132           60115                           AD       INTBIT15                              #  METHOD PRECLUDES USE OF THE LAST
000139:    6133           54004                           TS       FBANK                                 #  LOCATION IN EACH FBANK.)
000140:    6134           50020        ITR12              INDEX    CYR
000141:    6135           76273                           7        INDJUMP    -1
000142:
000143:    6136           74357        GEADDR             MASK     LOW8
000144:    6137           65007                           AD       OCT1400
000145:    6140           56116                           XCH      ADDRWD
000146:    6141           54003                           TS       EBANK
000147:    6142           50020        ITR10              INDEX    CYR
000148:    6143           76273                           7        INDJUMP    -1
000149:


000151:                                                                                                  #  THE FOLLOWING ROUTINE PROCESSES INTERPRETIVE INDEXED ADDRESSES.  AN INTERPRETER INDEX REGISTER MAY
000152:                                                                                                  #  CONTAIN THE ADDRESS OF ANY ERASABLE REGISTER (0-42 BEING RELATIVE TO THE VAC AREA) OR ANY INTERPRETIVE PROGRAM
000153:                                                                                                  #  BANK, OR ANY INTEGER IN THAT RANGE.
000154:
000155:    6144           37733        DODLOAD*           CAF      DLOAD*                                #  STODL* COMES HERE TO PROCESS LOAD ADR.
000156:    6145           54020                           TS       CYR                                   #  (STOVL* ENTERS HERE).
000157:
000158:    6146           30120        INDEX              CA       FIXLOC                                #  SET UP INDEX LOCATION.
000159:    6147           54130                           TS       INDEXLOC
000160:    6150           24164                           INCR     LOC                                   #  (ADDRESS ALWAYS GIVEN).
000161:    6151           50164                           INDEX    LOC
000162:    6152           40000                           CS       0
000163:    6153           10000                           CCS      A                                     #  INDEX 2 IF ADDRESS STORED COMPLEMENTED.
000164:    6154           24130                           INCR     INDEXLOC
000165:    6155           16156                           NOOP
000166:
000167:    6156           54116                           TS       ADDRWD                                #  14 BIT ADDRESS TO ADDRWD.
000168:    6157           77742                           MASK     HIGH4                                 #  IF ADDRESS GREATER THAN 2K, ADD INTBIT15
000169:    6160           00006                           EXTEND
000170:    6161           16164                           BZF      INDEX2
000171:    6162           30115                           CA       INTBIT15
000172:    6163           26116                           ADS      ADDRWD
000173:
000174:    6164           50130        INDEX2             INDEX    INDEXLOC
000175:    6165           40046                           CS       X1
000176:    6166           26116                           ADS      ADDRWD                                #  DO AUGMENT, IGNORING AND CORRECTING OVF.
000177:
000178:    6167           77744                           MASK     HIGH9                                 #  SEE IF ADDRESS IS IN WORK AREA.
000179:    6170           00006                           EXTEND
000180:    6171           16204                           BZF      INDWORK
000181:    6172           77742                           MASK     HIGH4                                 #  SEE IF IN FIXED BANK.
000182:    6173           00006                           EXTEND
000183:    6174           16206                           BZF      INDERASE
000184:
000185:    6175           30116                           CA       ADDRWD                                #  IN FIXED - SWITCH BANKS AND CREATE
000186:    6176           54004                           TS       FBANK                                 #  SUB-ADDRESS.
000187:    6177           75012                           MASK     LOW10
000188:    6200           64741                           AD       2K
000189:    6201           54116                           TS       ADDRWD
000190:    6202           50020        ITR11              INDEX    CYR
000191:    6203           36273                           3        INDJUMP    -1
000192:
000193:    6204           30120        INDWORK            CA       FIXLOC                                #  MAKE ADDRWD RELATIVE TO WORK AREA.
000194:    6205           16212                           TCF      ITR13      -1
000195:
000196:    6206           35007        INDERASE           CA       OCT1400
000197:    6207           56116                           XCH      ADDRWD
000198:    6210           54003                           TS       EBANK
000199:    6211           74357                           MASK     LOW8
000200:    6212           26116                 -1        ADS      ADDRWD


000202:    6213           50020        ITR13              INDEX    CYR
000203:    6214           36273                           3        INDJUMP    -1
000204:


000206:                                                                                                  #  PUSH-UP ROUTINES.  WHEN NO OPERAND ADDRESS IS GIVEN, THE APPROPRIATE OPERAND IS TAKEN FROM THE PUSH-DOWN
000207:                                                                                                  #  LIST.  IN MOST CASES THE MODE OF THE RESULT (VECTOR OR SCALAR) OF THE LAST ARITHMETIC OPERATION PERFORMED
000208:                                                                                                  #  IS THE SAME AS THE TYPE OF OPERAND DESIRED (ALL ADD/SUBTRACT ETC.).  EXCEPTIONS TO THIS GENERAL RULE ARE LISTED
000209:                                                                                                  #  BELOW (NOTE THAT IN EVERY CASE THE MODE REGISTER IS LEFT INTACT):
000210:
000211:                                                                                                  #        1.      VXSC AND V/SC WANT THE OPPOSITE TYPE OF OPERAND, E.G., IF THE LAST OPERATION YIELDED A VECTOR
000212:                                                                                                  #                RESULT, VXSC WANTS A SCALAR.
000213:
000214:                                                                                                  #        2.      THE LOAD CODES SHOULD LOAD THE ACCUMULATOR INDEPENDENT OF THE RESULT OF THE LAST OPERATION.  THIS
000215:                                                                                                  #                INCLUDES VLOAD, DLOAD, TLOAD, PDDL, AND PDVL (NO PUSHUP WITH SLOAD).
000216:
000217:                                                                                                  #        3.      SOME ARITHMETIC OPERATIONS REQUIRE A STANDARD TYPE OF OPERAND REGARDLESS OF THE PREVIOUS OPERATION.
000218:                                                                                                  #                THIS INCLUDES SIGN WANTING DP AND TAD REQUIRING TP.
000219:
000220:    6215           34360        PUSHUP             CAF      OCT23                                 #  IF THE LOW 5 BITS OF CYR ARE LESS THAN
000221:    6216           70020                           MASK     CYR                                   #  20, THIS OP REQUIRES SPECIAL ATTENTION.
000222:    6217           66222                           AD       -OCT10                                #  (NO -0).
000223:    6220           10000                           CCS      A
000224:    6221           16233                           TCF      REGUP                                 #  FOR ALL CODES GREATER THAN OCT 7.
000225:
000226:    6222           77767        -OCT10             OCT      -10
000227:
000228:    6223           66112                           AD       NEG4                                  #  WE NOW HAVE 7 - OP CODE (MOD4).  SEE IF
000229:    6224           10000                           CCS      A                                     #  THE OP CODE (MOD4) IS THREE (REVERSE).
000230:    6225           50000                           INDEX    A                                     #  NO - THE MODE IS DEFINITE.  PICK UP THE
000231:    6226           46244                           CS       NO.WDS
000232:    6227           16235                           TCF      REGUP      +2
000233:
000234:    6230           50163                           INDEX    MODE                                  #  FOR VXSC AND V/SC WE WANT THE REQUIRED
000235:    6231           46242                           CS       REVCNT                                #  PUSHLOC DECREMENT WITHOUT CHANGING THE
000236:    6232           16235                           TCF      REGUP      +2                         #  MODE AT THIS TIME.
000237:
000238:    6233           50163        REGUP              INDEX    MODE                                  #  MOST ALL OP CODES PUSHUP HERE.
000239:    6234           46244                           CS       NO.WDS
000240:    6235           26166                 +2        ADS      PUSHLOC
000241:    6236           54116                           TS       ADDRWD
000242:    6237           50020        ITR14              INDEX    CYR
000243:    6240           76273                           7        INDJUMP    -1                         #  (THE INDEX MAKES THIS A TCF.)
000244:
000245:    6241           00002                           OCT      2                                     #  REVERSE PUSHUP DECREMENT. VECTOR TAKES 2
000246:    6242           00006        REVCNT             OCT      6                                     #  WORDS, SCALAR TAKES 6.
000247:    6243           00006                           OCT      6
000248:    6244           00002        NO.WDS             OCT      2                                     #  CONVENTIONAL DECREMENT IS 6 WORDS VECTOR
000249:    6245           00003        OCTAL3             OCT      3                                     #  2 IN DP, AND 3 IN TP.
000250:    6246           00006                           OCT      6
000251:


000253:                                                                                                  #  TEST THE SECOND PREFIX BIT TO SEE IF THIS IS A MISCELLANEOUS OR A UNARY/SHORT SHIFT OPERATION.
000254:
000255:    6247           10020        OPJUMP2            CCS      CYR                                   #  TEST SECOND PREFIX BIT.
000256:    6250           16263                           TCF      OPJUMP3                               #  TEST THIRD BIT TO SEE IF UNARY OR SHIFT.
000257:
000258:    6251           77722        -ENDVAC            DEC      -45        B-14
000259:
000260:                                                                                                  #  THE FOLLOWING ROUTINE PROCESSES ADDRESSES OF SUFFIX CLASS 10.  THEY ARE BASICALLY WORK AREA ADDRESSES
000261:                                                                                                  #  IN THE RANGE 0-52, ERASABLE ECADR CONSTANTS FROM 100-3777, AND FCADRS ABOVE THAT.  ALL 15 BITS ARE AVAILABLE
000262:                                                                                                  #  IN CONTRAST TO SUFFIX 1, IN WHICH ONLY THE LOW ORDER 14 ARE AVAILABLE.
000263:
000264:    6252           24164        15BITADR           INCR     LOC                                   #  (ENTRY HERE FROM STCALL).
000265:    6253           50164                           INDEX    LOC                                   #  PICK UP ADDRESS WORD.
000266:    6254           30000                           CA       0
000267:    6255           54117                           TS       POLISH                                #  WE MAY NEED A SUBADDRESS LATER.
000268:
000269:    6256           35013                           CAF      LOW7+2K                               #  THESE INSTRUCTIONS ARE IN BANK 1.
000270:    6257           54004                           TS       FBANK
000271:    6260           70020                           MASK     CYR
000272:    6261           50000        ITR7               INDEX    A
000273:    6262           16334                           TCF      MISCJUMP
000274:


000276:                                                                                                  #  COMPLETE THE DISPATCHING OF UNARY AND SHORT SHIFT OPERATIONS.
000277:
000278:    6263           54004        OPJUMP3            TS       FBANK                                 #  CALL IN BANK 0 (BITS 11-15 OF A ARE 0.)
000279:                                                                                                  #  ITRACE (6) REFERS TO "OPJUMP3".
000280:    6264           10020                           CCS      CYR                                   #  TEST THIRD PREFIX BIT.
000281:    6265           50000                           INDEX    A                                     #  THE DECREMENTED UNARY CODE IS IN BITS
000282:    6266           12000                           TCF      UNAJUMP                               #  1-4 OF A (ZERO, EXIT, HAS BEEN DETECTED)
000283:
000284:    6267           10163                           CCS      MODE                                  #  ITS A SHORT SHIFT CODE.  SEE IF PRESENT
000285:    6270           12017                           TCF      SHORTT                                #  SCALAR OR VECTOR.
000286:    6271           12017                           TCF      SHORTT
000287:    6272           12121                           TCF      SHORTV                                #  CALLS THE APPROPRIATE ROUTINE.
000288:
000289:    6273     4350               FBANKMSK           EQUALS   BANKMASK
000290:    6273           00122        LVBUF              ADRES    VBUF
000291:


000293:                                                                                                  #  THE FOLLOWING IS THE JUMP TABLE FOR OP CODES WHICH MAY HAVE INDEXABLE ADDRESSES OR MAY PUSH UP.
000294:
000295:    6274           16505        INDJUMP            TCF      VLOAD                                 #  00 - LOAD MPAC WITH A VECTOR.
000296:    6275           17071                           TCF      TAD                                   #  01 - TRIPLE PRECISION ADD TO MPAC.
000297:    6276           17655                           TCF      SIGN                                  #  02 - COMPLEMENT MPAC (V OR SC) IF X NEG.
000298:    6277           17401                           TCF      VXSC                                  #  03 - VECTOR TIMES SCALAR.
000299:    6300           16703                           TCF      CGOTO                                 #  04 - COMPUTED GO TO.
000300:    6301           16470                           TCF      TLOAD                                 #  05 - LOAD MPAC WITH TRIPLE PRECISION.
000301:    6302           16052                           TCF      DLOAD                                 #  06 - LOAD MPAC WITH A DP SCALAR.
000302:    6303           17624                           TCF      V/SC                                  #  07 - VECTOR DIVIDED BY SCALAR.
000303:
000304:    6304           16501                           TCF      SLOAD                                 #  10 - LOAD MPACIN SINGLE PRECISION.
000305:    6305           16620                           TCF      SSP                                   #  11 - SET SINGLE PRECISION INTO X.
000306:    6306           16523                           TCF      PDDL                                  #  12 - PUSH DOWN MPAC AND RE-LOAD IN DP.
000307:    6307           17334                           TCF      MXV                                   #  13 - MATRIX POST-MULTIPLIED BY VECTOR.
000308:    6310           16557                           TCF      PDVL                                  #  14 - PUSH DOWN AND VECTOR LOAD.
000309:    6311           16626                           TCF      CCALL                                 #  15 - COMPUTED CALL.
000310:    6312           17337                           TCF      VXM                                   #  16 - MATRIX PRE-MULTIPLIED BY VECTOR.
000311:    6313           17616                           TCF      TSLC                                  #  17 - NORMALIZE MPAC (SCALAR ONLY).
000312:
000313:    6314           17574                           TCF      DMPR                                  #  20 - DP MULTIPLY AND ROUND.
000314:    6315           17577                           TCF      DDV                                   #  21 - DP DIVIDE BY.
000315:    6316           17603                           TCF      BDDV                                  #  22 - DP DIVIDE INTO.
000316:    6317           17621                           TCF      GSHIFT                                #  23 - GENERAL SHIFT INSTRUCTION.
000317:    6320           16751                           TCF      VAD                                   #  24 - VECTOR ADD.
000318:    6321           16747                           TCF      VSU                                   #  25 - VECTOR SUBTRACT.
000319:    6322           17036                           TCF      BVSU                                  #  26 - VECTOR SUBTRACT FROM.
000320:    6323           17331                           TCF      DOT                                   #  27 - VECTOR DOT PRODUCT.
000321:
000322:    6324           17460                           TCF      VXV                                   #  30 - VECTOR CROSS PRODUCT.
000323:    6325           17425                           TCF      VPROJ                                 #  31 - VECTOR PROJECTION.
000324:    6326           17005                           TCF      DSU                                   #  32 - DP SUBTRACT.
000325:    6327           17062                           TCF      BDSU                                  #  33 - DP SUBTRACT FROM.
000326:    6330           16775                           TCF      DAD                                   #  34 - DP ADD.
000327:    6331           16331                           TCF      +0                                    #  35 - AVAILABLE
000328:    6332           17572                           TCF      DMP1                                  #  36 - DP MULTIPLY.
000329:    6333           17613                           TCF      SETPD                                 #  37 - SET PUSH DOWN POINTER (DIRECT ONLY)
000330:
000331:                                                                                                  #  CODES 10 AND 14 MUST NOT PUSH UP. CODE 04 MAY BE USED FOR VECTOR DECLARE BEFORE PUSHUP IF DESIRED.
000332:


000334:                                                                                                  #  THE FOLLOWING JUMP TABLE APPLIES TO INDEX, BRANCH, AND MISCELLANEOUS INSTRUCTIONS.
000335:
000336:    6334           12344        MISCJUMP           TCF      AXT                                   #  00 - ADDRESS TO INDEX TRUE.
000337:    6335           12351                           TCF      AXC                                   #  01 - ADDRESS TO INDEX COMPLEMENTED.
000338:    6336           12354                           TCF      LXA                                   #  02 - LOAD INDEX FROM ERASABLE.
000339:    6337           12360                           TCF      LXC                                   #  03 - LOAD INDEX FROM COMPLEMENT OF ERAS.
000340:    6340           12364                           TCF      SXA                                   #  04 - STORE INDEX IN ERASABLE.
000341:    6341           12372                           TCF      XCHX                                  #  05 - EXCHANGE INDEX WITH ERASABLE.
000342:    6342           12406                           TCF      INCR                                  #  06 - INCREMENT INDEX REGISTER.
000343:    6343           12415                           TCF      TIX                                   #  07 - TRANSFER ON INDEX.
000344:
000345:    6344           12400                           TCF      XAD                                   #  10 - INDEX REGISTER ADD FROM ERASABLE.
000346:    6345           12411                           TCF      XSU                                   #  11 - INDEX SUBTRACT FROM ERASABLE.
000347:    6346           12467                           TCF      BZE/GOTO                              #  12 - BRANCH ZERO AND GOTO.
000348:    6347           12474                           TCF      BPL/BMN                               #  13 - BRANCH PLUS AND BRANCH MINUS.
000349:    6350           12447                           TCF      RTB/BHIZ                              #  14 - RETURN TO BASIC AND BRANCH HI ZERO.
000350:    6351           12507                           TCF      CALL/ITA                              #  15 - CALL AND STORE QPRET.
000351:    6352           12516                           TCF      SW/                                   #  16 - SWITCH INSTRUCTIONS AND AVAILABLE.
000352:    6353           12457                           TCF      BOV(B)                                #  17 - BRANCH ON OVERFLOW TO BASIC OR INT.
000353:


000355:                                                                                                  #  THE FOLLOWING JUMP TABLE APPIES TO UNARY INSTRUCTIONS.
000356:
000357:    6354                                           COUNT*   $$/INTER
000358: 00,2000                                           BANK     0                                     #  00 - EXIT - DETECTED EARLIER.
000359: 00,2000           13207        UNAJUMP            TCF      SQRT                                  #  01 - SQUARE ROOT.
000360: 00,2001           13530                           TCF      SINE                                  #  02 - SIN.
000361: 00,2002           13517                           TCF      COSINE                                #  03 - COS.
000362: 00,2003           13610                           TCF      ARCSIN                                #  04 - ARC SIN.
000363: 00,2004           13612                           TCF      ARCCOS                                #  05 - ARC COS.
000364: 00,2005           13174                           TCF      DSQ                                   #  06 - DP SQUARE.
000365: 00,2006           12116                           TCF      ROUND                                 #  07 - ROUND TO DP.
000366:
000367: 00,2007           17670                           TCF      COMP                                  #  10 - COMPLEMENT VECTOR OR SCALAR.
000368: 00,2010           13232                           TCF      VDEF                                  #  11 - VECTOR DEFINE.
000369: 00,2011           13023                           TCF      UNIT                                  #  12 - UNIT VECTOR.
000370: 00,2012           13176                           TCF      ABVALABS                              #  13 - LENGTH OF VECTOR OR MAG OF SCALAR.
000371: 00,2013           13245                           TCF      VSQ                                   #  14 - SQUARE OF LENGTH OF VECTOR.
000372: 00,2014           16354                           TCF      STADR                                 #  15 - PUSH UP ON STORE CODE.
000373: 00,2015           13274                           TCF      RVQ                                   #  16 - RETURN VIA QPRET.
000374: 00,2016           13247                           TCF      PUSH                                  #  17 - PUSH MPAC DOWN.
000375:


000377:                                                                                                  #  SECTION 2     LOAD AND STORE PACKAGE.
000378:
000379:                                                                                                  #  A SET OF EIGHT STORE CODES IS PROVIDED AS THE PRIMARY METHOD OF STORING THE MULTI-PURPOSE
000380:                                                                                                  #  ACCUMULATOR (MPAC).  IF IN THE DANZIG SECTION LOC REFERS TO AN ALGEBRAICALLY POSITIVE WORD, IT IS TAKEN AS A
000381:                                                                                                  #  STORE CODE WITH A CORRESPONDING ERASABLE ADDRESS.  MOST OF THESE CODES ARE TWO ADDRESS, SPECIFYING THAT THE WORD
000382:                                                                                                  #  FOLLOWING THE STORE CODE IS TO BE USED AS AN ADDRESS FROM WHICH TO RE-LOAD MPAC.  FOUR OPTIONS ARE AVAILABLE:
000383:
000384:                                                                                                  #        1. STORE        STORE MPAC.  THE E ADDRESS MAY BE INDEXED.
000385:                                                                                                  #        2. STODL        STORE MPAC AND RE-LOAD IT IN DP WITH THE NEXT ADDRESS (THE LOAD MAY BE INDEXED).
000386:                                                                                                  #        3. STOVL        STORE MPAC AND RE-LOAD A VECTOR (AS ABOVE).
000387:                                                                                                  #        4. STCALL       STORE AND DO A CALL (BOTH ADDRESSES MUST BE DIRECT HERE).
000388:
000389:                                                                                                  #  STODL AND STOVL WILL TAKE FROM THE PUSH-DOWN LIST IF NO LOAD ADDRESS IS GIVEN.
000390:
000391:    6354                                           BLOCK    3
000392:
000393:    6354                                           COUNT*   $$/INTER
000394:    6354           30165        STADR              CA       BANKSET                               #  THE STADR CODE (PUSHUP UP ON STORE
000395:    6355           54004                           TS       FBANK                                 #  ADDRESS) ENTERS HERE.
000396:    6356           24164                           INCR     LOC
000397:    6357           50164        ITR1               INDEX    LOC                                   #  THE STORECODE WAS STORED COMPLEMENTED TO
000398:    6360           40000                           CS       0                                     #  MAKE IT LOOK LIKE AN OPCODE PAIR.
000399:    6361           67747                           AD       NEGONE                                #  (YUL CANT REMOVE 1 BECAUSE OF EARLY CCS)
000400:
000401:    6362           54116        DOSTORE            TS       ADDRWD
000402:    6363           74356                           MASK     LOW11                                 #  ENTRY FROM DISPATCHER.  SAVE THE ERASABLE
000403:    6364           56116                           XCH      ADDRWD                                #  ADDRESS AND JUMP ON THE STORE CODE NO.
000404:    6365           77722                           MASK     B12T14
000405:    6366           00006                           EXTEND
000406:    6367           74747                           MP       BIT5                                  #  EACH TRANSFER VECTOR ENTRY IS TWO WORDS.
000407:    6370           50000        ITR0               INDEX    A
000408:    6371           16372                           TCF      STORJUMP
000409:


000411:                                                                                                  #  STORE CODE JUMP TABLE.  CALLS THE APPROPRIATE STORING ROUTINE AND EXITS TO DANZIG OR TO ADDRESS WITH
000412:                                                                                                  #  A SUPPLIED OPERATION CODE.
000413:
000414:                                                                                                  #  STORE STORE,1 AND STORE,2 RETURN TO DANZIG, THUS RESETTING THE EBANK TO ITS STATE AT INTPRET.
000415:
000416:    6372           06422        STORJUMP           TC       STORE                                 #  STORE.
000417:    6373           16061                           TCF      DANZIG                                #  PICK UP NEW OP CODE(S).
000418:    6374           06414                           TC       STORE,1
000419:    6375           16061                           TCF      DANZIG
000420:    6376           06417                           TC       STORE,2
000421:    6377           16061                           TCF      DANZIG
000422:
000423:    6400           06422                           TC       STORE                                 #  STODL.
000424:    6401           16460                           TCF      DODLOAD
000425:
000426:    6402           06422                           TC       STORE                                 #  STODL WITH INDEXED LOAD ADDRESS.
000427:    6403           16144                           TCF      DODLOAD*
000428:
000429:    6404           06422                           TC       STORE                                 #  STOVL.
000430:    6405           16463                           TCF      DOVLOAD
000431:
000432:    6406           06422                           TC       STORE                                 #  STOVL WITH INDEXED LOAD ADDRESS.
000433:    6407           16466                           TCF      DOVLOAD*
000434:    6410           06422                           TC       STORE                                 #  STOTC.
000435:    6411           34766                           CAF      CALLCODE
000436:    6412           54020                           TS       CYR
000437:    6413           16252                           TCF      15BITADR                              #  GET A 15 BIT ADDRESS.
000438:


000440:                                                                                                  #  STORE CODE ADDRESS PROCESSOR.
000441:
000442:    6414           50120        STORE,1            INDEX    FIXLOC
000443:    6415           40046                           CS       X1
000444:    6416           16421                           TCF      PRESTORE
000445:
000446:    6417           50120        STORE,2            INDEX    FIXLOC
000447:    6420           40047                           CS       X2
000448:    6421           26116        PRESTORE           ADS      ADDRWD                                #  RESULTANT ADDRESS IS IN ERASABLE.
000449:
000450:    6422           40116        STORE              CS       ADDRWD
000451:    6423           64772                           AD       DEC45
000452:    6424           10000                           CCS      A                                     #  DOES THE ADDRESS POINT TO THE WORK AREA?
000453:    6425           30120                           CA       FIXLOC                                #  YES.
000454:    6426           16433                           TCF      AHEAD5
000455:    6427           35007                           CA       OCT1400                               #  NO.  SET EBANK & MAKE UP SUBADDRESS.
000456:    6430           56116                           XCH      ADDRWD
000457:    6431           54003                           TS       EBANK
000458:    6432           74357                           MASK     LOW8
000459:    6433           26116        AHEAD5             ADS      ADDRWD
000460:


000462:                                                                                                  #  STORING ROUTINES.  STORE DP, TP, OR VECTOR AS INDICATED BY MODE.
000463:
000464:    6434           00006        STARTSTO           EXTEND                                         #  MPAC,+1 MUST BE STORED IN ANY EVENT.
000465:                                                                                                  #  ITRACE (5) REFERS TO "STARTSTO".
000466:    6435           30155                           DCA      MPAC
000467:    6436           50116                           INDEX    ADDRWD
000468:    6437           52001                           DXCH     0
000469:
000470:    6440           10163                           CCS      MODE
000471:    6441           16454                           TCF      TSTORE
000472:    6442           00002                           TC       Q
000473:
000474:    6443           00006        VSTORE             EXTEND
000475:    6444           30160                           DCA      MPAC       +3
000476:    6445           50116                           INDEX    ADDRWD
000477:    6446           52003                           DXCH     2
000478:
000479:    6447           00006                           EXTEND
000480:    6450           30162                           DCA      MPAC       +5
000481:    6451           50116                           INDEX    ADDRWD
000482:    6452           52005                           DXCH     4
000483:    6453           00002                           TC       Q
000484:
000485:    6454           30156        TSTORE             CA       MPAC       +2
000486:    6455           50116                           INDEX    ADDRWD
000487:    6456           54002                           TS       2
000488:    6457           00002                           TC       Q
000489:


000491:                                                                                                  #  ROUTINES TO BEGIN PROCESSING OF THE SECOND ADDRESS ASSOCIATED WITH ALL STORE-TYPE CODES EXCEPT STORE
000492:                                                                                                  #  ITSELF.
000493:
000494:    6460           37732        DODLOAD            CAF      DLOADCOD
000495:    6461           54020                           TS       CYR
000496:    6462           16106                           TCF      DIRADRES                              #  GO GET A DIRECT ADDRESS.
000497:
000498:    6463           34735        DOVLOAD            CAF      VLOADCOD
000499:    6464           54020                           TS       CYR
000500:    6465           16106                           TCF      DIRADRES
000501:
000502:    6466           36107        DOVLOAD*           CAF      VLOAD*
000503:    6467           16145                           TCF      DODLOAD*   +1                         #  PROLOGUE TO INDEX ROUTINE.
000504:


000506:                                                                                                  #  THE FOLLOWING LOAD INSTRUCTIONS ARE PROVIDED FOR LOADING THE MULTI-PURPOSE ACCUMULATOR MPAC.
000507:
000508:    6470           50116        TLOAD              INDEX    ADDRWD
000509:    6471           30002                           CA       2                                     #  LOAD A TRIPLE PRECISION ARGUMENT INTO
000510:    6472           54156                           TS       MPAC       +2                         #  THE FIRST THREE MPAC REGISTERS, WITH THE
000511:    6473           00006                           EXTEND                                         #  CONTENTS OF THE OTHER FOUR IRRELEVANT.
000512:    6474           50116                           INDEX    ADDRWD
000513:    6475           30001                           DCA      0
000514:    6476           52155                           DXCH     MPAC
000515:    6477           34753        TMODE              CAF      ONE
000516:    6500           16060                           TCF      NEWMODE                               #  DECLARE TRIPLE PRECISION MODE.
000517:
000518:    6501           22007        SLOAD              ZL                                             #  LOAD A SINGLE PRECISION NUMBER INTO
000519:    6502           50116                           INDEX    ADDRWD                                #  MPAC, SETTING MPAC+1,2 TO ZERO.  THE
000520:    6503           30000                           CA       0                                     #  CONTENTS OF THE REMAINING MPAC REGISTERS
000521:    6504           16055                           TCF      SLOAD2                                #  ARE IRRELEVANT.
000522:
000523:    6505           00006        VLOAD              EXTEND                                         #  LOAD A DOUBLE PRECISION VECTOR INTO
000524:    6506           50116                           INDEX    ADDRWD                                #  MPAC,+1, MPAC+3,4, AND MPAC+5,6.  THE
000525:    6507           30001                           DCA      0                                     #  CONTENTS OF MPAC +2 ARE IRRELEVANT.
000526:    6510           52155                           DXCH     MPAC
000527:
000528:    6511           00006        ENDVLOAD           EXTEND                                         #  PDVL COMES HERE TO FINISH UP FOR DP, TP.
000529:    6512           50116                           INDEX    ADDRWD
000530:    6513           30003                           DCA      2
000531:    6514           52160                           DXCH     MPAC       +3
000532:
000533:    6515           00006                 +4        EXTEND                                         #  TPDVL FINISHES HERE.
000534:    6516           50116                           INDEX    ADDRWD
000535:    6517           30005                           DCA      4
000536:    6520           52162                           DXCH     MPAC       +5
000537:
000538:    6521           44753        VMODE              CS       ONE                                   #  DECLARE VECTOR MODE.
000539:    6522           16060                           TCF      NEWMODE
000540:


000542:                                                                                                  #  THE FOLLOWING INSTRUCTIONS ARE PROVIDED FOR STORING OPERANDS IN THE PUSHDOWN LIST:
000543:                                                                                                  #        1.      PUSH            PUSHDOWN AND NO LOAD.
000544:                                                                                                  #        2.      PDDL            PUSHDOWN AND DOUBLE PRECISION LOAD.
000545:                                                                                                  #        3.      PDVL            PUSHDOWN AND VECTOR LOAD.
000546:
000547:    6523           00006        PDDL               EXTEND
000548:    6524           50116                           INDEX    ADDRWD                                #  LOAD MPAC,+1, PUSHING THE FORMER
000549:    6525           30001                           DCA      0                                     #  CONTENTS DOWN.
000550:    6526           52155                           DXCH     MPAC
000551:    6527           50166                           INDEX    PUSHLOC
000552:    6530           52001                           DXCH     0
000553:
000554:    6531           50163                           INDEX    MODE                                  #  ADVANCE THE PUSHDOWN POINTER APPRO-
000555:    6532           36244                           CAF      NO.WDS                                #  PRIATELY.
000556:    6533           26166                           ADS      PUSHLOC
000557:
000558:    6534           10163                           CCS      MODE
000559:    6535           16552                           TCF      ENDTPUSH
000560:    6536           16550                           TCF      ENDDPUSH
000561:
000562:    6537           54163                           TS       MODE                                  #  NOW DP.
000563:    6540           54156        ENDVPUSH           TS       MPAC       +2
000564:    6541           52160                           DXCH     MPAC       +3                         #  PUSH DOWN THE REST OF THE VECTOR HERE.
000565:    6542           50166                           INDEX    PUSHLOC
000566:    6543           51775                           DXCH     0          -4
000567:
000568:    6544           52162                           DXCH     MPAC       +5
000569:    6545           50166                           INDEX    PUSHLOC
000570:    6546           51777                           DXCH     0          -2
000571:
000572:    6547           16061                           TCF      DANZIG
000573:
000574:    6550           54156        ENDDPUSH           TS       MPAC       +2                         #  SET MPAC +2 TO ZERO AND EXIT ON DP.
000575:    6551           16061                           TCF      DANZIG
000576:
000577:    6552           54163        ENDTPUSH           TS       MODE
000578:    6553           56156                           XCH      MPAC       +2                         #  ON TRIPLE, SET MPAC +2 TO ZERO, PUSHING
000579:    6554           50166                 +2        INDEX    PUSHLOC                               #  DOWN THE OLD CONTENTS
000580:    6555           53777                           TS       0          -1
000581:    6556           16061                           TCF      DANZIG
000582:


000584:                                                                                                  #  PDVL - PUSHDOWN AND VECTOR LOAD.
000585:
000586:    6557           00006        PDVL               EXTEND                                         #  RELOAD MPAC AND PUSH DOWN ITS CONTENTS.
000587:    6560           50116                           INDEX    ADDRWD
000588:    6561           30001                           DCA      0
000589:    6562           52155                           DXCH     MPAC
000590:    6563           50166                           INDEX    PUSHLOC
000591:    6564           52001                           DXCH     0
000592:
000593:    6565           50163                           INDEX    MODE                                  #  ADVANCE THE PUSHDOWN POINTER.
000594:    6566           36244                           CAF      NO.WDS
000595:    6567           26166                           ADS      PUSHLOC
000596:
000597:    6570           10163                           CCS      MODE                                  #  TEST PAST MODE.
000598:    6571           16610                           TCF      TPDVL
000599:    6572           16511                           TCF      ENDVLOAD                              #  JUST LOAD LAST FOUR REGISTERS ON DP.
000600:
000601:    6573           00006        VPDVL              EXTEND                                         #  PUSHDOWN AND RE-LOAD LAST TWO COMPONENTS
000602:    6574           50116                           INDEX    ADDRWD
000603:    6575           30003                           DCA      2
000604:    6576           52160                           DXCH     MPAC       +3
000605:    6577           50166                           INDEX    PUSHLOC
000606:    6600           51775                           DXCH     0          -4
000607:
000608:    6601           00006                           EXTEND
000609:    6602           50116                           INDEX    ADDRWD
000610:    6603           30005                           DCA      4
000611:    6604           52162                           DXCH     MPAC       +5
000612:    6605           50166                           INDEX    PUSHLOC
000613:    6606           51777                           DXCH     0          -2
000614:
000615:    6607           16061                           TCF      DANZIG
000616:
000617:    6610           00006        TPDVL              EXTEND                                         #  ON TP, WE MUST LOAD THE Y COMPONENT
000618:    6611           50116                           INDEX    ADDRWD                                #  BEFORE STORING MPAC +2 IN CASE THIS IS A
000619:    6612           30003                           DCA      2                                     #  PUSHUP.
000620:    6613           52160                           DXCH     MPAC       +3
000621:
000622:    6614           30156                           CA       MPAC       +2
000623:    6615           50166                           INDEX    PUSHLOC                               #  IN DP.
000624:    6616           53777                           TS       0          -1
000625:    6617           16515                           TCF      ENDVLOAD   +4
000626:
000627:                                                                                                  #  SSP (STORE SINGLE PRECISION) IS EXECUTED HERE.
000628:
000629:    6620           24164        SSP                INCR     LOC                                   #  PICK UP THE WORD FOLLOWING THE GIVEN
000630:    6621           50164                           INDEX    LOC                                   #  ADDRESS AND STORE IT AT X.
000631:    6622           30000                           CA       0
000632:    6623           50116        STORE1             INDEX    ADDRWD                                #  SOME INDEX AND MISCELLANEOUS OPS END
000633:    6624           54000                           TS       0                                     #  HERE.


000635:    6625           16061                           TCF      DANZIG
000636:


000638:                                                                                                  #  SEQUENCE CHANGING AND SUBROUTINE CALLING OPTIONS.
000639:
000640:                                                                                                  #  THE FOLLOWING OPERATIONS ARE AVAILABLE FOR SEQUENCING CHANGING, BRANCHING, AND CALLING SUBROUTINES:
000641:                                                                                                  #        1.      GOTO            GO TO.
000642:                                                                                                  #        2.      CALL            CALL SUBROUTINE SETTING QPRET.
000643:                                                                                                  #        3.      CGOTO           COMPUTED GO TO.
000644:                                                                                                  #        4.      CCALL           COMPUTED CALL.
000645:                                                                                                  #        7.      BPL             BRANCH IF MPAC POSITIVE OR ZERO.
000646:                                                                                                  #        8.      BZE             BRANCH IF MPAC ZERO.
000647:                                                                                                  #        9.      BMN             BRANCH IF MPAC NEGATIVE NON-ZERO.
000648:
000649:    6626           24164        CCALL              INCR     LOC                                   #  MAINTAIN LOC FOR QPRET COMPUTATION.
000650:    6627           50164                           INDEX    LOC
000651:    6630           30000                           CAF      0                                     #  GET BASE ADDRESS OF CADR LIST.
000652:    6631           50116                           INDEX    ADDRWD
000653:    6632           60000                           AD       0                                     #  ADD INCREMENT.
000654:    6633           54004                           TS       FBANK                                 #  SELECT DESIRED CADR.
000655:    6634           75012                           MASK     LOW10
000656:    6635           50000                           INDEX    A
000657:    6636           32000                           CAF      10000
000658:    6637           54117                           TS       POLISH
000659:
000660:    6640           30165        CALL               CA       BANKSET                               #  FOR ANY OF THE CALL OPTIONS, MAKE UP THE
000661:    6641           74350                           MASK     BANKMASK                              #  ADDRESS OF THE NEXT OP-CODE PAIR/STORE
000662:    6642           64350                           AD       BANKMASK                              #  CODE AND LEAVE IT IN QPRET.  NOTE THAT
000663:    6643           60164                           AD       LOC                                   #  BANKMASK = -(2000 - 1).
000664:    6644           50120                           INDEX    FIXLOC
000665:    6645           54052                           TS       QPRET
000666:
000667:    6646           30117        GOTO               CA       POLISH                                #  BASIC BRANCHING SEQUENCE.
000668:    6647           77742                 +1        MASK     HIGH4
000669:    6650           00006                           EXTEND
000670:    6651           16662                           BZF      GOTOERS                               #  SEE IF ADDRESS POINTS TO FIXED OR ERAS.
000671:    6652           30165                 +4        CA       BANKSET                               #  SET EBANK PART OF BBANK.  NEXT, SET UP
000672:    6653           54006                           TS       BBANK                                 #  FBANK.  THE COMBINATION IS PICKED UP &
000673:    6654           30117                           CA       POLISH                                #  PUT INTO BANKSET AT INTPRET +2.
000674:    6655           54004                           TS       FBANK
000675:    6656           75012                           MASK     LOW10
000676:    6657           64741                           AD       2K
000677:    6660           54164                           TS       LOC
000678:    6661           16042                           TCF      INTPRET    +3
000679:
000680:    6662  E3,1400                                  EBANK=   1400                                  #  SO YUL DOESN'T CUSS THE "CA 1400" BELOW.
000681:
000682:    6662           30117        GOTOERS            CA       POLISH                                #  THE GIVEN ADDRESS IS IN ERASABLE - SEE
000683:    6663           66251                           AD       -ENDVAC                               #  IF RELATIVE TO THE WORK AREA.
000684:    6664           10000                           CCS      A
000685:    6665           30117                           CA       POLISH                                #  GENERAL ERASABLE.
000686:    6666           16675                           TCF      GOTOGE
000687:


000689:    6667           30120                           CA       FIXLOC                                #  WORK AREA.
000690:    6670           60117                           AD       POLISH
000691:    6671           50000                           INDEX    A                                     #  USE THE GIVEN ADDRESS AS THE ADDRESS OF
000692:    6672           30000                           CA       0                                     #  THE BRANCH ADDRESS.
000693:    6673           54117                           TS       POLISH
000694:    6674           16647                           TCF      GOTO       +1                         #  ALLOWS ARBITRARY INDIRECTNESS LEVELS.
000695:
000696:    6675           54003        GOTOGE             TS       EBANK
000697:    6676           74357                           MASK     LOW8
000698:    6677           50000                           INDEX    A                                     #  USE THE GIVEN ADDRESS AS THE ADDRESS OF
000699:    6700           31400                           CA       1400                                  #  THE BRANCH ADDRESS.
000700:    6701           54117                           TS       POLISH
000701:    6702           16647                           TCF      GOTO       +1
000702:
000703:    6703           50164        CGOTO              INDEX    LOC                                   #  COMPUTED GO TO.  PICK UP ADDRESS OF CADR
000704:    6704           30001                           CA       1                                     #  LIST.
000705:    6705           50116                           INDEX    ADDRWD                                #  ADD MODIFIER.
000706:    6706           60000                           AD       0
000707:    6707           54004                           TS       FBANK                                 #  SELECT GOTO ADDRESS.
000708:    6710           75012                           MASK     LOW10
000709:    6711           50000                           INDEX    A
000710:    6712           32000                           CA       10000
000711:    6713           54117                           TS       POLISH
000712:    6714           16647                           TCF      GOTO       +1                         #  WITH ADDRESS IN A.
000713:
000714:    6715           30165        SWBRANCH           CA       BANKSET                               #  SWITCH INSTRUCTIONS WHICH ELECT TO
000715:    6716           54004                           TS       FBANK                                 #  BRANCH COME HERE TO DO SO.
000716:    6717           50164                           INDEX    LOC
000717:    6720           30001                           CA       1
000718:    6721           54117                           TS       POLISH
000719:    6722           16647                           TCF      GOTO       +1
000720:


000722:                                                                                                  #  TRIPLE PRECISION BRANCHING ROUTINE.  IF CALLING TC IS AT L, RETURN IS AS FOLLOWS:
000723:                                                                                                  #        L+1     IF MPAC IS GREATER THAN ZERO.
000724:                                                                                                  #        L+2     IF MPAC IS EQUAL TO +0 OR -0.
000725:                                                                                                  #        L+3     IF MPAC IS LESS THAN ZERO.
000726:
000727:    6723           10154        BRANCH             CCS      MPAC
000728:    6724           00002                           TC       Q
000729:    6725           16727                           TCF      +2                                    #  ON ZERO.
000730:    6726           16741                           TCF      NEG
000731:
000732:    6727           10155                           CCS      MPAC       +1
000733:    6730           00002                           TC       Q
000734:    6731           16733                           TCF      +2
000735:    6732           16741                           TCF      NEG
000736:
000737:    6733           10156                           CCS      MPAC       +2
000738:    6734           00002                           TC       Q
000739:    6735           16737                           TCF      +2
000740:    6736           16741                           TCF      NEG
000741:
000742:    6737           50002        Q+1                INDEX    Q
000743:    6740           00001                           TC       1
000744:
000745:    6741           50002        NEG                INDEX    Q                                     #  IF FIRST NON-ZERO REGISTER WAS NEGATIVE.
000746:    6742           00002                           TC       2
000747:
000748:    6743     6741               Q+2                =        NEG
000749:
000750:                                                                                                  #  ITRACE (3) REFERS TO "EXIT".
000751:
000752:    6743           30165        EXIT               CA       BANKSET                               #  RESTORE USER'S BANK SETTING, AND LEAVE
000753:    6744           54006                           TS       BBANK                                 #  INTERPRETIVE MODE.
000754:    6745           50164                           INDEX    LOC
000755:    6746           00001                           TC       1
000756:


000758:                                                                                                  #  SECTION 3 - ADD/SUBTRACT PACKAGE.
000759:
000760:                                                                                                  #           THE FOLLOWING OPERATIONS ARE PROVIDED FOR ADDING TO AND SUBTRACTING FROM THE MULTI-PURPOSE ACCUMULATOR
000761:                                                                                                  #  MPAC:
000762:
000763:                                                                                                  #        1.      DAD     DOUBLE PRECISION ADD.
000764:                                                                                                  #        2.      DSU     DOUBLE PRECISION SUBTRACT.
000765:                                                                                                  #        3.      BDSU    DOUBLE PRECISION SUBTRACT FROM.
000766:                                                                                                  #        4.      TAD     TRIPLE PRECISION ADD.
000767:                                                                                                  #        5.      VAD     VECTOR ADD.
000768:                                                                                                  #        6.      VSU     VECTOR SUBTRACT.
000769:                                                                                                  #        7.      BVSU    VECTOR SUBTRACT FROM.
000770:                                                                                                  #  THE INTERPRETIVE OVERFLOW INDICATOR OVFIND IS SET NON-ZERO IF OVERFLOW OCCURS IN ANY OF THE ABOVE.
000771:
000772:    6747           34735        VSU                CAF      BIT15                                 #  CHANGES 0 TO DCS.
000773:    6750           16752                           TCF      +2
000774:
000775:    6751           34355        VAD                CAF      PRIO30                                #  CHANGES 0 TO DCA.
000776:    6752           26116                           ADS      ADDRWD
000777:    6753           00006                           EXTEND
000778:    6754           50116                           INDEX    ADDRWD
000779:    6755           00003                           READ     HISCALAR                              #  DCA 2 OR DCS 2
000780:    6756           20160                           DAS      MPAC       +3
000781:    6757           00006                           EXTEND                                         #  CHECK OVERFLOW.
000782:    6760           16762                           BZF      +2
000783:    6761           07014                           TC       OVERFLWY
000784:
000785:    6762           00006                           EXTEND
000786:    6763           50116                           INDEX    ADDRWD
000787:    6764           00005                           READ     CHAN5                                 #  DCA 4 OR DCS 4
000788:    6765           20162                           DAS      MPAC       +5
000789:    6766           00006                           EXTEND
000790:    6767           16771                           BZF      +2
000791:    6770           07011                           TC       OVERFLWZ
000792:
000793:    6771           00006                           EXTEND
000794:    6772           50116                           INDEX    ADDRWD
000795:    6773           00001                           READ     LCHAN                                 #  DCA 0 OR DCS 0
000796:    6774           17000                           TCF      ENDVXV
000797:
000798:    6775           00006        DAD                EXTEND
000799:    6776           50116                           INDEX    ADDRWD
000800:    6777           30001                           DCA      0
000801:    7000           20155        ENDVXV             DAS      MPAC                                  #  VXV FINISHES HERE.
000802:    7001           00006                           EXTEND
000803:    7002           16061                           BZF      DANZIG
000804:


000806:    7003           07017        SETOVF             TC       OVERFLOW
000807:    7004           16061                           TCF      DANZIG
000808:


000810:    7005           00006        DSU                EXTEND
000811:    7006           50116                           INDEX    ADDRWD
000812:    7007           40001                           DCS      0
000813:    7010           17000                           TCF      ENDVXV
000814:
000815:    7011           54001        OVERFLWZ           TS       L                                     #  ENTRY FOR THIRD COMPONENT.
000816:    7012           34756                           CAF      FIVE
000817:    7013           17016                           TCF      +3
000818:
000819:    7014           54001        OVERFLWY           TS       L                                     #  ENTRY FOR SECOND COMPONENT.
000820:    7015           36245                           CAF      THREE
000821:    7016           56001                           XCH      L
000822:
000823:    7017           50000        OVERFLOW           INDEX    A                                     #  ENTRY FOR 1ST COMP OR DP (L=0).
000824:    7020           44734                           CS       LIMITS                                #  PICK UP POSMAX OR NEGMAX.
000825:    7021           54130                           TS       BUF
000826:    7022           00006                           EXTEND
000827:    7023           24000                           AUG      A                                     #  FORCE OVERFLOW.
000828:    7024           50001                           INDEX    L
000829:    7025           26155                           ADS      MPAC       +1
000830:    7026           54007                           TS       7
000831:    7027           34755                           CAF      ZERO
000832:    7030           60130                           AD       BUF
000833:    7031           50001                           INDEX    L
000834:    7032           26154                           ADS      MPAC
000835:    7033           54007                           TS       7
000836:    7034           00002                           TC       Q                                     #  NO OVERFLOW EXIT.
000837:    7035           17152                           TCF      SETOVF2                               #  SET OVFIND AND EXIT.
000838:
000839:    7036           00006        BVSU               EXTEND
000840:    7037           50116                           INDEX    ADDRWD
000841:    7040           30003                           DCA      2
000842:    7041           52160                           DXCH     MPAC       +3
000843:    7042           00006                           EXTEND
000844:    7043           40001                           DCOM
000845:    7044           20160                           DAS      MPAC       +3
000846:    7045           00006                           EXTEND
000847:    7046           17050                           BZF      +2
000848:    7047           07014                           TC       OVERFLWY
000849:
000850:    7050           00006                           EXTEND
000851:    7051           50116                           INDEX    ADDRWD
000852:    7052           30005                           DCA      4
000853:    7053           52162                           DXCH     MPAC       +5
000854:    7054           00006                           EXTEND
000855:    7055           40001                           DCOM
000856:    7056           20162                           DAS      MPAC       +5
000857:    7057           00006                           EXTEND
000858:    7060           17062                           BZF      +2
000859:    7061           07011                           TC       OVERFLWZ
000860:


000862:    7062           00006        BDSU               EXTEND
000863:    7063           50116                           INDEX    ADDRWD
000864:    7064           30001                           DCA      0
000865:    7065           52155                           DXCH     MPAC
000866:    7066           00006                           EXTEND
000867:    7067           40001                           DCOM
000868:    7070           17000                           TCF      ENDVXV
000869:


000871:                                                                                                  #  TRIPLE PRECISION ADD ROUTINE.
000872:
000873:    7071           00006        TAD                EXTEND
000874:    7072           50116                           INDEX    ADDRWD
000875:    7073           30002                           DCA      1                                     #  ADD MINOR PARTS FIRST.
000876:    7074           20156                           DAS      MPAC       +1
000877:    7075           50116                           INDEX    ADDRWD
000878:    7076           60000                           AD       0
000879:    7077           60154                           AD       MPAC
000880:    7100           54154                           TS       MPAC
000881:    7101           16061                           TCF      DANZIG
000882:
000883:    7102           17003                           TCF      SETOVF                                #  SET OVFIND IF SUCH OCCURS.
000884:


000886:                                                                                                  #  ARITHMETIC SUBROUTINES REQUIRED IN FIXED-FIXED.
000887:                                                                                                  #        1.  DMPSUB      DOUBLE PRECISION MULTIPLY. MULTIPLY THE CONTENTS OF MPAC,+1 BY THE DP WORD WHOSE ADDRESS
000888:                                                                                                  #                        IS IN ADDRWD AND LEAVE A TRIPLE PRECISION RESULT IN MPAC.
000889:                                                                                                  #        2.  ROUNDSUB    ROUND THE TRIPLE PRECISON CONTENTS OF MPAC TO DOUBLE PRECISION.
000890:                                                                                                  #        3.  DOTSUB      TAKE THE DOT PRODUCT OF THE VECTOR IN MPAC AND THE VECTOR WHOSE ADDRESS IS IN ADDRWD
000891:                                                                                                  #                        AND LEAVE THE TRIPLE PRECISION RESULT IN MPAC.
000892:                                                                                                  #        4.  POLY        USING THE CONTENTS OF MPAC AS A DP ARGUMENT, EVALUATE THE POLYNOMIAL WHOSE DEGREE AND
000893:                                                                                                  #                        COEFFICIENTS IMMEDIATELY FOLLOW THE TC POLY INSTRUCTION (SEE ROUTINE FOR DETAILS.)
000894:
000895:    7103           50002        DMP                INDEX    Q                                     #  BASIC SUBROUTINE FOR USE BY PINBALL, ETC
000896:    7104           30000                           CAF      0                                     #  ADRES OF ARGUMENT FOLLOWS  TC DMP .
000897:    7105           24002                           INCR     Q
000898:    7106           54116                 -1        TS       ADDRWD                                #  (PROLOGUE FOR SETTING ADDRWD.)
000899:
000900:    7107           50116        DMPSUB             INDEX    ADDRWD                                #  GET MINOR PART OF OPERAND AT C(ADDRWD).
000901:    7110           30001                           CA       1
000902:    7111           54156                           TS       MPAC       +2                         #  THIS WORKS FOR SQUARING MPAC AS WELL.
000903:    7112           34755                           CAF      ZERO                                  #  SET MPAC +1 TO ZERO SO WE CAN ACCUMULATE
000904:    7113           56155                           XCH      MPAC       +1                         #  THE PARTIAL PRODUCTS WITH DAS
000905:    7114           54135                           TS       MPTEMP                                #  INSTRUCTIONS.
000906:    7115           00006                           EXTEND
000907:    7116           70156                           MP       MPAC       +2                         #  MINOR OF MPAC X MINOR OF C(ADDRWD).
000908:
000909:    7117           56156                           XCH      MPAC       +2                         #  DISCARD MINOR PART OF ABOVE RESULT AND
000910:    7120           00006                           EXTEND                                         #  FORM MAJOR OF MPAC X MINOR OF C(ADDRWD).
000911:    7121           70154                           MP       MPAC
000912:    7122           20156                           DAS      MPAC       +1                         #  GUARANTEED NO OVERFLOW.
000913:
000914:    7123           50116                           INDEX    ADDRWD                                #  GET MAJOR PART OF ARGUMENT AT C(ADDRWD).
000915:    7124           30000                           CA       0
000916:    7125           56135                           XCH      MPTEMP                                #  SAVE AND BRING OUT MINOR OF MPAC.
000917:    7126           00006        DMPSUB2            EXTEND
000918:    7127           70135                           MP       MPTEMP                                #  MAJOR OF C(ADDRWD) X MINOR OF MPAC.
000919:    7130           20156                           DAS      MPAC       +1                         #  ACCUMULATE, SETTING A TO NET OVERFLOW.
000920:
000921:    7131           56154                           XCH      MPAC                                  #  SETTING MPAC TO 0 OR +-1.
000922:    7132           00006                           EXTEND
000923:    7133           70135                           MP       MPTEMP                                #  MAJOR OF MPAC X MAJOR OF C(ADDRWD).
000924:    7134           20155                           DAS      MPAC                                  #  GUARANTEED NO OVERFLOW.
000925:    7135           00002                           TC       Q                                     #  49 MCT = .573 MS. INCLUDING RETURN.
000926:


000928:                                                                                                  #  ROUND MPAC TO DOUBLE PRECISION, SETTING OVFIND ON THE RARE EVENT OF OVERFLOW.
000929:
000930:    7136           34755        ROUNDSUB           CAF      ZERO                                  #  SET MPAC +2 = 0 FOR SCALARS AND CHANGE
000931:    7137           54163                 +1        TS       MODE                                  #  MODE TO DP.
000932:
000933:    7140           56156        VROUND             XCH      MPAC       +2                         #  BUT WE NEEDNT TAKE THE TIME FOR VECTORS.
000934:    7141           60000                           DOUBLE
000935:    7142           54001                           TS       L
000936:    7143           00002                           TC       Q
000937:
000938:    7144           60155                           AD       MPAC       +1                         #  ADD ROUNDING BIT IF MPAC +2 WAS GREATER
000939:    7145           54155                           TS       MPAC       +1                         #  THAN .5 IN MAGNITUDE.
000940:    7146           00002                           TC       Q
000941:
000942:    7147           60154                           AD       MPAC                                  #  PROPAGATE INTERFLOW.
000943:    7150           54154                           TS       MPAC
000944:    7151           00002                           TC       Q
000945:
000946:    7152           54121        SETOVF2            TS       OVFIND                                #  (RARE).
000947:    7153           00002                           TC       Q
000948:


000950:                                                                                                  #  THE DOT PRODUCT SUBROUTINE USUALLY FORMS THE DOT PRODUCT OF THE VECTOR IN MPAC WITH A STANDARD SIX
000951:                                                                                                  #  REGISTER VECTOR WHOSE ADDRESS IS IN ADDRWD.  IN THIS CASE C(DOTINC) ARE SET TO 2.   VXM, HOWEVER, SETS C(DOTINC) TO
000952:                                                                                                  #  6 SO THAT DOTSUB DOTS MPAC WITH A COLUMN VECTOR OF THE MATRIX IN QUESTION IN THIS CASE.
000953:
000954:    7154           34752        PREDOT             CAF      TWO                                   #  PROLOGUE TO SET DOTINC TO 2.
000955:    7155           54136                           TS       DOTINC
000956:
000957:    7156           00006        DOTSUB             EXTEND
000958:    7157           22137                           QXCH     DOTRET                                #  SAVE RETURN.
000959:    7160           07107                           TC       DMPSUB                                #  DOT X COMPONENTS.
000960:    7161           52160                           DXCH     MPAC       +3                         #  POSITION Y COMPONENT OF MPAC FOR
000961:    7162           52155                           DXCH     MPAC                                  #  MULTIPLICATION WHILE SAVING RESULT IN
000962:    7163           52131                           DXCH     BUF                                   #  THREE WORD BUFFER, BUF.
000963:    7164           30156                           CA       MPAC       +2
000964:    7165           54132                           TS       BUF        +2
000965:
000966:    7166           30136                           CA       DOTINC                                #  ADVANCE ADDRWD TO Y COMPONENT OF
000967:    7167           26116                           ADS      ADDRWD                                #  OTHER ARGUMENT.
000968:    7170           07107                           TC       DMPSUB
000969:    7171           52156                           DXCH     MPAC       +1                         #  ACCUMULATE PARTIAL PRODUCTS.
000970:    7172           20132                           DAS      BUF        +1
000971:    7173           60154                           AD       MPAC
000972:    7174           60130                           AD       BUF
000973:    7175           54130                           TS       BUF
000974:    7176           17200                           TCF      +2
000975:    7177           54121                           TS       OVFIND                                #  IF OVERFLOW OCCURS.
000976:
000977:    7200           52162                           DXCH     MPAC       +5                         #  MULTIPLY Z COMPONENTS.
000978:    7201           52155                           DXCH     MPAC
000979:    7202           30136                           CA       DOTINC
000980:    7203           26116                           ADS      ADDRWD
000981:    7204           07107                           TC       DMPSUB
000982:    7205           52132        ENDDOT             DXCH     BUF        +1                         #  LEAVE FINAL ACCUMULATION IN MPAC.
000983:    7206           20156                           DAS      MPAC       +1
000984:    7207           60154                           AD       MPAC
000985:    7210           60130                           AD       BUF
000986:    7211           54154                           TS       MPAC
000987:    7212           00137                           TC       DOTRET
000988:
000989:    7213           07017                           TC       OVERFLOW                              #  ON OVERFLOW HERE.
000990:    7214           00137                           TC       DOTRET
000991:


000993:                                                                                                  #  DOUBLE PRECISION POLYNOMIAL EVALUATOR
000994:                                                                                                  #                                  N        N-1
000995:                                                                                                  #        THIS ROUTINE EVALUATES A X  + A   X    + ... + A  X + A  LEAVING THE DP RESULT IN MPAC ON EXIT.
000996:                                                                                                  #                                N      N-1              1      0
000997:
000998:                                                                                                  #  THE ROUTINE HAS TWO ENTRIES
000999:
001000:                                                                                                  #        1.      ENTRY THRU POWRSERS.  THE COEFFICIENTS MAY BE EITHER IN FIXED OR ERASABLE, THE CALL IS BY
001001:                                                                                                  #                TC POWRSERS, AND THE RETURN IS TO LOC(TC POWRSERS)+1.  THE ENTERING DATA MUST BE AS FOLLOWS
001002:
001003:                                                                                                  #                        A               SP      LOC-3           ADDRESS FOR REFERENCING COEF TABLE
001004:                                                                                                  #                        L               SP      N-1             N IS THE DEGREE OF THE POWER SERIES
001005:                                                                                                  #                        MPAC            DP      X               ARGUMENT
001006:                                                                                                  #                        LOC-2N          DP      A(0)
001007:                                                                                                  #                                        ...
001008:                                                                                                  #                        LOC             DP      A(N)
001009:
001010:                                                                                                  #        2.      ENTRY THRU POLY.  THE CALL TO POLY AND THE ENTERING DATA MUST BE AS FOLLOWS
001011:
001012:                                                                                                  #                        MPAC            DP      X               ARGUMENT
001013:                                                                                                  #                        LOC             TC      POLY
001014:                                                                                                  #                        LOC+1           SP      N-1
001015:                                                                                                  #                        LOC+2           DP      A(0)
001016:                                                                                                  #                                        ...
001017:                                                                                                  #                        LOC+2N+2        DP      A(N)            RETURN IS TO LOC+2N+4
001018:
001019:    7215           00006        POWRSERS           EXTEND
001020:    7216           22141                           QXCH     POLYRET                               #  RETURN ADDRESS
001021:    7217           54117                           TS       POLISH                                #  POWER SERIES ADDRESS
001022:    7220           22140                           LXCH     POLYCNT                               #  N-1 TO COUNTER
001023:    7221           17232                           TCF      POLYCOM                               #  SKIP SET UP BY POLY
001024:
001025:    7222           50002        POLY               INDEX    Q
001026:    7223           30000                           CAF      0
001027:    7224           54140                           TS       POLYCNT                               #  N-1 TO COUNTER
001028:    7225           60000                           DOUBLE
001029:    7226           60002                           AD       Q
001030:    7227           54117                           TS       POLISH                                #  L(A(N))-3 TO POLISH
001031:    7230           64756                           AD       FIVE
001032:    7231           54141                           TS       POLYRET                               #  STORE RETURN ADDRESS
001033:
001034:    7232           36273        POLYCOM            CAF      LVBUF                                 #  INCOMING X WILL BE MOVED TO VBUF, SO
001035:    7233           54116                           TS       ADDRWD                                #  SET ADDRWD SO DMPSUB WILL MPY BY VBUF.
001036:
001037:    7234           00006                           EXTEND
001038:    7235           50117                           INDEX    POLISH
001039:    7236           30004                           DCA      3
001040:


001042:    7237           52155                           DXCH     MPAC                                  #  LOAD A(N) INTO MPAC,
001043:    7240           52123                           DXCH     VBUF                                  #  SAVING X IN VBUF
001044:    7241           17245                           TCF      POLY2
001045:
001046:    7242           54140        POLYLOOP           TS       POLYCNT                               #  SAVE DECREMENTED LOOP COUNTER
001047:    7243           44752                           CS       TWO
001048:    7244           26117                           ADS      POLISH                                #  REGRESS COEFFICIENT POINTER
001049:
001050:    7245           07107        POLY2              TC       DMPSUB                                #  MULTIPLY BY X
001051:    7246           00006                           EXTEND
001052:    7247           50117                           INDEX    POLISH
001053:    7250           30002                           DCA      1                                     #  ADD IN NEXT COEFFICIENT
001054:    7251           20155                           DAS      MPAC                                  #  USERS RESPONSIBILITY TO ASSURE NO OVFLOW
001055:
001056:    7252           10140                           CCS      POLYCNT
001057:    7253           17242                           TCF      POLYLOOP
001058:    7254           00141                           TC       POLYRET                               #  RETURN CALLER
001059:


001061:                                                                                                  #  MISCELLANEOUS MULTI-PRECISION ROUTINES REQUIRED IN FIXED-FIXED BUT NOT USED BY THE INTERPRETER.
001062:
001063:    7255           34755        DPAGREE            CAF      ZERO                                  #  DOUBLE PRECISION ENTRY -
001064:    7256           54156                           TS       MPAC       +2                         #  ZERO LOW-ORDER WORD
001065:
001066:    7257           22002        TPAGREE            LXCH     Q                                     #  FORCE SIGN AGREEMENT AMONG THE TRIPLE
001067:    7260           06723                           TC       BRANCH                                #  PRECISION CONTENTS OF MPAC.  RETURNING
001068:    7261           17265                           TCF      ARG+                                  #  WITH SIGNUM OF THE INPUT IN A.
001069:    7262           17305                           TCF      ARGZERO
001070:
001071:    7263           44733                           CS       POSMAX                                #  IF NEGATIVE.
001072:    7264           17266                           TCF      +2
001073:
001074:    7265           34733        ARG+               CAF      POSMAX
001075:    7266           54002                           TS       Q
001076:    7267           00006                           EXTEND
001077:    7270           24000                           AUG      A                                     #  FORMS +-1.0.
001078:    7271           60156                           AD       MPAC       +2
001079:    7272           54156                           TS       MPAC       +2
001080:    7273           34755                           CAF      ZERO
001081:    7274           60002                           AD       Q
001082:    7275           60155                           AD       MPAC       +1
001083:    7276           54155                           TS       MPAC       +1
001084:    7277           34755                           CAF      ZERO
001085:    7300           60002                           AD       Q                                     #  Q STILL HAS POSMAX OR NEGMAX IN IT.
001086:    7301           60154                           AD       MPAC
001087:    7302           54154        ARGZERO2           TS       MPAC                                  #  ALWAYS SKIPPING UNLESS ARGZERO.
001088:    7303           54155                           TS       MPAC       +1
001089:    7304           00001                           TC       L                                     #  RETURN VIA L.
001090:
001091:    7305           54156        ARGZERO            TS       MPAC       +2                         #  SET ALL THREE MPAC REGISTERS TO ZERO.
001092:    7306           17302                           TCF      ARGZERO2
001093:
001094:                                                                                                  #  SHORTMP MULTIPLIES THE TP CONTENTS OF MPAC BY THE SINGLE PRECISION NUMBER ARRIVING IN A.
001095:
001096:    7307           54135        SHORTMP            TS       MPTEMP
001097:    7310           00006                           EXTEND
001098:    7311           70156                           MP       MPAC       +2
001099:    7312           54156                           TS       MPAC       +2
001100:    7313           34755        SHORTMP2           CAF      ZERO                                  #  SO SUBSEQUENT DAS WILL WORK.
001101:    7314           56155                           XCH      MPAC       +1
001102:    7315           17126                           TCF      DMPSUB2
001103:


001105:                                                                                                  #  DMPNSUB MULTIPLIES THE DP FRACTION ARRIVING IN MPAC BY THE SP
001106:                                                                                                  #  INTEGER ARRIVING IN A.  THE DP PRODUCT DEPARTS BOTH IN MPAC AND IN
001107:                                                                                                  #  A AND L.  NOTE THAT DMPNSUB NORMALLY INCREASES THE MAGNITUDE OF THE
001108:                                                                                                  #  CONTENTS OF MPAC.  THE CUSTOMER MUST INSURE THAT B(A) X B(MPAC,MPAC+1)
001109:                                                                                                  #  AND B(A) X B(MPAC) ARE LESS THAN 1 IN MAGNITUDE, WHERE B, AS IS OBVIOUS,
001110:                                                                                                  #  INDICATES THE ARRIVING CONTENTS.
001111:
001112:    7316           54135        DMPNSUB            TS       DMPNTEMP
001113:    7317           00006                           EXTEND
001114:    7320           70155                           MP       MPAC       +1
001115:    7321           52155                           DXCH     MPAC                                  #  LOW PRODUCT TO MPAC, HIGH FACTOR TO A
001116:    7322           00006                           EXTEND
001117:    7323           70135                           MP       DMPNTEMP
001118:    7324           30001                           CA       L
001119:    7325           26154                           ADS      MPAC                                  #  COMPLETING THE PRODUCT IN MPAC
001120:    7326           00006                           EXTEND
001121:    7327           30155                           DCA      MPAC                                  #  BRINGING THE PRODUCT INTO A AND L
001122:    7330           00002                           TC       Q
001123:


001125:                                                                                                  #  MISCELLANEOUS VECTOR OPERATIONS.  INCLUDED HERE ARE THE FOLLOWING:
001126:                                                                                                  #        1.      DOT     DP VECTOR DOT PRODUCT.
001127:                                                                                                  #        2.      VXV     DP VECTOR CROSS PRODUCT.
001128:                                                                                                  #        3.      VXSC    DP VECTOR TIMES SCALAR.
001129:                                                                                                  #        4.      V/SC    DP VECTOR DIVIDED BY SCALAR.
001130:                                                                                                  #        5.      VPROJ   DP VECTOR PROJECTION.  ( (MPAC.X)MPAC ).
001131:                                                                                                  #        6.      VXM     DP VECTOR POST-MULTIPLIED BY MATRIX.
001132:                                                                                                  #        7.      MXV     DP VECTOR PRE-MULTIPLIED BY MATRIX.
001133:
001134:    7331           07154        DOT                TC       PREDOT                                #  DO THE DOT PRODUCT AND EXIT, CHANGING
001135:    7332           34755        DMODE              CAF      ZERO                                  #  THE MODE TO DP SCALAR.
001136:    7333           16060                           TCF      NEWMODE
001137:
001138:    7334           34752        MXV                CAF      TWO                                   #  SET UP MATINC AND DOTINC FOR ROW
001139:    7335           54140                           TS       MATINC                                #  VECTORS.
001140:    7336           17342                           TCF      VXM/MXV                               #  GO TO COMMON PORTION.
001141:
001142:    7337           44363        VXM                CS       TEN                                   #  SET MATINC AND DOTINC TO REFER TO MATRIX
001143:    7340           54140                           TS       MATINC                                #  AS THREE COLUMN VECTORS.
001144:    7341           36242                           CAF      SIX
001145:


001147:                                                                                                  #  COMMON PORTION OF MXV AND VXM.
001148:
001149:    7342           54136        VXM/MXV            TS       DOTINC
001150:                                                                                                  #  ITRACE (2) REFERS TO "VXM/MXV".
001151:    7343           07532                           TC       MPACVBUF                              #  SAVE VECTOR IN MPAC FOR FURTHER USE.
001152:
001153:    7344           07156                           TC       DOTSUB                                #  GO DOT TO GET X COMPONENT OF ANSWER.
001154:    7345           00006                           EXTEND
001155:    7346           30123                           DCA      VBUF                                  #  MOVE MPAC VECTOR BACK INTO MPAC, SAVING
001156:    7347           52155                           DXCH     MPAC                                  #  NEW X COMPONENT IN BUF2.
001157:    7350           52134                           DXCH     BUF2
001158:    7351           00006                           EXTEND
001159:    7352           30125                           DCA      VBUF       +2
001160:    7353           52160                           DXCH     MPAC       +3
001161:    7354           00006                           EXTEND
001162:    7355           30127                           DCA      VBUF       +4
001163:    7356           52162                           DXCH     MPAC       +5
001164:    7357           30140                           CA       MATINC                                #  INITIALIZE ADDRWD FOR NEXT DOT PRODUCT.
001165:    7360           26116                           ADS      ADDRWD                                #  FORMS BASE ADDRESS OF NEXT COLUMN(ROW).
001166:
001167:    7361           07156                           TC       DOTSUB
001168:    7362           52123                           DXCH     VBUF                                  #  MOVE GIVEN VECTOR BACK TO MPAC, SAVING Y
001169:    7363           52155                           DXCH     MPAC                                  #  COMPONENT OF ANSWER IN VBUF +2.
001170:    7364           52125                           DXCH     VBUF       +2
001171:    7365           52160                           DXCH     MPAC       +3
001172:    7366           52127                           DXCH     VBUF       +4
001173:    7367           52162                           DXCH     MPAC       +5
001174:    7370           30140                           CA       MATINC                                #  FORM ADDRESS OF LAST COLUMN OR ROW.
001175:    7371           26116                           ADS      ADDRWD
001176:
001177:    7372           07156                           TC       DOTSUB
001178:    7373           52134                           DXCH     BUF2                                  #  ANSWER NOW COMPLETE. PUT COMPONENTS INTO
001179:    7374           52155                           DXCH     MPAC                                  #  PROPER MPAC REGISTERS.
001180:    7375           52162                           DXCH     MPAC       +5
001181:    7376           52125                           DXCH     VBUF       +2
001182:    7377           52160                           DXCH     MPAC       +3
001183:    7400           16061                           TCF      DANZIG                                #  EXIT.
001184:


001186:                                                                                                  #  VXSC - VECTOR TIMES SCALAR.
001187:
001188:    7401           10163        VXSC               CCS      MODE                                  #  TEST PRESENT MODE.
001189:    7402           17430                           TCF      DVXSC                                 #  SEPARATE ROUTINE WHEN SCALAR IS IN MPAC.
001190:    7403           17430                           TCF      DVXSC
001191:
001192:    7404           07107        VVXSC              TC       DMPSUB                                #  COMPUTE X COMPONENT
001193:    7405           07140                           TC       VROUND                                #  AND ROUND IT.
001194:    7406           52160                           DXCH     MPAC       +3                         #  PUT Y COMPONENT INTO MPAC SAVING MPAC IN
001195:    7407           52155                           DXCH     MPAC                                  #  MPAC +3.
001196:    7410           52160                           DXCH     MPAC       +3
001197:
001198:    7411           07107                           TC       DMPSUB                                #  DO SAME FOR Y AND Z COMPONENTS.
001199:    7412           07140                           TC       VROUND
001200:    7413           52162                           DXCH     MPAC       +5
001201:    7414           52155                           DXCH     MPAC
001202:    7415           52162                           DXCH     MPAC       +5
001203:
001204:    7416           07107                           TC       DMPSUB
001205:    7417           07140                           TC       VROUND
001206:    7420           52155        VROTATEX           DXCH     MPAC                                  #  EXIT USED TO RESTORE MPAC AFTER THIS
001207:    7421           52162                           DXCH     MPAC       +5                         #  TYPE OF ROTATION.  CALLED BY VECTOR SHIFT
001208:    7422           52160                           DXCH     MPAC       +3                         #  RIGHT, V/SC, ETC.
001209:    7423           52155                           DXCH     MPAC
001210:    7424           16061                           TCF      DANZIG
001211:


001213:                                                                                                  #  DP VECTOR PROJECTION ROUTINE.
001214:
001215:    7425           07154        VPROJ              TC       PREDOT                                #  (MPAC.X)MPAC IS COMPUTED AND LEFT IN
001216:    7426           44751                           CS       FOUR                                  #  MPAC.  DO DOT AND FALL INTO DVXSC.
001217:    7427           26116                           ADS      ADDRWD
001218:
001219:                                                                                                  #  VXSC WHEN SCALAR ARRIVES IN MPAC AND VECTOR IS AT X.
001220:
001221:    7430           00006        DVXSC              EXTEND                                         #  SAVE SCALAR IN MPAC +3 AND GET X
001222:    7431           30155                           DCA      MPAC                                  #  COMPONENT OF ANSWER.
001223:    7432           52160                           DXCH     MPAC       +3
001224:    7433           07107                           TC       DMPSUB
001225:    7434           07140                           TC       VROUND
001226:
001227:    7435           34752                           CAF      TWO                                   #  ADVANCE ADDRWD TO Y COMPONENT OF X.
001228:    7436           26116                           ADS      ADDRWD
001229:    7437           00006                           EXTEND
001230:    7440           30160                           DCA      MPAC       +3                         #  PUT SCALAR BACK INTO MPAC AND SAVE
001231:    7441           52155                           DXCH     MPAC                                  #  X RESULT IN MPAC +5.
001232:    7442           52162                           DXCH     MPAC       +5
001233:    7443           07107                           TC       DMPSUB
001234:    7444           07140                           TC       VROUND
001235:
001236:    7445           34752                           CAF      TWO
001237:    7446           26116                           ADS      ADDRWD                                #  TO Z COMPONENT.
001238:    7447           52160                           DXCH     MPAC       +3                         #  BRING SCALAR BACK, PUTTING Y RESULT IN
001239:    7450           52155                           DXCH     MPAC                                  #  THE PROPER PLACE.
001240:    7451           52160                           DXCH     MPAC       +3
001241:    7452           07107                           TC       DMPSUB
001242:    7453           07140                           TC       VROUND
001243:
001244:    7454           52155                           DXCH     MPAC                                  #  PUT Z COMPONENT IN PROPER PLACE, ALSO
001245:    7455           52162                           DXCH     MPAC       +5                         #  POSITIONING X.
001246:    7456           52155                           DXCH     MPAC
001247:
001248:    7457           16521                           TCF      VMODE                                 #  MODE HAS CHANGED TO VECTOR.
001249:


001251:                                                                                                  #           THE VECTOR CROSS PRODUCT ROUTINE CALCULATES (X M -X M ,X M -X M ,X M -X M ) WHERE M IS THE VECTOR IN
001252:                                                                                                  #                                                         3 2  2 3  1 3  3 1  2 1  1 2
001253:                                                                                                  #  MPAC AND X THE VECTOR AT THE GIVEN ADDRESS.
001254:
001255:    7460           00006        VXV                EXTEND
001256:    7461           30162                           DCA      MPAC       +5                         #  FORM UP M3X1, LEAVING M1 IN VBUF.
001257:    7462           52155                           DXCH     MPAC
001258:    7463           52123                           DXCH     VBUF
001259:    7464           07107                           TC       DMPSUB                                #  BY X1.
001260:
001261:    7465           00006                           EXTEND
001262:    7466           40160                           DCS      MPAC       +3                         #  CALCULATE -X1M2, SAVING X1M3 IN VBUF +2.
001263:    7467           52155                           DXCH     MPAC
001264:    7470           52125                           DXCH     VBUF       +2
001265:    7471           07107                           TC       DMPSUB
001266:
001267:    7472           34752                           CAF      TWO                                   #  ADVANCE ADDRWD TO X2.
001268:    7473           26116                           ADS      ADDRWD
001269:    7474           00006                           EXTEND
001270:    7475           40162                           DCS      MPAC       +5                         #  PREPARE TO GET -X2M3, SAVING -X1M2 IN
001271:    7476           52155                           DXCH     MPAC                                  #  MPAC +5.
001272:    7477           52162                           DXCH     MPAC       +5
001273:    7500           07107                           TC       DMPSUB
001274:
001275:    7501           00006                           EXTEND
001276:    7502           30123                           DCA      VBUF                                  #  GET X2M1, SAVING -X2M3 IN VBUF +4.
001277:    7503           52155                           DXCH     MPAC
001278:    7504           52127                           DXCH     VBUF       +4
001279:    7505           07107                           TC       DMPSUB
001280:
001281:    7506           34752                           CAF      TWO                                   #  ADVANCE ADDRWD TO X3.
001282:    7507           26116                           ADS      ADDRWD
001283:    7510           00006                           EXTEND
001284:    7511           40123                           DCS      VBUF                                  #  GET -X3M1, ADDING X2M1 TO MPAC +5 TO
001285:    7512           52155                           DXCH     MPAC                                  #  COMPLETE THE Z COMPONENT OF THE ANSWER.
001286:    7513           20162                           DAS      MPAC       +5
001287:
001288:    7514           00006                           EXTEND
001289:    7515           17517                           BZF      +2
001290:    7516           07011                           TC       OVERFLWZ
001291:
001292:    7517           07107                           TC       DMPSUB
001293:    7520           52125                           DXCH     VBUF       +2                         #  MOVE X1M3 TO MPAC +3 SETTING UP FOR X3M2
001294:    7521           52160                           DXCH     MPAC       +3                         #  AND ADD -X3M1 TO MPAC +3 TO COMPLETE THE
001295:    7522           52155                           DXCH     MPAC                                  #  Y COMPONENT OF THE RESULT.
001296:    7523           20160                           DAS      MPAC       +3
001297:
001298:    7524           00006                           EXTEND
001299:    7525           17527                           BZF      +2


001301:    7526           07014                           TC       OVERFLWY
001302:
001303:    7527           07107                           TC       DMPSUB
001304:    7530           52127                           DXCH     VBUF       +4                         #  GO ADD -X2M3 TO X3M2 TO COMPLETE THE X
001305:    7531           17000                           TCF      ENDVXV                                #  COMPONENT (TAIL END OF DAD).
001306:
001307:                                                                                                  #  THE MPACVBUF SUBROUTINE SAVES THE VECTOR IN MPAC IN VBUF WITHOUT CLOBBERING MPAC.
001308:
001309:    7532           00006        MPACVBUF           EXTEND                                         #  CALLED BY MXV, VXM, AND UNIT.
001310:    7533           30155                           DCA      MPAC
001311:    7534           52123                           DXCH     VBUF
001312:    7535           00006                           EXTEND
001313:    7536           30160                           DCA      MPAC       +3
001314:    7537           52125                           DXCH     VBUF       +2
001315:    7540           00006                           EXTEND
001316:    7541           30162                           DCA      MPAC       +5
001317:    7542           52127                           DXCH     VBUF       +4
001318:    7543           00002                           TC       Q                                     #  RETURN TO CALLER.
001319:
001320:                                                                                                  #  DOUBLE PRECISION SIGN AGREE ROUTINE.  ARRIVE WITH INPUT IN A+L.  OUTPUT IS IN A + L.
001321:
001322:    7544           10000        ALSIGNAG           CCS      A                                     #  TEST UPPER PART.
001323:    7545           17551                           TCF      UPPOS                                 #  IT IS POSITIVE
001324:    7546           00002                           TC       Q                                     #  ZERO
001325:    7547           17561                           TCF      UPNEG                                 #  NEGATIVE
001326:    7550           00002                           TC       Q                                     #  ZERO
001327:
001328:    7551           56001        UPPOS              XCH      L                                     #  SAVE DECREMENTED UPPER PART.
001329:    7552           64736                           AD       HALF
001330:    7553           64736                           AD       HALF
001331:    7554           54000                           TS       A                                     #  SKIPS ON OVERFLOW
001332:    7555           17557                           TCF      +2
001333:    7556           24001                           INCR     L                                     #  RESTORE UPPER TO ROIGINAL VALUE
001334:    7557           56001                           XCH      L                                     #  SWAP A + L BACK.
001335:    7560           00002                           TC       Q
001336:
001337:    7561           56001        UPNEG              XCH      L                                     #  SAVE COMPLEMENTED + DECREMENTED UPPER PT
001338:    7562           64735                           AD       NEGMAX
001339:    7563           67747                           AD       NEGONE
001340:    7564           54000                           TS       A
001341:    7565           17567                           TCF      +2                                    #  DONT INCREMENT IF NO OVERFLOW.
001342:    7566           24001                           INCR     L
001343:    7567           56001                           XCH      L
001344:    7570           40000                           COM                                            #  MAKE NEGATIVE AGAIN.
001345:    7571           00002                           TC       Q
001346:


001348:                                                                                                  #  INTERPRETIVE INSTRUCTIONS WHOSE EXECUTION CONSISTS OF PRINCIPALLY CALLING SUBROUTINES.
001349:
001350:    7572           07107        DMP1               TC       DMPSUB                                #  DMP INSTRUCTION.
001351:    7573           16061                           TCF      DANZIG
001352:
001353:    7574           07107        DMPR               TC       DMPSUB
001354:    7575           07137                           TC       ROUNDSUB   +1                         #  (C(A) = +0).
001355:    7576           16061                           TCF      DANZIG
001356:
001357:    7577           00006        DDV                EXTEND
001358:    7600           50116                           INDEX    ADDRWD                                #  MOVE DIVIDEND INTO BUF.
001359:    7601           30001                           DCA      0
001360:    7602           17607                           TCF      BDDV       +4
001361:
001362:    7603           00006        BDDV               EXTEND                                         #  MOVE DIVISOR INTO MPAC SAVING MPAC, THE
001363:    7604           50116                           INDEX    ADDRWD                                #  DIVIDEND, IN BUF.
001364:    7605           30001                           DCA      0
001365:    7606           52155                           DXCH     MPAC
001366:    7607           52131                 +4        DXCH     BUF
001367:    7610           34755                           CAF      ZERO                                  #  DIVIDE ROUTINES IN BANK 0.
001368:    7611           54004                           TS       FBANK
001369:    7612           12353                           TCF      DDV/BDDV
001370:
001371:    7613           30116        SETPD              CA       ADDRWD                                #  MUST SET TO WORK AREA, OR EBANK TROUBLE.
001372:    7614           54166                           TS       PUSHLOC
001373:    7615           16063                           TCF      NOIBNKSW                              #  NO FBANK SWITCH REQUIRED.
001374:
001375:    7616           34755        TSLC               CAF      ZERO                                  #  SHIFTING ROUTINES LOCATED IN BANK 00.
001376:    7617           54004                           TS       FBANK
001377:    7620           12172                           TCF      TSLC2
001378:
001379:    7621           36074        GSHIFT             CAF      LOW7                                  #  USED AS MASK AT GENSHIFT. THIS PROCESSES
001380:    7622           54004                           TS       FBANK                                 #  ANY SHIFT INSTRUCTION (EXCEPT TSLC) WITH
001381:    7623           12214                           TCF      GENSHIFT                              #  AN ADDRESS (ROUTINES IN BANK 0).
001382:


001384:                                                                                                  #  THE FOLLOWING IS THE PROLOGUE TO V/SC.  IF THE PRESENT MODE IS VECTOR, IT SAVES THE SCALAR AT X IN BUF
001385:                                                                                                  #  AND CALLS THE V/SC ROUTINE IN BANK 0.  IF THE PRESENT MODE IS SCALAR, IT MOVES THE VECTOR AT X INTO MPAC, SAVING
001386:                                                                                                  #  THE SCALAR IN MPAC IN BUF BEFORE CALLING THE V/SC ROUTINE IN BANK 0.
001387:
001388:    7624           10163        V/SC               CCS      MODE
001389:    7625           17636                           TCF      DV/SC                                 #  MOVE VECTOR INTO MPAC.
001390:    7626           17636                           TCF      DV/SC
001391:
001392:    7627           00006        VV/SC              EXTEND
001393:    7630           50116                           INDEX    ADDRWD
001394:    7631           30001                           DCA      0
001395:    7632           52131        V/SC1              DXCH     BUF                                   #  IN BOTH CASES, VECTOR IS NOW IN MPAC AND
001396:    7633           34755                           CAF      ZERO                                  #  SCALAR IN BUF.
001397:    7634           54004                           TS       FBANK
001398:    7635           12654                           TCF      V/SC2
001399:
001400:    7636           00006        DV/SC              EXTEND
001401:    7637           50116                           INDEX    ADDRWD
001402:    7640           30003                           DCA      2
001403:    7641           52160                           DXCH     MPAC       +3
001404:    7642           00006                           EXTEND
001405:    7643           50116                           INDEX    ADDRWD
001406:    7644           30005                           DCA      4
001407:    7645           52162                           DXCH     MPAC       +5
001408:
001409:    7646           44753                           CS       ONE                                   #  CHANGE MODE TO VECTOR.
001410:    7647           54163                           TS       MODE
001411:
001412:    7650           00006                           EXTEND
001413:    7651           50116                           INDEX    ADDRWD
001414:    7652           30001                           DCA      0
001415:    7653           52155                           DXCH     MPAC
001416:    7654           17632                           TCF      V/SC1                                 #  FINISH PROLOGUE AT COMMON SECTION.
001417:


001419:                                                                                                  #  SIGN AND COMPLEMENT INSTRUCTIONS.
001420:
001421:    7655           50116        SIGN               INDEX    ADDRWD                                #  CALL COMP INSTRUCTION IF WORD AT X IS
001422:    7656           10000                           CCS      0                                     #  NEGATIVE NON-ZERO.
001423:    7657           16061                           TCF      DANZIG
001424:    7660           17662                           TCF      +2
001425:    7661           17670                           TCF      COMP                                  #  DO THE COMPLEMENT.
001426:
001427:    7662           50116                           INDEX    ADDRWD
001428:    7663           10001        CCSL               CCS      1
001429:    7664           16061                           TCF      DANZIG
001430:    7665           16061                           TCF      DANZIG
001431:    7666           17670                           TCF      COMP
001432:    7667           16061                           TCF      DANZIG
001433:    7670           00006        COMP               EXTEND                                         #  COMPLEMENT DP MPAC IN EVERY CASE.
001434:    7671           40155                           DCS      MPAC
001435:    7672           52155                           DXCH     MPAC
001436:
001437:    7673           10163                           CCS      MODE                                  #  EITHER COMPLEMENT MPAC +3 OR THE REST OF
001438:    7674           17705                           TCF      DCOMP                                 #  THE VECTOR ACCUMULATOR.
001439:    7675           17705                           TCF      DCOMP
001440:
001441:    7676           00006                           EXTEND                                         #  VECTOR COMPLEMENT.
001442:    7677           40160                           DCS      MPAC       +3
001443:    7700           52160                           DXCH     MPAC       +3
001444:    7701           00006                           EXTEND
001445:    7702           40162                           DCS      MPAC       +5
001446:    7703           52162                           DXCH     MPAC       +5
001447:    7704           16061                           TCF      DANZIG
001448:
001449:    7705           40156        DCOMP              CS       MPAC       +2
001450:    7706           54156                           TS       MPAC       +2
001451:    7707           16061                           TCF      DANZIG
001452:


001454:                                                                                                  #  THE FOLLOWING SHORT SHIFT CODES REQUIRE NO ADDRESS WORD:
001455:                                                                                                  #        1.      SR1 TO SR4      SCALAR SHIFT RIGHT.
001456:                                                                                                  #        2.      SR1R TO SR4R    SCALAR SHIFT RIGHT AND ROUND.
001457:                                                                                                  #        3.      SL1 TO SL4      SCALAR SHIFT LEFT.
001458:                                                                                                  #        4.      SL1R TO SL4R    SCALAR SHIFT LEFT AND ROUND.
001459:                                                                                                  #        5.      VSR1 TO VSR8    VECTOR SHIFT RIGHT (ALWAYS ROUNDS).
001460:                                                                                                  #        6.      VSL1 TO VSL8    VECTOR SHIFT LEFT (NEVER ROUNDS).
001461:                                                                                                  #  THE FOLLOWING CODES REQUIRE AN ADDRESS WHICH MAY BE INDEXED:*
001462:                                                                                                  #        1.      SR              SCALAR SHIFT RIGHT.
001463:                                                                                                  #        2.      SRR             SCALAR SHIFT RIGHT AND ROUND.
001464:                                                                                                  #        3.      SL              SCALAR SHIFT LEFT.
001465:                                                                                                  #        4.      SLR             SCALAR SHIFT LEFT AND ROUND.
001466:                                                                                                  #        5.      VSR             VECTOR SHIFT RIGHT.
001467:                                                                                                  #        6.      VSL             VECTOR SHIFT LEFT.
001468:                                                                                                  #  * IF THE ADDRESS IS INDEXED, AND THE INDEX MODIFICATION RESULTS IN A NEGATIVE SHIFT COUNT, A SHIFT OF THE
001469:                                                                                                  #  ABSOLUTE VALUE OF THE COUNT IS DONE IN THE OPPOSITE DIRECTION.
001470:
001471: 00,2017                                           BANK     00
001472:
001473: 00,2017                                           COUNT*   $$/INTER
001474: 00,2017           36242        SHORTT             CAF      SIX                                   #  SCALAR SHORT SHIFTS COME HERE.  THE SHIFT
001475: 00,2020           70020                           MASK     CYR                                   #  COUNT-1 IS NOW IN BITS 2-3 OF CYR.  THE
001476: 00,2021           54021                           TS       SR                                    #  ROUNDING BIT IS IN BIT1 AT THIS POINT.
001477:
001478: 00,2022           10020                           CCS      CYR                                   #  SEE IF RIGHT OR LEFT SHIFT DESIRED.
001479: 00,2023           12101                           TCF      TSSL                                  #  SHIFT LEFT.
001480:
001481: 00,2024           00024        SRDDV              DEC      20         B-14                       #  MPTEMP SETTING FOR SR BEFORE DDV.
001482:
001483: 00,2025           50021        TSSR               INDEX    SR                                    #  GET SHIFTING BIT.
001484: 00,2026           34736                           CAF      BIT14
001485: 00,2027           54135                           TS       MPTEMP
001486:
001487: 00,2030           10020                           CCS      CYR                                   #  SEE IF A ROUND IS DESIRED.
001488: 00,2031           02050        RIGHTR             TC       MPACSRND                              #  YES - SHIFT RIGHT AND ROUND.
001489: 00,2032           16060                           TCF      NEWMODE                               #  SET MODE TO DP (C(A) = 0).
001490: 00,2033           30135        MPACSHR            CA       MPTEMP                                #  DO A TRIPLE PRECISION SHIFT RIGHT.
001491: 00,2034           00006                           EXTEND
001492: 00,2035           70156                           MP       MPAC       +2
001493: 00,2036           54156                 +3        TS       MPAC       +2                         #  (EXIT FROM SQRT AND ABVAL).
001494: 00,2037           30135                           CA       MPTEMP
001495: 00,2040           00006                           EXTEND
001496: 00,2041           70154                           MP       MPAC                                  #  SHIFT MAJOR PART INTO A,L AND PLACE IN


001498: 00,2042           52155                           DXCH     MPAC                                  #  MPAC,+1.
001499: 00,2043           30135                           CA       MPTEMP
001500: 00,2044           00006                           EXTEND
001501: 00,2045           70001                           MP       L                                     #  ORIGINAL C(MPAC +1).
001502: 00,2046           20156                           DAS      MPAC       +1                         #  GUARANTEED NO OVERFLOW.
001503: 00,2047           16061                           TCF      DANZIG
001504:
001505:                                                                                                  #  MPAC SHIFT RIGHT AND ROUND SUBROUTINES.
001506:
001507: 00,2050           30156        MPACSRND           CA       MPAC       +2                         #  WE HAVE TO DO ALL THREE MULTIPLIES SINCE
001508: 00,2051           00006                           EXTEND                                         #  MPAC +1 AND MPAC +2 MIGHT HAVE SIGN
001509: 00,2052           70135                           MP       MPTEMP                                #  DISAGREEMENT WITH A SHIFT RIGHT OF 1.
001510: 00,2053           56155                           XCH      MPAC       +1
001511: 00,2054           00006                           EXTEND
001512: 00,2055           70135                           MP       MPTEMP
001513: 00,2056           56155                           XCH      MPAC       +1                         #  TRIAL MINOR PART.
001514: 00,2057           60001                           AD       L
001515:
001516: 00,2060           60000        VSHR2              DOUBLE                                         #  (FINISH VECTOR COMPONENT SHIFT RIGHT
001517: 00,2061           54156                           TS       MPAC       +2                         #  AND ROUND.
001518: 00,2062           12064                           TCF      +2
001519: 00,2063           26155                           ADS      MPAC       +1                         #  GUARANTEED NO OVERFLOW.
001520:
001521: 00,2064           34755                           CAF      ZERO
001522: 00,2065           54156                           TS       MPAC       +2
001523: 00,2066           56154                           XCH      MPAC                                  #  SETTING TO ZERO SO FOLLOWING DAS WORKS.
001524: 00,2067           00006                           EXTEND
001525: 00,2070           70135                           MP       MPTEMP
001526: 00,2071           20155                           DAS      MPAC                                  #  AGAIN NO OVERFLOW.
001527: 00,2072           00002                           TC       Q
001528:
001529: 00,2073           30135        VSHRRND            CA       MPTEMP                                #  ENTRY TO SHIFT RIGHT AND ROUND MPAC WHEN
001530: 00,2074           00006                           EXTEND                                         #  MPAC CONTAINS A VECTOR COMPONENT.
001531: 00,2075           70155                           MP       MPAC       +1
001532: 00,2076           54155                           TS       MPAC       +1
001533: 00,2077           56001                           XCH      L
001534: 00,2100           12060                           TCF      VSHR2                                 #  GO ADD ONE IF NECESSARY AND FINISH.
001535:


001537:                                                                                                  #  ROUTINE FOR SHORT SCALAR SHIFT LEFT (AND MAYBE ROUND).
001538:
001539: 00,2101           30021        TSSL               CA       SR                                    #  GET SHIFT COUNT FOR SR.
001540: 00,2102           54135                 +1        TS       MPTEMP
001541:
001542: 00,2103           00006                 +2        EXTEND                                         #  ENTRY HERE FROM SL FOR SCALARS.
001543: 00,2104           30156                           DCA      MPAC       +1                         #  SHIFTING LEFT ONE PLACE AT A TIME IS
001544: 00,2105           20156                           DAS      MPAC       +1                         #  FASTER THAN DOING THE WHOLE SHIFT WITH
001545: 00,2106           60154                           AD       MPAC                                  #  MULTIPLIES ASSUMING THAT FREQUENCY OF
001546: 00,2107           60154                           AD       MPAC                                  #  SHIFT COUNTS GOES DOWN RAPIDLY AS A
001547: 00,2110           54154                           TS       MPAC                                  #  FUNCTION OF THEIR MAGNITUDE.
001548: 00,2111           12113                           TCF      +2
001549: 00,2112           54121                           TS       OVFIND                                #  OVERFLOW.  (LEAVES OVERFLOW-CORRECTED
001550:                                                                                                  #  RESULT ANYWAY).
001551: 00,2113           10135                           CCS      MPTEMP                                #  LOOP ON DECREMENTED SHIFT COUNT.
001552: 00,2114           12102                           TCF      TSSL       +1
001553:
001554: 00,2115           10020                           CCS      CYR                                   #  SEE IF ROUND WANTED.
001555: 00,2116           07136        ROUND              TC       ROUNDSUB                              #  YES - ROUND AND EXIT.
001556: 00,2117           16061                           TCF      DANZIG                                #  SL LEAVES A ZERO IN CYR FOR NO ROUND.
001557: 00,2120           16061                           TCF      DANZIG                                #  NO - EXIT IMMEDIATL
001558:


001560:                                                                                                  #  VECTOR SHIFTING ROUTINES.
001561:
001562: 00,2121           34757        SHORTV             CAF      LOW3                                  #  SAVE 3 BIT SHIFT COUNT - 1 WITHOUT
001563: 00,2122           70020                           MASK     CYR                                   #  EDITING CYR.
001564: 00,2123           54135                           TS       MPTEMP
001565: 00,2124           10020                           CCS      CYR                                   #  SEE IF LEFT OR RIGHT SHIFT.
001566: 00,2125           12145                           TCF      VSSL                                  #  VECTOR SHIFT LEFT.
001567: 00,2126           00176        OCT176             OCT      176                                   #  USED IN PROCESSED SHIFTS WITH - COUNT.
001568:
001569: 00,2127           50135        VSSR               INDEX    MPTEMP                                #  (ENTRY FROM SR).  PICK UP SHIFTING BIT.
001570: 00,2130           34736                           CAF      BIT14                                 #  MPTEMP CONTAINS THE SHIFT COUNT - 1.
001571: 00,2131           54135                           TS       MPTEMP
001572: 00,2132           02073                           TC       VSHRRND                               #  SHIFT X COMPONENT.
001573:
001574: 00,2133           52155                           DXCH     MPAC                                  #  SWAP X AND Y COMPONENTS.
001575: 00,2134           52160                           DXCH     MPAC       +3
001576: 00,2135           52155                           DXCH     MPAC
001577: 00,2136           02073                           TC       VSHRRND                               #  SHIFT Y COMPONENT.
001578:
001579: 00,2137           52155                           DXCH     MPAC                                  #  SWAP Y AND Z COMPONENTS.
001580: 00,2140           52162                           DXCH     MPAC       +5
001581: 00,2141           52155                           DXCH     MPAC
001582: 00,2142           02073                           TC       VSHRRND                               #  SHIFT Z COMPONENT.
001583:
001584: 00,2143           17420                           TCF      VROTATEX                              #  RESTORE COMPONENTS TO PROPER PLACES.
001585:


001587:                                                                                                  #  VECTOR SHIFT LEFT - DONE ONE PLACE AT A TIME.
001588:
001589: 00,2144           54135                 -1        TS       MPTEMP                                #  SHIFTING LOOP.
001590:
001591: 00,2145           00006        VSSL               EXTEND
001592: 00,2146           30155                           DCA      MPAC
001593: 00,2147           20155                           DAS      MPAC
001594: 00,2150           00006                           EXTEND
001595: 00,2151           12153                           BZF      +2
001596: 00,2152           07017                           TC       OVERFLOW
001597:
001598: 00,2153           00006                           EXTEND
001599: 00,2154           30160                           DCA      MPAC       +3
001600: 00,2155           20160                           DAS      MPAC       +3
001601: 00,2156           00006                           EXTEND
001602: 00,2157           12161                           BZF      +2
001603: 00,2160           07014                           TC       OVERFLWY
001604:
001605: 00,2161           00006                           EXTEND
001606: 00,2162           30162                           DCA      MPAC       +5
001607: 00,2163           20162                           DAS      MPAC       +5
001608: 00,2164           00006                           EXTEND
001609: 00,2165           12167                           BZF      +2
001610: 00,2166           07011                           TC       OVERFLWZ
001611:
001612: 00,2167           10135                           CCS      MPTEMP                                #  LOOP ON DECREMENTED SHIFT COUNTER.
001613: 00,2170           12144                           TCF      VSSL       -1
001614: 00,2171           16061                           TCF      DANZIG                                #  EXIT.
001615:


001617:                                                                                                  #  TSLC - TRIPLE SHIFT LEFT AND COUNT.  SHIFTS MPAC LEFT UNTIL GREATER THAN .5 IN MAGNITUDE, LEAVING
001618:                                                                                                  #  THE COMPLEMENT OF THE NUMBER OF SHIFTS REQUIRED IN X.
001619:
001620: 00,2172           54135        TSLC2              TS       MPTEMP                                #  START BY ZEROING SHIFT COUNT (IN A NOW).
001621: 00,2173           06723                           TC       BRANCH                                #  EXIT WITH NO SHIFTING IF ARGUMENT ZERO.
001622: 00,2174           12176                           TCF      +2
001623: 00,2175           12212                           TCF      ENDTSLC                               #  STORES ZERO SHIFT COUNT IN THIS CASE.
001624:
001625: 00,2176           07257                           TC       TPAGREE                               #  MAY CAUSE UPSHIFT OF ONE EXTRA PLACE.
001626:
001627: 00,2177           30154                           CA       MPAC                                  #  BEGIN NORMALIZATION LOOP.
001628: 00,2200           12207                           TCF      TSLCTEST
001629:
001630: 00,2201           24135        TSLCLOOP           INCR     MPTEMP                                #  INCREMENT SHIFT COUNTER.
001631: 00,2202           00006                           EXTEND
001632: 00,2203           30156                           DCA      MPAC       +1
001633: 00,2204           20156                           DAS      MPAC       +1
001634: 00,2205           60154                           AD       MPAC
001635: 00,2206           26154                           ADS      MPAC
001636: 00,2207           60000        TSLCTEST           DOUBLE                                         #  SEE IF (ANOTHER) SHIFT IS REQUIRED.
001637: 00,2210           54000                           OVSK
001638: 00,2211           12201                           TCF      TSLCLOOP                              #  YES - INCREMENT COUNT AND SHIFT AGAIN.
001639:
001640: 00,2212           40135        ENDTSLC            CS       MPTEMP
001641: 00,2213           16623                           TCF      STORE1                                #  STORE SHIFT COUNT AND RETURN TO DANZIG.
001642:


001644:                                                                                                  #  THE FOLLOWING ROUTINES PROCESSES THE GENERAL SHIFT INSTRUCTIONS SR, SRR, SL, AND SLR.
001645:                                                                                                  #  THE GIVEN ADDRESS IS DECODED AS FOLLOWS:
001646:                                                                                                  #        BITS 1-7        SHIFT COUNT (SUBADDRESS) LESS THAN 125 DECIMAL.
001647:                                                                                                  #        BIT 8           PSEUDO SIGN BIT (DETECTS CHANGE IN SIGN IN INDEXED SHIFTS).
001648:                                                                                                  #        BIT 9           0 FOR LEFT SHIFT, AND 1 FOR RIGHT SHIFT.
001649:                                                                                                  #        BIT 10          1 FOR TERMINAL ROUND ON SCALAR SHIFTS, 0 OTHERWISE.
001650:                                                                                                  #        BITS 11-13      0.
001651:                                                                                                  #        BIT 14          1.
001652:                                                                                                  #        BIT 15          0.
001653:                                                                                                  #  THE ABOVE ENCODING IS DONE BY THE YUL SYSTEM.
001654:
001655: 00,2214           70116        GENSHIFT           MASK     ADDRWD                                #  GET SHIFT COUNT, TESTING FOR ZERO.
001656: 00,2215           10000                           CCS      A                                     #  (ARRIVES WITH C(A) = LOW7).
001657: 00,2216           12224                           TCF      GENSHFT2                              #  IF NON-ZERO, PROCEED WITH DECREMENTED CT
001658:
001659: 00,2217           34742                           CAF      BIT10                                 #  ZERO SHIFT COUNT.  NO SHIFTS NEEDED BUT
001660: 00,2220           70116                           MASK     ADDRWD                                #  WE MIGHT HAVE TO ROUND MPAC ON SLR AND
001661: 00,2221           10000                           CCS      A                                     #  SRR (SCALAR ONLY).
001662: 00,2222           07136                           TC       ROUNDSUB
001663: 00,2223           16061                           TCF      DANZIG
001664:
001665: 00,2224           54135        GENSHFT2           TS       MPTEMP                                #  DECREMENTED SHIFT COUNT TO MPTEMP.
001666: 00,2225           34744                           CAF      BIT8                                  #  TEST MEANING OF LOW SEVEN BIT COUNT IN
001667: 00,2226           00006                           EXTEND                                         #  MPTEMP NOW.
001668: 00,2227           70116                           MP       ADDRWD
001669: 00,2230           76245                           MASK     LOW2                                  #  JUMPS ON SHIFT DIRECTION (BIT8) AND
001670: 00,2231           50000                           INDEX    A
001671: 00,2232           12233                           TCF      +1                                    #  ORIGINAL SHIFT DIRECTION (BIT 9).
001672: 00,2233           12332                           TCF      RIGHT-                                #  NEGATIVE SHIFT COUNT FOR SL OR SLR.
001673: 00,2234           12342                           TCF      LEFT                                  #  SL OR SLR.
001674: 00,2235           12336                           TCF      LEFT-                                 #  NEGATIVE SHIFT COUNT WITH SR OR SRR.
001675:


001677:                                                                                                  #  GENERAL SHIFT RIGHT.
001678:
001679: 00,2236           10163        RIGHT              CCS      MODE                                  #  SEE IF VECTOR OR SCALAR.
001680: 00,2237           12277                           TCF      GENSCR
001681: 00,2240           12277                           TCF      GENSCR
001682:
001683: 00,2241           30135                           CA       MPTEMP                                #  SEE IF SHIFT COUNT LESS THAN 14D.
001684: 00,2242           63733        VRIGHT2            AD       NEG12
001685: 00,2243           00006                           EXTEND
001686: 00,2244           62127                           BZMF     VSSR                                  #  IF SO, BRANCH AND SHIFT IMMEDIATELY.
001687:
001688: 00,2245           67747                           AD       NEGONE                                #  IF NOT, REDUCE MPTEMP BY A TOTAL OF 14,
001689: 00,2246           54135                           TS       MPTEMP                                #  AND DO A SHIFT RIGHT AND ROUND BY 14.
001690: 00,2247           34755                           CAF      ZERO                                  #  THE ROUND AT THIS STAGE MAY INTRODUCE A
001691: 00,2250           54001                           TS       L                                     #  ONE BIT ERROR IN A SHIFT RIGHT 15D.
001692: 00,2251           56154                           XCH      MPAC
001693: 00,2252           56155                           XCH      MPAC       +1
001694: 00,2253           02272                           TC       SETROUND                              #  X COMPONENT NOW SHIFTED, SO MAKE UP THE
001695: 00,2254           20155                           DAS      MPAC                                  #  ROUNDING QUANTITY (0 IN A AND 0 OR +-1
001696:                                                                                                  #  IN L).
001697: 00,2255           56157                           XCH      MPAC       +3                         #  REPEAT THE ABOVE PROCESS FOR Y AND Z.
001698: 00,2256           56160                           XCH      MPAC       +4
001699: 00,2257           02272                           TC       SETROUND
001700: 00,2260           20160                           DAS      MPAC       +3                         #  NO OVERFLOW ON THESE ADDS.
001701:
001702: 00,2261           56161                           XCH      MPAC       +5
001703: 00,2262           56162                           XCH      MPAC       +6
001704: 00,2263           02272                           TC       SETROUND
001705: 00,2264           20162                           DAS      MPAC       +5
001706:
001707: 00,2265           10135                           CCS      MPTEMP                                #  SEE IF DONE, DOING FINAL DECREMENT.
001708: 00,2266           54135                           TS       MPTEMP
001709: 00,2267           12242                           TCF      VRIGHT2
001710: 00,2270           04604        BIASLO             DEC      .2974      B-1                        #  SQRT CONSTANT
001711:
001712: 00,2271           16061                           TCF      DANZIG
001713:
001714: 00,2272           60000        SETROUND           DOUBLE                                         #  MAKES UP ROUNDING QUANTITY FROM ARRIVING
001715: 00,2273           54156                           TS       MPAC       +2                         #  C(A).  L IS ZERO INITIALLY.
001716: 00,2274           34755                           CAF      ZERO
001717: 00,2275           56001                           XCH      L
001718: 00,2276           00002                           TC       Q                                     #  RETURN AND DO THE DAS, RESETTING L TO 0.
001719:


001721:                                                                                                  #  PROCESS SR AND SRR FOR SCALARS.
001722:
001723: 00,2277           30135        GENSCR             CA       MPTEMP                                #  SEE IF THE ORIGINAL SHIFT COUNT WAS LESS
001724: 00,2300           63733                 +1        AD       NEG12                                 #  THAN 14D.
001725: 00,2301           00006                           EXTEND
001726: 00,2302           62322                           BZMF     DOSSHFT                               #  DO THE SHIFT IMMEDIATELY IF SO.
001727:
001728: 00,2303           67747                 +4        AD       NEGONE                                #  IF NOT, DECREMENT SHIFT COUNT BY 14D AND
001729: 00,2304           54135                           TS       MPTEMP                                #  SHIFT MPAC RIGHT 14 PLACES.
001730: 00,2305           34755                           CAF      ZERO
001731: 00,2306           56154                           XCH      MPAC
001732: 00,2307           56155                           XCH      MPAC       +1
001733: 00,2310           54156                           TS       MPAC       +2
001734: 00,2311           10135                           CCS      MPTEMP                                #  SEE IF FINISHED, DO FINAL DECREMENT.
001735: 00,2312           54135                           TS       MPTEMP
001736: 00,2313           02300                           TC       GENSCR     +1
001737: 00,2314           22650        SLOPEHI            DEC      .5884                                 #  SQRT CONSTANT.
001738: 00,2315           34742                           CAF      BIT10                                 #  FINISHED WITH SHIFT.  SEE IF ROUND
001739: 00,2316           70116                           MASK     ADDRWD                                #  WANTED.
001740: 00,2317           10000                           CCS      A
001741: 00,2320           07136                           TC       ROUNDSUB
001742: 00,2321           16061                           TCF      DANZIG                                #  DO SO AND/OR EXIT.
001743:
001744: 00,2322           50135        DOSSHFT            INDEX    MPTEMP                                #  PICK UP SHIFTING BIT.
001745: 00,2323           34736                           CAF      BIT14
001746: 00,2324           54135                           TS       MPTEMP
001747: 00,2325           34742                           CAF      BIT10                                 #  SEE IF TERMINAL ROUND DESIRED.
001748: 00,2326           70116                           MASK     ADDRWD
001749: 00,2327           10000                           CCS      A
001750: 00,2330           12031                           TCF      RIGHTR                                #  YES.
001751: 00,2331           12033                           TCF      MPACSHR                               #  JUST SHIFT RIGHT.
001752:


001754:                                                                                                  #  PROCESS THE RIGHT- (SL(R) WITH A NEGATIVE COUNT), LEFT-, AND LEFT OPTIONS.
001755:
001756: 00,2332           40135        RIGHT-             CS       MPTEMP                                #  GET ABSOLUTE VALUE - 1 OF SHIFT COUNT
001757: 00,2333           62126                           AD       OCT176                                #  UNDERSTANDING THAT BIT8 (PSEUDO-SIGN)
001758: 00,2334           54135                           TS       MPTEMP                                #  WAS 1 INITIALLY.
001759: 00,2335           12236                           TCF      RIGHT                                 #  DO NORMAL SHIFT RIGHT.
001760:
001761: 00,2336           42126        LEFT-              CS       OCT176                                #  SAME PROLOGUE TO LEFT FOR INDEXED RIGHT
001762: 00,2337           60135                           AD       MPTEMP                                #  SHIFTS WHOSE NET SHIFT COUNT IS NEGATIVE
001763: 00,2340           40000                           COM
001764: 00,2341           54135                           TS       MPTEMP
001765:
001766: 00,2342           10163        LEFT               CCS      MODE                                  #  SINCE LEFT SHIFTING IS SONE ONE PLACE AT
001767: 00,2343           12346                           TCF      GENSCL                                #  A TIME, NO COMPARISON WITH 14 NEED BE
001768: 00,2344           12346                           TCF      GENSCL                                #  DONE.  FOR SCALARS, SEE IF TERMINAL ROUND
001769: 00,2345           12145                           TCF      VSSL                                  #  DESIRED.  FOR VECTORS, SHIFT IMMEDIATELY.
001770:
001771: 00,2346           40116        GENSCL             CS       ADDRWD                                #  PUT ROUNDING BIT (BIT 10 OF ADDRWD) INTO
001772: 00,2347           00006                           EXTEND                                         #  BIT 15 OF CYR WHERE THE ROUNDING BIT OF
001773: 00,2350           74746                           MP       BIT6                                  #  A SHORT SHIFT LEFT WOULD BE
001774: 00,2351           54020                           TS       CYR
001775: 00,2352           12103                           TCF      TSSL       +2                         #  DO THE SHIFT.
001776:


001778:                                                                                                  #  SCALAR DIVISION INSTRUCTIONS, DDV AND BDDV, ARE EXECUTED HERE.  AT THIS POINT, THE DIVIDEND IS IN MPAC
001779:                                                                                                  #  AND THE DIVISOR IN BUF.
001780:
001781: 00,2353           44753        DDV/BDDV           CS       ONE                                   #  INITIALIZATION.
001782: 00,2354           54136                           TS       DVSIGN                                #  +-1 FOR POSITIVE QUOTIENT - -0 FOR NEG.
001783: 00,2355           54137                           TS       DVNORMCT                              #  DIVIDEND NORMALIZATION COUNT.
001784: 00,2356           54140                           TS       MAXDVSW                               #  NEAR-ONE DIVIDE FLAG.
001785:
001786: 00,2357           10130                           CCS      BUF                                   #  FORCE BUF POSITIVE WITH THE MAJOR PART
001787: 00,2360           12516                           TCF      BUFPOS                                #  NON-ZERO.
001788: 00,2361           12363                           TCF      +2
001789: 00,2362           12531                           TCF      BUFNEG
001790:
001791: 00,2363           54156        BUFZERO            TS       MPAC       +2                         #  ZERO THIS.
001792: 00,2364           07257                           TC       TPAGREE                               #  FORCE SIGN AGREEMENT BEFORE OVERFLOW
001793:
001794: 00,2365           10154                           CCS      MPAC                                  #  TEST TO SEE IF MPAC NON-ZERO.  (TOO BIG)
001795: 00,2366           12414                           TCF      OVF+                                  #  MAJOR PART OF DIVIDEND IS POSITIVE NON-0
001796: 00,2367           12371                           TCF      +2
001797: 00,2370           12413                           TCF      OVF+       -1                         #  MAJOR PART OF DIVIDEND IS NEG. NON-ZERO
001798:
001799: 00,2371           56131                           XCH      BUF        +1                         #  SHIFT DIVIDEND AND DIVISOR LEFT 14.
001800: 00,2372           56130                           XCH      BUF
001801: 00,2373           56155                           XCH      MPAC       +1
001802: 00,2374           56154                           XCH      MPAC
001803: 00,2375           10130                           CCS      BUF                                   #  TRY AGAIN ON FORMER MINOR PART.
001804: 00,2376           12422                           TCF      BUF+
001805: 00,2377           12401                           TCF      +2                                    #  OVERFLOW ON ZERO DIVISOR.
001806: 00,2400           12416                           TCF      BUF-
001807:
001808: 00,2401           40154                           CS       MPAC                                  #  SIGN OF MPAC DETERMINES SIGN OF RESULT.
001809: 00,2402           00006        SGNDVOVF           EXTEND
001810: 00,2403           62405                           BZMF     +2
001811: 00,2404           24136                           INCR     DVSIGN                                #  NEGMAX IN MPAC PERHAPS.
001812: 00,2405           34733        DVOVF              CAF      POSMAX                                #  ON DIVISION OVERFLOW OF ANY SORT, SET
001813: 00,2406           54154                           TS       MPAC                                  #  SET DP MPAC TO +-POSMAX.
001814: 00,2407           02630                           TC       FINALDV    +3
001815: 00,2410           34753                           CAF      ONE                                   #  SET OVERFLOW INDICATOR AND EXIT.
001816: 00,2411           54121                           TS       OVFIND
001817: 00,2412           06061                           TC       DANZIG
001818:
001819: 00,2413           24136                 -1        INCR     DVSIGN
001820: 00,2414           40131        OVF+               CS       BUF        +1                         #  LOAD LOWER ORDER PART OF DIVISOR.
001821: 00,2415           12402                           TCF      SGNDVOVF                              #  GET SIGN OF RESULT.
001822:
001823: 00,2416           00006        BUF-               EXTEND                                         #  IF BUF IS NEGATIVE, COMPLEMENT IT AND
001824: 00,2417           40131                           DCS      BUF                                   #  MAINTAIN DVSIGN FOR FINAL QUOTIENT SIGN.
001825: 00,2420           52131                           DXCH     BUF
001826: 00,2421           24136                           INCR     DVSIGN                                #  NOW -0.
001827:


001829: 00,2422           10154        BUF+               CCS      MPAC                                  #  FORCE MPAC POSITIVE, CHECKING FOR ZERO
001830: 00,2423           12437                           TCF      MPAC+                                 #  DIVIDEND IN THE PROCESS.
001831: 00,2424           12426                           TCF      +2
001832: 00,2425           12433                           TCF      MPAC-
001833: 00,2426           10155                           CCS      MPAC       +1
001834: 00,2427           12437                           TCF      MPAC+
001835: 00,2430           16061                           TCF      DANZIG                                #  EXIT IMMEDIATELY ON ZERO DIVIDEND.
001836: 00,2431           12433                           TCF      MPAC-
001837: 00,2432           16061                           TCF      DANZIG
001838:
001839: 00,2433           00006        MPAC-              EXTEND                                         #  FORCE MPAC POSITIVE AS BUF IN BUF-.
001840: 00,2434           40155                           DCS      MPAC
001841: 00,2435           52155                           DXCH     MPAC
001842: 00,2436           24136                           INCR     DVSIGN                                #  NOW +1 OR -0.
001843:


001845: 00,2437           40154        MPAC+              CS       MPAC                                  #  CHECK FOR DIVISION OVERFLOW.  IF THE
001846: 00,2440           67747                           AD       NEGONE                                #  MAJOR PART OF THE DIVIDEND IS LESS THAN
001847: 00,2441           60130                           AD       BUF                                   #  THE MAJOR PART OF THE DIVISOR BY AT
001848: 00,2442           10000                           CCS      A                                     #  LEAST TWO, WE CAN PROCEED IMMEDIATELY
001849: 00,2443           12505                           TCF      DVNORM                                #  WITHOUT NORMALIZATION PRODUCING A DVMAX.
001850: 00,2444           60001        -1/2+2             OCT      60001                                 #  USED IN SQRTSUB.
001851:
001852: 00,2445           12446                           TCF      +1                                    #  IF THE ABOVE DOES NOT HOLD, FORCE SIGN
001853: 00,2446           34736                           CAF      HALF                                  #  AGREEMENT IN NUMERATOR AND DENOMINATOR
001854: 00,2447           60000                           DOUBLE                                         #  TO FACILITATE OVERFLOW AND NEAR-ONE
001855: 00,2450           60155                           AD       MPAC       +1                         #  CHECKING.
001856: 00,2451           54155                           TS       MPAC       +1
001857: 00,2452           34755                           CAF      ZERO
001858: 00,2453           64733                           AD       POSMAX
001859: 00,2454           26154                           ADS      MPAC
001860:
001861: 00,2455           34736                           CAF      HALF                                  #  SAME FOR BUF.
001862: 00,2456           60000                           DOUBLE
001863: 00,2457           60131                           AD       BUF        +1
001864: 00,2460           54131                           TS       BUF        +1
001865: 00,2461           34755                           CAF      ZERO
001866: 00,2462           64733                           AD       POSMAX
001867: 00,2463           26130                           ADS      BUF
001868:
001869: 00,2464           40154                           CS       MPAC                                  #  CHECK MAGNITUDE OF SIGN-CORRECTED
001870: 00,2465           60130                           AD       BUF                                   #  OPERANDS.
001871: 00,2466           10000                           CCS      A
001872: 00,2467           12505                           TCF      DVNORM                                #  DIVIDE OK - WILL NOT BECOME MAXDV CASE.
001873: 00,2470           00133        LBUF2              ADRES    BUF2
001874: 00,2471           12405                           TCF      DVOVF                                 #  DIVISOR NOT LESS THAN DIVIDEND - OVF.
001875:
001876: 00,2472           54140                           TS       MAXDVSW                               #  IF THE MAJOR PARTS OF THE DIVIDEND AND
001877: 00,2473           40155                           CS       MPAC       +1                         #  DIVISOR ARE EQUAL, A SPECIAL APPROXIMA-
001878: 00,2474           60131                           AD       BUF        +1                         #  TION IS USED (PROVIDED THE DIVISION IS
001879: 00,2475           00006                           EXTEND                                         #  POSSIBLE, OF COURSE).
001880: 00,2476           62405                           BZMF     DVOVF
001881: 00,2477           12505                           TCF      DVNORM                                #  IF NO OVERFLOW.
001882:


001884: 00,2500           00006        BUFNORM            EXTEND                                         #  ADD -1 TO AUGMENT SHIFT COUNT AND SHIFT
001885: 00,2501           24137                           AUG      DVNORMCT                              #  LEFT ONE PLACE.
001886: 00,2502           00006                           EXTEND
001887: 00,2503           30131                           DCA      BUF
001888: 00,2504           20131                           DAS      BUF
001889:
001890: 00,2505           30130        DVNORM             CA       BUF                                   #  SEE IF DIVISOR NORMALIZED YET.
001891: 00,2506           60000                           DOUBLE
001892: 00,2507           54000                           OVSK
001893: 00,2510           12500                           TCF      BUFNORM                               #  NO - SHIFT LEFT ONE AND TRY AGAIN.
001894:
001895: 00,2511           52155                           DXCH     MPAC                                  #  CALL DIVIDEND NORMALIZATION SEQUENCE
001896: 00,2512           50137                           INDEX    DVNORMCT                              #  PRIOR TO DOING THE DIVIDE.
001897: 00,2513           02565                           TC       MAXTEST
001898:
001899: 00,2514           54156                           TS       MPAC       +2                         #  RETURNS WITH DIVISION DONE AND C(A) = 0.
001900: 00,2515           16061                           TCF      DANZIG
001901:
001902: 00,2516           10000        BUFPOS             CCS      A
001903: 00,2517           12422                           TCF      BUF+                                  #  TO BUF+ IF BUF IS GREATER THAN +1.
001904:
001905: 00,2520           40131                           CS       BUF        +1                         #  IF BUF IS +1, FORCING SIGN AGREEMENT
001906: 00,2521           00006                           EXTEND                                         #  MAY CAUSE BUF TO BECOME ZERO.
001907: 00,2522           62422                           BZMF     BUF+                                  #  BRANCH IF SIGNS AGREE.
001908:
001909: 00,2523           34736                           CA       HALF                                  #  SIGNS DISAGREE.  FORCE AGREEMENT.
001910: 00,2524           60000                 +6        DOUBLE
001911: 00,2525           26131                           ADS      BUF        +1
001912: 00,2526           34755                           CA       ZERO
001913: 00,2527           54130                           TS       BUF
001914: 00,2530           12363                           TCF      BUFZERO
001915:
001916: 00,2531           10000        BUFNEG             CCS      A
001917: 00,2532           12416                           TCF      BUF-                                  #  TO BUF- IF BUF IS LESS THAN -1.
001918:
001919: 00,2533           30131                           CA       BUF        +1                         #  IF BUF IS -1, FORCING SIGN AGREEMENT
001920: 00,2534           00006                           EXTEND                                         #  MAY CAUSE BUF TO BECOME ZERO.
001921: 00,2535           62416                           BZMF     BUF-                                  #  BRANCH IF SIGNS AGREE.
001922:
001923: 00,2536           44736                           CS       HALF                                  #  SIGNS DISAGREE.  FORCE AGREEMENT.
001924: 00,2537           12524                           TCF      BUFPOS     +6
001925:


001927:                                                                                                  #  THE FOLLOWING ARE PROLOGUES TO SHIFT THE DIVIDEND ARRIVING IN A AND L BEFORE THE DIVIDE.
001928:
001929: 00,2540           22021                 -21D      LXCH     SR                                    #  SPECIAL PROLOGUE FOR UNIT WHEN THE
001930: 00,2541           00006                           EXTEND                                         #  LENGTH OF THE ARGUMENT WAS NOT LESS THAN
001931: 00,2542           74736                           MP       HALF                                  #  .5.  IN THIS CASE, EACH COMPONENT MUST BE
001932: 00,2543           56001                           XCH      L                                     #  SHIFTED RIGHT ONE TO PRODUCE A HALF-UNIT
001933: 00,2544           60021                           AD       SR                                    #  VECTOR.
001934: 00,2545           56001                           XCH      L
001935: 00,2546           12571                           TCF      GENDDV     +1                         #  WITH DP DIVIDEND IN A,L.
001936:
001937: 00,2547           20001                           DDOUBL                                         #  PROLOGUE WHICH NORMALIZES THE DIVIDEND
001938: 00,2550           20001                           DDOUBL                                         #  WHEN IT IS KNOWN THAT NO DIVISION
001939: 00,2551           20001                           DDOUBL                                         #  OVERFLOW WILL OCCUR.
001940: 00,2552           20001                           DDOUBL
001941: 00,2553           20001                           DDOUBL
001942: 00,2554           20001                           DDOUBL
001943: 00,2555           20001                           DDOUBL
001944: 00,2556           20001                           DDOUBL
001945: 00,2557           20001                           DDOUBL
001946: 00,2560           20001                           DDOUBL
001947: 00,2561           20001                           DDOUBL
001948: 00,2562           20001                           DDOUBL
001949: 00,2563           20001                           DDOUBL
001950: 00,2564           52155                           DXCH     MPAC
001951:
001952: 00,2565           10140        MAXTEST            CCS      MAXDVSW                               #  0 IF MAJORS MIGHT BE =, -1 OTHERWISE.
001953: 00,2566           06552        BIASHI             DEC      .4192      B-1                        #  SQRT CONSTANTS
001954:
001955: 00,2567           12642                           TCF      MAXDV                                 #  CHECK TO SEE IF THEY ARE NOW EQUAL.
001956:


001958:                                                                                                  #  THE FOLLOWING IS A GENERAL PURPOSE DOUBLE PRECISION DIVISION ROUTINE.  IT DIVIDES MPAC BY BUF AND LEAVES
001959:                                                                                                  #  THE RESULT IN MPAC.  THE FOLLOWING CONDITIONS MUST BE SATISFIED:
001960:
001961:                                                                                                  #        1.      THE DIVISOR (BUF) MUST BE POSITIVE AND NOT LESS THAN .5.
001962:
001963:                                                                                                  #        2.      THE DIVIDEND (MPAC) MUST BE POSITIVE WITH THE MAJOR PART OF MPAC STRICTLY LESS THAN THAT OF BUF
001964:                                                                                                  #                (A SPECIAL APPROXIMATION, MAXDV, IS USED WHEN THE MAJOR PARTS ARE EQUAL).
001965:
001966:                                                                                                  #  UNDERSTANDING THAT A/B = Q + S(R/B) WHERE S = 2(-14) AND Q AND R ARE QUOTIENT AND REMAINDER, RESPEC-
001967:                                                                                                  #  TIVELY, THE FOLLOWING APPROXIMATION IS OBTAINED BY MULTIPLYING ABOVE AND BELOW BY C - SD AND NEGLECTING TERMS OF
001968:                                                                                                  #  ORDER S-SQUARED (POSSIBLY INTRODUCING ERROR INTO THE LOW TWO BITS OF THE RESULT).  SIGN AGREEMENT IS UNNECESSARY.
001969:
001970:                                                                                                  #        A + SB .      (R - QD)                                             A + SB
001971:                                                                                                  #        ------ = Q + S(------) WHERE Q AND R ARE QUOTIENT AND REMAINDER OF ------ RESPECTIVELY.
001972:                                                                                                  #        C + SD        (  C   )                                                C
001973:
001974: 00,2570           52155        GENDDV             DXCH     MPAC                                  #  WE NEED A AND B ONLY FOR FIRST DV.
001975: 00,2571           00006                 +1        EXTEND                                         #  (SPECIAL UNIT PROLOGUE ENTERS HERE).
001976: 00,2572           10130                           DV       BUF                                   #  A NOW CONTAINS Q AND L, R.
001977: 00,2573           52155                           DXCH     MPAC
001978:
001979: 00,2574           40154                           CS       MPAC                                  #  FORM DIVIDEND FOR MINOR PART OF RESULT.
001980: 00,2575           00006                           EXTEND
001981: 00,2576           70131                           MP       BUF        +1
001982: 00,2577           60155                           AD       MPAC       +1                         #  OVERFLOW AT THIS POINT IS POSITIVE SINCE
001983: 00,2600           54000                           OVSK                                           #  R IS POSITIVE IN EVERY CASE.
001984: 00,2601           12606                           TCF      +5
001985:
001986: 00,2602           00006                           EXTEND                                         #  OVERFLOW CAN BE REMOVED BY SUBTRACTING C
001987: 00,2603           60130                           SU       BUF                                   #  (BUF) ONCE SINCE R IS ALWAYS LESS THAN C
001988: 00,2604           24154                           INCR     MPAC                                  #  IN THIS CASE.  INCR COMPENSATES SUBTRACT.
001989: 00,2605           12610                           TCF      +DOWN                                 #  (SINCE C(A) IS STILL POSITIVE).
001990:
001991: 00,2606           00006                 +5        EXTEND                                         #  C(A) CAN BE MADE LESS THAN C IN MAGNI-
001992: 00,2607           62620                           BZMF     -UP                                   #  TUDE BY DIMINISHING IT BY C (SINCE C IS
001993:                                                                                                  #  NOT LESS THAN .5) UNLESS C(A) = 0.
001994:


001996: 00,2610           00006        +DOWN              EXTEND
001997: 00,2611           60130                           SU       BUF                                   #  IF POSITIVE, REDUCE ONLY IF NECESSARY
001998: 00,2612           00006                           EXTEND                                         #  SINCE THE COMPENSATING INCR MIGHT CAUSE
001999: 00,2613           12616                           BZF      +3                                    #  OVERFLOW.
002000: 00,2614           00006                           EXTEND                                         #  DONT SUBTRACT UNLESS RESULT IS POSITIVE
002001: 00,2615           62624                           BZMF     ENDMAXDV                              #  OR ZERO.
002002:
002003: 00,2616           24154                 +3        INCR     MPAC                                  #  KEEP SUBTRACT HERE AND COMPENSATE.
002004: 00,2617           12625                           TCF      FINALDV
002005:
002006: 00,2620           00006        -UP                EXTEND                                         #  IF ZERO, SET MINOR PART OF RESULT TO
002007: 00,2621           12630                           BZF      FINALDV    +3                         #  ZERO.
002008:
002009: 00,2622           00006                           EXTEND                                         #  IF NEGATIVE, ADD C TO A, SUBTRACTING ONE
002010: 00,2623           26154                           DIM      MPAC                                  #  TO COMPENSATE.  DIM IS OK HERE SINCE THE
002011: 00,2624           60130        ENDMAXDV           AD       BUF                                   #  MAJOR PART NEVER GOES NEGATIVE.
002012:


002014: 00,2625           22007        FINALDV            ZL                                             #  DO DV TO OBTAIN MINOR PART OF RESULT.
002015: 00,2626           00006                           EXTEND
002016: 00,2627           10130                           DV       BUF
002017: 00,2630           54155                 +3        TS       MPAC       +1
002018:
002019: 00,2631           10136                           CCS      DVSIGN                                #  LEAVE RESULT POSITIVE UNLESS C(DVSIGN)=
002020: 00,2632           00002                           TC       Q                                     #  -0.
002021: 00,2633           00002                           TC       Q
002022: 00,2634           00002                           TC       Q
002023:
002024: 00,2635           00006                           EXTEND
002025: 00,2636           40155                           DCS      MPAC
002026: 00,2637           52155                           DXCH     MPAC
002027: 00,2640           34755                           CAF      ZERO                                  #  SO WE ALWAYS RETURN WITH C(A) = 0.
002028: 00,2641           00002                           TC       Q
002029:


002031:                                                                                                  #  IF THE MAJOR PARTS OF THE DIVISOR AND DIVIDEND ARE EQUAL, BUT THE MINOR PARTS ARE SUCH THAT THE
002032:                                                                                                  #  DIVIDEND IS STRICTLY LESS THAN THE DIVISOR IN MAGNITUDE, THE FOLLOWING APPROXIMATION IS USED.  THE ASSUMPTIONS
002033:                                                                                                  #  ARE THE SAME AS THE GENERAL ROUTINE WITH THE ADDITION THAT SIGN AGREEMENT IS NECESSARY (B, C, & D POSITIVE).
002034:
002035:                                                                                                  #        C + SB .          (C + B - D)
002036:                                                                                                  #        ------ = 37777 + S(---------)
002037:                                                                                                  #        C + SD            (    C    )
002038:
002039:                                                                                                  #  THE DIVISION MAY BE PERFORMED IMMEDIATELY SINCE B IS STRICTLY LESS THAN D AND C IS NOT LESS THAN .5.
002040:
002041: 00,2642           40154        MAXDV              CS       MPAC                                  #  SEE IF MAXDV CASE STILL HOLDS AFTER
002042: 00,2643           60130                           AD       BUF                                   #  NORMALIZATION.
002043: 00,2644           00006                           EXTEND
002044: 00,2645           12647                           BZF      +2
002045: 00,2646           12570                           TCF      GENDDV                                #  MPAC NOW LESS THAN BUF - DIVIDE AS USUAL
002046:
002047: 00,2647           34733                 +2        CAF      POSMAX                                #  SET MAJOR PART OF RESULT.
002048: 00,2650           54154                           TS       MPAC
002049:
002050: 00,2651           40131                           CS       BUF        +1                         #  FORM DIVIDEND OF MINOR PART OF RESULT.
002051: 00,2652           60155                           AD       MPAC       +1
002052: 00,2653           12624                           TCF      ENDMAXDV                              #  GO ADD C AND DO DIVIDE, ATTACHING SIGN
002053:                                                                                                  #  BEFORE EXITING.
002054:


002056:                                                                                                  #  VECTOR DIVIDED BY SCALAR, V/SC, IS EXECUTED HERE.  THE VECTOR IS NOW IN MPAC WITH SCALAR IN BUF.
002057:
002058: 00,2654           44753        V/SC2              CS       ONE                                   #  INITIALIZE DIVIDEND NORMALIZATION COUNT
002059: 00,2655           54137                           TS       DVNORMCT                              #  AND DIVISION SIGN REGISTER.
002060: 00,2656           54127                           TS       VBUF       +5
002061:
002062: 00,2657           03010                           TC       VECAGREE                              #  FORCE SIGN AGREEMENT IN VECTOR
002063:
002064: 00,2660           52131                           DXCH     BUF
002065: 00,2661           07544                           TC       ALSIGNAG                              #  SIGN AGREE BUF
002066: 00,2662           52131                           DXCH     BUF
002067: 00,2663           10130                           CCS      BUF                                   #  FORCE DIVISOR POSITIVE WITH MAJOR PART
002068: 00,2664           12721                           TCF      /BUF+                                 #  NON-ZERO (IF POSSIBLE).
002069: 00,2665           12667                           TCF      +2
002070: 00,2666           12715                           TCF      /BUF-
002071:
002072: 00,2667           56131                           XCH      BUF        +1                         #  SHIFT VECTOR AND SCALAR LEFT 14.
002073: 00,2670           56130                           XCH      BUF
002074: 00,2671           56155                           XCH      MPAC       +1
002075: 00,2672           56154                           XCH      MPAC
002076: 00,2673           00006                           EXTEND                                         #  CHECK FOR OVERFLOW IN EACH CASE.
002077: 00,2674           12676                           BZF      +2
002078: 00,2675           12405                           TCF      DVOVF
002079:
002080: 00,2676           56160                           XCH      MPAC       +4
002081: 00,2677           56157                           XCH      MPAC       +3
002082: 00,2700           00006                           EXTEND
002083: 00,2701           12703                           BZF      +2
002084: 00,2702           12405                           TCF      DVOVF
002085:
002086: 00,2703           56162                           XCH      MPAC       +6
002087: 00,2704           56161                           XCH      MPAC       +5
002088: 00,2705           00006                           EXTEND
002089: 00,2706           12710                           BZF      +2
002090: 00,2707           12405                           TCF      DVOVF
002091:
002092: 00,2710           10130                           CCS      BUF
002093: 00,2711           12721                           TCF      /BUF+
002094: 00,2712           12405                           TCF      DVOVF                                 #  ZERO DIVISOR - OVERFLOW.
002095: 00,2713           12715                           TCF      /BUF-
002096: 00,2714           12405                           TCF      DVOVF
002097:
002098: 00,2715           00006        /BUF-              EXTEND                                         #  ON NEGATIVE, COMPLEMENT BUF AND MAINTAIN
002099: 00,2716           40131                           DCS      BUF                                   #  DVSIGN IN VBUF +5.
002100: 00,2717           52131                           DXCH     BUF
002101: 00,2720           24127                           INCR     VBUF       +5
002102:


002104: 00,2721           00006        /BUF+              EXTEND
002105: 00,2722           30131                           DCA      BUF                                   #  LEAVE ABS(ORIG DIVISOR) IN BUF2
002106: 00,2723           52134                           DXCH     BUF2                                  #  FOR OVERFLOW TESTING
002107: 00,2724           12732                           TCF      /NORM                                 #  NORMALIZE DIVISOR IN BUF.
002108:
002109: 00,2725           00006        /NORM2             EXTEND                                         #  IF LESS THAN .5, AUGMENT DVNORMCT AND
002110: 00,2726           24137                           AUG      DVNORMCT                              #  DOUBLE DIVISOR.
002111: 00,2727           00006                           EXTEND
002112: 00,2730           30131                           DCA      BUF
002113: 00,2731           20131                           DAS      BUF
002114:
002115: 00,2732           30130        /NORM              CA       BUF                                   #  SEE IF DIVISOR NORMALIZED.
002116: 00,2733           60000                           DOUBLE
002117: 00,2734           54000                           OVSK
002118: 00,2735           12725                           TCF      /NORM2                                #  DOUBLE AND TRY AGAIN IF NOT.
002119:
002120: 00,2736           02750                           TC       V/SCDV                                #  DO X COMPONENT DIVIDE.
002121: 00,2737           52160                           DXCH     MPAC       +3                         #  SUPPLY ARGUMENTS IN USUAL SEQUENCE.
002122: 00,2740           52155                           DXCH     MPAC
002123: 00,2741           52160                           DXCH     MPAC       +3
002124:
002125: 00,2742           02750                           TC       V/SCDV                                #  Y COMPONENT.
002126: 00,2743           52162                           DXCH     MPAC       +5
002127: 00,2744           52155                           DXCH     MPAC
002128: 00,2745           52162                           DXCH     MPAC       +5
002129:
002130: 00,2746           02750                           TC       V/SCDV                                #  Z COMPONENT.
002131: 00,2747           17420                           TCF      VROTATEX                              #  GO RE-ARRANGE COMPONENTS BEFORE EXIT.
002132:


002134:                                                                                                  #  SUBROUTINE USED BY V/SC TO DIVIDE VECTOR COMPONENT IN MPAC,+1 BY THE SCALAR GIVEN IN BUF.
002135:
002136: 00,2750           30127        V/SCDV             CA       VBUF       +5                         #  REFLECTS SIGN OF SCALAR.
002137: 00,2751           54136                           TS       DVSIGN
002138:
002139: 00,2752           10154                           CCS      MPAC                                  #  FORCE MPAC POSITIVE, EXITING ON ZERO.
002140: 00,2753           12767                           TCF      /MPAC+
002141: 00,2754           12756                           TCF      +2
002142: 00,2755           12763                           TCF      /MPAC-
002143:
002144: 00,2756           10155                           CCS      MPAC       +1
002145: 00,2757           12767                           TCF      /MPAC+
002146: 00,2760           00002                           TC       Q
002147: 00,2761           12763                           TCF      /MPAC-
002148: 00,2762           00002                           TC       Q
002149:
002150: 00,2763           00006        /MPAC-             EXTEND                                         #  USUAL COMPLEMENTING AND SETTING OF SIGN.
002151: 00,2764           40155                           DCS      MPAC
002152: 00,2765           52155                           DXCH     MPAC
002153: 00,2766           24136                           INCR     DVSIGN
002154:
002155: 00,2767           44753        /MPAC+             CS       ONE                                   #  INITIALIZE NEAR-ONE SWITCH.
002156: 00,2770           54140                           TS       MAXDVSW
002157:
002158: 00,2771           40154                           CS       MPAC                                  #  CHECK POSSIBLE OVERFLOW.
002159: 00,2772           60133                           AD       BUF2                                  #  UNNORMALIZED INPUT DIVISOR.
002160: 00,2773           10000                           CCS      A
002161: 00,2774           13004                           TCF      DDVCALL                               #  NOT NEAR-ONE
002162: 00,2775           12777                           TCF      +2                                    #  +0 IS JUST POSSIBLE
002163: 00,2776           12405                           TCF      DVOVF                                 #  NO HOPE
002164: 00,2777           54140                           TS       MAXDVSW                               #  SIGNAL POSSIBLE NEAR-ONE CASE
002165: 00,3000           40155                           CS       MPAC       +1                         #  SEE IF DIVISION CAN BE DONE
002166: 00,3001           60134                           AD       BUF2       +1
002167: 00,3002           00006                           EXTEND
002168: 00,3003           62405                           BZMF     DVOVF
002169:
002170: 00,3004           52155        DDVCALL            DXCH     MPAC                                  #  CALL PRE-DIVIDE NORMALIZATION.
002171: 00,3005           50137                           INDEX    DVNORMCT
002172: 00,3006           12565                           TCF      MAXTEST
002173:


002175: 00,3007           32506        SLOPELO            DEC      .8324
002176:
002177: 00,3010           56002        VECAGREE           XCH      Q                                     #  SAVE Q IN A
002178: 00,3011           52155                           DXCH     MPAC
002179: 00,3012           07544                           TC       ALSIGNAG                              #  SIGNAGREE MPAC
002180: 00,3013           52155                           DXCH     MPAC
002181: 00,3014           52160                           DXCH     MPAC       +3
002182: 00,3015           07544                           TC       ALSIGNAG                              #  SIGN AGREE MPAC +3
002183: 00,3016           52160                           DXCH     MPAC       +3
002184: 00,3017           52162                           DXCH     MPAC       +5
002185: 00,3020           07544                           TC       ALSIGNAG                              #  SIGNAGREE MPAC +5
002186: 00,3021           52162                           DXCH     MPAC       +5
002187: 00,3022           00000                           TC       A
002188:


002190:                                                                                                  #  THE FOLLOWING ROUTINE EXECUTES THE UNIT INSTRUCTION, WHICH TAKES THE UNIT OF THE VECTOR IN MPAC.
002191:
002192: 00,3023           03010        UNIT               TC       VECAGREE                              #  FORCE SIGN AGREEMENT IN VECTOR
002193: 00,3024           07532                           TC       MPACVBUF                              #  SAVE ARGUMENT IN VBUF
002194: 00,3025           34755                           CAF      ZERO                                  #  MUST SENSE OVERFLOW IN FOLLOWING DOT.
002195: 00,3026           56121                           XCH      OVFIND
002196: 00,3027           54141                           TS       TEM1
002197: 00,3030           03317                           TC       VSQSUB                                #  DOT MPAC WITH ITSELF.
002198: 00,3031           30141                           CA       TEM1
002199: 00,3032           56121                           XCH      OVFIND
002200: 00,3033           00006                           EXTEND
002201: 00,3034           13036                           BZF      +2
002202: 00,3035           12405                           TCF      DVOVF
002203: 00,3036           00006                           EXTEND
002204: 00,3037           30155                           DCA      MPAC                                  #  LEAVE THE SQUARE OF THE LENGTH OF THE
002205: 00,3040           50120                           INDEX    FIXLOC                                #  ARGUMENT IN LVSQUARE.
002206: 00,3041           52043                           DXCH     LVSQUARE
002207:
002208: 00,3042           03343                           TC       SQRTSUB                               #  GO TAKE THE NORMALIZED SQUARE ROOT.
002209:
002210: 00,3043           10154                           CCS      MPAC                                  #  CHECK FOR UNIT OVERFLOW.
002211: 00,3044           13051                           TCF      +5                                    #  MPAC IS NOT LESS THAN .5 UNLESS
002212: 00,3045           54001                           TS       L
002213: 00,3046           50120                           INDEX    FIXLOC
002214: 00,3047           52045                           DXCH     LV
002215: 00,3050           12405                           TCF      DVOVF                                 #  INPUT TO SQRTSUB WAS 0.
002216:
002217: 00,3051           44317                           CS       FOURTEEN                              #  SEE IF THE INPUT WAS SO SMALL THE THE
002218: 00,3052           60135                           AD       MPTEMP                                #  FIRST TWO REGISTERS OF THE SQUARE WERE 0
002219: 00,3053           10000                           CCS      A
002220: 00,3054           40000                           COM                                            #  IF SO, SAVE THE NEGATIVE OF THE SHIFT
002221: 00,3055           13133                           TCF      SMALL                                 #  COUNT -15D.
002222:
002223: 00,3056           13065                           TCF      LARGE                                 #  (THIS IS USUALLY THE CASE.)
002224:
002225: 00,3057           44761                           CS       THIRTEEN                              #  IF THE SHIFT COUNT WAS EXACTLY 14, SET
002226: 00,3060           54135                           TS       MPTEMP                                #  THE PRE-DIVIDE NORM COUNT TO -13D.
002227:
002228: 00,3061           30154                           CA       MPAC                                  #  SHIFT THE LENGTH RIGHT 14 BEFORE STORING
002229: 00,3062           54001        SMALL2             TS       L                                     #  (SMALL EXITS TO THIS POINT).
002230: 00,3063           34755                           CAF      ZERO
002231: 00,3064           13112                           TCF      LARGE2                                #  GO TO STORE LENGTH AND PROCEED.
002232:
002233: 00,3065           10135        LARGE              CCS      MPTEMP                                #  MOST ALL CASES COME HERE.
002234: 00,3066           13074                           TCF      LARGE3                                #  SEE IF NO NORMALIZATION WAS REQUIRED BY
002235:
002236: 00,3067           42024                           CS       SRDDV                                 #  SQRT, AND IF SO, SET UP FOR A SHIFT
002237: 00,3070           54135                           TS       MPTEMP                                #  RIGHT 1 BEFORE DIVIDING TO PRODUCE
002238: 00,3071           00006                           EXTEND                                         #  THE DESIRED HALF UNIT VECTOR.
002239: 00,3072           30155                           DCA      MPAC


002241: 00,3073           13112                           TCF      LARGE2
002242:


002244: 00,3074           40000        LARGE3             COM                                            #  LEAVE NEGATIVE OF SHIFT COUNT-1 FOR
002245: 00,3075           54135                           TS       MPTEMP                                #  PREDIVIDE LEFT SHIFT.
002246:
002247: 00,3076           40000                           COM                                            #  PICK UP REQUIRED SHIFTING BIT TO UNNORM-
002248: 00,3077           50000                           INDEX    A                                     #  ALIZE THE SQRT RESULT.
002249: 00,3100           34736                           CAF      BIT14
002250: 00,3101           54130                           TS       BUF
002251: 00,3102           00006                           EXTEND
002252: 00,3103           70155                           MP       MPAC       +1
002253: 00,3104           56130                           XCH      BUF
002254: 00,3105           00006                           EXTEND                                         #  (UNNORMALIZE THE SQRT FOR LV).
002255: 00,3106           70154                           MP       MPAC
002256: 00,3107           56001                           XCH      L
002257: 00,3110           60130                           AD       BUF
002258: 00,3111           56001                           XCH      L
002259:
002260: 00,3112           50120        LARGE2             INDEX    FIXLOC
002261: 00,3113           52045                           DXCH     LV                                    #  LENGTH NOW STORED IN WORK AREA.
002262:
002263: 00,3114           44753                           CS       ONE
002264: 00,3115           54140                           TS       MAXDVSW                               #  NO MAXDV CASES IN UNIT.
002265:
002266: 00,3116           52123                           DXCH     VBUF                                  #  PREPARE X COMPONENT FOR DIVIDE, SETTING
002267: 00,3117           52155                           DXCH     MPAC                                  #  LENGTH OF VECTOR AS DIVISOR IN BUF.
002268: 00,3120           52131                           DXCH     BUF
002269: 00,3121           03151                           TC       UNITDV
002270:
002271: 00,3122           52125                           DXCH     VBUF       +2                         #  DO Y AND Z IN USUAL FASHION SO WE CAN
002272: 00,3123           52155                           DXCH     MPAC                                  #  EXIT THROUGH VROTATEX.
002273: 00,3124           52160                           DXCH     MPAC       +3
002274: 00,3125           03151                           TC       UNITDV
002275:
002276: 00,3126           52127                           DXCH     VBUF       +4
002277: 00,3127           52155                           DXCH     MPAC
002278: 00,3130           52162                           DXCH     MPAC       +5
002279: 00,3131           03151                           TC       UNITDV
002280: 00,3132           17420                           TCF      VROTATEX                              #  AND EXIT.
002281:


002283:                                                                                                  #  IF THE LENGTH OF THE ARGUMENT VECTOR WAS LESS THAN 2(-28), EACH COMPONENT MUST BE SHIFTED LEFT AT LEAST
002284:                                                                                                  #  14 PLACES BEFORE THE DIVIDE. NOTE THAT IN THIS CASE, THE MAJOR PART OF EACH COMPONENT IS ZERO.
002285:
002286: 00,3133           54135        SMALL              TS       MPTEMP                                #  NEGATIVE OF PRE-DIVIDE SHIFT COUNT.
002287:
002288: 00,3134           34755                           CAF      ZERO                                  #  SHIFT EACH COMPONENT LEFT 14.
002289: 00,3135           56123                           XCH      VBUF       +1
002290: 00,3136           56122                           XCH      VBUF
002291: 00,3137           56125                           XCH      VBUF       +3
002292: 00,3140           56124                           XCH      VBUF       +2
002293: 00,3141           56127                           XCH      VBUF       +5
002294: 00,3142           56126                           XCH      VBUF       +4
002295:
002296: 00,3143           40135                           CS       MPTEMP
002297: 00,3144           50000                           INDEX    A
002298: 00,3145           34736                           CAF      BIT14
002299: 00,3146           00006                           EXTEND
002300: 00,3147           70154                           MP       MPAC
002301: 00,3150           13062                           TCF      SMALL2
002302:
002303: 00,3151     4761               THIRTEEN           =        OCT15
002304: 00,3151     4317               FOURTEEN           =        OCT16
002305: 00,3151     4317               OCT16              =        R1D1
002306:


002308:                                                                                                  #  THE FOLLOWING ROUTINE SETS UP THE CALL TO THE DIVIDE ROUTINES.
002309:
002310: 00,3151           10154        UNITDV             CCS      MPAC                                  #  FORCE MPAC POSITIVE IF POSSIBLE, SETTING
002311: 00,3152           13170                           TCF      UMPAC+                                #  DVSIGN ACCORDING TO THE SIGN OF MPAC
002312: 00,3153           13155                           TCF      +2                                    #  SINCE THE DIVISOR IS ALWAYS POSITIVE
002313: 00,3154           13162                           TCF      UMPAC-                                #  HERE.
002314:
002315: 00,3155           10155                           CCS      MPAC       +1
002316: 00,3156           13170                           TCF      UMPAC+
002317: 00,3157           00002                           TC       Q                                     #  EXIT IMMEDIATELY ON ZERO.
002318: 00,3160           13162                           TCF      UMPAC-
002319: 00,3161           00002                           TC       Q
002320:
002321: 00,3162           44755        UMPAC-             CS       ZERO                                  #  IF NEGATIVE, SET -0 IN DVSIGN FOR FINAL
002322: 00,3163           54136                           TS       DVSIGN                                #  COMPLEMENT.
002323: 00,3164           00006                           EXTEND
002324: 00,3165           40155                           DCS      MPAC                                  #  PICK UP ABSOLUTE VALUE OF ARG AND JUMP.
002325: 00,3166           50135                           INDEX    MPTEMP
002326: 00,3167           12564                           TCF      MAXTEST    -1
002327:
002328: 00,3170           54136        UMPAC+             TS       DVSIGN                                #  SET DVSIGN FOR POSITIVE QUOTIENT.
002329: 00,3171           52155                           DXCH     MPAC
002330: 00,3172           50135                           INDEX    MPTEMP
002331: 00,3173           12564                           TCF      MAXTEST    -1
002332:


002334:                                                                                                  #  MISCELLANEOUS UNARY OPERATIONS.
002335:
002336: 00,3174           03300        DSQ                TC       DSQSUB                                #  SQUARE THE DP CONTENTS OF MPAC.
002337: 00,3175           16061                           TCF      DANZIG
002338:
002339: 00,3176           10163        ABVALABS           CCS      MODE                                  #  ABVAL OR ABS INSTRUCTION.
002340: 00,3177           13226                           TCF      ABS                                   #  DO ABS ON SCALAR.
002341: 00,3200           13226                           TCF      ABS
002342:
002343: 00,3201           03317        ABVAL              TC       VSQSUB                                #  DOT MPAC WITH ITSELF.
002344: 00,3202           22163                           LXCH     MODE                                  #  MODE IS NOW DP (L ZERO AFTER DAS).
002345:
002346: 00,3203           00006                           EXTEND                                         #  STORE SQUARE OF LENGTH IN WORK AREA.
002347: 00,3204           30155                           DCA      MPAC
002348: 00,3205           50120                           INDEX    FIXLOC
002349: 00,3206           52043                           DXCH     LVSQUARE
002350:


002352:                                                                                                  #  PROGRAM DESCRIPTION - SUBROUTINE SQRT
002353:
002354:                                                                                                  #  FUNCTIONAL DESCRIPTION - DOUBLE PRECISION SQUARE ROOT ROUTINE
002355:                                                                                                  #        THIS PROGRAM TAKES THE SQUARE ROOT OF THE 27 OR 28 MOST SIGNIFICANT BITS IN THE TRIPLE PRECISION SET OF
002356:                                                                                                  #        NUMBERS - MPAC, MPAC+1, AND MPAC+2.  THE ROOT IS RETURNED DOUBLE PRECISION IN MPAC AND MPAC+1.
002357:
002358:                                                                                                  #  WARNING - THIS SUBROUTINE USES A TRIPLE PRECISION INPUT.  THE PROGRAMMER MUST ASSURE THE CONTENTS OF MPAC+2
002359:                                                                                                  #        ESPECIALLY IF THE CONTENTS OF MPAC IS SMALL OR ZERO.  FOR DETAILS SEE STG MEMO NO.949.
002360:
002361:                                                                                                  #  CALLING SEQUENCE - IN INTERPRETIVE MODE I.E., FOLLOWING TC  INTPRET,SQRT   NO ADDRESS IS ALLOWED
002362:                                                                                                  #        INPUT SCALING  THE BINARY POINT IS ASSUMED TO THE RIGHT OF BIT 15.  THE ANSWER IS RETURNED WITH THE SAME SCALING
002363:
002364:                                                                                                  #  SUBROUTINES - GENSCR, MPACSHR, SQRTSUB, ABORT
002365:
002366:                                                                                                  #  ABORT EXIT MODE - ABORTS ON NEGATIVE INPUT -1.2X10E-4 (77775 OCTAL) OR LESS.
002367:                                                                                                  #        DISPLAYS ERROR CODE 1302
002368:                                                                                                  #                TC      ABORT
002369:                                                                                                  #                OCT     1302
002370:
002371:                                                                                                  #  DEBRIS - LOCATIONS BUF, MPTEMP, ADDRWD ARE USED
002372:
002373: 00,3207           03343        SQRT               TC       SQRTSUB                               #  TAKE THE SQUARE ROOT OF MPAC.
002374: 00,3210           10135                           CCS      MPTEMP                                #  RETURNED NORMALIZED SQUARE ROOT.  SEE IF
002375: 00,3211           13213                           TCF      +2                                    #  ANY UN-NORMALIZATION REQUIRED AND EXIT
002376: 00,3212           16061                           TCF      DANZIG                                #  IF NOT.
002377:
002378: 00,3213           63733                           AD       NEG12                                 #  A RIGHT SHIFT OF MORE THAN 13 COULD BE
002379: 00,3214           00006                           EXTEND                                         #  REQUIRED IF INPUT WAS ZERO IN MPAC,+1.
002380: 00,3215           63221                           BZMF     SQRTSHFT                              #  GOES HERE IN MOST CASES.
002381: 00,3216           22007                           ZL                                             #  IF A LONG SHIFT IS REQUIRED, GO TO
002382: 00,3217           22116                           LXCH     ADDRWD                                #  GENERAL RIGHT SHIFT ROUTINES.
002383: 00,3220           12303                           TCF      GENSCR     +4                         #  ADDRWD WAS ZERO TO PREVENT ROUND.
002384:
002385: 00,3221           50135        SQRTSHFT           INDEX    MPTEMP                                #  SELECT SHIFTING BIT AND EXIT THROUGH
002386: 00,3222           34735                           CAF      BIT15                                 #  SHIFT ROUTINES.
002387: 00,3223           54135                           TS       MPTEMP
002388: 00,3224           34755                           CAF      ZERO                                  #  TO ZERO MPAC +2 IN THE PROCESS.
002389: 00,3225           12036                           TCF      MPACSHR    +3
002390:
002391: 00,3226           06723        ABS                TC       BRANCH                                #  TEST SIGN OF MPAC AND COMPLEMENT IF
002392: 00,3227           16061                           TCF      DANZIG
002393: 00,3230           16061                           TCF      DANZIG
002394: 00,3231           17670                           TCF      COMP
002395:


002397: 00,3232           44751        VDEF               CS       FOUR                                  #  VECTOR DEFINE - ESSENTIALLY TREATS
002398: 00,3233           26166                           ADS      PUSHLOC                               #  SCALAR IN MPAC AS X COMPONENT, PUSHES UP
002399: 00,3234           00006                           EXTEND                                         #  FOR Y AND THEN AGAIN FOR Z.
002400: 00,3235           50000                           INDEX    A
002401: 00,3236           30003                           DCA      2
002402: 00,3237           52160                           DXCH     MPAC       +3
002403: 00,3240           00006                           EXTEND
002404: 00,3241           50166                           INDEX    PUSHLOC
002405: 00,3242           30001                           DCA      0
002406: 00,3243           52162                           DXCH     MPAC       +5
002407: 00,3244           16521                           TCF      VMODE                                 #  MODE IS NON VECTOR.
002408:
002409: 00,3245           03317        VSQ                TC       VSQSUB                                #  DOT MPAC WITH ITSELF.
002410: 00,3246           17332                           TCF      DMODE                                 #  MODE IS NOW DP.
002411:
002412: 00,3247           00006        PUSH               EXTEND                                         #  PUSH DOWN MPAC LEAVING IT LOADED.
002413: 00,3250           30155                           DCA      MPAC
002414: 00,3251           50166                           INDEX    PUSHLOC                               #  PUSH DOWN FIRST TWO REGISTERS IN EACH
002415: 00,3252           52001                           DXCH     0
002416:
002417: 00,3253           50163                           INDEX    MODE                                  #  INCREMENT PUSHDOWN POINTER.
002418: 00,3254           36244                           CAF      NO.WDS
002419: 00,3255           26166                           ADS      PUSHLOC
002420:
002421: 00,3256           10163                           CCS      MODE
002422: 00,3257           13272                           TCF      TPUSH                                 #  PUSH DOWN MPAC +2.
002423: 00,3260           16061                           TCF      DANZIG                                #  DONE FOR DP.
002424:
002425: 00,3261           00006                           EXTEND                                         #  ON VECTOR, PUSH DOWN Y AND Z COMPONENTS.
002426: 00,3262           30160                           DCA      MPAC       +3
002427: 00,3263           50166                           INDEX    PUSHLOC
002428: 00,3264           51775                           DXCH     0          -4
002429: 00,3265           00006                           EXTEND
002430: 00,3266           30162                           DCA      MPAC       +5
002431: 00,3267           50166                           INDEX    PUSHLOC
002432: 00,3270           51777                           DXCH     0          -2
002433: 00,3271           16061                           TCF      DANZIG
002434:
002435: 00,3272           30156        TPUSH              CA       MPAC       +2
002436: 00,3273           16554                           TCF      ENDTPUSH   +2
002437:
002438: 00,3274           50120        RVQ                INDEX    FIXLOC                                #  RVQ - RETURN IVA QPRET.
002439: 00,3275           30052                           CA       QPRET
002440: 00,3276           54117                           TS       POLISH
002441: 00,3277           16652                           TCF      GOTO       +4                         #  (ASSUME QPRET POINTS TO FIXED ONLY.)
002442:


002444:                                                                                                  #  THE FOLLOWING SUBROUTINES ARE USED IN SQUARING MPAC, IN BOTH THE SCALAR AND VECTOR SENSE.  THEY ARE
002445:                                                                                                  #  SPECIAL CASES OF DMPSUB AND DOTSUB, PUT IN TO SAVE SOME TIME.
002446:
002447: 00,3300           30155        DSQSUB             CA       MPAC       +1                         #  SQUARES THE SCALAR CONTENTS OF MPAC.
002448: 00,3301           00006                           EXTEND
002449: 00,3302           70000                           SQUARE
002450: 00,3303           54156                           TS       MPAC       +2
002451: 00,3304           34755                           CAF      ZERO                                  #  FORM 2(CROSS TERM).
002452: 00,3305           56155                           XCH      MPAC       +1
002453: 00,3306           00006                           EXTEND
002454: 00,3307           70154                           MP       MPAC
002455: 00,3310           20001                           DDOUBL                                         #  AND MAYBE OVERFLOW.
002456: 00,3311           20156                           DAS      MPAC       +1                         #  AND SET A TO NET OVERFLOW.
002457: 00,3312           56154                           XCH      MPAC
002458: 00,3313           00006                           EXTEND
002459: 00,3314           70000                           SQUARE
002460: 00,3315           20155                           DAS      MPAC
002461: 00,3316           00002                           TC       Q
002462:
002463: 00,3317           00006        VSQSUB             EXTEND                                         #  DOTS THE VECTOR IN MPAC WITH ITSELF.
002464: 00,3320           22137                           QXCH     DOTRET
002465: 00,3321           03300                           TC       DSQSUB                                #  SQUARE THE X COMPONENT.
002466: 00,3322           52160                           DXCH     MPAC       +3
002467: 00,3323           52155                           DXCH     MPAC
002468: 00,3324           52131                           DXCH     BUF                                   #  SO WE CAN END IN DOTSUB.
002469: 00,3325           30156                           CA       MPAC       +2
002470: 00,3326           54132                           TS       BUF        +2
002471:
002472: 00,3327           03300                           TC       DSQSUB                                #  SQUARE Y COMPONENT.
002473: 00,3330           52156                           DXCH     MPAC       +1
002474: 00,3331           20132                           DAS      BUF        +1
002475: 00,3332           60154                           AD       MPAC
002476: 00,3333           60130                           AD       BUF
002477: 00,3334           54130                           TS       BUF
002478: 00,3335           13337                           TCF      +2
002479: 00,3336           54121                           TS       OVFIND                                #  IF OVERFLOW.
002480:
002481: 00,3337           52162                           DXCH     MPAC       +5
002482: 00,3340           52155                           DXCH     MPAC
002483: 00,3341           03300                           TC       DSQSUB                                #  SQUARE Z COMPONENT.
002484: 00,3342           17205                           TCF      ENDDOT                                #  END AS IN DOTSUB.
002485:


002487:                                                                                                  #  DOUBLE PRECISION SQUARE ROOT ROUTINE.  TAKE THE SQUARE ROOT OF THE TRIPLE PRECISION (MPAC +2 USED ONLY
002488:                                                                                                  #  IN NORMALIZATION) CONTENTS OF MPAC AND LEAVE THE NORMALIZED RESULT IN MPAC (C(MPAC) GREATER THAN OR EQUAL TO
002489:                                                                                                  #  .5).  THE RIGHT SHIFT COUNT (TO UNNORMALIZE) IS LEFT IN MPTEMP.
002490:
002491: 00,3343           34755        SQRTSUB            CAF      ZERO                                  #  START BY ZEROING RIGHT SHIFT COUNT.
002492: 00,3344           54135                           TS       MPTEMP
002493:
002494: 00,3345           10154                           CCS      MPAC                                  #  CHECK FOR POSITIVE ARGUMENT, SHIFTING
002495: 00,3346           13405                           TCF      SMPAC+                                #  FIRST SIGNIFICANT MPAC REGISTER INTO
002496: 00,3347           13351                           TCF      +2                                    #  MPAC ITSELF.
002497: 00,3350           13373                           TCF      SQRTNEG                               #  SEE IF MAG OF ARGUMENT LESS THAN 10(-4).
002498:
002499: 00,3351           56156                           XCH      MPAC       +2                         #  MPAC IS ZERO - SHIFT LEFT 14.
002500: 00,3352           56155                           XCH      MPAC       +1
002501: 00,3353           54154                           TS       MPAC
002502: 00,3354           34757                           CAF      SEVEN                                 #  AUGMENT RIGHT SHIFT COUNTER.
002503: 00,3355           54135                           TS       MPTEMP
002504:
002505: 00,3356           10154                           CCS      MPAC                                  #  SEE IF MPAC NOW PNZ.
002506: 00,3357           13405                           TCF      SMPAC+
002507: 00,3360           13362                           TCF      +2
002508: 00,3361           13376                           TCF      ZEROANS                               #  NEGATIVE BUT LESS THAN 10(-4) IN MAG.
002509:
002510: 00,3362           56155                           XCH      MPAC       +1                         #  ZERO - SHIFT LEFT 14 AGAIN.
002511: 00,3363           54154                           TS       MPAC
002512: 00,3364           34757                           CAF      SEVEN                                 #  AUGMENT RIGHT SHIFT COUNTER.
002513: 00,3365           26135                           ADS      MPTEMP
002514:
002515: 00,3366           10154                           CCS      MPAC
002516: 00,3367           13405                           TCF      SMPAC+
002517: 00,3370           00002                           TC       Q                                     #  SQRT(0) = 0.
002518: 00,3371           13376                           TCF      ZEROANS
002519: 00,3372           13453                           TCF      FIXROOT                               #  DO NOT LEAVE SQRTSUB WITH -0 IN MPAC.
002520:
002521: 00,3373           10000        SQRTNEG            CCS      A                                     #  ARGUMENT IS NEGATIVE, BUT SEE IF SIGN-
002522: 00,3374           13402                           TCF      SQRTABRT                              #  CORRECTED ARGUMENT IS LESS THAN 10(-4)
002523:
002524: 00,3375           10155                           CCS      MPAC       +1                         #  IN MAGNITUDE.  IF SO, CALL ANSWER ZERO.
002525: 00,3376           34755        ZEROANS            CAF      ZERO                                  #  FORCE ANSWER TO ZERO HERE.
002526: 00,3377           13453                           TCF      FIXROOT
002527: 00,3400           13402                           TCF      SQRTABRT
002528: 00,3401           13453                           TCF      FIXROOT
002529:
002530: 00,3402           52165        SQRTABRT           DXCH     LOC
002531: 00,3403           05726                           TC       POODOO1
002532: 00,3404           01302                           OCT      1302
002533:


002535: 00,3405           62444        SMPAC+             AD       -1/2+2                                #  SEE IF ARGUMENT GREATER THAN OR EQUAL TO
002536: 00,3406           00006                           EXTEND                                         #  .5.
002537: 00,3407           63456                           BZMF     SRTEST                                #  IF SO, SEE IF LESS THAN .25.
002538:
002539: 00,3410           52155                           DXCH     MPAC                                  #  WE WILL TAKE THE SQUARE ROOT OF MPAC/2.
002540: 00,3411           22021                           LXCH     SR                                    #  SHIFT RIGHT 1 AND GO TO THE SQRT ROUTINE
002541: 00,3412           00006                           EXTEND
002542: 00,3413           74736                           MP       HALF
002543: 00,3414           52155                           DXCH     MPAC
002544: 00,3415           56021                           XCH      SR
002545: 00,3416           26155                           ADS      MPAC       +1                         #  GUARANTEED NO OVERFLOW.
002546:
002547: 00,3417           32314        ARGHI              CAF      SLOPEHI                               #  ARGUMENT BETWEEN .25 AND .5. GET A
002548: 00,3420           00006                           EXTEND                                         #  LINEAR APPROXIMATION FOR THIS RANGE.
002549: 00,3421           70154                           MP       MPAC
002550: 00,3422           62566                           AD       BIASHI                                #  X0/2 = (MPAC/2)(SLOPEHI) + BIASHI/2.
002551:
002552: 00,3423           54130                 +4        TS       BUF                                   #  X0/2 (ARGLO ENTERS HERE).
002553: 00,3424           30154                           CA       MPAC                                  #  SINGLE-PRECISION THROUGHOUT.
002554: 00,3425           22007                           ZL
002555: 00,3426           00006                           EXTEND
002556: 00,3427           10130                           DV       BUF                                   #  (MPAC/2)/(X0/2)
002557: 00,3430           00006                           EXTEND
002558: 00,3431           74736                           MP       HALF
002559: 00,3432           26130                           ADS      BUF                                   #  X1 = X0/2 + .5(MPAC/2)/(X0/2).
002560:
002561: 00,3433           00006                           EXTEND
002562: 00,3434           74736                           MP       HALF                                  #  FORM UP X1/2.
002563: 00,3435           52155                           DXCH     MPAC                                  #  SAVE AND BRING OUT ARGUMENT.
002564: 00,3436           00006                           EXTEND                                         #  TAKE DP QUOTIENT WITH X1.
002565: 00,3437           10130                           DV       BUF
002566: 00,3440           54131                           TS       BUF        +1                         #  SAVE MAJOR PART OF QUOTIENT.
002567: 00,3441           34755                           CAF      ZERO                                  #  FORM MINOR PART OF QUOTIENT USING
002568: 00,3442           56001                           XCH      L                                     #  (REMAINDER,0).
002569: 00,3443           00006                           EXTEND
002570: 00,3444           10130                           DV       BUF
002571: 00,3445           54001                           TS       L                                     #  IN PREPARATION FOR DAS.
002572: 00,3446           30131                           CA       BUF        +1
002573: 00,3447           20155                           DAS      MPAC                                  #  X2 = X1/2 + (MPAC/2)X1
002574:
002575: 00,3450           00006                           EXTEND                                         #  OVERFLOWS IF ARG. NEAR POSMAX.
002576: 00,3451           13455                           BZF      TCQBNK00
002577: 00,3452           34733                           CAF      POSMAX
002578: 00,3453           54154        FIXROOT            TS       MPAC
002579: 00,3454           54155                           TS       MPAC       +1
002580: 00,3455           00002        TCQBNK00           TC       Q                                     #  RETURN TO CALLER TO UNNORMALIZE, ETC.
002581:


002583: 00,3456           64737        SRTEST             AD       QUARTER                               #  ARGUMENT WAS LESS THAN .5, SEE IF LESS
002584: 00,3457           00006                           EXTEND                                         #  THAN .25.
002585: 00,3460           63502                           BZMF     SQRTNORM                              #  IF SO, BEGIN NORMALIZATION.
002586:
002587: 00,3461           52155                           DXCH     MPAC                                  #  IF BETWEEN .5 AND .25, SHIFT RIGHT 1 AND
002588: 00,3462           22021                           LXCH     SR                                    #  START AT ARGLO.
002589: 00,3463           00006                           EXTEND
002590: 00,3464           74736                           MP       HALF
002591: 00,3465           52155                           DXCH     MPAC
002592: 00,3466           56021                           XCH      SR
002593: 00,3467           26155                           ADS      MPAC       +1                         #  NO OVERFLOW.
002594:
002595: 00,3470           33007        ARGLO              CAF      SLOPELO                               #  (NORMALIZED) ARGUMENT BETWEEN .125 AND
002596: 00,3471           00006                           EXTEND                                         #  .25
002597: 00,3472           70154                           MP       MPAC
002598: 00,3473           62270                           AD       BIASLO
002599: 00,3474           13423                           TCF      ARGHI      +4                         #  BEGIN SQUARE ROOT.
002600:
002601: 00,3475           00006        SQRTNM2            EXTEND                                         #  SHIFT LEFT 2 AND INCREMENT RIGHT SHIFT
002602: 00,3476           30156                           DCA      MPAC       +1                         #  COUNT (FOR TERMINAL UNNORMALIZATION).
002603: 00,3477           20156                           DAS      MPAC       +1
002604: 00,3500           60154                           AD       MPAC
002605: 00,3501           26154                           ADS      MPAC                                  #  (NO OVERFLOW).
002606:
002607: 00,3502           24135        SQRTNORM           INCR     MPTEMP                                #  FIRST TIME THROUGH, JUST SHIFT LEFT 1
002608: 00,3503           00006                           EXTEND                                         #  (PUTS IN EFFECTIVE RIGHT SHIFT SINCE
002609: 00,3504           30156                           DCA      MPAC       +1                         #  WE WANT MPAC/2).
002610: 00,3505           20156                           DAS      MPAC       +1
002611: 00,3506           60154                           AD       MPAC
002612: 00,3507           26154                           ADS      MPAC                                  #  (AGAIN NO OVERFLOW).
002613: 00,3510           60000                           DOUBLE
002614: 00,3511           54022                           TS       CYL
002615:
002616: 00,3512           10022        NORMTEST           CCS      CYL                                   #  SEE IF ARGUMENT NOW NORMALIZED AT
002617: 00,3513           10022                           CCS      CYL                                   #  GREATER THAN .125.
002618: 00,3514           13475                           TCF      SQRTNM2                               #  NO - SHIFT LEFT 2 MORE AND TRY AGAIN.
002619: 00,3515           13417                           TCF      ARGHI                                 #  YES - NOW BETWEEN .5 AND .25.
002620: 00,3516           13470                           TCF      ARGLO                                 #  ARGUMENT NOW BETWEEN .25 AND .125.
002621:


002623:                                                                                                  #  TRIGONOMETRIC FUNCTION PACKAGE.
002624:                                                                                                  #        THE FOLLOWING TRIGONOMETRIC FUNCTIONS ARE AVAILABLE AS INTERPRETIVE OPERATIONS:
002625:                                                                                                  #        1.      SIN             COMPUTES (1/2)SINE(2 PI MPAC).
002626:                                                                                                  #        2.      COS             COMPUTES (1/2)COSINE(2 PI MPAC).
002627:                                                                                                  #        3.      ASIN            COMPUTES (1/2PI)ARCSINE(2 MPAC).
002628:                                                                                                  #        4.      ACOS            COMPUTES (1/2PI)ARCCOSINE(2 MPAC).
002629:
002630:                                                                                                  #  SIN-ASIN AND COS-ACOS ARE MUTUALLY INVERSE, IE SIN(ASIN(X)) = X.
002631:
002632: 00,3517           06723        COSINE             TC       BRANCH                                #  FINDS COSINE USING THE IDENTITY
002633: 00,3520           13523                           TCF      +3                                    #  COS(X) = SIN(PI/2 - ABS(X)).
002634: 00,3521           13526                           TCF      PRESINE
002635: 00,3522           13526                           TCF      PRESINE
002636:
002637: 00,3523           00006                 +3        EXTEND
002638: 00,3524           40155                           DCS      MPAC
002639: 00,3525           52155                           DXCH     MPAC
002640:
002641: 00,3526           34737        PRESINE            CAF      QUARTER                               #  PI/2 SCALED.
002642: 00,3527           26154                           ADS      MPAC
002643:
002644: 00,3530           52155        SINE               DXCH     MPAC                                  #  DOUBLE ARGUMENT.
002645: 00,3531           20001                           DDOUBL
002646: 00,3532           54000                           OVSK                                           #  SEE IF OVERFLOW PRESENT.
002647: 00,3533           13536                           TCF      +3                                    #  IF NOT, ARGUMENT OK AS IS.
002648:
002649: 00,3534           00006                           EXTEND                                         #  IF SO, WE LOST (OR GAINED) PI, SO
002650: 00,3535           40001                           DCOM                                           #  COMPLEMENT MPAC USING THE IDENTITY
002651:                                                                                                  #  SIN(X-(+)PI) = SIN(-X).
002652: 00,3536           52155                 +3        DXCH     MPAC
002653: 00,3537           30154                           CA       MPAC                                  #  SEE IF ARGUMENT GREATER THAN .5 IN
002654: 00,3540           60000                           DOUBLE                                         #  MAGNITUDE.  IF SO, REDUCE IT TO LESS THAN
002655: 00,3541           54001                           TS       L                                     #  .5 (+-PI/2 SCALED) AS FOLLOWS:
002656: 00,3542           13553                           TCF      SN1
002657:
002658: 00,3543           50000                           INDEX    A                                     #  IF POSITIVE, FORM PI - X, IF NEGATIVE
002659: 00,3544           34735                           CAF      NEG1/2     +1                         #  USE -PI -X.
002660: 00,3545           60000                           DOUBLE
002661: 00,3546           00006                           EXTEND
002662: 00,3547           60154                           SU       MPAC                                  #  GUARANTEED NO OVERFLOW.
002663: 00,3550           54154                           TS       MPAC
002664: 00,3551           40155                           CS       MPAC       +1
002665: 00,3552           54155                           TS       MPAC       +1
002666:


002668: 00,3553           00006        SN1                EXTEND                                         #  SET UP TO EVALUATE HASTINGS POLYNOMIAL
002669: 00,3554           30155                           DCA      MPAC
002670: 00,3555           52134                           DXCH     BUF2
002671: 00,3556           03300                           TC       DSQSUB                                #  SQUARE MPAC.
002672:
002673: 00,3557           07222                           TC       POLY                                  #  EVALUATE FOURTH ORDER POLYNOMIAL.
002674: 00,3560           00003                           DEC      3          B-14
002675: 00,3561           14441 37325                     2DEC     +.3926990796
002676:
002677: 00,3563           53250 60764                     2DEC     -.6459637111
002678:
002679: 00,3565           12146 21276                     2DEC     +.318758717
002680:
002681: 00,3567           75466 71471                     2DEC     -.074780249
002682:
002683: 00,3571           00236 32757                     2DEC     +.009694988
002684:
002685: 00,3573           32470                           CAF      LBUF2                                 #  MULTIPLY BY ARGUMENT AND SHIFT LEFT 2.
002686: 00,3574           07106                           TC       DMPSUB     -1
002687:
002688: 00,3575           00006                           EXTEND
002689: 00,3576           30156                           DCA      MPAC       +1
002690: 00,3577           20156                           DAS      MPAC       +1
002691: 00,3600           60154                           AD       MPAC
002692: 00,3601           26154                           ADS      MPAC                                  #  NEITHER SHIFT OVERFLOWS.
002693: 00,3602           00006                           EXTEND
002694: 00,3603           30156                           DCA      MPAC       +1
002695: 00,3604           20156                           DAS      MPAC       +1
002696: 00,3605           60154                           AD       MPAC
002697: 00,3606           26154                           ADS      MPAC
002698: 00,3607           16061                           TCF      DANZIG
002699:


002701:                                                                                                  #  ARCSIN/ARCCOS ROUTINE.
002702:
002703: 00,3610           33631        ARCSIN             CAF      LASINEX                               #  COMPUTE ARCSIN BY USING THE IDENTITY
002704: 00,3611           13613                           TCF      +2                                    #  ARCSIN(X) = PI/2 - ARCCOS(X).
002705:
002706: 00,3612           33713        ARCCOS             CAF      LDANZIG                               #  (EXITS IMMEDIATELY).
002707: 00,3613           54136                           TS       ESCAPE
002708: 00,3614           06723                           TC       BRANCH                                #  TEST SIGN OF INPUT.
002709: 00,3615           13625                           TCF      ACOSST                                #  START IMMEDIATELY IF POSITIVE.
002710: 00,3616           13731                           TCF      ACOSZERO                              #  ARCCOS(0) = PI/2 = .25.
002711: 00,3617           00006                           EXTEND                                         #  IF NEGATIVE, USE THE IDENTITY
002712: 00,3620           40155                           DCS      MPAC                                  #  ARCCOS(X) = PI - ARCCOS(-X), FORCING
002713: 00,3621           52155                           DXCH     MPAC                                  #  ARGUMENT POSITIVE.
002714: 00,3622           33734                           CAF      TCSUBTR                               #  SET EXIT TO DO ABOVE BEFORE
002715: 00,3623           56136                           XCH      ESCAPE                                #  ARCSIN/ARCCOS CONSIDERATIONS.
002716: 00,3624           54137                           TS       ESCAPE2
002717:
002718: 00,3625           44736        ACOSST             CS       HALF                                  #  TEST MAGNITUDE OF INPUT.
002719: 00,3626           60154                           AD       MPAC
002720: 00,3627           10000                           CCS      A
002721: 00,3630           13721                           TCF      ACOSOVF                               #  THIS IS PROBABLY AN OVERFLOW CASE.
002722:
002723: 00,3631           13707        LASINEX            TCF      ASINEX
002724:
002725: 00,3632           13642                           TCF      ACOSST2                               #  NO OVERFLOW - PROCEED.
002726:
002727: 00,3633           10155                           CCS      MPAC       +1                         #  IF MAJOR PART IS .5, CALL ANSWER 0
002728: 00,3634           34755                           CAF      ZERO                                  #  UNLESS MINOR PART NEGATIVE.
002729: 00,3635           13637                           TCF      ACOS=0
002730:
002731: 00,3636           13642                           TCF      ACOSST2
002732:
002733: 00,3637           54155        ACOS=0             TS       MPAC       +1
002734: 00,3640           54154                           TS       MPAC
002735: 00,3641           00136                           TC       ESCAPE
002736:
002737: 00,3642           00006        ACOSST2            EXTEND                                         #  NOW THAT ARGUMENT IS IN PROPER RANGE,
002738: 00,3643           40155                           DCS      MPAC                                  #  BEGIN COMPUTATION.  USE HASTINGS
002739: 00,3644           64736                           AD       HALF                                  #  APPROXIMATION ARCCOS(X) = SQRT(1-X)P(X)
002740: 00,3645           52155                           DXCH     MPAC                                  #  IN A SCALED VERSION WHERE P(X) IS A
002741: 00,3646           52134                           DXCH     BUF2                                  #  SEVENTH ORDER POLYNOMIAL.
002742:
002743: 00,3647           03343                           TC       SQRTSUB                               #  RETURNS WITH NORMALIZED SQUARE ROOT.
002744:
002745: 00,3650           10135                           CCS      MPTEMP                                #  SEE IF UN-NORMALIZATION REQUIRED.
002746: 00,3651           13714                           TCF      ACOSSHR                               #  IF SO.
002747:


002749: 00,3652           52155        ACOS3              DXCH     MPAC                                  #  SET UP FOR POLYNOMIAL EVALUATION.
002750: 00,3653           52134                           DXCH     BUF2
002751: 00,3654           52155                           DXCH     MPAC
002752:
002753: 00,3655           07222                           TC       POLY
002754: 00,3656           00006                           DEC      6          B-14
002755: 00,3657           13240 23630                     2DEC     +.353553385                            #  COEFFICIENTS ARE C 2(+I)/PISQRT(2) WHERE
002756:
002757: 00,3661           74721 47775                     2DEC*    -.0483017006 B+1*                       #  I
002758:
002759: 00,3663           02440 20237                     2DEC*    +.0200273085 B+2*                       #  WHERE C STANDS FOR ORIGINAL COEFFS.
002760:
002761: 00,3665           75067 70742                     2DEC*    -.0112931863 B+3*
002762:
002763: 00,3667           03436 26756                     2DEC*    +.00695311612 B+4*
002764:
002765: 00,3671           74037 57640                     2DEC*    -.00384617957 B+5*
002766:
002767: 00,3673           03046 07143                     2DEC*    +.001501297736 B+6*
002768:
002769: 00,3675           76654 42244                     2DEC*    -.000284160334 B+7*
002770:
002771:
002772: 00,3677           32470                           CAF      LBUF2                                 #  DO FINAL MULTIPLY AND GO TO ANY
002773: 00,3700           07106                           TC       DMPSUB     -1                         #  EPILOGUE SEQUENCES.
002774: 00,3701           00136                           TC       ESCAPE
002775:
002776: 00,3702           00006        SUBTR              EXTEND                                         #  EPILOGUE FOR NEGATIVE INPUTS TO ARCCOS.
002777: 00,3703           40155                           DCS      MPAC
002778: 00,3704           64736                           AD       HALF                                  #  FORMS PI - ARCCOS(-X) = ARCCOS(X).
002779: 00,3705           52155                           DXCH     MPAC
002780: 00,3706           00137                           TC       ESCAPE2                               #  GO TO POSSIBLE ARCSIN EPILOGUE.
002781:
002782: 00,3707           00006        ASINEX             EXTEND
002783: 00,3710           40155                           DCS      MPAC                                  #  ARCSIN EPILOGUE - GET ARCSIN(X)
002784: 00,3711           64737                           AD       QUARTER                               #  = PI/2 - ARCCOS(X).
002785: 00,3712           52155                           DXCH     MPAC
002786: 00,3713           16061        LDANZIG            TCF      DANZIG
002787:


002789: 00,3714           50000        ACOSSHR            INDEX    A                                     #  THE SHIFT RIGHT IS LESS THAN 14 SINCE
002790: 00,3715           34736                           CAF      BIT14                                 #  THE INPUT WAS NON-ZERO DP.
002791: 00,3716           54135                           TS       MPTEMP
002792: 00,3717           02073                           TC       VSHRRND                               #  DP SHIFT RIGHT AND ROUND.
002793: 00,3720           13652                           TCF      ACOS3                                 #  PROCEED.
002794:
002795: 00,3721           00006        ACOSOVF            EXTEND                                         #  IF MAJOR PART WAS ONLY 1 MORE THAN .5,
002796: 00,3722           13637                           BZF      ACOS=0                                #  CALL ANSWER ZERO.
002797:
002798: 00,3723           00006        ACOSABRT           EXTEND                                         #  IF OVERFLOW, CALL ANSWER ZERO BUT
002799: 00,3724           30165                           DCA      LOC                                   #  SOUND AN ALARM.
002800: 00,3725           05732                           TC       ALARM1
002801: 00,3726           01301                           OCT      1301
002802:
002803: 00,3727           34755                           CAF      ZERO
002804: 00,3730           13637                           TCF      ACOS=0
002805:
002806: 00,3731           34737        ACOSZERO           CAF      QUARTER                               #  ACOS(0) = PI/2.
002807: 00,3732           13640                           TCF      ACOS=0     +1                         #  SET MPAC AND EXIT VIA ESCAPE.
002808:
002809: 00,3733           77763        NEG12              DEC      -12        B-14
002810: 00,3734           13702        TCSUBTR            TCF      SUBTR
002811:


002813:                                                                                                  #  THE FOLLOWING INSTRUCTIONS ARE AVAILABLE FOR SETTING, MODIFYING, AND BRANCHING ON INDEX REGISTERS:
002814:                                                                                                  #        1.      AXT     ADDRESS TO INDEX TRUE.
002815:                                                                                                  #        1.      AXC     ADDRESS TO INDEX COMPLEMENTED.
002816:                                                                                                  #        3.      LXA     LOAD INDEX FROM ERASABLE.
002817:                                                                                                  #        4.      LXC     LOAD INDEX COMPLEMENTED FROM ERASABLE.
002818:                                                                                                  #        5.      SXA     STORE INDEX IN ERASABLE.
002819:                                                                                                  #        6.      XCHX    EXCHANGE INDEX REIGSTER WITH ERASABLE.
002820:
002821:                                                                                                  #        7.      INCR    INCREMENT INDEX REGISTER.
002822:                                                                                                  #        8.      XAD     ERASABLE ADD TO INDEX REGISTER.
002823:                                                                                                  #        9.      XSU     ERASABLE SUBTRACT FROM INDEX REGISTER.
002824:                                                                                                  #        10.     TIX     BRANCH ON INDEX REGISTER AND DECREMENT.
002825:
002826: 01,2344                                           BANK     01
002827:
002828: 01,2344                                           COUNT*   $$/INTER
002829: 01,2344           02441        AXT                TC       TAGSUB                                #  SELECT APPROPRIATE INDEX REGISTER.
002830: 01,2345           30117                           CA       POLISH
002831: 01,2346           50130        XSTORE             INDEX    INDEXLOC                              #  CONTAINS C(FIXLOC) OR C(FIXLOC)+1.
002832: 01,2347           54046                           TS       X1
002833: 01,2350           16061                           TCF      DANZIG
002834:
002835: 01,2351           02441        AXC                TC       TAGSUB
002836: 01,2352           40117                           CS       POLISH
002837: 01,2353           02346                           TC       XSTORE
002838:
002839: 01,2354           02427        LXA                TC       15ADRERS                              #  LOAD INDEX REGISTER FROM ERASABLE.
002840: 01,2355           50117                           INDEX    POLISH
002841: 01,2356           30000                           CA       0
002842: 01,2357           12346                           TCF      XSTORE
002843:
002844: 01,2360           02427        LXC                TC       15ADRERS                              #  LOAD NDX REG FROM ERASABLE COMPLEMENTED.
002845: 01,2361           50117                           INDEX    POLISH
002846: 01,2362           40000                           CS       0
002847: 01,2363           12346                           TCF      XSTORE
002848:
002849: 01,2364           02427        SXA                TC       15ADRERS                              #  STORE INDEX REGISTER IN ERASABLE.
002850: 01,2365           50130                           INDEX    INDEXLOC
002851: 01,2366           30046                           CA       X1
002852: 01,2367           50117        MSTORE1            INDEX    POLISH
002853: 01,2370           54000                           TS       0
002854: 01,2371           16061                           TCF      DANZIG
002855:


002857: 01,2372           02427        XCHX               TC       15ADRERS                              #  EXCHANGE INDEX REGISTER WITH ERASABLE.
002858: 01,2373           50117                           INDEX    POLISH
002859: 01,2374           30000                           CA       0
002860: 01,2375           50130                           INDEX    INDEXLOC
002861: 01,2376           56046                           XCH      X1
002862: 01,2377           12367                           TCF      MSTORE1
002863:
002864: 01,2400           02427        XAD                TC       15ADRERS                              #  ADD ERASABLE TO INDEX REGISTER.
002865: 01,2401           50117                           INDEX    POLISH
002866: 01,2402           30000                           CA       0
002867: 01,2403           50130        XAD2               INDEX    INDEXLOC
002868: 01,2404           26046                           ADS      X1                                    #  IGNORING OVERFLOWS.
002869: 01,2405           16061                           TCF      DANZIG
002870:
002871: 01,2406           02441        INCR               TC       TAGSUB                                #  INCREMENT INDEX REGISTER.
002872: 01,2407           30117                           CA       POLISH
002873: 01,2410           12403                           TCF      XAD2
002874:
002875: 01,2411           02427        XSU                TC       15ADRERS                              #  SUBTRACT ERASABLE FROM INDEX REGISTER.
002876: 01,2412           50117                           INDEX    POLISH
002877: 01,2413           40000                           CS       0
002878: 01,2414           12403                           TCF      XAD2
002879:
002880: 01,2415           02441        TIX                TC       TAGSUB                                #  BRANCH AND DECREMENT ON INDEX.
002881: 01,2416           50130                           INDEX    INDEXLOC
002882: 01,2417           40050                           CS       S1
002883: 01,2420           50130                           INDEX    INDEXLOC
002884: 01,2421           60046                           AD       X1
002885: 01,2422           00006                           EXTEND                                         #  NO OPERATION IF DECREMENTED INDEX IS
002886: 01,2423           66061                           BZMF     DANZIG                                #  NEGATIVE OR ZERO.
002887:
002888: 01,2424           50130        DOTIXBR            INDEX    INDEXLOC
002889: 01,2425           56046                           XCH      X1                                    #  IGNORING OVERFLOWS.
002890:
002891: 01,2426           16646                           TCF      GOTO                                  #  DO THE BRANCH USING THE CADR IN POLISH.
002892:


002894:                                                                                                  #  SUBROUTINE TO CONVERT AN ERASABLE ADDRESS (11 BITS) TO AN EBANK SETTING AND SUBADDRESS.
002895:
002896: 01,2427           40117        15ADRERS           CS       POLISH
002897: 01,2430           64772                           AD       DEC45
002898: 01,2431           10000                           CCS      A                                     #  DOES THE ADDRESS POINT TO THE WORK AREA?
002899: 01,2432           30120                           CA       FIXLOC                                #  YES.  ADD FIXLOC.  EBANK OK AS IS.
002900: 01,2433           12440                           TCF      +5
002901:
002902: 01,2434           35007                           CA       OCT1400                               #  NO. SET EBANK & MAKE UP SUBADDRESS.
002903: 01,2435           56117                           XCH      POLISH
002904: 01,2436           54003                           TS       EBANK
002905: 01,2437           74357                           MASK     LOW8
002906: 01,2440           26117                 +5        ADS      POLISH                                #  FALL INTO TAGSUB, AND RETURN VIA Q.
002907:
002908:                                                                                                  #  SUBROUTINE WHICH SETS THE ADDRESS OF THE SPECIFIED INDEX IN INDEXLOC.  (ACTUALLY, THE ADDRESS -38D.)
002909:
002910: 01,2441           30120        TAGSUB             CA       FIXLOC
002911: 01,2442           54130                           TS       INDEXLOC
002912:
002913: 01,2443           10020                           CCS      CYR                                   #  BIT 15 SPECIFIES INDEX.
002914: 01,2444           24130                           INCR     INDEXLOC                              #  0 MEANS USE X2.
002915: 01,2445           00002                           TC       Q
002916: 01,2446           00002                           TC       Q                                     #  1 FOR X1.
002917:


002919:                                                                                                  #  MISCELLANEOUS OPERATION CODES WITH DIRECT ADDRESSES.  INCLUDED HERE ARE:
002920:                                                                                                  #        1.      ITA     STORE QPRET (RETURN ADDRESS) IN ERASABLE.
002921:                                                                                                  #        2.      CALL    CALL A SUBROUTINE, LEAVING RETURN IN QPRET.
002922:                                                                                                  #        3.      RTB     RETURN TO BASIC LANGUAGE AT THE GIVEN ADDRESS.
002923:                                                                                                  #        4.      BHIZ    BRANCH IF THE HIGH ORDER OF MPAC IS ZERO (SINGLE PRECISION).
002924:                                                                                                  #        5.      BOV     BRANCH ON OVERFLOW.
002925:                                                                                                  #        6.      GOTO    SIMPLE SEQUENCE CHANGE.
002926:
002927: 01,2447           10020        RTB/BHIZ           CCS      CYR
002928: 01,2450           30117        RTB                CA       POLISH
002929: 01,2451           04621                           TC       SWCALL     -1                         #  SO A "TC Q" FROM ROUTINE LEADS TO DANZIG
002930:
002931: 01,2452           10154        BHIZ               CCS      MPAC
002932: 01,2453           16061                           TCF      DANZIG
002933: 01,2454           16646                           TCF      GOTO
002934: 01,2455           16061                           TCF      DANZIG
002935: 01,2456           16646                           TCF      GOTO
002936:
002937: 01,2457           10121        BOV(B)             CCS      OVFIND                                #  BRANCH ON OVERFLOW TO BASIC OR INTERP.
002938: 01,2460           12462                           TCF      +2
002939: 01,2461           16061                           TCF      DANZIG
002940: 01,2462           54121                           TS       OVFIND
002941: 01,2463           10020                           CCS      CYR
002942: 01,2464           12450                           TCF      RTB                                   #  IF BASIC.
002943: 01,2465           00360        B5TOB8             OCT      360
002944: 01,2466           16646                           TCF      GOTO
002945:


002947: 01,2467           10020        BZE/GOTO           CCS      CYR                                   #  SEE WHICH OP-CODE IS DESIRED.
002948: 01,2470           06723                           TC       BRANCH                                #  DO BZE.
002949: 01,2471           16061                           TCF      DANZIG
002950: 01,2472           16646                           TCF      GOTO                                  #  DO GOTO.
002951: 01,2473           16061                           TCF      DANZIG
002952:
002953: 01,2474           10020        BPL/BMN            CCS      CYR
002954: 01,2475           12503                           TCF      BPL
002955: 01,2476           12000        5B10               DEC      5          B+10                       #  SHIFTS OP CODE IN SWITCH INSTRUCTION ADR
002956:
002957: 01,2477           06723                           TC       BRANCH                                #  DO BMN.
002958: 01,2500           16061                           TCF      DANZIG
002959: 01,2501           16061                           TCF      DANZIG
002960: 01,2502           16646                           TCF      GOTO                                  #  ONLY IF NNZ.
002961:
002962: 01,2503           06723        BPL                TC       BRANCH
002963: 01,2504           16646                           TCF      GOTO                                  #  IF POSITIVE OR ZERO.
002964: 01,2505           16646                           TCF      GOTO
002965: 01,2506           16061                           TCF      DANZIG
002966:
002967: 01,2507           10020        CALL/ITA           CCS      CYR
002968: 01,2510           16640                           TCF      CALL
002969:
002970: 01,2511           05705                           TC       CCSHOLE
002971: 01,2512           02427                           TC       15ADRERS                              #  STORE QPRET.  (TAGSUB AFTER 15ADRERS IS
002972: 01,2513           50120                           INDEX    FIXLOC                                #  SLOW IN THIS CASE, BUT SAVES STORAGE.)
002973: 01,2514           30052                           CA       QPRET
002974: 01,2515           12367                           TCF      MSTORE1
002975:


002977:                                                                                                  #  THE FOLLOWING OPERATIONS ARE AVAILABLE FOR ALTERING AND TESTING INTERPRETIVE SWITCHES:
002978:
002979:                                                                                                  #        00      BONSET          SET A SWITCH AND DO A GOTO IF IT WAS ON.
002980:                                                                                                  #        01      SETGO           SET A SWITCH AND DO A GOTO.
002981:                                                                                                  #        02      BOFSET          SET A SWITCH AND DOA GOTO IF IT WAS OFF
002982:                                                                                                  #        03      SET             SET A SWITCH.
002983:
002984:                                                                                                  #        04      BONINV          INVERT A SWITCH AND BRANCH IF IT WAS ON.
002985:                                                                                                  #        05      INVGO           INVERT A SWITCH AND DO A GOTO.
002986:                                                                                                  #        06      BOFINV          INVERT A SWITCH AND BRANCH IF IT WAS OFF
002987:                                                                                                  #        07      INVERT          INVERT A SWITCH.
002988:
002989:                                                                                                  #        10      BONCLR          CLEAR A SWITCH AND BRANCH IF IT WAS ON.
002990:                                                                                                  #        11      CLRGO           CLEAR A SWITCH AND DO A GOTO.
002991:                                                                                                  #        12      BOFCLR          CLEAR A SWITCH AND BRANCH IF IT WAS OFF.
002992:                                                                                                  #        13      CLEAR           CLEAR A SWITCH.
002993:
002994:                                                                                                  #        14      BON             BRANCH IF A SWITCH WAS ON.
002995:                                                                                                  #        16      BOFF            BRANCH IF A SWITCH WAS OFF.
002996:
002997:                                                                                                  #  THE ADDRESS SUPPLIED WITH THE SWITCH INSTRUCTION IS INTERPRETED AS FOLLOWS:
002998:
002999:                                                                                                  #        BITS 1-4        SWITCH BIT NUMBER (1-15).
003000:                                                                                                  #        BITS 5-8        SWITCH OPERATION NUMBER.
003001:                                                                                                  #        BITS 9-         SWITCH WORD NUMBER (UP TO 64 SWITCH WORDS).
003002:
003003:                                                                                                  #  THE ADDRESS ITSELF IS MADE UP BY THE YUL SYSTEM ASSEMBLER.  THE BRANCH INSTRUCTIONS REQUIRE TWO
003004:                                                                                                  #  ADDRESSES, THE SECOND TAKEN AS THE DIRECT (OR INDIRECT IF IN ERASABLE) ADDRESS OF THE BRANCH.
003005:
003006: 01,2516           34762        SWITCHES           CAF      LOW4                                  #  LEAVE THE SWITCH BIT IN SWBIT.
003007: 01,2517           70117                           MASK     POLISH
003008: 01,2520           50000                           INDEX    A
003009: 01,2521           34735                           CAF      BIT15                                 #  (NUMBER FROM LEFT TO RIGHT.)
003010: 01,2522           54131                           TS       SWBIT
003011:
003012: 01,2523           34745                           CAF      BIT7                                  #  LEAVE THE SWITCH NUMBER IN SWWORD.
003013: 01,2524           00006                           EXTEND
003014: 01,2525           70117                           MP       POLISH
003015: 01,2526           54130                           TS       SWWORD
003016:
003017: 01,2527           00004                           INHINT                                         #  DURING SWITCH CHANGE SO RUPT CAN USE TOO
003018: 01,2530           50000                           INDEX    A                                     #  LEAVE THE SWITCH WORD ITSELF IN L.
003019: 01,2531           30074                           CA       STATE
003020: 01,2532           54002                           TS       Q                                     #  Q WILL BE USED AS A CHANNEL.


003022: 01,2533           34741                           CAF      BIT11
003023: 01,2534           00006                           EXTEND                                         #  DISPATCH SWITCH BIT OPERATION AS IN BITS
003024: 01,2535           70117                           MP       POLISH                                #  7-8 OF POLISH.
003025: 01,2536           72576                           MASK     B3TOB4                                #  GETS 4X2-BIT CODE.
003026: 01,2537           50000                           INDEX    A
003027: 01,2540           12541                           TCF      +1
003028:
003029: 01,2541           30131                 +1        CA       SWBIT                                 #  00 - SET SWITCH IN QUESTION.
003030: 01,2542           00006                           EXTEND
003031: 01,2543           04002                           ROR      QCHAN
003032: 01,2544           12553                           TCF      SWSTORE
003033:
003034: 01,2545           30131                 +5        CA       SWBIT                                 #  01 - INVERT SWITCH.
003035: 01,2546           00006                           EXTEND
003036: 01,2547           06002                           RXOR     QCHAN
003037: 01,2550           12553                           TCF      SWSTORE
003038:
003039: 01,2551           40131                 +9D       CS       SWBIT                                 #  10 - CLEAR.
003040: 01,2552           70002                           MASK     Q
003041: 01,2553           50130        SWSTORE            INDEX    SWWORD
003042: 01,2554           54074                           TS       STATE                                 #  NEW SWITCH WORD.
003043:


003045: 01,2555           00003                 +13D      RELINT                                         #  11 - NOOP.
003046: 01,2556           34737                           CAF      BIT13
003047: 01,2557           00006                           EXTEND                                         #  DISPATCH SEQUCE CHANGING OR BRANCHING
003048: 01,2560           70117                           MP       POLISH                                #  CODE.
003049: 01,2561           72576                           MASK     B3TOB4
003050: 01,2562           50000                           INDEX    A
003051: 01,2563           12564                           TCF      +1                                    #  ORIGINALLY STORED IN BITS 5-6.
003052:
003053: 01,2564           40002                 +1        CS       Q                                     #  00 - BRANCH IF ON.
003054: 01,2565           70131        TEST               MASK     SWBIT
003055: 01,2566           10000                           CCS      A
003056: 01,2567           12577                           TCF      SWSKIP
003057:
003058: 01,2570           16715                 +5        TCF      SWBRANCH                              #  01 - GO TO.
003059:
003060: 01,2571           12577                           TCF      SWSKIP                                #  HERE ONLY ON BIT 15.
003061:
003062: 01,2572           05705                           TC       CCSHOLE
003063: 01,2573           05705                           TC       CCSHOLE
003064:
003065: 01,2574           30002                 +9D       CA       Q                                     #  10 - BRANCH IF OFF.
003066: 01,2575           12565                           TCF      TEST
003067:
003068: 01,2576           00014        B3TOB4             OCT      0014
003069: 01,2577           24164        SWSKIP             INCR     LOC
003070:
003071: 01,2600  01,2516               SW/                EQUALS   SWITCHES
003072:
003073: 01,2600           16061                 +13D      TCF      DANZIG                                #  11 - NOOP.
003074:

End of include-file INTERPRETER.agc.  Parent file is MAIN.agc


