
Source Code


000002:                                                                                                  ## Copyright:   Public domain.
000003:                                                                                                  ## Filename:    LAMBERT_AIMPOINT_GUIDANCE.agc
000004:                                                                                                  ## Purpose:     Part of the source code for Luminary 1A build 099.
000005:                                                                                                  ##              It is part of the source code for the Lunar Module's (LM)
000006:                                                                                                  ##              Apollo Guidance Computer (AGC), for Apollo 11.
000007:                                                                                                  ## Assembler:   yaYUL
000008:                                                                                                  ## Contact:     Ron Burkey <info@sandroid.org>.
000009:                                                                                                  ## Website:     www.ibiblio.org/apollo.
000010:                                                                                                  ## Pages:       651-653
000011:                                                                                                  ## Mod history: 2009-05-18 RSB  Transcribed from Luminary 099
000012:                                                                                                  ##                              page images.
000013:                                                                                                  ##              2009-06-05 RSB  Corrected 4 typos.
000014:                                                                                                  ##              2009-06-07 RSB  Fixed a typo.
000015:                                                                                                  ##              2016-12-14 RSB  VNP00H -> VNPOOH.
000016:                                                                                                  ##              2016-12-14 RSB  Proofed text comments with octopus/ProoferComments
000017:                                                                                                  ##                              and corrected the errors found.
000018:                                                                                                  ##              2017-03-03 RSB  Snapshot of Luminary 99 Rev 1.
000019:


000021:
000022:                                                                                                  #  GENERAL LAMBERT AIMPOINT GUIDANCE **
000023:                                                                                                  #  WRITTEN BY RAMA M AIYAWAR
000024:
000025:                                                                                                  #  PROGRAM P-31 DESCRIPTION **
000026:
000027:                                                                                                  #  1.    TO ACCEPT TARGETING PARAMETERS OBTAINED FROM A SOURCE EXTERNAL
000028:                                                                                                  #        TO THE LEM AND COMPUTE THERE FROM THE REQUIRED-VELOCITY AND
000029:                                                                                                  #        OTHER INITIAL CONDITIONS REQUIRED BY LM FOR DESIRED MANEUVER.
000030:                                                                                                  #        THE TARGETING PARAMETERS ARE TIG (TIME OF IGNITION), TARGET
000031:                                                                                                  #        VECTOR (RTARG), AND THE TIME FROM TIG UNTIL THE TARGET IS
000032:                                                                                                  #        REACHED (DELLT4), DESIRED TIME OF FLIGHT FROM RINIT TO RTARG..
000033:
000034:                                                                                                  #  ASSUMPTIONS **
000035:
000036:                                                                                                  #  1.    THE TARGET PARAMETERS MAY HAVE BEEN LOADED PRIOR TO THE
000037:                                                                                                  #        EXECUTION OF THIS PROGRAM.
000038:                                                                                                  #  2.    THIS PROGRAM IS APPLICABLE IN EITHER EARTH OR LUNAR ORBIT.
000039:                                                                                                  #  3.    THIS PROGRAM IS DESIGNED FOR ONE-MAN OPERATION, AND SHOULD
000040:                                                                                                  #        BE SELECTED BY THE ASTRONAUT BY DSKY ENTRY V37 E31.
000041:
000042:                                                                                                  #  SUBROUTINES USED **
000043:                                                                                                  #
000044:                                                                                                  #  MANUPARM, TTG/N35, R02BOTH, MIDGIM, DISPMGA, FLAGDOWN, BANKCALL,
000045:                                                                                                  #  GOTOPOOH, ENDOFJOB, PHASCHNG, GOFLASHR, GOFLASH.
000046:
000047:                                                                                                  #  MANUPARM      CALCULATES APOGEE, PERIGEE ALTITUDES AND DELTAV DESIRED
000048:                                                                                                  #                FOR THE MANEUVER.
000049:
000050:                                                                                                  #  TTG/N35       CLOCKTASK - UPDATES CLOCK.
000051:
000052:                                                                                                  #  MIDGIM        CALCULATES MIDDLE GIMBAL ANGLE FOR DISPLAY.
000053:
000054:                                                                                                  #  R02BOTH       IMU - STATUS CHECK ROUTINE.
000055:
000056:                                                                                                  #  DISPLAYS USED IN P-31LM **
000057:
000058:                                                                                                  #  V06N33        DISPLAY SOTRED TIG (IN HRS. MINS. SECS)
000059:                                                                                                  #  V06N42        DISPLAY APOGEE, PERIGEE, DELTAV.
000060:                                                                                                  #  V16N35        DISPLAY TIME FROM TIG.
000061:                                                                                                  #  V06N45        TIME FROM IGNITION AND MIDDLE GIMBAL ANGLE.
000062:
000063:                                                                                                  #  ERASABLE INITIALIZATION REQUIRED **
000064:
000065:                                                                                                  #  TIG           TIME OF IGNITION                DP      (B+28) CS.
000066:
000067:                                                                                                  #  DELLT4        DESIRED TIME OF FLIGHT          DP      (B+28) CS
000068:                                                                                                  #                FROM RINIT TO RTARG.
000069:
000070:                                                                                                  #  RTARG         RADIUS VECTOR OF TARGET POSITION VECTOR
000071:                                                                                                  #                RADIUS VECTOR SCALED TO (B+29)METERS IF EARTH ORBIT


000073:                                                                                                  #                RADIUS VECTOR SCALED TO (B+27)METERS IF MOON ORBIT
000074:
000075:                                                                                                  #  OUTPUT **
000076:
000077:                                                                                                  #  HAPO          APOGEE ALTITUDE
000078:                                                                                                  #  HPER          PERIGEE ALTITUDE
000079:                                                                                                  #  VGDISP        MAG. OF DELTAV FOR DISPLAY, SCALING     B+7 M/CS EARTH
000080:                                                                                                  #                MAG. OF DELTAV FOR DISPLAY, SCALING     B+5 M/CS MOON
000081:                                                                                                  #  MIDGIM        MIDDLE GIMBAL ANGLE
000082:                                                                                                  #  XDELVFLG      RESETS XDELVFLG FOR LAMBERT VG COMPUTATIONS
000083:
000084:                                                                                                  #  ALARMS OR ABORTS      NONE **
000085:
000086:                                                                                                  #  RESTARTS ARE VIA GROUP 4 **
000087:
000088: 35,2000                                           SETLOC   GLM
000089: 35,2000                                           BANK
000090:
000091: 35,2450  E7,1470                                  EBANK=   SUBEXIT
000092:
000093: 35,2450                                           COUNT*   $$/P31
000094: 35,2450           02361        P31                TC       P20FLGON
000095: 35,2451           32025                           CAF      V06N33                                #  TIG
000096: 35,2452           03712                           TC       VNPOOH
000097: 35,2453           06037                           TC       INTPRET
000098: 35,2454           71214                           CLEAR    DLOAD
000099: 35,2455           00670                                    UPDATFLG
000100: 35,2456           03442                                    TIG
000101: 35,2457           34041                           STCALL   TDEC1                                 #  INTEGRATE STATE VECTORS TO TIG
000102: 35,2460           27057                                    LEMPREC
000103: 35,2461           40375                           VLOAD    SETPD
000104: 35,2462           00001                                    RATT
000105: 35,2463           00001                                    0D
000106: 35,2464           03642                           STORE    RTIG
000107: 35,2465           26323                           STOVL    RINIT
000108: 35,2466           00007                                    VATT
000109: 35,2467           03650                           STORE    VTIG
000110: 35,2470           16331                           STODL    VINIT
000111: 35,2471           32420                                    P30ZERO
000112: 35,2472           65206                           PUSH     PDDL                                  #  E4 AND NUMIT = 0
000113: 35,2473           03452                                    DELLT4
000114: 35,2474           66015                           DAD      SXA,1
000115: 35,2475           03442                                    TIG
000116: 35,2476           02776                                    RTX1
000117: 35,2477           03631                           STORE    TPASS4
000118: 35,2500           45134                           SXA,2    CALL
000119: 35,2501           02777                                    RTX2
000120: 35,2502           22000                                    INITVEL
000121: 35,2503           41575                           VLOAD    PUSH


000123: 35,2504           02366                                    DELVEET3
000124: 35,2505           03656                           STORE    DELVSIN
000125: 35,2506           43046                           ABVAL    CLEAR
000126: 35,2507           01267                                    XDELVFLG
000127: 35,2510           37664                           STCALL   VGDISP
000128: 35,2511           15733                                    GET.LVC
000129: 35,2512           63375                           VLOAD    PDVL
000130: 35,2513           03642                                    RTIG
000131: 35,2514           02337                                    VIPRIME
000132: 35,2515           77624                           CALL
000133: 35,2516           46316                                    PERIAPO1
000134: 35,2517           77624                           CALL
000135: 35,2520           46426                                    SHIFTR1
000136: 35,2521           77624                           CALL                                           #  LIMIT DISPLAY TO 9999.9 N. MI.
000137: 35,2522           45636                                    MAXCHK
000138: 35,2523           16321                           STODL    HPER
000139: 35,2524           00005                                    4D
000140: 35,2525           77624                           CALL
000141: 35,2526           46426                                    SHIFTR1
000142: 35,2527           77624                           CALL                                           #  LIMIT DISPLAY TO 9999.9 N. MI.
000143: 35,2530           45636                                    MAXCHK
000144: 35,2531           02317                           STORE    HAPO
000145: 35,2532           77776                           EXIT
000146: 35,2533           33727                           CAF      V06N81                                #  DELVLVC
000147: 35,2534           03712                           TC       VNPOOH
000148: 35,2535           32026                           CAF      V06N42                                #  HAPO, HPER, VGDISP
000149: 35,2536           03712                           TC       VNPOOH
000150: 35,2537           06037                           TC       INTPRET
000151: 35,2540           45014        REVN1645           SET      CALL                                  #  TRKMKCNT, TTOGO, +MGA
000152: 35,2541           01071                                    FINALFLG
000153: 35,2542           73606                                    VN1645
000154: 35,2543           77650                           GOTO
000155: 35,2544           72540                                    REVN1645
000156:

End of include-file LAMBERT_AIMPOINT_GUIDANCE.agc.  Parent file is MAIN.agc


