
Source Code


000002:                                                                                                  ## Copyright:   Public domain.
000003:                                                                                                  ## Filename:    LUNAR_AND_SOLAR_EPHEMERIDES_SUBROUTINES.agc
000004:                                                                                                  ## Purpose:     Part of the source code for Luminary 1A build 099.
000005:                                                                                                  ##              It is part of the source code for the Lunar Module's (LM)
000006:                                                                                                  ##              Apollo Guidance Computer (AGC), for Apollo 11.
000007:                                                                                                  ## Assembler:   yaYUL
000008:                                                                                                  ## Contact:     Hartmuth Gutsche <hgutsche@xplornet.com>.
000009:                                                                                                  ## Website:     www.ibiblio.org/apollo.
000010:                                                                                                  ## Pages:       984-987
000011:                                                                                                  ## Mod history: 2009-05-24 HG   Transcribed from page images.
000012:                                                                                                  ##              2016-12-17 RSB  Proofed text comments with octopus/ProoferComments
000013:                                                                                                  ##                              and corrected the errors found.
000014:                                                                                                  ##              2017-03-03 RSB  Snapshot of Luminary 99 Rev 1.
000015:


000017:                                                                                                  #  NAME - LSPOS - LOCATE SUN AND MOON                    DATE - 25 OCT 67
000018:                                                                                                  #  MOD NO. 1
000019:                                                                                                  #  MOD BY NEVILLE                                        ASSEMBLY SUNDANCE
000020:
000021:                                                                                                  #  FUNCTIONAL DESCRIPTION
000022:
000023:                                                                                                  #         COMPUTES UNIT POSITION VECTOR OF THE SUN AND MOON IN THE BASIC REFERENCE SYSTEM. THE SUN VECTOR S IS
000024:                                                                                                  #  LOCATED VIA TWO ANGLES. THE FIRST ANGLE(OBLIQUITY) IS THE ANGLE BETWEEN THE EARTH EQUATOR AND THE ECLIPTIC. THE
000025:                                                                                                  #  SECOND ANGLE IS THE LONGITUDE OF THE SUN MEASURED IN THE ECLIPTIC.
000026:                                                                                                  #  THE POSITION VECTOR OF THE SUN IS
000027:                                                                                                  #        -
000028:                                                                                                  #        S = (COS(LOS), COS(OBL)*SIN(LOS), SIN(OBL)*SIN(LOS)), WHERE
000029:
000030:                                                                                                  #        LOS = LOS +LOS *T-(C *SIN(2PI*T)/365.24 +C *COS(2PI*T)/365.24)
000031:                                                                                                  #                 0    R     0                     1
000032:                                                                                                  #        LOS  (RAD) IS THE LONGITUDE OF THE SUN FOR MIGNIGHT JUNE 30TH OF THE PARTICULAR YEAR.
000033:                                                                                                  #           0
000034:                                                                                                  #        LOS  (RAD/DAY) IS THE MEAN RATE FOR THE PARTICULAR YEAR.
000035:                                                                                                  #           R
000036:
000037:                                                                                                  #  LOS  AND LOS  ARE STORED AS LOSC AND LOSR IN RATESP.
000038:                                                                                                  #     0        R
000039:                                                                                                  #  COS(OBL) AND SIN(OBL) ARE STORED IN THE MATRIX KONMAT.
000040:
000041:                                                                                                  #  T, TIME MEASURED IN DAYS (24 HOURS), IS STORED IN TIMEP.
000042:
000043:                                                                                                  #  C  AND C  ARE FUDGE FACTORS TO MINIMIZE THE DEVIATION.  THEY ARE STORED AS ONE CONSTANT (CMOD), SINCE
000044:                                                                                                  #   0      1                               2  2 1/2
000045:                                                                                                  #  C *SIN(X)+C *COS(X) CAN BE WRITTEN AS (C +C )   *SIN(X+PHI), WHERE PHI=ARCTAN(C /C ).
000046:                                                                                                  #   0         1                            0  1                                   1  0
000047:
000048:                                                                                                  #  THE MOON IS LOCATED VIA FOUR ANGLES, THE FIRST IS THE OBLIQUITY. THE SECOND IS THE MEAN LONGITUDE OF THE MOON,
000049:                                                                                                  #  MEASURED IN THE ECLIPTIC FROM THE MEAN EQUINOX TO THE MEAN ASCENDING NODE OF THE LUNAR ORBIT, AND THEN ALONG THE
000050:                                                                                                  #  ORBIT.  THE THIRD ANGLE IS THE ANGLE BETWEEN THE ECLIPTIC AND THE LUNAR ORBIT.  THE FOURTH ANGLE IS THE LONGITUDE
000051:                                                                                                  #  OF THE NODE OF THE MOON, MEASURED IN THE LUNAR ORBIT.  LET THESE ANGLES BE OBL,LOM,IM, AND LON RESPECTIVELY.
000052:
000053:                                                                                                  #  THE SIMPLIFIED POSITION VECTOR OF THE MOON IS
000054:                                                                                                  #        -
000055:                                                                                                  #        M=(COS(LOM), COS(OBL)*SIN(LOM)-SIN(OBL)*SIN(IM)*SIN(LOM-LON), SIN(OBL)*SIN(LOM)+COS(OBL)*SIN(IM)*SIN(LOM-LON))
000056:
000057:                                                                                                  #  WHERE
000058:                                                                                                  #        LOM=LOM +LOM *T-(A *SIN 2PI*T/27.5545+A *COS(2PI*T/27.5545)+B *SIN 2PI*T/32+B *COS(2PI*T/32)), AND
000059:                                                                                                  #               0    R     0                    1                     0               1
000060:                                                                                                  #        LON=LON +LON
000061:                                                                                                  #               0    R
000062:                                                                                                  #  A , A , B  AND B  ARE STORED AS AMOD AND BMOD (SEE DESCRIPTION OF CMOD, ABOVE).  COS(OBL), SIN(OBL)*SIN(IM),
000063:                                                                                                  #   0   1   0      1
000064:                                                                                                  #  SIN(OBL), AND COS(OBL)*SIN(IM) ARE STORED IN KONMAT AS K1, K2, K3 AND K4, RESPECTIVELY.  LOM , LOM , LON , LON
000065:                                                                                                  #  ARE STORED AS LOM0, LOMR, LON0, AND LONR IN RATESP.                                         0     R     0     R
000066:                                                                                                  #  THE THREE PHIS ARE STORED AS AARG, BARG, AND CARG(SUN).  ALL CONSTANTS ARE UPDATED BY YEAR.
000067:
000068:                                                                                                  #  CALLING SEQUENCE


000070:                                                                                                  #        CALL LSPOS.  RETURN IS VIA CPRET.
000071:
000072:                                                                                                  #  ALARMS OR ABORTS
000073:                                                                                                  #        NONE
000074:
000075:                                                                                                  #  ERASABLE INITIALIZATION REQUIRED
000076:                                                                                                  #        TEPHEM - TIME FROM MIDNIGHT 1 JULY PRECEDING THE LAUNCH TO THE TIME OF THE LAUNCH (WHEN THE AGC CLOCK WENT
000077:                                                                                                  #        TO ZERO).  TEPHEM IS TP WITH UNITS OF CENTI-SECONDS.
000078:
000079:                                                                                                  #        TIME2 AND TIME1 ARE IN MPAC AND MPAC +1 WHEN PROGRAM IS CALLED.
000080:
000081:                                                                                                  #  OUTPUT
000082:                                                                                                  #        UNIT POSITIONAL VECTOR OF SUN IN VSUN.  (SCALED B-1)
000083:                                                                                                  #        UNIT POSITIONAL VECTOR OF MOON IN VMOON.  (SCALED B-1)
000084:
000085:                                                                                                  #  SUBROUTINES USED
000086:                                                                                                  #        NONE
000087:
000088:                                                                                                  #  DEBRIS
000089:                                                                                                  #        CURRENT CORE SET, WORK AREA AND FREEFLAG
000090:
000091: 04,3027                                           BANK     04
000092: 15,2000                                           SETLOC   EPHEM
000093: 15,2000                                           BANK
000094:
000095: 15,3664  E5,1714                                  EBANK=   VSUN
000096: 15,3664                                           COUNT*   $$/EPHEM
000097: 15,3664  15,3664               LUNPOS             EQUALS   LSPOS
000098:
000099: 15,3664           54201        LSPOS              SETPD    SR
000100: 15,3665           00001                                    0
000101: 15,3666           20617                                    14D                                   #  TP
000102: 15,3667           56371                           TAD      DDV


000104: 15,3670           01707                                    TEPHEM                                #  TIME OF LAUNCH
000105: 15,3671           12024                                    CSTODAY                               #  24 HOURS-8640000 CENTI-SECS/DAY B-33


000107: 15,3672           00031                           STORE    TIMEP                                 #  T IN DAYS


000109: 15,3673           77170                           AXT,1    AXT,2
000110: 15,3674           00000                                    0
000111: 15,3675           00000                                    0
000112: 15,3676           77614                           CLEAR
000113: 15,3677           00274                                    FREEFLAG                              #  SWITCH BIT
000114: 15,3700           77745        POSITA             DLOAD
000115: 15,3701           12004                                    KONMAT     +2                         #  ZEROS
000116: 15,3702           00027                           STORE    GTMP
000117: 15,3703           40745        POSITB             DLOAD    DMP*
000118: 15,3704           00031                                    TIMEP                                 #  T
000119: 15,3705           12050                                    VAL67      +4,1                       #  1/27 OR 1/32 OR 1/365


000121: 15,3706           42661                           SL       DAD*
000122: 15,3707           20211                                    8D
000123: 15,3710           12046                                    VAL67      +2,1                       #  AARG
000124: 15,3711           40756                           SIN      DMP*                                  #  SIN(T/27+PHI) OR T/32 OR T/365
000125: 15,3712           12044                                    VAL67,1                               #  (A0**2+A1**2)**1/2 SIN(X+PHIA)
000126: 15,3713           62015                           DAD      INCR,1                                #  PLUS
000127: 15,3714           00027                                    GTMP                                  #  (B0**2+B1**2)**1/2 SIN(X+PHIB)
000128: 15,3715           77771                           DEC      -6         B-14
000129: 15,3716           00027                           STORE    GTMP                                  #  OR (C0**2+C1**2)**1/2 SIN(X+PHIC)
000130: 15,3717           77614                           BOFSET
000131: 15,3720           00054                                    FREEFLAG
000132: 15,3721           33703                                    POSITB
000133: 15,3722           40745        POSITD             DLOAD    DMP*
000134: 15,3723           00031                                    TIMEP                                 #  T
000135: 15,3724           65747                                    RATESP,2                              #  LOMR,LOSR,LONR
000136: 15,3725           42661                           SL       DAD*
000137: 15,3726           20206                                    5D
000138: 15,3727           65741                                    RATESP     +6,2                       #  LOM0,LOS0,LON0
000139: 15,3730           77625                           DSU
000140: 15,3731           00027                                    GTMP
000141: 15,3732           10021                           STORE    STMP,2                                #  LOM,LOS,LON
000142: 15,3733           63135                           SLOAD    INCR,2
000143: 15,3734           00050                                    X2
000144: 15,3735           77775                           DEC      -2         B-14
000145: 15,3736           53015                           DAD      BZE
000146: 15,3737           12026                                    RCB-13                                #  PLUS 2
000147: 15,3740           33770                                    POSITE                                #  2ND
000148: 15,3741           77644                           BPL
000149: 15,3742           33700                                    POSITA                                #  1ST
000150: 15,3743           45345        POSITF             DLOAD    DSU                                   #  3RD
000151: 15,3744           00021                                    STMP                                  #  LOM
000152: 15,3745           00025                                    STMP       +4                         #  LON
000153: 15,3746           65356                           SIN      PDDL                                  #  SIN(LOM-LON)
000154: 15,3747           00021                                    STMP
000155: 15,3750           65356                           SIN      PDDL                                  #  SIN LOM
000156: 15,3751           00021                                    STMP
000157: 15,3752           55546                           COS      VDEF                                  #  COS LOM
000158: 15,3753           53521                           MXV      UNIT
000159: 15,3754           12002                                    KONMAT                                #  K1,K2,K3,K4,
000160: 15,3755           02723                           STORE    VMOON
000161: 15,3756           65345                           DLOAD    PDDL
000162: 15,3757           12004                                    KONMAT     +2                         #  ZERO
000163: 15,3760           00023                                    STMP       +2
000164: 15,3761           65356                           SIN      PDDL                                  #  SIN LOS
000165: 15,3762           00023                                    STMP       +2
000166: 15,3763           55546                           COS      VDEF                                  #  COS LOS
000167: 15,3764           53521                           MXV      UNIT
000168: 15,3765           12002                                    KONMAT
000169: 15,3766           02715                           STORE    VSUN
000170: 15,3767           77616                           RVQ


000172: 15,3770           77745        POSITE             DLOAD
000173: 15,3771           12004                                    KONMAT     +2                         #  ZEROS
000174: 15,3772           00027                           STORE    GTMP
000175: 15,3773           77650                           GOTO
000176: 15,3774           33722                                    POSITD
000177: 15,3775           77616        LUNVEL             RVQ                                            #         TO FOOL INTEGRATION
000178: 05,2000                                           SETLOC   EPHEM1
000179: 05,2000                                           BANK
000180:
000181: 05,3506                                           COUNT*   $$/EPHEM
000182: 05,3506                        STMP               EQUALS   16D
000183: 05,3506                        GTMP               EQUALS   22D
000184: 05,3506                        TIMEP              EQUALS   24D
000185:

End of include-file LUNAR_AND_SOLAR_EPHEMERIDES_SUBROUTINES.agc.  Parent file is MAIN.agc


