
Source Code


000002:                                                                                                  ## Copyright:   Public domain.
000003:                                                                                                  ## Filename:    P30_P37.agc
000004:                                                                                                  ## Purpose:     Part of the source code for Luminary 1A build 099.
000005:                                                                                                  ##              It is part of the source code for the Lunar Module's (LM)
000006:                                                                                                  ##              Apollo Guidance Computer (AGC), for Apollo 11.
000007:                                                                                                  ## Assembler:   yaYUL
000008:                                                                                                  ## Contact:     Ron Burkey <info@sandroid.org>.
000009:                                                                                                  ## Website:     www.ibiblio.org/apollo.
000010:                                                                                                  ## Pages:       614-617
000011:                                                                                                  ## Mod history: 2009-05-17 RSB  Adapted from the corresponding
000012:                                                                                                  ##                              Luminary131 file, using page
000013:                                                                                                  ##                              images from Luminary 1A.
000014:                                                                                                  ##              2009-06-05 RSB  Removed 4 lines of code that shouldn't
000015:                                                                                                  ##                              have survived from Luminary 131.
000016:                                                                                                  ##              2016-12-13 RSB  GOTOP00H -> GOTOPOOH
000017:                                                                                                  ##              2016-12-14 RSB  VNP00H -> VNPOOH.
000018:                                                                                                  ##              2016-12-14 RSB  Proofed text comments with octopus/ProoferComments
000019:                                                                                                  ##                              and corrected the errors found.
000020:                                                                                                  ##              2017-03-03 RSB  Snapshot of Luminary 99 Rev 1.
000021:


000023:                                                                                                  #  PROGRAM DESCRIPTION P30       DATE 3-6-67
000024:
000025:                                                                                                  #  MOD.1 BY RAMA AIYAWAR
000026:
000027:                                                                                                  #  FUNCTIONAL DESCRIPTION
000028:                                                                                                  #        ACCEPT ASTRONAUT INPUTS OF TIG,DELV(LV)
000029:                                                                                                  #        CALL IMU STATUS CHECK ROUTINE (R02)
000030:                                                                                                  #        DISPLAY TIME TO GO, APOGEE, PERIGEE, DELV(MAG), MGA AT IGN
000031:                                                                                                  #        REQUEST BURN PROGRAM
000032:
000033:                                                                                                  #  CALLING SEQUENCE VIA JOB FROM V37
000034:
000035:                                                                                                  #  EXIT VIA V37 CALL OR TO GOTOPOOH (V34E)
000036:
000037:                                                                                                  #  SUBROUTINE CALLS -    FLAGUP, PHASCHNG, BANKCALL, ENDOFJOB, GOFLASH, GOFLASHR
000038:                                                                                                  #                        GOPERF3R, INTPRET, BLANKET, GOTOPOOH, R02BOTH, S30.1,
000039:                                                                                                  #                        TTG/N35, MIDGIM, DISPMGA
000040:
000041:                                                                                                  #  ERASABLE INITIALIZATION - STATE VECTOR
000042:
000043:                                                                                                  #  OUTPUT -      RINIT, VINIT, +MGA, VTIG, RTIG, DELVSIN, DELVSAB, DELVSLV, HAPO,
000044:                                                                                                  #                HPER, TTOGO
000045:
000046:                                                                                                  #  DEBRIS - A, L, MPAC, PUSHLIST
000047:
000048: 32,2776                                           BANK     32
000049: 35,2000                                           SETLOC   P30S
000050: 35,2000                                           BANK
000051: 35,2000  E4,1652                                  EBANK=   +MGA
000052: 35,2000                                           COUNT*   $$/P30
000053: 35,2000           05504        P30                TC       UPFLAG                                #  SET UPDATE FLAG
000054: 35,2001           00027                           ADRES    UPDATFLG
000055: 35,2002           05504                           TC       UPFLAG                                #  SET TRACK FLAG
000056: 35,2003           00031                           ADRES    TRACKFLG
000057:
000058: 35,2004           32025        P30N33             CAF      V06N33                                #  T OF IGN
000059: 35,2005           03712                           TC       VNPOOH                                #  RETURNS ON PROCEED, POOH ON TERMINATE
000060:
000061: 35,2006           33727                           CAF      V06N81                                #  DISPLAY DELTA V (LV)
000062: 35,2007           03712                           TC       VNPOOH                                #        REDISPLAY ON RECYCLE
000063:
000064: 35,2010           05516                           TC       DOWNFLAG                              #  RESET UPDATE FLAG
000065: 35,2011           00027                           ADRES    UPDATFLG
000066: 35,2012           06037                           TC       INTPRET
000067: 35,2013           77624                           CALL
000068: 35,2014           70000                                    S30.1
000069: 35,2015           77414                           SET      EXIT
000070: 35,2016           00470                                    UPDATFLG
000071: 35,2017           32026        PARAM30            CAF      V06N42                                #  DISPLAY APOGEE,PERIGEE,DELTA V
000072: 35,2020           03712                           TC       VNPOOH


000074:
000075: 35,2021           06037                           TC       INTPRET
000076: 35,2022           77614                           SETGO
000077: 35,2023           01027                                    XDELVFLG                              #  FOR P40'S: EXTERNAL DELTA-V GUIDANCE.
000078: 35,2024           72540                                    REVN1645                              #  TRKMKCNT, TGO, +MGA  DISPLAY
000079:
000080: 35,2025           01441        V06N33             VN       0633
000081: 35,2026           01452        V06N42             VN       0642
000082:


000084:                                                                                                  #  PROGRAM DESCRIPTION S30.1     DATE 9NOV66
000085:                                                                                                  #  MOD NO 1                      LOG SECTION P30,P37
000086:                                                                                                  #  MOD BY RAMA AIYAWAR **
000087:
000088:                                                                                                  #  FUNCTIONAL DESCRIPTION
000089:                                                                                                  #        BASED ON STORED TARGET PARAMETERS (R OF IGNITION (RTIG), V OF
000090:                                                                                                  #        IGNITION (VTIG), TIME OF IGNITION (TIG)), COMPUTE PERIGEE ALTITUDE
000091:                                                                                                  #        APOGEE ALTITUDE AND DELTAV REQUIRED (DELVSIN).
000092:
000093:                                                                                                  #  CALLING SEQUENCE
000094:                                                                                                  #        L       CALL
000095:                                                                                                  #        L+1             S30.1
000096:
000097:                                                                                                  #  NORMAL EXIT MODE
000098:                                                                                                  #        AT L+2 OR CALLING SEQUENCE (GOTO L+2)
000099:
000100:                                                                                                  #  SUBROUTINES CALLED
000101:                                                                                                  #        LEMPREC
000102:                                                                                                  #        PERIAPO
000103:
000104:                                                                                                  #  ALARM OR ABORT EXIT MODES
000105:                                                                                                  #        NONE
000106:
000107:                                                                                                  #  ERASABLE INITIALIZATION REQUIRED
000108:                                                                                                  #        TIG             TIME OF IGNITION        DP B28CS
000109:                                                                                                  #        DELVSLV         SPECIFIED DELTA-V IN LOCAL VERT.
000110:                                                                                                  #                        COORDS. OF ACTIVE VEHICLE AT
000111:                                                                                                  #                        TIME OF IGNITION        VECTOR B+7 METERS/CS
000112:
000113:                                                                                                  #  OUTPUT
000114:                                                                                                  #        RTIG            POSITION AT TIG         VECTOR B+29 METERS
000115:                                                                                                  #        VTIG            VELOCITY AT TIG         VECTOR B+29 METERS/CS
000116:                                                                                                  #        PDL 4D          APOGEE ALTITUDE         DP B+29 M, B+27 METERS.
000117:                                                                                                  #        HAPO            APOGEE ALTITUDE         DP B+29 METERS
000118:                                                                                                  #        PDL 8D          PERIGEE ALTITUDE        DP B+29 M, B+27 METERS.
000119:                                                                                                  #        HPER            PERIGEE ALTITUDE        DP B+29 METERS
000120:                                                                                                  #        DELVSIN         SPECIFIED DELTA-V IN INERTIAL
000121:                                                                                                  #                        COORD. OF ACTIVE VEHICLE AT
000122:                                                                                                  #                        TIME OF IGNITION        VECTOR B+7 METERS/CS
000123:                                                                                                  #        DELVSAB         MAG. OF DELVSIN         VECTOR B+7 METERS/CS
000124:
000125:                                                                                                  #  DEBRIS        QTEMP   TEMP.ERASABLE
000126:                                                                                                  #                QPRET, MPAC
000127:                                                                                                  #                PUSHLIST
000128:
000129: 34,2000                                           SETLOC   P30S1
000130: 34,2000                                           BANK
000131:
000132: 34,2000                                           COUNT*   $$/S30S
000133:
000134: 34,2000           71220        S30.1              STQ      DLOAD
000135: 34,2001           03632                                    QTEMP
000136: 34,2002           03442                                    TIG                                   #  TIME IGNITION SCALED AT 2(+28)CS
000137: 34,2003           34041                           STCALL   TDEC1
000138: 34,2004           27057                                    LEMPREC                               #  ENCKE ROUTINE FOR LEM
000139:
000140: 34,2005           67175                           VLOAD    SXA,2


000142: 34,2006           00001                                    RATT
000143: 34,2007           02777                                    RTX2
000144: 34,2010           03642                           STORE    RTIG                                  #  RADIUS VECTOR AT IGNITION TIME
000145: 34,2011           57456                           UNIT     VCOMP
000146: 34,2012           27656                           STOVL    DELVSIN                               #  ZRF/LV IN DELVSIN SCALED AT 2
000147: 34,2013           00007                                    VATT                                  #  VELOCITY VECTOR AT TIG, SCALED 2(7) M/CS
000148: 34,2014           03650                           STORE    VTIG
000149: 34,2015           53435                           VXV      UNIT
000150: 34,2016           03642                                    RTIG
000151: 34,2017           66001                           SETPD    SXA,1
000152: 34,2020           00001                                    0
000153: 34,2021           02776                                    RTX1
000154: 34,2022           47206                           PUSH     VXV                                   #  YRF/LV PDL 0 SCALED AT 2
000155: 34,2023           03656                                    DELVSIN
000156: 34,2024           63372                           VSL1     PDVL
000157: 34,2025           63315                           PDVL     PDVL                                  #  YRF/LV PDL 6 SCALED AT 2
000158: 34,2026           03656                                    DELVSIN                               #  ZRF/LV PDL 12D SCALED AT 2
000159: 34,2027           03434                                    DELVSLV
000160: 34,2030           76505                           VXM      VSL1
000161: 34,2031           00001                                    0
000162: 34,2032           03656                           STORE    DELVSIN                               #  DELTAV IN INERT. COOR. SCALED TO B+7M/CS
000163: 34,2033           77646                           ABVAL
000164: 34,2034           27664                           STOVL    DELVSAB                               #  DELTA V MAG.
000165: 34,2035           03642                                    RTIG                                  #  (FOR PERIAPO)
000166: 34,2036           53315                           PDVL     VAD                                   #  VREQUIRED = VTIG + DELVSIN (FOR PERIAPO)
000167: 34,2037           03650                                    VTIG
000168: 34,2040           03656                                    DELVSIN
000169: 34,2041           77624                           CALL
000170: 34,2042           46316                                    PERIAPO1
000171: 34,2043           77624                           CALL
000172: 34,2044           46426                                    SHIFTR1                               #  RESCALE IF NEEDED
000173: 34,2045           77624                           CALL                                           #  LIMIT DISPLAY TO 9999.9 N. MI.
000174: 34,2046           45636                                    MAXCHK
000175: 34,2047           16321                           STODL    HPER                                  #  PERIGEE ALT 2(29) METERS, FOR DISPLAY
000176: 34,2050           00005                                    4D
000177: 34,2051           77624                           CALL
000178: 34,2052           46426                                    SHIFTR1                               #  RESCALE IF NEEDED
000179: 34,2053           77624                           CALL                                           #  LIMIT DISPLAY TO 9999.9 N. MI.
000180: 34,2054           45636                                    MAXCHK
000181: 34,2055           36317                           STCALL   HAPO                                  #  APOGEE ALT 2(29) METERS, FOR DISPLAY
000182: 34,2056           03632                                    QTEMP
000183:
000184:

End of include-file P30,P37.agc.  Parent file is MAIN.agc


