
Source Code


000002:                                                                                                  ## Copyright:   Public domain.
000003:                                                                                                  ## Filename:    P40-P47.agc
000004:                                                                                                  ## Purpose:     Part of the source code for Luminary 1A build 099.
000005:                                                                                                  ##              It is part of the source code for the Lunar Module's (LM)
000006:                                                                                                  ##              Apollo Guidance Computer (AGC), for Apollo 11.
000007:                                                                                                  ## Assembler:   yaYUL
000008:                                                                                                  ## Contact:     Ron Burkey <info@sandroid.org>.
000009:                                                                                                  ## Website:     www.ibiblio.org/apollo.
000010:                                                                                                  ## Pages:       752-784
000011:                                                                                                  ## Mod history: 2009-05-19 RSB  Adapted from the corresponding
000012:                                                                                                  ##                              Luminary131 file, using page
000013:                                                                                                  ##                              images from Luminary 1A.
000014:                                                                                                  ##              2011-01-06 JL   Fixed interpretive indentation.
000015:                                                                                                  ##              2016-12-13 RSB  GOTOP00H -> GOTOPOOH
000016:                                                                                                  ##              2016-12-15 RSB  Proofed text comments with octopus/ProoferComments
000017:                                                                                                  ##                              and corrected the errors found.
000018:                                                                                                  ##              2017-03-03 RSB  Snapshot of Luminary 99 Rev 1.
000019:                                                                                                  ##              2017-03-10 RSB  Comment-text fixes noted in proofing Luminary 116.
000020:


000022:                                                                                                  #  PROGRAM DESCRIPTION  P40BOTH          DECEMBER 22, 1966
000023:                                                                                                  #  MOD 03 BY PETER ADLER                 MARCH 3, 1967
000024:                                                                                                  #  CALLED VIA JOB FROM V37E
000025:
000026:                                                                                                  #  FUNCTIONAL DESCRIPTION
000027:
000028:                                                                                                  #        1)      TO COMPUTE A PREFERRED IMU ORIENTATION AND A PREFERRED VEHICLE ATTITUDE FOR A LM DPS
000029:                                                                                                  #                THRUSTING MANEUVER.


000031:                                                                                                  #        3)      TO DO THE VEHICLE MANEUVER TO THE THRUSTING ATTITUDE.
000032:                                                                                                  #        4)      TO CONTROL THE PGNCS DURING COUNTDOWN, IGNITION, THRUSTING, AND THRUST TERMINATION OF A
000033:                                                                                                  #                PGNCS CONTROLLED DPS MANEUVER.
000034:                                                                                                  #        5)      IN POSTBURN--ZERO RENDEZVOUS COUNTER, MAINTAIN VG CALCULATIONS FOR POSSIBLE RCS MANEUVER,
000035:                                                                                                  #                SET MAXIMUM DEADBAND IN DAP, RESET STEERLAW CSTEER TO ZERO.
000036:
000037:                                                                                                  #        NOTE:   P42, WHICH IS IN THIS LOG SECTION, DOES THE SAME FOR AN APS BURN, AND P41 DOES 1-3 FOR
000038:                                                                                                  #                RCS PLUS DISPLAYS PARAMETERS FOR MANUAL CONTROL.
000039:
000040:                                                                                                  #  SUBROUTINES USED
000041:
000042:                                                                                                  #        R02             IMU STATUS CHECK
000043:                                                                                                  #        S40.1           COMPUTATION OF THRUST DIRECTION
000044:                                                                                                  #        S40.13          LENGTH OF BURN
000045:                                                                                                  #        S40.2,3         PREFERRED IMU ORIENATTION
000046:                                                                                                  #        S40.8           X PRODUCT STEERING
000047:                                                                                                  #        S40.9           LAMBERT VTOGAIN
000048:                                                                                                  #        R60LEM          ATTITUDE MANEUVER
000049:                                                                                                  #        LEMPREC         EXTRAPOLATE STATE VECTOR
000050:                                                                                                  #        PREREAD         AVERAGE G, SERVICER
000051:                                                                                                  #        ALLCOAST        DAP COASTING INITIALIZATION
000052:                                                                                                  #        CLOKTASK        ERGO CLOCKJOB -- COUNT DOWN
000053:                                                                                                  #        PHASCHNG, INTPRET, FLAGUP, FLAGDOWN, WAITLIST, LONGCALL, GOFLASH, GOFLASHR, GOPERF1, ALARM,
000054:                                                                                                  #        PRIOLARM, GOTOPOOH, ENDOFJOB, BANKCALL, SETMAXDB, SETMINDB, CHECKMM, FLATOUT, OUTFLAT,
000055:                                                                                                  #        KILLTASK, SGNAGREE, TPAGREE, ETC.
000056:
000057:                                                                                                  #  RESTARTS VIA GROUP 4
000058:
000059:                                                                                                  #  DISPLAYS
000060:
000061:                                                                                                  #        V50N25  203 A/P TO PGNCS, AUTOTHROTTLE MODE, AUTO ATTITUDE CONTROL
000062:                                                                                                  #        V06N40  TTI, VG, DELTAVM (DISPLAYED ONCE/SECOND BY CLOKTASK)
000063:                                                                                                  #        V50N99  PLEASE PERFORM ENGINE ON ENABLE
000064:                                                                                                  #        V06N40  TG (TIME TO GO TO CUTOFF), VG, DELTAVM -- ONCE/SECOND
000065:                                                                                                  #        V16N40  FINAL VALUES OF TG, VG, DELTAVM
000066:                                                                                                  #        V16N85  COMP OF VG (BODY AXES) FOR POSS. RCS MANUAL MANEUVER
000067:                                                                                                  #        V05N09  POSSIBLE ALARMS
000068:                                                                                                  #        V50N07  PLEASE SELECT P00
000069:


000071:                                                                                                  #        VIA R30
000072:
000073:                                                                                                  #        V06N44  HAPO, PERI, TFF
000074:                                                                                                  #        V06N35  TIME TO PERIGEE, HMS
000075:
000076:                                                                                                  #  ALARM OR ABORT EXIT MODES
000077:
000078:                                                                                                  #        PROGRAM ALARM, FLASHING DISPLAY OF ALARM CODE 1706 IF P40 SELECTED WITH DESCENT UNIT STAGED.
000079:                                                                                                  #        V34E (TERMINATE) IS THE ONLY RESPONSE ACCEPTED.  TC GOTOPOOH.
000080:
000081:                                                                                                  #        PROGRAM ALARM, FLASH CODE 1703:  TIG LESS THAN 45 SECS AWAY.  V34E= GOTOPOOH OR V33E= SLIP
000082:                                                                                                  #        TIG BY 45 SECS.
000083:
000084:                                                                                                  #  ERASABLE INITIALIZATION
000085:
000086:                                                                                                  #  DEBRIS
000087:
000088:                                                                                                  #  OUTPUT
000089:
000090:                                                                                                  #        SEE SUBROUTINES E.G.:  S40.1, S40.2,3, S40.13, S40.8, S40.9, TRIMGIMB
000091:                                                                                                  #        XDELVFLG = 1 FOR EXT DELV COMPUTATION
000092:                                                                                                  #                 = 0 FOR AIMPT (LAMBERT) COMP
000093:
000094: 27,2246                                           COUNT*   $$/P40
000095: 27,2246  E7,1455                                  EBANK=   WHICH
000096:
000097: 36,3147                                           BANK     36
000098: 36,2000                                           SETLOC   P40S
000099: 36,2000                                           BANK
000100:
000101: 36,3147           05353        P40LM              TC       PHASCHNG
000102: 36,3150           04024                           OCT      04024
000103:
000104: 36,3151           33133                           CAF      P40ADRES                              #  INITIALIZATION FOR BURNBABY.
000105: 36,3152           55455                           TS       WHICH
000106:
000107: 36,3153           30106                           CA       FLGWRD10
000108: 36,3154           74737                           MASK     APSFLBIT
000109: 36,3155           10000                           CCS      A
000110: 36,3156           13121                           TCF      P40ALM
000111: 36,3157           04616                           TC       BANKCALL                              #  GO DO IMU STATUS CHECK ROUTINE.
000112: 36,3160           11254                           CADR     R02BOTH
000113:
000114: 36,3161           40111                           CS       DAPBOOLS                              #  INITIALIZE DVMON
000115: 36,3162           74737                           MASK     CSMDOCKD
000116: 36,3163           10000                           CCS      A
000117: 36,3164           32020                           CAF      THRESH1
000118: 36,3165           62021                           AD       THRESH3
000119: 36,3166           55251                           TS       DVTHRUSH
000120: 36,3167           34751                           CAF      FOUR
000121: 36,3170           55515                           TS       DVCNTR


000123: 36,3171           06037                           TC       INTPRET                               #  LOAD CONSTANTS FOR DPS BURN
000124: 36,3172           43175                           VLOAD    CLEAR                                 #  LOAD F, MDOT, TDECAY
000125: 36,3173           34001                                    FDPS
000126: 36,3174           02663                                    NOTHROTL
000127: 36,3175           03735                           STORE    F
000128: 36,3176           77735                           SLOAD
000129: 36,3177           26002                                    DPSVEX
000130: 36,3200           70476        P40IN              DCOMP    SR1
000131: 36,3201           37743                           STCALL   VEX                                   #  LOAD EXHAUST VELOCITY FOR TGO COMP.
000132: 36,3202           56246                                    S40.1                                 #  COMPUTES UT AND VGTIG
000133: 36,3203           77624                           CALL
000134: 36,3204           56413                                    S40.2,3                               #  COMPUTES PREFERRED IMU ORIENTATION
000135: 36,3205           77776                           EXIT
000136:
000137: 36,3206           00004                           INHINT
000138: 36,3207           04674                           TC       IBNKCALL
000139: 36,3210           40142                           CADR     PFLITEDB                              #  ZERO ATTITUDE ERRORS, SET DB TO ONE DEG.
000140:
000141: 36,3211           03213                           TC       P40SXT4
000142:
000143:                                                                                                  #        ***********************
000144:
000145: 36,3212           12126                           TCF      BURNBABY
000146:
000147:                                                                                                  #        ***********************
000148:
000149: 36,3213           00006        P40SXT4            EXTEND
000150: 36,3214           23142                           QXCH     P40/RET
000151: 36,3215           00003        P41MANU            RELINT
000152:
000153: 36,3216           05516                           TC       DOWNFLAG                              #  CLEAR 3AXISFLG -- R60 WILL USE VECPOINT.
000154: 36,3217           00124                           ADRES    3AXISFLG
000155:
000156: 36,3220           04616                           TC       BANKCALL
000157: 36,3221           54123                           CADR     R60LEM                                #  DO ATTITUDE MANEUVER ROUTINE
000158: 36,3222           01142                           TC       P40/RET
000159:
000160: 36,3223  E7,1462                                  EBANK=   TRKMKCNT
000161: 36,3223           30005        POSTBURN           CA       Z
000162: 36,3224           55163                           TS       DISPDEX
000163: 36,3225           00006                           EXTEND
000164: 36,3226           32056                           DCA      ACADN85
000165: 36,3227           53253                           DXCH     AVEGEXIT
000166: 36,3230           33760                           CAF      V16N40
000167: 36,3231           04616                           TC       BANKCALL
000168: 36,3232           20635                           CADR     GOFLASHR
000169: 36,3233           03256                           TC       TERM40
000170: 36,3234           13241                           TCF      TIGNOW
000171: 36,3235           03223                           TC       POSTBURN


000173: 36,3236           05353        P40PHS1            TC       PHASCHNG
000174: 36,3237           00014                           OCT      00014
000175: 36,3240           15155                           TCF      ENDOFJOB
000176:
000177: 36,3241           00004        TIGNOW             INHINT
000178: 36,3242           04674                           TC       IBNKCALL
000179: 36,3243           40153                           CADR     ZATTEROR
000180: 36,3244           04674                           TC       IBNKCALL
000181: 36,3245           40140                           CADR     SETMINDB
000182: 36,3246           00003                           RELINT
000183: 36,3247           33761                           CAF      V16N85B
000184: 36,3250           04616                           TC       BANKCALL
000185: 36,3251           20462                           CADR     REFLASHR
000186: 36,3252           03256                           TC       TERM40
000187: 36,3253           13256                           TCF      TERM40
000188: 36,3254           03247                           TC       -5
000189:
000190: 36,3255           13236                           TCF      P40PHS1
000191:
000192: 36,3256           00006        TERM40             EXTEND
000193: 36,3257           32106                           DCA      SERVCADR
000194: 36,3260           53253                           DXCH     AVEGEXIT
000195: 36,3261           34755                           CAF      ZERO
000196: 36,3262           55462                           TS       TRKMKCNT                              #  ZERO RENDZVS CNTERS
000197: 36,3263           30005                           CA       Z
000198: 36,3264           55163                           TS       DISPDEX
000199: 36,3265           00004                           INHINT
000200: 36,3266           04674                           TC       IBNKCALL
000201: 36,3267           40123                           CADR     RESTORDB
000202: 36,3270           00003                           RELINT
000203: 36,3271           06001                           TC       GOTOPOOH
000204:
000205: 36,3272  E7,1455                                  EBANK=   WHICH
000206: 36,3272                                           COUNT*   $$/P41
000207: 36,3272           33134        P41LM              CAF      P41ADRES                              #  INITIALIZATION FOR BURNBABY
000208: 36,3273           55455                           TS       WHICH
000209:
000210: 36,3274           04616                           TC       BANKCALL
000211: 36,3275           11254                           CADR     R02BOTH
000212:
000213: 36,3276           06037                           TC       INTPRET                               #  BOTH LM
000214: 36,3277           71214                           BON      DLOAD                                 #  IF NJETSFLAG IS SET, LOAD Z JET F
000215: 36,3300           00700                                    NJETSFLG
000216: 36,3301           75305                                    P41FJET1
000217: 36,3302           34015                                    FRCS4                                 #  IF NJETSFLAG IS CLEAR, LOAD 4 JET F
000218:
000219: 36,3303           37735        P41FJET            STCALL   F
000220: 36,3304           75310                                    P41IN
000221: 36,3305           77745        P41FJET1           DLOAD


000223: 36,3306           34017                                    FRCS2
000224: 36,3307           03735                           STORE    F
000225:
000226: 36,3310           77624        P41IN              CALL
000227: 36,3311           56246                                    S40.1                                 #  BOTH
000228: 36,3312           77624        P41NORM            CALL
000229: 36,3313           56413                                    S40.2,3                               #  CALCULATE PREFERRED IMU ORIENTATION AND
000230: 36,3314           77776                           EXIT                                           #  SET PFRATFLG.
000231:
000232: 36,3315           00004                           INHINT
000233: 36,3316           04674                           TC       IBNKCALL
000234: 36,3317           40153                           CADR     ZATTEROR                              #  ZERO ATTITUDE ERRORS
000235: 36,3320           04674                           TC       IBNKCALL
000236: 36,3321           40140                           CADR     SETMINDB                              #  SET 0.3 DEGREE DEADBAND
000237: 36,3322           03213                           TC       P40SXT4
000238:
000239: 36,3323           06037                           TC       INTPRET
000240: 36,3324           45175                           VLOAD    CALL                                  #  TRANSFORM VELOCITY-TO-BE-GAINED AT TIG
000241: 36,3325           03701                                    VGTIG                                 #  FROM REFERENCE COORDINATES TO LM BODY-
000242: 36,3326           57267                                    S41.1                                 #  AXIS COORDINATES FOR V16N85 DISPLAY.
000243: 36,3327           03502                           STORE    VGBODY                                #  (SCALED AT 2 (+7) METERS/CENTISECOND)
000244: 36,3330           77776                           EXIT
000245:
000246: 36,3331           33761                           CAF      V16N85B
000247: 36,3332           04616                           TC       BANKCALL
000248: 36,3333           20446                           CADR     GODSPRET
000249:
000250: 36,3334           35017                           CAF      PRIO5
000251: 36,3335           55163                           TS       DISPDEX                               #  FOR SAFETY ONLY
000252: 36,3336           05105                           TC       FINDVAC
000253: 36,3337  E7,1700                                  EBANK=   VGPREV
000254: 36,3337           03361 74067                     2CADR    DYNMDISP
000255:
000256: 36,3341           05327                           TC       2PHSCHNG
000257: 36,3342           00076                           OCT      00076                                 #  GROUP 6 RESTARTS AT REDO6.7
000258: 36,3343           04024                           OCT      04024                                 #  GROUP 4 RESTARTS HERE
000259:
000260:                                                                                                  #        ***********************
000261:
000262: 36,3344           12135                           TCF      B*RNB*B*
000263:
000264:                                                                                                  #        ***********************
000265:
000266: 36,3345           34777        BLNKWAIT           CAF      1SEC
000267: 36,3346           04616                           TC       BANKCALL
000268: 36,3347           01735                           CADR     DELAYJOB
000269:
000270: 36,3350           31163        REDO6.7            CA       DISPDEX                               #  ON A RESTART, DO NOT PUT UP DISPLAY IF
000271: 36,3351           64752                           AD       TWO                                   #  BLANKING (BETWEEN TIG-35 AND TIG-30)
000272:
000273:                                                                                                  #        ***********************


000275:
000276: 36,3352           00006                           EXTEND
000277: 36,3353           13345                           BZF      BLNKWAIT
000278:
000279: 36,3354           33761                           CAF      V16N85B
000280: 36,3355           04616                           TC       BANKCALL
000281: 36,3356           20446                           CADR     GODSPRET
000282:
000283: 36,3357           35017                           CAF      PRIO5
000284: 36,3360           05146                           TC       PRIOCHNG
000285:
000286: 36,3361           31163        DYNMDISP           CA       DISPDEX                               #  A NON-POSITIVE DISPDEX INDICATES PAST
000287: 36,3362           00006                           EXTEND                                         #  TIG-35, SO SERVICER WILL BE DOING THE
000288: 36,3363           65155                           BZMF     ENDOFJOB                              #  UPDATING OF NOUN 85.  STOP DYNMDISP.
000289: 36,3364           06037                           TC       INTPRET
000290: 36,3365           45175                           VLOAD    CALL
000291: 36,3366           03701                                    VGPREV
000292: 36,3367           57267                                    S41.1
000293: 36,3370           03502                           STORE    VGBODY
000294: 36,3371           77776                           EXIT
000295: 36,3372           34777                           CAF      1SEC
000296: 36,3373           04616                           TC       BANKCALL
000297: 36,3374           01735                           CADR     DELAYJOB
000298: 36,3375           13361                           TCF      DYNMDISP
000299:
000300: 36,3376           06037        CALCN85            TC       INTPRET
000301: 36,3377           77624                           CALL
000302: 36,3400           75611                                    UPDATEVG
000303: 36,3401           45175                           VLOAD    CALL
000304: 36,3402           03701                                    VGPREV
000305: 36,3403           57267                                    S41.1
000306: 36,3404           03502                           STORE    VGBODY
000307: 36,3405           77776                           EXIT
000308: 36,3406           04635                           TC       POSTJUMP
000309: 36,3407           65770                           CADR     SERVEXIT
000310:
000311: 36,3410                                           COUNT*   $$/P42
000312: 36,3410  E7,1455                                  EBANK=   WHICH
000313:
000314: 36,3410           05353        P42LM              TC       PHASCHNG
000315: 36,3411           04024                           OCT      04024
000316:
000317: 36,3412           33135                           CAF      P42ADRES                              #  INITIALIZATION FOR BURNBABY.
000318: 36,3413           55455                           TS       WHICH
000319:
000320: 36,3414           40106                           CS       FLGWRD10
000321: 36,3415           74737                           MASK     APSFLBIT
000322: 36,3416           10000                           CCS      A
000323: 36,3417           03121                           TC       P40ALM
000324: 36,3420           04616        P42STAGE           TC       BANKCALL


000326: 36,3421           11254                           CADR     R02BOTH
000327: 36,3422           36000                           CAF      THRESH2                               #  INITIALIZE DVMON
000328: 36,3423           55251                           TS       DVTHRUSH
000329: 36,3424           34751                           CAF      FOUR
000330: 36,3425           55515                           TS       DVCNTR
000331:
000332: 36,3426           06037                           TC       INTPRET
000333: 36,3427           77214                           SET      VLOAD                                 #  LOAD FAPS, MDOTAPS, AND ATDECAY INTO
000334: 36,3430           01072                                    AVFLAG                                #  F, MDOT, AND TDECAY BY VECTOR LOAD.
000335: 36,3431           34007                                    FAPS
000336: 36,3432           03735                           STORE    F
000337: 36,3433           52135                           SLOAD    GOTO
000338: 36,3434           26001                                    APSVEX
000339: 36,3435           75200                                    P40IN
000340:
000341: 36,3436  E7,1455                                  EBANK=   WHICH
000342:
000343: 36,3436                                           COUNT*   $$/P47
000344: 36,3436           04616        P47LM              TC       BANKCALL
000345: 36,3437           11254                           CADR     R02BOTH
000346: 36,3440           06037                           TC       INTPRET
000347: 36,3441           77624                           CALRB
000348: 36,3442           27553                                    MIDTOAV2
000349:
000350: 36,3443           30155                           CA       MPAC       +1
000351: 36,3444           05173                           TC       TWIDDLE
000352: 36,3445           03447                           ADRES    STARTP47
000353:
000354: 36,3446           15155                           TCF      ENDOFJOB
000355:
000356: 36,3447           05353        STARTP47           TC       PHASCHNG
000357: 36,3450           05014                           OCT      05014
000358: 36,3451           77777                           OCT      77777
000359:
000360: 36,3452           00006                           EXTEND
000361: 36,3453           33764                           DCA      ACADN83
000362: 36,3454           53253                           DXCH     AVEGEXIT
000363: 36,3455           34736                           CAF      PRIO20
000364: 36,3456           05105                           TC       FINDVAC
000365: 36,3457  E7,1622                                  EBANK=   DELVIMU
000366: 36,3457           03513 74067                     2CADR    P47BODY
000367:
000368: 36,3461           12342                           TCF      REDO4.2                               #  CHECKS PHASE 5 AND GOES TO PREREAD
000369:                                                                                                  #  SEE TIG-30 IN BURNBABY.
000370:
000371: 36,3462           06037        CALCN83            TC       INTPRET
000372: 36,3463           53375                           VLOAD    VAD
000373: 36,3464           03502                                    DELVCTL
000374: 36,3465           03527                                    DELVREF
000375: 36,3466           03656                           STORE    DELVSIN                               #  TEMP STORAGE FOR RESTARTS


000377: 36,3467           77624                           CALL
000378: 36,3470           57267                                    S41.1
000379: 36,3471           03623                           STORE    DELVIMU
000380: 36,3472           77776                           EXIT
000381: 36,3473           05353                           TC       PHASCHNG
000382: 36,3474           10035                           OCT      10035                                 #  REREADAC AND HERE
000383:
000384: 36,3475           06037                           TC       INTPRET
000385: 36,3476           77775                           VLOAD
000386: 36,3477           03656                                    DELVSIN
000387: 36,3500           03502                           STORE    DELVCTL
000388: 36,3501           77776                           EXIT
000389:
000390: 36,3502           04635                           TC       POSTJUMP
000391: 36,3503           65770                           CADR     SERVEXIT
000392:
000393: 36,3504           33762        P47BOD             CAF      V1683
000394: 36,3505           04616                           TC       BANKCALL
000395: 36,3506           20635                           CADR     GOFLASHR
000396: 36,3507           06001                           TC       GOTOPOOH
000397: 36,3510           06001                           TC       GOTOPOOH
000398:
000399: 36,3511           13513                           TCF      P47BODY
000400:
000401: 36,3512           13236                           TCF      P40PHS1
000402:
000403: 36,3513           06037        P47BODY            TC       INTPRET
000404: 36,3514           77775                           VLOAD
000405: 36,3515           06522                                    HI6ZEROS
000406: 36,3516           03623                           STORE    DELVIMU
000407: 36,3517           03502                           STORE    DELVCTL
000408: 36,3520           77776                           EXIT
000409: 36,3521           03504                           TC       P47BOD
000410:
000411: 36,3522                                           COUNT*   $$/P40
000412: 36,3522           31517        IMPLBURN           CA       TGO        +1
000413: 36,3523           03735                           TC       GETDT
000414: 36,3524           05173                           TC       TWIDDLE
000415: 36,3525           03542                           ADRES    ENGOFTSK
000416: 36,3526           05516                           TC       DOWNFLAG                              #  TURN OFF IGNFLAG
000417: 36,3527           00153                           ADRES    IGNFLAG
000418: 36,3530           05516                           TC       DOWNFLAG                              #  TURN OFF ASTNFLG
000419: 36,3531           00154                           ADRES    ASTNFLAG
000420: 36,3532           05516                           TC       DOWNFLAG                              #  TURN OFF IMPULSW
000421: 36,3533           00044                           ADRES    IMPULSW
000422: 36,3534           05353                           TC       PHASCHNG                              #  RESTART PROTECT ENGOFTSK (ENGINOFF)
000423: 36,3535           40114                           OCT      40114
000424:
000425: 36,3536           05221                           TC       FIXDELAY                              #  WAIT HALF A SECOND
000426: 36,3537           00062                           DEC      50         B-14


000428: 36,3540           02653                           TC       NOULLAGE                              #  TURN OFF ULLAGE
000429:
000430: 36,3541           05261                           TC       TASKOVER
000431:
000432: 36,3542           04674        ENGOFTSK           TC       IBNKCALL                              #  THIS CODING ALLOWS ENGINOFF ET AL TO BE
000433: 36,3543           75545                           CADR     ENGINOFF                              #  USED BOTH BY WAITLIST AND BY TC IBNKCALL
000434: 36,3544           05261                           TC       TASKOVER
000435:
000436: 36,3545           34644        ENGINOFF           CAF      PRIO12                                #  MUST BE LOWER PRIO THAN CLOCKJOB
000437: 36,3546           05105                           TC       FINDVAC
000438: 36,3547  E7,1462                                  EBANK=   TRKMKCNT
000439: 36,3547           03223 74067                     2CADR    POSTBURN
000440:
000441: 36,3551           34753        ENGINOF2           CAF      BIT1
000442: 36,3552           05203                           TC       WAITLIST
000443: 36,3553  E6,1422                                  EBANK=   OMEGAQ
000444: 36,3553           03606 74066                     2CADR    COASTSET
000445:
000446: 36,3555           40103        ENGINOF1           CS       FLAGWRD7                              #  SET THE IDLE BIT.
000447: 36,3556           74745                           MASK     IDLEFBIT
000448: 36,3557           26103                           ADS      FLAGWRD7
000449:
000450: 36,3560           02653                           TC       NOULLAGE
000451:
000452: 36,3561           00006        ENGINOF4           EXTEND
000453: 36,3562           30025                           DCA      TIME2
000454: 36,3563           53345                           DXCH     TEVENT
000455:
000456: 36,3564           44745        ENGINOF3           CS       ENGONBIT                              #  INSURE ENGONFLG IS CLEAR.
000457: 36,3565           70101                           MASK     FLAGWRD5
000458: 36,3566           54101                           TS       FLAGWRD5
000459: 36,3567           44355                           CS       PRIO30                                #  ENGINOF3 IS USED AS A PRE-ENGINE ARM
000460: 36,3570           00006                           EXTEND                                         #  SUBROUTINE.
000461: 36,3571           02011                           RAND     DSALMOUT
000462: 36,3572           64736                           AD       PRIO20                                #  TURN OFF THE ENGINE - DPS OR APS
000463: 36,3573           00006                           EXTEND
000464: 36,3574           01011                           WRITE    DSALMOUT
000465:
000466: 36,3575           40111                           CS       DAPBOOLS                              #  TURN OFF TRIM GIMBAL
000467: 36,3576           74736                           MASK     USEQRJTS
000468: 36,3577           26111                           ADS      DAPBOOLS
000469:
000470: 36,3600           44737                           CS       HIRTHROT                              #  ZERO AUTO-THROTTLE WHENEVER THE ENGINE
000471: 36,3601           54055                           TS       THRUST                                #  IS TURNED OFF.
000472: 36,3602           34750                           CAF      BIT4                                  #  THE HARDWARE DOES SO ONLY WHEN THE
000473: 36,3603           00006                           EXTEND                                         #  ENGINE IS DISARMED.
000474: 36,3604           05014                           WOR      CHAN14
000475:
000476: 36,3605           04707                           TC       ISWRETRN


000478: 36,3606           04674        COASTSET           TC       IBNKCALL                              #  DO DAP COASTING INITIALIZATION
000479: 36,3607           40204                           CADR     ALLCOAST
000480: 36,3610           05261                           TC       TASKOVER
000481:
000482: 36,3611  E6,1422                                  EBANK=   OMEGAQ
000483: 36,3611           45020        UPDATEVG           STQ      CALL
000484: 36,3612           03665                                    QTEMP1
000485: 36,3613           56447                                    S40.8                                 #  X-PRODUCT STEERING
000486: 36,3614           43014                           BON      BON
000487: 36,3615           01307                                    XDELVFLG
000488: 36,3616           03665                                    QTEMP1
000489: 36,3617           03705                                    NORMSW
000490: 36,3620           75633                                    180SETUP
000491: 36,3621           45345                           DLOAD    DSU
000492: 36,3622           01235                                    PIPTIME
000493: 36,3623           03763                                    TIGSAVE
000494: 36,3624           50025                           DSU      BMN
000495: 36,3625           03432                                    TNEWA
000496: 36,3626           75656                                    GETRANS
000497: 36,3627           43345                           DLOAD    DAD
000498: 36,3630           03763                                    TIGSAVE
000499: 36,3631           03432                                    TNEWA
000500: 36,3632           03765                           STORE    TIGSAVEP
000501: 36,3633           77776        180SETUP           EXIT
000502: 36,3634           10755                           CCS      PHASE2
000503: 36,3635           13663                           TCF      NO.9
000504: 36,3636           34737                           CAF      PRIO10
000505: 36,3637           00004                           INHINT
000506: 36,3640           05105                           TC       FINDVAC
000507: 36,3641  E7,1706                                  EBANK=   VG
000508: 36,3641           02707 56067                     2CADR    S40.9                                 #  LAMBERT VTOGAIN
000509:
000510: 36,3643           05327                           TC       2PHSCHNG
000511: 36,3644           00172                           OCT      00172                                 #  2.17SPOT FOR S40.9
000512: 36,3645           10035                           OCT      10035                                 #  HERE AND REREADAC AFTER RESTART
000513:
000514: 36,3646           06037        ENDSTEER           TC       INTPRET
000515: 36,3647           77745                           DLOAD
000516: 36,3650           03765                                    TIGSAVEP
000517: 36,3651           27763                           STOVL    TIGSAVE
000518: 36,3652           01221                                    RN
000519: 36,3653           26323                           STOVL    RINIT
000520: 36,3654           01227                                    VN
000521: 36,3655           02331                           STORE    VINIT
000522: 36,3656           45345        GETRANS            DLOAD    DSU
000523: 36,3657           03631                                    TPASS4
000524: 36,3660           01235                                    PIPTIME
000525: 36,3661           37452                           STCALL   DELLT4
000526: 36,3662           03665                                    QTEMP1
000527:


000529: 36,3663           06037        NO.9               TC       INTPRET
000530: 36,3664           77650                           GOTO
000531: 36,3665           03665                                    QTEMP1
000532: 36,3666           06037        STEERING           TC       INTPRET
000533:
000534: 36,3667           77624                           CALL
000535: 36,3670           75611                                    UPDATEVG
000536: 36,3671           77776                           EXIT
000537:
000538: 36,3672  E7,1515                                  EBANK=   DVCNTR
000539: 36,3672           00004        NSTEER             INHINT
000540: 36,3673           35016                           CA       EBANK7
000541: 36,3674           54003                           TS       EBANK
000542: 36,3675           40076                           CS       FLAGWRD2                              #  CHECK IMPULSE SWITCH.  IT IS SET EITHER
000543: 36,3676           74743                           MASK     IMPULBIT                              #  BY S40.13 IF TBURN<6 SECS OR BY S40.8 IF
000544: 36,3677           10000                           CCS      A                                     #  STEERING IS ALMOST DONE.
000545:
000546: 36,3700           13705                           TCF      +5                                    #  IMPULSW = 0   EXIT
000547: 36,3701           40103                           CS       FLAGWRD7                              #  IMPULSW = 1   WHY?  CHECK IDLEFLAG
000548: 36,3702           74745                           MASK     IDLEFBIT                              #        (IDLEFLAG = 0 --> DVMON ON)
000549: 36,3703           10000                           CCS      A
000550: 36,3704           13707                           TCF      +3                                    #  DVMON ON --> THRUSTING --> IMPULSW VIA S40.8
000551: 36,3705           04635                           TC       POSTJUMP                              #  DVMON OFF --> IMPULSW ON VIA S40.13 --> EXIT
000552: 36,3706           65770                           CADR     SERVEXIT
000553:
000554: 36,3707           04674                           TC       IBNKCALL
000555: 36,3710           40165                           CADR     STOPRATE
000556:
000557: 36,3711           05516                           TC       DOWNFLAG                              #  TURN OFF IMPULSW
000558: 36,3712           00044                           ADRES    IMPULSW
000559:
000560: 36,3713           05504                           TC       UPFLAG
000561: 36,3714           00161                           ADRES    IDLEFLAG                              #  TURN OFF DVMON
000562:
000563: 36,3715           00004                           INHINT
000564: 36,3716           00006                           EXTEND
000565: 36,3717           31442                           DCA      TIG
000566: 36,3720           52155                           DXCH     MPAC
000567: 36,3721           00006                           EXTEND
000568: 36,3722           40025                           DCS      TIME2
000569: 36,3723           20155                           DAS      MPAC
000570: 36,3724           07257                           TC       TPAGREE
000571: 36,3725           30155                           CAE      MPAC       +1
000572: 36,3726           03735                           TC       GETDT
000573: 36,3727           05173                           TC       TWIDDLE
000574: 36,3730           03542                           ADRES    ENGOFTSK
000575: 36,3731           05327                           TC       2PHSCHNG
000576: 36,3732           40114                           OCT      40114                                 #  ENGOFTSK (ENGINOFF)
000577: 36,3733           00035                           OCT      00035                                 #  SERVICER -- REREADAC


000579: 36,3734           15155                           TCF      ENDOFJOB
000580:
000581: 36,3735           10000        GETDT              CCS      A
000582: 36,3736           13741                           TCF      +3
000583: 36,3737           13741                           TCF      +2
000584: 36,3740           34755                           CAF      ZERO
000585: 36,3741           64753                           AD       ONE
000586: 36,3742           56001                           XCH      L
000587: 36,3743           34755                           CAF      ZERO
000588: 36,3744           53517                           DXCH     TGO
000589: 36,3745           31517                           CA       TGO        +1
000590: 36,3746           00002                           TC       Q
000591:
000592:                                                                                                  #  ************************************************************************
000593:
000594: 36,3747           00000        SEC15DP            OCT      00000                                 #  DON'T SEPARATE
000595: 36,3750           02734        SEC15              DEC      1500       B-14                       #  DON'T SEPARATE
000596: 36,3751           00000 05670  SEC30DP            2DEC     3000       B-28
000597:
000598: 36,3753           00000        SEC45DP            OCT      00000                                 #  DON'T MOVE FROM JUST BEFORE SEC45
000599: 36,3754           10624        SEC45              DEC      4500       B-14
000600: 36,3755           00000        5SECDP             OCT      00000                                 #  DON'T MOVE FROM JUST BEFORE 5SEC
000601: 36,3756           00764        5SEC               DEC      500        B-14
000602: 36,3757           05050        26SECS             DEC      2600       B-14
000603: 36,3760           04050        V16N40             VN       1640
000604: 36,3761           04125        V16N85B            VN       1685
000605: 36,3762           04123        V1683              VN       1683
000606: 36,3763     4777               SEC01              =        1SEC
000607: 36,3763  36,2055               ACADN85            =        P41TABLE   +2
000608:
000609: 36,3763  E7,1622                                  EBANK=   DELVIMU
000610: 36,3763           03462 74067  ACADN83            2CADR    CALCN83
000611:
000612:                                                                                                  #  *************************************************


000614:                                                                                                  #  PROGRAM DESCRIPTION S40.1             DATE 15NOV66
000615:                                                                                                  #  MOD N02                               LOG SECTION P40-P47
000616:                                                                                                  #  MOD BY ZELDIN AND ADAPTED BY TALAYCO
000617:
000618:                                                                                                  #  FUNCTIONAL DESCRIPTION
000619:                                                                                                  #        COMPUTE INITIAL THRUST DIRECTION(UT) AND INITIAL VALUE OF VG
000620:                                                                                                  #        VECTOR(VGTIG).
000621:
000622:                                                                                                  #  CALLING SEQUENCE
000623:                                                                                                  #        L       CALL
000624:                                                                                                  #        L+1             S40.1
000625:
000626:                                                                                                  #  NORMAL EXIT MODE
000627:                                                                                                  #        AT L+2 OF CALLING SEQUENCE (GOTO L+2) NORMAL RETURN OR
000628:                                                                                                  #        ERROR RETURN IF NOSOFLAG =1
000629:
000630:                                                                                                  #  SUBROUTINES CALLED
000631:                                                                                                  #        LEMPREC
000632:                                                                                                  #        INITVEL
000633:                                                                                                  #        CALCGRAV
000634:                                                                                                  #        MIDGIM
000635:
000636:                                                                                                  #  ALARM OR ABORT EXIT MODES
000637:                                                                                                  #        L+2 OF CALLING SEQUENCE, UNSOLVABLE CONIC IF NOSOFLAG=1
000638:
000639:                                                                                                  #  ERASABLE INITIALIZATION REQUIRED
000640:                                                                                                  #        WEIGHT/G        ANTICIPATED VEHICLE MASS        DP B16 KGM
000641:                                                                                                  #        XDELVFLG        1=DELTA-V MANEUVER, 0=AIMPT STEER
000642:                                                                                                  #        F               THRUST FOR ENGINE USED
000643:                                                                                                  #    IF DELTA-V MANEUVER
000644:                                                                                                  #        DELVSIN         SPECIFIED DELTA-V REQUIRED IN
000645:                                                                                                  #                        INERTIAL COORDS. OF ACTIVE VEHICLE
000646:                                                                                                  #                        AT TIME OF IGNITION             VECTOR B7 M/CS
000647:                                                                                                  #        DELVSAB         MAG. OF DELVSIN                 DP B7 M/CS
000648:                                                                                                  #        RTIG            POSITION AT TIME OF IGNITION    VECTOR B29 M
000649:                                                                                                  #        VTIG            VELOCITY AT TIME OF IGNITION    VECTOR B7 M/CS
000650:                                                                                                  #    IF AIMPT STEER
000651:                                                                                                  #        TIG             TIME OF IGNITION                DP B28 CS
000652:                                                                                                  #        RTARG           POSITION TARGET TIME            VECTOR B29 M
000653:                                                                                                  #        CSTEER          C FOR STEER LAW                 DP B2
000654:                                                                                                  #        DLTARG          TARGET TIME-IGNITION TIME       DP B28 CS
000655:
000656:                                                                                                  #  OUTPUT
000657:                                                                                                  #        UT              DESIRED THRUST DIRECTION        VECT. B2 M/(CS.CS)
000658:                                                                                                  #        VGTIG           INITIAL VALUE OF VELOCITY
000659:                                                                                                  #                        TO BE GAINED (INERT. COORD.)    VECTOR B7 M/CS
000660:                                                                                                  #        DELVLVC         VGTIG IN LOC. VERT. COORDS.     B7 M/CS
000661:                                                                                                  #        BDT             V REQUIRED AT TIG -V REQUIRED AT (TIG-2SEC)
000662:                                                                                                  #           -GDT         FOR S40.13                      VECT B7 M/CS
000663:                                                                                                  #        RTIG            CALC IN S40.1B (AIMPT) FOR S40.2,3      VECTOR B29M
000664:                                                                                                  #                        POSITION AT TIME OF IGNITION
000665:
000666:                                                                                                  #  DEBRIS        QTEMP1
000667:                                                                                                  #                MPAC, QPRET
000668:                                                                                                  #                PUSHLIST
000669:
000670: 14,2347                                           BANK     14
000671: 27,2000                                           SETLOC   P40S1
000672: 27,2000                                           BANK


000674: 27,2246                                           COUNT*   $$/S40.1
000675: 27,2246           71220        S40.1              STQ      DLOAD
000676: 27,2247           03632                                    QTEMP
000677: 27,2250           03442                                    TIG
000678: 27,2251           03763                           STORE    TIGSAVE
000679: 27,2252           77614        DELVTEST           BOFF
000680: 27,2253           01347                                    XDELVFLG
000681: 27,2254           56336                                    S40.1B
000682: 27,2255           77201        CALCTHET           SETPD    VLOAD
000683: 27,2256           00001                                    0
000684: 27,2257           03650                                    VTIG
000685: 27,2260           02331                           STORE    VINIT
000686: 27,2261           53435                           VXV      UNIT
000687: 27,2262           03642                                    RTIG
000688: 27,2263           27673                           STOVL    UT                                    #  UP IN UT
000689: 27,2264           03642                                    RTIG
000690: 27,2265           02323                           STORE    RINIT
000691: 27,2266           65236                           VSQ      PDDL
000692: 27,2267           00045                                    36D
000693: 27,2270           56205                           DMP      DDV
000694: 27,2271           16412                                    THETACON
000695: 27,2272           41205                           DMP      DMP
000696: 27,2273           03664                                    DELVSAB
000697: 27,2274           01245                                    WEIGHT/G
000698: 27,2275           77671                           DDV
000699: 27,2276           03735                                    F
000700: 27,2277           24017                           STOVL    14D
000701: 27,2300           03656                                    DELVSIN
000702:
000703: 27,2301           74241                           DOT      VXSC
000704: 27,2302           03673                                    UT
000705: 27,2303           03673                                    UT
000706: 27,2304           41552                           VSL2     PUSH                                  #  (DELTAV.UP)UP SCALED AT 2(+7) P.D.L. 0
000707: 27,2305           65245                           BVSU     PDDL                                  #  DELTA VP SCALED AT 2(+7) P.D.L. 6
000708: 27,2306           03656                                    DELVSIN
000709: 27,2307           00017                                    14D
000710: 27,2310           63356                           SIN      PDVL
000711: 27,2311           00007                                    6D
000712: 27,2312           53435                           VXV      UNIT
000713: 27,2313           03673                                    UT
000714: 27,2314           45561                           VXSC     STADR
000715: 27,2315           50076                           STOVL    VGTIG                                 #  UNIT(VP X UP)SIN(THETAT/2) IN VGTIG.
000716: 27,2316           65256                           UNIT     PDDL                                  #  UNIT(DELTA VP) IN P.D.L. 6
000717: 27,2317           00017                                    14D
000718: 27,2320           74346                           COS      VXSC
000719: 27,2321           74255                           VAD      VXSC
000720: 27,2322           03701                                    VGTIG
000721: 27,2323           00045                                    36D
000722: 27,2324           53352                           VSL2     VAD
000723: 27,2325           77626                           STADR


000725: 27,2326           74076                           STORE    VGTIG                                 #  VG IGNITION SCALED AT 2(+7) M/CS
000726:
000727: 27,2327           77656                           UNIT
000728: 27,2330           27673                           STOVL    UT                                    #  THRUST DIRECTION SCALED AT 2(+1)
000729: 27,2331           03701                                    VGTIG
000730: 27,2332           45006                           PUSH     CALL
000731: 27,2333           15733                                    GET.LVC                               #  VGTIG IN LV COOR AT 2(+7) M/CS IN DELVLVC
000732: 27,2334           77650                           GOTO
000733: 27,2335           03632                                    QTEMP
000734: 27,2336           77745        S40.1B             DLOAD
000735: 27,2337           03442                                    TIG
000736: 27,2340           00041                           STORE    TDEC1
000737: 27,2341           77621                           BDSU
000738: 27,2342           03631                                    TPASS4
000739: 27,2343           37452                           STCALL   DELLT4                                #  INTERCEPT TIME - TIG.
000740: 27,2344           27057                                    LEMPREC
000741: 27,2345           40375                           VLOAD    SETPD                                 #  LOAD STATE VECTOR AT TIG FOR INITVEL.
000742: 27,2346           00001                                    RATT
000743: 27,2347           00001                                    0
000744: 27,2350           03642                           STORE    RTIG
000745: 27,2351           02323                           STORE    RINIT
000746: 27,2352           77656                           UNIT
000747: 27,2353           27537                           STOVL    UNIT/R/
000748: 27,2354           00007                                    VATT
000749: 27,2355           03650                           STORE    VTIG
000750: 27,2356           02331                           STORE    VINIT
000751: 27,2357           65345                           DLOAD    PDDL                                  #  NUMIT = 0
000752: 27,2360           06522                                    ZEROVECS
000753: 27,2361           16406                                    EPS1
000754: 27,2362           43214                           BOFF     DAD
000755: 27,2363           03745                                    NORMSW
000756: 27,2364           56366                                    SMALLEPS
000757: 27,2365           16410                                    EPS2                                  #  EPSILON4 = 10 DEGREES OR 45 DEGREES.
000758: 27,2366           66006        SMALLEPS           PUSH     SXA,1
000759: 27,2367           02776                                    RTX1
000760: 27,2370           45134                           SXA,2    CALL
000761: 27,2371           02777                                    RTX2
000762: 27,2372           22000                                    INITVEL
000763: 27,2373           41575                           VLOAD    PUSH
000764: 27,2374           02366                                    DELVEET3                              #  VGTIG = VR - VN.
000765: 27,2375           03701                           STORE    VGTIG
000766: 27,2376           77656                           UNIT                                           #  UT = UNIT (VGTIG)
000767: 27,2377           17673                           STODL    UT
000768: 27,2400           00045                                    36D
000769: 27,2401           37664                           STCALL   VGDISP                                #  CONVERT VGTIG (IN PUSHLIST) TO LOCAL
000770: 27,2402           15733                                    GET.LVC                               #  VERTICAL COORDINATES.
000771: 27,2403           77650                           GOTO
000772: 27,2404           03632                                    QTEMP
000773:
000774: 27,2405           00707 03434  EPS1               2DEC*    2.777777778 E-2*                       #  10 DEGREES AT 1 REVOLUTION.
000775:


000777: 27,2407           03070 34344  EPS2               2DEC*    9.722222222 E-2*                       #  35 DEGREES AT 1 REVOLUTION.
000778:
000779: 27,2411           00024 13714  THETACON           2DEC     .31830989  B-8
000780:


000782:                                                                                                  #  SUBROUTINE NAME:  S40.2,3             MOD. NO. 3 DATE: APRIL 4, 1967
000783:                                                                                                  #  MODIFICATION BY:  JONATHAN D. ADDELSTON (ADAMS ASSOCIATES)
000784:                                                                                                  #  MOD. NO. 4:  JULY 18, 1967: PETER ADLER (MIT/IL)
000785:                                                                                                  #  MOD. NO. 5:  OCTOBER 18, 1967:  PETER ADLER (MIT/IL)
000786:                                                                                                  #  ORIGINALLY BY:  SAYDEAN ZELDIN (MIT INSTRUMENTATION LAB) AND RICHARD TALAYCO (SYSTEM DEVELOPMENT CORP)
000787:
000788:                                                                                                  #  S40.2,3 COMPUTES "POINTVSM" WHICH IS THE HALF-UNIT DESIRED THRUST VECTOR IN STABLE-MEMBER COORDINATES FROM "UT"
000789:                                                                                                  #  WHICH IS THE SAME VECTOR IN REFERENCE COORDINATES.  IT DETERMINES THE CORRECT VALUES FOR "SCAXIS" USING THE +X
000790:                                                                                                  #  AXIS FOR DPS, APS, AND RCS BURNS.  THE "WINGS-LEVEL HEADS-UP" LM ORIENTATION IS THEN COMPUTED IN REFERENCE
000791:                                                                                                  #  COORDINATES.  THESE VECTORS ALSO DEFINE THE "PREFERRED IMU ORIENTATION".  UPON COMPLETION OF THIS CALCULATION,
000792:                                                                                                  #  THE "PREFERRED ATTITUDE COMPUTED" FLAG IS SET (PFRATFLG).
000793:
000794:                                                                                                  #  CALLING SEQUENCE:
000795:                                                                                                  #        L       CALL                    INTERPRETIVE CALL.
000796:                                                                                                  #        L +1            S40.2,3
000797:                                                                                                  #        L +2    (RETURN)                GIMBAL ANGLE VECTOR IN MPAC.
000798:
000799:                                                                                                  #  SUBROUTINES CALLED:  NONE.
000800:
000801:                                                                                                  #  NORMAL RETURN:  L +2 (SEE CALLING SEQUENCE ABOVE).
000802:
000803:                                                                                                  #  ALARM/ABORT MODES:  NONE.
000804:
000805:                                                                                                  #  INPUT:
000806:                                                                                                  #        1.      REFSMMAT        MATRIX FROM REFERENCE TO STABLE-MEMBER COORDINATES SCALED AT 2.
000807:                                                                                                  #        2.      UT              HALF-UNIT DESIRED THRUST DIRECTION.
000808:                                                                                                  #        3.      RTIG            POSITION AT TIG IN REFERENCE COORDINATES.
000809:
000810:                                                                                                  #  OUTPUT:
000811:                                                                                                  #        1.      :XSCREF:        WINGS-LEVEL HEADS-UP LM ORIENTATION
000812:                                                                                                  #                :YSCREF:        IN REFERENCE COORDINATES
000813:                                                                                                  #                :ZSCREF:        (PREFERRED IMU ORIENTATION).
000814:                                                                                                  #        2.      POINTVSM        DESIRED THRUST DIRECTION IN STABLE-MEMBER COORDINATES.
000815:                                                                                                  #        3.      SCAXIS          HALF-UNIT OF AXIS TO ALIGN IN STABLE-MEMBER COORDINATES.
000816:                                                                                                  #        4.      PFRATFLG        INTERPRETIVE FLAG.  ON: PREFERRED ORIENTATION COMPUTED; OFF: NOT COMPUTED.
000817:
000818:                                                                                                  #  DEBRIS:  NONE.


000820:
000821: 27,2413                                           COUNT*   $$/S40.2
000822: 27,2413           77775        S40.2,3            VLOAD                                          #  UT:  DESIRED THRUST DIRECTION (HALF-UNIT)
000823: 27,2414           03673                                    UT                                    #  (PUT INTO TOP OF PUSH-DOWN-LIST.)
000824: 27,2415           76521                           MXV      VSL1                                  #  TRANSFORM THRUST DIRECTION TO STABLE-
000825: 27,2416           01734                                    REFSMMAT                              #  MEMBER FROM REFERENCE COORDS (RESCALE).
000826: 27,2417           27773                           STOVL    POINTVSM                              #  SAVE FOR "VECPOINT" ROUTINE (LEMMANU).
000827: 27,2420           06520                                    UNITX                                 #  SCAXIS SET TO +X, FOR P40 AND P42 AND
000828: 27,2421           27765                           STOVL    SCAXIS                                #  FOR P41 IF RCS NOT -X,+Y,-Y,+Z,-Z.
000829:
000830: 27,2422           03673                                    UT                                    #  ASSUME +X BURN ALWAYS, EVEN FOR RCS.
000831: 27,2423           03607        PLUSX              STORE    XSCREF                                #  XSCREF = UT (DESIRED THRUST DIRECTION.)
000832: 27,2424           53435                           VXV      UNIT                                  #  RTIG = POSITION AT TIME-OF-IGNITION.
000833: 27,2425           03642                                    RTIG                                  #  YSCREF = UNIT(UT X RTIG)
000834: 27,2426           46125                           PDDL     BHIZ
000835: 27,2427           00045                                    36D                                   #  TEST MAGNITUDE OF UT X RTIG
000836: 27,2430           56441                                    FIXY                                  #  IF SMALL, USE UT X VTIG AS YSC
000837: 27,2431           45575        STORY              VLOAD    STADR
000838: 27,2432           74162                           STORE    YSCREF
000839: 27,2433           76435                           VXV      VSL1                                  #  COMPUTE (YSCREF X XSCREF), BUT FOR A
000840: 27,2434           03607                                    XSCREF                                #  RIGHT HANDED SYSTEM, NEED (X CROSS Y).
000841: 27,2435           77676                           VCOMP                                          #  ZSCREF = - (YSCREF X XSCREF)
000842: 27,2436           03623                           STORE    ZSCREF                                #         = + (XSCREF X YSCREF)
000843:
000844: 27,2437           43414                           SET      RVQ
000845: 27,2440           01073                                    PFRATFLG
000846: 27,2441           47375        FIXY               VLOAD    VXV                                   #  IN THIS CASE,
000847: 27,2442           03607                                    XSCREF                                #  YSCREF = UNIT(XSCREF X VTIG)
000848: 27,2443           03650                                    VTIG
000849: 27,2444           41456                           UNIT     PUSH
000850: 27,2445           77650                           GOTO
000851: 27,2446           56431                                    STORY


000853:                                                                                                  #  SUBROUTINE S40.8
000854:                                                                                                  #  MODIFIED APRIL 3, 1968 BY PETER ADLER   MIT/IL
000855:
000856:                                                                                                  #  DESCRIPTION
000857:                                                                                                  #        S40.8 UPDATES THE VELOCITY-TO-BE-GAINED VECTOR, VG, (AND FOR LAMBERT TARGETTED BURNS ALSO EXTRAPOLATES VG
000858:                                                                                                  #        USING THE BDT VECTOR) COMPUTES THE TIME FOR ISSUING THE ENGINE OFF COMMAND, TGO, AND CALLS THE ROUTINE
000859:                                                                                                  #        "FINDCDUW", WHICH GENERATES STEERING COMMANDS FOR THE DAP.
000860:
000861:                                                                                                  #  CALLING SEQUENCE
000862:                                                                                                  #        L-1     CALL
000863:                                                                                                  #        L               S40.8
000864:                                                                                                  #        L+1                     INTERPRETIVE RETURN
000865:
000866:                                                                                                  #  ALARM
000867:                                                                                                  #        IF VG . DELVREF IS NEGATIVE (VG AND DELVREF OVER 90 DEGREES APART), BYPASS TGO AND STEERING COMPUTATIONS
000868:                                                                                                  #        AND SET ALARM 1407.  RETURN TO CALLER NORMALLY.
000869:
000870:                                                                                                  #  INPUT AND INITIALIZATION
000871:                                                                                                  #        VGPREV          REFERENCE       2(7) M/CS
000872:                                                                                                  #        DELVREF         REFERENCE       2(7) M/CS
000873:                                                                                                  #        BDT             REFERENCE       2(7) M/CS
000874:                                                                                                  #        TDECAY          TAIL-OFF TIME   2(28) CS
000875:                                                                                                  #        XDELVFLG        1 = EXTERNAL DELTA-V; 0 = LAMBERT (AIMPOINT)
000876:                                                                                                  #        STEERSW         1 = DO STEERING AND TGO COMPUTATIONS; 0 = VG UPDATE ONLY
000877:                                                                                                  #        FIRSTFLG        1 = GONE TO LAMBERT AT LEAST ONCE; 0 = HAVEN'T GONE TO LAMBERT YET
000878:
000879:                                                                                                  #  NOTE:  VGTIG EQUALS VGPREV
000880:
000881:                                                                                                  #  OUTPUT
000882:                                                                                                  #        STEERSW         SEE INPUT
000883:                                                                                                  #        INPULSW         1 = ENGINE OFF IN TGO CENTISECONDS; 0 = CONTINUE BURN
000884:                                                                                                  #        TGO             TIME TO CUT-OFF 2(28) CS
000885:                                                                                                  #        SEE FINDCDUW FOR STEERING OUTPUTS.
000886:
000887:                                                                                                  #  SUBROUTINE CALLED
000888:                                                                                                  #        FINDCDUW
000889:
000890:                                                                                                  #  DEBRIS
000891:                                                                                                  #        MPACS, PUSHLIST
000892:
000893: 27,2447                                           COUNT*   $$/S40.8


000895: 27,2447           77614        S40.8              BOF                                            #  GENERATE VR IF NOT EXTERNAL DELTA-V BURN
000896: 27,2450           01347                                    XDELVFLG
000897: 27,2451           56731                                    RASTEER1
000898: 27,2452           52375                           VLOAD    VSU
000899: 27,2453           03701                                    VGPREV
000900: 27,2454           03527                                    DELVREF
000901: 27,2455           03707        VGAIN*             STORE    VG                                    #  VELOCITY TO BE GAINED SCALED AT (7) M/CS
000902: 27,2456           76521                           MXV      VSL1
000903: 27,2457           01734                                    REFSMMAT
000904: 27,2460           03254                           STORE    UNFC/2
000905: 27,2461           51575        BDTOK              VLOAD    ABVAL
000906: 27,2462           03707                                    VG
000907: 27,2463           03664                           STORE    VGDISP
000908: 27,2464           77201        TGDCALC            SETPD    VLOAD
000909: 27,2465           00001                                    0
000910: 27,2466           03707                                    VG
000911: 27,2467           27701                           STOVL    VGPREV
000912: 27,2470           03527                                    DELVREF
000913: 27,2471           57414                           BOFF     VCOMP
000914: 27,2472           01344                                    STEERSW
000915: 27,2473           00052                                    QPRET
000916: 27,2474           77656                           UNIT
000917: 27,2475           41441                           DOT      PUSH
000918: 27,2476           03707                                    VG
000919: 27,2477           56244                           BPL      DDV
000920: 27,2500           56526                                    ALARMIT                               #  DELV IS MORE THAN 90 DEGREES FROM VG.
000921: 27,2501           03743                                    VEX
000922: 27,2502           41215                           DAD      DMP
000923: 27,2503           06520                                    DPHALF
000924: 27,2504           56261                           SR       DDV
000925: 27,2505           20613                                    10D
000926: 27,2506           00045                                    36D
000927: 27,2507           43205                           DMP      DAD
000928: 27,2510           16535                                    -FOURDT
000929: 27,2511           03741                                    TDECAY
000930: 27,2512           03517                           STORE    TGO
000931: 27,2513           77615                           DAD
000932: 27,2514           01235                                    PIPTIME
000933: 27,2515           17442                           STODL    TIG
000934: 27,2516           03517                                    TGO
000935: 27,2517           51025                           DSU      BPL
000936: 27,2520           16537                                    FOURSECS                              #  400 CS
000937: 27,2521           61111                                    FINDCDUW   -2
000938: 27,2522           43014                           SET      CLRGO
000939: 27,2523           01066                                    IMPULSW
000940: 27,2524           01224                                    STEERSW
000941: 27,2525           00052                                    QPRET
000942:
000943: 27,2526           77776        ALARMIT            EXIT
000944:


000946: 27,2527           05567                           TC       ALARM
000947: 27,2530           01407                           OCT      01407
000948: 27,2531           06037                           TC       INTPRET
000949: 27,2532           77650                           GOTO                                           #  SKIP TGO COMPUTATION BUT CALL FINDCDUW.
000950: 27,2533           61111                                    FINDCDUW   -2                         #  FINDCDUW WILL EXIT TO UPDATEVG +3.
000951:
000952: 27,2534           77715 77777  -FOURDT            2DEC     -800       B-18                       #  -4 (200 CS.) B(-18)
000953: 27,2536           00000 00620  FOURSECS           2DEC     400        B-28                       #  400 CS SCALED AT 2(+28) CS
000954: 27,2540  E7,1742               2VEXHUST           =        VEX
000955:


000957:                                                                                                  #  NAME                  S40.13 - TIMEBURN
000958:
000959:                                                                                                  #  FUNCTION              (1) DETERMINE WHETHER A GIVEN COMBINATION OF VELOCITY TO
000960:                                                                                                  #                        BE GAINED AND ENGINE CHOICE RESULT IN A BURN TIME
000961:                                                                                                  #                        SUFFICIENT TO ALLOW STEERING AT THE VEHICLE DURING THE
000962:                                                                                                  #                        BURN
000963:                                                                                                  #                        (2) THE MAGNITUDE OF THE RESULTING BURN TIME -- IF IT
000964:                                                                                                  #                        IS SHORT -- AND THE ASSOCIATED TIME OF THE ENGINE OFF
000965:                                                                                                  #                        SIGNAL
000966:
000967:                                                                                                  #  CALLING SEQUENCE      VIA FINDVAC AS A NEW JOB
000968:
000969:                                                                                                  #  INPUT                 VGTIG VELOCITY TO BE GAINED VECTOR (METERS/CS) AT +7
000970:                                                                                                  #                        WEIGHT/G MASS OF VEHICLE IN KGM AT +16
000971:                                                                                                  #                        F  APS ENGINE THRUST IN M.NEWTONS AT +7
000972:                                                                                                  #                                AND ALSO FOR RCS ENGINE
000973:                                                                                                  #                        MDOT RATE OF DECREASE OF VEHICLE MASS DURING ENGINE
000974:                                                                                                  #                                BURN IN KILOGRAMS/CS AT +3.  THIS SCALING MAY
000975:                                                                                                  #                                REQUIRE MODIFICATION FOR SATURN BURNS.
000976:                                                                                                  #                        ENG1FLAG      SWITCH TO DECIDE WHETHER APS OR DPS ENGINE IS USED
000977:                                                                                                  #                                =0      DPS
000978:                                                                                                  #                                =1      APS
000979:
000980:                                                                                                  #  OUTPUT                IMPULSW         ZERO FOR STEERING
000981:                                                                                                  #                                        ONE FOR ATTITUDE HOLD
000982:                                                                                                  #                        NOTHROTL        ZERO FOR THROTTLING
000983:                                                                                                  #                                        ONE TO INHIBIT THROTTLING
000984:                                                                                                  #                        TGO             TIME TO BURN IN CS
000985:
000986:                                                                                                  #                        THE QUANTITY M.NEWTON = 10000 NEWTONS WILL BE USED TO EXPRESS
000987:                                                                                                  #                        FORCE
000988:
000989: 27,2540  E7,1516                                  EBANK=   TGO
000990: 27,2540                                           COUNT*   $$/40.13
000991: 27,2540           06037        S40.13             TC       INTPRET
000992: 27,2541           43001                           SETPD    CLEAR
000993: 27,2542           00001                                    00D
000994: 27,2543           01266                                    IMPULSW                               #  ASSUME NO STEERING UNTIL FOUND OTHERWISE
000995: 27,2544           51575                           VLOAD    ABVAL
000996: 27,2545           03701                                    VGTIG                                 #  VELOCITY TO BE GAINED AT +7
000997: 27,2546           41325                           PDDL     DMP                                   #  00D = MAG OF VGTIG AT +7
000998: 27,2547           21021                                    4SEC(17)                              #  CORRECT VG FOR 4 SECS OF 2 JET ULLAGE
000999: 27,2550           34017                                    FRCS2
001000: 27,2551           72471                           DDV      SL1                                   #  SCALE
001001: 27,2552           01245                                    WEIGHT/G
001002: 27,2553           41421                           BDSU     PUSH
001003: 27,2554           43014                           BOFF     SET
001004: 27,2555           05342                                    APSFLAG
001005: 27,2556           56626                                    S40.13D                               #  FOR DPS ENGINE
001006: 27,2557           02463                                    NOTHROTL
001007: 27,2560           56345                           DLOAD    DDV                                   #  00D = MAG OF VGTIG CORRECTED
001008: 27,2561           16001                                    K1VAL                                 #  M.NEWTONS-CS AT +24
001009: 27,2562           01245                                    WEIGHT/G
001010: 27,2563           50021                           BDSU     BMN


001012: 27,2564           00001                                    00D
001013: 27,2565           56610                                    S40.131                               #  TGO LESS THAN 100 CS
001014: 27,2566           41325                           PDDL     DMP                                   #  02D = TEMP1 AT +7
001015: 27,2567           03737                                    MDOT
001016:
001017:                                                                                                  #  MDOT REPRESENTS THE RATE OF DECREASE OF VEHICLE MASS DURING ENGINE
001018:                                                                                                  #  BURN IN KILOGRAMS/CS.  WHEN SATURN IS USED, THE SCALING MAY
001019:                                                                                                  #  REQUIRE ADJUSTMENT
001020:
001021: 27,2570           16700                                    3.5SEC                                #  350 CS AT +14
001022: 27,2571           65221                           BDSU     PDDL
001023: 27,2572           01245                                    WEIGHT/G
001024: 27,2573           03735                                    F
001025: 27,2574           60405                           DMP      SR2                                   #  SCALE
001026: 27,2575           16702                                    5SECS
001027: 27,2576           41471                           DDV      PUSH                                  #  04D = TEMP2
001028: 27,2577           51021                           BDSU     BPL
001029: 27,2600           00003                                    02D
001030: 27,2601           56626                                    S40.13D
001031: 27,2602           55345                           DLOAD    BDDV
001032: 27,2603           43205                           DMP      DAD
001033: 27,2604           16702                                    5SECS
001034: 27,2605           16676                                    1SEC2D                                #  100 CS AT +14
001035: 27,2606           77650                           GOTO
001036: 27,2607           56616                                    S40.132
001037: 27,2610           41345        S40.131            DLOAD    DMP
001038: 27,2611           01245                                    WEIGHT/G
001039: 27,2612           41542                           SR1      PUSH
001040: 27,2613           56215                           DAD      DDV
001041: 27,2614           16003                                    K2VAL                                 #  M.NEWTON CS AT +24
001042: 27,2615           16005                                    K3VAL                                 #  M.NEWTON CS AT +10
001043: 27,2616           77414        S40.132            SET      EXIT
001044: 27,2617           01066                                    IMPULSW
001045: 27,2620           07257        S40.132*           TC       TPAGREE
001046: 27,2621           30154                           CA       MPAC
001047: 27,2622           56001                           XCH      L
001048: 27,2623           34755                           CA       ZERO
001049: 27,2624           53517                           DXCH     TGO
001050: 27,2625           12650                           TCF      S40.134
001051:
001052: 27,2626           41345        S40.13D            DLOAD    DMP                                   #  FOR DPS ENGINE
001053: 27,2627           00001                                    00D
001054: 27,2630           01245                                    WEIGHT/G
001055: 27,2631           43006                           PUSH     BON
001056: 27,2632           05302                                    APSFLAG
001057: 27,2633           56671                                    APSTGO
001058: 27,2634           43071                           DDV      CLEAR
001059: 27,2635           16007                                    S40.136
001060: 27,2636           02663                                    NOTHROTL
001061: 27,2637           41400                           BOV      PUSH


001063: 27,2640           56653                                    S40.130V
001064: 27,2641           51025        S40.127            DSU      BPL
001065: 27,2642           16704                                    6SEC                                  #  600.0 CS AT +14
001066: 27,2643           56661                                    S40.138
001067: 27,2644           52015                           DAD      GOTO
001068: 27,2645           16704                                    6SEC
001069: 27,2646           56616                                    S40.132
001070: 27,2647           77776        S40.133            EXIT
001071: 27,2650           05353        S40.134            TC       PHASCHNG
001072: 27,2651           00003                           OCT      00003
001073: 27,2652           05155                           TC       ENDOFJOB
001074: 27,2653           40545        S40.130V           DLOAD    SR4                                   #  RECOMPUTE TGO IN TIME2 UNITS
001075: 27,2654           77671                           DDV
001076: 27,2655           16011                                    S40.136_                              #  S40.136 SHIFTED LEFT 10
001077: 27,2656           03517                           STORE    TGO
001078: 27,2657           77776                           EXIT
001079: 27,2660           12650                           TCF      S40.134                               #  REJOIN COMMON CODING FOR RESTART PROTECT
001080:
001081: 27,2661           51025        S40.138            DSU      BPL
001082: 27,2662           16706                                    89SECS
001083: 27,2663           56666                                    STORETGO
001084: 27,2664           77614                           SET
001085: 27,2665           02463                                    NOTHROTL
001086: 27,2666           77745        STORETGO           DLOAD                                          #  LOAD TGO AT 2(14)
001087: 27,2667           77776                           EXIT
001088: 27,2670           12620                           TCF      S40.132*
001089:
001090: 27,2671           62471        APSTGO             DDV      SL2
001091: 27,2672           34007                                    FAPS
001092: 27,2673           77650                           GOTO
001093: 27,2674           56667                                    STORETGO   +1
001094: 27,2675           00144 00000  1SEC2D             2DEC     100.0      B-14                       #  100.0 CS AT +14
001095:
001096: 27,2677           01274 00000  3.5SEC             2DEC     350.0      B-13                       #  350 CS AT +13
001097:
001098: 27,2701           00764 00000  5SECS              2DEC     500.0      B-14                       #  500.0 CS AT +14
001099:
001100: 27,2703           01130 00000  6SEC               2DEC     600.0      B-14                       #  600.0 CS AT +14
001101:
001102: 27,2705           21304 00000  89SECS             2DEC     8900.0     B-14
001103:
001104:                                                                                                  #  FUNCTION              (1) GENERATES REQUIRED VELOCITY AND VELOCITY-TO-BE-GAINED
001105:                                                                                                  #                        VECTORS FOR USE DURING AIMPOINT MANEUVERS EVERY TWO
001106:                                                                                                  #                        COMPUTATION CYCLES (4 SECONDS).
001107:                                                                                                  #                        (2) UPDATES THE B VECTOR WHICH IS USED IN THE FINAL
001108:                                                                                                  #                        CALCULATION OF EXTRAPOLATING THE VELOCITY-TO-BE-GAINED
001109:                                                                                                  #                        THROUGH ONE 2-SECOND INTERVAL INTO THE FUTURE.
001110:
001111:                                                                                                  #  CALLING SEQ VIA FINDVAC AS NEW JOB.
001112:
001113:                                                                                                  #  INPUT                 RN      - ACTIVE VEHICLE RADIUS VECTOR IN METERS AT +29.
001114:                                                                                                  #                        VN      - ACTIVE VEHICLE VELOCITY VECTOR IN METERS/CS AT +7


001116:                                                                                                  #                        VRPREV  - LAST COMPUTED VELOCITY REQUIRED VECTOR IN
001117:                                                                                                  #                                  METERS/CS AT +7.
001118:                                                                                                  #                        TIG     - TIME OF IGNITION IN CS AT +28.
001119:                                                                                                  #                        DLTARG  - COMPUTATION CYCLE INTERVAL = 200 CS AT +28.
001120:                                                                                                  #                        GDT/2   - HALF OF VELOCITY GAINED IN DELTA T TIME DUE TO
001121:                                                                                                  #                                  ACCERERATION OF GRAVITY IN METERS/CS AT +7.
001122:                                                                                                  #                        DELVREF - CHANGE IN VELOCITY DURING LAST 2 SEC IN
001123:                                                                                                  #                                  METERS/CS AT +7.
001124:
001125:                                                                                                  #  OUTPUT                VGPREV  - VELOCITY TO BE GAINED VECTOR IN METERS/CS AT +7.
001126:                                                                                                  #                        VGDISP  - MAG OF VGPREV FOR DISPLAY PURPOSES.
001127:                                                                                                  #                        VRPREV  - VELOCITY REQUIRED VECTOR IN METERS/CS AT +7.
001128:                                                                                                  #                        BDT     - B VECTOR IN METERS/CS AT +7.
001129:
001130:                                                                                                  #  SUBROUTINES USED - INITVEL
001131:
001132: 27,2707  E7,1700                                  EBANK=   VGPREV
001133: 27,2707                                           COUNT*   $$/S40.9
001134: 27,2707           06037        S40.9              TC       INTPRET
001135: 27,2710           77601                           SETPD
001136: 27,2711           00001                                    00D
001137: 27,2712           71214                           SET      DLOAD
001138: 27,2713           01072                                    AVFLAG                                #  SET AVFLAG FOR LEM ACTIVE
001139: 27,2714           06522                                    HI6ZEROS
001140: 27,2715           77725                           PDDL
001141: 27,2716           16406                                    EPS1
001142: 27,2717           43214                           BOFF     DAD                                   #  EPSILON4 = 10 OR 45 DEGREES.
001143: 27,2720           03745                                    NORMSW
001144: 27,2721           56723                                    EPSSMALL
001145: 27,2722           16410                                    EPS2
001146: 27,2723           45006        EPSSMALL           PUSH     CALL
001147: 27,2724           22002                                    HAVEGUES
001148: 27,2725           77776        ENDS40.9           EXIT
001149: 27,2726           05353                           TC       PHASCHNG
001150: 27,2727           00002                           OCT      2
001151: 27,2730           15155                           TCF      ENDOFJOB
001152:
001153: 27,2731           51575        RASTEER1           VLOAD    ABVAL
001154: 27,2732           01221                                    RN
001155: 27,2733           53744                           LXC,2    SL*
001156: 27,2734           02777                                    RTX2
001157: 27,2735           57576                                    0,2
001158: 27,2736           27715                           STOVL    RMAG
001159: 27,2737           03444                                    RTARG
001160: 27,2740           47051                           VSU      RTB
001161: 27,2741           01221                                    RN
001162: 27,2742           21724                                    NORMUNX1
001163: 27,2743           17656                           STODL    IC
001164: 27,2744           00045                                    36D                                   #  C(36D) = ABVAL(C)
001165: 27,2745           53674                           XAD,2    SL*
001166: 27,2746           00046                                    X1


001168: 27,2747           57576                                    0,2
001169: 27,2750           00037                           STORE    30D
001170: 27,2751           41301                           NORM     DMP
001171: 27,2752           00050                                    X2
001172: 27,2753           03715                                    RMAG
001173: 27,2754           57101                           NORM     XAD,2
001174: 27,2755           00047                                    X1
001175: 27,2756           00046                                    X1
001176: 27,2757           77734                           SXA,2
001177: 27,2760           03766                                    MUSCALE
001178: 27,2761           17725                           STODL    R1C                                   #                        2(+58 -X)
001179: 27,2762           00037                                    30D
001180: 27,2763           65342                           SR1      PDDL
001181: 27,2764           03715                                    RMAG
001182: 27,2765           65342                           SR1      PDDL
001183: 27,2766           03723                                    RTMAG
001184: 27,2767           43342                           SR1      DAD
001185: 27,2770           45415                           DAD      STADR
001186: 27,2771           74044                           STORE    SS                                    #  SS = (R1 + R2 + C)/2
001187: 27,2772           41225                           DSU      DMP
001188: 27,2773           00037                                    30D
001189: 27,2774           03721                                    MU/A
001190: 27,2775           77621                           BDSU
001191: 27,2776           03717                                    MUASTEER
001192: 27,2777           45325                           PDDL     DSU
001193: 27,3000           03733                                    SS
001194: 27,3001           03715                                    RMAG
001195: 27,3002           70501                           NORM     SR1
001196: 27,3003           00047                                    X1
001197: 27,3004           41271                           DDV      DMP
001198: 27,3005           03725                                    R1C
001199: 27,3006           53664                           XSU,2    SL*
001200: 27,3007           00046                                    X1
001201: 27,3010           57575                                    1,2
001202: 27,3011           77754                           LXA,2
001203: 27,3012           03766                                    MUSCALE
001204: 27,3013           75366                           SQRT     SIGN
001205: 27,3014           02673                                    GEOMSGN
001206: 27,3015           00041                           STORE    32D                                   #  + OR - A
001207: 27,3016           41345                           DLOAD    DMP
001208: 27,3017           03733                                    SS
001209: 27,3020           03721                                    MU/A
001210: 27,3021           77621                           BDSU
001211: 27,3022           03717                                    MUASTEER
001212: 27,3023           45325                           PDDL     DSU
001213: 27,3024           03733                                    SS
001214: 27,3025           03723                                    RTMAG
001215: 27,3026           70501                           NORM     SR1
001216: 27,3027           00047                                    X1
001217: 27,3030           41271                           DDV      DMP
001218:


001220: 27,3031           03725                                    R1C
001221: 27,3032           53664                           XSU,2    SL*
001222: 27,3033           00046                                    X1
001223: 27,3034           57575                                    1,2
001224: 27,3035           65366                           SQRT     PDDL                                  #  -B (NO SIGN)
001225: 27,3036           03733                                    SS
001226: 27,3037           56225                           DSU      DDV
001227: 27,3040           00037                                    30D
001228: 27,3041           03733                                    SS
001229: 27,3042           41566                           SQRT     PUSH
001230: 27,3043           67542                           SR1      ASIN
001231: 27,3044           65205                           DMP      PDDL
001232: 27,3045           17216                                    2PI+3
001233: 27,3046           56325                           PDDL     DDV
001234: 27,3047           00037                                    30D
001235: 27,3050           03733                                    SS
001236: 27,3051           77600                           BOV
001237: 27,3052           57053                                    +1
001238: 27,3053           41366                           SQRT     DMP
001239: 27,3054           44242                           SR3      BDSU
001240: 27,3055           65365                           SIGN     PDDL
001241: 27,3056           02673                                    GEOMSGN
001242: 27,3057           17216                                    2PI+3
001243: 27,3060           45302                           SR2      DSU
001244: 27,3061           65205                           DMP      PDDL
001245: 27,3062           03733                                    SS
001246: 27,3063           03733                                    SS
001247: 27,3064           75442                           SR3      SQRT
001248: 27,3065           77605                           DMP
001249: 27,3066           52525                           PDDL     SL3
001250: 27,3067           03717                                    MUASTEER
001251: 27,3070           55366                           SQRT     BDDV
001252: 27,3071           43225                           DSU      DAD
001253: 27,3072           03631                                    TPASS4
001254: 27,3073           01235                                    PIPTIME
001255: 27,3074           14037                           STODL    30D
001256: 27,3075           77765                           SIGN
001257: 27,3076           00037                                    30D                                   #  B WITH SIGN
001258: 27,3077           00037                           STORE    30D
001259: 27,3100           77214                           BON      VLOAD
001260: 27,3101           03705                                    NORMSW
001261: 27,3102           57123                                    180MESS
001262: 27,3103           03656                                    IC
001263: 27,3104           53451                           VSU      UNIT
001264: 27,3105           03537                                    UNIT/R/
001265: 27,3106           63361                           VXSC     PDVL
001266: 27,3107           00037                                    30D
001267: 27,3110           03656                                    IC
001268: 27,3111           53455                           VAD      UNIT
001269: 27,3112           03537                                    UNIT/R/


001271: 27,3113           53361        GETVRVG1           VXSC     VAD
001272: 27,3114           00041                                    32D
001273: 27,3115           53744        GETVRVG2           LXC,2    VSR*
001274: 27,3116           02777                                    RTX2
001275: 27,3117           57177                                    0          -1,2
001276: 27,3120           02337                           STORE    VIPRIME
001277: 27,3121           77650                           GOTO
001278: 27,3122           57166                                    ASTREND    -2
001279: 27,3123           50375        180MESS            VLOAD    DOT
001280: 27,3124           03656                                    IC
001281: 27,3125           03537                                    UNIT/R/
001282: 27,3126           77240                           BMN      VLOAD
001283: 27,3127           57146                                    NEGPROD
001284: 27,3130           03656                                    IC
001285: 27,3131           63362                           VSR1     PDVL
001286: 27,3132           03537                                    UNIT/R/
001287: 27,3133           53362                           VSR1     VAD
001288: 27,3134           77656                           UNIT
001289: 27,3135           57406                           PUSH     VCOMP                                 #  FOR A
001290: 27,3136           75235                           VXV      SIGN
001291: 27,3137           02674                                    UN
001292: 27,3140           02673                                    GEOMSGN
001293: 27,3141           74256                           UNIT     VXSC
001294: 27,3142           00037                                    30D
001295: 27,3143           77715                           PDVL                                           #  UNIT(IC-IR)   +-B
001296: 27,3144           77650                           GOTO
001297: 27,3145           57113                                    GETVRVG1
001298: 27,3146           74575        NEGPROD            VLOAD    VSR1
001299: 27,3147           03537                                    UNIT/R/
001300: 27,3150           74515                           PDVL     VSR1
001301: 27,3151           03656                                    IC
001302: 27,3152           53451                           VSU      UNIT
001303: 27,3153           77606                           PUSH
001304: 27,3154           75235                           VXV      SIGN
001305: 27,3155           02674                                    UN                                    #  FOR B
001306: 27,3156           02673                                    GEOMSGN
001307: 27,3157           74256                           UNIT     VXSC
001308: 27,3160           00041                                    32D
001309: 27,3161           77715                           PDVL
001310: 27,3162           53361                           VXSC     VAD
001311: 27,3163           00037                                    30D
001312: 27,3164           77650                           GOTO
001313: 27,3165           57115                                    GETVRVG2
001314: 27,3166           77651                           VSU
001315: 27,3167           03553                                    VN1
001316: 27,3170           02366        ASTREND            STORE    DELVEET3
001317: 27,3171           53135        FIRSTTME           SLOAD    BZE
001318: 27,3172           03000                                    RTX2
001319: 27,3173           57177                                    GETGOBL
001320: 27,3174           52175                           VLOAD    GOTO                                  #  NO OBLATENESS COMP IF IN MOON SPHERE


001322: 27,3175           02366                                    DELVEET3
001323: 27,3176           57212                                    NOGOBL
001324: 27,3177           53575        GETGOBL            VLOAD    UNIT                                  #  CALCULATE OBLATENESS TERM.
001325: 27,3200           01221                                    RN
001326: 27,3201           45345                           DLOAD    DSU
001327: 27,3202           01235                                    PIPTIME                               #               2
001328: 27,3203           03512                                    GOBLTIME                              #  G    = -(MU/R )(UNITGOBL)(T-TIG)
001329: 27,3204           56205                           DMP      DDV                                   #   OBL
001330: 27,3205           16023                                    EARTHMU
001331: 27,3206           00043                                    34D                                   #  34D = /RN/ (2) FROM UNIT OPERATION.
001332: 27,3207           53361                           VXSC     VAD
001333: 27,3210           03521                                    UNITGOBL
001334: 27,3211           02366                                    DELVEET3                              #  OUTPUT FROM INITVEL VG = VR - VN
001335: 27,3212           02366        NOGOBL             STORE    DELVEET3                              #  VG = VR + GOBL - VN
001336: 27,3213           77650                           GOTO
001337: 27,3214           56455                                    VGAIN*
001338:
001339: 27,3215           31103 36652  2PI+3              2DEC     3.141592653 B-2
001340:


001342:                                                                                                  #  TRIMGIMB      (FORMERLY S40.6)
001343:                                                                                                  #  MOD 0         24 FEB 67       PETER ADLER
001344:
001345:                                                                                                  #  FUNCTION:
001346:                                                                                                  #        TRIMS DPS ENGINE TO MINIMIZE THRUST/CG OFFSET.  ENGINE IS GIMBALLED TO FULL + PITCH AND + ROLL (TO LOCK)
001347:                                                                                                  #        FOR REFERENCE AND IS THEN BROUGHT BACK TO TRIM POSITION BY RUNNING FOR THE PROPER TIMES (TO BE
001348:                                                                                                  #        SPECIFIED BY GAEC) IN - PITCH AND - ROLL.
001349:
001350:                                                                                                  #  CALLING SEQUENCE:
001351:                                                                                                  #        VIA WAITLIST FROM R03
001352:
001353:                                                                                                  #  INPUT:
001354:                                                                                                  #        PITTIME         TIME TO RUN FROM FULL + PITCH TO TRIM (CS)
001355:                                                                                                  #        ROLLTIME        TIME TO RUN FROM FULL + ROLL TO TRIM (CS)
001356:
001357:                                                                                                  #  SUBROUTINES USED:
001358:                                                                                                  #        WAITLIST, FIXDELAY, VARDELAY, FLAGUP, FLAGDOWN, NOVAC
001359:
001360: 27,3217                                           COUNT*   $$/S40.6
001361: 27,3217  E6,1401                                  EBANK=   ROLLTIME                              #  OCTAL MASKS: PRIO5=05000 EBANK5=02400
001362:
001363: 27,3217           05516        TRIMGIMB           TC       DOWNFLAG                              #  GMBDRVSW FLAG IS SET WHEN EITHER ROLL OR
001364: 27,3220           00137                           ADRES    GMBDRVSW                              #  PITCH IS COMPLETED, WHICHEVER IS FIRST.
001365:
001366: 27,3221           45017                           CS       PRIO5                                 #  TURN OFF - PITCH, - ROLL, IF ON.
001367: 27,3222           00006                           EXTEND
001368: 27,3223           03012                           WAND     CHAN12
001369: 27,3224           35014                           CAF      EBANK5                                #  TURN ON + PITCH, + ROLL.
001370: 27,3225           00006                           EXTEND
001371: 27,3226           05012                           WOR      CHAN12
001372: 27,3227           05221                           TC       FIXDELAY                              #  WAIT ONE MINUTE TO MAKE SURE ENGINE IS
001373: 27,3230           13560                           DEC      6000       B-14                       #  AT FULL + PITCH AND FULL + ROLL
001374: 27,3231           45014                           CS       EBANK5                                #  TURN OFF + PITCH, + ROLL.
001375: 27,3232           00006                           EXTEND
001376: 27,3233           03012                           WAND     CHAN12
001377: 27,3234           35017                           CAF      PRIO5                                 #  TURN ON - PITCH, - ROLL.
001378: 27,3235           00006                           EXTEND
001379: 27,3236           05012                           WOR      CHAN12
001380: 27,3237           31402                           CAE      PITTIME                               #  GET TIME TO SHUT OFF - PITCH AND SET UP
001381: 27,3240           05173                           TC       TWIDDLE                               #  TWIDDLE-TASK TO TURN IT OFF THEN
001382: 27,3241           03260                           ADRES    PITCHOFF
001383:
001384: 27,3242           31401                           CAE      ROLLTIME                              #  GET TIME TO SHUT OFF - ROLL AND GO AWAY
001385: 27,3243           05224                           TC       VARDELAY                              #  UNTIL THEN
001386: 27,3244           44740                           CS       BIT12
001387: 27,3245           00006                           EXTEND
001388: 27,3246           03012                           WAND     CHAN12                                #  SHUT OFF ROLL
001389: 27,3247           30102        ROLLOVER           CA       FLAGWRD6                              #  IF HERE INLINE (ROLL DONE) IS PITCH DONE
001390: 27,3250           74742                           MASK     GMBDRBIT                              #  IF HERE FROM PITCHOFF, IS ROLL DONE?
001391: 27,3251           00006                           EXTEND
001392: 27,3252           13264                           BZF      PITCHOFF   +4                         #  NO.  SET FLAG, ROLL OR PITCH DONE.
001393: 27,3253           34737                           CAF      PRIO10                                #  RETURN TO R03
001394: 27,3254           05072                           TC       NOVAC
001395: 27,3255  E7,1471                                  EBANK=   WHOCARES


001397: 27,3255           02323 02067                     2CADR    TRIMDONE
001398:
001399: 27,3257           05261                           TC       TASKOVER
001400: 27,3260           44742        PITCHOFF           CS       BIT10
001401: 27,3261           00006                           EXTEND
001402: 27,3262           03012                           WAND     CHAN12                                #  SHUT OFF PITCH
001403: 27,3263           13247                           TCF      ROLLOVER                              #  SEE IF ROLL HAS FINISHED ALSO.
001404: 27,3264           05504                           TC       UPFLAG                                #  ROLL DONE; OR PITCH DONE; BUT NOT BOTH.
001405: 27,3265           00137                           ADRES    GMBDRVSW
001406: 27,3266           05261                           TC       TASKOVER
001407:


001409:                                                                                                  #  SUBROUTINE NAME:  S41.1       MOD. NO. 0      DATE: FEBRUARY 28, 1967
001410:                                                                                                  #  MOD. NO. 1    DATE: JANUARY 23, 1968: BY PETER ADLER (MIT/IL)
001411:
001412:                                                                                                  #  AUTHOR: JONATHAN D. ADDELSTON (ADAMS ASSOCIATES)
001413:
001414:                                                                                                  #  S41.1 PERFORMS THE COORDINATE SYSTEM TRANFORMATION FROM THE REFERENCE FRAME TO THE BODY OF THE LM.
001415:                                                                                                  #  SPECIFICALLY, IT IS USED TO TRANSFORM A VELOCITY (SCALED AT 2(+7) METERS/CENTISECOND) FROM REFERENCE TO LM AXIS
001416:                                                                                                  #  COORDINATES.  FIRST THE VECTOR IS TRANSFORMED TO THE STABLE MEMBER COORDINATES BY THE MATRIX REFSMMAT.  THIS
001417:                                                                                                  #  LEAVES THE VECTOR IN MPAC, SCALED AT 2(+8) METERS/CENTISECOND.  THEN
001418:                                                                                                  #  THE SUBROUTINE CDUTRIG IS CALLED TO SET UP THE DOUBLE-PRECISION CDU VECTOR ALONG WITH ITS SINES AND COSINES.
001419:                                                                                                  #  THE VECTOR IS THEN TRANSFORMED FROM STABLE MEMBER COORDINATES TO SPACECRAFT (OR LM) COORDINATES BY THE
001420:                                                                                                  #  SUBROUTINE *SMNB*.  FINALLY( THE VECTOR IS RESCALED TO 2(+7) METERS/CENTISECOND, AND CONTROL IS RETURNED TO THE
001421:                                                                                                  #  CALLER WITH C(MPAC) = VELOCITY(LM).
001422:
001423:                                                                                                  #  CALLING SEQUENCE:
001424:                                                                                                  #        L       VLOAD   CALL
001425:                                                                                                  #        L +1            VELOCITY(REF)           SCALED AT 2(+7) M/CS IN REFERENCE COORDS.
001426:                                                                                                  #        L +2            S41.1
001427:                                                                                                  #        L +3    STORE   VELOCITY(LM)            SCALED AT 2(+7) M/CS IN LM BODY AXIS SYS.
001428:
001429:                                                                                                  #  SUBROUTINES CALLED:
001430:                                                                                                  #        1.      CDUTRIG,
001431:                                                                                                  #                        WHICH CALLS CDULOGIC.
001432:                                                                                                  #        2.      *SMNB*
001433:
001434:                                                                                                  #  NORMAL RETURN:  L +3 (SEE CALLING SEQUENCE, ABOVE.)
001435:
001436:                                                                                                  #  ALARM/ABORT MODES:  NONE.
001437:
001438:                                                                                                  #  RESTART PROTECTION:  NONE.
001439:


001441:                                                                                                  #  INPUT:
001442:                                                                                                  #        1.      REFSMMAT.
001443:                                                                                                  #        2.      CDUX, CDUY, CDUZ.
001444:                                                                                                  #        3.      VELOCITY (REF) IN MPAC.
001445:
001446:                                                                                                  #  OUTPUT:
001447:                                                                                                  #        1.      CDUSPOT:        DOUBLE PRECISION CDU VECTOR, ORDERED Y,Z,X.
001448:                                                                                                  #        2.      SINCDU:         HALF SINES OF CDUSPOT COMPONENTS.
001449:                                                                                                  #        3.      COSCDU:         HALF COSINES OF CDUSPOT COMPONENTS.
001450:                                                                                                  #        4.      MPAC:           VELOCITY(LM) (SCALED AT 2(+7) METERS/CENTISECOND)
001451:
001452:                                                                                                  #  DEBRIS:  NONE.
001453:
001454:                                                                                                  #  CHECKOUT STATUS:  CODED.
001455:
001456: 27,3267                                           COUNT*   $$/S41.1
001457: 27,3267           76521        S41.1              MXV      VSL1                                  #  CONVERT VECTOR IN MPAC FROM REF AT 2(+7)
001458: 27,3270           01734                                    REFSMMAT                              #  TO SM AND RESCALE DUE TO HALFUNIT MATRIX
001459: 27,3271           77650                           GOTO                                           #  CONVERT TO BODY AT 2(+7) USING PRESENT
001460: 27,3272           47646                                    CDU*SMNB                              #  CDU ANGLES.  CDU*SMNB WILL RETURN
001461:                                                                                                  #  VIA RVQ TO THE CALLER OF S41.1

End of include-file P40-P47.agc.  Parent file is MAIN.agc


