
Source Code


000002:                                                                                                  ## Copyright:   Public domain.
000003:                                                                                                  ## Filename:    PHASE_TABLE_MAINTENANCE.agc
000004:                                                                                                  ## Purpose:     Part of the source code for Luminary 1A build 099.
000005:                                                                                                  ##              It is part of the source code for the Lunar Module's (LM)
000006:                                                                                                  ##              Apollo Guidance Computer (AGC), for Apollo 11.
000007:                                                                                                  ## Assembler:   yaYUL
000008:                                                                                                  ## Contact:     Onno Hommes <ohommes@cmu.edu>.
000009:                                                                                                  ## Website:     www.ibiblio.org/apollo.
000010:                                                                                                  ## Pages:       1294-1302
000011:                                                                                                  ## Mod history: 2009-05-26 OH   Transcribed from page images.
000012:                                                                                                  ##              2009-06-05 RSB  A few lines at the bottom of page image
000013:                                                                                                  ##                              1294 were truncated.  I've fixed the page
000014:                                                                                                  ##                              image and added those missing lines here.
000015:                                                                                                  ##              2011-05-07 JL   Flagged SBANK= workaround for future
000016:                                                                                                  ##                              removal.
000017:                                                                                                  ##              2016-12-17 RSB  Proofed text comments with octopus/ProoferComments
000018:                                                                                                  ##                              and corrected the errors found.
000019:                                                                                                  ##              2017-01-28 RSB  Back-ported a comment-text fix from Luminary 69.
000020:                                                                                                  ##              2017-03-03 RSB  Snapshot of Luminary 99 Rev 1.
000021:                                                                                                  ##              2017-03-14 RSB  Comment-text fixes noted in proofing Luminary 116.
000022:                                                                                                  ##              2017-03-16 RSB  Comment-text fixes identified in 5-way
000023:                                                                                                  ##                              side-by-side diff of Luminary 69/99/116/131/210.
000024:


000026:                                                                                                  #  SUBROUTINE TO UPDATE THE PROGRAM NUMBER DISPLAY ON THE DSKY.
000027:
000028: 43,3724                                           COUNT*   $$/PHASE
000029:    5311                                           BLOCK    02
000030:    4000                                           SETLOC   FFTAG1
000031:    4000                                           BANK
000032:
000033:    5311           50002        NEWMODEX           INDEX    Q                                     #  UPDATE MODREG.  ENTRY FOR MODE IN FIXED.
000034:    5312           30000                           CAF      0
000035:    5313           24002                           INCR     Q
000036:
000037:    5314           55011        NEWMODEA           TS       MODREG                                #  ENTRY FOR MODE IN A.
000038:    5315           35320        MMDSPLAY           CAF      +3                                    #  DISPLAY MAJOR MODE.
000039:    5316           22006        PREBJUMP           LXCH     BBANK                                 #  PUTS BBANK IN L
000040:    5317           14640                           TCF      BANKJUMP                              #  PUTS Q INTO A
000041:    5320           20213                           CADR     SETUPDSP
000042:
000043:                                                                                                  #  RETURN TO CALLER +3 IF MODE = THAT AT CALLER +1.  OTHERWISE RETURN TO CALLER +2.
000044:
000045:    5321           50002        CHECKMM            INDEX    Q
000046:    5322           40000                           CS       0
000047:    5323           61011                           AD       MODREG
000048:    5324           00006                           EXTEND
000049:    5325           16741                           BZF      Q+2
000050:    5326           16737                           TCF      Q+1                                   #  NO MATCH
000051:
000052:    5327     6742               TCQ                =        Q+2        +1
000053:
000054: 14,3774                                           BANK     14
000055: 10,2000                                           SETLOC   PHASETAB
000056: 10,2000                                           BANK
000057:
000058: 10,2213                                           COUNT*   $$/PHASE
000059: 10,2213           00004        SETUPDSP           INHINT
000060: 10,2214           52071                           DXCH     RUPTREG1                              #  SAVE CALLER-S RETURN 2CADR
000061: 10,2215           34355                           CAF      PRIO30                                #        EITHER A TASK OR JOB CAN COME TO
000062: 10,2216           05072                           TC       NOVAC                                 #        NEWMODE X
000063: 10,2217     1011                                  EBANK=   MODREG
000064: 10,2217           03534 60102                     2CADR    DSPMMJOB
000065:
000066: 10,2221           52071                           DXCH     RUPTREG1
000067: 10,2222           00003                           RELINT
000068: 10,2223           52006                           DXCH     Z                                     #  RETURN
000069:
000070: 10,2224  40,3534               DSPMMJOB           EQUALS   DSPMMJB
000071:
000072:    5327                                           BLOCK    02
000073:    4000                                           SETLOC   FFTAG1
000074:    4000                                           BANK
000075:


000077:                                                                                                  #  PHASCHNG IS THE MAIN WAY OF MAKING PHASE CHANGES FOR RESTARTS.  THERE ARE THREE FORMS OF PHASCHNG, KNOWN AS TYPE
000078:                                                                                                  #  A, TYPE B, AND TYPE C.  THEY ARE ALL CALLED AS FOLLOWS, WHERE OCT XXXXX CONTAINS THE PHASE INFORMATION,
000079:                                                                                                  #                TC      PHASCHNG
000080:                                                                                                  #                OCT     XXXXX
000081:                                                                                                  #  TYPE A IS CONCERNED WITH FIXED PHASE CHANGES, THAT IS, PHASE INFORMATION THAT IS STORED PERMANENTLY.  THESE
000082:                                                                                                  #  OPTIONS ARE, WHERE G STANDS FOR A GROUP AND .X FOR THE PHASE,
000083:                                                                                                  #        G.0             INACTIVE, WILL NOT PERMIT A GROUP G RESTART
000084:                                                                                                  #        G.1             WILL CAUSE THE LAST DISPLAY TO BE REACTIVATED, USED MAINLY IN MANNED FLIGHTS
000085:                                                                                                  #        G.EVEN          A DOUBLE TABLE RESTART, CAN CAUSE ANY COMBINATION OF TWO JOBS, TASKS, AND/OR
000086:                                                                                                  #                        LONGCALL TO BE RESTARTED.
000087:                                                                                                  #        G.ODD NOT .1    A SINGLE TABLE RESTART, CAN CAUSE EITHER A JOB, TASK, OR LONGCALL RESTART
000088:
000089:                                                                                                  #  THIS INFORMATION IS PUT INTO THE OCTAL WORD AFTER TC PHASCHNG AS FOLLOWS
000090:                                                                                                  #        TL0 00P PPP PPP GGG                                               ,
000091:                                                                                                  #  WHERE EACH LETTER OR NUMBER STANDS FOR A BIT.  THE G:S STAND FOR THE GROUP, OCTAL 1-7, THE P:S FOR THE PHASE,
000092:                                                                                                  #  OCTAL 0 - 127.  0:S MUST BE 0.  IF ONE WISHES TO HAVE THE TBASE OF GROUP G TO BE SET AT THIS TIME,
000093:                                                                                                  #  T IS SET TO 1, OTHERWISE IT IS SET TO 0.  SIMIARLY IF ONE WISHES TO SET LONGBASE, THEN L IS SET TO 1, OTHERWISE
000094:                                                                                                  #  IT IS SET TO 0.  SOME EXAMPLES,
000095:                                                                                                  #                TC      PHASCHNG        THIS WILL CAUSE GROUP 3 TO BE SET TO 0,
000096:                                                                                                  #                OCT     00003           MAKING GROUP 3 INACTIVE
000097:
000098:                                                                                                  #                TC      PHASCHNG        IF A RESTART OCCURS THIS WOULD CAUSE
000099:                                                                                                  #                OCT     00012           GROUP 2 TO RESTART THE LAST DISPLAY
000100:
000101:                                                                                                  #                TC      PHASCHNG        THIS SETS THE TBASE OF GROUP 4 AND IN
000102:                                                                                                  #                OCT     40064           CASE OF A RESTART WOULD START UP THE TWO
000103:                                                                                                  #                                        THINGS LOCATED IN THE DOUBLE 4.6 RESTART
000104:                                                                                                  #                                        LOCATION
000105:
000106:                                                                                                  #                TC      PHASCHNG        THIS SETS LONGBASE AND UPON A RESTART
000107:                                                                                                  #                OCT     20135           CAUSES 5.13 TO BE RESTARTED (SINCE
000108:                                                                                                  #                                        LONGBASE WAS SET THIS SINGLE ENTRY
000109:                                                                                                  #                                        SHOULD BE A LONGCALL)
000110:
000111:                                                                                                  #                TC      PHASCHNG        SINCE BOTH TBASE4 AND LONGBASE ARE SET,
000112:                                                                                                  #                OCT     60124           4.12 SHOULD CONTAIN BOTH A TASK AND A
000113:                                                                                                  #                                        LONGCALL TO BE RESTARTED
000114:
000115:                                                                                                  #  TYPE C PHASCHNG CONTAINS THE VARIABLE TYPE OF PHASCHNG INFORMATION.  INSTEAD OF THE INFORMATION BEING IN A
000116:                                                                                                  #  PERMANENT FORM, ONE STORES THE DESIRED RESTART INFORMATION IN A VARIABKE LOCATION.  THE BITS ARE AS FOLLOWS,
000117:                                                                                                  #        TL0 1AD XXX CJW GGG
000118:                                                                                                  #  WHERE EACH LETTER OR NUMBER STANDS FOR A BIT.  THE G:S STAND FOR THE GROUP, OCTAL 1 - 7.  IF THE RESTART IS TO
000119:                                                                                                  #  BE BY WAITLIST, W IS SET TO 1, IF IT IS A JOB, J IS SET TO 1, IF IT IS A LONGCALL, C IS SET TO 1.  ONLY ONE OF
000120:                                                                                                  #  THESE THREE BITS MAY BE SET.  X:S ARE IGNORED  1 MUST BE 1, AND 0 MUST BE 0.  AGAIN T STANDS FOR THE TBASE,


000122:                                                                                                  #  AND L FOR LONGBASE.  THE BITS A AND D ARE CONCERNED WITH THE VARIABLE INFORMATION.  IF D IS SET TO 1, A PRIORITY
000123:                                                                                                  #  OR DELTA TIME WILL BE READ FROM THE NEXT LOCATION AFTER THE OCTAL INFORMATION, IF THIS IS TO BE INDIRECT, THAT
000124:                                                                                                  #  IS, THE NAME OF A LOCATION COMT+INING THE INFORMATION (DELTA TIME ONLY), THEN THIS IS GIVEN AS THE -GENADR OF
000125:                                                                                                  #  THAT LOCATION WHICH CONTAINS THE DELTA TIME.  IF THE OLD PRIORITY OR DELTA TIME IS TO BE USED, THAT WHICH IS
000126:                                                                                                  #  ALREADY IN THE VARIABLE STORAGE, THEN D IS SET TO 0.  NEXT THE A BIT IS USED.  IF IT IS SET TO 0, THE ADDRESS
000127:                                                                                                  #  THAT WOULD BE RESTARTED DURING A RESTART IS THE NEXT LOCATION AFTER THE PHASE INFORMATION, THAT IS, EITHER
000128:                                                                                                  #  (TC PHASCHNG) +2 OR +3, DEPENDING ON WHETHER D HAD BEEN SET OR NOT.  IF A IS SET TO 1, THEN THE ADDRESS THAT
000129:                                                                                                  #  WOULD BE RESTARTED IS THE 2CADR THAT IS READ FROM THE NEXT TWO LOCATIONS.  EXAMPLES,
000130:                                                                                                  #        AD      TC      PHASCHNG        THIS WOULD CAUSE LOCATION AD +3 TO BE
000131:                                                                                                  #        AD+1    OCT     05023           RESTARTED BY GROUP THREE WITH A PRIORITY
000132:                                                                                                  #        AD+2    OCT     23000           OF 23.  NOTE UPON RETURNING IT WOULD
000133:                                                                                                  #        AD+3                            ALSO GO TO AD+3
000134:
000135:                                                                                                  #        AD      TC      PHASCHNG        GROUP 1 WOULD CAUSE CAUSE CALLCALL TO
000136:                                                                                                  #        AD+1    OCT     27441           BE STARTED AS A LONGCALL FROM THE TIME
000137:                                                                                                  #        AD+2    -GENADR DELTIME         STORED IN LONGBASE (LONGBASE WAS SET) BY
000138:                                                                                                  #        AD+3    2CADR   CALLCALL        A DELTA TIME STORED IN DELTIME.  THE
000139:                                                                                                  #        AD+4                            BBCON OF THE 2CADR SHOULD CONTAIN THE E
000140:                                                                                                  #        AD+5                            BANK OF DELTIME.  PHASCHNG RETURNS TO
000141:                                                                                                  #                                        LOCATION AD+5
000142:
000143:                                                                                                  #  NOTE THAT IF A VARIABLE PRIORITY IS GIVEN FOR A JOB, THE JOB WILL BE RESTARTED AS A NOVAC IF THE PRIORITY IS
000144:                                                                                                  #  NEGATIVE, AS A FINDVAC IF THE PRIORITY IS POSITIVE.
000145:
000146:                                                                                                  #  TYPE B PHASCHNG IS A COMBINATION OF VARIABLE AND FIXED PHASE CHANGES.  IT WILL START UP A JOB AS INDICATED
000147:                                                                                                  #  BELOW AND ALSO START UP ONE FIXED RESTART, THAT IS EITHER AN G.1 OR A G.ODD OR THE FIRST ENTRY OF G.EVEN
000148:                                                                                                  #  DOUBLE ENTRY.  THE BIT INFORMATION IS AS FOLLOWS,
000149:                                                                                                  #        TL1 DAP PPP PPP GGG
000150:                                                                                                  #  WHERE EACH LETTER OR NUMBER STANDS FOR A BIT.  THE G:S STAND FOR THE GROUP, OCTAL 1 - 7. THE P:S FOR THE FIXED
000151:                                                                                                  #  PHASE INFORMATION, OCTAL 0 - 127.  1 MUST BE 1.  AND AGAIN T STANDS FOR THE TBASE AND L FOR LONGBASE.  D THIS
000152:                                                                                                  #  TIME STANDS ONLY FOR PRIORITY SINCE THIS WILL BE CONSIDERED A JOB, AND IT MUST BE GIVEN DIRECTLY IF GIVEN.
000153:                                                                                                  #  AGAIN A STANDS FOR THE ADDRESS OF THE LOCATION TO BE RESTARTED, 1 IF THE 2CADR IS GIVEN, OR 0 IF IT IS TO BE
000154:                                                                                                  #  THE NEXT LOCATION.  (THE RETURN LOCATION OF PHASCHNG) EXAMPLES,
000155:                                                                                                  #        AD      TC      PHASCHNG        TBASE IS SET AND A RESTART CAUSE GROUP 3
000156:                                                                                                  #        AD+1    OCT     56043           TO START THE JOB AJOBAJOB WITH PRIORITY
000157:                                                                                                  #        AD+2    OCT     31000           31 AND THE FIRST ENTRY OF 3.4SPOT (WE CAN
000158:                                                                                                  #        AD+3    2CADR   AJOBAJOB        ASSUME IT IS A TASK SINCE WE SET TBASE3)
000159:                                                                                                  #        AD+4                            UPON RETURN FROM PHASCHNG CONTROL WOULD
000160:                                                                                                  #        AD+5                            GO TO AD+5
000161:
000162:                                                                                                  #        AD      TC      PHASCHNG        UPON A RESTART THE LAST DISPLAY WOULD BE
000163:                                                                                                  #        AD+1    OCT     10015           RESTARTED AND A JOB WITH THE PREVIOUSLY
000164:                                                                                                  #        AD+2                            STORED PRIORITY WOULD BE BEGUN AT AD+2
000165:                                                                                                  #                                        BY MEANS OF GROUP 5


000167:                                                                                                  #  THE NOVAC-FINDVAC CHOICE FOR JOBS HOLDS HERE ALSO - NEGATIVE PRIORITY CAUSES A NOVAC CALL, POSITIVE A FINDVAC.
000168:
000169:                                                                                                  #  SUMMARY OF BITS
000170:                                                                                                  #        TYPE A          TL0 00P PPP PPP GGG
000171:                                                                                                  #        TYPE B          TL1 DAP PPP PPP GGG
000172:                                                                                                  #        TYPE C          TL0 1AD XXX CJW GGG
000173:


000175:                                                                                                  #  2PHSCHNG IS USED WHEN ONE WISHES TO START UP A GROUP OR CHANGE A GROUP WHILE UNDER THE CONTROL OF A DIFFERENT
000176:                                                                                                  #  GROUP.  FOR EXAMPLE, CHANGE THE PHASE OF GROUP 3 WHILE THE PORTION OF THE PROGRAM IS UNDER GROUP 5.  ALL 2PHSCHNG
000177:                                                                                                  #  CALLS ARE MADE IN THE FOLLOWING MANNER,
000178:                                                                                                  #                TC      2PHSCHNG
000179:                                                                                                  #                OCT     XXXXX
000180:                                                                                                  #                OCT     YYYYY
000181:                                                                                                  #  WHERE OCT XXXXX MUST BE OF TYPE A AND OCT YYYYY MAY BE OF EITHER TYPE A OR TYPE B OR TYPE C.  THERE IS ONE
000182:                                                                                                  #  DIFFERENCE --- NOTE- IF LONGBASE IS TO BE SET THIS INFORMATION IS GIVEN IN THE OCT YYYYY INFORMATION, IT WILL
000183:                                                                                                  #  BE DISREGARDED IF GIVEN WITH THE OCT XXXXX INFORMATION.  A COUPLE OF EXAMPLES MAY HELP,
000184:                                                                                                  #        AD      TC      2PHSCHNG        SET TBASE3 AND IF A RESTART OCCURS START
000185:                                                                                                  #        AD+1    OCT     40083           THE TWO ENTRIES IN 3.8 TABLE LOCATION
000186:                                                                                                  #        AD+2    OCT     05025           THIS IS OF TYPE C, SET THE JOB TO BE
000187:                                                                                                  #        AD+3    OCT     18000           TO BE LOCATION AD+4, WITH A PRIORITY 18,
000188:                                                                                                  #        AD+4                            FOR GROUP 5 PHASE INFORMATION
000189:


000191:    5327  40,2000                                  SBANK=   PINSUPER
000192:
000193:    5327                                           COUNT*   $$/PHASE
000194:    5327           00004        2PHSCHNG           INHINT                                         #  THE ENTRY FOR A DOUBLE PHASE CHANGE
000195:    5330           50002                           NDX      Q
000196:    5331           30000                           CA       0
000197:    5332           24002                           INCR     Q
000198:    5333           54072                           TS       TEMPP2
000199:
000200:    5334           74757                           MASK     OCT7
000201:    5335           60000                           DOUBLE
000202:    5336           54071                           TS       TEMPG2
000203:
000204:    5337           30072                           CA       TEMPP2
000205:    5340           75030                           MASK     OCT17770                              #  NEED ONLY 1770, BUT WHY GET A NEW CONST.
000206:    5341           00006                           EXTEND
000207:    5342           74740                           MP       BIT12
000208:    5343           56072                           XCH      TEMPP2
000209:
000210:    5344           74735                           MASK     BIT15
000211:    5345           54066                           TS       TEMPSW2                               #  INDICATES WHETHER TO SET TBASE OR NOT
000212:
000213:    5346           50002                           INDEX    Q
000214:    5347           30000                           CA       0
000215:    5350           24002                           INCR     Q
000216:    5351           54065                           TS       TEMPSW
000217:
000218:    5352           15363                           TCF      PHASJUMP
000219:
000220:    5353           00004        PHASCHNG           INHINT                                         #  NORMAL PHASCHNG ENTRY POINT.
000221:    5354           50002                           INDEX    Q
000222:    5355           30000                           CA       0
000223:    5356           24002                           INCR     Q
000224:    5357           00004        PHSCHNGA           INHINT                                         #  FIRST OCTAL PARAMETER IN A.


000226:    5360           54065                           TS       TEMPSW
000227:    5361           34753                           CA       ONE
000228:    5362           54066                           TS       TEMPSW2
000229:    5363           00006        PHASJUMP           EXTEND
000230:    5364           35367                           DCA      ADRPCHN2                              #  OFF TO SWITCHED BANK
000231:    5365           52006                           DTCB
000232:
000233:    5366  E3,1400                                  EBANK=   LST1
000234:    5366           02224 20103  ADRPCHN2           2CADR    PHSCHNG2
000235:
000236:    5370           22073        ONEORTWO           LXCH     TEMPBBCN
000237:    5371           22006                           LXCH     BBANK
000238:    5372           22073                           LXCH     TEMPBBCN
000239:
000240:    5373           75024                           MASK     OCT14000                              #  SEE WHAT KIND OF PHASE CHANGE IT IS
000241:    5374           10000                           CCS      A
000242:    5375           17750                           TCF      CHECKB                                #  IT IS OF TYPE :B:
000243:
000244:    5376           30062                           CA       TEMPP
000245:    5377           74745                           MASK     BIT7
000246:    5400           10000                           CCS      A                                     #  SHALL WE USE THE OLD PRIORITY
000247:    5401           15423                           TCF      GETPRIO                               #  NO GET A NEW PRIORITY (OR DELTA T)
000248:
000249:    5402           50061        OLDPRIO            NDX      TEMPG                                 #  USE THE OLD PRIORITY (OR DELTA T)
000250:    5403           31052                           CA       PHSPRDT1   -2
000251:    5404           54070                           TS       TEMPPR
000252:
000253:    5405           30062        CON1               CA       TEMPP                                 #  SEE IF A 2CADR IS GIVEN
000254:    5406           74744                           MASK     BIT8
000255:    5407           10000                           CCS      A
000256:    5410           15427                           TCF      GETNEWNM
000257:
000258:    5411           30002                           CA       Q
000259:    5412           54063                           TS       TEMPNM
000260:    5413           30006                           CA       BB
000261:    5414           00006                           EXTEND                                         #  PICK UP USERS SUPERBANK
000262:    5415           04007                           ROR      SUPERBNK
000263:    5416           54064                           TS       TEMPBB
000264:
000265:    5417           35422        TOCON2             CA       CON2ADR                               #  BACK TO SWITCHED BANK
000266:    5420           22073                           LXCH     TEMPBBCN
000267:    5421           52006                           DTCB
000268:
000269:    5422           02312        CON2ADR            GENADR   CON2
000270:
000271:    5423           50002        GETPRIO            NDX      Q                                     #  DON:T CARE IF DIRECT OR INDIRECT
000272:    5424           30000                           CA       0                                     #  LEAVE THAT DECISION TO RESTARTS
000273:    5425           24002                           INCR     Q                                     #  OBTAIN RETURN ADDRESS


000275:    5426           15404                           TCF      CON1       -1
000276:
000277:    5427           00006        GETNEWNM           EXTEND
000278:    5430           50002                           INDEX    Q
000279:    5431           30001                           DCA      0
000280:    5432           52064                           DXCH     TEMPNM
000281:    5433           34752                           CA       TWO
000282:    5434           26002                           ADS      Q                                     #  OBTAIN RETURN ADDRESS
000283:
000284:    5435           15417                           TCF      TOCON2
000285:
000286:    5436     5024               OCT14000           EQUALS   PRIO14
000287:    5436     0061               TEMPG              EQUALS   ITEMP1
000288:    5436     0062               TEMPP              EQUALS   ITEMP2
000289:    5436     0063               TEMPNM             EQUALS   ITEMP3
000290:    5436     0064               TEMPBB             EQUALS   ITEMP4
000291:    5436     0065               TEMPSW             EQUALS   ITEMP5
000292:    5436     0066               TEMPSW2            EQUALS   ITEMP6
000293:    5436     0070               TEMPPR             EQUALS   RUPTREG1
000294:    5436     0071               TEMPG2             EQUALS   RUPTREG2
000295:    5436     0072               TEMPP2             EQUALS   RUPTREG3
000296:
000297:    5436     0073               TEMPBBCN           EQUALS   RUPTREG4
000298:    5436  0000006               BB                 EQUALS   BBANK
000299:
000300: 14,3774                                           BANK     14
000301: 10,2000                                           SETLOC   PHASETAB
000302: 10,2000                                           BANK
000303:
000304: 10,2224  E3,1436                                  EBANK=   PHSNAME1
000305: 10,2224                                           COUNT*   $$/PHASE
000306: 10,2224           22073        PHSCHNG2           LXCH     TEMPBBCN
000307: 10,2225           30065                           CA       TEMPSW
000308: 10,2226           74757                           MASK     OCT7
000309: 10,2227           60000                           DOUBLE
000310: 10,2230           54061                           TS       TEMPG
000311:
000312: 10,2231           30065                           CA       TEMPSW
000313: 10,2232           75030                           MASK     OCT17770
000314: 10,2233           00006                           EXTEND
000315: 10,2234           74740                           MP       BIT12
000316: 10,2235           54062                           TS       TEMPP
000317:
000318: 10,2236           30065                           CA       TEMPSW
000319: 10,2237           74101                           MASK     OCT60000
000320: 10,2240           56065                           XCH      TEMPSW
000321: 10,2241           75024                           MASK     OCT14000
000322: 10,2242           10000                           CCS      A


000324: 10,2243           15370                           TCF      ONEORTWO
000325:
000326: 10,2244           30062                           CA       TEMPP                                 #  START STORING THE PHASE INFORMATION
000327: 10,2245           50061                           NDX      TEMPG
000328: 10,2246           54751                           TS       PHASE1     -2
000329:
000330: 10,2247           10066        BELOW1             CCS      TEMPSW2                               #  IS IT A PHASCHNG OR A 2PHSCHNG
000331: 10,2250           12264                           TCF      BELOW2                                #  IT:S A PHASCHNG
000332:
000333: 10,2251           12252                           TCF      +1                                    #  IT:S A 2PHSCHNG
000334: 10,2252           40072                           CS       TEMPP2
000335: 10,2253           22072                           LXCH     TEMPP2
000336: 10,2254           50071                           NDX      TEMPG2
000337: 10,2255           52751                           DXCH     -PHASE1    -2
000338:
000339: 10,2256           10066                           CCS      TEMPSW2
000340: 10,2257           12260                           NOOP                                           #  CAN:T GET HERE
000341: 10,2260           12264                           TCF      BELOW2
000342:
000343: 10,2261           40025                           CS       TIME1
000344: 10,2262           50071                           NDX      TEMPG2
000345: 10,2263           55051                           TS       TBASE1     -2
000346:
000347: 10,2264           10065        BELOW2             CCS      TEMPSW                                #  SEE IF WE SHOULD SET TBASE OR LONGBASE
000348: 10,2265           12300                           TCF      BELOW3                                #  SET LONGBASE ONLY
000349: 10,2266           12303                           TCF      BELOW4                                #  SET NEITHER
000350:
000351: 10,2267           40025                           CS       TIME1                                 #  SET TBASE TO BEGIN WITH
000352: 10,2270           50061                           NDX      TEMPG
000353: 10,2271           55051                           TS       TBASE1     -2
000354:
000355: 10,2272           30065                           CA       TEMPSW                                #  SHALL WE NOW SET LONGBASE
000356: 10,2273           62276                           AD       BIT14COM
000357: 10,2274           10000                           CCS      A
000358: 10,2275           12276                           NOOP                                           #  ***** CANT GET HERE *****
000359: 10,2276           17777        BIT14COM           OCT      17777                                 #  ***** CANT GET HERE *****
000360: 10,2277           12303                           TCF      BELOW4                                #  NO WE NEED ONLY SET TBASE
000361:
000362: 10,2300           00006        BELOW3             EXTEND                                         #  SET LONGBASE
000363: 10,2301           30025                           DCA      TIME2
000364: 10,2302           53152                           DXCH     LONGBASE
000365:
000366: 10,2303           40062        BELOW4             CS       TEMPP                                 #  AND STORE THE FINAL PART OF THE PHASE
000367: 10,2304           50061                           NDX      TEMPG
000368: 10,2305           54750                           TS       -PHASE1    -2
000369:
000370: 10,2306           30002                           CA       Q
000371: 10,2307           22073                           LXCH     TEMPBBCN
000372: 10,2310           00003                           RELINT
000373: 10,2311           52006                           DTCB


000375: 10,2312           22073        CON2               LXCH     TEMPBBCN
000376:
000377: 10,2313           30062                           CA       TEMPP
000378: 10,2314           50061                           NDX      TEMPG
000379: 10,2315           54751                           TS       PHASE1     -2
000380:
000381: 10,2316           30070                           CA       TEMPPR
000382: 10,2317           50061                           NDX      TEMPG
000383: 10,2320           55052                           TS       PHSPRDT1   -2
000384:
000385: 10,2321           00006                           EXTEND
000386: 10,2322           30064                           DCA      TEMPNM
000387: 10,2323           50061                           NDX      TEMPG
000388: 10,2324           53435                           DXCH     PHSNAME1   -2
000389:
000390: 10,2325           12247                           TCF      BELOW1
000391:
000392:    7750                                           BLOCK    03
000393:    6000                                           SETLOC   FFTAG6
000394:    6000                                           BANK
000395:
000396:    7750                                           COUNT*   $$/PHASE
000397:    7750           74740        CHECKB             MASK     BIT12                                 #  SINCE THIS IS OF TYPE B, THIS BIT SHOULD
000398:    7751           10000                           CCS      A                                     #  BE HERE IF WE ARE TO GET A NEW PRIORITY
000399:    7752           15423                           TCF      GETPRIO                               #  IT IS, SO GET NEW PRIORITY
000400:
000401:    7753           15402                           TCF      OLDPRIO                               #  IT ISN:T, USE THE OLD PRIORITY
000402:
000403:

End of include-file PHASE_TABLE_MAINTENANCE.agc.  Parent file is MAIN.agc


