
Source Code


000002:                                                                                                  ## Copyright:   Public domain.
000003:                                                                                                  ## Filename:    RADAR_LEADIN_ROUTINES.agc
000004:                                                                                                  ## Purpose:     Part of the source code for Luminary 1A build 099.
000005:                                                                                                  ##              It is part of the source code for the Lunar Module's (LM)
000006:                                                                                                  ##              Apollo Guidance Computer (AGC), for Apollo 11.
000007:                                                                                                  ## Assembler:   yaYUL
000008:                                                                                                  ## Contact:     Ron Burkey <info@sandroid.org>.
000009:                                                                                                  ## Website:     www.ibiblio.org/apollo.
000010:                                                                                                  ## Pages:       490-491
000011:                                                                                                  ## Mod history: 2009-05-17 RSB  Adapted from the corresponding
000012:                                                                                                  ##                              Luminary131 file, using page
000013:                                                                                                  ##                              images from Luminary 1A.
000014:                                                                                                  ##              2016-12-14 RSB  Proofed text comments with octopus/ProoferComments
000015:                                                                                                  ##                              and corrected the errors found.
000016:                                                                                                  ##              2017-03-03 RSB  Snapshot of Luminary 99 Rev 1.
000017:


000019: 25,2003                                           BANK     25
000020: 25,2000                                           SETLOC   RRLEADIN
000021: 25,2000                                           BANK
000022:
000023: 25,2003  E4,1600                                  EBANK=   RSTACK
000024:
000025:                                                                                                  #  RADAR SAMPLING LOOP.
000026:
000027: 25,2003                                           COUNT*   $$/RLEAD
000028: 25,2003           11755        RADSAMP            CCS      RSAMPDT                               #  TIMES NORMAL ONCE-PER-SECOND SAMPLING.
000029: 25,2004           12006                           TCF      +2
000030: 25,2005           15261                           TCF      TASKOVER                              #  +0 INSERTED MANUALLY TERMINATES TEST.
000031:
000032: 25,2006           05203                           TC       WAITLIST
000033: 25,2007  E4,1600                                  EBANK=   RSTACK
000034: 25,2007           02003 52064                     2CADR    RADSAMP
000035:
000036: 25,2011           37713                           CAF      PRIO25
000037: 25,2012           05072                           TC       NOVAC
000038: 25,2013  E4,1600                                  EBANK=   RSTACK
000039: 25,2013           02023 52064                     2CADR    DORSAMP
000040:
000041: 25,2015           34736                           CAF      BIT14                                 #  FOR CYCLIC SAMPLING, RTSTDEX=
000042: 25,2016           00006                           EXTEND                                         #  RTSTLOC/2 + RTSTBASE
000043: 25,2017           71754                           MP       RTSTLOC
000044: 25,2020           61753                           AD       RTSTBASE                              #  0 FOR RR, 2 FOR LR.
000045: 25,2021           55751                           TS       RTSTDEX
000046: 25,2022           15261                           TCF      TASKOVER
000047:
000048:                                                                                                  #  DO THE ACTUAL RADAR SAMPLE.
000049:
000050: 25,2023           02047        DORSAMP            TC       VARADAR                               #  SELECTS VARIABLE RADAR CHANNEL.
000051: 25,2024           04616                           TC       BANKCALL
000052: 25,2025           17714                           CADR     RADSTALL
000053:
000054: 25,2026           25756                           INCR     RFAILCNT                              #  ADVANCE FAIL COUNTER BUT ACCEPT BAD DATA
000055:
000056: 25,2027           00004        DORSAMP2           INHINT
000057: 25,2030           30101                           CA       FLAGWRD5                              #  DON'T UPDATE RSTACK IF IN R77.
000058: 25,2031           74741                           MASK     R77FLBIT
000059: 25,2032           10000                           CCS      A
000060: 25,2033           12037                           TCF      +4
000061:
000062: 25,2034           53102                           DXCH     SAMPLSUM
000063: 25,2035           51754                           INDEX    RTSTLOC
000064: 25,2036           53601                           DXCH     RSTACK
000065:
000066: 25,2037           41754                           CS       RTSTLOC                               #  CYCLE RTSTLOC.
000067: 25,2040           61752                           AD       RTSTMAX
000068: 25,2041           00006                           EXTEND
000069:


000071: 25,2042           12045                           BZF      +3
000072: 25,2043           31754                           CA       RTSTLOC
000073: 25,2044           64752                           AD       TWO                                   #  STORAGE IS DP
000074: 25,2045           55754                           TS       RTSTLOC
000075: 25,2046           15155                           TCF      ENDOFJOB                              #  CONTINUOUS SAMPLING AND 2N TRIES - GONE.
000076:
000077:                                                                                                  #  VARIABLE RADAR DATA CALLER FOR ONE MEASUREMENT ONLY.
000078:
000079: 25,2047           34753        VARADAR            CAF      ONE                                   #  WILL BE SENT TO RADAR ROUTINE IN A BY
000080: 25,2050           54133                           TS       BUF2                                  #  SWCALL.
000081: 25,2051           51751                           INDEX    RTSTDEX
000082: 25,2052           32054                           CAF      RDRLOCS
000083: 25,2053           14622                           TCF      SWCALL                                #  NOT TOUCHING Q.
000084:
000085: 25,2054           53105        RDRLOCS            CADR     RRRANGE                               #  = 0
000086: 25,2055           53103                           CADR     RRRDOT                                #  = 1
000087: 25,2056           53101                           CADR     LRVELX                                #  = 2
000088: 25,2057           53077                           CADR     LRVELY                                #  = 3
000089: 25,2060           53075                           CADR     LRVELZ                                #  = 4
000090: 25,2061           53073                           CADR     LRALT                                 #  = 5
000091:
000092:

End of include-file RADAR_LEADIN_ROUTINES.agc.  Parent file is MAIN.agc


