
Source Code


000002:                                                                                                  ## Copyright:   Public domain.
000003:                                                                                                  ## Filename:    RTB_OP_CODES.agc
000004:                                                                                                  ## Purpose:     Part of the source code for Luminary 1A build 099.
000005:                                                                                                  ##              It is part of the source code for the Lunar Module's (LM)
000006:                                                                                                  ##              Apollo Guidance Computer (AGC), for Apollo 11.
000007:                                                                                                  ## Assembler:   yaYUL
000008:                                                                                                  ## Contact:     Ron Burkey <info@sandroid.org>.
000009:                                                                                                  ## Website:     www.ibiblio.org/apollo.
000010:                                                                                                  ## Pages:       1397-1401
000011:                                                                                                  ## Mod history: 2009-05-10 SN   (Sergio Navarro).  Started adapting
000012:                                                                                                  ##                              from the Luminary131/ file of the same
000013:                                                                                                  ##                              name, using Luminary099 page images.
000014:                                                                                                  ##              2016-12-18 RSB  Proofed text comments with octopus/ProoferComments
000015:                                                                                                  ##                              and corrected the errors found.
000016:                                                                                                  ##              2017-03-03 RSB  Snapshot of Luminary 99 Rev 1.
000017:


000019: 22,3773                                           BANK     22
000020: 10,2000                                           SETLOC   RTBCODES
000021: 10,2000                                           BANK
000022:
000023: 10,3573  E5,1664                                  EBANK=   XNB
000024: 10,3573                                           COUNT*   $$/RTB
000025:
000026:                                                                                                  #  LOAD TIME2, TIME1 INTO MPAC:
000027:
000028: 10,3573           00006        LOADTIME           EXTEND
000029: 10,3574           30025                           DCA      TIME2
000030: 10,3575           16055                           TCF      SLOAD2
000031:
000032:                                                                                                  #  CONVERT THE SINGLE PRECISION 2'S COMPLEMENT NUMBER ARRIVING IN MPAC (SCALED IN HALF-REVOLUTIONS) TO A
000033:                                                                                                  #  DP 1'S COMPLEMENT NUMBER SCALED IN REVOLUTIONS.
000034:
000035: 10,3576           10154        CDULOGIC           CCS      MPAC
000036: 10,3577           34755                           CAF      ZERO
000037: 10,3600           13603                           TCF      +3
000038: 10,3601           13602                           NOOP
000039: 10,3602           44736                           CS       HALF
000040:
000041: 10,3603           54155                           TS       MPAC       +1
000042: 10,3604           34755                           CAF      ZERO
000043: 10,3605           56154                           XCH      MPAC
000044: 10,3606           00006                           EXTEND
000045: 10,3607           74736                           MP       HALF
000046: 10,3610           20155                           DAS      MPAC
000047: 10,3611           16061                           TCF      DANZIG                                #  MODE IS ALREADY AT DOUBLE-PRECISION
000048:
000049:                                                                                                  #  FORCE TP SIGN AGREEMENT IN MPAC:
000050:
000051: 10,3612           07257        SGNAGREE           TC       TPAGREE
000052: 10,3613           16061                           TCF      DANZIG
000053:
000054:                                                                                                  #  CONVERT THE DP 1'S COMPLEMENT ANGLE SCALED IN REVOLUTIONS TO A SINGLE PRECISION 2'S COMPLEMENT ANGLE
000055:                                                                                                  #  SCALED IN HALF-REVOLUTIONS.
000056:
000057: 10,3614           03644        1STO2S             TC       1TO2SUB
000058: 10,3615           34755                           CAF      ZERO
000059: 10,3616           54155                           TS       MPAC       +1
000060: 10,3617           16060                           TCF      NEWMODE
000061:
000062:                                                                                                  #  DO 1STO2S ON A VECTOR OF ANGLES:
000063:
000064: 10,3620           03644        V1STO2S            TC       1TO2SUB                               #  ANSWER ARRIVES IN A AND MPAC.
000065:
000066: 10,3621           52162                           DXCH     MPAC       +5
000067: 10,3622           52155                           DXCH     MPAC
000068: 10,3623           03644                           TC       1TO2SUB


000070: 10,3624           54156                           TS       MPAC       +2
000071:
000072: 10,3625           52160                           DXCH     MPAC       +3
000073: 10,3626           52155                           DXCH     MPAC
000074: 10,3627           03644                           TC       1TO2SUB
000075: 10,3630           54155                           TS       MPAC       +1
000076:
000077: 10,3631           30161                           CA       MPAC       +5
000078: 10,3632           54154                           TS       MPAC
000079:
000080: 10,3633           34753        TPMODE             CAF      ONE                                   #  MODE IS TP.
000081: 10,3634           16060                           TCF      NEWMODE
000082:
000083:                                                                                                  #  V1STO2S FOR 2 COMPONENT VECTOR. USED BY RR.
000084:
000085: 10,3635           03644        2V1STO2S           TC       1TO2SUB
000086: 10,3636           52160                           DXCH     MPAC       +3
000087: 10,3637           52155                           DXCH     MPAC
000088: 10,3640           03644                           TC       1TO2SUB
000089: 10,3641           54001                           TS       L
000090: 10,3642           30157                           CA       MPAC       +3
000091: 10,3643           16055                           TCF      SLOAD2
000092:
000093:                                                                                                  #  SUBROUTINE TO DO DOUBLING AND 1'S TO 2'S CONVERSION:
000094:
000095: 10,3644           52155        1TO2SUB            DXCH     MPAC                                  #  FINAL MPAC +1 UNSPECIFIED.
000096: 10,3645           20001                           DDOUBL
000097: 10,3646           10000                           CCS      A
000098: 10,3647           64753                           AD       ONE
000099: 10,3650           13652                           TCF      +2
000100: 10,3651           40000                           COM                                            #  THIS WAS REVERSE OF MSU.
000101:
000102: 10,3652           54154                           TS       MPAC                                  #  AND SKIP ON OVERFLOW.
000103: 10,3653           00002                           TC       Q
000104:
000105: 10,3654           50000                           INDEX    A                                     #  OVERFLOW UNCORRECT AND IN MSU.
000106: 10,3655           34734                           CAF      LIMITS
000107: 10,3656           26154                           ADS      MPAC
000108: 10,3657           00002                           TC       Q
000109:
000110:                                                                                                  #  THE FOLLOWING ROUTINE INCREMENTS IN 2S COMPLEMENT THE REGISTER WHOSE ADDRESS IS IN BUF BY THE 1S COMPL.
000111:                                                                                                  #  QUANTITY FOUND IN TEM2.  THIS MAY BE USED TO INCREMENT DESIRED IMU AND OPTICS CDU ANGLES OR ANY OTHER 2S COMPL.
000112:                                                                                                  #  (+0 UNEQUAL TO -0) QUANTITY.  MAY BE CALLED BY BANKCALL/SWCALL.
000113:
000114: 10,3660           54142        CDUINC             TS       TEM2                                  #  1S COMPL.QUANT. ARRIVES IN ACC.  STORE IT
000115: 10,3661           50130                           INDEX    BUF
000116: 10,3662           10000                           CCS      0                                     #  CHANGE 2S COMPL. ANGLE(IN BUF)INTO 1S
000117: 10,3663           64753                           AD       ONE
000118: 10,3664           13670                           TCF      +4
000119: 10,3665           64753                           AD       ONE


000121: 10,3666           64753                           AD       ONE                                   #  OVERFLOW HERE IF 2S COMPL. IS 180 DEG.
000122: 10,3667           40000                           COM
000123:
000124: 10,3670           60142                           AD       TEM2                                  #  SULT MOVES FROM 2ND TO 3D QUAD. (OR BACK)
000125: 10,3671           10000                           CCS      A                                     #  BACK TO 2S COMPL.
000126: 10,3672           64753                           AD       ONE
000127: 10,3673           13675                           TCF      +2
000128: 10,3674           40000                           COM
000129: 10,3675           54142                           TS       TEM2                                  #  STORE 14BIT QUANTITY WITH PRESENT SIGN
000130: 10,3676           13702                           TCF      +4
000131: 10,3677           50000                           INDEX    A                                     #  SIGN.
000132: 10,3700           34734                           CAF      LIMITS                                #  FIX IT, BY ADDING IN 37777 OR 40000
000133: 10,3701           60142                           AD       TEM2
000134:
000135: 10,3702           50130                           INDEX    BUF
000136: 10,3703           54000                           TS       0                                     #  STORE NEW ANGLE IN 2S COMPLEMENT.
000137: 10,3704           00002                           TC       Q
000138:


000140:                                                                                                  #  RTB TO TORQUE GYROS, EXCEPT FOR THE CALL TO IMUSTALL.  ECADR OF COMMANDS ARRIVES IN X1.
000141:
000142: 10,3705           50120        PULSEIMU           INDEX    FIXLOC                                #  ADDRESS OF GYRO COMMANDS SHOULD BE IN X1
000143: 10,3706           30046                           CA       X1
000144: 10,3707           04616                           TC       BANKCALL
000145: 10,3710           17323                           CADR     IMUPULSE
000146: 10,3711           16061                           TCF      DANZIG
000147:


000149:                                                                                                  #  THE SUBROUTINE SIGNMPAC SETS C(MPAC, MPAC +1) TO SIGN(MPAC).
000150:                                                                                                  #  FOR THIS, ONLY THE CONTENTS OF MPAC ARE EXAMINED.  ALSO +0 YIELDS POSMAX AND -0 YIELDS NEGMAX.
000151:
000152:                                                                                                  #  ENTRY MAY BE BY EITHER OF THE FOLLOWING:
000153:                                                                                                  #        1.      LIMIT THE SIZE OF MPAC ON INTERPRETIVE OVERFLOW:
000154:                                                                                                  #                ENTRY:          BOVB
000155:                                                                                                  #                                        SIGNMPAC
000156:                                                                                                  #        2.      GENERATE IN MPAC THE SIGNUM FUNCTION OF MPAC:
000157:                                                                                                  #                ENTRY:          RTB
000158:                                                                                                  #                                        SIGNMPAC
000159:                                                                                                  #  IN EITHER CASE, RETURN IS TO THE NEXT INTERPRETIVE INSTRUCTION IN THE CALLING SEQUENCE.
000160:
000161: 10,3712           00006        SIGNMPAC           EXTEND
000162: 10,3713           34733                           DCA      DPOSMAX
000163: 10,3714           52155                           DXCH     MPAC
000164: 10,3715           10000                           CCS      A
000165: 10,3716           34755        DPMODE             CAF      ZERO                                  #  SETS MPAC +2 TO ZERO IN THE PROCESS
000166: 10,3717           16057                           TCF      SLOAD2     +2
000167: 10,3720           13721                           TCF      +1
000168: 10,3721           00006                           EXTEND
000169: 10,3722           44733                           DCS      DPOSMAX
000170: 10,3723           16055                           TCF      SLOAD2
000171:
000172:                                                                                                  #  RTB OP CODE NORMUNIT IS LIKE INTERPRETIVE INSTRUCTION UNIT, EXCEPT THAT IT CAN BE DEPENDED ON NOT TO BLOW
000173:                                                                                                  #  UP WHEN THE VECTOR BEING UNITIZED IS VERY SMALL -- IT WILL BLOW UP WHEN ALL COMPONENTS ARE ZERO.  IF NORMUNIT
000174:                                                                                                  #  IS USED AND THE UPPER ORDER HALVES OF ALL COMPONENTS ARE ZERO, THE MAGNITUDE RETURNED IN 36D WILL BE TOO LARGE
000175:                                                                                                  #  BY A FACTOR OF 2(13) AND THE SQUARED MAGNITUDE RETURNED AT 34D WILL BE TOO BIG BY A FACTOR OF 2(26).
000176:
000177: 10,3724           34753        NORMUNX1           CAF      ONE
000178: 10,3725           13727                           TCF      NORMUNIT   +1
000179: 10,3726           34755        NORMUNIT           CAF      ZERO
000180: 10,3727           60120                           AD       FIXLOC
000181: 10,3730           54156                           TS       MPAC       +2
000182: 10,3731           04616                           TC       BANKCALL                              #  GET SIGN AGREEMENT IN ALL COMPONENTS
000183: 10,3732           01010                           CADR     VECAGREE
000184: 10,3733           10154                           CCS      MPAC
000185: 10,3734           13770                           TCF      NOSHIFT
000186: 10,3735           13737                           TCF      +2
000187: 10,3736           13770                           TCF      NOSHIFT
000188: 10,3737           10157                           CCS      MPAC       +3
000189: 10,3740           13770                           TCF      NOSHIFT
000190: 10,3741           13743                           TCF      +2
000191: 10,3742           13770                           TCF      NOSHIFT
000192: 10,3743           10161                           CCS      MPAC       +5
000193: 10,3744           13770                           TCF      NOSHIFT
000194: 10,3745           13747                           TCF      +2
000195: 10,3746           13770                           TCF      NOSHIFT


000197: 10,3747           30155                           CA       MPAC       +1                         #  SHIFT ALL COMPONENTS LEFT 13
000198: 10,3750           00006                           EXTEND
000199: 10,3751           74736                           MP       BIT14
000200: 10,3752           20155                           DAS      MPAC                                  #  DAS GAINS A LITTLE ACCURACY
000201: 10,3753           30160                           CA       MPAC       +4
000202: 10,3754           00006                           EXTEND
000203: 10,3755           74736                           MP       BIT14
000204: 10,3756           20160                           DAS      MPAC       +3
000205: 10,3757           30162                           CA       MPAC       +6
000206: 10,3760           00006                           EXTEND
000207: 10,3761           74736                           MP       BIT14
000208: 10,3762           20162                           DAS      MPAC       +5
000209: 10,3763           34761                           CAF      THIRTEEN
000210: 10,3764           50156                           INDEX    MPAC       +2
000211: 10,3765           54045                           TS       37D
000212: 10,3766           04635        OFFTUNIT           TC       POSTJUMP
000213: 10,3767           01024                           CADR     UNIT       +1                         #  SKIP THE "TC VECAGREE" DONE AT UNIT
000214:
000215: 10,3770           34755        NOSHIFT            CAF      ZERO
000216: 10,3771           13764                           TCF      OFFTUNIT   -2
000217:
000218:                                                                                                  #  RTB VECSGNAG ... FORCES SIGN AGREEMENT OF VECTOR IN MPAC.
000219:
000220: 10,3772           04616        VECSGNAG           TC       BANKCALL
000221: 10,3773           01010                           CADR     VECAGREE
000222: 10,3774           06061                           TC       DANZIG
000223:
000224:

End of include-file RTB_OP_CODES.agc.  Parent file is MAIN.agc


