
Source Code


000002:                                                                                                  ## Copyright:   Public domain.
000003:                                                                                                  ## Filename:    S-BAND_ANTENNA_FOR_LM.agc
000004:                                                                                                  ## Purpose:     Part of the source code for Luminary 1A build 099.
000005:                                                                                                  ##              It is part of the source code for the Lunar Module's (LM)
000006:                                                                                                  ##              Apollo Guidance Computer (AGC), for Apollo 11.
000007:                                                                                                  ## Assembler:   yaYUL
000008:                                                                                                  ## Contact:     Ron Burkey <info@sandroid.org>.
000009:                                                                                                  ## Website:     www.ibiblio.org/apollo.
000010:                                                                                                  ## Pages:       486-489
000011:                                                                                                  ## Mod history: 2009-05-17 RSB  Adapted from the corresponding
000012:                                                                                                  ##                              Luminary131 file, using page
000013:                                                                                                  ##                              images from Luminary 1A.
000014:                                                                                                  ##              2009-06-07 RSB  Corrected a misprint.
000015:                                                                                                  ##              2016-12-14 RSB  Proofed text comments with octopus/ProoferComments
000016:                                                                                                  ##                              and corrected the errors found.
000017:                                                                                                  ##              2017-03-03 RSB  Snapshot of Luminary 99 Rev 1.
000018:


000020:                                                                                                  #  SUBROUTINE NAME: R05 - S-BAND ANTENNA FOR LM
000021:
000022:                                                                                                  #  MOD0 BY T. JAMES
000023:                                                                                                  #  MOD1 BY P. SHAKIR
000024:
000025:                                                                                                  #  FUNCTIONAL DESCRIPTION
000026:
000027:                                                                                                  #  THE S-BAND ANTENNA ROUTINE, R05, COMPUTES AND DISPLAYS THE PITCH AND
000028:                                                                                                  #  YAW ANTENNA GIMBAL ANGLES REQUIRED TO POINT THE LM STEERABLE ANTENNA
000029:                                                                                                  #  TOWARD THE CENTER OF THE EARTH.  THIS ROUTINE IS SELECTED BY THE ASTRO-
000030:                                                                                                  #  NAUT VIA DSKY ENTRY DURING COASTING FLIGHT OR WHEN THE LM IS ON THE MOON
000031:                                                                                                  #  SURFACE.  THE EARTH OR MOON REFERENCE COORDINATE SYSTEM IS USED DEPENDING
000032:                                                                                                  #  ON WHETHER THE LM IS ABOUT TO ENTER OR HAS ALREADY ENTERED THE MOON
000033:                                                                                                  #  SPHERE OF INFLUENCE, RESPECTIVELY
000034:
000035:                                                                                                  #  TO CALL SUBROUTINE, ASTRONAUT KEYS IN V 64 E
000036:
000037:                                                                                                  #  SUBROUTINES CALLED -
000038:                                                                                                  #        R02BOTH
000039:                                                                                                  #        INTPRET
000040:                                                                                                  #        LOADTIME
000041:                                                                                                  #        LEMCONIC
000042:                                                                                                  #        LUNPOS
000043:                                                                                                  #        CDUTRIG
000044:                                                                                                  #        *SMNB*
000045:                                                                                                  #        BANKCALL
000046:                                                                                                  #        B5OFF
000047:                                                                                                  #        ENDOFJOB
000048:                                                                                                  #        BLANKET
000049:
000050:                                                                                                  #  RETURNS WITH
000051:                                                                                                  #        PITCH ANGLE IN PITCHANG         REV. B0
000052:                                                                                                  #        YAW ANGLE IN YAWANG             REV. B0
000053:
000054:                                                                                                  #  ERASABLES USED
000055:                                                                                                  #        PITCHANG
000056:                                                                                                  #        YAWANG
000057:                                                                                                  #        RLM
000058:                                                                                                  #        VAC AREA
000059:
000060: 41,3731                                           BANK     41
000061: 42,2000                                           SETLOC   SBAND
000062: 42,2000                                           BANK
000063:
000064: 42,3606  E7,1471                                  EBANK=   WHOCARES
000065: 42,3606                                           COUNT*   $$/R05
000066: 42,3606           04616        SBANDANT           TC       BANKCALL


000068: 42,3607           11254                           CADR     R02BOTH                               #  CHECK IF IMU IS ON AND ALIGNED
000069: 42,3610           06037                           TC       INTPRET
000070: 42,3611           47001                           SETPD    RTB
000071: 42,3612           00001                                    0D
000072: 42,3613           21573                                    LOADTIME                              #  PICK UP CURRENT TIME
000073: 42,3614           34041                           STCALL   TDEC1                                 #  ADVANCE INTEGRATION TO TIME IN TDEC1
000074: 42,3615           27100                                    LEMCONIC                              #  USING CONIC INTEGRATION
000075: 42,3616           46135                           SLOAD    BHIZ
000076: 42,3617           00050                                    X2                                    #  X2 =0 EARTH SPHERE, X2 =2 MOON SPHERE
000077: 42,3620           65636                                    CONV4
000078: 42,3621           77775                           VLOAD
000079: 42,3622           00001                                    RATT
000080: 42,3623           16205                           STODL    RLM
000081: 42,3624           00015                                    TAT
000082: 42,3625           77624        CONV3              CALL
000083: 42,3626           33664                                    LUNPOS                                #  UNIT POSITION VECTOR FROM EARTH TO MOON
000084: 42,3627           74375                           VLOAD    VXSC
000085: 42,3630           02723                                    VMOON
000086: 42,3631           24001                                    REMDIST                               #  MEAN DISTANCE FROM EARTH TO MOON
000087: 42,3632           53372                           VSL1     VAD
000088: 42,3633           02205                                    RLM
000089: 42,3634           77650                           GOTO
000090: 42,3635           65640                                    CONV5
000091: 42,3636           77775        CONV4              VLOAD
000092: 42,3637           00001                                    RATT                                  #  UE = -UNIT(RATT)              EARTH SPHERE
000093: 42,3640           53401        CONV5              SETPD    UNIT                                  #  UE = -UNIT((REM)(UEM) + RL)   MOON SPHERE
000094: 42,3641           00001                                    0D                                    #  SET PL POINTER TO 0
000095: 42,3642           45076                           VCOMP    CALL
000096: 42,3643           47537                                    CDUTRIG                               #  COMPUTE SINES AND COSINES OF CDU ANGLES
000097: 42,3644           76521                           MXV      VSL1                                  #  TRANSFORM REF. COORDINATE SYSTEM TO
000098: 42,3645           01734                                    REFSMMAT                              #  STABLE MEMBER B-1 X B-1 X B+1 = B-1
000099: 42,3646           71206                           PUSH     DLOAD                                 #  8D
000100: 42,3647           06522                                    HI6ZEROS
000101: 42,3650           02201                           STORE    PITCHANG
000102: 42,3651           26203                           STOVL    YAWANG                                #  ZERO OUT ANGLES
000103: 42,3652           77624                           CALL
000104: 42,3653           47671                                    *SMNB*
000105: 42,3654           16205                           STODL    RLM                                   #  PRE-MULTIPLY RLM BY (NBSA) MATRIX(B0)
000106: 42,3655           02207                                    RLM        +2
000107: 42,3656           45206                           PUSH     DSU
000108: 42,3657           02205                                    RLM
000109: 42,3660           77605                           DMP
000110: 42,3661           25771                                    1OVSQRT2
000111: 42,3662           16207                           STODL    RLM        +2
000112: 42,3663           41215                           DAD      DMP
000113: 42,3664           02205                                    RLM
000114: 42,3665           25771                                    1OVSQRT2
000115: 42,3666           26205                           STOVL    RLM                                   #  R B-1
000116: 42,3667           02205                                    RLM
000117: 42,3670           63256                           UNIT     PDVL


000119: 42,3671           02205                                    RLM
000120: 42,3672           72431                           VPROJ    VSL2                                  #  PROJECTION OF R ONTO LM XZ PLANE
000121: 42,3673           06516                                    HIUNITY
000122: 42,3674           40045                           BVSU     BOV                                   #  CLEAR OVERFLOW INDICATOR IF ON
000123: 42,3675           02205                                    RLM
000124: 42,3676           65677                                    COVCNV
000125: 42,3677           40056        COVCNV             UNIT     BOV                                   #  EXIT ON OVERFLOW
000126: 42,3700           65745                                    SBANDEX
000127: 42,3701           47206                           PUSH     VXV                                   #  URP VECTOR B-1
000128: 42,3702           06514                                    HIUNITZ
000129: 42,3703           57572                           VSL1     VCOMP                                 #  UZ X URP = -(URP X UZ)
000130: 42,3704           02205                           STORE    RLM                                   #  X VEC B-1
000131: 42,3705           63241                           DOT      PDVL                                  #  SGN(X.UY) UNSCALED
000132: 42,3706           06516                                    HIUNITY
000133: 42,3707           02205                                    RLM
000134: 42,3710           75246                           ABVAL    SIGN
000135: 42,3711           77736                           ASIN                                           #  ASIN((SGN(X.UY))ABV(X))       REV B0
000136: 42,3712           26201                           STOVL    PITCHANG
000137: 42,3713           00007                                    URP
000138: 42,3714           51041                           DOT      BPL
000139: 42,3715           06514                                    HIUNITZ
000140: 42,3716           65723                                    NOADJUST                              #  YES, -90 TO +90
000141: 42,3717           45345                           DLOAD    DSU
000142: 42,3720           06520                                    HIDPHALF
000143: 42,3721           02201                                    PITCHANG
000144: 42,3722           02201                           STORE    PITCHANG
000145: 42,3723           47375        NOADJUST           VLOAD    VXV
000146: 42,3724           00001                                    UR                                    #  Z = (UR X URP)
000147: 42,3725           00007                                    URP
000148: 42,3726           77772                           VSL1
000149: 42,3727           16205                           STODL    RLM                                   #  Z VEC B-1
000150: 42,3730           02201                                    PITCHANG
000151: 42,3731           74356                           SIN      VXSC
000152: 42,3732           06514                                    HIUNITZ
000153: 42,3733           71525                           PDDL     COS
000154: 42,3734           02201                                    PITCHANG
000155: 42,3735           52361                           VXSC     VSU
000156: 42,3736           06520                                    HIUNITX                               #  (UX COS ALPHA) - (UZ SIN ALPHA)
000157: 42,3737           63241                           DOT      PDVL                                  #  YAW.Z
000158: 42,3740           02205                                    RLM
000159: 42,3741           02205                                    RLM
000160: 42,3742           75246                           ABVAL    SIGN
000161: 42,3743           77736                           ASIN
000162: 42,3744           02203                           STORE    YAWANG
000163: 42,3745           77776        SBANDEX            EXIT
000164: 42,3746           31044                           CA       EXTVBACT
000165: 42,3747           74747                           MASK     BIT5                                  #  IS BIT5 STILL ON
000166: 42,3750           00006                           EXTEND
000167: 42,3751           15472                           BZF      ENDEXT                                #  NO
000168: 42,3752           35017                           CAF      PRIO5


000170: 42,3753           05146                           TC       PRIOCHNG
000171: 42,3754           33767                           CAF      V06N51                                #  DISPLAY ANGLES
000172: 42,3755           04616                           TC       BANKCALL
000173: 42,3756           20353                           CADR     GOMARKFR
000174: 42,3757           05563                           TC       B5OFF                                 #  TERMINATE
000175: 42,3760           05563                           TC       B5OFF                                 #  PROCEED
000176: 42,3761           05155                           TC       ENDOFJOB                              #  RECYCLE
000177: 42,3762           34751                           CAF      BIT3                                  #  IMMEDIATE RETURN
000178: 42,3763           05464                           TC       BLANKET                               #  BLANK R3
000179: 42,3764           34740                           CAF      PRIO4
000180: 42,3765           05146                           TC       PRIOCHNG
000181: 42,3766           03610                           TC       SBANDANT   +2                         #  YES, CONTINUE DISPLAYING ANGLES
000182: 42,3767           01463        V06N51             VN       0651
000183: 42,3770           26501 07463  1OVSQRT2           2DEC     .7071067815                            #  1/SQRT(2)
000184:
000185: 42,3772                        UR                 EQUALS   0D
000186: 42,3772                        URP                EQUALS   6D
000187: 42,3772  30,2000                                  SBANK=   LOWSUPER
000188:

End of include-file S-BAND_ANTENNA_FOR_LM.agc.  Parent file is MAIN.agc


