
Source Code


000002:                                                                                                  ## Copyright:   Public domain.
000003:                                                                                                  ## Filename:    SINGLE_PRECISION_SUBROUTINES.agc
000004:                                                                                                  ## Purpose:     Part of the source code for Luminary 1A build 099.
000005:                                                                                                  ##              It is part of the source code for the Lunar Module's (LM)
000006:                                                                                                  ##              Apollo Guidance Computer (AGC), for Apollo 11.
000007:                                                                                                  ## Assembler:   yaYUL
000008:                                                                                                  ## Contact:     Ron Burkey <info@sandroid.org>.
000009:                                                                                                  ## Website:     www.ibiblio.org/apollo.
000010:                                                                                                  ## Pages:       1102
000011:                                                                                                  ## Mod history: 2009-05-25 RSB  Adapted from the corresponding
000012:                                                                                                  ##                              Luminary131 file, using page
000013:                                                                                                  ##                              images from Luminary 1A.
000014:                                                                                                  ##              2010-12-31 JL   Fixed page number comment.
000015:                                                                                                  ##              2016-12-17 RSB  Proofed text comments with octopus/ProoferComments
000016:                                                                                                  ##                              and corrected the errors found.
000017:                                                                                                  ##              2017-03-03 RSB  Snapshot of Luminary 99 Rev 1.
000018:


000020:    5032                                           BLOCK    02
000021:
000022:                                                                                                  #  SINGLE PRECISION SINE AND COSINE
000023:
000024:    5032                                           COUNT*   $$/INTER
000025:    5032           64736        SPCOS              AD       HALF                                  #  ARGUMENTS SCALED AT PI
000026:    5033           55076        SPSIN              TS       TEMK
000027:    5034           15036                           TCF      SPT
000028:    5035           41076                           CS       TEMK
000029:    5036           60000        SPT                DOUBLE
000030:    5037           55076                           TS       TEMK
000031:    5040           15051                           TCF      POLLEY
000032:    5041           57076                           XCH      TEMK
000033:    5042           51076                           INDEX    TEMK
000034:    5043           64734                           AD       LIMITS
000035:    5044           40000                           COM
000036:    5045           61076                           AD       TEMK
000037:    5046           55076                           TS       TEMK
000038:    5047           15051                           TCF      POLLEY
000039:    5050           15067                           TCF      ARG90
000040:    5051           00006        POLLEY             EXTEND
000041:    5052           71076                           MP       TEMK
000042:    5053           55077                           TS       SQ
000043:    5054           00006                           EXTEND
000044:    5055           75005                           MP       C5/2
000045:    5056           67737                           AD       C3/2
000046:    5057           00006                           EXTEND
000047:    5060           71077                           MP       SQ
000048:    5061           67717                           AD       C1/2
000049:    5062           00006                           EXTEND
000050:    5063           71076                           MP       TEMK
000051:    5064           20001                           DDOUBL
000052:    5065           55076                           TS       TEMK
000053:    5066           00002                           TC       Q
000054:    5067           50000        ARG90              INDEX    A
000055:    5070           44734                           CS       LIMITS
000056:    5071           00002                           TC       Q                                     #  RESULT SCALED AT 1
000057:
000058:

End of include-file SINGLE_PRECISION_SUBROUTINES.agc.  Parent file is MAIN.agc


