
Source Code


000002:                                                                                                  ## Copyright:   Public domain.
000003:                                                                                                  ## Filename:    SYSTEM_TEST_STANDARD_LEAD_INS.agc
000004:                                                                                                  ## Purpose:     Part of the source code for Luminary 1A build 099.
000005:                                                                                                  ##              It is part of the source code for the Lunar Module's (LM)
000006:                                                                                                  ##              Apollo Guidance Computer (AGC), for Apollo 11.
000007:                                                                                                  ## Assembler:   yaYUL
000008:                                                                                                  ## Contact:     Ron Burkey <info@sandroid.org>.
000009:                                                                                                  ## Website:     www.ibiblio.org/apollo.
000010:                                                                                                  ## Pages:       370-372
000011:                                                                                                  ## Mod history: 2009-05-17 RSB  Adapted from the corresponding
000012:                                                                                                  ##                              Luminary131 file, using page
000013:                                                                                                  ##                              images from Luminary 1A.
000014:                                                                                                  ##              2016-12-14 RSB  Proofed text comments with octopus/ProoferComments
000015:                                                                                                  ##                              and corrected the errors found.
000016:                                                                                                  ##              2017-03-03 RSB  Snapshot of Luminary 99 Rev 1.
000017:                                                                                                  ##              2017-03-07 RSB  Comment-text fixes noted in proofing Luminary 116.
000018:


000020: 22,3242  E5,1642                                  EBANK=   XSM
000021:
000022: 33,2045                                           BANK     33
000023: 04,2000                                           SETLOC   E/PROG
000024: 04,2000                                           BANK
000025:
000026: 04,2576                                           COUNT*   $$/P07
000027:
000028:                                                                                                  #  SPECIAL PROGRAMS TO EASE THE PANGS OF ERASABLE MEMORY PROGRAMS.
000029:
000030:                                                                                                  #  E/BKCALL      FOR DOING BANKCALLS FROM AND RETURNING TO ERASABLE.
000031:
000032:                                                                                                  #  THIS ROUTINE IS CALLABLE FROM ERASABLE OR FIXED.  LIKE BANKCALL, HOWEVER, SWITCHING BETWEEN S3 AND S4
000033:                                                                                                  #  IS NOT POSSIBLE.
000034:
000035:                                                                                                  #  THE CALLING SEQUENCE IS:
000036:
000037:                                                                                                  #        TC      BANKCALL
000038:                                                                                                  #        CADR    E/BKCALL
000039:                                                                                                  #        CADR    ROUTINE         WHERE YOU WANT TO GO IN FIXED.
000040:                                                                                                  #        RETURN HERE FROM DISPLAY TERMINATE, BAD STALL OR TC Q.
000041:                                                                                                  #        RETURN HERE FROM DISPLAY PROCEED OR GOOD RETURN FROM STALL.
000042:                                                                                                  #        RETURN HERE FROM DISPLAY ENTER OR RECYCLE.
000043:
000044:                                                                                                  #  THIS ROUTINE REQUIRES TWO ERASABLES (EBUF2, +1) IN UNSWITCHED WHICH ARE UNSHARED BY INTERRUPTS AND
000045:                                                                                                  #  OTHER EMEMORY PROGRAMS.
000046:
000047:                                                                                                  #  A + L ARE PRESERVED THROUGH BANKCALL AND E/BKCALL.
000048:
000049: 04,2576           52134        E/BKCALL           DXCH     BUF2                                  #  SAVE A,L AND GET DP RETURN.
000050: 04,2577           53170                           DXCH     EBUF2                                 #  SAVE DP RETURN.
000051: 04,2600           25167                           INCR     EBUF2                                 #  RETURN +1 BECAUSE DOUBLE CADR.
000052: 04,2601           30006                           CA       BBANK
000053: 04,2602           75012                           MASK     LOW10                                 #  GET CURRENT EBANK.  (SBANK SOMEDAY)
000054: 04,2603           27170                           ADS      EBUF2      +1                         #  FORM BBCON.  (WAS FBANK)
000055: 04,2604           51167                           NDX      EBUF2
000056: 04,2605           27777                           CA       0          -1                         #  GET CADR OF ROUTINE.
000057: 04,2606           04622                           TC       SWCALL                                #  GO TO ROUTINE, SETTING Q TO SWRETURN
000058:                                                                                                  #  AND RESTORING A + L.
000059: 04,2607           02613                           TC       +4                                    #  TX Q, V34, OR BAD STALL RETURN.
000060: 04,2610           02612                           TC       +2                                    #  PROCEED OR GOOD STALL RETURN.
000061: 04,2611           25167                           INCR     EBUF2                                 #  ENTER OR RECYCLE RETURN.
000062: 04,2612           25167                           INCR     EBUF2
000063: 04,2613           53170        E/SWITCH           DXCH     EBUF2
000064: 04,2614           52006                           DTCB
000065:


000067:                                                                                                  #  E/CALL        FOR CALLING A FIXED MEMORY INTERPRETIVE SUBROUTINE FROM ERASABLE AND RETURNING TO ERASABLE.
000068:
000069:                                                                                                  #  THE CALLING SEQUENCE IS...
000070:
000071:                                                                                                  #        RTB
000072:                                                                                                  #                E/CALL
000073:                                                                                                  #        CADR    ROUTINE                 THE INTERPRETIVE SUBROUTINE YOU WANT.
000074:                                                                                                  #                                        RETURNS HERE IN INTERPRETIVE.
000075:
000076: 04,2615           22164        E/CALL             LXCH     LOC                                   #  ADRES -1 OF CADR.
000077: 04,2616           50001                           INDEX    L
000078: 04,2617           30001                           CA       L                                     #  CADR IN A.
000079: 04,2620           24001                           INCR     L
000080: 04,2621           24001                           INCR     L                                     #  RETURN ADRES IN L.
000081: 04,2622           53170                           DXCH     EBUF2                                 #  STORE CADR AND RETURN.
000082: 04,2623           06037                           TC       INTPRET
000083: 04,2624           77624                           CALL
000084: 04,2625           01167                                    EBUF2                                 #  INDIRECTLY EXECUTE ROUTINE.  IT MUST
000085: 04,2626           77776                           EXIT                                           #  LEAVE VIA RVQ OR EQUIVALENT.
000086: 04,2627           23170                           LXCH     EBUF2      +1                         #  PICK UP RETURN.
000087: 04,2630           16041                           TCF      INTPRET    +2                         #  SET LOC AND RETURN TO CALLER.
000088:


000090:                                                                                                  #  E/JOBWAK      FOR WAKING UP ERASABLE MEMORY JOBS.
000091:
000092:                                                                                                  #  THIS ROUTINE MUST BE CALLED IN INTERRUPT OR WITH INTERRUPTS INHIBITED.
000093:
000094:                                                                                                  #  THE CALLING SEQUENCE IS:
000095:
000096:                                                                                                  #        INHINT
000097:                                                                                                  #          .
000098:                                                                                                  #          .
000099:                                                                                                  #        CA      WAKEADR         ADDRESS OF SLEEPING JOB
000100:                                                                                                  #        TC      IBNKCALL
000101:                                                                                                  #        CADR    E/JOBWAK
000102:                                                                                                  #          .                     RETURNS HERE
000103:                                                                                                  #          .
000104:                                                                                                  #          .
000105:                                                                                                  #        RELINT                  IF YOU DID AN INHINT.
000106:
000107: 33,2045                                           BANK     33
000108: 04,2000                                           SETLOC   E/PROG
000109: 04,2000                                           BANK
000110:
000111: 04,2631                                           COUNT*   $$/P07
000112:
000113: 04,2631           05137        E/JOBWAK           TC       JOBWAKE                               #  ARRIVE IWTH ADRES IN A.
000114: 04,2632           44741                           CS       BIT11
000115: 04,2633           50064                           NDX      LOCCTR
000116: 04,2634           26164                           ADS      LOC                                   #  KNOCK FIXED MEMORY BIT OUT OF ADRES.
000117: 04,2635           00072                           TC       RUPTREG3                              #  RETURN
000118:

End of include-file SYSTEM_TEST_STANDARD_LEAD_INS.agc.  Parent file is MAIN.agc


