
Source Code


000002:                                                                                                  ## Copyright:   Public domain.
000003:                                                                                                  ## Filename:    T6-RUPT_PROGRAMS.agc
000004:                                                                                                  ## Purpose:     Part of the source code for Luminary 1A build 099.
000005:                                                                                                  ##              It is part of the source code for the Lunar Module's (LM)
000006:                                                                                                  ##              Apollo Guidance Computer (AGC), for Apollo 11.
000007:                                                                                                  ## Assembler:   yaYUL
000008:                                                                                                  ## Contact:     Ron Burkey <info@sandroid.org>.
000009:                                                                                                  ## Website:     www.ibiblio.org/apollo.
000010:                                                                                                  ## Pages:       1403-1405
000011:                                                                                                  ## Mod history: 2009-05-10 SN   (Sergio Navarro).  Started adapting
000012:                                                                                                  ##                              from the Luminary131/ file of the same
000013:                                                                                                  ##                              name, using Luminary099 page images.
000014:                                                                                                  ##              2016-12-18 RSB  Proofed text comments with octopus/ProoferComments
000015:                                                                                                  ##                              and corrected the errors found.
000016:                                                                                                  ##              2017-03-03 RSB  Snapshot of Luminary 99 Rev 1.
000017:                                                                                                  ##              2017-08-29 MAS  Fixed a comment-text error found while transcribing ##                          Zerlina 56.
000018:


000020:                                                                                                  #  PROGRAM NAMES:        (1) T6JOBCHK    MOD. NO. 5      OCTOBER 2, 1967
000021:                                                                                                  #                        (2) DOT6RUPT
000022:                                                                                                  #  MODIFICATION BY:      LOWELL G HULL (A.C.ELECTRONICS)
000023:
000024:                                                                                                  #  THESE PROGRAMS ENABLE THE LM DAP TO CONTROL THE THRUST TIMES OF THE REACTION CONTROL SYSTEM JETS BY USING TIME6.
000025:                                                                                                  #  SINCE THE LM DAP MAINTAINS EXCLUSIVE CONTROL OVER TIME6 AND ITS INTERRUPTS, THE FOLLOWING CONVENTIONS HAVE BEEN
000026:                                                                                                  #  ESTABLISHED AND MUST NOT BE TAMPERED WITH:
000027:                                                                                                  #        1.      NO NUMBER IS EVER PLACED INTO TIME6 EXCEPT BY LM DAP.
000028:                                                                                                  #        2.      NO PROGRAM OTHER THAN LM DAP ENABLES THE TIME6 COUNTER.
000029:                                                                                                  #        3.      TO USE TIME6, THE FOLLOWING SEQUENCE IS ALWAYS EMPLOYED:
000030:                                                                                                  #                A.      A POSITIVE (NON-ZERO) NUMBER IS STORED IN TIME6.
000031:                                                                                                  #                B.      THE TIME6 CLOCK IS ENABLED.
000032:                                                                                                  #                C.      TIME6 IS INTERROGATED AND IS:
000033:                                                                                                  #                        I.      NEVER FOUND NEGATIVE (NON-ZERO) OR +0.
000034:                                                                                                  #                        II.     SOMETIMES FOUND POSITIVE (BETWEEN 1 AND 240D) INDICATING THAT IT IS ACTIVE.
000035:                                                                                                  #                        III.    SOMETIMES FOUND POSMAX INDICATING THAT IT IS INACTIVE AND NOT ENABLED.
000036:                                                                                                  #                        IV.     SOMETIMES FOUND NEGATIVE ZERO INDICATING THAT:
000037:                                                                                                  #                                A.      A T6RUPT IS ABOUT TO OCCUR AT THE NEXT DINC, OR
000038:                                                                                                  #                                B.      A T6RUPT IS WAITING IN THE PRIORITY CHAIN, OR
000039:                                                                                                  #                                C.      A T6RUPT IS IN PROCESS NOW.
000040:                                                                                                  #        4)      ALL PROGRAMS WHICH OPERATE IN EITHER INTERRUPT MODE OR WITH INTERRUPT INHIBITED MUST CALL T6JOBCHK
000041:                                                                                                  #                EVERY 5 MILLISECONDS TO PROCESS A POSSIBLE WAITING T6RUPT BEFORE IT CAN BE HONORED BY THE HARDWARE.
000042:                                                                                                  #       (5.      PROGRAM JTLST, IN Q,R-AXES, HANDLES THE INPUT LIST.)
000043:
000044:                                                                                                  #  T6JOBCHK CALLING SEQUENCE:
000045:                                                                                                  #                L       TC      T6JOBCHK
000046:                                                                                                  #                L+1     (RETURN)
000047:
000048:                                                                                                  #  DOT6RUPT CALLING SEQUENCE:
000049:                                                                                                  #                        DXCH    ARUPT           T6RUPT LEAD IN AT LOCATION 4004.
000050:                                                                                                  #                        EXTEND
000051:                                                                                                  #                        DCA     T6ADR
000052:                                                                                                  #                        DTCB
000053:
000054:                                                                                                  #  SUBROUTINES CALLED:   DOT6RUPT CALLS T6JOBCHK.
000055:
000056:                                                                                                  #  NORMAL EXIT MODES:    T6JOBCHK RETURNS TO L +1.
000057:                                                                                                  #                        DOT6RUPT TRANSFERS CONTROL TO RESUME.
000058:
000059:                                                                                                  #  ALARM/ABORT MODES:    NONE.
000060:
000061:                                                                                                  #  INPUT:        TIME6           NXT6ADR         OUTPUT:         TIME6           NXT6ADR         CHANNEL 5
000062:                                                                                                  #                T6NEXT          T6NEXT +1                       T6NEXT          T6NEXT +1       CHANNEL 6
000063:                                                                                                  #                T6FURTHA        T6FURTHA +1                     T6FURTHA        T6FURTHA +1     BIT15/CH13
000064:
000065:                                                                                                  #  DEBRIS:       T6JOBCHK CLOBBERS A.  DOT6RUPT CLOBBERS NOTHING.
000066:
000067:    5753                                           BLOCK    02


000069: 17,2027                                           BANK     17
000070: 17,2000                                           SETLOC   DAPS2
000071: 17,2000                                           BANK
000072: 17,2027  E6,1466                                  EBANK=   T6NEXT
000073: 17,2027                                           COUNT*   $$/DAPT6
000074:
000075: 17,2027           10031        T6JOBCHK           CCS      TIME6                                 #  CHECK TIME6 FOR WAITING T6RUPT:
000076: 17,2030           00002                           TC       Q                                     #  NONE: CLOCK COUTING DOWN.
000077: 17,2031           05705                           TC       CCSHOLE
000078: 17,2032           02032                           TC       T6JOBCHK   +3
000079:
000080:                                                                                                  #  CONTROL PASSES TO T6JOB ONLY WHEN C(TIME6) = -0 (I.E. WHEN A T6RUPT MUST BE PROCESSED).
000081:
000082: 17,2033           34733        T6JOB              CAF      POSMAX                                #  DISABLE CLOCK: NEEDED SINCE RUPT OCCURS
000083: 17,2034           00006                           EXTEND                                         #  1 DINC AFTER T6 = 77777. FOR 625 MUSECS
000084: 17,2035           03013                           WAND     CHAN13                                #  MUST NOT HAVE T6 = +0 WITH ENABLE SET
000085:
000086: 17,2036           34733                           CA       POSMAX
000087: 17,2037           22007                           ZL
000088: 17,2040           53471                           DXCH     T6FURTHA
000089: 17,2041           53467                           DXCH     T6NEXT
000090: 17,2042           23465                           LXCH     NXT6ADR
000091: 17,2043           54031                           TS       TIME6
000092:
000093: 17,2044           67725                           AD       PRIO37
000094: 17,2045           54000                           TS       A
000095: 17,2046           12052                           TCF      ENABLET6
000096: 17,2047           34733                           CA       POSMAX
000097: 17,2050           54031                           TS       TIME6
000098: 17,2051           12063                           TCF      GOCH56
000099: 17,2052           34735        ENABLET6           CA       BIT15
000100: 17,2053           00006                           EXTEND
000101: 17,2054           05013                           WOR      CHAN13
000102: 17,2055           31466                           CA       T6NEXT
000103: 17,2056           67725                           AD       PRIO37
000104: 17,2057           54000                           TS       A
000105: 17,2060           12063                           TCF      GOCH56
000106: 17,2061           34733                           CA       POSMAX
000107: 17,2062           55466                           TS       T6NEXT
000108: 17,2063           50001        GOCH56             INDEX    L
000109: 17,2064           15753                           TCF      WRITEP     -1
000110:
000111:    5753                                           BLOCK    02
000112:    4000                                           SETLOC   FFTAG9
000113:    4000                                           BANK
000114:    5753  E6,1635                                  EBANK=   CDUXD
000115:    5753                                           COUNT*   $$/DAPT6
000116:
000117:    5753           31472                           CA       NEXTP
000118:    5754           00006        WRITEP             EXTEND
000119:    5755           01006                           WRITE    CHAN6


000121:    5756           00002                           TC       Q
000122:
000123:    5757           31473                           CA       NEXTU
000124:    5760           54001        WRITEU             TS       L
000125:    5761           45774                           CS       00314OCT
000126:    5762           00006                           EXTEND
000127:    5763           02005                           RAND     CHAN5
000128:    5764           60001                           AD       L
000129:    5765           00006                           EXTEND
000130:    5766           01005                           WRITE    CHAN5
000131:    5767           00002                           TC       Q
000132:
000133:    5770           31474                           CA       NEXTV
000134:    5771           54001        WRITEV             TS       L
000135:    5772           35774                           CA       00314OCT
000136:    5773           15762                           TCF      -9D
000137:    5774           00314        00314OCT           OCT      00314
000138:
000139: 17,2065                                           BANK     17
000140: 17,2000                                           SETLOC   DAPS2
000141: 17,2000                                           BANK
000142:
000143: 17,2065  E6,1466                                  EBANK=   T6NEXT
000144: 17,2065                                           COUNT*   $$/DAPT6
000145:
000146: 17,2065           22016        DOT6RUPT           LXCH     BANKRUPT                              #  (INTERRUPT LEAD INS CONTINUED)
000147: 17,2066           00006                           EXTEND
000148: 17,2067           22012                           QXCH     QRUPT
000149:
000150: 17,2070           02027                           TC       T6JOBCHK                              #  CALL T6JOBCHK.
000151:
000152: 17,2071           15270                           TCF      RESUME                                #  END TIME6 INTERRUPT PROCESSOR.
000153:

End of include-file T6-RUPT_PROGRAMS.agc.  Parent file is MAIN.agc


