
Source Code


000002:                                                                                                  ## Copyright:   Public domain.
000003:                                                                                                  ## Filename:    TAGS_FOR_RELATIVE_SETLOC.agc
000004:                                                                                                  ## Purpose:     Part of the source code for Luminary 1A build 099.
000005:                                                                                                  ##              It is part of the source code for the Lunar Module's (LM)
000006:                                                                                                  ##              Apollo Guidance Computer (AGC), for Apollo 11.
000007:                                                                                                  ##
000008:                                                                                                  ## Assembler:   yaYUL
000009:                                                                                                  ## Contact:     Jim Lawton <jim.lawton@gmail.com>
000010:                                                                                                  ## Website:     www.ibiblio.org/apollo.
000011:                                                                                                  ## Pages:       028-037
000012:                                                                                                  ## Mod history: 2009-05-16      JVL     Transcribed from page images.
000013:                                                                                                  ##              2016-12-13 RSB  Proofed text comments with octopus/ProoferComments
000014:                                                                                                  ##                              and corrected the errors found.
000015:                                                                                                  ##              2017-03-03 RSB  Snapshot of Luminary 99 Rev 1.
000016:


000018: ???????                                           COUNT    BANKSUM
000019:
000020:                                                                                                  #  MODULE 1 CONTAINS BANKS 0 THROUGH 5
000021:
000022:    4000                                           BLOCK    02
000023:    4000                        RADARFF            EQUALS
000024:    4000                        FFTAG1             EQUALS
000025:    4000                        FFTAG2             EQUALS
000026:    4000                        FFTAG3             EQUALS
000027:    4000                        FFTAG4             EQUALS
000028:    4000                        FFTAG7             EQUALS
000029:    4000                        FFTAG8             EQUALS
000030:    4000                        FFTAG9             EQUALS
000031:    4000                        FFTAG10            EQUALS
000032:    4000                        FFTAG11            EQUALS
000033:    4000                        FFTAG12            EQUALS
000034:    4000                        FFTAG13            EQUALS
000035:    4000                                           BNKSUM   02
000036:
000037:    6000                                           BLOCK    03
000038:    6000                        FFTAG5             EQUALS
000039:    6000                        FFTAG6             EQUALS
000040:    6000                                           BNKSUM   03
000041:
000042: 00,2000                                           BANK     00
000043: 00,2000                        DLAYJOB            EQUALS
000044: 00,2000                                           BNKSUM   00
000045:
000046: 01,2000                                           BANK     01
000047: 01,2000                        RESTART            EQUALS
000048: 01,2000                        LOADDAP1           EQUALS
000049: 01,2000                                           BNKSUM   01
000050:
000051: 04,2000                                           BANK     04
000052: 04,2000                        R02                EQUALS
000053: 04,2000                        VERB37             EQUALS
000054: 04,2000                        PINBALL4           EQUALS
000055: 04,2000                        CONICS1            EQUALS
000056: 04,2000                        KEYRUPT            EQUALS
000057: 04,2000                        R36LM              EQUALS
000058: 04,2000                        UPDATE2            EQUALS
000059: 04,2000                        E/PROG             EQUALS
000060: 04,2000                        AOTMARK2           EQUALS
000061: 04,2000                                           BNKSUM   04
000062:


000064: 05,2000                                           BANK     05
000065: 05,2000                        FRANDRES           EQUALS
000066: 05,2000                        DOWNTELM           EQUALS
000067: 05,2000                        ABORTS1            EQUALS
000068: 05,2000                        EPHEM1             EQUALS
000069: 05,2000                        ASENT3             EQUALS
000070: 05,2000                                           BNKSUM   05
000071:
000072:                                                                                                  #  MODULE 2 CONTAINS BANKS 6 THROUGH 13
000073:
000074: 06,2000                                           BANK     06
000075: 06,2000                        IMUCOMP            EQUALS
000076: 06,2000                        T4RUP              EQUALS
000077: 06,2000                        RCSMONT            EQUALS
000078: 06,2000                        MIDDGIM            EQUALS
000079: 06,2000                        EARTHLOC           EQUALS
000080: 06,2000                                           BNKSUM   06
000081:
000082: 07,2000                                           BANK     07
000083: 07,2000                        AOTMARK1           EQUALS
000084: 07,2000                        MODESW             EQUALS
000085: 07,2000                        ASENT2             EQUALS
000086: 07,2000                                           BNKSUM   07
000087:
000088: 10,2000                                           BANK     10
000089: 10,2000                        RTBCODES           EQUALS
000090: 10,2000                        DISPLAYS           EQUALS
000091: 10,2000                        PHASETAB           EQUALS
000092: 10,2000                        FLESHLOC           EQUALS
000093: 10,2000                        SLCTMU             EQUALS
000094: 10,2000                                           BNKSUM   10
000095:
000096: 11,2000                                           BANK     11
000097: 11,2000                        ORBITAL            EQUALS
000098: 11,2000                        F2DPS*11           EQUALS
000099: 11,2000                        INTVEL             EQUALS
000100: 11,2000                                           BNKSUM   11
000101:
000102: 12,2000                                           BANK     12
000103: 12,2000                        CONICS             EQUALS
000104: 12,2000                        ORBITAL1           EQUALS


000106: 12,2000                        INTPRET2           EQUALS
000107: 12,2000                                           BNKSUM   12
000108:
000109: 13,2000                                           BANK     13
000110: 13,2000                        LATLONG            EQUALS
000111: 13,2000                        INTINIT            EQUALS
000112: 13,2000                        LEMGEOM            EQUALS
000113: 13,2000                        P76LOC             EQUALS
000114: 13,2000                        ORBITAL2           EQUALS
000115: 13,2000                        ABTFLGS            EQUALS
000116: 13,2000                                           BNKSUM   13
000117:


000119:                                                                                                  #  MODULE 3 CONTAINS BANKS 14 THROUGH 21
000120:
000121: 14,2000                                           BANK     14
000122: 14,2000                        P50S1              EQUALS
000123: 14,2000                        STARTAB            EQUALS
000124: 14,2000                        ASENT4             EQUALS
000125: 14,2000                                           BNKSUM   14
000126:
000127: 15,2000                                           BANK     15
000128: 15,2000                        P50S               EQUALS
000129: 15,2000                        EPHEM              EQUALS
000130: 15,2000                                           BNKSUM   15
000131:
000132: 16,2000                                           BANK     16
000133: 16,2000                        DAPS1              EQUALS
000134: 16,2000                                           BNKSUM   16
000135:
000136: 17,2000                                           BANK     17
000137: 17,2000                        DAPS2              EQUALS
000138: 17,2000                        P40S3              EQUALS
000139: 17,2000                                           BNKSUM   17
000140:
000141: 20,2000                                           BANK     20
000142: 20,2000                        DAPS3              EQUALS
000143: 20,2000                        LOADDAP            EQUALS
000144: 20,2000                        RODTRAP            EQUALS
000145: 20,2000                                           BNKSUM   20
000146:
000147: 21,2000                                           BANK     21
000148: 21,2000                        DAPS4              EQUALS
000149: 21,2000                        R10                EQUALS
000150: 21,2000                        R11                EQUALS
000151: 21,2000                                           BNKSUM   21


000153:
000154:                                                                                                  #  MODULE 4 CONTAINS BANKS 22 THROUGH 27
000155:
000156: 22,2000                                           BANK     22
000157: 22,2000                        KALCMON1           EQUALS
000158: 22,2000                        KALCMON2           EQUALS
000159: 22,2000                        R30LOC             EQUALS
000160: 22,2000                        RENDEZ             EQUALS
000161: 22,2000                        SERV2              EQUALS
000162: 22,2000                        LANDCNST           EQUALS
000163: 22,2000                                           BNKSUM   22
000164:
000165: 23,2000                                           BANK     23
000166: 23,2000                        POWFLITE           EQUALS
000167: 23,2000                        POWFLIT1           EQUALS
000168: 23,2000                        INFLIGHT           EQUALS
000169: 23,2000                        APOPERI            EQUALS
000170: 23,2000                        R61                EQUALS
000171: 23,2000                        R62                EQUALS
000172: 23,2000                        INTPRET1           EQUALS
000173: 23,2000                        MEASINC            EQUALS
000174: 23,2000                        MEASINC1           EQUALS
000175: 23,2000                        EXTVB1             EQUALS
000176: 23,2000                        P12A               EQUALS
000177: 23,2000                        NORMLIZ            EQUALS
000178: 23,2000                        ASENT7             EQUALS
000179: 23,2000                                           BNKSUM   23
000180:
000181: 24,2000                                           BANK     24
000182: 24,2000                        PLANTIN            EQUALS
000183: 24,2000                        P20S               EQUALS
000184: 24,2000                                           BNKSUM   24
000185:
000186: 25,2000                                           BANK     25
000187: 25,2000                        P20S1              EQUALS
000188: 25,2000                        P20S2              EQUALS
000189: 25,2000                        RADARUPT           EQUALS
000190: 25,2000                        RRLEADIN           EQUALS
000191: 25,2000                        R29S1              EQUALS
000192: 25,2000                        PLANTIN3           EQUALS
000193: 25,2000                                           BNKSUM   25
000194:
000195: 26,2000                                           BANK     26


000197: 26,2000                        P20S3              EQUALS
000198: 26,2000                        BAWLANGS           EQUALS
000199: 26,2000                        MANUVER            EQUALS
000200: 26,2000                        MANUVER1           EQUALS
000201: 26,2000                        PLANTIN1           EQUALS
000202: 26,2000                        PLANTIN2           EQUALS
000203: 26,2000                                           BNKSUM   26
000204:
000205: 27,2000                                           BANK     27
000206: 27,2000                        TOF-FF             EQUALS
000207: 27,2000                        TOF-FF1            EQUALS
000208: 27,2000                        P40S1              EQUALS
000209: 27,2000                        VECPT              EQUALS
000210: 27,2000                        ASENT1             EQUALS
000211: 27,2000                        SERV3              EQUALS
000212: 27,2000                                           BNKSUM   27
000213:


000215:                                                                                                  #  MODULE 5 CONTAINS BANKS 30 THROUGH 35
000216:
000217: 30,2000                                           BANK     30
000218: 30,2000                        LOWSUPER           EQUALS
000219: 30,2000                        P12                EQUALS
000220: 30,2000                        ASENT              EQUALS
000221: 30,2000                        FCDUW              EQUALS
000222: 30,2000                        FLOGSUB            EQUALS
000223: 30,2000                        VB67A              EQUALS
000224: 30,2000                        ASENT5             EQUALS
000225: 30,2000                                           BNKSUM   30
000226:
000227: 31,2000                                           BANK     31
000228: 31,2000                        FTHROT             EQUALS
000229: 31,2000                        F2DPS*31           EQUALS
000230: 31,2000                        VB67               EQUALS
000231: 31,2000                                           BNKSUM   31
000232:
000233: 32,2000                                           BANK     32
000234: 32,2000                        P20S4              EQUALS
000235: 32,2000                        F2DPS*32           EQUALS
000236: 32,2000                        ABORTS             EQUALS
000237: 32,2000                        LRS22              EQUALS
000238: 32,2000                        P66LOC             EQUALS
000239: 32,2000                        R47                EQUALS
000240: 32,2000                        SERV               EQUALS
000241: 32,2000                                           BNKSUM   32
000242:
000243: 33,2000                                           BANK     33
000244: 33,2000                        SERVICES           EQUALS
000245: 33,2000                        R29/SERV           EQUALS
000246: 33,2000                        ASENT6             EQUALS
000247: 33,2000                                           BNKSUM   33
000248:
000249: 34,2000                                           BANK     34
000250: 34,2000                        STBLEORB           EQUALS
000251: 34,2000                        P30S1              EQUALS
000252: 34,2000                        CSI/CDH1           EQUALS
000253: 34,2000                        ASCFILT            EQUALS
000254: 34,2000                        R12STUFF           EQUALS
000255: 34,2000                        SERV4              EQUALS
000256: 34,2000                                           BNKSUM   34
000257:


000259: 35,2000                                           BANK     35
000260: 35,2000                        CSI/CDH            EQUALS
000261: 35,2000                        P30S               EQUALS
000262: 35,2000                        GLM                EQUALS
000263: 35,2000                        P40S2              EQUALS
000264: 35,2000                                           BNKSUM   35
000265:


000267:                                                                                                  #  MODULE 6 CONTAINS BANKS 36 THROUGH 43
000268:
000269: 36,2000                                           BANK     36
000270: 36,2000                        P40S               EQUALS
000271: 36,2000                                           BNKSUM   36
000272:
000273: 37,2000                                           BANK     37
000274: 37,2000                        P05P06             EQUALS
000275: 37,2000                        IMU2               EQUALS
000276: 37,2000                        IMU4               EQUALS
000277: 37,2000                        R31                EQUALS
000278: 37,2000                        IMUSUPER           EQUALS
000279: 37,2000                        SERV1              EQUALS
000280: 37,2000                                           BNKSUM   37
000281:
000282: 40,2000                                           BANK     40
000283: 40,2000                        PINBALL1           EQUALS
000284: 40,2000                        SELFSUPR           EQUALS
000285: 40,2000                        PINSUPER           EQUALS
000286: 40,2000                        R31LOC             EQUALS
000287: 40,2000                                           BNKSUM   40
000288:
000289: 41,2000                                           BANK     41
000290: 41,2000                        PINBALL2           EQUALS
000291: 41,2000                                           BNKSUM   41
000292:
000293: 42,2000                                           BANK     42
000294: 42,2000                        SBAND              EQUALS
000295: 42,2000                        PINBALL3           EQUALS
000296: 42,2000                                           BNKSUM   42
000297:
000298: 43,2000                                           BANK     43
000299: 43,2000                        EXTVERBS           EQUALS
000300: 43,2000                        SELFCHEC           EQUALS
000301: 43,2000                                           BNKSUM   43
000302:


000304:
000305: 43,2000  23,2521               HI6ZEROS           EQUALS   ZEROVECS                              #  ZERO VECTOR ALWAYS IN HIGH MEMORY
000306: 43,2000  12,2006               LO6ZEROS           EQUALS   ZEROVEC                               #  ZERO VECTOR ALWAYS IN LOW MEMORY
000307: 43,2000  23,2517               HIDPHALF           EQUALS   UNITX
000308: 43,2000  12,2004               LODPHALF           EQUALS   XUNIT
000309: 43,2000  23,2511               HIDP1/4            EQUALS   DP1/4TH
000310: 43,2000  04,3036               LODP1/4            EQUALS   D1/4                                  #  2DEC .25
000311: 43,2000  23,2517               HIUNITX            EQUALS   UNITX
000312: 43,2000  23,2515               HIUNITY            EQUALS   UNITY
000313: 43,2000  23,2513               HIUNITZ            EQUALS   UNITZ
000314: 43,2000  12,2004               LOUNITX            EQUALS   XUNIT                                 #  2DEC .5
000315: 43,2000  12,2002               LOUNITY            EQUALS   YUNIT                                 #  2DEC 0
000316: 43,2000  12,2000               LOUNITZ            EQUALS   ZUNIT                                 #  2DEC 0
000317:
000318: 43,2000  22,3541               DELRSPL            EQUALS   SPLRET                                #  COL PGM, ALSO CALLED BY R30 IN LUMINARY
000319:
000320:                                                                                                  #  ROPE-SPECIFIC ASSIGNS OBVIATING NEED TO CHECK COMPUTER FLAG IN DETERMINING INTEGRATION AREA ENTRIES.
000321:
000322: 43,2000  13,2734               ATOPTHIS           EQUALS   ATOPLEM
000323: 43,2000  13,2661               ATOPOTH            EQUALS   ATOPCSM
000324: 43,2000  13,3043               OTHPREC            EQUALS   CSMPREC
000325: 43,2000  0000174               MOONTHIS           EQUALS   LMOONFLG
000326: 43,2000  0000173               MOONOTH            EQUALS   CMOONFLG
000327: 43,2000  13,2747               MOVATHIS           EQUALS   MOVEALEM
000328: 43,2000  12,2017               RMM                =        LODPMAX
000329: 43,2000  12,2021               RME                =        LODPMAX1
000330: 43,2000  13,3057               THISPREC           EQUALS   LEMPREC
000331: 43,2000  23,2513               THISAXIS           =        UNITZ
000332: 43,2000  23,2513               NB1NB2             EQUALS   THISAXIS                              #  FOR R31
000333: 43,2000     5011               ERASID             EQUALS   BITS2-10                              #  DOWNLINK ERASABLE DUMP ID
000334: 43,2000     4752               DELAYNUM           EQUALS   TWO
000335:

End of include-file TAGS_FOR_RELATIVE_SETLOC_AND_BLANK_BANK_CARDS.agc.  Parent file is MAIN.agc


