
Source Code


000002:                                                                                                  ## Copyright:   Public domain.
000003:                                                                                                  ## Filename:    THE_LUNAR_LANDING.agc
000004:                                                                                                  ## Purpose:     Part of the source code for Luminary 1A build 099.
000005:                                                                                                  ##              It is part of the source code for the Lunar Module's (LM)
000006:                                                                                                  ##              Apollo Guidance Computer (AGC), for Apollo 11.
000007:                                                                                                  ## Assembler:   yaYUL
000008:                                                                                                  ## Contact:     Hartmuth Gutsche<hgutsche@xplornet.com>.
000009:                                                                                                  ## Website:     www.ibiblio.org/apollo.
000010:                                                                                                  ## Pages:       785-792
000011:                                                                                                  ## Mod history: 2009-05-20 HG   Transcribed from page images.
000012:                                                                                                  ##              2016-12-13 RSB  GOTOP00H -> GOTOPOOH
000013:                                                                                                  ##              2016-12-16 RSB  Proofed text comments with octopus/ProoferComments
000014:                                                                                                  ##                              and corrected the errors found.
000015:                                                                                                  ##              2017-03-03 RSB  Snapshot of Luminary 99 Rev 1.
000016:


000018: 32,2776                                           BANK     32
000019: 32,2000                                           SETLOC   F2DPS*32
000020: 32,2000                                           BANK
000021:
000022: 32,2776  E7,1621                                  EBANK=   E2DPS
000023:
000024:                                                                                                  #        ****************************************
000025:                                                                                                  #        P63: THE LUNAR LANDING, BRAKING PHASE
000026:                                                                                                  #        ****************************************
000027:
000028: 32,2776                                           COUNT*   $$/P63
000029:
000030: 32,2776           05353        P63LM              TC       PHASCHNG
000031: 32,2777           04024                           OCT      04024
000032:
000033: 32,3000           04616                           TC       BANKCALL                              #  DO IMU STATUS CHECK ROUTINE R02
000034: 32,3001           11254                           CADR     R02BOTH
000035:
000036: 32,3002           33253                           CAF      P63ADRES                              #  INITIALIZE WHICH FOR BURNBABY
000037: 32,3003           55455                           TS       WHICH
000038:
000039: 32,3004           32000                           CAF      DPSTHRSH                              #  INITIALIZE DVMON
000040: 32,3005           55251                           TS       DVTHRUSH
000041: 32,3006           34751                           CAF      FOUR
000042: 32,3007           55515                           TS       DVCNTR
000043:
000044: 32,3010           44753                           CS       ONE                                   #  INITIALIZE WCHPHASE AND FLPASS0
000045: 32,3011           55351                           TS       WCHPHASE
000046:
000047: 32,3012           34755                           CA       ZERO
000048: 32,3013           55623                           TS       FLPASS0
000049:
000050: 32,3014           44736                           CS       BIT14
000051: 32,3015           00006                           EXTEND
000052: 32,3016           03012                           WAND     CHAN12                                #  REMOVE TRACK-ENABLE DISCRETE.
000053:
000054: 32,3017           06037        FLAGORGY           TC       INTPRET                               #  DIONYSIAN FLAG WAVING
000055: 32,3020           43014                           CLEAR    CLEAR
000056: 32,3021           02663                                    NOTHROTL
000057: 32,3022           03271                                    REDFLAG
000058: 32,3023           43014                           CLEAR    SET
000059: 32,3024           05660                                    LRBYPASS
000060: 32,3025           03067                                    MUNFLAG
000061: 32,3026           43014                           CLEAR    CLEAR
000062: 32,3027           00266                                    P25FLAG                               #  TERMINATE P25 IF IT IS RUNNING.
000063: 32,3030           00270                                    RNDVZFLG                              #  TERMINATE P20 IF IT IS RUNNING
000064:
000065:                                                                                                  #  ****************************************
000066:
000067: 32,3031           77201        IGNALG             SETPD    VLOAD                                 #  FIRST SET UP INPUTS FOR RP-TO-R:-


000069: 32,3032           00001                                    0                                     #        AT 0D LANDING SITE IN MOON FIXED FRAME
000070: 32,3033           02023                                    RLS                                   #        AT 6D ESTIMATED TIME OF LANDING
000071: 32,3034           41525                           PDDL     PUSH                                  #        MPAC NON-ZERO TO INDICATE LUNAR CASE
000072: 32,3035           02401                                    TLAND
000073: 32,3036           37625                           STCALL   TPIP                                  #  ALSO SET TPIP FOR FIRST GUIDANCE PASS
000074: 32,3037           55716                                    RP-TO-R
000075: 32,3040           64312                           VSL4     MXV
000076: 32,3041           01734                                    REFSMMAT
000077: 32,3042           37635                           STCALL   LAND
000078: 32,3043           46432                                    GUIDINIT                              #  GUIDINIT INITIALIZES WM AND /LAND/
000079: 32,3044           45345                           DLOAD    DSU
000080: 32,3045           02401                                    TLAND
000081: 32,3046           25260                                    GUIDDURN
000082: 32,3047           34041                           STCALL   TDEC1                                 #  INTEGRATE STATE FORWARD TO THAT TIME
000083: 32,3050           27057                                    LEMPREC
000084: 32,3051           77331                           SSP      VLOAD
000085: 32,3052           03647                                    NIGNLOOP
000086: 32,3053           00050                                    40D
000087: 32,3054           06520                                    UNITX
000088: 32,3055           26603                           STOVL    CG
000089: 32,3056           06516                                    UNITY
000090: 32,3057           26611                           STOVL    CG         +6
000091: 32,3060           06514                                    UNITZ
000092: 32,3061           16617                           STODL    CG         +14
000093: 32,3062           25256                                    99999CON
000094: 32,3063           27665                           STOVL    DELTAH                                #  INITIALIZE DELTAH FOR V16N68 DISPLAY
000095: 32,3064           06522                                    ZEROVECS
000096: 32,3065           17254                           STODL    UNFC/2                                #  INITIALIZE TRIM VELOCITY CORRECTION TERM
000097: 32,3066           06522                                    HI6ZEROS
000098: 32,3067           03643                           STORE    TTF/8
000099:
000100: 32,3070           77745        IGNALOOP           DLOAD
000101: 32,3071           00015                                    TAT
000102: 32,3072           27561                           STOVL    PIPTIME1
000103: 32,3073           00017                                    RATT1
000104: 32,3074           64312                           VSL4     MXV
000105: 32,3075           01734                                    REFSMMAT
000106: 32,3076           37521                           STCALL   R
000107: 32,3077           67130                                    MUNGRAV
000108: 32,3100           35237                           STCALL   GDT/2
000109: 32,3101           62454                                    ?GUIDSUB                              #  WHICH DELIVERS N PASSES OF GUIDANCE
000110:
000111:                                                                                                  #  DDUMCALC IS PROGRAMMED AS FOLLOWS:-
000112:                                                                                                  #                                          2                                           -
000113:                                                                                                  #               (RIGNZ - RGU )/16 + 16(RGU  )KIGNY/B8 + (RGU - RIGNX)KIGNX/B4 + (ABVAL(VGU) - VIGN)KIGNV/B4
000114:                                                                                                  #                           2             1                 0
000115:                                                                                                  #        DDUM = -------------------------------------------------------------------------------------------
000116:                                                                                                  #                                                 10
000117:                                                                                                  #                                                2   (VGU - 16 VGU KIGNX/B4)


000119:                                                                                                  #                                                        2        0
000120:                                                                                                  #  THE NUMERATOR IS SCALED IN METERS AT 2(28).  THE DENOMINATOR IS A VELOCITY IN UNITS OF 2(10) M/CS.
000121:                                                                                                  #  THE QUOTIENT IS THUS A TIME IN UNITS OF 2(18) CENTISECONDS.  THE FINAL SHIFT RESCALES TO UNITS OF 2(28) CS.
000122:                                                                                                  #  THERE IS NO DAMPING FACTOR.  THE CONSTANTS KIGNX/B4, KIGNY/B8 AND KIGNV/B4 ARE ALL NEGATIVE IN SIGN.
000123:
000124: 32,3102           55646        DDUMCALC           TS       NIGNLOOP
000125: 32,3103           06037                           TC       INTPRET
000126: 32,3104           57345                           DLOAD    DMPR                                  #  FORM DENOMINATOR FIRST
000127: 32,3105           03627                                    VGU
000128: 32,3106           02501                                    KIGNX/B4
000129: 32,3107           44232                           SL4R     BDSU
000130: 32,3110           03633                                    VGU        +4
000131: 32,3111           45325                           PDDL     DSU
000132: 32,3112           02477                                    RIGNZ
000133: 32,3113           02643                                    RGU        +4
000134: 32,3114           65222                           SR4R     PDDL
000135: 32,3115           02641                                    RGU        +2
000136: 32,3116           57316                           DSQ      DMPR
000137: 32,3117           02503                                    KIGNY/B8
000138: 32,3120           65232                           SL4R     PDDL
000139: 32,3121           02637                                    RGU
000140: 32,3122           57225                           DSU      DMPR
000141: 32,3123           02475                                    RIGNX
000142: 32,3124           02501                                    KIGNX/B4
000143: 32,3125           51515                           PDVL     ABVAL
000144: 32,3126           03627                                    VGU
000145: 32,3127           57225                           DSU      DMPR
000146: 32,3130           02473                                    VIGN
000147: 32,3131           02505                                    KIGNV/B4
000148: 32,3132           43215                           DAD      DAD
000149: 32,3133           56215                           DAD      DDV
000150: 32,3134           77661                           SRR
000151: 32,3135           21613                                    10D
000152:
000153: 32,3136           43206                           PUSH     DAD
000154: 32,3137           03561                                    PIPTIME1
000155: 32,3140           14041                           STODL    TDEC1                                 #  STORE NEW GUESS FOR NEXT INTEGRATION
000156: 32,3141           45246                           ABS      DSU
000157: 32,3142           25262                                    DDUMCRIT
000158: 32,3143           45040                           BMN      CALL
000159: 32,3144           65163                                    DDUMGOOD
000160: 32,3145           27414                                    INTSTALL
000161: 32,3146           43014                           SET      SET
000162: 32,3147           01473                                    INTYPFLG
000163: 32,3150           00063                                    MOONFLAG
000164: 32,3151           77745                           DLOAD
000165: 32,3152           03561                                    PIPTIME1
000166: 32,3153           25517                           STOVL    TET                                   #  HOPEFULLY ?GUIDSUB DID NOT
000167: 32,3154           00017                                    RATT1                                 #        CLOBBER RATT1 AND VATT1


000169: 32,3155           25535                           STOVL    RCV
000170: 32,3156           00025                                    VATT1
000171: 32,3157           35543                           STCALL   VCV
000172: 32,3160           27107                                    INTEGRVS
000173: 32,3161           77650                           GOTO
000174: 32,3162           65070                                    IGNALOOP
000175:
000176: 32,3163           54335        DDUMGOOD           SLOAD    SR
000177: 32,3164           03423                                    ZOOMTIME
000178: 32,3165           20617                                    14D
000179: 32,3166           77621                           BDSU
000180: 32,3167           00041                                    TDEC1
000181: 32,3170           27442                           STOVL    TIG                                   #  COMPUTE DISTANCE LANDING SITE WILL BE
000182: 32,3171           03527                                    V                                     #        OUT OF LM'S ORBITAL PLANE AT IGNITION:
000183: 32,3172           53435                           VXV      UNIT                                  #        SIGN IS + IF LANDING SITE IS TO THE
000184: 32,3173           03521                                    R                                     #        RIGHT, NORTH; - IF TO THE LEFT, SOUTH.
000185: 32,3174           72441                           DOT      SL1
000186: 32,3175           03635                                    LAND
000187: 32,3176           26627        R60INIT            STOVL    OUTOFPLN                              #  INITIALIZATION FOR CALCMANU
000188: 32,3177           03254                                    UNFC/2
000189: 32,3200           02631                           STORE    R60VSAVE                              #  STORE UNFC/2 TEMPORARILY IN R60SAVE
000190: 32,3201           77776                           EXIT
000191:                                                                                                  #  ****************************************
000192:
000193: 32,3202           05353        IGNALGRT           TC       PHASCHNG                              #  PREVENT REPEATING IGNALG
000194: 32,3203           04024                           OCT      04024
000195:
000196: 32,3204           44362        ASTNCLOK           CS       ASTNDEX
000197: 32,3205           04616                           TC       BANKCALL
000198: 32,3206           74664                           CADR     STCLOK2
000199: 32,3207           15155                           TCF      ENDOFJOB                              #  RETURN IN NEW JOB AND IN EBANK FIVE
000200:
000201: 32,3210           06037        ASTNRET            TC       INTPRET
000202: 32,3211           47131                           SSP      RTB                                   #  GO PICK UP DISPLAY AT END OF R51:
000203: 32,3212           02747                                    QMAJ                                  #        "PROCEED" WILL DO A FINE ALIGNMENT
000204: 32,3213           65215                           FCADR    P63SPOT2                              #        "ENTER" WILL RETURN TO P63SPOT2
000205: 32,3214           31135                                    R51P63
000206: 32,3215           53575        P63SPOT2           VLOAD    UNIT                                  #  INITIALIZE KALCMANU FOR BURN ATTITUDE
000207: 32,3216           02631                                    R60VSAVE
000208: 32,3217           27773                           STOVL    POINTVSM
000209: 32,3220           06520                                    UNITX
000210: 32,3221           03765                           STORE    SCAXIS
000211: 32,3222           77776                           EXIT
000212:
000213: 32,3223           35016                           CAF      EBANK7
000214: 32,3224           54003                           TS       EBANK
000215:
000216: 32,3225           00004                           INHINT
000217: 32,3226           04674                           TC       IBNKCALL
000218: 32,3227           40142                           CADR     PFLITEDB


000220: 32,3230           00003                           RELINT
000221:
000222: 32,3231           04616                           TC       BANKCALL
000223: 32,3232           54123                           CADR     R60LEM
000224:
000225: 32,3233           05353                           TC       PHASCHNG                              #  PREVENT RECALLING R60
000226: 32,3234           04024                           OCT      04024
000227:
000228: 32,3235           34746        P63SPOT3           CA       BIT6                                  #  IS THE LR ANTENNA IN POSITION 1 YET
000229: 32,3236           00006                           EXTEND
000230: 32,3237           02033                           RAND     CHAN33
000231: 32,3240           00006                           EXTEND
000232: 32,3241           13247                           BZF      P63SPOT4                              #  BRANCH IF ANTENNA ALREADY IN POSITION 1
000233:
000234: 32,3242           33254                           CAF      CODE500                               #  ASTRONAUT:    PLEASE CRANK THE
000235: 32,3243           04616                           TC       BANKCALL                              #                SILLY THING AROUND
000236: 32,3244           20623                           CADR     GOPERF1
000237: 32,3245           16001                           TCF      GOTOPOOH                              #  TERMINATE
000238: 32,3246           13235                           TCF      P63SPOT3                              #  PROCEED       SEE IF HE'S LYING
000239:
000240: 32,3247           04616        P63SPOT4           TC       BANKCALL                              #  ENTER         INITIALIZE LANDING RADAR
000241: 32,3250           67721                           CADR     SETPOS1
000242:
000243: 32,3251           04635                           TC       POSTJUMP                              #  OFF TO SEE THE WIZARD ...
000244: 32,3252           74126                           CADR     BURNBABY
000245:
000246:                                                                                                  #        ---------------------------------
000247:
000248:                                                                                                  #  CONSTANTS FOR P63LM AND IGNALG
000249:
000250: 32,3253           02076        P63ADRES           GENADR   P63TABLE
000251:
000252: 32,3254     4362               ASTNDEX            =        MD1                                   #  OCT 25:  INDEX FOR CLOKTASK
000253:
000254: 32,3254           00500        CODE500            OCT      00500
000255:
000256: 32,3255           00035 30373  99999CON           2DEC     30479.7    B-24
000257:
000258: 32,3257           00004 01610  GUIDDURN           2DEC     +66440     B-28                       #  GUIDDURN +6.64400314 E+2
000259: 32,3261           00000 00010  DDUMCRIT           2DEC     +8         B-28                       #  CRITERION FOR IGNALG CONVERGENCE
000260:


000262:                                                                                                  #        --------------------------------
000263:


000265:                                                                                                  #        ****************************************
000266:                                                                                                  #        P68: LANDING CONFIRMATION
000267:                                                                                                  #        ****************************************
000268:
000269: 31,2144                                           BANK     31
000270: 31,2000                                           SETLOC   F2DPS*31
000271: 31,2000                                           BANK
000272:
000273: 31,2144                                           COUNT*   $$/P6567
000274:
000275: 31,2144           05353        LANDJUNK           TC       PHASCHNG
000276: 31,2145           04024                           OCT      04024
000277:
000278: 31,2146           00004                           INHINT
000279: 31,2147           04616                           TC       BANKCALL                              #  ZERO ATTITUDE ERROR
000280: 31,2150           40153                           CADR     ZATTEROR
000281:
000282: 31,2151           04616                           TC       BANKCALL                              #  SET 5 DEGREE DEADBAND
000283: 31,2152           40127                           CADR     SETMAXDB
000284:
000285: 31,2153           06037                           TC       INTPRET                               #  TO INTERPRETIVE AS TIME IS NOT CRITICAL
000286: 31,2154           43014                           SET      CLEAR
000287: 31,2155           04067                                    SURFFLAG
000288: 31,2156           04666                                    LETABORT
000289: 31,2157           77214                           SET      VLOAD
000290: 31,2160           05062                                    APSFLAG
000291: 31,2161           01221                                    RN
000292: 31,2162           16032                           STODL    ALPHAV
000293: 31,2163           01235                                    PIPTIME
000294: 31,2164           45014                           SET      CALL
000295: 31,2165           01463                                    LUNAFLAG
000296: 31,2166           26351                                    LAT-LONG
000297: 31,2167           77201                           SETPD    VLOAD                                 #  COMPUTE RLS AND STORE IT AWAY
000298: 31,2170           00001                                    0
000299: 31,2171           01221                                    RN
000300: 31,2172           65352                           VSL2     PDDL
000301: 31,2173           01235                                    PIPTIME
000302: 31,2174           45006                           PUSH     CALL
000303: 31,2175           51670                                    R-TO-RP
000304: 31,2176           02023                           STORE    RLS
000305: 31,2177           77776                           EXIT
000306: 31,2200           32215                           CAF      V06N43*                               #  ASTRONAUT:  NOW LOOK WHERE YOU ENDED UP
000307: 31,2201           04616                           TC       BANKCALL
000308: 31,2202           20476                           CADR     GOFLASH
000309: 31,2203           16001                           TCF      GOTOPOOH                              #  TERMINATE
000310: 31,2204           12206                           TCF      +2                                    #  PROCEED
000311: 31,2205           12200                           TCF      -5                                    #  RECYCLE
000312:
000313: 31,2206           06037                           TC       INTPRET


000315: 31,2207           77775                           VLOAD                                          #  INITIALIZE GSAV AND (USING REFMF)
000316: 31,2210           06520                                    UNITX                                 #  YNBSAV, ZNBSAV AND ATTFLAG FOR P57
000317: 31,2211           36231                           STCALL   GSAV
000318: 31,2212           33506                                    REFMF
000319: 31,2213           77776                           EXIT
000320:
000321: 31,2214           16001                           TCF      GOTOPOOH                              #  ASTRONAUT:  PLEASE SELECT P57
000322:
000323: 31,2215           01453        V06N43*            VN       0643
000324:

End of include-file THE_LUNAR_LANDING.agc.  Parent file is MAIN.agc


