
Source Code


000002:                                                                                                 #  Copyright:     Public domain.
000003:                                                                                                 #  Filename:      AGC_BLOCK_TWO_SELF-CHECK.agc
000004:                                                                                                 #  Purpose:       Part of the source code for Colossus build 237.
000005:                                                                                                 #                 This is for the Command Module's (CM) Apollo Guidance
000006:                                                                                                 #                 Computer (AGC), we believe for Apollo 8.
000007:                                                                                                 #  Assembler:     yaYUL
000008:                                                                                                 #  Contact:       Onno Hommes <ohommes@alumni.cmu.edu>
000009:                                                                                                 #  Website:       www.ibiblio.org/apollo/index.html
000010:                                                                                                 #  Page scans:    www.ibiblio.org/apollo/ScansForConversion/Colossus237/
000011:                                                                                                 #  Mod history:   2010-05-30 OH   Adapted from corresponding Colossus 249 file.
000012:                                                                                                 #                 2010-12-04 JL   Remove Colossus 249 header comments. Change to double-has page numbers.
000013:                                                                                                 #                 2011-02-12 JL   Minor fixes.
000014:                                                                                                 #                 2011-04-17 JL   Removed temporary line.
000015:
000016:                                                                                                 # # Page 1358
000017:                                                                                                 #  PROGRAM DESCRIPTION                                                         DATE  20 DECEMBER 1967
000018:                                                                                                 #  PROGRAM NAME -  SELF-CHECK                                                  LOG SECTION AGC BLOCK TWO SELF-CHECK
000019:                                                                                                 #  MOD NO -  1                                                                 ASSEMBLY SUBROUTINE UTILITYM REV 25
000020:                                                                                                 #  MOD BY - GAUNTT
000021:
000022:
000023:                                                                                                 #  FUNCTIONAL DESCRIPTION
000024:
000025:                                                                                                 #       PROGRAM HAS TWO MAIN PARTS. THE FIRST IS SELF-CHECK WHICH RUNS AS A ZERO PRIORITY JOB WITH NO CORE SET, AS
000026:                                                                                                 #  PART OF THE BACK-UP IDLE LOOP. THE SECOND IS SHOW-BANKSUM WHICH RUNS AS A REGULAR EXECUTIVE JOB WITH ITS OWN
000027:                                                                                                 #  STARTING VERB.
000028:                                                                                                 #       THE PURPOSE OF SELF-CHECK IS TO CHECK OUT VARIOUS PARTS OF THE COMPUTER AS OUTLINED BELOW IN THE OPTIONS.
000029:                                                                                                 #       THE PURPOSE OF SHOW-BANKSUM IS TO DISPLAY THE SUM OF EACH BANK , ONE AT A TIME.
000030:                                                                                                 #       IN ALL THERE ARE  7 POSSIBLE OPTIONS IN THIS BLOCK II VERSION OF SELF-CHECK. MORE DETAIL DESCRIPTION MAY BE
000031:                                                                                                 #  FOUND IN E-2065 BLOCK II AGC SELF-CHECK AND SHOW BANKSUM BY EDWIN D. SMALLY DECEMBER 1966, AND ADDENDA 2 AND 3.
000032:                                                                                                 #       THE DIFFERENT OPTIONS ARE CONTROLLED BY PUTTING DIFFERENT NUMBERS IN THE SMODE REGISTER (NOUN 27). BELOW IS
000033:                                                                                                 #  A DESCRIPTION OF WHAT PARTS OF THE COMPUTER THAT ARE CHECKED BY THE OPTIONS, AND THE CORRESPONDING NUMBER, IN
000034:                                                                                                 #  OCTAL, TO LOAD INTO SMODE.
000035:                                                                                                 #  +-4   ERASABLE MEMORY
000036:                                                                                                 #  +-5   FIXED MEMORY
000037:                                                                                                 #  +-1,2,3,6,7,10   EVERYTHING IN OPTIONS 4 AND 5.
000038:                                                                                                 #  -0    SAME AS +-10 UNTIL AN ERROR IS DETECTED.
000039:                                                                                                 #  +0    NO CHECK, PUTS COMPUTER INTO THE BACKUP IDLE LOOP.
000040:
000041:
000042:                                                                                                 #  WARNINGS
000043:
000044:                                                                                                 #       USE OF E MEMORY RESERVED FOR SELF-CHECK (EVEN IN IDLE LOOP) AS TEMP STORAGE BY OTHER PROGRAMS IS DANGEROUS.
000045:                                                                                                 #       SMODE SET GREATER THAN OCT 10 PUTS COMPUTER INTO BACKUP IDLE LOOP.
000046:
000047:
000048:                                                                                                 #  CALLING SEQUENCE
000049:
000050:                                                                                                 #       TO CALL SELF-CHECK KEY IN
000051:                                                                                                 #            V 21 N 27 E   OPTION NUMBER E
000052:                                                                                                 #       TO CALL SHOW-BANKSUM KEY IN
000053:                                                                                                 #            V 91 E         DISPLAYS FIRST BANK
000054:                                                                                                 #            V 33 E         PROCEED, DISPLAYS NEXT BANK
000055:
000056:
000057:                                                                                                 #  EXIT MODES, NORMAL AND ALARM
000058:
000059:                                                                                                 #       SELF-CHECK NORMALLY CONTINUES INDEFINITELY UNLESS THERE IS AN ERROR DETECTED. IF SO + OPTION NUMBERS PUT
000060:                                                                                                 #  COMPUTER INTO BACKUP IDLE LOOP, - OPTION NUMBERS RESTART THE OPTION.
000061:                                                                                                 #       THE -0 OPTION PROCEEDS FROM THE LINE FOLLOWING THE LINE WHERE THE ERROR WAS DETECTED.
000062:                                                                                                 #       SHOW-BANKSUM PROCEEDS UNTIL A TERMINATE IS KEYED IN (V 34 E). THE COMPUTER IS PUT INTO THE BACKUP IDLE LOOP
000063:
000064:
000065:
000066:                                                                                                 #  OUTPUT
000067:
000068:                                                                                                 # # Page 1359
000069:                                                                                                 #       SELF-CHECK UPON DETECTING AN ERROR LOADS THE SELF-CHECK ALARM CONSTANT (01102) INTO THE FAILREG SET AND
000070:                                                                                                 #  TURNS ON THE ALARM LIGHT. THE OPERATOR MAY THEN DISPLAY THE THREE FAILREGS BY KEYING IN V 05 N 09 E. FOR FURTHER
000071:                                                                                                 #  INFORMATION HE MAY KEY IN V 05 N 08 E, THE DSKY DISPLAY IN R1 WILL BE ADDRESS+1 OF WHERE THE ERROR WAS DETECTED,
000072:                                                                                                 #  IN R2 THE BBCON OF SELF-CHECK, AND IN R3 THE TOTAL NUMBER OF ERRORS DETECTED BY SELF-CHECK SINCE THE LAST MAN
000073:                                                                                                 #  INITIATED FRESH START (SLAP1).
000074:                                                                                                 #       SHOW-BANKSUM STARTING WTIH BANK 0 DISPLAYS IN R1 THE BANK SUM (A +-NUMBER EQUAL TO THE BANK NUMBER), IN R2
000075:                                                                                                 #  THE BANK NUMBER, AND IN R3 THE BUGGER WORD.
000076:
000077:
000078:                                                                                                 #  ERASABLE INITIALIZATION REQUIRED
000079:
000080:                                                                                                 #       ACCOMPLISHED BY FRESH START
000081:                                                                                                 #            SMODE SET TO +0
000082:
000083:
000084:                                                                                                 #  DEBRIS
000085:
000086:                                                                                                 #       ALL EXITS FROM THE CHECK OF ERASABLE (ERASCHK) RESTORE ORIGINAL CONTENTS TO REGISTERS UNDER CHECK.
000087:                                                                                                 #  EXCEPTION IS A RESTART. RESTART THAT OCCURS DURING ERASCHK RESTORES ERASABLE, UNLESS THERE IS EVIDENCE TO DOUBT
000088:                                                                                                 #  E MEMORY, IN WHICH CASE PROGRAM THEN DOES A FRESH START (DOFSTART).
000089:
000090:
000091: 25,3766                                          BANK     25
000092: 43,2000                                          SETLOC   SELFCHEC
000093: 43,2000                                          BANK
000094:
000095: 43,3227                                          COUNT    43/SELF
000096:
000097: 43,3227     4712               SBIT1             EQUALS   BIT1
000098: 43,3227     4711               SBIT2             EQUALS   BIT2
000099: 43,3227     4710               SBIT3             EQUALS   BIT3
000100: 43,3227     4707               SBIT4             EQUALS   BIT4
000101: 43,3227     4706               SBIT5             EQUALS   BIT5
000102: 43,3227     4705               SBIT6             EQUALS   BIT6
000103: 43,3227     4704               SBIT7             EQUALS   BIT7
000104: 43,3227     4703               SBIT8             EQUALS   BIT8
000105: 43,3227     4702               SBIT9             EQUALS   BIT9
000106: 43,3227     4701               SBIT10            EQUALS   BIT10
000107: 43,3227     4700               SBIT11            EQUALS   BIT11
000108: 43,3227     4677               SBIT12            EQUALS   BIT12
000109: 43,3227     4676               SBIT13            EQUALS   BIT13
000110: 43,3227     4675               SBIT14            EQUALS   BIT14
000111: 43,3227     4674               SBIT15            EQUALS   BIT15
000112:
000113: 43,3227     4714               S+ZERO            EQUALS   ZERO
000114: 43,3227     4712               S+1               EQUALS   BIT1
000115: 43,3227     4711               S+2               EQUALS   BIT2
000116: 43,3227     6214               S+3               EQUALS   THREE
000117: 43,3227     4710               S+4               EQUALS   FOUR
000118: 43,3227     4715               S+5               EQUALS   FIVE
000119:                                                                                                 # # Page 1360
000120: 43,3227     6211               S+6               EQUALS   SIX
000121: 43,3227     4716               S+7               EQUALS   SEVEN
000122: 43,3227     4373               S8BITS            EQUALS   LOW8                                  #  00377
000123: 43,3227     4726               CNTRCON           =        OCT50                                 #  USED IN CNTRCHK
000124: 43,3227           00061        ERASCON1          OCTAL    00061                                 #  USED IN ERASCHK
000125: 43,3230           01373        ERASCON2          OCTAL    01373                                 #  USED IN ERASCHK
000126: 43,3231     4744               ERASCON6          =        OCT1400                               #  USED IN ERASCHK
000127: 43,3231           01461        ERASCON3          OCTAL    01461                                 #  USED IN ERASCHK
000128: 43,3232           01773        ERASCON4          OCTAL    01773                                 #  USED IN ERASCHK
000129: 43,3233     4747               S10BITS           EQUALS   LOW10                                 #  01777, USED IN ERASCHK
000130: 43,3233     4755               SBNK03            EQUALS   PRIO6                                 #  06000, USED IN ROPECHK
000131: 43,3233     4364               -MAXADRS          =        HI5                                   #  FOR ROPECHK
000132: 43,3233           00060        SIXTY             OCTAL    00060
000133: 43,3234           60017        SUPRCON           OCTAL    60017                                 #  USED IN ROPECHK
000134: 43,3235           17777        S13BITS           OCTAL    17777
000135: 43,3236           25252        CONC+S1           OCTAL    25252                                 #  USED IN CYCLSHFT
000136: 43,3237           52400        CONC+S2           OCTAL    52400                                 #  USED IN CYCLSHFT
000137: 43,3240           76777        ERASCON5          OCTAL    76777
000138: 43,3241     5630               S-7               =        OCT77770
000139: 43,3241     6061               S-4               EQUALS   NEG4
000140: 43,3241     7714               S-3               EQUALS   NEG3
000141: 43,3241     7715               S-2               EQUALS   NEG2
000142: 43,3241     7716               S-1               EQUALS   NEGONE
000143: 43,3241     4713               S-ZERO            EQUALS   NEG0
000144:
000145: 43,3241  E3,1400                                 EBANK=   LST1
000146: 43,3241           01371        ADRS1             ADRES    SKEEP1
000147: 43,3242           03333        SELFADRS          ADRES    SELFCHK                               #  SELFCHK RETURN ADDRESS. SHOULD BE PUT
000148:                                                                                                 #                                           IN SELFRET WHEN GOING FROM SELFCHK TO
000149:                                                                                                 #                                           SHOWSUM AND PUT IN SKEEP1 WHEN GOING
000150:                                                                                                 #                                           FROM SHOWSUM TO SELF-CHECK.
000151:
000152: 43,3243           31360        PRERRORS          CA       ERESTORE                              #  IS IT NECESSARY TO RESTORE ERASABLE
000153: 43,3244           00006                          EXTEND
000154: 43,3245           13254                          BZF      ERRORS                                #  NO
000155: 43,3246           00006                          EXTEND
000156: 43,3247           31376                          DCA      SKEEP5
000157: 43,3250           51377                          INDEX    SKEEP7
000158: 43,3251           52001                          DXCH     0000                                  #  RESTORE THE TWO ERASABLE REGISTERS
000159: 43,3252           34714                          CA       S+ZERO
000160: 43,3253           55360                          TS       ERESTORE
000161: 43,3254           00004        ERRORS            INHINT
000162: 43,3255           30002                          CA       Q
000163: 43,3256           55357                          TS       SFAIL                                 #  SAVE Q FOR FAILURE LOCATION
000164: 43,3257           55363                          TS       ALMCADR                               #  FOR DISPLAY WITH BBANK AND ERCOUNT
000165: 43,3260           25365                          INCR     ERCOUNT                               #  KEEP TRACK OF NUMBER OF MALFUNCTIONS.
000166: 43,3261           05541        TCALARM2          TC       ALARM2
000167: 43,3262           01102                          OCT      01102                                 #  SELF-CHECK MALFUNCTION INDICATOR
000168: 43,3263           11362                          CCS      SMODE
000169: 43,3264           34714        SIDLOOP           CA       S+ZERO
000170:                                                                                                 # # Page 1361
000171: 43,3265           55362                          TS       SMODE
000172: 43,3266           03333                          TC       SELFCHK                               #  GO TO IDLE LOOP
000173: 43,3267           01357                          TC       SFAIL                                 #  CONTINUE WITH SELF-CHECK
000174:
000175: 43,3270           10000        -1CHK             CCS      A
000176: 43,3271           13243                          TCF      PRERRORS
000177: 43,3272           13243                          TCF      PRERRORS
000178: 43,3273           10000                          CCS      A
000179: 43,3274           13243                          TCF      PRERRORS
000180: 43,3275           00002                          TC       Q
000181:
000182: 43,3276           00006        SMODECHK          EXTEND
000183: 43,3277           23371                          QXCH     SKEEP1
000184: 43,3300           03327                          TC       CHECKNJ                               #  CHECK FOR NEW JOB
000185: 43,3301           11362                          CCS      SMODE
000186: 43,3302           03307                          TC       SOPTIONS
000187: 43,3303           03300                          TC       SMODECHK   +2                         #  TO BACKUP IDLE LOOP
000188: 43,3304           03307                          TC       SOPTIONS
000189: 43,3305           25366                          INCR     SCOUNT
000190: 43,3306           01371                          TC       SKEEP1                                #  CONTINUE WITH SELF-CHECK
000191:
000192: 43,3307           65630        SOPTIONS          AD       S-7
000193: 43,3310           00006                          EXTEND
000194: 43,3311           63313                          BZMF     +2                                    #  FOR OPTIONS BELOW NINE.
000195: 43,3312           03264        BNKOPTN           TC       SIDLOOP                               #  ILLEGAL OPTION.  GO TO IDLE LOOP.
000196: 43,3313           25366                          INCR     SCOUNT                                #  FOR OPTIONS BELOW NINE.
000197: 43,3314           64716                          AD       S+7
000198:
000199: 43,3315           50000                          INDEX    A
000200: 43,3316           03317                          TC       SOPTION1
000201: 43,3317           01371        SOPTION1          TC       SKEEP1                                #  WAS TC+TCF
000202: 43,3320           01371        SOPTION2          TC       SKEEP1                                #  WAS IN:OUT1
000203: 43,3321           01371        SOPTION3          TC       SKEEP1                                #  WAS COUNTCHK
000204: 43,3322           03334        SOPTION4          TC       ERASCHK
000205: 43,3323           03515        SOPTION5          TC       ROPECHK
000206: 43,3324           01371        SOPTION6          TC       SKEEP1
000207: 43,3325           01371        SOPTION7          TC       SKEEP1
000208: 43,3326           01371        SOPTON10          TC       SKEEP1                                #  CONTINUE WITH SELF-CHECK
000209:
000210: 43,3327           00006        CHECKNJ           EXTEND
000211: 43,3330           23361                          QXCH     SELFRET                               #  SAVE RETURN ADDRESS WHILE TESTING NEWJOB
000212: 43,3331           04574                          TC       POSTJUMP                              #  TO SEE IF ANY JOBS HAVE BECOME ACTIVE.
000213: 43,3332           03231                          CADR     ADVAN
000214:
000215: 43,3333           03276        SELFCHK           TC       SMODECHK                              #  ** CHARLEY, COME IN HERE
000216:
000217:                                                                                                 #  SKEEP7 HOLDS LOWEST OF TWO ADDRESSES BEING CHECKED.
000218:                                                                                                 #  SKEEP6 HOLDS B(X+1).
000219:                                                                                                 #  SKEEP5 HOLDS B(X).
000220:                                                                                                 #  SKEEP4 HOLDS C(EBANK) DURING ERASLOOP AND CHECKNJ
000221:                                                                                                 # # Page 1362
000222:                                                                                                 #  SKEEP3 HOLDS LAST ADDRESS BEING CHECKED (HIGHEST ADDRESS).
000223:                                                                                                 #  SKEEP2 CONTROLS CHECKING OF NON-SWITCHABLE ERASABLE MEMORY WITH BANK NUMBERS IN EB.
000224:                                                                                                 #  ERASCHK TAKES APPROXIMATELY 7 SECONDS.
000225: 43,3334           34712        ERASCHK           CA       S+1
000226: 43,3335           55372                          TS       SKEEP2
000227: 43,3336           34714        0EBANK            CA       S+ZERO
000228: 43,3337           54003                          TS       EBANK
000229: 43,3340           33231                          CA       ERASCON3                              #  01461
000230: 43,3341           55377                          TS       SKEEP7                                #  STARTING ADDRESS
000231: 43,3342           34747                          CA       S10BITS                               #  01777
000232: 43,3343           55373                          TS       SKEEP3                                #  LAST ADDRESS CHECKED
000233: 43,3344           03364                          TC       ERASLOOP
000234:
000235: 43,3345           34744        E134567B          CA       ERASCON6                              #  01400
000236: 43,3346           55377                          TS       SKEEP7                                #  STARTING ADDRESS
000237: 43,3347           34747                          CA       S10BITS                               #  01777
000238: 43,3350           55373                          TS       SKEEP3                                #  LAST ADDRESS CHECKED
000239: 43,3351           03364                          TC       ERASLOOP
000240:
000241: 43,3352           34744        2EBANK            CA       ERASCON6                              #  01400
000242: 43,3353           55377                          TS       SKEEP7                                #  STARTING ADDRESS
000243: 43,3354           33232                          CA       ERASCON4                              #  01773
000244: 43,3355           55373                          TS       SKEEP3                                #  LAST ADDRESS CHECKED
000245: 43,3356           03364                          TC       ERASLOOP
000246:
000247: 43,3357           55372        NOEBANK           TS       SKEEP2                                #  +0
000248: 43,3360           33227                          CA       ERASCON1                              #  00061
000249: 43,3361           55377                          TS       SKEEP7                                #  STARTING ADDRESS
000250: 43,3362           33230                          CA       ERASCON2                              #  01373
000251: 43,3363           55373                          TS       SKEEP3                                #  LAST ADDRESS CHECKED
000252:
000253: 43,3364           00004        ERASLOOP          INHINT
000254: 43,3365           30003                          CA       EBANK                                 #  STORES C(EBANK)
000255: 43,3366           55374                          TS       SKEEP4
000256: 43,3367           00006                          EXTEND
000257: 43,3370           51377                          NDX      SKEEP7
000258: 43,3371           30001                          DCA      0000
000259: 43,3372           53376                          DXCH     SKEEP5                                #  STORES C(X) AND C(X+1) IN SKEEP6 AND 5.
000260: 43,3373           31377                          CA       SKEEP7
000261: 43,3374           55360                          TS       ERESTORE                              #  IF RESTART, RESTORE C(X) AND C(X+1)
000262: 43,3375           54001                          TS       L
000263: 43,3376           24001                          INCR     L
000264: 43,3377           50000                          NDX      A
000265: 43,3400           52001                          DXCH     0000                                  #  PUTS OWN ADDRESS IN X AND X +1
000266: 43,3401           51377                          NDX      SKEEP7
000267: 43,3402           40001                          CS       0001                                  #  CS  X+1
000268: 43,3403           51377                          NDX      SKEEP7
000269: 43,3404           60000                          AD       0000                                  #  AD X
000270: 43,3405           03270                          TC       -1CHK
000271: 43,3406           31360                          CA       ERESTORE                              #  HAS ERASABLE BEEN RESTORED
000272:                                                                                                 # # Page 1363
000273: 43,3407           00006                          EXTEND
000274: 43,3410           13434                          BZF      ELOOPFIN                              #  YES, EXIT ERASLOOP.
000275: 43,3411           00006                          EXTEND
000276: 43,3412           51377                          NDX      SKEEP7
000277: 43,3413           40001                          DCS      0000                                  #  COMPLEMENT OF ADDRESS OF X AND X+1
000278: 43,3414           51377                          NDX      SKEEP7
000279: 43,3415           52001                          DXCH     0000                                  #  PUT COMPLEMENT OF ADDRESS OF X AND X+1
000280: 43,3416           51377                          NDX      SKEEP7
000281: 43,3417           40000                          CS       0000                                  #  CS  X
000282: 43,3420           51377                          NDX      SKEEP7
000283: 43,3421           60001                          AD       0001                                  #  AD X+1
000284: 43,3422           03270                          TC       -1CHK
000285: 43,3423           31360                          CA       ERESTORE                              #  HAS ERASABLE BEEN RESTORED
000286: 43,3424           00006                          EXTEND
000287: 43,3425           13434                          BZF      ELOOPFIN                              #  YES, EXIT ERASLOOP.
000288: 43,3426           00006                          EXTEND
000289: 43,3427           31376                          DCA      SKEEP5
000290: 43,3430           51377                          NDX      SKEEP7
000291: 43,3431           52001                          DXCH     0000                                  #  PUT B(X) AND B(X+1) BACK INTO X AND X+1
000292: 43,3432           34714                          CA       S+ZERO
000293: 43,3433           55360                          TS       ERESTORE                              #  IF RESTART, DO NOT RESTORE C(X), C(X+1)
000294: 43,3434           00003        ELOOPFIN          RELINT
000295: 43,3435           03327                          TC       CHECKNJ                               #  CHECK FOR NEW JOB
000296: 43,3436           31374                          CA       SKEEP4                                #  REPLACES B(EBANK)
000297: 43,3437           54003                          TS       EBANK
000298: 43,3440           25377                          INCR     SKEEP7
000299: 43,3441           41377                          CS       SKEEP7
000300: 43,3442           61373                          AD       SKEEP3
000301: 43,3443           00006                          EXTEND
000302: 43,3444           13446                          BZF      +2
000303: 43,3445           03364                          TC       ERASLOOP                              #  GO TO NEXT ADDRESS IN SAME BANK
000304: 43,3446           11372                          CCS      SKEEP2
000305: 43,3447           03357                          TC       NOEBANK
000306: 43,3450           25372                          INCR     SKEEP2                                #  PUT +1 IN SKEEP2.
000307: 43,3451           30003                          CA       EBANK
000308: 43,3452           64702                          AD       SBIT9
000309: 43,3453           54003                          TS       EBANK
000310: 43,3454           63240                          AD       ERASCON5                              #  76777, CHECK FOR BANK E2
000311: 43,3455           00006                          EXTEND
000312: 43,3456           13352                          BZF      2EBANK
000313: 43,3457           10003                          CCS      EBANK
000314: 43,3460           03345                          TC       E134567B                              #  GO TO EBANKS 1,3,4,5,6, AND 7
000315: 43,3461           34744                          CA       ERASCON6                              #  END OF ERASCHK
000316: 43,3462           54003                          TS       EBANK
000317:                                                                                                 #  CNTRCHK PERFORMS A CS OF ALL REGISTERS FROM OCT. 60 THROUGH OCT. 10.
000318:                                                                                                 #  INCLUDED ARE ALL COUNTERS, T6-1, CYCLE AND SHIFT, AND ALL RUPT REGISTERS
000319: 43,3463           34726        CNTRCHK           CA       CNTRCON                               #  00050
000320: 43,3464           55372        CNTRLOOP          TS       SKEEP2
000321: 43,3465           64707                          AD       SBIT4                                 #  +10 OCTAL
000322: 43,3466           50000                          INDEX    A
000323:                                                                                                 # # Page 1364
000324: 43,3467           40000                          CS       0000
000325: 43,3470           11372                          CCS      SKEEP2
000326: 43,3471           03464                          TC       CNTRLOOP
000327:
000328:                                                                                                 #  CYCLSHFT CHECKS THE CYCLE AND SHIFT REGISTERS
000329: 43,3472           33236        CYCLSHFT          CA       CONC+S1                               #  25252
000330: 43,3473           54020                          TS       CYR                                   #  C(CYR) = 12525
000331: 43,3474           54022                          TS       CYL                                   #  C(CYL) = 52524
000332: 43,3475           54021                          TS       SR                                    #  C(SR) = 12525
000333: 43,3476           54023                          TS       EDOP                                  #  C(EDOP) = 00125
000334: 43,3477           60020                          AD       CYR                                   #  37777         C(CYR) = 45252
000335: 43,3500           60022                          AD       CYL                                   #  00-12524      C(CYL) = 25251
000336: 43,3501           60021                          AD       SR                                    #  00-25251      C(SR) = 05252
000337: 43,3502           60023                          AD       EDOP                                  #  00-25376      C(EDOP) = +0
000338: 43,3503           63237                          AD       CONC+S2                               #  C(CONC+S2) = 52400
000339: 43,3504           03270                          TC       -1CHK
000340: 43,3505           60020                          AD       CYR                                   #  45252
000341: 43,3506           60022                          AD       CYL                                   #  72523
000342: 43,3507           60021                          AD       SR                                    #  77775
000343: 43,3510           60023                          AD       EDOP                                  #  77775
000344: 43,3511           64712                          AD       S+1                                   #  77776
000345: 43,3512           03270                          TC       -1CHK
000346:
000347: 43,3513           25367                          INCR     SCOUNT     +1
000348: 43,3514           03276                          TC       SMODECHK
000349:                                                                                                 #  SKEEP1 HOLDS SUM
000350:                                                                                                 #  SKEEP2 HOLDS PRESENT CONTENTS OF ADDRESS IN ROPECHK AND SHOWSUM ROUTINES
000351:                                                                                                 #  SKEEP2 HOLDS BANK NUMBER IN LOW ORDER BITS DURING SHOWSUM DISPLAY
000352:                                                                                                 #  SKEEP3 HOLDS PRESENT ADDRESS (00000 TO 01777 IN COMMON FIXED BANKS)
000353:                                                                                                 #                               (04000 TO 07777 IN FXFX BANKS)
000354:                                                                                                 #  SKEEP3 HOLDS BUGGER WORD DURING SHOWSUM DISPLAY
000355:                                                                                                 #  SKEEP4 HOLDS BANK NUMBER AND SUPER BANK NUMBER
000356:                                                                                                 #  SKEEP5 COUNTS 2 SUCCESSIVE TC SELF WORDS
000357:                                                                                                 #  SKEEP6 CONTROLS ROPECHK OR SHOWSUM OPTION
000358:                                                                                                 #  SKEEP7 CONTROLS WHEN ROUNTINE IS IN COMMON FIXED OR FIXED FIXED BANKS
000359:
000360: 43,3515           34713        ROPECHK           CA       S-ZERO                                #  *
000361: 43,3516           55376                          TS       SKEEP6                                #  * -0 FOR ROPECHK
000362: 43,3517           34714        STSHOSUM          CA       S+ZERO                                #  * SHOULD BE ROPECHK
000363:
000364: 43,3520           55374                          TS       SKEEP4                                #  BANK NUMBER
000365: 43,3521           34712                          CA       S+1
000366: 43,3522           55377        COMMFX            TS       SKEEP7
000367: 43,3523           34714                          CA       S+ZERO
000368: 43,3524           55371                          TS       SKEEP1
000369: 43,3525           55373                          TS       SKEEP3
000370: 43,3526           34712                          CA       S+1
000371: 43,3527           55375                          TS       SKEEP5                                #  COUNTS DOWN 2 TC SELF WORDS
000372: 43,3530           31374        COMADRS           CA       SKEEP4
000373: 43,3531           54001                          TS       L                                     #  TO SET SUPER BANK
000374:                                                                                                 # # Page 1365
000375: 43,3532           74364                          MASK     HI5
000376: 43,3533           61373                          AD       SKEEP3
000377: 43,3534           04610                          TC       SUPDACAL                              #  SUPER DATA CALL
000378: 43,3535           03560                          TC       ADSUM
000379: 43,3536           64700                          AD       SBIT11                                #  02000
000380: 43,3537           03571                          TC       ADRSCHK
000381:
000382: 43,3540           40000        FXFX              CS       A
000383: 43,3541           55377                          TS       SKEEP7
000384: 43,3542           00006                          EXTEND
000385: 43,3543           13546                          BZF      +3
000386: 43,3544           34677                          CA       SBIT12                                #  04000, STARTING ADDRESS OF BANK 02
000387: 43,3545           03547                          TC       +2
000388: 43,3546           34755                          CA       SBNK03                                #  06000, STARTING ADDRESS OF BANK 03
000389: 43,3547           55373                          TS       SKEEP3
000390: 43,3550           34714                          CA       S+ZERO
000391: 43,3551           55371                          TS       SKEEP1
000392: 43,3552           34712                          CA       S+1
000393: 43,3553           55375                          TS       SKEEP5                                #  COUNTS DOWN 2 TC SELF WORDS
000394: 43,3554           51373        FXADRS            INDEX    SKEEP3
000395: 43,3555           30000                          CA       0000
000396: 43,3556           03560                          TC       ADSUM
000397: 43,3557           03571                          TC       ADRSCHK
000398:
000399: 43,3560           55372        ADSUM             TS       SKEEP2
000400: 43,3561           61371                          AD       SKEEP1
000401: 43,3562           55371                          TS       SKEEP1
000402: 43,3563           34714                          CAF      S+ZERO
000403: 43,3564           61371                          AD       SKEEP1
000404: 43,3565           55371                          TS       SKEEP1
000405: 43,3566           41372                          CS       SKEEP2
000406: 43,3567           61373                          AD       SKEEP3
000407: 43,3570           00002                          TC       Q
000408:
000409: 43,3571           22000        ADRSCHK           LXCH     A
000410: 43,3572           31373                          CA       SKEEP3
000411: 43,3573           74747                          MASK     LOW10                                 #  RELATIVE ADDRESS
000412: 43,3574           64364                          AD       -MAXADRS                              #  SUBTRACT MAX RELATIVE ADDRESS = 1777.
000413: 43,3575           00006                          EXTEND
000414: 43,3576           13665                          BZF      SOPTION                               #  CHECKSUM FINISHED IF LAST ADDRESS.
000415: 43,3577           11375                          CCS      SKEEP5                                #  IS CHECKSUM FINISHED
000416: 43,3600           03603                          TC       +3                                    #  NO
000417: 43,3601           03603                          TC       +2                                    #  NO
000418: 43,3602           03665                          TC       SOPTION                               #  GO TO ROPECHK SHOWSUM OPTION
000419: 43,3603           10001                          CCS      L                                     #  -0 MEANS A TC SELF WORD.
000420: 43,3604           03613                          TC       CONTINU
000421: 43,3605           03613                          TC       CONTINU
000422: 43,3606           03613                          TC       CONTINU
000423: 43,3607           11375                          CCS      SKEEP5
000424: 43,3610           03614                          TC       CONTINU    +1
000425:                                                                                                 # # Page 1366
000426: 43,3611           37716                          CA       S-1
000427: 43,3612           03614                          TC       CONTINU    +1                         #  AD IN THE BUGGER WORD
000428: 43,3613           34712        CONTINU           CA       S+1                                   #  MAKE SURE TWO CONSECUTIVE TC SELF WORDS
000429: 43,3614           55375                          TS       SKEEP5
000430: 43,3615           11376                          CCS      SKEEP6                                #  *
000431: 43,3616           10067                          CCS      NEWJOB                                #  * +1, SHOWSUM
000432: 43,3617           05057                          TC       CHANG1                                #  *
000433: 43,3620           03622                          TC       +2                                    #  *
000434: 43,3621           03327                          TC       CHECKNJ                               #  -0 IN SKEEP6 FOR ROPECHK
000435:
000436: 43,3622           25373        ADRS+1            INCR     SKEEP3
000437: 43,3623           11377                          CCS      SKEEP7
000438: 43,3624           03530                          TC       COMADRS
000439: 43,3625           03530                          TC       COMADRS
000440: 43,3626           03554                          TC       FXADRS
000441: 43,3627           03554                          TC       FXADRS
000442:
000443: 43,3630           41374        NXTBNK            CS       SKEEP4
000444: 43,3631           63720                          AD       LSTBNKCH                              #  LAST BANK TO BE CHECKED
000445: 43,3632           00006                          EXTEND
000446: 43,3633           13000                          BZF      ENDSUMS                               #  END OF SUMMING OF BANKS.
000447: 43,3634           31374                          CA       SKEEP4
000448: 43,3635           64700                          AD       SBIT11
000449: 43,3636           55374                          TS       SKEEP4                                #  37 TO 40 INCRMTS SKEEP4 BY END RND CARRY
000450: 43,3637           03643                          TC       CHKSUPR
000451: 43,3640           34674        17TO20            CA       SBIT15
000452: 43,3641           27374                          ADS      SKEEP4                                #  SET FOR BANK 20
000453: 43,3642           03657                          TC       GONXTBNK
000454: 43,3643           74364        CHKSUPR           MASK     HI5
000455: 43,3644           00006                          EXTEND
000456: 43,3645           13655                          BZF      NXTSUPR                               #  INCREMENT SUPER BANK
000457: 43,3646           63235        27TO30            AD       S13BITS
000458: 43,3647           00006                          EXTEND
000459: 43,3650           13652                          BZF      +2                                    #  BANK SET FOR 30
000460: 43,3651           03657                          TC       GONXTBNK
000461: 43,3652           33233                          CA       SIXTY                                 #  FIRST SUPER BANK
000462: 43,3653           27374                          ADS      SKEEP4
000463: 43,3654           03657                          TC       GONXTBNK
000464: 43,3655           63234        NXTSUPR           AD       SUPRCON                               #  SET BNK 30 + INCR SUPR BNK AND CANCEL
000465: 43,3656           27374                          ADS      SKEEP4                                #  ERC BIT OF THE 37 TO 40 ADVANCE.
000466: 43,3657           11377        GONXTBNK          CCS      SKEEP7
000467: 43,3660           03522                          TC       COMMFX
000468: 43,3661           34712                          CA       S+1
000469: 43,3662           03540                          TC       FXFX
000470: 43,3663           34704                          CA       SBIT7                                 #  HAS TO BE LARGER THAN NO OF FXSW BANKS.
000471: 43,3664           03522                          TC       COMMFX
000472:
000473: 43,3665           31374        SOPTION           CA       SKEEP4
000474: 43,3666           74364                          MASK     HI5                                   #  = BANK BITS
000475: 43,3667           04345                          TC       LEFT5
000476:                                                                                                 # # Page 1367
000477: 43,3670           54001                          TS       L                                     #  BANK NUMBER BEFORE SUPER BANK
000478: 43,3671           31374                          CA       SKEEP4
000479: 43,3672           74373                          MASK     S8BITS                                #  = SUPER BANK BITS
000480: 43,3673           00006                          EXTEND
000481: 43,3674           13702                          BZF      SOPT                                  #  BEFORE SUPER BANK
000482: 43,3675           54021                          TS       SR                                    #  SUPER BANK NECESSARY
000483: 43,3676           30001                          CA       L
000484: 43,3677           74716                          MASK     SEVEN
000485: 43,3700           60021                          AD       SR
000486: 43,3701           54001                          TS       L                                     #  BANK NUMBER WITH SUPER BANK
000487: 43,3702           31376        SOPT              CA       SKEEP6                                #  *
000488: 43,3703           00006                          EXTEND                                         #  *
000489: 43,3704           13706                          BZF      +2                                    #  * ON -0 CONTINUE WITH ROPE CHECK.
000490: 43,3705           02762                          TC       SDISPLAY                              #  * ON +1 GO TO DISPLAY OF SUM.
000491: 43,3706           11371                          CCS      SKEEP1                                #  FORCE SUM TO ABSOLUTE VALUE.
000492: 43,3707           03711                          TC       +2
000493: 43,3710           03712                          TC       +2
000494: 43,3711           64712                          AD       S+1
000495: 43,3712           55371                          TS       SKEEP1
000496: 43,3713           40001        BNKCHK            CS       L                                     #  = - BANK NUMBER
000497: 43,3714           61371                          AD       SKEEP1
000498: 43,3715           67716                          AD       S-1
000499: 43,3716           03270                          TC       -1CHK                                 #  CHECK SUM
000500: 43,3717           03630                          TC       NXTBNK
000501:
000502: 43,3720     0067                                 EBANK=   NEWJOB
000503: 43,3720           66100        LSTBNKCH          BBCON*                                         #  * CONSTANT, LAST BANK.

End of include-file AGC_BLOCK_TWO_SELF-CHECK.agc.  Parent file is MAIN.agc


