
Source Code


000002:                                                                                                  ## Copyright:   Public domain.
000003:                                                                                                  ## Filename:    ALARM_AND_ABORT.agc
000004:                                                                                                  ## Purpose:     Part of the source code for Colossus build 237.
000005:                                                                                                  ##              This is for the Command Module's (CM) Apollo Guidance
000006:                                                                                                  ##              Computer (AGC), for Apollo 8.
000007:                                                                                                  ## Assembler:   yaYUL
000008:                                                                                                  ## Contact:     Onno Hommes <ohommes@alumni.cmu.edu>
000009:                                                                                                  ## Website:     www.ibiblio.org/apollo/index.html
000010:                                                                                                  ## Page Scans:  www.ibiblio.org/apollo/ScansForConversion/Colossus237/
000011:                                                                                                  ## Mod history: 2010-05-30 OH   Adapted from corresponding Colossus 249 file.
000012:                                                                                                  ##              2010-12-04 JL   Remove Colossus 249 header comments. Change to double-has page numbers.
000013:                                                                                                  ##              2011-02-07 JL   Minor fixes.
000014:                                                                                                  ##              2017-01-01 RSB  Proofed comment text using octopus/ProoferComments,
000015:                                                                                                  ##                              but no errors found.
000016:                                                                                                  ##              2017-01-07 RSB  Fixed comment errors detected in cross-diff vs
000017:                                                                                                  ##                              Colossus 249.
000018:


000020:                                                                                                  #           THE FOLLOWING SUBROUTINE MAY BE CALLED TO DISPLAY A NON-ABORTIVE ALARM CONDITION. IT MAY BE CALLED
000021:                                                                                                  #  EITHER IN INTERRUPT OR UNDER EXECUTIVE CONTROL.
000022:
000023:                                                                                                  #           CALLING SEQUENCE IS AS FOLLOWS:
000024:
000025:                                                                                                  #           TC     ALARM
000026:                                                                                                  #           OCT    AAANN           ALARM NO. NN IN GENERAL AREA AAA.
000027:                                                                                                  #                                  (RETURNS HERE)
000028:
000029:    5537                                           BLOCK    02
000030:    4000                                           SETLOC   FFTAG7
000031:    4000                                           BANK
000032:
000033:    5537     0375                                  EBANK=   FAILREG
000034:
000035:    5537                                           COUNT    02/ALARM
000036:
000037:                                                                                                  #  ALARM TURNS ON THE PROGRAM ALARM LIGHT, BUT DOES NOT DISPLAY.
000038:
000039:    5537           00004        ALARM              INHINT
000040:
000041:    5540           30002                           CA       Q
000042:    5541           55363        ALARM2             TS       ALMCADR
000043:    5542           50002                           INDEX    Q
000044:    5543           30000                           CA       0
000045:    5544           54001        BORTENT            TS       L
000046:
000047:    5545           30006        PRIOENT            CA       BBANK
000048:    5546           00006                 +1        EXTEND
000049:    5547           04007                           ROR      SUPERBNK                              #  ADD SUPER BITS.
000050:    5550           55364                           TS       ALMCADR    +1
000051:
000052:    5551           30002        LARMENT            CA       Q                                     #  STORE RETURN FOR ALARM
000053:    5552           54061                           TS       ITEMP1
000054:
000055:    5553           10375        CHKFAIL1           CCS      FAILREG                               #  IS ANYTHING IN FAILREG
000056:    5554           15557                           TCF      CHKFAIL2                              #  YES TRY NEXT REG
000057:    5555           22375                           LXCH     FAILREG
000058:    5556           15571                           TCF      PROGLARM                              #  TURN ALARM LIGHT ON FOR FIRST ALARM
000059:
000060:    5557           10376        CHKFAIL2           CCS      FAILREG    +1
000061:    5560           15563                           TCF      FAIL3
000062:    5561           22376                           LXCH     FAILREG    +1
000063:    5562           15574                           TCF      MULTEXIT
000064:
000065:    5563           30377        FAIL3              CA       FAILREG    +2
000066:    5564           74672                           MASK     POSMAX
000067:    5565           10000                           CCS      A
000068:    5566           15600                           TCF      MULTFAIL
000069:    5567           22377                           LXCH     FAILREG    +2


000071:    5570           15574                           TCF      MULTEXIT
000072:
000073:    5571           41036        PROGLARM           CS       DSPTAB     +11D
000074:    5572           75612                           MASK     OCT40400
000075:    5573           27036                           ADS      DSPTAB     +11D
000076:
000077:    5574           56061        MULTEXIT           XCH      ITEMP1                                #  OBTAIN RETURN ADDRESS IN A
000078:    5575           00003                           RELINT
000079:    5576           50000                           INDEX    A
000080:    5577           00001                           TC       1
000081:
000082:    5600           30001        MULTFAIL           CA       L
000083:    5601           64674                           AD       BIT15
000084:    5602           54377                           TS       FAILREG    +2
000085:
000086:    5603           15574                           TCF      MULTEXIT
000087:
000088:                                                                                                  #  PRIOLARM DISPLAYS V05N09 VIA PRIODSPR WITH 3 RETURNS TO THE USER FROM THE ASTRONAUT AT CALL LOC +1,+2,+3 AND
000089:                                                                                                  #  AN IMMEDIATE RETURN TO THE USER AT CALL LOC +4. EXAMPLE FOLLOWS,
000090:                                                                                                  #                                                   CAF    OCTXX           ALARM CODE
000091:                                                                                                  #                                                   TC     BANKCALL
000092:                                                                                                  #                                                   CADR   PRIOLARM
000093:
000094:                                                                                                  #                                                   ...    ...
000095:                                                                                                  #                                                   ...    ...
000096:                                                                                                  #                                                   ...    ...             ASTRONAUT RETURN
000097:                                                                                                  #                                                   TC     PHASCHNG        IMMEDIATE RETURN TO USER. RESTART
000098:                                                                                                  #                                                   OCT    X.1             PHASE CHANGE FOR PRIO DISPLAY
000099:
000100: 10,3671                                           BANK     10
000101: 10,2000                                           SETLOC   DISPLAYS
000102: 10,2000                                           BANK
000103:
000104: 10,3671                                           COUNT    10/DSPLA
000105:
000106: 10,3671           00004        PRIOLARM           INHINT                                         #  * * * KEEP IN DISPLAY ROUTINES BANK
000107: 10,3672           54001                           TS       L                                     #  SAVE ALARM CODE
000108:
000109: 10,3673           30133                           CA       BUF2                                  #  2 CADR OF PRIOLARM USER
000110: 10,3674           55363                           TS       ALMCADR
000111: 10,3675           30134                           CA       BUF2       +1
000112: 10,3676           05546                           TC       PRIOENT    +1                         #  * LEAVE L ALONE
000113: 10,3677           77467        -2SEC              DEC      -200       B-14                       #  *** DONT MOVE
000114: 10,3700           34743                           CAF      V05N09
000115: 10,3701           12632                           TCF      PRIODSPR
000116:
000117:    5604                                           BLOCK    02
000118:    4000                                           SETLOC   FFTAG7
000119:    4000                                           BANK
000120:


000122:    5604                                           COUNT    02/ALARM
000123:
000124:    5604           00004        BAILOUT            INHINT
000125:    5605           30002                           CA       Q
000126:    5606           55363                           TS       ALMCADR
000127:
000128:    5607           50002                           INDEX    Q
000129:    5610           30000                           CAF      0
000130:    5611           05544                           TC       BORTENT
000131:    5612           40400        OCT40400           OCT      40400
000132:
000133:    5613           00004                           INHINT
000134:    5614           34711        WHIMPER            CA       TWO
000135:    5615           60005                           AD       Z
000136:    5616           54017                           TS       BRUPT
000137:    5617           50017                           RESUME
000138:    5620           04574                           TC       POSTJUMP                              #  RESUME SENDS CONTROL HERE
000139:    5621           12632                           CADR     ENEMA
000140:    5622           00004        POODOO             INHINT
000141:    5623           30002                           CA       Q
000142:    5624           55363        ABORT2             TS       ALMCADR
000143:    5625           50002                           INDEX    Q
000144:    5626           30000                           CAF      0
000145:    5627           05544                           TC       BORTENT
000146:    5630           77770        OCT77770           OCT      77770                                 #  DONT MOVE
000147:    5631           44712                           CS       BIT1
000148:    5632           70075                           MASK     FLAGWRD1
000149:    5633           54075                           TS       FLAGWRD1                              #  RESET AVEGFLAG
000150:    5634           44705                           CS       BIT6
000151:    5635           70103                           MASK     FLAGWRD7
000152:    5636           54103                           TS       FLAGWRD7                              #  RESET V37FLAG
000153:
000154:    5637           04555                           TC       BANKCALL
000155:    5640           12465                           CADR     MR.KLEAN
000156:    5641           05614                           TC       WHIMPER
000157:
000158:    5642           00004        CCSHOLE            INHINT
000159:    5643           30002                           CA       Q
000160:    5644           05624                           TC       ABORT2
000161:    5645           01103        OCT1103            OCT      1103
000162:    5646           00004        CURTAINS           INHINT
000163:    5647           30002                           CA       Q
000164:    5650           05541                           TC       ALARM2
000165:    5651           00217        OCT217             OCT      00217
000166:    5652           01363                           TC       ALMCADR                               #  RETURN TO USER
000167:
000168:    5653     5112               DOALARM            EQUALS   ENDOFJOB
000169:                                                                                                  #  CALLING SEQUENCE FOR VARALARM
000170:
000171:                                                                                                  #                                                   CAF    (ALARM)


000173:                                                                                                  #                                                   TC     VARALARM
000174:
000175:                                                                                                  #  VARALARM TURNS ON PROGRAM ALARM LIGHT BUT DOES NOT DISPLAY
000176:    5653           00004        VARALARM           INHINT
000177:
000178:    5654           54001                           TS       L                                     #  SAVE USERS ALARM CODE
000179:
000180:    5655           30002                           CA       Q                                     #  SAVE USERS Q
000181:    5656           55363                           TS       ALMCADR
000182:
000183:    5657           05545                           TC       PRIOENT
000184:    5660           00014        OCT14              OCT      14                                    #  DONT MOVE
000185:
000186:    5661           01363                           TC       ALMCADR                               #  RETURN TO USER
000187:
000188:    5662     5604               ABORT              EQUALS   BAILOUT                               #  *** TEMPORARY UNTIL ABORT CALLS OUT

End of include-file ALARM_AND_ABORT.agc.  Parent file is MAIN.agc


