
Source Code


000002:                                                                                                  ## Copyright:   Public domain.
000003:                                                                                                  ## Filename:    ALARM_AND_ABORT.agc
000004:                                                                                                  ## Purpose:     Part of the source code for Colossus build 237.
000005:                                                                                                  ##              This is for the Command Module's (CM) Apollo Guidance
000006:                                                                                                  ##              Computer (AGC), we believe for Apollo 8.
000007:                                                                                                  ## Assembler:   yaYUL
000008:                                                                                                  ## Contact:     Onno Hommes <ohommes@alumni.cmu.edu>
000009:                                                                                                  ## Website:     www.ibiblio.org/apollo/index.html
000010:                                                                                                  ## Page Scans:  www.ibiblio.org/apollo/ScansForConversion/Colossus237/
000011:                                                                                                  ## Mod history: 2010-05-30 OH   Adapted from corresponding Colossus 249 file.
000012:                                                                                                  ##              2010-12-04 JL   Remove Colossus 249 header comments. Change to double-has page numbers.
000013:                                                                                                  ##              2011-02-07 JL   Minor fixes.
000014:


000016:                                                                                                  #           THE FOLLOWING SUBROUTINE MAY BE CALLED TO DISPLAY A NON-ABORTIVE ALARM CONDITION. IT MAY BE CALLED
000017:                                                                                                  #  EITHER IN INTERRUPT OR UNDER EXECUTIVE CONTROL.
000018:
000019:                                                                                                  #           CALLING SEQUENCE IS AS FOLLOWS:
000020:
000021:                                                                                                  #           TC     ALARM
000022:                                                                                                  #           OCT    AAANN           ALARM NO. NN IN GENERAL AREA AAA.
000023:                                                                                                  #                                  (RETURNS HERE)
000024:
000025:    5537                                           BLOCK    02
000026:    4000                                           SETLOC   FFTAG7
000027:    4000                                           BANK
000028:
000029:    5537     0375                                  EBANK=   FAILREG
000030:
000031:    5537                                           COUNT    02/ALARM
000032:
000033:                                                                                                  #  ALARM TURNS ON THE PROGRAM ALARM LIGHT, BUT DOES NOT DISPLAY.
000034:
000035:    5537           00004        ALARM              INHINT
000036:
000037:    5540           30002                           CA       Q
000038:    5541           55363        ALARM2             TS       ALMCADR
000039:    5542           50002                           INDEX    Q
000040:    5543           30000                           CA       0
000041:    5544           54001        BORTENT            TS       L
000042:
000043:    5545           30006        PRIOENT            CA       BBANK
000044:    5546           00006                 +1        EXTEND
000045:    5547           04007                           ROR      SUPERBNK                              #  ADD SUPER BITS.
000046:    5550           55364                           TS       ALMCADR    +1
000047:
000048:    5551           30002        LARMENT            CA       Q                                     #  STORE RETURN FOR ALARM
000049:    5552           54061                           TS       ITEMP1
000050:
000051:    5553           10375        CHKFAIL1           CCS      FAILREG                               #  IS ANYTHING IN FAILREG
000052:    5554           15557                           TCF      CHKFAIL2                              #  YES TRY NEXT REG
000053:    5555           22375                           LXCH     FAILREG
000054:    5556           15571                           TCF      PROGLARM                              #  TURN ALARM LIGHT ON FOR FIRST ALARM
000055:
000056:    5557           10376        CHKFAIL2           CCS      FAILREG    +1
000057:    5560           15563                           TCF      FAIL3
000058:    5561           22376                           LXCH     FAILREG    +1
000059:    5562           15574                           TCF      MULTEXIT
000060:
000061:    5563           30377        FAIL3              CA       FAILREG    +2
000062:    5564           74672                           MASK     POSMAX
000063:    5565           10000                           CCS      A
000064:    5566           15600                           TCF      MULTFAIL
000065:    5567           22377                           LXCH     FAILREG    +2


000067:    5570           15574                           TCF      MULTEXIT
000068:
000069:    5571           41036        PROGLARM           CS       DSPTAB     +11D
000070:    5572           75612                           MASK     OCT40400
000071:    5573           27036                           ADS      DSPTAB     +11D
000072:
000073:    5574           56061        MULTEXIT           XCH      ITEMP1                                #  OBTAIN RETURN ADDRESS IN A
000074:    5575           00003                           RELINT
000075:    5576           50000                           INDEX    A
000076:    5577           00001                           TC       1
000077:
000078:    5600           30001        MULTFAIL           CA       L
000079:    5601           64674                           AD       BIT15
000080:    5602           54377                           TS       FAILREG    +2
000081:
000082:    5603           15574                           TCF      MULTEXIT
000083:
000084:                                                                                                  #  PRIOLARM DISPLAYS V05N09 VIA PRIODSPR WITH 3 RETURNS TO THE USER FROM THE ASTRONAUT AT CALL LOC +1,+2,+3 AND
000085:                                                                                                  #  AN IMMEDIATE RETURN TO THE USER AT CALL LOC +4. EXAMPLE FOLLOWS,
000086:                                                                                                  #                                                   CAF    OCTXX           ALARM CODE
000087:                                                                                                  #                                                   TC     BANKCALL
000088:                                                                                                  #                                                   CADR   PRIOLARM
000089:
000090:                                                                                                  #                                                   ...    ...
000091:                                                                                                  #                                                   ...    ...
000092:                                                                                                  #                                                   ...    ...             ASTRONAUT RETURN
000093:                                                                                                  #                                                   TC     PHASCHNG        IMMEDIATE RETURN TO USER. RESTART
000094:                                                                                                  #                                                   OCT    X.1             PHASE CHANGE FOR PRIO DISPLAY
000095:
000096: 10,3671                                           BANK     10
000097: 10,2000                                           SETLOC   DISPLAYS
000098: 10,2000                                           BANK
000099:
000100: 10,3671                                           COUNT    10/DSPLA
000101:
000102: 10,3671           00004        PRIOLARM           INHINT                                         #  * * * KEEP IN DISPLAY ROUTINES BANK
000103: 10,3672           54001                           TS       L                                     #  SAVE ALARM CODE
000104:
000105: 10,3673           30133                           CA       BUF2                                  #  2 CADR OF PRIOLARM USER
000106: 10,3674           55363                           TS       ALMCADR
000107: 10,3675           30134                           CA       BUF2       +1
000108: 10,3676           05546                           TC       PRIOENT    +1                         #  * LEAVE L ALONE
000109: 10,3677           77467        -2SEC              DEC      -200       B-14                       #  *** DONT MOVE
000110: 10,3700           34743                           CAF      V05N09
000111: 10,3701           12632                           TCF      PRIODSPR
000112:
000113:    5604                                           BLOCK    02
000114:    4000                                           SETLOC   FFTAG7
000115:    4000                                           BANK
000116:


000118:    5604                                           COUNT    02/ALARM
000119:
000120:    5604           00004        BAILOUT            INHINT
000121:    5605           30002                           CA       Q
000122:    5606           55363                           TS       ALMCADR
000123:
000124:    5607           50002                           INDEX    Q
000125:    5610           30000                           CAF      0
000126:    5611           05544                           TC       BORTENT
000127:    5612           40400        OCT40400           OCT      40400
000128:
000129:    5613           00004                           INHINT
000130:    5614           34711        WHIMPER            CA       TWO
000131:    5615           60005                           AD       Z
000132:    5616           54017                           TS       BRUPT
000133:    5617           50017                           RESUME
000134:    5620           04574                           TC       POSTJUMP                              #  RESUME SENDS CONTROL HERE
000135:    5621           12632                           CADR     ENEMA
000136:    5622           00004        POODOO             INHINT
000137:    5623           30002                           CA       Q
000138:    5624           55363        ABORT2             TS       ALMCADR
000139:    5625           50002                           INDEX    Q
000140:    5626           30000                           CAF      0
000141:    5627           05544                           TC       BORTENT
000142:    5630           77770        OCT77770           OCT      77770                                 #  DONT MOVE
000143:    5631           44712                           CS       BIT1
000144:    5632           70075                           MASK     FLAGWRD1
000145:    5633           54075                           TS       FLAGWRD1                              #  RESET AVEGFLAG
000146:    5634           44705                           CS       BIT6
000147:    5635           70103                           MASK     FLAGWRD7
000148:    5636           54103                           TS       FLAGWRD7                              #  RESET V37FLAG
000149:
000150:    5637           04555                           TC       BANKCALL
000151:    5640           12465                           CADR     MR.KLEAN
000152:    5641           05614                           TC       WHIMPER
000153:
000154:    5642           00004        CCSHOLE            INHINT
000155:    5643           30002                           CA       Q
000156:    5644           05624                           TC       ABORT2
000157:    5645           01103        OCT1103            OCT      1103
000158:    5646           00004        CURTAINS           INHINT
000159:    5647           30002                           CA       Q
000160:    5650           05541                           TC       ALARM2
000161:    5651           00217        OCT217             OCT      00217
000162:    5652           01363                           TC       ALMCADR                               #  RETURN TO USER
000163:
000164:    5653     5112               DOALARM            EQUALS   ENDOFJOB
000165:                                                                                                  #  CALLING SEQUENCE FOR VARALARM
000166:
000167:                                                                                                  #                                                   CAF    (ALARM)


000169:                                                                                                  #                                                   TC     VARALARM
000170:
000171:                                                                                                  #  VARALARM TURNS ON PROGRAM ALARM LIGHT BUT DOES NOT DISPLAY
000172:    5653           00004        VARALARM           INHINT
000173:
000174:    5654           54001                           TS       L                                     #  SAVE USERS ALARM CODE
000175:
000176:    5655           30002                           CA       Q                                     #  SAVE USERS Q
000177:    5656           55363                           TS       ALMCADR
000178:
000179:    5657           05545                           TC       PRIOENT
000180:    5660           00014        OCT14              OCT      14                                    #  DONT MOVE
000181:
000182:    5661           01363                           TC       ALMCADR                               #  RETURN TO USER
000183:
000184:    5662     5604               ABORT              EQUALS   BAILOUT                               #  *** TEMPORARY UNTIL ABORT CALLS OUT

End of include-file ALARM_AND_ABORT.agc.  Parent file is MAIN.agc


