
Source Code


000002:                                                                                                  ## Copyright:   Public domain.
000003:                                                                                                  ## Filename:    AUTOMATIC_MANEUVERS.agc
000004:                                                                                                  ## Purpose:     Part of the source code for Colossus build 237.
000005:                                                                                                  ##              This is for the Command Module's (CM) Apollo Guidance
000006:                                                                                                  ##              Computer (AGC), we believe for Apollo 8.
000007:                                                                                                  ## Assembler:   yaYUL
000008:                                                                                                  ## Contact:     Onno Hommes <ohommes@alumni.cmu.edu>
000009:                                                                                                  ## Website:     www.ibiblio.org/apollo/index.html
000010:                                                                                                  ## Page Scans:  www.ibiblio.org/apollo/ScansForConversion/Colossus237/
000011:                                                                                                  ## Mod history: 2010-06-01 OH   Adapted from corresponding Colossus 249 file.
000012:                                                                                                  ##              2010-12-04 JL   Remove Colossus 249 header comments. Change to double-has page numbers.
000013:                                                                                                  ##              2011-02-11 JL   Minor fixes.
000014:


000016: 21,3234                                           BANK     21
000017: 21,2000                                           SETLOC   DAPS3
000018: 21,2000                                           BANK
000019:
000020: 21,3234                                           COUNT    21/DAPAM
000021:
000022: 21,3234  E6,1510                                  EBANK=   KMPAC
000023: 21,3234           00006        AHFNOROT           EXTEND
000024: 21,3235           00031                           READ     CHAN31
000025: 21,3236           74675                           MASK     BIT14
000026: 21,3237           00006                           EXTEND
000027: 21,3240           63256                           BZMF     FREECONT
000028: 21,3241           31501                           CA       RCSFLAGS                              #  SEE IF RATE FILTER HAS BEEN INITIALIZED
000029: 21,3242           74675                           MASK     BIT14
000030: 21,3243           10000                           CCS      A                                     #  IF SO, PROCEED WITH ATTITUDE CONTROL
000031: 21,3244           12520                           TCF      REINIT                                #  IF NOT, RECYCLE TO INITIALIZE FILTER
000032:                                                                                                  #                                          AUTOMATIC CONTROL YET
000033: 21,3245           00006                           EXTEND
000034: 21,3246           00031                           READ     CHAN31
000035: 21,3247           74676                           MASK     BIT13
000036: 21,3250           00006                           EXTEND
000037: 21,3251           63356                           BZMF     HOLDFUNC
000038:
000039:
000040: 21,3252           31332        AUTOCONT           CA       HOLDFLAG                              #  IF HOLDFLAG IS +, GO TO GRABANG.
000041: 21,3253           00006                           EXTEND                                         #  OTHERWISE, GO TO ATTHOLD.
000042: 21,3254           63306                           BZMF     ATTHOLD
000043: 21,3255           13362                           TCF      GRABANG
000044:
000045:                                                                                                  #          MINIMUM IMPULSE CONTROL
000046:
000047: 21,3256           34712        FREECONT           CAF      ONE
000048: 21,3257           55332                           TS       HOLDFLAG                              #  RESET HOLDFLAG
000049:                                                                                                  #                                          INHIBIT AUTOMATIC STEERING
000050: 21,3260           00006                           EXTEND
000051: 21,3261           00032                           READ     CHAN32
000052: 21,3262           54001                           TS       L
000053: 21,3263           40000                           COM
000054: 21,3264           73022                           MASK     MANROT
000055: 21,3265           71633                           MASK     CHANTEMP
000056: 21,3266           23633                           LXCH     CHANTEMP
000057: 21,3267           03114                           TC       STICKCHK
000058: 21,3270           51656                           INDEX    RMANNDX
000059: 21,3271           33302                           CA       MINTAU                                #  MINTAU  +0
000060: 21,3272           55561                           TS       TAU                                   #             +1   +14MS MINIMUM IMPULSE
000061: 21,3273           51657                           INDEX    PMANNDX                               #             +2   -14MS TIME
000062: 21,3274           33302                           CA       MINTAU                                #             +3   +0
000063: 21,3275           55562                           TS       TAU1
000064: 21,3276           51660                           INDEX    YMANNDX
000065: 21,3277           33302                           CA       MINTAU


000067: 21,3300           55563                           TS       TAU2
000068: 21,3301           13053                           TCF      T6PROGM
000069:
000070:
000071: 21,3302           00000        MINTAU             DEC      0          B-14
000072: 21,3303           00027                           DEC      23         B-14                       #  = 14MS
000073: 21,3304           77750                           DEC      -23        B-14                       #  = -14MS
000074: 21,3305           00000                           DEC      0          B-14
000075:


000077:                                                                                                  #        CALCULATION OF ATTITUDE ERRORS-
000078:
000079:                                                                                                  #           -    *     -      -          -
000080:                                                                                                  #           AK = AMGB (CDUX - THETADX) + BIAS
000081:
000082:                                                                                                  #  IE       *AK *   * 1   SIN(PSI)            0     ** CDUX - THETADX *    *BIAS *
000083:                                                                                                  #           *   *   *                               **                *    *     *
000084:                                                                                                  #           *AK1* = * 0   COS(PSI)COS(PHI)  SIN(PHI)** CDUY - THETADY *  + *BIAS1*
000085:                                                                                                  #           *   *   *                               **                *    *     *
000086:                                                                                                  #           *AK2*   * 0  -COS(PSI)SIN(PHI)  COS(PHI)** CDUZ - THETADZ *    *BIAS2*
000087:
000088:
000089:                                                                                                  #        THE BIASES ARE ADDED ONLY WHILE PERFORMING AUTOMATIC MANEUVERS (ESP KALCMANU) TO PROVIDE ADDITIONAL LEAD
000090:                                                                                                  #  AND PREVENT OVERSHOOT WHEN STARTING AN AUTOMATIC MANEUVER. NORMALLY THE REQUIRED LEAD IS ONLY 1-2 DEGREES.
000091:                                                                                                  #  BUT DURING HIGH RATE MANEUVERS IT CAN BE AS MUCH AS 7 DEGREES. THE BIASES ARE COMPUTED BY KALCMANU AND REMAIN
000092:                                                                                                  #  FIXED UNTIL THE MANEUVER IS COMPLETED AT WHICH TIME THEY ARE RESET TO ZERO.
000093:
000094: 21,3306           30032        ATTHOLD            CA       CDUX
000095: 21,3307           00006                           EXTEND
000096: 21,3310           21572                           MSU      THETADX
000097: 21,3311           55567                           TS       ERRORX
000098: 21,3312           30033                           CA       CDUY
000099: 21,3313           00006                           EXTEND
000100: 21,3314           21573                           MSU      THETADY
000101: 21,3315           55502                           TS       T5TEMP
000102: 21,3316           00006                           EXTEND
000103: 21,3317           71640                           MP       AMGB1
000104: 21,3320           27567                           ADS      ERRORX
000105: 21,3321           31502                           CA       T5TEMP
000106: 21,3322           00006                           EXTEND
000107: 21,3323           71641                           MP       AMGB4
000108: 21,3324           55570                           TS       ERRORY
000109: 21,3325           31502                           CA       T5TEMP
000110: 21,3326           00006                           EXTEND
000111: 21,3327           71643                           MP       AMGB7
000112: 21,3330           55571                           TS       ERRORZ
000113: 21,3331           30034                           CA       CDUZ
000114: 21,3332           00006                           EXTEND
000115: 21,3333           21574                           MSU      THETADZ
000116: 21,3334           55502                           TS       T5TEMP
000117: 21,3335           00006                           EXTEND
000118: 21,3336           71642                           MP       AMGB5
000119: 21,3337           27570                           ADS      ERRORY
000120: 21,3340           31502                           CA       T5TEMP
000121: 21,3341           00006                           EXTEND
000122: 21,3342           71644                           MP       AMGB8
000123: 21,3343           27571                           ADS      ERRORZ
000124: 21,3344           41332                           CS       HOLDFLAG
000125: 21,3345           00006                           EXTEND


000127: 21,3346           63425                           BZMF     JETS
000128: 21,3347           31564                           CA       BIAS                                  #  AD BIASES ONLY IF PERFORMING AUTOMATIC
000129: 21,3350           27567                           ADS      ERRORX
000130: 21,3351           31565                           CA       BIAS1
000131: 21,3352           27570                           ADS      ERRORY
000132: 21,3353           31566                           CA       BIAS2
000133: 21,3354           27571                           ADS      ERRORZ
000134: 21,3355           13425                           TCF      JETS
000135:
000136:
000137: 21,3356           11332        HOLDFUNC           CCS      HOLDFLAG
000138: 21,3357           13362                           TCF      +3
000139: 21,3360           13306                           TCF      ATTHOLD
000140: 21,3361           13362                           TCF      +1
000141: 21,3362           34714        GRABANG            CAF      ZERO                                  #  ZERO WBODYS AND BIASES
000142: 21,3363           55525                           TS       WBODY
000143: 21,3364           55526                           TS       WBODY      +1
000144: 21,3365           55527                           TS       WBODY1
000145: 21,3366           55530                           TS       WBODY1     +1
000146: 21,3367           55531                           TS       WBODY2
000147: 21,3370           55532                           TS       WBODY2     +1
000148: 21,3371           55564                           TS       BIAS
000149: 21,3372           55565                           TS       BIAS1
000150: 21,3373           55566                           TS       BIAS2
000151:
000152: 21,3374           31501                           CA       RCSFLAGS
000153: 21,3375           73023                           MASK     OCT16000
000154: 21,3376           00006                           EXTEND                                         #  IS RATE DAMPING COMPLETED
000155: 21,3377           13405                           BZF      ENDDAMP                               #  IF SO, GO TO ENDDAMP
000156: 21,3400           34714                           CAF      ZERO                                  #  OTHERWISE, ZERO ERRORS
000157: 21,3401           55567                           TS       ERRORX
000158: 21,3402           55570                           TS       ERRORY
000159: 21,3403           55571                           TS       ERRORZ
000160: 21,3404           13425                           TCF      JETS
000161:
000162: 21,3405           55332        ENDDAMP            TS       HOLDFLAG                              #  SET HOLDFLAG +0
000163: 21,3406           00006                           EXTEND
000164: 21,3407           30033                           DCA      CDUX                                  #  PICK UP CDU ANGLES FOR ATTITUDE HOLD
000165: 21,3410           53573                           DXCH     THETADX                               #  REFERENCES
000166: 21,3411           30034                           CA       CDUZ
000167: 21,3412           55574                           TS       THETADZ
000168: 21,3413           13306                           TCF      ATTHOLD
000169:


000171:                                                                                                  #  JET SWITCHING LOGIC AND CALCULATION OF REQUIRED ROTATION COMMANDS
000172:
000173:                                                                                                  #  DETERMINE THE LOCATION OF THE RATE ERROR AND THE ATTITUDE ERROR RELATIVE TO THE SWITCHING LOGIC IN THE PHASE
000174:                                                                                                  #  PLANE.
000175:                                                                                                  #  COMPUTE THE CHANGE IN RATE CORRESPONDING TO THE ATTITUDE ERROR NECESSARY TO DRIVE THE S/C INTO THE
000176:                                                                                                  #  APPROPRIATE DEADZONE.
000177:
000178:
000179:                                                                                                  #                                      .
000180:                                                                                                  #    R22                          RATE . ERROR
000181:                                                                                                  #         WL+H                         .
000182:                                                                                                  #  *********************************   .                                   ***** SWITCH LINES ENCLOSING DEADZONES
000183:                                                                                                  #    R23  WL                        *  .
000184:                                                                                                  #  --------------------------------- * .                                   ----- DESIRED RATE LINES
000185:                                                                                                  #    R23  WL-H       -                *.
000186:                                                                                                  #  ****************** -                .                                   R20, R21, R22, ETC  REGIONS IN PHASE
000187:                                                                                                  #                    * -               .* R18      R20       R21           PLANE FOF COMPUTING DESIRED RESPONSE
000188:                                                                                                  #                     *                . *
000189:                                                                                                  #                      *-              .  *
000190:                                                                                                  #    R22             R24*-             .   *
000191:                                                                                                  #                        *             .    *
000192:                                                                                                  #                         *            .     *
000193:                                                                                                  #                          + -ADB      .      * AF              ATTITUDE
000194:                                                                                                  #   ........................+--+---------------+--+........................
000195:                                                                                                  #                            AF *      .     +ADB  +             ERROR
000196:                                                                                                  #                                *     .            *
000197:                                                                                                  #                                 *    .            -*
000198:                                                                                                  #                                  *   .             -*
000199:                                                                                                  #                                   *  .              -*
000200:                                                                                                  #                                    * .                *
000201:                                                                                                  #                                     *.               - *
000202:                                                                                                  #                                      .                - *****************
000203:                                                                                                  #                                      .*                -
000204:                                                                                                  #                                      . * --------------------------------
000205:                                                                                                  #                                      .  *
000206:                                                                                                  #                                      .   ********************************
000207:                                                                                                  #                                      .
000208:
000209:                                                                                                  #                      FIG. 1   PHASE PLANE SWITCHING LOGIC
000210:
000211:
000212:                                                                                                  #          CONSTANTS FOR JET SWITCHING LOGIC
000213:
000214: 21,3414           00114        WLH/SLOP           DEC      .00463                                #  = WL+H/SLOPE = .83333 DEG       $180
000215: 21,3415           00055        WL-H/SLP           DEC      .00277                                #  = WL-H/SLOPE = .5 DEG           $180
000216: 21,3416           00022 06426  WLH                2DEC     .0011111111                            #  = WL+H = 0.5 DEG/SEC            $450
000217: 21,3420           00012 35415  WLMH               2DEC     .0006666666                            #  = WL-H = 0.3 DEG/SEC            $450
000218: 21,3422           00016 22021  WL                 2DEC     .0008888888                            #  = WL   = 0.4 DEG/SEC            $450
000219:


000221: 21,3424           12173        SLOPE2             DEC      .32                                   #  = 0.8 DEG/SEC/DEG               $450/180
000222: 21,3425           31655        JETS               CA       ADB
000223: 21,3426           64710                           AD       FOUR                                  #  AF = FLAT REGION = .044 DEG
000224: 21,3427           55502                           TS       T5TEMP                                #  ADB+AF
000225: 21,3430           34711                           CAF      TWO
000226: 21,3431           55506        JLOOP              TS       SPNDX
000227: 21,3432           60000                           DOUBLE
000228: 21,3433           55507                           TS       DPNDX
000229: 21,3434           00006                           EXTEND
000230: 21,3435           50000                           INDEX    A
000231: 21,3436           31534                           DCA      ADOT
000232: 21,3437           53516                           DXCH     EDOT
000233: 21,3440           31332                           CA       HOLDFLAG                              #  HOLDFLAG = +0 MEANS THAT DAP IS IN
000234: 21,3441           00006                           EXTEND                                         #  ATTITUDE HOLD AND RATE DAMPING IS OVER.
000235: 21,3442           13447                           BZF      INHOLD                                #  IF THIS IS THE CASE, BYPASS ADDITION
000236:                                                                                                  #                                          OF WBODY AND GO TO INHOLD
000237: 21,3443           00006                           EXTEND
000238: 21,3444           51507                           INDEX    DPNDX
000239: 21,3445           41526                           DCS      WBODY
000240: 21,3446           21516                           DAS      EDOT                                  #  = ADOT-WBODY
000241: 21,3447           51506        INHOLD             INDEX    SPNDX
000242: 21,3450           31567                           CA       ERRORX
000243: 21,3451           55517                           TS       AERR                                  #  AERR = BIAS + AK
000244:
000245: 21,3452           11515                           CCS      EDOT
000246: 21,3453           13463                           TCF      POSVEL
000247: 21,3454           13456                           TCF      SIGNCK1
000248: 21,3455           13473                           TCF      NEGVEL
000249: 21,3456           11516        SIGNCK1            CCS      EDOT       +1
000250: 21,3457           13463                           TCF      POSVEL
000251: 21,3460           13463                           TCF      POSVEL
000252: 21,3461           13473                           TCF      NEGVEL
000253: 21,3462           13473                           TCF      NEGVEL
000254: 21,3463           00006        POSVEL             EXTEND
000255: 21,3464           31516                           DCA      EDOT
000256: 21,3465           53521                           DXCH     EDOTVEL
000257: 21,3466           31502                           CA       T5TEMP
000258: 21,3467           55523                           TS       ADBVEL                                #  +(ADB+AF)
000259: 21,3470           31517                           CA       AERR
000260: 21,3471           55522                           TS       AERRVEL
000261: 21,3472           03502                           TC       J6.
000262: 21,3473           00006        NEGVEL             EXTEND
000263: 21,3474           41516                           DCS      EDOT
000264: 21,3475           53521                           DXCH     EDOTVEL
000265: 21,3476           41502                           CS       T5TEMP
000266: 21,3477           55523                           TS       ADBVEL                                #  -(ADB+AF)
000267: 21,3500           41517                           CS       AERR
000268: 21,3501           55522                           TS       AERRVEL
000269:
000270: 21,3502           00006        J6.                EXTEND


000272: 21,3503           61655                           SU       ADB
000273: 21,3504           63414                           AD       WLH/SLOP
000274: 21,3505           00006                           EXTEND
000275: 21,3506           63535                           BZMF     J8
000276:
000277: 21,3507           41502                           CS       T5TEMP                                #  (ADB+AF)
000278: 21,3510           61522                           AD       AERRVEL
000279: 21,3511           00006                           EXTEND
000280: 21,3512           63514                           BZMF     +2
000281: 21,3513           13526                           TCF      J7
000282: 21,3514           00006                           EXTEND
000283: 21,3515           41521                           DCS      EDOTVEL
000284: 21,3516           00006                           EXTEND
000285: 21,3517           11654                           DV       SLOPE
000286: 21,3520           00006                           EXTEND
000287: 21,3521           61522                           SU       AERRVEL
000288: 21,3522           61655                           AD       ADB
000289: 21,3523           00006                           EXTEND
000290: 21,3524           63614                           BZMF     J18
000291: 21,3525           13670                           TCF      J23
000292:
000293: 21,3526           43415        J7                 CS       WL-H/SLP
000294: 21,3527           00006                           EXTEND
000295: 21,3530           61502                           SU       T5TEMP                                #  (ADB+AF)
000296: 21,3531           61522                           AD       AERRVEL
000297: 21,3532           00006                           EXTEND
000298: 21,3533           63620                           BZMF     J20
000299: 21,3534           13631                           TCF      J21
000300:
000301: 21,3535           00006        J8                 EXTEND
000302: 21,3536           43417                           DCS      WLH
000303: 21,3537           53514                           DXCH     WTEMP
000304: 21,3540           00006                           EXTEND
000305: 21,3541           31521                           DCA      EDOTVEL
000306: 21,3542           21514                           DAS      WTEMP
000307: 21,3543           11513                           CCS      WTEMP
000308: 21,3544           13657                           TCF      J22
000309: 21,3545           13547                           TCF      SIGNCK2
000310: 21,3546           13553                           TCF      NJ22
000311: 21,3547           11514        SIGNCK2            CCS      WTEMP      +1
000312: 21,3550           13657                           TCF      J22
000313: 21,3551           13657                           TCF      J22
000314: 21,3552           13553                           TCF      NJ22
000315:
000316: 21,3553           00006        NJ22               EXTEND
000317: 21,3554           31521                           DCA      EDOTVEL
000318: 21,3555           00006                           EXTEND
000319: 21,3556           11654                           DV       SLOPE
000320: 21,3557           61502                           AD       T5TEMP                                #  (ADB+AF)
000321: 21,3560           61522                           AD       AERRVEL


000323: 21,3561           10000                           CCS      A
000324: 21,3562           13670                           TCF      J23
000325: 21,3563           13670                           TCF      J23
000326: 21,3564           13566                           TCF      +2
000327: 21,3565           13670                           TCF      J23
000328:
000329: 21,3566           00006                           EXTEND
000330: 21,3567           43421                           DCS      WLMH                                  #  WL - H
000331: 21,3570           53514                           DXCH     WTEMP
000332: 21,3571           00006                           EXTEND
000333: 21,3572           31521                           DCA      EDOTVEL
000334: 21,3573           21514                           DAS      WTEMP
000335: 21,3574           11513                           CCS      WTEMP
000336: 21,3575           13670                           TCF      J23
000337: 21,3576           13600                           TCF      SIGNCK3
000338: 21,3577           13604                           TCF      NJ23
000339: 21,3600           11514        SIGNCK3            CCS      WTEMP      +1
000340: 21,3601           13670                           TCF      J23
000341: 21,3602           13670                           TCF      J23
000342: 21,3603           13604                           TCF      NJ23
000343:
000344: 21,3604           31522        NJ23               CA       AERRVEL
000345: 21,3605           61502                           AD       T5TEMP                                #  (ADB+AF)
000346: 21,3606           63415                           AD       WL-H/SLP
000347: 21,3607           10000                           CCS      A
000348: 21,3610           13702                           TCF      J24
000349: 21,3611           13702                           TCF      J24
000350: 21,3612           13657                           TCF      J22
000351: 21,3613           13657                           TCF      J22
000352:
000353: 21,3614           00006        J18                EXTEND
000354: 21,3615           41516                           DCS      EDOT
000355: 21,3616           53511                           DXCH     KMPAC
000356: 21,3617           13713                           TCF      JTIME
000357:
000358: 21,3620           41517        J20                CS       AERR
000359: 21,3621           61523                           AD       ADBVEL
000360: 21,3622           00006                           EXTEND
000361: 21,3623           73424                           MP       SLOPE2                                #   (HYSTERESIS SLOPE)
000362: 21,3624           53511                           DXCH     KMPAC
000363: 21,3625           00006                           EXTEND
000364: 21,3626           41516                           DCS      EDOT
000365: 21,3627           21511                           DAS      KMPAC
000366: 21,3630           13713                           TCF      JTIME
000367:
000368: 21,3631           11515        J21                CCS      EDOT
000369: 21,3632           13650                           TCF      JP
000370: 21,3633           13635                           TCF      SIGNCK4
000371: 21,3634           13641                           TCF      JN
000372: 21,3635           11516        SIGNCK4            CCS      EDOT       +1


000374: 21,3636           13650                           TCF      JP
000375: 21,3637           13650                           TCF      JP
000376: 21,3640           13641                           TCF      JN
000377: 21,3641           00006        JN                 EXTEND
000378: 21,3642           41516                           DCS      EDOT
000379: 21,3643           53511                           DXCH     KMPAC
000380: 21,3644           00006                           EXTEND
000381: 21,3645           33423                           DCA      WL
000382: 21,3646           21511                           DAS      KMPAC
000383: 21,3647           13713                           TCF      JTIME
000384:
000385: 21,3650           00006        JP                 EXTEND
000386: 21,3651           41516                           DCS      EDOT
000387: 21,3652           53511                           DXCH     KMPAC
000388: 21,3653           00006                           EXTEND
000389: 21,3654           43423                           DCS      WL
000390: 21,3655           21511                           DAS      KMPAC
000391: 21,3656           13713                           TCF      JTIME
000392:
000393: 21,3657           11515        J22                CCS      EDOT
000394: 21,3660           13641                           TCF      JN
000395: 21,3661           13663                           TCF      SIGNCK5
000396: 21,3662           13650                           TCF      JP
000397: 21,3663           11516        SIGNCK5            CCS      EDOT       +1
000398: 21,3664           13641                           TCF      JN
000399: 21,3665           13641                           TCF      JN
000400: 21,3666           13650                           TCF      JP
000401: 21,3667           13650                           TCF      JP
000402:
000403: 21,3670           51506        J23                INDEX    SPNDX
000404: 21,3671           44676                           CS       BIT13                                 #  RESET RATE DAMPING FLAG
000405: 21,3672           71501                           MASK     RCSFLAGS                              #  BIT13 FOR ROLL  (SPNDX = 0)
000406: 21,3673           55501                           TS       RCSFLAGS                              #  BIT12 FOR PITCH (SPNDX = 1)
000407:                                                                                                  #                                          BIT11 FOR YAW   (SPNDX = 2)
000408:
000409: 21,3674           51506                           INDEX    SPNDX
000410: 21,3675           33017                           CAF      OCT01400                              #  IS THERE TO BE A FORCED FIRING ON THIS
000411: 21,3676           71501                           MASK     RCSFLAGS                              #  AXIS
000412: 21,3677           00006                           EXTEND
000413: 21,3700           13734                           BZF      DOJET      +2                         #  NO, GO TO DOJET +2 AND DO NOTHING
000414:
000415: 21,3701           13614                           TCF      J18                                   #  YES, GO TO J18 AND FORCE A FIRING
000416:
000417: 21,3702           41517        J24                CS       AERR
000418: 21,3703           00006                           EXTEND
000419: 21,3704           61523                           SU       ADBVEL
000420: 21,3705           00006                           EXTEND
000421: 21,3706           73424                           MP       SLOPE2                                #   (HYSTERESIS SLOPE)
000422: 21,3707           53511                           DXCH     KMPAC
000423: 21,3710           00006                           EXTEND


000425: 21,3711           41516                           DCS      EDOT
000426: 21,3712           21511                           DAS      KMPAC
000427:


000429:                                                                                                  #       COMPUTE THE JET ON TIME NECESSARY TO ACCOMPLISH THE DESIRED CHANGE IN RATE, IE
000430:
000431:                                                                                                  #           T  = J/M(DELTA W)
000432:                                                                                                  #            J
000433:
000434:                                                                                                  #     DELTA W = DESIRED CHANGE IN S/C ANGULAR RATE AS DETERMINED BY THE
000435:                                                                                                  #               SWITCHING LOGIC,  AT THIS PINT STORED IN KMPAC.
000436:
000437:                                                                                                  #         J/M = S/C INERTIA TO TORQUE 9ATIO  SCALED BY
000438:                                                                                                  #                 (57.3/450)(B24/1600)(1/.8)
000439:                                                                                                  #               FOR 1 JET OPERATION  (M = 700 FT-LB).
000440:                                                                                                  #               IE  J/M = J(SLUG-FTFT) x 0.00000085601606
000441:
000442:                                                                                                  #               THE CORRESPONDING COMPUTER VARIABLES ESTABLISHED BY
000443:                                                                                                  #               KEYBOARD ENTRY ARE
000444:                                                                                                  #                  J/M (ROLL)
000445:                                                                                                  #                  J/M1 (PITCH)
000446:                                                                                                  #                  J/M2 (YAW)
000447:
000448:                                                                                                  #          T  = JET-ON TIME     SCALED 16384/1600 SEC
000449:                                                                                                  #           J
000450:
000451:                                                                                                  #               THE COMPUTER VARIABLES ARE
000452:                                                                                                  #                  TAU  (ROLL)
000453:                                                                                                  #                  TAU1 (PITCH)
000454:                                                                                                  #                  TAU2 (YAW)
000455:
000456:
000457: 21,3713           51506        JTIME              INDEX    SPNDX                                 #  PICK UP S/C INERTIA/TORQUE RATIO
000458: 21,3714           31623                           CA       J/M                                   #  SCALED (57.3/450)(B24/1600)
000459: 21,3715           02026                           TC       SMALLMP                               #  FOR 1-JET OPERATION
000460: 21,3716           34700                           CA       BIT11
000461: 21,3717           02026                           TC       SMALLMP
000462: 21,3720           11510                           CCS      KMPAC
000463: 21,3721           13725                           TCF      +4
000464: 21,3722           13731                           TCF      TAUNORM
000465: 21,3723           13727                           TCF      +4
000466: 21,3724           13731                           TCF      TAUNORM
000467: 21,3725           34672                           CA       POSMAX
000468: 21,3726           13732                           TCF      DOJET
000469: 21,3727           34674                           CA       NEGMAX
000470: 21,3730           13732                           TCF      DOJET
000471:
000472: 21,3731           31511        TAUNORM            CA       KMPAC      +1
000473: 21,3732           51506        DOJET              INDEX    SPNDX
000474: 21,3733           55561                           TS       TAU
000475: 21,3734           11506                           CCS      SPNDX
000476: 21,3735           13431                           TCF      JLOOP
000477: 21,3736           13743                           TCF      T6PROG
000478:


000480: 21,3737           34714        ZEROCMDS           CAF      ZERO
000481: 21,3740           55561                           TS       TAU
000482: 21,3741           55562                           TS       TAU1
000483: 21,3742           55563                           TS       TAU2
000484: 21,3743           00006        T6PROG             EXTEND                                         #  WHEN THE ROTATION COMMANDS (TAUS)
000485: 21,3744           33750                           DCA      JETADDR                               #  HAVE BEEN DETERINED
000486: 21,3745           53313                           DXCH     T5LOC                                 #  RESET T5LOC FOR PHASE3
000487: 21,3746           15222                           TCF      RESUME
000488:
000489: 21,3747  E6,1510                                  EBANK=   KMPAC
000490: 21,3747           02601 36066  JETADDR            2CADR    JETSLECT

End of include-file AUTOMATIC_MANEUVERS.agc.  Parent file is MAIN.agc


