
Source Code


000002:                                                                                                  ## Copyright:   Public domain.
000003:                                                                                                  ## Filename:    CM_ENTRY_DIGITAL_AUTOPILOT.agc
000004:                                                                                                  ## Purpose:     Part of the source code for Colossus build 237.
000005:                                                                                                  ##              This is for the Command Module's (CM) Apollo Guidance
000006:                                                                                                  ##              Computer (AGC), for Apollo 8.
000007:                                                                                                  ## Assembler:   yaYUL
000008:                                                                                                  ## Contact:     Jim Lawton <jim DOT lawton AT gmail DOT com>
000009:                                                                                                  ## Website:     www.ibiblio.org/apollo/index.html
000010:                                                                                                  ## Page Scans:  www.ibiblio.org/apollo/ScansForConversion/Colossus237/
000011:                                                                                                  ## Mod history: 2011-04-09 JL   Adapted from corresponding Colossus 249 file.
000012:                                                                                                  ##              2011-04-17 JL   Removed temporary line.
000013:                                                                                                  ##              2011-04-27 JL   Fixed symbol name.
000014:                                                                                                  ##              2011-04-29 JL   Had = instead of DEC.
000015:                                                                                                  ##              2016-11-02 RSB  Typo (offset-target +4 was not indented).
000016:                                                                                                  ##              2017-01-01 RSB  Proofed comment text using octopus/ProoferComments,
000017:                                                                                                  ##                              and fixed errors found.
000018:                                                                                                  ##              2017-01-07 RSB  Fixed comment errors detected in cross-diff vs
000019:                                                                                                  ##                              Colossus 249.
000020:                                                                                                  ##              2017-03-16 RSB  Comment-text fixes identified in 5-way
000021:                                                                                                  ##                              side-by-side diff of Luminary 69/99/116/131/210.
000022:                                                                                                  ##              2017-03-16 RSB  Comment-text fixes identified in 4-way side-by-side
000023:                                                                                                  ##                              diff of Colossus237/249/Comanche55/Artemis72.
000024:


000026:                                                                                                  #  SUBROUTINE TO READ GYMBAL ANGLES AND FORM DIFFERENCES.   GIMBAL ANGLES ARE SAVED IN 2S COMPLEMENT, BUT THE
000027:                                                                                                  #  DIFFERENCES ARE IN 1S COMP.     ENTER AND READ ANGLES EACH .1 SEC.
000028:
000029:                                                                                                  #           CM/DSTBY = 1  FOR DAP OPERATION
000030:                                                                                                  #           CM/DSTBY = 0 TO TERMINATE DAP OPERATION.
000031:
000032: 15,2454                                           BANK     15
000033:
000034: 15,2000                                           SETLOC   ETRYDAP
000035: 15,2000                                           BANK
000036:
000037: 15,2454                                           COUNT    15/DAPEN
000038:
000039: 15,2454  E6,1661                                  EBANK=   AOG
000040:
000041: 15,2454           34377        READGYMB           CA       TEN                                   #  KEEP RESTART DT GOING RELATIVE TO
000042: 15,2455           27725                           ADS      CM/GYMDT                              #  PIPTIME. (GROUP 6)
000043:
000044:                                                                                                  #                               IF A RESTART OCCURS, SKIP PRESENT CYCLE. THE
000045:                                                                                                  #                               PHASCHNG PROTECTION IS IN CM/DAPIC.
000046:
000047: 15,2456           34705                           CA       BIT6                                  #  CHECK FOR FINE ALIGN MODE OF CDU.
000048: 15,2457           71321                           MASK     IMODES33                              #  ( PROTECT AOG/PIP ETC AS WELL AS
000049: 15,2460           00006                           EXTEND                                         #   GIMBAL DIFFERENCES)
000050: 15,2461           12467                           BZF      READGYM1                              #  OK
000051:
000052: 15,2462           44712                           CS       BIT1                                  #  NOT IN FINE ALIGN, SO IDLE.
000053: 15,2463           70102                           MASK     CM/FLAGS                              #  SET GYMDIFSW = 0
000054: 15,2464           54102                           TS       CM/FLAGS
000055: 15,2465           06000                           TC       FLUSHJET                              #  QUENCH JETS, SINCE MAY BE A WHILE.
000056: 15,2466           02534                           TC       CM/GYMIC   +2
000057:
000058: 15,2467           30032        READGYM1           CA       CDUX
000059: 15,2470           57661                           XCH      AOG
000060: 15,2471           00006                           EXTEND
000061: 15,2472           21661                           MSU      AOG                                   #  -DELAOG=AOG(N-1) - AOG(N)
000062: 15,2473           55675                           TS       -DELAOG
000063:
000064: 15,2474           30033                           CA       CDUY
000065: 15,2475           57662                           XCH      AIG
000066: 15,2476           00006                           EXTEND
000067: 15,2477           21662                           MSU      AIG
000068: 15,2500           55676                           TS       -DELAIG
000069:
000070: 15,2501           30034                           CA       CDUZ
000071: 15,2502           57663                           XCH      AMG
000072: 15,2503           00006                           EXTEND
000073: 15,2504           21663                           MSU      AMG
000074: 15,2505           55677                           TS       -DELAMG
000075:


000077: 15,2506           40102        DOBRATE?           CS       CM/FLAGS                              #  CM/DSTBY=103D BIT2  GYMDIFSW=104D BIT1
000078: 15,2507           76214                           MASK     THREE
000079: 15,2510           50000                           INDEX    A
000080: 15,2511           02512                           TC       +1
000081: 15,2512           02521                           TC       DOBRATE                               #  OK, GO ON
000082: 15,2513           02532                           TC       CM/GYMIC                              #  DONT CALC BODYRATE ON FIRST PASS.
000083: 15,2514           12515                           NOOP
000084: 15,2515           06000                           TC       FLUSHJET                              #  TURN OFF ALL JETS
000085:
000086: 15,2516           05301                           TC       PHASCHNG
000087: 15,2517           00006                           OCT      00006                                 #  DEACTIVATE DAP GROUP 6.
000088:
000089: 15,2520           05213                           TC       TASKOVER
000090:
000091: 15,2521           34712        DOBRATE            CA       ONE                                   #  DO BODYRATE
000092: 15,2522           55720        DOBRATE1           TS       JETEM                                 #  SKIP BODYRATE.
000093:
000094: 15,2523           34377                           CA       TEN                                   #  KEEP CDU READ GOING.
000095: 15,2524           05140                           TC       WAITLIST
000096: 15,2525  E6,1661                                  EBANK=   AOG
000097: 15,2525           02454 32066                     2CADR    READGYMB
000098:
000099:                                                                                                  #                               DOES NOT PROTECT TEMK, SQ IN SPSIN/COS
000100:
000101: 15,2527           11720                           CCS      JETEM
000102: 15,2530           02556                           TC       BODYRATE
000103: 15,2531           05213                           TC       TASKOVER                              #  SKIP CALC ON INITIAL PASS. (PASSES)
000104:
000105: 15,2532           26102        CM/GYMIC           ADS      CM/FLAGS                              #  GYMDIFSW: C(A)=1, KNOW BIT IS 0
000106: 15,2533           34714                           CAF      ZERO
000107: 15,2534           55711                           TS       JETAG
000108: 15,2535           55706                           TS       OLDELP
000109: 15,2536           55707                           TS       OLDELQ
000110: 15,2537           55710                           TS       OLDELR
000111: 15,2540           55723                           TS       GAMDOT                                #  NO GYM DIF, PROB NO GAM DIF.
000112: 15,2541           02522                           TC       DOBRATE1
000113:


000115:                                                                                                  #  COME HERE TO CORRECT FOR OVERFLOW IN ANGULAR CALCULATIONS
000116:
000117: 15,2542           54001        ANGOVCOR           TS       L                                     #  THIS COSTS 2 MCT TO USE.
000118: 15,2543           00002                           TC       Q                                     #  NO OVFL
000119: 15,2544           50000                           INDEX    A
000120: 15,2545           34673                           CAF      LIMITS
000121: 15,2546           26001                           ADS      L
000122: 15,2547           00002                           TC       Q
000123:
000124:    6000                                           BLOCK    3
000125:
000126:    6000                                           COUNT    03/DAPEN
000127:
000128:    6000           30007        FLUSHJET           CA       7                                     #  COME HERE TO TURN OFF ALL JETS.
000129:    6001           00006                           EXTEND
000130:    6002           01006                           WRITE    ROLLJETS                              #  ZERO CHANNEL 6
000131:    6003           00006                           EXTEND
000132:    6004           01005                           WRITE    PYJETS                                #  ZERO CHANNEL 5
000133:    6005           00002                           TC       Q
000134:
000135: 15,2550                                           BANK     15
000136:
000137: 15,2550                                           COUNT    15/DAPEN
000138:
000139: 15,2000                                           SETLOC   ETRYDAP
000140: 15,2000                                           BANK
000141:
000142: 15,2550           40000        RATEAVG            COM                                            #  SUBROUTINE TO ESTIMATE RATES IN PRESENCE
000143: 15,2551           61720                           AD       JETEM                                 #  OF CONSTANT ACCELERATION.
000144: 15,2552           00006                           EXTEND
000145: 15,2553           74675                           MP       HALF                                  #  DELV (EST) = DELV +(DELV-OLDELV)/2
000146: 15,2554           61720                           AD       JETEM
000147: 15,2555           00002                           TC       Q
000148:


000150:                                                                                                  #   THESE ARE CALLED FOR THE VARIOUS INITIALIZATIONS NEEDED.
000151:
000152: 20,3550                                           BANK     20
000153: 20,2000                                           SETLOC   DAPS1
000154: 20,2000                                           BANK
000155:
000156: 20,3550                                           COUNT    20/DAPEN
000157:
000158: 20,3550  E6,1661                                  EBANK=   AOG
000159:
000160: 20,3550           34752        CM/DAPON           CA       EBAOG
000161: 20,3551           54003                           TS       EBANK
000162:
000163: 20,3552           05447                           TC       DOWNFLAG                              #  RESET DAPBIT1.  T5 RESTART IDENTIFIER.
000164: 20,3553           00132                           ADRES    DAPBIT1                               #  BIT 15  FLAG 6           CM FLAGS.
000165: 20,3554           05447                           TC       DOWNFLAG                              #  RESET DAPBIT2
000166: 20,3555           00133                           ADRES    DAPBIT2                               #  BIT 14  FLAG 6
000167: 20,3556           00006                           EXTEND
000168: 20,3557           33675                           DCA      T5IDLER1                              #  DISABLE RCS CALCULATION
000169: 20,3560           53313                           DXCH     T5LOC
000170: 20,3561           00006                           EXTEND
000171: 20,3562           33675                           DCA      T5IDLER1                              #  DISABLE RCS JET CALLS
000172: 20,3563           53311                           DXCH     T6LOC
000173:
000174: 20,3564           06000                           TC       FLUSHJET                              #  JETS DEPARTED  ON SM. ZERO JET BITS.
000175:
000176: 20,3565           47707                           CS       13,14,15
000177: 20,3566           71466                           MASK     DAPDATR1                              #  SET  CONFIG  BITS =0 FOR ENTRY
000178: 20,3567           55466                           TS       DAPDATR1
000179: 20,3570           03574                           TC       +4
000180:
000181: 20,3571           34731        NOTYET             CA       .5SEC
000182: 20,3572           04555                           TC       BANKCALL
000183: 20,3573           01730                           CADR     DELAYJOB                              #  (DELAYJOB DOES INHINT)
000184: 20,3574           34700                 +4        CA       BIT11                                 #  GAMDIFSW = 94D BIT11,  INITLY=0
000185: 20,3575           70102                           MASK     CM/FLAGS                              #  IF ZERO, WAIT UNTIL CM/POSE UPDATE.
000186: 20,3576           00006                           EXTEND
000187: 20,3577           13571                           BZF      NOTYET
000188:
000189: 20,3600           44712                           CS       ONE                                   #  ACTIVATE CM/DAP
000190: 20,3601           55501                           TS       RCSFLAGS                              #  USE BIT3 TO INITIALIZE NEEDLER ON
000191:                                                                                                  #                                          NEXT PASS.
000192: 20,3602           55727                           TS       P63FLAG                               #  SO WAKEP62 WILL NOT BE INITIATED UNTIL
000193:                                                                                                  #                                          HEADSUP IS SET IN P62.
000194:                                                                                                  #                               FLAG TO PREVENT MULTIPLE CALLS TO WAKEP62.
000195:
000196: 20,3603           30007                           CA       7
000197: 20,3604           55711                           TS       JETAG
000198: 20,3605           55713                           TS       PAXERR1                               #  KEEP NEEDLES ZERO UNTIL DAP UPDATE
000199:                                                                                                  #                                          IN CASE CMDAPMOD IS NOT +1.


000201: 20,3606           00004                           INHINT
000202: 20,3607           00006                           EXTEND
000203: 20,3610           31666                           DCA      ALFA/180                              #  DO ATTITUDE HOLD UNTIL KEYBOARD
000204: 20,3611           53604                           DXCH     ALFACOM                               #  ESTABLISHES HEADSUP.
000205: 20,3612           31664                           CA       ROLL/180
000206: 20,3613           55717                           TS       ROLLHOLD                              #  FOR ATTITUDE HOLD IN MODE +1.
000207: 20,3614           00006                           EXTEND
000208: 20,3615           74675                           MP       HALF
000209: 20,3616           55715                           TS       ROLLC                                 #  NOT INTERESTED IN LO WORD.
000210:
000211: 20,3617           40102                           CS       CM/FLAGS
000212: 20,3620           74677                           MASK     BIT12                                 #  CMDAPARM =93D BIT12  INITLY=0
000213: 20,3621           26102                           ADS      CM/FLAGS                              #  SET BIT TO 1.
000214:
000215: 20,3622           40076                           CS       FLAGWRD2                              #  SET  NODOFLAG  TO PREVENT FURTHER
000216: 20,3623           74712                           MASK     BIT1                                  #  V 37 ENTRIES.
000217: 20,3624           26076                           ADS      FLAGWRD2
000218:
000219: 20,3625           00003                           RELINT
000220:
000221: 20,3626           04574                           TC       POSTJUMP
000222: 20,3627           54342                           CADR     P62.1
000223:


000225:                                                                                                  #  INITIALIZE CM/DAP.   WAITLIST CALL FOR READGYMB.  SET SWITCH CM/DSTBY =1
000226:                                                                                                  #  SO READACCS WILL ENTER A WTLST CALL FOR  SETJTAG  .
000227:                                                                                                  #   CMDAPARM  = 0   , SO ONLY BODY RATE AND ATTITUDE CALCULATIONS ARE DONE.
000228:                                                                                                  #  SET AVEGEXIT TO CONTINUE AT CM/POSE
000229:
000230:
000231: 20,3630           34752        CM/DAPIC           CA       EBAOG
000232: 20,3631           54003                           TS       EBANK
000233:
000234: 20,3632           00004                           INHINT
000235: 20,3633           41205        CM/DAP2C           CS       PIPTIME    +1
000236:                                                                                                  #                                          PRIO OF P62 L PRIO AVG,:PIPTM=PIPTM1
000237: 20,3634           55720                           TS       JETEM
000238:
000239: 20,3635           34675                           CA       POS1/2
000240: 20,3636           64675                           AD       POS1/2
000241: 20,3637           60025                           AD       TIME1                                 #  OVFL GUARANTEED
000242: 20,3640           27720                           ADS      JETEM                                 #  C(A) = DELTA TIME SINCE PIPUP
000243:
000244: 20,3641           44715                           CS       FIVE
000245: 20,3642           61720                           AD       JETEM
000246: 20,3643           10000                           CCS      A
000247: 20,3644           63673                           AD       -CDUT+1
000248: 20,3645           13643                           TCF      -2
000249: 20,3646           13647                           NOOP
000250: 20,3647           64712                           AD       ONE                                   #  SEND NO ZERO TO WTLST
000251: 20,3650           55725                           TS       CM/GYMDT                              #  FOR RESTART
000252: 20,3651           05140                           TC       WAITLIST
000253: 20,3652  E6,1661                                  EBANK=   AOG
000254: 20,3652           02454 32066                     2CADR    READGYMB
000255:
000256: 20,3654           43672                           CS       CM/SWIC1                              #  GAMDIFSW, GYMDIFSW, CM/DSTBY
000257: 20,3655           70102                           MASK     CM/FLAGS                              #  DAPARM, .05GSW, LATSW, ENTRYDSP
000258: 20,3656           64377                           AD       CM/SWIC2                              #  SET CM/DSTBY, LATSW
000259:                                                                                                  #                                          DISABLE ENTRY DISPLAY, SINCE DES. GIMB.
000260:                                                                                                  #                                          CALC. (P62.3) GOES TO ENDEXIT.
000261: 20,3657           54102                           TS       CM/FLAGS
000262:
000263: 20,3660           30007                           CA       7
000264: 20,3661           55666                           TS       BETA/180                              #  NECESSARY: NO OVFL CORRECTION
000265: 20,3662           34712                           CA       ONE                                   #  INITIALIZE THE TM OF BODY RATES VIA
000266: 20,3663           54305                           TS       SW/NDX                                #    UPBUFF.
000267:
000268: 20,3664           05261                           TC       2PHSCHNG                              #  DOES INHINT/RELINT
000269: 20,3665           40116                           OCT      40116                                 #  SAVE TBASE6
000270: 20,3666           05024                           OCT      05024
000271: 20,3667           13000                           OCT      13000
000272:
000273: 20,3670           04574                           TC       POSTJUMP


000275: 20,3671           54326                           CADR     P62.2
000276:
000277: 20,3672           16017        CM/SWIC1           OCT      16017
000278: 20,3673     4377               CM/SWIC2           =        TEN                                   #  00012 : CM/DSTBY, LATSW
000279: 20,3673           77766        -CDUT+1            OCT      77766
000280: 20,3674     1312                                  EBANK=   T5LOC
000281: 20,3674           03132 12062  T5IDLER1           2CADR    T5IDLOC
000282:


000284:                                                                                                  #  THIS SECTION CALCULATES THE ANGULAR BODY RATES EACH .1 SEC.  THE ANGULAR RATES ARE THOSE ALONG THE BODY AXES
000285:                                                                                                  #  XB, YB, ZB, AND ARE NORMALLY DESIGNATED  P, Q, R.       REQUIREMENT:  TEMPORARY ERASE. JETEM, JETEM +1
000286:
000287:                                                                                                  #           SINCE RESTARTS ZERO THE JET OUTPUT CHANNELS, NO ATTEMPT IS MADE TO RESTART THE  ENTRY DAPS. THAT IS,
000288:                                                                                                  #  THE 0.1 SEC DAPS WILL MISS A CYCLE, AND WILL PICK UP AT THE NEXT 0.1 SEC UPDATE. MOST OF THE TIME THE 2 SEC
000289:                                                                                                  #  ROLL SYSTEM WILL MISS ONLY 0.1 SEC OF CONTROL. HOWEVER IF THE RESTART OCCURS AFTER THE  SECTION TIMETST HAS
000290:                                                                                                  #  STARTED, THEN THE ROLL SYSTEM WILL MISS ONE CYCLE.
000291:                                                                                                  #  THIS IS NECESSARY UNDER THE GROUNDRULE THAT NO JET COMMANDS SHALL BE LESS THAN 14 MS.
000292:
000293: 20,3676  E6,1661                                  EBANK=   AOG
000294: 15,2556                                           BANK     15
000295: 15,2000                                           SETLOC   ETRYDAP
000296: 15,2000                                           BANK
000297:
000298: 15,2556                                           COUNT    15/DAPEN
000299:
000300: 15,2556           31663        BODYRATE           CA       AMG                                   #  THESE ARE 2S COMPL NOS, BUT USE ANYWAY.
000301: 15,2557           04767                           TC       SPCOS
000302: 15,2560           55511                           TS       COSM
000303:
000304: 15,2561           31661                           CA       AOG                                   #  C(AOG) = AOG/180
000305: 15,2562           04770                           TC       SPSIN                                 #  SINO
000306: 15,2563           55512                           TS       SINO                                  #  SINO = SIN(AOG)
000307:
000308: 15,2564           00006                           EXTEND
000309: 15,2565           71511                           MP       COSM
000310: 15,2566           55514                           TS       SINOCOSM                              #  SO CM
000311:
000312: 15,2567           31661                           CA       AOG
000313: 15,2570           04767                           TC       SPCOS                                 #  COSO
000314: 15,2571           55513                           TS       COSO
000315:
000316: 15,2572           00006                           EXTEND
000317: 15,2573           71511                           MP       COSM
000318: 15,2574           55515                           TS       COSOCOSM                              #  CO CM
000319:
000320:                                                                                                  #  PITCHDOT:    Q TCDU/180 = IDOT TCDU/180 COSO COSM + MDOT TCDU/180 SINO
000321:
000322: 15,2575           41677                           CS       -DELAMG
000323: 15,2576           00006                           EXTEND
000324: 15,2577           71512                           MP       SINO
000325: 15,2600           53721                           DXCH     JETEM                                 #  2 LOCS _
000326: 15,2601           41676                           CS       -DELAIG
000327: 15,2602           00006                           EXTEND
000328: 15,2603           71515                           MP       COSOCOSM
000329: 15,2604           21721                           DAS      JETEM
000330: 15,2605           31720                           CA       JETEM
000331: 15,2606           57707                           XCH      OLDELQ
000332: 15,2607           02550                           TC       RATEAVG
000333: 15,2610           55702                           TS       QREL                                  #  PITCHDOT = Q TCDU/180
000334:


000336:                                                                                                  #  YAWDOT:   R TCDU/180 = -IDOT TCDU/180 COSM SINO + MDOT TCDU/180 COSO
000337:
000338: 15,2611           41677                           CS       -DELAMG
000339: 15,2612           00006                           EXTEND
000340: 15,2613           71513                           MP       COSO
000341: 15,2614           53721                           DXCH     JETEM
000342: 15,2615           31676                           CA       -DELAIG
000343: 15,2616           00006                           EXTEND
000344: 15,2617           71514                           MP       SINOCOSM
000345: 15,2620           21721                           DAS      JETEM
000346: 15,2621           31720                           CA       JETEM
000347: 15,2622           57710                           XCH      OLDELR
000348: 15,2623           02550                           TC       RATEAVG
000349: 15,2624           55703                           TS       RREL                                  #  YAWDOT = R TCDU/180
000350:
000351:                                                                                                  #  ROLLDOT:   P TCDU/180 = ODOT TCDU/180 + IDOT TCDU/180 SINM
000352:
000353: 15,2625           31663                           CA       AMG
000354: 15,2626           04770                           TC       SPSIN
000355: 15,2627           55510                           TS       SINM
000356:
000357: 15,2630           00006                           EXTEND
000358: 15,2631           71676                           MP       -DELAIG
000359: 15,2632           55720                           TS       JETEM
000360: 15,2633           34714                           CA       ZERO
000361: 15,2634           20001                           DDOUBL                                         #  ROUND L INTO A
000362: 15,2635           61675                           AD       -DELAOG
000363: 15,2636           61720                           AD       JETEM
000364: 15,2637           40000                           CS       A
000365: 15,2640           55720                           TS       JETEM
000366: 15,2641           57706                           XCH      OLDELP
000367: 15,2642           02550                           TC       RATEAVG
000368: 15,2643           55701                           TS       PREL                                  #  ROLLDOT = P TCDU/180
000369:
000370:                                                                                                  #                               IF GAMDOT  < 0.5 DEG/SEC, THEN GAMDOT =0
000371:
000372: 15,2644           11723                           CCS      GAMDOT
000373: 15,2645           02647                           TC       +2
000374: 15,2646           02671                           TC       NOGAMDUT
000375: 15,2647           41664                           CS       ROLL/180
000376: 15,2650           04770                           TC       SPSIN
000377: 15,2651           00006                           EXTEND
000378: 15,2652           71723                           MP       GAMDOT
000379: 15,2653           55721                           TS       JETEM      +1                         #  -SR GAMDOT
000380: 15,2654           00006                           EXTEND
000381: 15,2655           71507                           MP       SALFA                                 #  SIN(ALFA)
000382: 15,2656           27701                           ADS      PREL                                  #  PREL TCDU/180=(P-SALF SR GAMDOT)TCDU/180
000383:
000384: 15,2657           31664                           CA       ROLL/180
000385: 15,2660           04767                           TC       SPCOS


000387: 15,2661           40000                           COM
000388: 15,2662           00006                           EXTEND
000389: 15,2663           71723                           MP       GAMDOT
000390: 15,2664           27702                           ADS      QREL                                  #  QREL TCDU/180=(Q-CR GAMDOT) TCDU/180
000391:
000392: 15,2665           41721                           CS       JETEM      +1                         #  B( ) = -SR GAMDOT
000393: 15,2666           00006                           EXTEND
000394: 15,2667           71506                           MP       CALFA                                 #  COS(ALFA)
000395: 15,2670           27703                           ADS      RREL                                  #  RREL TCDU/180=(R+CALF SR GAMDOT)TCDU/180
000396:
000397: 15,2671           34677        NOGAMDUT           CA       BIT12                                 #  CMDAPARM = 93D  BIT 12
000398: 15,2672           70102                           MASK     CM/FLAGS
000399: 15,2673           00006                           EXTEND
000400: 15,2674           15213        STBYDUMP           BZF      TASKOVER                              #  DAP NOT ARMED.
000401:
000402: 15,2675           34672                           CA       POSMAX                                #  PICK UP AT ATTRATES IN 10 MS OR SO.
000403: 15,2676           54030                           TS       TIME5
000404:
000405: 15,2677           00006                           EXTEND
000406: 15,2700           32704                           DCA      ATDOTCAD
000407: 15,2701           53313                           DXCH     T5LOC
000408:                                                                                                  #                               DOES NOT PROTECT TEMK, SQ IN SPSIN/COS
000409:
000410: 15,2702           05213                           TC       TASKOVER
000411:
000412: 15,2703  E6,1661                                  EBANK=   AOG
000413: 15,2703           02705 32066  ATDOTCAD           2CADR    ATTRATES
000414:


000416:                                                                                                  #  CALCULATE BODY ATTITUDE RATES AND INTEGRATE TO OBTAIN ATTITUDE ANGLES.
000417:
000418:                                                                                                  #           CB PHIDOT TCDU/180 = (CA PREL + SA RREL) TCDU/180
000419:                                                                                                  #           BETADOT TCDU/180 = (-SA PREL + CA RREL) TCDU/180
000420:                                                                                                  #           ALFADOT TCDU = (QREL + SB PHIDOT) TCDU/180
000421:
000422: 15,2705           22016        ATTRATES           LXCH     BANKRUPT                              #  CONTINUE HERE VIA T5
000423: 15,2706           00006                           EXTEND                                         #  TASK MAY BE SKIPPED AT RESTART.
000424: 15,2707           22012                           QXCH     QRUPT
000425: 15,2710           30021                           CA       SR
000426: 15,2711           60000                           DOUBLE
000427: 15,2712           55623                           TS       CM/SAVE
000428:                                                                                                  #                               DOES NOT PROTECT TEMK, SQ IN SPSIN/COS
000429:
000430: 15,2713           31702                           CA       QREL
000431: 15,2714           61665                           AD       ALFA/180
000432: 15,2715           02542                           TC       ANGOVCOR
000433: 15,2716           55665                           TS       ALFA/180
000434: 15,2717           04767                           TC       SPCOS
000435: 15,2720           55506                           TS       CALFA                                 #  CALFA
000436: 15,2721           55705                           TS       PHIDOT
000437:
000438: 15,2722           00006                           EXTEND
000439: 15,2723           71701                           MP       PREL
000440: 15,2724           57705                           XCH      PHIDOT                                #  CA PREL
000441: 15,2725           00006                           EXTEND
000442: 15,2726           71703                           MP       RREL                                  #  CA RREL
000443: 15,2727           55704                           TS       BETADOT
000444:
000445: 15,2730           31665                           CA       ALFA/180
000446: 15,2731           04770                           TC       SPSIN
000447: 15,2732           55507                           TS       SALFA                                 #  SIN(ALFA)
000448:
000449: 15,2733           00006                           EXTEND
000450: 15,2734           71703                           MP       RREL                                  #  SA RREL
000451: 15,2735           27705                           ADS      PHIDOT                                #  CB PHIDOT, SAVED.
000452:
000453: 15,2736           41507                           CS       SALFA
000454: 15,2737           00006                           EXTEND
000455: 15,2740           71701                           MP       PREL
000456: 15,2741           27704                           ADS      BETADOT                               #  SAVE BETADOT TCDU/180
000457: 15,2742           27666                           ADS      BETA/180                              #  BETA DONE.
000458:
000459: 15,2743           04770                           TC       SPSIN
000460: 15,2744           00006                           EXTEND
000461: 15,2745           71705                           MP       PHIDOT                                #  NEGLECT CB IN  CB PHIDOT
000462: 15,2746           61665                           AD       ALFA/180
000463: 15,2747           02542                           TC       ANGOVCOR
000464: 15,2750           55665                           TS       ALFA/180                              #  ALFA DONE.
000465:


000467: 15,2751           40000                           COM
000468: 15,2752           61603                           AD       ALFACOM
000469: 15,2753           02542                           TC       ANGOVCOR                              #  JUST IN CASE ...
000470: 15,2754           55477                           TS       AK1
000471: 15,2755           55572                           TS       QAXERR                                #  FOR PITCH FDAI   AND EDIT.
000472:
000473: 15,2756           31705                           CA       PHIDOT                                #  PHIDOT TCDU/180, NEGLECTING CB
000474: 15,2757           61664                           AD       ROLL/180
000475: 15,2760           02542                           TC       ANGOVCOR
000476: 15,2761           55714                           TS       ROLLTM                                #  ROLL/180 FOR TM.
000477: 15,2762           55664                           TS       ROLL/180                              #  ROLL DONE.
000478:
000479:                                                                                                  #      START YAW AUTOPILOT HERE .  RATE DAMPING WITH ENFORCED COORDINATED ROLL MANEUVER.
000480:
000481: 15,2763           34710                           CA       BIT3                                  #  .05GSW =102D BIT3        SW=0, LESS .05G
000482: 15,2764           70102                           MASK     CM/FLAGS                              #  SWITCH =1, GREATER THAN .05 G
000483: 15,2765           00006                           EXTEND
000484: 15,2766           13053                           BZF      EXDAP                                 #  IF G LESS THAN .05
000485: 15,2767           44712                           CS       ONE                                   #  IF G GEQ  THAN .05
000486: 15,2770           55700                           TS       CMDAPMOD                              #  SAVE -1 FOR USE IN CM/RCS
000487:
000488: 15,2771           55477                           TS       AK1                                   #  TO ZERO PITCH AND YAW FDAI NEEDLES
000489: 15,2772           55500                           TS       AK2                                   #  IN ATM.  (MODE =-1)
000490:
000491: 15,2773           31704                           CA       BETADOT
000492: 15,2774           00006                           EXTEND
000493: 15,2775           11506                           DV       CALFA
000494: 15,2776           03043                           TC       2D/SDZ                                #  GO TEST DZ. GET TAG: +0 IF IN DZ
000495: 15,2777           50000                           INDEX    A                                     #  +/- 1 IF NOT
000496: 15,3000           33215                           CAF      YJETCODE
000497:
000498: 15,3001           55720                           TS       JETEM
000499:
000500:                                                                                                  #     START PITCH AUTOPILOT HERE.  RATE DAMPING ONLY.
000501:
000502: 15,3002           31702                           CA       QREL
000503: 15,3003           03043                           TC       2D/SDZ
000504: 15,3004           50000        EXDAPIN            INDEX    A                                     #  COME HERE FROM EX ATM DAP
000505: 15,3005           33220                           CAF      P/RJCODE
000506: 15,3006           27720                           ADS      JETEM                                 #  COMBINE ALL NEW BITS.
000507:
000508: 15,3007           00006                           EXTEND                                         #  DOES NOT REQUIRE SAVING OLD CODES.
000509: 15,3010           01005                           WRITE    PYJETS                                #  SET PYCHAN TO DESIRED BIT CONFIG.
000510:
000511: 15,3011           11711                           CCS      JETAG
000512: 15,3012           03231                           TC       CM/RCS
000513: 15,3013           03677                           TC       CM/FDAI
000514: 15,3014           03677                           TC       CM/FDAI
000515:


000517:                                                                                                  #  DEAD ZONE LOGIC USED BY ENTRY DIGITAL AUTOPILOTS.
000518:
000519: 15,3015           10000        3DDZ               CCS      A                                     #  YAWLIM=1.0-3/180=16384-273=16111
000520: 15,3016           63212                           AD       YAWLIM
000521: 15,3017           13047                           TCF      DZCOM
000522: 15,3020           63212                           AD       YAWLIM
000523: 15,3021           13050                           TCF      DZNOCOM
000524:
000525:                                                                                                  #                               BIASED DZ FOR EXT ATM DAP.
000526: 15,3022           55624        BIASEDZ            TS       JETEM2                                #  SAVE RATE/180. ERROR/180 IS IN L.
000527: 15,3023           10000                           CCS      A                                     #  START ERROR DZ.
000528: 15,3024           43211                           CS       CM/BIAS                               #  = .6/180
000529: 15,3025           13027                           TCF      +2
000530: 15,3026           33211                           CA       CM/BIAS
000531: 15,3027           60001                           AD       L                                     #  BIAS THE ERROR.
000532: 15,3030           22002                           LXCH     Q                                     #  SAVE CALLERS RETURN ADDRESS.
000533: 15,3031           03015                           TC       3DDZ                                  #  GO GENERATE THE ERROR BIT.
000534: 15,3032           52002                           DXCH     L                                     #  BIT TO L, RESTORE CALLERS Q.
000535: 15,3033           11624        4D/SDZ             CCS      JETEM2                                #  CAME HERE IN EXT ATM. C(L) = ERROR BIT
000536: 15,3034           63207                           AD       4D/SLIM                               #  IF RATE GEQ 4D/S, SET L=0 AND TAKE
000537: 15,3035           13037                           TCF      +2                                    #  JET BITS ACCORDING TO SGN OF RATE.
000538: 15,3036           63207                           AD       4D/SLIM
000539: 15,3037           54000                           TS       A
000540: 15,3040           13042                           TCF      +2                                    #  RATE OK. CONTINUE
000541: 15,3041           22007                           ZL                                             #  RATE GEQ 4 D/S. OVER RIDE ERROR BIT
000542: 15,3042           57624                           XCH      JETEM2                                #  AND CONTINUE TO GET SIGN.
000543:
000544: 15,3043           10000        2D/SDZ             CCS      A                                     #  COME HERE TO TEST IF A WITHIN 2DEG/S DZ
000545: 15,3044           63210                           AD       YDOTLIM                               #  1.0 - YDOT DZ        ( OR PDOT)
000546: 15,3045           13050                           TCF      +3
000547: 15,3046           63210                           AD       YDOTLIM                               #  YDOT DZ = 2 DEG/SEC
000548: 15,3047           40000        DZCOM              COM
000549: 15,3050           55721        DZNOCOM            TS       JETEM      +1                         #  GENERATE TAG, SET C(A)= -+1 OUTSIDE DZ
000550: 15,3051           34714                           CA       ZERO                                  #  SET C(A) = +0 INSIDE
000551: 15,3052           00002                           TC       Q
000552:


000554:                                                                                                  #           EXTRA ATMOSPHERIC DIGITAL AUTOPILOT
000555:
000556:                                                                                                  #           1.    IF ABS(CALF) -C(45) POS, USE                             IF CALFA POS, CMDAPMOD= +0
000557:                                                                                                  #             BETA:   YAW ERROR = SGN(CALF) (BETACOM -BETA)                IF CALFA NEG, CMDAPMOD =-0
000558:                                                                                                  #                          RATE = BETADOT                                  IF CMDAPMOD =-0, RATE =  RREL
000559:                                                                                                  #                        R-AXIS = CONTROL
000560:
000561:                                                                                                  #             ROLL:   ROLL ERROR = SGN(CALF) (ROLLC - ROLL)                IF CMDAPMOD = -0, RATE DAMP ONLY.
000562:                                                                                                  #                          RATE = PREL
000563:                                                                                                  #                        P-AXIS = CONTROL
000564:
000565:                                                                                                  #           2.    IF C(45) GEQ CALFA GEQ -C(45), USE                       CMDAPMOD = +1
000566:                                                                                                  #             BETA:   ROLL ERROR = SGN(-SALF) (BETACOM -BETA)
000567:                                                                                                  #                          RATE = BETADOT
000568:                                                                                                  #                        P-AXIS = CONTROL
000569:
000570:                                                                                                  #             ROLL:   YAW ERROR = SGN(SALF) (ROLLC - ROLL)                 RATE DAMP ONLY.
000571:                                                                                                  #                          RATE = RREL
000572:                                                                                                  #                        R-AXIS = CONTROL
000573:
000574:                                                                                                  #           3.    FOR ALL CASES, USE
000575:                                                                                                  #             ALFA:   PITCH ERROR = (ALFACOM - ALFA)
000576:                                                                                                  #                          RATE = QREL
000577:                                                                                                  #                        Q-AXIS = CONTROL
000578:
000579:
000580:
000581: 15,3053           55700        EXDAP              TS       CMDAPMOD                              #  +0 FOR NOW
000582: 15,3054           41666                           CS       BETA/180
000583: 15,3055           61604                           AD       BETACOM
000584: 15,3056           55721                           TS       JETEM      +1                         #  PRESERVE THIS FOR A WHILE.
000585:
000586: 15,3057           11506                           CCS      CALFA
000587: 15,3060           63213                           AD       C45LIM                                #  =1.0-COS(45)
000588: 15,3061           13063                           TCF      +2
000589: 15,3062           63213                           AD       C45LIM
000590: 15,3063           54000                           TS       A
000591: 15,3064           13143                           TCF      EXDAP2                                #  HERE IF ABS(CALFA)  L  COS(45)
000592:
000593: 15,3065           11727                           CCS      P63FLAG
000594: 15,3066           03101                           TC       EXDAP4
000595: 15,3067           03071                           TC       +2
000596: 15,3070           03101                           TC       EXDAP4
000597: 15,3071           05301                           TC       PHASCHNG                              #  SINGLE PASS THROUGH HERE.
000598: 15,3072           40334                           OCT      40334
000599: 15,3073           44712                           CS       ONE
000600: 15,3074           55727                           TS       P63FLAG                               #  SET FLAG TO ASSURE SINGLE PASS.
000601: 15,3075           33206                           CA       NSEC
000602: 15,3076           05140                           TC       WAITLIST
000603: 15,3077  E6,1661                                  EBANK=   AOG


000605: 15,3077           02374 54066                     2CADR    WAKEP62                               #  CALL TO TERMINATE P62 IN N SEC.
000606:
000607:                                                                                                  #                                          65 DEG/ 3DEG/SEC = 21 SEC NOMINAL
000608:                                                                                                  #                                          TRANSIT TIME FROM ALFA=45 TO ALFA TRIM.
000609:
000610: 15,3101           11711        EXDAP4             CCS      JETAG                                 #  ROLLJET INTERFACE TEST BETWEEN .1 SEC
000611: 15,3102           13110                           TCF      EXDAP3                                #  DAP AND THE 2 SEC CM/RCS DAP
000612: 15,3103           13110                           TCF      EXDAP3
000613: 15,3104           34714                           CA       ZERO
000614: 15,3105           00006                           EXTEND                                         #  TURN OFF ROLL JETS IF ON AND WAIT
000615: 15,3106           01006                           WRITE    ROLLJETS                              #  UNTIL START OF 2 SEC CM/RCS CYCLE
000616: 15,3107           55711                           TS       JETAG                                 #  RESTORE PROPER VALUE +0
000617:
000618:                                                                                                  #                               ROLL FDAI WILL BE IN ERROR UNTIL NEXT CM/RCS CALL.
000619: 15,3110           11506        EXDAP3             CCS      CALFA                                 #  HERE IF ABS(CALFA) GEQ COS(45)
000620: 15,3111           31721                           CA       JETEM      +1
000621: 15,3112           13116                           TCF      EXDAP1
000622: 15,3113           44714                           CS       ZERO
000623: 15,3114           55700                           TS       CMDAPMOD                              #  FOR CM/RCS
000624: 15,3115           41721                           CS       JETEM      +1
000625: 15,3116           55573        EXDAP1             TS       RAXERR                                #  FOR YAW FDAI
000626: 15,3117           55500                           TS       AK2                                   #  WANT RAXERR FOR TM.
000627: 15,3120           54001                           TS       L
000628: 15,3121           11700                           CCS      CMDAPMOD                              #  COORDINATE BETA CONTROL.
000629: 15,3122           03125                           TC       +3                                    #  C(CMDAPMOD) CAN BE +1, +0, OR -0.
000630: 15,3123           34712                           CA       ONE                                   #  USE BETADOT TO COORD IN MODE +0
000631: 15,3124           50000                           INDEX    A                                     #  OTHERWISE USE RREL.
000632: 15,3125           31703                           CA       RREL
000633: 15,3126           03022                           TC       BIASEDZ                               #  GO TEST DZ. +0 IF IN DZ, +-1 OTHERWISE
000634:                                                                                                  #                                          IF GEQ 4D/S, SET ERROR BIT IN L =0)
000635: 15,3127           00006                           EXTEND
000636: 15,3130           04001                           ROR      LCHAN                                 #  L HAS BETA BIT
000637: 15,3131           50000                           INDEX    A
000638: 15,3132           33215                           CAF      YJETCODE
000639: 15,3133           55720                           TS       JETEM
000640:
000641: 15,3134           31572                           CA       QAXERR                                #  ALFA ERROR.
000642: 15,3135           54001                           TS       L
000643: 15,3136           31702                           CA       QREL                                  #  FOR ALFADOT USE QREL
000644: 15,3137           03022                           TC       BIASEDZ
000645: 15,3140           00006                           EXTEND
000646: 15,3141           04001                           ROR      LCHAN
000647: 15,3142           13004                           TCF      EXDAPIN                               #  CONTINUE ON IN DAP
000648:
000649: 15,3143           25700        EXDAP2             INCR     CMDAPMOD                              #  SET CMDAPMOD TO +1
000650:
000651: 15,3144           44712                           CS       ONE                                   #  INDICATE CHANGE FROM .1 SEC UPDATE TO
000652: 15,3145           55711                           TS       JETAG                                 #  TO 2 SEC FOR ROLL JETS.( IF CMDAPMOD
000653:                                                                                                  #                                          =0 AND JETAG =-1, QUENCHES JETS IF ON)
000654:


000656: 15,3146           11727                           CCS      P63FLAG                               #  IF FLAG WAS +1, SET =0.
000657: 15,3147           55727                           TS       P63FLAG
000658: 15,3150           13151                           NOOP
000659:
000660: 15,3151           11507                           CCS      SALFA                                 #  BETA CONTROL WITH P JETS
000661: 15,3152           41721                           CS       JETEM      +1
000662: 15,3153           13155                           TCF      +2
000663: 15,3154           31721                           CA       JETEM      +1
000664: 15,3155           55713                           TS       PAXERR1                               #  TEMP SAVE.  ERROR/180
000665: 15,3156           00006                           EXTEND
000666: 15,3157           74675                           MP       HALF                                  #  CM/FDAI EXPECTS ERROR/360.
000667: 15,3160           57713                           XCH      PAXERR1                               #  ERROR/360 FOR FDAI, GET ERROR/180.
000668: 15,3161           54001                           TS       L
000669: 15,3162           11507                           CCS      SALFA
000670: 15,3163           41704                           CS       BETADOT                               #  USE BETADOT TO COORD IN MODE +1
000671: 15,3164           03166                           TC       +2
000672: 15,3165           31704                           CA       BETADOT
000673: 15,3166           03022                           TC       BIASEDZ
000674: 15,3167           00006                           EXTEND
000675: 15,3170           04001                           ROR      LCHAN
000676: 15,3171           50000                           INDEX    A
000677: 15,3172           33220                           CAF      P/RJCODE                              #  GET ROLL CODE
000678: 15,3173           00006                           EXTEND                                         #  ROLL CONTROL WITH YAW JETS.
000679: 15,3174           01006                           WRITE    ROLLJETS                              #  WE,LL SKIP REGULAR ROLL SYST
000680:
000681: 15,3175           31717                           CA       ROLLHOLD                              #  ROLL/180 AT CM/DAPON TIME.
000682: 15,3176           00006                           EXTEND
000683: 15,3177           21664                           MSU      ROLL/180                              #  1,S COMPL, BUT SO WHATS A BIT.?
000684: 15,3200           54001                           TS       L                                     #  FORCE A LIMIT CYCLE IN YAW RATE.
000685: 15,3201           11507                           CCS      SALFA
000686: 15,3202           30001                           CA       L                                     #  TO REMOVE ITS BIASING EFFECT ON M DOT.
000687: 15,3203           03116                           TC       EXDAP1
000688: 15,3204           40001                           CS       L
000689: 15,3205           03116                           TC       EXDAP1
000690:
000691: 15,3206           04064        NSEC               DEC      2100       B-14                       #  65 DEG/ 3 DEG/SEC
000692:                                                                                                  #                               IF NSEC IS CHANGED, REMEMBER TO CHANGE 4.33SPOT.
000693: 15,3207           37734        4D/SLIM            DEC      16348      B-14                       #  1.0 -4/180 D/S = 4/1800 EXP 14
000694: 15,3210           37756        YDOTLIM            DEC      16366      B-14                       #  =1.0 - YDOT DZ= 16384 -18
000695:                                                                                                  #                                          YDOT DZ = YDOT TCDU/180 = 2/1800 EXP 14
000696:
000697: 15,3211           00067        CM/BIAS            DEC      55         B-14                       #  =.6/180 B14  = 55
000698: 15,3212           37267        YAWLIM             DEC      16055      B-14                       #  YAWLIM=1.0-3.6/180=16384-329=16055
000699: 15,3213           11277        C45LIM             DEC      .29289                                #  =1.0-COS(45)
000700:
000701:                                                                                                  #  JET CODE TABLES FOLLOW _
000702:
000703: 15,3214           00120                           OCTAL    00120                                 #  POS Y
000704: 15,3215           00000        YJETCODE           OCTAL    00000                                 #  RCS JET BITS
000705: 15,3216           00240                           OCTAL    00240                                 #  NEG Y


000707: 15,3217           00005                           OCTAL    00005                                 #  POS R JET BITS    ALSO POS P JET BITS
000708: 15,3220           00000        P/RJCODE           OCTAL    00000
000709: 15,3221           00012                           OCTAL    00012                                 #  NEG R             ALSO NEG P
000710:


000712:                                                                                                  #  RCS        THIS SECTION IS ENTERED EACH 2 SEC BY WAITLIST CALL FOLLOWING A DELAY OF 1.2 SEC AFTER PIPUP.
000713:                                                                                                  #  THE TASK SETJTAG  SETS A FLAG IN  JETAG  TO SIGNIFY THAT ROLL UPDATE IS DUE.  IN ROUGHLY 5 CS  BPDYRATE WILL BE
000714:                                                                                                  #  EXECUTED AND JETAG WILL CAUSE  CM/RCS  TO ACT ON ROLLC IMMEDIATELY THEREAFTER.   THE
000715:                                                                                                  #  TASK SAVES THE CALL TIME SO THAT CM/RCS CAN DETERMINE HOW MUCH OF THE 2 SEC INTERVAL REMAINS BEFORE THE
000716:                                                                                                  #  NEXT UPDATE.
000717:
000718: 15,3222           40025        SETJTAG            CS       TIME1                                 #  SAVE NOMINAL UPDATE TIME FOR SYNCH
000719: 15,3223           55712                           TS       TUSED
000720:                                                                                                  #                                           THE 5 CS APPEARS IN TIMETST.
000721: 15,3224           34712                           CA       ONE                                   #  RATHER THAN INCR, FOR SAFETY
000722: 15,3225           55711                           TS       JETAG                                 #  SET JETAG=1 TO CAUSE CM/RCS TO BE
000723: 15,3226           05301                           TC       PHASCHNG
000724: 15,3227           00001                           OCT      00001
000725:
000726: 15,3230           05213                           TC       TASKOVER                              #  EXECUTED AFTER NEXT BODYRATE UPDATE
000727:
000728:                                                                                                  #  PREDICTIVE ROLL SYSTEM    ENTRY STEERING PROVIDES ROLL COMMAND IN LOC ROLLC. THE FOLLOWING CALCULATES THE
000729:                                                                                                  #  TRAJECTORY TO THE ORIGIN IN PHASE PLANE (X,V). PROGRAM ENTERS JET ON AND OFF CALLS INTO WTLST TO PRODUCE
000730:                                                                                                  #  THE DESIRED TRAJECTORY. ONLY THOSE CALLS WHICH CAN BE EXECUTED WITHIN THE INTERVAL T  (2 SEC) ARE ENTERED IN
000731:                                                                                                  #  WTLST, THE REMAINDER ARE RECONSIDERED AT NEXT UPDATE.
000732:
000733: 15,3231     4674               HALFPR             EQUALS   NEG1/2     +1
000734:
000735:                                                                                                  #                               CLEAR JETAG BEFORE TIMETST.  SET TO +0 TO SHOW
000736:                                                                                                  #                               ROLL DAP CALLED. IN EVENT OF RESTART, BODYRATE
000737:                                                                                                  #                               MAY MISS A CYCLE. CM/RCS WILL MISS A CYCLE ONLY
000738:                                                                                                  #                               IF A RESTART OCCURS AFTER TIMETST COMMENCES.
000739:
000740: 15,3231           44712        CM/RCS             CS       ONE
000741: 15,3232           55617                           TS       JNDX                                  #  SET NDX FOR POS ROLL, AND CHANGE LATER
000742:
000743: 15,3233           44726                           CS       2T/TCDU                               #  ROLLDOT = DELAOG + DELAIG SINM =DELR
000744: 15,3234           00006                           EXTEND
000745: 15,3235           71701                           MP       PREL                                  #  DELR/180 = RDOT TCDU/180 = RDOT/1800
000746: 15,3236           60001                           AD       L                                     #  -2 RDOT T/180 IN L
000747: 15,3237           55613                           TS       -VT/180                               #  SAVE -2VT/180 HERE
000748:
000749: 15,3240           41664                           CS       ROLL/180
000750: 15,3241           54021                           TS       SR                                    #  SAVE (-R/180) /2
000751:
000752: 15,3242           40102                           CS       CM/FLAGS
000753: 15,3243           74707                           MASK     BIT4                                  #  LATSW = 101D BIT4
000754: 15,3244           00006                           EXTEND                                         #  ROLL OVER TOP $
000755: 15,3245           13253                           BZF      GETLCX                                #  NO, TAKE SHORTEST PATH
000756: 15,3246           26102                           ADS      CM/FLAGS                              #  YES, ENFORCE ROLL OVER TOP.. (BIT =0)
000757: 15,3247           31715                           CA       ROLLC                                 #  (ROLLC/180) /2
000758: 15,3250           60021                           AD       SR                                    #  -(R/180) /2
000759: 15,3251           57614                           XCH      LCX/360                               #  DIFFERENT X REQD HERE. DISCONT AT 180.
000760: 15,3252           13313                           TCF      COMPAT                                #  POSSIBLE OVFL ABOVE.
000761:


000763: 15,3253           34675        GETLCX             CA       POS1/2                                #  FORM RCOM/360
000764: 15,3254           60000                           DOUBLE
000765: 15,3255           61715                           AD       ROLLC
000766: 15,3256           57614                           XCH      LCX/360                               #  IGNORE POSSIBLE OVFL.
000767:
000768: 15,3257           30021                           CA       SR                                    #  FORM -R/360
000769: 15,3260           64673                           AD       NEG1/2
000770: 15,3261           64673                           AD       NEG1/2                                #  IGNORE OVFL
000771: 15,3262           57614                           XCH      LCX/360                               #  -R/360
000772: 15,3263           27614                           ADS      LCX/360                               #  LCX/360 = RCOM/360 -R/360  RANGE (-1,1)
000773:
000774:                                                                                                  #  DOES SGN(-VT) (VT/180) (VT/180) (180/(4 A1 TT COSALFA)) + X/360 + SGN(X) / 2            OVFL   ?
000775:
000776: 15,3264           11613                           CCS      -VT/180                               #  TAKE SHORTEST ANGULAR PATH
000777: 15,3265           64712                           AD       ONE                                   #  (BASED ON SINGLE JET ACCELERATION)
000778: 15,3266           13270                           TCF      +2
000779: 15,3267           64712                           AD       ONE
000780: 15,3270           00006                           EXTEND
000781: 15,3271           71613                           MP       -VT/180                               #  C(-VT/180) = -2 VT/180
000782: 15,3272           00006                           EXTEND
000783: 15,3273           73754                           MP       1/16A1                                #  = 180/(16 A1 TT )
000784: 15,3274           00006                           EXTEND
000785: 15,3275           11506                           DV       CALFA
000786: 15,3276           54001                           TS       L
000787: 15,3277           11614                           CCS      LCX/360
000788: 15,3300           34675                           CAF      POS1/2
000789: 15,3301           13303                           TCF      +2
000790: 15,3302           44675                           CS       POS1/2
000791: 15,3303           61614                           AD       LCX/360                               #  IS LCX/360 LESS THAN 180 DEG  $
000792: 15,3304           60001                           AD       L
000793: 15,3305           54001                           TS       L
000794: 15,3306           13313                           TCF      COMPAT                                #  YES, GO ON.
000795: 15,3307           50000        TRTAGXPI           INDEX    A                                     #  NO, SHIFT X BY - SGN(X) 2 PI
000796: 15,3310           44674                           CS       HALFPR                                #  +A YIELDS -1/2
000797: 15,3311           60000                           DOUBLE
000798: 15,3312           27614                           ADS      LCX/360
000799:
000800: 15,3313           31614        COMPAT             CA       LCX/360                               #  CORRECT FOR ASSUMED COORD TURN.
000801: 15,3314           00006                           EXTEND
000802: 15,3315           71506                           MP       CALFA                                 #  COS ALFA
000803: 15,3316           55614                           TS       LCX/360                               #  SCALED LCX OK HERE.
000804:
000805: 15,3317           11700                           CCS      CMDAPMOD                              #  FOUR POSSIBILITIES HERE
000806: 15,3320           03675                           TC       DZCALL1                               #  EXIT, SETTING JETAG=0.(C(A)=0)
000807:                                                                                                  #                                          ALL 3 AXES ALREADY DONE.
000808: 15,3321           03322                           TC       +1                                    #  G LESS THAN .05. CA POS. CONTINUE
000809: 15,3322           31614                           CA       LCX/360                               #  G GEQ .05. CONTINUE IN CM/RCS
000810: 15,3323           55614                           TS       LCX/360                               #  CMDAPMOD=-0. DAMPING ONLY. SET LCX=0
000811: 15,3324           55713                           TS       PAXERR1                               #  SAVE LCX FOR FDAI AND EDIT.(  /360)
000812:


000814: 15,3325           31613                           CA       -VT/180                               #  GET - 2 VT/180
000815: 15,3326           54021                           TS       SR
000816: 15,3327           30021                           CA       SR                                    #  GET -VT/180, LEAVE -VT/360 IN SR FOR DZ
000817: 15,3330           55570                           TS       -VT/180E                              #                         DIAGNOSTIC  ****
000818: 15,3331           57613                           XCH      -VT/180                               #  NOW CONTENTS OF -VT/180 AS LABELED
000819: 15,3332           00006                           EXTEND
000820: 15,3333           71613                           MP       -VT/180                               #  B(A) = -2VT/180
000821: 15,3334           00006                           EXTEND
000822: 15,3335           73754                           MP       180/8ATT
000823: 15,3336           55616                           TS       VSQ/4API
000824:
000825:                                                                                                  #    IS SGN(VT) ( (180/4A1 TT) VT/180 VT/180 - .5 BUFLIM/360 )  -X/360     - .5 BUFLIM/360   POS  ?
000826:
000827: 15,3337           60000        WHICHALF           DOUBLE                                         #  FOR SECOND BURN,  A1
000828: 15,3340           40000                           COM
000829: 15,3341           63761                           AD       BUFLIM                                #  =BUFLIM/(2 360)
000830: 15,3342           54001                           TS       L
000831: 15,3343           11613                           CCS      -VT/180
000832: 15,3344           40001                           CS       L
000833: 15,3345           13347                           TCF      +2
000834: 15,3346           30001                           CA       L
000835: 15,3347           61614                           AD       LCX/360
000836: 15,3350           63761                           AD       BUFLIM
000837: 15,3351           00006                           EXTEND
000838: 15,3352           63367                           BZMF     REFLECT                               #  POINT (X,V) IN LHP.
000839:
000840:                                                                                                  #    IS SGN(VT) ( (180/4A1 TT) VT/180 VT/180 - .5 BUFLIM/360 )  -X/360     + .5 BUFLIM/360   NEG  ?
000841:
000842: 15,3353           40000                           COM
000843: 15,3354           63761                           AD       BUFLIM
000844: 15,3355           63761                           AD       BUFLIM
000845: 15,3356           00006                           EXTEND
000846: 15,3357           63376                           BZMF     DZ1                                   #  POINT (X,V) IN RHP.
000847:
000848:                                                                                                  #    IS POINT WITHIN VELOCITY DZ ?
000849:
000850: 15,3360           43753                           CS       VSQMIN                                #  IS VSQ/4API - (VSQ/4API) MIN  NEG  ?
000851: 15,3361           61616                           AD       VSQ/4API
000852: 15,3362           00006                           EXTEND
000853: 15,3363           63671                           BZMF     DZCALL                                #  YES.
000854:
000855:                                                                                                  #        POINT IS IN BUFFER ZONE. THRUST TO X AXIS.
000856:
000857: 15,3364           41617                           CS       JNDX
000858: 15,3365           55620                           TS       JNDX1
000859: 15,3366           03451                           TC       OVRLINE1
000860:
000861: 15,3367           41613        REFLECT            CS       -VT/180                               #  REFLECT LHP INTO RHP REL TO TERM CONTR
000862: 15,3370           55613                           TS       -VT/180
000863: 15,3371           54021                           TS       SR                                    #  -VT/360  SAVED FOR DZ.


000865: 15,3372           41614                           CS       LCX/360
000866: 15,3373           55614                           TS       LCX/360
000867: 15,3374           41617                           CS       JNDX
000868: 15,3375           55617                           TS       JNDX
000869:
000870:                                                                                                  #   IS VSQ/4API - (VSQ/4API) MIN  NEG   $
000871:
000872: 15,3376           43753        DZ1                CS       VSQMIN                                #  IS VSQ/4API - (VSQ/4API) MIN  NEG  $
000873: 15,3377           61616                           AD       VSQ/4API
000874: 15,3400           00006                           EXTEND
000875: 15,3401           63403                           BZMF     DZ2                                   #  YES, GO TEST FURTHER.
000876: 15,3402           13410                           TCF      MAXVTEST                              #  NO
000877:
000878:                                                                                                  #   IS X/360 - XMIN/360 -VT/360  NEG  $
000879:
000880: 15,3403           43757        DZ2                CS       XMIN/360                              #  XMIN/360 = 4/360
000881: 15,3404           61614                           AD       LCX/360
000882: 15,3405           60021                           AD       SR                                    #  C(SR) = -VT/360
000883: 15,3406           00006                           EXTEND                                         #  IS X/360 - XMIN/360 -VT/360  NEG  $
000884: 15,3407           63671                           BZMF     DZCALL                                #  YES,IN DZ. EXIT SETTING JETAG=0.
000885:
000886:                                                                                                  #   IS XD/360 - VM/360K - XS/360   POS   ?
000887:
000888: 15,3410           41617        MAXVTEST           CS       JNDX
000889: 15,3411           55620                           TS       JNDX1                                 #  NOW CAN SET JNDX1 FOR TON2 JETS.
000890: 15,3412           43761                           CS       XS/360                                #  XS/360 = (XMIN -YMIN/K) /360
000891: 15,3413           61616                           AD       VSQ/4API
000892: 15,3414           61614                           AD       LCX/360
000893: 15,3415           55615                           TS       XD/360                                #  XD/360= X/360 +VSQ/4API   X INTERCEPT
000894:                                                                                                  #                                          BUT C(XD/360) = (XD - XS) /360
000895: 15,3416           63760                           AD       -VM/360K                              #  X INTERCEPT FOR MAX V (VM)
000896: 15,3417           40000                           COM
000897: 15,3420           00006                           EXTEND
000898: 15,3421           63427                           BZMF     MAXVTIM1                              #  YES, THRUST TO VM
000899: 15,3422           31615                           CA       XD/360
000900: 15,3423           00006                           EXTEND
000901: 15,3424           74675                           MP       KTRCS
000902: 15,3425           20001                           DDOUBL                                         #  GO SAVE PREDICTED DRIFTING VELOCITY.
000903:
000904: 15,3426           03432                           TC       GETON1                                #  INSURE THAT Q IS POS AS TAG.
000905: 15,3427           00006        MAXVTIM1           EXTEND
000906: 15,3430           22007                           ZQ                                             #  SET +0 AS TAG
000907: 15,3431           33755                           CA       VMT/180
000908: 15,3432           55567        GETON1             TS       VDT/180                               #  VDT/180 OR VMT/180.
000909: 15,3433           61613                           AD       -VT/180
000910: 15,3434           60000                           DOUBLE
000911: 15,3435           00006                           EXTEND
000912: 15,3436           73754                           MP       180/8ATT
000913: 15,3437           55621                           TS       TON1                                  #  TON1 / 4T
000914:


000916: 15,3440           00006                           EXTEND
000917: 15,3441           63443                           BZMF     OVRLINE
000918: 15,3442           03455                           TC       GETON2                                #  RESET Q POS IF CAME FROM MAXVTIM1
000919:
000920: 15,3443           10002        OVRLINE            CCS      Q
000921: 15,3444           13451                           TCF      OVRLINE1
000922: 15,3445           31620        MAXVTIM2           CA       JNDX1                                 #  ABOVE VM, SO THRUST DOWN
000923: 15,3446           55617                           TS       JNDX
000924: 15,3447           41621                           CS       TON1
000925: 15,3450           13454                           TCF      OVRLINE2   +1
000926:
000927: 15,3451           41613        OVRLINE1           CS       -VT/180                               #  DRIFT AT V
000928: 15,3452           55567                           TS       VDT/180
000929: 15,3453           34714        OVRLINE2           CA       ZERO
000930: 15,3454           55621                           TS       TON1
000931: 15,3455           31567        GETON2             CA       VDT/180                               #  VDT/180, OR VMT/180 OR VT/180
000932: 15,3456           60000                           DOUBLE
000933: 15,3457           00006                           EXTEND
000934: 15,3460           73754                           MP       180/8ATT
000935: 15,3461           60000                           DOUBLE                                         #  FOR SECOND BURN, A1
000936: 15,3462           55607                           TS       TON2                                  #  = TON2 / 4T
000937:
000938: 15,3463           40000                           COM
000939: 15,3464           00006                           EXTEND
000940: 15,3465           63471                           BZMF     GETOFF
000941: 15,3466           55607                           TS       TON2
000942: 15,3467           31617                           CA       JNDX
000943: 15,3470           55620                           TS       JNDX1
000944:
000945: 15,3471           41607        GETOFF             CS       TON2                                  #  TON2 / 4T
000946: 15,3472           00006                           EXTEND
000947: 15,3473           71567                           MP       VDT/180                               #  VDT/180, OR VT/180, OR VMT/180.
000948: 15,3474           55615                           TS       XD/360                                #  USE AS TEMP
000949: 15,3475           41567                           CS       VDT/180
000950: 15,3476           00006                           EXTEND
000951: 15,3477           13513                           BZF      TOFFOVFL                              #  OMIT THE DIVIDE IF DEN = 0.
000952: 15,3500           61613                           AD       -VT/180
000953: 15,3501           00006                           EXTEND
000954: 15,3502           71621                           MP       TON1                                  #  TON1 /4T
000955: 15,3503           61615                           AD       XD/360                                #  TEMP = -VDT/180 / 2 TON2
000956: 15,3504           61614                           AD       LCX/360
000957: 15,3505           22007                           ZL
000958: 15,3506           56001                           XCH      L                                     #  TEST THE DIVIDE
000959: 15,3507           00006                           EXTEND
000960: 15,3510           11567                           DV       VDT/180
000961: 15,3511           00006                           EXTEND
000962: 15,3512           13515                           BZF      GETOFF2                               #  DIVIDE OK
000963:
000964: 15,3513           34740        TOFFOVFL           CA       2JETT                                 #  OVFL, USE  2T  FOR CONVENIENCE.
000965: 15,3514           13522                           TCF      TIMSCAL


000967: 15,3515           56001        GETOFF2            XCH      L                                     #  GET NUMERATOR.
000968: 15,3516           00006                           EXTEND
000969: 15,3517           11567                           DV       VDT/180                               #  C(A) = TOFF / 2T
000970: 15,3520           00006                           EXTEND
000971: 15,3521           74740                           MP       2JETT
000972: 15,3522           55605        TIMSCAL            TS       TOFF                                  #  IN CS
000973:
000974: 15,3523           33756                           CAF      4JETT
000975: 15,3524           00006                           EXTEND
000976: 15,3525           71621                           MP       TON1                                  #  C(TON1) = TON1 / 4T
000977: 15,3526           55621                           TS       TON1                                  #   IN CS
000978:
000979: 15,3527           33756                           CAF      4JETT
000980: 15,3530           00006                           EXTEND
000981: 15,3531           71607                           MP       TON2                                  #  C(TON2) = TON2 / 4T
000982: 15,3532           55607                           TS       TON2                                  #  IN CS
000983:
000984: 15,3533           34714                           CA       ZERO                                  #  CANNOT REDO AFTER TIMETST. TUSED GONE
000985: 15,3534           55711                           TS       JETAG                                 #  SET +0 TO SHOW ROLL DAP CALLED.
000986:
000987:                                                                                                  #                               CAUSE THE TM OF BODY RATES VIA UPBUFF TO BE
000988:                                                                                                  #                               INITIALIZED. ALSO CAUSE NEEDLES TO BE DONE ON NEXT
000989:                                                                                                  #                               AND ON ALTERNATE PASSES THROUGH CM/DUMPR.
000990:
000991: 15,3535           34712                           CA       ONE
000992: 15,3536           54305                           TS       SW/NDX
000993:


000995:                                                                                                  #  TIMETEST SECTION FOR RCS
000996:                                                                                                  #  ENTER WITH THREE TIME INTERVALS AND THE CORRESPONDING JET CODE INDEXES IN ERASEABLE LOCS TON1, TOFF, TON2, JNDX
000997:                                                                                                  #  JNDX1.  SECTION PROCESSES TIME INTERVALS FOR WTLST CALLS AND ASSURES THAT WTLST CALLS ARE MADE ONLY
000998:                                                                                                  #  (1) FOR POS INTERVALS GREATER THAN A SPECIFIED MINIMUM ( HERE CHOSEN AS  2 CS) AND
000999:                                                                                                  #  (2) FOR THE INTERVALS THAT WILL BE EXECUTED WITHIN THE TIME REMAINING IN THE SAMPLE INTERVAL T  (2 SEC).
001000:                                                                                                  #  TIMETST  ESTABLISHES 6 LOCS CONTAINING JET CODES AND CORRESPONDING TIME  INTERVALS. THUS: TON1, T1BITS,
001001:                                                                                                  #  TOFF, TBITS,  TON2, T2BITS.   OF THESE THE FIRST 2 LOCS ARE TEMPORARY, FOR IMMEDIATE ACTION, IN GENERAL.
001002:                                                                                                  #  SECTION JETCALL  BELOW PROCESSES THIS LIST.
001003:
001004: 15,3537           30025        TIMETST            CA       TIME1                                 #  CORRECT FOR POSSIBLE TIME1 OVFL.
001005: 15,3540           64675                           AD       POS1/2
001006: 15,3541           64675                           AD       POS1/2                                #  OVFL GUARANTEED.
001007: 15,3542           27712                           ADS      TUSED                                 #  B(TUSED) =-TUSED =-OLTIME1
001008:
001009: 15,3543           33752                           CA       -T-3                                  #  =-T +2 -5  (SEE SETJTAG)
001010:                                                                                                  #                                          THE +2 REQUIRED FOR PROPER BRANCH.
001011: 15,3544           27712                           ADS      TUSED                                 #  TUSED = TIME(K)-TIME(K-1)-T+2
001012:
001013: 15,3545           44711                           CS       TWO                                   #  USE 2 SINCE TIME3 UNCERTAIN TO 1
001014: 15,3546           61621                           AD       TON1
001015: 15,3547           00006                           EXTEND
001016: 15,3550           63562                           BZMF     TIMETST1
001017: 15,3551           51617                           INDEX    JNDX
001018: 15,3552           33220                           CAF      P/RJCODE
001019: 15,3553           55622                           TS       T1BITS
001020:
001021: 15,3554           31621                           CA       TON1
001022: 15,3555           27712                           ADS      TUSED
001023: 15,3556           00006                           EXTEND
001024: 15,3557           63564                           BZMF     TOFFTEST
001025: 15,3560           34714                           CA       ZERO
001026: 15,3561           13615                           TCF      TIMETST3
001027: 15,3562           44712        TIMETST1           CS       ONE
001028: 15,3563           55621                           TS       TON1
001029: 15,3564           44711        TOFFTEST           CS       TWO
001030: 15,3565           61605                           AD       TOFF
001031: 15,3566           00006                           EXTEND
001032: 15,3567           63576                           BZMF     TIMETST2
001033: 15,3570           31605                           CA       TOFF
001034: 15,3571           27712                           ADS      TUSED
001035: 15,3572           00006                           EXTEND
001036: 15,3573           63600                           BZMF     TON2TEST
001037: 15,3574           34714                           CA       ZERO
001038: 15,3575           13617                           TCF      TIMETST4
001039: 15,3576           44712        TIMETST2           CS       ONE
001040: 15,3577           55605                           TS       TOFF
001041: 15,3600           44711        TON2TEST           CS       TWO
001042: 15,3601           61607                           AD       TON2
001043: 15,3602           00006                           EXTEND
001044: 15,3603           63620                           BZMF     TIMETST5


001046: 15,3604           51620                           INDEX    JNDX1
001047: 15,3605           33220                           CAF      P/RJCODE
001048: 15,3606           55610                           TS       T2BITS
001049: 15,3607           31607                           CA       TON2
001050: 15,3610           27712                           ADS      TUSED
001051: 15,3611           00006                           EXTEND
001052: 15,3612           63622                           BZMF     JETCALL1
001053: 15,3613           34714                           CA       ZERO
001054: 15,3614           13621                           TCF      TIMETST5   +1
001055: 15,3615           55621        TIMETST3           TS       TON1
001056: 15,3616           44712                           CS       ONE
001057: 15,3617           55605        TIMETST4           TS       TOFF
001058: 15,3620           44712        TIMETST5           CS       ONE
001059: 15,3621           55607                           TS       TON2
001060:
001061:                                                                                                  #  SECTION  JETCALL  EXAMINES CONTENTS OF JET TIMES IN LIST, ESTABLISHES WTLST ENTRIES, AND EXECUTES CORRESPONDING
001062:                                                                                                  #  JET CODES. A POSITIVE NZ NUMBER IN A TIME REGISTER INDICATES THAT A WTLST CALL IS TO BE MADE, AND ITS JET BITS
001063:                                                                                                  #  EXECUTED. A +0 INDICATES THAT THE TIME INTERVAL DOES NOT APPLY, BUT THE  CORRESPONDING JET BITS ARE TO BE
001064:                                                                                                  #  EXECUTED. A NEG NUMBER INDICATES THAT THE TIME INTERVAL HAS BEEN PROCESSED. IN EVENT OF +0 OR -1, THE
001065:                                                                                                  #  SUBSEQUENT TIME REGISTER IS EXAMINED FOR POSSIBLE ACTION. THUS JET BITS TO BE EXECUTED MAY COME FROM MORE
001066:                                                                                                  #  THAN ONE REGISTER.
001067:
001068: 15,3622           34714        JETCALL1           CA       ZERO
001069: 15,3623           55611                           TS       OUTTAG
001070: 15,3624           55612                           TS       NUJET
001071: 15,3625           55606                           TS       TBITS
001072: 15,3626           53622                           DXCH     TON1
001073: 15,3627           10000                           CCS      A
001074: 15,3630           13645                           TCF      JETCALL2                              #  CALL WTLST
001075: 15,3631           23612        JETCALL3           LXCH     NUJET                                 #  WTLST ENTRIES COME HERE FROM JETCALL
001076: 15,3632           44712                           CS       ONE
001077: 15,3633           53606                           DXCH     TOFF
001078: 15,3634           10000                           CCS      A
001079: 15,3635           13645                           TCF      JETCALL2                              #  CALL WTLST
001080: 15,3636           23612                           LXCH     NUJET
001081: 15,3637           44712                           CS       ONE
001082: 15,3640           53610                           DXCH     TON2
001083: 15,3641           10000                           CCS      A
001084: 15,3642           13645                           TCF      JETCALL2                              #  CALL WTLST
001085: 15,3643           23612                           LXCH     NUJET
001086: 15,3644           03654                           TC       JETACTN                               #  C(A) = +0
001087: 15,3645           56001        JETCALL2           XCH      L                                     #  SAVE JET BITS FOR AFTER WTLST CALL
001088: 15,3646           27612                           ADS      NUJET
001089: 15,3647           56001                           XCH      L
001090: 15,3650           64712                           AD       ONE                                   #  RESTORE FOR CCS
001091: 15,3651           05140                           TC       WAITLIST
001092: 15,3652  E6,1661                                  EBANK=   AOG
001093: 15,3652           03662 32066                     2CADR    JETCALL
001094: 15,3654           31612        JETACTN            CA       NUJET                                 #  COME HERE WHEN DESIRED JET CODE IS KNOWN


001096: 15,3655           00006                           EXTEND                                         #  NO NEED TO SAVE OLD CODES
001097: 15,3656           01006                           WRITE    ROLLJETS                              #  SET RCHAN TO NEW BIT CONFIG.
001098:
001099: 15,3657           11611                           CCS      OUTTAG
001100: 15,3660           05213                           TC       TASKOVER
001101: 15,3661           03711        ROLLDUMP           TC       CM/FDAIR
001102:
001103:                                                                                                  #                               EDIT DUMP AT ABOVE LOCATION.
001104:
001105:                                                                                                  #   WAITLIST ENTRIES COME HERE.
001106:
001107: 15,3662           34711        JETCALL            CAF      BIT2                                  #  CM/DSTBY =103D BIT2
001108: 15,3663           55611                           TS       OUTTAG                                #  SIGNIFY WTLST ENTRY
001109: 15,3664           70102                           MASK     CM/FLAGS                              #  IS SYSTEM DISABLED  $
001110: 15,3665           00006                           EXTEND
001111: 15,3666           13655                           BZF      JETACTN    +1                         #  YES, QUENCH ROLL JETS,IF ON AND EXIT.
001112: 15,3667           22007                           ZL                                             #  NO, CONTINUE.
001113: 15,3670           13631                           TCF      JETCALL3                              #  C(A) POS, C(L) =+0
001114:
001115:                                                                                                  #   DEAD ZONE ENTRIES COME HERE.
001116:
001117: 15,3671           34714        DZCALL             CA       ZERO                                  #  COME HERE IF IN DZ, AND CANCELL JETS
001118: 15,3672           00006                           EXTEND                                         #  INHINT NOT NEEDED HERE.
001119: 15,3673           01006                           WRITE    ROLLJETS                              #  TURN OFF ALL ROLL JETS.
001120: 15,3674           55567                           TS       VDT/180                               #  SET =0 TO SHOW IN DEAD ZONE.
001121: 15,3675           55711        DZCALL1            TS       JETAG                                 #  COME HERE WITH C(A)=0.
001122: 15,3676           03661                           TC       ROLLDUMP
001123:


001125:                                                                                                  #   CM ENTRY FDAI DISPLAY
001126:
001127:                                                                                                  #  CALCULATE BY INTEGRATION THE ROLL ERROR BETWEEN THE 2 SEC CM/RCS UPDATES . DISPLAY ATTITUDE ERRORS AS FOLLOWS:
001128:                                                                                                  #           ATM DAP:    DISPLAY ONLY ROLL ATTITUDE ERROR.
001129:                                                                                                  #           EXT ATM DAP:    PRESENT 3 ATTITUDE ERRORS RELATIVE TO THE APPROPRIATE BODY AXES EACH .1 SEC.
001130:                                                                                                  #                                         ROLL    ROLLC-ROLL
001131:                                                                                                  #                                         PITCH   ALFAC-ALFA
001132:                                                                                                  #                                         YAW     BETAC-BETA
001133:
001134:                                                                                                  #  DURING ENTRY, THE FDAI NEEDLES HAVE FULL SCALE OF 67.5 DEG IN ROLL AND  16.875 DEG IN PITCH AND YAW.
001135:                                                                                                  #  THE SUBROUTINE  NEEDLER  EXPECTS (ANGLE/180) AND SCALES TO 16.875 DEG   FULL SCALE.
001136:
001137: 15,3677           11700        CM/FDAI            CCS      CMDAPMOD                              #  COME HERE EACH 0.1 SEC.
001138: 15,3700           13710                           TCF      CM/FDAIR   -1                         #   C(A) =0, FOR DUMP.
001139: 15,3701           13703                           TCF      +2
001140: 15,3702           13703                           TCF      +1                                    #  (IN ATM, COME HERE TO   )
001141: 15,3703           41705                           CS       PHIDOT                                #  INTEGRATE ROLL ERROR.BETWEEN 2 SEC
001142: 15,3704           00006                           EXTEND
001143: 15,3705           71506                           MP       CALFA                                 #  FOR ASSUMED COORDINATION.
001144: 15,3706           00006                           EXTEND
001145: 15,3707           74675                           MP       HALF
001146: 15,3710           27713                           ADS      PAXERR1                               #  ROLL ERROR/360.    OVFL OK.
001147:
001148:                                                                                                  #                               EDIT DUMP AT ABOVE LOCATION.
001149: 15,3711           34675        CM/FDAIR           CA       HALF
001150: 15,3712           00006                           EXTEND
001151: 15,3713           71713                           MP       PAXERR1                               #  FULL SCALE FOR FDAI (ROLL) IS 67.5 D
001152: 15,3714           55476                           TS       PAXERR                                #  .25 (ROLL ERROR/180) FOR FDAI NEEDLE.
001153:
001154:                                                                                                  #                               PROGRAM TO FILE BODY  RATES FOR TM ON ONE PASS AND
001155:                                                                                                  #                               TO UPDATE THE NEEDLE DISPLAY ON THE NEXT.
001156:                                                                                                  #                               SYNCHRONIZATION WITH CM/RCS IS USED SO THAT THE TM
001157:                                                                                                  #                               IS DONE WITH THE ROLL SYSTEM AND NEEDLES START ON
001158:                                                                                                  #                               THE SUBSEQUENT PASS.
001159:
001160:
001161: 15,3715           40305        CM/DUMPR           CS       SW/NDX                                #  COMBINED ALTERNATION SWITCH AND FILE
001162: 15,3716           54305                           TS       SW/NDX
001163: 15,3717           00006                           EXTEND                                         #  INDEX.
001164: 15,3720           63724                           BZMF     CMTMFILE                              #  FILE STARTS WITH SW/NDX +1 AND GOES TO
001165:                                                                                                  #                                          ENDBUF.
001166:                                                                                                  #                                          INDEX IS POS FOR NEEDLES
001167:
001168: 15,3721           04633                           TC       IBNKCALL
001169: 15,3722           42404                           CADR     NEEDLER
001170:
001171: 15,3723           03742                           TC       CM/END
001172:
001173:                                                                                                  #                                          INDEX IS NEG FOR TM FILE
001174:


001176: 15,3724           66214        CMTMFILE           AD       THREE
001177: 15,3725           00006                           EXTEND
001178: 15,3726           63732                           BZMF     SAVENDX
001179:
001180: 15,3727           30025                           CA       TIME1                                 #  INITIALIZE THE TM LIST IN UPBUFF.
001181: 15,3730           54304                           TS       CMTMTIME
001182: 15,3731           44720                           CS       THIRTEEN                              #   INITIALIZE COUNTER
001183: 15,3732           54305        SAVENDX            TS       SW/NDX                                #  A NEGATIVE NUMBER.
001184: 15,3733           00006                           EXTEND
001185: 15,3734           31702                           DCA      PREL
001186: 15,3735           50305                           INDEX    SW/NDX
001187: 15,3736           52324                           DXCH     ENDBUF     -1
001188: 15,3737           31703                           CA       RREL
001189: 15,3740           50305                           INDEX    SW/NDX
001190: 15,3741           54325                           TS       ENDBUF     +1
001191:
001192: 15,3742           31623        CM/END             CA       CM/SAVE
001193: 15,3743           54021                           TS       SR
001194:                                                                                                  #                               DOES NOT PROTECT TEMK, SQ IN SPSIN/COS
001195:
001196: 15,3744           00006                           EXTEND
001197: 15,3745           33751                           DCA      T5IDLER2
001198: 15,3746           53313                           DXCH     T5LOC
001199: 15,3747           05222                           TC       RESUME
001200:
001201: 15,3750     1312                                  EBANK=   T5LOC
001202: 15,3750           03132 12062  T5IDLER2           2CADR    T5IDLOC
001203:                                                                                                  #                               DEFINE THE FOLLOWING 17D REGISTERS IN UPBUFF TO BE
001204:                                                                                                  #                               USED TO TELEMETER CM VEHICLE BODY RATE INFORMATION.
001205:                                                                                                  #                               THE INFORMATION IS FILED EACH 0.2 SEC, GIVING 15D
001206:                                                                                                  #                               DATA POINTS EACH 1 SEC.  TM LIST IS READ TWICE
001207:                                                                                                  #                               EACH 2 SECONDS.
001208:
001209:                                                                                                  #                               THE SEQUENCE IS:    SP TIME       INITIAL TIME
001210:                                                                                                  #                                                   SWITCH         ALSO INDEX.
001211:                                                                                                  #                                                   P              ROLL RATE
001212:                                                                                                  #                                                   Q              PITCH RATE
001213:                                                                                                  #                                                   R              YAW RATE
001214:                                                                                                  #                                                   ETC.
001215:
001216:                                                                                                  # CMTMTIME       =       UPBUFF
001217:                                                                                                  # SW/NDX         =       UPBUFF  +1
001218:                                                                                                  # ENDBUF         =       UPBUFF  +16D
001219:
001220:                                                                                                  #  CONSTANTS USED IN THE ROLL CONTROL SYSTEM:
001221:                                                                                                  #  CONSTANTS ARE THE FOLLOWING:  A = 9.1 DEG/SECSQ, VM = 20 DEG/SEC,       T = 2 SEC, TCDU = .1 SEC,
001222:                                                                                                  #  XMIN = 4 DEG, VMIN = 2 DEG/SEC, K = .25, A1 = 4.55 DEG/SECSQ,           VI = 1 DEG/SEC, INTERCEPT WITH DZ SIDE
001223:                                                                                                  #  XBUF = 4DEG
001224:


001226: 15,3752           77464        -T-3               DEC      -203       B-14                       #  CS
001227: 15,3753           00012        VSQMIN             DEC      .61050061  E-3                        #  VSQ MIN/4 A PI = 4/(4  (9.1)  180)
001228: 15,3754     4726               2T/TCDU            =        OCT50                                 #  T/TCDU  EXP-14   TCDU =.1SEC
001229: 15,3754           23617        180/8ATT           DEC      .61813187                             #  180/(8  (9.1) 4)=(180/ATT)  EXP -3
001230: 15,3755           07071        VMT/180            DEC      .222222222                            #  20 (2) / 180
001231: 15,3756     4740               2JETT              =        4SECS                                 #  CS           2 (2) 100   INTEGER
001232: 15,3756           01440        4JETT              DEC      800        B-14                       #  CS           4 (2) 100   INTEGER
001233: 15,3757           00266        XMIN/360           DEC      182        B-14                       #  XMIN/360 = 4/ 360  EXP 14  = 182 INTEGER
001234: 15,3760           70706        -VM/360K           DEC      -.22222222                            #  =-20/( 360  (.25))
001235: 15,3761  15,3754               1/16A1             =        180/8ATT
001236:                                                                                                  #                                  1/16A1  = 180/(16 A1 TT)
001237:                                                                                                  #                                          =180/(16  4.55  4)
001238: 15,3761           00133        XS/360             DEC      91         B-14                       #  =(XMIN +VI (T-1/K))/360 = 2/360 EXP 14
001239: 15,3762  15,3761               BUFLIM             =        XS/360                                #  4/(2  360)
001240:
001241: 15,3762     4675               KTRCS              =        HALF                                  #  KT = (.25) 2 = .5

End of include-file CM_ENTRY_DIGITAL_AUTOPILOT.agc.  Parent file is MAIN.agc


