
Source Code


000002:                                                                                                  ## Copyright:   Public domain.
000003:                                                                                                  ## Filename:    CONIC_SUBROUTINES.agc
000004:                                                                                                  ## Purpose:     Part of the source code for Colossus build 237.
000005:                                                                                                  ##              This is for the Command Module's (CM) Apollo Guidance
000006:                                                                                                  ##              Computer (AGC), for Apollo 8.
000007:                                                                                                  ## Assembler:   yaYUL
000008:                                                                                                  ## Contact:     Jim Lawton <jim DOT lawton AT gmail DOT com>
000009:                                                                                                  ## Website:     www.ibiblio.org/apollo/index.html
000010:                                                                                                  ## Page Scans:  www.ibiblio.org/apollo/ScansForConversion/Colossus237/
000011:                                                                                                  ## Mod history: 2011-04-13 JL   Adapted from corresponding Colossus 249 file.
000012:                                                                                                  ##              2011-04-17 JL   Removed temporary line.
000013:                                                                                                  ##              2017-01-01 RSB  Proofed comment text using octopus/ProoferComments,
000014:                                                                                                  ##                              and fixed errors found.
000015:                                                                                                  ##              2017-01-07 RSB  Fixed comment errors detected in cross-diff vs
000016:                                                                                                  ##                              Colossus 249.
000017:                                                                                                  ##              2017-01-21 RSB  Back-ported comment error fixes detected in diff'ing
000018:                                                                                                  ##                              Artemis 72 vs Comanche 55.
000019:                                                                                                  ##              2017-01-28 RSB  WTIH -> WITH.
000020:


000022:                                                                                                  #  PROGRAM DESCRIPTION - ENTIRE CONIC SUBROUTINE LOG SECTION                       DATE - 1 SEPTEMBER 1967
000023:                                                                                                  #  MOD NO. - 0                                                                     LOG SECTION - CONIC SUBROUTINES
000024:                                                                                                  #  MOD BY KRAUSE                                                                   ASSEMBLY - COLOSSUS REVISION 88
000025:
000026:
000027:
000028:                                                                                                  #  FUNCTIONAL DESCRIPTION -
000029:
000030:                                                                                                  #       THE FOLLOWING SET OF SUBROUTINES SOLVE VARIOUS PROBLEMS INVOLVING THE TRAJECTORY PRODUCED BY A CENTRAL
000031:                                                                                                  #  INVERSE-SQUARE FORCE ACTING ON A POINT MASS, AS OUTLINED IN THE CMC AND LGC LUNAR LANDING MISSION GSOP, SECTION
000032:                                                                                                  #  5.5.1.2.  A GENERAL USAGE POINT-OF-VIEW WAS TAKEN IN FORMULATING, MECHANIZING, AND SCALING THE SUBROUTINES,
000033:                                                                                                  #  RATHER THAN OPTIMIZING EACH FOR A PARTICULAR USE.  THEREFORE, MULTIPLE USAGE CAN BE MADE OF THE SUBROUTINES
000034:                                                                                                  #  INVOLVING ANY REALISTIC SET OF CONSTRAINTS.  IT SHOULD BE NOTED THAT ONLY ONE SET OF CODING IS USED, WHETHER THE
000035:                                                                                                  #  EARTH, MOON, OR ANY OTHER CELESTIAL BODY IS SPECIFIED AS THE CENTRAL BODY OF THE PROBLEM, PROVIDED ONE OBSERVES
000036:                                                                                                  #  THE INHERENT SCALE CHANGE REQUIRED IN POSITION, VELOCITY, MU, AND TIME, AS OUTLINED IN MISSION PROGRAMMING
000037:                                                                                                  #  DEFINITION MEMO NO. 10.  THIS CAN BE ACCOMPLISHED BY SIMPLY ADDING TO THE MUTABLE AND INITIALIZING THE SUBROU-
000038:                                                                                                  #  TINES APPROPRIATELY.
000039:                                                                                                  #       DUE TO THE UNIFORMITY OF THE EQUATIONS INVOLVED, CODING WAS MINIMIZED BY TREATING INDIVIDUAL EQUATIONS AND
000040:                                                                                                  #  BLOCKS OF EQUATIONS AS SUBROUTINES OF LOWER RANK WHENEVER POSSIBLE.  AS A RESULT, THREE BY-PRODUCTS SUBROUTINES,
000041:                                                                                                  #  DIRECTLY USABLE AS INDEPENDENT SUBROUTINES, WERE GENERATED.
000042:
000043:
000044:                                                                                                  #  RESTRICTIONS -
000045:
000046:                                                                                                  #       THE ONLY LIMITATION IN THE SCOPE OF PROBLEM WHICH CAN BE SOLVED BY A PARTICULAR SUBROUTINE IS THE SCALING
000047:                                                                                                  #  LIMIT OF EACH PARAMETER AS SPECIFIED IN THE GSOP.  THESE SCALING LIMITS WERE CHOSEN SO THAT ALL FEASIBLE TRAJEC-
000048:                                                                                                  #  TORIES COULD BE HANDLED.
000049:                                                                                                  #       SINCE THE SUBROUTINES (EXCEPT KEPLER) USE COMMON SUBROUTINES OF LOWER RANK WHICH USE ERASABLE OTHER THAN
000050:                                                                                                  #  THE PUSHLIST (DUE TO ITS LIMITED SIZE) AND COMMON INTERPRETIVE SWITCHES, THE CONIC SUBROUTINES CANNOT BE ALLOWED
000051:                                                                                                  #  TO INTERRUPT EACH OTHER.  IT IS UP TO THE USER TO GUARANTEE THIS CONDITION.
000052:


000054:                                                                                                  #  PROGRAM DESCRIPTION - KEPLER SUBROUTINE                                 DATE - 11 OCTOBER 1967
000055:                                                                                                  #  MOD NO. -1                                                                       LOG SECTION - CONIC SUBROUTINES
000056:                                                                                                  #  MOD BY KRAUSE                                                           ASSEMBLY - COLOSSUS 103 AND SUNDANCE 222
000057:
000058:
000059:
000060:                                                                                                  #  FUNCTIONAL DESCRIPTION -
000061:                                                                                                  #       THIS SUBROUTINE, GIVEN AN INITIAL STATE VECTOR AND THE DESIRED TRANSFER TIME THROUGH WHICH THE STATE IS TO
000062:                                                                                                  #  BE UPDATED ALONG A CONIC TRAJECTORY, COMPUTES THE NEW, UPDATED STATE VECTOR.  THE TRAJECTORY MAY BE ANY CONIC
000063:                                                                                                  #  SECTION - CIRCULAR, ELLIPTIC, PARABOLIC, HYPERBOLIC, OR RECTILINEAR WITH RESPECT TO THE EARTH OR THE MOON.  THE
000064:                                                                                                  #  USE OF THE SUBROUTINE CAN BE EXTENDED USING OTHER PRIMARY BODIES BY SIMPLE ADDITIONS TO THE MUTABLE WITHOUT
000065:                                                                                                  #  INTRODUCING ANY CODING CHANGES, ACCEPTING THE INHERENT SCALE FACTOR CHANGES IN POSITION AND VELOCITY.  AN ITERA-
000066:                                                                                                  #  TION TECHNIQUE IS UTILIZED IN THE COMPUTATION.
000067:                                                                                                  #       IF A NEGATIVE TIME-OF-FLIGHT IS INPUT, THE PROGRAM WILL SOLVE FOR THE STATE WHICH WOULD BE PRODUCED BY
000068:                                                                                                  #  EXTRAPOLATING THE POSITION BACKWARD IN TIME.
000069:                                                                                                  #       IF THE DESIRED TRANSFER TIME IS POSITIVE AND EXCEEDS THE ORBITAL PERIOD, THE SUBROUTINE, THROUGH A MODULAR
000070:                                                                                                  #  TECHNIQUE, WILL COMPUTE THE STATE CORRESPONDING TO THE DESIRED TIME AS USUAL.
000071:
000072:
000073:
000074:                                                                                                  #  THE RESTRICTIONS ARE -
000075:                                                                                                  #       1. A NEGATIVE DESIRED TIME MUST BE LESS THAN ONE PERIOD IN MAGNITUDE.  IF GREATER, THE ONE-PERIOD- SOLUTION
000076:                                                                                                  #  WILL BE RETURNED.
000077:                                                                                                  #       2.  THE PARAMETERS IN THE PROBLEM CANNOT EXCEED THEIR SCALING LIMITS AS SPECIFIED IN THE GSOP.  IF
000078:                                                                                                  #  ANY OF THESE LIMITS ARE EXCEEDED, THE RESULTING SOLUTION WILL BE MEANINGLESS.
000079:
000080:
000081:                                                                                                  #       THE NUMBER OF ITERATIONS AND, THEREFORE, THE COMPUTATION SPEED IS DEPENDENT ON THE ACCURACY OF THE
000082:                                                                                                  #  GUESS, XKFPNEW.  THE AGC COMPUTATION TIME IS APPROXIMATELY .061 SECONDS FOR INITIALIZATION, .065 SECONDS FOR THE
000083:                                                                                                  #  FINAL COMPUTATIONS, PLUS .083 SECONDS FOR EACH ITERATION.
000084:
000085:
000086:
000087:                                                                                                  #  REFERENCES -
000088:                                                                                                  #       R-479, MISSION PROGRAMMING DEFINITION MEMO NO. 10, LUNAR LANDING MISSION GSOP, SECTION 5.5, SGA
000089:                                                                                                  #  MEMO 67-4.
000090:
000091:
000092:
000093:                                                                                                  #  INPUT - ERASABLE INITIALIZATION REQUIRED
000094:
000095:                                                                                                  #          * SCALE FACTOR *
000096:                                                                                                  #  VARIABLE*IN POWERS OF 2*                         DESCRIPTION AND REMARKS
000097:                                                                                                  #  --------*--------------*                         -----------------------
000098:                                                                                                  #  RRECT   * +29 FOR EARTH*DP INITIAL POSITION VECTOR IN METERS
000099:                                                                                                  #          * +27 FOR MOON *
000100:                                                                                                  #  VRECT   * +7 FOR EARTH *DP INITIAL VELOCITY VECTOR IN METERS/CENTISECOND
000101:                                                                                                  #          * +5 FOR MOON  *
000102:                                                                                                  #  X1 (38D)* NONE         *INDEX REGISTER SET TO -2D OR -10D ACCORDING TO WHETHER THE EARTH OR MOON,
000103:                                                                                                  #          *              *RESPECTIVELY, IS THE CENTRAL BODY
000104:                                                                                                  #  TAU.    * +28          *DESIRED TRANSFER TIME IN CENTISECONDS (DP)


000106:                                                                                                  #  XKEPNEW * +17 FOR EARTH*GUESS OF X IN METERS-TO-THE-ONE-HALF FROM KEPPREP
000107:                                                                                                  #          * +16 FOR MOON *(DP)
000108:                                                                                                  #  TC      * +28          *DP PREV. VALUE OF TIME IN CENTISECS FROM KEPPREP
000109:                                                                                                  #  XPREV   * +17 FOR EARTH*PREVIOUS VALUE OF X IN METERS-TO-THE-ONE-HALF POWER FROM KEPPREP (DP)
000110:                                                                                                  #          * +16 FOR MOON *(DP)
000111:
000112:
000113:
000114:                                                                                                  #  SUBROUTINES CALLED -
000115:                                                                                                  #       DELTIME
000116:
000117:
000118:
000119:                                                                                                  #  CALLING SEQUENCE AND NORMAL EXIT MODES -
000120:
000121:                                                                                                  #  KEPRTN-2 GOTO                   MUST BE IN INTERPRETIVE MODE AND OVFIND MUST BE CLEAR
000122:                                                                                                  #  KEPRTN-1        KEPLER          RETURNS WITH XPREV IN MPAC. PL IS AT 0.
000123:                                                                                                  #  KEPRTN   ...                    CONTINUE
000124:
000125:                                                                                                  #  KEPLER MUST NOT BE CALLED DIRECTLY SINCE AN INTERRUPTION OF IT WOULD DESTROY THE ERASABLES IT NEEDS TO COMPLETE
000126:                                                                                                  #  THE INTERRUPTED JOB.  THEREFORE THE USER MUST CALL CSMCONIC OR LEMCONIC WHICH GUARANTEES NO INTERRUPTS AND WHICH
000127:                                                                                                  #  ALSO CALLS KEPPREP TO COMPUTE A GUESS OF XKEPNEW.
000128:
000129:
000130:
000131:                                                                                                  #  ABORT EXIT MODES -
000132:                                                                                                  #       NONE
000133:
000134:
000135:
000136:                                                                                                  #  OUTPUT -
000137:
000138:                                                                                                  #          * SCALE FACTOR *
000139:                                                                                                  #  VARIABLE*IN POWERS OF 2*                         DESCRIPTION AND REMARKS
000140:                                                                                                  #  --------*--------------*                         -----------------------
000141:                                                                                                  #  RCV     * +29 FOR EARTH*DP TERMINAL POSITION VECTOR IN METERS
000142:                                                                                                  #          * +27 FOR MOON *
000143:                                                                                                  #  VCV     * +7 FOR EARTH *DP TERMINAL VELOCITY VECTOR IN METERS/CENTISEC
000144:                                                                                                  #          * +5 FOR MOON  *
000145:                                                                                                  #  TC      * +28          *DP TRANSFER TIME IN CENTISECS TO WHICH KEPLER CONVERGED.
000146:                                                                                                  #  XPREV   * +17 FOR EARTH*DP X IN METERS-TO-THE-ONE-HALF-POWER TO WHICH KEPLER CONVERGED.
000147:                                                                                                  #          * +16 FOR MOON *(DP)
000148:                                                                                                  #  FOR OTHER OUTPUT WHICH MAY BE OF USE, SEE DEBRIS.
000149:
000150:
000151:                                                                                                  #  DEBRIS -
000152:
000153:                                                                                                  #       PARAMETERS WHICH MAY BE OF USE -
000154:


000156:                                                                                                  #          * SCALE FACTOR *
000157:                                                                                                  #  VARIABLE*IN POWERS OF 2*                         DESCRIPTION AND REMARKS
000158:                                                                                                  #  --------*--------------*                         -----------------------
000159:                                                                                                  #  URRECT  * +1           *DP UNIT VECTOR OF INITIAL POSITION
000160:                                                                                                  #  R1      * +29 FOR EARTH*DP MAGNITUDE OF INITIAL POSITION IN METERS
000161:                                                                                                  #          * +27 FOR MOON *
000162:                                                                                                  #  ALPHA   * -22 FOR EARTH*DP INVERSE OF SEMIMAJOR AXIS IN 1/METERS
000163:                                                                                                  #          * -20 FOR MOON *
000164:                                                                                                  #  TMODULO * +28          *DP INTEGRAL NUMBER OF PERIODS IN  CENTISECS. WHICH WAS SUBTRACTED FROM TAU. TO PRODUCE A
000165:                                                                                                  #          *              *TAU. OF LESS THAN ONE PERIOD.
000166:
000167:                                                                                                  #       PARAMETERS OF NO USE -
000168:                                                                                                  #  DP PARAMETERS - EPSILONT, DELX, DELT, RCNORM, XMODULO, PLUS PUSHLIST REGISTERS 0 THROUGH 39D.
000169:


000171:                                                                                                  #  PROGRAM DESCRIPTION - LAMBERT SUBROUTINE                                        DATE - 1 SEPTEMBER 1967
000172:                                                                                                  #  MOD NO. - 0                                                                     LOG SECTION - CONIC SUBROUTINES
000173:                                                                                                  #  MOD BY KRAUSE                                                                   ASSEMBLY - COLOSSUS REVISION 88
000174:
000175:
000176:
000177:                                                                                                  #  FUNCTIONAL DESCRIPTION -
000178:
000179:                                                                                                  #       THIS SUBROUTINE CALCULATES THE INITIAL VELOCITY REQUIRED TO TRANSFER A POINT-MASS ALONG A CONIC TRAJECTORY
000180:                                                                                                  #  FROM AN INITIAL POSITION TO A TERMINAL POSITION IN A PRESCRIBED TIME INTERVAL.  THE RESULTING TRAJECTORY MAY BE
000181:                                                                                                  #  A SECTION OF A CIRCLE, ELLIPSE, PARABOLA, OR HYPERBOLA WITH RESPECT TO THE EARTH OR THE MOON.  THE USE OF THE
000182:                                                                                                  #  SUBROUTINE CAN BE EXTENDED USING OTHER PRIMARY BODIES BY SIMPLE ADDITIONS TO THE MUTABLE WITHOUT INTRODUCING ANY
000183:                                                                                                  #  CODING CHANGES, ACCEPTING THE INHERENT SCALE FACTOR CHANGES IN POSITION AND VELOCITY.  AN ITERATION TECHNIQUE IS
000184:                                                                                                  #  UTILIZED IN THE COMPUTATION.
000185:
000186:
000187:                                                                                                  #  THE RESTRICTIONS ARE -
000188:                                                                                                  #       1. RECTILINEAR TRAJECTORIES CANNOT BE COMPUTED.
000189:                                                                                                  #       2. AN ACCURACY DEGRADATION OCCURS AS THE COSINE OF THE TRUE ANOMALY DIFFERENCE APPROACHES +1.0.
000190:                                                                                                  #       3. THE ANGLE BETWEEN ANY POSITION VECTOR AND ITS VELOCITY VECTOR MUST BE GREATER THAN 1 DEGREE 47.5 MINUTES
000191:                                                                                                  #  AND LESS THAN 178 DEGREES 12.5 MINUTES.
000192:                                                                                                  #       4. NEGATIVE TRANSFER TIME IS AMBIGUOUS AND WILL RESULT IN NO SOLUTION.
000193:                                                                                                  #       5. THE PARAMETERS IN THE PROBLEM MUST NOT EXCEED THEIR SCALING LIMITS SPECIFIED IN THE GSOP.  IF THE
000194:                                                                                                  #  LIMITS ARE EXCEEDED, THE RESULTING SOLUTION WILL BE MEANINGLESS.
000195:                                                                                                  #       THE NUMBER OF ITERATIONS AND, THEREFORE, THE COMPUTATIONS SPEED IS DEPENDENT ON THE ACCURACY OF THE FIRST
000196:                                                                                                  #  GUESS OF THE INDEPENDENT VARIABLE, COGA.                                THE AGC COMPUTATION TIME IS APPROXIMATE-
000197:                                                                                                  #  LY .105 SECONDS FOR INITIALIZATION, .069 SECONDS FOR FINAL COMPUTATIONS, PLUS .205 SECONDS FOR EACH ITERATION.
000198:
000199:
000200:
000201:                                                                                                  #  REFERENCES -
000202:                                                                                                  #       R-479, MISSION PROGRAMMING DEFINITION MEMO NO. 10, LUNAR LANDING MISSION GSOP-SECTION 5.5, SGA MEMO 67-8,
000203:                                                                                                  #  SGA MEMO 67-4.
000204:
000205:
000206:
000207:                                                                                                  #  INPUT - ERASABLE INITIALIZATION REQUIRED
000208:
000209:                                                                                                  #          * SCALE FACTOR *
000210:                                                                                                  #  VARIABLE*IN POWERS OF 2*                         DESCRIPTION AND REMARKS
000211:                                                                                                  #  --------*--------------*                         -----------------------
000212:                                                                                                  #  R1VEC   * +29 FOR EARTH*DP INITIAL POSITION VECTOR IN METERS
000213:                                                                                                  #          * +27 FOR MOON *
000214:                                                                                                  #  R2VEC   * +29 FOR EARTH*DP TARGET OR TERMINAL POSITION VECTOR IN METERS
000215:                                                                                                  #          * +27 FOR MOON *
000216:                                                                                                  #  TDESIRED* +28          *DP DESIRED TRANSFER TIME IN CENTISECONDS
000217:                                                                                                  #  X1 (38D)* NONE         *INDEX REGISTER SET TO -2D OR -10D ACCORDING TO WHETHER THE EARTH OR MOON,
000218:                                                                                                  #          *              *RESPECTIVELY, IS THE CENTRAL BODY
000219:                                                                                                  #  GEOMSGN * NONE         *SP +.5 IF DESIRED TRANSFER ANGLE IS LESS THAN 180 DEGREES, -.5 IF GREATER THAN 180 DEG.
000220:                                                                                                  #  GUESSW  * NONE         *AN INTERPRETER SWITCH TO BE SET IF NO GUESS OF COGA IS AVAILABLE, CLEAR IF A GUESS OF


000222:                                                                                                  #          *              *COGA IS TO BE USED BY LAMBERT
000223:                                                                                                  #  COGA    * +5           *DP GUESS OF COTANGNT OF FLIGHT PATH ANGLE (MEASURED FROM VERTICAL).  THIS WILL BE
000224:                                                                                                  #                         *IGNORED IF GUESSW IS SET.
000225:                                                                                                  #  NORMSW  * NONE         *AN INTERPRETER SWITCH TO BE SET IF UN IS TO BE AN INPUT TO THE SUBROUTINE, CLEAR IF
000226:                                                                                                  #          *              *LAMBERT IS TO COMPUTE ITS OWN NORMAL (UN).
000227:                                                                                                  #  UN      * +1           *DP UNIT NORMAL TO THE DESIRED ORBIT PLANE IN THE DIRECTION OF THE RESULTING ANGULAR
000228:                                                                                                  #          *              *MOMENTUM VECTOR.  THIS WILL BE IGNORED IF NORMSW IS CLEAR.
000229:                                                                                                  #  VTARGTAG*NONE          *A S.P. TAG TO BE SET TO ZERO IF LAMBERT IS TO COMPUTE THE VELOCITY AT R2VEC AS WELL AS
000230:                                                                                                  #          *              *AT R1VEC.
000231:
000232:
000233:
000234:                                                                                                  #  SUBROUTINES CALLED -
000235:                                                                                                  #       GEOM, GETX, DELTIME, ITERATOR, LAMENTER (PART OF NEWSTATE)
000236:
000237:
000238:
000239:                                                                                                  #  CALLING SEQUENCE AND NORMAL EXIT MODES -
000240:
000241:                                                                                                  #  L        CALL                   MUST BE IN INTERPRETIVE MODE AND OVFIND MUST BE CLEAR
000242:                                                                                                  #  L+1             LAMBERT         RETURNS WITH PL AT 0 AND WITH VVEC IN MPAC IF VTARGTAG WAS NON-ZERO OR VTARGET
000243:                                                                                                  #                                  IN MPAC IF VTARGTAG WAS ZERO
000244:                                                                                                  #  L+2      BON                    CONTINUE IF SOLNSW CLEAR SINCE SOLUTION IS ACCEPTABLE
000245:                                                                                                  #  L+3             SOLNSW
000246:                                                                                                  #  L+4             LAMABORT
000247:                                                                                                  #       IF A LAMBERT RESULT IS TO BE A FIRST GUESS FOR THE NEXT LAMBERT CALCULATION, COGA MUST BE PRESERVED AND
000248:                                                                                                  #  GUESSW MUST BE CLEAR FOR EACH SUCCEEDING LAMBERT CALL.
000249:
000250:
000251:
000252:                                                                                                  #  ABORT EXIT MODES -
000253:                                                                                                  #       IF SOLNSW WAS SET UPON EXITING, EITHER LAMBERT WAS ASKED TO COMPUTE A TRANSFER TOO NEAR 0 OR 360 DEG, OR T
000254:                                                                                                  #  WAS TOO SMALL TO PRODUCE A REALISTIC TRANSFER BETWEEN R1VEC AND R2VEC.  IN EITHER CASE THE FIX MUST BE MADE
000255:                                                                                                  #  ACCORDING TO THE NEEDS OF THE PARTICULAR USER.  THE ABORT EXIT MODE MAY BE CODED AS ...
000256:                                                                                                  #  LAMABORT DLOAD  ABS                      A MEASURE OF PROXIMITY TO 0 OR
000257:                                                                                                  #                  1-CSTH                   360 DEGREES.
000258:                                                                                                  #           DSU    BMN
000259:                                                                                                  #                  ONEBIT
000260:                                                                                                  #                  CHANGER2                 CHANGE R2VEC DIRECTION SLIGHTLY.
000261:                                                                                                  #           DLOAD  DAD
000262:                                                                                                  #                  TDESIRED
000263:                                                                                                  #                  SOMETIME
000264:                                                                                                  #           STCALL TDESIRED                 INCREASE TDESIRED
000265:                                                                                                  #                  LAMBERT
000266:
000267:
000268:
000269:                                                                                                  #  OUTPUT -
000270:                                                                                                  #          * SCALE FACTOR *
000271:                                                                                                  #  VARIABLE*IN POWERS OF 2*                         DESCRIPTION AND REMARKS


000273:                                                                                                  #  --------*--------------*                         -----------------------
000274:                                                                                                  #  VVEC    * +7 FOR EARTH *DP INITIAL VELOCITY VECTOR IN METERS/CENTISECOND REQUIRED TO SATISFY THE BOUNDARY VALUE
000275:                                                                                                  #          * +5 FOR MOON  *PROBLEM.
000276:                                                                                                  #  VTARGET * +7 FOR EARTH *DP RESULTANT VELOCITY VECTOR AT R2VEC IN METERS/CENTISECOND.
000277:                                                                                                  #          * +5 FOR MOON  *
000278:                                                                                                  #  SOLNSW  * NONE         *INTERPRETER SWITCH WHICH IS SET IF THE SUBROUTINE CANNOT SOLVE THE PROBLEM, CLEAR IF THE
000279:                                                                                                  #          *              *SOLUTION EXISTS.
000280:                                                                                                  #  FOR OTHER OUTPUT WHICH MAY BE OF USE, SEE DEBRIS.
000281:
000282:
000283:
000284:                                                                                                  #  DEBRIS -
000285:                                                                                                  #        PARAMETERS WHICH MAY BE OF USE -
000286:
000287:                                                                                                  #          * SCALE FACTOR *
000288:                                                                                                  #  VARIABLE*IN POWERS OF 2*                         DESCRIPTION AND REMARKS
000289:                                                                                                  #  --------*--------------*                         -----------------------
000290:                                                                                                  #  SNTH    * +1           *DP SIN OF ANGLE BETWEEN R1VEC AND R2VEC
000291:                                                                                                  #  CSTH    * +1           *DP COSINE OF ANGLE
000292:                                                                                                  #  1-CSTH  * +2           *DP 1-CSTH
000293:                                                                                                  #  COGA    * +5           *DP COTAN OF INITIAL REQUIRED FLIGHT PATH ANGLE MEASURED FROM VERTICAL
000294:                                                                                                  #  P       * +4           *DP RATIO OF SEMILATUS RECTUM TO INITIAL RADIUS
000295:                                                                                                  #  R1A     * +6           *DP RATIO OF INITIAL RADIUS TO SEMIMAJOR AXIS
000296:                                                                                                  #  R1 (32D)* +29 FOR EARTH*DP INITIAL RADIUS IN METERS
000297:                                                                                                  #          * +27 FOR MOON *
000298:                                                                                                  #  UR1     * +1           *DP UNIT VECTOR OF R1VEC
000299:                                                                                                  #  U2      * +1           *DP UNIT VECTOR OF R2VEC
000300:
000301:                                                                                                  #       PARAMETERS OF NO USE
000302:                                                                                                  #  DP PARAMETERS - EPSILONL, CSTH-RHO, TPREV, TERRLAMB, R2, RTNLAMB (SP), PLUS PUSHLIST REGISTER 0 THROUGH 41D
000303:                                                                                                  #  ADDITIONAL INTERPRETIVE SWITCHES USED - INFINFLG, 360SW, SLOPESW, ORDERSW
000304:


000306:                                                                                                  #  PROGRAM DESCRIPTION - TIME-THETA SUBROUTINE                                     DATE - 1 SEPTEMBER 1967
000307:                                                                                                  #  MOD NO. - 0                                                                     LOG SECTION - CONIC SUBROUTINES
000308:                                                                                                  #  MOD BY KRAUSE                                                                   ASSEMBLY - COLOSSUS REVISION 88
000309:
000310:
000311:
000312:                                                                                                  #  FUNCTIONAL DESCRIPTION -
000313:
000314:                                                                                                  #       THIS SUBROUTINE, GIVEN AN INITIAL STATE VECTOR AND A DESIRED TRUE-ANOMALY-DIFFERENCE THROUGH WHICH THE
000315:                                                                                                  #  STATE IS TO BE UPDATED ALONG A CONIC TRAJECTORY, CALCULATES THE CORRESPONDING TIME-OF-FLIGHT AND, IN ADDITION,
000316:                                                                                                  #  PROVIDES THE OPTION OF COMPUTING THE NEW UPDATED STATE VECTOR.  THE RESULTING TRAJECTORY MAY BE A SECTION OF A
000317:                                                                                                  #  CIRCLE, ELLIPSE, PARABOLA, OR HYPERBOLA WITH RESPECT TO THE EARTH OR THE MOON.  THE USE OF THE SUBROUTINE CAN BE
000318:                                                                                                  #  EXTENDED USING OTHER PRIMARY BODIES BY SIMPLE ADDITIONS TO THE MUTABLE WITHOUT INTRODUCING ANY CODING CHANGES,
000319:                                                                                                  #  ACCEPTING THE INHERENT SCALE FACTOR CHANGES IN POSITION AND VELOCITY.
000320:
000321:
000322:                                                                                                  #  THE RESTRICTIONS ARE -
000323:                                                                                                  #       1. THE ANGLE BETWEEN ANY POSITION VECTOR AND ITS VELOCITY VECTOR MUST BE GREATER THAN 1 DEGREE 47.5 MINUTES
000324:                                                                                                  #  AND LESS THAN 178 DEGREES 12.5 MINUTES.
000325:                                                                                                  #       2. THE PARAMETERS IN THE PROBLEM MUST NOT EXCEED THEIR SCALING LIMITS SPECIFIED IN THE GSCP.  IF THE LIMITS
000326:                                                                                                  #  ARE EXCEEDED, THE RESULTING SOLUTION WILL BE MEANINGLESS.
000327:
000328:                                                                                                  #       THE AGC COMPUTATION TIME IS APPROXIMATELY .292 SECONDS.
000329:
000330:
000331:
000332:                                                                                                  #  REFERENCES -
000333:                                                                                                  #       R-479, MISSION PROGRAMMING DEFINITION MEMO NO. 10, LUNAR LANDING MISSION GSOP-SECTION 5.5, SGA MEMO 67-8.
000334:
000335:
000336:
000337:                                                                                                  #  INPUT - ERASABLE INITIALIZATION REQUIRED
000338:
000339:                                                                                                  #          * SCALE FACTOR *
000340:                                                                                                  #  VARIABLE*IN POWERS OF 2*                         DESCRIPTION AND REMARKS
000341:                                                                                                  #  --------*--------------*                         -----------------------
000342:                                                                                                  #  RVEC    * +29 FOR EARTH*DP INITIAL POSITION VECTOR IN METERS
000343:                                                                                                  #          * +27 FOR MOON *
000344:                                                                                                  #  VVEC    * +7 FOR EARTH *DP INITIAL VELOCITY VECTOR IN METERS/CENTISECOND
000345:                                                                                                  #          * +5 FOR MOON  *
000346:                                                                                                  #  SNTH    * +1           *DP SINE OF TRUE-ANOMALY-DIFFERENCE THROUGH WHICH THE STATE IS TO BE UPDATED
000347:                                                                                                  #  CSTH    * +1           *DP COSINE OF THE ANGLE
000348:                                                                                                  #  RVSW    * NONE         *AN INTERPRETIVE SWITCH TO BE SET IF ONLY TIME IS TO BE AN OUTPUT, CLEAR IF THE NEW STATE
000349:                                                                                                  #          *              *IS TO BE COMPUTED ALSO.
000350:                                                                                                  #  X1 (38D)*NONE          *INDEX REGISTER TO BE SET TO -2D OR -10D ACCORDING TO WHETHER THE EARTH OR MOON,
000351:                                                                                                  #          *              *RESPECTIVELY, IS THE CENTRAL BODY.
000352:
000353:
000354:
000355:                                                                                                  #  SUBROUTINES CALLED -


000357:                                                                                                  #       PARAM, GEOM, GETX, DELTIME, NEWSTATE
000358:
000359:
000360:
000361:                                                                                                  #  CALLING SEQUENCE AND NORMAL EXIT MODES -
000362:
000363:                                                                                                  #     IF ONLY TIME IS DESIRED AS OUTPUT -
000364:                                                                                                  #  L        SET    CALL            MUST BE IN INTERPRETIVE MODE AND OVFIND MUST BE CLEAR
000365:                                                                                                  #  L+1             RVSW
000366:                                                                                                  #  L+2             TIMETHET        RETURN WITH PL AT 0 AND T IN MPAC
000367:                                                                                                  #  L+3      ...                    CONTINUE
000368:
000369:
000370:                                                                                                  #     IF THE UPDATE STATE VECTOR IS DESIRED AS WELL -
000371:                                                                                                  #  L        CLEAR  CALL            MUST BE IN INTERPRETIVE MODE AND OVFIND MUST BE CLEAR
000372:                                                                                                  #  L+1             RVSW
000373:                                                                                                  #  L+2             TIMETHET        RETURNS WITH PL AT 6.  THE INITIAL POSITION VECTOR IS IN 0D OF THE PUSHLIST AND
000374:                                                                                                  #                                  THE INITIAL VELOCITY VECTOR IN MPAC.
000375:                                                                                                  #  L+3      STOVL  NEWVVEC
000376:                                                                                                  #  L+4      STADR
000377:                                                                                                  #  L+5      STORE  NEWRVEC                 NEWVVEC AND NEWRVEC ARE SYMBOLIC REPRESENTATIONS OF THE USERS LOCATIONS.
000378:                                                                                                  #  L+6      ...                            CONTINUE
000379:
000380:
000381:
000382:                                                                                                  #  ABORT EXIT MODES -
000383:                                                                                                  #  L        CALL   BON
000384:                                                                                                  #  L+1             TIMETHET
000385:                                                                                                  #  L+2             COGAFLAG
000386:                                                                                                  #  L+3             COGABORT                RESTRICTION 1 HAS BEEN VIOLATED.
000387:                                                                                                  #  L+4      BON                            IF NEITHER FLAG IS SET AND RESTRICTION 2 HAS NOT BEEN VIOLATED, THE SOLUTION IS
000388:                                                                                                  #                                          GOOD, SO CONTINUE
000389:                                                                                                  #  L+5             INFINFLG
000390:                                                                                                  #  L+6             IMPOSSBL                NO SOLUTION EXISTS.
000391:
000392:
000393:
000394:                                                                                                  #  OUTPUT -
000395:                                                                                                  #          * SCALE FACTOR *
000396:                                                                                                  #  VARIABLE*IN POWERS OF 2*                         DESCRIPTION AND REMARKS
000397:                                                                                                  #  --------*--------------*                         -----------------------
000398:                                                                                                  #  T(30D)  * +28          *DP TRANSFER TIME IN CENTISECONDS
000399:                                                                                                  #  INFINFLG* NONE         *AN INTERPRETIVE SWITCH WHICH IS SET IF THE TRANSFER ANGLE REQUIRES CLOSURE THROUGH
000400:                                                                                                  #          *              *INFINITY (NO SOLUTION), CLEAR IF A PHYSICAL SOLUTION IS POSSIBLE.
000401:                                                                                                  #  COGAFLAG* NONE         *AN INTERPRETIVE SWITCH WHICH IS SET IF RESTRICTION 1 HAS BEEN VIOLATED (NO SOLUTION),
000402:                                                                                                  #          *              *CLEAR IF NOT.
000403:
000404:                                                                                                  #  IN ADDITION, IF VTARGTAG IS NON-ZERO, THE FOLLOWING ARE OUTPUT -
000405:                                                                                                  #  MPAC -  * +7 FOR EARTH *DP TERMINAL VELOCITY VECTOR IN METERS/CENTISEC.
000406:                                                                                                  #   MPAC+5 * +5 FOR MOON  *


000408:                                                                                                  #  0D - 5D * +29 FOR EARTH*DP TERMINAL POSITION VECTOR IN METERS (PL AT 6D)
000409:                                                                                                  #          * +27 FOR MOON *
000410:
000411:                                                                                                  #  FOR OTHER OUTPUT WHICH MAY BE OF USE, SEE DEBRIS.
000412:
000413:
000414:
000415:                                                                                                  #  DEBRIS -
000416:
000417:                                                                                                  #       PARAMETERS WHICH MAY BE OF USE -
000418:
000419:                                                                                                  #          * SCALE FACTOR *
000420:                                                                                                  #  VARIABLE*IN POWERS OF 2*                         DESCRIPTION AND REMARKS
000421:                                                                                                  #  --------*--------------*                         -----------------------
000422:                                                                                                  #  R1 (32D)* +29 FOR EARTH*DP MAGNITUDE OF INITIAL POSITION VECTOR, RVEC, IN METERS
000423:                                                                                                  #          * +27 FOR MOON *
000424:                                                                                                  #  R1A     * +6           *DP RATIO OF R1 TO SEMIMAJOR AXIS (NEG. FOR HYPERBOLIC TRAJECTORIES)
000425:                                                                                                  #  P       * +4           *DP RATIO OF SEMILATUS RECTUM TO R1
000426:                                                                                                  #  COGA    * +5           *DP COTAN OF ANGLE BETWEEN RVEC AND VVEC
000427:                                                                                                  #  UR1     * +1           *DP UNIT VECTOR OF RVEC
000428:                                                                                                  #  U2      * +1           *DP UNIT VECTOR OF VVEC
000429:                                                                                                  #  UN      * +1           *DP UNIT VECTOR OF UR1*U2
000430:
000431:
000432:                                                                                                  #       PARAMETERS OF NO USE -
000433:                                                                                                  #  SP PARAMETERS -  RTNTT, GEOMSGN, RTNPRM, MAGVEC2=R2 (DP), PLUS PUSHLIST LOCATIONS 0-11D, 14D-21D, 24D-39D, 41D
000434:                                                                                                  #  ADDITIONAL INTERPRETIVE SWITCHES USED - NORMSW, 360SW
000435:
000436:


000438:                                                                                                  #  PROGRAM DESCRIPTION - TIME-RADIUS SUBROUTINE                            DATE - 11 OCTOBER 1967
000439:                                                                                                  #  MOD NO. -1                                                                      LOG SECTION - CONIC SUBROUTINES
000440:                                                                                                  #  MOD BY KRAUSE                                                                   ASSEMBLY - COLOSSUS REVISION 88
000441:
000442:
000443:
000444:                                                                                                  #  FUNCTIONAL DESCRIPTION -
000445:
000446:                                                                                                  #       THIS SUBROUTINE, GIVEN AN INITIAL STATE VECTOR AND A DESIRED RADIUS TO WHICH THE
000447:                                                                                                  #  STATE IS TO BE UPDATED ALONG A CONIC TRAJECTORY, CALCULATES THE CORRESPONDING TIME-OF-FLIGHT AND, IN ADDITION,
000448:                                                                                                  #  PROVIDES THE OPTION OF COMPUTING THE NEW UPDATED STATE VECTOR.  THE RESULTING TRAJECTORY MAY BE A SECTION OF A
000449:                                                                                                  #  CIRCLE, ELLIPSE, PARABOLA, OR HYPERBOLA WITH RESPECT TO THE EARTH OR THE MOON.  THE USE OF THE SUBROUTINE CAN BE
000450:                                                                                                  #  EXTENDED USING OTHER PRIMARY BODIES BY SIMPLE ADDITIONS TO THE MUTABLE WITHOUT INTRODUCING ANY CODING CHANGES,
000451:                                                                                                  #  ACCEPTING THE INHERENT SCALE FACTOR CHANGES IN POSITION AND VELOCITY.
000452:                                                                                                  #       IF THE DESIRED RADIUS IS BEYOND THE RADIUS OF APOCENTER OF THE CONIC OR BELOW THE RADIUS OF PERICENTER,
000453:                                                                                                  #  APSESW WILL BE SET AND THE SUBROUTINE WILL RETURN THE APOCENTER OR PERICENTER SOLUTION, RESPECTIVELY.
000454:
000455:
000456:                                                                                                  #  THE RESTRICTIONS ARE -
000457:                                                                                                  #       1. THE ANGLE BETWEEN ANY POSITION VECTOR AND ITS VELOCITY VECTOR MUST BE GREATER THAN 1 DEGREE 47.5 MINUTES
000458:                                                                                                  #  AND LESS THAN 178 DEGREES 12.5 MINUTES.
000459:                                                                                                  #       2. THE PARAMETERS IN THE PROBLEM MUST NOT EXCEED THEIR SCALING LIMITS SPECIFIED IN THE GSOP.  IF THE LIMITS
000460:                                                                                                  #  ARE EXCEEDED, THE RESULTING SOLUTION WILL BE MEANINGLESS.
000461:                                                                                                  #       3. AN ACCURACY DEGRADATION OCCURS AS THE SENSITIVITIES OF TIME AND UPDATED STATE VECTOR TO CHANGES IN
000462:                                                                                                  #  RDESIRED INCREASE.  THIS WILL OCCUR NEAR EITHER APSIS OF THE CONIC AND WHEN THE CONIC IS NEARLY CIRCULAR.  IN
000463:                                                                                                  #  PARTICULAR, IF THE CONIC IS AN EXACT CIRCLE, THE PROBLEM IS UNDEFINED AND THE SUBROUTINE WILL ABORT.
000464:
000465:
000466:                                                                                                  #       THE AGC COMPUTATION TIME IS APPROXIMATELY .363 SECONDS
000467:
000468:
000469:
000470:                                                                                                  #  REFERENCES -
000471:                                                                                                  #       R-479, MISSION PROGRAMMING DEFINITION MEMO NO. 10, LUNAR LANDING MISSION GSOP-SECTION 5.5, SGA MEMO 67-8.
000472:
000473:
000474:
000475:                                                                                                  #  INPUT - ERASABLE INITIALIZATION REQUIRED
000476:
000477:                                                                                                  #          * SCALE FACTOR *
000478:                                                                                                  #  VARIABLE*IN POWERS OF 2*                         DESCRIPTION AND REMARKS
000479:                                                                                                  #  --------*--------------*                         -----------------------
000480:                                                                                                  #  RVEC    * +29 FOR EARTH*DP INITIAL POSITION VECTOR IN METERS
000481:                                                                                                  #          * +27 FOR MOON *
000482:                                                                                                  #  VVEC    * +7 FOR EARTH *DP INITIAL VELOCITY VECTOR IN METERS/CENTISECOND
000483:                                                                                                  #          * +5 FOR MOON  *
000484:                                                                                                  #  RDESIRED* +29 FOR EARTH*DP TERMINAL RADIAL DISTANCE ON CONIC TRAJECTORY FOR WHICH TRANSFER TIME IS TO BE
000485:                                                                                                  #          * +27 FOR MOON *COMPUTED.
000486:                                                                                                  #  SGNRDOT * NONE         *SP TAG SET TO +.5 OR -.5 ACCORDING TO WHETHER THE RADIAL VELOCITY AT RDESIRED IS TO BE
000487:                                                                                                  #          *              *POSITIVE OR NEGATIVE, RESPECTIVELY.   THIS TAG REDUCES THE DOUBLE-VALUED PROBLEM TO A


000489:                                                                                                  #          *              *SINGLE-VALUED PROBLEM.
000490:                                                                                                  #  X1 (38D)*NONE          *INDEX REGISTER TO BE SET TO -2D OR -10D ACCORDING TO WHETHER THE EARTH OR MOON,
000491:                                                                                                  #          *              *RESPECTIVELY, IS THE CENTRAL BODY.
000492:                                                                                                  #  RVSW    * NONE         *AN INTERPRETIVE SWITCH TO BE SET IF ONLY TIME IS TO BE AN OUTPUT, CLEAR IF THE NEW STATE
000493:                                                                                                  #          *              *IS TO BE COMPUTED ALSO.
000494:
000495:
000496:
000497:                                                                                                  #  SUBROUTINES CALLED -
000498:                                                                                                  #       PARAM, GEOM, GETX, DELTIME, NEWSTATE
000499:
000500:
000501:
000502:                                                                                                  #  CALLING SEQUENCE AND NORMAL EXIT MODES -
000503:
000504:                                                                                                  #     IF ONLY TIME IS DESIRED AS OUTPUT -
000505:                                                                                                  #  L        SET    CALL            MUST BE IN INTERPRETIVE MODE AND OVFIND MUST BE CLEAR
000506:                                                                                                  #  L+1             RVSW
000507:                                                                                                  #  L+2             TIMERAD         RETURN WITH PL AT 0 AND T IN MPAC
000508:                                                                                                  #  L+3      ...                    CONTINUE
000509:
000510:
000511:                                                                                                  #     IF THE UPDATE STATE VECTOR IS DESIRED AS WELL -
000512:                                                                                                  #  L        CLEAR  CALL            MUST BE IN INTERPRETIVE MODE AND OVFIND MUST BE CLEAR
000513:                                                                                                  #  L+1             RVSW
000514:                                                                                                  #  L+2             TIMERAD         RETURNS WITH PL AT 6.  THE INITIAL POSITION VECTOR IS IN 0D OF THE PUSHLIST AND
000515:                                                                                                  #                                  THE INITIAL VELOCITY VECTOR IN MPAC.
000516:                                                                                                  #  L+3      STOVL  NEWVVEC
000517:                                                                                                  #  L+4      STADR
000518:                                                                                                  #  L+5      STORE  NEWRVEC                 NEWVVEC AND NEWRVEC ARE SYMBOLIC REPRESENTATIONS OF THE USERS LOCATIONS.
000519:                                                                                                  #  L+6      ...                            CONTINUE
000520:
000521:
000522:
000523:                                                                                                  #  ABORT EXIT MODES -
000524:                                                                                                  #  L        CALL   BON
000525:                                                                                                  #  L+1             TIMERAD
000526:                                                                                                  #  L+2             COGAFLAG
000527:                                                                                                  #  L+3             COGABORT        RESTRICTION 1 HAS BEEN VIOLATED.
000528:                                                                                                  #  L+4      BON    BON
000529:                                                                                                  #  L+5             INFINFLG
000530:                                                                                                  #  L+6             IMPOSSBL        NO SOLUTION EXISTS.
000531:                                                                                                  #  L+7             SOLNSW
000532:                                                                                                  #  L+8             IMPOSSBL        SOLUTION IS UNDEFINED SINCE CONIC IS A CIRCLE.  RESTRICTION 3 HAS BEEN VIOLATED.
000533:                                                                                                  #  L+9      ...                    IF ALL THREE OF THE FLAGS ARE CLEAR, A SOLUTION EXISTS, SO CONTINUE.
000534:
000535:
000536:
000537:                                                                                                  #  OUTPUT -
000538:                                                                                                  #          * SCALE FACTOR *


000540:                                                                                                  #  VARIABLE*IN POWERS OF 2*                         DESCRIPTION AND REMARKS
000541:                                                                                                  #  --------*--------------*                         -----------------------
000542:                                                                                                  #  T (30D) * +28          *DP TRANSFER TIME IN CENTISECONDS
000543:                                                                                                  #  INFINFLG* NONE         *AN INTERPRETIVE SWITCH WHICH IS SET IF RDESIRED AND SGNRDOT REQUIRE CLOSURE THROUGH
000544:                                                                                                  #          *              *INFINITY (NO SOLUTION), CLEAR IF A PHYSICAL SOLUTION IS POSSIBLE.
000545:                                                                                                  #  COGAFLAG* NONE         *AN INTERPRETIVE SWITCH WHICH IS SET IF RESTRICTION 1 HAS BEEN VIOLATED (NO SOLUTION),
000546:                                                                                                  #          *              *CLEAR IF NOT.
000547:                                                                                                  #  APSESW  * NONE         *AN INTERPRETIVE SWITCH WHICH IS SET IF RDESIRED WAS GREATER THAN RADIUS OF APOCENTER OR
000548:                                                                                                  #          *              *LESS THAN RADIUS OF PERICENTER.  THE APOCENTER OR PERICENTER SOLUTION, RESPECTIVELY,
000549:                                                                                                  #          *              *WILL THEN BE RETURNED.  THE SWITCH IS CLEAR IF RDESIRED WAS BETWEEN PERICENTER AND
000550:                                                                                                  #          *              *APOCENTER.
000551:                                                                                                  #  SOLNSW  * NONE         *AN INTERPRETIVE SWITCH WHICH IS SET IF THE CONIC IS SO CLOSE TO A CIRCLE THAT THE TERMIN
000552:                                                                                                  #                         *POINT IS AMBIGUOUS, VIOLATING RESTRICTION 3.  IF ECCENTRICITY IS GREATER THAN 2-TO-THE-
000553:                                                                                                  #                         *MINUS-18, THE SWITCH IS CLEAR.
000554:
000555:
000556:                                                                                                  #  IN ADDITION, IF VTARGTAG IS NON-ZERO, THE FOLLOWING ARE OUTPUT -
000557:
000558:                                                                                                  #  MPAC -  * +7 FOR EARTH *DP TERMINAL VELOCITY VECTOR IN METERS/CENTISEC.
000559:                                                                                                  #   MPAC +5* +5 FOR MOON  *
000560:                                                                                                  #  0D - 5D * +29 FOR EARTH*DP TERMINAL POSITION VECTOR IN METERS (PL AT 6D)
000561:                                                                                                  #          * +27 FOR MOON *
000562:
000563:                                                                                                  #  FOR OTHER OUTPUT WHICH MAY BE OF USE, SEE DEBRIS.
000564:
000565:
000566:
000567:                                                                                                  #  DEBRIS -
000568:
000569:                                                                                                  #       PARAMETERS WHICH MAY BE OF USE -
000570:
000571:                                                                                                  #          * SCALE FACTOR *
000572:                                                                                                  #  VARIABLE*IN POWERS OF 2*                         DESCRIPTION AND REMARKS
000573:                                                                                                  #  --------*--------------*                         -----------------------
000574:                                                                                                  #  R1 (32D)* +29 FOR EARTH*DP MAGNITUDE OF INITIAL POSITION VECTOR, RVEC, IN METERS
000575:                                                                                                  #          * +27 FOR MOON *
000576:                                                                                                  #  R1A     * +6           *DP RATIO OF R1 TO SEMIMAJOR AXIS (NEG. FOR HYPERBOLIC TRAJECTORIES)
000577:                                                                                                  #  P       * +4           *DP RATIO OF SEMILATUS RECTUM TO R1
000578:                                                                                                  #  COGA    * +5           *DP COTAN OF ANGLE BETWEEN RVEC AND VVEC
000579:                                                                                                  #  UR1     * +1           *DP UNIT VECTOR OF RVEC
000580:                                                                                                  #  U2      * +1           *DP UNIT VECTOR OF VVEC
000581:                                                                                                  #  UN      * +1           *DP UNIT VECTOR OF UR1*U2
000582:                                                                                                  #  CSTH    * +1           *DP COSINE OF TRUE ANOMALY DIFFERENCE BETWEEN RVEC AND RDESIRED.
000583:                                                                                                  #  SNTH    * +1           *DP SINE OF TRUE ANOMALY DIFFERENCE.
000584:
000585:
000586:                                                                                                  #       PARAMETERS OF NO USE -
000587:                                                                                                  #  SP PARAMETERS -  RTNTT, GEOMSGN, RTNPRM, MAGVEC2=R2 (DP), PLUS PUSHLIST LOCATIONS 0-11D, 14D-21D, 24D-39D, 41D
000588:                                                                                                  #  ADDITIONAL INTERPRETIVE SWITCHES USED - NORMSW, 360SW
000589:
000590:


000592:                                                                                                  #  PROGRAM DESCRIPTION - APSIDES SUBROUTINE                                        DATE - 1 SEPTEMBER 1967
000593:                                                                                                  #  MOD NO. - 0                                                                     LOG SECTION - CONIC SUBROUTINES
000594:                                                                                                  #  MOD BY KRAUSE                                                                   ASSEMBLY - COLOSSUS REVISION 88
000595:
000596:
000597:
000598:                                                                                                  #  FUNCTIONAL DESCRIPTION -
000599:
000600:                                                                                                  #       THIS SUBROUTINE, GIVEN AN INITIAL STATE VECTOR CALCULATES THE RADIUS OF PERICENTER AND OF APOCENTER AND THE
000601:                                                                                                  #  ECCENTRICITY OF THE RESULTING CONIC TRAJECTORY, WHICH MAY BE A STRAIGHT LINE,
000602:                                                                                                  #  CIRCLE, ELLIPSE, PARABOLA, OR HYPERBOLA WITH RESPECT TO THE EARTH OR THE MOON.  THE USE OF THE SUBROUTINE CAN BE
000603:                                                                                                  #  EXTENDED USING OTHER PRIMARY BODIES BY SIMPLE ADDITIONS TO THE MUTABLE WITHOUT INTRODUCING ANY CODING CHANGES,
000604:                                                                                                  #  ACCEPTING THE INHERENT SCALE FACTOR CHANGES IN POSITION AND VELOCITY.
000605:
000606:
000607:                                                                                                  #  THE RESTRICTIONS ARE -
000608:                                                                                                  #       1. IF APOCENTER IS BEYOND THE SCALING OF POSITION, THE SCALE FACTOR LIMIT (536,870,910 METERS WITH RESPECT
000609:                                                                                                  #  TO THE EARTH OR 134,217,727.5 METERS WITH RESPECT TO THE MOON) WILL BE RETURNED.
000610:                                                                                                  #       2. THE PARAMETERS IN THE PROBLEM MUST NOT EXCEED THEIR SCALING LIMITS SPECIFIED IN THE GSOP.  IF THE LIMITS
000611:                                                                                                  #  ARE EXCEEDED, THE RESULTING SOLUTION WILL BE MEANINGLESS.
000612:
000613:                                                                                                  #       THE AGC COMPUTATION TIME IS APPROXIMATELY .103 SECONDS.
000614:
000615:
000616:
000617:                                                                                                  #  REFERENCES -
000618:                                                                                                  #       MISSION PROGRAMMING DEFINITION MEMO NO. 10, LUNAR LANDING MISSION GSOP-SECTION 5.5
000619:
000620:
000621:
000622:                                                                                                  #  INPUT - ERASABLE INITIALIZATION REQUIRED
000623:
000624:                                                                                                  #          * SCALE FACTOR *
000625:                                                                                                  #  VARIABLE*IN POWERS OF 2*                         DESCRIPTION AND REMARKS
000626:                                                                                                  #  --------*--------------*                         -----------------------
000627:                                                                                                  #  RVEC    * +29 FOR EARTH*DP INITIAL POSITION VECTOR IN METERS
000628:                                                                                                  #          * +27 FOR MOON *
000629:                                                                                                  #  VVEC    * +7 FOR EARTH *DP INITIAL VELOCITY VECTOR IN METERS/CENTISECOND
000630:                                                                                                  #          * +5 FOR MOON  *
000631:                                                                                                  #  X1 (38D)* NONE         *INDEX REGISTER TO BE SET TO -2D OR -10D ACCORDING TO WHETHER THE EARTH OR MOON,
000632:                                                                                                  #          *              *RESPECTIVELY, IS THE CENTRAL BODY.
000633:
000634:
000635:
000636:                                                                                                  #  SUBROUTINES CALLED -
000637:                                                                                                  #       PARAM, GEOM
000638:
000639:
000640:
000641:                                                                                                  #  CALLING SEQUENCE AND NORMAL EXIT MODES -


000643:                                                                                                  #     IF ONLY TIME IS DESIRED AS OUTPUT -
000644:                                                                                                  #  L        CALL                   MUST BE IN INTERPRETIVE MODE AND OVFIND MUST BE CLEAR.
000645:                                                                                                  #  L+1             APSIDES         RETURNS WITH PL AT 0, RADIUS OF APOCENTER IN MPAC AND RADIUS OF PERICENTER IN 0D
000646:                                                                                                  #  L+2      STODL  APOAPSE
000647:                                                                                                  #  L+3             0D
000648:                                                                                                  #  L+4      STORE  PERIAPSE                APOAPSE AND PERIAPSE ARE SYMBOLIC REPRESENTATIONS OF THE USERS LOCATIONS
000649:                                                                                                  #  L+5      ...                    CONTINUE
000650:
000651:
000652:
000653:                                                                                                  #  OUTPUT -
000654:                                                                                                  #          * SCALE FACTOR *
000655:                                                                                                  #  VARIABLE*IN POWERS OF 2*                         DESCRIPTION AND REMARKS
000656:                                                                                                  #  --------*--------------*                         -----------------------
000657:                                                                                                  #  MPAC    * +29 FOR EARTH*DP RADIUS OF APOCENTER IN METERS
000658:                                                                                                  #          * +27 FOR MOON *
000659:                                                                                                  #  0D-1D   * +29 FOR EARTH*DP RADIUS OF PERICENTER IN METERS
000660:                                                                                                  #          * +27 FOR MOON *
000661:                                                                                                  #  ECC     * +3           *DP ECCENTRICITY OF CONIC TRAJECTORY.
000662:
000663:                                                                                                  #  FOR OTHER OUTPUT WHICH MAY BE OF USE, SEE DEBRIS.
000664:
000665:
000666:
000667:                                                                                                  #  DEBRIS -
000668:
000669:                                                                                                  #       PARAMETERS WHICH MAY BE OF USE -
000670:
000671:                                                                                                  #          * SCALE FACTOR *
000672:                                                                                                  #  VARIABLE*IN POWERS OF 2*                         DESCRIPTION AND REMARKS
000673:                                                                                                  #  --------*--------------*                         -----------------------
000674:                                                                                                  #  R1 (32D)* +29 FOR EARTH*DP MAGNITUDE OF INITIAL POSITION VECTOR, RVEC, IN METERS
000675:                                                                                                  #          * +27 FOR MOON *
000676:                                                                                                  #  R1A     * +6           *DP RATIO OF R1 TO SEMIMAJOR AXIS (NEG. FOR HYPERBOLIC TRAJECTORIES)
000677:                                                                                                  #  P       * +4           *DP RATIO OF SEMILATUS RECTUM TO R1
000678:                                                                                                  #  COGA    * +5           *DP COTAN OF ANGLE BETWEEN RVEC AND VVEC
000679:                                                                                                  #  UR1     * +1           *DP UNIT VECTOR OF RVEC
000680:                                                                                                  #  U2      * +1           *DP UNIT VECTOR OF VVEC
000681:                                                                                                  #  UN      * +1           *DP UNIT VECTOR OF UR1*U2
000682:                                                                                                  #  MAGVEC2 * +7 FOR EARTH *DP MAGNITUDE OF VVEC
000683:                                                                                                  #          * +5 FOR MOON  *
000684:
000685:
000686:                                                                                                  #       PARAMETERS OF NO USE -
000687:                                                                                                  #  SP PARAMETERS - RTNAPSE, GEOMSGN, RTNPRM, PLUS PUSHLIST LOCATIONS 0-5,10D-11D, 14D-21D, 31D-38D.
000688:                                                                                                  #  ADDITIONAL INTERPRETIVE SWITCHES USED - NORMSW
000689:
000690:
000691:
000692: 12,2000                                           SETLOC   CONICS


000694: 12,2000                                           BANK
000695:
000696: 12,2000                                           COUNT    12/CONIC
000697:
000698: 12,2000  E5,1723                                  EBANK=   UR1
000699: 12,2000           71201        KEPLERN            SETPD    DLOAD
000700: 12,2001           00001                                    0
000701: 12,2002           11453                                    KEPZERO
000702: 12,2003           01344                           STORE    XMODULO
000703: 12,2004           31346                           STOVL*   TMODULO
000704: 12,2005           11626                                    MUTABLE,1
000705: 12,2006           24017                           STOVL    14D
000706: 12,2007           01503                                    RRECT
000707: 12,2010           66256                           UNIT     SSP
000708: 12,2011           00027                                    ITERCTR
000709: 12,2012           00024                                    20D
000710: 12,2013           16647                           STODL    URRECT
000711: 12,2014           00045                                    36D
000712: 12,2015           24041                           STOVL    R1
000713: 12,2016           01503                                    RRECT
000714: 12,2017           76441                           DOT      SL1R
000715: 12,2020           01511                                    VRECT
000716: 12,2021           76405                           DMP      SL1R
000717: 12,2022           00023                                    1/ROOTMU                              #  1/ROOTMU (-17 OR -14)
000718: 12,2023           24043                           STOVL    KEPC1                                 #  C1=R.V/ROOTMU (+17 OR +16)
000719: 12,2024           01511                                    VRECT
000720: 12,2025           57236                           VSQ      DMPR
000721: 12,2026           00017                                    1/MU                                  #  1/MU (-34 OR -28)
000722: 12,2027           52405                           DMP      SL3
000723: 12,2030           00041                                    R1
000724: 12,2031           61425                           DSU      ROUND
000725: 12,2032           11475                                    D1/64
000726: 12,2033           00045                           STORE    KEPC2                                 #  C2=RV.V/MU -1 (+6)
000727:
000728: 12,2034           74421                           BDSU     SR1R
000729: 12,2035           11475                                    D1/64
000730: 12,2036           77671                           DDV
000731: 12,2037           00041                                    R1
000732: 12,2040           00011                           STORE    ALPHA                                 #  ALPHA=(1-C2)/R1 (-22 OR -20)
000733:
000734:
000735: 12,2041           71244                           BPL      DLOAD                                 #  MAXIMUM X DEPENDS ON TYPE OF CONIC
000736: 12,2042           24051                                    1REV
000737: 12,2043           11513                                    -50SC                                 #  -50SC (+12)
000738: 12,2044           40071                           DDV      BOV
000739: 12,2045           00011                                    ALPHA
000740: 12,2046           24055                                    STOREMAX
000741: 12,2047           52166                           SQRT     GOTO
000742: 12,2050           24055                                    STOREMAX


000744: 12,2051           55366        1REV               SQRT     BDDV
000745: 12,2052           11515                                    2PISC                                 #  2PISC (+6)
000746: 12,2053           77600                           BOV
000747: 12,2054           24055                                    STOREMAX
000748: 12,2055           50165        STOREMAX           SIGN     BMN
000749: 12,2056           02312                                    TAU.
000750: 12,2057           24272                                    BACKWARD
000751: 12,2060           00013                           STORE    XMAX
000752: 12,2061           65205                           DMP      PDDL                                  #                               PL AT 2
000753: 12,2062           00023                                    1/ROOTMU
000754: 12,2063           00011                                    ALPHA
000755: 12,2064           65301                           NORM     PDDL                                  #  DXCH WITH 0D.  0D=ALPHA      PL AT 0,2
000756: 12,2065           00047                                    X1
000757: 12,2066           56257                           SL*      DDV                                   #                               PL AT 0
000758: 12,2067           20173                                    0          -6,1
000759: 12,2070           50000        PERIODCH           BOV      BMN
000760: 12,2071           24112                                    MODDONE
000761: 12,2072           24112                                    MODDONE
000762: 12,2073           77606                           PUSH                                           #  0D=PERIOD (+28)
000763: 12,2074           50021                           BDSU     BMN
000764: 12,2075           02312                                    TAU.
000765: 12,2076           24112                                    MODDONE
000766: 12,2077           16312                           STODL    TAU.
000767: 12,2100           00013                                    XMAX
000768: 12,2101           77615                           DAD
000769: 12,2102           01344                                    XMODULO
000770: 12,2103           15344                           STODL    XMODULO
000771: 12,2104           00001                                    0D
000772: 12,2105           77615                           DAD
000773: 12,2106           01346                                    TMODULO
000774: 12,2107           15346                           STODL    TMODULO                               #                               PL AT 0
000775: 12,2110           77650                           GOTO
000776: 12,2111           24070                                    PERIODCH
000777:
000778: 12,2112           71201        MODDONE            SETPD    DLOAD
000779: 12,2113           00001                                    0
000780: 12,2114           11453                                    KEPZERO
000781: 12,2115           14015                           STODL    XMIN
000782: 12,2116           02306                                    XKEPNEW
000783: 12,2117           77625                           DSU
000784: 12,2120           01344                                    XMODULO
000785: 12,2121           00025                           STORE    X
000786: 12,2122           50054                           BZE      BMN
000787: 12,2123           24265                                    BADX
000788: 12,2124           24265                                    BADX
000789: 12,2125           51025                           DSU      BPL
000790: 12,2126           00013                                    XMAX
000791: 12,2127           24265                                    BADX
000792:


000794: 12,2130           57345        DXCOMP             DLOAD    DMPR
000795: 12,2131           02312                                    TAU.
000796: 12,2132           11506                                    BEE22
000797: 12,2133           77646                           ABS
000798: 12,2134           15350                           STODL    EPSILONT
000799: 12,2135           01551                                    TC
000800: 12,2136           45254                           BZE      DSU
000801: 12,2137           24141                                    NEWTC
000802: 12,2140           01346                                    TMODULO
000803: 12,2141           15551        NEWTC              STODL    TC
000804: 12,2142           01553                                    XPREV
000805: 12,2143           45254                           BZE      DSU
000806: 12,2144           24146                                    XDIFF
000807: 12,2145           01344                                    XMODULO
000808: 12,2146           77621        XDIFF              BDSU
000809: 12,2147           00025                                    X
000810: 12,2150           02643                           STORE    DELX
000811:
000812:
000813: 12,2151           63545        KEPLOOP            DLOAD    DSQ
000814: 12,2152           00025                                    X                                     #  X=XKEP
000815: 12,2153           41501                           NORM     PUSH                                  #  0D=XSQ (+34 OR +32 -N1)      PL AT 2
000816: 12,2154           00047                                    X1
000817: 12,2155           53605                           DMP      SRR*
000818: 12,2156           00011                                    ALPHA
000819: 12,2157           21573                                    0          -6,1
000820: 12,2160           34031                           STCALL   XI                                    #  XI=ALPHA XSQ (+6)
000821: 12,2161           24426                                    DELTIME
000822: 12,2162           44200                           BOV      BDSU
000823: 12,2163           24312                                    TIMEOVFL                              #  UNLIKELY
000824: 12,2164           02312                                    TAU.
000825: 12,2165           02645                           STORE    DELT                                  #  DELT=DELINDEP
000826: 12,2166           44246                           ABS      BDSU
000827: 12,2167           01350                                    EPSILONT
000828: 12,2170           71244                           BPL      DLOAD
000829: 12,2171           24334                                    KEPCONVG
000830: 12,2172           00037                                    T
000831: 12,2173           60225                           DSU      NORM
000832: 12,2174           01551                                    TC
000833: 12,2175           00047                                    X1
000834: 12,2176           60325                           PDDL     NORM
000835: 12,2177           02643                                    DELX
000836: 12,2200           00050                                    X2
000837: 12,2201           41260                           XSU,1    DMP
000838: 12,2202           00047                                    X2
000839: 12,2203           02645                                    DELT
000840: 12,2204           56257                           SLR*     DDV
000841: 12,2205           21202                                    1,1
000842: 12,2206           41542                           SR1      PUSH                                  #  0D=TRIAL DELX                PL AT 2
000843: 12,2207           71244                           BPL      DLOAD


000845: 12,2210           24231                                    POSDELX
000846: 12,2211           00025                                    X
000847: 12,2212           00013                           STORE    XMAX                                  #  MOVE MAX BOUND IN
000848: 12,2213           45221                           BDSU     DSU                                   #                               PL AT 0
000849: 12,2214           00015                                    XMIN
000850: 12,2215           51000                           BOV      BPL
000851: 12,2216           24223                                    NDXCHNGE
000852: 12,2217           24223                                    NDXCHNGE
000853: 12,2220           52145                           DLOAD    GOTO
000854: 12,2221           00001                                    0D
000855: 12,2222           24243                                    NEWDELX
000856:
000857:
000858: 12,2223           45345        NDXCHNGE           DLOAD    DSU
000859: 12,2224           00015                                    XMIN
000860: 12,2225           00025                                    X
000861: 12,2226           52075                           DMPR     GOTO                                  #  TO FORCE MPAC +2 TO ZERO
000862: 12,2227           11511                                    DP9/10
000863: 12,2230           24243                                    NEWDELX
000864:
000865:
000866: 12,2231           77745        POSDELX            DLOAD
000867: 12,2232           00025                                    X
000868: 12,2233           00015                           STORE    XMIN                                  #  MOVE MIN BOUND IN
000869: 12,2234           45221                           BDSU     DSU                                   #                               PL AT 0
000870: 12,2235           00013                                    XMAX
000871: 12,2236           50000                           BOV      BMN
000872: 12,2237           24257                                    PDXCHNGE
000873: 12,2240           24257                                    PDXCHNGE
000874: 12,2241           77745                           DLOAD
000875: 12,2242           00001                                    0D
000876: 12,2243           02643        NEWDELX            STORE    DELX
000877: 12,2244           43254                           BZE      DAD
000878: 12,2245           24334                                    KEPCONVG
000879: 12,2246           00025                                    X
000880: 12,2247           14025                           STODL    X
000881: 12,2250           00037                                    T
000882: 12,2251           01551                           STORE    TC
000883: 12,2252           46034        BRNCHCTR           RTB      BHIZ
000884: 12,2253           24651                                    CHECKCTR
000885: 12,2254           24334                                    KEPCONVG
000886: 12,2255           77650                           GOTO
000887: 12,2256           24151                                    KEPLOOP                               #  ITERATE
000888:
000889:
000890: 12,2257           45345        PDXCHNGE           DLOAD    DSU
000891: 12,2260           00013                                    XMAX
000892: 12,2261           00025                                    X
000893: 12,2262           52075                           DMPR     GOTO                                  #  TO FORCE MPAC +2 TO ZERO
000894: 12,2263           11511                                    DP9/10


000896: 12,2264           24243                                    NEWDELX
000897:
000898:
000899: 12,2265           70545        BADX               DLOAD    SR1                                   #  RECIPE EXCEEDED X BOUNDS - USE XMAX/2
000900: 12,2266           00013                                    XMAX
000901: 12,2267           00025                           STORE    X
000902: 12,2270           77650                           GOTO
000903: 12,2271           24130                                    DXCOMP
000904:
000905:
000906: 12,2272           14015        BACKWARD           STODL    XMIN
000907: 12,2273           11453                                    KEPZERO
000908: 12,2274           14013                           STODL    XMAX
000909: 12,2275           02306                                    XKEPNEW
000910: 12,2276           00025                           STORE    X
000911: 12,2277           51054                           BZE      BPL
000912: 12,2300           24305                                    BADBKWDX
000913: 12,2301           24305                                    BADBKWDX
000914: 12,2302           51025                           DSU      BPL
000915: 12,2303           00015                                    XMIN
000916: 12,2304           24130                                    DXCOMP
000917: 12,2305           70545        BADBKWDX           DLOAD    SR1
000918: 12,2306           00015                                    XMIN
000919: 12,2307           00025                           STORE    X
000920: 12,2310           77650                           GOTO
000921: 12,2311           24130                                    DXCOMP
000922:
000923:
000924: 12,2312           50145        TIMEOVFL           DLOAD    BMN                                   #  X WAS TOO BIG
000925: 12,2313           00025                                    X
000926: 12,2314           24331                                    NEGTOVFL
000927: 12,2315           00013                           STORE    XMAX
000928: 12,2316           70545        CMNTOVFL           DLOAD    SR1
000929: 12,2317           02643                                    DELX
000930: 12,2320           02643                           STORE    DELX
000931: 12,2321           44254                           BZE      BDSU
000932: 12,2322           02270                                    KEPRTN
000933: 12,2323           00025                                    X
000934: 12,2324           14025                           STODL    X
000935: 12,2325           01551                                    TC
000936: 12,2326           00037                           STORE    T
000937: 12,2327           77650                           GOTO
000938: 12,2330           24252                                    BRNCHCTR
000939: 12,2331           00015        NEGTOVFL           STORE    XMIN
000940: 12,2332           77650                           GOTO
000941: 12,2333           24316                                    CMNTOVFL
000942: 12,2334           44545        KEPCONVG           DLOAD    SR4R
000943: 12,2335           00041                                    R1
000944: 12,2336           74225                           DSU      VXSC
000945: 12,2337           00035                                    XSQC(XI)


000947: 12,2340           02647                                    URRECT
000948: 12,2341           65372                           VSL1     PDDL                                  #  0D=(R1-XSQC(XI))URRECT (+33 OR +31)
000949: 12,2342           00025                                    X
000950: 12,2343           60316                           DSQ      NORM
000951: 12,2344           00047                                    X1
000952: 12,2345           57275                           DMPR     DMPR
000953: 12,2346           00023                                    1/ROOTMU
000954: 12,2347           00025                                    X
000955: 12,2350           53605                           DMP      SRR*
000956: 12,2351           00033                                    S(XI)
000957: 12,2352           21572                                    0          -7,1
000958: 12,2353           77621                           BDSU
000959: 12,2354           00037                                    T
000960: 12,2355           74352                           SL1      VXSC
000961: 12,2356           01511                                    VRECT
000962: 12,2357           53372                           VSL1     VAD                                   #                               PL AT 0
000963: 12,2360           77712                           VSL4
000964: 12,2361           01535                           STORE    RCV                                   #  RCV (+29 OR +27)
000965:
000966:
000967: 12,2362           60246                           ABVAL    NORM
000968: 12,2363           00050                                    X2
000969: 12,2364           16655                           STODL    RCNORM
000970: 12,2365           00031                                    XI
000971: 12,2366           45275                           DMPR     DSU
000972: 12,2367           00033                                    S(XI)
000973: 12,2370           11473                                    D1/128
000974: 12,2371           76405                           DMP      SL1R
000975: 12,2372           00021                                    ROOTMU
000976: 12,2373           53605                           DMP      SLR*
000977: 12,2374           00025                                    X
000978: 12,2375           56601                                    0          -3,2
000979: 12,2376           74271                           DDV      VXSC
000980: 12,2377           02655                                    RCNORM
000981: 12,2400           02647                                    URRECT
000982: 12,2401           65372                           VSL1     PDDL                                  #  0D=URRECT(XI S(XI)-1)X ROOTMU/RCV (+15
000983: 12,2402           00035                                    XSQC(XI)                              #  OR +13)                        PL AT 6
000984: 12,2403           56257                           SLR*     DDV
000985: 12,2404           56602                                    0          -4,2
000986: 12,2405           02655                                    RCNORM
000987: 12,2406           74221                           BDSU     VXSC
000988: 12,2407           11507                                    D1/256
000989: 12,2410           01511                                    VRECT
000990: 12,2411           42455                           VAD      VSL8                                  #                               PL AT 0
000991: 12,2412           77626                           STADR
000992: 12,2413           62234                           STODL    VCV                                   #  VCV (+7 OR +5)
000993: 12,2414           00037                                    T
000994: 12,2415           77615                           DAD
000995: 12,2416           01346                                    TMODULO
000996: 12,2417           15551                           STODL    TC


000998: 12,2420           00025                                    X
000999: 12,2421           77615                           DAD
001000: 12,2422           01344                                    XMODULO
001001: 12,2423           01553                           STORE    XPREV
001002: 12,2424           77650                           GOTO
001003: 12,2425           02270                                    KEPRTN
001004:


001006: 12,2426           77776        DELTIME            EXIT                                           #  MPAC=XI (+6), 0D=XSQ (+34 OR +32 -N1)
001007: 12,2427           07171                           TC       POLY
001008: 12,2430           00010                           DEC      8          B-14
001009: 12,2431           02525 12526                     2DEC     .083333334
001010: 12,2433           67356 75666                     2DEC     -.266666684
001011: 12,2435           15001 23771                     2DEC     .406349155
001012: 12,2437           64342 43674                     2DEC     -.361198675
001013: 12,2441           06563 04645                     2DEC     .210153242
001014: 12,2443           75173 52672                     2DEC     -.086221951
001015: 12,2445           00656 14331                     2DEC     .026268812
001016: 12,2447           77633 40512                     2DEC     -.006163316
001017: 12,2451           00023 11210                     2DEC     .001177342
001018: 12,2453           77774 67506                     2DEC     -.000199055
001019: 12,2455           06006                           TC       INTPRET
001020: 12,2456           14033                           STODL    S(XI)
001021: 12,2457           00031                                    XI
001022: 12,2460           77776                           EXIT
001023: 12,2461           07171                           TC       POLY
001024: 12,2462           00010                           DEC      8          B-14
001025: 12,2463           01000 00000                     2DEC     .031250001
001026: 12,2465           72525 52506                     2DEC     -.166666719
001027: 12,2467           13301 15337                     2DEC     .355555413
001028: 12,2471           62776 54733                     2DEC     -.406347410
001029: 12,2473           11176 13267                     2DEC     .288962094
001030: 12,2475           73410 51674                     2DEC     -.140117894
001031: 12,2477           01446 33641                     2DEC     .049247387
001032: 12,2501           77451 65233                     2DEC     -.013081923
001033: 12,2503           00055 37266                     2DEC     .002806389
001034: 12,2505           77767 52336                     2DEC     -.000529414
001035: 12,2507           06006                           TC       INTPRET


001037: 12,2510           53605                           DMP      SRR*                                  #                               PL AT 0
001038: 12,2511           00001                                    0D
001039: 12,2512           21574                                    0          -5,1
001040: 12,2513           00035                           STORE    XSQC(XI)                              #  XSQC(XI) (+33 OR +31)
001041: 12,2514           72405                           DMP      SL1
001042: 12,2515           00043                                    KEPC1
001043: 12,2516           65234                           RTB      PDDL                                  #  XCH WITH PL. 0D=C1 XSQ C(XI) (+49 OR +46
001044: 12,2517           45562                                    TPMODE                                #                               PL AT 0,3
001045: 12,2520           53605                           DMP      SRR*
001046: 12,2521           00033                                    S(XI)
001047: 12,2522           21574                                    0          -5,1
001048: 12,2523           72405                           DMP      SL1
001049: 12,2524           00045                                    KEPC2
001050: 12,2525           65234                           RTB      PDDL                                  #  3D=C2 XSQ S(XI) (+35 OR +33)  PL AT 6
001051: 12,2526           45562                                    TPMODE
001052: 12,2527           00041                                    R1
001053: 12,2530           76261                           SR       TAD                                   #                               PL AT 3
001054: 12,2531           20607                                    6
001055: 12,2532           41301                           NORM     DMP                                   #  TO PRESERVE SIGNIF.
001056: 12,2533           00047                                    X1
001057: 12,2534           00025                                    X
001058: 12,2535           76257                           SR*      TAD                                   #  X(C2 XSQ S(XI) +R1) (+49 OR +46) PL AT 0
001059: 12,2536           20576                                    0          -3,1
001060: 12,2537           57232                           SL4R     DMPR
001061: 12,2540           00023                                    1/ROOTMU
001062: 12,2541           00037                           STORE    T
001063: 12,2542           77616                           RVQ
001064:


001066: 12,2543           71214        ITERATOR           BONCLR   DLOAD
001067: 12,2544           00614                                    SLOPESW
001068: 12,2545           24613                                    FIRSTIME
001069: 12,2546           00037                                    DEP
001070: 12,2547           60225                           DSU      NORM
001071: 12,2550           02764                                    DEPREV
001072: 12,2551           00047                                    X1
001073: 12,2552           60325                           PDDL     NORM
001074: 12,2553           00015                                    DELINDEP
001075: 12,2554           00050                                    X2
001076: 12,2555           41260                           XSU,1    DMP
001077: 12,2556           00047                                    X2
001078: 12,2557           02762                                    DELDEP
001079: 12,2560           56257                           SLR*     DDV                                   #                               PL UP 2
001080: 12,2561           21202                                    1,1
001081: 12,2562           43142                           SR1      BOFF
001082: 12,2563           04351                                    ORDERSW
001083: 12,2564           24567                                    SGNCHECK
001084: 12,2565           75246                           ABS      SIGN                                  #  IN CASE 2ND DERIV. CHANGED SIGN, MUST
001085: 12,2566           02762                                    DELDEP                                #  DISREGARD IT TO FIND MIN.
001086:
001087: 12,2567           51006        SGNCHECK           PUSH     BPL                                   #  TRIAL DELINDEP               PL DOWN 2
001088: 12,2570           24625                                    POSDEL
001089: 12,2571           43145                           DLOAD    BON
001090: 12,2572           03775                                    INDEP
001091: 12,2573           04311                                    ORDERSW
001092: 12,2574           24576                                    MINCHECK
001093: 12,2575           00017                           STORE    MAX                                   #  IF NOT 2ND ORDER, CAN MOVE MAX BOUND IN.
001094:
001095: 12,2576           45221        MINCHECK           BDSU     DSU
001096: 12,2577           00011                                    MIN
001097: 12,2600           51000                           BOV      BPL
001098: 12,2601           24605                                    MODNGDEL
001099: 12,2602           24605                                    MODNGDEL
001100: 12,2603           77650                           GOTO
001101: 12,2604           24637                                    DELOK
001102:
001103:
001104: 12,2605           45345        MODNGDEL           DLOAD    DSU                                   #  TRIAL DELINDEP WOULD EXCEED MIN BOUND
001105: 12,2606           00011                                    MIN
001106: 12,2607           03775                                    INDEP
001107: 12,2610           52005                           DMP      GOTO
001108: 12,2611           11511                                    DP9/10
001109: 12,2612           24641                                    NEWDEL
001110:
001111:
001112: 12,2613           41345        FIRSTIME           DLOAD    DMP
001113: 12,2614           00011                                    MIN
001114: 12,2615           00051                                    TWEEKIT                               #  DLOAD TWEEKIT(40D) SENSITIVE TO CHANGE.
001115: 12,2616           41325                           PDDL     DMP                                   #  S2(41D) SHOULDNT CONTAIN HI ORDER ONES


001117: 12,2617           00017                                    MAX
001118: 12,2620           00051                                    TWEEKIT
001119: 12,2621           77625                           DSU
001120: 12,2622           52165                           SIGN     GOTO
001121: 12,2623           02762                                    DELDEP
001122: 12,2624           24567                                    SGNCHECK
001123:
001124:
001125: 12,2625           43145        POSDEL             DLOAD    BON
001126: 12,2626           03775                                    INDEP
001127: 12,2627           04311                                    ORDERSW
001128: 12,2630           24632                                    MAXCHECK
001129: 12,2631           00011                           STORE    MIN                                   #  IF NOT 2ND ORDER, CAN MOVE MIN BOUND IN.
001130:
001131: 12,2632           45221        MAXCHECK           BDSU     DSU
001132: 12,2633           00017                                    MAX
001133: 12,2634           50000                           BOV      BMN
001134: 12,2635           24643                                    MODPSDEL
001135: 12,2636           24643                                    MODPSDEL
001136: 12,2637           77745        DELOK              DLOAD
001137: 12,2640           00001                                    0D
001138: 12,2641           00015        NEWDEL             STORE    DELINDEP
001139: 12,2642           77616                           RVQ
001140:
001141:
001142: 12,2643           45345        MODPSDEL           DLOAD    DSU
001143: 12,2644           00017                                    MAX
001144: 12,2645           03775                                    INDEP
001145: 12,2646           52005                           DMP      GOTO
001146: 12,2647           11511                                    DP9/10
001147: 12,2650           24641                                    NEWDEL
001148:
001149:
001150: 12,2651           44712        CHECKCTR           CS       ONE
001151: 12,2652           50120                           INDEX    FIXLOC
001152: 12,2653           60026                           AD       ITERCTR
001153: 12,2654           50120                           INDEX    FIXLOC
001154: 12,2655           54026                           TS       ITERCTR
001155: 12,2656           54154                           TS       MPAC
001156: 12,2657           06030                           TC       DANZIG
001157:


001159: 12,2660           44545        NEWSTATE           DLOAD    SR4R
001160: 12,2661           00041                                    R1
001161: 12,2662           74225                           DSU      VXSC
001162: 12,2663           00035                                    XSQC(XI)
001163: 12,2664           02724                                    UR1
001164: 12,2665           65372                           VSL1     PDDL                                  #  0D=(R1-XSQC(XI))UR1 (+33 OR 31) PL AT 6
001165: 12,2666           00025                                    X
001166: 12,2667           60316                           DSQ      NORM
001167: 12,2670           00047                                    X1
001168: 12,2671           57275                           DMPR     DMPR
001169: 12,2672           00023                                    1/ROOTMU
001170: 12,2673           00025                                    X
001171: 12,2674           53605                           DMP      SRR*
001172: 12,2675           00033                                    S(XI)
001173: 12,2676           21572                                    0          -7,1
001174: 12,2677           77621                           BDSU
001175: 12,2700           00037                                    T
001176: 12,2701           74352                           SL1      VXSC
001177: 12,2702           02746                                    VVEC
001178: 12,2703           53372                           VSL1     VAD                                   #                               PL AT 0
001179: 12,2704           41512                           VSL4     PUSH
001180: 12,2705           77646                           ABVAL
001181: 12,2706           77701        LAMENTER           NORM
001182: 12,2707           00047                                    X1
001183: 12,2710           16722                           STODL    R2
001184: 12,2711           00031                                    XI
001185: 12,2712           45205                           DMP      DSU
001186: 12,2713           00033                                    S(XI)
001187: 12,2714           11473                                    D1/128
001188: 12,2715           76405                           DMP      SL1R
001189: 12,2716           00021                                    ROOTMU
001190: 12,2717           53605                           DMP      SLR*
001191: 12,2720           00025                                    X
001192: 12,2721           21176                                    0          -3,1
001193: 12,2722           74271                           DDV      VXSC
001194: 12,2723           02722                                    R2
001195: 12,2724           02724                                    UR1
001196: 12,2725           65372                           VSL1     PDDL                                  #  6D=V2VEC PART (+15 OR 13)       PL AT 12
001197: 12,2726           00035                                    XSQC(XI)
001198: 12,2727           56257                           SLR*     DDV
001199: 12,2730           21175                                    0          -4,1
001200: 12,2731           02722                                    R2
001201: 12,2732           77621                           BDSU
001202: 12,2733           11507                                    D1/256
001203: 12,2734           53361                           VXSC     VAD                                   #                               PL AT 6
001204: 12,2735           02746                                    VVEC
001205: 12,2736           43412                           VSL8     RVQ
001206:


001208: 04,2000                                           SETLOC   CONICS1
001209: 04,2000                                           BANK
001210:
001211: 04,3467                                           COUNT    04/CONIC
001212:                                                                                                  #  DO NOT DISTURB THE ORDER OF THESE CDS, OVERLAYS HAVE BEEN MADE.
001213: 04,3467           00000        BEE17              DEC      0          B-14                       #  KEEP WITH D1/8 2DEC 1.0B-17 (0000004000)
001214: 04,3470           04000 00000  D1/8               2DEC     1.0        B-3
001215: 04,3472           00200 00000  D1/128             2DEC     1.0        B-7
001216: 04,3474           00400 00000  D1/64              2DEC     1.0        B-6
001217: 04,3476           10000 00000  D1/4               2DEC     1.0        B-2
001218: 04,3500           02000 00000  D1/16              2DEC     1.0        B-4
001219: 04,3502           01000 00000  D1/32              2DEC     1.0        B-5
001220: 04,3504           00020 00000  D1/1024            2DEC     1.0        B-10
001221: 04,3506           00100 00000  D1/256             2DEC     1.0        B-8
001222: 04,3510           34631 23146  DP9/10             2DEC     .9
001223: 04,3512  04,3452               KEPZERO            EQUALS   LO6ZEROS
001224: 04,3512           77467 77777  -50SC              2DEC     -50.0      B-12
001225: 04,3514           03110 17665  2PISC              2DEC     6.28318530 B-6
001226: 04,3516  04,3501               BEE19              EQUALS   D1/32      -1                         #  2DEC 1.0 B-19 (00000 01000)
001227: 04,3516  04,3505               BEE22              EQUALS   D1/256     -1                         #  2DEC 1.0 B-22 (00000 00100)
001228: 04,3516           00000 00001  ONEBIT             2DEC     1.0        B-28
001229: 04,3520           37767 37737  COGUPLIM           2DEC     .999511597
001230: 04,3522           40010 40040  COGLOLIM           2DEC     -.999511597
001231:


001233: 12,2000                                           SETLOC   CONICS
001234: 12,2000                                           BANK
001235:
001236: 12,2737                                           COUNT    12/CONIC
001237:
001238: 12,2737           40220        TIMETHET           STQ      SETPD                                 #                               PL AT 0
001239: 12,2740           02712                                    RTNTT
001240: 12,2741           00001                                    0
001241: 12,2742           63375                           VLOAD    PDVL                                  #  SETUP FOR PARAM CALL         PL AT 6
001242: 12,2743           02657                                    RVEC
001243: 12,2744           02746                                    VVEC
001244: 12,2745           77624                           CALL
001245: 12,2746           11524                                    PARAM
001246: 12,2747           45000                           BOV      CALL
001247: 12,2750           24767                                    COGAOVFL                              #                               PL AT 0
001248: 12,2751           24772                                    GETX
001249: 12,2752           43145        COMMNOUT           DLOAD    BON
001250: 12,2753           00031                                    XI
001251: 12,2754           04310                                    INFINFLG
001252: 12,2755           02712                                    RTNTT
001253: 12,2756           45014                           CLEAR    CALL
001254: 12,2757           04273                                    COGAFLAG
001255: 12,2760           24426                                    DELTIME
001256: 12,2761           45014                           BON      CALL
001257: 12,2762           03706                                    RVSW
001258: 12,2763           02712                                    RTNTT
001259: 12,2764           24660                                    NEWSTATE
001260: 12,2765           77650                           GOTO
001261: 12,2766           02712                                    RTNTT
001262:
001263:
001264: 12,2767           77614        COGAOVFL           SETGO
001265: 12,2770           04033                                    COGAFLAG
001266: 12,2771           02712                                    RTNTT
001267:


001269: 04,3524                                           BANK     4
001270: 04,2000                                           SETLOC   CONICS1
001271: 04,2000                                           BANK
001272: 04,3524                                           COUNT*   $$/CONIC
001273: 04,3524           43020        PARAM              STQ      CLEAR                                 #  MPAC=V1VEC, 0D=R1VEC         PL AT 6
001274: 04,3525           02755                                    RTNPRM
001275: 04,3526           03665                                    NORMSW
001276: 04,3527           77614                           CLEAR
001277: 04,3530           04273                                    COGAFLAG
001278: 04,3531           45131                           SSP      CALL
001279: 04,3532           02675                                    GEOMSGN
001280: 04,3533           27777                                    37777                                 #  GAMMA ALWAYS LESS THAN 180DEG
001281: 04,3534           11570                                    GEOM                                  #  MPAC=SNGA (+1), 0D=CSGA (+1) PL AT 2
001282: 04,3535           14045                           STODL    36D                                   #  36D=SIN GAMMA (+1)           PL AT 0
001283: 04,3536           56261                           SR       DDV
001284: 04,3537           20606                                    5
001285:
001286: 04,3540           00045                                    36D
001287: 04,3541           33775                           STOVL*   COGA
001288: 04,3542           11626                                    MUTABLE,1
001289: 04,3543           14017                           STODL    1/MU
001290: 04,3544           02722                                    MAGVEC2
001291: 04,3545           60316                           DSQ      NORM
001292: 04,3546           00047                                    X1
001293: 04,3547           41275                           DMPR     DMP
001294: 04,3550           00017                                    1/MU
001295: 04,3551           00041                                    R1
001296: 04,3552           77657                           SRR*
001297: 04,3553           21576                                    0          -3,1
001298: 04,3554           44206                           PUSH     BDSU                                  #  0D=R1 V1SQ/MU (+6)           PL AT 2
001299: 04,3555           11503                                    D1/32
001300: 04,3556           16744                           STODL    R1A                                   #  R1A (+6)                     PL AT 0
001301:
001302: 04,3557           60205                           DMP      NORM
001303: 04,3560           00045                                    36D
001304: 04,3561           00047                                    X1
001305: 04,3562           53605                           DMP      SR*
001306: 04,3563           00045                                    36D
001307: 04,3564           20575                                    0          -4,1
001308: 04,3565           02742                           STORE    P                                     #  P (+4)
001309: 04,3566           77650                           GOTO
001310: 04,3567           02755                                    RTNPRM
001311:


001313: 04,3570           77656        GEOM               UNIT                                           #  MPAC=V2VEC, 0D=R1VEC         PL AT 6
001314: 04,3571           16714                           STODL    U2                                    #  U2 (+1)
001315: 04,3572           00045                                    36D
001316: 04,3573           26722                           STOVL    MAGVEC2                               #                               PL AT 0
001317: 04,3574           77656                           UNIT
001318: 04,3575           02724                           STORE    UR1                                   #  UR1 (+1)
001319: 04,3576           72441                           DOT      SL1
001320: 04,3577           02714                                    U2
001321: 04,3600           77725                           PDDL                                           #  0D=CSTH (+1)                 PL AT 2
001322: 04,3601           00045                                    36D
001323: 04,3602           24041                           STOVL    R1                                    #  R1 (+29 OR +27)
001324: 04,3603           02724                                    UR1
001325: 04,3604           76435                           VXV      VSL1
001326: 04,3605           02714                                    U2
001327: 04,3606           75214                           BON      SIGN
001328: 04,3607           03705                                    NORMSW
001329: 04,3610           11622                                    HAVENORM
001330: 04,3611           02675                                    GEOMSGN
001331: 04,3612           40056                           UNIT     BOV
001332: 04,3613           11620                                    COLINEAR
001333: 04,3614           16676        UNITNORM           STODL    UN                                    #  UN (+1)
001334: 04,3615           00045                                    36D
001335: 04,3616           43565                           SIGN     RVQ                                   #  MPAC=SNTH (+1), 34D=SNTH.SNTH (+2)
001336: 04,3617           02675                                    GEOMSGN
001337:
001338:
001339: 04,3620           52162        COLINEAR           VSR1     GOTO
001340: 04,3621           11614                                    UNITNORM
001341:
001342:
001343: 04,3622           75246        HAVENORM           ABVAL    SIGN
001344: 04,3623           02675                                    GEOMSGN
001345: 04,3624           77616                           RVQ                                            #  MPAC=SNTH (+1), 34D=SNTH.SNTH (+2)
001346:


001348: 12,2772                                           BANK     12
001349: 12,2000                                           SETLOC   CONICS
001350: 12,2000                                           BANK
001351:
001352: 12,2772                                           COUNT    12/CONIC
001353:
001354: 12,2772           66374        GETX               AXT,2    SSP                                   #  ASSUMES P (+4) IN MPAC
001355: 12,2773           00003                                    3
001356: 12,2774           00052                                    S2
001357: 12,2775           00001                                    1
001358: 12,2776           77614                           CLEAR
001359: 12,2777           04276                                    360SW
001360: 12,3000           65366                           SQRT     PDDL                                  #  0D=SQRT(P)                       PL AT 2
001361: 12,3001           02734                                    CSTH
001362: 12,3002           44342                           SR1      BDSU
001363: 12,3003           11477                                    D1/4
001364: 12,3004           54325                           PDDL     SRR                                   #                               PL AT 4D
001365: 12,3005           02732                                    SNTH
001366: 12,3006           21607                                    6
001367: 12,3007           77671                           DDV                                            #                               PL AT 2
001368: 12,3010           77600                           BOV
001369: 12,3011           25125                                    360CHECK
001370: 12,3012           41225                           DSU      DMP
001371: 12,3013           03775                                    COGA                                  #                                   PL AT 0
001372: 12,3014           40132                           SL2R     BOV
001373: 12,3015           25125                                    360CHECK
001374: 12,3016           63406        WLOOP              PUSH     DSQ                                   #  0D=W (+5)                        PL AT 2
001375: 12,3017           65351                           TLOAD    PDDL                                  #  2D=WSQ (+10)                     PL AT 5
001376: 12,3020           00155                                    MPAC
001377: 12,3021           02744                                    R1A
001378: 12,3022           76202                           SR4      TAD                                   #                               PL AT 2
001379: 12,3023           75440                           BMN      SQRT
001380: 12,3024           25210                                    INFINITY
001381: 12,3025           43306                           ROUND    DAD                                   #                               PL AT 0D
001382: 12,3026           61000                           BOV      TIX,2
001383: 12,3027           25123                                    RESETX2
001384: 12,3030           25016                                    WLOOP
001385:
001386:
001387: 12,3031           40065                           BDDV     BOV
001388: 12,3032           11473                                    D1/128
001389: 12,3033           25210                                    INFINITY
001390: 12,3034           41440        POLYCOEF           BMN      PUSH                                  #  0D=1/W (+2) OR 16/W (+6)     PL AT 2
001391: 12,3035           25210                                    INFINITY
001392: 12,3036           77716                           DSQ
001393: 12,3037           41301                           NORM     DMP
001394: 12,3040           00047                                    X1
001395: 12,3041           02744                                    R1A
001396: 12,3042           77457                           SRR*     EXIT
001397: 12,3043           21567                                    0          -10D,1


001399: 12,3044           07171                           TC       POLY
001400: 12,3045           00005                           DEC      5          B-14
001401: 12,3046           20000 00000                     2DEC     .5
001402: 12,3050           72525 52471                     2DEC     -.166666770
001403: 12,3052           03146 15003                     2DEC     .100000392
001404: 12,3054           75556 45210                     2DEC     -.071401086
001405: 12,3056           01615 13553                     2DEC     .055503292
001406: 12,3060           76371 63777                     2DEC     -.047264098
001407: 12,3062           01232 27367                     2DEC     .040694204
001408: 12,3064           06006                           TC       INTPRET
001409: 12,3065           76405                           DMP      SL1R                                  #                               PL AT 0D
001410: 12,3066           43006                           PUSH     BON
001411: 12,3067           04316                                    360SW
001412: 12,3070           25175                                    TRUE360X
001413: 12,3071           60316        XCOMMON            DSQ      NORM
001414: 12,3072           00047                                    X1
001415: 12,3073           53605                           DMP      SRR*
001416: 12,3074           02744                                    R1A
001417: 12,3075           21565                                    0          -12D,1
001418: 12,3076           14031                           STODL    XI                                    #  XI (+6)
001419:
001420:
001421: 12,3077           00041                                    R1
001422: 12,3100           75542                           SR1      SQRT
001423: 12,3101           41306                           ROUND    DMP
001424: 12,3102           77632                           SL4R                                           #                               PL AT 0
001425: 12,3103           00025                           STORE    X                                     #  X (+17 OR +16)
001426:
001427:
001428: 12,3104           60316                           DSQ      NORM
001429: 12,3105           00047                                    X1
001430: 12,3106           41325                           PDDL     DMP                                   #  0D=XSQ (+34 OR +32 -N1)      PL AT 2
001431: 12,3107           02742                                    P
001432: 12,3110           00041                                    R1
001433: 12,3111           75452                           SL3      SQRT
001434: 12,3112           56405                           DMP      SL3R
001435: 12,3113           03775                                    COGA
001436: 12,3114           14043                           STODL    KEPC1
001437: 12,3115           02744                                    R1A
001438: 12,3116           43021                           BDSU     CLEAR
001439: 12,3117           11475                                    D1/64
001440: 12,3120           04270                                    INFINFLG
001441: 12,3121           00045                           STORE    KEPC2


001443: 12,3122           77616                           RVQ
001444:
001445:
001446: 12,3123           77774        RESETX2            AXT,2
001447: 12,3124           00003                                    3
001448:
001449:
001450: 12,3125           51001        360CHECK           SETPD    BPL
001451: 12,3126           00001                                    0D
001452: 12,3127           25132                                    INVRSEQN
001453: 12,3130           77614                           SET
001454: 12,3131           04076                                    360SW
001455:
001456:
001457: 12,3132           75545        INVRSEQN           DLOAD    SQRT
001458: 12,3133           02742                                    P
001459: 12,3134           41325                           PDDL     DMP                                   #  0D=SQRT(P)  (+2)                 PL AT 2
001460: 12,3135           02732                                    SNTH
001461: 12,3136           03775                                    COGA
001462: 12,3137           65352                           SL1      PDDL                                  #  2D=SNTH COGA (+5)                PL AT 4
001463: 12,3140           02734                                    CSTH
001464: 12,3141           43202                           SR4      DAD
001465: 12,3142           11503                                    D1/32
001466: 12,3143           41225                           DSU      DMP                                   #                               PL AT 2,0
001467: 12,3144           55301                           NORM     BDDV
001468: 12,3145           00047                                    X1
001469: 12,3146           02732                                    SNTH
001470: 12,3147           51457                           SLR*     ABS                                   #  NOTE: NEAR 360 CASE TREATED DIFFERENTLY
001471: 12,3150           21174                                    0          -5,1
001472: 12,3151           63406                           PUSH     DSQ                                   #  0D=1/W (-1)                  PL AT 2
001473: 12,3152           14043                           STODL    34D
001474: 12,3153           11501                                    D1/16
001475: 12,3154           63406        1/WLOOP            PUSH     DSQ                                   #  2D=G (+4)                        PL AT 4
001476: 12,3155           65234                           RTB      PDDL                                  #                               PL AT 7
001477: 12,3156           45562                                    TPMODE
001478: 12,3157           02744                                    R1A
001479: 12,3160           40405                           DMP      SR4
001480: 12,3161           00043                                    34D
001481: 12,3162           77771                           TAD                                            #                                   PL AT 4
001482: 12,3163           75440                           BMN      SQRT
001483: 12,3164           25210                                    INFINITY
001484: 12,3165           77615                           DAD                                            #                               PL AT 2
001485: 12,3166           60304                           TIX,2    NORM
001486: 12,3167           25154                                    1/WLOOP
001487: 12,3170           00047                                    X1
001488: 12,3171           77665                           BDDV
001489: 12,3172           52057                           SLR*     GOTO                                  #                                   PL AT 0
001490: 12,3173           21172                                    0          -7,1
001491: 12,3174           25034                                    POLYCOEF
001492:


001494: 12,3175           50145        TRUE360X           DLOAD    BMN
001495: 12,3176           02744                                    R1A
001496: 12,3177           25210                                    INFINITY
001497: 12,3200           60366                           SQRT     NORM
001498: 12,3201           00047                                    X1
001499: 12,3202           53665                           BDDV     SL*
001500: 12,3203           11515                                    2PISC
001501: 12,3204           20176                                    0          -3,1
001502: 12,3205           41425                           DSU      PUSH                                  #  0D=2PI/SQRT(R1A) -X          PL AT 0,2
001503: 12,3206           77650                           GOTO
001504: 12,3207           25071                                    XCOMMON
001505: 12,3210           40001        INFINITY           SETPD    BOV                                   #  NO SOLUTION EXISTS SINCE CLOSURE THROUGH
001506: 12,3211           00001                                    0                                     #  INFINITY IS REQUIRED
001507: 12,3212           25213                                    OVFLCLR
001508: 12,3213           43414        OVFLCLR            SET      RVQ
001509: 12,3214           04070                                    INFINFLG
001510:


001512: 12,3215           40220        LAMBERT            STQ      SETPD
001513: 12,3216           02712                                    RTNLAMB
001514: 12,3217           00001                                    0D
001515: 12,3220           76731                           SSP      VLOAD*
001516: 12,3221           00027                                    ITERCTR
001517: 12,3222           00024                                    20D
001518: 12,3223           11626                                    MUTABLE,1
001519: 12,3224           14017                           STODL    1/MU
001520: 12,3225           02673                                    TDESIRED
001521: 12,3226           77675                           DMPR
001522: 12,3227           11502                                    BEE19
001523: 12,3230           03777                           STORE    EPSILONL
001524: 12,3231           77214                           SET      VLOAD
001525: 12,3232           00474                                    SLOPESW
001526: 12,3233           02657                                    R1VEC
001527: 12,3234           45115                           PDVL     CALL                                  #  0D=R1VEC (+29 OR +27)        PL AT 6
001528: 12,3235           02665                                    R2VEC                                 #  MPAC=R2VEC (+29 OR +27)
001529: 12,3236           11570                                    GEOM
001530: 12,3237           16732                           STODL    SNTH                                  #  0D=CSTH (+1)                 PL AT 2
001531: 12,3240           02722                                    MAGVEC2
001532: 12,3241           65301                           NORM     PDDL                                  #                               PL AT 4
001533: 12,3242           00047                                    X1
001534: 12,3243           00041                                    R1
001535: 12,3244           56342                           SR1      DDV                                   #                               PL AT 2
001536: 12,3245           65257                           SL*      PDDL                                  #  DXCH WITH 0D, 0D=R1/R2 (+7)  PL AT 0,2
001537: 12,3246           20173                                    0          -6,1
001538: 12,3247           77626                           STADR
001539: 12,3250           75043                           STORE    CSTH                                  #  CSTH (+1)
001540: 12,3251           44342                           SR1      BDSU
001541: 12,3252           11477                                    D1/4
001542: 12,3253           02736                           STORE    1-CSTH                                #  1-CSTH (+2)
001543:
001544: 12,3254           53106                           ROUND    BZE
001545: 12,3255           25465                                    360LAMB
001546: 12,3256           65301                           NORM     PDDL                                  #                               PL AT 4
001547: 12,3257           00047                                    X1
001548: 12,3260           00001                                    0D
001549: 12,3261           56342                           SR1      DDV                                   #                               PL AT 2
001550: 12,3262           75457                           SL*      SQRT
001551: 12,3263           20176                                    0          -3,1
001552: 12,3264           54325                           PDDL     SR                                    #  2D=SQRT(2R1/R2(1-CSTH)) (+5) PL AT 4
001553: 12,3265           02732                                    SNTH
001554: 12,3266           20607                                    6
001555: 12,3267           43271                           DDV      DAD                                   #                               PL AT 2
001556: 12,3270           02736                                    1-CSTH
001557: 12,3271           77626                           STADR
001558: 12,3272           77760                           STORE    COGAMAX
001559: 12,3273           50000                           BOV      BMN                                   #  IF OVFL, COGAMAX=COGUPLIM
001560: 12,3274           25301                                    UPLIM                                 #  IF NEG, USE EVEN IF LT COGLOLIM, SINCE
001561: 12,3275           25304                                    MAXCOGA                               #    THIS WOULD BE RESET IN LAMBLOOP


001563: 12,3276           50025                           DSU      BMN                                   #  IF COGAMAX GT COGUPLIM, COGAMAX=COGUPLIM
001564: 12,3277           11521                                    COGUPLIM
001565: 12,3300           25304                                    MAXCOGA                               #  OTHERWISE OK, SO GO TO MAXCOGA
001566: 12,3301           77745        UPLIM              DLOAD
001567: 12,3302           11521                                    COGUPLIM                              #  COGUPLIM=.999511597 = MAX VALUE OF COGA
001568: 12,3303           00017                           STORE    COGAMAX                               #    NOT CAUSING OVFL IN R1A CALCULATION
001569: 12,3304           77745        MAXCOGA            DLOAD
001570: 12,3305           02734                                    CSTH
001571: 12,3306           45261                           SR       DSU                                   #                               PL AT 0
001572: 12,3307           20607                                    6
001573: 12,3310           77626                           STADR
001574: 12,3311           61037                           STODL    CSTH-RHO
001575: 12,3312           02675                                    GEOMSGN
001576: 12,3313           71240                           BMN      DLOAD
001577: 12,3314           25505                                    LOLIM
001578: 12,3315           02740                                    CSTH-RHO
001579: 12,3316           56352                           SL1      DDV
001580: 12,3317           02732                                    SNTH
001581: 12,3320           77600                           BOV
001582: 12,3321           25505                                    LOLIM
001583: 12,3322           00011        MINCOGA            STORE    COGAMIN                               #  COGAMIN (+5)
001584: 12,3323           66214                           BON      SSP
001585: 12,3324           00715                                    GUESSW
001586: 12,3325           25471                                    NOGUESS
001587: 12,3326           00051                                    TWEEKIT
001588: 12,3327           00001                                    00001
001589: 12,3330           77745                           DLOAD
001590: 12,3331           03775                                    COGA
001591:
001592:
001593: 12,3332           77605        LAMBLOOP           DMP
001594: 12,3333           02732                                    SNTH
001595: 12,3334           45342                           SR1      DSU
001596: 12,3335           02740                                    CSTH-RHO
001597: 12,3336           65301                           NORM     PDDL                                  #  0D=SNTH COGA-(CSTH-RHO) (+7+C(X1)) PL=2
001598: 12,3337           00047                                    X1
001599: 12,3340           02736                                    1-CSTH
001600: 12,3341           56257                           SL*      DDV                                   #  1-CSTH  (+2)                 PL AT 0
001601: 12,3342           20170                                    0          -9D,1
001602: 12,3343           53040                           BMN      BZE
001603: 12,3344           25421                                    NEGP
001604: 12,3345           25421                                    NEGP
001605: 12,3346           16742                           STODL    P                                     #  P=(1-CSTH)/(SNTH COGA-(CSTH-RHO)) (+4)
001606: 12,3347           03775                                    COGA
001607: 12,3350           43316                           DSQ      DAD
001608: 12,3351           11505                                    D1/1024
001609: 12,3352           41301                           NORM     DMP
001610: 12,3353           00047                                    X1
001611: 12,3354           02742                                    P
001612: 12,3355           44257                           SR*      BDSU


001614: 12,3356           20571                                    0          -8D,1
001615: 12,3357           11503                                    D1/32
001616: 12,3360           16744                           STODL    R1A                                   #  R1A=2-P(1+COGA COGA) (+6)
001617:
001618: 12,3361           02742                                    P
001619: 12,3362           45000                           BOV      CALL
001620: 12,3363           25424                                    HIENERGY
001621: 12,3364           24772                                    GETX
001622: 12,3365           77745                           DLOAD
001623: 12,3366           00037                                    T
001624: 12,3367           16764                           STODL    TPREV
001625: 12,3370           00031                                    XI
001626: 12,3371           45014                           BON      CALL
001627: 12,3372           04310                                    INFINFLG
001628: 12,3373           25421                                    NEGP                                  #  HAVE EXCEEDED THEORETICAL BOUNDS
001629: 12,3374           24426                                    DELTIME
001630: 12,3375           44200                           BOV      BDSU
001631: 12,3376           25441                                    BIGTIME
001632: 12,3377           02673                                    TDESIRED
001633: 12,3400           02762                           STORE    TERRLAMB
001634: 12,3401           44246                           ABS      BDSU
001635: 12,3402           03777                                    EPSILONL
001636: 12,3403           47044                           BPL      RTB
001637: 12,3404           25510                                    INITV
001638: 12,3405           24651                                    CHECKCTR
001639: 12,3406           45030                           BHIZ     CALL
001640: 12,3407           25452                                    SUFFCHEK
001641: 12,3410           24543                                    ITERATOR
001642: 12,3411           53145                           DLOAD    BZE
001643: 12,3412           00155                                    MPAC
001644: 12,3413           25452                                    SUFFCHEK
001645: 12,3414           77615                           DAD
001646: 12,3415           03775                                    COGA
001647: 12,3416           03775                           STORE    COGA
001648: 12,3417           77650                           GOTO
001649: 12,3420           25332                                    LAMBLOOP
001650:
001651:
001652: 12,3421           51145        NEGP               DLOAD    BPL                                   #  IMPOSSIBLE TRAJECTORY DUE TO INACCURATE
001653: 12,3422           00015                                    DCOGA                                 #  BOUND CALCULATION. TRY NEW COGA.
001654: 12,3423           25444                                    LOENERGY
001655:
001656:
001657: 12,3424           71201        HIENERGY           SETPD    DLOAD                                 #  HIGH ENERGY TRAJECTORY RESULTED
001658: 12,3425           00001                                    0
001659: 12,3426           03775                                    COGA                                  #  IN OVFL OF P OR R1A, OR XI EXCEEDING 50.
001660: 12,3427           00011                           STORE    COGAMIN                               #  THIS IS THE NEW BOUND.
001661: 12,3430           70545        COMMONLM           DLOAD    SR1
001662: 12,3431           00015                                    DCOGA
001663: 12,3432           00015                           STORE    DCOGA                                 #  USE DCOGA/2 AS DECREMENT


001665: 12,3433           44254                           BZE      BDSU
001666: 12,3434           25452                                    SUFFCHEK
001667: 12,3435           03775                                    COGA
001668: 12,3436           03775                           STORE    COGA
001669: 12,3437           77650                           GOTO                                           #  RESTART THIS LOOP
001670: 12,3440           25332                                    LAMBLOOP
001671:
001672:
001673: 12,3441           77745        BIGTIME            DLOAD
001674: 12,3442           02764                                    TPREV
001675: 12,3443           00037                           STORE    T
001676:
001677:
001678: 12,3444           71201        LOENERGY           SETPD    DLOAD                                 #  LOW ENERGY TRAJECTORY RESULTED
001679: 12,3445           00001                                    0
001680: 12,3446           03775                                    COGA                                  #  IN OVERFLOW OF TIME.
001681: 12,3447           00017                           STORE    COGAMAX                               #  THIS IS THE NEW BOUND.
001682: 12,3450           77650                           GOTO
001683: 12,3451           25430                                    COMMONLM
001684:
001685:
001686: 12,3452           51545        SUFFCHEK           DLOAD    ABS
001687: 12,3453           02762                                    TERRLAMB
001688: 12,3454           41325                           PDDL     DMP                                   #                               PL AT 2D
001689: 12,3455           02673                                    TDESIRED
001690: 12,3456           11477                                    D1/4
001691: 12,3457           45215                           DAD      DSU                                   #                               PL AT 0D
001692: 12,3460           11517                                    ONEBIT
001693: 12,3461           43044                           BPL      SETGO
001694: 12,3462           25510                                    INITV
001695: 12,3463           02434                                    SOLNSW
001696: 12,3464           02712                                    RTNLAMB
001697:
001698:
001699: 12,3465           43001        360LAMB            SETPD    SETGO                                 #  LAMBERT CANNOT HANDLE CSTH=1
001700: 12,3466           00001                                    0
001701: 12,3467           02434                                    SOLNSW
001702: 12,3470           02712                                    RTNLAMB
001703:
001704:
001705: 12,3471           71331        NOGUESS            SSP      DLOAD
001706: 12,3472           00051                                    TWEEKIT
001707: 12,3473           10000                                    20000
001708: 12,3474           00011                                    COGAMIN
001709: 12,3475           65342                           SR1      PDDL                                  #                               PL AT 2
001710: 12,3476           00017                                    COGAMAX
001711: 12,3477           43342                           SR1      DAD
001712: 12,3500           77626                           STADR                                          #                               PL AT 0
001713: 12,3501           74002                           STORE    COGA
001714: 12,3502           00015                           STORE    DCOGA


001716: 12,3503           77650                           GOTO
001717: 12,3504           25332                                    LAMBLOOP
001718:
001719:
001720: 12,3505           52145        LOLIM              DLOAD    GOTO
001721: 12,3506           11523                                    COGLOLIM                              #  COGLOLIM=-.999511597
001722: 12,3507           25322                                    MINCOGA
001723:
001724:
001725: 12,3510           60345        INITV              DLOAD    NORM
001726: 12,3511           00041                                    R1
001727: 12,3512           00047                                    X1
001728: 12,3513           70525                           PDDL     SR1                                   #                               PL AT 2
001729: 12,3514           02742                                    P
001730: 12,3515           77671                           DDV                                            #                               PL AT 0
001731: 12,3516           75457                           SL*      SQRT
001732: 12,3517           20175                                    0          -4,1
001733: 12,3520           72405                           DMP      SL1
001734: 12,3521           00021                                    ROOTMU
001735: 12,3522           41206                           PUSH     DMP                                   #  0D=VTAN (+7)                 PL AT 2
001736: 12,3523           03775                                    COGA
001737: 12,3524           74261                           SL       VXSC
001738: 12,3525           20206                                    5
001739: 12,3526           02724                                    UR1
001740: 12,3527           77725                           PDDL                                           #  XCH WITH 0D                  PL AT 0,6
001741: 12,3530           76561                           VXSC     VSL1
001742: 12,3531           02676                                    UN
001743: 12,3532           53235                           VXV      VAD                                   #                               PL AT 0
001744: 12,3533           02724                                    UR1
001745: 12,3534           43172                           VSL1     CLEAR
001746: 12,3535           02674                                    SOLNSW
001747: 12,3536           02746                           STORE    VVEC
001748: 12,3537           53135                           SLOAD    BZE
001749: 12,3540           02704                                    VTARGTAG
001750: 12,3541           25544                                    TARGETV
001751: 12,3542           77650                           GOTO
001752: 12,3543           02712                                    RTNLAMB
001753:
001754:
001755: 12,3544           45145        TARGETV            DLOAD    CALL
001756: 12,3545           02722                                    MAGVEC2
001757: 12,3546           24706                                    LAMENTER
001758: 12,3547           02705                           STORE    VTARGET
001759: 12,3550           77650                           GOTO
001760: 12,3551           02712                                    RTNLAMB
001761:


001763: 12,3552           40220        TIMERAD            STQ      SETPD                                 #                                  PL AT 0
001764: 12,3553           02712                                    RTNTR
001765: 12,3554           00001                                    0
001766: 12,3555           63375                           VLOAD    PDVL                                  #                                  PL AT 6
001767: 12,3556           02657                                    RVEC
001768: 12,3557           02746                                    VVEC
001769: 12,3560           77624                           CALL
001770: 12,3561           11524                                    PARAM
001771: 12,3562           71200                           BOV      DLOAD                                 #                                  PL AT 0
001772: 12,3563           24767                                    COGAOVFL
001773: 12,3564           11503                                    D1/32
001774: 12,3565           41225                           DSU      DMP
001775: 12,3566           02744                                    R1A
001776: 12,3567           02742                                    P
001777: 12,3570           41366                           SQRT     DMP
001778: 12,3571           03775                                    COGA
001779: 12,3572           74212                           SL4      VXSC
001780: 12,3573           02714                                    U2
001781: 12,3574           45325                           PDDL     DSU                                   #                                  PL AT 6
001782: 12,3575           11475                                    D1/64
001783: 12,3576           02744                                    R1A
001784: 12,3577           52361                           VXSC     VSU                                   #                                  PL AT 0
001785: 12,3600           02724                                    UR1
001786: 12,3601           53512                           VSL4     UNIT
001787: 12,3602           77600                           BOV
001788: 12,3603           25465                                    360LAMB                               #  NO SOLUTION SINCE CONIC IS A CIRCLE
001789: 12,3604           60325                           PDDL     NORM                                  #  0D=UNIT(ECC) (+3)               PL AT 6
001790: 12,3605           02760                                    RDESIRED                              #  36D=ECC (+3)
001791: 12,3606           00047                                    X1
001792: 12,3607           41325                           PDDL     DMP                                   #                               PL AT 8
001793: 12,3610           00041                                    R1
001794: 12,3611           02742                                    P
001795: 12,3612           56257                           SL*      DDV                                   #                               PL AT 6
001796: 12,3613           20201                                    0,1
001797: 12,3614           56225                           DSU      DDV
001798: 12,3615           11501                                    D1/16
001799: 12,3616           00045                                    36D                                   #  36D=ECC (+3)
001800: 12,3617           00031                           STORE    COSF
001801: 12,3620           63400                           BOV      DSQ
001802: 12,3621           25661                                    BADR2
001803: 12,3622           50021                           BDSU     BMN
001804: 12,3623           11477                                    D1/4
001805: 12,3624           25661                                    BADR2
001806: 12,3625           75366                           SQRT     SIGN
001807: 12,3626           02757                                    SGNRDOT
001808: 12,3627           77614                           CLEAR
001809: 12,3630           04272                                    APSESW
001810:
001811: 12,3631           76561        TERMNVEC           VXSC     VSL1
001812: 12,3632           02676                                    UN


001814: 12,3633           63235                           VXV      PDVL                                  #  VXCH WITH 0D                 PL AT 0,6
001815: 12,3634           00001                                    0D
001816: 12,3635           53361                           VXSC     VAD                                   #                               PL AT 0
001817: 12,3636           00031                                    COSF
001818: 12,3637           41572                           VSL1     PUSH                                  #  0D=U2                        PL AT 6
001819:
001820: 12,3640           56241                           DOT      DDV                                   #  LIMITS RESULT TO POSMAX OR NEGMAX
001821: 12,3641           02724                                    UR1
001822: 12,3642           23701                                    DP1/4
001823: 12,3643           40142                           SR1      BOV                                   #  SCALE BACK DOWN TO NORMAL
001824: 12,3644           25645                                    +1                                    #  CLEAR OVFIND IF SET
001825: 12,3645           26734                           STOVL    CSTH                                  #  CSTH (+1)
001826: 12,3646           02724                                    UR1
001827: 12,3647           76435                           VXV      VSL1
001828: 12,3650           72441                           DOT      SL1
001829: 12,3651           02676                                    UN
001830: 12,3652           16732                           STODL    SNTH                                  #  SNTH (+1)
001831: 12,3653           02742                                    P
001832: 12,3654           77624                           CALL
001833: 12,3655           24772                                    GETX
001834: 12,3656           77614                           CLRGO
001835: 12,3657           02634                                    SOLNSW
001836: 12,3660           24752                                    COMMNOUT
001837:
001838:
001839: 12,3661           75345        BADR2              DLOAD    SIGN
001840: 12,3662           11451                                    LODPHALF
001841: 12,3663           00031                                    COSF
001842: 12,3664           14031                           STODL    COSF
001843: 12,3665           11453                                    KEPZERO
001844: 12,3666           77614                           SETGO
001845: 12,3667           04032                                    APSESW
001846: 12,3670           25631                                    TERMNVEC
001847: 12,3671           40220        APSIDES            STQ      SETPD                                 #                                 PL AT  0
001848: 12,3672           02712                                    RTNAPSE
001849: 12,3673           00001                                    0D
001850: 12,3674           63375                           VLOAD    PDVL                                  #                                 PL AT  6
001851: 12,3675           02657                                    RVEC
001852: 12,3676           02746                                    VVEC
001853: 12,3677           77624                           CALL
001854: 12,3700           11524                                    PARAM
001855: 12,3701           77600                           BOV                                            #                                 PL AT  0
001856: 12,3702           25703                                    GETECC
001857: 12,3703           42405        GETECC             DMP      SL4
001858: 12,3704           02744                                    R1A
001859: 12,3705           75421                           BDSU     SQRT
001860: 12,3706           11475                                    D1/64
001861: 12,3707           02754                           STORE    ECC
001862: 12,3710           65215                           DAD      PDDL                                  #                                 PL AT  2
001863: 12,3711           11471                                    D1/8


001865: 12,3712           00041                                    R1
001866: 12,3713           72405                           DMP      SL1
001867: 12,3714           02742                                    P
001868: 12,3715           77671                           DDV                                            #                                 PL AT  0
001869: 12,3716           60325                           PDDL     NORM                                  #  0D=RP (+29 OR +27)             PL AT  2
001870: 12,3717           02744                                    R1A
001871: 12,3720           00047                                    X1
001872: 12,3721           53725                           PDDL     SL*                                   #                                 PL AT  4
001873: 12,3722           00041                                    R1
001874: 12,3723           20174                                    0          -5,1
001875: 12,3724           45271                           DDV      DSU                                   #                                 PL AT 2,0
001876: 12,3725           50000                           BOV      BMN
001877: 12,3726           25732                                    INFINAPO
001878: 12,3727           25732                                    INFINAPO
001879: 12,3730           77650                           GOTO
001880: 12,3731           02712                                    RTNAPSE
001881: 12,3732           52145        INFINAPO           DLOAD    GOTO                                  #  RETURNS WITH APOAPSIS IN MPAC, PERIAPSIS
001882: 12,3733           11464                                    LDPOSMAX
001883: 12,3734           02712                                    RTNAPSE                               #  THAT PL IS AT 0.
001884:


001886: 04,2000                                           SETLOC   CONICS1
001887: 04,2000                                           BANK
001888:
001889: 04,3625                                           COUNT    04/CONIC
001890:
001891: 04,3625           22437 16067  MUTABLE            2DEC*    3.986032   E10        B-36*           #  MUE
001892: 04,3627           15625 21042                     2DEC*    .25087606  E-10       B+34*           #  1/MUE
001893: 04,3631           30276 04773                     2DEC*    1.99650495 E5         B-18*           #  SQRT(MUE)
001894: 04,3633           25004 06702                     2DEC*    .50087529  E-5        B+17*           #  1/SQRT(MUE)
001895:
001896: 04,3635           16471 01352                     2DEC     4.902778   E8         B-30            #  MUM
001897: 04,3637           21412 20500                     2DEC     .203966    E-8        B+28            #  1/MUM
001898: 04,3641           25477 03367                     2DEC*    2.21422176 E4         B-15*           #  SQRT(MUM)
001899: 04,3643           27533 07571                     2DEC*    .45162595  E-4        B+14*           #  1/SQRT(MUM)
001900:
001901:
001902: 04,3645  04,3463               LDPOSMAX           EQUALS   LODPMAX                               #  DPPOSMAX IN LOW MEMORY.
001903:
001904:                                                                                                  #  ERASABLE ASSIGNMENTS
001905:
001906:
001907:                                                                                                  #  KEPLER SUBROUTINE
001908:
001909:                                                                                                  #     INPUT -
001910:                                                                                                  #  RRECT    ERASE  +5
001911:                                                                                                  #  VRECT    ERASE  +5
001912:                                                                                                  #  TAU.     ERASE  +1
001913:                                                                                                  #  XKEP     ERASE  +1
001914:                                                                                                  #  TC       ERASE  +1
001915:                                                                                                  #  XPREV    ERASE  +1
001916: 04,3645                        1/MU               EQUALS   14D
001917: 04,3645                        ROOTMU             EQUALS   16D
001918: 04,3645                        1/ROOTMU           EQUALS   18D
001919:                                                                                                  #     OUTPUT -
001920:                                                                                                  #  RCV      ERASE  +5
001921:                                                                                                  #  VCV      ERASE  +5
001922:                                                                                                  #  RC       ERASE  +1
001923:                                                                                                  #  XPREV    ERASE  +1
001924:
001925:                                                                                                  #     DEBRIS -
001926: 04,3645                        ALPHA              EQUALS   8D
001927: 04,3645                        XMAX               EQUALS   10D


001929: 04,3645                        XMIN               EQUALS   12D
001930: 04,3645                        X                  EQUALS   20D
001931: 04,3645                        XI                 EQUALS   24D
001932: 04,3645                        S(XI)              EQUALS   26D
001933: 04,3645                        XSQC(XI)           EQUALS   28D
001934: 04,3645                        T                  EQUALS   30D
001935: 04,3645                        R1                 EQUALS   32D
001936: 04,3645                        KEPC1              EQUALS   34D
001937: 04,3645                        KEPC2              EQUALS   36D
001938:                                                                                                  #  DELX     ERASE  +1
001939:                                                                                                  #  DELT     ERASE  +1
001940:                                                                                                  #  URRECT   ERASE  +5
001941:                                                                                                  #  RCNORM   ERASE  +1
001942:                                                                                                  #  XPREV    EQUALS XKEP
001943:
001944:
001945:                                                                                                  #  LAMBERT SUBROUTINE
001946:
001947:                                                                                                  #     INPUT-
001948:                                                                                                  #  R1VEC    ERASE  +5
001949:                                                                                                  #  R2VEC    ERASE  +5
001950:                                                                                                  #  TDESIRED ERASE  +1
001951:                                                                                                  #  GEOMSGN  ERASE  +0
001952:                                                                                                  #  GUESSW                          0 IF COGA GUESS AVAILABLE, 1 IF NOT
001953:                                                                                                  #  COGA     ERASE  +1              INPUT ONLY IF GUESSW IS ZERO.
001954:                                                                                                  #  NORMSW                          0 IF UN TO BE COMPUTED, 1 IF UN INPUT
001955:                                                                                                  #  UN       ERASE  +5              ONLY USED IF NORMSW IS 1
001956:                                                                                                  #  VTARGTAG ERASE  +0
001957:                                                                                                  #  TWEEKIT  EQUALS 40D             ONLY USED IF GUESSW IS 0
001958:
001959:                                                                                                  #     OUTPUT -
001960:                                                                                                  #  VTARGET  ERASE  +5              AVAILABLE ONLY IF VTARGTAG IS ZERO.
001961:                                                                                                  #  V1VEC    EQUALS MPAC
001962:
001963:                                                                                                  #     DEBRIS -
001964:                                                                                                  #  RTNLAMB  ERASE  +0
001965:                                                                                                  #  U2       ERASE  +5
001966:                                                                                                  #  MAGVEC2  ERASE  +1
001967:                                                                                                  #  UR1      ERASE  +5
001968:                                                                                                  #  R1       EQUALS 31D
001969:                                                                                                  #  UN       ERASE  +5
001970:                                                                                                  #  SNTH     ERASE  +1
001971:                                                                                                  #  CSTH     ERASE  +1
001972:                                                                                                  #  1-CSTH   ERASE  +1
001973:                                                                                                  #  CSTH-RHO ERASE  +1
001974: 04,3645                        COGAMAX            EQUALS   14D                                   #  CLOBBERS 1/MU
001975: 04,3645                        COGAMIN            EQUALS   8D
001976: 04,3645                        DCOGA              EQUALS   12D
001977:                                                                                                  #  TWEEKIT  EQUALS 40D
001978:                                                                                                  #  P        ERASE  +1


001980:                                                                                                  #  COGA     ERASE  +1
001981:                                                                                                  #  R1A      ERASE  +1
001982:                                                                                                  #  X        EQUALS 20D
001983:                                                                                                  #  XSQ      EQUALS 22D
001984:                                                                                                  #  XI       EQUALS 24D
001985:                                                                                                  #  S(XI)    EQUALS 26D
001986:                                                                                                  #  XSQC(XI) EQUALS 28D
001987:                                                                                                  #  T        EQUALS 30D
001988:                                                                                                  #  KEPC1    EQUALS 34D
001989:                                                                                                  #  KEPC2    EQUALS 36D
001990:                                                                                                  #  SLOPESW
001991:                                                                                                  #  SOLNSW
001992:                                                                                                  #  OTHERS -
001993:
001994:                                                                                                  #  RVEC     EQUALS R1VEC
001995:                                                                                                  #  VVEC     ERASE  +5
001996:                                                                                                  #  COGAFLAG
001997:                                                                                                  #  RVSW
001998:                                                                                                  #  INFINFLG
001999:                                                                                                  #  APSESW
002000:                                                                                                  #  360SW
002001:                                                                                                  #  RTNTT    EQUALS RTNLAMB
002002:                                                                                                  #  ECC      ERASE  +1
002003:                                                                                                  #  RTNTR    EQUALS RTNLAMB
002004:                                                                                                  #  RTNAPSE  EQUALS RTNLAMB
002005:                                                                                                  #  R2       EQUALS MAGVEC2
002006: 04,3645                        COSF               EQUALS   24D
002007:                                                                                                  #  RTNPRM   ERASE  +0
002008:                                                                                                  #  SGNRDOT  ERASE  +0
002009:                                                                                                  #  RDESIRED ERASE  +1
002010:
002011:
002012:                                                                                                  #  ITERATOR SUBROUTINE
002013:
002014:                                                                                                  #  ORDERSW
002015: 04,3645                        MAX                EQUALS   14D                                   #  CLOBBERS 1/MU
002016: 04,3645                        MIN                EQUALS   8D
002017:                                                                                                  #  INDEP    ERASE  +1
002018: 04,3645                        DELINDEP           EQUALS   12D
002019: 04,3645                        ITERCTR            EQUALS   22D
002020: 04,3645                        DEP                EQUALS   30D
002021:                                                                                                  #  DELDEP   ERASE  +1
002022:                                                                                                  #  DEPREV   ERASE  +1
002023: 04,3645                        TWEEKIT            EQUALS   40D
002024:
002025:
002026:                                                                                                  #  MORE KEPLER
002027:
002028:                                                                                                  #  EPSILONT ERASE  +1
002029:


002031:                                                                                                  #  MORE LAMBERT
002032:
002033:                                                                                                  #  TERRLAMB EQUALS DELDEP
002034:                                                                                                  #  TPREV    EQUALS DEPREV
002035:
002036:
002037:                                                                                                  #  EPSILONL EQUALS EPSILONT +2     DOUBLE PRECISION WORD

End of include-file CONIC_SUBROUTINES.agc.  Parent file is MAIN.agc


