
Source Code


000002:                                                                                                  ## Copyright:   Public domain.
000003:                                                                                                  ## Filename:    CONIC_SUBROUTINES.agc
000004:                                                                                                  ## Purpose:     Part of the source code for Colossus build 237.
000005:                                                                                                  ##              This is for the Command Module's (CM) Apollo Guidance
000006:                                                                                                  ##              Computer (AGC), for Apollo 8.
000007:                                                                                                  ## Assembler:   yaYUL
000008:                                                                                                  ## Contact:     Jim Lawton <jim DOT lawton AT gmail DOT com>
000009:                                                                                                  ## Website:     www.ibiblio.org/apollo/index.html
000010:                                                                                                  ## Page Scans:  www.ibiblio.org/apollo/ScansForConversion/Colossus237/
000011:                                                                                                  ## Mod history: 2011-04-13 JL   Adapted from corresponding Colossus 249 file.
000012:                                                                                                  ##              2011-04-17 JL   Removed temporary line.
000013:                                                                                                  ##              2017-01-01 RSB  Proofed comment text using octopus/ProoferComments,
000014:                                                                                                  ##                              and fixed errors found.
000015:                                                                                                  ##              2017-01-07 RSB  Fixed comment errors detected in cross-diff vs
000016:                                                                                                  ##                              Colossus 249.
000017:                                                                                                  ##              2017-01-21 RSB  Back-ported comment error fixes detected in diff'ing
000018:                                                                                                  ##                              Artemis 72 vs Comanche 55.
000019:                                                                                                  ##              2017-01-28 RSB  WTIH -> WITH.
000020:                                                                                                  ##              2017-03-14 RSB  Comment-text fixes noted in proofing Luminary 116.
000021:                                                                                                  ##              2017-03-15 RSB  Comment-text fixes identified in 5-way
000022:                                                                                                  ##                              side-by-side diff of Luminary 69/99/116/131/210.
000023:


000025:                                                                                                  #  PROGRAM DESCRIPTION - ENTIRE CONIC SUBROUTINE LOG SECTION                       DATE - 1 SEPTEMBER 1967
000026:                                                                                                  #  MOD NO. - 0                                                                     LOG SECTION - CONIC SUBROUTINES
000027:                                                                                                  #  MOD BY KRAUSE                                                                   ASSEMBLY - COLOSSUS REVISION 88
000028:
000029:
000030:
000031:                                                                                                  #  FUNCTIONAL DESCRIPTION -
000032:
000033:                                                                                                  #       THE FOLLOWING SET OF SUBROUTINES SOLVE VARIOUS PROBLEMS INVOLVING THE TRAJECTORY PRODUCED BY A CENTRAL
000034:                                                                                                  #  INVERSE-SQUARE FORCE ACTING ON A POINT MASS, AS OUTLINED IN THE CMC AND LGC LUNAR LANDING MISSION GSOP, SECTION
000035:                                                                                                  #  5.5.1.2.  A GENERAL USAGE POINT-OF-VIEW WAS TAKEN IN FORMULATING, MECHANIZING, AND SCALING THE SUBROUTINES,
000036:                                                                                                  #  RATHER THAN OPTIMIZING EACH FOR A PARTICULAR USE.  THEREFORE, MULTIPLE USAGE CAN BE MADE OF THE SUBROUTINES
000037:                                                                                                  #  INVOLVING ANY REALISTIC SET OF CONSTRAINTS.  IT SHOULD BE NOTED THAT ONLY ONE SET OF CODING IS USED, WHETHER THE
000038:                                                                                                  #  EARTH, MOON, OR ANY OTHER CELESTIAL BODY IS SPECIFIED AS THE CENTRAL BODY OF THE PROBLEM, PROVIDED ONE OBSERVES
000039:                                                                                                  #  THE INHERENT SCALE CHANGE REQUIRED IN POSITION, VELOCITY, MU, AND TIME, AS OUTLINED IN MISSION PROGRAMMING
000040:                                                                                                  #  DEFINITION MEMO NO. 10.  THIS CAN BE ACCOMPLISHED BY SIMPLY ADDING TO THE MUTABLE AND INITIALIZING THE SUBROU-
000041:                                                                                                  #  TINES APPROPRIATELY.
000042:                                                                                                  #       DUE TO THE UNIFORMITY OF THE EQUATIONS INVOLVED, CODING WAS MINIMIZED BY TREATING INDIVIDUAL EQUATIONS AND
000043:                                                                                                  #  BLOCKS OF EQUATIONS AS SUBROUTINES OF LOWER RANK WHENEVER POSSIBLE.  AS A RESULT, THREE BY-PRODUCTS SUBROUTINES,
000044:                                                                                                  #  DIRECTLY USABLE AS INDEPENDENT SUBROUTINES, WERE GENERATED.
000045:
000046:
000047:                                                                                                  #  RESTRICTIONS -
000048:
000049:                                                                                                  #       THE ONLY LIMITATION IN THE SCOPE OF PROBLEM WHICH CAN BE SOLVED BY A PARTICULAR SUBROUTINE IS THE SCALING
000050:                                                                                                  #  LIMIT OF EACH PARAMETER AS SPECIFIED IN THE GSOP.  THESE SCALING LIMITS WERE CHOSEN SO THAT ALL FEASIBLE TRAJEC-
000051:                                                                                                  #  TORIES COULD BE HANDLED.
000052:                                                                                                  #       SINCE THE SUBROUTINES (EXCEPT KEPLER) USE COMMON SUBROUTINES OF LOWER RANK WHICH USE ERASABLE OTHER THAN
000053:                                                                                                  #  THE PUSHLIST (DUE TO ITS LIMITED SIZE) AND COMMON INTERPRETIVE SWITCHES, THE CONIC SUBROUTINES CANNOT BE ALLOWED
000054:                                                                                                  #  TO INTERRUPT EACH OTHER.  IT IS UP TO THE USER TO GUARANTEE THIS CONDITION.
000055:


000057:                                                                                                  #  PROGRAM DESCRIPTION - KEPLER SUBROUTINE                                 DATE - 11 OCTOBER 1967
000058:                                                                                                  #  MOD NO. -1                                                                       LOG SECTION - CONIC SUBROUTINES
000059:                                                                                                  #  MOD BY KRAUSE                                                           ASSEMBLY - COLOSSUS 103 AND SUNDANCE 222
000060:
000061:
000062:
000063:                                                                                                  #  FUNCTIONAL DESCRIPTION -
000064:                                                                                                  #       THIS SUBROUTINE, GIVEN AN INITIAL STATE VECTOR AND THE DESIRED TRANSFER TIME THROUGH WHICH THE STATE IS TO
000065:                                                                                                  #  BE UPDATED ALONG A CONIC TRAJECTORY, COMPUTES THE NEW, UPDATED STATE VECTOR.  THE TRAJECTORY MAY BE ANY CONIC
000066:                                                                                                  #  SECTION - CIRCULAR, ELLIPTIC, PARABOLIC, HYPERBOLIC, OR RECTILINEAR WITH RESPECT TO THE EARTH OR THE MOON.  THE
000067:                                                                                                  #  USE OF THE SUBROUTINE CAN BE EXTENDED USING OTHER PRIMARY BODIES BY SIMPLE ADDITIONS TO THE MUTABLE WITHOUT
000068:                                                                                                  #  INTRODUCING ANY CODING CHANGES, ACCEPTING THE INHERENT SCALE FACTOR CHANGES IN POSITION AND VELOCITY.  AN ITERA-
000069:                                                                                                  #  TION TECHNIQUE IS UTILIZED IN THE COMPUTATION.
000070:                                                                                                  #       IF A NEGATIVE TIME-OF-FLIGHT IS INPUT, THE PROGRAM WILL SOLVE FOR THE STATE WHICH WOULD BE PRODUCED BY
000071:                                                                                                  #  EXTRAPOLATING THE POSITION BACKWARD IN TIME.
000072:                                                                                                  #       IF THE DESIRED TRANSFER TIME IS POSITIVE AND EXCEEDS THE ORBITAL PERIOD, THE SUBROUTINE, THROUGH A MODULAR
000073:                                                                                                  #  TECHNIQUE, WILL COMPUTE THE STATE CORRESPONDING TO THE DESIRED TIME AS USUAL.
000074:
000075:
000076:
000077:                                                                                                  #  THE RESTRICTIONS ARE -
000078:                                                                                                  #       1. A NEGATIVE DESIRED TIME MUST BE LESS THAN ONE PERIOD IN MAGNITUDE.  IF GREATER, THE ONE-PERIOD- SOLUTION
000079:                                                                                                  #  WILL BE RETURNED.
000080:                                                                                                  #       2.  THE PARAMETERS IN THE PROBLEM CANNOT EXCEED THEIR SCALING LIMITS AS SPECIFIED IN THE GSOP.  IF
000081:                                                                                                  #  ANY OF THESE LIMITS ARE EXCEEDED, THE RESULTING SOLUTION WILL BE MEANINGLESS.
000082:
000083:
000084:                                                                                                  #       THE NUMBER OF ITERATIONS AND, THEREFORE, THE COMPUTATION SPEED IS DEPENDENT ON THE ACCURACY OF THE
000085:                                                                                                  #  GUESS, XKFPNEW.  THE AGC COMPUTATION TIME IS APPROXIMATELY .061 SECONDS FOR INITIALIZATION, .065 SECONDS FOR THE
000086:                                                                                                  #  FINAL COMPUTATIONS, PLUS .083 SECONDS FOR EACH ITERATION.
000087:
000088:
000089:
000090:                                                                                                  #  REFERENCES -
000091:                                                                                                  #       R-479, MISSION PROGRAMMING DEFINITION MEMO NO. 10, LUNAR LANDING MISSION GSOP, SECTION 5.5, SGA
000092:                                                                                                  #  MEMO 67-4.
000093:
000094:
000095:
000096:                                                                                                  #  INPUT - ERASABLE INITIALIZATION REQUIRED
000097:
000098:                                                                                                  #          * SCALE FACTOR *
000099:                                                                                                  #  VARIABLE*IN POWERS OF 2*                         DESCRIPTION AND REMARKS
000100:                                                                                                  #  --------*--------------*                         -----------------------
000101:                                                                                                  #  RRECT   * +29 FOR EARTH*DP INITIAL POSITION VECTOR IN METERS
000102:                                                                                                  #          * +27 FOR MOON *
000103:                                                                                                  #  VRECT   * +7 FOR EARTH *DP INITIAL VELOCITY VECTOR IN METERS/CENTISECOND
000104:                                                                                                  #          * +5 FOR MOON  *
000105:                                                                                                  #  X1 (38D)* NONE         *INDEX REGISTER SET TO -2D OR -10D ACCORDING TO WHETHER THE EARTH OR MOON,
000106:                                                                                                  #          *              *RESPECTIVELY, IS THE CENTRAL BODY
000107:                                                                                                  #  TAU.    * +28          *DESIRED TRANSFER TIME IN CENTISECONDS (DP)


000109:                                                                                                  #  XKEPNEW * +17 FOR EARTH*GUESS OF X IN METERS-TO-THE-ONE-HALF FROM KEPPREP
000110:                                                                                                  #          * +16 FOR MOON *(DP)
000111:                                                                                                  #  TC      * +28          *DP PREV. VALUE OF TIME IN CENTISECS FROM KEPPREP
000112:                                                                                                  #  XPREV   * +17 FOR EARTH*PREVIOUS VALUE OF X IN METERS-TO-THE-ONE-HALF POWER FROM KEPPREP (DP)
000113:                                                                                                  #          * +16 FOR MOON *(DP)
000114:
000115:
000116:
000117:                                                                                                  #  SUBROUTINES CALLED -
000118:                                                                                                  #       DELTIME
000119:
000120:
000121:
000122:                                                                                                  #  CALLING SEQUENCE AND NORMAL EXIT MODES -
000123:
000124:                                                                                                  #  KEPRTN-2 GOTO                   MUST BE IN INTERPRETIVE MODE AND OVFIND MUST BE CLEAR
000125:                                                                                                  #  KEPRTN-1        KEPLER          RETURNS WITH XPREV IN MPAC. PL IS AT 0.
000126:                                                                                                  #  KEPRTN   ...                    CONTINUE
000127:
000128:                                                                                                  #  KEPLER MUST NOT BE CALLED DIRECTLY SINCE AN INTERRUPTION OF IT WOULD DESTROY THE ERASABLES IT NEEDS TO COMPLETE
000129:                                                                                                  #  THE INTERRUPTED JOB.  THEREFORE THE USER MUST CALL CSMCONIC OR LEMCONIC WHICH GUARANTEES NO INTERRUPTS AND WHICH
000130:                                                                                                  #  ALSO CALLS KEPPREP TO COMPUTE A GUESS OF XKEPNEW.
000131:
000132:
000133:
000134:                                                                                                  #  ABORT EXIT MODES -
000135:                                                                                                  #       NONE
000136:
000137:
000138:
000139:                                                                                                  #  OUTPUT -
000140:
000141:                                                                                                  #          * SCALE FACTOR *
000142:                                                                                                  #  VARIABLE*IN POWERS OF 2*                         DESCRIPTION AND REMARKS
000143:                                                                                                  #  --------*--------------*                         -----------------------
000144:                                                                                                  #  RCV     * +29 FOR EARTH*DP TERMINAL POSITION VECTOR IN METERS
000145:                                                                                                  #          * +27 FOR MOON *
000146:                                                                                                  #  VCV     * +7 FOR EARTH *DP TERMINAL VELOCITY VECTOR IN METERS/CENTISEC
000147:                                                                                                  #          * +5 FOR MOON  *
000148:                                                                                                  #  TC      * +28          *DP TRANSFER TIME IN CENTISECS TO WHICH KEPLER CONVERGED.
000149:                                                                                                  #  XPREV   * +17 FOR EARTH*DP X IN METERS-TO-THE-ONE-HALF-POWER TO WHCIH KEPLER CONVERGED.
000150:                                                                                                  #          * +16 FOR MOON *(DP)
000151:                                                                                                  #  FOR OTHER OUTPUT WHICH MAY BE OF USE, SEE DEBRIS.
000152:
000153:
000154:                                                                                                  #  DEBRIS -
000155:
000156:                                                                                                  #       PARAMETERS WHICH MAY BE OF USE -
000157:


000159:                                                                                                  #          * SCALE FACTOR *
000160:                                                                                                  #  VARIABLE*IN POWERS OF 2*                         DESCRIPTION AND REMARKS
000161:                                                                                                  #  --------*--------------*                         -----------------------
000162:                                                                                                  #  URRECT  * +1           *DP UNIT VECTOR OF INITIAL POSITION
000163:                                                                                                  #  R1      * +29 FOR EARTH*DP MAGNITUDE OF INITIAL POSITION IN METERS
000164:                                                                                                  #          * +27 FOR MOON *
000165:                                                                                                  #  ALPHA   * -22 FOR EARTH*DP INVERSE OF SEMIMAJOR AXIS IN 1/METERS
000166:                                                                                                  #          * -20 FOR MOON *
000167:                                                                                                  #  TMODULO * +28          *DP INTEGRAL NUMBER OF PERIODS IN  CENTISECS. WHICH WAS SUBTRACTED FROM TAU. TO PRODUCE A
000168:                                                                                                  #          *              *TAU. OF LESS THAN ONE PERIOD.
000169:
000170:                                                                                                  #       PARAMETERS OF NO USE -
000171:                                                                                                  #  DP PARAMETERS - EPSILONT, DELX, DELT, RCNORM, XMODULO, PLUS PUSHLIST REGISTERS 0 THROUGH 39D.
000172:


000174:                                                                                                  #  PROGRAM DESCRIPTION - LAMBERT SUBROUTINE                                        DATE - 1 SEPTEMBER 1967
000175:                                                                                                  #  MOD NO. - 0                                                                     LOG SECTION - CONIC SUBROUTINES
000176:                                                                                                  #  MOD BY KRAUSE                                                                   ASSEMBLY - COLOSSUS REVISION 88
000177:
000178:
000179:
000180:                                                                                                  #  FUNCTIONAL DESCRIPTION -
000181:
000182:                                                                                                  #       THIS SUBROUTINE CALCULATES THE INITIAL VELOCITY REQUIRED TO TRANSFER A POINT-MASS ALONG A CONIC TRAJECTORY
000183:                                                                                                  #  FROM AN INITIAL POSITION TO A TERMINAL POSITION IN A PRESCRIBED TIME INTERVAL.  THE RESULTING TRAJECTORY MAY BE
000184:                                                                                                  #  A SECTION OF A CIRCLE, ELLIPSE, PARABOLA, OR HYPERBOLA WITH RESPECT TO THE EARTH OR THE MOON.  THE USE OF THE
000185:                                                                                                  #  SUBROUTINE CAN BE EXTENDED USING OTHER PRIMARY BODIES BY SIMPLE ADDITIONS TO THE MUTABLE WITHOUT INTRODUCING ANY
000186:                                                                                                  #  CODING CHANGES, ACCEPTING THE INHERENT SCALE FACTOR CHANGES IN POSITION AND VELOCITY.  AN ITERATION TECHNIQUE IS
000187:                                                                                                  #  UTILIZED IN THE COMPUTATION.
000188:
000189:
000190:                                                                                                  #  THE RESTRICTIONS ARE -
000191:                                                                                                  #       1. RECTILINEAR TRAJECTORIES CANNOT BE COMPUTED.
000192:                                                                                                  #       2. AN ACCURACY DEGRADATION OCCURS AS THE COSINE OF THE TRUE ANOMALY DIFFERENCE APPROACHES +1.0.
000193:                                                                                                  #       3. THE ANGLE BETWEEN ANY POSITION VECTOR AND ITS VELOCITY VECTOR MUST BE GREATER THAN 1 DEGREE 47.5 MINUTES
000194:                                                                                                  #  AND LESS THAN 178 DEGREES 12.5 MINUTES.
000195:                                                                                                  #       4. NEGATIVE TRANSFER TIME IS AMBIGUOUS AND WILL RESULT IN NO SOLUTION.
000196:                                                                                                  #       5. THE PARAMETERS IN THE PROBLEM MUST NOT EXCEED THEIR SCALING LIMITS SPECIFIED IN THE GSOP.  IF THE
000197:                                                                                                  #  LIMITS ARE EXCEEDED, THE RESULTING SOLUTION WILL BE MEANINGLESS.
000198:                                                                                                  #       THE NUMBER OF ITERATIONS AND, THEREFORE, THE COMPUTATIONS SPEED IS DEPENDENT ON THE ACCURACY OF THE FIRST
000199:                                                                                                  #  GUESS OF THE INDEPENDENT VARIABLE, COGA.                                THE AGC COMPUTATION TIME IS APPROXIMATE-
000200:                                                                                                  #  LY .105 SECONDS FOR INITIALIZATION, .069 SECONDS FOR FINAL COMPUTATIONS, PLUS .205 SECONDS FOR EACH ITERATION.
000201:
000202:
000203:
000204:                                                                                                  #  REFERENCES -
000205:                                                                                                  #       R-479, MISSION PROGRAMMING DEFINITION MEMO NO. 10, LUNAR LANDING MISSION GSOP-SECTION 5.5, SGA MEMO 67-8,
000206:                                                                                                  #  SGA MEMO 67-4.
000207:
000208:
000209:
000210:                                                                                                  #  INPUT - ERASABLE INITIALIZATION REQUIRED
000211:
000212:                                                                                                  #          * SCALE FACTOR *
000213:                                                                                                  #  VARIABLE*IN POWERS OF 2*                         DESCRIPTION AND REMARKS
000214:                                                                                                  #  --------*--------------*                         -----------------------
000215:                                                                                                  #  R1VEC   * +29 FOR EARTH*DP INITIAL POSITION VECTOR IN METERS
000216:                                                                                                  #          * +27 FOR MOON *
000217:                                                                                                  #  R2VEC   * +29 FOR EARTH*DP TARGET OR TERMINAL POSITION VECTOR IN METERS
000218:                                                                                                  #          * +27 FOR MOON *
000219:                                                                                                  #  TDESIRED* +28          *DP DESIRED TRANSFER TIME IN CENTISECONDS
000220:                                                                                                  #  X1 (38D)* NONE         *INDEX REGISTER SET TO -2D OR -10D ACCORDING TO WHETHER THE EARTH OR MOON,
000221:                                                                                                  #          *              *RESPECTIVELY, IS THE CENTRAL BODY
000222:                                                                                                  #  GEOMSGN * NONE         *SP +.5 IF DESIRED TRANSFER ANGLE IS LESS THAN 180 DEGREES, -.5 IF GREATER THAN 180 DEG.
000223:                                                                                                  #  GUESSW  * NONE         *AN INTERPRETER SWITCH TO BE SET IF NO GUESS OF COGA IS AVAILABLE, CLEAR IF A GUESS OF


000225:                                                                                                  #          *              *COGA IS TO BE USED BY LAMBERT
000226:                                                                                                  #  COGA    * +5           *DP GUESS OF COTANGNT OF FLIGHT PATH ANGLE (MEASURED FROM VERTICAL).  THIS WILL BE
000227:                                                                                                  #                         *IGNORED IF GUESSW IS SET.
000228:                                                                                                  #  NORMSW  * NONE         *AN INTERPRETER SWITCH TO BE SET IF UN IS TO BE AN INPUT TO THE SUBROUTINE, CLEAR IF
000229:                                                                                                  #          *              *LAMBERT IS TO COMPUTE ITS OWN NORMAL (UN).
000230:                                                                                                  #  UN      * +1           *DP UNIT NORMAL TO THE DESIRED ORBIT PLANE IN THE DIRECTION OF THE RESULTING ANGULAR
000231:                                                                                                  #          *              *MOMENTUM VECTOR.  THIS WILL BE IGNORED IF NORMSW IS CLEAR.
000232:                                                                                                  #  VTARGTAG*NONE          *A S.P. TAG TO BE SET TO ZERO IF LAMBERT IS TO COMPUTE THE VELOCITY AT R2VEC AS WELL AS
000233:                                                                                                  #          *              *AT R1VEC.
000234:
000235:
000236:
000237:                                                                                                  #  SUBROUTINES CALLED -
000238:                                                                                                  #       GEOM, GETX, DELTIME, ITERATOR, LAMENTER (PART OF NEWSTATE)
000239:
000240:
000241:
000242:                                                                                                  #  CALLING SEQUENCE AND NORMAL EXIT MODES -
000243:
000244:                                                                                                  #  L        CALL                   MUST BE IN INTERPRETIVE MODE AND OVFIND MUST BE CLEAR
000245:                                                                                                  #  L+1             LAMBERT         RETURNS WITH PL AT 0 AND WITH VVEC IN MPAC IF VTARGTAG WAS NON-ZERO OR VTARGET
000246:                                                                                                  #                                  IN MPAC IF VTARGTAG WAS ZERO
000247:                                                                                                  #  L+2      BON                    CONTINUE IF SOLNSW CLEAR SINCE SOLUTION IS ACCEPTABLE
000248:                                                                                                  #  L+3             SOLNSW
000249:                                                                                                  #  L+4             LAMABORT
000250:                                                                                                  #       IF A LAMBERT RESULT IS TO BE A FIRST GUESS FOR THE NEXT LAMBERT CALCULATION, COGA MUST BE PRESERVED AND
000251:                                                                                                  #  GUESSW MUST BE CLEAR FOR EACH SUCCEEDING LAMBERT CALL.
000252:
000253:
000254:
000255:                                                                                                  #  ABORT EXIT MODES -
000256:                                                                                                  #       IF SOLNSW WAS SET UPON EXITING, EITHER LAMBERT WAS ASKED TO COMPUTE A TRANSFER TOO NEAR 0 OR 360 DEG, OR T
000257:                                                                                                  #  WAS TOO SMALL TO PRODUCE A REALISTIC TRANSFER BETWEEN R1VEC AND R2VEC.  IN EITHER CASE THE FIX MUST BE MADE
000258:                                                                                                  #  ACCORDING TO THE NEEDS OF THE PARTICULAR USER.  THE ABORT EXIT MODE MAY BE CODED AS ...
000259:                                                                                                  #  LAMABORT DLOAD  ABS                      A MEASURE OF PROXIMITY TO 0 OR
000260:                                                                                                  #                  1-CSTH                   360 DEGREES.
000261:                                                                                                  #           DSU    BMN
000262:                                                                                                  #                  ONEBIT
000263:                                                                                                  #                  CHANGER2                 CHANGE R2VEC DIRECTION SLIGHTLY.
000264:                                                                                                  #           DLOAD  DAD
000265:                                                                                                  #                  TDESIRED
000266:                                                                                                  #                  SOMETIME
000267:                                                                                                  #           STCALL TDESIRED                 INCREASE TDESIRED
000268:                                                                                                  #                  LAMBERT
000269:
000270:
000271:
000272:                                                                                                  #  OUTPUT -
000273:                                                                                                  #          * SCALE FACTOR *
000274:                                                                                                  #  VARIABLE*IN POWERS OF 2*                         DESCRIPTION AND REMARKS


000276:                                                                                                  #  --------*--------------*                         -----------------------
000277:                                                                                                  #  VVEC    * +7 FOR EARTH *DP INITIAL VELOCITY VECTOR IN METERS/CENTISECOND REQUIRED TO SATISFY THE BOUNDARY VALUE
000278:                                                                                                  #          * +5 FOR MOON  *PROBLEM.
000279:                                                                                                  #  VTARGET * +7 FOR EARTH *DP RESULTANT VELOCITY VECTOR AT R2VEC IN METERS/CENTISECOND.
000280:                                                                                                  #          * +5 FOR MOON  *
000281:                                                                                                  #  SOLNSW  * NONE         *INTERPRETER SWITCH WHICH IS SET IF THE SUBROUTINE CANNOT SOLVE THE PROBLEM, CLEAR IF THE
000282:                                                                                                  #          *              *SOLUTION EXISTS.
000283:                                                                                                  #  FOR OTHER OUTPUT WHICH MAY BE OF USE, SEE DEBRIS.
000284:
000285:
000286:
000287:                                                                                                  #  DEBRIS -
000288:                                                                                                  #        PARAMETERS WHICH MAY BE OF USE -
000289:
000290:                                                                                                  #          * SCALE FACTOR *
000291:                                                                                                  #  VARIABLE*IN POWERS OF 2*                         DESCRIPTION AND REMARKS
000292:                                                                                                  #  --------*--------------*                         -----------------------
000293:                                                                                                  #  SNTH    * +1           *DP SIN OF ANGLE BETWEEN R1VEC AND R2VEC
000294:                                                                                                  #  CSTH    * +1           *DP COSINE OF ANGLE
000295:                                                                                                  #  1-CSTH  * +2           *DP 1-CSTH
000296:                                                                                                  #  COGA    * +5           *DP COTAN OF INITIAL REQUIRED FLIGHT PATH ANGLE MEASURED FROM VERTICAL
000297:                                                                                                  #  P       * +4           *DP RATIO OF SEMILATUS RECTUM TO INITIAL RADIUS
000298:                                                                                                  #  R1A     * +6           *DP RATIO OF INITIAL RADIUS TO SEMIMAJOR AXIS
000299:                                                                                                  #  R1 (32D)* +29 FOR EARTH*DP INITIAL RADIUS IN METERS
000300:                                                                                                  #          * +27 FOR MOON *
000301:                                                                                                  #  UR1     * +1           *DP UNIT VECTOR OF R1VEC
000302:                                                                                                  #  U2      * +1           *DP UNIT VECTOR OF R2VEC
000303:
000304:                                                                                                  #       PARAMETERS OF NO USE
000305:                                                                                                  #  DP PARAMETERS - EPSILONL, CSTH-RHO, TPREV, TERRLAMB, R2, RTNLAMB (SP), PLUS PUSHLIST REGISTER 0 THROUGH 41D
000306:                                                                                                  #  ADDITIONAL INTERPRETIVE SWITCHES USED - INFINFLG, 360SW, SLOPESW, ORDERSW
000307:


000309:                                                                                                  #  PROGRAM DESCRIPTION - TIME-THETA SUBROUTINE                                     DATE - 1 SEPTEMBER 1967
000310:                                                                                                  #  MOD NO. - 0                                                                     LOG SECTION - CONIC SUBROUTINES
000311:                                                                                                  #  MOD BY KRAUSE                                                                   ASSEMBLY - COLOSSUS REVISION 88
000312:
000313:
000314:
000315:                                                                                                  #  FUNCTIONAL DESCRIPTION -
000316:
000317:                                                                                                  #       THIS SUBROUTINE, GIVEN AN INITIAL STATE VECTOR AND A DESIRED TRUE-ANOMALY-DIFFERENCE THROUGH WHICH THE
000318:                                                                                                  #  STATE IS TO BE UPDATED ALONG A CONIC TRAJECTORY, CALCULATES THE CORRESPONDING TIME-OF-FLIGHT AND, IN ADDITION,
000319:                                                                                                  #  PROVIDES THE OPTION OF COMPUTING THE NEW UPDATED STATE VECTOR.  THE RESULTING TRAJECTORY MAY BE A SECTION OF A
000320:                                                                                                  #  CIRCLE, ELLIPSE, PARABOLA, OR HYPERBOLA WITH RESPECT TO THE EARTH OR THE MOON.  THE USE OF THE SUBROUTINE CAN BE
000321:                                                                                                  #  EXTENDED USING OTHER PRIMARY BODIES BY SIMPLE ADDITIONS TO THE MUTABLE WITHOUT INTRODUCING ANY CODING CHANGES,
000322:                                                                                                  #  ACCEPTING THE INHERENT SCALE FACTOR CHANGES IN POSITION AND VELOCITY.
000323:
000324:
000325:                                                                                                  #  THE RESTRICTIONS ARE -
000326:                                                                                                  #       1. THE ANGLE BETWEEN ANY POSITION VECTOR AND ITS VELOCITY VECTOR MUST BE GREATER THAN 1 DEGREE 47.5 MINUTES
000327:                                                                                                  #  AND LESS THAN 178 DEGREES 12.5 MINUTES.
000328:                                                                                                  #       2. THE PARAMETERS IN THE PROBLEM MUST NOT EXCEED THEIR SCALING LIMITS SPECIFIED IN THE GSOP.  IF THE LIMITS
000329:                                                                                                  #  ARE EXCEEDED, THE RESULTING SOLUTION WILL BE MEANINGLESS.
000330:
000331:                                                                                                  #       THE AGC COMPUTATION TIME IS APPROXIMATELY .292 SECONDS.
000332:
000333:
000334:
000335:                                                                                                  #  REFERENCES -
000336:                                                                                                  #       R-479, MISSION PROGRAMMING DEFINITION MEMO NO. 10, LUNAR LANDING MISSION GSOP-SECTION 5.5, SGA MEMO 67-8.
000337:
000338:
000339:
000340:                                                                                                  #  INPUT - ERASABLE INITIALIZATION REQUIRED
000341:
000342:                                                                                                  #          * SCALE FACTOR *
000343:                                                                                                  #  VARIABLE*IN POWERS OF 2*                         DESCRIPTION AND REMARKS
000344:                                                                                                  #  --------*--------------*                         -----------------------
000345:                                                                                                  #  RVEC    * +29 FOR EARTH*DP INITIAL POSITION VECTOR IN METERS
000346:                                                                                                  #          * +27 FOR MOON *
000347:                                                                                                  #  VVEC    * +7 FOR EARTH *DP INITIAL VELOCITY VECTOR IN METERS/CENTISECOND
000348:                                                                                                  #          * +5 FOR MOON  *
000349:                                                                                                  #  SNTH    * +1           *DP SINE OF TRUE-ANOMALY-DIFFERENCE THROUGH WHICH THE STATE IS TO BE UPDATED
000350:                                                                                                  #  CSTH    * +1           *DP COSINE OF THE ANGLE
000351:                                                                                                  #  RVSW    * NONE         *AN INTERPRETIVE SWITCH TO BE SET IF ONLY TIME IS TO BE AN OUTPUT, CLEAR IF THE NEW STATE
000352:                                                                                                  #          *              *IS TO BE COMPUTED ALSO.
000353:                                                                                                  #  X1 (38D)*NONE          *INDEX REGISTER TO BE SET TO -2D OR -10D ACCORDING TO WHETHER THE EARTH OR MOON,
000354:                                                                                                  #          *              *RESPECTIVELY, IS THE CENTRAL BODY.
000355:
000356:
000357:
000358:                                                                                                  #  SUBROUTINES CALLED -


000360:                                                                                                  #       PARAM, GEOM, GETX, DELTIME, NEWSTATE
000361:
000362:
000363:
000364:                                                                                                  #  CALLING SEQUENCE AND NORMAL EXIT MODES -
000365:
000366:                                                                                                  #     IF ONLY TIME IS DESIRED AS OUTPUT -
000367:                                                                                                  #  L        SET    CALL            MUST BE IN INTERPRETIVE MODE AND OVFIND MUST BE CLEAR
000368:                                                                                                  #  L+1             RVSW
000369:                                                                                                  #  L+2             TIMETHET        RETURN WITH PL AT 0 AND T IN MPAC
000370:                                                                                                  #  L+3      ...                    CONTINUE
000371:
000372:
000373:                                                                                                  #     IF THE UPDATE STATE VECTOR IS DESIRED AS WELL -
000374:                                                                                                  #  L        CLEAR  CALL            MUST BE IN INTERPRETIVE MODE AND OVFIND MUST BE CLEAR
000375:                                                                                                  #  L+1             RVSW
000376:                                                                                                  #  L+2             TIMETHET        RETURNS WITH PL AT 6.  THE INITIAL POSITION VECTOR IS IN 0D OF THE PUSHLIST AND
000377:                                                                                                  #                                  THE INITIAL VELOCITY VECTOR IN MPAC.
000378:                                                                                                  #  L+3      STOVL  NEWVVEC
000379:                                                                                                  #  L+4      STADR
000380:                                                                                                  #  L+5      STORE  NEWRVEC                 NEWVVEC AND NEWRVEC ARE SYMBOLIC REPRESENTATIONS OF THE USERS LOCATIONS.
000381:                                                                                                  #  L+6      ...                            CONTINUE
000382:
000383:
000384:
000385:                                                                                                  #  ABORT EXIT MODES -
000386:                                                                                                  #  L        CALL   BON
000387:                                                                                                  #  L+1             TIMETHET
000388:                                                                                                  #  L+2             COGAFLAG
000389:                                                                                                  #  L+3             COGABORT                RESTRICTION 1 HAS BEEN VIOLATED.
000390:                                                                                                  #  L+4      BON                            IF NEITHER FLAG IS SET AND RESTRICTION 2 HAS NOT BEEN VIOLATED, THE SOLUTION IS
000391:                                                                                                  #                                          GOOD, SO CONTINUE
000392:                                                                                                  #  L+5             INFINFLG
000393:                                                                                                  #  L+6             IMPOSSBL                NO SOLUTION EXISTS.
000394:
000395:
000396:
000397:                                                                                                  #  OUTPUT -
000398:                                                                                                  #          * SCALE FACTOR *
000399:                                                                                                  #  VARIABLE*IN POWERS OF 2*                         DESCRIPTION AND REMARKS
000400:                                                                                                  #  --------*--------------*                         -----------------------
000401:                                                                                                  #  T(30D)  * +28          *DP TRANSFER TIME IN CENTISECONDS
000402:                                                                                                  #  INFINFLG* NONE         *AN INTERPRETIVE SWITCH WHICH IS SET IF THE TRANSFER ANGLE REQUIRES CLOSURE THROUGH
000403:                                                                                                  #          *              *INFINITY (NO SOLUTION), CLEAR IF A PHYSICAL SOLUTION IS POSSIBLE.
000404:                                                                                                  #  COGAFLAG* NONE         *AN INTERPRETIVE SWITCH WHICH IS SET IF RESTRICTION 1 HAS BEEN VIOLATED (NO SOLUTION),
000405:                                                                                                  #          *              *CLEAR IF NOT.
000406:
000407:                                                                                                  #  IN ADDITION, IF VTARGTAG IS NON-ZERO, THE FOLLOWING ARE OUTPUT -
000408:                                                                                                  #  MPAC -  * +7 FOR EARTH *DP TERMINAL VELOCITY VECTOR IN METERS/CENTISEC.
000409:                                                                                                  #   MPAC+5 * +5 FOR MOON  *


000411:                                                                                                  #  0D - 5D * +29 FOR EARTH*DP TERMINAL POSITION VECTOR IN METERS (PL AT 6D)
000412:                                                                                                  #          * +27 FOR MOON *
000413:
000414:                                                                                                  #  FOR OTHER OUTPUT WHICH MAY BE OF USE, SEE DEBRIS.
000415:
000416:
000417:
000418:                                                                                                  #  DEBRIS -
000419:
000420:                                                                                                  #       PARAMETERS WHICH MAY BE OF USE -
000421:
000422:                                                                                                  #          * SCALE FACTOR *
000423:                                                                                                  #  VARIABLE*IN POWERS OF 2*                         DESCRIPTION AND REMARKS
000424:                                                                                                  #  --------*--------------*                         -----------------------
000425:                                                                                                  #  R1 (32D)* +29 FOR EARTH*DP MAGNITUDE OF INITIAL POSITION VECTOR, RVEC, IN METERS
000426:                                                                                                  #          * +27 FOR MOON *
000427:                                                                                                  #  R1A     * +6           *DP RATIO OF R1 TO SEMIMAJOR AXIS (NEG. FOR HYPERBOLIC TRAJECTORIES)
000428:                                                                                                  #  P       * +4           *DP RATIO OF SEMILATUS RECTUM TO R1
000429:                                                                                                  #  COGA    * +5           *DP COTAN OF ANGLE BETWEEN RVEC AND VVEC
000430:                                                                                                  #  UR1     * +1           *DP UNIT VECTOR OF RVEC
000431:                                                                                                  #  U2      * +1           *DP UNIT VECTOR OF VVEC
000432:                                                                                                  #  UN      * +1           *DP UNIT VECTOR OF UR1*U2
000433:
000434:
000435:                                                                                                  #       PARAMETERS OF NO USE -
000436:                                                                                                  #  SP PARAMETERS -  RTNTT, GEOMSGN, RTNPRM, MAGVEC2=R2 (DP), PLUS PUSHLIST LOCATIONS 0-11D, 14D-21D, 24D-39D, 41D
000437:                                                                                                  #  ADDITIONAL INTERPRETIVE SWITCHES USED - NORMSW, 360SW
000438:
000439:


000441:                                                                                                  #  PROGRAM DESCRIPTION - TIME-RADIUS SUBROUTINE                            DATE - 11 OCTOBER 1967
000442:                                                                                                  #  MOD NO. -1                                                                      LOG SECTION - CONIC SUBROUTINES
000443:                                                                                                  #  MOD BY KRAUSE                                                                   ASSEMBLY - COLOSSUS REVISION 88
000444:
000445:
000446:
000447:                                                                                                  #  FUNCTIONAL DESCRIPTION -
000448:
000449:                                                                                                  #       THIS SUBROUTINE, GIVEN AN INITIAL STATE VECTOR AND A DESIRED RADIUS TO WHICH THE
000450:                                                                                                  #  STATE IS TO BE UPDATED ALONG A CONIC TRAJECTORY, CALCULATES THE CORRESPONDING TIME-OF-FLIGHT AND, IN ADDITION,
000451:                                                                                                  #  PROVIDES THE OPTION OF COMPUTING THE NEW UPDATED STATE VECTOR.  THE RESULTING TRAJECTORY MAY BE A SECTION OF A
000452:                                                                                                  #  CIRCLE, ELLIPSE, PARABOLA, OR HYPERBOLA WITH RESPECT TO THE EARTH OR THE MOON.  THE USE OF THE SUBROUTINE CAN BE
000453:                                                                                                  #  EXTENDED USING OTHER PRIMARY BODIES BY SIMPLE ADDITIONS TO THE MUTABLE WITHOUT INTRODUCING ANY CODING CHANGES,
000454:                                                                                                  #  ACCEPTING THE INHERENT SCALE FACTOR CHANGES IN POSITION AND VELOCITY.
000455:                                                                                                  #       IF THE DESIRED RADIUS IS BEYOND THE RADIUS OF APOCENTER OF THE CONIC OR BELOW THE RADIUS OF PERICENTER,
000456:                                                                                                  #  APSESW WILL BE SET AND THE SUBROUTINE WILL RETURN THE APOCENTER OR PERICENTER SOLUTION, RESPECTIVELY.
000457:
000458:
000459:                                                                                                  #  THE RESTRICTIONS ARE -
000460:                                                                                                  #       1. THE ANGLE BETWEEN ANY POSITION VECTOR AND ITS VELOCITY VECTOR MUST BE GREATER THAN 1 DEGREE 47.5 MINUTES
000461:                                                                                                  #  AND LESS THAN 178 DEGREES 12.5 MINUTES.
000462:                                                                                                  #       2. THE PARAMETERS IN THE PROBLEM MUST NOT EXCEED THEIR SCALING LIMITS SPECIFIED IN THE GSOP.  IF THE LIMITS
000463:                                                                                                  #  ARE EXCEEDED, THE RESULTING SOLUTION WILL BE MEANINGLESS.
000464:                                                                                                  #       3. AN ACCURACY DEGRADATION OCCURS AS THE SENSITIVITIES OF TIME AND UPDATED STATE VECTOR TO CHANGES IN
000465:                                                                                                  #  RDESIRED INCREASE.  THIS WILL OCCUR NEAR EITHER APSIS OF THE CONIC AND WHEN THE CONIC IS NEARLY CIRCULAR.  IN
000466:                                                                                                  #  PARTICULAR, IF THE CONIC IS AN EXACT CIRCLE, THE PROBLEM IS UNDEFINED AND THE SUBROUTINE WILL ABORT.
000467:
000468:
000469:                                                                                                  #       THE AGC COMPUTATION TIME IS APPROXIMATELY .363 SECONDS
000470:
000471:
000472:
000473:                                                                                                  #  REFERENCES -
000474:                                                                                                  #       R-479, MISSION PROGRAMMING DEFINITION MEMO NO. 10, LUNAR LANDING MISSION GSOP-SECTION 5.5, SGA MEMO 67-8.
000475:
000476:
000477:
000478:                                                                                                  #  INPUT - ERASABLE INITIALIZATION REQUIRED
000479:
000480:                                                                                                  #          * SCALE FACTOR *
000481:                                                                                                  #  VARIABLE*IN POWERS OF 2*                         DESCRIPTION AND REMARKS
000482:                                                                                                  #  --------*--------------*                         -----------------------
000483:                                                                                                  #  RVEC    * +29 FOR EARTH*DP INITIAL POSITION VECTOR IN METERS
000484:                                                                                                  #          * +27 FOR MOON *
000485:                                                                                                  #  VVEC    * +7 FOR EARTH *DP INITIAL VELOCITY VECTOR IN METERS/CENTISECOND
000486:                                                                                                  #          * +5 FOR MOON  *
000487:                                                                                                  #  RDESIRED* +29 FOR EARTH*DP TERMINAL RADIAL DISTANCE ON CONIC TRAJECTORY FOR WHICH TRANSFER TIME IS TO BE
000488:                                                                                                  #          * +27 FOR MOON *COMPUTED.
000489:                                                                                                  #  SGNRDOT * NONE         *SP TAG SET TO +.5 OR -.5 ACCORDING TO WHETHER THE RADIAL VELOCITY AT RDESIRED IS TO BE
000490:                                                                                                  #          *              *POSITIVE OR NEGATIVE, RESPECTIVELY.   THIS TAG REDUCES THE DOUBLE-VALUED PROBLEM TO A


000492:                                                                                                  #          *              *SINGLE-VALUED PROBLEM.
000493:                                                                                                  #  X1 (38D)*NONE          *INDEX REGISTER TO BE SET TO -2D OR -10D ACCORDING TO WHETHER THE EARTH OR MOON,
000494:                                                                                                  #          *              *RESPECTIVELY, IS THE CENTRAL BODY.
000495:                                                                                                  #  RVSW    * NONE         *AN INTERPRETIVE SWITCH TO BE SET IF ONLY TIME IS TO BE AN OUTPUT, CLEAR IF THE NEW STATE
000496:                                                                                                  #          *              *IS TO BE COMPUTED ALSO.
000497:
000498:
000499:
000500:                                                                                                  #  SUBROUTINES CALLED -
000501:                                                                                                  #       PARAM, GEOM, GETX, DELTIME, NEWSTATE
000502:
000503:
000504:
000505:                                                                                                  #  CALLING SEQUENCE AND NORMAL EXIT MODES -
000506:
000507:                                                                                                  #     IF ONLY TIME IS DESIRED AS OUTPUT -
000508:                                                                                                  #  L        SET    CALL            MUST BE IN INTERPRETIVE MODE AND OVFIND MUST BE CLEAR
000509:                                                                                                  #  L+1             RVSW
000510:                                                                                                  #  L+2             TIMERAD         RETURN WITH PL AT 0 AND T IN MPAC
000511:                                                                                                  #  L+3      ...                    CONTINUE
000512:
000513:
000514:                                                                                                  #     IF THE UPDATE STATE VECTOR IS DESIRED AS WELL -
000515:                                                                                                  #  L        CLEAR  CALL            MUST BE IN INTERPRETIVE MODE AND OVFIND MUST BE CLEAR
000516:                                                                                                  #  L+1             RVSW
000517:                                                                                                  #  L+2             TIMERAD         RETURNS WITH PL AT 6.  THE INITIAL POSITION VECTOR IS IN 0D OF THE PUSHLIST AND
000518:                                                                                                  #                                  THE INITIAL VELOCITY VECTOR IN MPAC.
000519:                                                                                                  #  L+3      STOVL  NEWVVEC
000520:                                                                                                  #  L+4      STADR
000521:                                                                                                  #  L+5      STORE  NEWRVEC                 NEWVVEC AND NEWRVEC ARE SYMBOLIC REPRESENTATIONS OF THE USERS LOCATIONS.
000522:                                                                                                  #  L+6      ...                            CONTINUE
000523:
000524:
000525:
000526:                                                                                                  #  ABORT EXIT MODES -
000527:                                                                                                  #  L        CALL   BON
000528:                                                                                                  #  L+1             TIMERAD
000529:                                                                                                  #  L+2             COGAFLAG
000530:                                                                                                  #  L+3             COGABORT        RESTRICTION 1 HAS BEEN VIOLATED.
000531:                                                                                                  #  L+4      BON    BON
000532:                                                                                                  #  L+5             INFINFLG
000533:                                                                                                  #  L+6             IMPOSSBL        NO SOLUTION EXISTS.
000534:                                                                                                  #  L+7             SOLNSW
000535:                                                                                                  #  L+8             IMPOSSBL        SOLUTION IS UNDEFINED SINCE CONIC IS A CIRCLE.  RESTRICTION 3 HAS BEEN VIOLATED.
000536:                                                                                                  #  L+9      ...                    IF ALL THREE OF THE FLAGS ARE CLEAR, A SOLUTION EXISTS, SO CONTINUE.
000537:
000538:
000539:
000540:                                                                                                  #  OUTPUT -
000541:                                                                                                  #          * SCALE FACTOR *


000543:                                                                                                  #  VARIABLE*IN POWERS OF 2*                         DESCRIPTION AND REMARKS
000544:                                                                                                  #  --------*--------------*                         -----------------------
000545:                                                                                                  #  T (30D) * +28          *DP TRANSFER TIME IN CENTISECONDS
000546:                                                                                                  #  INFINFLG* NONE         *AN INTERPRETIVE SWITCH WHICH IS SET IF RDESIRED AND SGNRDOT REQUIRE CLOSURE THROUGH
000547:                                                                                                  #          *              *INFINITY (NO SOLUTION), CLEAR IF A PHYSICAL SOLUTION IS POSSIBLE.
000548:                                                                                                  #  COGAFLAG* NONE         *AN INTERPRETIVE SWITCH WHICH IS SET IF RESTRICTION 1 HAS BEEN VIOLATED (NO SOLUTION),
000549:                                                                                                  #          *              *CLEAR IF NOT.
000550:                                                                                                  #  APSESW  * NONE         *AN INTERPRETIVE SWITCH WHICH IS SET IF RDESIRED WAS GREATER THAN RADIUS OF APOCENTER OR
000551:                                                                                                  #          *              *LESS THAN RADIUS OF PERICENTER.  THE APOCENTER OR PERICENTER SOLUTION, RESPECTIVELY,
000552:                                                                                                  #          *              *WILL THEN BE RETURNED.  THE SWITCH IS CLEAR IF RDESIRED WAS BETWEEN PERICENTER AND
000553:                                                                                                  #          *              *APOCENTER.
000554:                                                                                                  #  SOLNSW  * NONE         *AN INTERPRETIVE SWITCH WHICH IS SET IF THE CONIC IS SO CLOSE TO A CIRCLE THAT THE TERMIN
000555:                                                                                                  #                         *POINT IS AMBIGUOUS, VIOLATING RESTRICTION 3.  IF ECCENTRICITY IS GREATER THAN 2-TO-THE-
000556:                                                                                                  #                         *MINUS-18, THE SWITCH IS CLEAR.
000557:
000558:
000559:                                                                                                  #  IN ADDITION, IF VTARGTAG IS NON-ZERO, THE FOLLOWING ARE OUTPUT -
000560:
000561:                                                                                                  #  MPAC -  * +7 FOR EARTH *DP TERMINAL VELOCITY VECTOR IN METERS/CENTISEC.
000562:                                                                                                  #   MPAC +5* +5 FOR MOON  *
000563:                                                                                                  #  0D - 5D * +29 FOR EARTH*DP TERMINAL POSITION VECTOR IN METERS (PL AT 6D)
000564:                                                                                                  #          * +27 FOR MOON *
000565:
000566:                                                                                                  #  FOR OTHER OUTPUT WHICH MAY BE OF USE, SEE DEBRIS.
000567:
000568:
000569:
000570:                                                                                                  #  DEBRIS -
000571:
000572:                                                                                                  #       PARAMETERS WHICH MAY BE OF USE -
000573:
000574:                                                                                                  #          * SCALE FACTOR *
000575:                                                                                                  #  VARIABLE*IN POWERS OF 2*                         DESCRIPTION AND REMARKS
000576:                                                                                                  #  --------*--------------*                         -----------------------
000577:                                                                                                  #  R1 (32D)* +29 FOR EARTH*DP MAGNITUDE OF INITIAL POSITION VECTOR, RVEC, IN METERS
000578:                                                                                                  #          * +27 FOR MOON *
000579:                                                                                                  #  R1A     * +6           *DP RATIO OF R1 TO SEMIMAJOR AXIS (NEG. FOR HYPERBOLIC TRAJECTORIES)
000580:                                                                                                  #  P       * +4           *DP RATIO OF SEMILATUS RECTUM TO R1
000581:                                                                                                  #  COGA    * +5           *DP COTAN OF ANGLE BETWEEN RVEC AND VVEC
000582:                                                                                                  #  UR1     * +1           *DP UNIT VECTOR OF RVEC
000583:                                                                                                  #  U2      * +1           *DP UNIT VECTOR OF VVEC
000584:                                                                                                  #  UN      * +1           *DP UNIT VECTOR OF UR1*U2
000585:                                                                                                  #  CSTH    * +1           *DP COSINE OF TRUE ANOMALY DIFFERENCE BETWEEN RVEC AND RDESIRED.
000586:                                                                                                  #  SNTH    * +1           *DP SINE OF TRUE ANOMALY DIFFERENCE.
000587:
000588:
000589:                                                                                                  #       PARAMETERS OF NO USE -
000590:                                                                                                  #  SP PARAMETERS -  RTNTT, GEOMSGN, RTNPRM, MAGVEC2=R2 (DP), PLUS PUSHLIST LOCATIONS 0-11D, 14D-21D, 24D-39D, 41D
000591:                                                                                                  #  ADDITIONAL INTERPRETIVE SWITCHES USED - NORMSW, 360SW
000592:
000593:


000595:                                                                                                  #  PROGRAM DESCRIPTION - APSIDES SUBROUTINE                                        DATE - 1 SEPTEMBER 1967
000596:                                                                                                  #  MOD NO. - 0                                                                     LOG SECTION - CONIC SUBROUTINES
000597:                                                                                                  #  MOD BY KRAUSE                                                                   ASSEMBLY - COLOSSUS REVISION 88
000598:
000599:
000600:
000601:                                                                                                  #  FUNCTIONAL DESCRIPTION -
000602:
000603:                                                                                                  #       THIS SUBROUTINE, GIVEN AN INITIAL STATE VECTOR CALCULATES THE RADIUS OF PERICENTER AND OF APOCENTER AND THE
000604:                                                                                                  #  ECCENTRICITY OF THE RESULTING CONIC TRAJECTORY, WHICH MAY BE A STRAIGHT LINE,
000605:                                                                                                  #  CIRCLE, ELLIPSE, PARABOLA, OR HYPERBOLA WITH RESPECT TO THE EARTH OR THE MOON.  THE USE OF THE SUBROUTINE CAN BE
000606:                                                                                                  #  EXTENDED USING OTHER PRIMARY BODIES BY SIMPLE ADDITIONS TO THE MUTABLE WITHOUT INTRODUCING ANY CODING CHANGES,
000607:                                                                                                  #  ACCEPTING THE INHERENT SCALE FACTOR CHANGES IN POSITION AND VELOCITY.
000608:
000609:
000610:                                                                                                  #  THE RESTRICTIONS ARE -
000611:                                                                                                  #       1. IF APOCENTER IS BEYOND THE SCALING OF POSITION, THE SCALE FACTOR LIMIT (536,870,910 METERS WITH RESPECT
000612:                                                                                                  #  TO THE EARTH OR 134,217,727.5 METERS WITH RESPECT TO THE MOON) WILL BE RETURNED.
000613:                                                                                                  #       2. THE PARAMETERS IN THE PROBLEM MUST NOT EXCEED THEIR SCALING LIMITS SPECIFIED IN THE GSOP.  IF THE LIMITS
000614:                                                                                                  #  ARE EXCEEDED, THE RESULTING SOLUTION WILL BE MEANINGLESS.
000615:
000616:                                                                                                  #       THE AGC COMPUTATION TIME IS APPROXIMATELY .103 SECONDS.
000617:
000618:
000619:
000620:                                                                                                  #  REFERENCES -
000621:                                                                                                  #       MISSION PROGRAMMING DEFINITION MEMO NO. 10, LUNAR LANDING MISSION GSOP-SECTION 5.5
000622:
000623:
000624:
000625:                                                                                                  #  INPUT - ERASABLE INITIALIZATION REQUIRED
000626:
000627:                                                                                                  #          * SCALE FACTOR *
000628:                                                                                                  #  VARIABLE*IN POWERS OF 2*                         DESCRIPTION AND REMARKS
000629:                                                                                                  #  --------*--------------*                         -----------------------
000630:                                                                                                  #  RVEC    * +29 FOR EARTH*DP INITIAL POSITION VECTOR IN METERS
000631:                                                                                                  #          * +27 FOR MOON *
000632:                                                                                                  #  VVEC    * +7 FOR EARTH *DP INITIAL VELOCITY VECTOR IN METERS/CENTISECOND
000633:                                                                                                  #          * +5 FOR MOON  *
000634:                                                                                                  #  X1 (38D)* NONE         *INDEX REGISTER TO BE SET TO -2D OR -10D ACCORDING TO WHETHER THE EARTH OR MOON,
000635:                                                                                                  #          *              *RESPECTIVELY, IS THE CENTRAL BODY.
000636:
000637:
000638:
000639:                                                                                                  #  SUBROUTINES CALLED -
000640:                                                                                                  #       PARAM, GEOM
000641:
000642:
000643:
000644:                                                                                                  #  CALLING SEQUENCE AND NORMAL EXIT MODES -


000646:                                                                                                  #     IF ONLY TIME IS DESIRED AS OUTPUT -
000647:                                                                                                  #  L        CALL                   MUST BE IN INTERPRETIVE MODE AND OVFIND MUST BE CLEAR.
000648:                                                                                                  #  L+1             APSIDES         RETURNS WITH PL AT 0, RADIUS OF APOCENTER IN MPAC AND RADIUS OF PERICENTER IN 0D
000649:                                                                                                  #  L+2      STODL  APOAPSE
000650:                                                                                                  #  L+3             0D
000651:                                                                                                  #  L+4      STORE  PERIAPSE                APOAPSE AND PERIAPSE ARE SYMBOLIC REPRESENTATIONS OF THE USERS LOCATIONS
000652:                                                                                                  #  L+5      ...                    CONTINUE
000653:
000654:
000655:
000656:                                                                                                  #  OUTPUT -
000657:                                                                                                  #          * SCALE FACTOR *
000658:                                                                                                  #  VARIABLE*IN POWERS OF 2*                         DESCRIPTION AND REMARKS
000659:                                                                                                  #  --------*--------------*                         -----------------------
000660:                                                                                                  #  MPAC    * +29 FOR EARTH*DP RADIUS OF APOCENTER IN METERS
000661:                                                                                                  #          * +27 FOR MOON *
000662:                                                                                                  #  0D-1D   * +29 FOR EARTH*DP RADIUS OF PERICENTER IN METERS
000663:                                                                                                  #          * +27 FOR MOON *
000664:                                                                                                  #  ECC     * +3           *DP ECCENTRICITY OF CONIC TRAJECTORY.
000665:
000666:                                                                                                  #  FOR OTHER OUTPUT WHICH MAY BE OF USE, SEE DEBRIS.
000667:
000668:
000669:
000670:                                                                                                  #  DEBRIS -
000671:
000672:                                                                                                  #       PARAMETERS WHICH MAY BE OF USE -
000673:
000674:                                                                                                  #          * SCALE FACTOR *
000675:                                                                                                  #  VARIABLE*IN POWERS OF 2*                         DESCRIPTION AND REMARKS
000676:                                                                                                  #  --------*--------------*                         -----------------------
000677:                                                                                                  #  R1 (32D)* +29 FOR EARTH*DP MAGNITUDE OF INITIAL POSITION VECTOR, RVEC, IN METERS
000678:                                                                                                  #          * +27 FOR MOON *
000679:                                                                                                  #  R1A     * +6           *DP RATIO OF R1 TO SEMIMAJOR AXIS (NEG. FOR HYPERBOLIC TRAJECTORIES)
000680:                                                                                                  #  P       * +4           *DP RATIO OF SEMILATUS RECTUM TO R1
000681:                                                                                                  #  COGA    * +5           *DP COTAN OF ANGLE BETWEEN RVEC AND VVEC
000682:                                                                                                  #  UR1     * +1           *DP UNIT VECTOR OF RVEC
000683:                                                                                                  #  U2      * +1           *DP UNIT VECTOR OF VVEC
000684:                                                                                                  #  UN      * +1           *DP UNIT VECTOR OF UR1*U2
000685:                                                                                                  #  MAGVEC2 * +7 FOR EARTH *DP MAGNITUDE OF VVEC
000686:                                                                                                  #          * +5 FOR MOON  *
000687:
000688:
000689:                                                                                                  #       PARAMETERS OF NO USE -
000690:                                                                                                  #  SP PARAMETERS - RTNAPSE, GEOMSGN, RTNPRM, PLUS PUSHLIST LOCATIONS 0-5,10D-11D, 14D-21D, 31D-38D.
000691:                                                                                                  #  ADDITIONAL INTERPRETIVE SWITCHES USED - NORMSW
000692:
000693:
000694:
000695: 12,2000                                           SETLOC   CONICS


000697: 12,2000                                           BANK
000698:
000699: 12,2000                                           COUNT    12/CONIC
000700:
000701: 12,2000  E5,1723                                  EBANK=   UR1
000702: 12,2000           71201        KEPLERN            SETPD    DLOAD
000703: 12,2001           00001                                    0
000704: 12,2002           11453                                    KEPZERO
000705: 12,2003           01344                           STORE    XMODULO
000706: 12,2004           31346                           STOVL*   TMODULO
000707: 12,2005           11626                                    MUTABLE,1
000708: 12,2006           24017                           STOVL    14D
000709: 12,2007           01503                                    RRECT
000710: 12,2010           66256                           UNIT     SSP
000711: 12,2011           00027                                    ITERCTR
000712: 12,2012           00024                                    20D
000713: 12,2013           16647                           STODL    URRECT
000714: 12,2014           00045                                    36D
000715: 12,2015           24041                           STOVL    R1
000716: 12,2016           01503                                    RRECT
000717: 12,2017           76441                           DOT      SL1R
000718: 12,2020           01511                                    VRECT
000719: 12,2021           76405                           DMP      SL1R
000720: 12,2022           00023                                    1/ROOTMU                              #  1/ROOTMU (-17 OR -14)
000721: 12,2023           24043                           STOVL    KEPC1                                 #  C1=R.V/ROOTMU (+17 OR +16)
000722: 12,2024           01511                                    VRECT
000723: 12,2025           57236                           VSQ      DMPR
000724: 12,2026           00017                                    1/MU                                  #  1/MU (-34 OR -28)
000725: 12,2027           52405                           DMP      SL3
000726: 12,2030           00041                                    R1
000727: 12,2031           61425                           DSU      ROUND
000728: 12,2032           11475                                    D1/64
000729: 12,2033           00045                           STORE    KEPC2                                 #  C2=RV.V/MU -1 (+6)
000730:
000731: 12,2034           74421                           BDSU     SR1R
000732: 12,2035           11475                                    D1/64
000733: 12,2036           77671                           DDV
000734: 12,2037           00041                                    R1
000735: 12,2040           00011                           STORE    ALPHA                                 #  ALPHA=(1-C2)/R1 (-22 OR -20)
000736:
000737:
000738: 12,2041           71244                           BPL      DLOAD                                 #  MAXIMUM X DEPENDS ON TYPE OF CONIC
000739: 12,2042           24051                                    1REV
000740: 12,2043           11513                                    -50SC                                 #  -50SC (+12)
000741: 12,2044           40071                           DDV      BOV
000742: 12,2045           00011                                    ALPHA
000743: 12,2046           24055                                    STOREMAX
000744: 12,2047           52166                           SQRT     GOTO
000745: 12,2050           24055                                    STOREMAX


000747: 12,2051           55366        1REV               SQRT     BDDV
000748: 12,2052           11515                                    2PISC                                 #  2PISC (+6)
000749: 12,2053           77600                           BOV
000750: 12,2054           24055                                    STOREMAX
000751: 12,2055           50165        STOREMAX           SIGN     BMN
000752: 12,2056           02312                                    TAU.
000753: 12,2057           24272                                    BACKWARD
000754: 12,2060           00013                           STORE    XMAX
000755: 12,2061           65205                           DMP      PDDL                                  #                               PL AT 2
000756: 12,2062           00023                                    1/ROOTMU
000757: 12,2063           00011                                    ALPHA
000758: 12,2064           65301                           NORM     PDDL                                  #  DXCH WITH 0D.  0D=ALPHA      PL AT 0,2
000759: 12,2065           00047                                    X1
000760: 12,2066           56257                           SL*      DDV                                   #                               PL AT 0
000761: 12,2067           20173                                    0          -6,1
000762: 12,2070           50000        PERIODCH           BOV      BMN
000763: 12,2071           24112                                    MODDONE
000764: 12,2072           24112                                    MODDONE
000765: 12,2073           77606                           PUSH                                           #  0D=PERIOD (+28)
000766: 12,2074           50021                           BDSU     BMN
000767: 12,2075           02312                                    TAU.
000768: 12,2076           24112                                    MODDONE
000769: 12,2077           16312                           STODL    TAU.
000770: 12,2100           00013                                    XMAX
000771: 12,2101           77615                           DAD
000772: 12,2102           01344                                    XMODULO
000773: 12,2103           15344                           STODL    XMODULO
000774: 12,2104           00001                                    0D
000775: 12,2105           77615                           DAD
000776: 12,2106           01346                                    TMODULO
000777: 12,2107           15346                           STODL    TMODULO                               #                               PL AT 0
000778: 12,2110           77650                           GOTO
000779: 12,2111           24070                                    PERIODCH
000780:
000781: 12,2112           71201        MODDONE            SETPD    DLOAD
000782: 12,2113           00001                                    0
000783: 12,2114           11453                                    KEPZERO
000784: 12,2115           14015                           STODL    XMIN
000785: 12,2116           02306                                    XKEPNEW
000786: 12,2117           77625                           DSU
000787: 12,2120           01344                                    XMODULO
000788: 12,2121           00025                           STORE    X
000789: 12,2122           50054                           BZE      BMN
000790: 12,2123           24265                                    BADX
000791: 12,2124           24265                                    BADX
000792: 12,2125           51025                           DSU      BPL
000793: 12,2126           00013                                    XMAX
000794: 12,2127           24265                                    BADX
000795:


000797: 12,2130           57345        DXCOMP             DLOAD    DMPR
000798: 12,2131           02312                                    TAU.
000799: 12,2132           11506                                    BEE22
000800: 12,2133           77646                           ABS
000801: 12,2134           15350                           STODL    EPSILONT
000802: 12,2135           01551                                    TC
000803: 12,2136           45254                           BZE      DSU
000804: 12,2137           24141                                    NEWTC
000805: 12,2140           01346                                    TMODULO
000806: 12,2141           15551        NEWTC              STODL    TC
000807: 12,2142           01553                                    XPREV
000808: 12,2143           45254                           BZE      DSU
000809: 12,2144           24146                                    XDIFF
000810: 12,2145           01344                                    XMODULO
000811: 12,2146           77621        XDIFF              BDSU
000812: 12,2147           00025                                    X
000813: 12,2150           02643                           STORE    DELX
000814:
000815:
000816: 12,2151           63545        KEPLOOP            DLOAD    DSQ
000817: 12,2152           00025                                    X                                     #  X=XKEP
000818: 12,2153           41501                           NORM     PUSH                                  #  0D=XSQ (+34 OR +32 -N1)      PL AT 2
000819: 12,2154           00047                                    X1
000820: 12,2155           53605                           DMP      SRR*
000821: 12,2156           00011                                    ALPHA
000822: 12,2157           21573                                    0          -6,1
000823: 12,2160           34031                           STCALL   XI                                    #  XI=ALPHA XSQ (+6)
000824: 12,2161           24426                                    DELTIME
000825: 12,2162           44200                           BOV      BDSU
000826: 12,2163           24312                                    TIMEOVFL                              #  UNLIKELY
000827: 12,2164           02312                                    TAU.
000828: 12,2165           02645                           STORE    DELT                                  #  DELT=DELINDEP
000829: 12,2166           44246                           ABS      BDSU
000830: 12,2167           01350                                    EPSILONT
000831: 12,2170           71244                           BPL      DLOAD
000832: 12,2171           24334                                    KEPCONVG
000833: 12,2172           00037                                    T
000834: 12,2173           60225                           DSU      NORM
000835: 12,2174           01551                                    TC
000836: 12,2175           00047                                    X1
000837: 12,2176           60325                           PDDL     NORM
000838: 12,2177           02643                                    DELX
000839: 12,2200           00050                                    X2
000840: 12,2201           41260                           XSU,1    DMP
000841: 12,2202           00047                                    X2
000842: 12,2203           02645                                    DELT
000843: 12,2204           56257                           SLR*     DDV
000844: 12,2205           21202                                    1,1
000845: 12,2206           41542                           SR1      PUSH                                  #  0D=TRIAL DELX                PL AT 2
000846: 12,2207           71244                           BPL      DLOAD


000848: 12,2210           24231                                    POSDELX
000849: 12,2211           00025                                    X
000850: 12,2212           00013                           STORE    XMAX                                  #  MOVE MAX BOUND IN
000851: 12,2213           45221                           BDSU     DSU                                   #                               PL AT 0
000852: 12,2214           00015                                    XMIN
000853: 12,2215           51000                           BOV      BPL
000854: 12,2216           24223                                    NDXCHNGE
000855: 12,2217           24223                                    NDXCHNGE
000856: 12,2220           52145                           DLOAD    GOTO
000857: 12,2221           00001                                    0D
000858: 12,2222           24243                                    NEWDELX
000859:
000860:
000861: 12,2223           45345        NDXCHNGE           DLOAD    DSU
000862: 12,2224           00015                                    XMIN
000863: 12,2225           00025                                    X
000864: 12,2226           52075                           DMPR     GOTO                                  #  TO FORCE MPAC +2 TO ZERO
000865: 12,2227           11511                                    DP9/10
000866: 12,2230           24243                                    NEWDELX
000867:
000868:
000869: 12,2231           77745        POSDELX            DLOAD
000870: 12,2232           00025                                    X
000871: 12,2233           00015                           STORE    XMIN                                  #  MOVE MIN BOUND IN
000872: 12,2234           45221                           BDSU     DSU                                   #                               PL AT 0
000873: 12,2235           00013                                    XMAX
000874: 12,2236           50000                           BOV      BMN
000875: 12,2237           24257                                    PDXCHNGE
000876: 12,2240           24257                                    PDXCHNGE
000877: 12,2241           77745                           DLOAD
000878: 12,2242           00001                                    0D
000879: 12,2243           02643        NEWDELX            STORE    DELX
000880: 12,2244           43254                           BZE      DAD
000881: 12,2245           24334                                    KEPCONVG
000882: 12,2246           00025                                    X
000883: 12,2247           14025                           STODL    X
000884: 12,2250           00037                                    T
000885: 12,2251           01551                           STORE    TC
000886: 12,2252           46034        BRNCHCTR           RTB      BHIZ
000887: 12,2253           24651                                    CHECKCTR
000888: 12,2254           24334                                    KEPCONVG
000889: 12,2255           77650                           GOTO
000890: 12,2256           24151                                    KEPLOOP                               #  ITERATE
000891:
000892:
000893: 12,2257           45345        PDXCHNGE           DLOAD    DSU
000894: 12,2260           00013                                    XMAX
000895: 12,2261           00025                                    X
000896: 12,2262           52075                           DMPR     GOTO                                  #  TO FORCE MPAC +2 TO ZERO
000897: 12,2263           11511                                    DP9/10


000899: 12,2264           24243                                    NEWDELX
000900:
000901:
000902: 12,2265           70545        BADX               DLOAD    SR1                                   #  RECIPE EXCEEDED X BOUNDS - USE XMAX/2
000903: 12,2266           00013                                    XMAX
000904: 12,2267           00025                           STORE    X
000905: 12,2270           77650                           GOTO
000906: 12,2271           24130                                    DXCOMP
000907:
000908:
000909: 12,2272           14015        BACKWARD           STODL    XMIN
000910: 12,2273           11453                                    KEPZERO
000911: 12,2274           14013                           STODL    XMAX
000912: 12,2275           02306                                    XKEPNEW
000913: 12,2276           00025                           STORE    X
000914: 12,2277           51054                           BZE      BPL
000915: 12,2300           24305                                    BADBKWDX
000916: 12,2301           24305                                    BADBKWDX
000917: 12,2302           51025                           DSU      BPL
000918: 12,2303           00015                                    XMIN
000919: 12,2304           24130                                    DXCOMP
000920: 12,2305           70545        BADBKWDX           DLOAD    SR1
000921: 12,2306           00015                                    XMIN
000922: 12,2307           00025                           STORE    X
000923: 12,2310           77650                           GOTO
000924: 12,2311           24130                                    DXCOMP
000925:
000926:
000927: 12,2312           50145        TIMEOVFL           DLOAD    BMN                                   #  X WAS TOO BIG
000928: 12,2313           00025                                    X
000929: 12,2314           24331                                    NEGTOVFL
000930: 12,2315           00013                           STORE    XMAX
000931: 12,2316           70545        CMNTOVFL           DLOAD    SR1
000932: 12,2317           02643                                    DELX
000933: 12,2320           02643                           STORE    DELX
000934: 12,2321           44254                           BZE      BDSU
000935: 12,2322           02270                                    KEPRTN
000936: 12,2323           00025                                    X
000937: 12,2324           14025                           STODL    X
000938: 12,2325           01551                                    TC
000939: 12,2326           00037                           STORE    T
000940: 12,2327           77650                           GOTO
000941: 12,2330           24252                                    BRNCHCTR
000942: 12,2331           00015        NEGTOVFL           STORE    XMIN
000943: 12,2332           77650                           GOTO
000944: 12,2333           24316                                    CMNTOVFL
000945: 12,2334           44545        KEPCONVG           DLOAD    SR4R
000946: 12,2335           00041                                    R1
000947: 12,2336           74225                           DSU      VXSC
000948: 12,2337           00035                                    XSQC(XI)


000950: 12,2340           02647                                    URRECT
000951: 12,2341           65372                           VSL1     PDDL                                  #  0D=(R1-XSQC(XI))URRECT (+33 OR +31)
000952: 12,2342           00025                                    X
000953: 12,2343           60316                           DSQ      NORM
000954: 12,2344           00047                                    X1
000955: 12,2345           57275                           DMPR     DMPR
000956: 12,2346           00023                                    1/ROOTMU
000957: 12,2347           00025                                    X
000958: 12,2350           53605                           DMP      SRR*
000959: 12,2351           00033                                    S(XI)
000960: 12,2352           21572                                    0          -7,1
000961: 12,2353           77621                           BDSU
000962: 12,2354           00037                                    T
000963: 12,2355           74352                           SL1      VXSC
000964: 12,2356           01511                                    VRECT
000965: 12,2357           53372                           VSL1     VAD                                   #                               PL AT 0
000966: 12,2360           77712                           VSL4
000967: 12,2361           01535                           STORE    RCV                                   #  RCV (+29 OR +27)
000968:
000969:
000970: 12,2362           60246                           ABVAL    NORM
000971: 12,2363           00050                                    X2
000972: 12,2364           16655                           STODL    RCNORM
000973: 12,2365           00031                                    XI
000974: 12,2366           45275                           DMPR     DSU
000975: 12,2367           00033                                    S(XI)
000976: 12,2370           11473                                    D1/128
000977: 12,2371           76405                           DMP      SL1R
000978: 12,2372           00021                                    ROOTMU
000979: 12,2373           53605                           DMP      SLR*
000980: 12,2374           00025                                    X
000981: 12,2375           56601                                    0          -3,2
000982: 12,2376           74271                           DDV      VXSC
000983: 12,2377           02655                                    RCNORM
000984: 12,2400           02647                                    URRECT
000985: 12,2401           65372                           VSL1     PDDL                                  #  0D=URRECT(XI S(XI)-1)X ROOTMU/RCV (+15
000986: 12,2402           00035                                    XSQC(XI)                              #  OR +13)                        PL AT 6
000987: 12,2403           56257                           SLR*     DDV
000988: 12,2404           56602                                    0          -4,2
000989: 12,2405           02655                                    RCNORM
000990: 12,2406           74221                           BDSU     VXSC
000991: 12,2407           11507                                    D1/256
000992: 12,2410           01511                                    VRECT
000993: 12,2411           42455                           VAD      VSL8                                  #                               PL AT 0
000994: 12,2412           77626                           STADR
000995: 12,2413           62234                           STODL    VCV                                   #  VCV (+7 OR +5)
000996: 12,2414           00037                                    T
000997: 12,2415           77615                           DAD
000998: 12,2416           01346                                    TMODULO
000999: 12,2417           15551                           STODL    TC


001001: 12,2420           00025                                    X
001002: 12,2421           77615                           DAD
001003: 12,2422           01344                                    XMODULO
001004: 12,2423           01553                           STORE    XPREV
001005: 12,2424           77650                           GOTO
001006: 12,2425           02270                                    KEPRTN
001007:


001009: 12,2426           77776        DELTIME            EXIT                                           #  MPAC=XI (+6), 0D=XSQ (+34 OR +32 -N1)
001010: 12,2427           07171                           TC       POLY
001011: 12,2430           00010                           DEC      8          B-14
001012: 12,2431           02525 12526                     2DEC     .083333334
001013: 12,2433           67356 75666                     2DEC     -.266666684
001014: 12,2435           15001 23771                     2DEC     .406349155
001015: 12,2437           64342 43674                     2DEC     -.361198675
001016: 12,2441           06563 04645                     2DEC     .210153242
001017: 12,2443           75173 52672                     2DEC     -.086221951
001018: 12,2445           00656 14331                     2DEC     .026268812
001019: 12,2447           77633 40512                     2DEC     -.006163316
001020: 12,2451           00023 11210                     2DEC     .001177342
001021: 12,2453           77774 67506                     2DEC     -.000199055
001022: 12,2455           06006                           TC       INTPRET
001023: 12,2456           14033                           STODL    S(XI)
001024: 12,2457           00031                                    XI
001025: 12,2460           77776                           EXIT
001026: 12,2461           07171                           TC       POLY
001027: 12,2462           00010                           DEC      8          B-14
001028: 12,2463           01000 00000                     2DEC     .031250001
001029: 12,2465           72525 52506                     2DEC     -.166666719
001030: 12,2467           13301 15337                     2DEC     .355555413
001031: 12,2471           62776 54733                     2DEC     -.406347410
001032: 12,2473           11176 13267                     2DEC     .288962094
001033: 12,2475           73410 51674                     2DEC     -.140117894
001034: 12,2477           01446 33641                     2DEC     .049247387
001035: 12,2501           77451 65233                     2DEC     -.013081923
001036: 12,2503           00055 37266                     2DEC     .002806389
001037: 12,2505           77767 52336                     2DEC     -.000529414
001038: 12,2507           06006                           TC       INTPRET


001040: 12,2510           53605                           DMP      SRR*                                  #                               PL AT 0
001041: 12,2511           00001                                    0D
001042: 12,2512           21574                                    0          -5,1
001043: 12,2513           00035                           STORE    XSQC(XI)                              #  XSQC(XI) (+33 OR +31)
001044: 12,2514           72405                           DMP      SL1
001045: 12,2515           00043                                    KEPC1
001046: 12,2516           65234                           RTB      PDDL                                  #  XCH WITH PL. 0D=C1 XSQ C(XI) (+49 OR +46
001047: 12,2517           45562                                    TPMODE                                #                               PL AT 0,3
001048: 12,2520           53605                           DMP      SRR*
001049: 12,2521           00033                                    S(XI)
001050: 12,2522           21574                                    0          -5,1
001051: 12,2523           72405                           DMP      SL1
001052: 12,2524           00045                                    KEPC2
001053: 12,2525           65234                           RTB      PDDL                                  #  3D=C2 XSQ S(XI) (+35 OR +33)  PL AT 6
001054: 12,2526           45562                                    TPMODE
001055: 12,2527           00041                                    R1
001056: 12,2530           76261                           SR       TAD                                   #                               PL AT 3
001057: 12,2531           20607                                    6
001058: 12,2532           41301                           NORM     DMP                                   #  TO PRESERVE SIGNIF.
001059: 12,2533           00047                                    X1
001060: 12,2534           00025                                    X
001061: 12,2535           76257                           SR*      TAD                                   #  X(C2 XSQ S(XI) +R1) (+49 OR +46) PL AT 0
001062: 12,2536           20576                                    0          -3,1
001063: 12,2537           57232                           SL4R     DMPR
001064: 12,2540           00023                                    1/ROOTMU
001065: 12,2541           00037                           STORE    T
001066: 12,2542           77616                           RVQ
001067:


001069: 12,2543           71214        ITERATOR           BONCLR   DLOAD
001070: 12,2544           00614                                    SLOPESW
001071: 12,2545           24613                                    FIRSTIME
001072: 12,2546           00037                                    DEP
001073: 12,2547           60225                           DSU      NORM
001074: 12,2550           02764                                    DEPREV
001075: 12,2551           00047                                    X1
001076: 12,2552           60325                           PDDL     NORM
001077: 12,2553           00015                                    DELINDEP
001078: 12,2554           00050                                    X2
001079: 12,2555           41260                           XSU,1    DMP
001080: 12,2556           00047                                    X2
001081: 12,2557           02762                                    DELDEP
001082: 12,2560           56257                           SLR*     DDV                                   #                               PL UP 2
001083: 12,2561           21202                                    1,1
001084: 12,2562           43142                           SR1      BOFF
001085: 12,2563           04351                                    ORDERSW
001086: 12,2564           24567                                    SGNCHECK
001087: 12,2565           75246                           ABS      SIGN                                  #  IN CASE 2ND DERIV. CHANGED SIGN, MUST
001088: 12,2566           02762                                    DELDEP                                #  DISREGARD IT TO FIND MIN.
001089:
001090: 12,2567           51006        SGNCHECK           PUSH     BPL                                   #  TRIAL DELINDEP               PL DOWN 2
001091: 12,2570           24625                                    POSDEL
001092: 12,2571           43145                           DLOAD    BON
001093: 12,2572           03775                                    INDEP
001094: 12,2573           04311                                    ORDERSW
001095: 12,2574           24576                                    MINCHECK
001096: 12,2575           00017                           STORE    MAX                                   #  IF NOT 2ND ORDER, CAN MOVE MAX BOUND IN.
001097:
001098: 12,2576           45221        MINCHECK           BDSU     DSU
001099: 12,2577           00011                                    MIN
001100: 12,2600           51000                           BOV      BPL
001101: 12,2601           24605                                    MODNGDEL
001102: 12,2602           24605                                    MODNGDEL
001103: 12,2603           77650                           GOTO
001104: 12,2604           24637                                    DELOK
001105:
001106:
001107: 12,2605           45345        MODNGDEL           DLOAD    DSU                                   #  TRIAL DELINDEP WOULD EXCEED MIN BOUND
001108: 12,2606           00011                                    MIN
001109: 12,2607           03775                                    INDEP
001110: 12,2610           52005                           DMP      GOTO
001111: 12,2611           11511                                    DP9/10
001112: 12,2612           24641                                    NEWDEL
001113:
001114:
001115: 12,2613           41345        FIRSTIME           DLOAD    DMP
001116: 12,2614           00011                                    MIN
001117: 12,2615           00051                                    TWEEKIT                               #  DLOAD TWEEKIT(40D) SENSITIVE TO CHANGE.
001118: 12,2616           41325                           PDDL     DMP                                   #  S2(41D) SHOULDNT CONTAIN HI ORDER ONES


001120: 12,2617           00017                                    MAX
001121: 12,2620           00051                                    TWEEKIT
001122: 12,2621           77625                           DSU
001123: 12,2622           52165                           SIGN     GOTO
001124: 12,2623           02762                                    DELDEP
001125: 12,2624           24567                                    SGNCHECK
001126:
001127:
001128: 12,2625           43145        POSDEL             DLOAD    BON
001129: 12,2626           03775                                    INDEP
001130: 12,2627           04311                                    ORDERSW
001131: 12,2630           24632                                    MAXCHECK
001132: 12,2631           00011                           STORE    MIN                                   #  IF NOT 2ND ORDER, CAN MOVE MIN BOUND IN.
001133:
001134: 12,2632           45221        MAXCHECK           BDSU     DSU
001135: 12,2633           00017                                    MAX
001136: 12,2634           50000                           BOV      BMN
001137: 12,2635           24643                                    MODPSDEL
001138: 12,2636           24643                                    MODPSDEL
001139: 12,2637           77745        DELOK              DLOAD
001140: 12,2640           00001                                    0D
001141: 12,2641           00015        NEWDEL             STORE    DELINDEP
001142: 12,2642           77616                           RVQ
001143:
001144:
001145: 12,2643           45345        MODPSDEL           DLOAD    DSU
001146: 12,2644           00017                                    MAX
001147: 12,2645           03775                                    INDEP
001148: 12,2646           52005                           DMP      GOTO
001149: 12,2647           11511                                    DP9/10
001150: 12,2650           24641                                    NEWDEL
001151:
001152:
001153: 12,2651           44712        CHECKCTR           CS       ONE
001154: 12,2652           50120                           INDEX    FIXLOC
001155: 12,2653           60026                           AD       ITERCTR
001156: 12,2654           50120                           INDEX    FIXLOC
001157: 12,2655           54026                           TS       ITERCTR
001158: 12,2656           54154                           TS       MPAC
001159: 12,2657           06030                           TC       DANZIG
001160:


001162: 12,2660           44545        NEWSTATE           DLOAD    SR4R
001163: 12,2661           00041                                    R1
001164: 12,2662           74225                           DSU      VXSC
001165: 12,2663           00035                                    XSQC(XI)
001166: 12,2664           02724                                    UR1
001167: 12,2665           65372                           VSL1     PDDL                                  #  0D=(R1-XSQC(XI))UR1 (+33 OR 31) PL AT 6
001168: 12,2666           00025                                    X
001169: 12,2667           60316                           DSQ      NORM
001170: 12,2670           00047                                    X1
001171: 12,2671           57275                           DMPR     DMPR
001172: 12,2672           00023                                    1/ROOTMU
001173: 12,2673           00025                                    X
001174: 12,2674           53605                           DMP      SRR*
001175: 12,2675           00033                                    S(XI)
001176: 12,2676           21572                                    0          -7,1
001177: 12,2677           77621                           BDSU
001178: 12,2700           00037                                    T
001179: 12,2701           74352                           SL1      VXSC
001180: 12,2702           02746                                    VVEC
001181: 12,2703           53372                           VSL1     VAD                                   #                               PL AT 0
001182: 12,2704           41512                           VSL4     PUSH
001183: 12,2705           77646                           ABVAL
001184: 12,2706           77701        LAMENTER           NORM
001185: 12,2707           00047                                    X1
001186: 12,2710           16722                           STODL    R2
001187: 12,2711           00031                                    XI
001188: 12,2712           45205                           DMP      DSU
001189: 12,2713           00033                                    S(XI)
001190: 12,2714           11473                                    D1/128
001191: 12,2715           76405                           DMP      SL1R
001192: 12,2716           00021                                    ROOTMU
001193: 12,2717           53605                           DMP      SLR*
001194: 12,2720           00025                                    X
001195: 12,2721           21176                                    0          -3,1
001196: 12,2722           74271                           DDV      VXSC
001197: 12,2723           02722                                    R2
001198: 12,2724           02724                                    UR1
001199: 12,2725           65372                           VSL1     PDDL                                  #  6D=V2VEC PART (+15 OR 13)       PL AT 12
001200: 12,2726           00035                                    XSQC(XI)
001201: 12,2727           56257                           SLR*     DDV
001202: 12,2730           21175                                    0          -4,1
001203: 12,2731           02722                                    R2
001204: 12,2732           77621                           BDSU
001205: 12,2733           11507                                    D1/256
001206: 12,2734           53361                           VXSC     VAD                                   #                               PL AT 6
001207: 12,2735           02746                                    VVEC
001208: 12,2736           43412                           VSL8     RVQ
001209:


001211: 04,2000                                           SETLOC   CONICS1
001212: 04,2000                                           BANK
001213:
001214: 04,3467                                           COUNT    04/CONIC
001215:                                                                                                  #  DO NOT DISTURB THE ORDER OF THESE CDS, OVERLAYS HAVE BEEN MADE.
001216: 04,3467           00000        BEE17              DEC      0          B-14                       #  KEEP WITH D1/8 2DEC 1.0B-17 (0000004000)
001217: 04,3470           04000 00000  D1/8               2DEC     1.0        B-3
001218: 04,3472           00200 00000  D1/128             2DEC     1.0        B-7
001219: 04,3474           00400 00000  D1/64              2DEC     1.0        B-6
001220: 04,3476           10000 00000  D1/4               2DEC     1.0        B-2
001221: 04,3500           02000 00000  D1/16              2DEC     1.0        B-4
001222: 04,3502           01000 00000  D1/32              2DEC     1.0        B-5
001223: 04,3504           00020 00000  D1/1024            2DEC     1.0        B-10
001224: 04,3506           00100 00000  D1/256             2DEC     1.0        B-8
001225: 04,3510           34631 23146  DP9/10             2DEC     .9
001226: 04,3512  04,3452               KEPZERO            EQUALS   LO6ZEROS
001227: 04,3512           77467 77777  -50SC              2DEC     -50.0      B-12
001228: 04,3514           03110 17665  2PISC              2DEC     6.28318530 B-6
001229: 04,3516  04,3501               BEE19              EQUALS   D1/32      -1                         #  2DEC 1.0 B-19 (00000 01000)
001230: 04,3516  04,3505               BEE22              EQUALS   D1/256     -1                         #  2DEC 1.0 B-22 (00000 00100)
001231: 04,3516           00000 00001  ONEBIT             2DEC     1.0        B-28
001232: 04,3520           37767 37737  COGUPLIM           2DEC     .999511597
001233: 04,3522           40010 40040  COGLOLIM           2DEC     -.999511597
001234:


001236: 12,2000                                           SETLOC   CONICS
001237: 12,2000                                           BANK
001238:
001239: 12,2737                                           COUNT    12/CONIC
001240:
001241: 12,2737           40220        TIMETHET           STQ      SETPD                                 #                               PL AT 0
001242: 12,2740           02712                                    RTNTT
001243: 12,2741           00001                                    0
001244: 12,2742           63375                           VLOAD    PDVL                                  #  SETUP FOR PARAM CALL         PL AT 6
001245: 12,2743           02657                                    RVEC
001246: 12,2744           02746                                    VVEC
001247: 12,2745           77624                           CALL
001248: 12,2746           11524                                    PARAM
001249: 12,2747           45000                           BOV      CALL
001250: 12,2750           24767                                    COGAOVFL                              #                               PL AT 0
001251: 12,2751           24772                                    GETX
001252: 12,2752           43145        COMMNOUT           DLOAD    BON
001253: 12,2753           00031                                    XI
001254: 12,2754           04310                                    INFINFLG
001255: 12,2755           02712                                    RTNTT
001256: 12,2756           45014                           CLEAR    CALL
001257: 12,2757           04273                                    COGAFLAG
001258: 12,2760           24426                                    DELTIME
001259: 12,2761           45014                           BON      CALL
001260: 12,2762           03706                                    RVSW
001261: 12,2763           02712                                    RTNTT
001262: 12,2764           24660                                    NEWSTATE
001263: 12,2765           77650                           GOTO
001264: 12,2766           02712                                    RTNTT
001265:
001266:
001267: 12,2767           77614        COGAOVFL           SETGO
001268: 12,2770           04033                                    COGAFLAG
001269: 12,2771           02712                                    RTNTT
001270:


001272: 04,3524                                           BANK     4
001273: 04,2000                                           SETLOC   CONICS1
001274: 04,2000                                           BANK
001275: 04,3524                                           COUNT*   $$/CONIC
001276: 04,3524           43020        PARAM              STQ      CLEAR                                 #  MPAC=V1VEC, 0D=R1VEC         PL AT 6
001277: 04,3525           02755                                    RTNPRM
001278: 04,3526           03665                                    NORMSW
001279: 04,3527           77614                           CLEAR
001280: 04,3530           04273                                    COGAFLAG
001281: 04,3531           45131                           SSP      CALL
001282: 04,3532           02675                                    GEOMSGN
001283: 04,3533           27777                                    37777                                 #  GAMMA ALWAYS LESS THAN 180DEG
001284: 04,3534           11570                                    GEOM                                  #  MPAC=SNGA (+1), 0D=CSGA (+1) PL AT 2
001285: 04,3535           14045                           STODL    36D                                   #  36D=SIN GAMMA (+1)           PL AT 0
001286: 04,3536           56261                           SR       DDV
001287: 04,3537           20606                                    5
001288:
001289: 04,3540           00045                                    36D
001290: 04,3541           33775                           STOVL*   COGA
001291: 04,3542           11626                                    MUTABLE,1
001292: 04,3543           14017                           STODL    1/MU
001293: 04,3544           02722                                    MAGVEC2
001294: 04,3545           60316                           DSQ      NORM
001295: 04,3546           00047                                    X1
001296: 04,3547           41275                           DMPR     DMP
001297: 04,3550           00017                                    1/MU
001298: 04,3551           00041                                    R1
001299: 04,3552           77657                           SRR*
001300: 04,3553           21576                                    0          -3,1
001301: 04,3554           44206                           PUSH     BDSU                                  #  0D=R1 V1SQ/MU (+6)           PL AT 2
001302: 04,3555           11503                                    D1/32
001303: 04,3556           16744                           STODL    R1A                                   #  R1A (+6)                     PL AT 0
001304:
001305: 04,3557           60205                           DMP      NORM
001306: 04,3560           00045                                    36D
001307: 04,3561           00047                                    X1
001308: 04,3562           53605                           DMP      SR*
001309: 04,3563           00045                                    36D
001310: 04,3564           20575                                    0          -4,1
001311: 04,3565           02742                           STORE    P                                     #  P (+4)
001312: 04,3566           77650                           GOTO
001313: 04,3567           02755                                    RTNPRM
001314:


001316: 04,3570           77656        GEOM               UNIT                                           #  MPAC=V2VEC, 0D=R1VEC         PL AT 6
001317: 04,3571           16714                           STODL    U2                                    #  U2 (+1)
001318: 04,3572           00045                                    36D
001319: 04,3573           26722                           STOVL    MAGVEC2                               #                               PL AT 0
001320: 04,3574           77656                           UNIT
001321: 04,3575           02724                           STORE    UR1                                   #  UR1 (+1)
001322: 04,3576           72441                           DOT      SL1
001323: 04,3577           02714                                    U2
001324: 04,3600           77725                           PDDL                                           #  OD=CSTH (+1)                 PL AT 2
001325: 04,3601           00045                                    36D
001326: 04,3602           24041                           STOVL    R1                                    #  R1 (+29 OR +27)
001327: 04,3603           02724                                    UR1
001328: 04,3604           76435                           VXV      VSL1
001329: 04,3605           02714                                    U2
001330: 04,3606           75214                           BON      SIGN
001331: 04,3607           03705                                    NORMSW
001332: 04,3610           11622                                    HAVENORM
001333: 04,3611           02675                                    GEOMSGN
001334: 04,3612           40056                           UNIT     BOV
001335: 04,3613           11620                                    COLINEAR
001336: 04,3614           16676        UNITNORM           STODL    UN                                    #  UN (+1)
001337: 04,3615           00045                                    36D
001338: 04,3616           43565                           SIGN     RVQ                                   #  MPAC=SNTH (+1), 34D=SNTH.SNTH (+2)
001339: 04,3617           02675                                    GEOMSGN
001340:
001341:
001342: 04,3620           52162        COLINEAR           VSR1     GOTO
001343: 04,3621           11614                                    UNITNORM
001344:
001345:
001346: 04,3622           75246        HAVENORM           ABVAL    SIGN
001347: 04,3623           02675                                    GEOMSGN
001348: 04,3624           77616                           RVQ                                            #  MPAC=SNTH (+1), 34D=SNTH.SNTH (+2)
001349:


001351: 12,2772                                           BANK     12
001352: 12,2000                                           SETLOC   CONICS
001353: 12,2000                                           BANK
001354:
001355: 12,2772                                           COUNT    12/CONIC
001356:
001357: 12,2772           66374        GETX               AXT,2    SSP                                   #  ASSUMES P (+4) IN MPAC
001358: 12,2773           00003                                    3
001359: 12,2774           00052                                    S2
001360: 12,2775           00001                                    1
001361: 12,2776           77614                           CLEAR
001362: 12,2777           04276                                    360SW
001363: 12,3000           65366                           SQRT     PDDL                                  #  0D=SQRT(P)                       PL AT 2
001364: 12,3001           02734                                    CSTH
001365: 12,3002           44342                           SR1      BDSU
001366: 12,3003           11477                                    D1/4
001367: 12,3004           54325                           PDDL     SRR                                   #                               PL AT 4D
001368: 12,3005           02732                                    SNTH
001369: 12,3006           21607                                    6
001370: 12,3007           77671                           DDV                                            #                               PL AT 2
001371: 12,3010           77600                           BOV
001372: 12,3011           25125                                    360CHECK
001373: 12,3012           41225                           DSU      DMP
001374: 12,3013           03775                                    COGA                                  #                                   PL AT 0
001375: 12,3014           40132                           SL2R     BOV
001376: 12,3015           25125                                    360CHECK
001377: 12,3016           63406        WLOOP              PUSH     DSQ                                   #  0D=W (+5)                        PL AT 2
001378: 12,3017           65351                           TLOAD    PDDL                                  #  2D=WSQ (+10)                     PL AT 5
001379: 12,3020           00155                                    MPAC
001380: 12,3021           02744                                    R1A
001381: 12,3022           76202                           SR4      TAD                                   #                               PL AT 2
001382: 12,3023           75440                           BMN      SQRT
001383: 12,3024           25210                                    INFINITY
001384: 12,3025           43306                           ROUND    DAD                                   #                               PL AT 0D
001385: 12,3026           61000                           BOV      TIX,2
001386: 12,3027           25123                                    RESETX2
001387: 12,3030           25016                                    WLOOP
001388:
001389:
001390: 12,3031           40065                           BDDV     BOV
001391: 12,3032           11473                                    D1/128
001392: 12,3033           25210                                    INFINITY
001393: 12,3034           41440        POLYCOEF           BMN      PUSH                                  #  0D=1/W (+2) OR 16/W (+6)     PL AT 2
001394: 12,3035           25210                                    INFINITY
001395: 12,3036           77716                           DSQ
001396: 12,3037           41301                           NORM     DMP
001397: 12,3040           00047                                    X1
001398: 12,3041           02744                                    R1A
001399: 12,3042           77457                           SRR*     EXIT
001400: 12,3043           21567                                    0          -10D,1


001402: 12,3044           07171                           TC       POLY
001403: 12,3045           00005                           DEC      5          B-14
001404: 12,3046           20000 00000                     2DEC     .5
001405: 12,3050           72525 52471                     2DEC     -.166666770
001406: 12,3052           03146 15003                     2DEC     .100000392
001407: 12,3054           75556 45210                     2DEC     -.071401086
001408: 12,3056           01615 13553                     2DEC     .055503292
001409: 12,3060           76371 63777                     2DEC     -.047264098
001410: 12,3062           01232 27367                     2DEC     .040694204
001411: 12,3064           06006                           TC       INTPRET
001412: 12,3065           76405                           DMP      SL1R                                  #                               PL AT 0D
001413: 12,3066           43006                           PUSH     BON
001414: 12,3067           04316                                    360SW
001415: 12,3070           25175                                    TRUE360X
001416: 12,3071           60316        XCOMMON            DSQ      NORM
001417: 12,3072           00047                                    X1
001418: 12,3073           53605                           DMP      SRR*
001419: 12,3074           02744                                    R1A
001420: 12,3075           21565                                    0          -12D,1
001421: 12,3076           14031                           STODL    XI                                    #  XI (+6)
001422:
001423:
001424: 12,3077           00041                                    R1
001425: 12,3100           75542                           SR1      SQRT
001426: 12,3101           41306                           ROUND    DMP
001427: 12,3102           77632                           SL4R                                           #                               PL AT 0
001428: 12,3103           00025                           STORE    X                                     #  X (+17 OR +16)
001429:
001430:
001431: 12,3104           60316                           DSQ      NORM
001432: 12,3105           00047                                    X1
001433: 12,3106           41325                           PDDL     DMP                                   #  0D=XSQ (+34 OR +32 -N1)      PL AT 2
001434: 12,3107           02742                                    P
001435: 12,3110           00041                                    R1
001436: 12,3111           75452                           SL3      SQRT
001437: 12,3112           56405                           DMP      SL3R
001438: 12,3113           03775                                    COGA
001439: 12,3114           14043                           STODL    KEPC1
001440: 12,3115           02744                                    R1A
001441: 12,3116           43021                           BDSU     CLEAR
001442: 12,3117           11475                                    D1/64
001443: 12,3120           04270                                    INFINFLG
001444: 12,3121           00045                           STORE    KEPC2


001446: 12,3122           77616                           RVQ
001447:
001448:
001449: 12,3123           77774        RESETX2            AXT,2
001450: 12,3124           00003                                    3
001451:
001452:
001453: 12,3125           51001        360CHECK           SETPD    BPL
001454: 12,3126           00001                                    0D
001455: 12,3127           25132                                    INVRSEQN
001456: 12,3130           77614                           SET
001457: 12,3131           04076                                    360SW
001458:
001459:
001460: 12,3132           75545        INVRSEQN           DLOAD    SQRT
001461: 12,3133           02742                                    P
001462: 12,3134           41325                           PDDL     DMP                                   #  0D=SQRT(P)  (+2)                 PL AT 2
001463: 12,3135           02732                                    SNTH
001464: 12,3136           03775                                    COGA
001465: 12,3137           65352                           SL1      PDDL                                  #  2D=SNTH COGA (+5)                PL AT 4
001466: 12,3140           02734                                    CSTH
001467: 12,3141           43202                           SR4      DAD
001468: 12,3142           11503                                    D1/32
001469: 12,3143           41225                           DSU      DMP                                   #                               PL AT 2,0
001470: 12,3144           55301                           NORM     BDDV
001471: 12,3145           00047                                    X1
001472: 12,3146           02732                                    SNTH
001473: 12,3147           51457                           SLR*     ABS                                   #  NOTE: NEAR 360 CASE TREATED DIFFERENTLY
001474: 12,3150           21174                                    0          -5,1
001475: 12,3151           63406                           PUSH     DSQ                                   #  0D=1/W (-1)                  PL AT 2
001476: 12,3152           14043                           STODL    34D
001477: 12,3153           11501                                    D1/16
001478: 12,3154           63406        1/WLOOP            PUSH     DSQ                                   #  2D=G (+4)                        PL AT 4
001479: 12,3155           65234                           RTB      PDDL                                  #                               PL AT 7
001480: 12,3156           45562                                    TPMODE
001481: 12,3157           02744                                    R1A
001482: 12,3160           40405                           DMP      SR4
001483: 12,3161           00043                                    34D
001484: 12,3162           77771                           TAD                                            #                                   PL AT 4
001485: 12,3163           75440                           BMN      SQRT
001486: 12,3164           25210                                    INFINITY
001487: 12,3165           77615                           DAD                                            #                               PL AT 2
001488: 12,3166           60304                           TIX,2    NORM
001489: 12,3167           25154                                    1/WLOOP
001490: 12,3170           00047                                    X1
001491: 12,3171           77665                           BDDV
001492: 12,3172           52057                           SLR*     GOTO                                  #                                   PL AT 0
001493: 12,3173           21172                                    0          -7,1
001494: 12,3174           25034                                    POLYCOEF
001495:


001497: 12,3175           50145        TRUE360X           DLOAD    BMN
001498: 12,3176           02744                                    R1A
001499: 12,3177           25210                                    INFINITY
001500: 12,3200           60366                           SQRT     NORM
001501: 12,3201           00047                                    X1
001502: 12,3202           53665                           BDDV     SL*
001503: 12,3203           11515                                    2PISC
001504: 12,3204           20176                                    0          -3,1
001505: 12,3205           41425                           DSU      PUSH                                  #  0D=2PI/SQRT(R1A) -X          PL AT 0,2
001506: 12,3206           77650                           GOTO
001507: 12,3207           25071                                    XCOMMON
001508: 12,3210           40001        INFINITY           SETPD    BOV                                   #  NO SOLUTION EXISTS SINCE CLOSURE THROUGH
001509: 12,3211           00001                                    0                                     #  INFINITY IS REQUIRED
001510: 12,3212           25213                                    OVFLCLR
001511: 12,3213           43414        OVFLCLR            SET      RVQ
001512: 12,3214           04070                                    INFINFLG
001513:


001515: 12,3215           40220        LAMBERT            STQ      SETPD
001516: 12,3216           02712                                    RTNLAMB
001517: 12,3217           00001                                    0D
001518: 12,3220           76731                           SSP      VLOAD*
001519: 12,3221           00027                                    ITERCTR
001520: 12,3222           00024                                    20D
001521: 12,3223           11626                                    MUTABLE,1
001522: 12,3224           14017                           STODL    1/MU
001523: 12,3225           02673                                    TDESIRED
001524: 12,3226           77675                           DMPR
001525: 12,3227           11502                                    BEE19
001526: 12,3230           03777                           STORE    EPSILONL
001527: 12,3231           77214                           SET      VLOAD
001528: 12,3232           00474                                    SLOPESW
001529: 12,3233           02657                                    R1VEC
001530: 12,3234           45115                           PDVL     CALL                                  #  0D=R1VEC (+29 OR +27)        PL AT 6
001531: 12,3235           02665                                    R2VEC                                 #  MPAC=R2VEC (+29 OR +27)
001532: 12,3236           11570                                    GEOM
001533: 12,3237           16732                           STODL    SNTH                                  #  0D=CSTH (+1)                 PL AT 2
001534: 12,3240           02722                                    MAGVEC2
001535: 12,3241           65301                           NORM     PDDL                                  #                               PL AT 4
001536: 12,3242           00047                                    X1
001537: 12,3243           00041                                    R1
001538: 12,3244           56342                           SR1      DDV                                   #                               PL AT 2
001539: 12,3245           65257                           SL*      PDDL                                  #  DXCH WITH 0D, 0D=R1/R2 (+7)  PL AT 0,2
001540: 12,3246           20173                                    0          -6,1
001541: 12,3247           77626                           STADR
001542: 12,3250           75043                           STORE    CSTH                                  #  CSTH (+1)
001543: 12,3251           44342                           SR1      BDSU
001544: 12,3252           11477                                    D1/4
001545: 12,3253           02736                           STORE    1-CSTH                                #  1-CSTH (+2)
001546:
001547: 12,3254           53106                           ROUND    BZE
001548: 12,3255           25465                                    360LAMB
001549: 12,3256           65301                           NORM     PDDL                                  #                               PL AT 4
001550: 12,3257           00047                                    X1
001551: 12,3260           00001                                    0D
001552: 12,3261           56342                           SR1      DDV                                   #                               PL AT 2
001553: 12,3262           75457                           SL*      SQRT
001554: 12,3263           20176                                    0          -3,1
001555: 12,3264           54325                           PDDL     SR                                    #  2D=SQRT(2R1/R2(1-CSTH)) (+5) PL AT 4
001556: 12,3265           02732                                    SNTH
001557: 12,3266           20607                                    6
001558: 12,3267           43271                           DDV      DAD                                   #                               PL AT 2
001559: 12,3270           02736                                    1-CSTH
001560: 12,3271           77626                           STADR
001561: 12,3272           77760                           STORE    COGAMAX
001562: 12,3273           50000                           BOV      BMN                                   #  IF OVFL, COGAMAX=COGUPLIM
001563: 12,3274           25301                                    UPLIM                                 #  IF NEG, USE EVEN IF LT COGLOLIM, SINCE
001564: 12,3275           25304                                    MAXCOGA                               #    THIS WOULD BE RESET IN LAMBLOOP


001566: 12,3276           50025                           DSU      BMN                                   #  IF COGAMAX GT COGUPLIM, COGAMAX=COGUPLIM
001567: 12,3277           11521                                    COGUPLIM
001568: 12,3300           25304                                    MAXCOGA                               #  OTHERWISE OK, SO GO TO MAXCOGA
001569: 12,3301           77745        UPLIM              DLOAD
001570: 12,3302           11521                                    COGUPLIM                              #  COGUPLIM=.999511597 = MAX VALUE OF COGA
001571: 12,3303           00017                           STORE    COGAMAX                               #    NOT CAUSING OVFL IN R1A CALCULATION
001572: 12,3304           77745        MAXCOGA            DLOAD
001573: 12,3305           02734                                    CSTH
001574: 12,3306           45261                           SR       DSU                                   #                               PL AT 0
001575: 12,3307           20607                                    6
001576: 12,3310           77626                           STADR
001577: 12,3311           61037                           STODL    CSTH-RHO
001578: 12,3312           02675                                    GEOMSGN
001579: 12,3313           71240                           BMN      DLOAD
001580: 12,3314           25505                                    LOLIM
001581: 12,3315           02740                                    CSTH-RHO
001582: 12,3316           56352                           SL1      DDV
001583: 12,3317           02732                                    SNTH
001584: 12,3320           77600                           BOV
001585: 12,3321           25505                                    LOLIM
001586: 12,3322           00011        MINCOGA            STORE    COGAMIN                               #  COGAMIN (+5)
001587: 12,3323           66214                           BON      SSP
001588: 12,3324           00715                                    GUESSW
001589: 12,3325           25471                                    NOGUESS
001590: 12,3326           00051                                    TWEEKIT
001591: 12,3327           00001                                    00001
001592: 12,3330           77745                           DLOAD
001593: 12,3331           03775                                    COGA
001594:
001595:
001596: 12,3332           77605        LAMBLOOP           DMP
001597: 12,3333           02732                                    SNTH
001598: 12,3334           45342                           SR1      DSU
001599: 12,3335           02740                                    CSTH-RHO
001600: 12,3336           65301                           NORM     PDDL                                  #  0D=SNTH COGA-(CSTH-RHO) (+7+C(X1)) PL=2
001601: 12,3337           00047                                    X1
001602: 12,3340           02736                                    1-CSTH
001603: 12,3341           56257                           SL*      DDV                                   #  1-CSTH  (+2)                 PL AT 0
001604: 12,3342           20170                                    0          -9D,1
001605: 12,3343           53040                           BMN      BZE
001606: 12,3344           25421                                    NEGP
001607: 12,3345           25421                                    NEGP
001608: 12,3346           16742                           STODL    P                                     #  P=(1-CSTH)/(SNTH COGA-(CSTH-RHO)) (+4)
001609: 12,3347           03775                                    COGA
001610: 12,3350           43316                           DSQ      DAD
001611: 12,3351           11505                                    D1/1024
001612: 12,3352           41301                           NORM     DMP
001613: 12,3353           00047                                    X1
001614: 12,3354           02742                                    P
001615: 12,3355           44257                           SR*      BDSU


001617: 12,3356           20571                                    0          -8D,1
001618: 12,3357           11503                                    D1/32
001619: 12,3360           16744                           STODL    R1A                                   #  R1A=2-P(1+COGA COGA) (+6)
001620:
001621: 12,3361           02742                                    P
001622: 12,3362           45000                           BOV      CALL
001623: 12,3363           25424                                    HIENERGY
001624: 12,3364           24772                                    GETX
001625: 12,3365           77745                           DLOAD
001626: 12,3366           00037                                    T
001627: 12,3367           16764                           STODL    TPREV
001628: 12,3370           00031                                    XI
001629: 12,3371           45014                           BON      CALL
001630: 12,3372           04310                                    INFINFLG
001631: 12,3373           25421                                    NEGP                                  #  HAVE EXCEEDED THEORETICAL BOUNDS
001632: 12,3374           24426                                    DELTIME
001633: 12,3375           44200                           BOV      BDSU
001634: 12,3376           25441                                    BIGTIME
001635: 12,3377           02673                                    TDESIRED
001636: 12,3400           02762                           STORE    TERRLAMB
001637: 12,3401           44246                           ABS      BDSU
001638: 12,3402           03777                                    EPSILONL
001639: 12,3403           47044                           BPL      RTB
001640: 12,3404           25510                                    INITV
001641: 12,3405           24651                                    CHECKCTR
001642: 12,3406           45030                           BHIZ     CALL
001643: 12,3407           25452                                    SUFFCHEK
001644: 12,3410           24543                                    ITERATOR
001645: 12,3411           53145                           DLOAD    BZE
001646: 12,3412           00155                                    MPAC
001647: 12,3413           25452                                    SUFFCHEK
001648: 12,3414           77615                           DAD
001649: 12,3415           03775                                    COGA
001650: 12,3416           03775                           STORE    COGA
001651: 12,3417           77650                           GOTO
001652: 12,3420           25332                                    LAMBLOOP
001653:
001654:
001655: 12,3421           51145        NEGP               DLOAD    BPL                                   #  IMPOSSIBLE TRAJECTORY DUE TO INACCURATE
001656: 12,3422           00015                                    DCOGA                                 #  BOUND CALCULATION. TRY NEW COGA.
001657: 12,3423           25444                                    LOENERGY
001658:
001659:
001660: 12,3424           71201        HIENERGY           SETPD    DLOAD                                 #  HIGH ENERGY TRAJECTORY RESULTED
001661: 12,3425           00001                                    0
001662: 12,3426           03775                                    COGA                                  #  IN OVFL OF P OR R1A, OR XI EXCEEDING 50.
001663: 12,3427           00011                           STORE    COGAMIN                               #  THIS IS THE NEW BOUND.
001664: 12,3430           70545        COMMONLM           DLOAD    SR1
001665: 12,3431           00015                                    DCOGA
001666: 12,3432           00015                           STORE    DCOGA                                 #  USE DCOGA/2 AS DECREMENT


001668: 12,3433           44254                           BZE      BDSU
001669: 12,3434           25452                                    SUFFCHEK
001670: 12,3435           03775                                    COGA
001671: 12,3436           03775                           STORE    COGA
001672: 12,3437           77650                           GOTO                                           #  RESTART THIS LOOP
001673: 12,3440           25332                                    LAMBLOOP
001674:
001675:
001676: 12,3441           77745        BIGTIME            DLOAD
001677: 12,3442           02764                                    TPREV
001678: 12,3443           00037                           STORE    T
001679:
001680:
001681: 12,3444           71201        LOENERGY           SETPD    DLOAD                                 #  LOW ENERGY TRAJECTORY RESULTED
001682: 12,3445           00001                                    0
001683: 12,3446           03775                                    COGA                                  #  IN OVERFLOW OF TIME.
001684: 12,3447           00017                           STORE    COGAMAX                               #  THIS IS THE NEW BOUND.
001685: 12,3450           77650                           GOTO
001686: 12,3451           25430                                    COMMONLM
001687:
001688:
001689: 12,3452           51545        SUFFCHEK           DLOAD    ABS
001690: 12,3453           02762                                    TERRLAMB
001691: 12,3454           41325                           PDDL     DMP                                   #                               PL AT 2D
001692: 12,3455           02673                                    TDESIRED
001693: 12,3456           11477                                    D1/4
001694: 12,3457           45215                           DAD      DSU                                   #                               PL AT 0D
001695: 12,3460           11517                                    ONEBIT
001696: 12,3461           43044                           BPL      SETGO
001697: 12,3462           25510                                    INITV
001698: 12,3463           02434                                    SOLNSW
001699: 12,3464           02712                                    RTNLAMB
001700:
001701:
001702: 12,3465           43001        360LAMB            SETPD    SETGO                                 #  LAMBERT CANNOT HANDLE CSTH=1
001703: 12,3466           00001                                    0
001704: 12,3467           02434                                    SOLNSW
001705: 12,3470           02712                                    RTNLAMB
001706:
001707:
001708: 12,3471           71331        NOGUESS            SSP      DLOAD
001709: 12,3472           00051                                    TWEEKIT
001710: 12,3473           10000                                    20000
001711: 12,3474           00011                                    COGAMIN
001712: 12,3475           65342                           SR1      PDDL                                  #                               PL AT 2
001713: 12,3476           00017                                    COGAMAX
001714: 12,3477           43342                           SR1      DAD
001715: 12,3500           77626                           STADR                                          #                               PL AT 0
001716: 12,3501           74002                           STORE    COGA
001717: 12,3502           00015                           STORE    DCOGA


001719: 12,3503           77650                           GOTO
001720: 12,3504           25332                                    LAMBLOOP
001721:
001722:
001723: 12,3505           52145        LOLIM              DLOAD    GOTO
001724: 12,3506           11523                                    COGLOLIM                              #  COGLOLIM=-.999511597
001725: 12,3507           25322                                    MINCOGA
001726:
001727:
001728: 12,3510           60345        INITV              DLOAD    NORM
001729: 12,3511           00041                                    R1
001730: 12,3512           00047                                    X1
001731: 12,3513           70525                           PDDL     SR1                                   #                               PL AT 2
001732: 12,3514           02742                                    P
001733: 12,3515           77671                           DDV                                            #                               PL AT 0
001734: 12,3516           75457                           SL*      SQRT
001735: 12,3517           20175                                    0          -4,1
001736: 12,3520           72405                           DMP      SL1
001737: 12,3521           00021                                    ROOTMU
001738: 12,3522           41206                           PUSH     DMP                                   #  0D=VTAN (+7)                 PL AT 2
001739: 12,3523           03775                                    COGA
001740: 12,3524           74261                           SL       VXSC
001741: 12,3525           20206                                    5
001742: 12,3526           02724                                    UR1
001743: 12,3527           77725                           PDDL                                           #  XCH WITH 0D                  PL AT 0,6
001744: 12,3530           76561                           VXSC     VSL1
001745: 12,3531           02676                                    UN
001746: 12,3532           53235                           VXV      VAD                                   #                               PL AT 0
001747: 12,3533           02724                                    UR1
001748: 12,3534           43172                           VSL1     CLEAR
001749: 12,3535           02674                                    SOLNSW
001750: 12,3536           02746                           STORE    VVEC
001751: 12,3537           53135                           SLOAD    BZE
001752: 12,3540           02704                                    VTARGTAG
001753: 12,3541           25544                                    TARGETV
001754: 12,3542           77650                           GOTO
001755: 12,3543           02712                                    RTNLAMB
001756:
001757:
001758: 12,3544           45145        TARGETV            DLOAD    CALL
001759: 12,3545           02722                                    MAGVEC2
001760: 12,3546           24706                                    LAMENTER
001761: 12,3547           02705                           STORE    VTARGET
001762: 12,3550           77650                           GOTO
001763: 12,3551           02712                                    RTNLAMB
001764:


001766: 12,3552           40220        TIMERAD            STQ      SETPD                                 #                                  PL AT 0
001767: 12,3553           02712                                    RTNTR
001768: 12,3554           00001                                    0
001769: 12,3555           63375                           VLOAD    PDVL                                  #                                  PL AT 6
001770: 12,3556           02657                                    RVEC
001771: 12,3557           02746                                    VVEC
001772: 12,3560           77624                           CALL
001773: 12,3561           11524                                    PARAM
001774: 12,3562           71200                           BOV      DLOAD                                 #                                  PL AT 0
001775: 12,3563           24767                                    COGAOVFL
001776: 12,3564           11503                                    D1/32
001777: 12,3565           41225                           DSU      DMP
001778: 12,3566           02744                                    R1A
001779: 12,3567           02742                                    P
001780: 12,3570           41366                           SQRT     DMP
001781: 12,3571           03775                                    COGA
001782: 12,3572           74212                           SL4      VXSC
001783: 12,3573           02714                                    U2
001784: 12,3574           45325                           PDDL     DSU                                   #                                  PL AT 6
001785: 12,3575           11475                                    D1/64
001786: 12,3576           02744                                    R1A
001787: 12,3577           52361                           VXSC     VSU                                   #                                  PL AT 0
001788: 12,3600           02724                                    UR1
001789: 12,3601           53512                           VSL4     UNIT
001790: 12,3602           77600                           BOV
001791: 12,3603           25465                                    360LAMB                               #  NO SOLUTION SINCE CONIC IS A CIRCLE
001792: 12,3604           60325                           PDDL     NORM                                  #  0D=UNIT(ECC) (+3)               PL AT 6
001793: 12,3605           02760                                    RDESIRED                              #  36D=ECC (+3)
001794: 12,3606           00047                                    X1
001795: 12,3607           41325                           PDDL     DMP                                   #                               PL AT 8
001796: 12,3610           00041                                    R1
001797: 12,3611           02742                                    P
001798: 12,3612           56257                           SL*      DDV                                   #                               PL AT 6
001799: 12,3613           20201                                    0,1
001800: 12,3614           56225                           DSU      DDV
001801: 12,3615           11501                                    D1/16
001802: 12,3616           00045                                    36D                                   #  36D=ECC (+3)
001803: 12,3617           00031                           STORE    COSF
001804: 12,3620           63400                           BOV      DSQ
001805: 12,3621           25661                                    BADR2
001806: 12,3622           50021                           BDSU     BMN
001807: 12,3623           11477                                    D1/4
001808: 12,3624           25661                                    BADR2
001809: 12,3625           75366                           SQRT     SIGN
001810: 12,3626           02757                                    SGNRDOT
001811: 12,3627           77614                           CLEAR
001812: 12,3630           04272                                    APSESW
001813:
001814: 12,3631           76561        TERMNVEC           VXSC     VSL1
001815: 12,3632           02676                                    UN


001817: 12,3633           63235                           VXV      PDVL                                  #  VXCH WITH 0D                 PL AT 0,6
001818: 12,3634           00001                                    0D
001819: 12,3635           53361                           VXSC     VAD                                   #                               PL AT 0
001820: 12,3636           00031                                    COSF
001821: 12,3637           41572                           VSL1     PUSH                                  #  0D=U2                        PL AT 6
001822:
001823: 12,3640           56241                           DOT      DDV                                   #  LIMITS RESULT TO POSMAX OR NEGMAX
001824: 12,3641           02724                                    UR1
001825: 12,3642           23701                                    DP1/4
001826: 12,3643           40142                           SR1      BOV                                   #  SCALE BACK DOWN TO NORMAL
001827: 12,3644           25645                                    +1                                    #  CLEAR OVFIND IF SET
001828: 12,3645           26734                           STOVL    CSTH                                  #  CSTH (+1)
001829: 12,3646           02724                                    UR1
001830: 12,3647           76435                           VXV      VSL1
001831: 12,3650           72441                           DOT      SL1
001832: 12,3651           02676                                    UN
001833: 12,3652           16732                           STODL    SNTH                                  #  SNTH (+1)
001834: 12,3653           02742                                    P
001835: 12,3654           77624                           CALL
001836: 12,3655           24772                                    GETX
001837: 12,3656           77614                           CLRGO
001838: 12,3657           02634                                    SOLNSW
001839: 12,3660           24752                                    COMMNOUT
001840:
001841:
001842: 12,3661           75345        BADR2              DLOAD    SIGN
001843: 12,3662           11451                                    LODPHALF
001844: 12,3663           00031                                    COSF
001845: 12,3664           14031                           STODL    COSF
001846: 12,3665           11453                                    KEPZERO
001847: 12,3666           77614                           SETGO
001848: 12,3667           04032                                    APSESW
001849: 12,3670           25631                                    TERMNVEC
001850: 12,3671           40220        APSIDES            STQ      SETPD                                 #                                 PL AT  0
001851: 12,3672           02712                                    RTNAPSE
001852: 12,3673           00001                                    0D
001853: 12,3674           63375                           VLOAD    PDVL                                  #                                 PL AT  6
001854: 12,3675           02657                                    RVEC
001855: 12,3676           02746                                    VVEC
001856: 12,3677           77624                           CALL
001857: 12,3700           11524                                    PARAM
001858: 12,3701           77600                           BOV                                            #                                 PL AT  0
001859: 12,3702           25703                                    GETECC
001860: 12,3703           42405        GETECC             DMP      SL4
001861: 12,3704           02744                                    R1A
001862: 12,3705           75421                           BDSU     SQRT
001863: 12,3706           11475                                    D1/64
001864: 12,3707           02754                           STORE    ECC
001865: 12,3710           65215                           DAD      PDDL                                  #                                 PL AT  2
001866: 12,3711           11471                                    D1/8


001868: 12,3712           00041                                    R1
001869: 12,3713           72405                           DMP      SL1
001870: 12,3714           02742                                    P
001871: 12,3715           77671                           DDV                                            #                                 PL AT  0
001872: 12,3716           60325                           PDDL     NORM                                  #  0D=RP (+29 OR +27)             PL AT  2
001873: 12,3717           02744                                    R1A
001874: 12,3720           00047                                    X1
001875: 12,3721           53725                           PDDL     SL*                                   #                                 PL AT  4
001876: 12,3722           00041                                    R1
001877: 12,3723           20174                                    0          -5,1
001878: 12,3724           45271                           DDV      DSU                                   #                                 PL AT 2,0
001879: 12,3725           50000                           BOV      BMN
001880: 12,3726           25732                                    INFINAPO
001881: 12,3727           25732                                    INFINAPO
001882: 12,3730           77650                           GOTO
001883: 12,3731           02712                                    RTNAPSE
001884: 12,3732           52145        INFINAPO           DLOAD    GOTO                                  #  RETURNS WITH APOAPSIS IN MPAC, PERIAPSIS
001885: 12,3733           11464                                    LDPOSMAX
001886: 12,3734           02712                                    RTNAPSE                               #  THAT PL IS AT 0.
001887:


001889: 04,2000                                           SETLOC   CONICS1
001890: 04,2000                                           BANK
001891:
001892: 04,3625                                           COUNT    04/CONIC
001893:
001894: 04,3625           22437 16067  MUTABLE            2DEC*    3.986032   E10        B-36*           #  MUE
001895: 04,3627           15625 21042                     2DEC*    .25087606  E-10       B+34*           #  1/MUE
001896: 04,3631           30276 04773                     2DEC*    1.99650495 E5         B-18*           #  SQRT(MUE)
001897: 04,3633           25004 06702                     2DEC*    .50087529  E-5        B+17*           #  1/SQRT(MUE)
001898:
001899: 04,3635           16471 01352                     2DEC     4.902778   E8         B-30            #  MUM
001900: 04,3637           21412 20500                     2DEC     .203966    E-8        B+28            #  1/MUM
001901: 04,3641           25477 03367                     2DEC*    2.21422176 E4         B-15*           #  SQRT(MUM)
001902: 04,3643           27533 07571                     2DEC*    .45162595  E-4        B+14*           #  1/SQRT(MUM)
001903:
001904:
001905: 04,3645  04,3463               LDPOSMAX           EQUALS   LODPMAX                               #  DPPOSMAX IN LOW MEMORY.
001906:
001907:                                                                                                  #  ERASABLE ASSIGNMENTS
001908:
001909:
001910:                                                                                                  #  KEPLER SUBROUTINE
001911:
001912:                                                                                                  #     INPUT -
001913:                                                                                                  #  RRECT    ERASE  +5
001914:                                                                                                  #  VRECT    ERASE  +5
001915:                                                                                                  #  TAU.     ERASE  +1
001916:                                                                                                  #  XKEP     ERASE  +1
001917:                                                                                                  #  TC       ERASE  +1
001918:                                                                                                  #  XPREV    ERASE  +1
001919: 04,3645                        1/MU               EQUALS   14D
001920: 04,3645                        ROOTMU             EQUALS   16D
001921: 04,3645                        1/ROOTMU           EQUALS   18D
001922:                                                                                                  #     OUTPUT -
001923:                                                                                                  #  RCV      ERASE  +5
001924:                                                                                                  #  VCV      ERASE  +5
001925:                                                                                                  #  RC       ERASE  +1
001926:                                                                                                  #  XPREV    ERASE  +1
001927:
001928:                                                                                                  #     DEBRIS -
001929: 04,3645                        ALPHA              EQUALS   8D
001930: 04,3645                        XMAX               EQUALS   10D


001932: 04,3645                        XMIN               EQUALS   12D
001933: 04,3645                        X                  EQUALS   20D
001934: 04,3645                        XI                 EQUALS   24D
001935: 04,3645                        S(XI)              EQUALS   26D
001936: 04,3645                        XSQC(XI)           EQUALS   28D
001937: 04,3645                        T                  EQUALS   30D
001938: 04,3645                        R1                 EQUALS   32D
001939: 04,3645                        KEPC1              EQUALS   34D
001940: 04,3645                        KEPC2              EQUALS   36D
001941:                                                                                                  #  DELX     ERASE  +1
001942:                                                                                                  #  DELT     ERASE  +1
001943:                                                                                                  #  URRECT   ERASE  +5
001944:                                                                                                  #  RCNORM   ERASE  +1
001945:                                                                                                  #  XPREV    EQUALS XKEP
001946:
001947:
001948:                                                                                                  #  LAMBERT SUBROUTINE
001949:
001950:                                                                                                  #     INPUT-
001951:                                                                                                  #  R1VEC    ERASE  +5
001952:                                                                                                  #  R2VEC    ERASE  +5
001953:                                                                                                  #  TDESIRED ERASE  +1
001954:                                                                                                  #  GEOMSGN  ERASE  +0
001955:                                                                                                  #  GUESSW                          0 IF COGA GUESS AVAILABLE, 1 IF NOT
001956:                                                                                                  #  COGA     ERASE  +1              INPUT ONLY IF GUESSW IS ZERO.
001957:                                                                                                  #  NORMSW                          0 IF UN TO BE COMPUTED, 1 IF UN INPUT
001958:                                                                                                  #  UN       ERASE  +5              ONLY USED IF NORMSW IS 1
001959:                                                                                                  #  VTARGTAG ERASE  +0
001960:                                                                                                  #  TWEEKIT  EQUALS 40D             ONLY USED IF GUESSW IS 0
001961:
001962:                                                                                                  #     OUTPUT -
001963:                                                                                                  #  VTARGET  ERASE  +5              AVAILABLE ONLY IF VTARGTAG IS ZERO.
001964:                                                                                                  #  V1VEC    EQUALS MPAC
001965:
001966:                                                                                                  #     DEBRIS -
001967:                                                                                                  #  RTNLAMB  ERASE  +0
001968:                                                                                                  #  U2       ERASE  +5
001969:                                                                                                  #  MAGVEC2  ERASE  +1
001970:                                                                                                  #  UR1      ERASE  +5
001971:                                                                                                  #  R1       EQUALS 31D
001972:                                                                                                  #  UN       ERASE  +5
001973:                                                                                                  #  SNTH     ERASE  +1
001974:                                                                                                  #  CSTH     ERASE  +1
001975:                                                                                                  #  1-CSTH   ERASE  +1
001976:                                                                                                  #  CSTH-RHO ERASE  +1
001977: 04,3645                        COGAMAX            EQUALS   14D                                   #  CLOBBERS 1/MU
001978: 04,3645                        COGAMIN            EQUALS   8D
001979: 04,3645                        DCOGA              EQUALS   12D
001980:                                                                                                  #  TWEEKIT  EQUALS 40D
001981:                                                                                                  #  P        ERASE  +1


001983:                                                                                                  #  COGA     ERASE  +1
001984:                                                                                                  #  R1A      ERASE  +1
001985:                                                                                                  #  X        EQUALS 20D
001986:                                                                                                  #  XSQ      EQUALS 22D
001987:                                                                                                  #  XI       EQUALS 24D
001988:                                                                                                  #  S(XI)    EQUALS 26D
001989:                                                                                                  #  XSQC(XI) EQUALS 28D
001990:                                                                                                  #  T        EQUALS 30D
001991:                                                                                                  #  KEPC1    EQUALS 34D
001992:                                                                                                  #  KEPC2    EQUALS 36D
001993:                                                                                                  #  SLOPESW
001994:                                                                                                  #  SOLNSW
001995:                                                                                                  #  OTHERS -
001996:
001997:                                                                                                  #  RVEC     EQUALS R1VEC
001998:                                                                                                  #  VVEC     ERASE  +5
001999:                                                                                                  #  COGAFLAG
002000:                                                                                                  #  RVSW
002001:                                                                                                  #  INFINFLG
002002:                                                                                                  #  APSESW
002003:                                                                                                  #  360SW
002004:                                                                                                  #  RTNTT    EQUALS RTNLAMB
002005:                                                                                                  #  ECC      ERASE  +1
002006:                                                                                                  #  RTNTR    EQUALS RTNLAMB
002007:                                                                                                  #  RTNAPSE  EQUALS RTNLAMB
002008:                                                                                                  #  R2       EQUALS MAGVEC2
002009: 04,3645                        COSF               EQUALS   24D
002010:                                                                                                  #  RTNPRM   ERASE  +0
002011:                                                                                                  #  SGNRDOT  ERASE  +0
002012:                                                                                                  #  RDESIRED ERASE  +1
002013:
002014:
002015:                                                                                                  #  ITERATOR SUBROUTINE
002016:
002017:                                                                                                  #  ORDERSW
002018: 04,3645                        MAX                EQUALS   14D                                   #  CLOBBERS 1/MU
002019: 04,3645                        MIN                EQUALS   8D
002020:                                                                                                  #  INDEP    ERASE  +1
002021: 04,3645                        DELINDEP           EQUALS   12D
002022: 04,3645                        ITERCTR            EQUALS   22D
002023: 04,3645                        DEP                EQUALS   30D
002024:                                                                                                  #  DELDEP   ERASE  +1
002025:                                                                                                  #  DEPREV   ERASE  +1
002026: 04,3645                        TWEEKIT            EQUALS   40D
002027:
002028:
002029:                                                                                                  #  MORE KEPLER
002030:
002031:                                                                                                  #  EPSILONT ERASE  +1
002032:


002034:                                                                                                  #  MORE LAMBERT
002035:
002036:                                                                                                  #  TERRLAMB EQUALS DELDEP
002037:                                                                                                  #  TPREV    EQUALS DEPREV
002038:
002039:
002040:                                                                                                  #  EPSILONL EQUALS EPSILONT +2     DOUBLE PRECISION WORD

End of include-file CONIC_SUBROUTINES.agc.  Parent file is MAIN.agc


