
Source Code


000002:                                                                                                  #  Copyright:    Public domain.
000003:                                                                                                  #  Filename:     DISPLAY_INTERFACE_ROUTINES.agc
000004:                                                                                                  #  Purpose:      Part of the source code for Colossus build 237.
000005:                                                                                                  #                This is for the Command Module's (CM) Apollo Guidance
000006:                                                                                                  #                Computer (AGC), we believe for Apollo 8.
000007:                                                                                                  #  Assembler:    yaYUL
000008:                                                                                                  #  Contact:      Jim Lawton <jim DOT lawton AT gmail DOT com>
000009:                                                                                                  #  Website:      www.ibiblio.org/apollo/index.html
000010:                                                                                                  #  Page scans:   www.ibiblio.org/apollo/ScansForConversion/Colossus237/
000011:                                                                                                  #  Mod history:  2011-04-17 JL   Adapted from corresponding Colossus 249 file.
000012:
000013:                                                                                                  # # Page 1416
000014:                                                                                                  #  DISPLAYS CAN BE CLASSIFIED INTO THE FOLLOWING CATEGORIES-
000015:
000016:                                                                                                  #      1. PRIORITY DISPLAYS- DISPLAYS WHICH TAKE PRIORITY OVER ALL OTHER DISPLAYS. USUALLY THESE DISPLAYS ARE SENT
000017:                                                                                                  #         OUT UNDER CRITICAL ALARM CONDITIONS.
000018:                                                                                                  #      2. EXTENDED VERB DISPLAYS- ALL EXTENDED VERBS AND MARK ROUTINES SHOULD USE EXTENDED VERB (MARK) DISPLAYS.
000019:                                                                                                  #      3. NORMAL DISPLAYS- ALL MISSION PROGRAM DISPLAYS WHICH INTERFACE WITH THE ASTRONAUT DURING THE NORMAL
000020:                                                                                                  #         SEQUENCE OF EVENTS.
000021:                                                                                                  #      4. MISC. DISPLAYS- ALL DISPLAYS NOT HANDLED BY THE DISPLAY INTERFACEROUTINES. THESE INCLUDE SUCH DISPLAYS AS
000022:                                                                                                  #         MM DISPLAYS AND SPECIAL PURPOSE DISPLAYS HANDLED BY PINBALL.
000023:
000024:
000025:                                                                                                  #      5. ASTRONAUT INITIATED DISPLAYS- ALL DISPLAYS INITIATED EXTERNALLY.
000026:                                                                                                  #  THE FOLLOWING TERMS ARE USED TO DESCRIBE THE STATUS OF DISPLAYS-
000027:
000028:                                                                                                  #      1. ACTIVE-THE DISPLAY WHICH IS (1) BEING DISPLAYED TO THE ASTRONAUT AND WAITING FOR A RESPONSE OR
000029:                                                                                                  #         (2) WAITING FIRST IN LINE FOR THE ASTRONAUT TO FINISH USING THE DSKY OR (3) BEING DISPLAYED ON THE DSKY
000030:                                                                                                  #         BUT NOT WAITING FOR A RESPONSE.
000031:                                                                                                  #      2. INACTIVE -A DISPLAY WHICH HAS (1) BEEN ACTIVE BUT WAS INTERRUPTEDBY A DISPLAY OF HIGHER PRIORITY,
000032:                                                                                                  #         (2) BEEN PUT INTO THE WAITING LIST AT TIME IT WAS REQUESTED DUE TO THE FACT A HIGHER PRIORITY DISPLAY
000033:                                                                                                  #         WAS ALREADY DOING, (3) BEEN INTERRUPTED BY THE ASTRONAUT (CALLED A PINBRANCH CONDITION, SINCE THIS TYPE
000034:                                                                                                  #         OF INACTIVE DISPLAY IS USUALLY REACTIVATED ONLY BY PINBALL) OR (4) A DISPLAY WHICH HAS FINISHED BUT STILL
000035:                                                                                                  #         HAS INFO SAVED FOR RESTART PURPOSES.
000036:
000037:
000038:                                                                                                  #  DISPLAY PRIORITIES WORK AS FOLLOWS-
000039:
000040:                                                                                                  #    INTERRUPTS-
000041:                                                                                                  #      1. THE ASTRONAUT CAN INTERRUPT ANY DISPLAY WITH AN EXTERNAL DISPLAY REQUEST.
000042:                                                                                                  #      2. INTERNAL DISPLAYS CAN NOT BE SENT OUT WHEN THE ASTRONAUT IS USING THE DSKY.
000043:                                                                                                  #      3. PRIORITY DISPLAYS INTERRUPT ALL OTHER TYPES OF INTERNAL DISPLAYS. A PRIORITY DISPLAY INTERRUPTING ANOTHER
000044:                                                                                                  #         PRIORITY DISPLAY WILL CAUSE AN ABORT UNLESS BIT14 IS SET FOR THE LINUS ROUTINE.
000045:                                                                                                  #      4. A MARK DISPLAY INTERRUPTS ANY NORMAL DISPLAY.
000046:                                                                                                  #      5. A MARK THAT INTERRUPTS A MARK COMPLETELY REPLACES IT.
000047:
000048:                                                                                                  #    ORDER OF WAITING DISPLAYS-
000049:                                                                                                  #      1. ASTRONAUT
000050:                                                                                                  #      2. PRIORITY
000051:                                                                                                  #      3. INTERRUPTED MARK
000052:                                                                                                  #      4. INTERRUPTED NORMAL
000053:
000054:                                                                                                  #      5. MARK TO BE REQUESTED (SEE DESCRIPTION OF ENDMARK)
000055:                                                                                                  #      6. MARK WAITING
000056:                                                                                                  #      7. NORMAL WAITING
000057:
000058:                                                                                                  # # Page 1417
000059:                                                                                                  #  THE DISPLAY ROUTINES ARE INTENDED TO SERVE AS AN INTERFACE BETWEEN THE USER AND PINBALL.  THE
000060:                                                                                                  #  FOLLOWING STATEMENTS CAN BE MADE ABOUT NORMAL DISPLAYS AND PRIORITY DISPLAYS (A DESCRIPTION OF MARK ROUTINES
000061:                                                                                                  #  WILL FOLLOW LATER):
000062:
000063:                                                                                                  #       1.  ALL ROUTINES THAT END IN R HAVE AN IMMEDIATE RETURN TO THE USER.  FOR ALL FLASHING DISPLAYS THIS RETURN
000064:                                                                                                  #           IS TO THE USERS CALL CADR +4.  FOR THE ONLY NON FLASHING IMMEDIATE RETURN DISPLAY (GODSPR) THIS RETURN
000065:                                                                                                  #           IS TO THE USERS CALLING LOC +1.
000066:                                                                                                  #       2.  ALL ROUTINES NOT ENDING IN R DO NOT DO AN IMMEDIATE RETURN TO THE USER.
000067:                                                                                                  #       3.  ALL ROUTINES THAT END IN R START A SEPARATE JOB (MAKEPLAY) WITH USERS JOB PRIORITY.
000068:                                                                                                  #       4.  ALL ROUTIENS NOT ENDING IN R BRANCH DIRECTLY TO MAKEPLAY WHICH MAKES THESE DISPLAYS A PART OF THE
000069:                                                                                                  #           USERS JOB.
000070:                                                                                                  #       5.  ALL DISPLAY ROUTINES ARE CALLED VIA BANKCALL.
000071:                                                                                                  #       6.  TO RESTART A DISPLAY THE USER WILL GENERALLY USE A PHASE OF ONE WITH DESIRED RESTART GROUP (SEE
000072:                                                                                                  #           DESCRIPTION OF RESTARTS).
000073:                                                                                                  #       7.  ALL FLASHING DISPLAYS HAVE 3 RETURNS TO THE USER FROM ASTRONAUT RESPONSES.  A TERMINATE (V34) BRANCHES
000074:                                                                                                  #           TO THE USERS CALL CADR +1.  A PROCEED (V33) BRANCHES TO THE USERS CALL CADR +2.  AN ENTER OR RECYCLE
000075:                                                                                                  #           (V32) BRANCHES TO THE USERS CALL CADR +3.
000076:                                                                                                  #       8.  ALL ROUTINES MUST BE USED UNDER EXECUTIVE CONTROL
000077:
000078:                                                                                                  #  A DESCRIPTION OF EACH ROUTINE WITH AN EXAMPLE FOLLOWS:
000079:
000080:                                                                                                  #  GODSP IS USED TO DISPLAY A VERB NOUN ARRIVING IN A.  NO RETURN IS MADE TO THE USER.
000081:
000082:                                                                                                  #       1. GODSP IS NOT RESTARTABLE
000083:                                                                                                  #       2. A VERB PASTE WITH GODSP ALWAYS TURNS ON THE FLASH.
000084:                                                                                                  #                                                   CAF    VXXNYY
000085:                                                                                                  #                                                   TC     BANKCALL
000086:                                                                                                  #                                                   CADR   GODSP
000087:
000088:                                                                                                  #                                         VXXNYY    OCT    OXXYY
000089:
000090:                                                                                                  #  ODSPR IS THE SAME AS GODSP ONLY RETURN IS TO THE USER.
000091:
000092:                                                                                                  #                                                   CAF    VXXNYY
000093:                                                                                                  #                                                   TC     BANKCALL
000094:                                                                                                  #                                                   CADR   GODSPR
000095:
000096:                                                                                                  #                                                   ...    ...             IMMEDIATE RETURN OF GODSPR
000097:
000098:                                                                                                  #  GOFLASH DISPLAYS A FLASHING VERB NOUN WITH NO IMMEDIATE RETURN TO THE USER. 3 RETURNS ARE POSSIBLE FROM
000099:                                                                                                  #  THE ASTRONAUT (SEE NO. 7 ABOVE).
000100:
000101:                                                                                                  #                                                   CAF    VXXNYY          VXX NYY WILL BE A FLASHING VERB NOUN.
000102:                                                                                                  #                                                   TC     BANKCALL
000103:                                                                                                  #                                                   CADR   GOFLASH
000104:                                                                                                  #                                                   ...    ...             TERMINATE RETURN
000105:                                                                                                  #                                                   ...    ...             PROCEED RETURN
000106:                                                                                                  #                                                   ...    ...             ENTER OR RECYCLE RETURN
000107:
000108:                                                                                                  #  GOPERF1 IS ENTERED WITH DESIRED CHECKLIST VALUE IN A.  GOPERF1 WILL DISPLAY THIS VALUE IN R1 BY MEANS OF A
000109:                                                                                                  # # Page 1418
000110:                                                                                                  #  V01 N25.A FLASHING PLEASE PERFORM ON CHECKLIST ( V50 N25) IS THEN DISPLAYED.  NO IMMEDIATE RETURN IS MADE TO
000111:                                                                                                  #  USER (SEE NO. 7 ABOVE).
000112:
000113:                                                                                                  #  GOPERF1 BLANKS REGISTERS R2 AND R3
000114:
000115:                                                                                                  #                                                   CAF    OCTXX           CODE FOR CHECKLIST VALUE XX
000116:                                                                                                  #                                                   TC     BANKCALL
000117:                                                                                                  #                                                   CADR   GOPERF1
000118:                                                                                                  #                                                   ...    ...             TERMINATE RETURN
000119:                                                                                                  #                                                   ...    ...             PROCEED RETURN
000120:                                                                                                  #                                                   ...    ...             ENTER RETURN
000121:
000122:                                                                                                  #  GOPERF2 IS ENTERED WITH A VARIABLE NOUN AND V01 ( V00 FOR N10 OR N11) IN A.  GOPERF2 WILL FIRST DISPLAY THE
000123:                                                                                                  #  REQUESTED NOUN BY MEANS OF A V01NYY OR A V00NYY. PLEASE PERFORM ON NOUN (V50 NYY) THEN BECOMES A FLASHING
000124:                                                                                                  #  DISPLAY.  NO IMMEDIATE RETURN IS MADE TO THE USER (SEE NO. 7 ABOVE).
000125:
000126:                                                                                                  #  GOPERF2 DOES NOT BLANK ANY REGISTERS
000127:
000128:                                                                                                  #                                                   CAF    VXXNYY          VARIABLE NOUN YY. XX=0 OR 01.
000129:                                                                                                  #                                                   TC     BANKCALL
000130:                                                                                                  #                                                   CADR   GOPERF2
000131:                                                                                                  #                                                   ...    ...             TERMINATE RETURN
000132:                                                                                                  #                                                   ...    ...             PROCEED RETURN
000133:                                                                                                  #                                                   ...    ...             ENTER RETURN
000134:
000135:                                                                                                  #  GOPERF3 IS USED FOR A PLEASE PERFORM ON A PROGRAM NUMBER.  THE DESIRED PROGRAM NO. IS ENTERED IN A.  GOPERF3
000136:                                                                                                  #  DISPLAYS THE NO. BY MEANS OF A V06 N07 FOLLOWED BY A FLASHING V50 N07 FOR A PLEASE PERFORM. NO IMMEDIATE RETURN
000137:                                                                                                  #  IS MADE TO THE USER (SEE NO. 7 ABOVE).
000138:
000139:                                                                                                  #  GOPERF3 BLANKS REGISTERS R2 AND R3
000140:
000141:                                                                                                  #                                                   CAF    DECXX           REQUEST PERFORM ON PXX
000142:                                                                                                  #                                                   TC     BANKCALL
000143:                                                                                                  #                                                   CADR   GOPERF3
000144:                                                                                                  #                                                   ...    ...             TERMINATE RETURN
000145:                                                                                                  #                                                   ...    ...             PROCEED RETURN
000146:                                                                                                  #                                                   ...    ...             ENTER RETURN
000147:
000148:                                                                                                  #  GOPERF4 IS USED FOR A PLEASE PERFORM ON AN OPTION. THE DESIRED OPTION ISENTERED IN A AND STORED IN OPTION1.
000149:                                                                                                  #  GOPERF4 DISPLAYS R1 AND R2 BY MEANS OF A V04N06 FOLLOWED BY A FLASHING  V50N06 FOR A PLEASE PERFORM. NO
000150:                                                                                                  #  IMMEDIATE RETURN IS MADE TO THE USER (SEE NO. 7 ABOVE).
000151:
000152:                                                                                                  #                                                   CAF    OCTXX           REQUEST PERFORM ON OPTION XX
000153:                                                                                                  #                                                   TC     BANKCALL
000154:                                                                                                  #                                                   CADR   GOPERF4
000155:                                                                                                  #                                                   ...    ...             TERMINATE RETURN
000156:                                                                                                  #                                                   ...    ...             PROCEED RETURN
000157:                                                                                                  #                                                   ...    ...             ENTER RETURN
000158:
000159:                                                                                                  #  GOPERF4 BLANKS REGISTER R3
000160:                                                                                                  # # Page 1419
000161:                                                                                                  #  GODSPRET IS USED TO DISPLAY A VERB NOUN ARRIVING IN A WITH A RETURN TO THE USER AFTER THE DISPLAY HAS BEEN SENT
000162:                                                                                                  #  OUT.
000163:
000164:                                                                                                  #                                                   CAF    VXXNYY
000165:                                                                                                  #                                                   TC     BANKCALL
000166:                                                                                                  #                                                   CADR   GODSPRET
000167:
000168:                                                                                                  #                                                   ...    ...             RETURN TO USER
000169:
000170:                                                                                                  #  REGODSP IS USED TO DISPLAY A VERB NOUN ARRIVING IN A.  REGODSP IS THE SAME AS GODSP ONLY REGODSP REPLACES ANY
000171:                                                                                                  #  ACTIVE NORMAL DISPLAY IF ONE WAS ACTIVE.
000172:
000173:                                                                                                  #                                                   CAF    VXXNYY
000174:                                                                                                  #                                                   TC     BANKCALL
000175:                                                                                                  #                                                   CADR   REGODSP
000176:
000177:                                                                                                  #  REFLASH IS THE SAME AS GOFLASH ONLY REFLASH REPLACES ANY ACTIVE NORMAL DISPLAY IF ONE WAS ACTIVE.
000178:
000179:                                                                                                  #                                                   CAF    VXXNYY          VXX NYY WILL BE A FLASHING VERB NOUN
000180:                                                                                                  #                                                   TC     BANKCALL
000181:                                                                                                  #                                                   CADR   REFLASH
000182:                                                                                                  #                                                   ...    ...             TERMINATE RETURN
000183:                                                                                                  #                                                   ...    ...             PROCEED RETURN
000184:                                                                                                  #                                                   ...    ...             ENTER RETURN
000185:
000186:                                                                                                  #  GOFLASHR IS SAME AS GOFLASH ONLY AN IMMEDIATE RETURN IS MADE TO THE USERS CALL CADR +4.
000187:
000188:                                                                                                  #                                                   CAF    VXXNYY
000189:                                                                                                  #                                                   TC     BANKCALL
000190:                                                                                                  #                                                   CADR   GOFLASHR
000191:                                                                                                  #                                                   ...    ...             TERMINATE RETURN
000192:                                                                                                  #                                                   ...    ...             PROCEED RETURN
000193:                                                                                                  #                                                   ...    ...             ENTER OR RECYCLE RETURN
000194:
000195:                                                                                                  #                                                   ...    ...             IMMEDIATE RETURN FROM GOFLASHR
000196:
000197:                                                                                                  #  GOPERF1R IS THE SAME AS GOPERF1 ONLY GOPERF1R HAS AN IMMEDIATE RETURN TOUSERS CALL CADR +4.
000198:
000199:                                                                                                  #  GOPERF1R BLANKS REGISTERS R2 AND R3
000200:
000201:                                                                                                  #                                                   CAF    OCTXX           CODE FOR CHECKLIST VALUE XX.
000202:                                                                                                  #                                                   TC     BANKCALL
000203:                                                                                                  #                                                   CADR   GOPERF1R
000204:                                                                                                  #                                                   ...    ...             TERMINATE RETURN
000205:                                                                                                  #                                                   ...    ...             PROCEED RETURN
000206:                                                                                                  #                                                   ...    ...             ENTER RETURN
000207:
000208:                                                                                                  #                                                   ...    ...             IMMEDIATE RETURN FROM GOPERF1R
000209:
000210:                                                                                                  #  GOPERF2R IS THE SAME AS GOPERF2 ONLY AN IMMEDIATE RETURN IS MADE TO USERS CALL CADR +4.
000211:                                                                                                  # # Page 1420
000212:                                                                                                  #  GOPERF2R DOES NOT BLANK ANY REGISTERS
000213:
000214:                                                                                                  #                                                   CAF    VXXNYY          VARIABLE NOUN YY REQUESTED.  XX=00 OR 01
000215:                                                                                                  #                                                   TC     BANKCALL
000216:                                                                                                  #                                                   CADR   GOPERF2R
000217:                                                                                                  #                                                   ...    ...             TERMINATE RETURN
000218:                                                                                                  #                                                   ...    ...             PROCEED RETURN
000219:                                                                                                  #                                                   ...    ...             ENTER RETURN
000220:
000221:                                                                                                  #                                                   ...    ...             IMMEDIATE RETURN HERE FROM GOPERF2R
000222:
000223:                                                                                                  #  GOPERF3R IS THE SAME AS GOPERF3 ONLY AN IMMEDIATE RETURN IS MADE TO USERS CALL CADR +4.
000224:
000225:                                                                                                  #  GOPERF3R BLANKS REGISTERS R2 AND R3
000226:
000227:                                                                                                  #                                                   CAF    PROGXX          PERFORM PROGRAM XX
000228:                                                                                                  #                                                   TC     BANKCALL
000229:                                                                                                  #                                                   CADR   GOPERF3R
000230:                                                                                                  #                                                   ...    ...             TERMINATE RETURN
000231:                                                                                                  #                                                   ...    ...             PROCEED RETURN
000232:                                                                                                  #                                                   ...    ...             ENTER RETURN
000233:
000234:                                                                                                  #                                                   ...    ...             GOPERF3R IMMEDIATELY RETURNS HERE
000235:
000236:                                                                                                  #  GOPERF4R IS THE SAME AS GOPERF4 ONLY AN IMMEDIATE RETURN IS MADE TO USERS CALL CADR +4.
000237:
000238:                                                                                                  #                                                   CAF    OCTXX           REQUEST PERFORM ON OPTIONXX
000239:                                                                                                  #                                                   TC     BANKCALL
000240:                                                                                                  #                                                   CADR   GOPERF4R
000241:                                                                                                  #                                                   ...    ...             TERMINATE RETURN
000242:                                                                                                  #                                                   ...    ...             PROCEED RETURN
000243:                                                                                                  #                                                   ...    ...             ENTER RETURN
000244:
000245:                                                                                                  #                                                   ...    ...             IMMEDIATE RETURN TO USER
000246:
000247:                                                                                                  #  GOPERF4R BLANKS REGISTER R3
000248:
000249:                                                                                                  #  REFLASHR IS THE SAME AS REFLASH ONLY AN IMMEDIATE RETURN IS MADE TO THE USERS CALL CADR +4.
000250:
000251:                                                                                                  #                                                   CAF    VXXNYY          VXX NYY WILL BE A FLASHING VERB NOUN
000252:                                                                                                  #                                                   TC     BANKCALL
000253:                                                                                                  #                                                   CADR   REFLASHR
000254:                                                                                                  #                                                   ...    ...             TERMINATE RETURN
000255:                                                                                                  #                                                   ...    ...             PROCEED RETURN
000256:                                                                                                  #                                                   ...    ...             ENTER RETURN
000257:
000258:                                                                                                  #                                                   ...    ...             IMMEDIATE RETURN TO USER
000259:
000260:                                                                                                  #  REGODSPR IS THE SAME AS REGODSP ONLY A RETURN (IMMEDIATE) IS MADE TO THE USER.
000261:
000262:                                                                                                  # # Page 1421
000263:                                                                                                  #                                                   CAF    VXXNYY
000264:                                                                                                  #                                                   TC     BANKCALL
000265:                                                                                                  #                                                   CADR   REGODSPR
000266:
000267:                                                                                                  #                                                   ...    ...             IMMEDIATE RETURN TO USER
000268:
000269:                                                                                                  # # Page 1422
000270:                                                                                                  #  GOMARK IS USED TO DISPLAY A MARK VERB NOUN ARRIVING IN A. NO RETURN IS MADE TO THE USER.
000271:
000272:                                                                                                  #  GOXDSP = GOMARK
000273:
000274:                                                                                                  #                                                   CAF    VXXNYY          VXXNYY CONTAINS VERB AND NOUN
000275:                                                                                                  #                                                   TC     BANKCALL
000276:                                                                                                  #                                                   CADR   GOMARK          OTHER EXTENDED VERBS USE CADR GOXDSP
000277:
000278:                                                                                                  #  GOMARKR IS THE SAME AS GOMARK ONLY RETURN IS TO THE USER.
000279:
000280:                                                                                                  #  GOXDSPR = GOMARKR
000281:
000282:                                                                                                  #                                                   CAF    VXXNYY
000283:                                                                                                  #                                                   TC     BANKCALL
000284:                                                                                                  #                                                   CADR   GOMARKR         OTHER EXTENDED VERBS USE CADR GOXDSPR
000285:
000286:                                                                                                  #                                                   ...    ...             IMMEDIATE RETURN OF GOMARKR
000287:
000288:                                                                                                  #  GOMARKF DISPLAYS A FLASHING MARK VERB NOUN WITH NO IMMEDIATE RETURN TO THE USER. 3 RETURNS ARE POSSIBLE FROM
000289:                                                                                                  #  THE ASTRONAUT (SEE NO. 7 ABOVE ).
000290:
000291:                                                                                                  #  GOXDSPF = GOMARKF
000292:
000293:                                                                                                  #                                                   CAF    VXXNYY          VXXNYY WILL BE A FLASHING MARK VERB NOUN
000294:                                                                                                  #                                                   TC     BANKCALL
000295:                                                                                                  #                                                   CADR   GOMARKF         OTHER EXTENDED VERBS USE CADR GOXDSPF
000296:                                                                                                  #                                                   ...    ...             TERMINATE RETURN
000297:                                                                                                  #                                                   ...    ...             PROCEED RETURN
000298:                                                                                                  #                                                   ...    ...             ENTER OR RECYCLE RETURN
000299:
000300:                                                                                                  #  GOMARKFR IS THE SAME AS GOMARKF ONLY AN IMMEDIATE RETURN IS MADE TO THE USER CALL CADR +4.
000301:
000302:                                                                                                  #  GOXDSPFR = GOMARKFR
000303:
000304:                                                                                                  #                                                   CAF    VXXNYY          FLASHING MARK VERB NOUN
000305:                                                                                                  #                                                   TC     BANKCALL
000306:                                                                                                  #                                                   CADR   GOMARKFR        OTHER EXTENDED VERBS USE CADR GOXDSPFR
000307:                                                                                                  #                                                   ...    ...             TERMINATE RETURN
000308:                                                                                                  #                                                   ...    ...             PROCEED RETURN
000309:                                                                                                  #                                                   ...    ...             ENTER OR RECYCLE RETURN
000310:
000311:                                                                                                  #                                                   ...    ...             IMMEDIATE RETURN TO THE USER
000312:
000313:                                                                                                  #  GOMARK1 IS USED FOR A PLEASE PERFORM ON A MARK REQUEST WITH ONLY 1 ASTRONAUT RETURN TO THE USER. NO IMMEDIATE
000314:                                                                                                  #  RETURN IS MADE. THE DESIRED MARK PLEASE PERFORM VERB AND DESIRED NOUN ISENTERED IN A. GOMARK1 DISPLAYS R1, R2, R
000315:                                                                                                  #  MEANS OF A V05NYY FOLLOWED BY A FLASHING V5XNYY FOR A PLEASE PERFORM. THE ASTRONAUT WILL RESPOND WITH A MARK
000316:                                                                                                  #  OR MARK REJECT OR AN ENTER. THE ENTER IS THE ONLY ASTRONAUT RESPONSE THAT WILL COME BACK TO THE USER.
000317:
000318:                                                                                                  #                                                   CAF    V5XNYY          X=1,2,3,4   Y= NOUN
000319:                                                                                                  #                                                   TC     BANKCALL
000320:                                                                                                  # # Page 1423
000321:                                                                                                  #                                                   CADR   GOMARK1
000322:
000323:                                                                                                  #                                                   ...    ...             ENTER RETURN
000324:
000325:                                                                                                  #  *** IF BLANKING DESIRED ON NON R ROUTINES, NOTIFY DISPLAYER.
000326:
000327:                                                                                                  #  GOMARK1R IS THE SAME AS A GOMARK1 ONLY AN IMMEDIATE RETURN IS MADE TO THE USERS CALL CADR +2.
000328:                                                                                                  #                                                   CAF    V5XNYY          X=1,2,3,4    YY = NOUN
000329:                                                                                                  #                                                   TC     BANKCALL
000330:                                                                                                  #                                                   CADR   GOMARK1R
000331:
000332:                                                                                                  #                                                   ...    ...             ASTRONAUT ENTER RETURN
000333:                                                                                                  #                                                   ...    ...             IMMEDIATE RETURN TO USER
000334:
000335:                                                                                                  #  GOMARK2 IS THE SAME AS GOMARK1 ONLY 3 RETURNS ARE MADE TO THE USER FROM THE ASTRONAUT.
000336:                                                                                                  #                                                   CAF    V5XNYY          X=1,2,3,4   YY=NOUN
000337:                                                                                                  #                                                   TC     BANKCALL
000338:                                                                                                  #                                                   CADR   GOMARK2
000339:                                                                                                  #                                                   ...    ...             TERMINATE RETURN
000340:                                                                                                  #                                                   ...    ...             PROCEED RETURN
000341:                                                                                                  #                                                   ...    ...             ENTER RETURN
000342:                                                                                                  #  GOMARK2R IS THE SAME AS GOMARK1R ONLY 3 ASTRONAUT RETURNS ARE MADE TO THE USER.
000343:
000344:                                                                                                  #                                                   CAF    V5XNYY          X=0,1,2,3,4   YY=NOUN
000345:                                                                                                  #                                                   TC     BANKCALL
000346:                                                                                                  #                                                   CADR   GOMARK24
000347:                                                                                                  #                                                   ...    ...             TERMINATE RETURN
000348:                                                                                                  #                                                   ...    ...             PROCEED RETURN
000349:                                                                                                  #                                                   ...    ...             ENTER RETURN
000350:
000351:                                                                                                  #                                                   ...    ...             IMMEDIATE RETURN TO THE USER
000352:
000353:                                                                                                  #  GOMARK3 IS USED FOR A PLEASE PERFORM ON A MARK REQUEST WITH A 3 COMP. DEC DISPLAY.  THE DESIRED MARK PLEASE
000354:                                                                                                  #  PERFORM VERB AND NOUN ARE ENTERED IN A.  GOMARK3 DISPLAYS R1, R2, R3 BY MEANS OF A V06NYY FOLLOWED BY A FLASHING
000355:                                                                                                  #  V5XNYY FOR A PLEASE PERFORM.  GOMARK3 HAS 3 ASTRONAUT RETURNS TO THE USER WITH NO IMMEDIATE RETURN.
000356:
000357:                                                                                                  #                                                   CAF    V5XNYY          X=1, 2,3,4 YY=NOUN
000358:                                                                                                  #                                                   TC     BANKCALL
000359:                                                                                                  #                                                   CADR   GOMARK3
000360:                                                                                                  #                                                   ...    ...             TERMINATE RETURN
000361:                                                                                                  #                                                   ...    ...             PROCEED RETURN
000362:                                                                                                  #                                                   ...    ...             ENTER RETURN
000363:
000364:                                                                                                  #  GOMARK4 IS THE SAME AS GOMARK3 ONLY R2 AND R3 ARE BLANKED AND R1 IS DISPLAYED IN OCTAL.
000365:
000366:                                                                                                  #                                                   CAF    V5XNYY          X=1,2,3,4 YY=NOUN
000367:                                                                                                  #                                                   TC     BANKCALL
000368:                                                                                                  #                                                   CADR   GOMARK4
000369:                                                                                                  #                                                   ...    ...             TERMINATE RETURN
000370:                                                                                                  #                                                   ...    ...             PROCEED RETURN
000371:                                                                                                  # # Page 1424
000372:                                                                                                  #                                                   ...    ...             ENTER RETURN
000373:
000374:                                                                                                  #  EXDSPRET IS USED TO DISPLAY A VERB NOUN ARRIVING IN A WITH A RETURN MADE TO THE USER AFTER THE DISPLAY HAS BEEN
000375:                                                                                                  #  SENT OUT.
000376:
000377:                                                                                                  #                                                   CAF    VXNYY
000378:                                                                                                  #                                                   TC     BANKCALL
000379:                                                                                                  #                                                   CADR   EXDSPRET
000380:
000381:                                                                                                  #                                                   ...    ...             RETURN TO USER
000382:
000383:                                                                                                  #  KLEENEX CLEANS OUT ALL MARK DISPLAYS (ACTIVE AND INACTIVE). A RETURN IS MADE TO THE USER AFTER THE MARK DISPLAYS
000384:                                                                                                  #  HAVE BEEN CLEANED OUT.
000385:
000386:                                                                                                  #                                                   TC     BANKCALL
000387:                                                                                                  #                                                   CADR   KLEENEX
000388:
000389:                                                                                                  #                                                   ...    ...             RETURN TO USER
000390:
000391:                                                                                                  #  MARKBRAN IS A SPECIAL PURPOSE ROUTINE USED FOR SAVING JOB VAC AREAS (SEE DESCRIPTION OF MARKBRAN BELOW).
000392:
000393:                                                                                                  #                                                   TC     BANKCALL
000394:                                                                                                  #                                                   CADR   MARKBRAN
000395:                                                                                                  #                                                   ...    ...             BAD RETURN IF MARK DISPLAY NOT ACTIVE
000396:
000397:                                                                                                  #                                                                          (GOOD RETURN TO IMMEDIATE RETURN LOC OF
000398:                                                                                                  #                                                                          LAST FLASHING MARK R ROUTINE)
000399:
000400:                                                                                                  #  PINBRNCH REESTABLISHES THE LAST ACTIVE FLASHING DISPLAY. IF THERE IS NO ACTIVE FLASHING DISPLAY, THE DSKY IS
000401:                                                                                                  #  BLANKED AND CONTROL IS SENT TO ENDOFJOB.
000402:
000403:                                                                                                  #                                                   TC     POSTJUMP
000404:                                                                                                  #                                                   CADR   PINBRNCH
000405:
000406:                                                                                                  #  PRIODSP IS USED AS A PRIORITY DISPLAY.  IT WILL DISPLAY A GOFLASH TYPE DISPLAY WITH THREE POSSIBLE RETURNS FROM
000407:                                                                                                  #  THE ASTRONAUT (SEE NO. 7 ABOVE).
000408:
000409:                                                                                                  #       THE MAIN PURPOSE OF PRIODSP IS TO REPLACE THE PRESENT DISPLAY WITH A DISPLAY OF HIGHER PRIORITY AND TO
000410:                                                                                                  #  PROVIDE A MEANS FOR RESTORING THE OLD DISPLAY WHEN THE PRIORITY DISPLAY
000411:                                                                                                  #  IS RESPONDED TO BY THE ASTRONAUT.
000412:
000413:                                                                                                  #       THE FORMER DISPLAY IS RESTORED BY AN AUTOMATIC BRANCH TO WAKE UP THE DISPLAY THAT WAS INTERRUPTED BY THE
000414:                                                                                                  #  PRIO DISPLAY.
000415:
000416:                                                                                                  #                                                   CAF    VXXNYY          VXXNYY WILL BE A FLASHING VERB NOUN
000417:                                                                                                  #                                                   TC     BANKCALL
000418:                                                                                                  #                                                   CADR   PRIODSP
000419:                                                                                                  #                                                   ...    ...             TERMINATE RETURN
000420:                                                                                                  #                                                   ...    ...             PROCEED RETURN
000421:                                                                                                  # # Page 1425
000422:                                                                                                  #                                                   ...    ...             ENTER OR RECYCLE RETURN
000423:
000424:                                                                                                  #  PRIODSPR IS THE SAME AS PRIODSPONLY AN IMMEDIATE RETURN IS MADE TO THE  USERS CALL CADR +4.
000425:
000426:                                                                                                  #                                                   CAF    VXXNYY          VXXNYY WILL BE A FLASHING VERB NOUN
000427:                                                                                                  #                                                   TC     BANKCALL
000428:                                                                                                  #                                                   CADR   PRIODSPR
000429:                                                                                                  #                                                   ...    ...             TERMINATE ACTION
000430:                                                                                                  #                                                   ...    ...             PROCEED RETURN
000431:                                                                                                  #                                                   ...    ...             ENTER OR RECYCLE RETURN
000432:
000433:                                                                                                  #                                                   ...    ...             IMMEDIATE RETURN
000434:
000435:                                                                                                  #  PRIOLARM DOES A V05N09 PRIODSPR.
000436:                                                                                                  #  CLEANDSP CLEANS OUT ALL NORMAL DISPLAYS (ACTIVE AND INACTIVE). A RETURN IS MADE TO THE USER AFTER NORMAL
000437:                                                                                                  #  DISPLAYS ARE CLEANED OUT.
000438:
000439:                                                                                                  #                                                   TC     BANKCALL
000440:                                                                                                  #                                                   CADR   CLEANDSP
000441:
000442:                                                                                                  #                                                   ...    ...             RETURN TO USER
000443:
000444:                                                                                                  # # Page 1426
000445:                                                                                                  #  GENERAL INFORMATION
000446:                                                                                                  #  ------- -----------
000447:
000448:
000449:                                                                                                  #  ALARM OR ABORT EXIT MODES--
000450:
000451:                                                                                                  #                                          PRIOBORT TC     ABORT
000452:                                                                                                  #                                                   OCT    1502
000453:
000454:                                                                                                  #  PRIOBORT IS BRANCED TO WHEN (1)  A NORMAL DISPLAY IS REQUESTED AND  ANOTHER NORMAL DISPLAY IS ALREADY ACTIVE
000455:                                                                                                  #  (REFLASH AND REGODSP ARE EXCEPTIONS) OR (2) A PRIORITY DISPLAY IS REQUESTED WHEN ANOTHER PRIORITY DISPLAY IS
000456:                                                                                                  #  ALREADY ACTIVE (A PRIORITY WITH LINUS BIT14 IS AN EXCEPTION).
000457:
000458:
000459:                                                                                                  #  ERASABLE INITIALIZATION REQUIRED--
000460:
000461:                                                                                                  #       ACCOMPLISHED BY FRESH START- 1. FLAGWRD4 (USED EXCLUSIVELY BY DISPLAY INTERFACE ROUTINES)
000462:                                                                                                  #                                    2. NVSAVE = NORMAL VERB AND NOUN      REGISTER.
000463:                                                                                                  #                                    3. EBANKTEM = NORMAL INACTIVE FLAGWORD(ALSO CONTAINS NORMALS EBANK).
000464:
000465:
000466:                                                                                                  #                                    5. R1SAVE = MARKBRAN CONTROL WORD
000467:                                                                                                  #                                    4. RESTREG = PRIORITY 30 AND SUPERBANK 3.
000468:                                                                                                  #  OUTPUT--
000469:
000470:                                                                                                  #       NVWORD = PRIO VERB AND NOUN
000471:                                                                                                  #       NVWORD +1(MARKNV) = MARK VERB AND NOUN
000472:                                                                                                  #       NVWORD +2(NVSAVE) = NORMAL VERB AND NOUN
000473:
000474:                                                                                                  #       DSPFLG(EBANKSAV) = PRIO FLAGWORD (INCLUDING EBANK)
000475:                                                                                                  #       DSPFLG +1(MARKEBAN) = MARK FLAGWORD (INCLUDING EBANK)
000476:                                                                                                  #       DSPFLG +2(EBANKTEM) = NORMAL FLAGWORD (INCLUDIG EBANK)
000477:
000478:                                                                                                  #       CADRFLSH = PRIO USERS CALL CADR +1 LOCATION
000479:                                                                                                  #       CADRFLSH +1(MARKFLSH) = MARK USERS CALL CADR +1 LOCATION
000480:                                                                                                  #       CADRFLSH +2(TEMPFLSH) = NORMAL USERS CALL CADR +1 LOCATION
000481:
000482:                                                                                                  #       PRIOTIME = TIME EACH PRIO REQUEST FIRST SENT OUT
000483:                                                                                                  #       OPTION1 = DESIRED OPTION FROM GOPERF4
000484:                                                                                                  #       FLAGWRD4 = BIT INFO FOR CONTROL OF ALL DISPLAY ROUTINES
000485:                                                                                                  #       DSPTEM1 = R1 INFO FOR ASTRONAUT FROM PERFORM DISPLAYS(NORMAL)
000486:                                                                                                  #  SUBROUTINES USED-- NVSUB, FLAGUP, FLAGDOWN, ENDOFJOB, BLANKSUB, ABORT, JOBWAKE, JOBSLEEP, FINDVAC, PRIOCHNG,
000487:                                                                                                  #  JAMTERM, NVSUBUSY, FLASHON, ENDIDLE, CHANG1, BANKJUMP, MAKECADR, NOVAC,
000488:                                                                                                  #  DEBRIS-- (STORED INTO)
000489:
000490:                                                                                                  #       TEMPORARY TEMPORARIES- A, Q, L, MPAC +2, MPAC +3, MPAC +4, MPAC +5, MPAC +6, RUPTREG2, RUPTREG3, CYL,
000491:                                                                                                  #  EBANK, RUPTREG4, LOC, BANKSET, MODE, MPAC, MPAC +1                      4, FACEREG
000492:                                                                                                  #       ERASABLES(SHARED AND USED WITH OTHER PROGRAMS) CADRSTOR, DSPLIST, LOC, DSPTEM1, OPTION1
000493:                                                                                                  #       ERASABLES(USED ONLY BY DISPLAY ROUTINES)- NVWORD,+1,+2, DSPFLAG,+1,+2, CADRFLSH,+1,+2, PRIOTIME, FLAGWRD4,
000494:                                                                                                  # # Page 1427
000495:                                                                                                  #       R1SAVE, MARK2PAC
000496:
000497:
000498:                                                                                                  #  DEBRIS-- (USED BUT NOT STORED INTO)- NOUNREG, VERBREG, LOCCTR, MONSAVE1
000499:                                                                                                  #  FLAGWORD DESCRIPTIONS--
000500:                                                                                                  #      FLAGWRD4- SEE DESCRIPTION UNDER LOG SECTION ERASABLE ASSIGNMENTS
000501:
000502:                                                                                                  #      DSPFLG, DSPFLG+1, DSPFLG+2-
000503:                                                                                                  #      ---------------------------
000504:                                                                                                  #  BITS 1 BLANK R1
000505:                                                                                                  #       2 BLANK R2
000506:                                                                                                  #       3 BLANK R3
000507:                                                                                                  #       4 FLASHING DISPLAY REQUESTED
000508:                                                                                                  #       5 PERFORM DISPLAY REQUESTED
000509:                                                                                                  #       6 -----            EXDSPRET           GODSPRET
000510:                                                                                                  #       7 PRIO DISPLAY     -----               -----
000511:                                                                                                  #       8 -----         DEC MARK PERFORM      -----
000512:                                                                                                  #       9 EBANK
000513:                                                                                                  #      10 EBANK
000514:                                                                                                  #      11 EBANK
000515:                                                                                                  #      12 -----           -----       V99PASTE
000516:                                                                                                  #      13 2ND PART OF PERFORM
000517:                                                                                                  #      14 REFLASH OR REDO  -----           REFLASH OR REDO
000518:                                                                                                  #      15 -----          MARK REQUEST          -----
000519:                                                                                                  #  RESTARTING DISPLAYS--
000520:
000521:                                                                                                  #  RULES FOR THE DSKY OPERATOR--
000522:
000523:                                                                                                  #       1. PROCEED AND TERMINATE SERVE AS RESPONSES TO REQUESTS FOR OPERATOR RESPONSE (FLASHING V/N).  AS LONG
000524:                                                                                                  #          AS THERE IS ANY REQUEST AWAITING OPERATOR RESPONSE, ANY USE OF PROCEED OR TERMINATE WILL SERVE AS
000525:                                                                                                  #          RESPONSES TO THAT REQUEST.  CARE SHOULD BE EXERCISED IN ATTEMPTING TO KILL AN OPERATOR INITIATED MONITOR
000526:                                                                                                  #          WITH PROCEED AND TERMINATE FOR THIS REASON.
000527:                                                                                                  #       2. THE ASTRONAUT MUST RESPOND TO A PRIORITY DISPLAY NO SOONER THAN 5 SECS FROM THE TIME THE MISSION
000528:                                                                                                  #          PROGRAM SENT OUT THE REQUEST FOR OPERATOR RESPONSE (THE ASTRONAUT WOULD SEE THIS DISPLAY FOR LESS TIME
000529:                                                                                                  #          DUE TO TIME IT TAKES TO GET DISPLAY SENT OUT.) IF THE ASTRONAUT RESPONDS TOO SOON, THE PRIORITY DISPLAY
000530:                                                                                                  #          IS SENT OUT AGAIN---AND AGAIN UNTIL AN ACCUMULATED 2 SECS FROM TIME THE FIRST PRIORITY DISPLAY WAS SENT
000531:                                                                                                  #          OUT. THE SAME 5 SEC. DELAY WILL OCCUR AT 163.84 SECS OR IN ANY MULTIPLE OF THAT TIME DUE TO PROGRAM
000532:                                                                                                  #          CONSIDERATION.
000533:                                                                                                  #       3. KEY RELEASE BUTTON-
000534:                                                                                                  #          A) IF THE KEY RELEASE LIGHT IS ON, IT SIMPLY RELEASES THE KEYBOARD AND DISPLAY FOR INTERNAL USE.
000535:                                                                                                  #          B) IF THE KEY RELEASE LIGHT IS OFF, AND IF SOME REQUEST FOR OPERATOR RESPONSE (FLASHING V/N) IS STILL
000536:                                                                                                  #             AWAITING RESPONSE  THEN IT RE-ESTABLISHES THE DISPLAYS THAT ORIGINALLY REQUESTED RESPONSE.
000537:                                                                                                  #          IF AN OPERATOR WANTS THEREFORE TO RE-ESTABLISH BUT CONDITION (A) IS ENCOUNTERED, A SECOND DEPRESSION OF
000538:                                                                                                  #          KEY RELEASE BUTTON MAY BE NECESSARY.
000539:                                                                                                  #       4. IT IS IMPORTANT TO ANSWER ALL REQUESTS FOR OPERATOR RESPONSE.
000540:                                                                                                  #       5. IT IS ALWAYS GOOD PRACTICE TO TERMINATE AN EXTENDED VERB BEFORE ASKING FOR ANOTHER ONE OR THE SAME ONE
000541:                                                                                                  #          OVER AGAIN.
000542:
000543:
000544:                                                                                                  #  SPECIAL CONSIDERATONS--
000545:                                                                                                  # # Page 1428
000546:                                                                                                  #       1. MPAC +2  SAVED ONLY IN MARK DISPLAYS
000547:                                                                                                  #       2. GODSP(R),REGODSP(R),GOMARK(R) ALWAYS TURN ON THE FLASH IF ENTERED WITH A PASTE VERB REQUEST.
000548:                                                                                                  #       3. ALL NORMAL DISPLAYS ARE RESTARTABLE EXCEPT GODSP(R), REGODSP(R)
000549:                                                                                                  #       4. ALL EXTENDED VERBS WITH DISPLAYS SHOULD START WITH A TC TESTXACT AND FINISH WITH A TC ENDEXT.
000550:                                                                                                  #       5. GODSP(R) AND REGODSP(R) MUST BE IN THE SAME EBANK AND SUPERBANK AS THE LAST NORMAL DISPLAY RESTARTED
000551:                                                                                                  #          BY A .1 RESTART PHASE CHANGE.
000552:                                                                                                  #       6. IN ORDER TO SET UP A NON DISPLAY .1 RESTART POINT, THE USER MUST MAKE CERTAIN THAT RESTREG CONTAINS THE
000553:                                                                                                  #          CORRECT PRIORITY AND SUPERBANK AND THAT EBANKTEM CONTAINS THE CO
000554:                                                                                                  #       7. IF CLEANDSP IS RESTARTED VIA A .1 PHASE CHANGE, CAF ZERO SHOULD BE EXECUTED  BEFORE THE TC BANKCALL.
000555:
000556:                                                                                                  # # Page 1429
000557:                                                                                                  #  CALLING SEQUENCE FOR BLANKING
000558:                                                                                                  #                                                   CAF    BITX            X=1,2,3 BLANK R1,R2,R3 RESPECTIVELY
000559:                                                                                                  #                                                   TC     BLANKET
000560:                                                                                                  #                                                   ...    ...             RETURN TO USER HERE
000561:
000562:                                                                                                  #  IN ORDER TO USE BLANKET CORRECTLY THE USER MUST USE A DISPLAY ROUTINE THAT ENDS IN R FIRST FOLLOWED BY THE CALL
000563:                                                                                                  #  TO BLANKET AT THE IMMEDIATE RETURN LOC.
000564:
000565:    5415                                           BLOCK    02
000566:    4000                                           SETLOC   FFTAG4
000567:    4000                                           BANK
000568:
000569:    5415                                           COUNT    02/DSPLA
000570:
000571:    5415           54162        BLANKET            TS       MPAC       +6
000572:    5416           40160                           CS       PLAYTEM4
000573:    5417           70162                           MASK     MPAC       +6
000574:    5420           50161                           INDEX    MPAC       +5
000575:    5421           26160                           ADS      PLAYTEM4
000576:
000577:    5422           00002                           TC       Q
000578:
000579:    5423           04574        ENDMARK            TC       POSTJUMP
000580:    5424           20457                           CADR     MARKEND
000581:
000582:    5425           34714        CLEARMRK           CAF      ZERO
000583:    5426           55044                           TS       EXTVBACT
000584:
000585:    5427           00004                           INHINT
000586:    5430           44712                           CS       BIT1
000587:    5431           70100                           MASK     FLAGWRD4
000588:    5432           54100                           TS       FLAGWRD4
000589:
000590:    5433           00003                           RELINT
000591:    5434           00002                           TC       Q
000592:                                                                                                  #  *** ALL EXTENDED VERB ROUTINES THAT HAVE AT LEAST ONE FLASHING DISPLAY MUST TCF ENDMARK OR TCF ENDEXT WHEN
000593:                                                                                                  #  FINISHED.
000594:
000595: 10,2457                                           BANK     10
000596: 10,2000                                           SETLOC   DISPLAYS
000597: 10,2000                                           BANK
000598:
000599: 10,2457                                           COUNT    10/DSPLA
000600:
000601:                                                                                                  #  NTERONLY IS USED TO DIFFERENTIATE THE MARK ROUTINE WITH ONLY ONE RETURN TO THE USER FROM THE MARKING ROUTINE WIT
000602:                                                                                                  #  3 RETURNS TO THE USER. THIS ROUTINE IS ONLY USED BY GOMARK1 AND GOMARK1R.
000603:
000604: 10,2457           05425        MARKEND            TC       CLEARMRK
000605: 10,2460           13547                           TCF      MARKOVER
000606:
000607:                                                                                                  # # Page 1430
000608: 10,2461           54155        GOMARK             TS       PLAYTEM1                              #  ENTRANCE FOR MARK GODSP
000609:
000610: 10,2462           34674        GOMARS             CAF      BIT15                                 #  BIT15 SET FOR ALL MARK REQUESTS
000611: 10,2463           12626                           TCF      GOFLASH2
000612:
000613: 10,2464           34714        KLEENEX            CAF      ZERO                                  #  CLEAN OUT EXTENDED VERBS
000614: 10,2465           54155        GOMARKF            TS       PLAYTEM1                              #  ENTRANCE FOR MARK GOFLASH
000615:
000616: 10,2466           33157                           CAF      MARKFMSK                              #  MARK,FLASH
000617: 10,2467           12626                           TCF      GOFLASH2
000618:
000619: 10,2470           54155        GOMARK2            TS       PLAYTEM1                              #  MARK GOPERFS-3 AST. RETURNS
000620: 10,2471           33646        MARKFORM           CAF      MPERFMSK                              #  MARK, PERFORM, FLASH
000621: 10,2472           12626                           TCF      GOFLASH2
000622:
000623: 10,2473           54155        GOMARK3            TS       PLAYTEM1                              #  USED FOR 3COMP DECIMAL PERFORM
000624: 10,2474           33633                           CAF      MARK3MSK
000625: 10,2475           12626                           TCF      GOFLASH2
000626:
000627: 10,2476           54155        GOMARK4            TS       PLAYTEM1
000628: 10,2477           33634                           CAF      MARK4MSK                              #  MARK,PERFORM,FLASH,BLANK
000629: 10,2500           12626                           TCF      GOFLASH2
000630:
000631: 10,2501           54155        GOMARKR            TS       PLAYTEM1                              #  ENTRANCE FOR MARK GODSPR
000632:
000633: 10,2502           34674                           CAF      BIT15
000634: 10,2503           12604                           TCF      GODSPR2
000635:
000636: 10,2504           54155        GOMARKFR           TS       PLAYTEM1                              #  ENTRANCE FOR MARK GOFLASHR
000637:
000638: 10,2505           33157                           CAF      MARKFMSK
000639: 10,2506           12765                           TCF      GODSPRS
000640:
000641: 10,2507           54155        GOMARK2R           TS       PLAYTEM1                              #  MARK GOPERFS-3 AST. RETS+ IMMEDIATE RET.
000642: 10,2510           33646                           CAF      MPERFMSK                              #  MARK, PERFORM, FLASH
000643: 10,2511           12765                           TCF      GODSPRS
000644:
000645: 10,2512           54155        GOMARK3R           TS       PLAYTEM1
000646: 10,2513           33633                           CAF      MARK3MSK
000647: 10,2514           12765                           TCF      GODSPRS
000648:
000649: 10,2515           34712        MAKEMARK           CAF      ONE
000650: 10,2516           03063                           TC       COPIES
000651:
000652: 10,2517           30100                           CA       FLAGWRD4                              #  IS NORM OR PRIO BUSY OR WAITING
000653: 10,2520           73647                           MASK     OCT34300
000654: 10,2521           10000                           CCS      A
000655: 10,2522           12560                           TCF      CHKPRIO
000656:
000657: 10,2523           30100                           CA       FLAGWRD4                              #  IS MARK SLEEPING DUE TO ASTRO BUSY
000658:                                                                                                  # # Page 1431
000659: 10,2524           74702                           MASK     BIT9
000660:
000661: 10,2525           00006                           EXTEND
000662: 10,2526           12530                           BZF      MARKPLAY                              #  NO
000663:
000664: 10,2527           15112                           TCF      ENDOFJOB
000665:
000666: 10,2530           00004        MARKPLAY           INHINT
000667: 10,2531           44715                           CS       FIVE                                  #  RESET MARK OVER NORM, SET MARK
000668: 10,2532           70100                           MASK     FLAGWRD4
000669: 10,2533           64712                           AD       ONE
000670: 10,2534           54100                           TS       FLAGWRD4
000671: 10,2535           00003                           RELINT
000672:
000673: 10,2536           41070        GOGOMARK           CS       MARKFLAG                              #  PERFORM
000674: 10,2537           74706                           MASK     BIT5
000675: 10,2540           10000                           CCS      A
000676: 10,2541           12544                           TCF      MARKCOP
000677: 10,2542           40370                           CS       MARKNV
000678: 10,2543           54370                           TS       MARKNV
000679:
000680: 10,2544           34712        MARKCOP            CAF      ONE                                   #  MARK INDEX
000681: 10,2545           12744                           TCF      PRIOPLAY
000682:
000683: 10,2546           30165        COPYTOGO           CA       MPAC2SAV
000684: 10,2547           54156                           TS       MPAC       +2
000685:
000686: 10,2550           50164        COPYPACS           INDEX    COPINDEX
000687: 10,2551           33657                           CAF      PRIOOCT
000688: 10,2552           54162                           TS       GENMASK
000689:
000690: 10,2553           50164                           INDEX    COPINDEX
000691: 10,2554           31067                           CAF      EBANKSAV
000692: 10,2555           54160                           TS       TEMPOR2                               #  ACTIVE EBANK AND FLAG
000693:
000694: 10,2556           54003                           TS       EBANK
000695:
000696: 10,2557           00002                           TC       Q
000697:
000698:                                                                                                  #  PINCHEK CHECKS TO SEE IF THE CURRENT MARK REQUEST IS MADE BY THE ASTRONAUT WHILE INTERRUPTING A GOPLAY DISPLAY
000699:                                                                                                  #  (A NORMAL OR A PRIO). IF THE ASTRONAUT TRIES TO MARK DURING A PRIO, THE CHECK FAIL LIGHT GOES ON AND THE MARK
000700:                                                                                                  #  REQUEST IS ENDED. IF HE TRIES TO MARK DURING A NORM, THE MARK IS ALLOWED. IN THIS CASE THE NORM IS PUT TO SLEEP
000701:                                                                                                  #  UNTIL ALL MARKING IS FINISHED.
000702:
000703:                                                                                                  #       IF THE MARK REQUEST COMES FROM THE PROGRAM DURING A TIME THE ASTRONAUT IS NOT INTERRUPTING A NORMAL OR A
000704:                                                                                                  #  PRIO, THE MARK REQUEST IS PUT TO SLEEP UNTIL THE +RESENT ACTIVE DISPLAY IS RESPONDED TO BY THE ASTRONAUT.
000705:
000706: 10,2560           30100        CHKPRIO            CA       FLAGWRD4                              #  MARK ATTEMPT DURING PRIO
000707: 10,2561           73402                           MASK     OCT24100
000708: 10,2562           10000                           CCS      A
000709: 10,2563           13602                           TCF      MARSLEEP
000710:                                                                                                  # # Page 1432
000711: 10,2564           40100                           CS       FLAGWRD4
000712: 10,2565           74710                           MASK     BIT3                                  #  SET MARK OVER NORM
000713: 10,2566           00004                           INHINT
000714: 10,2567           26100                           ADS      FLAGWRD4
000715:
000716: 10,2570           12662                           TCF      SETNORM
000717:
000718: 10,2571           30370        MARKPERF           CA       MARKNV
000719: 10,2572           74160                           MASK     VERBMASK
000720: 10,2573           13246                           TCF      NV50DSP
000721:
000722: 10,2574           54155        GODSP              TS       PLAYTEM1
000723:
000724: 10,2575           34714        GODSP2             CAF      ZERO
000725: 10,2576           12626                           TCF      GOFLASH2
000726:
000727: 10,2577           54155        GODSPRET           TS       PLAYTEM1                              #  ENTRANCE FOR A GODSP WITH A PASTE
000728:
000729: 10,2600           34705                           CAF      BIT6                                  #  SET BIT6 TO GO BACK TO USER AFTER NVSUB
000730: 10,2601           12626                           TCF      GOFLASH2
000731:
000732: 10,2602           54155        GODSPR             TS       PLAYTEM1
000733:
000734: 10,2603           34714        GODSPR1            CAF      ZERO
000735: 10,2604           54160        GODSPR2            TS       PLAYTEM4
000736:
000737: 10,2605           34714                           CAF      ZERO                                  #  * DONT MOVE
000738: 10,2606           12767                           TCF      GODSPRS1
000739:
000740:                                                                                                  #       CLEANDSP IS USED FOR CLEARING OUT A NORMAL DISPLAY THAT IS PRESENTLY ACTIVE OR A NORMAL DISPLAY THAT IS
000741:                                                                                                  #  SET UP TO BE STARTED OR RESTARTED.
000742:
000743:                                                                                                  #       NORMALLY THE USER WILL NOT NEED TO USE THIS ROUTINE SINCE A NEW NORMAL DISPLAY AUTOMATICALLY CLEARS OUT AN
000744:                                                                                                  #  OLD DISPLAY.
000745:
000746:                                                                                                  #       CALLING SEQUENCE FOR CLEANDSP-
000747:
000748:                                                                                                  #                                                   TC     BANKCALL
000749:                                                                                                  #                                                   CADR   CLEANDSP
000750:
000751: 10,2607           34714        CLEANDSP           CAF      ZERO
000752: 10,2610           54155        REFLASH            TS       PLAYTEM1
000753:
000754: 10,2611           33632                           CAF      REDOMASK                              #  FLASH AND PERMIT
000755: 10,2612           12626                           TCF      GOFLASH2
000756:
000757: 10,2613           54155        REFLASHR           TS       PLAYTEM1
000758:
000759: 10,2614           33632                           CAF      REDOMASK                              #  FLASH AND PERMIT
000760: 10,2615           12765                           TCF      GODSPRS
000761:                                                                                                  # # Page 1433
000762: 10,2616           54155        REGODSP            TS       PLAYTEM1
000763:
000764: 10,2617           34675                           CAF      BIT14
000765: 10,2620           12626                           TCF      GOFLASH2
000766:
000767: 10,2621           54155        REGODSPR           TS       PLAYTEM1
000768:
000769: 10,2622           34675                           CAF      BIT14
000770: 10,2623           12604                           TCF      GODSPR2
000771:
000772: 10,2624           54155        GOFLASH            TS       PLAYTEM1
000773:
000774: 10,2625           34707                           CAF      BIT4                                  #  LEAVE ONLY FLASH BIT SET
000775: 10,2626           54160        GOFLASH2           TS       PLAYTEM4
000776:
000777: 10,2627           03050                           TC       SAVELOCS
000778:
000779: 10,2630           00003                           RELINT
000780:
000781: 10,2631           12674                           TCF      MAKEPLAY                              #  BRANCH DIRECT WITH NO SEPARATE JOB CALL
000782:
000783: 10,2632           54155        PRIODSPR           TS       PLAYTEM1
000784:
000785: 10,2633           33651                           CAF      BITS7+4
000786: 10,2634           12765                           TCF      GODSPRS
000787:
000788: 10,2635           54155        PRIODSP            TS       PLAYTEM1
000789:
000790: 10,2636           33651        SETPRIO            CAF      BITS7+4
000791: 10,2637           12626                           TCF      GOFLASH2
000792:
000793: 10,2640           34714        MAKEPRIO           CAF      ZERO
000794: 10,2641           54164                           TS       COPINDEX
000795:
000796: 10,2642           03522                           TC       LINUSCHR
000797: 10,2643           12650                           TCF      HIPRIO                                #  LINUS RETURN
000798: 10,2644           30100                           CA       FLAGWRD4
000799: 10,2645           73670                           MASK     OCT20100                              #  IS PRIO IN ENDIDLE OR BUSY
000800: 10,2646           10000                           CCS      A
000801: 10,2647           12723                           TCF      PRIOBORT                              #  YES, ABORT
000802:
000803: 10,2650           30100        HIPRIO             CA       FLAGWRD4                              #  MARK ACTIVE
000804: 10,2651           75612                           MASK     OCT40400
000805: 10,2652           00006                           EXTEND
000806: 10,2653           12656                           BZF      ASKIFNRM                              #  NO
000807:
000808: 10,2654           34714        SETMARK            CAF      ZERO
000809: 10,2655           13122                           TCF      JOBXCHS
000810:
000811: 10,2656           30100        ASKIFNRM           CA       FLAGWRD4                              #  NORMAL ACTIVE
000812:                                                                                                  # # Page 1434
000813: 10,2657           73666                           MASK     OCT10200                              #  BITS 13+8
000814: 10,2660           00006                           EXTEND
000815: 10,2661           12664                           BZF      OKTOCOPY                              #  NO
000816:
000817: 10,2662           34712        SETNORM            CAF      ONE
000818: 10,2663           13122                           TCF      JOBXCHS
000819:
000820: 10,2664           03062        OKTOCOPY           TC       COPYNORM
000821: 10,2665           03333                           TC       WITCHONE
000822:
000823: 10,2666           05074                           TC       JOBWAKE
000824:
000825: 10,2667           03350                           TC       XCHTOEND
000826:
000827: 10,2670           30025        REDOPRIO           CA       TIME1                                 #  SAVE TIME PRIODSP SENT OUT
000828: 10,2671           55147                           TS       PRIOTIME
000829:
000830: 10,2672           34714        KEEPPRIO           CAF      ZERO                                  #  START UP PRIO DISPLAY
000831: 10,2673           12744                           TCF      PRIOPLAY
000832:
000833: 10,2674           30167        MAKEPLAY           CA       PRIORITY                              #  SAVE USERS PRIORITY
000834: 10,2675           77674                           MASK     PRIO37
000835: 10,2676           54163                           TS       USERPRIO
000836:
000837: 10,2677           37670                           CAF      PRIO33                                #  RAISE PRIORITY FOR FAST JOBS AFTER WAKE
000838: 10,2700           05103                           TC       PRIOCHNG
000839:
000840: 10,2701           30160                           CA       PLAYTEM4                              #  IS IT MARK OR PRIO OR NORM
000841: 10,2702           73650                           MASK     BITS15+7
000842: 10,2703           10000                           CCS      A
000843: 10,2704           12640                           TCF      MAKEPRIO                              #  ITS PRIO
000844: 10,2705           12707                           TCF      IFLEGAL
000845: 10,2706           12515                           TCF      MAKEMARK                              #  ITS MARK
000846:
000847: 10,2707           34711        IFLEGAL            CAF      TWO
000848: 10,2710           54164                           TS       COPINDEX
000849:
000850: 10,2711           03522                           TC       LINUSCHR
000851:
000852: 10,2712           12725                           TCF      OKTOPLAY                              #  LINUS RETURN
000853: 10,2713           41071                           CS       EBANKTEM
000854: 10,2714           74707                           MASK     BIT4
000855: 10,2715           10000                           CCS      A
000856: 10,2716           12725                           TCF      OKTOPLAY                              #  NO
000857:
000858: 10,2717           30100                           CA       FLAGWRD4                              #  WAS NORM ASLEEP
000859: 10,2720           73641                           MASK     NBUSMASK                              #  ARE ANY NORMS ASLEEP
000860: 10,2721           00006                           EXTEND
000861: 10,2722           12725                           BZF      OKTOPLAY                              #  NO
000862:
000863:                                                                                                  # # Page 1435
000864: 10,2723           05622        PRIOBORT           TC       POODOO
000865: 10,2724           01502                           OCT      1502
000866:
000867: 10,2725           03064        OKTOPLAY           TC       COPIES2
000868:
000869: 10,2726           30163                           CA       USERPRIO
000870: 10,2727           00006                           EXTEND
000871: 10,2730           04007                           ROR      SUPERBNK
000872: 10,2731           54366                           TS       RESTREG
000873:
000874: 10,2732           30100                           CA       FLAGWRD4                              #  PRIO OR MARK GOING
000875: 10,2733           73642                           MASK     PMMASK
000876: 10,2734           10000                           CCS      A
000877: 10,2735           13102                           TCF      GOSLEEPS                              #  YES
000878:
000879: 10,2736           12740                           TCF      +2
000880: 10,2737           13102                           TCF      GOSLEEPS                              #  MARK GOING
000881:
000882:                                                                                                  #  COULD PUT NORM BUSY CHECK HERE TO SAVE TIME
000883: 10,2740           03333                           TC       WITCHONE                              #  IS IT NVSUB BUSY, ENDIDLE OR NOONE
000884: 10,2741           05074                           TC       JOBWAKE
000885:
000886: 10,2742           03350                           TC       XCHTOEND
000887:
000888: 10,2743           34711        PLAYJUM1           CAF      TWO
000889: 10,2744           54164        PRIOPLAY           TS       COPINDEX
000890:
000891: 10,2745           13216                           TCF      GOPLAY
000892:
000893: 10,2746           54155        EXDSPRET           TS       PLAYTEM1
000894:
000895: 10,2747           37703                           CAF      BIT15+6
000896: 10,2750           12626                           TCF      GOFLASH2
000897:
000898: 10,2751           55045        GOPERF1            TS       NORMTEM1                              #  STORE DESIRED CHECKLIST VALUE
000899: 10,2752           33624                           CAF      V01N25                                #  USED TO DISPLAY CHECKLIST VALUE IN R1
000900:
000901: 10,2753           54155        GOPERFS            TS       PLAYTEM1
000902:
000903: 10,2754           33623                           CAF      PERFMASK                              #  LEAVE ONLY FLASH, PERFORM, BLANKING
000904: 10,2755           12626                           TCF      GOFLASH2
000905:
000906: 10,2756           54155        GOPERF2            TS       PLAYTEM1                              #  DESIRED VERB-NOUN TO DISPLAY R1,R2,R3
000907:
000908: 10,2757           33627                           CAF      PERF2MSK
000909: 10,2760           12626                           TCF      GOFLASH2
000910:
000911: 10,2761           03043        GOPERF4            TC       PURRS4
000912:
000913: 10,2762           12626                           TCF      GOFLASH2
000914:                                                                                                  # # Page 1436
000915: 10,2763           54155        GOFLASHR           TS       PLAYTEM1
000916:
000917: 10,2764           34707                           CAF      BIT4                                  #  LEAVE ONLY FLASH BIT SET
000918: 10,2765           54160        GODSPRS            TS       PLAYTEM4
000919:
000920: 10,2766           36214                           CAF      THREE
000921:
000922: 10,2767           00004        GODSPRS1           INHINT                                         #  IMMEDIATE RETURN IS CALL CADR +4
000923: 10,2770           54072                           TS       RUPTREG3
000924:
000925: 10,2771           30167                           CA       PRIORITY                              #  MAKE DISPLAY ONE HIGHER THAN USER
000926: 10,2772           77674                           MASK     PRIO37
000927: 10,2773           54063                           TS       NEWPRIO
000928:
000929: 10,2774           30160                           CA       PLAYTEM4                              #  IS THIS A FLASHING R DISPLAY
000930: 10,2775           74707                           MASK     BIT4
000931: 10,2776           10000                           CCS      A
000932: 10,2777           13005                           TCF      VACDSP                                #  YES, MAKE DSPLAY JOB A VAC
000933: 10,3000           30063                           CA       NEWPRIO                               #  NO, MAKE DSPLAY JOB A NOVAC
000934: 10,3001           05027                           TC       NOVAC
000935: 10,3002  0003777                                  EBANK=   WHOCARES
000936: 10,3002           02674 20107                     2CADR    MAKEPLAY
000937: 10,3004           13013                           TCF      BOTHJOBS
000938:
000939: 10,3005           30006        VACDSP             CA       BBANK
000940: 10,3006           00006                           EXTEND
000941: 10,3007           04007                           ROR      SUPERBNK
000942: 10,3010           54001                           TS       L
000943: 10,3011           33665                           CAF      MAKEGEN
000944: 10,3012           05053                           TC       SPVAC
000945:
000946: 10,3013           03050        BOTHJOBS           TC       SAVELOCS                              #  COPY TEMPS INTO PERMANENT REGISTERS
000947:
000948: 10,3014           00006                           EXTEND                                         #  SAVE NVWORD AND USERS MPAC +2
000949: 10,3015           30156                           DCA      MPAC       +1
000950: 10,3016           50064                           INDEX    LOCCTR
000951: 10,3017           52156                           DXCH     MPAC       +1
000952:
000953: 10,3020           00006                           EXTEND                                         #  SAVE USERS CADR, FLAGS AND EBANK
000954: 10,3021           30160                           DCA      MPAC       +3
000955: 10,3022           50064                           INDEX    LOCCTR
000956: 10,3023           52160                           DXCH     MPAC       +3
000957:
000958: 10,3024           30064                           CA       LOCCTR
000959: 10,3025           54161                           TS       MPAC       +5
000960:
000961: 10,3026           03055                           TC       SAVELOCR
000962: 10,3027           00003                           RELINT
000963:
000964:                                                                                                  # # Page 1437
000965: 10,3030           14577                           TCF      BANKJUMP                              #  CALL CADR +4
000966:
000967: 10,3031           55045        GOPERF1R           TS       NORMTEM1                              #  DESIRED CHECKLIST VALUE
000968:
000969: 10,3032           33624                           CAF      V01N25                                #  DISPLAYS CHECKLIST VALUE IN R1
000970:
000971: 10,3033           54155        GOPERFRS           TS       PLAYTEM1
000972:
000973: 10,3034           33623                           CAF      PERFMASK                              #  LEAVE ONLY FLASH, PERFORM, BLANKING
000974: 10,3035           12765                           TCF      GODSPRS
000975:
000976: 10,3036           54155        GOPERF2R           TS       PLAYTEM1                              #  DESIRED VERB-NOUN TO DISPLAY R1,R2,R3
000977:
000978: 10,3037           33627                           CAF      PERF2MSK
000979: 10,3040           12765                           TCF      GODSPRS
000980:
000981: 10,3041           03043        GOPERF4R           TC       PURRS4
000982:
000983: 10,3042           12765                           TCF      GODSPRS
000984:
000985: 10,3043           55131        PURRS4             TS       OPTION1                               #  DESIRED OPTION CODE
000986:
000987: 10,3044           33630                           CAF      V04N06
000988: 10,3045           54155                           TS       PLAYTEM1
000989:
000990: 10,3046           33631                           CAF      PERF4MSK                              #  FLASH,PERFORM AND EBANK R3
000991: 10,3047           00002                           TC       Q
000992:
000993: 10,3050           00004        SAVELOCS           INHINT
000994:
000995: 10,3051           43640                           CS       OCT3400                               #  EBANK BITS
000996: 10,3052           70160                           MASK     PLAYTEM4
000997: 10,3053           60003                           AD       EBANK
000998: 10,3054           54160                           TS       PLAYTEM4
000999:
001000: 10,3055           22002        SAVELOCR           LXCH     Q
001001:
001002: 10,3056           04604                           TC       MAKECADR
001003: 10,3057           54157                           TS       PLAYTEM3
001004:
001005: 10,3060           60072                           AD       RUPTREG3                              #  NOT USED FOR NON R ROUTINES
001006: 10,3061           00001                           TC       L
001007:
001008: 10,3062           34714        COPYNORM           CAF      ZERO
001009: 10,3063           54164        COPIES             TS       COPINDEX
001010: 10,3064           00004        COPIES2            INHINT
001011: 10,3065           30160                           CA       PLAYTEM4                              #  FLAGWORD
001012: 10,3066           50164                           INDEX    COPINDEX
001013: 10,3067           55067                           TS       EBANKSAV                              #  EQUIV TO DSPFLG
001014:
001015:                                                                                                  # # Page 1438
001016: 10,3070           73656                           MASK     CADRMASK                              #  FLASH AND GODSPRET
001017: 10,3071           00006                           EXTEND
001018: 10,3072           13076                           BZF      SKIPADD
001019:
001020: 10,3073           30157                           CA       PLAYTEM3
001021: 10,3074           50164                           INDEX    COPINDEX
001022: 10,3075           54372                           TS       CADRFLSH
001023:
001024: 10,3076           30155        SKIPADD            CA       PLAYTEM1                              #  VERB NOUN
001025: 10,3077           50164                           INDEX    COPINDEX
001026: 10,3100           54367                           TS       NVWORD
001027:
001028: 10,3101           13357                           TCF      RELINTQ
001029:
001030: 10,3102           50164        GOSLEEPS           INDEX    COPINDEX
001031: 10,3103           33657                           CA       PRIOOCT
001032: 10,3104           73106                           MASK     WAITMASK
001033: 10,3105           07717                           TC       UPENT2
001034: 10,3106           03004        WAITMASK           OCT      3004
001035: 10,3107           44712                           CS       ONE
001036: 10,3110           60164                           AD       COPINDEX
001037: 10,3111           54154                           TS       FACEREG
001038:
001039: 10,3112           50154        XCHSLEEP           INDEX    FACEREG
001040: 10,3113           33636                           CAF      WAKECADR
001041: 10,3114           00004                           INHINT
001042: 10,3115           05074                           TC       JOBWAKE                               #  FIND CADR IN JOB AREA
001043:
001044: 10,3116           03350                           TC       XCHTOEND                              #  CAUSES AWAKENED JOB TO GO TO ENDOFJOB
001045:
001046: 10,3117           50154                           INDEX    FACEREG                               #  REPLACE SAME CADR BUT NEW JOB AREA
001047: 10,3120           33636                           CAF      WAKECADR
001048: 10,3121           15070                           TCF      JOBSLEEP
001049:
001050: 10,3122           54154        JOBXCHS            TS       FACEREG                               #  CONTROLS TYPE OF DISPLAY PUT TO SLEEP
001051: 10,3123           03333                           TC       WITCHONE
001052: 10,3124           05074                           TC       JOBWAKE
001053: 10,3125           30154                           CA       FACEREG
001054: 10,3126           50064                           INDEX    LOCCTR
001055: 10,3127           54154                           TS       FACEREG
001056:
001057: 10,3130           33143                           CAF      XCHQADD
001058: 10,3131           03351                           TC       XCHNYLOC
001059:
001060: 10,3132           50154                           INDEX    FACEREG
001061: 10,3133           33660                           CA       MARKOCT
001062: 10,3134           73662                           MASK     IDLESLEP
001063: 10,3135           07735                           TC       DOWNENT2
001064: 10,3136           74004        IDLEMASK           OCT      74004                                 #  * DONT MOVE
001065:
001066:                                                                                                  # # Page 1439
001067: 10,3137           50154                           INDEX    FACEREG                               #  BIT SHOWS PRIO INTERRUPTED NORM OR MARK
001068: 10,3140           34706                           CA       BIT5                                  #  BIT5 FOR MARK, BIT4 FOR NORMAL
001069: 10,3141           64710                           AD       FOUR
001070: 10,3142           07717                           TC       UPENT2                                #  FLAG ROUTINE DOES RELINT
001071: 10,3143           03112        XCHQADD            GENADR   XCHSLEEP                              #  * DONT MOVE
001072: 10,3144           30100                           CA       FLAGWRD4
001073: 10,3145           74710                           MASK     BIT3                                  #  IF BIT3 THEN MARK OVER NORM
001074: 10,3146           10000                           CCS      A
001075: 10,3147           02530        GENMARK            TC       MARKPLAY                              #  USED AS GENADR FOR JOBWAKE
001076: 10,3150           12664                           TCF      OKTOCOPY
001077:
001078: 10,3151           34714        MARKWAKE           CAF      ZERO
001079: 10,3152           54160        WAKEPLAY           TS       TEMPOR2
001080:
001081: 10,3153           50160                           INDEX    TEMPOR2
001082: 10,3154           33652                           CA       BITS5+11
001083: 10,3155           64710                           AD       FOUR
001084: 10,3156           07735                           TC       DOWNENT2
001085: 10,3157           40010        MARKFMSK           OCT      40010                                 #  ***DONT MOVE
001086:
001087: 10,3160           50160                           INDEX    TEMPOR2
001088: 10,3161           33636                           CAF      WAKECADR
001089: 10,3162           00004                           INHINT
001090: 10,3163           05074                           TC       JOBWAKE
001091:
001092: 10,3164           13463                           TCF      ENDRET
001093:
001094:                                                                                                  #       ALL .1 RESTARTS BRANCH DIRECTLY TO INITDSP. NORMAL DISPLAYS ARE THE ONLY DISPLAYS ALLOWED TO USE .1 RESTARTS
001095:                                                                                                  #  INITDSP FIRST RESTORES THE EBANK AND THE SUPERBANK TO THE MOST RECENT NORMAL EBANK AND SUPERBANK.
001096:                                                                                                  #       IF THE MOST RECENT NORMAL DISPLAY REQUEST WAS NOT FINISHED, CONTROL IS SENT BACK TO THE LAST NORMAL USER.
001097:                                                                                                  #  OTHERWISE THE NORMAL DISPLAY SET UP IN THE NORMAL DISPLAY REGS IS STARTED UP IMMEDIATELY.
001098:
001099: 10,3165           31071        INITDSP            CA       EBANKTEM                              #  RESTORE MOST RECECT NORMAL EBANK
001100: 10,3166           54003                           TS       EBANK
001101:
001102: 10,3167           30366                           CA       RESTREG                               #  SUPERBANK AND JOB PRIORITY
001103: 10,3170           04666                           TC       SUPERSW                               #  RESTORE SUPERBANK
001104:
001105: 10,3171           77674                           MASK     PRIO37
001106: 10,3172           05103                           TC       PRIOCHNG
001107:
001108: 10,3173           46214                           CS       THREE
001109: 10,3174           60374                           AD       TEMPFLSH
001110: 10,3175           14577                           TCF      BANKJUMP
001111:
001112: 10,3176           00003        PINBRNCH           RELINT                                         #  FOR GOPIN USERS
001113: 10,3177           31072                           CA       MARK2PAC                              #  NEEDED TO SAVE MPAC +2 FOR MARK USERS
001114: 10,3200           54156                           TS       MPAC       +2                         #  ONLY
001115:
001116: 10,3201           30100                           CA       FLAGWRD4                              #  PINBRANCH CONDITION
001117:                                                                                                  # # Page 1440
001118: 10,3202           77707                           MASK     PINMASK
001119: 10,3203           10000                           CCS      A
001120: 10,3204           13207                           TCF      +3
001121: 10,3205           13617                           TCF      ERASER                                #  ** NOTHING IN ENDIDLE
001122: 10,3206           12530                           TCF      MARKPLAY
001123:
001124: 10,3207           05435        NORMBNCH           TC       UPFLAG                                #  SET PINBRANCH BIT
001125: 10,3210           00105                           ADRES    PINBRFLG
001126:
001127: 10,3211           34675                           CAF      BIT14                                 #  PRIO INTERRUPTED
001128: 10,3212           70100                           MASK     FLAGWRD4
001129: 10,3213           10000                           CCS      A
001130: 10,3214           12672                           TCF      KEEPPRIO
001131:
001132: 10,3215           12743                           TCF      PLAYJUM1
001133:
001134: 10,3216           02550        NVDSP              TC       COPYPACS
001135:
001136: 10,3217           30160                           CA       TEMPOR2                               #  SET UP BLANK BITS FOR NVMONOPT IN CASE
001137: 10,3220           74716                           MASK     SEVEN                                 #  USER REQUESTS BLANKING MONITOR
001138: 10,3221           54001                           TS       L
001139:
001140: 10,3222           44676                           CS       BIT13
001141: 10,3223           50164                           INDEX    COPINDEX
001142: 10,3224           71067                           MASK     DSPFLG
001143: 10,3225           50164                           INDEX    COPINDEX
001144: 10,3226           55067                           TS       DSPFLG
001145:
001146: 10,3227           74703                           MASK     BIT8                                  #  BIT8 SET IF DEC MARK PERFORM DISPLAY
001147: 10,3230           54141                           TS       TEM1
001148:
001149: 10,3231           30156                           CA       MPAC       +2
001150: 10,3232           54165                           TS       MPAC2SAV
001151:
001152: 10,3233           55072                           TS       MARK2PAC                              #  * FOR DISK ONLY *
001153: 10,3234           50164                           INDEX    COPINDEX
001154: 10,3235           10367                           CCS      NVWORD
001155: 10,3236           13245                           TCF      NVDSP1
001156: 10,3237           13361                           TCF      CLEANEND
001157: 10,3240           40370                           CS       MARKNV
001158: 10,3241           54370                           TS       MARKNV                                #  IN CASE MARKPLAY AWAKENED AFTER SLEEPING
001159: 10,3242           76043                           MASK     LOW7
001160: 10,3243           63643                           AD       V05N00M1
001161: 10,3244           60141                           AD       TEM1
001162: 10,3245           64712        NVDSP1             AD       ONE
001163: 10,3246           04171        NV50DSP            TC       NVMONOPT
001164: 10,3247           13373                           TCF      REST                                  #  IF BUSY
001165: 10,3250           04447                           TC       FLASHOFF                              #  IN CASE OF EXTENDED VERB NON FLASH
001166:
001167: 10,3251           02546                           TC       COPYTOGO                              #  MPACS DESTROYED BY NVSUB
001168:                                                                                                  # # Page 1441
001169: 10,3252           05447                           TC       DOWNFLAG                              #  UNSET SLEEPING BITS
001170: 10,3253           00102                           ADRES    MRKNVFLG
001171: 10,3254           05447                           TC       DOWNFLAG
001172: 10,3255           00103                           ADRES    NRMNVFLG
001173: 10,3256           05447                           TC       DOWNFLAG
001174: 10,3257           00104                           ADRES    PRONVFLG
001175: 10,3260           30160        BLANKCHK           CA       TEMPOR2                               #  BLANK BITS 1,2,3 IF SET
001176: 10,3261           04271                           TC       BLANKSUB
001177: 10,3262           13216                           TCF      NVDSP
001178: 10,3263           34706        PERFCHEK           CAF      BIT5                                  #  BIT 5 FOR PERFORM
001179: 10,3264           70160                           MASK     TEMPOR2
001180: 10,3265           10000                           CCS      A                                     #  IS THIS A GOPERF DISPLAY
001181: 10,3266           13311                           TCF      1STOR2ND                              #  YES
001182:
001183: 10,3267           34707        GOANIDLE           CAF      BIT4
001184: 10,3270           70160                           MASK     TEMPOR2
001185: 10,3271           10000                           CCS      A
001186: 10,3272           13406                           TCF      FLASHSUB                              #  IT IS
001187:
001188: 10,3273           40160                           CS       TEMPOR2                               #  IS THIS A GODSPRET
001189: 10,3274           74705                           MASK     BIT6
001190: 10,3275           10000                           CCS      A
001191: 10,3276           13303                           TCF      ISITN00
001192:
001193: 10,3277           50164                           INDEX    COPINDEX
001194: 10,3300           30372                           CA       CADRFLSH
001195: 10,3301           54157                           TS       MPAC       +3
001196: 10,3302           13501                           TCF      ENDIT
001197:
001198: 10,3303           50164        ISITN00            INDEX    COPINDEX                              #  IS THIS A PASTE
001199: 10,3304           30367                           CA       NVWORD
001200: 10,3305           76043                           MASK     LOW7                                  #  CHECK MADE FOR PINBRNCH AND PRIO ON MARK
001201: 10,3306           00006                           EXTEND
001202: 10,3307           13406                           BZF      FLASHSUB                              #  YES, ASSUME PASTE ALWAYS ON FLASH
001203:
001204: 10,3310           15112                           TCF      ENDOFJOB                              #  NOT FLASH, NOT GOPERF, THEREFORE EXIT
001205:
001206: 10,3311           30160        1STOR2ND           CA       TEMPOR2
001207: 10,3312           74676                           MASK     BIT13
001208: 10,3313           10000                           CCS      A
001209: 10,3314           13267                           TCF      GOANIDLE                              #  SECOND
001210:
001211: 10,3315           34676                           CA       BIT13
001212: 10,3316           50164                           INDEX    COPINDEX
001213: 10,3317           27067                           ADS      DSPFLG
001214:
001215: 10,3320           22007                           ZL
001216: 10,3321           00006                           EXTEND                                         #  IS IT MARK
001217: 10,3322           62571                           BZMF     MARKPERF                              #  YES
001218:
001219:                                                                                                  # # Page 1442
001220: 10,3323           74677                           MASK     BIT12
001221: 10,3324           00006                           EXTEND
001222: 10,3325           13331                           BZF      V50PASTE
001223: 10,3326           41145                           CS       NVWORD1                               #  NVOWRD1= -0 IS V97. NVWORD1= -400 IS V99
001224: 10,3327           63667                           AD       V97N00
001225: 10,3330           13246                           TCF      NV50DSP
001226: 10,3331           33626        V50PASTE           CAF      V50N00
001227: 10,3332           13246                           TCF      NV50DSP                               #  DISPLAY SECOND PART OF GOPERF
001228:
001229: 10,3333           44706        WITCHONE           CS       BIT5                                  #  TURN OFF KEY RELEASE LIGHT
001230: 10,3334           00006                           EXTEND
001231: 10,3335           03011                           WAND     DSALMOUT
001232:
001233: 10,3336           30100                           CA       FLAGWRD4
001234: 10,3337           73644                           MASK     NVBUSMSK                              #  IS IT NVSUB ASLEEP
001235: 10,3340           10000                           CCS      A
001236: 10,3341           34712                           CAF      ONE
001237: 10,3342           54001                           TS       L
001238: 10,3343           34714                           CAF      ZERO
001239: 10,3344           50001                           INDEX    L
001240: 10,3345           57042                           XCH      CADRSTOR
001241:
001242: 10,3346           00004                           INHINT
001243: 10,3347           00002                           TC       Q
001244:
001245: 10,3350           34233        XCHTOEND           CAF      ENDINST                               #  TC ENDOFJOB REPLACES GENADR IN LOC FOR
001246: 10,3351           56064        XCHNYLOC           XCH      LOCCTR                                #  WAS THIS ADDRESS SLEEPING
001247: 10,3352           00006                           EXTEND
001248: 10,3353           63357                           BZMF     RELINTQ                               #  NO
001249: 10,3354           56064                           XCH      LOCCTR                                #  YES
001250: 10,3355           50064                           INDEX    LOCCTR
001251: 10,3356           54164                           TS       LOC
001252:
001253: 10,3357           00003        RELINTQ            RELINT
001254: 10,3360           00002                           TC       Q                                     #  BACK TO USER
001255:
001256: 10,3361           37667        CLEANEND           CAF      PRIO32                                #  ONE LOWER THAN DISPLAYS SLEEPING
001257: 10,3362           05042                           TC       FINDVAC
001258: 10,3363     0371                                  EBANK=   NVSAVE
001259: 10,3363           04245 04100                     2CADR    JAMTERM
001260:
001261: 10,3365           13407                           TCF      FLASHSUB   +1
001262:
001263: 10,3366           30100        ISITPRIO           CA       FLAGWRD4
001264: 10,3367           73414                           MASK     ITISMASK                              #  IS PINBRFLG, MARKIDFLG SET
001265: 10,3370           00006                           EXTEND
001266: 10,3371           12723                           BZF      PRIOBORT
001267: 10,3372           15112                           TCF      ENDOFJOB
001268:
001269:                                                                                                  # # Page 1443
001270: 10,3373           11042        REST               CCS      CADRSTOR                              #  IS SOMEONE IN ENDIDLE
001271: 10,3374           15112                           TCF      ENDOFJOB                              #  YES
001272: 10,3375           13377                           TCF      RESTSLEP
001273:
001274: 10,3376           15112                           TCF      ENDOFJOB
001275:
001276: 10,3377           30162        RESTSLEP           CA       GENMASK                               #  SET NVSLEEP BITS
001277: 10,3400           73645                           MASK     ASTROMSK
001278: 10,3401           07717                           TC       UPENT2
001279: 10,3402           24100        OCT24100           OCT      24100                                 #  *** DONT MOVE
001280:
001281: 10,3403           50164                           INDEX    COPINDEX
001282: 10,3404           33635                           CAF      NVCADR
001283: 10,3405           04456                           TC       NVSUBUSY                              #  BUSY OR ABORT IF ILLEGAL
001284:
001285: 10,3406           04443        FLASHSUB           TC       FLASHON
001286:
001287: 10,3407           30164                           CA       COPINDEX                              #  COPINDEX DESTROYED BY ENDIDLE
001288: 10,3410           54157                           TS       COPMPAC
001289:
001290: 10,3411           30162                           CA       GENMASK
001291: 10,3412           73136                           MASK     IDLEMASK
001292: 10,3413           07717                           TC       UPENT2
001293: 10,3414           40040        ITISMASK           OCT      40040                                 #  *** ENDIDLE ALLOW *** DONT MOVE
001294:
001295: 10,3415           31073                           CA       R1SAVE                                #  IS THIS A REPEAT AND RETURN DISPLAY
001296: 10,3416           50164                           INDEX    COPINDEX
001297: 10,3417           74710                           MASK     BIT3
001298: 10,3420           10000                           CCS      A
001299: 10,3421           13506                           TCF      UNSETR1                               #  YES
001300:
001301: 10,3422           11042                           CCS      CADRSTOR                              #  SEE IF SOMEONE ALREADY IN ENDIDLE
001302: 10,3423           13366                           TCF      ISITPRIO
001303: 10,3424           13426                           TCF      +2
001304: 10,3425           13366                           TCF      ISITPRIO
001305:
001306: 10,3426           04223                           TC       ENDIDLE
001307: 10,3427           13520        IDLERET1           TCF      TERMATE
001308:
001309: 10,3430           13537                           TCF      PROCEED                               #  ENDIDLE RETURNS HERE ON PROCEED
001310:
001311: 10,3431           43654                           CS       LOWLOAD
001312: 10,3432           60154                           AD       MPAC                                  #  VERBREG
001313: 10,3433           00006                           EXTEND
001314: 10,3434           26000                           DIM      A
001315: 10,3435           00006                           EXTEND
001316: 10,3436           13607                           BZF      LOADITIS                              #  V21 OR V22 OR V23 ON DSKY
001317: 10,3437           34711        OKTOENT            CAF      TWO
001318: 10,3440           54161        ENDOUT             TS       OUTHERE
001319:
001320:                                                                                                  # # Page 1444
001321: 10,3441           30100                           CA       FLAGWRD4                              #  CHECK NATURE OF ENDIDLE RETURN
001322: 10,3442           74105                           MASK     OCT60000
001323: 10,3443           10000                           CCS      A
001324: 10,3444           13447                           TCF      TIMECHEK                              #  PRIO ENDIDLE RETURN
001325: 10,3445           13555                           TCF      NORMRET                               #  NORMAL ENDIDLE RETURN
001326: 10,3446           13541                           TCF      MARKRET                               #  MARK ENDIDLE RETURN
001327:
001328: 10,3447           40025        TIMECHEK           CS       TIME1
001329: 10,3450           61147                           AD       PRIOTIME
001330: 10,3451           10000                           CCS      A
001331: 10,3452           40000                           COM
001332: 10,3453           67700                           AD       OCT37776
001333: 10,3454           64712                           AD       ONE
001334: 10,3455           63677                           AD       -2SEC
001335: 10,3456           00006                           EXTEND
001336: 10,3457           62672                           BZMF     KEEPPRIO
001337:
001338: 10,3460           13555                           TCF      NORMRET
001339:
001340: 10,3461           34712        NORMWAKE           CAF      ONE
001341: 10,3462           13152                           TCF      WAKEPLAY
001342:
001343: 10,3463           10161        ENDRET             CCS      OUTHERE
001344: 10,3464           64712                           AD       ONE
001345: 10,3465           13467                           TCF      +2                                    #  NORMAL ENDIDLE EXIT
001346: 10,3466           15112                           TCF      ENDOFJOB
001347: 10,3467           50157                           INDEX    COPMPAC
001348: 10,3470           60372                           AD       CADRFLSH
001349: 10,3471           54157                           TS       MPAC       +3
001350:
001351: 10,3472           30162                           CA       GENMASK                               #  REMOVE ENDIDLE AND PINBRANCH BITS
001352: 10,3473           73475                           MASK     PINIDMSK
001353: 10,3474           07735                           TC       DOWNENT2
001354: 10,3475           74044        PINIDMSK           OCT      74044                                 #  *** DONT MOVE
001355:
001356: 10,3476           46214                           CS       THREE                                 #  BLANK EVERYTHING EXCEPT MM
001357: 10,3477           04170                           TC       NVSUB
001358: 10,3500           13501                           TCF      +1
001359:
001360: 10,3501           30163        ENDIT              CA       USERPRIO                              #  RETURN TO USERS PRIORITY
001361: 10,3502           77674                           MASK     PRIO37
001362: 10,3503           05103                           TC       PRIOCHNG
001363: 10,3504           30157                           CA       MPAC       +3
001364: 10,3505           14577                           TCF      BANKJUMP
001365:
001366: 10,3506           50164        UNSETR1            INDEX    COPINDEX                              #  RESET REPEAT AND RETURN REQUEST
001367: 10,3507           44710                           CS       BIT3
001368: 10,3510           71073                           MASK     R1SAVE
001369: 10,3511           55073                           TS       R1SAVE
001370:
001371:                                                                                                  # # Page 1445
001372: 10,3512           34714                           CAF      ZERO                                  #  *** 205 ONLY MARKBRAN USERS IN
001373: 10,3513           04666                           TC       SUPERSW                               #  SUPERBANK 0
001374:
001375: 10,3514           36214        -1                 CAF      THREE                                 #  RETURN TO USERS IMMEDIATE RETURN LOC
001376: 10,3515           50164        IMMEDRET           INDEX    COPINDEX
001377: 10,3516           60372                           AD       CADRFLSH
001378: 10,3517           14577                           TCF      BANKJUMP
001379:
001380: 10,3520           34714        TERMATE            CAF      ZERO                                  #  ASTRONAUT TERMINATE (V34) RETURNS TO
001381: 10,3521           13440                           TCF      ENDOUT
001382:
001383: 10,3522           40160        LINUSCHR           CS       PLAYTEM4                              #  IS THIS A LINUS
001384: 10,3523           74675                           MASK     BIT14
001385: 10,3524           10000                           CCS      A
001386: 10,3525           16706                           TCF      Q+1                                   #  NO
001387: 10,3526           40157                           CS       PLAYTEM3                              #  YES, IS IT ALREADY IN ENDIDLE
001388: 10,3527           50164                           INDEX    COPINDEX
001389: 10,3530           60372                           AD       CADRFLSH
001390: 10,3531           00006                           EXTEND
001391: 10,3532           13534                           BZF      +2                                    #  YES
001392:
001393: 10,3533           00002                           TC       Q                                     #  NO
001394: 10,3534           11012                           CCS      DSPLOCK                               #  IS THE ASTRONAUT BUSY
001395: 10,3535           05112                           TC       ENDOFJOB                              #  END THE NEW DISPLAY, ITS ALREADY ACTIVE
001396: 10,3536           00002                           TC       Q
001397:
001398:                                                                                                  #  MORE LOGIC COULD BE INCORPORATED HERE TO MAKE SURE A RECYCLE IS A RECYCLAND CONVERSLY THAT A LOAD IS A LOAD.
001399: 10,3537           34712        PROCEED            CAF      ONE                                   #  ASTRONAUT PROCEED (V33) RETURNS
001400: 10,3540           13440                           TCF      ENDOUT
001401:
001402:                                                                                                  #       LASTPLAY CHECKS TO SEE IF (1) THE LAST NORMAL DISPLAY WAS EITHER INTERRUPTED BY A PRIO OR A MARK (MARK
001403:                                                                                                  #  COULD ONLY HAPPEN DURING PINBRANCH) OR IF (2) THE LAST NORMAL DISPLAY WAS REQUESTED WHILE A HIGHER PRIORITY
001404:                                                                                                  #  DISPLAY WAS GOING RESULTING IN THE NORMAL BEING PUT TO SLEEP.
001405:
001406:                                                                                                  #       IF EITHER OF THE ABOVE 2 CONDITIONS EXISTS , THE NORMAL DISPLAY IS AWAKENED TO GO TO PLAYJUM1 WHICH STARTS
001407:                                                                                                  #  UP THE MOST RECENT VALID NORMAL DISPLAY. IF THESE 2 CONDITIONS DO NOT EXIST, CONTROL GOES TO PLAYJUM1 WHICH IS
001408:                                                                                                  #  STARTED IMMEDIATELY WITH THE ASSUMPTION THAT THE MOST RECENT NORMAL DISPLAY IS ALREADY IN-ENDIDLE(DURING A
001409:                                                                                                  #  PINBRANCH) OR THAT A RESTART HAS OCCURRED AND THE DISPLAY CAN BE STARTED AS A .1 RESTART.
001410:
001411: 10,3541           46211        MARKRET            CS       SIX
001412: 10,3542           70100                           MASK     FLAGWRD4
001413: 10,3543           00004                           INHINT                                         #  *** MAY MOVE DISPLAY FLAGWORD OUT OF
001414: 10,3544           54100                           TS       FLAGWRD4
001415:
001416: 10,3545           00003                           RELINT                                         #  INHINT REALM
001417: 10,3546           13463                           TCF      ENDRET
001418:
001419: 10,3547           37716        MARKOVER           CAF      MINUS1                                #  RUPTREG2 IS - MEANS ENDOFJOB TO ENDRET
001420: 10,3550           54161                           TS       OUTHERE
001421:
001422:                                                                                                  # # Page 1446
001423: 10,3551           30100                           CA       FLAGWRD4                              #  IS ENDIDFLG SET
001424: 10,3552           74371                           MASK     PRIO30                                #  IS NORMAL OR PRIO IN ENDIDLE
001425: 10,3553           10000                           CCS      A
001426: 10,3554           13207                           TCF      NORMBNCH
001427:
001428: 10,3555           30100        NORMRET            CA       FLAGWRD4                              #  IS MARK SLEEPING
001429: 10,3556           73652                           MASK     BITS5+11                              #  OR WAITING
001430: 10,3557           10000                           CCS      A
001431: 10,3560           13151                           TCF      MARKWAKE
001432:
001433: 10,3561           30100                           CA       FLAGWRD4                              #  NO
001434: 10,3562           73653                           MASK     BITS4+10                              #  IS NORMAL INTERRUPTED OR WAITING
001435: 10,3563           10000                           CCS      A
001436: 10,3564           13461                           TCF      NORMWAKE                              #  YES
001437:
001438: 10,3565           31071                           CA       EBANKTEM                              #  NO, WAS IT A FLASH REQUEST
001439: 10,3566           74726                           MASK     OCT50                                 #  OR A GODSPRET
001440: 10,3567           10000                           CCS      A
001441: 10,3570           13463                           TCF      ENDRET                                #  YES
001442: 10,3571           30371                           CA       NVSAVE
001443: 10,3572           00006                           EXTEND
001444: 10,3573           13463                           BZF      ENDRET
001445:
001446: 10,3574           34762                           CAF      PRIO15
001447: 10,3575           00004                           INHINT
001448: 10,3576           05027                           TC       NOVAC
001449: 10,3577     0367                                  EBANK=   NVWORD
001450: 10,3577           02743 20100                     2CADR    PLAYJUM1
001451:
001452: 10,3601           13463                           TCF      ENDRET
001453:
001454: 10,3602           30100        MARSLEEP           CA       FLAGWRD4                              #  IS MARK ALREADY IN
001455: 10,3603           73652                           MASK     BITS5+11
001456: 10,3604           10000                           CCS      A
001457: 10,3605           15112                           TCF      ENDOFJOB                              #  YES
001458: 10,3606           13102                           TCF      GOSLEEPS
001459:
001460: 10,3607           50157        LOADITIS           INDEX    COPMPAC
001461: 10,3610           30367                           CA       NVWORD
001462: 10,3611           76043                           MASK     LOW7
001463: 10,3612           40000                           COM
001464: 10,3613           60155                           AD       MPAC       +1                         #  NOUNREG
001465: 10,3614           00006                           EXTEND
001466: 10,3615           13437                           BZF      OKTOENT                               #  NO, THEN LOAD IS VALID
001467: 10,3616           13176                           TCF      PINBRNCH                              #  YES, ACCEPT LOAD BUT ASK FOR LAST AGAIN
001468:
001469: 10,3617           46214        ERASER             CS       THREE                                 #  BLANK EVERYTHINGEXCEPT MM
001470: 10,3620           04170                           TC       NVSUB
001471: 10,3621           15112                           TCF      ENDOFJOB
001472:                                                                                                  # # Page 1447
001473: 10,3622           15112                           TCF      ENDOFJOB
001474:
001475: 10,3623           00036        PERFMASK           OCT      0036                                  #  FLASH,PERFORM,BLANK R2 AND R3
001476: 10,3624           00231        V01N25             VN       00125
001477: 10,3625           01407        V06N07             VN       00607                                 #  GOPERF3 VN DISPLAY BEFORE V50
001478: 10,3626           14400        V50N00             VN       5000
001479: 10,3627           00030        PERF2MSK           OCT      00030                                 #  FLASH, PERFORM
001480: 10,3630           01006        V04N06             VN       00406
001481: 10,3631           00014        PERF4MSK           OCT      14                                    #  FLASH, BLANK R3
001482: 10,3632  10,3176               GOAGIN             EQUALS   PINBRNCH
001483: 10,3632           20010        REDOMASK           OCT      20010                                 #  BITS 4 AND 14
001484: 10,3633           40230        MARK3MSK           OCT      40230                                 #  MARK,DECIMAL NOUN, PERFORM,FLASH
001485: 10,3634           40036        MARK4MSK           OCT      40036                                 #  MARK,PERFORM,FLASH,BLANK 2 AND 3
001486: 10,3635           20670        NVCADR             CADR     REDOPRIO
001487: 10,3636           20530        WAKECADR           CADR     MARKPLAY
001488: 10,3637           20743                           CADR     PLAYJUM1
001489:
001490: 10,3640           03400        OCT3400            OCT      3400                                  #  EBANK MASK
001491: 10,3641           11210        NBUSMASK           OCT      11210
001492: 10,3642           66521        PMMASK             OCT      66521
001493: 10,3643     4160               VERBMASK           =        MID7                                  #  (OCT 37600)
001494: 10,3643           01177        V05N00M1           OCT      1177                                  #  V05 MINUS ONE
001495: 10,3644  10,2461               GOXDSP             EQUALS   GOMARK
001496: 10,3644  10,2501               GOXDSPR            EQUALS   GOMARKR
001497: 10,3644  10,2465               GOXDSPF            EQUALS   GOMARKF
001498: 10,3644  10,2504               GOXDSPFR           EQUALS   GOMARKFR
001499: 10,3644     5423               ENDEXT             EQUALS   ENDMARK
001500: 10,3644     0165               MPAC2SAV           EQUALS   BANKSET
001501: 10,3644           00700        NVBUSMSK           OCT      700
001502: 10,3645           00704        ASTROMSK           OCT      704
001503: 10,3646           40030        MPERFMSK           OCT      40030                                 #  BIT 15,5,4 FOR MARK,PERFORM,FLASH
001504: 10,3647           34300        OCT34300           OCT      34300
001505: 10,3650           40100        BITS15+7           OCT      40100
001506: 10,3651           00110        BITS7+4            OCT      110
001507: 10,3652     1067               DSPFLG             EQUALS   EBANKSAV
001508: 10,3652     1070               MARKFLAG           EQUALS   MARKEBAN
001509: 10,3652     1071               SAVEFLAG           EQUALS   EBANKTEM
001510: 10,3652           02020        BITS5+11           OCT      2020                                  #  * DONT MOVE
001511: 10,3653           01010        BITS4+10           OCT      1010                                  #  * DONT MOVE
001512: 10,3654           00026        LOWLOAD            DEC      22         B-14
001513: 10,3655           77730        BUSYMASK           OCT      77730
001514: 10,3656           00050        CADRMASK           OCT      50
001515: 10,3657     7707               PINMASK            EQUALS   13,14,15
001516: 10,3657  10,3216               GOPLAY             EQUALS   NVDSP
001517: 10,3657     1073               PRIOSAVE           EQUALS   R1SAVE
001518: 10,3657     0157               COPMPAC            EQUALS   MPAC       +3
001519: 10,3657     0160               TEMPOR2            EQUALS   MPAC       +4
001520: 10,3657     0161               OUTHERE            EQUALS   MPAC       +5
001521: 10,3657     0164               COPINDEX           EQUALS   LOC
001522: 10,3657     0163               USERPRIO           EQUALS   MODE
001523:                                                                                                  # # Page 1448
001524: 10,3657     0162               GENMASK            EQUALS   MPAC       +6
001525: 10,3657           20144        PRIOOCT            OCT      20144                                 #  PRIO
001526: 10,3660           42424        MARKOCT            OCT      42424                                 #  MARK
001527: 10,3661           11254                           OCT      11254                                 #  NORM
001528:
001529: 10,3662           74704        IDLESLEP           OCT      74704
001530: 10,3663           67777        OCT67777           OCT      67777
001531: 10,3664     5415               LINUS              EQUALS   BLANKET
001532: 10,3664     0154               FACEREG            EQUALS   MPAC
001533: 10,3664     0155               PLAYTEM1           EQUALS   MPAC       +1
001534: 10,3664     0157               PLAYTEM3           EQUALS   MPAC       +3
001535: 10,3664     0160               PLAYTEM4           EQUALS   MPAC       +4
001536: 10,3664           40420        OCT40420           OCT      40420
001537: 10,3665           02674        MAKEGEN            GENADR   MAKEPLAY
001538: 10,3666           10200        OCT10200           OCT      10200
001539: 10,3667           30200        V97N00             VN       09700                                 #  PASTE FOR V97 OR V99
001540: 10,3670           20100        OCT20100           OCT      20100

End of include-file DISPLAY_INTERFACE_ROUTINES.agc.  Parent file is MAIN.agc


