
Source Code


000002:                                                                                                  ## Copyright:   Public domain.
000003:                                                                                                  ## Filename:    ERASABLE_ASSIGNMENTS.agc
000004:                                                                                                  ## Purpose:     Part of the source code for Colossus build 237.
000005:                                                                                                  ##              This is for the Command Module's (CM) Apollo Guidance
000006:                                                                                                  ##              Computer (AGC), for Apollo 8.
000007:                                                                                                  ## Assembler:   yaYUL
000008:                                                                                                  ## Contact:     Sergio Navarro <sergionavarrog@gmail.com>
000009:                                                                                                  ## Website:     www.ibiblio.org/apollo/index.html
000010:                                                                                                  ## Page Scans:  www.ibiblio.org/apollo/ScansForConversion/Colossus237/
000011:                                                                                                  ## Mod history: 2009-10-21 SN   Adapted from corresponding Colossus 249 file.
000012:                                                                                                  ##              2011-01-22 JL   Minor fixes to whitespace and comments.
000013:                                                                                                  ##              2011-04-27 JL   Fixed symbol name.
000014:                                                                                                  ##              2016-12-29 RSB  Proofed comment text using octopus/ProoferComments,
000015:                                                                                                  ##                              and corrected errors found.
000016:                                                                                                  ##              2017-01-08 RSB  Fixed comment errors detected in cross-diff vs
000017:                                                                                                  ##                              Colossus 249, but only through page 87 of Colossus
000018:                                                                                                  ##                              249 -- page 86 of Colossus 237 -- so far.
000019:                                                                                                  ##              2017-01-12 RSB  Completed the 3-way cross-proofing.
000020:                                                                                                  ##              2017-01-22 RSB  Back-ported comment error fixes detected in diff'ing
000021:                                                                                                  ##                              Artemis 72 vs Comanche 55.
000022:


000024:
000025:                                                                                                  #  CONVENTIONS AND NOTATIONS UTILIZED FOR ERASABLE ASSIGNMENTS.
000026:
000027:                                                                                                  #           EQUALS IS USED IN TWO WAYS.  IT IS OFTEN USED TO CHAIN A GROUP
000028:                                                                                                  #                  OF ASSIGNMENTS SO THAT THE GROUP MAY BE MOVED WITH THE
000029:                                                                                                  #                  CHANGING OF ONLY ONE CARD.  EXAMPLE.
000030:
000031:                                                                                                  #                                          X        EQUALS START
000032:                                                                                                  #                                          Y        EQUALS X        +SIZE.X
000033:                                                                                                  #                                          Z        EQUALS Y        +SIZE.Y
000034:
000035:                                                                                                  #                  (X, Y, AND Z ARE CONSECUTIVE AND BEGIN AT START.       )
000036:                                                                                                  #                  (SIZE.X AND SIZE.Y ARE THE RESPECTIVE SIZES OF X AND Y,
000037:                                                                                                  #                   USUALLY NUMERIC, IE. 1, 2, 6, 18D ETC.                )
000038:
000039:                                                                                                  #           EQUALS OFTEN IMPLIES THE SHARING OF REGISTERS (DIFFERENT NAMES
000040:                                                                                                  #                  AND DIFFERENT DATA). EXAMPLE.
000041:
000042:                                                                                                  #                                          X        EQUALS Y
000043:
000044:                                                                                                  #           = MEANS THAT MULTIPLE NAMES HAVE BEEN GIVEN TO THE SAME DATA.
000045:                                                                                                  #                  (THIS IS LOGICAL EQUIVALENCE, NOT SHARING)  EXAMPLE.
000046:
000047:                                                                                                  #                                          X        =      Y
000048:
000049:                                                                                                  #           THE SIZE AND UTILIZATION OF AN ERASABLE ARE OFTEN INCLUDED IN
000050:                                                                                                  #           THE COMMENTS IN THE FOLLOWING FORM.  M(SIZE)N.
000051:
000052:                                                                                                  #                  M REFERS TO THE MOBILITY OF THE ASSIGNMENT.
000053:                                                                                                  #                       B   MEANS THAT THE SYMBOL IS REFERENCED BY BASIC
000054:                                                                                                  #                           INSTRUCTIONS AND THUS IS E-BANK SENSITIVE.
000055:                                                                                                  #                       I   MEANS THAT THE SYMBOL IS REFERENCED ONLY BY
000056:                                                                                                  #                           INTERPRETIVE INSTRUCTIONS, AND IS THUS E-BANK
000057:                                                                                                  #                           INSENSITIVE AND MAY APPEAR IN ANY E-BANK.
000058:
000059:                                                                                                  #                  SIZE IS THE NUMBER OF REGISTERS INCLUDED BY THE SYMBOL.
000060:
000061:                                                                                                  #                  N INDICATES THE NATURE OR PERMANENCE OF THE CONTENTS.
000062:                                                                                                  #                       PL MEANS THAT THE CONTENTS ARE PAD LOADED.
000063:                                                                                                  #                       DSP MEANS THAT THE REGISTER IS USED FOR A DISPLAY.
000064:                                                                                                  #                       PRM MEANS THAT THE REGISTER IS PERMANENT, IE. IT
000065:                                                                                                  #                           IS USED DURING THE ENTIRE MISSION FOR ONE
000066:                                                                                                  #                           PURPOSE AND CANNOT BE SHARED.
000067:                                                                                                  #                       TMP MEANS THAT THE REGISTER IS USED TEMPORARILY OR
000068:                                                                                                  #                           IS A SCRATCH REGISTER FOR THE ROUTINE TO WHICH
000069:                                                                                                  #                           IT IS ASSIGNED. THAT IS, IT NEED NOT BE SET
000070:                                                                                                  #                           PRIOR TO INVOCATION OF THE ROUTINE NOR DOES IT
000071:                                                                                                  #                           CONTAIN USEFUL OUTPUT TO ANOTHER ROUTINE.  THUS


000073:                                                                                                  #                           IT MAY BE SHARED WITH ANY OTHER ROUTINE WHICH
000074:                                                                                                  #                           IS NOT ACTIVE IN PARALLEL.
000075:                                                                                                  #                       IN  MEANS INPUT TO THE ROUTINE AND IT IS PROBABLY
000076:                                                                                                  #                           TEMPORARY FOR A HIGHER-LEVEL ROUTINE/PROGRAM.
000077:                                                                                                  #                       OUT MEANS OUTPUT FROM THE ROUTINE, PROBABLY
000078:                                                                                                  #                           TEMPORARY FOR A HIGHER-LEVEL ROUTINE/PROGRAM.
000079:


000081:
000082:                                                                                                  #           SPECIAL REGISTERS.
000083:
000084: 37,2001                        A                  EQUALS   0
000085: 37,2001                        L                  EQUALS   1                                     #  L AND Q ARE BOTH CHANNELS AND REGISTERS.
000086: 37,2001                        Q                  EQUALS   2
000087: 37,2001                        EBANK              EQUALS   3
000088: 37,2001                        FBANK              EQUALS   4
000089: 37,2001                        Z                  EQUALS   5                                     #  ADJACENT TO FBANK AND BBANK FOR DXCH Z
000090: 37,2001                        BBANK              EQUALS   6                                     #  (DTCB) AND DXCH FBANK (DTCF).
000091:                                                                                                  #  REGISTER 7 IS A ZERO-SOURCE, USED BY ZL.
000092:
000093: 37,2001                        ARUPT              EQUALS   10                                    #  INTERRUPT STORAGE.
000094: 37,2001                        LRUPT              EQUALS   11
000095: 37,2001                        QRUPT              EQUALS   12
000096: 37,2001                        SAMPTIME           EQUALS   13                                    #  SAMPLED TIME 1 & 2.
000097: 37,2001                        ZRUPT              EQUALS   15                                    #  (13 AND 14 ARE SPARES.)
000098: 37,2001                        BANKRUPT           EQUALS   16                                    #  USUALLY HOLDS FBANK OR BBANK.
000099: 37,2001                        BRUPT              EQUALS   17                                    #  RESUME ADDRESS AS WELL.
000100:
000101: 37,2001                        CYR                EQUALS   20
000102: 37,2001                        SR                 EQUALS   21
000103: 37,2001                        CYL                EQUALS   22
000104: 37,2001                        EDOP               EQUALS   23                                    #  EDITS INTERPRETIVE OPERATION CODE PAIRS.
000105:
000106: 37,2001                        TIME2              EQUALS   24
000107: 37,2001                        TIME1              EQUALS   25
000108: 37,2001                        TIME3              EQUALS   26
000109: 37,2001                        TIME4              EQUALS   27
000110: 37,2001                        TIME5              EQUALS   30
000111: 37,2001                        TIME6              EQUALS   31
000112: 37,2001                        CDUX               EQUALS   32
000113: 37,2001                        CDUY               EQUALS   33
000114: 37,2001                        CDUZ               EQUALS   34
000115: 37,2001                        CDUT               EQUALS   35                                    #  OPTICS TRUNNION CDU (WAS OPTY).
000116: 37,2001  0000035               OPTY               =        CDUT
000117: 37,2001                        CDUS               EQUALS   36                                    #  OPTICS SHAFT CDU (WAS OPTX).
000118: 37,2001  0000036               OPTX               =        CDUS
000119: 37,2001                        PIPAX              EQUALS   37
000120: 37,2001                        PIPAY              EQUALS   40
000121: 37,2001                        PIPAZ              EQUALS   41
000122: 37,2001                        BMAGX              EQUALS   42
000123: 37,2001                        BMAGY              EQUALS   43
000124: 37,2001                        BMAGZ              EQUALS   44
000125: 37,2001                        INLINK             EQUALS   45
000126: 37,2001                        RNRAD              EQUALS   46
000127: 37,2001                        GYROCTR            EQUALS   47
000128: 37,2001                        GYROCMD            EQUALS   47
000129: 37,2001                        CDUXCMD            EQUALS   50
000130: 37,2001                        CDUYCMD            EQUALS   51


000132: 37,2001                        CDUZCMD            EQUALS   52
000133: 37,2001                        CDUTCMD            EQUALS   53                                    #  OPTICS TRUNNION COMMAND (WAS OPTYCMD).
000134: 37,2001  0000053               OPTYCMD            =        CDUTCMD
000135: 37,2001  0000053               TVCYAW             EQUALS   CDUTCMD                               #  SPS YAW COMMAND IN TVC MODE.
000136: 37,2001                        CDUSCMD            EQUALS   54                                    #  OPTICS SHAFT COMMAND (WAS OPTXCMD).
000137: 37,2001  0000054               TVCPITCH           EQUALS   CDUSCMD                               #  SPS PITCH COMMAND IN TVC MODE.
000138: 37,2001  0000054               OPTXCMD            =        CDUSCMD
000139: 37,2001                        EMSD               EQUALS   55
000140: 37,2001                        THRUST             EQUALS   55
000141: 37,2001                        LEMONM             EQUALS   56
000142: 37,2001                        OUTLINK            EQUALS   57
000143: 37,2001                        ALTM               EQUALS   60
000144:
000145:
000146:                                                                                                  #           INTERPRETIVE REGISTERS ADDRESSED RELATIVE TO VAC AREA.
000147:
000148: 37,2001                        LVSQUARE           EQUALS   34D                                   #  SQUARE OF VECTOR INPUT TO ABVAL AND UNIT
000149: 37,2001                        LV                 EQUALS   36D                                   #  LENGTH OF VECTOR INPUT TO UNIT.
000150: 37,2001                        X1                 EQUALS   38D                                   #  INTERPRETIVE SPECIAL REGISTERS RELATIVE
000151: 37,2001                        X2                 EQUALS   39D                                   #  TO THE WORK AREA.
000152: 37,2001                        S1                 EQUALS   40D
000153: 37,2001                        S2                 EQUALS   41D
000154: 37,2001                        QPRET              EQUALS   42D
000155:


000157:                                                                                                  #  INPUT/OUTPUT CHANNELS
000158:
000159:                                                                                                  #                                            *** CHANNEL ZERO IS TO BE USED IN AN INDEXED OPERATION ONLY. ***
000160: 37,2001  0000001               LCHAN              EQUALS   L
000161: 37,2001  0000002               QCHAN              EQUALS   Q
000162: 37,2001                        HISCALAR           EQUALS   3
000163: 37,2001                        LOSCALAR           EQUALS   4
000164: 37,2001                        PYJETS             EQUALS   5
000165: 37,2001                        ROLLJETS           EQUALS   6
000166: 37,2001                        SUPERBNK           EQUALS   7
000167: 37,2001                        OUT0               EQUALS   10
000168: 37,2001                        DSALMOUT           EQUALS   11
000169: 37,2001                        CHAN12             EQUALS   12
000170: 37,2001                        CHAN13             EQUALS   13
000171: 37,2001                        CHAN14             EQUALS   14
000172: 37,2001                        MNKEYIN            EQUALS   15
000173: 37,2001                        NAVKEYIN           EQUALS   16
000174: 37,2001                        CHAN30             EQUALS   30
000175: 37,2001                        CHAN31             EQUALS   31
000176: 37,2001                        CHAN32             EQUALS   32
000177: 37,2001                        CHAN33             EQUALS   33
000178: 37,2001                        DNTM1              EQUALS   34
000179: 37,2001                        DNTM2              EQUALS   35
000180:                                                                                                  #  END OF CHANNEL ASSIGNMENTS
000181:


000183:
000184:                                                                                                  #           FLAGWORDS
000185:
000186:
000187:                                                                                                  #  FLAGWRD0      STATE +0        (000-014)
000188:                                                                                                  #  FLAGWRD1      STATE +1        (015-029)
000189:                                                                                                  #  FLAGWRD2      STATE +2        (030-044)
000190:                                                                                                  #  FLAGWRD3      STATE +3        (045-059)
000191:                                                                                                  #  FLAGWRD4      STATE +4        (060-074)
000192:                                                                                                  #  FLAGWRD5      STATE +5        (075-089)
000193:                                                                                                  #  FLAGWRD6      STATE +6        (090-104)
000194:                                                                                                  #  FLAGWRD7      STATE +7        (105-119)
000195:                                                                                                  #  FLAGWRD8      STATE +8D       (120-134)
000196:                                                                                                  #  FLAGWRD9      STATE +9D       (135-149)
000197:
000198:
000199:                                                                                                  #           SORTED LIST OF
000200:
000201:                                                                                                  #           INTERPITIVE SWITCH BIT ASSIGNMENTS
000202:
000203:                                                                                                  #  INTERPRETIVE SWITCH BIT ASSIGNMENTS
000204:                                                                                                  #  FLAGWORD      DEC NUM           BIT + FLAG         EQUIVALENT FLAGWORDS
000205:
000206:                                                                                                  #  22DSPFLG      032D              BIT 13 FLAG 2
000207:                                                                                                  #  360SW         134D              BIT 1 FLAG 8
000208:                                                                                                  #  3AXISFLG      084D              BIT 6 FLAG 5
000209:                                                                                                  #  ADVTRK        125D              BIT 10 FLAG 8
000210:                                                                                                  #  APSESW        130D              BIT 5 FLAG 8
000211:                                                                                                  #  ASTNFLAG      108D              BIT 12 FLAG 7
000212:                                                                                                  #  ATTCHFLG      118D              BIT 2 FLAG 7
000213:                                                                                                  #  AVEGFLAG      029D              BIT 1 FLAG 1
000214:                                                                                                  #  AVEMIDSW      149D              BIT 1 FLAG 9
000215:                                                                                                  #  AVFLAG        040D              BIT 5 FLAG 2
000216:                                                                                                  #  CALCMAN2      043D              BIT 2 FLAG 2
000217:                                                                                                  #  CALCMAN3      042D              BIT 3 FLAG 2
000218:                                                                                                  #  CMDAPARM      093D              BIT 12 FLAG 6
000219:                                                                                                  #  CMOONFLG      123D              BIT 12 FLAG 8
000220:                                                                                                  #  CM/DSTBY      103D              BIT 2 FLAG 6
000221:                                                                                                  #  COGAFLAG      131D              BIT 4 FLAG 8
000222:                                                                                                  #  COMPUTER      082D              BIT 8 FLAG 5
000223:                                                                                                  #  CPHIFLAG      000D              BIT 15 FLAG 0
000224:                                                                                                  #  CULTFLAG      053D              BIT 7 FLAG 3
000225:                                                                                                  #  CYCLESW       035D              BIT 10 FLAG 2
000226:                                                                                                  #  D6OR9FLG      058D              BIT 2 FLAG 3
000227:                                                                                                  #  DAPBIT1       090D              BIT 15 FLAG 6
000228:                                                                                                  #  DAPBIT2       091D              BIT 14 FLAG 6
000229:                                                                                                  #  DIM0FLAG      059D              BIT 1 FLAG 3
000230:                                                                                                  #  DMENFLG       081D              BIT 9 FLAG 5
000231:                                                                                                  #  DRIFTFLG      030D              BIT 15 FLAG 2
000232:                                                                                                  #  DSKYFLAG      075D              BIT 15 FLAG 5


000234:                                                                                                  #  EGSW          97D               BIT 8 FLAG 6        KNOWNFLG  R57FLAG
000235:                                                                                                  #  ENG1FLAG      018D              BIT 12 FLAG 1
000236:                                                                                                  #  ENG2FLAG      019D              BIT 11 FLAG 1
000237:                                                                                                  #  ENGONFLG      083D              BIT 7 FLAG 5
000238:                                                                                                  #  ERADFLAG      017D              BIT 13 FLAG 1
000239:                                                                                                  #  ETPIFLAG      038D              BIT 7 FLAG 2        FIRSTFLG   OPTNSW
000240:                                                                                                  #  F2RTE         10D               BIT 5  FLAG 0
000241:                                                                                                  #  FINALFLG      039D              BIT 6 FLAG 2
000242:                                                                                                  #  FIRSTFLG      38D               BIT 7  FLAG 2       ETPIFLAG   OPTNSW
000243:                                                                                                  #  FREEFLAG      012D              BIT 3 FLAG 0
000244:                                                                                                  #  GAMDIFSW      094D              BIT 11 FLAG 6
000245:                                                                                                  #  GLOKFAIL      046D              BIT 14 FLAG 3
000246:                                                                                                  #  GMBDRVSW      095D              BIT 10 FLAG 6      GONEPAST
000247:                                                                                                  #  GONEBY        112D              BIT 8 FLAG 7
000248:                                                                                                  #  GONEPAST      095D              BIT 10 FLAG 6      GMBDRVSW
000249:                                                                                                  #  GRRBKFLG      085D              BIT 5 FLAG 5
000250:                                                                                                  #  GUESSW        028D              BIT 2 FLAG 1
000251:                                                                                                  #  GYMDIFSW      104D              BIT 1 FLAG 6
000252:                                                                                                  #  .05GSW        102D              BIT 3 FLAG 6
000253:                                                                                                  #  HIND          099D              BIT 6 FLAG 6
000254:                                                                                                  #  IDLEFAIL      024D              BIT 6 FLAG 1
000255:                                                                                                  #  IDLEFLAG      113D              BIT 7 FLAG 7
000256:                                                                                                  #  IGNFLAG       107D              BIT 13 FLAG 7
000257:                                                                                                  #  IMPULSW       036D              BIT 9 FLAG 2
000258:                                                                                                  #  IMUSE         007D              BIT 8 FLAG 0
000259:                                                                                                  #  INCORFLG      079D              BIT 11 FLAG 5
000260:                                                                                                  #  INFINFLG      128D              BIT 7 FLAG 8
000261:                                                                                                  #  INRLSW        100D              BIT 5 FLAG 6
000262:                                                                                                  #  INTFLAG       151D              BIT 14 FLAG 10
000263:                                                                                                  #  INTYPFLG      056D              BIT 4 FLAG 3
000264:                                                                                                  #  ITSWICH       106D              BIT 14 FLAG 7
000265:                                                                                                  #  KFLAG         014D              BIT 1 FLAG 0
000266:                                                                                                  #  KNOWNFLG      097D              BIT 8  FLAG 6      EGSW  R57FLAG
000267:                                                                                                  #  LATSW         101D              BIT 4 FLAG 6
000268:                                                                                                  #  LMOONFLG      124D              BIT 11 FLAG 8
000269:                                                                                                  #  LUNAFLAG      048D              BIT 12 FLAG 3
000270:                                                                                                  #  MAXDBFLG      138D              BIT 12 FLAG 9
000271:                                                                                                  #  MGLVFLAG      088D              BIT 2 FLAG 5
000272:                                                                                                  #  MID1FLAG      147D              BIT 3 FLAG 9
000273:                                                                                                  #  MIDAVFLG      148D              BIT 2 FLAG 9
000274:                                                                                                  #  MIDFLAG       002D              BIT 13 FLAG 0
000275:                                                                                                  #  MKOVFLAG      072D              BIT 3 FLAG 4
000276:                                                                                                  #  MOONFLAG      003D              BIT 12 FLAG 0
000277:                                                                                                  #  MRKIDFLG      060D              BIT 15 FLAG 4
000278:                                                                                                  #  MRKNVFLG      066D              BIT 9 FLAG 4
000279:                                                                                                  #  MRUPTFLG      070D              BIT 5 FLAG 4
000280:                                                                                                  #  MWAITFLG      064D              BIT 11 FLAG 4
000281:                                                                                                  #  N22ORN17      144D              BIT 6 FLAG 9
000282:                                                                                                  #  NEEDLFLG      006D              BIT 9 FLAG 0
000283:                                                                                                  #  NEWIFLG       122D              BIT 13 FLAG 8


000285:                                                                                                  #  NJETSFLG      015D              BIT 15 FLAG 1
000286:                                                                                                  #  NODOFLAG      044D              BIT 1 FLAG 2
000287:                                                                                                  #  NORFHOR       004D              BIT 11 FLAG 0
000288:                                                                                                  #  NORMSW        110D              BIT 10 FLAG 7
000289:                                                                                                  #  NOSWITCH      098D              BIT 7 FLAG 6
000290:                                                                                                  #  NRMIDFLG      062D              BIT 13 FLAG 4
000291:                                                                                                  #  NRMNVFLG      067D              BIT 8 FLAG 4
000292:                                                                                                  #  NRUPTFLG      071D              BIT 4 FLAG 4
000293:                                                                                                  #  NTARGFLG      102D              BIT 3 FLAG 6
000294:                                                                                                  #  NWAITFLG      065D              BIT 10 FLAG 4
000295:                                                                                                  #  OPTNSW        038D              BIT 7  FLAG 2      ETPIFLAG  FIRSTFLG
000296:                                                                                                  #  ORBWFLAG      054D              BIT 6  FLAG 3
000297:                                                                                                  #  ORDERSW       129D              BIT 6 FLAG 8
000298:                                                                                                  #  P22MKFLG      49D               BIT 11 FLAG 3
000299:                                                                                                  #  P39/79SW      126D              BIT 9  FLAG 8
000300:                                                                                                  #  PDSPFLAG      063D              BIT 12 FLAG 4
000301:                                                                                                  #  PFRATFLG      041D              BIT 4 FLAG 2
000302:                                                                                                  #  PINBRFLG      069D              BIT 6 FLAG 4
000303:                                                                                                  #  PRECIFLG      052D              BIT 8 FLAG 3
000304:                                                                                                  #  PRFTRKAT      080D              BIT 10 FLAG 5
000305:                                                                                                  #  PRIODFLG      061D              BIT 14 FLAG 4
000306:                                                                                                  #  PRONVFLG      068D              BIT 7 FLAG 4
000307:                                                                                                  #  QUITFLAG      145D              BIT 5 FLAG 9
000308:                                                                                                  #  R21MARK       031D              BIT 14 FLAG 2
000309:                                                                                                  #  R22CAFLG      143D              BIT 7 FLAG 9
000310:                                                                                                  #  R23FLG        021D              BIT 9 FLAG 1
000311:                                                                                                  #  R31FLAG       146D              BIT 4 FLAG 9
000312:                                                                                                  #  R53FLAG       009D              BIT 6 FLAG 0
000313:                                                                                                  #  R57FLAG       097D              BIT 8 FLAG 6       KNOWNFLG  EGSW
000314:                                                                                                  #  R60FLAG       086D              BIT 4 FLAG 5
000315:                                                                                                  #  REFSMFLG      047D              BIT 13 FLAG 3
000316:                                                                                                  #  REINTFLG      158D              BIT 7 FLAG 10
000317:                                                                                                  #  RELVELSW      096D              BIT 9 FLAG 6
000318:                                                                                                  #  RENDWFLG      089D              BIT 1 FLAG 5
000319:                                                                                                  #  RNDVZFLG      008D              BIT 7 FLAG 0
000320:                                                                                                  #  RPQFLAG       120D              BIT 15 FLAG 8
000321:                                                                                                  #  RVSW          111D              BIT 9 FLAG 7
000322:                                                                                                  #  SAVECFLG      140D              BIT 10 FLAG 9
000323:                                                                                                  #  SLOPESW       027D              BIT 3 FLAG 1
000324:                                                                                                  #  SOLNSW        087D              BIT 3 FLAG 5
000325:                                                                                                  #  SOURCFLG      142D              BIT 8 FLAG 9
000326:                                                                                                  #  STATEFLG      055D              BIT 5 FLAG 3
000327:                                                                                                  #  STEERSW       034D              BIT 11 FLAG 2
000328:                                                                                                  #  STIKFLAG      016D              BIT 14 FLAG 1
000329:                                                                                                  #  STRULLSW      92D               BIT 13 FLAG 6
000330:                                                                                                  #  SURFFLAG      127D              BIT 8 FLAG 8
000331:                                                                                                  #  SWTOVER       135D              BIT 15 FLAG 9
000332:                                                                                                  #  TARG1FLG      020D              BIT 10 FLAG 1
000333:                                                                                                  #  TARG2FLG      021D              BIT 9 FLAG 1
000334:                                                                                                  #  TERMIFLG      105D              BIT 15 FLAG 7


000336:                                                                                                  #  TFFSW         119D              BIT 1 FLAG 7
000337:                                                                                                  #  TIMRFLAG      109D              BIT 11 FLAG 7
000338:                                                                                                  #  TRACKFLG      025D              BIT 5 FLAG 1
000339:                                                                                                  #  TRM03FLG      26D               BIT 4  FLAG 1
000340:                                                                                                  #  TRUNFLAG      011D              BIT 4 FLAG 0
000341:                                                                                                  #  UPDATFLG      023D              BIT 7 FLAG 1
000342:                                                                                                  #  UPLOCKFL      116D              BIT 4 FLAG 7
000343:                                                                                                  #  V37FLAG       114D              BIT 6 FLAG 7
000344:                                                                                                  #  V59FLAG       078D              BIT 12 FLAG 5
000345:                                                                                                  #  V67FLAG       136D              BIT 14 FLAG 9
000346:                                                                                                  #  V82EMFLG      137D              BIT 13 FLAG 9
000347:                                                                                                  #  V94FLAG       139D              BIT 11 FLAG 9
000348:                                                                                                  #  VEHUPFLG      022D              BIT 8 FLAG 1
000349:                                                                                                  #  VERIFLAG      117D              BIT 3 FLAG 7
000350:                                                                                                  #  VFLAG         050D              BIT 10 FLAG 3
000351:                                                                                                  #  VHFRFLAG      141D              BIT 9 FLAG 9
000352:                                                                                                  #  VINTFLAG      057D              BIT 3 FLAG 3
000353:                                                                                                  #  XDELVFLG      037D              BIT 8 FLAG 2
000354:                                                                                                  #  XDSPFLAG      074D              BIT 1 FLAG 4
000355:


000357:
000358:                                                                                                  #  INTERPRETIVE SWITCH BIT ASSIGNMENTS
000359: 37,2001     0074               FLAGWRD0           =        STATE      +0                         #  (000-014)
000360:
000361:                                                                                                  #  (SET)               (RESET)
000362:
000363:                                                                                                  #                        BIT 15 FLAG 0
000364: 37,2001                        CPHIFLAG           =        000D                                  #  OUTPUT OF CALCGA IS OUTPUT OF CALCGA IS
000365:                                                                                                  #  CPHIX               THETAD
000366:
000367: 37,2001     4674               CPHIBIT            =        BIT15
000368:
000369:                                                                                                  #                        BIT 14 FLAG 0
000370: 37,2001                        JSWITCH            =        001D                                  #  INTEGRATION OF W    INTEGRATION OF STATE
000371:                                                                                                  #  MATRIX              VECTOR
000372:
000373: 37,2001     4675               JSWCHBIT           =        BIT14
000374:
000375:                                                                                                  #                        BIT 13 FLAG 0
000376: 37,2001                        MIDFLAG            =        002D                                  #  INTEGRATION WITH    INTEGRATION WITHOUT
000377:                                                                                                  #  SOLAR PERTURBATIONS SOLAR PERTURBATIONS
000378:
000379: 37,2001     4676               MIDFLBIT           =        BIT13
000380:
000381:                                                                                                  #                        BIT 12 FLAG 0
000382: 37,2001                        MOONFLAG           =        003D                                  #  MOON IS SPHERE OF   EARTH IS SPHERE OF
000383:                                                                                                  #  INFLUENCE           INFLUENCE
000384:
000385: 37,2001     4677               MOONBIT            =        BIT12
000386:
000387:                                                                                                  #                        BIT 11 FLAG 0
000388: 37,2001                        NORFHOR            =        004D                                  #  FAR HORIZON         NEAR HORIZON
000389:
000390:
000391: 37,2001     4700               NORFBIT            =        BIT11
000392:
000393:                                                                                                  #                        BIT 10 FLAG 0
000394: 37,2001                        ZMEASURE           =        005D                                  #  MEASUREMENT PLANET  MEASUREMENT PLANET
000395:                                                                                                  #  AND PRIMARY PLANET  AND PRIMARY PLANET
000396:                                                                                                  #  DIFFERENT           SAME
000397:
000398: 37,2001     4701               ZMEASBIT           =        BIT10
000399:
000400:                                                                                                  #                        BIT 9 FLAG 0
000401: 37,2001                        NEEDLFLG           =        006D                                  #  TOTAL ATTIDUDE      A/P FOLLOWING ERROR
000402:                                                                                                  #  ERROR DISPLAYED     DISPLAYED
000403:
000404: 37,2001     4702               NEEDLBIT           =        BIT9
000405:
000406:                                                                                                  #                        BIT 8 FLAG 0
000407: 37,2001                        IMUSE              =        007D                                  #  IMU IN USE          IMU NOT IN USE
000408:


000410: 37,2001     4703               IMUSEBIT           =        BIT8
000411:
000412:                                                                                                  #                        BIT 7 FLAG 0
000413: 37,2001                        RNDVZFLG           =        008D                                  #  P20 RUNNING         P20 NOT RUNNING
000414: 37,2001     4704               RNDVZBIT           =        BIT7
000415:
000416:                                                                                                  #                        BIT 6 FLAG 0
000417: 37,2001                        R53FLAG            =        009D                                  #  V51 INITIATED       V51 NOT INITIATED
000418:
000419:
000420: 37,2001     4705               R53FLBIT           =        BIT6
000421:
000422:                                                                                                  #                        BIT 5 FLAG 0
000423: 37,2001                        F2RTE              =        010D                                  #  IN TIME CRITICAL    NOT IN TIME CRITICAL
000424:                                                                                                  #  MODE                MODE
000425:
000426: 37,2001     4706               F2RTEBIT           =        BIT5
000427:
000428:                                                                                                  #                        BIT 4 FLAG 0
000429: 37,2001                        TRUNFLAG           =        011D                                  #  DRIVING OF TRUNNION DRIVING OF TRUNNION
000430:                                                                                                  #  ALLOWED             NOT ALLOWED
000431:
000432: 37,2001     4707               TRUNBIT            =        BIT4
000433:
000434:                                                                                                  #                        BIT 3 FLAG 0
000435: 37,2001                        FREEFLAG           =        012D                                  #  (TEMPORARY FLAG USED IN MANY ROUTINES)
000436:
000437: 37,2001     4710               FREEFBIT           =        BIT3
000438:
000439:                                                                                                  #                        BIT 2 FLAG 0
000440:                                                                                                  #                =       013D
000441:
000442:                                                                                                  #                        BIT 1 FLAG 0
000443: 37,2001                        KFLAG              =        014D                                  #  SEARCH SECTOR MORE  SEARCH SECTOR LESS
000444:                                                                                                  #  THAN 180 DEGREES    THAN 180 DEGREES
000445:
000446: 37,2001     4712               KBIT               =        BIT1
000447:
000448: 37,2001     0075               FLAGWRD1           =        STATE      +1                         #  (015-029)
000449:
000450:                                                                                                  #  (SET)               (RESET)
000451:
000452:                                                                                                  #                        BIT 15 FLAG 1
000453: 37,2001                        NJETSFLG           =        015D                                  #  TWO JET RCS BURN    FOUR JET RCS BURN
000454:
000455: 37,2001     4674               NJETSBIT           =        BIT15
000456:
000457:                                                                                                  #                        BIT 14 FLAG 1
000458: 37,2001                        STIKFLAG           =        016D                                  #  RHC CONTROL         CMC CONTROL
000459:


000461: 37,2001     4675               STIKBIT            =        BIT14
000462:
000463:                                                                                                  #                        BIT 13 FLAG 1
000464: 37,2001                        ERADFLAG           =        017D                                  #  EARTH, COMPUTE      EARTH, USE FIXED
000465:                                                                                                  #   FISCHER ELLIPSOID   RADIUS
000466:                                                                                                  #   RADIUS
000467:                                                                                                  #  MOON, USE FIXED     MOON, USE RLS FOR
000468:                                                                                                  #        RADIUS              LUNAR RADIUS
000469:
000470:
000471: 37,2001     4676               ERADFBIT           =        BIT13
000472:
000473:                                                                                                  #                        BIT 12 FLAG 1
000474:                                                                                                  #                =       018D
000475:
000476:
000477:                                                                                                  #                        BIT 11 FLAG 1
000478: 37,2001                        ENG2FLAG           =        019D                                  #  RCS BURN            SPS BURN
000479:
000480: 37,2001     4700               ENG2BIT            =        BIT11
000481:
000482:                                                                                                  #                        BIT 10 FLAG 1
000483: 37,2001                        TARG1FLG           =        020D                                  #  SIGHTING LEM        NOT SIGHTING LEM
000484:
000485: 37,2001     4701               TARG1BIT           =        BIT10
000486:
000487:                                                                                                  #                        BIT 9 FLAG 1
000488: 37,2001                        TARG2FLG           =        021D                                  #  SIGHTING LANDMARK   SIGHTING STAR
000489:
000490: 37,2001     4702               TARG2BIT           =        BIT9
000491:
000492:                                                                                                  #                        BIT  9 FLAG 1
000493: 37,2001                        R23FLG             =        021D                                  #  R23 MARKING         R21 MARKING
000494:
000495:
000496: 37,2001     4702               R23BIT             =        BIT9
000497:
000498:                                                                                                  #                        BIT 8 FLAG 1
000499: 37,2001                        VEHUPFLG           =        022D                                  #  CSM STATE VECTOR    LEM STATE VECTOR
000500:                                                                                                  #  BEING UPDATED       BEING UPDATED
000501:
000502: 37,2001     4703               VEHUPBIT           =        BIT8
000503:
000504:                                                                                                  #                        BIT 7 FLAG 1
000505: 37,2001                        UPDATFLG           =        023D                                  #  UPDATING BY MARKS   UPDATING BY MARKS
000506:                                                                                                  #  ALLOWED             NOT ALLOWED
000507:
000508: 37,2001     4704               UPDATBIT           =        BIT7
000509:
000510:                                                                                                  #                        BIT 6 FLAG 1


000512: 37,2001                        IDLEFAIL           =        024D                                  #  INHIBIT R41         ENABLE R41 (ENGFAIL)
000513:
000514: 37,2001     4705               IDLEBIT            =        BIT6
000515:
000516:                                                                                                  #                        BIT 5 FLAG 1
000517: 37,2001                        TRACKFLG           =        025D                                  #  TRACKING ALLOWED    TRACKING NOT ALLOWED
000518:
000519: 37,2001     4706               TRACKBIT           =        BIT5
000520:
000521:                                                                                                  #                        BIT 4 FLAG 1
000522: 37,2001                        TRM03FLG           =        26D                                   #  REQUEST TO          NO REQUEST TO
000523: 37,2001     4707               TRM03BIT           =        BIT4                                  #  TERMINATE P03 HAS   TERMINATE P03 HAS
000524:                                                                                                  #  BEEN ENTERED        BEEN ENTERED
000525:
000526:
000527:                                                                                                  #                        BIT 3 FLAG 1
000528: 37,2001                        SLOPESW            =        27D                                   #  ITERATE WITH BIAS   ITERATE WITH REGULA
000529:                                                                                                  #  METHOD IN ITERATOR  FALSI METHOD IN
000530:                                                                                                  #                        ITERATOR
000531:
000532:
000533: 37,2001     4710               SLOPEBIT           =        BIT3
000534:
000535:                                                                                                  #                        BIT 2 FLAG 1
000536: 37,2001                        GUESSW             =        028D                                  #  NO STARTING VALUE   STARTING VALUE FOR
000537:                                                                                                  #  FOR ITERATION       ITERATION EXISTS
000538:
000539: 37,2001     4711               GUESSBIT           =        BIT2
000540:
000541:                                                                                                  #                        BIT 1 FLAG 1
000542: 37,2001                        AVEGFLAG           =        029D                                  #  AVERAGEG (SERVICER) AVERAGEG (SERVICER)
000543:                                                                                                  #  TO CONTINUE         TO CEASE
000544:
000545: 37,2001     4712               AVEGBIT            =        BIT1
000546:
000547: 37,2001     0076               FLAGWRD2           =        STATE      +2                         #  (030-044)
000548:
000549:                                                                                                  #  (SET)               (RESET)
000550:
000551:                                                                                                  #                        BIT 15 FLAG 2
000552: 37,2001                        DRIFTFLG           =        030D                                  #  T3RUPT CALLS GYRO   T3RUPT DOES NO GYRO
000553:                                                                                                  #  COMPENSATION        COMPENSATION
000554:
000555: 37,2001     4674               DRFTBIT            =        BIT15
000556:
000557:                                                                                                  #                        BIT 14 FLAG 2
000558: 37,2001                        R21MARK            =        031D                                  #  OPTION ONE FOR      OPTION TWO FOR
000559:                                                                                                  #  MARKRUPT            MARKRUPT
000560:
000561: 37,2001     4675               R21BIT             =        BIT14
000562:


000564:                                                                                                  #                        BIT 13 FLAG 2
000565: 37,2001                        22DSPFLG           =        032D                                  #  DISPLAY DR,DV       DO NOT DISPLAY DR,DV
000566:
000567:
000568: 37,2001     4676               22DSPBIT           =        BIT13
000569:
000570:                                                                                                  #                        BIT 12 FLAG 2
000571:                                                                                                  #                =       033D
000572:
000573:
000574:                                                                                                  #                        BIT 11 FLAG 2
000575: 37,2001                        STEERSW            =        034D                                  #  STEERING TO BE DONE STEERING OMITTED
000576:
000577: 37,2001     4700               STEERBIT           =        BIT11
000578:
000579:                                                                                                  #                        BIT 10 FLAG 2
000580: 37,2001                        CYCLESW            =        035D                                  #  VG CALCULATION TO   VG CALCULATION
000581:                                                                                                  #  BE DONE             OMITTED
000582:
000583: 37,2001     4701               CYCLEBIT           =        BIT10
000584:
000585:                                                                                                  #                        BIT 9 FLAG 2
000586: 37,2001                        IMPULSW            =        036D                                  #  MINIMUM IMPULSE     STEERING BURN (NO
000587:                                                                                                  #  BURN (CUTOFF TIME   CUTOFF TIME YET
000588:                                                                                                  #  SPECIFIED)          AVAILABLE)
000589:
000590: 37,2001     4702               IMPULBIT           =        BIT9
000591:
000592:                                                                                                  #                        BIT 8 FLAG 2
000593: 37,2001                        XDELVFLG           =        037D                                  #  EXTERNAL DELTAV VG  LAMBERT (AIMPOINT)
000594:                                                                                                  #  COMPUTATION         VG COMPUTATION
000595:
000596: 37,2001     4704               XDELVBIT           =        BIT7
000597:
000598:                                                                                                  #                        BIT 7 FLAG 2
000599: 37,2001                        ETPIFLAG           =        038D                                  #  ELEVATION ANGLE     TPI TIME SUPPLIED
000600:                                                                                                  #  SUPPLIED FOR P34,74 FOR P34,74
000601:
000602:                                                                                                  #                        BIT 7 FLAG 2
000603: 37,2001  0000046               FIRSTFLG           =        ETPIFLAG                              #  SUCCEEDING PASS     FIRST PASS THRU
000604:                                                                                                  #  THRU S40.9          S40.9
000605:
000606: 37,2001     4704               FIRSTBIT           =        BIT7
000607:
000608:                                                                                                  #                        BIT  7 FLAG 2
000609: 37,2001  0000046               OPTNSW             =        ETPIFLAG                              #  SOI PHASE P38/P78   SOR PHASE OF P38/P78
000610:
000611: 37,2001     4705               FINALBIT           =        BIT6
000612:
000613:                                                                                                  #                        BIT 6 FLAG 2


000615: 37,2001                        FINALFLG           =        039D                                  #  LSAT PASS THROUGH   INTERIM PASS THROUGH
000616:                                                                                                  #  RENDEZVOUS PROGRAM  RENDEZVOUS PROGRAM
000617:                                                                                                  #  COMPUTATIONS        COMPUTATIONS
000618:
000619: 37,2001     4706               AVFLBIT            =        BIT5
000620:
000621:                                                                                                  #                        BIT 5 FLAG 2
000622: 37,2001                        AVFLAG             =        040D                                  #  LEM IS ACTIVE       CSM IS ACTIVE
000623:                                                                                                  #  VEHICLE             VEHICLE
000624:
000625:                                                                                                  #                        BIT 4 FLAG 2
000626: 37,2001                        PFRATFLG           =        041D                                  #  PREFERRED ATTITUDE  PREFERRED ATTITUDE
000627:                                                                                                  #  COMPUTED            NOT COMPUTED
000628:
000629: 37,2001     4707               PFRATBIT           =        BIT4
000630:
000631:                                                                                                  #                        BIT 3 FLAG 2
000632: 37,2001                        CALCMAN3           =        042D                                  #  NO FINAL ROLL       FINAL ROLL IS
000633:                                                                                                  #                      NECESSARY
000634:
000635: 37,2001     4710               CALC3BIT           =        BIT3
000636:
000637:                                                                                                  #                        BIT 2 FLAG 2
000638: 37,2001                        CALCMAN2           =        043D                                  #  PERFORM MANEUVER    BYPASS STARTING
000639:                                                                                                  #  STARTING PROCEDURE  PROCEDURE
000640:
000641: 37,2001     4711               CALC2BIT           =        BIT2
000642:
000643:                                                                                                  #                        BIT 1 FLAG 2
000644: 37,2001                        NODOFLAG           =        044D                                  #  V37 NOT PERMITTED   V37 PERMITTED
000645:
000646: 37,2001     4712               NODOBIT            =        BIT1
000647:
000648: 37,2001     0077               FLAGWRD3           =        STATE      +3                         #  (045-059)
000649:
000650:                                                                                                  #  (SET)               (RESET)
000651:
000652:                                                                                                  #                        BIT 15 FLAG 3
000653:                                                                                                  #                =       045D
000654:
000655:
000656:                                                                                                  #                        BIT 14 FLAG 3
000657: 37,2001                        GLOKFAIL           =        046D                                  #  GIMBAL LOCK HAS     NOT IN GIMBAL LOCK
000658:                                                                                                  #  OCCURED
000659:
000660: 37,2001     4675               GLOKFBIT           =        BIT14
000661:
000662:                                                                                                  #                        BIT 13 FLAG 3
000663: 37,2001                        REFSMFLG           =        047D                                  #  REFSMMAT GOOD       REFSMMAT NO GOOD
000664:


000666: 37,2001     4676               REFSMBIT           =        BIT13
000667:
000668:                                                                                                  #                        BIT 12 FLAG 3
000669: 37,2001                        LUNAFLAG           =        048D                                  #  LUNAR LAT-LONG      EARTH LAT-LONG
000670:
000671: 37,2001     4677               LUNABIT            =        BIT12
000672:
000673:                                                                                                  #                        BIT 11 FLAG 3
000674: 37,2001                        P22MKFLG           =        049D                                  #  P22 DOWNLINKED MARK P22 DOWLINK MARK
000675:                                                                                                  #  DATA WAS JUST TAKEN DATA NOT JUST TAKEN
000676:
000677: 37,2001     4700               P22MKBIT           =        BIT11
000678:
000679:                                                                                                  #                        BIT 10 FLAG 3
000680: 37,2001                        VFLAG              =        050D                                  #  LESS THAN TWO STARS TWO STARS IN FIELD
000681:                                                                                                  #  IN FIELD OF VIEW    OF VIEW
000682:
000683: 37,2001     4701               VFLAGBIT           =        BIT10
000684:
000685:                                                                                                  #                        BIT 9 FLAG 3
000686:                                                                                                  #                =       051D
000687:
000688:
000689:                                                                                                  #                        BIT 8 FLAG 3
000690: 37,2001                        PRECIFLG           =        052D                                  #  CSMPREC OR LEMPREC INTEGRV OR INTEGRVS
000691:                                                                                                  #  CALLED              CALLED
000692:
000693: 37,2001     4703               PRECIBIT           =        BIT8
000694:
000695:                                                                                                  #                        BIT 7 FLAG 3
000696: 37,2001                        CULTFLAG           =        053D                                  #  STAR OCCULTED       STAR NOT OCCULTED
000697:
000698: 37,2001     4704               CULTBIT            =        BIT7
000699:
000700:                                                                                                  #                        BIT 6 FLAG 3
000701: 37,2001                        ORBWFLAG           =        054D                                  #  W MATRIX VALID FOR  W MATRIX INVALID FOR
000702:                                                                                                  #  ORBITAL N1VIGATION  ORBITAL NAVIGATION
000703:
000704: 37,2001     4705               ORBWFBIT           =        BIT6
000705:
000706:                                                                                                  #                        BIT 5 FLAG 3
000707: 37,2001                        STATEFLG           =        055D                                  #  PERMANENT STATE     PERMANENT STATE
000708:                                                                                                  #  VECTOR UPDATED      VECTOR NOT UPDATED
000709:
000710: 37,2001     4706               STATEBIT           =        BIT5
000711:
000712:                                                                                                  #                        BIT 4 FLAG 3
000713: 37,2001                        INTYPFLG           =        056D                                  #  CONIC INTEGRATION   ENCKE INTEGRATION
000714:
000715: 37,2001     4707               INTYBIT            =        BIT4
000716:


000718:                                                                                                  #                        BIT 3 FLAG 3
000719: 37,2001                        VINTFLAG           =        057D                                  #  CSM STATE VECTOR    LEM STATE VECTOR
000720:                                                                                                  #  BEING INTEGRATED    BEING INTEGRATED
000721:
000722: 37,2001     4710               VINTFBIT           =        BIT3
000723:
000724:                                                                                                  #                        BIT 2 FLAG 3
000725: 37,2001                        D6OR9FLG           =        058D                                  #  DIMENSION OF W IS 9 DIMENSION OF W IS 6
000726:                                                                                                  #  FOR INTEGRATION     FOR INTEGRATION
000727:
000728: 37,2001     4711               D6OR9BIT           =        BIT2
000729:
000730:                                                                                                  #                        BIT 1 FLAG 3
000731: 37,2001                        DIM0FLAG           =        059D                                  #  W MATRIX IS TO BE   W MATRIX IS NOT TO
000732:                                                                                                  #  USED                BE USED
000733:
000734: 37,2001     0100               FLAGWRD4           =        STATE      +4                         #  (060-074)
000735:
000736:                                                                                                  #  (SET)               (RESET)
000737:
000738: 37,2001     4712               DIM0BIT            =        BIT1
000739:
000740:                                                                                                  #                        BIT 15 FLAG 4
000741: 37,2001                        MRKIDFLG           =        060D                                  #  MARK DISPLAY IN     NO MARK DISPLAY IN
000742:                                                                                                  #  ENDIDLE             ENDIDLE
000743:
000744: 37,2001     4674               MRKIDBIT           =        BIT15
000745:
000746:                                                                                                  #                        BIT 14 FLAG 4
000747: 37,2001                        PRIODFLG           =        061D                                  #  PRIORITY DISPLAY IN NO PRIORITY DISPLAY
000748:                                                                                                  #  ENDIDLE             IN ENDIDLE
000749:
000750: 37,2001     4675               PRIODBIT           =        BIT14
000751:
000752:                                                                                                  #                        BIT 13 FLAG 4
000753: 37,2001                        NRMIDFLG           =        062D                                  #  NORMAL DISPLAY IN   NO NORMAL DISPLAY
000754:                                                                                                  #  ENDIDLE             IN ENDIDLE
000755:
000756: 37,2001     4676               NRMIDBIT           =        BIT13
000757:
000758:                                                                                                  #                        BIT 12 FLAG 4
000759: 37,2001                        PDSPFLAG           =        063D                                  #  CAN'T INTERRUPT     SEE M. HAMILTON
000760:                                                                                                  #  PRIORITY DISPLAY
000761:
000762: 37,2001     4677               PDSPFBIT           =        BIT12
000763:
000764:                                                                                                  #                        BIT 11 FLAG 4
000765: 37,2001                        MWAITFLG           =        064D                                  #  HIGHER PRIORITY     NO HIGHER PRIORITY
000766:                                                                                                  #  DISPLAY OPERATING   DISPLAY OPERATING
000767:                                                                                                  #  WHEN MARK DISPLAY   WHEN MARK DISPLAY


000769:                                                                                                  #  INITIATED           INITIATED
000770:
000771: 37,2001     4700               MWAITBIT           =        BIT11
000772:
000773:                                                                                                  #                        BIT 10 FLAG 4
000774: 37,2001                        NWAITFLG           =        065D                                  #  HIGHER PRIORITY     NO HIGHER PRIORITY
000775:                                                                                                  #  DISPLAY OPERATING   DISPLAY OPERATING
000776:                                                                                                  #  WHEN NORMAL         WHEN NORMAL DISPLAY
000777:                                                                                                  #  DISPLAY INITIATED   INITIATED
000778:
000779: 37,2001     4701               NWAITBIT           =        BIT10
000780:
000781:                                                                                                  #                        BIT 9 FLAG 4
000782: 37,2001                        MRKNVFLG           =        066D                                  #  ASTRONAUT USING     ASTRONAUT NOT USING
000783:                                                                                                  #  KEYBOARD WHEN MARK  KEYBOARD WHEN MARK
000784:                                                                                                  #  DISPLAY INITIATED   DISPLAY INITIATED
000785:
000786: 37,2001     4702               MRKNVBIT           =        BIT9
000787:
000788:                                                                                                  #                        BIT 8 FLAG 4
000789: 37,2001                        NRMNVFLG           =        067D                                  #  ASTRONAUT USING     ASTRONAUT NOT USING
000790:                                                                                                  #  KEYBOARD WHEN       KEYBOARD WHEN
000791:                                                                                                  #  NORMAL DISPLAY      NORMAL DISPLAY
000792:                                                                                                  #  INITIATED           INITIATED
000793:
000794: 37,2001     4703               NRMNVBIT           =        BIT8
000795:
000796:                                                                                                  #                        BIT 7 FLAG 4
000797: 37,2001                        PRONVFLG           =        068D                                  #  ASTRONAUT USING     ASTRONAUT NOT USING
000798:                                                                                                  #  KEYBOARD WHEN       KEYBOARD WHEN
000799:                                                                                                  #  PRIORITY DISPLAY    PRIORITY DISPLAY
000800:                                                                                                  #  INITIATED           INITIATED
000801:
000802: 37,2001     4704               PRONVBIT           =        BIT7
000803:
000804:                                                                                                  #                        BIT 6 FLAG 4
000805: 37,2001                        PINBRFLG           =        069D                                  #  ASTRONAUT HAS       ASTRONAUT HAS NOT
000806:                                                                                                  #  INTERFERED WITH     INTERFERED WITH
000807:                                                                                                  #  EXISTING DISPLAY    EXISTING DISPLAY
000808:
000809: 37,2001     4705               PINBRBIT           =        BIT6
000810:
000811:                                                                                                  #                        BIT 5 FLAG 4
000812: 37,2001                        MRUPTFLG           =        070D                                  #  MARK DISPLAY        MARK DISPLAY NOT
000813:                                                                                                  #  INTERRUPTED BY      INTERRUPTED BY
000814:                                                                                                  #  PRIORITY DISPLAY    PRIORITY DISPLAY
000815:
000816: 37,2001     4706               MRUPTBIT           =        BIT5
000817:
000818:                                                                                                  #                        BIT 4 FLAG 4


000820: 37,2001                        NRUPTFLG           =        071D                                  #  NORMAL DISPLAY      NORMAL DISPLAY NOT
000821:                                                                                                  #  INTERRUPTED BY      INTERRUPTED BY
000822:                                                                                                  #  PRIORITY OR MARK    PRIORITY OR MARK
000823:                                                                                                  #  DISPLAY             DISPLAY
000824:
000825: 37,2001     4707               NRUPTBIT           =        BIT4
000826:
000827:                                                                                                  #                        BIT 3 FLAG 4
000828: 37,2001                        MKOVFLAG           =        072D                                  #  MARK DISPLAY OVER   NO MARK DISPLAY OVER
000829:                                                                                                  #  NORMAL              NORMAL
000830:
000831: 37,2001     4710               MKOVBIT            =        BIT3
000832:
000833:                                                                                                  #                        BIT 2 FLAG 4      DISPLAY BIT
000834:                                                                                                  #                =       073D              CLEARED AT INTERVALS
000835:
000836:
000837:                                                                                                  #                        BIT 1 FLAG 4      MARK DISPLAY NOT TO NO SPECIAL MARK
000838: 37,2001                        XDSPFLAG           =        074D                                  #  BE INTERRUPTED      INFORMATION.
000839:
000840:
000841: 37,2001     4712               XDSPBIT            =        BIT1
000842:
000843: 37,2001     0101               FLAGWRD5           =        STATE      +5                         #  (075-099)
000844:
000845:                                                                                                  #  (SET)               (RESET)
000846:
000847:                                                                                                  #                        BIT 15 FLAG 5
000848: 37,2001                        DSKYFLAG           =        075D                                  #  DISPLAYS SENT TO    NO DISPLAYS TO DSKY
000849:                                                                                                  #  DSKY
000850:
000851:
000852: 37,2001     4674               DSKYBIT            =        BIT15
000853:
000854:                                                                                                  #                        BIT 14 FLAG 5
000855:                                                                                                  #                =       76D
000856:
000857:                                                                                                  #                        BIT 13 FLAG 5
000858:                                                                                                  #                =       77D
000859:
000860:                                                                                                  #                        BIT 12 FLAG 5
000861: 37,2001                        V59FLAG            =        078D                                  #  CALIBRATING FOR     NORMAL MARKING FOR
000862:                                                                                                  #  P23                 P23
000863:
000864: 37,2001     4677               V59FLBIT           =        BIT12
000865:
000866:                                                                                                  #                        BIT 11 FLAG 5
000867: 37,2001                        INCORFLG           =        079D                                  #  FIRST INCORPORATION SECOND INCORPORATION
000868:
000869: 37,2001     4700               INCORBIT           =        BIT11
000870:


000872:                                                                                                  #                        BIT 10 FLAG 5
000873: 37,2001                        RNGSCFLG           =        080D                                  #  ANOTHER TAG FOR PRFTKAT
000874:
000875:                                                                                                  #                        BIT 10 FLAG 5
000876: 37,2001  0000120               PRFTRKAT           =        RNGSCFLG                              #  PREF TRACK ATT      +X AXIS TRACK ATT
000877:
000878:
000879: 37,2001     4701               PRFTRBIT           =        BIT10
000880:
000881:                                                                                                  #                        BIT 9 FLAG 5
000882: 37,2001                        DMENFLG            =        081D                                  #  DIMENSION OF W IS 9 DIMENSION OF W IS 6
000883:                                                                                                  #  FOR INCORPORATION   FOR INCORPORATION
000884:
000885: 37,2001     4702               DMENFBIT           =        BIT9
000886:
000887:                                                                                                  #                        BIT 8 FLAG 5
000888: 37,2001                        COMPUTER           =        082D                                  #  COMPUTER IS CMC     COMPUTER IS LGC
000889:
000890: 37,2001     4703               COMPTBIT           =        BIT8
000891:
000892:                                                                                                  #                        BIT 7 FLAG 5
000893: 37,2001                        ENGONFLG           =        083D                                  #  ENGINE TURNED ON    ENGINE TURNED OFF
000894:
000895: 37,2001     4704               ENGONBIT           =        BIT7
000896:
000897:                                                                                                  #                        BIT 6 FLAG 5
000898: 37,2001                        3AXISFLG           =        084D                                  #  MANEUVER SPECIFIED  MANEUVER SPECIFIED
000899:                                                                                                  #  BY THREE AXES       BY ONE AXIS
000900:
000901: 37,2001     4705               3AXISBIT           =        BIT6
000902:
000903:                                                                                                  #                        BIT 5 FLAG 5
000904: 37,2001                        GRRBKFLG           =        085D                                  #  BACKUP GRR RECEIVED BACKUP GRR NOT
000905:                                                                                                  #                      RECEIVED
000906:
000907: 37,2001     4706               GRRBKBIT           =        BIT5
000908:
000909:                                                                                                  #                        BIT 4 FLAG 5
000910: 37,2001                        R60FLAG            =        086D                                  #  R61 MUST USE R60    NORMAL R61
000911:
000912:
000913: 37,2001     4707               R60FLBIT           =        BIT4
000914:
000915:                                                                                                  #                        BIT 3 FLAG 5
000916: 37,2001                        SOLNSW             =        087D                                  #  LAMBERT DOES NOT    LAMBERT CONVERGES OR
000917:                                                                                                  #  CONVERGE, OR TIME-  TIME-RADIUS NON
000918:                                                                                                  #  RADIUS NEARLY CIRC. CIRCULAR.
000919:


000921: 37,2001     4710               SOLNSBIT           =        BIT3
000922:
000923:                                                                                                  #                        BIT 2 FLAG 5
000924: 37,2001                        MGLVFLAG           =        088D                                  #  LOCAL VERTICAL      MIDDLE GIMBAL ANGLE
000925:                                                                                                  #  COORDINATES         COMPUTED
000926:                                                                                                  #  COMPUTED
000927:
000928: 37,2001     4711               MGLVFBIT           =        BIT2
000929:
000930:                                                                                                  #                        BIT 1 FLAG 5
000931: 37,2001                        RENDWFLG           =        089D                                  #  W MATRIX VALID      W MATRIX INVALID
000932:                                                                                                  #  FOR RENDEZVOUS      FOR RENDEZVOUS
000933:                                                                                                  #  NAVIGATION          NAVIGATION
000934:
000935: 37,2001     4712               RENDWBIT           =        BIT1
000936:
000937: 37,2001     0102               FLAGWRD6           =        STATE      +6                         #  (090-104)
000938:
000939:                                                                                                  #  (SET)               (RESET)
000940:
000941:                                                                                                  #                        BIT 15 FLAG 6
000942: 37,2001                        DAPBIT1            =        090D                                  #  1 SATURN 1 TVC      0 RCS    0 NO
000943:
000944: 37,2001     4674               DAP1BIT            =        BIT15
000945:
000946:                                                                                                  #                        BIT 14 FLAG 6
000947: 37,2001                        DAPBIT2            =        091D                                  #  1 A/P     0 A/P     1 A/P     0 A/P
000948:
000949: 37,2001     4675               DAP2BIT            =        BIT14
000950:
000951:                                                                                                  #                        BIT 13 FLAG 6
000952: 37,2001                        STRULLSW           =        92D                                   #  DO STEERULL         DO ULAGEOFF ONLY
000953:
000954: 37,2001     4676               STRULBIT           =        BIT13
000955:
000956:                                                                                                  #                        BIT 13 FLAG 6
000957: 37,2001  0000134               ENTRYDSP           =        STRULLSW                              #  DO ENTRY DISPLAY    OMIT ENTRY DISPLAY
000958:                                                                                                  #  VIA ENTRYVN.
000959:
000960: 37,2001     4676               ENDSPBIT           =        BIT13
000961:
000962:                                                                                                  #                        BIT 12 FLAG 6
000963: 37,2001                        CMDAPARM           =        093D                                  #  ALOW ENTRY FIRINGS  INHIBIT ENTRY FIRING
000964:                                                                                                  #  AND CALCULATIONS    AND CONTROL FUNCTION
000965:
000966: 37,2001     4677               CMARMBIT           =        BIT12
000967:
000968:                                                                                                  #                        BIT 11 FLAG 6
000969: 37,2001                        GAMDIFSW           =        094D                                  #  CALCULATE GAMDOT    GAMDOT NOT TO BE


000971:                                                                                                  #                      CALCULATED
000972:
000973: 37,2001     4700               GMDIFBIT           =        BIT11
000974:
000975:                                                                                                  #                        BIT 10 FLAG 6
000976: 37,2001                        GMBDRVSW           =        095D                                  #  TRIMGIMB OVER       TRIMGIMB NOT OVER
000977:
000978: 37,2001     4701               GMBDRBIT           =        BIT10
000979:
000980:                                                                                                  #                        BIT 10 FLAG 6
000981: 37,2001  0000137               GONEPAST           =        GMBDRVSW                              #  LATERAL CONTROL     LATERAL CONTROL
000982:                                                                                                  #  CALCULATIONS TO BE  CALCULATIONS TO BE
000983:                                                                                                  #  OMITTED             DONE
000984:
000985: 37,2001     4701               GONEBIT            =        BIT10
000986:
000987:                                                                                                  #                        BIT 9 FLAG 6
000988: 37,2001                        RELVELSW           =        096D                                  #  TARGETING USES      TARGETING USES
000989:                                                                                                  #  EARTH-RELATIVE      INERTIAL VELOCITY
000990:                                                                                                  #  VELOCITY
000991:
000992: 37,2001     4702               RELVBIT            =        BIT9
000993:
000994:                                                                                                  #                        BIT 8 FLAG 6
000995: 37,2001                        EGSW               =        097D                                  #  IN FINAL PHASE      NOT IN FINAL PHASE
000996:
000997: 37,2001     4703               EGFLGBIT           =        BIT8
000998:
000999:                                                                                                  #                        BIT 8 FLAG 6
001000: 37,2001  0000141               KNOWNFLG           =        EGSW                                  #  LANDMARK KNOWN      LANDMARK UNKNOWN
001001:
001002: 37,2001     4703               KNOWNBIT           =        BIT8
001003:
001004:                                                                                                  #                        BIT 8 FLAG 6
001005: 37,2001  0000141               R57FLAG            =        KNOWNFLG                              #  DO NOT DO R57       DO R57, TRUNION
001006:                                                                                                  #  TRUNION BIAS HAS    BIAS NEEDED
001007:                                                                                                  #  BEEN OBTAINED.
001008:
001009: 37,2001     4703               R57BIT             =        BIT8
001010:
001011:                                                                                                  #                        BIT 7 FLAG 6
001012: 37,2001                        NOSWITCH           =        098D                                  #  LATERAL ROLL        LATERAL ROLL MANUVER
001013: 37,2001     4704               NOSWBIT            =        BIT7                                  #  MANUVER INHIBITED   PERMITED IN ENTRY
001014:                                                                                                  #  IN ENTRY
001015:
001016:
001017:                                                                                                  #                        BIT 6 FLAG 6
001018: 37,2001                        HIND               =        099D                                  #  ITERATING HUNTEST   ITERATING OF HUNTEST
001019:                                                                                                  #  CALCULATIONS TO BE  CALCULATIONS TO BE
001020:                                                                                                  #  DONE AFTER RANGE    OMITTED AFTER RANGE


001022:                                                                                                  #  PREDICTION          PREDICTION
001023:
001024: 37,2001     4705               HINDBIT            =        BIT6
001025:
001026:                                                                                                  #                        BIT 5 FLAG 6
001027: 37,2001                        INRLSW             =        100D                                  #  INITIAL ROLL        INITIAL ROLL
001028:                                                                                                  #  V(LV)               V(LV)
001029:
001030: 37,2001     4706               INRLBIT            =        BIT5
001031:
001032:                                                                                                  #  ATTITUDE NOT HELD   ATTITUDE HELD
001033:
001034:                                                                                                  #                        BIT 4 FLAG 6
001035: 37,2001                        LATSW              =        101D                                  #  DOWNLIFT NOT        DOWNLIFT INHIBITED
001036:                                                                                                  #  INHIBITED
001037:
001038: 37,2001     4707               LATSWBIT           =        BIT4
001039:
001040:                                                                                                  #                        BIT 3 FLAG 6
001041: 37,2001                        .05GSW             =        102D                                  #  DRAG OVER .05G      DRAG LESS THAN .05G
001042:
001043: 37,2001     4710               .05GBIT            =        BIT3
001044:
001045:                                                                                                  #                        BIT 3 FLAG 6
001046: 37,2001                        NTARGFLG           =        102D                                  #  ASTRONAUT DID       ASTRONAUT DID NOT
001047:                                                                                                  #  OVERWRITE DELTA     OVERWRITE DELTA
001048: 37,2001     4710               NTARGBIT           =        BIT3
001049:
001050:                                                                                                  #                        BIT 2 FLAG 6
001051: 37,2001                        CM/DSTBY           =        103D                                  #  ENTRY DAP ACTIVATED ENTRY DAP NOT
001052:                                                                                                  #                      ACTIVATED
001053:
001054: 37,2001     4711               CM/DSBIT           =        BIT2
001055:
001056:                                                                                                  #                        BIT 1 FLAG 6
001057: 37,2001                        GYMDIFSW           =        104D                                  #  CDU DIFFERENCES AND CDU DIFFERENCES AND
001058:                                                                                                  #  BODY RATES COMPUTED BODY RATES NOT
001059:                                                                                                  #                      COMPUTED
001060:
001061: 37,2001     4712               GYMDIBIT           =        BIT1
001062:
001063: 37,2001     0103               FLAGWRD7           =        STATE      +7                         #  (105-119)
001064:
001065:                                                                                                  #  (SET)               (RESET)
001066:
001067:                                                                                                  #                        BIT 15 FLAG 7
001068: 37,2001                        TERMIFLG           =        105D                                  #  TERMINATE R21,R22   DO NOT TERMINATE
001069:                                                                                                  #                      R21,R22
001070:
001071: 37,2001     4674               TERMIBIT           =        BIT15
001072:


001074:                                                                                                  #                        BIT 14 FLAG 7
001075: 37,2001                        ITSWICH            =        106D                                  #  ACCEPT NEXT LAMBERT TEST LAMBERT ANSWER
001076:                                                                                                  #  TPI SEARCH SOLUTION AGAINST LIMITS
001077:
001078: 37,2001     4675               ITSWBIT            =        BIT14
001079:
001080:                                                                                                  #                        BIT 13 FLAG 7
001081: 37,2001                        IGNFLAG            =        107D                                  #  TIG HAS ARRIVED     TIG HAS NOT ARRIVED
001082:
001083: 37,2001     4676               IGNFLBIT           =        BIT13
001084:
001085:                                                                                                  #                        BIT 12 FLAG 7
001086: 37,2001                        ASTNFLAG           =        108D                                  #  ASTRONAUT HAS       ASTRONAUT HAS NOT
001087:                                                                                                  #  OKAYED IGNITION     OKAYED IGNITION
001088:
001089: 37,2001     4677               ASTNBIT            =        BIT12
001090:
001091:                                                                                                  #                        BIT 11 FLAG 7
001092: 37,2001                        TIMRFLAG           =        109D                                  #  CLOKTASK OPERATING  CLOKTASK INOPERATIVE
001093:
001094: 37,2001     4700               TIMRBIT            =        BIT11
001095:
001096:                                                                                                  #                        BIT 10 FLAG 7
001097: 37,2001                        NORMSW             =        110D                                  #  UNIT NORMAL INPUT   LAMBERT COMPUTE ITS
001098:                                                                                                  #  TO LAMBERT.         OWN UNIT NORMAL.
001099:
001100: 37,2001     4701               NORMSBIT           =        BIT10
001101:
001102:                                                                                                  #                        BIT 9 FLAG 7
001103: 37,2001                        RVSW               =        111D                                  #  DO NOT COMPUTE FINAL COMPUTE FINAL STATE
001104:                                                                                                  #  STATE VECTOR IN     VECTOR IN TIME-THETA
001105:                                                                                                  #  TIME-THETA.
001106:
001107:
001108: 37,2001     4702               RVSWBIT            =        BIT9
001109:
001110:                                                                                                  #                        BIT 8 FLAG 7
001111: 37,2001                        GONEBY             =        112D                                  #  PASSED TARGET       APPROACHING TARGET
001112:
001113: 37,2001     4703               GONBYBIT           =        BIT8
001114:
001115:                                                                                                  #                        BIT 7 FLAG 7
001116: 37,2001                        IDLEFLAG           =        113D                                  #  NO DV MONITOR       CONNECT DV MONITOR
001117:
001118: 37,2001     4704               IDLEFBIT           =        BIT7
001119:
001120:                                                                                                  #                        BIT 6 FLAG 7
001121: 37,2001                        V37FLAG            =        114D                                  #  AVERAGEG (SERVICER) AVERAGEG (SERVICER)
001122:                                                                                                  #  RUNNING             OFF
001123:


001125: 37,2001     4705               V37FLBIT           =        BIT6
001126:
001127:                                                                                                  #                        BIT 5 FLAG 7
001128:                                                                                                  #                =       115D
001129:                                                                                                  #                =       BIT5
001130:
001131:
001132:                                                                                                  #                        BIT 4 FLAG 7
001133: 37,2001                        UPLOCKFL           =        116D                                  #  K-KBAR-K FAIL       NO K-KBAR-K FAIL
001134:
001135: 37,2001     4707               UPLOCBIT           =        BIT4
001136:
001137:                                                                                                  #                        BIT 3 FLAG 7
001138: 37,2001                        VERIFLAG           =        117D                                  #  CHANGED WHEN V33E OCCURS AT END OF P27
001139:
001140: 37,2001     4710               VERIFBIT           =        BIT3
001141:
001142:                                                                                                  #                        BIT 2 FLAG 7
001143: 37,2001                        ATTCHFLG           =        118D                                  #  LM,CM ATTACHED      LM,CM NOT ATTACHED
001144:
001145: 37,2001     4711               ATTCHBIT           =        BIT2
001146:
001147:                                                                                                  #                        BIT 1 FLAG 7
001148: 37,2001                        TFFSW              =        119D                                  #  CALCULATE TPERIGEE  CALCULATE TFF
001149:
001150: 37,2001     4712               TFFSWBIT           =        BIT1
001151:
001152: 37,2001     0104               FLAGWRD8           =        STATE      +8D                        #  (120-134)
001153:
001154:                                                                                                  #  (SET)               (RESET)
001155:
001156:                                                                                                  #                        BIT 15 FLAG 8
001157: 37,2001                        RPQFLAG            =        120D                                  #  RPQ NOT COMPUTED    RPQ COMPUTED
001158:
001159: 37,2001     4674               RPQFLBIT           =        BIT15
001160:
001161:                                                                                                  #                        BIT 14 FLAG 8
001162:                                                                                                  #                =       121D
001163:
001164:
001165:                                                                                                  #                        BIT 13 FLAG 8
001166: 37,2001                        NEWIFLG            =        122D                                  #  FIRST PASS THROUGH  SUCCEEDING ITERATION
001167:                                                                                                  #  INTEGRATION         OF INTEGRATION
001168:
001169: 37,2001     4676               NEWIBIT            =        BIT13
001170:
001171:                                                                                                  #                        BIT 12 FLAG 8
001172: 37,2001                        CMOONFLG           =        123D                                  #  PERMANENT CSM STATE PERMANENT CSM STATE
001173: 37,2001     4677               CMOONBIT           =        BIT12                                 #  IN LUNAR SPHERE     IN EARTH SPHERE
001174:


001176:                                                                                                  #                        BIT 11 FLAG 8
001177: 37,2001                        LMOONFLG           =        124D                                  #  PERMANENT LM  STATE PERMANENT LM STATE
001178: 37,2001     4700               LMOONBIT           =        BIT11                                 #  IN LUNAR SPHERE     IN EARTH SHPERE
001179:
001180:                                                                                                  #                        BIT 10 FLAG 8
001181: 37,2001                        ADVTRK             =        125D                                  #  ADVANCE GROUND TRACK NOT ADVANCED
001182:                                                                                                  #  SIGHTING WANTED      GROUND TRACK
001183:
001184: 37,2001     4701               ADVTKBIT           =        BIT10
001185:
001186:                                                                                                  #                        BIT 9 FLAG 8
001187: 37,2001                        P39/79SW           =        126D                                  #  P39/79 OPERATING     P38/78 OPERATING
001188:
001189: 37,2001     4702               P39SWBIT           =        BIT9
001190:
001191:                                                                                                  #                        BIT 8 FLAG 8
001192: 37,2001                        SURFFLAG           =        127D                                  #  LM ON LUNAR SURFACE LM NOT ON LUNAR
001193:                                                                                                  #                      SURFACE
001194:
001195: 37,2001     4703               SURFFBIT           =        BIT8
001196:
001197:                                                                                                  #                        BIT 7 FLAG 8
001198: 37,2001                        INFINFLG           =        128D                                  #  NO CONIC SOLUTION   CONIC SOLUTION
001199:                                                                                                  #  (CLOSURE THROUGH    EXISTS.
001200:                                                                                                  #  INFINITY REQUIRED).
001201:
001202:
001203: 37,2001     4704               INFINBIT           =        BIT7
001204:
001205:                                                                                                  #                        BIT 6 FLAG 8
001206: 37,2001                        ORDERSW            =        129D                                  #  ITERATOR USES 2ND   ITERATOR USES 1ST
001207:                                                                                                  #  ORDER MINIMUM MODE. ORDER STANDARD MODE.
001208:
001209:
001210: 37,2001     4705               ORDERBIT           =        BIT6
001211:
001212:                                                                                                  #                        BIT 5 FLAG 8
001213: 37,2001                        APSESW             =        130D                                  #  RDESIRED OUTSIDE    RDESIRED INSIDE
001214:                                                                                                  #  PERICENTER-APOCENTER PERICENTER-APOCENTE
001215:                                                                                                  #  RANGE IN TIME-RAD   RANGE IN TIME-RADIUS
001216:
001217:
001218: 37,2001     4706               APSESBIT           =        BIT5
001219:
001220:                                                                                                  #                        BIT 4 FLAG 8
001221: 37,2001                        COGAFLAG           =        131D                                  #  NO CONIC  SOLUTION  CONIC SOLUTION
001222:                                                                                                  #  TOO CLOSE TO        EXISTS (COGA DOES
001223:                                                                                                  #  RECTILINEAR (COGA   NOT  OVERFLOW).
001224:                                                                                                  #  OVERFLOWS).
001225:


001227: 37,2001     4707               COGAFBIT           =        BIT4
001228:
001229:                                                                                                  #                        BIT 3 FLAG 8
001230:                                                                                                  #                =       132D
001231:
001232:                                                                                                  #                        BIT 2 FLAG 8
001233:                                                                                                  #                =       133D
001234:
001235:                                                                                                  #                        BIT 1 FLAG 8
001236: 37,2001                        360SW              =        134D                                  #  TRANSFER ANGLE NEAR TRANSFER ANGLE NOT
001237:                                                                                                  #  360 DEGREES         NEAR 360 DEGREES
001238:
001239: 37,2001     4712               360SWBIT           =        BIT1
001240:
001241: 37,2001     0105               FLAGWRD9           =        STATE      +9D                        #  (135-149)
001242:
001243:                                                                                                  #  (SET)               (RESET)
001244:                                                                                                  #                        BIT 15 FLAG 9
001245: 37,2001                        SWTOVER            =        135D                                  #  SWITCHOVER HAS      NO SWITCHOVER YET
001246:                                                                                                  #  OCCURRED
001247:
001248: 37,2001     4674               SWTOVBIT           =        BIT15
001249:
001250:                                                                                                  #                        BIT 14 FLAG 9
001251: 37,2001                        V67FLAG            =        136D                                  #  ASTRONAUT OVERWRITES ASTRONAUT DOES NOT
001252:                                                                                                  #  W MATRIX INITIAL    OVERWRITE INITIAL
001253:                                                                                                  #  VALUES              VALUES
001254:
001255: 37,2001     4675               V67FLBIT           =        BIT14
001256:
001257:                                                                                                  #                        BIT 13 FLAG 9
001258: 37,2001                        V82EMFLG           =        137D                                  #  MOON VICINITY       EARTH VICINITY
001259:
001260:
001261:
001262: 37,2001     4676               V82EMBIT           =        BIT13
001263:
001264:                                                                                                  #                        BIT 12 FLAG 9
001265: 37,2001                        MAXDBFLG           =        138D                                  #  MAX DB SELECTED     MIN DB SELECTED
001266:
001267: 37,2001     4677               MAXDBBIT           =        BIT12
001268:
001269:                                                                                                  #                        BIT 11 FLAG 9
001270: 37,2001                        V94FLAG            =        139D                                  #  V94 ALLOWED DURING  V94 NOT ALLOWED
001271:                                                                                                  #  P23
001272:
001273: 37,2001     4700               V94FLBIT           =        BIT11
001274:


001276:                                                                                                  #                        BIT 10 FLAG 9
001277: 37,2001                        SAVECFLG           =        140D                                  #  P23 DISPLAY AND     P23 DISPLAY AND
001278:                                                                                                  #  DATA STORAGE AFTER  DATA STORAGE BEFORE
001279:                                                                                                  #  MARK IS DONE        MARK IS DONE
001280:
001281: 37,2001     4701               SAVECBIT           =        BIT10
001282:
001283:                                                                                                  #                        BIT  9 FLAG 9
001284: 37,2001                        VHFRFLAG           =        141D                                  #  ALLOW R22 TO        STOP ACCEPTANCE
001285:                                                                                                  #  ACCEPT RANGE        OF RANGE DATA
001286:                                                                                                  #  DATA
001287:
001288: 37,2001     4702               VHFRBIT            =        BIT9
001289:
001290:                                                                                                  #                        BIT  8 FLAG 9
001291: 37,2001                        SOURCFLG           =        142D                                  #  SOURCE OF INPUT     SOURCE OF INPUT
001292:                                                                                                  #  DATA IS FROM        DATA IS FROM
001293:                                                                                                  #  VHF RADAR           OPTICS MARK
001294:
001295: 37,2001     4703               SOURCBIT           =        BIT8
001296:
001297:                                                                                                  #                        BIT  7 FLAG 9
001298: 37,2001                        R22CAFLG           =        143D                                  #  R-22 CALCULATIONS   R-22 CALCULATIONS
001299:                                                                                                  #  ARE GOING ON        ARE NOT GOING ON
001300:
001301: 37,2001     4704               R22CABIT           =        BIT7
001302:
001303:                                                                                                  #                        BIT  6 FLAG 9
001304: 37,2001                        N22ORN17           =        144D                                  #  COMPUTE TOTAL       COMPUTE TOTAL
001305:                                                                                                  #  ATTITUDE ERRORS     ATTITUDE ERRORS
001306:                                                                                                  #  WRT N22 (V62)       WRT N17 (V63)
001307:
001308: 37,2001     4705               N2217BIT           =        BIT6
001309:
001310:                                                                                                  #                        BIT  5 FLAG 9
001311: 37,2001                        QUITFLAG           =        145D
001312:
001313: 37,2001     4706               QUITBIT            =        BIT5
001314:
001315:                                                                                                  #                        BIT  4 FLAG 9
001316: 37,2001                        R31FLAG            =        146D                                  #  R31 SELECTED (V83)  R34 SELECTED (V85)
001317:
001318: 37,2001     4707               R31FLBIT           =        BIT4
001319:
001320:                                                                                                  #                        BIT  3 FLAG 9
001321: 37,2001                        MID1FLAG           =        147D                                  #  INTEGRATE TO TDEC   INTEGRATE TO THE
001322:                                                                                                  #                      THEN-PRESENT TIME
001323:
001324: 37,2001     4710               MID1FBIT           =        BIT3
001325:


001327:                                                                                                  #                        BIT  2 FLAG 9
001328: 37,2001                        MIDAVFLG           =        148D                                  #  INTEGRATION ENTERED INTEGRATION WAS
001329:                                                                                                  #  FROM ONE OF MIDTOAV NOT ENTERED VIA
001330:                                                                                                  #   PORTALS            MIDTOAV
001331:
001332: 37,2001     4711               MIDAVBIT           =        BIT2
001333:
001334:                                                                                                  #                        BIT  1 FLAG 9
001335: 37,2001                        AVEMIDSW           =        149D                                  #  AVETOMID CALLING    NO AVETOMID W INTEGR
001336:                                                                                                  #  FOR W.MATRIX INTEGR ALLOW SET UP RN,VN,
001337:                                                                                                  #  DONT WRITE OVER RN, PIPTIME
001338:                                                                                                  #  VN,PIPTIME
001339:
001340: 37,2001     4712               AVEMDBIT           =        BIT1
001341:
001342:                                                                                                  #  (SET)               (RESET)
001343:
001344: 37,2001     0106               FLGWRD10           =        STATE      +10D                       #  (150-164)
001345:
001346:
001347:
001348: 37,2001     0106               RASFLAG            =        STATE      +10D
001349:
001350:
001351:                                                                                                  #                        BIT 15 FLAG 10
001352:                                                                                                  #                =       150D
001353:
001354:                                                                                                  #                        BIT 14 FLAG 10
001355: 37,2001                        INTFLAG            =        151D                                  #  INTEGRATION IN      INTEGRATION NOT IN
001356:                                                                                                  #  PROGRESS            PROGRESS
001357:
001358: 37,2001     4675               INTFLBIT           =        BIT14
001359:
001360:                                                                                                  #                        BIT 13 FLAG 10
001361:                                                                                                  #                =       152D
001362:
001363:
001364:                                                                                                  #                        BIT 12 FLAG 10
001365:                                                                                                  #                =       153D
001366:
001367:                                                                                                  #                        BIT 11 FLAG 10
001368:                                                                                                  #                =       154D
001369:
001370:                                                                                                  #                        BIT 10 FLAG 10
001371:                                                                                                  #                =       155D
001372:
001373:
001374:                                                                                                  #                        BIT  9 FLAG 10
001375:                                                                                                  #                =       156D
001376:


001378:                                                                                                  #                        BIT  8 FLAG 10
001379:                                                                                                  #                =       157D
001380:
001381:
001382:                                                                                                  #                        BIT  7 FLAG 10
001383: 37,2001                        REINTFLG           =        158D                                  #  INTEGRATION ROUTINE INTEGRATION ROUTINE
001384:                                                                                                  #  TO BE RESTARTED     NOT TO BE RESTARTED
001385: 37,2001     4704               REINTBIT           =        BIT7
001386:
001387:                                                                                                  #                        BIT  6 FLAG 10
001388:                                                                                                  #                =       159D
001389:
001390:
001391:                                                                                                  #                        BIT  5 FLAG 10
001392:                                                                                                  #                =       160D
001393:
001394:
001395:                                                                                                  #                        BIT  4 FLAG 10
001396:                                                                                                  #                =       161D
001397:
001398:
001399:                                                                                                  #                        BIT  3 FLAG 10
001400:                                                                                                  #                =       162D
001401:
001402:
001403:                                                                                                  #                        BIT  2 FLAG 10
001404:                                                                                                  #                =       163D
001405:
001406:
001407:                                                                                                  #                        BIT  1 FLAG 10
001408:                                                                                                  #                =       164D
001409:
001410:
001411:
001412:
001413:
001414: 37,2001     0107               FLGWRD11           =        STATE      +11D                       #  (165-179)
001415:
001416:                                                                                                  #  (SET)               (RESET)
001417:
001418:                                                                                                  #                        BIT 15 FLAG 11
001419:                                                                                                  #                =       165D
001420:
001421:
001422:                                                                                                  #                        BIT 14 FLAG 11
001423:                                                                                                  #                =       166D
001424:
001425:
001426:                                                                                                  #                        BIT 13 FLAG 11
001427:                                                                                                  #                =       167D
001428:
001429:


001431:                                                                                                  #                        BIT 12 FLAG 11
001432:                                                                                                  #                =       168D
001433:
001434:
001435:                                                                                                  #                        BIT 11 FLAG 11
001436:                                                                                                  #                =       169D
001437:
001438:
001439:                                                                                                  #                        BIT 10 FLAG 11
001440:                                                                                                  #                =       170D
001441:
001442:
001443:                                                                                                  #                        BIT  9 FLAG 11
001444:                                                                                                  #                =       171D
001445:
001446:
001447:                                                                                                  #                        BIT  8 FLAG 11
001448:                                                                                                  #                =       172D
001449:
001450:
001451:                                                                                                  #                        BIT  7 FLAG 11
001452:                                                                                                  #                =       173D
001453:
001454:
001455:                                                                                                  #                        BIT  6 FLAG 11
001456:                                                                                                  #                =       174D
001457:
001458:
001459:                                                                                                  #                        BIT  5 FLAG 11
001460:                                                                                                  #                =       175D
001461:
001462:
001463:                                                                                                  #                        BIT  4 FLAG 11
001464:                                                                                                  #                =       176D
001465:
001466:
001467:                                                                                                  #                        BIT  3 FLAG 11
001468:                                                                                                  #                =       177D
001469:
001470:
001471:                                                                                                  #                        BIT  2 FLAG 11
001472:                                                                                                  #                =       178D
001473:
001474:
001475:                                                                                                  #                        BIT  1 FLAG 11
001476:                                                                                                  #                =       179D
001477:
001478:
001479:


001481:
001482:                                                                                                  #  GENERAL ERASABLE ASSIGNMENTS.
001483:
001484:    0061                                           SETLOC   61
001485:                                                                                                  #           INTERRUPT TEMPORARY STORAGE POOL.  (11D)
001486:                                                                                                  #             (ITEMP1 THROUGH RUPTREG4)
001487:
001488:                                                                                                  #           ANY OF THESE MAY BE USED AS TEMPORARIES DURING INTERRUPT OR WITH INTERRUPT INHIBITED. THE ITEMP SERIES
001489:                                                                                                  #  IS USED DURING CALLS TO THE EXECUTIVE AND WAITLIST - THE RUPTREGS ARE NOT.
001490:
001491:    0061                        ITEMP1             ERASE
001492:    0062     0061               WAITEXIT           EQUALS   ITEMP1
001493:    0062     0061               EXECTEM1           EQUALS   ITEMP1
001494:
001495:    0062                        ITEMP2             ERASE
001496:    0063     0062               WAITBANK           EQUALS   ITEMP2
001497:    0063     0062               EXECTEM2           EQUALS   ITEMP2
001498:
001499:    0063                        ITEMP3             ERASE
001500:    0064     0063               RUPTSTOR           EQUALS   ITEMP3
001501:    0064     0063               WAITADR            EQUALS   ITEMP3
001502:    0064     0063               NEWPRIO            EQUALS   ITEMP3
001503:
001504:    0064                        ITEMP4             ERASE
001505:    0065     0064               LOCCTR             EQUALS   ITEMP4
001506:    0065     0064               WAITTEMP           EQUALS   ITEMP4
001507:
001508:    0065                        ITEMP5             ERASE
001509:    0066     0065               NEWLOC             EQUALS   ITEMP5
001510:
001511:    0066                        ITEMP6             ERASE
001512:                                                                                                  #  NEWLOC+1      EQUALS  ITEMP6          DP ADDRESS.
001513:
001514:    0067                                           SETLOC   67
001515:    0067                        NEWJOB             ERASE                                          #  MUST BE AT LOC 67 DUE TO WIRING.
001516:
001517:    0070                        RUPTREG1           ERASE
001518:    0071                        RUPTREG2           ERASE
001519:    0072                        RUPTREG3           ERASE
001520:    0073                        RUPTREG4           ERASE
001521:    0074     0073               KEYTEMP1           EQUALS   RUPTREG4
001522:    0074     0073               DSRUPTEM           EQUALS   RUPTREG4
001523:
001524:                                                                                                  #           FLAGWORD RESERVATIONS.                                        (12D)
001525:
001526:    0074                        STATE              ERASE    +11D
001527:
001528:    0110                        FLAGFILL           ERASE    +3                                    #  SPACE FOR FUTURE FLAGS
001529:


001531:
001532:                                                                                                  #           EXEC TEMPORARIES WHICH MAY BE USED BETWEEN CCS NEWJOBS.
001533:                                                                                                  #           (INTB15+ THROUGH RUPTMXM)                                     (32D)
001534:
001535:    0114                        INTB15+            ERASE                                          #  REFLECTS 15TH BIT OF INDEXABLE ADDRESSES
001536:    0115     0114               DSEXIT             EQUALS   INTB15+                               #  RETURN FOR DSPIN
001537:    0115     0114               EXITEM             EQUALS   INTB15+                               #  RETURN FOR SCALE FACTOR ROUTINE SELECT
001538:    0115     0114               BLANKRET           EQUALS   INTB15+                               #  RETURN FOR 2BLANK
001539:
001540:    0115                        INTBIT15           ERASE                                          #  SIMILAR TO ABOVE.
001541:    0116     0115               WRDRET             EQUALS   INTBIT15                              #  RETURN FOR 5BLANK
001542:    0116     0115               WDRET              EQUALS   INTBIT15                              #  RETURN FOR DSPWD
001543:    0116     0115               DECRET             EQUALS   INTBIT15                              #  RETURN FOR PUTCOM(DEC LOAD)
001544:    0116     0115               21/22REG           EQUALS   INTBIT15                              #  TEMP FOR CHARIN
001545:
001546:                                                                                                  #           THE REGISTERS BETWEEN ADDRWD AND PRIORITY MUST STAY IN THE FOLLOWING ORDER FOR INTERPRETIVE TRACE.
001547:
001548:    0116                        ADDRWD             ERASE                                          #  12 BIT INTERPRETIVE OPERAND SUB-ADDRESS.
001549:    0117                        POLISH             ERASE                                          #  HOLDS CADR MADE FROM POLISH ADDRESS.
001550:    0120     0117               UPDATRET           EQUALS   POLISH                                #  RETURN FOR UPDATNN, UPDATVB
001551:    0120     0117               CHAR               EQUALS   POLISH                                #  TEMP FOR CHARIN
001552:    0120     0117               ERCNT              EQUALS   POLISH                                #  COUNTER FOR ERROR LIGHT RESET
001553:    0120     0117               DECOUNT            EQUALS   POLISH                                #  COUNTER FOR SCALING AND DISPLAY (DEC)
001554:
001555:    0120                        FIXLOC             ERASE                                          #  WORK AREA ADDRESS.
001556:    0121                        OVFIND             ERASE                                          #  SET NON-ZERO ON OVERFLOW.
001557:
001558:    0122                        VBUF               ERASE    +5                                    #  TEMPORARY STORAGE USED FOR VECTORS.
001559:    0130     0122               SGNON              EQUALS   VBUF                                  #  TEMP FOR +,- ON
001560:    0130     0122               NOUNTEM            EQUALS   VBUF                                  #  COUNTER FOR MIXNOUN FETCH
001561:    0130     0122               DISTEM             EQUALS   VBUF                                  #  COUNTER FOR OCTAL DISPLAY VERBS
001562:    0130     0122               DECTEM             EQUALS   VBUF                                  #  COUNTER FOR FETCH (DEC DISPLAY VERBS)
001563:
001564:    0130     0123               SGNOFF             EQUALS   VBUF       +1                         #  TEMP FOR +,- ON
001565:    0130     0123               NVTEMP             EQUALS   VBUF       +1                         #  TEMP FOR NVSUB
001566:    0130     0123               SFTEMP1            EQUALS   VBUF       +1                         #  STORAGE FOR SF CONST HI PART(=SFTEMP2-1)
001567:    0130     0123               HITEMIN            EQUALS   VBUF       +1                         #  TEMP FOR LOAD OF HRS, MIN, SEC
001568:                                                                                                  #           MUST = LOTEMIN-1.
001569:    0130     0124               CODE               EQUALS   VBUF       +2                         #  FOR DSPIN
001570:    0130     0124               SFTEMP2            EQUALS   VBUF       +2                         #  STORAGE FOR SF CONST LO PART(=SFTEMP1+1)
001571:    0130     0124               LOTEMIN            EQUALS   VBUF       +2                         #  TEMP FOR LOAD OF HRS, MIN, SEC
001572:                                                                                                  #           MUST = HITEMIN+1.
001573:    0130     0125               MIXTEMP            EQUALS   VBUF       +3                         #  FOR MIXNOUN DATA
001574:    0130     0125               SIGNRET            EQUALS   VBUF       +3                         #  RETURN FOR +,- ON
001575:
001576:                                                                                                  #  ALSO MIXTEMP+1 = VBUF+4, MIXTEMP+2 = VBUF+5.
001577:
001578:    0130                        BUF                ERASE    +2                                    #  TEMPORARY SCALAR STORAGE.
001579:    0133                        BUF2               ERASE    +1
001580:    0135     0130               INDEXLOC           EQUALS   BUF                                   #  CONTAINS ADDRESS OF SPECIFIED INDEX.
001581:    0135     0130               SWWORD             EQUALS   BUF                                   #  ADDRESS OF SWITCH WORD.


001583:    0135     0131               SWBIT              EQUALS   BUF        +1                         #  SWITCH BIT WITHIN SWITCH WORD.
001584:    0135                        MPTEMP             ERASE                                          #  TEMPORARY USED IN MULTIPLY AND SHIFT.
001585:    0136     0135               DMPNTEMP           EQUALS   MPTEMP                                #  DMPSUB TEMPORARY
001586:    0136                        DOTINC             ERASE                                          #  COMPONENT INCREMENT FOR DOT SUBROUTINE.
001587:    0137     0136               DVSIGN             EQUALS   DOTINC                                #  DETERMINES SIGN OF DDV RESULT.
001588:    0137     0136               ESCAPE             EQUALS   DOTINC                                #  USED IN ARCSIN/ARCCOS.
001589:    0137     0136               ENTRET             EQUALS   DOTINC                                #  EXIT FROM ENTER
001590:
001591:    0137                        DOTRET             ERASE                                          #  RETURN FROM DOT SUBROUTINE.
001592:    0140     0137               DVNORMCT           EQUALS   DOTRET                                #  DIVIDEND NORMALIZATION COUNT IN DDV.
001593:    0140     0137               ESCAPE2            EQUALS   DOTRET                                #  ALTERNATE ARCSIN/ARCCOS SWITCH.
001594:    0140     0137               WDCNT              EQUALS   DOTRET                                #  CHAR COUNTER FOR DSPWD
001595:    0140     0137               INREL              EQUALS   DOTRET                                #  INPUT BUFFER SELECTOR ( X,Y,Z, REG )
001596:
001597:    0140                        MATINC             ERASE                                          #  VECTOR INCREMENT IN MXV AND VXM.
001598:    0141     0140               MAXDVSW            EQUALS   MATINC                                #  +0 IF DP QUOTIENT IS NEAR ONE - ELSE -1.
001599:    0141     0140               POLYCNT            EQUALS   MATINC                                #  POLYNOMIAL LOOP COUNTER
001600:    0141     0140               DSPMMTEM           EQUALS   MATINC                                #  DSPCOUNT SAVE FOR DSPMM
001601:    0141     0140               MIXBR              EQUALS   MATINC                                #  INDICATOR FOR MIXED OR NORMAL NOUN
001602:
001603:    0141                        TEM1               ERASE                                          #  EXEC TEMP
001604:    0142     0141               POLYRET            EQUALS   TEM1
001605:    0142     0141               DSREL              EQUALS   TEM1                                  #  REL ADDRESS FOR DSPIN
001606:
001607:    0142                        TEM2               ERASE                                          #  EXEC TEMP
001608:    0143     0142               DSMAG              EQUALS   TEM2                                  #  MAGNITUDE STORE FOR DSPIN
001609:    0143     0142               IDADDTEM           EQUALS   TEM2                                  #  MIXNOUN INDIRECT ADDRESS STORAGE
001610:
001611:    0143                        TEM3               ERASE                                          #  EXEC TEMP
001612:    0144     0143               COUNT              EQUALS   TEM3                                  #  FOR DSPIN
001613:
001614:    0144                        TEM4               ERASE                                          #  EXEC TEMP
001615:    0145     0144               LSTPTR             EQUALS   TEM4                                  #  LIST POINTER FOR GRABUSY
001616:    0145     0144               RELRET             EQUALS   TEM4                                  #  RETURN FOR RELDSP
001617:    0145     0144               FREERET            EQUALS   TEM4                                  #  RETURN FOR FREEDSP
001618:    0145     0144               DSPWDRET           EQUALS   TEM4                                  #  RETURN FOR DSPSIGN
001619:    0145     0144               SEPSCRET           EQUALS   TEM4                                  #  RETURN FOR SEPSEC
001620:    0145     0144               SEPMNRET           EQUALS   TEM4                                  #  RETURN FOR SEPMIN
001621:
001622:    0145                        TEM5               ERASE                                          #  EXEC TEMP
001623:    0146     0145               NOUNADD            EQUALS   TEM5                                  #  TEMP STORAGE FOR NOUN ADDRESS
001624:
001625:    0146                        NNADTEM            ERASE                                          #  TEMP FOR NOUN ADDRESS TABLE ENTRY
001626:    0147                        NNTYPTEM           ERASE                                          #  TEMP FOR NOUN TYPE TABLE ENTRY
001627:    0150                        IDAD1TEM           ERASE                                          #  TEMP FOR INDIR ADRESS TABLE ENTRY(MIXNN)
001628:                                                                                                  #  MUST = IDAD2TEM-1, = IDAD3TEM-2.
001629:    0151                        IDAD2TEM           ERASE                                          #  TEMP FOR INDIR ADRESS TABLE ENTRY(MIXNN)
001630:                                                                                                  #  MUST = IDAD1TEM+1, = IDAD3TEM-1.
001631:    0152                        IDAD3TEM           ERASE                                          #  TEMP FOR INDIR ADRESS TABLE ENTRY(MIXNN)
001632:                                                                                                  #  MUST = IDAD1TEM+2, = IDAD2TEM+1.


001634:    0153                        RUTMXTEM           ERASE                                          #  TEMP FOR SF ROUT TABLE ENTRY(MIXNN ONLY)
001635:
001636:                                                                                                  #           AX*SR*T STORAGE.             (6D)
001637:
001638:    0154     0142               DEXDEX             EQUALS   TEM2                                  #  B(1)TMP
001639:    0154     0143               DEX1               EQUALS   TEM3                                  #  B(1)TMP
001640:    0154     0144               DEX2               EQUALS   TEM4                                  #  B(1)TMP
001641:    0154     0145               RTNSAVER           EQUALS   TEM5                                  #  B(1)TMP
001642:    0154     0133               TERM1TMP           EQUALS   BUF2                                  #  B(2)TMP
001643:
001644:    0154     0143               DEXI               =        DEX1
001645:


001647:
001648:                                                                                                  #           DYNAMICALLY ALLOCATED CORE SETS FOR JOBS.                      (84D)
001649:
001650:    0154                        MPAC               ERASE    +6                                    #  MULTI-PURPOSE ACCUMULATOR.
001651:    0163                        MODE               ERASE                                          #  +1 FOR TP, +0 FOR DP, OR -1 FOR VECTOR.
001652:    0164                        LOC                ERASE                                          #  LOCATION ASSOCIATED WITH JOB.
001653:    0165                        BANKSET            ERASE                                          #  USUALLY CONTAINS BBANK SETTING.
001654:    0166                        PUSHLOC            ERASE                                          #  WORD OF PACKED INTERPRETIVE PARAMETERS.
001655:    0167                        PRIORITY           ERASE                                          #  PRIORITY OF PRESENT JOB AND WORK AREA.
001656:
001657:    0170                                           ERASE    +71D                                  #  SEVEN SETS OF 12 REGISTERS EACH.
001658:
001659:                                                                                                  #           SPECIAL DOWNLINK BUFFER.-OVERLAYED BY P27 STORAGE-
001660:
001661:                                                                                                  #           P27 (UPDATE PROGRAM) STORAGE. -OVERLAYS SPEC DNLNK BUFF-       (24D)
001662:
001663:    0300                        COMPNUMB           ERASE    +23D                                  #  B(1)TMP NUMBER OF ITEMS TO BE UPLINKED.
001664:    0330     0301               UPOLDMOD           EQUALS   COMPNUMB   +1                         #  B(1)TMP HOLDS INTERRUPTED PROGRAM NUMBER
001665:    0330     0302               UPVERB             EQUALS   UPOLDMOD   +1                         #  B(1) TMP VERB NUMBER
001666:    0330     0303               UPCOUNT            EQUALS   UPVERB     +1                         #  B(1)TMP UPBUFF INDEX
001667:    0330     0304               UPBUFF             EQUALS   UPCOUNT    +1                         #  B(20D)
001668:
001669:                                                                                                  #           MORE P27 STORAGE.                                              (2D)
001670:
001671:    0330                        UPTEMP             ERASE                                          #  B(1)TMP SCRATCH
001672:    0331                        UPVERBSV           ERASE                                          #  B(1)TMP
001673:    0332     0330               INTWAK1Q           EQUALS   UPTEMP                                #  (06D)
001674:
001675:
001676:                                                                                                  #           (20 REGISTERS OF ENTRY DOWNLINK WILL GO HERE.)
001677:
001678:                                                                                                  #                                                        THE FOLLOWING ARE INDEXED FOR TM. IN ENTRY DAP.
001679:
001680:    0332     0304               CMTMTIME           =        UPBUFF                                #  B(1) (VEHICLE BODY RATE INFO IS
001681:    0332     0305               SW/NDX             =        CMTMTIME   +1                         #  B(1)  TELEMETERED EACH 0.2 SEC. DURING
001682:    0332     0324               ENDBUF             =        CMTMTIME   +16D                       #  B(1)  ENTRY.)
001683:
001684:    0332     0325               V1                 =        ENDBUF     +1                         #  I(2) REENTRY, P64-P65
001685:    0332     0327               A0                 =        V1         +2                         #  I(2) REENTRY, P64-P65
001686:                                                                                                  #  HI-ORDER WORD ONLY ON DNLNK.
001687:
001688:
001689:                                                                                                  #           ALIGNMENT STORAGE.                                             (5D)
001690:                                                                                                  #           (CANNOT SHARE WITH PRECISION INTEGRATION OR KEPLER STORAGE.)
001691:
001692:    0332     0300               QMAJ               EQUALS   COMPNUMB                              #  B(1)TMP
001693:    0332     0301               MARKINDX           EQUALS   QMAJ       +1                         #  B(1)TMP
001694:    0332     0302               BESTI              EQUALS   MARKINDX   +1                         #  I(1)TMP
001695:    0332     0303               BESTJ              EQUALS   BESTI      +1                         #  I(1)TMP
001696:    0332     0304               STARIND            EQUALS   BESTJ      +1                         #  I(1)TMP
001697:


001699:
001700:                                                                                                  #           ALIGNMENT/S40.2,3 COMMON STORAGE.    (18D)
001701:
001702:    0332     0306               XSMD               EQUALS   UPBUFF     +2                         #  I(6)TMP
001703:    0332     0314               YSMD               EQUALS   XSMD       +6                         #  I(6)TMP
001704:    0332     0322               ZSMD               EQUALS   YSMD       +6                         #  I(6)TMP
001705:
001706:    0332     0306               XSCREF             =        XSMD                                  #  SPACE CRAFT AXES IN REF COORDS.
001707:    0332     0314               YSCREF             =        YSMD
001708:    0332     0322               ZSCREF             =        ZSMD
001709:
001710:
001711:    0332                        ZPRIME             =        22D
001712:    0332                        PDA                =        22D
001713:    0332                        COSTH              =        16D
001714:    0332                        SINTH              =        18D
001715:    0332                        THETA              =        20D
001716:    0332                        STARM              =        32D
001717:
001718:
001719:                                                                                                  #           DOWNLINK STORAGE.            (18)
001720:
001721:    0332     0332               DNLSTADR           EQUALS   DNLSTCOD                              #  CONTENTS NO LONGER AN ADDR BUT A CODE
001722:
001723:    0332                        DNLSTCOD           ERASE                                          #  B(1)PRM ID CODE OF DOWNLIST
001724:    0333                        DUMPCNT            ERASE                                          #  B(1)PRM
001725:    0334                        LDATALST           ERASE                                          #  B(1)
001726:    0335                        DNTMGOTO           ERASE                                          #  B(1)
001727:    0336                        TMINDEX            ERASE                                          #  B(1)
001728:    0337     0336               DUMPLOC            EQUALS   TMINDEX                               #  CONTAINS ECADR OF AGC DP WORD BEING DUMP
001729:                                                                                                  #  ED AND COUNT OF COMPLETE DUMPS ALREADY S
001730:                                                                                                  #  ENT.
001731:    0337                        DNQ                ERASE                                          #  B(1)
001732:    0340                        DNTMBUFF           ERASE    +11D                                  #  B(12) PRM DOWNLINK SNAPSHOT BUFFER
001733:
001734:
001735:
001736:                                                                                                  #            OPTICS MARKING . UNSHARED.  (8D)
001737:
001738:    0354                        MKNDX              ERASE
001739:    0355                        MKT2T1             ERASE    +1
001740:    0357                        MKCDUY             ERASE
001741:    0360                        MKCDUS             ERASE
001742:    0361                        MKCDUZ             ERASE
001743:    0362                        MKCDUT             ERASE
001744:    0363                        MKCDUX             ERASE
001745:                                                                                                  #           FOR EXCLUSIVE USE OF SYS TEST STANDARD LEAD INS (2)
001746:
001747:    0364                        EBUF2              ERASE    +1                                    #  B(2) UNSHARED
001748:


001750:
001751:                                                                                                  #           UNSWITCHED FOR DISPLAY INTERFACE ROUTINES.                     (10D)
001752:
001753:    0366                        RESTREG            ERASE                                          #  B(1)PRM FOR DISPLAY RESTARTS
001754:    0367                        NVWORD             ERASE
001755:    0370                        MARKNV             ERASE
001756:    0371                        NVSAVE             ERASE
001757:                                                                                                  #                  (RETAIN THE ORDER OF CADRFLSH TO FAILREG +2 FOR DOWNLINK PURPOSES)
001758:    0372                        CADRFLSH           ERASE                                          #  B(1)TMP
001759:    0373                        CADRMARK           ERASE                                          #  B(1)TMP
001760:    0374                        TEMPFLSH           ERASE                                          #  B(1)TMP
001761:    0375                        FAILREG            ERASE    +2                                    #  B(3)PRM  3 ALARM-ABORT USER'S 2CADR
001762:
001763:    0400                                           SETLOC   400
001764:                                                                                                  #           VAC AREAS. -BE CAREFUL OF PLACEMENT-                           (220D)
001765:
001766:    0400                        VAC1USE            ERASE                                          #  B(1)PRM
001767:    0401                        VAC1               ERASE    +42D                                  #  B(43)PRM
001768:    0454                        VAC2USE            ERASE                                          #  B(1)PRM
001769:    0455                        VAC2               ERASE    +42D                                  #  B(43)PRM
001770:    0530                        VAC3USE            ERASE                                          #  B(1)PRM
001771:    0531                        VAC3               ERASE    +42D                                  #  B(43)PRM
001772:    0604                        VAC4USE            ERASE                                          #  B(1)PRM
001773:    0605                        VAC4               ERASE    +42D                                  #  B(43)PRM
001774:    0660                        VAC5USE            ERASE                                          #  B(1)PRM
001775:    0661                        VAC5               ERASE    +42D                                  #  B(43)PRM
001776:
001777:
001778:                                                                                                  #           WAITLIST REPEAT FLAG.                                          (1D)
001779:    0734                        RUPTAGN            ERASE                                          #  B(1)PRM
001780:    0735     0734               KEYTEMP2           =        RUPTAGN
001781:
001782:
001783:                                                                                                  #           STARALIGN ERASABLES.                                           (13D)
001784:
001785:    0735                        STARCODE           ERASE                                          #  B(1)DSP NOUN 70 FOR P22,51 AND R52,53.
001786:    0736                        STARALGN           ERASE    +11D
001787:    0752     0736               SINCDU             =        STARALGN
001788:    0752     0744               COSCDU             =        STARALGN   +6
001789:
001790:    0752     0742               SINCDUX            =        SINCDU     +4
001791:    0752     0736               SINCDUY            =        SINCDU
001792:    0752     0740               SINCDUZ            =        SINCDU     +2
001793:    0752     0750               COSCDUX            =        COSCDU     +4
001794:    0752     0744               COSCDUY            =        COSCDU
001795:    0752     0746               COSCDUZ            =        COSCDU     +2
001796:
001797:                                                                                                  #           PHASE TABLE AND RESTART COUNTERS.                              (12D)


001799:
001800:    0752                        -PHASE1            ERASE                                          #  B(1)PRM
001801:    0753                        PHASE1             ERASE                                          #  B(1)PRM
001802:    0754                        -PHASE2            ERASE                                          #  B(1)PRM
001803:    0755                        PHASE2             ERASE                                          #  B(1)PRM
001804:    0756                        -PHASE3            ERASE                                          #  B(1)PRM
001805:    0757                        PHASE3             ERASE                                          #  B(1)PRM
001806:    0760                        -PHASE4            ERASE                                          #  B(1)PRM
001807:    0761                        PHASE4             ERASE                                          #  B(1)PRM
001808:    0762                        -PHASE5            ERASE                                          #  B(1)PRM
001809:    0763                        PHASE5             ERASE                                          #  B(1)PRM
001810:    0764                        -PHASE6            ERASE                                          #  B(1)PRM
001811:    0765                        PHASE6             ERASE                                          #  B(1)PRM
001812:
001813:
001814:                                                                                                  #           AX*SR*T STORAGE.                                               (6D)
001815:
001816:    0766                        CDUSPOT            ERASE    +5                                    #  B(6)
001817:
001818:    0774     0766               CDUSPOTY           =        CDUSPOT
001819:    0774     0770               CDUSPOTZ           =        CDUSPOT    +2
001820:    0774     0772               CDUSPOTX           =        CDUSPOT    +4
001821:
001822:
001823:                                                                                                  #           VERB 37 STORAGE.                                               (2D)
001824:
001825:    0774                        MINDEX             ERASE                                          #  B(1)TMP  INDEX FOR MAJOR MODE
001826:    0775                        MMNUMBER           ERASE                                          #  B(1)TMP  MAJOR MODE REQUESTED VIA V37
001827:
001828:
001829:                                                                                                  #           PINBALL INTERRUPT STORAGE.                                     (1D)
001830:
001831:    0776                        DSPCNT             ERASE                                          #  B(1)PRM DSPOUT COUNTER
001832:
001833:
001834:                                                                                                  #           PINBALL EXECUTIVE ACTION.                                      (44D)
001835:
001836:    0777                        DSPCOUNT           ERASE                                          #  DISPLAY POSITION INDICATOR
001837:    1000                        DECBRNCH           ERASE                                          #  +DEC, - DEC, OCT INDICATOR
001838:    1001                        VERBREG            ERASE                                          #  VERB CODE
001839:    1002                        NOUNREG            ERASE                                          #  NOUN CODE
001840:    1003                        XREG               ERASE                                          #  R1 INPUT BUFFER
001841:    1004                        YREG               ERASE                                          #  R2 INPUT BUFFER
001842:    1005                        ZREG               ERASE                                          #  R3 INPUT BUFFER
001843:    1006                        XREGLP             ERASE                                          #  LO PART OF XREG (FOR DEC CONV ONLY)
001844:    1007                        YREGLP             ERASE                                          #  LO PART OF YREG (FOR DEC CONV ONLY)
001845:    1010     1007               HITEMOUT           =        YREGLP                                #  TEMP FOR DISPLAY OF HRS, MIN, SEC
001846:                                                                                                  #           MUST = LOTEMOUT-1.
001847:    1010                        ZREGLP             ERASE                                          #  LO PART OF ZREG (FOR DEC CONV ONLY)
001848:    1011     1010               LOTEMOUT           =        ZREGLP                                #  TEMP FOR DISPLAY OF HRS,MIN,SEC
001849:                                                                                                  #           MUST = HITEMOUT+1.


001851:    1011                        MODREG             ERASE                                          #  MODE CODE
001852:    1012                        DSPLOCK            ERASE                                          #  KEYBOARD/SUBROUTINE CALL INTERLOCK
001853:    1013                        REQRET             ERASE                                          #  RETURN REGISTER FOR LOAD
001854:    1014                        LOADSTAT           ERASE                                          #  STATUS INDICATOR FOR LOADTST
001855:    1015                        CLPASS             ERASE                                          #  PASS INDICATOR CLEAR
001856:    1016                        NOUT               ERASE                                          #  ACTIVITY COUNTER FOR DSPTAB
001857:    1017                        NOUNCADR           ERASE                                          #  MACHINE CADR FOR NOUN
001858:    1020                        MONSAVE            ERASE                                          #  N/V CODE FOR MONITOR. (= MONSAVE1-1)
001859:    1021                        MONSAVE1           ERASE                                          #  NOUNCADR FOR MONITOR(MATBS) = MONSAVE +1
001860:    1022                        MONSAVE2           ERASE                                          #  B(1)PRM NVMONOPT OPTIONS
001861:    1023                        DSPTAB             ERASE    +11D                                  #  0-10D, DISPLAY PANEL BUFF. 11D, C/S LTS.
001862:    1037                        NVQTEM             ERASE                                          #  NVSUB STORAGE FOR CALLING ADDRESS
001863:                                                                                                  #  MUST = NVBNKTEM-1
001864:    1040                        NVBNKTEM           ERASE                                          #  NVSUB STORAGE FOR CALLING BANK
001865:                                                                                                  #  MUST = NVQTEM+1
001866:    1041                        VERBSAVE           ERASE                                          #  NEEDED FOR RECYCLE
001867:    1042                        CADRSTOR           ERASE                                          #  ENDIDLE STORAGE
001868:    1043                        DSPLIST            ERASE                                          #  WAITING REG FOR DSP SYST INTERNAL USE
001869:    1044                        EXTVBACT           ERASE                                          #  EXTENDED VERB ACTIVITY INTERLOCK
001870:    1045                        DSPTEM1            ERASE    +2                                    #  BUFFER STORAGE AREA 1 (MOSTLY FOR TIME)
001871:    1050                        DSPTEM2            ERASE    +2                                    #  BUFFER STORAGE AREA 2 (MOSTLY FOR DEG)
001872:
001873:
001874:    1053     1051               DSPTEMX            EQUALS   DSPTEM2    +1                         #  B(2) S-S DISPLAY BUFFER FOR EXT. VERBS.
001875:    1053     1045               NORMTEM1           EQUALS   DSPTEM1                               #  B(3)DSP NORMAL DISPLAY REGISTERS.
001876:
001877:
001878:
001879:                                                                                                  #           DISPLAY FOR EXTENDED VERBS                                     (2D)
001880:
001881:    1053     1051               OPTIONX            EQUALS   DSPTEMX                               #  B(2) EXTENDED VERB OPTION CODE  N12(V82)
001882:
001883:
001884:                                                                                                  #           TBASE S AND PHSPRDT S.                                         (12D)
001885:
001886:    1053                        TBASE1             ERASE                                          #  B(1)PRM
001887:    1054                        PHSPRDT1           ERASE                                          #  B(1)PRM
001888:    1055                        TBASE2             ERASE                                          #  B(1)PRM
001889:    1056                        PHSPRDT2           ERASE                                          #  B(1)PRM
001890:    1057                        TBASE3             ERASE                                          #  B(1)PRM
001891:    1060                        PHSPRDT3           ERASE                                          #  B(1)PRM
001892:    1061                        TBASE4             ERASE                                          #  B(1)PRM
001893:    1062                        PHSPRDT4           ERASE                                          #  B(1)PRM
001894:    1063                        TBASE5             ERASE                                          #  B(1)PRM
001895:    1064                        PHSPRDT5           ERASE                                          #  B(1)PRM
001896:    1065                        TBASE6             ERASE                                          #  B(1)PRM
001897:    1066                        PHSPRDT6           ERASE                                          #  B(1)PRM
001898:
001899:
001900:                                                                                                  #           MORE UNSWITCHED FOR DISPLAY INF                                (5D).


001902:
001903:    1067                        EBANKSAV           ERASE
001904:    1070                        MARKEBAN           ERASE
001905:    1071                        EBANKTEM           ERASE
001906:    1072                        MARK2PAC           ERASE
001907:    1073                        R1SAVE             ERASE
001908:
001909:
001910:                                                                                                  #           IMU COMPENSATION UNSWITCHED ERASABLE.                          (1D)
001911:
001912:    1074                        1/PIPADT           ERASE                                          #  B(1)PRM
001913:    1075     1074               OLDBT1             =        1/PIPADT
001914:
001915:                                                                                                  #           SINGLE PRECISION SUBROUTINE TEMPORARIES.                       (3D)
001916:
001917:                                                                                                  #                                                               SPSIN, SPCOS, SPROOT VARIABLES.
001918:                                                                                                  #                                                               DO NOT SHARE. THESE ARE USED BY DAPS IN INTERRUPT
001919:                                                                                                  #                                                               AND CURRENTLY ARE NOT PROTECTED. IF OTHER USERS
001920:                                                                                                  #                                                               MATERIALIZE, THEN THIS CAN BE CHANGED.
001921:
001922:    1075                        HALFY              ERASE
001923:    1076                        ROOTRET            ERASE
001924:    1077                        SQRARG             ERASE
001925:    1100     1075               TEMK               EQUALS   HALFY
001926:    1100     1076               SQ                 EQUALS   ROOTRET
001927:


001929:
001930:                                                                                                  #           UNSWITCHED FOR ORBIT INTEGRATION.                              (21D)
001931:
001932:    1100                        TDEC               ERASE    +20D                                  #  I(2)
001933:    1125     1102               COLREG             EQUALS   TDEC       +2                         #  I(1)
001934:    1125     1103               LAT                EQUALS   COLREG     +1                         #  I(2)DSP NOUN 43,67 FOR P20,22,51 R52,53.
001935:    1125     1103               LANDLAT            =        LAT                                   #          NOUN 89    FOR P22.
001936:    1125     1105               LONG               EQUALS   LAT        +2                         #  I(2)DSP NOUN 43,67 FOR P20,22,51 R52,53.
001937:    1125     1107               ALT                EQUALS   LONG       +2                         #  I(2)DSP NOUN 43    FOR P20,22,51 R52,53.
001938:    1125     1111               YV                 EQUALS   ALT        +2                         #  I(6)
001939:    1125     1117               ZV                 EQUALS   YV         +6                         #  I(6)
001940:
001941:
001942:
001943:                                                                                                  #           MARK STORAGE.                                                  (2)
001944:
001945:    1125                        VHFCNT             ERASE                                          #  B(1)PRM NO. OF VHF MARKS(P20(R22)).
001946:    1126                        TRKMKCNT           ERASE                                          #  B(1)PRM NO. OF VHF MARKS (P20(R22)).
001947:
001948:    1127     1126               MARKCTR            =        TRKMKCNT                              #  B(1) MARK COUNTER USED BY R32
001949:
001950:
001951:                                                                                                  #           MISCELLANEOUS UNSWITCHED.                                      (16D)
001952:
001953:    1127                        IRETURN1           ERASE                                          #  B(1)  RET ADDR USED BY MIDTOAV1 AND 2
001954:                                                                                                  #  CALLED BY P40,P41,P42, P61,P62
001955:    1130                        RATEINDX           ERASE                                          #   (1)    USED BY KALCMANU
001956:    1131                        OPTION1            ERASE                                          #  B(1)   NOUN 06 USES THIS
001957:    1132                        OPTION2            ERASE                                          #  B(1)   NOUN 06 USES THIS
001958:    1133                        LONGCADR           ERASE    +1                                    #  B(2)    LONGCALL REGISTER
001959:    1135                        LONGBASE           ERASE    +1                                    #  B(2)    LONGCALL REGISTER
001960:    1137                        LONGTIME           ERASE    +1                                    #  B(2)    LONGCALL REGISTER
001961:    1141                        DELAYLOC           ERASE    +3
001962:    1145                        NVWORD1            ERASE                                          #  B(1)
001963:    1146                        TEMPR60            ERASE                                          #  B(1)
001964:    1147                        PRIOTIME           ERASE                                          #  B(1)
001965:    1150     1127               P30/RET            EQUALS   IRETURN1
001966:
001967:
001968:
001969:                                                                                                  #           MISC.  INCLUDING RESTART COUNTER, GIMBAL ANGLE  SAVE  AND
001970:                                                                                                  #           STANDBY VERB ERASABLES. REDOCTR BEFORE THETAD (DWNLNK)         (16D)
001971:
001972:    1150                        TIME2SAV           ERASE    +1                                    #  B(2)TMP
001973:    1152                        SCALSAVE           ERASE    +1                                    #  B(2)TMP
001974:    1154                        REDOCTR            ERASE                                          #  B(1)PRM CONTAINS NUMBER OF RESTARTS.
001975:    1155                        THETAD             ERASE    +2                                    #  B(3)PRM DESIRED GIM ANGLES FOR MANEUVER.
001976:    1160     1155               CPHI               =        THETAD                                #          (OUTER)
001977:    1160     1156               CTHETA             =        THETAD     +1                         #          (INNER)
001978:    1160     1157               CPSI               =        THETAD     +2                         #          (MIDDLE)
001979:


001981:
001982:                                                                                                  #           ENTRY VARIABLES SHARED FOR TM.
001983:
001984:    1160     1155               RDOTREF            =        THETAD                                #  I(2)    P65
001985:    1160     1157               VREF               =        RDOTREF    +2                         #  I(2)    P65   HI-ORDER WORD ONLY DNLNK'D
001986:    1160                        DESOPTT            ERASE                                          #  B(1)DSP NOUN 92 FOR P20,22,52, R52.
001987:    1161                        DESOPTS            ERASE                                          #  B(1)DSP NOUN 92 FOR P20,22,52, R52.
001988:
001989:    1162                        DELV               ERASE    +5                                    #  I(6)
001990:    1170     1162               DELVX              =        DELV
001991:    1170     1164               DELVY              =        DELV       +2
001992:    1170     1166               DELVZ              =        DELV       +4
001993:
001994:                                                                                                  #           P20, CONICS   (SHARING WITH TIME 2 SAV AND SCAL SAV ONLY)      (3D)
001995:
001996:    1170     1150               POINTEX            EQUALS   TIME2SAV                              #  I(1) POINT AXS EXIT
001997:    1170     1151               VHFTIME            EQUALS   POINTEX    +1                         #  I(2) DOWNLINK OF VHF RANGE TIME +1M
001998:
001999:
002000:
002001:                                                                                                  #           PERM STATE VECTORS FOR BOOST AND DOWNLINK -WHOLE MISSION-      (14D)
002002:
002003:    1170                        RN                 ERASE    +5                                    #  B(6)PRM
002004:    1176                        VN                 ERASE    +5                                    #  B(6)PRM
002005:    1204                        PIPTIME            ERASE    +1                                    #  B(2)PRM (MUST BE FOLLOWED BY GDT/2)
002006:
002007:
002008:                                                                                                  #           SERVICER STORAGE.                                              (45D)
002009:
002010:                                                                                                  #           (SERVICER STORAGE AND P11 STORAGE IN UNSWITHCHED SHOULD NOT
002011:                                                                                                  #           OVERLAY EACH OTHER AND THE TOTAL ERASABLE REQUIRED SHOULD NOT
002012:                                                                                                  #           EXCEED THE ERASABLE STORAGE REQUIRED BY RENDEZVOUS GUIDANCE)
002013:
002014:    1206     1206               GDT/2              EQUALS   PIPTIME    +2                         #  B(6)TMP (MUST FOLLOW PIPTIME)
002015:    1206     1214               GOBL/2             EQUALS   GDT/2      +6                         #  B(6)TMP
002016:    1206     1222               AVEGEXIT           EQUALS   GOBL/2     +6                         #  B(2)TMP
002017:    1206     1222               AVGEXIT            =        AVEGEXIT
002018:    1206     1224               TEMX               EQUALS   AVEGEXIT   +2                         #  B(1)TMP
002019:    1206     1225               TEMY               EQUALS   TEMX       +1                         #  B(1)TMP
002020:    1206     1226               TEMZ               EQUALS   TEMY       +1                         #  B(1)TMP
002021:    1206     1227               PIPCTR             EQUALS   TEMZ       +1                         #  B(1)TMP
002022:    1206     1230               PIPAGE             EQUALS   PIPCTR     +1                         #  B(1)TMP
002023:
002024:
002025:    1206     1231               RN1                EQUALS   PIPAGE     +1                         #  B(6)TMP
002026:    1206     1237               VN1                EQUALS   RN1        +6                         #  B(6)TMP
002027:    1206     1245               PIPTIME1           EQUALS   VN1        +6                         #  B(2)TMP
002028:    1206     1247               GDT1/2             EQUALS   PIPTIME1   +2                         #  B(6)TMP
002029:    1206     1255               GOBL1/2            EQUALS   GDT1/2     +6                         #  B(6)TMP
002030:


002032:
002033:                                                                                                  #           ENTRY STORAGE.                                                 (1D)
002034:
002035:    1206     1263               ENTRYVN            EQUALS   GOBL1/2    +6                         #  B(1)TMP VN CODE FOR ENTRY DISPLAYS P60S.
002036:
002037:
002038:
002039:                                                                                                  #           P11 STORAGE.                                                   (9D)
002040:
002041:    1206     1263               PADLONG            EQUALS   ENTRYVN                               #   (2)PL   LONGITUDE OF LAUNCH PAD
002042:    1206     1265               LIFTTEMP           EQUALS   PADLONG    +2                         #   (2)TMP
002043:    1206     1267               TEPHEM1            EQUALS   LIFTTEMP   +2                         #   (3)TMP
002044:    1206     1272               PGNCSALT           EQUALS   TEPHEM1    +3                         #   (2)PL  ALTITUDE
002045:
002046:
002047:                                                                                                  #           RENDEZVOUS NAVIGATION STORAGE.(SEE COMMENT IN SERVICER STORAGE)(58D)
002048:
002049:    1206                        CSMPOS             ERASE    +57D                                  #  I(6)TMP
002050:    1300     1214               LEMPOS             EQUALS   CSMPOS     +6                         #  I(6)TMP
002051:    1300     1222               RCL                EQUALS   LEMPOS     +6                         #  I(2)TMP
002052:    1300     1224               MARKTIME           EQUALS   RCL        +2                         #  B(2)TMP
002053:    1300     1226               VTEMP              EQUALS   MARKTIME   +2                         #  B(6)TMP
002054:    1300     1234               UM                 EQUALS   VTEMP      +6                         #  I(6)TMP
002055:    1300     1242               MARKDATA           EQUALS   UM         +6                         #  B(2)TMP
002056:    1300     1244               USTAR              EQUALS   MARKDATA   +2                         #  I(6)TMP
002057:    1300     1252               WIXA               EQUALS   USTAR      +6                         #  B(1)TMP
002058:    1300     1253               WIXB               EQUALS   WIXA       +1                         #  B(1)TMP
002059:    1300     1254               ZIXA               EQUALS   WIXB       +1                         #  B(1)TMP
002060:    1300     1255               ZIXB               EQUALS   ZIXA       +1                         #  B(1)TMP
002061:    1300     1256               DELTAX             EQUALS   ZIXB       +1                         #  I(18)TMP
002062:
002063:    1300     1256               VHFRANGE           EQUALS   DELTAX                                #   (2)
002064:    1300     1272               UCL                EQUALS   DELTAX     +12D                       #   (6)     LM-CSM LINE OF SIGHT 1/2 UNIT V
002065:
002066:
002067:                                                                                                  #        **** CONICSEX (MEAS INC) ****
002068:
002069:    1300     1256               TRIPA              EQUALS   DELTAX
002070:    1300     1261               TEMPVAR            EQUALS   DELTAX     +3
002071:
002072:
002073:
002074:    1300                        TEMPOR1            ERASE    +1                                    #  B(2)TMP
002075:
002076:
002077:                                                                                                  #           T4RUPT ERASABLE.                                               (6D)
002078:
002079:    1302                        DSRUPTSW           ERASE
002080:    1303                        OPTIND             ERASE
002081:    1304                        LGYRO              ERASE
002082:    1305                        COMMANDO           ERASE    +1
002083:


002085:
002086:    1307                        ZONE               ERASE                                          #  B(1)PRM USED IN SHAFT STOP MONITOR
002087:    1310  0000035               LASTYCMD           =        OPTY                                  #  DUMMY TO MAKE RR BENCH TEST ASSEMBLE
002088:    1310  0000035               LASTXCMD           =        OPTY                                  #  DUMMY TO MAKE RR BENCH TEST ASSEMBLE
002089:
002090:
002091:                                                                                                  #           UNSWITCHED DAP ERASABLE.                                       (4D)
002092:
002093:    1310                        T6LOC              ERASE
002094:    1311                        T6ADR              ERASE
002095:    1312                        T5LOC              ERASE    +1
002096:
002097:
002098:                                                                                                  #           MODE SWITCHING ERASABLE.                                       (14D)
002099:
002100:    1314                        SWSAMPLE           ERASE                                          #  B(1)PRM
002101:    1315                        DESOPMOD           ERASE                                          #  B(1)PRM
002102:    1316                        WTOPTION           ERASE                                          #  B(1)PRM
002103:    1317                        ZOPTCNT            ERASE                                          #  B(1)PRM
002104:    1320                        IMODES30           ERASE                                          #  B(1)PRM
002105:    1321                        IMODES33           ERASE                                          #  B(1)PRM
002106:    1322                        MODECADR           ERASE    +2                                    #  B(3)TMP
002107:    1325     1322               IMUCADR            =        MODECADR
002108:    1325     1323               OPTCADR            =        MODECADR   +1
002109:    1325     1324               RADCADR            =        MODECADR   +2
002110:    1325                        ATTCADR            ERASE    +2                                    #  B(3)PRM
002111:    1330     1327               ATTPRIO            =        ATTCADR    +2
002112:    1330                        MARKSTAT           ERASE                                          #  B(1)PRM
002113:    1331                        OPTMODES           ERASE                                          #  B(1)PRM
002114:
002115:
002116:
002117:                                                                                                  #           RCSDAP ERASABLE.                                               (1D)
002118:
002119:    1332                        HOLDFLAG           ERASE                                          #  B(1)PRM
002120:
002121:
002122:
002123:
002124:
002125:
002126:                                                                                                  #           CRS61.1 STORAGE. -USED IN R63 (VERB 89)-                       (5D)
002127:
002128:    1333                        CPHIX              ERASE    +2                                    #  B(3)DSP NOUN 96 CALCULATED BY CRS61.1
002129:
002130:
002131:
002132:    1336                        TEVENT             ERASE    +1                                    #  B(2)     TIME OF EVENT FOR DOWNLIST
002133:    1340     1336               TLIFTOFF           =        TEVENT
002134:


002136:
002137:                                                                                                  #           P34-P35 STORAGE                                                (1D)
002138:
002139:    1340                        NORMEX             ERASE
002140:
002141:
002142:
002143:                                                                                                  #           SELF-CHECK ASSIGNMENTS.                                        (17D)
002144:
002145:                                                                                                  #                                  (DO NOT MOVE, S-C IS ADDRESS SENSITIVE)
002146:
002147:    1341                        SELFERAS           ERASE    1357       -          1377            #  ***MUST NOT BE MOVED***
002148:    1341     1357               SFAIL              EQUALS   SELFERAS                              #  B(1)
002149:    1341     1360               ERESTORE           EQUALS   SFAIL      +1                         #  B(1)
002150:    1341     1361               SELFRET            EQUALS   ERESTORE   +1                         #  B(1)    RETURN
002151:    1341     1362               SMODE              EQUALS   SELFRET    +1                         #  B(1)
002152:    1341     1363               ALMCADR            EQUALS   SMODE      +1                         #  B(2)     ALARM-ABORT USER'S 2CADR
002153:    1341     1365               ERCOUNT            EQUALS   ALMCADR    +2                         #  B(1)
002154:    1341     1366               SCOUNT             EQUALS   ERCOUNT    +1                         #  B(3)
002155:    1341     1371               SKEEP1             EQUALS   SCOUNT     +3                         #  B(1)
002156:    1341     1372               SKEEP2             EQUALS   SKEEP1     +1                         #  B(1)
002157:    1341     1373               SKEEP3             EQUALS   SKEEP2     +1                         #  B(1)
002158:    1341     1374               SKEEP4             EQUALS   SKEEP3     +1                         #  B(1)
002159:    1341     1375               SKEEP5             EQUALS   SKEEP4     +1                         #  B(1)
002160:    1341     1376               SKEEP6             EQUALS   SKEEP5     +1                         #  B(1)
002161:    1341     1377               SKEEP7             EQUALS   SKEEP6     +1                         #  B(1)
002162:
002163:
002164:                                                                                                  #           USED BY P30 ROUTINES TO WRITE ONLY NEVER READ IN COLOSSUS
002165:
002166:    1341  0000000               DISPDEX            EQUALS   A
002167:                                                                                                  #           ERASABLE FOR SXTMARK CDU CHECK DELAY.  -PAD LOADED-            (1D)
002168:
002169:    1341                        CDUCHKWD           ERASE                                          #  B(1) PL
002170:
002171:
002172:                                                                                                  #           R57 STORAGE. -MUST BE UNSHARED EXCEPT IN BOOST OR ENTRY-       (1D)
002173:
002174:    1342                        TRUNBIAS           ERASE                                          #  B(1)PRM RESULT OF R57 CALIBR OF TRUNION
002175:
002176:
002177:
002178:                                                                                                  #           KEPLER STORAGE                                                 (6D)
002179:
002180:    1343                        XMODULO            ERASE    +1                                    #  I(2) GREATER 2PI KEPLER
002181:    1345                        TMODULO            ERASE    +1                                    #  I(2) GREATER 2 KEPLER
002182:    1347                        EPSILONT           ERASE    +1                                    #  I(2) TMP
002183:


002185:
002186:                                                                                                  #           P37    **RETURN TO EARTH  (PAD LOAD) ****                      (2D)
002187:
002188:    1351                        RTED1              ERASE    +1                                    #  I(2)PL VGAMMA POLY COEF              B-3
002189:
002190:
002191:                                                                                                  #           P40    ***STEERING ROUTINE*** PAD LOAD                         (1D)
002192:
002193:    1353                        DVTHRESH           ERASE                                          #  I(1)PL  DELTA V THRESHOLD FOR LOW THRUST
002194:                                                                                                  #                                                  ROUTINE                      B-2
002195:
002196:
002197:                                                                                                  #           P23     ***PAD LOAD****                                        (2D)
002198:
002199:    1354                        HORIZALT           ERASE    +1                                    #  I(2)PL  HORIZION ALTITUDE       M  B-29
002200:
002201:
002202:                                                                                                  #           P-20        ALTERNATE LOS VARIANCE     PAD LOAD*****           (1D)
002203:
002204:                                                                                                  #                                                                          -16
002205:    1356                        ALTVAR             ERASE                                          #  I(2)PL MILLARD. SQUARED SCALED 2
002206:
002207:
002208:    1357     1377               END-UE             EQUALS   SELFERAS   +16D                       #  LAST USED UNSWITCHED ERASABLE
002209:


002211:
002212:                                                                                                  #                  EBANK-3 ASSIGNMENTS
002213:
002214: E3,1400                                           SETLOC   1400
002215:
002216:                                                                                                  #           WAITLIST TASK LISTS.                                           (26D)
002217:
002218: E3,1400                        LST1               ERASE    +7                                    #  B(8D)PRM DELTA T S.
002219: E3,1410                        LST2               ERASE    +17D                                  #  B(18D)PRM TASK 2CADR ADDRESSES.
002220:
002221:
002222:                                                                                                  #           RESTART STORAGE.                                               (2D)
002223:
002224: E3,1432                        RSBBQ              ERASE    +1                                    #  B(2)PRM SAVE BB AND Q FOR RESTARTS.
002225:
002226:
002227:                                                                                                  #           MORE LONGCALL STORAGE. (MUST BE IN LST1 S BANK).               (2D)
002228:
002229: E3,1434                        LONGEXIT           ERASE    +1                                    #  B(2)TMP MAY BE SELDOM OVERLAYED.
002230:
002231:
002232:                                                                                                  #           PHASE-CHANGE LISTS PART II.                                    (12D)
002233:
002234: E3,1436                        PHSNAME1           ERASE                                          #  B(1)PRM
002235: E3,1437                        PHSBB1             ERASE                                          #  B(1)PRM
002236: E3,1440                        PHSNAME2           ERASE                                          #  B(1)PRM
002237: E3,1441                        PHSBB2             ERASE                                          #  B(1)PRM
002238: E3,1442                        PHSNAME3           ERASE                                          #  B(1)PRM
002239: E3,1443                        PHSBB3             ERASE                                          #  B(1)PRM
002240: E3,1444                        PHSNAME4           ERASE                                          #  B(1)PRM
002241: E3,1445                        PHSBB4             ERASE                                          #  B(1)PRM
002242: E3,1446                        PHSNAME5           ERASE                                          #  B(1)PRM
002243: E3,1447                        PHSBB5             ERASE                                          #  B(1)PRM
002244: E3,1450                        PHSNAME6           ERASE                                          #  B(1)PRM
002245: E3,1451                        PHSBB6             ERASE                                          #  B(1)PRM
002246:
002247:
002248:                                                                                                  #           IMU COMPENSATION PARAMETERS.                                   (22D)
002249:
002250: E3,1452                        PBIASX             ERASE                                          #  B(1)   PIPA BIAS, PIPA SCALE FACTR TERMS
002251: E3,1453  E3,1452               PIPABIAS           =        PBIASX                                #      INTERMIXED.
002252: E3,1453                        PIPASCFX           ERASE
002253: E3,1454  E3,1453               PIPASCF            =        PIPASCFX
002254: E3,1454                        PBIASY             ERASE
002255: E3,1455                        PIPASCFY           ERASE
002256: E3,1456                        PBIASZ             ERASE
002257: E3,1457                        PIPASCFZ           ERASE
002258:
002259: E3,1460                        NBDX               ERASE                                          #  GYRO BIAS DRIFTS
002260: E3,1461  E3,1460               GBIASX             =        NBDX
002261: E3,1461                        NBDY               ERASE


002263: E3,1462                        NBDZ               ERASE
002264:
002265: E3,1463                        ADIAX              ERASE                                          #  ACCELERATION SENSITIVE DRIFT ALONG THE
002266: E3,1464                        ADIAY              ERASE                                          #      INPUT AXIS
002267: E3,1465                        ADIAZ              ERASE
002268:
002269: E3,1466                        ADSRAX             ERASE                                          #  ACCELERATION SENSITIVE DRIFT ALONG THE
002270: E3,1467                        ADSRAY             ERASE                                          #      SPIN REFERENCE AXIS
002271: E3,1470                        ADSRAZ             ERASE
002272:
002273: E3,1471                        GCOMP              ERASE    +5                                    #  CONTAINS COMPENSATING TORQUES
002274:
002275: E3,1477                        GCOMPSW            ERASE
002276: E3,1500  E3,1471               COMMAND            EQUALS   GCOMP
002277: E3,1500  E3,1474               CDUIND             EQUALS   GCOMP      +3
002278:
002279:
002280:                                                                                                  #           STATE VECTORS FOR ORBIT INTEGRATION.                           (44D)
002281:
002282:                                                                                                  #                                  (DIFEQCNT THRU XKEP MUST BE IN SAME
002283:                                                                                                  #                                    EBANK AS RRECTCSM, RRECTLEM ETC
002284:                                                                                                  #                                    BECAUSE THE COPY-CYCLES (ATOPCSM,
002285:                                                                                                  #                                    PTOACSM ETC) ARE EXECUTED IN BASIC.
002286:                                                                                                  #                                      ALL OTHER REFERENCES TO THIS GROUP
002287:                                                                                                  #                                    ARE BY INTERPRETIVE INSTRUCTIONS.)
002288:
002289:
002290: E3,1500                        DIFEQCNT           ERASE    +43D                                  #  B(1)TMP
002291:                                                                                                  #                                  (UPSVFLAG...XKEP MUST BE KEPT IN ORDER)
002292:
002293: E3,1554  E3,1501               UPSVFLAG           EQUALS   DIFEQCNT   +1                         #  B(1)PRM UPDATE FLAG
002294: E3,1554  E3,1502               RRECT              EQUALS   UPSVFLAG   +1                         #  B(6)TMP POS AT RECT            KM*2(-14)
002295: E3,1554  E3,1510               VRECT              EQUALS   RRECT      +6                         #  B(6)TMP VEL AT RECT        KM(-1/2)*2(6)
002296: E3,1554  E3,1516               TET                EQUALS   VRECT      +6                         #  B(2)TMP TIME OF STATE VECT  CSECS*2(-28)
002297: E3,1554  E3,1520               TDELTAV            EQUALS   TET        +2                         #  B(6)TMP POSITION DEVIATION      KM*2(14)
002298: E3,1554  E3,1526               TNUV               EQUALS   TDELTAV    +6                         #  B(6)TMP VEL DEVIATION     KM(-1/2)*2(14)
002299: E3,1554  E3,1534               RCV                EQUALS   TNUV       +6                         #  B(6)TMP CONIC POSITION         KM*2(-14)
002300: E3,1554  E3,1542               VCV                EQUALS   RCV        +6                         #  B(6)TMP CONIC VELOCITY     KM(-1/2)*2(6)
002301: E3,1554  E3,1550               TC                 EQUALS   VCV        +6                         #  B(2)TMP TIME SINCE RECTIFICATION
002302: E3,1554  E3,1552               XKEP               EQUALS   TC         +2                         #  B(2)TMP ROOT OF KEPLER EQ KM(1/2.*2(-10)
002303:
002304:                                                                                                  #        **** TEMP - IN VAC AREA ****
002305: E3,1554                        RRECT1             EQUALS   18D
002306: E3,1554                        VRECT1             EQUALS   24D
002307: E3,1554                        TET1               EQUALS   30D
002308:
002309:
002310:
002311:                                                                                                  #           PERMANENT STATE VECTORS AND TIMES.                             (101D)
002312:
002313:                                                                                                  #           (DO NOT OVERLAY WITH ANYTHING AFTER BOOST)
002314:


002316:                                                                                                  #           (RRECTCSM ...XKEPCSM MUST BE KEPT IN THIS ORDER)
002317:
002318: E3,1554                        RRECTCSM           ERASE    +5                                    #  B(6)PRM CSM VARIABLES.
002319: E3,1562  E3,1554               RRECTHIS           =        RRECTCSM
002320: E3,1562                        VRECTCSM           ERASE    +5                                    #  B(6)PRM
002321: E3,1570                        TETCSM             ERASE    +1                                    #  B(2)PRM
002322: E3,1572  E3,1570               TETTHIS            =        TETCSM
002323: E3,1572                        DELTACSM           ERASE    +5                                    #  B(6)PRM
002324: E3,1600                        NUVCSM             ERASE    +5                                    #  B(6)PRM
002325: E3,1606                        RCVCSM             ERASE    +5                                    #  B(6)PRM
002326: E3,1614                        VCVCSM             ERASE    +5                                    #  B(6)PRM
002327: E3,1622                        TCCSM              ERASE    +1                                    #  B(2)PRM
002328: E3,1624                        XKEPCSM            ERASE    +1                                    #  B(2)PRM
002329:
002330:                                                                                                  #           (RRECTLEM...XKEPLEM MUST BE KEPT IN THIS ORDER)
002331:
002332: E3,1626                        RRECTLEM           ERASE    +5                                    #  B(6)PRM LEM VARIABLES
002333: E3,1634  E3,1626               RRECTOTH           =        RRECTLEM
002334: E3,1634                        VRECTLEM           ERASE    +5                                    #  B(6)PRM
002335: E3,1642                        TETLEM             ERASE    +1                                    #  B(2)PRM
002336: E3,1644  E3,1642               TETOTHER           =        TETLEM
002337: E3,1644                        DELTALEM           ERASE    +5                                    #  B(6)PRM
002338: E3,1652                        NUVLEM             ERASE    +5                                    #  B(6)PRM
002339: E3,1660                        RCVLEM             ERASE    +5                                    #  B(6)PRM
002340: E3,1666                        VCVLEM             ERASE    +5                                    #  B(6)PRM
002341: E3,1674                        TCLEM              ERASE    +1                                    #  B(2)PRM
002342: E3,1676                        XKEPLEM            ERASE    +1                                    #  B(2)PRM
002343:
002344: E3,1700                        X789               ERASE    +5
002345: E3,1706                        TEPHEM             ERASE    +2
002346: E3,1711                        AZO                ERASE    +1
002347: E3,1713                        UNITW              ERASE    +5
002348: E3,1721  E3,1713               -AYO               EQUALS   UNITW                                 #   (2)
002349: E3,1721  E3,1715               AXO                EQUALS   UNITW      +2                         #   (2)
002350:
002351:
002352:
002353:                                                                                                  #           STATE VECTORS FOR DOWNLINK.                                    (12D)
002354:
002355: E3,1721                        R-OTHER            ERASE    +5                                    #  B(6)PRM POS VECT (OTHER VECH) FOR DNLINK
002356: E3,1727                        V-OTHER            ERASE    +5                                    #  B(6)PRM VEL VECT (OTHER VECH) FOR DNLINK
002357:
002358: E3,1735  E3,1642               T-OTHER            =        TETLEM                                #              TIME (OTHER VECH) FOR DNLINK
002359:
002360:
002361:                                                                                                  #           REFSMMAT.                                                      (18D)
002362:
002363: E3,1735                        REFSMMAT           ERASE    +17D                                  #  I(18D)PRM
002364:


002366:
002367:                                                                                                  #           AVERAGEG INTEGRATOR STORAGE.                                   (8D)
002368:
002369: E3,1757                        UNITR              ERASE    +5
002370: E3,1765                        RMAG               ERASE    +1
002371:
002372:
002373:                                                                                                  #        **** CONICSEX (PLANETARY INERT. ORIEN.) ****
002374:
002375: E3,1767  E3,1706               TIMSUBO            EQUALS   TEPHEM                                #  CSEC B-42 (TRIPLE PREC)
002376: E3,1767  E3,1767               END-E3             EQUALS   RMAG       +2                         #  NEXT UNUSED E3 ADDRESS
002377:


002379:
002380:                                                                                                  #                  EBANK-4 ASSIGNMENTS
002381:
002382: E4,1400                                           SETLOC   2000
002383:
002384:
002385:                                                                                                  #           P20 STORAGE.           -PAD LOADED-                            (4D)
002386:
002387: E4,1400                        WRENDPOS           ERASE                                          #  B(1)PL                            M B-14
002388: E4,1401                        WRENDVEL           ERASE                                          #  B(1)PL                          M/CSECB0
002389: E4,1402                        RMAX               ERASE                                          #  B(1)PL                     METERS*2(-19)
002390: E4,1403                        VMAX               ERASE                                          #  B(1)PL                      M/CSEC*2(-7)
002391:
002392:
002393:                                                                                                  #           P22 STORAGE.           -PAD LOADED-                            (5D)
002394:
002395: E4,1404                        WORBPOS            ERASE                                          #  B(1)PL                            M B-14
002396: E4,1405                        WORBVEL            ERASE                                          #  B(1)PL                          M/CSECB0
002397: E4,1406                        S22WSUBL           ERASE                                          #  B(1)PL                            M B-14
002398: E4,1407                        RPVAR              ERASE    +1                                    #  B(2)PL
002399:
002400:                                                                                                  #           CONISEX STORAGE.       -PAD LOADED-                            (6D)
002401:
002402: E4,1411                        504LM              ERASE    +5                                    #  I(6)MOON LIBRATION VECTOR
002403:
002404:
002405:
002406:                                                                                                  #           ENTRY STORAGE.         -PAD LOADED-                            (2D)
002407:
002408: E4,1417                        EMSALT             ERASE    +1                                    #  I(2)PL
002409:
002410:
002411:                                                                                                  #           P35 CONSTANTS.         -PAD LOADED-                            (4D)
002412:
002413: E4,1421                        ATIGINC            ERASE    +1                                    #  B(2)PL
002414: E4,1423                        PTIGINC            ERASE    +1                                    #  B(2)PL
002415:
002416:
002417:                                                                                                  #           LUNAR LANDING SIGHT DATA. -PAD LOADED-                         (6D)
002418:                                                                                                  #           (USED BY INTEGRATION INITIALIZATION,LAT-LONG SUBROUTINES, P30'S)
002419:
002420: E4,1425                        RLS                ERASE    +5                                    #  I(6) PL  LUNAR LANDING SIGHT VECTOR
002421:
002422:
002423:
002424:                                                                                                  #  CONISEX (LUNAR AND SOLAR EPHEM)STORAGE. -PAD LOADED-                    (77D)
002425: E4,1433                        TIMEMO             ERASE    +76D
002426: E4,1550  E4,1436               VECOEM             EQUALS   TIMEMO     +3
002427: E4,1550  E4,1532               RESO               EQUALS   VECOEM     +60D


002429: E4,1550  E4,1540               VESO               EQUALS   RESO       +6
002430: E4,1550  E4,1546               OMEGAES            EQUALS   VESO       +6
002431:
002432:
002433:                                                                                                  #           FULL INTEGRATION STORAGE.                                      (95D)
002434:
002435: E4,1550                        PBODY              ERASE                                          #  I(1)
002436: E4,1551  E4,1551               ALPHAV             EQUALS   PBODY      +1                         #  I(6)TMP
002437: E4,1551  E4,1557               BETAV              EQUALS   ALPHAV     +6                         #  I(6)TMP
002438: E4,1551  E4,1565               PHIV               EQUALS   BETAV      +6                         #  I(6)TMP
002439: E4,1551  E4,1573               PSIV               EQUALS   PHIV       +6                         #  I(6)TMP
002440: E4,1551  E4,1601               FV                 EQUALS   PSIV       +6                         #  I(6)TMP
002441: E4,1551  E4,1607               BETAM              EQUALS   FV         +6                         #  I(6)TMP
002442: E4,1551  E4,1611               H                  EQUALS   BETAM      +2                         #  I(2)TMP
002443: E4,1551  E4,1613               GMODE              EQUALS   H          +2                         #  I(1)TMP
002444: E4,1551  E4,1614               IRETURN            EQUALS   GMODE      +1                         #  I(1)TMP
002445: E4,1551  E4,1615               NORMGAM            EQUALS   IRETURN    +1                         #  I(1)TMP
002446: E4,1551  E4,1616               VECTAB             EQUALS   NORMGAM    +1                         #  I(36)TMP
002447: E4,1551  E4,1662               RPQV               EQUALS   VECTAB     +36D                       #   (6)TMP VECTOR PRIMARY TO SECONDARY BODY
002448: E4,1551  E4,1670               ORIGEX             EQUALS   RPQV       +6                         #  B(1)TMP QSAVE FOR COORD. SWITCH. ROUTINE
002449: E4,1551  E4,1670               KEPRTN             EQUALS   ORIGEX                                #          QSAVE FOR KEPLER
002450: E4,1551  E4,1671               RQVV               EQUALS   ORIGEX     +1                         #   (6)    SEC.BODY TO VEH.VETOR(USED P23)
002451: E4,1551  E4,1677               RPSV               EQUALS   RQVV       +6                         #   (6)TMP SUN TO PRIMARY BODY VECTOR
002452: E4,1551  E4,1705               XKEPNEW            EQUALS   RPSV       +6                         #   (2)TMP ROOT OF KEPLERS EQU FOR TIME TAU
002453:
002454:
002455:                                                                                                  #           THESE PROBABLY CAN SHARE INTEGRATION VARIABLES.                (9D)
002456:
002457: E4,1551  E4,1624               VACX               EQUALS   VECTAB     +6                         #  I(2)TMP
002458: E4,1551  E4,1626               VACY               EQUALS   VACX       +2                         #  I(2)TMP
002459: E4,1551  E4,1630               VACZ               EQUALS   VACY       +2                         #  I(2)TMP
002460:
002461: E4,1551  E4,1640               ERADM              EQUALS   VECTAB     +18D                       #  I(2)TMP
002462: E4,1551  E4,1642               INCORPEX           EQUALS   ERADM      +2                         #  I(1)TMP
002463:
002464:
002465:                                                                                                  #           R31(V83) STORAGE. -SHARES WITH INTEGRATION STORAGE-            (28D)
002466:
002467:
002468: E4,1551  E4,1624               BASEOTP            EQUALS   VECTAB     +6                         #  I(6)     BASE POS VECTOR OTHER VEH
002469: E4,1551  E4,1640               BASEOTV            EQUALS   VECTAB     +18D                       #  I(6)     BASE VEL VECTOR OTHER VEH
002470: E4,1551  E4,1654               BASETHP            EQUALS   VECTAB     +30D                       #  I(6)     BASE POS VECTOR THIS VEH
002471: E4,1551  E4,1662               BASETHV            EQUALS   RPQV                                  #  I(6)     BASE VEL VECTOR THIS VEH
002472: E4,1551  E4,1671               BASETIME           EQUALS   RQVV                                  #  I(2)     TIME ASSOC WITH BASE VECS
002473: E4,1551  E4,1673               ORIG               EQUALS   RQVV       +2                         #  I(1)     =0 FOR EARTH =+2 FOR MOON
002474: E4,1551  E4,1674               STATEXIT           EQUALS   RQVV       +3                         #  I(1)     STQ ADDRESS FOR STATEXTP
002475:
002476:
002477:                                                                                                  #           CONIC INTEGRATION STORAGE.      -MAY NOT SHARE WITH SERVICER-  (6D)
002478:


002480: E4,1551  E4,1707               ALPHAM             EQUALS   XKEPNEW    +2                         #  I(2)TMP
002481: E4,1551  E4,1711               TAU.               EQUALS   ALPHAM     +2                         #  I(2)TMP
002482: E4,1551  E4,1713               DT/2               EQUALS   TAU.       +2                         #  I(2)TMP
002483:
002484:
002485:                                                                                                  #           P21 STORAGE.                                                   (2D)
002486:
002487: E4,1551  E4,1715               P21TIME            EQUALS   DT/2       +2                         #  B(2)TMP
002488:
002489:
002490:
002491:                                                                                                  #           INCORPORATION/VERB 83 COMMON STORAGE.                          (1D)
002492:
002493: E4,1551  E4,1717               EGRESS             EQUALS   P21TIME    +2                         #  I(1)TMP SAVES RETURNS.
002494:
002495:
002496:                                                                                                  #           VERB 83 STORAGE.        MAY SHARE ONLY WITH INCORPORATION.     (18D)
002497:
002498: E4,1551  E4,1720               RANGE              EQUALS   EGRESS     +1                         #  I(2)DSP NOUN 54 DISTANCE TO OPTICAL SUBJ
002499: E4,1551  E4,1722               RRATE              EQUALS   RANGE      +2                         #  I(2)DSP NOUN 54 RATE OF APPROACH
002500: E4,1551  E4,1724               RTHETA             EQUALS   RRATE      +2                         #  I(2)DSP NOUN 54
002501: E4,1551  E4,1726               RONE               EQUALS   RTHETA     +2                         #  I(6)TMP VECTOR STORAGE. (SCRATCH)
002502: E4,1551  E4,1734               VONE               EQUALS   RONE       +6                         #  I(6)TMP VECTOR STORAGE. (SCRATCH)
002503:
002504:
002505:                                                                                                  #           LUNAR LANDMARK SELECTION PROGRAM - R35                         (28D)
002506:
002507: E4,1551  E4,1720               XR1HOLD            EQUALS   RANGE                                 #  I(2)
002508: E4,1551  E4,1722               VECTIME            EQUALS   XR1HOLD    +2                         #  I(2)
002509: E4,1551  E4,1724               JLOOPCNT           EQUALS   VECTIME    +2                         #  I(1)
002510: E4,1551  E4,1725               KLOOPCNT           EQUALS   JLOOPCNT   +1                         #  I(1)
002511: E4,1551  E4,1726               NKVAL              EQUALS   KLOOPCNT   +1                         #  I(1)
002512: E4,1551  E4,1727               DELTAL             EQUALS   NKVAL      +1                         #  I(2)
002513: E4,1551  E4,1731               TK                 EQUALS   DELTAL     +2                         #  I(2)
002514: E4,1551  E4,1733               INDEXNUM           EQUALS   TK         +2                         #  I(1)
002515:
002516: E4,1551  E4,1734               LONGSAVE           EQUALS   INDEXNUM   +1                         #  I(2)
002517: E4,1551  E4,1736               POSVECT            EQUALS   LONGSAVE   +2                         #  I(6)
002518: E4,1551  E4,1744               VELVECT            EQUALS   POSVECT    +6                         #  I(6)
002519: E4,1551  E4,1752               LSLONG             EQUALS   VELVECT    +6                         #  I(2) TMP LONGITUDE OF LANDING SIGHT
002520:
002521:
002522:                                                                                                  #           S-BAND ANTENNA GIMBAL ANGLES.  DISPLAYED BY R05 (EXT.VB.64)    (4D)
002523:                                                                                                  #                  OPERATION DURING P00 ONLY.
002524:
002525: E4,1551  E4,1720               RHOSB              EQUALS   RANGE                                 #  B(2)DSP NOUN 51.  PITCH ANGLE
002526: E4,1551  E4,1722               GAMMASB            EQUALS   RHOSB      +2                         #  B(2)DSP NOUN 51.  YAW ANGLE
002527:
002528:                                                                                                  #           R 36 SCRATCHPAD STORAGE                                        (12)
002529:


002531: E4,1551  E4,1726               RPASS36            EQUALS   RONE                                  #  I (6)S-S
002532: E4,1551  E4,1734               UNP36              EQUALS   RPASS36    +6                         #  I (6)S-S
002533:
002534:
002535:
002536:                                                                                                  #           EXTENDED VERB 82 STORAGE.
002537:                                                                                                  #           (*** THE SHARING IN THIS SECTION IS TEMPORARY ONLY ****)       (8D)
002538:
002539: E4,1551  E4,1720               HPERMIN            EQUALS   RANGE                                 #  I(2) SET TO 300KFT OR 35KFT FOR SR30.1
002540: E4,1551  E4,1722               RPADTEM            EQUALS   HPERMIN    +2                         #  I(2) PAD OR LANDING RADIUS FOR SR30.1
002541: E4,1551  E4,1724               TSTART82           EQUALS   RPADTEM    +2                         #  I(2) TEMP TIME STORAGE FOR V82.
002542:
002543:
002544:                                                                                                  #           MORE VERB 82 NOT SHARING WITH VERB 83                          (9D)
002545:
002546:
002547: E4,1551  E4,1742               V82FLAGS           EQUALS   VONE       +6                         #   (1) FOR V 82 BITS
002548: E4,1551  E4,1743               TFF                EQUALS   V82FLAGS   +1                         #  I(2) DSP NOUN 42,   , FOR P30,40,41.
002549: E4,1551  E4,1745               -TPER              EQUALS   TFF        +2                         #  I(2)DSP NOUN 32
002550: E4,1551  E4,1747               THETA(1)           EQUALS   -TPER      +2                         #  I(2) TMP SET AT END OF V82
002551: E4,1551  E4,1755               RSP-RREC           EQUALS   AOPTIME                               #  DSP NOUN R32
002552:
002553:
002554:                                                                                                  #           REENTRY CONICS                                                 (6D)
002555:
002556: E4,1551  E4,1742               URONE              EQUALS   V82FLAGS                              #  I(6) SAVE ACTUAL FOR CALCULATIONS
002557:
002558:
002559:
002560:                                                                                                  #           V 82 DISPLAY                                                   (4D)
002561:
002562: E4,1551  E4,1751               HAPOX              EQUALS   THETA(1)   +2                         #  I(2) DSP NOUN 44
002563: E4,1551  E4,1753               HPERX              EQUALS   HAPOX      +2                         #  I(2) DSP NOUN 44
002564:
002565:
002566:
002567:                                                                                                  #           VARIOUS DISPLAY REGISTERS.                                     (06D)
002568:
002569: E4,1551  E4,1755               AOPTIME            EQUALS   HPERX      +2
002570: E4,1551  E4,1757               LANDLONG           EQUALS   AOPTIME    +2                         #  I(2) DSP NOUN 89 FOR P22
002571: E4,1551  E4,1761               LANDALT            EQUALS   LANDLONG   +2                         #  I(2)DSP NOUN 89 FOR P22.
002572:
002573:                                                                                                  #           S34/35.5,P34-P35 STORAGE.                                      (6D)
002574:
002575: E4,1551  E4,1763               KT                 EQUALS   LANDALT    +2                         #  B(2)
002576: E4,1551  E4,1765               VERBNOUN           EQUALS   KT         +2                         #  B(1)TMP
002577: E4,1551  E4,1766               QSAVED             EQUALS   VERBNOUN   +1                         #  B(1)TMP HOLDS RETURN


002579: E4,1551  E4,1767               RTRN               EQUALS   QSAVED     +1                         #  B(1) RETURN
002580: E4,1551  E4,1770               SUBEXIT            EQUALS   RTRN       +1                         #  B(1) TMP
002581:                                                                                                  #                                          RGEXIT CANT SHARE WITH HPER,HAPO
002582: E4,1551  E4,1770               RGEXIT             EQUALS   SUBEXIT                               #  I(1)TMP Q SAVE MODE 1 AND 2 TO RTRN MAIN
002583:
002584:
002585:                                                                                                  #           P30 DISPLAY                                                    (4D)
002586:
002587: E4,1551  E4,1763               HAPO               EQUALS   KT                                    #  I(2) DSP NOUN 42, FOR P30.
002588: E4,1551  E4,1765               HPER               EQUALS   HAPO       +2                         #  I(2) DSP NOUN 42, FOR P30.
002589:
002590:
002591:
002592:                                                                                                  #           SOME P34 STORAGE.       (OVERLAYS P35.1 STORAGE)               (2D)
002593:
002594: E4,1551  E4,1763               NOMTPI             EQUALS   KT                                    #  I(2)TMP NOMINAL TPI TIME FOR RECYCLE
002595:
002596:
002597:                                                                                                  #  THE FOLLOWING ARE ERASABLES USED BY THE SYSTEM TESTS. 205 USES TRANSM1  GS ARE NOT USED IN 205 NOR ARE THEY
002598:                                                                                                  #  WHILE 504 USES TRANSM1 AND ALFDK .
002599:
002600: E4,1551                        TRANSM1            EQUALS   2000                                  #   (18) INITIALIZATION FOR IMU TESTS
002601: E4,1551  E4,1422               ALFDK              =        TRANSM1    +18D                       #   (144) ERASABLE LOAD IN 504
002602:                                                                                                  #  END OF PERF. TEST ERASABLE IN BANK 4
002603:
002604:                                                                                                  #      *-*-* V82 *-*-*                                                     (6D)
002605:
002606: E4,1551  E4,1771               VONE'              EQUALS   RGEXIT     +1                         #  I(6)TMP NORMAL VELOCITY VONE/ SQ RT MU
002607:
002608:
002609:                                                                                                  #           PAD LOAD INTEGRATION ERROR INCLUDED IN VARIANCE BY P20         (1D)
002610:
002611: E4,1551  E4,1777               INTVAR             EQUALS   VONE'      +6                         #  I(1)PL  SQUARE OF EXPECTED INTEGRATION
002612:                                                                                                  #                                                  POSITION EXTRAPOLATION ERROR.
002613:                                                                                                  #                                                  SCALED  METERS(2) 2(15)
002614:
002615: E4,1551  E4,1777               END-E4             EQUALS   INTVAR                                #  LAST USED ERASABLE IN E4
002616:


002618:
002619:                                                                                                  #  EBANK-5 ASSIGNMENTS
002620: E5,1400                                           SETLOC   2400
002621:
002622:                                                                                                  #           *-*-*-*- OVERLAY 1 IN EBANK 5 -*-*-*-*
002623:
002624:                                                                                                  #           W-MATRIX STORAGE.                                              (162D)
002625:
002626: E5,1400                        W                  EQUALS   2400                                  #  B(162)
002627:
002628: E5,1400  E5,1570               EMATRIX            =        W          +120D                      #  B(42E    USED TO CONVERT W TO 6X6
002629: E5,1400  E5,1642               END-W              EQUALS   W          +162D                      #  **NEXT AVAILABLE LOC AFTER W MATRIX**
002630:
002631:
002632:                                                                                                  #           AUTO-OPTICS STORAGE -R52-
002633:
002634:                                                                                                  #  DO NOT MOVE FROM E5,1554. A DELICATE BALANCE EXISTS BETWEEN THIS AND P03
002635: E5,1400  E5,1554               XNB1               EQUALS   W          +108D                      #  B(6D)TMP
002636: E5,1400  E5,1562               YNB1               EQUALS   XNB1       +6                         #  B(6)TMP
002637: E5,1400  E5,1570               ZNB1               EQUALS   YNB1       +6                         #  B(6)TMP
002638: E5,1400  E5,1576               SAVQR52            EQUALS   ZNB1       +6                         #  I(2)TMP
002639:
002640:
002641: E5,1400  E5,1600               PLANVEC            EQUALS   SAVQR52    +2                         #  B(6) S-S SIGHTING VECTOR IN REF. COOR.
002642: E5,1400  E5,1606               TSIGHT             EQUALS   PLANVEC    +6                         #  B(2) S-S TIME OF SIGHTING
002643:
002644:
002645:
002646:                                                                                                  #           RENDEZVOUS -P34-35                                             (26D)
002647:
002648: E5,1400  E5,1610               DVLOS              EQUALS   TSIGHT     +2                         #  I(6) S-S DELTA VELOCITY,LOS COORD-DISPL1
002649: E5,1400  E5,1610               DELTAR             EQUALS   DVLOS                                 #  I(2)
002650: E5,1400  E5,1610               TINTSOI            EQUALS   DELTAR                                #  I(2) INTERCEPT TIME FOR  SOI MANEUVER
002651: E5,1400  E5,1612               DELTTIME           EQUALS   DVLOS      +2                         #  I(2)
002652: E5,1400  E5,1614               TARGTIME           EQUALS   DVLOS      +4                         #  I(2)
002653: E5,1400  E5,1616               UNRM               EQUALS   DVLOS      +6                         #  I(6) S-S
002654: E5,1400  E5,1624               ULOS               EQUALS   UNRM       +6                         #  I(6) S-S UNIT LINE OF SIGHT VECTOR
002655: E5,1400  E5,1632               ACTCENT            EQUALS   ULOS       +6                         #  I(2) S-S CENTRAL ANGLE BETWEEN ACTIVE
002656:                                                                                                  #           VEH AT TPI IGNITION TIME AND
002657:                                                                                                  #           TARGET VECTOR.
002658: E5,1400  E5,1634               DELVTPI            EQUALS   ACTCENT    +2                         #  I(2)    NOUN 58 FOR P34.
002659: E5,1400  E5,1636               DELVTPF            EQUALS   DELVTPI    +2                         #  I(2)    NOUN 58,59 FOR P34,35.
002660: E5,1400  E5,1640               POSTTPI            EQUALS   DELVTPF    +2                         #  I(2)    NOUN 58 FOR P34.
002661: E5,1400  E5,1634               TDEC2              EQUALS   DELVTPI                               #   (2)
002662:
002663:                                                                                                  #           ALIGNMENT                                                      (12D)
002664: E5,1400  E5,1610               STARSAV1           EQUALS   DVLOS                                 #  I(6)TMP RESTART STAR SAVE.
002665: E5,1400  E5,1616               STARSAV2           EQUALS   STARSAV1   +6                         #  I(6)TMP RESTART STAR SAVE.


002667: E5,1400  E5,1616               US                 =        STARSAV2                              #           (CISLUNAR TAG FOR STARSAV2).
002668:
002669:
002670:
002671:                                                                                                  #           TPI SEARCH                                                     (26D)
002672:
002673: E5,1400  E5,1610               IT                 EQUALS   DVLOS                                 #   (6)
002674: E5,1400  E5,1616               THETZERO           EQUALS   IT         +6                         #   (2)
002675: E5,1400  E5,1620               TFI                EQUALS   THETZERO   +2                         #   (2)
002676: E5,1400  E5,1622               DELVEE             EQUALS   TFI        +2                         #   (2)
002677: E5,1400  E5,1624               HP                 EQUALS   DELVEE     +2                         #   (2)
002678: E5,1400  E5,1626               TFO                EQUALS   HP         +2                         #   (2)
002679: E5,1400  E5,1630               HPO                EQUALS   TFO        +2                         #   (2)
002680: E5,1400  E5,1632               DELVEO             EQUALS   HPO        +2                         #   (2)
002681: E5,1400  E5,1634               MAGVTPI            EQUALS   DELVEO     +2                         #  I(2) TMP MAG OF DELTAVTPI OR VMID
002682: E5,1400  E5,1636               RELDELV            EQUALS   MAGVTPI    +2                         #  I(2) TMP MAG OF DELTAVTPF
002683: E5,1400  E5,1640               T3TOT4             EQUALS   RELDELV    +2                         #  I(2) DSP NOUN 39 FOR P34, 35. TPI TO TIN
002684:                                                                                                  #                                          T (CAN NOT SHARE WITH RETURN TO EARTH)
002685:


002687:
002688:                                                                                                  #           ALIGNMENT/SYSTEST/CALCSMSC/CRS61.1 COMMON STORAGE.             (36D)
002689:                                                                                                  #           (CALCSMSC IS A SUBSET OF S41.1 AT LEAST)
002690:                                                                                                  #           (CRS61.1 IS A SUBSET OF P20)
002691:
002692: E5,1400  E5,1671               XSM                EQUALS   END-W      +23D                       #  B(6)
002693: E5,1400  E5,1677               YSM                EQUALS   XSM        +6                         #  B(6)TMP
002694: E5,1400  E5,1705               ZSM                EQUALS   YSM        +6                         #  B(6)TMP
002695:
002696: E5,1400  E5,1713               XDC                EQUALS   ZSM        +6                         #  B(6)TMP
002697: E5,1400  E5,1721               YDC                EQUALS   XDC        +6                         #  B(6)TMP
002698: E5,1400  E5,1727               ZDC                EQUALS   YDC        +6                         #  B(6)TMP
002699:
002700: E5,1400  E5,1713               XNB                =        XDC
002701: E5,1400  E5,1721               YNB                =        YDC
002702: E5,1400  E5,1727               ZNB                =        ZDC
002703:
002704:
002705:                                                                                                  #           OVERLAYS WITHIN ALIGNMENT/SYSTEST/CALCSMSC COMMON STORAGE.
002706:
002707: E5,1400  E5,1673               -COSB              EQUALS   XSM        +2                         #   (2)TMP
002708: E5,1400  E5,1675               SINB               EQUALS   -COSB      +2                         #   (2)TMP
002709:
002710:
002711:                                                                                                  #           ALIGNMENT/SYSTEST COMMON STORAGE.                              (18D)
002712:
002713: E5,1400  E5,1735               STARAD             EQUALS   ZDC        +6                         #  I(18D)TMP
002714:
002715:
002716:                                                                                                  #           ALIGNMENT/SYSTEST/AUTO OPTICS COMMON STORAGE.                  (17D)
002717:
002718: E5,1400  E5,1757               OGC                EQUALS   STARAD     +18D                       #  I(2)TMP
002719: E5,1400  E5,1761               IGC                EQUALS   OGC        +2                         #  I(2)TMP
002720: E5,1400  E5,1763               MGC                EQUALS   IGC        +2                         #  I(2)TMP
002721: E5,1400  E5,1765               STAR               EQUALS   MGC        +2                         #  I(6)TMP
002722: E5,1400  E5,1773               SAC                EQUALS   STAR       +6                         #  I(2)TMP
002723: E5,1400  E5,1775               PAC                EQUALS   SAC        +2                         #  I(2)TMP
002724: E5,1400  E5,1777               QMIN               EQUALS   PAC        +2                         #  B(1)TMP
002725:
002726:
002727:                                                                                                  #        **** COLP50S ****                                                 (1D)
002728:
002729: E5,1400  E5,1735               CULTRIX            EQUALS   VEARTH                                #  VEARTH, VSUN, VMOON
002730:
002731:
002732:                                                                                                  #           OVERLAYS WITHIN ALIGNMENT/SYSTEST COMMON STORAGE.              (24D)
002733:
002734: E5,1400  E5,1735               VEARTH             EQUALS   STARAD                                #   (6)TMP
002735: E5,1400  E5,1743               VSUN               EQUALS   VEARTH     +6                         #   (6)TMP
002736: E5,1400  E5,1751               VMOON              EQUALS   VSUN       +6                         #   (6)TMP
002737: E5,1400  E5,1757               SAX                EQUALS   VMOON      +6                         #   (6)TMP
002738:


002740:
002741:                                                                                                  #           *-*-*-*-  OVERLAY 2 IN EBANK 5 -*-*-*-*
002742:
002743:                                                                                                  #           CONIC ROUTINES STORAGE.                                        (87D)
002744:
002745: E5,1400  E5,1642               DELX               EQUALS   END-W                                 #  I(2)TMP
002746: E5,1400  E5,1644               DELT               EQUALS   DELX       +2                         #  I(2)TMP
002747: E5,1400  E5,1646               URRECT             EQUALS   DELT       +2                         #  I(6)TMP
002748: E5,1400  E5,1654               RCNORM             EQUALS   URRECT     +6                         #  I(2)TMP
002749: E5,1400  E3,1552               XPREV              EQUALS   XKEP                                  #  I(2)TMP
002750: E5,1400  E5,1656               R1VEC              EQUALS   RCNORM     +2                         #  I(6)TMP
002751: E5,1400  E5,1664               R2VEC              EQUALS   R1VEC      +6                         #  I(6)TMP
002752: E5,1400  E5,1672               TDESIRED           EQUALS   R2VEC      +6                         #  I(2)TMP
002753: E5,1400  E5,1674               GEOMSGN            EQUALS   TDESIRED   +2                         #  I(1)TMP
002754: E5,1400  E5,1675               UN                 EQUALS   GEOMSGN    +1                         #  I(6)TMP
002755: E5,1400  E5,1703               VTARGTAG           EQUALS   UN         +6                         #  I(1)TMP
002756: E5,1400  E5,1704               VTARGET            EQUALS   VTARGTAG   +1                         #  I(6)TMP
002757: E5,1400  E5,1712               RTNLAMB            EQUALS   VTARGET    +6                         #  I(1)TMP
002758: E5,1400  E5,1713               U2                 EQUALS   RTNLAMB    +1                         #  I(6)TMP
002759: E5,1400  E5,1721               MAGVEC2            EQUALS   U2         +6                         #  I(2)TMP
002760: E5,1400  E5,1723               UR1                EQUALS   MAGVEC2    +2                         #  I(6)TMP
002761: E5,1400  E5,1731               SNTH               EQUALS   UR1        +6                         #  I(2)TMP
002762: E5,1400  E5,1733               CSTH               EQUALS   SNTH       +2                         #  I(2)TMP
002763: E5,1400  E5,1735               1-CSTH             EQUALS   CSTH       +2                         #  I(2)TMP
002764: E5,1400  E5,1737               CSTH-RHO           EQUALS   1-CSTH     +2                         #  I(2)TMP
002765: E5,1400  E5,1741               P                  EQUALS   CSTH-RHO   +2                         #  I(2)TMP
002766: E5,1400  E5,1743               R1A                EQUALS   P          +2                         #  I(2)TMP
002767: E5,1400  E5,1656               RVEC               EQUALS   R1VEC                                 #  I(6)TMP
002768: E5,1400  E5,1745               VVEC               EQUALS   R1A        +2                         #  I(6)TMP
002769: E5,1400  E5,1712               RTNTT              EQUALS   RTNLAMB                               #  I(1)TMP
002770: E5,1400  E5,1753               ECC                EQUALS   VVEC       +6                         #  I(2)TMP
002771: E5,1400  E5,1712               RTNTR              EQUALS   RTNLAMB                               #  I(1)TMP
002772: E5,1400  E5,1712               RTNAPSE            EQUALS   RTNLAMB                               #  I(1)TMP
002773: E5,1400  E5,1721               R2                 EQUALS   MAGVEC2                               #  I(2)TMP
002774: E5,1400  E5,1755               RTNPRM             EQUALS   ECC        +2                         #  I(1)TMP
002775: E5,1400  E5,1756               SGNRDOT            EQUALS   RTNPRM     +1                         #  I(1)TMP
002776: E5,1400  E5,1757               RDESIRED           EQUALS   SGNRDOT    +1                         #  I(2)TMP
002777: E5,1400  E5,1761               DELDEP             EQUALS   RDESIRED   +2                         #  I(2)TMP
002778: E5,1400  E5,1763               DEPREV             EQUALS   DELDEP     +2                         #  I(2)TMP
002779: E5,1400  E5,1761               TERRLAMB           EQUALS   DELDEP                                #  I(2)TMP
002780: E5,1400  E5,1763               TPREV              EQUALS   DEPREV                                #  I(2)TMP
002781:


002783:
002784:                                                                                                  #           *-*-*-*-  OVERLAY 3 IN EBANK 5 -*-*-*-*
002785:
002786:                                                                                                  #           MEASUREMENT INCORPORATION STORAGE.                             (66D)
002787:                                                                                                  #           (CALLED BY P20, P22, P23)
002788:
002789: E5,1400  E5,1642               OMEGAM1            EQUALS   END-W                                 #  I(6)TMP
002790: E5,1400  E5,1650               OMEGAM2            EQUALS   OMEGAM1    +6                         #  I(6)TMP
002791: E5,1400  E5,1656               OMEGAM3            EQUALS   OMEGAM2    +6                         #  I(6)TMP
002792: E5,1400  E5,1664               HOLDW              EQUALS   OMEGAM3    +6                         #  I(18)TMP
002793: E5,1400  E5,1706               TDPOS              EQUALS   HOLDW      +18D                       #  I(6)TMP
002794: E5,1400  E5,1714               TDVEL              EQUALS   TDPOS      +6                         #  I(6)TMP
002795:
002796: E5,1400  E5,1722               ZI                 EQUALS   TDVEL      +6                         #  I(18)
002797:
002798:                                                                                                  #           P22-P23 STORAGE.                                               (8D)
002799:
002800: E5,1400  E5,1744               22SUBSCL           EQUALS   ZI         +18D                       #  DE OF ABCDE LANDMARK ID NO.
002801: E5,1400  E5,1745               CXOFF              EQUALS   22SUBSCL   +1                         #  B OF ABCDE OFFSET INDICATOR
002802: E5,1400  E5,1746               8KK                EQUALS   CXOFF      +1                         #  B(1)TMP INDEX OF PRESENT MARK.
002803: E5,1400  E5,1747               8NN                EQUALS   8KK        +1                         #  B(1)TMP
002804: E5,1400  E5,1750               S22LOC             EQUALS   8NN        +1                         #  I(1)TMP MARK DATA LOC
002805: E5,1400  E5,1751               LANDMARK           EQUALS   S22LOC     +1                         #  B(1)DSP NOUN 70 FOR P22,51, R52,53.
002806: E5,1400  E5,1752               HORIZON            EQUALS   LANDMARK   +1                         #  B(1)DSP NOUN 70 FOR P22,51, R52,53.
002807: E5,1400  E5,1753               IDOFLMK            EQUALS   HORIZON    +1                         #  B(1)
002808:
002809:
002810:
002811:                                                                                                  #           ******P23***                                                   (1D)
002812: E5,1400  E5,1754               TRUNION            EQUALS   IDOFLMK    +1                         #  B(1)
002813:


002815:
002816:                                                                                                  #           *-*-*-*-  OVERLAY 0 IN EBANK 5 -*-*-*-*
002817:
002818:                                                                                                  #           SYSTEM TEST STORAGE.                                           (174)
002819:
002820: E5,1400                        AZIMUTH            ERASE    +1
002821: E5,1402                        LATITUDE           ERASE    +1
002822:
002823: E5,1404     1160               TRUNA              EQUALS   DESOPTT
002824: E5,1404     1161               SHAFTA             EQUALS   DESOPTS
002825:
002826: E5,1404                        ERVECTOR           ERASE    +5
002827: E5,1412                        LENGTHOT           ERASE
002828: E5,1413                        LOSVEC             ERASE    +5
002829:
002830: E5,1421  E5,1413               SXTOPTN            =        LOSVEC
002831: E5,1421                        NDXCTR             ERASE
002832: E5,1422                        PIPINDEX           ERASE
002833: E5,1423                        POSITON            ERASE
002834: E5,1424                        QPLAC              ERASE
002835: E5,1425                        QPLACE             ERASE
002836: E5,1426                        QPLACES            ERASE
002837: E5,1427                        RUN                ERASE
002838: E5,1430                        STOREPL            ERASE
002839: E5,1431                        SOUTHDR            ERASE
002840: E5,1432  E5,1431               TARG1/2            =        SOUTHDR
002841: E5,1432                        TAZEL1             ERASE    +5
002842: E5,1440                        TEMPTIME           ERASE    +1
002843: E5,1442                        TMARK              ERASE    +1
002844: E5,1444                        GENPL              ERASE    +134D
002845: E5,1653  E5,1444               CDUTIMEI           =        GENPL
002846: E5,1653  E5,1446               CDUTIMEF           =        GENPL      +2
002847: E5,1653  E5,1450               IMU/OPT            =        GENPL      +4
002848: E5,1653  E5,1451               CDUREADF           =        GENPL      +5
002849: E5,1653  E5,1452               CDUREADI           =        GENPL      +6
002850: E5,1653  E5,1453               CDULIMIT           =        GENPL      +7
002851:
002852: E5,1653  E5,1450               TEMPADD            =        GENPL      +4
002853: E5,1653  E5,1451               TEMP               =        GENPL      +5
002854: E5,1653  E5,1452               NOBITS             =        GENPL      +6
002855: E5,1653  E5,1453               CHAN               =        GENPL      +7
002856:
002857: E5,1653  E5,1454               LOS1               =        GENPL      +8D
002858: E5,1653  E5,1462               LOS2               =        GENPL      +14D
002859:
002860: E5,1653  E5,1470               CALCDIR            EQUALS   GENPL      +20D
002861: E5,1653  E5,1471               CDUFLAG            EQUALS   GENPL      +21D
002862: E5,1653  E5,1472               GYTOBETQ           EQUALS   GENPL      +22D
002863: E5,1653  E5,1473               OPTNREG            EQUALS   GENPL      +23D
002864: E5,1653  E5,1474               SAVE               EQUALS   GENPL      +24D                       #  THREE CONSEC LOC
002865: E5,1653  E5,1477               SFCONST1           EQUALS   GENPL      +27D


002867: E5,1653  E5,1500               TIMER              EQUALS   GENPL      +28D
002868:
002869: E5,1653  E5,1502               DATAPL             EQUALS   GENPL      +30D
002870: E5,1653  E5,1444               RDSP               EQUALS   GENPL                                 #  FIX LATER   POSSIBLY KEEP1
002871: E5,1653  E5,1544               MASKREG            EQUALS   GENPL      +64D
002872: E5,1653  E5,1546               CDUNDX             EQUALS   GENPL      +66D
002873: E5,1653  E5,1547               RESULTCT           EQUALS   GENPL      +67D
002874: E5,1653  E5,1552               COUNTPL            EQUALS   GENPL      +70D
002875:
002876: E5,1653  E5,1553               CDUANG             EQUALS   GENPL      +71D
002877: E5,1653  E5,1444               AINLA              =        GENPL                                 #  OPTIMUM CALIB. AND ALIGNMENT
002878:
002879:
002880: E5,1653  E5,1444               WANGO              EQUALS   AINLA
002881: E5,1653  E5,1446               WANGI              EQUALS   AINLA      +2D
002882: E5,1653  E5,1450               WANGT              EQUALS   AINLA      +4D
002883: E5,1653  E5,1450               TORQNDX            =        WANGT
002884: E5,1653  E5,1452               DRIFTT             EQUALS   AINLA      +6D
002885: E5,1653  E5,1454               ALX1S              EQUALS   AINLA      +8D
002886: E5,1653  E5,1455               CMPX1              EQUALS   AINLA      +9D
002887: E5,1653  E5,1456               ALK                EQUALS   AINLA      +10D
002888: E5,1653  E5,1472               VLAUNS             EQUALS   AINLA      +22D
002889: E5,1653  E5,1460               THETAX             =        ALK        +2
002890: E5,1653  E5,1474               WPLATO             EQUALS   AINLA      +24D
002891: E5,1653  E5,1500               INTY               EQUALS   AINLA      +28D
002892: E5,1653  E5,1466               THETAN             =        THETAX     +6
002893: E5,1653  E5,1502               ANGZ               EQUALS   AINLA      +30D
002894: E5,1653  E5,1504               INTZ               EQUALS   AINLA      +32D
002895: E5,1653  E5,1506               ANGY               EQUALS   AINLA      +34D
002896: E5,1653  E5,1510               ANGX               EQUALS   AINLA      +36D
002897: E5,1653  E5,1512               DRIFTO             EQUALS   AINLA      +38D
002898: E5,1653  E5,1514               DRIFTI             EQUALS   AINLA      +40D
002899: E5,1653  E5,1520               VLAUN              EQUALS   AINLA      +44D
002900: E5,1653  E5,1474               FILDELV            =        THETAN     +6
002901: E5,1653  E5,1522               ACCWD              EQUALS   AINLA      +46D
002902: E5,1653  E5,1476               INTVEC             =        FILDELV    +2
002903: E5,1653  E5,1530               POSNV              EQUALS   AINLA      +52D
002904: E5,1653  E5,1532               DPIPAY             EQUALS   AINLA      +54D
002905: E5,1653  E5,1536               DPIPAZ             EQUALS   AINLA      +58D
002906: E5,1653  E5,1540               ALTIM              EQUALS   AINLA      +60D
002907: E5,1653  E5,1541               ALTIMS             EQUALS   AINLA      +61D
002908: E5,1653  E5,1542               ALDK               EQUALS   AINLA      +62D
002909: E5,1653  E5,1560               DELM               EQUALS   AINLA      +76D
002910: E5,1653  E5,1570               WPLATI             EQUALS   AINLA      +84D
002911: E5,1653  E5,1577               RESTARPT           =        AINLA      +          91D
002912: E5,1653  E5,1631               GEOSAVED           =        AINLA      +117D
002913: E5,1653  E5,1632               PREMTRXC           =        AINLA      +118D
002914: E5,1653  E5,1633               LAUNCHAZ           =        AINLA      +119D
002915: E5,1653  E5,1635               NEWAZMTH           =        AINLA      +121D
002916: E5,1653  E5,1637               OLDAZMTH           =        AINLA      +123D


002918: E5,1653  E5,1641               TOLDAZMT           =        AINLA      +125D
002919: E5,1653  E5,1643               GEOCOMPS           =        AINLA      +127D
002920: E5,1653  E5,1644               1SECXT             =        AINLA      +128D
002921: E5,1653  E5,1645               GTSXTLST           =        AINLA      +129D
002922: E5,1653  E5,1646               ERECTIME           =        AINLA      +130D
002923: E5,1653  E5,1647               ERCOMP             =        AINLA      +131D
002924: E5,1653  E5,1655               ZERONDX            =        AINLA      +137D
002925: E5,1653  E5,1655               GTSOPNDZ           =        ZERONDX
002926:
002927:
002928:                                                                                                  #  THE FOLLOWING TAGS ARE USED BY THE 504 IMU CALIBRATION AND ALIGNMENT PROGRAM ONLY.
002929:
002930: E5,1653  E5,1460               THETAX1            EQUALS   ALK        +2
002931: E5,1653  E5,1466               THETAN1            EQUALS   THETAX1    +6
002932: E5,1653  E5,1474               FILDELV1           EQUALS   THETAN1    +6
002933: E5,1653  E5,1476               INTVEC1            EQUALS   FILDELV1   +2
002934: E5,1653  E5,1631               GEOSAVE1           EQUALS   AINLA      +117D
002935: E5,1653  E5,1632               PREMTRX1           EQUALS   AINLA      +118D
002936: E5,1653  E5,1633               LUNCHAZ1           EQUALS   AINLA      +119D
002937: E5,1653  E5,1635               NEWAZ1             EQUALS   LUNCHAZ1   +2
002938: E5,1653  E5,1637               OLDAZ1             EQUALS   LUNCHAZ1   +4
002939: E5,1653  E5,1641               TOLDAZ1            EQUALS   LUNCHAZ1   +6
002940: E5,1653  E5,1643               GEOCOMP1           EQUALS   AINLA      +127D
002941: E5,1653  E5,1644               1SECXT1            EQUALS   AINLA      +128D
002942: E5,1653  E5,1645               GTSWTLT1           EQUALS   AINLA      +129D
002943: E5,1653  E5,1646               ERECTIM1           EQUALS   AINLA      +130D
002944: E5,1653  E5,1647               ERCOMP1            EQUALS   AINLA      +131D                      #  I(6)
002945: E5,1653  E5,1655               ZERONDX1           EQUALS   AINLA      +137D
002946: E5,1653  E5,1656               PERFDLAY           EQUALS   AINLA      +138D                      #  B(2).........
002947:                                                                                                  #  END OF 504 CAL + ALIGN ERASE.
002948:
002949:
002950: E5,1653  E5,1777               END-E5             EQUALS   QMIN                                  #  LAST USED E5 ADDRESS
002951:


002953:
002954:                                                                                                  #                  EBANK-6 ASSIGNMENTS
002955: E6,1400                                           SETLOC   3000
002956:
002957:                                                                                                  #           P23   PAD LOADS***                                             (2D).
002958:
002959: E6,1400                        WMIDPOS            ERASE                                          #  I(1) PL  INITIAL VALUES FOR W-MATRIX IN
002960: E6,1401                        WMIDVEL            ERASE                                          #  I(1) PL  CISLUNAR (P23) NAVIGATION
002961:
002962:
002963:
002964:                                                                                                  #           R22 PAD LOADS                                                  ( 5D ).
002965:
002966: E6,1402                        RVAR               ERASE    +1                                    #  I(2) PL  VHF RADAR
002967: E6,1404                        RVARMIN            ERASE    +2                                    #  I(3) PL  VHF RADAR
002968:
002969:
002970:
002971:                                                                                                  #  ******** PAD LOADED ENTRY DAP STEERING VARIABLES ********               (3D)
002972:
002973: E6,1407                        LADPAD             ERASE                                          #  I(1) PL  FOR ENTRY.HOLDS CM  NOMINAL L/D
002974: E6,1410                        LODPAD             ERASE                                          #  I(1) PL  FOR ENTRY.HOLDS CM  NOMINAL LOD
002975: E6,1411                        ALFAPAD            ERASE                                          #  B(1) PL  ALFA TRIM / 180
002976:
002977:
002978:                                                                                                  #  ******** PAD LOADED TVC DAP VARIABLES.**********************************(26D)
002979:
002980: E6,1412                        ESTROKER           ERASE                                          #  B(1)PL
002981: E6,1413                        EKPRIME            ERASE    +1                                    #  B(2)PL
002982: E6,1415                        ETDECAY            ERASE                                          #  I(1)PL
002983: E6,1416                        EKTLX/I            ERASE    +1                                    #  B(2)PL
002984: E6,1420                        ETVCDT/2           ERASE                                          #  B(1)PL
002985: E6,1421                        ETSWITCH           ERASE                                          #  B(1)PL
002986: E6,1422                        ECORFRAC           ERASE                                          #  B(1)PL
002987: E6,1423                        EREPFRAC           ERASE    +1                                    #  B(2)PL
002988: E6,1425                        PACTOFF            ERASE                                          #  B(1)PL, DSP N48 R01 = PTRIM, R02 = YTRIM
002989: E6,1426                        YACTOFF            ERASE                                          #  B(1)PL, CONSECUTIVE WITH PACTOFF
002990: E6,1427                        AP0                ERASE                                          #  B(1)
002991: E6,1430                        AP1                ERASE    +1                                    #  B(2)
002992: E6,1432                        AP2                ERASE    +1                                    #  B(2)
002993: E6,1434                        AP3                ERASE    +1                                    #  B(2)
002994:
002995: E6,1436                        BP1                ERASE    +1                                    #  B(2)
002996: E6,1440                        BP2                ERASE    +1                                    #  B(2)
002997: E6,1442                        BP3                ERASE    +1                                    #  B(2)
002998: E6,1444  E6,1427               AY0                =        AP0
002999: E6,1444  E6,1430               AY1                =        AP1
003000: E6,1444  E6,1432               AY2                =        AP2
003001: E6,1444  E6,1434               AY3                =        AP3
003002:
003003: E6,1444  E6,1436               BY1                =        BP1


003005: E6,1444  E6,1440               BY2                =        BP2
003006: E6,1444  E6,1442               BY3                =        BP3
003007:
003008:                                                                                                  #  ******** EXCLUSIVE TVC DAP VARIABLES. **********************************(5D)
003009:
003010: E6,1444                        V97VCNTR           ERASE                                          #  B(1)
003011: E6,1445                        TEMPDAP            ERASE    +1                                    #  B(2)
003012: E6,1447  E6,1445               MRKRTMP            =        TEMPDAP                               #       ((B(1)))
003013: E6,1447                        CNTR               ERASE                                          #  B(1)
003014: E6,1450                        OGAD               ERASE                                          #  B(1)
003015:
003016:
003017:
003018:                                                                                                  #  ******** EXCLUSIVE RCS DAP VARIABLES. *********************************(13D)
003019:
003020: E6,1451                        RWORD1             ERASE    +12D                                  #  B(1)
003021: E6,1466  E6,1452               RWORD2             EQUALS   RWORD1     +1                         #  B(1)
003022: E6,1466  E6,1453               PWORD1             EQUALS   RWORD2     +1                         #  B(1)
003023: E6,1466  E6,1454               PWORD2             EQUALS   PWORD1     +1                         #  B(1)
003024: E6,1466  E6,1455               YWORD1             EQUALS   PWORD2     +1                         #  B(1)
003025: E6,1466  E6,1456               YWORD2             EQUALS   YWORD1     +1                         #  B(1)
003026: E6,1466  E6,1457               BLAST              EQUALS   YWORD2     +1                         #  B(2)
003027: E6,1466  E6,1461               BLAST1             EQUALS   BLAST      +2                         #  B(2)
003028: E6,1466  E6,1463               BLAST2             EQUALS   BLAST1     +2                         #  B(2)
003029: E6,1466  E6,1465               T5PHASE            EQUALS   BLAST2     +2                         #  B(1)
003030:
003031:
003032:
003033:                                                                                                  #  ******** RCS/TVC DAP COMMON STORAGE.************************************(16D)
003034:
003035: E6,1466                        DAPDATR1           ERASE                                          #  B(1)DSP NOUN 46(R1)
003036: E6,1467                        DAPDATR2           ERASE                                          #  B(1)DSP NOUN 46(R2)
003037:
003038: E6,1470                        IXX                ERASE                                          #  B(1) CONSECUTIVE WITH IAVG, IAVG/TLX FOR
003039: E6,1471                        IAVG               ERASE                                          #  B(1)                            MASSPROP
003040: E6,1472                        IAVG/TLX           ERASE                                          #  B(1)
003041:
003042: E6,1473                        LEMMASS            ERASE    +1                                    #  B(1) DSP NOUN 47 (R2)       LEM/CSMMASS
003043: E6,1475  E6,1474               CSMMASS            EQUALS   LEMMASS    +1                         #  B(1) DSP NOUN 47 (R1)       FOR DOWNLINK
003044: E6,1475                        WEIGHT/G           ERASE                                          #  B(1)
003045: E6,1476  E6,1475               MASS               =        WEIGHT/G
003046:
003047: E6,1476                        AK                 ERASE
003048: E6,1477                        AK1                ERASE
003049: E6,1500                        AK2                ERASE
003050:
003051: E6,1501                        RCSFLAGS           ERASE                                          #  B(1) CONSECUTIVE WITHAK2 DOWNLINK
003052: E6,1502                        T5TEMP             ERASE                                          #  B(1)
003053: E6,1503                        EDRIVEX            ERASE


003055: E6,1504                        EDRIVEY            ERASE
003056: E6,1505                        EDRIVEZ            ERASE
003057:
003058:
003059:                                                                                                  #           INTEMP THRU INTEMP+14D  ARE RESERVED FOR OVERLAYED TVC/RCS INTERUP TRUE TEMPORIES
003060: E6,1506                        INTTEMP            ERASE    +14D                                  #   (15)
003061:
003062:
003063:                                                                                                  #           TVC/RCS THRU TVCRCS +11D RESERVED FOR DOWNLINKED VARIABLES
003064:
003065: E6,1525                        TVCRCS             ERASE    +11D                                  #  (12)
003066:                                                                                                  #  RCS (WBODYS,ADOTS)
003067:                                                                                                  #  TVC(OMEGACS,OMEGABS)
003068:
003069:
003070:                                                                                                  #           TVC DAP TEMPORARY VARIABLES************************************
003071:
003072:                                                                                                  #           TVC DAP INTERUPT TRUE TEMPORARIES******************************
003073:
003074: E6,1541  E6,1506               PHI333             EQUALS   INTTEMP                               #  B(1)     TEMPORARY REGISTER
003075: E6,1541  E6,1507               PSI333             EQUALS   PHI333     +1                         #  B(1)     COUNTING REGISTER
003076: E6,1541  E6,1510               TEMP333            EQUALS   PSI333     +1                         #  B(1)     COUNTING REGISTER
003077: E6,1541  E6,1511               VARST0             EQUALS   TEMP333    +1                         #  B(10D)   BREAKPOINTS AND SLOPES
003078: E6,1541  E6,1516               VARST5             =        VARST0     +5
003079: E6,1541  E6,1522               LASTMASP           EQUALS   VARST0     +9D                        #  LAST VARST0 WORD
003080: E6,1541  E6,1523               TVCTMP1            EQUALS   LASTMASP   +1                         #  B(1)
003081:
003082:
003083:                                                                                                  #           *******REGULAR TVC TEMPORARIES*************
003084:
003085:
003086:                                                                                                  #           TVC ZEROING LOOP STARTS AT OMEGAYC                             (70D)
003087:
003088:
003089: E6,1541  E6,1525               OMEGAC             EQUALS   TVCRCS                                #  I(6)
003090: E6,1541  E6,1525               OMEGAXC            =        OMEGAC
003091: E6,1541  E6,1527               OMEGAYC            =        OMEGAC     +2
003092: E6,1541  E6,1531               OMEGAZC            =        OMEGAC     +4
003093:
003094: E6,1541  E6,1533               OMEGAB             EQUALS   TVCRCS     +6                         #  B(6)
003095: E6,1541  E6,1533               OMEGAXB            =        OMEGAB
003096: E6,1541  E6,1535               OMEGAYB            =        OMEGAB     +2
003097: E6,1541  E6,1537               OMEGAZB            =        OMEGAB     +4
003098:
003099: E6,1541  E6,1541               PNSUM              EQUALS   OMEGAC     +12D                       #  B(2)
003100: E6,1541  E6,1543               PDSUM              EQUALS   PNSUM      +2                         #  B(2)
003101:
003102: E6,1541  E6,1545               B1                 EQUALS   PDSUM      +2                         #  B(1)
003103: E6,1541  E6,1546               B2                 EQUALS   B1         +1                         #  B(1)


003105: E6,1541  E6,1547               B3                 EQUALS   B2         +1                         #  B(1)
003106: E6,1541  E6,1550               B4                 EQUALS   B3         +1                         #  B(1)
003107: E6,1541  E6,1551               B5                 EQUALS   B4         +1                         #  B(1)
003108: E6,1541  E6,1552               B6                 EQUALS   B5         +1                         #  B(1)
003109:
003110: E6,1541  E6,1553               J1                 EQUALS   B6         +1                         #  B(2)
003111: E6,1541  E6,1555               J2                 EQUALS   J1         +2                         #  B(2)
003112: E6,1541  E6,1557               J3                 EQUALS   J2         +2                         #  B(2)
003113: E6,1541  E6,1561               J4                 EQUALS   J3         +2                         #  B(2)
003114: E6,1541  E6,1563               J5                 EQUALS   J4         +2                         #  B(2)
003115:
003116: E6,1541  E6,1565               YNSUM              EQUALS   J5         +2                         #  B(2)
003117: E6,1541  E6,1567               YDSUM              EQUALS   YNSUM      +2                         #  B(2)
003118:
003119: E6,1541  E6,1571               C1                 EQUALS   YDSUM      +2                         #  B(1)
003120: E6,1541  E6,1572               C2                 EQUALS   C1         +1                         #  B(1)
003121: E6,1541  E6,1573               C3                 EQUALS   C2         +1                         #  B(1)
003122: E6,1541  E6,1574               C4                 EQUALS   C3         +1                         #  B(1)
003123: E6,1541  E6,1575               C5                 EQUALS   C4         +1                         #  B(1)
003124: E6,1541  E6,1576               C6                 EQUALS   C5         +1                         #  B(1)
003125:
003126: E6,1541  E6,1577               Y1                 EQUALS   C6         +1                         #  B(2)
003127: E6,1541  E6,1601               Y2                 EQUALS   Y1         +2                         #  B(2)
003128: E6,1541  E6,1603               Y3                 EQUALS   Y2         +2                         #  B(2)
003129: E6,1541  E6,1605               Y4                 EQUALS   Y3         +2                         #  B(2)
003130: E6,1541  E6,1607               Y5                 EQUALS   Y4         +2                         #  B(2)
003131:
003132: E6,1541  E6,1611               ROLLFIRE           EQUALS   Y5         +2                         #  B(1)
003133: E6,1541  E6,1612               ROLLWORD           EQUALS   ROLLFIRE   +1                         #  B(1)
003134: E6,1541  E6,1613               TEMREG             EQUALS   ROLLWORD   +1                         #  B(1)
003135:
003136: E6,1541  E6,1614               STROKER            EQUALS   TEMREG     +1                         #  B(1)
003137:
003138: E6,1541  E6,1615               PERRB              EQUALS   STROKER    +1                         #  B(2)
003139: E6,1541  E6,1617               YERRB              EQUALS   PERRB      +2                         #  B(2)
003140:
003141: E6,1541  E6,1621               DELPBAR            EQUALS   YERRB      +2                         #  B(2)
003142: E6,1541  E6,1623               DELYBAR            EQUALS   DELPBAR    +2                         #  B(2)
003143:
003144: E6,1541  E6,1625               PDELOFF            EQUALS   DELYBAR    +2                         #  B(2)
003145: E6,1541  E6,1627               YDELOFF            EQUALS   PDELOFF    +2                         #  B(2)
003146:
003147:                                                                                                  #           TVC ZEROING LOOP ENDS HERE
003148:
003149:
003150: E6,1541  E6,1631               PCMD               EQUALS   YDELOFF    +2                         #  B(1)
003151: E6,1541  E6,1632               YCMD               EQUALS   PCMD       +1                         #  B(1), CONSECUTIVE WITH PCMD
003152: E6,1541  E6,1633               TACTOFF            EQUALS   YCMD       +1                         #  B(2)
003153: E6,1541  E6,1635               T5TVCDT            EQUALS   TACTOFF    +2                         #  B(1)
003154: E6,1541  E6,1636               MDT                EQUALS   T5TVCDT    +1                         #  I(6)


003156: E6,1541  E6,1644               KPRIMEDT           EQUALS   MDT        +6                         #  I(2)
003157: E6,1541  E6,1646               KTLX/I             EQUALS   KPRIMEDT   +2                         #  B(1)
003158: E6,1541  E6,1647               TENMDOT            EQUALS   KTLX/I     +1                         #  B(1)
003159: E6,1541  E6,1650               1/CONACC           EQUALS   TENMDOT    +1                         #  B(1)
003160: E6,1541  E6,1651               VARK               EQUALS   1/CONACC   +1                         #  B(1)
003161: E6,1541  E6,1652               REPFRAC            EQUALS   VARK       +1                         #  B(1)
003162: E6,1541  E6,1653               VCNTR              EQUALS   REPFRAC    +1                         #  B(1)
003163: E6,1541  E6,1654               TVCPHASE           EQUALS   VCNTR      +1                         #  B(1)
003164: E6,1541  E6,1655               PCDUYPST           EQUALS   TVCPHASE   +1                         #  B(1)
003165: E6,1541  E6,1656               PCDUZPST           EQUALS   PCDUYPST   +1                         #  B(1)
003166: E6,1541  E6,1657               MCDUYDOT           EQUALS   PCDUZPST   +1                         #  B(1)
003167: E6,1541  E6,1660               MCDUZDOT           EQUALS   MCDUYDOT   +1                         #  B(1)
003168: E6,1541  E6,1661               TVCEXPHS           EQUALS   MCDUZDOT   +1                         #  B(1)
003169: E6,1541  E6,1662               MASSTMP            EQUALS   TVCEXPHS   +1                         #  B(1)     PROTECT
003170: E6,1541  E6,1663               VCNTRTMP           EQUALS   MASSTMP    +1                         #  B(1)       *PROTECT***
003171:
003172:                                                                                                  #           STROKE TEST VARIABLES
003173:
003174:                                                                                                  #  (6D)
003175: E6,1541  E6,1664               STRKTIME           EQUALS   VCNTRTMP   +1                         #  B(1)
003176: E6,1541  E6,1665               CADDY              EQUALS   STRKTIME   +1                         #  B(1)
003177: E6,1541  E6,1666               N                  EQUALS   CADDY      +1                         #  B(1)
003178: E6,1541  E6,1667               BUNKER             EQUALS   N          +1                         #  B(1)
003179: E6,1541  E6,1670               REVS               EQUALS   BUNKER     +1                         #  B(1)
003180: E6,1541  E6,1671               CARD               EQUALS   REVS       +1                         #  B(1)
003181:
003182:                                                                                                  #           TVC ROLL DAP VARIABLES
003183:
003184:                                                                                                  #  (8D)
003185: E6,1541  E6,1672               OGANOW             EQUALS   CARD       +1                         #  B(1)
003186: E6,1541  E6,1673               OGAPAST            EQUALS   OGANOW     +1                         #  B(1)
003187: E6,1541  E6,1674               OGA                EQUALS   OGAPAST    +1                         #  B(1)TMP
003188: E6,1541  E6,1674               OGAERR             =        OGA                                   #  (ROLL DAP USES OGA, MEANS OGAERROR)
003189: E6,1541  E6,1675               DELOGART           EQUALS   OGA        +1                         #  B(1)TMP
003190: E6,1541  E6,1676               SGNRT              EQUALS   DELOGART   +1                         #  SIGN OF OGA RATE
003191: E6,1541  E6,1677               DELOGA             EQUALS   SGNRT      +1                         #  USED IN ROLL LOGIC
003192: E6,1541  E6,1700               I                  EQUALS   DELOGA     +1                         #  USED IN ROLL LOGIC
003193: E6,1541  E6,1701               IOGARATE           EQUALS   I          +1                         #  USED IN ROLL LOGIC
003194:
003195:                                                                                                  #           TVC DAP RESTART TEMPORARIES.                                   (33D)
003196:
003197: E6,1541  E6,1702               TKTLX/I            EQUALS   IOGARATE   +1                         #  B(1)
003198: E6,1541  E6,1703               PACTTMP            EQUALS   TKTLX/I    +1                         #  B(2)
003199: E6,1541  E6,1705               YACTTMP            EQUALS   PACTTMP    +2                         #  B(2)
003200: E6,1541  E6,1707               CNTRTMP            EQUALS   YACTTMP    +2                         #  B(1)
003201: E6,1541  E6,1710               STRKTTMP           EQUALS   CNTRTMP    +1                         #  B(1)
003202: E6,1541  E6,1711               NSUMTMP            EQUALS   STRKTTMP   +1                         #  B(2)
003203: E6,1541  E6,1713               DSUMTMP            EQUALS   NSUMTMP    +2                         #  B(2)
003204: E6,1541  E6,1715               DELBRTMP           EQUALS   DSUMTMP    +2                         #  B(2)


003206: E6,1541  E6,1717               B1TMP              EQUALS   DELBRTMP   +2                         #  B(1)
003207: E6,1541  E6,1720               B2TMP              EQUALS   B1TMP      +1                         #  B(1)
003208: E6,1541  E6,1721               B3TMP              EQUALS   B2TMP      +1                         #  B(1)
003209: E6,1541  E6,1722               B4TMP              EQUALS   B3TMP      +1                         #  B(1)
003210: E6,1541  E6,1723               B5TMP              EQUALS   B4TMP      +1                         #  B(1)
003211: E6,1541  E6,1724               B6TMP              EQUALS   B5TMP      +1                         #  B(1)
003212: E6,1541  E6,1725               B7TMP              EQUALS   B6TMP      +1                         #  B(1)
003213:
003214: E6,1541  E6,1726               J1TMP              EQUALS   B7TMP      +1                         #  B(2)
003215: E6,1541  E6,1730               J2TMP              EQUALS   J1TMP      +2                         #  B(2)
003216: E6,1541  E6,1732               J3TMP              EQUALS   J2TMP      +2                         #  B(2)
003217: E6,1541  E6,1734               J4TMP              EQUALS   J3TMP      +2                         #  B(2)
003218: E6,1541  E6,1736               J5TMP              EQUALS   J4TMP      +2                         #  B(2)
003219: E6,1541  E6,1740               J6TMP              EQUALS   J5TMP      +2                         #  B(2)
003220: E6,1541  E6,1742               ERRBTMP            EQUALS   J6TMP      +2                         #  B(2)
003221: E6,1541  E6,1744               CMDTMP             EQUALS   ERRBTMP    +2                         #  B(2)
003222:
003223:                                                                                                  #           OVERLAYS WITHIN TVC DAP
003224:
003225: E6,1541  E6,1533               OGARATE            =        OMEGAB                                #  B(2)
003226:
003227: E6,1541  E6,1742               BZERO              =        ERRBTMP
003228: E6,1541  E6,1742               CZERO              =        ERRBTMP
003229: E6,1541  E6,1744               JZERO              =        CMDTMP
003230: E6,1541  E6,1744               YZERO              =        CMDTMP
003231: E6,1541  E6,1651               KPGEN3             =        VARK
003232: E6,1541  E6,1651               KYGEN3             =        KPGEN3
003233:
003234: E6,1541  E6,1742               EP                 =        ERRBTMP
003235: E6,1541  E6,1744               NPD                =        CMDTMP
003236: E6,1541  E6,1561               NP0                EQUALS   J4                                    #      (B(2))
003237: E6,1541  E6,1563               NP1                EQUALS   J5                                    #      (B(2))
003238: E6,1541  E6,1541               NP2                EQUALS   PNSUM                                 #      (B(2))
003239: E6,1541  E6,1543               NP3                EQUALS   PDSUM                                 #      (B(2))
003240:
003241: E6,1541  E6,1736               NP1TMP             EQUALS   J5TMP                                 #      (B(2))
003242: E6,1541  E6,1711               NP2TMP             EQUALS   NSUMTMP                               #      (B(2))
003243: E6,1541  E6,1713               NP3TMP             EQUALS   DSUMTMP                               #      (B(2))
003244:
003245: E6,1541  E6,1742               EY                 =        ERRBTMP
003246: E6,1541  E6,1744               NYD                =        CMDTMP
003247: E6,1541  E6,1605               NY0                EQUALS   Y4                                    #      (B(2))
003248: E6,1541  E6,1607               NY1                EQUALS   Y5                                    #      (B(2))
003249: E6,1541  E6,1565               NY2                EQUALS   YNSUM                                 #      (B(2))
003250: E6,1541  E6,1567               NY3                EQUALS   YDSUM                                 #      (B(2))
003251:
003252: E6,1541  E6,1736               NY1TMP             EQUALS   Y5TMP                                 #      (B(2))
003253: E6,1541  E6,1711               NY2TMP             EQUALS   NSUMTMP                               #      (B(2))
003254: E6,1541  E6,1713               NY3TMP             EQUALS   DSUMTMP                               #      (B(2))
003255:


003257: E6,1541  E6,1717               C1TMP              =        B1TMP                                 #      (B(1))
003258: E6,1541  E6,1720               C2TMP              =        B2TMP                                 #      (B(1))
003259: E6,1541  E6,1721               C3TMP              =        B3TMP                                 #      (B(1))
003260: E6,1541  E6,1722               C4TMP              =        B4TMP                                 #      (B(1))
003261: E6,1541  E6,1723               C5TMP              =        B5TMP                                 #      (B(1))
003262: E6,1541  E6,1724               C6TMP              =        B6TMP                                 #      (B(1))
003263: E6,1541  E6,1725               C7TMP              =        B7TMP                                 #      (B(1))
003264:
003265: E6,1541  E6,1726               Y1TMP              =        J1TMP                                 #      (B(2))
003266: E6,1541  E6,1730               Y2TMP              =        J2TMP                                 #      (B(2))
003267: E6,1541  E6,1732               Y3TMP              =        J3TMP                                 #      (B(2))
003268: E6,1541  E6,1734               Y4TMP              =        J4TMP                                 #      (B(2))
003269: E6,1541  E6,1736               Y5TMP              =        J5TMP                                 #      (B(2))
003270: E6,1541  E6,1740               Y6TMP              =        J6TMP                                 #      (B(2))
003271:
003272:
003273:                                                                                                  #           S40.9 STORAGE..........
003274:
003275: E6,1541  E6,1746               NBRCYCLS           EQUALS   CMDTMP     +2                         #  B(1)     COUNTER FOR P40,41 STEERING
003276: E6,1541  E6,1747               NBRCYCLP           EQUALS   NBRCYCLS   +1                         #  B(1) MAINTAIN ORDER
003277: E6,1541  E6,1750               DELVSUM            EQUALS   NBRCYCLP   +1                         #  I(6)  P40,P41
003278: E6,1541  E6,1756               DELVSUMP           EQUALS   DELVSUM    +6                         #  I(6)  P40,P41
003279:


003281:
003282:                                                                                                  #  ******** RCS DAP TEMPORARY VARIABLES. ***********************************(95D)
003283:
003284:                                                                                                  #           **RCS INTERUPT TRUE TEMPS*************************              15D
003285:
003286: E6,1541  E6,1506               SPNDX              EQUALS   INTTEMP                               #  B(1)
003287: E6,1541  E6,1507               DPNDX              EQUALS   SPNDX      +1                         #  B(1)TMP
003288: E6,1541  E6,1510               KMPAC              EQUALS   DPNDX      +1                         #  B(2)TMP
003289: E6,1541  E6,1512               KMPTEMP            EQUALS   KMPAC      +2                         #  B(1)TMP
003290:
003291: E6,1541  E6,1513               XNDX1              EQUALS   KMPTEMP    +1                         #  B(1)TMP  XNDX1 THRU NYJETS ARE OVERLAYED
003292: E6,1541  E6,1514               XNDX2              EQUALS   XNDX1      +1                         #  B(1)TMP  BY OTHER DAP ERASABLES SO
003293: E6,1541  E6,1515               YNDX               EQUALS   XNDX2      +1                         #  B(1)TMP  SHOULD ALWAYS BE DEFINED IN
003294: E6,1541  E6,1516               ZNDX               EQUALS   YNDX       +1                         #  B(1)TMP  A BLOCK
003295: E6,1541  E6,1517               RINDEX             EQUALS   ZNDX       +1                         #  B(1)TMP
003296: E6,1541  E6,1520               PINDEX             EQUALS   RINDEX     +1                         #  B(1)TMP
003297: E6,1541  E6,1521               YINDEX             EQUALS   PINDEX     +1                         #  B(1)TMP
003298: E6,1541  E6,1522               NRJETS             EQUALS   YINDEX     +1                         #  B(1)TMP
003299: E6,1541  E6,1523               NPJETS             EQUALS   NRJETS     +1                         #  B(1)TMP
003300: E6,1541  E6,1524               NYJETS             EQUALS   NPJETS     +1                         #  B(1)TMP
003301:
003302: E6,1541  E6,1513               WTEMP              EQUALS   XNDX1                                 #  B(2)TMP   WTEMP THRU DELTEMPZ OVERLAY
003303: E6,1541  E6,1515               DELTEMPX           EQUALS   WTEMP      +2                         #  B(2)TMP   XNDX1 THRU NRJETS AND EDOT THRU
003304: E6,1541  E6,1517               DELTEMPY           EQUALS   DELTEMPX   +2                         #  B(2)TMP   ADBVEL
003305: E6,1541  E6,1521               DELTEMPZ           EQUALS   DELTEMPY   +2                         #  B(2)TMP
003306:
003307: E6,1541  E6,1515               EDOT               EQUALS   YNDX                                  #  B(2)TMP   EDOT THRU ADBVEL OVERLAY
003308: E6,1541  E6,1517               AERR               EQUALS   EDOT       +2                         #  B(1)TMP   YNDX THRU NPJETS AND DELTEMPX
003309: E6,1541  E6,1520               EDOTVEL            EQUALS   AERR       +1                         #  B(2)TMP    THRU DELTEMPZ
003310: E6,1541  E6,1522               AERRVEL            EQUALS   EDOTVEL    +2                         #  B(1)TMP
003311: E6,1541  E6,1523               ADBVEL             EQUALS   AERRVEL    +1                         #  B(1)TMP
003312:
003313:                                                                                                  #           *** REGULAR RCS TEMPS*****************************             (   ).
003314:
003315:                                                                                                  #             RCS ZEROING LOOP STARTS HERE****  ** **  **  ***   *** * *   (37)
003316:
003317: E6,1541  E6,1525               WBODY              EQUALS   TVCRCS                                #  B(2)TMP
003318: E6,1541  E6,1527               WBODY1             EQUALS   WBODY      +2                         #  B(2)TMP
003319: E6,1541  E6,1531               WBODY2             EQUALS   WBODY      +4                         #  B(2)TMP
003320: E6,1541  E6,1533               ADOT               EQUALS   WBODY2     +2                         #  B(2)TMP
003321: E6,1541  E6,1535               ADOT1              EQUALS   ADOT       +2                         #  B(2)TMP
003322: E6,1541  E6,1537               ADOT2              EQUALS   ADOT1      +2                         #  B(2)TMP
003323:
003324: E6,1541  E6,1541               MERRORX            EQUALS   ADOT2      +2                         #   (2)
003325: E6,1541  E6,1543               MERRORY            EQUALS   MERRORX    +2                         #   (2)
003326: E6,1541  E6,1545               MERRORZ            EQUALS   MERRORY    +2                         #   (2)
003327: E6,1541  E6,1547               DFT                EQUALS   MERRORZ    +2                         #         B(1)TMP
003328: E6,1541  E6,1550               DFT1               EQUALS   DFT        +1                         #  B(1)TMP
003329: E6,1541  E6,1551               DFT2               EQUALS   DFT1       +1                         #  B(1)TMP
003330: E6,1541  E6,1552               DRHO               EQUALS   DFT2       +1                         #  B(2)TMP
003331: E6,1541  E6,1554               DRHO1              EQUALS   DRHO       +2                         #  B(2)TMP


003333: E6,1541  E6,1556               DRHO2              EQUALS   DRHO1      +2                         #  B(2)TMP
003334: E6,1541  E6,1560               ATTSEC             EQUALS   DRHO2      +2                         #  B(1)TMP
003335: E6,1541  E6,1561               TAU                EQUALS   ATTSEC     +1                         #  B(1)TMP
003336: E6,1541  E6,1562               TAU1               EQUALS   TAU        +1                         #  B(1)TMP
003337: E6,1541  E6,1563               TAU2               EQUALS   TAU1       +1                         #  B(1)TMP
003338: E6,1541  E6,1564               BIAS               EQUALS   TAU2       +1                         #  B(1)TMP
003339: E6,1541  E6,1565               BIAS1              EQUALS   BIAS       +1                         #  B(1)TMP
003340: E6,1541  E6,1566               BIAS2              EQUALS   BIAS1      +1                         #  B(1)TMP
003341: E6,1541  E6,1567               ERRORX             EQUALS   BIAS2      +1                         #  B(1)TMP
003342: E6,1541  E6,1570               ERRORY             EQUALS   ERRORX     +1                         #  B(1)TMP
003343: E6,1541  E6,1571               ERRORZ             EQUALS   ERRORY     +1                         #  B(1)TMP
003344:
003345:
003346:
003347:                                                                                                  #           RCS ZERO LOOP ENDS HERE
003348:
003349:
003350:                                                                                                  #                MORE RCS                                                  (69D)
003351:
003352:
003353: E6,1541  E6,1572               THETADX            EQUALS   ERRORZ     +1                         #  B(1)TMP  MUST BE CONSECUTIVE WITH ERRORZ
003354: E6,1541  E6,1573               THETADY            EQUALS   THETADX    +1                         #  B(1)TMP
003355: E6,1541  E6,1574               THETADZ            EQUALS   THETADY    +1                         #  B(1)TMP
003356:
003357: E6,1541  E6,1575               DELCDUX            EQUALS   THETADZ    +1                         #  B(2)TMP
003358: E6,1541  E6,1577               DELCDUY            EQUALS   DELCDUX    +2                         #  B(2)TMP
003359: E6,1541  E6,1601               DELCDUZ            EQUALS   DELCDUY    +2                         #  B(2)TMP
003360:
003361: E6,1541  E6,1603               DCDU               EQUALS   DELCDUZ    +2                         #  B(6)TMP USED DURING P20
003362: E6,1541  E6,1611               DTHETASM           EQUALS   DCDU       +6                         #  B(6)TMP STEER LOW OUTPUT.
003363:
003364: E6,1541  E6,1617               ATTKALMN           EQUALS   DTHETASM   +6                         #  B(1)TMP
003365: E6,1541  E6,1620               KMJ                EQUALS   ATTKALMN   +1                         #  B(1)TMP
003366: E6,1541  E6,1621               KMJ1               EQUALS   KMJ        +1                         #  B(1)TMP
003367: E6,1541  E6,1622               KMJ2               EQUALS   KMJ1       +1                         #  B(1)TMP
003368: E6,1541  E6,1623               J/M                EQUALS   KMJ2       +1                         #  B(1)TMP
003369: E6,1541  E6,1624               J/M1               EQUALS   J/M        +1                         #  B(1)TMP
003370: E6,1541  E6,1625               J/M2               EQUALS   J/M1       +1                         #  B(1)TMP
003371: E6,1541  E6,1626               RACFAIL            EQUALS   J/M2       +1                         #  B(1)TMP
003372: E6,1541  E6,1627               RBDFAIL            EQUALS   RACFAIL    +1                         #  B(1)TMP
003373: E6,1541  E6,1630               ACORBD             EQUALS   RBDFAIL    +1                         #  B(1)TMP
003374: E6,1541  E6,1631               XTRANS             EQUALS   ACORBD     +1                         #  B(1)TMP
003375: E6,1541  E6,1632               CH31TEMP           EQUALS   XTRANS     +1                         #  B(1)TMP
003376: E6,1541  E6,1633               CHANTEMP           EQUALS   CH31TEMP   +1                         #  B(1)TMP
003377: E6,1541  E6,1634               T5TIME             EQUALS   CHANTEMP   +1                         #  B(1)TMP
003378: E6,1541  E6,1635               RHO                EQUALS   T5TIME     +1                         #  B(1)TMP
003379: E6,1541  E6,1636               RHO1               EQUALS   RHO        +1                         #  B(1)TMP
003380: E6,1541  E6,1637               RHO2               EQUALS   RHO1       +1                         #  B(1)TMP
003381: E6,1541  E6,1640               AMGB1              EQUALS   RHO2       +1                         #  B(1)TMP
003382: E6,1541  E6,1641               AMGB4              EQUALS   AMGB1      +1                         #  B(1)TMP


003384: E6,1541  E6,1642               AMGB5              EQUALS   AMGB4      +1                         #  B(1)TMP
003385: E6,1541  E6,1643               AMGB7              EQUALS   AMGB5      +1                         #  B(1)TMP
003386: E6,1541  E6,1644               AMGB8              EQUALS   AMGB7      +1                         #  B(1)TMP
003387: E6,1541  E6,1645               CAPSI              EQUALS   AMGB8      +1                         #  B(1)TMP
003388: E6,1541  E6,1646               CDUXD              EQUALS   CAPSI      +1                         #  B(2)TMP
003389: E6,1541  E6,1650               CDUYD              EQUALS   CDUXD      +2                         #  B(2)TMP
003390: E6,1541  E6,1652               CDUZD              EQUALS   CDUYD      +2                         #  B(2)TMP
003391: E6,1541  E6,1654               SLOPE              EQUALS   CDUZD      +2                         #  B(1)TMP
003392: E6,1541  E6,1655               ADB                EQUALS   SLOPE      +1                         #  B(1)TMP
003393: E6,1541  E6,1656               RMANNDX            EQUALS   ADB        +1                         #  B(1)TMP
003394: E6,1541  E6,1657               PMANNDX            EQUALS   RMANNDX    +1                         #  B(1)TMP
003395: E6,1541  E6,1660               YMANNDX            EQUALS   PMANNDX    +1                         #  B(1)TMP  MUST BE LAST VARIABLE IN RCS
003396:


003398:
003399:                                                                                                  #  ******** ENTRY DAP TEMPORARY VARIABLES.*********************************(69D)
003400:
003401:                                                                                                  #   ANGLE REGISTERS FOR ENTRY DAPS
003402:
003403: E6,1541  E6,1661               AOG                EQUALS   BCDU                                  #  1P
003404: E6,1541  E6,1662               AIG                EQUALS   AOG        +1                         #  1P
003405: E6,1541  E6,1663               AMG                EQUALS   AIG        +1                         #  1P
003406: E6,1541  E6,1664               ROLL/180           EQUALS   AMG        +1                         #  1P
003407: E6,1541  E6,1665               ALFA/180           EQUALS   ROLL/180   +1                         #  1P
003408: E6,1541  E6,1666               BETA/180           EQUALS   ALFA/180   +1                         #  1P
003409: E6,1541  E6,1667               AOG/PIP            EQUALS   BETA/180   +1                         #  1P
003410: E6,1541  E6,1670               AIG/PIP            EQUALS   AOG/PIP    +1                         #  1P
003411: E6,1541  E6,1671               AMG/PIP            EQUALS   AIG/PIP    +1                         #  1P
003412: E6,1541  E6,1672               ROLL/PIP           EQUALS   AMG/PIP    +1                         #  1P
003413: E6,1541  E6,1673               ALFA/PIP           EQUALS   ROLL/PIP   +1                         #  1P
003414: E6,1541  E6,1674               BETA/PIP           EQUALS   ALFA/PIP   +1                         #  1P
003415:
003416:                                                                                                  #  GYMBAL DIFFERENCES OVER INTERVAL TCDU = .1 SEC.
003417:
003418: E6,1541  E6,1675               -DELAOG            EQUALS   BETA/PIP   +1                         #  1P
003419: E6,1541  E6,1676               -DELAIG            EQUALS   -DELAOG    +1                         #  1P
003420: E6,1541  E6,1677               -DELAMG            EQUALS   -DELAIG    +1                         #  1P
003421:
003422:                                                                                                  #  ESTIMATED BODY RATES
003423:
003424: E6,1541  E6,1700               CMDAPMOD           EQUALS   -DELAMG    +1                         #  1P  GOES BEFORE PREL FOR TM.
003425:
003426: E6,1541  E6,1701               PREL               EQUALS   CMDAPMOD   +1                         #  1P   P TCDU/180      (ROLLDOT)
003427: E6,1541  E6,1702               QREL               EQUALS   PREL       +1                         #  1P   Q TCDU/180     (PITCHDOT)
003428: E6,1541  E6,1703               RREL               EQUALS   QREL       +1                         #  1P   R TCDU/180     (YAWDOT)
003429:
003430: E6,1541  E6,1704               BETADOT            EQUALS   RREL       +1                         #  1P  MUST FOLLOW RREL. BETADOT TCDU/180
003431: E6,1541  E6,1705               PHIDOT             EQUALS   BETADOT    +1                         #  1P
003432:
003433:                                                                                                  #  OLD (UNAVERAGED) BODY RATE MEASURE
003434:
003435: E6,1541  E6,1706               OLDELP             EQUALS   PHIDOT     +1                         #  1P
003436: E6,1541  E6,1707               OLDELQ             EQUALS   OLDELP     +1                         #  1P
003437: E6,1541  E6,1710               OLDELR             EQUALS   OLDELQ     +1                         #  1P
003438:
003439: E6,1541  E6,1711               JETAG              EQUALS   OLDELR     +1                         #  1P
003440: E6,1541  E6,1712               TUSED              EQUALS   JETAG      +1                         #  1P   ELAPSED TIME SINCE NOMINAL UPDATE.
003441:
003442:
003443:                                                                                                  #           FOLLOWING 3 SP WORDS IN DOWNLINK.  ROLLTM SENT EACH 1 SEC.
003444:
003445: E6,1541  E6,1713               PAXERR1            EQUALS   TUSED      +1                         #  1P   INTEGRATED ROLL ERROR/360.
003446: E6,1541  E6,1714               ROLLTM             EQUALS   PAXERR1    +1                         #  1P   ROLL/180 FOR TM.
003447: E6,1541  E6,1715               ROLLC              EQUALS   ROLLTM     +1                         #  2P   ROLLCOM/360 FROM ENTRY (FOR TM)
003448:                                                                                                  #                                          >> KEEP ROLLC & ROLLHOLD ADJACENT FOR TP


003450: E6,1541  E6,1717               ROLLHOLD           EQUALS   ROLLC      +2                         #  1P FOR ATTITUDE HOLD IN CMDAPMOD = +1
003451:
003452:
003453:                                                                                                  #           ENTRY DAP QUANTITIES THAT SHARE WITH RCS DAP.
003454:
003455: E6,1541  E6,1603               ALFACOM            EQUALS   DCDU                                  #  1P  KEEP ADJACENT TO BETACOM.  <<
003456: E6,1541  E6,1604               BETACOM            EQUALS   ALFACOM    +1                         #  1P
003457:
003458:                                                                                                  #  JET LIST:    DT, JETBITS  IN THIS ORDER.
003459:
003460: E6,1541  E6,1605               TOFF               EQUALS   BETACOM    +1                         #  1P   DP PAIR
003461: E6,1541  E6,1606               TBITS              EQUALS   TOFF       +1                         #  1P
003462: E6,1541  E6,1607               TON2               EQUALS   TBITS      +1                         #  1P   DP PAIR
003463: E6,1541  E6,1610               T2BITS             EQUALS   TON2       +1                         #  1P
003464:
003465:                                                                                                  #   MISCELLANEOUS PERMANENT ERASEABLE.
003466:
003467: E6,1541  E6,1611               OUTTAG             EQUALS   T2BITS     +1                         #  1P
003468: E6,1541  E6,1612               NUJET              EQUALS   OUTTAG     +1                         #  1P
003469:                                                                                                  #     MORE ENTRY DAP QUANTITIES THAT DO NOT SHARE WITH RCS DAP.
003470:
003471: E6,1541  E6,1720               JETEM              EQUALS   ROLLHOLD   +1                         #  2P  THIS DP USED IN RATEAVG.
003472: E6,1541  E6,1722               GAMA               EQUALS   JETEM      +2                         #  1P
003473: E6,1541  E6,1723               GAMDOT             EQUALS   GAMA       +1                         #  1P
003474: E6,1541  E6,1724               POSEXIT            EQUALS   GAMDOT     +1                         #  1P
003475: E6,1541  E6,1725               CM/GYMDT           EQUALS   POSEXIT    +1                         #  1P
003476: E6,1541  E6,1726               HEADSUP            EQUALS   CM/GYMDT   +1                         #  1P  DSP NOUN 61 FOR P62,63,64,67.
003477: E6,1541  E6,1727               P63FLAG            EQUALS   HEADSUP    +1                         #  1P  INTERLOCK FOR WAKEP62
003478:
003479:
003480:                                                                                                  #                                                                   >> SHARE BELOW WITH RCS RUPT TEMPS (< 15D) <<<
003481: E6,1541  E6,1506               CALFA              EQUALS   SPNDX                                 #  1P
003482: E6,1541  E6,1507               SALFA              EQUALS   CALFA      +1                         #  1P
003483:
003484: E6,1541  E6,1510               SINM               EQUALS   SALFA      +1                         #  1P
003485: E6,1541  E6,1511               COSM               EQUALS   SINM       +1                         #  1P
003486: E6,1541  E6,1512               SINO               EQUALS   COSM       +1                         #  1P
003487: E6,1541  E6,1513               COSO               EQUALS   SINO       +1                         #  1P
003488: E6,1541  E6,1514               SINOCOSM           EQUALS   COSO       +1                         #  1P
003489: E6,1541  E6,1515               COSOCOSM           EQUALS   SINOCOSM   +1                         #  1P
003490:                                                                                                  #                                                                   >> SHARE ABOVE WITH RCS RUPT TEMPS          <<<
003491:
003492:                                                                                                  #           THE FOLLOWING FEW REGISTERS USED ONCE EACH 2 SEC.
003493:
003494: E6,1541  E6,1613               -VT/180            EQUALS   NUJET      +1                         #  1P
003495: E6,1541  E6,1614               LCX/360            EQUALS   -VT/180    +1                         #  1P
003496: E6,1541  E6,1615               XD/360             EQUALS   LCX/360    +1                         #  1P
003497: E6,1541  E6,1616               VSQ/4API           EQUALS   XD/360     +1                         #  1P
003498: E6,1541  E6,1617               JNDX               EQUALS   VSQ/4API   +1                         #  1P
003499: E6,1541  E6,1620               JNDX1              EQUALS   JNDX       +1                         #  1P


003501: E6,1541  E6,1621               TON1               EQUALS   JNDX1      +1                         #  1P   DP PAIR
003502: E6,1541  E6,1622               T1BITS             EQUALS   TON1       +1                         #  1P
003503:
003504:                                                                                                  #           MISCELLANEOUS REGISTERS USED EACH UPDATE.
003505:
003506: E6,1541  E6,1623               CM/SAVE            EQUALS   T1BITS     +1                         #  1P
003507: E6,1541  E6,1624               JETEM2             EQUALS   CM/SAVE    +1                         #  1P  TEMPORARY STORAGE
003508:
003509:                                                                                                  #           DAP   QUANTITIES SHARED WITH RCS DAP FOR TM & FLIGHT RECORDER.
003510:
003511: E6,1541  E6,1567               VDT/180            =        ERRORX                                #  1P   (EDIT)
003512: E6,1541  E6,1570               -VT/180E           =        ERRORY                                #  1P   (EDIT)
003513:
003514: E6,1541  E6,1476               PAXERR             EQUALS   AK                                    #  1P  ROLL ERROR FOR NEEDLES
003515: E6,1541  E6,1572               QAXERR             =        THETADX                               #  1P  SINCE AK1 IS ZEROED IN ATM DAP.
003516: E6,1541  E6,1573               RAXERR             =        QAXERR     +1                         #  1P  SINCE AK2 IS ZEROED IN TM DAP.
003517:
003518:
003519:
003520:                                                                                                  #        **** COLMANU (R60,R62) ****
003521:
003522: E6,1541  E6,1710               VECQTEMP           EQUALS   COFSKEW
003523:


003525:
003526:                                                                                                  #  ******** KALCMANU VARIABLES. (71D) *************************************
003527: E6,1541  E6,1661               BCDU               EQUALS   YMANNDX    +1                         #  B(3) TMP
003528: E6,1541  E6,1664               KSPNDX             EQUALS   BCDU       +3                         #  B(1)TMP
003529: E6,1541  E6,1665               KDPNDX             EQUALS   KSPNDX     +1                         #  B(1)TMP
003530:
003531: E6,1541  E6,1666               TMIS               EQUALS   KDPNDX     +1                         #  I(18) MUST BE IN SAME BANK AS RCS DAP
003532: E6,1541  E6,1710               COFSKEW            EQUALS   TMIS       +18D                       #  I(6)  MUST BE IN SAME BANK AS RCS DAP
003533: E6,1541  E6,1716               CAM                EQUALS   COFSKEW    +6                         #  I(2)  MUST BE IN SAME BANK AS RCS DAP
003534:
003535: E6,1541  E6,1720               MIS                EQUALS   CAM        +2                         #  I(18)  (THE REST MAY GO ANYWHERE)
003536: E6,1541  E6,1742               COF                EQUALS   MIS        +18D                       #  I(6)TMP
003537: E6,1541  E6,1750               SCAXIS             EQUALS   COF        +6                         #  I(6)TMP
003538: E6,1541  E6,1756               POINTVSM           EQUALS   SCAXIS     +6                         #  I(6)TMP
003539: E6,1541  E6,1764               AM                 EQUALS   POINTVSM   +6                         #  I(2)TMP
003540: E6,1541  E6,1766               RAD                EQUALS   AM         +2                         #  I(2)TMP
003541:
003542:
003543:                                                                                                  #  FIRST-ORDER OVERLAYS IN KALCMANU
003544:
003545: E6,1541  E6,1666               KV1                EQUALS   TMIS                                  #  I(6)TMP
003546: E6,1541  E6,1666               MFISYM             EQUALS   TMIS                                  #  I   TMP
003547: E6,1541  E6,1666               TMFI               EQUALS   TMIS                                  #  I   TMP
003548: E6,1541  E6,1666               NCDU               EQUALS   TMIS                                  #  B   TMP
003549: E6,1541  E6,1671               NEXTIME            EQUALS   TMIS       +3                         #  B   TMP
003550: E6,1541  E6,1672               TTEMP              EQUALS   TMIS       +4                         #  B   TMP
003551: E6,1541  E6,1674               KV2                EQUALS   TMIS       +6                         #  I(6)TMP
003552: E6,1541  E6,1674               BIASTEMP           EQUALS   TMIS       +6                         #  B   TMP
003553: E6,1541  E6,1702               KV3                EQUALS   TMIS       +12D                       #  I(6)TMP
003554: E6,1541  E6,1702               CGF                EQUALS   TMIS       +12D                       #  I   TMP
003555:
003556: E6,1541  E6,1710               BRATE              EQUALS   COFSKEW                               #  B   TMP
003557: E6,1541  E6,1716               TM                 EQUALS   CAM                                   #  B   TMP
003558:
003559:                                                                                                  #  SECOND-ORDER OVERLAYS IN KALCMANU
003560:
003561: E6,1541  E6,1666               P21                EQUALS   KV1                                   #  I(2)TMP
003562: E6,1541  E6,1670               D21                EQUALS   KV1        +2                         #  I(2)TMP
003563: E6,1541  E6,1672               G21                EQUALS   KV1        +4                         #  I(2)TMP
003564:
003565:
003566:                                                                                                  #           SATURN BOOST STORAGE. SAVE TILL RCS DAP OPERATION.             (17D)
003567:
003568: E6,1541  E6,1661               POLYNUM            EQUALS   BCDU                                  #  B(15) PAD LOADED
003569: E6,1541  E6,1673               POLYLOC            =        POLYNUM    +10D
003570: E6,1541  E6,1700               SATRLRT            EQUALS   POLYNUM    +15D                       #  B(2) PAD LOADED
003571:
003572:
003573:
003574:                                                                                                  #           MORE P11 STORAGE -PAD LOADED-                                  (2D)
003575:


003577:                                                                                                  #           (NOTE: THIS PAD LOAD WILL NOT BE PRESERVED THROUGHOUT THE MISSION AS IT SHARES STORAGE WITH KALCMANU,
003578:                                                                                                  #            ENTRY DAP AND TVC DAP)
003579:
003580: E6,1541  E6,1702               RPSTART            EQUALS   SATRLRT    +2                         #  B(1) PITCH ROLL START TIME
003581: E6,1541  E6,1703               POLYSTOP           EQUALS   RPSTART    +1                         #  B(1) POLYCUT OFF MINUS RPSTART SEC
003582:
003583:
003584:
003585:                                                                                                  #           STORAGE FOR VHHDOT AND ATTDSP
003586:
003587: E6,1541  E6,1704               BODY3              EQUALS   POLYSTOP   +1                         #  B(1)OUT
003588: E6,1541  E6,1705               BODY2              EQUALS   BODY3      +1                         #  B(1)OUT
003589: E6,1541  E6,1706               BODY1              EQUALS   BODY2      +1                         #  B(1)OUT
003590: E6,1541  E6,1707               SPOLYARG           EQUALS   BODY1      +1                         #  B(1)TMP  ARGUEMENT FOR POLLY
003591:
003592: E6,1541  E6,1503               OLDBODY1           =        EDRIVEX                               #           1 PULSE = 0.0432 DEGREES
003593: E6,1541  E6,1504               OLDBODY2           =        EDRIVEY
003594: E6,1541  E6,1505               OLDBODY3           =        EDRIVEZ
003595:
003596:
003597:                                                                                                  #           STORAGE FOR S11.1
003598:
003599: E6,1541  E6,1710               VDISP              EQUALS   SPOLYARG   +1                         #  I(2)OUT   2(7)  M/CS
003600: E6,1541  E6,1712               HDISP              EQUALS   VDISP      +2                         #  I(2)OUT   2(29) M
003601: E6,1541  E6,1714               HDOTDISP           EQUALS   HDISP      +2                         #  I(2)OUT     2(7) M/CS
003602: E6,1541  E6,1716               BOOSTEMP           EQUALS   HDOTDISP   +2                         #  B(2) TEMP
003603:
003604:                                                                                                  #           P21 STORAGE.                                                   (1D)
003605:
003606: E6,1541  E6,1770               GENRET             EQUALS   RAD        +2                         #  B(1)TMP
003607:
003608:
003609:                                                                                                  #           R61CSM STORAGE.                                                (1D)
003610:
003611: E6,1541  E6,1771               SAVBNK             EQUALS   GENRET     +1                         #  B(1) S-S SAVE EBANK FOR R61 SUBROUTINE
003612:
003613:
003614:                                                                                                  #           CRS61.1 STORAGE FOR AUTOPILOT BANK.                            (3D)
003615:
003616: E6,1541  E6,1772               SAVEDCDU           EQUALS   SAVBNK     +1                         #  B(3) TMP
003617:
003618:
003619:
003620:                                                                                                  #           R61 STORAGE.                                                   (1D)
003621:
003622: E6,1541  E6,1775               R61CNTR            EQUALS   SAVEDCDU   +3                         #   (1)TMP
003623:
003624:
003625:                                                                                                  #           ENTRY RESTART PROTECTION STORAGE. -KEEP TEMPS IN ORDER-        (12D)
003626:


003628: E6,1541  E6,1770               TEMPROLL           EQUALS   GENRET                                #  B(1)TMP COPY CYCLE REGISTER
003629: E6,1541  E6,1771               TEMPALFA           EQUALS   TEMPROLL   +1                         #  B(1)TMP COPY CYCLE REGISTER
003630: E6,1541  E6,1772               TEMPBETA           EQUALS   TEMPALFA   +1                         #  B(1)TMP COPY CYCLE REGISTER
003631: E6,1541  E6,1773               60GENRET           EQUALS   TEMPBETA   +1                         #  B(1)TMP QSAVE FOR S61.1 AND ENTRY.
003632: E6,1541  E6,1774               S61DT              EQUALS   60GENRET   +1                         #  B(1)TMP VARIABLE DT FOR S61.1 RESTART.
003633:
003634:
003635:
003636:                                                                                                  #           ENTRY TM SHARING FOR ACCELERATION PROFILE.
003637:
003638: E6,1541  E6,1533               XPIPBUF            EQUALS   ADOT                                  #  B(1) PIPA BUFFER FOR TM DURING ENTRY.
003639: E6,1541  E6,1534               YPIPBUF            EQUALS   XPIPBUF    +1                         #  B(1) PIPS FILED HERE EACH .5 SEC APPEAR
003640: E6,1541  E6,1535               ZPIPBUF            EQUALS   YPIPBUF    +1                         #  B(1) ON DOWNLIST ONCE PER SECOND DURING
003641: E6,1541  E6,1536               XOLDBUF            EQUALS   ZPIPBUF    +1                         #  B(1) ENTRY AFTER RCS DAP HAS BEEN DIS-
003642: E6,1541  E6,1537               YOLDBUF            EQUALS   XOLDBUF    +1                         #  B(1) ABLED. NEWEST PIP VALUE REPLACES
003643: E6,1541  E6,1540               ZOLDBUF            EQUALS   YOLDBUF    +1                         #  B(1) PIPBUF, WHICH IS MOVED INTO OLDBUF.
003644:
003645:
003646:                                                                                                  #           REENTRY VARIABLES SHARED WITH RCS DAP FOR TM & FLIGHT RECORDER.
003647:
003648: E6,1541  E6,1574               Q7                 =        THETADZ                               #  I(2)   HI-WORD ONLY ON DNLIST.
003649:
003650: E6,1541  E6,1525               ASPS(TM)           =        WBODY                                 #  I(6) DWN
003651:                                                                                                  #                                                ASKEP,ASP1,ASPUP,ASPDN,ASP3,ASP3+1
003652:
003653:
003654:
003655: E6,1541  E6,1776               END-E6             EQUALS   R61CNTR    +1                         #  NEXT FREE  E6 ADDRESS
003656:


003658:                                                                                                  #                  EBANK-7 ASSIGNMENTS
003659:
003660: E7,1400                                           SETLOC   3400
003661:
003662:
003663:                                                                                                  #           *-*-*-*-  OVERLAY 0 IN EBANK 7 -*-*-*-*
003664:
003665:                                                                                                  #           EXTERNAL DELTA-V UPDATE.                                       (21D)
003666:
003667:                                                                                                  #           (MUST BE IN ORDER FOR UPDATE PROGRAM. ALSO ENTRY PROGRAMS PICK UP 'LAT(SPL)' WITH A VLOAD.)
003668:
003669: E7,1400                        LAT(SPL)           ERASE    +20D                                  #  I(2)      DSP NOUN 61 FOR P62,63,64,67
003670: E7,1425  E7,1402               LNG(SPL)           EQUALS   LAT(SPL)   +2                         #  I(2)DSP NOUN 61 FOR P62,63,64,67.
003671:
003672: E7,1425  E7,1404               DELVSLV            EQUALS   LNG(SPL)   +2                         #  I(6)TMP DELTA VEL VECT, LOC VER COORDS
003673: E7,1425  E7,1412               TIG                EQUALS   DELVSLV    +6                         #  B(2)DSP NOUN 33 FOR X-V84(R32),P30,40.
003674: E7,1425  E7,1414               RTARG              EQUALS   TIG        +2                         #  I(6)IN  DESIRED VEHICHE RADIUS VECTOR
003675: E7,1425  E7,1422               DELLT4             EQUALS   RTARG      +6                         #  I(2)IN  TIME DIFFERENCE FOR INITVEL
003676: E7,1425  E7,1424               ECSTEER            EQUALS   DELLT4     +2                         #  I(1)PL   FOR P40 S
003677: E7,1425  E7,1404               DELVLVC            =        DELVSLV
003678: E7,1425                        END-DELV           ERASE                                          #  *NEXT AVAIL LOC AFTER UNSHARED E7*
003679:                                                                                                  #           SERVICER STORAGE.                                              (13D)
003680:
003681: E7,1426  E7,1425               DVTOTAL            EQUALS   END-DELV                              #  B(2) DSP NOUN 40,99 FOR P30,34,35,40
003682: E7,1426  E7,1427               TGO                EQUALS   DVTOTAL    +2                         #  B(2)
003683: E7,1426  E7,1431               DVCNTR             EQUALS   TGO        +2                         #  B(1)TMP
003684: E7,1426  E7,1432               DELVREF            EQUALS   DVCNTR     +1                         #  I(6)TMP
003685:
003686: E7,1426  E7,1447               NOMTIG             EQUALS   END-KALC                              #  I(2) (CAN NOT SHARE WITH KALCMANU
003687:                                                                                                  #                                          OR DELVREF)
003688: E7,1426  E7,1451               END-SVCR           EQUALS   NOMTIG     +2                         #  ***NEXT AVAILABLE AFTER SERVICER
003689:
003690:
003691:
003692:                                                                                                  #           ALIGNMENT STORAGE.                                             (25D)
003693:
003694: E7,1426  E7,1451               XSCD               EQUALS   END-SVCR                              #  I(6)TMP
003695: E7,1426  E7,1457               YSCD               EQUALS   XSCD       +6                         #  I(6)TMP
003696: E7,1426  E7,1465               ZSCD               EQUALS   YSCD       +6                         #  I(6)TMP
003697: E7,1426  E7,1473               VEL/C              EQUALS   ZSCD       +6                         #  I(6)TMP
003698: E7,1426  E7,1501               R53EXIT            EQUALS   VEL/C      +6                         #  I(1)TMP
003699:
003700:
003701:                                                                                                  #           ALIGNMENT  MARKDATA  (DOWNLNK)******                           (7D)
003702: E7,1426  E7,1502               MARK2DWN           EQUALS   R53EXIT    +1                         #  (7)  USED BY ALLIGNMENT P50 S
003703:


003705:
003706:                                                                                                  #           *-*-*-*-  OVERLAY 1 IN EBANK 7 -*-*-*-*
003707:
003708:                                                                                                  #  REENTRY ERASABLES                                                       (206D)
003709:
003710: E7,1426  E7,1451               RTINIT             EQUALS   END-SVCR                              #  6P
003711: E7,1426  E7,1457               RTEAST             EQUALS   RTINIT     +6                         #  6P
003712: E7,1426  E7,1465               RTNORM             EQUALS   RTEAST     +6                         #  6P
003713: E7,1426  E7,1473               RT                 EQUALS   RTNORM     +6                         #  6P
003714: E7,1426  E7,1501               UNI                EQUALS   RT         +6                         #  6P
003715: E7,1426  E7,1507               UNITV              EQUALS   UNI        +6                         #  6P
003716: E7,1426  E7,1515               VEL                EQUALS   UNITV      +6                         #  6P
003717:
003718: E7,1426  E7,1523               TIME/RTO           EQUALS   VEL        +6                         #  2P   TIME OF INITIAL TARGET, RTO.
003719: E7,1426  E7,1525               -VREL              EQUALS   TIME/RTO   +2                         #  6P
003720: E7,1426  E7,1533               OLDUYA             EQUALS   -VREL      +6                         #  6P   USED BY CM/POSE    (ENTRY DAP)
003721: E7,1426  E7,1541               UXA/2              EQUALS   OLDUYA     +6                         #  6P   USED BY CM/POSE  (ENTRY DAP)  -UVA
003722: E7,1426  E7,1541               URH                =        UXA/2                                 #            P61 DISPLAY NOUN
003723: E7,1426  E7,1547               UYA/2              EQUALS   UXA/2      +6                         #  6P   USED BY CM/POSE  (ENTRY DAP)   UYA
003724: E7,1426  E7,1555               UZA/2              EQUALS   UYA/2      +6                         #  6P   USED BY CM/POSE  (ENTRY DAP)   UNA
003725: E7,1426  E7,1563               UBX/2              EQUALS   UZA/2      +6                         #  6P   USED BY CM/POSE  (ENTRY DAP)
003726: E7,1426  E7,1571               UBY/2              EQUALS   UBX/2      +6                         #  6P   USED BY CM/POSE  (ENTRY DAP)
003727: E7,1426  E7,1577               UBZ/2              EQUALS   UBY/2      +6                         #  6P   USED BY CM/POSE  (ENTRY DAP)
003728:
003729: E7,1426  E7,1605               DTEAROT            EQUALS   UBZ/2      +6                         #  2P
003730: E7,1426  E7,1607               DIFF               EQUALS   DTEAROT    +2                         #  2P
003731: E7,1426  E7,1611               DIFFOLD            EQUALS   DIFF       +2                         #  2P
003732: E7,1426  E7,1613               FACTOR             EQUALS   DIFFOLD    +2                         #  2P
003733: E7,1426  E7,1615               FACT1              EQUALS   FACTOR     +2                         #  2P
003734: E7,1426  E7,1617               FACT2              EQUALS   FACT1      +2                         #  2P
003735:                                                                                                  # Q7             =       THETADZ           2P  SHARED FOR TM.   P64-P66
003736: E7,1426  E7,1621               VSQUARE            EQUALS   FACT2      +2                         #  2P
003737: E7,1426  E7,1623               LAD                EQUALS   VSQUARE    +2                         #  2P
003738: E7,1426  E7,1625               LOD                EQUALS   LAD        +2                         #  2P
003739: E7,1426  E7,1627               L/DCMINR           EQUALS   LOD        +2                         #  2P
003740: E7,1426  E7,1631               KLAT               EQUALS   L/DCMINR   +2                         #  2P
003741: E7,1426  E7,1633               L/D                EQUALS   KLAT       +2                         #  2P
003742: E7,1426  E7,1635               L/D1               EQUALS   L/D        +2                         #  2P
003743: E7,1426  E7,1724               LEWD               =        VIO                                   #  2P   SHARED FOR TM.  P64-P65
003744: E7,1426  E7,1637               D                  EQUALS   L/D1       +2                         #  2P   DSP NOUN 64,66,68 FOR P63,64,67
003745:                                                                                                  # V1             =       ENDBUF +1         2P   SHARED FOR TM.  P64-P65
003746: E7,1426  E7,1641               DLEWD              EQUALS   D          +2                         #  2P
003747: E7,1426  E7,1643               K2ROLL             EQUALS   DLEWD      +2                         #  2 P
003748: E7,1426  E7,1645               GOTOADDR           EQUALS   K2ROLL     +2                         #  1P
003749: E7,1426  E7,1646               TEM1B              EQUALS   GOTOADDR   +1                         #  2 P
003750: E7,1426  E7,1650               MM                 EQUALS   TEM1B      +2                         #  2 P
003751: E7,1426  E7,1651               GRAD               EQUALS   MM         +1                         #  1P
003752: E7,1426  E7,1652               FX                 EQUALS   GRAD       +1                         #  1P   OVERWRITES NEXT 5 LOCS IN P67.
003753: E7,1426  E7,1653               LEQ                EQUALS   FX         +1                         #  2P
003754: E7,1426  E7,1655               DHOOK              EQUALS   LEQ        +2                         #  2P
003755: E7,1426  E7,1657               AHOOKDV            EQUALS   DHOOK      +2                         #  2P


003757: E7,1426  E7,1661               DVL                EQUALS   AHOOKDV    +2                         #  2P
003758:                                                                                                  # A0             =       ENDBUF +3         2P    SHARED FOR TM.(HI-WD ) P64-P65
003759: E7,1426  E7,1663               A1                 EQUALS   DVL        +2                         #  2P
003760: E7,1426  E7,1665               VBARS              EQUALS   A1         +2                         #  2P
003761: E7,1426  E7,1667               COSG/2             EQUALS   VBARS      +2                         #  2P
003762:                                                                                                  # GAMMAL         =       GAMMAEI           2P    SHARED FOR TM  P64
003763: E7,1426                        GAMMAL1            =        22D                                   #  2P
003764: E7,1426  E7,1671               VS1                EQUALS   COSG/2     +2                         #  2P
003765: E7,1426  E7,1766               VL                 =        VPRED                                 #  2P   SHARED FOR TM   P64-P65
003766: E7,1426  E7,1673               V                  EQUALS   VS1        +2                         #  2P
003767:                                                                                                  # VREF           =       THETAD   +2       2P   SHARED FOR TM    P65
003768: E7,1426  E7,1675               LATANG             EQUALS   V          +2                         #  2P   ADJACENT FOR TM.
003769: E7,1426  E7,1677               RDOT               EQUALS   LATANG     +2                         #  2P   ADJACENT FOR TM.
003770: E7,1426  E7,1701               THETAH             EQUALS   RDOT       +2                         #  2P   DSP NOUN 64,67 FOR P63,64,67
003771:                                                                                                  # RDOTREF                =       THETAD    2P   SHARED FOR TM     P65
003772: E7,1426  E7,1703               ALP                EQUALS   THETAH     +2                         #  2P
003773:
003774: E7,1426  E7,1730               ASKEP              =        ASPS                                  #  2P)                 THESE ARE STORED IN
003775: E7,1426  E7,1731               ASP1               =        ASPS       +1                         #  2P)                 SEQUENCE,OVERLAPPING
003776: E7,1426  E7,1732               ASPUP              =        ASPS       +2                         #  2P)>HI-WD OF EACH<  HI-WORD ONLY APPEARS
003777: E7,1426  E7,1733               ASPDWN             =        ASPS       +3                         #  2P)                 ON DOWNLIST, EXCEPT
003778: E7,1426  E7,1734               ASP3               =        ASPS       +4                         #  2P)                 ASP3 IS COMPLETE.
003779:
003780: E7,1426  E7,1705               C/D0               EQUALS   ALP        +2                         #  2P   -1/D0
003781: E7,1426  E7,1707               D0                 EQUALS   C/D0       +2                         #  I(2)    CONSTANT DRAG
003782: E7,1426  E7,1711               Q2                 EQUALS   D0         +2                         #  2P
003783:
003784:                                                                                                  #           ROLLC IS LOCATED IN EBANK= AOG TO AID ENTRY DAP.
003785: E7,1426  E7,1713               RTGO               EQUALS   Q2         +2                         #  2P   DSP NOUN 66 FOR P64,P67.
003786: E7,1426  E7,1715               DNRNGERR           EQUALS   RTGO       +2                         #  2P DSP NOUN 66 FOR P64,67.
003787: E7,1426  E7,1675               XRNGERR            =        LATANG                                #       FOR DISKY DISPLAY
003788: E7,1426  E7,1717               KAT                EQUALS   DNRNGERR   +2                         #  2P
003789: E7,1426  E7,1721               GMAX               EQUALS   KAT        +2                         #  1P  DSP NOUN 60 FOR P61,62,63.
003790:                                                                                                  #  GMAX IS LOADED IN DOUBLE PRECISION
003791: E7,1426  E7,1726               L/DCALC            =        TTE                                   #  2P  CALCULATED L/D FOR TM:  P64 - P67.
003792: E7,1426  E7,1770               GAMMAL             =        GAMMAEI                               #  2P  SHARED FOR TM   P64
003793: E7,1426  E7,1770               PREDANG            =        GAMMAEI                               #       FOR TM IN P67.
003794: E7,1426  E7,1771               JJ                 =        PREDANG    +1                         #       FOR TM IN P67.
003795: E7,1426  E7,1722               VMAGI              EQUALS   GMAX       +1                         #  2P DSP NOUN 62,64,68 FOR P11,63,64.
003796: E7,1426  E7,1724               VIO                EQUALS   VMAGI      +2                         #  2P DSP NOUN 63 FOR P61.
003797: E7,1426  E7,1726               TTE                EQUALS   VIO        +2                         #  2P DSP NOUN 63 FOR P61.
003798:
003799: E7,1426  E7,1730               ASPS               EQUALS   TTE        +2                         #  I(2)     HI-WORD ONLY ON DNLIST FOR TEMP
003800: E7,1426  E7,1732               TTE1               EQUALS   ASPS       +2                         #  I(2ETMP HOLDS UNDECREMENTED TTE VALUE
003801:
003802:
003803:                                                                                                  #           **** P6OS ****
003804:
003805: E7,1426  E7,1713               RTGON64            EQUALS   RTGO                                  #  RANGE ERRORS NEGATIVE IF FALLS SHORT


003807: E7,1426  E7,1713               RTGON67            EQUALS   RTGO                                  #     DSP NOUN 67
003808:
003809:
003810:
003811:                                                                                                  #           REENTRY, RETURN TO EARTH COMMON DISPLAY.                       (4D)
003812:
003813: E7,1426  E7,1766               VPRED              EQUALS   BETA12     +2                         #  DSP NOUN 60 FOR P61,  ,62,63.
003814: E7,1426  E7,1770               GAMMAEI            EQUALS   VPRED      +2                         #  DSP NOUN 60 FOR P61,  ,62,63.
003815:
003816:
003817:
003818:                                                                                                  #           SOME P11 DISPLAY REGISTERS.                                    (6D)
003819:
003820: E7,1426  E7,1734               ALTI               EQUALS   TTE1       +2                         #  2P DSP NOUN 62 FOR P11.
003821: E7,1426  E7,1736               HDOT               EQUALS   ALTI       +2                         #  2P DSP NOUN 62 FOR P11.
003822:


003824:
003825:                                                                                                  #           *-*-*-*-  OVERLAY 2 IN EBANK 7 -*-*-*-*
003826:
003827:                                                                                                  #           KALCMANU STORAGE.                                              (18D)
003828:
003829: E7,1426  E7,1425               MFS                EQUALS   END-DELV                              #  I(18)
003830: E7,1426  E7,1425               MFI                EQUALS   MFS                                   #  I    TMP
003831: E7,1426  E7,1425               DEL                EQUALS   MFS                                   #  I    TMP
003832: E7,1426  E7,1447               END-KALC           EQUALS   MFS        +18D                       #  **NEXT AVAIL LOC AFTER KALCMANU **
003833:
003834:
003835:                                                                                                  #           MEASUREMENT INCORPORATION STORAGE(R22) STORAGE.                (56D)
003836:
003837: E7,1426  E7,1447               TX789              EQUALS   END-KALC                              #  I(6)TMP
003838: E7,1426  E7,1455               GAMMA              EQUALS   TX789      +6                         #  I(2)TMP
003839: E7,1426  E7,1457               OMEGA              EQUALS   GAMMA      +2                         #  I(18)TMP
003840: E7,1426  E7,1501               BVECTOR            EQUALS   OMEGA      +18D                       #  I(18)TMP
003841: E7,1426  E7,1523               DELTAQ             EQUALS   BVECTOR    +18D                       #  I(2)TMP
003842: E7,1426  E7,1525               VARIANCE           EQUALS   DELTAQ     +2                         #  I(3)TMP
003843: E7,1426  E7,1530               RCLP               EQUALS   VARIANCE   +3                         #  I(6)TMP
003844: E7,1426  E7,1536               GRP2SVQ            EQUALS   RCLP       +6                         #  I(1)TMP QSAVE FOR RESTARTS
003845:
003846:
003847:                                                                                                  #           P20, P22, P23 DSP NOUN                                         (5D)
003848:
003849: E7,1426  E7,1501               N49DISP            EQUALS   BVECTOR                               #  B(5)TMP
003850:
003851:
003852:                                                                                                  #           S22.1 STORAGE.                                                 (36D)
003853:
003854: E7,1426  E7,1537               SVMRKDAT           EQUALS   GRP2SVQ    +1                         #  I(36)TMP 5 SETS OF MARK DATA +PAD OF ONE
003855:
003856:
003857:                                                                                                  #           **** CISLUNAR NAV.  ERAS.  (P20S) ****                         (57D).
003858:
003859: E7,1426  E7,1603               TRUNX              EQUALS   SVMRKDAT   +36D
003860: E7,1426  E7,1603               DATATEST           EQUALS   TRUNX                                 #   (1)
003861: E7,1426  E7,1604               UBAR0              EQUALS   TRUNX      +1
003862: E7,1426  E7,1612               UBAR1              EQUALS   UBAR0      +6
003863: E7,1426  E7,1620               UBAR2              EQUALS   UBAR1      +6
003864: E7,1426  E7,1626               RZC                EQUALS   UBAR2      +6
003865: E7,1426  E7,1634               VZC                EQUALS   RZC        +6
003866: E7,1426  E7,1642               UCLSTAR            EQUALS   VZC        +6
003867: E7,1426  E7,1650               USSTAR             EQUALS   UCLSTAR    +6
003868: E7,1426  E7,1656               RCLL               EQUALS   USSTAR     +6
003869: E7,1426  E7,1664               RL                 EQUALS   RCLL       +6
003870: E7,1426  E7,1672               SRRETURN           EQUALS   RL         +6
003871:


003873:
003874:                                                                                                  #           *-*-*-*-  OVERLAY 3 IN EBANK 7 -*-*-*-*
003875:
003876:                                                                                                  #           RENDEZVOUS GUIDANCE STORAGE. - P32...P35-                      (8D)
003877:
003878: E7,1426  E7,1447               DELTEEO            EQUALS   END-KALC                              #  I(2) S-S BACK VALUES OF DELTA TIME
003879: E7,1426  E7,1451               DELEL              EQUALS   DELTEEO    +2                         #  I(2) S-S
003880: E7,1426  E7,1453               SECMAX             EQUALS   DELEL      +2                         #  I(2) S-S MAX STOP SIZE FOR ROUTINE
003881: E7,1426  E7,1455               XXXALT             EQUALS   SECMAX     +2                         #  I(2)
003882:
003883:
003884:
003885:                                                                                                  #           S40.9 STORAGE.                                                 (16D)
003886:
003887: E7,1426  E7,1457               VG                 EQUALS   XXXALT     +2                         #  I(6)TMP
003888: E7,1426  E7,1465               VRPREV             EQUALS   VG         +6                         #  I(6)
003889: E7,1426  E7,1473               TNIT               EQUALS   VRPREV     +6                         #  I(2)
003890: E7,1426  E7,1475               TNITPREV           EQUALS   TNIT       +2                         #  I(2)
003891:
003892:
003893:                                                                                                  #           S40.2,3 STORAGE.                                               (1D)
003894:
003895: E7,1426  E7,1477               AXISCODE           EQUALS   TNITPREV   +2                         #  I(1)IN
003896:
003897:
003898:                                                                                                  #           P30'S-P17 COMMON STORAGE.                                      (24D)
003899:
003900: E7,1426  E7,1537               RACT3              EQUALS   GRP2SVQ    +1                         #  I(6)TMP POSITION OF ACTIVE AT TPI TIME.
003901: E7,1426  E7,1545               VACT3              EQUALS   RACT3      +6                         #  I(6)TMP VELOCITY OF ACTIVE AT TPI TIME.
003902: E7,1426  E7,1553               RPASS3             EQUALS   VACT3      +6                         #  I(6)TMP POSITION OF PASSIVE AT TPI TIME.
003903: E7,1426  E7,1561               VPASS3             EQUALS   RPASS3     +6                         #  I(6)TMP VELOCITY OF PASSIVE AT TPI TIME.
003904:
003905:
003906:                                                                                                  #           P76, N84 DISPLAY                                               (6D)
003907:
003908: E7,1426  E7,1537               DELVOV             EQUALS   RACT3                                 #  I(6)DSP NOUN 84 FOR X-V84, P34-35
003909:
003910:
003911:                                                                                                  #           INITVEL/MIDGIM STORAGE.                                        (34D)
003912:                                                                                                  #                  (CALLED BY S34.1,2, S35.1,2, AND S40.9)
003913:                                                                                                  #                  (CALLS LAMBERT, CONIC SUBROUTINES)
003914:
003915: E7,1426  E7,1567               RINIT              EQUALS   VPASS3     +6                         #  I(6)IN  ACTIVE VEHICLE RADIUS VECTOR
003916: E7,1426  E7,1575               VINIT              EQUALS   RINIT      +6                         #  I(6)IN  ACTIVE VEHICLE VELOCITY VECTOR
003917: E7,1426  E7,1603               RTARG1             EQUALS   VINIT      +6                         #  I(6)TMP SHIFTED RTARG
003918: E7,1426  E7,1611               VIPRIME            EQUALS   RTARG1     +6                         #  I(6)OUT   NEW VEL REQ AT INITIAL RADIUS
003919: E7,1426  E7,1617               VTPRIME            EQUALS   VIPRIME    +6                         #  I(6)OUT TOTAL VELOCITY AT DESIRED RADIUS
003920: E7,1426  E7,1625               +MGA               EQUALS   VTPRIME    +6                         #  I(2)DSP NOUN 45 FOR P30,34,35. +MID GIM.
003921: E7,1426  E7,1627               COZY4              EQUALS   +MGA       +2                         #  I(2)TMP COSINE OF ANGLE WHEN ROT STARTS
003922:
003923:                                                                                                  #  (THE FOLLOWING OVERLAYS MEASUREMENT INCORP AND CAN NOT SHARE WITH TPI
003924:


003926: E7,1426  E7,1502               INTIME             EQUALS   AXISCODE   +3
003927: E7,1426  E7,1504               ITCTR              EQUALS   INTIME     +2                         #  I(1) TMP ITERATION COUNTER
003928: E7,1426  E7,1631               END-IN/M           EQUALS   COZY4      +2                         #  **NEXT AVAIL LOC AFTER INITVEL/MIDGIM**
003929:
003930:                                                                                                  #           P34 AND P33 STORAGE.   (OVERLAYS INITVEL/MIDGIM)               (24D)
003931:
003932: E7,1426  E7,1567               VAPREC             EQUALS   RINIT                                 #  I(6) S-S PREC VEC FOR NOM TPI TIME(ACT V
003933: E7,1426  E7,1575               RAPREC             EQUALS   VINIT                                 #  I(6) S-S PREC VEC FOR NOM TPI TIME(ACT V
003934: E7,1426  E7,1611               VPPREC             EQUALS   VIPRIME                               #  I(6) S-S PREC VEC FOR NOM TPI TIME(PASS
003935: E7,1426  E7,1617               RPPREC             EQUALS   VTPRIME                               #  I(6) S-S PREC VEC FOR NOM TPI TIME(PASS
003936:
003937:                                                                                                  #           P30, P40 INTERFACE.                                            (20D)
003938:
003939: E7,1426  E7,1631               RTIG               EQUALS   END-IN/M                              #  I(6)TMP
003940: E7,1426  E7,1637               VTIG               EQUALS   RTIG       +6                         #  I(6)TMP
003941: E7,1426  E7,1645               DELVSIN            EQUALS   VTIG       +6                         #  I(6)TMP
003942: E7,1426  E7,1645               DELVEET3           EQUALS   DELVSIN                               #       TMP DELTA VEL VECT INERTIAL COORDS.
003943: E7,1426  E7,1645               VGTEMP             EQUALS   DELVEET3
003944: E7,1426  E7,1653               DELVSAB            EQUALS   DELVSIN    +6                         #  I(2)TMP
003945: E7,1426  E7,1653               VGDISP             =        DELVSAB                               #      DSP NOUN 40,42,99FOR P30,34,35,40,41
003946:
003947:                                                                                                  #           P35-P40 INTERFACE STORAGE. (OVERLAYS P30-P40 I/F STORAGE)      (12D)
003948:
003949: E7,1426  E7,1631               RPASS4             EQUALS   RTIG                                  #  I(6)TMP POSITION OF PASSIVE AT INTERCEPT
003950: E7,1426  E7,1637               VPASS4             EQUALS   RPASS4     +6                         #  I(6)TMP VELOCITY OF PASSIVE AT INTERCEPT
003951:
003952:
003953:                                                                                                  #           TPI SEARCH (P17)                                               (6D)
003954:
003955: E7,1426  E7,1645               E2                 EQUALS   VPASS4     +6                         #  I(6)TMP
003956:
003957:
003958:
003959:                                                                                                  #           P30-P40 COMMON STORAGE.                                        (3D)
003960:
003961: E7,1426  E7,1655               TPASS4             EQUALS   DELVSAB    +2                         #  I(2)TMP
003962: E7,1426  E7,1655               TINT               =        TPASS4                                #  I(2)
003963: E7,1426  E7,1657               QTEMP              EQUALS   TPASS4     +2                         #  I(1)TMP
003964:
003965:
003966:
003967:                                                                                                  #           P30-P40 STORAGE.                                               (4D)
003968:
003969: E7,1426  E7,1660               TTOGO              EQUALS   QTEMP      +1                         #  B(2)DSP NOUN 35,40,45,59,99
003970:                                                                                                  #          FOR P30,34,35,40,41,47,  R30.
003971: E7,1426  E7,1662               TTPI               EQUALS   TTOGO      +2                         #  B(2)DSP NOUN 37 FOR P34 TPI TIME, CSECS.


003973: E7,1426  E7,1664               END-P30S           EQUALS   TTPI       +2                         #  **NEXT AVAIL LOC AFTER P30-40 STORAGE.**
003974:
003975:
003976:                                                                                                  #           P40 STORAGE.                                                   (8D)
003977:
003978: E7,1426  E7,1664               VGBODY             EQUALS   END-P30S                              #  B(6)DSP NOUN 85 FOR P40,41,42 VG-SC COOR
003979: E7,1426  E7,1664               DELVCTL            =        VGBODY
003980: E7,1426  E7,1672               P40TMP             EQUALS   VGBODY     +6                         #  B(2)TMP
003981:
003982:
003983:                                                                                                  #           P47 STORAGE.
003984:
003985: E7,1426  E7,1457               DV47TEMP           EQUALS   VG
003986: E7,1426  E7,1674               DELVIMU            EQUALS   P40TMP     +2                         #  I(6)  DSP  NOUN 83 FOR P47 DELTAV(IMU)
003987:
003988:
003989:
003990:                                                                                                  #           S40.1 STORAGE.                                                 (23D)
003991:
003992: E7,1426  E7,1702               CSTEER             EQUALS   DELVIMU    +6                         #  I(2)IN
003993: E7,1426  E7,1704               BDT                EQUALS   CSTEER     +2                         #  I(6)IN
003994: E7,1426  E7,1712               UT                 EQUALS   BDT        +6                         #  I(6)OUT THRUST DIRECTION
003995: E7,1426  E7,1720               VGTIG              EQUALS   UT         +6                         #  I(6)OUT
003996: E7,1426  E7,1720               VGPREV             =        VGTIG
003997: E7,1426  E7,1726               F                  EQUALS   VGTIG      +6                         #  I(2)OUT S40.3 NEEDS THIS
003998:
003999: E7,1426  E7,1730               QTEMP1             EQUALS   F          +2                         #  I(1)TMP HOLDS RETURN
004000:


004002:
004003:                                                                                                  #           *-*-*-*-  OVERLAY 4 IN EBANK 7 -*-*-*-*
004004:
004005:                                                                                                  #           S35.1 STORAGE.                                                 (2D)
004006:
004007: E7,1426  E7,1664               TSTRT              EQUALS   END-P30S                              #  I(2)IN  MIDCOURSE START TIME
004008:
004009:
004010:                                                                                                  #           S34.1 STORAGE.          (OVERLAYS S35.1 STORAGE)               (1D)
004011:
004012: E7,1426  E7,1664               TITER              EQUALS   TSTRT                                 #  I(1)TMP ITERATION COUNTER
004013:
004014:
004015:                                                                                                  #           (P30-31 Q-SAVES)                                               (1)
004016:
004017: E7,1426  E7,1664               P30/31RT           EQUALS   TITER                                 #  B(1)  RETURN POINT
004018:
004019:
004020:
004021:                                                                                                  #           P20'S(COLOSSUS) STORAGE.                                       (6D)
004022:
004023: E7,1426  E7,1666               S22WUNL            EQUALS   TSTRT      +2                         #  1      WUNL W8 UNKNOWN INIT VALUE
004024: E7,1426  E7,1667               S22TOFF            EQUALS   S22WUNL    +1                         #  2    T SUB OFF
004025: E7,1426  E7,1671               S22TPRIM           EQUALS   S22TOFF    +2                         #  2      SAVE TF
004026: E7,1426  E7,1673               S22EORM            EQUALS   S22TPRIM   +2                         #  0 = EARTH -- NON-ZERO = MOON
004027:
004028:
004029:
004030:                                                                                                  #           DOWNLINK ERASABLES FOR P22,P20 MARK DATA.                      (8D)
004031:
004032: E7,1426  E7,1674               MARKDOWN           EQUALS   S22EORM    +1                         #  B(1)
004033: E7,1426  E7,1703               RM                 EQUALS   S22RTNEX                              #  DOWNLINK OF VHF RANGE
004034:
004035:
004036:
004037:                                                                                                  #           S22.1                                                          (1D)
004038:
004039: E7,1426  E7,1703               S22RTNEX           EQUALS   MARKDOWN   +7                         #  B(1)
004040:
004041:
004042:
004043:                                                                                                  #           CRS61.1 STORAGE.          -A SUBSET OF P20-                    (14D)
004044:
004045: E7,1426  E7,1704               Q611               EQUALS   RM         +1                         #  I(1) TMP QSAVE
004046: E7,1426  E7,1705               Q6111              EQUALS   Q611       +1                         #  I(1)TMP QSAVE
004047: E7,1426  E7,1706               SAVEPOS            EQUALS   Q6111      +1                         #  I(6)TMP LEM POSITION VECTOR-
004048: E7,1426  E7,1714               SAVEVEL            EQUALS   SAVEPOS    +6                         #  I(6)TMP LEM VELOCITY VECTOR-
004049:
004050:
004051:                                                                                                  #           ATTITUDE MANEUVER -CALLED BY P20,R61,R63,CRS61.1               (3D)
004052:


004054: E7,1426  E7,1722               PRAXIS             EQUALS   SAVEVEL    +6                         #  B(3) S-S DISP RES FOR PREF AXIS N95
004055:
004056:
004057:                                                                                                  #           MARK ROUTINE (R21) STORAGE.         -IS SUBSET OF R22-         (14D)
004058:
004059: E7,1426  E7,1725               MRKBUF1            EQUALS   PRAXIS     +3                         #  B(7)TMP R21 MARK BUFFER
004060: E7,1426  E7,1734               MRKBUF2            EQUALS   MRKBUF1    +7                         #  B(7)TMP R21 MARK BUFFER
004061:
004062:
004063:                                                                                                  #           MORE CONICS STORAGE.                                           (4)
004064: E7,1426                        COGA               EQUALS   3774                                  #  I(2) COTAN OF INITIAL FLIGHT  PATH ANGLE
004065: E7,1426  E7,1774               INDEP              EQUALS   COGA                                  #  I(1) USED BY SUBROUTINE:ITERATOR:
004066: E7,1426  E7,1776               EPSILONL           EQUALS   COGA       +2                         #  I(2) TMP
004067:
004068:
004069:                                                                                                  #           RENDEZVOUS GUIDANCE STORAGE.  - P32...P35 -                    (10D)
004070:
004071: E7,1426  E7,1743               ELEV               EQUALS   MRKBUF2    +7                         #  I(2)TMP
004072: E7,1426  E7,1745               RTX1               EQUALS   ELEV       +2                         #   (1)
004073: E7,1426  E7,1746               RTX2               EQUALS   RTX1       +1                         #   (1)
004074: E7,1426  E7,1747               RTMU               EQUALS   RTX2       +1                         #   (2)
004075: E7,1426  E7,1751               RTSR1/MU           EQUALS   RTMU       +2                         #   (2)
004076: E7,1426  E7,1753               CENTANG            EQUALS   RTSR1/MU   +2                         #  I(2) S-S CENTRAL ANGLE COVERED(TPI-TPF)
004077:
004078:
004079:
004080:                                                                                                  #           TPI SEARCH (S17.1, S17.2) P17 STORAGE.                         (10D)
004081:
004082: E7,1426  E7,1743               DELTEE             EQUALS   MRKBUF2    +7                         #  I(2)
004083: E7,1426  E7,1745               XRS                EQUALS   DELTEE     +2                         #  I(2)
004084: E7,1426  E7,1747               THETL              EQUALS   XRS        +2                         #  I(2)
004085: E7,1426  E7,1751               TF                 EQUALS   THETL      +2                         #  I(2)
004086: E7,1426  E7,1753               DELHITE            EQUALS   TF         +2                         #   (2)
004087:


004089:
004090:                                                                                                  #           *-*-*-*-  OVERLAY 5 IN EBANK 7 -*-*-*-*
004091:
004092:                                                                                                  #           P17,P34                                                        (2D)
004093:
004094: E7,1426  E7,1645               NN1                EQUALS   DELVEET3                              #  I(2) DSP NOUN 55,R1
004095:
004096:                                                                                                  #   ************ THE FOLLOWING ARE FOR FLIGHT 504 ONLY ********************
004097:
004098:                                                                                                  #           RETURN-TO-EARTH STORAGE.                                       (93D)
004099:
004100: E7,1426  E7,1631               RTEDVD             EQUALS   END-IN/M                              #  I(2)IN  DELTA VELOCITY DESIRED  M/CS B7
004101: E7,1426  E7,1633               RTEGAM2D           EQUALS   RTEDVD     +2                         #  I(2)IN  REENTRY ANGLE DESIRED   REVS B0
004102: E7,1426  E7,1635               RCON               EQUALS   RTEGAM2D   +2                         #  I(2)TMP CONIC R2 RADIUS            M B29
004103: E7,1426  E7,1637               R(T1)/             EQUALS   RCON       +2                         #  I(6)TMP POSITION VECTOR AT TIG M B29/B27
004104: E7,1426  E7,1645               R(T1)              EQUALS   R(T1)/     +6                         #  I(2)TMP MAGNITUDE OF R(T1)/    M B29/B27
004105: E7,1426  E7,1647               DT21PR             EQUALS   R(T1)      +2                         #  I(2) TMP PREVOUS DT21           CS B30
004106: E7,1426  E7,1651               MAMAX1             EQUALS   DT21PR     +2                         #  I(2) TMP MAJ AXIS LOW BOUND LMT    M B30
004107: E7,1426  E7,1653               MAMAX2             EQUALS   MAMAX1     +2                         #  I(2) TMP MAJ AXIS UP BOUND LMT     M B30
004108: E7,1426  E7,1655               R(T2)/             EQUALS   MAMAX2     +2                         #  I(6)TMP FINAL POSITION VECTOR  M B29/B27
004109: E7,1426  E7,1663               RD                 EQUALS   R(T2)/     +6                         #  I(2)TMP FINAL R DESIRED        M B29/B27
004110: E7,1426  E7,1665               DRCON              EQUALS   RD         +2                         #  I(2)TMP RCON SLOPE ITERATOR    M B29/B27
004111: E7,1426  E7,1667               RPRE,              EQUALS   DRCON      +2                         #  I(2)TMP PREVISOUS RPRE         M B29/B27
004112: E7,1426  E7,1671               V(T1)/             EQUALS   RPRE,      +2                         #  I(6)TMP VEL VECTOR AT TIG     M/CS B7/B5
004113: E7,1426  E7,1677               V2(T1)/            EQUALS   V(T1)/     +6                         #  I(6)TMP POST IMP VEL AT TIG   M/CS B7/B5
004114: E7,1426  E7,1705               DV                 EQUALS   V2(T1)/    +6                         #  I(2)TMP DELTA VELOCITY AT TIG M/CS B7/B5
004115: E7,1426  E7,1707               V(T2)/             EQUALS   DV         +2                         #  I(6)TMP FINAL VELOCITY VECTOR M/CS B7/B5
004116: E7,1426  E7,1715               T1                 EQUALS   V(T2)/     +6                         #  I(2)TMP INITIAL VECTOR TIME       CS B28
004117: E7,1426  E7,1717               PCON               EQUALS   T1         +2                         #  I(2)TMP SEMI-LATUS RECTUM         M B29
004118: E7,1426  E7,1721               X(T1)              EQUALS   PCON       +2                         #  I(2)TMP COTANGENT GAMMA1              B5
004119: E7,1426  E7,1723               T12                EQUALS   X(T1)      +2                         #  I(2)TMP INIT TO FINL POSIT TIME   CS B28
004120: E7,1426  E7,1725               DELTAT             EQUALS   T12        +2                         #  I(2) TMP DELTA T IN SAFE PERILUNE CS B28
004121: E7,1426  E7,1727               NN1A               EQUALS   DELTAT     +2                         #  I(2) TMP ITERATION COUNTER 1
004122: E7,1426  E7,1731               NN2                EQUALS   NN1A       +2                         #  I(2) TMP ITERATION COUNTER 2
004123: E7,1426  E7,1733               RTENCKEX           EQUALS   NN2        +2                         #  I(1)TMP RTENCK RETURN ADDRESS
004124: E7,1426  E7,1734               CONICX1            EQUALS   RTENCKEX   +1                         #  I(1)TMP CONICS MU TABLE INDEX
004125: E7,1426  E7,1735               T2                 EQUALS   CONICX1    +1                         #  I(2)TMP FINAL TIME                CS B28
004126: E7,1426  E7,1737               UR1/               EQUALS   T2         +2                         #  I(6)TMP UNIT R(T1)/                   B1
004127: E7,1426  E7,1745               UV1/               EQUALS   UR1/       +6                         #  I(6)TMP UNIT V(T1)/                   B1
004128: E7,1426  E7,1753               BETA1              EQUALS   UV1/       +6                         #  I(2)TMP 1+X(T2)**2                    B1
004129: E7,1426  E7,1755               P(T1)              EQUALS   BETA1      +2                         #  I(1)TMP PRIMARY BODY STATE TIME 1    B14
004130: E7,1426  E7,1756               CFPA               EQUALS   P(T1)      +1                         #  I(2) TMP COSINE FLIGHT PATH ANGLE   B1
004131: E7,1426  E7,1760               PHI2               EQUALS   CFPA       +2                         #  I(2) TMP PERI OR APO INDICATOR       B2
004132: E7,1426  E7,1762               SPRTEX             EQUALS   PHI2       +2                         #  I(1)TMP ROUTINE RETURN ADDRESS
004133:
004134:
004135: E7,1426  E7,1763               VNSTORE            EQUALS   SPRTEX     +1                         #  I(1)TMP VERBNOUN STORAGE
004136: E7,1426  E7,1764               BETA12             EQUALS   VNSTORE    +1                         #  I(2)TMP SIGN FOR TIMERAD
004137:                                                                                                  #           OVERLAYS WITHIN RETURN-TO-EARTH STORAGE.
004138:
004139: E7,1426                        RPRE               EQUALS   24D                                   #  I(2)TMP COMPUTED PREC RADIUS   M B29/B27


004141: E7,1426                        P/RPRE             EQUALS   26D                                   #  I(2)TMP P/R                           B4
004142: E7,1426                        R/APRE             EQUALS   28D                                   #  I(2)TMP R/A                           B6
004143: E7,1426  E7,1723               X(T2)PRE           EQUALS   T12                                   #  I(2)TMP PREC COTAN GAMMA2             B0
004144: E7,1426  E7,1725               X(T2)              EQUALS   DELTAT                                #  I(2)TMP COTAN GAMMA2                  B0
004145: E7,1426  E7,1745               UH/                EQUALS   UV1/                                  #  I(2)TMP UNIT HORIZONTAL VECTOR.       B1
004146: E7,1426  E7,1412               SPRTETIG           EQUALS   TIG                                   #  I(2)IN  TIME OF IGNITION          CS B28
004147: E7,1426  E4,1721               RETLOCN            EQUALS   XR1HOLD    +1
004148:
004149:
004150:
004151: E7,1426                        WHOCARES           =        3777                                  #  A DUMMY FOR E-BANK INSENSITIVE 2CADRS.
004152:
004153:
004154: E7,1426  0003777               END-E7             EQUALS   WHOCARES                              #  ****** LAST LOCATION IN E7

End of include-file ERASABLE_ASSIGNMENTS.agc.  Parent file is MAIN.agc


