
Source Code


000002:                                                                                                  ## Copyright:   Public domain.
000003:                                                                                                  ## Filename:    EXECUTIVE.agc
000004:                                                                                                  ## Purpose:     Part of the source code for Colossus build 237.
000005:                                                                                                  ##              This is for the Command Module's (CM) Apollo Guidance
000006:                                                                                                  ##              Computer (AGC), for Apollo 8.
000007:                                                                                                  ## Assembler:   yaYUL
000008:                                                                                                  ## Contact:     Jim Lawton <jim DOT lawton AT gmail DOT com>
000009:                                                                                                  ## Website:     www.ibiblio.org/apollo/index.html
000010:                                                                                                  ## Page Scans:  www.ibiblio.org/apollo/ScansForConversion/Colossus237/
000011:                                                                                                  ## Mod history: 2011-04-13 JL   Adapted from corresponding Colossus 249 file.
000012:                                                                                                  ##              2016-11-02 RSB  Typo (offset-reference +1 was not indented).
000013:                                                                                                  ##              2017-01-01 RSB  Proofed comment text using octopus/ProoferComments,
000014:                                                                                                  ##                              and fixed errors found.
000015:                                                                                                  ##              2017-01-22 RSB  Back-ported comment error fixes detected in diff'ing
000016:                                                                                                  ##                              Artemis 72 vs Comanche 55.
000017:


000019:    5027                                           BLOCK    02
000020:                                                                                                  #           TO ENTER A JOB REQUEST REQUIRING NO VAC AREA:
000021:
000022:    5027                                           COUNT    02/EXEC
000023:
000024:    5027           00004        NOVAC              INHINT
000025:    5030           65121                           AD       FAKEPRET                              #  LOC(MPAC +6) - LOC(QPRET)
000026:    5031           54063                           TS       NEWPRIO                               #  PRIORITY OF NEW JOB + NOVAC C(FIXLOC)
000027:
000028:    5032           00006                           EXTEND
000029:    5033           50002                           INDEX    Q                                     #  Q WILL BE UNDISTURBED THROUGHOUT.
000030:    5034           30001                           DCA      0                                     #  2CADR OF JOB ENTERED.
000031:    5035           52066                           DXCH     NEWLOC
000032:    5036           35120                           CAF      EXECBANK
000033:    5037           56004                           XCH      FBANK
000034:    5040           54061                           TS       EXECTEM1
000035:    5041           12650                           TCF      NOVAC2                                #  ENTER EXECUTIVE BANK.
000036:
000037:                                                                                                  #           TO ENTER A JOB REQUEST REQUIRING A VAC AREA - E.G., ALL (PARTIALLY) INTERPRETIVE JOBS.
000038:
000039:    5042           00004        FINDVAC            INHINT
000040:    5043           54063                           TS       NEWPRIO
000041:    5044           00006                           EXTEND
000042:    5045           50002                           INDEX    Q
000043:    5046           30001                           DCA      0
000044:    5047           52066        SPVACIN            DXCH     NEWLOC
000045:    5050           35120                           CAF      EXECBANK
000046:    5051           56004                           XCH      FBANK
000047:    5052           12626                           TCF      FINDVAC2                              #  OFF TO EXECUTIVE SWITCHED-BANK.
000048:
000049:                                                                                                  #           TO ENTER A FINDVAC WITH THE PRIORITY IN NEWPRIO TO THE 2CADR ARRIVING IN A AND L:
000050:
000051:                                                                                                  #           USERS OF SPVAC MUST INHINT BEFORE STORING IN NEWPRIO.
000052:
000053:    5053           56002        SPVAC              XCH      Q
000054:    5054           67715                           AD       NEG2
000055:    5055           56002                           XCH      Q
000056:    5056           15047                           TCF      SPVACIN
000057:
000058:                                                                                                  #           TO SUSPEND A BASIC JOB SO A HIGHER PRIORITY JOB MAY BE SERVICED:
000059:
000060:    5057           22002        CHANG1             LXCH     Q
000061:    5060           35120                           CAF      EXECBANK
000062:    5061           56006                           XCH      BBANK
000063:    5062           12727                           TCF      CHANJOB
000064:
000065:                                                                                                  #           TO SUSPEND AN INTERPRETIVE JOB:
000066:
000067:    5063           40164        CHANG2             CS       LOC                                   #  NEGATIVE LOC SHOWS JOB = INTERPRETIVE.
000068:                                                                                                  #           ITRACE (4) REFERS TO "CHANG2".


000070:    5064           54001                           TS       L
000071:    5065           35120                 +2        CAF      EXECBANK
000072:    5066           54006                           TS       BBANK
000073:    5067           12726                           TCF      CHANJOB    -1
000074:


000076:                                                                                                  #           TO VOLUNTARILY SUSPEND A JOB UNTIL THE COMPLETION OF SOME ANTICIPATED EVENT (I/O EVENT ETC.):
000077:
000078:    5070           54164        JOBSLEEP           TS       LOC
000079:    5071           35120                           CAF      EXECBANK
000080:    5072           54004                           TS       FBANK
000081:    5073           13017                           TCF      JOBSLP1
000082:
000083:                                                                                                  #           TO AWAKEN A JOB PUT TO SLEEP IN THE ABOVE FASHION:
000084:
000085:    5074           00004        JOBWAKE            INHINT
000086:    5075           54065                           TS       NEWLOC
000087:    5076           44711                           CS       TWO                                   #  EXIT IS VIA FINDVAC/NOVAC PROCEDURES.
000088:    5077           26002                           ADS      Q
000089:    5100           35120                           CAF      EXECBANK
000090:    5101           56004                           XCH      FBANK
000091:    5102           13044                           TCF      JOBWAKE2
000092:
000093:                                                                                                  #           TO CHANGE THE PRIORITY OF A JOB CURRENTLY UNDER EXECUTION:
000094:
000095:    5103           00004        PRIOCHNG           INHINT                                         #  NEW PRIORITY ARRIVES IN A. RETURNS TO
000096:    5104           54063                           TS       NEWPRIO                               #  CALLER AS SOON AS NEW JOB PRIORITY IS
000097:    5105           35120                           CAF      EXECBANK                              #  HIGHEST. PREPARE FOR POSSIBLE BASIC-
000098:    5106           56006                           XCH      BBANK                                 #  STYLE CHANGE-JOB.
000099:    5107           54165                           TS       BANKSET
000100:    5110           30002                           CA       Q
000101:    5111           13113                           TCF      PRIOCH2
000102:
000103:                                                                                                  #           TO REMOVE A JOB FROM EXECUTIVE CONSIDERATIONS:
000104:
000105:    5112           35120        ENDOFJOB           CAF      EXECBANK
000106:    5113           54004                           TS       FBANK
000107:    5114           13124                           TCF      ENDJOB1
000108:
000109:    5115           30061        ENDFIND            CA       EXECTEM1                              #  RETURN TO CALLER AFTER JOB ENTRY
000110:    5116           54004                           TS       FBANK                                 #  COMPLETE.
000111:    5117           16710                           TCF      Q+2
000112:    5120           02626        EXECBANK           CADR     FINDVAC2
000113:
000114:    5121           00110        FAKEPRET           ADRES    MPAC       -36D                       #  LOC(MPAC +6) - LOC(QPRET)
000115:


000117:                                                                                                  #           LOCATE AN AVAILABLE VAC AREA.
000118:
000119: 01,2626                                           BANK     01
000120: 01,2626                                           COUNT    01/EXEC
000121:
000122: 01,2626           54061        FINDVAC2           TS       EXECTEM1                              #  (SAVE CALLER'S BANK FIRST.)
000123: 01,2627           10400                           CCS      VAC1USE
000124: 01,2630           12643                           TCF      VACFOUND
000125: 01,2631           10454                           CCS      VAC2USE
000126: 01,2632           12643                           TCF      VACFOUND
000127: 01,2633           10530                           CCS      VAC3USE
000128: 01,2634           12643                           TCF      VACFOUND
000129: 01,2635           10604                           CCS      VAC4USE
000130: 01,2636           12643                           TCF      VACFOUND
000131: 01,2637           10660                           CCS      VAC5USE
000132: 01,2640           12643                           TCF      VACFOUND
000133: 01,2641           05604                           TC       BAILOUT
000134: 01,2642           01201                           OCT      1201                                  #  NO VAC AREAS.
000135:
000136: 01,2643           64711        VACFOUND           AD       TWO                                   #  RESERVE THIS VAC AREA BY STORING A ZERO
000137: 01,2644           22007                           ZL                                             #  IN ITS VAC USE REGISTER AND STORE THE
000138: 01,2645           50000                           INDEX    A                                     #  ADDRESS OF THE FIRST WORD OF IT IN THE
000139: 01,2646           21777                           LXCH     0          -1                         #  LOW NINE BITS OF THE PRIORITY WORD.
000140: 01,2647           26063                           ADS      NEWPRIO
000141:
000142: 01,2650           34714        NOVAC2             CAF      ZERO                                  #  NOVAC ENTERS HERE. FIND A CORE SET.
000143: 01,2651           54064                           TS       LOCCTR
000144: 01,2652           32657                           CAF      NO.CORES                              #  SEVEN SETS OF ELEVEN REGISTERS EACH.
000145: 01,2653           54062        NOVAC3             TS       EXECTEM2
000146: 01,2654           50064                           INDEX    LOCCTR
000147: 01,2655           10167                           CCS      PRIORITY                              #  EACH PRIORITY REGISTER CONTAINS -0 IF
000148: 01,2656           12717                           TCF      NEXTCORE                              #  THE CORRESPONDING CORE SET IS AVAILABLE.
000149: 01,2657           00006        NO.CORES           DEC      6          B-14
000150: 01,2660           12717                           TCF      NEXTCORE                              #  AN ACTIVE JOB HAS A POSITIVE PRIORITY
000151:                                                                                                  #                                          BUT A DORMANT JOB'S PRIORITY IS NEGATIVE
000152:


000154: 01,2661           30063        CORFOUND           CA       NEWPRIO                               #  SET THE PRIORITY OF THIS JOB IN THE CORE
000155: 01,2662           50064                           INDEX    LOCCTR                                #  SET'S PRIORITY REGISTER AND SET THE
000156: 01,2663           54167                           TS       PRIORITY                              #  JOB'S PUSH-DOWN POINTER AT THE BEGINNING
000157: 01,2664           74741                           MASK     LOW9                                  #  OF THE WORK AREA AND OVERFLOW INDICATOR
000158: 01,2665           50064                           INDEX    LOCCTR
000159: 01,2666           54166                           TS       PUSHLOC                               #  OFF TO PREPARE FOR INTERPRETIVE PROGRAMS
000160:
000161: 01,2667           10064                           CCS      LOCCTR                                #  IF CORE SET ZERO IS BEING LOADED, SET UP
000162: 01,2670           12704                           TCF      SETLOC                                #  OVFIND AND FIXLOC IMMEDIATELY .
000163: 01,2671           54121                           TS       OVFIND
000164: 01,2672           30166                           CA       PUSHLOC
000165: 01,2673           54120                           TS       FIXLOC
000166:
000167: 01,2674           10067        SPECTEST           CCS      NEWJOB                                #  SEE IF ANY ACTIVE JOBS WAITING (RARE).
000168: 01,2675           12704                           TCF      SETLOC                                #  MUST BE AWAKENED BUT UNCHANGED JOB.
000169: 01,2676           05642                           TC       CCSHOLE
000170: 01,2677           05642                           TC       CCSHOLE
000171: 01,2700           54067                           TS       NEWJOB                                #  +0 SHOWS ACTIVE JOB ALREADY SET.
000172: 01,2701           52066                           DXCH     NEWLOC
000173: 01,2702           52165                           DXCH     LOC
000174: 01,2703           15115                           TCF      ENDFIND
000175:
000176: 01,2704           52066        SETLOC             DXCH     NEWLOC                                #  SET UP THE LOCATION REGISTERS FOR THIS
000177: 01,2705           50064                           INDEX    LOCCTR
000178: 01,2706           52165                           DXCH     LOC
000179: 01,2707           50067                           INDEX    NEWJOB                                #  THIS INDEX INSTRUCTION INSURES THAT THE
000180: 01,2710           40167                           CS       PRIORITY                              #  HIGHEST ACTIVE PRIORITY WILL BE COMPARED
000181: 01,2711           60063                           AD       NEWPRIO                               #  WITH THE NEW PRIORITY TO SEE IF NEWJOB
000182: 01,2712           00006                           EXTEND                                         #  SHOULD BE SET TO SIGNAL A SWITCH.
000183: 01,2713           65115                           BZMF     ENDFIND
000184: 01,2714           30064                           CA       LOCCTR                                #  LOCCTR IS LEFT SET AT THIS CORE SET IF
000185: 01,2715           54067                           TS       NEWJOB                                #  THE CALLER WANTS TO LOAD ANY MPAC
000186: 01,2716           15115                           TCF      ENDFIND                               #  REGISTERS, ETC.
000187:
000188: 01,2717           33054        NEXTCORE           CAF      COREINC
000189: 01,2720           26064                           ADS      LOCCTR
000190: 01,2721           10062                           CCS      EXECTEM2
000191: 01,2722           12653                           TCF      NOVAC3
000192: 01,2723           05604                           TC       BAILOUT                               #  NO CORE SETS.
000193: 01,2724           01202                           OCT      1202
000194:


000196:                                                                                                  #           THE FOLLOWING ROUTINE SWAPS CORE SET 0 WITH THAT WHOSE RELATIVE ADDRESS IS IN NEWJOB.
000197:
000198: 01,2725           22164                 -2        LXCH     LOC
000199: 01,2726           30165                 -1        CAE      BANKSET                               #  BANKSET, NOT BBANK, HAS RIGHT CONTENTS.
000200: 01,2727           00004        CHANJOB            INHINT
000201: 01,2730           00006                           EXTEND
000202: 01,2731           04007                           ROR      SUPERBNK                              #  PICK UP CURRENT SBANK FOR BBCON
000203: 01,2732           56001                           XCH      L                                     #  LOC IN A AND BBCON IN L.
000204: 01,2733           50067                 +4        INDEX    NEWJOB                                #  SWAP LOC AND BANKSET.
000205: 01,2734           52165                           DXCH     LOC
000206: 01,2735           52165                           DXCH     LOC
000207:
000208: 01,2736           30165                           CAE      BANKSET
000209: 01,2737           00006                           EXTEND
000210: 01,2740           01007                           WRITE    SUPERBNK                              #  SET SBANK FOR NEW JOB.
000211: 01,2741           52155                           DXCH     MPAC                                  #  SWAP MULTI-PURPOSE ACCUMULATOR AREAS.
000212: 01,2742           50067                           INDEX    NEWJOB
000213: 01,2743           52155                           DXCH     MPAC
000214: 01,2744           52155                           DXCH     MPAC
000215: 01,2745           52157                           DXCH     MPAC       +2
000216: 01,2746           50067                           INDEX    NEWJOB
000217: 01,2747           52157                           DXCH     MPAC       +2
000218: 01,2750           52157                           DXCH     MPAC       +2
000219: 01,2751           52161                           DXCH     MPAC       +4
000220: 01,2752           50067                           INDEX    NEWJOB
000221: 01,2753           52161                           DXCH     MPAC       +4
000222: 01,2754           52161                           DXCH     MPAC       +4
000223: 01,2755           52163                           DXCH     MPAC       +6
000224: 01,2756           50067                           INDEX    NEWJOB
000225: 01,2757           52163                           DXCH     MPAC       +6
000226: 01,2760           52163                           DXCH     MPAC       +6
000227:
000228: 01,2761           34714                           CAF      ZERO
000229: 01,2762           56121                           XCH      OVFIND                                #  MAKE PUSHLOC NEGATIVE IF OVFIND NZ.
000230: 01,2763           00006                           EXTEND
000231: 01,2764           12767                           BZF      +3
000232: 01,2765           40166                           CS       PUSHLOC
000233: 01,2766           54166                           TS       PUSHLOC
000234:
000235: 01,2767           52167                           DXCH     PUSHLOC
000236: 01,2770           50067                           INDEX    NEWJOB
000237: 01,2771           52167                           DXCH     PUSHLOC
000238: 01,2772           52167                           DXCH     PUSHLOC                               #  SWAPS PUSHLOC AND PRIORITY.
000239: 01,2773           34741                           CAF      LOW9                                  #  SET FIXLOC TO BASE OF VAC AREA.
000240: 01,2774           70167                           MASK     PRIORITY
000241: 01,2775           54120                           TS       FIXLOC
000242:
000243: 01,2776           10166                           CCS      PUSHLOC                               #  SET OVERFLOW INDICATOR ACCORDING TO
000244: 01,2777           34714                           CAF      ZERO
000245: 01,3000           13005                           TCF      ENDPRCHG   -1


000247: 01,3001           40166                           CS       PUSHLOC
000248: 01,3002           54166                           TS       PUSHLOC
000249: 01,3003           34712                           CAF      ONE
000250: 01,3004           56121                           XCH      OVFIND
000251: 01,3005           54067                           TS       NEWJOB
000252:
000253: 01,3006           00003        ENDPRCHG           RELINT
000254: 01,3007           52165                           DXCH     LOC                                   #  BASIC JOBS HAVE POSITIVE ADDRESSES, SO
000255: 01,3010           00006                           EXTEND                                         #  DISPATCH WITH A DTCB.
000256: 01,3011           63013                           BZMF     +2                                    #  IF INTERPRETIVE, SET UP EBANK, ETC.
000257: 01,3012           52006                           DTCB
000258:


000260: 01,3013           40000                           COM                                            #  EPILOGUE TO JOB CHANGE FOR INTERPRETIVE
000261: 01,3014           64712                           AD       ONE
000262: 01,3015           54164                           TS       LOC                                   #  RESUME.
000263: 01,3016           16017                           TCF      INTRSM
000264:
000265:                                                                                                  #           COMPLETE JOBSLEEP PREPARATIONS.
000266:
000267: 01,3017           00004        JOBSLP1            INHINT
000268: 01,3020           40167                           CS       PRIORITY                              #  NNZ PRIORITY SHOWS JOB ASLEEP.
000269: 01,3021           54167                           TS       PRIORITY
000270: 01,3022           36043                           CAF      LOW7
000271: 01,3023           70006                           MASK     BBANK
000272: 01,3024           00006                           EXTEND
000273: 01,3025           04007                           ROR      SUPERBNK                              #  SAVE OLD SUPERBANK VALUE.
000274: 01,3026           54165                           TS       BANKSET
000275: 01,3027           44714                           CS       ZERO
000276: 01,3030           54131        JOBSLP2            TS       BUF        +1                         #  HOLDS - HIGHEST PRIORITY.
000277: 01,3031           13141                           TCF      EJSCAN                                #  SCAN FOR HIGHEST PRIORITY ALA ENDOFJOB.
000278:
000279: 01,3032           00004        NUCHANG2           INHINT                                         #  QUICK... DONT LET NEWJOB CHANGE TO +0 .
000280: 01,3033           10067                           CCS      NEWJOB
000281: 01,3034           13037                           TCF      +3                                    #  NEWJOB STILL PNZ
000282: 01,3035           00003                           RELINT                                         #  NEW JOB HAS CHANGED TO +0. WAKE UP JOB
000283: 01,3036           13233                           TCF      ADVAN      +2                         #  VIA NUDIRECT. (VERY RARE CASE.)
000284:
000285: 01,3037           34711                           CAF      TWO
000286: 01,3040           00006                           EXTEND
000287: 01,3041           05011                           WOR      DSALMOUT                              #  TURN ON ACTIVITY LIGHT
000288: 01,3042           52165                           DXCH     LOC                                   #  AND SAVE ADDRESS INFO FOR BENEFIT OF
000289: 01,3043           12733                           TCF      CHANJOB    +          4               #   POSSIBLE SLEEPING JOB.
000290:


000292:                                                                                                  #           TO WAKE UP A JOB, EACH CORE SET IS FOUND TO LOCATE ALL JOBS WHICH ARE ASLEEP. IF THE FCADR IN THE
000293:                                                                                                  #  LOC REGISTER OF ANY SUCH JOB MATCHES THAT SUPPLIED BY THE CALLER, THAT JOB IS AWAKENED. IF NO JOB IS FOUND,
000294:                                                                                                  #  LOCCTR IS SET TO -1 AND NO FURTHER ACTION TAKES PLACE.
000295:
000296: 01,3044           54061        JOBWAKE2           TS       EXECTEM1
000297: 01,3045           34714                           CAF      ZERO                                  #  BEGIN CORE SET SCAN.
000298: 01,3046           54064                           TS       LOCCTR
000299: 01,3047           32657                           CAF      NO.CORES
000300: 01,3050           54062        JOBWAKE4           TS       EXECTEM2
000301: 01,3051           50064                           INDEX    LOCCTR
000302: 01,3052           10167                           CCS      PRIORITY
000303: 01,3053           13056                           TCF      JOBWAKE3                              #  ACTIVE JOB - CHECK NEXT CORE SET.
000304: 01,3054           00014        COREINC            DEC      12         B-14                       #  12 REGISTERS PER CORE SET.
000305: 01,3055           13065                           TCF      WAKETEST                              #  SLEEPING JOB - SEE IF CADR MATCHES.
000306:
000307: 01,3056           33054        JOBWAKE3           CAF      COREINC
000308: 01,3057           26064                           ADS      LOCCTR
000309: 01,3060           10062                           CCS      EXECTEM2
000310: 01,3061           13050                           TCF      JOBWAKE4
000311: 01,3062           44712                           CS       ONE                                   #  EXIT IF SLEEPING JOB NOT FOUND.
000312: 01,3063           54064                           TS       LOCCTR
000313: 01,3064           15115                           TCF      ENDFIND
000314:
000315: 01,3065           40065        WAKETEST           CS       NEWLOC
000316: 01,3066           50064                           INDEX    LOCCTR
000317: 01,3067           60164                           AD       LOC
000318: 01,3070           00006                           EXTEND
000319: 01,3071           13073                           BZF      +2                                    #  IF MATCH.
000320: 01,3072           13056                           TCF      JOBWAKE3                              #  EXAMINE NEXT CORE SET IF NO MATCH.
000321:
000322: 01,3073           50064                           INDEX    LOCCTR                                #  RE-COMPLEMENT PRIORITY TO SHOW JOB AWAKE
000323: 01,3074           40167                           CS       PRIORITY
000324: 01,3075           54063                           TS       NEWPRIO
000325: 01,3076           50064                           INDEX    LOCCTR
000326: 01,3077           54167                           TS       PRIORITY
000327:
000328: 01,3100           44364                           CS       FBANKMSK                              #  MAKE UP THE 2CADR OF THE WAKE ADDRESS
000329: 01,3101           70065                           MASK     NEWLOC                                #  USING THE CADR IN NEWLOC AND THE EBANK
000330: 01,3102           64700                           AD       2K                                    #  HALF OF BBANK SAVED IN BANKSET.
000331: 01,3103           56065                           XCH      NEWLOC
000332: 01,3104           74364                           MASK     FBANKMSK
000333: 01,3105           50064                           INDEX    LOCCTR
000334: 01,3106           60165                           AD       BANKSET
000335: 01,3107           54066                           TS       NEWLOC     +1
000336:
000337: 01,3110           10064                           CCS      LOCCTR                                #  SPECIAL TREATMENT IF THIS JOB WAS
000338: 01,3111           12704                           TCF      SETLOC                                #  ALREADY IN THE RUN (0) POSITION.
000339: 01,3112           12674                           TCF      SPECTEST
000340:


000342:                                                                                                  #           PRIORITY CHANGE. CHANGE THE CONTENTS OF PRIORITY AND SCAN FOR THE JOB OF HIGHEST PRIORITY.
000343:
000344: 01,3113           54164        PRIOCH2            TS       LOC
000345: 01,3114           34714                           CAF      ZERO                                  #  SET FLAG TO TELL ENDJOB SCANNER IF THIS
000346: 01,3115           54130                           TS       BUF                                   #  JOB IS STILL HIGHEST PRIORITY.
000347: 01,3116           34741                           CAF      LOW9
000348: 01,3117           70167                           MASK     PRIORITY
000349: 01,3120           60063                           AD       NEWPRIO
000350: 01,3121           54167                           TS       PRIORITY
000351: 01,3122           40000                           COM
000352: 01,3123           13030                           TCF      JOBSLP2                               #  AND TO EJSCAN.
000353:


000355:                                                                                                  #           RELEASE THIS CORE SET AND VAC AREA AND SCAN FOR THE JOB OF HIGHEST ACTIVE PRIORITY.
000356:
000357: 01,3124           00004        ENDJOB1            INHINT
000358: 01,3125           44714                           CS       ZERO
000359: 01,3126           54131                           TS       BUF        +1
000360: 01,3127           56167                           XCH      PRIORITY
000361: 01,3130           74741                           MASK     LOW9
000362: 01,3131           54001                           TS       L
000363:
000364: 01,3132           45121                           CS       FAKEPRET
000365: 01,3133           60001                           AD       L
000366:
000367: 01,3134           00006                           EXTEND
000368: 01,3135           63141                           BZMF     EJSCAN                                #  NOVAC ENDOFJOB
000369:
000370: 01,3136           10001                           CCS      L
000371: 01,3137           50000                           INDEX    A
000372: 01,3140           54000                           TS       0
000373:
000374: 01,3141           10203        EJSCAN             CCS      PRIORITY   +12D
000375: 01,3142           03206                           TC       EJ1
000376: 01,3143           05642                           TC       CCSHOLE
000377: 01,3144           13145                           TCF      +1
000378:
000379: 01,3145           10217                           CCS      PRIORITY   +24D                       #  EXAMINE EACH PRIORITY REGISTER TO FIND
000380: 01,3146           03206                           TC       EJ1                                   #  THE JOB OF HIGHEST ACTIVE PRIORITY.
000381: 01,3147           05642                           TC       CCSHOLE
000382: 01,3150           13151                           TCF      +1
000383:
000384: 01,3151           10233                           CCS      PRIORITY   +36D
000385: 01,3152           03206                           TC       EJ1
000386: 01,3153           67610        -CCSPR             -CCS     PRIORITY
000387: 01,3154           13155                           TCF      +1
000388:
000389: 01,3155           10247                           CCS      PRIORITY   +48D
000390: 01,3156           03206                           TC       EJ1
000391: 01,3157           05642                           TC       CCSHOLE
000392: 01,3160           13161                           TCF      +1
000393:
000394: 01,3161           10263                           CCS      PRIORITY   +60D
000395: 01,3162           03206                           TC       EJ1
000396: 01,3163           05642                           TC       CCSHOLE
000397: 01,3164           13165                           TCF      +1
000398:
000399: 01,3165           10277                           CCS      PRIORITY   +72D
000400: 01,3166           03206                           TC       EJ1
000401: 01,3167           05642                           TC       CCSHOLE
000402: 01,3170           13171                           TCF      +1
000403:


000405:                                                                                                  #           EVALUATE THE RESULTS OF THE SCAN.
000406:
000407: 01,3171           10131                           CCS      BUF        +1                         #  SEE IF THERE ARE ANY ACTIVE JOBS WAITING
000408: 01,3172           05642                           TC       CCSHOLE
000409: 01,3173           05642                           TC       CCSHOLE
000410:
000411: 01,3174           13176                           TCF      +2
000412: 01,3175           13223                           TCF      DUMMYJOB
000413: 01,3176           10130                           CCS      BUF                                   #  BUF IS ZERO IF THIS IS A PRIOCHNG AND
000414: 01,3177           13201                           TCF      +2                                    #  CHANGED PRIORITY IS STILL HIGHEST.
000415: 01,3200           13005                           TCF      ENDPRCHG   -1
000416:
000417: 01,3201           50000                           INDEX    A                                     #  OTHERWISE, SET NEWJOB TO THE RELATIVE
000418: 01,3202           27777                           CAF      0          -1                         #  ADDRESS OF THE NEW JOB'S CORE SET.
000419: 01,3203           63153                           AD       -CCSPR
000420: 01,3204           54067                           TS       NEWJOB
000421: 01,3205           12725                           TCF      CHANJOB    -2
000422:
000423: 01,3206           54132        EJ1                TS       BUF        +2
000424: 01,3207           60131                           AD       BUF        +1                         #  - OLD HIGH PRIORITY.
000425: 01,3210           10000                           CCS      A
000426: 01,3211           40132                           CS       BUF        +2
000427: 01,3212           13216                           TCF      EJ2                                   #  NEW HIGH PRIORITY.
000428: 01,3213           13214                           NOOP
000429: 01,3214           50002                           INDEX    Q
000430: 01,3215           00002                           TC       2                                     #  PROCEED WITH SEARCH.
000431:
000432: 01,3216           54131        EJ2                TS       BUF        +1
000433: 01,3217           00006                           EXTEND
000434: 01,3220           22130                           QXCH     BUF                                   #  FOR LOCATING CCS PRIORITY + X INSTR.
000435: 01,3221           50130                           INDEX    BUF
000436: 01,3222           00002                           TC       2
000437:


000439:                                                                                                  #           IDLING AND COMPUTER ACTIVITY (GREEN) LIGHT MAINTENANCE. THE IDLING ROUTINE IS NOT A JOB IN ITSELF,
000440:                                                                                                  #  BUT RATHER A SUBROUTINE OF THE EXECUTIVE.
000441:
000442: 01,3223     1361                                  EBANK=   SELFRET                               #  SELF-CHECK STORAGE IN EBANK.
000443:
000444: 01,3223           44714        DUMMYJOB           CS       ZERO                                  #  SET NEWJOB TO -0 FOR IDLING.
000445: 01,3224           54067                           TS       NEWJOB
000446: 01,3225           00003                           RELINT
000447: 01,3226           44711                           CS       TWO                                   #  TURN OFF THE ACTIVITY LIGHT.
000448: 01,3227           00006                           EXTEND
000449: 01,3230           03011                           WAND     DSALMOUT
000450: 01,3231           10067        ADVAN              CCS      NEWJOB                                #  IS A NEWJOB ACTIVE ?
000451: 01,3232           13032                           TCF      NUCHANG2                              #  YES... ONE REQUIRING A CHANGE JOB.
000452: 01,3233           34711                           CAF      TWO                                   #  NEW JOB ALREADY IN POSITION FOR
000453: 01,3234           13242                           TCF      NUDIRECT                              #  EXECUTION.
000454:
000455: 01,3235           31361                           CA       SELFRET
000456: 01,3236           54001                           TS       L                                     #  PUT RETURN ADDRESS IN L.
000457: 01,3237           33241                           CAF      SELFBANK
000458: 01,3240           15123                           TCF      SUPDXCHZ   +          1               #   AND DISPATCH JOB.
000459:
000460: 01,3241     1361                                  EBANK=   SELFRET
000461: 01,3241           66102        SELFBANK           BBCON    SELFCHK
000462:
000463: 01,3242           00006        NUDIRECT           EXTEND                                         #  TURN THE GREEN LIGHT BACK ON.
000464: 01,3243           05011                           WOR      DSALMOUT
000465: 01,3244           52165                           DXCH     LOC                                   #  JOBS STARTED IN THIS FASHION MUST BE
000466: 01,3245           15122                           TCF      SUPDXCHZ
000467:
000468:    5122                                           BLOCK    2                                     #  IN FIXED-FIXED SO OTHERS MAY USE.
000469:
000470:    5122                                           COUNT    02/EXEC
000471:
000472:                                                                                                  #  SUPDXCHZ - ROUTINE TO TRANSFER TO SUPERBANK.
000473:                                                                                                  #  CALLING SEQUENCE
000474:                                                                                                  #                TCF     SUPDXCHZ        WITH 2CADR OF DESIRED LOCATION IN A + L.
000475:
000476:    5122           56001        SUPDXCHZ           XCH      L                                     #  BASIC.
000477:    5123           00006                 +1        EXTEND
000478:    5124           01007                           WRITE    SUPERBNK
000479:    5125           54006                           TS       BBANK
000480:    5126           00001                           TC       L
000481:
000482:    5127           77677        NEG100             OCT      77677

End of include-file EXECUTIVE.agc.  Parent file is MAIN.agc


