
Source Code


000002:                                                                                                  #  Copyright:    Public domain.
000003:                                                                                                  #  Filename:     GROUND_TRACKING_DETERMINATION_PROGRAM_-_P21.agc
000004:                                                                                                  #  Purpose:      Part of the source code for Colossus build 237.
000005:                                                                                                  #                This is for the Command Module's (CM) Apollo Guidance
000006:                                                                                                  #                Computer (AGC), we believe for Apollo 8.
000007:                                                                                                  #  Assembler:    yaYUL
000008:                                                                                                  #  Contact:      Jim Lawton <jim DOT lawton AT gmail DOT com>
000009:                                                                                                  #  Website:      www.ibiblio.org/apollo/index.html
000010:                                                                                                  #  Page scans:   www.ibiblio.org/apollo/ScansForConversion/Colossus237/
000011:                                                                                                  #  Mod history:  2011-02-02 JL   Adapted from corresponding Colossus 249 file.
000012:
000013:                                                                                                  # # Page 447
000014:                                                                                                  #  GROUND TRACKING DETERMINATION PROGRAM P21
000015:                                                                                                  #  PROGRAM DESCRIPTION
000016:                                                                                                  #  MOD NO - 1
000017:                                                                                                  #  MOD BY - N.M.NEVILLE
000018:                                                                                                  #  FUNCTIONAL DESCRIPTION-
000019:
000020:                                                                                                  #  TO PROVIDE THE ASTRONAUT DETAILS OF THE LM OR CSM GROUND TRACK WITHOUT
000021:                                                                                                  #  THE NEED FOR GROUND COMMUNICATION (REQUESTED BY DSKY).
000022:                                                                                                  #  CALLING SEQUENCE-
000023:
000024:                                                                                                  #  ASTRONAUT REQUEST THROUGH DSKY V37E21E
000025:                                                                                                  #  SUBROUTINES CALLED-
000026:
000027:                                                                                                  #  GOPERF4
000028:                                                                                                  #  GOFLASH
000029:                                                                                                  #  THISPREC
000030:                                                                                                  #  OTHPREC
000031:                                                                                                  #  LAT-LONG
000032:                                                                                                  #  NORMAL EXIT MODES-
000033:
000034:                                                                                                  #  ASTRONAUT REQUEST THROUGH DSKY TO TERMINATE PROGRAM V34E
000035:                                                                                                  #  ALARM OR ABORT EXIT MODES-
000036:
000037:                                                                                                  #  NONE
000038:                                                                                                  #  OUTPUT-
000039:
000040:                                                                                                  #  OCTAL DISPLAY OF OPTION CODE AND VEHICLE WHOSE GROUND TRACK IS TO BE
000041:                                                                                                  #  COMPUTED
000042:                                                                                                  #           OPTION CODE  00002
000043:                                                                                                  #           THIS         00001
000044:                                                                                                  #           OTHER        00002
000045:                                                                                                  #  DECIMAL DISPLAY OF TIME TO BE INTEGRATED TO HOURS , MINUTES , SECONDS
000046:                                                                                                  #  DECIMAL DISPLAY OF LAT,LONG,ALT
000047:                                                                                                  #  ERASABLE INITIALIZATION REQUIRED
000048:
000049:                                                                                                  #  AX0      2DEC   4.652459653 E-5   RADIANS       $68-69 CONSTANTS"
000050:
000051:                                                                                                  #  -AY0     2DEC   2.147535898 E-5   RADIANS
000052:
000053:                                                                                                  #  AZ0      2DEC   .7753206164       REVOLUTIONS
000054:                                                                                                  #  FOR LUNAR ORBITS 504LM VECTOR IS NEEDED
000055:
000056:                                                                                                  #  504LM    2DEC   -2.700340600 E-5  RADIANS
000057:
000058:                                                                                                  #  504LM _2 2DEC   -7.514128400 E-4  RADIANS
000059:
000060:                                                                                                  #  504LM _4 2DEC   _2.553198641 E-4  RADIANS
000061:
000062:                                                                                                  #        NONE
000063:                                                                                                  #  DEBRIS
000064:                                                                                                  # # Page 448
000065:
000066:                                                                                                  #  CENTRALS-A,Q,L
000067:                                                                                                  #  OTHER-THOSE USED BY THE ABOVE LISTED SUBROUTINES
000068:                                                                                                  #  SEE LEMPREC,LAT-LONG
000069: ???????  30,2000                                  SBANK=   LOWSUPER                              #  FOR LOW 2CADR'S.
000070:
000071: 33,3773                                           BANK     33
000072: 37,2000                                           SETLOC   P20S
000073: 37,2000                                           BANK
000074:
000075: 37,2001  E4,1715                                  EBANK=   P21TIME
000076: 37,2001                                           COUNT    24/P21
000077:
000078: 37,2001           34712        PROG21             CAF      ONE
000079: 37,2002           55132                           TS       OPTION2                               #  ASSUMED VEHICLE IS LM , R2 = 00001
000080: 37,2003           34711                           CAF      BIT2                                  #   OPTION 2
000081: 37,2004           04555                           TC       BANKCALL
000082: 37,2005           20761                           CADR     GOPERF4
000083: 37,2006           04106                           TC       GOTOPOOH                              #  TERMINATE
000084: 37,2007           02011                           TC       +2                                    #  PROCEED VALUE OF ASSUMED VEHICLE OK
000085: 37,2010           02003                           TC       -5                                    #  R2 LOADED THROUGH DSKY
000086: 37,2011           32102        P21PROG1           CAF      V6N34                                 #  LOAD DESIRED TIME OF LAT-LONG.
000087: 37,2012           04555                           TC       BANKCALL
000088: 37,2013           20624                           CADR     GOFLASH
000089: 37,2014           04106                           TC       GOTOPOOH                              #  TERM
000090: 37,2015           02017                           TC       +2                                    #  PROCEED VALUES OK
000091: 37,2016           02011                           TC       -5                                    #  TIME LOADED THROUGH DSKY
000092: 37,2017           06006                           TC       INTPRET
000093: 37,2020           77745                           DLOAD
000094: 37,2021           01046                                    DSPTEM1
000095: 37,2022           02316                           STORE    P21TIME
000096: 37,2023           45335                           SLOAD    DSU
000097: 37,2024           01133                                    OPTION2
000098: 37,2025           36100                                    P21ONENN
000099: 37,2026           71230                           BHIZ     DLOAD
000100: 37,2027           76042                                    P21PROG2                              #  VEHICLE TO BE INTEGRATED IS LEM
000101: 37,2030           02316                                    P21TIME                               #  VEHICLE TO BE INTEGRATED IS CSM
000102: 37,2031           34041                           STCALL   TDEC1                                 #  INTEGRATE TO TIME SPECIFIED IN TDEC
000103: 37,2032           27036                                    OTHPREC                               #  ADJUST UNITS FOR LAT-LONG ROUTINE
000104: 37,2033           46135        P21PROGA           SLOAD    BHIZ
000105: 37,2034           00050                                    X2
000106: 37,2035           76050                                    P21PROG3
000107: 37,2036           43175                           VLOAD    SETGO
000108: 37,2037           00001                                    RATT
000109: 37,2040           01423                                    LUNAFLAG
000110: 37,2041           76053                                    P21PROG4
000111: 37,2042           77745        P21PROG2           DLOAD
000112: 37,2043           02316                                    P21TIME
000113: 37,2044           34041                           STCALL   TDEC1
000114: 37,2045           27022                                    THISPREC
000115:                                                                                                  # # Page 449
000116: 37,2046           77650                           GOTO
000117: 37,2047           76033                                    P21PROGA
000118: 37,2050           43175        P21PROG3           VLOAD    CLEAR
000119: 37,2051           00001                                    RATT
000120: 37,2052           01663                                    LUNAFLAG
000121: 37,2053           16152        P21PROG4           STODL    ALPHAV
000122: 37,2054           00015                                    TAT
000123: 37,2055           45014                           CLEAR    CALL
000124: 37,2056           00662                                    ERADFLAG
000125: 37,2057           26322                                    LAT-LONG
000126: 37,2060           77776                           EXIT
000127: 37,2061           32101                           CAF      V06N43                                #  DISPLAY LAT,LONG,ALT
000128: 37,2062           04555                           TC       BANKCALL                              #  LAT,LONG = 1/2 REVS B0
000129: 37,2063           20624                           CADR     GOFLASH                               #  ALT = KM  B14
000130: 37,2064           04106                           TC       GOTOPOOH                              #  TERM
000131: 37,2065           04106                           TC       GOTOPOOH
000132: 37,2066           06006                           TC       INTPRET                               #  V32E RECYCLE
000133: 37,2067           43345                           DLOAD    DAD
000134: 37,2070           02316                                    P21TIME
000135: 37,2071           36076                                    600SEC                                #  600 SECONDS OR 10 MIN
000136: 37,2072           01046                           STORE    DSPTEM1
000137: 37,2073           77634                           RTB
000138: 37,2074           76011                                    P21PROG1
000139:
000140: 37,2075           00003 25140  600SEC             2DEC     60000      B-28                       #  10 MIN
000141: 37,2077           00001        P21ONENN           OCT      00001                                 #  NEEDED TO DETERMINE VEHICLE
000142: 37,2100           00000                           OCT      00000                                 #  TO BE INTEGRATED
000143: 37,2101           01453        V06N43             VN       00643
000144: 37,2102           01442        V6N34              VN       00634

End of include-file GROUND_TRACKING_DETERMINATION_PROGRAM_-_P21.agc.  Parent file is MAIN.agc


