
Source Code


000002:                                                                                                  ## Copyright:   Public domain.
000003:                                                                                                  ## Filename:    IMU_CALIBRATION_AND_ALIGNMENT.agc
000004:                                                                                                  ## Purpose:     Part of the source code for Colossus build 237.
000005:                                                                                                  ##              This is for the Command Module's (CM) Apollo Guidance
000006:                                                                                                  ##              Computer (AGC), for Apollo 8.
000007:                                                                                                  ## Assembler:   yaYUL
000008:                                                                                                  ## Contact:     Jim Lawton <jim DOT lawton AT gmail DOT com>
000009:                                                                                                  ## Website:     www.ibiblio.org/apollo/index.html
000010:                                                                                                  ## Page Scans:  www.ibiblio.org/apollo/ScansForConversion/Colossus237/
000011:                                                                                                  ## Mod history: 2011-01-27 JL   Adapted from corresponding Colossus 249 file.
000012:                                                                                                  ##              2016-12-30 RSB  Proofed comment text using octopus/ProoferComments,
000013:                                                                                                  ##                              and corrected errors found.
000014:


000016:                                                                                                  #  NAME- IMU PERFORMANCE TESTS 2
000017:
000018:                                                                                                  #  DATE- MARCH 20,1967
000019:
000020:                                                                                                  #  BY- SYSTEM TEST GROUP 864-6900 EXT. 1274
000021:
000022:                                                                                                  #  MODNO.- ZERO
000023:
000024:                                                                                                  #  FUNCTIONAL DESCRIPTION
000025:
000026:                                                                                                  #  POSITIONING ROUTINES FOR THE IMU PERFORMANCE TESTS AS WELL AS SOME OF
000027:                                                                                                  #  THE TESTS THEMSELVES. FOR A DESCRIPTION OF THESE SUBROUTINES AND THE
000028:                                                                                                  #  OPERATING PROCEDURES (TYPICALLY) SEE STG MEMO 685.THEORETICAL REF.E-1973
000029:
000030: 33,2004                                           BANK     33
000031: 33,2000                                           SETLOC   IMUCAL
000032: 33,2000                                           BANK
000033:
000034: 33,2004  E5,1423                                  EBANK=   POSITON
000035: 33,2004           34714        IMUTEST            CA       ZERO
000036: 33,2005           55452                           TS       DRIFTT
000037: 33,2006           55643                           TS       GEOCOMP1
000038: 33,2007           32443                           CAF      TESTTIME
000039: 33,2010           55412                           TS       LENGTHOT
000040: 33,2011           02302                           TC       COAALIGN                              #  TAKE CARE OF DRIFT FLAG
000041: 33,2012           34734                           CAF      1SECX
000042: 33,2013           55644                           TS       1SECXT1
000043:
000044: 33,2014           32441                           CA       OC14400
000045: 33,2015           55074                           TS       1/PIPADT
000046: 33,2016           06006        GUESS              TC       INTPRET                               #  CALCULATE -COS LATITUDE AND SIN LATITUDE
000047: 33,2017           77624                           CALL
000048: 33,2020           10617                                    LATAZCHK
000049: 33,2021           57546                           COS      DCOMP
000050: 33,2022           77752                           SL1
000051: 33,2023           16447                           STODL    WANGI
000052: 33,2024           02403                                    LATITUDE
000053: 33,2025           72556                           SIN      SL1
000054: 33,2026           02445                           STORE    WANGO
000055: 33,2027           77776                           EXIT
000056: 33,2030           04555        GEOIMUTT           TC       BANKCALL                              #  GYROCOMPASS COMES IN HERE
000057: 33,2031           16516                           CADR     IMUZERO
000058: 33,2032           02316                           TC       IMUSTLLG
000059: 33,2033           34714        IMUBACK            CA       ZERO
000060: 33,2034           55421                           TS       NDXCTR
000061: 33,2035           55450                           TS       TORQNDX
000062: 33,2036           55451                           TS       TORQNDX    +1
000063: 33,2037           34375        NBPOSPL            CA       DEC17
000064: 33,2040           55655                           TS       ZERONDX1
000065: 33,2041           32445                           CA       XNBADR


000067: 33,2042           02356                           TC       ZEROING
000068: 33,2043           34675                           CA       HALF
000069: 33,2044           55713                           TS       XNB
000070: 33,2045           06006                           TC       INTPRET
000071: 33,2046           73545                           DLOAD    SIN
000072: 33,2047           02401                                    AZIMUTH
000073: 33,2050           02724                           STORE    YNB        +2
000074: 33,2051           16734                           STODL    ZNB        +4
000075: 33,2052           02401                                    AZIMUTH
000076: 33,2053           77746                           COS
000077: 33,2054           02726                           STORE    YNB        +4
000078: 33,2055           77676                           DCOMP
000079: 33,2056           02732                           STORE    ZNB        +2
000080: 33,2057           77776                           EXIT
000081: 33,2060           05253                           TC       CHECKMM
000082: 33,2061           00003                           MM       03         B-14                       #    SEE IF IN OPTICAL VERIFICATION
000083: 33,2062           12064                           TCF      +2                                    #   NO
000084: 33,2063           13433                           TCF      SETNBPOS   +1                         #     YES
000085: 33,2064           06006                           TC       INTPRET
000086: 33,2065           77624                           CALL
000087: 33,2066           47244                                    CALCGA
000088: 33,2067           77776                           EXIT
000089: 33,2070           04555                           TC       BANKCALL
000090: 33,2071           16602                           CADR     IMUCOARS
000091: 33,2072           34675                           CAF      BIT14                                 #  IF BIT14 SET, GIMBAL LOCK
000092: 33,2073           70077                           MASK     FLAGWRD3
000093: 33,2074           00006                           EXTEND
000094: 33,2075           12077                           BZF      +2
000095: 33,2076           25421                           INCR     NDXCTR                                #  +1 IF IN GIMBAL LOCK,OTHERWISE 0
000096: 33,2077           05447                           TC       DOWNFLAG                              #  RESET GIMBAL LOCK FLAG
000097: 33,2100           00056                           ADRES    GLOKFAIL                              #  BIT 14 FLAG 3
000098: 33,2101           02316                           TC       IMUSTLLG
000099: 33,2102           11421                           CCS      NDXCTR                                #  IF ONE GO AND DO A PIPA TEST ONLY
000100: 33,2103           02131                           TC       PIPACHK                               #  ALIGN AND MEASURE VERTICAL PIPA RATE
000101: 33,2104           04555                           TC       BANKCALL
000102: 33,2105           17012                           CADR     IMUFINE
000103: 33,2106           02316                           TC       IMUSTLLG
000104: 33,2107           00006                           EXTEND
000105: 33,2110           31657                           DCA      PERFDLAY
000106: 33,2111           05231                           TC       LONGCALL
000107: 33,2112  E5,1423                                  EBANK=   POSITON
000108: 33,2112           02116 66065                     2CADR    GOESTIMS
000109:
000110: 33,2114           32121                           CA       ESTICADR
000111: 33,2115           05070                           TC       JOBSLEEP
000112: 33,2116           32121        GOESTIMS           CA       ESTICADR
000113: 33,2117           05074                           TC       JOBWAKE
000114: 33,2120           05213                           TC       TASKOVER
000115: 33,2121           66453        ESTICADR           CADR     ESTIMS


000117: 33,2122           34714        TORQUE             CA       ZERO
000118: 33,2123           55050                           TS       DSPTEM2
000119: 33,2124           31514                           CA       DRIFTI
000120: 33,2125           55051                           TS       DSPTEM2    +1
000121: 33,2126           51423                           INDEX    POSITON
000122: 33,2127           55430                           TS       SOUTHDR    -1
000123: 33,2130           02427                           TC       SHOW
000124:
000125: 33,2131           51421        PIPACHK            INDEX    NDXCTR                                #  PIPA TEST
000126: 33,2132           02133                           TC       +1
000127: 33,2133           02417                           TC       EARTHR*
000128: 33,2134           34374                           CA       DEC57
000129: 33,2135           55412                           TS       LENGTHOT
000130: 33,2136           34712                           CA       ONE
000131: 33,2137           55547                           TS       RESULTCT
000132: 33,2140           34714                           CA       ZERO
000133: 33,2141           51422                           INDEX    PIPINDEX
000134: 33,2142           54037                           TS       PIPAX
000135: 33,2143           55502                           TS       DATAPL
000136: 33,2144           55506                           TS       DATAPL     +4
000137: 33,2145           02321                           TC       CHECKG                                #  PIP PULSE CATCHING ROUTINE
000138: 33,2146           00004                           INHINT
000139: 33,2147           34711                           CAF      TWO
000140: 33,2150           05130                           TC       TWIDDLE
000141: 33,2151  E5,1671                                  EBANK=   XSM
000142: 33,2151           02153                           ADRES    PIPATASK
000143: 33,2152           05112                           TC       ENDOFJOB
000144: 33,2153           00006        PIPATASK           EXTEND
000145: 33,2154           27412                           DIM      LENGTHOT
000146: 33,2155           31412                           CA       LENGTHOT
000147: 33,2156           00006                           EXTEND
000148: 33,2157           62163                           BZMF     STARTPIP
000149: 33,2160           34701                           CAF      BIT10
000150: 33,2161           05130                           TC       TWIDDLE
000151: 33,2162  E5,1671                                  EBANK=   XSM
000152: 33,2162           02153                           ADRES    PIPATASK
000153: 33,2163           34675        STARTPIP           CAF      PRIO20
000154: 33,2164           05042                           TC       FINDVAC
000155: 33,2165  E5,1671                                  EBANK=   XSM
000156: 33,2165           02170 66065                     2CADR    PIPJOBB
000157: 33,2167           05213                           TC       TASKOVER
000158: 33,2170           51421        PIPJOBB            INDEX    NDXCTR
000159: 33,2171           02172                           TC       +1
000160: 33,2172           02417                           TC       EARTHR*
000161: 33,2173           31412                           CA       LENGTHOT
000162: 33,2174           00006                           EXTEND
000163: 33,2175           62177                           BZMF     +2
000164: 33,2176           05112                           TC       ENDOFJOB
000165: 33,2177           34715                           CA       FIVE


000167: 33,2200           55547                           TS       RESULTCT
000168: 33,2201           02321                           TC       CHECKG
000169: 33,2202           00006                           EXTEND
000170: 33,2203           41503                           DCS      DATAPL
000171: 33,2204           21507                           DAS      DATAPL     +4
000172:
000173: 33,2205           06006                           TC       INTPRET
000174: 33,2206           45345                           DLOAD    DSU
000175: 33,2207           02511                                    DATAPL     +6
000176: 33,2210           02505                                    DATAPL     +2
000177: 33,2211           45044                           BPL      CALL
000178: 33,2212           66214                                    AINGOTN
000179: 33,2213           66276                                    OVERFFIX
000180: 33,2214           56325        AINGOTN            PDDL     DDV
000181: 33,2215           02507                                    DATAPL     +4
000182: 33,2216           57212                           SL4      DMPR
000183: 33,2217           27112                                    DEC585                                #  DEC585 HAS BEEN REDEFINED FOR LEM
000184: 33,2220           77634                           RTB
000185: 33,2221           45541                                    SGNAGREE
000186: 33,2222           01051                           STORE    DSPTEM2
000187: 33,2223           77776                           EXIT
000188: 33,2224           11421                           CCS      NDXCTR
000189: 33,2225           02302                           TC       COAALIGN                              #   TAKE PLATFORM OUT OF GIMBAL LOCK
000190: 33,2226           02427                           TC       SHOW
000191: 33,2227           32447        VERTDRFT           CA       3990DEC                               #   ABOUT 1 HOUR VERTICAL DRIFT TEST
000192: 33,2230           55412                           TS       LENGTHOT
000193: 33,2231           51423                           INDEX    POSITON
000194: 33,2232           41427                           CS       SOUTHDR    -2
000195: 33,2233           55452                           TS       DRIFTT
000196: 33,2234           31675                           CA       XSM        +4                         #  0 IF POSN 4
000197: 33,2235           00006                           EXTEND
000198: 33,2236           12244                           BZF      PON2
000199: 33,2237           44706        PON4               CS       BIT5                                  #        OFFSET PLATFORM
000200: 33,2240           27651                           ADS      ERCOMP1    +2
000201: 33,2241           34706                           CA       BIT5
000202: 33,2242           27647                           ADS      ERCOMP1
000203: 33,2243           12250                           TCF      PONG
000204: 33,2244           44706        PON2               CS       BIT5
000205: 33,2245           27651                           ADS      ERCOMP1    +2
000206: 33,2246           34706                           CA       BIT5
000207: 33,2247           27653                           ADS      ERCOMP1    +4
000208: 33,2250           02417        PONG               TC       EARTHR*
000209: 33,2251           34714                           CA       ZERO                                  #  ALLOW ONLY SOUTH GYRO EARTH RATE COMPENS
000210: 33,2252           55404                           TS       ERVECTOR
000211: 33,2253           55405                           TS       ERVECTOR   +1
000212: 33,2254           34672        GUESS1             CAF      POSMAX
000213: 33,2255           55450                           TS       TORQNDX
000214: 33,2256           55451                           TS       TORQNDX    +1
000215: 33,2257           30032                           CA       CDUX
000216: 33,2260           55413                           TS       LOSVEC


000218: 33,2261           02453                           TC       ESTIMS
000219: 33,2262           31512        VALMIS             CA       DRIFTO
000220: 33,2263           55051                           TS       DSPTEM2    +1
000221: 33,2264           34714                           CA       ZERO
000222: 33,2265           55050                           TS       DSPTEM2
000223: 33,2266           02427                           TC       SHOW
000224:
000225:
000226: 33,2267           05447        ENDTEST1           TC       DOWNFLAG                              #  IMU NOT IN USE
000227: 33,2270           00007                           ADRES    IMUSE                                 #  BIT 8 FLAG 0
000228: 33,2271           44714                           CS       ZERO
000229: 33,2272           05246                           TC       NEWMODEX   +3
000230: 33,2273           04555                           TC       BANKCALL
000231: 33,2274           16063                           CADR     MKRELEAS
000232: 33,2275           05423                           TC       ENDEXT
000233:


000235: 33,2276           43215        OVERFFIX           DAD      DAD
000236: 33,2277           15340                                    DPPOSMAX
000237: 33,2300           27120                                    ONEDPP
000238: 33,2301           77616                           RVQ
000239:
000240:
000241: 33,2302           00006        COAALIGN           EXTEND                                         #   COARSE ALIGN SUBROUTINE
000242: 33,2303           23425                           QXCH     QPLACE
000243: 33,2304           34714                           CA       ZERO
000244: 33,2305           55155                           TS       THETAD
000245: 33,2306           55156                           TS       THETAD     +1
000246: 33,2307           55157                           TS       THETAD     +2
000247: 33,2310           04555                           TC       BANKCALL
000248: 33,2311           16602                           CADR     IMUCOARS
000249: 33,2312           04555                           TC       BANKCALL
000250: 33,2313           17516                           CADR     IMUSTALL
000251: 33,2314           03104                           TC       SOMERR2
000252: 33,2315           01425                           TC       QPLACE
000253:
000254:
000255: 33,2316           00006        IMUSTLLG           EXTEND
000256: 33,2317           23425                           QXCH     QPLACE
000257: 33,2320           02312                           TC       COAALIGN   +10
000258:
000259:
000260: 33,2321           00006        CHECKG             EXTEND                                         #  PIP PULSE CATCHING ROUTINE
000261: 33,2322           23425                           QXCH     QPLACE
000262: 33,2323           02331                           TC       +6
000263: 33,2324           00003        CHECKG1            RELINT
000264: 33,2325           30067                           CA       NEWJOB
000265: 33,2326           00006                           EXTEND
000266: 33,2327           62335                           BZMF     +6
000267: 33,2330           05057                           TC       CHANG1
000268: 33,2331           00004                           INHINT
000269: 33,2332           51422                           INDEX    PIPINDEX
000270: 33,2333           40037                           CS       PIPAX
000271: 33,2334           55655                           TS       ZERONDX
000272: 33,2335           00004                           INHINT
000273: 33,2336           51422                           INDEX    PIPINDEX
000274: 33,2337           30037                           CA       PIPAX
000275: 33,2340           61430                           AD       STOREPL
000276: 33,2341           00006                           EXTEND
000277: 33,2342           12324                           BZF      CHECKG1
000278: 33,2343           51422                           INDEX    PIPINDEX
000279: 33,2344           30037                           CA       PIPAX
000280: 33,2345           51547                           INDEX    RESULTCT
000281: 33,2346           55502                           TS       DATAPL
000282: 33,2347           04526                           TC       FINETIME
000283: 33,2350           51547                           INDEX    RESULTCT
000284: 33,2351           55503                           TS       DATAPL     +1


000286: 33,2352           51547                           INDEX    RESULTCT
000287: 33,2353           23504                           LXCH     DATAPL     +2
000288: 33,2354           00003                           RELINT
000289: 33,2355           01425        ENDCHKG            TC       QPLACE
000290:
000291:
000292: 33,2356           54001        ZEROING            TS       L
000293: 33,2357           12361                           TCF      +2
000294: 33,2360           55655        ZEROING1           TS       ZERONDX1
000295: 33,2361           34714                           CAF      ZERO
000296: 33,2362           50001                           INDEX    L
000297: 33,2363           54000                           TS       0
000298: 33,2364           24001                           INCR     L
000299: 33,2365           11655                           CCS      ZERONDX1
000300: 33,2366           12360                           TCF      ZEROING1
000301: 33,2367           00002                           TC       Q
000302:


000304: 32,2000                                           SETLOC   IMUCAL3
000305: 32,2000                                           BANK
000306: 32,2000           65345        ERTHRVSE           DLOAD    PDDL
000307: 32,2001           27113                                    SCHZEROS                              #  PD24 = (SIN          -COS    0)(OMEG/MS)
000308: 32,2002           02403                                    LATITUDE
000309: 32,2003           57546                           COS      DCOMP
000310: 32,2004           73525                           PDDL     SIN
000311: 32,2005           02403                                    LATITUDE
000312: 32,2006           74266                           VDEF     VXSC
000313: 32,2007           26450                                    OMEG/MS
000314: 32,2010           02405                           STORE    ERVECTOR
000315: 32,2011           77634                           RTB
000316: 32,2012           45505                                    LOADTIME
000317: 32,2013           26443                           STOVL    TMARK
000318: 32,2014           27113                                    SCHZEROS
000319: 32,2015           02650                           STORE    ERCOMP1
000320: 32,2016           77616                           RVQ
000321: 33,2000                                           SETLOC   IMUCAL
000322: 33,2000                                           BANK
000323: 33,2370           47020        EARTHR             ITA      RTB                                   #  CALCULATES AND COMPENSATES EARTH RATE
000324: 33,2371           00051                                    S2
000325: 33,2372           45505                                    LOADTIME
000326: 33,2373           02441                           STORE    TEMPTIME
000327: 33,2374           51025                           DSU      BPL
000328: 33,2375           02443                                    TMARK
000329: 33,2376           66401                                    ERTHR
000330: 33,2377           77624                           CALL
000331: 33,2400           66276                                    OVERFFIX
000332: 33,2401           74261        ERTHR              SL       VXSC
000333: 33,2402           20212                                    9D
000334: 33,2403           02405                                    ERVECTOR
000335: 33,2404           53321                           MXV      VAD
000336: 33,2405           02672                                    XSM
000337: 33,2406           02650                                    ERCOMP1
000338: 33,2407           16650                           STODL    ERCOMP1
000339: 33,2410           02441                                    TEMPTIME
000340: 33,2411           02443                           STORE    TMARK
000341: 33,2412           47170                           AXT,1    RTB
000342: 33,2413           02647                           ECADR    ERCOMP1
000343: 33,2414           45650                                    PULSEIMU
000344: 33,2415           77650                           GOTO
000345: 33,2416           00051                                    S2
000346: 33,2417           00006        EARTHR*            EXTEND
000347: 33,2420           23426                           QXCH     QPLACES
000348: 33,2421           06006                           TC       INTPRET
000349: 33,2422           77624                           CALL
000350: 33,2423           66370                                    EARTHR
000351: 33,2424           77776        PROUT              EXIT
000352: 33,2425           02316                           TC       IMUSTLLG
000353: 33,2426           01426                           TC       QPLACES


000355: 33,2427           00006        SHOW               EXTEND
000356: 33,2430           23425                           QXCH     QPLACE
000357: 33,2431           31423        SHOW1              CA       POSITON
000358: 33,2432           55052                           TS       DSPTEM2    +2
000359: 33,2433           32442                           CA       VB06N98
000360: 33,2434           04555                           TC       BANKCALL
000361: 33,2435           20624                           CADR     GOFLASH
000362: 33,2436           02267                           TC       ENDTEST1                              #  V 34
000363: 33,2437           01425                           TC       QPLACE                                #   V33
000364: 33,2440           12431                           TCF      SHOW1
000365:
000366: 33,2441           14400        OC14400            OCT      14400
000367: 33,2442  33,2447               3990DEC            =        OMEG/MS
000368: 33,2442           01542        VB06N98            VN       0698
000369: 33,2443           01602        TESTTIME           OCT      01602
000370: 33,2444     4375               DEC17              =        ND1
000371: 33,2444           02757        OGCPL              ECADR    OGC
000372: 33,2445     4734               1SECX              =        1SEC
000373: 33,2445     4374               DEC57              =        VD1
000374: 33,2445           01713        XNBADR             GENADR   XNB
000375: 33,2446           01671        XSMADR             GENADR   XSM
000376: 33,2447           07623 26552  OMEG/MS            2DEC     .24339048
000377:
000378:
000379: 33,2451           04555        P11OUT             TC       BANKCALL
000380: 33,2452           70127                           CADR     MATRXJOB                              #  RETURN TO P11
000381:
000382: 33,2453                                           COUNT    02/COMST
000383:
000384:    4526                                           BLOCK    2
000385:    4526           00004        FINETIME           INHINT                                         #  RETURNS WITH INTERRUPT INHIBITED
000386:    4527           00006                           EXTEND
000387:    4530           00004                           READ     LOSCALAR
000388:    4531           54001                           TS       L
000389:    4532           00006                           EXTEND
000390:    4533           06004                           RXOR     LOSCALAR
000391:    4534           00006                           EXTEND
000392:    4535           14541                           BZF      +4
000393:    4536           00006                           EXTEND
000394:    4537           00004                           READ     LOSCALAR
000395:    4540           54001                           TS       L
000396:    4541           44672                 +4        CS       POSMAX
000397:    4542           60001                           AD       L
000398:    4543           00006                           EXTEND
000399:    4544           14527                           BZF      FINETIME   +1
000400:    4545           00006                           EXTEND
000401:    4546           00003                           READ     HISCALAR
000402:    4547           00002                           TC       Q
000403:


000405:                                                                                                  #  PROGRAM NAME-OPTIMUM PRELAUNCH ALIGNMENT CALIBRATION
000406:                                                                                                  #  DATE- NOVEMBER 2  1966
000407:                                                                                                  #  BY- GEORGE SCHMIDT IL 7-146 EXT. 126
000408:                                                                                                  #  MOD NO 3
000409:                                                                                                  #  FUNCTIONAL DESCRIPTION
000410:
000411:                                                                                                  #  THIS     SECTION CONSISTS OF PRELAUNCH ALIGNMENT AND GYRO DRIFT TESTS
000412:                                                                                                  #  INTEGRATED TOGETHER TO SAVE WORDS. COMPASS IS COMPLETELY RESTART
000413:                                                                                                  #  PROOFED EXCEPT FOR THE FIRST 30 SECONDS OR SO.  PERFORMANCE TESTS OF
000414:                                                                                                  #  THE IRIGS IS RESTART PROOFED ENOUGH TO GIVE 75 PERCENT CONFIDENCE THAT
000415:                                                                                                  #  IF A RESTART OCCURS THE DATA WILL STILL BE GOOD. GOOD PRACTICE TO RECYCL
000416:                                                                                                  #  WHEN A RESTART OCCURS UNLESS IT HAPPENS NEAR THE END OF A TEST-THEN WAIT
000417:                                                                                                  #  FOR THE DATA TO FLASH.
000418:                                                                                                  #  A RESTART IN GYROCOMPASS DURING GYRO TORQUING CAUSES PULSES TO BE LOST
000419:                                                                                                  #  THE PRELAUNCH ALIGNMENT TECHNIQUE IS BASICALLY THE SAME AS IN BLOCK 1
000420:                                                                                                  #  EXCEPT THAT IT HAS BEEN SIMPLIFIED IN THE SENSE THAT SMALL ANGLE APPROX.
000421:                                                                                                  #  HAVE BEEN USED. THE DRIFT TESTS USE A UNIQUE IMPLEMENTATION OF THE
000422:                                                                                                  #  OPTIMUM STATISTICAL FILTER. FOR A DESCRIPTION SEE E-1973.BOTH OF THESE
000423:                                                                                                  #  ROUTINES USE STANDARD SYSTEM TEST LEADIN PROCEDURES. THE INITIALIZATION
000424:                                                                                                  #  PROCEDURE FOR THE DRIFT TESTS IS IN THE JDC S. THE INITIALIZATION METHOD
000425:                                                                                                  #  FOR GYROCOMPASS IS AN ERAS LOAD THEN A MISSION PHASE CALL.
000426:                                                                                                  #  THE COMPASS ALIGNS TO Z DOWN,X DOWNRANGE, HAS THE CAPABILITY
000427:                                                                                                  #  CHANGE AZIMUTH WHILE RUNNING , IS COMPENSATED FOR
000428:                                                                                                  #  COMPONENT ERRORS,IS CAPABLE OF OPTICAL VERIFICATION( CSM ONLY).
000429:
000430:                                                                                                  #  COMPASS ERASABLE LOAD REQUIRED
000431:
000432:                                                                                                  #   1-LAUNCHAZ -DP AZIMUTH IN REV FROM NORTH OF XSM DESIRED      (NOM=.2)
000433:                                                                                                  #  2- LATITUDE -DP-OF LAUNCH PAD
000434:                                                                                                  #  3- AZIMUTH-DP-OF ZNB OF VEHICLE
000435:                                                                                                  #  4- IMU COMPENSATION PARAMETERS
000436:                                                                                                  #  5-AZ AND ELEVATION OF TARGETS 1,2     ****OPTIONAL****
000437:
000438:                                                                                                  #  TO PERFORM AS PART OF COMPASS
000439:
000440:                                                                                                  #  1-OPTICAL VERIFICATION- V 65 E
000441:                                                                                                  #  2-AZIMUTH CHANGE-V 78 E
000442:
000443:                                                                                                  #  SUBROUTINES CALLED
000444:
000445:                                                                                                  #  DURING OPTICAL VERIFICATION (CSM ONLY) ESSENTIALLY ALL OF INFLIGHT ALIGN
000446:                                                                                                  #  IS CALLED IN ONE WAY OR ANOTHER. SEE THE LISTING.
000447:
000448:                                                                                                  #  NORMAL EXIT
000449:
000450:                                                                                                  #  DRIFT TESTS- LENGTHOT GOES TO ZERO-RETURN TO IMU PERF TEST2 CONTROL
000451:                                                                                                  #  GYROCOMPASS-MANY,SEE THE LISTING
000452:                                                                                                  #  ALARMS
000453:
000454:                                                                                                  #  1600     OVERFLOW IN DRIFT TEST


000456:                                                                                                  #  1601     BAD IMU TORQUE ABORT
000457:                                                                                                  #  1602     BAD OPTICS DURING VERIFICATION-RETURN TO COMPASS      CSM ONLY
000458:
000459:                                                                                                  #  OUTPUT
000460:
000461:                                                                                                  #  DRIFT TESTS- FLASHING DISPLAYS OF RESULTS-CONTROLLED IN IMU PERF TESTS 2
000462:                                                                                                  #  COMPASS-PROGRAM MODE LIGHTS TELL YOU WHAT PHASE OF PROGRAM YOU ARE IN
000463:                                                                                                  #     01    INITIALIZING THE PLATFORM POSITION AND ERASABLE
000464:                                                                                                  #     02    GYROCOMPASSING
000465:                                                                                                  #     03    DOING OPTICAL VERIFICATION (CSM)
000466:
000467:
000468:                                                                                                  #  DEBRIS
000469:
000470:                                                                                                  #  ALL CENTRALS,ALL OF EBANK XSM
000471:


000473:                                                                                                  #   MOST OF THE ROUTINES COMMON TO ALIGNMENT AND CALIBRATION APPEAR
000474:                                                                                                  #   ON THE NEXT FEW PAGES.
000475:
000476:
000477:    4550                                           COUNT    33/P02
000478:
000479:    4550  E5,1671                                  EBANK=   XSM
000480: 33,2453                                           BANK     33
000481: 33,2000                                           SETLOC   IMUCAL
000482: 33,2000                                           BANK
000483:
000484: 33,2453           05261        ESTIMS             TC       2PHSCHNG                              #   COMES HERE FROM IMU2
000485: 33,2454           00075                           OCT      00075
000486: 33,2455           00004                           OCT      00004                                 #   TURN OFF GROUP 4 IF ON
000487: 33,2456           00004        RSTGTS1            INHINT                                         #   COMES HERE PHASE1 RESTART
000488: 33,2457           30025                           CA       TIME1
000489: 33,2460           55645                           TS       GTSWTLT1
000490: 33,2461           34714                           CAF      ZERO                                  #  ZERO THE PIPAS
000491: 33,2462           54037                           TS       PIPAX
000492: 33,2463           54040                           TS       PIPAY
000493: 33,2464           54041                           TS       PIPAZ
000494: 33,2465           00003                           RELINT
000495: 33,2466           33131                           CA       77DECML                               #   ZERO ALL NECESSARY LOCATIONS
000496: 33,2467           55655                           TS       ZERONDX1
000497: 33,2470           33132                           CA       ALXXXZ
000498: 33,2471           02356                           TC       ZEROING
000499: 33,2472           06006                           TC       INTPRET
000500: 33,2473           77735                           SLOAD
000501: 33,2474           27113                                    SCHZEROS
000502: 33,2475           25477                           STOVL    GCOMPSW    -1
000503: 33,2476           27124                                    INTVAL     +2                         #   LOAD SOME INITIAL DRIFT GAINS
000504: 33,2477           26455                           STOVL    ALX1S
000505: 33,2500           27113                                    SCHZEROS
000506: 33,2501           01472                           STORE    GCOMP
000507: 33,2502           01163                           STORE    DELVX                                 #   GCOMPZER SUBROUTINE NO LONGER NEEDED
000508: 33,2503           77776                           EXIT
000509:
000510: 33,2504           11643                           CCS      GEOCOMP1                              #  NON ZERO IF COMPASS.
000511: 33,2505           02507                           TC       +2
000512: 33,2506           02523                           TC       SLEEPIE    +1
000513: 33,2507           06006                           TC       INTPRET
000514: 33,2510           77624                           CALL
000515: 33,2511           64000                                    ERTHRVSE
000516: 33,2512           77776                           EXIT
000517: 33,2513           31412                           CA       LENGTHOT                              #    TIMES FIVE IS THE NUM OF SEC ERECTING
000518: 33,2514           55646                           TS       ERECTIME
000519:
000520: 33,2515           05243                           TC       NEWMODEX
000521: 33,2516           00002                           MM       02         B-14
000522: 33,2517           04555                           TC       BANKCALL                              #   SET UP PIPA FAIL TO CAUSE ISS ALARM


000524: 33,2520           17075                           CADR     PIPUSE                                #  COMPASS NEVER TURNS THIS OFF
000525: 33,2521           03377                           TC       ANNNNNN                               #  END OF FIRST TIME THROUGH
000526:


000528:                                                                                                  #   COMES HERE AT THE END OF EVERY ITERATION THROUGH DRIFT TEST OR COMPASS
000529:
000530:                                                                                                  #  SET UP WAITLIST SECTION
000531: 33,2522           55412        SLEEPIE            TS       LENGTHOT                              #  TEST NOT OVER-DECREMENT LENGTHOT
000532: 33,2523           05301                           TC       PHASCHNG                              #   CHANGE PHASE
000533: 33,2524           00135                           OCT      00135
000534: 33,2525           11450                           CCS      TORQNDX                               #  ARE WE DOING VERTDRIFT
000535: 33,2526           02417                           TC       EARTHR*                               #  TRUE TORQUE SOUTH GYRO
000536: 33,2527           03402        WTLISTNT           TC       CHKCOMED                              #         SEE IF COMPASS OVER
000537: 33,2530           02532                           TC       SETGWLST
000538: 33,2531           05112                           TC       ENDOFJOB
000539:
000540: 33,2532           00006        SETGWLST           EXTEND
000541: 33,2533           22154                           QXCH     MPAC                                  #   CALLED EVERY WAITLIST OR AZIMUTH CHANGE
000542: 33,2534           00004                           INHINT
000543: 33,2535           40025                           CS       TIME1
000544: 33,2536           61645                           AD       GTSWTLT1
000545: 33,2537           00006                           EXTEND
000546: 33,2540           62542                           BZMF     +2
000547: 33,2541           64674                           AD       NEGMAX                                #   10 MS ERROR OK
000548: 33,2542           61644                           AD       1SECXT1                               #  1 SEC FOR CALIBRATION, .5 SEC IN COMPASS
000549: 33,2543           00006                           EXTEND
000550: 33,2544           62550                           BZMF     RIGHTGTS
000551: 33,2545           05130        WTGTSMPL           TC       TWIDDLE
000552: 33,2546  E5,1540                                  EBANK=   ALTIM
000553: 33,2546           02575                           ADRES    ALLOOP
000554: 33,2547           00154                           TC       MPAC
000555: 33,2550           34710        RIGHTGTS           CAF      FOUR                                  #   SET UP NEXT WAITLIST-ALLOW SOME TIME
000556: 33,2551           02545                           TC       WTGTSMPL                              #   END OF WAITLIST SECTION
000557:
000558:
000559:                                                                                                  #   STORE AND LOAD DATA SECTIONS FOR RESTART PROOFING
000560:
000561: 33,2552           00031        25DECML            DEC      25         B-14
000562:
000563: 33,2553           32552        STOREDTA           CAF      25DECML
000564: 33,2554           54154                           TS       MPAC
000565: 33,2555           50154                           INDEX    MPAC
000566: 33,2556           31460                           CAE      THETAX1
000567: 33,2557           50154                           INDEX    MPAC
000568: 33,2560           55577                           TS       RESTARPT
000569: 33,2561           10154                           CCS      MPAC
000570: 33,2562           12554                           TCF      STOREDTA   +1
000571: 33,2563           00002                           TC       Q
000572:
000573:
000574: 33,2564           32552        LOADSTDT           CAF      25DECML
000575: 33,2565           54154                           TS       MPAC
000576: 33,2566           50154                           INDEX    MPAC
000577: 33,2567           31577                           CA       RESTARPT


000579: 33,2570           50154                           INDEX    MPAC
000580: 33,2571           55460                           TS       THETAX1
000581: 33,2572           10154                           CCS      MPAC
000582: 33,2573           12565                           TCF      LOADSTDT   +1
000583: 33,2574           00002                           TC       Q
000584:
000585:
000586:                                                                                                  #   COMES HERE EVERY ITERATION BY A WAITLIST CALL SET IN SLEEPIE
000587:
000588: 33,2575           30025        ALLOOP             CAE      TIME1
000589: 33,2576           55645                           TS       GTSWTLT1                              #  STORE TIME TO SET UP NEXT WAITLIST.
000590: 33,2577           31540        ALLOOP3            CA       ALTIM
000591: 33,2600           55631                           TS       GEOSAVE1
000592: 33,2601           05301                           TC       PHASCHNG
000593: 33,2602           00115                           OCT      00115
000594: 33,2603           31631        ALLOOP1            CAE      GEOSAVE1
000595: 33,2604           55540                           TS       ALTIM
000596: 33,2605           10000                           CCS      A
000597: 33,2606           30000                           CA       A                                     #  SHOULD NEVER HIT THIS LOCATION
000598: 33,2607           55541                           TS       ALTIMS
000599: 33,2610           40000                           CS       A
000600: 33,2611           55540                           TS       ALTIM
000601: 33,2612           30037                           CA       PIPAX
000602: 33,2613           55162                           TS       DELVX
000603: 33,2614           30040                           CA       PIPAY
000604: 33,2615           55164                           TS       DELVY
000605: 33,2616           30041                           CA       PIPAZ
000606: 33,2617           55166                           TS       DELVZ
000607: 33,2620           34374                           CAF      19DECML                               #  23 OCT
000608: 33,2621           04114                           TC       NEWPHASE
000609: 33,2622           00005                           OCT      00005
000610: 33,2623           34714        SPECSTS            CAF      ZERO
000611: 33,2624           54037                           TS       PIPAX
000612: 33,2625           54040                           TS       PIPAY
000613: 33,2626           54041                           TS       PIPAZ
000614: 33,2627           34675                           CAF      PRIO20
000615: 33,2630           05042                           TC       FINDVAC
000616: 33,2631  E5,1631                                  EBANK=   GEOSAVE1
000617: 33,2631           02634 66065                     2CADR    ALFLT                                 #   START THE JOB
000618: 33,2633           05213                           TC       TASKOVER
000619:


000621:                                                                                                  #   THIS IS PART OF THE JOB DONE EVERY ITERATION
000622:
000623: 33,2634           02553        ALFLT              TC       STOREDTA                              #   STORE DATA IN CASE OF RESTART IN JOB
000624: 33,2635           05301                           TC       PHASCHNG                              #  THIS IS THE JOB DONE EVERY ITERATION
000625: 33,2636           00215                           OCT      00215
000626: 33,2637           12641                           TCF      +2
000627: 33,2640           02564        ALFLT1             TC       LOADSTDT                              #   COMES HERE ON RESTART
000628:
000629: 33,2641           11643                           CCS      GEOCOMP1
000630: 33,2642           02644                           TC       +2
000631: 33,2643           02647                           TC       NORMLOP
000632: 33,2644           03402                           TC       CHKCOMED                              #       SEE IF PRELAUNCH OVER
000633: 33,2645           04555                           TC       BANKCALL                              #   COMPENSATION IF IN COMPASS
000634: 33,2646           15262                           CADR     1/PIPA
000635:
000636: 33,2647           06006        NORMLOP            TC       INTPRET
000637: 33,2650           77745                           DLOAD
000638: 33,2651           27122                                    INTVAL
000639: 33,2652           24051                           STOVL    S1
000640: 33,2653           01163                                    DELVX
000641: 33,2654           76505                           VXM      VSL1
000642: 33,2655           02672                                    XSM
000643: 33,2656           57545                           DLOAD    DCOMP
000644: 33,2657           00160                                    MPAC       +3
000645: 33,2660           16533                           STODL    DPIPAY
000646: 33,2661           00162                                    MPAC       +5
000647: 33,2662           02537                           STORE    DPIPAZ
000648:
000649: 33,2663           76001                           SETPD    AXT,1
000650: 33,2664           00001                                    0
000651: 33,2665           00010                                    8D
000652: 33,2666           57535                           SLOAD    DCOMP
000653: 33,2667           02644                                    GEOCOMP1
000654: 33,2670           77640                           BMN
000655: 33,2671           67204                                    ALWAYSG                               #  DO A QUICK COMPASS
000656:


000658:                                                                                                  #   NOW WE HAVE JUST THE CALIBRATION PARTS OF THE PROGRAM-NEXT PAGES
000659:
000660: 33,2672                                           COUNT    33/COMST
000661:
000662: 33,2672           50135        ALCGKK             SLOAD    BMN
000663: 33,2673           02542                                    ALTIMS
000664: 33,2674           66707                                    ALFLT3                                #  NO NEW GAINS NEEDED
000665: 33,2675           72174        ALKCG              AXT,2    LXA,1                                 #  LOADS SLOPES AND TIME CONSTANTS AT RQST
000666: 33,2676           00014                                    12D
000667: 33,2677           02454                                    ALX1S
000668: 33,2700           62143        ALKCG2             DLOAD*   INCR,1
000669: 33,2701           02243                                    ALFDK      +144D,1
000670: 33,2702           77775                           DEC      -2         B-14
000671: 33,2703           12555                           STORE    ALDK       +10D,2
000672: 33,2704           66104                           TIX,2    SXA,1
000673: 33,2705           66700                                    ALKCG2
000674: 33,2706           02454                                    ALX1S
000675:
000676: 33,2707           77770        ALFLT3             AXT,1                                          #  MEASUREMENT INCORPORATION ROUTINES
000677: 33,2710           00010                                    8D                                    #  AND GAIN UPDATES
000678: 33,2711           41343        DELMLP             DLOAD*   DMP
000679: 33,2712           02543                                    DPIPAY     +8D,1
000680: 33,2713           27676                                    PIPASC
000681: 33,2714           43661                           SLR      BDSU*
000682: 33,2715           21212                                    9D
000683: 33,2716           02511                                    INTY       +8D,1
000684: 33,2717           06511                           STORE    INTY       +8D,1
000685: 33,2720           40725                           PDDL     DMP*
000686: 33,2721           27700                                    VELSC
000687: 33,2722           02531                                    VLAUN      +8D,1
000688: 33,2723           77732                           SL2R
000689: 33,2724           45425                           DSU      STADR
000690: 33,2725           71206                           STORE    DELM       +8D,1
000691: 33,2726           06573                           STORE    DELM       +10D,1
000692: 33,2727           77100                           TIX,1    AXT,2
000693: 33,2730           66711                                    DELMLP
000694: 33,2731           00004                                    4
000695: 33,2732           56743        ALILP              DLOAD*   DMPR*
000696: 33,2733           75314                                    ALK        +4,2
000697: 33,2734           75230                                    ALDK       +4,2
000698: 33,2735           12463                           STORE    ALK        +4,2
000699: 33,2736           77104                           TIX,2    AXT,2
000700: 33,2737           66732                                    ALILP
000701: 33,2740           00010                                    8D
000702: 33,2741           66140        ALKLP              LXC,1    SXA,1
000703: 33,2742           02455                                    CMPX1
000704: 33,2743           02455                                    CMPX1
000705: 33,2744           56743                           DLOAD*   DMPR*
000706: 33,2745           02460                                    ALK        +1,1
000707: 33,2746           75206                                    DELM       +8D,2


000709: 33,2747           77613                           DAD*
000710: 33,2750           75266                                    INTY       +8D,2
000711: 33,2751           12511                           STORE    INTY       +8D,2
000712: 33,2752           42743                           DLOAD*   DAD*
000713: 33,2753           75304                                    ALK        +12D,2
000714: 33,2754           75220                                    ALDK       +12D,2
000715: 33,2755           12473                           STORE    ALK        +12D,2
000716: 33,2756           42673                           DMPR*    DAD*
000717: 33,2757           75206                                    DELM       +8D,2
000718: 33,2760           75256                                    INTY       +16D,2
000719: 33,2761           12521                           STORE    INTY       +16D,2
000720: 33,2762           40743                           DLOAD*   DMP*
000721: 33,2763           27703                                    ALSK       +1,1
000722: 33,2764           75206                                    DELM       +8D,2
000723: 33,2765           42772                           SL1R     DAD*
000724: 33,2766           75246                                    VLAUN      +8D,2
000725: 33,2767           12531                           STORE    VLAUN      +8D,2
000726: 33,2770           76104                           TIX,2    AXT,1
000727: 33,2771           66741                                    ALKLP
000728: 33,2772           00010                                    8D
000729:
000730:
000731: 33,2773           64743        LOOSE              DLOAD*   PDDL*                                 #  EXTRAPOLATE SWAY VARIABLES
000732: 33,2774           02533                                    ACCWD      +8D,1
000733: 33,2775           02531                                    VLAUN      +8D,1
000734: 33,2776           55523                           PDDL*    VDEF
000735: 33,2777           02541                                    POSNV      +8D,1
000736: 33,3000           76521                           MXV      VSL1
000737: 33,3001           02001                                    TRANSM1
000738: 33,3002           77745                           DLOAD
000739: 33,3003           00155                                    MPAC
000740: 33,3004           06541                           STORE    POSNV      +8D,1
000741: 33,3005           77745                           DLOAD
000742: 33,3006           00160                                    MPAC       +3
000743: 33,3007           06531                           STORE    VLAUN      +8D,1
000744: 33,3010           77745                           DLOAD
000745: 33,3011           00162                                    MPAC       +5
000746: 33,3012           06533                           STORE    ACCWD      +8D,1
000747: 33,3013           77700                           TIX,1
000748: 33,3014           66773                                    LOOSE
000749:
000750:
000751: 33,3015           76174                           AXT,2    AXT,1                                 #  EVALUATE SINES AND COSINES
000752: 33,3016           00006                                    6
000753: 33,3017           00002                                    2
000754: 33,3020           57343        BOOP               DLOAD*   DMPR
000755: 33,3021           02513                                    ANGX       +2,1
000756: 33,3022           27706                                    GEORGEJ
000757: 33,3023           77722                           SR2R
000758: 33,3024           73406                           PUSH     SIN


000760: 33,3025           56072                           SL3R     XAD,1
000761: 33,3026           00046                                    X1
000762: 33,3027           10021                           STORE    16D,2
000763: 33,3030           77745                           DLOAD
000764: 33,3031           77746                           COS
000765: 33,3032           10027                           STORE    22D,2                                 #   COSINES
000766: 33,3033           77704                           TIX,2
000767: 33,3034           67020                                    BOOP
000768: 33,3035           77776        PERFERAS           EXIT
000769: 33,3036           34753                           CA       EBANK7
000770: 33,3037  E7,1400                                  EBANK=   LAT(SPL)
000771: 33,3037           54003                           TS       EBANK
000772: 33,3040           01400                           TC       LAT(SPL)                              #  GO TO ERASABLE ONLY TO RETURN
000773:
000774:                                                                                                  #           CAUTION
000775:
000776:                                                                                                  #  THE ERASABLE PROGRAM THAT DOES THE CALCULATIONS MUST BE LOADED
000777:                                                                                                  #  BEFORE ANY ATTEMPT IS MADE TO RUN THE IMU PERFORMANCE TEST
000778:
000779: 33,3041  E5,1412                                  EBANK=   LENGTHOT
000780: 33,3041           11412        ONCEMORE           CCS      LENGTHOT
000781: 33,3042           02522                           TC       SLEEPIE                               #   TEST NOT OVER SET UP NEXT WAITLIST
000782:
000783: 33,3043           11450                           CCS      TORQNDX
000784: 33,3044           13046                           TCF      +2
000785: 33,3045           03050                           TC       SETUPER1
000786: 33,3046           30032                           CA       CDUX
000787: 33,3047           55414                           TS       LOSVEC     +1                         #   FOR TROUBLESHOOTING POSNS 2$4 VD
000788: 33,3050           06006        SETUPER1           TC       INTPRET                               #   DRIFT TEST OVER
000789: 33,3051           65345                           DLOAD    PDDL                                  #   ANGLES FROM DRIFT TEST ONLY
000790: 33,3052           02503                                    ANGZ
000791: 33,3053           02507                                    ANGY
000792: 33,3054           55525                           PDDL     VDEF
000793: 33,3055           02511                                    ANGX
000794: 33,3056           74276                           VCOMP    VXSC
000795: 33,3057           27706                                    GEORGEJ
000796: 33,3060           74521                           MXV      VSR1
000797: 33,3061           02672                                    XSM
000798: 33,3062           02760                           STORE    OGC
000799: 33,3063           77776                           EXIT
000800:
000801: 33,3064           05301        TORQINCH           TC       PHASCHNG
000802: 33,3065           00005                           OCT      00005
000803: 33,3066           32444                           CA       OGCPL
000804: 33,3067           04555                           TC       BANKCALL
000805: 33,3070           17125                           CADR     IMUPULSE
000806: 33,3071           02316                           TC       IMUSTLLG
000807: 33,3072           11450                           CCS      TORQNDX                               #   + IF IN VERTICAL DRIFT TEST
000808: 33,3073           02262                           TC       VALMIS                                #  VERT DRIFT TEST OVER
000809: 33,3074           06006                           TC       INTPRET


000811: 33,3075           77624                           CALL                                           #  SET UP ERATE FOR PIP TEST OR COMPASS
000812: 33,3076           64000                                    ERTHRVSE
000813: 33,3077           77776                           EXIT
000814: 33,3100           02122                           TC       TORQUE                                #  GO TO IMU2 FOR A PIPA TEST AND DISPLAY
000815:
000816:
000817: 33,3101           05537        SOMEERR            TC       ALARM
000818: 33,3102           01600                           OCT      1600
000819: 33,3103           03106                           TC       +3
000820: 33,3104           05537        SOMERR2            TC       ALARM
000821: 33,3105           01601                           OCT      1601
000822: 33,3106           05301                           TC       PHASCHNG
000823: 33,3107           00005                           OCT      00005
000824: 33,3110           02267                           TC       ENDTEST1
000825:
000826:
000827:                                                                                                  #   THE FAMOUS MAGIC NUMBERS OF SCHMIDT ARE NOW PART OF AN ERASABLE LOAD.
000828:
000829:
000830: 33,3111           02222        DEC585             OCT      02222                                 #  1170 B+14  ORDER IS NOW IMPORTANT
000831: 33,3112           00000 00000  SCHZEROS           2DEC     .00000000
000832: 33,3114           00000 00000                     2DEC     .00000000
000833: 33,3116           00000                           OCT      00000
000834: 33,3117           00000        ONEDPP             OCT      00000
000835: 33,3120           00001                           OCT      00001                                 #            ABOVE ORDER IS IMPORTANT
000836:
000837:
000838: 33,3121           00004        INTVAL             OCT      4
000839: 33,3122           00002                           OCT      2
000840: 33,3123           00220                           DEC      144        B-14
000841: 33,3124           77776                           DEC      -1         B-14
000842: 33,3125           35730 00035  SOUPLY             2DEC     .93505870                             #   INITIAL GAINS FOR PIP OUTPUTS
000843: 33,3127           10317 17550                     2DEC     .26266423                             #   INITIAL GAINS/4 FOR ERECTION ANGLES
000844:
000845:
000846: 33,3131           00115        77DECML            DEC      77         B-14
000847: 33,3132           01453        ALXXXZ             GENADR   ALX1S      -1
000848:                                                                                                  #   GYROCOMPASS PORTIONS FINISH THIS LOG SECTION
000849:
000850:
000851: 33,3133                                           COUNT    33/P01
000852:
000853:                                                                                                  #   INITIALIZATION SECTION
000854:
000855: 33,3133           34712        GTSCPSS            CAF      ONE                                   #  CALLED BY V37.
000856: 33,3134           55643                           TS       GEOCOMP1                              #  THIS IS THE LEAD IN FOR COMPASS.


000858: 33,3135           33425                           CA       1/PIPAGT
000859: 33,3136           55074                           TS       1/PIPADT
000860: 33,3137           34703        NXXTBNN            CA       BIT8
000861: 33,3140           55412                           TS       LENGTHOT
000862: 33,3141           34731                           CAF      1/2SECX                               #   COMPASS IS A .5 SEC LOOP
000863: 33,3142           55644                           TS       1SECXT1
000864: 33,3143           34712                           CAF      ONE
000865: 33,3144           55632                           TS       PREMTRX1
000866: 33,3145           55657                           TS       PERFDLAY   +1
000867: 33,3146           34714                           CAF      ZERO
000868: 33,3147           55656                           TS       PERFDLAY
000869: 33,3150           00006                           EXTEND
000870: 33,3151           31634                           DCA      LUNCHAZ1
000871: 33,3152           53636                           DXCH     NEWAZ1
000872: 33,3153           00006                           EXTEND
000873: 33,3154           31634                           DCA      LUNCHAZ1
000874: 33,3155           53640                           DXCH     OLDAZMTH
000875: 33,3156           34375        SETUPGC            CA       DEC17
000876: 33,3157           55655                           TS       ZERONDX1
000877: 33,3160           32446                           CA       XSMADR
000878: 33,3161           02356                           TC       ZEROING
000879: 33,3162           03164                           TC       POSN17C
000880: 33,3163           02030                           TC       GEOIMUTT                              #   GO TO IMU2 FOR FURTHER INITIALIZATION
000881:
000882:
000883: 33,3164           00006        POSN17C            EXTEND                                         #   COMPASS POSITION Z DOWN,X DOWNRANGE
000884: 33,3165           23425                           QXCH     QPLACE                                #  FROM NORTH IN REVOLUTIONS + CLOCKWSE
000885: 33,3166           44675                           CS       HALF                                  #  ALL THIS TO INITIALIZE MATRIX
000886: 33,3167           55705                           TS       ZSM
000887: 33,3170           06006                           TC       INTPRET
000888: 33,3171           41545                           DLOAD    PUSH
000889: 33,3172           02636                                    NEWAZ1
000890: 33,3173           77756                           SIN
000891: 33,3174           02676                           STORE    XSM        +4
000892: 33,3175           16702                           STODL    YSM        +2
000893: 33,3176           77746                           COS
000894: 33,3177           02704                           STORE    YSM        +4
000895: 33,3200           77676                           DCOMP
000896: 33,3201           02674                           STORE    XSM        +2
000897: 33,3202           77776                           EXIT
000898: 33,3203           01425                           TC       QPLACE
000899:
000900:
000901:                                                                                                  #   JOB DONE EVERY ITERATION THROUGH COMPASS PROGRAM. SET BY TASK ALLOOP
000902:
000903: 33,3204                                           COUNT    33/P02
000904:
000905: 33,3204           44743        ALWAYSG            DLOAD*   DSU*                                  #  COMPASS AND ERECT
000906: 33,3205           02543                                    DPIPAY     +8D,1
000907: 33,3206           02505                                    FILDELV1   +8D,1


000909: 33,3207           42675                           DMPR     DAD*
000910: 33,3210           27714                                    GEOCONS1
000911: 33,3211           02505                                    FILDELV1   +8D,1
000912: 33,3212           06505                           STORE    FILDELV1   +8D,1
000913: 33,3213           77613                           DAD*
000914: 33,3214           02507                                    INTVEC1    +8D,1
000915: 33,3215           06507                           STORE    INTVEC1    +8D,1
000916: 33,3216           42675                           DMPR     DAD*
000917: 33,3217           27716                                    GEOCONS2
000918: 33,3220           02505                                    FILDELV1   +8D,1
000919: 33,3221           41475                           DMPR     PUSH
000920: 33,3222           15330                                    GEOCONS5
000921: 33,3223           67300                           TIX,1    SLOAD
000922: 33,3224           67204                                    ALWAYSG
000923: 33,3225           02647                                    ERECTIM1
000924: 33,3226           71254                           BZE      DLOAD
000925: 33,3227           67240                                    COMPGS
000926: 33,3230           02471                                    THETAN1    +2
000927: 33,3231           45425                           DSU      STADR
000928: 33,3232           61306                           STODL    THETAN1    +2                         #  ERECTION ONLY.
000929: 33,3233           77621                           BDSU
000930: 33,3234           02473                                    THETAN1    +4
000931: 33,3235           02473                           STORE    THETAN1    +4
000932: 33,3236           77650                           GOTO
000933: 33,3237           67262                                    ADDINDRF
000934: 33,3240           43345        COMPGS             DLOAD    DAD                                   #  COMPASS
000935: 33,3241           02467                                    THETAN1
000936: 33,3242           02475                                    FILDELV1
000937: 33,3243           16467                           STODL    THETAN1
000938: 33,3244           02475                                    FILDELV1
000939: 33,3245           44275                           DMPR     BDSU
000940: 33,3246           27720                                    GEOCONS3
000941: 33,3247           02473                                    THETAN1    +4
000942: 33,3250           16473                           STODL    THETAN1    +4
000943: 33,3251           02501                                    FILDELV1   +4
000944: 33,3252           44275                           DMPR     BDSU
000945: 33,3253           27720                                    GEOCONS3
000946: 33,3254           02471                                    THETAN1    +2
000947: 33,3255           57325                           PDDL     DMPR
000948: 33,3256           02503                                    INTVEC1    +4
000949: 33,3257           27722                                    GEOCONS4
000950: 33,3260           45421                           BDSU     STADR
000951: 33,3261           75306                           STORE    THETAN1    +2
000952: 33,3262           77776        ADDINDRF           EXIT
000953:
000954:
000955: 33,3263           11412        ENDGTSAL           CCS      LENGTHOT                              #   IS 5 SEC OVER-THE TIME TO TORQ PLATFORM
000956: 33,3264           02522                           TC       SLEEPIE                               #   NO-SET UP NEXT WAITLIST CALL FOR .5 SEC
000957: 33,3265           03402                           TC       CHKCOMED
000958: 33,3266           11304                           CCS      LGYRO                                 #   YES BUT ARE GYROS BUSY


000960: 33,3267           12523                           TCF      SLEEPIE    +1                         #   BUSY-GET THEM .5 SECONDS FROM NOW
000961:
000962: 33,3270           06006        LASTGTS            TC       INTPRET
000963: 33,3271           77775                           VLOAD
000964: 33,3272           02650                                    ERCOMP1
000965: 33,3273           16461                           STODL    THETAX1
000966: 33,3274           02443                                    TMARK
000967: 33,3275           02457                           STORE    ALK
000968: 33,3276           77776                           EXIT                                           #   PREVIOUS SECTION WAS FOR RESTARTS
000969:
000970: 33,3277           05301        RESTAIER           TC       PHASCHNG
000971: 33,3300           00275                           OCT      00275
000972: 33,3301           06006                           TC       INTPRET                               #   ADD COMPASS COMMANDS INTO ERATE
000973: 33,3302           64375                           VLOAD    MXV
000974: 33,3303           02467                                    THETAN1
000975: 33,3304           02672                                    XSM
000976: 33,3305           53372                           VSL1     VAD
000977: 33,3306           02461                                    THETAX1
000978: 33,3307           16650                           STODL    ERCOMP1
000979: 33,3310           02457                                    ALK
000980: 33,3311           02443                           STORE    TMARK
000981: 33,3312           77776                           EXIT
000982: 33,3313           02417                           TC       EARTHR*                               #  TORQUE IT ALL IN
000983: 33,3314           31646                           CAE      ERECTIM1
000984: 33,3315           55631                           TS       GEOSAVE1
000985: 33,3316           05301                           TC       PHASCHNG
000986: 33,3317           00155                           OCT      00155
000987: 33,3320           06006        RESTEST1           TC       INTPRET
000988: 33,3321           77775                           VLOAD
000989: 33,3322           27113                                    SCHZEROS
000990: 33,3323           02467                           STORE    THETAN1
000991: 33,3324           77776                           EXIT
000992: 33,3325           11632                           CCS      PREMTRXC
000993: 33,3326           03375                           TC       NOCHORLD
000994: 33,3327           05301                           TC       PHASCHNG
000995: 33,3330           00255                           OCT      00255
000996: 33,3331           06006        RESTEST3           TC       INTPRET
000997: 33,3332           77745                           DLOAD
000998: 33,3333           02634                                    LAUNCHAZ
000999: 33,3334           53025                           DSU      BZE
001000: 33,3335           02640                                    OLDAZMTH
001001: 33,3336           67372                                    NOAZCHGE
001002: 33,3337           00001                           STORE    0D
001003: 33,3340           43335                           SLOAD    DAD
001004: 33,3341           27121                                    ONEDPP     +1
001005: 33,3342           02633                                    PREMTRXC                              #  DOES NOT CHANGE LAUNCHAZ
001006: 33,3343           16633                           STODL    PREMTRXC
001007: 33,3344           02634                                    LAUNCHAZ
001008: 33,3345           16636                           STODL    NEWAZMTH
001009: 33,3346           00001                                    0D


001011: 33,3347           02654        ADERCOMP           STORE    ERCOMP     +4
001012: 33,3350           77776                           EXIT
001013: 33,3351           03164                           TC       POSN17C
001014: 33,3352           05301                           TC       PHASCHNG
001015: 33,3353           00335                           OCT      00335
001016: 33,3354           00006        RESCHNG            EXTEND
001017: 33,3355           31636                           DCA      NEWAZMTH
001018: 33,3356           53640                           DXCH     OLDAZMTH
001019: 33,3357           34704                           CA       BIT7                                  #   SPEND 320 SEC ERECTING
001020: 33,3360           55412                           TS       LENGTHOT
001021: 33,3361           05301                           TC       PHASCHNG
001022: 33,3362           00075                           OCT      00075
001023: 33,3363           33424        SPITGYRO           CA       ERCOMPPL
001024: 33,3364           04555                           TC       BANKCALL
001025: 33,3365           17125                           CADR     IMUPULSE
001026: 33,3366           04555                           TC       BANKCALL
001027: 33,3367           17516                           CADR     IMUSTALL
001028: 33,3370           03104                           TC       SOMERR2
001029: 33,3371           02453                           TC       ESTIMS                                #   RE-INITIALIZE
001030:
001031:
001032: 33,3372           77776        NOAZCHGE           EXIT
001033: 33,3373           34712                           CA       ONE
001034: 33,3374           55632                           TS       PREMTRXC
001035: 33,3375           11631        NOCHORLD           CCS      GEOSAVE1
001036: 33,3376           55646                           TS       ERECTIM1                              #  COUNTS DOWN FOR ERECTION.
001037:
001038: 33,3377           34334        ANNNNNN            CAF      NINE
001039: 33,3400           55412                           TS       LENGTHOT
001040: 33,3401           02523                           TC       SLEEPIE    +1
001041:
001042:
001043: 33,3402           00004        CHKCOMED           INHINT
001044: 33,3403           44714                           CS       ZERO
001045: 33,3404           00006                           EXTEND
001046: 33,3405           06030                           RXOR     CHAN30                                #  READ AND INVERT BITS IN CHANNEL 30
001047: 33,3406           74706                           MASK     BIT5                                  #  LIFTOFF BIT
001048: 33,3407           10000                           CCS      A
001049: 33,3410           13417                           TCF      PRELTERM                              #  LIFTOFF HAS OCCURRED
001050:
001051: 33,3411           34706                           CA       BIT5                                  #  CHECK FOR BACKUP LIFTOFF
001052: 33,3412           70101                           MASK     FLAGWRD5                              #  BIT5 FLAGWRD5
001053: 33,3413           10000                           CCS      A
001054: 33,3414           13417                           TCF      PRELTERM                              #  BACKUP RECEIVED
001055:
001056: 33,3415           00003                           RELINT
001057: 33,3416           00002                           TC       Q                                     #  CONTINUE PRELAUNCH
001058:
001059:
001060: 33,3417           37657        PRELTERM           CA       PRIO22                                #  PRELAUNCH DONE - SET UP P11


001062: 33,3420           05103                           TC       PRIOCHNG                              #  INCREASE PRIORITY HIGHER THAN SERVICER
001063: 33,3421           00004                           INHINT
001064: 33,3422           04574                           TC       POSTJUMP
001065: 33,3423           70002                           CADR     P11
001066:
001067:
001068: 33,3424           02647        ERCOMPPL           ECADR    ERCOMP
001069:
001070: 33,3425  26,3327               GEOCONS5           EQUALS   HIDPHALF
001071: 33,3425           06200        1/PIPAGT           OCT      06200
001072: 33,3426     4375               17DECML            =        ND1                                   #  OCT 21
001073: 33,3426     4374               19DECML            =        VD1                                   #  OCT 23
001074: 33,3426     4731               1/2SECX            =        .5SEC
001075:


001077: 33,3426     5112               GEOSTRT4           EQUALS   ENDOFJOB
001078:


001080:                                                                                                  #  OPTICAL VERIFICATION ROUTINES FOR GYROCOMPASS
001081:
001082: 33,3426                                           COUNT    33/P03
001083:
001084: 33,3426           05301        GCOMPVER           TC       PHASCHNG                              #   OPTICAL VERIFICATION ROUTINE
001085: 33,3427           00154                           OCT      00154
001086: 33,3430           05243                           TC       NEWMODEX                              #    ENTERED BY VERB 65 ENTER
001087: 33,3431           00003                           MM       03         B-14
001088: 33,3432           02037        SETNBPOS           TC       NBPOSPL
001089: 33,3433           04555                           TC       BANKCALL
001090: 33,3434           16063                           CADR     MKRELEAS
001091: 33,3435           34712        OPTDATA            CAF      BIT1                                  #  CALLS FOR AZIMUTH AND ELEVATION OF TARGE
001092: 33,3436           22007                           ZL                                             #  T 1,THEN TARGET 2
001093: 33,3437           23427                           LXCH     RUN                                   #  AZIMUTH CLOCKWSE FROM NORTH TO TARGET
001094: 33,3440           55047                           TS       DSPTEM1    +2                         #  ELEVATION MEASURED FROM HORIZONTAL
001095: 33,3441           00006                           EXTEND
001096: 33,3442           51427                           INDEX    RUN
001097: 33,3443           31433                           DCA      TAZEL1
001098: 33,3444           53046                           DXCH     DSPTEM1
001099: 33,3445           33470                           CAF      V05N30E
001100: 33,3446           04555                           TC       BANKCALL
001101: 33,3447           20577                           CADR     GODSPRET
001102: 33,3450           33456                           CAF      VN0641
001103: 33,3451           04555                           TC       BANKCALL
001104: 33,3452           20624                           CADR     GOFLASH
001105: 33,3453           03611                           TC       GCOMP5
001106: 33,3454           03457                           TC       +3
001107: 33,3455           03445                           TC       -8D
001108: 33,3456           01451        VN0641             VN       0641
001109: 33,3457           53046                           DXCH     DSPTEM1                               #  TAZEL1  TARGET 1 AZIMUTH
001110: 33,3460           51427                           INDEX    RUN
001111: 33,3461           53433                           DXCH     TAZEL1                                #  TAZEL1 +2 TARGET 2 AZIMUTH
001112: 33,3462           11427                           CCS      RUN
001113: 33,3463           13467                           TCF      +4
001114: 33,3464           34711                           CAF      TWO
001115: 33,3465           54001                           TS       L
001116: 33,3466           13437                           TCF      OPTDATA    +2                         #  MPAC    1ST PASS=0  2ND PASS=2
001117:
001118:
001119: 33,3467           03531                           TC       CONTIN33
001120:
001121: 33,3470           01236        V05N30E            VN       0530
001122:
001123: 33,3471           06006                           TC       INTPRET                               #   UNDYNAMIC ASSEMBLER
001124: 33,3472           77170        TAR/EREF           AXT,1    AXT,2                                 #  TARGET VECTOR
001125: 33,3473           00002                                    2                                     #  SIN(EL)  -COS(AZ)COS(EL)   SIN(AZ)COS(EL
001126: 33,3474           00014                                    12D
001127: 33,3475           40331                           SSP      SETPD
001128: 33,3476           00052                                    S2
001129: 33,3477           00006                                    6


001131: 33,3500           00001                                    0
001132: 33,3501           60533        TAR1               SLOAD*   SR2                                   #  X1=2 X2=12 S2=6 X1=0 X2=6 S2=6
001133: 33,3502           02436                                    TAZEL1     +3,1
001134: 33,3503           00001                           STORE    0                                     #  PD00    ELEVATION    PD00
001135: 33,3504           77756                           SIN
001136: 33,3505           10023                           STORE    18D,2                                 #  PD06 ***    SIN(EL)   ***PD12
001137: 33,3506           77745                           DLOAD
001138: 33,3507           00001                                    0
001139: 33,3510           41546                           COS      PUSH                                  #  PD00     COS(EL)   PD00
001140: 33,3511           47133                           SLOAD*   RTB
001141: 33,3512           02435                                    TAZEL1     +2,1
001142: 33,3513           45510                                    CDULOGIC
001143: 33,3514           00003                           STORE    2                                     #  PD02        AZIMUTH   PD02
001144: 33,3515           41356                           SIN      DMP
001145: 33,3516           00001                                    0
001146: 33,3517           77752                           SL1
001147: 33,3520           10027                           STORE    22D,2                                 #  PD10  *** SIN(AZ)COS(EL)  ***PD16
001148: 33,3521           71545                           DLOAD    COS
001149: 33,3522           00003                                    2
001150: 33,3523           72405                           DMP      SL1
001151: 33,3524           76076                           DCOMP    AXT,1
001152: 33,3525           00000                                    0
001153: 33,3526           10025                           STORE    20D,2                                 #  PD08 ***   -COS(AZ)COS(EL)  ***PD14
001154: 33,3527           43504                           TIX,2    RVQ
001155: 33,3530           67501                                    TAR1
001156:
001157:
001158: 33,3531                                           BANK     33
001159: 33,2000                                           SETLOC   IMUCAL
001160: 33,2000                                           BANK
001161: 33,3531                                           COUNT*   $$/P03
001162:
001163: 33,3531           34712        CONTIN33           CA       ONE
001164: 33,3532           54735                           TS       STARCODE
001165: 33,3533           34714                           CA       ZERO
001166: 33,3534           03626                           TC       TARGDRVE
001167: 33,3535           06006                           TC       INTPRET
001168: 33,3536           77624                           CALL
001169: 33,3537           67472                                    TAR/EREF
001170: 33,3540           64375        NEXTBNKS           VLOAD    MXV
001171: 33,3541           00007                                    6D
001172: 33,3542           02672                                    XSM
001173: 33,3543           77772                           VSL1
001174: 33,3544           26736                           STOVL    STARAD
001175: 33,3545           00015                                    12D
001176: 33,3546           76521                           MXV      VSL1
001177: 33,3547           02672                                    XSM
001178: 33,3550           02744                           STORE    STARAD     +6
001179: 33,3551           77624                           CALL
001180: 33,3552           67723                                    LITTLSUB


001182: 33,3553           02414                           STORE    LOSVEC
001183: 33,3554           77776                           EXIT
001184: 33,3555           04555                           TC       BANKCALL
001185: 33,3556           16063                           CADR     MKRELEAS
001186:
001187:
001188: 33,3557           34711        NEXBNKSS           CAF      TWO
001189: 33,3560           54735                           TS       STARCODE
001190: 33,3561           36211                           CAF      SIX
001191: 33,3562           03626                           TC       TARGDRVE
001192: 33,3563           06006                           TC       INTPRET
001193: 33,3564           77624                           CALL
001194: 33,3565           67723                                    LITTLSUB
001195: 33,3566           24015                           STOVL    12D
001196: 33,3567           02414                                    LOSVEC
001197: 33,3570           34007                           STCALL   06D
001198: 33,3571           47334                                    AXISGEN
001199: 33,3572           77624                           CALL
001200: 33,3573           47140                                    CALCGTA
001201: 33,3574           77776                           EXIT
001202: 33,3575           33622        GCOMP4             CAF      V06N93S
001203: 33,3576           04555                           TC       BANKCALL
001204: 33,3577           20624                           CADR     GOFLASH
001205: 33,3600           03611                           TC       GCOMP5
001206: 33,3601           13603                           TCF      +2
001207: 33,3602           13575                           TCF      GCOMP4
001208: 33,3603           06006                           TC       INTPRET
001209: 33,3604           53375                           VLOAD    VAD
001210: 33,3605           02760                                    OGC
001211: 33,3606           02650                                    ERCOMP1
001212: 33,3607           02650                           STORE    ERCOMP1
001213: 33,3610           77776                           EXIT
001214: 33,3611           04555        GCOMP5             TC       BANKCALL
001215: 33,3612           16063                           CADR     MKRELEAS
001216: 33,3613           05447                           TC       DOWNFLAG
001217: 33,3614           00032                           ADRES    TRM03FLG
001218:
001219: 33,3615           05243                           TC       NEWMODEX
001220: 33,3616           00002                           MM       02         B-14
001221: 33,3617           05301                           TC       PHASCHNG
001222: 33,3620           00004                           OCT      00004
001223: 33,3621           05112                           TC       ENDOFJOB
001224: 33,3622           01535        V06N93S            VN       0693
001225: 33,3623           05537        GTSOPTCS           TC       ALARM
001226: 33,3624           01602        GTSOPTSS           OCT      01602
001227: 33,3625           03611                           TC       GCOMP5
001228:
001229:
001230: 34,2002                                           BANK     34
001231: 04,2000                                           SETLOC   IMUCAL1


001233: 04,2000                                           BANK
001234:
001235: 04,2617                                           COUNT    34/COMST
001236:
001237: 04,2617           62545        LATAZCHK           DLOAD    SL2                                   #  CALLS FOR AZIMUTH AND LATITUDE
001238: 04,2620           02403                                    LATITUDE
001239: 04,2621           15047                           STODL    DSPTEM1    +1
001240: 04,2622           02401                                    AZIMUTH
001241: 04,2623           77434                           RTB      EXIT
001242: 04,2624           45543                                    1STO2S
001243: 04,2625           56154                           XCH      MPAC
001244: 04,2626           55045                           TS       DSPTEM1
001245: 04,2627           04555                           TC       BANKCALL
001246: 04,2630           20607                           CADR     CLEANDSP
001247: 04,2631           32650                           CAF      VNG0641
001248: 04,2632           04555                           TC       BANKCALL
001249: 04,2633           20624                           CADR     GOFLASH
001250: 04,2634           02636                           TC       +2                                    #   NOT ALLOWED
001251: 04,2635           02637                           TC       +2
001252: 04,2636           02631                           TC       -5
001253: 04,2637           06006                           TC       INTPRET
001254: 04,2640           47135                           SLOAD    RTB
001255: 04,2641           01046                                    DSPTEM1
001256: 04,2642           45510                                    CDULOGIC
001257: 04,2643           02401                           STORE    AZIMUTH
001258: 04,2644           60535                           SLOAD    SR2
001259: 04,2645           01047                                    DSPTEM1    +1
001260: 04,2646           02403                           STORE    LATITUDE
001261: 04,2647           77616                           RVQ
001262:
001263:
001264: 04,2650           01451        VNG0641            VN       0641
001265: 33,3626                                           BANK     33
001266: 33,2000                                           SETLOC   IMUCAL
001267: 33,2000                                           BANK
001268:
001269:
001270: 33,3626                                           COUNT*   $$/P03
001271: 33,3626           00006        TARGDRVE           EXTEND
001272: 33,3627           23424                           QXCH     QPLAC
001273: 33,3630           55431                           TS       TARG1/2
001274: 33,3631           06006                           TC       INTPRET
001275: 33,3632           77624                           CALL
001276: 33,3633           67472                                    TAR/EREF
001277: 33,3634           76740                           LXC,1    VLOAD*
001278: 33,3635           02431                                    TARG1/2
001279: 33,3636           00007                                    6D,1
001280: 33,3637           36766                           STCALL   STAR
001281: 33,3640           46053                                    SXTANG
001282: 33,3641           77776                           EXIT


001284: 33,3642           31773                           CA       SAC
001285: 33,3643           55161                           TS       DESOPTS
001286: 33,3644           31775                           CA       PAC
001287: 33,3645           55160                           TS       DESOPTT
001288: 33,3646           34714        RETARG             CAF      ZERO
001289: 33,3647           55303                           TS       OPTIND
001290: 33,3650           34712                           CAF      ONE
001291: 33,3651           04555                           TC       BANKCALL
001292: 33,3652           16002                           CADR     SXTMARK
001293: 33,3653           04555                           TC       BANKCALL
001294: 33,3654           17512                           CADR     OPTSTALL
001295: 33,3655           03623                           TC       GTSOPTCS
001296: 33,3656           30075                           CAE      FLAGWRD1
001297: 33,3657           74707                           MASK     TRM03BIT
001298: 33,3660           10000                           CCS      A
001299: 33,3661           03611                           TC       GCOMP5
001300:
001301: 33,3662           51330                           INDEX    MARKSTAT
001302: 33,3663           30052                           CA       QPRET
001303: 33,3664           00006                           EXTEND
001304: 33,3665           13667                           BZF      RETARG1
001305: 33,3666           01424                           TC       QPLAC
001306:
001307:
001308: 33,3667           34714        RETARG1            CA       ZERO                                  #  RELEASE PREVIOUSLY GRABBED VAC AREA
001309: 33,3670           57330                           XCH      MARKSTAT
001310: 33,3671           10000                           CCS      A
001311: 33,3672           50000                           INDEX    A
001312: 33,3673           54000                           TS       A
001313: 33,3674           13646                           TCF      RETARG                                #  GO DO SXTMARK AGAIN
001314: 33,3675                                           BANK     33
001315: 33,2000                                           SETLOC   IMUCAL
001316: 33,2000                                           BANK
001317: 33,3675                                           COUNT*   $$/P03
001318: 33,3675           30341 22444  PIPASC             2DEC     .76376833
001319: 33,3677           57223 66451  VELSC              2DEC     -.52223476
001320: 33,3701           05427 12577  ALSK               2DEC     .17329931
001321: 33,3703           77567 44202                     2DEC     -.00835370
001322: 33,3705           24276 14066  GEORGEJ            2DEC     .63661977
001323: 33,3707           23073 11773  GEORGEK            2DEC     .59737013
001324: 33,3711           00055 20267  2DEGRES            2DEC     .00277778
001325: 33,3713           03146 14632  GEOCONS1           2DEC     .1


001327: 33,3715           00121 35341  GEOCONS2           2DEC     .005
001328: 33,3717           01767 31666  GEOCONS3           2DEC     .062
001329: 33,3721           00004 35223  GEOCONS4           2DEC     .0003
001330: 33,3723                                           COUNT    33/P02
001331: 33,3723           77620        LITTLSUB           STQ
001332: 33,3724           02424                                    QPLAC
001333: 33,3725           76740                           LXC,1    VLOAD*
001334: 33,3726           01330                                    MARKSTAT
001335: 33,3727           00003                                    2,1
001336: 33,3730           34767                           STCALL   CDUSPOT
001337: 33,3731           46000                                    SXTNB
001338: 33,3732           77624                           CALL
001339: 33,3733           47572                                    TRG*NBSM
001340: 33,3734           77650                           GOTO
001341: 33,3735           02424                                    QPLAC
001342:
001343:
001344: 33,3736           77776                           EXIT
001345: 33,3737           06006        AZMTHCG1           TC       INTPRET
001346: 33,3740           47145                           DLOAD    RTB
001347: 33,3741           02636                                    NEWAZMTH
001348: 33,3742           45543                                    1STO2S
001349: 33,3743           77776                           EXIT
001350: 33,3744           56154                           XCH      MPAC
001351: 33,3745           55045                           TS       DSPTEM1
001352: 33,3746           04555                           TC       BANKCALL
001353: 33,3747           20607                           CADR     CLEANDSP
001354: 33,3750           33772                           CAF      VN0629
001355: 33,3751           04555                           TC       BANKCALL
001356: 33,3752           20624                           CADR     GOFLASH
001357: 33,3753           13755                           TCF      +2
001358: 33,3754           13756                           TCF      +2
001359: 33,3755           13750                           TCF      -5
001360: 33,3756           06006                           TC       INTPRET
001361: 33,3757           47135                           SLOAD    RTB
001362: 33,3760           01046                                    DSPTEM1
001363: 33,3761           45510                                    CDULOGIC
001364: 33,3762           02634                           STORE    LAUNCHAZ
001365: 33,3763           77776                           EXIT
001366: 33,3764           34714                           CA       ZERO
001367: 33,3765           55632                           TS       PREMTRXC
001368: 33,3766           05301                           TC       PHASCHNG
001369: 33,3767           00004                           OCT      00004
001370: 33,3770           04574                           TC       POSTJUMP
001371: 33,3771           21176                           CADR     PINBRNCH
001372:
001373: 33,3772           01435        VN0629             VN       0629
001374:


End of include-file IMU_CALIBRATION_AND_ALIGNMENT.agc.  Parent file is MAIN.agc


