
Source Code


000002:                                                                                                 #  Copyright:    Public domain.
000003:                                                                                                 #  Filename:      INFLIGHT_ALIGNMENT_ROUTINES.agc
000004:                                                                                                 #  Purpose:      Part of the source code for Colossus build 237.
000005:                                                                                                 #                This is for the Command Module's (CM) Apollo Guidance
000006:                                                                                                 #                Computer (AGC), we believe for Apollo 8.
000007:                                                                                                 #  Assembler:    yaYUL
000008:                                                                                                 #  Contact:      Jim Lawton <jim DOT lawton AT gmail DOT com>
000009:                                                                                                 #  Website:      www.ibiblio.org/apollo/index.html
000010:                                                                                                 #  Page scans:   www.ibiblio.org/apollo/ScansForConversion/Colossus237/
000011:                                                                                                 #  Mod history:  2011-04-17 JL    Adapted from corresponding Colossus 249 file.
000012:
000013:                                                                                                 # # Page 1319
000014: 22,3505                                          BANK     22
000015: 23,2000                                          SETLOC   INFLIGHT
000016: 23,2000                                          BANK
000017:
000018: 23,3140  0002671                                 EBANK=   XSM
000019:
000020:
000021:                                                                                                 #  CALCGTA COMPUTES THE GYRO TORQUE ANGLES REQUIRED TO BRING THE STABLE MEMBER INTO THE DESIRED ORIENTATION.
000022:
000023:                                                                                                 #  THE INPUT IS THE DESIRED STABLE MEMBER COORDINATES REFERRED TO PRESENT STABLE MEMBER COORDINATES. THE THREE
000024:                                                                                                 #  HALF-UNIT VECTORS ARE STORED AT XDC, YDC, AND ZDC.
000025:
000026:                                                                                                 #  THE OUTPUTS ARE THE THREE GYRO TORQUE ANGLES TO BE APPLIED TO THE Y, Z, AND X GYROS AND ARE STORED DP AT IGC,
000027:                                                                                                 #  MGC, AND OGC RESPECTIVELY.
000028:
000029: 23,3140                                          COUNT    23/INFLT
000030:
000031: 23,3140           71220        CALCGTA           ITA      DLOAD                                 #  PUSHDOWN  00-03,16D-27D,34D-37D
000032: 23,3141           00051                                   S2                                    #  XDC = (XD1 XD2 XD3)
000033: 23,3142           02714                                   XDC                                   #  YDC = (YD1 YD2 YD3)
000034: 23,3143           65325                          PDDL     PDDL                                  #  ZDC = (ZD1 ZD2 ZD3)
000035: 23,3144           15332                                   HI6ZEROS
000036: 23,3145           02720                                   XDC        +4
000037: 23,3146           55476                          DCOMP    VDEF
000038: 23,3147           77656                          UNIT
000039: 23,3150           14027                          STODL    ZPRIME                                #  ZP = UNIT(-XD3 0 XD1) = (ZP1 ZP2 ZP3)
000040: 23,3151           00027                                   ZPRIME
000041:
000042: 23,3152           77742                          SR1
000043: 23,3153           14023                          STODL    SINTH                                 #  SIN(IGC) = ZP1
000044: 23,3154           00033                                   ZPRIME     +4
000045: 23,3155           77742                          SR1
000046: 23,3156           34021                          STCALL   COSTH                                 #  COS(IGC) = ZP3
000047: 23,3157           47211                                   ARCTRIG
000048:
000049: 23,3160           16762                          STODL    IGC                                   #  Y GYRO TORQUING ANGLE   FRACTION OF REV.
000050: 23,3161           02716                                   XDC        +2
000051: 23,3162           77742                          SR1
000052: 23,3163           14023                          STODL    SINTH                                 #  SIN(MGC) = XD2
000053: 23,3164           00027                                   ZPRIME
000054:
000055: 23,3165           65205                          DMP      PDDL
000056: 23,3166           02720                                   XDC        +4                         #  PD00 = (ZP1)(XD3)
000057: 23,3167           00033                                   ZPRIME     +4
000058:
000059: 23,3170           45205                          DMP      DSU
000060: 23,3171           02714                                   XDC                                   #  MPAC = (ZP3)(XD1)
000061: 23,3172           77626                          STADR
000062: 23,3173           43756                          STCALL   COSTH                                 #  COS(MGC) = MPAC - PD00
000063: 23,3174           47211                                   ARCTRIG
000064:                                                                                                 # # Page 1320
000065: 23,3175           26764                          STOVL    MGC                                   #  Z GYRO TORQUING ANGLE   FRACTION OF REV.
000066: 23,3176           00027                                   ZPRIME
000067: 23,3177           77641                          DOT
000068: 23,3200           02730                                   ZDC
000069: 23,3201           24021                          STOVL    COSTH                                 #  COS(OGC) = ZP . ZDC
000070: 23,3202           00027                                   ZPRIME
000071: 23,3203           77641                          DOT
000072: 23,3204           02722                                   YDC
000073: 23,3205           34023                          STCALL   SINTH                                 #  SIN(OGC) = ZP . YDC
000074: 23,3206           47211                                   ARCTRIG
000075:
000076: 23,3207           36760                          STCALL   OGC                                   #  X GYRO TORQUING ANGLE   FRACTION OF REV.
000077: 23,3210           00051                                   S2
000078:
000079:                                                                                                 # # Page 1321
000080:                                                                                                 #  ARCTRIG COMPUTES AN ANGLE GIVEN THE SINE AND COSINE OF THIS ANGLE.
000081:
000082:                                                                                                 #  THE INPUTS ARE SIN/4 AND COS/4 STORED DP AT SINTH AND COSTH.
000083:
000084:                                                                                                 #  THE OUTPUT IS THE CALCULATED ANGLE BETWEEN +.5 AND -.5 REVOLUTIONS AND STORED AT THETA. THE OUTPUT IS ALSO
000085:                                                                                                 #  AVAILABLE AT MPAC.
000086:
000087:
000088: 23,3211           51545        ARCTRIG           DLOAD    ABS                                   #  PUSHDOWN  16D-21D
000089: 23,3212           00023                                   SINTH
000090: 23,3213           50025                          DSU      BMN
000091: 23,3214           07427                                   QTSN45                                #  ABS(SIN/4) - SIN(45)/4
000092: 23,3215           47224                                   TRIG1                                 #  IF (-45,45) OR (135,-135)
000093:
000094:
000095: 23,3216           72545                          DLOAD    SL1                                   #  (45,135) OR (-135,-45)
000096: 23,3217           00021                                   COSTH
000097: 23,3220           75326                          ACOS     SIGN
000098: 23,3221           00023                                   SINTH
000099: 23,3222           00025                          STORE    THETA                                 #  X = ARCCOS(COS) WITH SIGN(SIN)
000100: 23,3223           77616                          RVQ
000101:
000102:
000103: 23,3224           72545        TRIG1             DLOAD    SL1                                   #  (-45,45) OR (135,-135)
000104: 23,3225           00023                                   SINTH
000105: 23,3226           77736                          ASIN
000106: 23,3227           14025                          STODL    THETA                                 #  X = ARCSIN(SIN) WITH SIGN(SIN)
000107: 23,3230           00021                                   COSTH
000108: 23,3231           77640                          BMN
000109: 23,3232           47235                                   TRIG2                                 #  IF (135,-135)
000110:
000111: 23,3233           43545                          DLOAD    RVQ
000112: 23,3234           00025                                   THETA                                 #  X = ARCSIN(SIN)    (-45,45)
000113:
000114:
000115: 23,3235           75345        TRIG2             DLOAD    SIGN                                  #  (135,-135)
000116: 23,3236           15330                                   HIDPHALF
000117: 23,3237           00023                                   SINTH
000118: 23,3240           77625                          DSU
000119: 23,3241           00025                                   THETA
000120: 23,3242           00025                          STORE    THETA                                 #  X = .5 WITH SIGN(SIN) - ARCSIN(SIN)
000121: 23,3243           77616                          RVQ                                            #                   (+) - (+) OR (-) - (-)
000122:
000123:                                                                                                 # # Page 1322
000124:                                                                                                 #      SMNB, NBSM, AND AXISROT, WHICH USED TO APPEAR HERE, HAVE BEEN
000125:                                                                                                 #  COMBINED IN A ROUTINE CALLED AX*SR*T, WHICH APPEARS AMONG THE POWERED
000126:                                                                                                 #  FLIGHT SUBROUTINES.
000127:
000128:                                                                                                 # # Page 1323
000129:                                                                                                 #  CALCGA COMPUTES THE CDU DRIVING ANGLES REQUIRED TO BRING THE STABLE MEMBER INTO THE DESIRED ORIENTATION.
000130:
000131:                                                                                                 #  THE INPUTS ARE  1) THE NAVIGATION BASE COORDINATES REFERRED TO ANY COORDINATE SYSTEM. THE THREE HALF-UNIT
000132:                                                                                                 #  VECTORS ARE STORED AT XNB,YNB, AND ZNB.  2) THE DESIRED STABLE MEMBER COORDINATES REFERRED TO THE SAME
000133:                                                                                                 #  COORDINATE SYSTEM ARE STORED AT XSM, YSM, AND ZSM.
000134:
000135:                                                                                                 #  THE OUTPUTS ARE THE THREE CDU DRIVING ANGLES AND ARE STORED SP AT THETAD, THETAD +1, AND THETAD +2.
000136:
000137: 23,3244           77601        CALCGA            SETPD                                          #  PUSHDOWN  00-05, 16D-21D, 34D-37D
000138: 23,3245           00001                                   0
000139: 23,3246           47375                          VLOAD    VXV
000140: 23,3247           02714                                   XNB                                   #  XNB = OGA (OUTER GIMBAL AXIS)
000141: 23,3250           02700                                   YSM                                   #  YSM = IGA (INNER GIMBAL AXIS)
000142: 23,3251           41456                          UNIT     PUSH                                  #  PD0 = UNIT(OGA X IGA) = MGA
000143:
000144: 23,3252           44041                          DOT      ITA
000145: 23,3253           02730                                   ZNB
000146: 23,3254           00051                                   S2
000147: 23,3255           24021                          STOVL    COSTH                                 #  COS(OG) = MGA . ZNB
000148: 23,3256           00001                                   0
000149: 23,3257           77641                          DOT
000150: 23,3260           02722                                   YNB
000151: 23,3261           34023                          STCALL   SINTH                                 #  SIN(OG) = MGA . YNB
000152: 23,3262           47211                                   ARCTRIG
000153: 23,3263           26760                          STOVL    OGC
000154: 23,3264           00001                                   0
000155:
000156: 23,3265           50235                          VXV      DOT                                   #  PROVISION FOR MG ANGLE OF 90 DEGREES
000157: 23,3266           02714                                   XNB
000158: 23,3267           02700                                   YSM
000159: 23,3270           77752                          SL1
000160: 23,3271           24021                          STOVL    COSTH                                 #  COS(MG) = IGA . (MGA X OGA)
000161: 23,3272           02700                                   YSM
000162: 23,3273           77641                          DOT
000163: 23,3274           02714                                   XNB
000164: 23,3275           34023                          STCALL   SINTH                                 #  SIN(MG) = IGA . OGA
000165: 23,3276           47211                                   ARCTRIG
000166: 23,3277           02764                          STORE    MGC
000167:
000168: 23,3300           45246                          ABS      DSU
000169: 23,3301           07431                                   .166...
000170: 23,3302           77644                          BPL
000171: 23,3303           47324                                   GIMLOCK1                              #  IF ANGLE GREATER THAN 60 DEGREES
000172:
000173: 23,3304           50375        CALCGA1           VLOAD    DOT
000174: 23,3305           02706                                   ZSM
000175: 23,3306           00001                                   0
000176: 23,3307           24021                          STOVL    COSTH                                 #  COS(IG) = ZSM . MGA
000177: 23,3310           02672                                   XSM
000178:                                                                                                 # # Page 1324
000179: 23,3311           45441                          DOT      STADR
000180: 23,3312           43754                          STCALL   SINTH                                 #  SIN(IG) = XSM . MGA
000181: 23,3313           47211                                   ARCTRIG
000182:
000183: 23,3314           26762                          STOVL    IGC
000184: 23,3315           02760                                   OGC
000185: 23,3316           43034                          RTB      BONCLR
000186: 23,3317           45547                                   V1STO2S
000187: 23,3320           00200                                   CPHIFLAG
000188: 23,3321           00051                                   S2
000189: 23,3322           35156                          STCALL   THETAD
000190: 23,3323           00051                                   S2
000191:
000192: 23,3324           77776        GIMLOCK1          EXIT
000193: 23,3325           05537                          TC       ALARM
000194: 23,3326           00401                          OCT      00401
000195: 23,3327           05435                          TC       UPFLAG                                #  GIMBAL LOCK HAS OCCURED
000196: 23,3330           00056                          ADRES    GLOKFAIL
000197:
000198: 23,3331           06006                          TC       INTPRET
000199: 23,3332           77650                          GOTO
000200: 23,3333           47304                                   CALCGA1
000201:
000202:                                                                                                 # # Page 1325
000203:                                                                                                 #  AXISGEN COMPUTES THE COORDINATES OF ONE COORDINATE SYSTEM REFERRED TO ANOTHER COORDINATE SYSTEM.
000204:
000205:                                                                                                 #  THE INPUTS ARE  1) THE STAR1 VECTOR REFERRED TO COORDINATE SYSTEM A STORED AT STARAD.  2) THE STAR2 VECTOR
000206:                                                                                                 #  REFERRED TO COORDINATE SYSTEM A STORED AT STARAD +6.  3) THE STAR1 VECTOR REFERRED TO COORDINATE SYSTEM B STORED
000207:                                                                                                 #  AT LOCATION 6 OF THE VAC AREA.  4) THE STAR2 VECTOR REFERRED TO COORDINATE SYSTEM B STORED AT LOCATION 12D OF
000208:                                                                                                 #  THE VAC AREA.
000209:
000210:                                                                                                 #  THE OUTPUT DEFINES COORDINATE SYSTEM A REFERRED TO COORDINATE SYSTEM B. THE THREE HALF-UNIT VECTORS ARE STORED
000211:                                                                                                 #  AT LOCATIONS XDC, XDC +6, XDC +12D, AND STARAD, STARAD +6, STARAD +12D.
000212:
000213:
000214: 23,3334           66370        AXISGEN           AXT,1    SSP                                   #  PUSHDOWN  00-30D,34D-37D
000215: 23,3335           02743                                   STARAD     +6
000216: 23,3336           00051                                   S1
000217: 23,3337           02727                                   STARAD     -6
000218:
000219: 23,3340           77601                          SETPD
000220: 23,3341           00001                                   0
000221: 23,3342           46773        AXISGEN1          VLOAD*   VXV*                                  #  06D   UA = S1
000222: 23,3343           02752                                   STARAD     +12D,1                     #         STARAD +00D   UB = S1
000223: 23,3344           02760                                   STARAD     +18D,1
000224: 23,3345           77656                          UNIT                                           #  12D   VA = UNIT(S1 X S2)
000225: 23,3346           06760                          STORE    STARAD     +18D,1                     #         STARAD +06D   VB = UNIT(S1 X S2)
000226: 23,3347           77773                          VLOAD*
000227: 23,3350           02752                                   STARAD     +12D,1
000228:
000229: 23,3351           76433                          VXV*     VSL1
000230: 23,3352           02760                                   STARAD     +18D,1                     #  18D   WA = UA X VA
000231: 23,3353           06766                          STORE    STARAD     +24D,1                     #         STARAD +12D   WB = UB X VB
000232:
000233: 23,3354           77700                          TIX,1
000234: 23,3355           47342                                   AXISGEN1
000235:
000236: 23,3356           66160                          AXC,1    SXA,1
000237: 23,3357           00006                                   6
000238: 23,3360           00036                                   30D
000239:
000240: 23,3361           66370                          AXT,1    SSP
000241: 23,3362           00022                                   18D
000242: 23,3363           00051                                   S1
000243: 23,3364           00006                                   6
000244:
000245: 23,3365           66374                          AXT,2    SSP
000246: 23,3366           00006                                   6
000247: 23,3367           00052                                   S2
000248: 23,3370           00002                                   2
000249:
000250: 23,3371           76720        AXISGEN2          XCHX,1   VLOAD*
000251: 23,3372           00036                                   30D                                   #  X1=-6 X2=+6   X1=-6 X2=+4   X1=-6 X2=+2
000252: 23,3373           00001                                   0,1
000253:                                                                                                 # # Page 1326
000254: 23,3374           62757                          VXSC*    PDVL*                                 #  J=(UA)(UB1)   J=(UA)(UB2)   J=(UA)(UB3)
000255: 23,3375           75033                                   STARAD     +6,2
000256: 23,3376           00007                                   6,1
000257: 23,3377           77757                          VXSC*
000258: 23,3400           75025                                   STARAD     +12D,2
000259: 23,3401           30031                          STOVL*   24D                                   #  K=(VA)(VB1)   J=(VA)(VB2)   J=(VA)(VB3)
000260: 23,3402           00015                                   12D,1
000261:
000262: 23,3403           53357                          VXSC*    VAD
000263: 23,3404           75017                                   STARAD     +18D,2                     #  L=(WA)(WB1)   J=(WA)(WB2)   J=(WA)(WB3)
000264: 23,3405           76455                          VAD      VSL1
000265: 23,3406           00031                                   24D
000266: 23,3407           53520                          XCHX,1   UNIT
000267: 23,3410           00036                                   30D
000268: 23,3411           06736                          STORE    XDC        +18D,1                     #  XDC = L+J+K   YDC = L+J+K   ZDC = L+J+K
000269:
000270: 23,3412           77700                          TIX,1
000271: 23,3413           47414                                   AXISGEN3
000272:
000273: 23,3414           77704        AXISGEN3          TIX,2
000274: 23,3415           47371                                   AXISGEN2
000275:
000276: 23,3416           77775                          VLOAD
000277: 23,3417           02714                                   XDC
000278: 23,3420           26736                          STOVL    STARAD
000279: 23,3421           02722                                   YDC
000280: 23,3422           26744                          STOVL    STARAD     +6
000281: 23,3423           02730                                   ZDC
000282: 23,3424           02752                          STORE    STARAD     +12D
000283:
000284: 23,3425           77616                          RVQ
000285:
000286:                                                                                                 # # Page 1327
000287: 23,3426           05520 26075  QTSN45            2DEC     .1768
000288: 23,3430           05252 25253  .166...           2DEC     .1666666667
000289:
000290:                                                                                                 # # Page 1328

End of include-file INFLIGHT_ALIGNMENT_ROUTINES.agc.  Parent file is MAIN.agc


