
Source Code


000002:                                                                                                  ## Copyright:   Public domain.
000003:                                                                                                  ## Filename:    INTER-BANK_COMMUNICATION.agc
000004:                                                                                                  ## Purpose:     Part of the source code for Colossus build 237.
000005:                                                                                                  ##              This is for the Command Module's (CM) Apollo Guidance
000006:                                                                                                  ##              Computer (AGC), for Apollo 8.
000007:                                                                                                  ## Assembler:   yaYUL
000008:                                                                                                  ## Contact:     Onno Hommes <ohommes@alumni.cmu.edu>
000009:                                                                                                  ## Website:     www.ibiblio.org/apollo/index.html
000010:                                                                                                  ## Page Scans:  www.ibiblio.org/apollo/ScansForConversion/Colossus237/
000011:                                                                                                  ## Mod history: 2010-05-22 OH   Adapted from corresponding Colossus 249 file.
000012:                                                                                                  ##              2010-12-04 JL   Remove Colossus 249 header comments. Change to double-has page numbers.
000013:                                                                                                  ##              2011-02-07 JL   Minor fixes.
000014:                                                                                                  ##              2017-01-01 RSB  Proofed comment text using octopus/ProoferComments,
000015:                                                                                                  ##                              but no found.
000016:


000018:                                                                                                  #           THE FOLLOWING ROUTINE CAN BE USED TO CALL A SUBROUTINE IN ANOTHER BANK. IN THE BANKCALL VERSION, THE
000019:                                                                                                  #  CADR OF THE SUBROUTINE IMMEDIATELY FOLLOWS THE  TC BANKCALL  INSTRUCTION, WITH C(A) AND C(L) PRESERVED.
000020:
000021:    4555                                           BLOCK    02
000022:    4555                                           COUNT    02/BANK
000023:
000024:    4555           52134        BANKCALL           DXCH     BUF2                                  #  SAVE INCOMING A,L.
000025:    4556           50002                           INDEX    Q                                     #  PICK UP CADR.
000026:    4557           30000                           CA       0
000027:    4560           24002                           INCR     Q                                     #  SO WE RETURN TO THE LOC. AFTER THE CADR.
000028:
000029:                                                                                                  #           SWCALL IS IDENTICAL TO BANKCALL, EXCEPT THAT THE CADR ARRIVES IN A.
000030:
000031:    4561           54001        SWCALL             TS       L
000032:    4562           22004                           LXCH     FBANK                                 #  SWITCH BANKS, SAVING RETURN.
000033:    4563           74747                           MASK     LOW10                                 #  GET SUB-ADDRESS OF CADR.
000034:    4564           56002                           XCH      Q                                     #  A,L NOW CONTAINS DP RETURN.
000035:    4565           52134                           DXCH     BUF2                                  #  RESTORING INPUTS IF THIS IS A BANKCALL.
000036:    4566           50002                           INDEX    Q
000037:    4567           02000                           TC       10000                                 #  SETTING Q TO SWRETURN.
000038:
000039:    4570           56134        SWRETURN           XCH      BUF2       +1                         #  COMES HERE TO RETURN TO CALLER. C(A,L)
000040:    4571           56004                           XCH      FBANK                                 #  ARE PRESERVED FOR RETURN.
000041:    4572           56134                           XCH      BUF2       +1
000042:    4573           00133                           TC       BUF2
000043:
000044:
000045:                                                                                                  #           THE FOLLOWING ROUTINE CAN BE USED AS A UNILATERAL JUMP WITH C(A,L) PRESERVED AND THE CADR IMMEDIATELY
000046:                                                                                                  #  FOLLOWING THE TC POSTJUMP INSTRUCTION.
000047:
000048:    4574           56002        POSTJUMP           XCH      Q                                     #  SAVE INCOMING C(A).
000049:    4575           50000                           INDEX    A                                     #  GET CADR.
000050:    4576           30000                           CA       0
000051:
000052:                                                                                                  #           BANKJUMP IS THE SAME AS POSTJUMP, EXCEPT THAT THE CADR ARRIVES IN A.
000053:
000054:    4577           54004        BANKJUMP           TS       FBANK
000055:    4600           74747                           MASK     LOW10
000056:    4601           56002                           XCH      Q                                     #  RESTORING INPUT C(A) IF THIS WAS A
000057:    4602           50002        Q+10000            INDEX    Q                                     #  POSTJUMP.
000058:    4603           12000        PRIO12             TCF      10000                                 #  PRIO12 = TCF   10000 = 12000
000059:


000061:                                                                                                  #           THE FOLLOWING ROUTINE GETS THE RETURN CADR SAVED BY SWCALL OR BANKCALL AND LEAVES IT IN A.
000062:
000063:    4604           34747        MAKECADR           CAF      LOW10
000064:    4605           70133                           MASK     BUF2
000065:    4606           60134                           AD       BUF2       +1
000066:    4607           00002                           TC       Q
000067:
000068:
000069:    4610           54135        SUPDACAL           TS       MPTEMP
000070:    4611           56004                           XCH      FBANK                                 #  SET FBANK FOR DATA.
000071:    4612           00006                           EXTEND
000072:    4613           04007                           ROR      SUPERBNK                              #  SAVE FBANK IN BITS 15-11, AND
000073:    4614           56135                           XCH      MPTEMP                                #   SUPERBANK IN BITS 7-5.
000074:    4615           74747                           MASK     LOW10
000075:    4616           56001                           XCH      L                                     #  SAVE REL. ADR. IN BANK, FETCH SUPERBITS.
000076:    4617           00004                           INHINT                                         #  BECAUSE RUPT DOES NOT SAVE SUPERBANK.
000077:    4620           00006                           EXTEND
000078:    4621           01007                           WRITE    SUPERBNK                              #  SET SUPERBANK FOR DATA.
000079:    4622           50001                           INDEX    L
000080:    4623           32000                           CA       10000                                 #  PINBALL (FIX MEM DISP) PREVENTS DCA HERE
000081:    4624           56135                           XCH      MPTEMP                                #  SAVE 1ST WD, FETCH OLD FBANK AND SBANK.
000082:    4625           00006                           EXTEND
000083:    4626           01007                           WRITE    SUPERBNK                              #  RESTORE SUPERBANK.
000084:    4627           00003                           RELINT
000085:    4630           54004                           TS       FBANK                                 #  RESTORE FBANK.
000086:    4631           30135                           CA       MPTEMP                                #  RECOVER FIRST WORD OF DATA.
000087:    4632           00002                           RETURN                                         #  24 WDS. DATACALL 516 MU, SUPDACAL 432 MU
000088:


000090:                                                                                                  #           THE FOLLOWING ROUTINES ARE IDENTICAL TO BANKCALL AND SWCALL EXCEPT THAT THEY ARE USED IN INTERRUPT.
000091:
000092:    4633           52073        IBNKCALL           DXCH     RUPTREG3                              #  USES RUPTREG3,4 FOR DP RETURN ADDRESS.
000093:    4634           50002                           INDEX    Q
000094:    4635           30000                           CAF      0
000095:    4636           24002                           INCR     Q
000096:
000097:    4637           54001        ISWCALL            TS       L
000098:    4640           22004                           LXCH     FBANK
000099:    4641           74747                           MASK     LOW10
000100:    4642           56002                           XCH      Q
000101:    4643           52073                           DXCH     RUPTREG3
000102:    4644           50002                           INDEX    Q
000103:    4645           02000                           TC       10000
000104:
000105:    4646           56073        ISWRETRN           XCH      RUPTREG4
000106:    4647           56004                           XCH      FBANK
000107:    4650           56073                           XCH      RUPTREG4
000108:    4651           00072                           TC       RUPTREG3
000109:
000110:                                                                                                  #  2. USPRCADR ACCESSES INTERPRETIVE CODING IN OTHER THAN THE USER'S FBANK. THE CALLING SEQUENCE IS AS FOLLOWS:
000111:
000112:                                                                                                  #                                          L        TC     USPRCADR
000113:                                                                                                  #                                          L+1      CADR   INTPRETX        INTPRETX IS THE INTERPRETIVE CODING
000114:                                                                                                  #                                                                          RETURN IS TO L+2
000115:
000116:    4652           54164        USPRCADR           TS       LOC                                   #  SAVE A
000117:    4653           34703                           CA       BIT8
000118:    4654           54023                           TS       EDOP                                  #  EXIT INSTRUCTION TO EDOP
000119:    4655           30006                           CA       BBANK
000120:    4656           54165                           TS       BANKSET                               #  USER'S BBANK TO BANKSET
000121:    4657           50002                           INDEX    Q
000122:    4660           30000                           CA       0
000123:    4661           54004                           TS       FBANK                                 #  INTERPRETIVE BANK TO FBANK
000124:    4662           74747                           MASK     LOW10                                 #  YIELDS INTERPRETIVE RELATIVE ADDRESS
000125:    4663           56002                           XCH      Q                                     #  INTERPRETIVE ADDRESS TO Q, FETCHING L+1
000126:    4664           56164                           XCH      LOC                                   #  L+1 TO LOC, RETRIEVING ORIGINAL A
000127:    4665           14602                           TCF      Q+10000
000128:


000130:                                                                                                  #  THERE ARE FOUR POSSIBLE SETTINGS FOR CHANNEL 07. (CHANNEL 07 CONTAINS THE SUPERBANK SETTING.)
000131:                                                                                                  #                                            PSEUDO-FIXED     OCTAL PSEUDO
000132:                                                                                                  #  SUPERBANK     SETTING     S-REG. VALUE    BANK NUMBERS     ADDRESSES
000133:                                                                                                  #  ----------    -------     ------------     ------------     ------------
000134:
000135:                                                                                                  #  SUPERBANK 3     0XX       2000 - 3777        30 - 37       70000 - 107777   (WHERE XX CAN BE ANYTHING AND
000136:                                                                                                  #                                                                              WILL USUALLY BE SEEN AS 11)
000137:                                                                                                  #  SUPERBANK 4     100       2000 - 3777        40 - 47       110000 - 127777  (AS FAR AS IT CAN BE SEEN,
000138:                                                                                                  #                                                                              ONLY BANKS 40-43 WILL EVER BE
000139:                                                                                                  #                                                                              AND ARE PRESENTLY AVAILABLE)
000140:                                                                                                  #  SUPERBANK 5     101       2000 - 3777        50 - 57       130000 - 147777  (PRESENTLY NOT AVAILABLE TO
000141:                                                                                                  #                                                                              THE USER)
000142:                                                                                                  #  SUPERBANK 6     110       2000 - 3777        60 - 67       150000 - 167777  (PRESENTLY NOT AVAILABLE TO
000143:                                                                                                  #                                                                              THE USER)
000144:                                                                                                  #  ***  THIS ROUTINE MAYBE CALLED BY ANY PROGRAM LOCATED IN BANKS 00 - 27.  I.E., NO PROGRAM LIVING IN ANY
000145:                                                                                                  #  SUPERBANK SHOULD USE SUPERSW.  ***
000146:
000147:                                                                                                  #  SUPERSW MAYBE CALLED IN THIS FASHION:
000148:
000149:                                                                                                  #           CAF    ABBCON          WHERE  --  ABBCON   BBCON  SOMETHIN --
000150:                                                                                                  #           TCR    SUPERSW         (THE SUPERBNK BITS ARE IN THE BBCON)
000151:                                                                                                  #           ...      ...
000152:                                                                                                  #            .        .
000153:                                                                                                  #            .        .
000154:
000155:                                                                                                  #  OR IN THIS FASHION :
000156:
000157:                                                                                                  #           CAF    SUPERSET        WHERE SUPERSET IS ONE OF THE FOUR AVAILABLE
000158:                                                                                                  #           TCR    SUPERSW         SUPERBANK BIT CONSTANTS:
000159:                                                                                                  #           ...      ...                                   SUPER011 OCTAL  60
000160:                                                                                                  #            .        .                                    SUPER100 OCTAL 100
000161:                                                                                                  #            .        .                                    SUPER101 OCTAL 120
000162:                                                                                                  #                                                          SUPER110 OCTAL 140
000163:
000164:    4666           00006        SUPERSW            EXTEND
000165:    4667           01007                           WRITE    SUPERBNK                              #  WRITE BITS 7-6-5 OF THE ACCUMULATOR INTO
000166:                                                                                                  #  CHANNEL 07
000167:    4670           00002                           TC       Q                                     #  TC TO INSTRUCTION FOLLOWING
000168:                                                                                                  #    TC  SUPERSW

End of include-file INTER-BANK_COMMUNICATION.agc.  Parent file is MAIN.agc


