
Source Code


000002:                                                                                                  ## Copyright:   Public domain.
000003:                                                                                                  ## Filename:    INTERRUPT_LEAD_INS.agc
000004:                                                                                                  ## Purpose:     Part of the source code for Colossus build 237.
000005:                                                                                                  ##              This is for the Command Module's (CM) Apollo Guidance
000006:                                                                                                  ##              Computer (AGC), for Apollo 8.
000007:                                                                                                  ## Assembler:   yaYUL
000008:                                                                                                  ## Reference:   pp. 126-127
000009:                                                                                                  ## Contact:     Jim Lawton <jim DOT lawton AT gmail DOT com>
000010:                                                                                                  ## Website:     www.ibiblio.org/apollo.
000011:                                                                                                  ## Mod history: 2010-12-04 JL   Adapted from similar Colossus 249 file.
000012:                                                                                                  ##              2016-12-29 RSB  Proofed comment text using octopus/ProoferComments,
000013:                                                                                                  ##                              but no errors found.
000014:


000016:    4000                                           SETLOC   4000
000017:
000018:    4000                                           COUNT    02/RUPTS
000019:
000020:    4000           00004                           INHINT                                         #  GO
000021:    4001           34054                           CAF      GOBB
000022:    4002           56006                           XCH      BBANK
000023:    4003           12511                           TCF      GOPROG
000024:
000025:    4004           52011                           DXCH     ARUPT                                 #  T6RUPT
000026:    4005           00006                           EXTEND
000027:    4006           31311                           DCA      T6LOC
000028:    4007           52006                           DTCB
000029:
000030:    4010           52011                           DXCH     ARUPT                                 #  T5RUPT
000031:    4011           40030                           CS       TIME5
000032:    4012           64731                           AD       .5SEC
000033:    4013           14065                           TCF      T5RUPT
000034:
000035:    4014           52011                           DXCH     ARUPT                                 #  T3RUPT
000036:    4015           34055                           CAF      T3RPTBB
000037:    4016           56006                           XCH      BBANK
000038:    4017           13416                           TCF      T3RUPT
000039:
000040:    4020           52011                           DXCH     ARUPT                                 #  T4RUPT
000041:    4021           34063                           CAF      T4RPTBB
000042:    4022           56006                           XCH      BBANK
000043:    4023           12000                           TCF      T4RUPT
000044:
000045:    4024           52011                           DXCH     ARUPT                                 #  KEYRUPT1
000046:    4025           34056                           CAF      KEYRPTBB
000047:    4026           56006                           XCH      BBANK
000048:    4027           13613                           TCF      KEYRUPT1
000049:
000050:    4030           52011                           DXCH     ARUPT                                 #  KEYRUPT2
000051:    4031           34057                           CAF      MKRUPTBB
000052:    4032           56006                           XCH      BBANK
000053:    4033           12103                           TCF      MARKRUPT
000054:
000055:    4034           52011                           DXCH     ARUPT                                 #  UPRUPT
000056:    4035           34056                           CAF      UPRPTBB
000057:    4036           56006                           XCH      BBANK
000058:    4037           13636                           TCF      UPRUPT
000059:
000060:    4040           52011                           DXCH     ARUPT                                 #  DOWNRUPT
000061:    4041           34060                           CAF      DWNRPTBB
000062:    4042           56006                           XCH      BBANK
000063:    4043           13331                           TCF      DODOWNTM
000064:
000065:    4044           52011                           DXCH     ARUPT                                 #  RADAR RUPT


000067:    4045           34061                           CAF      RDRPTBB
000068:    4046           56006                           XCH      BBANK
000069:    4047           12476                           TCF      VHFREAD
000070:
000071:    4050           52011                           DXCH     ARUPT                                 #  HAND CONTROL RUPT
000072:    4051           34062                           CA       HCRUPTBB
000073:    4052           56006                           XCH      BBANK
000074:    4053           15225                           TCF      RESUME     +3                         #  NOT USED
000075:    4054  E3,1400                                  EBANK=   LST1                                  #  RESTART USES E0,E3
000076:    4054           12063        GOBB               BBCON    GOPROG
000077:
000078:    4055  E3,1400                                  EBANK=   LST1
000079:    4055           02063        T3RPTBB            BBCON    T3RUPT
000080:
000081:    4056     0073                                  EBANK=   KEYTEMP1
000082:    4056           16060        KEYRPTBB           BBCON    KEYRUPT1
000083:
000084:    4057  E7,1725                                  EBANK=   MRKBUF1
000085:    4057           16067        MKRUPTBB           BBCON    MARKRUPT
000086:
000087:    4060     4056               UPRPTBB            =        KEYRPTBB
000088:
000089:    4060     0340                                  EBANK=   DNTMBUFF
000090:    4060           12060        DWNRPTBB           BBCON    DODOWNTM
000091:
000092:    4061  E7,1603                                  EBANK=   DATATEST
000093:    4061           56067        RDRPTBB            BBCON    VHFREAD
000094:    4062     0025                                  EBANK=   TIME1
000095:    4062           04060        HCRUPTBB           BBCON    RESUME                                #  NOT USED
000096:    4063     1302                                  EBANK=   DSRUPTSW
000097:    4063           14062        T4RPTBB            BBCON    T4RUPT
000098:    4064     0025                                  EBANK=   TIME1
000099:    4064           04060        T5RPTBB            BBCON    T5RUPT
000100:
000101:    4065           00006        T5RUPT             EXTEND
000102:    4066           65226                           BZMF     NOQBRSM
000103:    4067           00006                           EXTEND
000104:    4070           31313                           DCA      T5LOC
000105:    4071           52006                           DTCB

End of include-file INTERRUPT_LEAD_INS.agc.  Parent file is MAIN.agc


