
Source Code


000002:                                                                                                  #  Copyright:    Public domain.
000003:                                                                                                  #  Filename:     INTERRUPT_LEAD_INS.agc
000004:                                                                                                  #  Purpose:      Part of the source code for Colossus build 237.
000005:                                                                                                  #                This is for the Command Module's (CM) Apollo Guidance
000006:                                                                                                  #                Computer (AGC), we believe for Apollo 8.
000007:                                                                                                  #  Assembler:    yaYUL
000008:                                                                                                  #  Reference:    pp. 126-127
000009:                                                                                                  #  Contact:      Jim Lawton <jim DOT lawton AT gmail DOT com>
000010:                                                                                                  #  Website:      www.ibiblio.org/apollo.
000011:                                                                                                  #  Mod history:  2010-12-04 JL   Adapted from similar Colossus 249 file.
000012:
000013:                                                                                                  # # Page 126
000014:    4000                                           SETLOC   4000
000015:
000016:    4000                                           COUNT    02/RUPTS
000017:
000018:    4000           00004                           INHINT                                         #  GO
000019:    4001           34054                           CAF      GOBB
000020:    4002           56006                           XCH      BBANK
000021:    4003           12511                           TCF      GOPROG
000022:
000023:    4004           52011                           DXCH     ARUPT                                 #  T6RUPT
000024:    4005           00006                           EXTEND
000025:    4006           31311                           DCA      T6LOC
000026:    4007           52006                           DTCB
000027:
000028:    4010           52011                           DXCH     ARUPT                                 #  T5RUPT
000029:    4011           40030                           CS       TIME5
000030:    4012           64731                           AD       .5SEC
000031:    4013           14065                           TCF      T5RUPT
000032:
000033:    4014           52011                           DXCH     ARUPT                                 #  T3RUPT
000034:    4015           34055                           CAF      T3RPTBB
000035:    4016           56006                           XCH      BBANK
000036:    4017           13416                           TCF      T3RUPT
000037:
000038:    4020           52011                           DXCH     ARUPT                                 #  T4RUPT
000039:    4021           34063                           CAF      T4RPTBB
000040:    4022           56006                           XCH      BBANK
000041:    4023           12000                           TCF      T4RUPT
000042:
000043:    4024           52011                           DXCH     ARUPT                                 #  KEYRUPT1
000044:    4025           34056                           CAF      KEYRPTBB
000045:    4026           56006                           XCH      BBANK
000046:    4027           13613                           TCF      KEYRUPT1
000047:
000048:    4030           52011                           DXCH     ARUPT                                 #  KEYRUPT2
000049:    4031           34057                           CAF      MKRUPTBB
000050:    4032           56006                           XCH      BBANK
000051:    4033           12103                           TCF      MARKRUPT
000052:
000053:    4034           52011                           DXCH     ARUPT                                 #  UPRUPT
000054:    4035           34056                           CAF      UPRPTBB
000055:    4036           56006                           XCH      BBANK
000056:    4037           13636                           TCF      UPRUPT
000057:
000058:    4040           52011                           DXCH     ARUPT                                 #  DOWNRUPT
000059:    4041           34060                           CAF      DWNRPTBB
000060:    4042           56006                           XCH      BBANK
000061:    4043           13331                           TCF      DODOWNTM
000062:
000063:    4044           52011                           DXCH     ARUPT                                 #  RADAR RUPT
000064:                                                                                                  # # Page 127
000065:    4045           34061                           CAF      RDRPTBB
000066:    4046           56006                           XCH      BBANK
000067:    4047           12476                           TCF      VHFREAD
000068:
000069:    4050           52011                           DXCH     ARUPT                                 #  HAND CONTROL RUPT
000070:    4051           34062                           CA       HCRUPTBB
000071:    4052           56006                           XCH      BBANK
000072:    4053           15225                           TCF      RESUME     +3                         #  NOT USED
000073:    4054  E3,1400                                  EBANK=   LST1                                  #  RESTART USES E0,E3
000074:    4054           12063        GOBB               BBCON    GOPROG
000075:
000076:    4055  E3,1400                                  EBANK=   LST1
000077:    4055           02063        T3RPTBB            BBCON    T3RUPT
000078:
000079:    4056     0073                                  EBANK=   KEYTEMP1
000080:    4056           16060        KEYRPTBB           BBCON    KEYRUPT1
000081:
000082:    4057  E7,1725                                  EBANK=   MRKBUF1
000083:    4057           16067        MKRUPTBB           BBCON    MARKRUPT
000084:
000085:    4060     4056               UPRPTBB            =        KEYRPTBB
000086:
000087:    4060     0340                                  EBANK=   DNTMBUFF
000088:    4060           12060        DWNRPTBB           BBCON    DODOWNTM
000089:
000090:    4061  E7,1603                                  EBANK=   DATATEST
000091:    4061           56067        RDRPTBB            BBCON    VHFREAD
000092:    4062     0025                                  EBANK=   TIME1
000093:    4062           04060        HCRUPTBB           BBCON    RESUME                                #  NOT USED
000094:    4063     1302                                  EBANK=   DSRUPTSW
000095:    4063           14062        T4RPTBB            BBCON    T4RUPT
000096:    4064     0025                                  EBANK=   TIME1
000097:    4064           04060        T5RPTBB            BBCON    T5RUPT
000098:
000099:    4065           00006        T5RUPT             EXTEND
000100:    4066           65226                           BZMF     NOQBRSM
000101:    4067           00006                           EXTEND
000102:    4070           31313                           DCA      T5LOC
000103:    4071           52006                           DTCB

End of include-file INTERRUPT_LEAD_INS.agc.  Parent file is MAIN.agc


