
Source Code


000002:                                                                                                  ## Copyright:    Public domain.
000003:                                                                                                  ## Filename:     INTEGRATION_INITIALIZATION.agc
000004:                                                                                                  ## Purpose:      Part of the source code for Colossus build 237.
000005:                                                                                                  ##               This is for the Command Module's (CM) Apollo Guidance
000006:                                                                                                  ##               Computer (AGC), we believe for Apollo 8.
000007:                                                                                                  ## Assembler:    yaYUL
000008:                                                                                                  ## Contact:      Jim Lawton <jim DOT lawton AT gmail DOT com>
000009:                                                                                                  ## Website:      www.ibiblio.org/apollo/index.html
000010:                                                                                                  ## Page Scans:   www.ibiblio.org/apollo/ScansForConversion/Colossus237/
000011:                                                                                                  ## Mod history:  2011-04-17 JL  Adapted from corresponding Colossus 249 file.
000012:


000014:                                                                                                  #  1.0 INTRODUCTION
000015:                                                                                                  #  ----------------
000016:
000017:                                                                                                  #  FROM A USERS POINT OF VIEW, ORBITAL INTEGRATION IS ESSENTIALLY THE SAME AS THE 278 INTEGRATION
000018:                                                                                                  #  PROGRAM. THE SAME ENTRANCES TO THE PROGRAM WILL BE MAINTAINED, THE SAME STALLING ROUTINE WILL BE USED AND
000019:                                                                                                  #  OUTPUT WILL STILL BE VIA THE PUSHLIST. THE PRIMARY DIFFERENCES TO A USER INVOLVE THE ADDED CAPABILITY OF
000020:                                                                                                  #  TERMINATING INTEGRATION AT A SPECIFIC FINAL RADIUS AND THE DIFFERENCE IN STATE VECTOR SCALING INSIDE AND OUT-
000021:                                                                                                  #  SIDE THE LUNAR SPHERE OF INFLUENCE.
000022:
000023:                                                                                                  #  IN ORDER TO MAKE THE CSM(LEM)PREC AND CSM(LEM)CONIC ENTRANCES SIMILAR TO FLIGHT 278, THE INTEGRATION PROGRAM
000024:                                                                                                  #  WILL ITSELF SET THE FINAL RADIUS (RFINAL) TO 0 SO THAT REACHING THE DESIRED TIME ONLY WILL TERMINATE
000025:                                                                                                  #  INTEGRATION. THE DP REGISTER RFINAL MUST BE SET BY USERS OF INTEGRVS AND INTEGRV, AND MUST BE DONE AFTER THE
000026:                                                                                                  #  CALL TC INTSTALL.
000027:
000028:                                                                                                  #  WHEN THE LM IS ON THE LUNAR SURFACE (INDICATED BY LUNAR SURFACE FLAG SET) CALLS TO LEMCONIC, LEMPREC, AND
000029:                                                                                                  #  INTEGRV WITH VINFLAG = 0 WILL RESULT IN THE USE OF THE PLANETARY INERTIAL ORIENTATION SUBROUTINES TO PROVIDE
000030:                                                                                                  #  BOTH THE LMS POSITION AND VELOCITY IN THE REFERENCE COORDINATE  SYSTEM.
000031:                                                                                                  #  THE PROGRAM WILL PROVIDE OUTPUT AS IF INTEGRATION WAS USED. THAT IS, THE PUSHLIST WILL BE SET AS NOTED BELOW AND
000032:                                                                                                  #  THE PERMANENT STATE VECTOR UPDATED WHEN SPECIFIED BY AN INTEGRV CALL.
000033:
000034:                                                                                                  #  USERS OF INTEGRVS DESIRING INTEGRATION (INTYPFLG = 0) SHOULD NOTE THAT THE OBLATENESS PERTURBATION COMPUTATION
000035:                                                                                                  #  IN LUNAR ORBIT IS TIME DEPENDENT. THEREFORE, THE USER SHOULD SUPPLY AN INITIAL STATE VECTOR VALID AT SOME REAL
000036:                                                                                                  #  TIME AND THE DESIRED TIME (TDEC1) ALSO AT SOME REAL TIME. FOR CONIC ,,INTEGRATION,, THE USER MAY STILL USE ZERO
000037:                                                                                                  #  AS THE INITIAL TIME AND DELTA TIME AS THE DESIRED TIME.
000038:
000039:                                                                                                  #  2.0 CENTRAL DESCRIPTION
000040:                                                                                                  #  -----------------------
000041:
000042:                                                                                                  #  THE INTEGRATION PROGRAM OPERATES AS A CLOSED INTERPRETIVE SUBROUTINE AND PERFORMS THESE FUNCTIONS---
000043:                                                                                                  #     1) INTEGRATES (PRECISION OR CONIC) EITHER CSM OR LM STATE VECTOR
000044:                                                                                                  #     2) INTEGRATES THE W-MATRIX
000045:                                                                                                  #     3) PERMANENT OR TEMPORARY UPDATE OF THE STATE VECTOR
000046:
000047:                                                                                                  #  THERE ARE SIX ENTRANCES TO THE INTEGRATION PROGRAM. FOUR OF THESE (CSMPREC, LEMPREC, CSMCONIC, LEMCONIC) SET
000048:                                                                                                  #  ALL THE FLAGS REQUIRED IN THE INTEGRATION PROGRAM ITSELF TO CAUSE THE PRECISION OR CONIC INTEGRATION (KEPLER) OF
000049:                                                                                                  #  THE LM OR CSM STATE VECTOR, AS THE NAMES SUGGEST. ONE ENTRANCE (INTEGRVS) PERMITS THE CALLING PROGRAM TO
000050:                                                                                                  #  PROVIDE A STATE VECTOR TO BE INTEGRATED. THE CALLING PROGRAM MUST SET THE FLAGS INDICATING (1) PRECISION OR
000051:                                                                                                  #  CONIC INTEGRATION, (2) IN OR OUT OF LUNAR SPHERE, (3) MIDCOURSE OR NOT, AND THE INTEGRATION PROGRAM COMPLETES
000052:                                                                                                  #  THE FLAG SETTING TO BYPASS W-MATRIX INTEGRATION. THE LAST ENTRANCE (INTEGRV, USED IN GENERAL BY THE
000053:                                                                                                  #  NAVIGATION PROGRAMS) PERMITS THE CALLER TO SET FIVE FLAGS (NOT MOONFLAG OR MIDFLAG) BUT NOT TO INPUT A STATE
000054:                                                                                                  #  VECTOR. ANY PROGRAM WHICH CALLS INTEGRVS OR INTEGRV MUST CALL INTSTALL BEFORE IT SETS THE INTEGRATION FLAGS
000055:                                                                                                  #  AND/OR STATE VECTOR.
000056:
000057:                                                                                                  #  THREE SETS OF 42 REGISTERS AND 2 FLAGS ARE USED FOR THE STATE VECTORS. TWO SETS, WHICH MAY NOT BE OVERLAYED, ARE
000058:                                                                                                  #  USED FOR THE PERMANENT STATE VECTORS FOR THE CSM AND LM. THE THIRD SET, WHICH MAY BE OVERLAYED WHEN INTEGRATION
000059:                                                                                                  #  IS NOT BEING DONE, IS USED IN THE COMPUTATIONS.
000060:
000061:                                                                                                  #  THE PERMANENT STATE VECTORS WILL BE PERIODICALLY UPDATED SO THAT THE VECTORS WILL NOT BE OLDER THAN 4 TIMESTEPS.
000062:                                                                                                  #  THE PERMANENT STATE VECTORS WILL ALSO BE UPDATED WHENEVER THE W-MATRIX IS INTEGRATED OR WHEN A CALLER OF INTEGRV
000063:                                                                                                  #  SETS STATEFLG (THE NAVIGATION PROGRAMS P20, P22.)


000065:                                                                                                  #  APPENDIX B OF THE USERS GUIDE LISTS THE STATE VECTOR QUANTITIES.
000066:
000067:                                                                                                  #  2.1 RESTARTS
000068:
000069:                                                                                                  #  PHASE CHANGES WILL BE MADE IN THE INTEGRATION PROGRAM ONLY FOR THE INTEGRV ENTRANCE (I.E., WHEN THE W-MATRIX IS
000070:                                                                                                  #  INTEGRATED OR PERMANENT STATE VECTOR IS UPDATED.) THE GROUP NUMBER USED WILL BE THAT FOR THE P20-25 PROGRAMS
000071:                                                                                                  #  (I.E., GROUP2) WINCE THE INTEGRV ENTRANCE WILL ONLY BE USED BY THESE PROGRAMS. IF A RESTART OCCURS DURING AN
000072:                                                                                                  #  INTEGRATION OF THE STATE VECTOR ONLY, THE RECOVERY WILL BE TO THE LAST PHASE IN THE CALLING PROGRAM. CALLING
000073:                                                                                                  #  PROGRAMS WHICH USE THE INTEGRV OR INTEGRVS ENTRANCE OF INTEGRATION SHOULD ENSURE THAT IF PHASE CHANGING IS DONE
000074:                                                                                                  #  THAT IT IS PRIOR TO SETTING THE INTEGRATION INPUTS IN THE PUSHLIST.
000075:                                                                                                  #  THIS IS BECAUSE THE PUSHLIST IS LOST DURING A RESTART.
000076:
000077:                                                                                                  #  2.2 SCALING
000078:
000079:                                                                                                  #  THE INTEGRATION ROUTINE WILL MAINTAIN THE PERMANENT MEMORY STATE VECTORS IN THE SCALING AND UNITS DEFINED IN
000080:                                                                                                  #  APPENDIX B OF THE USERS GUIDE. THE SCALING OF THE OUTPUT POSITION VECTORDEPENDS ON THE ORIGIN OF THE COORDINATE
000081:                                                                                                  #   SYSTEM AT THE DESIRED INTEGRATION TIME. THE COORDINATE SYSTEM TRANSFORMATION WILL BE DONE AUTOMATICALLY ON
000082:                                                                                                  #  MULTIPLE TIMESTEP ENCKE INTEGRATION ONLY. THUS IT IS POSSIBLE TO HAVE OUTPUT FROM SUCCESSIVE INTEGRATIONS IN
000083:                                                                                                  #  DIFFERENT SCALING.
000084:                                                                                                  #  HOWEVER, RATT, VATT WILL ALWAYS BE SCALED THE SAME.
000085:
000086:                                                                                                  #  3.0 INPUT/OUTPUT
000087:                                                                                                  #  ----------------
000088:
000089:                                                                                                  #  PROGRAM INPUTS ARE THE FLAGS DESCRIBED IN APPENDIX A AND THE PERMANENT STATE VECTOR QUANTITIES DESCRIBED IN AP-
000090:                                                                                                  #  PENDIX B OF THE USERS GUIDE, PLUS THE DESIRED TIME TO INTEGRATE TO IN TDEC1 (A PUSH LIST LOCATION).
000091:                                                                                                  #  FOR INTEGRVS, THE RCV,VCV, TET OF THE TEMPORARY STATE VECTOR MUST BE SET, PLUS MOONFLAG AND MIDFLAG
000092:
000093:                                                                                                  #  FOR SIMULATION THE FOLLOWING QUANTITIES MUST BE PRESET ---
000094:
000095:                                                                                                  #                                                             EARTH  MOON
000096:                                                                                                  #                                                              29     27
000097:                                                                                                  #     RRECTCSM(LEM)  - RECTIFIED POSITION VECTOR      METERS  2      2
000098:
000099:                                                                                                  #                                                              7      5
000100:                                                                                                  #     VRECTCSM(LEM)  - RECTIFIED VELOCITY VECTOR      M/CSEC  2    2
000101:
000102:                                                                                                  #                                                              28     28
000103:                                                                                                  #     TETCSM(LEM)    - TIME STATE VECTOR IS VALID     CSEC    2      2
000104:                                                                                                  #                      CUSTOMARILY 0, BUT NOT LUNAR
000105:                                                                                                  #                      ORBIT DEPENDENCE ON REAL TIME.
000106:
000107:                                                                                                  #                                                              22     18
000108:                                                                                                  #     DELTAVCSM(LEM) - POSITION DEVIATION             METERS  2      2
000109:                                                                                                  #                      0 IF TCCSM(LEM) = 0
000110:
000111:                                                                                                  #                                                              3      -1
000112:                                                                                                  #     NUVCSM(LEM)    - VELOCITY DEVIATION             M/CSEC  2      2
000113:                                                                                                  #                      0 IF TCCSM(LEM) = 0


000115:                                                                                                  #                                                              29     27
000116:                                                                                                  #     RCVSM(LEM)     - CONIC POSITION                 METERS  2      2
000117:                                                                                                  #                      EQUALS RRECTCSM(LEM) IF
000118:                                                                                                  #                      TCCSM(LEM) = 0
000119:
000120:                                                                                                  #                                                              7      5
000121:                                                                                                  #     VCVCSM(LEM)    - CONIC VELOCITY                 M/CSEC  2      2
000122:                                                                                                  #                      EQUALS VRECTCSM(LEM) IF
000123:                                                                                                  #                      TCCSM(LEM) = 0
000124:
000125:                                                                                                  #                                                              28     28
000126:                                                                                                  #     TCCSM(LEM)     - TIME SINCE RECTIFICATION       CSECS   2      2
000127:                                                                                                  #                      CUSTOMARILY 0
000128:
000129:                                                                                                  #                                                      1/2     17     16
000130:                                                                                                  #     XKEPCSM(LEM)   - ROOT OF KEPLERS EQUATION       M       2      2
000131:                                                                                                  #                      0 IF TCCSM(LEM) = 0
000132:
000133:                                                                                                  #     CMOONFLG       - PERMANENT FLAGS CORRESPONDING          0      0
000134:                                                                                                  #     CMIDFLAG         TO MOONFLAG AND MIDFLAG                0,1    0,1
000135:                                                                                                  #     LMOONFLG         C = CSM, L = LM                        0      0
000136:                                                                                                  #     LMIDFLG                                                 0,1    0,1
000137:
000138:                                                                                                  #     SURFFLAG       - LUNAR SURFACE FLAG                     0,1    0,1
000139:
000140:                                                                                                  #  IN ADDITION, IF (L)CMIDFLAG IS SET, THE INITIAL INPUT VALUES FOR LUNAR
000141:                                                                                                  #  SOLAR EPHEMERIDES SUBROUTINE AND PLANETARY INERTIAL ORIENTATION SUB-
000142:                                                                                                  #  ROUTINE MUST BE PRESET.
000143:
000144:                                                                                                  #  OUTPUT
000145:                                                                                                  #  AFTER EVERY CALL TO INTEGRATION
000146:                                                                                                  #                                                             EARTH  MOON
000147:                                                                                                  #                                                              29     29
000148:                                                                                                  #      0D   RATT   POSITION                           METERS  2      2
000149:                                                                                                  #                                                              7      7
000150:                                                                                                  #      6D   VATT   VELOCITY                           M/CSEC  2      2
000151:                                                                                                  #                                                              28     28
000152:                                                                                                  #     12D   TAT    TIME                                       2      2
000153:                                                                                                  #                                                              29     27
000154:                                                                                                  #     14D   RATT1  POSITION                           METERS  2      2
000155:                                                                                                  #                                                              7      5
000156:                                                                                                  #     20D   VATT1  VELOCITY                           M/CSEC  2      2
000157:                                                                                                  #                                                      3   2   36     30
000158:                                                                                                  #     26D   MU(P)  MU                                 M /CS   2      2
000159:
000160:                                                                                                  #     X1           MUTABLE ENTRY                              -2     -10D
000161:
000162:                                                                                                  #     X2           COORDINT
000163:                                                                                                  #     X2           COORDINATE SYSTEM ORIGIN                   0      2
000164:                                                                                                  #                  (THIS, NOT MOONFLAG, SHOULD BE


000166:                                                                                                  #                  USED TO DETERMINE ORIGIN.)
000167:
000168:                                                                                                  #  IN ADDITION TO THE ABOVE, THE PERMANENT STATE VECTOR IS UPDATED WHENEVER
000169:                                                                                                  #  STATEFLG WAS SET AND WHENEVER A W-MATRIX IS TO BE INTEGRATED. THE PUSH
000170:                                                                                                  #  COUNTER IS SET TO 0 AND OVERFLOW IS CLEARED BEFORE RETURNING TO THE
000171:                                                                                                  #  CALLING PROGRAM.
000172:
000173:                                                                                                  #  4.0 CALLING SEQUENCES AND SAMPLE CODE
000174:                                                                                                  #  -------------------------------------
000175:
000176:                                                                                                  #      A) PRECISION ORBITAL INTEGRATION. CSMPREC,LEMPREC ENTRANCES
000177:                                                                                                  #            L-X    STORE TIME TO 95T5791T5 T  95 PUS  L9ST (T4531)
000178:                                                                                                  #            L      CALL
000179:                                                                                                  #            L+1           CSMPREC (OR LEMPREC)
000180:                                                                                                  #            L+2    RETURN
000181:                                                                                                  #         INPUT                                                         28
000182:                                                                                                  #            TDEC1 (PD 32D) TIME TO INTEGRATE TO...CENTISECONDS SCALED 2
000183:                                                                                                  #         OUTPUT
000184:                                                                                                  #            THE DATA LISTED IN SECTION 3.0 PLUS
000185:                                                                                                  #            RQVV   POSITION VECTOR OF VEHICLE WITH RESPECT TO SECONDARY
000186:                                                                                                  #            BODY... METERS B-29 ONLY IF MIDFLAG = DIM0FLAG = 1
000187:                                                                                                  #      B) CONIC INTEGRATION. CSMCONIC, LEMCONIC ENTRANCES
000188:                                                                                                  #            L-X    STORE TIME IN PUSH LIST (TDEC1)
000189:                                                                                                  #            L      CALL
000190:                                                                                                  #            L+1           CSMCONIC (OR LEMCONIC)
000191:                                                                                                  #         INPUT/OUTPUT
000192:                                                                                                  #            SAME AS PRECISION INTEGRATION, EXCEPT RQVV NOT SET
000193:                                                                                                  #      C) INTEGRATE GIVEN STATE VECTOR. INTEGRVS ENTRANCE
000194:                                                                                                  #                   CALL
000195:                                                                                                  #                          INTSTALL
000196:                                                                                                  #                   VLOAD
000197:                                                                                                  #                          POSITION VECTOR
000198:                                                                                                  #                   STOVL  RCV
000199:                                                                                                  #                          VELOCITY VECTOR
000200:                                                                                                  #                   STODL  VCV
000201:                                                                                                  #                          TIME STATE VECTOR VALID
000202:                                                                                                  #                   STODL  TET
000203:                                                                                                  #                          FINAL RADIUS
000204:                                                                                                  #                   STORE  RFINAL
000205:                                                                                                  #                   SET(CLEAR)  SET(CLEAR)
000206:                                                                                                  #                               INTYPFLAG
000207:                                                                                                  #                               MOONFLAG
000208:                                                                                                  #                   SET(CLEAR)  DLOAD
000209:                                                                                                  #                               DESIRED TIME
000210:                                                                                                  #                   STCALL      TDEC1
000211:                                                                                                  #                               INTEGRVS
000212:                                                                                                  #         INPUT
000213:                                                                                                  #            RCV    POSITION VECTOR                  METERS
000214:                                                                                                  #            VCV    VELOCITY VECTOR                  M/CSEC
000215:                                                                                                  #            TET    TIME OF STATE VECTOR(MAY = 0)    CSEC B-28


000217:                                                                                                  #            TDEC1  TIME TO INTEGRATE TO             CSEC B-28 (PD 32D)
000218:                                                                                                  #                   (MAY BE INCREMENT IF TET=0)
000219:                                                                                                  #         OUTPUT
000220:                                                                                                  #            SAME AS FOR PRECISION OR CONIC INTEGRATION,
000221:                                                                                                  #            DEPENDING ON INTYPFLG.
000222:                                                                                                  #      D) INTEGRATE STATE VECTOR.INTGRV ENTRANCE
000223:                                                                                                  #            L-X    STORE TIME IN PUSH LIST (TDEC1)(MAY BE DONE AFTER CALL TO INTSTALL)
000224:                                                                                                  #            L-8    CALL
000225:                                                                                                  #            L-7
000226:                                                                                                  #            L-6    SET(CLEAR) SET(CLEAR)
000227:                                                                                                  #            L-5               VINTFLAG   1=CSM, 0=LM
000228:                                                                                                  #            L-4               INTYPFLAG  1=CONIC, 0=PRECISION
000229:                                                                                                  #            L-3    SET(CLEAR) SET(CLEAR)
000230:                                                                                                  #            L-2               DIM0FLAG   1=W-MATRIX, 0=NO W-MATRIX
000231:                                                                                                  #            L-1               D6OR9FLG   1=9X9, 0=6X6
000232:                                                                                                  #            L      SET        DLOAD
000233:                                                                                                  #            L+1               STATEFLG   DESIRE PERMANENT UPDATE
000234:                                                                                                  #            L+2               FINAL RAD. OF STATE VECTOR
000235:                                                                                                  #            L+3    STCALL     RFINAL
000236:                                                                                                  #            L+4               INTEGRV
000237:                                                                                                  #            L      CALL                  NORMAL USE-- WILL UPDATE STATE
000238:                                                                                                  #            L+1               INTEGRV    VECTOR IF DIM0FLAG=1.(STATEFLG IS
000239:                                                                                                  #            L+2    RETURN                ALWAYS RESET IN INTEGRATION AFTER
000240:                                                                                                  #                                         IT IS USED.)
000241:                                                                                                  #         INPUT
000242:                                                                                                  #            TDEC1 (PD 32D) TIME TO INTEGRATE TO    CSEC B-28
000243:                                                                                                  #         OUTPUT
000244:                                                                                                  #            SAME AS FOR PRECISION OR CONIC INTEGRATION
000245:                                                                                                  #         THE PROGRAM WILL SET MOONFLAG, MIDFLAG DEPENDING ON
000246:                                                                                                  #         THE PERMANENT STATE VECTOR REPRESENTATION.
000247:
000248: 11,2310                                           BANK     11
000249: 13,2000                                           SETLOC   INTINIT
000250: 13,2000                                           BANK
000251: 13,2561  E3,1554                                  EBANK=   RRECTCSM
000252: 13,2561                                           COUNT    13/INTIN
000253:
000254: 13,2561           05301        STATEINT           TC       PHASCHNG
000255: 13,2562           00052                           OCT      00052
000256: 13,2563           34754                           CAF      PRIO5
000257: 13,2564           05042                           TC       FINDVAC
000258: 13,2565  E3,1554                                  EBANK=   RRECTCSM
000259: 13,2565           02570 26063                     2CADR    STATINT1
000260: 13,2567           05213                           TC       TASKOVER
000261: 13,2570           06006        STATINT1           TC       INTPRET
000262: 13,2571           47014                           BON      RTB
000263: 13,2572           04712                                    QUITFLAG
000264: 13,2573           26630                                    NOINT                                 #  NO STATEINT IF V96
000265: 13,2574           45505                                    LOADTIME


000267: 13,2575           00041                           STORE    TDEC1
000268: 13,2576           77624                           CALL
000269: 13,2577           27371                                    INTSTALL
000270: 13,2600           45014                           SET      CALL
000271: 13,2601           01076                                    NODOFLAG
000272: 13,2602           26621                                    SETIFLGS
000273: 13,2603           77650                           GOTO
000274: 13,2604           26000                                    STATEUP
000275: 13,2605           00003 25140  600SECS            2DEC     60000      B-28
000276: 13,2607           77414        ENDINT             CLEAR    EXIT
000277: 13,2610           01672                                    STATEFLG
000278: 13,2611           05301                           TC       PHASCHNG
000279: 13,2612           20032                           OCT      20032
000280: 13,2613           00006                           EXTEND
000281: 13,2614           32606                           DCA      600SECS
000282: 13,2615           05231                           TC       LONGCALL
000283: 13,2616  E3,1554                                  EBANK=   RRECTHIS
000284: 13,2616           02561 26063                     2CADR    STATEINT
000285: 13,2620           05112                           TC       ENDOFJOB
000286: 13,2621           43014        SETIFLGS           SET      CLEAR
000287: 13,2622           01472                                    STATEFLG
000288: 13,2623           01673                                    INTYPFLG
000289: 13,2624           43014                           CLEAR    CLEAR
000290: 13,2625           01676                                    DIM0FLAG
000291: 13,2626           01675                                    D6OR9FLG
000292: 13,2627           77616                           RVQ
000293: 13,2630           77776        NOINT              EXIT
000294: 13,2631           05301                           TC       PHASCHNG
000295: 13,2632           00002                           OCT      2
000296:
000297: 13,2633           05447                           TC       DOWNFLAG
000298: 13,2634           00221                           ADRES    QUITFLAG
000299:
000300: 13,2635           05112                           TC       ENDOFJOB
000301:
000302:                                                                                                  #  ATOPCSM TRANSFERS RRECT TO RRECT +41 TO RRECTCSM TO RRECTCSM +41
000303:
000304:                                                                                                  #  CALLING SEQUENCE
000305:                                                                                                  #     L   CALL
000306:                                                                                                  #     L+1       ATOPCSM
000307:
000308:                                                                                                  #  NORMAL EXIT AT L+2
000309:
000310: 13,2636           47020        ATOPCSM            STQ      RTB
000311: 13,2637           00051                                    S2
000312: 13,2640           26651                                    MOVEACSM
000313: 13,2641           45014                           SET      CALL
000314: 13,2642           04063                                    CMOONFLG


000316: 13,2643           20237                                    SVDWN1
000317: 13,2644           43014                           BON      CLRGO
000318: 13,2645           00303                                    MOONFLAG
000319: 13,2646           00051                                    S2
000320: 13,2647           04223                                    CMOONFLG
000321: 13,2650           00051                                    S2
000322: 13,2651           03015        MOVEACSM           TC       SETBANK
000323: 13,2652           55500                           TS       DIFEQCNT                              #  INITIALIZE INDEX
000324: 13,2653           51500                           INDEX    DIFEQCNT
000325: 13,2654           31502                           CA       RRECT
000326: 13,2655           51500                           INDEX    DIFEQCNT
000327: 13,2656           55554                           TS       RRECTCSM
000328: 13,2657           11500                           CCS      DIFEQCNT                              #  IS TRANSFER COMPLETE
000329: 13,2660           12652                           TCF      MOVEACSM   +1                         #  NO-LOOP
000330: 13,2661           06030                           TC       DANZIG                                #  COMPLETE- RETURN
000331:
000332:
000333:                                                                                                  #  PTOACSM TRANSFERS RRECTCSM TO RRECTCSM +41 TO RRECT TO RRECT +41
000334:
000335:                                                                                                  #  CALLING SEQUENCE
000336:                                                                                                  #     L   CALL
000337:                                                                                                  #              PTOACSM
000338:
000339:                                                                                                  #  NORMAL EXIT AT L+2
000340: 13,2662           43034        PTOACSM            RTB      BON
000341: 13,2663           26700                                    MOVEPCSM
000342: 13,2664           04303                                    CMOONFLG
000343: 13,2665           26673                                    SETMOON
000344: 13,2666           66214        CLRMOON            CLEAR    SSP
000345: 13,2667           00263                                    MOONFLAG
000346: 13,2670           02151                                    PBODY
000347: 13,2671           00000                                    0
000348: 13,2672           77616                           RVQ
000349: 13,2673           66214        SETMOON            SET      SSP
000350: 13,2674           00063                                    MOONFLAG
000351: 13,2675           02151                                    PBODY
000352: 13,2676           00002                                    2
000353: 13,2677           77616                           RVQ
000354: 13,2700           03015        MOVEPCSM           TC       SETBANK
000355: 13,2701           55500                           TS       DIFEQCNT
000356: 13,2702           51500                           INDEX    DIFEQCNT
000357: 13,2703           31554                           CA       RRECTCSM
000358: 13,2704           51500                           INDEX    DIFEQCNT
000359: 13,2705           55502                           TS       RRECT
000360: 13,2706           11500                           CCS      DIFEQCNT
000361: 13,2707           12701                           TCF      MOVEPCSM   +1
000362: 13,2710           06030                           TC       DANZIG
000363:
000364:
000365:                                                                                                  #  ATOPLEM  TRANSFERS RRECT TO RRECT +41 TO RRECTLEM TO RRECTLEM +41


000367: 13,2711           47020        ATOPLEM            STQ      RTB
000368: 13,2712           00051                                    S2
000369: 13,2713           26724                                    MOVEALEM
000370: 13,2714           45014                           SET      CALL
000371: 13,2715           04064                                    LMOONFLG
000372: 13,2716           20263                                    SVDWN2
000373: 13,2717           43014                           BON      CLRGO
000374: 13,2720           00303                                    MOONFLAG
000375: 13,2721           00051                                    S2
000376: 13,2722           04224                                    LMOONFLG
000377: 13,2723           00051                                    S2
000378: 13,2724           03015        MOVEALEM           TC       SETBANK
000379: 13,2725           55500                           TS       DIFEQCNT
000380: 13,2726           51500                           INDEX    DIFEQCNT
000381: 13,2727           31502                           CA       RRECT
000382: 13,2730           51500                           INDEX    DIFEQCNT
000383: 13,2731           55626                           TS       RRECTLEM
000384: 13,2732           11500                           CCS      DIFEQCNT
000385: 13,2733           12725                           TCF      MOVEALEM   +1
000386: 13,2734           06030                           TC       DANZIG
000387:
000388:
000389:                                                                                                  #  PTOALEM  TRANSFERS RRECTLEM TO RRECTLEM +41 TO RRECT TO RRECT +41
000390:
000391: 13,2735           47014        PTOALEM            BON      RTB
000392: 13,2736           04307                                    SURFFLAG
000393: 13,2737           26756                                    USEPIOS
000394: 13,2740           26745                                    MOVEPLEM
000395: 13,2741           52014                           BON      GOTO
000396: 13,2742           04304                                    LMOONFLG
000397: 13,2743           26673                                    SETMOON
000398: 13,2744           26666                                    CLRMOON
000399: 13,2745           03015        MOVEPLEM           TC       SETBANK
000400: 13,2746           55500                           TS       DIFEQCNT
000401: 13,2747           51500                           INDEX    DIFEQCNT
000402: 13,2750           31626                           CA       RRECTLEM
000403: 13,2751           51500                           INDEX    DIFEQCNT
000404: 13,2752           55502                           TS       RRECT
000405: 13,2753           11500                           CCS      DIFEQCNT
000406: 13,2754           12746                           TCF      MOVEPLEM   +1
000407: 13,2755           06030                           TC       DANZIG
000408:
000409:
000410: 13,2756           77201        USEPIOS            SETPD    VLOAD
000411: 13,2757           00001                                    0
000412: 13,2760           02026                                    RLS
000413: 13,2761           41525                           PDDL     PUSH
000414: 13,2762           00041                                    TDEC1
000415: 13,2763           15517                           STODL    TET
000416: 13,2764           27753                                    5/8


000418: 13,2765           77624                           CALL
000419: 13,2766           55341                                    RP-TO-R
000420: 13,2767           25535                           STOVL    RCV
000421: 13,2770           11445                                    ZUNIT
000422: 13,2771           14001                           STODL    0D
000423: 13,2772           01517                                    TET
000424: 13,2773           14007                           STODL    6D
000425: 13,2774           27753                                    5/8
000426: 13,2775           45014                           SET      CALL                                  #  NEEDED FOR SETTING X1 ON EXIT
000427: 13,2776           00063                                    MOONFLAG
000428: 13,2777           55341                                    RP-TO-R
000429: 13,3000           74235                           VXV      VXSC
000430: 13,3001           01535                                    RCV
000431: 13,3002           27014                                    OMEGMOON
000432: 13,3003           25543                           STOVL    VCV
000433: 13,3004           11453                                    ZEROVEC
000434: 13,3005           01521                           STORE    TDELTAV
000435: 13,3006           67174                           AXT,2    SXA,2
000436: 13,3007           00002                                    2
000437: 13,3010           02150                                    PBODY
000438: 13,3011           35527                           STCALL   TNUV
000439: 13,3012           27136                                    A-PCHK
000440: 13,3013           07112 06620  OMEGMOON           2DEC*    2.66169947 E-8        B+23*
000441: 13,3015           33021        SETBANK            CAF      INTBANK
000442: 13,3016           54006                           TS       BBANK
000443: 13,3017           33436                           CAF      FORTYONE
000444: 13,3020           00002                           TC       Q
000445: 13,3021  E3,1554                                  EBANK=   RRECTCSM
000446: 13,3021           26063        INTBANK            BBCON    INTEGRV
000447:
000448:
000449:                                                                                                  #  SPECIAL PURPOSE ENTRIES TO ORBITAL INTEGRATION. THESE ROUTINES PROVIDE ENTRANCES TO INTEGRATION WITH
000450:                                                                                                  #  APPROPRIATE SWITCHES SET OR CLEARED FOR THE DESIRED INTEGRATION.
000451:
000452:                                                                                                  #  CSMPREC AND LEMPREC PERFORM ORBIT INTEGRATION BY THE ENCKE METHOD TO THE TIME INDICATED IN TDEC1
000453:                                                                                                  #  ACCELERATIONS DUE TO OBLATENESS ARE INCLUDED. NO W-MATRIX INT. IS DONE.
000454:                                                                                                  #  THE PERMANENT STATE VECTOR IS NOT UPDATED.
000455:                                                                                                  #  CSMCONIC AND LEMCONIC PERFORM ORBIT INTEG. BY KEPLERS METHOD TO THE TIME INDICATED IN TDEC1
000456:                                                                                                  #  NO DISTURBING ACCELERATIONS ARE INCLUDED. IN THE PROGRAM FLOW THE GIVEN
000457:                                                                                                  #  STATE VECTOR IS RECTIFIED BEFORE SOLUTION OF KEPLERS EQUATION.
000458:
000459:                                                                                                  #  THE ROUTINES ASSUME THAT THE CSM (LEM) STATE VECTOR IN P-MEM IS VALID.
000460:                                                                                                  #  SWITCHES SET PRIOR TO ENTRY TO THE MAIN INTEG. PROG ARE AS FOLLOWS
000461:                                                                                                  #              CSMPREC  CSMCONIC   LEMPREC  LEMCONIC
000462:                                                                                                  #  VINTFLAG     SET       SET       CLEAR    CLEAR
000463:                                                                                                  #  INTYPFLG     CLEAR     SET       CLEAR    SET
000464:                                                                                                  #  DIM0FLAG     CLEAR     CLEAR     CLEAR    CLEAR
000465:


000467:                                                                                                  #  CALLING SEQUENCE
000468:                                                                                                  #     L-X  STORE TDEC1
000469:                                                                                                  #     L    CALL       (STCALL TDEC1)
000470:                                                                                                  #     L+1         CSMPREC (CSMCONIC, LEMPREC, LEMCONIC)
000471:
000472:                                                                                                  #   NORMAL EXIT TO L+2
000473:
000474:
000475:                                                                                                  #  SUBROUTINES CALLED
000476:                                                                                                  #    INTEGRV1
000477:                                                                                                  #    PRECOUT FOR CSMPREC AND LEMPREC
000478:                                                                                                  #    CONICOUT  FOR CSMCONIC AND LEMCONIC
000479:
000480:
000481:                                                                                                  #  OUTPUT - SEE PAGE 2 OF THIS LOG SECTION
000482:                                                                                                  #  INPUT
000483:                                                                                                  #   TDEC1   TIME TO INTEGRATE TO . CSECS B-28
000484: 13,3022           45020        CSMPREC            STQ      CALL
000485: 13,3023           00046                                    X1
000486: 13,3024           27371                                    INTSTALL
000487: 13,3025           43130                           SXA,1    SET
000488: 13,3026           02214                                    IRETURN
000489: 13,3027           01474                                    VINTFLAG
000490:
000491: 13,3030           43014        IFLAGP             SET      CLEAR
000492: 13,3031           01467                                    PRECIFLG
000493: 13,3032           01676                                    DIM0FLAG
000494: 13,3033           77614                           CLRGO
000495: 13,3034           01633                                    INTYPFLG
000496: 13,3035           27115                                    INTEGRV1
000497: 13,3036           45020        LEMPREC            STQ      CALL
000498: 13,3037           00046                                    X1
000499: 13,3040           27371                                    INTSTALL
000500: 13,3041           43130                           SXA,1    CLRGO
000501: 13,3042           02214                                    IRETURN
000502: 13,3043           01634                                    VINTFLAG
000503: 13,3044           27030                                    IFLAGP
000504:
000505: 13,3045           45020        CSMCONIC           STQ      CALL
000506: 13,3046           00046                                    X1
000507: 13,3047           27371                                    INTSTALL
000508: 13,3050           43130                           SXA,1    SET
000509: 13,3051           02214                                    IRETURN
000510: 13,3052           01474                                    VINTFLAG
000511: 13,3053           43014        IFLAGC             CLEAR    SETGO
000512: 13,3054           01676                                    DIM0FLAG
000513: 13,3055           01433                                    INTYPFLG
000514: 13,3056           27115                                    INTEGRV1
000515: 13,3057           45020        LEMCONIC           STQ      CALL
000516: 13,3060           00046                                    X1


000518: 13,3061           27371                                    INTSTALL
000519: 13,3062           43130                           SXA,1    CLRGO
000520: 13,3063           02214                                    IRETURN
000521: 13,3064           01634                                    VINTFLAG
000522: 13,3065           27053                                    IFLAGC
000523:
000524: 13,3066           66214        INTEGRVS           SET      SSP
000525: 13,3067           01467                                    PRECIFLG
000526: 13,3070           02151                                    PBODY
000527: 13,3071           00000                                    0
000528: 13,3072           66214                           BOF      SSP
000529: 13,3073           00343                                    MOONFLAG
000530: 13,3074           27077                                    +3
000531: 13,3075           02151                                    PBODY
000532: 13,3076           00002                                    2
000533: 13,3077           77220                           STQ      VLOAD
000534: 13,3100           02214                                    IRETURN
000535: 13,3101           11453                                    ZEROVEC
000536: 13,3102           01521                           STORE    TDELTAV
000537: 13,3103           35527                           STCALL   TNUV
000538: 13,3104           23344                                    RECTIFY
000539: 13,3105           43014                           CLEAR    SET
000540: 13,3106           01676                                    DIM0FLAG
000541: 13,3107           04062                                    NEWIFLG
000542: 13,3110           77614                           SETGO
000543: 13,3111           04020                                    RPQFLAG
000544: 13,3112           27127                                    ALOADED
000545:                                                                                                  #  INTEGRV IS AN ENTRY TO ORBIT INTEGRATION WHICH PERMITS THE CALLER ,
000546:                                                                                                  #  NORMALLY THE NAVIGATION PROGRAM ,TO SET THE INTEG. FLAGS. THE ROUTINE
000547:                                                                                                  #  IS ENTERED AT INTEGRV1 BY CSMPREC ET. AL. AND AT ALOADED BY INTEGRVS.
000548:                                                                                                  #  THE ROUTINE SETS UP A-MEMORY IF ENTERED AT INTEGRV,1 AND SETS THE INTEG.
000549:                                                                                                  #  PROGRAM FOR PRECISION OR CONIC
000550:
000551:                                                                                                  #  THE CALLER MUST FIRST CALL INTSTALL TO CHECK IF INTEG. IS IN USE BEFORE
000552:                                                                                                  #  SETTING ANY FLAGS.
000553:                                                                                                  #  THE FLAGS WHICH SHOULD BE SET OR CLEARED ARE
000554:                                                                                                  #    VINTFLAG    (IGNORED WHEN ENTERED FROM INTEGRVS)
000555:                                                                                                  #    INTYPFLG
000556:                                                                                                  #    DIM0FLAG
000557:                                                                                                  #    D6OR9FLG
000558:                                                                                                  #  CALLING SEQUENCE
000559:                                                                                                  #    L-X    CALL
000560:                                                                                                  #    L-Y          INTSTALL
000561:                                                                                                  #    L-1    SET OR CLEAR ALL FOUR FLAGS. ALSO CAN SET STATEFLG IF DESIRED
000562:                                                                                                  #           AND DIM0FLAG IS CLEAR.
000563:                                                                                                  #    L      CALL
000564:                                                                                                  #    L+1          INTEGRV
000565:                                                                                                  #  INITIALIZATION
000566:                                                                                                  #    FLAGS AS ABOVE
000567:                                                                                                  #    STORE TIME TO INTEGRATE TO IN TDEC1


000569:                                                                                                  #  OUTPUT
000570:                                                                                                  #    RATT   AS
000571:                                                                                                  #    VATT      DEFINED
000572:                                                                                                  #    TAT               BEFORE
000573:
000574:
000575: 13,3113           77620        INTEGRV            STQ
000576: 13,3114           02214                                    IRETURN
000577: 13,3115           43014        INTEGRV1           SET      SET
000578: 13,3116           04060                                    RPQFLAG
000579: 13,3117           04062                                    NEWIFLG
000580: 13,3120           77731        INTEGRV2           SSP
000581: 13,3121           00053                                    QPRET
000582: 13,3122           27127                                    ALOADED
000583: 13,3123           52014                           BON      GOTO
000584: 13,3124           01714                                    VINTFLAG
000585: 13,3125           26662                                    PTOACSM
000586: 13,3126           26735                                    PTOALEM
000587: 13,3127           77745        ALOADED            DLOAD
000588: 13,3130           00041                                    TDEC1
000589: 13,3131           01101                           STORE    TDEC
000590: 13,3132           52014                           BOFF     GOTO
000591: 13,3133           01753                                    INTYPFLG
000592: 13,3134           27234                                    TESTLOOP
000593: 13,3135           27220                                    RVCON
000594: 13,3136           77414        A-PCHK             BOFCLR   EXIT
000595: 13,3137           01652                                    STATEFLG
000596: 13,3140           27157                                    RECTOUT
000597: 13,3141           05301                           TC       PHASCHNG
000598: 13,3142           04022                           OCT      04022
000599: 13,3143           05435                           TC       UPFLAG                                #  PHASE CHANGE HAS OCCURRED BETWEEN
000600: 13,3144           00236                           ADRES    REINTFLG                              #  INTSTALL AND INTWAKE
000601: 13,3145           06006                           TC       INTPRET
000602: 13,3146           77731                           SSP
000603: 13,3147           00053                                    QPRET
000604: 13,3150           27155                                    PHEXIT
000605: 13,3151           52014                           BON      GOTO
000606: 13,3152           01714                                    VINTFLAG
000607: 13,3153           26636                                    ATOPCSM
000608: 13,3154           26711                                    ATOPLEM
000609: 13,3155           77624        PHEXIT             CALL
000610: 13,3156           56712                                    GRP2PC
000611: 13,3157           45001        RECTOUT            SETPD    CALL
000612: 13,3160           00001                                    0
000613: 13,3161           23344                                    RECTIFY
000614: 13,3162           53775                           VLOAD    VSL*
000615: 13,3163           01503                                    RRECT
000616: 13,3164           57576                                    0,2
000617: 13,3165           53715                           PDVL     VSL*                                  #  RATT TO PD0
000618: 13,3166           01511                                    VRECT


000620: 13,3167           57576                                    0,2
000621: 13,3170           63325                           PDDL     PDVL                                  #  VATT TO PD6    TAT TO PD12
000622: 13,3171           01517                                    TET
000623: 13,3172           01503                                    RRECT
000624: 13,3173           64715                           PDVL     PDDL*
000625: 13,3174           01511                                    VRECT
000626: 13,3175           50044                                    MUEARTH,2
000627: 13,3176           76006                           PUSH     AXT,1
000628: 13,3177           77765                           DEC      -10        B-14
000629: 13,3200           76014                           BON      AXT,1
000630: 13,3201           00303                                    MOONFLAG
000631: 13,3202           27204                                    +2
000632: 13,3203           77775                           DEC      -2         B-14
000633: 13,3204           40001        INTEXIT            SETPD    BOV
000634: 13,3205           00001                                    0
000635: 13,3206           27207                                    +1
000636: 13,3207           43014                           CLEAR    CLEAR
000637: 13,3210           04676                                    AVEMIDSW                              #  ALLOW UPDATE OF DOWNLINK STATE VECTOR
000638: 13,3211           01667                                    PRECIFLG
000639: 13,3212           77535                           SLOAD    EXIT
000640: 13,3213           02215                                    IRETURN
000641: 13,3214           30154                           CA       MPAC
000642: 13,3215           50120                           INDEX    FIXLOC
000643: 13,3216           54052                           TS       QPRET
000644: 13,3217           03406                           TC       INTWAKE
000645:                                                                                                  #  RVCON SETS UP ORBIT INTEGRATION TO DO A CONIC SOLUTION FOR POSITION AND
000646:                                                                                                  #  VELOCITY FOR THE INTERVAL (TET-TDEC)
000647:
000648: 13,3220           45345        RVCON              DLOAD    DSU
000649: 13,3221           01101                                    TDEC
000650: 13,3222           01517                                    TET
000651: 13,3223           36312                           STCALL   TAU.
000652: 13,3224           23344                                    RECTIFY
000653: 13,3225           77624                           CALL
000654: 13,3226           22310                                    KEPPREP
000655: 13,3227           43345                           DLOAD    DAD
000656: 13,3230           01551                                    TC
000657: 13,3231           01517                                    TET
000658: 13,3232           35517                           STCALL   TET
000659: 13,3233           27157                                    RECTOUT
000660:


000662:                                                                                                  #           TESTLOOP
000663:
000664: 13,3234           43014        TESTLOOP           BOF      CLRGO
000665: 13,3235           04752                                    QUITFLAG
000666: 13,3236           27241                                    +3
000667: 13,3237           01632                                    STATEFLG
000668: 13,3240           27204                                    INTEXIT                               #  STOP INTEGRATION
000669: 13,3241           73001                 +3        SETPD    LXA,2
000670: 13,3242           00013                                    10D
000671: 13,3243           02150                                    PBODY
000672: 13,3244           51575                           VLOAD    ABVAL
000673: 13,3245           01535                                    RCV
000674: 13,3246           43006                           PUSH     CLEAR                                 #  RC TO 10D
000675: 13,3247           00262                                    MIDFLAG
000676: 13,3250           50023                           DSU*     BMN                                   #  MIDFLAG=0 IF R G.T. RMP
000677: 13,3251           67241                                    RME,2
000678: 13,3252           27255                                    +3
000679: 13,3253           77614                           SET
000680: 13,3254           00062                                    MIDFLAG
000681: 13,3255           41345        NORFINAL           DLOAD    DMP
000682: 13,3256           00013                                    10D
000683: 13,3257           00043                                    34D
000684: 13,3260           55762                           SR1R     DDV*
000685: 13,3261           50044                                    MUEARTH,2
000686: 13,3262           41366                           SQRT     DMP
000687: 13,3263           23675                                    .3D
000688: 13,3264           40442                           SR3      SR4                                   #  DT   IS TRUNCATED TO A MULTIPLE
000689: 13,3265           54345                           DLOAD    SL
000690: 13,3266           00155                                    MPAC
000691: 13,3267           20220                                    15D                                   #        OF 128 CSECS.
000692: 13,3270           40006                           PUSH     BOV
000693: 13,3271           27316                                    MAXDT
000694: 13,3272           50021                           BDSU     BMN
000695: 13,3273           27370                                    DT/2MAX
000696: 13,3274           27316                                    MAXDT
000697: 13,3275           45345        DT/2COMP           DLOAD    DSU
000698: 13,3276           01101                                    TDEC
000699: 13,3277           01517                                    TET
000700: 13,3300           54234                           RTB      SL
000701: 13,3301           45541                                    SGNAGREE
000702: 13,3302           20211                                    8D
000703: 13,3303           02314                           STORE    DT/2                                  #  B-19
000704: 13,3304           51400                           BOV      ABS
000705: 13,3305           27322                                    GETMAXDT
000706: 13,3306           50025                           DSU      BMN                                   #  IS TIME TO INTEG. TO GR THAN MAXTIME
000707: 13,3307           00015                                    12D
000708: 13,3310           27326                                    P00HCHK
000709: 13,3311           75345        USEMAXDT           DLOAD    SIGN
000710: 13,3312           00015                                    12D
000711: 13,3313           02314                                    DT/2


000713: 13,3314           36314                           STCALL   DT/2
000714: 13,3315           27326                                    P00HCHK
000715: 13,3316           65345        MAXDT              DLOAD    PDDL                                  #  EXCHANGE DT/2MAX WITH COMPUTED MAX.
000716: 13,3317           27370                                    DT/2MAX
000717: 13,3320           77650                           GOTO
000718: 13,3321           27275                                    DT/2COMP
000719: 13,3322           77634        GETMAXDT           RTB
000720: 13,3323           45707                                    SIGNMPAC
000721: 13,3324           36314                           STCALL   DT/2
000722: 13,3325           27311                                    USEMAXDT
000723: 13,3326           51545        P00HCHK            DLOAD    ABS
000724: 13,3327           02314                                    DT/2
000725: 13,3330           50025                           DSU      BMN
000726: 13,3331           27366                                    DT/2MIN
000727: 13,3332           27136                                    A-PCHK
000728: 13,3333           46135                           SLOAD    BHIZ
000729: 13,3334           01012                                    MODREG
000730: 13,3335           27340                                    +3
000731: 13,3336           77650                           GOTO
000732: 13,3337           23155                                    TIMESTEP
000733: 13,3340           77614                           BON                                            #  WAS THIS CALL VIA CSM(LEM)PREC
000734: 13,3341           01707                                    PRECIFLG
000735: 13,3342           23155                                    TIMESTEP                              #  YES
000736: 13,3343           45345                           DLOAD    DSU
000737: 13,3344           02314                                    DT/2
000738: 13,3345           00015                                    12D
000739: 13,3346           43040                           BMN      BOFCLR
000740: 13,3347           27136                                    A-PCHK
000741: 13,3350           04242                                    NEWIFLG
000742: 13,3351           23155                                    TIMESTEP
000743: 13,3352           45345                           DLOAD    DSU
000744: 13,3353           01101                                    TDEC
000745: 13,3354           01517                                    TET
000746: 13,3355           77640                           BMN                                            #  NO BACKWARD INTEGRATION
000747: 13,3356           27204                                    INTEXIT
000748: 13,3357           40525                           PDDL     SR4
000749: 13,3360           02314                                    DT/2                                  #  IS 4(DT) LS(TDEC - TET)
000750: 13,3361           44322                           SR2R     BDSU                                  #  NO
000751: 13,3362           52040                           BMN      GOTO
000752: 13,3363           27204                                    INTEXIT
000753: 13,3364           23155                                    TIMESTEP
000754: 13,3365           00000 01400  DT/2MIN            2DEC     3          B-20
000755: 13,3367           14152 00000  DT/2MAX            2DEC     4000       E2         B-20
000756: 13,3371           77776        INTSTALL           EXIT
000757: 13,3372           34714                           CAF      ZERO
000758: 13,3373           54001        ALLSTALL           TS       L
000759: 13,3374           30106                           CA       RASFLAG
000760: 13,3375           50001                           INDEX    L


000762: 13,3376           73467                           MASK     INTBITAB                              #  IS THIS STALL AREA FREE
000763: 13,3377           00006                           EXTEND
000764: 13,3400           13445                           BZF      OKTOGRAB                              #  YES
000765: 13,3401           50001                           INDEX    L
000766: 13,3402           33464                           CAF      WAKESTAL
000767: 13,3403           05070                           TC       JOBSLEEP
000768: 13,3404           77776        INTWAKE0           EXIT
000769: 13,3405           13426                           TCF      INTWAKE1
000770:
000771: 13,3406           40106        INTWAKE            CS       RASFLAG                               #  IS THIS INTSTALLED ROUTINE TO BE
000772: 13,3407           74704                           MASK     REINTBIT                              #       RESTARTED
000773: 13,3410           10000                           CCS      A
000774: 13,3411           03426                           TC       INTWAKE1                              #  NO
000775:
000776: 13,3412           50120                           INDEX    FIXLOC
000777: 13,3413           30052                           CA       QPRET
000778: 13,3414           55055                           TS       TBASE2                                #  YES, DONT RESTART WITH SOMEONE ELSES Q
000779:
000780: 13,3415           05301                           TC       PHASCHNG
000781: 13,3416           04022                           OCT      04022
000782:
000783: 13,3417           31055                           CA       TBASE2
000784: 13,3420           50120                           INDEX    FIXLOC
000785: 13,3421           54052                           TS       QPRET
000786:
000787: 13,3422           34704                           CAF      REINTBIT
000788: 13,3423           70106                           MASK     RASFLAG
000789: 13,3424           00006                           EXTEND
000790: 13,3425           13450                           BZF      GOBAC                                 #  DONT INTWAKE IF WE CAME HERE VIA RESTART
000791:
000792: 13,3426           34714        INTWAKE1           CAF      ZERO
000793: 13,3427           54154        WAKE               TS       STALTEM                               #  INDEX OF ANY STALL USER
000794: 13,3430           50154        WAKE1              INDEX    STALTEM
000795: 13,3431           33464                           CAF      WAKESTAL
000796: 13,3432           00004                           INHINT
000797: 13,3433           05074                           TC       JOBWAKE
000798: 13,3434           10064                           CCS      LOCCTR
000799: 13,3435           13430                           TCF      WAKE1                                 #  MAY BE MORE TO WAKE UP
000800: 13,3436           00051        FORTYONE           DEC      41         B-14
000801: 13,3437           50154                           INDEX    STALTEM
000802: 13,3440           43467                           CS       INTBITAB
000803: 13,3441           70106                           MASK     RASFLAG
000804: 13,3442           54106                           TS       RASFLAG                               #  RELEASE STALL AREA
000805: 13,3443           00003                           RELINT
000806: 13,3444           13450                           TCF      GOBAC
000807: 13,3445           50001        OKTOGRAB           INDEX    L                                     #  NO, WAIT UNTIL AVAILABLE
000808: 13,3446           34675                           CAF      INTFLBIT
000809: 13,3447           26106                           ADS      RASFLAG
000810: 13,3450           06006        GOBAC              TC       INTPRET
000811: 13,3451           77616                           RVQ


000813: 13,3452           77776        ERASTAL1           EXIT
000814: 13,3453           34712                           CAF      ONE
000815: 13,3454           13373                           TCF      ALLSTALL
000816: 13,3455           77776        ERASTAL2           EXIT
000817: 13,3456           34711                           CAF      TWO
000818: 13,3457           13373                           TCF      ALLSTALL
000819: 13,3460           34712        ERASWAK1           CAF      ONE
000820: 13,3461           13427                           TCF      WAKE
000821: 13,3462           34711        ERASWAK2           CAF      TWO
000822: 13,3463           13427                           TCF      WAKE
000823: 13,3464           27372        WAKESTAL           CADR     INTSTALL   +1
000824: 13,3465           27453                           CADR     ERASTAL1   +1
000825: 13,3466           27456                           CADR     ERASTAL2   +1
000826: 13,3467     0154               STALTEM            EQUALS   MPAC
000827: 13,3467           20100        INTBITAB           OCT      20100
000828: 13,3470           10040                           OCT      10040
000829: 13,3471           04020                           OCT      04020
000830:


000832:                                                                                                  #  AVETOMID
000833:
000834:                                                                                                  #  THIS ROUTINE PERFORMS THE TRANSITION FROM A THRUSTING PHASE TO THE COAST
000835:                                                                                                  #  PHASE BY INITIALIZING THIS VEHICLES PERMANENT STATE VECTOR WITH THE
000836:                                                                                                  #  VALUES LEFT BY THE AVERAGEG ROUTINE IN RN,VN,PIPTIME.
000837:
000838:                                                                                                  #  BEFORE THIS IS DONE THE W-MATRIX, IF ITS  VALID (ORWFLAG OR RENDWFLG IS
000839:                                                                                                  #  SET) IS INTEGRATED FORWARD TO PIPTIME WITH THE PRE-THRUST STATE VECTOR.
000840:
000841:                                                                                                  #  IN ADDITION, THE OTHER VEHICLE IS INTEGRATED (PERMANENT) TO PIPTIME.
000842:
000843:                                                                                                  #  FINALLY TRKMKCNT IS ZEROED
000844:
000845:
000846: 13,2000                                           SETLOC   INTINIT
000847: 13,2000                                           BANK
000848:
000849: 13,3472                                           COUNT*   $$/INTIN
000850: 13,3472           43020        AVETOMID           STQ      BON
000851: 13,3473           02317                                    EGRESS
000852: 13,3474           02716                                    RENDWFLG
000853: 13,3475           27545                                    INT/W                                 #  W-MATRIX VALID ,GO INTEGRATE IT
000854: 13,3476           77614                           BON
000855: 13,3477           01711                                    ORBWFLAG
000856: 13,3500           27545                                    INT/W                                 #  W-MATRIX VALID ,GO INTEGRATE IT
000857:
000858: 13,3501           45145        OTHERS             DLOAD    CALL                                  #  GET SET FOR OTHER VEHICLE INTEGRATION
000859: 13,3502           01205                                    PIPTIME                               #  DESIRED TIME
000860: 13,3503           27371                                    INTSTALL
000861: 13,3504           45014                           SET      CALL
000862: 13,3505           01474                                    VINTFLAG                              #  CM
000863: 13,3506           26621                                    SETIFLGS                              #  SETS UP NONE W-MAT. PERMANENT INTEG.
000864: 13,3507           43014                           BOF      CLEAR
000865: 13,3510           02747                                    COMPUTER
000866: 13,3511           27513                                    +2                                    #  COMPUTER IS LM ,INTEG CM
000867: 13,3512           01674                                    VINTFLAG                              #  COMPUTER IS CM ,INTEG LM
000868: 13,3513           34041                           STCALL   TDEC1
000869: 13,3514           27113                                    INTEGRV
000870:
000871: 13,3515           45174                           AXT,2    CALL                                  #  NOW MOVE PROPERLY SCALE RN,UN AS WELL AS
000872: 13,3516           00002                                    2                                     #  PIPTIME TO INTEGRATION ERASABLES.
000873: 13,3517           27371                                    INTSTALL
000874: 13,3520           77014                           BON      AXT,2
000875: 13,3521           04303                                    MOONTHIS
000876: 13,3522           27524                                    +2
000877: 13,3523           00000                                    0
000878: 13,3524           53775                           VLOAD    VSR*
000879: 13,3525           01171                                    RN
000880: 13,3526           57176                                    0,2
000881: 13,3527           01503                           STORE    RRECT


000883: 13,3530           15535                           STODL    RCV
000884: 13,3531           01205                                    PIPTIME
000885: 13,3532           25517                           STOVL    TET
000886: 13,3533           01177                                    VN
000887: 13,3534           45057                           VSR*     CALL
000888: 13,3535           57176                                    0,2
000889: 13,3536           23360                                    MINIRECT                              #  FINISH SETTING UP STATE VECTOR
000890: 13,3537           66234                           RTB      SSP
000891: 13,3540           26651                                    MOVATHIS                              #  PUT TEMP STATE VECTOR INTO PERMANENT
000892: 13,3541           01127                                    TRKMKCNT
000893: 13,3542           00000                                    0
000894: 13,3543           77650                           GOTO
000895: 13,3544           75743                                    FAZAB5
000896:
000897: 13,3545           45145        INT/W              DLOAD    CALL
000898: 13,3546           01205                                    PIPTIME                               #  INTEGRATE W THRU BURN
000899: 13,3547           27371                                    INTSTALL
000900: 13,3550           43014                           SET      SET
000901: 13,3551           01476                                    DIM0FLAG                              #  DO W-MATRIX
000902: 13,3552           04476                                    AVEMIDSW                              #  SO WONT CLOBBER RN,VN,PIPTIME
000903: 13,3553           43014                           SET      CLEAR
000904: 13,3554           01475                                    D6OR9FLG                              #  9X9 FOR LM
000905: 13,3555           01674                                    VINTFLAG                              #  LM
000906: 13,3556           43014                           BOF      SET
000907: 13,3557           02747                                    COMPUTER
000908: 13,3560           27564                                    +4                                    #  LM TO DO
000909: 13,3561           01474                                    VINTFLAG
000910: 13,3562           77614                           CLEAR
000911: 13,3563           01675                                    D6OR9FLG                              #  6X6 FOR CM
000912: 13,3564           34041                           STCALL   TDEC1
000913: 13,3565           27113                                    INTEGRV
000914: 13,3566           77650                           GOTO
000915: 13,3567           27501                                    OTHERS                                #  NOW GO DO THE OTHER VEHICLE
000916:


000918:                                                                                                  #  MIDTOAV1
000919:
000920:                                                                                                  #  THIS ROUTINE INTEGRATES (PRECISION) TO THE TIME SPECIFIED IN TDEC1.
000921:                                                                                                  #  IF, AT THE END OF AN INTEGRATION TIME STEP, CURRENT TIME PLUS A DELTA
000922:                                                                                                  #  TIME (SEE TIMEDELT.....BASED ON THE COMPUTATION TIME FOR ONE TIME STEP)
000923:                                                                                                  #  IS GREATER THAN THE DESIRED TIME, ALARM 1703 IS SET AND THE INTEGRATION
000924:                                                                                                  #  IS DONE TO THE CURRENT TIME.
000925:                                                                                                  #  RETURN IS IN BASIC TO THE RETURN ADDRESS PLUS ONE.
000926:
000927:                                                                                                  #  IF THE INTEGRATION IS FINISHED TO THE DESIRED TIME, RETURN IS IN BASIC
000928:                                                                                                  #  TO THE RETURN ADDRESS.
000929:
000930:                                                                                                  #  IN EITHER CASE , BEFORE RETURNING, THE EXTRAPOLATED STATE VECTOR IS TRAN
000931:                                                                                                  #  FERRED FROM R,VATT TO R,VN1-PIPTIME1 IS SET TO THE FINISHING INTEGRA-
000932:                                                                                                  #  TION TIME AND MPAC IS SET TO THE DELTA TIME---
000933:                                                                                                  #                                    TAT MINUS CURRENT TIME.
000934:
000935:
000936:                                                                                                  #  MIDTOAV2
000937:
000938:                                                                                                  #  THIS ROUTINE INTEGRATES THIS VEHICLES STATE VECTOR TO THE CURRENT TIME.
000939:                                                                                                  #  NO INPUTS ARE REQUIRED OF THE CALLER. RETURN IS IN BASIC TO THE RETURN
000940:                                                                                                  #  ADDRESS WITH THE ABOVE TRANSFERS TO R,VN1-PIPTIME1-AND MPAC DONE
000941:
000942: 13,3570     1127                                  EBANK=   IRETURN1
000943: 13,3570           43020        MIDTOAV2           STQ      CLRGO                                 #  INTEGRATE TO PRESENT TIME PLUS TIMEDELT
000944: 13,3571           01127                                    IRETURN1
000945: 13,3572           04634                                    MID1FLAG
000946: 13,3573           27607                                    ENTMID2
000947:
000948: 13,3574           43020        MIDTOAV1           STQ      SET                                   #   INTEGRATE TO TDEC1
000949: 13,3575           01127                                    IRETURN1
000950: 13,3576           04474                                    MID1FLAG
000951: 13,3577           43234                           RTB      DAD                                   #  INITIAL CHECK, IS TDEC1 IN THE FUTURE
000952: 13,3600           45505                                    LOADTIME
000953: 13,3601           27711                                    TIMEDELT
000954: 13,3602           51021                           BDSU     BPL
000955: 13,3603           00041                                    TDEC1
000956: 13,3604           27613                                    ENTMID1                               #   Y5S
000957: 13,3605           77624                           CALL
000958: 13,3606           27677                                    NOTIME                                #  NO, SET ALARM, SWITCH TO MIDTOAV2
000959:
000960: 13,3607           43234        ENTMID2            RTB      DAD
000961: 13,3610           45505                                    LOADTIME
000962: 13,3611           27711                                    TIMEDELT
000963: 13,3612           00041                           STORE    TDEC1
000964:
000965: 13,3613           77624        ENTMID1            CALL
000966: 13,3614           27371                                    INTSTALL
000967: 13,3615           45014                           CLEAR    CALL


000969: 13,3616           01676                                    DIM0FLAG                              #  NO W-MATRIX
000970: 13,3617           26034                                    THISVINT
000971: 13,3620           43014                           CLEAR    SET
000972: 13,3621           01673                                    INTYPFLG
000973: 13,3622           04475                                    MIDAVFLG                              #  LET INTEG. KNOW THE CALL IS FOR MIDTOAV.
000974: 13,3623           77624                           CALL
000975: 13,3624           27113                                    INTEGRV                               #   GO INTEGRATE
000976: 13,3625           77214                           CLEAR    VLOAD
000977: 13,3626           04675                                    MIDAVFLG
000978: 13,3627           00001                                    RATT
000979: 13,3630           25232                           STOVL    RN1
000980: 13,3631           00007                                    VATT
000981: 13,3632           15240                           STODL    VN1
000982: 13,3633           00015                                    TAT
000983: 13,3634           01246                           STORE    PIPTIME1
000984: 13,3635           66134                           SXA,2    SXA,1
000985: 13,3636           03746                                    RTX2
000986: 13,3637           03745                                    RTX1
000987: 13,3640           77776                           EXIT
000988:
000989: 13,3641           00004                           INHINT
000990: 13,3642           00006                           EXTEND
000991: 13,3643           40025                           DCS      TIME2
000992: 13,3644           20155                           DAS      MPAC
000993: 13,3645           07226                           TC       TPAGREE
000994:
000995: 13,3646           31127                           CA       IRETURN1
000996: 13,3647           04577                           TC       BANKJUMP
000997: 13,3650           47014        CKMID2             BOF      RTB
000998: 13,3651           04754                                    MID1FLAG
000999: 13,3652           27667                                    MID2
001000: 13,3653           45505                                    LOADTIME
001001: 13,3654           44215                           DAD      BDSU
001002: 13,3655           27711                                    TIMEDELT
001003: 13,3656           01101                                    TDEC
001004: 13,3657           45044                           BPL      CALL
001005: 13,3660           27234                                    TESTLOOP                              #   YES
001006: 13,3661           27677                                    NOTIME
001007:
001008: 13,3662           43234        TIMEINC            RTB      DAD
001009: 13,3663           45505                                    LOADTIME
001010: 13,3664           27711                                    TIMEDELT
001011: 13,3665           35101                           STCALL   TDEC
001012: 13,3666           27234                                    TESTLOOP
001013:
001014: 13,3667           45345        MID2               DLOAD    DSU
001015: 13,3670           01101                                    TDEC
001016: 13,3671           01517                                    TET
001017: 13,3672           45246                           ABS      DSU
001018: 13,3673           27707                                    3CSECS


001020: 13,3674           52040                           BMN      GOTO
001021: 13,3675           27136                                    A-PCHK
001022: 13,3676           27662                                    TIMEINC
001023:
001024: 13,3677           77414        NOTIME             CLEAR    EXIT                                  #  TOO LATE
001025: 13,3700           04674                                    MID1FLAG
001026: 13,3701           25127                           INCR     IRETURN1                              #  SET ERROR EXIT  (CALLOC +2)
001027: 13,3702           05537                           TC       ALARM                                 #  INSUFFICIENT TIME FOR INTEGRATION --
001028: 13,3703           01703                           OCT      1703                                  #     TIG WILL BE SLIPPED...
001029: 13,3704           06006                           TC       INTPRET
001030: 13,3705           77616                           RVQ
001031:
001032: 13,3706           00000 00003  3CSECS             2DEC     3          B-28
001033: 13,3710           00000 01750  TIMEDELT           2DEC     1000       B-28
001034: 27,2633                                           BANK     27
001035: 27,2000                                           SETLOC   UPDATE2
001036: 27,2000                                           BANK
001037: 27,2633     0330                                  EBANK=   INTWAKUQ
001038:
001039:
001040: 27,2633                                           COUNT*   $$/INTIN
001041:
001042: 27,2633     0330               INTWAKUQ           =        INTWAK1Q                              #  TEMPORARY UNTIL NAME OF INTWAK1Q IS CHNG
001043:
001044: 27,2633           00003        INTWAKEU           RELINT
001045: 27,2634           00006                           EXTEND
001046: 27,2635           22330                           QXCH     INTWAKUQ                              #  SAVE Q FOR RETURN
001047:
001048: 27,2636           06006                           TC       INTPRET
001049:
001050: 27,2637           53135                           SLOAD    BZE                                   #  IS THIS A CSM/LEM STATE VECTOR UPDATE
001051: 27,2640           01502                                    UPSVFLAG                              #  REQUEST. IF NOT GO TO INTWAKUP.
001052: 27,2641           56700                                    INTWAKUP
001053:
001054: 27,2642           77775                           VLOAD                                          #  MOVE RRECT(6) AND VRECT(6) INTO
001055: 27,2643           01503                                    RRECT                                 #       RCV(6)   AND VCV(6)   RESPECTIVELY.
001056: 27,2644           25535                           STOVL    RCV
001057: 27,2645           01511                                    VRECT                                 #  NOW GO TO 'RECTIFY +13D' TO
001058: 27,2646           77624                           CALL                                           #  STORE VRECT INTO VCV  AND ZERO OUT
001059: 27,2647           23361                                    RECTIFY    +13D                       #  TDELTAV(6),TNUV(6),TC(2) AND XKEP(2)
001060: 27,2650           51535                           SLOAD    ABS                                   #  COMPARE ABSOLUTE VALUE OF 'UPSVFLAG'
001061: 27,2651           01502                                    UPSVFLAG                              #  TO 'UPDATE MOON STATE VECTOR CODE'
001062: 27,2652           53025                           DSU      BZE                                   #  TO DETERMINE WHETHER THE STATE VECTOR TO
001063: 27,2653           16711                                    UPMNSVCD                              #  BE UPDATED IS IN THE EARTH OR LUNAR
001064: 27,2654           56661                                    INTWAKEM                              #  SPHERE OF INFLUENCE.........
001065: 27,2655           43174                           AXT,2    CLRGO                                 #  EARTH SPHERE OF INFLUENCE.
001066: 27,2656           00000                           DEC      0          B-14
001067: 27,2657           00223                                    MOONFLAG


001069: 27,2660           56664                                    INTWAKEC
001070: 27,2661           43174        INTWAKEM           AXT,2    SET                                   #  LUNAR SPHERE OF INFLUENCE.
001071: 27,2662           00002                           DEC      2          B-14
001072: 27,2663           00063                                    MOONFLAG
001073: 27,2664           50135        INTWAKEC           SLOAD    BMN                                   #  COMMON CODING AFTER X2 INITIALIZED AND
001074:                                                                                                  #  MOONFLAG SET(OR CLEARED).
001075: 27,2665           01502                                    UPSVFLAG                              #  IS THIS A REQUEST FOR A LEM OR CSM
001076: 27,2666           56674                                    INTWAKLM                              #   STATE VECTOR UPDATE......
001077: 27,2667           77624                           CALL                                           #  UPDATE CSM STATE VECTOR
001078: 27,2670           26636                                    ATOPCSM
001079:
001080: 27,2671           52014                           CLEAR    GOTO
001081: 27,2672           01671                                    ORBWFLAG
001082: 27,2673           56676                                    INTWAKEX
001083:
001084: 27,2674           77624        INTWAKLM           CALL                                           #  UPDATE  LM STATE VECTOR
001085: 27,2675           26711                                    ATOPLEM
001086:
001087: 27,2676           77614        INTWAKEX           CLEAR
001088: 27,2677           02676                                    RENDWFLG
001089:
001090: 27,2700           45131        INTWAKUP           SSP      CALL                                  #  REMOVE :UPDATE STATE VECTOR INDICATOR:
001091: 27,2701           01502                                    UPSVFLAG
001092: 27,2702           00000                                    0
001093: 27,2703           27404                                    INTWAKE0                              #  RELEASE :GRAB: OF ORBIT INTEG.
001094: 27,2704           77776                           EXIT
001095:
001096: 27,2705           05301                           TC       PHASCHNG
001097: 27,2706           04026                           OCT      04026
001098: 27,2707           00330                           TC       INTWAKUQ
001099:
001100: 27,2710           00002        UPMNSVCD           OCT      2
001101: 27,2711           00000                           OCT      0
001102:
001103:
001104: 27,2712           77420        GRP2PC             STQ      EXIT
001105: 27,2713           03536                                    GRP2SVQ
001106: 27,2714           05301                           TC       PHASCHNG
001107: 27,2715           04022                           OCT      04022
001108: 27,2716           06006                           TC       INTPRET
001109: 27,2717           77650                           GOTO
001110: 27,2720           03536                                    GRP2SVQ

End of include-file INTEGRATION_INITIALIZATION.agc.  Parent file is MAIN.agc


