
Source Code


000002:                                                                                                  ## Copyright:   Public domain.
000003:                                                                                                  ## Filename:    INTER-BANK_COMMUNICATION.agc
000004:                                                                                                  ## Purpose:     Part of the source code for Colossus build 237.
000005:                                                                                                  ##              This is for the Command Module's (CM) Apollo Guidance
000006:                                                                                                  ##              Computer (AGC), we believe for Apollo 8.
000007:                                                                                                  ## Assembler:   yaYUL
000008:                                                                                                  ## Contact:     Onno Hommes <ohommes@alumni.cmu.edu>
000009:                                                                                                  ## Website:     www.ibiblio.org/apollo/index.html
000010:                                                                                                  ## Page Scans:  www.ibiblio.org/apollo/ScansForConversion/Colossus237/
000011:                                                                                                  ## Mod history: 2010-05-22 OH   Adapted from corresponding Colossus 249 file.
000012:                                                                                                  ##              2010-12-04 JL   Remove Colossus 249 header comments. Change to double-has page numbers.
000013:                                                                                                  ##              2011-02-07 JL   Minor fixes.
000014:


000016:                                                                                                  #           THE FOLLOWING ROUTINE CAN BE USED TO CALL A SUBROUTINE IN ANOTHER BANK. IN THE BANKCALL VERSION, THE
000017:                                                                                                  #  CADR OF THE SUBROUTINE IMMEDIATELY FOLLOWS THE  TC BANKCALL  INSTRUCTION, WITH C(A) AND C(L) PRESERVED.
000018:
000019:    4555                                           BLOCK    02
000020:    4555                                           COUNT    02/BANK
000021:
000022:    4555           52134        BANKCALL           DXCH     BUF2                                  #  SAVE INCOMING A,L.
000023:    4556           50002                           INDEX    Q                                     #  PICK UP CADR.
000024:    4557           30000                           CA       0
000025:    4560           24002                           INCR     Q                                     #  SO WE RETURN TO THE LOC. AFTER THE CADR.
000026:
000027:                                                                                                  #           SWCALL IS IDENTICAL TO BANKCALL, EXCEPT THAT THE CADR ARRIVES IN A.
000028:
000029:    4561           54001        SWCALL             TS       L
000030:    4562           22004                           LXCH     FBANK                                 #  SWITCH BANKS, SAVING RETURN.
000031:    4563           74747                           MASK     LOW10                                 #  GET SUB-ADDRESS OF CADR.
000032:    4564           56002                           XCH      Q                                     #  A,L NOW CONTAINS DP RETURN.
000033:    4565           52134                           DXCH     BUF2                                  #  RESTORING INPUTS IF THIS IS A BANKCALL.
000034:    4566           50002                           INDEX    Q
000035:    4567           02000                           TC       10000                                 #  SETTING Q TO SWRETURN.
000036:
000037:    4570           56134        SWRETURN           XCH      BUF2       +1                         #  COMES HERE TO RETURN TO CALLER. C(A,L)
000038:    4571           56004                           XCH      FBANK                                 #  ARE PRESERVED FOR RETURN.
000039:    4572           56134                           XCH      BUF2       +1
000040:    4573           00133                           TC       BUF2
000041:
000042:
000043:                                                                                                  #           THE FOLLOWING ROUTINE CAN BE USED AS A UNILATERAL JUMP WITH C(A,L) PRESERVED AND THE CADR IMMEDIATELY
000044:                                                                                                  #  FOLLOWING THE TC POSTJUMP INSTRUCTION.
000045:
000046:    4574           56002        POSTJUMP           XCH      Q                                     #  SAVE INCOMING C(A).
000047:    4575           50000                           INDEX    A                                     #  GET CADR.
000048:    4576           30000                           CA       0
000049:
000050:                                                                                                  #           BANKJUMP IS THE SAME AS POSTJUMP, EXCEPT THAT THE CADR ARRIVES IN A.
000051:
000052:    4577           54004        BANKJUMP           TS       FBANK
000053:    4600           74747                           MASK     LOW10
000054:    4601           56002                           XCH      Q                                     #  RESTORING INPUT C(A) IF THIS WAS A
000055:    4602           50002        Q+10000            INDEX    Q                                     #  POSTJUMP.
000056:    4603           12000        PRIO12             TCF      10000                                 #  PRIO12 = TCF   10000 = 12000
000057:


000059:                                                                                                  #           THE FOLLOWING ROUTINE GETS THE RETURN CADR SAVED BY SWCALL OR BANKCALL AND LEAVES IT IN A.
000060:
000061:    4604           34747        MAKECADR           CAF      LOW10
000062:    4605           70133                           MASK     BUF2
000063:    4606           60134                           AD       BUF2       +1
000064:    4607           00002                           TC       Q
000065:
000066:
000067:    4610           54135        SUPDACAL           TS       MPTEMP
000068:    4611           56004                           XCH      FBANK                                 #  SET FBANK FOR DATA.
000069:    4612           00006                           EXTEND
000070:    4613           04007                           ROR      SUPERBNK                              #  SAVE FBANK IN BITS 15-11, AND
000071:    4614           56135                           XCH      MPTEMP                                #   SUPERBANK IN BITS 7-5.
000072:    4615           74747                           MASK     LOW10
000073:    4616           56001                           XCH      L                                     #  SAVE REL. ADR. IN BANK, FETCH SUPERBITS.
000074:    4617           00004                           INHINT                                         #  BECAUSE RUPT DOES NOT SAVE SUPERBANK.
000075:    4620           00006                           EXTEND
000076:    4621           01007                           WRITE    SUPERBNK                              #  SET SUPERBANK FOR DATA.
000077:    4622           50001                           INDEX    L
000078:    4623           32000                           CA       10000                                 #  PINBALL (FIX MEM DISP) PREVENTS DCA HERE
000079:    4624           56135                           XCH      MPTEMP                                #  SAVE 1ST WD, FETCH OLD FBANK AND SBANK.
000080:    4625           00006                           EXTEND
000081:    4626           01007                           WRITE    SUPERBNK                              #  RESTORE SUPERBANK.
000082:    4627           00003                           RELINT
000083:    4630           54004                           TS       FBANK                                 #  RESTORE FBANK.
000084:    4631           30135                           CA       MPTEMP                                #  RECOVER FIRST WORD OF DATA.
000085:    4632           00002                           RETURN                                         #  24 WDS. DATACALL 516 MU, SUPDACAL 432 MU
000086:


000088:                                                                                                  #           THE FOLLOWING ROUTINES ARE IDENTICAL TO BANKCALL AND SWCALL EXCEPT THAT THEY ARE USED IN INTERRUPT.
000089:
000090:    4633           52073        IBNKCALL           DXCH     RUPTREG3                              #  USES RUPTREG3,4 FOR DP RETURN ADDRESS.
000091:    4634           50002                           INDEX    Q
000092:    4635           30000                           CAF      0
000093:    4636           24002                           INCR     Q
000094:
000095:    4637           54001        ISWCALL            TS       L
000096:    4640           22004                           LXCH     FBANK
000097:    4641           74747                           MASK     LOW10
000098:    4642           56002                           XCH      Q
000099:    4643           52073                           DXCH     RUPTREG3
000100:    4644           50002                           INDEX    Q
000101:    4645           02000                           TC       10000
000102:
000103:    4646           56073        ISWRETRN           XCH      RUPTREG4
000104:    4647           56004                           XCH      FBANK
000105:    4650           56073                           XCH      RUPTREG4
000106:    4651           00072                           TC       RUPTREG3
000107:
000108:                                                                                                  #  2. USPRCADR ACCESSES INTERPRETIVE CODING IN OTHER THAN THE USER'S FBANK. THE CALLING SEQUENCE IS AS FOLLOWS:
000109:
000110:                                                                                                  #                                          L        TC     USPRCADR
000111:                                                                                                  #                                          L+1      CADR   INTPRETX        INTPRETX IS THE INTERPRETIVE CODING
000112:                                                                                                  #                                                                          RETURN IS TO L+2
000113:
000114:    4652           54164        USPRCADR           TS       LOC                                   #  SAVE A
000115:    4653           34703                           CA       BIT8
000116:    4654           54023                           TS       EDOP                                  #  EXIT INSTRUCTION TO EDOP
000117:    4655           30006                           CA       BBANK
000118:    4656           54165                           TS       BANKSET                               #  USER'S BBANK TO BANKSET
000119:    4657           50002                           INDEX    Q
000120:    4660           30000                           CA       0
000121:    4661           54004                           TS       FBANK                                 #  INTERPRETIVE BANK TO FBANK
000122:    4662           74747                           MASK     LOW10                                 #  YIELDS INTERPRETIVE RELATIVE ADDRESS
000123:    4663           56002                           XCH      Q                                     #  INTERPRETIVE ADDRESS TO Q, FETCHING L+1
000124:    4664           56164                           XCH      LOC                                   #  L+1 TO LOC, RETRIEVING ORIGINAL A
000125:    4665           14602                           TCF      Q+10000
000126:


000128:                                                                                                  #  THERE ARE FOUR POSSIBLE SETTINGS FOR CHANNEL 07. (CHANNEL 07 CONTAINS THE SUPERBANK SETTING.)
000129:                                                                                                  #                                            PSEUDO-FIXED     OCTAL PSEUDO
000130:                                                                                                  #  SUPERBANK     SETTING     S-REG. VALUE    BANK NUMBERS     ADDRESSES
000131:                                                                                                  #  ----------    -------     ------------     ------------     ------------
000132:
000133:                                                                                                  #  SUPERBANK 3     0XX       2000 - 3777        30 - 37       70000 - 107777   (WHERE XX CAN BE ANYTHING AND
000134:                                                                                                  #                                                                              WILL USUALLY BE SEEN AS 11)
000135:                                                                                                  #  SUPERBANK 4     100       2000 - 3777        40 - 47       110000 - 127777  (AS FAR AS IT CAN BE SEEN,
000136:                                                                                                  #                                                                              ONLY BANKS 40-43 WILL EVER BE
000137:                                                                                                  #                                                                              AND ARE PRESENTLY AVAILABLE)
000138:                                                                                                  #  SUPERBANK 5     101       2000 - 3777        50 - 57       130000 - 147777  (PRESENTLY NOT AVAILABLE TO
000139:                                                                                                  #                                                                              THE USER)
000140:                                                                                                  #  SUPERBANK 6     110       2000 - 3777        60 - 67       150000 - 167777  (PRESENTLY NOT AVAILABLE TO
000141:                                                                                                  #                                                                              THE USER)
000142:                                                                                                  #  ***  THIS ROUTINE MAYBE CALLED BY ANY PROGRAM LOCATED IN BANKS 00 - 27.  I.E., NO PROGRAM LIVING IN ANY
000143:                                                                                                  #  SUPERBANK SHOULD USE SUPERSW.  ***
000144:
000145:                                                                                                  #  SUPERSW MAYBE CALLED IN THIS FASHION:
000146:
000147:                                                                                                  #           CAF    ABBCON          WHERE  --  ABBCON   BBCON  SOMETHIN --
000148:                                                                                                  #           TCR    SUPERSW         (THE SUPERBNK BITS ARE IN THE BBCON)
000149:                                                                                                  #           ...      ...
000150:                                                                                                  #            .        .
000151:                                                                                                  #            .        .
000152:
000153:                                                                                                  #  OR IN THIS FASHION :
000154:
000155:                                                                                                  #           CAF    SUPERSET        WHERE SUPERSET IS ONE OF THE FOUR AVAILABLE
000156:                                                                                                  #           TCR    SUPERSW         SUPERBANK BIT CONSTANTS:
000157:                                                                                                  #           ...      ...                                   SUPER011 OCTAL  60
000158:                                                                                                  #            .        .                                    SUPER100 OCTAL 100
000159:                                                                                                  #            .        .                                    SUPER101 OCTAL 120
000160:                                                                                                  #                                                          SUPER110 OCTAL 140
000161:
000162:    4666           00006        SUPERSW            EXTEND
000163:    4667           01007                           WRITE    SUPERBNK                              #  WRITE BITS 7-6-5 OF THE ACCUMULATOR INTO
000164:                                                                                                  #  CHANNEL 07
000165:    4670           00002                           TC       Q                                     #  TC TO INSTRUCTION FOLLOWING
000166:                                                                                                  #    TC  SUPERSW

End of include-file INTER-BANK_COMMUNICATION.agc.  Parent file is MAIN.agc


