
Source Code


000002:                                                                                                  ## Copyright:   Public domain.
000003:                                                                                                  ## Filename:    INTEGRATION_INITIALIZATION.agc
000004:                                                                                                  ## Purpose:     Part of the source code for Colossus build 237.
000005:                                                                                                  ##              This is for the Command Module's (CM) Apollo Guidance
000006:                                                                                                  ##              Computer (AGC), for Apollo 8.
000007:                                                                                                  ## Assembler:   yaYUL
000008:                                                                                                  ## Contact:     Jim Lawton <jim DOT lawton AT gmail DOT com>
000009:                                                                                                  ## Website:     www.ibiblio.org/apollo/index.html
000010:                                                                                                  ## Page Scans:  www.ibiblio.org/apollo/ScansForConversion/Colossus237/
000011:                                                                                                  ## Mod history: 2011-04-17 JL   Adapted from corresponding Colossus 249 file.
000012:                                                                                                  ##              2017-01-01 RSB  Proofed comment text using octopus/ProoferComments,
000013:                                                                                                  ##                              and fixed errors found.
000014:                                                                                                  ##              2017-01-14 RSB  Fixed comment-text errors located by diff'ing
000015:                                                                                                  ##                              against Colossus 249.
000016:                                                                                                  ##              2017-08-19 MAS  Fixed comment errors found transcribing Zerlina 56.
000017:


000019:                                                                                                  #  1.0 INTRODUCTION
000020:                                                                                                  #  ----------------
000021:
000022:                                                                                                  #  FROM A USERS POINT OF VIEW, ORBITAL INTEGRATION IS ESSENTIALLY THE SAME AS THE 278 INTEGRATION
000023:                                                                                                  #  PROGRAM. THE SAME ENTRANCES TO THE PROGRAM WILL BE MAINTAINED, THE SAME STALLING ROUTINE WILL BE USED AND
000024:                                                                                                  #  OUTPUT WILL STILL BE VIA THE PUSHLIST. THE PRIMARY DIFFERENCES TO A USER INVOLVE THE ADDED CAPABILITY OF
000025:                                                                                                  #  TERMINATING INTEGRATION AT A SPECIFIC FINAL RADIUS AND THE DIFFERENCE IN STATE VECTOR SCALING INSIDE AND OUT-
000026:                                                                                                  #  SIDE THE LUNAR SPHERE OF INFLUENCE.
000027:
000028:                                                                                                  #  IN ORDER TO MAKE THE CSM(LEM)PREC AND CSM(LEM)CONIC ENTRANCES SIMILAR TO FLIGHT 278, THE INTEGRATION PROGRAM
000029:                                                                                                  #  WILL ITSELF SET THE FINAL RADIUS (RFINAL) TO 0 SO THAT REACHING THE DESIRED TIME ONLY WILL TERMINATE
000030:                                                                                                  #  INTEGRATION. THE DP REGISTER RFINAL MUST BE SET BY USERS OF INTEGRVS AND INTEGRV, AND MUST BE DONE AFTER THE
000031:                                                                                                  #  CALL TC INTSTALL.
000032:
000033:                                                                                                  #  WHEN THE LM IS ON THE LUNAR SURFACE (INDICATED BY LUNAR SURFACE FLAG SET) CALLS TO LEMCONIC, LEMPREC, AND
000034:                                                                                                  #  INTEGRV WITH VINFLAG = 0 WILL RESULT IN THE USE OF THE PLANETARY INERTIAL ORIENTATION SUBROUTINES TO PROVIDE
000035:                                                                                                  #  BOTH THE LMS POSITION AND VELOCITY IN THE REFERENCE COORDINATE  SYSTEM.
000036:                                                                                                  #  THE PROGRAM WILL PROVIDE OUTPUT AS IF INTEGRATION WAS USED. THAT IS, THE PUSHLIST WILL BE SET AS NOTED BELOW AND
000037:                                                                                                  #  THE PERMANENT STATE VECTOR UPDATED WHEN SPECIFIED BY AN INTEGRV CALL.
000038:
000039:                                                                                                  #  USERS OF INTEGRVS DESIRING INTEGRATION (INTYPFLG = 0) SHOULD NOTE THAT THE OBLATENESS PERTURBATION COMPUTATION
000040:                                                                                                  #  IN LUNAR ORBIT IS TIME DEPENDENT. THEREFORE, THE USER SHOULD SUPPLY AN INITIAL STATE VECTOR VALID AT SOME REAL
000041:                                                                                                  #  TIME AND THE DESIRED TIME (TDEC1) ALSO AT SOME REAL TIME. FOR CONIC ,,INTEGRATION,, THE USER MAY STILL USE ZERO
000042:                                                                                                  #  AS THE INITIAL TIME AND DELTA TIME AS THE DESIRED TIME.
000043:
000044:                                                                                                  #  2.0 GENERAL DESCRIPTION
000045:                                                                                                  #  -----------------------
000046:
000047:                                                                                                  #  THE INTEGRATION PROGRAM OPERATES AS A CLOSED INTERPRETIVE SUBROUTINE AND PERFORMS THESE FUNCTIONS---
000048:                                                                                                  #     1) INTEGRATES (PRECISION OR CONIC) EITHER CSM OR LM STATE VECTOR
000049:                                                                                                  #     2) INTEGRATES THE W-MATRIX
000050:                                                                                                  #     3) PERMANENT OR TEMPORARY UPDATE OF THE STATE VECTOR
000051:
000052:                                                                                                  #  THERE ARE SIX ENTRANCES TO THE INTEGRATION PROGRAM. FOUR OF THESE (CSMPREC, LEMPREC, CSMCONIC, LEMCONIC) SET
000053:                                                                                                  #  ALL THE FLAGS REQUIRED IN THE INTEGRATION PROGRAM ITSELF TO CAUSE THE PRECISION OR CONIC INTEGRATION (KEPLER) OF
000054:                                                                                                  #  THE LM OR CSM STATE VECTOR, AS THE NAMES SUGGEST. ONE ENTRANCE (INTEGRVS) PERMITS THE CALLING PROGRAM TO
000055:                                                                                                  #  PROVIDE A STATE VECTOR TO BE INTEGRATED. THE CALLING PROGRAM MUST SET THE FLAGS INDICATING (1) PRECISION OR
000056:                                                                                                  #  CONIC INTEGRATION, (2) IN OR OUT OF LUNAR SPHERE, (3) MIDCOURSE OR NOT, AND THE INTEGRATION PROGRAM COMPLETES
000057:                                                                                                  #  THE FLAG SETTING TO BYPASS W-MATRIX INTEGRATION. THE LAST ENTRANCE (INTEGRV, USED IN GENERAL BY THE
000058:                                                                                                  #  NAVIGATION PROGRAMS) PERMITS THE CALLER TO SET FIVE FLAGS (NOT MOONFLAG OR MIDFLAG) BUT NOT TO INPUT A STATE
000059:                                                                                                  #  VECTOR. ANY PROGRAM WHICH CALLS INTEGRVS OR INTEGRV MUST CALL INTSTALL BEFORE IT SETS THE INTEGRATION FLAGS
000060:                                                                                                  #  AND/OR STATE VECTOR.
000061:
000062:                                                                                                  #  THREE SETS OF 42 REGISTERS AND 2 FLAGS ARE USED FOR THE STATE VECTORS. TWO SETS, WHICH MAY NOT BE OVERLAYED, ARE
000063:                                                                                                  #  USED FOR THE PERMANENT STATE VECTORS FOR THE CSM AND LM. THE THIRD SET, WHICH MAY BE OVERLAYED WHEN INTEGRATION
000064:                                                                                                  #  IS NOT BEING DONE, IS USED IN THE COMPUTATIONS.
000065:
000066:                                                                                                  #  THE PERMANENT STATE VECTORS WILL BE PERIODICALLY UPDATED SO THAT THE VECTORS WILL NOT BE OLDER THAN 4 TIMESTEPS.
000067:                                                                                                  #  THE PERMANENT STATE VECTORS WILL ALSO BE UPDATED WHENEVER THE W-MATRIX IS INTEGRATED OR WHEN A CALLER OF INTEGRV
000068:                                                                                                  #  SETS STATEFLG (THE NAVIGATION PROGRAMS P20, P22.)


000070:                                                                                                  #  APPENDIX B OF THE USERS GUIDE LISTS THE STATE VECTOR QUANTITIES.
000071:
000072:                                                                                                  #  2.1 RESTARTS
000073:
000074:                                                                                                  #  PHASE CHANGES WILL BE MADE IN THE INTEGRATION PROGRAM ONLY FOR THE INTEGRV ENTRANCE (I.E., WHEN THE W-MATRIX IS
000075:                                                                                                  #  INTEGRATED OR PERMANENT STATE VECTOR IS UPDATED.) THE GROUP NUMBER USED WILL BE THAT FOR THE P20-25 PROGRAMS
000076:                                                                                                  #  (I.E., GROUP2) SINCE THE INTEGRV ENTRANCE WILL ONLY BE USED BY THESE PROGRAMS. IF A RESTART OCCURS DURING AN
000077:                                                                                                  #  INTEGRATION OF THE STATE VECTOR ONLY, THE RECOVERY WILL BE TO THE LAST PHASE IN THE CALLING PROGRAM. CALLING
000078:                                                                                                  #  PROGRAMS WHICH USE THE INTEGRV OR INTEGRVS ENTRANCE OF INTEGRATION SHOULD ENSURE THAT IF PHASE CHANGING IS DONE
000079:                                                                                                  #  THAT IT IS PRIOR TO SETTING THE INTEGRATION INPUTS IN THE PUSHLIST.
000080:                                                                                                  #  THIS IS BECAUSE THE PUSHLIST IS LOST DURING A RESTART.
000081:
000082:                                                                                                  #  2.2 SCALING
000083:
000084:                                                                                                  #  THE INTEGRATION ROUTINE WILL MAINTAIN THE PERMANENT MEMORY STATE VECTORS IN THE SCALING AND UNITS DEFINED IN
000085:                                                                                                  #  APPENDIX B OF THE USERS GUIDE. THE SCALING OF THE OUTPUT POSITION VECTORDEPENDS ON THE ORIGIN OF THE COORDINATE
000086:                                                                                                  #   SYSTEM AT THE DESIRED INTEGRATION TIME. THE COORDINATE SYSTEM TRANSFORMATION WILL BE DONE AUTOMATICALLY ON
000087:                                                                                                  #  MULTIPLE TIMESTEP ENCKE INTEGRATION ONLY. THUS IT IS POSSIBLE TO HAVE OUTPUT FROM SUCCESSIVE INTEGRATIONS IN
000088:                                                                                                  #  DIFFERENT SCALING.
000089:                                                                                                  #  HOWEVER, RATT, VATT WILL ALWAYS BE SCALED THE SAME.
000090:
000091:                                                                                                  #  3.0 INPUT/OUTPUT
000092:                                                                                                  #  ----------------
000093:
000094:                                                                                                  #  PROGRAM INPUTS ARE THE FLAGS DESCRIBED IN APPENDIX A AND THE PERMANENT STATE VECTOR QUANTITIES DESCRIBED IN AP-
000095:                                                                                                  #  PENDIX B OF THE USERS GUIDE, PLUS THE DESIRED TIME TO INTEGRATE TO IN TDEC1 (A PUSH LIST LOCATION).
000096:                                                                                                  #  FOR INTEGRVS, THE RCV,VCV, TET OF THE TEMPORARY STATE VECTOR MUST BE SET, PLUS MOONFLAG AND MIDFLAG
000097:
000098:                                                                                                  #  FOR SIMULATION THE FOLLOWING QUANTITIES MUST BE PRESET ---
000099:
000100:                                                                                                  #                                                             EARTH  MOON
000101:                                                                                                  #                                                              29     27
000102:                                                                                                  #     RRECTCSM(LEM)  - RECTIFIED POSITION VECTOR      METERS  2      2
000103:
000104:                                                                                                  #                                                              7      5
000105:                                                                                                  #     VRECTCSM(LEM)  - RECTIFIED VELOCITY VECTOR      M/CSEC  2    2
000106:
000107:                                                                                                  #                                                              28     28
000108:                                                                                                  #     TETCSM(LEM)    - TIME STATE VECTOR IS VALID     CSEC    2      2
000109:                                                                                                  #                      CUSTOMARILY 0, BUT NOTE LUNAR
000110:                                                                                                  #                      ORBIT DEPENDENCE ON REAL TIME.
000111:
000112:                                                                                                  #                                                              22     18
000113:                                                                                                  #     DELTAVCSM(LEM) - POSITION DEVIATION             METERS  2      2
000114:                                                                                                  #                      0 IF TCCSM(LEM) = 0
000115:
000116:                                                                                                  #                                                              3      -1
000117:                                                                                                  #     NUVCSM(LEM)    - VELOCITY DEVIATION             M/CSEC  2      2
000118:                                                                                                  #                      0 IF TCCSM(LEM) = 0


000120:                                                                                                  #                                                              29     27
000121:                                                                                                  #     RCVCSM(LEM)    - CONIC POSITION                 METERS  2      2
000122:                                                                                                  #                      EQUALS RRECTCSM(LEM) IF
000123:                                                                                                  #                      TCCSM(LEM) = 0
000124:
000125:                                                                                                  #                                                              7      5
000126:                                                                                                  #     VCVCSM(LEM)    - CONIC VELOCITY                 M/CSEC  2      2
000127:                                                                                                  #                      EQUALS VRECTCSM(LEM) IF
000128:                                                                                                  #                      TCCSM(LEM) = 0
000129:
000130:                                                                                                  #                                                              28     28
000131:                                                                                                  #     TCCSM(LEM)     - TIME SINCE RECTIFICATION       CSECS   2      2
000132:                                                                                                  #                      CUSTOMARILY 0
000133:
000134:                                                                                                  #                                                      1/2     17     16
000135:                                                                                                  #     XKEPCSM(LEM)   - ROOT OF KEPLERS EQUATION       M       2      2
000136:                                                                                                  #                      0 IF TCCSM(LEM) = 0
000137:
000138:                                                                                                  #     CMOONFLG       - PERMANENT FLAGS CORRESPONDING          0      0
000139:                                                                                                  #     CMIDFLAG         TO MOONFLAG AND MIDFLAG                0,1    0,1
000140:                                                                                                  #     LMOONFLG         C = CSM, L = LM                        0      0
000141:                                                                                                  #     LMIDFLG                                                 0,1    0,1
000142:
000143:                                                                                                  #     SURFFLAG       - LUNAR SURFACE FLAG                     0,1    0,1
000144:
000145:                                                                                                  #  IN ADDITION, IF (L)CMIDFLAG IS SET, THE INITIAL INPUT VALUES FOR LUNAR
000146:                                                                                                  #  SOLAR EPHEMERIDES SUBROUTINE AND PLANETARY INERTIAL ORIENTATION SUB-
000147:                                                                                                  #  ROUTINE MUST BE PRESET.
000148:
000149:                                                                                                  #  OUTPUT
000150:                                                                                                  #  AFTER EVERY CALL TO INTEGRATION
000151:                                                                                                  #                                                             EARTH  MOON
000152:                                                                                                  #                                                              29     29
000153:                                                                                                  #      0D   RATT   POSITION                           METERS  2      2
000154:                                                                                                  #                                                              7      7
000155:                                                                                                  #      6D   VATT   VELOCITY                           M/CSEC  2      2
000156:                                                                                                  #                                                              28     28
000157:                                                                                                  #     12D   TAT    TIME                                       2      2
000158:                                                                                                  #                                                              29     27
000159:                                                                                                  #     14D   RATT1  POSITION                           METERS  2      2
000160:                                                                                                  #                                                              7      5
000161:                                                                                                  #     20D   VATT1  VELOCITY                           M/CSEC  2      2
000162:                                                                                                  #                                                      3   2   36     30
000163:                                                                                                  #     26D   MU(P)  MU                                 M /CS   2      2
000164:
000165:                                                                                                  #     X1           MUTABLE ENTRY                              -2     -10D
000166:
000167:                                                                                                  #     X2           COORDINT
000168:                                                                                                  #     X2           COORDINATE SYSTEM ORIGEN                   0      2
000169:                                                                                                  #                  (THIS, NOT MOONFLAG, SHOULD BE


000171:                                                                                                  #                  USED TO DETERMINE ORIGIN.)
000172:
000173:                                                                                                  #  IN ADDITION TO THE ABOVE, THE PERMANENT STATE VECTOR IS UPDATED WHENEVER
000174:                                                                                                  #  STATEFLG WAS SET AND WHENEVER A W-MATRIX IS TO BE INTEGRATED. THE PUSH
000175:                                                                                                  #  COUNTER IS SET TO 0 AND OVERFLOW IS CLEARED BEFORE RETURNING TO THE
000176:                                                                                                  #  CALLING PROGRAM.
000177:
000178:                                                                                                  #  4.0 CALLING SEQUENCES AND SAMPLE CODE
000179:                                                                                                  #  -------------------------------------
000180:
000181:                                                                                                  #      A) PRECISION ORBITAL INTEGRATION. CSMPREC,LEMPREC ENTRANCES
000182:                                                                                                  #            L-X    STORE TIME TO 95T5791T5 T  95 PUS  L9ST (T4531)
000183:                                                                                                  #            L      CALL
000184:                                                                                                  #            L+1           CSMPREC (OR LEMPREC)
000185:                                                                                                  #            L+2    RETURN
000186:                                                                                                  #         INPUT                                                         28
000187:                                                                                                  #            TDEC1 (PD 32D) TIME TO INTEGRATE TO...CENTISECONDS SCALED 2
000188:                                                                                                  #         OUTPUT
000189:                                                                                                  #            THE DATA LISTED IN SECTION 3.0 PLUS
000190:                                                                                                  #            RQVV   POSITION VECTOR OF VEHICLE WITH RESPECT TO SECONDARY
000191:                                                                                                  #            BODY... METERS B-29 ONLY IF MIDFLAG = DIMOFLAG = 1
000192:                                                                                                  #      B) CONIC INTEGRATION. CSMCONIC, LEMCONIC ENTRANCES
000193:                                                                                                  #            L-X    STORE TIME IN PUSH LIST (TDEC1)
000194:                                                                                                  #            L      CALL
000195:                                                                                                  #            L+1           CSMCONIC (OR LEMCONIC)
000196:                                                                                                  #         INPUT/OUTPUT
000197:                                                                                                  #            SAME AS PRECISION INTEGRATION, EXCEPT RQVV NOT SET
000198:                                                                                                  #      C) INTEGRATE GIVEN STATE VECTOR. INTEGRVS ENTRANCE
000199:                                                                                                  #                   CALL
000200:                                                                                                  #                          INTSTALL
000201:                                                                                                  #                   VLOAD
000202:                                                                                                  #                          POSITION VECTOR
000203:                                                                                                  #                   STOVL  RCV
000204:                                                                                                  #                          VELOCITY VECTOR
000205:                                                                                                  #                   STODL  VCV
000206:                                                                                                  #                          TIME STATE VECTOR VALID
000207:                                                                                                  #                   STODL  TET
000208:                                                                                                  #                          FINAL RADIUS
000209:                                                                                                  #                   STORE  RFINAL
000210:                                                                                                  #                   SET(CLEAR)  SET(CLEAR)
000211:                                                                                                  #                               INTYPFLAG
000212:                                                                                                  #                               MOONFLAG
000213:                                                                                                  #                   SET(CLEAR)  DLOAD
000214:                                                                                                  #                               DESIRED TIME
000215:                                                                                                  #                   STCALL      TDEC1
000216:                                                                                                  #                               INTEGRVS
000217:                                                                                                  #         INPUT
000218:                                                                                                  #            RCV    POSITION VECTOR                  METERS
000219:                                                                                                  #            VCV    VELOCITY VECTOR                  M/CSEC
000220:                                                                                                  #            TET    TIME OF STATE VECTOR(MAY = 0)    CSEC B-28


000222:                                                                                                  #            TDEC1  TIME TO INTEGRATE TO             CSEC B-28 (PD 32D)
000223:                                                                                                  #                   (MAY BE INCREMENT IF TET=0)
000224:                                                                                                  #         OUTPUT
000225:                                                                                                  #            SAME AS FOR PRECISION OR CONIC INTEGRATION,
000226:                                                                                                  #            DEPENDING ON INTYPFLG.
000227:                                                                                                  #      D) INTEGRATE STATE VECTOR.INTGRV ENTRANCE
000228:                                                                                                  #            L-X    STORE TIME IN PUSH LIST (TDEC1)(MAY BE DONE AFTER CALL TO INTSTALL)
000229:                                                                                                  #            L-8    CALL
000230:                                                                                                  #            L-7
000231:                                                                                                  #            L-6    SET(CLEAR) SET(CLEAR)
000232:                                                                                                  #            L-5               VINTFLAG   1=CSM, 0=LM
000233:                                                                                                  #            L-4               INTYPFLAG  1=CONIC, 0=PRECISION
000234:                                                                                                  #            L-3    SET(CLEAR) SET(CLEAR)
000235:                                                                                                  #            L-2               DIMOFLAG   1=W-MATRIX, 0=NO W-MATRIX
000236:                                                                                                  #            L-1               D6OR9FLG   1=9X9, 0=6X6
000237:                                                                                                  #            L      SET        DLOAD
000238:                                                                                                  #            L+1               STATEFLG   DESIRE PERMANENT UPDATE
000239:                                                                                                  #            L+2               FINAL RAD. OF STATE VECTOR
000240:                                                                                                  #            L+3    STCALL     RFINAL
000241:                                                                                                  #            L+4               INTEGRV
000242:                                                                                                  #            L      CALL                  NORMAL USE-- WILL UPDATE STATE
000243:                                                                                                  #            L+1               INTEGRV    VECTOR IF DIMOFLAG=1.(STATEFLG IS
000244:                                                                                                  #            L+2    RETURN                ALWAYS RESET IN INTEGRATION AFTER
000245:                                                                                                  #                                         IT IS USED.)
000246:                                                                                                  #         INPUT
000247:                                                                                                  #            TDEC1 (PD 32D) TIME TO INTEGRATE TO    CSEC B-28
000248:                                                                                                  #         OUTPUT
000249:                                                                                                  #            SAME AS FOR PRECISION OR CONIC INTEGRATION
000250:                                                                                                  #         THE PROGRAM WILL SET MOONFLAG, MIDFLAG DEPENDING ON
000251:                                                                                                  #         THE PERMANENT STATE VECTOR REPRESENTATION.
000252:
000253: 11,2310                                           BANK     11
000254: 13,2000                                           SETLOC   INTINIT
000255: 13,2000                                           BANK
000256: 13,2561  E3,1554                                  EBANK=   RRECTCSM
000257: 13,2561                                           COUNT    13/INTIN
000258:
000259: 13,2561           05301        STATEINT           TC       PHASCHNG
000260: 13,2562           00052                           OCT      00052
000261: 13,2563           34754                           CAF      PRIO5
000262: 13,2564           05042                           TC       FINDVAC
000263: 13,2565  E3,1554                                  EBANK=   RRECTCSM
000264: 13,2565           02570 26063                     2CADR    STATINT1
000265: 13,2567           05213                           TC       TASKOVER
000266: 13,2570           06006        STATINT1           TC       INTPRET
000267: 13,2571           47014                           BON      RTB
000268: 13,2572           04712                                    QUITFLAG
000269: 13,2573           26630                                    NOINT                                 #  NO STATEINT IF V96
000270: 13,2574           45505                                    LOADTIME


000272: 13,2575           00041                           STORE    TDEC1
000273: 13,2576           77624                           CALL
000274: 13,2577           27371                                    INTSTALL
000275: 13,2600           45014                           SET      CALL
000276: 13,2601           01076                                    NODOFLAG
000277: 13,2602           26621                                    SETIFLGS
000278: 13,2603           77650                           GOTO
000279: 13,2604           26000                                    STATEUP
000280: 13,2605           00003 25140  600SECS            2DEC     60000      B-28
000281: 13,2607           77414        ENDINT             CLEAR    EXIT
000282: 13,2610           01672                                    STATEFLG
000283: 13,2611           05301                           TC       PHASCHNG
000284: 13,2612           20032                           OCT      20032
000285: 13,2613           00006                           EXTEND
000286: 13,2614           32606                           DCA      600SECS
000287: 13,2615           05231                           TC       LONGCALL
000288: 13,2616  E3,1554                                  EBANK=   RRECTHIS
000289: 13,2616           02561 26063                     2CADR    STATEINT
000290: 13,2620           05112                           TC       ENDOFJOB
000291: 13,2621           43014        SETIFLGS           SET      CLEAR
000292: 13,2622           01472                                    STATEFLG
000293: 13,2623           01673                                    INTYPFLG
000294: 13,2624           43014                           CLEAR    CLEAR
000295: 13,2625           01676                                    DIM0FLAG
000296: 13,2626           01675                                    D6OR9FLG
000297: 13,2627           77616                           RVQ
000298: 13,2630           77776        NOINT              EXIT
000299: 13,2631           05301                           TC       PHASCHNG
000300: 13,2632           00002                           OCT      2
000301:
000302: 13,2633           05447                           TC       DOWNFLAG
000303: 13,2634           00221                           ADRES    QUITFLAG
000304:
000305: 13,2635           05112                           TC       ENDOFJOB
000306:
000307:                                                                                                  #  ATOPCSM TRANSFERS RRECT TO RRECT +41 TO RRECTCSM TO RRECTCSM +41
000308:
000309:                                                                                                  #  CALLING SEQUENCE
000310:                                                                                                  #     L   CALL
000311:                                                                                                  #     L+1       ATOPCSM
000312:
000313:                                                                                                  #  NORMAL EXIT AT L+2
000314:
000315: 13,2636           47020        ATOPCSM            STQ      RTB
000316: 13,2637           00051                                    S2
000317: 13,2640           26651                                    MOVEACSM
000318: 13,2641           45014                           SET      CALL
000319: 13,2642           04063                                    CMOONFLG


000321: 13,2643           20237                                    SVDWN1
000322: 13,2644           43014                           BON      CLRGO
000323: 13,2645           00303                                    MOONFLAG
000324: 13,2646           00051                                    S2
000325: 13,2647           04223                                    CMOONFLG
000326: 13,2650           00051                                    S2
000327: 13,2651           03015        MOVEACSM           TC       SETBANK
000328: 13,2652           55500                           TS       DIFEQCNT                              #  INITIALIZE INDEX
000329: 13,2653           51500                           INDEX    DIFEQCNT
000330: 13,2654           31502                           CA       RRECT
000331: 13,2655           51500                           INDEX    DIFEQCNT
000332: 13,2656           55554                           TS       RRECTCSM
000333: 13,2657           11500                           CCS      DIFEQCNT                              #  IS TRANSFER COMPLETE
000334: 13,2660           12652                           TCF      MOVEACSM   +1                         #  NO-LOOP
000335: 13,2661           06030                           TC       DANZIG                                #  COMPLETE- RETURN
000336:
000337:
000338:                                                                                                  #  PTOACSM TRANSFERS RRECTCSM TO RRECTCSM +41 TO RRECT TO RRECT +41
000339:
000340:                                                                                                  #  CALLING SEQUENCE
000341:                                                                                                  #     L   CALL
000342:                                                                                                  #              PTOACSM
000343:
000344:                                                                                                  #  NORMAL EXIT AT L+2
000345: 13,2662           43034        PTOACSM            RTB      BON
000346: 13,2663           26700                                    MOVEPCSM
000347: 13,2664           04303                                    CMOONFLG
000348: 13,2665           26673                                    SETMOON
000349: 13,2666           66214        CLRMOON            CLEAR    SSP
000350: 13,2667           00263                                    MOONFLAG
000351: 13,2670           02151                                    PBODY
000352: 13,2671           00000                                    0
000353: 13,2672           77616                           RVQ
000354: 13,2673           66214        SETMOON            SET      SSP
000355: 13,2674           00063                                    MOONFLAG
000356: 13,2675           02151                                    PBODY
000357: 13,2676           00002                                    2
000358: 13,2677           77616                           RVQ
000359: 13,2700           03015        MOVEPCSM           TC       SETBANK
000360: 13,2701           55500                           TS       DIFEQCNT
000361: 13,2702           51500                           INDEX    DIFEQCNT
000362: 13,2703           31554                           CA       RRECTCSM
000363: 13,2704           51500                           INDEX    DIFEQCNT
000364: 13,2705           55502                           TS       RRECT
000365: 13,2706           11500                           CCS      DIFEQCNT
000366: 13,2707           12701                           TCF      MOVEPCSM   +1
000367: 13,2710           06030                           TC       DANZIG
000368:
000369:
000370:                                                                                                  #  ATOPLEM  TRANSFERS RRECT TO RRECT +41 TO RRECTLEM TO RRECTLEM +41


000372: 13,2711           47020        ATOPLEM            STQ      RTB
000373: 13,2712           00051                                    S2
000374: 13,2713           26724                                    MOVEALEM
000375: 13,2714           45014                           SET      CALL
000376: 13,2715           04064                                    LMOONFLG
000377: 13,2716           20263                                    SVDWN2
000378: 13,2717           43014                           BON      CLRGO
000379: 13,2720           00303                                    MOONFLAG
000380: 13,2721           00051                                    S2
000381: 13,2722           04224                                    LMOONFLG
000382: 13,2723           00051                                    S2
000383: 13,2724           03015        MOVEALEM           TC       SETBANK
000384: 13,2725           55500                           TS       DIFEQCNT
000385: 13,2726           51500                           INDEX    DIFEQCNT
000386: 13,2727           31502                           CA       RRECT
000387: 13,2730           51500                           INDEX    DIFEQCNT
000388: 13,2731           55626                           TS       RRECTLEM
000389: 13,2732           11500                           CCS      DIFEQCNT
000390: 13,2733           12725                           TCF      MOVEALEM   +1
000391: 13,2734           06030                           TC       DANZIG
000392:
000393:
000394:                                                                                                  #  PTOALEM  TRANSFERS RRECTLEM TO RRECTLEM +41 TO RRECT TO RRECT +41
000395:
000396: 13,2735           47014        PTOALEM            BON      RTB
000397: 13,2736           04307                                    SURFFLAG
000398: 13,2737           26756                                    USEPIOS
000399: 13,2740           26745                                    MOVEPLEM
000400: 13,2741           52014                           BON      GOTO
000401: 13,2742           04304                                    LMOONFLG
000402: 13,2743           26673                                    SETMOON
000403: 13,2744           26666                                    CLRMOON
000404: 13,2745           03015        MOVEPLEM           TC       SETBANK
000405: 13,2746           55500                           TS       DIFEQCNT
000406: 13,2747           51500                           INDEX    DIFEQCNT
000407: 13,2750           31626                           CA       RRECTLEM
000408: 13,2751           51500                           INDEX    DIFEQCNT
000409: 13,2752           55502                           TS       RRECT
000410: 13,2753           11500                           CCS      DIFEQCNT
000411: 13,2754           12746                           TCF      MOVEPLEM   +1
000412: 13,2755           06030                           TC       DANZIG
000413:
000414:
000415: 13,2756           77201        USEPIOS            SETPD    VLOAD
000416: 13,2757           00001                                    0
000417: 13,2760           02026                                    RLS
000418: 13,2761           41525                           PDDL     PUSH
000419: 13,2762           00041                                    TDEC1
000420: 13,2763           15517                           STODL    TET
000421: 13,2764           27753                                    5/8


000423: 13,2765           77624                           CALL
000424: 13,2766           55341                                    RP-TO-R
000425: 13,2767           25535                           STOVL    RCV
000426: 13,2770           11445                                    ZUNIT
000427: 13,2771           14001                           STODL    0D
000428: 13,2772           01517                                    TET
000429: 13,2773           14007                           STODL    6D
000430: 13,2774           27753                                    5/8
000431: 13,2775           45014                           SET      CALL                                  #  NEEDED FOR SETTING X1 ON EXIT
000432: 13,2776           00063                                    MOONFLAG
000433: 13,2777           55341                                    RP-TO-R
000434: 13,3000           74235                           VXV      VXSC
000435: 13,3001           01535                                    RCV
000436: 13,3002           27014                                    OMEGMOON
000437: 13,3003           25543                           STOVL    VCV
000438: 13,3004           11453                                    ZEROVEC
000439: 13,3005           01521                           STORE    TDELTAV
000440: 13,3006           67174                           AXT,2    SXA,2
000441: 13,3007           00002                                    2
000442: 13,3010           02150                                    PBODY
000443: 13,3011           35527                           STCALL   TNUV
000444: 13,3012           27136                                    A-PCHK
000445: 13,3013           07112 06620  OMEGMOON           2DEC*    2.66169947 E-8        B+23*
000446: 13,3015           33021        SETBANK            CAF      INTBANK
000447: 13,3016           54006                           TS       BBANK
000448: 13,3017           33436                           CAF      FORTYONE
000449: 13,3020           00002                           TC       Q
000450: 13,3021  E3,1554                                  EBANK=   RRECTCSM
000451: 13,3021           26063        INTBANK            BBCON    INTEGRV
000452:
000453:
000454:                                                                                                  #  SPECIAL PURPOSE ENTRIES TO ORBITAL INTEGRATION. THESE ROUTINES PROVIDE ENTRANCES TO INTEGRATION WITH
000455:                                                                                                  #  APPROPRIATE SWITCHES SET OR CLEARED FOR THE DESIRED INTEGRATION.
000456:
000457:                                                                                                  #  CSMPREC AND LEMPREC PERFORM ORBIT INTEGRATION BY THE ENCKE METHOD TO THE TIME INDICATED IN TDEC1
000458:                                                                                                  #  ACCELERATIONS DUE TO OBLATENESS ARE INCLUDED. NO W-MATRIX INT. IS DONE.
000459:                                                                                                  #  THE PERMANENT STATE VECTOR IS NOT UPDATED.
000460:                                                                                                  #  CSMCONIC AND LEMCONIC PERFORM ORBIT INTEG. BY KEPLERS METHOD TO THE TIME INDICATED IN TDEC1
000461:                                                                                                  #  NO DISTURBING ACCELERATIONS ARE INCLUDED. IN THE PROGRAM FLOW THE GIVEN
000462:                                                                                                  #  STATE VECTOR IS RECTIFIED BEFORE SOLUTION OF KEPLERS EQUATION
000463:
000464:                                                                                                  #  THE ROUTINES ASSUME THAT THE CSM (LEM) STATE VECTOR IN P-MEM IS VALID.
000465:                                                                                                  #  SWITCHES SET PRIOR TO ENTRY TO THE MAIN INTEG. PROG ARE AS FOLLOWS
000466:                                                                                                  #              CSMPREC  CSMCONIC   LEMPREC  LEMCONIC
000467:                                                                                                  #  VINTFLAG     SET       SET       CLEAR    CLEAR
000468:                                                                                                  #  INTYPFLG     CLEAR     SET       CLEAR    SET
000469:                                                                                                  #  DIM0FLAG     CLEAR     CLEAR     CLEAR    CLEAR
000470:


000472:                                                                                                  #  CALLING SEQUENCE
000473:                                                                                                  #     L-X  STORE TDEC1
000474:                                                                                                  #     L    CALL       (STCALL TDEC1)
000475:                                                                                                  #     L+1         CSMPREC (CSMCONIC, LEMPREC, LEMCONIC)
000476:
000477:                                                                                                  #   NORMAL EXIT TO L+2
000478:
000479:
000480:                                                                                                  #  SUBROUTINES CALLED
000481:                                                                                                  #    INTEGRV1
000482:                                                                                                  #    PRECOUT FOR CSMPREC AND LEMPREC
000483:                                                                                                  #    CONICOUT  FOR CSMCONIC AND LEMCONIC
000484:
000485:
000486:                                                                                                  #  OUTPUT - SEE PAGE 2 OF THIS LOG SECTION
000487:                                                                                                  #  INPUT
000488:                                                                                                  #   TDEC1   TIME TO INTEGRATE TO . CSECS B-28
000489: 13,3022           45020        CSMPREC            STQ      CALL
000490: 13,3023           00046                                    X1
000491: 13,3024           27371                                    INTSTALL
000492: 13,3025           43130                           SXA,1    SET
000493: 13,3026           02214                                    IRETURN
000494: 13,3027           01474                                    VINTFLAG
000495:
000496: 13,3030           43014        IFLAGP             SET      CLEAR
000497: 13,3031           01467                                    PRECIFLG
000498: 13,3032           01676                                    DIM0FLAG
000499: 13,3033           77614                           CLRGO
000500: 13,3034           01633                                    INTYPFLG
000501: 13,3035           27115                                    INTEGRV1
000502: 13,3036           45020        LEMPREC            STQ      CALL
000503: 13,3037           00046                                    X1
000504: 13,3040           27371                                    INTSTALL
000505: 13,3041           43130                           SXA,1    CLRGO
000506: 13,3042           02214                                    IRETURN
000507: 13,3043           01634                                    VINTFLAG
000508: 13,3044           27030                                    IFLAGP
000509:
000510: 13,3045           45020        CSMCONIC           STQ      CALL
000511: 13,3046           00046                                    X1
000512: 13,3047           27371                                    INTSTALL
000513: 13,3050           43130                           SXA,1    SET
000514: 13,3051           02214                                    IRETURN
000515: 13,3052           01474                                    VINTFLAG
000516: 13,3053           43014        IFLAGC             CLEAR    SETGO
000517: 13,3054           01676                                    DIM0FLAG
000518: 13,3055           01433                                    INTYPFLG
000519: 13,3056           27115                                    INTEGRV1
000520: 13,3057           45020        LEMCONIC           STQ      CALL
000521: 13,3060           00046                                    X1


000523: 13,3061           27371                                    INTSTALL
000524: 13,3062           43130                           SXA,1    CLRGO
000525: 13,3063           02214                                    IRETURN
000526: 13,3064           01634                                    VINTFLAG
000527: 13,3065           27053                                    IFLAGC
000528:
000529: 13,3066           66214        INTEGRVS           SET      SSP
000530: 13,3067           01467                                    PRECIFLG
000531: 13,3070           02151                                    PBODY
000532: 13,3071           00000                                    0
000533: 13,3072           66214                           BOF      SSP
000534: 13,3073           00343                                    MOONFLAG
000535: 13,3074           27077                                    +3
000536: 13,3075           02151                                    PBODY
000537: 13,3076           00002                                    2
000538: 13,3077           77220                           STQ      VLOAD
000539: 13,3100           02214                                    IRETURN
000540: 13,3101           11453                                    ZEROVEC
000541: 13,3102           01521                           STORE    TDELTAV
000542: 13,3103           35527                           STCALL   TNUV
000543: 13,3104           23344                                    RECTIFY
000544: 13,3105           43014                           CLEAR    SET
000545: 13,3106           01676                                    DIM0FLAG
000546: 13,3107           04062                                    NEWIFLG
000547: 13,3110           77614                           SETGO
000548: 13,3111           04020                                    RPQFLAG
000549: 13,3112           27127                                    ALOADED
000550:                                                                                                  #  INTEGRV IS AN ENTRY TO ORBIT INTEGRATION WHICH PERMITS THE CALLER ,
000551:                                                                                                  #  NORMALLY THE NAVIGATION PROGRAM ,TO SET THE INTEG. FLAGS. THE ROUTINE
000552:                                                                                                  #  IS ENTERED AT INTEGRV1 BY CSMPREC ET. AL. AND AT ALOADED BY INTEGRVS.
000553:                                                                                                  #  THE ROUTINE SETS UP A-MEMORY IF ENTERED AT INTEGRV,1 AND SETS THE INTEG.
000554:                                                                                                  #  PROGRAM FOR PRECISION OR CONIC
000555:
000556:                                                                                                  #  THE CALLER MUST FIRST CALL INTSTALL TO CHECK IF INTEG. IS IN USE BEFORE
000557:                                                                                                  #  SETTING ANY FLAGS.
000558:                                                                                                  #  THE FLAGS WHICH SHOULD BE SET OR CLEARED ARE
000559:                                                                                                  #    VINTFLAG    (IGNORED WHEN ENTERED FROM INTEGRVS)
000560:                                                                                                  #    INTYPFLG
000561:                                                                                                  #    DIM0FLAG
000562:                                                                                                  #    D6OR9FLG
000563:                                                                                                  #  CALLING SEQUENCE
000564:                                                                                                  #    L-X    CALL
000565:                                                                                                  #    L-Y          INTSTALL
000566:                                                                                                  #    L-1    SET OR CLEAR ALL FOUR FLAGS. ALSO CAN SET STATEFLG IF DESIRED
000567:                                                                                                  #           AND DIM0FLAG IS CLEAR.
000568:                                                                                                  #    L      CALL
000569:                                                                                                  #    L+1          INTEGRV
000570:                                                                                                  #  INITIALIZATION
000571:                                                                                                  #    FLAGS AS ABOVE
000572:                                                                                                  #    STORE TIME TO INTEGRATE TO IN TDEC1


000574:                                                                                                  #  OUTPUT
000575:                                                                                                  #    RATT   AS
000576:                                                                                                  #    VATT      DEFINED
000577:                                                                                                  #    TAT               BEFORE
000578:
000579:
000580: 13,3113           77620        INTEGRV            STQ
000581: 13,3114           02214                                    IRETURN
000582: 13,3115           43014        INTEGRV1           SET      SET
000583: 13,3116           04060                                    RPQFLAG
000584: 13,3117           04062                                    NEWIFLG
000585: 13,3120           77731        INTEGRV2           SSP
000586: 13,3121           00053                                    QPRET
000587: 13,3122           27127                                    ALOADED
000588: 13,3123           52014                           BON      GOTO
000589: 13,3124           01714                                    VINTFLAG
000590: 13,3125           26662                                    PTOACSM
000591: 13,3126           26735                                    PTOALEM
000592: 13,3127           77745        ALOADED            DLOAD
000593: 13,3130           00041                                    TDEC1
000594: 13,3131           01101                           STORE    TDEC
000595: 13,3132           52014                           BOFF     GOTO
000596: 13,3133           01753                                    INTYPFLG
000597: 13,3134           27234                                    TESTLOOP
000598: 13,3135           27220                                    RVCON
000599: 13,3136           77414        A-PCHK             BOFCLR   EXIT
000600: 13,3137           01652                                    STATEFLG
000601: 13,3140           27157                                    RECTOUT
000602: 13,3141           05301                           TC       PHASCHNG
000603: 13,3142           04022                           OCT      04022
000604: 13,3143           05435                           TC       UPFLAG                                #  PHASE CHANGE HAS OCCURRED BETWEEN
000605: 13,3144           00236                           ADRES    REINTFLG                              #  INTSTALL AND INTWAKE
000606: 13,3145           06006                           TC       INTPRET
000607: 13,3146           77731                           SSP
000608: 13,3147           00053                                    QPRET
000609: 13,3150           27155                                    PHEXIT
000610: 13,3151           52014                           BON      GOTO
000611: 13,3152           01714                                    VINTFLAG
000612: 13,3153           26636                                    ATOPCSM
000613: 13,3154           26711                                    ATOPLEM
000614: 13,3155           77624        PHEXIT             CALL
000615: 13,3156           56712                                    GRP2PC
000616: 13,3157           45001        RECTOUT            SETPD    CALL
000617: 13,3160           00001                                    0
000618: 13,3161           23344                                    RECTIFY
000619: 13,3162           53775                           VLOAD    VSL*
000620: 13,3163           01503                                    RRECT
000621: 13,3164           57576                                    0,2
000622: 13,3165           53715                           PDVL     VSL*                                  #  RATT TO PD0
000623: 13,3166           01511                                    VRECT


000625: 13,3167           57576                                    0,2
000626: 13,3170           63325                           PDDL     PDVL                                  #  VATT TO PD6    TAT TO PD12
000627: 13,3171           01517                                    TET
000628: 13,3172           01503                                    RRECT
000629: 13,3173           64715                           PDVL     PDDL*
000630: 13,3174           01511                                    VRECT
000631: 13,3175           50044                                    MUEARTH,2
000632: 13,3176           76006                           PUSH     AXT,1
000633: 13,3177           77765                           DEC      -10        B-14
000634: 13,3200           76014                           BON      AXT,1
000635: 13,3201           00303                                    MOONFLAG
000636: 13,3202           27204                                    +2
000637: 13,3203           77775                           DEC      -2         B-14
000638: 13,3204           40001        INTEXIT            SETPD    BOV
000639: 13,3205           00001                                    0
000640: 13,3206           27207                                    +1
000641: 13,3207           43014                           CLEAR    CLEAR
000642: 13,3210           04676                                    AVEMIDSW                              #  ALLOW UPDATE OF DOWNLINK STATE VECTOR
000643: 13,3211           01667                                    PRECIFLG
000644: 13,3212           77535                           SLOAD    EXIT
000645: 13,3213           02215                                    IRETURN
000646: 13,3214           30154                           CA       MPAC
000647: 13,3215           50120                           INDEX    FIXLOC
000648: 13,3216           54052                           TS       QPRET
000649: 13,3217           03406                           TC       INTWAKE
000650:                                                                                                  #  RVCON SETS UP ORBIT INTEGRATION TO DO A CONIC SOLUTION FOR POSITION AND
000651:                                                                                                  #  VELOCITY FOR THE INTERVAL (TET-TDEC)
000652:
000653: 13,3220           45345        RVCON              DLOAD    DSU
000654: 13,3221           01101                                    TDEC
000655: 13,3222           01517                                    TET
000656: 13,3223           36312                           STCALL   TAU.
000657: 13,3224           23344                                    RECTIFY
000658: 13,3225           77624                           CALL
000659: 13,3226           22310                                    KEPPREP
000660: 13,3227           43345                           DLOAD    DAD
000661: 13,3230           01551                                    TC
000662: 13,3231           01517                                    TET
000663: 13,3232           35517                           STCALL   TET
000664: 13,3233           27157                                    RECTOUT
000665:


000667:                                                                                                  #           TESTLOOP
000668:
000669: 13,3234           43014        TESTLOOP           BOF      CLRGO
000670: 13,3235           04752                                    QUITFLAG
000671: 13,3236           27241                                    +3
000672: 13,3237           01632                                    STATEFLG
000673: 13,3240           27204                                    INTEXIT                               #  STOP INTEGRATION
000674: 13,3241           73001                 +3        SETPD    LXA,2
000675: 13,3242           00013                                    10D
000676: 13,3243           02150                                    PBODY
000677: 13,3244           51575                           VLOAD    ABVAL
000678: 13,3245           01535                                    RCV
000679: 13,3246           43006                           PUSH     CLEAR                                 #  RC TO 10D
000680: 13,3247           00262                                    MIDFLAG
000681: 13,3250           50023                           DSU*     BMN                                   #  MIDFLAG=0 IF R G.T. RMP
000682: 13,3251           67241                                    RME,2
000683: 13,3252           27255                                    +3
000684: 13,3253           77614                           SET
000685: 13,3254           00062                                    MIDFLAG
000686: 13,3255           41345        NORFINAL           DLOAD    DMP
000687: 13,3256           00013                                    10D
000688: 13,3257           00043                                    34D
000689: 13,3260           55762                           SR1R     DDV*
000690: 13,3261           50044                                    MUEARTH,2
000691: 13,3262           41366                           SQRT     DMP
000692: 13,3263           23675                                    .3D
000693: 13,3264           40442                           SR3      SR4                                   #  DT   IS TRUNCATED TO A MULTIPLE
000694: 13,3265           54345                           DLOAD    SL
000695: 13,3266           00155                                    MPAC
000696: 13,3267           20220                                    15D                                   #        OF 128 CSECS.
000697: 13,3270           40006                           PUSH     BOV
000698: 13,3271           27316                                    MAXDT
000699: 13,3272           50021                           BDSU     BMN
000700: 13,3273           27370                                    DT/2MAX
000701: 13,3274           27316                                    MAXDT
000702: 13,3275           45345        DT/2COMP           DLOAD    DSU
000703: 13,3276           01101                                    TDEC
000704: 13,3277           01517                                    TET
000705: 13,3300           54234                           RTB      SL
000706: 13,3301           45541                                    SGNAGREE
000707: 13,3302           20211                                    8D
000708: 13,3303           02314                           STORE    DT/2                                  #  B-19
000709: 13,3304           51400                           BOV      ABS
000710: 13,3305           27322                                    GETMAXDT
000711: 13,3306           50025                           DSU      BMN                                   #  IS TIME TO INTEG. TO GR THAN MAXTIME
000712: 13,3307           00015                                    12D
000713: 13,3310           27326                                    P00HCHK
000714: 13,3311           75345        USEMAXDT           DLOAD    SIGN
000715: 13,3312           00015                                    12D
000716: 13,3313           02314                                    DT/2


000718: 13,3314           36314                           STCALL   DT/2
000719: 13,3315           27326                                    P00HCHK
000720: 13,3316           65345        MAXDT              DLOAD    PDDL                                  #  EXCHANGE DT/2MAX WITH COMPUTED MAX.
000721: 13,3317           27370                                    DT/2MAX
000722: 13,3320           77650                           GOTO
000723: 13,3321           27275                                    DT/2COMP
000724: 13,3322           77634        GETMAXDT           RTB
000725: 13,3323           45707                                    SIGNMPAC
000726: 13,3324           36314                           STCALL   DT/2
000727: 13,3325           27311                                    USEMAXDT
000728: 13,3326           51545        P00HCHK            DLOAD    ABS
000729: 13,3327           02314                                    DT/2
000730: 13,3330           50025                           DSU      BMN
000731: 13,3331           27366                                    DT/2MIN
000732: 13,3332           27136                                    A-PCHK
000733: 13,3333           46135                           SLOAD    BHIZ
000734: 13,3334           01012                                    MODREG
000735: 13,3335           27340                                    +3
000736: 13,3336           77650                           GOTO
000737: 13,3337           23155                                    TIMESTEP
000738: 13,3340           77614                           BON                                            #  WAS THIS CALL VIA CSM(LEM)PREC
000739: 13,3341           01707                                    PRECIFLG
000740: 13,3342           23155                                    TIMESTEP                              #  YES
000741: 13,3343           45345                           DLOAD    DSU
000742: 13,3344           02314                                    DT/2
000743: 13,3345           00015                                    12D
000744: 13,3346           43040                           BMN      BOFCLR
000745: 13,3347           27136                                    A-PCHK
000746: 13,3350           04242                                    NEWIFLG
000747: 13,3351           23155                                    TIMESTEP
000748: 13,3352           45345                           DLOAD    DSU
000749: 13,3353           01101                                    TDEC
000750: 13,3354           01517                                    TET
000751: 13,3355           77640                           BMN                                            #  NO BACKWARD INTEGRATION
000752: 13,3356           27204                                    INTEXIT
000753: 13,3357           40525                           PDDL     SR4
000754: 13,3360           02314                                    DT/2                                  #  IS 4(DT) LS(TDEC - TET)
000755: 13,3361           44322                           SR2R     BDSU                                  #  NO
000756: 13,3362           52040                           BMN      GOTO
000757: 13,3363           27204                                    INTEXIT
000758: 13,3364           23155                                    TIMESTEP
000759: 13,3365           00000 01400  DT/2MIN            2DEC     3          B-20
000760: 13,3367           14152 00000  DT/2MAX            2DEC     4000       E2         B-20
000761: 13,3371           77776        INTSTALL           EXIT
000762: 13,3372           34714                           CAF      ZERO
000763: 13,3373           54001        ALLSTALL           TS       L
000764: 13,3374           30106                           CA       RASFLAG
000765: 13,3375           50001                           INDEX    L


000767: 13,3376           73467                           MASK     INTBITAB                              #  IS THIS STALL AREA FREE
000768: 13,3377           00006                           EXTEND
000769: 13,3400           13445                           BZF      OKTOGRAB                              #  YES
000770: 13,3401           50001                           INDEX    L
000771: 13,3402           33464                           CAF      WAKESTAL
000772: 13,3403           05070                           TC       JOBSLEEP
000773: 13,3404           77776        INTWAKE0           EXIT
000774: 13,3405           13426                           TCF      INTWAKE1
000775:
000776: 13,3406           40106        INTWAKE            CS       RASFLAG                               #  IS THIS INTSTALLED ROUTINE TO BE
000777: 13,3407           74704                           MASK     REINTBIT                              #       RESTARTED
000778: 13,3410           10000                           CCS      A
000779: 13,3411           03426                           TC       INTWAKE1                              #  NO
000780:
000781: 13,3412           50120                           INDEX    FIXLOC
000782: 13,3413           30052                           CA       QPRET
000783: 13,3414           55055                           TS       TBASE2                                #  YES, DONT RESTART WITH SOMEONE ELSES Q
000784:
000785: 13,3415           05301                           TC       PHASCHNG
000786: 13,3416           04022                           OCT      04022
000787:
000788: 13,3417           31055                           CA       TBASE2
000789: 13,3420           50120                           INDEX    FIXLOC
000790: 13,3421           54052                           TS       QPRET
000791:
000792: 13,3422           34704                           CAF      REINTBIT
000793: 13,3423           70106                           MASK     RASFLAG
000794: 13,3424           00006                           EXTEND
000795: 13,3425           13450                           BZF      GOBAC                                 #  DONT INTWAKE IF WE CAME HERE VIA RESTART
000796:
000797: 13,3426           34714        INTWAKE1           CAF      ZERO
000798: 13,3427           54154        WAKE               TS       STALTEM                               #  INDEX OF ANY STALL USER
000799: 13,3430           50154        WAKE1              INDEX    STALTEM
000800: 13,3431           33464                           CAF      WAKESTAL
000801: 13,3432           00004                           INHINT
000802: 13,3433           05074                           TC       JOBWAKE
000803: 13,3434           10064                           CCS      LOCCTR
000804: 13,3435           13430                           TCF      WAKE1                                 #  MAY BE MORE TO WAKE UP
000805: 13,3436           00051        FORTYONE           DEC      41         B-14
000806: 13,3437           50154                           INDEX    STALTEM
000807: 13,3440           43467                           CS       INTBITAB
000808: 13,3441           70106                           MASK     RASFLAG
000809: 13,3442           54106                           TS       RASFLAG                               #  RELEASE STALL AREA
000810: 13,3443           00003                           RELINT
000811: 13,3444           13450                           TCF      GOBAC
000812: 13,3445           50001        OKTOGRAB           INDEX    L                                     #  NO, WAIT UNTIL AVAILABLE
000813: 13,3446           34675                           CAF      INTFLBIT
000814: 13,3447           26106                           ADS      RASFLAG
000815: 13,3450           06006        GOBAC              TC       INTPRET
000816: 13,3451           77616                           RVQ


000818: 13,3452           77776        ERASTAL1           EXIT
000819: 13,3453           34712                           CAF      ONE
000820: 13,3454           13373                           TCF      ALLSTALL
000821: 13,3455           77776        ERASTAL2           EXIT
000822: 13,3456           34711                           CAF      TWO
000823: 13,3457           13373                           TCF      ALLSTALL
000824: 13,3460           34712        ERASWAK1           CAF      ONE
000825: 13,3461           13427                           TCF      WAKE
000826: 13,3462           34711        ERASWAK2           CAF      TWO
000827: 13,3463           13427                           TCF      WAKE
000828: 13,3464           27372        WAKESTAL           CADR     INTSTALL   +1
000829: 13,3465           27453                           CADR     ERASTAL1   +1
000830: 13,3466           27456                           CADR     ERASTAL2   +1
000831: 13,3467     0154               STALTEM            EQUALS   MPAC
000832: 13,3467           20100        INTBITAB           OCT      20100
000833: 13,3470           10040                           OCT      10040
000834: 13,3471           04020                           OCT      04020
000835:


000837:                                                                                                  #  AVETOMID
000838:
000839:                                                                                                  #  THIS ROUTINE PERFORMS THE TRANSITION FROM A THRUSTING PHASE TO THE COAST
000840:                                                                                                  #  PHASE BY INITIALIZING THIS VEHICLES PERMANENT STATE VECTOR WITH THE
000841:                                                                                                  #  VALUES LEFT BY THE AVERAGEG ROUTINE IN RN,VN,PIPTIME.
000842:
000843:                                                                                                  #  BEFORE THIS IS DONE THE W-MATRIX, IF ITS  VALID (ORWFLAG OR RENDWFLG IS
000844:                                                                                                  #  SET) IS INTEGRATED FORWARD TO PIPTIME WITH THE PRE-THRUST STATE VECTOR.
000845:
000846:                                                                                                  #  IN ADDITION, THE OTHER VEHICLE IS INTEGRATED (PERMANENT) TO PIPTIME.
000847:
000848:                                                                                                  #  FINALLY TRKMKCNT IS ZEROED
000849:
000850:
000851: 13,2000                                           SETLOC   INTINIT
000852: 13,2000                                           BANK
000853:
000854: 13,3472                                           COUNT*   $$/INTIN
000855: 13,3472           43020        AVETOMID           STQ      BON
000856: 13,3473           02317                                    EGRESS
000857: 13,3474           02716                                    RENDWFLG
000858: 13,3475           27545                                    INT/W                                 #  W-MATRIX VALID ,GO INTEGRATE IT
000859: 13,3476           77614                           BON
000860: 13,3477           01711                                    ORBWFLAG
000861: 13,3500           27545                                    INT/W                                 #  W-MATRIX VALID ,GO INTEGRATE IT
000862:
000863: 13,3501           45145        OTHERS             DLOAD    CALL                                  #  GET SET FOR OTHER VEHICLE INTEGRATION
000864: 13,3502           01205                                    PIPTIME                               #  DESIRED TIME
000865: 13,3503           27371                                    INTSTALL
000866: 13,3504           45014                           SET      CALL
000867: 13,3505           01474                                    VINTFLAG                              #  CM
000868: 13,3506           26621                                    SETIFLGS                              #  SETS UP NONE W-MAT. PERMANENT INTEG.
000869: 13,3507           43014                           BOF      CLEAR
000870: 13,3510           02747                                    COMPUTER
000871: 13,3511           27513                                    +2                                    #  COMPUTER IS LM ,INTEG CM
000872: 13,3512           01674                                    VINTFLAG                              #  COMPUTER IS CM ,INTEG LM
000873: 13,3513           34041                           STCALL   TDEC1
000874: 13,3514           27113                                    INTEGRV
000875:
000876: 13,3515           45174                           AXT,2    CALL                                  #  NOW MOVE PROPERLY SCALE RN,UN AS WELL AS
000877: 13,3516           00002                                    2                                     #  PIPTIME TO INTEGRATION ERASABLES.
000878: 13,3517           27371                                    INTSTALL
000879: 13,3520           77014                           BON      AXT,2
000880: 13,3521           04303                                    MOONTHIS
000881: 13,3522           27524                                    +2
000882: 13,3523           00000                                    0
000883: 13,3524           53775                           VLOAD    VSR*
000884: 13,3525           01171                                    RN
000885: 13,3526           57176                                    0,2
000886: 13,3527           01503                           STORE    RRECT


000888: 13,3530           15535                           STODL    RCV
000889: 13,3531           01205                                    PIPTIME
000890: 13,3532           25517                           STOVL    TET
000891: 13,3533           01177                                    VN
000892: 13,3534           45057                           VSR*     CALL
000893: 13,3535           57176                                    0,2
000894: 13,3536           23360                                    MINIRECT                              #  FINISH SETTING UP STATE VECTOR
000895: 13,3537           66234                           RTB      SSP
000896: 13,3540           26651                                    MOVATHIS                              #  PUT TEMP STATE VECTOR INTO PERMANENT
000897: 13,3541           01127                                    TRKMKCNT
000898: 13,3542           00000                                    0
000899: 13,3543           77650                           GOTO
000900: 13,3544           75743                                    FAZAB5
000901:
000902: 13,3545           45145        INT/W              DLOAD    CALL
000903: 13,3546           01205                                    PIPTIME                               #  INTEGRATE W THRU BURN
000904: 13,3547           27371                                    INTSTALL
000905: 13,3550           43014                           SET      SET
000906: 13,3551           01476                                    DIM0FLAG                              #  DO W-MATRIX
000907: 13,3552           04476                                    AVEMIDSW                              #  SO WONT CLOBBER RN,VN,PIPTIME
000908: 13,3553           43014                           SET      CLEAR
000909: 13,3554           01475                                    D6OR9FLG                              #  9X9 FOR LM
000910: 13,3555           01674                                    VINTFLAG                              #  LM
000911: 13,3556           43014                           BOF      SET
000912: 13,3557           02747                                    COMPUTER
000913: 13,3560           27564                                    +4                                    #  LM TO DO
000914: 13,3561           01474                                    VINTFLAG
000915: 13,3562           77614                           CLEAR
000916: 13,3563           01675                                    D6OR9FLG                              #  6X6 FOR CM
000917: 13,3564           34041                           STCALL   TDEC1
000918: 13,3565           27113                                    INTEGRV
000919: 13,3566           77650                           GOTO
000920: 13,3567           27501                                    OTHERS                                #  NOW GO DO THE OTHER VEHICLE
000921:


000923:                                                                                                  #  MIDTOAV1
000924:
000925:                                                                                                  #  THIS ROUTINE INTEGRATES (PRECISION) TO THE TIME SPECIFIED IN TDEC1.
000926:                                                                                                  #  IF, AT THE END OF AN INTEGRATION TIME STEP, CURRENT TIME PLUS A DELTA
000927:                                                                                                  #  TIME (SEE TIMEDELT.....BASED ON THE COMPUTATUON TIME FOR ONE TIME STEP)
000928:                                                                                                  #  IS GREATER THAN THE DESIRED TIME, ALARM 1703 IS SET AND THE INTEGRATION
000929:                                                                                                  #  IS DONE TO THE CURRENT TIME.
000930:                                                                                                  #  RETURN IS IN BASIC TO THE RETURN ADDRESS PLUS ONE.
000931:
000932:                                                                                                  #  IF THE INTEGRATION IS FINISHED TO THE DESIRED TIME, RETURN IS IN BASIC
000933:                                                                                                  #  TO THE RETURN ADDRESS
000934:
000935:                                                                                                  #  IN EITHER CASE , BEFORE RETURNING, THE EXTRAPOLATED STATE VECTOR IS TRAN
000936:                                                                                                  #  FERRED FROM R,VATT TO R,VN1-PIPTIME1 IS SET TO THE FINISHING INTEGRA-
000937:                                                                                                  #  TION TIME AND MPAC IS SET TO THE DELTA TIME---
000938:                                                                                                  #                                    TAT MINUS CURRENT TIME.
000939:
000940:
000941:                                                                                                  #  MIDTOAV2
000942:
000943:                                                                                                  #  THIS ROUTINE INTEGRATES THIS VEHICLES STATE VECTOR TO THE CURRENT TIME.
000944:                                                                                                  #  NO INPUTS ARE REQUIRED OF THE CALLER. RETURN IS IN BASIC TO THE RETURN
000945:                                                                                                  #  ADDRESS WITH THE ABOVE TRANSFERS TO R,VN1-PIPTIME1-AND MPAC DONE
000946:
000947: 13,3570     1127                                  EBANK=   IRETURN1
000948: 13,3570           43020        MIDTOAV2           STQ      CLRGO                                 #  INTEGRATE TO PRESENT TIME PLUS TIMEDELT
000949: 13,3571           01127                                    IRETURN1
000950: 13,3572           04634                                    MID1FLAG
000951: 13,3573           27607                                    ENTMID2
000952:
000953: 13,3574           43020        MIDTOAV1           STQ      SET                                   #   INTEGRATE TO TDEC1
000954: 13,3575           01127                                    IRETURN1
000955: 13,3576           04474                                    MID1FLAG
000956: 13,3577           43234                           RTB      DAD                                   #  INITIAL CHECK, IS TDEC1 IN THE FUTURE
000957: 13,3600           45505                                    LOADTIME
000958: 13,3601           27711                                    TIMEDELT
000959: 13,3602           51021                           BDSU     BPL
000960: 13,3603           00041                                    TDEC1
000961: 13,3604           27613                                    ENTMID1                               #   Y5S
000962: 13,3605           77624                           CALL
000963: 13,3606           27677                                    NOTIME                                #  NO, SET ALARM, SWITCH TO MIDTOAV2
000964:
000965: 13,3607           43234        ENTMID2            RTB      DAD
000966: 13,3610           45505                                    LOADTIME
000967: 13,3611           27711                                    TIMEDELT
000968: 13,3612           00041                           STORE    TDEC1
000969:
000970: 13,3613           77624        ENTMID1            CALL
000971: 13,3614           27371                                    INTSTALL
000972: 13,3615           45014                           CLEAR    CALL


000974: 13,3616           01676                                    DIM0FLAG                              #  NO W-MATRIX
000975: 13,3617           26034                                    THISVINT
000976: 13,3620           43014                           CLEAR    SET
000977: 13,3621           01673                                    INTYPFLG
000978: 13,3622           04475                                    MIDAVFLG                              #  LET INTEG. KNOW THE CALL IS FOR MIDTOAV.
000979: 13,3623           77624                           CALL
000980: 13,3624           27113                                    INTEGRV                               #   GO INTEGRATE
000981: 13,3625           77214                           CLEAR    VLOAD
000982: 13,3626           04675                                    MIDAVFLG
000983: 13,3627           00001                                    RATT
000984: 13,3630           25232                           STOVL    RN1
000985: 13,3631           00007                                    VATT
000986: 13,3632           15240                           STODL    VN1
000987: 13,3633           00015                                    TAT
000988: 13,3634           01246                           STORE    PIPTIME1
000989: 13,3635           66134                           SXA,2    SXA,1
000990: 13,3636           03746                                    RTX2
000991: 13,3637           03745                                    RTX1
000992: 13,3640           77776                           EXIT
000993:
000994: 13,3641           00004                           INHINT
000995: 13,3642           00006                           EXTEND
000996: 13,3643           40025                           DCS      TIME2
000997: 13,3644           20155                           DAS      MPAC
000998: 13,3645           07226                           TC       TPAGREE
000999:
001000: 13,3646           31127                           CA       IRETURN1
001001: 13,3647           04577                           TC       BANKJUMP
001002: 13,3650           47014        CKMID2             BOF      RTB
001003: 13,3651           04754                                    MID1FLAG
001004: 13,3652           27667                                    MID2
001005: 13,3653           45505                                    LOADTIME
001006: 13,3654           44215                           DAD      BDSU
001007: 13,3655           27711                                    TIMEDELT
001008: 13,3656           01101                                    TDEC
001009: 13,3657           45044                           BPL      CALL
001010: 13,3660           27234                                    TESTLOOP                              #   YES
001011: 13,3661           27677                                    NOTIME
001012:
001013: 13,3662           43234        TIMEINC            RTB      DAD
001014: 13,3663           45505                                    LOADTIME
001015: 13,3664           27711                                    TIMEDELT
001016: 13,3665           35101                           STCALL   TDEC
001017: 13,3666           27234                                    TESTLOOP
001018:
001019: 13,3667           45345        MID2               DLOAD    DSU
001020: 13,3670           01101                                    TDEC
001021: 13,3671           01517                                    TET
001022: 13,3672           45246                           ABS      DSU
001023: 13,3673           27707                                    3CSECS


001025: 13,3674           52040                           BMN      GOTO
001026: 13,3675           27136                                    A-PCHK
001027: 13,3676           27662                                    TIMEINC
001028:
001029: 13,3677           77414        NOTIME             CLEAR    EXIT                                  #  TOO LATE
001030: 13,3700           04674                                    MID1FLAG
001031: 13,3701           25127                           INCR     IRETURN1                              #  SET ERROR EXIT  (CALLOC +2)
001032: 13,3702           05537                           TC       ALARM                                 #  INSUFFICIENT TIME FOR INTEGRATION --
001033: 13,3703           01703                           OCT      1703                                  #     TIG WILL BE SLIPPED...
001034: 13,3704           06006                           TC       INTPRET
001035: 13,3705           77616                           RVQ
001036:
001037: 13,3706           00000 00003  3CSECS             2DEC     3          B-28
001038: 13,3710           00000 01750  TIMEDELT           2DEC     1000       B-28
001039: 27,2633                                           BANK     27
001040: 27,2000                                           SETLOC   UPDATE2
001041: 27,2000                                           BANK
001042: 27,2633     0330                                  EBANK=   INTWAKUQ
001043:
001044:
001045: 27,2633                                           COUNT*   $$/INTIN
001046:
001047: 27,2633     0330               INTWAKUQ           =        INTWAK1Q                              #  TEMPORARY UNTIL NAME OF INTWAK1Q IS CHNG
001048:
001049: 27,2633           00003        INTWAKEU           RELINT
001050: 27,2634           00006                           EXTEND
001051: 27,2635           22330                           QXCH     INTWAKUQ                              #  SAVE Q FOR RETURN
001052:
001053: 27,2636           06006                           TC       INTPRET
001054:
001055: 27,2637           53135                           SLOAD    BZE                                   #  IS THIS A CSM/LEM STATE VECTOR UPDATE
001056: 27,2640           01502                                    UPSVFLAG                              #  REQUEST. IF NOT GO TO INTWAKUP.
001057: 27,2641           56700                                    INTWAKUP
001058:
001059: 27,2642           77775                           VLOAD                                          #  MOVE RRECT(6) AND VRECT(6) INTO
001060: 27,2643           01503                                    RRECT                                 #       RCV(6)   AND VCV(6)   RESPECTIVELY.
001061: 27,2644           25535                           STOVL    RCV
001062: 27,2645           01511                                    VRECT                                 #  NOW GO TO 'RECTIFY +13D' TO
001063: 27,2646           77624                           CALL                                           #  STORE VRECT INTO VCV  AND ZERO OUT
001064: 27,2647           23361                                    RECTIFY    +13D                       #  TDELTAV(6),TNUV(6),TC(2) AND XKEP(2)
001065: 27,2650           51535                           SLOAD    ABS                                   #  COMPARE ABSOLUTE VALUE OF 'UPSVFLAG'
001066: 27,2651           01502                                    UPSVFLAG                              #  TO 'UPDATE MOON STATE VECTOR CODE'
001067: 27,2652           53025                           DSU      BZE                                   #  TO DETERMINE WHETHER THE STATE VECTOR TO
001068: 27,2653           16711                                    UPMNSVCD                              #  BE UPDATED IS IN THE EARTH OR LUNAR
001069: 27,2654           56661                                    INTWAKEM                              #  SPHERE OF INFLUENCE.........
001070: 27,2655           43174                           AXT,2    CLRGO                                 #  EARTH SPHERE OF INFLUENCE.
001071: 27,2656           00000                           DEC      0          B-14
001072: 27,2657           00223                                    MOONFLAG


001074: 27,2660           56664                                    INTWAKEC
001075: 27,2661           43174        INTWAKEM           AXT,2    SET                                   #  LUNAR SPHERE OF INFLUENCE.
001076: 27,2662           00002                           DEC      2          B-14
001077: 27,2663           00063                                    MOONFLAG
001078: 27,2664           50135        INTWAKEC           SLOAD    BMN                                   #  COMMON CODING AFTER X2 INITIALIZED AND
001079:                                                                                                  #  MOONFLAG SET(OR CLEARED).
001080: 27,2665           01502                                    UPSVFLAG                              #  IS THIS A REQUEST FOR A LEM OR CSM
001081: 27,2666           56674                                    INTWAKLM                              #   STATE VECTOR UPDATE......
001082: 27,2667           77624                           CALL                                           #  UPDATE CSM STATE VECTOR
001083: 27,2670           26636                                    ATOPCSM
001084:
001085: 27,2671           52014                           CLEAR    GOTO
001086: 27,2672           01671                                    ORBWFLAG
001087: 27,2673           56676                                    INTWAKEX
001088:
001089: 27,2674           77624        INTWAKLM           CALL                                           #  UPDATE  LM STATE VECTOR
001090: 27,2675           26711                                    ATOPLEM
001091:
001092: 27,2676           77614        INTWAKEX           CLEAR
001093: 27,2677           02676                                    RENDWFLG
001094:
001095: 27,2700           45131        INTWAKUP           SSP      CALL                                  #  REMOVE :UPDATE STATE VECTOR INDICATOR:
001096: 27,2701           01502                                    UPSVFLAG
001097: 27,2702           00000                                    0
001098: 27,2703           27404                                    INTWAKE0                              #  RELEASE :GRAB: OF ORBIT INTEG
001099: 27,2704           77776                           EXIT
001100:
001101: 27,2705           05301                           TC       PHASCHNG
001102: 27,2706           04026                           OCT      04026
001103: 27,2707           00330                           TC       INTWAKUQ
001104:
001105: 27,2710           00002        UPMNSVCD           OCT      2
001106: 27,2711           00000                           OCT      0
001107:
001108:
001109: 27,2712           77420        GRP2PC             STQ      EXIT
001110: 27,2713           03536                                    GRP2SVQ
001111: 27,2714           05301                           TC       PHASCHNG
001112: 27,2715           04022                           OCT      04022
001113: 27,2716           06006                           TC       INTPRET
001114: 27,2717           77650                           GOTO
001115: 27,2720           03536                                    GRP2SVQ

End of include-file INTEGRATION_INITIALIZATION.agc.  Parent file is MAIN.agc


