
Source Code


000002:                                                                                                  #  Copyright:    Public domain.
000003:                                                                                                  #  Filename:     INTERPRETIVE_CONSTANTS.agc
000004:                                                                                                  #  Purpose:      Part of the source code for Colossus build 237.
000005:                                                                                                  #                This is for the Command Module's (CM) Apollo Guidance
000006:                                                                                                  #                Computer (AGC), we believe for Apollo 8.
000007:                                                                                                  #  Assembler:    yaYUL
000008:                                                                                                  #  Contact:      Jim Lawton <jim DOT lawton AT gmail DOT com>
000009:                                                                                                  #  Website:      www.ibiblio.org/apollo/index.html
000010:                                                                                                  #  Page Scans:   www.ibiblio.org/apollo/ScansForConversion/Colossus237/
000011:                                                                                                  #  Mod history:  2011-03-12 JL   Adapted from corresponding Colossus 249 file.
000012:


000014: 26,2000                                           SETLOC   INTPRET1
000015: 26,2000                                           BANK
000016:
000017: 26,3321                                           COUNT    23/ICONS
000018:
000019: 26,3321           10000 00000  DP1/4TH            2DEC     .25
000020: 26,3323           00000 00000  UNITZ              2DEC     0          B-28
000021: 26,3325           00000 00000  UNITY              2DEC     0          B-28
000022: 26,3327           20000 00000  UNITX              2DEC     .5
000023: 26,3331           00000 00000  ZEROVECS           2DEC     0          B-28
000024: 26,3333           00000 00000                     2DEC     0          B-28
000025: 26,3335           00000 00000                     2DEC     0          B-28
000026:
000027: 26,3337  26,3327               DPHALF             =        UNITX
000028: 26,3337           37777        DPPOSMAX           OCT      37777
000029: 26,3340           37777                           OCT      37777
000030:


000032:                                                                                                  #  INTERPRETIVE CONSTANTS IN THE OTHER HALF-MEMORY
000033:
000034: 04,2000                                           SETLOC   INTPRET2
000035: 04,2000                                           BANK
000036:
000037: 04,3444                                           COUNT    14/ICONS
000038:
000039: 04,3444           00000 00000  ZUNIT              2DEC     0          B-28
000040: 04,3446           00000 00000  YUNIT              2DEC     0          B-28
000041: 04,3450           20000 00000  XUNIT              2DEC     .5
000042: 04,3452           00000 00000  ZEROVEC            2DEC     0          B-28
000043: 04,3454           00000 00000                     2DEC     0          B-28
000044: 04,3456           00000 00000                     2DEC     0          B-28
000045:
000046: 04,3460           77777                           OCT      77777                                 #  -0,-6,-12 MUST REMAIN IN THIS ORDER
000047: 04,3461           77771        DEC-6              DEC      -6         B-14
000048: 04,3462           77763        DEC-12             DEC      -12        B-14
000049: 04,3463           37777 37777  LODPMAX            2OCT     3777737777                            #  THESE TWO CONSTANTS MUST REMAIN
000050: 04,3465           37777 37777  LODPMAX1           2OCT     3777737777                            #  ADJACENT AND THE SAME FOR INTEGRATION
000051: 04,3467  04,3452               ZERODP             =        ZEROVEC
000052: 04,3467  04,3450               HALFDP             =        XUNIT

End of include-file INTERPRETIVE_CONSTANTS.agc.  Parent file is MAIN.agc


