
Source Code


000002:                                                                                                  ## Copyright:   Public domain.
000003:                                                                                                  ## Filename:    JET_SELECTION_LOGIC.agc
000004:                                                                                                  ## Purpose:     Part of the source code for Colossus build 237.
000005:                                                                                                  ##              This is for the Command Module's (CM) Apollo Guidance
000006:                                                                                                  ##              Computer (AGC), for Apollo 8.
000007:                                                                                                  ## Assembler:   yaYUL
000008:                                                                                                  ## Contact:     Jim Lawton <jim DOT lawton AT gmail DOT com>
000009:                                                                                                  ## Website:     www.ibiblio.org/apollo/index.html
000010:                                                                                                  ## Page Scans:  www.ibiblio.org/apollo/ScansForConversion/Colossus237/
000011:                                                                                                  ## Mod history: 2011-04-06 JL   Adapted from corresponding Colossus 249 file.
000012:                                                                                                  ##              2017-01-01 RSB  Proofed comment text using octopus/ProoferComments,
000013:                                                                                                  ##                              and fixed errors found.
000014:                                                                                                  ##              2017-01-15 RSB  Fixed comment-text errors identified by diff'ing
000015:                                                                                                  ##                              against Colossus 249.
000016:


000018: 21,3751                                           BANK     21
000019: 17,2000                                           SETLOC   DAPS4
000020: 17,2000                                           BANK
000021:
000022: 17,2601                                           COUNT    17/DAPJS
000023:
000024: 17,2601  E6,1510                                  EBANK=   KMPAC
000025:                                                                                                  #  EXAMINE CHANNEL 31 FOR TRANSLATION COMMANDS
000026:
000027: 17,2601           22016        JETSLECT           LXCH     BANKRUPT
000028: 17,2602           32663                           CAF      DELTATT3                              #  = 60 MS   RESET TO EXECUTE PHASE1
000029: 17,2603           61634                           AD       T5TIME
000030: 17,2604           54030                           TS       TIME5
000031: 17,2605           12610                           TCF      +3
000032: 17,2606           32664                           CAF      DELATT20                              #  = 20 MS   TO ASSURE A T5RUPT
000033: 17,2607           54030                           TS       TIME5
000034: 17,2610           33342                           CAF      =14MS                                 #  RESET T6 TO INITIALIZE THE JET CHANNELS
000035: 17,2611           54031                           TS       TIME6                                 #  IN 14 MS
000036: 17,2612           34674                           CAF      NEGMAX
000037: 17,2613           00006                           EXTEND
000038: 17,2614           05013                           WOR      CHAN13
000039: 17,2615           00006                           EXTEND
000040: 17,2616           22012                           QXCH     QRUPT
000041: 17,2617           32662                           CAF      XLNMASK                               #  = 7700 OCT
000042: 17,2620           00006                           EXTEND                                         #  EXAMINE THE TRANSLATION
000043: 17,2621           06031                           RXOR     CHAN31                                #  HAND CONTROLLER
000044: 17,2622           72662                           MASK     XLNMASK
000045: 17,2623           00006                           EXTEND
000046: 17,2624           12665                           BZF      NOXLNCMD
000047: 17,2625           55502                           TS       T5TEMP
000048: 17,2626           00006                           EXTEND
000049: 17,2627           74702                           MP       BIT9
000050: 17,2630           76214                           MASK     THREE
000051: 17,2631           55513                           TS       XNDX1                                 #  AC QUAD  X-TRANSLATION INDEX
000052: 17,2632           55514                           TS       XNDX2                                 #  BD QUAD  X-TRANSLATION INDEX
000053: 17,2633           31502                           CA       T5TEMP
000054: 17,2634           00006                           EXTEND                                         #  1 = + XLN
000055: 17,2635           74704                           MP       BIT7                                  #  2 = - XLN
000056: 17,2636           76214                           MASK     THREE                                 #  3 = NO XLN
000057: 17,2637           55515                           TS       YNDX                                  #  Y-TRANSLATION INDEX
000058:
000059: 17,2640           31502                           CA       T5TEMP
000060: 17,2641           00006                           EXTEND
000061: 17,2642           74706                           MP       BIT5
000062: 17,2643           76214                           MASK     THREE
000063: 17,2644           55516                           TS       ZNDX                                  #  Z-TRANSLATION INDEX
000064:
000065: 17,2645           31466                           CA       DAPDATR1                              #  SET ATTKALMN TO PICK UP FILTER GAINS FOR
000066: 17,2646           74675                           MASK     BIT14                                 #  TRANSLATIONS.
000067: 17,2647           00006                           EXTEND                                         #  CHECK DAPDATR1 BIT 14 FOR LEM ATTACHED.


000069: 17,2650           12653                           BZF      NOLEM
000070: 17,2651           46214                           CS       THREE                                 #  IF LEM IS ON, SET ATTKALMN = -3
000071: 17,2652           12654                           TCF      +2
000072: 17,2653           44711        NOLEM              CS       TWO                                   #  IF LEM IS OFF, SET ATTKALMN = -2.
000073: 17,2654           55617                           TS       ATTKALMN
000074: 17,2655           11631                           CCS      XTRANS                                #  (+, -1, 0)
000075: 17,2656           55513                           TS       XNDX1                                 #  USING BD-X  ZERO XNDX1
000076: 17,2657           12671                           TCF      PWORD
000077: 17,2660           55514                           TS       XNDX2                                 #  USING AC-X  ZERO XNDX2
000078: 17,2661           12671                           TCF      PWORD
000079: 17,2662           07700        XLNMASK            OCT      7700
000080:
000081:
000082: 17,2663           37772        DELTATT3           DEC      16378      B-14                       #  = 60 MS
000083: 17,2664           37776        DELATT20           DEC      16382      B-14                       #  = 20 MS
000084:
000085: 17,2665           55513        NOXLNCMD           TS       XNDX1                                 #  ZERO ALL REQUESTS FOR TRANSLATION
000086: 17,2666           55514                           TS       XNDX2
000087: 17,2667           55515                           TS       YNDX
000088: 17,2670           55516                           TS       ZNDX
000089:
000090:                                                                                                  #  PITCH COMMANDS  TIMING(NO X-TRANS, NO QUAD FAILS) 32MCT
000091:
000092: 17,2671           11562        PWORD              CCS      TAU1                                  #  CHECK FOR PITCH COMMANDS
000093: 17,2672           34712                           CAF      ONE
000094: 17,2673           12675                           TCF      +2                                    #   0 = NO PITCH
000095: 17,2674           34711                           CAF      TWO                                   #  +1 =  + PITCH
000096: 17,2675           55520                           TS       PINDEX                                #  +2 =  - PITCH
000097:
000098: 17,2676           11626                           CCS      RACFAIL                               #  FLAG FOR REAL AC QUAD FAILURES
000099: 17,2677           12703                           TCF      AFAILP
000100: 17,2700           12713                           TCF      TABPCOM                               #  0 = NO REAL AC FAILURES
000101: 17,2701           12705                           TCF      CFAILP                                #  + = A QUAD FAILED
000102: 17,2702           12713                           TCF      TABPCOM                               #  - = C QUAD FAILED
000103:                                                                                                  #                                          IF FAILURES ARE PRESENT IGNORE
000104:                                                                                                  #                                          X-TRANSLATIONS ON THIS AXIS
000105:
000106: 17,2703           34334        AFAILP             CAF      NINE                                  #  IF FAILURE IS PRESENT 1JET OPERATION
000107: 17,2704           12715                           TCF      TABPCOM    +2                         #  IS ASSUMED. IGNORE X-TRANSLATION
000108: 17,2705           35660        CFAILP             CAF      TWELVE
000109: 17,2706           12715                           TCF      TABPCOM    +2
000110:
000111: 17,2707           00000        XLNNDX             DEC      0          B-14                       #  INDECES FOR TRANSLATION COMMANDS
000112: 17,2710           00003                           DEC      3          B-14                       #  FOR USE IN TABLE LOOK UP
000113: 17,2711           00006                           DEC      6          B-14
000114: 17,2712           00000                           DEC      0          B-14
000115:
000116: 17,2713     5660               TWELVE             =        OCT14
000117:                                                                                                  #  TABLE LOOK UP FOR PITCH COMMANDS WITH AND WITHOUT X-TRANSLATION AND AC QUAD FAILURES PRESENT.
000118:                                                                                                  #  BITS 9, 10 CONTAIN THE NUMBER OF PITCH JETS USED TO PERFORM THE PITCH ROTATION


000120: 17,2713           51513        TABPCOM            INDEX    XNDX1
000121: 17,2714           32707                           CA       XLNNDX
000122: 17,2715           61520                           AD       PINDEX
000123: 17,2716           50000                           INDEX    A
000124: 17,2717           32743                           CA       PYTABLE
000125: 17,2720           72762                           MASK     PJETS                                 #  =1417 OCT
000126: 17,2721           55453                           TS       PWORD1
000127: 17,2722           00006                           EXTEND
000128: 17,2723           74704                           MP       BIT7
000129: 17,2724           55523                           TS       NPJETS                                #  = NO. OF PITCH JETS
000130:
000131:                                                                                                  #  YAW JET COMMANDS  TIMING(NO X-TRANS, NO QUAD FAILURES)  32MCT
000132:
000133: 17,2725           11563        YWORD              CCS      TAU2                                  #  CHECK FOR YAW COMMANDS
000134: 17,2726           34712                           CAF      ONE
000135: 17,2727           12731                           TCF      +2
000136: 17,2730           34711                           CAF      TWO
000137: 17,2731           55521                           TS       YINDEX                                #  YAW ROTATION INDEX
000138:
000139: 17,2732           11627                           CCS      RBDFAIL                               #  FLAG FOR B OR D QUAD FAILURES
000140: 17,2733           12737                           TCF      BFAILY                                #  0  = NO BD FAILURE
000141: 17,2734           12764                           TCF      TABYCOM                               #  +  = B QUAD FAILED
000142: 17,2735           12741                           TCF      DFAILY                                #  -  = D QUAD FAILED
000143: 17,2736           12764                           TCF      TABYCOM
000144:
000145: 17,2737           34334        BFAILY             CAF      NINE
000146: 17,2740           12766                           TCF      TABYCOM    +2
000147: 17,2741           35660        DFAILY             CAF      TWELVE
000148: 17,2742           12766                           TCF      TABYCOM    +2
000149:


000151:                                                                                                  #  TABLE FOR PITCH(YAW) COMMANDS
000152:                                                                                                  #  BITS 4,3,2,1 = PITCH, X-TRANSLATION JETS SELECTED
000153:                                                                                                  #  BITS     10,9 = NO. PITCH JETS USED TO PERFORM ROTATION
000154:                                                                                                  #  BITS 8,7,6,5 = YAW, X-TRANSLATION JETS SELECTED
000155:                                                                                                  #  BITS 12,11 : NO. YAW JETS USED TO PERFORM ROTATION
000156:
000157:                                                                                                  #                                          ROT  TRANS  QUAD  BIAS
000158: 17,2743           00000        PYTABLE            OCT      0                                     #   0     0            0
000159: 17,2744           05125                           OCT      5125                                  #   +     0            0
000160: 17,2745           05252                           OCT      5252                                  #   -     0            0
000161: 17,2746           00231                           OCT      0231                                  #   0     +            3
000162: 17,2747           02421                           OCT      2421                                  #   +     +            3
000163: 17,2750           02610                           OCT      2610                                  #   -     +            3
000164: 17,2751           00146                           OCT      0146                                  #   0     -            6
000165: 17,2752           02504                           OCT      2504                                  #   +     -            6
000166: 17,2753           02442                           OCT      2442                                  #   -     -            6
000167: 17,2754           00000                           OCT      0                                     #   0          A(B)    9
000168: 17,2755           02421                           OCT      2421                                  #   +          A(B)    9
000169: 17,2756           02442                           OCT      2442                                  #   -          A(B)    9
000170: 17,2757           00000                           OCT      0                                     #   0          C(D)    12
000171: 17,2760           02504                           OCT      2504                                  #   +          C(D)    12
000172: 17,2761           02610                           OCT      2610                                  #   -          C(D)    12
000173:
000174:                                                                                                  #  MASKS FOR PITCH AND YAW COMMANDS
000175:
000176: 17,2762           01417        PJETS              OCT      1417
000177: 17,2763           06360        YJETS              OCT      6360
000178:
000179:                                                                                                  #  TABLE LOOK UP FOR YAW COMMANDS WITH AND WITHOUT X-TRANSLATION AND AC QUAD FAILURES PRESENT
000180:                                                                                                  #  BITS 11, 12 CONTAIN THE NUMBER OF YAW JETS USED TO PERFORM THE YAW ROTATION
000181:
000182: 17,2764           51514        TABYCOM            INDEX    XNDX2
000183: 17,2765           32707                           CA       XLNNDX
000184: 17,2766           61521                           AD       YINDEX
000185: 17,2767           50000                           INDEX    A
000186: 17,2770           32743                           CA       PYTABLE
000187: 17,2771           72763                           MASK     YJETS                                 #  = 6360 OCT
000188: 17,2772           55455                           TS       YWORD1
000189: 17,2773           00006                           EXTEND
000190: 17,2774           74706                           MP       BIT5
000191: 17,2775           55524                           TS       NYJETS                                #  NO. OF YAW JETS USED TO PERFORM ROTATION
000192:


000194:                                                                                                  #  ROLL COMMANDS  TIMING(NO Y,Z TRANS, NO QUAD FAILS)   45MCT
000195:
000196: 17,2776           11561        RWORD              CCS      TAU                                   #  CHECK FOR ROLL COMMANDS
000197: 17,2777           34712                           CAF      ONE
000198: 17,3000           13002                           TCF      +2
000199: 17,3001           34711                           CAF      TWO
000200: 17,3002           55517                           TS       RINDEX
000201:
000202: 17,3003           11630                           CCS      ACORBD                                #  FLAG FOR AC OR BD QUAD SELECTION FOR
000203: 17,3004           13075                           TCF      BDROLL                                #  ROLL COMMANDS
000204: 17,3005           13075                           TCF      BDROLL                                #  +, +0 = BD ROLL
000205: 17,3006           13007                           TCF      +1                                    #  -, -0 = AC ROLL
000206:
000207: 17,3007           11626        ACROLL             CCS      RACFAIL                               #  CHECK FOR REAL FAILURES
000208: 17,3010           13014                           TCF      RAFAIL                                #  ON AC QUADS
000209: 17,3011           13024                           TCF      RXLNS
000210: 17,3012           13016                           TCF      RCFAIL
000211: 17,3013           13024                           TCF      RXLNS
000212:
000213: 17,3014           34334        RAFAIL             CAF      NINE                                  #  QUAD FAILURE  WILL GET
000214: 17,3015           13026                           TCF      TABRCOM                               #  1-JET OPERATION
000215: 17,3016           35660        RCFAIL             CAF      TWELVE
000216: 17,3017           13026                           TCF      TABRCOM
000217:
000218: 17,3020           00000        XLN1NDX            DEC      0          B-14
000219: 17,3021           00001                           DEC      1          B-14                       #  INDECES FOR TRANSLATION
000220: 17,3022           00002                           DEC      2          B-14
000221: 17,3023           00000                           DEC      0          B-14
000222:
000223:                                                                                                  #  TABLE LOOK UP FOR AC-ROLL COMMANDS WITH AND WITHOUT Y-TRANSLATION AND ACQUAD FAILURES PRESENT
000224:                                                                                                  #  BITS 9,10,11 CONTAIN THE MAGNITUDE AND DIRECTION OF THE ROLL
000225:
000226: 17,3024           51515        RXLNS              INDEX    YNDX                                  #  NO AC QUAD FAILURES
000227: 17,3025           32707                           CA       XLNNDX                                #  INCLUDE +,-,0, Y-TRANSLATION
000228: 17,3026           61517        TABRCOM            AD       RINDEX
000229: 17,3027           50000                           INDEX    A
000230: 17,3030           33157                           CA       RTABLE
000231: 17,3031           73176                           MASK     ACRJETS                               #  = 3760 OCT
000232: 17,3032           55451                           TS       RWORD1
000233:
000234:                                                                                                  #  CHECK FOR Z-TRANSLATIONS ON BD
000235:
000236: 17,3033           31516        BDZCHECK           CA       ZNDX
000237: 17,3034           00006                           EXTEND
000238: 17,3035           63067                           BZMF     NOBDZ                                 #  NO Z-TRANSLATION
000239:


000241:                                                                                                  #           TABLE LOOK UP FOR BD Z-TRANSLATION WITH AND WITHOUT REAL BD QUAD FAILURES.  Z-TRANSLATION WILL BE POSS-
000242:                                                                                                  #  IBLE AS LONG AS ROLL COMMANDS CAN BE SATISFIED WITH THE AC ROLL JETS.  CRITERION.. IF THE RESULTANT NET ROLL
000243:                                                                                                  #  COMMANDS = 0 (WITH Z-TRANSLATION) AND IF TAU = 0, THEN INCLUDE THE BD Z-TRANSLATION COMMANDS. IF THE RESULTANT
000244:                                                                                                  #  ROLL COMMAND = 0, AND IF TAU NZ, THEN IGNORE THE BD Z-TRANSLATION
000245:
000246: 17,3036           11627                           CCS      RBDFAIL
000247: 17,3037           36214                           CAF      THREE
000248: 17,3040           13042                           TCF      +2
000249: 17,3041           36211                           CAF      SIX
000250: 17,3042           51516                           INDEX    ZNDX
000251: 17,3043           63020                           AD       XLN1NDX
000252: 17,3044           50000                           INDEX    A
000253: 17,3045           33200                           CA       YZTABLE
000254: 17,3046           73211                           MASK     BDZJETS                               #  = 3417 OCT
000255: 17,3047           61451                           AD       RWORD1                                #  ADD TO ROLL COMMANDS
000256: 17,3050           55502                           TS       T5TEMP                                #  IF POSSIBLE.  MUST CHECK TAU FIRST
000257:
000258: 17,3051           00006                           EXTEND
000259: 17,3052           74704                           MP       BIT7                                  #  DETERMINE THE NET ROLL COMMAND WITH
000260: 17,3053           66061                           AD       =-4                                   #  Z-TRANSLATION ADDED ON
000261: 17,3054           55522                           TS       NRJETS                                #  NET NO. OF +,- ROLL JETS ON
000262: 17,3055           00006                           EXTEND
000263: 17,3056           13062                           BZF      TAUCHECK
000264:
000265: 17,3057           31502        ACRBDZ             CA       T5TEMP                                #  Z-TRANSLATION ACCEPTED EVEN THO WE MAY
000266: 17,3060           55451                           TS       RWORD1                                #  HAVE INTRODUCED AN UNDESIREABLE ROLL
000267: 17,3061           13323                           TCF      ROLLTIME                              #  BRANCH TO JET ON-TIME CALCULATIONS
000268:
000269: 17,3062           11561        TAUCHECK           CCS      TAU
000270: 17,3063           13067                           TCF      NOBDZ
000271: 17,3064           13057                           TCF      ACRBDZ
000272: 17,3065           13067                           TCF      NOBDZ
000273: 17,3066           13057                           TCF      ACRBDZ
000274:
000275: 17,3067           31451        NOBDZ              CA       RWORD1                                #  Z-TRANSLATION NOT ACCEPTED
000276: 17,3070           00006                           EXTEND
000277: 17,3071           74704                           MP       BIT7
000278: 17,3072           67715                           AD       =-2
000279: 17,3073           55522                           TS       NRJETS
000280: 17,3074           13323                           TCF      ROLLTIME                              #  BRANCH TO JET ON-TIME CALCULATION
000281:


000283:                                                                                                  #  BD QUAD SELECTION FOR ROLL COMMANDS
000284:
000285: 17,3075           11627        BDROLL             CCS      RBDFAIL
000286: 17,3076           13102                           TCF      RBFAIL
000287: 17,3077           13106                           TCF      RZXLNS
000288: 17,3100           13104                           TCF      RDFAIL
000289: 17,3101           13106                           TCF      RZXLNS
000290: 17,3102           34334        RBFAIL             CAF      NINE
000291: 17,3103           13110                           TCF      TABRZCMD
000292: 17,3104           35660        RDFAIL             CAF      TWELVE
000293: 17,3105           13110                           TCF      TABRZCMD
000294:
000295: 17,3106           51516        RZXLNS             INDEX    ZNDX                                  #  NO BD FAILURES
000296: 17,3107           32707                           CA       XLNNDX                                #  +,-,0 Z-TRANSLATION PRESENT
000297: 17,3110           61517        TABRZCMD           AD       RINDEX
000298: 17,3111           50000                           INDEX    A
000299: 17,3112           33157                           CA       RTABLE
000300: 17,3113           73177                           MASK     BDRJETS                               #  = 34017 OCT
000301: 17,3114           55451                           TS       RWORD1
000302:
000303: 17,3115           31515        ACYCHECK           CA       YNDX                                  #  ANY Y-TRANSLATION
000304: 17,3116           00006                           EXTEND
000305: 17,3117           13151                           BZF      NOACY                                 #  NO Y-TRANSLATION
000306: 17,3120           11626                           CCS      RACFAIL
000307: 17,3121           36214                           CAF      THREE
000308: 17,3122           13124                           TCF      +2
000309: 17,3123           36211                           CAF      SIX
000310: 17,3124           51515                           INDEX    YNDX
000311: 17,3125           63020                           AD       XLN1NDX
000312: 17,3126           50000                           INDEX    A
000313: 17,3127           33200                           CA       YZTABLE
000314: 17,3130           73212                           MASK     ACYJETS                               #  = 34360 OCT
000315: 17,3131           61451                           AD       RWORD1
000316: 17,3132           55502                           TS       T5TEMP
000317: 17,3133           00006                           EXTEND                                         #  FOR EXPLANATION SEE CODING ON RTABLE
000318: 17,3134           74707                           MP       BIT4
000319: 17,3135           66061                           AD       =-4
000320: 17,3136           55522                           TS       NRJETS                                #  NO. OF NET ROLL JETS
000321: 17,3137           00006                           EXTEND
000322: 17,3140           13144                           BZF      TAUCHCK                               #  IF NRJETS = 0
000323:
000324: 17,3141           31502        BDRACZ             CA       T5TEMP                                #  Y-TRANSLATION ACCEPTED
000325: 17,3142           55451                           TS       RWORD1
000326: 17,3143           13323                           TCF      ROLLTIME                              #  BRANCH TO JET ON-TIME CALCULATIONS
000327:
000328: 17,3144           11561        TAUCHCK            CCS      TAU
000329: 17,3145           13151                           TCF      NOACY
000330: 17,3146           13141                           TCF      BDRACZ
000331: 17,3147           13151                           TCF      NOACY
000332: 17,3150           13141                           TCF      BDRACZ


000334: 17,3151           31451        NOACY              CA       RWORD1                                #  Y-TRANSLATION NOT ACCEPTED
000335: 17,3152           00006                           EXTEND
000336: 17,3153           74707                           MP       BIT4
000337: 17,3154           67715                           AD       =-2
000338: 17,3155           55522                           TS       NRJETS
000339: 17,3156           13323                           TCF      ROLLTIME
000340:


000342:                                                                                                  #           TABLE FOR ROLL, Y AND Z-TRANSLATION COMMANDS
000343:
000344:                                                                                                  #     EITHER AC OR BD ROLL MAY BE SELECTED. IF AC ROLL IS SELECTED, Y-TRANSLATIONS MAY BE SATISFIED SIMULTANEOUSLY
000345:                                                                                                  #  PROVIDED THAT THERE ARE NO AC QUAD FAILURES. IF THERE ARE AC FAILURES, Y-TRANSLATION COMMANDS WILL BE IGNORED,
000346:                                                                                                  #  IN WHICH CASE THE ASTRONAUT SHOULD SWITCH TO BD ROLL.
000347:                                                                                                  #     IF BDROLL IS SELECTED, Z-TRANSLATIONS MAY BE SATISFIED SIMULTANEOUSLY PROVIDED THAT THERE ARE NO BD QUAD
000348:                                                                                                  #  FAILURES. IF THERE ARE BD FAILURES, Z-TRANSLATION COMMANDS WILL BE IGNORED, IN WHICH CASE THE ASTRONAUT SHOULD
000349:                                                                                                  #  SWITCH TO AC ROLL.
000350:                                                                                                  #     NOTE THAT IF ONE QUAD FAILS (E.G. B FAILED), Z-TRANSLATION IS STILL POSSIBLE AND THAT THE UNDESIREABLE ROLL
000351:                                                                                                  #  INTRODUCED BY THIS TRANSLATION WILL BE COMPENSATED BY THE TWO AC ROLL JETS ACTUATED BY THE AUTOPILOT LOGIC.
000352:
000353:                                                                                                  #           WORD MAKE UP....RTABLE
000354:
000355:                                                                                                  #     TWO WORDS, CORRESPONDING TO AC OR BD ROLL SELECTION, HAVE BEEN COMBINED INTO ONE TABLE.  THE WORD CORRESPOND-
000356:                                                                                                  #  ING TO AC ROLL HAS THE FOLLOWING INTERPRETATION..
000357:                                                                                                  #     BITS 9,10,11 ARE CODED TO GIVE THE NET ROLL TORQUE FOR THE WORD SELECTED. THE CODING IS..
000358:                                                                                                  #                   BIT NO.  11 10 9   NO. OF ROLL JETS
000359:
000360:                                                                                                  #                             0 0 0          -2
000361:                                                                                                  #                             0 0 1          -1
000362:                                                                                                  #                             0 1 0           0
000363:                                                                                                  #                             0 1 1          +1
000364:                                                                                                  #                             1 0 0          +2
000365:
000366:
000367:                                                                                                  #     THIS WORD MAY THEN BE ADDED TO THE WORD SELECTED FROM THE YZ-TRANSLATION TABLE, WHICH HAS THE SAME TYPE OF
000368:                                                                                                  #  CODING AS ABOVE, AND THE NET ROLL DETERMINED BY SHIFTING THE RESULTANT WORD RIGHT 8 PLACES AND SUBTRACTING FOUR.
000369:
000370:                                                                                                  #     THE WORD CORRESPONDING TO BD ROLL HAS A SIMILIAR INTERPRETATION, EXCEPT THAT BITS 12, 13, 14 ARE CODED
000371:                                                                                                  #  (AS ABOVE) TO GIVE THE NET ROLL TORQUE.
000372:
000373:
000374:                                                                                                  #                                          ROLL   TRANS   QUADFAIL   BIAS
000375:
000376: 17,3157           11000        RTABLE             OCT      11000                                 #   0                         0
000377: 17,3160           22125                           OCT      22125                                 #   +                         0
000378: 17,3161           00252                           OCT      00252                                 #   -                         0
000379: 17,3162           11231                           OCT      11231                                 #   0     +Y(+Z)              3
000380: 17,3163           15421                           OCT      15421                                 #   +     +Y(+Z)              3
000381: 17,3164           04610                           OCT      04610                                 #   -     +Y(+Z)              3
000382: 17,3165           11146                           OCT      11146                                 #   0     -Y(-Z)              6
000383: 17,3166           15504                           OCT      15504                                 #   +     -Y(-Z)              6
000384: 17,3167           04442                           OCT      04442                                 #   -     -Y(-Z)              6
000385: 17,3170           11000                           OCT      11000                                 #   0               A(B)      9
000386: 17,3171           15504                           OCT      15504                                 #   +               A(B)      9
000387: 17,3172           04610                           OCT      04610                                 #   -               A(B)      9
000388: 17,3173           11000                           OCT      11000                                 #   0               C(D)     12
000389: 17,3174           15421                           OCT      15421                                 #   +               C(D)     12
000390: 17,3175           04442                           OCT      04442                                 #   -               C(D)     12
000391:


000393:                                                                                                  #           RTABLE MASKS -
000394:
000395: 17,3176           03760        ACRJETS            OCT      03760
000396: 17,3177           34017        BDRJETS            OCT      34017
000397:


000399:                                                                                                  #           Y, Z TRANSLATION TABLE
000400:
000401:                                                                                                  #      ONCE AC OR BD ROLL IS SELECTED THE QUAD PAIR WHICH IS NOT BEING USED TO SATISFY THE ROLL COMMANDS MAY BE
000402:                                                                                                  #  USED TO SATISFY THE REMAINING TRANSLATION COMMANDS.  HOWEVER, WE MUST MAKE SURE THAT ROLL COMMANDS ARE SATISFIED
000403:                                                                                                  #  WHEN THEY OCCUR.  THEREFORE, THE Y-Z TRANSLATIONS FROM THIS TABLE WILL BE IGNORED IF THE NET ROLL TORQUE OF THE
000404:                                                                                                  #  COMBINED WORD IS ZERO AND THE ROLL COMMANDS ARE NON-ZERO.  THIS SITUATION WOULD OCCUR, FOR EXAMPLE, IF WE EN-
000405:                                                                                                  #  COUNTER SIMULTANEOUS +R +Y -Z COMMANDS AND  A QUAD D FAILURE WHILE USING AC FOR ROLL.
000406:                                                                                                  #     TO FACILITATE THE LOGIC, THE Y-Z TRANSLATION TABLE HAS BEEN CODED IN A MANNER SIMILIAR TO THE  ROLL TABLE
000407:                                                                                                  #  ABOVE.
000408:                                                                                                  #     BITS 9,10,11 ARE CODED TO GIVE THE NET ROLL TORQUE INCURRED BY Z-TRANSLATIONS. THE WORD SELECTED CAN THEN BE
000409:                                                                                                  #  ADDED  TO THE AC-ROLL WORD AND THE RESULTANT ROLL TORQUE DETERMINED FROM THE COMBINED WORD.  SIMILIARLY BITS
000410:                                                                                                  #  12,13,14 ARE CODED TO GIVE THE NET ROLL TORQUE INCURRED BY Y-TRANSLATIONS WHEN BD-ROLL IS SELECTED.
000411:
000412:                                                                                                  #                                          TRANSLATION    QUADFAIL    BIAS
000413:
000414: 17,3200           11000        YZTABLE            OCT      11000                                 #       0                       0
000415: 17,3201           11231                           OCT      11231                                 #    +Z(+Y)                     0
000416: 17,3202           11146                           OCT      11146                                 #    -Z(-Y)                     0
000417: 17,3203           11000                           OCT      11000                                 #       0           B(A)        3
000418: 17,3204           04610                           OCT      04610                                 #    +Z(+Y)         B(A)        3
000419: 17,3205           15504                           OCT      15504                                 #    -Z(-Y)         B(A)        3
000420: 17,3206           11000                           OCT      11000                                 #       0           D(C)        6
000421: 17,3207           15421                           OCT      15421                                 #    +Z(+Y)         D(C)        6
000422: 17,3210           04442                           OCT      04442                                 #    -Z(-Y)         D(C)        6
000423:
000424:                                                                                                  #           YZ-TABLE MASKS-
000425:
000426: 17,3211           03417        BDZJETS            OCT      03417
000427: 17,3212           34360        ACYJETS            OCT      34360
000428:
000429:                                                                                                  #           ADDITIONAL CONSTANTS
000430:
000431: 17,3213     7715               =-2                =        NEG2
000432: 17,3213     6061               =-4                =        NEG4
000433:


000435:                                                                                                  #           CALCULATION OF JET ON-TIMES
000436:
000437:                                                                                                  #     THE ROTATION COMMANDS (TAU:S), WHICH WERE DETERMINED FROM THE JET SWITCHING LOGIC ON THE BASIS OF SINGLE JET
000438:                                                                                                  #  OPERATION, MUST NOW BE UPDATED BY THE ACTUAL NUMBER OF JETS TO BE USED IN SATISFYING THESE COMMANDS.  TAU MUST
000439:                                                                                                  #  ALSO BE DECREMENTED ACCORDING TO THE EXPECTED TORQUE GENERATED BY THE NEW COMMANDS ACTING OVER THE NEXT T5 INT-
000440:                                                                                                  #  ERVAL.
000441:                                                                                                  #     IN ORDER TO MAINTAIN ACCURATE KNOWLEDGE OF VEHICLE ANGULAR RATES, WE MUST ALSO PROVIDE EXPECTED FIRING TIMES
000442:                                                                                                  #  (DFT:S, ALSO IN TERMS OF 1-JET OPERATION) FOR THE RATE FILTER.
000443:                                                                                                  #     NOTE THAT TRANSLATIONS CAN PRODUCE ROTATIONS EVEN THOUGH NO ROTATIONS WERE CALLED FOR.  NEVERTHELESS, WE MUST
000444:                                                                                                  #  UPDATE DFT.
000445:                                                                                                  #     WHEN THE ROTATIONS HAVE FINISHED, WE MUST PROVIDE CHANNEL INFORMATION TO THE T6 PROGRAM TO CONTINUE ON WITH
000446:                                                                                                  #  THE TRANSLATIONS.  THIS WILL BE DONE IN THE NEXT SECTION.  HOWEVER, TO INSURE THAT JETS ARE NOT FIRED FOR LESS
000447:                                                                                                  #  THAN A MINIMUM IMPULSE (14MS), ALL JET CHANNEL COMMANDS WILL BE HELD FIXED FROM THE START OF THE T5 PROGRAM FOR
000448:                                                                                                  #  AT LEAST 14MS UNTIL THE INITIALIZATION OF NEW COMMANDS.  MOREOVER, A 14MS ON-TIME WILL BE ADDED TO ANY ROTATIONAL
000449:                                                                                                  #  COMMANDS GENERATED BY THE MANUAL CONTROLS OR THE JET SWITCHING LOGIC, AND ALL TRANSLATION COMMANDS WILL BE
000450:                                                                                                  #  ACTIVE FOR ATLEAST ONE CYCLE OF THE T5 PROGRAM (.1SEC)
000451:
000452:                                                                                                  #           PITCH JET ON-TIME CALCULATION
000453:
000454: 17,3213           11562        PITCHTIM           CCS      TAU1
000455: 17,3214           13223                           TCF      PTAUPOS
000456: 17,3215           13217                           TCF      +2
000457: 17,3216           13221                           TCF      PTAUNEG
000458: 17,3217           55550                           TS       DFT1                                  #  NO PITCH ROTATION
000459: 17,3220           13421                           TCF      PBYPASS                               #  COMMANDS
000460:
000461: 17,3221           41523        PTAUNEG            CS       NPJETS
000462: 17,3222           55523                           TS       NPJETS
000463: 17,3223           31562        PTAUPOS            CA       TAU1
000464: 17,3224           00006                           EXTEND
000465: 17,3225           51523                           INDEX    NPJETS
000466: 17,3226           73402                           MP       NJET
000467: 17,3227           55461                           TS       BLAST1
000468: 17,3230           63335                           AD       =-.1SEC
000469: 17,3231           00006                           EXTEND
000470: 17,3232           63243                           BZMF     AD14MSP
000471: 17,3233           51523                           INDEX    NPJETS
000472: 17,3234           33336                           CA       DFTMAX                                #  THE PITCH ON-TIME IS GREATER THAN .1 SEC
000473: 17,3235           55550                           TS       DFT1
000474: 17,3236           40000                           COM
000475: 17,3237           27562                           ADS      TAU1                                  #  UPDATE TAU1
000476: 17,3240           33337                           CAF      =+.1SEC                               #  LIMIT THE LENGTH OF PITCH ROTATION
000477: 17,3241           55461                           TS       BLAST1                                #  COMMANDS TO 0.1 SEC SO THAT ONLY
000478: 17,3242           13406                           TCF      ASMBLWP                               #  X-TRANSLATIONS WILL CONTINUE ON SWITCH
000479:                                                                                                  #                                          OVER TO TVC
000480: 17,3243           41461        AD14MSP            CS       BLAST1                                #  SEE IF JET ON TIME LESS THAN
000481: 17,3244           63342                           AD       =14MS                                 #  MINIMUM IMPULSE TIME
000482: 17,3245           00006                           EXTEND
000483: 17,3246           63251                           BZMF     PBLASTOK                              #  IF SO LIMIT MINIMUM ON TIME TO 14 MS
000484: 17,3247           33342                           CAF      =14MS


000486: 17,3250           55461                           TS       BLAST1
000487: 17,3251           31461        PBLASTOK           CA       BLAST1
000488: 17,3252           00006                           EXTEND                                         #  THE PITCH COMMANDS WILL BE COMPLETED
000489: 17,3253           71523                           MP       NPJETS                                #  WITHIN THE TS-CYCLE TIME
000490: 17,3254           23550                           LXCH     DFT1                                  #  FOR USE IN UPDATING RATE FILTER
000491: 17,3255           55562                           TS       TAU1                                  #  ZERO TAU1 (ACC CONTAINS ZERO)
000492: 17,3256           13406                           TCF      ASMBLWP
000493:


000495:                                                                                                  #           YAW JET ON-TIME CALCULATION
000496:
000497: 17,3257           11563        YAWTIME            CCS      TAU2
000498: 17,3260           13267                           TCF      YTAUPOS
000499: 17,3261           13263                           TCF      +2
000500: 17,3262           13265                           TCF      YTAUNEG
000501: 17,3263           55551                           TS       DFT2                                  #  NO YAW ROTATION COMMANDS
000502: 17,3264           13565                           TCF      YBYPASS
000503:
000504: 17,3265           41524        YTAUNEG            CS       NYJETS
000505: 17,3266           55524                           TS       NYJETS
000506: 17,3267           31563        YTAUPOS            CA       TAU2
000507: 17,3270           00006                           EXTEND
000508: 17,3271           51524                           INDEX    NYJETS
000509: 17,3272           73402                           MP       NJET
000510: 17,3273           55463                           TS       BLAST2
000511: 17,3274           63335                           AD       =-.1SEC
000512: 17,3275           00006                           EXTEND
000513: 17,3276           63307                           BZMF     AD14MSY
000514: 17,3277           51524                           INDEX    NYJETS
000515: 17,3300           33336                           CA       DFTMAX                                #  YAW COMMANDS WILL LAST LONGER THAN .1SEC
000516: 17,3301           55551                           TS       DFT2
000517: 17,3302           40000                           COM
000518: 17,3303           27563                           ADS      TAU2                                  #  DECREMENT TAU2
000519: 17,3304           33337                           CAF      =+.1SEC                               #  LIMIT THE LENGTH OF YAW ROTATION COMMAND
000520: 17,3305           55463                           TS       BLAST2                                #  TO 0.1 SEC SO THAT ONLY X-TRANSLATION
000521: 17,3306           13552                           TCF      ASMBLWY                               #  WILL CONTINUE ON SWITCH OVER TO TVC
000522:
000523: 17,3307           41463        AD14MSY            CS       BLAST2                                #  SEE IF JET ON-TIME LESS THAN
000524: 17,3310           63342                           AD       =14MS                                 #  MINIMUM IMPULSE TIME
000525: 17,3311           00006                           EXTEND
000526: 17,3312           63315                           BZMF     YBLASTOK                              #  IF SO, LIMIT MINIMUM ON-TIME TO 14 MS
000527: 17,3313           33342                           CAF      =14MS
000528: 17,3314           55463                           TS       BLAST2
000529: 17,3315           31463        YBLASTOK           CA       BLAST2                                #  YAW COMMANDS WILL BE COMPLETED WITHIN
000530: 17,3316           00006                           EXTEND                                         #  THE T5CYCLE TIME
000531: 17,3317           71524                           MP       NYJETS
000532: 17,3320           23551                           LXCH     DFT2
000533: 17,3321           55563                           TS       TAU2                                  #  ZERO TAU2
000534: 17,3322           13552                           TCF      ASMBLWY
000535:


000537:                                                                                                  #           ROLL ON-TIME CALCULATION-
000538:
000539: 17,3323           11561        ROLLTIME           CCS      TAU
000540: 17,3324           13343                           TCF      RBLAST
000541: 17,3325           13327                           TCF      +2
000542: 17,3326           13343                           TCF      RBLAST
000543: 17,3327           51522                           INDEX    NRJETS
000544: 17,3330           33336                           CA       DFTMAX                                #  UPDATE DFT EVEN THO NO ROLL COMMANDS ARE
000545: 17,3331           55547                           TS       DFT                                   #  PRESENT
000546: 17,3332           13545                           TCF      RBYPASS
000547:
000548: 17,3333           77037                           DEC      -480       B-14                       #  = -.3SEC
000549: 17,3334           77277                           DEC      -320       B-14                       #  = -.2SEC
000550: 17,3335           77537        =-.1SEC            DEC      -160       B-14                       #  = -.1SEC
000551: 17,3336           00000        DFTMAX             DEC      0          B-14                       #      0
000552: 17,3337           00240        =+.1SEC            DEC      160        B-14                       #  = +.1SEC
000553: 17,3340           00500                           DEC      320        B-14                       #  = +.2SEC
000554: 17,3341           00740                           DEC      480        B-14                       #  = +.3SEC
000555: 17,3342           00027        =14MS              DEC      23         B-14                       #  =14MS
000556:
000557: 17,3343           31561        RBLAST             CA       TAU
000558: 17,3344           00006                           EXTEND
000559: 17,3345           51522                           INDEX    NRJETS
000560: 17,3346           73402                           MP       NJET
000561: 17,3347           55457                           TS       BLAST                                 #  BLAST IS AN INTERMEDIATE VARIABLE
000562:                                                                                                  #                                          USED IN DETERMINING THE JET ON-TIMES
000563: 17,3350           63335                           AD       =-.1SEC
000564: 17,3351           00006                           EXTEND
000565: 17,3352           63363                           BZMF     AD14MSR
000566: 17,3353           51522                           INDEX    NRJETS                                #  THE ROLL ROTATION WILL LAST LONGER
000567: 17,3354           33336                           CA       DFTMAX                                #  THAN THE T5 CYCLE TIME
000568: 17,3355           55547                           TS       DFT
000569: 17,3356           40000                           COM
000570: 17,3357           27561                           ADS      TAU
000571: 17,3360           33337                           CAF      =+.1SEC                               #  LIMIT THE LENGTH OF ROLL ROTATION
000572: 17,3361           55457                           TS       BLAST                                 #  COMMANDS TO 0.1 SEC SO THAT ONLY Y-Z
000573: 17,3362           13426                           TCF      ASMBLWR                               #  TRANSLATION COMMANDS CONTINUE
000574:
000575: 17,3363           41457        AD14MSR            CS       BLAST                                 #  SEE IF THE JET ON-TIME LESS THAN
000576: 17,3364           63342                           AD       =14MS                                 #  MINIMUM IMPULSE TIME
000577: 17,3365           00006                           EXTEND
000578: 17,3366           63371                           BZMF     RBLASTOK
000579: 17,3367           33342                           CAF      =14MS                                 #  IF SO, LIMIT MINIMUM ON-TIME TO 14 MS
000580: 17,3370           55457                           TS       BLAST
000581: 17,3371           31457        RBLASTOK           CA       BLAST
000582: 17,3372           00006                           EXTEND
000583: 17,3373           71522                           MP       NRJETS
000584: 17,3374           23547                           LXCH     DFT
000585: 17,3375           55561                           TS       TAU                                   #  ZERO TAU
000586: 17,3376           13426                           TCF      ASMBLWR


000588: 17,3377           65252                           DEC      -.333333                              #  = -1/3
000589: 17,3400           57777                           DEC      -.500000                              #  = -1.2
000590: 17,3401           40000                           DEC      -.999999                              #  = -1 (NEGMAX)
000591: 17,3402           00000        NJET               DEC      0          B-14
000592: 17,3403           37777                           DEC      .999999                               #  = +1 (POSMAX)
000593: 17,3404           20000                           DEC      .500000                               #  = +1/2
000594: 17,3405           12525                           DEC      .333333                               #  = +1/3
000595:


000597:                                                                                                  #     WHEN THE ROTATION COMMANDS ARE COMPLETED, IT IS NECESSARY TO REPLACE THESE COMMANDS BY NEW COMMANDS WHICH
000598:                                                                                                  #  CONTINUE ON WITH THE TRANSLATIONS IF ANY ARE PRESENT.
000599:                                                                                                  #     IN THIS SECTION THESE NEW COMMANDS ARE GENERATED AND STORED FOR REPLACEMENT OF THE CHANNEL COMMANDS WHEN THE
000600:                                                                                                  #  CORRESPONDING ROTATIONS ARE COMPLETED.
000601:
000602:                                                                                                  #  GENERATION OF THE SECOND PITCH(X-TRANS) WORD...PWORD2
000603:
000604: 17,3406           11626        ASMBLWP            CCS      RACFAIL
000605: 17,3407           13415                           TCF      FPX2                                  #  IF FAILURE ON AC IGNORE X-TRANSLATION
000606: 17,3410           13412                           TCF      +2
000607: 17,3411           13415                           TCF      FPX2
000608: 17,3412           51513                           INDEX    XNDX1
000609: 17,3413           32707                           CA       XLNNDX
000610: 17,3414           50000                           INDEX    A
000611: 17,3415           32743        FPX2               CA       PYTABLE
000612: 17,3416           72762                           MASK     PJETS
000613: 17,3417           55454                           TS       PWORD2
000614: 17,3420           13257                           TCF      YAWTIME
000615:
000616: 17,3421           31453        PBYPASS            CA       PWORD1                                #  THE T6 PROGRAM WILL LOAD PWORD2
000617: 17,3422           55454                           TS       PWORD2                                #  UPON ENTRY
000618: 17,3423           34714                           CAF      ZERO
000619: 17,3424           55461                           TS       BLAST1                                #  THERE IS NO PWORD2
000620: 17,3425           13257                           TCF      YAWTIME
000621:


000623:                                                                                                  #  GENERATION OF THE SECOND ROLL (Y,Z) WORD (RWORD2)
000624:
000625: 17,3426           11515        ASMBLWR            CCS      YNDX                                  #  CHECK FOR Y-TRANS
000626: 17,3427           13437                           TCF      ACBD2Y
000627: 17,3430           34714        NO2Y               CAF      ZERO
000628: 17,3431           55452                           TS       RWORD2
000629: 17,3432           11516                           CCS      ZNDX                                  #  CHECK FOR Z-TRANS
000630: 17,3433           13502                           TCF      ACBD2Z
000631: 17,3434           34714        NO2Z               CAF      ZERO
000632: 17,3435           27452                           ADS      RWORD2
000633: 17,3436           13213                           TCF      PITCHTIM                              #  RWORD2 ASSEMBLED
000634:
000635: 17,3437           11630        ACBD2Y             CCS      ACORBD
000636: 17,3440           13455                           TCF      AC2Y                                  #  CAN DO Y-TRANS
000637: 17,3441           13455                           TCF      AC2Y
000638: 17,3442           13443                           TCF      +1                                    #  USING AC FOR ROLL
000639: 17,3443           11626                           CCS      RACFAIL
000640: 17,3444           13430                           TCF      NO2Y                                  #  USING AC AND AC HAS FAILED
000641: 17,3445           13447                           TCF      +2
000642: 17,3446           13430                           TCF      NO2Y                                  #  DITTO
000643:
000644: 17,3447           51515                           INDEX    YNDX                                  #  NO FAILURES, CAN DO Y
000645: 17,3450           32707                           CA       XLNNDX
000646: 17,3451           50000                           INDEX    A
000647: 17,3452           33157                           CA       RTABLE
000648: 17,3453           73176                           MASK     ACRJETS
000649: 17,3454           13431                           TCF      NO2Y       +1
000650:
000651: 17,3455           11626        AC2Y               CCS      RACFAIL
000652: 17,3456           36214                           CAF      THREE
000653: 17,3457           13461                           TCF      +2
000654: 17,3460           36211                           CAF      SIX
000655: 17,3461           51515                           INDEX    YNDX
000656: 17,3462           63020                           AD       XLN1NDX
000657: 17,3463           50000                           INDEX    A
000658: 17,3464           33200                           CA       YZTABLE
000659: 17,3465           73212                           MASK     ACYJETS
000660: 17,3466           55452                           TS       RWORD2
000661: 17,3467           00006                           EXTEND
000662: 17,3470           74707                           MP       BIT4
000663: 17,3471           67715                           AD       =-2
000664: 17,3472           55522                           TS       NRJETS
000665: 17,3473           41457                           CS       BLAST
000666: 17,3474           63337                           AD       =+.1SEC
000667: 17,3475           00006                           EXTEND
000668: 17,3476           71522                           MP       NRJETS
000669: 17,3477           30001                           CA       L
000670: 17,3500           27547                           ADS      DFT
000671: 17,3501           13432                           TCF      NO2Y       +2
000672:


000674: 17,3502           11630        ACBD2Z             CCS      ACORBD
000675: 17,3503           13533                           TCF      BDF2Z                                 #  USING BD-ROLL
000676: 17,3504           13533                           TCF      BDF2Z                                 #  MUST CHECK FOR BD FAILURES
000677: 17,3505           13506                           TCF      +1
000678: 17,3506           11627                           CCS      RBDFAIL                               #  USING AC FOR ROLL, CAN DO Z-TRANS
000679: 17,3507           36214                           CAF      THREE
000680: 17,3510           13512                           TCF      +2
000681: 17,3511           36211                           CAF      SIX
000682: 17,3512           51516                           INDEX    ZNDX
000683: 17,3513           63020                           AD       XLN1NDX
000684: 17,3514           50000                           INDEX    A
000685: 17,3515           33200                           CA       YZTABLE
000686: 17,3516           73211                           MASK     BDZJETS
000687: 17,3517           27452                           ADS      RWORD2
000688: 17,3520           00006                           EXTEND
000689: 17,3521           74704                           MP       BIT7
000690: 17,3522           67715                           AD       =-2
000691: 17,3523           55522                           TS       NRJETS
000692: 17,3524           41457                           CS       BLAST
000693: 17,3525           63337                           AD       =+.1SEC
000694: 17,3526           00006                           EXTEND
000695: 17,3527           71522                           MP       NRJETS
000696: 17,3530           30001                           CA       L
000697: 17,3531           27547                           ADS      DFT
000698: 17,3532           13213                           TCF      PITCHTIM
000699:
000700: 17,3533           11627        BDF2Z              CCS      RBDFAIL
000701: 17,3534           13434                           TCF      NO2Z                                  #  USING BD-ROLL AND BD HAS FAILED
000702: 17,3535           13537                           TCF      +2
000703: 17,3536           13434                           TCF      NO2Z                                  #  DITTO
000704: 17,3537           51516                           INDEX    ZNDX
000705: 17,3540           32707                           CA       XLNNDX
000706: 17,3541           50000                           INDEX    A
000707: 17,3542           33157                           CA       RTABLE
000708: 17,3543           73177                           MASK     BDRJETS
000709: 17,3544           13435                           TCF      NO2Z       +1
000710:
000711: 17,3545           31451        RBYPASS            CA       RWORD1
000712: 17,3546           55452                           TS       RWORD2
000713: 17,3547           34714                           CAF      ZERO
000714: 17,3550           55457                           TS       BLAST
000715: 17,3551           13213                           TCF      PITCHTIM
000716:


000718:                                                                                                  #           GENERATION OF THE SECOND YAW (X-TRANS) WORD...YWORD2
000719:
000720: 17,3552           11627        ASMBLWY            CCS      RBDFAIL
000721: 17,3553           13561                           TCF      FYX2                                  #  IF FAILURE ON BD IGNORE X-TRANSLATION
000722: 17,3554           13556                           TCF      +2
000723: 17,3555           13561                           TCF      FYX2
000724: 17,3556           51514                           INDEX    XNDX2
000725: 17,3557           32707                           CA       XLNNDX
000726: 17,3560           50000                           INDEX    A
000727: 17,3561           32743        FYX2               CA       PYTABLE
000728: 17,3562           72763                           MASK     YJETS
000729: 17,3563           55456                           TS       YWORD2
000730: 17,3564           13571                           TCF      T6SETUP
000731:
000732: 17,3565           31455        YBYPASS            CA       YWORD1
000733: 17,3566           55456                           TS       YWORD2
000734: 17,3567           34714                           CAF      ZERO
000735: 17,3570           55463                           TS       BLAST2
000736:


000738:                                                                                                  #           SORT THE JET ON-TIMES
000739:
000740:                                                                                                  #     AT THIS POINT ALL THE CHANNEL COMMANDS AND JET ON-TIMES HAVE BEEN DETERMINED. IN SUMMARY THESE ARE-
000741:
000742:                                                                                                  #           RWORD1
000743:                                                                                                  #           RWORD2         BLAST
000744:
000745:                                                                                                  #           PWORD1
000746:                                                                                                  #           PWORD2         BLAST1
000747:
000748:                                                                                                  #           YWORD1
000749:                                                                                                  #           YWORD2         BLAST2
000750:
000751:                                                                                                  #      IN THIS SECTION THE JET ON-TIMES ARE SORTED AND THE SEQUENCE OF T6 INTERRUPTS IS DETERMINED.  TO FACILITATE
000752:                                                                                                  #  THE SORTING PROCESS AND THE T6 PROGRAM, THE VARIABLES BLAST, BLAST1, BLAST2, ARE RESERVED AS DOUBLE PRECISION
000753:                                                                                                  #  WORDS.  THE LOWER PART OF THESE WORDS CONTAIN A BRANCH INDEX ASSOCIATED WITH THE ROTATION AXIS OF THE HIGHER
000754:                                                                                                  #  ORDER WORD.
000755:
000756: 17,3571           34714        T6SETUP            CAF      ZERO                                  #  BRANCH INDEX FOR ROLL
000757: 17,3572           55460                           TS       BLAST      +1
000758: 17,3573           34710                           CAF      FOUR                                  #  BRANCH INDEX FOR PITCH
000759: 17,3574           55462                           TS       BLAST1     +1
000760: 17,3575           34717                           CAF      ELEVEN                                #  BRANCH INDEX FOR YAW
000761: 17,3576           55464                           TS       BLAST2     +1
000762:
000763: 17,3577           41457                           CS       BLAST
000764: 17,3600           61461                           AD       BLAST1
000765: 17,3601           00006                           EXTEND
000766: 17,3602           63626                           BZMF     DXCHT12                               #  T1 GR T2
000767: 17,3603           41461        CHECKT23           CS       BLAST1
000768: 17,3604           61463                           AD       BLAST2
000769: 17,3605           00006                           EXTEND
000770: 17,3606           63632                           BZMF     DXCHT23
000771: 17,3607           41461        CALCDT6            CS       BLAST1
000772: 17,3610           27463                           ADS      BLAST2
000773: 17,3611           41457                           CS       BLAST
000774: 17,3612           27461                           ADS      BLAST1                                #  END OF SORTING PROCEDURE
000775: 17,3613           00006                           EXTEND                                         #  RESET T5LOC TO BEGIN PHASE1
000776: 17,3614           33625                           DCA      RCS2CADR
000777: 17,3615           53313                           DXCH     T5LOC
000778: 17,3616           44712        ENDJETS            CS       BIT1                                  #  RESET BIT1 FOR INITIALIZATION OF
000779: 17,3617           71501                           MASK     RCSFLAGS                              #  T6 PROGRAM
000780: 17,3620           55501                           TS       RCSFLAGS
000781: 17,3621           44714                           CS       ZERO                                  #  RESET T5PHASE FOR PHASE1
000782: 17,3622           55465                           TS       T5PHASE
000783: 17,3623           15222                           TCF      RESUME                                #  RESUME INTERRUPTED PROGRAM
000784:
000785:
000786: 17,3624  E6,1510                                  EBANK=   KMPAC
000787: 17,3624           02106 42066  RCS2CADR           2CADR    RCSATT


000789: 17,3626           53460        DXCHT12            DXCH     BLAST
000790: 17,3627           53462                           DXCH     BLAST1
000791: 17,3630           53460                           DXCH     BLAST
000792: 17,3631           13603                           TCF      CHECKT23
000793:
000794: 17,3632           53462        DXCHT23            DXCH     BLAST1
000795: 17,3633           53464                           DXCH     BLAST2
000796: 17,3634           53462                           DXCH     BLAST1
000797: 17,3635           41457                           CS       BLAST
000798: 17,3636           61461                           AD       BLAST1
000799: 17,3637           00006                           EXTEND
000800: 17,3640           63642                           BZMF     +2
000801: 17,3641           13607                           TCF      CALCDT6
000802: 17,3642           53460                           DXCH     BLAST
000803: 17,3643           53462                           DXCH     BLAST1
000804: 17,3644           53460                           DXCH     BLAST
000805: 17,3645           13607                           TCF      CALCDT6
000806:


000808:                                                                                                  #           T6 PROGRAM AND CHANNEL SETUP
000809:
000810: 21,3751                                           BANK     21
000811: 17,2000                                           SETLOC   DAPS5
000812: 17,2000                                           BANK
000813:
000814: 17,3646           22016        T6START            LXCH     BANKRUPT
000815: 17,3647           00006                           EXTEND
000816: 17,3650           22012                           QXCH     QRUPT
000817: 17,3651           10031                           CCS      TIME6                                 #  CHECK TO SEE IF TIME6 WAS RESET
000818: 17,3652           15222                           TCF      RESUME                                #  AFTER T6RUPT OCCURED(IN T5RUPT)
000819: 17,3653           13655                           TCF      +2                                    #  IF SO WAIT FOR NEXT T6RUPT BEFORE
000820: 17,3654           15222                           TCF      RESUME                                #  TAKING ACTION
000821:
000822: 17,3655           41501                           CS       RCSFLAGS
000823: 17,3656           74712                           MASK     BIT1                                  #  IF BIT1 IS 0 RESET TO 1
000824: 17,3657           00006                           EXTEND                                         #  AND INITIALIZE CHANNEL
000825: 17,3660           13671                           BZF      T6RUPTOR
000826: 17,3661           27501                           ADS      RCSFLAGS
000827: 17,3662           31451                           CA       RWORD1
000828: 17,3663           00006                           EXTEND                                         #  INITIALIZE CHANNELS 5,6 WITH WORD1
000829: 17,3664           01006                           WRITE    CHAN6
000830: 17,3665           31453                           CA       PWORD1
000831: 17,3666           61455                           AD       YWORD1
000832: 17,3667           00006                           EXTEND
000833: 17,3670           01005                           WRITE    CHAN5
000834:
000835: 17,3671           11457        T6RUPTOR           CCS      BLAST
000836: 17,3672           13751                           TCF      ZBLAST                                #  ZERO BLAST1
000837: 17,3673           13710                           TCF      REPLACE                               #  REPLACE WORD1
000838: 17,3674           13676                           TCF      +2
000839: 17,3675           13710                           TCF      REPLACE
000840: 17,3676           11461        T6L1               CCS      BLAST1
000841: 17,3677           13754                           TCF      ZBLAST1
000842: 17,3700           13715                           TCF      REPLACE1
000843: 17,3701           13703                           TCF      +2
000844: 17,3702           13715                           TCF      REPLACE1
000845: 17,3703           11463        T6L2               CCS      BLAST2
000846: 17,3704           13757                           TCF      ZBLAST2
000847: 17,3705           13722                           TCF      REPLACE2
000848: 17,3706           15222                           TCF      RESUME
000849: 17,3707           13722                           TCF      REPLACE2
000850:
000851: 17,3710           51460        REPLACE            INDEX    BLAST      +1
000852: 17,3711           03727                           TC       REPLACER
000853: 17,3712           44712                           CS       ONE
000854: 17,3713           55457                           TS       BLAST
000855: 17,3714           13676                           TCF      T6L1
000856:
000857: 17,3715           51462        REPLACE1           INDEX    BLAST1     +1


000859: 17,3716           03727                           TC       REPLACER
000860: 17,3717           44712                           CS       ONE
000861: 17,3720           55461                           TS       BLAST1
000862: 17,3721           13703                           TCF      T6L2
000863:
000864: 17,3722           51464        REPLACE2           INDEX    BLAST2     +1
000865: 17,3723           03727                           TC       REPLACER
000866: 17,3724           44712                           CS       ONE
000867: 17,3725           55463                           TS       BLAST2
000868: 17,3726           15222                           TCF      RESUME
000869:
000870: 17,3727           31452        REPLACER           CA       RWORD2
000871: 17,3730           00006                           EXTEND                                         #  INITIALIZE CHANNELS 5,6 WITH WORD 2
000872: 17,3731           01006                           WRITE    CHAN6
000873: 17,3732           00002                           TC       Q
000874:
000875: 17,3733           32763        REPLACEP           CA       YJETS
000876: 17,3734           00006                           EXTEND
000877: 17,3735           02005                           RAND     CHAN5
000878: 17,3736           61454                           AD       PWORD2
000879: 17,3737           00006                           EXTEND
000880: 17,3740           01005                           WRITE    CHAN5
000881: 17,3741           00002                           TC       Q
000882:
000883: 17,3742           32762        REPLACEY           CA       PJETS
000884: 17,3743           00006                           EXTEND
000885: 17,3744           02005                           RAND     CHAN5
000886: 17,3745           61456                           AD       YWORD2
000887: 17,3746           00006                           EXTEND
000888: 17,3747           01005                           WRITE    CHAN5
000889: 17,3750           00002                           TC       Q
000890:
000891: 17,3751           34714        ZBLAST             CAF      ZERO
000892: 17,3752           57457                           XCH      BLAST
000893: 17,3753           13761                           TCF      ENABT6
000894: 17,3754           34714        ZBLAST1            CAF      ZERO
000895: 17,3755           57461                           XCH      BLAST1
000896: 17,3756           13761                           TCF      ENABT6
000897: 17,3757           34714        ZBLAST2            CAF      ZERO
000898: 17,3760           57463                           XCH      BLAST2
000899: 17,3761           54031        ENABT6             TS       TIME6
000900: 17,3762           34674                           CAF      NEGMAX
000901: 17,3763           00006                           EXTEND
000902: 17,3764           05013                           WOR      CHAN13                                #  ENABLE T6RUPT
000903: 17,3765           15222                           TCF      RESUME
000904:
000905:                                                                                                  #                  END OF T6 INTERRUPT
000906:
000907: 17,3766                        ENDSLECT           EQUALS

End of include-file JET_SELECTION_LOGIC.agc.  Parent file is MAIN.agc


