
Source Code


000002:                                                                                                  ## Copyright:   Public domain.
000003:                                                                                                  ## Filename:    KEYRUPT_UPRUPT.agc
000004:                                                                                                  ## Purpose:     Part of the source code for Colossus build 237.
000005:                                                                                                  ##              This is for the Command Module's (CM) Apollo Guidance
000006:                                                                                                  ##              Computer (AGC), for Apollo 8.
000007:                                                                                                  ## Assembler:   yaYUL
000008:                                                                                                  ## Contact:     Jim Lawton <jim DOT lawton AT gmail DOT com>
000009:                                                                                                  ## Website:     www.ibiblio.org/apollo/index.html
000010:                                                                                                  ## Page Scans:  www.ibiblio.org/apollo/ScansForConversion/Colossus237/
000011:                                                                                                  ## Mod history: 2011-04-17 JL   Adapted from corresponding Colossus 249 file.
000012:                                                                                                  ##              2017-01-01 RSB  Proofed comment text using octopus/ProoferComments,
000013:                                                                                                  ##                              and fixed errors found.
000014:                                                                                                  ##              2017-01-15 RSB  Fixed comment-text errors identified by diff'ing
000015:                                                                                                  ##                              against Colossus 249.
000016:                                                                                                  ##              2017-03-13 RSB  Comment-text fixes noted in proofing Luminary 116.
000017:


000019: 14,3751                                           BANK     14
000020: 07,2000                                           SETLOC   KEYRUPT
000021: 07,2000                                           BANK
000022: 07,3613                                           COUNT*   $$/KEYUP
000023:
000024: 07,3613           54016        KEYRUPT1           TS       BANKRUPT
000025: 07,3614           56002                           XCH      Q
000026: 07,3615           54012                           TS       QRUPT
000027: 07,3616           04414                           TC       LODSAMPT                              #  TIME IS SNATCHED IN RUPT FOR NOUN 65.
000028: 07,3617           34362                           CAF      LOW5
000029: 07,3620           00006                           EXTEND
000030: 07,3621           02015                           RAND     MNKEYIN                               #  CHECK IF KEYS 5M-1M ON
000031: 07,3622           54073        KEYCOM             TS       RUPTREG4
000032: 07,3623           40101                           CS       FLAGWRD5
000033: 07,3624           74674                           MASK     BIT15
000034: 07,3625           26101                           ADS      FLAGWRD5
000035:
000036: 07,3626           34371        ACCEPTUP           CAF      CHRPRIO                               #  (NOTE: RUPTREG4 = KEYTEMP1)
000037: 07,3627           05027                           TC       NOVAC
000038: 07,3630     0777                                  EBANK=   DSPCOUNT
000039: 07,3630           02000 60101                     2CADR    CHARIN
000040: 07,3632           30073                           CA       RUPTREG4
000041: 07,3633           50064                           INDEX    LOCCTR
000042: 07,3634           54154                           TS       MPAC                                  #  LEAVE 5 BIT KEY CDE IN MPAC FOR CHARIN
000043: 07,3635           05222                           TC       RESUME
000044:


000046:                                                                                                  #  UPRUPT PROGRAM
000047:
000048: 07,3636           54016        UPRUPT             TS       BANKRUPT
000049: 07,3637           56002                           XCH      Q
000050: 07,3640           54012                           TS       QRUPT
000051: 07,3641           04414                           TC       LODSAMPT                              #  TIME IS SNATCHED IN RUPT FOR NOUN 65.
000052: 07,3642           34714                           CAF      ZERO
000053: 07,3643           56045                           XCH      INLINK
000054: 07,3644           54073                           TS       KEYTEMP1
000055: 07,3645           34710                           CAF      BIT3                                  #  TURN ON UPACT LIGHT
000056: 07,3646           00006                           EXTEND                                         #  (BIT 3 OF CHANNEL 11)
000057: 07,3647           05011                           WOR      DSALMOUT
000058: 07,3650           34362        UPRPT1             CAF      LOW5                                  #  TEST FOR TRIPLE CHAR REDUNDANCY
000059: 07,3651           70073                           MASK     KEYTEMP1                              #  LOW5 OF WORD
000060: 07,3652           56073                           XCH      KEYTEMP1                              #  LOW5 INTO KEYTEMP1
000061: 07,3653           00006                           EXTEND
000062: 07,3654           74701                           MP       BIT10                                 #  SHIFT RIGHT 5
000063: 07,3655           54734                           TS       KEYTEMP2
000064: 07,3656           74362                           MASK     LOW5                                  #  MID 5
000065: 07,3657           63713                           AD       HI10
000066: 07,3660           03710                           TC       UPTEST
000067: 07,3661           34701                           CAF      BIT10
000068: 07,3662           00006                           EXTEND
000069: 07,3663           70734                           MP       KEYTEMP2                              #  SHIFT RIGHT 5
000070: 07,3664           74362                           MASK     LOW5                                  #  HIGH 5
000071: 07,3665           40000                           COM
000072: 07,3666           03710                           TC       UPTEST
000073:
000074: 07,3667           43716        UPCK               CS       ELRCODE                               #  CODE IS GOOD. IF CODE = 'ERROR RESET',
000075: 07,3670           60073                           AD       KEYTEMP1                              #  CLEAR UPLOCKFL(SET BIT4 OF FLAGWRD7 = 0)
000076: 07,3671           00006                           EXTEND                                         #  IF CODE DOES NOT = 'ERROR RESET', ACCEPT
000077: 07,3672           13700                           BZF      CLUPLOCK                              #  CODE ONLY IF UPLOCKFL IS CLEAR (=0).
000078:
000079: 07,3673           34707                           CAF      BIT4                                  #  TEST UPLOCKFL FOR 0 OR 1.
000080: 07,3674           70103                           MASK     FLAGWRD7
000081: 07,3675           10000                           CCS      A
000082: 07,3676           05222                           TC       RESUME                                #  UPLOCKFL = 1
000083: 07,3677           03626                           TC       ACCEPTUP                              #  UPLOCKFL = 0
000084:
000085: 07,3700           44707        CLUPLOCK           CS       BIT4                                  #  CLEAR UPLOCKFL (I.E., SET BIT 4 OF
000086: 07,3701           70103                           MASK     FLAGWRD7                              #  FLAGWRD7 = 0)
000087: 07,3702           54103                           TS       FLAGWRD7
000088: 07,3703           03626                           TC       ACCEPTUP
000089:
000090:                                                                                                  #                                          CODE IS BAD
000091: 07,3704           40103        TMFAIL2            CS       FLAGWRD7                              #  LOCK OUT FURTHER UPLINK ACTIVITY
000092: 07,3705           74707                           MASK     BIT4                                  #  (BY SETTING UPLOCKFL = 1) UNTIL
000093: 07,3706           26103                           ADS      FLAGWRD7                              #  'ERROR RESET' IS SENT VIA UPLINK.
000094: 07,3707           05222                           TC       RESUME
000095: 07,3710           60073        UPTEST             AD       KEYTEMP1


000097: 07,3711           10000                           CCS      A
000098: 07,3712           03704                           TC       TMFAIL2
000099: 07,3713           77740        HI10               OCT      77740
000100: 07,3714           03704                           TC       TMFAIL2
000101: 07,3715           00002                           TC       Q
000102:
000103: 07,3716           00022        ELRCODE            OCT      22
000104:
000105:                                                                                                  #  'UPLINK ACTIVITY LIGHT' IS TURNED OFF BY .....
000106:                                                                                                  #           1.     VBRELDSP
000107:                                                                                                  #           2.     ERROR RESET
000108:                                                                                                  #           3.     UPDATE PROGRAM(P27) ENTERED BY V70,V71,V72,AND V73.
000109:
000110:
000111:                                                                                                  #                                    -
000112:                                                                                                  #  THE RECEPTION OF A BAD CODE(I.E  CCC FAILURE) LOCKS OUT FURTHER UPLINK ACTIVITY BY SETTING BIT4 OF FLAGWRD7 = 1.
000113:                                                                                                  #  THIS INDICATION WILL BE TRANSFERRED TO THE GROUND BY THE DOWNLINK WHICH DOWNLINKS ALL FLAGWORDS.
000114:                                                                                                  #  WHEN UPLINK ACTIVITY IS LOCKED OUT ,IT CAN BE ALLOWED WHEN THE GROUND UPLINKS AND 'ERROR RESET' CODE.
000115:                                                                                                  #  (IT IS RECOMMENDED THAT THE 'ERROR LIGHT RESET' CODE IS PRECEEDED BY 16 BITS THE FIRST OF WHICH IS 1 FOLLOWED
000116:                                                                                                  #  BY 15 ZEROES. THIS WILL ELIMINATE EXTRANEOUS BITS FROM INLINK WHICH MAY HAVE BEEN LEFT OVER FROM THE ORIGINAL
000117:                                                                                                  #  FAILURE)
000118:                                                                                                  #  UPLINK ACTIVITY IS ALSO ALLOWED(UNLOCKED) DURING FRESH START WHEN FRESH START SETS BIT4 OF FLAGWRD7 = 0.

End of include-file KEYRUPT,_UPRUPT.agc.  Parent file is MAIN.agc


