
Source Code


000002:                                                                                                  ## Copyright:   Public domain.
000003:                                                                                                  ## Filename:    LATITUDE_LONGITUDE_SUBROUTINES.agc
000004:                                                                                                  ## Purpose:     Part of the source code for Colossus build 237.
000005:                                                                                                  ##              This is for the Command Module's (CM) Apollo Guidance
000006:                                                                                                  ##              Computer (AGC), for Apollo 8.
000007:                                                                                                  ## Assembler:   yaYUL
000008:                                                                                                  ## Contact:     Jim Lawton <jim DOT lawton AT gmail DOT com>
000009:                                                                                                  ## Website:     www.ibiblio.org/apollo/index.html
000010:                                                                                                  ## Page Scans:  www.ibiblio.org/apollo/ScansForConversion/Colossus237/
000011:                                                                                                  ## Mod history: 2011-04-13 JL   Adapted from corresponding Colossus 249 file.
000012:                                                                                                  ##              2017-01-01 RSB  Proofed comment text using octopus/ProoferComments,
000013:                                                                                                  ##                              and fixed errors found.
000014:                                                                                                  ##              2017-02-05 RSB  Back-ported comment corrections
000015:                                                                                                  ##                              identified while proofing Artemis 072.
000016:                                                                                                  ##              2017-03-15 RSB  Comment-text fixes identified in 5-way
000017:                                                                                                  ##                              side-by-side diff of Luminary 69/99/116/131/210.
000018:


000020:                                                                                                  #  SUBROUTINE TO CONVERT RAD VECTOR AT GIVEN TIME TO LAT,LONG AND ALT
000021:
000022:                                                                                                  #  CALLING SEQUENCE
000023:
000024:                                                                                                  #    L-1    CALL
000025:                                                                                                  #    L             LAT-LONG
000026:                                                                                                  #  SUBROUTINES USED
000027:
000028:                                                                                                  #   R-TO-RP,ARCTAN,SETGAMMA,SETRE
000029:                                                                                                  #  ERASABLE INIT. REQ.
000030:
000031:                                                                                                  #    AXO,-AYO,AZO,TEPHEM (SET AT LAUNCH TIME)
000032:                                                                                                  #  ALPHAV = POSITION VECTOR METERS B-29
000033:                                                                                                  #    MPAC-- TIME (CSECS B-28)
000034:                                                                                                  #   ERADFLAG =1, TO COMPUTE EARTH RADIUS, =0 FOR FIXED EARTH RADIUS
000035:                                                                                                  #   LUNAFLAG=0 FOR EARTH,1 FOR MOON
000036:                                                                                                  #  OUTPUT
000037:
000038:                                                                                                  #    LATITUDE IN LAT   (REVS. B-0)
000039:                                                                                                  #    LONGITUDE IN LONG   (REVS. B-0)
000040:                                                                                                  #  ALTITUDE IN ALT METERS B-29
000041: 30,3776                                           BANK     30
000042: 13,2000                                           SETLOC   LATLONG
000043: 13,2000                                           BANK
000044:
000045: 13,2322                                           COUNT    13/LT-LG
000046:
000047: 13,2322  E4,1551                                  EBANK=   ALPHAV
000048: 13,2322           40220        LAT-LONG           STQ      SETPD
000049: 13,2323           02242                                    INCORPEX
000050: 13,2324           00001                                    0D
000051: 13,2325           24007                           STOVL    6D                                    #  SAVE TIME IN 6-7D FOR R-TO-RP
000052: 13,2326           02152                                    ALPHAV
000053: 13,2327           51406                           PUSH     ABVAL                                 #  0-5D= R FOR R-TO-RP
000054: 13,2330           16310                           STODL    ALPHAM                                #  ABS. VALUE OF R FOR ALT FORMULA BELOW
000055: 13,2331           11453                                    ZEROVEC                               #  SET MPAC=0 FOR EARTH,NON-ZERO FOR MOON
000056: 13,2332           71414                           BOFF     COS                                   #  USE COS(0) TO GET NON-ZERO IN MPAC
000057: 13,2333           01743                                    LUNAFLAG                              #  0=EARTH,1=MOON
000058: 13,2334           26335                                    CALLRTRP
000059: 13,2335           77624        CALLRTRP           CALL
000060: 13,2336           55366                                    R-TO-RP                               #  RP VECTOR CONVERTED FROM R B-29
000061: 13,2337           77656                           UNIT                                           #  UNIT RP B-1
000062: 13,2340           36152                           STCALL   ALPHAV                                #  U2= 1/2 SINL FOR SETRE SUBR BELOW
000063: 13,2341           26523                                    SETGAMMA                              #   SET GAMMA=B2/A2 FOR EARTH,=1 FOR MOON
000064: 13,2342           77624                           CALL                                           #   SCALED B-1
000065: 13,2343           26533                                    SETRE                                 #  CALC RE METERS B-29
000066: 13,2344           63545                           DLOAD    DSQ
000067: 13,2345           02152                                    ALPHAV
000068: 13,2346           63525                           PDDL     DSQ
000069: 13,2347           02154                                    ALPHAV     +2


000071: 13,2350           75415                           DAD      SQRT
000072: 13,2351           76405                           DMP      SL1R
000073: 13,2352           00011                                    GAMRP
000074: 13,2353           14021                           STODL    COSTH                                 #  COS(LAT) B-1
000075: 13,2354           02156                                    ALPHAV     +4
000076: 13,2355           34023                           STCALL   SINTH                                 #  SIN(LAT) B-1
000077: 13,2356           26463                                    ARCTAN
000078: 13,2357           15104                           STODL    LAT                                   #  LAT B0
000079: 13,2360           02152                                    ALPHAV
000080: 13,2361           14021                           STODL    COSTH                                 #  COS(LONG) B-1
000081: 13,2362           02154                                    ALPHAV     +2
000082: 13,2363           34023                           STCALL   SINTH                                 #  SIN(LONG) B-1
000083: 13,2364           26463                                    ARCTAN
000084: 13,2365           15106                           STODL    LONG                                  #  LONG. REVS B-0 IN RANGE -1/2 TO 1/2
000085: 13,2366           02310                                    ALPHAM
000086: 13,2367           77625                           DSU                                            #  ALT= R-RE METERS B-29
000087: 13,2370           02241                                    ERADM
000088: 13,2371           35110                           STCALL   ALT                                   #  EXIT WITH ALT METERS B-29
000089: 13,2372           02242                                    INCORPEX
000090:


000092:                                                                                                  #  SUBROUTINE TO CONVERT LAT,LONG,ALT AT GIVEN TIME TO RADIUS VECTOR
000093:                                                                                                  #  CALLING SEQUENCE
000094:
000095:                                                                                                  #    L-1    CALL
000096:                                                                                                  #    L             LALOTORV
000097:                                                                                                  #  SUBROUTINES USED
000098:
000099:                                                                                                  #   SETGAMMA,SETRE,RP-TO-R
000100:                                                                                                  #  ERASABLE INIT. REQ.
000101:
000102:                                                                                                  #    AXO,AYO,AZO,TEPHEM  SET AT LAUNCH TIME
000103:                                                                                                  #    LAT-- LATITUDE  (REVS B0)
000104:                                                                                                  #    LONG-- LONGITUDE  (REVS B0)
000105:                                                                                                  #  ALT--ALTITUDE (METERS) B-29
000106:                                                                                                  #    MPAC-- TIME  (CSECS B-28)
000107:                                                                                                  #    ERADFLAG =1 TO COMPUTE EARTH RADIUS, =0 FOR FIXED EARTH RADIUS
000108:                                                                                                  #    LUNAFLAG=0 FOR EARTH,1 FOR MOON
000109:                                                                                                  #  OUTPUT
000110:
000111:                                                                                                  #  R-VECTOR IN ALPHAV (METERS B-29)
000112: 13,2373           40220        LALOTORV           STQ      SETPD                                 #  LAT,LONG,ALT TO R VECTOR
000113: 13,2374           02242                                    INCORPEX
000114: 13,2375           00001                                    0D
000115: 13,2376           34007                           STCALL   6D                                    #  6-7D= TIME FOR RP-TO-R
000116: 13,2377           26523                                    SETGAMMA                              #  GAMMA=B2/A2 FOR EARTH,1 FOR MOON B-1
000117: 13,2400           73545                           DLOAD    SIN                                   #                COS(LONG)COS(LAT) IN MPAC
000118: 13,2401           01104                                    LAT                                   #       UNIT RP= SIN(LONG)COS(LAT)    2-3D
000119: 13,2402           65275                           DMPR     PDDL                                  #  PD 2          GAMMA*SIN(LAT)       0-1D
000120: 13,2403           00011                                    GAMRP
000121: 13,2404           01104                                    LAT                                   #          0-1D= GAMMA*SIN(LAT) B-2
000122: 13,2405           65346                           COS      PDDL                                  #  PD 4     2-3D=COS(LAT) B-1 TEMPORARILY
000123: 13,2406           01106                                    LONG
000124: 13,2407           57356                           SIN      DMPR                                  #  PD 2
000125: 13,2410           71525                           PDDL     COS                                   #  PD 4    2-3D=SIN(LONG)COS(LAT) B-2
000126: 13,2411           01104                                    LAT
000127: 13,2412           71525                           PDDL     COS                                   #  PD 6     4-5D=COS(LAT) B-1 TEMPORARILY
000128: 13,2413           01106                                    LONG
000129: 13,2414           55475                           DMPR     VDEF                                  #  PD4     MPAC= COS(LONG)COS(LAT) B-2
000130: 13,2415           41456                           UNIT     PUSH                                  #  0-5D= UNIT RP FOR RP-TO-R SUBR.
000131: 13,2416           36152                           STCALL   ALPHAV                                #  ALPHAV +4= SINL FOR SETRE SUBR.
000132: 13,2417           26533                                    SETRE                                 #  RE METERS B-29
000133: 13,2420           43145                           DLOAD    BOFF                                  #  SET MPAC=0 FOR EARTH,NON-ZERO FOR MOON
000134: 13,2421           11453                                    ZEROVEC
000135: 13,2422           01743                                    LUNAFLAG
000136: 13,2423           26425                                    CALLRPRT
000137: 13,2424           77746                           COS                                            #  USE COS(0) TO GET NON-ZERO IN MPAC
000138: 13,2425           77624        CALLRPRT           CALL
000139: 13,2426           55341                                    RP-TO-R                               #  EXIT WITH UNIT R VECTOR IN MPAC
000140: 13,2427           16152                           STODL    ALPHAV
000141: 13,2430           02241                                    ERADM


000143: 13,2431           74215                           DAD      VXSC                                  #  (RE + ALT)(UNIT R) METERS B-30
000144: 13,2432           01110                                    ALT
000145: 13,2433           02152                                    ALPHAV
000146: 13,2434           77772                           VSL1                                           #  R METERS B-29
000147: 13,2435           36152                           STCALL   ALPHAV                                #  EXIT WITH R IN METERS B-29
000148: 13,2436           02242                                    INCORPEX
000149:                                                                                                  #  SUBROUTINE TO COMPUTE EARTH RADIUS
000150:
000151:                                                                                                  #  INPUT
000152:
000153:                                                                                                  #    1/2 SIN LAT IN ALPHAV +4
000154:
000155:                                                                                                  #  OUTPUT
000156:
000157:                                                                                                  #    EARTH RADIUS IN ERADM AND MPAC  (METERS B-29)
000158:
000159: 13,2437           63545        GETERAD            DLOAD    DSQ
000160: 13,2440           02156                                    ALPHAV     +4                         #  SIN**2(L)
000161: 13,2441           44352                           SL1      BDSU
000162: 13,2442           11451                                    DP1/2                                 #  COS**2(L)
000163: 13,2443           44275                           DMPR     BDSU
000164: 13,2444           26460                                    EE
000165: 13,2445           11451                                    DP1/2
000166: 13,2446           75465                           BDDV     SQRT
000167: 13,2447           26454                                    B2XSC
000168: 13,2450           77622                           SR4R
000169: 13,2451           02241                           STORE    ERADM
000170: 13,2452           77616                           RVQ
000171:
000172:                                                                                                  #  THE FOLLOWING CONSTANTS WERE COMPUTED WITH A=6378166,B=6356784 METERS
000173:                                                                                                  #  B2XSC= B**2 SCALED B-51
000174:                                                                                                  #  B2/A2= B**2/A**2 SCALED B-1
000175:                                                                                                  #  EE=(1-B**2/A**2) SCALED B-0
000176:
000177: 13,2453           00446 00305  B2XSC              2DEC     .0179450689                            #  B**2 SCALED B-51
000178: 13,2455  04,3450               DP1/2              =        XUNIT
000179: 13,2455           17711 05254  B2/A2              2DEC     .9933064884 B-1                        #  GAMMA= B**2/A**2 B-1
000180: 13,2457           00155 25250  EE                 2DEC     6.6935116  E-3                        #  (1-B**2/A**2) B-0
000181: 13,2461           00302 17755  ERAD               2DEC     6373338    B-29                       #  PAD RADIUS
000182:


000184:                                                                                                  #  ARCTAN SUBROUTINE
000185:
000186:
000187:                                                                                                  #  CALLING SEQUENCE
000188:
000189:                                                                                                  #    SIN THETA IN SINTH B-1
000190:                                                                                                  #    COS THETA IN COSTH B-1
000191:                                                                                                  #    CALL ARCTAN
000192:
000193:                                                                                                  #  OUTPUT
000194:                                                                                                  #    ARCTAN THETA IN MPAC AND THETA B-0 IN RANGE -1/2 TO +1/2
000195:
000196:
000197: 13,2463           77600        ARCTAN             BOV
000198: 13,2464           26465                                    CLROVFLW
000199: 13,2465           63545        CLROVFLW           DLOAD    DSQ
000200: 13,2466           00023                                    SINTH
000201: 13,2467           63525                           PDDL     DSQ
000202: 13,2470           00021                                    COSTH
000203: 13,2471           77615                           DAD
000204: 13,2472           75454                           BZE      SQRT
000205: 13,2473           26511                                    ARCTANXX                              #  ATAN=0/0  SET THETA=0
000206: 13,2474           40065                           BDDV     BOV
000207: 13,2475           00023                                    SINTH
000208: 13,2476           26516                                    ATAN=90
000209: 13,2477           67542                           SR1      ASIN
000210: 13,2500           00025                           STORE    THETA
000211: 13,2501           50125                           PDDL     BMN
000212: 13,2502           00021                                    COSTH
000213: 13,2503           26505                                    NEGCOS
000214: 13,2504           43545                           DLOAD    RVQ
000215: 13,2505           57545        NEGCOS             DLOAD    DCOMP
000216: 13,2506           43244                           BPL      DAD
000217: 13,2507           26513                                    NEGOUT
000218: 13,2510           11451                                    DP1/2
000219: 13,2511           00025        ARCTANXX           STORE    THETA
000220: 13,2512           77616                           RVQ
000221:
000222: 13,2513           52025        NEGOUT             DSU      GOTO
000223: 13,2514           11451                                    DP1/2
000224: 13,2515           26511                                    ARCTANXX
000225: 13,2516           75345        ATAN=90            DLOAD    SIGN
000226: 13,2517           11477                                    LODP1/4
000227: 13,2520           00023                                    SINTH
000228: 13,2521           00025                           STORE    THETA
000229: 13,2522           77616                           RVQ
000230:
000231: 13,2523  04,3452               2DZERO             =        DPZERO
000232:


000234:                                                                                                  #  ..... SETGAMMA SUBROUTINE .....
000235:                                                                                                  #  SUBROUTINE TO SET GAMMA FOR THE LAT-LONG AND LALOTORV SUBROUTINES
000236:
000237:                                                                                                  #   GAMMA = B**2/A**2 FOR EARTH (B-1)
000238:                                                                                                  #   GAMMA = 1 FOR MOON (B-1)
000239:
000240:                                                                                                  #  CALLING SEQUENCE
000241:                                                                                                  #   L       CALL
000242:                                                                                                  #   L+1            SETGAMMA
000243:
000244:                                                                                                  #  INPUT
000245:                                                                                                  #   LUNAFLAG=0 FOR EARTH,=1 FOR MOON
000246:
000247:                                                                                                  #  OUTPUT
000248:                                                                                                  #   GAMMA IN GAMRP  (B-1)
000249:
000250: 13,2523           43145        SETGAMMA           DLOAD    BOFF                                  #  BRANCH FOR EARTH
000251: 13,2524           26456                                    B2/A2                                 #  EARTH GAMMA
000252: 13,2525           01743                                    LUNAFLAG
000253: 13,2526           26531                                    SETGMEX
000254: 13,2527           77735                           SLOAD
000255: 13,2530           11451                                    1B1                                   #  MOON GAMMA
000256: 13,2531           00011        SETGMEX            STORE    GAMRP
000257: 13,2532           77616                           RVQ
000258: 13,2533                        GAMRP              =        8D
000259:


000261:                                                                                                  #  .....SETRE SUBROUTINE .....
000262:                                                                                                  #  SUBROUTINE TO SET RE (EARTH OR MOON RADIUS)
000263:
000264:                                                                                                  #  RE= RM FOR MOON
000265:                                                                                                  #   RE= RREF FOR FIXED EARTH RADIUS OR COMPUTED RF FOR FISCHER ELLIPSOID
000266:
000267:                                                                                                  #  CALLING SEQUENCE
000268:                                                                                                  #   L       CALL
000269:                                                                                                  #   L+1            SETRE
000270:
000271:                                                                                                  #  SUBROUTINES USED
000272:                                                                                                  #   GETERAD
000273:
000274:                                                                                                  #  INPUT
000275:                                                                                                  #   ERADFLAG=0 FOR FIXED RE, 1 FOR COMPUTED RE
000276:                                                                                                  #   ALPHAV +4= 1/2 SINL IF GETERAD IS CALLED
000277:                                                                                                  #   LUNAFLAG=0 FOR EARTH,=1 FOR MOON
000278:
000279:                                                                                                  #  OUTPUT
000280:                                                                                                  #   ERADM= 504RM FOR MOON (METERS B-29)
000281:                                                                                                  #   ERADM= ERAD OR COMPUTED RF FOR EARTH (METERS B-29)
000282:
000283: 13,2533           71220        SETRE              STQ      DLOAD
000284: 13,2534           00051                                    SETREX
000285: 13,2535           26560                                    504RM
000286: 13,2536           71214                           BON      DLOAD                                 #  BRANCH FOR MOON
000287: 13,2537           01703                                    LUNAFLAG
000288: 13,2540           26550                                    TSTRLSRM
000289: 13,2541           26462                                    ERAD
000290: 13,2542           45014                           BOFF     CALL                                  #  ERADFLAG=0 FOR FIXED RE,1 FOR COMPUTED
000291: 13,2543           00742                                    ERADFLAG
000292: 13,2544           26546                                    SETRXX
000293: 13,2545           26437                                    GETERAD
000294: 13,2546           36241        SETRXX             STCALL   ERADM                                 #  EXIT WITH RE OR RM METERS B-29
000295: 13,2547           00051                                    SETREX
000296: 13,2550           77214        TSTRLSRM           BON      VLOAD                                 #  ERADFLAG=0,SET R0=RLS
000297: 13,2551           00702                                    ERADFLAG                              #          =1     R0=RM
000298: 13,2552           26546                                    SETRXX
000299: 13,2553           02026                                    RLS
000300: 13,2554           64446                           ABVAL    SR2R                                  #  SCALE FROM B-27 TO B-29
000301: 13,2555           77650                           GOTO
000302: 13,2556           26546                                    SETRXX
000303: 13,2557  0000051               SETREX             =        S2
000304: 13,2557           00065 01265  504RM              2DEC     1738090    B-29                       #  METERS B-29 (MOON RADIUS)

End of include-file LATITUDE_LONGITUDE_SUBROUTINES.agc.  Parent file is MAIN.agc


