
Source Code


000002:                                                                                                  ## Copyright:    Public domain.
000003:                                                                                                  ## Filename:     LATITUDE_LONGITUDE_SUBROUTINES.agc
000004:                                                                                                  ## Purpose:      Part of the source code for Colossus build 237.
000005:                                                                                                  ##               This is for the Command Module's (CM) Apollo Guidance
000006:                                                                                                  ##               Computer (AGC), we believe for Apollo 8.
000007:                                                                                                  ## Assembler:    yaYUL
000008:                                                                                                  ## Contact:      Jim Lawton <jim DOT lawton AT gmail DOT com>
000009:                                                                                                  ## Website:      www.ibiblio.org/apollo/index.html
000010:                                                                                                  ## Page Scans:   www.ibiblio.org/apollo/ScansForConversion/Colossus237/
000011:                                                                                                  ## Mod history:  2011-04-13 JL  Adapted from corresponding Colossus 249 file.
000012:


000014:                                                                                                  #  SUBROUTINE TO CONVERT RAD VECTOR AT GIVEN TIME TO LAT,LONG AND ALT
000015:
000016:                                                                                                  #  CALLING SEQUENCE
000017:
000018:                                                                                                  #    L-1    CALL
000019:                                                                                                  #    L             LAT-LONG
000020:                                                                                                  #  SUBROUTINES USED
000021:
000022:                                                                                                  #   R-TO-RP,ARCTAN,SETGAMMA,SETRE
000023:                                                                                                  #  ERASABLE INIT. REQ.
000024:
000025:                                                                                                  #    AXO,-AYO,AZO,TEPHEM (SET AT LAUNCH TIME)
000026:                                                                                                  #  ALPHAV = POSITION VECTOR METERS B-29
000027:                                                                                                  #    MPAC-- TIME (CSECS B-28)
000028:                                                                                                  #   ERADFLAG =1, TO COMPUTE EARTH RADIUS, =0 FOR FIXED EARTH RADIUS
000029:                                                                                                  #   LUNAFLAG=0 FOR EARTH,1 FOR MOON
000030:                                                                                                  #  OUTPUT
000031:
000032:                                                                                                  #    LATITUDE IN LAT   (REVS. B-0)
000033:                                                                                                  #    LONGITUDE IN LONG   (REVS. B-0)
000034:                                                                                                  #  ALTITUDE IN ALT METERS B-29
000035: 30,3776                                           BANK     30
000036: 13,2000                                           SETLOC   LATLONG
000037: 13,2000                                           BANK
000038:
000039: 13,2322                                           COUNT    13/LT-LG
000040:
000041: 13,2322  E4,1551                                  EBANK=   ALPHAV
000042: 13,2322           40220        LAT-LONG           STQ      SETPD
000043: 13,2323           02242                                    INCORPEX
000044: 13,2324           00001                                    0D
000045: 13,2325           24007                           STOVL    6D                                    #  SAVE TIME IN 6-7D FOR R-TO-RP
000046: 13,2326           02152                                    ALPHAV
000047: 13,2327           51406                           PUSH     ABVAL                                 #  0-5D= R FOR R-TO-RP
000048: 13,2330           16310                           STODL    ALPHAM                                #  ABS. VALUE OF R FOR ALT FORMULA BELOW
000049: 13,2331           11453                                    ZEROVEC                               #  SET MPAC=0 FOR EARTH,NON-ZERO FOR MOON
000050: 13,2332           71414                           BOFF     COS                                   #  USE COS(0) TO GET NON-ZERO IN MPAC
000051: 13,2333           01743                                    LUNAFLAG                              #  0=EARTH,1=MOON
000052: 13,2334           26335                                    CALLRTRP
000053: 13,2335           77624        CALLRTRP           CALL
000054: 13,2336           55366                                    R-TO-RP                               #  RP VECTOR CONVERTED FROM R B-29
000055: 13,2337           77656                           UNIT                                           #  UNIT RP B-1
000056: 13,2340           36152                           STCALL   ALPHAV                                #  U2= 1/2 SINL FOR SETRE SUBR BELOW
000057: 13,2341           26523                                    SETGAMMA                              #   SET GAMMA=B2/A2 FOR EARTH,=1 FOR MOON
000058: 13,2342           77624                           CALL                                           #   SCALED B-1
000059: 13,2343           26533                                    SETRE                                 #  CALC RE METERS B-29
000060: 13,2344           63545                           DLOAD    DSQ
000061: 13,2345           02152                                    ALPHAV
000062: 13,2346           63525                           PDDL     DSQ
000063: 13,2347           02154                                    ALPHAV     +2


000065: 13,2350           75415                           DAD      SQRT
000066: 13,2351           76405                           DMP      SL1R
000067: 13,2352           00011                                    GAMRP
000068: 13,2353           14021                           STODL    COSTH                                 #  COS(LAT) B-1
000069: 13,2354           02156                                    ALPHAV     +4
000070: 13,2355           34023                           STCALL   SINTH                                 #  SIN(LAT) B-1
000071: 13,2356           26463                                    ARCTAN
000072: 13,2357           15104                           STODL    LAT                                   #  LAT B0
000073: 13,2360           02152                                    ALPHAV
000074: 13,2361           14021                           STODL    COSTH                                 #  COS(LONG) B-1
000075: 13,2362           02154                                    ALPHAV     +2
000076: 13,2363           34023                           STCALL   SINTH                                 #  SIN(LONG) B-1
000077: 13,2364           26463                                    ARCTAN
000078: 13,2365           15106                           STODL    LONG                                  #  LONG. REVS B-0 IN RANGE -1/2 TO 1/2
000079: 13,2366           02310                                    ALPHAM
000080: 13,2367           77625                           DSU                                            #  ALT= R-RE METERS B-29
000081: 13,2370           02241                                    ERADM
000082: 13,2371           35110                           STCALL   ALT                                   #  EXIT WITH ALT METERS B-29
000083: 13,2372           02242                                    INCORPEX
000084:


000086:                                                                                                  #  SUBROUTINE TO CONVERT LAT,LONG.ALT AT GIVEN TIME TO RADIUS VECTOR
000087:                                                                                                  #  CALLING SEQUENCE
000088:
000089:                                                                                                  #    L-1    CALL
000090:                                                                                                  #    L             LALOTORV
000091:                                                                                                  #  SUBROUTINES USED
000092:
000093:                                                                                                  #   SETGAMMA,SETRE,RP-TO-R
000094:                                                                                                  #  ERASABLE INIT. REQ.
000095:
000096:                                                                                                  #    AXO,AYO,AZO,TEPHEM  SET AT LAUNCH TIME
000097:                                                                                                  #    LAT-- LATITUDE  (REVS B0)
000098:                                                                                                  #    LONG-- LONGITUDE  (REVS B0)
000099:                                                                                                  #  ALT--ALTITUDE (METERS) B-29
000100:                                                                                                  #    MPAC-- TIME  (CSECS B-28)
000101:                                                                                                  #    ERADFLAG =1 TO COMPUTE EARTH RADIUS, =0 FOR FIXED EARTH RADIUS
000102:                                                                                                  #    LUNAFLAG=0 FOR EARTH,1 FOR MOON
000103:                                                                                                  #  OUTPUT
000104:
000105:                                                                                                  #  R-VECTOR IN ALPHAV (METERS B-29)
000106: 13,2373           40220        LALOTORV           STQ      SETPD                                 #  LAT,LONG,ALT TO R VECTOR
000107: 13,2374           02242                                    INCORPEX
000108: 13,2375           00001                                    0D
000109: 13,2376           34007                           STCALL   6D                                    #  6-7D= TIME FOR RP-TO-R
000110: 13,2377           26523                                    SETGAMMA                              #  GAMMA=B2/A2 FOR EARTH,1 FOR MOON B-1
000111: 13,2400           73545                           DLOAD    SIN                                   #                COS(LONG)COS(LAT) IN MPAC
000112: 13,2401           01104                                    LAT                                   #       UNIT RP= SIN(LONG)COS(LAT)    2-3D
000113: 13,2402           65275                           DMPR     PDDL                                  #  PD 2          GAMMA*SIN(LAT)       0-1D
000114: 13,2403           00011                                    GAMRP
000115: 13,2404           01104                                    LAT                                   #          0-1D= GAMMA*SIN(LAT) B-2
000116: 13,2405           65346                           COS      PDDL                                  #  PD 4     2-3D=COS(LAT) B-1 TEMPORARILY
000117: 13,2406           01106                                    LONG
000118: 13,2407           57356                           SIN      DMPR                                  #  PD 2
000119: 13,2410           71525                           PDDL     COS                                   #  PD 4    2-3D=SIN(LONG)COS(LAT) B-2
000120: 13,2411           01104                                    LAT
000121: 13,2412           71525                           PDDL     COS                                   #  PD 6     4-5D=COS(LAT) B-1 TEMPORARILY
000122: 13,2413           01106                                    LONG
000123: 13,2414           55475                           DMPR     VDEF                                  #  PD4     MPAC= COS(LONG)COS(LAT) B-2
000124: 13,2415           41456                           UNIT     PUSH                                  #  0-5D= UNIT RP FOR RP-TO-R SUBR.
000125: 13,2416           36152                           STCALL   ALPHAV                                #  ALPHAV +4= SINL FOR SETRE SUBR.
000126: 13,2417           26533                                    SETRE                                 #  RE METERS B-29
000127: 13,2420           43145                           DLOAD    BOFF                                  #  SET MPAC=0 FOR EARTH,NON-ZERO FOR MOON
000128: 13,2421           11453                                    ZEROVEC
000129: 13,2422           01743                                    LUNAFLAG
000130: 13,2423           26425                                    CALLRPRT
000131: 13,2424           77746                           COS                                            #  USE COS(0) TO GET NON-ZERO IN MPAC
000132: 13,2425           77624        CALLRPRT           CALL
000133: 13,2426           55341                                    RP-TO-R                               #  EXIT WITH UNIT R VECTOR IN MPAC
000134: 13,2427           16152                           STODL    ALPHAV
000135: 13,2430           02241                                    ERADM


000137: 13,2431           74215                           DAD      VXSC                                  #  (RE + ALT)(UNIT R) METERS B-30
000138: 13,2432           01110                                    ALT
000139: 13,2433           02152                                    ALPHAV
000140: 13,2434           77772                           VSL1                                           #  R METERS B-29
000141: 13,2435           36152                           STCALL   ALPHAV                                #  EXIT WITH R IN METERS B-29
000142: 13,2436           02242                                    INCORPEX
000143:                                                                                                  #  SUBROUTINE TO COMPUTE EARTH RADIUS
000144:
000145:                                                                                                  #  INPUT
000146:
000147:                                                                                                  #    1/2 SIN LAT IN ALPHAV +4
000148:
000149:                                                                                                  #  OUTPUT
000150:
000151:                                                                                                  #    EARTH RADIUS IN ERADM AND MPAC  (METERS B-29)
000152:
000153: 13,2437           63545        GETERAD            DLOAD    DSQ
000154: 13,2440           02156                                    ALPHAV     +4                         #  SIN**2(L)
000155: 13,2441           44352                           SL1      BDSU
000156: 13,2442           11451                                    DP1/2                                 #  COS**2(L)
000157: 13,2443           44275                           DMPR     BDSU
000158: 13,2444           26460                                    EE
000159: 13,2445           11451                                    DP1/2
000160: 13,2446           75465                           BDDV     SQRT
000161: 13,2447           26454                                    B2XSC
000162: 13,2450           77622                           SR4R
000163: 13,2451           02241                           STORE    ERADM
000164: 13,2452           77616                           RVQ
000165:
000166:                                                                                                  #  THE FOLLOWING CONSTANTS WERE COMPUTED WITH A=6378166,B=6356784 METERS
000167:                                                                                                  #  B2XSC= B**2 SCALED B-51
000168:                                                                                                  #  B2/A2= B**2/A**2 SCALED B-1
000169:                                                                                                  #  EE=(1-B**2/A**2) SCALED B-0
000170:
000171: 13,2453           00446 00305  B2XSC              2DEC     .0179450689                            #  B**2 SCALED B-51
000172: 13,2455  04,3450               DP1/2              =        XUNIT
000173: 13,2455           17711 05254  B2/A2              2DEC     .9933064884 B-1                        #  GAMMA= B**2/A**2 B-1
000174: 13,2457           00155 25250  EE                 2DEC     6.6935116  E-3                        #  (1-B**2/A**2) B-0
000175: 13,2461           00302 17755  ERAD               2DEC     6373338    B-29                       #  PAD RADIUS
000176:


000178:                                                                                                  #  ARCTAN SUBROUTINE
000179:
000180:
000181:                                                                                                  #  CALLING SEQUENCE
000182:
000183:                                                                                                  #    SIN THETA IN SINTH B-1
000184:                                                                                                  #    COS THETA IN COSTH B-1
000185:                                                                                                  #    CALL ARCTAN
000186:
000187:                                                                                                  #  OUTPUT
000188:                                                                                                  #    ARCTAN THETA IN MPAC AND THETA B-0 IN RANGE -1/2 TO +1/2
000189:
000190:
000191: 13,2463           77600        ARCTAN             BOV
000192: 13,2464           26465                                    CLROVFLW
000193: 13,2465           63545        CLROVFLW           DLOAD    DSQ
000194: 13,2466           00023                                    SINTH
000195: 13,2467           63525                           PDDL     DSQ
000196: 13,2470           00021                                    COSTH
000197: 13,2471           77615                           DAD
000198: 13,2472           75454                           BZE      SQRT
000199: 13,2473           26511                                    ARCTANXX                              #  ATAN=0/0  SET THETA=0
000200: 13,2474           40065                           BDDV     BOV
000201: 13,2475           00023                                    SINTH
000202: 13,2476           26516                                    ATAN=90
000203: 13,2477           67542                           SR1      ASIN
000204: 13,2500           00025                           STORE    THETA
000205: 13,2501           50125                           PDDL     BMN
000206: 13,2502           00021                                    COSTH
000207: 13,2503           26505                                    NEGCOS
000208: 13,2504           43545                           DLOAD    RVQ
000209: 13,2505           57545        NEGCOS             DLOAD    DCOMP
000210: 13,2506           43244                           BPL      DAD
000211: 13,2507           26513                                    NEGOUT
000212: 13,2510           11451                                    DP1/2
000213: 13,2511           00025        ARCTANXX           STORE    THETA
000214: 13,2512           77616                           RVQ
000215:
000216: 13,2513           52025        NEGOUT             DSU      GOTO
000217: 13,2514           11451                                    DP1/2
000218: 13,2515           26511                                    ARCTANXX
000219: 13,2516           75345        ATAN=90            DLOAD    SIGN
000220: 13,2517           11477                                    LODP1/4
000221: 13,2520           00023                                    SINTH
000222: 13,2521           00025                           STORE    THETA
000223: 13,2522           77616                           RVQ
000224:
000225: 13,2523  04,3452               2DZERO             =        DPZERO
000226:


000228:                                                                                                  #  ..... SETGAMMA SUBROUTINE .....
000229:                                                                                                  #  SUBROUTINE TO SET GAMMA FOR THE LAT-LONG AND LALOTORV SUBROUTINES
000230:
000231:                                                                                                  #   GAMMA = B**2/A**2 FOR EARTH (B-1)
000232:                                                                                                  #   GAMMA = 1 FOR MOON (B-1)
000233:
000234:                                                                                                  #  CALLING SEQUENCE
000235:                                                                                                  #   L       CALL
000236:                                                                                                  #   L+1            SETGAMMA
000237:
000238:                                                                                                  #  INPUT
000239:                                                                                                  #   LUNAFLAG=0 FOR EARTH,=1 FOR MOON
000240:
000241:                                                                                                  #  OUTPUT
000242:                                                                                                  #   GAMMA IN GAMRP  (B-1)
000243:
000244: 13,2523           43145        SETGAMMA           DLOAD    BOFF                                  #  BRANCH FOR EARTH
000245: 13,2524           26456                                    B2/A2                                 #  EARTH GAMMA
000246: 13,2525           01743                                    LUNAFLAG
000247: 13,2526           26531                                    SETGMEX
000248: 13,2527           77735                           SLOAD
000249: 13,2530           11451                                    1B1                                   #  MOON GAMMA
000250: 13,2531           00011        SETGMEX            STORE    GAMRP
000251: 13,2532           77616                           RVQ
000252: 13,2533                        GAMRP              =        8D
000253:


000255:                                                                                                  #  .....SETRE SUBROUTINE .....1
000256:                                                                                                  #  SUBROUTINE TO SET RE (EARTH OR MOON RADIUS)
000257:
000258:                                                                                                  #  RE= RM FOR MOON
000259:                                                                                                  #   RE= RREF FOR FIXED EARTH RADIUS OR COMPUTED RF FOR FISCHER ELLIPSOID
000260:
000261:                                                                                                  #  CALLING SEQUENCE
000262:                                                                                                  #   L       CALL
000263:                                                                                                  #   L+1            SETRE
000264:
000265:                                                                                                  #  SUBROUTINES USED
000266:                                                                                                  #   CETERAD
000267:
000268:                                                                                                  #  INPUT
000269:                                                                                                  #   ERADFLAG=0 FOR FIXED RE, 1 FOR COMPUTED RE
000270:                                                                                                  #   ALPHAV +4= 1/2 SINL IF GETERAD IS CALLED
000271:                                                                                                  #   LUNAFLAG=0 FOR EARTH,=1 FOR MOON
000272:
000273:                                                                                                  #  OUTPUT
000274:                                                                                                  #   ERADM= 504RM FOR MOON (METERS B-29)
000275:                                                                                                  #   ERADM= ERAD OR COMPUTED RE FOR EARTH (METERS B-29)
000276:
000277: 13,2533           71220        SETRE              STQ      DLOAD
000278: 13,2534           00051                                    SETREX
000279: 13,2535           26560                                    504RM
000280: 13,2536           71214                           BON      DLOAD                                 #  BRANCH FOR MOON
000281: 13,2537           01703                                    LUNAFLAG
000282: 13,2540           26550                                    TSTRLSRM
000283: 13,2541           26462                                    ERAD
000284: 13,2542           45014                           BOFF     CALL                                  #  ERADFLAG=0 FOR FIXED RE,1 FOR COMPUTED
000285: 13,2543           00742                                    ERADFLAG
000286: 13,2544           26546                                    SETRXX
000287: 13,2545           26437                                    GETERAD
000288: 13,2546           36241        SETRXX             STCALL   ERADM                                 #  EXIT WITH RE OR RM METERS B-29
000289: 13,2547           00051                                    SETREX
000290: 13,2550           77214        TSTRLSRM           BON      VLOAD                                 #  ERADFLAG=0,SET R0=RLS
000291: 13,2551           00702                                    ERADFLAG                              #          =1     R0=RM
000292: 13,2552           26546                                    SETRXX
000293: 13,2553           02026                                    RLS
000294: 13,2554           64446                           ABVAL    SR2R                                  #  SCALE FROM B-27 TO B-29
000295: 13,2555           77650                           GOTO
000296: 13,2556           26546                                    SETRXX
000297: 13,2557  0000051               SETREX             =        S2
000298: 13,2557           00065 01265  504RM              2DEC     1738090    B-29                       #  METERS B-29 (MOON RADIUS)

End of include-file LATITUDE_LONGITUDE_SUBROUTINES.agc.  Parent file is MAIN.agc


