
Source Code


000002:                                                                                                  ## Copyright:   Public domain.
000003:                                                                                                  ## Filename:    MYSUBS.agc
000004:                                                                                                  ## Purpose:     Part of the source code for Colossus build 237.
000005:                                                                                                  ##              This is for the Command Module's (CM) Apollo Guidance
000006:                                                                                                  ##              Computer (AGC), for Apollo 8.
000007:                                                                                                  ## Assembler:   yaYUL
000008:                                                                                                  ## Contact:     Jim Lawton <jim DOT lawton AT gmail DOT com>
000009:                                                                                                  ## Website:     www.ibiblio.org/apollo/index.html
000010:                                                                                                  ## Page Scans:  www.ibiblio.org/apollo/ScansForConversion/Colossus237/
000011:                                                                                                  ## Mod history: 2011-03-15 JL   Adapted from corresponding Colossus 249 file.
000012:                                                                                                  ##              2017-01-01 RSB  Proofed comment text using octopus/ProoferComments,
000013:                                                                                                  ##                              and fixed errors found.
000014:                                                                                                  ##              2021-05-30 ABS  EBANK= MPAC -> EBANK= KMPAC
000015:


000017: 20,3550                                           BANK     20
000018: 21,2000                                           SETLOC   MYSUBS
000019: 21,2000                                           BANK
000020:
000021: 21,2026  E6,1510                                  EBANK=   KMPAC
000022: 21,2026     4767               SPCOS1             EQUALS   SPCOS
000023: 21,2026     4770               SPSIN1             EQUALS   SPSIN
000024: 21,2026     4767               SPCOS2             EQUALS   SPCOS
000025: 21,2026     4770               SPSIN2             EQUALS   SPSIN
000026:
000027:
000028: 21,2026                                           COUNT    21/DAPMS
000029:
000030:                                                                                                  #  ONE AND ONE HALF PRECISION MULTIPLICATION ROUTINE
000031:
000032: 21,2026           55512        SMALLMP            TS       KMPTEMP                               #  A(X+Y)
000033: 21,2027           00006                           EXTEND
000034: 21,2030           71511                           MP       KMPAC      +1
000035: 21,2031           55511                           TS       KMPAC      +1                         #  AY
000036: 21,2032           34714                           CAF      ZERO
000037: 21,2033           57510                           XCH      KMPAC
000038: 21,2034           00006                           EXTEND
000039: 21,2035           71512                           MP       KMPTEMP                               #  AX
000040: 21,2036           21511                           DAS      KMPAC                                 #  AX+AY
000041: 21,2037           00002                           TC       Q
000042:
000043:
000044:                                                                                                  #  SUBROUTINE FOR DOUBLE PRECISION ADDITIONS OF ANGLES
000045:                                                                                                  #  A AND L CONTAIN A DP(1S) ANGLE SCALED BY 180 DEGS TO BE ADDED TO KMPAC.
000046:                                                                                                  #  RESULT IS PLACED IN KMPAC.  TIMING = 6 MCT (22 MCT ON OVERFLOW)
000047:
000048: 21,2040           21511        DPADD              DAS      KMPAC
000049: 21,2041           00006                           EXTEND
000050: 21,2042           12057                           BZF      TSK        +1                         #  NO OVERFLOW
000051: 21,2043           11510                           CCS      KMPAC
000052: 21,2044           12060                           TCF      DPADD+                                #  + OVERFLOW
000053: 21,2045           12047                           TCF      +2
000054: 21,2046           12062                           TCF      DPADD-                                #  - OVERFLOW
000055: 21,2047           11511                           CCS      KMPAC      +1
000056: 21,2050           12065                           TCF      DPADD2+                               #  UPPER = 0, LOWER +
000057: 21,2051           12053                           TCF      +2
000058: 21,2052           40000                           COM                                            #  UPPER = 0, LOWER -
000059: 21,2053           64672                           AD       POSMAX                                #  LOWER = 0, A=0
000060: 21,2054           55511                           TS       KMPAC      +1                         #  CAN NOT OVERFLOW
000061: 21,2055           34672                           CA       POSMAX                                #  UPPER WAS = 0
000062: 21,2056           55510        TSK                TS       KMPAC
000063: 21,2057           00002                           TC       Q
000064:
000065: 21,2060           64674        DPADD+             AD       NEGMAX                                #  KMPAC GREATER THAN 0
000066: 21,2061           12056                           TCF      TSK
000067:


000069: 21,2062           40000        DPADD-             COM
000070: 21,2063           64672                           AD       POSMAX                                #  KMPAC LESS THAN 0
000071: 21,2064           12056                           TCF      TSK
000072:
000073: 21,2065           64674        DPADD2+            AD       NEGMAX                                #  CAN NOT OVERFLOW
000074: 21,2066           55511                           TS       KMPAC      +1
000075: 21,2067           34674                           CA       NEGMAX                                #  UPPER WAS = 0
000076: 21,2070           12056                           TCF      TSK
000077:


End of include-file MYSUBS.agc.  Parent file is MAIN.agc


