
Source Code


000002:                                                                                                 #  Copyright:    Public domain.
000003:                                                                                                 #  Filename:      P11.agc
000004:                                                                                                 #  Purpose:      Part of the source code for Colossus build 237.
000005:                                                                                                 #                This is for the Command Module's (CM) Apollo Guidance
000006:                                                                                                 #                Computer (AGC), we believe for Apollo 8.
000007:                                                                                                 #  Assembler:    yaYUL
000008:                                                                                                 #  Contact:      Jim Lawton <jim DOT lawton AT gmail DOT com>
000009:                                                                                                 #  Website:      www.ibiblio.org/apollo/index.html
000010:                                                                                                 #  Page scans:   www.ibiblio.org/apollo/ScansForConversion/Colossus237/
000011:                                                                                                 #  Mod history:  2011-02-06 JL   Adapted from corresponding Colossus 249 file.
000012:                                                                                                 #                 2016-08-14 RSB  Added SBANKs for addressing discrepancies.
000013:
000014:                                                                                                 # # Page 522
000015:                                                                                                 #  EARTH ORBIT INSERTION MONITOR PROGRAM
000016:                                                                                                 #  *************************************
000017:
000018:                                                                                                 #  PROGRAM DESCRIPTION -P11-
000019:
000020:                                                                                                 #      MOD NO. 1
000021:                                                                                                 #      MOD BY ELIASSEN
000022:
000023:                                                                                                 #  FUNCTIONAL DESCRIPTION
000024:
000025:                                                                                                 #      P11 IS INITIATED BY
000026:
000027:                                                                                                 #             A) GYROCOMPASS PRG P02 WHEN LIFTOFF DISCRETE IS RECEIVED OR
000028:                                                                                                 #             B) BACKUP THRU VERB 75 ENTER
000029:
000030:                                                                                                 #      PROGRAM WILL
000031:                                                                                                 #            1. ZERO CMC CLOCK AT LIFTOFF (OR UPON RECEIPT OF BACKUP)
000032:                                                                                                 #            2. UPDATE TEPHEM TO TIME CMC CLOCK WAS ZEROED
000033:                                                                                                 #            3. INITIATE SERVICER AT PREREAD1
000034:                                                                                                 #            4. CHANGE MAJOR MODE TO 11
000035:                                                                                                 #            5. CLEAR DSKY IN CASE OF V 75
000036:                                                                                                 #            6. STORE LIFTOFF IMU-CDU ANGLES FOR ATT. ERROR DISPLAY
000037:                                                                                                 #            7. TERMINATE GYROCOMPASSING -   -
000038:                                                                                                 #            8. COMPUTE INITIAL VECTORS  RN, VN                -  -  -
000039:                                                                                                 #            9. COMPUTE REFSMMAT FOR PRELAUNCH ALIGNMENT WHERE U ,U ,U  ARE
000040:                                                                                                 #                   -        -                                  X  Y  Z
000041:                                                                                                 #                   U =UNIT(-R) LOCAL VERTICAL AT TIME OF LIFTOFF
000042:                                                                                                 #                    Z
000043:                                                                                                 #                   -        -   -
000044:                                                                                                 #                   U =UNIT (A), A=HOR VECTOR AT LAUNCH AZIMUTH
000045:                                                                                                 #                    X
000046:                                                                                                 #                   -  -   -
000047:                                                                                                 #                   U =U * U
000048:                                                                                                 #                    U  Z   X
000049:
000050:                                                                                                 #            10. SET REFSMMAT KNOWN FLAG
000051:                                                                                                 #            11. SET AVGEXIT IN SERVICER TO VHHDOT TO
000052:                                                                                                 #                COMPUTE AND DISPLAY NOUN 62 EVERY 2 SECONDS
000053:
000054:                                                                                                 #                R1  V1  - INERTIAL VELOCITY MAGNITUDE IN FPS
000055:                                                                                                 #                R2  HDOT - RATE OF CHANGE OF VEHICLE VEL IN FPS
000056:                                                                                                 #                R3  H    - VEHICLE ALTITUDE ABOVE PAD IN NM
000057:
000058:                                                                                                 #            12. DISPLAY BODY AXES ATT. ERRORS ON FDAI NEEDLES
000059:
000060:                                                                                                 #                A) FROM L.O. TO RPSTART (APPROX. 0 TO +10SECS AFTER L.O.)
000061:                                                                                                 #                   DESIRED ATTITUDE IS AS STORED AT L.O.
000062:                                                                                                 #                B) FROM RPSTART TO POLYSTOP (APPROX. +10 TO +133SECS AFTER LO)
000063:                                                                                                 #                   DESIRED ATTITUDE IS SPECIFIED BY CMC PITCH AND ROLL
000064:                                                                                                 #                   POLYNOMIALS DURING SATURN ROLLOUT AND PITCHOVER
000065:
000066:                                                                                                 # # Page 523
000067:                                                                                                 #                   THE DISPLAY IS RUN AS LOW PRIORITY JOB APPROX.
000068:                                                                                                 #                   EVERY 1/2 SEC OR LESS AND IS DISABLED UPON OVFLO OF TIME1
000069:
000070:                                                                                                 #  SUBROUTINES CALLED
000071:
000072:                                                                                                 #            2PHSCHNG  BANKCALL  CALCGRA   CDUTRIG   CLEANDSP  DANZIG
000073:                                                                                                 #            DELAYJOB  EARTHR    ENDOFJOB  FINDVAC   IBNKCALL
000074:                                                                                                 #            INTPRET   LALOTORV  NEEDLER   NEWMODEX  PHASCHNG
000075:                                                                                                 #            POSTJUMP  POWRSERS  PREREAD1  REGODSPR  S11.1
000076:                                                                                                 #            SERVEXIT  TASKOVER  TCDANZIG  V1STO25   WAITLIST
000077:
000078:                                                                                                 #  ASTRONAUT REQUESTS (IF ALTITUDE ABOVE 300,000 FT)
000079:
000080:                                                                                                 #      DSKY -
000081:                                                                                                 #            MONITOR DISPLAY OF TIME TO PERIGEE R1 HOURS
000082:                                                                                                 #                                               R2 MINUTES
000083:
000084:                                                                                                 #      DSKY -
000085:                                                                                                 #            MONITOR DISPLAY OF R1 APOGEE ALTITUDE IN NAUTICAL MILES
000086:                                                                                                 #                               R2 PERIGEE ALTITUDE IN NAUTICAL MILES
000087:                                                                                                 #                               R3 TFF IN MINUTES/SECS
000088:
000089:                                                                                                 #      IF ASTRONAUT HAS REQUESTED ANY OF THESE DISPLAYS HE MUST
000090:                                                                                                 #      HIT KEY RELEASE BUTTON TO RETURN TO NORMAL NOUN 62 DISPLAY.
000091:
000092:                                                                                                 #  NORMAL EXIT MODE
000093:
000094:                                                                                                 #      ASTRONAUT  VERB 37 ENTER 00 ENTER
000095:
000096:                                                                                                 #  ALARM MODES - NONE
000097:
000098:                                                                                                 #  ABORT EXIT MODES -
000099:
000100:                                                                                                 #      EARLY BOOST ABORT FOLLOWED BY REENTRY   V 37 E 62 E
000101:                                                                                                 #      LATE  BOOST ABORT FOLLOWED BY REENTRY   V 37 E 61 E
000102:
000103:                                                                                                 #  OUTPUT
000104:
000105:                                                                                                 #      TLIFTOFF (DP)  TEPHEM (TP)
000106:                                                                                                 #      REFSMMAT
000107:                                                                                                 #      DSKY DISPLAY
000108:                                                                                                 #      FDAI DISPLAY
000109:
000110:                                                                                                 #  ERASABLE INITIALIZATION
000111:
000112:                                                                                                 #      AZO, AXO, -AYO
000113:                                                                                                 #      LATITUDE
000114:                                                                                                 #      PADLONG
000115:                                                                                                 #      TEPHEM
000116:                                                                                                 #      PGNCSALT
000117:                                                                                                 # # Page 524
000118:                                                                                                 #      POLYNUM THRU POLYNUM +14D)
000119:                                                                                                 #      RPSTART
000120:                                                                                                 #      POLYSTOP
000121:                                                                                                 #  FLAGS SET OR RESET
000122:
000123:                                                                                                 #      SET REFSMFLG
000124:                                                                                                 #      SET DVMON IDLE FLAG
000125:                                                                                                 #      CLEAR ERADFLAG
000126:
000127:                                                                                                 #  DEBRIS
000128:
000129:                                                                                                 #      LIFTTEMP
000130:                                                                                                 #      POLYNUM THRU POLYNUM +7
000131:                                                                                                 #      SPOLYARG
000132:                                                                                                 #      BODY1, BODY2, BODY3
000133:                                                                                                 #      VMAG2, ALTI, HDOT
000134:                                                                                                 #      CENTRALS, CORE SET, AND VAC AREAS
000135:
000136: ???????                                          COUNT    34/P11
000137:
000138: ???????     4730               BITS5-6           =        SUPER011
000139: 42,3521                                          BANK     42
000140: 34,2000                                          SETLOC   P11ONE
000141: 34,2000                                          BANK
000142:
000143: 34,2002  E3,1706                                 EBANK=   TEPHEM
000144: 34,2002           34744        P11               CA       EBANK3
000145: 34,2003           54003                          TS       EBANK
000146:
000147: 34,2004           00006                          EXTEND
000148: 34,2005           32273                          DCA      REP11S                                #  DIRECT RESTARTS TO REP11
000149: 34,2006           52757                          DXCH     -PHASE3
000150: 34,2007           44714                          CS       ZERO
000151: 34,2010           22007                          ZL
000152: 34,2011           55265                          TS       LIFTTEMP
000153: 34,2012           52763                          DXCH     -PHASE5                               #  INACTIVE GROUP 5, PRELAUNCH PROTECTION
000154: 34,2013           00006        P11+7             EXTEND
000155: 34,2014           32275                          DCA      REP11SA
000156: 34,2015           53337                          DXCH     TLIFTOFF
000157:
000158: 34,2016           00006                          EXTEND
000159: 34,2017           30025                          DCA      TIME2
000160: 34,2020           53266                          DXCH     LIFTTEMP                              #  FOR RESTARTS
000161:
000162: 34,2021           34714                          CA       ZERO
000163: 34,2022           22007                          ZL
000164: 34,2023           52025                          DXCH     TIME2
000165: 34,2024           53337        REP11A-2          DXCH     TLIFTOFF
000166: 34,2025           52757        REP11A-1          DXCH     -PHASE3                               #  RESET PHASE
000167:
000168:                                                                                                 # # Page 525
000169: 34,2026           00004        REP11A            INHINT
000170: 34,2027           00006                          EXTEND
000171: 34,2030           31710                          DCA      TEPHEM     +1
000172: 34,2031           53271                          DXCH     TEPHEM1    +1
000173: 34,2032           31706                          CA       TEPHEM
000174: 34,2033           57267                          XCH      TEPHEM1
000175:
000176: 34,2034           00006                          EXTEND
000177: 34,2035           31337                          DCA      TLIFTOFF
000178: 34,2036           21271                          DAS      TEPHEM1    +1
000179: 34,2037           27267                          ADS      TEPHEM1                               #  CORRECTOFOR OVERFLOW
000180:
000181: 34,2040           05301                          TC       PHASCHNG
000182: 34,2041           05023                          OCT      05023
000183: 34,2042           22000                          OCT      22000
000184:
000185: 34,2043           00004                          INHINT
000186: 34,2044           00006                          EXTEND
000187: 34,2045           31270                          DCA      TEPHEM1
000188: 34,2046           53707                          DXCH     TEPHEM
000189: 34,2047           31271                          CA       TEPHEM1    +2
000190: 34,2050           57710                          XCH      TEPHEM     +2
000191:
000192: 34,2051           32000                          CAF      EBDVCNT
000193: 34,2052           54003                          TS       EBANK
000194: 34,2053  E7,1431                                 EBANK=   DVCNTR
000195: 34,2053           04633                          TC       IBNKCALL
000196: 34,2054           76631                          CADR     PREREAD1                              #  ZERO PIPS AND INITIALIZE AVERAGEG
000197:
000198: 34,2055           05301                          TC       PHASCHNG
000199: 34,2056           05023                          OCT      05023                                 #  CONTINUE HERE ON RESTART
000200: 34,2057           22000                          OCT      22000
000201:
000202: 34,2060           34731                          CAF      .5SEC                                 #  START ATT ERROR DISPLAY
000203: 34,2061           05140                          TC       WAITLIST                              #  IN .5 SEC
000204: 34,2062  E6,1704                                 EBANK=   BODY3
000205: 34,2062           02314 70066                    2CADR    ATERTASK
000206:
000207: 34,2064           05243                          TC       NEWMODEX                              #  DISPLAY MM 11
000208: 34,2065           00013                          MM       11         B-14
000209:
000210: 34,2066           04555                          TC       BANKCALL
000211: 34,2067           20607                          CADR     CLEANDSP                              #  CLEAR DSKY IN CASE OF V75
000212:
000213: 34,2070           05261                          TC       2PHSCHNG
000214: 34,2071           40514                          OCT      40514                                 #  PROTECT ATERTASK
000215: 34,2072           00073                          OCT      00073
000216: 34,2073           32001                          CAF      EBQPLACE
000217: 34,2074           54003                          TS       EBANK
000218:                                                                                                 # # Page 526
000219: 34,2075  E5,1426                                 EBANK=   QPLACES
000220: 34,2075           32276                          CA       P11XIT                                #  SET EXIT FROM PROUT IN EARTHR
000221: 34,2076           55426                          TS       QPLACES
000222: 34,2077           22007                          ZL                                             #  STORE DP GIMBAL
000223: 34,2100           30032                          CA       CDUX                                  #  ANGLES FOR ATTITUDE
000224: 34,2101           53760                          DXCH     OGC                                   #  ERROR DISPLAY
000225: 34,2102           22007                          ZL                                             #  AFTER L.O.
000226: 34,2103           30033                          CA       CDUY
000227: 34,2104           53762                          DXCH     IGC
000228: 34,2105           22007                          ZL
000229: 34,2106           30034                          CA       CDUZ
000230: 34,2107           53764                          DXCH     MGC
000231: 34,2110           06006                          TC       INTPRET                               #        -
000232: 34,2111           74575                          VLOAD    VSR1                                  #  SCALE OGC B-1
000233: 34,2112           02760                                   OGC
000234: 34,2113           02760                          STORE    OGC
000235: 34,2114           64375                          VLOAD    MXV
000236: 34,2115           02467                                   THETAN
000237: 34,2116           02672                                   XSM
000238: 34,2117           53372                          VSL1     VAD
000239: 34,2120           02650                                   ERCOMP
000240: 34,2121           16650                          STODL    ERCOMP
000241: 34,2122           01337                                   TLIFTOFF
000242: 34,2123           52131                          SSP      GOTO
000243: 34,2124           00052                                   S2
000244: 34,2125           66424                          CADR     PROUT                                 #  RETURN FROM EARTHR
000245: 34,2126           66373                                   EARTHR     +3
000246: 34,2127           06006        MATRXJOB          TC       INTPRET
000247: 34,2130           77731                          SSP                                            #  ZERO RTX2
000248: 34,2131           03747                                   RTX2                                  #  FOR
000249: 34,2132           00000                                   0                                     #  EARTH
000250: 34,2133           65345                          DLOAD    PDDL
000251: 34,2134           01273                                   PGNCSALT                              #  ALTITUDE OF PGNCS
000252: 34,2135           01264                                   PADLONG                               #  LONGITUDE
000253: 34,2136           55525                          PDDL     VDEF
000254: 34,2137           02403                                   LATITUDE                              #  GEODETIC LATITUDE
000255: 34,2140           15104                          STODL    LAT                                   #  LAT,LONG,ALT ARE CONSECUTIVE
000256: 34,2141           15332                                   HI6ZEROS                              #  TIME = 0
000257: 34,2142           45014                          CLEAR    CALL
000258: 34,2143           00662                                   ERADFLAG
000259: 34,2144           26373                                   LALOTORV                              #  CONVERT TO POSITION VECTOR IN REF.COORDS
000260:
000261: 34,2145           35232                          STCALL   RN1                                   #               -
000262: 34,2146           77260                                   CALCGRAV                              #  RETURN WITH GRAVITY
000263: 34,2147           77656                          UNIT                                           #  IN MPAC
000264: 34,2150           25752                          STOVL    REFSMMAT   +12D                       #  UNITZ = UNIT(GRAV)
000265: 34,2151           01232                                   RN1
000266: 34,2152           74235                          VXV      VXSC
000267: 34,2153           01714                                   UNITW                                 #  SCALED AT 1
000268: 34,2154           30300                                   -ERTHRAT                              #  V = EARTHRATE X R
000269:                                                                                                 # # Page 527
000270: 34,2155           77712                          VSL4                                           #  SCALE TO 2(7) M/CS
000271: 34,2156           25240                          STOVL    VN1
000272: 34,2157           01752                                   REFSMMAT   +12D
000273: 34,2160           53435                          VXV      UNIT
000274: 34,2161           01714                                   UNITW                                 #  (REF3 X UNITW) = EAST
000275: 34,2162           47206                          PUSH     VXV
000276: 34,2163           01752                                   REFSMMAT   +12D                       #   (EAST X REF3) = -SOUTH
000277: 34,2164           65256                          UNIT     PDDL
000278: 34,2165           02634                                   LAUNCHAZ                              #   COS(AZ)*SOUTH
000279: 34,2166           74346                          COS      VXSC
000280: 34,2167           77626                          STADR
000281: 34,2170           62041                          STODL    REFSMMAT                              #  TEMPORARY STORAGE
000282: 34,2171           02634                                   LAUNCHAZ
000283: 34,2172           74356                          SIN      VXSC                                  #   SIN(AZ)*EAST
000284: 34,2173           53455                          VAD      UNIT                                  #   SIN(AZ)*EAST - COS(AZ)*SOUTH = REF1
000285: 34,2174           01736                                   REFSMMAT
000286: 34,2175           01736                          STORE    REFSMMAT
000287:
000288: 34,2176           53435                          VXV      UNIT                                  #   (REF1 X REF3) = -REF3
000289: 34,2177           01752                                   REFSMMAT   +12D
000290: 34,2200           77676                          VCOMP
000291: 34,2201           01744                          STORE    REFSMMAT   +6
000292: 34,2202           45345                          DLOAD    DSU
000293: 34,2203           15330                                   DPHALF                                #  1/2 REV
000294: 34,2204           02634                                   LAUNCHAZ
000295: 34,2205           65215                          DAD      PDDL
000296: 34,2206           02401                                   AZIMUTH
000297: 34,2207           03301                                   SATRLRT                               #  SET  SATRLRT = -SATRLRT IF
000298: 34,2210           45565                          SIGN     STADR                                 #  (1/2REV -LAVNCHAZ +AZIMUTH) IS NEGATIVE
000299: 34,2211           74476                          STORE    SATRLRT                               #  FOR ROLL CALC IN FDAI ATT. ERROR DISPLAY
000300: 34,2212           77414                          SET      EXIT
000301: 34,2213           01462                                   REFSMFLG                              #  SET REFSMMAT KNOWN FLAG
000302:
000303: 34,2214           05301                          TC       PHASCHNG
000304: 34,2215           04023                          OCT      04023
000305:
000306: 34,2216           00006                          EXTEND
000307: 34,2217           32302                          DCA      P11SCADR
000308: 34,2220           53223                          DXCH     AVGEXIT                               #  SET AVGEXIT
000309:
000310: 34,2221           37665                          CA       PRIO31                                #  2 SECONDS AT 2(+8)
000311: 34,2222           55074                          TS       1/PIPADT
000312:
000313: 34,2223  E6,1501                                 EBANK=   RCSFLAGS
000314: 34,2223           34752                          CA       EBANK6
000315: 34,2224           54003                          TS       EBANK
000316:
000317: 34,2225           00004                          INHINT
000318: 34,2226           44714                          CS       ZERO
000319: 34,2227           55063                          TS       TBASE5                                #  RESTART READACCS 2 SECONDS AFTER LIFTOFF
000320:                                                                                                 # # Page 528
000321: 34,2230           40025                          CS       TIME1
000322: 34,2231           64735                          AD       2SECS                                 #  DO READACCS 2 SECONDS AFTER LIFTOFF
000323:
000324: 34,2232           10000                          CCS      A                                     #  CHECK TO INSURE DT IS POSITIVE
000325: 34,2233           12236                          TCF      +3                                    #  TIME POSITIVE
000326: 34,2234           12236                          TCF      +2                                    #  CANNOT GET HERE
000327: 34,2235           34714                          CA       ZERO                                  #  TIME NEGATIVE - SET TO 1
000328: 34,2236           64712                          AD       ONE                                   #  RESTORE TIME  -  OR MAKE POSITIVE
000329:
000330: 34,2237           05140                          TC       WAITLIST
000331: 34,2240  E6,1661                                 EBANK=   AOG
000332: 34,2240           02653 76066                    2CADR    READACCS
000333: 34,2242           05261                          TC       2PHSCHNG
000334: 34,2243           00003                          OCT      00003                                 #  TURN OFF GROUP 3
000335: 34,2244           00025                          OCT      00025                                 #  PROTECT NORMLIZE AND READACCS
000336:
000337: 34,2245           04574                          TC       POSTJUMP
000338: 34,2246           77145                          CADR     NORMLIZE                              #  DO NORMLIZE AND ENDOFJOB
000339:
000340:
000341: 34,2247  E3,1706                                 EBANK=   TEPHEM
000342: 34,2247           00004        REP11             INHINT
000343: 34,2250           10763                          CCS      PHASE5
000344: 34,2251           05112                          TC       ENDOFJOB
000345:
000346: 34,2252           11265                          CCS      LIFTTEMP
000347: 34,2253           12257                          TCF      +4
000348: 34,2254           12257                          TCF      +3
000349: 34,2255           12257                          TCF      +2
000350: 34,2256           12013                          TCF      P11+7
000351:
000352: 34,2257           41336                          CS       TLIFTOFF
000353: 34,2260           00006                          EXTEND
000354: 34,2261           62267                          BZMF     ENDREP11
000355:
000356: 34,2262           10024                          CCS      TIME2                                 #  **TIME2 MUST BE NON-ZERO AT LIFTOFF**
000357: 34,2263           12021                          TCF      REP11A     -5                         #  T2,T1 NOT YET ZEROED, GO AND DO IT
000358:
000359: 34,2264           00006                          EXTEND                                         #  T2,T1 ZEROED, SET TLIFTOFF
000360: 34,2265           31266                          DCA      LIFTTEMP
000361: 34,2266           12024                          TCF      REP11A-2
000362:
000363: 34,2267           00006        ENDREP11          EXTEND
000364: 34,2270           32275                          DCA      REP11SA
000365: 34,2271           12025                          TCF      REP11A-1
000366:
000367:
000368: 34,2272           77766 00011  REP11S            2OCT     77766      00011
000369:                                                                                                 # # Page 529
000370: 34,2274           77764 00013  REP11SA           2OCT     77764      00013
000371:
000372:
000373: 34,2276           02451        P11XIT            GENADR   P11OUT
000374: 34,2277           71704 41735  -ERTHRAT          2DEC*    -7.292115138 E-7        B18*            #  - EARTH RATE AT 2(18)
000375: 34,2301  E6,1704                                 EBANK=   BODY3
000376: 34,2301           02303 70066  P11SCADR          2CADR    VHHDOT
000377: 34,2303  E6,1704                                 EBANK=   BODY3
000378:                                                                                                 #  VHHDOT IS EXECUTED EVERY 2 SECONDS TO DISPLAY ON DSKY
000379:                                                                                                 #                       VI INERTIAL VELOCITY MAGNITUDE
000380:                                                                                                 #                       HDOT  RATE OF CHANGE OF ALT ABOVE L PAD RADIUS
000381:                                                                                                 #                       H   ALTITUDE ABOVE L PAD RADIUS
000382:
000383: 34,2303           06006        VHHDOT            TC       INTPRET
000384: 34,2304           77624                          CALL                                           #  LOAD VMAGI, ALTI,
000385: 34,2305           70436                                   S11.1                                 #  HDOT FOR DISPLAY
000386: 34,2306           77776                          EXIT
000387: 34,2307           32511                          CAF      V06N62                                #  DISPLAY IN R1   R2    R3
000388: 34,2310           04555                          TC       BANKCALL                              #             VI   HDOT  H
000389: 34,2311           20621                          CADR     REGODSPR                              #  DISPLAY INTERFACE - IMMEDIATE RETURN
000390: 34,2312           04555                          TC       BANKCALL
000391: 34,2313           77136                          CADR     SERVEXIT                              #  END OF P11SERVE CYCLE
000392: 34,2314           34701        ATERTASK          CAF      PRIO1                                 #  ESTABLISH JOB TO DISPLAY ATT ERRORS
000393: 34,2315           05042                          TC       FINDVAC                               #  COMES HERE AT L.O. + .33 SEC
000394: 34,2316  E6,1704                                 EBANK=   BODY3
000395: 34,2316           02326 70066                    2CADR    ATERJOB
000396: 34,2320           41501                          CS       RCSFLAGS                              #  SET BIT3 FOR
000397: 34,2321           74710                          MASK     BIT3                                  #  NEEDLER
000398: 34,2322           27501                          ADS      RCSFLAGS                              #  INITIALIZATION PASS
000399: 34,2323           04633                          TC       IBNKCALL                              #  AND GO
000400: 34,2324           42404                          CADR     NEEDLER                               #  DO IT
000401: 34,2325           05213                          TC       TASKOVER
000402:                                                                                                 #  THIS SECTION PROVIDES ATTITUDE ERROR DISPLAYS TO THE FDAI DURING SONE BOOST
000403:
000404:                                                                                                 #                                           COMPUTE DESIRED PITCH W.R.T. LAUNCH SITE LOCAL VERTICAL.
000405:                                                                                                 #                                           PITCH = -.0000469184028+.00137571556*T+.0231502280*T*T-.0205929365*T*T*T
000406:                                                                                                 #                                                   SCALED TO 32 REVOLUTIONS
000407:                                                                                                 #                                           IF TL = TIME FROM LAUNCH IN SECONDS, THEN   T = 100(TL-10SEC)/(2**14)
000408:                                                                                                 #                                           WHERE   TL GE  10 SEC
000409:                                                                                                 #                                                   TL LE 133 SEC .
000410:
000411:                                                                                                 #                                           COMPUTE DESIRED ROLL WEHRE ROLL EQUALS COUNTER-CLOCKWISE ANGLE FROM
000412:                                                                                                 #                                           LAUNCHAZ TO -Z(S/C) AS SEEN FROM X(S/C).
000413:                                                                                                 #                                           ROLL = LAUNCHAZ-AZIMUTH-.5 +SATRLRT*T      IN REV
000414:                                                                                                 #                                           SATRLRT = RATE OF ROLL IN REV/CENTI-SEC
000415:                                                                                                 #                                           T,IN CENTI-SEC,IS DEFINED AS ABOVE,INCLUSIVE OF TIME RESTRICTIONS
000416:                                                                                                 # # Page 530
000417:                                                                                                 #                                           FOR SIMPLICITY, LET   P = 2*PI*PITCH
000418:                                                                                                 #                                                                 R = 2*PI*ROLL
000419:
000420:                                                                                                 #                                           CONSTRUCT THE TRANSFORMATION MATRIX, TSMV, GIVING DESIRED S/C AXES IN
000421:                                                                                                 #                                           TERMS OF SM COORDINATES. LET THE RESULTING ROWS EQUAL THE VECTORS XDC,
000422:                                                                                                 #                                           YDC,AND ZDC.
000423:
000424:                                                                                                 #                                            *     (    SIN(P)          0         -COS(P)    )   (XDC)
000425:                                                                                                 #                                           TSMV = (-SIN(R)*COS(P)   -COS(R)   -SIN(R)*SIN(P)) = (YDC)
000426:                                                                                                 #                                                  (-COS(R)*COS(P)    SIN(R)   -COS(R)*SIN(P))   (ZDC)
000427:
000428:                                                                                                 #                                           XDC,YDC,ZDC ARE USED AS INPUT TO CALCGTA FOR THE EXTRACTION OF THE
000429:                                                                                                 #                                           EULER SET OF ANGLES WHICH WILL BRING THE SM INTO THE DESIRED
000430:                                                                                                 #                                           ORIENTATION. THIS EULER SET, OGC, IGC, AND MGC, MAY BE IDENTIFIED
000431:                                                                                                 #                                           AS THE DESIRED CDU ANGLES.
000432:
000433:                                                                                                 #                                           (XDC)                   (OGC)
000434:                                                                                                 #                                           (YDC) ---) CALCGTA ---) (IGC)
000435:                                                                                                 #                                           (ZDC)                   (MGC)
000436:
000437:                                                                                                 #                                                              -
000438:                                                                                                 #                                           DEFINE THE VECTOR DELTACDU.
000439:
000440:                                                                                                 #                                            -         (OGC)   (CDUX)
000441:                                                                                                 #                                           DELTACDU = (IGC) - (CDUY)
000442:                                                                                                 #                                                      (MGC)   (CDUZ)
000443:
000444:                                                                                                 #                                                                    -          -    *    -
000445:                                                                                                 #                                           COMPUTE ATTITUDE ERRORS, A, WHERE   A = TGSC*DELTACDU
000446:
000447:                                                                                                 #                                            *     (1        SIN(CDUZ)            0    )   THE GIMBAL ANGLES
000448:                                                                                                 #                                           TGSC = (0   COS(CDUX)*COS(CDUZ)   SIN(CDUX)) = TO SPACECRAFT AXES
000449:                                                                                                 #                                                  (0  -SIN(CDUX)*COS(CDUZ)   COS(CDUX))   CONVERSION MATRIX
000450:
000451:                                                                                                 #                                                                -
000452:                                                                                                 #                                           THE ATTITUDE ERRORS, A, ARE STORED ONE HALF SINGLE PRECISION IN
000453:                                                                                                 #                                           THE REGISTERS AK, AK1, AK2 AS INPUT TO NEEDLER, THE FDA1 ATTITUDE
000454:                                                                                                 #                                           ERROR DISPLAY ROUTINE.
000455:
000456: 34,2326           30024        ATERJOB           CAE      TIME2                                 #  CHECK IF MORE THAN
000457: 34,2327           00006                          EXTEND                                         #  164 SECONDS FROM L.O.
000458: 34,2330           62332                          BZMF     +2
000459: 34,2331           12424                          TCF      SATCLEAR                              #  YES - CLEAR ERROR COUNTER + EXIT
000460: 34,2332           30102                          CAE      FLAGWRD6                              #  CHECK FLAGWRD6
000461: 34,2333           74105                          MASK     OCT60000                              #  BITS 14 + 15
000462: 34,2334           00006                          EXTEND
000463: 34,2335           12337                          BZF      ATTDISP                               #  NO SATURN STICK ON
000464: 34,2336           02420                          TC       ATERSET                               #  EXIT - SATURN STICK IN USE
000465: 34,2337           41702        ATTDISP           CS       RPSTART                               #  PITCH/ROLL START TIME
000466: 34,2340           60025                          AD       TIME1
000467:                                                                                                 # # Page 531
000468: 34,2341           00006                          EXTEND
000469: 34,2342           62504                          BZMF     NOPOLY                                #  IF MINUS THEN ATTITUDE HOLD
000470: 34,2343           54154                          TS       MPAC                                  #  MPAC = TIME1 - RPSTART
000471: 34,2344           55707                          TS       SPOLYARG                              #  SAVE FOR USE IN ROLL CALCULATION
000472: 34,2345           61703                          AD       POLYSTOP                              #  NEG PITCHOVER TIME IN CSECS
000473: 34,2346           00006                          EXTEND
000474: 34,2347           62351                          BZMF     +2
000475: 34,2350           12416                          TCF      SATOUT                                #  EXIT IF TIME1 GR THAN (RPSTART-POLYSTOP)
000476: 34,2351           31661                          CAE      POLYNUM
000477: 34,2352           54001                          TS       L
000478: 34,2353           32510                          CAF      COEFPOLY                              #  EVALUATE PITCH POLYNOMIAL
000479: 34,2354           07164                          TC       POWRSERS                              #  SCALED TO 32 REVOLUTIONS
000480:
000481:                                                                                                 #                                           THE FOLLOWING PAD LOADED COEFFICIENTS ARE
000482:                                                                                                 #                                           USED TO COMPUTE THE PITCH POLYNOMIAL
000483:
000484:                                                                                                 #                                           ----- SUNDISK SI COEFS -----
000485:                                                                                                 #                                           POLYNUM         FIVE                    POLYNOMIAL DEGREE -1
000486:                                                                                                 #                                                   +1      2DEC    -.469184028 E-4 A0
000487:                                                                                                 #                                                   +3      2DEC    .137571556 E-2  A1
000488:                                                                                                 #                                                   +5      2DEC    .231502280 E-1  A2
000489:                                                                                                 #                                                   +7      2DEC    -.205929365 E-1 A3
000490:                                                                                                 #                                                   +9D     2DEC    0               A4
000491:                                                                                                 #                                                   +11D    2DEC    0               A5
000492:                                                                                                 #                                                   +13D    2DEC    0               A6
000493:                                                                                                 #                                           POLYLOC         =       POLYNUM +10D
000494:
000495: 34,2355           34714                          CA       ZERO                                  #  RETURN WITH PITCH(32REV)
000496: 34,2356           54163                          TS       MODE                                  #  STORED MPAC, MPAC +1
000497: 34,2357           06006                          TC       INTPRET
000498: 34,2360           54201                          SETPD    SL                                    #  32(PITCH(32REV)) = PITCH(REV)
000499: 34,2361           00001                                   0
000500: 34,2362           20206                                   5
000501: 34,2363           77606                          PUSH                                           #  LET  P(RAD) = 2*PI*PITCH(REV)
000502:
000503: 34,2364           77650                          GOTO
000504: 34,2365           76103                                   ATTDISP1                              #  AROUND SETLOC
000505:                                                                                                 #                                                                        *
000506:                                                                                                 #                                           CONSTRUCT SM TO S/C MATRIX, TSMV
000507:
000508: 37,2000                                          SETLOC   P11TWO
000509: 37,2000                                          BANK                                           #  36 IN COL., 34 IN DISK
000510:
000511: 37,2103                                          COUNT    36/P11
000512:
000513: 37,2103           57546        ATTDISP1          COS      DCOMP
000514: 37,2104           14017                          STODL    14D                                   #  -.5*COS(P)
000515: 37,2105           77756                          SIN
000516: 37,2106           14013                          STODL    10D                                   #  .5*SIN(P)
000517: 37,2107           15332                                   ZEROVECS
000518:                                                                                                 # # Page 532
000519: 37,2110           00015                          STORE    12D                                   #  0
000520:
000521:                                                                                                 #                                           EVALUATE ROLL = LAUNCHAZ-AZIMUTH-.5+SATRLRT*T
000522: 37,2111           41335                          SLOAD    DMP
000523: 37,2112           03310                                   SPOLYARG                              #  TIME1 - RSPSTART ,CSECS B-14.
000524: 37,2113           03301                                   SATRLRT
000525: 37,2114           45261                          SL       DSU
000526: 37,2115           20217                                   14D
000527: 37,2116           15330                                   DPHALF
000528: 37,2117           45215                          DAD      DSU                                   #  ASSUMING X(SM) ALONG LAUNCH AZIMUTH,
000529: 37,2120           02634                                   LAUNCHAZ                              #  LAUNCHAZ = ANGLE FROM NORTH TO X(SM).
000530: 37,2121           02401                                   AZIMUTH                               #  AZIMUTH = -ANGLE FROM NORTH TO Z(S/C)
000531: 37,2122           77634                          RTB                                            #  DETERMINE IF ROLLOUT
000532: 37,2123           70473                                   RLTST                                 #  IS COMPLETED
000533: 37,2124           71406        ATTDISPR          PUSH     COS                                   #  CONTINUE COMPUTING TSMV
000534: 37,2125           77606                          PUSH                                           #  LET  R(RAD) = 2*PI*ROLL(REV)
000535: 37,2126           72405                          DMP      SL1
000536: 37,2127           00017                                   14D
000537: 37,2130           14027                          STODL    22D                                   #  -.5*COS(R)*COS(P)
000538: 37,2131           77676                          DCOMP
000539: 37,2132           00023                          STORE    18D                                   #  -.5*COS(R)
000540: 37,2133           72405                          DMP      SL1
000541: 37,2134           00013                                   10D
000542: 37,2135           14033                          STODL    26D                                   #  -.5*COS(R)*SIN(P)
000543: 37,2136           41556                          SIN      PUSH
000544: 37,2137           00031                          STORE    24D                                   #  .5*SIN(R)
000545: 37,2140           72405                          DMP      SL1
000546: 37,2141           00017                                   14D
000547: 37,2142           14021                          STODL    16D                                   #  -.5*SIN(R)*COS(P)
000548: 37,2143           77676                          DCOMP
000549: 37,2144           72405                          DMP      SL1
000550: 37,2145           00013                                   10D
000551: 37,2146           24025                          STOVL    20D                                   #  -.5*SIN(R)*SIN(P)
000552: 37,2147           00013                                   10D
000553:
000554:                                                                                                 #                                           FROM TSMV FIND THE HALF UNIT VECTORS  XDC,YDC,ZDC = INPUT TO CALCGTA
000555:
000556: 37,2150           77656                          UNIT
000557: 37,2151           26714                          STOVL    XDC                                   #  XDC = .5*UNIT(SIN(P),0,-COS(P))
000558: 37,2152           00021                                   16D
000559: 37,2153           77656                          UNIT
000560: 37,2154           26722                          STOVL    YDC                                   #  YDC = .5*UNIT(-SIN(R)*COS(P),-COS(R),
000561: 37,2155           00027                                   22D                                   #                           -SIN(R)*SIN(P))
000562: 37,2156           77656                          UNIT
000563: 37,2157           36730                          STCALL   ZDC                                   #  ZDC = .5*UNIT(-COS(R)*COS(P),SIN(R),
000564: 37,2160           47140                                   CALCGTA                               #                           -COS(R)*SIN(P))
000565:
000566:                                                                                                 #                                           CALL CALCGTA TO COMPUTE DESIRED SM ORIENTATION  OGC,IGC,AND MGC
000567:                                                                                                 #                                                                     -          -   -
000568:                                                                                                 #                                           FIND DIFFERENCE VECTOR   DELTACDU = OGC-CDUX
000569:                                                                                                 # # Page 533
000570:                                                                                                 #                                           ENTER HERE IF ATTITUDE HOLD
000571:
000572: 37,2161           41575        NOPOLYM           VLOAD    PUSH                                  #         OGC      IGC
000573: 37,2162           02760                                   OGC                                   #  CHANGE IGC  TO  MGC FOR COMPATIBILITY
000574: 37,2163           45006                          PUSH     CALL                                  #         MGC      OGC
000575: 37,2164           47432                                   CDUTRIG                               #  WITH Y,Z,X ORDER OF CDUSPOT
000576: 37,2165           47175                          VLOAD    RTB                                   #   -         DPHI     OGC-CDUX ,PD4
000577: 37,2166           00003                                   2                                     #  DELTACDU = DTHETA = IGC-CDUY ,   0
000578: 37,2167           45547                                   V1STO2S                               #             DPSI     MGC-CDUZ ,   2
000579: 37,2170           27317                          STOVL    BOOSTEMP
000580: 37,2171           15332                                   ZEROVECS
000581: 37,2172           24001                          STOVL    0
000582: 37,2173           00767                                   CDUSPOT
000583: 37,2174           47034                          RTB      RTB
000584: 37,2175           45547                                   V1STO2S
000585: 37,2176           70453                                   DELSTOR
000586: 37,2177           14013                          STODL    10D
000587: 37,2200           00741                                   SINCDUZ
000588: 37,2201           72405                          DMP      SL1
000589: 37,2202           00001                                   0
000590: 37,2203           60415                          DAD      SR2                                   #  CHANGE SCALE OF AK TO 2REVS
000591: 37,2204           00005                                   4
000592: 37,2205           77650                          GOTO
000593: 37,2206           70366                                   ATTDISP2
000594:
000595: 34,2000                                          SETLOC   P11ONE
000596: 34,2000                                          BANK
000597: 34,2366                                          COUNT    34/P11
000598:
000599: 34,2366           14021        ATTDISP2          STODL    16D                                   #  16D,  .5(DPHI + DTHETA*SIN(CDUZ))
000600: 34,2367           00747                                   COSCDUZ
000601: 34,2370           41405                          DMP      PUSH
000602: 34,2371           00001                                   0
000603: 34,2372           72405                          DMP      SL1
000604: 34,2373           00751                                   COSCDUX
000605: 34,2374           41325                          PDDL     DMP
000606: 34,2375           00743                                   SINCDUX
000607: 34,2376           00003                                   2
000608: 34,2377           72415                          DAD      SL1
000609: 34,2400           77626                          STADR
000610: 34,2401           63755                          STODL    17D                                   #  17D,  .5(DTHETA*COS(CDUX)*COS(CDUZ)
000611: 34,2402           72405                          DMP      SL1                                   #                          +DPSI*SIN(CDUX))
000612: 34,2403           00743                                   SINCDUX
000613: 34,2404           41325                          PDDL     DMP
000614: 34,2405           00751                                   COSCDUX
000615: 34,2406           00003                                   2
000616: 34,2407           72425                          DSU      SL1
000617: 34,2410           77626                          STADR
000618: 34,2411           77754                          STORE    18D                                   #  18D,  .5(-DTHETA*SIN(CDUX)*COS(CDUZ)
000619: 34,2412           77751                          TLOAD                                          #                          +DPSI*COS(CDUX))
000620:                                                                                                 # # Page 534
000621: 34,2413           00021                                   16D
000622: 34,2414           03077                          STORE    AK                                    #  STORE ATTITUDE ERRORS IN AK,AK1,AK2
000623: 34,2415           77776                          EXIT
000624:
000625:                                                                                                 #                                           DISPLAY ATTITUDE ERRORS ON FDAI VIA NEEDLER
000626:
000627: 34,2416           04555        SATOUT            TC       BANKCALL
000628: 34,2417           42404                          CADR     NEEDLER
000629: 34,2420           34113        ATERSET           CAF      OCT31                                 #  DELAY .25 SEC
000630: 34,2421           04555                          TC       BANKCALL                              #  EXECUTION + DELAY =.56SEC APPROX
000631: 34,2422           01730                          CADR     DELAYJOB
000632: 34,2423           02326                          TC       ATERJOB                               #  END OF ATT ERROR DISPLAY CYCLE
000633:
000634: 34,2424           44705        SATCLEAR          CS       BIT6
000635: 34,2425           00006                          EXTEND
000636: 34,2426           03012                          WAND     CHAN12                                #  CLEAR IMU ERROR COUNTER
000637: 34,2427           05301                          TC       PHASCHNG                              #  TURN OFF PROTECTION
000638: 34,2430           00004                          OCT      00004                                 #  FOR ATTITUDE ERROR DISPLAY
000639: 34,2431           34714                          CAF      ZERO
000640: 34,2432           55476                          TS       AK                                    #  ZERO OUT
000641: 34,2433           55477                          TS       AK1                                   #  AKS FOR
000642: 34,2434           55500                          TS       AK2                                   #  DOWNLINK
000643: 34,2435           05112                          TC       ENDOFJOB
000644:
000645: 34,2436           51575        S11.1             VLOAD    ABVAL
000646: 34,2437           01177                                   VN
000647: 34,2440           27723                          STOVL    VMAGI                                 #  VI     SCALED  2(7)  IN METERS/CSEC
000648: 34,2441           01171                                   RN
000649: 34,2442           45246                          ABVAL    DSU
000650: 34,2443           05311                                   RPAD
000651: 34,2444           27735                          STOVL    ALTI                                  #  H      SCALED  2(29)  IN METERS
000652: 34,2445           01171                                   RN
000653: 34,2446           50256                          UNIT     DOT
000654: 34,2447           01177                                   VN
000655: 34,2450           77752                          SL1
000656: 34,2451           03737                          STORE    HDOT                                  #  HDOT   SCALED  2(7)  IN METERS/CSEC
000657: 34,2452           77616                          RVQ
000658: 34,2453           31716        DELSTOR           CA       BOOSTEMP
000659: 34,2454           00006                          EXTEND                                         #  STORE DELTACDU INTO PDL 0,2,4
000660: 34,2455           20154                          MSU      MPAC
000661: 34,2456           50120                          INDEX    FIXLOC
000662: 34,2457           54000                          TS       0
000663: 34,2460           31717                          CA       BOOSTEMP   +1
000664: 34,2461           00006                          EXTEND
000665: 34,2462           20155                          MSU      MPAC       +1
000666: 34,2463           50120                          INDEX    FIXLOC
000667: 34,2464           54002                          TS       2
000668: 34,2465           31720                          CA       BOOSTEMP   +2
000669: 34,2466           00006                          EXTEND
000670: 34,2467           20156                          MSU      MPAC       +2
000671:                                                                                                 # # Page 535
000672: 34,2470           50120                          INDEX    FIXLOC
000673: 34,2471           54004                          TS       4
000674: 34,2472           16030                          TCF      DANZIG
000675: 34,2473           30154        RLTST             CA       MPAC                                  #  DETERMINE IF ROLLOUT
000676: 34,2474           00006                          EXTEND                                         #  IS COMPLETED
000677: 34,2475           71701                          MP       SATRLRT    +1
000678: 34,2476           00006                          EXTEND
000679: 34,2477           66030                          BZMF     DANZIG                                #  UNLIKE SIGNS  STILL ROLLING
000680: 34,2500           00006                          EXTEND                                         #  ROLLOUT COMPLETED
000681: 34,2501           33563                          DCA      MBDYTCTL   +2                         #  ZERO OUT ROLL CONTRIBUTION
000682: 34,2502           52155                          DXCH     MPAC
000683: 34,2503           06030                          TC       DANZIG
000684: 34,2504           06006        NOPOLY            TC       INTPRET                               #  COMES HERE IF
000685: 34,2505           52001                          SETPD    GOTO                                  #  ATTITUDE HOLD
000686: 34,2506           00001                                   0
000687: 34,2507           76161                                   NOPOLYM
000688: 34,2510           01673        COEFPOLY          ADRES    POLYLOC
000689: 34,2511           01476        V06N62            VN       0662
000690:                                                                                                 #  SATURN TAKEOVER FUNCTION
000691:                                                                                                 #  ************************
000692:
000693:                                                                                                 #  PROGRAM DESCRIPTION
000694:
000695:                                                                                                 #      MOD NUMBER 1
000696:                                                                                                 #      MOD BY ELIASSEN
000697:
000698:                                                                                                 #  FUNCTIONAL DESCRIPTION
000699:
000700:                                                                                                 #      DURING THE COASTING PHASE OF SIVB ATTACHED, THE
000701:                                                                                                 #      ASTRONAUT MAY REQUEST SATURN TAKEOVER THROUGH
000702:                                                                                                 #      EXTENDED VERB 46 (BITS 13,14 OF DAPDATR1 SET ).
000703:                                                                                                 #      THE CMC REGARDS RHC COMMANDS AS BODY-AXES RATE
000704:                                                                                                 #      COMMANDS AND IT TRANSMITS THESE TO SATURN AS DC
000705:                                                                                                 #      VOLTAGES. THE VALUE OF THE CONSTANT RATE COMMAND
000706:                                                                                                 #      IS 0.5 DEG/SEC. AN ABSENCE OF RHC ACTIVITY RE-
000707:                                                                                                 #      SULTS IN A ZERO RATE COMMAND.
000708:
000709:                                                                                                 #      THE FDAI ERROR NEEDLES WILL INDICATE THE VALUE
000710:                                                                                                 #      OF THE RATE COMMAND.
000711:
000712:                                                                                                 #  CALLING SEQUENCE
000713:
000714:                                                                                                 #      DAPFIG +9D  TC      POSTJUMP
000715:                                                                                                 #                  CADR    SATSTKON
000716:
000717:                                                                                                 #  SUBROUTINES CALLED
000718:
000719:                                                                                                 #      ENDEXT
000720:                                                                                                 #      IBNKCALL
000721:                                                                                                 #      STICKCHK
000722:                                                                                                 # # Page 536
000723:                                                                                                 #      NEEDLER
000724:                                                                                                 #      T5RUPT
000725:                                                                                                 #      RESUME
000726:
000727:                                                                                                 #  ASTRONAUT REQUESTS
000728:
000729:                                                                                                 #      ENTRY -  VERB 46 ENTER
000730:                                                                                                 #               (CONDITION - BITS 13, 14 OF DAPDATR1 SET)
000731:
000732:                                                                                                 #      EXIT  -  VERB 48 ENTER  (FLASH V06N46)
000733:                                                                                                 #               VERB 21 ENTER  AXXXX ENTER WHERE  A=0 OR 1
000734:                                                                                                 #               VERB 34 ENTER
000735:                                                                                                 #               VERB 46 ENTER
000736:
000737:                                                                                                 #  NORMAL EXIT MODE
000738:
000739:                                                                                                 #               VERB 46 ENTER  (SEE ASTRONAUT ABOVE)
000740:
000741:                                                                                                 #  ALARM OR ABORT EXIT MODES
000742:
000743:                                                                                                 #      NONE
000744:
000745:                                                                                                 #  OUTPUT
000746:
000747:                                                                                                 #      SATURN RATES IN  CDUXCMD, CDUYCMD, CDUZCMD
000748:
000749:                                                                                                 #  ERASABLE INITIALIZATION
000750:
000751:                                                                                                 #      DAPDATR1  (BITS 13, 14 MUST BE SET)
000752:
000753:                                                                                                 #  DEBRIS
000754:
000755:                                                                                                 #      CENTRALS
000756:                                                                                                 #      CDUXCMD, CDUYCMD, CDUZCMD
000757:
000758: 43,3210                                          BANK     43
000759: 43,2000                                          SETLOC   EXTVERBS
000760: 43,2000                                          BANK
000761:
000762: 43,3210                                          COUNT    23/STTKE
000763: 43,3210           00006        SATSTKON          EXTEND
000764: 43,3211           33226                          DCA      2REDOSAT
000765: 43,3212           00004                          INHINT
000766: 43,3213           53313                          DXCH     T5LOC
000767: 43,3214           34672                          CAF      POSMAX
000768: 43,3215           54030                          TS       TIME5
000769: 43,3216           40102                          CS       FLAGWRD6                              #  TURN ON BITS 15,14 OF
000770: 43,3217           74105                          MASK     RELTAB11                              #  FLAGWRD6
000771: 43,3220           26102                          ADS      FLAGWRD6                              #      SATSTICK CONTROL OF T5
000772: 43,3221           04633                          TC       IBNKCALL                              #  ZERO JET CHANNELS IN 14 MS AND THEN
000773:                                                                                                 # # Page 537
000774: 43,3222           42616                          CADR     ZEROJET                               #  LEAVE THE T6 CLOCK DISABLED
000775: 43,3223           00003                          RELINT
000776: 43,3224           02125                          TC       GOPIN                                 #  EXIT THUS BECAUSE WE CAME VIA V46
000777:
000778: 43,3225  E6,1704                                 EBANK=   BODY3
000779: 43,3225           02765 46106  2REDOSAT          2CADR    REDOSAT
000780:
000781: 32,2017                                          BANK     32
000782: 23,2000                                          SETLOC   P11FOUR
000783: 23,2000                                          BANK
000784:
000785: 23,2765           22016        REDOSAT           LXCH     BANKRUPT                              #  ALSO COMES HERE FOR RESTARTS
000786: 23,2766           00006                          EXTEND
000787: 23,2767           22012                          QXCH     QRUPT
000788: 23,2770           41501                          CS       RCSFLAGS                              #  TURN ON BIT3 OF RCSFLAGX
000789: 23,2771           74710                          MASK     BIT3                                  #  FOR
000790: 23,2772           27501                          ADS      RCSFLAGS                              #  NEEDLER INITIALIZATION
000791: 23,2773           04633                          TC       IBNKCALL
000792: 23,2774           42404                          CADR     NEEDLER                               #  DISABLE IMU ERR COUNTERS ETC.
000793: 23,2775           34702                          CAF      BIT9                                  #  SIVB
000794: 23,2776           00006                          EXTEND                                         #  TAKEOVER
000795: 23,2777           05012                          WOR      CHAN12                                #  ENABLE
000796: 23,3000           00006                          EXTEND                                         #  SET UP T5 CYCLE
000797: 23,3001           33046                          DCA      2SATSTCK
000798: 23,3002           53313                          DXCH     T5LOC
000799: 23,3003           33044                          CAF      100MST5                               #  IN 100 MSECS
000800: 23,3004           54030                          TS       TIME5
000801: 23,3005           15222                          TCF      RESUME                                #  END OF SATURN STICK INITIALIZATION
000802:
000803:                                                                                                 #                                           THIS SECTION IS EXECUTED EVERY 100 MSECS
000804:
000805: 23,3006           22016        SATSTICK          LXCH     BANKRUPT
000806: 23,3007           00006                          EXTEND
000807: 23,3010           22012                          QXCH     QRUPT
000808:
000809: 23,3011           33045                          CAF      2SATSTCK                              #  SET UP RUPT
000810: 23,3012           55312                          TS       T5LOC                                 #  LO ORDER LOC SET
000811: 23,3013           33044                          CAF      100MST5                               #  100 MSECS
000812: 23,3014           54030                          TS       TIME5
000813: 23,3015           33043                          CAF      STIKBITS
000814: 23,3016           00006                          EXTEND
000815: 23,3017           06031                          RXOR     CHAN31                                #  CHECK IF MAN ROT BITS SAME
000816: 23,3020           73043                          MASK     STIKBITS
000817: 23,3021           04633                          TC       IBNKCALL                              #  SET RATE INDICES
000818: 23,3022           43114                          CADR     STICKCHK                              #  FOR PITCH YAW AND ROLL
000819:
000820: 23,3023           51656                          INDEX    RMANNDX                               #  SET SATURN RATES
000821: 23,3024           33037                          CA       SATRATE
000822: 23,3025           55476                          TS       AK                                    #                   ROLL
000823:                                                                                                 # # Page 538
000824: 23,3026           51657                          INDEX    PMANNDX
000825: 23,3027           33037                          CA       SATRATE
000826: 23,3030           55477                          TS       AK1                                   #                   PITCH
000827: 23,3031           51660                          INDEX    YMANNDX
000828: 23,3032           33037                          CA       SATRATE
000829: 23,3033           55500                          TS       AK2                                   #                   YAW
000830:
000831: 23,3034           04633                          TC       IBNKCALL                              #  FOR SATURN INTERFACE AND FDAI DISPLAY
000832: 23,3035           42404                          CADR     NEEDLER
000833: 23,3036           15222                          TCF      RESUME                                #  END OF SATURN STICK CONTROL
000834:
000835:
000836: 23,3037           00000        SATRATE           DEC      0          B-14                       #  IN DETENT - ZERO RATE
000837: 23,3040           00476                          DEC      +318       B-14                       #  POS RATE .5D/S R, .3D/S P AND Y
000838: 23,3041           77301                          DEC      -318       B-14                       #  NEG RATE       DITTO
000839: 23,3042           00000                          DEC      0          B-14                       #  POS NEG BITS ON  ASSUME IN DETENT
000840:
000841: 23,3043           00077        STIKBITS          OCT      00077
000842: 23,3044           37766        100MST5           DEC      16374      B-14
000843: 23,3045  40,2000                                 SBANK=   PINSUPER
000844: 23,3045  E6,1704                                 EBANK=   BODY3
000845: 23,3045           03006 46106  2SATSTCK          2CADR    SATSTICK
000846: 23,3047  30,2000                                 SBANK=   LOWSUPER
000847:

End of include-file P11.agc.  Parent file is MAIN.agc


