
Source Code


000002:                                                                                                 #  Copyright:    Public domain.
000003:                                                                                                 #  Filename:      P30,P37.agc
000004:                                                                                                 #  Purpose:      Part of the source code for Colossus build 237.
000005:                                                                                                 #                This is for the Command Module's (CM) Apollo Guidance
000006:                                                                                                 #                Computer (AGC), we believe for Apollo 8.
000007:                                                                                                 #  Assembler:    yaYUL
000008:                                                                                                 #  Contact:      Jim Lawton <jim DOT lawton AT gmail DOT com>
000009:                                                                                                 #  Website:      www.ibiblio.org/apollo/index.html
000010:                                                                                                 #  Page scans:   www.ibiblio.org/apollo/ScansForConversion/Colossus237/
000011:                                                                                                 #  Mod history:  2011-02-19 JL    Adapted from corresponding Colossus 249 file.
000012:                                                                                                 #                 2011-04-29 JL   Added missing line at the bottom of page 632.
000013:
000014:                                                                                                 # # Page 624
000015: 32,2017                                          BANK     32
000016:
000017: 35,2000                                          SETLOC   P30S1
000018: 35,2000                                          BANK
000019:
000020: 35,3544  E7,1625                                 EBANK=   +MGA
000021:
000022: 35,3544                                          COUNT    35/P34
000023:
000024: 35,3544           77420        DISPMGA           STQ      EXIT                                  #  USED IN P30
000025:
000026: 35,3545           02370                                   RGEXIT
000027: 35,3546           03564                          TC       COMPTGO
000028:
000029: 35,3547           33132        DISP45            CAF      V16N45
000030: 35,3550           04555                          TC       BANKCALL
000031: 35,3551           20763                          CADR     GOFLASHR
000032: 35,3552           04106                          TC       GOTOPOOH
000033: 35,3553           03560                          TC       END45
000034: 35,3554           03547                          TC       DISP45
000035: 35,3555           05301        P30PHSI           TC       PHASCHNG
000036: 35,3556           00014                          OCT      14
000037: 35,3557           05112                          TCR      ENDOFJOB
000038: 35,3560           06006        END45             TC       INTPRET
000039: 35,3561           52014                          CLEAR    GOTO
000040: 35,3562           03664                                   TIMRFLAG
000041: 35,3563           02370                                   RGEXIT
000042:
000043: 35,3564           00006        COMPTGO           EXTEND                                         #  USED TO COMPUTE TTOGO
000044: 35,3565           23066                          QXCH     PHSPRDT6                              #  ** GROUP 6 TEMPORARY USED ,, BEWARE **
000045:
000046: 35,3566           05435                          TC       UPFLAG                                #  SET TIMRFLAG
000047: 35,3567           00155                          ADRES    TIMRFLAG                              #  BIT 11 FLAG 7
000048: 35,3570           34714                          CAF      ZERO
000049: 35,3571           55145                          TS       NVWORD1
000050:
000051: 35,3572           00004                          INHINT
000052: 35,3573           34712                          CAF      ONE
000053: 35,3574           05140                          TC       WAITLIST
000054: 35,3575  E7,1412                                 EBANK=   TIG
000055: 35,3575           03174 50067                    2CADR    CLOKTASK
000056:
000057: 35,3577           05261                          TC       2PHSCHNG
000058: 35,3600           40036                          OCT      40036                                 #  6.3SPOT FOR CLOKTASK
000059: 35,3601           05024                          OCT      05024
000060: 35,3602           13000                          OCT      13000
000061:
000062: 35,3603           01066                          TC       PHSPRDT6
000063:
000064:                                                                                                 # # Page 625
000065:                                                                                                 #  PROGRAM DESCRIPTION  P30    DATE 3-6-67
000066:
000067:                                                                                                 #  MOD.I BY S. ZELDIN- TO ADD P31 AND AD APT P30 FOR P31 USE.    22DEC67
000068:                                                                                                 #  FUNCTIONAL DESCRIPTION
000069:                                                                                                 #  +30(EXTERNAL DELTA-V TARGETING PROGRAM)
000070:                                                                                                 #      ACCEPTS ASTRONAUT INPUTS OF TIG,DELV(LV) AND COMPUTES,FOR DISPLAY,
000071:                                                                                                 #      APOGEE,PERIGEE,DELV(MAG),MGA ASSOCIATED WITH DESIRED MANEUVER
000072:
000073:                                                                                                 #  P31 (GENERAL LAMBERT AIMPOINT GUIDANCE)
000074:                                                                                                 #  A GROUND RULE FOR P31 IS THE ANGLE BETWEEN THE TARGET VECTOR AND
000075:                                                                                                 #  POSITION VECTOR AT TIG IS NOT 165-195 DEGREES APART
000076:                                                                                                 #      BASED ON STORED INPUT OF OFFSET TARGET(B+29) AND DELTA T TRANS,AND
000077:                                                                                                 #      ASTRONAUT ENTRY OF TIG,P31 COMPUTES REQUIRED VELOCITY FOR MANEUVER
000078:                                                                                                 #      AND,FOR DISPLAY,APOGEE,PERIGEE,DELV(7AG),+MGA ASSOCIATED WITH
000079:                                                                                                 #      DESIRED MANEUVER
000080:
000081:                                                                                                 #      THE FOLLOWING SUBROUTINES ARE USED IN P30 AND P31
000082:                                                                                                 #         S30.1 (P30 ONLY)
000083:                                                                                                 #         S31.1 (P31 ONLY)
000084:                                                                                                 #         P30/P31 - DISPLAYS TIG
000085:                                                                                                 #         CNTUP30 - DISPLAYS DELV(LV)
000086:                                                                                                 #         PARAM30 - DISPLAYS APOGEE,PERIGEE,DELV(MAG),MGA,TIME FROM TIG,
000087:                                                                                                 #                   MARKS SINCE LAST THRUSTING MANEUVER
000088:
000089:                                                                                                 #  CALLING SEQUENCE VIA JOB FROM V37
000090:
000091:                                                                                                 #  EXIT VIA V37 OR GOTOPOOH
000092:
000093:                                                                                                 #  OUTPUT FOR POWERED FLIGHT
000094:                                                                                                 #           VTIG   X
000095:                                                                                                 #           RTIG    XSEE S30.1
000096:                                                                                                 #           DELVSIN X
000097:                                                                                                 #           VGDISP
000098:                                                                                                 #           RTARG  X
000099:                                                                                                 #           TPASS4  X SEE S31.1
000100:                                                                                                 #                  X
000101:
000102:
000103: 35,3604                                          COUNT    35/P30
000104:
000105: 35,3604           03636        P30               TC       P30/P31
000106: 35,3605           03655                          TC       CNTNUP30
000107: 35,3606           05447                          TC       DOWNFLAG                              #  RESET UPDATFLG
000108: 35,3607           00027                          ADRES    UPDATFLG                              #  BIT 7  FLAG 1
000109: 35,3610           06006                          TC       INTPRET
000110: 35,3611           77624                          CALL
000111: 35,3612           63102                                   S30.1
000112: 35,3613           77776                          EXIT
000113: 35,3614           03665                          TC       PARAM30
000114: 35,3615           05435                          TC       UPFLAG
000115:                                                                                                 # # Page 626
000116: 35,3616           00045                          ADRES    XDELVFLG                              #  SET XDELVFLG    BIT 8  FLAG 2
000117: 35,3617           14106                          TCF      GOTOPOOH
000118:
000119: 35,3620           03636        P31               TC       P30/P31
000120: 35,3621           05447                          TC       DOWNFLAG
000121: 35,3622           00027                          ADRES    UPDATFLG                              #  RESET UPDATFLG  BIT 7 FLAG 1
000122: 35,3623           05447                          TC       DOWNFLAG
000123: 35,3624           00156                          ADRES    NORMSW                                #  RESET NORMSW       BIT 10  FLAG 7
000124: 35,3625           06006                          TC       INTPRET
000125: 35,3626           77624                          CALL
000126: 35,3627           63154                                   S31.1
000127: 35,3630           77776                          EXIT
000128: 35,3631           03655                          TC       CNTNUP30
000129: 35,3632           03665                          TC       PARAM30
000130: 35,3633           05447                          TC       DOWNFLAG
000131: 35,3634           00045                          ADRES    XDELVFLG                              #  BIT 8  FLAG 2
000132: 35,3635           14106                          TCF      GOTOPOOH
000133:
000134: 35,3636           56002        P30/P31           XCH      Q
000135: 35,3637           55664                          TS       P30/31RT
000136: 35,3640           05435                          TC       UPFLAG
000137: 35,3641           00027                          ADRES    UPDATFLG                              #  SET UPDATFLG  BIT 7  FLAG 1
000138: 35,3642           05435                          TC       UPFLAG
000139: 35,3643           00031                          ADRES    TRACKFLG                              #  SET TRACKFLG  BIT 5  FLAG 1
000140: 35,3644           33722                          CAF      V06N33                                #  T OF IGN
000141: 35,3645           04555                          TC       BANKCALL
000142: 35,3646           20763                          CADR     GOFLASHR
000143: 35,3647           14106                          TCF      GOTOPOOH
000144: 35,3650           01664                          TC       P30/31RT
000145: 35,3651           13642                          TCF      P30/P31    +4
000146: 35,3652           05301                          TC       PHASCHNG
000147: 35,3653           00014                          OCT      00014
000148: 35,3654           05112                          TC       ENDOFJOB
000149:
000150:
000151: 35,3655           56002        CNTNUP30          XCH      Q
000152: 35,3656           55127                          TS       P30/RET
000153: 35,3657           33131                          CAF      V06N81
000154: 35,3660           04555                          TC       BANKCALL
000155: 35,3661           20624                          CADR     GOFLASH
000156: 35,3662           14106                          TCF      GOTOPOOH
000157: 35,3663           01127                          TC       P30/RET
000158: 35,3664           13657                          TCF      CNTNUP30   +2
000159: 35,3665           56002        PARAM30           XCH      Q
000160: 35,3666           55664                          TS       P30/31RT
000161: 35,3667           33723                          CAF      V06N42
000162: 35,3670           04555                          TC       BANKCALL
000163: 35,3671           20624                          CADR     GOFLASH
000164: 35,3672           04106                          TC       GOTOPOOH                              #  ON TERMINATION GOTOPOOH
000165: 35,3673           13675                          TCF      REFTEST                               #  ON PROCEED GO DO REFTEST
000166:                                                                                                 # # Page 627
000167: 35,3674           13667                          TCF      PARAM30    +2
000168: 35,3675           34676        REFTEST           CAF      BIT13
000169: 35,3676           70077                          MASK     STATE      +3                         #  REFSMFLAG
000170: 35,3677           00006                          EXTEND
000171: 35,3700           13710                          BZF      NOTSET                                #  REFSMFLAG =0 , THEN BRANCH TO NOTSET
000172: 35,3701           06006                          TC       INTPRET
000173: 35,3702           41575                          VLOAD    PUSH
000174: 35,3703           03646                                   DELVSIN
000175: 35,3704           77624                          CALL
000176: 35,3705           10660                                   GET+MGA
000177: 35,3706           77650                          GOTO
000178: 35,3707           73714                                   FLASHMGA
000179: 35,3710           00006        NOTSET            EXTEND
000180: 35,3711           43721                          DCS      MARSDP
000181: 35,3712           53626                          DXCH     +MGA                                  #  +MGA, +MGA+1  CONTAINS (-00001)
000182: 35,3713           06006                          TC       INTPRET
000183: 35,3714           77624        FLASHMGA          CALL
000184: 35,3715           73544                                   DISPMGA
000185: 35,3716           77776                          EXIT
000186: 35,3717           01664                          TC       P30/31RT
000187: 35,3720           00000        MARSDP            OCT      00000                                 #  (00000) (16440)  = (+00001)
000188: 35,3721           35100                          OCT      35100
000189:                                                                                                 #                                           ( .01 ) DEGREES IN THE LOW ORDER REGISTE
000190: 35,3722           01441        V06N33            VN       0633
000191: 35,3723           01452        V06N42            VN       0642
000192: 35,3724           04043        V16N35            VN       1635
000193: 35,3725           01455        V06N45            VN       0645
000194:
000195:                                                                                                 # # Page 628
000196:                                                                                                 #  PROGRAM DESCRPTION S30.1       DATE 9NOV66
000197:
000198:                                                                                                 #  MOD NO 1        LOG SECTION  P30,P37
000199:                                                                                                 #  MOD  BY  RAMA AIYAWAR **
000200:                                                                                                 #  MOD.2 BY S.ZELDIN - TO CORRECT MOD.1 FOR COLOSSUS         29DEC67
000201:                                                                                                 #  FUNCTIONAL DESCRIPTION
000202:                                                                                                 #           BASED ON STORED TARGET PARAMETERS(R OF IGNITION(RTIG),V OF
000203:                                                                                                 #  IGNITION(VTIG),TIME OF IGNITION(TIG)),DELV(LV),COMPUTE PERIGEE ALTITUDE
000204:                                                                                                 #  A+OGEE ALTITUDE AND DELTA-V REQUIRED IN REF. COORDS.(DELVSIN)
000205:                                                                                                 #  CALLING SEQUENCE
000206:                                                                                                 #     L     CALL
000207:                                                                                                 #     L+1          S30.1
000208:                                                                                                 #  NORMAL EXIT MODE
000209:                                                                                                 #      AT L+2 OR CALLING SEQUENCE (GOTO L+2)
000210:                                                                                                 #  SUBROUTINES CALLED
000211:                                                                                                 #           THISPREC
000212:                                                                                                 #           PERIAPO
000213:                                                                                                 #  ALARM OR ABORT EXIT MODES
000214:                                                                                                 #                  NONE
000215:                                                                                                 #  ERASABLE INITIALIZATION REQUIRED
000216:                                                                                                 #           TIG       TIME OF IGNITION                   DP     B28CS
000217:                                                                                                 #           DELVSLV   SPECIFIED DELTA-V IN LOCAL VERT.
000218:                                                                                                 #                     COORDS. OF ACTIVE VEHICLE AT
000219:                                                                                                 #           TIME OF IGNITION                         VCT.    B+7M/CS
000220:                                                                                                 #  OUTPUT
000221:                                                                                                 #           RTIG         POSITION AT TIG             VCT.    B+29M
000222:                                                                                                 #           VTIG         VELOCITY AT TIG             VCT.    B+7M
000223:                                                                                                 #           HAPO         APOGEE ALT.                 DP      B+29M
000224:                                                                                                 #           HPER         PERIGEE ALT.                DP      B+29M
000225:                                                                                                 #           DELVSIN      DELVSLV IN REF COORDS       VCT.    B+7M/CS
000226:                                                                                                 #           VGDISP       MAG. OF DELVSIN             DP      B+7M/CS
000227:                                                                                                 #  DEBRIS QTEMP    TEMP. ERASABLE
000228:                                                                                                 #         QPRET,MPAC
000229:                                                                                                 #         PUSHLIST
000230:
000231: 31,2000                                          SETLOC   P30S1A
000232: 31,2000                                          BANK
000233:
000234: 31,3102                                          COUNT    35/S30S
000235:
000236: 31,3102           71220        S30.1             STQ      DLOAD
000237: 31,3103           03657                                   QTEMP
000238: 31,3104           03413                                   TIG                                   #  TIME IGNITION SCALED AT 2(+28)CS
000239: 31,3105           34041                          STCALL   TDEC1
000240: 31,3106           27022                                   THISPREC                              #  ENCKE ROUTINE FOR
000241:
000242: 31,3107           67175                          VLOAD    SXA,2
000243: 31,3110           00007                                   VATT
000244: 31,3111           03746                                   RTX2
000245: 31,3112           27640                          STOVL    VTIG
000246:                                                                                                 # # Page 629
000247: 31,3113           00001                                   RATT
000248: 31,3114           03632                          STORE    RTIG
000249: 31,3115           03540                          STORE    RACT3
000250: 31,3116           53435                          VXV      UNIT
000251: 31,3117           03640                                   VTIG
000252: 31,3120           36617                          STCALL   UNRM
000253: 31,3121           72667                                   LOMAT
000254: 31,3122           61375                          VLOAD    VXM
000255: 31,3123           03405                                   DELVSLV
000256: 31,3124           00001                                   0
000257: 31,3125           66172                          VSL1     SXA,1
000258: 31,3126           03745                                   RTX1
000259: 31,3127           03646                          STORE    DELVSIN
000260: 31,3130           77646                          ABVAL
000261: 31,3131           27654                          STOVL    VGDISP                                #  MAG DELV
000262: 31,3132           03632                                   RTIG
000263: 31,3133           53315                          PDVL     VAD
000264: 31,3134           03646                                   DELVSIN
000265: 31,3135           03640                                   VTIG
000266: 31,3136           77624                          CALL
000267: 31,3137           45312                                   PERIAPO1
000268: 31,3140           77624                          CALL
000269: 31,3141           45422                                   SHIFTR1
000270: 31,3142           77624                          CALL
000271: 31,3143           46754                                   MAXCHK
000272: 31,3144           16366                          STODL    HPER                                  #  PERIGEE ALT B+29
000273: 31,3145           00005                                   4D
000274: 31,3146           77624                          CALL
000275: 31,3147           45422                                   SHIFTR1
000276: 31,3150           77624                          CALL
000277: 31,3151           46754                                   MAXCHK
000278: 31,3152           36364                          STCALL   HAPO                                  #  APOGEE ALT B+29
000279: 31,3153           03657                                   QTEMP
000280:
000281:                                                                                                 # # Page 630
000282:                                                                                                 #  S31.1  PROGRAM DESCRIPTION                   26DEC67
000283:                                                                                                 #  MOD.1 BY S.ZELDIN
000284:
000285:                                                                                                 #  S31.1 COMPUTES DELV IN REF AND LV COORDS,MAG OF DELV,INTERCEPT TIME,
000286:                                                                                                 #  APOGEE AND PERIGEE ALT FOR REQUIRED MANEUVER
000287:
000288:                                                                                                 #  CALLING SEQUENCE
000289:                                                                                                 #          L      CALL
000290:                                                                                                 #        L +1          S31.1
000291:
000292:                                                                                                 #  NORMAL EXIT MODE
000293:                                                                                                 #          AT L +2 OF CALLING SEQUENCE(GOTO L+2)
000294:                                                                                                 #  SUBROUTINES CALLED
000295:                                                                                                 #           AGAIN
000296:                                                                                                 #           PERIAPO1
000297:                                                                                                 #           SHIFTR1
000298:                                                                                                 #           MIDGIM
000299:                                                                                                 #  NO ALARM OR ABORT MODES
000300:                                                                                                 #  INPUT
000301:                                                                                                 #           DELLT4          DP  +28
000302:                                                                                                 #           TIG            DP  +28
000303:                                                                                                 #           RTARG           VCT +29
000304:                                                                                                 #  OUTPUT
000305:                                                                                                 #           DELVLVC         VCT +7
000306:                                                                                                 #           VGDISP          DP  +7
000307:                                                                                                 #           HAPO            DP  +29
000308:                                                                                                 #           HPER            DP  +29
000309:                                                                                                 #           TPASS4          DP  +28
000310:                                                                                                 #  DEBRIS  - QTEMP
000311: 31,3154           71220        S31.1             STQ      DLOAD
000312: 31,3155           03657                                   QTEMP
000313: 31,3156           03413                                   TIG
000314: 31,3157           34041                          STCALL   TDEC1
000315: 31,3160           61663                                   AGAIN                                 #  RETURNS RTX2,RTX1,RATT,VATT,VIPRIME
000316: 31,3161           63375                          VLOAD    PDVL                                  #  DELUEET3
000317: 31,3162           03632                                   RTIG
000318: 31,3163           03612                                   VIPRIME
000319: 31,3164           77624                          CALL
000320: 31,3165           45312                                   PERIAPO1
000321: 31,3166           77624                          CALL
000322: 31,3167           45422                                   SHIFTR1
000323: 31,3170           77624                          CALL
000324: 31,3171           46754                                   MAXCHK
000325: 31,3172           16366                          STODL    HPER                                  #  B29
000326: 31,3173           00005                                   4D
000327: 31,3174           77624                          CALL
000328: 31,3175           45422                                   SHIFTR1
000329: 31,3176           77624                          CALL
000330: 31,3177           46754                                   MAXCHK
000331: 31,3200           26364                          STOVL    HAPO                                  #  B29
000332:                                                                                                 # # Page 631
000333: 31,3201           03646                                   DELVEET3
000334: 31,3202           00001                          STORE    0
000335: 31,3203           45014                          SET      CALL
000336: 31,3204           01072                                   AVFLAG
000337: 31,3205           10653                                   MIDGIM                                #  GET DELVLVC B7 FORDISPLAY
000338: 31,3206           77646                          ABVAL
000339: 31,3207           17654                          STODL    VGDISP                                #  B+7 FOR DISPLAY
000340: 31,3210           03423                                   DELLT4
000341: 31,3211           77615                          DAD
000342: 31,3212           03413                                   TIG
000343: 31,3213           37656                          STCALL   TPASS4                                #  FOR S40.1
000344: 31,3214           03657                                   QTEMP
000345:
000346:                                                                                                 # # Page 632
000347:                                                                                                 #  SUBROUTINE NAME:      DELRSPL                                           (CONTINUATION OF V 62 IN CSM IF P11 ACTI
000348:                                                                                                 #  TRANSFERRED COMPLETELY FROM SUNDISK, P30S REV 33. 9 SEPT 67.
000349:                                                                                                 #  MOD NO:  0           MOD BY:  ZELDIN               DATE:
000350:                                                                                                 #  MOD NO:  1           MOD BY:  RR BAIRNSFATHER      DATE:  11 APR 67
000351:                                                                                                 #  MOD NO:  2           MOD BY:  RR BAIRNSFATHER      DATE:  12 MAY 67     ADD UR.RT CALC WHEN BELOW 300K FT
000352:                                                                                                 #  MOD NO:  2.1         MOD BY:  RR BAIRNSFATHER      DATE: 5 JULY 67      FIX ERROR ON MOD. 2.
000353:                                                                                                 #  MOD NO:  3           MOD BY:  RR BAIRNSFATHER      DATE:  12 JUL 67     CHANGE SIGN OF DISPLAYED ERROR.
000354:                                                                                                 #  MOD 4                MOD BY   S.ZELDIN             DATE  3 APRIL 68      CHANGE EQUATIONS FOR L/D=.18 WHICH REPLA
000355:                                                                                                 #  FUNCTION:            CALCULATE (FOR DISPLAY ON CALL) AN APPROXIMATE     MEASURE OF IN-PLANE SPLASH DOWN
000356:                                                                                                 #                       ERROR. IF THE FREE-FALL TRANSFER ANGLE TO 300K FT  ABOVE PAD RADIUS IS POSITIVE:
000357:                                                                                                 #                       SPLASH ERROR= -RANGE TO TARGET + FREE-FALL TRANSFER ANGEL + ESTIMATED ENTRY ANGLE.
000358:                                                                                                 #                       THE TARGET LOCATION AT ESTIMATED TIME OF IMPACT IS USED.  IF THE FREE-FALL TRANSFER
000359:                                                                                                 #                       ANGLE IS NEGATIVE:  SPASH ERROR= -RANGE TO TARGET
000360:                                                                                                 #                       THE PRESENT TARGET LOCATION IS USED.
000361:                                                                                                 #  CALLING SEQUENCE:    CALLED AFTER SR30.1 IF IN CSM AND IF P11 OPERATING (UNDER CONTROL OF V82)
000362:                                                                                                 #  SUBROUTINES CALLED: VGAMCALC, TFF/TRIG, LALOTORV.
000363:                                                                                                 #  EXIT:                RETURN DIRECTLY TO V 82 PROG. AT SPLRET
000364:                                                                                                 #  ERASABLE INITIALIZATION   LEFT BY SR30.1 AND V82GON1
000365:                                                                                                 #  OUTPUT:  RSP-RREC  RANGE IN REVOLUTIONS.                                DSKY DISPLAY IN N. MI.
000366:                                                                                                 #  DEBRIS:  QPRET, PDL0 ...PDL7 ,PDL10
000367:
000368:                                                                                                 #  THETA(1)
000369:
000370:
000371: 32,2017                                          BANK     32
000372: 32,2000                                          SETLOC   DELRSPL1
000373: 32,2000                                          BANK
000374: 32,2017                                          COUNT*   $$/P30                                #  PROGRAMS: P30 EXTERNAL DELTA V
000375:
000376: 32,2017           00011        DELRSPL           STORE    8D
000377: 32,2020           45244                          BPL      DSU
000378: 32,2021           64063                                   CANTDO                                #  GONE PAST 300K FT ALT
000379: 32,2022           16326                                   1BITDP
000380: 32,2023           45000                          BOV      CALL
000381: 32,2024           64063                                   CANTDO                                #  POSMAX INDICATES NO 300K FT SOLUTION.
000382: 32,2025           55050                                   VGAMCALC                              #  +GAMMA(REV) IN PMAC,V300 MAG(B-7)=PDL 0
000383: 32,2026           45006                          PUSH     CALL
000384: 32,2027           56573                                   TFF/TRIG
000385: 32,2030           77624                          CALL
000386: 32,2031           64071                                   AUGEKUGL
000387: 32,2032           65525                          PDDL     ACOS                                  #  T ENTRY PDL 6
000388: 32,2033           00017                                   CDELF/2
000389: 32,2034           77615                          DAD
000390: 32,2035           00005                                   4
000391: 32,2036           26350        GETARG            STOVL    THETA(1)
000392: 32,2037           03401                                   LAT(SPL)
000393: 32,2040           15104                          STODL    LAT
000394: 32,2041           15332                                   HI6ZEROS
000395: 32,2042           15110                          STODL    ALT                                   #  ALT=0  = LAT +4
000396: 32,2043           43225                          DSU      DAD
000397:                                                                                                 # # Page 633
000398: 32,2044           00011                                   8D
000399: 32,2045           01205                                   PIPTIME
000400: 32,2046           45014                          CLEAR    CALL
000401: 32,2047           00662                                   ERADFLAG
000402: 32,2050           26373                                   LALOTORV                              #  R RECOV. IN ALPHAV AND MPAC
000403:
000404: 32,2051           63256                          UNIT     PDVL
000405: 32,2052           02327                                   RONE
000406: 32,2053           50256                          UNIT     DOT
000407: 32,2054           65552                          SL1      ARCCOS
000408: 32,2055           77621                          BDSU                                           #  ERROR = THETA EST - THETA TARG
000409:                                                                                                 #                                NEGATIVE NUMBER SIGNIFIES THAT WILL FALL SHORT.
000410:                                                                                                 #                                POSITIVE NUMBER SIGNIFIES THAT WILL OVERSHOOT.
000411: 32,2056           02350                                   THETA(1)
000412: 32,2057           36356        DELRDONE          STCALL   RSP-RREC                              #  DOWNRANGE RECOVERY RANGE ERROR    /360
000413: 32,2060           27404                                   INTWAKE0
000414: 32,2061           77624                          CALL
000415: 32,2062           46653                                   SPLRET
000416: 32,2063           65345        CANTDO            DLOAD    PDDL                                  #  INITIALIZE ERASE TO DOT TARGET AND UR
000417:                                                                                                 #                                           FOR RANGE ANGLE.
000418: 32,2064           15330                                   HIDPHALF                              #  TO PDL 0 FOR DEN IN DDV.
000419: 32,2065           15332                                   HI6ZEROS
000420: 32,2066           77606                          PUSH                                           #  ZERO TO PDL 2 FOR PHI ENTRY
000421: 32,2067           34011                          STCALL   8D
000422: 32,2070           64036                                   GETARG                                #  GO SET RSP-RREC =0
000423:
000424: 32,2071           77775        AUGEKUGL          VLOAD
000425: 32,2072           24245                                   X1CON      -2
000426: 32,2073           14045                          STODL    X1         -2
000427: 32,2074           00001                                   0
000428: 32,2075           50025                          DSU      BMN
000429: 32,2076           24237                                   V(21K)
000430: 32,2077           64124                                   LOOPSET
000431: 32,2100           65060                          XSU,1    XCHX,2
000432: 32,2101           00050                                   S1
000433: 32,2102           00046                                   X1
000434: 32,2103           45324                          XCHX,2   DSU
000435: 32,2104           00050                                   S1
000436: 32,2105           24225                                   V(3K)
000437: 32,2106           65040                          BMN      XCHX,2
000438: 32,2107           64124                                   LOOPSET
000439: 32,2110           00050                                   S1
000440: 32,2111           50025                          DSU      BMN
000441: 32,2112           24235                                   V(4K)
000442: 32,2113           64124                                   LOOPSET
000443: 32,2114           65124                          XCHX,2   XCHX,2
000444: 32,2115           00050                                   S1
000445: 32,2116           00046                                   X1
000446: 32,2117           50025                          DSU      BMN
000447: 32,2120           24221                                   V(400)
000448:                                                                                                 # # Page 634
000449: 32,2121           64124                                   LOOPSET
000450: 32,2122           77730                          SXA,1
000451: 32,2123           00050                                   S1
000452: 32,2124           52110        LOOPSET           INCR,1   GOTO
000453: 32,2125           00001                          DEC      1          B-14
000454: 32,2126           64131                                   K1K2LOOP
000455: 32,2127           77730        K2CALC            SXA,1
000456: 32,2130           00050                                   S1
000457: 32,2131           44745        K1K2LOOP          DLOAD    DSU*
000458: 32,2132           00001                                   0
000459: 32,2133           24234                                   V(32K)     +1,1
000460: 32,2134           42603                          DMP*     DAD*
000461: 32,2135           24220                                   YK1K2      +1,1
000462: 32,2136           24204                                   CK1K2      +1,1
000463: 32,2137           60125                          PDDL     TIX,1
000464: 32,2140           00003                                   2
000465: 32,2141           64127                                   K2CALC
000466: 32,2142           55225                          DSU      BDDV
000467: 32,2143           50000                          BOV      BMN
000468: 32,2144           64163                                   MAXPHI
000469: 32,2145           64163                                   MAXPHI
000470: 32,2146           45325        PHICALC           PDDL     DSU                                   #  PHI ENTRY PDL 4D
000471: 32,2147           00001                                   0
000472: 32,2150           24245                                   V(26K)
000473: 32,2151           71244                          BPL      DLOAD
000474: 32,2152           64160                                   TGR26
000475: 32,2153           24241                                   TLESS26
000476: 32,2154           77671                          DDV
000477: 32,2155           00001                                   0
000478: 32,2156           43405        TENT              DMP      RVQ
000479: 32,2157           00005                                   4D
000480: 32,2160           52145        TGR26             DLOAD    GOTO
000481: 32,2161           24243                                   TGR26CON
000482: 32,2162           64156                                   TENT
000483:
000484:
000485: 32,2163           52145        MAXPHI            DLOAD    GOTO
000486: 32,2164           24167                                   MAXPHIC
000487: 32,2165           64146                                   PHICALC
000488: 32,2166           02755 01307  MAXPHIC           2DEC     .09259298                             #  2000 NM FOR MAXIMUM PHI ENTRY
000489: 32,2170                                          COUNT*   $$/P30
000490:
000491:                                                                                                 #                                         #                    BELOW
000492:                                                                                                 #                                         # <<<< TABLE IS INDEXED. KEEP IN ORDER >>>
000493:
000494: 32,2170           00013 22652                    2DEC     7.07304526 E-4                        #  5500
000495: 32,2172           00005 01642                    2DEC     3.08641975 E-4                        #  2400
000496:                                                                                                 # # Page 635
000497: 32,2174           00005 01642                    2DEC     3.08641975 E-4                        #  2400
000498: 32,2176           77556 53522                    2DEC     -8.8888888 E-3                        #  -3.2
000499: 32,2200           00055 20266                    2DEC     2.7777777  E-3                        #  1
000500: 32,2202           00155 07202  CK1K2             2DEC     6.6666666  E-3                        #  2.4
000501: 32,2204           00000 00000                    2DEC     0          B-28                       #  0
000502: 32,2206           77730 71525                    2DEC*    -1.86909989 E-5        B7*             #  -.443
000503: 32,2210           00000 00000                    2DEC     0          B-28
000504: 32,2212           04445 10102                    2DEC*    1.11639691 E-3        B7*             #  .001225
000505: 32,2214           03726 31201                    2DEC*    9.56911636 E-4        B7*             #  .00105
000506: 32,2216           01040 26313  YK1K2             2DEC*    2.59733157 E-4        B7*             #       .000285
000507: 32,2220           00234 01660  V(400)            2DEC     1.2192     B-7
000508: 32,2222           25254 01014  V(28K)            2DEC     85.344     B-7
000509: 32,2224           02222 15646  V(3K)             2DEC     9.144      B-7
000510: 32,2226           22223 16457  V(24K)            2DEC     73.152     B-7
000511: 32,2230           25254 01014                    2DEC     85.344     B-7
000512: 32,2232           30304 23351  V(32K)            2DEC     97.536     B-7
000513: 32,2234           03030 22335  V(4K)             2DEC     12.192     B-7
000514: 32,2236           20000 00000  V(21K)            2DEC     64.000     B-7
000515: 32,2240           00033 05763  TLESS26           2DEC*    5.70146688 E7         B-35*           #  8660PHI/V
000516: 32,2242           00053 36200  TGR26CON          2DEC     7.2        E5         B-28            #  PHI/3
000517: 32,2244           23637 27636  V(26K)            2DEC     79.248     B-7                        #  26000
000518: 32,2246           00012        X1CON             DEC      10         B-14
000519: 32,2247           00010                          DEC      8          B-14
000520: 32,2250           00006                          DEC      6          B-14
000521:                                                                                                 #                                           <<<<* TABLE IS INDEXED. KEEP IN ORDER >>>
000522:                                                                                                 #                                                               ABOVE
000523:
000524:                                                                                                 # # Page 636
000525:                                                                                                 #  ..... AVFLAG/P .....
000526:
000527:                                                                                                 #  SUBROUTINES USED
000528:
000529:                                                                                                 #        UPFLAG
000530:                                                                                                 #        DOWNFLAG
000531: 35,2000                                          SETLOC   P30S1
000532: 35,2000                                          BANK
000533: 35,3726  E4,1770                                 EBANK=   SUBEXIT
000534: 35,3726           00006        AVFLAGA           EXTEND                                         #  AVFLAG = CSM
000535: 35,3727           23770                          QXCH     SUBEXIT
000536: 35,3730           05447                          TC       DOWNFLAG
000537: 35,3731           00050                          ADRES    AVFLAG                                #  BIT 5  FLAG 2
000538: 35,3732           34753                          CAF      EBANK7
000539: 35,3733           54003                          TS       EBANK
000540: 35,3734  E7,1424                                 EBANK=   ECSTEER
000541: 35,3734           34676                          CAF      BIT13
000542: 35,3735           55424                          TS       ECSTEER                               #  SET ECSTEER = 1
000543: 35,3736           34700                          CAF      EBANK4
000544: 35,3737           54003                          TS       EBANK
000545: 35,3740  E4,1770                                 EBANK=   SUBEXIT
000546: 35,3740           01770                          TC       SUBEXIT
000547: 35,3741           00006        AVFLAGP           EXTEND                                         #  AVFLAG = LEM
000548: 35,3742           23770                          QXCH     SUBEXIT
000549: 35,3743           05435                          TC       UPFLAG
000550: 35,3744           00050                          ADRES    AVFLAG                                #  BIT 5  FLAG 2
000551: 35,3745           01770                          TC       SUBEXIT
000552: 35,3746           00006        P20FLGON          EXTEND
000553: 35,3747           23770                          QXCH     SUBEXIT
000554: 35,3750           05435                          TC       UPFLAG
000555: 35,3751           00031                          ADRES    TRACKFLG
000556: 35,3752           05435                          TC       UPFLAG
000557: 35,3753           00027                          ADRES    UPDATFLG
000558: 35,3754           01770                          TC       SUBEXIT

End of include-file P30,P37.agc.  Parent file is MAIN.agc


