
Source Code


000002:                                                                                                  ## Copyright:   Public domain.
000003:                                                                                                  ## Filename:    P34-P35,_P74-P75.agc
000004:                                                                                                  ## Purpose:     Part of the source code for Colossus build 237.
000005:                                                                                                  ##              This is for the Command Module's (CM) Apollo Guidance
000006:                                                                                                  ##              Computer (AGC), for Apollo 8.
000007:                                                                                                  ## Assembler:   yaYUL
000008:                                                                                                  ## Contact:     Jim Lawton <jim DOT lawton AT gmail DOT com>
000009:                                                                                                  ## Website:     www.ibiblio.org/apollo/index.html
000010:                                                                                                  ## Page Scans:  www.ibiblio.org/apollo/ScansForConversion/Colossus237/
000011:                                                                                                  ## Mod history: 2011-02-03 JL   Adapted from corresponding Colossus 249 file.
000012:                                                                                                  ##              2016-12-31 RSB  Proofed comment text using octopus/ProoferComments,
000013:                                                                                                  ##                              and corrected errors found.
000014:                                                                                                  ##              2017-01-17 RSB  Fixed comment-text errors noted while diff'ing
000015:                                                                                                  ##                              vs Colossus 249.
000016:                                                                                                  ##              2017-01-28 RSB  Back-ported some comment fixes I noticed while
000017:                                                                                                  ##                              proofing Artemis 72.
000018:


000020:                                                                                                  #  TRANSFER PHASE INITIATION (TPI) PROGRAMS (P34 AND P74)
000021:
000022:                                                                                                  #  MOD NO -1       LOG SECTION - P32-P35, P72-P75
000023:                                                                                                  #  MOD BY WHITE.P  DATE 1JUNE67
000024:
000025:                                                                                                  #  PURPOSE
000026:
000027:                                                                                                  #        (1) TO CALCULATE THE REQUIRED DELTA V AND OTHER INITIAL CONDITIONS
000028:                                                                                                  #            REQUIRED BY THE ACTIVE VEHICLE FOR EXECUTION OF THE TRANSFER
000029:                                                                                                  #            PHASE INITIATION (TPI) MANEUVER, GIVEN -
000030:
000031:                                                                                                  #            (A) TIME OF IGNITION TIG (TPI) OR THE ELEVATION ANGLE (E) OF
000032:                                                                                                  #                THE ACTIVE/PASSIVE VEHICLE LOS AT TIG (TPI).
000033:
000034:                                                                                                  #            (B) CENTRAL ANGLE OF TRANSFER (CENTANG) FROM TIG (TPI) TO
000035:                                                                                                  #                INTERCEPT TIME (TIG (TPF)).
000036:
000037:                                                                                                  #        (2) TO CALCULATE TIG (TPI) GIVEN E OR E GIVEN TIG (TPI).
000038:
000039:                                                                                                  #        (3) TO CALCULATE THESE PARAMETERS BASED UPON MANEUVER DATA
000040:                                                                                                  #            APPROVED AND KEYED INTO THE DSKY BY THE ASTRONAUT.
000041:
000042:                                                                                                  #        (4) TO DISPLAY TO THE ASTRONAUT AND THE GROUND CERTAIN DEPENDENT
000043:                                                                                                  #            VARIABLES ASSOCIATED WITH THE MANEUVER FOR APPROVAL BY THE
000044:                                                                                                  #            ASTRONAUT/GROUND.
000045:
000046:                                                                                                  #        (5) TO STORE THE TPI TARGET PARAMETERS FOR USE BY THE DESIRED
000047:                                                                                                  #            THRUSTING PROGRAM.
000048:
000049:                                                                                                  #  ASSUMPTIONS
000050:
000051:                                                                                                  #        (1) LM ONLY - THIS PROGRAM IS BASED UPON PREVIOUS COMPLETION OF
000052:                                                                                                  #            THE CONSTANT DELTA ALTITUDE (CDH) PROGRAM (P33/P73).
000053:                                                                                                  #            THEREFORE -
000054:
000055:                                                                                                  #            (A) AT A SELECTED TPI TIME (NOW IN STORAGE) THE LINE OF SIGHT
000056:                                                                                                  #                BETWEEN THE ACTIVE AND PASSIVE VEHICLES WAS SELECTED TO BE
000057:                                                                                                  #                A PRESCRIBED ANGLE (E) (NOW IN STORAGE) FROM THE
000058:                                                                                                  #                HORIZONTAL PLANE DEFINED BY THE ACTIVE VEHICLE POSITION.
000059:
000060:                                                                                                  #            (B) THE TIME BETWEEN CDH IGNITION AND TPI IGNITION WAS
000061:                                                                                                  #                COMPUTED TO BE GREATER THAN 10 MINUTES.
000062:
000063:                                                                                                  #            (C) THE VARIATION OF THE ALTITUDE DIFFERENCE BETWEEN THE
000064:                                                                                                  #                ORBITS WAS MINIMIZED.
000065:
000066:                                                                                                  #            (D) THE PERICENTER ALTITUDES OF ORBITS FOLLOWING CSI AND
000067:
000068:                                                                                                  #                CDH WERE COMPUTED TO BE GREATER THAN 35,000 FT FOR LUNAR


000070:                                                                                                  #                ORBIT OR 85 NM FOR EARTH ORBIT.
000071:
000072:                                                                                                  #            (E) THE CSI AND CDH MANEUVERS WERE ASSUMED TO BE PARALLEL TO
000073:                                                                                                  #                THE PLANE OF THE PASSIVE VEHICLE ORBIT.  HOWEVER, CREW
000074:                                                                                                  #                MODIFICATION OF DELTA V (LV) COMPONENTS MAY HAVE RESULTED
000075:                                                                                                  #                IN AN OUT-OF-PLANE MANEUVER.
000076:
000077:                                                                                                  #        (2) STATE VECTOR UPDATED BY P27 ARE DISALLOWED DURING AUTOMATIC
000078:                                                                                                  #            STATE VECTOR UPDATING INITIATED BY P20 (SEE ASSUMPTION (4)).
000079:
000080:                                                                                                  #        (3) THIS PROGRAM MUST BE DONE OVER A TRACKING STATION FOR REAL
000081:                                                                                                  #            TIME GROUND PARTICIPATION IN DATA INPUT AND OUTPUT.  COMPUTED
000082:                                                                                                  #            VARIABLES MAY BE STORED FOR LATER VERIFICATION BY THE GROUND.
000083:                                                                                                  #            THESE STORAGE CAPABILITIES ARE LIMITED ONLY TO THE PARAMETERS
000084:                                                                                                  #            FOR ONE THRUSTING MANEUVER AT A TIME EXCEPT FOR CONCENTRIC
000085:                                                                                                  #            FLIGHT PLAN MANEUVER SEQUENCES.
000086:
000087:                                                                                                  #        (4) THE RENDEZVOUS RADAR MAY OR MAY NOT BE USED TO UPDATE THE LM
000088:                                                                                                  #            OR CSM STATE VECTORS FOR THIS PROGRAM.  IF RADAR USE IS
000089:                                                                                                  #            DESIRED THE RADAR WAS TURNED ON AND LOCKED ON THE CSM BY
000090:                                                                                                  #            PREVIOUS SELECTION OF P20.  RADAR SIGHTING MARKS WILL BE MADE
000091:                                                                                                  #            AUTOMATICALLY APPROXIMATELY ONCE A MINUTE WHEN ENABLED BY THE
000092:                                                                                                  #            TRACK AND UPDATE FLAGS (SEE P20).  THE RENDEZVOUS TRACKING
000093:                                                                                                  #            MARK COUNTER IS ZEROED BY THE SELECTION OF P20 AND AFTER EACH
000094:                                                                                                  #            THRUSTING MANEUVER.
000095:
000096:                                                                                                  #        (5) THE ISS NEED NOT BE ON TO COMPLETE THIS PROGRAM.
000097:
000098:                                                                                                  #        (6) THE OPERATION OF THE PROGRAM UTILIZES THE FOLLOWING FLAGS -
000099:
000100:                                                                                                  #                ACTIVE VEHICLE FLAG - DESIGNATES THE VEHICLE WHICH IS
000101:                                                                                                  #                DOING RENDEZVOUS THRUSTING MANEUVERS TO THE PROGRAM WHICH
000102:                                                                                                  #                CALCULATES THE MANEUVER PARAMETERS.  SET AT THE START OF
000103:                                                                                                  #                EACH RENDEZVOUS PRE-THRUSTING PROGRAM.
000104:
000105:                                                                                                  #                FINAL FLAG - SELECTS FINAL PROGRAM DISPLAYS AFTER CREW HAS
000106:                                                                                                  #                SELECTED THE FINAL MANEUVER COMPUTATION CYCLE.
000107:
000108:                                                                                                  #                EXTERNAL DELTA V FLAG - DESIGNATES THE TYPE OF STEERING
000109:                                                                                                  #                REQUIRED FOR EXECUTION OF THIS MANEUVER BY THE THRUSTING
000110:                                                                                                  #                PROGRAM SELECTED AFTER COMPLETION OF THIS PROGRAM.
000111:
000112:                                                                                                  #        (7) ONCE THE PARAMETWRS REQUIRED FOR COMPUTION OF THE MANEUVER
000113:                                                                                                  #            HAVE BEEN COMPLETELY SPECIFIED, THE VALUE OF THE ACTIVE
000114:                                                                                                  #            VEHICLE CENTRAL ANGLE OF TRANSFER IS COMPUTED AND STORED.
000115:                                                                                                  #            THIS NUMBER WILL BE AVAILABLE FOR DISPLAY TO THE ASTRONAUT
000116:                                                                                                  #            THROUGH THE USE OF V06N52.
000117:
000118:                                                                                                  #            THE ASTRONAUT WILL CALL THIS DISPLAY TO VERIFY THAT THE
000119:                                                                                                  #            CENTRAL ANGLE OF TRANSFER OF THE ACTIVE VEHICLE IS NOT WITHIN


000121:                                                                                                  #            170 TO 190 DEGREES.  IF THE ANGLE IS WITHIN THIS ZONE THE
000122:                                                                                                  #            ASTRONAUT SHOULD REASSESS THE INPUT TARGETING PARAMETERS BASED
000123:                                                                                                  #            UPON DELTA V AND EXPECTED MANEUVER TIME.
000124:
000125:                                                                                                  #        (8) THIS PROGRAM IS SELECTED BY THE ASTRONAUT BY DSKY ENTRY -
000126:
000127:                                                                                                  #                P34 IF THIS VEHICLE IS ACTIVE VEHICLE.
000128:
000129:                                                                                                  #                P74 IF THIS VEHICLE IS PASSIVE VEHICLE.
000130:
000131:                                                                                                  #  INPUT
000132:
000133:                                                                                                  #        (1) TTPI     TIME OF THE TPI MANEUVER
000134:                                                                                                  #        (2) ELEV     DESIRED LOS ANGLE AT TPI
000135:                                                                                                  #        (3) CENTANG  ORBITAL CENTRAL ANGLE OF THE PASSIVE VEHICLE DURING
000136:                                                                                                  #                     TRANSFER FROM TPI TO TIME OF INTERCEPT
000137:
000138:                                                                                                  #  OUTPUT
000139:
000140:                                                                                                  #        (1) TRKMKCNT NUMBER OF MARKS
000141:                                                                                                  #        (2) TTOGO    TIME TO GO
000142:                                                                                                  #        (3) +MGA     MIDDLE GIMBAL ANGLE
000143:                                                                                                  #        (4) TTPI     COMPUTED TIME OF TPI MANEUVER
000144:                                                                                                  #             OR
000145:                                                                                                  #            ELEV     COMPUTED LOS ANGLE AT TPI
000146:                                                                                                  #        (5) POSTTPI  PERIGEE ALTITUDE AFTER THE TPI MANEUVER
000147:                                                                                                  #        (6) DELVTPI  MAGNITUDE OF DELTA V AT TPI
000148:                                                                                                  #        (7) DELVTPF  MAGNITUDE OF DELTA V AT INTERCEPT
000149:                                                                                                  #        (8) DVLOS    DELTA VELOCITY AT TPI - LINE OF SIGHT
000150:                                                                                                  #        (9) DELVLVC  DELTA VELOCITY AT TPI - LOCAL VERTICAL COORDINATES
000151:
000152:                                                                                                  #  DOWNLINK
000153:
000154:                                                                                                  #        (1) TTPI     TIME OF THE TPI MANEUVER
000155:                                                                                                  #        (2) TIG      TIME OF THE TPI MANEUVER
000156:                                                                                                  #        (3) ELEV     DESIRED LOS ANGLE AT TPI
000157:                                                                                                  #        (4) CENTANG  ORBITAL CENTRAL ANGLE OF THE PASSIVE VEHICLE DURING
000158:                                                                                                  #                     TRANSFER FROM TPI TO TIME OF INTERCEPT
000159:                                                                                                  #        (5) DELVEET3 DELTA VELOCITY AT TPI - REFERENCE COORDINATES
000160:                                                                                                  #        (6) TPASS4   TIME OF INTERCEPT
000161:                                                                                                  #  COMMUNICATION TO THRUSTING PROGRAMS
000162:
000163:                                                                                                  #        (1) TIG      TIME OF THE TPI MANEUVER
000164:                                                                                                  #        (2) RTARG    OFFSET TARGET POSITION
000165:                                                                                                  #        (3) TPASS4   TIME OF INTERCEPT
000166:                                                                                                  #        (4) XDELVFLG RESET TO INDICATE LAMBERT (AIMPOINT) VG COMPUTATION
000167:
000168:                                                                                                  #  SUBROUTINES USED
000169:
000170:                                                                                                  #        AVFLAGA


000172:                                                                                                  #        AVFLAGP
000173:                                                                                                  #        VNPOOH
000174:                                                                                                  #        DISPLAYE
000175:                                                                                                  #        SELECTMU
000176:                                                                                                  #        PRECSET
000177:                                                                                                  #        S33/34.1
000178:                                                                                                  #        ALARM
000179:                                                                                                  #        BANKCALL
000180:                                                                                                  #        GOFLASH
000181:                                                                                                  #        GOTOPOOH
000182:                                                                                                  #        TIMETHET
000183:                                                                                                  #        S34/35.2
000184:                                                                                                  #        PERIAPO1
000185:                                                                                                  #        SHIFTR1
000186:                                                                                                  #        S34/35.5
000187:                                                                                                  #        VN1645
000188:
000189: 35,2000                                           SETLOC   CSI/CDH
000190: 35,2000                                           BANK
000191: 35,2000  E4,1770                                  EBANK=   SUBEXIT
000192: 35,2000                                           COUNT    35/P3474
000193:
000194: 35,2000           03726        P34                TC       AVFLAGA
000195: 35,2001           02003                           TC       P34/P74A
000196: 35,2002           03741        P74                TC       AVFLAGP
000197: 35,2003           03746        P34/P74A           TC       P20FLGON                              #  SET UPDATFLG, TRACKFLG
000198: 35,2004           33125                           CAF      V06N37                                #  TTPI
000199: 35,2005           03114                           TC       VNPOOH
000200: 35,2006           03073                           TC       DISPLAYE                              #  ELEV AND CENTANG
000201: 35,2007           06006                           TC       INTPRET
000202: 35,2010           71214                           CLEAR    DLOAD
000203: 35,2011           01270                                    ETPIFLAG
000204: 35,2012           03663                                    TTPI
000205: 35,2013           17413                           STODL    TIG
000206: 35,2014           03744                                    ELEV
000207: 35,2015           43054                           BZE      SET
000208: 35,2016           72020                                    P34/P74B
000209: 35,2017           01070                                    ETPIFLAG
000210: 35,2020           77624        P34/P74B           CALL
000211: 35,2021           10716                                    SELECTMU
000212: 35,2022                        DELELO             EQUALS   26D
000213: 35,2022           43145        P34/P74C           DLOAD    SET
000214: 35,2023           15332                                    ZEROVECS
000215: 35,2024           03461                                    ITSWICH
000216: 35,2025           43014                           BON      CLEAR
000217: 35,2026           01310                                    ETPIFLAG
000218: 35,2027           72031                                    SWCHSET
000219: 35,2030           03661                                    ITSWICH
000220: 35,2031           02364        SWCHSET            STORE    NOMTPI
000221: 35,2032           43345        INTLOOP            DLOAD    DAD


000223: 35,2033           03663                                    TTPI
000224: 35,2034           02364                                    NOMTPI
000225: 35,2035           34041                           STCALL   TDEC1
000226: 35,2036           45354                                    PRECSET
000227: 35,2037           77624                           CALL
000228: 35,2040           72212                                    S33/34.1
000229: 35,2041           77454                           BZE      EXIT
000230: 35,2042           72053                                    SWCHCLR
000231: 35,2043           05537                           TC       ALARM
000232: 35,2044           00611                           OCT      611
000233: 35,2045           34743                           CAF      V05N09
000234: 35,2046           04555                           TC       BANKCALL
000235: 35,2047           20624                           CADR     GOFLASH
000236: 35,2050           04106                           TC       GOTOPOOH
000237: 35,2051           02003                           TC       P34/P74A                              #  PROCEED
000238: 35,2052           02043                           TC       -7                                    #  V32
000239:
000240: 35,2053           43014        SWCHCLR            BONCLR   BON
000241: 35,2054           03601                                    ITSWICH
000242: 35,2055           72032                                    INTLOOP
000243: 35,2056           01310                                    ETPIFLAG
000244: 35,2057           72063                                    P34/P74D                              #  DISPLAY TTPI
000245: 35,2060           77776                           EXIT
000246: 35,2061           03073                           TC       DISPLAYE                              #  DISPLAY ELEV AND CENTANG
000247: 35,2062           02066                           TC       P34/P74E
000248: 35,2063           77776        P34/P74D           EXIT
000249: 35,2064           33125                           CAF      V06N37                                #  TTPI
000250: 35,2065           03114                           TC       VNPOOH
000251: 35,2066           06006        P34/P74E           TC       INTPRET
000252: 35,2067           71201                           SETPD    DLOAD
000253: 35,2070           00001                                    0D
000254: 35,2071           03746                                    RTX1
000255: 35,2072           14047                           STODL    X1
000256: 35,2073           03754                                    CENTANG
000257: 35,2074           71406                           PUSH     COS
000258: 35,2075           16734                           STODL    CSTH
000259: 35,2076           77756                           SIN
000260: 35,2077           26732                           STOVL    SNTH
000261: 35,2100           03554                                    RPASS3
000262: 35,2101           77657                           VSR*
000263: 35,2102           57176                                    0,2
000264: 35,2103           26657                           STOVL    RVEC
000265: 35,2104           03562                                    VPASS3
000266: 35,2105           43057                           VSR*     SET
000267: 35,2106           57176                                    0,2
000268: 35,2107           03466                                    RVSW
000269: 35,2110           36746                           STCALL   VVEC
000270: 35,2111           24737                                    TIMETHET
000271: 35,2112           77745                           DLOAD
000272: 35,2113           03663                                    TTPI


000274: 35,2114           03503                           STORE    INTIME                                #  FOR INITVEL
000275: 35,2115           77615                           DAD
000276: 35,2116           00037                                    T                                     #  RENDEZVOUS TIME
000277: 35,2117           37656                           STCALL   TPASS4                                #  FOR INITVEL
000278: 35,2120           72534                                    S34/35.2
000279: 35,2121           51575                           VLOAD    ABVAL
000280: 35,2122           03646                                    DELVEET3
000281: 35,2123           26635                           STOVL    DELVTPI
000282: 35,2124           03640                                    VPASS4
000283: 35,2125           51451                           VSU      ABVAL
000284: 35,2126           03620                                    VTPRIME
000285: 35,2127           26637                           STOVL    DELVTPF
000286: 35,2130           03540                                    RACT3
000287: 35,2131           45115                           PDVL     CALL
000288: 35,2132           03612                                    VIPRIME
000289: 35,2133           45312                                    PERIAPO1
000290: 35,2134           77624                           CALL
000291: 35,2135           45422                                    SHIFTR1
000292: 35,2136           16641                           STODL    POSTTPI
000293: 35,2137           03663                                    TTPI
000294: 35,2140           03413                           STORE    TIG
000295: 35,2141           77776                           EXIT
000296: 35,2142           33127                           CAF      V06N58
000297: 35,2143           03114                           TC       VNPOOH
000298: 35,2144           06006                           TC       INTPRET
000299: 35,2145           77624                           CALL
000300: 35,2146           72742                                    S34/35.5
000301: 35,2147           77624                           CALL
000302: 35,2150           73005                                    VN1645
000303: 35,2151           77650                           GOTO
000304: 35,2152           72022                                    P34/P74C
000305:


000307:                                                                                                  #  RENDEZVOUS MID-COURSE MANEUVER PROGRAMS (P35 AND P75)
000308:
000309:                                                                                                  #  MOD NO -1       LOG SECTION - P32-P35, P72-P75
000310:                                                                                                  #  MOD BY WHITE.P  DATE  1JUNE67
000311:
000312:                                                                                                  #  PURPOSE
000313:
000314:                                                                                                  #        (1) TO CALCULATE THE REQUIRED DELTA V AND OTHER INITIAL CONDITIONS
000315:                                                                                                  #            REQUIRED BY THE ACTIVE VEHICLE FOR EXECUTION OF THE NEXT
000316:                                                                                                  #            MIDCOURSE CORRECTION OF THE TRANSFER PHASE OF AN ACTIVE
000317:                                                                                                  #            VEHICLE RENDEZVOUS.
000318:
000319:                                                                                                  #        (2) TO DISPLAY TO THE ASTRONAUT AND THE GROUND CERTAIN DEPENDENT
000320:                                                                                                  #            VARIABLES ASSOCIATED WITH THE MANEUVER FOR APPROVAL BY THE
000321:                                                                                                  #            ASTRONAUT/GROUND.
000322:
000323:                                                                                                  #        (3) TO STORE THE TPM TARGET PARAMETERS FOR USE BY THE DESIRED
000324:                                                                                                  #            THRUSTING PROGRAM.
000325:
000326:                                                                                                  #  ASSUMPTIONS
000327:
000328:                                                                                                  #        (1) THE ISS NEED NOT BE ON TO COMPLETE THIS PROGRAM.
000329:
000330:                                                                                                  #        (2) STATE VECTOR UPDATES BY P27 ARE DISALLOWED DURING AUTOMATIC
000331:                                                                                                  #            STATE VECTOR UPDATING INITIATED BY P20 (SEE ASSUMPTION (3)).
000332:
000333:                                                                                                  #        (3) THE RENDEZVOUS RADAR IS ON AND IS LOCKED ON THE CSM.  THIS WAS
000334:                                                                                                  #            DONE DURING PREVIOUS SELECTION OF P20.  RADAR SIGHTING MARKS
000335:                                                                                                  #            WILL BE MADE AUTOMATICALLY APPROXIMATELY ONCE A MINUTE WHEN
000336:                                                                                                  #            ENABLED BY THE TRACK AND UPDATE FLAGS (SEE P20). THE
000337:                                                                                                  #            RENDEZVOUS TRACKING MARK COUNTER IS ZEROED BY THE SELECTION OF
000338:                                                                                                  #            P20 AND AFTER EACH THRUSTING MANEUVER.
000339:
000340:                                                                                                  #        (4) THE OPERATION OF THE PROGRAM UTILIZES THE FOLLOWING FLAGS -
000341:
000342:                                                                                                  #                ACTIVE VEHICLE FLAG - DESIGNATES THE VEHICLE WHICH IS
000343:                                                                                                  #                DOING RENDEZVOUS THRUSTING MANEUVERS TO THE PROGRAM WHICH
000344:                                                                                                  #                CALCULATES THE MANEUVER PARAMETERS.  SET AT THE START OF
000345:                                                                                                  #                EACH RENDEZVOUS PRE-THRUSTING PROGRAM.
000346:
000347:                                                                                                  #                FINAL FLAG - SELECTS FINAL PROGRAM DISPLAYS AFTER CREW HAS
000348:                                                                                                  #                SELECTED THE FINAL MANEUVER COMPUTATION CYCLE.
000349:
000350:                                                                                                  #                EXTERNAL DELTA V FLAG - DESIGNATES THE TYPE OF STEERING
000351:                                                                                                  #                REQUIRED FOR EXECUTION OF THIS MANEUVER BY THE THRUSTING
000352:                                                                                                  #                PROGRAM SELECTED AFTER COMPLETION OF THIS PROGRAM.
000353:
000354:                                                                                                  #        (5) THE TIME OF INTERCEPT (T(INT)) WAS DEFINED BY PREVIOUS
000355:                                                                                                  #            COMPLETION OF THE TRANSFER PHASE INITIATION (TPI) PROGRAM
000356:                                                                                                  #            (P34/P74) AND IS PRESENTLY AVAILABLE IN STORAGE.
000357:


000359:                                                                                                  #        (6) ONCE THE PARAMETERS REQUIRED FOR COMPUTION OF THE MANEUVER
000360:                                                                                                  #            HAVE BEEN COMPLETELY SPECIFIED, THE VALUE OF THE ACTIVE
000361:                                                                                                  #            VEHICLE CENTRAL ANGLE OF TRANSFER IS COMPUTED AND STORED.
000362:                                                                                                  #            THIS NUMBER WILL BE AVAILABLE FOR DISPLAY TO THE ASTRONAUT
000363:                                                                                                  #            THROUGH THE USE OF V06N52.
000364:
000365:                                                                                                  #            THE ASTRONAUT WILL CALL THIS DISPLAY TO VERIFY THAT THE
000366:                                                                                                  #            CENTRAL ANGLE OF TRANSFER OF THE ACTIVE VEHICLE IS NOT WITHIN
000367:                                                                                                  #            170 TO 190 DEGREES.  IF THE ANGLE IS WITHIN THIS ZONE THE
000368:                                                                                                  #            ASTRONAUT SHOULD REASSESS THE INPUT TARGETING PARAMETERS BASED
000369:                                                                                                  #            UPON DELTA V AND EXPECTED MANEUVER TIME.
000370:
000371:                                                                                                  #        (7) THIS PROGRAM IS SELECTED BY THE ASTRONAUT BY DSKY ENTRY -
000372:
000373:                                                                                                  #                P35 IF THIS VEHICLE IS ACTIVE VEHICLE.
000374:
000375:                                                                                                  #                P75 IF THIS VEHICLE IS PASSIVE VEHICLE.
000376:
000377:                                                                                                  #  INPUT
000378:
000379:                                                                                                  #        (1) TPASS4   TIME OF INTERCEPT - SAVED FROM P34/P74
000380:                                                                                                  #  OUTPUT
000381:
000382:                                                                                                  #        (1) TRKMKCNT NUMBER OF MARKS
000383:                                                                                                  #        (2) TTOGO    TIME TO GO
000384:                                                                                                  #        (3) +MGA     MIDDLE GIMBAL ANGLE
000385:                                                                                                  #        (4) DVLOS    DELTA VELOCITY AT MID - LINE OF SIGHT
000386:                                                                                                  #        (5) DELVLVC  DELTA VELOCITY AT MID - LOCAL VERTICAL COORDINATES
000387:
000388:                                                                                                  #  DOWNLINK
000389:
000390:                                                                                                  #        (1) TIG      TIME OF THE TPM MANEUVER
000391:                                                                                                  #        (2) DELVEET3 DELTA VELOCITY AT TPM - REFERENCE COORDINATES
000392:                                                                                                  #        (3) TPASS4   TIME OF INTERCEPT
000393:                                                                                                  #  COMMUNICATION TO THRUSTING PROGRAMS
000394:
000395:                                                                                                  #        (1) TIG      TIME OF THE TPM MANEUVER
000396:                                                                                                  #        (2) RTARG    OFFSET TARGET POSITION
000397:                                                                                                  #        (3) TPASS4   TIME OF INTERCEPT
000398:                                                                                                  #        (4) XDELVFLG RESET TO INDICATE LAMBERT (AIMPOINT) VG COMPUTATION
000399:
000400:                                                                                                  #  SUBROUTINES USED
000401:
000402:                                                                                                  #        AVFLAGA
000403:                                                                                                  #        AVFLAGP
000404:                                                                                                  #        LOADTIME
000405:                                                                                                  #        SELECTMU
000406:                                                                                                  #        PRECSET
000407:                                                                                                  #        S34/35.1
000408:                                                                                                  #        S34/35.2


000410:                                                                                                  #        S34/35.5
000411:                                                                                                  #        VN1645
000412:
000413: 35,2153                                           COUNT    35/P3575
000414: 35,2153  E4,1763                                  EBANK=   KT
000415:
000416: 35,2153           03726        P35                TC       AVFLAGA
000417: 35,2154           00006                           EXTEND
000418: 35,2155           31422                           DCA      ATIGINC
000419: 35,2156           02162                           TC       P35/P75A
000420: 35,2157           03741        P75                TC       AVFLAGP
000421: 35,2160           00006                           EXTEND
000422: 35,2161           31424                           DCA      PTIGINC
000423: 35,2162           53764        P35/P75A           DXCH     KT
000424: 35,2163           03746                           TC       P20FLGON                              #  SET UPDATFLG, TRACKFLG
000425: 35,2164           06006                           TC       INTPRET
000426: 35,2165           77624                           CALL
000427: 35,2166           10716                                    SELECTMU
000428: 35,2167           77634        P35/P75B           RTB
000429: 35,2170           45505                                    LOADTIME
000430: 35,2171           03665                           STORE    TSTRT
000431: 35,2172           77615                           DAD
000432: 35,2173           02364                                    KT
000433: 35,2174           03413                           STORE    TIG
000434: 35,2175           03503                           STORE    INTIME                                #  FOR INITVEL
000435: 35,2176           34041                           STCALL   TDEC1
000436: 35,2177           45354                                    PRECSET                               #  ADVANCE BOTH VEHICLES
000437: 35,2200           77624                           CALL
000438: 35,2201           72522                                    S34/35.1                              #  GET NORM AND LOS FOR TRANSFORM
000439: 35,2202           77624                           CALL
000440: 35,2203           72534                                    S34/35.2                              #  GET DELTA V(LV)
000441: 35,2204           77624                           CALL
000442: 35,2205           72742                                    S34/35.5
000443: 35,2206           77624                           CALL
000444: 35,2207           73005                                    VN1645
000445: 35,2210           77650                           GOTO
000446: 35,2211           72167                                    P35/P75B
000447:


000449:                                                                                                  #  ..... S33/34.1  .....
000450:
000451: 35,2212           66220        S33/34.1           STQ      SSP
000452: 35,2213           01340                                    NORMEX
000453: 35,2214           03665                                    TITER
000454: 35,2215           40000                           OCT      40000
000455: 35,2216           40345                           DLOAD    SETPD
000456: 35,2217           33136                                    MAX250
000457: 35,2220           00001                                    0D
000458: 35,2221           27454                           STOVL    SECMAX
000459: 35,2222           03540                                    RACT3
000460: 35,2223           27576                           STOVL    RAPREC
000461: 35,2224           03546                                    VACT3
000462: 35,2225           27570                           STOVL    VAPREC
000463: 35,2226           03554                                    RPASS3
000464: 35,2227           27620                           STOVL    RPPREC
000465: 35,2230           03562                                    VPASS3
000466: 35,2231           03612                           STORE    VPPREC
000467: 35,2232           77624        ELCALC             CALL
000468: 35,2233           72522                                    S34/35.1                              #  NORMAL AND LOS
000469: 35,2234           63235                           VXV      PDVL
000470: 35,2235           03540                                    RACT3                                 #  (RA*VA)*RA 0D
000471: 35,2236           53515                           PDVL     UNIT                                  #  ULOS AT 6D
000472: 35,2237           03540                                    RACT3
000473: 35,2240           46315                           PDVL     VPROJ                                 #  XCHNJ AND UP
000474: 35,2241           51352                           VSL2     BVSU
000475: 35,2242           02625                                    ULOS
000476: 35,2243           63256                           UNIT     PDVL                                  #  UP AT 0D
000477: 35,2244           63241                           DOT      PDVL                                  #  UP.UN*RA AT 0D
000478: 35,2245           00001                                    0D                                    #  UP IN MPAC
000479: 35,2246           75241                           DOT      SIGN
000480: 35,2247           02625                                    ULOS
000481: 35,2250           65552                           SL1      ACOS
000482: 35,2251           50315                           PDVL     DOT                                   #  EA AT 0D
000483: 35,2252           02625                                    ULOS
000484: 35,2253           03540                                    RACT3
000485: 35,2254           71244                           BPL      DLOAD
000486: 35,2255           72260                                    TESTY
000487: 35,2256           15340                                    DPPOSMAX
000488: 35,2257           41425                           DSU      PUSH
000489: 35,2260           71214        TESTY              BOFF     DLOAD
000490: 35,2261           03741                                    ITSWICH
000491: 35,2262           72507                                    ELEX
000492: 35,2263           03452                                    DELEL
000493: 35,2264           14033                           STODL    DELELO
000494: 35,2265           77625                           DSU
000495: 35,2266           03744                                    ELEV
000496: 35,2267           03452                           STORE    DELEL
000497: 35,2270           45246                           ABS      DSU
000498: 35,2271           33142                                    ELEPS


000500: 35,2272           77640                           BMN
000501: 35,2273           72517                                    TIMEX                                 #  COMMERCIALS EVERYWHERE
000502: 35,2274           70535        FIGTIME            SLOAD    SR1
000503: 35,2275           03665                                    TITER
000504: 35,2276           72030                           BHIZ     LXA,1
000505: 35,2277           01340                                    NORMEX                                #  TOO MANY ITERATIONS
000506: 35,2300           00154                                    MPAC
000507: 35,2301           77330                           SXA,1    VLOAD
000508: 35,2302           03664                                    TITER
000509: 35,2303           03554                                    RPASS3
000510: 35,2304           65256                           UNIT     PDDL
000511: 35,2305           00045                                    36D
000512: 35,2306           53515                           PDVL     UNIT
000513: 35,2307           03540                                    RACT3
000514: 35,2310           77725                           PDDL
000515: 35,2311           41525                           PDDL     PUSH
000516: 35,2312           00045                                    36D
000517: 35,2313           77621                           BDSU
000518: 35,2314           00015                                    12D
000519: 35,2315           14037                           STODL    30D                                   #  RP - RA MAGNITUDES
000520: 35,2316           15330                                    DPHALF
000521: 35,2317           41425                           DSU      PUSH
000522: 35,2320           03744                                    ELEV
000523: 35,2321           50165                           SIGN     BMN
000524: 35,2322           00037                                    30D
000525: 35,2323           01340                                    NORMEX
000526: 35,2324           71545                           DLOAD    COS
000527: 35,2325           56205                           DMP      DDV
000528: 35,2326           00017                                    14D
000529: 35,2327           00015                                    12D
000530: 35,2330           77676                           DCOMP                                          #  SINCE COS(180-A)=-COS A
000531: 35,2331           00035                           STORE    28D
000532: 35,2332           44246                           ABS      BDSU
000533: 35,2333           15330                                    DPHALF
000534: 35,2334           77240                           BMN      VLOAD
000535: 35,2335           01340                                    NORMEX
000536: 35,2336           02617                                    UNRM
000537: 35,2337           53435                           VXV      UNIT
000538: 35,2340           00007                                    6D                                    #  UN*RA
000539: 35,2341           41241                           DOT      DMP
000540: 35,2342           03546                                    VACT3
000541: 35,2343           00015                                    12D
000542: 35,2344           47315                           PDVL     VXV
000543: 35,2345           00001                                    0D
000544: 35,2346           03562                                    VPASS3
000545: 35,2347           53435                           VXV      UNIT
000546: 35,2350           00001                                    0D                                    #  (RP*VP)*RP
000547: 35,2351           41241                           DOT      DMP
000548: 35,2352           03562                                    VPASS3
000549: 35,2353           00017                                    14D


000551: 35,2354           77621                           BDSU
000552: 35,2355           63301                           NORM     PDVL                                  #  NORMALIZED WA - WP 12D
000553: 35,2356           00047                                    X1
000554: 35,2357           00007                                    6D
000555: 35,2360           50235                           VXV      DOT
000556: 35,2361           00001                                    0D
000557: 35,2362           02617                                    UNRM                                  #  RA*RP.UN 14D
000558: 35,2363           50315                           PDVL     DOT
000559: 35,2364           00001                                    0D
000560: 35,2365           00007                                    6D
000561: 35,2366           65552                           SL1      ACOS
000562: 35,2367           77765                           SIGN
000563: 35,2370           43225                           DSU      DAD                                   #    ALPHA   PI
000564: 35,2371           15330                                    DPHALF
000565: 35,2372           03744                                    ELEV
000566: 35,2373           65525                           PDDL     ACOS
000567: 35,2374           00035                                    28D
000568: 35,2375           75221                           BDSU     SIGN
000569: 35,2376           15330                                    DPHALF
000570: 35,2377           00037                                    30D                                   #  CONTAINS RP-RA
000571: 35,2400           77615                           DAD
000572: 35,2401           56205                           DMP      DDV
000573: 35,2402           33134                                    TWOPI
000574: 35,2403           77605                           DMP
000575: 35,2404           41257                           SL*      DMP
000576: 35,2405           20176                                    0          -3,1
000577: 35,2406           51406                           PUSH     ABS
000578: 35,2407           50025                           DSU      BMN
000579: 35,2410           03454                                    SECMAX
000580: 35,2411           72415                                    OKMAX
000581: 35,2412           75345                           DLOAD    SIGN                                  #   REPLACE TIME WITH MAX TIME SIGNED
000582: 35,2413           03454                                    SECMAX
000583: 35,2414           77606                           PUSH
000584: 35,2415           51135        OKMAX              SLOAD    BPL                                   #  TEST FIRST ITERATION
000585: 35,2416           03665                                    TITER
000586: 35,2417           72425                                    REPETE
000587: 35,2420           71331                           SSP      DLOAD
000588: 35,2421           03665                                    TITER
000589: 35,2422           37777                           OCT      37777
000590: 35,2423           77650                           GOTO
000591: 35,2424           72463                                    STORDELT
000592: 35,2425           41345        REPETE             DLOAD    DMP
000593: 35,2426           03452                                    DELEL
000594: 35,2427           00033                                    DELELO
000595: 35,2430           71244                           BPL      DLOAD
000596: 35,2431           72441                                    NEXTES
000597: 35,2432           03454                                    SECMAX
000598: 35,2433           77605                           DMP
000599: 35,2434           33140                                    THIRD
000600: 35,2435           17454                           STODL    SECMAX


000602: 35,2436           70446                           ABS      SR1                                   #  CROSSED OVER SOLUTION
000603: 35,2437           52076                           DCOMP    GOTO                                  #  DT=(-SIGN(DTO)//DT//)/2
000604: 35,2440           72451                                    RESIGN
000605: 35,2441           51545        NEXTES             DLOAD    ABS
000606: 35,2442           03452                                    DELEL
000607: 35,2443           51525                           PDDL     ABS
000608: 35,2444           00033                                    DELELO
000609: 35,2445           77625                           DSU
000610: 35,2446           71240                           BMN      DLOAD
000611: 35,2447           72454                                    REVERS                                #   WRONG DIRECTION
000612: 35,2450           77646                           ABS
000613: 35,2451           52165        RESIGN             SIGN     GOTO
000614: 35,2452           03450                                    DELTEEO
000615: 35,2453           72463                                    STORDELT
000616: 35,2454           57545        REVERS             DLOAD    DCOMP
000617: 35,2455           03450                                    DELTEEO
000618: 35,2456           70406                           PUSH     SR1
000619: 35,2457           03450                           STORE    DELTEEO
000620: 35,2460           77615                           DAD
000621: 35,2461           77650                           GOTO
000622: 35,2462           72464                                    ADTIME
000623: 35,2463           03450        STORDELT           STORE    DELTEEO
000624: 35,2464           77615        ADTIME             DAD
000625: 35,2465           02364                                    NOMTPI                                #  SUM OF DELTA T:S
000626: 35,2466           02364                           STORE    NOMTPI
000627: 35,2467           63375                           VLOAD    PDVL
000628: 35,2470           03570                                    VAPREC
000629: 35,2471           03576                                    RAPREC
000630: 35,2472           77624                           CALL
000631: 35,2473           72702                                    GOINT
000632: 35,2474           77624                           CALL
000633: 35,2475           45376                                    ACTIVE                                #  STORE NEW RACT3 VACT3
000634: 35,2476           63375                           VLOAD    PDVL
000635: 35,2477           03612                                    VPPREC
000636: 35,2500           03620                                    RPPREC
000637: 35,2501           77624                           CALL
000638: 35,2502           72702                                    GOINT
000639: 35,2503           77624                           CALL
000640: 35,2504           45406                                    PASSIVE                               #  STORE NEW RPASS3 VPASS3
000641: 35,2505           77650                           GOTO
000642: 35,2506           72232                                    ELCALC
000643: 35,2507           43345        ELEX               DLOAD    DAD
000644: 35,2510           03663                                    TTPI
000645: 35,2511           02364                                    NOMTPI
000646: 35,2512           17663                           STODL    TTPI
000647: 35,2513           77614                           BON
000648: 35,2514           01310                                    ETPIFLAG
000649: 35,2515           72517                                    TIMEX
000650: 35,2516           03744                           STORE    ELEV
000651: 35,2517           52145        TIMEX              DLOAD    GOTO


000653: 35,2520           15332                                    ZEROVECS
000654: 35,2521           01340                                    NORMEX
000655:


000657:                                                                                                  #  ..... S34/35.1  .....
000658:
000659:                                                                                                  #  COMPUTE UNIT NORMAL AND LINE OF SIGHT VECTORS GIVEN THE ACTIVE AND
000660:                                                                                                  #  PASSIVE POS AND VEL AT TIME T3
000661:
000662: 35,2522           52375        S34/35.1           VLOAD    VSU
000663: 35,2523           03554                                    RPASS3
000664: 35,2524           03540                                    RACT3
000665: 35,2525           41456                           UNIT     PUSH
000666: 35,2526           26625                           STOVL    ULOS
000667: 35,2527           03540                                    RACT3
000668: 35,2530           53435                           VXV      UNIT
000669: 35,2531           03546                                    VACT3
000670: 35,2532           02617                           STORE    UNRM
000671: 35,2533           77616                           RVQ
000672:


000674:                                                                                                  #  ..... S34/35.2  .....
000675:
000676:                                                                                                  #  ADVANCE PASSIVE VEH TO RENDEZVOUS TIME AND GET REQ VEL FROM LAMBERT
000677: 35,2534           77220        S34/35.2           STQ      VLOAD
000678: 35,2535           02370                                    SUBEXIT
000679: 35,2536           03562                                    VPASS3
000680: 35,2537           65315                           PDVL     PDDL
000681: 35,2540           03554                                    RPASS3
000682: 35,2541           03503                                    INTIME
000683: 35,2542           65325                           PDDL     PDDL
000684: 35,2543           03656                                    TPASS4
000685: 35,2544           15332                                    ZEROVECS
000686: 35,2545           45006                           PUSH     CALL
000687: 35,2546           72706                                    INTINT                                #  GET TARGET VECTOR
000688: 35,2547           27415        S3435.25           STOVL    RTARG
000689: 35,2550           00007                                    VATT
000690: 35,2551           27640                           STOVL    VPASS4
000691: 35,2552           03415                                    RTARG
000692:                                                                                                  #  COMPUTE PHI = PI +(ACOS(UNIT RA.UNIT RP)-PI)SIGN(RA*RP.U)
000693: 35,2553           63256                           UNIT     PDVL                                  #  UNIT RP
000694: 35,2554           03540                                    RACT3
000695: 35,2555           41456                           UNIT     PUSH                                  #  UNIT RA
000696: 35,2556           50235                           VXV      DOT
000697: 35,2557           00001                                    0D
000698: 35,2560           02617                                    UNRM                                  #  RA*RP.U
000699: 35,2561           77715                           PDVL
000700: 35,2562           72441                           DOT      SL1                                   #  UNIT RA.UNIT RP
000701: 35,2563           00001                                    0D
000702: 35,2564           75326                           ACOS     SIGN
000703: 35,2565           43244                           BPL      DAD
000704: 35,2566           72570                                    NOPIE
000705: 35,2567           15340                                    DPPOSMAX                              #  REASONABLE TWO PI
000706: 35,2570           16633        NOPIE              STODL    ACTCENT
000707: 35,2571           03656                                    TPASS4
000708: 35,2572           77625                           DSU
000709: 35,2573           03503                                    INTIME
000710: 35,2574           03423                           STORE    DELLT4
000711: 35,2575           40335                           SLOAD    SETPD
000712: 35,2576           33144                                    DECTWO
000713: 35,2577           00001                                    0D
000714: 35,2600           63325                           PDDL     PDVL
000715: 35,2601           33147                                    EPSFOUR
000716: 35,2602           03540                                    RACT3
000717: 35,2603           27570                           STOVL    RINIT
000718: 35,2604           03546                                    VACT3
000719: 35,2605           37576                           STCALL   VINIT
000720: 35,2606           22000                                    INITVEL
000721: 35,2607           77624                           CALL
000722: 35,2610           72667                                    LOMAT
000723: 35,2611           64375                           VLOAD    MXV


000725: 35,2612           03646                                    DELVEET3
000726: 35,2613           00001                                    0D
000727: 35,2614           77772                           VSL1
000728: 35,2615           37405                           STCALL   DELVLVC
000729: 35,2616           02370                                    SUBEXIT
000730:


000732:                                                                                                  #  ..... S34/35.3  .....
000733:
000734: 35,2617           45020        S34/35.3           STQ      CALL
000735: 35,2620           01340                                    NORMEX
000736: 35,2621           72667                                    LOMAT                                 #  GET MATRIX IN PUSH LIST
000737: 35,2622           61375                           VLOAD    VXM
000738: 35,2623           03405                                    DELVLVC                               #  NEW DEL V TPI
000739: 35,2624           00001                                    0D
000740: 35,2625           77772                           VSL1
000741: 35,2626           03646                           STORE    DELVEET3                              #  SAVE FOR TRANSFORM
000742: 35,2627           63255                           VAD      PDVL
000743: 35,2630           03546                                    VACT3                                 #  NEW V REQ
000744: 35,2631           03540                                    RACT3
000745: 35,2632           65325                           PDDL     PDDL
000746: 35,2633           03413                                    TIG
000747: 35,2634           03656                                    TPASS4
000748: 35,2635           41525                           PDDL     PUSH
000749: 35,2636           15340                                    DPPOSMAX
000750: 35,2637           77624                           CALL                                           #  INTEG. FOR NEW TARGET VEC
000751: 35,2640           72706                                    INTINT
000752: 35,2641           77775                           VLOAD
000753: 35,2642           00001                                    RATT
000754: 35,2643           03415                           STORE    RTARG
000755: 35,2644           41575        NOVRWRT            VLOAD    PUSH
000756: 35,2645           02625                                    ULOS
000757: 35,2646           57435                           VXV      VCOMP
000758: 35,2647           02617                                    UNRM
000759: 35,2650           41456                           UNIT     PUSH
000760: 35,2651           76435                           VXV      VSL1
000761: 35,2652           02625                                    ULOS
000762: 35,2653           77715                           PDVL
000763: 35,2654           64315                           PDVL     MXV
000764: 35,2655           03646                                    DELVEET3
000765: 35,2656           00001                                    0D
000766: 35,2657           77772                           VSL1
000767: 35,2660           36611                           STCALL   DVLOS
000768: 35,2661           01340                                    NORMEX
000769:


000771:                                                                                                  #  ..... S34/35.4  .....
000772:
000773: 35,2662           40220        S34/35.4           STQ      SETPD                                 #  NO ASTRONAUT OVERWRITE
000774: 35,2663           01340                                    NORMEX
000775: 35,2664           00001                                    0D
000776: 35,2665           77650                           GOTO
000777: 35,2666           72644                                    NOVRWRT
000778:


000780:                                                                                                  #  ..... LOMAT     .....
000781:
000782: 35,2667           57575        LOMAT              VLOAD    VCOMP
000783: 35,2670           02617                                    UNRM
000784: 35,2671           24007                           STOVL    6D                                    #  Y
000785: 35,2672           03540                                    RACT3
000786: 35,2673           57456                           UNIT     VCOMP
000787: 35,2674           00015                           STORE    12D
000788: 35,2675           76435                           VXV      VSL1
000789: 35,2676           02617                                    UNRM                                  #  Z*-Y
000790: 35,2677           00001                           STORE    0D
000791: 35,2700           43401                           SETPD    RVQ
000792: 35,2701           00023                                    18D
000793: 35,2702           65325        GOINT              PDDL     PDDL                                  #  DO
000794: 35,2703           15332                                    ZEROVECS                              #    NOT
000795: 35,2704           02364                                    NOMTPI                                #
000796: 35,2705           41406                           PUSH     PUSH                                  #             ORDER OR INSERT BEFORE INTINT
000797: 35,2706           45020        INTINT             STQ      CALL
000798: 35,2707           02367                                    RTRN
000799: 35,2710           27371                                    INTSTALL
000800: 35,2711           71214                           CLEAR    DLOAD
000801: 35,2712           01673                                    INTYPFLG
000802: 35,2713           43054                           BZE      SET
000803: 35,2714           72716                                    +2
000804: 35,2715           01473                                    INTYPFLG
000805: 35,2716           45545                           DLOAD    STADR
000806: 35,2717           63736                           STODL    TDEC1
000807: 35,2720           73014                           SET      LXA,2
000808: 35,2721           00063                                    MOONFLAG
000809: 35,2722           03746                                    RTX2
000810: 35,2723           43014                           BON      CLEAR
000811: 35,2724           04303                                    CMOONFLG
000812: 35,2725           72727                                    ALLSET
000813: 35,2726           00263                                    MOONFLAG
000814: 35,2727           25517        ALLSET             STOVL    TET
000815: 35,2730           77657                           VSR*
000816: 35,2731           57176                                    0,2
000817: 35,2732           25535                           STOVL    RCV
000818: 35,2733           77657                           VSR*
000819: 35,2734           57176                                    0,2
000820: 35,2735           35543                           STCALL   VCV
000821: 35,2736           27066                                    INTEGRVS
000822: 35,2737           52175                           VLOAD    GOTO
000823: 35,2740           00001                                    RATT
000824: 35,2741           02367                                    RTRN
000825:


000827:                                                                                                  #  ..... S34/35.5  .....
000828:                                                                                                  #  SUBROUTINES USED
000829:
000830:                                                                                                  #        BANKCALL
000831:                                                                                                  #        GOFLASH
000832:                                                                                                  #        GOTOPOOH
000833:                                                                                                  #        S34/35.3
000834:                                                                                                  #        S34/35.4
000835:                                                                                                  #        VNPOOH
000836:
000837: 35,2742           43020        S34/35.5           STQ      BON
000838: 35,2743           02370                                    SUBEXIT
000839: 35,2744           01311                                    FINALFLG
000840: 35,2745           72751                                    FLAGON
000841: 35,2746           52014                           SET      GOTO
000842: 35,2747           00470                                    UPDATFLG
000843: 35,2750           72775                                    FLAGOFF
000844: 35,2751           77414        FLAGON             CLEAR    EXIT
000845: 35,2752           03274                                    NTARGFLG
000846: 35,2753           33131                           CAF      V06N81
000847: 35,2754           04555                           TC       BANKCALL
000848: 35,2755           20624                           CADR     GOFLASH
000849: 35,2756           04106                           TC       GOTOPOOH
000850: 35,2757           02764                           TC       +5
000851: 35,2760           06006                           TC       INTPRET
000852: 35,2761           77414                           SET      EXIT
000853: 35,2762           03074                                    NTARGFLG
000854: 35,2763           02753                           TC       FLAGON     +2
000855: 35,2764           06006                           TC       INTPRET
000856: 35,2765           45014                           BOFF     CALL
000857: 35,2766           03354                                    NTARGFLG
000858: 35,2767           72771                                    NOCHG
000859: 35,2770           72617                                    S34/35.3
000860: 35,2771           77214        NOCHG              CLEAR    VLOAD
000861: 35,2772           01267                                    XDELVFLG
000862: 35,2773           03646                                    DELVEET3
000863: 35,2774           03646                           STORE    DELVSIN
000864: 35,2775           77624        FLAGOFF            CALL
000865: 35,2776           72662                                    S34/35.4
000866: 35,2777           77776                           EXIT
000867: 35,3000           33130                           CAF      V06N59
000868: 35,3001           03114                           TC       VNPOOH
000869: 35,3002           06006                           TC       INTPRET
000870: 35,3003           77650                           GOTO
000871: 35,3004           02370                                    SUBEXIT
000872:


000874:                                                                                                  #  ..... VN1645    .....
000875:
000876:                                                                                                  #  SUBROUTINES USED
000877:
000878:                                                                                                  #        P3XORP7X
000879:                                                                                                  #        GET+MGA
000880:                                                                                                  #        BANKCALL
000881:                                                                                                  #        DELAYJOB
000882:                                                                                                  #        COMPTGO
000883:                                                                                                  #        GOFLASHR
000884:                                                                                                  #        GOTOPOOH
000885:                                                                                                  #        FLAGUP
000886:
000887: 35,3005           71220        VN1645             STQ      DLOAD
000888: 35,3006           02370                                    SUBEXIT
000889: 35,3007           33145                                    DP-.01
000890: 35,3010           03626                           STORE    +MGA                                  #  MGA = -.01
000891: 35,3011           71214                           BOFF     DLOAD
000892: 35,3012           01351                                    FINALFLG
000893: 35,3013           73033                                    GET45
000894: 35,3014           33145                                    DP-.01
000895: 35,3015           77615                           DAD
000896: 35,3016           33145                                    DP-.01
000897: 35,3017           03626                           STORE    +MGA                                  #  MGA = -.02
000898: 35,3020           77414                           BOFF     EXIT
000899: 35,3021           01742                                    REFSMFLG
000900: 35,3022           73033                                    GET45
000901: 35,3023           03106                           TC       P3XORP7X
000902: 35,3024           03026                           TC       +2                                    #  P3X
000903: 35,3025           03034                           TC       GET45      +1                         #  P7X
000904: 35,3026           06006                           TC       INTPRET
000905: 35,3027           41575                           VLOAD    PUSH
000906: 35,3030           03646                                    DELVSIN
000907: 35,3031           77624                           CALL                                           #  COMPUTE MGA
000908: 35,3032           10660                                    GET+MGA
000909: 35,3033           77776        GET45              EXIT
000910: 35,3034           03564                           TC       COMPTGO                               #  INITIATE TASK TO UPDATE TTOGO
000911: 35,3035           31770                           CA       SUBEXIT
000912: 35,3036           55766                           TS       QSAVED
000913: 35,3037           34734                           CAF      1SEC
000914: 35,3040           04555                           TC       BANKCALL
000915: 35,3041           01730                           CADR     DELAYJOB
000916: 35,3042           33132                           CAF      V16N45                                #  TRKMKCNT, TTOGO, +MGA
000917: 35,3043           04555                           TC       BANKCALL
000918: 35,3044           20624                           CADR     GOFLASH
000919: 35,3045           03050                           TC       KILCLOCK                              #  TERMINATE
000920: 35,3046           03053                           TC       N45PROC                               #  PROCEED
000921: 35,3047           03063                           TC       CLUPDATE                              #  RECYCLE - RETURN FOR INITIAL COMPUTATION
000922: 35,3050           30005        KILCLOCK           CA       Z
000923: 35,3051           54000                           TS       DISPDEX


000925: 35,3052           04106                           TC       GOTOPOOH
000926: 35,3053           40076        N45PROC            CS       FLAGWRD2
000927: 35,3054           74705                           MASK     BIT6
000928: 35,3055           00006                           EXTEND
000929: 35,3056           13050                           BZF      KILCLOCK                              #  FINALFLG IS SET-FLASH V37-AWAIT NEW PGM
000930: 35,3057           05301                           TC       PHASCHNG
000931: 35,3060           04024                           OCT      04024
000932: 35,3061           05435                           TC       UPFLAG                                #  SET
000933: 35,3062           00047                           ADRES    FINALFLG                              #  FINALFLG
000934: 35,3063           30005        CLUPDATE           CA       Z
000935: 35,3064           54000                           TS       DISPDEX
000936: 35,3065           05301                           TC       PHASCHNG
000937: 35,3066           04024                           OCT      04024
000938: 35,3067           06006                           TC       INTPRET
000939: 35,3070           52014                           CLEAR    GOTO
000940: 35,3071           00670                                    UPDATFLG
000941: 35,3072           02366                                    QSAVED
000942:


000944:                                                                                                  #  ..... DISPLAYE  .....
000945:
000946:                                                                                                  #  SUBROUTINES USED
000947:
000948:                                                                                                  #        BANKCALL
000949:                                                                                                  #        GOFLASHR
000950:                                                                                                  #        GOTOPOOH
000951:                                                                                                  #        BLANKET
000952:                                                                                                  #        ENDOFJOB
000953:
000954: 35,3073           00006        DISPLAYE           EXTEND
000955: 35,3074           23340                           QXCH     NORMEX
000956: 35,3075           33126                           CAF      V06N55
000957: 35,3076           04555                           TCR      BANKCALL
000958: 35,3077           20763                           CADR     GOFLASHR
000959: 35,3100           14106                           TCF      GOTOPOOH
000960: 35,3101           01340                           TC       NORMEX
000961: 35,3102           13075                           TCF      -5
000962: 35,3103           34712                           CAF      BIT1                                  #  BLANK R1
000963: 35,3104           05415                           TCR      BLANKET
000964: 35,3105           15112                           TCF      ENDOFJOB
000965:


000967:                                                                                                  #  ..... P3XORP7X  .....
000968:
000969: 35,3106           37713        P3XORP7X           CAF      HIGH9
000970: 35,3107           71011                           MASK     MODREG
000971: 35,3110           00006                           EXTEND
000972: 35,3111           13113                           BZF      +2
000973: 35,3112           24002                           INCR     Q
000974: 35,3113           00002                           RETURN
000975:
000976:                                                                                                  #  ..... VNPOOH    .....
000977:
000978:                                                                                                  #  SUBROUTINES USED
000979:
000980:                                                                                                  #        BANKCALL
000981:                                                                                                  #        GOFLASH
000982:                                                                                                  #        GOTOPOOH
000983:
000984: 35,3114           00006        VNPOOH             EXTEND
000985: 35,3115           23767                           QXCH     RTRN
000986: 35,3116           55765                           TS       VERBNOUN
000987: 35,3117           31765                           CA       VERBNOUN
000988: 35,3120           04555                           TCR      BANKCALL
000989: 35,3121           20624                           CADR     GOFLASH
000990: 35,3122           14106                           TCF      GOTOPOOH
000991: 35,3123           01767                           TC       RTRN
000992: 35,3124           13117                           TCF      -5
000993:


000995:                                                                                                  #  ..... CONSTANTS .....
000996:
000997: 35,3125           01445        V06N37             VN       0637
000998: 35,3126           01467        V06N55             VN       0655
000999: 35,3127           01472        V06N58             VN       0658
001000: 35,3130           01473        V06N59             VN       0659
001001: 35,3131           01521        V06N81             VN       0681
001002: 35,3132           04055        V16N45             VN       1645
001003: 35,3133           14441 37325  TWOPI              2DEC     6.283185307 B-4
001004: 35,3135           00001 20650  MAX250             2DEC     25         E3
001005: 35,3137           12525 12525  THIRD              2DEC     .333333333
001006: 35,3141           00004 21505  ELEPS              2DEC     .27777777  E-3
001007: 35,3143           00002        DECTWO             OCT      2
001008: 35,3144           77777        DP-.01             OCT      77777                                 #  CONSTANTS
001009: 35,3145           61337                           OCT      61337                                 #  ADJACENT       -.01 FOR MGA DSP
001010: 35,3146           01252 25253  EPSFOUR            2DEC     .0416666666
001011:


001013:                                                                                                  #  ..... INITVEL .....
001014:
001015:                                                                                                  #  MOD NO -1       LOG SECTION - P34-P35, P74-P75
001016:                                                                                                  #  MOD BY WHITE.P  DATE  21NOV67
001017:
001018:                                                                                                  #  FUNCTIONAL DESCRIPTION
001019:
001020:                                                                                                  #        THIS SUBROUTINE COMPUTES THE REQUIRED INITIAL VELOCITY VECTOR FOR
001021:                                                                                                  #        A TRAJECTORY OF SPECIFIED TRANSFER TIME BETWEEN SPECIFIED INITIAL
001022:                                                                                                  #        AND TARGET POSITIONS.  THE TRAJECTORY MAY BE EITHER CONIC OR
001023:                                                                                                  #        PRECISION DEPENDING ON AN INPUT PARAMETER (NAMELY, NUMBER OF
001024:                                                                                                  #        OFFSETS).  IN ADDITION, IN TH EPRECISION TRAJECTORY CASE, THE
001025:                                                                                                  #        SUBROUTINE ALSO COMPUTES AN OFFSET TARGET VECTOR, TO BE USED
001026:                                                                                                  #        DURING PURE-CONIC CROSS-PRODUCT STEERING.  THE OFFSET TARGET
001027:                                                                                                  #        VECTOR IS THE TERMINAL POSITION VECTOR OF A CONIC TRAJECTORY WHICH
001028:                                                                                                  #        HAS THE SAME INITIAL STATE AS A PRECISION TRAJECTORY WHOSE
001029:                                                                                                  #        TERMINAL POSITION VECTOR IS THE SPECIFIED TARGET VECTOR.
001030:
001031:                                                                                                  #        IN ORDER TO AVOID THE INHERENT SINGULARITIES IN THE 180 DEGREE
001032:                                                                                                  #        TRANSFER CASE WHEN THE (TRUE OR OFFSET) TARGET VECTOR MAY BE
001033:                                                                                                  #        SLIGHTLY OUT OF THE ORBITAL PLANE, THIS SUBROUTINE ROTATES THIS
001034:                                                                                                  #        VECTOR INTO A PLANE DEFINED BY THE INPUT INITIAL POSITION VECTOR
001035:                                                                                                  #        AND ANOTHER INPUT VECTOR (USUALLY THE INITIAL VELOCITY VECTOR),
001036:                                                                                                  #        WHENEVER THE INPUT TARGET VECTOR LIES INSIDE A CONE WHOSE VERTEX
001037:                                                                                                  #        IS THE ORIGIN OF COORDINATES, WHOSE AXIS IS THE 180 DEGREE
001038:                                                                                                  #        TRANSFER DIRECTION, AND WHOSE CONE ANGLE IS SPECIFIED BY THE USER.
001039:
001040:                                                                                                  #        THE LAMBERT SUBROUTINE IS UTILIZED FOR THE CONIC COMPUTATIONS AND
001041:                                                                                                  #        THE COASTING INTEGRATION SUBROUTINE IS UTILIZED FOR THE PRECISION
001042:                                                                                                  #        TRAJECTORY COMPUTATIONS.
001043:
001044:                                                                                                  #  CALLING SEQUENCE
001045:
001046:                                                                                                  #        L         CALL
001047:                                                                                                  #        L+1               INITVEL
001048:                                                                                                  #        L+2       (RETURN - ALWAYS)
001049:
001050:                                                                                                  #  INPUT
001051:
001052:                                                                                                  #        (1) RINIT    INITIAL POSITION RADIUS VECTOR
001053:                                                                                                  #        (2) VINIT    INITIAL POSITION VELOCITY VECTOR
001054:                                                                                                  #        (3) RTARG    TARGET POSITION RADIUS VECTOR
001055:                                                                                                  #        (4) DELLT4   DESIRED TIME OF FLIGHT FROM RINIT TO RTARG
001056:                                                                                                  #        (5) INTIME   TIME OF RINIT
001057:                                                                                                  #        (6) 0D       NUMBER OF ITERATIONS OF LAMBERT/INTEGRVS
001058:                                                                                                  #        (7) 2D       ANGLE TO 180 DEGREES WHEN ROTATION STARTS
001059:                                                                                                  #        (8) RTX1     -2 FOR EARTH, -10D FOR LUNAR
001060:                                                                                                  #        (9) RTX2     COORDINATE SYSTEM ORIGIN - 0 FOR EARTH, 2 FOR LUNAR
001061:                                                                                                  #        PUSHLOC SET AT 4D
001062:


001064:                                                                                                  #  OUTPUT
001065:
001066:                                                                                                  #        (1) RTARG    OFFSET TARGET POSITION VECTOR
001067:                                                                                                  #        (2) VIPRIME  MANEUVER VELOCITY REQUIRED
001068:                                                                                                  #        (3) VTPRIME  VELOCITY AT TARGET AFTER MANEUVER
001069:                                                                                                  #        (4) DELVEET3 DELTA VELOCITY REQUIRED FOR MANEUVER
001070:
001071:                                                                                                  #  SUBROUTINES USED
001072:
001073:                                                                                                  #        LAMBERT
001074:                                                                                                  #        INTSTALL
001075:                                                                                                  #        INTEGRVS
001076:
001077: 11,2000                                           SETLOC   INTVEL
001078: 11,2000                                           BANK
001079:
001080: 11,2000                                           COUNT    11/INITV
001081:
001082: 11,2000           77614        INITVEL            SET                                            #  COGA GUESS NOT AVAILABLE
001083: 11,2001           00475                                    GUESSW
001084: 11,2002           44175        HAVEGUES           VLOAD    STQ
001085: 11,2003           03415                                    RTARG
001086: 11,2004           01340                                    NORMEX
001087: 11,2005           03604                           STORE    RTARG1
001088: 11,2006           46135                           SLOAD    BHIZ
001089: 11,2007           03747                                    RTX2
001090: 11,2010           22022                                    INITVEL1
001091: 11,2011           72575                           VLOAD    VSL2
001092: 11,2012           03570                                    RINIT                                 #  B29
001093: 11,2013           27570                           STOVL    RINIT                                 #  B27
001094: 11,2014           03576                                    VINIT                                 #  B7
001095: 11,2015           77752                           VSL2
001096: 11,2016           27576                           STOVL    VINIT                                 #  B5
001097: 11,2017           03604                                    RTARG1
001098: 11,2020           77752                           VSL2
001099: 11,2021           03604                           STORE    RTARG1
001100:                                                                                                  #       INITIALIZATION
001101:
001102: 11,2022           71331        INITVEL1           SSP      DLOAD                                 #  SET ITCTR TO -1,LOAD MPAC WITH E4(PL 2D)
001103: 11,2023           03505                                    ITCTR
001104: 11,2024           77776                                    0          -1
001105: 11,2025           70546                           COSINE   SR1                                   #  CALCULATE COSINE (E4)  (+2)
001106: 11,2026           17630                           STODL    COZY4                                 #  SET COZY4 TO COSINE(E4)          (PL 0D)
001107: 11,2027           67154                           LXA,2    SXA,2
001108: 11,2030           00154                                    MPAC
001109: 11,2031           02703                                    VTARGTAG                              #  SET VTARGTAG TO 0D (SP)
001110: 11,2032           77775                           VLOAD
001111: 11,2033           03570                                    RINIT
001112: 11,2034           26657                           STOVL    R1VEC                                 #  R1VEC EQ RINIT
001113: 11,2035           03604                                    RTARG1


001115: 11,2036           16665                           STODL    R2VEC                                 #  R2VEC EQ RTARG
001116: 11,2037           03423                                    DELLT4
001117: 11,2040           02673                           STORE    TDESIRED                              #  TDESIRED EQ DELLT4
001118: 11,2041           77201                           SETPD    VLOAD
001119: 11,2042           00001                                    0D                                    #  INITIALIZE PL TO 0D
001120: 11,2043           03570                                    RINIT                                 #  MPAC EQ RINIT (+29)
001121: 11,2044           41456                           UNIT     PUSH                                  #  UNIT(RI)  (+1)                   (PL 6D)
001122: 11,2045           53435                           VXV      UNIT
001123: 11,2046           03576                                    VINIT                                 #  MPAC EQ UNIT(RI) X VI   (+8)
001124: 11,2047           26676                           STOVL    UN
001125: 11,2050           03604                                    RTARG1
001126: 11,2051           50256                           UNIT     DOT                                   #  TEMP=URT.URI  (+2)               (PL 0D)
001127: 11,2052           43015                           DAD      CLEAR
001128: 11,2053           03630                                    COZY4
001129: 11,2054           03665                                    NORMSW
001130: 11,2055           03630                           STORE    COZY4
001131: 11,2056           43044        INITVEL2           BPL      SET
001132: 11,2057           22101                                    INITVEL3                              #  UN CALCULATED IN LAMBERT
001133: 11,2060           03465                                    NORMSW
001134:                                                                                                  #     ROTATE  RC INTO YC PLANE - SET UNIT NORMAL TO YC
001135:
001136: 11,2061           41575                           VLOAD    PUSH                                  #                                   (PL 6D)
001137: 11,2062           02665                                    R2VEC                                 #  RC TO 6D  (+29)
001138: 11,2063           63246                           ABVAL    PDVL                                  #  RC TO MPAC, ABVAL(RC) (+29) TO OD(PL 2D)
001139: 11,2064           46206                           PUSH     VPROJ                                 #                                   (PL 8D)
001140: 11,2065           02676                                    UN
001141: 11,2066           51352                           VSL2     BVSU
001142: 11,2067           74256                           UNIT     VXSC                                  #                                   (PL 0D)
001143: 11,2070           77772                           VSL1
001144: 11,2071           02665                           STORE    R2VEC
001145: 11,2072           67351                           TLOAD    SLOAD
001146: 11,2073           11453                                    ZEROVEC
001147: 11,2074           03505                                    ITCTR
001148: 11,2075           77244                           BPL      VLOAD
001149: 11,2076           22101                                    INITVEL3
001150: 11,2077           02665                                    R2VEC
001151: 11,2100           03604                           STORE    RTARG1
001152: 11,2101           63345        INITVEL3           DLOAD    PDVL                                  #                                   (PL 2D)
001153: 11,2102           27733                                    MUEARTH                               #  POSITIVE VALUE
001154: 11,2103           02665                                    R2VEC
001155: 11,2104           63256                           UNIT     PDVL                                  #  2D = UNIT(R2VEC)                 (PL 8D)
001156: 11,2105           02657                                    R1VEC
001157: 11,2106           41456                           UNIT     PUSH                                  #  8D = UNIT(R1VEC)                 (PL14D)
001158: 11,2107           57435                           VXV      VCOMP                                 #  -N = UNIT(R2VEC) X UNIT(R1VEC)
001159: 11,2110           00003                                    2D
001160: 11,2111           77606                           PUSH                                           #                                   (PL20D)
001161: 11,2112           71350                           LXA,1    DLOAD
001162: 11,2113           03745                                    RTX1
001163: 11,2114           00023                                    18D
001164: 11,2115           62040                           BMN      INCR,1


001166: 11,2116           22120                                    +2
001167: 11,2117           77767                           DEC      -8         B-14
001168: 11,2120           67310                           INCR,1   SLOAD
001169: 11,2121           00012                                    10D
001170: 11,2122           00047                                    X1
001171: 11,2123           77230                           BHIZ     VLOAD                                 #                                   (PL14D)
001172: 11,2124           22126                                    +2
001173: 11,2125           41476                           VCOMP    PUSH                                  #                                   (PL20D)
001174: 11,2126           77775                           VLOAD                                          #                                   (PL14D)
001175: 11,2127           50235                           VXV      DOT                                   #                                   (PL 2D)
001176: 11,2130           71244                           BPL      DLOAD                                 #                                   (PL 0D)
001177: 11,2131           22133                                    INITVEL4
001178: 11,2132           41476                           DCOMP    PUSH                                  #                                   (PL 2D)
001179: 11,2133           67154        INITVEL4           LXA,2    SXA,2
001180: 11,2134           00000                                    0D
001181: 11,2135           02674                                    GEOMSGN
001182:                                                                                                  #    SET INPUTS UP FOR LAMBERT
001183:
001184: 11,2136           45150                           LXA,1    CALL
001185: 11,2137           03745                                    RTX1
001186:                                                                                                  #     OPERATE THE LAMBERT CONIC ROUTINE (COASTFLT SUBROUTINE)
001187:
001188: 11,2140           25215                                    LAMBERT
001189:
001190:                                                                                                  #        DELETE THRU 4521
001191:                                                                                                  #  ARRIVED AT SOLUTION IS GOOD ENOUGH ACCORDING TO SLIGHTLY WIDER BOUNDS.
001192:
001193: 11,2141           77214                           CLEAR    VLOAD
001194: 11,2142           00675                                    GUESSW
001195: 11,2143           02746                                    VVEC
001196:                                                                                                  #  STORE CALCULATED INITIAL VELOCITY REQUIRED IN VIPRIME
001197:
001198: 11,2144           17612                           STODL    VIPRIME                               #  INITIAL VELOCITY REQUIRED  (+7)
001199:
001200:                                                                                                  #     IF NUMIT IS ZERO, CONTINUE AT INITVELB, OTHERWISE
001201:                                                                                                  #  SET UP INPUTS FOR ENCKE INTEGRATION (INTEGRVS).
001202:
001203: 11,2145           02704                                    VTARGTAG
001204: 11,2146           45030                           BHIZ     CALL
001205: 11,2147           22224                                    INITVEL7
001206: 11,2150           27371                                    INTSTALL
001207: 11,2151           43135                           SLOAD    CLEAR
001208: 11,2152           03747                                    RTX2
001209: 11,2153           00263                                    MOONFLAG
001210: 11,2154           43030                           BHIZ     SET
001211: 11,2155           22157                                    INITVEL5
001212: 11,2156           00063                                    MOONFLAG
001213: 11,2157           77775        INITVEL5           VLOAD
001214: 11,2160           03570                                    RINIT
001215: 11,2161           02657                           STORE    R1VEC


001217: 11,2162           25535                           STOVL    RCV
001218: 11,2163           03612                                    VIPRIME
001219: 11,2164           15543                           STODL    VCV
001220: 11,2165           03503                                    INTIME
001221: 11,2166           01517                           STORE    TET
001222: 11,2167           43015                           DAD      CLEAR
001223: 11,2170           03423                                    DELLT4
001224: 11,2171           01673                                    INTYPFLG
001225: 11,2172           34041                           STCALL   TDEC1
001226: 11,2173           27066                                    INTEGRVS
001227: 11,2174           77775                           VLOAD
001228: 11,2175           00025                                    VATT1
001229: 11,2176           02705                           STORE    VTARGET
001230:                                                                                                  #   IF ITERATION COUNTER (ITCTR) EQ NO. ITERATIONS (NUMIT), CONTINUE AT
001231:                                                                                                  #  INITVELC, OTHERWISE REITERATE LAMBERT AND ENCKE
001232:
001233: 11,2177           63154                           LXA,2    INCR,2
001234: 11,2200           03504                                    ITCTR
001235: 11,2201           00001                                    1D                                    #  INCREMENT ITCTR
001236: 11,2202           55134                           SXA,2    XSU,2
001237: 11,2203           03504                                    ITCTR
001238: 11,2204           02703                                    VTARGTAG
001239: 11,2205           46135                           SLOAD    BHIZ                                  #  IF SP(MPAC) EQ 0, CONTINUE AT INITVELC
001240: 11,2206           00050                                    X2
001241: 11,2207           22221                                    INITVEL6
001242:
001243:                                                                                                  #    OFFSET CONIC TARGET VECTOR
001244:
001245: 11,2210           52375                           VLOAD    VSU
001246: 11,2211           03604                                    RTARG1
001247: 11,2212           00017                                    RATT1
001248: 11,2213           77655                           VAD
001249: 11,2214           02665                                    R2VEC
001250: 11,2215           16665                           STODL    R2VEC
001251: 11,2216           03630                                    COZY4
001252: 11,2217           77650                           GOTO
001253: 11,2220           22056                                    INITVEL2                              #  CONTINUE ITERATING AT INITVEL2
001254:                                                                                                  #  COMPUTE THE DELTA VELOCITY
001255:
001256: 11,2221           77775        INITVEL6           VLOAD
001257: 11,2222           02665                                    R2VEC
001258: 11,2223           03604                           STORE    RTARG1
001259: 11,2224           52375        INITVEL7           VLOAD    VSU
001260: 11,2225           03612                                    VIPRIME
001261: 11,2226           03576                                    VINIT
001262: 11,2227           27646                           STOVL    DELVEET3                              #  DELVEET3 = VIPRIME-VINIT  (+7)
001263: 11,2230           02705                                    VTARGET
001264: 11,2231           03620                           STORE    VTPRIME
001265: 11,2232           46135                           SLOAD    BHIZ
001266: 11,2233           03747                                    RTX2


001268: 11,2234           22251                                    INITVELX
001269: 11,2235           70575                           VLOAD    VSR2
001270: 11,2236           03620                                    VTPRIME
001271: 11,2237           27620                           STOVL    VTPRIME
001272: 11,2240           03612                                    VIPRIME
001273: 11,2241           77742                           VSR2
001274: 11,2242           27612                           STOVL    VIPRIME
001275: 11,2243           03604                                    RTARG1
001276: 11,2244           77742                           VSR2
001277: 11,2245           27604                           STOVL    RTARG1
001278: 11,2246           03646                                    DELVEET3
001279: 11,2247           77742                           VSR2
001280: 11,2250           03646                           STORE    DELVEET3
001281: 11,2251           77201        INITVELX           SETPD    VLOAD
001282: 11,2252           00001                                    0D
001283: 11,2253           03604                                    RTARG1
001284: 11,2254           37415                           STCALL   RTARG
001285: 11,2255           01340                                    NORMEX
001286:
001287:                                                                                                  #  ..... END OF INITVEL ROUTINE .....
001288:


001290:                                                                                                  #  ..... MIDGIM .....
001291:
001292:                                                                                                  #  MOD NO. 0, BY WILLMAN, SUBROUTINE RENDGUID, LOG P34-P35, P74-P75
001293:                                                                                                  #   REVISION 03, 17 FEB 67
001294:
001295:                                                                                                  #           IF THE ACTIVE VEHICLE IS DOING THE COMPUTATION, MIDGIM COMPUTES
001296:                                                                                                  #  THE POSITIVE MIDDLE GIMBAL ANGLE OF THE ACTIVE VEHICLE TO THE INPUT
001297:                                                                                                  #  DELTA VELOCITY VECTOR (0D IN PUSH LIST),  OTHERWISE
001298:                                                                                                  #  MIDGIM CONVERTS THE INPUT DELTA VELOCITY VECTOR FROM INERTIAL COORDIN-
001299:                                                                                                  #  ATES TO LOCAL VERTICAL COORDINATES OF THE ACTIVE VEHICLE.
001300:
001301:                                                                                                  #    .. INPUTS ..
001302:
001303:                                                                                                  #      NAME        MEANING                              UNITS/SCALING/MODE
001304:
001305:                                                                                                  #     AVFLAG  INT FLAG - 0 IS CSM ACTIVE, 1 IS LEM ACTIVE             BIT
001306:                                                                                                  #    COMPUTER INT FLAG - 0 IS LEM COMPUTER, 1 IS CSM COMPUTER         BIT
001307:                                                                                                  #     RINIT   ACTIVE VEHICLE RADIUS VECTOR            METERS/CSEC (+7) VT
001308:                                                                                                  #     VINIT   ACTIVE VEHICLE VELOCITY VECTOR          METERS/CSEC (+7) VT
001309:                                                                                                  #     0D (PL) ACTIVE VEHICLE DELTA VELOCITY VECTOR    METERS/CSEC (+7) VT
001310:
001311:                                                                                                  #    .. OUTPUTS ..
001312:
001313:                                                                                                  #      NAME        MEANING                              UNITS/SCALING/MODE
001314:
001315:                                                                                                  #       +MGA  + MIDDLE GIMBAL ANGLE                  REVOLUTIONS (+0)  DP
001316:                                                                                                  #     DELVLVC DELTA VELOCITY VECTOR IN LV COORD.     METERS/CSEC (+7)  VT
001317:                                                                                                  #    MGLVFLAG INT FLAG - 0 IS +MGA COMPUTED, 1 IS DELVLVC COMP.  -    BIT
001318:
001319:                                                                                                  #    .. CALLING SEQUENCE ..
001320:
001321:                                                                                                  #  L        CALL
001322:                                                                                                  #  L+1             MIDGIM
001323:                                                                                                  #  L+2      (RETURN - ALWAYS)
001324:
001325:                                                                                                  #    .. NO SUBROUTINES CALLED ..
001326:
001327:                                                                                                  #    .. DEBRIS - ERASEABLE TEMPORARY USAGE
001328:
001329:                                                                                                  #         A,Q,L, PUSH LIST, MPAC.
001330:
001331:                                                                                                  #    .. ALARMS - NONE ..
001332:


001334:                                                                                                  #  MIDDLE GIMBAL ANGLE COMPUTATION.
001335:
001336: 04,2000                                           SETLOC   MIDDGIM
001337: 04,2000                                           BANK
001338:
001339: 04,2651                                           COUNT*   $$/MIDG
001340:
001341: 04,2651           20000 00000  HALFREV            2DEC     1          B-1
001342:
001343: 04,2653           43014        MIDGIM             BON      BOFF
001344: 04,2654           01312                                    AVFLAG
001345: 04,2655           10673                                    MIDGIM1
001346: 04,2656           02747                                    COMPUTER
001347: 04,2657           10676                                    GET.LVC
001348:                                                                                                  #  COMPUTE +MGA IF AVFLAG AND COMPUTER HAVE OPPOSITE VALUES.
001349: 04,2660           53575        GET+MGA            VLOAD    UNIT                                  #  (PL 0D) V (+7) TO MPAC, UNITIZE  UV (+1)
001350: 04,2661           72441                           DOT      SL1                                   #  DOT UV WITH Y(STABLE MEMBER) AND RESCALE
001351: 04,2662           01744                                    REFSMMAT   +6                         #   FROM +2 TO +1 FOR ASIN ROUTINE
001352: 04,2663           51136                           ARCSIN   BPL
001353: 04,2664           10670                                    SETMGA
001354: 04,2665           43215                           DAD      DAD                                   #  CONVERT -MGA TO +MGA BY
001355: 04,2666           10652                                    HALFREV                               #  ADDING ONE REVOLUTION
001356: 04,2667           10652                                    HALFREV
001357: 04,2670           03626        SETMGA             STORE    +MGA
001358: 04,2671           43414                           CLR      RVQ                                   #  CLEAR MGLVFLAG TO INDICATE +MGA CALC
001359: 04,2672           02675                                    MGLVFLAG                              #      AND EXIT
001360: 04,2673           77614        MIDGIM1            BOFF
001361: 04,2674           02747                                    COMPUTER
001362: 04,2675           10660                                    GET+MGA
001363:                                                                                                  #  COMPUTE DELVLVC IF AVFLAG AND COMPUTER HAVE SAME VALUES.
001364: 04,2676           53575        GET.LVC            VLOAD    UNIT                                  #  (PL 6D)   R (+29) IN MPAC, UNITIZE UR
001365: 04,2677           03570                                    RINIT
001366: 04,2700           77676                           VCOMP                                          #  U(-R)
001367: 04,2701           00023                           STORE    18D                                   #  U(-R) TO 18D
001368: 04,2702           53435                           VXV      UNIT                                  #  U(-R)*V EQ V*U(R), U(V*R)
001369: 04,2703           03576                                    VINIT
001370: 04,2704           00015                           STORE    12D                                   #  U(V*R) TO 12D
001371: 04,2705           53435                           VXV      UNIT                                  #  U(V*R)*U(-R), U((V*R)*(-R))
001372: 04,2706           00023                                    18D
001373: 04,2707           24007                           STOVL    6D                                    #  TRANSFORMATION MATRIX IS IN 6D (+1)
001374: 04,2710           00001                                    0D                                    #  DELTA V (+7) IN 0D
001375: 04,2711           76521                           MXV      VSL1                                  #  CONVERT FROM INER COOR TO LV COOR (+8)
001376: 04,2712           00007                                    6D                                    #   AND SCALE +7 IN MPAC
001377: 04,2713           03405                           STORE    DELVLVC                               #  STORE IN DELVLVC (+7)
001378: 04,2714           43414                           SET      RVQ                                   #  SET MGLVFLAG TO INDICATE LVC CALC
001379: 04,2715           02475                                    MGLVFLAG                              #      AND EXIT
001380:                                                                                                  #    ..... END OF MIDGIM ROUTINE .....
001381:


001383: 04,2716           77160        SELECTMU           AXC,1    AXT,2
001384: 04,2717           00002                                    2D
001385: 04,2720           00000                                    0D
001386: 04,2721           77614                           BOFF
001387: 04,2722           04343                                    CMOONFLG
001388: 04,2723           10727                                    SETMUER
001389: 04,2724           77160                           AXC,1    AXT,2
001390: 04,2725           00012                                    10D
001391: 04,2726           00002                                    2D
001392: 04,2727           66143        SETMUER            DLOAD*   SXA,1
001393: 04,2730           11632                                    MUTABLE    +4,1
001394: 04,2731           03745                                    RTX1
001395: 04,2732           23752                           STODL*   RTSR1/MU
001396: 04,2733           11624                                    MUTABLE    -2,1
001397: 04,2734           54214                           BOFF     SR
001398: 04,2735           04343                                    CMOONFLG
001399: 04,2736           10740                                    RTRNMU
001400: 04,2737           20607                                    6D
001401: 04,2740           03750        RTRNMU             STORE    RTMU
001402: 04,2741           43134                           SXA,2    CLEAR
001403: 04,2742           03746                                    RTX2
001404: 04,2743           01271                                    FINALFLG
001405: 04,2744           77650                           GOTO
001406: 04,2745           73005                                    VN1645
001407:


001409:                                                                                                  #  ..... PERIAPO .....
001410:
001411:                                                                                                  #  MOD NO -1       LOG SECTION - P34-P35, P74-P75
001412:                                                                                                  #  MOD BY WHITE.P  DATE  18JAN68
001413:
001414:                                                                                                  #  FUNCTIONAL DESCRIPTION
001415:
001416:                                                                                                  #        THIS SUBROUTINE COMPUTES THE TWO BODY APOCENTER AND PERICENTER
001417:                                                                                                  #        ALTITUDES GIVEN THE POSITION AND VELOCITY VECTORS FOR A POINT ON
001418:                                                                                                  #        THE TRAJECTORY AND THE PRIMARY BODY.
001419:
001420:                                                                                                  #        SETRAD IS CALLED TO  DETERMINE THE RADIUS OF THE PRIMARY BODY.
001421:
001422:                                                                                                  #        APSIDES IS CALLED TO SOLVE FOR THE TWO BODY RADII OF APOCENTER AND
001423:                                                                                                  #        PERICENTER AND THE ECCENTRICITY OF THE TRAJECTORY.
001424:
001425:                                                                                                  #  CALLING SEQUENCE
001426:
001427:                                                                                                  #        L         CALL
001428:                                                                                                  #        L+1               PERIAPO
001429:                                                                                                  #        L+2       (RETURN - ALWAYS)
001430:
001431:                                                                                                  #  INPUT
001432:
001433:                                                                                                  #        (1) RVEC     POSITION VECTOR IN METERS
001434:                                                                                                  #                     SCALE FACTOR - EARTH +29, MOON +27
001435:                                                                                                  #        (2) VVEC     VELOCITY VECTOR IN METERS/CENTISECOND
001436:                                                                                                  #                     SCALE FACTOR - EARTH +7, MOON +5
001437:                                                                                                  #        (3) X1       PRIMARY BODY INDICATOR
001438:                                                                                                  #                     EARTH -2, MOON -10
001439:
001440:                                                                                                  #  OUTPUT
001441:
001442:                                                                                                  #        (1) 2D       APOCENTER RADIUS IN METERS
001443:                                                                                                  #                     SCALE FACTOR - EARTH +29, MOON +27
001444:                                                                                                  #        (2) 4D       APOCENTER ALTITUDE IN METERS
001445:                                                                                                  #                     SCALE FACTOR - EARTH +29, MOON P27
001446:                                                                                                  #        (3) 6D       PERICENTER RADIUS IN METERS
001447:                                                                                                  #                     SCALE FACTOR - EARTH +29, MOON +27
001448:                                                                                                  #        (4) 8D       PERICENTER ALTITUDE IN METERS
001449:                                                                                                  #                     SCALE FACTOR - EARTH +29, MOON +27
001450:                                                                                                  #        (5) ECC      ECCENTRICITY OF CONIC TRAJECTORY
001451:                                                                                                  #                     SCALE FACTOR - +3
001452:                                                                                                  #        (6) XXXALT   RADIUS OF THE PRIMARY BODY IN METERS
001453:                                                                                                  #                     SCALE FACTOR - EARTH +29, MOON +27
001454:                                                                                                  #        (7) PUSHLOC  EQUALS 10D
001455:
001456:                                                                                                  #  SUBROUTINES USED
001457:
001458:                                                                                                  #        SETRAD


001460:                                                                                                  #        APSIDES
001461:
001462: 22,2000                                           SETLOC   APOPERI
001463: 22,2000                                           BANK
001464:
001465: 22,3310                                           COUNT*   $$/PERAP
001466:
001467: 22,3310           00302 17755  RPAD               2DEC     6373338    B-29                       #  STANDARD RADIUS  OF PAD 37-B.
001468:                                                                                                  #                                          = 20 909 901.57 FT
001469:
001470: 22,3312           53754        PERIAPO1           LXA,2    VSR*
001471: 22,3313           03746                                    RTX2
001472: 22,3314           57176                                    0,2
001473: 22,3315           26746                           STOVL    VVEC
001474: 22,3316           53750                           LXA,1    VSR*
001475: 22,3317           03745                                    RTX1
001476: 22,3320           57176                                    0,2
001477: 22,3321           02657                           STORE    RVEC
001478: 22,3322           45020        PERIAPO            STQ      CALL
001479: 22,3323           01340                                    NORMEX
001480: 22,3324           45340                                    SETRAD
001481: 22,3325           37456                           STCALL   XXXALT
001482: 22,3326           25671                                    APSIDES
001483: 22,3327           41401                           SETPD    PUSH                                  #  2D = APOCENTER RADIUS   B29 OR B27
001484: 22,3330           00003                                    2D
001485: 22,3331           65225                           DSU      PDDL                                  #  4D = APOGEE ALTITUDE    B29 OR B27
001486: 22,3332           03456                                    XXXALT
001487: 22,3333           00001                                    0D
001488: 22,3334           45206                           PUSH     DSU                                   #  6D = PERICENTER RADIUS  B29 OR B27
001489: 22,3335           03456                                    XXXALT
001490: 22,3336           52006                           PUSH     GOTO                                  #  8D = PERIGEE ALTITUDE   B29 OR B27
001491: 22,3337           01340                                    NORMEX


001493:                                                                                                  #  SETRAD
001494: 22,3340           41545        SETRAD             DLOAD    PUSH
001495: 22,3341           05311                                    RPAD
001496: 22,3342           63130                           SXA,1    INCR,2
001497: 22,3343           00047                                    X2
001498: 22,3344           00002                                    2D
001499: 22,3345           46135                           SLOAD    BHIZ
001500: 22,3346           00050                                    X2
001501: 22,3347           45353                                    SETRADX
001502: 22,3350           51575                           VLOAD    ABVAL
001503: 22,3351           02026                                    RLS
001504: 22,3352           77725                           PDDL
001505: 22,3353           43545        SETRADX            DLOAD    RVQ
001506:


001508:                                                                                                  #  PRECSET
001509: 22,3354           77620        PRECSET            STQ
001510: 22,3355           01340                                    NORMEX
001511: 22,3356           36635                           STCALL   TDEC2
001512: 22,3357           27036                                    LEMPREC
001513: 22,3360           77624                           CALL
001514: 22,3361           45372                                    LEMSTORE
001515: 22,3362           77745                           DLOAD
001516: 22,3363           02635                                    TDEC2
001517: 22,3364           34041                           STCALL   TDEC1
001518: 22,3365           27022                                    CSMPREC
001519: 22,3366           77624                           CALL
001520: 22,3367           45402                                    CSMSTORE
001521: 22,3370           77650                           GOTO
001522: 22,3371           01340                                    NORMEX
001523: 22,3372           43175        LEMSTORE           VLOAD    BOFF
001524: 22,3373           00001                                    RATT
001525: 22,3374           01352                                    AVFLAG
001526: 22,3375           45406                                    PASSIVE
001527: 22,3376           27540        ACTIVE             STOVL    RACT3
001528: 22,3377           00007                                    VATT
001529: 22,3400           03546                           STORE    VACT3
001530: 22,3401           77616                           RVQ
001531: 22,3402           43175        CSMSTORE           VLOAD    BOFF
001532: 22,3403           00001                                    RATT
001533: 22,3404           01352                                    AVFLAG
001534: 22,3405           45376                                    ACTIVE
001535: 22,3406           27554        PASSIVE            STOVL    RPASS3
001536: 22,3407           00007                                    VATT
001537: 22,3410           03562                           STORE    VPASS3
001538: 22,3411           77616                           RVQ
001539:


001541:                                                                                                  #  VECSHIFT
001542: 22,3412           53754        VECSHIFT           LXA,2    VSR*
001543: 22,3413           03746                                    RTX2
001544: 22,3414           57176                                    0,2
001545: 22,3415           63350                           LXA,1    PDVL
001546: 22,3416           03745                                    RTX1
001547: 22,3417           63257                           VSR*     PDVL
001548: 22,3420           57176                                    0,2
001549: 22,3421           77616                           RVQ
001550:


001552:                                                                                                  #  SHIFTR1
001553: 22,3422           53754        SHIFTR1            LXA,2    SL*
001554: 22,3423           03746                                    RTX2
001555: 22,3424           57576                                    0,2
001556: 22,3425           77616                           RVQ
001557:


001559:                                                                                                  #  PROGRAM DESCRIPTION
001560:                                                                                                  #  SUBROUTINE NAME       R36  OUT-OF-PLANE RENDEZVOUS ROUTINE
001561:                                                                                                  #  MOD NO.  0                      DATE      22 DECEMBER 67
001562:                                                                                                  #  MOD BY   N.M.NEVILLE            LOG SECTION  EXTENDED VERBS
001563:                                                                                                  #  FUNCTIONAL DESCRIPTION
001564:
001565:                                                                                                  #  TO DISPLAY AT ASTRONAUT REQUEST LGC CALCULATED RENDEZVOUS
001566:                                                                                                  #  OUT-OF-PLANE PARAMETERS (Y , YDOT , PSI). (REQUESTED BY DSKY).
001567:
001568:                                                                                                  #  CALLING SEQUENCE
001569:
001570:                                                                                                  #  ASTRONAUT REQUEST THROUGH DSKY V 90 E
001571:
001572:                                                                                                  #  SUBROUTINES CALLED
001573:
001574:                                                                                                  #  EXDSPRET
001575:                                                                                                  #  GOMARKF
001576:                                                                                                  #  CSMPREC
001577:                                                                                                  #  LEMPREC
001578:                                                                                                  #  SGNAGREE
001579:                                                                                                  #  LOADTIME
001580:
001581:                                                                                                  #  NORMAL EXIT MODES
001582:
001583:                                                                                                  #  ASTRONAUT REQUEST THROUGH DSKY TO TERMINATE PROGRAM V 34 E
001584:
001585:                                                                                                  #  ALARM OR ABORT EXIT MODES
001586:
001587:                                                                                                  #  NONE
001588:
001589:                                                                                                  #  OUTPUT
001590:
001591:                                                                                                  #  DECIMAL DISPLAY OF TIME , Y , YDOT AND PSI
001592:
001593:                                                                                                  #  DISPLAYED VALUES Y , YDOT , AND PSI , ARE STORED IN ERASABLE
001594:                                                                                                  #  REGISTERS RANGE , RRATE AND RTHETA RESPECTIVELY.
001595:
001596:                                                                                                  #  ERASABLE INITIALIZATION REQUIRED
001597:
001598:                                                                                                  #  CSM AND LEM STATE VECTORS
001599:
001600:                                                                                                  #  DEBRIS
001601:
001602:                                                                                                  #  CENTRALS A,Q,L
001603:
001604:                                                                                                  #  OTHER THOSE USED BY THE ABOVE LISTED SUBROUTINES
001605:
001606: 20,2000                                           BANK     20
001607: 04,2000                                           SETLOC   R36LM
001608: 04,2000                                           BANK
001609:


001611: 04,2746  E4,1726                                  EBANK=   RPASS36
001612: 04,2746                                           COUNT*   $$/R36
001613:
001614: 04,2746           22007        R36                ZL
001615: 04,2747           34714                           CAF      ZERO                                  #  SET TIME OF EVENT TO ZERO FOR FIRST
001616: 04,2750           53052                           DXCH     DSPTEMX                               #  DISPLAY
001617: 04,2751           33101                           CAF      V06N16N
001618: 04,2752           04555                           TC       BANKCALL
001619: 04,2753           20465                           CADR     GOMARKF
001620: 04,2754           15423                           TCF      ENDEXT                                #  TERMINATE
001621: 04,2755           12757                           TCF      +2                                    #  PROCEED
001622: 04,2756           12751                           TCF      -5                                    #  RECYCLE FOR ASTRONAUT INPUT TIME
001623: 04,2757           53052                           DXCH     DSPTEMX
001624: 04,2760           00006                           EXTEND
001625: 04,2761           13070                           BZF      LREGCHK                               #  A-REG ZERO GOTO CHECK L-REG FOR ZERO
001626: 04,2762           52155        ASTROTIM           DXCH     MPAC                                  #  A-REG NON-ZERO, TIME = ASTRO INPUT TIME
001627: 04,2763           06006                           TC       INTPRET
001628: 04,2764           77634                           RTB
001629: 04,2765           45713                                    DPMODE
001630: 04,2766           34041        R36INT             STCALL   TDEC1
001631: 04,2767           27036                                    OTHPREC
001632: 04,2770           63375                           VLOAD    PDVL
001633: 04,2771           00007                                    VATT
001634: 04,2772           00001                                    RATT                                  #   -
001635: 04,2773           02327                           STORE    RPASS36                               #   R
001636: 04,2774           63256                           UNIT     PDVL                                  #    P
001637: 04,2775           53435                           VXV      UNIT                                  #   -
001638: 04,2776           77626                           STADR
001639: 04,2777           61442                           STODL    UNP36                                 #   U
001640: 04,3000           00015                                    TAT
001641: 04,3001           34041                           STCALL   TDEC1
001642: 04,3002           27022                                    THISPREC
001643: 04,3003           63375                           VLOAD    PDVL                                  #                    -
001644: 04,3004           00007                                    VATT                                  #   VELOCITY VECTOR  V               00D
001645: 04,3005           00001                                    RATT                                  #                     A
001646: 04,3006           77725                           PDDL
001647: 04,3007           00015                                    TAT                                   #   SAVE TIME IN LOCATION 30D FOR REDISPLAY
001648: 04,3010           24037                           STOVL    30D                                   #                    -
001649: 04,3011           41406                           PUSH     PUSH                                  #   POSITION VECTOR  R   IN  06D AND 12D
001650: 04,3012           63245                           BVSU     PDVL                                  #                     A  -   -
001651: 04,3013           02327                                    RPASS36                               #   LINE OF SIGHT VECTOR R - R       12D
001652: 04,3014           72441                           DOT      SL1                                   #                         P   A
001653: 04,3015           02335                                    UNP36                                 #      -  -
001654: 04,3016           26321                           STOVL    RANGE                                 #  Y = U .R
001655: 04,3017           00001                                    00D                                   #          A
001656: 04,3020           72441                           DOT      SL1
001657: 04,3021           02335                                    UNP36                                 #   .   -  -
001658: 04,3022           26323                           STOVL    RRATE                                 #   Y = U .V
001659: 04,3023           00007                                    06D                                   #   -       A  -


001661: 04,3024           41456                           UNIT     PUSH                                  #   U   = UNIT( R )                  18D
001662: 04,3025           47235                           VXV      VXV                                   #    RA          A
001663: 04,3026           00001                                    00D                                   #    -   -   -     -
001664: 04,3027           00023                                    18D                                   #   (U  XV )XU    =U
001665: 04,3030           53552                           VSL2     UNIT                                  #     RA  A   RA    A
001666: 04,3031           77656                           UNIT
001667: 04,3032           24001                           STOVL    00D                                   #   UNIT HORIZONTAL IN FORWARD DIR.  00D
001668: 04,3033           00023                                    18D
001669: 04,3034           74241                           DOT      VXSC                                  #   -
001670: 04,3035           00015                                    12D                                   #   U
001671: 04,3036           77752                           VSL2                                           #    L
001672: 04,3037           53445                           BVSU     UNIT
001673: 04,3040           77656                           UNIT
001674: 04,3041           50206                           PUSH     DOT                                   #   LOS PROJECTED INTO HORIZONTAL    12D
001675: 04,3042           00001                                    00D                                   #   PLANE
001676: 04,3043           65552                           SL1      ARCCOS                                #               -  -
001677: 04,3044           26325                           STOVL    RTHETA                                #   PSI= ARCCOS(U .U )
001678: 04,3045           50235                           VXV      DOT                                   #                A  L
001679: 04,3046           00001                                    00D
001680: 04,3047           71244                           BPL      DLOAD
001681: 04,3050           11055                                    R36TAG2
001682: 04,3051           11464                                    LODPMAX
001683: 04,3052           77625                           DSU
001684: 04,3053           02325                                    RTHETA
001685: 04,3054           02325                           STORE    RTHETA
001686: 04,3055           47145        R36TAG2            DLOAD    RTB
001687: 04,3056           00037                                    30D
001688: 04,3057           45541                                    SGNAGREE
001689: 04,3060           01052                           STORE    DSPTEMX
001690: 04,3061           77776                           EXIT
001691: 04,3062           33102                           CAF      V06N90N                               #   DISPLAY Y , YDOT , AND PSI
001692: 04,3063           04555                           TC       BANKCALL
001693: 04,3064           20465                           CADR     GOMARKF
001694: 04,3065           15423                           TCF      ENDEXT                                #  TERMINATE
001695: 04,3066           15423                           TCF      ENDEXT                                #  PROCEED , END OF PROGRAM
001696: 04,3067           12751                           TCF      R36        +3                         #  REDISPLAY OUTPUT
001697: 04,3070           56001        LREGCHK            XCH      L
001698: 04,3071           00006                           EXTEND
001699: 04,3072           13075                           BZF      ENTTIM2                               #  L-REG ZERO ,SET TIME = PRESENT TIME
001700: 04,3073           56001                           XCH      L                                     #  L-REG NON ZERO, TIME = ASTRO INPUT TIME
001701: 04,3074           12762                           TCF      ASTROTIM
001702: 04,3075           06006        ENTTIM2            TC       INTPRET
001703: 04,3076           52034                           RTB      GOTO
001704: 04,3077           45505                                    LOADTIME
001705: 04,3100           10766                                    R36INT
001706: 04,3101           01420        V06N16N            VN       00616
001707: 04,3102           01532        V06N90N            VN       00690

End of include-file P34-P35,_P74-P75.agc.  Parent file is MAIN.agc


