
Source Code


000002:                                                                                                  #  Copyright:    Public domain.
000003:                                                                                                  #  Filename:     P34-P35,_P74-P75.agc
000004:                                                                                                  #  Purpose:      Part of the source code for Colossus build 237.
000005:                                                                                                  #                This is for the Command Module's (CM) Apollo Guidance
000006:                                                                                                  #                Computer (AGC), we believe for Apollo 8.
000007:                                                                                                  #  Assembler:    yaYUL
000008:                                                                                                  #  Contact:      Jim Lawton <jim DOT lawton AT gmail DOT com>
000009:                                                                                                  #  Website:      www.ibiblio.org/apollo/index.html
000010:                                                                                                  #  Page Scans:   www.ibiblio.org/apollo/ScansForConversion/Colossus237/
000011:                                                                                                  #  Mod history:  2011-02-03 JL   Adapted from corresponding Colossus 249 file.
000012:


000014:                                                                                                  #  TRANSFER PHASE INITITIATION (TPI) PROGRAMS (P34 AND P74)
000015:
000016:                                                                                                  #  MOD NO -1       LOG SECTION - P32-P35, P72-P75
000017:                                                                                                  #  MOD BY WHITE.P  DATE: 1 JUNE 67
000018:
000019:                                                                                                  #  PURPOSE
000020:
000021:                                                                                                  #        (1) TO CALCULATE THE REQUIRED DELTA V AND OTHER INITIAL CONDITIONS
000022:                                                                                                  #            REQUIRED BY THE ACTIVE VEHICLE FOR EXECUTION OF THE TRANSFER
000023:                                                                                                  #            PHASE INITITATION (TPI) MANEUVER, GIVEN -
000024:
000025:                                                                                                  #            (A) TIME OF IGNITION TIG (TPI) OR THE ELEVATION ANGLE (E) OF
000026:                                                                                                  #                THE ACTIVE/PASSIVE VEHICLE LOS AT TIG (TPI).
000027:
000028:                                                                                                  #            (B) CENTRAL ANGLE OF TRANSFER (CENTANG) FROM TIG (TPI) TO
000029:                                                                                                  #                INTERCEPT TIME (TIG (TPF)).
000030:
000031:                                                                                                  #        (2) TO CALCULATE TIG (TPI) GIVEN E OR E GIVEN TIG (TPI).
000032:
000033:                                                                                                  #        (3) TO CALCULATE THESE PARAMETERS BASED UPON MANEUVER DATA
000034:                                                                                                  #            APPROVED AND KEYED INTO THE DSKY BY THE ASTRONAUT.
000035:
000036:                                                                                                  #        (4) TO DISPLAY TO THE ASTRONAUT AND THE GROUND CERTAIN DEPENDENT
000037:                                                                                                  #            VARIABLES ASSOCIATED WITH THE MANEUVER FOR APPROVAL BY THE
000038:                                                                                                  #            ASTRONAUT/GROUND.
000039:
000040:                                                                                                  #        (5) TO STORE THE TPI TARGET PARAMETERS FOR USE BY THE DESIRED
000041:                                                                                                  #            THRUSTING PROGRAM.
000042:
000043:                                                                                                  #  ASSUMPTIONS
000044:
000045:                                                                                                  #        (1) LM ONLY -- THIS PROGRAM IS BASED UPON PREVIOUS COMPLETION OF
000046:                                                                                                  #            THE CONSTANT DELTA ALTITUDE (CDH) PROGRAM (P33/P73).
000047:                                                                                                  #            THEREFORE -
000048:
000049:                                                                                                  #            (A) AT A SELECTED TPI TIME (NOW IN STORAGE) THE LINE OF SIGHT
000050:                                                                                                  #                BETWEEN THE ACTIVE AND PASSIVE VEHICLES WAS SELECTED TO BE
000051:                                                                                                  #                A PRESCRIBED ANGLE (E) (NOW IN STORAGE) FROM THE
000052:                                                                                                  #                HORIZONTAL PLANE DEFINED BY THE ACTIVE VEHICLE POSITION.
000053:
000054:                                                                                                  #            (B) THE TIME BETWEEN CDH IGNITION AND TPI IGNITION WAS
000055:                                                                                                  #                COMPUTED TO BE GREATER THAN 10 MINUTES.
000056:
000057:                                                                                                  #            (C) THE VARIATION OF THE ALTITUDE DIFFERENCE BETWEEN THE
000058:                                                                                                  #                ORBITS WAS MINIMIZED.
000059:
000060:                                                                                                  #            (D) THE PERICENTER ALTITUDES OF ORBITS FOLLOWING CSI AND
000061:
000062:                                                                                                  #                CDH WERE COMPUTED TO BE GREATER THAN 35,000 FT FOR LUNAR


000064:                                                                                                  #                ORBIT OR 85 NM FOR EARTH ORBIT.
000065:
000066:                                                                                                  #            (E) THE CSI AND CDH MANEUVERS WERE ASSUMED TO BE PARALLEL TO
000067:                                                                                                  #                THE PLANE OF THE PASSIVE VEHICLE ORBIT.  HOWEVER, CREW
000068:                                                                                                  #                MODIFICATION OF DELTA V (LV) COMPONENTS MAY HAVE RESULTED
000069:                                                                                                  #                IN AN OUT-OF-PLANE MANEUVER.
000070:
000071:                                                                                                  #        (2) STATE VECTOR UPDATED BY P27 ARE DISALLOWED DURING AUTOMATIC
000072:                                                                                                  #            STATE VECTOR UPDATING INITIATED BY P20 (SEE ASSUMPTION (4)).
000073:
000074:                                                                                                  #        (3) THIS PROGRAM MUST BE DONE OVER A TRACKING STATION FOR REAL
000075:                                                                                                  #            TIME GROUND PARTICIPATION IN DATA INPUT AND OUTPUT.  COMPUTED
000076:                                                                                                  #            VARIABLES MAY BE STORED FOR LATER VERIFICATION BY THE GROUND.
000077:                                                                                                  #            THESE STORAGE CAPABILITIES ARE LIMITED ONLY TO THE PARAMETERS
000078:                                                                                                  #            FOR ONE THRUSTING MANEUVER AT A TIME EXCEPT FOR CONCENTRIC
000079:                                                                                                  #            FLIGHT PLAN MANEUVER SEQUENCES.
000080:
000081:                                                                                                  #        (4) THE RENDEZVOUS RADAR MAY OR MAY NOT BE USED TO UPDATE THE LM
000082:                                                                                                  #            OR CSM STATE VECTORS FOR THIS PROGRAM.  IF RADAR USE IS
000083:                                                                                                  #            DESIRED THE RADAR WAS TURNED ON AND LOCKED ON THE CSM BY
000084:                                                                                                  #            PREVIOUS SELECTION OF P20.  RADAR SIGHTING MARKS WILL BE MADE
000085:                                                                                                  #            AUTOMATICALLY APPROXIMATELY ONCE A MINUTE WHEN ENABLED BY THE
000086:                                                                                                  #            TRACK AND UPDATE FLAGS (SEE P20).  THE RENDEZVOUS TRACKING
000087:                                                                                                  #            MARK COUNTER IS ZEROED BY THE SELECTION OF P20 AND AFTER EACH
000088:                                                                                                  #            THRUSTING MANEUVER.
000089:
000090:                                                                                                  #        (5) THE ISS NEED NOT BE ON TO COMPLETE THIS PROGRAM.
000091:
000092:                                                                                                  #        (6) THE OPERATION OF THE PROGRAM UTILIZES THE FOLLOWING FLAGS -
000093:
000094:                                                                                                  #                ACTIVE VEHICLE FLAG - DESIGNATES THE VEHICLE WHICH IS
000095:                                                                                                  #                DOING RENDEZVOUS THRUSTING MANEUVERS TO THE PROGRAM WHICH
000096:                                                                                                  #                CALCULATES THE MANEUVER PARAMETERS.  SET AT THE START OF
000097:                                                                                                  #                EACH RENDEZVOUS PRE-THRUSTING PROGRAM.
000098:
000099:                                                                                                  #                FINAL FLAG - SELECTS FINAL PROGRAM DISPLAYS AFTER CREW HAS
000100:                                                                                                  #                SELECTED THE FINAL MANEUVER COMPUTATION CYCLE.
000101:
000102:                                                                                                  #                EXTERNAL DELTA V FLAG - DESIGNATES THE TYPE OF STEERING
000103:                                                                                                  #                REQUIRED FOR EXECUTION OF THIS MANEUVER BY THE THRUSTING
000104:                                                                                                  #                PROGRAM SELECTED AFTER COMPLETION OF THIS PROGRAM.
000105:
000106:                                                                                                  #        (7) ONCE THE PARAMETERS REQUIRED FOR COMPUTATION OF THE MANEUVER
000107:                                                                                                  #            HAVE BEEN COMPLETELY SPECIFIED, THE VALUE OF THE ACTIVE
000108:                                                                                                  #            VEHICLE CENTRAL ANGLE OF TRANSFER IS COMPUTED AND STORED.
000109:                                                                                                  #            THIS NUMBER WILL BE AVAILABLE FOR DISPLAY TO THE ASTRONAUT
000110:                                                                                                  #            THROUGH THE USE OF V06N52.
000111:
000112:                                                                                                  #            THE ASTRONAUT WILL CALL THIS DISPLAY TO VERIFY THAT THE
000113:                                                                                                  #            CENTRAL ANGLE OF TRANSFER OF THE ACTIVE VEHICLE IS NOT WITHIN


000115:                                                                                                  #            170 TO 190 DEGREES.  IF THE ANGLE IS WITHIN THIS ZONE THE
000116:                                                                                                  #            ASTRONAUT SHOULD REASSES THE INPUT TARGETING PARAMETERS BASED
000117:                                                                                                  #            UPON DELTA V AND EXPECTED MANEUVER TIME.
000118:
000119:                                                                                                  #        (8) THIS PROGRAM IS SELECTED BY TEH ASTRONAUT BY DSKY ENTRY -
000120:
000121:                                                                                                  #                P34 IF THIS VEHICLE IS ACTIVE VEHICLE.
000122:
000123:                                                                                                  #                P74 IF THIS VEHICLE IS PASSIVE VEHICLE.
000124:
000125:                                                                                                  #  INPUT
000126:
000127:                                                                                                  #        (1) TTPI     TIME OF THE TPI MANEUVER
000128:                                                                                                  #        (2) ELEV     DESIRED LOS ANGLE AT TPI
000129:                                                                                                  #        (3) CENTANG  ORBITAL CENTRAL ANGLE OF THE PASSIVE VEHICLE DURING
000130:                                                                                                  #                     TRANSFER FROM TPI TO TIME OF INTERCEPT
000131:
000132:                                                                                                  #  OUTPUT
000133:
000134:                                                                                                  #        (1) TRKMKCNT NUMBER OF MARKS
000135:                                                                                                  #        (2) TTOGO    TIME TO GO
000136:                                                                                                  #        (3) +MGA     MIDDLE GIMBAL ANGLE
000137:                                                                                                  #        (4) TTPI     COMPUTED TIME OF TPI MANEUVER
000138:                                                                                                  #             OR
000139:                                                                                                  #            ELEV     COMPUTED LOS ANGLE AT TPI
000140:                                                                                                  #        (5) POSTTPI  PERIGEE ALTITUDE AFTER THE TPI MANEUVER
000141:                                                                                                  #        (6) DELVTPI  MAGNITUDE OF DELTA V AT TPI
000142:                                                                                                  #        (7) DELVTPF  MAGNITUDE OF DELTA V AT INTERCEPT
000143:                                                                                                  #        (8) DVLOS    DELTA VELOCITY AT TPI - LINE OF SIGHT
000144:                                                                                                  #        (9) DELVLVC  DELTA VELOCITY AT TPI - LOCAL VERTICAL COORDINATES
000145:
000146:                                                                                                  #  DOWNLINK
000147:
000148:                                                                                                  #        (1) TTPI     TIME OF TPI MANEUVER
000149:                                                                                                  #        (2) TIG      TIME OF TPI MANEUVER
000150:                                                                                                  #        (3) ELEV     DESIRED LOS ANGLE AT TPI
000151:                                                                                                  #        (4) CENTANG  ORBITAL CENTRAL ANGLE OF THE PASSIVE VEHICLE DURING
000152:                                                                                                  #                     TRANSFER FROM TPI TO TIME OF INTERCEPT
000153:                                                                                                  #        (5) DELVEET3 DELTA VELOCITY AT TPI - REFERENCE COORDINATES
000154:                                                                                                  #        (6) TPASS4   TIME OF INTERCEPT
000155:                                                                                                  #  COMMUNICATION TO THRUSTING PROGRAMS
000156:
000157:                                                                                                  #        (1) TIG      TIME OF THE TPI MANEUVER
000158:                                                                                                  #        (2) RTARG    OFFSET TARGET POSITION
000159:                                                                                                  #        (3) TPASS4   TIME OF INTERCEPT
000160:                                                                                                  #        (4) XDELVFLG RESET TO INDICATE LAMBERT (AIMPOINT) VG COMPUTATION
000161:
000162:                                                                                                  #  SUBROUTINES USED
000163:
000164:                                                                                                  #        AVFLAGA


000166:                                                                                                  #        AVFLAGP
000167:                                                                                                  #        VNPOOH
000168:                                                                                                  #        DISPLAYE
000169:                                                                                                  #        SELECTMU
000170:                                                                                                  #        PRECSET
000171:                                                                                                  #        S33/34.1
000172:                                                                                                  #        ALARM
000173:                                                                                                  #        BANKCALL
000174:                                                                                                  #        GOFLASH
000175:                                                                                                  #        GOTOPOOH
000176:                                                                                                  #        TIMETHET
000177:                                                                                                  #        S34/35.2
000178:                                                                                                  #        PERIAPO1
000179:                                                                                                  #        SHIFTR1
000180:                                                                                                  #        S34/35.5
000181:                                                                                                  #        VN1645
000182:
000183: 35,2000                                           SETLOC   CSI/CDH
000184: 35,2000                                           BANK
000185: 35,2000  E4,1770                                  EBANK=   SUBEXIT
000186: 35,2000                                           COUNT    35/P3474
000187:
000188: 35,2000           03726        P34                TC       AVFLAGA
000189: 35,2001           02003                           TC       P34/P74A
000190: 35,2002           03741        P74                TC       AVFLAGP
000191: 35,2003           03746        P34/P74A           TC       P20FLGON                              #  SET UPDATFLG, TRACKFLG
000192: 35,2004           33125                           CAF      V06N37                                #  TTPI
000193: 35,2005           03114                           TC       VNPOOH
000194: 35,2006           03073                           TC       DISPLAYE                              #  ELEV AND CENTANG
000195: 35,2007           06006                           TC       INTPRET
000196: 35,2010           71214                           CLEAR    DLOAD
000197: 35,2011           01270                                    ETPIFLAG
000198: 35,2012           03663                                    TTPI
000199: 35,2013           17413                           STODL    TIG
000200: 35,2014           03744                                    ELEV
000201: 35,2015           43054                           BZE      SET
000202: 35,2016           72020                                    P34/P74B
000203: 35,2017           01070                                    ETPIFLAG
000204: 35,2020           77624        P34/P74B           CALL
000205: 35,2021           10716                                    SELECTMU
000206: 35,2022                        DELELO             EQUALS   26D
000207: 35,2022           43145        P34/P74C           DLOAD    SET
000208: 35,2023           15332                                    ZEROVECS
000209: 35,2024           03461                                    ITSWICH
000210: 35,2025           43014                           BON      CLEAR
000211: 35,2026           01310                                    ETPIFLAG
000212: 35,2027           72031                                    SWCHSET
000213: 35,2030           03661                                    ITSWICH
000214: 35,2031           02364        SWCHSET            STORE    NOMTPI
000215: 35,2032           43345        INTLOOP            DLOAD    DAD


000217: 35,2033           03663                                    TTPI
000218: 35,2034           02364                                    NOMTPI
000219: 35,2035           34041                           STCALL   TDEC1
000220: 35,2036           45354                                    PRECSET
000221: 35,2037           77624                           CALL
000222: 35,2040           72212                                    S33/34.1
000223: 35,2041           77454                           BZE      EXIT
000224: 35,2042           72053                                    SWCHCLR
000225: 35,2043           05537                           TC       ALARM
000226: 35,2044           00611                           OCT      611
000227: 35,2045           34743                           CAF      V05N09
000228: 35,2046           04555                           TC       BANKCALL
000229: 35,2047           20624                           CADR     GOFLASH
000230: 35,2050           04106                           TC       GOTOPOOH
000231: 35,2051           02003                           TC       P34/P74A                              #  PROCEED
000232: 35,2052           02043                           TC       -7                                    #  V32
000233:
000234: 35,2053           43014        SWCHCLR            BONCLR   BON
000235: 35,2054           03601                                    ITSWICH
000236: 35,2055           72032                                    INTLOOP
000237: 35,2056           01310                                    ETPIFLAG
000238: 35,2057           72063                                    P34/P74D                              #  DISPLAY TTPI
000239: 35,2060           77776                           EXIT
000240: 35,2061           03073                           TC       DISPLAYE                              #  DISPLAY ELEV AND CENTANG
000241: 35,2062           02066                           TC       P34/P74E
000242: 35,2063           77776        P34/P74D           EXIT
000243: 35,2064           33125                           CAF      V06N37                                #  TTPI
000244: 35,2065           03114                           TC       VNPOOH
000245: 35,2066           06006        P34/P74E           TC       INTPRET
000246: 35,2067           71201                           SETPD    DLOAD
000247: 35,2070           00001                                    0D
000248: 35,2071           03746                                    RTX1
000249: 35,2072           14047                           STODL    X1
000250: 35,2073           03754                                    CENTANG
000251: 35,2074           71406                           PUSH     COS
000252: 35,2075           16734                           STODL    CSTH
000253: 35,2076           77756                           SIN
000254: 35,2077           26732                           STOVL    SNTH
000255: 35,2100           03554                                    RPASS3
000256: 35,2101           77657                           VSR*
000257: 35,2102           57176                                    0,2
000258: 35,2103           26657                           STOVL    RVEC
000259: 35,2104           03562                                    VPASS3
000260: 35,2105           43057                           VSR*     SET
000261: 35,2106           57176                                    0,2
000262: 35,2107           03466                                    RVSW
000263: 35,2110           36746                           STCALL   VVEC
000264: 35,2111           24737                                    TIMETHET
000265: 35,2112           77745                           DLOAD
000266: 35,2113           03663                                    TTPI


000268: 35,2114           03503                           STORE    INTIME                                #  FOR INITVEL
000269: 35,2115           77615                           DAD
000270: 35,2116           00037                                    T                                     #  RENDEZVOUS TIME
000271: 35,2117           37656                           STCALL   TPASS4                                #  FOR INITVEL
000272: 35,2120           72534                                    S34/35.2
000273: 35,2121           51575                           VLOAD    ABVAL
000274: 35,2122           03646                                    DELVEET3
000275: 35,2123           26635                           STOVL    DELVTPI
000276: 35,2124           03640                                    VPASS4
000277: 35,2125           51451                           VSU      ABVAL
000278: 35,2126           03620                                    VTPRIME
000279: 35,2127           26637                           STOVL    DELVTPF
000280: 35,2130           03540                                    RACT3
000281: 35,2131           45115                           PDVL     CALL
000282: 35,2132           03612                                    VIPRIME
000283: 35,2133           45312                                    PERIAPO1
000284: 35,2134           77624                           CALL
000285: 35,2135           45422                                    SHIFTR1
000286: 35,2136           16641                           STODL    POSTTPI
000287: 35,2137           03663                                    TTPI
000288: 35,2140           03413                           STORE    TIG
000289: 35,2141           77776                           EXIT
000290: 35,2142           33127                           CAF      V06N58
000291: 35,2143           03114                           TC       VNPOOH
000292: 35,2144           06006                           TC       INTPRET
000293: 35,2145           77624                           CALL
000294: 35,2146           72742                                    S34/35.5
000295: 35,2147           77624                           CALL
000296: 35,2150           73005                                    VN1645
000297: 35,2151           77650                           GOTO
000298: 35,2152           72022                                    P34/P74C
000299:


000301:                                                                                                  #  RENDEZVOUS MID-COURSE MANEUVER PROGRAMS (P35 AND P75)
000302:
000303:                                                                                                  #  MOD NO -1       LOG SECTION - P32-P35, P72-P75
000304:                                                                                                  #  MOD BY WHITE.P  DATE:  1JUNE67
000305:
000306:                                                                                                  #  PURPOSE
000307:
000308:                                                                                                  #        (1) TO CALCULATE THE REQUIRED DELTA V AND OTHER INITIAL CONDITIONS
000309:                                                                                                  #            REQUIRED BY THE ACTIVE VEHICLE FOR EXECUTION OF THE NEXT
000310:                                                                                                  #            MIDCOURSE CORRECTION OF THE TRANSFER PHASE OF AN ACTIVE
000311:                                                                                                  #            VEHICLE RENDEZVOUS.
000312:
000313:                                                                                                  #        (2) TO DISPLAY TO THE ASTRONAUT AND THE GROUND CERTAIN DEPENDENT
000314:                                                                                                  #            VARIABLES ASSOCIATED WITH THE MANEUVER FOR APPROVAL BY THE
000315:                                                                                                  #            ASTRONAUT/GROUND.
000316:
000317:                                                                                                  #        (3) TO STORE THE TPM TARGET PARAMETERS FOR USE BY THE DESIRED
000318:                                                                                                  #            THRUSTING PROGRAM.
000319:
000320:                                                                                                  #  ASSUMPTIONS
000321:
000322:                                                                                                  #        (1) THE ISS NEED NOT BE ON TO COMPLETE THIS PROGRAM.
000323:
000324:                                                                                                  #        (2) STATE VECTOR UPDATES BY P27 ARE DISALLOWED DURING AUTOMATIC
000325:                                                                                                  #            STATE VECTOR UPDATING INITIATED BY P20 (SEE ASSUMPTION (3)).
000326:
000327:                                                                                                  #        (3) THE RENDEZVOUS RADAR IS ON AND IS LOCKED ON THE CSM.  THIS WAS
000328:                                                                                                  #            DONE DURING PREVIOUS SELECTION OF P20.  RADAR SIGHTING MARKS
000329:                                                                                                  #            WILL BE MADE AUTOMATICALLY APPROXIMATELY ONCE A MINUTE WHEN
000330:                                                                                                  #            ENABLED BY THE TRACK AND UPDATE FLAGS (SEE P20). THE
000331:                                                                                                  #            RENDEZVOUS TRACKING MARK COUNTER IS ZEROED BY THE SELECTION OF
000332:                                                                                                  #            P20 AND AFTER EACH THRUSTING MANEUVER.
000333:
000334:                                                                                                  #        (4) THE OPERATION OF THE PROGRAM UTILIZES THE FOLLOWING FLAGS -
000335:
000336:                                                                                                  #                ACTIVE VEHICLE FLAG - DESIGNATES THE VEHICLE WHICH IS
000337:                                                                                                  #                DOING RENDEZVOUS THRUSTING MANEUVERS TO THE PROGRAM WHICH
000338:                                                                                                  #                CALCULATES THE MANEUVER PARAMETERS.  SET AT THE START OF
000339:                                                                                                  #                EACH RENDEZVOUS PRE-THRUSTING PROGRAM.
000340:
000341:                                                                                                  #                FINAL FLAG - SELECTS FINAL PROGRAM DISPLAYS AFTER CREW HAS
000342:                                                                                                  #                SELECTED THE FINAL MANEUVER COMPUTATION CYCLE.
000343:
000344:                                                                                                  #                EXTERNAL DELTA V FLAG - DESIGNATES THE TYPE OF STEERING
000345:                                                                                                  #                REQUIRED FOR EXECUTION OF THIS MANEUVER BY THE THRUSTING
000346:                                                                                                  #                PROGRAM SELECTED AFTER COMPLETION OF THIS PROGRAM.
000347:
000348:                                                                                                  #        (5) THE TIME OF INTERCEPT (T(INT)) WAS DEFINED BY PREVIOUS
000349:                                                                                                  #            COMPLETION OF THE TRANSFER PHASE INITIATION (TPI) PROGRAM
000350:                                                                                                  #            (P34/P74) AND IS PRESENTLY AVAILABLE IN STORAGE.
000351:


000353:                                                                                                  #        (6) ONCE THE PARAMETERS REQUIRED FOR COMPUTATION OF THE MANEUVER
000354:                                                                                                  #            HAVE BEEN COMPLETELY SPECIFIED, THE VALUE OF THE ACTIVE
000355:                                                                                                  #            VEHICLE CENTRAL ANGLE OF TRANSFER IS COMPUTED AND STORED.
000356:                                                                                                  #            THIS NUMBER WILL BE AVAILABLE FOR DISPLAY TO THE ASTRONAUT
000357:                                                                                                  #            THROUGH THE USE OF V06N52.
000358:
000359:                                                                                                  #            THE ASTRONAUT WILL CALL THIS DISPLAY TO VERIFY THAT THE
000360:                                                                                                  #            CENTRAL ANGLE OF TRANSFER OF THE ACTIVE VEHICLE IS NOT WITHIN
000361:                                                                                                  #            170 TO 190 DEGREES.  IF THE ANGLE IS WITHIN THIS ZONE THE
000362:                                                                                                  #            ASTRONAUT SHOULD REASSESS THE INPUT TARGETING PARAMETERS BASED
000363:                                                                                                  #            UPON DELTA V AND EXPECTED MANEUVER TIME.
000364:
000365:                                                                                                  #        (7) THIS PROGRAM IS SELECTED BY THE ASTRONAUT BY DSKY ENTRY -
000366:
000367:                                                                                                  #                P35 IF THIS VEHICLE IS ACTIVE VEHICLE.
000368:
000369:                                                                                                  #                P75 IF THIS VEHICLE IS PASSIVE VEHICLE.
000370:
000371:                                                                                                  #  INPUT
000372:
000373:                                                                                                  #        (1) TPASS4   TIME OF INTERCEPT - SAVED FROM P34/P74
000374:                                                                                                  #  OUTPUT
000375:
000376:                                                                                                  #        (1) TRKMKCNT NUMBER OF MARKS
000377:                                                                                                  #        (2) TTOGO    TIME TO GO
000378:                                                                                                  #        (3) +MGA     MIDOLF GIMBAL ANGLE
000379:                                                                                                  #        (4) DVLOS    DELTA VELOCITY AT MID - LINE OF SIGHT
000380:                                                                                                  #        (5) DELVLVC  DELTA VELOCITY AT MID - LOCAL VERTICAL COORDINATES
000381:
000382:                                                                                                  #  DOWNLINK
000383:
000384:                                                                                                  #        (1) TIG      TIME OF THE TPM MANEUVER
000385:                                                                                                  #        (2) DELVEET3 DELTA VELOCITY AT TPM - REFERENCE COORDINATES
000386:                                                                                                  #        (3) TPASS4   TIME OF INTERCEPT
000387:                                                                                                  #  COMMUNICATION TO THRUSTING PROGRAMS
000388:
000389:                                                                                                  #        (1) TIG      TIME OF THE TPM MANEUVER
000390:                                                                                                  #        (2) RTARG    OFFSET TARGET POSITION
000391:                                                                                                  #        (3) TPASS4   TIME OF INTERCEPT
000392:                                                                                                  #        (4) XDELVFLG RESET TO INDICATE LAMBERT (AIMPOINT) VG COMPUTATION
000393:
000394:                                                                                                  #  SUBROUTINES USED
000395:
000396:                                                                                                  #        AVFLAGA
000397:                                                                                                  #        AVFLAGP
000398:                                                                                                  #        LOADTIME
000399:                                                                                                  #        SELECTMU
000400:                                                                                                  #        PRECSET
000401:                                                                                                  #        S34/35.1
000402:                                                                                                  #        S34/35.2


000404:                                                                                                  #        S34/35.5
000405:                                                                                                  #        VN1645
000406:
000407: 35,2153                                           COUNT    35/P3575
000408: 35,2153  E4,1763                                  EBANK=   KT
000409:
000410: 35,2153           03726        P35                TC       AVFLAGA
000411: 35,2154           00006                           EXTEND
000412: 35,2155           31422                           DCA      ATIGINC
000413: 35,2156           02162                           TC       P35/P75A
000414: 35,2157           03741        P75                TC       AVFLAGP
000415: 35,2160           00006                           EXTEND
000416: 35,2161           31424                           DCA      PTIGINC
000417: 35,2162           53764        P35/P75A           DXCH     KT
000418: 35,2163           03746                           TC       P20FLGON                              #  SET UPDATFLG, TRACKFLG
000419: 35,2164           06006                           TC       INTPRET
000420: 35,2165           77624                           CALL
000421: 35,2166           10716                                    SELECTMU
000422: 35,2167           77634        P35/P75B           RTB
000423: 35,2170           45505                                    LOADTIME
000424: 35,2171           03665                           STORE    TSTRT
000425: 35,2172           77615                           DAD
000426: 35,2173           02364                                    KT
000427: 35,2174           03413                           STORE    TIG
000428: 35,2175           03503                           STORE    INTIME                                #  FOR INITVEL
000429: 35,2176           34041                           STCALL   TDEC1
000430: 35,2177           45354                                    PRECSET                               #  ADVANCE BOTH VEHICLES
000431: 35,2200           77624                           CALL
000432: 35,2201           72522                                    S34/35.1                              #  GET NORM AND LOS FOR TRANSFORM
000433: 35,2202           77624                           CALL
000434: 35,2203           72534                                    S34/35.2                              #  GET DELTA V(LV)
000435: 35,2204           77624                           CALL
000436: 35,2205           72742                                    S34/35.5
000437: 35,2206           77624                           CALL
000438: 35,2207           73005                                    VN1645
000439: 35,2210           77650                           GOTO
000440: 35,2211           72167                                    P35/P75B
000441:


000443:                                                                                                  #  ..... S33/34.1  .....
000444:
000445: 35,2212           66220        S33/34.1           STQ      SSP
000446: 35,2213           01340                                    NORMEX
000447: 35,2214           03665                                    TITER
000448: 35,2215           40000                           OCT      40000
000449: 35,2216           40345                           DLOAD    SETPD
000450: 35,2217           33136                                    MAX250
000451: 35,2220           00001                                    0D
000452: 35,2221           27454                           STOVL    SECMAX
000453: 35,2222           03540                                    RACT3
000454: 35,2223           27576                           STOVL    RAPREC
000455: 35,2224           03546                                    VACT3
000456: 35,2225           27570                           STOVL    VAPREC
000457: 35,2226           03554                                    RPASS3
000458: 35,2227           27620                           STOVL    RPPREC
000459: 35,2230           03562                                    VPASS3
000460: 35,2231           03612                           STORE    VPPREC
000461: 35,2232           77624        ELCALC             CALL
000462: 35,2233           72522                                    S34/35.1                              #  NORMAL AND LOS
000463: 35,2234           63235                           VXV      PDVL
000464: 35,2235           03540                                    RACT3                                 #  (RA*VA)*RA 0D
000465: 35,2236           53515                           PDVL     UNIT                                  #  ULOS AT 6D
000466: 35,2237           03540                                    RACT3
000467: 35,2240           46315                           PDVL     VPROJ                                 #  XCHNJ AND UP
000468: 35,2241           51352                           VSL2     BVSU
000469: 35,2242           02625                                    ULOS
000470: 35,2243           63256                           UNIT     PDVL                                  #  UP AT 0D
000471: 35,2244           63241                           DOT      PDVL                                  #  UP.UN*RA AT 0D
000472: 35,2245           00001                                    0D                                    #  UP IN MPAC
000473: 35,2246           75241                           DOT      SIGN
000474: 35,2247           02625                                    ULOS
000475: 35,2250           65552                           SL1      ACOS
000476: 35,2251           50315                           PDVL     DOT                                   #  EA AT 0D
000477: 35,2252           02625                                    ULOS
000478: 35,2253           03540                                    RACT3
000479: 35,2254           71244                           BPL      DLOAD
000480: 35,2255           72260                                    TESTY
000481: 35,2256           15340                                    DPPOSMAX
000482: 35,2257           41425                           DSU      PUSH
000483: 35,2260           71214        TESTY              BOFF     DLOAD
000484: 35,2261           03741                                    ITSWICH
000485: 35,2262           72507                                    ELEX
000486: 35,2263           03452                                    DELEL
000487: 35,2264           14033                           STODL    DELELO
000488: 35,2265           77625                           DSU
000489: 35,2266           03744                                    ELEV
000490: 35,2267           03452                           STORE    DELEL
000491: 35,2270           45246                           ABS      DSU
000492: 35,2271           33142                                    ELEPS


000494: 35,2272           77640                           BMN
000495: 35,2273           72517                                    TIMEX                                 #  COMMERCIALS EVERYWHERE
000496: 35,2274           70535        FIGTIME            SLOAD    SR1
000497: 35,2275           03665                                    TITER
000498: 35,2276           72030                           BHIZ     LXA,1
000499: 35,2277           01340                                    NORMEX                                #  TOO MANY ITERATIONS
000500: 35,2300           00154                                    MPAC
000501: 35,2301           77330                           SXA,1    VLOAD
000502: 35,2302           03664                                    TITER
000503: 35,2303           03554                                    RPASS3
000504: 35,2304           65256                           UNIT     PDDL
000505: 35,2305           00045                                    36D
000506: 35,2306           53515                           PDVL     UNIT
000507: 35,2307           03540                                    RACT3
000508: 35,2310           77725                           PDDL
000509: 35,2311           41525                           PDDL     PUSH
000510: 35,2312           00045                                    36D
000511: 35,2313           77621                           BDSU
000512: 35,2314           00015                                    12D
000513: 35,2315           14037                           STODL    30D                                   #  RP - RA MAGNITUDES
000514: 35,2316           15330                                    DPHALF
000515: 35,2317           41425                           DSU      PUSH
000516: 35,2320           03744                                    ELEV
000517: 35,2321           50165                           SIGN     BMN
000518: 35,2322           00037                                    30D
000519: 35,2323           01340                                    NORMEX
000520: 35,2324           71545                           DLOAD    COS
000521: 35,2325           56205                           DMP      DDV
000522: 35,2326           00017                                    14D
000523: 35,2327           00015                                    12D
000524: 35,2330           77676                           DCOMP                                          #  SINCE COS(180-A)=-COS A
000525: 35,2331           00035                           STORE    28D
000526: 35,2332           44246                           ABS      BDSU
000527: 35,2333           15330                                    DPHALF
000528: 35,2334           77240                           BMN      VLOAD
000529: 35,2335           01340                                    NORMEX
000530: 35,2336           02617                                    UNRM
000531: 35,2337           53435                           VXV      UNIT
000532: 35,2340           00007                                    6D                                    #  UN*RA
000533: 35,2341           41241                           DOT      DMP
000534: 35,2342           03546                                    VACT3
000535: 35,2343           00015                                    12D
000536: 35,2344           47315                           PDVL     VXV
000537: 35,2345           00001                                    0D
000538: 35,2346           03562                                    VPASS3
000539: 35,2347           53435                           VXV      UNIT
000540: 35,2350           00001                                    0D                                    #  (RP*VP)*RP
000541: 35,2351           41241                           DOT      DMP
000542: 35,2352           03562                                    VPASS3
000543: 35,2353           00017                                    14D


000545: 35,2354           77621                           BDSU
000546: 35,2355           63301                           NORM     PDVL                                  #  NORMALIZED WA - WP 12D
000547: 35,2356           00047                                    X1
000548: 35,2357           00007                                    6D
000549: 35,2360           50235                           VXV      DOT
000550: 35,2361           00001                                    0D
000551: 35,2362           02617                                    UNRM                                  #  RA*RP.UN 14D
000552: 35,2363           50315                           PDVL     DOT
000553: 35,2364           00001                                    0D
000554: 35,2365           00007                                    6D
000555: 35,2366           65552                           SL1      ACOS
000556: 35,2367           77765                           SIGN
000557: 35,2370           43225                           DSU      DAD                                   #    ALPHA   PI
000558: 35,2371           15330                                    DPHALF
000559: 35,2372           03744                                    ELEV
000560: 35,2373           65525                           PDDL     ACOS
000561: 35,2374           00035                                    28D
000562: 35,2375           75221                           BDSU     SIGN
000563: 35,2376           15330                                    DPHALF
000564: 35,2377           00037                                    30D                                   #  CONTAINS RP-RA
000565: 35,2400           77615                           DAD
000566: 35,2401           56205                           DMP      DDV
000567: 35,2402           33134                                    TWOPI
000568: 35,2403           77605                           DMP
000569: 35,2404           41257                           SL*      DMP
000570: 35,2405           20176                                    0          -3,1
000571: 35,2406           51406                           PUSH     ABS
000572: 35,2407           50025                           DSU      BMN
000573: 35,2410           03454                                    SECMAX
000574: 35,2411           72415                                    OKMAX
000575: 35,2412           75345                           DLOAD    SIGN                                  #   REPLACE TIME WITH MAX TIME SIGNED
000576: 35,2413           03454                                    SECMAX
000577: 35,2414           77606                           PUSH
000578: 35,2415           51135        OKMAX              SLOAD    BPL                                   #  TEST FIRST ITERATION
000579: 35,2416           03665                                    TITER
000580: 35,2417           72425                                    REPETE
000581: 35,2420           71331                           SSP      DLOAD
000582: 35,2421           03665                                    TITER
000583: 35,2422           37777                           OCT      37777
000584: 35,2423           77650                           GOTO
000585: 35,2424           72463                                    STORDELT
000586: 35,2425           41345        REPETE             DLOAD    DMP
000587: 35,2426           03452                                    DELEL
000588: 35,2427           00033                                    DELELO
000589: 35,2430           71244                           BPL      DLOAD
000590: 35,2431           72441                                    NEXTES
000591: 35,2432           03454                                    SECMAX
000592: 35,2433           77605                           DMP
000593: 35,2434           33140                                    THIRD
000594: 35,2435           17454                           STODL    SECMAX


000596: 35,2436           70446                           ABS      SR1                                   #  CROSSED OVER SOLUTION
000597: 35,2437           52076                           DCOMP    GOTO                                  #  DT=(-SIGN(DTO)//DT//)/2
000598: 35,2440           72451                                    RESIGN
000599: 35,2441           51545        NEXTES             DLOAD    ABS
000600: 35,2442           03452                                    DELEL
000601: 35,2443           51525                           PDDL     ABS
000602: 35,2444           00033                                    DELELO
000603: 35,2445           77625                           DSU
000604: 35,2446           71240                           BMN      DLOAD
000605: 35,2447           72454                                    REVERS                                #   WRONG DIRECTION
000606: 35,2450           77646                           ABS
000607: 35,2451           52165        RESIGN             SIGN     GOTO
000608: 35,2452           03450                                    DELTEEO
000609: 35,2453           72463                                    STORDELT
000610: 35,2454           57545        REVERS             DLOAD    DCOMP
000611: 35,2455           03450                                    DELTEEO
000612: 35,2456           70406                           PUSH     SR1
000613: 35,2457           03450                           STORE    DELTEEO
000614: 35,2460           77615                           DAD
000615: 35,2461           77650                           GOTO
000616: 35,2462           72464                                    ADTIME
000617: 35,2463           03450        STORDELT           STORE    DELTEEO
000618: 35,2464           77615        ADTIME             DAD
000619: 35,2465           02364                                    NOMTPI                                #  SUM OF DELTA T:S
000620: 35,2466           02364                           STORE    NOMTPI
000621: 35,2467           63375                           VLOAD    PDVL
000622: 35,2470           03570                                    VAPREC
000623: 35,2471           03576                                    RAPREC
000624: 35,2472           77624                           CALL
000625: 35,2473           72702                                    GOINT
000626: 35,2474           77624                           CALL
000627: 35,2475           45376                                    ACTIVE                                #  STORE NEW RACT3 VACT3
000628: 35,2476           63375                           VLOAD    PDVL
000629: 35,2477           03612                                    VPPREC
000630: 35,2500           03620                                    RPPREC
000631: 35,2501           77624                           CALL
000632: 35,2502           72702                                    GOINT
000633: 35,2503           77624                           CALL
000634: 35,2504           45406                                    PASSIVE                               #  STORE NEW RPASS3 VPASS3
000635: 35,2505           77650                           GOTO
000636: 35,2506           72232                                    ELCALC
000637: 35,2507           43345        ELEX               DLOAD    DAD
000638: 35,2510           03663                                    TTPI
000639: 35,2511           02364                                    NOMTPI
000640: 35,2512           17663                           STODL    TTPI
000641: 35,2513           77614                           BON
000642: 35,2514           01310                                    ETPIFLAG
000643: 35,2515           72517                                    TIMEX
000644: 35,2516           03744                           STORE    ELEV
000645: 35,2517           52145        TIMEX              DLOAD    GOTO


000647: 35,2520           15332                                    ZEROVECS
000648: 35,2521           01340                                    NORMEX
000649:


000651:                                                                                                  #  ..... S34/35.1  .....
000652:
000653:                                                                                                  #  COMPUTE UNIT NORMAL AND LINE OF SIGHT VECTORS GIVEN THE ACTIVE AND
000654:                                                                                                  #  PASSIVE POS AND VEL AT TIME T3
000655:
000656: 35,2522           52375        S34/35.1           VLOAD    VSU
000657: 35,2523           03554                                    RPASS3
000658: 35,2524           03540                                    RACT3
000659: 35,2525           41456                           UNIT     PUSH
000660: 35,2526           26625                           STOVL    ULOS
000661: 35,2527           03540                                    RACT3
000662: 35,2530           53435                           VXV      UNIT
000663: 35,2531           03546                                    VACT3
000664: 35,2532           02617                           STORE    UNRM
000665: 35,2533           77616                           RVQ
000666:


000668:                                                                                                  #  ..... S34/35.2  .....
000669:
000670:                                                                                                  #  ADVANCE PASSIVE VEH TO RENDEZVOUS TIME AND GET REQ VEL FROM LAMBERT
000671: 35,2534           77220        S34/35.2           STQ      VLOAD
000672: 35,2535           02370                                    SUBEXIT
000673: 35,2536           03562                                    VPASS3
000674: 35,2537           65315                           PDVL     PDDL
000675: 35,2540           03554                                    RPASS3
000676: 35,2541           03503                                    INTIME
000677: 35,2542           65325                           PDDL     PDDL
000678: 35,2543           03656                                    TPASS4
000679: 35,2544           15332                                    ZEROVECS
000680: 35,2545           45006                           PUSH     CALL
000681: 35,2546           72706                                    INTINT                                #  GET TARGET VECTOR
000682: 35,2547           27415        S3435.25           STOVL    RTARG
000683: 35,2550           00007                                    VATT
000684: 35,2551           27640                           STOVL    VPASS4
000685: 35,2552           03415                                    RTARG
000686:                                                                                                  #  COMPUTE PHI = PI +(ACOS(UNIT RA.UNIT RP)-PI)SIGN(RA*RP.U)
000687: 35,2553           63256                           UNIT     PDVL                                  #  UNIT RP
000688: 35,2554           03540                                    RACT3
000689: 35,2555           41456                           UNIT     PUSH                                  #  UNIT RA
000690: 35,2556           50235                           VXV      DOT
000691: 35,2557           00001                                    0D
000692: 35,2560           02617                                    UNRM                                  #  RA*RP.U
000693: 35,2561           77715                           PDVL
000694: 35,2562           72441                           DOT      SL1                                   #  UNIT RA.UNIT RP
000695: 35,2563           00001                                    0D
000696: 35,2564           75326                           ACOS     SIGN
000697: 35,2565           43244                           BPL      DAD
000698: 35,2566           72570                                    NOPIE
000699: 35,2567           15340                                    DPPOSMAX                              #  REASONABLE TWO PI
000700: 35,2570           16633        NOPIE              STODL    ACTCENT
000701: 35,2571           03656                                    TPASS4
000702: 35,2572           77625                           DSU
000703: 35,2573           03503                                    INTIME
000704: 35,2574           03423                           STORE    DELLT4
000705: 35,2575           40335                           SLOAD    SETPD
000706: 35,2576           33144                                    DECTWO
000707: 35,2577           00001                                    0D
000708: 35,2600           63325                           PDDL     PDVL
000709: 35,2601           33147                                    EPSFOUR
000710: 35,2602           03540                                    RACT3
000711: 35,2603           27570                           STOVL    RINIT
000712: 35,2604           03546                                    VACT3
000713: 35,2605           37576                           STCALL   VINIT
000714: 35,2606           22000                                    INITVEL
000715: 35,2607           77624                           CALL
000716: 35,2610           72667                                    LOMAT
000717: 35,2611           64375                           VLOAD    MXV


000719: 35,2612           03646                                    DELVEET3
000720: 35,2613           00001                                    0D
000721: 35,2614           77772                           VSL1
000722: 35,2615           37405                           STCALL   DELVLVC
000723: 35,2616           02370                                    SUBEXIT
000724:


000726:                                                                                                  #  ..... S34/35.3  .....
000727:
000728: 35,2617           45020        S34/35.3           STQ      CALL
000729: 35,2620           01340                                    NORMEX
000730: 35,2621           72667                                    LOMAT                                 #  GET MATRIX IN PUSH LIST
000731: 35,2622           61375                           VLOAD    VXM
000732: 35,2623           03405                                    DELVLVC                               #  NEW DEL V TPI
000733: 35,2624           00001                                    0D
000734: 35,2625           77772                           VSL1
000735: 35,2626           03646                           STORE    DELVEET3                              #  SAVE FOR TRANSFORM
000736: 35,2627           63255                           VAD      PDVL
000737: 35,2630           03546                                    VACT3                                 #  NEW V REQ
000738: 35,2631           03540                                    RACT3
000739: 35,2632           65325                           PDDL     PDDL
000740: 35,2633           03413                                    TIG
000741: 35,2634           03656                                    TPASS4
000742: 35,2635           41525                           PDDL     PUSH
000743: 35,2636           15340                                    DPPOSMAX
000744: 35,2637           77624                           CALL                                           #  INTEG. FOR NEW TARGET VEC
000745: 35,2640           72706                                    INTINT
000746: 35,2641           77775                           VLOAD
000747: 35,2642           00001                                    RATT
000748: 35,2643           03415                           STORE    RTARG
000749: 35,2644           41575        NOVRWRT            VLOAD    PUSH
000750: 35,2645           02625                                    ULOS
000751: 35,2646           57435                           VXV      VCOMP
000752: 35,2647           02617                                    UNRM
000753: 35,2650           41456                           UNIT     PUSH
000754: 35,2651           76435                           VXV      VSL1
000755: 35,2652           02625                                    ULOS
000756: 35,2653           77715                           PDVL
000757: 35,2654           64315                           PDVL     MXV
000758: 35,2655           03646                                    DELVEET3
000759: 35,2656           00001                                    0D
000760: 35,2657           77772                           VSL1
000761: 35,2660           36611                           STCALL   DVLOS
000762: 35,2661           01340                                    NORMEX
000763:


000765:                                                                                                  #  ..... S34/35.4  .....
000766:
000767: 35,2662           40220        S34/35.4           STQ      SETPD                                 #  NO ASTRONAUT OVERWRITE
000768: 35,2663           01340                                    NORMEX
000769: 35,2664           00001                                    0D
000770: 35,2665           77650                           GOTO
000771: 35,2666           72644                                    NOVRWRT
000772:


000774:                                                                                                  #  ..... LOMAT     .....
000775:
000776: 35,2667           57575        LOMAT              VLOAD    VCOMP
000777: 35,2670           02617                                    UNRM
000778: 35,2671           24007                           STOVL    6D                                    #  Y
000779: 35,2672           03540                                    RACT3
000780: 35,2673           57456                           UNIT     VCOMP
000781: 35,2674           00015                           STORE    12D
000782: 35,2675           76435                           VXV      VSL1
000783: 35,2676           02617                                    UNRM                                  #  Z*-Y
000784: 35,2677           00001                           STORE    0D
000785: 35,2700           43401                           SETPD    RVQ
000786: 35,2701           00023                                    18D
000787: 35,2702           65325        GOINT              PDDL     PDDL                                  #  DO
000788: 35,2703           15332                                    ZEROVECS                              #    NOT
000789: 35,2704           02364                                    NOMTPI                                #
000790: 35,2705           41406                           PUSH     PUSH                                  #             ORDER OR INSERT BEFORE INTINT
000791: 35,2706           45020        INTINT             STQ      CALL
000792: 35,2707           02367                                    RTRN
000793: 35,2710           27371                                    INTSTALL
000794: 35,2711           71214                           CLEAR    DLOAD
000795: 35,2712           01673                                    INTYPFLG
000796: 35,2713           43054                           BZE      SET
000797: 35,2714           72716                                    +2
000798: 35,2715           01473                                    INTYPFLG
000799: 35,2716           45545                           DLOAD    STADR
000800: 35,2717           63736                           STODL    TDEC1
000801: 35,2720           73014                           SET      LXA,2
000802: 35,2721           00063                                    MOONFLAG
000803: 35,2722           03746                                    RTX2
000804: 35,2723           43014                           BON      CLEAR
000805: 35,2724           04303                                    CMOONFLG
000806: 35,2725           72727                                    ALLSET
000807: 35,2726           00263                                    MOONFLAG
000808: 35,2727           25517        ALLSET             STOVL    TET
000809: 35,2730           77657                           VSR*
000810: 35,2731           57176                                    0,2
000811: 35,2732           25535                           STOVL    RCV
000812: 35,2733           77657                           VSR*
000813: 35,2734           57176                                    0,2
000814: 35,2735           35543                           STCALL   VCV
000815: 35,2736           27066                                    INTEGRVS
000816: 35,2737           52175                           VLOAD    GOTO
000817: 35,2740           00001                                    RATT
000818: 35,2741           02367                                    RTRN
000819:


000821:                                                                                                  #  ..... S34/35.5  .....
000822:                                                                                                  #  SUBROUTINES USED
000823:
000824:                                                                                                  #        BANKCALL
000825:                                                                                                  #        GOFLASH
000826:                                                                                                  #        GOTOPOOH
000827:                                                                                                  #        S34/35.3
000828:                                                                                                  #        S34/35.4
000829:                                                                                                  #        VNPOOH
000830:
000831: 35,2742           43020        S34/35.5           STQ      BON
000832: 35,2743           02370                                    SUBEXIT
000833: 35,2744           01311                                    FINALFLG
000834: 35,2745           72751                                    FLAGON
000835: 35,2746           52014                           SET      GOTO
000836: 35,2747           00470                                    UPDATFLG
000837: 35,2750           72775                                    FLAGOFF
000838: 35,2751           77414        FLAGON             CLEAR    EXIT
000839: 35,2752           03274                                    NTARGFLG
000840: 35,2753           33131                           CAF      V06N81
000841: 35,2754           04555                           TC       BANKCALL
000842: 35,2755           20624                           CADR     GOFLASH
000843: 35,2756           04106                           TC       GOTOPOOH
000844: 35,2757           02764                           TC       +5
000845: 35,2760           06006                           TC       INTPRET
000846: 35,2761           77414                           SET      EXIT
000847: 35,2762           03074                                    NTARGFLG
000848: 35,2763           02753                           TC       FLAGON     +2
000849: 35,2764           06006                           TC       INTPRET
000850: 35,2765           45014                           BOFF     CALL
000851: 35,2766           03354                                    NTARGFLG
000852: 35,2767           72771                                    NOCHG
000853: 35,2770           72617                                    S34/35.3
000854: 35,2771           77214        NOCHG              CLEAR    VLOAD
000855: 35,2772           01267                                    XDELVFLG
000856: 35,2773           03646                                    DELVEET3
000857: 35,2774           03646                           STORE    DELVSIN
000858: 35,2775           77624        FLAGOFF            CALL
000859: 35,2776           72662                                    S34/35.4
000860: 35,2777           77776                           EXIT
000861: 35,3000           33130                           CAF      V06N59
000862: 35,3001           03114                           TC       VNPOOH
000863: 35,3002           06006                           TC       INTPRET
000864: 35,3003           77650                           GOTO
000865: 35,3004           02370                                    SUBEXIT
000866:


000868:                                                                                                  #  ..... VN1645    .....
000869:
000870:                                                                                                  #  SUBROUTINES USED
000871:
000872:                                                                                                  #        P3XORP7X
000873:                                                                                                  #        GET+MGA
000874:                                                                                                  #        BANKCALL
000875:                                                                                                  #        DELAYJOB
000876:                                                                                                  #        COMPTGO
000877:                                                                                                  #        GOFLASHR
000878:                                                                                                  #        GOTOPOOH
000879:                                                                                                  #        FLAGUP
000880:
000881: 35,3005           71220        VN1645             STQ      DLOAD
000882: 35,3006           02370                                    SUBEXIT
000883: 35,3007           33145                                    DP-.01
000884: 35,3010           03626                           STORE    +MGA                                  #  MGA = -.01
000885: 35,3011           71214                           BOFF     DLOAD
000886: 35,3012           01351                                    FINALFLG
000887: 35,3013           73033                                    GET45
000888: 35,3014           33145                                    DP-.01
000889: 35,3015           77615                           DAD
000890: 35,3016           33145                                    DP-.01
000891: 35,3017           03626                           STORE    +MGA                                  #  MGA = -.02
000892: 35,3020           77414                           BOFF     EXIT
000893: 35,3021           01742                                    REFSMFLG
000894: 35,3022           73033                                    GET45
000895: 35,3023           03106                           TC       P3XORP7X
000896: 35,3024           03026                           TC       +2                                    #  P3X
000897: 35,3025           03034                           TC       GET45      +1                         #  P7X
000898: 35,3026           06006                           TC       INTPRET
000899: 35,3027           41575                           VLOAD    PUSH
000900: 35,3030           03646                                    DELVSIN
000901: 35,3031           77624                           CALL                                           #  COMPUTE MGA
000902: 35,3032           10660                                    GET+MGA
000903: 35,3033           77776        GET45              EXIT
000904: 35,3034           03564                           TC       COMPTGO                               #  INITIATE TASK TO UPDATE TTOGO
000905: 35,3035           31770                           CA       SUBEXIT
000906: 35,3036           55766                           TS       QSAVED
000907: 35,3037           34734                           CAF      1SEC
000908: 35,3040           04555                           TC       BANKCALL
000909: 35,3041           01730                           CADR     DELAYJOB
000910: 35,3042           33132                           CAF      V16N45                                #  TRKMKCNT, TTOGO, +MGA
000911: 35,3043           04555                           TC       BANKCALL
000912: 35,3044           20624                           CADR     GOFLASH
000913: 35,3045           03050                           TC       KILCLOCK                              #  TERMINATE
000914: 35,3046           03053                           TC       N45PROC                               #  PROCEED
000915: 35,3047           03063                           TC       CLUPDATE                              #  RECYCLE - RETURN FOR INITIAL COMPUTATION
000916: 35,3050           30005        KILCLOCK           CA       Z
000917: 35,3051           54000                           TS       DISPDEX


000919: 35,3052           04106                           TC       GOTOPOOH
000920: 35,3053           40076        N45PROC            CS       FLAGWRD2
000921: 35,3054           74705                           MASK     BIT6
000922: 35,3055           00006                           EXTEND
000923: 35,3056           13050                           BZF      KILCLOCK                              #  FINALFLG IS SET-FLASH V37-AWAIT NEW PGM
000924: 35,3057           05301                           TC       PHASCHNG
000925: 35,3060           04024                           OCT      04024
000926: 35,3061           05435                           TC       UPFLAG                                #  SET
000927: 35,3062           00047                           ADRES    FINALFLG                              #  FINALFLG
000928: 35,3063           30005        CLUPDATE           CA       Z
000929: 35,3064           54000                           TS       DISPDEX
000930: 35,3065           05301                           TC       PHASCHNG
000931: 35,3066           04024                           OCT      04024
000932: 35,3067           06006                           TC       INTPRET
000933: 35,3070           52014                           CLEAR    GOTO
000934: 35,3071           00670                                    UPDATFLG
000935: 35,3072           02366                                    QSAVED
000936:


000938:                                                                                                  #  ..... DISPLAYE  .....
000939:
000940:                                                                                                  #  SUBROUTINES USED
000941:
000942:                                                                                                  #        BANKCALL
000943:                                                                                                  #        GOFLASHR
000944:                                                                                                  #        GOTOPOOH
000945:                                                                                                  #        BLANKET
000946:                                                                                                  #        ENDOFJOB
000947:
000948: 35,3073           00006        DISPLAYE           EXTEND
000949: 35,3074           23340                           QXCH     NORMEX
000950: 35,3075           33126                           CAF      V06N55
000951: 35,3076           04555                           TCR      BANKCALL
000952: 35,3077           20763                           CADR     GOFLASHR
000953: 35,3100           14106                           TCF      GOTOPOOH
000954: 35,3101           01340                           TC       NORMEX
000955: 35,3102           13075                           TCF      -5
000956: 35,3103           34712                           CAF      BIT1                                  #  BLANK R1
000957: 35,3104           05415                           TCR      BLANKET
000958: 35,3105           15112                           TCF      ENDOFJOB
000959:


000961:                                                                                                  #  ..... P3XORP7X  .....
000962:
000963: 35,3106           37713        P3XORP7X           CAF      HIGH9
000964: 35,3107           71011                           MASK     MODREG
000965: 35,3110           00006                           EXTEND
000966: 35,3111           13113                           BZF      +2
000967: 35,3112           24002                           INCR     Q
000968: 35,3113           00002                           RETURN
000969:
000970:                                                                                                  #  ..... VNPOOH    .....
000971:
000972:                                                                                                  #  SUBROUTINES USED
000973:
000974:                                                                                                  #        BANKCALL
000975:                                                                                                  #        GOFLASH
000976:                                                                                                  #        GOTOPOOH
000977:
000978: 35,3114           00006        VNPOOH             EXTEND
000979: 35,3115           23767                           QXCH     RTRN
000980: 35,3116           55765                           TS       VERBNOUN
000981: 35,3117           31765                           CA       VERBNOUN
000982: 35,3120           04555                           TCR      BANKCALL
000983: 35,3121           20624                           CADR     GOFLASH
000984: 35,3122           14106                           TCF      GOTOPOOH
000985: 35,3123           01767                           TC       RTRN
000986: 35,3124           13117                           TCF      -5
000987:


000989:                                                                                                  #  ..... CONSTANTS ,,,,,
000990:
000991: 35,3125           01445        V06N37             VN       0637
000992: 35,3126           01467        V06N55             VN       0655
000993: 35,3127           01472        V06N58             VN       0658
000994: 35,3130           01473        V06N59             VN       0659
000995: 35,3131           01521        V06N81             VN       0681
000996: 35,3132           04055        V16N45             VN       1645
000997: 35,3133           14441 37325  TWOPI              2DEC     6.283185307 B-4
000998: 35,3135           00001 20650  MAX250             2DEC     25         E3
000999: 35,3137           12525 12525  THIRD              2DEC     .333333333
001000: 35,3141           00004 21505  ELEPS              2DEC     .27777777  E-3
001001: 35,3143           00002        DECTWO             OCT      2
001002: 35,3144           77777        DP-.01             OCT      77777                                 #  CONSTANTS
001003: 35,3145           61337                           OCT      61337                                 #  ADJACENT       -.01 FOR MGA DSP
001004: 35,3146           01252 25253  EPSFOUR            2DEC     .0416666666
001005:


001007:                                                                                                  #  ..... INITVEL .....
001008:
001009:                                                                                                  #  MOD NO -1       LOG SECTION - P34-P35, P74-P75
001010:                                                                                                  #  MOD BY WHITE.P  DATE  21NOV67
001011:
001012:                                                                                                  #  FUNCTIONAL DESCRIPTION
001013:
001014:                                                                                                  #        THIS SUBROUTINE COMPUTES THE REQUIRED INITIAL VELOCITY VECTOR FOR
001015:                                                                                                  #        A TRAJECTORY OF SPECIFIED TRANSFER TIME BETWEEN SPECIFIED INITIAL
001016:                                                                                                  #        AND TARGET POSITIONS.  THE TRAJECTORY MAY BE EITHER CONIC OR
001017:                                                                                                  #        PRECISION DEPENDING ON AN INPUT PARAMETER (NAMELY, NUMBER OF
001018:                                                                                                  #        OFFSETS).  IN ADDITION, IN TH EPRECISION TRAJECTORY CASE, THE
001019:                                                                                                  #        SUBROUTINE ALSO COMPUTES AN OFFSET TARGET VECTOR, TO BE USED
001020:                                                                                                  #        DURING PURE-CONIC CROSS-PRODUCT STEERING.  THE OFFSET TARGET
001021:                                                                                                  #        VECTOR IS THE TERMINAL POSITION VECTOR OF A CONIC TRAJECTORY WHICH
001022:                                                                                                  #        HAS THE SAME INITIAL STATE AS A PRECISION TRAJECTORY WHOSE
001023:                                                                                                  #        TERMINAL POSITION VECTOR IS THE SPECIFIED TARGET VECTOR.
001024:
001025:                                                                                                  #        IN ORDER TO AVOID THE INHERENT SINGULARITIES IN THE 180 DEGREE
001026:                                                                                                  #        TRANSFER CASE WHEN THE (TRUE OR OFFSET) TARGET VECTOR MAY BE
001027:                                                                                                  #        SLIGHTLY OUT OF THE ORBITAL PLANE, THIS SUBROUTINE ROTATES THIS
001028:                                                                                                  #        VECTOR INTO A PLANE DEFINED BY THE INPUT INITIAL POSITION VECTOR
001029:                                                                                                  #        AND ANOTHER INPUT VECTOR (USUALLY THE INITIAL VELOCITY VECTOR),
001030:                                                                                                  #        WHENEVER THE INPUT TARGET VECTOR LIES INSIDE A CONE WHOSE VERTEX
001031:                                                                                                  #        IS THE ORIGIN OF COORDINATES, WHOSE AXIS IS THE 180 DEGREE
001032:                                                                                                  #        TRANSFER DIRECTION, AND WHOSE CONE ANGLE IS SPECIFIED BY THE USER.
001033:
001034:                                                                                                  #        THE LAMBERT SUBROUTINE IS UTILIZED FOR THE CONIC COMPUTATIONS AND
001035:                                                                                                  #        THE COASTING INTEGRATION SUBROUTINE IS UTILIZED FOR THE PRECISION
001036:                                                                                                  #        TRAJECTORY COMPUTATIONS.
001037:
001038:                                                                                                  #  CALLING SEQUENCE
001039:
001040:                                                                                                  #        L         CALL
001041:                                                                                                  #        L+1               INITVEL
001042:                                                                                                  #        L+2       (RETURN - ALWAYS)
001043:
001044:                                                                                                  #  INPUT
001045:
001046:                                                                                                  #        (1) RINIT    INITIAL POSITION RADIUS VECTOR
001047:                                                                                                  #        (2) VINIT    INITIAL POSITION VELOCITY VECTOR
001048:                                                                                                  #        (3) RTARG    TARGET POSITION RADIUS VECTOR
001049:                                                                                                  #        (4) DELLT4   DESIRED TIME OF FLIGHT FROM RINIT TO RTARG
001050:                                                                                                  #        (5) INTIME   TIME OF RINIT
001051:                                                                                                  #        (6) 0D       NUMBER OF ITERATIONS OF LAMBERT/INTEGRVS
001052:                                                                                                  #        (7) 2D       ANGLE TO 180 DEGREES WHEN ROTATION STARTS
001053:                                                                                                  #        (8) RTX1     -2 FOR EARTH, -10D FOR LUNAR
001054:                                                                                                  #        (9) RTX2     COORDINATE SYSTEM ORIGIN - 0 FOR EARTH, 2 FOR LUNAR
001055:                                                                                                  #        PUSHLOC SET AT 4D
001056:


001058:                                                                                                  #  OUTPUT
001059:
001060:                                                                                                  #        (1) RTARG    OFFSET TARGET POSITION VECTOR
001061:                                                                                                  #        (2) VIPRIME  MANEUVER VELOCITY REQUIRED
001062:                                                                                                  #        (3) VTPRIME  VELOCITY AT TARGET AFTER MANEUVER
001063:                                                                                                  #        (4) DELVEET3 DELTA VELOCITY REQUIRED FOR MANEUVER
001064:
001065:                                                                                                  #  SUBROUTINES USED
001066:
001067:                                                                                                  #        LAMBERT
001068:                                                                                                  #        INTSTALL
001069:                                                                                                  #        INTEGRVS
001070:
001071: 11,2000                                           SETLOC   INTVEL
001072: 11,2000                                           BANK
001073:
001074: 11,2000                                           COUNT    11/INITV
001075:
001076: 11,2000           77614        INITVEL            SET                                            #  COGA GUESS NOT AVAILABLE
001077: 11,2001           00475                                    GUESSW
001078: 11,2002           44175        HAVEGUES           VLOAD    STQ
001079: 11,2003           03415                                    RTARG
001080: 11,2004           01340                                    NORMEX
001081: 11,2005           03604                           STORE    RTARG1
001082: 11,2006           46135                           SLOAD    BHIZ
001083: 11,2007           03747                                    RTX2
001084: 11,2010           22022                                    INITVEL1
001085: 11,2011           72575                           VLOAD    VSL2
001086: 11,2012           03570                                    RINIT                                 #  B29
001087: 11,2013           27570                           STOVL    RINIT                                 #  B27
001088: 11,2014           03576                                    VINIT                                 #  B7
001089: 11,2015           77752                           VSL2
001090: 11,2016           27576                           STOVL    VINIT                                 #  B5
001091: 11,2017           03604                                    RTARG1
001092: 11,2020           77752                           VSL2
001093: 11,2021           03604                           STORE    RTARG1
001094:                                                                                                  #       INITIALIZATION
001095:
001096: 11,2022           71331        INITVEL1           SSP      DLOAD                                 #  SET ITCTR TO -1,LOAD MPAC WITH E4(PL 2D)
001097: 11,2023           03505                                    ITCTR
001098: 11,2024           77776                                    0          -1
001099: 11,2025           70546                           COSINE   SR1                                   #  CALCULATE COSINE (E4)  (+2)
001100: 11,2026           17630                           STODL    COZY4                                 #  SET COZY4 TO COSINE(E4)          (PL 0D)
001101: 11,2027           67154                           LXA,2    SXA,2
001102: 11,2030           00154                                    MPAC
001103: 11,2031           02703                                    VTARGTAG                              #  SET VTARGTAG TO 0D (SP)
001104: 11,2032           77775                           VLOAD
001105: 11,2033           03570                                    RINIT
001106: 11,2034           26657                           STOVL    R1VEC                                 #  R1VEC EQ RINIT
001107: 11,2035           03604                                    RTARG1


001109: 11,2036           16665                           STODL    R2VEC                                 #  R2VEC EQ RTARG
001110: 11,2037           03423                                    DELLT4
001111: 11,2040           02673                           STORE    TDESIRED                              #  TDESIRED EQ DELLT4
001112: 11,2041           77201                           SETPD    VLOAD
001113: 11,2042           00001                                    0D                                    #  INITIALIZE PL TO 0D
001114: 11,2043           03570                                    RINIT                                 #  MPAC EQ RINIT (+29)
001115: 11,2044           41456                           UNIT     PUSH                                  #  UNIT(RI)  (+1)                   (PL 6D)
001116: 11,2045           53435                           VXV      UNIT
001117: 11,2046           03576                                    VINIT                                 #  MPAC EQ UNIT(RI) X VI   (+8)
001118: 11,2047           26676                           STOVL    UN
001119: 11,2050           03604                                    RTARG1
001120: 11,2051           50256                           UNIT     DOT                                   #  TEMP=RT.URI  (+2)                (PL 0D)
001121: 11,2052           43015                           DAD      CLEAR
001122: 11,2053           03630                                    COZY4
001123: 11,2054           03665                                    NORMSW
001124: 11,2055           03630                           STORE    COZY4
001125: 11,2056           43044        INITVEL2           BPL      SET
001126: 11,2057           22101                                    INITVEL3                              #  UN CALCULATED IN LAMBERT
001127: 11,2060           03465                                    NORMSW
001128:                                                                                                  #     ROTATE  RC INTO YC PLANE - SET UNIT NORMAL TO YC
001129:
001130: 11,2061           41575                           VLOAD    PUSH                                  #                                   (PL 6D)
001131: 11,2062           02665                                    R2VEC                                 #  RC TO 6D  (+29)
001132: 11,2063           63246                           ABVAL    PDVL                                  #  RC TO MPAC, ABVAL(RC) (+29) TO OD(PL 2D)
001133: 11,2064           46206                           PUSH     VPROJ                                 #                                   (PL 8D)
001134: 11,2065           02676                                    UN
001135: 11,2066           51352                           VSL2     BVSU
001136: 11,2067           74256                           UNIT     VXSC                                  #                                   (PL 0D)
001137: 11,2070           77772                           VSL1
001138: 11,2071           02665                           STORE    R2VEC
001139: 11,2072           67351                           TLOAD    SLOAD
001140: 11,2073           11453                                    ZEROVEC
001141: 11,2074           03505                                    ITCTR
001142: 11,2075           77244                           BPL      VLOAD
001143: 11,2076           22101                                    INITVEL3
001144: 11,2077           02665                                    R2VEC
001145: 11,2100           03604                           STORE    RTARG1
001146: 11,2101           63345        INITVEL3           DLOAD    PDVL                                  #                                   (PL 2D)
001147: 11,2102           27733                                    MUEARTH                               #  POSITIVE VALUE
001148: 11,2103           02665                                    R2VEC
001149: 11,2104           63256                           UNIT     PDVL                                  #  2D = UNIT(R2VEC)                 (PL 8D)
001150: 11,2105           02657                                    R1VEC
001151: 11,2106           41456                           UNIT     PUSH                                  #  8D = UNIT(R1VEC)                 (PL14D)
001152: 11,2107           57435                           VXV      VCOMP                                 #  -N = UNIT(R2VEC) X UNIT(R1VEC)
001153: 11,2110           00003                                    2D
001154: 11,2111           77606                           PUSH                                           #                                   (PL20D)
001155: 11,2112           71350                           LXA,1    DLOAD
001156: 11,2113           03745                                    RTX1
001157: 11,2114           00023                                    18D
001158: 11,2115           62040                           BMN      INCR,1


001160: 11,2116           22120                                    +2
001161: 11,2117           77767                           DEC      -8         B-14
001162: 11,2120           67310                           INCR,1   SLOAD
001163: 11,2121           00012                                    10D
001164: 11,2122           00047                                    X1
001165: 11,2123           77230                           BHIZ     VLOAD                                 #                                   (PL14D)
001166: 11,2124           22126                                    +2
001167: 11,2125           41476                           VCOMP    PUSH                                  #                                   (PL20D)
001168: 11,2126           77775                           VLOAD                                          #                                   (PL14D)
001169: 11,2127           50235                           VXV      DOT                                   #                                   (PL 2D)
001170: 11,2130           71244                           BPL      DLOAD                                 #                                   (PL 0D)
001171: 11,2131           22133                                    INITVEL4
001172: 11,2132           41476                           DCOMP    PUSH                                  #                                   (PL 2D)
001173: 11,2133           67154        INITVEL4           LXA,2    SXA,2
001174: 11,2134           00000                                    0D
001175: 11,2135           02674                                    GEOMSGN
001176:                                                                                                  #    SET INPUTS UP FOR LAMBERT
001177:
001178: 11,2136           45150                           LXA,1    CALL
001179: 11,2137           03745                                    RTX1
001180:                                                                                                  #     OPERATE THE LAMBERT CONIC ROUTINE (COASTFLT SUBROUTINE)
001181:
001182: 11,2140           25215                                    LAMBERT
001183:
001184:                                                                                                  #        DELETE THRU 4521
001185:                                                                                                  #  ARRIVED AT SOLUTION IS GOOD ENOUGH ACCORDING TO SLIGHTLY WIDER BOUNDS.
001186:
001187: 11,2141           77214                           CLEAR    VLOAD
001188: 11,2142           00675                                    GUESSW
001189: 11,2143           02746                                    VVEC
001190:                                                                                                  #  STORE CALCULATED INITIAL VELOCITY REQUIRED IN VIPRIME
001191:
001192: 11,2144           17612                           STODL    VIPRIME                               #  INITIAL VELOCITY REQUIRED  (+7)
001193:
001194:                                                                                                  #     IF NUMIT IS ZERO, CONTINUE AT INITVELB, OTHERWISE
001195:                                                                                                  #  SET UP INPUTS FOR ENCKE INTEGRATION (INTEGRVS).
001196:
001197: 11,2145           02704                                    VTARGTAG
001198: 11,2146           45030                           BHIZ     CALL
001199: 11,2147           22224                                    INITVEL7
001200: 11,2150           27371                                    INTSTALL
001201: 11,2151           43135                           SLOAD    CLEAR
001202: 11,2152           03747                                    RTX2
001203: 11,2153           00263                                    MOONFLAG
001204: 11,2154           43030                           BHIZ     SET
001205: 11,2155           22157                                    INITVEL5
001206: 11,2156           00063                                    MOONFLAG
001207: 11,2157           77775        INITVEL5           VLOAD
001208: 11,2160           03570                                    RINIT
001209: 11,2161           02657                           STORE    R1VEC


001211: 11,2162           25535                           STOVL    RCV
001212: 11,2163           03612                                    VIPRIME
001213: 11,2164           15543                           STODL    VCV
001214: 11,2165           03503                                    INTIME
001215: 11,2166           01517                           STORE    TET
001216: 11,2167           43015                           DAD      CLEAR
001217: 11,2170           03423                                    DELLT4
001218: 11,2171           01673                                    INTYPFLG
001219: 11,2172           34041                           STCALL   TDEC1
001220: 11,2173           27066                                    INTEGRVS
001221: 11,2174           77775                           VLOAD
001222: 11,2175           00025                                    VATT1
001223: 11,2176           02705                           STORE    VTARGET
001224:                                                                                                  #   IF ITERATION COUNTER (ITCTR) EQ NO. ITERATIONS (NUMIT), CONTINUE AT
001225:                                                                                                  #  INITVELC, OTHERWISE REITERATE LAMBERT AND ENCKE
001226:
001227: 11,2177           63154                           LXA,2    INCR,2
001228: 11,2200           03504                                    ITCTR
001229: 11,2201           00001                                    1D                                    #  INCREMENT ITCTR
001230: 11,2202           55134                           SXA,2    XSU,2
001231: 11,2203           03504                                    ITCTR
001232: 11,2204           02703                                    VTARGTAG
001233: 11,2205           46135                           SLOAD    BHIZ                                  #  IF SP(MPAC) EQ 0, CONTINUE AT INITVELC
001234: 11,2206           00050                                    X2
001235: 11,2207           22221                                    INITVEL6
001236:
001237:                                                                                                  #    OFFSET CONIC TARGET VECTGOR
001238:
001239: 11,2210           52375                           VLOAD    VSU
001240: 11,2211           03604                                    RTARG1
001241: 11,2212           00017                                    RATT1
001242: 11,2213           77655                           VAD
001243: 11,2214           02665                                    R2VEC
001244: 11,2215           16665                           STODL    R2VEC
001245: 11,2216           03630                                    COZY4
001246: 11,2217           77650                           GOTO
001247: 11,2220           22056                                    INITVEL2                              #  CONTINUE ITERATING AT INITVEL2
001248:                                                                                                  #  COMPUTE THE DELTA VELOCITY
001249:
001250: 11,2221           77775        INITVEL6           VLOAD
001251: 11,2222           02665                                    R2VEC
001252: 11,2223           03604                           STORE    RTARG1
001253: 11,2224           52375        INITVEL7           VLOAD    VSU
001254: 11,2225           03612                                    VIPRIME
001255: 11,2226           03576                                    VINIT
001256: 11,2227           27646                           STOVL    DELVEET3                              #  DELVEET3 = VIPRIME-VINIT  (+7)
001257: 11,2230           02705                                    VTARGET
001258: 11,2231           03620                           STORE    VTPRIME
001259: 11,2232           46135                           SLOAD    BHIZ
001260: 11,2233           03747                                    RTX2


001262: 11,2234           22251                                    INITVELX
001263: 11,2235           70575                           VLOAD    VSR2
001264: 11,2236           03620                                    VTPRIME
001265: 11,2237           27620                           STOVL    VTPRIME
001266: 11,2240           03612                                    VIPRIME
001267: 11,2241           77742                           VSR2
001268: 11,2242           27612                           STOVL    VIPRIME
001269: 11,2243           03604                                    RTARG1
001270: 11,2244           77742                           VSR2
001271: 11,2245           27604                           STOVL    RTARG1
001272: 11,2246           03646                                    DELVEET3
001273: 11,2247           77742                           VSR2
001274: 11,2250           03646                           STORE    DELVEET3
001275: 11,2251           77201        INITVELX           SETPD    VLOAD
001276: 11,2252           00001                                    0D
001277: 11,2253           03604                                    RTARG1
001278: 11,2254           37415                           STCALL   RTARG
001279: 11,2255           01340                                    NORMEX
001280:
001281:                                                                                                  #  ..... END OF INITVEL ROUTINE .....
001282:


001284:                                                                                                  #  ..... MIDGIM .....
001285:
001286:                                                                                                  #  MOD NO. 0, BY WILLMAN, SUBROUTINE RENDGUID, LOG P34-P35, P74-P75
001287:                                                                                                  #   REVISION 03, 17 FEB 67
001288:
001289:                                                                                                  #           IF THE ACTIVE VEHICLE IS DOING THE COMPUTATION, MIDGIM COMPUTES
001290:                                                                                                  #  THE POSITIVE MIDDLE GIMBAL ANGLE OF THE ACTIVE VEHICLE TO THE INPUT
001291:                                                                                                  #  DELTA VELOCITY VECTOR (0D IN PUSY LIST),  OTHERWISE
001292:                                                                                                  #  MIDGIM CONVERTS THE INPUT DELTA VELOCITY VECTOR FROM INERTIAL COORDIN-
001293:                                                                                                  #  ATES TO LOCAL VERTICAL COORDINATES OF THE ACTIVE VEHICLE.
001294:
001295:                                                                                                  #    .. INPUTS ..
001296:
001297:                                                                                                  #      NAME        MEANING                              UNITS/SCALING/MODE
001298:
001299:                                                                                                  #     AVFLAG  INT FLAG - 0 IS CSM ACTIVE, 1 IS LEM ACTIVE             BIT
001300:                                                                                                  #    COMPUTER INT FLAG - 0 IS LEM COMPUTER, 1 IS CSM COMPUTER         BIT
001301:                                                                                                  #     RINIT   ACTIVE VEHICLE RADIUS VECTOR            METERS/CSEC (+7) VT
001302:                                                                                                  #     VINIT   ACTIVE VEHICLE VELOCITY VECTOR          METERS/CSEC (+7) VT
001303:                                                                                                  #     0D (PL) ACTIVE VEHICLE DELTA VELOCITY VECTOR    METERS/CSEC (+7) VT
001304:
001305:                                                                                                  #    .. OUTPUTS ..
001306:
001307:                                                                                                  #      NAME        MEANING                              UNITS/SCALING/MODE
001308:
001309:                                                                                                  #       +MGA  + MIDDLE GIMBAL ANGLE                  REVOLUTIONS (+0)  DP
001310:                                                                                                  #     DELVLVC DELTA VELOCITY VECTOR IN LV COORD.     METERS/CSEC (+7)  VT
001311:                                                                                                  #    MGLVFLAG INT FLAG - 0 IS +MGA COMPUTED, 1 IS DELVLVC COMP.  -    BIT
001312:
001313:                                                                                                  #    .. CALLING SEQUENCE ..
001314:
001315:                                                                                                  #  L        CALL
001316:                                                                                                  #  L+1             MIDGIM
001317:                                                                                                  #  L+2      (RETURN - ALWAYS)
001318:
001319:                                                                                                  #    .. NO SUBROUTINES CALLED ..
001320:
001321:                                                                                                  #    .. DEBRIS - ERASABLE TEMPORARY USAGE
001322:
001323:                                                                                                  #         A,Q,L, PUSH LIST, MPAC.
001324:
001325:                                                                                                  #    .. ALARMS - NONE ..
001326:


001328:                                                                                                  #  MIDDLE GIMBAL ANGLE COMPUTATION.
001329:
001330: 04,2000                                           SETLOC   MIDDGIM
001331: 04,2000                                           BANK
001332:
001333: 04,2651                                           COUNT*   $$/MIDG
001334:
001335: 04,2651           20000 00000  HALFREV            2DEC     1          B-1
001336:
001337: 04,2653           43014        MIDGIM             BON      BOFF
001338: 04,2654           01312                                    AVFLAG
001339: 04,2655           10673                                    MIDGIM1
001340: 04,2656           02747                                    COMPUTER
001341: 04,2657           10676                                    GET.LVC
001342:                                                                                                  #  COMPUTE +MGA IF AVFLAG AND COMPUTER HAVE OPPOSITE VALUES.
001343: 04,2660           53575        GET+MGA            VLOAD    UNIT                                  #  ()PL 0D) V (+7) TO MPAC, UNITIZE  UV (+1)
001344: 04,2661           72441                           DOT      SL1                                   #  DOT UV WITH Y(STABLE MEMBER) AND RESCALE
001345: 04,2662           01744                                    REFSMMAT   +6                         #   FROM +2 TO +1 FOR ASIN ROUTINE
001346: 04,2663           51136                           ARCSIN   BPL
001347: 04,2664           10670                                    SETMGA
001348: 04,2665           43215                           DAD      DAD                                   #  CONVERT -MGA TO +MGA BY
001349: 04,2666           10652                                    HALFREV                               #  ADDING ONE REVOLUTION
001350: 04,2667           10652                                    HALFREV
001351: 04,2670           03626        SETMGA             STORE    +MGA
001352: 04,2671           43414                           CLR      RVQ                                   #  CLEAR MGLVFLAG TO INDICATE +MGA CALC
001353: 04,2672           02675                                    MGLVFLAG                              #      AND EXIT
001354: 04,2673           77614        MIDGIM1            BOFF
001355: 04,2674           02747                                    COMPUTER
001356: 04,2675           10660                                    GET+MGA
001357:                                                                                                  #  COMPUTE DELVLVC IF AVFLAG AND COMPUTER HAVE SAME VALUES.
001358: 04,2676           53575        GET.LVC            VLOAD    UNIT                                  #  (PL 6D)   R (+29) IN MPAC, UNITZE  UR
001359: 04,2677           03570                                    RINIT
001360: 04,2700           77676                           VCOMP                                          #  U(-R)
001361: 04,2701           00023                           STORE    18D                                   #  U(-R) TO 18D
001362: 04,2702           53435                           VXV      UNIT                                  #  U(-R)*V EQ V*U(R), U(V*R)
001363: 04,2703           03576                                    VINIT
001364: 04,2704           00015                           STORE    12D                                   #  U(V*R) TO 12D
001365: 04,2705           53435                           VXV      UNIT                                  #  U(V*R)*U(-R), U((V*R)*(-R))
001366: 04,2706           00023                                    18D
001367: 04,2707           24007                           STOVL    6D                                    #  TRANSFORMATION MATRIX IS IN 6D (+1)
001368: 04,2710           00001                                    0D                                    #  DELTA V (+7) IN 0D
001369: 04,2711           76521                           MXV      VSL1                                  #  CONVERT FROM INER COOR TO LV COOR (+8)
001370: 04,2712           00007                                    6D                                    #   AND SCALE +7 IN MPAC
001371: 04,2713           03405                           STORE    DELVLVC                               #  STORE IN DELVLVC (+7(
001372: 04,2714           43414                           SET      RVQ                                   #  SET MGLVFLAG TO INDICATE LVC CALC
001373: 04,2715           02475                                    MGLVFLAG                              #      AND EXIT
001374:                                                                                                  #    ..... END OF MIDGIM ROUTINE .....
001375:


001377: 04,2716           77160        SELECTMU           AXC,1    AXT,2
001378: 04,2717           00002                                    2D
001379: 04,2720           00000                                    0D
001380: 04,2721           77614                           BOFF
001381: 04,2722           04343                                    CMOONFLG
001382: 04,2723           10727                                    SETMUER
001383: 04,2724           77160                           AXC,1    AXT,2
001384: 04,2725           00012                                    10D
001385: 04,2726           00002                                    2D
001386: 04,2727           66143        SETMUER            DLOAD*   SXA,1
001387: 04,2730           11632                                    MUTABLE    +4,1
001388: 04,2731           03745                                    RTX1
001389: 04,2732           23752                           STODL*   RTSR1/MU
001390: 04,2733           11624                                    MUTABLE    -2,1
001391: 04,2734           54214                           BOFF     SR
001392: 04,2735           04343                                    CMOONFLG
001393: 04,2736           10740                                    RTRNMU
001394: 04,2737           20607                                    6D
001395: 04,2740           03750        RTRNMU             STORE    RTMU
001396: 04,2741           43134                           SXA,2    CLEAR
001397: 04,2742           03746                                    RTX2
001398: 04,2743           01271                                    FINALFLG
001399: 04,2744           77650                           GOTO
001400: 04,2745           73005                                    VN1645
001401:


001403:                                                                                                  #  ..... PERIAPO .....
001404:
001405:                                                                                                  #  MOD NO -1       LOG SECTION - P34-P35, P74-P75
001406:                                                                                                  #  MOD BY WHITE.P  DATE  18JAN68
001407:
001408:                                                                                                  #  FUNCTIONAL DESCRIPTION
001409:
001410:                                                                                                  #        THIS SUBROUTINE COMPUTES THE TWO BODY APOCENTER AND PERICENTER
001411:                                                                                                  #        ALTITUDES GIVEN THE POSITION AND VELOCITY VECTORS FOR A POINT ON
001412:                                                                                                  #        THE TRAJECTORY AND THE PRIMARY BODY.
001413:
001414:                                                                                                  #        SETRAD IS CALLED TO  DETERMINE THE RADIUS OF THE PRIMARY BODY.
001415:
001416:                                                                                                  #        APSIDES IS CALLED TO SOVE FOR THE TWO BODY RADII OF APOCENTER AND
001417:                                                                                                  #        PERICENTER AND THE ECCENTRICITY OF THE TRAJECTORY.
001418:
001419:                                                                                                  #  CALLING SEQUENCE
001420:
001421:                                                                                                  #        L         CALL
001422:                                                                                                  #        L+1               PERIAPO
001423:                                                                                                  #        L+2       (RETURN - ALWAYS)
001424:
001425:                                                                                                  #  INPUT
001426:
001427:                                                                                                  #        (1) RVEC     POSITION VECTOR IN METERS
001428:                                                                                                  #                     SCALE FACTOR - EARTH +29, MOON +27
001429:                                                                                                  #        (2) VVEC     VELOCITY VECTORY IN METERS/CENTISECOND
001430:                                                                                                  #                     SCALE FACTOR - EARTH +7, MOON +5
001431:                                                                                                  #        (3) X1       PRIMARY BODY INDICATOR
001432:                                                                                                  #                     EARTH -2, MOON -10
001433:
001434:                                                                                                  #  OUTPUT
001435:
001436:                                                                                                  #        (1) 2D       APOCENTER RADIUS IN METERS
001437:                                                                                                  #                     SCALE FACTOR - EARTH +29, MOON +27
001438:                                                                                                  #        (2) 4D       APOCENTER ALTITUDE IN METERS
001439:                                                                                                  #                     SCALE FACTOR - EARTH +29, MOON +27
001440:                                                                                                  #        (3) 6D       PERICENTER RADIUS IN METERS
001441:                                                                                                  #                     SCALE FACTOR - EARTH +29, MOON +27
001442:                                                                                                  #        (4) 8D       PERICENTER ALTITUDE IN METERS
001443:                                                                                                  #                     SCALE FACTOR - EARTH +29, MOON +27
001444:                                                                                                  #        (5) ECC      ECCENTRICITY OF CONIC TRAJECTORY
001445:                                                                                                  #                     SCALE FACTOR - +3
001446:                                                                                                  #        (6) XXXALT   RADIUS OF THE PRIMARY BODY IN METERS
001447:                                                                                                  #                     SCALE FACTOR - EARTH +29, MOON +27
001448:                                                                                                  #        (7) PUSHLOC  EQUALS 10D
001449:
001450:                                                                                                  #  SUBROUTINES USED
001451:
001452:                                                                                                  #        SETRAD


001454:                                                                                                  #        APSIDES
001455:
001456: 22,2000                                           SETLOC   APOPERI
001457: 22,2000                                           BANK
001458:
001459: 22,3310                                           COUNT*   $$/PERAP
001460:
001461: 22,3310           00302 17755  RPAD               2DEC     6373338    B-29                       #  STANDARD RADIUS  OF PAD 37-B.
001462:                                                                                                  #                                          = 20 909 901.57 FT
001463:
001464: 22,3312           53754        PERIAPO1           LXA,2    VSR*
001465: 22,3313           03746                                    RTX2
001466: 22,3314           57176                                    0,2
001467: 22,3315           26746                           STOVL    VVEC
001468: 22,3316           53750                           LXA,1    VSR*
001469: 22,3317           03745                                    RTX1
001470: 22,3320           57176                                    0,2
001471: 22,3321           02657                           STORE    RVEC
001472: 22,3322           45020        PERIAPO            STQ      CALL
001473: 22,3323           01340                                    NORMEX
001474: 22,3324           45340                                    SETRAD
001475: 22,3325           37456                           STCALL   XXXALT
001476: 22,3326           25671                                    APSIDES
001477: 22,3327           41401                           SETPD    PUSH                                  #  2D = APOCENTER RADIUS   B29 OR B27
001478: 22,3330           00003                                    2D
001479: 22,3331           65225                           DSU      PDDL                                  #  4D = APOGEE ALTITUDE    B29 OR B27
001480: 22,3332           03456                                    XXXALT
001481: 22,3333           00001                                    0D
001482: 22,3334           45206                           PUSH     DSU                                   #  6D = PERICENTER RADIUS  B29 OR B27
001483: 22,3335           03456                                    XXXALT
001484: 22,3336           52006                           PUSH     GOTO                                  #  8D = PERIGEE ALTITUDE   B29 OR B27
001485: 22,3337           01340                                    NORMEX


001487:                                                                                                  #  SETRAD
001488: 22,3340           41545        SETRAD             DLOAD    PUSH
001489: 22,3341           05311                                    RPAD
001490: 22,3342           63130                           SXA,1    INCR,2
001491: 22,3343           00047                                    X2
001492: 22,3344           00002                                    2D
001493: 22,3345           46135                           SLOAD    BHIZ
001494: 22,3346           00050                                    X2
001495: 22,3347           45353                                    SETRADX
001496: 22,3350           51575                           VLOAD    ABVAL
001497: 22,3351           02026                                    RLS
001498: 22,3352           77725                           PDDL
001499: 22,3353           43545        SETRADX            DLOAD    RVQ
001500:


001502:                                                                                                  #  PRECSET
001503: 22,3354           77620        PRECSET            STQ
001504: 22,3355           01340                                    NORMEX
001505: 22,3356           36635                           STCALL   TDEC2
001506: 22,3357           27036                                    LEMPREC
001507: 22,3360           77624                           CALL
001508: 22,3361           45372                                    LEMSTORE
001509: 22,3362           77745                           DLOAD
001510: 22,3363           02635                                    TDEC2
001511: 22,3364           34041                           STCALL   TDEC1
001512: 22,3365           27022                                    CSMPREC
001513: 22,3366           77624                           CALL
001514: 22,3367           45402                                    CSMSTORE
001515: 22,3370           77650                           GOTO
001516: 22,3371           01340                                    NORMEX
001517: 22,3372           43175        LEMSTORE           VLOAD    BOFF
001518: 22,3373           00001                                    RATT
001519: 22,3374           01352                                    AVFLAG
001520: 22,3375           45406                                    PASSIVE
001521: 22,3376           27540        ACTIVE             STOVL    RACT3
001522: 22,3377           00007                                    VATT
001523: 22,3400           03546                           STORE    VACT3
001524: 22,3401           77616                           RVQ
001525: 22,3402           43175        CSMSTORE           VLOAD    BOFF
001526: 22,3403           00001                                    RATT
001527: 22,3404           01352                                    AVFLAG
001528: 22,3405           45376                                    ACTIVE
001529: 22,3406           27554        PASSIVE            STOVL    RPASS3
001530: 22,3407           00007                                    VATT
001531: 22,3410           03562                           STORE    VPASS3
001532: 22,3411           77616                           RVQ
001533:


001535:                                                                                                  #  VECSHIFT
001536: 22,3412           53754        VECSHIFT           LXA,2    VSR*
001537: 22,3413           03746                                    RTX2
001538: 22,3414           57176                                    0,2
001539: 22,3415           63350                           LXA,1    PDVL
001540: 22,3416           03745                                    RTX1
001541: 22,3417           63257                           VSR*     PDVL
001542: 22,3420           57176                                    0,2
001543: 22,3421           77616                           RVQ
001544:


001546:                                                                                                  #  SHIFTR1
001547: 22,3422           53754        SHIFTR1            LXA,2    SL*
001548: 22,3423           03746                                    RTX2
001549: 22,3424           57576                                    0,2
001550: 22,3425           77616                           RVQ
001551:


001553:                                                                                                  #  PROGRAM DESCRIPTION
001554:                                                                                                  #  SUBROUTINE NAME       R36  OUT-OF-PLANE RENDEZVOUS ROUTINE
001555:                                                                                                  #  MOD NO.  0                      DATE      22 DECEMBER 67
001556:                                                                                                  #  MOD BY   N.M.NEVILLE            LOG SECTION  EXTENDED VERBS
001557:                                                                                                  #  FUNCTIONAL DESCRIPTION
001558:
001559:                                                                                                  #  TO DISPLAY AT ASTRONAUT REQUEST LGC CALCULATED RENDEZVOUS
001560:                                                                                                  #  OUT-OF-PLANE PARAMETERS (Y , YDOT , PSI). (REQUESTED BY DSKY).
001561:
001562:                                                                                                  #  CALLING SEQUENCE
001563:
001564:                                                                                                  #  ASTRONAUT REQUEST THROUGH DSKY V 90 E
001565:
001566:                                                                                                  #  SUBROUTINES CALLED
001567:
001568:                                                                                                  #  EXDSPRET
001569:                                                                                                  #  GOMARKF
001570:                                                                                                  #  CSMPREC
001571:                                                                                                  #  LEMPREC
001572:                                                                                                  #  SGNAGREE
001573:                                                                                                  #  LOADTIME
001574:
001575:                                                                                                  #  NORMAL EXIT MODES
001576:
001577:                                                                                                  #  ASTRONAUT REQUEST THROUGH DSKY TO TERMINATE PROGRAM V 34 E
001578:
001579:                                                                                                  #  ALARM OR ABORT EXIT MODES
001580:
001581:                                                                                                  #  NONE
001582:
001583:                                                                                                  #  OUTPUT
001584:
001585:                                                                                                  #  DECIMAL DISPLAY OF TIME , Y , YDOT AND PSI
001586:
001587:                                                                                                  #  DISPLAYED VALUES Y , YDOT , AND PSI , ARE STORED IN ERASABLE
001588:                                                                                                  #  REGISTERS RANGE , RRATE AND RTHETA RESPECTIVELY.
001589:
001590:                                                                                                  #  ERASABLE INITIALIZATION REQUIRED
001591:
001592:                                                                                                  #  CSM AND LEM STATE VECTORS
001593:
001594:                                                                                                  #  DEBRIS
001595:
001596:                                                                                                  #  CENTRALS A,Q,L
001597:
001598:                                                                                                  #  OTHER THOSE USED BY THE ABOVE LISTED SUBROUTINES
001599:
001600: 20,2000                                           BANK     20
001601: 04,2000                                           SETLOC   R36LM
001602: 04,2000                                           BANK
001603:


001605: 04,2746  E4,1726                                  EBANK=   RPASS36
001606: 04,2746                                           COUNT*   $$/R36
001607:
001608: 04,2746           22007        R36                ZL
001609: 04,2747           34714                           CAF      ZERO                                  #  SET TIME OF EVENT TO ZERO FOR FIRST
001610: 04,2750           53052                           DXCH     DSPTEMX                               #  DISPLAY
001611: 04,2751           33101                           CAF      V06N16N
001612: 04,2752           04555                           TC       BANKCALL
001613: 04,2753           20465                           CADR     GOMARKF
001614: 04,2754           15423                           TCF      ENDEXT                                #  TERMINATE
001615: 04,2755           12757                           TCF      +2                                    #  PROCEED
001616: 04,2756           12751                           TCF      -5                                    #  RECYCLE FOR ASTRONAUT INPUT TIME
001617: 04,2757           53052                           DXCH     DSPTEMX
001618: 04,2760           00006                           EXTEND
001619: 04,2761           13070                           BZF      LREGCHK                               #  A-REG ZERO GOTO CHECK L-REG FOR ZERO
001620: 04,2762           52155        ASTROTIM           DXCH     MPAC                                  #  A-REG NON-ZERO, TIME = ASTRO INPUT TIME
001621: 04,2763           06006                           TC       INTPRET
001622: 04,2764           77634                           RTB
001623: 04,2765           45713                                    DPMODE
001624: 04,2766           34041        R36INT             STCALL   TDEC1
001625: 04,2767           27036                                    OTHPREC
001626: 04,2770           63375                           VLOAD    PDVL
001627: 04,2771           00007                                    VATT
001628: 04,2772           00001                                    RATT                                  #   -
001629: 04,2773           02327                           STORE    RPASS36                               #   R
001630: 04,2774           63256                           UNIT     PDVL                                  #    P
001631: 04,2775           53435                           VXV      UNIT                                  #   -
001632: 04,2776           77626                           STADR
001633: 04,2777           61442                           STODL    UNP36                                 #   U
001634: 04,3000           00015                                    TAT
001635: 04,3001           34041                           STCALL   TDEC1
001636: 04,3002           27022                                    THISPREC
001637: 04,3003           63375                           VLOAD    PDVL                                  #                    -
001638: 04,3004           00007                                    VATT                                  #   VELOCITY VECTOR  V               00D
001639: 04,3005           00001                                    RATT                                  #                     A
001640: 04,3006           77725                           PDDL
001641: 04,3007           00015                                    TAT                                   #   SAVE TIME IN LOCATION 30D FOR REDISPLAY
001642: 04,3010           24037                           STOVL    30D                                   #                    -
001643: 04,3011           41406                           PUSH     PUSH                                  #   POSITION VECTOR  R   IN  06D AND 12D
001644: 04,3012           63245                           BVSU     PDVL                                  #                     A  -   -
001645: 04,3013           02327                                    RPASS36                               #   LINE OF SIGHT VECTOR R - R       12D
001646: 04,3014           72441                           DOT      SL1                                   #                         P   A
001647: 04,3015           02335                                    UNP36                                 #       _  _
001648: 04,3016           26321                           STOVL    RANGE                                 #   Y = U .R
001649: 04,3017           00001                                    00D                                   #  -        A
001650: 04,3020           72441                           DOT      SL1
001651: 04,3021           02335                                    UNP36                                 #   .   _  _
001652: 04,3022           26323                           STOVL    RRATE                                 #   Y = U .V
001653: 04,3023           00007                                    06D                                   #   -       A  -


001655: 04,3024           41456                           UNIT     PUSH                                  #   U   = UNIT( R )                  18D
001656: 04,3025           47235                           VXV      VXV                                   #    RA          A
001657: 04,3026           00001                                    00D                                   #    -   -   -     -
001658: 04,3027           00023                                    18D                                   #   (U  XV )XU    =U
001659: 04,3030           53552                           VSL2     UNIT                                  #     RA  A   RA    A
001660: 04,3031           77656                           UNIT
001661: 04,3032           24001                           STOVL    00D                                   #   UNIT HORIZONTAL IN FORWARD DIR.  00D
001662: 04,3033           00023                                    18D
001663: 04,3034           74241                           DOT      VXSC                                  #   -
001664: 04,3035           00015                                    12D                                   #   U
001665: 04,3036           77752                           VSL2                                           #    L
001666: 04,3037           53445                           BVSU     UNIT
001667: 04,3040           77656                           UNIT
001668: 04,3041           50206                           PUSH     DOT                                   #   LOS PROJECTED INTO HORIZONTAL    12D
001669: 04,3042           00001                                    00D                                   #   PLANE
001670: 04,3043           65552                           SL1      ARCCOS                                #               -  -
001671: 04,3044           26325                           STOVL    RTHETA                                #   PSI= ARCCOS(U .U )
001672: 04,3045           50235                           VXV      DOT                                   #                A  L
001673: 04,3046           00001                                    00D
001674: 04,3047           71244                           BPL      DLOAD
001675: 04,3050           11055                                    R36TAG2
001676: 04,3051           11464                                    LODPMAX
001677: 04,3052           77625                           DSU
001678: 04,3053           02325                                    RTHETA
001679: 04,3054           02325                           STORE    RTHETA
001680: 04,3055           47145        R36TAG2            DLOAD    RTB
001681: 04,3056           00037                                    30D
001682: 04,3057           45541                                    SGNAGREE
001683: 04,3060           01052                           STORE    DSPTEMX
001684: 04,3061           77776                           EXIT
001685: 04,3062           33102                           CAF      V06N90N                               #   DISPLAY Y , YDOT , AND PSI
001686: 04,3063           04555                           TC       BANKCALL
001687: 04,3064           20465                           CADR     GOMARKF
001688: 04,3065           15423                           TCF      ENDEXT                                #  TERMINATE
001689: 04,3066           15423                           TCF      ENDEXT                                #  PROCEED , END OF PROGRAM
001690: 04,3067           12751                           TCF      R36        +3                         #  REDISPLAY OUTPUT
001691: 04,3070           56001        LREGCHK            XCH      L
001692: 04,3071           00006                           EXTEND
001693: 04,3072           13075                           BZF      ENTTIM2                               #  L-REG ZERO ,SET TIME = PRESENT TIME
001694: 04,3073           56001                           XCH      L                                     #  L-REG NON ZERO, TIME = ASTRO INPUT TIME
001695: 04,3074           12762                           TCF      ASTROTIM
001696: 04,3075           06006        ENTTIM2            TC       INTPRET
001697: 04,3076           52034                           RTB      GOTO
001698: 04,3077           45505                                    LOADTIME
001699: 04,3100           10766                                    R36INT
001700: 04,3101           01420        V06N16N            VN       00616
001701: 04,3102           01532        V06N90N            VN       00690

End of include-file P34-P35,_P74-P75.agc.  Parent file is MAIN.agc


