
Source Code


000002:                                                                                                 #  Copyright:    Public domain.
000003:                                                                                                 #  Filename:      P37,P70.agc
000004:                                                                                                 #  Purpose:      Part of the source code for Colossus build 237.
000005:                                                                                                 #                This is for the Command Module's (CM) Apollo Guidance
000006:                                                                                                 #                Computer (AGC), we believe for Apollo 8.
000007:                                                                                                 #  Assembler:    yaYUL
000008:                                                                                                 #  Contact:      Jim Lawton <jim DOT lawton AT gmail DOT com>
000009:                                                                                                 #  Website:      www.ibiblio.org/apollo/index.html
000010:                                                                                                 #  Page scans:   www.ibiblio.org/apollo/ScansForConversion/Colossus237/
000011:                                                                                                 #  Mod history:  2011-03-05 JL    Adapted from corresponding Colossus 249 file.
000012:
000013:                                                                                                 # # Page 840
000014: 31,3215                                          BANK     31
000015: 36,2000                                          SETLOC   RTE1
000016: 36,2000                                          BANK
000017:
000018: 36,2502  E7,1631                                 EBANK=   RTEDVD
000019: 36,2502                                          COUNT    31/P37
000020:
000021:                                                                                                 #  PROGRAM DESCRIPTION - P37, RETURN TO EARTH
000022:
000023:                                                                                                 #  DESCRIPTION
000024:                                                                                                 #    A RETURN TO EARTH TRAJECTORY IS COMPUTED PROVIDED THE CSM IS OUTSIDE THE LUNAR SPHERE OF INFLUENCE AT THE
000025:                                                                                                 #  TIME OF IGNITION. INITIALLY A CONIC TRAJECTORY IS DETERMINED AND RESULTING IGNITION AND REENTRY PARAMETERS ARE
000026:                                                                                                 #  DISPLAYED TO THE ASTRONAUT. THEN IF THE ASTRONAUT SO DESIRES, A PRECISION TRAJECTORY IS DETERMINED WTIH THE
000027:                                                                                                 #  RESULTING IGNITION AND REENTRY PARAMETERS DISPLAYED. UPON FINAL ACCEPTANCE BY THE ASTRONAUT, THE PROGRAM
000028:                                                                                                 #  COMPUTES AND STORES THE TARGET PARAMETERS FOR RETURN TO EARTH FOR USE BYSPS PROGRAM (P40) OR RCS PROGRAM (P41).
000029:
000030:                                                                                                 #  CALLING SEQUENCE
000031:                                                                                                 #    L      TC     P37
000032:
000033:                                                                                                 #  SUBROUTINES CALLED
000034:                                                                                                 #    PREC100
000035:                                                                                                 #      V2T100
000036:                                                                                                 #      RTENCK2
000037:                                                                                                 #      RTENCK3
000038:                                                                                                 #      TIMERAD
000039:                                                                                                 #      PARAM
000040:                                                                                                 #    V2T100
000041:                                                                                                 #      GAMDV10
000042:                                                                                                 #      XT1LIM
000043:                                                                                                 #      DVCALC
000044:                                                                                                 #    RTENCK1
000045:                                                                                                 #      INTSTALL
000046:                                                                                                 #      INTEGRVS
000047:                                                                                                 #    RTEVN
000048:                                                                                                 #      RETDISP
000049:                                                                                                 #      TMRAD100
000050:                                                                                                 #      AUGEKUGL
000051:                                                                                                 #      LAT-LONG
000052:                                                                                                 #    TMRAD100
000053:                                                                                                 #      TIMERAD
000054:                                                                                                 #    INVC100
000055:                                                                                                 #      CSMPREC
000056:                                                                                                 #    GETERAD
000057:                                                                                                 #    TIMETHET
000058:                                                                                                 #    P370ALRM
000059:                                                                                                 #    VN1645
000060:                                                                                                 #    POLY
000061:
000062:                                                                                                 #  ERASABLE INITIALIZATION REQUIRED
000063:                                                                                                 #    CSM STATE VECTOR
000064:                                                                                                 # # Page 841
000065:                                                                                                 #    NJETSFLG      NUMBER OF JETS IF THE RCS PROPULSION SYSTEM SELECTED    STATE FLAG      0=4 JETS  1=2 JETS
000066:
000067:                                                                                                 #  ASTRONAUT INPUT
000068:                                                                                                 #    SPRTETIG      TIME OF IGNITION (OVERLAYS TIG)                         DP      B28     CS
000069:                                                                                                 #    VPRED         DESIRED CHANGE IN VELOCITY AT TIG(PROGRM COMPUTED IF 0) DP      B7      METERS/CS
000070:                                                                                                 #    GAMMAEI       DESIRED FLIGHT PATH ANGLE AT REENTRY (COMPUTED IF 0)    DP      B0      REVS  + ABOVE HORIZ.
000071:                                                                                                 #    OPTION2       PROPULSION SYSTEM OPTION                                SP      B14     1=SPS, 2=RCS
000072:
000073:                                                                                                 #  OUTPUT
000074:                                                                                                 #    CONIC OR PRECISION TRAJECTORY DISPLAY
000075:                                                                                                 #      VPRED       VELOCITY MAGNITUDE AT 400,000 FT. ENTRY ALTITUDE        DP      B7      METERS/CS
000076:                                                                                                 #      T3TOT4      TRANSIT TIME TO 400,000 FT. ENTRY ALTITUDE              DP      B28     CS
000077:                                                                                                 #      GAMMAEI     FLIGHT PATH ANGLE AT 400,000 FT. ENTRY ALTITUDE         DP      B0      REVS  + ABOVE HORIZON
000078:                                                                                                 #      DELVLVC     INITIAL VELOCITY CHANGE VECTOR IN LOCAL VERTICAL COORD. VECTOR  B7      METERS/CS
000079:                                                                                                 #      LAT(SPL)    LATITUDE OF THE LANDING SITE                            DP      B0      REVS
000080:                                                                                                 #      LNG(SPL)    LONGITUDE OF THE LANDING SITE                           DP      B0      REVS
000081:                                                                                                 #    TARGETING COMPUTATION DISPLAY
000082:                                                                                                 #      TIG         RECOMPUTED TIG BASED ON THRUST OPTION                   DP      B28     CS
000083:                                                                                                 #      TTOGO       TIME FROM TIG                                           DP      B28     CS
000084:                                                                                                 #      +MGA        POSITIVE MIDDLE GIMBAL ANGLE                            DP      B0      REVS  -.02 IF REFSMFLG=0
000085:                                                                                                 #    THRUST PROGRAM COMMUNICATION
000086:                                                                                                 #      XDELVFLG    EXTERNAL DELTA V FLAG                                   STATE  FLAG      SET 0 FOR LAMBERT AIMPT
000087:                                                                                                 #      NORMSW      LAMBERT AIMPT ROTATION SWITCH                           STATE  FLAG      SET 0 FOR NO ROTATION
000088:                                                                                                 #      ECSTEER     CROSS PRODUCT STEERING CONSTANT                         SP      B2      SET 1
000089:                                                                                                 #      RTARG       CONICALLY INTEGRATED REENTRY POSITION VECTOR            VECTOR  B29     METERS
000090:                                                                                                 #      TPASS4      REENTRY TIME                                            DP      B28     CS
000091:
000092: 36,2502           05301        P37               TC       PHASCHNG                              #  P37 IS NOT RESTARTABLE.
000093: 36,2503           00004                          OCT      4
000094:
000095: 36,2504           06006                          TC       INTPRET
000096: 36,2505           66170                          AXT,1    SXA,1
000097: 36,2506           04000                          OCT      04000
000098: 36,2507           03424                                   ECSTEER
000099: 36,2510           77776                          EXIT
000100: 36,2511           33242                          CAF      V6N33RTE                              #  INPUT TIG   STORED IN SPRTETIG
000101: 36,2512           03231                          TCR      P370GOF                               #                 OVERLAYED WITH TIG
000102: 36,2513           12511                          TCF      -2                                    #  DESPLAY NEW DATA
000103: 36,2514           33246                          CAF      V6N60RTE                              #  INPUT REENTRY ANGLE IN GAMMAEI
000104: 36,2515           03205                          TCR      P37GFRB1                              #    AND DESIRED DELTA V IN RETDVD
000105: 36,2516           12514                          TCF      -2                                    #  DISPLAY NEW DATA
000106: 36,2517           06006        RTE299            TC       INTPRET
000107: 36,2520           71331                          SSP      DLOAD
000108: 36,2521           00122                                   OVFIND
000109: 36,2522           00000                                   0
000110: 36,2523           03767                                   VPRED
000111: 36,2524           17632                          STODL    RTEDVD
000112: 36,2525           03771                                   GAMMAEI
000113: 36,2526           17634                          STODL    RTEGAM2D
000114: 36,2527           31671                                   1RTEB13
000115:                                                                                                 # # Page 842
000116: 36,2530           17735                          STODL    CONICX1
000117: 36,2531           33756                                   C4RTE
000118: 36,2532           37652                          STCALL   MAMAX1
000119: 36,2533           64423                                   INVC100                               #  GET R(T1)/,V(T1)/,UR1/,UH/
000120: 36,2534           77545                          DLOAD    EXIT
000121: 36,2535           03646                                   R(T1)
000122: 36,2536           07171                          TC       POLY
000123: 36,2537           00002                          DEC      2          B-14
000124: 36,2540           02544 35436                    2DEC     181000434.
000125: 36,2542           14040 05066                    2DEC     1.50785145
000126: 36,2544           44052 60030                    2DEC*    -6.49993057
000127: 36,2546           26415 25057                    2DEC*    9.76938926
000128: 36,2550           06006                          TC       INTPRET
000129: 36,2551           77752                          SL1
000130: 36,2552           17654                          STODL    MAMAX2                                #  C0+C1*R+C2*R**2+C3*R**3=MAMAX2 B30
000131: 36,2553           31721                                   M9RTEB28
000132: 36,2554           17730                          STODL    NN1A
000133: 36,2555           33762                                   K2RTE
000134: 36,2556           17636        RTE320            STODL    RCON                                  #  RCON=K2
000135: 36,2557           03634                                   RTEGAM2D
000136: 36,2560           44254                          BZE      BDSU
000137: 36,2561           74570                                   RTE340                                #  GOTORTE340 IF REENTRY ANGLE NOT INPUT
000138: 36,2562           31657                                   1RTEB2
000139: 36,2563           71406                          PUSH     COS                                   #                                     PL02D
000140: 36,2564           73525                          PDDL     SIN
000141: 36,2565           45465                          BDDV     STADR                                 #                                     PL00D
000142: 36,2566           40051                          STCALL   X(T2)                                 #  X(T2)=COT(GAM2D)                B0
000143: 36,2567           74603                                   RTE360
000144: 36,2570           45345        RTE340            DLOAD    DSU
000145: 36,2571           03646                                   R(T1)
000146: 36,2572           33760                                   K1RTE
000147: 36,2573           71240                          BMN      DLOAD
000148: 36,2574           74600                                   RTE350
000149: 36,2575           33766                                   K4RTE
000150: 36,2576           37726                          STCALL   X(T2)                                 #  X(T2)=K4
000151: 36,2577           74603                                   RTE360
000152: 36,2600           77745        RTE350            DLOAD
000153: 36,2601           33764                                   K3RTE
000154: 36,2602           03726                          STORE    X(T2)                                 #  X(T2)=K3
000155: 36,2603           77624        RTE360            CALL
000156: 36,2604           65132                                   V2T100
000157: 36,2605           52054                          BZE      GOTO
000158: 36,2606           74610                                   RTE367
000159: 36,2607           74772                                   RTEALRM
000160: 36,2610           77775        RTE367            VLOAD
000161: 36,2611           03640                                   R(T1)/
000162:                                                                                                 # # Page 843
000163: 36,2612           16657                          STODL    RVEC
000164: 36,2613           03636                                   RCON
000165: 36,2614           26760                          STOVL    RDESIRED
000166: 36,2615           03700                                   V2(T1)/
000167: 36,2616           36746                          STCALL   VVEC
000168: 36,2617           64266                                   TMRAD100
000169: 36,2620           77615                          DAD
000170: 36,2621           03716                                   T1
000171: 36,2622           17736                          STODL    T2
000172: 36,2623           03634                                   RTEGAM2D
000173: 36,2624           52054                          BZE      GOTO
000174: 36,2625           74627                                   RTE369
000175: 36,2626           74651                                   RTE372
000176: 36,2627           51575        RTE369            VLOAD    ABVAL
000177: 36,2630           03710                                   V(T2)/
000178: 36,2631           77776                          EXIT
000179: 36,2632           07171                          TC       POLY
000180: 36,2633           00002                          DEC      2          B-14
000181: 36,2634           00000 00000                    2DEC     0          B-28
000182: 36,2636           47021 65002                    2DEC     -4.8760771
000183: 36,2640           35610 07722                    2DEC     4.5419476
000184: 36,2642           63772 63276                    2DEC     -1.4317675
000185: 36,2644           06006                          TC       INTPRET
000186: 36,2645           77615                          DAD
000187: 36,2646           01352                                   RTED1
000188: 36,2647           52052                          SL3      GOTO                                  #  X(T2),=D1+D2V2+D3V2**2+D4V2**3
000189: 36,2650           74653                                   RTE373
000190: 36,2651           77745        RTE372            DLOAD                                          #  X(T2),=X(T2)
000191: 36,2652           03726                                   X(T2)
000192: 36,2653           41425        RTE373            DSU      PUSH                                  #  X(T2)ERR                        B0 PL02D
000193: 36,2654           03726                                   X(T2)
000194: 36,2655           53575                          VLOAD    UNIT
000195: 36,2656           03656                                   R(T2)/                                #                                 B58
000196: 36,2657           36152                          STCALL   ALPHAV
000197: 36,2660           26437                                   GETERAD
000198: 36,2661           77615                          DAD
000199: 36,2662           33772                                   E3RTE
000200: 36,2663           45206                          PUSH     DSU                                   #  RCON,=(E1/(1+E2BETA11)**.5)+E3 B29 PL04D
000201: 36,2664           03636                                   RCON
000202: 36,2665           45246                          ABS      DSU
000203: 36,2666           31756                                   EPC2RTE
000204: 36,2667           52040                          BMN      GOTO
000205: 36,2670           74672                                   RTE374
000206: 36,2671           74677                                   RTE375
000207: 36,2672           51545        RTE374            DLOAD    ABS
000208: 36,2673           00001                                   00D
000209:                                                                                                 # # Page 844
000210: 36,2674           50025                          DSU      BMN
000211: 36,2675           31760                                   EPC3RTE
000212: 36,2676           74747                                   P37E
000213: 36,2677           43345        RTE375            DLOAD    DAD
000214: 36,2700           03730                                   NN1A
000215: 36,2701           31677                                   1RTEB28
000216: 36,2702           67240                          BMN      SLOAD
000217: 36,2703           74707                                   RTE380
000218: 36,2704           31737                                   OCT605
000219: 36,2705           77650                          GOTO
000220: 36,2706           74772                                   RTEALRM                               #  TOO MANY ITERATIONS
000221: 36,2707           03730        RTE380            STORE    NN1A
000222: 36,2710           53025                          DSU      BZE
000223: 36,2711           31723                                   M8RTEB28
000224: 36,2712           74730                                   RTE385
000225: 36,2713           45345                          DLOAD    DSU
000226: 36,2714           00001                                   00D
000227: 36,2715           03666                                   DRCON
000228: 36,2716           65301                          NORM     PDDL                                  #  X(T2)ERR-X(T2)ERR,=Z1              PL06D
000229: 36,2717           00047                                   X1
000230: 36,2720           03670                                   RPRE,
000231: 36,2721           56225                          DSU      DDV                                   #  X(T2)PRI-X(T2)=Z2                  PL04D
000232: 36,2722           03726                                   X(T2)
000233: 36,2723           53605                          DMP      SL*                                   #  DX(T2)=X(T2)ERR(Z2/Z1)
000234: 36,2724           00001                                   00D
000235: 36,2725           20201                                   0,1
000236: 36,2726           77650                          GOTO
000237: 36,2727           74732                                   RTE390
000238: 36,2730           77745        RTE385            DLOAD                                          #  DX(T2)=X(T2)ERR
000239: 36,2731           00001                                   00D
000240: 36,2732           14021        RTE390            STODL    16D                                   #  DX(T2)                             PL02D
000241: 36,2733           77626                          STADR
000242: 36,2734           60141                          STODL    RCON                                  #  RCON=RCON,
000243: 36,2735           77600                          BOV
000244: 36,2736           74603                                   RTE360
000245: 36,2737           17666                          STODL    DRCON                                 #  X(T2)ERR,=X(T2)ERR
000246: 36,2740           03726                                   X(T2)
000247: 36,2741           17670                          STODL    RPRE,                                 #  X(T2)PRI=X(T2)
000248: 36,2742           00021                                   16D
000249: 36,2743           77615                          DAD
000250: 36,2744           03726                                   X(T2)
000251: 36,2745           37726                          STCALL   X(T2)                                 #  X(T2)=X(T2)+DX(T2)
000252: 36,2746           74603                                   RTE360                                #  REITERATE
000253: 36,2747           77624        P37E              CALL                                           #  DISPLAY CONIC SOLUTION
000254: 36,2750           74776                                   RTEVN
000255: 36,2751           41345        RTE505            DLOAD    DMP
000256: 36,2752           03720                                   PCON
000257: 36,2753           03754                                   BETA1
000258: 36,2754           53021                          BDSU     BZE
000259: 36,2755           03636                                   RCON
000260:                                                                                                 # # Page 845
000261: 36,2756           74764                                   RTE510
000262: 36,2757           71240                          BMN      DLOAD
000263: 36,2760           74764                                   RTE510
000264: 36,2761           31657                                   1RTEB2
000265: 36,2762           77650                          GOTO                                           #  ENTRY NEAR APOGEE
000266: 36,2763           74766                                   RTE515
000267: 36,2764           57545        RTE510            DLOAD    DCOMP                                 #  ENTRY NEAR PERIGEE
000268: 36,2765           31657                                   1RTEB2
000269: 36,2766           37761        RTE515            STCALL   PHI2
000270: 36,2767           64511                                   PREC100                               #  PRECISION TRAJECTORY COMPUTATION
000271: 36,2770           77654        RTE625            BZE
000272: 36,2771           75024                                   P37G
000273: 36,2772           77624        RTEALRM           CALL
000274: 36,2773           64251                                   P370ALRM
000275: 36,2774           77776                          EXIT
000276: 36,2775           12502                          TCF      P37                                   #  RECYCLE AFTER ALARM DISPLAY
000277:
000278:                                                                                                 #                                        RETURN TO EARTH DISPLAY SUBROUTINE
000279:
000280: 36,2776           45020        RTEVN             STQ      CALL
000281: 36,2777           03763                                   VNSTORE
000282: 36,3000           64305                                   RTEDISP                               #  DISPLAY PREPARATION
000283: 36,3001           77776                          EXIT
000284: 36,3002           33244                          CAF      V6N61RTE                              #  LATITUDE,LONGITUDE,BLANK
000285: 36,3003           03215                          TCR      P370GOFR                              #    IN LAT(SPL),LNG(SPL),-
000286: 36,3004           34710                          CAF      FOUR
000287: 36,3005           03211                          TCR      37BLANK    +1
000288: 36,3006           13013                          TCF      +5
000289: 36,3007           12502                          TCF      P37                                   #  RECYCLE
000290: 36,3010           33245                          CAF      V6N39RTE                              #  T21 HRS,MIN,SEC IN T3TOT4
000291: 36,3011           03231                          TCR      P370GOF
000292: 36,3012           12502                          TCF      P37                                   #  RECYCLE
000293: 36,3013           33246                          CAF      V6N60RTE                              #  DISPLAY BLANK,V(T2),FPA2
000294: 36,3014           03205                          TCR      P37GFRB1                              #    IN -,VPRED,GAMMAEI
000295: 36,3015           12502                          TCF      P37                                   #  RECYCLE
000296: 36,3016           33247                          CAF      V6N81RTE                              #  DISPLAY DELTA V (LV) IN DELVLVC
000297: 36,3017           03231                          TCR      P370GOF
000298: 36,3020           12502                          TCF      P37                                   #  RECYCLE
000299: 36,3021           06006                          TCR      INTPRET
000300: 36,3022           77650                          GOTO
000301: 36,3023           03763                                   VNSTORE
000302:
000303:                                                                                                 #  PRECISION DISPLAY,TARGETING COMPUTATION AND RTE END PROCESSING
000304:
000305: 36,3024           77624        P37G              CALL
000306: 36,3025           74776                                   RTEVN
000307: 36,3026           77776                          EXIT
000308: 36,3027           34716        P37N              CAF      SEVEN
000309: 36,3030           55131                          TS       OPTION1
000310: 36,3031           34712                          CAF      ONE
000311:                                                                                                 # # Page 846
000312: 36,3032           55132                          TS       OPTION2
000313: 36,3033           33243                          CAF      V4N06RTE                              #  DISPLAY RCS OR SPS OPTION  SPS ASSUMED
000314: 36,3034           03231                          TCR      P370GOF
000315: 36,3035           13033                          TCF      -2                                    #  RECYCLE
000316: 36,3036           06006                          TC       INTPRET                               #  PROCEED
000317: 36,3037           67201                          SETPD    SLOAD
000318: 36,3040           00001                                   00D
000319: 36,3041           01133                                   OPTION2
000320: 36,3042           53025                          DSU      BZE
000321: 36,3043           31671                                   1RTEB13
000322: 36,3044           75053                                   P37Q
000323: 36,3045           60345                          DLOAD    NORM                                  #  SPS
000324: 36,3046           10362                                   MDOTHI
000325: 36,3047           00047                                   X1
000326: 36,3050           52125                          PDDL     GOTO
000327: 36,3051           31727                                   VCSPS
000328: 36,3052           75064                                   P37T
000329: 36,3053           43145        P37Q              DLOAD    BON                                   #  RCS
000330: 36,3054           31733                                   MDOTRCS
000331: 36,3055           00700                                   NJETSFLG
000332: 36,3056           75060                                   P37R
000333: 36,3057           77752                          SL1
000334: 36,3060           77752        P37R              SL1
000335: 36,3061           65301                          NORM     PDDL
000336: 36,3062           00047                                   X1
000337: 36,3063           31731                                   VCRCS
000338: 36,3064           56325        P37T              PDDL     DDV                                   #  DV/VC                  B7 -B5 = B2 PL02D
000339: 36,3065           03706                                   DV
000340: 36,3066           77776                          EXIT
000341: 36,3067           07171                          TC       POLY
000342: 36,3070           00001                          DEC      1          B-14
000343: 36,3071           00001 05070                    2DEC     5.66240507
000344: 36,3073           17527 36700                    2DEC     9.79487897
000345: 36,3075           47114 70670                    2DEC     -.388281955
000346: 36,3077           06006                          TC       INTPRET
000347: 36,3100           67206                          PUSH     SLOAD                                 #  (1-E)**(-DV/VC)=A               B3 PL04D
000348: 36,3101           03076                                   WEIGHT/G
000349: 36,3102           56205                          DMP      DDV                                   #  DTB=(M0/MDOT)A       B16+B3-B3=B16 PL00D
000350: 36,3103           41257                          SL*      DMP
000351: 36,3104           20165                                   0          -12D,1
000352: 36,3105           31735                                   CSUBT
000353: 36,3106           77621                          BDSU
000354: 36,3107           03716                                   T1
000355: 36,3110           03413                          STORE    TIG                                   #  TIG=T1-CT*DTB                  B28
000356: 36,3111           77776                          EXIT
000357: 36,3112           33242                          CAF      V6N33RTE                              #  DISPLAY BIASED TIG
000358: 36,3113           03231                          TCR      P370GOF
000359:                                                                                                 # # Page 847
000360: 36,3114           13112                          TCF      -2
000361: 36,3115           34714                          CAF      ZERO
000362: 36,3116           55125                          TS       VHFCNT
000363: 36,3117           55126                          TS       TRKMKCNT
000364: 36,3120           06006                          TC       INTPRET
000365: 36,3121           77624                          CALL                                           #  CONICALLY INTEGRATE FROM R1,V1 OVER T12
000366: 36,3122           65051                                   RTENCK1
000367: 36,3123           53575                          VLOAD    UNIT                                  #                                     PL00D
000368: 36,3124           03656                                   R(T2)/
000369: 36,3125           74315                          PDVL     VXSC                                  #  UR2                             B1 PL06D
000370: 36,3126           03740                                   UR1/
000371: 36,3127           31742                                   MCOS7.5
000372: 36,3130           74315                          PDVL     VXSC                                  #  -UR1(COS7.5)                    B1 PL12D
000373: 36,3131           03746                                   UH/
000374: 36,3132           31744                                   MSIN7.5
000375: 36,3133           50255                          VAD      DOT                                   #  K/=-UR1(COS7.5)-UH(SIN7.5)      B2 PL00D
000376: 36,3134           50015                          DAD      BMN
000377: 36,3135           31746                                   MCOS22.5
000378: 36,3136           75163                                   P37W
000379: 36,3137           50375                          VLOAD    DOT                                   #  K/ . UR2 GR COS22.5
000380: 36,3140           03746                                   UH/
000381: 36,3141           03656                                   R(T2)/
000382: 36,3142           71240                          BMN      DLOAD
000383: 36,3143           75147                                   P37U
000384: 36,3144           31750                                   THETA165
000385: 36,3145           52006                          PUSH     GOTO
000386: 36,3146           75151                                   P37V
000387: 36,3147           41545        P37U              DLOAD    PUSH
000388: 36,3150           31752                                   THETA210
000389: 36,3151           77756        P37V              SIN
000390: 36,3152           16732                          STODL    SNTH
000391: 36,3153           43146                          COS      CLEAR
000392: 36,3154           03666                                   RVSW
000393: 36,3155           26734                          STOVL    CSTH
000394: 36,3156           03640                                   R(T1)/
000395: 36,3157           26657                          STOVL    RVEC
000396: 36,3160           03700                                   V2(T1)/
000397: 36,3161           36746                          STCALL   VVEC
000398: 36,3162           24737                                   TIMETHET
000399: 36,3163           43014        P37W              CLEAR    CLEAR
000400: 36,3164           01267                                   XDELVFLG
000401: 36,3165           03665                                   NORMSW
000402: 36,3166           77214                          SET      VLOAD
000403: 36,3167           01071                                   FINALFLG
000404: 36,3170           77626                          STADR
000405: 36,3171           60362                          STODL    RTARG
000406: 36,3172           00037                                   T
000407: 36,3173           77615                          DAD
000408: 36,3174           03716                                   T1
000409: 36,3175           27656                          STOVL    TPASS4
000410:                                                                                                 # # Page 848
000411: 36,3176           03700                                   V2(T1)/
000412: 36,3177           77651                          VSU
000413: 36,3200           03672                                   V(T1)/
000414: 36,3201           37646                          STCALL   DELVSIN
000415: 36,3202           73005                                   VN1645
000416: 36,3203           77650                          GOTO
000417: 36,3204           75163                                   P37W
000418:
000419:                                                                                                 #  SUBROUTINE TO GO TO GOFLASHR AND BLANK R1
000420:
000421: 36,3205           00006        P37GFRB1          EXTEND
000422: 36,3206           23762                          QXCH     SPRTEX
000423: 36,3207           03215                          TCR      P370GOFR
000424: 36,3210           34712        37BLANK           CAF      ONE
000425: 36,3211           05415                          TCR      BLANKET
000426: 36,3212           15112                          TCF      ENDOFJOB
000427: 36,3213           01762                          TC       SPRTEX                                #  RECYCLE
000428: 36,3214           13240                          TCF      P37PROC                               #  PROCEED
000429:
000430:                                                                                                 #  SUBROUTINE TO GO TO GOFLASHR
000431:
000432: 36,3215           00006        P370GOFR          EXTEND
000433: 36,3216           23733                          QXCH     RTENCKEX
000434: 36,3217           04555                          TCR      BANKCALL
000435: 36,3220           20763                          CADR     GOFLASHR
000436: 36,3221           14106                          TCF      GOTOPOOH                              #  TERMINATE
000437: 36,3222           13225                          TCF      +3
000438: 36,3223           13227                          TCF      +4
000439: 36,3224           01733                          TC       RTENCKEX                              #  IMMEDIATE RETURN
000440: 36,3225           51733                          INDEX    RTENCKEX                              #  PROCEED
000441: 36,3226           10004                          TCF      0          +4
000442: 36,3227           51733                          INDEX    RTENCKEX                              #  RECYCLE
000443: 36,3230           10003                          TCF      0          +3
000444:
000445:                                                                                                 #  SUBROUTINE TO GO TO GOFLASH
000446:
000447: 36,3231           00006        P370GOF           EXTEND
000448: 36,3232           23762                          QXCH     SPRTEX
000449: 36,3233           04555                          TCR      BANKCALL
000450: 36,3234           20624                          CADR     GOFLASH
000451: 36,3235           14106                          TCF      GOTOPOOH
000452: 36,3236           13240                          TCF      +2
000453: 36,3237           01762                          TC       SPRTEX
000454: 36,3240           51762        P37PROC           INDEX    SPRTEX
000455: 36,3241           10001                          TCF      0          +1
000456: 36,3242           01441        V6N33RTE          VN       0633
000457: 36,3243           01006        V4N06RTE          VN       0406
000458: 36,3244           01475        V6N61RTE          VN       0661
000459: 36,3245           01447        V6N39RTE          VN       0639
000460: 36,3246           01474        V6N60RTE          VN       0660
000461:                                                                                                 # # Page 849
000462: 36,3247           01521        V6N81RTE          VN       0681
000463: 32,2251                                          BANK     32
000464: 32,2000                                          SETLOC   RTE
000465: 32,2000                                          BANK
000466: 32,2251                                          COUNT    32/RTE
000467:
000468:                                                                                                 # # Page 850
000469:                                                                                                 #  ALARM DISPLAY SUBROUTINE
000470: 32,2251           77420        P370ALRM          STQ      EXIT
000471: 32,2252           03762                                   SPRTEX
000472: 32,2253           30154                          CA       MPAC
000473: 32,2254           05653                          TC       VARALARM
000474: 32,2255           32265                          CAF      V5N09RTE
000475: 32,2256           04555                          TC       BANKCALL
000476: 32,2257           20624                          CADR     GOFLASH
000477: 32,2260           14106                          TCF      GOTOPOOH
000478: 32,2261           12255                          TCF      -4
000479: 32,2262           06006                          TC       INTPRET
000480: 32,2263           77650                          GOTO
000481: 32,2264           03762                                   SPRTEX
000482: 32,2265           01211        V5N09RTE          VN       0509
000483:
000484:                                                                                                 # # Page 851
000485:                                                                                                 #  TIME RADIUS CALLING SUBROUTINE
000486:
000487:                                                                                                 #  INPUT
000488:                                                                                                 #    RVEC          INITIAL POSITION VECTOR                                 VECTOR  B29     METERS
000489:                                                                                                 #    VVEC          INITIAL VELOCITY VECTOR                                 VECTOR  B7      METERS/CS
000490:                                                                                                 #    RDESIRED      FINAL RADIUS FOR WHICH TRANSFER TIME IS TO BE COMPUTED  DP      B29     METERS
000491:                                                                                                 #    CONICX1       X1 SETTING FOR CONIC SUBROUTINES  -2 = EARTH            SP      B14
000492:                                                                                                 #  OUTPUT
000493:                                                                                                 #    R(T2)/        FINAL POSITION VECTOR                                   VECTOR  B29     METERS
000494:                                                                                                 #    V(T2)/        FINAL VELOCITY VECTOR                                   VECTOR  B7      METERS/CS
000495:                                                                                                 #    T12            TRANSFER TIME TO FINAL RADIUS                           DP      B28     CS
000496:
000497: 32,2266           43020        TMRAD100          STQ      CLEAR
000498: 32,2267           03733                                   RTENCKEX
000499: 32,2270           03666                                   RVSW
000500: 32,2271           67164                          AXC,2    SXA,2
000501: 32,2272           20000                          OCT      20000
000502: 32,2273           02756                                   SGNRDOT
000503: 32,2274           45140                          LXC,1    CALL
000504: 32,2275           03734                                   CONICX1
000505: 32,2276           25552                                   TIMERAD
000506: 32,2277           27710                          STOVL    V(T2)/                                #                                     PL00D
000507: 32,2300           77626                          STADR
000508: 32,2301           60121                          STODL    R(T2)/
000509: 32,2302           00037                                   T
000510: 32,2303           37724                          STCALL   T12
000511: 32,2304           03733                                   RTENCKEX
000512:
000513:                                                                                                 # # Page 852
000514:                                                                                                 #  DISPLAY CALCULATION SUBROUTINE
000515:
000516:                                                                                                 #  DESCRIPTION
000517:                                                                                                 #    OUTPUT FOR DISPLAY IS CONVERTED TO PROPER UNITS AND PLACED IN OUTPUT STORAGE REGISTERS. LANDING SITE
000518:                                                                                                 #  COMPUTATION FOR DETERMINING LANDING SITE LATITUDE AND LONGITUDE IS INCLUDED IN THE ROUTINE.
000519:
000520:                                                                                                 #  CALLING SEQUENCE
000521:                                                                                                 #    L      CALL
000522:                                                                                                 #    L+1           RTEDISP
000523:
000524:                                                                                                 #  SUBROUTINES CALLED
000525:                                                                                                 #    TMRAD100
000526:                                                                                                 #    AUGEKUGL
000527:                                                                                                 #    LAT-LONG
000528:
000529:                                                                                                 #  ERASABLE INITIALIZATION REQUIRED
000530:                                                                                                 #    PUSHLIST
000531:                                                                                                 #      NONE
000532:                                                                                                 #    MPAC
000533:                                                                                                 #      NONE
000534:                                                                                                 #    OTHER
000535:                                                                                                 #      R(T2)/      FINAL POSITION VECTOR                                   VECTOR  B29     METERS
000536:                                                                                                 #      V(T2)/      FINAL VELOCITY VECTOR                                   VECTOR  B7      METERS/CS
000537:                                                                                                 #      T2          FINAL TIME                                              DP      B28     CS
000538:                                                                                                 #      V2(T1)/     POST IMPULSE INITIAL VELOCITY VECTOR                    VECTOR  B7      METERS/CS
000539:                                                                                                 #      V(T1)/      INITIAL VELOCITY VECTOR                                 VECTOR  B7      METERS/CS
000540:                                                                                                 #      UR1/        UNIT INITIAL VECTOR                                     VECTOR  B1
000541:                                                                                                 #      UH/         UNIT HORIZONTAL VECTOR                                  VECTOR  B1
000542:
000543:                                                                                                 #  OUTPUT
000544:                                                                                                 #      VPRED       VELOCITY MAGNITUDE AT 400,000 FT. ENTRY ALTITUDE        DP      B7      METERS/CS
000545:                                                                                                 #      T3TOT4      TRANSIT TIME TO 400,000 FT. ENTRY ALTITUDE              DP      B28     CS
000546:                                                                                                 #      GAMMAEI     FLIGHT PATH ANGLE AT 400,000 FT. ENTRY ALTITUDE         DP      B0      REVS  + ABOVE HORIZ
000547:                                                                                                 #      DELVLVC     INITIAL VELOCITY CHANGE VECTOR IN LOCAL VERTICAL COORD. VECTOR  B7      METERS/CS
000548:                                                                                                 #      LAT(SPL)    LATITUDE OF THE LANDING SITE                            DP      B0      REVS
000549:                                                                                                 #      LNG(SPL)    LONGITUDE OF THE LANDING SITE                           DP      B0      REVS
000550:
000551: 32,2305           77220        RTEDISP           STQ      VLOAD                                 #  DISPLAY
000552: 32,2306           03762                                   SPRTEX
000553: 32,2307           03710                                   V(T2)/
000554: 32,2310           65256                          UNIT     PDDL
000555: 32,2311           00045                                   36D
000556: 32,2312           17767                          STODL    VPRED                                 #  V(T2)
000557: 32,2313           03736                                   T2
000558: 32,2314           77625                          DSU
000559: 32,2315           03413                                   SPRTETIG
000560: 32,2316           26641                          STOVL    T3TOT4                                #  T21
000561: 32,2317           03656                                   R(T2)/
000562: 32,2320           50256                          UNIT     DOT
000563: 32,2321           77752                          SL1
000564:                                                                                                 # # Page 853
000565: 32,2322           44326                          ARCCOS   BDSU
000566: 32,2323           31657                                   1RTEB2
000567: 32,2324           27771                          STOVL    GAMMAEI                               #  FLIGHT PATH ANGLE T2
000568: 32,2325           03700                                   V2(T1)/
000569: 32,2326           41451                          VSU      PUSH
000570: 32,2327           03672                                   V(T1)/
000571: 32,2330           57441                          DOT      DCOMP
000572: 32,2331           03740                                   UR1/
000573: 32,2332           41515                          PDVL     PUSH
000574: 32,2333           63345                          DLOAD    PDVL
000575: 32,2334           31701                                   ZERORTE
000576: 32,2335           55441                          DOT      VDEF
000577: 32,2336           03746                                   UH/
000578: 32,2337           77772                          VSL1
000579: 32,2340           27405                          STOVL    DELVLVC                               #  DV/ (LVC)
000580: 32,2341           03656                                   R(T2)/
000581: 32,2342           02657                          STORE    RVEC                                  #  *****  LANDING SITE COMPUTATION  *****
000582: 32,2343           45246                          ABVAL    DSU
000583: 32,2344           31725                                   30480RTE
000584: 32,2345           26760                          STOVL    RDESIRED
000585: 32,2346           03710                                   V(T2)/
000586: 32,2347           36746                          STCALL   VVEC
000587: 32,2350           64266                                   TMRAD100                              #  R3,V3,T23 FROM TIMERAD
000588: 32,2351           53575                          VLOAD    UNIT
000589: 32,2352           03656                                   R(T2)/
000590: 32,2353           53515                          PDVL     UNIT                                  #  UR3                                PL06D
000591: 32,2354           03710                                   V(T2)/
000592: 32,2355           72441                          DOT      SL1                                   #  GAMMAE=ARCSIN(UR3 . UV3)           PL00D
000593: 32,2356           65336                          ARCSIN   PDDL                                  #  V(T3)                              PL02D
000594: 32,2357           00045                                   36D
000595: 32,2360           51525                          PDDL     ABS
000596: 32,2361           45006                          PUSH     CALL                                  #  /GAMMAE/                           PL04D
000597: 32,2362           64071                                   AUGEKUGL                              #  PHIE                               PL06D
000598: 32,2363           43215                          DAD      DAD
000599: 32,2364           03724                                   T12                                   #  T23
000600: 32,2365           03736                                   T2
000601: 32,2366           14003                          STODL    02D                                   #  T(LS)=T2+T23+TE
000602: 32,2367           00005                                   04D
000603: 32,2370           77756                          SIN
000604: 32,2371           17403                          STODL    LNG(SPL)                              #  LNG(SPL)=SIN(PHIE)                 PL04D
000605: 32,2372           77746                          COS
000606: 32,2373           03401                          STORE    LAT(SPL)                              #  LAT(SPL)=COS(PHIE)
000607: 32,2374           53575                          VLOAD    UNIT
000608: 32,2375           03656                                   R(T2)/
000609: 32,2376           41406                          PUSH     PUSH
000610: 32,2377           53515                          PDVL     UNIT                                  #                                     PL22D
000611: 32,2400           03710                                   V(T2)/
000612: 32,2401           47315                          PDVL     VXV
000613: 32,2402           53435                          VXV      UNIT                                  #  UH3=UNIT(UR3 X UV3 X UR3)          PL10D
000614: 32,2403           63361                          VXSC     PDVL
000615:                                                                                                 # # Page 854
000616: 32,2404           03403                                   LNG(SPL)
000617: 32,2405           53361                          VXSC     VAD                                   #                                     PL04D
000618: 32,2406           03401                                   LAT(SPL)
000619: 32,2407           43014                          CLEAR    CLEAR                                 #  T(LS) IN MPAC
000620: 32,2410           00662                                   ERADFLAG
000621: 32,2411           01663                                   LUNAFLAG
000622: 32,2412           16152                          STODL    ALPHAV                                #  ALPHAV=UR3(COSPHIE)+UH3(SINPHIE)   PL02D
000623: 32,2413           77624                          CALL
000624: 32,2414           26322                                   LAT-LONG
000625: 32,2415           77745                          DLOAD
000626: 32,2416           01104                                   LAT
000627: 32,2417           17401                          STODL    LAT(SPL)                              #  LATITUDE LANDING SITE   *****
000628: 32,2420           01106                                   LONG
000629: 32,2421           37403                          STCALL   LNG(SPL)                              #  LONGITUDE LANDING SITE  *****
000630: 32,2422           03762                                   SPRTEX
000631: 32,2423                                          COUNT*   $$/RTE
000632:
000633:                                                                                                 # # Page 855
000634:                                                                                                 #  INITIAL VECTOR SUBROUTINE
000635:
000636:                                                                                                 #  DESCRIPTION
000637:                                                                                                 #    A PRECISION INTEGRATION OF THE STATE VECTOR TO THE TIME OF IGNITION ISPERFORMED.PRECOMPUTATIONS OCCUR.
000638:
000639:                                                                                                 #  CALLING SEQUENCE
000640:                                                                                                 #    L      CALL
000641:                                                                                                 #    L+1           INVC100
000642:
000643:                                                                                                 #  NORMAL EXIT MODE
000644:                                                                                                 #    AT L+2 OF CALLING SEQUENCE WITH MPAC = 0
000645:
000646:                                                                                                 #  ALARM EXIT MODE
000647:                                                                                                 #    AT L+2 OF CALLING SEQUENCE WITH MPAC = OCTAL 612 FOR STATE VECTOR IN MOONS SPHERE OF INFLUENCE
000648:
000649:                                                                                                 #  SUBROUTINES CALLED
000650:                                                                                                 #    CSMPREC
000651:
000652:                                                                                                 #  ERASABLE INITIALIZATION REQUIRED
000653:                                                                                                 #    PUSHLIST
000654:                                                                                                 #      NONE
000655:                                                                                                 #    MPAC
000656:                                                                                                 #      NONE
000657:                                                                                                 #    OTHER
000658:                                                                                                 #      SPRTETIG    TIME OF IGNITION                                        DP      B28     CS
000659:                                                                                                 #      CSM STATE VECTOR
000660:
000661:                                                                                                 #  OUTPUT
000662:                                                                                                 #    R(T1)/        INITIAL POSITION VECTOR AT TIG                          VECTOR  B29     METERS
000663:                                                                                                 #    V(T1)/        INITIAL VELOCITY VECTOR AT TIG                          VECTOR  B7      METERS/CS
000664:                                                                                                 #    T1            INITIAL VECTOR TIME (TIG)                               DP      B28     CS
000665:                                                                                                 #    UR1/          UNIT INITIAL VECTOR                                     VECTOR  B1
000666:                                                                                                 #    UH/           UNIT HORIZONTAL VECTOR                                  VECTOR  B1
000667:                                                                                                 #    CFPA          COSINE OF INITIAL FLIGHT PATH ANGLE                     DP      B1
000668:
000669: 32,2423           71220        INVC100           STQ      DLOAD
000670: 32,2424           03762                                   SPRTEX
000671: 32,2425           03413                                   SPRTETIG
000672: 32,2426           34041                          STCALL   TDEC1
000673: 32,2427           27022                                   CSMPREC                               #  PRECISION INTEGRATION  R0,V0 TO R1,V1
000674: 32,2430           67175                          VLOAD    SXA,2
000675: 32,2431           00001                                   RATT
000676: 32,2432           03755                                   P(T1)
000677: 32,2433           27640                          STOVL    R(T1)/
000678: 32,2434           00007                                   VATT
000679: 32,2435           17672                          STODL    V(T1)/
000680: 32,2436           00015                                   TAT
000681: 32,2437           03716                          STORE    T1
000682: 32,2440           53135                          SLOAD    BZE
000683: 32,2441           03756                                   P(T1)
000684:                                                                                                 # # Page 856
000685: 32,2442           64446                                   INVC109
000686: 32,2443           52135        INVC107           SLOAD    GOTO
000687: 32,2444           31740                                   OCT612
000688: 32,2445           74772                                   RTEALRM                               #  R1,V1 NOT IN PROPER SPHERE OF INFLUENCE
000689: 32,2446           53575        INVC109           VLOAD    UNIT
000690: 32,2447           03640                                   R(T1)/
000691: 32,2450           17740                          STODL    UR1/                                  #  UR1/                           B1
000692: 32,2451           00045                                   36D
000693: 32,2452           27646                          STOVL    R(T1)                                 #  R(T1)                         B29
000694: 32,2453           03672                                   V(T1)/
000695: 32,2454           77656                          UNIT
000696: 32,2455           03746                          STORE    UV1/
000697: 32,2456           72441                          DOT      SL1
000698: 32,2457           03740                                   UR1/
000699: 32,2460           03757                          STORE    CFPA                                  #  CFPA                            B1
000700: 32,2461           45246                          ABS      DSU
000701: 32,2462           31754                                   EPC1RTE
000702: 32,2463           71240                          BMN      DLOAD
000703: 32,2464           64473                                   INVC115                               #  NOT NEAR RECTILINEAR
000704: 32,2465           31657                                   1RTEB2
000705: 32,2466           41525                          PDDL     PUSH
000706: 32,2467           31701                                   ZERORTE
000707: 32,2470           41466                          VDEF     PUSH                                  #  N/ = (0,0,1)
000708: 32,2471           77650                          GOTO
000709: 32,2472           64477                                   INVC120
000710: 32,2473           47375        INVC115           VLOAD    VXV
000711: 32,2474           03740                                   UR1/
000712: 32,2475           03746                                   UV1/
000713: 32,2476           77606                          PUSH                                           #  N/ = UR X UV                    B2
000714: 32,2477           41545        INVC120           DLOAD    PUSH
000715: 32,2500           77244                          BPL      VLOAD
000716: 32,2501           64503                                   INVC125
000717: 32,2502           41476                          VCOMP    PUSH                                  #  CORRECT N/ FOR RETROGRADE TRAJECTORY
000718: 32,2503           77775        INVC125           VLOAD
000719: 32,2504           53435                          VXV      UNIT
000720: 32,2505           03740                                   UR1/
000721: 32,2506           03746                          STORE    UH/                                   #  UH/                             B1
000722: 32,2507           77650                          GOTO
000723: 32,2510           03762                                   SPRTEX
000724:
000725:                                                                                                 # # Page 857
000726:                                                                                                 #  PRECISION TRAJECTORY COMPUTATION SUBROUTINE
000727:
000728:                                                                                                 #  DESCRIPTION
000729:                                                                                                 #    A NUMERICALLY INTEGRATED TRAJECTORY IS GENEATED WHICH FOR THE RETURN TO EARTH PROBLEM SATISFIES THE REENTRY
000730:                                                                                                 #  CONSTRAINTS (RCON AND X(T2)) ACHIEVED BY THE INITIAL CONIC TRAJECTORY AND MEETS THE DVD REQUIREMENT AS CLOSELY
000731:                                                                                                 #  AS POSSIBLE.
000732:
000733:                                                                                                 #  CALLING SEQUENCE
000734:                                                                                                 #    L      CALL
000735:                                                                                                 #    L+1           PREC100
000736:
000737:                                                                                                 #  NORMAL EXIT MODE
000738:                                                                                                 #    AT L+2 OF CALLING SEQUENCE WITH MPAC = 0
000739:
000740:                                                                                                 #  ALARM EXIT MODE
000741:                                                                                                 #    AT L+2 OF CALLING SEQUENCE WITH MPAC =
000742:                                                                                                 #         OCTAL 605        FOR EXCESS ITERATIONS
000743:                                                                                                 #         OCTAL 613        FOR REENTRY ANGLE OUT OF LIMITS
000744:
000745:                                                                                                 #  SUBROUTINES CALLED
000746:                                                                                                 #    INTSTALL
000747:                                                                                                 #    RTENCK2
000748:                                                                                                 #    RTENCK3
000749:                                                                                                 #    TIMERAD
000750:                                                                                                 #    PARAM
000751:                                                                                                 #    V2T100
000752:
000753:                                                                                                 #  ERASABLE INITIALIZATION REQUIRED
000754:                                                                                                 #    PUSHLIST
000755:                                                                                                 #      NONE
000756:                                                                                                 #    MPAC
000757:                                                                                                 #      NONE
000758:                                                                                                 #    OTHER
000759:                                                                                                 #      R(T1)/      INITIAL POSITION VECTOR                                 VECTOR  B28/B27 METERS
000760:                                                                                                 #      V2(T1)/     POST IMPULSE INITIAL VELOCITY VECTOR                    VECTOR  B7/B5   METERS/CS
000761:                                                                                                 #      V(T1)/      INITIAL VELOCITY VECTOR                                 VECTOR  B7/B5   METERS/CS
000762:                                                                                                 #      T1          INITIAL VECTOR TIME                                     DP      B28     CS
000763:                                                                                                 #      T12         INITIAL TO FINAL POSITION TIME                          DP      B28     CS
000764:                                                                                                 #      RCON        CONIC FINAL RADIUS                                      DP      B29/B27 METERS
000765:                                                                                                 #      R(T1)       MAGNITUDE OF INITIAL POSITION VECTOR                    DP      B29/B27 METERS
000766:                                                                                                 #      X(T2)       COTANGENT OF FINAL FLIGHT PATH ANGLE                    DP      B0
000767:                                                                                                 #      X(T1)       COTANGENT OF INITIAL FLIGHT PATH ANGLE                  DP      B5
000768:                                                                                                 #      RTEDVD      DELTA VELOCITY DESIRED                                  DP      B7/B5   METERS/CS
000769:                                                                                                 #      MAMAX1      MAJOR AXIS LIMIT FOR LOWER BOUND ON GAMDV ITERATOR      DP      B30/B28 METERS
000770:                                                                                                 #      MAMAX2      MAJOR AXIS LIMIT FOR UPPER BOUND ON GAMDV ITERATOR      DP      B30/B28 METERS
000771:                                                                                                 #      UR1/        UNIT INITIAL VECTOR                                     VECTOR  B1
000772:                                                                                                 #      UH/         UNIT HORIZONTAL VECTOR                                  VECTOR  B1
000773:                                                                                                 #      BETA1       1+X(T2)**2                                              DP      B1
000774:                                                                                                 #      PHI2        PERIGEE OR APOGEE INDICATOR                             DP      B2      -1 PERIGEE,+1 APOGEE
000775:
000776:                                                                                                 # # Page 858
000777:                                                                                                 #  OUTPUT
000778:                                                                                                 #    V2(T1)/       POST IMPULSE INITIAL VELOCITY VECTOR                    VECTOR  B7      METERS/CS
000779:                                                                                                 #    R(T2)/        FINAL POSITION VECTOR                                   VECTOR  B29     METERS
000780:                                                                                                 #    V(T2)/        FINAL VELOCITY VECTOR                                   VECTOR  B7      METERS/CS
000781:                                                                                                 #    T2            FINAL TIME                                              DP      B28     CENTISECONDS
000782:
000783:                                                                                                 #  DEBRIS
000784:                                                                                                 #    RD            FINAL R DESIRED                                         DP      B29/B27 METERS
000785:                                                                                                 #    R/APRE        R/A                                                     DP      B6
000786:                                                                                                 #    P/RPRE        P/R                                                     DP      B2
000787:                                                                                                 #    RPRE          MAGNITUDE OF R(T2)/                                     DP      B29/B27 METERS
000788:                                                                                                 #    X(T2)PRE      COTANGENT OF GAMMA2                                     DP      B0
000789:                                                                                                 #    DT12          CORRECTION TO FINAL TIME T2                             DP      B28     CENTISECONDS
000790:                                                                                                 #    RCON          FINAL RADIUS                                            DP      B29/B27 METERS
000791:                                                                                                 #    DRCON         DELTA RCON                                              DP      B29/B27 METERS
000792:
000793: 32,2511           71220        PREC100           STQ      DLOAD
000794: 32,2512           03762                                   SPRTEX
000795: 32,2513           31707                                   10RTE
000796: 32,2514           17730                          STODL    NN1A
000797: 32,2515           03636                                   RCON
000798: 32,2516           03664                          STORE    RD
000799: 32,2517           77745        PREC120           DLOAD
000800: 32,2520           31717                                   2RTEB1
000801: 32,2521           17650                          STODL    DT21PR                                #  DT21PR = POSMAX
000802: 32,2522           31705                                   M15RTE
000803: 32,2523           37732                          STCALL   NN2
000804: 32,2524           65077                                   RTENCK3
000805: 32,2525           77624        PREC125           CALL
000806: 32,2526           11524                                   PARAM
000807: 32,2527           77745                          DLOAD
000808: 32,2530           02742                                   P
000809: 32,2531           14033                          STODL    P/RPRE
000810: 32,2532           02744                                   R1A
000811: 32,2533           14035                          STODL    R/APRE
000812: 32,2534           00041                                   R1
000813: 32,2535           14031                          STODL    RPRE
000814: 32,2536           03775                                   COGA
000815: 32,2537           77661                          SL
000816: 32,2540           20206                                   5
000817: 32,2541           03724                          STORE    X(T2)PRE
000818: 32,2542           43276                          DCOMP    DAD
000819: 32,2543           03726                                   X(T2)
000820: 32,2544           45246                          ABS      DSU
000821: 32,2545           31762                                   EPC4RTE
000822: 32,2546           50000                          BOV      BMN
000823: 32,2547           64551                                   PREC130
000824: 32,2550           64732                                   PREC175
000825:
000826:                                                                                                 #  DESIRED REENTRY ANGLE NOT ACHIEVED
000827:                                                                                                 # # Page 859
000828: 32,2551           50145        PREC130           DLOAD    BMN
000829: 32,2552           03732                                   NN2
000830: 32,2553           64557                                   PREC140
000831: 32,2554           52135        PREC132           SLOAD    GOTO                                  #  TOO MANY ITERATIONS
000832: 32,2555           31737                                   OCT605                                #      EXIT WITH ALARM
000833: 32,2556           65047                                   PRECX
000834:
000835:                                                                                                 #  DETERMINE RADIUS AT WHICH THE DESIRED REENTRY ANGLE WILL BE ACHIEVED
000836:
000837: 32,2557           53145        PREC140           DLOAD    BZE
000838: 32,2560           03730                                   NN1A
000839: 32,2561           64612                                   PREC162
000840: 32,2562           42545        PREC150           DLOAD    SL4                                   #  ELLIPTIC CASE
000841: 32,2563           00035                                   R/APRE
000842: 32,2564           52525                          PDDL     SL3                                   #                                     PL02D
000843: 32,2565           00033                                   P/RPRE
000844: 32,2566           41205                          DMP      DMP                                   #  (P/A)BETA1                      B4 PL00D
000845: 32,2567           03754                                   BETA1
000846: 32,2570           57512                          SL2      DCOMP
000847: 32,2571           50015                          DAD      BMN                                   #  1-(P/A)BETA1=BETA2              B2
000848: 32,2572           31657                                   1RTEB2
000849: 32,2573           64576                                   PREC155
000850: 32,2574           52166                          SQRT     GOTO                                  #  BETA2**.5=BETA3                 B1
000851: 32,2575           64600                                   PREC160
000852: 32,2576           77745        PREC155           DLOAD
000853: 32,2577           31701                                   ZERORTE                               #  BETA3=0
000854: 32,2600           43205        PREC160           DMP      DAD
000855: 32,2601           03761                                   PHI2
000856: 32,2602           31661                                   1RTEB3
000857: 32,2603           60325                          PDDL     NORM                                  #  1+(PHI2)(BETA3)                 B3
000858: 32,2604           00035                                   R/APRE
000859: 32,2605           00047                                   X1
000860: 32,2606           77665                          BDDV                                           #                                     PL00D
000861: 32,2607           52057                          SL*      GOTO                                  #  (1+PHI2*BETA3)/(R/A)=BETA4      B1
000862: 32,2610           20175                                   0          -4,1
000863: 32,2611           64620                                   PREC165
000864: 32,2612           60345        PREC162           DLOAD    NORM
000865: 32,2613           00031                                   RPRE
000866: 32,2614           00047                                   X1
000867: 32,2615           53665                          BDDV     SL*                                   #  BETA4=RD/RPRE                   B1
000868: 32,2616           03664                                   RD
000869: 32,2617           20200                                   0          -1,1
000870: 32,2620           45206        PREC165           PUSH     DSU
000871: 32,2621           31655                                   1RTEB1
000872: 32,2622           77676                          DCOMP
000873: 32,2623           03765                          STORE    BETA12
000874: 32,2624           71240                          BMN      DLOAD
000875: 32,2625           64636                                   PREC168
000876: 32,2626           03724                                   X(T2)PRE
000877: 32,2627           71240                          BMN      DLOAD
000878:                                                                                                 # # Page 860
000879: 32,2630           64634                                   PREC167
000880: 32,2631           03765                                   BETA12
000881: 32,2632           77676                          DCOMP
000882: 32,2633           03765                          STORE    BETA12
000883: 32,2634           77745        PREC167           DLOAD
000884: 32,2635           03765                                   BETA12
000885: 32,2636           45246        PREC168           ABS      DSU
000886: 32,2637           31766                                   EPC6RTE
000887: 32,2640           71240                          BMN      DLOAD
000888: 32,2641           64732                                   PREC175
000889: 32,2642           72405                          DMP      SL1
000890: 32,2643           00031                                   RPRE
000891: 32,2644           77606                          PUSH                                           #  RF = NEW RADIUS
000892: 32,2645           43345        PREC170           DLOAD    DAD
000893: 32,2646           03732                                   NN2
000894: 32,2647           31677                                   1RTEB28
000895: 32,2650           03732                          STORE    NN2
000896: 32,2651           43175                          VLOAD    SET
000897: 32,2652           03656                                   R(T2)/
000898: 32,2653           03466                                   RVSW
000899: 32,2654           26657                          STOVL    RVEC
000900: 32,2655           03710                                   V(T2)/
000901: 32,2656           77765                          SIGN
000902: 32,2657           03765                                   BETA12
000903: 32,2660           16746                          STODL    VVEC
000904: 32,2661           31655                                   1RTEB1
000905: 32,2662           57565                          SIGN     DCOMP
000906: 32,2663           03765                                   BETA12
000907: 32,2664           71354                          LXA,2    DLOAD
000908: 32,2665           00154                                   MPAC
000909: 32,2666           67140                          LXC,1    SXA,2
000910: 32,2667           03734                                   CONICX1
000911: 32,2670           02756                                   SGNRDOT
000912: 32,2671           36760                          STCALL   RDESIRED                              #  COMPUTE DT12 (CORRECTION TO TIME OF
000913: 32,2672           25552                                   TIMERAD                               #        NEW RADIUS)
000914: 32,2673           75345                          DLOAD    SIGN
000915: 32,2674           00037                                   T
000916: 32,2675           03765                                   BETA12
000917: 32,2676           60325                          PDDL     NORM                                  #  DT21=(PHI4)DT21                    PL02D
000918: 32,2677           03650                                   DT21PR
000919: 32,2700           00047                                   X1
000920: 32,2701           53665                          BDDV     SL*
000921: 32,2702           00001                                   00D
000922: 32,2703           20176                                   0          -3,1
000923: 32,2704           50006                          PUSH     BMN                                   #  BETA13=(DT21)/(DT21PR)          B3 PL04D
000924: 32,2705           64712                                   PREC172
000925: 32,2706           65345                          DLOAD    PDDL                                  #  BETA14=1                        B0 PL04D
000926: 32,2707           31717                                   2RTEB1
000927: 32,2710           77650                          GOTO
000928: 32,2711           64714                                   PREC173
000929:                                                                                                 # # Page 861
000930: 32,2712           65345        PREC172           DLOAD    PDDL                                  #  BETA14=.6                       B0 PL04D
000931: 32,2713           31711                                   M.6RTE
000932: 32,2714           45271        PREC173           DDV      DSU
000933: 32,2715           00003                                   02D
000934: 32,2716           31661                                   1RTEB3
000935: 32,2717           71240                          BMN      DLOAD
000936: 32,2720           64724                                   PREC174
000937: 32,2721           77605                          DMP
000938: 32,2722           03650                                   DT21PR
000939: 32,2723           00001                          STORE    00D                                   #  DT21=(BETA14)DT21PR             B28
000940: 32,2724           41545        PREC174           DLOAD    PUSH
000941: 32,2725           00001                                   00D
000942: 32,2726           37650                          STCALL   DT21PR
000943: 32,2727           65061                                   RTENCK2
000944: 32,2730           77650                          GOTO
000945: 32,2731           64525                                   PREC125
000946: 32,2732           45345        PREC175           DLOAD    DSU
000947: 32,2733           00031                                   RPRE
000948: 32,2734           03664                                   RD
000949: 32,2735           51406                          PUSH     ABS                                   #  RPRE-RD = RERR
000950: 32,2736           50025                          DSU      BMN
000951: 32,2737           31770                                   EPC7RTE
000952: 32,2740           65033                                   PREC220
000953:
000954:                                                                                                 #  DESIRED RADIUS HAS NOT BEEN ACHIEVED
000955:
000956: 32,2741           53145                          DLOAD    BZE
000957: 32,2742           03730                                   NN1A
000958: 32,2743           64554                                   PREC132                               #  TOO MANY ITERATIONS
000959: 32,2744           53025                          DSU      BZE
000960: 32,2745           31707                                   10RTE
000961: 32,2746           65001                                   PREC207
000962: 32,2747           45345        PREC205           DLOAD    DSU                                   #  NOT FIRST PASS OF ITERATION
000963: 32,2750           03670                                   RPRE,
000964: 32,2751           00031                                   RPRE                                  #  RPRE,-RPRE                 B29/B27
000965: 32,2752           55301                          NORM     BDDV
000966: 32,2753           00050                                   X2
000967: 32,2754           03666                                   DRCON
000968: 32,2755           41457                          SL*      PUSH                                  #  DRCON/(RPRE,-RPRE)=S            B2
000969: 32,2756           57600                                   0          -2,2
000970: 32,2757           40015                          DAD      BOV                                   #  S GR +4 OR LS -4
000971: 32,2760           31655                                   1RTEB1
000972: 32,2761           64766                                   PREC205M
000973: 32,2762           45246                          ABS      DSU
000974: 32,2763           31655                                   1RTEB1
000975: 32,2764           77640                          BMN
000976: 32,2765           64771                                   PREC206
000977: 32,2766           57545        PREC205M          DLOAD    DCOMP                                 #  S GR 0 OR LS -4
000978: 32,2767           31717                                   2RTEB1
000979: 32,2770           77725                          PDDL                                           #  S=-4                            B2
000980:                                                                                                 # # Page 862
000981: 32,2771           41345        PREC206           DLOAD    DMP
000982: 32,2772           77712                          SL2
000983: 32,2773           03666                          STORE    DRCON                                 #  DRCON=S(RERR)                  B29
000984: 32,2774           77615                          DAD
000985: 32,2775           03636                                   RCON
000986: 32,2776           03636                          STORE    RCON                                  #  RCON+DRCON=RCON
000987: 32,2777           77650                          GOTO
000988: 32,3000           65020                                   PREC210
000989: 32,3001           63545        PREC207           DLOAD    DSQ                                   #  FIRST PASS OF ITERATION
000990: 32,3002           03664                                   RD
000991: 32,3003           70501                          NORM     SR1
000992: 32,3004           00047                                   X1
000993: 32,3005           60325                          PDDL     NORM
000994: 32,3006           00031                                   RPRE
000995: 32,3007           00050                                   X2
000996: 32,3010           55260                          XSU,1    BDDV
000997: 32,3011           00047                                   X2
000998: 32,3012           77657                          SR*
000999: 32,3013           20600                                   0          -1,1
001000: 32,3014           03636                          STORE    RCON                                  #  RD**2/RPRE=RCON
001001: 32,3015           77625                          DSU
001002: 32,3016           03664                                   RD
001003: 32,3017           03666                          STORE    DRCON                                 #  RCON-RD=DRCON
001004: 32,3020           77745        PREC210           DLOAD                                          #  PREPARE FOR NEXT ITERATION
001005: 32,3021           00031                                   RPRE
001006: 32,3022           17670                          STODL    RPRE,
001007: 32,3023           03730                                   NN1A
001008: 32,3024           77625                          DSU
001009: 32,3025           31677                                   1RTEB28
001010: 32,3026           37730                          STCALL   NN1A
001011: 32,3027           65132                                   V2T100
001012: 32,3030           52030                          BHIZ     GOTO
001013: 32,3031           64517                                   PREC120
001014: 32,3032           65047                                   PRECX
001015:
001016:                                                                                                 #  DESIRED RADIUS ACHIEVED
001017:
001018: 32,3033           45345        PREC220           DLOAD    DSU
001019: 32,3034           03726                                   X(T2)
001020: 32,3035           03724                                   X(T2)PRE
001021: 32,3036           45246                          ABS      DSU
001022: 32,3037           31772                                   EPC8RTE
001023: 32,3040           67240                          BMN      SLOAD
001024: 32,3041           65045                                   PREC225
001025: 32,3042           31741                                   OCT613
001026: 32,3043           77650                          GOTO
001027: 32,3044           65047                                   PRECX                                 #  IF REENTRY ANGLE OUT OF LIMITS
001028:
001029:                                                                                                 #  DESIRED FINAL ANGLE HAS BEEN REACHED
001030:
001031:                                                                                                 # # Page 863
001032: 32,3045           77745        PREC225           DLOAD
001033: 32,3046           31701                                   ZERORTE
001034: 32,3047           77650        PRECX             GOTO
001035: 32,3050           03762                                   SPRTEX
001036:
001037:                                                                                                 # # Page 864
001038:                                                                                                 #  INTEGRATION CALLING SUBROUTINE
001039:
001040:                                                                                                 #  DESCRIPTION
001041:                                                                                                 #    PERFORMS CONIC AND PRECISION INTEGRATIONS USING SUBROUTINE INTEGRVS. THERE ARE THREE ENTRANCES (RTENCK1,
001042:                                                                                                 #  RTENCK2 AND RTENCK3) FOR DIFFERENT SOURCES OF INPUT AND DIFFERENT OPTIONS. THERE IS A COMMON SET OF OUTPUT
001043:                                                                                                 #  WHICH INCLUDES SET UP OF INPUT FOR THE PARAM SUBROUTINE
001044:
001045:                                                                                                 #  RTENCK1 (CONIC INTEGRATION)
001046:
001047:                                                                                                 #    CALLING SEQUENCE
001048:                                                                                                 #      L    CALL
001049:                                                                                                 #      L+1         RTENCK1
001050:
001051:                                                                                                 #    ERASABLE INITIALIZATION REQUIRED
001052:                                                                                                 #      SAME AS FOR THE RTENCK3 ENTRANCE
001053:
001054:                                                                                                 #  RTENCK2 (PRECISION INTEGRATION)
001055:
001056:                                                                                                 #    CALLING SEQUENCE
001057:                                                                                                 #      L    CALL
001058:                                                                                                 #      L+1         RTENCK2
001059:
001060:                                                                                                 #    ERASABLE INITIALIZATION REQUIRED
001061:                                                                                                 #      PUSHLIST
001062:                                                                                                 #        PUSHLOC-2 INTEGRATION TIME DT12 (CORRECTION TO T2)                DP      B28     CS
001063:                                                                                                 #      OTHER
001064:                                                                                                 #        R(T2)/    FINAL POSITION VECTOR                                   VECTOR .B29     METERS
001065:                                                                                                 #        V(T2)/    FINAL VELOCITY VECTOR                                   VECTOR  B7      METERS/CS
001066:                                                                                                 #        T2        FINAL TIME                                              DP      B28     CS
001067:
001068:                                                                                                 #  RTENCK3 (PRECISION INTEGRATION)
001069:
001070:                                                                                                 #    CALLING SEQUENCE
001071:                                                                                                 #      L    CALL
001072:                                                                                                 #      L+1         RTENCK3
001073:
001074:                                                                                                 #    ERASABLE INITIALIZATION REQUIRED
001075:                                                                                                 #        R(T1)/    INITIAL POSITION VECTOR                                 VECTOR  B29     METERS
001076:                                                                                                 #        V2(T1)/   POST IMPULSE INITIAL VELOCITY VECTOR                    VECTOR  B7      M/CS
001077:                                                                                                 #        T1        INITIAL VECTOR TIME                                     DP      B28     CS
001078:                                                                                                 #        T2        FINAL TIME                                              DP      B28     CS
001079:
001080:                                                                                                 #  EXIT MODE
001081:                                                                                                 #    AT L+2 OF CALLING SEQUENCE
001082:                                                                                                 #  SUBROUTINES CALLED
001083:                                                                                                 #    INTSTALL
001084:                                                                                                 #    INTEGRVS
001085:
001086:                                                                                                 #  OUTPUT
001087:                                                                                                 #    PUSHLIST
001088:                                                                                                 # # Page 865
001089:                                                                                                 #      PUSHLOC-6   FINAL POSITION VECTOR R(T2)/                            VECTOR  B29     METERS
001090:                                                                                                 #      X1          CONICS MUTABLE ENTRY FOR EARTH (-2)                     SP      B14
001091:                                                                                                 #    MPAC
001092:                                                                                                 #                  FINAL VELOCITY VECTOR V(T2)/                            VECTOR  B7      M/CS
001093:                                                                                                 #    OTHER
001094:                                                                                                 #         R(T2)/    AS IN PUSHLIST
001095:                                                                                                 #         V(T2)/    AS IN MPAC
001096:                                                                                                 #         T2        FINAL TIME                                              DP      B28     CS
001097:
001098:
001099: 32,3051           45020        RTENCK1           STQ      CALL
001100: 32,3052           03733                                   RTENCKEX
001101: 32,3053           27371                                   INTSTALL
001102: 32,3054           43175                          VLOAD    SET
001103: 32,3055           03640                                   R(T1)/
001104: 32,3056           01473                                   INTYPFLG
001105: 32,3057           77650                          GOTO
001106: 32,3060           65105                                   RTENCK3B
001107:
001108:
001109: 32,3061           45020        RTENCK2           STQ      CALL
001110: 32,3062           03733                                   RTENCKEX
001111: 32,3063           27371                                   INTSTALL
001112: 32,3064           77214                          CLEAR    VLOAD
001113: 32,3065           01673                                   INTYPFLG
001114: 32,3066           03656                                   R(T2)/
001115: 32,3067           25535                          STOVL    RCV
001116: 32,3070           03710                                   V(T2)/
001117: 32,3071           15543                          STODL    VCV
001118: 32,3072           03736                                   T2
001119: 32,3073           01517                          STORE    TET
001120: 32,3074           77615                          DAD
001121: 32,3075           77650                          GOTO
001122: 32,3076           65113                                   RTENCK3D
001123:
001124:
001125: 32,3077           45020        RTENCK3           STQ      CALL
001126: 32,3100           03733                                   RTENCKEX
001127: 32,3101           27371                                   INTSTALL
001128: 32,3102           43175        RTENCK3A          VLOAD    CLEAR
001129: 32,3103           03640                                   R(T1)/
001130: 32,3104           01673                                   INTYPFLG
001131: 32,3105           25535        RTENCK3B          STOVL    RCV
001132: 32,3106           03700                                   V2(T1)/
001133: 32,3107           15543                          STODL    VCV
001134: 32,3110           03716                                   T1
001135: 32,3111           15517                          STODL    TET
001136: 32,3112           03736                                   T2
001137: 32,3113           00041        RTENCK3D          STORE    TDEC1
001138: 32,3114           45014                          CLEAR    CALL
001139:                                                                                                 # # Page 866
001140: 32,3115           00263                                   MOONFLAG
001141: 32,3116           27066                                   INTEGRVS
001142: 32,3117           77775                          VLOAD
001143: 32,3120           00001                                   RATT
001144: 32,3121           03656                          STORE    R(T2)/
001145: 32,3122           70125                          PDDL     LXC,1
001146: 32,3123           00015                                   TAT
001147: 32,3124           03734                                   CONICX1
001148: 32,3125           27736                          STOVL    T2
001149: 32,3126           00007                                   VATT
001150: 32,3127           03710                          STORE    V(T2)/
001151: 32,3130           77650                          GOTO
001152: 32,3131           03733                                   RTENCKEX
001153:
001154:                                                                                                 # # Page 867
001155:                                                                                                 #  V2(T1) COMPUTATION SUBROUTINE
001156:
001157:                                                                                                 #  DESCRIPTION
001158:                                                                                                 #  A POST IMPULSE VELOCITY VECTOR (V2(T1)) IS COMPUTED WHICH EITHER
001159:                                                                                                 #  (1) MEETS THE INPUT VELOCITY CHANGE DESIRED (RTEDVD) IN A MINIMUM TIME  OR
001160:                                                                                                 #  (2) IF A VELOCITY CHANGE ISN:T SPECIFIED (RTEDVD = 0), A V2(T1) IS COMPUTED WHICH MINIMIZES THE IMPULSE (DV)
001161:                                                                                                 #  AND CONSEQUENTLY FUEL.
001162:
001163:                                                                                                 #  CALLING SEQUENCE
001164:                                                                                                 #    L      CALL
001165:                                                                                                 #    L+1           V2T100
001166:
001167:                                                                                                 #  NORMAL EXIT MODE
001168:                                                                                                 #    AT L+2 OF CALLING SEQUENCE WITH MPAC = 0
001169:
001170:                                                                                                 #  ALARM EXIT MODE
001171:                                                                                                 #    AT L+2 OF CALLING SEQUENCE WITH MPAC = OCTAL 605 FOR EXCESS ITERATIONS
001172:
001173:                                                                                                 #  SUBROUTINES CALLED
001174:                                                                                                 #    GAMDV10
001175:                                                                                                 #    XT1LIM
001176:                                                                                                 #    DVCALC
001177:
001178:                                                                                                 #  ERASABLE INITIALIZATION REQUIRED
001179:                                                                                                 #    PUSHLIST
001180:                                                                                                 #      NONE
001181:                                                                                                 #    MPAC
001182:                                                                                                 #      NONE
001183:                                                                                                 #    OTHER
001184:                                                                                                 #      R(T1)       MAGNITUDE OF INITIAL POSITION VECTOR                     DP      B29/B27 METERS
001185:                                                                                                 #      RCON        MAGNITUDE OF FINAL POSITION VECTOR                       DP      B29/B27 METERS
001186:                                                                                                 #      V(T1)/      INITIAL VELOCITY VECTOR                                  VECTOR  B7/B5   METERS/CS
001187:                                                                                                 #      RTEDVD      DELTA VELOCITY DESIRED                                   DP      B7/B5   METERS/CS
001188:                                                                                                 #      UR1/        UNIT INITIAL VECTOR                                      VECTOR  B1
001189:                                                                                                 #      UH/         UNIT HORIZONTAL VECTOR                                   VECTOR  B1
001190:                                                                                                 #      X(T2)       COTANGENT OF FINAL FLIGHT PATH ANGLE                     DP      B0
001191:                                                                                                 #      X(T1)       COTANGENT OF INITIAL FLIGHT PATH ANGLE (INPUT FOR PREC)  DP      B5
001192:                                                                                                 #      CFPA        COSINE OF INITIAL FLIGHT PATH ANGLE                      DP      B1
001193:                                                                                                 #      MAMAX1      MAJOR AXIS LIMIT FOR LOWER BOUND ON GAMDV ITERATOR       DP      B30/B28 METERS
001194:                                                                                                 #      MAMAX2      MAJOR AXIS LIMIT FOR UPPER BOUND ON GAMDV ITERATOR       DP      B30/B28 METERS
001195:                                                                                                 #      PHI2        REENTRY NEAR PERIGEE OR APOGEE INDICATE (RTE ONLY)       DP      B2      -1 PERIGEE,+1 APOGEE
001196:                                                                                                 #      N1          CONIC OR PRECISION ITERATION COUNTER                     DP      B28     NEGATIVE CONIC,PLUS PREC
001197:
001198:                                                                                                 #  OUTPUT
001199:                                                                                                 #      V2(T1)/     POST IMPULSE INITIAL VELOCITY VECTOR                     VECTOR  B7/B5   METERS/CS
001200:                                                                                                 #      DV          INITIAL VELOCITY CHANGE                                  DP      B7/B5   METERS/CS
001201:                                                                                                 #      X(T1)       COTANGENT OF INITIAL FLIGHT PATH ANGLE (POST IMPULSE)    DP      B5
001202:                                                                                                 #      PCON        SEMI-LATUS RECTUM                                        DP      B28/B26 METERS
001203:                                                                                                 #      BETA1       1+X(T2)**2                                               DP      B1
001204:
001205:                                                                                                 # # Page 868
001206:                                                                                                 #  DEBRIS
001207:                                                                                                 #     PUSHLIST
001208:                                                                                                 #       00D        X(T1),,=PREVIOUS PRECISION X(T1)                         DP      B5
001209:                                                                                                 #       02D        THETA1=BETA5*LAMBDA-1                                    TP      B17
001210:                                                                                                 #       05D        THETA2=2*R(T1)*(LAMBDA-1)                                TP      B38/B36
001211:                                                                                                 #       08D        THETA3=MU**.5/R(T1)                                      DP      B-4/B-5
001212:                                                                                                 #       10D        X(T1)MIN=LOWER BOUND ON X(T1) IN GAMDV ITERATOR          DP      B5
001213:                                                                                                 #       12D        DX(T1)MAX=MAXIMUM DELTA X(T1)                            DP      B5
001214:                                                                                                 #       14D        X(T1)MAX=UPPER BOUND ON X(T1) IN GAMDV ITERATOR          DP      B5
001215:                                                                                                 #       16D        DX(T1)=ITERATOR INCREMENT                                DP      B5
001216:                                                                                                 #       31D        GAMDV10 SUBROUTINE RETURN ADDRESS
001217:                                                                                                 #       32D        DVCALC SUBROUTINE RETURN ADDRESS
001218:                                                                                                 #       33D        V2T100 SUBROUTINE RETURN ADDRESS
001219:
001220: 32,3132           77620        V2T100            STQ
001221: 32,3133           00041                                   33D
001222: 32,3134           43001                          SETPD    CLEAR
001223: 32,3135           00001                                   0                                     #                                     PL00D
001224: 32,3136           00272                                   F2RTE
001225: 32,3137           60345                          DLOAD    NORM
001226: 32,3140           03636                                   RCON
001227: 32,3141           00047                                   X1
001228: 32,3142           60325                          PDDL     NORM
001229: 32,3143           03646                                   R(T1)
001230: 32,3144           00051                                   S1
001231: 32,3145           00013                          STORE    10D
001232: 32,3146           56342                          SR1      DDV                                   #  R1/RCON = LAMBDA                B1
001233: 32,3147           65260                          XSU,1    PDDL                                  #                                     PL02D
001234: 32,3150           00050                                   S1
001235: 32,3151           03726                                   X(T2)
001236: 32,3152           77716                          DSQ
001237: 32,3153           43342                          SR1      DAD
001238: 32,3154           31655                                   1RTEB1
001239: 32,3155           03754                          STORE    BETA1                                 #  1+X(T2)**2 = BETA1              B1
001240: 32,3156           77605                          DMP
001241: 32,3157           00001                                   00D
001242: 32,3160           00035                          STORE    28D                                   #  BETAI*LAMBDA = BETA5
001243: 32,3161           53605                          DMP      SL*
001244: 32,3162           00001                                   00D
001245: 32,3163           20172                                   0          -7,1
001246: 32,3164           45257                          SL*      DSU
001247: 32,3165           20172                                   0          -7,1
001248: 32,3166           31673                                   1RTEB17
001249: 32,3167           65234                          RTB      PDDL                                  #  BETA5*LAMBDA-1 = THETA1        B17 PL05D
001250: 32,3170           45562                                   TPMODE
001251: 32,3171           31655                                   1RTEB1
001252: 32,3172           57457                          SR*      DCOMP
001253: 32,3173           20601                                   0,1
001254: 32,3174           41215                          DAD      DMP
001255: 32,3175           00001                                   00D
001256:                                                                                                 # # Page 869
001257: 32,3176           03646                                   R(T1)
001258: 32,3177           47057                          SL*      RTB
001259: 32,3200           20172                                   0          -7D,1
001260: 32,3201           45562                                   TPMODE
001261: 32,3202           77725                          PDDL                                           #  2*R(T1)*(LAMBDA-1)=THETA2  B38/B36 PL08D
001262: 32,3203           33770                                   RTMURTE
001263: 32,3204           70501                          NORM     SR1
001264: 32,3205           00050                                   X2
001265: 32,3206           56264                          XSU,2    DDV
001266: 32,3207           00050                                   S1
001267: 32,3210           00013                                   10D
001268: 32,3211           65257                          SR*      PDDL                                  #  MU**.5/R(T1)=THETA3        B-4/B-5 PL10D
001269: 32,3212           57170                                   6,2
001270: 32,3213           03652                                   MAMAX1
001271: 32,3214           41406                          PUSH     PUSH                                  #  MAMAX1=MA
001272: 32,3215           77624                          CALL
001273: 32,3216           65747                                   XT1LIM
001274: 32,3217           41476                          DCOMP    PUSH                                  #  X(T1)MIN                        B5 PL12D
001275: 32,3220           40476                          DCOMP    SR4
001276: 32,3221           41525                          PDDL     PUSH                                  #  DX(T1)MAX                       B5 PL14D
001277: 32,3222           03654                                   MAMAX2
001278: 32,3223           45006                          PUSH     CALL
001279: 32,3224           65747                                   XT1LIM
001280: 32,3225           50125                          PDDL     BMN                                   #  X(T1)MAX                        B5 PL16D
001281: 32,3226           03730                                   NN1A
001282: 32,3227           65232                                   V2T102
001283: 32,3230           77650                          GOTO
001284: 32,3231           65244                                   V2T110
001285:
001286:                                                                                                 #  PROCEED HERE IF NOT PRECISION COMPUTATION
001287:
001288: 32,3232           77745        V2T102            DLOAD
001289: 32,3233           03632                                   RTEDVD
001290: 32,3234           52054                          BZE      GOTO
001291: 32,3235           65237                                   V2T105
001292: 32,3236           65340                                   V2T140
001293: 32,3237           50145        V2T105            DLOAD    BMN
001294: 32,3240           03757                                   CFPA
001295: 32,3241           65340                                   V2T140
001296: 32,3242           77650                          GOTO
001297: 32,3243           65346                                   V2T145
001298:
001299:                                                                                                 #  DURING A PRECISION TRAJECTORY ITERATION CONSTRAIN THE INDEPENDENT
001300:                                                                                                 #  VARIABLE TO INSURE THAT ALL CONICS PASS THROUGH RCON ON THE SAME PASS
001301:                                                                                                 #  THROUGH X(T2)
001302:
001303: 32,3244           47145        V2T110            DLOAD    RTB
001304: 32,3245           31673                                   1RTEB17
001305: 32,3246           45562                                   TPMODE
001306: 32,3247           65276                          DCOMP    PDDL                                  #  -1                             B17 PL19D
001307:                                                                                                 # # Page 870
001308: 32,3250           31717                                   2RTEB1
001309: 32,3251           45257                          SR*      DSU
001310: 32,3252           20601                                   0,1
001311: 32,3253           00001                                   00D
001312: 32,3254           53605                          DMP      SL*
001313: 32,3255           00035                                   28D
001314: 32,3256           20172                                   0          -7,1
001315: 32,3257           76257                          SL*      TAD
001316: 32,3260           20172                                   0          -7,1
001317: 32,3261           65234                          RTB      PDDL                                  #  BETA5(2-LAMBDA)-1=BETA6        B17 PL19D
001318: 32,3262           45562                                   TPMODE
001319: 32,3263           03722                                   X(T1)
001320: 32,3264           00001                          STORE    00D                                   #  X(T1),,                         B5
001321: 32,3265           77751                          TLOAD                                          #                                     PL16D
001322: 32,3266           53040                          BMN      BZE
001323: 32,3267           65274                                   V2T115
001324: 32,3270           65274                                   V2T115
001325: 32,3271           52061                          SL       GOTO
001326: 32,3272           20210                                   7
001327: 32,3273           65305                                   V2T120
001328: 32,3274           50145        V2T115            DLOAD    BMN
001329: 32,3275           03761                                   PHI2
001330: 32,3276           65316                                   V2T125
001331: 32,3277           77676                          DCOMP
001332: 32,3300           17761                          STODL    PHI2
001333: 32,3301           31721                                   M9RTEB28
001334: 32,3302           03730                          STORE    NN1A
001335: 32,3303           77650                          GOTO
001336: 32,3304           65316                                   V2T125
001337: 32,3305           47166        V2T120            SQRT     RTB
001338: 32,3306           45713                                   DPMODE
001339: 32,3307           50125                          PDDL     BMN                                   #  BETA8**.5=X(T1)LIM              B5 PL18D
001340: 32,3310           03761                                   PHI2
001341: 32,3311           65324                                   V2T130
001342: 32,3312           45545                          DLOAD    STADR                                 #                                     PL16D
001343: 32,3313           77760                          STORE    14D                                   #  X(T1)LIM = X(T1)MAX
001344: 32,3314           77676                          DCOMP
001345: 32,3315           00013                          STORE    10D                                   #  -X(T1)LIM = X(T1)MIN
001346: 32,3316           53145        V2T125            DLOAD    BZE
001347: 32,3317           03722                                   X(T1)
001348: 32,3320           65340                                   V2T140
001349: 32,3321           52040                          BMN      GOTO
001350: 32,3322           65340                                   V2T140
001351: 32,3323           65346                                   V2T145
001352: 32,3324           53145        V2T130            DLOAD    BZE
001353: 32,3325           03722                                   X(T1)
001354: 32,3326           65335                                   V2T135
001355: 32,3327           71240                          BMN      DLOAD                                 #                                     PL16D
001356: 32,3330           65335                                   V2T135
001357: 32,3331           77626                          STADR
001358:                                                                                                 # # Page 871
001359: 32,3332           77764                          STORE    10D                                   #  X(T1)LIM = X(T1)MIN
001360: 32,3333           77650                          GOTO
001361: 32,3334           65346                                   V2T145
001362: 32,3335           57545        V2T135            DLOAD    DCOMP                                 #                                     PL16D
001363: 32,3336           77626                          STADR
001364: 32,3337           77760                          STORE    14D                                   #  -X(T1)LIM = X(T1)MAX
001365: 32,3340           77745        V2T140            DLOAD
001366: 32,3341           00013                                   10D
001367: 32,3342           17722                          STODL    X(T1)                                 #  X(T1)MIN = X(T1)
001368: 32,3343           00015                                   12D
001369: 32,3344           52006                          PUSH     GOTO                                  #  DX(T1)MAX = DX(T1)                 PL18D
001370: 32,3345           65353                                   V2T150
001371: 32,3346           77745        V2T145            DLOAD
001372: 32,3347           00017                                   14D
001373: 32,3350           17722                          STODL    X(T1)                                 #  X(T1)MAX = X(T1)
001374: 32,3351           00015                                   12D
001375: 32,3352           41476                          DCOMP    PUSH                                  #  -DX(T1)MAX = DX(T1)                PL18D
001376: 32,3353           77624        V2T150            CALL                                           #  GOTO X(T1)-DV ITERATOR
001377: 32,3354           65474                                   GAMDV10
001378: 32,3355           53145                          DLOAD    BZE                                   #  EXIT IF MINIMUM FUEL MODE
001379: 32,3356           03632                                   RTEDVD
001380: 32,3357           65472                                   V2T1X
001381:
001382:                                                                                                 #  CONTINUE IF TIME CRITICAL MODE
001383:
001384: 32,3360           50025                          DSU      BMN
001385: 32,3361           03706                                   DV
001386: 32,3362           65365                                   V2T155
001387: 32,3363           77650                          GOTO
001388: 32,3364           65420                                   V2T175
001389: 32,3365           50145        V2T155            DLOAD    BMN
001390: 32,3366           03730                                   NN1A
001391: 32,3367           65372                                   V2T160
001392: 32,3370           77650                          GOTO
001393: 32,3371           65433                                   V2T185
001394:
001395:                                                                                                 #  CONIC TRAJECTORY COMPUTATION
001396:
001397: 32,3372           53145        V2T160            DLOAD    BZE
001398: 32,3373           03722                                   X(T1)
001399: 32,3374           65400                                   V2T165
001400: 32,3375           52040                          BMN      GOTO
001401: 32,3376           65400                                   V2T165
001402: 32,3377           65470                                   V2T300
001403: 32,3400           53145        V2T165            DLOAD    BZE
001404: 32,3401           03757                                   CFPA
001405: 32,3402           65470                                   V2T300
001406: 32,3403           71240                          BMN      DLOAD
001407: 32,3404           65470                                   V2T300
001408: 32,3405           00017                                   14D
001409:                                                                                                 # # Page 872
001410: 32,3406           17722                          STODL    X(T1)                                 #  X(T1)MAX=X(T1)
001411: 32,3407           00015                                   12D
001412: 32,3410           77676                          DCOMP
001413: 32,3411           34021                          STCALL   16D                                   #  -DX(T1)MAX=DX(T1)
001414: 32,3412           65474                                   GAMDV10
001415: 32,3413           45345                          DLOAD    DSU
001416: 32,3414           03632                                   RTEDVD
001417: 32,3415           03706                                   DV
001418: 32,3416           77640                          BMN
001419: 32,3417           65470                                   V2T300
001420: 32,3420           71214        V2T175            SET      DLOAD
001421: 32,3421           00072                                   F2RTE
001422: 32,3422           03722                                   X(T1)
001423: 32,3423           14017                          STODL    14D                                   #  X(T1)=X(T1)MAX
001424: 32,3424           00015                                   12D
001425: 32,3425           77676                          DCOMP
001426: 32,3426           34021                          STCALL   16D                                   #  -DX(T1)MAX=DX(T1)
001427: 32,3427           65474                                   GAMDV10
001428: 32,3430           50145                          DLOAD    BMN
001429: 32,3431           03730                                   NN1A
001430: 32,3432           65470                                   V2T300
001431:
001432:                                                                                                 #  PREVENT A LARGE CHANGE IN INDEPENDENT VARIABLE DURING AN ITERATION FOR A
001433:                                                                                                 #  PRECISION TRAJECTORY
001434:
001435: 32,3433           45345        V2T185            DLOAD    DSU
001436: 32,3434           03722                                   X(T1)
001437: 32,3435           00001                                   00D
001438: 32,3436           65246                          ABS      PDDL                                  #  /X(T1)-X(T1),,/ = BETA7
001439: 32,3437           00015                                   12D
001440: 32,3440           44352                          SL1      BDSU
001441: 32,3441           71240                          BMN      DLOAD
001442: 32,3442           65470                                   V2T300
001443: 32,3443           00001                                   00D                                   #  CONTINUE IF BETA7 LARGER THAN 2DX(T1)MAX
001444: 32,3444           03722                          STORE    X(T1)                                 #  X(T1),, = X(T1)
001445: 32,3445           50025                          DSU      BMN
001446: 32,3446           00017                                   14D
001447: 32,3447           65455                                   V2T195
001448: 32,3450           77745                          DLOAD
001449: 32,3451           00017                                   14D
001450: 32,3452           03722                          STORE    X(T1)                                 #  X(T1)MAX = X(T1)
001451: 32,3453           77650                          GOTO
001452: 32,3454           65466                                   V2T205
001453: 32,3455           45345        V2T195            DLOAD    DSU
001454: 32,3456           03722                                   X(T1)
001455: 32,3457           00013                                   10D
001456: 32,3460           52040                          BMN      GOTO
001457: 32,3461           65463                                   V2T200
001458: 32,3462           65466                                   V2T205
001459: 32,3463           77745        V2T200            DLOAD
001460:                                                                                                 # # Page 873
001461: 32,3464           00013                                   10D
001462: 32,3465           03722                          STORE    X(T1)                                 #  X(T1)MIN = X(T1)
001463: 32,3466           77624        V2T205            CALL
001464: 32,3467           65673                                   DVCALC
001465: 32,3470           77745        V2T300            DLOAD
001466: 32,3471           31701                                   ZERORTE
001467: 32,3472           77650        V2T1X             GOTO
001468: 32,3473           00041                                   33D
001469:
001470:                                                                                                 # # Page 874
001471:                                                                                                 #  X(T1)-DV ITERATOR SUBROUTINE
001472:
001473:                                                                                                 #  DESCRIPTION
001474:                                                                                                 #      COMPUTES A POST IMPULSE VELOCITY VECTOR (V2(T1)) WHICH REQUIRES A MINIMUM DV.
001475:                                                                                                 #  CALLING SEQUENCE
001476:                                                                                                 #    L      CALL
001477:                                                                                                 #    L+1           GAMDV10
001478:
001479:                                                                                                 #  NORMAL EXIT MODE
001480:                                                                                                 #    AT L+2 OF CALLING SEQUENCE
001481:
001482:                                                                                                 #  ALARM EXIT MODE
001483:                                                                                                 #    AT V2T1X WITH MPAC = OCTAL 605 FOR EXCESS ITERATIONS
001484:
001485:                                                                                                 #  SUBROUTINES CALLED
001486:                                                                                                 #    DVCALC
001487:
001488:                                                                                                 #  ERASABLE INITIALIZATION REQUIRED
001489:                                                                                                 #    PUSHLIST
001490:                                                                                                 #      02D         THETA1=BETA5*LAMBDA-1                                   TP      B17
001491:                                                                                                 #      05D         THETA2=2*R(T1)*(LAMBDA-1)                               TP      B38/B36
001492:                                                                                                 #      08D         THETA3=MU**.5/R(T1)                                     DP      B-4/B-5
001493:                                                                                                 #      10D         X(T1)MIN=LOWER BOUND ON INDEPENDENT VARIABLE X(T1)      DP      B5
001494:                                                                                                 #      12D         DX(T1)MAX=MAXIMUM DX(T1)                                DP      B5
001495:                                                                                                 #      14D         X(T1)MAX=UPPER BOUND ON INDEPENDENT VARIABLE X(T1)      DP      B5
001496:                                                                                                 #      16D         DX(T1)=ITERATOR INCREMENT                               DP      B5
001497:                                                                                                 #    MPAC
001498:                                                                                                 #      NONE
001499:                                                                                                 #    OTHER
001500:                                                                                                 #      V(T1)/      INITIAL VELOCITY VECTOR                                 VECTOR  B7/B5   METERS/CS
001501:                                                                                                 #      RTEDVD      DELTA VELOCITY DESIRED                                  DP      B7/B5   METERS/CS
001502:                                                                                                 #      UR1/        UNIT INITIAL VECTOR                                     VECTOR  B1
001503:                                                                                                 #      UH/         UNIT HORIZONTAL VECTOR                                  VECTOR  B1
001504:                                                                                                 #      X(T1)       COTANGENT OF INITIAL FLIGHT PATH ANGLE (FROM VERTICAL)  DP      B5
001505:                                                                                                 #      F2RTE       TIME CRITICAL OR MINIMUM FUEL MODE INDICATOR            STATE AREA      0 MIN. FUEL, 1 MIN. TIME
001506:
001507:                                                                                                 #  OUTPUT
001508:                                                                                                 #      V2(T1)/     POST IMPULSE INITIAL VELOCITY VECTOR                    VECTOR  B7/B5   METERS/CS
001509:                                                                                                 #      DV          INITIAL VELOCITY CHANGE                                 DP      B7/B5   METERS/CS
001510:                                                                                                 #      X(T1)       COTANGENT OF INITIAL FPA MEASURED FROM VERTICAL         DP      B5
001511:                                                                                                 #      PCON        SEMI-LATUS RECTUM                                       DP      B28/B26 METERS
001512:
001513:                                                                                                 #  DEBRIS
001514:                                                                                                 #    PUSHLIST
001515:                                                                                                 #      00D         X(T1),,
001516:                                                                                                 #      02D         THETA1
001517:                                                                                                 #      05D         THETA2
001518:                                                                                                 #      08D         THETA3
001519:                                                                                                 #      10D         X(T1)MIN
001520:                                                                                                 #      12D         DX(T1)MAX
001521:                                                                                                 # # Page 875
001522:                                                                                                 #      14D         X(T1)MAX
001523:                                                                                                 #      16D         DX(T1)
001524:                                                                                                 #      22D         DV,=PREVIOUS DV                                         DP      B7/B5
001525:                                                                                                 #      24D         BETA9=X(T1)+1.1DX(T1)                                   DP      B5
001526:                                                                                                 #      31D         GAMDV10 SUBROUTINE RETURN ADDRESS
001527:                                                                                                 #      32D         DVCALC SUBROUTINE RETURN ADDRESS
001528:                                                                                                 #      33D         V2T100 SUBROUTINE RETURN ADDRESS
001529: 32,3474           77620        GAMDV10           STQ
001530: 32,3475           00037                                   31D
001531: 32,3476           45001                          SETPD    CALL
001532: 32,3477           00023                                   18D                                   #                                     PL18D
001533: 32,3500           65673                                   DVCALC
001534: 32,3501           45345                          DLOAD    DSU
001535: 32,3502           00017                                   14D
001536: 32,3503           00013                                   10D
001537: 32,3504           77600                          BOV
001538: 32,3505           65525                                   GAMDV20
001539: 32,3506           45206                          PUSH     DSU                                   #  X(T1)MAX-X(T1)MIN=BETA8         B5 PL20D
001540: 32,3507           31774                                   EPC9RTE
001541: 32,3510           71240                          BMN      DLOAD
001542: 32,3511           65671                                   GAMDVX                                #  BOUNDS CLOSE TOGETHER
001543: 32,3512           00023                                   18D
001544: 32,3513           50025                          DSU      BMN                                   #  BETA8-DX(T1)MAX
001545: 32,3514           00015                                   12D
001546: 32,3515           65521                                   GAMDV15
001547: 32,3516           52001                          SETPD    GOTO                                  #                                     PL18D
001548: 32,3517           00023                                   18D
001549: 32,3520           65525                                   GAMDV20
001550: 32,3521           77745        GAMDV15           DLOAD                                          #                                     PL18D
001551: 32,3522           70565                          SIGN     SR1
001552: 32,3523           00021                                   16D
001553: 32,3524           00021                          STORE    16D                                   #  BETA8(SIGNDX(T1))/2=DX(T1)
001554: 32,3525           77745        GAMDV20           DLOAD
001555: 32,3526           31703                                   M144RTE
001556: 32,3527           03732                          STORE    NN2
001557: 32,3530           43345        GAMDV25           DLOAD    DAD
001558: 32,3531           03732                                   NN2
001559: 32,3532           31677                                   1RTEB28
001560: 32,3533           67240                          BMN      SLOAD
001561: 32,3534           65540                                   GAMDV30
001562: 32,3535           31737                                   OCT605
001563: 32,3536           77650                          GOTO
001564: 32,3537           65472                                   V2T1X
001565: 32,3540           03732        GAMDV30           STORE    NN2                                   #  NN2=NN2+1
001566: 32,3541           65345                          DLOAD    PDDL                                  #  X(T1)=X(T1),                    B5 PL20D
001567: 32,3542           03722                                   X(T1)
001568: 32,3543           03706                                   DV
001569: 32,3544           43325                          PDDL     DAD                                   #  DV=DV,                       B7/B5 PL22D
001570: 32,3545           03722                                   X(T1)
001571: 32,3546           00021                                   16D
001572:                                                                                                 # # Page 876
001573: 32,3547           37722                          STCALL   X(T1)                                 #  X(T1)+DX(T1)=X(T1)              B5
001574: 32,3550           65673                                   DVCALC
001575: 32,3551           71214                          BON      DLOAD
001576: 32,3552           00312                                   F2RTE
001577: 32,3553           65567                                   GAMDV35
001578: 32,3554           03706                                   DV
001579: 32,3555           50025                          DSU      BMN                                   #  CONTINUE IF FUEL CRITICAL MODE
001580: 32,3556           00025                                   20D
001581: 32,3557           65564                                   GAMDV33
001582: 32,3560           57545        GAMDV32           DLOAD    DCOMP
001583: 32,3561           00021                                   16D
001584: 32,3562           77742                          SR1
001585: 32,3563           00021                          STORE    16D
001586: 32,3564           52001        GAMDV33           SETPD    GOTO
001587: 32,3565           00023                                   18D                                   #                                     PL18D
001588: 32,3566           65630                                   GAMDV50
001589:
001590:                                                                                                 #  TIME CRITICAL MODE
001591:
001592: 32,3567           45345        GAMDV35           DLOAD    DSU
001593: 32,3570           03632                                   RTEDVD
001594: 32,3571           03706                                   DV
001595: 32,3572           41525                          PDDL     PUSH                                  #  DVD-DV=DVERR                 B7/B5 PL22D
001596: 32,3573           51545        GAMDV40           DLOAD    ABS                                   #  DV,                                PL24D
001597: 32,3574           00025                                   20D
001598: 32,3575           50025                          DSU      BMN
001599: 32,3576           31776                                   EPC10RTE
001600: 32,3577           65671                                   GAMDVX
001601: 32,3600           77745        GAMDV45           DLOAD                                          #                                     PL22D
001602: 32,3601           60221                          BDSU     NORM
001603: 32,3602           03706                                   DV
001604: 32,3603           00050                                   X2
001605: 32,3604           77725                          PDDL                                           #  DV-DV,                    B7/B5-N2 PL22D
001606: 32,3605           70501                          NORM     SR1                                   #  DVERR                    B8/B6-N1
001607: 32,3606           00047                                   X1
001608: 32,3607           77671                          DDV
001609: 32,3610           65200                          BOV      PDDL                                  #  DVERR/(DV-DV,)                     PL20D
001610: 32,3611           65624                                   GAMDV47
001611: 32,3612           41221                          BDSU     DMP                                   #                                     PL18D
001612: 32,3613           03722                                   X(T1)
001613: 32,3614           53660                          XSU,1    SR*
001614: 32,3615           00047                                   X2
001615: 32,3616           20600                                   0          -1,1
001616: 32,3617           00021                          STORE    16D                                   #  (X(T1)-X(T1),)DVERR/(DV-DV,)=DX(T1)
001617: 32,3620           45246                          ABS      DSU
001618: 32,3621           00015                                   12D
001619: 32,3622           77640                          BMN
001620: 32,3623           65630                                   GAMDV50
001621: 32,3624           75345        GAMDV47           DLOAD    SIGN
001622: 32,3625           00015                                   12D
001623:                                                                                                 # # Page 877
001624: 32,3626           00021                                   16D
001625: 32,3627           00021                          STORE    16D                                   #  DX(T1)MAX(SIGNDX(T1))=DX(T1)
001626:
001627:                                                                                                 #  CHECK TO KEEP INDEPENDENT VARIABLE IN BOUNDS
001628:
001629: 32,3630           41345        GAMDV50           DLOAD    DMP
001630: 32,3631           00021                                   16D
001631: 32,3632           31713                                   1.1RTEB1
001632: 32,3633           43352                          SL1      DAD
001633: 32,3634           03722                                   X(T1)
001634: 32,3635           00031                          STORE    24D                                   #  X(T1)+1.1DX(T1)=BETA9           B5
001635: 32,3636           50025                          DSU      BMN
001636: 32,3637           00017                                   14D
001637: 32,3640           65647                                   GAMDV55
001638: 32,3641           45345                          DLOAD    DSU
001639: 32,3642           00017                                   14D
001640: 32,3643           03722                                   X(T1)
001641: 32,3644           77742                          SR1
001642: 32,3645           34021                          STCALL   16D                                   #  (X(T1)MAX-X(T1))/2=DX(T1)       B5
001643: 32,3646           65662                                   GAMDV65
001644: 32,3647           45345        GAMDV55           DLOAD    DSU
001645: 32,3650           00031                                   24D
001646: 32,3651           00013                                   10D
001647: 32,3652           52040                          BMN      GOTO
001648: 32,3653           65655                                   GAMDV60
001649: 32,3654           65662                                   GAMDV65
001650: 32,3655           45345        GAMDV60           DLOAD    DSU
001651: 32,3656           00013                                   10D
001652: 32,3657           03722                                   X(T1)
001653: 32,3660           77742                          SR1
001654: 32,3661           00021                          STORE    16D                                   #  (X(T1)MIN-X(T1))/2=DX(T1)       B5
001655: 32,3662           51545        GAMDV65           DLOAD    ABS
001656: 32,3663           00021                                   16D
001657: 32,3664           50025                          DSU      BMN
001658: 32,3665           31774                                   EPC9RTE
001659: 32,3666           65671                                   GAMDVX
001660: 32,3667           77650                          GOTO
001661: 32,3670           65530                                   GAMDV25
001662: 32,3671           77650        GAMDVX            GOTO
001663: 32,3672           00037                                   31D
001664:
001665:                                                                                                 # # Page 878
001666:                                                                                                 #  DV CALCULATION SUBROUTINE
001667:
001668:                                                                                                 #  INPUT
001669:                                                                                                 #    PUSHLIST
001670:                                                                                                 #      02D         THETA1=BETA5*LAMBDA-1                                   TP     B17
001671:                                                                                                 #      05D         THETA2=2*R(T1)*(LAMBDA-1)                               TP     B38/B36
001672:                                                                                                 #      08D         THETA3=MU**.5/R(T1)                                     DP     B-4/B-5
001673:                                                                                                 #    OTHER
001674:                                                                                                 #      X(T1)       COTANGENT OF POST IMPULSE INITIAL FLIGHT PATH ANGLE     DP     B5
001675:                                                                                                 #      V(T1)/      INITIAL VELOCITY VECTOR (PRE IMPULSE)                   VECTOR  B7/B5   METERS/CS
001676:                                                                                                 #      UR1/        UNIT INITIAL VECTOR                                     VECTOR  B1
001677:                                                                                                 #      UH/         UNIT HORIZONTAL VECTOR                                  VECTOR  B1
001678:
001679:                                                                                                 #  OUTPUT
001680:                                                                                                 #      V2(T1)/     POST IMPULSE INITIAL VELOCITY VECTOR                    VECTOR  B7/B5   METERS/CS
001681:                                                                                                 #      DV          INITIAL VELOCITY CHANGE                                 DP      B7/B5   METERS/CS
001682:                                                                                                 #      PCON        SEMI-LATUS RECTUM                                       DP      B28/B26 METERS
001683:
001684:                                                                                                 #  DEBRIS
001685:                                                                                                 #      28D         THETA3*PCON**.5                                         DP      B10/B8-N1
001686:                                                                                                 #      C(PUSHLOC)  THETA3(PCON**.5)*X(T1)*UR1/                             VECTOR  B7/B5
001687:                                                                                                 #      32D         DVCALC SUBROUTINE RETURN ADDRESS
001688:                                                                                                 #      X1          NORMALIZATION FACTOR FOR VALUE IN 28D
001689:
001690:                                                                                                 #  PUSHLOC IS RESTORED TO ITS ENTRANCE VALUE UPON EXITING DVCALC
001691:
001692: 32,3673           71220        DVCALC            STQ      DLOAD
001693: 32,3674           00040                                   32D
001694: 32,3675           03722                                   X(T1)
001695: 32,3676           54316                          DSQ      SR
001696: 32,3677           20610                                   7
001697: 32,3700           76276                          DCOMP    TAD
001698: 32,3701           00003                                   02D
001699: 32,3702           41501                          NORM     PUSH
001700: 32,3703           00047                                   X1
001701: 32,3704           60351                          TLOAD    NORM
001702: 32,3705           00006                                   05D
001703: 32,3706           00050                                   X2
001704: 32,3707           70434                          RTB      SR1
001705: 32,3710           45713                                   DPMODE
001706: 32,3711           56264                          XSU,2    DDV
001707: 32,3712           00046                                   X1
001708: 32,3713           77657                          SR*
001709: 32,3714           57170                                   6,2
001710: 32,3715           03720                          STORE    PCON                                  #  THETA2/(THETA1-X(T1)**2)=PCON  B28/26
001711: 32,3716           41366                          SQRT     DMP
001712: 32,3717           00011                                   08D
001713: 32,3720           77701                          NORM
001714: 32,3721           00047                                   X1
001715: 32,3722           14035                          STODL    28D                                   #  THETA3*PCON**.5         B10/B8 -N1
001716:                                                                                                 # # Page 879
001717: 32,3723           03722                                   X(T1)
001718: 32,3724           74301                          NORM     VXSC
001719: 32,3725           00050                                   X2
001720: 32,3726           03740                                   UR1/                                  #  X(T1)*UR1/             B5+B1 -N2
001721: 32,3727           74274                          XAD,2    VXSC
001722: 32,3730           00046                                   X1
001723: 32,3731           00035                                   28D
001724: 32,3732           63257                          VSR*     PDVL                                  #  THETA3(PCON**.5)X(T1)*UR1/ B7/B5
001725: 32,3733           57207                                   0          -9D,2                      #             +
001726: 32,3734           03746                                   UH/
001727: 32,3735           53761                          VXSC     VSR*                                  #  THETA3(PCON**.5)UH/        B7/B5
001728: 32,3736           00035                                   28D
001729: 32,3737           20575                                   0          -4,1                       #             =
001730: 32,3740           45455                          VAD      STADR
001731: 32,3741           74077                          STORE    V2(T1)/                               #  V2(T1)/                    B7/B5
001732: 32,3742           51451                          VSU      ABVAL
001733: 32,3743           03672                                   V(T1)/
001734: 32,3744           03706                          STORE    DV                                    #  ABVAL(V2(T1)/-V1(T)/)=DV   B7/B5
001735: 32,3745           77650                          GOTO
001736: 32,3746           00040                                   32D
001737:
001738:                                                                                                 # # Page 880
001739:                                                                                                 #  SUBROUTINE TO COMPUTE BOUNDS ON INDEPENDENT VARIABLE X(T1)
001740:
001741:                                                                                                 #  INPUT
001742:                                                                                                 #    PUSHLIST
001743:                                                                                                 #      PUSHLOC -4  MAJOR AXIS (MA)                                         DP      B30/B28
001744:                                                                                                 #      PUSHLOC -2  MAJOR AXIS (MA) AGAIN                                   DP      B30/B28
001745:                                                                                                 #      28D         BETA5=LAMBDA*BETA1                                      DP      B9
001746:                                                                                                 #    OTHER
001747:                                                                                                 #      RCON                                                                DP      B29/B27
001748:                                                                                                 #      R(T1)                                                               DP      B29/B27
001749:                                                                                                 #  OUTPUT
001750:                                                                                                 #    MPAC
001751:                                                                                                 #      X(T1)LIM    LIMIT ON INDEPENDENT VARIABLE X(T1)                     DP      B5
001752:                                                                                                 #  DEBRIS
001753:                                                                                                 #    PUSHLIST
001754:                                                                                                 #      C(PUSHLOC)  MA-RCON                                                 DP      (B30/28)-N1
001755:                                                                                                 #      C(PSHLOC)+2 MA                                                      DP      B30/B28
001756:                                                                                                 #      X1          NORMALIZATION FACTOR FOR MA-RCON
001757:                                                                                                 #      20D         XT1LIM SUBROUTINE RETURN ADDRESS
001758:                                                                                                 #  PUSHLOC IS RESTORED TO ITS ENTRANCE VALUE UPON EXITING XT1LIM
001759:
001760: 32,3747           71220        XT1LIM            STQ      DLOAD
001761: 32,3750           00024                                   20D
001762: 32,3751           03636                                   RCON
001763: 32,3752           44342                          SR1      BDSU
001764: 32,3753           65301                          NORM     PDDL                                  #  MA-RCON                     B30-N1
001765: 32,3754           00050                                   X2
001766: 32,3755           70525                          PDDL     SR1
001767: 32,3756           03646                                   R(T1)
001768: 32,3757           56221                          BDSU     DDV
001769: 32,3760           41257                          SL*      DMP
001770: 32,3761           57577                                   0          -1,2
001771: 32,3762           00035                                   28D
001772: 32,3763           77657                          SL*
001773: 32,3764           20172                                   0          -7,1
001774: 32,3765           50025                          DSU      BMN                                   #  (BETA5(MA-R(T1))/(MA-RCON))-1  B10
001775: 32,3766           31665                                   1RTEB10
001776: 32,3767           65772                                   XT1LIM5
001777: 32,3770           52166                          SQRT     GOTO
001778: 32,3771           65774                                   XT1LIMX
001779: 32,3772           77745        XT1LIM5           DLOAD
001780: 32,3773           31701                                   ZERORTE
001781: 32,3774           77650        XT1LIMX           GOTO
001782: 32,3775           00024                                   20D
001783:
001784:                                                                                                 # # Page 881
001785:                                                                                                 #  CONSTANTS FOR THE P37 AND P70 PROGRAMS AND SUBROUTINES
001786:
001787: 36,3250                                          BANK     36
001788: 34,2000                                          SETLOC   RTECON
001789: 34,2000                                          BANK
001790:
001791: 34,3654           20000 00000  1RTEB1            2DEC     1.
001792: 34,3656           10000 00000  1RTEB2            2DEC     1.
001793: 34,3660           04000 00000  1RTEB3            2DEC     1.
001794: 34,3662           02000 00000  1RTEB4            2DEC     1.
001795: 34,3664           00020 00000  1RTEB10           2DEC     1.
001796: 34,3666           00004 00000  1RTEB12           2DEC     1.
001797: 34,3670           00002 00000  1RTEB13           2DEC     1.
001798: 34,3672           00000 04000  1RTEB17           2DEC     1.
001799: 34,3674           00000 00010  1RTEB25           2DEC     1.
001800: 34,3676           00000 00001  1RTEB28           2DEC     1.
001801: 34,3700           00000 00000  ZERORTE           2DEC     0          B-28
001802: 34,3702           77777 77557  M144RTE           2DEC     -144.
001803: 34,3704           77777 77760  M15RTE            2DEC     -15        B-28
001804: 34,3706           00000 00012  10RTE             2DEC     10         B-28
001805: 34,3710           54631 63145  M.6RTE            2DEC     -.6
001806: 34,3712           21463 06315  1.1RTEB1          2DEC     1.1
001807: 34,3714           77777 77771  M6RTEB28          2DEC     -6         B-28
001808: 34,3716           37777 37777  2RTEB1            2OCT     3777737777
001809: 34,3720           77777 77766  M9RTEB28          2DEC     -9         B-28
001810: 34,3722           77777 77767  M8RTEB28          2DEC     -8         B-28
001811: 34,3724           00000 35610  30480RTE          2DEC     30480.
001812: 34,3726           36703 03743  VCSPS             2DEC     30.8811
001813:                                                                                                 # # Page 882
001814: 34,3730           33041 37714  VCRCS             2DEC     27.0664
001815: 34,3732           00003 13241  MDOTRCS           2DEC     .0016375
001816: 34,3734           20000 00000  CSUBT             2DEC     .5
001817: 34,3736           00605        OCT605            OCT      00605
001818: 34,3737           00612        OCT612            OCT      00612
001819: 34,3740           00613        OCT613            OCT      00613
001820: 34,3741           40214 45266  MCOS7.5           2DEC     -.99144486
001821: 34,3743           73645 56536  MSIN7.5           2DEC     -.13052619
001822: 34,3745           70467 71205  MCOS22.5          2DEC     -.92387953
001823: 34,3747           16525 12525  THETA165          2DEC     .458333333
001824: 34,3751           22525 12525  THETA210          2DEC     .583333333
001825: 34,3753           17775 06676  EPC1RTE           2DEC     .99966
001826: 34,3755           00000 00062  EPC2RTE           2DEC     100.
001827: 34,3757           00020 14223  EPC3RTE           2DEC     .001
001828: 34,3761           00000 05174  EPC4RTE           2DEC     .00001
001829: 34,3763           00002 21727  EPC5RTE           2DEC     .01
001830: 34,3765           00000 01654  EPC6RTE           2DEC     .000007
001831: 34,3767           00000 00764  EPC7RTE           2DEC     1000.
001832: 34,3771           00040 30447  EPC8RTE           2DEC     .002
001833: 34,3773           00000 00010  EPC9RTE           2DEC     1.
001834: 34,3775           00000 00322  EPC10RTE          2DEC     .0001
001835: 35,3755                                          BANK     35
001836: 35,2000                                          SETLOC   RTECON1
001837: 35,2000                                          BANK
001838: 35,3755           27657 01000  C4RTE             2DEC     8.
001839: 35,3757           00325 23740  K1RTE             2DEC     7.
001840: 35,3761           00306 06614  K2RTE             2DEC     6495000.
001841: 35,3763           76027 70156  K3RTE             2DEC     -.06105
001842:                                                                                                 # # Page 883
001843: 35,3765           74517 54131  K4RTE             2DEC     -.10453
001844: 35,3767           30276 05001  RTMURTE           2DEC     199650.501
001845: 35,3771           00003 27040  E3RTE             2DEC     121920.

End of include-file P37,P70.agc.  Parent file is MAIN.agc


