
Source Code


000002:                                                                                                  ## Copyright:   Public domain.
000003:                                                                                                  ## Filename:    P40-P47.agc
000004:                                                                                                  ## Purpose:     Part of the source code for Colossus build 237.
000005:                                                                                                  ##              This is for the Command Module's (CM) Apollo Guidance
000006:                                                                                                  ##              Computer (AGC), for Apollo 8.
000007:                                                                                                  ## Assembler:   yaYUL
000008:                                                                                                  ## Contact:     Jim Lawton <jim DOT lawton AT gmail DOT com>
000009:                                                                                                  ## Website:     www.ibiblio.org/apollo/index.html
000010:                                                                                                  ## Page Scans:  www.ibiblio.org/apollo/ScansForConversion/Colossus237/
000011:                                                                                                  ## Mod history: 2011-02-20 JL   Adapted from corresponding Colossus 249 file.
000012:                                                                                                  ##              2011-04-24 JL   Fixed incorrect indentation of label.
000013:                                                                                                  ##              2012-10-08 JL   Fixed incorrect opcode on p682.
000014:                                                                                                  ##              2016-08-14 RSB  Added SBANKs for addressing discrepancies.
000015:                                                                                                  ##              2016-12-31 RSB  Proofed comment text using octopus/ProoferComments,
000016:                                                                                                  ##                              and corrected errors found.
000017:                                                                                                  ##              2017-01-18 RSB  Fixed comment-text errors noted while diff'ing
000018:                                                                                                  ##                              vs Colossus 249.
000019:


000021:                                                                                                  #  PROGRAM DESCRIPTION **P40CSM**
000022:
000023:
000024: 35,3755  E6,1466                                  EBANK=   DAPDATR1
000025: 31,3215                                           BANK     31
000026: 24,2000                                           SETLOC   P40S
000027: 24,2000                                           BANK
000028:
000029: 24,2002                                           COUNT    24/P40
000030:
000031: 24,2002           05447        P40CSM             TC       DOWNFLAG
000032: 24,2003           00023                           ADRES    ENG2FLAG
000033:
000034: 24,2004           06006                           TC       INTPRET
000035: 24,2005           43135                           SLOAD    BOFF
000036: 24,2006           03425                                    ECSTEER                               #  IS THIS AN EXTERNAL DELTA V BURN
000037: 24,2007           01347                                    XDELVFLG
000038: 24,2010           50013                                    P40S/C                                #  NO   CSTEER = ECSTEER
000039: 24,2011           77745                           DLOAD                                          #  YES  CSTEER = ZERO
000040: 24,2012           15332                                    HI6ZEROS
000041: 24,2013           17703        P40S/C             STODL    CSTEER
000042: 24,2014           10335                                    FENG                                  #  SET UP THRUST FOR P40 20,000 LBS
000043: 24,2015           17727        P40S/F             STODL    F                                     #  P41 ENTERS HERE
000044: 24,2016           03413                                    TIG                                   #  ORIGINAL TIG MAY BE SLIPPED BY P40S/SV
000045: 24,2017           03450                           STORE    NOMTIG                                #  SET ORIGINAL TIME OF IGNITION FOR S40.9
000046:
000047: 24,2020           77776                           EXIT
000048: 24,2021           04555                           TC       BANKCALL
000049: 24,2022           17573                           CADR     R02BOTH                               #  IMU STATUS CHECK
000050:
000051: 24,2023           06006        P40PVA             TC       INTPRET
000052: 24,2024           77624                           CALL
000053: 24,2025           34000                                    S40.1                                 #  COMPUTE VGTIG,UT
000054: 24,2026           77624                           CALL
000055: 24,2027           51514                                    S40.2,3                               #  COMPUTE PREFERRED ATTITUDE
000056: 24,2030           77414                           SET      EXIT
000057: 24,2031           01073                                    PFRATFLG
000058: 24,2032           02212        P40SXTY            TCR      SETMINDB   -1                         #  NARROW DEADBAND FOR MANEUVER (EBANK6)
000059: 24,2033           00003                           RELINT
000060: 24,2034           04555                           TC       BANKCALL
000061: 24,2035           56000                           CADR     R60CSM                                #  ATTITUDE MANEUVER
000062: 24,2036           44712                           CS       ONE                                   #  FOR UPDATEVG
000063: 24,2037           55746                           TS       NBRCYCLS
000064: 24,2040           05435                           TC       UPFLAG
000065: 24,2041           00155                           ADRES    TIMRFLAG                              #  ALLOW CLOCKTASK
000066:
000067: 24,2042           02252                           TC       P41/P40
000068: 24,2043           02267                           TC       P41/DSP                               #  P41
000069:
000070: 24,2044           32351        P40TTOG            CAF      V06N40                                #  INITIALIZE FOR CLOCKTASK WHICH IS CALLED


000072: 24,2045           55145                           TS       NVWORD1                               #  BELOW
000073:
000074: 24,2046           06006                           TC       INTPRET
000075: 24,2047           51575                           VLOAD    ABVAL                                 #  FOR R2
000076: 24,2050           03721                                    VGTIG
000077: 24,2051           17654                           STODL    VGDISP
000078: 24,2052           15332                                    HI6ZEROS
000079: 24,2053           03426                           STORE    DVTOTAL
000080: 24,2054           77776                           EXIT
000081:
000082: 24,2055           00006                           EXTEND
000083: 24,2056           32775                           DCA      STEERADS                              #  SET FOR UPDATEVG AND TEST FOR STEERING
000084: 24,2057           53223                           DXCH     AVEGEXIT                              #  AFTER AVERAGE G
000085:
000086: 24,2060           32344        P40GMB             CAF      P40CKLS2                              #  (4.1 PROTECTION)
000087: 24,2061           04555                           TC       BANKCALL
000088: 24,2062           20751                           CADR     GOPERF1
000089: 24,2063           12204                           TCF      POST41                                #  V34
000090: 24,2064           12364                           TCF      TST,TRIM                              #  V33
000091: 24,2065           44712        TRIMONLY           CS       BIT1                                  #  SET MRKRTEMP FOR GIMBAL TRIM  (-1)
000092: 24,2066           55445                 +1        TS       MRKRTMP                               #  ENTRY FROM TST,TRIM
000093:
000094: 24,2067           34714                           CAF      ZERO                                  #  SET CNTR  +0 FOR RESTART LOGIC IN S40.6
000095: 24,2070           55447                           TS       CNTR                                  #       +0 SAYS NORMAL ENTRY.
000096:                                                                                                  #                                               +1 (PRE40.6) SAYS RESTART ENTRY
000097:
000098: 24,2071           34712                           CAF      ONE
000099: 24,2072           05140                           TC       WAITLIST
000100: 24,2073  E6,1466                                  EBANK=   DAPDATR1
000101: 24,2073           02050 40066                     2CADR    S40.6
000102: 24,2075           11445                           CCS      MRKRTMP                               #  TEST TO FIND TIME TO WAIT FOR GIMBALTEST
000103: 24,2076           32343                           CAF      18SEC                                 #   PLUS, DELAY FOR 18 SECONDS
000104: 24,2077           12101                           TCF      +2                                    #  HOLE
000105: 24,2100           33000                           CAF      5SEC                                  #  DELAY FOR TRIM ONLY TASK
000106: 24,2101           04555                           TC       BANKCALL
000107: 24,2102           01730                           CADR     DELAYJOB
000108: 24,2103           05261                           TC       2PHSCHNG
000109: 24,2104           40026                           OCT      40026                                 #  6.2 = PRE40.6(-0CS), CLOKTASK(100CS)
000110: 24,2105           00234                           OCT      00234                                 #  4.23 = P40S/SV (PRIO12)
000111: 24,2106           34712        P40S/RS            CAF      ONE
000112: 24,2107           05140                           TC       WAITLIST                              #  P41/SDP
000113: 24,2110  E7,1412                                  EBANK=   TIG
000114: 24,2110           03174 50067                     2CADR    CLOKTASK
000115:
000116: 24,2112           00003                           RELINT
000117:
000118: 24,2113           03306        P40S/SV            TCR      E7SETTER                              #  JOB, 4.23 PRETECTS, PRIO12
000119: 24,2114  E7,1412                                  EBANK=   TIG


000121: 24,2114           06006                           TC       INTPRET
000122: 24,2115           45345                           DLOAD    DSU
000123: 24,2116           03413                                    TIG
000124: 24,2117           10342                                    SEC29.96
000125: 24,2120           00041                           STORE    TDEC1
000126:
000127: 24,2121           77624                           CALRB                                          #  RETURN IN BASIC
000128: 24,2122           27574                                    MIDTOAV1
000129: 24,2123           12125                           TCF      +2
000130: 24,2124           02146                           TC       P40SNEWM                              #  INTEGRATION TIME GREATER THAN ALLOWED
000131: 24,2125           00006        P40SET             EXTEND
000132: 24,2126           30155                           DCA      MPAC                                  #  DELTA TIME TO PREREAD (INT.INIT.)
000133: 24,2127           53673                           DXCH     P40TMP
000134: 24,2130           00006                           EXTEND
000135: 24,2131           43000                           DCS      5SECDP                                #  FOR TTGBLNK
000136: 24,2132           21673                           DAS      P40TMP
000137: 24,2133           00006                           EXTEND
000138: 24,2134           31673                           DCA      P40TMP
000139: 24,2135           05231                           TC       LONGCALL
000140: 24,2136  E7,1412                                  EBANK=   TIG
000141: 24,2136           02366 50067                     2CADR    TIGBLNK
000142: 24,2140           05301                           TC       PHASCHNG
000143: 24,2141           20214                           OCT      20214                                 #  4.21 = TIGBLNK (P40TMP CS)
000144:
000145: 24,2142           15112                           TCF      ENDOFJOB
000146: 24,2143           04555        P40BLNKR           TC       BANKCALL
000147: 24,2144           20607                           CADR     CLEANDSP                              #  REMOVE RESIDUE
000148: 24,2145           15112                           TCF      ENDOFJOB
000149: 24,2146  E7,1412                                  EBANK=   TIG
000150: 24,2146           00006        P40SNEWM           EXTEND
000151: 24,2147           31246                           DCA      PIPTIME1
000152: 24,2150           53413                           DXCH     TIG                                   #  SET NEW TIG FOR 06 40
000153: 24,2151           00006                           EXTEND
000154: 24,2152           32342                           DCA      SEC29.96
000155: 24,2153           21413                           DAS      TIG
000156: 24,2154           12125                           TCF      P40SET                                #  FOR LONGCALL OF TIG-30( OR -35)
000157:
000158: 24,2155  E6,1466                                  EBANK=   DAPDATR1
000159: 24,2155           32353        POSTBURN           CAF      V16N40
000160: 24,2156           04555                           TC       BANKCALL
000161: 24,2157           20610                           CADR     REFLASH
000162: 24,2160           12204                           TCF      POST41                                #  V34 GO FINISH
000163: 24,2161           12163                           TCF      P40RCS                                #  PROCEED
000164: 24,2162           12155                           TCF      POSTBURN                              #  RECYCLE
000165: 24,2163           00006        P40RCS             EXTEND                                         #  V99N40 ENTERS HERE ON A P40 BYPASS SPS
000166: 24,2164           32411                           DCA      ACADN85
000167: 24,2165           53223                           DXCH     AVEGEXIT
000168: 24,2166           34735                           CAF      2SECS                                 #  WAIT FOR CALCN85 VIA AVEGEXIT
000169: 24,2167           04555                           TC       BANKCALL


000171: 24,2170           01730                           CADR     DELAYJOB
000172:
000173: 24,2171           02212        P40MINDB           TCR      SETMINDB   -1
000174: 24,2172           00003                           RELINT
000175: 24,2173           05301        TIGNOW             TC       PHASCHNG
000176: 24,2174           05024                           OCT      05024                                 #  TYPE C GROUP 4 BELOW FOR NOUN 85
000177: 24,2175           20000                           OCT      20000                                 #  PRIO 20
000178: 24,2176           32350                           CAF      V16N85B
000179: 24,2177           04555                           TC       BANKCALL
000180: 24,2200           20610                           CADR     REFLASH
000181: 24,2201           12204                           TCF      POST41                                #  FINISH P40/P41
000182: 24,2202           12204                           TCF      POST41                                #  V03 PROCEED WITH REST OF THE CLEAN-UP
000183: 24,2203           12173                           TCF      TIGNOW                                #  V32 NOT GSOP RESPONSE BUT REDISPLAY N85
000184:
000185: 24,2204           00006        POST41             EXTEND
000186: 24,2205           32407                           DCA      SERVCADR
000187: 24,2206           53223                           DXCH     AVEGEXIT
000188: 24,2207           14106                           TCF      GOTOPOOH
000189:
000190:
000191: 24,2210           00056        MINDB              DEC      46         B-14
000192: 24,2211           00707        MAXDB              DEC      455        B-14
000193: 24,2212  E6,1466                                  EBANK=   DAPDATR1
000194: 24,2212           00004                 -1        INHINT
000195: 24,2213           30032        SETMINDB           CA       CDUX                                  #  ROUTINE FOR SETTING
000196: 24,2214           55572                           TS       THETADX                               #  THE MINIMUM DEADBAND
000197: 24,2215           00006                           EXTEND                                         #  IN AUTOPILOT
000198: 24,2216           30034                           DCA      CDUY
000199: 24,2217           53574                           DXCH     THETADY
000200: 24,2220           32210                           CA       MINDB                                 #  SHOULD BE CALLED UNDER
000201: 24,2221           55655                           TS       ADB                                   #  INTERRUPT INHIBITED
000202: 24,2222           44707                           CS       BIT4                                  #  EBANK = E6
000203: 24,2223           71466                           MASK     DAPDATR1
000204: 24,2224           55466                           TS       DAPDATR1
000205: 24,2225           00002                           TC       Q
000206:
000207: 24,2226  E6,1466                                  EBANK=   DAPDATR1
000208: 24,2226           00004                 -1        INHINT
000209: 24,2227           32211        SETMAXDB           CA       MAXDB                                 #  ROUTINE FOR SETTING
000210: 24,2230           55655                           TS       ADB                                   #  THE MAXIMUM DEADBAND IN AUTOPILOT
000211: 24,2231           41466                           CS       DAPDATR1
000212: 24,2232           74707                           MASK     BIT4                                  #  SHOULD BE CALLED UNDER
000213: 24,2233           27466                           ADS      DAPDATR1                              #  INTERRUPT INHIBITED
000214: 24,2234           00002                           TC       Q                                     #  EBANK = E6
000215:


000217:                                                                                                  #  PROGRAM DESCRIPTION **P41CSM**
000218:
000219:
000220: 24,2235  E6,1466                                  EBANK=   DAPDATR1
000221: 24,2235                                           COUNT    24/P41
000222:
000223: 24,2235           05435        P41CSM             TC       UPFLAG
000224: 24,2236           00023                           ADRES    ENG2FLAG                              #  SET FOR RCS
000225:
000226: 24,2237           06006                           TC       INTPRET
000227: 24,2240           77745                           DLOAD
000228: 24,2241           15332                                    HI6ZEROS                              #  FOR P41 CSTEER =0
000229: 24,2242           03703                           STORE    CSTEER
000230:
000231: 24,2243           43145                           DLOAD    BON
000232: 24,2244           10337                                    FRCS2                                 #  2JET THRUST FOR S40.1
000233: 24,2245           00700                                    NJETSFLG
000234: 24,2246           50015                                    P40S/F                                #  NJETS = 1 2-JET
000235: 24,2247           52015                           DAD      GOTO                                  #  NJETS = 0  4-JET
000236: 24,2250           10337                                    FRCS2
000237: 24,2251           50015                                    P40S/F
000238:
000239: 24,2252           41011        P41/P40            CS       MODREG
000240: 24,2253           74712                           MASK     ONE                                   #  P41EXITS AT CALL LOC +1
000241: 24,2254           00006                           EXTEND
000242: 24,2255           12257                           BZF      +2                                    #  P41
000243: 24,2256           24002                           INCR     Q                                     #  P40 EXITS AT CALL LOC +2
000244: 24,2257           00002                           TC       Q
000245:
000246: 24,2260           34675        TTG/0              CAF      PRIO20                                #  TASK (4.4 PROTECTS IN P41)
000247: 24,2261           05027                           TC       NOVAC
000248: 24,2262  E6,1466                                  EBANK=   DAPDATR1
000249: 24,2262           02173 50066                     2CADR    TIGNOW
000250:
000251: 24,2264           05447        P40CLK             TC       DOWNFLAG
000252: 24,2265           00155                           ADRES    TIMRFLAG
000253:
000254: 24,2266           15213                           TCF      TASKOVER
000255:
000256: 24,2267           32347        P41/DSP            CAF      V06N85B                               #  SET UP FOR NONFLASH V 06 N85 BY CLOCKJOB
000257: 24,2270           55145                           TS       NVWORD1
000258:
000259: 24,2271           06006                           TC       INTPRET
000260: 24,2272           77624                           CALL                                           #  COMPUTE
000261: 24,2273           50314                                    P40CNV85                              #          VGTIG IN CTRL COORDS
000262: 24,2274           77776                           EXIT
000263: 24,2275           00006                           EXTEND                                         #  DO CONTROL COORD CALCULATION AFTER AVEG
000264: 24,2276           32411                           DCA      ACADN85
000265: 24,2277           53223                           DXCH     AVEGEXIT


000267: 24,2300           05261                           TC       2PHSCHNG
000268: 24,2301           40036                           OCT      40036                                 #  6.3=CLOKTASK(100CS)
000269: 24,2302           00234                           OCT      234                                   #  4.23=P40S/SV(PRIO12)
000270:
000271: 24,2303           12106                           TCF      P40S/RS
000272: 24,2304           32350        P41REDSP           CAF      V16N85B                               #  ENTER FROM P41 SIDE OF TIGAVEG
000273: 24,2305           55145                           TS       NVWORD1                               #   REDISPLAY NONFLASHING
000274: 24,2306           32342                           CAF      SEC29.96   +1
000275: 24,2307           05140                           TC       WAITLIST
000276: 24,2310  E6,1466                                  EBANK=   DAPDATR1
000277: 24,2310           02260 50066                     2CADR    TTG/0
000278: 24,2312           44710                           CS       BIT3                                  #  4.4 = TTG/0(2996CS), PRECHECK(-0CS)
000279: 24,2313           12515                           TCF      TTGPHS
000280: 24,2314           40220        P40CNV85           STQ      SETPD
000281: 24,2315           03730                                    QTEMP1
000282: 24,2316           00001                                    0
000283: 24,2317           41575                           VLOAD    PUSH
000284: 24,2320           03721                                    VGPREV                                #  EQUALS VGTIG (TARGETTING INPUT)
000285: 24,2321           77624                           CALL
000286: 24,2322           45426                                    S41.1
000287: 24,2323           37665                           STCALL   VGBODY
000288: 24,2324           03730                                    QTEMP1
000289:
000290: 24,2325  E6,1466                                  EBANK=   DAPDATR1
000291: 24,2325           06006        CALCN85            TC       INTPRET
000292: 24,2326           77624                           CALL
000293: 24,2327           51020                                    UPDATEVG                              #  NEW VG, S40.8(+MAYBE S40.9)
000294: 24,2330           77624                           CALL
000295: 24,2331           50314                                    P40CNV85                              #  COMPUTE VGBODY
000296: 24,2332           77776                           EXIT
000297: 24,2333           03131                           TC       SERVXT
000298: 24,2334           02217 06650  FENG               2DEC     9.1188544  B-7                        #  SPS THRUST (20500LBS), SC.AT B+7 NEWT/E4
000299: 24,2336           00013 06112  FRCS2              2DEC     .087437837 B-7                        #  RCS ULLAGE (199.6COS10 LBS), SC.AT
000300:                                                                                                  #                                               B+7 NEWTONS/E+4
000301: 24,2340           04700        SEC24.96           DEC      2496       B-14
000302: 24,2341           00000 05664  SEC29.96           2DEC     2996       B-28
000303: 24,2343           03410        18SEC              DEC      1800       B-14
000304: 24,2344           00204        P40CKLS2           OCT      204
000305: 24,2345           37730        40CST5             OCT      37730                                 #  40 CS FOR THE T5 CLOCK
000306: 24,2346     4377               OCT12              =        TEN
000307: 24,2346           04123        V1683              VN       1683
000308: 24,2347           01525        V06N85B            VN       0685
000309: 24,2350           04125        V16N85B            VN       1685
000310: 24,2351           01450        V06N40             VN       0640
000311: 24,2352           24020        P40OK99            OCT      24020                                 #  BITS 14,12, AND5 FOR LINUS VERB 99
000312: 24,2353           04050        V16N40             VN       1640


000314: 24,2354           00027        OCT27/24           OCT      27
000315: 24,2355           00053        OCT53              OCT      53
000316: 24,2356           00035        OCT35              OCT      35
000317: 24,2357  E6,1466                                  EBANK=   DAPDATR1
000318: 24,2357           03132 12066  T5IDL24            2CADR    T5IDLOC
000319: 24,2361           01120 25456  MDOTHI             2DEC     .289391932 B-3                        #  63.8 LB/SEC, SC.AT B+3 KG/CS   (=MDOTLO)
000320: 24,2363           00026        3MDOT              DEC      86.8175796 B-16                       #  3SEC MASS LOSS (63.8 LBS/SEC), SC.AT
000321:                                                                                                  #                                               B+16 KG/SEC
000322: 24,2364           34712        TST,TRIM           CAF      BIT1                                  #  SET UP FOR GIMB DRIVE TEST AND TRIM (+1)
000323: 24,2365           12066                           TCF      TRIMONLY   +1
000324: 24,2366           33000        TIGBLNK            CAF      5SEC                                  #  CALL TIGAVEG IN FIVE SEC AT TIG-30
000325: 24,2367           05140                           TC       WAITLIST
000326: 24,2370  E7,1412                                  EBANK=   TIG
000327: 24,2370           02504 50067                     2CADR    TIGAVEG
000328: 24,2372           34714                           CAF      ZERO                                  #  DISABLE HERE, NOT IN P40BLNKR
000329: 24,2373           55145                           TS       NVWORD1
000330:
000331: 24,2374           34761                           CAF      PRIO14
000332: 24,2375           05027                           TC       NOVAC
000333: 24,2376  E7,1412                                  EBANK=   TIG
000334: 24,2376           02143 50067                     2CADR    P40BLNKR                              #  DONT PROTECT-RESTARTS BLANK DSKY
000335: 24,2400           44362                           CS       OCT37                                 #  4.37 = TIGAVEG (500CS)
000336: 24,2401           04114        P40TSK             TC       NEWPHASE
000337: 24,2402           00004                           OCT      4
000338: 24,2403           05213                           TC       TASKOVER
000339:
000340: 24,2404  E7,1412                                  EBANK=   TIG
000341: 24,2404           02440 50067  ACADN83            2CADR    CALCN83
000342: 24,2406  E7,1412                                  EBANK=   TIG
000343: 24,2406           03136 76067  SERVCADR           2CADR    SERVEXIT
000344: 24,2410  E6,1466                                  EBANK=   DAPDATR1
000345: 24,2410           02325 50066  ACADN85            2CADR    CALCN85
000346:


000348:                                                                                                  #  PROGRAM DESCRIPTION **P47CSM**
000349:
000350:
000351: 24,2412                                           COUNT    24/P47
000352:
000353: 24,2412  E7,1412                                  EBANK=   TIG
000354: 24,2412           04555        P47CSM             TC       BANKCALL                              #    IMU STATUS CHECK
000355: 24,2413           17573                           CADR     R02BOTH
000356: 24,2414           06006                           TC       INTPRET
000357: 24,2415           77624                           CALRB
000358: 24,2416           27570                                    MIDTOAV2
000359: 24,2417           30155                           CAE      MPAC       +1                         #  DELTA TIME TO RPEREAD (LESS THAN 1000
000360: 24,2420           55672                           TS       P40TMP                                #       CS, WITH A TPAGREE, INT.INIT.)
000361: 24,2421           05140                           TC       WAITLIST
000362: 24,2422  E7,1412                                  EBANK=   TIG
000363: 24,2422           02427 50067                     2CADR    TIGON                                 #  TIGON IS REQUIRED TO MATHCHTAT AND AVEG
000364:
000365: 24,2424           05301                           TC       PHASCHNG
000366: 24,2425           40574                           OCT      40574                                 #  A, 4.57 = TIGON (P40TMP CS)
000367: 24,2426           15112                           TCF      ENDOFJOB
000368:
000369: 24,2427  E7,1672                                  EBANK=   P40TMP
000370: 24,2427           00006        TIGON              EXTEND
000371: 24,2430           32405                           DCA      ACADN83
000372: 24,2431           53223                           DXCH     AVEGEXIT
000373: 24,2432           34371                           CAF      PRIO30                                #  FORCE ZEROING OF N83 BEFORE SERVICER
000374: 24,2433           05027                           TC       NOVAC
000375: 24,2434  E7,1412                                  EBANK=   TIG
000376: 24,2434           02463 50067                     2CADR    P47BODY
000377: 24,2436           44711                           CS       BIT2                                  #  4.2 = PRECHECK (-0CS), P47BODY (PRIO30)
000378: 24,2437           12515                           TCF      TTGPHS
000379:
000380:
000381: 24,2440  E7,1412                                  EBANK=   TIG
000382: 24,2440           06006        CALCN83            TC       INTPRET
000383: 24,2441           77601                           SETPD                                          #  SET UP PUSHLIST FOR S41.1
000384: 24,2442           00001                                    0
000385: 24,2443           53375                           VLOAD    VAD
000386: 24,2444           03665                                    DELVCTL
000387: 24,2445           03433                                    DELVREF
000388: 24,2446           03460                           STORE    DV47TEMP                              #  FOR COPYCYCLE BELOW
000389: 24,2447           45006                           PUSH     CALL
000390: 24,2450           45426                                    S41.1
000391: 24,2451           37675                           STCALL   DELVIMU
000392: 24,2452           70436                                    S11.1                                 #  CALC. VI, H, HDOT FOR NOUN 62
000393: 24,2453           77776                           EXIT
000394: 24,2454           05301                           TC       PHASCHNG
000395: 24,2455           10035                           OCT      10035


000397: 24,2456           34715                           CAF      FIVE
000398: 24,2457           05475                           TC       GENTRAN
000399: 24,2460           01457                           ADRES    DV47TEMP
000400: 24,2461           01664                           ADRES    DELVCTL
000401:
000402: 24,2462           03131                           TC       SERVXT
000403: 24,2463           06006        P47BODY            TC       INTPRET
000404: 24,2464           77775                           VLOAD
000405: 24,2465           15332                                    HI6ZEROS
000406: 24,2466           03675                           STORE    DELVIMU                               #  CLEAR DISPLAY AND ACCUMULATOR STORAGE
000407: 24,2467           03665                           STORE    DELVCTL                               #  UPON INITIATION OR-ENTER-RESPONSE
000408: 24,2470           77776                           EXIT
000409: 24,2471           34762        P47BOD             CAF      PRIO15                                #  LOWER PRIO THAN CALCN83 (20)
000410: 24,2472           05103                           TC       PRIOCHNG                              #    TO PREVENT INTERRUPTION OF CALCN83
000411: 24,2473           05301                           TC       PHASCHNG
000412: 24,2474           05024                           OCT      05024                                 #  TYPE C GROUP 4 BELOW FOR NOUN 83
000413: 24,2475           15000                           OCT      15000                                 #  PRIO 15
000414: 24,2476           32346        P47/DSP            CAF      V1683
000415: 24,2477           04555                           TC       BANKCALL
000416: 24,2500           20624                           CADR     GOFLASH
000417: 24,2501           04106                           TC       GOTOPOOH
000418: 24,2502           04106                           TC       GOTOPOOH
000419: 24,2503           12463                           TCF      P47BODY                               #  RECYCLE - CLEAR ACCUMULATED VELOCITY
000420:


000422:                                                                                                  #  ROUTINE **TIG-30** DESCRIPTION
000423:
000424:
000425: 24,2504  E7,1412                                  EBANK=   TIG
000426: 24,2504                                           COUNT    24/P40
000427:
000428: 24,2504           02252        TIGAVEG            TC       P41/P40                               #  TASK (4.37 PROTECTS)
000429: 24,2505           12304                           TCF      P41REDSP                              #  P41
000430:
000431: 24,2506           32351                           CAF      V06N40                                #  UNBLANK DISPLAY
000432: 24,2507           55145                           TS       NVWORD1
000433:
000434: 24,2510           32340                           CAF      SEC24.96
000435: 24,2511           05140                           TC       WAITLIST
000436: 24,2512  E7,1412                                  EBANK=   TIG
000437: 24,2512           02523 50067                     2CADR    TIG-5
000438: 24,2514           46211                           CS       SIX                                   #  4.6 = TIG-5 (2496CS), PRECHECK (-0CS)
000439: 24,2515           04114        TTGPHS             TC       NEWPHASE                              #  ENTRY FROM P41REDSP (P41) WITH A=-4, OR
000440: 24,2516           00004                           OCT      4                                     #        FROM TIGON    (P47) WITH A=-2
000441:
000442: 24,2517           10763        PRECHECK           CCS      PHASE5                                #  HAS SERVICER BEEN RESTARTED
000443: 24,2520           15213                           TCF      TASKOVER                              #  YES, DONT START ANOTHER ONE
000444: 24,2521           04574                           TC       POSTJUMP
000445: 24,2522           76604                           CADR     PREREAD
000446:


000448:                                                                                                  #  ROUTINE **TIG-5** DESCRIPTION
000449:
000450:
000451: 24,2523  E7,1412                                  EBANK=   TIG
000452: 24,2523           33000        TIG-5              CAF      5SEC
000453: 24,2524           05140                           TC       WAITLIST
000454: 24,2525  E6,1466                                  EBANK=   DAPDATR1
000455: 24,2525           02541 50066                     2CADR    TIG-0
000456: 24,2527           44702                           CS       BIT9                                  #  WILL CAUSE V99 FLASH
000457: 24,2530           55145                           TS       NVWORD1
000458:
000459: 24,2531           05261                           TC       2PHSCHNG
000460: 24,2532           40074                           OCT      40074                                 #  A, 4.7 = TIG-0 (500CS)
000461: 24,2533           00033                           OCT      00033                                 #  A, 3.3 = S40.13 (PRIO20)
000462:
000463: 24,2534           34675                           CAF      PRIO20
000464: 24,2535           05042                           TC       FINDVAC
000465: 24,2536  E7,1427                                  EBANK=   TGO
000466: 24,2536           02404 34067                     2CADR    S40.13
000467: 24,2540           15213                           TCF      TASKOVER
000468:


000470:                                                                                                  #  ROUTINES **TIG-0** AND **IGNITION** DESCRIPTION
000471:
000472:
000473: 24,2541  E6,1466                                  EBANK=   DAPDATR1                              #  TASK, 4.7 PHASE, OR 4.77 (-0CS) IN R40
000474: 24,2541           40103        TIG-0              CS       FLAGWRD7                              #  SET IGN FLAG
000475: 24,2542           74676                           MASK     BIT13
000476: 24,2543           26103                           ADS      FLAGWRD7
000477:
000478: 24,2544           30103                           CAE      FLAGWRD7                              #  CHECK ASTN FLAG FOR V99 RESPONSE
000479: 24,2545           74677                           MASK     BIT12
000480: 24,2546           00006                           EXTEND
000481: 24,2547           15213                           BZF      TASKOVER                              #  WAIT FOR V99P
000482:
000483: 24,2550           32351                           CAF      V06N40                                #  CLEAR THE V99 (IN CASE OF A RESTART
000484: 24,2551           55145                           TS       NVWORD1                               #       DURING THE V99 SEQUENCE)
000485:
000486: 24,2552           05301                           TC       PHASCHNG                              #  V99P HAS COME ALREADY, DO IGNITION NOW
000487: 24,2553           00614                           OCT      00614                                 #  A, 4.61 = IGNITION (-0CS) TBASE OLD
000488:
000489: 24,2554           30032        IGNITION           CAE      CDUX                                  #  SAVE FOR ROLL DAP REFERENCE OGAD
000490: 24,2555           55450                           TS       OGAD                                  #       V99PJOB (CLOCKJOB) SETS UP IGNITION
000491: 24,2556           00006                           EXTEND                                         #       TASK (4.61 PROTECTION)
000492: 24,2557           30025                           DCA      TIME2                                 #       FOR RESTARTS
000493: 24,2560           53337                           DXCH     TEVENT
000494: 24,2561           40101                           CS       FLAGWRD5                              #  SET ENGONFLG
000495: 24,2562           74704                           MASK     BIT7
000496: 24,2563           26101                           ADS      FLAGWRD5
000497: 24,2564           34676        SPSON              CAF      BIT13                                 #  TURN ON SPS ENGINE
000498: 24,2565           00006                           EXTEND
000499: 24,2566           05011                           WOR      DSALMOUT
000500:
000501: 24,2567           34702        IMPULCHK           CAF      BIT9                                  #  CHECK FOR IMPULSIVE BURN
000502: 24,2570           70076                           MASK     FLAGWRD2
000503: 24,2571           10000                           CCS      A
000504: 24,2572           12657                           TCF      IMPLBURN                              #  IMPULSIVE
000505: 24,2573           40102                           CS       FLAGWRD6                              #  NON-IMPULSIVE, SET STRULLSW FOR STEERULL
000506: 24,2574           74676                           MASK     BIT13
000507: 24,2575           26102                           ADS      FLAGWRD6
000508:
000509: 24,2576           44105        PREPTVC            CS       OCT60000                              #  RESET T5 BITS
000510: 24,2577           70102                           MASK     FLAGWRD6
000511: 24,2600           54102                           TS       FLAGWRD6
000512:
000513: 24,2601           00006                           EXTEND                                         #  KILL RCS
000514: 24,2602           32360                           DCA      T5IDL24
000515: 24,2603           53313                           DXCH     T5LOC
000516:
000517: 24,2604           46214                           CS       THREE                                 #  4.3 = DOTVCON (40CS)
000518: 24,2605           04114                           TC       NEWPHASE
000519: 24,2606           00004                           OCT      4


000521: 24,2607           05156                           TC       FIXDELAY
000522: 24,2610           00050                           DEC      40         B-14                       #  0.4 SECOND DELAY FOR THRUST BUILDUP
000523:
000524: 24,2611           44712        DOTVCON            CS       BIT1                                  #  SET TVCPHASE = TVCDAPON CALL (FRESHDAP)
000525: 24,2612           55654                           TS       TVCPHASE
000526: 24,2613           34714                           CAF      ZERO                                  #  SET TVCEXECUTIVE PHASE
000527: 24,2614           55661                           TS       TVCEXPHS
000528: 24,2615           44105                           CS       OCT60000                              #  SET T5 BITS TO INDICATE TVC TAKEOVER....
000529: 24,2616           70102                           MASK     FLAGWRD6                              #       BITS 15,14  =  10
000530: 24,2617           64674                           AD       BIT15
000531: 24,2620           54102                           TS       FLAGWRD6
000532:
000533: 24,2621           36214                           CAF      THREE                                 #  6.3 = CLOKTASK (100CS), DROPPING PRE40.6
000534: 24,2622           54001                           TS       L                                     #       WHICH IS HANDLED NOW BY REDOTVC
000535: 24,2623           40000                           COM
000536: 24,2624           52765                           DXCH     -PHASE6
000537:
000538: 24,2625           44715                           CS       FIVE                                  #  4.5 = DOSTRULL  (160 CS)
000539: 24,2626           04114                           TC       NEWPHASE
000540: 24,2627           00004                           OCT      4
000541:
000542: 24,2630           34672                           CAF      POSMAX                                #  SET TIME5 FOR STARTING RIGHT AWAY
000543: 24,2631           54030                           TS       TIME5
000544: 24,2632           00006                           EXTEND
000545: 24,2633           33003                           DCA      TVCON2C                               #  (TVCDAPON)
000546: 24,2634           53313                           DXCH     T5LOC                                 #  (KILLS RCS DAP)
000547:
000548: 24,2635           05156                           TC       FIXDELAY                              #  0.4 + 1.6 = 2.0 SEC FOR ULLAGE-OFF AND
000549: 24,2636           00240                           DEC      160        B-14                       #       STEERING (IF NON-IMPULSIVE)
000550:
000551: 24,2637           34676        DOSTRULL           CAF      BIT13                                 #  CHECK STRULLSW FOR IMPULSIVE BURN
000552: 24,2640           70102                           MASK     FLAGWRD6
000553: 24,2641           10000                           CCS      A
000554: 24,2642           02650                           TCR      STEERULL                              #  NON-IMPULSIVE, STEERING AND ULLAGE OFF
000555: 24,2643           02653                           TCR      ULAGEOFF                              #  ULLAGE OFF  (ONLY, OR AGAIN)
000556:
000557: 24,2644           00006                           EXTEND
000558: 24,2645           34714                           DCA      NEG0                                  #  KILL GROUP 4  (DP NEG0 = -0,+0)
000559: 24,2646           52761                           DXCH     -PHASE4
000560:
000561: 24,2647           15213        ENDIGN             TCF      TASKOVER
000562:
000563:
000564: 24,2650           40076        STEERULL           CS       FLAGWRD2                              #  SET STEERSW
000565: 24,2651           74700                           MASK     BIT11
000566: 24,2652           26076                           ADS      FLAGWRD2
000567:
000568: 24,2653           34714        ULAGEOFF           CAF      ZERO
000569: 24,2654           00006                           EXTEND
000570: 24,2655           01005                           WRITE    CHAN5                                 #  ZERO CHANNEL 5


000572: 24,2656           00002                           TC       Q
000573:
000574:
000575: 24,2657           44676        IMPLBURN           CS       BIT13                                 #  RESET STRULLSW (COULD BE AN IMPULSIVE
000576: 24,2660           70102                           MASK     FLAGWRD6                              #       ENGINE FAIL)
000577: 24,2661           54102                           TS       FLAGWRD6
000578:
000579: 24,2662           03306                           TCR      E7SETTER
000580:
000581: 24,2663  E7,1412                                  EBANK=   TIG
000582: 24,2663           00006                           EXTEND                                         #  PREPARE FOR R1 OF V06N40 (CLOCKTASK)
000583: 24,2664           31430                           DCA      TGO
000584: 24,2665           53413                           DXCH     TIG
000585: 24,2666           00006                           EXTEND
000586: 24,2667           30025                           DCA      TIME2
000587: 24,2670           21413                           DAS      TIG
000588:
000589: 24,2671           31430                           CAE      TGO        +1                         #  (TPAGREE IN S40.13, LESS THAN 600CS)
000590: 24,2672           05140                           TC       WAITLIST
000591: 24,2673  E7,1427                                  EBANK=   TGO
000592: 24,2673           02710 50067                     2CADR    ENGINOFF
000593: 24,2675           05261                           TC       2PHSCHNG                              #  PROTECT....
000594: 24,2676           40153                           OCT      40153                                 #  A, 3.15 = ENGINOFF (TGO+1)....NOTE GROUP
000595: 24,2677           05014                           OCT      05014                                 #  C, DELTAT NEXT, TASK BELOW, IN
000596: 24,2700           77777                           DEC      -0         B-14                       #  -0 CS
000597:
000598: 24,2701           44702                           CS       BIT9                                  #  RESET IMPULSW, ENGINOFF IS NOW SET UP
000599: 24,2702           70076                           MASK     FLAGWRD2
000600: 24,2703           54076                           TS       FLAGWRD2
000601:
000602: 24,2704           03311                           TCR      E6SETTER
000603: 24,2705  E6,1466                                  EBANK=   DAPDATR1
000604:
000605: 24,2705           34714                           CAF      ZERO                                  #  SET UP V97VCNTR IN CASE ENGINOFF (MASS-
000606: 24,2706           55444                           TS       V97VCNTR                              #       BACK) ARRIVES BEFORE TVCDAPON
000607:
000608: 24,2707           12576                           TCF      PREPTVC
000609:
000610:
000611: 24,2710  E7,1427                                  EBANK=   TGO                                   #  E7 FORCED BY 3.15SPOT VARIABLE DELTA-T
000612: 24,2710           03311        ENGINOFF           TCR      E6SETTER                              #  TASK, 3.15 PHASE (TGO+1 CS)       GET E6
000613: 24,2711  E6,1466                                  EBANK=   DAPDATR1
000614: 24,2711           31474                           CAE      CSMMASS
000615: 24,2712           55662                           TS       MASSTMP                               #  COPYCYCLE FOR MASSBACK
000616: 24,2713           05261                           TC       2PHSCHNG
000617: 24,2714           00003                           OCT      00003                                 #  KILL GROUP 3 PROTECTION OF ENGINOFF, DO
000618: 24,2715           40634                           OCT      40634                                 #  A, 4.63 = DOSPSOFF  (-0CS)
000619: 24,2716           02741        DOSPSOFF           TCR      SPSOFF                                #  SHUT DOWN SPS, MASS UPDATES, ETC.
000620: 24,2717           42354                           CS       OCT27/24                              #  (OCTAL 27)


000622: 24,2720           04114                           TC       NEWPHASE
000623: 24,2721           00004                           OCT      4                                     #  4.27 = DOTVCRCS (250 CS)
000624:
000625: 24,2722           05156                           TC       FIXDELAY                              #  2.5 SECOND DELAY FOR SPS TAILOFF
000626: 24,2723           00372                           DEC      250        B-14
000627:
000628: 24,2724           02227        DOTVCRCS           TCR      SETMAXDB                              #  WIDE DEADBAND FOR CUTOFF TRANSIENT
000629:
000630: 24,2725           04633                           TC       IBNKCALL                              #  SET UP RCS DAP (KILLS TVCDAPS, SETS T5
000631: 24,2726           42010                           CADR     RCSDAPON                              #       BITS, WAITS 0.6SEC FOR TVCEXEC DIE)
000632:
000633: 24,2727           04633                           TC       IBNKCALL                              #  UPDATE WEIGHT/G AND MASS-PROPERTIES FOR
000634: 24,2730           13176                           CADR     MASSPROP                              #       RCS DAP STARTUP IN 0.6 SECONDS
000635:
000636: 24,2731           03005                           TCR      TVCZAP                                #  WIPE OUT TVC, TURN OFF CLOKTASK
000637:
000638: 24,2732           05301                           TC       PHASCHNG
000639: 24,2733           00354                           OCT      00354                                 #  A, 4.35 = POSTBURN (NOVAC, PRIO12)
000640: 24,2734           34603                           CAF      PRIO12                                #  SET UP POSTBURN V16N40 JOB
000641: 24,2735           05027                           TC       NOVAC
000642: 24,2736  E6,1466                                  EBANK=   DAPDATR1                              #  (SET MAXDB IN POST41)
000643: 24,2736           02155 50066                     2CADR    POSTBURN
000644: 24,2740           15213                           TCF      TASKOVER
000645:
000646: 24,2741  E6,1466                                  EBANK=   DAPDATR1
000647: 24,2741           00006        SPSOFF             EXTEND                                         #  ESTABLISH SPSOFF TEVENT
000648: 24,2742           30025                           DCA      TIME2
000649: 24,2743           53337                           DXCH     TEVENT
000650: 24,2744           44704                           CS       BIT7                                  #  RESET ENGONFLG
000651: 24,2745           70101                           MASK     FLAGWRD5
000652: 24,2746           54101                           TS       FLAGWRD5                              #  (RESTARTS WILL SHUT DOWN SPS NOW)
000653: 24,2747           44676                           CS       BIT13                                 #  SHUT DOWN SPS ENGINE
000654: 24,2750           00006                           EXTEND
000655: 24,2751           03011                           WAND     DSALMOUT
000656:
000657: 24,2752           31444        MASSBACK           CAE      V97VCNTR                              #  RESTORE PART OF PRE-DECREMENTED MASS
000658:                                                                                                  #                                               V97VCNTR = VCNTR UNLESS V97 IS
000659:                                                                                                  #                                               ACTIVE. ONLY V97VCNTR IS THEN RIGHT
000660: 24,2753           00006                           EXTEND                                         #    VCNTR COUNTS 1/2-SECONDS IN TVC EXEC
000661: 24,2754           72361                           MP       MDOTHI                                #       MDOT, SC<AT B+3 KG/CS
000662: 24,2755           22000                           LXCH     A
000663: 24,2756           00006                           EXTEND
000664: 24,2757           74734                           MP       1SEC                                  #  DEC 100
000665: 24,2760           61662                           AD       MASSTMP                               #  CORRECTION IS ACCURATE TO 5 CS OF FLOW
000666: 24,2761           55474                           TS       CSMMASS                               #       (1.44 KG OR 0.4 BITS)
000667:
000668: 24,2762           34674        BESTTRIM           CAF      BIT15                                 #  CHECK FOR SWITCHOVER, SELECT BEST TRIMS
000669: 24,2763           70105                           MASK     FLAGWRD9                              #       FOR NEXT IGNITION (OR REIGNITION)
000670: 24,2764           00006                           EXTEND


000672: 24,2765           12767                           BZF      DBARTRIM                              #  PRE-SWITCHOVER
000673: 24,2766           00002                           TC       Q                                     #  POST-SWITCHOVER, SO LEAVE TRIMS AS ARE
000674:
000675: 24,2767           31621        DBARTRIM           CAE      DELPBAR                               #  UPDATE TRIMS WITH DELP,YBAR
000676: 24,2770           55425                           TS       PACTOFF
000677: 24,2771           31623                           CAE      DELYBAR
000678: 24,2772           55426                           TS       YACTOFF
000679: 24,2773           00002                           TC       Q
000680:
000681: 24,2774  E6,1466                                  EBANK=   DAPDATR1
000682: 24,2774           03121 50066  STEERADS           2CADR    STEERING
000683: 24,2776           37703        .6SECT5            OCT      37703
000684: 24,2777           00000        5SECDP             DEC      0          B-14                       #  MAKE DP 5SEC
000685: 24,3000           00764        5SEC               DEC      500        B-14
000686: 24,3001           02202        OCT02202           OCT      02202                                 #  BITS 2,8,11 FOR CHANNEL 12 TVC/OPTICS
000687: 24,3002  E6,1466                                  EBANK=   DAPDATR1
000688: 24,3002           02032 36066  TVCON2C            2CADR    TVCDAPON
000689:
000690: 24,3004           00004                 -1        INHINT
000691: 24,3005           43001        TVCZAP             CS       OCT02202                              #  DISABLE TVC AND OPT ERR CNTRS, REENGAGE
000692: 24,3006           00006                           EXTEND                                         #       OPTICS DAC
000693: 24,3007           03012                           WAND     CHAN12
000694: 24,3010           44712                           CS       BIT1                                  #  ENABLE T4RUPT OPTICS MONITOR....PERMIT
000695: 24,3011           55303                           TS       OPTIND                                #      OPTICS-ZERO BUT NOT OPTICS-DRIVE
000696: 24,3012           34714                           CAF      ZERO                                  #  CLEAR NVWORD1 IN CASE CLOCKJOB WAITING
000697: 24,3013           55145                           TS       NVWORD1
000698: 24,3014           44700                           CS       BIT11                                 #  CLEAR TIMRFLAG TO STOP CLOKTASK
000699: 24,3015           70103                           MASK     FLAGWRD7
000700: 24,3016           54103                           TS       FLAGWRD7
000701: 24,3017           00002                           TC       Q
000702: 24,3020  E6,1466                                  EBANK=   DAPDATR1
000703: 24,3020           43020        UPDATEVG           STQ      BON
000704: 24,3021           03730                                    QTEMP1
000705: 24,3022           01307                                    XDELVFLG
000706: 24,3023           51047                                    CALL40.8
000707:
000708: 24,3024           50135                           SLOAD    BMN
000709: 24,3025           03347                                    NBRCYCLS
000710: 24,3026           51053                                    SETUP.9
000711:
000712: 24,3027           53375                           VLOAD    VAD
000713: 24,3030           03351                                    DELVSUM
000714: 24,3031           03433                                    DELVREF
000715: 24,3032           03357                           STORE    DELVSUMP
000716: 24,3033           77776                           EXIT
000717: 24,3034           34712                           CA       ONE
000718: 24,3035           61746                           AD       NBRCYCLS
000719: 24,3036           55747                           TS       NBRCYCLP


000721: 24,3037           05301                           TC       PHASCHNG                              #  TYPE B RESTART BELOW AND 5.3 REREADACCS
000722: 24,3040           10035                           OCT      10035
000723:
000724: 24,3041           31747                           CA       NBRCYCLP
000725: 24,3042           55746                           TS       NBRCYCLS
000726: 24,3043           06006                           TC       INTPRET
000727: 24,3044           77775                           VLOAD
000728: 24,3045           03357                                    DELVSUMP
000729: 24,3046           03351                           STORE    DELVSUM
000730:
000731: 24,3047           77624        CALL40.8           CALL
000732: 24,3050           34130                                    S40.8
000733: 24,3051           77650                           GOTO
000734: 24,3052           03730                                    QTEMP1
000735:
000736: 24,3053           67214        SETUP.9            BON      SLOAD
000737: 24,3054           01310                                    FIRSTFLG
000738: 24,3055           51070                                    SURELY.9
000739: 24,3056           03350                                    NBRCYCLP
000740: 24,3057           74301                           NORM     VXSC                                  #  (NORM  HANDLES ZERO PROPERLY)
000741: 24,3060           00047                                    X1
000742: 24,3061           03705                                    BDT
000743: 24,3062           53257                           VSR*     VAD
000744: 24,3063           20563                                    0          -14D,1
000745: 24,3064           03646                                    VGTEMP
000746: 24,3065           77651                           VSU
000747: 24,3066           03351                                    DELVSUM
000748: 24,3067           03721                           STORE    VGPREV
000749: 24,3070           77776        SURELY.9           EXIT
000750: 24,3071           34676                           CAF      PRIO10
000751: 24,3072           05042                           TC       FINDVAC
000752: 24,3073  E6,1466                                  EBANK=   DAPDATR1
000753: 24,3073           02257 34066                     2CADR    S40.9
000754: 24,3075           05261                           TC       2PHSCHNG
000755: 24,3076           00051                           OCT      00051                                 #  A, 1.5 = REDO40.9, PRIO 10
000756: 24,3077           10035                           OCT      10035
000757: 24,3100           06006                           TC       INTPRET
000758: 24,3101           77775                           VLOAD
000759: 24,3102           01171                                    RN                                    #  ACTIVE VEHICLE RADIUS VECTOR AT T1
000760: 24,3103           27570                           STOVL    RINIT
000761: 24,3104           01177                                    VN                                    #  ACTIVE VEHICLE VELOCITY VECTOR AT T1
000762: 24,3105           17576                           STODL    VINIT
000763: 24,3106           01205                                    PIPTIME
000764: 24,3107           03474                           STORE    TNIT
000765: 24,3110           77621                           BDSU
000766: 24,3111           03656                                    TPASS4
000767: 24,3112           27423                           STOVL    DELLT4
000768: 24,3113           15332                                    HI6ZEROS
000769: 24,3114           17351                           STODL    DELVSUM


000771: 24,3115           15332                                    HI6ZEROS
000772: 24,3116           03347                           STORE    NBRCYCLS
000773: 24,3117           77650                           GOTO
000774: 24,3120           51047                                    CALL40.8
000775: 24,3121  E6,1466                                  EBANK=   DAPDATR1
000776: 24,3121           06006        STEERING           TC       INTPRET
000777: 24,3122           77624                           CALL
000778: 24,3123           51020                                    UPDATEVG
000779: 24,3124           77776                           EXIT
000780: 24,3125           34702                           CAF      BIT9                                  #  CHECK IMPULSW
000781: 24,3126           70076                           MASK     FLAGWRD2
000782: 24,3127           10000                           CCS      A
000783: 24,3130           13133                           TCF      +3                                    #  PRE-IGNITE, REQUEST ENG-OFF, OR POST-OFF
000784: 24,3131           04574        SERVXT             TC       POSTJUMP
000785: 24,3132           77136                           CADR     SERVEXIT
000786: 24,3133           34676                           CAF      BIT13                                 #  CHECK ENGINE-ON/-OFF
000787: 24,3134           00006                           EXTEND
000788: 24,3135           02011                           RAND     DSALMOUT
000789: 24,3136           00006                           EXTEND
000790: 24,3137           13131                           BZF      SERVXT                                #  ENGINE-OFF, SO PRE-IGNITE OR POST-OFF
000791: 24,3140           03306                           TCR      E7SETTER
000792: 24,3141  E7,1412                                  EBANK=   TIG
000793: 24,3141           00004                           INHINT
000794: 24,3142           00006                           EXTEND
000795: 24,3143           31413                           DCA      TIG
000796: 24,3144           52155                           DXCH     MPAC
000797: 24,3145           00006                           EXTEND
000798: 24,3146           40025                           DCS      TIME2
000799: 24,3147           20155                           DAS      MPAC
000800: 24,3150           07224                           TCR      DPAGREE
000801: 24,3151           30155                           CAE      MPAC       +1                         #  (LESS THAN 6 (OR 4) SECONDS TO GO)
000802: 24,3152           10000                           CCS      A                                     #  PROTECT AGAINST NEG/ZRO W.L. CALL
000803: 24,3153           13156                           TCF      +3
000804: 24,3154           13156                           TCF      +2
000805: 24,3155           34714                           CAF      ZERO
000806: 24,3156           64712                           AD       ONE
000807: 24,3157           56001                           XCH      L
000808: 24,3160           34714                           CA       ZERO
000809: 24,3161           53430                           DXCH     TGO
000810: 24,3162           31430                           CA       TGO        +1
000811: 24,3163           05140                           TC       WAITLIST
000812: 24,3164  E7,1427                                  EBANK=   TGO
000813: 24,3164           02710 50067                     2CADR    ENGINOFF
000814:
000815: 24,3166           05261                           TC       2PHSCHNG
000816: 24,3167           40153                           OCT      40153                                 #  A, 3.15 = ENGINOFF (TGO+1)....NOTE GROUP
000817: 24,3170           10035                           OCT      10035                                 #  B, 5.3 = REREADAC, AND START BELOW
000818: 24,3171           05447                           TC       DOWNFLAG                              #  CLEAR IMPULSW, ENGINOFF IS NOW SET UP
000819: 24,3172           00044                           ADRES    IMPULSW                               #  RESTARTS OK


000821: 24,3173           13131                           TCF      SERVXT
000822:


000824:                                                                                                  #  ROUTINE  **CLOKTASK** DESCRIPTION
000825:
000826:
000827: 24,3174  E7,1412                                  EBANK=   TIG
000828: 24,3174           34700        CLOKTASK           CAF      BIT11                                 #  IS TIMRFLAG SET
000829: 24,3175           70103                           MASK     FLAGWRD7
000830: 24,3176           10000                           CCS      A
000831: 24,3177           13203                           TCF      CLOCKON
000832: 24,3200           05301                           TC       PHASCHNG
000833: 24,3201           00006                           OCT      00006                                 #  KILL RESTART
000834: 24,3202           05213                           TC       TASKOVER
000835:
000836: 24,3203           00006        CLOCKON            EXTEND
000837: 24,3204           30025                           DCA      TIME2
000838: 24,3205           53661                           DXCH     TTOGO
000839: 24,3206           00006                           EXTEND
000840: 24,3207           41413                           DCS      TIG
000841: 24,3210           21661                           DAS      TTOGO
000842:
000843: 24,3211           34734        SETCLOCK           CAF      1SEC
000844: 24,3212           05140                           TC       WAITLIST
000845: 24,3213  E7,1412                                  EBANK=   TIG
000846: 24,3213           03174 50067                     2CADR    CLOKTASK
000847:
000848: 24,3215           11145                           CCS      NVWORD1
000849: 24,3216           13221                           TCF      +3
000850: 24,3217           13231                           TCF      SETTB6
000851:
000852: 24,3220           13221                           TCF      +1
000853: 24,3221           42347                           CS       V06N85B                               #  CHECK FOR V06N85B (P41)
000854: 24,3222           61145                           AD       NVWORD1
000855: 24,3223           00006                           EXTEND
000856: 24,3224           13234                           BZF      SETUPDYN                              #  V06N85, SO UPDATE N85 FOR DYNAMIC DISP
000857:
000858: 24,3225           37664                           CAF      PRIO27
000859: 24,3226           05027                           TC       NOVAC
000860: 24,3227  E6,1466                                  EBANK=   DAPDATR1
000861: 24,3227           03246 50066                     2CADR    CLOCKJOB
000862: 24,3231           40025        SETTB6             CS       TIME1                                 #  SET GROUP6 TIMEBASE
000863: 24,3232           55065                           TS       TBASE6
000864: 24,3233           15213                           TCF      TASKOVER
000865:
000866: 24,3234           37664        SETUPDYN           CAF      PRIO27                                #  SET UP A JOB TO UPDATE N85 (FOR P41=V06)
000867: 24,3235           05042                           TC       FINDVAC
000868: 24,3236  E6,1466                                  EBANK=   DAPDATR1
000869: 24,3236           03241 50066                     2CADR    DYNDISP
000870: 24,3240           13231                           TCF      SETTB6                                #  CLOSE OUT CLOCKTASK


000872: 24,3241           06006        DYNDISP            TC       INTPRET                               #  UPDATE N85 FOR A DYNAMIC V06N85 IN P41.
000873: 24,3242           77624                           CALL                                           #       PRIOR TO BLANKING AND AVEG (V16N85)
000874: 24,3243           50314                                    P40CNV85
000875: 24,3244           77776                           EXIT
000876: 24,3245           13256                           TCF      CKNVWRD1
000877:


000879:                                                                                                  #  ROUTINE  **CLOCKJOB** DESCRIPTION
000880:
000881:
000882: 24,3246  E6,1466                                  EBANK=   DAPDATR1
000883: 24,3246           30032        CLOCKJOB           CA       CDUX
000884: 24,3247           54772                           TS       CDUSPOTX
000885: 24,3250           30033                           CA       CDUY
000886: 24,3251           54766                           TS       CDUSPOTY
000887: 24,3252           30034                           CA       CDUZ
000888: 24,3253           54770                           TS       CDUSPOTZ
000889: 24,3254           04555                           TC       BANKCALL
000890: 24,3255           47510                           CADR     QUICTRIG
000891: 24,3256           00004        CKNVWRD1           INHINT
000892: 24,3257           11145                           CCS      NVWORD1                               #  DETERMINE FUNCTION, INDICATED BY NVWORD1
000893: 24,3260           13303                           TCF      NOFLASH
000894: 24,3261           15112                           TCF      ENDOFJOB
000895: 24,3262           13272                           TCF      ENGREQST                              #  SPS ENGINE-ON-ENABLE V99 FLASH
000896: 24,3263           32351        FAILDSP            CAF      V06N40                                #  SPS ENGINE-FAILED V97 FLASH
000897: 24,3264           04555                           TC       BANKCALL
000898: 24,3265           20763                           CADR     GOFLASHR                              #  LINUS MAKES IT A REDO,  INHINT OK
000899: 24,3266           13352                           TCF      V97T                                  #  TERMINATE
000900: 24,3267           13405                           TCF      V97P                                  #  PROCEED
000901: 24,3270           13434                           TCF      V97E                                  #  ENTER
000902: 24,3271           13300                           TCF      PASTERET
000903:
000904: 24,3272           32351        ENGREQST           CAF      V06N40
000905: 24,3273           04555                           TC       BANKCALL
000906: 24,3274           20763                           CADR     GOFLASHR                              #  LINUS MAKES IT A REDO,  INHINT OK
000907: 24,3275           13322                           TCF      V99T                                  #  TERMINATE
000908: 24,3276           13330                           TCF      V99P                                  #  PROCEED
000909: 24,3277           13314                           TCF      V99E                                  #  ENTER
000910:
000911: 24,3300           32352        PASTERET           CAF      P40OK99                               #  IMMED RETURN - SET UP V99 OR V97
000912: 24,3301           05415                           TCR      LINUS
000913: 24,3302           15112                           TCF      ENDOFJOB
000914:
000915:
000916: 24,3303           31145        NOFLASH            CAE      NVWORD1                               #  DISPLAY NVWORD1 NORMALLY
000917: 24,3304           04555                           TC       BANKCALL
000918: 24,3305           20616                           CADR     REGODSP
000919:
000920:
000921: 24,3306           34753        E7SETTER           CAF      EBANK7
000922: 24,3307           54003                           TS       EBANK
000923: 24,3310  E7,1412                                  EBANK=   TIG
000924: 24,3310           00002                           TC       Q
000925:
000926: 24,3311           34752        E6SETTER           CAF      EBANK6                                #  SET UP EBANK6
000927: 24,3312           54003                           TS       EBANK
000928: 24,3313  E6,1466                                  EBANK=   DAPDATR1


000930: 24,3313           00002                           TC       Q
000931:
000932: 24,3314  E6,1466                                  EBANK=   DAPDATR1
000933: 24,3314           05261        V99E               TC       2PHSCHNG
000934: 24,3315           00006                           OCT      00006                                 #  KILL PRE40.6/CLOKTASK PROTECTION
000935: 24,3316           05024                           OCT      05024                                 #  C, PRIORITY NEXT, JOB BELOW
000936: 24,3317           27000                           OCT      27000
000937: 24,3320           03004        V99EJOB            TCR      TVCZAP     -1                         #  WIPE OUT TVC, CLOKTASK
000938: 24,3321           12163                           TCF      P40RCS                                #  V16N85 POST-BURN OPERATIONS
000939:
000940: 24,3322  E6,1466                                  EBANK=   DAPDATR1
000941: 24,3322           05261        V99T               TC       2PHSCHNG                              #  (ENTRY FROM V97T FLOW TOO)
000942: 24,3323           00006                           OCT      00006                                 #  KILL PRE40.6/CLOKTASK PROTECTION
000943: 24,3324           05024                           OCT      05024                                 #  C, PRIORITY NEXT, JOB BELOW
000944: 24,3325           27000                           OCT      27000
000945: 24,3326           03004        V99TJOB            TCR      TVCZAP     -1                         #  WIPE OUT TVC, CLOKTASK
000946: 24,3327           12204                           TCF      POST41                                #  AVEGEXIT, SETMAXDB, GOTOPOOH
000947:
000948:
000949: 24,3330           00004        V99P               INHINT
000950: 24,3331           30103                           CAE      FLAGWRD7                              #  CHECK ASTN FLAG FOR PRIOR V99P
000951: 24,3332           74677                           MASK     BIT12
000952: 24,3333           10000                           CCS      A
000953: 24,3334           13347                           TCF      V99P/TIG                              #  YES, THIS MUST BE A RESTART ENTRY
000954:
000955: 24,3335           34677        ASTNV99P           CAF      BIT12                                 #  SET ASTN FLAG
000956: 24,3336           26103                           ADS      FLAGWRD7
000957: 24,3337           30103                           CAE      FLAGWRD7                              #  CHECK IGN FLAG FOR TIG-0 ARRIVAL
000958: 24,3340           74676                           MASK     BIT13
000959: 24,3341           00006                           EXTEND
000960: 24,3342           13347                           BZF      V99P/TIG                              #  NO, CLEAR THE V99 AND WAIT FOR TIG-0
000961:
000962: 24,3343           34712        ENDV99PI           CAF      BIT1                                  #  TIG-0 HAS COME ALREADY
000963: 24,3344           05140                           TC       WAITLIST                              #  SET UP IGNITION HERE
000964: 24,3345  E6,1466                                  EBANK=   DAPDATR1
000965: 24,3345           02554 50066                     2CADR    IGNITION
000966: 24,3347           32351        V99P/TIG           CAF      V06N40                                #  CLEAR THE V99 FLASH AND WAIT FOR TIG-0
000967: 24,3350           55145                           TS       NVWORD1
000968: 24,3351           15112        ENDV99P            TCF      ENDOFJOB
000969:
000970: 24,3352  E6,1474                                  EBANK=   CSMMASS
000971: 24,3352           05261        V97T               TC       2PHSCHNG
000972: 24,3353           00006                           OCT      00006                                 #  KILL GROUP 6 (CLOKTASK)
000973: 24,3354           40674                           OCT      40674                                 #  A, 4.67 = V97TTASK (-0 CS), TBASE NOW
000974: 24,3355           34712                           CAF      BIT1
000975: 24,3356           05130                           TC       TWIDDLE
000976: 24,3357           03361                           ADRES    V97TTASK                              #  KEEP EBANK6 FOR MASSES, SPSOFF, ETC.
000977: 24,3360           15112                           TCF      ENDOFJOB


000979: 24,3361  E6,1474                                  EBANK=   CSMMASS
000980: 24,3361           34714        V97TTASK           CAF      ZERO                                  #  DISABLE CLOCKJOB
000981: 24,3362           55145                           TS       NVWORD1
000982: 24,3363           32363                           CAF      3MDOT                                 #  3 SECONDS OF MDOT (2-4 SEC ENGFAIL
000983: 24,3364           61474                           AD       CSMMASS                               #        DETECTION) NOT LOST BECAUSE THRUST
000984: 24,3365           55662                           TS       MASSTMP                               #        FAILED.  COPYCYCLE FOR MASSBACK
000985: 24,3366           05301                           TC       PHASCHNG
000986: 24,3367           05014                           OCT      05014                                 #  C, DELTAT NEXT, TASK BELOW, IN
000987: 24,3370           77777                           DEC      -0         B-14                       #  -0 CS
000988:
000989: 24,3371           02741                           TCR      SPSOFF                                #  SHUTDOWN SPS ENGINE, MASS UPDATE, ETC.
000990: 24,3372           05301                           TC       PHASCHNG
000991: 24,3373           00714                           OCT      00714                                 #  A, 4.71 = V97TRCS (250 CS), TBASE OLD
000992: 24,3374           05156                           TC       FIXDELAY                              #  DELAY 2.5 SECONDS FOR (POSSIBLE) TAIL-
000993: 24,3375           00372                           DEC      250        B-14                       #       OFF (FALSE THRUST-LOSS)
000994:
000995: 24,3376  E6,1466                                  EBANK=   DAPDATR1
000996: 24,3376           04633        V97TRCS            TC       IBNKCALL                              #  RCS DAP IN 0.6SEC, SETTING T5 BITS TO
000997: 24,3377           42010                           CADR     RCSDAPON                              #       KILL TVCEXEC/TVCROLLDAP STARTS
000998: 24,3400           37664                           CAF      PRIO27                                #  SET UP V99T FOR TVCZAP AND POST41 (SET-
000999: 24,3401           05027                           TC       NOVAC                                 #       MAXDB AND GOTOPOOH)
001000: 24,3402  E6,1466                                  EBANK=   DAPDATR1                              #  EBANK6 FOR SETMAXDB IN POST41
001001: 24,3402           03322 50066                     2CADR    V99T
001002: 24,3404           15213        ENDV97T            TCF      TASKOVER
001003:
001004:
001005: 24,3405  E6,1444                                  EBANK=   V97VCNTR
001006: 24,3405           05301        V97P               TC       PHASCHNG
001007: 24,3406           40734                           OCT      40734                                 #  A, 4.73 = V97PTASK (-0 CS), TBASE NOW
001008: 24,3407           34712                           CAF      BIT1
001009: 24,3410           05130                           TC       TWIDDLE
001010: 24,3411           03413                           ADRES    V97PTASK
001011: 24,3412           15112                           TCF      ENDOFJOB
001012:
001013: 24,3413  E6,1444                                  EBANK=   V97VCNTR
001014: 24,3413           31444        V97PTASK           CAE      V97VCNTR                              #  GET MASS UPDATES (TVCEXEC) GOING AGAIN
001015: 24,3414           55653                           TS       VCNTR                                 #       (ERRORS IF FLASE THRUST-LOSS AND/OR
001016:                                                                                                  #                                                POOR SYNCH OF MANUAL ENGINE-ON AND
001017:                                                                                                  #                                                THE VERB 97 PROCEED)
001018: 24,3415           32351                           CAF      V06N40                                #  REDISPLAY V06N40
001019: 24,3416           55145                           TS       NVWORD1
001020: 24,3417           05435                           TC       UPFLAG                                #  SET IDLEFAIL TO ALLOW R41-BYPASS, IN
001021: 24,3420           00030                           ADRES    IDLEFAIL                              #       CASE OF UNFAVORABLE S40.8 SYNCH
001022: 24,3421           05435                           TC       UPFLAG                                #  SET STEERSW TO RE-ENABLE STEERING
001023: 24,3422           00042                           ADRES    STEERSW
001024: 24,3423           05301                           TC       PHASCHNG
001025: 24,3424           00134                           OCT      00134                                 #  A, 4.13 = R40ENABL (200 CS), TBASE OLD
001026: 24,3425           05156                           TC       FIXDELAY                              #  WAIT 2 SECONDS, THEN
001027: 24,3426           00310                           DEC      200        B-14


001029: 24,3427  0003777                                  EBANK=   WHOCARES
001030: 24,3427           05447        R40ENABL           TC       DOWNFLAG                              #  RE-ENABLE R40 BY CLEARING IDLEFAIL
001031: 24,3430           00030                           ADRES    IDLEFAIL
001032: 24,3431           05301                           TC       PHASCHNG
001033: 24,3432           00004                           OCT      00004                                 #  KILL GROUP 4
001034: 24,3433           15213        ENDV97P            TCF      TASKOVER
001035:
001036:
001037: 24,3434  0003777                                  EBANK=   WHOCARES
001038: 24,3434           05301        V97E               TC       PHASCHNG
001039: 24,3435           40534                           OCT      40534                                 #  A, 4.53 = V97ETASK (-0 CS), TBASE NOW
001040: 24,3436           34712                           CAF      BIT1
001041: 24,3437           05140                           TC       WAITLIST
001042: 24,3440  E7,1412                                  EBANK=   TIG
001043: 24,3440           03443 50067                     2CADR    V97ETASK
001044: 24,3442           15112                           TCF      ENDOFJOB
001045:
001046: 24,3443  E7,1412                                  EBANK=   TIG
001047: 24,3443           44112        V97ETASK           CS       OCT24                                 #  FORCE R1 OF V06N40 TO READ  59X59
001048: 24,3444           55412                           TS       TIG
001049: 24,3445           32351                           CAF      V06N40                                #  REDISPLAY V06N40
001050: 24,3446           55145                           TS       NVWORD1
001051: 24,3447           03311                           TCR      E6SETTER                              #  RETURN TO EBANK6 FOR REST OF V97ETASK
001052: 24,3450  E6,1474                                  EBANK=   CSMMASS
001053: 24,3450           32363                           CAF      3MDOT                                 #  3 SECONDS OF MDOT (2-4 SEC ENGFAIL
001054: 24,3451           61474                           AD       CSMMASS                               #       DETECTION) NOT LOST BECAUSE THRUST
001055: 24,3452           55662                           TS       MASSTMP                               #       FAILED....COPYCYCLE FOR MASSBACK
001056: 24,3453           05301                           TC       PHASCHNG
001057: 24,3454           00754                           OCT      00754                                 #  A, 4.75 = SPSOFF97 (-0 CS), TBASE OLD
001058: 24,3455           02741        SPSOFF97           TCR      SPSOFF
001059: 24,3456           05301                           TC       PHASCHNG
001060: 24,3457           00114                           OCT      00114                                 #  A, 4.11 = V97E40.6 (250 CS), TBASE OLD
001061: 24,3460           05156                           TC       FIXDELAY                              #  DELAY 2.5 SECONDS  FOR (POSSIBLE) TAIL-
001062: 24,3461           00372                           DEC      250        B-14                       #       OFF (FALSE THRUST-LOSS)
001063:
001064: 24,3462  E6,1466                                  EBANK=   DAPDATR1
001065: 24,3462           34712        V97E40.6           CAF      BIT1
001066: 24,3463           05140                           TC       WAITLIST
001067: 24,3464  E6,1447                                  EBANK=   CNTR
001068: 24,3464           02040 40066                     2CADR    PRE40.6                               #  USE S40.6 RESTART ENTRY TO TRIM ENGINE
001069: 24,3466           04633                           TC       IBNKCALL                              #  RCS DAP IN 0.6SEC, SETTING T5 BITS TO
001070: 24,3467           42010                           CADR     RCSDAPON                              #       KILL TVCEXEC/TVCROLLDAP STARTS.
001071:                                                                                                  #                                               LEAVE NARROW DEADBAND FOR REIGNITE
001072: 24,3470           05261                           TC       2PHSCHNG
001073: 24,3471           00026                           OCT      00026                                 #  A, 6.2 = PRE40.6 (-0CS), CLOKTASK (1SEC)
001074: 24,3472           05014                           OCT      05014                                 #  C, DELTAT NEXT, TASK BELOW, IN
001075: 24,3473           77777                           DEC      -0         B-14                       #  -0 CS


001077: 24,3474           44761        QUICKIGN           CS       PRIO14                                #  CLEAR ASTNFLAG AND SET IGNFLAG FOR
001078: 24,3475           70103                           MASK     FLAGWRD7                              #       IMMEDIATE V99 RESPONSE
001079: 24,3476           64676                           AD       BIT13
001080: 24,3477           54103                           TS       FLAGWRD7
001081: 24,3500           05156                           TC       FIXDELAY                              #  DELAY TO ALLOW TIME FOR PRE40.6
001082: 24,3501           00036                           DEC      30         B-14
001083:
001084: 24,3502           44702        V99FLASH           CS       BIT9                                  #  CAUSE V99 TO FLASH
001085: 24,3503           55145                           TS       NVWORD1
001086: 24,3504           05261                           TC       2PHSCHNG
001087: 24,3505           40774                           OCT      40774                                 #  A, 4.77 = TIG-0 (-0CS) TBASE FOR PREPTVC
001088: 24,3506           00033                           OCT      00033                                 #  A, 3.3 = S40.13 (PRIO 20)
001089: 24,3507           34675                           CAF      PRIO20                                #  SET UP TIMEBURN
001090: 24,3510           05042                           TC       FINDVAC
001091: 24,3511  E7,1427                                  EBANK=   TGO
001092: 24,3511           02404 34067                     2CADR    S40.13
001093: 24,3513           15213        ENDV97E            TCF      TASKOVER                              #  WAIT FOR CLOCKJOB (IMMEDIATE) REACTION
001094:                                                                                                  #                                               TO FLASHING V99 RESPONSE
001095:
001096:
001097:                                                                                                  #  MOD NO2         LOG SECTION  P40-P47
001098:                                                                                                  #  MOD BY   ZELDIN
001099:                                                                                                  #  FUNCTIONAL DESCRIPTION
001100:                                                                                                  #           COMPUTE INITIAL THRUST DIRECTION(UT) AND INITIAL VALUE OF VG
001101:                                                                                                  #           VECTOR(VGTIG).
001102:                                                                                                  #  CALLING SEQUENCE
001103:                                                                                                  #         L CALL
001104:                                                                                                  #       L+1        S40.1
001105:                                                                                                  #  NORMAL EXIT MODE
001106:                                                                                                  #           AT L+2 OF CALLING SEQUENCE (GOTO L+2)  NORMAL RETURN OR
001107:                                                                                                  #           ERROR RETURN IF NOSOFLAG =1
001108:                                                                                                  #  SUBROUTINES CALLED
001109:                                                                                                  #           CSMPREC
001110:                                                                                                  #           INITVEL
001111:                                                                                                  #           CALCGRAV
001112:                                                                                                  #           MIDGIM
001113:                                                                                                  #  ALARM OR ABORT EXIT MODES
001114:                                                                                                  #       L+2 OF CALLING SEQUENCE,UNSOLVABLE CONIC IF NOSOFLAG=1
001115:                                                                                                  #  ERASABLE INITIALIZATION REQUIRED
001116:                                                                                                  #           WEIGHT/G   ANTICIPATED MAG. OF VEHICLE MASS     SP B16KGM
001117:                                                                                                  #           XDELVFLG       1=DELTA-V MANEUVER,0=AIMPT STEER
001118:                                                                                                  #        IF DELTA-V MANEUVER
001119:                                                                                                  #           DELVSIN   SPECIFIED DELTA-V REQUIRED IN
001120:                                                                                                  #                     INERTIAL COORDS. OF ACTIVE VEHICLE
001121:                                                                                                  #                     AT TIME OF IGNITION                 VECTOR B7M/CS
001122:                                                                                                  #           DELVSAB   MAG. OF DELVSIN                     DP     B7M/CS
001123:                                                                                                  #           RTIG      POSITION AT TIME OF IGNITION       VECTOR B29M
001124:                                                                                                  #           VTIG      VELOCITY AT TIME OF IGNITION       VECTOR B7M/CS
001125:                                                                                                  #           CSTEER = 0             DP


001127:                                                                                                  #        IF AIMPOINT STEERING
001128:                                                                                                  #        IF AIMPT STEER
001129:                                                                                                  #           TIG       TIME OF IGNITION                    DP     B28CS
001130:                                                                                                  #           RTARG     POSITION TARGET TIME               VECTOR B29M
001131:                                                                                                  #           CSTEER = ECSTEER(GR 0) DP B1
001132:                                                                                                  #           TPASS4 - TIME OF ARRIVAL AT AIMPOINT
001133:                                                                                                  #  OUTPUT
001134:                                                                                                  #           UT    1/2 UNIT VECTOR ALIGNED WITH THRUST DIRECTION IN REF COOR
001135:                                                                                                  #        VGTIG        INITIAL VALUE OF VELOCITY
001136:                                                                                                  #                     TO BE GAINED (INERT. COORD.)        VECTOR B7M/CS
001137:                                                                                                  #        DELVLVC      VGTIG IN LOC. VERT. COORDS.                B7M/CS
001138:                                                                                                  #           F         NOMINAL THRUST FOR ENG USED FOR S40.13  DP B7 M-NEWT
001139:                                                                                                  #           BDT   V REQUIRED AT TIG -V REQUIRED AT (TIG-2SEC)
001140:                                                                                                  #           -GDT  FOR S40.13                                   VECT  B7M/CS
001141:                                                                                                  #        RTIG         CALC IN S40.1B(AIMPT) FOR S40.2,3  VECTOR B29M
001142:                                                                                                  #                     POSITION AT TIME OF IGNITION
001143:                                                                                                  #  DEBRIS      QTEMP1
001144:                                                                                                  #        MPAC,QPRET
001145:                                                                                                  #        PUSHLIST
001146:                                                                                                  #           RTX2,RTX1
001147: 14,2002                                           BANK     14
001148: 16,2000                                           SETLOC   P40S1
001149: 16,2000                                           BANK
001150:
001151: 16,2000                                           COUNT    16/S40.1
001152:
001153: 16,2000           77214        S40.1              SET      VLOAD
001154: 16,2001           01070                                    FIRSTFLG
001155: 16,2002           11453                                    LO6ZEROS
001156: 16,2003           03705                           STORE    BDT
001157: 16,2004           43020                           STQ      BOF
001158: 16,2005           03657                                    QTEMP
001159: 16,2006           01347                                    XDELVFLG
001160: 16,2007           34073                                    S40.1B                                #  LAMBERT
001161: 16,2010           77201                           SETPD    VLOAD                                 #  EXTERNAL DELTA V
001162: 16,2011           00001                                    0
001163: 16,2012           03640                                    VTIG
001164: 16,2013           03576                           STORE    VINIT
001165: 16,2014           53435                           VXV      UNIT
001166: 16,2015           03632                                    RTIG
001167: 16,2016           27713                           STOVL    UT                                    #  UP IN UT
001168: 16,2017           03632                                    RTIG
001169: 16,2020           03570                           STORE    RINIT
001170: 16,2021           65236                           VSQ      PDDL
001171: 16,2022           00045                                    36D
001172: 16,2023           56205                           DMP      DDV
001173: 16,2024           34127                                    THETACON
001174: 16,2025           41205                           DMP      DMP
001175: 16,2026           03654                                    DELVSAB
001176: 16,2027           03076                                    WEIGHT/G


001178: 16,2030           77671                           DDV
001179: 16,2031           03727                                    F
001180: 16,2032           24017                           STOVL    14D
001181: 16,2033           03646                                    DELVSIN
001182:
001183: 16,2034           74241                           DOT      VXSC
001184: 16,2035           03713                                    UT
001185: 16,2036           03713                                    UT
001186: 16,2037           41552                           VSL2     PUSH                                  #  (DELTAV.UP)UP SCALED AT 2(+7) P.D.L. 0
001187: 16,2040           65245                           BVSU     PDDL                                  #  DELTA VP SCALED AT 2(+7) P.D.L. 6
001188: 16,2041           03646                                    DELVSIN
001189: 16,2042           00017                                    14D
001190: 16,2043           63356                           SIN      PDVL
001191: 16,2044           00007                                    6D
001192: 16,2045           53435                           VXV      UNIT
001193: 16,2046           03713                                    UT
001194: 16,2047           45561                           VXSC     STADR
001195: 16,2050           50056                           STOVL    VGTIG                                 #  UNIT(VPXUP)SIN(THETAT) IN VGTIG
001196: 16,2051           65256                           UNIT     PDDL                                  #  UNIT(DELTA VP) IN P.D.L. 6
001197: 16,2052           00017                                    14D
001198: 16,2053           74346                           COS      VXSC
001199: 16,2054           74255                           VAD      VXSC
001200: 16,2055           03721                                    VGTIG
001201: 16,2056           00045                                    36D
001202: 16,2057           53352                           VSL2     VAD
001203: 16,2060           77626                           STADR
001204: 16,2061           74056                           STORE    VGTIG                                 #  VG IGNITION SCALED AT 2(+7)M/CS
001205:
001206: 16,2062           77656                           UNIT
001207: 16,2063           27713                           STOVL    UT                                    #  THRUST DIRECTION SCALED AT 2(+1)
001208: 16,2064           03721                                    VGTIG
001209: 16,2065           43006                           PUSH     SET
001210: 16,2066           01072                                    AVFLAG
001211: 16,2067           77624                           CALL
001212: 16,2070           10653                                    MIDGIM                                #  VGTIG IN LV COOR AT 2(+7)M/CS IN DELVLVC
001213: 16,2071           77650                           GOTO
001214: 16,2072           03657                                    QTEMP
001215: 16,2073           45345        S40.1B             DLOAD    DSU                                   #  LAMBERT
001216: 16,2074           03413                                    TIG
001217: 16,2075           36001                                    TWODT
001218: 16,2076           14041                           STODL    TDEC1
001219: 16,2077           03656                                    TPASS4
001220: 16,2100           77625                           DSU
001221: 16,2101           00041                                    TDEC1
001222: 16,2102           37423                           STCALL   DELLT4
001223: 16,2103           61663                                    AGAIN
001224: 16,2104           77775                           VLOAD
001225: 16,2105           03612                                    VIPRIME
001226: 16,2106           17713                           STODL    UT
001227: 16,2107           03413                                    TIG


001229: 16,2110           00041                           STORE    TDEC1
001230: 16,2111           77621                           BDSU
001231: 16,2112           03656                                    TPASS4
001232: 16,2113           37423                           STCALL   DELLT4
001233: 16,2114           61663                                    AGAIN
001234: 16,2115           41575                           VLOAD    PUSH
001235: 16,2116           03646                                    DELVEET3
001236: 16,2117           03721                           STORE    VGTIG
001237: 16,2120           45014                           SET      CALL
001238: 16,2121           01072                                    AVFLAG
001239: 16,2122           10653                                    MIDGIM
001240: 16,2123           52001                           SETPD    GOTO
001241: 16,2124           00001                                    0
001242: 16,2125           61716                                    CALCUT
001243:
001244: 16,2126           00024 13714  THETACON           2DEC     .31830989  B-8
001245: 30,2000                                           SETLOC   P40S3
001246: 30,2000                                           BANK
001247:
001248: 30,3657                                           COUNT    24/S40.1
001249:
001250: 30,3657           04000 00000  EP4(45)H           2DEC     .125
001251: 30,3661           00707 03434  EP4(10)H           2DEC     .027777777
001252:
001253: 30,3663           45020        AGAIN              STQ      CALL
001254: 30,3664           03730                                    QTEMP1
001255: 30,3665           27022                                    THISPREC
001256: 30,3666           66134                           SXA,2    SXA,1
001257: 30,3667           03746                                    RTX2
001258: 30,3670           03745                                    RTX1
001259: 30,3671           77775                           VLOAD
001260: 30,3672           00001                                    RATT
001261: 30,3673           03632                           STORE    RTIG
001262: 30,3674           27570                           STOVL    RINIT
001263: 30,3675           00007                                    VATT
001264: 30,3676           03640                           STORE    VTIG
001265: 30,3677           03576                           STORE    VINIT
001266: 30,3700           67201                           SETPD    SLOAD
001267: 30,3701           00001                                    0
001268: 30,3702           15332                                    HI6ZEROS
001269: 30,3703           43125                           PDDL     BON
001270: 30,3704           21660                                    EP4(45)H
001271: 30,3705           03705                                    NORMSW
001272: 30,3706           61711                                    +3
001273: 30,3707           77745                           DLOAD
001274: 30,3710           21662                                    EP4(10)H
001275: 30,3711           45006                           PUSH     CALL
001276: 30,3712           22000                                    INITVEL


001278: 30,3713           52001                           SETPD    GOTO
001279: 30,3714           00001                                    0
001280: 30,3715           03730                                    QTEMP1
001281: 30,3716           45175        CALCUT             VLOAD    CALL
001282: 30,3717           03632                                    RTIG
001283: 30,3720           77260                                    CALCGRAV                              #  GDELTAT IN MPAC AT 2(+7)M/CS
001284: 30,3721           70372                           VSL1     V/SC
001285: 30,3722           21761                                    200CS                                 #  G AT 2(-5) M/CS.CS
001286: 30,3723           52315                           PDVL     VSU
001287: 30,3724           03612                                    VIPRIME
001288: 30,3725           03713                                    UT
001289: 30,3726           52341                           V/SC     VSU
001290: 30,3727           21761                                    200CS
001291: 30,3730           72561                           VXSC     VSL2
001292: 30,3731           03703                                    CSTEER
001293: 30,3732           24015                           STOVL    12D                                   #  B.C SCALED AT 2(-5) PDL 12D
001294: 30,3733           03721                                    VGTIG
001295: 30,3734           41456                           UNIT     PUSH                                  #  UG PDL 0 SCALED AT 2(+1)
001296:
001297: 30,3735           74241                           DOT      VXSC
001298: 30,3736           00015                                    12D
001299: 30,3737           00001                                    0
001300: 30,3740           51352                           VSL2     BVSU
001301: 30,3741           00015                                    12D
001302: 30,3742           14015                           STODL    12D                                   #  Q PDL 12D SCALED AT 2(-5)
001303: 30,3743           03727                                    F
001304: 30,3744           56261                           SRR      DDV
001305: 30,3745           21605                                    4
001306: 30,3746           03076                                    WEIGHT/G
001307: 30,3747           63316                           DSQ      PDVL                                  #  F/MASS SQUARED PDL 6 AT 2(-10)M/(CS.CS)
001308: 30,3750           00015                                    12D
001309: 30,3751           77636                           VSQ
001310: 30,3752           75421                           BDSU     SQRT
001311: 30,3753           76561                           VXSC     VSL1
001312: 30,3754           53455                           VAD      UNIT
001313: 30,3755           00015                                    12D
001314: 30,3756           37713                           STCALL   UT
001315: 30,3757           03657                                    QTEMP
001316: 30,3760           01440 00000  200CS              2DEC     200        B-12
001317:


001319:                                                                                                  #  PROGRAM DESCRIPTION S40.2,3  DATE 15,NOV,66
001320:                                                                                                  #  MOD NO 2        LOG SECTION P40-P47
001321:                                                                                                  #  MOD BY ZELDIN
001322:                                                                                                  #  FUNCTIONAL DESCRIPTION
001323:                                                                                                  #           COMPUTE GIMBAL ANGLES IF THRUSTING OCCURRED WITH PRESENT IMU
001324:                                                                                                  #           ORIENTATION, WINGS LEVEL SPACECRAFT,HEADS UP
001325:                                                                                                  #           COMPUTE X AXIS OF ENGINE BELL
001326:                                                                                                  #           COMPUTE PREFERRED IMU ORIENTATION(XSCREF)
001327:                                                                                                  #           FOR THIS CALCULATION,ASSUME X AXIS OF SC ALONG UT INITIALLY,
001328:                                                                                                  #           YSC=UNIT(XXR),ZSC=UNIT(XX(XXR)) AND ROTATE ENGINE BELL ALONG UT
001329:                                                                                                  #           NEW SC AXES WILL BE APPROX. WINGS LEVEL AND NEW SC AXES IN REF.
001330:                                                                                                  #           COORDS. WILL BE PREFERRED IMU ORIENTATION.
001331:                                                                                                  #           COMPUTE DESIRED THRUST DIRECTION IN SM COORDS.
001332:                                                                                                  #  CALLING SEQUENCE
001333:                                                                                                  #         L CALL
001334:                                                                                                  #        L+1 S40.2,3
001335:                                                                                                  #  NORMAL EXIT MODE
001336:                                                                                                  #        AT L+2 OF CALLING SEQUENCE (GOTO L+2)
001337:                                                                                                  #  SUBROUTINES CALLED
001338:                                                                                                  #           CALCGA
001339:                                                                                                  #  ALARM OR ABORT MODES
001340:                                                                                                  #           NONE
001341:                                                                                                  #  ERASABLE INITIALIZATION REQUIRED
001342:                                                                                                  #           PACTOFF      TOTAL PITCH TRIM ANGLE     SP  AT 1.0795111 REV.
001343:                                                                                                  #           YACTOFF      TOTAL YAW   TRIM ANGLE     SP  AT 1.0795111 REV.
001344:                                                                                                  #           UT           DESIRED THRUST DIRECTION          VECT.B2M/(CS.CS)
001345:                                                                                                  #           RTIG         POSITION AT TIME OF IGNITION      VECT.    B29M
001346:                                                                                                  #           ENG2FLAG     ON=RCS  OFF=SPS
001347:                                                                                                  #  OUTPUT
001348:                                                                                                  #           SCAXIS       UNIT VECT. ALIGNED WITH ENG BELL IN SC COOR B1
001349:                                                                                                  #           XSCREF       UNIT VECTORS ALIGNED WITH PREFERRED IMU     B1
001350:                                                                                                  #           YSCREF
001351:                                                                                                  #           ZSCREF
001352:                                                                                                  #           GIMBAL ANGLES IN THETAD
001353:                                                                                                  #           POINTVSM     UNIT VECT ALONG DESIRED THRUST DIRECTION IN SM B1
001354:                                                                                                  #  DEBRIS
001355:                                                                                                  #           PUSHLIST,QPRET,MPAC
001356:                                                                                                  #           QTEMP  TEMP. ERASABLE
001357: 24,3514                                           BANK     24
001358: 24,2000                                           SETLOC   P40S
001359: 24,2000                                           BANK
001360: 24,3514                                           COUNT*   $$/S40.2
001361: 24,3514           64375        S40.2,3            VLOAD    MXV
001362: 24,3515           03713                                    UT
001363: 24,3516           01736                                    REFSMMAT
001364: 24,3517           44172                           VSL1     STQ
001365: 24,3520           03657                                    QTEMP
001366: 24,3521           03357                           STORE    POINTVSM                              #  THRUST IN SM AT 2
001367: 24,3522           43001                           SETPD    BON
001368: 24,3523           00001                                    0


001370: 24,3524           00704                                    ENG2FLAG
001371: 24,3525           51635                                    S40.2,3B
001372: 24,3526           77745                           DLOAD
001373: 24,3527           15332                                    HI6ZEROS
001374: 24,3530           67206                           PUSH     SLOAD                                 #  ZERO PDL 0
001375: 24,3531           03027                                    YACTOFF
001376: 24,3532           72405                           DMP      SL1
001377: 24,3533           11674                                    TRIMSCAL
001378: 24,3534           41415                           DAD      PUSH
001379: 24,3535           11676                                    YBIAS
001380: 24,3536           65346                           COS      PDDL                                  #  COS(Y +Y0) PDL 2
001381: 24,3537           41556                           SIN      PUSH                                  #  SIN(Y +Y0) PDL 4
001382: 24,3540           77735                           SLOAD
001383: 24,3541           03026                                    PACTOFF
001384: 24,3542           72405                           DMP      SL1
001385: 24,3543           11674                                    TRIMSCAL
001386: 24,3544           41415                           DAD      PUSH
001387: 24,3545           11700                                    PBIAS
001388: 24,3546           65346                           COS      PDDL                                  #  COS(P +P0) PDL 6
001389: 24,3547           41556                           SIN      PUSH                                  #  SIN(P +P0) PDL 8D
001390: 24,3550           14323                           STODL    ZSCREF                                #  SIN(P +P0)
001391: 24,3551           00007                                    6
001392: 24,3552           72405                           DMP      SL1
001393: 24,3553           00005                                    4
001394: 24,3554           65276                           DCOMP    PDDL                                  #  -SIN(Y+Y0)COS(P+P0) PDL 10
001395: 24,3555           00007                                    6
001396: 24,3556           72405                           DMP      SL1
001397: 24,3557           00003                                    2
001398: 24,3560           77666                           VDEF
001399:
001400: 24,3561           14307                           STODL    XSCREF                                #   PD POINTER AT 6 NEW SC X AXIS SCALED AT
001401: 24,3562           00323                                    ZSCREF
001402: 24,3563           72405                           DMP      SL1
001403: 24,3564           00005                                    4
001404: 24,3565           41325                           PDDL     DMP
001405: 24,3566           00323                                    ZSCREF
001406: 24,3567           00003                                    2
001407: 24,3570           57552                           SL1      DCOMP
001408: 24,3571           77666                           VDEF
001409:
001410: 24,3572           14323                           STODL    ZSCREF                                #  PD POINTER AT 4 NEW SCZ AXIS SCALED AT 2
001411: 24,3573           77666                           VDEF
001412:
001413: 24,3574           14315                           STODL    YSCREF                                #  PD POINTER AT0 NEW SC Y AXIS SCALED AT 2
001414: 24,3575           00323                                    ZSCREF
001415: 24,3576           65325                           PDDL     PDDL
001416: 24,3577           00315                                    YSCREF
001417: 24,3600           00307                                    XSCREF
001418: 24,3601           77666                           VDEF


001420: 24,3602           27351                           STOVL    SCAXIS                                #  ENGINE BELL SCALED AT 2
001421: 24,3603           03713                                    UT
001422: 24,3604           53515                           PDVL     UNIT
001423: 24,3605           03632                                    RTIG
001424: 24,3606           57435                           VXV      VCOMP
001425: 24,3607           00001                                    0
001426: 24,3610           41456                           UNIT     PUSH
001427: 24,3611           77624                           CALL
001428: 24,3612           51654                                    TSTRXUT
001429: 24,3613           57435                           VXV      VCOMP
001430: 24,3614           00001                                    0
001431: 24,3615           63372                           VSL1     PDVL                                  #  2 RF/SC  IN PDL  12D
001432: 24,3616           00307                                    XSCREF
001433: 24,3617           76505                           VXM      VSL1
001434: 24,3620           00001                                    0
001435: 24,3621           24307                           STOVL    XSCREF                                #  X OF PREF IMU,X OF SC IN REF COOR. AT 2
001436: 24,3622           00315                                    YSCREF
001437: 24,3623           76505                           VXM      VSL1
001438: 24,3624           00001                                    0
001439: 24,3625           24315                           STOVL    YSCREF                                #  Y OF PREF.IMU,Y OF SC IN REF COOR. AT 2
001440: 24,3626           00323                                    ZSCREF
001441: 24,3627           76505                           VXM      VSL1
001442: 24,3630           00001                                    0
001443: 24,3631           00323                           STORE    ZSCREF                                #  Z OF PREF. IMU,Z OF SC IN REF COOR. AT 2
001444: 24,3632           52001                           SETPD    GOTO
001445: 24,3633           00001                                    0
001446: 24,3634           03657                                    QTEMP
001447: 24,3635           77775        S40.2,3B           VLOAD
001448: 24,3636           15330                                    UNITX
001449: 24,3637           27351                           STOVL    SCAXIS
001450: 24,3640           03713                                    UT
001451: 24,3641           00307                           STORE    XSCREF
001452: 24,3642           53435                           VXV      UNIT
001453: 24,3643           03632                                    RTIG
001454: 24,3644           34007                           STCALL   6D
001455: 24,3645           51654                                    TSTRXUT
001456: 24,3646           00315                           STORE    YSCREF
001457: 24,3647           57435                           VXV      VCOMP
001458: 24,3650           00307                                    XSCREF
001459: 24,3651           77772                           VSL1
001460: 24,3652           34323                           STCALL   ZSCREF                                #  ZNB AXIS IN REF COOR
001461: 24,3653           03657                                    QTEMP
001462: 24,3654           46145        TSTRXUT            DLOAD    BHIZ
001463: 24,3655           00045                                    36D
001464: 24,3656           51661                                    BADVCTOR
001465: 24,3657           43575                           VLOAD    RVQ
001466: 24,3660           00007                                    6D
001467: 24,3661           53575        BADVCTOR           VLOAD    UNIT
001468: 24,3662           03632                                    RTIG
001469: 24,3663           53515                           PDVL     UNIT


001471: 24,3664           03640                                    VTIG
001472: 24,3665           53322                           VSR3     VAD
001473: 24,3666           53435                           VXV      UNIT
001474: 24,3667           03713                                    UT
001475: 24,3670           77676                           VCOMP
001476: 24,3671           00007                           STORE    6D
001477: 24,3672           77616                           RVQ
001478: 24,3673           21215 12215  TRIMSCAL           2DEC     1.07975111 B-1
001479: 24,3675           00053 07423  YBIAS              2DEC     +.00263888889                            #  YAW   MECH BIAS (+0.95 DEG, THRUST ON)
001480: 24,3677           77636 44653  PBIAS              2DEC     -.00597222222                            #  PITCH MECH BIAS (-2.15 DEG, THRUST ON)
001481:                                                                                                  #                                          REFERENCE, TRW 68.6520.3.3-40 27FEB,1968
001482:                                                                                                  #  PROGRAM DESCRIPTION S41.1  DATE 8DEC66
001483:                                                                                                  #  MOD NO1   LOG SECTION P40-P47
001484:                                                                                                  #  MOD BY ZELDIN
001485:                                                                                                  #  FUNCTIONAL DESCRIPTION
001486:                                                                                                  #           COMPUTE VELOCITY TO BE GAINED INITIALLY IN REF COORDS.
001487:                                                                                                  #           TO CONTROL COORDS.
001488:                                                                                                  #  CALLING SEQUENCE
001489:                                                                                                  #       L   CALL
001490:                                                                                                  #       L+1        S41.1
001491:                                                                                                  #  NORMAL EXIT MODE
001492:                                                                                                  #           AT L +2 OF CALLING SEQUENCE
001493:                                                                                                  #  SUBROUTINES CALLED:
001494:                                                                                                  #           CALCSMSC
001495:                                                                                                  #           CDUTRIG
001496:                                                                                                  #  ALARM OR ABORT MODES
001497:                                                                                                  #           NONE
001498:                                                                                                  #  ERASABLE INITIALIZATION REQUIRED
001499:                                                                                                  #           VG IN REF. COORD. PDL L POINTER AT L+5 .S41.1 WILL RETURN WITH
001500:                                                                                                  #           POINTER AT L (L MUST BE LESS THAN OR = TO 14D)
001501:                                                                                                  #  OUTPUT
001502:                                                                                                  #           MPAC CONTAINS VG IN CONTROL COORDS           VECT. B7M/CS
001503:                                                                                                  #  DEBRIS:
001504:                                                                                                  #         QTEMP    TEMP ERASABLE
001505:                                                                                                  #         QPRET
001506: 24,3701                                           COUNT    22/S41.1
001507:
001508: 22,2000                                           SETLOC   P40S5
001509: 22,2000                                           BANK
001510:
001511: 22,3426           45020        S41.1              STQ      CALL
001512: 22,3427           03657                                    QTEMP
001513: 22,3430           47432                                    CDUTRIG
001514: 22,3431           77775                           VLOAD
001515: 22,3432           45121                           MXV      CALL
001516: 22,3433           01736                                    REFSMMAT
001517: 22,3434           47577                                    *SMNB*


001519: 22,3435           74321                           MXV      VXSC
001520: 22,3436           05004                                    QUADROT
001521: 22,3437           05443                                    TENBNK14                              #  VG IN CONTROL COORD IN MPAC SCALED AT
001522: 22,3440           52072                           VSL5     GOTO                                  #  VG IN CONTROL COORDS. IN MPAC AT 2(+7)
001523: 22,3441           03657                                    QTEMP
001524: 22,3442           24000 00000  TENBNK14           2DEC     10.        B-4
001525:


001527:                                                                                                  #  NAME        S40.8 - CROSS PRODUCT STEERING
001528:                                                                                                  #  FUNCTION    (1) UPDATES THE VELOCITY-TO-BE-GAINED VECTOR.
001529:                                                                                                  #              (2) GENERATES ANGULAR RATE STEERING COMMANDS FOR AUTOPILOT.
001530:                                                                                                  #              (3) ESTABLISHES ENGINE CUT-OFF SIGNALS AT APPROPRIATE TIMES.
001531:                                                                                                  #              (4) INITIATES THRUST-FAIL ROUTINE, R40
001532:                                                                                                  #  CALLING SEQ CALL S40.8
001533:                                                                                                  #  INPUT       VGPREV  - LAST VALUE OF THE VELOCITY-TO-BE-GAINED VECTOR
001534:                                                                                                  #                        PRIOR TO UPDATING IN METERS/CS AT +7.
001535:                                                                                                  #              DELVREF - CHANGE IN VEHICLE VELOCITY SINCE LAST MEASUMEMENT
001536:                                                                                                  #                        IN METERS/CS AT +7.
001537:                                                                                                  #              BDT     - EFFECT OF RATE OF CHANGE OF REQUIRED VELOCITY AND
001538:                                                                                                  #                        GRAVITY DURING DT UPON VELOCITY-TO-BE-GAINED IN
001539:                                                                                                  #                        METERS/CS AT +7.
001540:                                                                                                  #              CSTEER  - A SCALAR OF THE STEERING LAW, SC.AT B+1, USED FOR
001541:                                                                                                  #                        SPS AIMPOINT STEERING MANEUVERS
001542:                                                                                                  #              IDLEFAIL- A FLAG TO INHIBIT (IDLE) THE THRUST-FAIL ROUTINE
001543:                                                                                                  #              STEERSW - A SWITCH TO PRECLUDE NEEDLESS CONDUCT OF STEERING
001544:                                                                                                  #              REFSMMAT, DAPDATR1, PIPTIME
001545:                                                                                                  #              EREPFRAC, ETDECAY, KPRIMEDT FOR TVC
001546:                                                                                                  #  OUTPUT      TTOGO   - TIME REMAINING FOR ENGINE BURN IN CS AT +28
001547:                                                                                                  #              OMEGAC  - DP VECTOR RATE COMMAND, SC.AT  1/(2TVCDT) REVS/SEC
001548:                                                                                                  #              VG, VGPREV, VGDISP, TGO, TIG, SCALED AS NOTED IN CODING
001549:                                                                                                  #              STEERSW, IMPULSW, NVWORD1
001550:                                                                                                  #              REPFRAC, CNTR, VCNTR, VCNTRTMP FOR TVC (R40 INTERFACING)
001551:                                                                                                  #  DEBRIS      OMEGAXC,+1
001552:                                                                                                  #  SUBROUTINES USED    - *SMNB* , ALARM
001553:
001554: 16,2000                                           SETLOC   P40S1
001555: 16,2000                                           BANK
001556: 16,2130  E6,1466                                  EBANK=   DAPDATR1
001557: 16,2130                                           COUNT    16/S40.8
001558:
001559: 16,2130           44001        S40.8              SETPD    STQ
001560: 16,2131           00001        SPBIT1                      00D
001561: 16,2132           03657                                    QTEMP
001562: 16,2133           51375                           VLOAD    BVSU                                  #       CONSTRUCT DELVG, SC.AT B+7  M/CS
001563: 16,2134           03433                                    DELVREF
001564: 16,2135           03705                                    BDT
001565: 16,2136           77655                           VAD
001566: 16,2137           03721                                    VGPREV
001567: 16,2140           03460                           STORE    VG                                    #  VELOCITY-TO-BE-GAINED, SC.AT B+7  M/CS
001568:
001569: 16,2141           77646                           ABVAL
001570: 16,2142           03654                           STORE    VGDISP                                #  FOR DISPLAY PURPOSES
001571: 16,2143           77776                           EXIT
001572: 16,2144           05301                           TC       PHASCHNG
001573: 16,2145           10035                           OCT      10035                                 #  TYPE B  RESTART BELOW AND 5.3 REREADAC
001574:
001575: 16,2146           06006                           TC       INTPRET
001576: 16,2147           77775                           VLOAD


001578: 16,2150           03460                                    VG
001579: 16,2151           03721                           STORE    VGPREV
001580: 16,2152           77214                           BOFF     VLOAD
001581: 16,2153           01344                                    STEERSW                               #  SKIP TGO AND CROSS-PRODUCT
001582: 16,2154           03657                                    QTEMP
001583: 16,2155           03433                                    DELVREF
001584: 16,2156           41446                           ABVAL    PUSH                                  #  CHECK FOR LOTHRUST
001585: 16,2157           41335                           SLOAD    DMP
001586: 16,2160           01354                                    DVTHRESH                              #  SC.AT B-2 M/CS
001587: 16,2161           36011                                    DPB-9
001588: 16,2162           77621                           BDSU
001589: 16,2163           77440                           BMN      EXIT
001590: 16,2164           40021                                    LOTHRUST
001591: 16,2165           31466                           CAE      DAPDATR1                              #  ENABLE TVCDAP CG TRACKING
001592: 16,2166           74675                           MASK     BIT14
001593: 16,2167           10000                           CCS      A
001594: 16,2170           34712                           CAF      BIT1
001595: 16,2171           50000                           INDEX    A                                     #  LM-OFF, LM-ON VALUE
001596: 16,2172           31423                           CAE      EREPFRAC
001597: 16,2173           55652                           TS       REPFRAC
001598:
001599: 16,2174           06006                           TC       INTPRET
001600: 16,2175           51375        TGOCALC            VLOAD    BVSU                                  #  GET DELVG
001601: 16,2176           03433                                    DELVREF
001602: 16,2177           03705                                    BDT
001603: 16,2200           77656                           UNIT
001604: 16,2201           41441                           DOT      PUSH                                  #  (00D)
001605: 16,2202           03460                                    VG
001606: 16,2203           56244                           BPL      DDV                                   #  ANGLE SHOULD BE GREATER THAN PI/2
001607: 16,2204           40013                                    INCRSVG                               #       DISPLAY ALARM IF NOT
001608: 16,2205           36005                                    2VEXHUST
001609: 16,2206           41215                           DAD      DMP                                   #  (DOT PRODUCT UP FROM 00D)
001610: 16,2207           11451                                    LODPHALF
001611: 16,2210           70501                           NORM     SR1
001612: 16,2211           00047                                    X1
001613: 16,2212           60325                           PDDL     NORM
001614: 16,2213           00045                                    36D                                   #  (MAG DELVG)
001615: 16,2214           00050                                    X2
001616: 16,2215           77665                           BDDV
001617: 16,2216           53664                           XSU,2    SL*
001618: 16,2217           00046                                    X1
001619: 16,2220           57607                                    0          -9D,2
001620: 16,2221           41405                           DMP      PUSH                                  #  (00D)
001621: 16,2222           36003                                    -FOURDT
001622: 16,2223           54335                           SLOAD    SR
001623: 16,2224           03016                                    ETDECAY                               #  ETDECAY SC.AT B+14 CS
001624: 16,2225           20617                                    14D
001625: 16,2226           45421                           BDSU     STADR
001626: 16,2227           74347                           STORE    TGO                                   #  TIME TO GO IN CS. AT +28
001627: 16,2230           77615                           DAD


001629: 16,2231           01205                                    PIPTIME
001630: 16,2232           17413                           STODL    TIG
001631: 16,2233           03430                                    TGO
001632: 16,2234           50025                           DSU      BMN
001633: 16,2235           36007                                    FOURSEC
001634: 16,2236           40000                                    S40.81
001635:
001636: 16,2237           74375        XPRODUCT           VLOAD    VXSC
001637: 16,2240           03705                                    BDT
001638: 16,2241           03703                                    CSTEER
001639: 16,2242           52352                           VSL2     VSU
001640: 16,2243           03433                                    DELVREF
001641: 16,2244           63256                           UNIT     PDVL
001642: 16,2245           03460                                    VG
001643: 16,2246           47256                           UNIT     VXV
001644: 16,2247           45121                           MXV      CALL
001645: 16,2250           01736                                    REFSMMAT                              #  (REFSMMAT/2)
001646: 16,2251           47577                                    *SMNB*
001647: 16,2252           77761                           VXSC
001648: 16,2253           03245                                    KPRIMEDT                              #  (KPRIMEDT SCIAT PI/8 RAD)
001649: 16,2254           03126        OMEGACLC           STORE    OMEGAC
001650: 16,2255           77650                           GOTO
001651: 16,2256           03657                                    QTEMP
001652:
001653: 17,2000                                           SETLOC   DAPS7
001654: 17,2000                                           BANK
001655: 17,2000                                           COUNT    17/S40.8
001656:
001657: 17,2000           00000 00310  TWODT              2DEC     200.0      B-28                       #  2 SEC
001658: 17,2002           77715 77777  -FOURDT            2DEC     -800       B-18                       #  -4(200CS), SC.AT B+18CS (-4 FOR SCALING)
001659: 17,2004           17602 25124  2VEXHUST           2DEC     63.020792  B-7                        #  2(10338.0564 FPS), SC.AT B+7 M/CS
001660: 17,2006           00000 00620  FOURSEC            2DEC     400.0      B-28                       #  4 SEC
001661: 17,2010           00040 00000  DPB-9              2DEC     1          B-9
001662: 20,2000                                           SETLOC   DAPS6
001663: 20,2000                                           BANK
001664:
001665: 20,2000                                           COUNT    20/S40.8
001666:
001667: 20,2000           77214        S40.81             SET      VLOAD                                 #  TGO LESS THAN 4 SECONDS
001668: 20,2001           01066                                    IMPULSW                               #  FOR ENGINE-OFF CALL
001669: 20,2002           15332                                    HI6ZEROS
001670: 20,2003           03126        RATEZRO            STORE    OMEGAC                                #  TVC TO ATTITUDE HOLD
001671: 20,2004           77776                           EXIT
001672: 20,2005           34672                           CAF      POSMAX                                #  INHIBIT SWITCHOVER/TVC EG TRACKING
001673: 20,2006           55447                           TS       CNTR


001675: 20,2007           06006                           TC       INTPRET
001676: 20,2010           52014                           CLEAR    GOTO
001677: 20,2011           01264                                    STEERSW                               #  RESTARTS OK
001678: 20,2012           03657                                    QTEMP
001679: 20,2013           77776        INCRSVG            EXIT                                           #  ALARM INDICATING THAT THRUST IS POINTING
001680: 20,2014           05537                           TC       ALARM                                 #  IN WRONG DIRECTION.
001681: 20,2015           01407                           OCT      01407
001682: 20,2016           06006                           TC       INTPRET
001683: 20,2017           77650                           GOTO
001684: 20,2020           03657                                    QTEMP
001685:
001686: 20,2021           77214        LOTHRUST           BON      VLOAD                                 #  THRUST FAILURE (LO-OR-NO) INDICATED
001687: 20,2022           00711                                    IDLEFAIL                              #  SET BY V97P. ALLOWS 1 BYPASS IN CASE OF
001688: 20,2023           03657                                    QTEMP                                 #       UNFAVORABLE S40.8 SYNCH
001689: 20,2024           15332                                    HI6ZEROS                              #  START OF ENGINE-FAIL (R40) OPERATIONS
001690: 20,2025           03126                           STORE    OMEGAC                                #  PUT TVC IN ATTITUDE HOLD
001691: 20,2026           77776                           EXIT
001692:
001693: 20,2027           44714                           CS       ZERO
001694: 20,2030           55653                           TS       VCNTR                                 #  KILL CSMMASS UPDATING
001695: 20,2031           55663                           TS       VCNTRTMP                              #  (TVCEXEC LOGIC REQUIRES THIS TOO)
001696: 20,2032           55652                           TS       REPFRAC                               #  KILL TVCDAP CG TRIM TRACKING
001697: 20,2033           55145                           TS       NVWORD1                               #  SET UP ENGINE-FAIL V97FLASH (CLOCKJOB)
001698:
001699: 20,2034           06006                           TC       INTPRET
001700: 20,2035           52014                           CLEAR    GOTO                                  #  INHIBIT STEERING AND TGO CALC (MANUAL
001701: 20,2036           01264                                    STEERSW                               #       SHUTDOWN IF NOT SET UP AGAIN)
001702: 20,2037           03657                                    QTEMP                                 #  RESTARTS OK
001703:


001705:                                                                                                  #  NAME        S40.9 - VTOGAIN (AIMPOINT MANEUVERS ONLY)
001706:                                                                                                  #  FUNCTION    (1) GENERATES REQUIRED VELOCITY AND VELOCITY-TO-BE-GAINED
001707:                                                                                                  #              VECTORS FOR USE DURING AIMPOINT MANEUVERS
001708:                                                                                                  #              (2) UPDATES THE B VECTOR WHICH IS USED IN THE FINAL
001709:                                                                                                  #              CALCULATION OF EXTRAPOLATING THE VELOCITY-TO-BE-GAINED
001710:                                                                                                  #  CALLING SEQ VIA FINDVAC AS NEW JOB.
001711:                                                                                                  #  INPUT       RNIT     - ACTIVE VEHICLE RADIUS VECTOR IN METERS AT +29.
001712:                                                                                                  #              VNIT     - ACTIVE VEHICLE VELOCITY VECTOR IN METERS/CS AT +7
001713:                                                                                                  #              VRPREV   - LAST COMPUTED VELOCITY REQUIRED VECTOR IN
001714:                                                                                                  #                         METERS/CS AT +7.
001715:                                                                                                  #              NOMTIG     - TIME OF IGN. USED IN TARGETTING ROUTINES%+28"
001716:                                                                                                  #              DELLT4     - TRANSFER TIME FROM PIPTIME TO TARGET%+28"
001717:                                                                                                  #              TNIT       - TIME OF RNIT AND VNIT IN CS AT +28
001718:                                                                                                  #              GDT/2    - HALF OF VELOCITY GAINED IN DELTA T TIME DUE TO
001719:                                                                                                  #                         ACCERERATION OF GRAVITY IN METERS/CS AT +7.
001720:                                                                                                  #              DELVREF  - CHANGE IN VELOCITY DURING LAST 2 SEC IN
001721:                                                                                                  #                         METERS/CS AT +7.
001722:                                                                                                  #           NORMSW   SET=CENTRAL ANGLE BETWEEN RTARG AND RTIG IS BETWEEN
001723:                                                                                                  #                    165 TO 195 DEGREES
001724:                                                                                                  #                    RESET=CENTRAL ANGLE OUTSIDE CONE DESCRIBED ABOVE
001725:                                                                                                  #  OUTPUT      VGTEMP   - VELOCITY TO BE GAINED VECTOR IN METERS/CS AT +7.
001726:                                                                                                  #              COGA       - INPUT OF INITIAL GUESS FOR LAMBERT FROM S40.1 O
001727:                                                                                                  #                         OR PREVIOUS PASS THRU S40.9
001728:                                                                                                  #              GOBL/2     -OBLATENESS TERM IN AVG GRAV CALC-GOBL*RSQ/MU
001729:                                                                                                  #              VRPREV   - VELOCITY REQUIRED VECTOR IN METERS/CS AT +7.
001730:                                                                                                  #              BDT      - B VECTOR IN METERS/CS AT +7.
001731:                                                                                                  #  SUBROUTINES USED  -  INITVEL
001732: 16,2000                                           SETLOC   P40S1
001733: 16,2000                                           BANK
001734:
001735: 16,2257  E6,1746                                  EBANK=   NBRCYCLS
001736: 16,2257                                           COUNT    16/S40.9
001737:
001738: 16,2257           06006        S40.9              TC       INTPRET
001739: 16,2260           71201                           SETPD    DLOAD
001740: 16,2261           00001                                    00D
001741: 16,2262           11453                                    LO6ZEROS
001742: 16,2263           77725                           PDDL
001743: 16,2264           34401                                    EP4(45)L
001744: 16,2265           71214                           BON      DLOAD
001745: 16,2266           03705                                    NORMSW
001746: 16,2267           34271                                    +2
001747: 16,2270           34403                                    EP4(10)L
001748: 16,2271           77606                           PUSH
001749: 16,2272           45014                           CLEAR    CALL
001750: 16,2273           00675                                    GUESSW
001751: 16,2274           22002                                    HAVEGUES
001752: 16,2275           77776                           EXIT
001753: 16,2276           05301                           TC       PHASCHNG                              #  SAVE TIME BY NOT REDOING LAMBERT CALCS
001754: 16,2277           05021                           OCT      05021                                 #  C, PRIORITY NEXT, JOB BELOW


001756: 16,2300           10000                           OCT      10000
001757: 16,2301           06006                           TC       INTPRET
001758: 16,2302           77614        ENDLAMB            BON
001759: 16,2303           01310                                    FIRSTFLG
001760: 16,2304           34322                                    FIRSTTME
001761: 16,2305           52375                           VLOAD    VSU
001762: 16,2306           03612                                    VIPRIME
001763: 16,2307           03466                                    VRPREV
001764: 16,2310           45325                           PDDL     DSU
001765: 16,2311           03474                                    TNIT
001766: 16,2312           03476                                    TNITPREV
001767: 16,2313           55261                           SL       BDDV
001768: 16,2314           20222                                    17D
001769: 16,2315           34375                                    200CSHI
001770: 16,2316           77761                           VXSC
001771: 16,2317           76451                           VSU      VSL1
001772: 16,2320           01207                                    GDT/2
001773: 16,2321           03705                           STORE    BDT
001774: 16,2322           57535        FIRSTTME           SLOAD    DCOMP
001775: 16,2323           03747                                    RTX2
001776: 16,2324           77640                           BMN
001777: 16,2325           34342                                    MOONCASE
001778: 16,2326           53575                           VLOAD    UNIT
001779: 16,2327           01171                                    RN
001780: 16,2330           45345                           DLOAD    DSU
001781: 16,2331           01205                                    PIPTIME
001782: 16,2332           03450                                    NOMTIG
001783: 16,2333           56205                           DMP      DDV
001784: 16,2334           34377                                    EARTHMU
001785: 16,2335           00043                                    34D
001786: 16,2336           53361                           VXSC     VAD
001787: 16,2337           01215                                    GOBL/2
001788: 16,2340           03646                                    VGTEMP                                #  NOTE  NO TEST IS MADE TO SUBTRACT GOBL
001789: 16,2341           03646                           STORE    VGTEMP                                #  INSIDE 165-195 DEGREE CONE AREA.
001790: 16,2342           77776        MOONCASE           EXIT
001791: 16,2343           05301                           TC       PHASCHNG
001792: 16,2344           04021                           OCT      04021                                 #  C, JOB BELOW
001793:
001794: 16,2345           06006        COPY40.9           TC       INTPRET
001795: 16,2346           77745                           DLOAD
001796: 16,2347           03474                                    TNIT
001797: 16,2350           27476                           STOVL    TNITPREV
001798: 16,2351           03612                                    VIPRIME
001799: 16,2352           03466                           STORE    VRPREV
001800: 16,2353           77414                           CLEAR    EXIT
001801: 16,2354           01270                                    FIRSTFLG
001802: 16,2355           44712                 -2        CS       ONE                                   #  REDO40.9 (RESTART)  ENTRY TO END  S40.9
001803: 16,2356           55746                           TS       NBRCYCLS
001804: 16,2357           05301        ENDS40.9           TC       PHASCHNG
001805: 16,2360           00001                           OCT      00001


001807: 16,2361           15112                           TCF      ENDOFJOB
001808:
001809: 16,2362           06006        REDO40.9           TC       INTPRET                               #  S40.9 RESTARTS COME HERE TO GRACEFULLY
001810: 16,2363           77775                           VLOAD                                          #       TERMINATE S40.9 SO THAT IT CAN BE
001811: 16,2364           11453                                    LO6ZEROS                              #       SET UP WITH LATEST R,V,T NEXT PASS
001812: 16,2365           17351                           STODL    DELVSUM                               #       (TYPE C PHASE POINTS '04021' WILL
001813: 16,2366           11453                                    LO6ZEROS                              #       FORCE NORMAL S40.9 TERMINATIONS,
001814: 16,2367           27347                           STOVL    NBRCYCLS                              #       RATHER THAN LOSE TIME OF BRAND NEW
001815: 16,2370           03721                                    VGPREV                                #       PASS -- QUICK OLD DATA BETTER THAN
001816: 16,2371           03646                           STORE    VGTEMP                                #       NONE) NOW CAN GO THRU SETUP.9
001817: 16,2372           77776                           EXIT                                           #       WITHOUT DISTURBING VGPREV
001818: 16,2373           12355                           TCF      ENDS40.9   -2                         #  STORE 0,0 COVERED NBRCYCLS,P -- FIX UP S
001819:
001820: 16,2374           01440 00000  200CSHI            2DEC     200        B-12
001821: 16,2376           55340 61710  EARTHMU            2DEC*    -3.986032  E10        B-36*
001822: 16,2400           04000 00000  EP4(45)L           2DEC     .125
001823: 16,2402           00707 03434  EP4(10)L           2DEC     .027777777
001824:


001826:                                                                                                  #  NAME        S40.13 - TIMEBURN
001827:                                                                                                  #  FUNCTION    (1) DETERMINE WHETHER A GIVEN COMBINATION OF VELOCITY-TO-
001828:                                                                                                  #              BE-GAINED AND ENGINE CHOICE RESULT IN A BURN TIME SUFFICIENT
001829:                                                                                                  #              TO ALLOW STEERING AT THE VEHICLE DURING THE BURN, AND
001830:                                                                                                  #              (2) THE MAGNITUDE OF RESULTING BURN TIME - IF IT IS SHORT -
001831:                                                                                                  #              AND THE ASSOCIATED TIME OF THE ENGINE-OFF SIGNAL.
001832:                                                                                                  #  CALLING SEQ VIA FINDVAC AS NEW JOB.
001833:                                                                                                  #  INPUT       VGTIG - VELOCITY TO BE GAINED VECTOR (METERS/C.S.) AT +7
001834:                                                                                                  #           WEIGHT/G - MASS OF VEHICLE IN KGM AT TIG
001835:                                                                                                  #              F - ENGINE THRUST IN M.NEWTONS AT +7
001836:                                                                                                  #              MDOT - RATE OF DECREASE OF VEHICLE MASS DURING ENGINE BURN
001837:                                                                                                  #                     IN KILOGRAMS/CENTISECOND AT +3.  THIS SCALING MAY
001838:                                                                                                  #                     REQUIRE MODIFICATION FOR SATURN BURNS.
001839:                                                                                                  #  OUTPUT      IMPULSW - ZERO FOR STEERING
001840:                                                                                                  #                      - ONE FOR ATTITUDE HOLD
001841:                                                                                                  #              TGO - TIME TO BURN IN CENTISECONDS AT +14
001842:                                                                                                  #    THE QUANTITY M.NEWTON SHALL BE USED TO EXPRESS WEIGHT IN TERMS OF
001843:                                                                                                  #    (KILOGRAM*METER)/(CENTISECOND*CENTISECOND)
001844:                                                                                                  #    (1) M.NEWTON = (10000) NEWTONS
001845: 16,2404  E7,1427                                  EBANK=   TGO
001846: 16,2404                                           COUNT    16/40.13
001847:
001848: 16,2404           06006        S40.13             TC       INTPRET
001849: 16,2405           43001                           SETPD    SET
001850: 16,2406           00001                                    00D
001851: 16,2407           01066                                    IMPULSW                               #  ASSUME NO STEERING UNTIL FOUND OTHERWISE
001852: 16,2410           51575                           VLOAD    ABVAL
001853: 16,2411           03721                                    VGTIG                                 #  VELOCITY TO BE GAINED AT +7
001854: 16,2412           77776                           EXIT
001855: 16,2413           34704                           CAF      BIT7                                  #  TEST +X TRANSLATION
001856: 16,2414           00006                           EXTEND
001857: 16,2415           06031                           RXOR     CHAN31
001858: 16,2416           74704                           MASK     BIT7
001859: 16,2417           00006                           EXTEND
001860: 16,2420           12502                           BZF      NOTADDUL
001861: 16,2421           06006                           TC       INTPRET
001862: 16,2422           56325                           PDDL     DDV                                   #  00D = MAG OF VGTIG AT +7
001863: 16,2423           36027                                    S40.135                               #  COMPENSATION FOR 2 JET ULLAGE AT +24
001864: 16,2424           03076                                    WEIGHT/G                              #  MASS IN KGMS AT +16
001865: 16,2425           72414                           BON      SL1                                   #  DOUBLE CORRECTION IF FOUR JETS
001866: 16,2426           00700                                    NJETSFLG
001867: 16,2427           34430                                    S40.130
001868: 16,2430           77621        S40.130            BDSU
001869: 16,2431           56325                           PDDL     DDV                                   #  00D = MAG OF VGTIG CORRECTED FOR ULLAGE
001870: 16,2432           36013                                    K1VAL                                 #  M.NETWON-CS AT +24
001871: 16,2433           03076                                    WEIGHT/G
001872: 16,2434           50021                           BDSU     BMN
001873: 16,2435           00001                                    00D
001874: 16,2436           34461                                    S40.131                               #  TGO LESS THAN 100 CS
001875: 16,2437           41325                           PDDL     DMP                                   #  02D = TEMP1 AT +7


001877: 16,2440           36031                                    MDOTLO                                #  MDOT, SC.AT B+3 KG/CS
001878: 16,2441           36023                                    3.5SEC                                #  350 CS AT +14
001879: 16,2442           65221                           BDSU     PDDL
001880: 16,2443           03076                                    WEIGHT/G
001881: 16,2444           03727                                    F                                     #  F AT +7
001882: 16,2445           60405                           DMP      SR2
001883: 16,2446           36025                                    5SECOND                               #  500 CS AT +14
001884: 16,2447           41471                           DDV      PUSH                                  #  04D = TEMP2
001885: 16,2450           51021                           BDSU     BPL
001886: 16,2451           00003                                    02D
001887: 16,2452           34475                                    S40.133                               #  TGO GREATER THAN 600 CS
001888: 16,2453           55345                           DLOAD    BDDV
001889: 16,2454           43205                           DMP      DAD
001890: 16,2455           36025                                    5SECOND                               #  500 CS AT +14
001891: 16,2456           36021                                    1SEC2D                                #  100 CS AT +14
001892: 16,2457           77650                           GOTO
001893: 16,2460           34466                                    S40.132
001894: 16,2461           41345        S40.131            DLOAD    DMP                                   #  TGO LESS THAN 100 CS
001895: 16,2462           03076                                    WEIGHT/G
001896: 16,2463           56215                           DAD      DDV
001897: 16,2464           36015                                    K2VAL                                 #  M.NEWTON-CS AT +24
001898: 16,2465           36017                                    K3VAL                                 #  M.NEWTONS AT +10
001899: 16,2466           77776        S40.132            EXIT
001900: 16,2467  E7,1427                                  EBANK=   TGO
001901: 16,2467           07226                           TC       TPAGREE
001902: 16,2470           30154                           CA       MPAC
001903: 16,2471           56001                           XCH      L
001904: 16,2472           34714                           CA       ZERO
001905: 16,2473           53430                           DXCH     TGO                                   #  TGO IN CS AT +28
001906: 16,2474           02477                           TC       S40.134
001907: 16,2475           77414        S40.133            CLEAR    EXIT                                  #  WILL STEER VEHICLE
001908: 16,2476           01266                                    IMPULSW
001909: 16,2477           05301        S40.134            TC       PHASCHNG                              #  KILL GROUP 3
001910: 16,2500           00003                           OCT      3
001911:
001912: 16,2501           15112                           TCF      ENDOFJOB
001913:
001914:
001915: 16,2502           06006        NOTADDUL           TC       INTPRET
001916: 16,2503           77650                           GOTO
001917: 16,2504           34431                                    S40.130    +1                         #  DO NOT COMPENSATE FOR 7 SEC OF ULLAGE
001918: 17,2000                                           SETLOC   DAPS7
001919: 17,2000                                           BANK
001920:
001921: 17,2012                                           COUNT    17/40.13
001922:
001923: 17,2012           00001 27221  K1VAL              2DEC     884.52887  B-23                       #  19885 LB-SEC, SC.AT B+23 NEWTON-SEC/E+2
001924: 17,2014           00000 22244  K2VAL              2DEC     293.137805 B-23                       #   6590 LB-SEC, SC.AT B+23 NEWTON-SEC/E+2


001926: 17,2016           00570 33235  K3VAL              2DEC     11.7766668 B-9                        #  26475 LBS, SC.AT B+9 NEWTONS/E+4
001927: 17,2020           00144 00000  1SEC2D             2DEC     100.0      B-14                       #  100.0 CS AT +14
001928: 17,2022           01274 00000  3.5SEC             2DEC     350.0      B-13                       #  350.0 CS AT +13
001929: 17,2024           00764 00000  5SECOND            2DEC     500.0      B-14                       #  500 CS AT +14
001930: 17,2026           00000 04263  S40.135            2DEC     69.6005183 B-23                       #  IMPULSE FROM 7.96 SECS OF 2-JET FIRING
001931:                                                                                                  #                                               7.96(199.6)COS(10)  LB-SEC,  SC.AT
001932:                                                                                                  #                                               B+23 NEWTON-SEC/E+2  (7 SEC ULLAGE
001933:                                                                                                  #                                               TO GO, PLUS 0.96 SEC FROM PIPTIME)
001934: 17,2030           01120 25456  MDOTLO             2DEC     .289391932 B-3                        #  63.8 LB/SEC, SC.AT B+3 KG/CS   (=MDOTHI)
001935:


001937:                                                                                                  #  NAME     S40.6  GIMBAL DRIVE TEST AND/OR GIMBAL TRIM
001938:                                                                                                  #  MOD NO 5                        DATE 9 MARCH, 1967
001939:                                                                                                  #  MOD BY   ENGEL                  LOG SECTION P40-P47
001940:                                                                                                  #  FUNCTIONAL DESCRIPTION
001941:                                                                                                  #       GIMBAL DRIVE TEST....0,+2,-2,0  DEGREE ENGINE COMMANDS, AT 2 SECOND
001942:                                                                                                  #           INTERVALS, FIRST IN PITCH, THEN IN YAW. ASTRONAUT VERIFICATION
001943:                                                                                                  #           OF GIMBAL MOTION ON GPI
001944:                                                                                                  #       GIMBAL TRIM....AFTER A 4 SECOND DELAY,ENGINE COMMANDED TO
001945:                                                                                                  #           PRE-COMPUTED TRIM POSITION. ASTRONAUT VERIFICATION ON GPI.
001946:                                                                                                  #       PRE40.6....RESTART ENTRY TO RE-DO S40.6, ONLY IF RCS IS ON - IF TVC
001947:                                                                                                  #           IS NOT ON - PRIMARILY TO GET ACTUATORS TRIMMED FOR IGNITION.
001948:                                                                                                  #           BYPASS 4 SEC DELAY.  SPEED IS CRITICAL NEAR IGNITION.
001949:                                                                                                  #           IF TVC IS ON (TVCDAPON OR LATER)  THEN REDOTVC WILL TAKE CARE
001950:                                                                                                  #           OF RESTARTING ACTUATORS.
001951:                                                                                                  #  CALLING SEQUENCE....
001952:                                                                                                  #       WAITLIST,  WITH 2CADR FOR S40.6 (OR PRE40.6),  WITH EBANK= CNTR
001953:                                                                                                  #  NORMAL EXIT MODE - FIXDELAY, TASKOVER
001954:                                                                                                  #  SUBROUTINES CALLED....
001955:                                                                                                  #       OUTPUT (INTERNAL)
001956:                                                                                                  #       FIXDELAY
001957:                                                                                                  #  ALARM OR ABORT EXIT MODES - NONE
001958:                                                                                                  #  ERASEABLE INITIALIZATION REQUIRED
001959:                                                                                                  #       CNTR = +0,  NORMALLY SET BY THE P40 CALL AT TST,TRIM
001960:                                                                                                  #       MRKRTMP...POSITIVE FOR GIMBAL DRIVE TEST AND GIMBAL TRIM (BOTH)
001961:                                                                                                  #                 NEGATIVE FOR GIMBAL TRIM ONLY
001962:                                                                                                  #       PACTOFF, YACTOFF SC.AT 85.41 ARCSEC/BIT  (V48N48 P,YTRIM)
001963:                                                                                                  #       ..SC CONT.. SWITCH AT ..CMC.. (A/P CONTROL SWITCH AT ..GNC..)
001964:                                                                                                  #       ACTIVE SPS GIMBAL MOTOR POWER(S),  PITCH, YAW
001965:                                                                                                  #  OUTPUT
001966:                                                                                                  #       TVCYAW, TVCPITCH (BITS RELEASED)
001967:                                                                                                  #       TVC ENABLE  AND  OPTICS ERROR COUNTER ENABLE
001968:                                                                                                  #  DEBRIS
001969:                                                                                                  #       TEMPR60, CNTR
001970:
001971:
001972:
001973: 17,2032                                           BANK     17
001974: 20,2000                                           SETLOC   DAPS6
001975: 20,2000                                           BANK
001976:
001977: 20,2040  E6,1447                                  EBANK=   CNTR
001978: 20,2040                                           COUNT    20/S40.6
001979:
001980: 20,2040           30102        PRE40.6            CAE      FLAGWRD6                              #  RESTART ENTRY TO S40.6.  CHECK T5 BITS.
001981: 20,2041           74105                           MASK     OCT60000
001982: 20,2042           00006                           EXTEND
001983: 20,2043           65213                           BZMF     TASKOVER                              #  NOT RCS  (BITS NOT 01),  DONT DO S40.6
001984:
001985: 20,2044           44712                           CS       BIT1                                  #  RCS, SO DO S40.6, GIMTRIM ONLY
001986: 20,2045           55445                           TS       MRKRTMP


001988: 20,2046           34712                           CAF      BIT1                                  #  FOR REVISED S40.6 TIMING FOR RESTARTS...
001989: 20,2047           55447                           TS       CNTR                                  #  TO INDICATE A RESTART ENTRY (CNTR IS
001990:                                                                                                  #                                               NORMALLY +0, BY S40.6)
001991:
001992:
001993: 20,2050  E6,1447                                  EBANK=   CNTR
001994: 20,2050           44714        S40.6              CS       ZERO                                  #  INHIBIT OPTICS ACTIVITY
001995: 20,2051           55303                           TS       OPTIND
001996:
001997: 20,2052           44711                           CS       BIT2                                  #  DISENABLE OPTICS ERROR COUNTERS (ZERO,
001998: 20,2053           00006                           EXTEND                                         #       AND INHIBIT PULSE TRANSMISSION -
001999: 20,2054           03012                           WAND     CHAN12                                #       NORMAL STATE)
002000:
002001: 20,2055           32142                           CAF      OCT02200                              #  TVC ENABLE (SPS SERVO AMPS SEE DAC
002002: 20,2056           00006                           EXTEND                                         #       VOLTAGES) AND DISENGAGE OPTICS/DAC
002003: 20,2057           05012                           WOR      CHAN12
002004:
002005: 20,2060           05156                           TC       FIXDELAY                              #  60MS PROCEDURAL DELAY (40MS MINIMUM) FOR
002006: 20,2061           00006                           DEC      6          B-14                       #       RELAY LATCHING
002007:
002008: 20,2062           34711                           CAF      BIT2                                  #  ENABLE OPTICS ERROR COUNTERS
002009: 20,2063           00006                           EXTEND
002010: 20,2064           05012                           WOR      CHAN12
002011:
002012: 20,2065           05156                           TC       FIXDELAY                              #  20MS PROCEDURAL DELAY (4MS MINIMUM) FOR
002013: 20,2066           00002                           DEC      2          B-14                       #       RELAY LATCHING
002014:
002015: 20,2067           11447        RSTRTST            CCS      CNTR                                  #  CHECK FOR RESTART ENTRY (PRE40.6)
002016: 20,2070           12130                           TCF      GIMTRIM    +2                         #  RESTART ENTRY....BYPASS 4 SECOND DELAY
002017:                                                                                                  #                                               TST,TRIM SETS +0 ON NORMAL ENTRY
002018:
002019: 20,2071           31445                           CAE      MRKRTMP                               #  CHECK FOR TEST/TRIM OR TRIM ONLY
002020: 20,2072           55447                           TS       CNTR                                  #       MRKRTMP SAVES CNTR FOR RESTARTS
002021: 20,2073           00006                           EXTEND
002022: 20,2074           62126                           BZMF     GIMTRIM                               #  (TRIM ONLY)
002023:
002024: 20,2075           44714        GDTSETUP           CS       ZERO                                  #  GIMBAL DRIVE TEST SETUP, FOR PITCH
002025: 20,2076           55447                           TS       CNTR
002026:
002027: 20,2077           32144        GIMDTEST           CAF      +2ACTDEG                              #  GIMBAL DRIVE TEST, 1ST INCREMENT
002028: 20,2100           02113                           TC       OUTPUT                                #       (LEAVES GIMBAL AT +2 DEG)
002029: 20,2101           32143                           CAF      -4ACTDEG                              #  2ND INCREMENT (LEAVES GIMBAL AT -2)
002030: 20,2102           02113                           TC       OUTPUT
002031: 20,2103           32144                           CAF      +2ACTDEG                              #  3RD INCREMENT (LEAVES GIMBAL AT -0)
002032: 20,2104           02113                           TC       OUTPUT
002033:
002034: 20,2105           41447                           CS       CNTR                                  #  CHECK FOR COMPLETION OF YAW TEST
002035: 20,2106           10000                           CCS      A
002036: 20,2107           12126                           TCF      GIMTRIM                               #  COMPLETED, GO TO GIMBAL TRIM ROUTINE
002037: 20,2110           44712                           CS       BIT1                                  #  SET UP YAW TEST


002039: 20,2111           55447                           TS       CNTR
002040: 20,2112           12077                           TCF      GIMDTEST                              #  FOR YAW TEST
002041:
002042:
002043: 20,2113           00006        OUTPUT             EXTEND                                         #  OUTPUT THE INCREMENT....SAVE Q
002044: 20,2114           23146                           QXCH     TEMPR60
002045:
002046: 20,2115           51447                           INDEX    CNTR
002047: 20,2116           54054                           TS       TVCPITCH
002048:
002049: 20,2117           51447                           INDEX    CNTR
002050: 20,2120           34700                           CAF      BIT11
002051: 20,2121           00006                           EXTEND
002052: 20,2122           05014                           WOR      CHAN14
002053:
002054: 20,2123           05156                           TC       FIXDELAY                              #  WAIT 2SEC, WHILE ASTRONAUT VERIFIES
002055: 20,2124           00310                           DEC      200        B-14                       #       GIMBAL MOTION ON GPI
002056: 20,2125           01146                           TC       TEMPR60
002057:
002058:
002059: 20,2126           05156        GIMTRIM            TC       FIXDELAY                              #  WAIT 4 SECONDS BEFORE GIMBAL TRIM
002060: 20,2127           00620                           DEC      400        B-14
002061:
002062: 20,2130           44714                 +2        CS       ZERO                                  #  PICK UP TRIM VALUES AND OUTPUT THEM
002063: 20,2131           61425                           AD       PACTOFF                               #       (AVOID +0) ENTRY POINT FROM RSTRTST
002064: 20,2132           54054                           TS       TVCPITCH                              #       ON A RESTART, TO AVOID 4SEC DELAY
002065: 20,2133           44714                           CS       ZERO
002066: 20,2134           61426                           AD       YACTOFF
002067: 20,2135           54053                           TS       TVCYAW
002068:
002069: 20,2136           34755                           CAF      PRIO6                                 #  RELEASE THE COUNTERS, BITS 11,12
002070: 20,2137           00006                           EXTEND
002071: 20,2140           05014                           WOR      CHAN14
002072:
002073: 20,2141           15213        ENDS40.6           TCF      TASKOVER
002074:
002075:
002076: 20,2142           02200        OCT02200           OCT      02200                                 #  BITS 8,11 FOR CHANNEL 12 TVC/OPTICS
002077: 20,2143           77526        -4ACTDEG           DEC      -169       B-14                       #  -4 DEG, SC.AT 85.41 ARCSEC/BIT (-169D)
002078: 20,2144           00124        +2ACTDEG           DEC      +84        B-14                       #  +2 DEG, SC.AT 85.41 ARCSEC/BIT (+84D)
002079:
002080:
002081:                                                                                                  #  CALLED BY ..DONOUN46.. (VERB 48), OR DIRECTLY BY ..FRESHDAP.. (RCS DAP) VIA IBNKCALL
002082:
002083: 20,2145                                           COUNT    20/S41.2
002084:
002085: 20,2145           31466        S41.2              CA       DAPDATR1
002086: 20,2146           76214                           MASK     THREE
002087: 20,2147           60000                           AD       A
002088: 20,2150           55130                           TS       RATEINDX


002090: 20,2151           00004                           INHINT
002091: 20,2152           31466                           CAE      DAPDATR1                              #  IS LEM ATTACHED (BITS 14,13 OF DAPDATR1
002092: 20,2153           74371                           MASK     PRIO30                                #                    =10)
002093: 20,2154           67705                           AD       -BIT14                                #  (OCT57777)
002094: 20,2155           00006                           EXTEND
002095: 20,2156           12163                           BZF      TOGETHER                              #  YES
002096:
002097: 20,2157           44711                           CS       BIT2                                  #  NO, UNSET FLAG
002098: 20,2160           70103                           MASK     FLAGWRD7
002099: 20,2161           54103                           TS       FLAGWRD7
002100:
002101: 20,2162           12166                           TCF      +4
002102:
002103: 20,2163           40103        TOGETHER           CS       FLAGWRD7                              #  ATTACHED, SET FLAG FOR INTEGRATION
002104: 20,2164           74711                           MASK     BIT2
002105: 20,2165           26103                           ADS      FLAGWRD7
002106:
002107: 20,2166           00003                           RELINT
002108:
002109: 20,2167           31466                           CA       DAPDATR1
002110: 20,2170           74707                           MASK     BIT4
002111: 20,2171           00006                           EXTEND
002112: 20,2172           62174                           BZMF     +2                                    #  DEC 46 MEANS NARROW DB
002113: 20,2173           32274                           CA       DEC409
002114: 20,2174           62275                           AD       DEC46                                 #  DEC 455 MEANS WIDE DB
002115: 20,2175           55655                           TS       ADB
002116:
002117: 20,2176           31466                           CA       DAPDATR1
002118: 20,2177           74704                           MASK     BIT7                                  #  QUAD BD
002119: 20,2200           00006                           EXTEND
002120: 20,2201           62203                           BZMF     +2
002121: 20,2202           34712                           CA       ONE
002122: 20,2203           55631                           TS       XTRANS
002123: 20,2204           31466                           CA       DAPDATR1
002124: 20,2205           74701                           MASK     BIT10                                 #  QUAD AC
002125: 20,2206           00006                           EXTEND
002126: 20,2207           62211                           BZMF     +2
002127: 20,2210           44712                           CS       ONE
002128: 20,2211           27631                           ADS      XTRANS
002129:
002130: 20,2212           00004                           INHINT
002131: 20,2213           00006                           EXTEND
002132: 20,2214           12221                           BZF      +5                                    #  CLEAR NJETSFLG (4 JETS, OR NO JETS)
002133: 20,2215           40075                           CS       FLAGWRD1                              #  SET NJETSFLG   (2 JETS, AC OR BD QUADS)
002134: 20,2216           74674                           MASK     BIT15                                 #  NJETSFLG = 1 FOR 2 JET ULLAGE (AC OR BD)
002135: 20,2217           26075                           ADS      FLAGWRD1
002136: 20,2220           12224                           TCF      +4
002137: 20,2221           44674                           CS       BIT15                                 #  NJETSFLG = 0 FOR 4 JET (OR 0 JET) ULLAGE
002138: 20,2222           70075                           MASK     FLAGWRD1
002139: 20,2223           54075                           TS       FLAGWRD1


002141: 20,2224           00003                           RELINT
002142: 20,2225           31467                           CA       DAPDATR2
002143: 20,2226           74676                           MASK     BIT13
002144: 20,2227           00006                           EXTEND
002145: 20,2230           62232                           BZMF     +2
002146: 20,2231           12233                           TCF      +2
002147: 20,2232           44712                           CS       ONE
002148: 20,2233           40000                           COM
002149: 20,2234           55630                           TS       ACORBD                                #  MINUS FOR A-C, PLUS FOR B-D
002150:
002151: 20,2235           31467                           CA       DAPDATR2
002152: 20,2236           74701                           MASK     BIT10
002153: 20,2237           10000                           CCS      A
002154: 20,2240           12244                           TCF      +4
002155: 20,2241           34712                           CA       ONE
002156: 20,2242           55626                           TS       RACFAIL
002157: 20,2243           12254                           TCF      BDFAIL
002158: 20,2244           34714                           CA       ZERO
002159: 20,2245           55626                           TS       RACFAIL
002160: 20,2246           31467                           CA       DAPDATR2
002161: 20,2247           74707                           MASK     BIT4
002162: 20,2250           10000                           CCS      A
002163: 20,2251           12254                           TCF      BDFAIL
002164: 20,2252           44712                           CS       ONE
002165: 20,2253           55626                           TS       RACFAIL
002166: 20,2254           31467        BDFAIL             CA       DAPDATR2
002167: 20,2255           74704                           MASK     BIT7
002168: 20,2256           10000                           CCS      A
002169: 20,2257           12263                           TCF      +4
002170: 20,2260           34712                           CA       ONE
002171: 20,2261           55627                           TS       RBDFAIL
002172: 20,2262           00002                           TC       Q
002173: 20,2263           34714                           CA       ZERO
002174: 20,2264           55627                           TS       RBDFAIL
002175: 20,2265           31467                           CA       DAPDATR2
002176: 20,2266           74712                           MASK     BIT1
002177: 20,2267           10000                           CCS      A
002178: 20,2270           00002                           TC       Q
002179: 20,2271           44712                           CS       ONE
002180: 20,2272           55627                           TS       RBDFAIL
002181: 20,2273           00002                           TC       Q
002182:
002183:
002184:                                                                                                  #  DAPFIG ENTRY VIA TC POSTJUMP AS JOB FROM ..STABLISH.. (VERB 46)
002185: 42,3521                                           BANK     42
002186: 42,2000                                           SETLOC   EXTVBS
002187: 42,2000                                           BANK
002188:
002189: 42,3521           44702        DAPFIG             CS       BIT9                                  #  TURN OFF SIVB TAKEOVER
002190: 42,3522           00006                           EXTEND


002192: 42,3523           03012                           WAND     CHAN12
002193: 42,3524           31466                           CAE      DAPDATR1                              #  DETERMINE VEHICLE CONFIGURATION
002194: 42,3525           00006                           EXTEND
002195: 42,3526           74710                           MP       BIT3                                  #       RIGHT SHIFT 4 OCTAL DIGITS
002196: 42,3527           76214                           MASK     THREE                                 #       (IN CASE BIT 15 IS USED)
002197: 42,3530           50000                           INDEX    A
002198: 42,3531           13532                           TCF      +1                                    #       BRANCH BASED ON CONFIG....
002199:
002200: 42,3532           13544                           TCF      NODAPUP                               #  CM.......ACTIVATE NODAP
002201: 42,3533           13537                           TCF      RCSDAPUP                              #       CSM......ACTIVATE RCSDAP
002202: 42,3534           13537                           TCF      RCSDAPUP                              #       CSM/LEM..ACTIVATE RCSDAP
002203: 42,3535           04574                           TC       POSTJUMP
002204: 42,3536           67210                           CADR     SATSTKON
002205: 42,3537           00004        RCSDAPUP           INHINT                                         #  CALL TO ACTIVATE RCSDAP, AND RETURN
002206: 42,3540           04633                           TCR      IBNKCALL
002207: 42,3541           42010                           CADR     RCSDAPON
002208: 42,3542           00003                           RELINT
002209: 42,3543           13561                           TCF      ENDFIG                                #  CAME IN VIA V46, GO OUT VIA GOPIN
002210: 42,3544           00006        NODAPUP            EXTEND                                         #  T5 IDLE FOR NODAP (DONT WORRY ABOUT T)
002211: 42,3545           33564                           DCA      T5IDLDAP
002212: 42,3546           53313                           DXCH     T5LOC
002213: 42,3547           05447                           TC       DOWNFLAG                              #  RESET T5-USAGE FLAGS FOR NODAP
002214: 42,3550           00132                           ADRES    DAPBIT1                               #  BIT 15  FLAG 6 = 0
002215: 42,3551           05447                           TC       DOWNFLAG
002216: 42,3552           00133                           ADRES    DAPBIT2                               #  BIT 14  FLAG 6 = 0
002217: 42,3553           00004                           INHINT
002218: 42,3554           04633                           TC       IBNKCALL                              #  ZERO JET CHANNELS IN 14 MS AND THEN
002219: 42,3555           42616                           CADR     ZEROJET                               #  LEAVE THE T6 CLOCK DISABLED.
002220: 42,3556           00003                           RELINT
002221: 42,3557           34712                           CAF      BIT1                                  #  KILL KALCMANU JOB
002222: 42,3560           55332                           TS       HOLDFLAG
002223: 42,3561           04574        ENDFIG             TC       POSTJUMP                              #  CAME IN VIA V46, GO OUT VIA GOPIN
002224: 42,3562           66125                           CADR     GOPIN
002225: 42,3563  E6,1425                                  EBANK=   PACTOFF
002226: 42,3563           03132 12106  T5IDLDAP           2CADR    T5IDLOC
002227:
002228: 17,2032                                           BANK     17
002229: 20,2000                                           SETLOC   DAPS6
002230: 20,2000                                           BANK
002231:
002232: 20,2274           00631        DEC409             DEC      409        B-14
002233: 20,2275           00056        DEC46              DEC      46         B-14
002234:
002235:
002236:                                                                                                  #  CALLED BY ..DONOUN47.. (VERB 48), OR DIRECTLY BY ..FRESHDAP.. (RCS DAP)
002237:
002238: 20,2276           31470        S40.14             CAE      IXX                                   #  RCS ENTRY
002239: 20,2277           00006                           EXTEND
002240: 20,2300           72323                           MP       CONTONE


002242: 20,2301           55623                           TS       J/M
002243:
002244: 20,2302           31471                           CA       IAVG
002245: 20,2303           00006                           EXTEND
002246: 20,2304           72323                           MP       CONTONE
002247: 20,2305           55624                           TS       J/M1
002248:
002249: 20,2306           55625                           TS       J/M2
002250:
002251: 20,2307           00006                           EXTEND
002252: 20,2310           32325                           DCA      CONTTWO
002253: 20,2311           00006                           EXTEND
002254: 20,2312           11470                           DV       IXX
002255: 20,2313           55620                           TS       KMJ
002256:
002257: 20,2314           00006                           EXTEND
002258: 20,2315           32325                           DCA      CONTTWO
002259: 20,2316           00006                           EXTEND
002260: 20,2317           11471                           DV       IAVG
002261: 20,2320           55621                           TS       KMJ1
002262:
002263: 20,2321           55622                           TS       KMJ2
002264:
002265: 20,2322           00002                           TC       Q
002266:
002267: 20,2323           25137        CONTONE            DEC      .662034                               #  2PI/M
002268: 20,2324           00023 12522  CONTTWO            2DEC     .00118
002269:
002270: 20,2326                                           COUNT    24/TVNG
002271:
002272: 31,3215                                           BANK     31
002273: 24,2000                                           SETLOC   P40S
002274: 24,2000                                           BANK
002275:
002276: 24,3701           37405        POS-2.5            OCT      37405


002278: 24,3702  40,2000                                  SBANK=   PINSUPER
002279: 24,3702  E6,1466                                  EBANK=   DAPDATR1
002280: 24,3702           02000 42106  RCSCADR            2CADR    RCSUP
002281: 24,3704           37704        6SECT5             OCT      37704
002282: 24,3705                                           COUNT    21/RCSUP
002283:
002284: 20,2326                                           BANK     20
002285:
002286: 21,2000                                           SETLOC   DAPS3
002287: 21,2000                                           BANK
002288:
002289: 21,2000           22016        RCSUP              LXCH     BANKRUPT
002290: 21,2001           00006                           EXTEND
002291: 21,2002           22012                           QXCH     QRUPT
002292:


002294: 21,2003           02010                           TCR      RCSDAPON                              #  ACTIVATE RCS DAP
002295:
002296: 21,2004           15222                           TCF      RESUME
002297:


002299: 21,2005  40,2000                                  SBANK=   PINSUPER
002300: 21,2005  E6,1466                                  EBANK=   DAPDATR1
002301: 21,2005           02106 42106  RCSADDR            2CADR    RCSATT
002302:
002303:
002304: 21,2007           37704        0.6SECT5           OCT      37704
002305:
002306:                                                                                                  #                                          RCSDAPON ENTRY MUST BE UNDER INT-INHIBIT
002307: 21,2010           32007        RCSDAPON           CAF      0.6SECT5                              #  0.6 SEC ALLOWS TVCEXEC/ROLLDAP TO DIE
002308: 21,2011           54030                 +1        TS       TIME5                                 #  ENTRY FROM ROOTOPOO
002309: 21,2012           55465                           TS       T5PHASE                               #  WILL CAUSE FRESHDAP (+1)
002310:
002311: 21,2013           41501                           CS       RCSFLAGS                              #  SET BIT3 TO REINITIALIZE FDAI ERROR
002312: 21,2014           74710                           MASK     BIT3                                  #       DISPLAY, IN CASE SC CONT SWITCH
002313: 21,2015           27501                           ADS      RCSFLAGS                              #       IN SCS NOT GNC (GUIDEMODE PRIMARY)
002314:
002315: 21,2016           00006                           EXTEND
002316: 21,2017           32006                           DCA      RCSADDR                               #  (RCSATT)
002317: 21,2020           53313                           DXCH     T5LOC
002318:
002319: 21,2021           44105                           CS       OCT60000                              #  SET BITS 15,14  TO  01  TO INDICATE
002320: 21,2022           70102                           MASK     FLAGWRD6                              #       T5 TAKEOVER BY RCSDAP
002321: 21,2023           64675                           AD       BIT14
002322: 21,2024           54102                           TS       FLAGWRD6                              #  KILLS TVCEXEC AND ROLLDAP STARTS
002323:
002324: 21,2025           00002                           TC       Q                                     #  RETURN TO CALLER (TVCDAPOF OR RCSDAPUP)

End of include-file P40-P47.agc.  Parent file is MAIN.agc


