
Source Code


000002:                                                                                                  #  Copyright:    Public domain.
000003:                                                                                                  #  Filename:     P40-P47.agc
000004:                                                                                                  #  Purpose:      Part of the source code for Colossus build 237.
000005:                                                                                                  #                This is for the Command Module's (CM) Apollo Guidance
000006:                                                                                                  #                Computer (AGC), we believe for Apollo 8.
000007:                                                                                                  #  Assembler:    yaYUL
000008:                                                                                                  #  Contact:      Jim Lawton <jim DOT lawton AT gmail DOT com>
000009:                                                                                                  #  Website:      www.ibiblio.org/apollo/index.html
000010:                                                                                                  #  Page scans:   www.ibiblio.org/apollo/ScansForConversion/Colossus237/
000011:                                                                                                  #  Mod history:  2011-02-20 JL   Adapted from corresponding Colossus 249 file.
000012:                                                                                                  #                2011-04-24 JL   Fixed incorrect indentation of label.
000013:                                                                                                  #                2012-10-08 JL   Fixed incorrect opcode on p682.
000014:                                                                                                  #                2016-08-14 RSB  Added SBANKs for addressing discrepancies.
000015:
000016:                                                                                                  # # Page 637
000017:                                                                                                  #  PROGRAM DESCRIPTION **P40CSM**
000018:
000019:
000020: ???????  E6,1466                                  EBANK=   DAPDATR1
000021: 31,3215                                           BANK     31
000022: 24,2000                                           SETLOC   P40S
000023: 24,2000                                           BANK
000024:
000025: 24,2002                                           COUNT    24/P40
000026:
000027: 24,2002           05447        P40CSM             TC       DOWNFLAG
000028: 24,2003           00023                           ADRES    ENG2FLAG
000029:
000030: 24,2004           06006                           TC       INTPRET
000031: 24,2005           43135                           SLOAD    BOFF
000032: 24,2006           03425                                    ECSTEER                               #  IS THIS AN EXTERNAL DELTA V BURN
000033: 24,2007           01347                                    XDELVFLG
000034: 24,2010           50013                                    P40S/C                                #  NO   CSTEER = ECSTEER
000035: 24,2011           77745                           DLOAD                                          #  YES  CSTEER = ZERO
000036: 24,2012           15332                                    HI6ZEROS
000037: 24,2013           17703        P40S/C             STODL    CSTEER
000038: 24,2014           10335                                    FENG                                  #  SET UP THRUST FOR P40 20,000 LBS
000039: 24,2015           17727        P40S/F             STODL    F                                     #  P41 ENTERS HERE
000040: 24,2016           03413                                    TIG                                   #  ORIGINAL TIG MAY BE SLIPPED BY P40S/SV
000041: 24,2017           03450                           STORE    NOMTIG                                #  SET ORIGINAL TIME OF IGNITION FOR S40.9
000042:
000043: 24,2020           77776                           EXIT
000044: 24,2021           04555                           TC       BANKCALL
000045: 24,2022           17573                           CADR     R02BOTH                               #  IMU STATUS CHECK
000046:
000047: 24,2023           06006        P40PVA             TC       INTPRET
000048: 24,2024           77624                           CALL
000049: 24,2025           34000                                    S40.1                                 #  COMPUTE VGTIG,UT
000050: 24,2026           77624                           CALL
000051: 24,2027           51514                                    S40.2,3                               #  COMPUTE PREFERRED ATTITUDE
000052: 24,2030           77414                           SET      EXIT
000053: 24,2031           01073                                    PFRATFLG
000054: 24,2032           02212        P40SXTY            TCR      SETMINDB   -1                         #  NARROW DEADBAND FOR MANEUVER (EBANK6)
000055: 24,2033           00003                           RELINT
000056: 24,2034           04555                           TC       BANKCALL
000057: 24,2035           56000                           CADR     R60CSM                                #  ATTITUDE MANEUVER
000058: 24,2036           44712                           CS       ONE                                   #  FOR UPDATEVG
000059: 24,2037           55746                           TS       NBRCYCLS
000060: 24,2040           05435                           TC       UPFLAG
000061: 24,2041           00155                           ADRES    TIMRFLAG                              #  ALLOW CLOCKTASK
000062:
000063: 24,2042           02252                           TC       P41/P40
000064: 24,2043           02267                           TC       P41/DSP                               #  P41
000065:
000066: 24,2044           32351        P40TTOG            CAF      V06N40                                #  INITIALIZE FOR CLOCKTASK WHICH IS CALLED
000067:                                                                                                  # # Page 638
000068: 24,2045           55145                           TS       NVWORD1                               #  BELOW
000069:
000070: 24,2046           06006                           TC       INTPRET
000071: 24,2047           51575                           VLOAD    ABVAL                                 #  FOR R2
000072: 24,2050           03721                                    VGTIG
000073: 24,2051           17654                           STODL    VGDISP
000074: 24,2052           15332                                    HI6ZEROS
000075: 24,2053           03426                           STORE    DVTOTAL
000076: 24,2054           77776                           EXIT
000077:
000078: 24,2055           00006                           EXTEND
000079: 24,2056           32775                           DCA      STEERADS                              #  SET FOR UPDATEVG AND TEST FOR STEERING
000080: 24,2057           53223                           DXCH     AVEGEXIT                              #  AFTER AVERAGE G
000081:
000082: 24,2060           32344        P40GMB             CAF      P40CKLS2                              #  (4.1 PROTECTION)
000083: 24,2061           04555                           TC       BANKCALL
000084: 24,2062           20751                           CADR     GOPERF1
000085: 24,2063           12204                           TCF      POST41                                #  V34
000086: 24,2064           12364                           TCF      TST,TRIM                              #  V33
000087: 24,2065           44712        TRIMONLY           CS       BIT1                                  #  SET MRKRTEMP FOR GIMBAL TRIM  (-1)
000088: 24,2066           55445                 +1        TS       MRKRTMP                               #  ENTRY FROM TST,TRIM
000089:
000090: 24,2067           34714                           CAF      ZERO                                  #  SET CNTR  +0 FOR RESTART LOGIC IN S40.6
000091: 24,2070           55447                           TS       CNTR                                  #       +0 SAYS NORMAL ENTRY.
000092:                                                                                                  #                                               +1 (PRE40.6) SAYS RESTART ENTRY
000093:
000094: 24,2071           34712                           CAF      ONE
000095: 24,2072           05140                           TC       WAITLIST
000096: 24,2073  E6,1466                                  EBANK=   DAPDATR1
000097: 24,2073           02050 40066                     2CADR    S40.6
000098: 24,2075           11445                           CCS      MRKRTMP                               #  TEST TO FIND TIME TO WAIT FOR GIMBALTEST
000099: 24,2076           32343                           CAF      18SEC                                 #   PLUS, DELAY FOR 18 SECONDS
000100: 24,2077           12101                           TCF      +2                                    #  HOLE
000101: 24,2100           33000                           CAF      5SEC                                  #  DELAY FOR TRIM ONLY TASK
000102: 24,2101           04555                           TC       BANKCALL
000103: 24,2102           01730                           CADR     DELAYJOB
000104: 24,2103           05261                           TC       2PHSCHNG
000105: 24,2104           40026                           OCT      40026                                 #  6.2 = PRE40.6(-0CS), CLOKTASK(100CS)
000106: 24,2105           00234                           OCT      00234                                 #  4.23 = P40S/SV (PRIO12)
000107: 24,2106           34712        P40S/RS            CAF      ONE
000108: 24,2107           05140                           TC       WAITLIST                              #  P41/SDP
000109: 24,2110  E7,1412                                  EBANK=   TIG
000110: 24,2110           03174 50067                     2CADR    CLOKTASK
000111:
000112: 24,2112           00003                           RELINT
000113:
000114: 24,2113           03306        P40S/SV            TCR      E7SETTER                              #  JOB, 4.23 PRETECTS, PRIO12
000115: 24,2114  E7,1412                                  EBANK=   TIG
000116:                                                                                                  # # Page 639
000117: 24,2114           06006                           TC       INTPRET
000118: 24,2115           45345                           DLOAD    DSU
000119: 24,2116           03413                                    TIG
000120: 24,2117           10342                                    SEC29.96
000121: 24,2120           00041                           STORE    TDEC1
000122:
000123: 24,2121           77624                           CALRB                                          #  RETURN IN BASIC
000124: 24,2122           27574                                    MIDTOAV1
000125: 24,2123           12125                           TCF      +2
000126: 24,2124           02146                           TC       P40SNEWM                              #  INTEGRATION TIME GREATER THAN ALLOWED
000127: 24,2125           00006        P40SET             EXTEND
000128: 24,2126           30155                           DCA      MPAC                                  #  DELTA TIME TO PREREAD (INT.INIT.)
000129: 24,2127           53673                           DXCH     P40TMP
000130: 24,2130           00006                           EXTEND
000131: 24,2131           43000                           DCS      5SECDP                                #  FOR TTGBLNK
000132: 24,2132           21673                           DAS      P40TMP
000133: 24,2133           00006                           EXTEND
000134: 24,2134           31673                           DCA      P40TMP
000135: 24,2135           05231                           TC       LONGCALL
000136: 24,2136  E7,1412                                  EBANK=   TIG
000137: 24,2136           02366 50067                     2CADR    TIGBLNK
000138: 24,2140           05301                           TC       PHASCHNG
000139: 24,2141           20214                           OCT      20214                                 #  4.21 = TIGBLNK (P40TMP CS)
000140:
000141: 24,2142           15112                           TCF      ENDOFJOB
000142: 24,2143           04555        P40BLNKR           TC       BANKCALL
000143: 24,2144           20607                           CADR     CLEANDSP                              #  REMOVE RESIDUE
000144: 24,2145           15112                           TCF      ENDOFJOB
000145: 24,2146  E7,1412                                  EBANK=   TIG
000146: 24,2146           00006        P40SNEWM           EXTEND
000147: 24,2147           31246                           DCA      PIPTIME1
000148: 24,2150           53413                           DXCH     TIG                                   #  SET NEW TIG FOR 06 40
000149: 24,2151           00006                           EXTEND
000150: 24,2152           32342                           DCA      SEC29.96
000151: 24,2153           21413                           DAS      TIG
000152: 24,2154           12125                           TCF      P40SET                                #  FOR LONGCALL OF TIG-30( OR -35)
000153:
000154: 24,2155  E6,1466                                  EBANK=   DAPDATR1
000155: 24,2155           32353        POSTBURN           CAF      V16N40
000156: 24,2156           04555                           TC       BANKCALL
000157: 24,2157           20610                           CADR     REFLASH
000158: 24,2160           12204                           TCF      POST41                                #  V34 GO FINISH
000159: 24,2161           12163                           TCF      P40RCS                                #  PROCEED
000160: 24,2162           12155                           TCF      POSTBURN                              #  RECYCLE
000161: 24,2163           00006        P40RCS             EXTEND                                         #  V99N40 ENTERS HERE ON A P40 BYPASS SPS
000162: 24,2164           32411                           DCA      ACADN85
000163: 24,2165           53223                           DXCH     AVEGEXIT
000164: 24,2166           34735                           CAF      2SECS                                 #  WAIT FOR CALCN85 VIA AVEGEXIT
000165: 24,2167           04555                           TC       BANKCALL
000166:                                                                                                  # # Page 640
000167: 24,2170           01730                           CADR     DELAYJOB
000168:
000169: 24,2171           02212        P40MINDB           TCR      SETMINDB   -1
000170: 24,2172           00003                           RELINT
000171: 24,2173           05301        TIGNOW             TC       PHASCHNG
000172: 24,2174           05024                           OCT      05024                                 #  TYPE C GROUP 4 BELOW FOR NOUN 85
000173: 24,2175           20000                           OCT      20000                                 #  PRIO 20
000174: 24,2176           32350                           CAF      V16N85B
000175: 24,2177           04555                           TC       BANKCALL
000176: 24,2200           20610                           CADR     REFLASH
000177: 24,2201           12204                           TCF      POST41                                #  FINISH P40/P41
000178: 24,2202           12204                           TCF      POST41                                #  V03 PROCEED WITH REST OF THE CLEAN-UP
000179: 24,2203           12173                           TCF      TIGNOW                                #  V32 NOT GSOP RESPONSE BUT REDISPLAY N85
000180:
000181: 24,2204           00006        POST41             EXTEND
000182: 24,2205           32407                           DCA      SERVCADR
000183: 24,2206           53223                           DXCH     AVEGEXIT
000184: 24,2207           14106                           TCF      GOTOPOOH
000185:
000186:
000187: 24,2210           00056        MINDB              DEC      46         B-14
000188: 24,2211           00707        MAXDB              DEC      455        B-14
000189: 24,2212  E6,1466                                  EBANK=   DAPDATR1
000190: 24,2212           00004                 -1        INHINT
000191: 24,2213           30032        SETMINDB           CA       CDUX                                  #  ROUTINE FOR SETTING
000192: 24,2214           55572                           TS       THETADX                               #  THE MINIMUM DEADBAND
000193: 24,2215           00006                           EXTEND                                         #  IN AUTOPILOT
000194: 24,2216           30034                           DCA      CDUY
000195: 24,2217           53574                           DXCH     THETADY
000196: 24,2220           32210                           CA       MINDB                                 #  SHOULD BE CALLED UNDER
000197: 24,2221           55655                           TS       ADB                                   #  INTERRUPT INHIBITED
000198: 24,2222           44707                           CS       BIT4                                  #  EBANK = E6
000199: 24,2223           71466                           MASK     DAPDATR1
000200: 24,2224           55466                           TS       DAPDATR1
000201: 24,2225           00002                           TC       Q
000202:
000203: 24,2226  E6,1466                                  EBANK=   DAPDATR1
000204: 24,2226           00004                 -1        INHINT
000205: 24,2227           32211        SETMAXDB           CA       MAXDB                                 #  ROUTINE FOR SETTING
000206: 24,2230           55655                           TS       ADB                                   #  THE MAXIMUM DEADBAND IN AUTOPILOT
000207: 24,2231           41466                           CS       DAPDATR1
000208: 24,2232           74707                           MASK     BIT4                                  #  SHOULD BE CALLED UNDER
000209: 24,2233           27466                           ADS      DAPDATR1                              #  INTERRUPT INHIBITED
000210: 24,2234           00002                           TC       Q                                     #  EBANK = E6
000211:
000212:                                                                                                  # # Page 641
000213:                                                                                                  #  PROGRAM DESCRIPTION **P41CSM**
000214:
000215:
000216: 24,2235  E6,1466                                  EBANK=   DAPDATR1
000217: 24,2235                                           COUNT    24/P41
000218:
000219: 24,2235           05435        P41CSM             TC       UPFLAG
000220: 24,2236           00023                           ADRES    ENG2FLAG                              #  SET FOR RCS
000221:
000222: 24,2237           06006                           TC       INTPRET
000223: 24,2240           77745                           DLOAD
000224: 24,2241           15332                                    HI6ZEROS                              #  FOR P41 CSTEER =0
000225: 24,2242           03703                           STORE    CSTEER
000226:
000227: 24,2243           43145                           DLOAD    BON
000228: 24,2244           10337                                    FRCS2                                 #  2JET THRUST FOR S40.1
000229: 24,2245           00700                                    NJETSFLG
000230: 24,2246           50015                                    P40S/F                                #  NJETS = 1 2-JET
000231: 24,2247           52015                           DAD      GOTO                                  #  NJETS = 0  4-JET
000232: 24,2250           10337                                    FRCS2
000233: 24,2251           50015                                    P40S/F
000234:
000235: 24,2252           41011        P41/P40            CS       MODREG
000236: 24,2253           74712                           MASK     ONE                                   #  P41EXITS AT CALL LOC +1
000237: 24,2254           00006                           EXTEND
000238: 24,2255           12257                           BZF      +2                                    #  P41
000239: 24,2256           24002                           INCR     Q                                     #  P40 EXITS AT CALL LOC +2
000240: 24,2257           00002                           TC       Q
000241:
000242: 24,2260           34675        TTG/0              CAF      PRIO20                                #  TASK (4.4 PROTECTS IN P41)
000243: 24,2261           05027                           TC       NOVAC
000244: 24,2262  E6,1466                                  EBANK=   DAPDATR1
000245: 24,2262           02173 50066                     2CADR    TIGNOW
000246:
000247: 24,2264           05447        P40CLK             TC       DOWNFLAG
000248: 24,2265           00155                           ADRES    TIMRFLAG
000249:
000250: 24,2266           15213                           TCF      TASKOVER
000251:
000252: 24,2267           32347        P41/DSP            CAF      V06N85B                               #  SET UP FOR NONFLASH V 06 N85 BY CLOCKJOB
000253: 24,2270           55145                           TS       NVWORD1
000254:
000255: 24,2271           06006                           TC       INTPRET
000256: 24,2272           77624                           CALL                                           #  COMPUTE
000257: 24,2273           50314                                    P40CNV85                              #          VGTIG IN CTRL COORDS
000258: 24,2274           77776                           EXIT
000259: 24,2275           00006                           EXTEND                                         #  DO CONTROL COORD CALCULATION AFTER AVEG
000260: 24,2276           32411                           DCA      ACADN85
000261: 24,2277           53223                           DXCH     AVEGEXIT
000262:                                                                                                  # # Page 642
000263: 24,2300           05261                           TC       2PHSCHNG
000264: 24,2301           40036                           OCT      40036                                 #  6.3=CLOKTASK(100CS)
000265: 24,2302           00234                           OCT      234                                   #  4.23=P40S/SV(PRIO12)
000266:
000267: 24,2303           12106                           TCF      P40S/RS
000268: 24,2304           32350        P41REDSP           CAF      V16N85B                               #  ENTER FROM P41 SIDE OF TIGAVEG
000269: 24,2305           55145                           TS       NVWORD1                               #   REDISPLAY NONFLASHING
000270: 24,2306           32342                           CAF      SEC29.96   +1
000271: 24,2307           05140                           TC       WAITLIST
000272: 24,2310  E6,1466                                  EBANK=   DAPDATR1
000273: 24,2310           02260 50066                     2CADR    TTG/0
000274: 24,2312           44710                           CS       BIT3                                  #  4.4 = TTG/0(2996CS), PRECHECK(-0CS)
000275: 24,2313           12515                           TCF      TTGPHS
000276: 24,2314           40220        P40CNV85           STQ      SETPD
000277: 24,2315           03730                                    QTEMP1
000278: 24,2316           00001                                    0
000279: 24,2317           41575                           VLOAD    PUSH
000280: 24,2320           03721                                    VGPREV                                #  EQUALS VGTIG (TARGETTING INPUT)
000281: 24,2321           77624                           CALL
000282: 24,2322           45426                                    S41.1
000283: 24,2323           37665                           STCALL   VGBODY
000284: 24,2324           03730                                    QTEMP1
000285:
000286: 24,2325  E6,1466                                  EBANK=   DAPDATR1
000287: 24,2325           06006        CALCN85            TC       INTPRET
000288: 24,2326           77624                           CALL
000289: 24,2327           51020                                    UPDATEVG                              #  NEW VG, S40.8(+MAYBE S40.9)
000290: 24,2330           77624                           CALL
000291: 24,2331           50314                                    P40CNV85                              #  COMPUTE VGBODY
000292: 24,2332           77776                           EXIT
000293: 24,2333           03131                           TC       SERVXT
000294: 24,2334           02217 06650  FENG               2DEC     9.1188544  B-7                        #  SPS THRUST (20500LBS), SC.AT B+7 NEWT/E4
000295: 24,2336           00013 06112  FRCS2              2DEC     .087437837 B-7                        #  RCS ULLAGE (199.6COS10 LBS), SC.AT
000296:                                                                                                  #                                               B+7 NEWTONS/E+4
000297: 24,2340           04700        SEC24.96           DEC      2496       B-14
000298: 24,2341           00000 05664  SEC29.96           2DEC     2996       B-28
000299: 24,2343           03410        18SEC              DEC      1800       B-14
000300: 24,2344           00204        P40CKLS2           OCT      204
000301: 24,2345           37730        40CST5             OCT      37730                                 #  40 CS FOR THE T5 CLOCK
000302: 24,2346     4377               OCT12              =        TEN
000303: 24,2346           04123        V1683              VN       1683
000304: 24,2347           01525        V06N85B            VN       0685
000305: 24,2350           04125        V16N85B            VN       1685
000306: 24,2351           01450        V06N40             VN       0640
000307: 24,2352           24020        P40OK99            OCT      24020                                 #  BITS 14,12, AND5 FOR LINUS VERB 99
000308: 24,2353           04050        V16N40             VN       1640
000309:                                                                                                  # # Page 643
000310: 24,2354           00027        OCT27/24           OCT      27
000311: 24,2355           00053        OCT53              OCT      53
000312: 24,2356           00035        OCT35              OCT      35
000313: 24,2357  E6,1466                                  EBANK=   DAPDATR1
000314: 24,2357           03132 12066  T5IDL24            2CADR    T5IDLOC
000315: 24,2361           01120 25456  MDOTHI             2DEC     .289391932 B-3                        #  63.8 LB/SEC, SC.AT B+3 KG/CS   (=MDOTLO)
000316: 24,2363           00026        3MDOT              DEC      86.8175796 B-16                       #  3SEC MASS LOSS (63.8 LBS/SEC), SC.AT
000317:                                                                                                  #                                               B+16 KG/SEC
000318: 24,2364           34712        TST,TRIM           CAF      BIT1                                  #  SET UP FOR GIMB DRIVE TEST AND TRIM (+1)
000319: 24,2365           12066                           TCF      TRIMONLY   +1
000320: 24,2366           33000        TIGBLNK            CAF      5SEC                                  #  CALL TIGAVEG IN FIVE SEC AT TIG-30
000321: 24,2367           05140                           TC       WAITLIST
000322: 24,2370  E7,1412                                  EBANK=   TIG
000323: 24,2370           02504 50067                     2CADR    TIGAVEG
000324: 24,2372           34714                           CAF      ZERO                                  #  DISABLE HERE, NOT IN P40BLNKR
000325: 24,2373           55145                           TS       NVWORD1
000326:
000327: 24,2374           34761                           CAF      PRIO14
000328: 24,2375           05027                           TC       NOVAC
000329: 24,2376  E7,1412                                  EBANK=   TIG
000330: 24,2376           02143 50067                     2CADR    P40BLNKR                              #  DONT PROTECT-RESTARTS BLANK DSKY
000331: 24,2400           44362                           CS       OCT37                                 #  4.37 = TIGAVEG (500CS)
000332: 24,2401           04114        P40TSK             TC       NEWPHASE
000333: 24,2402           00004                           OCT      4
000334: 24,2403           05213                           TC       TASKOVER
000335:
000336: 24,2404  E7,1412                                  EBANK=   TIG
000337: 24,2404           02440 50067  ACADN83            2CADR    CALCN83
000338: 24,2406  E7,1412                                  EBANK=   TIG
000339: 24,2406           03136 76067  SERVCADR           2CADR    SERVEXIT
000340: 24,2410  E6,1466                                  EBANK=   DAPDATR1
000341: 24,2410           02325 50066  ACADN85            2CADR    CALCN85
000342:
000343:                                                                                                  # # Page 644
000344:                                                                                                  #  PROGRAM DESCRIPTION **P47CSM**
000345:
000346:
000347: 24,2412                                           COUNT    24/P47
000348:
000349: 24,2412  E7,1412                                  EBANK=   TIG
000350: 24,2412           04555        P47CSM             TC       BANKCALL                              #    IMU STATUS CHECK
000351: 24,2413           17573                           CADR     R02BOTH
000352: 24,2414           06006                           TC       INTPRET
000353: 24,2415           77624                           CALRB
000354: 24,2416           27570                                    MIDTOAV2
000355: 24,2417           30155                           CAE      MPAC       +1                         #  DELTA TIME TO RPEREAD (LESS THAN 1000
000356: 24,2420           55672                           TS       P40TMP                                #       CS, WITH A TPAGREE, INT.INIT.)
000357: 24,2421           05140                           TC       WAITLIST
000358: 24,2422  E7,1412                                  EBANK=   TIG
000359: 24,2422           02427 50067                     2CADR    TIGON                                 #  TIGON IS REQUIRED TO MATHCHTAT AND AVEG
000360:
000361: 24,2424           05301                           TC       PHASCHNG
000362: 24,2425           40574                           OCT      40574                                 #  A, 4.57 = TIGON (P40TMP CS)
000363: 24,2426           15112                           TCF      ENDOFJOB
000364:
000365: 24,2427  E7,1672                                  EBANK=   P40TMP
000366: 24,2427           00006        TIGON              EXTEND
000367: 24,2430           32405                           DCA      ACADN83
000368: 24,2431           53223                           DXCH     AVEGEXIT
000369: 24,2432           34371                           CAF      PRIO30                                #  FORCE ZEROING OF N83 BEFORE SERVICER
000370: 24,2433           05027                           TC       NOVAC
000371: 24,2434  E7,1412                                  EBANK=   TIG
000372: 24,2434           02463 50067                     2CADR    P47BODY
000373: 24,2436           44711                           CS       BIT2                                  #  4.2 = PRECHECK (-0CS), P47BODY (PRIO30)
000374: 24,2437           12515                           TCF      TTGPHS
000375:
000376:
000377: 24,2440  E7,1412                                  EBANK=   TIG
000378: 24,2440           06006        CALCN83            TC       INTPRET
000379: 24,2441           77601                           SETPD                                          #  SET UP PUSHLIST FOR S41.1
000380: 24,2442           00001                                    0
000381: 24,2443           53375                           VLOAD    VAD
000382: 24,2444           03665                                    DELVCTL
000383: 24,2445           03433                                    DELVREF
000384: 24,2446           03460                           STORE    DV47TEMP                              #  FOR COPYCYCLE BELOW
000385: 24,2447           45006                           PUSH     CALL
000386: 24,2450           45426                                    S41.1
000387: 24,2451           37675                           STCALL   DELVIMU
000388: 24,2452           70436                                    S11.1                                 #  CALC. VI, H, HDOT FOR NOUN 62
000389: 24,2453           77776                           EXIT
000390: 24,2454           05301                           TC       PHASCHNG
000391: 24,2455           10035                           OCT      10035                                 #  REREADAC AND HERE
000392:                                                                                                  # # Page 645
000393: 24,2456           34715                           CAF      FIVE
000394: 24,2457           05475                           TC       GENTRAN
000395: 24,2460           01457                           ADRES    DV47TEMP
000396: 24,2461           01664                           ADRES    DELVCTL
000397:
000398: 24,2462           03131                           TC       SERVXT
000399: 24,2463           06006        P47BODY            TC       INTPRET
000400: 24,2464           77775                           VLOAD
000401: 24,2465           15332                                    HI6ZEROS
000402: 24,2466           03675                           STORE    DELVIMU                               #  CLEAR DISPLAY AND ACCUMULATOR STORAGE
000403: 24,2467           03665                           STORE    DELVCTL                               #  UPON INITIATION OR-ENTER-RESPONSE
000404: 24,2470           77776                           EXIT
000405: 24,2471           34762        P47BOD             CAF      PRIO15                                #  LOWER PRIO THAN CALCN83 (20)
000406: 24,2472           05103                           TC       PRIOCHNG                              #    TO PREVENT INTERRUPTSION OF CALCN83
000407: 24,2473           05301                           TC       PHASCHNG
000408: 24,2474           05024                           OCT      05024                                 #  TYPE C GROUP 4 BELOW FOR NOUN 83
000409: 24,2475           15000                           OCT      15000                                 #  PRIO 15
000410: 24,2476           32346        P47/DSP            CAF      V1683
000411: 24,2477           04555                           TC       BANKCALL
000412: 24,2500           20624                           CADR     GOFLASH
000413: 24,2501           04106                           TC       GOTOPOOH
000414: 24,2502           04106                           TC       GOTOPOOH
000415: 24,2503           12463                           TCF      P47BODY                               #  RECYCLE - CLEAR ACCUMULATED VELOCITY
000416:
000417:                                                                                                  # # Page 646
000418:                                                                                                  #  ROUTINE **TIG-30** DESCRIPTION
000419:
000420:
000421: 24,2504  E7,1412                                  EBANK=   TIG
000422: 24,2504                                           COUNT    24/P40
000423:
000424: 24,2504           02252        TIGAVEG            TC       P41/P40                               #  TASK (4.37 PROTECTS)
000425: 24,2505           12304                           TCF      P41REDSP
000426:
000427: 24,2506           32351                           CAF      V06N40                                #  UNBLANK DISPLAY
000428: 24,2507           55145                           TS       NVWORD1
000429:
000430: 24,2510           32340                           CAF      SEC24.96
000431: 24,2511           05140                           TC       WAITLIST
000432: 24,2512  E7,1412                                  EBANK=   TIG
000433: 24,2512           02523 50067                     2CADR    TIG-5
000434: 24,2514           46211                           CS       SIX                                   #  4.6 = TIG-5 (2496CS), PRECHECK (-0CS)
000435: 24,2515           04114        TTGPHS             TC       NEWPHASE                              #  ENTRY FROM P41REDSP (P41) WITH A=-4, OR
000436: 24,2516           00004                           OCT      4                                     #        FROM TIGON    (P47) WITH A=-2
000437:
000438: 24,2517           10763        PRECHECK           CCS      PHASE5                                #  HAS SERVICER BEEN RESTARTED
000439: 24,2520           15213                           TCF      TASKOVER                              #  YES, DONT START ANOTHER ONE
000440: 24,2521           04574                           TC       POSTJUMP
000441: 24,2522           76604                           CADR     PREREAD
000442:
000443:                                                                                                  # # Page 647
000444:                                                                                                  #  ROUTINE **TIG-5** DESCRIPTION
000445:
000446:
000447: 24,2523  E7,1412                                  EBANK=   TIG
000448: 24,2523           33000        TIG-5              CAF      5SEC
000449: 24,2524           05140                           TC       WAITLIST
000450: 24,2525  E6,1466                                  EBANK=   DAPDATR1
000451: 24,2525           02541 50066                     2CADR    TIG-0
000452: 24,2527           44702                           CS       BIT9                                  #  WILL CAUSE V99 FLASH
000453: 24,2530           55145                           TS       NVWORD1
000454:
000455: 24,2531           05261                           TC       2PHSCHNG
000456: 24,2532           40074                           OCT      40074                                 #  A, 4.7 = TIG-0 (500CS)
000457: 24,2533           00033                           OCT      00033                                 #  A, 3.3 = S40.13 (PRIO20)
000458:
000459: 24,2534           34675                           CAF      PRIO20
000460: 24,2535           05042                           TC       FINDVAC
000461: 24,2536  E7,1427                                  EBANK=   TGO
000462: 24,2536           02404 34067                     2CADR    S40.13
000463: 24,2540           15213                           TCF      TASKOVER
000464:
000465:                                                                                                  # # Page 648
000466:                                                                                                  #  ROUTINES **TIG-0** AND **IGNITION** DESCRIPTION
000467:
000468:
000469: 24,2541  E6,1466                                  EBANK=   DAPDATR1                              #  TASK, 4.7 PHASE, OR 4.77 (-0CS) IN R40
000470: 24,2541           40103        TIG-0              CS       FLAGWRD7                              #  SET IGN FLAG
000471: 24,2542           74676                           MASK     BIT13
000472: 24,2543           26103                           ADS      FLAGWRD7
000473:
000474: 24,2544           30103                           CAE      FLAGWRD7                              #  CHECK ASTN FLAG FOR V99 RESPONSE
000475: 24,2545           74677                           MASK     BIT12
000476: 24,2546           00006                           EXTEND
000477: 24,2547           15213                           BZF      TASKOVER                              #  WAIT FOR V99P
000478:
000479: 24,2550           32351                           CAF      V06N40                                #  CLEAR THE V99 (IN CASE OF A RESTART
000480: 24,2551           55145                           TS       NVWORD1                               #       DURING THE V99 SEQUENCE)
000481:
000482: 24,2552           05301                           TC       PHASCHNG                              #  V99P HAS COME ALREADY, DO IGNITION NOW
000483: 24,2553           00614                           OCT      00614                                 #  A, 4.61 = IGNITION (-0CS) TBASE OLD
000484:
000485: 24,2554           30032        IGNITION           CAE      CDUX                                  #  SAVE FOR ROLL DAP REFERENCE OGAD
000486: 24,2555           55450                           TS       OGAD                                  #       V99PJOB (CLOCKJOB) SETS UP IGNITION
000487: 24,2556           00006                           EXTEND                                         #       TASK (4.61 PROTECTION)
000488: 24,2557           30025                           DCA      TIME2                                 #       FOR RESTARTS
000489: 24,2560           53337                           DXCH     TEVENT
000490: 24,2561           40101                           CS       FLAGWRD5                              #  SET ENGONFLG
000491: 24,2562           74704                           MASK     BIT7
000492: 24,2563           26101                           ADS      FLAGWRD5
000493: 24,2564           34676        SPSON              CAF      BIT13                                 #  TURN ON SPS ENGINE
000494: 24,2565           00006                           EXTEND
000495: 24,2566           05011                           WOR      DSALMOUT
000496:
000497: 24,2567           34702        IMPULCHK           CAF      BIT9                                  #  CHECK FOR IMPULSIVE BURN
000498: 24,2570           70076                           MASK     FLAGWRD2
000499: 24,2571           10000                           CCS      A
000500: 24,2572           12657                           TCF      IMPLBURN                              #  IMPULSIVE
000501: 24,2573           40102                           CS       FLAGWRD6                              #  NON-IMPULSIVE, SET STRULLSW FOR STEERULL
000502: 24,2574           74676                           MASK     BIT13
000503: 24,2575           26102                           ADS      FLAGWRD6
000504:
000505: 24,2576           44105        PREPTVC            CS       OCT60000                              #  RESET T5 BITS
000506: 24,2577           70102                           MASK     FLAGWRD6
000507: 24,2600           54102                           TS       FLAGWRD6
000508:
000509: 24,2601           00006                           EXTEND                                         #  KILL RCS
000510: 24,2602           32360                           DCA      T5IDL24
000511: 24,2603           53313                           DXCH     T5LOC
000512:
000513: 24,2604           46214                           CS       THREE                                 #  4.3 = DOTVCON (40CS)
000514: 24,2605           04114                           TC       NEWPHASE
000515: 24,2606           00004                           OCT      4
000516:                                                                                                  # # Page 649
000517: 24,2607           05156                           TC       FIXDELAY
000518: 24,2610           00050                           DEC      40         B-14                       #  0.4 SECOND DELAY FOR THRUST BUILDUP
000519:
000520: 24,2611           44712        DOTVCON            CS       BIT1                                  #  SET TVCPHASE = TVCDAPON CALL (FRESHDAP)
000521: 24,2612           55654                           TS       TVCPHASE
000522: 24,2613           34714                           CAF      ZERO                                  #  SET TVCEXECUTIVE PHASE
000523: 24,2614           55661                           TS       TVCEXPHS
000524: 24,2615           44105                           CS       OCT60000                              #  SET T5 BITS TO INDICATE TVC TAKEOVER....
000525: 24,2616           70102                           MASK     FLAGWRD6                              #       BITS 15,14  =  10
000526: 24,2617           64674                           AD       BIT15
000527: 24,2620           54102                           TS       FLAGWRD6
000528:
000529: 24,2621           36214                           CAF      THREE                                 #  6.3 = CLOKTASK (100CS), DROPPING PRE40.6
000530: 24,2622           54001                           TS       L                                     #       WHICH IS HANDLED NOW BY REDOTVC
000531: 24,2623           40000                           COM
000532: 24,2624           52765                           DXCH     -PHASE6
000533:
000534: 24,2625           44715                           CS       FIVE                                  #  4.5 = DOSTRULL  (160 CS)
000535: 24,2626           04114                           TC       NEWPHASE
000536: 24,2627           00004                           OCT      4
000537:
000538: 24,2630           34672                           CAF      POSMAX                                #  SET TIME5 FOR STARTING RIGHT AWAY
000539: 24,2631           54030                           TS       TIME5
000540: 24,2632           00006                           EXTEND
000541: 24,2633           33003                           DCA      TVCON2C                               #  (TVCDAPON)
000542: 24,2634           53313                           DXCH     T5LOC                                 #  (KILLS RCS DAP)
000543:
000544: 24,2635           05156                           TC       FIXDELAY                              #  0.4 + 1.6 = 2.0 SEC FOR ULLAGE-OFF AND
000545: 24,2636           00240                           DEC      160        B-14                       #       STEERING (IF NON-IMPULSIVE)
000546:
000547: 24,2637           34676        DOSTRULL           CAF      BIT13                                 #  CHECK STRULLSW FOR IMPULSIVE BURN
000548: 24,2640           70102                           MASK     FLAGWRD6
000549: 24,2641           10000                           CCS      A
000550: 24,2642           02650                           TCR      STEERULL                              #  NON-IMPULSIVE, STEERING AND ULLAGE OFF
000551: 24,2643           02653                           TCR      ULAGEOFF                              #  ULLAGE OFF  (ONLY, OR AGAIN)
000552:
000553: 24,2644           00006                           EXTEND
000554: 24,2645           34714                           DCA      NEG0                                  #  KILL GROUP 4  (DP NEG0 = -0,+0)
000555: 24,2646           52761                           DXCH     -PHASE4
000556:
000557: 24,2647           15213        ENDIGN             TCF      TASKOVER
000558:
000559:
000560: 24,2650           40076        STEERULL           CS       FLAGWRD2                              #  SET STEERSW
000561: 24,2651           74700                           MASK     BIT11
000562: 24,2652           26076                           ADS      FLAGWRD2
000563:
000564: 24,2653           34714        ULAGEOFF           CAF      ZERO
000565: 24,2654           00006                           EXTEND
000566: 24,2655           01005                           WRITE    CHAN5                                 #  ZERO CHANNEL 5
000567:                                                                                                  # # Page 650
000568: 24,2656           00002                           TC       Q
000569:
000570:
000571: 24,2657           44676        IMPLBURN           CS       BIT13                                 #  RESET STRULLSW (COULD BE AN IMPULSIVE
000572: 24,2660           70102                           MASK     FLAGWRD6                              #       ENGINE FAIL)
000573: 24,2661           54102                           TS       FLAGWRD6
000574:
000575: 24,2662           03306                           TCR      E7SETTER
000576:
000577: 24,2663  E7,1412                                  EBANK=   TIG
000578: 24,2663           00006                           EXTEND                                         #  PREPARE FOR R1 OF V06N40 (CLOCKTASK)
000579: 24,2664           31430                           DCA      TGO
000580: 24,2665           53413                           DXCH     TIG
000581: 24,2666           00006                           EXTEND
000582: 24,2667           30025                           DCA      TIME2
000583: 24,2670           21413                           DAS      TIG
000584:
000585: 24,2671           31430                           CAE      TGO        +1                         #  (TPAGREE IN S40.13, LESS THAN 600CS)
000586: 24,2672           05140                           TC       WAITLIST
000587: 24,2673  E7,1427                                  EBANK=   TGO
000588: 24,2673           02710 50067                     2CADR    ENGINOFF
000589: 24,2675           05261                           TC       2PHSCHNG                              #  PROTECT....
000590: 24,2676           40153                           OCT      40153                                 #  A, 3.15 = ENGINOFF (TGO+1)....NOTE GROUP
000591: 24,2677           05014                           OCT      05014                                 #  C, DELTAT NEXT, TASK BELOW, IN
000592: 24,2700           77777                           DEC      -0         B-14                       #  -0 CS
000593:
000594: 24,2701           44702                           CS       BIT9                                  #  RESET IMPULSW, ENGINOFF IS NOW SET UP
000595: 24,2702           70076                           MASK     FLAGWRD2
000596: 24,2703           54076                           TS       FLAGWRD2
000597:
000598: 24,2704           03311                           TCR      E6SETTER
000599: 24,2705  E6,1466                                  EBANK=   DAPDATR1
000600:
000601: 24,2705           34714                           CAF      ZERO                                  #  SET UP V97VCNTR IN CASE ENGINOFF (MASS-
000602: 24,2706           55444                           TS       V97VCNTR                              #       BACK) ARRIVES BEFORE TVCDAPON
000603:
000604: 24,2707           12576                           TCF      PREPTVC
000605:
000606:
000607: 24,2710  E7,1427                                  EBANK=   TGO                                   #  E7 FORCED BY 3.15SPOT VARIABLE DELTA-T
000608: 24,2710           03311        ENGINOFF           TCR      E6SETTER                              #  TASK, 3.15 PHASE (TGO+1 CS)       GET E6
000609: 24,2711  E6,1466                                  EBANK=   DAPDATR1
000610: 24,2711           31474                           CAE      CSMMASS
000611: 24,2712           55662                           TS       MASSTMP                               #  COPYCYCLE FOR MASSBACK
000612: 24,2713           05261                           TC       2PHSCHNG
000613: 24,2714           00003                           OCT      00003                                 #  KILL GROUP 3 PROTECTION OF ENGINOFF, DO
000614: 24,2715           40634                           OCT      40634                                 #  A, 4.63 = DOSPSOFF  (-0CS)
000615: 24,2716           02741        DOSPSOFF           TCR      SPSOFF                                #  SHUT DOWN SPS, MASS UPDATES, ETC.
000616: 24,2717           42354                           CS       OCT27/24                              #  (OCTAL 27)
000617:                                                                                                  # # Page 651
000618: 24,2720           04114                           TC       NEWPHASE
000619: 24,2721           00004                           OCT      4                                     #  4.27 = DOTVCRCS (250 CS)
000620:
000621: 24,2722           05156                           TC       FIXDELAY                              #  2.5 SECOND DELAY FOR SPS TAILOFF
000622: 24,2723           00372                           DEC      250        B-14
000623:
000624: 24,2724           02227        DOTVCRCS           TCR      SETMAXDB                              #  WIDE DEADBAND FOR CUTOFF TRANSIENT
000625:
000626: 24,2725           04633                           TC       IBNKCALL                              #  SET UP RCS DAP (KILLS TVCDAPS, SETS T5
000627: 24,2726           42010                           CADR     RCSDAPON                              #       BITS, WAITS 0.6SEC FOR TVCEXEC DIE)
000628:
000629: 24,2727           04633                           TC       IBNKCALL                              #  UPDATE WEIGHT/G AND MASS-PROPERTIES FOR
000630: 24,2730           13176                           CADR     MASSPROP                              #       RCS DAP STARTUP IN 0.6 SECONDS
000631:
000632: 24,2731           03005                           TCR      TVCZAP                                #  WIPE OUT TVC, TURN OFF CLOKTASK
000633:
000634: 24,2732           05301                           TC       PHASCHNG
000635: 24,2733           00354                           OCT      00354                                 #  A, 4.35 = POSTBURN (NOVAC, PRIO12)
000636: 24,2734           34603                           CAF      PRIO12                                #  SET UP POSTBURN V16N40 JOB
000637: 24,2735           05027                           TC       NOVAC
000638: 24,2736  E6,1466                                  EBANK=   DAPDATR1                              #  (SET MAXDB IN POST41)
000639: 24,2736           02155 50066                     2CADR    POSTBURN
000640: 24,2740           15213                           TCF      TASKOVER
000641:
000642: 24,2741  E6,1466                                  EBANK=   DAPDATR1
000643: 24,2741           00006        SPSOFF             EXTEND                                         #  ESTABLISH SPSOFF TEVENT
000644: 24,2742           30025                           DCA      TIME2
000645: 24,2743           53337                           DXCH     TEVENT
000646: 24,2744           44704                           CS       BIT7                                  #  RESET ENGONFLG
000647: 24,2745           70101                           MASK     FLAGWRD5
000648: 24,2746           54101                           TS       FLAGWRD5                              #  (RESTARTS WILL SHUT DOWN SPS NOW)
000649: 24,2747           44676                           CS       BIT13                                 #  SHUT DOWN SPS ENGINE
000650: 24,2750           00006                           EXTEND
000651: 24,2751           03011                           WAND     DSALMOUT
000652:
000653: 24,2752           31444        MASSBACK           CAE      V97VCNTR                              #  RESTORE PART OF PRE-DECREMENTED MASS
000654:                                                                                                  #                                               V97CNTR = VCNTR UNLESS V97 IS
000655:                                                                                                  #                                               ACTIVE. ONLY V97CNTR IS THEN RIGHT
000656: 24,2753           00006                           EXTEND                                         #    VCNTR COUNTS 1/2-SECONDS IN TVC EXEC
000657: 24,2754           72361                           MP       MDOTHI                                #       MDOT, SC<AT B+3 KG/CS
000658: 24,2755           22000                           LXCH     A
000659: 24,2756           00006                           EXTEND
000660: 24,2757           74734                           MP       1SEC                                  #  DEC 100
000661: 24,2760           61662                           AD       MASSTMP                               #  CORRECTION IS ACCURATE TO 5 CS OF FLOW
000662: 24,2761           55474                           TS       CSMMASS                               #       (1.44 KG OR 0.4 BITS)
000663:
000664: 24,2762           34674        BESTTRIM           CAF      BIT15                                 #  CHECK FOR SWITCHOVER, SELECT BEST TRIMS
000665: 24,2763           70105                           MASK     FLAGWRD9                              #       FOR NEXT IGNITION (OR REIGNITION)
000666: 24,2764           00006                           EXTEND
000667:                                                                                                  # # Page 652
000668: 24,2765           12767                           BZF      DBARTRIM                              #  PRE-SWITCHOVER
000669: 24,2766           00002                           TC       Q                                     #  POST-SWITCHOVER, SO LEAVE TRIMS AS ARE
000670:
000671: 24,2767           31621        DBARTRIM           CAE      DELPBAR                               #  UPDATE TRIMS WITH DELP,YBAR
000672: 24,2770           55425                           TS       PACTOFF
000673: 24,2771           31623                           CAE      DELYBAR
000674: 24,2772           55426                           TS       YACTOFF
000675: 24,2773           00002                           TC       Q
000676:
000677: 24,2774  E6,1466                                  EBANK=   DAPDATR1
000678: 24,2774           03121 50066  STEERADS           2CADR    STEERING
000679: 24,2776           37703        .6SECT5            OCT      37703
000680: 24,2777           00000        5SECDP             DEC      0          B-14                       #  MAKE DP 5SEC
000681: 24,3000           00764        5SEC               DEC      500        B-14
000682: 24,3001           02202        OCT02202           OCT      02202                                 #  BITS 2,8,11 FOR CHANNEL 12 TVC/OPTICS
000683: 24,3002  E6,1466                                  EBANK=   DAPDATR1
000684: 24,3002           02032 36066  TVCON2C            2CADR    TVCDAPON
000685:
000686: 24,3004           00004                 -1        INHINT
000687: 24,3005           43001        TVCZAP             CS       OCT02202                              #  DISABLE TVC AND OPT ERR CNTRLS, REENGAGE
000688: 24,3006           00006                           EXTEND                                         #       OPTICS DAC
000689: 24,3007           03012                           WAND     CHAN12
000690: 24,3010           44712                           CS       BIT1                                  #  ENABLE T4RUPT OPTICS MONITOR....PERMIT
000691: 24,3011           55303                           TS       OPTIND                                #      OPTICS-ZERO BUT NOT OPTICS-DRIVE
000692: 24,3012           34714                           CAF      ZERO                                  #  CLEAR NVWORD1 IN CASE CLOCKJOB WAITING
000693: 24,3013           55145                           TS       NVWORD1
000694: 24,3014           44700                           CS       BIT11                                 #  CLEAR TIMRFLAG TO STOP CLOKTASK
000695: 24,3015           70103                           MASK     FLAGWRD7
000696: 24,3016           54103                           TS       FLAGWRD7
000697: 24,3017           00002                           TC       Q
000698: 24,3020  E6,1466                                  EBANK=   DAPDATR1
000699: 24,3020           43020        UPDATEVG           STQ      BON
000700: 24,3021           03730                                    QTEMP1
000701: 24,3022           01307                                    XDELVFLG
000702: 24,3023           51047                                    CALL40.8
000703:
000704: 24,3024           50135                           SLOAD    BMN
000705: 24,3025           03347                                    NBRCYCLS
000706: 24,3026           51053                                    SETUP.9
000707:
000708: 24,3027           53375                           VLOAD    VAD
000709: 24,3030           03351                                    DELVSUM
000710: 24,3031           03433                                    DELVREF
000711: 24,3032           03357                           STORE    DELVSUMP
000712: 24,3033           77776                           EXIT
000713: 24,3034           34712                           CA       ONE
000714: 24,3035           61746                           AD       NBRCYCLS
000715: 24,3036           55747                           TS       NBRCYCLP
000716:                                                                                                  # # Page 653
000717: 24,3037           05301                           TC       PHASCHNG                              #  TYPE B RESTART BELOW AND 5.3 REREADACCS
000718: 24,3040           10035                           OCT      10035
000719:
000720: 24,3041           31747                           CA       NBRCYCLP
000721: 24,3042           55746                           TS       NBRCYCLS
000722: 24,3043           06006                           TC       INTPRET
000723: 24,3044           77775                           VLOAD
000724: 24,3045           03357                                    DELVSUMP
000725: 24,3046           03351                           STORE    DELVSUM
000726:
000727: 24,3047           77624        CALL40.8           CALL
000728: 24,3050           34130                                    S40.8
000729: 24,3051           77650                           GOTO
000730: 24,3052           03730                                    QTEMP1
000731:
000732: 24,3053           67214        SETUP.9            BON      SLOAD
000733: 24,3054           01310                                    FIRSTFLG
000734: 24,3055           51070                                    SURELY.9
000735: 24,3056           03350                                    NBRCYCLP
000736: 24,3057           74301                           NORM     VXSC                                  #  (NORM  HANDLES ZERO PROPERLY)
000737: 24,3060           00047                                    X1
000738: 24,3061           03705                                    BDT
000739: 24,3062           53257                           VSR*     VAD
000740: 24,3063           20563                                    0          -14D,1
000741: 24,3064           03646                                    VGTEMP
000742: 24,3065           77651                           VSU
000743: 24,3066           03351                                    DELVSUM
000744: 24,3067           03721                           STORE    VGPREV
000745: 24,3070           77776        SURELY.9           EXIT
000746: 24,3071           34676                           CAF      PRIO10
000747: 24,3072           05042                           TC       FINDVAC
000748: 24,3073  E6,1466                                  EBANK=   DAPDATR1
000749: 24,3073           02257 34066                     2CADR    S40.9
000750: 24,3075           05261                           TC       2PHSCHNG
000751: 24,3076           00051                           OCT      00051                                 #  A, 1.5 = REDO40.9, PRIO 10
000752: 24,3077           10035                           OCT      10035
000753: 24,3100           06006                           TC       INTPRET
000754: 24,3101           77775                           VLOAD
000755: 24,3102           01171                                    RN                                    #  ACTIVE VEHICLE RADIUS VECTOR AT T1
000756: 24,3103           27570                           STOVL    RINIT
000757: 24,3104           01177                                    VN                                    #  ACTIVE VEHICLE VELOCITY VECTORY AT T1
000758: 24,3105           17576                           STODL    VINIT
000759: 24,3106           01205                                    PIPTIME
000760: 24,3107           03474                           STORE    TNIT
000761: 24,3110           77621                           BDSU
000762: 24,3111           03656                                    TPASS4
000763: 24,3112           27423                           STOVL    DELLT4
000764: 24,3113           15332                                    HI6ZEROS
000765: 24,3114           17351                           STODL    DELVSUM
000766:                                                                                                  # # Page 654
000767: 24,3115           15332                                    HI6ZEROS
000768: 24,3116           03347                           STORE    NBRCYCLS
000769: 24,3117           77650                           GOTO
000770: 24,3120           51047                                    CALL40.8
000771: 24,3121  E6,1466                                  EBANK=   DAPDATR1
000772: 24,3121           06006        STEERING           TC       INTPRET
000773: 24,3122           77624                           CALL
000774: 24,3123           51020                                    UPDATEVG
000775: 24,3124           77776                           EXIT
000776: 24,3125           34702                           CAF      BIT9                                  #  CHECK IMPULSW
000777: 24,3126           70076                           MASK     FLAGWRD2
000778: 24,3127           10000                           CCS      A
000779: 24,3130           13133                           TCF      +3                                    #  PRE-IGNITE, REQUEST ENG-OFF, OR POST-OFF
000780: 24,3131           04574        SERVXT             TC       POSTJUMP
000781: 24,3132           77136                           CADR     SERVEXIT
000782: 24,3133           34676                           CAF      BIT13                                 #  CHECK ENGINE-ON/-OFF
000783: 24,3134           00006                           EXTEND
000784: 24,3135           02011                           RAND     DSALMOUT
000785: 24,3136           00006                           EXTEND
000786: 24,3137           13131                           BZF      SERVXT                                #  ENGINE-OFF, SO PRE-IGNITE OR POST-OFF
000787: 24,3140           03306                           TCR      E7SETTER
000788: 24,3141  E7,1412                                  EBANK=   TIG
000789: 24,3141           00004                           INHINT
000790: 24,3142           00006                           EXTEND
000791: 24,3143           31413                           DCA      TIG
000792: 24,3144           52155                           DXCH     MPAC
000793: 24,3145           00006                           EXTEND
000794: 24,3146           40025                           DCS      TIME2
000795: 24,3147           20155                           DAS      MPAC
000796: 24,3150           07224                           TCR      DPAGREE
000797: 24,3151           30155                           CAE      MPAC       +1                         #  (LESS THAN 6 (OR 4) SECONDS TO GO)
000798: 24,3152           10000                           CCS      A                                     #  PROTECT AGAINST NEG/ZRO W.L. CALL
000799: 24,3153           13156                           TCF      +3
000800: 24,3154           13156                           TCF      +2
000801: 24,3155           34714                           CAF      ZERO
000802: 24,3156           64712                           AD       ONE
000803: 24,3157           56001                           XCH      L
000804: 24,3160           34714                           CA       ZERO
000805: 24,3161           53430                           DXCH     TGO
000806: 24,3162           31430                           CA       TGO        +1
000807: 24,3163           05140                           TC       WAITLIST
000808: 24,3164  E7,1427                                  EBANK=   TGO
000809: 24,3164           02710 50067                     2CADR    ENGINOFF
000810:
000811: 24,3166           05261                           TC       2PHSCHNG
000812: 24,3167           40153                           OCT      40153                                 #  A, 3.15 = ENGINOFF (TGO+1)....NOTE GROUP
000813: 24,3170           10035                           OCT      10035                                 #  B, 5.3 = REREADAC, AND START BELOW
000814: 24,3171           05447                           TC       DOWNFLAG                              #  CLEAR IMPULSW, ENGINOFF IS NOW SET UP
000815: 24,3172           00044                           ADRES    IMPULSW                               #  RESTARTS OK
000816:                                                                                                  # # Page 655
000817: 24,3173           13131                           TCF      SERVXT
000818:
000819:                                                                                                  # # Page 656
000820:                                                                                                  #  ROUTINE  **CLOKTASK** DESCRIPTION
000821:
000822:
000823: 24,3174  E7,1412                                  EBANK=   TIG
000824: 24,3174           34700        CLOKTASK           CAF      BIT11                                 #  IS TIMRFLAG SET
000825: 24,3175           70103                           MASK     FLAGWRD7
000826: 24,3176           10000                           CCS      A
000827: 24,3177           13203                           TCF      CLOCKON
000828: 24,3200           05301                           TC       PHASCHNG
000829: 24,3201           00006                           OCT      00006                                 #  KILL RESTART
000830: 24,3202           05213                           TC       TASKOVER
000831:
000832: 24,3203           00006        CLOCKON            EXTEND
000833: 24,3204           30025                           DCA      TIME2
000834: 24,3205           53661                           DXCH     TTOGO
000835: 24,3206           00006                           EXTEND
000836: 24,3207           41413                           DCS      TIG
000837: 24,3210           21661                           DAS      TTOGO
000838:
000839: 24,3211           34734        SETCLOCK           CAF      1SEC
000840: 24,3212           05140                           TC       WAITLIST
000841: 24,3213  E7,1412                                  EBANK=   TIG
000842: 24,3213           03174 50067                     2CADR    CLOKTASK
000843:
000844: 24,3215           11145                           CCS      NVWORD1
000845: 24,3216           13221                           TCF      +3
000846: 24,3217           13231                           TCF      SETTB6
000847:
000848: 24,3220           13221                           TCF      +1
000849: 24,3221           42347                           CS       V06N85B                               #  CHECK FOR V06N85B (P41)
000850: 24,3222           61145                           AD       NVWORD1
000851: 24,3223           00006                           EXTEND
000852: 24,3224           13234                           BZF      SETUPDYN                              #  V06N85, SO UPDATE N85 FOR DYNAMIC DISP
000853:
000854: 24,3225           37664                           CAF      PRIO27
000855: 24,3226           05027                           TC       NOVAC
000856: 24,3227  E6,1466                                  EBANK=   DAPDATR1
000857: 24,3227           03246 50066                     2CADR    CLOCKJOB
000858: 24,3231           40025        SETTB6             CS       TIME1                                 #  SET GROUP6 TIMEBASE
000859: 24,3232           55065                           TS       TBASE6
000860: 24,3233           15213                           TCF      TASKOVER
000861:
000862: 24,3234           37664        SETUPDYN           CAF      PRIO27                                #  SET UP A JOB TO UPDATE N85 (FOR P41=V06)
000863: 24,3235           05042                           TC       FINDVAC
000864: 24,3236  E6,1466                                  EBANK=   DAPDATR1
000865: 24,3236           03241 50066                     2CADR    DYNDISP
000866: 24,3240           13231                           TCF      SETTB6                                #  CLOSE OUT CLOCKTASK
000867:                                                                                                  # # Page 657
000868: 24,3241           06006        DYNDISP            TC       INTPRET                               #  UPDATE N85 FOR A DYNAMIC V06N85 IN P41.
000869: 24,3242           77624                           CALL                                           #       PRIOR TO BLANKING AND AVEG (V16N85)
000870: 24,3243           50314                                    P40CNV85
000871: 24,3244           77776                           EXIT
000872: 24,3245           13256                           TCF      CKNVWRD1
000873:
000874:                                                                                                  # # Page 658
000875:                                                                                                  #  ROUTINE  **CLOCKJOB** DESCRIPTION
000876:
000877:
000878: 24,3246  E6,1466                                  EBANK=   DAPDATR1
000879: 24,3246           30032        CLOCKJOB           CA       CDUX
000880: 24,3247           54772                           TS       CDUSPOTX
000881: 24,3250           30033                           CA       CDUY
000882: 24,3251           54766                           TS       CDUSPOTY
000883: 24,3252           30034                           CA       CDUZ
000884: 24,3253           54770                           TS       CDUSPOTZ
000885: 24,3254           04555                           TC       BANKCALL
000886: 24,3255           47510                           CADR     QUICTRIG
000887: 24,3256           00004        CKNVWRD1           INHINT
000888: 24,3257           11145                           CCS      NVWORD1                               #  DETERMINE FUNCTION, INDICATED BY NVWORD1
000889: 24,3260           13303                           TCF      NOFLASH
000890: 24,3261           15112                           TCF      ENDOFJOB
000891: 24,3262           13272                           TCF      ENGREQST                              #  SPS ENGINE-ON-ENABLE V99 FLASH
000892: 24,3263           32351        FAILDSP            CAF      V06N40                                #  SPS ENGINE-FAILED V97 FLASH
000893: 24,3264           04555                           TC       BANKCALL
000894: 24,3265           20763                           CADR     GOFLASHR                              #  LINUS MAKES IT A REDO,  INHINT OK
000895: 24,3266           13352                           TCF      V97T                                  #  TERMINATE
000896: 24,3267           13405                           TCF      V97P                                  #  PROCEED
000897: 24,3270           13434                           TCF      V97E                                  #  ENTER
000898: 24,3271           13300                           TCF      PASTERET
000899:
000900: 24,3272           32351        ENGREQST           CAF      V06N40
000901: 24,3273           04555                           TC       BANKCALL
000902: 24,3274           20763                           CADR     GOFLASHR                              #  LINUS MAKES IT A REDO,  INHINT OK
000903: 24,3275           13322                           TCF      V99T                                  #  TERMINATE
000904: 24,3276           13330                           TCF      V99P                                  #  PROCEED
000905: 24,3277           13314                           TCF      V99E                                  #  ENTER
000906:
000907: 24,3300           32352        PASTERET           CAF      P40OK99                               #  IMMED RETURN - SET UP V99 OR V97
000908: 24,3301           05415                           TCR      LINUS
000909: 24,3302           15112                           TCF      ENDOFJOB
000910:
000911:
000912: 24,3303           31145        NOFLASH            CAE      NVWORD1                               #  DISPLAY NVWORD1 NORMALLY
000913: 24,3304           04555                           TC       BANKCALL
000914: 24,3305           20616                           CADR     REGODSP
000915:
000916:
000917: 24,3306           34753        E7SETTER           CAF      EBANK7
000918: 24,3307           54003                           TS       EBANK
000919: 24,3310  E7,1412                                  EBANK=   TIG
000920: 24,3310           00002                           TC       Q
000921:
000922: 24,3311           34752        E6SETTER           CAF      EBANK6                                #  SET UP EBANK6
000923: 24,3312           54003                           TS       EBANK
000924: 24,3313  E6,1466                                  EBANK=   DAPDATR1
000925:                                                                                                  # # Page 659
000926: 24,3313           00002                           TC       Q
000927:
000928: 24,3314  E6,1466                                  EBANK=   DAPDATR1
000929: 24,3314           05261        V99E               TC       2PHSCHNG
000930: 24,3315           00006                           OCT      00006                                 #  KILL PRE40.6/CLOKTASK PROTECTION
000931: 24,3316           05024                           OCT      05024                                 #  C, PRIORITY NEXT, JOB BELOW
000932: 24,3317           27000                           OCT      27000
000933: 24,3320           03004        V99EJOB            TCR      TVCZAP     -1                         #  WIPE OUT TVC, CLOKTASK
000934: 24,3321           12163                           TCF      P40RCS                                #  V16N85 POST-BURN OPERATIONS
000935:
000936: 24,3322  E6,1466                                  EBANK=   DAPDATR1
000937: 24,3322           05261        V99T               TC       2PHSCHNG                              #  (ENTRY FROM V97T FLOW TOO)
000938: 24,3323           00006                           OCT      00006                                 #  KILL PRE40.6/CLOKTASK PROTECTION
000939: 24,3324           05024                           OCT      05024                                 #  C, PRIORITY NEXT, JOB BELOW
000940: 24,3325           27000                           OCT      27000
000941: 24,3326           03004        V99TJOB            TCR      TVCZAP     -1                         #  WIPE OUT TVC, CLOKTASK
000942: 24,3327           12204                           TCF      POST41                                #  AVEGEXIT, SETMAXDB, GOTOPOOH
000943:
000944:
000945: 24,3330           00004        V99P               INHINT
000946: 24,3331           30103                           CAE      FLAGWRD7                              #  CHECK ASTN FLAG FOR PRIOR V99P
000947: 24,3332           74677                           MASK     BIT12
000948: 24,3333           10000                           CCS      A
000949: 24,3334           13347                           TCF      V99P/TIG                              #  YES, THIS MUST BE A RESTART ENTRY
000950:
000951: 24,3335           34677        ASTNV99P           CAF      BIT12                                 #  SET ASTN FLAG
000952: 24,3336           26103                           ADS      FLAGWRD7
000953: 24,3337           30103                           CAE      FLAGWRD7                              #  CHECK IGN FLAG FOR TIG-0 ARRIVAL
000954: 24,3340           74676                           MASK     BIT13
000955: 24,3341           00006                           EXTEND
000956: 24,3342           13347                           BZF      V99P/TIG                              #  NO, CLEAR THE V99 AND WAIT FOR TIG-0
000957:
000958: 24,3343           34712        ENDV99PI           CAF      BIT1                                  #  TIG-0 HAS COME ALREADY
000959: 24,3344           05140                           TC       WAITLIST                              #  SET UP IGNITION HERE
000960: 24,3345  E6,1466                                  EBANK=   DAPDATR1
000961: 24,3345           02554 50066                     2CADR    IGNITION
000962: 24,3347           32351        V99P/TIG           CAF      V06N40                                #  CLEAR THE V99 FLASH AND WAIT FOR TIG-0
000963: 24,3350           55145                           TS       NVWORD1
000964: 24,3351           15112        ENDV99P            TCF      ENDOFJOB
000965:
000966: 24,3352  E6,1474                                  EBANK=   CSMMASS
000967: 24,3352           05261        V97T               TC       2PHSCHNG
000968: 24,3353           00006                           OCT      00006                                 #  KILL GROUP 6 (CLOKTASK)
000969: 24,3354           40674                           OCT      40674                                 #  A, 4.67 = V97TTASK (-0 CS), TBASE NOW
000970: 24,3355           34712                           CAF      BIT1
000971: 24,3356           05130                           TC       TWIDDLE
000972: 24,3357           03361                           ADRES    V97TTASK                              #  KEEP EBANK6 FOR MASSES, SPSOFF, ETC.
000973: 24,3360           15112                           TCF      ENDOFJOB
000974:                                                                                                  # # Page 660
000975: 24,3361  E6,1474                                  EBANK=   CSMMASS
000976: 24,3361           34714        V97TTASK           CAF      ZERO                                  #  DISABLE CLOCKJOB
000977: 24,3362           55145                           TS       NVWORD1
000978: 24,3363           32363                           CAF      3MDOT                                 #  3 SECONDS OF MDOT (2-4 SEC ENGFAIL
000979: 24,3364           61474                           AD       CSMMASS                               #        DETECTION) NOT LOST BECAUSE THRUST
000980: 24,3365           55662                           TS       MASSTMP                               #        FAILED.  COPYCYCLE FOR MASSBACK
000981: 24,3366           05301                           TC       PHASCHNG
000982: 24,3367           05014                           OCT      05014                                 #  C, DELTAT NEXT, TASK BELOW, IN
000983: 24,3370           77777                           DEC      -0         B-14                       #  -0 CS
000984:
000985: 24,3371           02741                           TCR      SPSOFF                                #  SHUTDOWN SPS ENGINE, MASS UPDATE, ETC.
000986: 24,3372           05301                           TC       PHASCHNG
000987: 24,3373           00714                           OCT      00714                                 #  A, 4.71 = V97TRCS (250 CS), TBASE OLD
000988: 24,3374           05156                           TC       FIXDELAY                              #  DELAY 2.5 SECONDS FOR (POSSIBLE) TAIL-
000989: 24,3375           00372                           DEC      250        B-14                       #       OFF (FALSE THRUST-LOSS)
000990:
000991: 24,3376  E6,1466                                  EBANK=   DAPDATR1
000992: 24,3376           04633        V97TRCS            TC       IBNKCALL                              #  RCS DAP IN 0.6SEC, SETTING T5 BITS TO
000993: 24,3377           42010                           CADR     RCSDAPON                              #       KILL TVCEXEC/TVCROLLDAP STARTS
000994: 24,3400           37664                           CAF      PRIO27                                #  SET UP V99T FOR TVCZAP AND POST41 (SET-
000995: 24,3401           05027                           TC       NOVAC                                 #       MAXDB AND GOTOPOOH)
000996: 24,3402  E6,1466                                  EBANK=   DAPDATR1                              #  EBANK6 FOR SETMAXDB IN POST41
000997: 24,3402           03322 50066                     2CADR    V99T
000998: 24,3404           15213        ENDV97T            TCF      TASKOVER
000999:
001000:
001001: 24,3405  E6,1444                                  EBANK=   V97VCNTR
001002: 24,3405           05301        V97P               TC       PHASCHNG
001003: 24,3406           40734                           OCT      40734                                 #  A, 4.73 = V97PTASK (-0 CS), TBASE NOW
001004: 24,3407           34712                           CAF      BIT1
001005: 24,3410           05130                           TC       TWIDDLE
001006: 24,3411           03413                           ADRES    V97PTASK
001007: 24,3412           15112                           TCF      ENDOFJOB
001008:
001009: 24,3413  E6,1444                                  EBANK=   V97VCNTR
001010: 24,3413           31444        V97PTASK           CAE      V97VCNTR                              #  GET MASS UPDATES (TVCEXEC) GOING AGAIN
001011: 24,3414           55653                           TS       VCNTR                                 #       (ERRORS IF FLASE THRUST-LOSS AND/OR
001012:                                                                                                  #                                                POOR SYNCH OF MANUAL ENGINE-ON AND
001013:                                                                                                  #                                                THE VERB 97 PROCEED)
001014: 24,3415           32351                           CAF      V06N40                                #  REDISPLAY V06N40
001015: 24,3416           55145                           TS       NVWORD1
001016: 24,3417           05435                           TC       UPFLAG                                #  SET IDLEFAIL TO ALLOW R41-BYPASS, IN
001017: 24,3420           00030                           ADRES    IDLEFAIL                              #       CASE OF UNFAVORABLE S40.8 SYNCH
001018: 24,3421           05435                           TC       UPFLAG                                #  SET STEERSW TO RE-ENABLE STEERING
001019: 24,3422           00042                           ADRES    STEERSW
001020: 24,3423           05301                           TC       PHASCHNG
001021: 24,3424           00134                           OCT      00134                                 #  A, 4.13 = R40ENABL (200 CS), TBASE OLD
001022: 24,3425           05156                           TC       FIXDELAY                              #  WAIT 2 SECONDS, THEN
001023: 24,3426           00310                           DEC      200        B-14
001024:                                                                                                  # # Page 661
001025: 24,3427  0003777                                  EBANK=   WHOCARES
001026: 24,3427           05447        R40ENABL           TC       DOWNFLAG                              #  RE-ENABLE R40 BY CLEARING IDLEFAIL
001027: 24,3430           00030                           ADRES    IDLEFAIL
001028: 24,3431           05301                           TC       PHASCHNG
001029: 24,3432           00004                           OCT      00004                                 #  KILL GROUP 4
001030: 24,3433           15213        ENDV97P            TCF      TASKOVER
001031:
001032:
001033: 24,3434  0003777                                  EBANK=   WHOCARES
001034: 24,3434           05301        V97E               TC       PHASCHNG
001035: 24,3435           40534                           OCT      40534                                 #  A, 4.53 = V97ETASK (-0 CS), TBASE NOW
001036: 24,3436           34712                           CAF      BIT1
001037: 24,3437           05140                           TC       WAITLIST
001038: 24,3440  E7,1412                                  EBANK=   TIG
001039: 24,3440           03443 50067                     2CADR    V97ETASK
001040: 24,3442           15112                           TCF      ENDOFJOB
001041:
001042: 24,3443  E7,1412                                  EBANK=   TIG
001043: 24,3443           44112        V97ETASK           CS       OCT24                                 #  FORCE R1 OF V06N40 TO READ  59X59
001044: 24,3444           55412                           TS       TIG
001045: 24,3445           32351                           CAF      V06N40                                #  REDISPLAY V06N40
001046: 24,3446           55145                           TS       NVWORD1
001047: 24,3447           03311                           TCR      E6SETTER                              #  RETURN TO EBANK6 FOR REST OF V97ETASK
001048: 24,3450  E6,1474                                  EBANK=   CSMMASS
001049: 24,3450           32363                           CAF      3MDOT                                 #  3 SECONDS OF MDOT (2-4 SEC ENGFAIL
001050: 24,3451           61474                           AD       CSMMASS                               #       DETECTION) NOT LOST BECAUSE THRUST
001051: 24,3452           55662                           TS       MASSTMP                               #       FAILED....COPYCYCLE FOR MASSBACK
001052: 24,3453           05301                           TC       PHASCHNG
001053: 24,3454           00754                           OCT      00754                                 #  A, 4.75 = SPSOFF97 (-0 CS), TBASE OLD
001054: 24,3455           02741        SPSOFF97           TCR      SPSOFF
001055: 24,3456           05301                           TC       PHASCHNG
001056: 24,3457           00114                           OCT      00114                                 #  A, 4.11 = V97E40.6 (250 CS), TBASE OLD
001057: 24,3460           05156                           TC       FIXDELAY                              #  DELAY 2.5 SECONDS  FOR (POSSIBLE) TAIL-
001058: 24,3461           00372                           DEC      250        B-14                       #       OFF (FALSE THRUST-LOSS)
001059:
001060: 24,3462  E6,1466                                  EBANK=   DAPDATR1
001061: 24,3462           34712        V97E40.6           CAF      BIT1
001062: 24,3463           05140                           TC       WAITLIST
001063: 24,3464  E6,1447                                  EBANK=   CNTR
001064: 24,3464           02040 40066                     2CADR    PRE40.6                               #  USE S40.6 RESTART ENTRY TO TRIM ENGINE
001065: 24,3466           04633                           TC       IBNKCALL                              #  RCS DAP IN 0.6SEC, SETTING T5 BITS TO
001066: 24,3467           42010                           CADR     RCSDAPON                              #       KILL TVCEXEC/TVCROLLDAP STARTS.
001067:                                                                                                  #                                               LEAVE NARROW DEADBAND FOR REIGNITE
001068: 24,3470           05261                           TC       2PHSCHNG
001069: 24,3471           00026                           OCT      00026                                 #  A, 6.2 = PRE40.6 (-0CS), CLOKTASK (1SEC)
001070: 24,3472           05014                           OCT      05014                                 #  C, DELTAT NEXT, TASK BELOW, IN
001071: 24,3473           77777                           DEC      -0         B-14                       #  -0 CS.
001072:                                                                                                  # # Page 662
001073: 24,3474           44761        QUICKIGN           CS       PRIO14                                #  CLEAR ASTNFLAG AND SET IGNFLAG FOR
001074: 24,3475           70103                           MASK     FLAGWRD7                              #       IMMEDIATE V99 RESPONSE
001075: 24,3476           64676                           AD       BIT13
001076: 24,3477           54103                           TS       FLAGWRD7
001077: 24,3500           05156                           TC       FIXDELAY                              #  DELAY TO ALLOW TIME FOR PRE40.6
001078: 24,3501           00036                           DEC      30         B-14
001079:
001080: 24,3502           44702        V99FLASH           CS       BIT9                                  #  CAUSE V99 TO FLASH
001081: 24,3503           55145                           TS       NVWORD1
001082: 24,3504           05261                           TC       2PHSCHNG
001083: 24,3505           40774                           OCT      40774                                 #  A, 4.77 = TIG-0 (-0CS) TBASE FOR PREPTVC
001084: 24,3506           00033                           OCT      00033                                 #  A, 3.3 = S40.13 (PRIO 20)
001085: 24,3507           34675                           CAF      PRIO20                                #  SET UP TIMEBURN
001086: 24,3510           05042                           TC       FINDVAC
001087: 24,3511  E7,1427                                  EBANK=   TGO
001088: 24,3511           02404 34067                     2CADR    S40.13
001089: 24,3513           15213        ENDV97E            TCF      TASKOVER                              #  WAIT FOR CLOCKJOB (IMMEDIATE) REACTION
001090:                                                                                                  #                                               TO FLASHING V99 RESPONSE
001091:
001092:
001093:                                                                                                  #  MOD NO2         LOG SECTION  P40-P47
001094:                                                                                                  #  MOD BY   ZELDIN
001095:                                                                                                  #  FUNCTIONAL DESCRIPTION
001096:                                                                                                  #           COMPUTE INITIAL THRUST DIRECTION(UT) AND INITIAL VALUE OF VG
001097:                                                                                                  #           VECTOR(VGTIG).
001098:                                                                                                  #  CALLING SEQUENCE
001099:                                                                                                  #         L CALL
001100:                                                                                                  #       L+1        S40.1
001101:                                                                                                  #  NORMAL EXIT MODE
001102:                                                                                                  #           AT L+2 OF CALLING SEQUENCE (GOTO L+2)  NORMAL RETURN OR
001103:                                                                                                  #           ERROR RETURN IF NOSOFLAG =1
001104:                                                                                                  #  SUBROUTINES CALLED
001105:                                                                                                  #           CSMPREC
001106:                                                                                                  #           INITVEL
001107:                                                                                                  #           CALCGRAV
001108:                                                                                                  #           MIDGIM
001109:                                                                                                  #  ALARM OR ABORT EXIT MODES
001110:                                                                                                  #       L+2 OF CALLING SEQUENCE,UNSOLVABLE CONIC IF NOSOFLAG=1
001111:                                                                                                  #  ERASABLE INITIALIZATION REQUIRED
001112:                                                                                                  #           WEIGHT/G   ANTICIPATED MAG. OF VEHICLE MASS     SP B16KGM
001113:                                                                                                  #           XDELVFLG       1=DELTA-V MANEUVER,0=AIMPT STEER
001114:                                                                                                  #        IF DELTA-V MANEUVER
001115:                                                                                                  #           DELVSIN   SPECIFIED DELTA-V REQUIRED IN
001116:                                                                                                  #                     INERTIAL COORDS. OF ACTIVE VEHICLE
001117:                                                                                                  #                     AT TIME OF IGNITION                 VECTOR B7M/CS
001118:                                                                                                  #           DELVSAB   MAG. OF DELVSIN                     DP     B7M/CS
001119:                                                                                                  #           RTIG      POSITION AT TIME OF IGNITION       VECTOR B29M
001120:                                                                                                  #           VTIG      VELOCITY AT TIME OF IGNITION       VECTOR B7M/CS.
001121:                                                                                                  #           CSTEER = 0             DP
001122:                                                                                                  # # Page 663
001123:                                                                                                  #        IF AIMPOINT STEERING
001124:                                                                                                  #        IF AIMPT STEER
001125:                                                                                                  #           TIG       TIME OF IGNITION                    DP     B28CS
001126:                                                                                                  #           RTARG     POSITION TARGET TIME               VECTOR B29M
001127:                                                                                                  #           CSTEER = ECSTEER(GR 0) DP B1
001128:                                                                                                  #           TPASS4 - TIME OF ARRIVAL AT AIMPOINT
001129:                                                                                                  #  OUTPUT
001130:                                                                                                  #           UT    1/2 UNIT VECTOR ALIGNED WITH THRUST DIRECTION IN REF COOR
001131:                                                                                                  #        VGTIG        INITIAL VALUE OF VELOCITY
001132:                                                                                                  #                     TO BE GAINED (INERT. COORD.)        VECTOR B7M/CS
001133:                                                                                                  #        DELVLVC      VGTIG IN LOC. VERT. COORDS.                B7M/CS
001134:                                                                                                  #           F         NOMINAL THRUST FOR ENG USED FOR S40.13  DP B7 M-NEWT
001135:                                                                                                  #           BDT   V REQUIRED AT TIG -V REQUIRED AT (TIG-2SEC)
001136:                                                                                                  #           -GDT  FOR S40.13                                   VECT  B7M/CS
001137:                                                                                                  #        RTIG         CALC IN S40.1B(AIMPT) FOR S40.2,3  VECTOR B29M
001138:                                                                                                  #                     POSITION AT TIME OF IGNITION
001139:                                                                                                  #  DEBRIS      QTEMP1
001140:                                                                                                  #        MPAC,QPRET
001141:                                                                                                  #        PUSHLIST
001142:                                                                                                  #           RTX2,RTX1
001143: 14,2002                                           BANK     14
001144: 16,2000                                           SETLOC   P40S1
001145: 16,2000                                           BANK
001146:
001147: 16,2000                                           COUNT    16/S40.1
001148:
001149: 16,2000           77214        S40.1              SET      VLOAD
001150: 16,2001           01070                                    FIRSTFLG
001151: 16,2002           11453                                    LO6ZEROS
001152: 16,2003           03705                           STORE    BDT
001153: 16,2004           43020                           STQ      BOF
001154: 16,2005           03657                                    QTEMP
001155: 16,2006           01347                                    XDELVFLG
001156: 16,2007           34073                                    S40.1B                                #  LAMBERT
001157: 16,2010           77201                           SETPD    VLOAD                                 #  EXTERNAL DELTA V
001158: 16,2011           00001                                    0
001159: 16,2012           03640                                    VTIG
001160: 16,2013           03576                           STORE    VINIT
001161: 16,2014           53435                           VXV      UNIT
001162: 16,2015           03632                                    RTIG
001163: 16,2016           27713                           STOVL    UT                                    #  UP IN UT
001164: 16,2017           03632                                    RTIG
001165: 16,2020           03570                           STORE    RINIT
001166: 16,2021           65236                           VSQ      PDDL
001167: 16,2022           00045                                    36D
001168: 16,2023           56205                           DMP      DDV
001169: 16,2024           34127                                    THETACON
001170: 16,2025           41205                           DMP      DMP
001171: 16,2026           03654                                    DELVSAB
001172: 16,2027           03076                                    WEIGHT/G
001173:                                                                                                  # # Page 664
001174: 16,2030           77671                           DDV
001175: 16,2031           03727                                    F
001176: 16,2032           24017                           STOVL    14D
001177: 16,2033           03646                                    DELVSIN
001178:
001179: 16,2034           74241                           DOT      VXSC
001180: 16,2035           03713                                    UT
001181: 16,2036           03713                                    UT
001182: 16,2037           41552                           VSL2     PUSH                                  #  (DELTAV.UP)UP SCALED AT 2(+7) P.D.L. 0
001183: 16,2040           65245                           BVSU     PDDL                                  #  DELTA VP SCALED AT 2(+7) P.D.L. 6
001184: 16,2041           03646                                    DELVSIN
001185: 16,2042           00017                                    14D
001186: 16,2043           63356                           SIN      PDVL
001187: 16,2044           00007                                    6D
001188: 16,2045           53435                           VXV      UNIT
001189: 16,2046           03713                                    UT
001190: 16,2047           45561                           VXSC     STADR
001191: 16,2050           50056                           STOVL    VGTIG                                 #  UNIT(VPXUP)SIN(THETAT) IN VGTIG
001192: 16,2051           65256                           UNIT     PDDL                                  #  UNIT(DELTA VP) IN P.D.L. 6
001193: 16,2052           00017                                    14D
001194: 16,2053           74346                           COS      VXSC
001195: 16,2054           74255                           VAD      VXSC
001196: 16,2055           03721                                    VGTIG
001197: 16,2056           00045                                    36D
001198: 16,2057           53352                           VSL2     VAD
001199: 16,2060           77626                           STADR
001200: 16,2061           74056                           STORE    VGTIG                                 #  VG IGNITION SCALED AT 2(+7)M/CS
001201:
001202: 16,2062           77656                           UNIT
001203: 16,2063           27713                           STOVL    UT                                    #  THRUST DIRECTION SCALED AT 2(+1)
001204: 16,2064           03721                                    VGTIG
001205: 16,2065           43006                           PUSH     SET
001206: 16,2066           01072                                    AVFLAG
001207: 16,2067           77624                           CALL
001208: 16,2070           10653                                    MIDGIM                                #  VGTIG IN LV COOR AT 2(+7)M/CS IN DELVLVC
001209: 16,2071           77650                           GOTO
001210: 16,2072           03657                                    QTEMP
001211: 16,2073           45345        S40.1B             DLOAD    DSU                                   #  LAMBERT
001212: 16,2074           03413                                    TIG
001213: 16,2075           36001                                    TWODT
001214: 16,2076           14041                           STODL    TDEC1
001215: 16,2077           03656                                    TPASS4
001216: 16,2100           77625                           DSU
001217: 16,2101           00041                                    TDEC1
001218: 16,2102           37423                           STCALL   DELLT4
001219: 16,2103           61663                                    AGAIN
001220: 16,2104           77775                           VLOAD
001221: 16,2105           03612                                    VIPRIME
001222: 16,2106           17713                           STODL    UT
001223: 16,2107           03413                                    TIG
001224:                                                                                                  # # Page 665
001225: 16,2110           00041                           STORE    TDEC1
001226: 16,2111           77621                           BDSU
001227: 16,2112           03656                                    TPASS4
001228: 16,2113           37423                           STCALL   DELLT4
001229: 16,2114           61663                                    AGAIN
001230: 16,2115           41575                           VLOAD    PUSH
001231: 16,2116           03646                                    DELVEET3
001232: 16,2117           03721                           STORE    VGTIG
001233: 16,2120           45014                           SET      CALL
001234: 16,2121           01072                                    AVFLAG
001235: 16,2122           10653                                    MIDGIM
001236: 16,2123           52001                           SETPD    GOTO
001237: 16,2124           00001                                    0
001238: 16,2125           61716                                    CALCUT
001239:
001240: 16,2126           00024 13714  THETACON           2DEC     .31830989  B-8
001241: 30,2000                                           SETLOC   P40S3
001242: 30,2000                                           BANK
001243:
001244: 30,3657                                           COUNT    24/S40.1
001245:
001246: 30,3657           04000 00000  EP4(45)H           2DEC     .125
001247: 30,3661           00707 03434  EP4(10)H           2DEC     .027777777
001248:
001249: 30,3663           45020        AGAIN              STQ      CALL
001250: 30,3664           03730                                    QTEMP1
001251: 30,3665           27022                                    THISPREC
001252: 30,3666           66134                           SXA,2    SXA,1
001253: 30,3667           03746                                    RTX2
001254: 30,3670           03745                                    RTX1
001255: 30,3671           77775                           VLOAD
001256: 30,3672           00001                                    RATT
001257: 30,3673           03632                           STORE    RTIG
001258: 30,3674           27570                           STOVL    RINIT
001259: 30,3675           00007                                    VATT
001260: 30,3676           03640                           STORE    VTIG
001261: 30,3677           03576                           STORE    VINIT
001262: 30,3700           67201                           SETPD    SLOAD
001263: 30,3701           00001                                    0
001264: 30,3702           15332                                    HI6ZEROS
001265: 30,3703           43125                           PDDL     BON
001266: 30,3704           21660                                    EP4(45)H
001267: 30,3705           03705                                    NORMSW
001268: 30,3706           61711                                    +3
001269: 30,3707           77745                           DLOAD
001270: 30,3710           21662                                    EP4(10)H
001271: 30,3711           45006                           PUSH     CALL
001272: 30,3712           22000                                    INITVEL
001273:                                                                                                  # # Page 666
001274: 30,3713           52001                           SETPD    GOTO
001275: 30,3714           00001                                    0
001276: 30,3715           03730                                    QTEMP1
001277: 30,3716           45175        CALCUT             VLOAD    CALL
001278: 30,3717           03632                                    RTIG
001279: 30,3720           77260                                    CALCGRAV                              #  GDELTAT IN MPAC AT 2(+7)M/CS
001280: 30,3721           70372                           VSL1     V/SC
001281: 30,3722           21761                                    200CS                                 #  G AT 2(-5) M/CS.CS
001282: 30,3723           52315                           PDVL     VSU
001283: 30,3724           03612                                    VIPRIME
001284: 30,3725           03713                                    UT
001285: 30,3726           52341                           V/SC     VSU
001286: 30,3727           21761                                    200CS
001287: 30,3730           72561                           VXSC     VSL2
001288: 30,3731           03703                                    CSTEER
001289: 30,3732           24015                           STOVL    12D                                   #  B.C SCALED AT 2(-15) PDL 12D
001290: 30,3733           03721                                    VGTIG
001291: 30,3734           41456                           UNIT     PUSH                                  #  UG PDL 0 SCALED AT 2(+1)
001292:
001293: 30,3735           74241                           DOT      VXSC
001294: 30,3736           00015                                    12D
001295: 30,3737           00001                                    0
001296: 30,3740           51352                           VSL2     BVSU
001297: 30,3741           00015                                    12D
001298: 30,3742           14015                           STODL    12D                                   #  Q PDL 12D SCALED AT 2(-5)
001299: 30,3743           03727                                    F
001300: 30,3744           56261                           SRR      DDV
001301: 30,3745           21605                                    4
001302: 30,3746           03076                                    WEIGHT/G
001303: 30,3747           63316                           DSQ      PDVL                                  #  F/MASS SQUARED PDL 6 AT 2(-10)M/(CS.CS)
001304: 30,3750           00015                                    12D
001305: 30,3751           77636                           VSQ
001306: 30,3752           75421                           BDSU     SQRT
001307: 30,3753           76561                           VXSC     VSL1
001308: 30,3754           53455                           VAD      UNIT
001309: 30,3755           00015                                    12D
001310: 30,3756           37713                           STCALL   UT
001311: 30,3757           03657                                    QTEMP
001312: 30,3760           01440 00000  200CS              2DEC     200        B-12
001313:
001314:                                                                                                  # # Page 667
001315:                                                                                                  #  PROGRAM DESCRIPTION S40.2,3  DATE 15,NOV,66
001316:                                                                                                  #  MOD NO 2        LOG SECTION P40-P47
001317:                                                                                                  #  MOD BY ZELDIN
001318:                                                                                                  #  FUNCTIONAL DESCRIPTION
001319:                                                                                                  #           COMPUTE GIMBAL ANGLES IF THRUSTING OCCURRED WITH PRESENT IMU
001320:                                                                                                  #           ORIENTATION, WINGS LEVEL SPACECRAFT,HEADS UP
001321:                                                                                                  #           COMPUTE X AXIS OF ENGINE BELL
001322:                                                                                                  #           COMPUTE PREFERRED IMU ORIENTATION(XSCREF)
001323:                                                                                                  #           FOR THIS CALCULATION,ASSUME X AXIS OF SC ALONG UT INITIALLY,
001324:                                                                                                  #           YSC=UNIT(XXR),ZSC=UNIT(XX(XXR)) AND ROTATE ENGINE BELL ALONG UT
001325:                                                                                                  #           NEW SC AXES WILL BE APPROX. WINGS LEVEL AND NEW SC AXES IN REF.
001326:                                                                                                  #           COORDS. WILL BE PREFERRED IMU ORIENTATION.
001327:                                                                                                  #           COMPUTE DESIRED THRUST DIRECTION IN SM COORDS.
001328:                                                                                                  #  CALLING SEQUENCE
001329:                                                                                                  #         L CALL
001330:                                                                                                  #        L+1 S40.2,3
001331:                                                                                                  #  NORMAL EXIT MODE
001332:                                                                                                  #        AT L+2 OF CALLING SEQUENCE (GOTO L+2)
001333:                                                                                                  #  SUBROUTINES CALLED
001334:                                                                                                  #           CALCGA
001335:                                                                                                  #  ALARM OR ABORT MODES
001336:                                                                                                  #           NONE
001337:                                                                                                  #  ERASABLE INITIALIZATION REQUIRED
001338:                                                                                                  #           PACTOFF      TOTAL PITCH TRIM ANGLE     SP  AT 1.0795111 REV.
001339:                                                                                                  #           YACTOFF      TOTAL YAW   TRIM ANGLE     SP  AT 1.0795111 REV.
001340:                                                                                                  #           UT           DESIRED THRUST DIRECTION          VECT.B2M/(CS.CS)
001341:                                                                                                  #           RTIG         POSITION AT TIME OF IGNITION      VECT.    B29M
001342:                                                                                                  #           ENG2FLAG     ON=RCS  OFF=SPS
001343:                                                                                                  #  OUTPUT
001344:                                                                                                  #           SCAXIS       UNIT VECT. ALIGNED WITH ENG BELL IN SC COOR B1
001345:                                                                                                  #           XSCREF       UNIT VECTORS ALIGNED WITH PREFERRED IMU     B1
001346:                                                                                                  #           YSCREF
001347:                                                                                                  #           ZSCREF
001348:                                                                                                  #           GIMBAL ANGLES IN THETAD
001349:                                                                                                  #           POINTVSM     UNIT VECT ALONG DESIRED THRUST DIRECTION IN SM B1
001350:                                                                                                  #  DEBRIS
001351:                                                                                                  #           PUSHLIST,QPRET,MPAC
001352:                                                                                                  #           QTEMP  TEMP. ERASABLE
001353: 24,3514                                           BANK     24
001354: 24,2000                                           SETLOC   P40S
001355: 24,2000                                           BANK
001356: 24,3514                                           COUNT*   $$/S40.2
001357: 24,3514           64375        S40.2,3            VLOAD    MXV
001358: 24,3515           03713                                    UT
001359: 24,3516           01736                                    REFSMMAT
001360: 24,3517           44172                           VSL1     STQ
001361: 24,3520           03657                                    QTEMP
001362: 24,3521           03357                           STORE    POINTVSM                              #  THRUST IN SM AT 2
001363: 24,3522           43001                           SETPD    BON
001364: 24,3523           00001                                    0
001365:                                                                                                  # # Page 668
001366: 24,3524           00704                                    ENG2FLAG
001367: 24,3525           51635                                    S40.2,3B
001368: 24,3526           77745                           DLOAD
001369: 24,3527           15332                                    HI6ZEROS
001370: 24,3530           67206                           PUSH     SLOAD                                 #  ZERO PDL 0
001371: 24,3531           03027                                    YACTOFF
001372: 24,3532           72405                           DMP      SL1
001373: 24,3533           11674                                    TRIMSCAL
001374: 24,3534           41415                           DAD      PUSH
001375: 24,3535           11676                                    YBIAS
001376: 24,3536           65346                           COS      PDDL                                  #  COS(Y +Y0) PDL 2
001377: 24,3537           41556                           SIN      PUSH                                  #  CIN(Y +Y0) PDL 4
001378: 24,3540           77735                           SLOAD
001379: 24,3541           03026                                    PACTOFF
001380: 24,3542           72405                           DMP      SL1
001381: 24,3543           11674                                    TRIMSCAL
001382: 24,3544           41415                           DAD      PUSH
001383: 24,3545           11700                                    PBIAS
001384: 24,3546           65346                           COS      PDDL                                  #  COS(P +P0) PDL 6
001385: 24,3547           41556                           SIN      PUSH                                  #  SIN(P +P0) PDL 8D
001386: 24,3550           14323                           STODL    ZSCREF                                #  SIN(P +P0)
001387: 24,3551           00007                                    6
001388: 24,3552           72405                           DMP      SL1
001389: 24,3553           00005                                    4
001390: 24,3554           65276                           DCOMP    PDDL                                  #  -SIN(Y+Y0)COS(P+P0) PDL 10
001391: 24,3555           00007                                    6
001392: 24,3556           72405                           DMP      SL1
001393: 24,3557           00003                                    2
001394: 24,3560           77666                           VDEF
001395:
001396: 24,3561           14307                           STODL    XSCREF                                #   PD POINTER AT 6 NEW SC X AXIS SCALED AT
001397: 24,3562           00323                                    ZSCREF
001398: 24,3563           72405                           DMP      SL1
001399: 24,3564           00005                                    4
001400: 24,3565           41325                           PDDL     DMP
001401: 24,3566           00323                                    ZSCREF
001402: 24,3567           00003                                    2
001403: 24,3570           57552                           SL1      DCOMP
001404: 24,3571           77666                           VDEF
001405:
001406: 24,3572           14323                           STODL    ZSCREF                                #  PD POINTER AT 4 NEW SCZ AXIS SCALED AT 2
001407: 24,3573           77666                           VDEF
001408:
001409: 24,3574           14315                           STODL    YSCREF                                #  PD POINTER AT0 NEW SC Y AXIS SCALED AT 2
001410: 24,3575           00323                                    ZSCREF
001411: 24,3576           65325                           PDDL     PDDL
001412: 24,3577           00315                                    YSCREF
001413: 24,3600           00307                                    XSCREF
001414: 24,3601           77666                           VDEF
001415:                                                                                                  # # Page 669
001416: 24,3602           27351                           STOVL    SCAXIS                                #  ENGINE BELL SCALED AT 2
001417: 24,3603           03713                                    UT
001418: 24,3604           53515                           PDVL     UNIT
001419: 24,3605           03632                                    RTIG
001420: 24,3606           57435                           VXV      VCOMP
001421: 24,3607           00001                                    0
001422: 24,3610           41456                           UNIT     PUSH
001423: 24,3611           77624                           CALL
001424: 24,3612           51654                                    TSTRXUT
001425: 24,3613           57435                           VXV      VCOMP
001426: 24,3614           00001                                    0
001427: 24,3615           63372                           VSL1     PDVL                                  #  2 RF/SC  IN PDL  12D
001428: 24,3616           00307                                    XSCREF
001429: 24,3617           76505                           VXM      VSL1
001430: 24,3620           00001                                    0
001431: 24,3621           24307                           STOVL    XSCREF                                #  X OF PREF IMU,X OF SC IN REF COOR. AT 2
001432: 24,3622           00315                                    YSCREF
001433: 24,3623           76505                           VXM      VSL1
001434: 24,3624           00001                                    0
001435: 24,3625           24315                           STOVL    YSCREF                                #  Y OF PREF.IMU,Y OF SC IN REF COOR. AT 2
001436: 24,3626           00323                                    ZSCREF
001437: 24,3627           76505                           VXM      VSL1
001438: 24,3630           00001                                    0
001439: 24,3631           00323                           STORE    ZSCREF                                #  Z OF PREF. IMU,Z OF SC IN REF COOR. AT 2
001440: 24,3632           52001                           SETPD    GOTO
001441: 24,3633           00001                                    0
001442: 24,3634           03657                                    QTEMP
001443: 24,3635           77775        S40.2,3B           VLOAD
001444: 24,3636           15330                                    UNITX
001445: 24,3637           27351                           STOVL    SCAXIS
001446: 24,3640           03713                                    UT
001447: 24,3641           00307                           STORE    XSCREF
001448: 24,3642           53435                           VXV      UNIT
001449: 24,3643           03632                                    RTIG
001450: 24,3644           34007                           STCALL   6D
001451: 24,3645           51654                                    TSTRXUT
001452: 24,3646           00315                           STORE    YSCREF
001453: 24,3647           57435                           VXV      VCOMP
001454: 24,3650           00307                                    XSCREF
001455: 24,3651           77772                           VSL1
001456: 24,3652           34323                           STCALL   ZSCREF                                #  ZNB AXIS IN REF COOR
001457: 24,3653           03657                                    QTEMP
001458: 24,3654           46145        TSTRXUT            DLOAD    BHIZ
001459: 24,3655           00045                                    36D
001460: 24,3656           51661                                    BADVCTOR
001461: 24,3657           43575                           VLOAD    RVQ
001462: 24,3660           00007                                    6D
001463: 24,3661           53575        BADVCTOR           VLOAD    UNIT
001464: 24,3662           03632                                    RTIG
001465: 24,3663           53515                           PDVL     UNIT
001466:                                                                                                  # # Page 670
001467: 24,3664           03640                                    VTIG
001468: 24,3665           53322                           VSR3     VAD
001469: 24,3666           53435                           VXV      UNIT
001470: 24,3667           03713                                    UT
001471: 24,3670           77676                           VCOMP
001472: 24,3671           00007                           STORE    6D
001473: 24,3672           77616                           RVQ
001474: 24,3673           21215 12215  TRIMSCAL           2DEC     1.07975111 B-1
001475: 24,3675           00053 07423  YBIAS              2DEC     +.00263888889                            #  YAW   MECH BIAS (+0.95 DEG, THRUST ON)
001476: 24,3677           77636 44653  PBIAS              2DEC     -.00597222222                            #  PITCH MECH BIAS (-2.15 DEG, THRUST ON)
001477:                                                                                                  #                                          REFERENCE, TRW 68.6520.3.3-40 27FEB,1968
001478:                                                                                                  #  PROGRAM DESCRIPTION S41.1  DATE 8DEC66
001479:                                                                                                  #  MOD NO1   LOG SECTION P40-P47
001480:                                                                                                  #  MOD BY ZELDIN
001481:                                                                                                  #  FUNCTIONAL DESCRIPTION
001482:                                                                                                  #           COMPUTE VELOCITY TO BE GAINED INITIALLY IN REF COORDS.
001483:                                                                                                  #           TO CONTROL COORDS.
001484:                                                                                                  #  CALLING SEQUENCE
001485:                                                                                                  #       L   CALL
001486:                                                                                                  #       L+1        S41.1
001487:                                                                                                  #  NORMAL EXIT MODE
001488:                                                                                                  #           AT L +2 OF CALLING SEQUENCE
001489:                                                                                                  #  SUBROUTINES CALLED:
001490:                                                                                                  #           CALCSMSC
001491:                                                                                                  #           CDUTRIG
001492:                                                                                                  #  ALARM OR ABORT MODES
001493:                                                                                                  #           NONE
001494:                                                                                                  #  ERASABLE INITIALIZATION REQUIRED
001495:                                                                                                  #           VG IN REF. COORD. PDL L POINTER AT L+5 .S41.1 WILL RETURN WITH
001496:                                                                                                  #           POINTER AT L (L MUST BE LESS THAN OR = TO 14D)
001497:                                                                                                  #  OUTPUT
001498:                                                                                                  #           MPAC CONTAINS VG IN CONTROL COORDS           VECT. B7M/CS
001499:                                                                                                  #  DEBRIS:
001500:                                                                                                  #         QTEMP    TEMP ERASABLE
001501:                                                                                                  #         QPRET
001502: 24,3701                                           COUNT    22/S41.1
001503:
001504: 22,2000                                           SETLOC   P40S5
001505: 22,2000                                           BANK
001506:
001507: 22,3426           45020        S41.1              STQ      CALL
001508: 22,3427           03657                                    QTEMP
001509: 22,3430           47432                                    CDUTRIG
001510: 22,3431           77775                           VLOAD
001511: 22,3432           45121                           MXV      CALL
001512: 22,3433           01736                                    REFSMMAT
001513: 22,3434           47577                                    *SMNB*
001514:                                                                                                  # # Page 671
001515: 22,3435           74321                           MXV      VXSC
001516: 22,3436           05004                                    QUADROT
001517: 22,3437           05443                                    TENBNK14                              #  VG IN CONTROL COORD IN MPAC SCALED AT
001518: 22,3440           52072                           VSL5     GOTO                                  #  VG IN CONTROL COORDS. IN MPAC AT 2(+7)
001519: 22,3441           03657                                    QTEMP
001520: 22,3442           24000 00000  TENBNK14           2DEC     10.        B-4
001521:
001522:                                                                                                  # # Page 672
001523:                                                                                                  #  NAME        S40.8 - CROSS PRODUCT STEERING
001524:                                                                                                  #  FUNCTION    (1) UPDATES TEH VELOCITY-TO-BE-GAINED VECTOR.
001525:                                                                                                  #              (2) GENERATES ANGULAR RATE STEERING COMMANDS FOR AUTOPILOT.
001526:                                                                                                  #              (3) ESTABLISHES ENGINE CUT-OFF SIGNALS AT APPROPRIATE TIMES.
001527:                                                                                                  #              (4) INITIATES THRUST-FAIL ROUTINE, R40
001528:                                                                                                  #  CALLING SEQ CALL S40.6
001529:                                                                                                  #  INPUT       VGPREV  - LAST VALUE OF THE VELOCITY-TO-BE-GAINED VECTOR
001530:                                                                                                  #                        PRIOR TO UPDATING IN METERS/CS AT +7.
001531:                                                                                                  #              DELVREF - CHANGE IN VEHICLE VELOCITY SINCE LAST MEASUREMENT
001532:                                                                                                  #                        IN METERS/CS AT +7.
001533:                                                                                                  #              BDT     - EFFECT OF RATE OF CHANGE OF REQUIRED VELOCITY AND
001534:                                                                                                  #                        GRAVITY DURING DT UPON VELOCITY-TO-BE-GAINED IN
001535:                                                                                                  #                        METERS/CS AT +7.
001536:                                                                                                  #              CSTEER  - A SCALAR OF THE STEERING LAW, SC.AT B+1, USED FOR
001537:                                                                                                  #                        SPS AIMPOINT STEERING MANEUVERS
001538:                                                                                                  #              IDLEFAIL- A FLAG TO INHIBIT (IDLE) THE THRUST-FAIL ROUTINE
001539:                                                                                                  #              STEERSW - A SWITCH TO PRECLUDE NEEDLESS CONDUCT OF STEERING
001540:                                                                                                  #              REFSMMAT, DAPDATR1, PIPTIME
001541:                                                                                                  #              EREPFRAC, ETDECAY, KPRIMEDT FOR TVC
001542:                                                                                                  #  OUTPUT      TTOGO   - TIME REMAINING FOR ENGINE BURN IN CS AT +28
001543:                                                                                                  #              OMEGAC  - DP VECTOR RATE COMMAND, SC.AT  1/(2TVCDT) REVS/SEC
001544:                                                                                                  #              VG, VGPREV, VGDISP, TGO, TIG, SCALED AS NOTED IN CODING
001545:                                                                                                  #              STEERSW, IMPULSW, NVWORD1
001546:                                                                                                  #              REPFRAC, CNTR, VCNTR, VCNTRTMP FOR TVC (R40 INTERFACING)
001547:                                                                                                  #  DEBRIS      OMEGAXC,+1
001548:                                                                                                  #  SUBROUTINES USED    - *SMNB* , ALARM
001549:
001550: 16,2000                                           SETLOC   P40S1
001551: 16,2000                                           BANK
001552: 16,2130  E6,1466                                  EBANK=   DAPDATR1
001553: 16,2130                                           COUNT    16/S40.8
001554:
001555: 16,2130           44001        S40.8              SETPD    STQ
001556: 16,2131           00001        SPBIT1                      00D
001557: 16,2132           03657                                    QTEMP
001558: 16,2133           51375                           VLOAD    BVSU                                  #       CONSTRUCT DELVG, SC.AT B+7  M/CS
001559: 16,2134           03433                                    DELVREF
001560: 16,2135           03705                                    BDT
001561: 16,2136           77655                           VAD
001562: 16,2137           03721                                    VGPREV
001563: 16,2140           03460                           STORE    VG                                    #  VELOCITY-TO-BE-GAINED, SC.AT B+7  M/CS
001564:
001565: 16,2141           77646                           ABVAL
001566: 16,2142           03654                           STORE    VGDISP                                #  FOR DISPLAY PURPOSES
001567: 16,2143           77776                           EXIT
001568: 16,2144           05301                           TC       PHASCHNG
001569: 16,2145           10035                           OCT      10035                                 #  TYPE B  RESTART BELOW AND 5.3 REREADAC
001570:
001571: 16,2146           06006                           TC       INTPRET
001572: 16,2147           77775                           VLOAD
001573:                                                                                                  # # Page 673
001574: 16,2150           03460                                    VG
001575: 16,2151           03721                           STORE    VGPREV
001576: 16,2152           77214                           BOFF     VLOAD
001577: 16,2153           01344                                    STEERSW                               #  SKIP TGO AND CROSS-PRODUCT
001578: 16,2154           03657                                    QTEMP
001579: 16,2155           03433                                    DELVREF
001580: 16,2156           41446                           ABVAL    PUSH                                  #  CHECK FOR LOTHRUST
001581: 16,2157           41335                           SLOAD    DMP
001582: 16,2160           01354                                    DVTHRESH                              #  SC.AT B-2 M/CS
001583: 16,2161           36011                                    DPB-9
001584: 16,2162           77621                           BDSU
001585: 16,2163           77440                           BMN      EXIT
001586: 16,2164           40021                                    LOTHRUST
001587: 16,2165           31466                           CAE      DAPDATR1                              #  ENABLE TVCDAP CG TRACKING
001588: 16,2166           74675                           MASK     BIT14
001589: 16,2167           10000                           CCS      A
001590: 16,2170           34712                           CAF      BIT1
001591: 16,2171           50000                           INDEX    A                                     #  LM-OFF, LM-ON VALUE
001592: 16,2172           31423                           CAE      EREPFRAC
001593: 16,2173           55652                           TS       REPFRAC
001594:
001595: 16,2174           06006                           TC       INTPRET
001596: 16,2175           51375        TGOCALC            VLOAD    BVSU                                  #  GET DELVG
001597: 16,2176           03433                                    DELVREF
001598: 16,2177           03705                                    BDT
001599: 16,2200           77656                           UNIT
001600: 16,2201           41441                           DOT      PUSH                                  #  (00D)
001601: 16,2202           03460                                    VG
001602: 16,2203           56244                           BPL      DDV                                   #  ANGLE SHOULD BE GREATER THAN PI/2
001603: 16,2204           40013                                    INCRSVG                               #       DISPLAY ALARM IF NOT
001604: 16,2205           36005                                    2VEXHUST
001605: 16,2206           41215                           DAD      DMP                                   #  (DOT PRODUCT UP FROM 00D)
001606: 16,2207           11451                                    LODPHALF
001607: 16,2210           70501                           NORM     SR1
001608: 16,2211           00047                                    X1
001609: 16,2212           60325                           PDDL     NORM
001610: 16,2213           00045                                    36D                                   #  (MAG DELVG)
001611: 16,2214           00050                                    X2
001612: 16,2215           77665                           BDDV
001613: 16,2216           53664                           XSU,2    SL*
001614: 16,2217           00046                                    X1
001615: 16,2220           57607                                    0          -9D,2
001616: 16,2221           41405                           DMP      PUSH                                  #  (00D)
001617: 16,2222           36003                                    -FOURDT
001618: 16,2223           54335                           SLOAD    SR
001619: 16,2224           03016                                    ETDECAY                               #  ETDECAY SC.AT B+14 CS
001620: 16,2225           20617                                    14D
001621: 16,2226           45421                           BDSU     STADR
001622: 16,2227           74347                           STORE    TGO                                   #  TIME TO GO IN CS. AT +28
001623: 16,2230           77615                           DAD
001624:                                                                                                  # # Page 674
001625: 16,2231           01205                                    PIPTIME
001626: 16,2232           17413                           STODL    TIG
001627: 16,2233           03430                                    TGO
001628: 16,2234           50025                           DSU      BMN
001629: 16,2235           36007                                    FOURSEC
001630: 16,2236           40000                                    S40.81
001631:
001632: 16,2237           74375        XPRODUCT           VLOAD    VXSC
001633: 16,2240           03705                                    BDT
001634: 16,2241           03703                                    CSTEER
001635: 16,2242           52352                           VSL2     VSU
001636: 16,2243           03433                                    DELVREF
001637: 16,2244           63256                           UNIT     PDVL
001638: 16,2245           03460                                    VG
001639: 16,2246           47256                           UNIT     VXV
001640: 16,2247           45121                           MXV      CALL
001641: 16,2250           01736                                    REFSMMAT                              #  (REFSMMAT/2)
001642: 16,2251           47577                                    *SMNB*
001643: 16,2252           77761                           VXSC
001644: 16,2253           03245                                    KPRIMEDT                              #  (KPRIMEDT SCIAT PI/8 RAD)
001645: 16,2254           03126        OMEGACLC           STORE    OMEGAC
001646: 16,2255           77650                           GOTO
001647: 16,2256           03657                                    QTEMP
001648:
001649: 17,2000                                           SETLOC   DAPS7
001650: 17,2000                                           BANK
001651: 17,2000                                           COUNT    17/S40.8
001652:
001653: 17,2000           00000 00310  TWODT              2DEC     200.0      B-28                       #  2 SEC
001654: 17,2002           77715 77777  -FOURDT            2DEC     -800       B-18                       #  -4(200CS), SC.AT B+18CS (-4 FOR SCALING)
001655: 17,2004           17602 25124  2VEXHUST           2DEC     63.020792  B-7                        #  2(10338.0564 FPS), SC.AT B+7 M/CS
001656: 17,2006           00000 00620  FOURSEC            2DEC     400.0      B-28                       #  4 SEC
001657: 17,2010           00040 00000  DPB-9              2DEC     1          B-9
001658: 20,2000                                           SETLOC   DAPS6
001659: 20,2000                                           BANK
001660:
001661: 20,2000                                           COUNT    20/S40.8
001662:
001663: 20,2000           77214        S40.81             SET      VLOAD                                 #  TGO LESS THAN 4 SECONDS
001664: 20,2001           01066                                    IMPULSW                               #  FOR ENGINE-OFF CALL
001665: 20,2002           15332                                    HI6ZEROS
001666: 20,2003           03126        RATEZRO            STORE    OMEGAC                                #  TVC TO ATTITUDE HOLD
001667: 20,2004           77776                           EXIT
001668: 20,2005           34672                           CAF      POSMAX                                #  INHIBIT SWITCHOVER/TVC EG TRACKING
001669: 20,2006           55447                           TS       CNTR
001670:                                                                                                  # # Page 675
001671: 20,2007           06006                           TC       INTPRET
001672: 20,2010           52014                           CLEAR    GOTO
001673: 20,2011           01264                                    STEERSW                               #  RESTARTS OK
001674: 20,2012           03657                                    QTEMP
001675: 20,2013           77776        INCRSVG            EXIT                                           #  ALARM INDICATING THAT THRUST IS POINTING
001676: 20,2014           05537                           TC       ALARM                                 #  IN WRONG DIRECTION.
001677: 20,2015           01407                           OCT      01407
001678: 20,2016           06006                           TC       INTPRET
001679: 20,2017           77650                           GOTO
001680: 20,2020           03657                                    QTEMP
001681:
001682: 20,2021           77214        LOTHRUST           BON      VLOAD                                 #  THRUST FAILURE (LO-OR-NO) INDICATED
001683: 20,2022           00711                                    IDLEFAIL                              #  SET BY V97P. ALLOWS 1 BYPASS IN CASE OF
001684: 20,2023           03657                                    QTEMP                                 #       UNFAVORABLE S40.8 SYNCH
001685: 20,2024           15332                                    HI6ZEROS                              #  START OF ENGINE-FAIL (R40) OPERATIONS
001686: 20,2025           03126                           STORE    OMEGAC                                #  PUT TVC IN ATTITUDE HOLD
001687: 20,2026           77776                           EXIT
001688:
001689: 20,2027           44714                           CS       ZERO
001690: 20,2030           55653                           TS       VCNTR                                 #  KILL CSMMASS UPDATING
001691: 20,2031           55663                           TS       VCNTRTMP                              #  (TVCEXEC LOGIC REQUIRES THIS TOO)
001692: 20,2032           55652                           TS       REPFRAC                               #  KILL TVCDAP CG TRIM TRACKING
001693: 20,2033           55145                           TS       NVWORD1                               #  SET UP ENGINE-FAIL V97FLASH (CLOCKJOB)
001694:
001695: 20,2034           06006                           TC       INTPRET
001696: 20,2035           52014                           CLEAR    GOTO                                  #  INHIBIT STEERING AND TGO CALC (MANUAL
001697: 20,2036           01264                                    STEERSW                               #       SHUTDOWN IF NOT SET UP AGAIN)
001698: 20,2037           03657                                    QTEMP                                 #  RESTARTS OK
001699:
001700:                                                                                                  # # Page 676
001701:                                                                                                  #  NAME        S40.9 - VTOGAIN (AIMPOINT MANEUVERS ONLY)
001702:                                                                                                  #  FUNCTION    (1) GENERATES REQUIRED VELOCITY AND VELOCITY-TO-BE-GAINED
001703:                                                                                                  #              VECTORS FOR USE DURING AIMPOINT MANEUVERS
001704:                                                                                                  #              (2) UPDATES THE B VECTOR WHICH IS USED IN THE FINAL
001705:                                                                                                  #              CALCULATION OF EXTRAPOLATING THE VELOCITY-TO-BE-GAINED
001706:                                                                                                  #  CALLING SEQ VIA FINDVAC AS NEW JOB.
001707:                                                                                                  #  INPUT       RNIT     - ACTIVE VEHICLE RADIUS VECTOR IN METERS AT +29.
001708:                                                                                                  #              VNIT     - ACTIVE VEHICLE VELOCITY VECTOR IN METERS/CS AT +7
001709:                                                                                                  #              VRPREV   - LAST COMPUTED VELOCITY REQUIRED VECTOR IN
001710:                                                                                                  #                         METERS/CS AT +7.
001711:                                                                                                  #              NOMTIG     - TIME OF IGN. USED IN TARGETTING ROUTINES%+28"
001712:                                                                                                  #              DELLT4     - TRANSFER TIME FROM PIPTIME TO TARGET%+28"
001713:                                                                                                  #              TNIT       - TIME OF RNIT AND VNIT IN CS AT +28
001714:                                                                                                  #              GDT/2    - HALF OF VELOCITY GAINED IN DELTA T TIME DUE TO
001715:                                                                                                  #                         ACCERERATION OF GRAVITY IN METERS/CS AT +7.
001716:                                                                                                  #              DELVREF  - CHANGE IN VELOCITY DURING LAST 2 SEC IN
001717:                                                                                                  #                         METERS/CS AT +7.
001718:                                                                                                  #           NORMSW   SET=CENTRAL ANGLE BETWEEN RTARG AND RTIG IS BETWEEN
001719:                                                                                                  #                    165 TO 195 DEGREES
001720:                                                                                                  #                    RESET=CENTRAL ANGLE OUTSIDE CONE DESCRIBED ABOVE
001721:                                                                                                  #  OUTPUT      VGTEMP   - VELOCITY TO BE GAINED VECTOR IN METERS/CS AT +7.
001722:                                                                                                  #              COGA       - INPUT OF INITIAL GUESS FOR LAMBERT FROM S40.1 O
001723:                                                                                                  #                         OR PREVIOUS PASS THRU S40.9
001724:                                                                                                  #              GOBL/2     -OBLATENESS TERM IN AVG GRAV CALC-GOBL*RSQ/MU
001725:                                                                                                  #              VRPREV   - VELOCITY REQUIRED VECTOR IN METERS/CS AT +7.
001726:                                                                                                  #              BDT      - B VECTOR IN METERS/CS AT +7.
001727:                                                                                                  #  SUBROUTINES USED  -  INITVEL
001728: 16,2000                                           SETLOC   P40S1
001729: 16,2000                                           BANK
001730:
001731: 16,2257  E6,1746                                  EBANK=   NBRCYCLS
001732: 16,2257                                           COUNT    16/S40.9
001733:
001734: 16,2257           06006        S40.9              TC       INTPRET
001735: 16,2260           71201                           SETPD    DLOAD
001736: 16,2261           00001                                    00D
001737: 16,2262           11453                                    LO6ZEROS
001738: 16,2263           77725                           PDDL
001739: 16,2264           34401                                    EP4(45)L
001740: 16,2265           71214                           BON      DLOAD
001741: 16,2266           03705                                    NORMSW
001742: 16,2267           34271                                    +2
001743: 16,2270           34403                                    EP4(10)L
001744: 16,2271           77606                           PUSH
001745: 16,2272           45014                           CLEAR    CALL
001746: 16,2273           00675                                    GUESSW
001747: 16,2274           22002                                    HAVEGUES
001748: 16,2275           77776                           EXIT
001749: 16,2276           05301                           TC       PHASCHNG                              #  SAVE TIME BY NOT REDOING LAMBERT CALCS
001750: 16,2277           05021                           OCT      05021                                 #  C, PRIORITY NEXT, JOB BELOW
001751:                                                                                                  # # Page 677
001752: 16,2300           10000                           OCT      10000
001753: 16,2301           06006                           TC       INTPRET
001754: 16,2302           77614        ENDLAMB            BON
001755: 16,2303           01310                                    FIRSTFLG
001756: 16,2304           34322                                    FIRSTTME
001757: 16,2305           52375                           VLOAD    VSU
001758: 16,2306           03612                                    VIPRIME
001759: 16,2307           03466                                    VRPREV
001760: 16,2310           45325                           PDDL     DSU
001761: 16,2311           03474                                    TNIT
001762: 16,2312           03476                                    TNITPREV
001763: 16,2313           55261                           SL       BDDV
001764: 16,2314           20222                                    17D
001765: 16,2315           34375                                    200CSHI
001766: 16,2316           77761                           VXSC
001767: 16,2317           76451                           VSU      VSL1
001768: 16,2320           01207                                    GDT/2
001769: 16,2321           03705                           STORE    BDT
001770: 16,2322           57535        FIRSTTME           SLOAD    DCOMP
001771: 16,2323           03747                                    RTX2
001772: 16,2324           77640                           BMN
001773: 16,2325           34342                                    MOONCASE
001774: 16,2326           53575                           VLOAD    UNIT
001775: 16,2327           01171                                    RN
001776: 16,2330           45345                           DLOAD    DSU
001777: 16,2331           01205                                    PIPTIME
001778: 16,2332           03450                                    NOMTIG
001779: 16,2333           56205                           DMP      DDV
001780: 16,2334           34377                                    EARTHMU
001781: 16,2335           00043                                    34D
001782: 16,2336           53361                           VXSC     VAD
001783: 16,2337           01215                                    GOBL/2
001784: 16,2340           03646                                    VGTEMP                                #  NOTE  NO TEST IS MADE TO SUBTRACT GOBL
001785: 16,2341           03646                           STORE    VGTEMP                                #  INSIDE 165-195 DEGREE CONE AREA.
001786: 16,2342           77776        MOONCASE           EXIT
001787: 16,2343           05301                           TC       PHASCHNG
001788: 16,2344           04021                           OCT      04021                                 #  C, JOB BELOW
001789:
001790: 16,2345           06006        COPY40.9           TC       INTPRET
001791: 16,2346           77745                           DLOAD
001792: 16,2347           03474                                    TNIT
001793: 16,2350           27476                           STOVL    TNITPREV
001794: 16,2351           03612                                    VIPRIME
001795: 16,2352           03466                           STORE    VRPREV
001796: 16,2353           77414                           CLEAR    EXIT
001797: 16,2354           01270                                    FIRSTFLG
001798: 16,2355           44712                 -2        CS       ONE                                   #  REDO40.9 (RESTART)  ENTRY TO END  S40.9
001799: 16,2356           55746                           TS       NBRCYCLS
001800: 16,2357           05301        ENDS40.9           TC       PHASCHNG
001801: 16,2360           00001                           OCT      00001
001802:                                                                                                  # # Page 678
001803: 16,2361           15112                           TCF      ENDOFJOB
001804:
001805: 16,2362           06006        REDO40.9           TC       INTPRET                               #  S40.9 RESTARTS COME HERE TO GRACEFULLY
001806: 16,2363           77775                           VLOAD                                          #       TERMINATE S40.9 SO THAT IT CAN BE
001807: 16,2364           11453                                    LO6ZEROS                              #       SET UP WITH LATEST R,V,T NEXT PASS
001808: 16,2365           17351                           STODL    DELVSUM                               #       (TYPE C PHASE POINTS '04021' WILL
001809: 16,2366           11453                                    LO6ZEROS                              #       FORCE NORMAL S40.9 TERMINATIONS,
001810: 16,2367           27347                           STOVL    NBRCYCLS                              #       RATHER THAN LOSE TIME OF BRAND NEW
001811: 16,2370           03721                                    VGPREV                                #       PASS -- QUICK OLD DATA BETTER THAN
001812: 16,2371           03646                           STORE    VGTEMP                                #       NONE) NOW CAN GO THRU SETUP.9
001813: 16,2372           77776                           EXIT                                           #       WITHOUT DISTURBING VGPREV
001814: 16,2373           12355                           TCF      ENDS40.9   -2                         #  STORE 0,0 COVERED NBRCYCLS,P -- FIX UP S
001815:
001816: 16,2374           01440 00000  200CSHI            2DEC     200        B-12
001817: 16,2376           55340 61710  EARTHMU            2DEC*    -3.986032  E10        B-36*
001818: 16,2400           04000 00000  EP4(45)L           2DEC     .125
001819: 16,2402           00707 03434  EP4(10)L           2DEC     .027777777
001820:
001821:                                                                                                  # # Page 679
001822:                                                                                                  #  NAME        S40.13 - TIMEBURN
001823:                                                                                                  #  FUNCTION    (1) DETERMINE WHETHER A GIVEN COMBINATION OF VELOCITY-TO-
001824:                                                                                                  #              BE-GAINED AND ENGINE CHOICE RESULT IN A BURN TIME SUFFICIENT
001825:                                                                                                  #              TO ALLOW STEERING AT THE VEHICLE DURING THE BURN, AND
001826:                                                                                                  #              (2) THE MAGNITUDE OF THE RESULTING BURN TIME - IF IT IS SHORT -
001827:                                                                                                  #              AND THE ASSOCIATED TIME OF THE ENGINE-OFF SIGNAL.
001828:                                                                                                  #  CALLING SEQ VIA FINDVAC AS A NEW JOB.
001829:                                                                                                  #  INPUT       VGTIG - VELOCITY TO BE GAINED VECTOR (METERS/C.S.) AT +7
001830:                                                                                                  #           WEIGHT/G - MASS OF VEHICLE IN KGM AT TIG
001831:                                                                                                  #              F - ENGINE THRUST IN M.NEWTONS AT +7
001832:                                                                                                  #              MDOT - RATE OF DECREASE OF VEHICLE MASS DURING ENGINE BURN
001833:                                                                                                  #                     IN KILOGRAMS/CENTISECOND AT +3.  THIS SCALING MAY
001834:                                                                                                  #                     REQUIRE MODIFICATION FOR SATURN BURNS.
001835:                                                                                                  #  OUTPUT      IMPULSW - ZERO FOR STEERING
001836:                                                                                                  #                      - ONE FOR ATTITUDE HOLD
001837:                                                                                                  #              TGO - TIME TO BURN IN CENTISECONDS AT +14
001838:                                                                                                  #    THE QUANTITY M.NEWTON SHALL BE USED TO EXPRESS WEIGHT IN TERMS OF
001839:                                                                                                  #    (KILOGRAM*METER)/(CENTISECOND*CENTISECOND)
001840:                                                                                                  #    (1) M.NEWTON = (10000) NEWTONS
001841: 16,2404  E7,1427                                  EBANK=   TGO
001842: 16,2404                                           COUNT    16/40.13
001843:
001844: 16,2404           06006        S40.13             TC       INTPRET
001845: 16,2405           43001                           SETPD    SET
001846: 16,2406           00001                                    00D
001847: 16,2407           01066                                    IMPULSW                               #  ASSUME NO STEERING UNTIL FOUND OTHERWISE
001848: 16,2410           51575                           VLOAD    ABVAL
001849: 16,2411           03721                                    VGTIG                                 #  VELOCITY TO BE GAINED AT +7
001850: 16,2412           77776                           EXIT
001851: 16,2413           34704                           CAF      BIT7                                  #  TEST +X TRANSLATION
001852: 16,2414           00006                           EXTEND
001853: 16,2415           06031                           RXOR     CHAN31
001854: 16,2416           74704                           MASK     BIT7
001855: 16,2417           00006                           EXTEND
001856: 16,2420           12502                           BZF      NOTADDUL
001857: 16,2421           06006                           TC       INTPRET
001858: 16,2422           56325                           PDDL     DDV                                   #  00D = MAG OF VGTIG AT +7
001859: 16,2423           36027                                    S40.135                               #  COMPENSATION FOR 2 JET ULLAGE AT +24
001860: 16,2424           03076                                    WEIGHT/G                              #  MASS IN KGMS AT +16
001861: 16,2425           72414                           BON      SL1                                   #  DOUBLE CORRECTION IF FOUR JETS
001862: 16,2426           00700                                    NJETSFLG
001863: 16,2427           34430                                    S40.130
001864: 16,2430           77621        S40.130            BDSU
001865: 16,2431           56325                           PDDL     DDV                                   #  00D = MAG OF VGTIG CORRECTED FOR ULLAGE
001866: 16,2432           36013                                    K1VAL                                 #  M.NEWTON-CS AT +24
001867: 16,2433           03076                                    WEIGHT/G
001868: 16,2434           50021                           BDSU     BMN
001869: 16,2435           00001                                    00D
001870: 16,2436           34461                                    S40.131                               #  TGO LESS THAN 100 CS
001871: 16,2437           41325                           PDDL     DMP                                   #  02D = TEMP1 AT +7
001872:                                                                                                  # # Page 680
001873: 16,2440           36031                                    MDOTLO                                #  MDOT, SC.AT B+3 KG/CS
001874: 16,2441           36023                                    3.5SEC                                #  350 CS AT +14
001875: 16,2442           65221                           BDSU     PDDL
001876: 16,2443           03076                                    WEIGHT/G
001877: 16,2444           03727                                    F                                     #  F AT +7
001878: 16,2445           60405                           DMP      SR2
001879: 16,2446           36025                                    5SECOND                               #  500 CS AT +14
001880: 16,2447           41471                           DDV      PUSH                                  #  04D = TEMP2
001881: 16,2450           51021                           BDSU     BPL
001882: 16,2451           00003                                    02D
001883: 16,2452           34475                                    S40.133                               #  TGO GREATER THAN 600 CS
001884: 16,2453           55345                           DLOAD    BDDV
001885: 16,2454           43205                           DMP      DAD
001886: 16,2455           36025                                    5SECOND                               #  500 CS AT +14
001887: 16,2456           36021                                    1SEC2D                                #  100 CS AT +14
001888: 16,2457           77650                           GOTO
001889: 16,2460           34466                                    S40.132
001890: 16,2461           41345        S40.131            DLOAD    DMP                                   #  TGO LESS THAN 100 CS
001891: 16,2462           03076                                    WEIGHT/G
001892: 16,2463           56215                           DAD      DDV
001893: 16,2464           36015                                    K2VAL                                 #  M.NEWTON-CS AT +24
001894: 16,2465           36017                                    K3VAL                                 #  M.NEWTONS AT +10
001895: 16,2466           77776        S40.132            EXIT
001896: 16,2467  E7,1427                                  EBANK=   TGO
001897: 16,2467           07226                           TC       TPAGREE
001898: 16,2470           30154                           CA       MPAC
001899: 16,2471           56001                           XCH      L
001900: 16,2472           34714                           CA       ZERO
001901: 16,2473           53430                           DXCH     TGO                                   #  TGO IN CS AT +28
001902: 16,2474           02477                           TC       S40.134
001903: 16,2475           77414        S40.133            CLEAR    EXIT                                  #  WILL STEER VEHICLE
001904: 16,2476           01266                                    IMPULSW
001905: 16,2477           05301        S40.134            TC       PHASCHNG                              #  KILL GROUP 3
001906: 16,2500           00003                           OCT      3
001907:
001908: 16,2501           15112                           TCF      ENDOFJOB
001909:
001910:
001911: 16,2502           06006        NOTADDUL           TC       INTPRET
001912: 16,2503           77650                           GOTO
001913: 16,2504           34431                                    S40.130    +1                         #  DO NOT COMPENSATE FOR 7 SEC OF ULLAGE
001914: 17,2000                                           SETLOC   DAPS7
001915: 17,2000                                           BANK
001916:
001917: 17,2012                                           COUNT    17/40.13
001918:
001919: 17,2012           00001 27221  K1VAL              2DEC     884.52887  B-23                       #  19885 LB-SEC, SC.AT B+23 NEWTON-SEC/E+2
001920: 17,2014           00000 22244  K2VAL              2DEC     293.137805 B-23                       #   6590 LB-SEC, SC.AT B+23 NEWTON-SEC/E+2
001921:                                                                                                  # # Page 681
001922: 17,2016           00570 33235  K3VAL              2DEC     11.7766668 B-9                        #  26475 LBS, SC.AT B+9 NEWTONS/E+4
001923: 17,2020           00144 00000  1SEC2D             2DEC     100.0      B-14                       #  100.0 CS AT +14
001924: 17,2022           01274 00000  3.5SEC             2DEC     350.0      B-13                       #  350 CS AT +13
001925: 17,2024           00764 00000  5SECOND            2DEC     500.0      B-14                       #  500.0 CS AT +14
001926: 17,2026           00000 04263  S40.135            2DEC     69.6005183 B-23                       #  IMPULSE FROM 7.96 SECS OF 2-JET FIRING
001927:                                                                                                  #                                               7.96(199.6)COS(10)  LB-SEC,  SC.AT
001928:                                                                                                  #                                               B+23 NEWTON-SEC/E+2  (7 SEC ULLAGE
001929:                                                                                                  #                                               TO GO, PLUS 0.96 SEC FROM PIPTIME)
001930: 17,2030           01120 25456  MDOTLO             2DEC     .289391932 B-3                        #  63.8 LB/SEC, SC.AT B+3 KG/CS   (=MDOTHI)
001931:
001932:                                                                                                  # # Page 682
001933:                                                                                                  #  NAME     S40.6  GIMBAL DRIVE TEST AND/OR GIMBAL TRIM
001934:                                                                                                  #  MOD NO 5                        DATE 9 MARCH, 1967
001935:                                                                                                  #  MOD BY   ENGEL                  LOG SECTION P40-P47
001936:                                                                                                  #  FUNCTIONAL DESCRIPTION
001937:                                                                                                  #       GIMBAL DRIVE TEST....0,+2,-2,0  DEGREE ENGINE COMMANDS, AT 2 SECOND
001938:                                                                                                  #           INTERVALS, FIRST IN PITCH, THEN IN YAW. ASTRONAUT VERIFICATION
001939:                                                                                                  #           OF GIMBAL MOTION ON GPI
001940:                                                                                                  #       GIMBAL TRIM....AFTER A 4 SECOND DELAY,ENGINE COMMANDED TO
001941:                                                                                                  #           PRE-COMPUTED TRIM POSITION. ASTRONAUT VERIFICATION ON GPI.
001942:                                                                                                  #       PRE40.6....RESTART ENTRY TO RE-DO S40.6, ONLY IF RCS IS ON - IF TVC
001943:                                                                                                  #           IS NOT ON - PRIMARILY TO GET ACTUATORS TRIMMED FOR IGNITION.
001944:                                                                                                  #           BYPASS 4 SEC DELAY.  SPEED IS CRITICAL NEAR IGNITION.
001945:                                                                                                  #           IF TVC IS ON (TVCDAPON OR LATER)  THEN REDOTVC WILL TAKE CARE
001946:                                                                                                  #           OF RESTARTING ACTUATORS.
001947:                                                                                                  #  CALLING SEQUENCE....
001948:                                                                                                  #       WAITLIST,  WITH 2CADR FOR S40.6 (OR PRE40.6),  WITH EBANK= CNTR
001949:                                                                                                  #  NORMAL EXIT MODE - FIXDELAY, TASKOVER
001950:                                                                                                  #  SUBROUTINES CALLED....
001951:                                                                                                  #       OUTPUT (INTERNAL)
001952:                                                                                                  #       FIXDELAY
001953:                                                                                                  #  ALARM OR ABORT EXIT MODES - NONE
001954:                                                                                                  #  ERASABLE INITIALIZATION REQUIRED
001955:                                                                                                  #       CNTR = +0,  NORMALLY SET BY THE P40 CALL AT TST,TRIM
001956:                                                                                                  #       MRKRTMP...POSITIVE FOR GIMBAL DRIVE TEST AND GIMBAL TRIM (BOTH)
001957:                                                                                                  #                 NEGATIVE FOR GIMBAL TRIM ONLY
001958:                                                                                                  #       PACTOFF, YACTOFF SC.AT 85.41 ARCSEC/BIT  (V48N48 P,YTRIM)
001959:                                                                                                  #       ..SC CONT.. SWITCH AT ..CMC.. (A/P CONTROL SWITCH AT ..GNC..)
001960:                                                                                                  #       ACTIVE SPS GIMBAL MOTOR POWER(S),  PITCH, YAW
001961:                                                                                                  #  OUTPUT
001962:                                                                                                  #       TVCYAW, TVCPITCH (BITS RELEASED)
001963:                                                                                                  #       TVC ENABLE  AND  OPTICS ERROR COUNTER ENABLE
001964:                                                                                                  #  DEBRIS
001965:                                                                                                  #       TBMPR60, CNTR
001966:
001967:
001968:
001969: 17,2032                                           BANK     17
001970: 20,2000                                           SETLOC   DAPS6
001971: 20,2000                                           BANK
001972:
001973: 20,2040  E6,1447                                  EBANK=   CNTR
001974: 20,2040                                           COUNT    20/S40.6
001975:
001976: 20,2040           30102        PRE40.6            CAE      FLAGWRD6                              #  RESTART ENTRY TO S40.6.  CHECK T5 BITS.
001977: 20,2041           74105                           MASK     OCT60000
001978: 20,2042           00006                           EXTEND
001979: 20,2043           65213                           BZMF     TASKOVER                              #  NOT RCS  (BITS NOT 01),  DONT DO S40.6
001980:
001981: 20,2044           44712                           CS       BIT1                                  #  RCS, SO DO S40.6, GIMTRIM ONLY
001982: 20,2045           55445                           TS       MRKRTMP
001983:                                                                                                  # # Page 683
001984: 20,2046           34712                           CAF      BIT1                                  #  FOR REVISED S40.6 TIMING FOR RESTARTS...
001985: 20,2047           55447                           TS       CNTR                                  #  TO INDICATE A RESTART ENTRY (CNTR 1S
001986:                                                                                                  #                                               NORMALLY +0, BY S40.6)
001987:
001988:
001989: 20,2050  E6,1447                                  EBANK=   CNTR
001990: 20,2050           44714        S40.6              CS       ZERO                                  #  INHIBIT OPTICS ACTIVITY
001991: 20,2051           55303                           TS       OPTIND
001992:
001993: 20,2052           44711                           CS       BIT2                                  #  DISENABLE OPTICS ERROR COUNTERS (ZERO,
001994: 20,2053           00006                           EXTEND                                         #       AND INHIBIT PULSE TRANSMISSION -
001995: 20,2054           03012                           WAND     CHAN12                                #       NORMAL STATE)
001996:
001997: 20,2055           32142                           CAF      OCT02200                              #  TVC ENABLE (SPS SERVO AMPS SEE DAC
001998: 20,2056           00006                           EXTEND                                         #       VOLTAGES) AND DISENGAGE OPTICS/DAC
001999: 20,2057           05012                           WOR      CHAN12
002000:
002001: 20,2060           05156                           TC       FIXDELAY                              #  60MS PROCEDURAL DELAY (40MS MINIMUM) FOR
002002: 20,2061           00006                           DEC      6          B-14                       #       RELAY LATCHING
002003:
002004: 20,2062           34711                           CAF      BIT2                                  #  ENABLE OPTICS ERROR COUNTERS
002005: 20,2063           00006                           EXTEND
002006: 20,2064           05012                           WOR      CHAN12
002007:
002008: 20,2065           05156                           TC       FIXDELAY                              #  20MS PROCEDURAL DELAY (4MS MINIMUM) FOR
002009: 20,2066           00002                           DEC      2          B-14                       #       RELAY LATCHING
002010:
002011: 20,2067           11447        RSTRTST            CCS      CNTR                                  #  CHECK FOR RESTART ENTRY (PRE40.6)
002012: 20,2070           12130                           TCF      GIMTRIM    +2                         #  RESTART ENTRY....BYPASS 4 SECOND DELAY
002013:                                                                                                  #                                               TST,TRIM SETS +0 ON NORMAL ENTRY
002014:
002015: 20,2071           31445                           CAE      MRKRTMP                               #  CHECK FOR TEST/TRIM OR TRIM ONLY
002016: 20,2072           55447                           TS       CNTR                                  #       MRKRTMP SAVES CNTR FOR RESTARTS
002017: 20,2073           00006                           EXTEND
002018: 20,2074           62126                           BZMF     GIMTRIM                               #  (TRIM ONLY)
002019:
002020: 20,2075           44714        GDTSETUP           CS       ZERO                                  #  GIMBAL DRIVE TEST SETUP, FOR PITCH
002021: 20,2076           55447                           TS       CNTR
002022:
002023: 20,2077           32144        GIMDTEST           CAF      +2ACTDEG                              #  GIMBAL DRIVE TEST, 1ST INCREMENT
002024: 20,2100           02113                           TC       OUTPUT                                #       (LEAVES GIMBAL AT +2 DEG)
002025: 20,2101           32143                           CAF      -4ACTDEG                              #  2ND INCREMENT (LEAVES GIMBAL AT -2)
002026: 20,2102           02113                           TC       OUTPUT
002027: 20,2103           32144                           CAF      +2ACTDEG                              #  3RD INCREMENT (LEAVES GIMBAL AT -0)
002028: 20,2104           02113                           TC       OUTPUT
002029:
002030: 20,2105           41447                           CS       CNTR                                  #  CHECK FOR COMPLETION OF YAW TEST
002031: 20,2106           10000                           CCS      A
002032: 20,2107           12126                           TCF      GIMTRIM                               #  COMPLETED, GO TO GIMBAL TRIM ROUTINE
002033: 20,2110           44712                           CS       BIT1                                  #  SET UP YAW TEST
002034:                                                                                                  # # Page 684
002035: 20,2111           55447                           TS       CNTR
002036: 20,2112           12077                           TCF      GIMDTEST                              #  FOR YAW TEST
002037:
002038:
002039: 20,2113           00006        OUTPUT             EXTEND                                         #  OUTPUT THE INCREMENT....SAVE Q
002040: 20,2114           23146                           QXCH     TEMPR60
002041:
002042: 20,2115           51447                           INDEX    CNTR
002043: 20,2116           54054                           TS       TVCPITCH
002044:
002045: 20,2117           51447                           INDEX    CNTR
002046: 20,2120           34700                           CAF      BIT11
002047: 20,2121           00006                           EXTEND
002048: 20,2122           05014                           WOR      CHAN14
002049:
002050: 20,2123           05156                           TC       FIXDELAY                              #  WAIT 2SEC, WHILE ASTRONAUT VERIFIES
002051: 20,2124           00310                           DEC      200        B-14                       #       GIMBAL MOTION ON GPI
002052: 20,2125           01146                           TC       TEMPR60
002053:
002054:
002055: 20,2126           05156        GIMTRIM            TC       FIXDELAY                              #  WAIT 4 SECONDS BEFORE GIMBAL TRIM
002056: 20,2127           00620                           DEC      400        B-14
002057:
002058: 20,2130           44714                 +2        CS       ZERO                                  #  PICK UP TRIM VALUES AND OUTPUT THEM
002059: 20,2131           61425                           AD       PACTOFF                               #       (AVOID +0) ENTRY POINT FROM RSTRTST
002060: 20,2132           54054                           TS       TVCPITCH                              #       ON A RESTART, TO AVOID 4SEC DELAY
002061: 20,2133           44714                           CS       ZERO
002062: 20,2134           61426                           AD       YACTOFF
002063: 20,2135           54053                           TS       TVCYAW
002064:
002065: 20,2136           34755                           CAF      PRIO6                                 #  RELEASE THE COUNTERS, BITS 11,12
002066: 20,2137           00006                           EXTEND
002067: 20,2140           05014                           WOR      CHAN14
002068:
002069: 20,2141           15213        ENDS40.6           TCF      TASKOVER
002070:
002071:
002072: 20,2142           02200        OCT02200           OCT      02200                                 #  BITS 8,11 FOR CHANNEL 12 TVC/OPTICS
002073: 20,2143           77526        -4ACTDEG           DEC      -169       B-14                       #  -4 DEG, SC.AT 65.41 ARCSEC/BIT (-169D)
002074: 20,2144           00124        +2ACTDEG           DEC      +84        B-14                       #  +2 DEG, SC.AT 65.41 ARCSEC/BIT (+84D)
002075:
002076:
002077:                                                                                                  #  CALLED BY ..DONOUN46.. (VERB 48), OR DIRECTLY BY ..FRESHDAP.. (RCS DAP) VIA IBNKCALL
002078:
002079: 20,2145                                           COUNT    20/S41.2
002080:
002081: 20,2145           31466        S41.2              CA       DAPDATR1
002082: 20,2146           76214                           MASK     THREE
002083: 20,2147           60000                           AD       A
002084: 20,2150           55130                           TS       RATEINDX
002085:                                                                                                  # # Page 685
002086: 20,2151           00004                           INHINT
002087: 20,2152           31466                           CAE      DAPDATR1                              #  IS LEM ATTACHED (BITS 14,13 OF DAPDATR1
002088: 20,2153           74371                           MASK     PRIO30                                #                    =10)
002089: 20,2154           67705                           AD       -BIT14                                #  (OCT57777)
002090: 20,2155           00006                           EXTEND
002091: 20,2156           12163                           BZF      TOGETHER                              #  YES
002092:
002093: 20,2157           44711                           CS       BIT2                                  #  NO, UNSET FLAG
002094: 20,2160           70103                           MASK     FLAGWRD7
002095: 20,2161           54103                           TS       FLAGWRD7
002096:
002097: 20,2162           12166                           TCF      +4
002098:
002099: 20,2163           40103        TOGETHER           CS       FLAGWRD7                              #  ATTACHED, SET FLAG FOR INTEGRATION
002100: 20,2164           74711                           MASK     BIT2
002101: 20,2165           26103                           ADS      FLAGWRD7
002102:
002103: 20,2166           00003                           RELINT
002104:
002105: 20,2167           31466                           CA       DAPDATR1
002106: 20,2170           74707                           MASK     BIT4
002107: 20,2171           00006                           EXTEND
002108: 20,2172           62174                           BZMF     +2                                    #  DEC 46 MEANS NARROW DB
002109: 20,2173           32274                           CA       DEC409
002110: 20,2174           62275                           AD       DEC46                                 #  DEC 455 MEANS WIDE DB
002111: 20,2175           55655                           TS       ADB
002112:
002113: 20,2176           31466                           CA       DAPDATR1
002114: 20,2177           74704                           MASK     BIT7                                  #  QUAD BD
002115: 20,2200           00006                           EXTEND
002116: 20,2201           62203                           BZMF     +2
002117: 20,2202           34712                           CA       ONE
002118: 20,2203           55631                           TS       XTRANS
002119: 20,2204           31466                           CA       DAPDATR1
002120: 20,2205           74701                           MASK     BIT10                                 #  QUAD AC
002121: 20,2206           00006                           EXTEND
002122: 20,2207           62211                           BZMF     +2
002123: 20,2210           44712                           CS       ONE
002124: 20,2211           27631                           ADS      XTRANS
002125:
002126: 20,2212           00004                           INHINT
002127: 20,2213           00006                           EXTEND
002128: 20,2214           12221                           BZF      +5                                    #  CLEAR NJETSFLG (4 JETS, OR NO JETS)
002129: 20,2215           40075                           CS       FLAGWRD1                              #  SET NJETSFLG   (2 JETS, AC OR BD QUADS)
002130: 20,2216           74674                           MASK     BIT15                                 #  NJETSFLG = 1 FOR 2 JET ULLAGE (AC OR BD)
002131: 20,2217           26075                           ADS      FLAGWRD1
002132: 20,2220           12224                           TCF      +4
002133: 20,2221           44674                           CS       BIT15                                 #  KJETSFLG = 0 FOR 4 JET (OR 0 JET) ULLAGE
002134: 20,2222           70075                           MASK     FLAGWRD1
002135: 20,2223           54075                           TS       FLAGWRD1
002136:                                                                                                  # # Page 686
002137: 20,2224           00003                           RELINT
002138: 20,2225           31467                           CA       DAPDATR2
002139: 20,2226           74676                           MASK     BIT13
002140: 20,2227           00006                           EXTEND
002141: 20,2230           62232                           BZMF     +2
002142: 20,2231           12233                           TCF      +2
002143: 20,2232           44712                           CS       ONE
002144: 20,2233           40000                           COM
002145: 20,2234           55630                           TS       ACORBD                                #  MINUS FOR A-C, PLUS FOR B-D
002146:
002147: 20,2235           31467                           CA       DAPDATR2
002148: 20,2236           74701                           MASK     BIT10
002149: 20,2237           10000                           CCS      A
002150: 20,2240           12244                           TCF      +4
002151: 20,2241           34712                           CA       ONE
002152: 20,2242           55626                           TS       RACFAIL
002153: 20,2243           12254                           TCF      BDFAIL
002154: 20,2244           34714                           CA       ZERO
002155: 20,2245           55626                           TS       RACFAIL
002156: 20,2246           31467                           CA       DAPDATR2
002157: 20,2247           74707                           MASK     BIT4
002158: 20,2250           10000                           CCS      A
002159: 20,2251           12254                           TCF      BDFAIL
002160: 20,2252           44712                           CS       ONE
002161: 20,2253           55626                           TS       RACFAIL
002162: 20,2254           31467        BDFAIL             CA       DAPDATR2
002163: 20,2255           74704                           MASK     BIT7
002164: 20,2256           10000                           CCS      A
002165: 20,2257           12263                           TCF      +4
002166: 20,2260           34712                           CA       ONE
002167: 20,2261           55627                           TS       RBDFAIL
002168: 20,2262           00002                           TC       Q
002169: 20,2263           34714                           CA       ZERO
002170: 20,2264           55627                           TS       RBDFAIL
002171: 20,2265           31467                           CA       DAPDATR2
002172: 20,2266           74712                           MASK     BIT1
002173: 20,2267           10000                           CCS      A
002174: 20,2270           00002                           TC       Q
002175: 20,2271           44712                           CS       ONE
002176: 20,2272           55627                           TS       RBDFAIL
002177: 20,2273           00002                           TC       Q
002178:
002179:
002180:                                                                                                  #  DAPFIG ENTRY VIA TC POSTJUMP AS JOB FROM ..STABLISH.. (VERB 46)
002181: 42,3521                                           BANK     42
002182: 42,2000                                           SETLOC   EXTVBS
002183: 42,2000                                           BANK
002184:
002185: 42,3521           44702        DAPFIG             CS       BIT9                                  #  TURN OFF SIVB TAKEOVER
002186: 42,3522           00006                           EXTEND
002187:                                                                                                  # # Page 687
002188: 42,3523           03012                           WAND     CHAN12
002189: 42,3524           31466                           CAE      DAPDATR1                              #  DETERMINE VEHICLE CONFIGURATION
002190: 42,3525           00006                           EXTEND
002191: 42,3526           74710                           MP       BIT3                                  #       RIGHT SHIFT 4 OCTAL DIGITS
002192: 42,3527           76214                           MASK     THREE                                 #       (IN CASE BIT 15 IS USED)
002193: 42,3530           50000                           INDEX    A
002194: 42,3531           13532                           TCF      +1                                    #       BRANCH BASED ON CONFIG....
002195:
002196: 42,3532           13544                           TCF      NODAPUP                               #  CM.......ACTIVATE NODAP
002197: 42,3533           13537                           TCF      RCSDAPUP                              #       CSM......ACTIVATE RCSDAP
002198: 42,3534           13537                           TCF      RCSDAPUP                              #       CSM/LEM..ACTIVATE RCSDAP
002199: 42,3535           04574                           TC       POSTJUMP
002200: 42,3536           67210                           CADR     SATSTKON
002201: 42,3537           00004        RCSDAPUP           INHINT                                         #  CALL TO ACTIVATE RCSDAP, AND RETURN
002202: 42,3540           04633                           TCR      IBNKCALL
002203: 42,3541           42010                           CADR     RCSDAPON
002204: 42,3542           00003                           RELINT
002205: 42,3543           13561                           TCF      ENDFIG                                #  CAME IN VIA V46, GO OUT VIA GOPIN
002206: 42,3544           00006        NODAPUP            EXTEND                                         #  T5 IDLE FOR NODAP (DONT WORRY ABOUT T)
002207: 42,3545           33564                           DCA      T5IDLDAP
002208: 42,3546           53313                           DXCH     T5LOC
002209: 42,3547           05447                           TC       DOWNFLAG                              #  RESET T5-USAGE FLAGS FOR NODAP
002210: 42,3550           00132                           ADRES    DAPBIT1                               #  BIT 15  FLAG 6 = 0
002211: 42,3551           05447                           TC       DOWNFLAG
002212: 42,3552           00133                           ADRES    DAPBIT2                               #  BIT 14  FLAG 6 = 0
002213: 42,3553           00004                           INHINT
002214: 42,3554           04633                           TC       IBNKCALL                              #  ZERO JET CHANNELS IN 14 MS AND THEN
002215: 42,3555           42616                           CADR     ZEROJET                               #  LEAVE THE T6 CLOCK DISABLED.
002216: 42,3556           00003                           RELINT
002217: 42,3557           34712                           CAF      BIT1                                  #  KILL KALCMANU JOB
002218: 42,3560           55332                           TS       HOLDFLAG
002219: 42,3561           04574        ENDFIG             TC       POSTJUMP                              #  CAME IN VIA V46, GO OUT VIA GOPIN
002220: 42,3562           66125                           CADR     GOPIN
002221: 42,3563  E6,1425                                  EBANK=   PACTOFF
002222: 42,3563           03132 12106  T5IDLDAP           2CADR    T5IDLOC
002223:
002224: 17,2032                                           BANK     17
002225: 20,2000                                           SETLOC   DAPS6
002226: 20,2000                                           BANK
002227:
002228: 20,2274           00631        DEC409             DEC      409        B-14
002229: 20,2275           00056        DEC46              DEC      46         B-14
002230:
002231:
002232:                                                                                                  #  CALLED BY ..DONOUN47.. (VERB 48), OR DIRECTLY BY ..FRESHDAP.. (RCS DAP)
002233:
002234: 20,2276           31470        S40.14             CAE      IXX                                   #  RCS ENTRY
002235: 20,2277           00006                           EXTEND
002236: 20,2300           72323                           MP       CONTONE
002237:                                                                                                  # # Page 688
002238: 20,2301           55623                           TS       J/M
002239:
002240: 20,2302           31471                           CA       IAVG
002241: 20,2303           00006                           EXTEND
002242: 20,2304           72323                           MP       CONTONE
002243: 20,2305           55624                           TS       J/M1
002244:
002245: 20,2306           55625                           TS       J/M2
002246:
002247: 20,2307           00006                           EXTEND
002248: 20,2310           32325                           DCA      CONTTWO
002249: 20,2311           00006                           EXTEND
002250: 20,2312           11470                           DV       IXX
002251: 20,2313           55620                           TS       KMJ
002252:
002253: 20,2314           00006                           EXTEND
002254: 20,2315           32325                           DCA      CONTTWO
002255: 20,2316           00006                           EXTEND
002256: 20,2317           11471                           DV       IAVG
002257: 20,2320           55621                           TS       KMJ1
002258:
002259: 20,2321           55622                           TS       KMJ2
002260:
002261: 20,2322           00002                           TC       Q
002262:
002263: 20,2323           25137        CONTONE            DEC      .662034                               #  2PI/M
002264: 20,2324           00023 12522  CONTTWO            2DEC     .00118
002265:
002266: 20,2326                                           COUNT    24/TVNG
002267:
002268: 31,3215                                           BANK     31
002269: 24,2000                                           SETLOC   P40S
002270: 24,2000                                           BANK
002271:
002272: 24,3701           37405        POS-2.5            OCT      37405


002274: 24,3702  40,2000                                  SBANK=   PINSUPER
002275: 24,3702  E6,1466                                  EBANK=   DAPDATR1
002276: 24,3702           02000 42106  RCSCADR            2CADR    RCSUP
002277: 24,3704           37704        6SECT5             OCT      37704
002278: 24,3705                                           COUNT    21/RCSUP
002279:
002280: 20,2326                                           BANK     20
002281:
002282: 21,2000                                           SETLOC   DAPS3
002283: 21,2000                                           BANK
002284:
002285: 21,2000           22016        RCSUP              LXCH     BANKRUPT
002286: 21,2001           00006                           EXTEND
002287: 21,2002           22012                           QXCH     QRUPT
002288:
002289:                                                                                                  # # Page 689
002290: 21,2003           02010                           TCR      RCSDAPON                              #  ACTIVATE RCS DAP
002291:
002292: 21,2004           15222                           TCF      RESUME
002293:


002295: 21,2005  40,2000                                  SBANK=   PINSUPER
002296: 21,2005  E6,1466                                  EBANK=   DAPDATR1
002297: 21,2005           02106 42106  RCSADDR            2CADR    RCSATT
002298:
002299:
002300: 21,2007           37704        0.6SECT5           OCT      37704
002301:
002302:                                                                                                  #                                          RCSDAPON ENTRY MUST BE UNDER INT-INHIBIT
002303: 21,2010           32007        RCSDAPON           CAF      0.6SECT5                              #  0.6 SEC ALLOWS TVCEXEC/ROLLDAP TO DIE
002304: 21,2011           54030                 +1        TS       TIME5                                 #  ENTRY FROM R00TOPOO
002305: 21,2012           55465                           TS       T5PHASE                               #  WILL CAUSE FRESHDAP (+1)
002306:
002307: 21,2013           41501                           CS       RCSFLAGS                              #  SET BIT3 TO REINITIALIZE FDAI ERROR
002308: 21,2014           74710                           MASK     BIT3                                  #       DISPLAY, IN CASE SC CONT SWITCH
002309: 21,2015           27501                           ADS      RCSFLAGS                              #       IN SCS NOT GNC (GUIDEMODE PRIMARY)
002310:
002311: 21,2016           00006                           EXTEND
002312: 21,2017           32006                           DCA      RCSADDR                               #  (RCSATT)
002313: 21,2020           53313                           DXCH     T5LOC
002314:
002315: 21,2021           44105                           CS       OCT60000                              #  SEE BITS 15,14  TO  01  TO INDICATE
002316: 21,2022           70102                           MASK     FLAGWRD6                              #       T5 TAKEOVER BY RCSDAP
002317: 21,2023           64675                           AD       BIT14
002318: 21,2024           54102                           TS       FLAGWRD6                              #  KILLS TVCEXEC AND ROLLDAP STARTS
002319:
002320: 21,2025           00002                           TC       Q                                     #  RETURN TO CALLER (TVCDAPOF OR RCSDAPUP)

End of include-file P40-P47.agc.  Parent file is MAIN.agc


