
Source Code


000002:                                                                                                  ## Copyright:   Public domain.
000003:                                                                                                  ## Filename:    P51-P53.agc
000004:                                                                                                  ## Purpose:     Part of the source code for Colossus build 237.
000005:                                                                                                  ##              This is for the Command Module's (CM) Apollo Guidance
000006:                                                                                                  ##              Computer (AGC), for Apollo 8.
000007:                                                                                                  ## Assembler:   yaYUL
000008:                                                                                                  ## Contact:     Jim Lawton <jim DOT lawton AT gmail DOT com>
000009:                                                                                                  ## Website:     www.ibiblio.org/apollo/index.html
000010:                                                                                                  ## Page Scans:  www.ibiblio.org/apollo/ScansForConversion/Colossus237/
000011:                                                                                                  ## Mod history: 2011-02-23 JL   Adapted from corresponding Colossus 249 file.
000012:                                                                                                  ##              2011-04-17 JL   Removed temporary line.
000013:                                                                                                  ##              2016-12-31 RSB  Proofed comment text using octopus/ProoferComments,
000014:                                                                                                  ##                              and corrected errors found.
000015:                                                                                                  ##              2017-01-18 RSB  Fixed comment-text errors noted while diff'ing
000016:                                                                                                  ##                              vs Colossus 249.
000017:


000019:                                                                                                  #  PROGRAM NAME- PROG52                                                                   DATE- NOV 30, 1966
000020:                                                                                                  #  MOD NO- 2                                                                              LOG SECTION- P51-P53
000021:                                                                                                  #  MODIFICATION BY- LONSKE                                                                ASSEMBLY- SUNDISK REV 30
000022:
000023:                                                                                                  #  FUNCTIONAL DESCRIPTION-
000024:
000025:                                                                                                  #       ALIGNS THE IMU TO ONE OF THREE ORIENTATIONS SELECTED BY THE ASTRONAUT. THE PRESENT IMU ORIENTATION IS KNOWN
000026:                                                                                                  #  AND IS STORED IN REFSMMAT. THE THREE POSSIBLE ORIENTATIONS MAY BE_
000027:
000028:                                                                                                  #       (A) PREFERRED ORIENTATION
000029:
000030:                                                                                                  #        AN OPTIMUM ORIENTATION FOR A PREVIOUSLY CALCULATED MANUEVER. THIS ORIENTATION MUST BE CALCULATED AND
000031:                                                                                                  #       STORED BY A PREVIOUSLY SELECTED PROGRAM.
000032:
000033:                                                                                                  #       (B) NOMINAL ORIENTATION
000034:
000035:                                                                                                  #            X  = UNIT(Y  X Z  )
000036:                                                                                                  #            -SM       -SM  -SM
000037:
000038:                                                                                                  #            Y  = UNIT(V X R)
000039:                                                                                                  #            -SM       -   -
000040:
000041:                                                                                                  #            Z   = UNIT(-R)
000042:                                                                                                  #            -SM         -
000043:
000044:                                                                                                  #           WHERE_
000045:                                                                                                  #            R = THE GEOCENTRIC RADIUS VECTOR AT TIME T(ALIGN) SELECTED BY THE ASTRONAUT
000046:                                                                                                  #            -
000047:
000048:                                                                                                  #            V = THE INERTIAL VELOCITY VECTOR AT TIME T(ALIGN) SELECTED BY THE ASTRONAUT
000049:                                                                                                  #            -
000050:
000051:                                                                                                  #       (C) REFSMMAT ORIENTATION
000052:
000053:                                                                                                  #        THIS SELECTION CORRECTS THE PRESENT IMU ORIENTATION. THE PRESENT ORIENTATION DIFFERS FROM THAT TO WHICH IT
000054:                                                                                                  #       WAS LAST ALIGNED ONLY DUE TO GYRO DRIFT(I.E. NEITHER GIMBAL LOCK NOR IMU POWER INTERRUPTION HAS OCCURED
000055:                                                                                                  #       SINCE THE LAST ALIGNMENT).
000056:
000057:                                                                                                  #       AFTER A IMU ORIENTATION HAS BEEN SELECTED ROUTINE S52.2 IS OPERATED TO COMPUTE THE GIMBAL ANGLES USING THE
000058:                                                                                                  #  NEW ORIENTATION AND THE PRESENT VEHICLE ATTITUDE. CAL52A THEN USES THESE ANGLES, STORED IN THETAD,+1,+2, TO
000059:                                                                                                  #  COARSE ALIGN THE IMU. THE STAR SELECTION ROUTINE, R56, IS THEN OPERATED. IF 2 STARS ARE NOT AVAILABLE AN ALARM
000060:                                                                                                  #  IS FLASHED TO NOTIFY THE ASTRONAUT. AT THIS POINT THE ASTRONAUT WILL MANUEVER THE VEHICLE AND SELECT 2 STARS
000061:                                                                                                  #  EITHER MANUALLY OR AUTOMATICALLY. AFTER 2 STARS HAVE BEEN SELECTED THE IMU IS FINE ALIGNED USING ROUTINE R51. IF
000062:                                                                                                  #  THE RENDEZVOUS NAVIGATION PROCESS IS OPERATING(INDICATED BY RNDVZFLG) P20 IS DISPLAYED. OTHERWISE P00 IS
000063:                                                                                                  #  REQUESTED.
000064:
000065:                                                                                                  #  CALLING SEQUENCE-
000066:
000067:                                                                                                  #       THE PROGRAM IS CALLED BY THE ASTRONAUT BY DSKY ENTRY.
000068:


000070:                                                                                                  #  SUBROUTINES CALLED-
000071:
000072:                                                                                                  #      1. FLAGDOWN      7. S52.2           13. NEWMODEX
000073:                                                                                                  #      2. R02BOTH       8. CAL53A          14. PRIOLARM
000074:                                                                                                  #      3. GOPERF4       9. FLAGUP
000075:                                                                                                  #      4. MATMOVE      10. R56
000076:                                                                                                  #      5. GOFLASH      11. R51
000077:                                                                                                  #      6. S52.3        12. GOPERF3
000078:
000079:                                                                                                  #  NORMAL EXIT MODES-
000080:
000081:                                                                                                  #        EXITS TO ENDOFJOB
000082:
000083:                                                                                                  #  ALARM OR ABORT EXIT MODES-
000084:
000085:                                                                                                  #        NONE
000086:
000087:                                                                                                  #  OUTPUT-
000088:
000089:                                                                                                  #      THE FOLLOWING MAY BE FLASHED ON THE DSKY
000090:                                                                                                  #         1. IMU ORIENTATION CODE
000091:                                                                                                  #         2. ALARM CODE 215 -PREFERRED IMU ORIENTATION NOT SPECIFIED
000092:                                                                                                  #         3. TIME OF NEXT IGNITION
000093:                                                                                                  #         4. GIMBAL ANGLES
000094:                                                                                                  #         5. ALARM CODE 405 -TWO STARS NOT AVAILABLE
000095:                                                                                                  #         6. PLEASE PERFORM P00
000096:                                                                                                  #      THE MODE DISPLAY MAY BE CHANGED TO 20
000097:
000098:                                                                                                  #  ERASABLE INITIALIZATION REQUIRED-
000099:
000100:                                                                                                  #      PFRATFLG SHOULD BE SET IF A PREFERRED ORIENTATION HAS BEEN COMPUTED.IF IT HAS BEEN COMPUTED IT IS STORED IN
000101:                                                                                                  #      XSMD,YSMD,ZSMD.
000102:                                                                                                  #      RNDVZFLG INDICATES WHETHER THE RENDEZVOUS NAVIGATION PROCESS IS OPERATING.
000103:
000104:                                                                                                  #  DEBRIS-
000105:
000106:                                                                                                  #      WORK AREA
000107: 21,2026  15,2000               P54                =        PROG52
000108: 33,3773                                           BANK     33
000109: 15,2000                                           SETLOC   P50S
000110: 15,2000                                           BANK
000111:
000112: 15,2000  30,2000                                  SBANK=   LOWSUPER
000113: 15,2000  E5,1773                                  EBANK=   SAC
000114: 15,2000                                           COUNT    15/P52
000115:
000116: 15,2000           05301        PROG52             TC       PHASCHNG
000117: 15,2001           00254                           OCT      00254
000118: 15,2002           05447                           TC       DOWNFLAG
000119: 15,2003           00027                           ADRES    UPDATFLG                              #  BIT 7  FLAG 1


000121: 15,2004           05447                           TC       DOWNFLAG
000122: 15,2005           00031                           ADRES    TRACKFLG                              #  BIT 5  FLAG 1
000123: 15,2006           04555                           TC       BANKCALL
000124: 15,2007           17573                           CADR     R02BOTH                               #  IMU STATUS CHECK
000125: 15,2010           34707                           CAF      BIT4
000126: 15,2011           70076                           MASK     STATE      +2                         #  IS PFRATFLG SET(PREFERRED ORIENTATION)
000127: 15,2012           10000                           CCS      A
000128: 15,2013           02016                           TC       P52A                                  #  YES
000129: 15,2014           34711                           CAF      BIT2                                  #  NO
000130: 15,2015           02017                           TC       P52A       +1
000131: 15,2016           34712        P52A               CAF      BIT1
000132: 15,2017           55132                           TS       OPTION2
000133: 15,2020           34712        P52B               CAF      BIT1
000134: 15,2021           04555                           TC       BANKCALL                              #  FLASH OPTION CODE AND ORIENTATION CODE
000135: 15,2022           21041                           CADR     GOPERF4R
000136: 15,2023           04106                           TC       GOTOPOOH
000137: 15,2024           02031                           TC       +5
000138: 15,2025           02020                           TC       P52B                                  #  NEW CODE - NEW ORIENTATION CODE INPUT
000139: 15,2026           05301                           TC       PHASCHNG
000140: 15,2027           00014                           OCT      00014
000141: 15,2030           05112                           TC       ENDOFJOB
000142: 15,2031           31132                           CA       OPTION2
000143: 15,2032           76214                           MASK     THREE
000144: 15,2033           50000                           INDEX    A
000145: 15,2034           02035                           TC       +1
000146: 15,2035           02041                           TC       P52T                                  #  L.S.
000147: 15,2036           02110                           TC       P52J                                  #  PREF
000148: 15,2037           02041                           TC       P52T                                  #  NOM
000149: 15,2040           12120                           TCF      P52C                                  #  REF
000150: 15,2041           00006        P52T               EXTEND
000151: 15,2042           34714                           DCA      NEG0
000152: 15,2043           53046                           DXCH     DSPTEM1
000153: 15,2044           32155                           CAF      V06N34
000154: 15,2045           04555                           TC       BANKCALL
000155: 15,2046           20624                           CADR     GOFLASH
000156: 15,2047           04106                           TC       GOTOPOOH
000157: 15,2050           02052                           TC       +2
000158: 15,2051           02044                           TC       -5
000159: 15,2052           00006                           EXTEND
000160: 15,2053           31046                           DCA      DSPTEM1
000161: 15,2054           00006                           EXTEND
000162: 15,2055           12057                           BZF      +2
000163: 15,2056           12062                           TCF      +4
000164:
000165: 15,2057           00006                           EXTEND
000166: 15,2060           30025                           DCA      TIME2
000167: 15,2061           53046                           DXCH     DSPTEM1
000168: 15,2062           31132                           CA       OPTION2
000169: 15,2063           74711                           MASK     BIT2
000170: 15,2064           10000                           CCS      A


000172: 15,2065           12073                           TCF      +6                                    #  NOM
000173: 15,2066           06006                           TC       INTPRET                               #  LS
000174: 15,2067           77624                           CALL
000175: 15,2070           34506                                    P52LS
000176: 15,2071           77650                           GOTO
000177: 15,2072           32100                                    P52D
000178: 15,2073           06006                           TC       INTPRET
000179: 15,2074           77745                           DLOAD
000180: 15,2075           01046                                    DSPTEM1
000181: 15,2076           77624                           CALL                                           #  COMPUTE NOMINAL IMU
000182: 15,2077           34636                                    S52.3                                 #   ORIENTATION
000183: 15,2100           77624        P52D               CALL                                           #  READ VEHICLE ATTITUDE AND
000184: 15,2101           22256                                    S52.2                                 #   COMPUTE GIMBAL ANGLES
000185: 15,2102           77776                           EXIT
000186: 15,2103           32156                           CAF      VB06N22
000187: 15,2104           04555                           TC       BANKCALL                              #  DISPLAY GIMBAL ANGLES
000188: 15,2105           20624                           CADR     GOFLASH
000189: 15,2106           04106                           TC       GOTOPOOH
000190: 15,2107           02113                           TC       +4                                    #  PROCEED
000191: 15,2110           06006        P52J               TC       INTPRET                               #  RECYCLE- VEHICLE HAS BEEN MENUEVERED
000192: 15,2111           77650                           GOTO
000193: 15,2112           32100                                    P52D
000194: 15,2113           06006                           TC       INTPRET
000195: 15,2114           77624                           CALL                                           #  DO COARSE ALIGN
000196: 15,2115           30763                                    CAL53A                                #   ROUTINE
000197: 15,2116           77414                           SET      EXIT
000198: 15,2117           01462                                    REFSMFLG
000199: 15,2120           34720        P52C               CAF      ALRM15
000200: 15,2121           04555                           TC       BANKCALL
000201: 15,2122           20751                           CADR     GOPERF1
000202: 15,2123           04106                           TC       GOTOPOOH
000203: 15,2124           02126                           TC       +2                                    #  V33
000204: 15,2125           02140                           TC       P52F                                  #  E
000205: 15,2126           06006                           TC       INTPRET
000206: 15,2127           43234                           RTB      DAD
000207: 15,2130           45505                                    LOADTIME
000208: 15,2131           32176                                    TSIGHT1
000209: 15,2132           77624                           CALL
000210: 15,2133           30216                                    LOCSAM
000211: 15,2134           77776                           EXIT
000212: 15,2135           04555        P52E               TC       BANKCALL                              #  DO STAR SELECTION
000213: 15,2136           30324                           CADR     PICAPAR
000214: 15,2137           02145                           TC       P52I                                  #  2 STARS NOT AVAILABLE
000215: 15,2140           06006        P52F               TC       INTPRET                               #  2 STARS AVAILABLE
000216: 15,2141           77624                           CALL
000217: 15,2142           30523                                    R51
000218: 15,2143           77776        ENDP50S            EXIT
000219: 15,2144           04106                           TC       GOTOPOOH
000220: 15,2145           05537        P52I               TC       ALARM
000221: 15,2146           00405                           OCT      405


000223: 15,2147           34743                           CAF      V05N09
000224: 15,2150           04555                           TC       BANKCALL
000225: 15,2151           20624                           CADR     GOFLASH
000226: 15,2152           04106                           TC       GOTOPOOH
000227: 15,2153           02140                           TC       P52F                                  #  PROCEED - DO FINE ALIGN-R51
000228: 15,2154           02120                           TC       P52C                                  #  RECYCLE- VEHICLE HAS BEEN MANUEVERED
000229: 15,2155           01442        V06N34             VN       00634
000230: 15,2156           01426        VB06N22            VN       00622
000231: 15,2157     4720               ALRM15             EQUALS   OCT15
000232: 16,2000                                           SETLOC   P50S2
000233: 16,2000                                           BANK
000234: 16,2505           01531        V06N89*            VN       0689
000235:                                                                                                  #  NAME-P52LS
000236:                                                                                                  #  FUNCTION - TO DISPLAY THE LANDING SITE LATITUDE,
000237:                                                                                                  #  LONGTITUDE AND ALTITUDE. TO ACCEPT NEW DATA VIA
000238:                                                                                                  #  THE KEYBOARD. TO COMPUTE THE LANDING SITE
000239:                                                                                                  #  ORIENTATION FOR P52 OR P54
000240:
000241:                                                                                                  #  LET:
000242:                                                                                                  #     RLS  = LANDING SITE VECTOR IN REF COORDINATES
000243:                                                                                                  #     R    = CSM POSITION VECTOR IN REF COORDINATES
000244:                                                                                                  #     V    = CSM VELOCITY VECTOR IN REF COORDINATES
000245:                                                                                                  #  THEN THE LANDING SITE ORIENTATION IS:
000246:                                                                                                  #     XSMD = UNIT(RLS)
000247:                                                                                                  #     YSMD = UNIT(ZSMD*XSMD)
000248:                                                                                                  #     ZSMD = UNIT((R*V)*RLS)
000249:                                                                                                  #  CALL -   CALL
000250:                                                                                                  #                  P52LS
000251:                                                                                                  #  INPUTS-  DSPTEM1=TIME OF ALIGNMENT
000252:                                                                                                  #           RLS=LANDING SITE VECTOR IN MOON FIXED COORINATES
000253:                                                                                                  #  OUTPUTS- XSMD,YSMD,ZSMD
000254:                                                                                                  #  SUBROUTINES- RP-TO-R ,LAT-LONG,LLASRD,LLASRDA,CSMPREC
000255:                                                                                                  #  DEBRIS- VAC, SEE SUBROUTINES
000256:
000257: 16,2506           43020        P52LS              STQ      SET
000258: 16,2507           00300                                    QMAJ
000259: 16,2510           01463                                    LUNAFLAG
000260: 16,2511           77745                           DLOAD
000261: 16,2512           01046                                    DSPTEM1
000262: 16,2513           02607                           STORE    TSIGHT
000263: 16,2514           43175                           VLOAD    SET
000264: 16,2515           02026                                    RLS
000265: 16,2516           00462                                    ERADFLAG
000266: 16,2517           14001                           STODL    0D
000267: 16,2520           02607                                    TSIGHT
000268: 16,2521           34007                           STCALL   6D
000269: 16,2522           55341                                    RP-TO-R
000270: 16,2523           77742                           VSR2
000271: 16,2524           16152                           STODL    ALPHAV
000272: 16,2525           02607                                    TSIGHT


000274: 16,2526           77624                           CALL
000275: 16,2527           26322                                    LAT-LONG
000276: 16,2530           77624                           CALL
000277: 16,2531           61336                                    LLASRD
000278: 16,2532           77776                           EXIT
000279: 16,2533           32505        LSDISP             CAF      V06N89*
000280: 16,2534           04555                           TC       BANKCALL
000281: 16,2535           20624                           CADR     GOFLASH
000282: 16,2536           04106                           TC       GOTOPOOH
000283: 16,2537           02541                           TC       +2
000284: 16,2540           02533                           TC       LSDISP
000285: 16,2541           06006                           TC       INTPRET
000286: 16,2542           77624                           CALL
000287: 16,2543           61345                                    LLASRDA
000288: 16,2544           45145                           DLOAD    CALL
000289: 16,2545           02607                                    TSIGHT
000290: 16,2546           26373                                    LALOTORV
000291: 16,2547           53575                           VLOAD    UNIT
000292: 16,2550           02152                                    ALPHAV
000293: 16,2551           14307                           STODL    XSMD
000294: 16,2552           02607                                    TSIGHT
000295: 16,2553           34041                           STCALL   TDEC1
000296: 16,2554           27022                                    CSMPREC
000297: 16,2555           47375                           VLOAD    VXV
000298: 16,2556           00001                                    RATT
000299: 16,2557           00007                                    VATT
000300: 16,2560           53435                           VXV      UNIT
000301: 16,2561           00307                                    XSMD
000302: 16,2562           00323                           STORE    ZSMD
000303: 16,2563           53435                           VXV      UNIT
000304: 16,2564           00307                                    XSMD
000305: 16,2565           34315                           STCALL   YSMD
000306: 16,2566           00300                                    QMAJ
000307: 14,2000                                           SETLOC   P50S1
000308: 14,2000                                           BANK
000309:                                                                                                  #  NAME- AUTOMATIC OPTICS POSITIONING ROUTINE
000310:
000311:                                                                                                  #  FUNCTION- (1) TO POINT THE STAR LOS OF THE OPTICS AT A STAR OR LANDMARK DEFINED BY THE PROGRAM OR BY DSKY INPUT.
000312:                                                                                                  #            (2) TO POINT THE STAR LOS OF THE OPTICS AT THE LEM DURING RENDEZVOUS TRACKING OPERATIONS.
000313:
000314:                                                                                                  #  CALLING SEQUENCE- CALL R52
000315:
000316:                                                                                                  #  INPUT- 1. TARG1FLG AND TARG2FLG- PRESET BY CALLER
000317:                                                                                                  #         2. RNDVZFLG AND TRACKFLG- PRESET BY CALLER
000318:                                                                                                  #         3. STAR CODE- PRESET BY CALLER. ALSO INPUT THROUGH DSKY
000319:                                                                                                  #         4. LAT, LONG AND ALT OF LANDMARK- INPUT THROUGH DSKY
000320:                                                                                                  #         5. NO. OF MARKS(MARKINDX)- PRESET BY CALLER
000321:
000322:                                                                                                  #  OUTPUT-  DRIVE SHAFT AND TRUNNION CDUS
000323:


000325:                                                                                                  #  SUBROUTINES- 1. FIXDELAY        7. CLEANDSP
000326:                                                                                                  #               2. GOPERF1         8. GODSPR
000327:                                                                                                  #               3. GOFLASH         9. REFLASHR
000328:                                                                                                  #               4. R53            10. R52.2
000329:                                                                                                  #               5. ALARM          11. R52.3
000330:                                                                                                  #               6. SR52.1
000331:
000332: 14,2002                                           COUNT    15/R52
000333:
000334: 14,2002           43020        R52                STQ      CLEAR
000335: 14,2003           02576                                    SAVQR52
000336: 14,2004           04265                                    ADVTRK
000337: 14,2005           77776        R52VRB             EXIT
000338: 14,2006           00006                           EXTEND
000339: 14,2007           30036                           DCA      CDUT
000340: 14,2010           53161                           DXCH     DESOPTT
000341: 14,2011           06006                           TC       INTPRET
000342: 14,2012           43131                           SSP      CLEAR
000343: 14,2013           01304                                    OPTIND
000344: 14,2014           00000                                    0
000345: 14,2015           00271                                    R53FLAG
000346: 14,2016           77776                           EXIT
000347: 14,2017           06006        R52A               TC       INTPRET
000348: 14,2020           43014                           SET      BON
000349: 14,2021           00073                                    TRUNFLAG
000350: 14,2022           00705                                    TARG1FLG
000351: 14,2023           30103                                    R52H
000352: 14,2024           77414                           CLEAR    EXIT
000353: 14,2025           03660                                    TERMIFLG
000354: 14,2026           31314        R52C               CA       SWSAMPLE                              #  IS OPTICS MODE IN AGC
000355: 14,2027           00006                           EXTEND
000356: 14,2030           62131                           BZMF     R52M                                  #  MANUAL
000357: 14,2031           04555        R52D               TC       BANKCALL                              #  AGC
000358: 14,2032           26176                           CADR     SR52.1
000359: 14,2033           12161                           TCF      R52L                                  #  GR 90 DEGREES
000360: 14,2034           12124                           TCF      R52J                                  #  GR 50 DEGREES
000361: 14,2035           05435                           TC       UPFLAG                                #  LS 50 DEGREES
000362: 14,2036           00013                           ADRES    TRUNFLAG                              #  SET TRUNFLAG  BIT 4  FLAG 0
000363: 14,2037           34701        R52JA              CAF      BIT10                                 #  IS THIS A LEM
000364: 14,2040           70075                           MASK     STATE      +1
000365: 14,2041           10000                           CCS      A
000366: 14,2042           02052                           TC       R52E                                  #  YES
000367: 14,2043           34705                           CAF      BIT6                                  #  NO, IS R53FLAG SET
000368: 14,2044           70074                           MASK     STATE
000369: 14,2045           10000                           CCS      A
000370: 14,2046           12052                           TCF      R52E                                  #  YES
000371: 14,2047           32151                           CAF      V06N92                                #  NO
000372: 14,2050           04555                           TC       BANKCALL
000373: 14,2051           20602                           CADR     GODSPR
000374: 14,2052           31314        R52E               CA       SWSAMPLE                              #  IS OSS IN CMC MODE


000376: 14,2053           00006                           EXTEND
000377: 14,2054           62065                           BZMF     R52F                                  #  NO
000378: 14,2055           40074                           CS       STATE                                 #  YES- IS TRUNFLAG SET
000379: 14,2056           74707                           MASK     BIT4
000380: 14,2057           10000                           CCS      A
000381: 14,2060           02063                           TC       +3                                    #  NO
000382: 14,2061           31775                           CA       PAC                                   #  YES
000383: 14,2062           55160                           TS       DESOPTT
000384: 14,2063           31773                           CA       SAC
000385: 14,2064           55161                           TS       DESOPTS
000386: 14,2065           34731        R52F               CAF      .5SEC                                 #  WAIT 1/2 SEC
000387: 14,2066           04555                           TC       BANKCALL
000388: 14,2067           01730                           CADR     DELAYJOB
000389: 14,2070           34701                           CAF      BIT10
000390: 14,2071           70075                           MASK     STATE      +1
000391: 14,2072           10000                           CCS      A
000392: 14,2073           12104                           TCF      R52HA                                 #  YES, LEM
000393: 14,2074           34674                           CAF      BIT15                                 #  NO
000394: 14,2075           70103                           MASK     STATE      +7                         #  IS TERMIFLG SET
000395: 14,2076           00006                           EXTEND
000396: 14,2077           12026                           BZF      R52C                                  #  NO
000397: 14,2100           06006        R52Q               TC       INTPRET                               #  YES
000398: 14,2101           77650                           GOTO
000399: 14,2102           02576                                    SAVQR52
000400: 14,2103           77776        R52H               EXIT                                           #  LEM
000401: 14,2104           04555        R52HA              TC       BANKCALL
000402: 14,2105           76536                           CADR     R61CSM
000403: 14,2106           30075                           CA       STATE      +1
000404: 14,2107           74706                           MASK     BIT5
000405: 14,2110           00006                           EXTEND                                         #  TRACKFLG
000406: 14,2111           12100                           BZF      R52Q
000407:
000408: 14,2112           40075                           CS       STATE      +1
000409: 14,2113           74704                           MASK     BIT7                                  #  UPDATFLG
000410: 14,2114           10000                           CCS      A
000411: 14,2115           12122                           TCF      R52SYNC
000412:
000413: 14,2116           30101        R52I               CA       STATE      +5
000414: 14,2117           74701                           MASK     BIT10
000415: 14,2120           10000                           CCS      A
000416: 14,2121           02031                           TC       R52D                                  #  PRFTRKAT = 1
000417: 14,2122           32175        R52SYNC            CAF      1.8SEC                                #  MAKE UP FOR LOST TIME
000418: 14,2123           12066                           TCF      R52F       +1
000419:
000420: 14,2124           05447        R52J               TC       DOWNFLAG                              #  CLEAR TRUNFLAG
000421: 14,2125           00013                           ADRES    TRUNFLAG                              #  BIT 4  FLAG 0
000422: 14,2126           05537                           TC       ALARM                                 #  SET 407 ALARM
000423: 14,2127           00407                           OCT      407
000424: 14,2130           02037                           TC       R52JA
000425: 14,2131           34705        R52M               CAF      BIT6                                  #  IS R53FLAG SET


000427: 14,2132           70074                           MASK     STATE
000428: 14,2133           10000                           CCS      A
000429: 14,2134           02065                           TC       R52F                                  #  YES
000430: 14,2135           00004                           INHINT                                         #  NO
000431: 14,2136           37661                           CAF      PRIO24
000432: 14,2137           05042                           TC       FINDVAC
000433: 14,2140  E5,1773                                  EBANK=   SAC
000434: 14,2140           02144 30065                     2CADR    R53JOB
000435: 14,2142           00003                           RELINT
000436: 14,2143           12065                           TCF      R52F
000437: 14,2144           06006        R53JOB             TC       INTPRET
000438: 14,2145           77624                           CALL
000439: 14,2146           31327                                    R53
000440: 14,2147           77776        ENDPLAC            EXIT                                           #  INTERPRETER RETURN TO ENDOFJOB(R22 USES)
000441: 14,2150           05112                           TC       ENDOFJOB
000442: 14,2151           01534        V06N92             VN       00692
000443: 14,2152           01531        V06N89A            VN       0689
000444: 14,2153           10464 12470  SHAXIS             2DEC     .5376381241 B-1
000445:
000446: 14,2155           00000 00000                     2DEC     0          B-28
000447: 14,2157           15373 11554                     2DEC     .8431766920 B-1
000448: 14,2161           34701        R52L               CAF      BIT10                                 #  IS THIS A LEM
000449: 14,2162           70075                           MASK     STATE      +1
000450: 14,2163           10000                           CCS      A
000451: 14,2164           02124                           TC       R52J                                  #  YES
000452: 14,2165           32174                           CAF      OCT404
000453: 14,2166           04555                           TC       BANKCALL
000454: 14,2167           21671                           CADR     PRIOLARM
000455: 14,2170           12176                           TCF      TERM52                                #  TERMINATE
000456: 14,2171           12065                           TCF      R52F                                  #  PROCEED
000457: 14,2172           12065                           TCF      R52F                                  #  NO PROVISION FOR NEW DATA
000458: 14,2173           15112                           TCF      ENDOFJOB
000459:
000460: 14,2174           00404        OCT404             OCT      404
000461:
000462: 14,2175           00264        1.8SEC             DEC      180        B-14
000463:
000464: 14,2176           05425        TERM52             TC       CLEARMRK
000465:
000466: 14,2177           04555                           TC       BANKCALL                              #  KILL MARK SYSTEM
000467: 14,2200           16063                           CADR     MKRELEAS
000468:
000469: 14,2201           34714                           CAF      ZERO
000470: 14,2202           55323                           TS       OPTCADR
000471:
000472: 14,2203           04555                           TC       BANKCALL                              #  CLEAR OUT EXTENDED VERBS


000474: 14,2204           20464                           CADR     KLEENEX
000475:
000476: 14,2205           04106                           TC       GOTOPOOH                              #  NOW GO TO POO
000477:
000478: 14,2206           43020        ADVORB             STQ      SET                                   #  SETS UP ADVANCED ORBIT TRACKING
000479: 14,2207           02576                                    SAVQR52
000480: 14,2210           04065                                    ADVTRK
000481: 14,2211           43014                           SET      SET
000482: 14,2212           01463                                    LUNAFLAG
000483: 14,2213           00462                                    ERADFLAG
000484: 14,2214           77650                           GOTO
000485: 14,2215           30005                                    R52VRB
000486:


000488:                                                                                                  #  NAME -S50 ALIAS  LOCSAM
000489:                                                                                                  #  NAME- LOCSAM
000490:                                                                                                  #  FUNCTION -TO COMPUTE QUATITIGS LISTED BELOW, USED IN THE
000491:                                                                                                  #            IMU ALIGNMENT PROGRAMS
000492:                                                                                                  #  DEFINE:
000493:                                                                                                  #       RATT=POSITION VECTOR OF CM  WRT PRIMARY BODY
000494:                                                                                                  #       VATT=VELOCITY VECTOR OF CM  WRT PRIMARY BODY
000495:                                                                                                  #       RE  =RADIUS OF EARTH
000496:                                                                                                  #       RM  =RADIUS OF MOON
000497:                                                                                                  #       ECLIPOL= POLE OF ECLIPTIC SCALED BY TANGENTIAL VELOCITY OF EARTH
000498:                                                                                                  #                WRT TO SUN  OVER  THE VELOCITY OF LIGHT
000499:                                                                                                  #       REM =POSITION OF MOON  WRT  EARTH
000500:                                                                                                  #       RES =POSITION OF SUN  WRT EARTH
000501:                                                                                                  #       C = VELOCITY OF LIGHT
000502:
000503:
000504:                                                                                                  #           EARTH IS PRIMARY               MOON IS PRIMARY
000505:                                                                                                  #                   -                              -
000506:                                                                                                  #           VEARTH=-1(RATT)                VEARTH=-1(REM+RATT)
000507:
000508:                                                                                                  #                   -                              -
000509:                                                                                                  #           VMOON = 1(REM-RATT)            VMOON =-1(RATT)
000510:
000511:                                                                                                  #                   -                              -
000512:                                                                                                  #           VSUN  = 1(RES)                 VSUN  = 1(RES-REM)
000513:
000514:                                                                                                  #                         -1
000515:                                                                                                  #           CEARTH=COS(SIN (RE/RATT)+5)    CEARTH=COS 5
000516:
000517:                                                                                                  #                                                       -1
000518:                                                                                                  #           CMOON= COS 5                   CMOON=COS(SIN CRM/RATT)+5)
000519:
000520:
000521:                                                                                                  #           CSUN = COS 15                  CSUN = COS 15
000522:
000523:
000524:                                                                                                  #                        VEL/C = VSUN X ECLIPOL + VATT/C
000525:
000526:
000527:
000528:                                                                                                  #  CALL -   DLOAD  CALL
000529:                                                                                                  #                  DESIRED TIME
000530:                                                                                                  #                  LOCSAM
000531:                                                                                                  #  INPUTS - MPAC = TIME
000532:
000533:                                                                                                  #  OUTPUTS- VEARTH,VMOON,VSUN,CEARTH,CMOON,CSUN,VEL/C
000534:
000535:                                                                                                  #  SUBROUTINES- LSPOS,CSMCONIC
000536:
000537:                                                                                                  #  DEBRIS - VAC AREA,SEE SUBROUTINES
000538:


000540: 14,2000                                           SETLOC   P50S1
000541: 14,2000                                           BANK
000542:
000543: 14,2216                                           COUNT*   $$/S50
000544:
000545: 14,2216  14,2216               LOCSAM             =        S50
000546: 14,2216           77620        S50                STQ
000547: 14,2217           00300                                    QMAJ
000548: 14,2220           36607                           STCALL   TSIGHT
000549: 14,2221           54110                                    LSPOS
000550: 14,2222           26752                           STOVL    VMOON
000551: 14,2223           00003                                    2D
000552: 14,2224           16744                           STODL    VSUN
000553: 14,2225           02607                                    TSIGHT
000554: 14,2226           34041                           STCALL   TDEC1
000555: 14,2227           27045                                    CSMCONIC
000556: 14,2230           61131                           SSP      TIX,2
000557: 14,2231           00052                                    S2
000558: 14,2232           00000                                    0
000559: 14,2233           30256                                    MOONCNTR
000560: 14,2234           52375        EARTCNTR           VLOAD    VSU
000561: 14,2235           02752                                    VMOON
000562: 14,2236           00001                                    RATT
000563: 14,2237           77656                           UNIT
000564: 14,2240           26752                           STOVL    VMOON
000565: 14,2241           00001                                    RATT
000566: 14,2242           57456                           UNIT     VCOMP
000567: 14,2243           16736                           STODL    VEARTH
000568: 14,2244           32162                                    RSUBE
000569: 14,2245           77624                           CALL
000570: 14,2246           30316                                    OCCOS
000571: 14,2247           14017                           STODL    CEARTH
000572: 14,2250           32200                                    CSS5
000573: 14,2251           24023                           STOVL    CMOON
000574: 14,2252           02744                                    VSUN
000575: 14,2253           77656                           UNIT
000576: 14,2254           36744                           STCALL   VSUN
000577: 14,2255           30303                                    ENDSAM
000578: 14,2256           40575        MOONCNTR           VLOAD    VSR8
000579: 14,2257           02752                                    VMOON
000580: 14,2260           51362                           VSR1     BVSU
000581: 14,2261           02744                                    VSUN
000582: 14,2262           77656                           UNIT
000583: 14,2263           26744                           STOVL    VSUN
000584: 14,2264           02752                                    VMOON
000585: 14,2265           53455                           VAD      UNIT
000586: 14,2266           00001                                    RATT
000587: 14,2267           77676                           VCOMP
000588: 14,2270           26736                           STOVL    VEARTH


000590: 14,2271           00001                                    RATT
000591: 14,2272           57456                           UNIT     VCOMP
000592: 14,2273           16752                           STODL    VMOON
000593: 14,2274           32160                                    RSUBM
000594: 14,2275           77624                           CALL
000595: 14,2276           30316                                    OCCOS
000596: 14,2277           14023                           STODL    CMOON
000597: 14,2300           32200                                    CSS5
000598: 14,2301           24017                           STOVL    CEARTH
000599: 14,2302           02744                                    VSUN
000600: 14,2303           77635        ENDSAM             VXV
000601: 14,2304           32170                                    ECLIPOL
000602: 14,2305           27474                           STOVL    VEL/C
000603: 14,2306           00007                                    VATT
000604: 14,2307           53361                           VXSC     VAD
000605: 14,2310           32166                                    1/C
000606: 14,2311           03474                                    VEL/C
000607: 14,2312           17474                           STODL    VEL/C
000608: 14,2313           32202                                    CSSUN
000609: 14,2314           34021                           STCALL   CSUN
000610: 14,2315           00300                                    QMAJ
000611: 14,2316           70471        OCCOS              DDV      SR1
000612: 14,2317           00045                                    36D
000613: 14,2320           43336                           ASIN     DAD
000614: 14,2321           32164                                    5DEGREES
000615: 14,2322           70546                           COS      SR1
000616: 14,2323           77616                           RVQ
000617: 15,2000                                           SETLOC   P50S
000618: 15,2000                                           BANK
000619: 15,2157           00065 01265  RSUBM              2DEC     1738090    B-29                       #  MOON RADIUS IN METERS
000620: 15,2161           00302 24533  RSUBE              2DEC     6378166    B-29
000621: 15,2163           00343 21616  5DEGREES           2DEC     .013888889                            #  SCALED IN REVS
000622: 15,2165           00000 13143  1/C                2DEC     .000042699 B-1                        #  *
000623: 15,2167           00000 00000  ECLIPOL            2DEC     0          B-28                       #  *
000624: 15,2171           77777 53231                     2DEC     -.00007896 B-1                        #  *
000625: 15,2173           00001 17570                     2DEC     .00018209  B-1                        #  *           * FOR USE BY CSM ONLY
000626: 15,2175           00001 16700  TSIGHT1            2DEC     24000      B-28
000627: 15,2177                        CEARTH             =        14D
000628: 15,2177                        CSUN               =        16D
000629: 15,2177                        CMOON              =        18D
000630: 15,2177           07760 14473  CSS5               2DEC     .2490475                              #  (COS 5)/4


000632: 15,2201           07564 15042  CSSUN              2DEC     .24148                                #  COS 15  /4
000633:


000635:                                                                                                  #  PROGRAM NAME - PICAPAR           DATE DEC 20 66
000636:                                                                                                  #  MOD 1                            LOG SECTION P51-P53
000637:                                                                                                  #                                   ASSEMBLY  SUNDISK  REV40
000638:                                                                                                  #  BY KEN VINCENT
000639:
000640:                                                                                                  #  FUNCTION
000641:                                                                                                  #    THIS PROGRAM READ THE IMU-CDUS AND COMPUTES THE VEHICLE ORIENTATION
000642:                                                                                                  #  WITH RESPECT TO INERTIAL SPACE. IT THEN COMPUTES THE SHAFT AXIS (SAX)
000643:                                                                                                  #  WITH RESPECT TO REFERENCE INERTIAL. EACH STAR IN THE CATALOG IS TESTED
000644:                                                                                                  #  TO DETERMINE IF IT IS OCCULTED BY EITHER THE EARTH,SUN OR MOON. IF A
000645:                                                                                                  #  STAR IS NOT OCCULTED  THEN IT IS PAIRED WITH ALL STAR OF LOWER INDEX.
000646:                                                                                                  #  THE PAIRED STAR  IS TESTED FOR OCCULTATION. PAIRS OF STARS THAT PASS
000647:                                                                                                  #  THE OCCULTATION TESTS ARE TESTED FOR GOOD SEPARATION.A PAIR OF STARS
000648:                                                                                                  #  HAVE GOOD SEPARATION IF THE ANGLE BETWEEN THEM IS LESS THAN 66DEGREES
000649:                                                                                                  #  AND MORE THAN 40DEGREES. THOSE PAIRS OF STARS WITH GOOD SEPARATION
000650:                                                                                                  #  ARE THEN TESTED TO SEE IF THEY LIE IN CURRENT FIELD OF VIEW.(WITHIN
000651:                                                                                                  #  33DEGREES OF SAX). THE PAIR WITH MAXIMUM SEPARATION IS CHOSEN FROM
000652:                                                                                                  #  THOSE WITH GOOD SEPARATION,AND     IN FIELD OF VIEW.
000653:
000654:                                                                                                  #  CALLING SEQUENCE
000655:                                                                                                  #  L        TC     BANKCALL
000656:                                                                                                  #  L+1      CADR   PICAPAR
000657:                                                                                                  #  L+2      ERROR RETURN - NO STARS IN FIELD OF VIEW
000658:                                                                                                  #  L+3      NORMAL RETURN
000659:
000660:                                                                                                  #  OUTPUT
000661:                                                                                                  #  BESTI,BESTJ -SINGLE PREC,INTEGERS,STAR NUMBERS TIMES 6
000662:                                                                                                  #  VFLAG - FLAG BIT  SET IMPLIES NO STARS IN FIELD OF VIEW
000663:
000664:                                                                                                  #  INITIALIZATION
000665:                                                                                                  #  1)A CALL TO LOCSAM MUST BE MADE
000666:                                                                                                  #  2)VEARTH = -UNIT(R)  WHERE R HAS BEEN UPDATED TOO APPROXIMATE TIME OF
000667:                                                                                                  #       SIGHTINGS.
000668:
000669:                                                                                                  #  DEBRIS
000670:                                                                                                  #  WORK AREA
000671:                                                                                                  #  X,Y,ZNB
000672:                                                                                                  #  SINCDU,COSCDU
000673:                                                                                                  #  STARAD - STAR +5
000674: 15,2203                                           COUNT    14/PICAP
000675:
000676: 14,2000                                           SETLOC   P50S1
000677: 14,2000                                           BANK
000678: 14,2324           04604        PICAPAR            TC       MAKECADR
000679: 14,2325           55777                           TS       QMIN
000680: 14,2326           06006                           TC       INTPRET
000681: 14,2327           77624                           CALL
000682: 14,2330           47432                                    CDUTRIG
000683: 14,2331           77624                           CALL
000684: 14,2332           34567                                    CALCSMSC


000686: 14,2333           77601                           SETPD
000687: 14,2334           00001                                    0
000688: 14,2335           71214                           SET      DLOAD                                 #  VFLAG = 1
000689: 14,2336           01465                                    VFLAG
000690: 14,2337           11453                                    DPZERO
000691: 14,2340           24303                           STOVL    BESTI
000692: 14,2341           02714                                    XNB
000693: 14,2342           63361                           VXSC     PDVL
000694: 14,2343           30502                                    SIN33
000695: 14,2344           02730                                    ZNB
000696: 14,2345           74370                           AXT,1    VXSC
000697: 14,2346           00344                                    228D                                  #  X1 = 37 X 6 + 6
000698: 14,2347           30504                                    COS33
000699: 14,2350           77655                           VAD
000700: 14,2351           53505                           VXM      UNIT
000701: 14,2352           01736                                    REFSMMAT
000702: 14,2353           02760                           STORE    SAX                                   #  SAX = SHAFT AXIS
000703: 14,2354           66331                           SSP      SSP                                   #  S1=S2=6
000704: 14,2355           00051                                    S1
000705: 14,2356           00006                                    6
000706: 14,2357           00052                                    S2
000707: 14,2360           00006                                    6
000708: 14,2361           52100        PIC1               TIX,1    GOTO                                  #  MAJOR STAR
000709: 14,2362           30364                                    PIC2
000710: 14,2363           30513                                    PICEND
000711: 14,2364           45173        PIC2               VLOAD*   CALL
000712: 14,2365           31751                                    CATLOG,1
000713: 14,2366           30457                                    OCCULT
000714: 14,2367           73014                           BON      LXA,2
000715: 14,2370           01710                                    CULTFLAG
000716: 14,2371           30361                                    PIC1
000717: 14,2372           00046                                    X1
000718: 14,2373           52104        PIC3               TIX,2    GOTO
000719: 14,2374           30376                                    PIC4
000720: 14,2375           30361                                    PIC1
000721: 14,2376           45173        PIC4               VLOAD*   CALL
000722: 14,2377           46026                                    CATLOG,2
000723: 14,2400           30457                                    OCCULT
000724: 14,2401           76614                           BON      VLOAD*
000725: 14,2402           01710                                    CULTFLAG
000726: 14,2403           30373                                    PIC3
000727: 14,2404           31751                                    CATLOG,1
000728: 14,2405           45237                           DOT*     DSU
000729: 14,2406           46026                                    CATLOG,2
000730: 14,2407           30506                                    CSS66                                 #  SEPERATION LESS THAN 66 DEG.
000731: 14,2410           43240                           BMN      DAD
000732: 14,2411           30373                                    PIC3
000733: 14,2412           30510                                    CSS6640                               #  SEPERATION MORE THAN 40 DEG.
000734: 14,2413           77644                           BPL
000735: 14,2414           30373                                    PIC3


000737: 14,2415           50373                           VLOAD*   DOT
000738: 14,2416           31751                                    CATLOG,1
000739: 14,2417           02760                                    SAX
000740: 14,2420           50025                           DSU      BMN                                   #  MAJOR STAR IN CONE
000741: 14,2421           30512                                    CSS33
000742: 14,2422           30361                                    PIC1
000743: 14,2423           50373                           VLOAD*   DOT
000744: 14,2424           46026                                    CATLOG,2
000745: 14,2425           02760                                    SAX
000746: 14,2426           51025                           DSU      BPL
000747: 14,2427           30512                                    CSS33
000748: 14,2430           30433                                    STRATGY
000749: 14,2431           77650                           GOTO
000750: 14,2432           30373                                    PIC3
000751: 14,2433           77614        STRATGY            BONCLR
000752: 14,2434           01605                                    VFLAG
000753: 14,2435           30452                                    NEWPAR
000754: 14,2436           65120                           XCHX,1   XCHX,2
000755: 14,2437           00302                                    BESTI
000756: 14,2440           00303                                    BESTJ
000757: 14,2441           47773        STRAT              VLOAD*   DOT*
000758: 14,2442           31751                                    CATLOG,1
000759: 14,2443           46026                                    CATLOG,2
000760: 14,2444           43006                           PUSH     BOFINV
000761: 14,2445           01545                                    VFLAG
000762: 14,2446           30436                                    STRAT      -3
000763: 14,2447           45345                           DLOAD    DSU
000764: 14,2450           77644                           BPL
000765: 14,2451           30373                                    PIC3
000766: 14,2452           67130        NEWPAR             SXA,1    SXA,2
000767: 14,2453           00302                                    BESTI
000768: 14,2454           00303                                    BESTJ
000769: 14,2455           77650                           GOTO
000770: 14,2456           30373                                    PIC3
000771: 14,2457           51321        OCCULT             MXV      BVSU
000772: 14,2460           02736                                    CULTRIX
000773: 14,2461           00017                                    CSS
000774: 14,2462           77654                           BZE
000775: 14,2463           30476                                    CULTED
000776: 14,2464           75240                           BMN      SIGN
000777: 14,2465           30476                                    CULTED
000778: 14,2466           00160                                    MPAC       +3
000779: 14,2467           75240                           BMN      SIGN
000780: 14,2470           30476                                    CULTED
000781: 14,2471           00162                                    MPAC       +5
000782: 14,2472           43040                           BMN      CLRGO
000783: 14,2473           30476                                    CULTED
000784: 14,2474           01630                                    CULTFLAG
000785: 14,2475           00052                                    QPRET
000786: 14,2476           77614        CULTED             SETGO


000788: 14,2477           01430                                    CULTFLAG
000789: 14,2500           00052                                    QPRET
000790: 14,2501  0000016               CSS                =        CEARTH
000791: 14,2501           21150 25157  SIN33              2DEC     .5376381241
000792: 14,2503           32766 22713  COS33              2DEC     .8431756920
000793: 14,2505           01736 35137  CSS66              2DEC     .060480472                            #  (COS76)/4
000794: 14,2507           73003 65403  CSS6640            2DEC     -.15602587                            #  (COS76 - COS30)/4
000795: 14,2511           06233 26112  CSS33              2DEC     .197002688                            #  COS(1/2(76))/4
000796: 14,2513           77414        PICEND             BOFF     EXIT
000797: 14,2514           01745                                    VFLAG
000798: 14,2515           30517                                    PICGXT
000799: 14,2516           02521                           TC       PICBXT
000800: 14,2517           77776        PICGXT             EXIT
000801: 14,2520           25777                           INCR     QMIN
000802: 14,2521           31777        PICBXT             CA       QMIN
000803: 14,2522           04561                           TC       SWCALL
000804:                                                                                                  # V1             =       12D
000805:


000807:                                                                                                  #  NAME-R51  FINE ALIGN
000808:                                                                                                  #  FUNCTION-TO ALIGN THE STABLE MEMBER TO REFSMMAT
000809:                                                                                                  #  CALLING SEQ- CALL  R51
000810:                                                                                                  #  INPUT- BESTI,BESTJ(PAIR OF STAR NO )
000811:                                                                                                  #  OUTPUT- GYRO TORQUE PULSES
000812:                                                                                                  #  SUBROUTINES- R52,R54,R55(SXTNB,NBSM,AXISGEN
000813: 14,2523                                           COUNT    14/R51
000814:
000815: 14,2523           77776        R51                EXIT
000816: 14,2524           34712                           CAF      BIT1
000817: 14,2525           54304                           TS       STARIND
000818: 14,2526           54301                           TS       MARKINDX
000819: 14,2527           06006        R51.2              TC       INTPRET
000820: 14,2530           43014        R51.3              CLEAR    CLEAR
000821: 14,2531           00666                                    TARG2FLG
000822: 14,2532           00665                                    TARG1FLG
000823: 14,2533           77776                           EXIT
000824: 14,2534           05301                           TC       PHASCHNG
000825: 14,2535           05024                           OCT      05024                                 #  RESTART  GR 4  FOR R52 - R53
000826: 14,2536           13000                           OCT      13000
000827: 14,2537           50304                           INDEX    STARIND
000828: 14,2540           30302                           CA       BESTI
000829: 14,2541           00006                           EXTEND
000830: 14,2542           72706                           MP       1/6TH
000831: 14,2543           54735                           TS       STARCODE
000832: 14,2544           32705                           CAF      V01N70
000833: 14,2545           04555                           TC       BANKCALL
000834: 14,2546           20763                           CADR     GOFLASHR
000835: 14,2547           04106                           TC       GOTOPOOH
000836: 14,2550           02555                           TC       +5
000837: 14,2551           02544                           TC       -5
000838: 14,2552           36211                           CAF      SIX
000839: 14,2553           05415                           TC       BLANKET
000840: 14,2554           15112                           TCF      ENDOFJOB
000841: 14,2555           06006                           TC       INTPRET
000842: 14,2556           45034                           RTB      CALL
000843: 14,2557           45505                                    LOADTIME
000844: 14,2560           32363                                    PLANET
000845: 14,2561           72131                           SSP      LXA,1
000846: 14,2562           00051                                    S1
000847: 14,2563           00000                                    0
000848: 14,2564           00304                                    STARIND
000849: 14,2565           77700                           TIX,1
000850: 14,2566           30571                                    R51ST
000851: 14,2567           36617                           STCALL   STARSAV2                              #  2ND STAR
000852: 14,2570           30572                                    R51ST      +1
000853: 14,2571           02611        R51ST              STORE    STARSAV1                              #  1ST STAR
000854: 14,2572           77776                           EXIT
000855: 14,2573           41011                           CS       MODREG                                #  IS THIS P54
000856: 14,2574           62704                           AD       OCT66


000858: 14,2575           00006                           EXTEND
000859: 14,2576           12677                           BZF      R51B                                  #  YES
000860: 14,2577           06006                           TC       INTPRET
000861: 14,2600           77624                           CALL
000862: 14,2601           30002                                    R52                                   #  AOP WILL MAKE CALLS TO SIGHTING
000863: 14,2602           77624        R51A               CALL                                           #  COMPUTE LOS IN SM FROM MARK DATA
000864: 14,2603           31273                                    SXTSM
000865: 14,2604           02617                           STORE    STARSAV2
000866: 14,2605           77776                           EXIT
000867: 14,2606           04555                           TC       BANKCALL
000868: 14,2607           16063                           CADR     MKRELEAS
000869: 14,2610           06006                           TC       INTPRET
000870: 14,2611           45145                           DLOAD    CALL
000871: 14,2612           02607                                    TSIGHT
000872: 14,2613           32363                                    PLANET
000873: 14,2614           77776                           EXIT
000874: 14,2615           10304                           CCS      STARIND
000875: 14,2616           02664                           TC       R51.4
000876: 14,2617           06006                           TC       INTPRET
000877: 14,2620           53521                           MXV      UNIT
000878: 14,2621           01736                                    REFSMMAT
000879: 14,2622           02736                           STORE    STARAD
000880: 14,2623           77776                           EXIT
000881: 14,2624           05301                           TC       PHASCHNG
000882: 14,2625           05024                           OCT      05024                                 #  RESTART THIS GROUP 4  JOB
000883: 14,2626           13000                           OCT      13000                                 #   WITH PRIORITY  13
000884: 14,2627           06006                           TC       INTPRET
000885: 14,2630           77775                           VLOAD
000886: 14,2631           02617                                    STARSAV2
000887: 14,2632           24007                           STOVL    6D
000888: 14,2633           02611                                    STARSAV1
000889: 14,2634           24015                           STOVL    12D
000890: 14,2635           02601                                    PLANVEC
000891: 14,2636           36744                           STCALL   STARAD     +6
000892: 14,2637           30707                                    R54                                   #  STAR DATA TEST
000893: 14,2640           45014                           BOFF     CALL
000894: 14,2641           00354                                    FREEFLAG
000895: 14,2642           30650                                    R51K
000896: 14,2643           47334                                    AXISGEN
000897: 14,2644           77624                           CALL
000898: 14,2645           32203                                    R55                                   #  GYRO TORQUE
000899: 14,2646           77614                           CLEAR
000900: 14,2647           01273                                    PFRATFLG
000901: 14,2650           77776        R51K               EXIT
000902: 14,2651           35660                           CAF      OCT14
000903: 14,2652           04555                           TC       BANKCALL
000904: 14,2653           20751                           CADR     GOPERF1
000905: 14,2654           04106                           TC       GOTOPOOH
000906: 14,2655           02657                           TC       +2                                    #  V33
000907: 14,2656           02661                           TC       +3


000909: 14,2657           04555                           TC       BANKCALL
000910: 14,2660           32120                           CADR     P52C
000911: 14,2661           06006                           TC       INTPRET
000912: 14,2662           77650                           GOTO
000913: 14,2663           32143                                    ENDP50S
000914: 14,2664           06006        R51.4              TC       INTPRET
000915: 14,2665           53521                           MXV      UNIT
000916: 14,2666           01736                                    REFSMMAT
000917: 14,2667           26601                           STOVL    PLANVEC
000918: 14,2670           02617                                    STARSAV2
000919: 14,2671           02611                           STORE    STARSAV1
000920: 14,2672           77731                           SSP
000921: 14,2673           00305                                    STARIND
000922: 14,2674           00000                                    0
000923: 14,2675           77650                           GOTO
000924: 14,2676           30530                                    R51.3
000925: 14,2677           06006        R51B               TC       INTPRET
000926: 14,2700           77624                           CALL
000927: 14,2701           32252                                    R56
000928: 14,2702           77650                           GOTO
000929: 14,2703           30602                                    R51A
000930: 14,2704           00066        OCT66              OCT      00066
000931: 14,2705           00306        V01N70             VN       0170
000932: 14,2706           05253        1/6TH              DEC      .1666667
000933:


000935:                                                                                                  #  NAME-R55  GYRO TORQUE
000936:                                                                                                  #  FUNCTION-COMPUTE AND SEND GYRO PULSES
000937:                                                                                                  #  CALLING SEQ- CALL R55
000938:                                                                                                  #  INPUT- X,Y,ZDC- REFSMMAT WRT PRESENT STABLE MEMBER
000939:                                                                                                  #  OUTPUT- GYRO PULSES
000940:                                                                                                  #  SUBROUTINES- CALCGTA,GOFLASH,GODSPR,IMUFINE,IMUPULSE,GOPERF1
000941: 15,2000                                           SETLOC   P50S
000942: 15,2000                                           BANK
000943: 15,2203                                           COUNT*   $$/R55
000944: 15,2203           77620        R55                STQ
000945: 15,2204           02777                                    QMIN
000946: 15,2205           77624                           CALL
000947: 15,2206           47140                                    CALCGTA
000948: 15,2207           77776        PULSEM             EXIT
000949: 15,2210           32234        R55.1              CAF      V06N93
000950: 15,2211           04555                           TC       BANKCALL
000951: 15,2212           20624                           CADR     GOFLASH
000952: 15,2213           04106                           TC       GOTOPOOH
000953: 15,2214           02216                           TC       R55.2
000954: 15,2215           02231                           TC       R55RET
000955: 15,2216           05301        R55.2              TC       PHASCHNG
000956: 15,2217           00314                           OCT      00314
000957: 15,2220           32235                           CA       R55CDR
000958: 15,2221           04555                           TC       BANKCALL
000959: 15,2222           17125                           CADR     IMUPULSE
000960: 15,2223           04555                           TC       BANKCALL
000961: 15,2224           17516                           CADR     IMUSTALL
000962: 15,2225           05646                           TC       CURTAINS
000963: 15,2226           05301                           TC       PHASCHNG
000964: 15,2227           05024                           OCT      05024
000965: 15,2230           13000                           OCT      13000
000966: 15,2231           06006        R55RET             TC       INTPRET
000967: 15,2232           77650                           GOTO
000968: 15,2233           02777                                    QMIN
000969: 15,2234           01535        V06N93             VN       0693
000970: 15,2235           02757        R55CDR             ECADR    OGC
000971: 15,2236  14,2707               R54                =        CHKSDATA
000972:                                                                                                  #  ROUTINE NAME- CHKSDATA                                                                 DATE- JAN 9, 1967
000973:                                                                                                  #  MOD NO- 0                                                                              LOG SECTION- P51-P53
000974:                                                                                                  #  MODIFICATION BY- LONSKE                                                                ASSEMBLY-
000975:
000976:                                                                                                  #  FUNCTIONAL DESCRIPTION - CHECKS THE VALIDITY OF A PAIR OF STAR SIGHTINGS. WHEN A PAIR OF STAR SIGHTINGS ARE MADE
000977:                                                                                                  #  BY THE ASTRONAUT THIS ROUTINE OPERATES AND CHECKS THE OBSERVED SIGHTINGS AGAINST STORED STAR VECTORS IN THE
000978:                                                                                                  #  COMPUTER TO INSURE A PROPER SIGHTING WAS MADE. THE FOLLOWING COMPUTATIONS ARE PERFORMED_
000979:
000980:                                                                                                  #                  OS1 = OBSERVED STAR 1 VECTOR
000981:                                                                                                  #                  OS2 = OBSERVED STAR 2 VECTOR
000982:                                                                                                  #                  SS1 = STORED STAR 1 VECTOR
000983:                                                                                                  #                  SS2 = STORED STAR 2 VECTOR
000984:                                                                                                  #                   A1 = ARCCOS(OS1 - OS2)


000986:                                                                                                  #                   A2 = ARCCOS(SS1 - SS2)
000987:                                                                                                  #                    A = ABS(2(A1 - A2))
000988:
000989:                                                                                                  #  THE ANGULAR DIFFERENCE IS DISPLAYED FOR ASTRONAUT ACCEPTENCE
000990:                                                                                                  #  EXIT MODE 1. FREEFLAG SET  IMPLIES  ASTRONAUT WANTS TO PROCEED
000991:                                                                                                  #            2. FREEFLAG RESET IMPLIES ASTRONAUT WANTS TO RECYCLE          ERANCE)
000992:                                                                                                  #  OUTPUT - 1.VERB 6,NOUN 3- DISPLAYS ANGULAR DIFFERENCE BETWEEN 2 SETS OF STARS.
000993:                                                                                                  #           2.STAR VECTORS FROM STAR CATALOG ARE LEFT IN 6D AND 12D.
000994:
000995:                                                                                                  #  ERASABLE INITIALIZATION REQUIRED -
000996:                                                                                                  #           1.MARK VECTORS ARE STORED IN STARAD AND STARAD +6.
000997:                                                                                                  #           2.CATALOG VECTORS ARE STORED IN 6D AND 12D.
000998:                                                                                                  #  DEBRIS -
000999: 14,2000                                           SETLOC   P50S1
001000: 14,2000                                           BANK
001001: 14,2707                                           COUNT*   $$/R50
001002: 14,2707           43020        CHKSDATA           STQ      SET
001003: 14,2710           02777                                    QMIN
001004: 14,2711           00074                                    FREEFLAG
001005: 14,2712           77760        CHKSAB             AXC,1                                          #  SET X1 TO STORE  EPHEMERIS DATA
001006: 14,2713           02735                                    STARAD
001007:
001008: 14,2714           47773        CHKSB              VLOAD*   DOT*                                  #  CAL. ANGLE THETA
001009: 14,2715           00001                                    0,1
001010: 14,2716           00007                                    6,1
001011: 14,2717           65552                           SL1      ACOS
001012: 14,2720           00025                           STORE    THETA
001013: 14,2721           43014                           BOFF     INVERT                                #  BRANCH TO CHKSD IF THIS IS 2ND PASS
001014: 14,2722           00354                                    FREEFLAG
001015: 14,2723           30733                                    CHKSD
001016: 14,2724           00174                                    FREEFLAG                              #  CLEAR FREEFLAG
001017: 14,2725           71360                           AXC,1    DLOAD                                 #  SET X1 TO MARK ANGLES
001018: 14,2726           00006                                    6D
001019: 14,2727           00025                                    THETA
001020: 14,2730           00023                           STORE    18D
001021: 14,2731           77650                           GOTO
001022: 14,2732           30714                                    CHKSB                                 #  RETURN TO CAL. 2ND ANGLE
001023: 14,2733           45345        CHKSD              DLOAD    DSU
001024: 14,2734           00025                                    THETA
001025: 14,2735           00023                                    18D                                   #  COMPUTE POS DIFF
001026: 14,2736           47046                           ABS      RTB
001027: 14,2737           45541                                    SGNAGREE
001028: 14,2740           01046                           STORE    NORMTEM1
001029: 14,2741           77414                           SET      EXIT
001030: 14,2742           00074                                    FREEFLAG
001031: 14,2743           34714                           CAF      ZERO
001032: 14,2744           04555                           TC       BANKCALL
001033: 14,2745           20607                           CADR     CLEANDSP
001034:
001035: 14,2746           32762                           CAF      VB6N5


001037: 14,2747           04555                           TC       BANKCALL
001038: 14,2750           20624                           CADR     GOFLASH
001039: 14,2751           14106                           TCF      GOTOPOOH
001040: 14,2752           02757                           TC       CHKSDA                                #  PROCEED
001041: 14,2753           06006                           TC       INTPRET
001042: 14,2754           52014                           CLEAR    GOTO
001043: 14,2755           00274                                    FREEFLAG
001044: 14,2756           02777                                    QMIN
001045: 14,2757           06006        CHKSDA             TC       INTPRET
001046: 14,2760           77650                           GOTO
001047: 14,2761           02777                                    QMIN
001048: 14,2762           01405        VB6N5              VN       605
001049:                                                                                                  #  NAME - CAL53A
001050:                                                                                                  #  NAME - CAL53A
001051:                                                                                                  #  FUNCTION - COARSE ALIGN THE IMU, IF NECESSARY.
001052:                                                                                                  #  CALLING SEQUENCE - CALL CAL53A
001053:                                                                                                  #  INPUT -  PRESENT GIMBAL ANGLES - CDUX,CDUY,CDUZ
001054:                                                                                                  #          DESIRED GIMBAL ANGLES - THETAD,+1,+2
001055:                                                                                                  #  OUTPUT - THE IMU COORDINATES ARE STORED IN REFSMMAT
001056:                                                                                                  #  SUBROUTINES USED - 1.IMUCOARS 2.IMUSTALL 3.CURTAINS
001057: 14,2763                                           COUNT    14/R50
001058:
001059: 14,2763           45020        CAL53A             STQ      CALL
001060: 14,2764           00035                                    29D
001061: 14,2765           22256                                    S52.2                                 #  MAKE FINAL COMP OF GIMBAL ANGLES
001062: 14,2766           66234                           RTB      SSP
001063: 14,2767           32236                                    RDCDUS                                #  READ CDUS
001064: 14,2770           00051                                    S1
001065: 14,2771           00001                                    1
001066: 14,2772           40370                           AXT,1    SETPD
001067: 14,2773           00003                                    3
001068: 14,2774           00005                                    4
001069: 14,2775           70543        CALOOP             DLOAD*   SR1
001070: 14,2776           01161                                    THETAD     +3D,1
001071: 14,2777           70523                           PDDL*    SR1
001072: 14,3000           00005                                    4,1
001073: 14,3001           51425                           DSU      ABS
001074: 14,3002           45206                           PUSH     DSU
001075: 14,3003           31060                                    DEGREE1
001076: 14,3004           71240                           BMN      DLOAD
001077: 14,3005           31034                                    CALOOP1
001078: 14,3006           51025                           DSU      BPL
001079: 14,3007           31061                                    DEG359
001080: 14,3010           31034                                    CALOOP1
001081: 14,3011           77776        COARFINE           EXIT
001082: 14,3012           04555                           TC       BANKCALL
001083: 14,3013           16602                           CADR     IMUCOARS                              #  PERFORM COARSE ALIGNMENT
001084: 14,3014           04555                           TC       BANKCALL
001085: 14,3015           17516                           CADR     IMUSTALL                              #  REQUEST MODE SWITCH
001086: 14,3016           05646                           TC       CURTAINS


001088: 14,3017           04555                           TC       BANKCALL
001089: 14,3020           17012                           CADR     IMUFIN20
001090: 14,3021           04555                           TC       BANKCALL
001091: 14,3022           17516                           CADR     IMUSTALL
001092: 14,3023           05646                           TC       CURTAINS                              #  TEST FOR MALFUNCTION
001093: 14,3024           06006                           TC       INTPRET
001094: 14,3025           77234                           RTB      VLOAD
001095: 14,3026           31270                                    SET1/PDT
001096: 14,3027           11453                                    ZEROVEC
001097: 14,3030           01472                           STORE    GCOMP
001098: 14,3031           52014                           SET      GOTO
001099: 14,3032           01060                                    DRIFTFLG
001100: 14,3033           31036                                    FINEONLY
001101: 14,3034           77700        CALOOP1            TIX,1
001102: 14,3035           30775                                    CALOOP
001103: 14,3036           75160        FINEONLY           AXC,1    AXC,2
001104: 14,3037           02671                                    XSM
001105: 14,3040           01735                                    REFSMMAT
001106: 14,3041           77624                           CALL
001107: 14,3042           31045                                    MATMOVE
001108: 14,3043           77650                           GOTO
001109: 14,3044           00035                                    29D
001110: 14,3045           77773        MATMOVE            VLOAD*                                         #  TRANSFER MATRIX
001111: 14,3046           00001                                    0,1
001112: 14,3047           10001                           STORE    0,2
001113: 14,3050           77773                           VLOAD*
001114: 14,3051           00007                                    6D,1
001115: 14,3052           10007                           STORE    6D,2
001116: 14,3053           77773                           VLOAD*
001117: 14,3054           00015                                    12D,1
001118: 14,3055           10015                           STORE    12D,2
001119: 14,3056           77616                           RVQ
001120: 14,3057           00056        DEGREE1            DEC      46         B-14
001121: 14,3060           37722        DEG359             DEC      16338      B-14
001122: 15,2000                                           SETLOC   P50S
001123: 15,2000                                           BANK
001124: 15,2236           00004        RDCDUS             INHINT                                         #  READ CDUS
001125: 15,2237           30032                           CA       CDUX
001126: 15,2240           50120                           INDEX    FIXLOC
001127: 15,2241           54001                           TS       1
001128: 15,2242           30033                           CA       CDUY
001129: 15,2243           50120                           INDEX    FIXLOC
001130: 15,2244           54002                           TS       2
001131: 15,2245           30034                           CA       CDUZ
001132: 15,2246           50120                           INDEX    FIXLOC
001133: 15,2247           54003                           TS       3
001134: 15,2250           00003                           RELINT
001135: 15,2251           06030                           TC       DANZIG                                #                                +
001136:                                                                                                  #  NAME - GIMB
001137:                                                                                                  #  FUNCTION - DETERMINE AND COMPUTE THE DESIRED GIMBAL ANGLES TO BE USED            FOR COARSE ALIGNMENT.


001139:                                                                                                  #  CALLING SEQUENCE - CALL GIMB
001140:                                                                                                  #  INPUT - DESIRED IMU INERTIAL ORIENTATION VECTORS-XSMD,YSMD,ZSMD
001141:                                                                                                  #  OUTPUT - GIMBAL ANGLES LEFT IN THETAD,+1,+2                           +
001142:                                                                                                  #  SUBROUTINES USED - 1.CDUTRIG 2.CALCSMSC 3.CALCGA
001143: 16,2000                                           SETLOC   P50S2
001144: 16,2000                                           BANK
001145: 16,2567                                           COUNT    14/INFLT
001146:
001147: 16,2567           41345        CALCSMSC           DLOAD    DMP
001148: 16,2570           00737                                    SINCDUY
001149: 16,2571           00747                                    COSCDUZ
001150: 16,2572           77676                           DCOMP
001151: 16,2573           70525                           PDDL     SR1
001152: 16,2574           00741                                    SINCDUZ
001153: 16,2575           41325                           PDDL     DMP
001154: 16,2576           00745                                    COSCDUY
001155: 16,2577           00747                                    COSCDUZ
001156: 16,2600           76466                           VDEF     VSL1
001157: 16,2601           02714                           STORE    XNB
001158: 16,2602           41345                           DLOAD    DMP
001159: 16,2603           00743                                    SINCDUX
001160: 16,2604           00741                                    SINCDUZ
001161: 16,2605           77752                           SL1
001162: 16,2606           00033                           STORE    26D
001163: 16,2607           77605                           DMP
001164: 16,2610           00737                                    SINCDUY
001165: 16,2611           41325                           PDDL     DMP
001166: 16,2612           00751                                    COSCDUX
001167: 16,2613           00745                                    COSCDUY
001168: 16,2614           77625                           DSU
001169: 16,2615           41325                           PDDL     DMP
001170: 16,2616           00743                                    SINCDUX
001171: 16,2617           00747                                    COSCDUZ
001172: 16,2620           77676                           DCOMP
001173: 16,2621           41325                           PDDL     DMP
001174: 16,2622           00751                                    COSCDUX
001175: 16,2623           00737                                    SINCDUY
001176: 16,2624           41325                           PDDL     DMP
001177: 16,2625           00745                                    COSCDUY
001178: 16,2626           00033                                    26D
001179: 16,2627           55415                           DAD      VDEF
001180: 16,2630           77772                           VSL1
001181: 16,2631           02730                           STORE    ZNB
001182: 16,2632           76435                           VXV      VSL1
001183: 16,2633           02714                                    XNB
001184: 16,2634           02722                           STORE    YNB
001185: 16,2635           77616                           RVQ
001186:                                                                                                  #  NAME - P51 - IMU ORIENTATION DETERMINATION
001187:                                                                                                  #  MOD.NO.2  21 DEC 66                                                                      LOG SECTION - P51-P53
001188:                                                                                                  #  MOD BY STURLAUGSON                                                                       ASSEMBLY SUNDISK REV15


001190:                                                                                                  #  FUNCTIONAL DESCRIPTION
001191:
001192:                                                                                                  #       DETERMINES THE INERTIAL ORIENTATION OF THE IMU. THE PROGRAM IS SELECTED BY DSKY ENTRY. THE SIGHTING
001193:                                                                                                  #  ROUTINE IS CALLED TO COLLECT THE CDU COUNTERS AND SHAFT AND TRUNNION ANGLES FOR A SIGHTED STAR. THE DATA IS
001194:                                                                                                  #  THEN PROCESSED AS FOLLOWS.
001195:
001196:                                                                                                  #    1. SEXTANT ANGLES ARE COMPUTED IN TERMS OF NAVIGATIONAL BASE COORDINATES. LET SA AND TA BE THE SHAFT AND
001197:                                                                                                  #  TRUNNION ANGLES, RESPECTIVELY. THEN,
001198:
001199:                                                                                                  #              -
001200:                                                                                                  #              V  = (SIN(TA)*COS(SA), SIN(TA)*SIN(SA), COS(TA))   (A COLUMN VECTOR)
001201:                                                                                                  #               NB
001202:                                                                                                  #  THE OUTPUT IS A HALF-UNIT VECTOR STORED IN STARM.
001203:
001204:                                                                                                  #    2. THIS VECTOR IN NAV. BASE COORDS. IS THEN TRANSFORMED TO ONE IN STABLE MEMBER COORDINATES.
001205:
001206:                                                                                                  #              -      T  T  T -
001207:                                                                                                  #              V  =  Q *Q *Q *V  , WHERE
001208:                                                                                                  #                     1  2  3  NB
001209:
001210:                                                                                                  #                   ( COS(IG)     0    -SIN(IG) )
001211:                                                                                                  #                   (                           )                            THE GIMBAL ANGLES ARE COMPUTED FROM
001212:                                                                                                  #              Q  = (   0         1        0    ), IG=INNER GIMBAL ANGLE     THE CDU COUNTERS AT NBSM (USING AXIS-
001213:                                                                                                  #               1   (                           )                            ROT AND CDULOGIC)
001214:                                                                                                  #                   ( SIN(IG)     0     COS(IG) )
001215:
001216:
001217:                                                                                                  #                   ( COS(MG)  SIN(MG)     0    )
001218:                                                                                                  #                   (                           )
001219:                                                                                                  #              Q  = (-SIN(MG)  COS(MG)     0    ), MG=MIDDLE GIMBAL ANGLE
001220:                                                                                                  #               2   (                           )
001221:                                                                                                  #                   (   0         0        1    )
001222:
001223:
001224:                                                                                                  #                   (   1         0        0    )
001225:                                                                                                  #                   (                           )
001226:                                                                                                  #              Q  = (    0     COS(OG)  SIN(OG) ), OG=OUTER GIMBAL ANGLE
001227:                                                                                                  #               3   (                           )
001228:                                                                                                  #                   (    0    -SIN(OG)  COS(OG) )
001229:
001230:                                                                                                  #    3. THE STAR NUMBER IS SAVED AND THE SECOND STAR IS THEN SIMILARLY PROCESSED.
001231:
001232:                                                                                                  #    4. THE ANGLE BETWEEN THE TWO STARS IS THEN CHECKED AT CKSDATA.
001233:
001234:                                                                                                  #    5. REFSMMAT IS THEN COMPUTED AT AXISGEN AS FOLLOWS.
001235:                                                                                                  #            -      -
001236:                                                                                                  #        LET S  AND S  BE TWO STAR VECTORS EXPRESSED IN TWO COORDINATE SYSTEMS,A AND B (BASIC AND STABLE MEMBER).
001237:                                                                                                  #             1      2
001238:
001239:                                                                                                  #   DEFINE,    -    -


001241:                                                                                                  #              U  = S
001242:                                                                                                  #               A    A1
001243:
001244:                                                                                                  #              -         -    -
001245:                                                                                                  #              V  = UNIT(S  X S  )
001246:                                                                                                  #               A         A1   A2
001247:
001248:                                                                                                  #              -    -   -
001249:                                                                                                  #              W = U X V
001250:                                                                                                  #               A    A   A
001251:                                                                                                  #       AND
001252:                                                                                                  #              -    -
001253:                                                                                                  #              U  = S
001254:                                                                                                  #               B    B1
001255:
001256:                                                                                                  #              -         -    -
001257:                                                                                                  #              V  = UNIT(S  X S  )
001258:                                                                                                  #               B         B1   B2
001259:
001260:                                                                                                  #              -    -   -
001261:                                                                                                  #              W  = U X V
001262:                                                                                                  #               B    B   B
001263:
001264:                                                                                                  #       THEN   -        -       -       -
001265:                                                                                                  #              X  = U  *U + V  *V + W  *W
001266:                                                                                                  #                    B1  A   B1  A   B1  A
001267:
001268:                                                                                                  #              -        -       -       -            (REFSMMAT)
001269:                                                                                                  #              Y  = U  *U + V  *V + W  *W
001270:                                                                                                  #                    B2  A   B2  A   B2  A
001271:
001272:                                                                                                  #              -        -       -       -
001273:                                                                                                  #              Z  = U  *U + V  *V + W  *W
001274:                                                                                                  #                    B3  A   B3  A   B3  A
001275:
001276:                                                                                                  #        THE INPUTS CONSIST OF THE FOUR HALF-UNIT VECTORS STORED AS FOLLOWS
001277:
001278:                                                                                                  #              -
001279:                                                                                                  #              S   IN 6-11 OF THE VAC AREA
001280:                                                                                                  #               A1
001281:
001282:                                                                                                  #              -
001283:                                                                                                  #              S   IN 12-17 OF THE VAC AREA
001284:                                                                                                  #               A2
001285:
001286:                                                                                                  #              -
001287:                                                                                                  #              S   IN STARAD
001288:                                                                                                  #               B1
001289:
001290:                                                                                                  #              -


001292:                                                                                                  #              S   IN STARAD +6
001293:                                                                                                  #               B2
001294:
001295:                                                                                                  #  CALLING SEQUENCE
001296:
001297:                                                                                                  #    THE PROGRAM IS CALLED BY THE ASTRONAUT BY DSKY ENTRY.
001298:
001299:                                                                                                  #  SUBROUTINES CALLED.
001300:
001301:                                                                                                  #       GOPERF3
001302:                                                                                                  #       GOPERF1R
001303:                                                                                                  #       GODSPR
001304:                                                                                                  #       IMUCOARS
001305:                                                                                                  #       IMUFIN20
001306:                                                                                                  #       R53
001307:                                                                                                  #       SXTNB
001308:                                                                                                  #       NBSM
001309:                                                                                                  #       MKRELEAS
001310:                                                                                                  #       CHKSDATA
001311:                                                                                                  #       MATMOVE
001312:
001313:                                                                                                  #  ALARMS
001314:
001315:                                                                                                  #       NONE.
001316:                                                                                                  #  ERASABLE INITIALIZATION
001317:
001318:                                                                                                  #       IMU ZERO FLAG SHOULD BE SET.
001319:
001320:                                                                                                  #  OUTPUT
001321:
001322:                                                                                                  #       REFSMMAT
001323:                                                                                                  #       REFSMFLG
001324:
001325:                                                                                                  #  DEBRIS
001326:
001327:                                                                                                  #       WORK AREA
001328:                                                                                                  #       STARAD
001329:                                                                                                  #       STARIND
001330:                                                                                                  #       BESTI
001331:                                                                                                  #       BESTJ
001332:
001333: 14,2000                                           SETLOC   P50S1
001334: 14,2000                                           BANK
001335: 14,3061                                           COUNT    14/P5153
001336:
001337: 14,3061  14,3061               P53                EQUALS   P51
001338: 14,3061           41320        P51                CS       IMODES30
001339: 14,3062           74702                           MASK     BIT9
001340: 14,3063           10000                           CCS      A
001341: 14,3064           03070                           TC       P51A


001343: 14,3065           05537                           TC       ALARM
001344: 14,3066           00210                           OCT      210
001345: 14,3067           04106                           TC       GOTOPOOH
001346: 14,3070           04555        P51A               TC       BANKCALL
001347: 14,3071           17607                           CADR     R02ZERO
001348:
001349: 14,3072           34720        P51AA              CAF      PRFMSTAQ
001350: 14,3073           04555                           TC       BANKCALL
001351: 14,3074           20751                           CADR     GOPERF1
001352: 14,3075           04106                           TC       GOTOPOOH                              #  TERM.
001353: 14,3076           03141                           TC       P51B                                  #  V 33
001354: 14,3077           05301                           TC       PHASCHNG
001355: 14,3100           05024                           OCT      05024
001356: 14,3101           13000                           OCT      13000
001357: 14,3102           34714                           CAF      P51ZERO
001358: 14,3103           55155                           TS       THETAD                                #  ZERO THE GIMBALS
001359: 14,3104           55156                           TS       THETAD     +1
001360: 14,3105           55157                           TS       THETAD     +2
001361: 14,3106           33266                           CAF      V6N22
001362: 14,3107           04555                           TC       BANKCALL
001363: 14,3110           20577                           CADR     GODSPRET
001364: 14,3111           33267                           CAF      V41K                                  #  NOW DISPLAY COARSE ALIGN VERB 41
001365: 14,3112           04555                           TC       BANKCALL
001366: 14,3113           20577                           CADR     GODSPRET
001367: 14,3114           04555                           TC       BANKCALL
001368: 14,3115           16602                           CADR     IMUCOARS
001369: 14,3116           04555                           TC       BANKCALL
001370: 14,3117           17516                           CADR     IMUSTALL
001371: 14,3120           05646                           TC       CURTAINS                              #  CAGING OR BAD END
001372: 14,3121           04555                           TC       BANKCALL                              #  SCHEDULE IFAILOK AND IMUFINED TASKS,IN 5
001373: 14,3122           17012                           CADR     IMUFIN20                              #  AND 20 SECS. DIRECT RETURN AND NO STALL,
001374: 14,3123           04555                           TC       BANKCALL                              #  IF CAGING, BUT T4 WILL ZERO C/A ENABLE.
001375: 14,3124           17516                           CADR     IMUSTALL                              #  IF PUT TO SLEEP, IMUFINED WILL WAKE US
001376: 14,3125           05646                           TC       CURTAINS                              #  UP.
001377: 14,3126           06006                           TC       INTPRET
001378: 14,3127           77234                           RTB      VLOAD
001379: 14,3130           31270                                    SET1/PDT
001380: 14,3131           11453                                    ZEROVEC
001381: 14,3132           01472                           STORE    GCOMP
001382: 14,3133           77414                           SET      EXIT
001383: 14,3134           01060                                    DRIFTFLG
001384: 14,3135           05301                           TC       PHASCHNG
001385: 14,3136           05024                           OCT      05024
001386: 14,3137           13000                           OCT      13000
001387: 14,3140           13072                           TCF      P51AA                                 #  COARSE ALIGN DONE - RECYCLE FOR FINE


001389:                                                                                                  #     DO STAR SIGHTING AND COMPUTE NEW REFSMMAT
001390:
001391: 14,3141           05301        P51B               TC       PHASCHNG
001392: 14,3142           00014                           OCT      00014
001393: 14,3143           06006                           TC       INTPRET
001394: 14,3144           40331                           SSP      SETPD
001395: 14,3145           00305                                    STARIND                               #  INDEX-STAR 1 OR 2
001396: 14,3146           00000                                    0
001397: 14,3147           00001                                    0
001398: 14,3150           77414                           CLEAR    EXIT
001399: 14,3151           00666                                    TARG2FLG                              #  SHOW STAR MARK-NOT LAND MARK
001400: 14,3152           34712                           CAF      BIT1
001401: 14,3153           54301                           TS       MARKINDX                              #  INITIALIZE FOR ONE MARK
001402:
001403: 14,3154           05301        P51C               TC       PHASCHNG
001404: 14,3155           05024                           OCT      05024
001405: 14,3156           13000                           OCT      13000
001406: 14,3157           05253                           TC       CHECKMM
001407: 14,3160           00065                           MM       53         B-14                       #  BACKUP PROGRAM
001408: 14,3161           13167                           TCF      P51C.1                                #  NOT P53
001409: 14,3162           06006                           TC       INTPRET
001410: 14,3163           77624                           CALL
001411: 14,3164           32252                                    R56
001412: 14,3165           77650                           GOTO
001413: 14,3166           31172                                    P51C.2
001414: 14,3167           06006        P51C.1             TC       INTPRET
001415: 14,3170           77624                           CALL
001416: 14,3171           31327                                    R53                                   #  SIGHTING ROUTINE
001417: 14,3172           77624        P51C.2             CALL                                           #  COMPUTE LOS IN SM FROM MARK DATA
001418: 14,3173           31273                                    SXTSM
001419: 14,3174           77606                           PUSH
001420: 14,3175           53135                           SLOAD    BZE
001421: 14,3176           00305                                    STARIND
001422: 14,3177           31204                                    P51D
001423: 14,3200           45575                           VLOAD    STADR
001424: 14,3201           75160                           STORE    STARSAV2                              #  DOWNLINK
001425: 14,3202           77650                           GOTO
001426: 14,3203           31212                                    P51E
001427: 14,3204           45575        P51D               VLOAD    STADR
001428: 14,3205           61166                           STODL    STARSAV1
001429: 14,3206           02607                                    TSIGHT
001430: 14,3207           77624                           CALL
001431: 14,3210           32363                                    PLANET
001432: 14,3211           02601                           STORE    PLANVEC
001433: 14,3212           77776        P51E               EXIT
001434: 14,3213           05301                           TC       PHASCHNG
001435: 14,3214           05024                           OCT      05024
001436: 14,3215           13000                           OCT      13000
001437: 14,3216           04555                           TC       BANKCALL
001438: 14,3217           16063                           CADR     MKRELEAS                              #  ZERO MARKSTAT


001440: 14,3220           10304                           CCS      STARIND
001441: 14,3221           13230                           TCF      P51F                                  #  STAR 2
001442: 14,3222           05301                           TC       PHASCHNG
001443: 14,3223           05024                           OCT      05024
001444: 14,3224           13000                           OCT      13000
001445: 14,3225           34712                           CAF      BIT1
001446: 14,3226           54304                           TS       STARIND
001447: 14,3227           13154                           TCF      P51C                                  #  GO DO SECOND STAR
001448: 14,3230           05301        P51F               TC       PHASCHNG
001449: 14,3231           05024                           OCT      05024
001450: 14,3232           13000                           OCT      13000
001451: 14,3233           06006                           TC       INTPRET
001452: 14,3234           45145                           DLOAD    CALL
001453: 14,3235           02607                                    TSIGHT
001454: 14,3236           32363                                    PLANET
001455: 14,3237           24015                           STOVL    12D
001456: 14,3240           02601                                    PLANVEC
001457: 14,3241           24007                           STOVL    6D
001458: 14,3242           02611                                    STARSAV1
001459: 14,3243           26736                           STOVL    STARAD
001460: 14,3244           02617                                    STARSAV2
001461: 14,3245           36744                           STCALL   STARAD     +6
001462: 14,3246           30707                                    CHKSDATA                              #  CHECK STAR ANGLES IN STARAD AND
001463: 14,3247           77414                           BON      EXIT
001464: 14,3250           00314                                    FREEFLAG
001465: 14,3251           31253                                    P51G
001466: 14,3252           03072                           TC       P51AA
001467: 14,3253           77624        P51G               CALL
001468: 14,3254           47334                                    AXISGEN                               #  COME BACK WITH REFSMMAT IN XDC
001469: 14,3255           75160                           AXC,1    AXC,2
001470: 14,3256           02713                                    XDC
001471: 14,3257           01735                                    REFSMMAT
001472: 14,3260           45014                           CLEAR    CALL
001473: 14,3261           01662                                    REFSMFLG
001474: 14,3262           31045                                    MATMOVE
001475: 14,3263           52014                           SET      GOTO
001476: 14,3264           01462                                    REFSMFLG
001477: 14,3265           32143                                    ENDP50S
001478: 14,3266     4720               PRFMSTAQ           =        OCT15
001479: 14,3266     4714               P51ZERO            =        ZERO
001480: 14,3266     4715               P51FIVE            =        FIVE
001481: 14,3266           01426        V6N22              VN       0622
001482: 14,3267           12200        V41K               VN       4100
001483: 14,3270           30025        SET1/PDT           CA       TIME1
001484: 14,3271           55074                           TS       1/PIPADT
001485: 14,3272           16030                           TCF      DANZIG
001486:


001488:                                                                                                  #     SXTSM COMPUTES AN LOS VECTOR IN SM COORD FROM OCDU AND ICDU MARK DATA
001489:
001490: 14,3273           77620        SXTSM              STQ
001491: 14,3274           00300                                    QMAJ
001492: 14,3275           70740                           LXC,1    DLOAD*
001493: 14,3276           01330                                    MARKSTAT
001494: 14,3277           00001                                    0D,1
001495: 14,3300           02607                           STORE    TSIGHT
001496: 14,3301           66764                           AXC,2    SLOAD*
001497: 14,3302           00304                                    STARIND
001498: 14,3303           46451                                    MKDNCDR,2
001499: 14,3304           76764                           AXC,2    VLOAD*
001500: 14,3305           00154                                    MPAC
001501: 14,3306           00001                                    0,1
001502: 14,3307           10001                           STORE    0,2
001503: 14,3310           77743                           DLOAD*
001504: 14,3311           00006                                    5,1
001505: 14,3312           10006                           STORE    5,2
001506: 14,3313           77624                           CALL
001507: 14,3314           46000                                    SXTNB                                 #  COMPUTE LOS VECTOR FROM OCDU IN MKVAC
001508: 14,3315           62150                           LXA,1    INCR,1
001509: 14,3316           01330                                    MARKSTAT
001510: 14,3317           00002                                    2                                     #  INCREMENT TO BASE ADR OF ICDU
001511: 14,3320           45130                           SXA,1    CALL
001512: 14,3321           00050                                    S1
001513: 14,3322           47541                                    NBSM                                  #  TRANSFORM LOS TO SM
001514: 14,3323           77650                           GOTO
001515: 14,3324           00300                                    QMAJ
001516: 14,3325           03674        MKDNCDR            ECADR    MARKDOWN
001517: 14,3326           03502                           ECADR    MARK2DWN
001518:


001520:                                                                                                  #  PROGRAM DESCRIPTION - R53 - SIGHTING MARK ROUTINE
001521:                                                                                                  #  MOD.NO.2  21 DEC 66
001522:                                                                                                  #  MOD BY STURLAUGSON
001523:
001524:                                                                                                  #  FUNCTIONAL DESCRIPTION
001525:                                                                                                  #          TO PERFORM A SATISFACTORY NUMBER OF SIGHTING MARKS FOR THE REQUESTING PROGRAM (OR ROUTINE). SIGHTINGS
001526:                                                                                                  #  CAN BE MADE ON A STAR OR LANDMARK. WHEN THE CMC ACCEPTS A MARK IT RECORDS AND STORES 5 ANGLES (3 ICDUS AND 2
001527:                                                                                                  #  OCDUS) AND THE TIME OF THE MARK.
001528:
001529:                                                                                                  #  CALLING SEQUENCE
001530:                                                                                                  #    R53 IS CALLED AND RETURNS IN INTERPRETIVE CODE. RETURN IS VIA QPRET.
001531:                                                                                                  #    THERE IS NO ERROR EXIT IN THIS ROUTINE ITSELF.
001532:
001533:                                                                                                  #  SUBROUTINES CALLED
001534:                                                                                                  #    SXTMARK
001535:                                                                                                  #    OPTSTALL
001536:                                                                                                  #    GOFLASH
001537:
001538:                                                                                                  #  ERASABLE INITIALIZATION
001539:                                                                                                  #    TARGET FLAG - STAR OR LANDMARK
001540:                                                                                                  #    MARKINDX - NUMBER OF MARKS WANTED
001541:                                                                                                  #    STARIND - INDEX TO BESTI OR BESTJ (STAR NUMBER)
001542:                                                                                                  #  OUTPUT
001543:                                                                                                  #    MARKSTAT CONTAINS INDEX TO VACANT AREA WHERE MARK DATA IS STORED
001544:                                                                                                  #    BESTI (INDEXED BY STARIND) CONTAINS STAR NUMBER SIGHTED
001545:                                                                                                  #  DEBRIS
001546:                                                                                                  #    MARKINDX CONTAINS NUMBER OF MARKS DESIRED
001547: 14,2000                                           SETLOC   RT53
001548: 14,2000                                           BANK
001549:
001550: 14,3327                                           COUNT    14/R53
001551:
001552: 14,3327           43020        R53                STQ      SET                                   #  SET SIGHTING MARK FLAG
001553: 14,3330           03501                                    R53EXIT
001554: 14,3331           00071                                    R53FLAG
001555: 14,3332           77776                           EXIT
001556: 14,3333           30301        R53A               CA       MARKINDX                              #  NUMBER OF MARKS
001557: 14,3334           74716                           MASK     LOW3
001558: 14,3335           04555                           TC       BANKCALL
001559: 14,3336           16002                           CADR     SXTMARK
001560: 14,3337           04555                           TC       BANKCALL
001561: 14,3340           17512                           CADR     OPTSTALL
001562: 14,3341           05646                           TC       CURTAINS
001563: 14,3342           51330                           INDEX    MARKSTAT
001564: 14,3343           10052                           CCS      QPRET                                 #  NUMBER OF MARKS ACTUALLY DONE
001565: 14,3344           13355                           TCF      R53B
001566: 14,3345           13347                           TCF      +2                                    #  ZERO
001567: 14,3346           13347                           TCF      +1                                    #  CCS HOLE
001568: 14,3347           34714                           CAF      ZERO                                  #  HOUSEKEEP VAC AREA SAVE
001569: 14,3350           57330                           XCH      MARKSTAT                              #   AND MARKSTAT


001571: 14,3351           10000                           CCS      A
001572: 14,3352           50000                           INDEX    A
001573: 14,3353           54000                           TS       0
001574: 14,3354           13333                           TCF      R53A
001575: 14,3355           05253        R53B               TC       CHECKMM
001576: 14,3356           00026                           MM       22         B-14
001577: 14,3357           13361                           TCF      +2
001578: 14,3360           13405                           TCF      R53D
001579: 14,3361           05253                           TC       CHECKMM
001580: 14,3362           00027                           MM       23         B-14
001581: 14,3363           13365                           TCF      R53C
001582: 14,3364           13405                           TCF      R53D
001583: 14,3365           33411        R53C               CAF      V01N71
001584: 14,3366           04555                           TC       BANKCALL
001585: 14,3367           20763                           CADR     GOFLASHR
001586: 14,3370           04106                           TC       GOTOPOOH                              #  TERM.
001587: 14,3371           13376                           TCF      R53Z
001588: 14,3372           03365                           TC       R53C                                  #  RECYCLE
001589: 14,3373           36211                           CAF      SIX
001590: 14,3374           05415                           TC       BLANKET
001591: 14,3375           05112                           TC       ENDOFJOB
001592: 14,3376           47713        R53Z               CS       HIGH9
001593: 14,3377           70735                           MASK     STARCODE
001594: 14,3400           00006                           EXTEND
001595: 14,3401           76211                           MP       SIGHTSIX
001596: 14,3402           56001                           XCH      L
001597: 14,3403           50304                           INDEX    STARIND
001598: 14,3404           54302                           TS       BESTI
001599: 14,3405           06006        R53D               TC       INTPRET
001600: 14,3406           77614        R53OUT             SETGO
001601: 14,3407           03420                                    TERMIFLG                              #  SET TERMINATE FOR R52
001602: 14,3410           03501                                    R53EXIT
001603: 14,3411     6211               SIGHTSIX           =        SIX
001604: 14,3411           00307        V01N71             VN       0171
001605:


001607:                                                                                                  #  NAME-S52.2
001608:                                                                                                  #  FUNCTION-COMPUTE GIMBAL ANGLES FOR DESIRED SM AND PRESENT VEHICLE
001609:                                                                                                  #  CALL-  CALL  S52.2
001610:                                                                                                  #  INPUT- X,Y,ZSMD
001611:                                                                                                  #  OUTPUT- OGC,IGC,MGC,THETAD,+1,+2
001612:                                                                                                  #  SUBROUTINES-CDUTRIG,CALCSMSC,MATMOVE,CALCGA
001613: 11,2000                                           SETLOC   S52/2
001614: 11,2000                                           BANK
001615:
001616: 11,2256                                           COUNT    13/S52.2
001617: 11,2256           77620        S52.2              STQ
001618: 11,2257           00300                                    QMAJ
001619: 11,2260           77624                           CALL
001620: 11,2261           47432                                    CDUTRIG
001621: 11,2262           77624                           CALL
001622: 11,2263           34567                                    CALCSMSC
001623: 11,2264           66370                           AXT,1    SSP
001624: 11,2265           00022                                    18D
001625: 11,2266           00051                                    S1
001626: 11,2267           00006                                    6D
001627: 11,2270           61373        S52.2A             VLOAD*   VXM
001628: 11,2271           02736                                    XNB        +18D,1
001629: 11,2272           01736                                    REFSMMAT
001630: 11,2273           77656                           UNIT
001631: 11,2274           06736                           STORE    XNB        +18D,1
001632: 11,2275           77700                           TIX,1
001633: 11,2276           22270                                    S52.2A
001634: 11,2277           75160        S52.2.1            AXC,1    AXC,2
001635: 11,2300           00306                                    XSMD
001636: 11,2301           02671                                    XSM
001637: 11,2302           77624                           CALL
001638: 11,2303           31045                                    MATMOVE
001639: 11,2304           77624                           CALL
001640: 11,2305           47244                                    CALCGA
001641: 11,2306           77650                           GOTO
001642: 11,2307           00300                                    QMAJ
001643:


001645:                                                                                                  #  PROGRAM NAME - SR52.1           DATE DEC 20  66
001646:                                                                                                  #  MOD 1                           LOG SEC  P51-P53
001647:                                                                                                  #  BY  KEN VINCENT                 ASSEMBLY  SUNDISK REV 40
001648:
001649:                                                                                                  #  FUNCTION
001650:                                                                                                  #   TARG1 AND TARG2 FLAGS ARE LOOKED AT TO DETERMINE IF THE TARGET IS THE
001651:                                                                                                  #   LEM, STAR OR LANDMARK. IN CASE OF LEM OR LMK,THE PRESENT TIME PLUS
001652:                                                                                                  #   2 SECONDS IS SAVED IN AOPTIME (ALIAS STARAD ,+1 ). IF THE LEM IS
001653:                                                                                                  #   THE TARGET  THEN CONIC UPDATES     OF THE CSM AND LEM ARE MADE TO
001654:                                                                                                  #   THE TIME IN AOPTIME. THE UNIT OF THE DIFFERENCE OF LEM AND CSM
001655:                                                                                                  #   POSITION VECTORS BECOMES THE REFERENCE SIGHTING VECTOR  USED IN THE
001656:                                                                                                  #   COMMON PART OF THIS PROGRAM.
001657:                                                                                                  #   IN THE CASE OF LANDMARK, THE CSM IS UPDATED CONICALLY. THE RADIUS
001658:                                                                                                  #   VECTOR FOR THE LANDMARK IS OBTAINED FROM LALOTORV. BOTH OF THESE ARE
001659:                                                                                                  #   FOUND FOR THE TIME IN AOPTIME. THE UNIT OF THE DIFFERENCE BETWEEN
001660:                                                                                                  #   THE LANDMARK AND CSM RADIUS VECTORS BECOMES THE REFERENCE SIGHTING
001661:                                                                                                  #   VECTOR FOR THE COMMON PART OF THIS ROUTINE.
001662:                                                                                                  #   IF A STAR IS THE TARGET, THE PROPER STAR IS OBTAINED FROM THE CATALOG
001663:                                                                                                  #   AND THIS VECTOR BECOMES THE REFERENCE SIGHTING VECTOR.
001664:                                                                                                  #   THE COMMON PART OF THIS PROGRAM  TRANSFORMS THE REFERENCE SIGHTING
001665:                                                                                                  #   VECTOR INTO STABLE MEMBER COORDINATES. IT READS THE IMU-CDUS AND USES
001666:                                                                                                  #   THIS DATA IN A CALL TO CALCSXA. ON RETURN FROM CALCSXA A TEST IS
001667:                                                                                                  #   MADE TO SEE IF THE TRUNNION ANGLE IS GREATER THAN  90DEG OR 38DEG.
001668:                                                                                                  #   MADE TO SEE IF THE TRUNNION ANGLE IS GREATER THAN 90DEG. OR 50DEG.
001669:
001670:                                                                                                  #  CALLING SEQUENCE
001671:                                                                                                  #  L+4      RETURN WHEN SHAFT OR TRUNION NOT WITHIN 5DEG OF DESIRED
001672:                                                                                                  #  L        TC     BANKCALL
001673:                                                                                                  #  L+1      CADR   SR52.1
001674:                                                                                                  #  L+2      ERROR RETURN   TRUNNION GREATER THAN 90 DEG
001675:                                                                                                  #  L&3      ERROR RETURN   TRUNNION GREATER THAN 50 DEG
001676:                                                                                                  #  L+4      NORMAL RETURN
001677:
001678:                                                                                                  #  OUTPUT
001679:                                                                                                  #  SAC -SINGLE PREC,2S COMP,SCALED AT HALF REVS- SHAFT ANGLE DESIRED
001680:                                                                                                  #  PAC -SINGLE PREC,2S COMP SCALED AT EIGTH REVS - TRUNNION ANGLE DESIRED
001681:
001682:                                                                                                  #  INITIALIZATION
001683:                                                                                                  #  IF TARG1FLG =1 THEN TARGET IS LEM -NO OTHER INPUT REQUIRED
001684:                                                                                                  #  IF TARG1FLG =0 AND TARG2FLG =0 THE TARGET IS STAR, STARIND SHOULD
001685:                                                                                                  #  0 OR 1 DENOTING BESTI OR BESTJ RESPECTIVELY AS STAR CODE. STAR CODES
001686:                                                                                                  #  ARE 6 TIMES STAR NUMBER.
001687:                                                                                                  #  IF TARG1FLG =0 AND TARG2FLG =1 THEN TARGET IS LANDMARK. SEE ROUTINE
001688:                                                                                                  #  LALOTORV FOR INPUT REQUIREMENTS. HERE FIXERAD=1 FOR CONSTANT EARTH
001689:                                                                                                  #  RADIUS
001690:
001691:                                                                                                  #  DEBRIS
001692:                                                                                                  #   WORK AREA
001693:                                                                                                  #   STARAD - STAR+5 (STAR IS DESIRED LOS IN STABLE MEMBER COORDINATES)
001694: 11,2310                                           COUNT*   $$/SR521


001696: 13,2000                                           SETLOC   SR52/1
001697: 13,2000                                           BANK
001698:
001699: 13,2176           04604        SR52.1             TC       MAKECADR
001700: 13,2177           55777                           TS       QMIN
001701: 13,2200           06006                           TC       INTPRET
001702: 13,2201           43234                           RTB      DAD
001703: 13,2202           45505                                    LOADTIME
001704: 13,2203           26317                                    1.3SECDP
001705: 13,2204           02356                           STORE    AOPTIME
001706: 13,2205           43014                           BON      BON
001707: 13,2206           00705                                    TARG1FLG
001708: 13,2207           26214                                    LEM52
001709: 13,2210           00706                                    TARG2FLG
001710: 13,2211           26224                                    LMK52
001711: 13,2212           77650                           GOTO
001712: 13,2213           26245                                    STAR52
001713: 13,2214           77745        LEM52              DLOAD
001714: 13,2215           02356                                    AOPTIME
001715: 13,2216           34041                           STCALL   TDEC1
001716: 13,2217           27057                                    LEMCONIC
001717: 13,2220           77775                           VLOAD
001718: 13,2221           00001                                    RATT
001719: 13,2222           77650                           GOTO
001720: 13,2223           26234                                    LMKLMCOM
001721: 13,2224           71214        LMK52              BON      DLOAD
001722: 13,2225           04305                                    ADVTRK
001723: 13,2226           54000                                    ADVTRACK
001724: 13,2227           02356                                    AOPTIME
001725: 13,2230           77624                           CALL
001726: 13,2231           26373                                    LALOTORV
001727: 13,2232           77775                           VLOAD
001728: 13,2233           02152                                    ALPHAV
001729: 13,2234           16766        LMKLMCOM           STODL    STAR
001730: 13,2235           02356                                    AOPTIME
001731: 13,2236           34041                           STCALL   TDEC1
001732: 13,2237           27045                                    CSMCONIC
001733: 13,2240           52375                           VLOAD    VSU
001734: 13,2241           02766                                    STAR
001735: 13,2242           00001                                    RATT
001736: 13,2243           52056                           UNIT     GOTO
001737: 13,2244           26260                                    COM52
001738: 13,2245           72131        STAR52             SSP      LXA,1
001739: 13,2246           00051                                    S1
001740: 13,2247           00000                                    0
001741: 13,2250           00304                                    STARIND
001742: 13,2251           77700                           TIX,1
001743: 13,2252           26256                                    ST52ST
001744: 13,2253           52175                           VLOAD    GOTO
001745: 13,2254           02617                                    STARSAV2


001747: 13,2255           26260                                    COM52
001748: 13,2256           77775        ST52ST             VLOAD
001749: 13,2257           02611                                    STARSAV1
001750: 13,2260           53521        COM52              MXV      UNIT
001751: 13,2261           01736                                    REFSMMAT
001752: 13,2262           02766                           STORE    STAR
001753: 13,2263           45001                           SETPD    CALL
001754: 13,2264           00001                                    0
001755: 13,2265           47432                                    CDUTRIG                               #  COMPUTES SINES AND COSINES FOR CALCSXA
001756: 13,2266           77624                           CALL                                           #    NOW EXPECT TO SEE THE CDU ANGLES.
001757: 13,2267           46034                                    CALCSXA
001758: 13,2270           77414                           BOFF     EXIT
001759: 13,2271           01750                                    CULTFLAG
001760: 13,2272           26274                                    TRUN38
001761: 13,2273           02312                           TC       SR52E1
001762: 13,2274           45345        TRUN38             DLOAD    DSU
001763: 13,2275           02776                                    PAC
001764: 13,2276           26315                                    38TRDEG
001765: 13,2277           71244                           BPL      DLOAD
001766: 13,2300           26305                                    SR52E22
001767: 13,2301           02776                                    PAC
001768: 13,2302           51025                           DSU      BPL
001769: 13,2303           26321                                    20DEGSMN
001770: 13,2304           26307                                    SR52E3
001771: 13,2305           77776        SR52E22            EXIT
001772: 13,2306           02311                           TC       SR52E2
001773: 13,2307           77776        SR52E3             EXIT
001774: 13,2310           25777                           INCR     QMIN
001775: 13,2311           25777        SR52E2             INCR     QMIN
001776: 13,2312           31777        SR52E1             CA       QMIN
001777: 13,2313           04561                           TC       SWCALL
001778: 13,2314           25252 25254  38TRDEG            2DEC     .66666667                             #  CORESPONDS TO 50 DEGS IN TRUNION
001779: 13,2316           00000 00202  1.3SECDP           2DEC     130        B-28
001780: 13,2320           61740        20DEGSMN           DEC      -07199     B-14
001781: 13,2321           77777                           DEC      -0         B-14
001782:


001784:                                                                                                  #     THE ADVTRACK ROUTINE IS USED TO COMPUTE AN OPTICS LOS VECTOR TO
001785:                                                                                                  #  A POINT ON THE GROUND TRACK 60 DEGRESS FORWARD OF THE LOCAL VERTICAL
001786:                                                                                                  #  OF AN ADVANCED ORBIT A SPECIFIED NUMBER OF REVOLUTIONS FROM NOW
001787:
001788: 26,2000                                           SETLOC   26P50S
001789: 26,2000                                           BANK
001790: 26,2000           77601        ADVTRACK           SETPD
001791: 26,2001           00001                                    0
001792: 26,2002           41575                           VLOAD    PUSH                                  #  INITIALIZE FOR RP-TO-R
001793: 26,2003           15324                                    UNITZ                                 #  UZ VEC IN PD 0-5
001794: 26,2004           41434                           RTB      PUSH                                  #  TIME IN PD 6-7
001795: 26,2005           45505                                    LOADTIME
001796: 26,2006           36356                           STCALL   AOPTIME                               #  TIME ALSO IN AOPTIME FOR CSMCONIC
001797: 26,2007           55341                                    RP-TO-R                               #  GET MOON ROTATION VEC IN REF
001798: 26,2010           16766                           STODL    STAR
001799: 26,2011           02356                                    AOPTIME                               #  PICK UP TIME
001800: 26,2012           34041                           STCALL   TDEC1                                 #  UPDATE STATE TO TIME
001801: 26,2013           27045                                    CSMCONIC
001802: 26,2014           47375                           VLOAD    VXV
001803: 26,2015           00007                                    VATT
001804: 26,2016           00001                                    RATT
001805: 26,2017           77656                           UNIT
001806: 26,2020           24031                           STOVL    24D                                   #  SAVE -UNIT(V X R) FOR 2ND ROTATION
001807: 26,2021           00001                                    RATT
001808: 26,2022           57456                           UNIT     VCOMP
001809: 26,2023           41401                           SETPD    PUSH                                  #  PUSH LOS=-UNIT(RVEC)  PD 0-5
001810: 26,2024           00001                                    0
001811: 26,2025           77776                           EXIT
001812: 26,2026           31751                           CA       LANDMARK
001813: 26,2027           74716                           MASK     SEVEN                                 #  GET NUMBER OF ADVANCE PERIODS
001814: 26,2030           00006                           EXTEND
001815: 26,2031           74700                           MP       BIT11                                 #  GET N/16
001816: 26,2032           56001                           XCH      L
001817: 26,2033           50120                           INDEX    FIXLOC
001818: 26,2034           54036                           TS       30D                                   #  TEMP STORE N/16
001819: 26,2035           06006                           TC       INTPRET
001820: 26,2036           41335                           SLOAD    DMP
001821: 26,2037           00037                                    30D
001822: 26,2040           14107                                    MPERIOD
001823: 26,2041           36356                           STCALL   AOPTIME                               #  ROTATE ANG ABOUT UR
001824: 26,2042           54057                                    ROTA
001825: 26,2043           77775                           VLOAD
001826: 26,2044           00031                                    24D                                   #  PICK UP 2ND ROTATION AXIS
001827: 26,2045           16766                           STODL    STAR
001828: 26,2046           14105                                    DP1/6
001829: 26,2047           77625                           DSU
001830: 26,2050           02356                                    AOPTIME                               #  2ND RAT ANGLE = 60 - A
001831: 26,2051           36356                           STCALL   AOPTIME
001832: 26,2052           54057                                    ROTA                                  #  GO ROTATE 2ND TIME
001833: 26,2053           77775                           VLOAD


001835: 26,2054           00001                                    0
001836: 26,2055           36766                           STCALL   STAR                                  #  STORE FINAL LOS IN STAR
001837: 26,2056           26260                                    COM52                                 #  RETURN TO SR52.1
001838:
001839: 26,2057           73545        ROTA               DLOAD    SIN
001840: 26,2060           02356                                    AOPTIME
001841: 26,2061           47315                           PDVL     VXV                                   #  PUSH 1/2SIN(A)  PD  6-7
001842: 26,2062           02766                                    STAR                                  #    UR VEC
001843: 26,2063           00001                                    0                                     #    LOS
001844: 26,2064           72561                           VXSC     VSL2                                  #  1/2SIN(A)(URXLOS)  PD 6-11
001845: 26,2065           50315                           PDVL     DOT
001846: 26,2066           02766                                    STAR
001847: 26,2067           00001                                    0
001848: 26,2070           72561                           VXSC     VSL2
001849: 26,2071           02766                                    STAR
001850: 26,2072           71525                           PDDL     COS                                   #  1/2(UR . LOS)UR  12-17
001851: 26,2073           02356                                    AOPTIME
001852: 26,2074           51315                           PDVL     BVSU                                  #  PUSH 1/2COS(A)  18-19
001853: 26,2075           00015                                    12D
001854: 26,2076           00001                                    0
001855: 26,2077           76561                           VXSC     VSL1                                  #  UP 18-19
001856: 26,2100           53255                           VAD      VAD                                   #  UP 12-17  UP 6-11
001857: 26,2101           40256                           UNIT     SETPD
001858: 26,2102           00001                                    0
001859: 26,2103           43406                           PUSH     RVQ
001860:
001861: 26,2104           05252 25251  DP1/6              2DEC     .16666666
001862: 26,2106           11446 02760  MPERIOD            2DEC     .2992                                 #  APPROX LUNAR ROT ANG IN 2HRS X 16
001863:


001865:                                                                                                  #  NAME-S52.3
001866:                                                                                                  #  FUNCTION- XSMD= UNIT(YSMD X ZSMD)
001867:                                                                                                  #            YSMD= UNIT(V X R)
001868:                                                                                                  #            ZSMD= UNIT(-R)
001869:                                                                                                  #  CALL     DLOAD  CALL
001870:                                                                                                  #                  TALIGN
001871:                                                                                                  #                  S52.3
001872:                                                                                                  #  INPUT-   TIME OF ALIGNMENT IN MPAC
001873:                                                                                                  #  OUTPUT-  X,Y,ZSMD
001874:                                                                                                  #  SUBROUTINES- CSMCONIC
001875: 16,2000                                           SETLOC   P50S2
001876: 16,2000                                           BANK
001877:
001878: 16,2636                                           COUNT    15/S52.3
001879: 16,2636           77620        S52.3              STQ
001880: 16,2637           00300                                    QMAJ
001881: 16,2640           34041                           STCALL   TDEC1
001882: 16,2641           27045                                    CSMCONIC
001883: 16,2642           77601                           SETPD
001884: 16,2643           00001                                    0
001885: 16,2644           57575                           VLOAD    VCOMP
001886: 16,2645           00001                                    RATT
001887: 16,2646           77656                           UNIT
001888: 16,2647           24323                           STOVL    ZSMD
001889: 16,2650           00007                                    VATT
001890: 16,2651           53435                           VXV      UNIT
001891: 16,2652           00001                                    RATT
001892: 16,2653           00315                           STORE    YSMD
001893: 16,2654           53435                           VXV      UNIT
001894: 16,2655           00323                                    ZSMD
001895: 16,2656           34307                           STCALL   XSMD
001896: 16,2657           00300                                    QMAJ
001897:


001899:                                                                                                  #  PROGRAM DESCRIPTION - R56 - ALTERNATE LOS SIGHTING MARK ROUTINE
001900:
001901:                                                                                                  #  FUNCTIONAL DESCRIPTION
001902:                                                                                                  #         TO PERFORM SIGHTING MARKS FOR THE BACK-UP ALIGNMENT PROGRAMS (P53,P54).  THE ASTRONAUT KNOWS THE
001903:                                                                                                  #  COORDINATES (OPTICS) OF THE ALTERNATE LINE OF SIGHT HE MUST USE FOR THIS ROUTINE.  WHEN THE ASTRONAUT KEYS IN
001904:                                                                                                  #  ENTER IN RESPONSE TO THE FLASHING V50 N25 R1-XXXXX THE CMC STORES THE THREE ICDU ANGLES AND TWO ANGLES DISPLAYED
001905:                                                                                                  #  IN N92.
001906:
001907:                                                                                                  #  CALLING SEQUENCE
001908:                                                                                                  #         CALL
001909:                                                                                                  #               R56
001910:
001911:                                                                                                  #  SUBROUTINES CALLED
001912:                                                                                                  #         A PORTION OF SXTMARK (VAC.AREA SEARCH)
001913:                                                                                                  #         GOFLASH
001914:                                                                                                  #         GOPERF1
001915:
001916:                                                                                                  #  ERASABLE INITIALIZATION
001917:                                                                                                  #         STARIND-INDEX TO STAR NUMBER
001918:
001919:                                                                                                  #  OUTPUT
001920:                                                                                                  #         MARKSTAT-INDEX TO VAC.AREA WHERE OUTPUT IS STORED.
001921:                                                                                                  #         BESTI (INDEXED BY STARIND) CONTAINS STAR NUMBER.
001922:                                                                                                  #         ICDU AND OCDU ANGLES IN VAC. AREA AS FOLLOWS-
001923:                                                                                                  #            VAC +2  CDUY
001924:                                                                                                  #            VAC +3  CDUS
001925:                                                                                                  #            VAC +4  CDUZ
001926:                                                                                                  #            VAC +5  CDUT
001927:                                                                                                  #            VAC +6  CDUX
001928:
001929: 16,2660                                           COUNT*   $$/R56
001930: 15,2000                                           SETLOC   P50S
001931: 15,2000                                           BANK
001932: 15,2252           77776        R56                EXIT
001933: 15,2253           32362                           CAF      V06N94B
001934: 15,2254           04555                           TC       BANKCALL
001935: 15,2255           20624                           CADR     GOFLASH
001936: 15,2256           04106                           TC       GOTOPOOH                              #  TERM.
001937: 15,2257           02261                           TC       R56A                                  #  PROCEED - ANGLES OK
001938: 15,2260           02253                           TC       -5                                    #  ENTER - NEW ANGLES
001939: 15,2261           04555        R56A               TC       BANKCALL
001940: 15,2262           16004                           CADR     SXTMARK    +2                         #  INHIBIR EXT VB ACT AND FIND VAC AREA
001941:
001942: 15,2263           34714                           CAF      ZERO
001943: 15,2264           04555                           TC       BANKCALL
001944: 15,2265           20607                           CADR     CLEANDSP
001945:
001946: 15,2266           32360                           CAF      VB53                                  #  DISPLAY V53 REQUESTING ALTERNATE MARK
001947: 15,2267           04555                           TC       BANKCALL
001948: 15,2270           20470                           CADR     GOMARK2


001950: 15,2271           14106                           TCF      GOTOPOOH                              #  V34-TERMINATE
001951: 15,2272           12263                           TCF      R56A       +2                         #  V33-DONT PROCEED-JUST ENTER TO MARK
001952: 15,2273           06006                           TC       INTPRET
001953: 15,2274           77745                           DLOAD
001954: 15,2275           03731                                    MRKBUF1    +3
001955: 15,2276           16774                           STODL    SAC
001956: 15,2277           03733                                    MRKBUF1    +5
001957: 15,2300           02776                           STORE    PAC
001958: 15,2301           77776                           EXIT
001959: 15,2302           00004                           INHINT
001960: 15,2303           00006                           EXTEND
001961: 15,2304           30025                           DCA      TIME2
001962: 15,2305           51330                           INDEX    MARKSTAT
001963: 15,2306           52001                           DXCH     0
001964: 15,2307           30033                           CA       CDUY                                  #  ENTER-THIS IS A BACKUP SYSTEM MARK
001965: 15,2310           51330                           INDEX    MARKSTAT
001966: 15,2311           54002                           TS       2
001967: 15,2312           31773                           CA       SAC
001968: 15,2313           51330                           INDEX    MARKSTAT
001969: 15,2314           54003                           TS       3
001970: 15,2315           30034                           CA       CDUZ
001971: 15,2316           51330                           INDEX    MARKSTAT
001972: 15,2317           54004                           TS       4
001973: 15,2320           31775                           CA       PAC
001974: 15,2321           51330                           INDEX    MARKSTAT
001975: 15,2322           54005                           TS       5
001976: 15,2323           30032                           CA       CDUX
001977: 15,2324           51330                           INDEX    MARKSTAT
001978: 15,2325           54006                           TS       6
001979: 15,2326           00003                           RELINT
001980: 15,2327           05425                           TC       CLEARMRK                              #  ENABLE EXTENDED VERBS
001981: 15,2330           34333                           CAF      OCT16
001982: 15,2331           04555                           TC       BANKCALL
001983: 15,2332           20751                           CADR     GOPERF1
001984: 15,2333           04106                           TC       GOTOPOOH                              #  TERM.
001985: 15,2334           12336                           TCF      R56B                                  #  PROCEED-MARK COMPLETED
001986: 15,2335           12263                           TCF      R56A       +2                         #   RECYCLE - DO ANOTHER MARK - LIKE REJECT
001987: 15,2336           34714        R56B               CAF      ZERO
001988: 15,2337           04555                           TC       BANKCALL
001989: 15,2340           20607                           CADR     CLEANDSP
001990:
001991: 15,2341           32361                           CAF      V01N71B
001992: 15,2342           04555                           TC       BANKCALL
001993: 15,2343           20624                           CADR     GOFLASH
001994: 15,2344           04106                           TC       GOTOPOOH
001995: 15,2345           02347                           TC       +2
001996: 15,2346           12336                           TCF      R56B                                  #  RECYCLE
001997: 15,2347           47713                           CS       HIGH9
001998: 15,2350           70735                           MASK     STARCODE
001999: 15,2351           00006                           EXTEND


002001: 15,2352           76211                           MP       SIX
002002: 15,2353           56001                           XCH      L
002003: 15,2354           50304                           INDEX    STARIND
002004: 15,2355           54302                           TS       BESTI
002005: 15,2356           06006                           TC       INTPRET
002006: 15,2357           77616                           RVQ
002007: 15,2360           15200        VB53               VN       05300                                 #  ALTERNATE MARK VERB
002008: 15,2361           00307        V01N71B            VN       00171
002009: 15,2362           01536        V06N94B            VN       00694
002010: 15,2363           02607        PLANET             STORE    TSIGHT
002011: 15,2364           45020                           STQ      CALL
002012: 15,2365           02777                                    QMIN
002013: 15,2366           30216                                    LOCSAM
002014: 15,2367           77775                           VLOAD
002015: 15,2370           02736                                    VEARTH
002016: 15,2371           24001                           STOVL    0D
002017: 15,2372           02744                                    VSUN
002018: 15,2373           26736                           STOVL    VEARTH
002019: 15,2374           00001                                    0D
002020: 15,2375           02744                           STORE    VSUN
002021: 15,2376           77776        NOSAM              EXIT
002022: 15,2377           47713                           CS       HIGH9
002023: 15,2400           70735                           MASK     STARCODE
002024: 15,2401           00006                           EXTEND
002025: 15,2402           76211                           MP       SIGHTSIX
002026: 15,2403           56001                           XCH      L
002027: 15,2404           50304                           INDEX    STARIND
002028: 15,2405           54302                           TS       BESTI
002029: 15,2406           10000                           CCS      A
002030: 15,2407           12423                           TCF      NOTPLAN
002031: 15,2410           32453                           CAF      VNPLANV
002032: 15,2411           04555                           TC       BANKCALL
002033: 15,2412           20624                           CADR     GOFLASH
002034: 15,2413           04106                           TC       GOTOPOOH
002035: 15,2414           02416                           TC       +2
002036: 15,2415           02410                           TC       -5
002037: 15,2416           06006                           TC       INTPRET
002038: 15,2417           53575                           VLOAD    UNIT
002039: 15,2420           02766                                    STAR
002040: 15,2421           77650                           GOTO
002041: 15,2422           32446                                    CORPLAN
002042: 15,2423           40000        NOTPLAN            CS       A
002043: 15,2424           62452                           AD       DEC227
002044: 15,2425           00006                           EXTEND
002045: 15,2426           62437                           BZMF     CALSAM1
002046: 15,2427           50304                           INDEX    STARIND
002047: 15,2430           30302                           CA       BESTI
002048: 15,2431           50120                           INDEX    FIXLOC
002049: 15,2432           54046                           TS       X1
002050: 15,2433           06006                           TC       INTPRET


002052: 15,2434           52173                           VLOAD*   GOTO
002053: 15,2435           31751                                    CATLOG,1
002054: 15,2436           32446                                    CORPLAN
002055: 15,2437           06006        CALSAM1            TC       INTPRET
002056: 15,2440           70740                           LXC,1    DLOAD*
002057: 15,2441           00304                                    STARIND
002058: 15,2442           00303                                    BESTI,1
002059: 15,2443           76740                           LXC,1    VLOAD*
002060: 15,2444           00154                                    MPAC
002061: 15,2445           02372                                    STARAD     -228D,1
002062: 15,2446           53455        CORPLAN            VAD      UNIT
002063: 15,2447           03474                                    VEL/C
002064: 15,2450           77650                           GOTO
002065: 15,2451           02777                                    QMIN
002066: 15,2452           00343        DEC227             DEC      227        B-14
002067: 15,2453           01530        VNPLANV            VN       0688

End of include-file P51-P53.agc.  Parent file is MAIN.agc


