
Source Code


000002:                                                                                                 #  Copyright:    Public domain.
000003:                                                                                                 #  Filename:      P51-P53.agc
000004:                                                                                                 #  Purpose:      Part of the source code for Colossus build 237.
000005:                                                                                                 #                This is for the Command Module's (CM) Apollo Guidance
000006:                                                                                                 #                Computer (AGC), we believe for Apollo 8.
000007:                                                                                                 #  Assembler:    yaYUL
000008:                                                                                                 #  Contact:      Jim Lawton <jim DOT lawton AT gmail DOT com>
000009:                                                                                                 #  Website:      www.ibiblio.org/apollo/index.html
000010:                                                                                                 #  Page scans:   www.ibiblio.org/apollo/ScansForConversion/Colossus237/
000011:                                                                                                 #  Mod history:  2011-02-23 JL    Adapted from corresponding Colossus 249 file.
000012:                                                                                                 #                 2011-04-17 JL   Removed temporary line.
000013:
000014:                                                                                                 # # Page 690
000015:                                                                                                 #  PROGRAM NAME- PROG52                                                                   DATE- NOV 30, 1966
000016:                                                                                                 #  MOD NO- 2                                                                              LOG SECTION- P51-P53
000017:                                                                                                 #  MODIFICATION BY- LONSKE                                                                ASSEMBLY- SUNDISK REV 30
000018:
000019:                                                                                                 #  FUNCTIONAL DESCRIPTION-
000020:
000021:                                                                                                 #       ALIGNS THE IMU TO ONE OF THREE ORIENTATIONS SELECTED BY THE ASTRONAUT. THE PRESENT IMU ORIENTATION IS KNOWN
000022:                                                                                                 #  AND IS STORED IN REFSMMAT. THE THREE POSSIBLE ORIENTATIONS MAY BE_
000023:
000024:                                                                                                 #       (A) PREFERRED ORIENTATION
000025:
000026:                                                                                                 #        AN OPTIMUM ORIENTATION FOR A PREVIOUSLY CALCULATED MANEUVER. THIS ORIENTATION MUST BE CALCULATED AND
000027:                                                                                                 #       STORED BY A PREVIOUSLY SELECTED PROGRAM.
000028:
000029:                                                                                                 #       (B) NOMINAL ORIENTATION
000030:
000031:                                                                                                 #            X  = UNIT(Y  x Z  )
000032:                                                                                                 #            -SM       -SM  -SM
000033:
000034:                                                                                                 #            Y  = UNIT(V X R)
000035:                                                                                                 #            -SM       -   -
000036:
000037:                                                                                                 #            Z   = UNIT(-R)
000038:                                                                                                 #            -SM         -
000039:
000040:                                                                                                 #           WHERE_
000041:                                                                                                 #            R = THE GEOMETRIC RADIUS VECTOR AT TIME T(ALIGN) SELECTED BY THE ASTRONAUT
000042:                                                                                                 #            -
000043:
000044:                                                                                                 #            V = THE INERTIAL VELOCITY VECTOR AT TIME T(ALIGN) SELECTED BY THE ASTRONAUT
000045:                                                                                                 #            -
000046:
000047:                                                                                                 #       (C) RERSMMAT ORIENTATION
000048:
000049:                                                                                                 #        THIS SELECTION CORRECTS THE PRESENT IMU ORIENTATION. THE PRESENT ORIENTATION DIFFERS FROM THAT TO WHICH IT
000050:                                                                                                 #       WAS LAST ALIGNED ONLY DUE TO GYRO DRIFT(I.E. NEITHER GIMBAL LOCK NOR IMU POWER INTERRUPT HAS OCCURED
000051:                                                                                                 #       SINCE THE LAST ALIGNMENT).
000052:
000053:                                                                                                 #       AFTER A IMU ORIENTATION HAS BEEN SELECTED ROUTINE S52.2 IS OPERATED TO COMPUTE THE GIMBAL ANGLES USING THE
000054:                                                                                                 #  NEW ORIENTATION AND THE PRESENT VEHICLE ATTITUDE. CAL52A THEN USES THESE ANGLES, STORED IN THETAD,+1,+2, TO
000055:                                                                                                 #  COARSE ALIGN THE IMU. THE STAR SELECTION ROUTINE, R56, IS THEN OPERATED. IF 2 STARS ARE NOT AVAILABLE AN ALARM
000056:                                                                                                 #  IS FLASHED TO NOTIFY THE ASTRONAUT. AT THIS POINT THE ASTRONAUT WILL MANEUVER THE VEHICLE AND SELECT 2 STARS
000057:                                                                                                 #  EITHER MANUALLY OR AUTOMATICALLY. AFTER 2 STARS HAVE BEEN SELECTED THE IMU IS FINE ALIGNED USING ROUTINE R51. IF
000058:                                                                                                 #  THE RENDEZVOUS NAVIGATION PROCESS IS OPERATING(INDICATED BY RNDVZFLG) P20 IS DISPLAYED. OTHERWISE P00 IS
000059:                                                                                                 #  REQUESTED.
000060:
000061:                                                                                                 #  CALLING SEQUENCE-
000062:
000063:                                                                                                 #       THE PROGRAM IS CALLED BY THE ASTRONAUT BY DSKY ENTRY.
000064:
000065:                                                                                                 # # Page 691
000066:                                                                                                 #  SUBROUTINES CALLED-
000067:
000068:                                                                                                 #      1. FLAGDOWN      7. S52.2           13. NEWMODEX
000069:                                                                                                 #      2. R02BOTH       8. CAL53A          14. PRIOLARM
000070:                                                                                                 #      3. GOPERF4       9. FLAGUP
000071:                                                                                                 #      4. MATMOVE      10. R56
000072:                                                                                                 #      5. GOFLASH      11. R51
000073:                                                                                                 #      6. S52.3        12. GOPERF3
000074:
000075:                                                                                                 #  NORMAL EXIT MODES-
000076:
000077:                                                                                                 #         EXITS TO ENDOFJOB
000078:
000079:                                                                                                 #  ALARM OR ABORT EXIT MODES-
000080:
000081:                                                                                                 #         NONE
000082:
000083:                                                                                                 #  OUTPUT-
000084:
000085:                                                                                                 #      THE FOLLOWING MAY BE FLASHED ON THE DSKY
000086:                                                                                                 #         1. IMU ORIENTATION CODE
000087:                                                                                                 #         2. ALARM CODE 215 -PREFERRED IMU ORIENTATION NOT SPECIFIED
000088:                                                                                                 #         3. TIME OF NEXT IGNITION
000089:                                                                                                 #         4. GIMBAL ANGLES
000090:                                                                                                 #         5. ALARM CODE 405 -TWO STARS NOT AVAILABLE
000091:                                                                                                 #         6. PLEASE PERFORM P00
000092:                                                                                                 #      THE MODE DISPLAY MAY BE CHANGED TO 20
000093:
000094:                                                                                                 #  ERASABLE INITIALIZATION REQUIRED-
000095:
000096:                                                                                                 #      PFRATFLG SHOULD BE SET IF A PREFERRED ORIENTATION HAS BEEN COMPUTED.IF IT HAS BEEN COMPUTED IT IS STORED IN
000097:                                                                                                 #      XSMD,YSMD,ZSMD.
000098:                                                                                                 #      RNDVZFLG INDICATES WHETHER THE RENDEZVOUS NAVIGATION PROCESS IS OPERATING.
000099:
000100:                                                                                                 #  DEBRIS-
000101:
000102:                                                                                                 #      WORK AREA
000103: ???????  15,2000               P54               =        PROG52
000104: 33,3773                                          BANK     33
000105: 15,2000                                          SETLOC   P50S
000106: 15,2000                                          BANK
000107:
000108: 15,2000  30,2000                                 SBANK=   LOWSUPER
000109: 15,2000  0002773                                 EBANK=   SAC
000110: 15,2000                                          COUNT    15/P52
000111:
000112: 15,2000           05301        PROG52            TC       PHASCHNG
000113: 15,2001           00254                          OCT      00254
000114: 15,2002           05447                          TC       DOWNFLAG
000115: 15,2003           00027                          ADRES    UPDATFLG                              #  BIT 7  FLAG 1
000116:                                                                                                 # # Page 692
000117: 15,2004           05447                          TC       DOWNFLAG
000118: 15,2005           00031                          ADRES    TRACKFLG                              #  BIT 5  FLAG 1
000119: 15,2006           04555                          TC       BANKCALL
000120: 15,2007           17573                          CADR     R02BOTH                               #  IMU STATUS CHECK
000121: 15,2010           34707                          CAF      BIT4
000122: 15,2011           70076                          MASK     STATE      +2                         #  IS PFRATFLG SET(PREFERRED ORIENTATION)
000123: 15,2012           10000                          CCS      A
000124: 15,2013           02016                          TC       P52A                                  #  YES
000125: 15,2014           34711                          CAF      BIT2                                  #  NO
000126: 15,2015           02017                          TC       P52A       +1
000127: 15,2016           34712        P52A              CAF      BIT1
000128: 15,2017           55132                          TS       OPTION2
000129: 15,2020           34712        P52B              CAF      BIT1
000130: 15,2021           04555                          TC       BANKCALL                              #  FLASH OPTION CODE AND ORIENTATION CODE
000131: 15,2022           21041                          CADR     GOPERF4R
000132: 15,2023           04106                          TC       GOTOPOOH
000133: 15,2024           02031                          TC       +5
000134: 15,2025           02020                          TC       P52B                                  #  NEW CODE - NEW ORIENTATION CODE INPUT
000135: 15,2026           05301                          TC       PHASCHNG
000136: 15,2027           00014                          OCT      00014
000137: 15,2030           05112                          TC       ENDOFJOB
000138: 15,2031           31132                          CA       OPTION2
000139: 15,2032           76214                          MASK     THREE
000140: 15,2033           50000                          INDEX    A
000141: 15,2034           02035                          TC       +1
000142: 15,2035           02041                          TC       P52T                                  #  L.S.
000143: 15,2036           02110                          TC       P52J                                  #  PREF
000144: 15,2037           02041                          TC       P52T                                  #  NORM
000145: 15,2040           12120                          TCF      P52C                                  #  REF
000146: 15,2041           00006        P52T              EXTEND
000147: 15,2042           34714                          DCA      NEG0
000148: 15,2043           53046                          DXCH     DSPTEM1
000149: 15,2044           32155                          CAF      V06N34
000150: 15,2045           04555                          TC       BANKCALL
000151: 15,2046           20624                          CADR     GOFLASH
000152: 15,2047           04106                          TC       GOTOPOOH
000153: 15,2050           02052                          TC       +2
000154: 15,2051           02044                          TC       -5
000155: 15,2052           00006                          EXTEND
000156: 15,2053           31046                          DCA      DSPTEM1
000157: 15,2054           00006                          EXTEND
000158: 15,2055           12057                          BZF      +2
000159: 15,2056           12062                          TCF      +4
000160:
000161: 15,2057           00006                          EXTEND
000162: 15,2060           30025                          DCA      TIME2
000163: 15,2061           53046                          DXCH     DSPTEM1
000164: 15,2062           31132                          CA       OPTION2
000165: 15,2063           74711                          MASK     BIT2
000166: 15,2064           10000                          CCS      A
000167:                                                                                                 # # Page 693
000168: 15,2065           12073                          TCF      +6                                    #  NOM
000169: 15,2066           06006                          TC       INTPRET                               #  LS
000170: 15,2067           77624                          CALL
000171: 15,2070           34506                                   P52LS
000172: 15,2071           77650                          GOTO
000173: 15,2072           32100                                   P52D
000174: 15,2073           06006                          TC       INTPRET
000175: 15,2074           77745                          DLOAD
000176: 15,2075           01046                                   DSPTEM1
000177: 15,2076           77624                          CALL                                           #  COMPUTE NOMINAL IMU
000178: 15,2077           34636                                   S52.3                                 #   ORIENTATION
000179: 15,2100           77624        P52D              CALL                                           #  READ VEHICLE ATTITUDE AND
000180: 15,2101           22256                                   S52.2                                 #   COMPUTE GIMBAL ANGLES
000181: 15,2102           77776                          EXIT
000182: 15,2103           32156                          CAF      VB06N22
000183: 15,2104           04555                          TC       BANKCALL                              #  DISPLAY GIMBAL ANGLES
000184: 15,2105           20624                          CADR     GOFLASH
000185: 15,2106           04106                          TC       GOTOPOOH
000186: 15,2107           02113                          TC       +4                                    #  PROCEED
000187: 15,2110           06006        P52J              TC       INTPRET                               #  RECYCLE- VEHICLE HAS BEEN MENUEVERED
000188: 15,2111           77650                          GOTO
000189: 15,2112           32100                                   P52D
000190: 15,2113           06006                          TC       INTPRET
000191: 15,2114           77624                          CALL                                           #  DO COARSE ALIGN
000192: 15,2115           30763                                   CAL53A                                #   ROUTINE
000193: 15,2116           77414                          SET      EXIT
000194: 15,2117           01462                                   REFSMFLG
000195: 15,2120           34720        P52C              CAF      ALRM15
000196: 15,2121           04555                          TC       BANKCALL
000197: 15,2122           20751                          CADR     GOPERF1
000198: 15,2123           04106                          TC       GOTOPOOH
000199: 15,2124           02126                          TC       +2                                    #  V33
000200: 15,2125           02140                          TC       P52F                                  #  E
000201: 15,2126           06006                          TC       INTPRET
000202: 15,2127           43234                          RTB      DAD
000203: 15,2130           45505                                   LOADTIME
000204: 15,2131           32176                                   TSIGHT1
000205: 15,2132           77624                          CALL
000206: 15,2133           30216                                   LOCSAM
000207: 15,2134           77776                          EXIT
000208: 15,2135           04555        P52E              TC       BANKCALL                              #  DO STAR SELECTION
000209: 15,2136           30324                          CADR     PICAPAR
000210: 15,2137           02145                          TC       P52I                                  #  2 STARS NOT AVAILABLE
000211: 15,2140           06006        P52F              TC       INTPRET                               #  2 STARS AVAILABLE
000212: 15,2141           77624                          CALL
000213: 15,2142           30523                                   R51
000214: 15,2143           77776        ENDP50S           EXIT
000215: 15,2144           04106                          TC       GOTOPOOH
000216: 15,2145           05537        P52I              TC       ALARM
000217: 15,2146           00405                          OCT      405
000218:                                                                                                 # # Page 694
000219: 15,2147           34743                          CAF      V05N09
000220: 15,2150           04555                          TC       BANKCALL
000221: 15,2151           20624                          CADR     GOFLASH
000222: 15,2152           04106                          TC       GOTOPOOH
000223: 15,2153           02140                          TC       P52F                                  #  PROCEED - DO FINE ALIGN-R51
000224: 15,2154           02120                          TC       P52C                                  #  RECYCLE- VEHICLE HAS BEEN MANUEVERED
000225: 15,2155           01442        V06N34            VN       00634
000226: 15,2156           01426        VB06N22           VN       00622
000227: 15,2157     4720               ALRM15            EQUALS   OCT15
000228: 16,2000                                          SETLOC   P50S2
000229: 16,2000                                          BANK
000230: 16,2505           01531        V06N89*           VN       0689
000231:                                                                                                 #  NAME-P52LS
000232:                                                                                                 #  FUNCTION - TO DISPLAY THE LANDING SITE LATITUDE,
000233:                                                                                                 #  LONGTITUDE AND ALTITUDE. TO ACCEPT NEW DATA VIA
000234:                                                                                                 #  THE KEYBOARD. TO COMPUTE THE LANDING SITE
000235:                                                                                                 #  ORIENTATIION FOR P52 OR P54
000236:
000237:                                                                                                 #  LET:
000238:                                                                                                 #     RLS  = LANDING SITE VECTOR IN REF COORDINATES
000239:                                                                                                 #     R    = CSM POSITION VECTOR IN REF COORDINATES
000240:                                                                                                 #     V    = CSM VELOCITY VECTOR IN REF COORDINATES
000241:                                                                                                 #  THEN THE LANDING SITE ORIENTATION IS:
000242:                                                                                                 #     XSMD = UNIT(RLS)
000243:                                                                                                 #     YSMD = UNIT(ZSMD*XSMD)
000244:                                                                                                 #     ZSMD = UNIT((R*V)*RLS)
000245:                                                                                                 #  CALL -   CALL
000246:                                                                                                 #                  P52LS
000247:                                                                                                 #  INPUTS-  DSPTEM1=TIME OF ALIGNMENT
000248:                                                                                                 #           RLS=LANDING SITE VECTOR IN MOON FIXED COORDINATES
000249:                                                                                                 #  OUTPUTS- XSMD,YSMD,ZSMD
000250:                                                                                                 #  SUBROUTINES- RP-TO-R ,LAT-LONG,LLASRD,LLASRDA,CSMPREC
000251:                                                                                                 #  DEBRIS- VAC, SEE SUBROUTINES
000252:
000253: 16,2506           43020        P52LS             STQ      SET
000254: 16,2507           00300                                   QMAJ
000255: 16,2510           01463                                   LUNAFLAG
000256: 16,2511           77745                          DLOAD
000257: 16,2512           01046                                   DSPTEM1
000258: 16,2513           02607                          STORE    TSIGHT
000259: 16,2514           43175                          VLOAD    SET
000260: 16,2515           02026                                   RLS
000261: 16,2516           00462                                   ERADFLAG
000262: 16,2517           14001                          STODL    0D
000263: 16,2520           02607                                   TSIGHT
000264: 16,2521           34007                          STCALL   6D
000265: 16,2522           55341                                   RP-TO-R
000266: 16,2523           77742                          VSR2
000267: 16,2524           16152                          STODL    ALPHAV
000268: 16,2525           02607                                   TSIGHT
000269:                                                                                                 # # Page 695
000270: 16,2526           77624                          CALL
000271: 16,2527           26322                                   LAT-LONG
000272: 16,2530           77624                          CALL
000273: 16,2531           61336                                   LLASRD
000274: 16,2532           77776                          EXIT
000275: 16,2533           32505        LSDISP            CAF      V06N89*
000276: 16,2534           04555                          TC       BANKCALL
000277: 16,2535           20624                          CADR     GOFLASH
000278: 16,2536           04106                          TC       GOTOPOOH
000279: 16,2537           02541                          TC       +2
000280: 16,2540           02533                          TC       LSDISP
000281: 16,2541           06006                          TC       INTPRET
000282: 16,2542           77624                          CALL
000283: 16,2543           61345                                   LLASRDA
000284: 16,2544           45145                          DLOAD    CALL
000285: 16,2545           02607                                   TSIGHT
000286: 16,2546           26373                                   LALOTORV
000287: 16,2547           53575                          VLOAD    UNIT
000288: 16,2550           02152                                   ALPHAV
000289: 16,2551           14307                          STODL    XSMD
000290: 16,2552           02607                                   TSIGHT
000291: 16,2553           34041                          STCALL   TDEC1
000292: 16,2554           27022                                   CSMPREC
000293: 16,2555           47375                          VLOAD    VXV
000294: 16,2556           00001                                   RATT
000295: 16,2557           00007                                   VATT
000296: 16,2560           53435                          VXV      UNIT
000297: 16,2561           00307                                   XSMD
000298: 16,2562           00323                          STORE    ZSMD
000299: 16,2563           53435                          VXV      UNIT
000300: 16,2564           00307                                   XSMD
000301: 16,2565           34315                          STCALL   YSMD
000302: 16,2566           00300                                   QMAJ
000303: 14,2000                                          SETLOC   P50S1
000304: 14,2000                                          BANK
000305:                                                                                                 #  NAME- AUTOMATIC OPTICS POSITIONING ROUTINE
000306:
000307:                                                                                                 #  FUNCTION- (1) TO POINT THE STAR LOS OF THE OPTICS AT A STAR OR LANDMARK DEFINED BY THE PROGRAM OR BY DSKY INPUT.
000308:                                                                                                 #            (2) TO POINT THE STAR LOS OF THE OPTICS AT THE LEM DURING RENDEZVOUS TRACKING OPERATIONS.
000309:
000310:                                                                                                 #  CALLING SEQUENCE- CALL R52
000311:
000312:                                                                                                 #  INPUT- 1. TARG1FLG AND TARG2FLG- PRESET BY CALLER
000313:                                                                                                 #         2. RNDVZFLG AND TRACKFLG- PRESET BY CALLER
000314:                                                                                                 #         3. STAR CODE- PRESET BY CALLER. ALSO INPUT THROUGH DSKY
000315:                                                                                                 #         4. LAT, LONG, AND ALT OF LANDMARK- INPUT THROUGH DSKY
000316:                                                                                                 #         5. NO. OF MARKS(MARKINDX)- PRESET BY CALLER
000317:
000318:                                                                                                 #  OUTPUT-  DRIVE SHAFT AND TRUNNION CDUS
000319:
000320:                                                                                                 # # Page 696
000321:                                                                                                 #  SUBROUTINES- 1. FIXDELAY        7. CLEANDSP
000322:                                                                                                 #               2. GOPERF1         8. GODSPR
000323:                                                                                                 #               3. GOFLASH         9. REFLASHR
000324:                                                                                                 #               4. R53            10. R52.2
000325:                                                                                                 #               5. ALARM          11. R52.3
000326:                                                                                                 #               6. SR52.1
000327:
000328: 14,2002                                          COUNT    15/R52
000329:
000330: 14,2002           43020        R52               STQ      CLEAR
000331: 14,2003           02576                                   SAVQR52
000332: 14,2004           04265                                   ADVTRK
000333: 14,2005           77776        R52VRB            EXIT
000334: 14,2006           00006                          EXTEND
000335: 14,2007           30036                          DCA      CDUT
000336: 14,2010           53161                          DXCH     DESOPTT
000337: 14,2011           06006                          TC       INTPRET
000338: 14,2012           43131                          SSP      CLEAR
000339: 14,2013           01304                                   OPTIND
000340: 14,2014           00000                                   0
000341: 14,2015           00271                                   R53FLAG
000342: 14,2016           77776                          EXIT
000343: 14,2017           06006        R52A              TC       INTPRET
000344: 14,2020           43014                          SET      BON
000345: 14,2021           00073                                   TRUNFLAG
000346: 14,2022           00705                                   TARG1FLG
000347: 14,2023           30103                                   R52H
000348: 14,2024           77414                          CLEAR    EXIT
000349: 14,2025           03660                                   TERMIFLG
000350: 14,2026           31314        R52C              CA       SWSAMPLE                              #  IS OPTICS MODE IN AGC
000351: 14,2027           00006                          EXTEND
000352: 14,2030           62131                          BZMF     R52M                                  #  MANUAL
000353: 14,2031           04555        R52D              TC       BANKCALL                              #  AGC
000354: 14,2032           26176                          CADR     SR52.1
000355: 14,2033           12161                          TCF      R52L                                  #  GR 90 DEGREES
000356: 14,2034           12124                          TCF      R52J                                  #  GR 50 DEGREES
000357: 14,2035           05435                          TC       UPFLAG                                #  LS 50 DEGREES
000358: 14,2036           00013                          ADRES    TRUNFLAG                              #  SET TRUNFLAG  BIT 4  FLAG 0
000359: 14,2037           34701        R52JA             CAF      BIT10                                 #  IS THIS A LEM
000360: 14,2040           70075                          MASK     STATE      +1
000361: 14,2041           10000                          CCS      A
000362: 14,2042           02052                          TC       R52E                                  #  YES
000363: 14,2043           34705                          CAF      BIT6                                  #  NO, IS R53FLAG SET
000364: 14,2044           70074                          MASK     STATE
000365: 14,2045           10000                          CCS      A
000366: 14,2046           12052                          TCF      R52E                                  #  YES
000367: 14,2047           32151                          CAF      V06N92                                #  NO
000368: 14,2050           04555                          TC       BANKCALL
000369: 14,2051           20602                          CADR     GODSPR
000370: 14,2052           31314        R52E              CA       SWSAMPLE                              #  IS OSS IN CMC MODE
000371:                                                                                                 # # Page 697
000372: 14,2053           00006                          EXTEND
000373: 14,2054           62065                          BZMF     R52F                                  #  NO
000374: 14,2055           40074                          CS       STATE                                 #  YES- IS TRUNFLAG SET
000375: 14,2056           74707                          MASK     BIT4
000376: 14,2057           10000                          CCS      A
000377: 14,2060           02063                          TC       +3                                    #  NO
000378: 14,2061           31775                          CA       PAC                                   #  YES
000379: 14,2062           55160                          TS       DESOPTT
000380: 14,2063           31773                          CA       SAC
000381: 14,2064           55161                          TS       DESOPTS
000382: 14,2065           34731        R52F              CAF      .5SEC                                 #  WAIT 1/2 SEC
000383: 14,2066           04555                          TC       BANKCALL
000384: 14,2067           01730                          CADR     DELAYJOB
000385: 14,2070           34701                          CAF      BIT10
000386: 14,2071           70075                          MASK     STATE      +1
000387: 14,2072           10000                          CCS      A
000388: 14,2073           12104                          TCF      R52HA                                 #  YES, LEM
000389: 14,2074           34674                          CAF      BIT15                                 #  NO
000390: 14,2075           70103                          MASK     STATE      +7                         #  IS TERMIFLG SET
000391: 14,2076           00006                          EXTEND
000392: 14,2077           12026                          BZF      R52C                                  #  NO
000393: 14,2100           06006        R52Q              TC       INTPRET                               #  YES
000394: 14,2101           77650                          GOTO
000395: 14,2102           02576                                   SAVQR52
000396: 14,2103           77776        R52H              EXIT                                           #  LEM
000397: 14,2104           04555        R52HA             TC       BANKCALL
000398: 14,2105           76536                          CADR     R61CSM
000399: 14,2106           30075                          CA       STATE      +1
000400: 14,2107           74706                          MASK     BIT5
000401: 14,2110           00006                          EXTEND                                         #  TRACKFLG
000402: 14,2111           12100                          BZF      R52Q
000403:
000404: 14,2112           40075                          CS       STATE      +1
000405: 14,2113           74704                          MASK     BIT7                                  #  UPDATFLG
000406: 14,2114           10000                          CCS      A
000407: 14,2115           12122                          TCF      R52SYNC
000408:
000409: 14,2116           30101        R52I              CA       STATE      +5
000410: 14,2117           74701                          MASK     BIT10
000411: 14,2120           10000                          CCS      A
000412: 14,2121           02031                          TC       R52D                                  #  PRFTRKAT = 1
000413: 14,2122           32175        R52SYNC           CAF      1.8SEC                                #  MAKE UP FOR LOST TIME
000414: 14,2123           12066                          TCF      R52F       +1
000415:
000416: 14,2124           05447        R52J              TC       DOWNFLAG                              #  CLEAR TRUNFLAG
000417: 14,2125           00013                          ADRES    TRUNFLAG                              #  BIT 4  FLAG 0
000418: 14,2126           05537                          TC       ALARM                                 #  SET 407 ALARM
000419: 14,2127           00407                          OCT      407
000420: 14,2130           02037                          TC       R52JA
000421: 14,2131           34705        R52M              CAF      BIT6                                  #  IS R53FLAG SET
000422:                                                                                                 # # Page 698
000423: 14,2132           70074                          MASK     STATE
000424: 14,2133           10000                          CCS      A
000425: 14,2134           02065                          TC       R52F                                  #  YES
000426: 14,2135           00004                          INHINT                                         #  NO
000427: 14,2136           37661                          CAF      PRIO24
000428: 14,2137           05042                          TC       FINDVAC
000429: 14,2140  0002773                                 EBANK=   SAC
000430: 14,2140           02144 30065                    2CADR    R53JOB
000431: 14,2142           00003                          RELINT
000432: 14,2143           12065                          TCF      R52F
000433: 14,2144           06006        R53JOB            TC       INTPRET
000434: 14,2145           77624                          CALL
000435: 14,2146           31327                                   R53
000436: 14,2147           77776        ENDPLAC           EXIT                                           #  INTERPRETER RETURN TO ENDOFJOB(R22 USES)
000437: 14,2150           05112                          TC       ENDOFJOB
000438: 14,2151           01534        V06N92            VN       00692
000439: 14,2152           01531        V06N89A           VN       0689
000440: 14,2153           10464 12470  SHAXIS            2DEC     .5376381241 B-1
000441:
000442: 14,2155           00000 00000                    2DEC     0          B-28
000443: 14,2157           15373 11554                    2DEC     .8431766920 B-1
000444: 14,2161           34701        R52L              CAF      BIT10                                 #  IS THIS A LEM
000445: 14,2162           70075                          MASK     STATE      +1
000446: 14,2163           10000                          CCS      A
000447: 14,2164           02124                          TC       R52J                                  #  YES
000448: 14,2165           32174                          CAF      OCT404
000449: 14,2166           04555                          TC       BANKCALL
000450: 14,2167           21671                          CADR     PRIOLARM
000451: 14,2170           12176                          TCF      TERM52                                #  TERMINATE
000452: 14,2171           12065                          TCF      R52F                                  #  PROCEED
000453: 14,2172           12065                          TCF      R52F                                  #  NO PROVISION FOR NEW DATA
000454: 14,2173           15112                          TCF      ENDOFJOB
000455:
000456: 14,2174           00404        OCT404            OCT      404
000457:
000458: 14,2175           00264        1.8SEC            DEC      180        B-14
000459:
000460: 14,2176           05425        TERM52            TC       CLEARMRK
000461:
000462: 14,2177           04555                          TC       BANKCALL                              #  KILL MARK SYSTEM
000463: 14,2200           16063                          CADR     MKRELEAS
000464:
000465: 14,2201           34714                          CAF      ZERO
000466: 14,2202           55323                          TS       OPTCADR
000467:
000468: 14,2203           04555                          TC       BANKCALL                              #  CLEAR OUT EXTENDED VERBS
000469:                                                                                                 # # Page 699
000470: 14,2204           20464                          CADR     KLEENEX
000471:
000472: 14,2205           04106                          TC       GOTOPOOH                              #  NO GO TO POO
000473:
000474: 14,2206           43020        ADVORB            STQ      SET                                   #  SETS UP ADVANCED ORBIT TRACKING
000475: 14,2207           02576                                   SAVQR52
000476: 14,2210           04065                                   ADVTRK
000477: 14,2211           43014                          SET      SET
000478: 14,2212           01463                                   LUNAFLAG
000479: 14,2213           00462                                   ERADFLAG
000480: 14,2214           77650                          GOTO
000481: 14,2215           30005                                   R52VRB
000482:
000483:                                                                                                 # # Page 700
000484:                                                                                                 #  NAME -S50 ALIAS  LOCSAM
000485:                                                                                                 #  NAME-  LOCSAM
000486:                                                                                                 #  FUNCTION -TO COMPUTE QUATITIGS LISTED BELOW, USED IN THE
000487:                                                                                                 #            IMU ALIGNMENT PROGRAMS
000488:                                                                                                 #  DEFINE:
000489:                                                                                                 #       RATT=POSITION VECTOR OF CM  WRT PRIMARY BODY
000490:                                                                                                 #       VATT=VELOCITY VECTOR OF CM  WRT PRIMARY BODY
000491:                                                                                                 #       RE  =RADIUS OF EARTH
000492:                                                                                                 #       RM  =RADIUS OF MOON
000493:                                                                                                 #       ECLIPOL= POLE OF ECLIPTIC SCALED BY TANGENTIAL VELOCITY OF EARTH
000494:                                                                                                 #                WRT TO SUN  OVER  THE VELOCITY OF LIGHT
000495:                                                                                                 #       REM =POSITION OF MOON  WRT  EARTH
000496:                                                                                                 #       RES =POSITION OF SUN  WRT EARTH
000497:                                                                                                 #       C = VELOCITY OF LIGHT
000498:
000499:
000500:                                                                                                 #           EARTH IS PRIMARY               MOON IS PRIMARY
000501:                                                                                                 #                   -                              -
000502:                                                                                                 #           VEARTH=-1(RATT)                VEARTH=-1(REM+RATT)
000503:
000504:                                                                                                 #                   -                              -
000505:                                                                                                 #           VMOON = 1(REM-RATT)            VMOON =-1(RATT)
000506:
000507:                                                                                                 #                   -                              -
000508:                                                                                                 #           VSUN  = 1(RES)                 VSUN  = 1(RES-REM)
000509:
000510:                                                                                                 #                         -1
000511:                                                                                                 #           CEARTH=COS(SIN (RE/RATT)+5)    CEARTH=COS 5
000512:
000513:                                                                                                 #                                                       -1
000514:                                                                                                 #           CMOON= COS 5                   CMOON=COS(SIN CRM/RATT)+5)
000515:
000516:
000517:                                                                                                 #           CSUN = COS 15                  CSUN = COS 15
000518:
000519:
000520:                                                                                                 #                        VEL/C = VSUN X ECLIPOL + VATT/C
000521:
000522:
000523:
000524:                                                                                                 #  CALL -   DLOAD  CALL
000525:                                                                                                 #                  DESIRED TIME
000526:                                                                                                 #                  LOCSAM
000527:                                                                                                 #  INPUTS - MPAC = TIME
000528:
000529:                                                                                                 #  OUTPUTS- VEARTH,VMOON,VSUN,CEARTH,CMOON,CSUN,VEL/C
000530:
000531:                                                                                                 #  SUBROUTINES- LSPOS,CSMCONIC
000532:
000533:                                                                                                 #  DEBRIS - VAC AREA,SEE SUBROUTINES
000534:
000535:                                                                                                 # # Page 701
000536: 14,2000                                          SETLOC   P50S1
000537: 14,2000                                          BANK
000538:
000539: 14,2216                                          COUNT*   $$/S50
000540:
000541: 14,2216  14,2216               LOCSAM            =        S50
000542: 14,2216           77620        S50               STQ
000543: 14,2217           00300                                   QMAJ
000544: 14,2220           36607                          STCALL   TSIGHT
000545: 14,2221           54110                                   LSPOS
000546: 14,2222           26752                          STOVL    VMOON
000547: 14,2223           00003                                   2D
000548: 14,2224           16744                          STODL    VSUN
000549: 14,2225           02607                                   TSIGHT
000550: 14,2226           34041                          STCALL   TDEC1
000551: 14,2227           27045                                   CSMCONIC
000552: 14,2230           61131                          SSP      TIX,2
000553: 14,2231           00052                                   S2
000554: 14,2232           00000                                   0
000555: 14,2233           30256                                   MOONCNTR
000556: 14,2234           52375        EARTCNTR          VLOAD    VSU
000557: 14,2235           02752                                   VMOON
000558: 14,2236           00001                                   RATT
000559: 14,2237           77656                          UNIT
000560: 14,2240           26752                          STOVL    VMOON
000561: 14,2241           00001                                   RATT
000562: 14,2242           57456                          UNIT     VCOMP
000563: 14,2243           16736                          STODL    VEARTH
000564: 14,2244           32162                                   RSUBE
000565: 14,2245           77624                          CALL
000566: 14,2246           30316                                   OCCOS
000567: 14,2247           14017                          STODL    CEARTH
000568: 14,2250           32200                                   CSS5
000569: 14,2251           24023                          STOVL    CMOON
000570: 14,2252           02744                                   VSUN
000571: 14,2253           77656                          UNIT
000572: 14,2254           36744                          STCALL   VSUN
000573: 14,2255           30303                                   ENDSAM
000574: 14,2256           40575        MOONCNTR          VLOAD    VSR8
000575: 14,2257           02752                                   VMOON
000576: 14,2260           51362                          VSR1     BVSU
000577: 14,2261           02744                                   VSUN
000578: 14,2262           77656                          UNIT
000579: 14,2263           26744                          STOVL    VSUN
000580: 14,2264           02752                                   VMOON
000581: 14,2265           53455                          VAD      UNIT
000582: 14,2266           00001                                   RATT
000583: 14,2267           77676                          VCOMP
000584: 14,2270           26736                          STOVL    VEARTH
000585:                                                                                                 # # Page 702
000586: 14,2271           00001                                   RATT
000587: 14,2272           57456                          UNIT     VCOMP
000588: 14,2273           16752                          STODL    VMOON
000589: 14,2274           32160                                   RSUBM
000590: 14,2275           77624                          CALL
000591: 14,2276           30316                                   OCCOS
000592: 14,2277           14023                          STODL    CMOON
000593: 14,2300           32200                                   CSS5
000594: 14,2301           24017                          STOVL    CEARTH
000595: 14,2302           02744                                   VSUN
000596: 14,2303           77635        ENDSAM            VXV
000597: 14,2304           32170                                   ECLIPOL
000598: 14,2305           27474                          STOVL    VEL/C
000599: 14,2306           00007                                   VATT
000600: 14,2307           53361                          VXSC     VAD
000601: 14,2310           32166                                   1/C
000602: 14,2311           03474                                   VEL/C
000603: 14,2312           17474                          STODL    VEL/C
000604: 14,2313           32202                                   CSSUN
000605: 14,2314           34021                          STCALL   CSUN
000606: 14,2315           00300                                   QMAJ
000607: 14,2316           70471        OCCOS             DDV      SR1
000608: 14,2317           00045                                   36D
000609: 14,2320           43336                          ASIN     DAD
000610: 14,2321           32164                                   5DEGREES
000611: 14,2322           70546                          COS      SR1
000612: 14,2323           77616                          RVQ
000613: 15,2000                                          SETLOC   P50S
000614: 15,2000                                          BANK
000615: 15,2157           00065 01265  RSUBM             2DEC     1738090    B-29                       #  MOON RADIUS IN METERS
000616: 15,2161           00302 24533  RSUBE             2DEC     6378166    B-29
000617: 15,2163           00343 21616  5DEGREES          2DEC     .013888889                            #  SCALED IN REVS
000618: 15,2165           00000 13143  1/C               2DEC     .000042699 B-1                        #  *
000619: 15,2167           00000 00000  ECLIPOL           2DEC     0          B-28                       #  *
000620: 15,2171           77777 53231                    2DEC     -.00007896 B-1                        #  *
000621: 15,2173           00001 17570                    2DEC     .00018209  B-1                        #  *           * FOR USE BY CSM ONLY
000622: 15,2175           00001 16700  TSIGHT1           2DEC     24000      B-28
000623: 15,2177                        CEARTH            =        14D
000624: 15,2177                        CSUN              =        16D
000625: 15,2177                        CMOON             =        18D
000626: 15,2177           07760 14473  CSS5              2DEC     .2490475                              #  (COS 5)/4
000627:                                                                                                 # # Page 703
000628: 15,2201           07564 15042  CSSUN             2DEC     .24148                                #  COS 15  /4
000629:
000630:                                                                                                 # # Page 704
000631:                                                                                                 #  PROGRAM NAME - PICAPAR           DATE DEC 20 66
000632:                                                                                                 #  MOD 1                            LOG SECTION P51-P53
000633:                                                                                                 #                                   ASSEMBLY  SUNDISK  REV40
000634:                                                                                                 #  BY KEN VINCENT
000635:
000636:                                                                                                 #  FUNCTION
000637:                                                                                                 #    THIS PROGRAM READ THE IMU-CDUS AND COMPUTES THE VEHICLE ORIENTATION
000638:                                                                                                 #  WITH RESPECT TO INERTIAL SPACE. IT THEN COMPUTES THE SHAFT AXIS (SAX)
000639:                                                                                                 #  WITH RESPECT TO REFERENCE INERTIAL. EACH STAR IN THE CATALOG IS TESTED
000640:                                                                                                 #  TO DETERMINE IF IT IS OCCULTED BY EITHER THE EARTH,SUN OR MOON. IF A
000641:                                                                                                 #  STAR IS NOT OCCULTED  THEN IT IS PAIRED WITH ALL STAR OF LOWER INDEX.
000642:                                                                                                 #  THE PAIRED STAR  IS TESTED FOR OCCULTATION. PAIRS OF STARS THAT PASS
000643:                                                                                                 #  THE OCCULTATION TESTS ARE TESTED FOR GOOD SEPARATION.A PAIR OF STARS
000644:                                                                                                 #  HAVE GOOD SEPARATION IF THE ANGLE BETWEEN THEM IS LESS THAN 66DEGREES
000645:                                                                                                 #  AND MORE THAN 40DEGREES. THOSE PAIRS OF STARS WITH GOOD SEPARATION
000646:                                                                                                 #  ARE THEN TESTED TO SEE IF THEY LIE IN CURRENT FIELD OF VIEW.(WITHIN
000647:                                                                                                 #  33DEGREES OF SAX). THE PAIR WITH MAXIMUM SEPARATION IS CHOSEN FROM
000648:                                                                                                 #  THOSE WITH GOOD SEPARATION,AND     IN FIELD OF VIEW.
000649:
000650:                                                                                                 #  CALLING SEQUENCE
000651:                                                                                                 #  L        TC     BANKCALL
000652:                                                                                                 #  L+1      CADR   PICAPAR
000653:                                                                                                 #  L+2      ERROR RETURN - NO STARS IN FIELD OF VIEW
000654:                                                                                                 #  L+3      NORMAL RETURN
000655:
000656:                                                                                                 #  OUTPUT
000657:                                                                                                 #  BESTI,BESTJ -SINGLE PREC,INTEGERS,STAR NUMBERS TIMES 6
000658:                                                                                                 #  VFLAG - FLAG BIT  SET IMPLIES NO STARS IN FIELD OF VIEW
000659:
000660:                                                                                                 #  INITIALIZATION
000661:                                                                                                 #  1)A CALL TO LOCSAM MUST BE MADE
000662:                                                                                                 #  2)VEARTH = -UNIT(R)  WHERE R HAS BEEN UPDATED TOO APPROXIMATE TIME OF
000663:                                                                                                 #       SIGHTINGS.
000664:
000665:                                                                                                 #  DEBRIS
000666:                                                                                                 #  WORK AREA
000667:                                                                                                 #  X,Y,ZNB
000668:                                                                                                 #  SINCDU,COSCDU
000669:                                                                                                 #  STARAD - STAR +5
000670: 15,2203                                          COUNT    14/PICAP
000671:
000672: 14,2000                                          SETLOC   P50S1
000673: 14,2000                                          BANK
000674: 14,2324           04604        PICAPAR           TC       MAKECADR
000675: 14,2325           55777                          TS       QMIN
000676: 14,2326           06006                          TC       INTPRET
000677: 14,2327           77624                          CALL
000678: 14,2330           47432                                   CDUTRIG
000679: 14,2331           77624                          CALL
000680: 14,2332           34567                                   CALCSMSC
000681:                                                                                                 # # Page 705
000682: 14,2333           77601                          SETPD
000683: 14,2334           00001                                   0
000684: 14,2335           71214                          SET      DLOAD                                 #  VFLAG = 1
000685: 14,2336           01465                                   VFLAG
000686: 14,2337           11453                                   DPZERO
000687: 14,2340           24303                          STOVL    BESTI
000688: 14,2341           02714                                   XNB
000689: 14,2342           63361                          VXSC     PDVL
000690: 14,2343           30502                                   SIN33
000691: 14,2344           02730                                   ZNB
000692: 14,2345           74370                          AXT,1    VXSC
000693: 14,2346           00344                                   228D                                  #  X1 = 37 X 6 + 6
000694: 14,2347           30504                                   COS33
000695: 14,2350           77655                          VAD
000696: 14,2351           53505                          VXM      UNIT
000697: 14,2352           01736                                   REFSMMAT
000698: 14,2353           02760                          STORE    SAX                                   #  SAX = SHAFT AXIS
000699: 14,2354           66331                          SSP      SSP                                   #  S1=S2=6
000700: 14,2355           00051                                   S1
000701: 14,2356           00006                                   6
000702: 14,2357           00052                                   S2
000703: 14,2360           00006                                   6
000704: 14,2361           52100        PIC1              TIX,1    GOTO                                  #  MAJOR STAR
000705: 14,2362           30364                                   PIC2
000706: 14,2363           30513                                   PICEND
000707: 14,2364           45173        PIC2              VLOAD*   CALL
000708: 14,2365           31751                                   CATLOG,1
000709: 14,2366           30457                                   OCCULT
000710: 14,2367           73014                          BON      LXA,2
000711: 14,2370           01710                                   CULTFLAG
000712: 14,2371           30361                                   PIC1
000713: 14,2372           00046                                   X1
000714: 14,2373           52104        PIC3              TIX,2    GOTO
000715: 14,2374           30376                                   PIC4
000716: 14,2375           30361                                   PIC1
000717: 14,2376           45173        PIC4              VLOAD*   CALL
000718: 14,2377           46026                                   CATLOG,2
000719: 14,2400           30457                                   OCCULT
000720: 14,2401           76614                          BON      VLOAD*
000721: 14,2402           01710                                   CULTFLAG
000722: 14,2403           30373                                   PIC3
000723: 14,2404           31751                                   CATLOG,1
000724: 14,2405           45237                          DOT*     DSU
000725: 14,2406           46026                                   CATLOG,2
000726: 14,2407           30506                                   CSS66                                 #  SEPERATION LESS THAN 66 DEG.
000727: 14,2410           43240                          BMN      DAD
000728: 14,2411           30373                                   PIC3
000729: 14,2412           30510                                   CSS6640                               #  SEPERATION MORE THAN 40 DEG.
000730: 14,2413           77644                          BPL
000731: 14,2414           30373                                   PIC3
000732:                                                                                                 # # Page 706
000733: 14,2415           50373                          VLOAD*   DOT
000734: 14,2416           31751                                   CATLOG,1
000735: 14,2417           02760                                   SAX
000736: 14,2420           50025                          DSU      BMN                                   #  MAJOR STAR IN CONE
000737: 14,2421           30512                                   CSS33
000738: 14,2422           30361                                   PIC1
000739: 14,2423           50373                          VLOAD*   DOT
000740: 14,2424           46026                                   CATLOG,2
000741: 14,2425           02760                                   SAX
000742: 14,2426           51025                          DSU      BPL
000743: 14,2427           30512                                   CSS33
000744: 14,2430           30433                                   STRATGY
000745: 14,2431           77650                          GOTO
000746: 14,2432           30373                                   PIC3
000747: 14,2433           77614        STRATGY           BONCLR
000748: 14,2434           01605                                   VFLAG
000749: 14,2435           30452                                   NEWPAR
000750: 14,2436           65120                          XCHX,1   XCHX,2
000751: 14,2437           00302                                   BESTI
000752: 14,2440           00303                                   BESTJ
000753: 14,2441           47773        STRAT             VLOAD*   DOT*
000754: 14,2442           31751                                   CATLOG,1
000755: 14,2443           46026                                   CATLOG,2
000756: 14,2444           43006                          PUSH     BOFINV
000757: 14,2445           01545                                   VFLAG
000758: 14,2446           30436                                   STRAT      -3
000759: 14,2447           45345                          DLOAD    DSU
000760: 14,2450           77644                          BPL
000761: 14,2451           30373                                   PIC3
000762: 14,2452           67130        NEWPAR            SXA,1    SXA,2
000763: 14,2453           00302                                   BESTI
000764: 14,2454           00303                                   BESTJ
000765: 14,2455           77650                          GOTO
000766: 14,2456           30373                                   PIC3
000767: 14,2457           51321        OCCULT            MXV      BVSU
000768: 14,2460           02736                                   CULTRIX
000769: 14,2461           00017                                   CSS
000770: 14,2462           77654                          BZE
000771: 14,2463           30476                                   CULTED
000772: 14,2464           75240                          BMN      SIGN
000773: 14,2465           30476                                   CULTED
000774: 14,2466           00160                                   MPAC       +3
000775: 14,2467           75240                          BMN      SIGN
000776: 14,2470           30476                                   CULTED
000777: 14,2471           00162                                   MPAC       +5
000778: 14,2472           43040                          BMN      CLRGO
000779: 14,2473           30476                                   CULTED
000780: 14,2474           01630                                   CULTFLAG
000781: 14,2475           00052                                   QPRET
000782: 14,2476           77614        CULTED            SETGO
000783:                                                                                                 # # Page 707
000784: 14,2477           01430                                   CULTFLAG
000785: 14,2500           00052                                   QPRET
000786: 14,2501  0000016               CSS               =        CEARTH
000787: 14,2501           21150 25157  SIN33             2DEC     .5376381241
000788: 14,2503           32766 22713  COS33             2DEC     .8431756920
000789: 14,2505           01736 35137  CSS66             2DEC     .060480472                            #  (COS76)/4
000790: 14,2507           73003 65403  CSS6640           2DEC     -.15602587                            #  (COS76 - COS30)/4
000791: 14,2511           06233 26112  CSS33             2DEC     .197002688                            #  (COS(1/2(76))/4
000792: 14,2513           77414        PICEND            BOFF     EXIT
000793: 14,2514           01745                                   VFLAG
000794: 14,2515           30517                                   PICGXT
000795: 14,2516           02521                          TC       PICBXT
000796: 14,2517           77776        PICGXT            EXIT
000797: 14,2520           25777                          INCR     QMIN
000798: 14,2521           31777        PICBXT            CA       QMIN
000799: 14,2522           04561                          TC       SWCALL
000800:                                                                                                 # V1              =       12D
000801:
000802:                                                                                                 # # Page 708
000803:                                                                                                 #  NAME-R51  FINE ALIGN
000804:                                                                                                 #  FUNCTION-TO ALIGN THE STABLE MEMBER TO REFSSMAT
000805:                                                                                                 #  CALLING SEQ- CALL  R51
000806:                                                                                                 #  INPUT- BESTI,BESTJ(PAIR OF STAR NO )
000807:                                                                                                 #  OUTPUT- GYRO TORQUE PULSES
000808:                                                                                                 #  SUBROUTINES- R52,R54,R55(SXTNB,NBSM,AXISGEN)
000809: 14,2523                                          COUNT    14/R51
000810:
000811: 14,2523           77776        R51               EXIT
000812: 14,2524           34712                          CAF      BIT1
000813: 14,2525           54304                          TS       STARIND
000814: 14,2526           54301                          TS       MARKINDX
000815: 14,2527           06006        R51.2             TC       INTPRET
000816: 14,2530           43014        R51.3             CLEAR    CLEAR
000817: 14,2531           00666                                   TARG2FLG
000818: 14,2532           00665                                   TARG1FLG
000819: 14,2533           77776                          EXIT
000820: 14,2534           05301                          TC       PHASCHNG
000821: 14,2535           05024                          OCT      05024                                 #  RESTART  GR 4  FOR R52 - R53
000822: 14,2536           13000                          OCT      13000
000823: 14,2537           50304                          INDEX    STARIND
000824: 14,2540           30302                          CA       BESTI
000825: 14,2541           00006                          EXTEND
000826: 14,2542           72706                          MP       1/6TH
000827: 14,2543           54735                          TS       STARCODE
000828: 14,2544           32705                          CAF      V01N70
000829: 14,2545           04555                          TC       BANKCALL
000830: 14,2546           20763                          CADR     GOFLASHR
000831: 14,2547           04106                          TC       GOTOPOOH
000832: 14,2550           02555                          TC       +5
000833: 14,2551           02544                          TC       -5
000834: 14,2552           36211                          CAF      SIX
000835: 14,2553           05415                          TC       BLANKET
000836: 14,2554           15112                          TCF      ENDOFJOB
000837: 14,2555           06006                          TC       INTPRET
000838: 14,2556           45034                          RTB      CALL
000839: 14,2557           45505                                   LOADTIME
000840: 14,2560           32363                                   PLANET
000841: 14,2561           72131                          SSP      LXA,1
000842: 14,2562           00051                                   S1
000843: 14,2563           00000                                   0
000844: 14,2564           00304                                   STARIND
000845: 14,2565           77700                          TIX,1
000846: 14,2566           30571                                   R51ST
000847: 14,2567           36617                          STCALL   STARSAV2                              #  2ND STAR
000848: 14,2570           30572                                   R51ST      +1
000849: 14,2571           02611        R51ST             STORE    STARSAV1                              #  1ST STAR
000850: 14,2572           77776                          EXIT
000851: 14,2573           41011                          CS       MODREG                                #  IS THIS P54
000852: 14,2574           62704                          AD       OCT66
000853:                                                                                                 # # Page 709
000854: 14,2575           00006                          EXTEND
000855: 14,2576           12677                          BZF      R51B                                  #  YES
000856: 14,2577           06006                          TC       INTPRET
000857: 14,2600           77624                          CALL
000858: 14,2601           30002                                   R52                                   #  AOP WILL MAKE CALLS TO SIGHTING
000859: 14,2602           77624        R51A              CALL                                           #  COMPUTE LOS IN SM FROM MARK DATA
000860: 14,2603           31273                                   SXTSM
000861: 14,2604           02617                          STORE    STARSAV2
000862: 14,2605           77776                          EXIT
000863: 14,2606           04555                          TC       BANKCALL
000864: 14,2607           16063                          CADR     MKRELEAS
000865: 14,2610           06006                          TC       INTPRET
000866: 14,2611           45145                          DLOAD    CALL
000867: 14,2612           02607                                   TSIGHT
000868: 14,2613           32363                                   PLANET
000869: 14,2614           77776                          EXIT
000870: 14,2615           10304                          CCS      STARIND
000871: 14,2616           02664                          TC       R51.4
000872: 14,2617           06006                          TC       INTPRET
000873: 14,2620           53521                          MXV      UNIT
000874: 14,2621           01736                                   REFSMMAT
000875: 14,2622           02736                          STORE    STARAD
000876: 14,2623           77776                          EXIT
000877: 14,2624           05301                          TC       PHASCHNG
000878: 14,2625           05024                          OCT      05024                                 #  RESTART THIS GROUP 4  JOB
000879: 14,2626           13000                          OCT      13000                                 #   WITH PRIORITY  13
000880: 14,2627           06006                          TC       INTPRET
000881: 14,2630           77775                          VLOAD
000882: 14,2631           02617                                   STARSAV2
000883: 14,2632           24007                          STOVL    6D
000884: 14,2633           02611                                   STARSAV1
000885: 14,2634           24015                          STOVL    12D
000886: 14,2635           02601                                   PLANVEC
000887: 14,2636           36744                          STCALL   STARAD     +6
000888: 14,2637           30707                                   R54                                   #  STAR DATA TEST
000889: 14,2640           45014                          BOFF     CALL
000890: 14,2641           00354                                   FREEFLAG
000891: 14,2642           30650                                   R51K
000892: 14,2643           47334                                   AXISGEN
000893: 14,2644           77624                          CALL
000894: 14,2645           32203                                   R55                                   #  GYRO TORQUE
000895: 14,2646           77614                          CLEAR
000896: 14,2647           01273                                   PFRATFLG
000897: 14,2650           77776        R51K              EXIT
000898: 14,2651           35660                          CAF      OCT14
000899: 14,2652           04555                          TC       BANKCALL
000900: 14,2653           20751                          CADR     GOPERF1
000901: 14,2654           04106                          TC       GOTOPOOH
000902: 14,2655           02657                          TC       +2                                    #  V33
000903: 14,2656           02661                          TC       +3
000904:                                                                                                 # # Page 710
000905: 14,2657           04555                          TC       BANKCALL
000906: 14,2660           32120                          CADR     P52C
000907: 14,2661           06006                          TC       INTPRET
000908: 14,2662           77650                          GOTO
000909: 14,2663           32143                                   ENDP50S
000910: 14,2664           06006        R51.4             TC       INTPRET
000911: 14,2665           53521                          MXV      UNIT
000912: 14,2666           01736                                   REFSMMAT
000913: 14,2667           26601                          STOVL    PLANVEC
000914: 14,2670           02617                                   STARSAV2
000915: 14,2671           02611                          STORE    STARSAV1
000916: 14,2672           77731                          SSP
000917: 14,2673           00305                                   STARIND
000918: 14,2674           00000                                   0
000919: 14,2675           77650                          GOTO
000920: 14,2676           30530                                   R51.3
000921: 14,2677           06006        R51B              TC       INTPRET
000922: 14,2700           77624                          CALL
000923: 14,2701           32252                                   R56
000924: 14,2702           77650                          GOTO
000925: 14,2703           30602                                   R51A
000926: 14,2704           00066        OCT66             OCT      00066
000927: 14,2705           00306        V01N70            VN       0170
000928: 14,2706           05253        1/6TH             DEC      .1666667
000929:
000930:                                                                                                 # # Page 711
000931:                                                                                                 #  NAME-R55  GYRO TORQUE
000932:                                                                                                 #  FUNCTION-COMPUTE AND SEND GYRO PULSES
000933:                                                                                                 #  CALLING SEQ- CALL R55
000934:                                                                                                 #  INPUT- X,Y,ZDC- REFSMMAT WRT PRESENT STABLE MEMBER
000935:                                                                                                 #  OUTPUT- GYRO PULSES
000936:                                                                                                 #  SUBROUTINES- CALCGTA,GOFLASH,GODSPR,IMUFINE,IMUPULSE,GOPERF1
000937: 15,2000                                          SETLOC   P50S
000938: 15,2000                                          BANK
000939: 15,2203                                          COUNT*   $$/R55
000940: 15,2203           77620        R55               STQ
000941: 15,2204           02777                                   QMIN
000942: 15,2205           77624                          CALL
000943: 15,2206           47140                                   CALCGTA
000944: 15,2207           77776        PULSEM            EXIT
000945: 15,2210           32234        R55.1             CAF      V06N93
000946: 15,2211           04555                          TC       BANKCALL
000947: 15,2212           20624                          CADR     GOFLASH
000948: 15,2213           04106                          TC       GOTOPOOH
000949: 15,2214           02216                          TC       R55.2
000950: 15,2215           02231                          TC       R55RET
000951: 15,2216           05301        R55.2             TC       PHASCHNG
000952: 15,2217           00314                          OCT      00314
000953: 15,2220           32235                          CA       R55CDR
000954: 15,2221           04555                          TC       BANKCALL
000955: 15,2222           17125                          CADR     IMUPULSE
000956: 15,2223           04555                          TC       BANKCALL
000957: 15,2224           17516                          CADR     IMUSTALL
000958: 15,2225           05646                          TC       CURTAINS
000959: 15,2226           05301                          TC       PHASCHNG
000960: 15,2227           05024                          OCT      05024
000961: 15,2230           13000                          OCT      13000
000962: 15,2231           06006        R55RET            TC       INTPRET
000963: 15,2232           77650                          GOTO
000964: 15,2233           02777                                   QMIN
000965: 15,2234           01535        V06N93            VN       0693
000966: 15,2235           02757        R55CDR            ECADR    OGC
000967: 15,2236  14,2707               R54               =        CHKSDATA
000968:                                                                                                 #  ROUTINE NAME- CHKSDATA                                                                 DATE- JAN 9, 1967
000969:                                                                                                 #  MOD NO- 0                                                                              LOG SECTION- P51-P53
000970:                                                                                                 #  MODIFICATION BY- LONSKE                                                                ASSEMBLY-
000971:
000972:                                                                                                 #  FUNCTIONAL DESCRIPTION - CHECKS THE VALIDITY OF A PAIR OF STAR SIGHTINGS. WHEN A PAIR OF STAR SIGHTINGS ARE MADE
000973:                                                                                                 #  BY THE ASTRONAUT THIS ROUTINE OPERATES AND CHECKS THE OBSERVED SIGHTINGS AGAINST STORED STAR VECTORS IN THE
000974:                                                                                                 #  COMPUTER TO INSURE A PROPER SIGHTING WAS MADE. THE FOLLOWING COMPUTATIONS ARE PERFORMED_
000975:
000976:                                                                                                 #                  OS1 = OBSERVED STAR 1 VECTOR
000977:                                                                                                 #                  OS2 = OBSERVED STAR 2 VECTOR
000978:                                                                                                 #                  SS1 = STORED STAR 1 VECTOR
000979:                                                                                                 #                  SS2 = STORED STAR 2 VECTOR
000980:                                                                                                 #                   A1 = ARCCOS(OS1 - OS2)
000981:                                                                                                 # # Page 712
000982:                                                                                                 #                   A2 = ARCCOS(SS1 - SS2)
000983:                                                                                                 #                    A = ABS(2(A1 - A2))
000984:
000985:                                                                                                 #  THE ANGULAR DIFFERENCE IS DISPLAYED FOR ASTRONAUT ACCEPTANCE
000986:                                                                                                 #  EXIT MODE 1. FREEFLAG SET  IMPLIES  ASTRONAUT WANTS TO PROCEED
000987:                                                                                                 #            2. FREEFLAG RESET IMPLIES ASTRONAUT WANTS TO RECYCLE          ERANCE)
000988:                                                                                                 #  OUTPUT - 1.VERB 6,NOUN 3- DISPLAYS ANGULAR DIFFERENCE BETWEEN 2 SETS OF STARS.
000989:                                                                                                 #           2.STAR VECTORS FROM STAR CATALOG ARE LEFT IN 6D AND 12D.
000990:
000991:                                                                                                 #  ERASABLE INITIALIZATION REQUIRED -
000992:                                                                                                 #           1.MARK VECTORS ARE STORED IN STARAD AND STARAD +6.
000993:                                                                                                 #           2.CATALOG VECTORS ARE STORED IN 6D AND 12D.
000994:                                                                                                 #  DEBRIS -
000995: 14,2000                                          SETLOC   P50S1
000996: 14,2000                                          BANK
000997: 14,2707                                          COUNT*   $$/R50
000998: 14,2707           43020        CHKSDATA          STQ      SET
000999: 14,2710           02777                                   QMIN
001000: 14,2711           00074                                   FREEFLAG
001001: 14,2712           77760        CHKSAB            AXC,1                                          #  SET X1 TO STORE  EPHEMERIS DATA
001002: 14,2713           02735                                   STARAD
001003:
001004: 14,2714           47773        CHKSB             VLOAD*   DOT*                                  #  CAL. ANGLE THETA
001005: 14,2715           00001                                   0,1
001006: 14,2716           00007                                   6,1
001007: 14,2717           65552                          SL1      ACOS
001008: 14,2720           00025                          STORE    THETA
001009: 14,2721           43014                          BOFF     INVERT                                #  BRANCH TO CHKSD IF THIS IS 2ND PASS
001010: 14,2722           00354                                   FREEFLAG
001011: 14,2723           30733                                   CHKSD
001012: 14,2724           00174                                   FREEFLAG                              #  CLEAR FREEFLAG
001013: 14,2725           71360                          AXC,1    DLOAD                                 #  SET X1 TO MARK ANGLES
001014: 14,2726           00006                                   6D
001015: 14,2727           00025                                   THETA
001016: 14,2730           00023                          STORE    18D
001017: 14,2731           77650                          GOTO
001018: 14,2732           30714                                   CHKSB                                 #  RETURN TO CAL. 2ND ANGLE
001019: 14,2733           45345        CHKSD             DLOAD    DSU
001020: 14,2734           00025                                   THETA
001021: 14,2735           00023                                   18D                                   #  COMPUTE POS DIFF
001022: 14,2736           47046                          ABS      RTB
001023: 14,2737           45541                                   SGNAGREE
001024: 14,2740           01046                          STORE    NORMTEM1
001025: 14,2741           77414                          SET      EXIT
001026: 14,2742           00074                                   FREEFLAG
001027: 14,2743           34714                          CAF      ZERO
001028: 14,2744           04555                          TC       BANKCALL
001029: 14,2745           20607                          CADR     CLEANDSP
001030:
001031: 14,2746           32762                          CAF      VB6N5
001032:                                                                                                 # # Page 713
001033: 14,2747           04555                          TC       BANKCALL
001034: 14,2750           20624                          CADR     GOFLASH
001035: 14,2751           14106                          TCF      GOTOPOOH
001036: 14,2752           02757                          TC       CHKSDA                                #  PROCEED
001037: 14,2753           06006                          TC       INTPRET
001038: 14,2754           52014                          CLEAR    GOTO
001039: 14,2755           00274                                   FREEFLAG
001040: 14,2756           02777                                   QMIN
001041: 14,2757           06006        CHKSDA            TC       INTPRET
001042: 14,2760           77650                          GOTO
001043: 14,2761           02777                                   QMIN
001044: 14,2762           01405        VB6N5             VN       605
001045:                                                                                                 #  NAME - CAL53A
001046:                                                                                                 #  NAME - CAL53A
001047:                                                                                                 #  FUNCTION - COARSE ALIGN THE IMU, IF NECESSARY.
001048:                                                                                                 #  CALLING SEQUENCE - CALL CAL53A
001049:                                                                                                 #  INPUT -  PRESENT GIMBAL ANGLES - CDUX,CDUY,CDUZ
001050:                                                                                                 #          DESIRED GIMBAL ANGLES - THETAD,+1,+2
001051:                                                                                                 #  OUTPUT - THE IMU COORDINATES AT STORED IN REFSMMAT
001052:                                                                                                 #  SUBROUTINES USED - 1.IMUCOARS 2.IMUSTALL 3.CURTAINS
001053: 14,2763                                          COUNT    14/R50
001054:
001055: 14,2763           45020        CAL53A            STQ      CALL
001056: 14,2764           00035                                   29D
001057: 14,2765           22256                                   S52.2                                 #  MAKE FINAL COMP OF GIMBAL ANGLES
001058: 14,2766           66234                          RTB      SSP
001059: 14,2767           32236                                   RDCDUS                                #  READ CDUS
001060: 14,2770           00051                                   S1
001061: 14,2771           00001                                   1
001062: 14,2772           40370                          AXT,1    SETPD
001063: 14,2773           00003                                   3
001064: 14,2774           00005                                   4
001065: 14,2775           70543        CALOOP            DLOAD*   SR1
001066: 14,2776           01161                                   THETAD     +3D,1
001067: 14,2777           70523                          PDDL*    SR1
001068: 14,3000           00005                                   4,1
001069: 14,3001           51425                          DSU      ABS
001070: 14,3002           45206                          PUSH     DSU
001071: 14,3003           31060                                   DEGREE1
001072: 14,3004           71240                          BMN      DLOAD
001073: 14,3005           31034                                   CALOOP1
001074: 14,3006           51025                          DSU      BPL
001075: 14,3007           31061                                   DEG359
001076: 14,3010           31034                                   CALOOP1
001077: 14,3011           77776        COARFINE          EXIT
001078: 14,3012           04555                          TC       BANKCALL
001079: 14,3013           16602                          CADR     IMUCOARS                              #  PERFORM COARSE ALIGNMENT
001080: 14,3014           04555                          TC       BANKCALL
001081: 14,3015           17516                          CADR     IMUSTALL                              #  REQUEST MODE SWITCH
001082: 14,3016           05646                          TC       CURTAINS
001083:                                                                                                 # # Page 714
001084: 14,3017           04555                          TC       BANKCALL
001085: 14,3020           17012                          CADR     IMUFIN20
001086: 14,3021           04555                          TC       BANKCALL
001087: 14,3022           17516                          CADR     IMUSTALL
001088: 14,3023           05646                          TC       CURTAINS                              #  TEST FOR MALFUNCTION
001089: 14,3024           06006                          TC       INTPRET
001090: 14,3025           77234                          RTB      VLOAD
001091: 14,3026           31270                                   SET1/PDT
001092: 14,3027           11453                                   ZEROVEC
001093: 14,3030           01472                          STORE    GCOMP
001094: 14,3031           52014                          SET      GOTO
001095: 14,3032           01060                                   DRIFTFLG
001096: 14,3033           31036                                   FINEONLY
001097: 14,3034           77700        CALOOP1           TIX,1
001098: 14,3035           30775                                   CALOOP
001099: 14,3036           75160        FINEONLY          AXC,1    AXC,2
001100: 14,3037           02671                                   XSM
001101: 14,3040           01735                                   REFSMMAT
001102: 14,3041           77624                          CALL
001103: 14,3042           31045                                   MATMOVE
001104: 14,3043           77650                          GOTO
001105: 14,3044           00035                                   29D
001106: 14,3045           77773        MATMOVE           VLOAD*                                         #  TRANSFER MATRIX
001107: 14,3046           00001                                   0,1
001108: 14,3047           10001                          STORE    0,2
001109: 14,3050           77773                          VLOAD*
001110: 14,3051           00007                                   6D,1
001111: 14,3052           10007                          STORE    6D,2
001112: 14,3053           77773                          VLOAD*
001113: 14,3054           00015                                   12D,1
001114: 14,3055           10015                          STORE    12D,2
001115: 14,3056           77616                          RVQ
001116: 14,3057           00056        DEGREE1           DEC      46         B-14
001117: 14,3060           37722        DEG359            DEC      16338      B-14
001118: 15,2000                                          SETLOC   P50S
001119: 15,2000                                          BANK
001120: 15,2236           00004        RDCDUS            INHINT                                         #  READ CDUS
001121: 15,2237           30032                          CA       CDUX
001122: 15,2240           50120                          INDEX    FIXLOC
001123: 15,2241           54001                          TS       1
001124: 15,2242           30033                          CA       CDUY
001125: 15,2243           50120                          INDEX    FIXLOC
001126: 15,2244           54002                          TS       2
001127: 15,2245           30034                          CA       CDUZ
001128: 15,2246           50120                          INDEX    FIXLOC
001129: 15,2247           54003                          TS       3
001130: 15,2250           00003                          RELINT
001131: 15,2251           06030                          TC       DANZIG
001132:                                                                                                 #  NAME - GIMB
001133:                                                                                                 #  FUNCTION - DETERMINE AND COMPUTE THE DESIRED GIMBAL ANGLES TO BE USED            FOR COARSE ALIGNMENT.
001134:                                                                                                 # # Page 715
001135:                                                                                                 #  CALLING SEQUENCE - CALL GIMB
001136:                                                                                                 #  INPUT - DESIRED IMU INERTIAL ORIENTATION VECTORS-XSMD,YSMD,ZSMD
001137:                                                                                                 #  OUTPUT - GIMBAL ANGLES LEFT IN THETAD,+1,+2
001138:                                                                                                 #  SUBROUTINES USED - 1.CDUTRIG 2.CALCSMSC 3.CALCGA
001139: 16,2000                                          SETLOC   P50S2
001140: 16,2000                                          BANK
001141: 16,2567                                          COUNT    14/INFLT
001142:
001143: 16,2567           41345        CALCSMSC          DLOAD    DMP
001144: 16,2570           00737                                   SINCDUY
001145: 16,2571           00747                                   COSCDUZ
001146: 16,2572           77676                          DCOMP
001147: 16,2573           70525                          PDDL     SR1
001148: 16,2574           00741                                   SINCDUZ
001149: 16,2575           41325                          PDDL     DMP
001150: 16,2576           00745                                   COSCDUY
001151: 16,2577           00747                                   COSCDUZ
001152: 16,2600           76466                          VDEF     VSL1
001153: 16,2601           02714                          STORE    XNB
001154: 16,2602           41345                          DLOAD    DMP
001155: 16,2603           00743                                   SINCDUX
001156: 16,2604           00741                                   SINCDUZ
001157: 16,2605           77752                          SL1
001158: 16,2606           00033                          STORE    26D
001159: 16,2607           77605                          DMP
001160: 16,2610           00737                                   SINCDUY
001161: 16,2611           41325                          PDDL     DMP
001162: 16,2612           00751                                   COSCDUX
001163: 16,2613           00745                                   COSCDUY
001164: 16,2614           77625                          DSU
001165: 16,2615           41325                          PDDL     DMP
001166: 16,2616           00743                                   SINCDUX
001167: 16,2617           00747                                   COSCDUZ
001168: 16,2620           77676                          DCOMP
001169: 16,2621           41325                          PDDL     DMP
001170: 16,2622           00751                                   COSCDUX
001171: 16,2623           00737                                   SINCDUY
001172: 16,2624           41325                          PDDL     DMP
001173: 16,2625           00745                                   COSCDUY
001174: 16,2626           00033                                   26D
001175: 16,2627           55415                          DAD      VDEF
001176: 16,2630           77772                          VSL1
001177: 16,2631           02730                          STORE    ZNB
001178: 16,2632           76435                          VXV      VSL1
001179: 16,2633           02714                                   XNB
001180: 16,2634           02722                          STORE    YNB
001181: 16,2635           77616                          RVQ
001182:                                                                                                 #  NAME - P51 - IMU ORIENTATION DETERMINATION
001183:                                                                                                 #  MOD.NO.2  21 DEC 66                                                                      LOG SECTION - P51-P53
001184:                                                                                                 #  MOD BY STURLAUGSON                                                                       ASSEMBLY SUNDISK REV15
001185:                                                                                                 # # Page 716
001186:                                                                                                 #  FUNCTIONAL DESCRIPTION
001187:
001188:                                                                                                 #       DETERMINES THE INERTIAL ORIENTATION OF THE IMU. THE PROGRAM IS SELECTED BY DSKY ENTRY. THE SIGHTING
001189:                                                                                                 #  ROUTINE IS CALLED TO COLLECT THE CDU COUNTERS AND SHAFT AND TRUNNION ANGLES FOR A SIGHTED STAR. THE DATA IS
001190:                                                                                                 #  THEN PROCESSED AS FOLLOWS.
001191:
001192:                                                                                                 #    1. SEXTANT ANGLES ARE COMPUTED IN TERMS OF NAVIGATIONAL BASE COORDINATES. LET SA AND TA BE THE SHAFT AND
001193:                                                                                                 #  TRUNNION ANGLES, RESPECTIVELY. THEN,
001194:
001195:                                                                                                 #              -
001196:                                                                                                 #              V  = (SIN(TA)*COS(SA), SIN(TA)*SIN(SA), COS(TA))   (A COLUMN VECTOR)
001197:                                                                                                 #               NB
001198:                                                                                                 #  THE OUTPUT IS A HALF-UNIT VECTOR STORED IN STARM.
001199:
001200:                                                                                                 #    2. THIS VECTOR IN NAV. BASE COORDS. IS THEN TRANSFORMED TO ONE IN STABLE MEMBER COORDINATES.
001201:
001202:                                                                                                 #              -      T  T  T -
001203:                                                                                                 #              V  =  Q *Q *Q *V  , WHERE
001204:                                                                                                 #                     1  2  3  NB
001205:
001206:                                                                                                 #                   ( COS(IG)     0    -SIN(IG) )
001207:                                                                                                 #                   (                           )                            THE GIMBAL ANGLES ARE COMPUTED FROM
001208:                                                                                                 #              Q  = (   0         1        0    ), IG=INNER GIMBAL ANGLE     THE CDU COUNTERS AT NBSM (USING AXIS-
001209:                                                                                                 #               1   (                           )                            ROT AND CDULOGIC)
001210:                                                                                                 #                   ( SIN(IG)     0     COS(IG) )
001211:
001212:
001213:                                                                                                 #                   ( COS(MG)  SIN(MG)     0    )
001214:                                                                                                 #                   (                           )
001215:                                                                                                 #              Q  = (-SIN(MG)  COS(MG)     0    ), MG=MIDDLE GIMBAL ANGLE
001216:                                                                                                 #               2   (                           )
001217:                                                                                                 #                   (   0         0        1    )
001218:
001219:
001220:                                                                                                 #                   (   1         0        0    )
001221:                                                                                                 #                   (                           )
001222:                                                                                                 #              Q  = (    0     COS(OG)  SIN(OG) ), OG=OUTER GIMBAL ANGLE
001223:                                                                                                 #               3   (                           )
001224:                                                                                                 #                   (    0    -SIN(OG)  COS(OG) )
001225:
001226:                                                                                                 #    3. THE STAR NUMBER IS SAVED AND THE SECOND STAR IS THEN SIMILARLY PROCESSED.
001227:
001228:                                                                                                 #    4. THE ANGLE BETWEEN THE TWO STARS IS THEN CHECKED AT CKSDATA.
001229:
001230:                                                                                                 #    5. REFSMMAT IS THEN COMPUTED AT AXISGEN AS FOLLOWS.
001231:                                                                                                 #            -      -
001232:                                                                                                 #        LET S  AND S  BE TWO STAR VECTORS EXPRESSED IN TWO COORDINATE SYSTEMS,A AND B (BASIC AND STABLE MEMBER).
001233:                                                                                                 #             1      2
001234:
001235:                                                                                                 #   DEFINE,    -    -
001236:                                                                                                 # # Page 717
001237:                                                                                                 #              U  = S
001238:                                                                                                 #               A    A1
001239:
001240:                                                                                                 #              -         -    -
001241:                                                                                                 #              V  = UNIT(S  X S  )
001242:                                                                                                 #               A         A1   A2
001243:
001244:                                                                                                 #              -    -   -
001245:                                                                                                 #              W = U X V
001246:                                                                                                 #               A    A   A
001247:                                                                                                 #       AND
001248:                                                                                                 #              -    -
001249:                                                                                                 #              U  = S
001250:                                                                                                 #               B    B1
001251:
001252:                                                                                                 #              -         -    -
001253:                                                                                                 #              V  = UNIT(S  X S  )
001254:                                                                                                 #               B         B1   B2
001255:
001256:                                                                                                 #              -    -   -
001257:                                                                                                 #              W  = U X V
001258:                                                                                                 #               B    B   B
001259:
001260:                                                                                                 #       THEN   -        -       -       -
001261:                                                                                                 #              X  = U  *U + V  *V + W  *W
001262:                                                                                                 #                    B1  A   B1  A   B1  A
001263:
001264:                                                                                                 #              _        _       _       _            (REFSMMAT)
001265:                                                                                                 #              Y  = U  *U + V  *V + W  *W
001266:                                                                                                 #                    B2  A   B2  A   B2  A
001267:
001268:                                                                                                 #              _        _       _       _
001269:                                                                                                 #              Z  = U  *U + V  *V + W  *W
001270:                                                                                                 #                    B3  A   B3  A   B3  A
001271:
001272:                                                                                                 #        THE INPUTS CONSIST OF THE FOUR HALF-UNIT VECTORS STORED AS FOLLOWS
001273:
001274:                                                                                                 #              -
001275:                                                                                                 #              S   IN 6-11 OF THE VAC AREA
001276:                                                                                                 #               A1
001277:
001278:                                                                                                 #              -
001279:                                                                                                 #              S   IN 12-17 OF THE VAC AREA
001280:                                                                                                 #               A2
001281:
001282:                                                                                                 #              -
001283:                                                                                                 #              S   IN STARAD
001284:                                                                                                 #               B1
001285:
001286:                                                                                                 #              -
001287:                                                                                                 # # Page 718
001288:                                                                                                 #              S   IN STARAD +6
001289:                                                                                                 #               B2
001290:
001291:                                                                                                 #  CALLING SEQUENCE
001292:
001293:                                                                                                 #    THE PROGRAM IS CALLED BY THE ASTRONAUT BY DSKY ENTRY.
001294:
001295:                                                                                                 #  SUBROUTINES CALLED.
001296:
001297:                                                                                                 #       GOPERF3
001298:                                                                                                 #       GOPERF1R
001299:                                                                                                 #       GODSPR
001300:                                                                                                 #       IMUCOARS
001301:                                                                                                 #       IMUFIN20
001302:                                                                                                 #       R53
001303:                                                                                                 #       SXTNB
001304:                                                                                                 #       NBSM
001305:                                                                                                 #       MKRELEAS
001306:                                                                                                 #       CHKSDATA
001307:                                                                                                 #       MATMOVE
001308:
001309:                                                                                                 #  ALARMS
001310:
001311:                                                                                                 #       NONE.
001312:                                                                                                 #  ERASABLE INITIALIZATION
001313:
001314:                                                                                                 #       IMU ZERO FLAG SHOULD BE SET.
001315:
001316:                                                                                                 #  OUTPUT
001317:
001318:                                                                                                 #       REFSMMAT
001319:                                                                                                 #       REFSMFLG
001320:
001321:                                                                                                 #  DEBRIS
001322:
001323:                                                                                                 #       WORK AREA
001324:                                                                                                 #       STARAD
001325:                                                                                                 #       STARIND
001326:                                                                                                 #       BESTI
001327:                                                                                                 #       BESTJ
001328:
001329: 14,2000                                          SETLOC   P50S1
001330: 14,2000                                          BANK
001331: 14,3061                                          COUNT    14/P5153
001332:
001333: 14,3061  14,3061               P53               EQUALS   P51
001334: 14,3061           41320        P51               CS       IMODES30
001335: 14,3062           74702                          MASK     BIT9
001336: 14,3063           10000                          CCS      A
001337: 14,3064           03070                          TC       P51A
001338:                                                                                                 # # Page 719
001339: 14,3065           05537                          TC       ALARM
001340: 14,3066           00210                          OCT      210
001341: 14,3067           04106                          TC       GOTOPOOH
001342: 14,3070           04555        P51A              TC       BANKCALL
001343: 14,3071           17607                          CADR     R02ZERO
001344:
001345: 14,3072           34720        P51AA             CAF      PRFMSTAQ
001346: 14,3073           04555                          TC       BANKCALL
001347: 14,3074           20751                          CADR     GOPERF1
001348: 14,3075           04106                          TC       GOTOPOOH                              #  TERM.
001349: 14,3076           03141                          TC       P51B                                  #  V 33
001350: 14,3077           05301                          TC       PHASCHNG
001351: 14,3100           05024                          OCT      05024
001352: 14,3101           13000                          OCT      13000
001353: 14,3102           34714                          CAF      P51ZERO
001354: 14,3103           55155                          TS       THETAD                                #  ZERO THE GIMBALS
001355: 14,3104           55156                          TS       THETAD     +1
001356: 14,3105           55157                          TS       THETAD     +2
001357: 14,3106           33266                          CAF      V6N22
001358: 14,3107           04555                          TC       BANKCALL
001359: 14,3110           20577                          CADR     GODSPRET
001360: 14,3111           33267                          CAF      V41K                                  #  NOW DISPLAY COARSE ALIGN VERB 41
001361: 14,3112           04555                          TC       BANKCALL
001362: 14,3113           20577                          CADR     GODSPRET
001363: 14,3114           04555                          TC       BANKCALL
001364: 14,3115           16602                          CADR     IMUCOARS
001365: 14,3116           04555                          TC       BANKCALL
001366: 14,3117           17516                          CADR     IMUSTALL
001367: 14,3120           05646                          TC       CURTAINS                              #  CAGING OR BAD END
001368: 14,3121           04555                          TC       BANKCALL                              #  SCHEDULE IFAILOK AND IMUFINED TASKS,IN 5
001369: 14,3122           17012                          CADR     IMUFIN20                              #  AND 20 SECS. DIRECT RETURN AND NO STALL,
001370: 14,3123           04555                          TC       BANKCALL                              #  IF CAGING, BUT T4 WILL ZERO C/A ENABLE.
001371: 14,3124           17516                          CADR     IMUSTALL                              #  IF PUT TO SLEEP, IMUFINED WILL WAKE US
001372: 14,3125           05646                          TC       CURTAINS                              #  UP.
001373: 14,3126           06006                          TC       INTPRET
001374: 14,3127           77234                          RTB      VLOAD
001375: 14,3130           31270                                   SET1/PDT
001376: 14,3131           11453                                   ZEROVEC
001377: 14,3132           01472                          STORE    GCOMP
001378: 14,3133           77414                          SET      EXIT
001379: 14,3134           01060                                   DRIFTFLG
001380: 14,3135           05301                          TC       PHASCHNG
001381: 14,3136           05024                          OCT      05024
001382: 14,3137           13000                          OCT      13000
001383: 14,3140           13072                          TCF      P51AA                                 #  COARSE ALIGN DONE - RECYCLE FOR FINE
001384:                                                                                                 # # Page 720
001385:                                                                                                 #     DO STAR SIGHTING AND COMPUTE NEW REFSMMAT
001386:
001387: 14,3141           05301        P51B              TC       PHASCHNG
001388: 14,3142           00014                          OCT      00014
001389: 14,3143           06006                          TC       INTPRET
001390: 14,3144           40331                          SSP      SETPD
001391: 14,3145           00305                                   STARIND                               #  INDEX-STAR 1 OR 2
001392: 14,3146           00000                                   0
001393: 14,3147           00001                                   0
001394: 14,3150           77414                          CLEAR    EXIT
001395: 14,3151           00666                                   TARG2FLG                              #  SHOW START MARK-NOT LAND MARK
001396: 14,3152           34712                          CAF      BIT1
001397: 14,3153           54301                          TS       MARKINDX                              #  INITIALIZE FOR ONE MARK
001398:
001399: 14,3154           05301        P51C              TC       PHASCHNG
001400: 14,3155           05024                          OCT      05024
001401: 14,3156           13000                          OCT      13000
001402: 14,3157           05253                          TC       CHECKMM
001403: 14,3160           00065                          MM       53         B-14                       #  BACKUP PROGRAM
001404: 14,3161           13167                          TCF      P51C.1                                #  NOT P53
001405: 14,3162           06006                          TC       INTPRET
001406: 14,3163           77624                          CALL
001407: 14,3164           32252                                   R56
001408: 14,3165           77650                          GOTO
001409: 14,3166           31172                                   P51C.2
001410: 14,3167           06006        P51C.1            TC       INTPRET
001411: 14,3170           77624                          CALL
001412: 14,3171           31327                                   R53                                   #  SIGHTING ROUTINE
001413: 14,3172           77624        P51C.2            CALL                                           #  COMPUTE LOS IN SM FROM MARK DATA
001414: 14,3173           31273                                   SXTSM
001415: 14,3174           77606                          PUSH
001416: 14,3175           53135                          SLOAD    BZE
001417: 14,3176           00305                                   STARIND
001418: 14,3177           31204                                   P51D
001419: 14,3200           45575                          VLOAD    STADR
001420: 14,3201           75160                          STORE    STARSAV2                              #  DOWNLINK
001421: 14,3202           77650                          GOTO
001422: 14,3203           31212                                   P51E
001423: 14,3204           45575        P51D              VLOAD    STADR
001424: 14,3205           61166                          STODL    STARSAV1
001425: 14,3206           02607                                   TSIGHT
001426: 14,3207           77624                          CALL
001427: 14,3210           32363                                   PLANET
001428: 14,3211           02601                          STORE    PLANVEC
001429: 14,3212           77776        P51E              EXIT
001430: 14,3213           05301                          TC       PHASCHNG
001431: 14,3214           05024                          OCT      05024
001432: 14,3215           13000                          OCT      13000
001433: 14,3216           04555                          TC       BANKCALL
001434: 14,3217           16063                          CADR     MKRELEAS                              #  ZERO MARKSTAT
001435:                                                                                                 # # Page 721
001436: 14,3220           10304                          CCS      STARIND
001437: 14,3221           13230                          TCF      P51F                                  #  STAR 2
001438: 14,3222           05301                          TC       PHASCHNG
001439: 14,3223           05024                          OCT      05024
001440: 14,3224           13000                          OCT      13000
001441: 14,3225           34712                          CAF      BIT1
001442: 14,3226           54304                          TS       STARIND
001443: 14,3227           13154                          TCF      P51C                                  #  GO DO SECOND STAR
001444: 14,3230           05301        P51F              TC       PHASCHNG
001445: 14,3231           05024                          OCT      05024
001446: 14,3232           13000                          OCT      13000
001447: 14,3233           06006                          TC       INTPRET
001448: 14,3234           45145                          DLOAD    CALL
001449: 14,3235           02607                                   TSIGHT
001450: 14,3236           32363                                   PLANET
001451: 14,3237           24015                          STOVL    12D
001452: 14,3240           02601                                   PLANVEC
001453: 14,3241           24007                          STOVL    6D
001454: 14,3242           02611                                   STARSAV1
001455: 14,3243           26736                          STOVL    STARAD
001456: 14,3244           02617                                   STARSAV2
001457: 14,3245           36744                          STCALL   STARAD     +6
001458: 14,3246           30707                                   CHKSDATA                              #  CHECK STAR ANGLES IN STARAD AND
001459: 14,3247           77414                          BON      EXIT
001460: 14,3250           00314                                   FREEFLAG
001461: 14,3251           31253                                   P51G
001462: 14,3252           03072                          TC       P51AA
001463: 14,3253           77624        P51G              CALL
001464: 14,3254           47334                                   AXISGEN                               #  COME BACK WITH REFSMMAT IN XDC
001465: 14,3255           75160                          AXC,1    AXC,2
001466: 14,3256           02713                                   XDC
001467: 14,3257           01735                                   REFSMMAT
001468: 14,3260           45014                          CLEAR    CALL
001469: 14,3261           01662                                   REFSMFLG
001470: 14,3262           31045                                   MATMOVE
001471: 14,3263           52014                          SET      GOTO
001472: 14,3264           01462                                   REFSMFLG
001473: 14,3265           32143                                   ENDP50S
001474: 14,3266     4720               PRFMSTAQ          =        OCT15
001475: 14,3266     4714               P51ZERO           =        ZERO
001476: 14,3266     4715               P51FIVE           =        FIVE
001477: 14,3266           01426        V6N22             VN       0622
001478: 14,3267           12200        V41K              VN       4100
001479: 14,3270           30025        SET1/PDT          CA       TIME1
001480: 14,3271           55074                          TS       1/PIPADT
001481: 14,3272           16030                          TCF      DANZIG
001482:
001483:                                                                                                 # # Page 722
001484:                                                                                                 #     SXTSM COMPUTES AN LOS VECTOR IN SM COORD FROM OCDU AND ICDU MARK DATA
001485:
001486: 14,3273           77620        SXTSM             STQ
001487: 14,3274           00300                                   QMAJ
001488: 14,3275           70740                          LXC,1    DLOAD*
001489: 14,3276           01330                                   MARKSTAT
001490: 14,3277           00001                                   0D,1
001491: 14,3300           02607                          STORE    TSIGHT
001492: 14,3301           66764                          AXC,2    SLOAD*
001493: 14,3302           00304                                   STARIND
001494: 14,3303           46451                                   MKDNCDR,2
001495: 14,3304           76764                          AXC,2    VLOAD*
001496: 14,3305           00154                                   MPAC
001497: 14,3306           00001                                   0,1
001498: 14,3307           10001                          STORE    0,2
001499: 14,3310           77743                          DLOAD*
001500: 14,3311           00006                                   5,1
001501: 14,3312           10006                          STORE    5,2
001502: 14,3313           77624                          CALL
001503: 14,3314           46000                                   SXTNB                                 #  COMPUTE LOS VECTOR FROM OCDU IN MKVAC
001504: 14,3315           62150                          LXA,1    INCR,1
001505: 14,3316           01330                                   MARKSTAT
001506: 14,3317           00002                                   2                                     #  INCREMENT TO BASE ADR OF ICDU
001507: 14,3320           45130                          SXA,1    CALL
001508: 14,3321           00050                                   S1
001509: 14,3322           47541                                   NBSM                                  #  TRANSFORM LOS TO SM
001510: 14,3323           77650                          GOTO
001511: 14,3324           00300                                   QMAJ
001512: 14,3325           03674        MKDNCDR           ECADR    MARKDOWN
001513: 14,3326           03502                          ECADR    MARK2DWN
001514:
001515:                                                                                                 # # Page 723
001516:                                                                                                 #  PROGRAM DESCRIPTION - R53 - SIGHTING MARK ROUTINE
001517:                                                                                                 #  MOD.NO.2  21 DEC 66
001518:                                                                                                 #  MOD BY STURLAUGSON
001519:
001520:                                                                                                 #  FUNCTIONAL DESCRIPTIION:
001521:                                                                                                 #          TO PERFORM A SATISFACTORY NUMBER OF SIGHTING MARKS FOR THE REQUESTING PROGRAM (OR ROUTINE). SIGHTINGS
001522:                                                                                                 #  CAN BE MADE ON A STAR OR LANDMARK. WHEN THE CMC ACCEPTS A MARK IT RECORDS AND STORES 5 ANGLES (3 ICDUS AND 2
001523:                                                                                                 #  OCDUS) AND THE TIME OF THE MARK.
001524:
001525:                                                                                                 #  CALLING SEQUENCE
001526:                                                                                                 #    R53 IS CALLED AND RETURNS IN INTERPRETIVE CODE. RETURN IS VIA QPRET.
001527:                                                                                                 #    THERE IS NO ERROR EXIT IN THIS ROUTINE ITSELF.
001528:
001529:                                                                                                 #  SUBROUTINES CALLED
001530:                                                                                                 #    SXTMARK
001531:                                                                                                 #    OPTSTALL
001532:                                                                                                 #    GOFLASH
001533:
001534:                                                                                                 #  ERASABLE INITIALIZATION
001535:                                                                                                 #    TARGET FLAG - STAR OR LANDMARK
001536:                                                                                                 #    MARKINDX - NUMBER OF MARKS WANTED
001537:                                                                                                 #    STARIND - INDEX TO BESTI OR BESTJ (STAR NUMBER)
001538:                                                                                                 #  OUTPUT
001539:                                                                                                 #    MARKSTAT CONTAINS INDEX TO VACANT AREA WEHRE MARK DATA IS STORED
001540:                                                                                                 #    BESTI (INDEXED BY STARIND) CONTAINS STAR NUMBER SIGHTED
001541:                                                                                                 #  DEBRIS
001542:                                                                                                 #    MARKINDX CONTAINS NUMBER OF MARKS DESIRED
001543: 14,2000                                          SETLOC   RT53
001544: 14,2000                                          BANK
001545:
001546: 14,3327                                          COUNT    14/R53
001547:
001548: 14,3327           43020        R53               STQ      SET                                   #  SET SIGHTING MARK FLAG
001549: 14,3330           03501                                   R53EXIT
001550: 14,3331           00071                                   R53FLAG
001551: 14,3332           77776                          EXIT
001552: 14,3333           30301        R53A              CA       MARKINDX                              #  NUMBER OF MARKS
001553: 14,3334           74716                          MASK     LOW3
001554: 14,3335           04555                          TC       BANKCALL
001555: 14,3336           16002                          CADR     SXTMARK
001556: 14,3337           04555                          TC       BANKCALL
001557: 14,3340           17512                          CADR     OPTSTALL
001558: 14,3341           05646                          TC       CURTAINS
001559: 14,3342           51330                          INDEX    MARKSTAT
001560: 14,3343           10052                          CCS      QPRET                                 #  NUMNBER OF MARKS ACTUALLY DONE
001561: 14,3344           13355                          TCF      R53B
001562: 14,3345           13347                          TCF      +2                                    #  ZERO
001563: 14,3346           13347                          TCF      +1                                    #  CCS HOLE
001564: 14,3347           34714                          CAF      ZERO                                  #  HOUSEKEEP VAC AREA SAVE
001565: 14,3350           57330                          XCH      MARKSTAT                              #   AND MARKSTAT
001566:                                                                                                 # # Page 724
001567: 14,3351           10000                          CCS      A
001568: 14,3352           50000                          INDEX    A
001569: 14,3353           54000                          TS       0
001570: 14,3354           13333                          TCF      R53A
001571: 14,3355           05253        R53B              TC       CHECKMM
001572: 14,3356           00026                          MM       22         B-14
001573: 14,3357           13361                          TCF      +2
001574: 14,3360           13405                          TCF      R53D
001575: 14,3361           05253                          TC       CHECKMM
001576: 14,3362           00027                          MM       23         B-14
001577: 14,3363           13365                          TCF      R53C
001578: 14,3364           13405                          TCF      R53D
001579: 14,3365           33411        R53C              CAF      V01N71
001580: 14,3366           04555                          TC       BANKCALL
001581: 14,3367           20763                          CADR     GOFLASHR
001582: 14,3370           04106                          TC       GOTOPOOH                              #  TERM.
001583: 14,3371           13376                          TCF      R53Z
001584: 14,3372           03365                          TC       R53C                                  #  RECYCLE
001585: 14,3373           36211                          CAF      SIX
001586: 14,3374           05415                          TC       BLANKET
001587: 14,3375           05112                          TC       ENDOFJOB
001588: 14,3376           47713        R53Z              CS       HIGH9
001589: 14,3377           70735                          MASK     STARCODE
001590: 14,3400           00006                          EXTEND
001591: 14,3401           76211                          MP       SIGHTSIX
001592: 14,3402           56001                          XCH      L
001593: 14,3403           50304                          INDEX    STARIND
001594: 14,3404           54302                          TS       BESTI
001595: 14,3405           06006        R53D              TC       INTPRET
001596: 14,3406           77614        R53OUT            SETGO
001597: 14,3407           03420                                   TERMIFLG                              #  SET TERMINATE FOR R52
001598: 14,3410           03501                                   R53EXIT
001599: 14,3411     6211               SIGHTSIX          =        SIX
001600: 14,3411           00307        V01N71            VN       0171
001601:
001602:                                                                                                 # # Page 725
001603:                                                                                                 #  NAME-S52.2
001604:                                                                                                 #  FUNCTION-COMPUTE GIMBAL ANGLES FOR DESIRED SM AND PRESENT VEHICLE
001605:                                                                                                 #  CALL-  CALL  S52.2
001606:                                                                                                 #  INPUT- X,Y,ZSMD
001607:                                                                                                 #  OUTPUT- OGC,IGC,MGC,THETAD,+1,+2
001608:                                                                                                 #  SUBROUTINES-CDUTRIG,CALCSMSC,MATMOVE,CALCGA
001609: 11,2000                                          SETLOC   S52/2
001610: 11,2000                                          BANK
001611:
001612: 11,2256                                          COUNT    13/S52.2
001613: 11,2256           77620        S52.2             STQ
001614: 11,2257           00300                                   QMAJ
001615: 11,2260           77624                          CALL
001616: 11,2261           47432                                   CDUTRIG
001617: 11,2262           77624                          CALL
001618: 11,2263           34567                                   CALCSMSC
001619: 11,2264           66370                          AXT,1    SSP
001620: 11,2265           00022                                   18D
001621: 11,2266           00051                                   S1
001622: 11,2267           00006                                   6D
001623: 11,2270           61373        S52.2A            VLOAD*   VXM
001624: 11,2271           02736                                   XNB        +18D,1
001625: 11,2272           01736                                   REFSMMAT
001626: 11,2273           77656                          UNIT
001627: 11,2274           06736                          STORE    XNB        +18D,1
001628: 11,2275           77700                          TIX,1
001629: 11,2276           22270                                   S52.2A
001630: 11,2277           75160        S52.2.1           AXC,1    AXC,2
001631: 11,2300           00306                                   XSMD
001632: 11,2301           02671                                   XSM
001633: 11,2302           77624                          CALL
001634: 11,2303           31045                                   MATMOVE
001635: 11,2304           77624                          CALL
001636: 11,2305           47244                                   CALCGA
001637: 11,2306           77650                          GOTO
001638: 11,2307           00300                                   QMAJ
001639:
001640:                                                                                                 # # Page 726
001641:                                                                                                 #  PROGRAM NAME - SR52.1           DATE DEC 20  66
001642:                                                                                                 #  MOD 1                           LOG SEC  P51-P53
001643:                                                                                                 #  BY  KEN VINCENT                 ASSEMBLY  SUNDISK REV 40
001644:
001645:                                                                                                 #  FUNCTION
001646:                                                                                                 #   TARG1 AND TARG2 FLAGS ARE LOOKED AT TO DETERMINE IF THE TARGET IS THE
001647:                                                                                                 #   LEM, STAR, OR LANDMARK. IN CASE OF LEM OR LMK,THE PRESENT TIME PLUS
001648:                                                                                                 #   2 SECONDS IS SAVED IN AOPTIME (ALIAS STARAD ,+1 ). IF THE LEM IS
001649:                                                                                                 #   THE TARGET  THEN CONIC UPDATES     OF THE CSM AND LEM ARE MADE TO
001650:                                                                                                 #   THE TIME IN AOPTIME. THE UNIT OF THE DIFFERENCE OF LEM AND CSM
001651:                                                                                                 #   POSITION VECTORS BECOMES THE REFERENCE SIGHTING VECTOR  USED IN THE
001652:                                                                                                 #   COMMON PART OF THIS PROGRAM.
001653:                                                                                                 #   IN THE CASE OF LANDMARK, THE CSM IS UPDATED CONICALLY. THE RADIUS
001654:                                                                                                 #   VECTOR FOR THE LANDMARK IS OBTAINED FROM LALOTORV. BOTH OF THESE ARE
001655:                                                                                                 #   FOUND FOR THE TIME IN AOPTIME. THE UNIT OF THE DIFFERENCE BETWEEN
001656:                                                                                                 #   THE LANDMARK AND CSM RADIUS VECTORS BECOMES THE REFERENCE SIGHTING
001657:                                                                                                 #   VECTOR FOR THE COMMON PART OF THIS ROUTINE.
001658:                                                                                                 #   IF A STAR IS THE TARGET, THE PROPER STAR IS OBTAINED FROM THE CATALOG
001659:                                                                                                 #   AND THIS VECTOR BECOMES THE REFERENCE SIGHTING VECTOR.
001660:                                                                                                 #   THE COMMON PART OF THIS PROGRAM  TRANSFORMS THE REFERENCE SIGHTING
001661:                                                                                                 #   VECTOR INTO STABLE MEMBER COORDINATES. IT READS THE IMU-CDUS AND USES
001662:                                                                                                 #   THIS DATA IN A CALL TO CALCSXA. ON RETURN FROM CALCSXA A TEST IS
001663:                                                                                                 #   MADE TO SEE IF THE TRUNNION ANGLE IS GREATER THAN  90DEG OR 38DEG.
001664:                                                                                                 #   MADE TO SEE IF THE TRUNNION ANGLE IS GREATER THAN 90DEG. OR 50DEG.
001665:
001666:                                                                                                 #  CALLING SEQUENCE
001667:                                                                                                 #  L+4      RETURN WHEN SHAFT OR TRUNION NOT WITHIN 5DEG OF DESIRED
001668:                                                                                                 #  L        TC     BANKCALL
001669:                                                                                                 #  L+1      CADR   SR52.1
001670:                                                                                                 #  L+2      ERROR RETURN   TRUNNION GREATER THAN 90 DEG
001671:                                                                                                 #  L+3      ERROR RETURN   TRUNNION GREATER THAN 50 DEG
001672:                                                                                                 #  L+4      NORMAL RETURN
001673:
001674:                                                                                                 #  OUTPUT
001675:                                                                                                 #  SAC -SINGLE PREC,2S COMP,SCALED AT HALF REVS- SHAFT ANGLE DESIRED
001676:                                                                                                 #  PAC -SINGLE PREC,2S COMP SCALED AT EIGTH REVS - TRUNNION ANGLE DESIRED
001677:
001678:                                                                                                 #  INITIALIZATION
001679:                                                                                                 #  IF TARG1FLG =1 THEN TARGET IS LEM -NO OTHER INPUT REQUIRED
001680:                                                                                                 #  IF TARG1FLG =0 AND TARG2FLG =0 THE TARGET IS STAR, STARIND SHOULD
001681:                                                                                                 #  0 OR 1 DENOTING BESTI OR BESTJ RESPECTIVELY AS STAR CODE. STAR CODES
001682:                                                                                                 #  ARE 6 TIMES STAR NUMBER.
001683:                                                                                                 #  IF TARG1FLG =0 AND TARG2FLG =1 THEN TARGET IS LANDMARK. SEE ROUTINE
001684:                                                                                                 #  LALOTORV FOR INPUT REQUIREMENTS. HERE FIXERAD=1 FOR CONSTANT EARTH
001685:                                                                                                 #  RADIUS
001686:
001687:                                                                                                 #  DEBRIS
001688:                                                                                                 #   WORK AREA
001689:                                                                                                 #   STARAD - STAR+5 (STAR IS DESIRED LOS IN STABLE MEMBER COORDINATES)
001690: 11,2310                                          COUNT*   $$/SR521
001691:                                                                                                 # # Page 727
001692: 13,2000                                          SETLOC   SR52/1
001693: 13,2000                                          BANK
001694:
001695: 13,2176           04604        SR52.1            TC       MAKECADR
001696: 13,2177           55777                          TS       QMIN
001697: 13,2200           06006                          TC       INTPRET
001698: 13,2201           43234                          RTB      DAD
001699: 13,2202           45505                                   LOADTIME
001700: 13,2203           26317                                   1.3SECDP
001701: 13,2204           02356                          STORE    AOPTIME
001702: 13,2205           43014                          BON      BON
001703: 13,2206           00705                                   TARG1FLG
001704: 13,2207           26214                                   LEM52
001705: 13,2210           00706                                   TARG2FLG
001706: 13,2211           26224                                   LMK52
001707: 13,2212           77650                          GOTO
001708: 13,2213           26245                                   STAR52
001709: 13,2214           77745        LEM52             DLOAD
001710: 13,2215           02356                                   AOPTIME
001711: 13,2216           34041                          STCALL   TDEC1
001712: 13,2217           27057                                   LEMCONIC
001713: 13,2220           77775                          VLOAD
001714: 13,2221           00001                                   RATT
001715: 13,2222           77650                          GOTO
001716: 13,2223           26234                                   LMKLMCOM
001717: 13,2224           71214        LMK52             BON      DLOAD
001718: 13,2225           04305                                   ADVTRK
001719: 13,2226           54000                                   ADVTRACK
001720: 13,2227           02356                                   AOPTIME
001721: 13,2230           77624                          CALL
001722: 13,2231           26373                                   LALOTORV
001723: 13,2232           77775                          VLOAD
001724: 13,2233           02152                                   ALPHAV
001725: 13,2234           16766        LMKLMCOM          STODL    STAR
001726: 13,2235           02356                                   AOPTIME
001727: 13,2236           34041                          STCALL   TDEC1
001728: 13,2237           27045                                   CSMCONIC
001729: 13,2240           52375                          VLOAD    VSU
001730: 13,2241           02766                                   STAR
001731: 13,2242           00001                                   RATT
001732: 13,2243           52056                          UNIT     GOTO
001733: 13,2244           26260                                   COM52
001734: 13,2245           72131        STAR52            SSP      LXA,1
001735: 13,2246           00051                                   S1
001736: 13,2247           00000                                   0
001737: 13,2250           00304                                   STARIND
001738: 13,2251           77700                          TIX,1
001739: 13,2252           26256                                   ST52ST
001740: 13,2253           52175                          VLOAD    GOTO
001741: 13,2254           02617                                   STARSAV2
001742:                                                                                                 # # Page 728
001743: 13,2255           26260                                   COM52
001744: 13,2256           77775        ST52ST            VLOAD
001745: 13,2257           02611                                   STARSAV1
001746: 13,2260           53521        COM52             MXV      UNIT
001747: 13,2261           01736                                   REFSMMAT
001748: 13,2262           02766                          STORE    STAR
001749: 13,2263           45001                          SETPD    CALL
001750: 13,2264           00001                                   0
001751: 13,2265           47432                                   CDUTRIG                               #  COMPUTES SINES AND COSINES FOR CALCSXA
001752: 13,2266           77624                          CALL                                           #    NOW EXPECT TO SEE THE CDU ANGLES.
001753: 13,2267           46034                                   CALCSXA
001754: 13,2270           77414                          BOFF     EXIT
001755: 13,2271           01750                                   CULTFLAG
001756: 13,2272           26274                                   TRUN38
001757: 13,2273           02312                          TC       SR52E1
001758: 13,2274           45345        TRUN38            DLOAD    DSU
001759: 13,2275           02776                                   PAC
001760: 13,2276           26315                                   38TRDEG
001761: 13,2277           71244                          BPL      DLOAD
001762: 13,2300           26305                                   SR52E22
001763: 13,2301           02776                                   PAC
001764: 13,2302           51025                          DSU      BPL
001765: 13,2303           26321                                   20DEGSMN
001766: 13,2304           26307                                   SR52E3
001767: 13,2305           77776        SR52E22           EXIT
001768: 13,2306           02311                          TC       SR52E2
001769: 13,2307           77776        SR52E3            EXIT
001770: 13,2310           25777                          INCR     QMIN
001771: 13,2311           25777        SR52E2            INCR     QMIN
001772: 13,2312           31777        SR52E1            CA       QMIN
001773: 13,2313           04561                          TC       SWCALL
001774: 13,2314           25252 25254  38TRDEG           2DEC     .66666667                             #  CORRESPONDS TO 50 DEGS IN TRUNION
001775: 13,2316           00000 00202  1.3SECDP          2DEC     130        B-28
001776: 13,2320           61740        20DEGSMN          DEC      -07199     B-14
001777: 13,2321           77777                          DEC      -0         B-14
001778:
001779:                                                                                                 # # Page 729
001780:                                                                                                 #     THE ADVTRACK ROUTINE IS USED TO COMPUTE AN OPTICS LOS VECTOR TO
001781:                                                                                                 #  A POINT ON THE GROUND TRACK 60 DEGREES FORWARD OF THE LOCAL VERTICAL
001782:                                                                                                 #  OF AN ADVANCED ORBIT A SPECIFIED NUMBER OF REVOLUTIONS FROM NOW
001783:
001784: 26,2000                                          SETLOC   26P50S
001785: 26,2000                                          BANK
001786: 26,2000           77601        ADVTRACK          SETPD
001787: 26,2001           00001                                   0
001788: 26,2002           41575                          VLOAD    PUSH                                  #  INITIALIZE FOR RP-TO-R
001789: 26,2003           15324                                   UNITZ                                 #  UZ VEC IN PD 0-5
001790: 26,2004           41434                          RTB      PUSH                                  #  TIME IN PD 6-7
001791: 26,2005           45505                                   LOADTIME
001792: 26,2006           36356                          STCALL   AOPTIME                               #  TIME ALSO IN AOPTIME FOR CSMCONIC
001793: 26,2007           55341                                   RP-TO-R                               #  GET MOON ROTATION VEC IN REF
001794: 26,2010           16766                          STODL    STAR
001795: 26,2011           02356                                   AOPTIME                               #  PICK UP TIME
001796: 26,2012           34041                          STCALL   TDEC1                                 #  UPDATE STATE TO TIME
001797: 26,2013           27045                                   CSMCONIC
001798: 26,2014           47375                          VLOAD    VXV
001799: 26,2015           00007                                   VATT
001800: 26,2016           00001                                   RATT
001801: 26,2017           77656                          UNIT
001802: 26,2020           24031                          STOVL    24D                                   #  SAVE -UNIT(V X R) FOR 2ND ROTATION
001803: 26,2021           00001                                   RATT
001804: 26,2022           57456                          UNIT     VCOMP
001805: 26,2023           41401                          SETPD    PUSH                                  #  PUSH LOS=-UNIT(RVEC)  PD 0-5
001806: 26,2024           00001                                   0
001807: 26,2025           77776                          EXIT
001808: 26,2026           31751                          CA       LANDMARK
001809: 26,2027           74716                          MASK     SEVEN                                 #  GET NUMBER OF ADVANCE PERIODS
001810: 26,2030           00006                          EXTEND
001811: 26,2031           74700                          MP       BIT11                                 #  GET N/16
001812: 26,2032           56001                          XCH      L
001813: 26,2033           50120                          INDEX    FIXLOC
001814: 26,2034           54036                          TS       30D                                   #  TEMP STORE N/16
001815: 26,2035           06006                          TC       INTPRET
001816: 26,2036           41335                          SLOAD    DMP
001817: 26,2037           00037                                   30D
001818: 26,2040           14107                                   MPERIOD
001819: 26,2041           36356                          STCALL   AOPTIME                               #  ROTATE ANG ABOUT UR
001820: 26,2042           54057                                   ROTA
001821: 26,2043           77775                          VLOAD
001822: 26,2044           00031                                   24D                                   #  PICK UP 2ND ROTATION AXIS
001823: 26,2045           16766                          STODL    STAR
001824: 26,2046           14105                                   DP1/6
001825: 26,2047           77625                          DSU
001826: 26,2050           02356                                   AOPTIME                               #  2ND RAT ANGLE = 60 - A
001827: 26,2051           36356                          STCALL   AOPTIME
001828: 26,2052           54057                                   ROTA                                  #  GO ROTATE 2ND TIME
001829: 26,2053           77775                          VLOAD
001830:                                                                                                 # # Page 730
001831: 26,2054           00001                                   0
001832: 26,2055           36766                          STCALL   STAR                                  #  STORE FINAL LOS IN STAR
001833: 26,2056           26260                                   COM52                                 #  RETURN TO SR52.1
001834:
001835: 26,2057           73545        ROTA              DLOAD    SIN
001836: 26,2060           02356                                   AOPTIME
001837: 26,2061           47315                          PDVL     VXV                                   #  PUSH 1/2SIN(A)  PD  6-7
001838: 26,2062           02766                                   STAR                                  #    UR VEC
001839: 26,2063           00001                                   0                                     #    LOS
001840: 26,2064           72561                          VXSC     VSL2                                  #  1/2SIN(A)(URXLOS)  PD 6-11
001841: 26,2065           50315                          PDVL     DOT
001842: 26,2066           02766                                   STAR
001843: 26,2067           00001                                   0
001844: 26,2070           72561                          VXSC     VSL2
001845: 26,2071           02766                                   STAR
001846: 26,2072           71525                          PDDL     COS                                   #  1/2(UR . LOS)UR  12-17
001847: 26,2073           02356                                   AOPTIME
001848: 26,2074           51315                          PDVL     BVSU                                  #  PUSH 1/2COS(A)  18-19
001849: 26,2075           00015                                   12D
001850: 26,2076           00001                                   0
001851: 26,2077           76561                          VXSC     VSL1                                  #  UP 18-19
001852: 26,2100           53255                          VAD      VAD                                   #  UP 12-17  UP 6-11
001853: 26,2101           40256                          UNIT     SETPD
001854: 26,2102           00001                                   0
001855: 26,2103           43406                          PUSH     RVQ
001856:
001857: 26,2104           05252 25251  DP1/6             2DEC     .16666666
001858: 26,2106           11446 02760  MPERIOD           2DEC     .2992                                 #  APPROX LUNAR ROT ANG IN 2HRS X 16
001859:
001860:                                                                                                 # # Page 731
001861:                                                                                                 #  NAME-S52.3
001862:                                                                                                 #  FUNCTION- XSMD= UNIT(YSMD X ZSMD)
001863:                                                                                                 #            YSMD= UNIT(V X R)
001864:                                                                                                 #            ZSMD= UNIT(-R)
001865:                                                                                                 #  CALL     DLOAD  CALL
001866:                                                                                                 #                  TALIGN
001867:                                                                                                 #                  S52.3
001868:                                                                                                 #  INPUT-   TIME OF ALIGNMENT IN MPAC
001869:                                                                                                 #  OUTPUT-  X,Y,ZSMD
001870:                                                                                                 #  SUBROUTINES- CSMCONIC
001871: 16,2000                                          SETLOC   P50S2
001872: 16,2000                                          BANK
001873:
001874: 16,2636                                          COUNT    15/S52.3
001875: 16,2636           77620        S52.3             STQ
001876: 16,2637           00300                                   QMAJ
001877: 16,2640           34041                          STCALL   TDEC1
001878: 16,2641           27045                                   CSMCONIC
001879: 16,2642           77601                          SETPD
001880: 16,2643           00001                                   0
001881: 16,2644           57575                          VLOAD    VCOMP
001882: 16,2645           00001                                   RATT
001883: 16,2646           77656                          UNIT
001884: 16,2647           24323                          STOVL    ZSMD
001885: 16,2650           00007                                   VATT
001886: 16,2651           53435                          VXV      UNIT
001887: 16,2652           00001                                   RATT
001888: 16,2653           00315                          STORE    YSMD
001889: 16,2654           53435                          VXV      UNIT
001890: 16,2655           00323                                   ZSMD
001891: 16,2656           34307                          STCALL   XSMD
001892: 16,2657           00300                                   QMAJ
001893:
001894:                                                                                                 # # Page 732
001895:                                                                                                 #  PROGRAM DESCRIPTION - R56 - ALTERNATE LOS SIGHTING MARK ROUTINE
001896:
001897:                                                                                                 #  FUNCTIONAL DESCRIPTION
001898:                                                                                                 #         TO PERFORM SIGHTING MARKS FOR THE BACK-UP ALIGNMENT PROGRAMS (P53,P54).  THE ASTRONAUT KNOWS THE
001899:                                                                                                 #  COORDINATES (OPTICS) OF THE ALTERNATE LINE OF SIGHT HE MUST USE FOR THIS ROUTINE.  WHEN THE ASTRONAUT KEYS IN
001900:                                                                                                 #  ENTER IN RESPONSE TO THE FLASHING V50 N25 R1-XXXXX THE CMC STORES THE THREE ICDU ANGLES AND TWO ANGLES DISPLAYED
001901:                                                                                                 #  IN N92.
001902:
001903:                                                                                                 #  CALLING SEQUENCE
001904:                                                                                                 #         CALL
001905:                                                                                                 #               R56
001906:
001907:                                                                                                 #  SUBROUTINES CALLED
001908:                                                                                                 #         A PORTION OF SXTMARK (VAC.AREA SEARCH)
001909:                                                                                                 #         GOFLASH
001910:                                                                                                 #         GOPERF1
001911:
001912:                                                                                                 #  ERASABLE INITIALIZATION
001913:                                                                                                 #         STARIND-INDEX TO STAR NUMBER
001914:
001915:                                                                                                 #  OUTPUT
001916:                                                                                                 #         MARKSTAT-INDEX TO VAC.AREA WHERE OUTPUT IS STORED.
001917:                                                                                                 #         BESTI (INDEXED BY STARIND) CONTAINS STAR NUMBER.
001918:                                                                                                 #         ICDU AND OCDU ANGLES IN VAC. AREA AS FOLLOWS-
001919:                                                                                                 #            VAC +2  CDUY
001920:                                                                                                 #            VAC +3  CDUS
001921:                                                                                                 #            VAC +4  CDUZ
001922:                                                                                                 #            VAC +5  CDUT
001923:                                                                                                 #            VAC +6  CDUX
001924:
001925: 16,2660                                          COUNT*   $$/R56
001926: 15,2000                                          SETLOC   P50S
001927: 15,2000                                          BANK
001928: 15,2252           77776        R56               EXIT
001929: 15,2253           32362                          CAF      V06N94B
001930: 15,2254           04555                          TC       BANKCALL
001931: 15,2255           20624                          CADR     GOFLASH
001932: 15,2256           04106                          TC       GOTOPOOH                              #  TERM.
001933: 15,2257           02261                          TC       R56A                                  #  PROCEED - ANGLES OK
001934: 15,2260           02253                          TC       -5                                    #  ENTER - NEW ANGLES
001935: 15,2261           04555        R56A              TC       BANKCALL
001936: 15,2262           16004                          CADR     SXTMARK    +2                         #  INHIBIR EXT VB ACT AND FIND VAC AREA
001937:
001938: 15,2263           34714                          CAF      ZERO
001939: 15,2264           04555                          TC       BANKCALL
001940: 15,2265           20607                          CADR     CLEANDSP
001941:
001942: 15,2266           32360                          CAF      VB53                                  #  DISPLAY V53 REQUESTING ALTERNATE MARK
001943: 15,2267           04555                          TC       BANKCALL
001944: 15,2270           20470                          CADR     GOMARK2
001945:                                                                                                 # # Page 733
001946: 15,2271           14106                          TCF      GOTOPOOH                              #  V34-TERMINATE
001947: 15,2272           12263                          TCF      R56A       +2                         #  V33-DONT PROCEED-JUST ENTER TO MARK
001948: 15,2273           06006                          TC       INTPRET
001949: 15,2274           77745                          DLOAD
001950: 15,2275           03731                                   MRKBUF1    +3
001951: 15,2276           16774                          STODL    SAC
001952: 15,2277           03733                                   MRKBUF1    +5
001953: 15,2300           02776                          STORE    PAC
001954: 15,2301           77776                          EXIT
001955: 15,2302           00004                          INHINT
001956: 15,2303           00006                          EXTEND
001957: 15,2304           30025                          DCA      TIME2
001958: 15,2305           51330                          INDEX    MARKSTAT
001959: 15,2306           52001                          DXCH     0
001960: 15,2307           30033                          CA       CDUY                                  #  ENTER-THIS IS A BACKUP SYSTEM MARK
001961: 15,2310           51330                          INDEX    MARKSTAT
001962: 15,2311           54002                          TS       2
001963: 15,2312           31773                          CA       SAC
001964: 15,2313           51330                          INDEX    MARKSTAT
001965: 15,2314           54003                          TS       3
001966: 15,2315           30034                          CA       CDUZ
001967: 15,2316           51330                          INDEX    MARKSTAT
001968: 15,2317           54004                          TS       4
001969: 15,2320           31775                          CA       PAC
001970: 15,2321           51330                          INDEX    MARKSTAT
001971: 15,2322           54005                          TS       5
001972: 15,2323           30032                          CA       CDUX
001973: 15,2324           51330                          INDEX    MARKSTAT
001974: 15,2325           54006                          TS       6
001975: 15,2326           00003                          RELINT
001976: 15,2327           05425                          TC       CLEARMRK                              #  ENABLE EXTENDED VERBS
001977: 15,2330           34333                          CAF      OCT16
001978: 15,2331           04555                          TC       BANKCALL
001979: 15,2332           20751                          CADR     GOPERF1
001980: 15,2333           04106                          TC       GOTOPOOH                              #  TERM.
001981: 15,2334           12336                          TCF      R56B                                  #  PROCEED-MARK COMPLETED
001982: 15,2335           12263                          TCF      R56A       +2                         #   RECYCLE - DO ANOTHER MARK - LIKE REJECT
001983: 15,2336           34714        R56B              CAF      ZERO
001984: 15,2337           04555                          TC       BANKCALL
001985: 15,2340           20607                          CADR     CLEANDSP
001986:
001987: 15,2341           32361                          CAF      V01N71B
001988: 15,2342           04555                          TC       BANKCALL
001989: 15,2343           20624                          CADR     GOFLASH
001990: 15,2344           04106                          TC       GOTOPOOH
001991: 15,2345           02347                          TC       +2
001992: 15,2346           12336                          TCF      R56B                                  #  RECYCLE
001993: 15,2347           47713                          CS       HIGH9
001994: 15,2350           70735                          MASK     STARCODE
001995: 15,2351           00006                          EXTEND
001996:                                                                                                 # # Page 734
001997: 15,2352           76211                          MP       SIX
001998: 15,2353           56001                          XCH      L
001999: 15,2354           50304                          INDEX    STARIND
002000: 15,2355           54302                          TS       BESTI
002001: 15,2356           06006                          TC       INTPRET
002002: 15,2357           77616                          RVQ
002003: 15,2360           15200        VB53              VN       05300                                 #  ALTERNATE MARK VERB
002004: 15,2361           00307        V01N71B           VN       00171
002005: 15,2362           01536        V06N94B           VN       00694
002006: 15,2363           02607        PLANET            STORE    TSIGHT
002007: 15,2364           45020                          STQ      CALL
002008: 15,2365           02777                                   QMIN
002009: 15,2366           30216                                   LOCSAM
002010: 15,2367           77775                          VLOAD
002011: 15,2370           02736                                   VEARTH
002012: 15,2371           24001                          STOVL    0D
002013: 15,2372           02744                                   VSUN
002014: 15,2373           26736                          STOVL    VEARTH
002015: 15,2374           00001                                   0D
002016: 15,2375           02744                          STORE    VSUN
002017: 15,2376           77776        NOSAM             EXIT
002018: 15,2377           47713                          CS       HIGH9
002019: 15,2400           70735                          MASK     STARCODE
002020: 15,2401           00006                          EXTEND
002021: 15,2402           76211                          MP       SIGHTSIX
002022: 15,2403           56001                          XCH      L
002023: 15,2404           50304                          INDEX    STARIND
002024: 15,2405           54302                          TS       BESTI
002025: 15,2406           10000                          CCS      A
002026: 15,2407           12423                          TCF      NOTPLAN
002027: 15,2410           32453                          CAF      VNPLANV
002028: 15,2411           04555                          TC       BANKCALL
002029: 15,2412           20624                          CADR     GOFLASH
002030: 15,2413           04106                          TC       GOTOPOOH
002031: 15,2414           02416                          TC       +2
002032: 15,2415           02410                          TC       -5
002033: 15,2416           06006                          TC       INTPRET
002034: 15,2417           53575                          VLOAD    UNIT
002035: 15,2420           02766                                   STAR
002036: 15,2421           77650                          GOTO
002037: 15,2422           32446                                   CORPLAN
002038: 15,2423           40000        NOTPLAN           CS       A
002039: 15,2424           62452                          AD       DEC227
002040: 15,2425           00006                          EXTEND
002041: 15,2426           62437                          BZMF     CALSAM1
002042: 15,2427           50304                          INDEX    STARIND
002043: 15,2430           30302                          CA       BESTI
002044: 15,2431           50120                          INDEX    FIXLOC
002045: 15,2432           54046                          TS       X1
002046: 15,2433           06006                          TC       INTPRET
002047:                                                                                                 # # Page 735
002048: 15,2434           52173                          VLOAD*   GOTO
002049: 15,2435           31751                                   CATLOG,1
002050: 15,2436           32446                                   CORPLAN
002051: 15,2437           06006        CALSAM1           TC       INTPRET
002052: 15,2440           70740                          LXC,1    DLOAD*
002053: 15,2441           00304                                   STARIND
002054: 15,2442           00303                                   BESTI,1
002055: 15,2443           76740                          LXC,1    VLOAD*
002056: 15,2444           00154                                   MPAC
002057: 15,2445           02372                                   STARAD     -228D,1
002058: 15,2446           53455        CORPLAN           VAD      UNIT
002059: 15,2447           03474                                   VEL/C
002060: 15,2450           77650                          GOTO
002061: 15,2451           02777                                   QMIN
002062: 15,2452           00343        DEC227            DEC      227        B-14
002063: 15,2453           01530        VNPLANV           VN       0688

End of include-file P51-P53.agc.  Parent file is MAIN.agc


