
Source Code


000002:                                                                                                  ## Copyright:   Public domain.
000003:                                                                                                  ## Filename:    MAIN.agc
000004:                                                                                                  ## Purpose:     Part of the source code for Colossus build 237.
000005:                                                                                                  ##              This is for the Command Module's (CM) Apollo Guidance
000006:                                                                                                  ##              Computer (AGC), we believe for Apollo 8.
000007:                                                                                                  ## Assembler:   yaYUL
000008:                                                                                                  ## Contact:     Onno Hommes <ohommes@alumni.cmu.edu>
000009:                                                                                                  ## Website:     www.ibiblio.org/apollo/index.html
000010:                                                                                                  ## Page Scans:  www.ibiblio.org/apollo/ScansForConversion/Colossus237/
000011:                                                                                                  ## Mod history: 2010-05-18 OH   Adapted from corresponding Colossus 249 file.
000012:                                                                                                  ##              2010-12-04 JL   Remove Colossus 249 header comments. Change to double-has page numbers.
000013:                                                                                                  ##              2011-02-08 JL   Minor fixes.
000014:                                                                                                  ##              2016-11-02 RSB  Typo (offset-references +2 and +3 not indented).
000015:


000017:                                                                                                  #  PROGRAM:             P61
000018:                                                                                                  #  MOD NO.:             0    MAR. 13, 1967
000019:                                                                                                  #  MOD BY:              R. HIRSCHKOP
000020:                                                                                                  #  MOD NO:  1           MOD BY:  RR BAIRNSFATHER      DATE:  22 JUN 67     RESTARTS.
000021:                                                                                                  #  MOD NO:  2           MOD BY:  RR BAIRNSFATHER      DATE:  17 JAN 68     COLOSSUS GSOP CHANGES.
000022:                                                                                                  #  MOD NO:  3           MOD BY:  RR BAIRNSFATHER      DATE:   8 MAY 68     DELETE CMSM MANEUVER (PCR 50)
000023:                                                                                                  #  FUNCTION:            TO CALCULATE AND DISPLAY EMS INITIALIZATION DATA
000024:                                                                                                  #  CALLING SEQUENCE-    BY V37
000025:                                                                                                  #  EXIT-                TO P62
000026:                                                                                                  #  SUBROUTINE CALLS-    S61.1 , S61.3 , GOFLASH , FLAGUP , R02BOTH
000027:
000028:                                                                                                  #  ERASABLE INITIALIZATION:
000029:                                                                                                  #           EMSALT  (-29) M        .05G ALTITUDE ABOVE FISCHER ELLIPSOID   PAD LOADED.
000030:                                                                                                  #           ALFAPAD  /180          HYPERSONIC CM TRIM ANGLE OF ATTACK      PAD LOADED
000031:                                                                                                  #  OUTPUT:  THE FOLLOWING REGISTERS ARE WRITTEN IN FOR USE BY DISPLAYS
000032:                                                                                                  #           GMAX   100 GMAX  (-14)  G,S     MAXIMUM ACCELERATION
000033:                                                                                                  #           VPRED  (-7)  M/CS      PREDICTED VELOCITY AT 400K FT
000034:                                                                                                  #           GAMMAEI  GAMMA/360     PREDICTED GAMMA    AT 400K FT
000035:                                                                                                  #           RTGO   THETAH/360      RANGE ANGLE TO SPLASH FROM EMSALT       EMSALT IS PAD LOADED
000036:                                                                                                  #           VIO    (-7) M/CS       INERTIAL VELOCITY AT       EMSALT       EMSALT IS PAD LOADED
000037:                                                                                                  #           TTE    (-28) CS        TIME     TO                EMSALT       EMSALT IS PAD LOADED
000038:                                                                                                  #           LAT(SPL)  /360         TARGET LOCATION                         LEFT BY DSKY
000039:                                                                                                  #           LNG(SPL)  /360         TARGET LOCATION                         LEFT BY DSKY
000040:                                                                                                  #           HEADSUP   (0)          +1 = LIFT DOWN, -1 = LIFT UP            LEFT BY DSKY
000041:                                                                                                  #  DEBRIS:  SEE SUBROUTINES.
000042:
000043: 26,2217                                           BANK     26
000044: 26,2000                                           SETLOC   P60S
000045: 26,2000                                           BANK
000046:
000047: 26,2217  E6,1661                                  EBANK=   AOG
000048:
000049: 26,2217                                           COUNT*   $$/P61
000050:
000051: 26,2217           34675        P61                CA       BIT14                                 #  EXTENDED VERB SHOULD BE FREE THIS CLOSE
000052: 26,2220           55044                           TS       EXTVBACT                              #  TO V37
000053:                                                                                                  #                                          LOCK OUT EXTENDED VERBS SO CAN USE TFF
000054:                                                                                                  #                                          ROUTINES.EXT VERB ERASE IS USED
000055:
000056: 26,2221           44712                           CS       ONE                                   #  REMOVE IF HEADSUP EVER ON UPLINK DATA
000057: 26,2222           55726                           TS       HEADSUP                               #  PRELOAD
000058:
000059: 26,2223           02543                           TC       S61.1                                 #  CHECK STATE VECTOR AND IMU ORIENTATION
000060:                                                                                                  #                               RV 60GENRET. DOES PHASCHNG, GROUP 4.
000061:
000062: 26,2224           32424                           CA       V06N61                                #  LAT(SPL)     LNG(SPL)     HEADSUP
000063:                                                                                                  #                                          XXX.XX DEG   XXX.XX DEG   XXXXX.
000064: 26,2225           04555                           TC       BANKCALL
000065: 26,2226           20763                           CADR     GOFLASHR
000066: 26,2227           04106                           TC       GOTOPOOH


000068: 26,2230           02235                           TC       P61.4
000069: 26,2231           02224                           TC       -5
000070:
000071: 26,2232           05301        P61.3              TC       PHASCHNG
000072: 26,2233           00014                           OCT      00014
000073:
000074: 26,2234           05112                           TC       ENDOFJOB
000075:
000076: 26,2235           22007        P61.4              ZL
000077: 26,2236           11726                           CCS      HEADSUP                               #  C(HEADSUP)=  +1/-1
000078: 26,2237           34675                           CA       BIT14                                 #  IF HEADSUP POS,ROLLC =180 DEG.(LIFT DWN)
000079: 26,2240           12241                           NOOP                                           #  IF HEADSUP NEG,ROLLC=0 (LIFT UP)
000080: 26,2241           53716                           DXCH     ROLLC                                 #  ROLLC IS USED BY S62.3: GIM ANG AT .05G
000081:
000082: 26,2242           06006                           TC       INTPRET
000083: 26,2243           77745        NEWRNVN            DLOAD
000084: 26,2244           01205                                    PIPTIME                               #  SAVE TIME OF RN,VN TO DETERMINE IF AN
000085: 26,2245           37651                           STCALL   MM                                    #  UPDATE HAS OCCURRED
000086: 26,2246           52063                                    STARTEN1                              #  INITIALIZE
000087: 26,2247           77775                           VLOAD
000088: 26,2250           01171                                    RN
000089: 26,2251           02327                           STORE    RONE
000090: 26,2252           77656                           UNIT
000091: 26,2253           26343                           STOVL    URONE
000092: 26,2254           01177                                    VN
000093: 26,2255           02335                           STORE    VONE
000094: 26,2256           53435                           VXV      UNIT
000095: 26,2257           02343                                    URONE
000096: 26,2260           03502                           STORE    UNI
000097: 26,2261           45345        DUMPP61            DLOAD    DSU
000098: 26,2262           03651                                    MM                                    #  INITIAL VALUE OF PIPTIME
000099: 26,2263           01205                                    PIPTIME
000100: 26,2264           45040                           BMN      CALRB
000101: 26,2265           54243                                    NEWRNVN                               #  UPDATED... GO TRY AGAIN
000102: 26,2266           54650                                    S61.2                                 #  GET DISPLAY DATA FOR N60 AND N63
000103:                                                                                                  #                                          AND RETURN IN BASIC, BELOW.
000104: 26,2267           05425        P61.1              TC       CLEARMRK
000105: 26,2270           32423                           CA       V06N60                                #  GMAX         VPRED         GAMMAEI
000106:                                                                                                  #                                          XXX.XX G     XXXXX. FPS    XXX.XX DEG
000107: 26,2271           04555                           TC       BANKCALL
000108: 26,2272           20624                           CADR     GOFLASH
000109:
000110: 26,2273           04106                           TC       GOTOPOOH
000111: 26,2274           02276                           TC       P61.2                                 #  PROCEED
000112: 26,2275           02270                           TC       -5
000113:
000114: 26,2276           06006        P61.2              TC       INTPRET                               #  CORRECT  TTE  FOR TIME LAPSE DURING
000115:                                                                                                  #                                          ABOVE DISPLAY.
000116: 26,2277           45234                           RTB      DSU
000117: 26,2300           45505                                    LOADTIME                              #  CURRENT TIME.


000119: 26,2301           03651                                    MM                                    #  PIPTIME FOR RONE & VONE.
000120: 26,2302           77615                           DAD
000121: 26,2303           03733                                    TTE1                                  #  NEGATIVE OF FREE FALL TIME.
000122: 26,2304           03727                           STORE    TTE                                   #  DECREMENTED
000123:
000124: 26,2305           77776                           EXIT
000125:
000126: 26,2306           32425                           CA       V06N63                                #  RTGO         VIO           TTE
000127:                                                                                                  #                                          XXXX.X NM    XXXXX. FPS    XXBXX M,S
000128: 26,2307           04555                           TC       BANKCALL
000129: 26,2310           20624                           CADR     GOFLASH
000130: 26,2311           04106                           TC       GOTOPOOH
000131: 26,2312           02314                           TC       +2
000132: 26,2313           02276                           TC       P61.2                                 #  REDO
000133:
000134:                                                                                                  #                                  .... THEN FALL INTO P62
000135:


000137:                                                                                                  #  PROGRAM-             P62
000138:                                                                                                  #  MOD NO.-             0    MAR. 13, 1967
000139:                                                                                                  #  MOD BY-              R. HIRSCHKOP
000140:                                                                                                  #  MOD NO:  1           MOD BY:  RR BAIRNSFATHER      DATE: 21 MAR 67
000141:                                                                                                  #  MOD NO:  2           MOD BY:  RR BAIRNSFATHER      DATE:  22 JUN 67     RESTARTS.
000142:                                                                                                  #  MOD NO:  3           MOD BY:  RR BAIRNSFATHER      DATE:  17 JAN 68     COLOSSUS GSOP CHANGES.
000143:                                                                                                  #  MOD NO:  4           MOD BY:  RR BAIRNSFATHER      DATE:   8 MAY 68     MOVE START OF DESIRED GIMBAL CALC.
000144:                                                                                                  #  FUNCTION-            1) TO NOTIFY CREW WHEN GNC SYSTEM IS PREPARED FOR CM/SM SEPARATION
000145:                                                                                                  #                       2) TO ORIENT THE CM TO THE CORRECT ATTITUDE FOR ATMOSPHERIC ENTRY
000146:                                                                                                  #  CALLING SEQUENCE-    BY V37 OR DIRECTLY FROM P61
000147:                                                                                                  #  EXIT-                TO P63
000148:                                                                                                  #  ERASABLE INITIALIZATION:
000149:                                                                                                  #           ALFAPAD                                       LEFT BY PAD LOAD
000150:                                                                                                  #           LADPAD                                        LEFT BY PAD LOAD
000151:                                                                                                  #           LODPAD                                        LEFT BY PAD LOAD
000152:                                                                                                  #           LAT(SPL)    (MAY BE CHANGED BELOW)            LEFT BY DSKY, VIA P61
000153:                                                                                                  #           LNG(SPL)    (MAY BE CHANGED BELOW)            LEFT BY DSKY, VIA P61
000154:                                                                                                  #           HEADSUP     (MAY BE CHANGED BELOW)            LEFT BY DSKY, VIA P61
000155:                                                                                                  #  SUBROUTINE CALLS:    NEWMODEX , S61.1 , CM/DAPIC , CM/DAPON , R02BOTH , GOPERF1 , GOFLASH , GODSPR
000156:
000157: 26,2314                                           COUNT*   $$/P62
000158:
000159: 26,2314           05243                           TC       NEWMODEX                              #  MODE CHANGE IF CAME FROM P61.
000160: 26,2315           00076                           MM       62         B-14                       #  MODE CHANGE AUTOMATIC VIA V 37.
000161: 26,2316           34712                           CA       ONE
000162: 26,2317           54332                           TS       DNLSTCOD
000163:
000164: 26,2320           02543        P62                TC       S61.1                                 #  CHECK STATE VECTOR AND IMU ORIENTATION.
000165:
000166: 26,2321           06006                           TC       INTPRET
000167: 26,2322           47131                           SSP      RTB
000168: 26,2323           03325                                    POSEXIT
000169: 26,2324           54402                                    P62.3                                 #  CALCULATE DESIRED .05G GIMBAL ANGLES,
000170:                                                                                                  #                                          WITHOUT DISPLAY.
000171: 26,2325           41630                                    CM/DAPIC                              #  START CM/POSE AND BODY RATE CALC
000172:
000173:                                                                                                  #                                      DOES 2PHSCHNG, OCT 40116, OCT 05024, OCT 13000.
000174:                                                                                                  #                                          CM/DAPIC SETS EBANK = EBAOG
000175:
000176:                                                                                                  #                                          AND RETURNS IN BASIC TO P62.2.
000177: 26,2326           00006        P62.2              EXTEND
000178: 26,2327           32431                           DCA      POSECADR                              #  CONTINUE WITH CM/POSE AFTER AV G.
000179: 26,2330           53223                           DXCH     AVEGEXIT
000180:
000181: 26,2331           34270                           CAF      OCT41                                 #  REQUEST SEPARATION
000182: 26,2332           04555                           TC       BANKCALL
000183: 26,2333           21031                           CADR     GOPERF1R
000184: 26,2334           04106                           TC       GOTOPOOH
000185: 26,2335           02340                           TC       +3                                    #  PROCEED
000186:


000188:                                                                                                  #                                                               NOTE:  NODOFLAG WILL BE SET IN CM/DAPON. <<<
000189: 26,2336           02331                           TC       -5                                    #  ENTER
000190: 26,2337           02232                           TC       P61.3                                 #  FOR PHASCHNG AND ENDOFJOB.
000191:
000192: 26,2340           04574                 +3        TC       POSTJUMP
000193: 26,2341           41550                           CADR     CM/DAPON                              #  DISABLE RCS DAP, ENABLE ENTRY DAP AND
000194:                                                                                                  #                                          DO ATTITUDE HOLD.
000195:
000196:                                                                                                  #                               WILL IDLE UNTIL CM/POSE DOES ONE UPDATE.
000197:                                                                                                  #                               CM/DAPON DOES NO PHASCHNG.
000198:
000199:
000200: 26,2342           32424        P62.1              CA       V06N61                                #  LAT(SPL)     LNG(SPL)      HEADSUP
000201:                                                                                                  #  XXX.XX DEG   XXX.XX DEG    0000X.
000202:
000203:                                                                                                  #                                  TERMINATE  ATTITUDE HOLD. SET UP COMMANDS:
000204:                                                                                                  #                                  ROLLC,  ALFACOM,  BETACOM.   BEGIN MANUVER TO
000205:                                                                                                  #                                  ENTRY ATTITUDE.
000206:
000207: 26,2343           04555                           TC       BANKCALL
000208: 26,2344           20624                           CADR     GOFLASH
000209: 26,2345           02342                           TC       -3
000210: 26,2346           02350                           TC       +2
000211: 26,2347           02342                           TC       -5
000212:
000213: 26,2350           05301                           TC       PHASCHNG
000214: 26,2351           04024                           OCT      04024                                 #  USE ENTRYVN FOR DISPLAY BELOW.
000215:
000216:                                                                                                  #                                          EBANK WAS SET IN CM/DAPON TO EBAOG
000217:
000218: 26,2352           11726                           CCS      HEADSUP                               #  C(HEADSUP) = +/- 1
000219: 26,2353           34675                           CA       BIT14                                 #  IF HEADSUP POS,ROLLC=180 DEG (LIFT DWN)
000220: 26,2354           12355                           NOOP                                           #  IF HEADSUP NEG,ROLLC=0 DEG  (LIFT UP)
000221: 26,2355           55715                           TS       ROLLC
000222: 26,2356           31411                           CA       ALFAPAD                               #  NOMINAL ALFATRIM PAD LOADED, NEG. NO.
000223: 26,2357           22007                           ZL
000224: 26,2360           53604                           DXCH     ALFACOM                               #  SET ALFACOM = ALFA TRIM, BETACOM=0
000225:
000226: 26,2361           34712                           CA       ONE                                   #  PERMITS EXDAP2 TO CHANGE FLAG TO +0
000227: 26,2362           55727                           TS       P63FLAG                               #  AS INDICATOR. STARTS UP P63.
000228:
000229: 26,2363           34745                           CA       V06N22                                #  SET UP DISPLAY FOR CDU DESIRED VALUES
000230: 26,2364           55263                           TS       ENTRYVN                               #  FROM ENTRY ATTITUDE CALC, THAT IS
000231:                                                                                                  #                                          ALREADY GOING.
000232: 26,2365           05435                           TC       UPFLAG                                #  TURN ON ENTRY DISPLAY
000233: 26,2366           00134                           ADRES    ENTRYDSP                              #  ENTRYDSP = 92D  BIT 13  FLAG 6
000234: 26,2367                        SKIP
000235:


000237: 26,2367           41700                           CS       CMDAPMOD                              #  GO DIRECTLY TO P63 IF BODY ATTITUDE
000238: 26,2370           74712                           MASK     ONE                                   #  IS SUCH THAT THE DELAY TASK: WAKEP62
000239: 26,2371           00006                           EXTEND                                         #  WILL BE OMITTED.
000240: 26,2372           12420                           BZF      P63.1                                 #  DISABLE GRP 4, GO TO ENDOFJOB.
000241:
000242:                                                                                                  #                                          (IE, CONTINUE IF CMDAPMOD = -1, OR +0)
000243: 26,2373           02406                           TC       P63
000244:
000245:                                                                                                  #                                  PUT JOB TO SLEEP UNTIL VEHICLE MANUVER HAS
000246:                                                                                                  #                                  REDUCED ALFA TO +/-45 DEG. CONSIDER REMAINING
000247:                                                                                                  #                                  65 DEG (25 DEG IF ALFA NEG) TO ALFA TRIM TO
000248:                                                                                                  #                                  OCCUR AT 3 DEG/SEC, AND TERMINATE P62 AT THAT
000249:                                                                                                  #                                  TIME.
000250:                                                                                                  #                                  TASK WAKEP62 IS CALLED FROM ENTRY DAP.
000251:
000252: 26,2374           34760        WAKEP62            CA       PRIO13
000253: 26,2375           05027                           TC       NOVAC
000254: 26,2376  E6,1661                                  EBANK=   AOG
000255: 26,2376           02406 54066                     2CADR    P63
000256: 26,2400           05213                           TC       TASKOVER
000257:
000258: 26,2401           54402        P62.3CAD           CADR     P62.3
000259:
000260:                                                                                                  #                               EACH 2 SEC, CALCULATE GIMBAL ANGLES FOR ENTRY CON-
000261:                                                                                                  #                               DITIONS THAT WILL HOLD IF REORIENTATION WERE MADE
000262:                                                                                                  #                               AT PRESENT RN, VN. COME HERE FROM CM/POSE AND ALSO
000263:                                                                                                  #                               IN KEPLER PHASE OF ENTRY.
000264: 26,2402           52131        P62.3              SSP      GOTO                                  #  SET RETURN ADDRESS SO THAT   ROUTINE
000265: 26,2403           00053                                    QPRET                                 #  GOES DIRECTLY TO ENTRY GUIDANCE EXIT
000266: 26,2404           53570                                    ENDEXIT                               #  THAT DOES ENTRY DISPLAY ,GRP 5.
000267: 26,2405           20302                                    S62.3                                 #   PUT DESIRED CDU VALUES IN CPHI'S FOR
000268:                                                                                                  #  N22 DISPLAY.
000269:


000271:                                                                                                  #           P63
000272:                                                                                                  #  PROGRAM-             P63
000273:                                                                                                  #  MOD NO.-             0    MAR. 13, 1967
000274:                                                                                                  #  MOD BY-              R. HIRSCHKOP
000275:                                                                                                  #  MOD NO:  1           MOD BY:  RR BAIRNSFATHER      DATE:  22 JUN 67     RESTARTS.
000276:                                                                                                  #  MOD NO:  2           MOD BY:  RR BAIRNSFATHER      DATE:  14 JUL 67     REVISED RESTARTS
000277:                                                                                                  #  FUNCTION-            1) TO INITIALIZE THE ENTRY EQUATIONS
000278:                                                                                                  #                       2) TO CONTINUE TO HOLD THE CM TO THE CORRECT ATTITUDE WITH RESPECT TO THE ATMOSPHERE FOR
000279:                                                                                                  #                          THE ONSET OF ENTRY DECELERATION. ROLL ANGLE IS LIFT UP/DOWN AS SPECIFIED BY HEADSUP.
000280:                                                                                                  #                       3) TO SENSE .05G.
000281:                                                                                                  #  CALLING SEQUENCE-    DIRECTLY FROM P62
000282:                                                                                                  #  EXIT-                TO ENDOFJOB
000283:                                                                                                  #  SUBROUTINE CALLS-    NEWMODEX , GODSPR
000284:
000285: 26,2406                                           COUNT*   $$/P63
000286:
000287: 26,2406           05243        P63                TC       NEWMODEX
000288: 26,2407           00077                           MM       63         B-14
000289:
000290: 26,2410           04555                           TC       BANKCALL                              #  FLUSH N22 DISPLAY, IF ON.  (ONIT DISP
000291: 26,2411           20607                           CADR     CLEANDSP                              #  DURING STATEMENT PASS.)
000292:
000293:                                                                                                  #                                          ARRIVE WITH EBANK = AOG.
000294:
000295: 26,2412           32427                           CA       ENTCADR                               #  CONTINUE AT STARTENT AFTER CM/POSE .
000296:
000297:                                                                                                  #                                  AT END OF STATEMENT, CHANGE ADDRESS IN GOTOADDR
000298:                                                                                                  #                                  TO CONTINUE AT  SCALEPOP  THEREAFTER.
000299:
000300: 26,2413           55724                           TS       POSEXIT
000301:
000302: 26,2414           32426                           CA       V06N64                                #  G            VI            R TO SPLSH
000303:                                                                                                  #                                          XXX.XX G     XXXXX. FPS    XXXX.X NM
000304: 26,2415           55263                           TS       ENTRYVN                               #  FOR DISPLAY CALL IN OVERNOUT.
000305:
000306: 26,2416           44712                           CS       ONE                                   #  IN CASE FLAG IS LEFT AT +1 BY DAP. THE
000307: 26,2417           55727                           TS       P63FLAG                               #  -1 ASSURES THAT EXO-ATM DAP WILL NOT
000308:                                                                                                  #                                          CALL P63 OUT OF SEQUENCE IN P66 .
000309:
000310: 26,2420           05301        P63.1              TC       PHASCHNG
000311: 26,2421           00004                           OCT      00004                                 #  DISABLE. DISPLAY RESTARTED VIA ENTRY.
000312:
000313: 26,2422           05112                           TC       ENDOFJOB
000314:
000315: 26,2423           01474        V06N60             VN       0660
000316: 26,2424           01475        V06N61             VN       0661
000317: 26,2425           01477        V06N63             VN       0663
000318: 26,2426           01500        V06N64             VN       0664
000319: 26,2427           52000        ENTCADR            CADR     STARTENT


000321: 26,2430  E7,1451                                  EBANK=   RTINIT                                #  TO CARY OVER INTO ENTRY STEERING.
000322: 26,2430           03375 76067  POSECADR           2CADR    CM/POSE
000323:


000325:                                                                                                  #  PROGRAM-             P64
000326:                                                                                                  #  MOD NO.-             1     SEPT. 19, 1967
000327:                                                                                                  #  MOD BY-              R. HIRSCHKOP
000328:                                                                                                  #  MOD NO:  2           MOD BY:  RR BAIRNSFATHER      DATE:   8 MAY 68     REVISED COMMENTS FOR COLOSSUS
000329:                                                                                                  #  FUNCTION-            1.  TO START ENTRY GUIDANCE AT .05G SELECTING ROLL  ATTITUDE, CONSTANT DRAG LEVEL, AND
000330:                                                                                                  #                       DRAG THRESHHOLD,  KA  , WHICH ARE KEYED TO THE .05G POINT.
000331:                                                                                                  #                       2.  SELECT FINAL PHASE P67 IF V < 27000 FPS WHEN .2G OCCURS.
000332:                                                                                                  #                       3.  ITERATE FOR UP-CONTROL SOLUTION  P65  IF V > 27000 FPS AND IF ALTITUDE RATE AND DRAG
000333:                                                                                                  #                       LEVEL CONDITIONS ARE SATISFIED. ENTER P65 WHEN CONSTANT DRAG CONTROLLER HAS BROUGHT RANGE
000334:                                                                                                  #                       AS PREDICTED TO WITHIN 25 NM OF DESIRED RANGE.
000335:                                                                                                  #                       4.  SELECT FINAL PHASE  P67  IF NO UP-CONTROL SOLUTION EXISTS WITH VL > 18000 FPS.
000336:                                                                                                  #  CALLING SEQUENCE-    BY RTB FROM REENTRY CONTROL
000337:                                                                                                  #  EXIT-                BACK TO REENTRY CONTROL
000338:                                                                                                  #  SUBROUTINE CALLS-    NEWMODEX
000339:
000340:
000341: 26,2432                                           BANK     26
000342: 26,2000                                           SETLOC   P60S1
000343: 26,2000                                           BANK
000344:
000345:                                                                                                  #           THIS DISPLAY IS CALLED EACH PASS THROUGH STEERING. RESTART PROTECTION IS VIA STEERING.
000346:
000347: 26,2432                                           COUNT*   $$/P64
000348:
000349: 26,2432           05243        P64                TC       NEWMODEX                              #  ENTER VIA RTB WHEN .05G IS EXCEEDED.
000350: 26,2433           00100                           MM       64         B-14
000351: 26,2434           32437                           CA       V06N68                                #  ROLLC        VI            HDOT
000352:                                                                                                  #                                          XXX.XX DEG   XXXXX. FPS    XXXXX. FPS
000353: 26,2435           55263                           TS       ENTRYVN                               #  DISPLAY VIA OVERNOUT.
000354:
000355: 26,2436           06030                           TC       DANZIG                                #  ... AND CONTINUE IN INITROLL ...
000356:
000357:
000358: 26,2437           01504        V06N68             VN       0668
000359:


000361:                                                                                                  #  PROGRAM:             P65
000362:                                                                                                  #  MOD NO:  0           MOD BY:  RR BAIRNSFATHER      DATE:  17 JAN 68     COLOSSUS GSOP ADDITION.
000363:                                                                                                  #  FUNCTION:            TO CONTINUE ENTRY GUIDANCE, USING THE UP-CONTROL PHASE TO STEER TO A CONTROLLED EXIT
000364:                                                                                                  #                       CONDITION. THIS PHASE TERMINATES  A) IF D  < Q7 FPSS, GO TO P66   ,
000365:                                                                                                  #                                                         B) IF RDOT NEG, AND IF V < VL +500 FPS, GO TO P67.
000366:                                                                                                  #  CALLING SEQUENCE:    BY RTB FROM REENTRY CONTROL
000367:                                                                                                  #  EXIT:                BACK TO REENTRY CONTROL, OR TO ENDOFJOB.
000368:                                                                                                  #  SUBROUTINE CALLS:    NEWMODEX
000369:
000370: 26,2440                                           COUNT*   $$/P65
000371:
000372: 26,2440           05243        P65                TC       NEWMODEX                              #  ENTER VIA RTB WHEN RANGE < 25 N M OF
000373: 26,2441           00101                           MM       65         B-14                       #  TARGET.
000374:
000375: 26,2442           34760                           CA       PRIO13
000376: 26,2443           05027                           TC       NOVAC
000377: 26,2444     1263                                  EBANK=   ENTRYVN
000378: 26,2444           02456 54062                     2CADR    P65.1
000379: 26,2446           05261                           TC       2PHSCHNG                              #  2 PHASE CHG REQUIRED TO PREVENT RE-
000380: 26,2447           00554                           OCT      00554                                 #  STARTING FLASHING DISPLAY TWICE.
000381: 26,2450           10035                           OCT      10035                                 #  4.55 SPOT AND SERVICER, HERE.
000382: 26,2451           06006                           TC       INTPRET
000383: 26,2452           47131                           SSP      RTB
000384: 26,2453           03646                                    GOTOADDR                              #  CHANGE ENTRY MODE TO UPCONTRL.
000385: 26,2454           53027                                    UPCONTRL
000386: 26,2455           52120                                    REFAZE10                              #  GO HERE TO REESTABLISH ENTRY SEQUENCER.
000387:                                                                                                  #                                          AND CONTINUE AT UPCONTRL...
000388:
000389: 26,2456           05447        P65.1              TC       DOWNFLAG
000390: 26,2457           00134                           ADRES    ENTRYDSP                              #  ENTRYDSP = 92D  BIT 13 FLAG 6
000391:
000392: 26,2460           32472                           CA       V16N69                                #  ROLLC        DL  (Q7)      VL
000393: 26,2461           04555                           TC       BANKCALL                              #  XXX.XX DEG   XXX.XX G      XXXXX. FPS
000394: 26,2462           20763                           CADR     GOFLASHR
000395: 26,2463           02460                           TC       -3                                    #  NODOFLAG IS SET..
000396: 26,2464           02467                           TC       +3
000397: 26,2465           02460                           TC       -5
000398: 26,2466           02232                           TC       P61.3                                 #  EST. GRP 4 FOR DSPLAY AND DO ENDOFJOB
000399:                                                                                                  #                                          IF PROCEED, CONTINUE
000400: 26,2467           05435                           TC       UPFLAG
000401: 26,2470           00134                           ADRES    ENTRYDSP                              #  ENTRYDSP = 92D   BIT 13 FLAG 6
000402:
000403: 26,2471           02420                           TC       P63.1                                 #  DISABLE GRP 4,START UP ENTRY DISPLAY
000404:
000405:                                                                                                  #                                          N06V68 VIA OVERNOUT, AS USED IN P64.
000406:
000407: 26,2472           04105        V16N69             VN       1669
000408:


000410:                                                                                                  #  PROGRAM:             P66
000411:                                                                                                  #  MOD NO:  0           MOD BY:  RR BAIRNSFATHER      DATE:  17 JAN 68     COLOSSUS GSOP ADDITIONS.
000412:                                                                                                  #  FUNCTION:            KEEP CM ATTITUDE IN TRIM TO THE RELATIVE VELOCITY VECTOR. ENTRY GUIDANCE STOPS GENERATING
000413:                                                                                                  #                       ROLL COMMANDS UNTIL DRAG BUILDS UP TO  Q7+0.5 FPSS.
000414:
000415:                                                                                                  #  CALLING SEQUENCE:    VIA RTB FROM REENTRY CONTROL.
000416:                                                                                                  #  EXIT:                BACK TO REENTRY CONTROL.
000417:                                                                                                  #  SUBROUTINE CALLS:    NEWMODEX
000418:
000419: 26,2473                                           COUNT*   $$/P66
000420:
000421: 26,2473           05243        P66                TC       NEWMODEX                              #  ENTER VIA RTB WHEN D < Q7 FPSS
000422: 26,2474           00102                           MM       66         B-14
000423:
000424: 26,2475           34745                           CA       V06N22                                #  OGA          IGA           MGA
000425:                                                                                                  #  XXX.XX DEG   XXX.XX DEG    XXX.XX DEG
000426: 26,2476           02502                           TC       P66END                                #  IN CASE CAME FROM P65, GO TO DISABLE GRP4,
000427:                                                                                                  #                                          AND SET ENTRYDSP TO DO DISPLAY VIA
000428:                                                                                                  #                                          OVERNOUT.
000429:                                                                                                  #                                          ... AND CONTINUE AT KEP2
000430:


000432:                                                                                                  #  PROGRAM:      P67
000433:                                                                                                  #  MOD NO:       0       MAR. 16, 1967
000434:                                                                                                  #  MOD BY:       R. HIRSCHKOP
000435:                                                                                                  #  FUNCTION:     TO TERMINATE STEERING WHEN THE CM VELOCITY WRT EARTH = 1000 FT/SEC
000436:                                                                                                  #  CALLING SEQUENCE:
000437:                                                                                                  #  EXIT:         TO P00H
000438:                                                                                                  #  SUBROUTINE CALLS:  GOFLASH
000439:
000440:                                                                                                  #  THIS DISPLAY IS CALLED EACH PASS THROUGH STEERING.  RESTART PROTECTION IS VIA STEERING.
000441:
000442: 26,2477                                           COUNT*   $$/P67
000443:
000444: 26,2477           05243        P67                TC       NEWMODEX                              #  ENTER VIA RTB
000445: 26,2500           00103                           MM       67         B-14
000446: 26,2501           32510                           CA       V06N66                                #  ROLLC         XRNGERR         DNRNGERR
000447:                                                                                                  #  XXX.XX DEG    XXXX.X NM       XXXX.X NM
000448: 26,2502           55263        P66END             TS       ENTRYVN                               #  DISPLAY VIA OVERNOUT.
000449:
000450: 26,2503           05435                           TC       UPFLAG                                #  (IN CASE CAME FROM P65. ENTRY DISPLAY
000451: 26,2504           00134                           ADRES    ENTRYDSP                              #  WILL FLUSH FLASHING DISP. IF STILL ON)
000452:                                                                                                  #                                          BIT 13 FLAG 6
000453: 26,2505           05301        KILLGRP4           TC       PHASCHNG                              #  DISABLE GRP4, IN CASE CAME FROM HUNTEST.
000454: 26,2506           00004                           OCT      00004                                 #  (COME TO KILLGRP4 VIA RTB,RET TO CALLER)
000455:
000456: 26,2507           06030                           TC       DANZIG                                #  ... AND CONTINUE AT PREDICT3 ...
000457:
000458: 26,2510           01502        V06N66             VN       0666
000459:
000460: 26,2511                                           BANK     26
000461: 26,2000                                           SETLOC   P60S2
000462: 26,2000                                           BANK
000463:
000464: 26,2511           32542        P67.1              CA       V16N67                                #  RTOGO        LAT           LONG
000465:                                                                                                  #  XXXX.X NM    XXX.XX DEG    XXX.XX DEG
000466: 26,2512           04555                           TC       BANKCALL
000467: 26,2513           20624                           CADR     GOFLASH
000468: 26,2514           02517                           TC       +3                                    #  EFFECTIVE GOTOPOOH
000469: 26,2515           02517                           TC       +2
000470: 26,2516           02511                           TC       P67.1                                 #  REDO
000471:
000472: 26,2517           46214                           CS       THREE                                 #  TURN OFF ENTRY DAP
000473: 26,2520           00004                           INHINT
000474: 26,2521           70102                           MASK     CM/FLAGS                              #  CM/DSTBY , GAMDIFSW
000475: 26,2522           54102                           TS       CM/FLAGS
000476: 26,2523           00003                           RELINT
000477: 26,2524           00006                           EXTEND
000478: 26,2525           32642                           DCA      SERVCAD2


000480: 26,2526           53223                           DXCH     AVEGEXIT
000481: 26,2527           14106                           TCF      GOTOPOOH
000482:


000484: 26,2530           43175        P67.2              VLOAD    CLEAR                                 #  CALC PRESENT LAT, LONG, ALT.
000485: 26,2531           01171                                    RN
000486: 26,2532           00662                                    ERADFLAG                              #  USE PAD RAD FOR ALT.(NOT SEEN ANYWAY)
000487: 26,2533           16152                           STODL    ALPHAV
000488: 26,2534           01205                                    PIPTIME                               #  USE TIME OF RN
000489: 26,2535           45014                           CLEAR    CALL
000490: 26,2536           01663                                    LUNAFLAG
000491: 26,2537           26322                                    LAT-LONG
000492: 26,2540           77634        P67.3              RTB                                            #  ENTRY EXIT THAT OMITS DISPLAY.
000493: 26,2541           53603                                    SERVNOUT
000494:
000495: 26,2542           04103        V16N67             VN       1667
000496: 26,2543     4270               OCT41              =        33DEC
000497: 26,2543  26,2641               SERVCAD2           =        SERVCAD1
000498:


000500:                                                                                                  #  SUBROUTINE NAME:     S61.1
000501:                                                                                                  #  MOD NO:  0                                                              DATE: 21 FEB 67
000502:                                                                                                  #  MOD BY:  RR BAIRNSFATHER                              LOG SECTION:    P61-P67
000503:                                                                                                  #  MOD NO:  1           MOD BY:  RR BAIRNSFATHER         DATE:           22 JUN 67       RESTARTS.
000504:                                                                                                  #  FUNCTIONAL DESCRIPTION:     CALLED BY BOTH P61 AND P62
000505:                                                                                                  #           FIRST,TEST TO SEE IF   AVERAGEG   IS ON. IF NOT, UPDATE THE STATE VECTOR TO PRESENT TIME + TOLERANCE
000506:                                                                                                  #           AND TURN ON   AVERAGEG   AT THAT TIME, AND CONTINUE.   OTHERWISE CONTINUE:   SEE IF  IMU Y AXIS IS
000507:                                                                                                  #           WITHIN 30 DEG OF V*R.  IF YES, EXIT SUBROUTINE S61.1.    IF NO,  SEE IF -Y AXIS OF IMU IS WITHIN
000508:                                                                                                  #           30 DEG OF V*R.   IF YES, DISPLAY ALARM:  01427   IMU REVERSED.
000509:                                                                                                  #                            IF NO, DISPLAY ALARM:   01426   IMU UNSATISFACTORY.
000510:                                                                                                  #           IN EITHER OF THESE LAST 2 CASES, WAIT  10 SEC  AND THEN EXIT SUBROUTINE  S61.1.
000511:
000512:                                                                                                  #  REMARK:              THERE WILL BE A SHORT 10 SEC DELAY IF AN ALARM EXIT IS TAKEN. THE DELAY FOR INTEGRATION IS
000513:                                                                                                  #                       AS SHORT AS CAN BE MADE, BUT IS ARBITRARY SINCE IT  DEPENDS ON THE AGE OF THE STATE VECTOR.
000514:
000515:                                                                                                  #  CALLING SEQUENCE:  CALL
000516:                                                                                                  #                            S61.1
000517:                                                                                                  #                     C(MPAC) UNSPECIFIED
000518:                                                                                                  #                     PUSHLOC UNSPECIFIED
000519:
000520:                                                                                                  #  SUBROUTINES CALLED:  LOADTIME, CSMPREC, TPAGTREE,
000521:                                                                                                  #                       WAITLIST, JOBSLEEP, JOBWAKE, PREREAD, ALARM, GODSPR, BANKCALL, DELAYJOB
000522:                                                                                                  #  NORMAL EXIT MODES:   RVQ
000523:                                                                                                  #  ALARMS:  01426     IMU UNSATISFACTORY
000524:                                                                                                  #           01427     IMU REVERSED
000525:                                                                                                  #  OUTPUT:  POSSIBLE ALARMS
000526:                                                                                                  #           POSSIBLY TDEC1, RATT, VATT, RN, VN
000527:                                                                                                  #  ERASABLE INITIALIZATION REQUIRED:
000528:                                                                                                  #           AVEGFLAG               AVERAGEG ON OR OFF                      LEFT BY SERVICER
000529:                                                                                                  #           PIPTIME  (-28) CS      TIME OF PIPA UPDATE                     LEFT BY READACCS
000530:                                                                                                  #           RN     (-29) M         STATE VECTOR                            LEFT BY AVERAGEG
000531:                                                                                                  #           VN     (-7) M/CS       STATE VECTOR                            LEFT BY AVERAGEG
000532:                                                                                                  #           REFSMMAT  (-1)         .5 REF TO SM MATRIX                     LEFT BY LAST IMU ALIGNMENT
000533:                                                                                                  #  DEBRIS:  QPRET
000534:                                                                                                  #           POSSIBLY PIPTIME1, RATT, VATT, TDEC1, RN1, VN1, QTEMP, X1      IF UPDATED
000535:                                                                                                  #           PUSH LIST LOCS USED BY CSMPREC
000536:
000537: 26,2543  E6,1661                                  EBANK=   AOG                                   #  FOR 60GENRET , S61DT
000538: 26,2543                                           BANK     26
000539: 26,2000                                           SETLOC   P60S3
000540: 26,2000                                           BANK
000541:
000542: 26,2543                                           COUNT*   $$/S61.1
000543:
000544: 26,2543           00006        S61.1              EXTEND
000545: 26,2544           23773                           QXCH     60GENRET                              #  SAVE RET ADDR IN EB 6
000546: 26,2545           04555                           TC       BANKCALL
000547: 26,2546           17573                           CADR     R02BOTH
000548: 26,2547           06006                           TC       INTPRET


000550: 26,2550           45014                           BON      CALRB
000551: 26,2551           00716                                    AVEGFLAG                              #  IS AVERAGEG ON
000552: 26,2552           54603                                    S61.1A                                #  YES
000553: 26,2553           27570                                    MIDTOAV2                              #  GET FUTURE STATE VECTOR SOON AS CAN
000554:
000555: 26,2554           30155                           CA       MPAC       +1                         #  RETURN INHINTED ***
000556: 26,2555           55774                           TS       S61DT                                 #  FOR RESTART.
000557: 26,2556           05140                           TC       WAITLIST
000558: 26,2557  E7,1431                                  EBANK=   DVCNTR
000559: 26,2557           02564 54067                     2CADR    S61.1C
000560: 26,2561           05301                           TC       PHASCHNG
000561: 26,2562           40434                           OCT      40434
000562: 26,2563           05112                           TC       ENDOFJOB
000563:
000564: 26,2564           34760        S61.1C             CA       PRIO13
000565: 26,2565           05042                           TC       FINDVAC
000566: 26,2566  E6,1661                                  EBANK=   AOG
000567: 26,2566           02602 54066                     2CADR    S61.1A     -1
000568:
000569: 26,2570           00006                           EXTEND
000570: 26,2571           32642                           DCA      SERVCAD1                              #  HE WHO STARTS AVERAGEG MUST SERVICE
000571: 26,2572           53223                           DXCH     AVEGEXIT                              #  THE EXIT.
000572:
000573: 26,2573           05261                           TC       2PHSCHNG
000574: 26,2574           00454                           OCT      00454
000575: 26,2575           00415                           OCT      00415
000576:
000577: 26,2576           34753                           CA       EBENTRY                               #  SET EB= 7 FOR PREREAD.
000578: 26,2577           54003                           TS       EBANK
000579:
000580: 26,2600           04574                           TC       POSTJUMP
000581: 26,2601           76604                           CADR     PREREAD                               #  PREREAD DOES TC TASKOVER.
000582:
000583: 26,2602           06006                           TC       INTPRET
000584: 26,2603           77204        S61.1A             BOVB     VLOAD
000585: 26,2604           57314                                    TCDANZIG                              #  TURN OFF OVFIND, IF ON
000586: 26,2605           01177                                    VN                                    #  VN   (-7) M/CS
000587: 26,2606           64235                           VXV      MXV
000588: 26,2607           01171                                    RN                                    #  RN  (-29)  M
000589: 26,2610           01736                                    REFSMMAT                              #  .5 UNIT MATRIX
000590: 26,2611           71256                           UNIT     DLOAD
000591: 26,2612           00160                                    MPAC       +3                         #  GET  COS(THETA)/2
000592: 26,2613           43240                           BMN      DAD
000593: 26,2614           54621                                    S61.1B                                #  DO TEST ON -YSM
000594: 26,2615           14644                                    C(30)LIM                              #  = 1.0 -.5 COS(30)
000595: 26,2616           47004                           BOVB     RTB
000596: 26,2617           54640                                    RETRN1
000597: 26,2620           54625                                    RETRN3


000599: 26,2621           43276        S61.1B             DCOMP    DAD
000600: 26,2622           14644                                    C(30)LIM                              #  = 1.0- .5 COS(30)
000601: 26,2623           77404                           BOVB     EXIT
000602: 26,2624           54630                                    RETRN2
000603:
000604: 26,2625           05537        RETRN3             TC       ALARM
000605: 26,2626           01426                           OCT      01426                                 #  IMU UNSATISFACTORY
000606: 26,2627           02632                           TC       RETRN2     +2
000607:
000608: 26,2630           05537        RETRN2             TC       ALARM
000609: 26,2631           01427                           OCT      01427                                 #  IMU REVERSED
000610:
000611: 26,2632           34743                 +2        CAF      V05N09
000612: 26,2633           04555                           TC       BANKCALL
000613: 26,2634           20602                           CADR     GODSPR                                #  DO DISPLAY
000614: 26,2635           32645                           CA       10SECS
000615: 26,2636           04555                           TC       BANKCALL
000616: 26,2637           01730                           CADR     DELAYJOB
000617:
000618: 26,2640           01773        RETRN1             TC       60GENRET
000619:
000620: 26,2641  E7,1431                                  EBANK=   DVCNTR
000621: 26,2641           03136 76067  SERVCAD1           2CADR    SERVEXIT
000622: 26,2643           22111 17335  C(30)LIM           2DEC     .566985                               #  = 1.0 - .5 COS(30)
000623: 26,2645           01750        10SECS             DEC      1000       B-14                       #  1000 CS
000624: 26,2646           00000 13560  60SECDP            2DEC     6000       B-28                       #  6000 CS
000625:


000627:                                                                                                  #  PROGRAM NAME:      S61.2                                                DATE:           14 FEB 67
000628:                                                                                                  #  MOD NO:  1                                                              LOG SECTION:    P61-P67
000629:                                                                                                  #  MOD BY:  MORTH / BAIRNSFATHER
000630:                                                                                                  #  MOD NO:  2           MOD BY:  MORTH/BAIRNSFATHER   DATE:  11 MAY 67     ADD 2ND ITER FOR ERAD AT 400K FT.
000631:                                                                                                  #  MOD NO:  3           MOD BY:  RR BAIRNSFATHER      DATE:  21 NOV 67     VARIABLE MU ADDED.
000632:                                                                                                  #  MOD NO:  4           MOD BY:  RR BAIRNSFATHER      DATE:  21 MAR 68     DIFFERENT EARTH/MOON SCALES IN TFF'S
000633:                                                                                                  #  FUNCTIONAL DESCRIPTION:      CALLED IN P61.  PROVIDES DISPLAYS FOR NOUNS  N60  AND  N63  .
000634:                                                                                                  #           PROGRAM CALCULATES ENTRY DISPLAY OF MAXIMUM ACCELERATION EXPECTED  (GMAX)  AND ALSO THE EXPECTED
000635:                                                                                                  #           INERTIAL VELOCITY (VPRED) AND ENTRY ANGLE   (GAMMABI)   THAT WILL OBTAIN AT 400K FT ABOVE THE FISCHER
000636:                                                                                                  #           ELLIPSOID.   PROGRAM ALSO CALCULATES A SECOND DISPLAY RELATIVE  TO THE EMSALT  ABOVE FISCHER ELLIPSOID
000637:                                                                                                  #           AND CONSISTS OF RANGE TO SPLASH FROM NOW (RTGO) , PREDICTED INERTIAL VELOCITY (VIO) , AND THE TIME TO
000638:                                                                                                  #           GO FROM NOW (TTE) .
000639:                                                                                                  #  CALLING SEQUENCE:  CALL
000640:                                                                                                  #                            S61.2
000641:                                                                                                  #           C(MPAC) UNSPECIFIED
000642:                                                                                                  #           PUSHLOC WILL BE SET TO ZERO.
000643:
000644:                                                                                                  #  SUBROUTINES CALLED:  TFFCONIC,  CALCTFF,  TFF/TRIG,  FISHCALC,  GETERAD,  VGAMCALC
000645:                                                                                                  #  NORMAL EXIT MODES:    RTB  P61.1
000646:                                                                                                  #  ALARMS:  NONE
000647:                                                                                                  #  OUTPUT:  THE FOLLOWING REGISTERS ARE WRITTEN IN FOR USE BY DISPLAYS
000648:                                                                                                  #           GMAX   100 GMAX  (-14)  G,S     MAXIMUM ACCELERATION
000649:                                                                                                  #           VPRED  (-7)  M/CS      PREDICTED VELOCITY AT 400K FT
000650:                                                                                                  #           GAMMAEI  GAMMA/360     PREDICTED GAMMA    AT 400K FT
000651:                                                                                                  #                                  FOR TM, DP(GAMMAEI) = (GAMMAEI, RTGO) / 360
000652:                                                                                                  #           RTGO   THETAH/360      RANGE ANGLE TO SPLASH FROM EMSALT       EMSALT IS PAD LOADED
000653:                                                                                                  #           VIO    (-7) M/CS       INTERTIAL VELOCITY AT      EMSALT       EMSALT IS PAD LOADED
000654:                                                                                                  #           TTE    (-28) CS        TIME TO                    EMSALT       EMSALT IS PAD LOADED
000655:
000656:                                                                                                  #           PUSHLOC = 0
000657:                                                                                                  #           CONIC PARAMETERS STORED IN VAC AREA (SEE TFF SUBROUTINES)
000658:                                                                                                  #  ERASABLE INITIALIZATION REQUIRED:
000659:                                                                                                  #           RONE   (-29) M         STATE VECTOR                            LEFT BY USER
000660:                                                                                                  #           VONE   (-7)  M/CS      STATE VECTOR                            LEFT BY USER
000661:                                                                                                  #           URONE  UR/2                                                    LEFT BY USER
000662:                                                                                                  #           UNI    (-1)            UNIT NORMAL V*R                         LEFT BY ENTRY / P61
000663:                                                                                                  #           THETAH  THETAH/360     RANGE ANGLE                             LEFT BY ENTRY / P61
000664:                                                                                                  #           UNITW  (0)             UNIT POLAR VECTOR                       LEFT BY  PAD LOAD
000665:                                                                                                  #           EMSALT  (-29) M        EMS INTERFACE ALTITUDE                  LEFT BY  PAD LOAD
000666:                                                                                                  #                                  ORBITAL REENTRY:  284643 FT, LUNAR REENTRY:  297431 FT.
000667:                                                                                                  #  DEBRIS:  QPRET,
000668:                                                                                                  #           ALL PDL LOCATIONS ABOVE 12D, INCLUDING X1,X2,S1,S2
000669:                                                                                                  #           ALSO PDL+0 ... PDL+5, WHERE INITIAL PUSHLOC = PDL
000670:


000672:
000673:
000674:                                                                                                  #  THE FOLLOWING PUSH LIST LOCATIONS HAVE BEEN RESERVED FOR TFF ROUTINES AND ARE REPEATED HERE FOR CONVENIENCE.
000675:
000676:                                                                                                  #  OF COURSE  FOR S61.2 USAGE, EARTH ORIGIN SCALING IS USED.
000677:
000678:                                                                                                  #                                                               BELOW      E:   IS USED FOR EARTH ORIGIN SCALE
000679:                                                                                                  #                                                                          M:   IS USED FOR MOON ORIGIN SCALE
000680:
000681:                                                                                                  #                                          RTERM    =      18D             TERMINAL RADIUS M  E: (-29)  M: (-27)
000682:                                                                                                  #                                          NRTERM   =      16D             TERMINAL RADIUS M  E: (-29+NR)
000683:                                                                                                  #                                                                                             M: (-27+NR)
000684:                                                                                                  #                                          RMAG1    =      12D             PRESENT RADIUS M   E: (-29)  M: (-27)
000685:                                                                                                  #                                          NRMAG    =      32D             PRESENT RADIUS M   E: (-29+NR)
000686:                                                                                                  #                                                                                             M: (-27+NR)
000687:                                                                                                  #                                          SDELF/2                         SIN(THETA)  /2
000688:                                                                                                  #                                          CDELF/2  =      14D             COS(THETA) /2
000689:                                                                                                  #                                          TFFX     =      34D             X, ARGUMENT OF SERIES T(X).
000690:                                                                                                  #                                          TFFTEM   =      36D             ARG  FOR TRANSFER ANGLE CALCULATION.
000691:                                                                                                  #                                          TFFNP    =      28D             LC P  M  E: (-38+2NR)   M: (-36+2NR)
000692:                                                                                                  #                                          TFF/RTMU =      30D             1/SQRT(MU)         E: (17)   M: (14)
000693:                                                                                                  #                                          TFFVSQ   =      20D             -(VN.VN/MU)  1/M   E: (20)   M: (18)
000694:


000696: 34,3654                                           BANK     34
000697: 26,2000                                           SETLOC   P60S2
000698: 26,2000                                           BANK
000699:
000700: 26,2650                                           COUNT*   $$/S61.2
000701:
000702:                                                                                                  #                                          PDL LEFT AT ZERO BY TARGETING
000703:
000704: 26,2650           45345        S61.2              DLOAD    DSU
000705: 26,2651           02020                                    EMSALT
000706: 26,2652           15000                                    290KFT
000707: 26,2653           71244                           BPL      DLOAD
000708: 26,2654           54774                                    LUNENT
000709: 26,2655           17316                                    1/RTMU                                #  ESTABLISH MU FOR ORBITAL ENTRIES
000710: 26,2656           77624        CALLCON            CALL
000711: 26,2657           56721                                    TFFCONIC                              #  FILL VAC AREA WITH CONIC PARAMETERS
000712:
000713: 26,2660           45145                           DLOAD    CALL
000714: 26,2661           15020                                    RTRIAL                                #  1ST GUESS AT TERMINAL RADIUS  (-29)
000715: 26,2662           57031                                    CALCTFF                               #  SAVES MPAC IN RTERM  (18D)
000716:
000717: 26,2663           77624                           CALL                                           #  CALC SDELF/2,  CDELF/2
000718: 26,2664           56573                                    TFF/TRIG                              #  RETURN WITH S(THETA) IN MPAC
000719:
000720: 26,2665           77624                           CALL                                           #  GET FISCHER RADIUS (-29) M
000721: 26,2666           55027                                    FISHCALC                              #  ANS IN MPAC AND IN ERADM.
000722:
000723: 26,2667           45015                           DAD      CALL
000724: 26,2670           02020                                    EMSALT
000725: 26,2671           57031                                    CALCTFF                               #  SAVES MPAC IN  RTERM  (18D)
000726:
000727: 26,2672           77676                           DCOMP                                          #  NEGATIVE AS IN COUNTDOWN.
000728: 26,2673           03733                           STORE    TTE1                                  #  DECR TTE FROM BASB TTE1. (RESTART)
000729:                                                                                                  #                                          DNLIST AND DSKY WILL USE TTE.
000730: 26,2674           37727                           STCALL   TTE                                   #  LET MISS CONTRL DECR BY ELAPSED TIME
000731:                                                                                                  #                                          TTE= TIME FROM NOW TO EMSALT +FISCHER
000732:
000733: 26,2675           56573                                    TFF/TRIG                              #  S(THETA) IN MPAC ON RETURNING
000734:                                                                                                  #                                          AND THETA= RANGE FROM NOW TO EMSALT
000735:
000736: 26,2676           77624                           CALL
000737: 26,2677           55027                                    FISHCALC
000738: 26,2700           77624                           CALL
000739: 26,2701           56626                                    VRCALC
000740: 26,2702           77624                           CALL
000741: 26,2703           56613                                    DISPTARG
000742: 26,2704           77624                           CALL
000743: 26,2705           56613                                    DISPTARG
000744: 26,2706           37714                           STCALL   RTGO


000746: 26,2707           55050                                    VGAMCALC
000747:
000748: 26,2710           77605                           DMP                                            #  MPAC = GAMMA
000749:                                                                                                  #  PDL0 HAS VGAM.
000750: 26,2711           43265                           BDDV     DAD
000751: 26,2712           15026                                    VEMSCON                               #  -HS D 180/PI (-14)
000752: 26,2713           00001                                    0                                     #  VGAM FROM PDL0.
000753: 26,2714           17725                           STODL    VIO                                   #  PREDICTED VELOCITY AT EMSALT.
000754:
000755:                                                                                                  #                               GAMMA AND VGAM AT 300K FT ARE REQUIRED BY  GMAX
000756:                                                                                                  #                               ALGORITHM.
000757:
000758: 26,2715           02241                                    ERADM                                 #  EARTH RADIUS FROM GETERAD     (-29) M
000759:                                                                                                  #                                          = FISCHER RADIUS  (-29)
000760: 26,2716           77615                           DAD
000761: 26,2717           06462                                    300KFT                                #  M  (-29)
000762: 26,2720           34023                           STCALL   RTERM                                 #  TERMINAL RADIUS  M  (-29)
000763:
000764: 26,2721           55045                                    PREVGAM                               #  VGAMCALC WITH NEW RTERM
000765:
000766:                                                                                                  #  VBAR = (V(FPS)  - 36KF/S) / 20KF/S
000767:                                                                                                  #   GMAX = (4/(1+ 4.8 VBARSQ))(GAM -6.05 -2.4 VBARSQ) -10(L/D -.3) + 10     ASSUME L/D = 0.3, BANK =0.
000768:
000769:
000770:                                                                                                  #                                          GMAXCALC
000771: 26,2722           45325                           PDDL     DSU                                   #  GAM TO PDL2
000772: 26,2723           00001                                    0                                     #  VGAM IS IN PDL0  (-7)
000773: 26,2724           15004                                    36KFT/S                               #  (-7)   M/CS
000774: 26,2725           63471                           DDV      DSQ
000775: 26,2726           15006                                    20KFT/S                               #  (-6)   M/CS
000776: 26,2727           00001                           STORE    0                                     #  VBARSQ  (-2)  TO PDL0
000777:
000778: 26,2730           43205                           DMP      DAD
000779: 26,2731           15010                                    KR1
000780:                                                                                                  #                                          GAM,    POS DOWN, FROM PDL2
000781: 26,2732           41215                           DAD      DMP
000782: 26,2733           15012                                    -6.05DEG
000783: 26,2734           15014                                    KR2
000784: 26,2735           77725                           PDDL                                           #  XCH PDL+0 FOR VBARSQ  (-2)
000785: 26,2736           43271                           DDV      DAD
000786: 26,2737           15024                                    KR4
000787: 26,2740           17330                                    DP2(-4)
000788: 26,2741           77665                           BDDV
000789:                                                                                                  #                                          NUM FROM PDL+0
000790: 26,2742           51015                           DAD      BPL
000791: 26,2743           15016                                    KR3
000792: 26,2744           54747                                    +3
000793: 26,2745           77745                           DLOAD
000794: 26,2746           15332                                    HI6ZEROS
000795: 26,2747           17722                           STODL    GMAX                                  #  100 GMAX  (-14)


000797:                                                                                                  #  DISPLAY USES GMAX AS SP, SO LO WORD IS WRITTEN OVER BY VPRED.
000798:
000799: 26,2750           02241                                    ERADM                                 #  = FISCHER RADIUS  (-29) M
000800: 26,2751           45015                           DAD      CALL                                  #  2 ND  ITERATION FOR FISCHER RADIUS
000801: 26,2752           15022                                    400KFT
000802: 26,2753           57031                                    CALCTFF                               #  ESTABLISH TRANSFER ANGLE DATA.
000803: 26,2754           77624                           CALL
000804: 26,2755           56573                                    TFF/TRIG                              #  GET SIN, COS DELF
000805: 26,2756           77624                           CALL
000806: 26,2757           55027                                    FISHCALC                              #  GET CORRESPONDING FISCHER RADIUS.
000807:
000808: 26,2760           73015                           DAD      LXA,2                                 #  SAVE HI-WORD FOR DOWNLIST.
000809: 26,2761           15022                                    400KFT                                #  M  (-29)
000810: 26,2762           03713                                    RTGO                                  #  (RANGE ANGLE FROM EMSALT)/360
000811: 26,2763           34023                           STCALL   RTERM
000812: 26,2764           55045                                    PREVGAM                               #  VGAMCALC WITH NEW RTERM
000813:
000814: 26,2765           67076                           DCOMP    SXA,2                                 #  HI-WORD OF EACH ON DOWNLIST.
000815: 26,2766           00155                                    MPAC       +1
000816: 26,2767           17771                           STODL    GAMMAEI                               #  CONIC GAMMA/360 AT 400K FT.   ( HI-WORD)
000817:                                                                                                  #                                          CONIC RTGO/360 FROM EMSALT    (LOW-WORD)
000818:                                                                                                  #                                          FOR TM, DP(GAMMAEI)= (GAMMA, RTGO)/360
000819:
000820:                                                                                                  #                                          VGAM FROM PDL+0   (-7)
000821: 26,2770           77626                           STADR
000822: 26,2771           74010                           STORE    VPRED                                 #  CONIC VELOCITY AT 400K FT
000823:
000824: 26,2772           77634                           RTB
000825: 26,2773           54267                                    P61.1
000826:                                                                                                  #                                          PDL BACK TO ZERO.
000827:
000828: 26,2774           52145        LUNENT             DLOAD    GOTO
000829: 26,2775           06456                                    1/RTMUE                               #  ESTABLISH MU FOR LUNAR TYPE ENTRIES
000830: 26,2776           54656                                    CALLCON
000831: 26,2777           00002 26244  290KFT             2DEC     88392      B-29
000832: 26,3001           00052 05716  KTETA1             2DEC*    .421844723 E2         B-14*           #  1100 2PI/16384(163.84)
000833: 26,3003           33335 05707  36KFT/S            2DEC     109.728    B-7                        #  (-7) M/CS = 36 KFT/S (-7)
000834: 26,3005           36365 30244  20KFT/S            2DEC     121.92     B-7                        #  (-6) M/CS  = 2 20KFT/S  (-7)
000835: 26,3007           77113 42770  KR1                2DEC     -.026666667                            #  = -2.4  4 / 360
000836: 26,3011           77354 65030  -6.05DEG           2DEC     -.016805556                            #  = -6.05 / 360
000837: 26,3013           21450 00001  KR2                2DEC     .54931641                             #  =(360/4) 100 (-14) =  9000 B-14
000838: 26,3015           01750 00000  KR3                2DEC     1000       B-14                       #  = 100  (10.0)  (-14)   G,S


000840:                                                                                                  #                                          ASSUMES L/D = 0.3, BANK =0.
000841: 26,3017           00305 04541  RTRIAL             2DEC     6460097.18 B-29                       #   RPAD +284643 FT =21 194 545 FT
000842:                                                                                                  #                               RPAD DEFINED AS 20 909 901.57 FT =6 373 338 M
000843: 26,3021           00003 27040  400KFT             2DEC     121920     B-29                       #  METERS
000844:
000845:                                                                                                  #  300KFT   2DEC   91440 B-29      (-29)  M
000846:
000847:                                                                                                  #  EMSALT   2DEC   86759.2 B-29    284643 FT (-29) M    (ORBITAL REENTRY)
000848:
000849:                                                                                                  #  EMSALT   2DEC   90657 B-29      297431 FT (-29) M    (LUNAR REENTRY)
000850:
000851: 26,3023           32525 12525  KR4                2DEC     .833333333
000852: 26,3025  23,2461               300KFT             EQUALS   MINPERE
000853: 26,3025           77777 76601  VEMSCON            2DEC     -.0389676  B-14                       #  = -HS D  /2  PI  (-14)    M SQ/ CS SQ
000854:                                                                                                  #                               =- 16369   .05G  32.2  .3048  .3048/2 PI    (-14)
000855:


000857:                                                                                                  #  SUBROUTINE NAME:   FISHCALC              (USED BY S61.2)                DATE:           01.21.67
000858:                                                                                                  #  MOD NO:  0                                                              LOG SECTION:    P61-P67
000859:                                                                                                  #  MOD BY:  MORTH / BAIRNSFATHER
000860:                                                                                                  #  MOD NO:  1           MOD BY:  RR BAIRNSFATHER     DATE:  11 MAY 67      INCLUDE  GETERAD  CALL
000861:                                                                                                  #  FUNCTIONAL DESCRIPTION:  GIVEN THE PRESENT POSITION, UNITR, CALCULATE A  NEW UNITR THAT IS ROTATED THROUGH
000862:                                                                                                  #           TRANSFER ANGLE, THETA, ALONG TRAJECTORY. THEN CALCULATE  SIN(LAT)  AND USE TO OBTAIN FISCHER RADIUS.
000863:
000864:                                                                                                  #           SINCE FISHCALC USES UNI (LEFT BY ENTRY) EARTH SCALING IS ASSUMED.(WILL IMPROVE FOR SUITABLE TENNANT)
000865:
000866:                                                                                                  #  CALLING SEQUENCE:  CALL
000867:                                                                                                  #                          FISHCALC
000868:                                                                                                  #           ENTER WITH .5 SIN(THETA) IN MPAC.
000869:                                                                                                  #           PUSHLOC IS AT PDL+0, AN ARBITRARY BASE VALUE IF LEQ 8D
000870:
000871:                                                                                                  #  SUBROUTINES CALLED:  GETERAD
000872:                                                                                                  #  NORMAL EXIT MODE:    RVQ
000873:                                                                                                  #  EXIT MODES:           NONE
000874:                                                                                                  #  OUTPUT:  ERADM  (-29) M   IN MPAC ON RETURNING
000875:                                                                                                  #           NEW UNIT VECTOR NOT SAVED.
000876:                                                                                                  #           SIN(LAT) NOT SAVED.
000877:                                                                                                  #           PUSHLOC AT PDL+0
000878:                                                                                                  #  ERASABLE INITIALIZATION REQUIRED:
000879:                                                                                                  #           SDELF/2    =SIN(THETA)  /2,   IN MPAC                          LEFT BY TFF/TRIG
000880:                                                                                                  #           CDELF/2    =COS(THETA) /2, STORED IN PDL 14D                   LEFT BY TFF/TRIG
000881:                                                                                                  #           RONE   (-29) M                                                 LEFT BY USER
000882:                                                                                                  #           VONE   (-7)  M/CS                                              LEFT BY USER
000883:                                                                                                  #           URONE  UR/2                                                    LEFT BY USER
000884:                                                                                                  #           UNI        .5 UNIT( V*R)                                       LEFT BY ENTRY / P61
000885:                                                                                                  #           UNITW      UNIT NORTH POLE                                     LEFT BY PAD LOAD
000886:                                                                                                  #  DEBRIS:  QPRET,   PDL+0 ... PDL+5
000887:
000888:
000889:                                                                                                  #                                          -      -          -
000890: 26,3027           47315        FISHCALC           PDVL     VXV                                   #  URPR = UR CDELF + UHOR SDELF
000891: 26,3030           02343                                    URONE
000892: 26,3031           03502                                    UNI
000893: 26,3032           76561                           VXSC     VSL1
000894:                                                                                                  #                                          SIN(THETA) /2 FROM PDL+0
000895: 26,3033           74315                           PDVL     VXSC                                  #  TO PDL+0,  +5
000896: 26,3034           02343                                    URONE
000897: 26,3035           00017                                    CDELF/2                               #  COS(THETA) /2
000898: 26,3036           45455                           VAD      STADR
000899: 26,3037           74235                           STORE    URH                                   #  FOR USE IN RTGO FROM EMS DISPLAY
000900: 26,3040           72441                           DOT      SL1
000901: 26,3041           01714                                    UNITW                                 #  FULL UNIT VECTOR    UNIT NORTH
000902: 26,3042           02156                           STORE    ALPHAV     +4                         #   = .5 SIN(LAT)
000903: 26,3043           77650        DUMPFISH           GOTO
000904: 26,3044           26437                                    GETERAD                               #  SAVES FISCHER RAD (-29) M IN ERADM AND
000905:                                                                                                  #                                          IN MPAC. RETURNS TO CALLER VIO QPRET.
000906:


000908:                                                                                                  #  SUBROUTINE NAME:   VGAMCALC   (USED BY S61.2)                         DATE:           01.21.67
000909:                                                                                                  #  MOD NO:    0                                                          LOG SECTION:    P61-P67
000910:                                                                                                  #  MOD BY:  MORTH / BAIRNSFATHER
000911:                                                                                                  #  MOD NO:  1           MOD BY:  RR BAIRNSFATHER         DATE: 11 APR 67
000912:                                                                                                  #  MOD NO:  2           MOD BY:  RR BAIRNSFATHER         DATE: 21 NOV 67         VARIABLE MU ADDED.
000913:                                                                                                  #  MOD NO:  3           MOD BY:  RR BAIRNSFATHER         DATE: 21 MAR 68         ACCEPT DIFFERENT EARTH/MOON SCALE
000914:                                                                                                  #  FUNCTONAL DESCRIPTION:       EARTH CENTERED VIS VIVA CALCULATION OF TERMINAL VELOCITY AND GAMMA (REL TO
000915:                                                                                                  #          HORIZONTAL)  GIVEN  THE SCALAR QUANTITIES:   PRESENT RADIUS AND VELOCITY AND THE TERMINAL RADIUS.
000916:                                                                                                  #          THE USER MUST APPEND PROPER SIGN TO GAMMA, SINCE IT IS CALCULATED AS A POSITIVE NUMBER.
000917:                                                                                                  #          THE EQUATIONS ARE
000918:
000919:                                                                                                  #                 VGAM = SQRT(VN VN/MU + 2(RN-RTERM)/(RN RTERM)  )  RTMU
000920:
000921:                                                                                                  #                 COSGAM = H /RTERM VGAM  = SQRT(LCP)/ (RTERM VGAM/RTMU)
000922:
000923:
000924:                                                                                                  #          VGAMCALC ASSUMES THAT THE TERMINAL RADIUS IS LESS THAN THE PRESENT RADIUS. BOTH CALCTFF AND CALCTPER
000925:                                                                                                  #          MAKE THIS ASSUMPTION.
000926:
000927:                                                                                                  #  CALLING SEQUENCE:  CALL                         STCALL RTERM
000928:                                                                                                  #                           VGAMCALC                      PREVGAM
000929:                                                                                                  #          PUSHLOC AT PDL+0, ARBITRARY  IF LEQ 12D
000930:                                                                                                  #          C(MPAC) UNSPECIFIED                    C(MPAC)=NEW RTERM
000931:
000932:                                                                                                  #  SUBROUTINES CALLED:  NONE
000933:                                                                                                  #  NORMAL EXIT MODE:    RVQ
000934:                                                                                                  #  ALARMS:    NONE
000935:                                                                                                  #  OUTPUT:    GAMMA / 360 IN MPAC, POSITIVE NUMBER
000936:                                                                                                  #             VGAM E:(-7)  M:(-5)    M/CS IN PDL+0
000937:                                                                                                  #             PUSHLOC AT PDL+2
000938:                                                                                                  #  ERASABLE INITIALIZATION REQD:
000939:                                                                                                  #           TFF/RTMU E:(17) M:(14)   1/SQRT(MU)                            LEFT BY TFFCONIC.
000940:                                                                                                  #           RMAG1  E:(-29) M:(-27)   M   PRESENT RADIUS LENGTH             LEFT BY TFFCONIC
000941:                                                                                                  #           NRMAG  E: (-29+NR)       M  NORM LENGTH OF PRESENT POSITION    LEFT BY TFFCONIC
000942:                                                                                                  #                  M: (-27+NR)
000943:                                                                                                  #           RTERM  E:(-29) M:(-27)   M  TERMINAL RADIUS LENGHT             LEFT BY CALCTFF
000944:                                                                                                  #           NRTERM E: (-29+NR)       M  NORM LENGTH OF TERMINAL RADIUS     LEFT BY CALCTFF
000945:                                                                                                  #                  M: (-27+NR)
000946:                                                                                                  #           TFFVSQ E:(20)  M:(18)  1/M   -(V SQ/MU): PRESENT VELOCITY,NORM LEFT BY TFFCONIC
000947:                                                                                                  #           TFFNP  E: (-38+2NR)      M  LCP, SEMI-LATUS RECTUM, WEIGHT NR  LEFT BY TFFCONIC
000948:                                                                                                  #                  M: (-36+2NR)
000949:                                                                                                  #  DEBRIS:  QPRET, PDL+0 ... PDL+3
000950:                                                                                                  #           RTERM, NRTERM IF PREVGAM ENTERED.
000951:


000953: 26,3045           77657        PREVGAM            SL*                                            #  ENTER WITH NEW  RTERM IN MPAC
000954:                                                                                                  #                                          E: (-29)  M: (-27)
000955: 26,3046           20201                                    0,1                                   #  X1 = -NR
000956: 26,3047           00021                           STORE    NRTERM                                #  RTERM  M        E:(-29+NR)   M: (-27+NR)
000957:
000958: 26,3050           41345        VGAMCALC           DLOAD    DMP
000959: 26,3051           00041                                    NRMAG                                 #  RMAG  M          E:(-29+NR)  M:(-27+NR)
000960: 26,3052           00021                                    NRTERM                                #  RTERM  M         E:(-29+NR)  M:(-27+NR)
000961: 26,3053           45325                           PDDL     DSU                                   #  RMAG RTERM M     E:(-58+2NR) M:(-54+2NR)
000962: 26,3054           00041                                    NRMAG                                 #  RMAG  M          E:(-29+NR)  M:(-27+NR)
000963: 26,3055           00021                                    NRTERM                                #  RTERM  M         E:(-29+NR)  M:(-27+NR)
000964: 26,3056           56257                           SL*      DDV                                   #  2(RN-RTERM)      E:(-30+NR)  M:(-28+NR)
000965: 26,3057           20171                                    0          -8D,1                      #  (-8+NR)
000966:                                                                                                  #                                          PUSH UP PRODUCT.
000967: 26,3060           77625                           DSU
000968: 26,3061           00025                                    TFFVSQ                                #  -(V SQ/MU)         E: (20)   M: (18)
000969: 26,3062           41566                           SQRT     PUSH                                  #  SAVE VGAM/RT(MU) FOR NOW. E:(10) M: (9)
000970: 26,3063           65271                           DDV      PDDL                                  #  XCH PDL+0, LEAVING VGAM FOR OUTPUT.
000971:                                                                                                  #                                          VGAM TO PDL M/CS   E: (-7)   M: (-2)
000972: 26,3064           00037                                    TFF/RTMU                              #  E: (17)  M: (14)
000973: 26,3065           65205                           DMP      PDDL                                  #  RTERM VGAM/RTMU  E:(-19+NR)  M:(-18+NR)
000974: 26,3066           00021                                    NRTERM                                #  RTERM M          E:(-29+NR)  M:(-27+NR)
000975: 26,3067           00035                                    TFFNP                                 #  LC P =H.H/MU M   E:(-38+2NR) M:(-36+2NR)
000976: 26,3070           56366                           SQRT     DDV                                   #                   E:(-19+NR)  M:(-18+NR)
000977:                                                                                                  #                                          PUSH UP DEN      E:(-19+NR)  M:(-18+NR)
000978:                                                                                                  #                                          USE DDV OVFL AS LIMITER (|COS| <1.0)
000979: 26,3071           65542                           SR1      ACOS
000980: 26,3072           77616        DUMPVGAM           RVQ
000981:
000982:                                                                                                  #                                          CALLER MUST SUPPLY OWN SIGN ...
000983:
000984:                                                                                                  #                                                                   22W     27MS
000985:


000987:                                                                                                  #  SUBROUTINE NAME:     TFF/TRIG            (USED BY S61.2)                DATE     01.17.67
000988:                                                                                                  #  MOD NO:  0                                                              LOG SECTION:    P61-P67
000989:                                                                                                  #  MOD BY:  RR BAIRNSFATHER
000990:                                                                                                  #  MOD NO:  1           MOD BY:  RR BAIRNSFATHER     DATE:  14 APR 67
000991:                                                                                                  #  MOD NO:  2           MOD BY:  RR BAIRNSFATHER     DATE:  21 MAR 68      ACCEPT DIFFERENT EARTH/MOON SCALE
000992:                                                                                                  #  FUNCTIONAL DESCRIPTION:      USED BY ENTRY DISPLAY TO CALCULATE SIN(THETA), COS(THETA) FROM DATA LEFT IN
000993:                                                                                                  #           PDL BY TFF SUBROUTINES. THE EQNS ARE
000994:                                                                                                  #                  COS(THETA) = 1-2 ABS(ARG) /(RN RTERM (1+X)  )
000995:                                                                                                  #                                                  2
000996:                                                                                                  #                  SIN(THETA) = SGN(ARG) SQRT(1-COS (THETA) )
000997:                                                                                                  #           WHERE  THETA = TRANSFER ANGLE
000998:                                                                                                  #           AND    ARG = P Z ABS(Z)                                        IF ALFA ZZ   LEQ 1
000999:                                                                                                  #                  ARG = (P / ALFA)  SGN(Q1 + R 1/Z)                       IF ALFA Z Z   G  1
001000:                                                                                                  #           AND  ARG  HAS BEEN AFFIXED WITH THE SIGN OF SIN(THETA).
001001:                                                                                                  #  CALLING SEQUENCE:  CALL
001002:                                                                                                  #                            TFF/TRIG
001003:                                                                                                  #           PUSHLOC AT PDL+0, ARBITRARY IF NOT EQ 14D
001004:                                                                                                  #           C(MPAC) UNSPECIFIED
001005:
001006:                                                                                                  #  SUBROUTINES CALLED:  NONE
001007:                                                                                                  #  NORMAL EXIT MODES:   RVQ
001008:                                                                                                  #  ALARMS:  NONE
001009:                                                                                                  #  OUTPUT:  C(MPAC) = .5 SIN(THETA)
001010:                                                                                                  #           CDELF/2 = .5 COS(THETA)          (IN PDL 14D)
001011:                                                                                                  #           PUSHLOC AT PDL+0
001012:                                                                                                  #  ERASABLE INITIALIZATION REQUIRED:
001013:                                                                                                  #           TFFX                   X                                       LEFT BY CALCTFF OR CALCTPER
001014:                                                                                                  #           TFFTEM E: (-59+2NR)    ARG                                     LEFT BY CALCTFF OR CALCTPER
001015:                                                                                                  #                  M: (-55+2NR)    WHERE ARG = LCP ZZ SGN(DELF) OR ARG = LCP/ALFA  SGN(DELF)
001016:                                                                                                  #           NRTERM E: (-29+NR)       M  NORM LENGTH OF TERMINAL RADIUS     LEFT BY CALCTFF OR CALCTPER
001017:                                                                                                  #                  M: (-27+NR)
001018:                                                                                                  #           NRMAG  E: (-29+NR)       M  NORM LENGTH OF PRESENT POSITION    LEFT BY TFFCONIC
001019:                                                                                                  #                  M: (-27+NR)
001020:                                                                                                  #  DEBRIS:  QPRET, CDELF/2
001021:
001022: 27,2573                                           BANK     27
001023: 27,2000                                           SETLOC   P60S5
001024: 27,2000                                           BANK
001025: 27,2573           70545        TFF/TRIG           DLOAD    SR1
001026: 27,2574           00043                                    TFFX
001027: 27,2575           41215                           DAD      DMP
001028: 27,2576           15330                                    HIDPHALF
001029: 27,2577           00041                                    NRMAG                                 #  RMAG  M          E:(-29+NR)  M:(-27+NR)
001030: 27,2600           55205                           DMP      BDDV
001031: 27,2601           00021                                    NRTERM                                #  RTERM  M         E:(-29+NR)  M:(-27+NR)
001032: 27,2602           00045                                    TFFTEM                                #  P ZSQ OR P/ALFA  E:(-59+2NR) M:(-55+2NR)
001033: 27,2603           44246                           ABS      BDSU                                  #  THE SIGN IS FOR SDELF.
001034: 27,2604           15330                                    HIDPHALF
001035: 27,2605           00017                           STORE    CDELF/2                               #  .5 COS(THETA)
001036: 27,2606           57516                           DSQ      DCOMP                                 #  KEEP HONEST FOR SQRT.


001038: 27,2607           75415                           DAD      SQRT
001039: 27,2610           15322                                    HIDP1/4
001040: 27,2611           43565        DUMPTRIG           SIGN     RVQ
001041: 27,2612           00045                                    TFFTEM                                #  AFFIX SIGN(DELE/2)
001042:                                                                                                  #                                          RETURN WITH .5 SIN(THETA) IN MPAC
001043:
001044:                                                                                                  #                                                             16W            15 MS
001045:
001046: 27,2613           77620        DISPTARG           STQ                                            #   C(MPAC) = TRGO  ESTIMATE
001047: 27,2614           03373                                    60GENRET
001048: 27,2615           45205                           DMP      DSU
001049: 27,2616           15002                                    KTETA1
001050: 27,2617           03733                                    TTE1
001051: 27,2620           37606                           STCALL   DTEAROT
001052: 27,2621           46225                                    EARROT2
001053: 27,2622           77624                           CALL
001054: 27,2623           56626                                    VRCALC
001055: 27,2624           77650                           GOTO
001056: 27,2625           03373                                    60GENRET
001057: 27,2626           50375        VRCALC             VLOAD    DOT
001058: 27,2627           03542                                    URH
001059: 27,2630           03474                                    RT
001060: 27,2631           65512                           SL2      ACOS
001061: 27,2632           77616                           RVQ
001062:                                                                                                  #  END OF PROGRAM S61.2
001063:


001065:
001066:                                                                                                  #  PROGRAM DESCRIPTION S62.3       DATE 10JAN67
001067:                                                                                                  #  MOD NO 1        LOG SECTION P60-P67
001068:                                                                                                  #  MOD BY ZELDIN
001069:                                                                                                  #  MOD NO:  2           MOD BY:  RR BAIRNSFATHER      DATE: 15 MAY 67      CHANGED TO REF COORDS.
001070:                                                                                                  #  MOD NO:  3           MOD BY:  RR BAIRNSFATHER      DATE:  17 JAN 68     ALFAPAD CHANGES MADE.
001071:                                                                                                  #  FUNCTIONAL DESCRIPTION
001072:                                                                                                  #           COMPUTE  DESIRED GIMBOL ANGLES FOR ENTRY ATTITUDE
001073:                                                                                                  #           THE FOLLOWING TRAJECTORY TRIAD IS AVAILABLE IN MEMORY AND IS COMPUTED EACH 2 SECONDS BY  CM/POSE  IN
001074:                                                                                                  #           REFERENCE COORDINATES (V = VELOCITY RELATIVE TO EARTH) :
001075:
001076:                                                                                                  #                  UXA = -UNIT(V)
001077:                                                                                                  #                  UYA =  UNIT(V*R)
001078:                                                                                                  #                  UZA =  UXA*UYA
001079:
001080:                                                                                                  #           GENERATE A DESIRED BODY TRIAD FOR TRIMMED FLIGHT WITH RESPECT TO THE RELATIVE VELOCITY VECTOR, USING
001081:                                                                                                  #           ROLL COMMAND AND TRIM ANGLE OF ATTACK:
001082:
001083:                                                                                                  #                UXD = UNIT(UYD*UXA) SIN(ALFATRIM) + UXA COS(ALFATRIM)
001084:                                                                                                  #                UYD = UYA COS(ROLLC) + UZA SIN(ROLLC)
001085:                                                                                                  #                UZD = UXD * UYD
001086:
001087:                                                                                                  #           USE THE DESIRED SET (IN REFERENCE COORDS) AND  REFSMMAT  TO CALL   CALCGA   AND OBTAIN GIMBAL ANGLES
001088:                                                                                                  #           IN 2S,C IN MPAC, +2 AND THETAD, +2.
001089:
001090:                                                                                                  #  CALLING SEQUENCE
001091:                                                                                                  #         L   CALL
001092:                                                                                                  #         L+1      S62.3
001093:                                                                                                  #  NORMAL EXIT MODE
001094:                                                                                                  #           RETURN VIA QPRET DIRECTLY FROM CALCGA.
001095:                                                                                                  #  SUBROUTINES CALLED
001096:                                                                                                  #           CALCGA
001097:                                                                                                  #  ALARM OR ABORT MODES
001098:                                                                                                  #           NONE
001099:                                                                                                  #  ERASABLE INITIALIZATION REQUIRED
001100:                                                                                                  #           ROLLC  ROLL COMMAND          DP 1'S COMP AT 1REV
001101:                                                                                                  #           ALFAPAD   SP 1S,C     /180                 LEFT BY PAD LOAD    ALFATRIM IS NEGATIVE.
001102:                                                                                                  #           UXA/2  REF COORDS                         LEFT BY CM/POSE
001103:                                                                                                  #           UYA/2  REF COORDS                         LEFT BY CM/POSE
001104:                                                                                                  #           UZA/2  REF COORDS                         LEFT BY CM/POSE
001105:                                                                                                  #  OUTPUT
001106:                                                                                                  #           CPHI   GIMBAL ANGLES (O,I.M) 2:S COMP TP (O,I.M)/180
001107:                                                                                                  #  DEBRIS
001108:                                                                                                  #        QTEMP, QPRET,PUSHLIST
001109:
001110: 10,2302                                           BANK     10
001111: 10,2000                                           SETLOC   P60S4
001112: 10,2000                                           BANK
001113:


001115: 10,2302                                           COUNT*   $$/S62.3
001116:
001117: 10,2302           67201        S62.3              SETPD    SLOAD
001118: 10,2303           00001                                    0
001119: 10,2304           03012                                    ALFAPAD                               #  ALFATRIM /180, ALFA IS NEG.
001120: 10,2305           41542                           SR1      PUSH
001121: 10,2306           65346                           COS      PDDL                                  #  XCH PDL, COS TO PDL0
001122: 10,2307           65356                           SIN      PDDL                                  #  SIN TO PDL2
001123: 10,2310           03316                                    ROLLC
001124: 10,2311           74346                           COS      VXSC
001125: 10,2312           03550                                    UYA/2                                 #                           REF COORDS
001126: 10,2313           73525                           PDDL     SIN                                   #  PUSH VECTOR INTO PDL4,.9
001127: 10,2314           03316                                    ROLLC
001128: 10,2315           53361                           VXSC     VAD
001129: 10,2316           03556                                    UZA/2                                 #                           REF COORDS
001130:                                                                                                  #                                          VECTOR FROM PDL4, 9
001131: 10,2317           77772                           VSL1
001132: 10,2320           02722                           STORE    YNB                                   #  = UYD                    REF COORDS
001133:
001134: 10,2321           76435                           VXV      VSL1
001135: 10,2322           03542                                    UXA/2                                 #                           REF COORDS
001136: 10,2323           65361                           VXSC     PDDL
001137:                                                                                                  #                                          SIN TRIM FROM PDL2
001138:                                                                                                  #                                          XCH PDL0 FOR COS TRIM
001139: 10,2324           53361                           VXSC     VAD
001140: 10,2325           03542                                    UXA/2                                 #                           REF COORDS
001141:                                                                                                  #                                          FROM PDL0
001142: 10,2326           77626                           STADR
001143: 10,2327           75063                           STORE    XNB                                   #  X SC AXIS (.5 UNIT)        REF COORDS
001144:
001145: 10,2330           76435                           VXV      VSL1
001146: 10,2331           02722                                    YNB
001147: 10,2332           26730                           STOVL    ZNB                                   #  Z SC IN REF COOR. SCALED AT 2
001148: 10,2333           01736                                    REFSMMAT
001149: 10,2334           26672                           STOVL    XSM
001150: 10,2335           01744                                    REFSMMAT   +6
001151: 10,2336           26700                           STOVL    YSM
001152: 10,2337           01752                                    REFSMMAT   +12D
001153: 10,2340           02706                           STORE    ZSM
001154:
001155: 10,2341           52014                           CLEAR    GOTO
001156: 10,2342           00260                                    CPHIFLAG                              #  CAUSE CALCGA TO STORE ANS IN TP CPHI
001157: 10,2343           47244                                    CALCGA
001158:                                                                                                  #                                          CALCGA WILL RETURN TO ORIGINAL CALLER
001159:                                                                                                  #                                          VIA QPRET WITH 2,S COMP. ANGLES IN CPHI

End of include-file P61-P67.agc.  Parent file is MAIN.agc


