
Source Code


000002:                                                                                                  #  Copyright:    Public domain.
000003:                                                                                                  #  Filename:     MAIN.agc
000004:                                                                                                  #  Purpose:      Part of the source code for Colossus build 237.
000005:                                                                                                  #                This is for the Command Module's (CM) Apollo Guidance
000006:                                                                                                  #                Computer (AGC), we believe for Apollo 8.
000007:                                                                                                  #  Assembler:    yaYUL
000008:                                                                                                  #  Contact:      Onno Hommes <ohommes@alumni.cmu.edu>
000009:                                                                                                  #  Website:      www.ibiblio.org/apollo/index.html
000010:                                                                                                  #  Page scans:   www.ibiblio.org/apollo/ScansForConversion/Colossus237/
000011:                                                                                                  #  Mod history:  2010-05-18 OH   Adapted from corresponding Colossus 249 file.
000012:                                                                                                  #                2010-12-04 JL   Remove Colossus 249 header comments. Change to double-has page numbers.
000013:                                                                                                  #                2011-02-08 JL   Minor fixes.
000014:
000015:                                                                                                  # # Page 740
000016:                                                                                                  #  PROGRAM:             P61
000017:                                                                                                  #  MOD NO.:             0    MAR. 13, 1967
000018:                                                                                                  #  MOD BY:              R. HIRSCHKOP
000019:                                                                                                  #  MOD NO:  1           MOD BY:  RR BAIRNSFATHER      DATE:  22 JUN 67     RESTARTS.
000020:                                                                                                  #  MOD NO:  2           MOD BY:  RR BAIRNSFATHER      DATE:  17 JAN 68     COLOSSUS GSOP CHANGES.
000021:                                                                                                  #  MOD NO:  3           MOD BY:  RR BAIRNSFATHER      DATE:   8 MAY 68     DELETE CMSM MANEUVER (PCR 50)
000022:                                                                                                  #  FUNCTION:            TO CALCULATE AND DISPLAY EMS INITIALIZATION DATA
000023:                                                                                                  #  CALLING SEQUENCE-    BY V37
000024:                                                                                                  #  EXIT-                TO P62
000025:                                                                                                  #  SUBROUTINE CALLS-    S61.1 , S61.3 , GOFLASH , FLAGUP , R02BOTH
000026:
000027:                                                                                                  #  ERASABLE INITIALIZATION:
000028:                                                                                                  #           EMSALT  (-29) M        .05G ALTITUDE ABOVE FISCHER ELLIPSOID   PAD LOADED.
000029:                                                                                                  #           ALFAPAD  /180          HYPERSONIC CM TRIM ANGLE OF ATTACK      PAD LOADED
000030:                                                                                                  #  OUTPUT:  THE FOLLOWING REGISTERS ARE WRITTEN IN FOR USE BY DISPLAYS
000031:                                                                                                  #           GMAX   100 GMAX  (-14)  G,S     MAXIMUM ACCELERATION
000032:                                                                                                  #           VPRED  (-7)  M/CS      PREDICTED VELOCITY AT 400K FT
000033:                                                                                                  #           GAMMAEI  GAMMA/360     PREDICTED GAMMA    AT 400K FT
000034:                                                                                                  #           RTGO   THETAH/360      RANGE ANGLE TO SPLASH FROM EMSALT       EMSALT IS PAD LOADED
000035:                                                                                                  #           VIO    (-7) M/CS       INERTIAL VELOCITY AT       EMSALT       EMSALT IS PAD LOADED
000036:                                                                                                  #           TTE    (-28) CS        TIME     TO                EMSALT       EMSALT IS PAD LOADED
000037:                                                                                                  #           LAT(SPL)  /360         TARGET LOCATION                         LEFT BY DSKY
000038:                                                                                                  #           LNG(SPL)  /360         TARGET LOCATION                         LEFT BY DSKY
000039:                                                                                                  #           HEADSUP   (0)          +1 = LIFT DOWN, -1 = LIFT UP            LEFT BY DSKY
000040:                                                                                                  #  DEBRIS:  SEE SUBROUTINES.
000041:
000042: 26,2217                                           BANK     26
000043: 26,2000                                           SETLOC   P60S
000044: 26,2000                                           BANK
000045:
000046: 26,2217  E6,1661                                  EBANK=   AOG
000047:
000048: 26,2217                                           COUNT*   $$/P61
000049:
000050: 26,2217           34675        P61                CA       BIT14                                 #  EXTENDED VERB SHOULD BE FREE THIS CLOSE
000051: 26,2220           55044                           TS       EXTVBACT                              #  TO V37
000052:                                                                                                  #                                          LOCK OUT EXTENDED VERBS SO CAN USE TFF
000053:                                                                                                  #                                          ROUTINES.EXT VERB ERASE IS USED
000054:
000055: 26,2221           44712                           CS       ONE                                   #  REMOVE IF HEADSUP EVER ON UPLINK DATA
000056: 26,2222           55726                           TS       HEADSUP                               #  PRELOAD
000057:
000058: 26,2223           02543                           TC       S61.1                                 #  CHECK STATE VECTOR AND IMU ORIENTATION
000059:                                                                                                  #                               RV 60GENRET. DOES PHASCHNG, GROUP 4.
000060:
000061: 26,2224           32424                           CA       V06N61                                #  LAT(SPL)     LNG(SPL)     HEADSUP
000062:                                                                                                  #                                          XXX.XX DEG   XXX.XX DEG   XXXXX.
000063: 26,2225           04555                           TC       BANKCALL
000064: 26,2226           20763                           CADR     GOFLASHR
000065: 26,2227           04106                           TC       GOTOPOOH
000066:                                                                                                  # # Page 741
000067: 26,2230           02235                           TC       P61.4
000068: 26,2231           02224                           TC       -5
000069:
000070: 26,2232           05301        P61.3              TC       PHASCHNG
000071: 26,2233           00014                           OCT      00014
000072:
000073: 26,2234           05112                           TC       ENDOFJOB
000074:
000075: 26,2235           22007        P61.4              ZL
000076: 26,2236           11726                           CCS      HEADSUP                               #  C(HEADSUP)=  +1/-1
000077: 26,2237           34675                           CA       BIT14                                 #  IF HEADSUP POS,ROLLC =180 DEG.(LIFT DWN)
000078: 26,2240           12241                           NOOP                                           #  IF HEADSUP NEG,ROLLC=0 (LIFT UP)
000079: 26,2241           53716                           DXCH     ROLLC                                 #  ROLLC IS USED BY S62.3: GIM ANG AT .05G
000080:
000081: 26,2242           06006                           TC       INTPRET
000082: 26,2243           77745        NEWRNVN            DLOAD
000083: 26,2244           01205                                    PIPTIME                               #  SAVE TIME OF RN,VN TO DETERMINE IF AN
000084: 26,2245           37651                           STCALL   MM                                    #  UPDATE HAS OCCURRED
000085: 26,2246           52063                                    STARTEN1                              #  INITIALIZE
000086: 26,2247           77775                           VLOAD
000087: 26,2250           01171                                    RN
000088: 26,2251           02327                           STORE    RONE
000089: 26,2252           77656                           UNIT
000090: 26,2253           26343                           STOVL    URONE
000091: 26,2254           01177                                    VN
000092: 26,2255           02335                           STORE    VONE
000093: 26,2256           53435                           VXV      UNIT
000094: 26,2257           02343                                    URONE
000095: 26,2260           03502                           STORE    UNI
000096: 26,2261           45345        DUMPP61            DLOAD    DSU
000097: 26,2262           03651                                    MM                                    #  INITIAL VALUE OF PIPTIME
000098: 26,2263           01205                                    PIPTIME
000099: 26,2264           45040                           BMN      CALRB
000100: 26,2265           54243                                    NEWRNVN                               #  UPDATED... GO TRY AGAIN
000101: 26,2266           54650                                    S61.2                                 #  GET DISPLAY DATA FOR N60 AND N63
000102:                                                                                                  #                                          AND RETURN IN BASIC, BELOW.
000103: 26,2267           05425        P61.1              TC       CLEARMRK
000104: 26,2270           32423                           CA       V06N60                                #  GMAX         VPRED         GAMMAEI
000105:                                                                                                  #                                          XXX.XX G     XXXXX. FPS    XXX.XX DEG
000106: 26,2271           04555                           TC       BANKCALL
000107: 26,2272           20624                           CADR     GOFLASH
000108:
000109: 26,2273           04106                           TC       GOTOPOOH
000110: 26,2274           02276                           TC       P61.2                                 #  PROCEED
000111: 26,2275           02270                           TC       -5
000112:
000113: 26,2276           06006        P61.2              TC       INTPRET                               #  CORRECT  TTE  FOR TIME LAPSE DURING
000114:                                                                                                  #                                          ABOVE DISPLAY.
000115: 26,2277           45234                           RTB      DSU
000116: 26,2300           45505                                    LOADTIME                              #  CURRENT TIME.
000117:                                                                                                  # # Page 742
000118: 26,2301           03651                                    MM                                    #  PIPTIME FOR RONE & VONE.
000119: 26,2302           77615                           DAD
000120: 26,2303           03733                                    TTE1                                  #  NEGATIVE OF FREE FALL TIME.
000121: 26,2304           03727                           STORE    TTE                                   #  DECREMENTED
000122:
000123: 26,2305           77776                           EXIT
000124:
000125: 26,2306           32425                           CA       V06N63                                #  RTGO         VIO           TTE
000126:                                                                                                  #                                          XXXX.X NM    XXXXX. FPS    XXBXX M,S
000127: 26,2307           04555                           TC       BANKCALL
000128: 26,2310           20624                           CADR     GOFLASH
000129: 26,2311           04106                           TC       GOTOPOOH
000130: 26,2312           02314                           TC       +2
000131: 26,2313           02276                           TC       P61.2                                 #  REDO
000132:
000133:                                                                                                  #                                  .... THEN FALL INTO P62
000134:
000135:                                                                                                  # # Page 743
000136:                                                                                                  #  PROGRAM-             P62
000137:                                                                                                  #  MOD NO.-             0    MAR. 13, 1967
000138:                                                                                                  #  MOD BY-              R. HIRSCHKOP
000139:                                                                                                  #  MOD NO:  1           MOD BY:  RR BAIRNSFATHER      DATE: 21 MAR 67
000140:                                                                                                  #  MOD NO:  2           MOD BY:  RR BAIRNSFATHER      DATE:  22 JUN 67     RESTARTS.
000141:                                                                                                  #  MOD NO:  3           MOD BY:  RR BAIRNSFATHER      DATE:  17 JAN 68     COLOSSUS GSOP CHANGES.
000142:                                                                                                  #  MOD NO:  4           MOD BY:  RR BAIRNSFATHER      DATE:   8 MAY 68     MOVE START OF DESIRED GIMBAL CALC.
000143:                                                                                                  #  FUNCTION-            1) TO NOTIFY CREW WHEN GNC SYSTEM IS PREPARED FOR CM/SM SEPARATION
000144:                                                                                                  #                       2) TO ORIENT THE CM TO THE CORRECT ATTITUDE FOR ATMOSPHERIC ENTRY
000145:                                                                                                  #  CALLING SEQUENCE-    BY V37 OR DIRECTLY FROM P61
000146:                                                                                                  #  EXIT-                TO P63
000147:                                                                                                  #  ERASABLE INITIALIZATION:
000148:                                                                                                  #           ALFAPAD                                       LEFT BY PAD LOAD
000149:                                                                                                  #           LADPAD                                        LEFT BY PAD LOAD
000150:                                                                                                  #           LODPAD                                        LEFT BY PAD LOAD
000151:                                                                                                  #           LAT(SPL)    (MAY BE CHANGED BELOW)            LEFT BY DSKY, VIA P61
000152:                                                                                                  #           LNG(SPL)    (MAY BE CHANGED BELOW)            LEFT BY DSKY, VIA P61
000153:                                                                                                  #           HEADSUP     (MAY BE CHANGED BELOW)            LEFT BY DSKY, VIA P61
000154:                                                                                                  #  SUBROUTINE CALLS:    NEWMODEX , S61.1 , CM/DAPIC , CM/DAPON , R02BOTH , GOPERF1 , GOFLASH , GODSPR
000155:
000156: 26,2314                                           COUNT*   $$/P62
000157:
000158: 26,2314           05243                           TC       NEWMODEX                              #  MODE CHANGE IF CAME FROM P61.
000159: 26,2315           00076                           MM       62         B-14                       #  MODE CHANGE AUTOMATIC VIA V 37.
000160: 26,2316           34712                           CA       ONE
000161: 26,2317           54332                           TS       DNLSTCOD
000162:
000163: 26,2320           02543        P62                TC       S61.1                                 #  CHECK STATE VECTOR AND IMU ORIENTATION.
000164:
000165: 26,2321           06006                           TC       INTPRET
000166: 26,2322           47131                           SSP      RTB
000167: 26,2323           03325                                    POSEXIT
000168: 26,2324           54402                                    P62.3                                 #  CALCULATE DESIRED .05G GIMBAL ANGLES,
000169:                                                                                                  #                                          WITHOUT DISPLAY.
000170: 26,2325           41630                                    CM/DAPIC                              #  START CM/POSE AND BODY RATE CALC
000171:
000172:                                                                                                  #                                      DOES 2PHSCHNG, OCT 40116, OCT 05024, OCT 13000.
000173:                                                                                                  #                                          CM/DAPIC SETS EBANK = EBAOG
000174:
000175:                                                                                                  #                                          AND RETURNS IN BASIC TO P62.2.
000176: 26,2326           00006        P62.2              EXTEND
000177: 26,2327           32431                           DCA      POSECADR                              #  CONTINUE WITH CM/POSE AFTER AV G.
000178: 26,2330           53223                           DXCH     AVEGEXIT
000179:
000180: 26,2331           34270                           CAF      OCT41                                 #  REQUEST SEPARATION
000181: 26,2332           04555                           TC       BANKCALL
000182: 26,2333           21031                           CADR     GOPERF1R
000183: 26,2334           04106                           TC       GOTOPOOH
000184: 26,2335           02340                           TC       +3                                    #  PROCEED
000185:
000186:                                                                                                  # # Page 744
000187:                                                                                                  #                                                               NOTE:  NODOFLAG WILL BE SET IN CM/DAPON. <<<
000188: 26,2336           02331                           TC       -5                                    #  ENTER
000189: 26,2337           02232                           TC       P61.3                                 #  FOR PHASCHNG AND ENDOFJOB.
000190:
000191: 26,2340           04574        +3                 TC       POSTJUMP
000192: 26,2341           41550                           CADR     CM/DAPON                              #  DISABLE RCS DAP, ENABLE ENTRY DAP AND
000193:                                                                                                  #                                          DO ATTITUDE HOLD.
000194:
000195:                                                                                                  #                               WILL IDLE UNTIL CM/POSE DOES ONE UPDATE.
000196:                                                                                                  #                               CM/DAPON DOES NO PHASCHNG.
000197:
000198:
000199: 26,2342           32424        P62.1              CA       V06N61                                #  LAT(SPL)     LNG(SPL)      HEADSUP
000200:                                                                                                  #  XXX.XX DEG   XXX.XX DEG    0000X.
000201:
000202:                                                                                                  #                                  TERMINATE  ATTITUDE HOLD. SET UP COMMANDS:
000203:                                                                                                  #                                  ROLLC,  ALFACOM,  BETACOM.   BEGIN MANUVER TO
000204:                                                                                                  #                                  ENTRY ATTITUDE.
000205:
000206: 26,2343           04555                           TC       BANKCALL
000207: 26,2344           20624                           CADR     GOFLASH
000208: 26,2345           02342                           TC       -3
000209: 26,2346           02350                           TC       +2
000210: 26,2347           02342                           TC       -5
000211:
000212: 26,2350           05301                           TC       PHASCHNG
000213: 26,2351           04024                           OCT      04024                                 #  USE ENTRYVN FOR DISPLAY BELOW.
000214:
000215:                                                                                                  #                                          EBANK WAS SET IN CM/DAPON TO EBAOG
000216:
000217: 26,2352           11726                           CCS      HEADSUP                               #  C(HEADSUP) = +/- 1
000218: 26,2353           34675                           CA       BIT14                                 #  IF HEADSUP POS,ROLLC=180 DEG (LIFT DWN)
000219: 26,2354           12355                           NOOP                                           #  IF HEADSUP NEG,ROLLC=0 DEG  (LIFT UP)
000220: 26,2355           55715                           TS       ROLLC
000221: 26,2356           31411                           CA       ALFAPAD                               #  NOMINAL ALFATRIM PAD LOADED, NEG. NO.
000222: 26,2357           22007                           ZL
000223: 26,2360           53604                           DXCH     ALFACOM                               #  SET ALFACOM = ALFA TRIM, BETACOM=0
000224:
000225: 26,2361           34712                           CA       ONE                                   #  PERMITS EXDAP2 TO CHANGE FLAG TO +0
000226: 26,2362           55727                           TS       P63FLAG                               #  AS INDICATOR. STARTS UP P63.
000227:
000228: 26,2363           34745                           CA       V06N22                                #  SET UP DISPLAY FOR CDU DESIRED VALUES
000229: 26,2364           55263                           TS       ENTRYVN                               #  FROM ENTRY ATTITUDE CALC, THAT IS
000230:                                                                                                  #                                          ALREADY GOING.
000231: 26,2365           05435                           TC       UPFLAG                                #  TURN ON ENTRY DISPLAY
000232: 26,2366           00134                           ADRES    ENTRYDSP                              #  ENTRYDSP = 92D  BIT 13  FLAG 6
000233: 26,2367                        SKIP
000234:
000235:                                                                                                  # # Page 745
000236: 26,2367           41700                           CS       CMDAPMOD                              #  GO DIRECTLY TO P63 IF BODY ATTITUDE
000237: 26,2370           74712                           MASK     ONE                                   #  IS SUCH THAT THE DELAY TASK: WAKEP62
000238: 26,2371           00006                           EXTEND                                         #  WILL BE OMITTED.
000239: 26,2372           12420                           BZF      P63.1                                 #  DISABLE GRP 4, GO TO ENDOFJOB.
000240:
000241:                                                                                                  #                                          (IE, CONTINUE IF CMDAPMOD = -1, OR +0)
000242: 26,2373           02406                           TC       P63
000243:
000244:                                                                                                  #                                  PUT JOB TO SLEEP UNTIL VEHICLE MANUVER HAS
000245:                                                                                                  #                                  REDUCED ALFA TO +/-45 DEG. CONSIDER REMAINING
000246:                                                                                                  #                                  65 DEG (25 DEG IF ALFA NEG) TO ALFA TRIM TO
000247:                                                                                                  #                                  OCCUR AT 3 DEG/SEC, AND TERMINATE P62 AT THAT
000248:                                                                                                  #                                  TIME.
000249:                                                                                                  #                                  TASK WAKEP62 IS CALLED FROM ENTRY DAP.
000250:
000251: 26,2374           34760        WAKEP62            CA       PRIO13
000252: 26,2375           05027                           TC       NOVAC
000253: 26,2376  E6,1661                                  EBANK=   AOG
000254: 26,2376           02406 54066                     2CADR    P63
000255: 26,2400           05213                           TC       TASKOVER
000256:
000257: 26,2401           54402        P62.3CAD           CADR     P62.3
000258:
000259:                                                                                                  #                               EACH 2 SEC, CALCULATE GIMBAL ANGLES FOR ENTRY CON-
000260:                                                                                                  #                               DITIONS THAT WILL HOLD IF REORIENTATION WERE MADE
000261:                                                                                                  #                               AT PRESENT RN, VN. COME HERE FROM CM/POSE AND ALSO
000262:                                                                                                  #                               IN KEPLER PHASE OF ENTRY.
000263: 26,2402           52131        P62.3              SSP      GOTO                                  #  SET RETURN ADDRESS SO THAT   ROUTINE
000264: 26,2403           00053                                    QPRET                                 #  GOES DIRECTLY TO ENTRY GUIDANCE EXIT
000265: 26,2404           53570                                    ENDEXIT                               #  THAT DOES ENTRY DISPLAY ,GRP 5.
000266: 26,2405           20302                                    S62.3                                 #   PUT DESIRED CDU VALUES IN CPHI'S FOR
000267:                                                                                                  #  N22 DISPLAY.
000268:
000269:                                                                                                  # # Page 746
000270:                                                                                                  #           P63
000271:                                                                                                  #  PROGRAM-             P63
000272:                                                                                                  #  MOD NO.-             0    MAR. 13, 1967
000273:                                                                                                  #  MOD BY-              R. HIRSCHKOP
000274:                                                                                                  #  MOD NO:  1           MOD BY:  RR BAIRNSFATHER      DATE:  22 JUN 67     RESTARTS.
000275:                                                                                                  #  MOD NO:  2           MOD BY:  RR BAIRNSFATHER      DATE:  14 JUL 67     REVISED RESTARTS
000276:                                                                                                  #  FUNCTION-            1) TO INITIALIZE THE ENTRY EQUATIONS
000277:                                                                                                  #                       2) TO CONTINUE TO HOLD THE CM TO THE CORRECT ATTITUDE WITH RESPECT TO THE ATMOSPHERE FOR
000278:                                                                                                  #                          THE ONSET OF ENTRY DECELERATION. ROLL ANGLE IS LIFT UP/DOWN AS SPECIFIED BY HEADSUP.
000279:                                                                                                  #                       3) TO SENSE .05G.
000280:                                                                                                  #  CALLING SEQUENCE-    DIRECTLY FROM P62
000281:                                                                                                  #  EXIT-                TO ENDOFJOB
000282:                                                                                                  #  SUBROUTINE CALLS-    NEWMODEX , GODSPR
000283:
000284: 26,2406                                           COUNT*   $$/P63
000285:
000286: 26,2406           05243        P63                TC       NEWMODEX
000287: 26,2407           00077                           MM       63         B-14
000288:
000289: 26,2410           04555                           TC       BANKCALL                              #  FLUSH N22 DISPLAY, IF ON.  (ONIT DISP
000290: 26,2411           20607                           CADR     CLEANDSP                              #  DURING STATEMENT PASS.)
000291:
000292:                                                                                                  #                                          ARRIVE WITH EBANK = AOG.
000293:
000294: 26,2412           32427                           CA       ENTCADR                               #  CONTINUE AT STARTENT AFTER CM/POSE .
000295:
000296:                                                                                                  #                                  AT END OF STATEMENT, CHANGE ADDRESS IN GOTOADDR
000297:                                                                                                  #                                  TO CONTINUE AT  SCALEPOP  THEREAFTER.
000298:
000299: 26,2413           55724                           TS       POSEXIT
000300:
000301: 26,2414           32426                           CA       V06N64                                #  G            VI            R TO SPLSH
000302:                                                                                                  #                                          XXX.XX G     XXXXX. FPS    XXXX.X NM
000303: 26,2415           55263                           TS       ENTRYVN                               #  FOR DISPLAY CALL IN OVERNOUT.
000304:
000305: 26,2416           44712                           CS       ONE                                   #  IN CASE FLAG IS LEFT AT +1 BY DAP. THE
000306: 26,2417           55727                           TS       P63FLAG                               #  -1 ASSURES THAT EXO-ATM DAP WILL NOT
000307:                                                                                                  #                                          CALL P63 OUT OF SEQUENCE IN P66 .
000308:
000309: 26,2420           05301        P63.1              TC       PHASCHNG
000310: 26,2421           00004                           OCT      00004                                 #  DISABLE. DISPLAY RESTARTED VIA ENTRY.
000311:
000312: 26,2422           05112                           TC       ENDOFJOB
000313:
000314: 26,2423           01474        V06N60             VN       0660
000315: 26,2424           01475        V06N61             VN       0661
000316: 26,2425           01477        V06N63             VN       0663
000317: 26,2426           01500        V06N64             VN       0664
000318: 26,2427           52000        ENTCADR            CADR     STARTENT
000319:                                                                                                  # # Page 747
000320: 26,2430  E7,1451                                  EBANK=   RTINIT                                #  TO CARY OVER INTO ENTRY STEERING.
000321: 26,2430           03375 76067  POSECADR           2CADR    CM/POSE
000322:
000323:                                                                                                  # # Page 748
000324:                                                                                                  #  PROGRAM-             P64
000325:                                                                                                  #  MOD NO.-             1     SEPT. 19, 1967
000326:                                                                                                  #  MOD BY-              R. HIRSCHKOP
000327:                                                                                                  #  MOD NO:  2           MOD BY:  RR BAIRNSFATHER      DATE:   8 MAY 68     REVISED COMMENTS FOR COLOSSUS
000328:                                                                                                  #  FUNCTION-            1.  TO START ENTRY GUIDANCE AT .05G SELECTING ROLL  ATTITUDE, CONSTANT DRAG LEVEL, AND
000329:                                                                                                  #                       DRAG THRESHHOLD,  KA  , WHICH ARE KEYED TO THE .05G POINT.
000330:                                                                                                  #                       2.  SELECT FINAL PHASE P67 IF V < 27000 FPS WHEN .2G OCCURS.
000331:                                                                                                  #                       3.  ITERATE FOR UP-CONTROL SOLUTION  P65  IF V > 27000 FPS AND IF ALTITUDE RATE AND DRAG
000332:                                                                                                  #                       LEVEL CONDITIONS ARE SATISFIED. ENTER P65 WHEN CONSTANT DRAG CONTROLLER HAS BROUGHT RANGE
000333:                                                                                                  #                       AS PREDICTED TO WITHIN 25 NM OF DESIRED RANGE.
000334:                                                                                                  #                       4.  SELECT FINAL PHASE  P67  IF NO UP-CONTROL SOLUTION EXISTS WITH VL > 18000 FPS.
000335:                                                                                                  #  CALLING SEQUENCE-    BY RTB FROM REENTRY CONTROL
000336:                                                                                                  #  EXIT-                BACK TO REENTRY CONTROL
000337:                                                                                                  #  SUBROUTINE CALLS-    NEWMODEX
000338:
000339:
000340: 26,2432                                           BANK     26
000341: 26,2000                                           SETLOC   P60S1
000342: 26,2000                                           BANK
000343:
000344:                                                                                                  #           THIS DISPLAY IS CALLED EACH PASS THROUGH STEERING. RESTART PROTECTION IS VIA STEERING.
000345:
000346: 26,2432                                           COUNT*   $$/P64
000347:
000348: 26,2432           05243        P64                TC       NEWMODEX                              #  ENTER VIA RTB WHEN .05G IS EXCEEDED.
000349: 26,2433           00100                           MM       64         B-14
000350: 26,2434           32437                           CA       V06N68                                #  ROLLC        VI            HDOT
000351:                                                                                                  #                                          XXX.XX DEG   XXXXX. FPS    XXXXX. FPS
000352: 26,2435           55263                           TS       ENTRYVN                               #  DISPLAY VIA OVERNOUT.
000353:
000354: 26,2436           06030                           TC       DANZIG                                #  ... AND CONTINUE IN INITROLL ...
000355:
000356:
000357: 26,2437           01504        V06N68             VN       0668
000358:
000359:                                                                                                  # # Page 749
000360:                                                                                                  #  PROGRAM:             P65
000361:                                                                                                  #  MOD NO:  0           MOD BY:  RR BAIRNSFATHER      DATE:  17 JAN 68     COLOSSUS GSOP ADDITION.
000362:                                                                                                  #  FUNCTION:            TO CONTINUE ENTRY GUIDANCE, USING THE UP-CONTROL PHASE TO STEER TO A CONTROLLED EXIT
000363:                                                                                                  #                       CONDITION. THIS PHASE TERMINATES  A) IF D  < Q7 FPSS, GO TO P66   ,
000364:                                                                                                  #                                                         B) IF RDOT NEG, AND IF V < VL +500 FPS, GO TO P67.
000365:                                                                                                  #  CALLING SEQUENCE:    BY RTB FROM REENTRY CONTROL
000366:                                                                                                  #  EXIT:                BACK TO REENTRY CONTROL, OR TO ENDOFJOB.
000367:                                                                                                  #  SUBROUTINE CALLS:    NEWMODEX
000368:
000369: 26,2440                                           COUNT*   $$/P65
000370:
000371: 26,2440           05243        P65                TC       NEWMODEX                              #  ENTER VIA RTB WHEN RANGE < 25 N M OF
000372: 26,2441           00101                           MM       65         B-14                       #  TARGET.
000373:
000374: 26,2442           34760                           CA       PRIO13
000375: 26,2443           05027                           TC       NOVAC
000376: 26,2444     1263                                  EBANK=   ENTRYVN
000377: 26,2444           02456 54062                     2CADR    P65.1
000378: 26,2446           05261                           TC       2PHSCHNG                              #  2 PHASE CHG REQUIRED TO PREVENT RE-
000379: 26,2447           00554                           OCT      00554                                 #  STARTING FLASHING DISPLAY TWICE.
000380: 26,2450           10035                           OCT      10035                                 #  4.55 SPOT AND SERVICER, HERE.
000381: 26,2451           06006                           TC       INTPRET
000382: 26,2452           47131                           SSP      RTB
000383: 26,2453           03646                                    GOTOADDR                              #  CHANGE ENTRY MODE TO UPCONTRL.
000384: 26,2454           53027                                    UPCONTRL
000385: 26,2455           52120                                    REFAZE10                              #  GO HERE TO REESTABLISH ENTRY SEQUENCER.
000386:                                                                                                  #                                          AND CONTINUE AT UPCONTRL...
000387:
000388: 26,2456           05447        P65.1              TC       DOWNFLAG
000389: 26,2457           00134                           ADRES    ENTRYDSP                              #  ENTRYDSP = 92D  BIT 13 FLAG 6
000390:
000391: 26,2460           32472                           CA       V16N69                                #  ROLLC        DL  (Q7)      VL
000392: 26,2461           04555                           TC       BANKCALL                              #  XXX.XX DEG   XXX.XX G      XXXXX. FPS
000393: 26,2462           20763                           CADR     GOFLASHR
000394: 26,2463           02460                           TC       -3                                    #  NODOFLAG IS SET..
000395: 26,2464           02467                           TC       +3
000396: 26,2465           02460                           TC       -5
000397: 26,2466           02232                           TC       P61.3                                 #  EST. GRP 4 FOR DSPLAY AND DO ENDOFJOB
000398:                                                                                                  #                                          IF PROCEED, CONTINUE
000399: 26,2467           05435                           TC       UPFLAG
000400: 26,2470           00134                           ADRES    ENTRYDSP                              #  ENTRYDSP = 92D   BIT 13 FLAG 6
000401:
000402: 26,2471           02420                           TC       P63.1                                 #  DISABLE GRP 4,START UP ENTRY DISPLAY
000403:
000404:                                                                                                  #                                          N06V68 VIA OVERNOUT, AS USED IN P64.
000405:
000406: 26,2472           04105        V16N69             VN       1669
000407:
000408:                                                                                                  # # Page 750
000409:                                                                                                  #  PROGRAM:             P66
000410:                                                                                                  #  MOD NO:  0           MOD BY:  RR BAIRNSFATHER      DATE:  17 JAN 68     COLOSSUS GSOP ADDITIONS.
000411:                                                                                                  #  FUNCTION:            KEEP CM ATTITUDE IN TRIM TO THE RELATIVE VELOCITY VECTOR. ENTRY GUIDANCE STOPS GENERATING
000412:                                                                                                  #                       ROLL COMMANDS UNTIL DRAG BUILDS UP TO  Q7+0.5 FPSS.
000413:
000414:                                                                                                  #  CALLING SEQUENCE:    VIA RTB FROM REENTRY CONTROL.
000415:                                                                                                  #  EXIT:                BACK TO REENTRY CONTROL.
000416:                                                                                                  #  SUBROUTINE CALLS:    NEWMODEX
000417:
000418: 26,2473                                           COUNT*   $$/P66
000419:
000420: 26,2473           05243        P66                TC       NEWMODEX                              #  ENTER VIA RTB WHEN D < Q7 FPSS
000421: 26,2474           00102                           MM       66         B-14
000422:
000423: 26,2475           34745                           CA       V06N22                                #  OGA          IGA           MGA
000424:                                                                                                  #  XXX.XX DEG   XXX.XX DEG    XXX.XX DEG
000425: 26,2476           02502                           TC       P66END                                #  IN CASE CAME FROM P65, GO TO DISABLE GRP4,
000426:                                                                                                  #                                          AND SET ENTRYDSP TO DO DISPLAY VIA
000427:                                                                                                  #                                          OVERNOUT.
000428:                                                                                                  #                                          ... AND CONTINUE AT KEP2
000429:
000430:                                                                                                  # # Page 751
000431:                                                                                                  #  PROGRAM:      P67
000432:                                                                                                  #  MOD NO:       0       MAR. 16, 1967
000433:                                                                                                  #  MOD BY:       R. HIRSCHKOP
000434:                                                                                                  #  FUNCTION:     TO TERMINATE STEERING WHEN THE CM VELOCITY WRT EARTH = 1000 FT/SEC
000435:                                                                                                  #  CALLING SEQUENCE:
000436:                                                                                                  #  EXIT:         TO P00H
000437:                                                                                                  #  SUBROUTINE CALLS:  GOFLASH
000438:
000439:                                                                                                  #  THIS DISPLAY IS CALLED EACH PASS THROUGH STEERING.  RESTART PROTECTION IS VIA STEERING.
000440:
000441: 26,2477                                           COUNT*   $$/P67
000442:
000443: 26,2477           05243        P67                TC       NEWMODEX                              #  ENTER VIA RTB
000444: 26,2500           00103                           MM       67         B-14
000445: 26,2501           32510                           CA       V06N66                                #  ROLLC         XRNGERR         DNRNGERR
000446:                                                                                                  #  XXX.XX DEG    XXXX.X NM       XXXX.X NM
000447: 26,2502           55263        P66END             TS       ENTRYVN                               #  DISPLAY VIA OVERNOUT.
000448:
000449: 26,2503           05435                           TC       UPFLAG                                #  (IN CASE CAME FROM P65. ENTRY DISPLAY
000450: 26,2504           00134                           ADRES    ENTRYDSP                              #  WILL FLUSH FLASHING DISP. IF STILL ON)
000451:                                                                                                  #                                          BIT 13 FLAG 6
000452: 26,2505           05301        KILLGRP4           TC       PHASCHNG                              #  DISABLE GRP4, IN CASE CAME FROM HUNTEST.
000453: 26,2506           00004                           OCT      00004                                 #  (COME TO KILLGRP4 VIA RTB,RET TO CALLER)
000454:
000455: 26,2507           06030                           TC       DANZIG                                #  ... AND CONTINUE AT PREDICT3 ...
000456:
000457: 26,2510           01502        V06N66             VN       0666
000458:
000459: 26,2511                                           BANK     26
000460: 26,2000                                           SETLOC   P60S2
000461: 26,2000                                           BANK
000462:
000463: 26,2511           32542        P67.1              CA       V16N67                                #  RTOGO        LAT           LONG
000464:                                                                                                  #  XXXX.X NM    XXX.XX DEG    XXX.XX DEG
000465: 26,2512           04555                           TC       BANKCALL
000466: 26,2513           20624                           CADR     GOFLASH
000467: 26,2514           02517                           TC       +3                                    #  EFFECTIVE GOTOPOOH
000468: 26,2515           02517                           TC       +2
000469: 26,2516           02511                           TC       P67.1                                 #  REDO
000470:
000471: 26,2517           46214                           CS       THREE                                 #  TURN OFF ENTRY DAP
000472: 26,2520           00004                           INHINT
000473: 26,2521           70102                           MASK     CM/FLAGS                              #  CM/DSTBY , GAMDIFSW
000474: 26,2522           54102                           TS       CM/FLAGS
000475: 26,2523           00003                           RELINT
000476: 26,2524           00006                           EXTEND
000477: 26,2525           32642                           DCA      SERVCAD2
000478:                                                                                                  # # Page 752
000479: 26,2526           53223                           DXCH     AVEGEXIT
000480: 26,2527           14106                           TCF      GOTOPOOH
000481:
000482:                                                                                                  # # Page 753
000483: 26,2530           43175        P67.2              VLOAD    CLEAR                                 #  CALC PRESENT LAT, LONG, ALT.
000484: 26,2531           01171                                    RN
000485: 26,2532           00662                                    ERADFLAG                              #  USE PAD RAD FOR ALT.(NOT SEEN ANYWAY)
000486: 26,2533           16152                           STODL    ALPHAV
000487: 26,2534           01205                                    PIPTIME                               #  USE TIME OF RN
000488: 26,2535           45014                           CLEAR    CALL
000489: 26,2536           01663                                    LUNAFLAG
000490: 26,2537           26322                                    LAT-LONG
000491: 26,2540           77634        P67.3              RTB                                            #  ENTRY EXIT THAT OMITS DISPLAY.
000492: 26,2541           53603                                    SERVNOUT
000493:
000494: 26,2542           04103        V16N67             VN       1667
000495: 26,2543     4270               OCT41              =        33DEC
000496: 26,2543  26,2641               SERVCAD2           =        SERVCAD1
000497:
000498:                                                                                                  # # Page 754
000499:                                                                                                  #  SUBROUTINE NAME:     S61.1
000500:                                                                                                  #  MOD NO:  0                                                              DATE: 21 FEB 67
000501:                                                                                                  #  MOD BY:  RR BAIRNSFATHER                              LOG SECTION:    P61-P67
000502:                                                                                                  #  MOD NO:  1           MOD BY:  RR BAIRNSFATHER         DATE:           22 JUN 67       RESTARTS.
000503:                                                                                                  #  FUNCTIONAL DESCRIPTION:     CALLED BY BOTH P61 AND P62
000504:                                                                                                  #           FIRST,TEST TO SEE IF   AVERAGEG   IS ON. IF NOT, UPDATE THE STATE VECTOR TO PRESENT TIME + TOLERANCE
000505:                                                                                                  #           AND TURN ON   AVERAGEG   AT THAT TIME, AND CONTINUE.   OTHERWISE CONTINUE:   SEE IF  IMU Y AXIS IS
000506:                                                                                                  #           WITHIN 30 DEG OF V*R.  IF YES, EXIT SUBROUTINE S61.1.    IF NO,  SEE IF -Y AXIS OF IMU IS WITHIN
000507:                                                                                                  #           30 DEG OF V*R.   IF YES, DISPLAY ALARM:  01427   IMU REVERSED.
000508:                                                                                                  #                            IF NO, DISPLAY ALARM:   01426   IMU UNSATISFACTORY.
000509:                                                                                                  #           IN EITHER OF THESE LAST 2 CASES, WAIT  10 SEC  AND THEN EXIT SUBROUTINE  S61.1.
000510:
000511:                                                                                                  #  REMARK:              THERE WILL BE A SHORT 10 SEC DELAY IF AN ALARM EXIT IS TAKEN. THE DELAY FOR INTEGRATION IS
000512:                                                                                                  #                       AS SHORT AS CAN BE MADE, BUT IS ARBITRARY SINCE IT  DEPENDS ON THE AGE OF THE STATE VECTOR.
000513:
000514:                                                                                                  #  CALLING SEQUENCE:  CALL
000515:                                                                                                  #                            S61.1
000516:                                                                                                  #                     C(MPAC) UNSPECIFIED
000517:                                                                                                  #                     PUSHLOC UNSPECIFIED
000518:
000519:                                                                                                  #  SUBROUTINES CALLED:  LOADTIME, CSMPREC, TPAGTREE,
000520:                                                                                                  #                       WAITLIST, JOBSLEEP, JOBWAKE, PREREAD, ALARM, GODSPR, BANKCALL, DELAYJOB
000521:                                                                                                  #  NORMAL EXIT MODES:   RVQ
000522:                                                                                                  #  ALARMS:  01426     IMU UNSATISFACTORY
000523:                                                                                                  #           01427     IMU REVERSED
000524:                                                                                                  #  OUTPUT:  POSSIBLE ALARMS
000525:                                                                                                  #           POSSIBLY TDEC1, RATT, VATT, RN, VN
000526:                                                                                                  #  ERASABLE INITIALIZATION REQUIRED:
000527:                                                                                                  #           AVEGFLAG               AVERAGEG ON OR OFF                      LEFT BY SERVICER
000528:                                                                                                  #           PIPTIME  (-28) CS      TIME OF PIPA UPDATE                     LEFT BY READACCS
000529:                                                                                                  #           RN     (-29) M         STATE VECTOR                            LEFT BY AVERAGEG
000530:                                                                                                  #           VN     (-7) M/CS       STATE VECTOR                            LEFT BY AVERAGEG
000531:                                                                                                  #           REFSMMAT  (-1)         .5 REF TO SM MATRIX                     LEFT BY LAST IMU ALIGNMENT
000532:                                                                                                  #  DEBRIS:  QPRET
000533:                                                                                                  #           POSSIBLY PIPTIME1, RATT, VATT, TDEC1, RN1, VN1, QTEMP, X1      IF UPDATED
000534:                                                                                                  #           PUSH LIST LOCS USED BY CSMPREC
000535:
000536: 26,2543  E6,1661                                  EBANK=   AOG                                   #  FOR 60GENRET , S61DT
000537: 26,2543                                           BANK     26
000538: 26,2000                                           SETLOC   P60S3
000539: 26,2000                                           BANK
000540:
000541: 26,2543                                           COUNT*   $$/S61.1
000542:
000543: 26,2543           00006        S61.1              EXTEND
000544: 26,2544           23773                           QXCH     60GENRET                              #  SAVE RET ADDR IN EB 6
000545: 26,2545           04555                           TC       BANKCALL
000546: 26,2546           17573                           CADR     R02BOTH
000547: 26,2547           06006                           TC       INTPRET
000548:                                                                                                  # # Page 755
000549: 26,2550           45014                           BON      CALRB
000550: 26,2551           00716                                    AVEGFLAG                              #  IS AVERAGEG ON
000551: 26,2552           54603                                    S61.1A                                #  YES
000552: 26,2553           27570                                    MIDTOAV2                              #  GET FUTURE STATE VECTOR SOON AS CAN
000553:
000554: 26,2554           30155                           CA       MPAC       +1                         #  RETURN INHINTED ***
000555: 26,2555           55774                           TS       S61DT                                 #  FOR RESTART.
000556: 26,2556           05140                           TC       WAITLIST
000557: 26,2557  E7,1431                                  EBANK=   DVCNTR
000558: 26,2557           02564 54067                     2CADR    S61.1C
000559: 26,2561           05301                           TC       PHASCHNG
000560: 26,2562           40434                           OCT      40434
000561: 26,2563           05112                           TC       ENDOFJOB
000562:
000563: 26,2564           34760        S61.1C             CA       PRIO13
000564: 26,2565           05042                           TC       FINDVAC
000565: 26,2566  E6,1661                                  EBANK=   AOG
000566: 26,2566           02602 54066                     2CADR    S61.1A     -1
000567:
000568: 26,2570           00006                           EXTEND
000569: 26,2571           32642                           DCA      SERVCAD1                              #  HE WHO STARTS AVERAGEG MUST SERVICE
000570: 26,2572           53223                           DXCH     AVEGEXIT                              #  THE EXIT.
000571:
000572: 26,2573           05261                           TC       2PHSCHNG
000573: 26,2574           00454                           OCT      00454
000574: 26,2575           00415                           OCT      00415
000575:
000576: 26,2576           34753                           CA       EBENTRY                               #  SET EB= 7 FOR PREREAD.
000577: 26,2577           54003                           TS       EBANK
000578:
000579: 26,2600           04574                           TC       POSTJUMP
000580: 26,2601           76604                           CADR     PREREAD                               #  PREREAD DOES TC TASKOVER.
000581:
000582: 26,2602           06006                           TC       INTPRET
000583: 26,2603           77204        S61.1A             BOVB     VLOAD
000584: 26,2604           57314                                    TCDANZIG                              #  TURN OFF OVFIND, IF ON
000585: 26,2605           01177                                    VN                                    #  VN   (-7) M/CS
000586: 26,2606           64235                           VXV      MXV
000587: 26,2607           01171                                    RN                                    #  RN  (-29)  M
000588: 26,2610           01736                                    REFSMMAT                              #  .5 UNIT MATRIX
000589: 26,2611           71256                           UNIT     DLOAD
000590: 26,2612           00160                                    MPAC       +3                         #  GET  COS(THETA)/2
000591: 26,2613           43240                           BMN      DAD
000592: 26,2614           54621                                    S61.1B                                #  DO TEST ON -YSM
000593: 26,2615           14644                                    C(30)LIM                              #  = 1.0 -.5 COS(30)
000594: 26,2616           47004                           BOVB     RTB
000595: 26,2617           54640                                    RETRN1
000596: 26,2620           54625                                    RETRN3
000597:                                                                                                  # # Page 756
000598: 26,2621           43276        S61.1B             DCOMP    DAD
000599: 26,2622           14644                                    C(30)LIM                              #  = 1.0- .5 COS(30)
000600: 26,2623           77404                           BOVB     EXIT
000601: 26,2624           54630                                    RETRN2
000602:
000603: 26,2625           05537        RETRN3             TC       ALARM
000604: 26,2626           01426                           OCT      01426                                 #  IMU UNSATISFACTORY
000605: 26,2627           02632                           TC       RETRN2     +2
000606:
000607: 26,2630           05537        RETRN2             TC       ALARM
000608: 26,2631           01427                           OCT      01427                                 #  IMU REVERSED
000609:
000610: 26,2632           34743        +2                 CAF      V05N09
000611: 26,2633           04555                           TC       BANKCALL
000612: 26,2634           20602                           CADR     GODSPR                                #  DO DISPLAY
000613: 26,2635           32645                           CA       10SECS
000614: 26,2636           04555                           TC       BANKCALL
000615: 26,2637           01730                           CADR     DELAYJOB
000616:
000617: 26,2640           01773        RETRN1             TC       60GENRET
000618:
000619: 26,2641  E7,1431                                  EBANK=   DVCNTR
000620: 26,2641           03136 76067  SERVCAD1           2CADR    SERVEXIT
000621: 26,2643           22111 17335  C(30)LIM           2DEC     .566985                               #  = 1.0 - .5 COS(30)
000622: 26,2645           01750        10SECS             DEC      1000       B-14                       #  1000 CS
000623: 26,2646           00000 13560  60SECDP            2DEC     6000       B-28                       #  6000 CS
000624:
000625:                                                                                                  # # Page 757
000626:                                                                                                  #  PROGRAM NAME:      S61.2                                                DATE:           14 FEB 67
000627:                                                                                                  #  MOD NO:  1                                                              LOG SECTION:    P61-P67
000628:                                                                                                  #  MOD BY:  MORTH / BAIRNSFATHER
000629:                                                                                                  #  MOD NO:  2           MOD BY:  MORTH/BAIRNSFATHER   DATE:  11 MAY 67     ADD 2ND ITER FOR ERAD AT 400K FT.
000630:                                                                                                  #  MOD NO:  3           MOD BY:  RR BAIRNSFATHER      DATE:  21 NOV 67     VARIABLE MU ADDED.
000631:                                                                                                  #  MOD NO:  4           MOD BY:  RR BAIRNSFATHER      DATE:  21 MAR 68     DIFFERENT EARTH/MOON SCALES IN TFF'S
000632:                                                                                                  #  FUNCTIONAL DESCRIPTION:      CALLED IN P61.  PROVIDES DISPLAYS FOR NOUNS  N60  AND  N63  .
000633:                                                                                                  #           PROGRAM CALCULATES ENTRY DISPLAY OF MAXIMUM ACCELERATION EXPECTED  (GMAX)  AND ALSO THE EXPECTED
000634:                                                                                                  #           INERTIAL VELOCITY (VPRED) AND ENTRY ANGLE   (GAMMABI)   THAT WILL OBTAIN AT 400K FT ABOVE THE FISCHER
000635:                                                                                                  #           ELLIPSOID.   PROGRAM ALSO CALCULATES A SECOND DISPLAY RELATIVE  TO THE EMSALT  ABOVE FISCHER ELLIPSOID
000636:                                                                                                  #           AND CONSISTS OF RANGE TO SPLASH FROM NOW (RTGO) , PREDICTED INERTIAL VELOCITY (VIO) , AND THE TIME TO
000637:                                                                                                  #           GO FROM NOW (TTE) .
000638:                                                                                                  #  CALLING SEQUENCE:  CALL
000639:                                                                                                  #                            S61.2
000640:                                                                                                  #           C(MPAC) UNSPECIFIED
000641:                                                                                                  #           PUSHLOC WILL BE SET TO ZERO.
000642:
000643:                                                                                                  #  SUBROUTINES CALLED:  TFFCONIC,  CALCTFF,  TFF/TRIG,  FISHCALC,  GETERAD,  VGAMCALC
000644:                                                                                                  #  NORMAL EXIT MODES:    RTB  P61.1
000645:                                                                                                  #  ALARMS:  NONE
000646:                                                                                                  #  OUTPUT:  THE FOLLOWING REGISTERS ARE WRITTEN IN FOR USE BY DISPLAYS
000647:                                                                                                  #           GMAX   100 GMAX  (-14)  G,S     MAXIMUM ACCELERATION
000648:                                                                                                  #           VPRED  (-7)  M/CS      PREDICTED VELOCITY AT 400K FT
000649:                                                                                                  #           GAMMAEI  GAMMA/360     PREDICTED GAMMA    AT 400K FT
000650:                                                                                                  #                                  FOR TM, DP(GAMMAEI) = (GAMMAEI, RTGO) / 360
000651:                                                                                                  #           RTGO   THETAH/360      RANGE ANGLE TO SPLASH FROM EMSALT       EMSALT IS PAD LOADED
000652:                                                                                                  #           VIO    (-7) M/CS       INTERTIAL VELOCITY AT      EMSALT       EMSALT IS PAD LOADED
000653:                                                                                                  #           TTE    (-28) CS        TIME TO                    EMSALT       EMSALT IS PAD LOADED
000654:
000655:                                                                                                  #           PUSHLOC = 0
000656:                                                                                                  #           CONIC PARAMETERS STORED IN VAC AREA (SEE TFF SUBROUTINES)
000657:                                                                                                  #  ERASABLE INITIALIZATION REQUIRED:
000658:                                                                                                  #           RONE   (-29) M         STATE VECTOR                            LEFT BY USER
000659:                                                                                                  #           VONE   (-7)  M/CS      STATE VECTOR                            LEFT BY USER
000660:                                                                                                  #           URONE  UR/2                                                    LEFT BY USER
000661:                                                                                                  #           UNI    (-1)            UNIT NORMAL V*R                         LEFT BY ENTRY / P61
000662:                                                                                                  #           THETAH  THETAH/360     RANGE ANGLE                             LEFT BY ENTRY / P61
000663:                                                                                                  #           UNITW  (0)             UNIT POLAR VECTOR                       LEFT BY  PAD LOAD
000664:                                                                                                  #           EMSALT  (-29) M        EMS INTERFACE ALTITUDE                  LEFT BY  PAD LOAD
000665:                                                                                                  #                                  ORBITAL REENTRY:  284643 FT, LUNAR REENTRY:  297431 FT.
000666:                                                                                                  #  DEBRIS:  QPRET,
000667:                                                                                                  #           ALL PDL LOCATIONS ABOVE 12D, INCLUDING X1,X2,S1,S2
000668:                                                                                                  #           ALSO PDL+0 ... PDL+5, WHERE INITIAL PUSHLOC = PDL
000669:
000670:                                                                                                  # # Page 758
000671:
000672:
000673:                                                                                                  #  THE FOLLOWING PUSH LIST LOCATIONS HAVE BEEN RESERVED FOR TFF ROUTINES AND ARE REPEATED HERE FOR CONVENIENCE.
000674:
000675:                                                                                                  #  OF COURSE  FOR S61.2 USAGE, EARTH ORIGIN SCALING IS USED.
000676:
000677:                                                                                                  #                                                               BELOW      E:   IS USED FOR EARTH ORIGIN SCALE
000678:                                                                                                  #                                                                          M:   IS USED FOR MOON ORIGIN SCALE
000679:
000680:                                                                                                  #                                          RTERM    =      18D             TERMINAL RADIUS M  E: (-29)  M: (-27)
000681:                                                                                                  #                                          NRTERM   =      16D             TERMINAL RADIUS M  E: (-29+NR)
000682:                                                                                                  #                                                                                             M: (-27+NR)
000683:                                                                                                  #                                          RMAG1    =      12D             PRESENT RADIUS M   E: (-29)  M: (-27)
000684:                                                                                                  #                                          NRMAG    =      32D             PRESENT RADIUS M   E: (-29+NR)
000685:                                                                                                  #                                                                                             M: (-27+NR)
000686:                                                                                                  #                                          SDELF/2                         SIN(THETA)  /2
000687:                                                                                                  #                                          CDELF/2  =      14D             COS(THETA) /2
000688:                                                                                                  #                                          TFFX     =      34D             X, ARGUMENT OF SERIES T(X).
000689:                                                                                                  #                                          TFFTEM   =      36D             ARG  FOR TRANSFER ANGLE CALCULATION.
000690:                                                                                                  #                                          TFFNP    =      28D             LC P  M  E: (-38+2NR)   M: (-36+2NR)
000691:                                                                                                  #                                          TFF/RTMU =      30D             1/SQRT(MU)         E: (17)   M: (14)
000692:                                                                                                  #                                          TFFVSQ   =      20D             -(VN.VN/MU)  1/M   E: (20)   M: (18)
000693:
000694:                                                                                                  # # Page 759
000695: 34,3654                                           BANK     34
000696: 26,2000                                           SETLOC   P60S2
000697: 26,2000                                           BANK
000698:
000699: 26,2650                                           COUNT*   $$/S61.2
000700:
000701:                                                                                                  #                                          PDL LEFT AT ZERO BY TARGETING
000702:
000703: 26,2650           45345        S61.2              DLOAD    DSU
000704: 26,2651           02020                                    EMSALT
000705: 26,2652           15000                                    290KFT
000706: 26,2653           71244                           BPL      DLOAD
000707: 26,2654           54774                                    LUNENT
000708: 26,2655           17316                                    1/RTMU                                #  ESTABLISH MU FOR ORBITAL ENTRIES
000709: 26,2656           77624        CALLCON            CALL
000710: 26,2657           56721                                    TFFCONIC                              #  FILL VAC AREA WITH CONIC PARAMETERS
000711:
000712: 26,2660           45145                           DLOAD    CALL
000713: 26,2661           15020                                    RTRIAL                                #  1ST GUESS AT TERMINAL RADIUS  (-29)
000714: 26,2662           57031                                    CALCTFF                               #  SAVES MPAC IN RTERM  (18D)
000715:
000716: 26,2663           77624                           CALL                                           #  CALC SDELF/2,  CDELF/2
000717: 26,2664           56573                                    TFF/TRIG                              #  RETURN WITH S(THETA) IN MPAC
000718:
000719: 26,2665           77624                           CALL                                           #  GET FISCHER RADIUS (-29) M
000720: 26,2666           55027                                    FISHCALC                              #  ANS IN MPAC AND IN ERADM.
000721:
000722: 26,2667           45015                           DAD      CALL
000723: 26,2670           02020                                    EMSALT
000724: 26,2671           57031                                    CALCTFF                               #  SAVES MPAC IN  RTERM  (18D)
000725:
000726: 26,2672           77676                           DCOMP                                          #  NEGATIVE AS IN COUNTDOWN.
000727: 26,2673           03733                           STORE    TTE1                                  #  DECR TTE FROM BASB TTE1. (RESTART)
000728:                                                                                                  #                                          DNLIST AND DSKY WILL USE TTE.
000729: 26,2674           37727                           STCALL   TTE                                   #  LET MISS CONTRL DECR BY ELAPSED TIME
000730:                                                                                                  #                                          TTE= TIME FROM NOW TO EMSALT +FISCHER
000731:
000732: 26,2675           56573                                    TFF/TRIG                              #  S(THETA) IN MPAC ON RETURNING
000733:                                                                                                  #                                          AND THETA= RANGE FROM NOW TO EMSALT
000734:
000735: 26,2676           77624                           CALL
000736: 26,2677           55027                                    FISHCALC
000737: 26,2700           77624                           CALL
000738: 26,2701           56626                                    VRCALC
000739: 26,2702           77624                           CALL
000740: 26,2703           56613                                    DISPTARG
000741: 26,2704           77624                           CALL
000742: 26,2705           56613                                    DISPTARG
000743: 26,2706           37714                           STCALL   RTGO
000744:                                                                                                  # # Page 760
000745: 26,2707           55050                                    VGAMCALC
000746:
000747: 26,2710           77605                           DMP                                            #  MPAC = GAMMA
000748:                                                                                                  #  PDL0 HAS VGAM.
000749: 26,2711           43265                           BDDV     DAD
000750: 26,2712           15026                                    VEMSCON                               #  -HS D 180/PI (-14)
000751: 26,2713           00001                                    0                                     #  VGAM FROM PDL0.
000752: 26,2714           17725                           STODL    VIO                                   #  PREDICTED VELOCITY AT EMSALT.
000753:
000754:                                                                                                  #                               GAMMA AND VGAM AT 300K FT ARE REQUIRED BY  GMAX
000755:                                                                                                  #                               ALGORITHM.
000756:
000757: 26,2715           02241                                    ERADM                                 #  EARTH RADIUS FROM GETERAD     (-29) M
000758:                                                                                                  #                                          = FISCHER RADIUS  (-29)
000759: 26,2716           77615                           DAD
000760: 26,2717           06462                                    300KFT                                #  M  (-29)
000761: 26,2720           34023                           STCALL   RTERM                                 #  TERMINAL RADIUS  M  (-29)
000762:
000763: 26,2721           55045                                    PREVGAM                               #  VGAMCALC WITH NEW RTERM
000764:
000765:                                                                                                  #  VBAR = (V(FPS)  - 36KF/S) / 20KF/S
000766:                                                                                                  #   GMAX = (4/(1+ 4.8 VBARSQ))(GAM -6.05 -2.4 VBARSQ) -10(L/D -.3) + 10     ASSUME L/D = 0.3, BANK =0.
000767:
000768:
000769:                                                                                                  #                                          GMAXCALC
000770: 26,2722           45325                           PDDL     DSU                                   #  GAM TO PDL2
000771: 26,2723           00001                                    0                                     #  VGAM IS IN PDL0  (-7)
000772: 26,2724           15004                                    36KFT/S                               #  (-7)   M/CS
000773: 26,2725           63471                           DDV      DSQ
000774: 26,2726           15006                                    20KFT/S                               #  (-6)   M/CS
000775: 26,2727           00001                           STORE    0                                     #  VBARSQ  (-2)  TO PDL0
000776:
000777: 26,2730           43205                           DMP      DAD
000778: 26,2731           15010                                    KR1
000779:                                                                                                  #                                          GAM,    POS DOWN, FROM PDL2
000780: 26,2732           41215                           DAD      DMP
000781: 26,2733           15012                                    -6.05DEG
000782: 26,2734           15014                                    KR2
000783: 26,2735           77725                           PDDL                                           #  XCH PDL+0 FOR VBARSQ  (-2)
000784: 26,2736           43271                           DDV      DAD
000785: 26,2737           15024                                    KR4
000786: 26,2740           17330                                    DP2(-4)
000787: 26,2741           77665                           BDDV
000788:                                                                                                  #                                          NUM FROM PDL+0
000789: 26,2742           51015                           DAD      BPL
000790: 26,2743           15016                                    KR3
000791: 26,2744           54747                                    +3
000792: 26,2745           77745                           DLOAD
000793: 26,2746           15332                                    HI6ZEROS
000794: 26,2747           17722                           STODL    GMAX                                  #  100 GMAX  (-14)
000795:                                                                                                  # # Page 761
000796:                                                                                                  #  DISPLAY USES GMAX AS SP, SO LO WORD IS WRITTEN OVER BY VPRED.
000797:
000798: 26,2750           02241                                    ERADM                                 #  = FISCHER RADIUS  (-29) M
000799: 26,2751           45015                           DAD      CALL                                  #  2 ND  ITERATION FOR FISCHER RADIUS
000800: 26,2752           15022                                    400KFT
000801: 26,2753           57031                                    CALCTFF                               #  ESTABLISH TRANSFER ANGLE DATA.
000802: 26,2754           77624                           CALL
000803: 26,2755           56573                                    TFF/TRIG                              #  GET SIN, COS DELF
000804: 26,2756           77624                           CALL
000805: 26,2757           55027                                    FISHCALC                              #  GET CORRESPONDING FISCHER RADIUS.
000806:
000807: 26,2760           73015                           DAD      LXA,2                                 #  SAVE HI-WORD FOR DOWNLIST.
000808: 26,2761           15022                                    400KFT                                #  M  (-29)
000809: 26,2762           03713                                    RTGO                                  #  (RANGE ANGLE FROM EMSALT)/360
000810: 26,2763           34023                           STCALL   RTERM
000811: 26,2764           55045                                    PREVGAM                               #  VGAMCALC WITH NEW RTERM
000812:
000813: 26,2765           67076                           DCOMP    SXA,2                                 #  HI-WORD OF EACH ON DOWNLIST.
000814: 26,2766           00155                                    MPAC       +1
000815: 26,2767           17771                           STODL    GAMMAEI                               #  CONIC GAMMA/360 AT 400K FT.   ( HI-WORD)
000816:                                                                                                  #                                          CONIC RTGO/360 FROM EMSALT    (LOW-WORD)
000817:                                                                                                  #                                          FOR TM, DP(GAMMAEI)= (GAMMA, RTGO)/360
000818:
000819:                                                                                                  #                                          VGAM FROM PDL+0   (-7)
000820: 26,2770           77626                           STADR
000821: 26,2771           74010                           STORE    VPRED                                 #  CONIC VELOCITY AT 400K FT
000822:
000823: 26,2772           77634                           RTB
000824: 26,2773           54267                                    P61.1
000825:                                                                                                  #                                          PDL BACK TO ZERO.
000826:
000827: 26,2774           52145        LUNENT             DLOAD    GOTO
000828: 26,2775           06456                                    1/RTMUE                               #  ESTABLISH MU FOR LUNAR TYPE ENTRIES
000829: 26,2776           54656                                    CALLCON
000830: 26,2777           00002 26244  290KFT             2DEC     88392      B-29
000831: 26,3001           00052 05716  KTETA1             2DEC*    .421844723 E2         B-14*           #  1100 2PI/16384(163.84)
000832: 26,3003           33335 05707  36KFT/S            2DEC     109.728    B-7                        #  (-7) M/CS = 36 KFT/S (-7)
000833: 26,3005           36365 30244  20KFT/S            2DEC     121.92     B-7                        #  (-6) M/CS  = 2 20KFT/S  (-7)
000834: 26,3007           77113 42770  KR1                2DEC     -.026666667                            #  = -2.4  4 / 360
000835: 26,3011           77354 65030  -6.05DEG           2DEC     -.016805556                            #  = -6.05 / 360
000836: 26,3013           21450 00001  KR2                2DEC     .54931641                             #  =(360/4) 100 (-14) =  9000 B-14
000837: 26,3015           01750 00000  KR3                2DEC     1000       B-14                       #  = 100  (10.0)  (-14)   G,S
000838:                                                                                                  # # Page 762
000839:                                                                                                  #                                          ASSUMES L/D = 0.3, BANK =0.
000840: 26,3017           00305 04541  RTRIAL             2DEC     6460097.18 B-29                       #   RPAD +284643 FT =21 194 545 FT
000841:                                                                                                  #                               RPAD DEFINED AS 20 909 901.57 FT =6 373 338 M
000842: 26,3021           00003 27040  400KFT             2DEC     121920     B-29                       #  METERS
000843:
000844:                                                                                                  #  300KFT   2DEC   91440 B-29      (-29)  M
000845:
000846:                                                                                                  #  EMSALT   2DEC   86759.2 B-29    284643 FT (-29) M    (ORBITAL REENTRY)
000847:
000848:                                                                                                  #  EMSALT   2DEC   90657 B-29      297431 FT (-29) M    (LUNAR REENTRY)
000849:
000850: 26,3023           32525 12525  KR4                2DEC     .833333333
000851: 26,3025  23,2461               300KFT             EQUALS   MINPERE
000852: 26,3025           77777 76601  VEMSCON            2DEC     -.0389676  B-14                       #  = -HS D  /2  PI  (-14)    M SQ/ CS SQ
000853:                                                                                                  #                               =- 16369   .05G  32.2  .3048  .3048/2 PI    (-14)
000854:
000855:                                                                                                  # # Page 763
000856:                                                                                                  #  SUBROUTINE NAME:   FISHCALC              (USED BY S61.2)                DATE:           01.21.67
000857:                                                                                                  #  MOD NO:  0                                                              LOG SECTION:    P61-P67
000858:                                                                                                  #  MOD BY:  MORTH / BAIRNSFATHER
000859:                                                                                                  #  MOD NO:  1           MOD BY:  RR BAIRNSFATHER     DATE:  11 MAY 67      INCLUDE  GETERAD  CALL
000860:                                                                                                  #  FUNCTIONAL DESCRIPTION:  GIVEN THE PRESENT POSITION, UNITR, CALCULATE A  NEW UNITR THAT IS ROTATED THROUGH
000861:                                                                                                  #           TRANSFER ANGLE, THETA, ALONG TRAJECTORY. THEN CALCULATE  SIN(LAT)  AND USE TO OBTAIN FISCHER RADIUS.
000862:
000863:                                                                                                  #           SINCE FISHCALC USES UNI (LEFT BY ENTRY) EARTH SCALING IS ASSUMED.(WILL IMPROVE FOR SUITABLE TENNANT)
000864:
000865:                                                                                                  #  CALLING SEQUENCE:  CALL
000866:                                                                                                  #                          FISHCALC
000867:                                                                                                  #           ENTER WITH .5 SIN(THETA) IN MPAC.
000868:                                                                                                  #           PUSHLOC IS AT PDL+0, AN ARBITRARY BASE VALUE IF LEQ 8D
000869:
000870:                                                                                                  #  SUBROUTINES CALLED:  GETERAD
000871:                                                                                                  #  NORMAL EXIT MODE:    RVQ
000872:                                                                                                  #  EXIT MODES:           NONE
000873:                                                                                                  #  OUTPUT:  ERADM  (-29) M   IN MPAC ON RETURNING
000874:                                                                                                  #           NEW UNIT VECTOR NOT SAVED.
000875:                                                                                                  #           SIN(LAT) NOT SAVED.
000876:                                                                                                  #           PUSHLOC AT PDL+0
000877:                                                                                                  #  ERASABLE INITIALIZATION REQUIRED:
000878:                                                                                                  #           SDELF/2    =SIN(THETA)  /2,   IN MPAC                          LEFT BY TFF/TRIG
000879:                                                                                                  #           CDELF/2    =COS(THETA) /2, STORED IN PDL 14D                   LEFT BY TFF/TRIG
000880:                                                                                                  #           RONE   (-29) M                                                 LEFT BY USER
000881:                                                                                                  #           VONE   (-7)  M/CS                                              LEFT BY USER
000882:                                                                                                  #           URONE  UR/2                                                    LEFT BY USER
000883:                                                                                                  #           UNI        .5 UNIT( V*R)                                       LEFT BY ENTRY / P61
000884:                                                                                                  #           UNITW      UNIT NORTH POLE                                     LEFT BY PAD LOAD
000885:                                                                                                  #  DEBRIS:  QPRET,   PDL+0 ... PDL+5
000886:
000887:
000888:                                                                                                  #                                          -      -          -
000889: 26,3027           47315        FISHCALC           PDVL     VXV                                   #  URPR = UR CDELF + UHOR SDELF
000890: 26,3030           02343                                    URONE
000891: 26,3031           03502                                    UNI
000892: 26,3032           76561                           VXSC     VSL1
000893:                                                                                                  #                                          SIN(THETA) /2 FROM PDL+0
000894: 26,3033           74315                           PDVL     VXSC                                  #  TO PDL+0,  +5
000895: 26,3034           02343                                    URONE
000896: 26,3035           00017                                    CDELF/2                               #  COS(THETA) /2
000897: 26,3036           45455                           VAD      STADR
000898: 26,3037           74235                           STORE    URH                                   #  FOR USE IN RTGO FROM EMS DISPLAY
000899: 26,3040           72441                           DOT      SL1
000900: 26,3041           01714                                    UNITW                                 #  FULL UNIT VECTOR    UNIT NORTH
000901: 26,3042           02156                           STORE    ALPHAV     +4                         #   = .5 SIN(LAT)
000902: 26,3043           77650        DUMPFISH           GOTO
000903: 26,3044           26437                                    GETERAD                               #  SAVES FISCHER RAD (-29) M IN ERADM AND
000904:                                                                                                  #                                          IN MPAC. RETURNS TO CALLER VIO QPRET.
000905:
000906:                                                                                                  # # Page 764
000907:                                                                                                  #  SUBROUTINE NAME:   VGAMCALC   (USED BY S61.2)                         DATE:           01.21.67
000908:                                                                                                  #  MOD NO:    0                                                          LOG SECTION:    P61-P67
000909:                                                                                                  #  MOD BY:  MORTH / BAIRNSFATHER
000910:                                                                                                  #  MOD NO:  1           MOD BY:  RR BAIRNSFATHER         DATE: 11 APR 67
000911:                                                                                                  #  MOD NO:  2           MOD BY:  RR BAIRNSFATHER         DATE: 21 NOV 67         VARIABLE MU ADDED.
000912:                                                                                                  #  MOD NO:  3           MOD BY:  RR BAIRNSFATHER         DATE: 21 MAR 68         ACCEPT DIFFERENT EARTH/MOON SCALE
000913:                                                                                                  #  FUNCTONAL DESCRIPTION:       EARTH CENTERED VIS VIVA CALCULATION OF TERMINAL VELOCITY AND GAMMA (REL TO
000914:                                                                                                  #          HORIZONTAL)  GIVEN  THE SCALAR QUANTITIES:   PRESENT RADIUS AND VELOCITY AND THE TERMINAL RADIUS.
000915:                                                                                                  #          THE USER MUST APPEND PROPER SIGN TO GAMMA, SINCE IT IS CALCULATED AS A POSITIVE NUMBER.
000916:                                                                                                  #          THE EQUATIONS ARE
000917:
000918:                                                                                                  #                 VGAM = SQRT(VN VN/MU + 2(RN-RTERM)/(RN RTERM)  )  RTMU
000919:
000920:                                                                                                  #                 COSGAM = H /RTERM VGAM  = SQRT(LCP)/ (RTERM VGAM/RTMU)
000921:
000922:
000923:                                                                                                  #          VGAMCALC ASSUMES THAT THE TERMINAL RADIUS IS LESS THAN THE PRESENT RADIUS. BOTH CALCTFF AND CALCTPER
000924:                                                                                                  #          MAKE THIS ASSUMPTION.
000925:
000926:                                                                                                  #  CALLING SEQUENCE:  CALL                         STCALL RTERM
000927:                                                                                                  #                           VGAMCALC                      PREVGAM
000928:                                                                                                  #          PUSHLOC AT PDL+0, ARBITRARY  IF LEQ 12D
000929:                                                                                                  #          C(MPAC) UNSPECIFIED                    C(MPAC)=NEW RTERM
000930:
000931:                                                                                                  #  SUBROUTINES CALLED:  NONE
000932:                                                                                                  #  NORMAL EXIT MODE:    RVQ
000933:                                                                                                  #  ALARMS:    NONE
000934:                                                                                                  #  OUTPUT:    GAMMA / 360 IN MPAC, POSITIVE NUMBER
000935:                                                                                                  #             VGAM E:(-7)  M:(-5)    M/CS IN PDL+0
000936:                                                                                                  #             PUSHLOC AT PDL+2
000937:                                                                                                  #  ERASABLE INITIALIZATION REQD:
000938:                                                                                                  #           TFF/RTMU E:(17) M:(14)   1/SQRT(MU)                            LEFT BY TFFCONIC.
000939:                                                                                                  #           RMAG1  E:(-29) M:(-27)   M   PRESENT RADIUS LENGTH             LEFT BY TFFCONIC
000940:                                                                                                  #           NRMAG  E: (-29+NR)       M  NORM LENGTH OF PRESENT POSITION    LEFT BY TFFCONIC
000941:                                                                                                  #                  M: (-27+NR)
000942:                                                                                                  #           RTERM  E:(-29) M:(-27)   M  TERMINAL RADIUS LENGHT             LEFT BY CALCTFF
000943:                                                                                                  #           NRTERM E: (-29+NR)       M  NORM LENGTH OF TERMINAL RADIUS     LEFT BY CALCTFF
000944:                                                                                                  #                  M: (-27+NR)
000945:                                                                                                  #           TFFVSQ E:(20)  M:(18)  1/M   -(V SQ/MU): PRESENT VELOCITY,NORM LEFT BY TFFCONIC
000946:                                                                                                  #           TFFNP  E: (-38+2NR)      M  LCP, SEMI-LATUS RECTUM, WEIGHT NR  LEFT BY TFFCONIC
000947:                                                                                                  #                  M: (-36+2NR)
000948:                                                                                                  #  DEBRIS:  QPRET, PDL+0 ... PDL+3
000949:                                                                                                  #           RTERM, NRTERM IF PREVGAM ENTERED.
000950:
000951:                                                                                                  # # Page 765
000952: 26,3045           77657        PREVGAM            SL*                                            #  ENTER WITH NEW  RTERM IN MPAC
000953:                                                                                                  #                                          E: (-29)  M: (-27)
000954: 26,3046           20201                                    0,1                                   #  X1 = -NR
000955: 26,3047           00021                           STORE    NRTERM                                #  RTERM  M        E:(-29+NR)   M: (-27+NR)
000956:
000957: 26,3050           41345        VGAMCALC           DLOAD    DMP
000958: 26,3051           00041                                    NRMAG                                 #  RMAG  M          E:(-29+NR)  M:(-27+NR)
000959: 26,3052           00021                                    NRTERM                                #  RTERM  M         E:(-29+NR)  M:(-27+NR)
000960: 26,3053           45325                           PDDL     DSU                                   #  RMAG RTERM M     E:(-58+2NR) M:(-54+2NR)
000961: 26,3054           00041                                    NRMAG                                 #  RMAG  M          E:(-29+NR)  M:(-27+NR)
000962: 26,3055           00021                                    NRTERM                                #  RTERM  M         E:(-29+NR)  M:(-27+NR)
000963: 26,3056           56257                           SL*      DDV                                   #  2(RN-RTERM)      E:(-30+NR)  M:(-28+NR)
000964: 26,3057           20171                                    0          -8D,1                      #  (-8+NR)
000965:                                                                                                  #                                          PUSH UP PRODUCT.
000966: 26,3060           77625                           DSU
000967: 26,3061           00025                                    TFFVSQ                                #  -(V SQ/MU)         E: (20)   M: (18)
000968: 26,3062           41566                           SQRT     PUSH                                  #  SAVE VGAM/RT(MU) FOR NOW. E:(10) M: (9)
000969: 26,3063           65271                           DDV      PDDL                                  #  XCH PDL+0, LEAVING VGAM FOR OUTPUT.
000970:                                                                                                  #                                          VGAM TO PDL M/CS   E: (-7)   M: (-2)
000971: 26,3064           00037                                    TFF/RTMU                              #  E: (17)  M: (14)
000972: 26,3065           65205                           DMP      PDDL                                  #  RTERM VGAM/RTMU  E:(-19+NR)  M:(-18+NR)
000973: 26,3066           00021                                    NRTERM                                #  RTERM M          E:(-29+NR)  M:(-27+NR)
000974: 26,3067           00035                                    TFFNP                                 #  LC P =H.H/MU M   E:(-38+2NR) M:(-36+2NR)
000975: 26,3070           56366                           SQRT     DDV                                   #                   E:(-19+NR)  M:(-18+NR)
000976:                                                                                                  #                                          PUSH UP DEN      E:(-19+NR)  M:(-18+NR)
000977:                                                                                                  #                                          USE DDV OVFL AS LIMITER (|COS| <1.0)
000978: 26,3071           65542                           SR1      ACOS
000979: 26,3072           77616        DUMPVGAM           RVQ
000980:
000981:                                                                                                  #                                          CALLER MUST SUPPLY OWN SIGN ...
000982:
000983:                                                                                                  #                                                                   22W     27MS
000984:
000985:                                                                                                  # # Page 766
000986:                                                                                                  #  SUBROUTINE NAME:     TFF/TRIG            (USED BY S61.2)                DATE     01.17.67
000987:                                                                                                  #  MOD NO:  0                                                              LOG SECTION:    P61-P67
000988:                                                                                                  #  MOD BY:  RR BAIRNSFATHER
000989:                                                                                                  #  MOD NO:  1           MOD BY:  RR BAIRNSFATHER     DATE:  14 APR 67
000990:                                                                                                  #  MOD NO:  2           MOD BY:  RR BAIRNSFATHER     DATE:  21 MAR 68      ACCEPT DIFFERENT EARTH/MOON SCALE
000991:                                                                                                  #  FUNCTIONAL DESCRIPTION:      USED BY ENTRY DISPLAY TO CALCULATE SIN(THETA), COS(THETA) FROM DATA LEFT IN
000992:                                                                                                  #           PDL BY TFF SUBROUTINES. THE EQNS ARE
000993:                                                                                                  #                  COS(THETA) = 1-2 ABS(ARG) /(RN RTERM (1+X)  )
000994:                                                                                                  #                                                  2
000995:                                                                                                  #                  SIN(THETA) = SGN(ARG) SQRT(1-COS (THETA) )
000996:                                                                                                  #           WHERE  THETA = TRANSFER ANGLE
000997:                                                                                                  #           AND    ARG = P Z ABS(Z)                                        IF ALFA ZZ   LEQ 1
000998:                                                                                                  #                  ARG = (P / ALFA)  SGN(Q1 + R 1/Z)                       IF ALFA Z Z   G  1
000999:                                                                                                  #           AND  ARG  HAS BEEN AFFIXED WITH THE SIGN OF SIN(THETA).
001000:                                                                                                  #  CALLING SEQUENCE:  CALL
001001:                                                                                                  #                            TFF/TRIG
001002:                                                                                                  #           PUSHLOC AT PDL+0, ARBITRARY IF NOT EQ 14D
001003:                                                                                                  #           C(MPAC) UNSPECIFIED
001004:
001005:                                                                                                  #  SUBROUTINES CALLED:  NONE
001006:                                                                                                  #  NORMAL EXIT MODES:   RVQ
001007:                                                                                                  #  ALARMS:  NONE
001008:                                                                                                  #  OUTPUT:  C(MPAC) = .5 SIN(THETA)
001009:                                                                                                  #           CDELF/2 = .5 COS(THETA)          (IN PDL 14D)
001010:                                                                                                  #           PUSHLOC AT PDL+0
001011:                                                                                                  #  ERASABLE INITIALIZATION REQUIRED:
001012:                                                                                                  #           TFFX                   X                                       LEFT BY CALCTFF OR CALCTPER
001013:                                                                                                  #           TFFTEM E: (-59+2NR)    ARG                                     LEFT BY CALCTFF OR CALCTPER
001014:                                                                                                  #                  M: (-55+2NR)    WHERE ARG = LCP ZZ SGN(DELF) OR ARG = LCP/ALFA  SGN(DELF)
001015:                                                                                                  #           NRTERM E: (-29+NR)       M  NORM LENGTH OF TERMINAL RADIUS     LEFT BY CALCTFF OR CALCTPER
001016:                                                                                                  #                  M: (-27+NR)
001017:                                                                                                  #           NRMAG  E: (-29+NR)       M  NORM LENGTH OF PRESENT POSITION    LEFT BY TFFCONIC
001018:                                                                                                  #                  M: (-27+NR)
001019:                                                                                                  #  DEBRIS:  QPRET, CDELF/2
001020:
001021: 27,2573                                           BANK     27
001022: 27,2000                                           SETLOC   P60S5
001023: 27,2000                                           BANK
001024: 27,2573           70545        TFF/TRIG           DLOAD    SR1
001025: 27,2574           00043                                    TFFX
001026: 27,2575           41215                           DAD      DMP
001027: 27,2576           15330                                    HIDPHALF
001028: 27,2577           00041                                    NRMAG                                 #  RMAG  M          E:(-29+NR)  M:(-27+NR)
001029: 27,2600           55205                           DMP      BDDV
001030: 27,2601           00021                                    NRTERM                                #  RTERM  M         E:(-29+NR)  M:(-27+NR)
001031: 27,2602           00045                                    TFFTEM                                #  P ZSQ OR P/ALFA  E:(-59+2NR) M:(-55+2NR)
001032: 27,2603           44246                           ABS      BDSU                                  #  THE SIGN IS FOR SDELF.
001033: 27,2604           15330                                    HIDPHALF
001034: 27,2605           00017                           STORE    CDELF/2                               #  .5 COS(THETA)
001035: 27,2606           57516                           DSQ      DCOMP                                 #  KEEP HONEST FOR SQRT.
001036:                                                                                                  # # Page 767
001037: 27,2607           75415                           DAD      SQRT
001038: 27,2610           15322                                    HIDP1/4
001039: 27,2611           43565        DUMPTRIG           SIGN     RVQ
001040: 27,2612           00045                                    TFFTEM                                #  AFFIX SIGN(DELE/2)
001041:                                                                                                  #                                          RETURN WITH .5 SIN(THETA) IN MPAC
001042:
001043:                                                                                                  #                                                             16W            15 MS
001044:
001045: 27,2613           77620        DISPTARG           STQ                                            #   C(MPAC) = TRGO  ESTIMATE
001046: 27,2614           03373                                    60GENRET
001047: 27,2615           45205                           DMP      DSU
001048: 27,2616           15002                                    KTETA1
001049: 27,2617           03733                                    TTE1
001050: 27,2620           37606                           STCALL   DTEAROT
001051: 27,2621           46225                                    EARROT2
001052: 27,2622           77624                           CALL
001053: 27,2623           56626                                    VRCALC
001054: 27,2624           77650                           GOTO
001055: 27,2625           03373                                    60GENRET
001056: 27,2626           50375        VRCALC             VLOAD    DOT
001057: 27,2627           03542                                    URH
001058: 27,2630           03474                                    RT
001059: 27,2631           65512                           SL2      ACOS
001060: 27,2632           77616                           RVQ
001061:                                                                                                  #  END OF PROGRAM S61.2
001062:
001063:                                                                                                  # # Page 768
001064:
001065:                                                                                                  #  PROGRAM DESCRIPTION S62.3       DATE 10JAN67
001066:                                                                                                  #  MOD NO 1        LOG SECTION P60-P67
001067:                                                                                                  #  MOD BY ZELDIN
001068:                                                                                                  #  MOD NO:  2           MOD BY:  RR BAIRNSFATHER      DATE: 15 MAY 67      CHANGED TO REF COORDS.
001069:                                                                                                  #  MOD NO:  3           MOD BY:  RR BAIRNSFATHER      DATE:  17 JAN 68     ALFAPAD CHANGES MADE.
001070:                                                                                                  #  FUNCTIONAL DESCRIPTION
001071:                                                                                                  #           COMPUTE  DESIRED GIMBOL ANGLES FOR ENTRY ATTITUDE
001072:                                                                                                  #           THE FOLLOWING TRAJECTORY TRIAD IS AVAILABLE IN MEMORY AND IS COMPUTED EACH 2 SECONDS BY  CM/POSE  IN
001073:                                                                                                  #           REFERENCE COORDINATES (V = VELOCITY RELATIVE TO EARTH) :
001074:
001075:                                                                                                  #                  UXA = -UNIT(V)
001076:                                                                                                  #                  UYA =  UNIT(V*R)
001077:                                                                                                  #                  UZA =  UXA*UYA
001078:
001079:                                                                                                  #           GENERATE A DESIRED BODY TRIAD FOR TRIMMED FLIGHT WITH RESPECT TO THE RELATIVE VELOCITY VECTOR, USING
001080:                                                                                                  #           ROLL COMMAND AND TRIM ANGLE OF ATTACK:
001081:
001082:                                                                                                  #                UXD = UNIT(UYD*UXA) SIN(ALFATRIM) + UXA COS(ALFATRIM)
001083:                                                                                                  #                UYD = UYA COS(ROLLC) + UZA SIN(ROLLC)
001084:                                                                                                  #                UZD = UXD * UYD
001085:
001086:                                                                                                  #           USE THE DESIRED SET (IN REFERENCE COORDS) AND  REFSMMAT  TO CALL   CALCGA   AND OBTAIN GIMBAL ANGLES
001087:                                                                                                  #           IN 2S,C IN MPAC, +2 AND THETAD, +2.
001088:
001089:                                                                                                  #  CALLING SEQUENCE
001090:                                                                                                  #         L   CALL
001091:                                                                                                  #         L+1      S62.3
001092:                                                                                                  #  NORMAL EXIT MODE
001093:                                                                                                  #           RETURN VIA QPRET DIRECTLY FROM CALCGA.
001094:                                                                                                  #  SUBROUTINES CALLED
001095:                                                                                                  #           CALCGA
001096:                                                                                                  #  ALARM OR ABORT MODES
001097:                                                                                                  #           NONE
001098:                                                                                                  #  ERASABLE INITIALIZATION REQUIRED
001099:                                                                                                  #           ROLLC  ROLL COMMAND          DP 1'S COMP AT 1REV
001100:                                                                                                  #           ALFAPAD   SP 1S,C     /180                 LEFT BY PAD LOAD    ALFATRIM IS NEGATIVE.
001101:                                                                                                  #           UXA/2  REF COORDS                         LEFT BY CM/POSE
001102:                                                                                                  #           UYA/2  REF COORDS                         LEFT BY CM/POSE
001103:                                                                                                  #           UZA/2  REF COORDS                         LEFT BY CM/POSE
001104:                                                                                                  #  OUTPUT
001105:                                                                                                  #           CPHI   GIMBAL ANGLES (O,I.M) 2:S COMP TP (O,I.M)/180
001106:                                                                                                  #  DEBRIS
001107:                                                                                                  #        QTEMP, QPRET,PUSHLIST
001108:
001109: 10,2302                                           BANK     10
001110: 10,2000                                           SETLOC   P60S4
001111: 10,2000                                           BANK
001112:
001113:                                                                                                  # # Page 769
001114: 10,2302                                           COUNT*   $$/S62.3
001115:
001116: 10,2302           67201        S62.3              SETPD    SLOAD
001117: 10,2303           00001                                    0
001118: 10,2304           03012                                    ALFAPAD                               #  ALFATRIM /180, ALFA IS NEG.
001119: 10,2305           41542                           SR1      PUSH
001120: 10,2306           65346                           COS      PDDL                                  #  XCH PDL, COS TO PDL0
001121: 10,2307           65356                           SIN      PDDL                                  #  SIN TO PDL2
001122: 10,2310           03316                                    ROLLC
001123: 10,2311           74346                           COS      VXSC
001124: 10,2312           03550                                    UYA/2                                 #                           REF COORDS
001125: 10,2313           73525                           PDDL     SIN                                   #  PUSH VECTOR INTO PDL4,.9
001126: 10,2314           03316                                    ROLLC
001127: 10,2315           53361                           VXSC     VAD
001128: 10,2316           03556                                    UZA/2                                 #                           REF COORDS
001129:                                                                                                  #                                          VECTOR FROM PDL4, 9
001130: 10,2317           77772                           VSL1
001131: 10,2320           02722                           STORE    YNB                                   #  = UYD                    REF COORDS
001132:
001133: 10,2321           76435                           VXV      VSL1
001134: 10,2322           03542                                    UXA/2                                 #                           REF COORDS
001135: 10,2323           65361                           VXSC     PDDL
001136:                                                                                                  #                                          SIN TRIM FROM PDL2
001137:                                                                                                  #                                          XCH PDL0 FOR COS TRIM
001138: 10,2324           53361                           VXSC     VAD
001139: 10,2325           03542                                    UXA/2                                 #                           REF COORDS
001140:                                                                                                  #                                          FROM PDL0
001141: 10,2326           77626                           STADR
001142: 10,2327           75063                           STORE    XNB                                   #  X SC AXIS (.5 UNIT)        REF COORDS
001143:
001144: 10,2330           76435                           VXV      VSL1
001145: 10,2331           02722                                    YNB
001146: 10,2332           26730                           STOVL    ZNB                                   #  Z SC IN REF COOR. SCALED AT 2
001147: 10,2333           01736                                    REFSMMAT
001148: 10,2334           26672                           STOVL    XSM
001149: 10,2335           01744                                    REFSMMAT   +6
001150: 10,2336           26700                           STOVL    YSM
001151: 10,2337           01752                                    REFSMMAT   +12D
001152: 10,2340           02706                           STORE    ZSM
001153:
001154: 10,2341           52014                           CLEAR    GOTO
001155: 10,2342           00260                                    CPHIFLAG                              #  CAUSE CALCGA TO STORE ANS IN TP CPHI
001156: 10,2343           47244                                    CALCGA
001157:                                                                                                  #                                          CALCGA WILL RETURN TO ORIGINAL CALLER
001158:                                                                                                  #                                          VIA QPRET WITH 2,S COMP. ANGLES IN CPHI

End of include-file P61-P67.agc.  Parent file is MAIN.agc


