
Source Code


000002:                                                                                                  ## Copyright:   Public domain.
000003:                                                                                                  ## Filename:    MAIN.agc
000004:                                                                                                  ## Purpose:     Part of the source code for Colossus build 237.
000005:                                                                                                  ##              This is for the Command Module's (CM) Apollo Guidance
000006:                                                                                                  ##              Computer (AGC), for Apollo 8.
000007:                                                                                                  ## Assembler:   yaYUL
000008:                                                                                                  ## Contact:     Onno Hommes <ohommes@alumni.cmu.edu>
000009:                                                                                                  ## Website:     www.ibiblio.org/apollo/index.html
000010:                                                                                                  ## Page Scans:  www.ibiblio.org/apollo/ScansForConversion/Colossus237/
000011:                                                                                                  ## Mod history: 2010-05-18 OH   Adapted from corresponding Colossus 249 file.
000012:                                                                                                  ##              2010-12-04 JL   Remove Colossus 249 header comments. Change to double-has page numbers.
000013:                                                                                                  ##              2011-02-08 JL   Minor fixes.
000014:                                                                                                  ##              2016-11-02 RSB  Typo (offset-references +2 and +3 not indented).
000015:                                                                                                  ##              2017-01-01 RSB  Proofed comment text using octopus/ProoferComments,
000016:                                                                                                  ##                              and fixed errors found.
000017:                                                                                                  ##              2017-01-18 RSB  Fixed comment-text errors noted while diff'ing
000018:                                                                                                  ##                              vs Colossus 249.
000019:                                                                                                  ##              2017-02-08 RSB  Fixed comment-text errors noted while diff'ing
000020:                                                                                                  ##                              vs Artemis 72.
000021:


000023:                                                                                                  #  PROGRAM:             P61
000024:                                                                                                  #  MOD NO.:             0    MAR. 13, 1967
000025:                                                                                                  #  MOD BY:              R. HIRSCHKOP
000026:                                                                                                  #  MOD NO:  1           MOD BY:  RR BAIRNSFATHER      DATE:  22 JUN 67     RESTARTS.
000027:                                                                                                  #  MOD NO:  2           MOD BY:  RR BAIRNSFATHER      DATE:  17 JAN 68     COLOSSUS GSOP CHANGES.
000028:                                                                                                  #  MOD NO:  3           MOD BY:  RR BAIRNSFATHER      DATE:   8 MAY 68     DELETE CMSM MANEUVER (PCR 50)
000029:                                                                                                  #  FUNCTION:            TO CALCULATE AND DISPLAY EMS INITIALIZATION DATA
000030:                                                                                                  #  CALLING SEQUENCE-    BY V37
000031:                                                                                                  #  EXIT-                TO P62
000032:                                                                                                  #  SUBROUTINE CALLS-    S61.1 , S61.3 , GOFLASH , FLAGUP , R02BOTH
000033:
000034:                                                                                                  #  ERASABLE INITIALIZATION:
000035:                                                                                                  #           EMSALT  (-29) M        .05G ALTITUDE ABOVE FISCHER ELLIPSOID   PAD LOADED.
000036:                                                                                                  #           ALFAPAD  /180          HYPERSONIC CM TRIM ANGLE OF ATTACK      PAD LOADED
000037:                                                                                                  #  OUTPUT:  THE FOLLOWING REGISTERS ARE WRITTEN IN FOR USE BY DISPLAYS
000038:                                                                                                  #           GMAX   100 GMAX  (-14)  G,S     MAXIMUM ACCELERATION
000039:                                                                                                  #           VPRED  (-7)  M/CS      PREDICTED VELOCITY AT 400K FT
000040:                                                                                                  #           GAMMAEI  GAMMA/360     PREDICTED GAMMA    AT 400K FT
000041:                                                                                                  #           RTGO   THETAH/360      RANGE ANGLE TO SPLASH FROM EMSALT       EMSALT IS PAD LOADED
000042:                                                                                                  #           VIO    (-7) M/CS       INERTIAL VELOCITY AT       EMSALT       EMSALT IS PAD LOADED
000043:                                                                                                  #           TTE    (-28) CS        TIME     TO                EMSALT       EMSALT IS PAD LOADED
000044:                                                                                                  #           LAT(SPL)  /360         TARGET LOCATION                         LEFT BY DSKY
000045:                                                                                                  #           LNG(SPL)  /360         TARGET LOCATION                         LEFT BY DSKY
000046:                                                                                                  #           HEADSUP   (0)          +1 = LIFT DOWN, -1 = LIFT UP            LEFT BY DSKY
000047:                                                                                                  #  DEBRIS:  SEE SUBROUTINES.
000048:
000049: 26,2217                                           BANK     26
000050: 26,2000                                           SETLOC   P60S
000051: 26,2000                                           BANK
000052:
000053: 26,2217  E6,1661                                  EBANK=   AOG
000054:
000055: 26,2217                                           COUNT*   $$/P61
000056:
000057: 26,2217           34675        P61                CA       BIT14                                 #  EXTENDED VERB SHOULD BE FREE THIS CLOSE
000058: 26,2220           55044                           TS       EXTVBACT                              #  TO V37
000059:                                                                                                  #                                          LOCK OUT EXTENDED VERBS SO CAN USE TFF
000060:                                                                                                  #                                          ROUTINES.EXT VERB ERASE IS USED
000061:
000062: 26,2221           44712                           CS       ONE                                   #  REMOVE IF HEADSUP EVER ON UPLINK DATA
000063: 26,2222           55726                           TS       HEADSUP                               #  PRELOAD
000064:
000065: 26,2223           02543                           TC       S61.1                                 #  CHECK STATE VECTOR AND IMU ORIENTATION
000066:                                                                                                  #                               RV 60GENRET. DOES PHASCHNG, GROUP 4.
000067:
000068: 26,2224           32424                           CA       V06N61                                #  LAT(SPL)     LNG(SPL)     HEADSUP
000069:                                                                                                  #                                          XXX.XX DEG   XXX.XX DEG   XXXXX.
000070: 26,2225           04555                           TC       BANKCALL
000071: 26,2226           20763                           CADR     GOFLASHR
000072: 26,2227           04106                           TC       GOTOPOOH


000074: 26,2230           02235                           TC       P61.4
000075: 26,2231           02224                           TC       -5
000076:
000077: 26,2232           05301        P61.3              TC       PHASCHNG
000078: 26,2233           00014                           OCT      00014
000079:
000080: 26,2234           05112                           TC       ENDOFJOB
000081:
000082: 26,2235           22007        P61.4              ZL
000083: 26,2236           11726                           CCS      HEADSUP                               #  C(HEADSUP)=  +1/-1
000084: 26,2237           34675                           CA       BIT14                                 #  IF HEADSUP POS,ROLLC =180 DEG.(LIFT DWN)
000085: 26,2240           12241                           NOOP                                           #  IF HEADSUP NEG,ROLLC=0 (LIFT UP)
000086: 26,2241           53716                           DXCH     ROLLC                                 #  ROLLC IS USED BY S62.3: GIM ANG AT .05G
000087:
000088: 26,2242           06006                           TC       INTPRET
000089: 26,2243           77745        NEWRNVN            DLOAD
000090: 26,2244           01205                                    PIPTIME                               #  SAVE TIME OF RN,VN TO DETERMINE IF AN
000091: 26,2245           37651                           STCALL   MM                                    #  UPDATE HAS OCCURRED
000092: 26,2246           52063                                    STARTEN1                              #  INITIALIZE
000093: 26,2247           77775                           VLOAD
000094: 26,2250           01171                                    RN
000095: 26,2251           02327                           STORE    RONE
000096: 26,2252           77656                           UNIT
000097: 26,2253           26343                           STOVL    URONE
000098: 26,2254           01177                                    VN
000099: 26,2255           02335                           STORE    VONE
000100: 26,2256           53435                           VXV      UNIT
000101: 26,2257           02343                                    URONE
000102: 26,2260           03502                           STORE    UNI
000103: 26,2261           45345        DUMPP61            DLOAD    DSU
000104: 26,2262           03651                                    MM                                    #  INITIAL VALUE OF PIPTIME
000105: 26,2263           01205                                    PIPTIME
000106: 26,2264           45040                           BMN      CALRB
000107: 26,2265           54243                                    NEWRNVN                               #  UPDATED... GO TRY AGAIN
000108: 26,2266           54650                                    S61.2                                 #  GET DISPLAY DATA FOR N60 AND N63
000109:                                                                                                  #                                          AND RETURN IN BASIC, BELOW.
000110: 26,2267           05425        P61.1              TC       CLEARMRK
000111: 26,2270           32423                           CA       V06N60                                #  GMAX         VPRED         GAMMAEI
000112:                                                                                                  #                                          XXX.XX G     XXXXX. FPS    XXX.XX DEG
000113: 26,2271           04555                           TC       BANKCALL
000114: 26,2272           20624                           CADR     GOFLASH
000115:
000116: 26,2273           04106                           TC       GOTOPOOH
000117: 26,2274           02276                           TC       P61.2                                 #  PROCEED
000118: 26,2275           02270                           TC       -5
000119:
000120: 26,2276           06006        P61.2              TC       INTPRET                               #  CORRECT  TTE  FOR TIME LAPSE DURING
000121:                                                                                                  #                                          ABOVE DISPLAY.
000122: 26,2277           45234                           RTB      DSU
000123: 26,2300           45505                                    LOADTIME                              #  CURRENT TIME.


000125: 26,2301           03651                                    MM                                    #  PIPTIME FOR RONE & VONE.
000126: 26,2302           77615                           DAD
000127: 26,2303           03733                                    TTE1                                  #  NEGATIVE OF FREE FALL TIME.
000128: 26,2304           03727                           STORE    TTE                                   #  DECREMENTED
000129:
000130: 26,2305           77776                           EXIT
000131:
000132: 26,2306           32425                           CA       V06N63                                #  RTGO         VIO           TTE
000133:                                                                                                  #                                          XXXX.X NM    XXXXX. FPS    XXBXX M,S
000134: 26,2307           04555                           TC       BANKCALL
000135: 26,2310           20624                           CADR     GOFLASH
000136: 26,2311           04106                           TC       GOTOPOOH
000137: 26,2312           02314                           TC       +2
000138: 26,2313           02276                           TC       P61.2                                 #  REDO
000139:
000140:                                                                                                  #                                  .... THEN FALL INTO P62
000141:


000143:                                                                                                  #  PROGRAM-             P62
000144:                                                                                                  #  MOD NO.-             0    MAR. 13, 1967
000145:                                                                                                  #  MOD BY-              R. HIRSCHKOP
000146:                                                                                                  #  MOD NO:  1           MOD BY:  RR BAIRNSFATHER      DATE: 21 MAR 67
000147:                                                                                                  #  MOD NO:  2           MOD BY:  RR BAIRNSFATHER      DATE:  22 JUN 67     RESTARTS.
000148:                                                                                                  #  MOD NO:  3           MOD BY:  RR BAIRNSFATHER      DATE:  17 JAN 68     COLOSSUS GSOP CHANGES.
000149:                                                                                                  #  MOD NO:  4           MOD BY:  RR BAIRNSFATHER      DATE:   8 MAY 68     MOVE START OF DESIRED GIMBAL CALC.
000150:                                                                                                  #  FUNCTION-            1) TO NOTIFY CREW WHEN GNC SYSTEM IS PREPARED FOR CM/SM SEPARATION
000151:                                                                                                  #                       2) TO ORIENT THE CM TO THE CORRECT ATTITUDE FOR ATMOSPHERIC ENTRY
000152:                                                                                                  #  CALLING SEQUENCE-    BY V37 OR DIRECTLY FROM P61
000153:                                                                                                  #  EXIT-                TO P63
000154:                                                                                                  #  ERASABLE INITIALIZATION:
000155:                                                                                                  #           ALFAPAD                                       LEFT BY PAD LOAD
000156:                                                                                                  #           LADPAD                                        LEFT BY PAD LOAD
000157:                                                                                                  #           LODPAD                                        LEFT BY PAD LOAD
000158:                                                                                                  #           LAT(SPL)    (MAY BE CHANGED BELOW)            LEFT BY DSKY, VIA P61
000159:                                                                                                  #           LNG(SPL)    (MAY BE CHANGED BELOW)            LEFT BY DSKY, VIA P61
000160:                                                                                                  #           HEADSUP     (MAY BE CHANGED BELOW)            LEFT BY DSKY, VIA P61
000161:                                                                                                  #  SUBROUTINE CALLS:    NEWMODEX , S61.1 , CM/DAPIC , CM/DAPON , R02BOTH , GOPERF1 , GOFLASH , GODSPR
000162:
000163: 26,2314                                           COUNT*   $$/P62
000164:
000165: 26,2314           05243                           TC       NEWMODEX                              #  MODE CHANGE IF CAME FROM P61.
000166: 26,2315           00076                           MM       62         B-14                       #  MODE CHANGE AUTOMATIC VIA V 37.
000167: 26,2316           34712                           CA       ONE
000168: 26,2317           54332                           TS       DNLSTCOD
000169:
000170: 26,2320           02543        P62                TC       S61.1                                 #  CHECK STATE VECTOR AND IMU ORIENTATION.
000171:
000172: 26,2321           06006                           TC       INTPRET
000173: 26,2322           47131                           SSP      RTB
000174: 26,2323           03325                                    POSEXIT
000175: 26,2324           54402                                    P62.3                                 #  CALCULATE DESIRED .05G GIMBAL ANGLES,
000176:                                                                                                  #  WITHOUT DISPLAY.
000177: 26,2325           41630                                    CM/DAPIC                              #  START CM/POSE AND BODY RATE CALC
000178:
000179:                                                                                                  #  DOES 2PHSCHNG, OCT 40116, OCT 05024, OCT 13000.
000180:                                                                                                  #  CM/DAPIC SETS EBANK = EBAOG
000181:
000182:                                                                                                  #  AND RETURNS IN BASIC TO P62.2.
000183: 26,2326           00006        P62.2              EXTEND
000184: 26,2327           32431                           DCA      POSECADR                              #  CONTINUE WITH CM/POSE AFTER AV G.
000185: 26,2330           53223                           DXCH     AVEGEXIT
000186:
000187: 26,2331           34270                           CAF      OCT41                                 #  REQUEST SEPARATION
000188: 26,2332           04555                           TC       BANKCALL
000189: 26,2333           21031                           CADR     GOPERF1R
000190: 26,2334           04106                           TC       GOTOPOOH
000191: 26,2335           02340                           TC       +3                                    #  PROCEED
000192:


000194:                                                                                                  #                                                               NOTE:  NODOFLAG WILL BE SET IN CM/DAPON. <<<
000195: 26,2336           02331                           TC       -5                                    #  ENTER
000196: 26,2337           02232                           TC       P61.3                                 #  FOR PHASCHNG AND ENDOFJOB.
000197:
000198: 26,2340           04574                 +3        TC       POSTJUMP
000199: 26,2341           41550                           CADR     CM/DAPON                              #  DISABLE RCS DAP, ENABLE ENTRY DAP AND
000200:                                                                                                  #                                          DO ATTITUDE HOLD.
000201:
000202:                                                                                                  #                               WILL IDLE UNTIL CM/POSE DOES ONE UPDATE.
000203:                                                                                                  #                               CM/DAPON DOES NO PHASCHNG.
000204:
000205:
000206: 26,2342           32424        P62.1              CA       V06N61                                #  LAT(SPL)     LNG(SPL)      HEADSUP
000207:                                                                                                  #  XXX.XX DEG   XXX.XX DEG    0000X.
000208:
000209:                                                                                                  #                                  TERMINATE  ATTITUDE HOLD. SET UP COMMANDS:
000210:                                                                                                  #                                  ROLLC,  ALFACOM,  BETACOM.   BEGIN MANUVER TO
000211:                                                                                                  #                                  ENTRY ATTITUDE.
000212:
000213: 26,2343           04555                           TC       BANKCALL
000214: 26,2344           20624                           CADR     GOFLASH
000215: 26,2345           02342                           TC       -3
000216: 26,2346           02350                           TC       +2
000217: 26,2347           02342                           TC       -5
000218:
000219: 26,2350           05301                           TC       PHASCHNG
000220: 26,2351           04024                           OCT      04024                                 #  USE ENTRYVN FOR DISPLAY BELOW.
000221:
000222:                                                                                                  #                                          EBANK WAS SET IN CM/DAPON TO EBAOG
000223:
000224: 26,2352           11726                           CCS      HEADSUP                               #  C(HEADSUP) = +/- 1
000225: 26,2353           34675                           CA       BIT14                                 #  IF HEADSUP POS,ROLLC=180 DEG (LIFT DWN)
000226: 26,2354           12355                           NOOP                                           #  IF HEADSUP NEG,ROLLC=0 DEG  (LIFT UP)
000227: 26,2355           55715                           TS       ROLLC
000228: 26,2356           31411                           CA       ALFAPAD                               #  NOMINAL ALFATRIM PAD LOADED, NEG. NO.
000229: 26,2357           22007                           ZL
000230: 26,2360           53604                           DXCH     ALFACOM                               #  SET ALFACOM = ALFA TRIM, BETACOM=0
000231:
000232: 26,2361           34712                           CA       ONE                                   #  PERMITS EXDAP2 TO CHANGE FLAG TO +0
000233: 26,2362           55727                           TS       P63FLAG                               #  AS INDICATOR. STARTS UP P63.
000234:
000235: 26,2363           34745                           CA       V06N22                                #  SET UP DISPLAY FOR CDU DESIRED VALUES
000236: 26,2364           55263                           TS       ENTRYVN                               #  FROM ENTRY ATTITUDE CALC, THAT IS
000237:                                                                                                  #                                          ALREADY GOING.
000238: 26,2365           05435                           TC       UPFLAG                                #  TURN ON ENTRY DISPLAY
000239: 26,2366           00134                           ADRES    ENTRYDSP                              #  ENTRYDSP = 92D  BIT 13  FLAG 6
000240:                                                                                                  #  SKIP
000241:


000243: 26,2367           41700                           CS       CMDAPMOD                              #  GO DIRECTLY TO P63 IF BODY ATTITUDE
000244: 26,2370           74712                           MASK     ONE                                   #  IS SUCH THAT THE DELAY TASK: WAKEP62
000245: 26,2371           00006                           EXTEND                                         #  WILL BE OMITTED.
000246: 26,2372           12420                           BZF      P63.1                                 #  DISABLE GRP 4, GO TO ENDOFJOB.
000247:
000248:                                                                                                  #                                          (IE, CONTINUE IF CMDAPMOD = -1, OR +0)
000249: 26,2373           02406                           TC       P63
000250:
000251:                                                                                                  #                                  PUT JOB TO SLEEP UNTIL VEHICLE MANUVER HAS
000252:                                                                                                  #                                  REDUCED ALFA TO +/-45 DEG. CONSIDER REMAINING
000253:                                                                                                  #                                  65 DEG (25 DEG IF ALFA NEG) TO ALFA TRIM TO
000254:                                                                                                  #                                  OCCUR AT 3 DEG/SEC, AND TERMINATE P62 AT THAT
000255:                                                                                                  #                                  TIME.
000256:                                                                                                  #                                  TASK WAKEP62 IS CALLED FROM ENTRY DAP.
000257:
000258: 26,2374           34760        WAKEP62            CA       PRIO13
000259: 26,2375           05027                           TC       NOVAC
000260: 26,2376  E6,1661                                  EBANK=   AOG
000261: 26,2376           02406 54066                     2CADR    P63
000262: 26,2400           05213                           TC       TASKOVER
000263:
000264: 26,2401           54402        P62.3CAD           CADR     P62.3
000265:
000266:                                                                                                  #                               EACH 2 SEC, CALCULATE GIMBAL ANGLES FOR ENTRY CON-
000267:                                                                                                  #                               DITIONS THAT WILL HOLD IF REORIENTATION WERE MADE
000268:                                                                                                  #                               AT PRESENT RN, VN. COME HERE FROM CM/POSE AND ALSO
000269:                                                                                                  #                               IN KEPLER PHASE OF ENTRY.
000270: 26,2402           52131        P62.3              SSP      GOTO                                  #  SET RETURN ADDRESS SO THAT   ROUTINE
000271: 26,2403           00053                                    QPRET                                 #  GOES DIRECTLY TO ENTRY GUIDANCE EXIT
000272: 26,2404           53570                                    ENDEXIT                               #  THAT DOES ENTRY DISPLAY ,GRP 5.
000273: 26,2405           20302                                    S62.3                                 #   PUT DESIRED CDU VALUES IN CPHI'S FOR
000274:                                                                                                  #  N22 DISPLAY.
000275:


000277:                                                                                                  #           P63
000278:                                                                                                  #  PROGRAM-             P63
000279:                                                                                                  #  MOD NO.-             0    MAR. 13, 1967
000280:                                                                                                  #  MOD BY-              R. HIRSCHKOP
000281:                                                                                                  #  MOD NO:  1           MOD BY:  RR BAIRNSFATHER      DATE:  22 JIN 67     RESTARTS.
000282:                                                                                                  #  MOD NO:  2           MOD BY:  RR BAIRNSFATHER      DATE:  14 JUL 67     REVISED RESTARTS
000283:                                                                                                  #  FUNCTION-            1) TO INITIALIZE THE ENTRY EQUATIONS
000284:                                                                                                  #                       2) TO CONTINUE TO HOLD THE CM TO THE CORRECT ATTITUDE WITH RESPECT TO THE ATMOSPHERE FOR
000285:                                                                                                  #                          THE ONSET OF ENTRY DECELERATION. ROLL ANGLE IS LIFT UP/DOWN AS SPECIFIED BY HEADSUP.
000286:                                                                                                  #                       3) TO SENSE .05 G
000287:                                                                                                  #  CALLING SEQUENCE-    DIRECTLY FROM P62
000288:                                                                                                  #  EXIT-                TO ENDOFJOB
000289:                                                                                                  #  SUBROUTINE CALLS-    NEWMODEX , GODSPR
000290:
000291: 26,2406                                           COUNT*   $$/P63
000292:
000293: 26,2406           05243        P63                TC       NEWMODEX
000294: 26,2407           00077                           MM       63         B-14
000295:
000296: 26,2410           04555                           TC       BANKCALL                              #  FLUSH N22 DISPLAY, IF ON.  (ONIT DISP
000297: 26,2411           20607                           CADR     CLEANDSP                              #  DURING STARTENT PASS.)
000298:
000299:                                                                                                  #                                          ARRIVE WITH EBANK = AOG.
000300:
000301: 26,2412           32427                           CA       ENTCADR                               #  CONTINUE AT STARTENT AFTER CM/POSE .
000302:
000303:                                                                                                  #                                  AT END OF STARTENT, CHANGE ADDRESS IN GOTOADDR
000304:                                                                                                  #                                  TO CONTINUE AT  SCALEPOP  THEREAFTER.
000305:
000306: 26,2413           55724                           TS       POSEXIT
000307:
000308: 26,2414           32426                           CA       V06N64                                #  G            VI            R TO SPLSH
000309:                                                                                                  #                                          XXX.XX G     XXXXX. FPS    XXXX.X NM
000310: 26,2415           55263                           TS       ENTRYVN                               #  FOR DISPLAY CALL IN OVERNOUT.
000311:
000312: 26,2416           44712                           CS       ONE                                   #  IN CASE FLAG IS LEFT AT +1 BY DAP. THE
000313: 26,2417           55727                           TS       P63FLAG                               #  -1 ASSURES THAT EXO-ATM DAP WILL NOT
000314:                                                                                                  #                                          CALL P63 OUT OF SEQUENCE IN P66 .
000315:
000316: 26,2420           05301        P63.1              TC       PHASCHNG
000317: 26,2421           00004                           OCT      00004                                 #  DISABLE. DISPLAY RESTARTED VIA ENTRY.
000318:
000319: 26,2422           05112                           TC       ENDOFJOB
000320:
000321: 26,2423           01474        V06N60             VN       0660
000322: 26,2424           01475        V06N61             VN       0661
000323: 26,2425           01477        V06N63             VN       0663
000324: 26,2426           01500        V06N64             VN       0664
000325: 26,2427           52000        ENTCADR            CADR     STARTENT


000327: 26,2430  E7,1451                                  EBANK=   RTINIT                                #  TO CARY OVER INTO ENTRY STEERING.
000328: 26,2430           03375 76067  POSECADR           2CADR    CM/POSE
000329:


000331:                                                                                                  #  PROGRAM-             P64
000332:                                                                                                  #  MOD NO.-             1     SEPT. 19, 1967
000333:                                                                                                  #  MOD BY-              R. HIRSCHKOP
000334:                                                                                                  #  MOD NO:  2           MOD BY:  RR BAIRNSFATHER      DATE:   8 MAY 68     REVISED COMMENTS FOR COLOSSUS
000335:                                                                                                  #  FUNCTION-            1.  TO START ENTRY GUIDANCE AT .05G SELECTING ROLL  ATTITUDE, CONSTANT DRAG LEVEL, AND
000336:                                                                                                  #                       DRAG THRESHOLD,  KA  , WHICH ARE KEYED TO THE .05G POINT.
000337:                                                                                                  #                       2.  SELECT FINAL PHASE P67 IF V < 27000 FPS WHEN .2G OCCURS.
000338:                                                                                                  #                       3.  ITERATE FOR UP-CONTROL SOLUTION  P65  IF V > 27000 FPS AND IF ALTITUDE RATE AND DRAG
000339:                                                                                                  #                       LEVEL CONDITIONS ARE SATISFIED. ENTER P65 WHEN CONSTANT DRAG CONTROLLER HAS BROUGHT RANGE
000340:                                                                                                  #                       AS PREDICTED TO WITHIN 25 NM OF DESIRED RANGE.
000341:                                                                                                  #                       4.  SELECT FINAL PHASE  P67  IF NO UP-CONTROL SOLUTION EXISTS WITH VL > 18000 FPS.
000342:                                                                                                  #  CALLING SEQUENCE-    BY RTB FROM REENTRY CONTROL
000343:                                                                                                  #  EXIT-                BACK TO REENTRY CONTROL
000344:                                                                                                  #  SUBROUTINE CALLS-    NEWMODEX
000345:
000346:
000347: 26,2432                                           BANK     26
000348: 26,2000                                           SETLOC   P60S1
000349: 26,2000                                           BANK
000350:
000351:                                                                                                  #           THIS DISPLAY IS CALLED EACH PASS THROUGH STEERING. RESTART PROTECTION IS VIA STEERING.
000352:
000353: 26,2432                                           COUNT*   $$/P64
000354:
000355: 26,2432           05243        P64                TC       NEWMODEX                              #  ENTER VIA RTB WHEN .05G IS EXCEEDED.
000356: 26,2433           00100                           MM       64         B-14
000357: 26,2434           32437                           CA       V06N68                                #  ROLLC        VI            HDOT
000358:                                                                                                  #                                          XXX.XX DEG   XXXXX. FPS    XXXXX. FPS
000359: 26,2435           55263                           TS       ENTRYVN                               #  DISPLAY VIA OVERNOUT.
000360:
000361: 26,2436           06030                           TC       DANZIG                                #  ... AND CONTINUE IN INITROLL ...
000362:
000363:
000364: 26,2437           01504        V06N68             VN       0668
000365:


000367:                                                                                                  #  PROGRAM:             P65
000368:                                                                                                  #  MOD NO:  0           MOD BY:  RR BAIRNSFATHER      DATE:  17 JAN 68     COLOSSUS GSOP ADDITION.
000369:                                                                                                  #  FUNCTION:            TO CONTINUE ENTRY GUIDANCE, USING THE UP-CONTROL PHASE TO STEER TO A CONTROLLED EXIT
000370:                                                                                                  #                       CONDITION. THIS PHASE TERMINATES  A) IF D  < Q7 FPSS, GO TO P66   ,
000371:                                                                                                  #                                                         B) IF RDOT NEG, AND IF V < VL +500 FPS, GO TO P67.
000372:                                                                                                  #  CALLING SEQUENCE:    BY RTB FROM REENTRY CONTROL
000373:                                                                                                  #  EXIT:                BACK TO REENTRY CONTROL, OR TO ENDOFJOB.
000374:                                                                                                  #  SUBROUTINE CALLS:    NEWMODEX
000375:
000376: 26,2440                                           COUNT*   $$/P65
000377:
000378: 26,2440           05243        P65                TC       NEWMODEX                              #  ENTER VIA RTB WHEN RANGE < 25 N M OF
000379: 26,2441           00101                           MM       65         B-14                       #  TARGET.
000380:
000381: 26,2442           34760                           CA       PRIO13
000382: 26,2443           05027                           TC       NOVAC
000383: 26,2444     1263                                  EBANK=   ENTRYVN
000384: 26,2444           02456 54062                     2CADR    P65.1
000385: 26,2446           05261                           TC       2PHSCHNG                              #  2 PHASE CHG REQUIRED TO PREVENT RE-
000386: 26,2447           00554                           OCT      00554                                 #  STARTING FLASHING DISPLAY TWICE.
000387: 26,2450           10035                           OCT      10035                                 #  4.55 SPOT AND SERVICER, HERE.
000388: 26,2451           06006                           TC       INTPRET
000389: 26,2452           47131                           SSP      RTB
000390: 26,2453           03646                                    GOTOADDR                              #  CHANGE ENTRY MODE TO UPCONTRL.
000391: 26,2454           53027                                    UPCONTRL
000392: 26,2455           52120                                    REFAZE10                              #  GO HERE TO REESTABLISH ENTRY SEQUENCER.
000393:                                                                                                  #                                          AND CONTINUE AT UPCONTRL...
000394:
000395: 26,2456           05447        P65.1              TC       DOWNFLAG
000396: 26,2457           00134                           ADRES    ENTRYDSP                              #  ENTRYDSP = 92D  BIT 13 FLAG 6
000397:
000398: 26,2460           32472                           CA       V16N69                                #  ROLLC        DL  (Q7)      VL
000399: 26,2461           04555                           TC       BANKCALL                              #  XXX.XX DEG   XXX.XX G      XXXXX. FPS
000400: 26,2462           20763                           CADR     GOFLASHR
000401: 26,2463           02460                           TC       -3                                    #  NODOFLAG IS SET..
000402: 26,2464           02467                           TC       +3
000403: 26,2465           02460                           TC       -5
000404: 26,2466           02232                           TC       P61.3                                 #  EST. GRP 4 FOR DSPLAY AND DO ENDOFJOB
000405:                                                                                                  #                                          IF PROCEED, CONTINUE.
000406: 26,2467           05435                           TC       UPFLAG
000407: 26,2470           00134                           ADRES    ENTRYDSP                              #  ENTRYDSP = 92D   BIT 13 FLAG 6
000408:
000409: 26,2471           02420                           TC       P63.1                                 #  DISABLE GRP 4,START UP ENTRY DISPLAY
000410:
000411:                                                                                                  #                                          N06V68 VIA OVERNOUT, AS USED IN P64.
000412:
000413: 26,2472           04105        V16N69             VN       1669
000414:


000416:                                                                                                  #  PROGRAM:             P66
000417:                                                                                                  #  MOD NO:  0           MOD BY:  RR BAIRNSFATHER      DATE:  17 JAN 68     COLOSSUS GSOP ADDITIONS.
000418:                                                                                                  #  FUNCTION:            KEEP CM ATTITUDE IN TRIM TO THE RELATIVE VELOCITY VECTOR. ENTRY GUIDANCE STOPS GENERATING
000419:                                                                                                  #                       ROLL COMMANDS UNTIL DRAG BUILDS UP TO  Q7+0.5 FPSS.
000420:
000421:                                                                                                  #  CALLING SEQUENCE:    VIA RTB FROM REENTRY CONTROL.
000422:                                                                                                  #  EXIT:                BACK TO REENTRY CONTROL.
000423:                                                                                                  #  SUBROUTINE CALLS:    NEWMODEX
000424:
000425: 26,2473                                           COUNT*   $$/P66
000426:
000427: 26,2473           05243        P66                TC       NEWMODEX                              #  ENTER VIA RTB WHEN D < Q7 FPSS
000428: 26,2474           00102                           MM       66         B-14
000429:
000430: 26,2475           34745                           CA       V06N22                                #  OGA          IGA           MGA
000431:                                                                                                  #  XXX.XX DEG   XXX.XX DEG    XXX.XX DEG
000432: 26,2476           02502                           TC       P66END                                #  IN CASE CAME FROM P65, GO DISABLE GRP4,
000433:                                                                                                  #                                          AND SET ENTRYDSP TO DO DISPLAY VIA
000434:                                                                                                  #                                          OVERNOUT.
000435:                                                                                                  #                                          ... AND CONTINUE AT KEP2
000436:


000438:                                                                                                  #  P67
000439:
000440:                                                                                                  #  PROGRAM-      P67
000441:                                                                                                  #  MOD NO.-      0       MAR. 16, 1967
000442:                                                                                                  #  MOD BY-       R. HIRSCHKOP
000443:                                                                                                  #  FUNCTION-     TO TERMINATE STEERING WHEN THE CM VELOCITY WRT EARTH = 1000 FT/SEC
000444:                                                                                                  #  CALLING SEQUENCE-
000445:                                                                                                  #  EXIT-         TO POOH
000446:                                                                                                  #  SUBROUTINE CALLS-  GOFLASH
000447:
000448:                                                                                                  #  THIS DISPLAY IS CALLED EACH PASS THROUGH STEERING.  RESTART PROTECTION IS VIA STEERING.
000449:
000450: 26,2477                                           COUNT*   $$/P67
000451:
000452: 26,2477           05243        P67                TC       NEWMODEX                              #  ENTER VIA RTB
000453: 26,2500           00103                           MM       67         B-14
000454: 26,2501           32510                           CA       V06N66                                #  ROLLC         XRNGERR         DNRNGERR
000455:                                                                                                  #  XXX.XX DEG    XXXX.X NM       XXXX.X NM
000456: 26,2502           55263        P66END             TS       ENTRYVN                               #  DISPLAY VIA OVERNOUT.
000457:
000458: 26,2503           05435                           TC       UPFLAG                                #  (IN CASE CAME FROM P65. ENTRY DISPLAY
000459: 26,2504           00134                           ADRES    ENTRYDSP                              #  WILL FLUSH FLASHING DISP. IF STILL ON)
000460:                                                                                                  #                                          BIT 13 FLAG 6
000461: 26,2505           05301        KILLGRP4           TC       PHASCHNG                              #  DISABLE GRP4, IN CASE CAME FROM HUNTEST.
000462: 26,2506           00004                           OCT      00004                                 #  (COME TO KILLGRP4 VIA RTB,RET TO CALLER)
000463:
000464: 26,2507           06030                           TC       DANZIG                                #  ... AND CONTINUE AT PREDICT3 ...
000465:
000466: 26,2510           01502        V06N66             VN       0666
000467:
000468: 26,2511                                           BANK     26
000469: 26,2000                                           SETLOC   P60S2
000470: 26,2000                                           BANK
000471:
000472: 26,2511           32542        P67.1              CA       V16N67                                #  RTOGO        LAT           LONG
000473:                                                                                                  #  XXXX.X NM    XXX.XX DEG    XXX.XX DEG
000474: 26,2512           04555                           TC       BANKCALL
000475: 26,2513           20624                           CADR     GOFLASH
000476: 26,2514           02517                           TC       +3                                    #  EFFECTIVE GOTOPOOH
000477: 26,2515           02517                           TC       +2
000478: 26,2516           02511                           TC       P67.1                                 #  REDO
000479:
000480: 26,2517           46214                           CS       THREE                                 #  TURN OFF ENTRY DAP
000481: 26,2520           00004                           INHINT
000482: 26,2521           70102                           MASK     CM/FLAGS                              #  CM/DSTBY , GAMDIFSW
000483: 26,2522           54102                           TS       CM/FLAGS
000484: 26,2523           00003                           RELINT
000485: 26,2524           00006                           EXTEND
000486: 26,2525           32642                           DCA      SERVCAD2


000488: 26,2526           53223                           DXCH     AVEGEXIT
000489: 26,2527           14106                           TCF      GOTOPOOH
000490:


000492: 26,2530           43175        P67.2              VLOAD    CLEAR                                 #  CALC PRESENT LAT, LONG, ALT.
000493: 26,2531           01171                                    RN
000494: 26,2532           00662                                    ERADFLAG                              #  USE PAD RAD FOR ALT.(NOT SEEN ANYWAY)
000495: 26,2533           16152                           STODL    ALPHAV
000496: 26,2534           01205                                    PIPTIME                               #  USE TIME OF RN
000497: 26,2535           45014                           CLEAR    CALL
000498: 26,2536           01663                                    LUNAFLAG
000499: 26,2537           26322                                    LAT-LONG
000500: 26,2540           77634        P67.3              RTB                                            #  ENTRY EXIT THAT OMITS DISPLAY.
000501: 26,2541           53603                                    SERVNOUT
000502:
000503: 26,2542           04103        V16N67             VN       1667
000504: 26,2543     4270               OCT41              =        33DEC
000505: 26,2543  26,2641               SERVCAD2           =        SERVCAD1
000506:


000508:                                                                                                  #  SUBROUTINE NAME:     S61.1
000509:                                                                                                  #  MOD NO:  0                                                              DATE: 21 FEB 67
000510:                                                                                                  #  MOD BY:  RR BAIRNSFATHER                              LOG SECTION:    P61-P67
000511:                                                                                                  #  MOD NO:  1           MOD BY:  RR BAIRNSFATHER         DATE:           22 JUN 67       RESTARTS.
000512:                                                                                                  #  FUNCTIONAL DESCRIPTION:     CALLED BY BOTH P61 AND P62
000513:                                                                                                  #           FIRST,TEST TO SEE IF   AVERAGEG   IS ON. IF NOT, UPDATE THE STATE VECTOR TO PRESENT TIME + TOLERANCE
000514:                                                                                                  #           AND TURN ON   AVERAGEG   AT THAT TIME, AND CONTINUE.   OTHERWISE CONTINUE:   SEE IF  IMU Y AXIS IS
000515:                                                                                                  #           WITHIN 30 DEG OF V*R.  IF YES, EXIT SUBROUTINE S61.1.    IF NO,  SEE IF -Y AXIS OF IMU IS WITHIN
000516:                                                                                                  #           30 DEG OF V*R.   IF YES, DISPLAY ALARM:  01427   IMU REVERSED.
000517:                                                                                                  #                            IF NO, DISPLAY ALARM:   01426   IMU UNSATISFACTORY.
000518:                                                                                                  #           IN EITHER OF THESE LAST 2 CASES, WAIT  10 SEC  AND THEN EXIT SUBROUTINE  S61.1.
000519:
000520:                                                                                                  #  REMARK:              THERE WILL BE A SHORT 10 SEC DELAY IF AN ALARM EXIT IS TAKEN. THE DELAY FOR INTEGRATION IS
000521:                                                                                                  #                       AS SHORT AS CAN BE MADE, BUT IS ARBITRARY SINCE IT  DEPENDS ON THE AGE OF THE STATE VECTOR.
000522:
000523:                                                                                                  #  CALLING SEQUENCE:  CALL
000524:                                                                                                  #                            S61.1
000525:                                                                                                  #                     C(MPAC) UNSPECIFIED
000526:                                                                                                  #                     PUSHLOC UNSPECIFIED
000527:
000528:                                                                                                  #  SUBROUTINES CALLED:  LOADTIME, CSMPREC, TPAGREE,
000529:                                                                                                  #                       WAITLIST, JOBSLEEP, JOBWAKE, PREREAD, ALARM, GODSPR, BANKCALL, DELAYJOB
000530:                                                                                                  #  NORMAL EXIT MODES:   RVQ
000531:                                                                                                  #  ALARMS:  01426     IMU UNSATISFACTORY
000532:                                                                                                  #           01427     IMU REVERSED
000533:                                                                                                  #  OUTPUT:  POSSIBLE ALARMS
000534:                                                                                                  #           POSSIBLY TDEC1, RATT, VATT, RN, VN
000535:                                                                                                  #  ERASABLE INITIALIZATION REQUIRED:
000536:                                                                                                  #           AVEGFLAG               AVERAGEG ON OR OFF                      LEFT BY SERVICER
000537:                                                                                                  #           PIPTIME  (-28) CS      TIME OF PIPA UPDATE                     LEFT BY READACCS
000538:                                                                                                  #           RN     (-29) M         STATE VECTOR                            LEFT BY AVERAGEG
000539:                                                                                                  #           VN     (-7) M/CS       STATE VECTOR                            LEFT BY AVERAGEG
000540:                                                                                                  #           REFSMMAT  (-1)         .5 REF TO SM MATRIX                     LEFT BY LAST IMU ALIGNMENT
000541:                                                                                                  #  DEBRIS:  QPRET
000542:                                                                                                  #           POSSIBLY PIPTIME1, RATT, VATT, TDEC1, RN1, VN1, QTEMP, X1      IF UPDATED
000543:                                                                                                  #           PUSH LIST LOCS USED BY CSMPREC
000544:
000545: 26,2543  E6,1661                                  EBANK=   AOG                                   #  FOR 60GENRET , S61DT
000546: 26,2543                                           BANK     26
000547: 26,2000                                           SETLOC   P60S3
000548: 26,2000                                           BANK
000549:
000550: 26,2543                                           COUNT*   $$/S61.1
000551:
000552: 26,2543           00006        S61.1              EXTEND
000553: 26,2544           23773                           QXCH     60GENRET                              #  SAVE RET ADDR IN EB 6
000554: 26,2545           04555                           TC       BANKCALL
000555: 26,2546           17573                           CADR     R02BOTH
000556: 26,2547           06006                           TC       INTPRET


000558: 26,2550           45014                           BON      CALRB
000559: 26,2551           00716                                    AVEGFLAG                              #  IS AVERAGEG ON
000560: 26,2552           54603                                    S61.1A                                #  YES
000561: 26,2553           27570                                    MIDTOAV2                              #  GET FUTURE STATE VECTOR SOON AS CAN
000562:
000563: 26,2554           30155                           CA       MPAC       +1                         #  RETURN INHINTED ***
000564: 26,2555           55774                           TS       S61DT                                 #  FOR RESTART.
000565: 26,2556           05140                           TC       WAITLIST
000566: 26,2557  E7,1431                                  EBANK=   DVCNTR
000567: 26,2557           02564 54067                     2CADR    S61.1C
000568: 26,2561           05301                           TC       PHASCHNG
000569: 26,2562           40434                           OCT      40434
000570: 26,2563           05112                           TC       ENDOFJOB
000571:
000572: 26,2564           34760        S61.1C             CA       PRIO13
000573: 26,2565           05042                           TC       FINDVAC
000574: 26,2566  E6,1661                                  EBANK=   AOG
000575: 26,2566           02602 54066                     2CADR    S61.1A     -1
000576:
000577: 26,2570           00006                           EXTEND
000578: 26,2571           32642                           DCA      SERVCAD1                              #  HE WHO STARTS AVERAGEG MUST SERVICE
000579: 26,2572           53223                           DXCH     AVEGEXIT                              #  THE EXIT.
000580:
000581: 26,2573           05261                           TC       2PHSCHNG
000582: 26,2574           00454                           OCT      00454
000583: 26,2575           00415                           OCT      00415
000584:
000585: 26,2576           34753                           CA       EBENTRY                               #  SET EB= 7 FOR PREREAD.
000586: 26,2577           54003                           TS       EBANK
000587:
000588: 26,2600           04574                           TC       POSTJUMP
000589: 26,2601           76604                           CADR     PREREAD                               #  PREREAD DOES TC TASKOVER.
000590:
000591: 26,2602           06006                           TC       INTPRET
000592: 26,2603           77204        S61.1A             BOVB     VLOAD
000593: 26,2604           57314                                    TCDANZIG                              #  TURN OFF OVFIND, IF ON
000594: 26,2605           01177                                    VN                                    #  VN   (-7) M/CS
000595: 26,2606           64235                           VXV      MXV
000596: 26,2607           01171                                    RN                                    #  RN  (-29)  M
000597: 26,2610           01736                                    REFSMMAT                              #  .5 UNIT MATRIX
000598: 26,2611           71256                           UNIT     DLOAD
000599: 26,2612           00160                                    MPAC       +3                         #  GET  COS(THETA)/2
000600: 26,2613           43240                           BMN      DAD
000601: 26,2614           54621                                    S61.1B                                #  DO TEST ON -YSM
000602: 26,2615           14644                                    C(30)LIM                              #  = 1.0 -.5 COS(30)
000603: 26,2616           47004                           BOVB     RTB
000604: 26,2617           54640                                    RETRN1
000605: 26,2620           54625                                    RETRN3


000607: 26,2621           43276        S61.1B             DCOMP    DAD
000608: 26,2622           14644                                    C(30)LIM                              #  = 1.0- .5 COS(30)
000609: 26,2623           77404                           BOVB     EXIT
000610: 26,2624           54630                                    RETRN2
000611:
000612: 26,2625           05537        RETRN3             TC       ALARM
000613: 26,2626           01426                           OCT      01426                                 #  IMU UNSATISFACTORY
000614: 26,2627           02632                           TC       RETRN2     +2
000615:
000616: 26,2630           05537        RETRN2             TC       ALARM
000617: 26,2631           01427                           OCT      01427                                 #  IMU REVERSED
000618:
000619: 26,2632           34743                 +2        CAF      V05N09
000620: 26,2633           04555                           TC       BANKCALL
000621: 26,2634           20602                           CADR     GODSPR                                #  DO DISPLAY
000622: 26,2635           32645                           CA       10SECS
000623: 26,2636           04555                           TC       BANKCALL
000624: 26,2637           01730                           CADR     DELAYJOB
000625:
000626: 26,2640           01773        RETRN1             TC       60GENRET
000627:
000628: 26,2641  E7,1431                                  EBANK=   DVCNTR
000629: 26,2641           03136 76067  SERVCAD1           2CADR    SERVEXIT
000630: 26,2643           22111 17335  C(30)LIM           2DEC     .566985                               #  = 1.0 - .5 COS(30)
000631: 26,2645           01750        10SECS             DEC      1000       B-14                       #  1000 CS
000632: 26,2646           00000 13560  60SECDP            2DEC     6000       B-28                       #  6000 CS
000633:


000635:                                                                                                  #  PROGRAM NAME:      S61.2                                                DATE:           14 FEB 67
000636:                                                                                                  #  MOD NO:  1                                                              LOG SECTION:    P61-P67
000637:                                                                                                  #  MOD BY:  MORTH / BAIRNSFATHER
000638:                                                                                                  #  MOD NO:  2           MOD BY:  MORTH/BAIRNSFATHER   DATE:  11 MAY 67     ADD 2ND ITER FOR ERAD AT 400K FT.
000639:                                                                                                  #  MOD NO:  3           MOD BY:  RR BAIRNSFATHER      DATE:  21 NOV 67     VARIABLE MU ADDED.
000640:                                                                                                  #  MOD NO:  4           MOD BY:  RR BAIRNSFATHER      DATE:  21 MAR 68     DIFFERENT EARTH/MOON SCALES IN TFF'S
000641:                                                                                                  #  FUNCTIONAL DESCRIPTION:      CALLED BY P61.  PROVIDES DISPLAYS FOR NOUNS  N60  AND  N63  .
000642:                                                                                                  #           PROGRAM CALCULATES ENTRY DISPLAY OF MAXIMUM ACCELERATION EXPECTED  (GMAX)  AND ALSO THE EXPECTED
000643:                                                                                                  #           INERTIAL VELOCITY (VPRED) AND ENTRY ANGLE   (GAMMAEI)   THAT WILL OBTAIN AT 400K FT ABOVE THE FISCHER
000644:                                                                                                  #           ELLIPSOID.   PROGRAM ALSO CALCULATES A SECOND DISPLAY RELATIVE  TO THE EMSALT  ABOVE FISCHER ELLIPSOID
000645:                                                                                                  #           AND CONSISTS OF RANGE TO SPLASH FROM NOW (RTGO) , PREDICTED INERTIAL VELOCITY (VIO) , AND THE TIME TO
000646:                                                                                                  #           GO FROM NOW (TTE) .
000647:                                                                                                  #  CALLING SEQUENCE:  CALL
000648:                                                                                                  #                            S61.2
000649:                                                                                                  #           C(MPAC) UNSPECIFIED
000650:                                                                                                  #           PUSHLOC WILL BE SET TO ZERO.
000651:
000652:                                                                                                  #  SUBROUTINES CALLED:  TFFCONIC,  CALCTFF,  TFF/TRIG,  FISHCALC,  GETERAD,  VGAMCALC
000653:                                                                                                  #  NORMAL EXIT MODES:    RTB  P61.1
000654:                                                                                                  #  ALARMS:  NONE
000655:                                                                                                  #  OUTPUT:  THE FOLLOWING REGISTERS ARE WRITTEN IN FOR USE BY DISPLAYS
000656:                                                                                                  #           GMAX   100 GMAX  (-14)  G,S     MAXIMUM ACCELERATION
000657:                                                                                                  #           VPRED  (-7)  M/CS      PREDICTED VELOCITY AT 400K FT
000658:                                                                                                  #           GAMMAEI  GAMMA/360     PREDICTED GAMMA    AT 400K FT
000659:                                                                                                  #                                  FOR TM, DP(GAMMAEI) = (GAMMAEI, RTGO) / 360
000660:                                                                                                  #           RTGO   THETAH/360      RANGE ANGLE TO SPLASH FROM EMSALT       EMSALT IS PAD LOADED
000661:                                                                                                  #           VIO    (-7) M/CS       INERTIAL VELOCITY AT       EMSALT       EMSALT IS PAD LOADED
000662:                                                                                                  #           TTE    (-28) CS        TIME TO                    EMSALT       EMSALT IS PAD LOADED
000663:
000664:                                                                                                  #           PUSHLOC = 0
000665:                                                                                                  #           CONIC PARAMETERS STORED IN VAC AREA (SEE TFF SUBROUTINES)
000666:                                                                                                  #  ERASABLE INITIALIZATION REQUIRED:
000667:                                                                                                  #           RONE   (-29) M         STATE VECTOR                            LEFT BY USER
000668:                                                                                                  #           VONE   (-7)  M/CS      STATE VECTOR                            LEFT BY USER
000669:                                                                                                  #           URONE  UR/2                                                    LEFT BY USER
000670:                                                                                                  #           UNI    (-1)            UNIT NORMAL V*R                         LEFT BY ENTRY / P61
000671:                                                                                                  #           THETAH  THETAH/360     RANGE ANGLE                             LEFT BY ENTRY / P61
000672:                                                                                                  #           UNITW  (0)             UNIT POLAR VECTOR                       LEFT BY  PAD LOAD
000673:                                                                                                  #           EMSALT  (-29) M        EMS INTERFACE ALTITUDE                  LEFT BY  PAD LOAD
000674:                                                                                                  #                                  ORBITAL REENTRY:  284643 FT, LUNAR REENTRY:  297431 FT.
000675:                                                                                                  #  DEBRIS:  QPRET,
000676:                                                                                                  #           ALL PDL LOCATIONS ABOVE 12D, INCLUDING X1,X2,S1,S2
000677:                                                                                                  #           ALSO PDL+0 ... PDL+5, WHERE INITIAL PUSHLOC = PDL
000678:


000680:
000681:
000682:                                                                                                  #  THE FOLLOWING PUSH LIST LOCATIONS HAVE BEEN RESERVED FOR TFF ROUTINES AND ARE REPEATED HERE FOR CONVENIENCE.
000683:
000684:                                                                                                  #  OF COURSE  FOR S61.2 USAGE, EARTH ORIGIN SCALING IS USED.
000685:
000686:                                                                                                  #                                                               BELOW      E:   IS USED FOR EARTH ORIGIN SCALE
000687:                                                                                                  #                                                                          M:   IS USED FOR MOON ORIGIN SCALE
000688:
000689:                                                                                                  #                                          RTERM    =      18D             TERMINAL RADIUS M  E: (-29)  M: (-27)
000690:                                                                                                  #                                          NRTERM   =      16D             TERMINAL RADIUS M  E: (-29+NR)
000691:                                                                                                  #                                                                                             M: (-27+NR)
000692:                                                                                                  #                                          RMAG1    =      12D             PRESENT RADIUS M   E: (-29)  M: (-27)
000693:                                                                                                  #                                          NRMAG    =      32D             PRESENT RADIUS M   E: (-29+NR)
000694:                                                                                                  #                                                                                             M: (-27+NR)
000695:                                                                                                  #                                          SDELF/2                         SIN(THETA)  /2
000696:                                                                                                  #                                          CDELF/2  =      14D             COS(THETA) /2
000697:                                                                                                  #                                          TFFX     =      34D             X, ARGUMENT OF SERIES T(X).
000698:                                                                                                  #                                          TFFTEM   =      36D             ARG  FOR TRANSFER ANGLE CALCULATION.
000699:                                                                                                  #                                          TFFNP    =      28D             LC P  M  E: (-38+2NR)   M: (-36+2NR)
000700:                                                                                                  #                                          TFF/RTMU =      30D             1/SQRT(MU)         E: (17)   M: (14)
000701:                                                                                                  #                                          TFFVSQ   =      20D             -(VN.VN/MU)  1/M   E: (20)   M: (18)
000702:


000704: 34,3654                                           BANK     34
000705: 26,2000                                           SETLOC   P60S2
000706: 26,2000                                           BANK
000707:
000708: 26,2650                                           COUNT*   $$/S61.2
000709:
000710:                                                                                                  #                                          PDL LEFT AT ZERO BY TARGETNG
000711:
000712: 26,2650           45345        S61.2              DLOAD    DSU
000713: 26,2651           02020                                    EMSALT
000714: 26,2652           15000                                    290KFT
000715: 26,2653           71244                           BPL      DLOAD
000716: 26,2654           54774                                    LUNENT
000717: 26,2655           17316                                    1/RTMU                                #  ESTABLISH MU FOR ORBITAL ENTRIES
000718: 26,2656           77624        CALLCON            CALL
000719: 26,2657           56721                                    TFFCONIC                              #  FILL VAC AREA WITH CONIC PARAMETERS
000720:
000721: 26,2660           45145                           DLOAD    CALL
000722: 26,2661           15020                                    RTRIAL                                #  1ST GUESS AT TERMINAL RADIUS  (-29)
000723: 26,2662           57031                                    CALCTFF                               #  SAVES MPAC IN RTERM  (18D)
000724:
000725: 26,2663           77624                           CALL                                           #  CALC SDELF/2,  CDELF/2
000726: 26,2664           56573                                    TFF/TRIG                              #  RETURN WITH S(THETA) IN MPAC
000727:
000728: 26,2665           77624                           CALL                                           #  GET FISCHER RADIUS (-29) M
000729: 26,2666           55027                                    FISHCALC                              #  ANS IN MPAC AND IN ERADM.
000730:
000731: 26,2667           45015                           DAD      CALL
000732: 26,2670           02020                                    EMSALT
000733: 26,2671           57031                                    CALCTFF                               #  SAVES MPAC IN  RTERM  (18D)
000734:
000735: 26,2672           77676                           DCOMP                                          #  NEGATIVE AS IN COUNTDOWN.
000736: 26,2673           03733                           STORE    TTE1                                  #  DECR TTE FROM BASE TTE1. (RESTART)
000737:                                                                                                  #                                          DNLIST AND DSKY WILL USE TTE.
000738: 26,2674           37727                           STCALL   TTE                                   #  LET MISS CONTRL DECR BY ELAPSED TIME
000739:                                                                                                  #                                          TTE= TIME FROM NOW TO EMSALT +FISCHER
000740:
000741: 26,2675           56573                                    TFF/TRIG                              #  S(THETA) IN MPAC ON RETURNING
000742:                                                                                                  #                                          AND THETA= RANGE FROM NOW TO EMSALT
000743:
000744: 26,2676           77624                           CALL
000745: 26,2677           55027                                    FISHCALC
000746: 26,2700           77624                           CALL
000747: 26,2701           56626                                    VRCALC
000748: 26,2702           77624                           CALL
000749: 26,2703           56613                                    DISPTARG
000750: 26,2704           77624                           CALL
000751: 26,2705           56613                                    DISPTARG
000752: 26,2706           37714                           STCALL   RTGO


000754: 26,2707           55050                                    VGAMCALC
000755:
000756: 26,2710           77605                           DMP                                            #  MPAC = GAMMA
000757:                                                                                                  #  PDL0 HAS VGAM.
000758: 26,2711           43265                           BDDV     DAD
000759: 26,2712           15026                                    VEMSCON                               #  -HS D 180/PI (-14)
000760: 26,2713           00001                                    0                                     #  VGAM FROM PDL0.
000761: 26,2714           17725                           STODL    VIO                                   #  PREDICTED VELOCITY AT EMSALT.
000762:
000763:                                                                                                  #                               GAMMA AND VGAM AT 300K FT ARE REQUIRED BY  GMAX
000764:                                                                                                  #                               ALGORITHM.
000765:
000766: 26,2715           02241                                    ERADM                                 #  EARTH RADIUS FROM GETERAD     (-29) M
000767:                                                                                                  #                                          = FISCHER RADIUS  (-29)
000768: 26,2716           77615                           DAD
000769: 26,2717           06462                                    300KFT                                #  M  (-29)
000770: 26,2720           34023                           STCALL   RTERM                                 #  TERMINAL RADIUS  M  (-29)
000771:
000772: 26,2721           55045                                    PREVGAM                               #  VGAMCALC WITH NEW RTERM
000773:
000774:                                                                                                  #  VBAR = (V(FPS)  - 36KF/S) / 20KF/S
000775:                                                                                                  #   GMAX = (4/(1+ 4.8 VBARSQ))(GAM -6.05 -2.4 VBARSQ) -10(L/D -.3) + 10     ASSUME L/D = 0.3, BANK =0.
000776:
000777:
000778:                                                                                                  #                                          GMAXCALC
000779: 26,2722           45325                           PDDL     DSU                                   #  GAM TO PDL2
000780: 26,2723           00001                                    0                                     #  VGAM IS IN PDL0  (-7)
000781: 26,2724           15004                                    36KFT/S                               #  (-7)   M/CS
000782: 26,2725           63471                           DDV      DSQ
000783: 26,2726           15006                                    20KFT/S                               #  (-6)   M/CS
000784: 26,2727           00001                           STORE    0                                     #  VBARSQ  (-2)  TO PDL0
000785:
000786: 26,2730           43205                           DMP      DAD
000787: 26,2731           15010                                    KR1
000788:                                                                                                  #                                          GAM,    POS DOWN, FROM PDL2
000789: 26,2732           41215                           DAD      DMP
000790: 26,2733           15012                                    -6.05DEG
000791: 26,2734           15014                                    KR2
000792: 26,2735           77725                           PDDL                                           #  XCH PDL+0 FOR VBARSQ  (-2)
000793: 26,2736           43271                           DDV      DAD
000794: 26,2737           15024                                    KR4
000795: 26,2740           17330                                    DP2(-4)
000796: 26,2741           77665                           BDDV
000797:                                                                                                  #                                          NUM FROM PDL+0
000798: 26,2742           51015                           DAD      BPL
000799: 26,2743           15016                                    KR3
000800: 26,2744           54747                                    +3
000801: 26,2745           77745                           DLOAD
000802: 26,2746           15332                                    HI6ZEROS
000803: 26,2747           17722                           STODL    GMAX                                  #  100 GMAX  (-14)


000805:                                                                                                  #  DISPLAY USES GMAX AS SP, SO LO WORD IS WRITTEN OVER BY VPRED.
000806:
000807: 26,2750           02241                                    ERADM                                 #  = FISCHER RADIUS  (-29) M
000808: 26,2751           45015                           DAD      CALL                                  #  2 ND  ITERATION FOR FISCHER RADIUS
000809: 26,2752           15022                                    400KFT
000810: 26,2753           57031                                    CALCTFF                               #  ESTABLISH TRANSFER ANGLE DATA.
000811: 26,2754           77624                           CALL
000812: 26,2755           56573                                    TFF/TRIG                              #  GET SIN, COS DELF
000813: 26,2756           77624                           CALL
000814: 26,2757           55027                                    FISHCALC                              #  GET CORRESPONDING FISCHER RADIUS.
000815:
000816: 26,2760           73015                           DAD      LXA,2                                 #  SAVE HI-WORD FOR DOWNLIST.
000817: 26,2761           15022                                    400KFT                                #  M  (-29)
000818: 26,2762           03713                                    RTGO                                  #  (RANGE ANGLE FROM EMSALT)/360
000819: 26,2763           34023                           STCALL   RTERM
000820: 26,2764           55045                                    PREVGAM                               #  VGAMCALC WITH NEW RTERM
000821:
000822: 26,2765           67076                           DCOMP    SXA,2                                 #  HI-WORD OF EACH ON DOWNLIST.
000823: 26,2766           00155                                    MPAC       +1
000824: 26,2767           17771                           STODL    GAMMAEI                               #  CONIC GAMMA/360 AT 400K FT.   ( HI-WORD)
000825:                                                                                                  #                                          CONIC RTGO/360 FROM EMSALT    (LOW-WORD)
000826:                                                                                                  #                                          FOR TM, DP(GAMMAEI)= (GAMMA, RTGO)/360
000827:
000828:                                                                                                  #                                          VGAM FROM PDL+0   (-7)
000829: 26,2770           77626                           STADR
000830: 26,2771           74010                           STORE    VPRED                                 #  CONIC VELOCITY AT 400K FT
000831:
000832: 26,2772           77634                           RTB
000833: 26,2773           54267                                    P61.1
000834:                                                                                                  #                                          PDL BACK TO ZERO.
000835:
000836: 26,2774           52145        LUNENT             DLOAD    GOTO
000837: 26,2775           06456                                    1/RTMUE                               #  ESTABLISH MU FOR LUNAR TYPE ENTRIES
000838: 26,2776           54656                                    CALLCON
000839: 26,2777           00002 26244  290KFT             2DEC     88392      B-29
000840: 26,3001           00052 05716  KTETA1             2DEC*    .421844723 E2         B-14*           #  1100 2PI/16384(163.84)
000841: 26,3003           33335 05707  36KFT/S            2DEC     109.728    B-7                        #  (-7) M/CS = 36 KFT/S (-7)
000842: 26,3005           36365 30244  20KFT/S            2DEC     121.92     B-7                        #  (-6) M/CS  = 2 20KFT/S  (-7)
000843: 26,3007           77113 42770  KR1                2DEC     -.026666667                            #  = -2.4  4 / 360
000844: 26,3011           77354 65030  -6.05DEG           2DEC     -.016805556                            #  = -6.05 / 360
000845: 26,3013           21450 00001  KR2                2DEC     .54931641                             #  =(360/4) 100 (-14) =  9000 B-14
000846: 26,3015           01750 00000  KR3                2DEC     1000       B-14                       #  = 100  (10.0)  (-14)   G,S


000848:                                                                                                  #                                          ASSUMES L/D = 0.3, BANK =0.
000849: 26,3017           00305 04541  RTRIAL             2DEC     6460097.18 B-29                       #   RPAD +284643 FT =21 194 545 FT
000850:                                                                                                  #                               RPAD DEFINED AS 20 909 901.57 FT =6 373 338 M
000851: 26,3021           00003 27040  400KFT             2DEC     121920     B-29                       #  METERS
000852:
000853:                                                                                                  #  300KFT   2DEC   91440 B-29      (-29)  M
000854:
000855:                                                                                                  #  EMSALT   2DEC   86759.2 B-29    284643 FT (-29) M    (ORBITAL REENTRY)
000856:
000857:                                                                                                  #  EMSALT   2DEC   90657 B-29      297431 FT (-29) M    (LUNAR REENTRY)
000858:
000859: 26,3023           32525 12525  KR4                2DEC     .833333333
000860: 26,3025  23,2461               300KFT             EQUALS   MINPERE
000861: 26,3025           77777 76601  VEMSCON            2DEC     -.0389676  B-14                       #  = -HS D  /2  PI  (-14)    M SQ/ CS SQ
000862:                                                                                                  #                               =- 16369   .05G  32.2  .3048  .3048/2 PI    (-14)
000863:


000865:                                                                                                  #  SUBROUTINE NAME:   FISHCALC              (USED BY S61.2)                DATE:           01.21.67
000866:                                                                                                  #  MOD NO:  0                                                              LOG SECTION:    P61-P67
000867:                                                                                                  #  MOD BY:  MORTH / BAIRNSFATHER
000868:                                                                                                  #  MOD NO:  1           MOD BY:  RR BAIRNSFATHER     DATE:  11 MAY 67      INCLUDE  GETERAD  CALL
000869:                                                                                                  #  FUNCTIONAL DESCRIPTION:  GIVEN THE PRESENT POSITION, UNITR, CALCULATE A  NEW UNITR THAT IS ROTATED THROUGH
000870:                                                                                                  #           TRANSFER ANGLE, THETA, ALONG TRAJECTORY. THEN CALCULATE  SIN(LAT)  AND USE TO OBTAIN FISCHER RADIUS.
000871:
000872:                                                                                                  #           SINCE FISHCALC USES UNI (LEFT BY ENTRY) EARTH SCALING IS ASSUMED.(WILL IMPROVE FOR SUITABLE TENNANT)
000873:
000874:                                                                                                  #  CALLING SEQUENCE:  CALL
000875:                                                                                                  #                          FISHCALC
000876:                                                                                                  #           ENTER WITH .5 SIN(THETA) IN MPAC.
000877:                                                                                                  #           PUSHLOC IS AT PDL+0, AN ARBITRARY BASE VALUE IF LEQ 8D
000878:
000879:                                                                                                  #  SUBROUTINES CALLED:  GETERAD
000880:                                                                                                  #  NORMAL EXIT MODE:    RVQ
000881:                                                                                                  #  EXIT MODES:           NONE
000882:                                                                                                  #  OUTPUT:  ERADM  (-29) M   IN MPAC ON RETURNING
000883:                                                                                                  #           NEW UNIT VECTOR NOT SAVED.
000884:                                                                                                  #           SIN(LAT) NOT SAVED.
000885:                                                                                                  #           PUSHLOC AT PDL+0
000886:                                                                                                  #  ERASEABLE INITIALIZATION REQUIRED:
000887:                                                                                                  #           SDELF/2    =SIN(THETA)  /2,   IN MPAC                          LEFT BY TFF/TRIG
000888:                                                                                                  #           CDELF/2    =COS(THETA) /2, STORED IN PDL 14D                   LEFT BY TFF/TRIG
000889:                                                                                                  #           RONE   (-29) M                                                 LEFT BY USER
000890:                                                                                                  #           VONE   (-7)  M/CS                                              LEFT BY USER
000891:                                                                                                  #           URONE  UR/2                                                    LEFT BY USER
000892:                                                                                                  #           UNI        .5 UNIT( V*R)                                       LEFT BY ENTRY / P61
000893:                                                                                                  #           UNITW      UNIT NORTH POLE                                     LEFT BY PAD LOAD
000894:                                                                                                  #  DEBRIS:  QPRET,   PDL+0 ... PDL+5
000895:
000896:
000897:                                                                                                  #                                          -      -          -
000898: 26,3027           47315        FISHCALC           PDVL     VXV                                   #  URPR = UR CDELF + UHOR SDELF
000899: 26,3030           02343                                    URONE
000900: 26,3031           03502                                    UNI
000901: 26,3032           76561                           VXSC     VSL1
000902:                                                                                                  #                                          SIN(THETA) /2 FROM PDL+0
000903: 26,3033           74315                           PDVL     VXSC                                  #  TO PDL+0,  +5
000904: 26,3034           02343                                    URONE
000905: 26,3035           00017                                    CDELF/2                               #  COS(THETA) /2
000906: 26,3036           45455                           VAD      STADR
000907: 26,3037           74235                           STORE    URH                                   #  FOR USE IN RTGO FROM EMS DISPLAY
000908: 26,3040           72441                           DOT      SL1
000909: 26,3041           01714                                    UNITW                                 #  FULL UNIT VECTOR    UNIT NORTH
000910: 26,3042           02156                           STORE    ALPHAV     +4                         #   = .5 SIN(LAT)
000911: 26,3043           77650        DUMPFISH           GOTO
000912: 26,3044           26437                                    GETERAD                               #  SAVES FISCHER RAD (-29) M IN ERADM AND
000913:                                                                                                  #                                          IN MPAC. RETURNS TO CALLER VIQ QPRET.
000914:


000916:                                                                                                  #  SUBROUTINE NAME:   VGAMCALC   (USED BY S61.2)                         DATE:           01.21.67
000917:                                                                                                  #  MOD NO:    0                                                          LOG SECTION:    P61-P67
000918:                                                                                                  #  MOD BY:  MORTH / BAIRNSFATHER
000919:                                                                                                  #  MOD NO:  1           MOD BY:  RR BAIRNSFATHER         DATE: 11 APR 67
000920:                                                                                                  #  MOD NO:  2           MOD BY:  RR BAIRNSFATHER         DATE: 21 NOV 67         VARIABLE MU ADDED.
000921:                                                                                                  #  MOD NO:  3           MOD BY:  RR BAIRNSFATHER         DATE: 21 MAR 68         ACCEPT DIFFERENT EARTH/MOON SCALE
000922:                                                                                                  #  FUNCTIONAL DESCRIPTION:       EARTH CENTERED VIS VIVA CALCULATION OF TERMINAL VELOCITY AND GAMMA (REL TO
000923:                                                                                                  #          HORIZONTAL)  GIVEN  THE SCALAR QUANTITIES:   PRESENT RADIUS AND VELOCITY AND THE TERMINAL RADIUS.
000924:                                                                                                  #          THE USER MUST APPEND PROPER SIGN TO GAMMA, SINCE IT IS CALCULATED AS A POSITIVE NUMBER.
000925:                                                                                                  #          THE EQUATIONS ARE
000926:
000927:                                                                                                  #                 VGAM = SQRT(VN VN/MU + 2(RN-RTERM)/(RN RTERM)  )  RTMU
000928:
000929:                                                                                                  #                 COSGAM = H /RTERM VGAM  = SQRT(LCP)/ (RTERM VGAM/RTMU)
000930:
000931:
000932:                                                                                                  #          VGAMCALC ASSUMES THAT THE TERMINAL RADIUS IS LESS THAN THE PRESENT RADIUS. BOTH CALCTFF AND CALCTPER
000933:                                                                                                  #          MAKE THIS ASSUMPTION.
000934:
000935:                                                                                                  #  CALLING SEQUENCE:  CALL                         STCALL RTERM
000936:                                                                                                  #                           VGAMCALC                      PREVGAM
000937:                                                                                                  #          PUSHLOC AT PDL+0, ARBITRARY  IF LEQ 12D
000938:                                                                                                  #          C(MPAC) UNSPECIFIED                    C(MPAC)=NEW RTERM
000939:
000940:                                                                                                  #  SUBROUTINES CALLED:  NONE
000941:                                                                                                  #  NORMAL EXIT MODE:    RVQ
000942:                                                                                                  #  ALARMS:    NONE
000943:                                                                                                  #  OUTPUT:    GAMMA / 360 IN MPAC, POSITIVE NUMBER
000944:                                                                                                  #             VGAM E:(-7)  M:(-5)    M/CS IN PDL+0
000945:                                                                                                  #             PUSHLOC AT PDL+2
000946:                                                                                                  #  ERASABLE INITIALIZATION REQD:
000947:                                                                                                  #           TFF/RTMU E:(17) M:(14)   1/SQRT(MU)                            LEFT BY TFFCONIC.
000948:                                                                                                  #           RMAG1  E:(-29) M:(-27)   M   PRESENT RADIUS LENGTH             LEFT BY TFFCONIC
000949:                                                                                                  #           NRMAG  E: (-29+NR)       M  NORM LENGTH OF PRESENT POSITION    LEFT BY TFFCONIC
000950:                                                                                                  #                  M: (-27+NR)
000951:                                                                                                  #           RTERM  E:(-29) M:(-27)   M  TERMINAL RADIUS LENGTH             LEFT BY CALCTFF
000952:                                                                                                  #           NRTERM E: (-29+NR)       M  NORM LENGTH OF TERMINAL RADIUS     LEFT BY CALCTFF
000953:                                                                                                  #                  M: (-27+NR)
000954:                                                                                                  #           TFFVSQ E:(20)  M:(18)  1/M   -(V SQ/MU): PRESENT VELOCITY,NORM LEFT BY TFFCONIC
000955:                                                                                                  #           TFFNP  E: (-38+2NR)      M  LCP, SEMI-LATUS RECTUM, WEIGHT NR  LEFT BY TFFCONIC
000956:                                                                                                  #                  M: (-36+2NR)
000957:                                                                                                  #  DEBRIS:  QPRET, PDL+0 ... PDL+3
000958:                                                                                                  #           RTERM, NRTERM IF PREVGAM ENTERED.
000959:


000961: 26,3045           77657        PREVGAM            SL*                                            #  ENTER WITH NEW  RTERM IN MPAC
000962:                                                                                                  #                                          E: (-29)  M: (-27)
000963: 26,3046           20201                                    0,1                                   #  X1 = -NR
000964: 26,3047           00021                           STORE    NRTERM                                #  RTERM  M        E:(-29+NR)   M: (-27+NR)
000965:
000966: 26,3050           41345        VGAMCALC           DLOAD    DMP
000967: 26,3051           00041                                    NRMAG                                 #  RMAG  M          E:(-29+NR)  M:(-27+NR)
000968: 26,3052           00021                                    NRTERM                                #  RTERM  M         E:(-29+NR)  M:(-27+NR)
000969: 26,3053           45325                           PDDL     DSU                                   #  RMAG RTERM M     E:(-58+2NR) M:(-54+2NR)
000970: 26,3054           00041                                    NRMAG                                 #  RMAG  M          E:(-29+NR)  M:(-27+NR)
000971: 26,3055           00021                                    NRTERM                                #  RTERM  M         E:(-29+NR)  M:(-27+NR)
000972: 26,3056           56257                           SL*      DDV                                   #  2(RN-RTERM)      E:(-30+NR)  M:(-28+NR)
000973: 26,3057           20171                                    0          -8D,1                      #  (-8+NR)
000974:                                                                                                  #                                          PUSH UP PRODUCT.
000975: 26,3060           77625                           DSU
000976: 26,3061           00025                                    TFFVSQ                                #  -(V SQ/MU)         E: (20)   M: (18)
000977: 26,3062           41566                           SQRT     PUSH                                  #  SAVE VGAM/RT(MU) FOR NOW. E:(10) M: (9)
000978: 26,3063           65271                           DDV      PDDL                                  #  XCH PDL+0, LEAVING VGAM FOR OUTPUT.
000979:                                                                                                  #                                          VGAM TO PDL M/CS   E: (-7)   M: (-2)
000980: 26,3064           00037                                    TFF/RTMU                              #  E: (17)  M: (14)
000981: 26,3065           65205                           DMP      PDDL                                  #  RTERM VGAM/RTMU  E:(-19+NR)  M:(-18+NR)
000982: 26,3066           00021                                    NRTERM                                #  RTERM M          E:(-29+NR)  M:(-27+NR)
000983: 26,3067           00035                                    TFFNP                                 #  LC P =H.H/MU M   E:(-38+2NR) M:(-36+2NR)
000984: 26,3070           56366                           SQRT     DDV                                   #                   E:(-19+NR)  M:(-18+NR)
000985:                                                                                                  #                                          PUSH UP DEN      E:(-19+NR)  M:(-18+NR)
000986:                                                                                                  #                                          USE DDV OVFL AS LIMITER (|COS| <1.0)
000987: 26,3071           65542                           SR1      ACOS
000988: 26,3072           77616        DUMPVGAM           RVQ
000989:
000990:                                                                                                  #                                          CALLER MUST SUPPLY OWN SIGN ...
000991:
000992:                                                                                                  #                                                                   22W     27MS
000993:


000995:                                                                                                  #  SUBROUTINE NAME:     TFF/TRIG            (USED BY S61.2)                DATE     01.17.67
000996:                                                                                                  #  MOD NO:  0                                                              LOG SECTION:    P61-P67
000997:                                                                                                  #  MOD BY:  RR BAIRNSFATHER
000998:                                                                                                  #  MOD NO:  1           MOD BY:  RR BAIRNSFATHER     DATE:  14 APR 67
000999:                                                                                                  #  MOD NO:  2           MOD BY:  RR BAIRNSFATHER     DATE:  21 MAR 68      ACCEPT DIFFERENT EARTH/MOON SCALE
001000:                                                                                                  #  FUNCTIONAL DESCRIPTION:      USED BY ENTRY DISPLAY TO CALCULATE SIN(THETA), COS(THETA) FROM DATA LEFT IN
001001:                                                                                                  #           PDL BY TFF SUBROUTINES. THE EQNS ARE
001002:                                                                                                  #                  COS(THETA) = 1-2 ABS(ARG) /(RN RTERM (1+X)  )
001003:                                                                                                  #                                                  2
001004:                                                                                                  #                  SIN(THETA) = SGN(ARG) SQRT(1-COS (THETA) )
001005:                                                                                                  #           WHERE  THETA = TRANSFER ANGLE
001006:                                                                                                  #           AND    ARG = P Z ABS(Z)                                        IF ALFA ZZ   LEQ 1
001007:                                                                                                  #                  ARG = (P / ALFA)  SGN(Q1 + R 1/Z)                       IF ALFA Z Z   G  1
001008:                                                                                                  #           AND  ARG  HAS BEEN AFFIXED WITH THE SIGN OF SIN(THETA).
001009:                                                                                                  #  CALLING SEQUENCE:  CALL
001010:                                                                                                  #                            TFF/TRIG
001011:                                                                                                  #           PUSHLOC AT PDL+0, ARBITRARY IF NOT EQ 14D
001012:                                                                                                  #           C(MPAC) UNSPECIFIED
001013:
001014:                                                                                                  #  SUBROUTINES CALLED:  NONE
001015:                                                                                                  #  NORMAL EXIT MODES:   RVQ
001016:                                                                                                  #  ALARMS:  NONE
001017:                                                                                                  #  OUTPUT:  C(MPAC) = .5 SIN(THETA)
001018:                                                                                                  #           CDELF/2 = .5 COS(THETA)          (IN PDL 14D)
001019:                                                                                                  #           PUSHLOC AT PDL+0
001020:                                                                                                  #  ERASABLE INITIALIZATION REQUIRED:
001021:                                                                                                  #           TFFX                   X                                       LEFT BY CALCTFF OR CALCTPER
001022:                                                                                                  #           TFFTEM E: (-59+2NR)    ARG                                     LEFT BY CALCTFF OR CALCTPER
001023:                                                                                                  #                  M: (-55+2NR)    WHERE ARG = LCP ZZ SGN(DELF) OR ARG = LCP/ALFA  SGN(DELF)
001024:                                                                                                  #           NRTERM E: (-29+NR)       M  NORM LENGTH OF TERMINAL RADIUS     LEFT BY CALCTFF OR CALCTPER
001025:                                                                                                  #                  M: (-27+NR)
001026:                                                                                                  #           NRMAG  E: (-29+NR)       M  NORM LENGTH OF PRESENT POSITION    LEFT BY TFFCONIC
001027:                                                                                                  #                  M: (-27+NR)
001028:                                                                                                  #  DEBRIS:  QPRET, CDELF/2
001029:
001030: 27,2573                                           BANK     27
001031: 27,2000                                           SETLOC   P60S5
001032: 27,2000                                           BANK
001033: 27,2573           70545        TFF/TRIG           DLOAD    SR1
001034: 27,2574           00043                                    TFFX
001035: 27,2575           41215                           DAD      DMP
001036: 27,2576           15330                                    HIDPHALF
001037: 27,2577           00041                                    NRMAG                                 #  RMAG  M          E:(-29+NR)  M:(-27+NR)
001038: 27,2600           55205                           DMP      BDDV
001039: 27,2601           00021                                    NRTERM                                #  RTERM  M         E:(-29+NR)  M:(-27+NR)
001040: 27,2602           00045                                    TFFTEM                                #  P ZSQ OR P/ALFA  E:(-59+2NR) M:(-55+2NR)
001041: 27,2603           44246                           ABS      BDSU                                  #  THE SIGN IS FOR SDELF.
001042: 27,2604           15330                                    HIDPHALF
001043: 27,2605           00017                           STORE    CDELF/2                               #  .5 COS(THETA)
001044: 27,2606           57516                           DSQ      DCOMP                                 #  KEEP HONEST FOR SQRT.


001046: 27,2607           75415                           DAD      SQRT
001047: 27,2610           15322                                    HIDP1/4
001048: 27,2611           43565        DUMPTRIG           SIGN     RVQ
001049: 27,2612           00045                                    TFFTEM                                #  AFFIX SIGN(DELE/2)
001050:                                                                                                  #                                          RETURN WITH .5 SIN(THETA) IN MPAC
001051:
001052:                                                                                                  #                                                             16W            15 MS
001053:
001054: 27,2613           77620        DISPTARG           STQ                                            #   C(MPAC) = TRGO  ESTIMATE
001055: 27,2614           03373                                    60GENRET
001056: 27,2615           45205                           DMP      DSU
001057: 27,2616           15002                                    KTETA1
001058: 27,2617           03733                                    TTE1
001059: 27,2620           37606                           STCALL   DTEAROT
001060: 27,2621           46225                                    EARROT2
001061: 27,2622           77624                           CALL
001062: 27,2623           56626                                    VRCALC
001063: 27,2624           77650                           GOTO
001064: 27,2625           03373                                    60GENRET
001065: 27,2626           50375        VRCALC             VLOAD    DOT
001066: 27,2627           03542                                    URH
001067: 27,2630           03474                                    RT
001068: 27,2631           65512                           SL2      ACOS
001069: 27,2632           77616                           RVQ
001070:                                                                                                  #  END OF PROGRAM S61.2
001071:


001073:
001074:                                                                                                  #  PROGRAM DESCRIPTION S62.3       DATE 10JAN67
001075:                                                                                                  #  MOD NO 1        LOG SECTION P60-P67
001076:                                                                                                  #  MOD BY ZELDIN
001077:                                                                                                  #  MOD NO:  2           MOD BY:  RR BAIRNSFATHER      DATE: 15 MAY 67      CHANGED TO REF COORDS.
001078:                                                                                                  #  MOD NO:  3           MOD BY:  RR BAIRNSFATHER      DATE:  17 JAN 68     ALFAPAD CHANGES MADE.
001079:                                                                                                  #  FUNCTIONAL DESCRIPTION
001080:                                                                                                  #           COMPUTE  DESIRED GIMBOL ANGLES FOR ENTRY ATTITUDE
001081:                                                                                                  #           THE FOLLOWING TRAJECTORY TRIAD IS AVAILABLE IN MEMORY AND IS COMPUTED EACH 2 SECONDS BY  CM/POSE  IN
001082:                                                                                                  #           REFERENCE COORDINATES (V = VELOCITY RELATIVE TO EARTH) :
001083:
001084:                                                                                                  #                  UXA = -UNIT(V)
001085:                                                                                                  #                  UYA =  UNIT(V*R)
001086:                                                                                                  #                  UZA =  UXA*UYA
001087:
001088:                                                                                                  #           GENERATE A DESIRED BODY TRIAD FOR TRIMMED FLIGHT WITH RESPECT TO THE RELATIVE VELOCITY VECTOR, USING
001089:                                                                                                  #           ROLL COMMAND AND TRIM ANGLE OF ATTACK:
001090:
001091:                                                                                                  #                UXD = UNIT(UYD*UXA) SIN(ALFATRIM) + UXA COS(ALFATRIM)
001092:                                                                                                  #                UYD = UYA COS(ROLLC) + UZA SIN(ROLLC)
001093:                                                                                                  #                UZD = UXD * UYD
001094:
001095:                                                                                                  #           USE THE DESIRED SET (IN REFERENCE COORDS) AND  REFSMMAT  TO CALL   CALCGA   AND OBTAIN GIMBAL ANGLES
001096:                                                                                                  #           IN 2S,C IN MPAC, +2 AND THETAD, +2.
001097:
001098:                                                                                                  #  CALLING SEQUENCE
001099:                                                                                                  #         L   CALL
001100:                                                                                                  #         L+1      S62.3
001101:                                                                                                  #  NORMAL EXIT MODE
001102:                                                                                                  #           RETURN VIA QPRET DIRECTLY FROM CALCGA.
001103:                                                                                                  #  SUBROUTINES CALLED
001104:                                                                                                  #           CALCGA
001105:                                                                                                  #  ALARM OR ABORT MODES
001106:                                                                                                  #           NONE
001107:                                                                                                  #  ERASABLE INITIALIZATION REQUIRED
001108:                                                                                                  #           ROLLC  ROLL COMMAND          DP 1:S COMP AT 1REV
001109:                                                                                                  #           ALFAPAD   SP 1S,C     /180                LEFT BY PAD LOAD    ALFATRIM IS NEGATIVE.
001110:                                                                                                  #           UXA/2  REF COORDS                         LEFT BY CM/POSE
001111:                                                                                                  #           UYA/2  REF COORDS                         LEFT BY CM/POSE
001112:                                                                                                  #           UZA/2  REF COORDS                         LEFT BY CM/POSE
001113:                                                                                                  #  OUTPUT
001114:                                                                                                  #           CPHI   GIMBAL ANGLES (O,I,M) 2:S COMP TP (O,I,M)/180
001115:                                                                                                  #  DEBRIS
001116:                                                                                                  #        QTEMP, QPRET,PUSHLIST
001117:
001118: 10,2302                                           BANK     10
001119: 10,2000                                           SETLOC   P60S4
001120: 10,2000                                           BANK
001121:


001123: 10,2302                                           COUNT*   $$/S62.3
001124:
001125: 10,2302           67201        S62.3              SETPD    SLOAD
001126: 10,2303           00001                                    0
001127: 10,2304           03012                                    ALFAPAD                               #  ALFATRIM /180, ALFA IS NEG.
001128: 10,2305           41542                           SR1      PUSH
001129: 10,2306           65346                           COS      PDDL                                  #  XCH PDL, COS TO PDL0
001130: 10,2307           65356                           SIN      PDDL                                  #  SIN TO PDL2
001131: 10,2310           03316                                    ROLLC
001132: 10,2311           74346                           COS      VXSC
001133: 10,2312           03550                                    UYA/2                                 #                           REF COORDS
001134: 10,2313           73525                           PDDL     SIN                                   #  PUSH VECTOR INTO PDL4,.9
001135: 10,2314           03316                                    ROLLC
001136: 10,2315           53361                           VXSC     VAD
001137: 10,2316           03556                                    UZA/2                                 #                           REF COORDS
001138:                                                                                                  #                                          VECTOR FROM PDL4, 9
001139: 10,2317           77772                           VSL1
001140: 10,2320           02722                           STORE    YNB                                   #  = UYD                    REF COORDS
001141:
001142: 10,2321           76435                           VXV      VSL1
001143: 10,2322           03542                                    UXA/2                                 #                           REF COORDS
001144: 10,2323           65361                           VXSC     PDDL
001145:                                                                                                  #                                          SIN TRIM FROM PDL2
001146:                                                                                                  #                                          XCH PDL0 FOR COS TRIM
001147: 10,2324           53361                           VXSC     VAD
001148: 10,2325           03542                                    UXA/2                                 #                           REF COORDS
001149:                                                                                                  #                                          FROM PDL0
001150: 10,2326           77626                           STADR
001151: 10,2327           75063                           STORE    XNB                                   #  X SC AXIS (.5 UNIT)        REF COORDS
001152:
001153: 10,2330           76435                           VXV      VSL1
001154: 10,2331           02722                                    YNB
001155: 10,2332           26730                           STOVL    ZNB                                   #  Z SC IN REF COOR. SCALED AT 2
001156: 10,2333           01736                                    REFSMMAT
001157: 10,2334           26672                           STOVL    XSM
001158: 10,2335           01744                                    REFSMMAT   +6
001159: 10,2336           26700                           STOVL    YSM
001160: 10,2337           01752                                    REFSMMAT   +12D
001161: 10,2340           02706                           STORE    ZSM
001162:
001163: 10,2341           52014                           CLEAR    GOTO
001164: 10,2342           00260                                    CPHIFLAG                              #  CAUSE CALCGA TO STORE ANS IN TP CPHI
001165: 10,2343           47244                                    CALCGA
001166:                                                                                                  #                                          CALCGA WILL RETURN TO ORIGINAL CALLER
001167:                                                                                                  #                                          VIA QPRET WITH 2,S COMP. ANGLES IN CPHI

End of include-file P61-P67.agc.  Parent file is MAIN.agc


