
Source Code


000002:                                                                                                  ## Copyright:   Public domain.
000003:                                                                                                  ## Filename:    P76.agc
000004:                                                                                                  ## Purpose:     Part of the source code for Colossus build 237.
000005:                                                                                                  ##              This is for the Command Module's (CM) Apollo Guidance
000006:                                                                                                  ##              Computer (AGC), for Apollo 8.
000007:                                                                                                  ## Assembler:   yaYUL
000008:                                                                                                  ## Contact:     Jim Lawton <jim DOT lawton AT gmail DOT com>
000009:                                                                                                  ## Website:     www.ibiblio.org/apollo/index.html
000010:                                                                                                  ## Page Scans:  www.ibiblio.org/apollo/ScansForConversion/Colossus237/
000011:                                                                                                  ## Mod history: 2011-02-05 JL   Adapted from corresponding Colossus 249 file.
000012:                                                                                                  ##              2016-12-31 RSB  Proofed comment text using octopus/ProoferComments,
000013:                                                                                                  ##                              and corrected errors found.
000014:


000016:                                                                                                  #  1) PROGRAM NAME - TARGET DELTA V PROGRAM (P76).
000017:                                                                                                  #  2) FUNCTIONAL DESCRIPTION - UPON ENTRY BY ASTRONAUT ACTION, P76 FLASHES DSKY REQUESTS TO THE ASTRONAUT
000018:                                                                                                  #           TO PROVIDE VIA DSKY (1) THE DELTA V TO BE APPLIED TO THE OTHER VEHICLE STATE VECTOR AND (2) THE
000019:                                                                                                  #           TIME (TIG) AT WHICH THE OTHER VEHICLE VELOCITY WAS CHANGED BY  EXECUTION OF A THRUSTING MANEUVER. THE
000020:                                                                                                  #           OTHER VEHICLE STATE VECTOR IS INTEGRATED TO TIG AND UPDATED BY THE ADDITION OF DELTA V (DELTA V HAVING
000021:                                                                                                  #           BEEN TRANSFORMED FROM LV TO REF COSYS). USING INTEGRVS, THE    PROGRAM THEN INTEGRATES THE OTHER
000022:                                                                                                  #  VEHICLE STATE VECTOR TO THE STATE VECTOR OF THIS VEHICLE, THUS INSURING THAT THE W-MATRIX AND BOTH VEHICLE
000023:                                                                                                  #  STATES CORRESPOND TO THE SAME TIME.
000024:                                                                                                  #  3) ERASABLE INITIALIZATION REQUIRED - NONE.
000025:                                                                                                  #  4) CALLING SEQUENCES AND EXIT MODES - CALLED BY ASTRONAUT REQUEST THRU DSKY V 37 E 76 E.
000026:                                                                                                  #           EXITS BY TCF ENDOFJOB.
000027:                                                                                                  #  5) OUTPUT - OTHER VEHICLE STATE VECTOR INTEGRATED TO TIG AND INCREMENTED BY DELTA V IN REF COSYS.
000028:                                                                                                  #           THE PUSHLIST CONTAINS THE MATRIX BY WHICH THE INPUT DELTA V MUST BE POST-MULTIPLIED TO CONVERT FROM LV
000029:                                                                                                  #           TO REF COSYS.
000030:                                                                                                  #  6) DEBRIS - OTHER VEHICLE STATE VECTOR.
000031:                                                                                                  #  7) SUBROUTINES CALLED - BANKCALL,GOXDSPF,CSMPREC (OR LEMPREC),ATOPCSM (OR ATOPLEM),INTSTALL,INTWAKE, PHASCHNG
000032:                                                                                                  #           INTPRET, INTEGRVS, AND MINIRECT.
000033:
000034:                                                                                                  #  8) FLAG USE - MOONFLAG,CMOONFLAG,INTYPFLG,RASFLAG, AND MARKCTR.
000035:
000036: 30,2000                                           BANK     30
000037: 13,2000                                           SETLOC   P76LOC
000038: 13,2000                                           BANK
000039:
000040: 13,2036                                           COUNT*   $$/P76
000041:
000042: 13,2036  E7,1412                                  EBANK=   TIG
000043:
000044: 13,2036           05435        P76                TC       UPFLAG
000045: 13,2037           00031                           ADRES    TRACKFLG
000046:
000047: 13,2040           32163                           CAF      V06N84                                #  FLASH LAST DELTA V,
000048: 13,2041           04555                           TC       BANKCALL                              #  AND WAIT FOR KEYBOARD ACTION.
000049: 13,2042           20624                           CADR     GOFLASH
000050: 13,2043           12155                           TCF      ENDP76
000051: 13,2044           02046                           TC       +2                                    #  PROCEED
000052: 13,2045           02040                           TC       -5                                    #  STORE DATA AND REPEAT FLASHING
000053: 13,2046           32164                           CAF      V06N84     +1                         #  FLASH VERB 06 NOUN 33, DISPLAY LAST TIG,
000054: 13,2047           04555                           TC       BANKCALL                              #  AND WAIT FOR KEYBOARD ACTION.
000055: 13,2050           20624                           CADR     GOFLASH
000056: 13,2051           12155                           TCF      ENDP76
000057: 13,2052           02054                           TC       +2
000058: 13,2053           02046                           TC       -5
000059: 13,2054           06006                           TC       INTPRET                               #  RETURN TO INTERPRETIVE CODE
000060: 13,2055           77745                           DLOAD                                          #  SET D(MPAC)=TIG IN CSEC B28
000061: 13,2056           03413                                    TIG
000062: 13,2057           34041                           STCALL   TDEC1                                 #  SET TDEC1=TIG FOR ORBITAL INTEGRATION
000063: 13,2060           27036                                    OTHPREC
000064: 13,2061           53575        COMPMAT            VLOAD    UNIT
000065: 13,2062           00001                                    RATT


000067: 13,2063           77676                           VCOMP                                          #  U(-R)
000068: 13,2064           00031                           STORE    24D                                   #  U(-R) TO 24D
000069: 13,2065           53435                           VXV      UNIT                                  #  U(-R)XV = U(VXR)
000070: 13,2066           00007                                    VATT
000071: 13,2067           00023                           STORE    18D
000072: 13,2070           53435                           VXV      UNIT                                  #  U(VXR)XU(-R) = U((RXV)XR)
000073: 13,2071           00031                                    24D
000074: 13,2072           24015                           STOVL    12D
000075: 13,2073           03540                                    DELVOV
000076: 13,2074           76505                           VXM      VSL1                                  #  V(MPAC)=DELTA V IN REFCOSYS
000077: 13,2075           00015                                    12D
000078: 13,2076           77655                           VAD
000079: 13,2077           00007                                    VATT
000080: 13,2100           00007                           STORE    6                                     #  V(PD6)=VATT + DELTA V
000081: 13,2101           77624                           CALL                                           #  PREVENT WOULD-BE USER OF ORBITAL
000082: 13,2102           27371                                    INTSTALL                              #  INTEG FROM INTERFERING WITH UPDATING
000083: 13,2103           77624                           CALL
000084: 13,2104           26165                                    P76SUB1
000085: 13,2105           53775                           VLOAD    VSR*
000086: 13,2106           00007                                    6
000087: 13,2107           57176                                    0,2
000088: 13,2110           25543                           STOVL    VCV
000089: 13,2111           00001                                    RATT
000090: 13,2112           77657                           VSR*
000091: 13,2113           57176                                    0,2
000092: 13,2114           15535                           STODL    RCV
000093: 13,2115           03413                                    TIG
000094: 13,2116           01517                           STORE    TET
000095: 13,2117           71214                           CLEAR    DLOAD
000096: 13,2120           01673                                    INTYPFLG
000097: 13,2121           01571                                    TETTHIS
000098: 13,2122           34041        INTOTHIS           STCALL   TDEC1
000099: 13,2123           27066                                    INTEGRVS
000100: 13,2124           77624                           CALL
000101: 13,2125           27371                                    INTSTALL
000102: 13,2126           77775                           VLOAD
000103: 13,2127           00017                                    RATT1
000104: 13,2130           01503                           STORE    RRECT
000105: 13,2131           15535                           STODL    RCV
000106: 13,2132           00015                                    TAT
000107: 13,2133           25517                           STOVL    TET
000108: 13,2134           00025                                    VATT1
000109: 13,2135           77624                           CALL
000110: 13,2136           23360                                    MINIRECT
000111: 13,2137           77776                           EXIT
000112: 13,2140           05301                           TC       PHASCHNG
000113: 13,2141           04024                           OCT      04024
000114:
000115: 13,2142           05435                           TC       UPFLAG
000116: 13,2143           00236                           ADRES    REINTFLG
000117:


000119: 13,2144           06006                           TC       INTPRET
000120: 13,2145           77624                           CALL
000121: 13,2146           26711                                    ATOPOTH
000122: 13,2147           77531                           SSP      EXIT
000123: 13,2150           00053                                    QPRET
000124: 13,2151           26154                                    OUT
000125: 13,2152           04555                           TC       BANKCALL                              #  PERMIT USE OF ORBITAL INTEGRATION
000126: 13,2153           27426                           CADR     INTWAKE1
000127: 13,2154           77776        OUT                EXIT
000128: 13,2155           34714        ENDP76             CAF      ZERO
000129: 13,2156           55126                           TS       MARKCTR                               #  CLEAR RR TRACKING MARK COUNTER
000130: 13,2157           55125                           TS       VHFCNT
000131:
000132: 13,2160           37716                           CAF      NEGONE
000133: 13,2161           55734                           TS       MRKBUF2                               #  INVALIDATE MARK BUFFER
000134:
000135: 13,2162           14106                           TCF      GOTOPOOH
000136:
000137: 13,2163           01524        V06N84             NV       0684
000138: 13,2164           01441                           NV       0633
000139: 13,2165           43174        P76SUB1            AXT,2    SET
000140: 13,2166           00002                                    2
000141: 13,2167           00063                                    MOONFLAG                              #  SET MEANS MOON IS SPHERE OF INFLUENCE.
000142: 13,2170           77014                           BON      AXT,2
000143: 13,2171           04303                                    CMOONFLG                              #  SET MEANS PERM CM STATE IN LUNAR SPHERE.
000144: 13,2172           00052                                    QPRET
000145: 13,2173           00000                                    0
000146: 13,2174           43414                           CLEAR    RVQ
000147: 13,2175           00263                                    MOONFLAG

End of include-file P76.agc.  Parent file is MAIN.agc


