
Source Code


000002:                                                                                                  ## Copyright:   Public domain.
000003:                                                                                                  ## Filename:    PHASE_TABLE_MAINTENANCE.agc
000004:                                                                                                  ## Purpose:     Part of the source code for Colossus build 237.
000005:                                                                                                  ##              This is for the Command Module's (CM) Apollo Guidance
000006:                                                                                                  ##              Computer (AGC), for Apollo 8.
000007:                                                                                                  ## Assembler:   yaYUL
000008:                                                                                                  ## Contact:     Jim Lawton <jim DOT lawton AT gmail DOT com>
000009:                                                                                                  ## Website:     www.ibiblio.org/apollo/index.html
000010:                                                                                                  ## Page Scans:  www.ibiblio.org/apollo/ScansForConversion/Colossus237/
000011:                                                                                                  ## Mod history: 2011-04-17 JL   Adapted from corresponding Colossus 249 file.
000012:                                                                                                  ##              2016-08-14 RSB  Added SBANK to handle addressing discrepancies.
000013:                                                                                                  ##              2017-01-01 RSB  Proofed comment text using octopus/ProoferComments,
000014:                                                                                                  ##                              and fixed errors found.
000015:                                                                                                  ##              2017-01-18 RSB  Fixed comment-text errors noted while diff'ing
000016:                                                                                                  ##                              vs Colossus 249.
000017:


000019:                                                                                                  #           SUBROUTINE TO UPDATE THE PROGRAM NUMBER DISPLAY ON THE DSKY.
000020:
000021: 43,3721                                           COUNT    02/PHASE
000022:
000023:    5243                                           BLOCK    02
000024:    4000                                           SETLOC   FFTAG1
000025:    4000                                           BANK
000026:
000027:    5243           50002        NEWMODEX           INDEX    Q                                     #  UPDATE MODREG. ENTRY FOR MODE IN FIXED.
000028:    5244           30000                           CAF      0
000029:    5245           24002                           INCR     Q
000030:
000031:    5246           55011        NEWMODEA           TS       MODREG                                #  ENTRY FOR MODE IN A.
000032:    5247           35252        MMDSPLAY           CAF      +3                                    #  DISPLAY MAJOR MODE.
000033:    5250           22006        PREBJUMP           LXCH     BBANK                                 #  PUTS BBANK IN L
000034:    5251           14577                           TCF      BANKJUMP                              #  PUTS Q INTO A
000035:    5252           20344                           CADR     SETUPDSP
000036:
000037:                                                                                                  #           RETURN TO CALLER +3 IF MODE = THAT AT CALLER +1. OTHERWISE RETURN TO CALLER +2.
000038:
000039:    5253           50002        CHECKMM            INDEX    Q
000040:    5254           40000                           CS       0
000041:    5255           61011                           AD       MODREG
000042:    5256           00006                           EXTEND
000043:    5257           16710                           BZF      Q+2
000044:    5260           16706                           TCF      Q+1                                   #  NO MATCH
000045:
000046:    5261     6711               TCQ                =        Q+2        +1
000047:
000048: 14,3751                                           BANK     14
000049: 10,2000                                           SETLOC   PHASETAB
000050: 10,2000                                           BANK
000051:
000052: 10,2344                                           COUNT    10/PHASE
000053:
000054: 10,2344           00004        SETUPDSP           INHINT
000055: 10,2345           52071                           DXCH     RUPTREG1                              #  SAVE CALLER-S RETURN 2CADR
000056: 10,2346           34371                           CAF      PRIO30                                #    EITHER A TASK OR JOB CAN COME TO
000057: 10,2347           05027                           TC       NOVAC                                 #    NEWMODEX
000058: 10,2350     1011                                  EBANK=   MODREG
000059: 10,2350           03435 60102                     2CADR    DSPMMJOB
000060: 10,2352           52071                           DXCH     RUPTREG1
000061: 10,2353           00003                           RELINT
000062: 10,2354           52006                           DXCH     Z                                     #  RETURN
000063:
000064: 10,2355  40,3435               DSPMMJOB           EQUALS   DSPMMJB
000065:
000066:
000067:    5261                                           BLOCK    02


000069:    4000                                           SETLOC   FFTAG1
000070:    4000                                           BANK
000071:


000073:                                                                                                  #  PHASCHNG IS THE MAIN WAY OF MAKING PHASE CHANGES FOR RESTARTS.  THERE ARE THREE FORMS OF PHASCHNG, KNOWN AS TYPE
000074:                                                                                                  #  A, TYPE B, AND TYPE C. THEY ARE ALL CALLED AS FOLLOWS, WHERE OCT XXXXX   CONTAINS THE PHASE INFORMATION,
000075:
000076:                                                                                                  #                                                   TC     PHASCHNG
000077:                                                                                                  #                                                   OCT    XXXXX
000078:
000079:                                                                                                  #  TYPE A IS CONCERNED WITH FIXED PHASE CHANGES, THAT IS, PHASE INFORMATIONTHAT IS STORED PERMANENTLY.  THESE
000080:                                                                                                  #  OPTIONS ARE, WHERE G STANDS FOR A GROUP AND .X FOR THE PHASE,
000081:
000082:                                                                                                  #                  G.0             INACTIVE, WILL NOT PERMIT A GROUP G RESTART
000083:                                                                                                  #                  G.1             WILL CAUSE THE LAST DISPLAY TO BE REACTIVATED, USED MAINLY IN MANNED FLIGHTS
000084:                                                                                                  #                  G.EVEN          A DOUBLE TABLE RESTART, CAN CAUSE ANY COMBINATION OF TWO JOBS, TASKS, AND/OR
000085:                                                                                                  #                                  LONGCALL TO BE RESTARTED.
000086:                                                                                                  #                  G.ODD NOT .1    A SINGLE TABLE RESTART, CAN CAUSE EITHER A JOB, TASK, OR LONGCALL RESTART
000087:
000088:                                                                                                  #  THIS INFORMATION IS PUT INTO THE OCTAL WORD AFTER TC PHASCHNG AS FOLLOWS
000089:
000090:                                                                                                  #                  TL0 00P PPP PPP GGG                                     ,
000091:
000092:                                                                                                  #  WHERE EACH LETTER OR NUMBER STANDS FOR A BIT.  THE G:S STAND FOR THE GROUP, OCTAL 1 - 7, THE P:S FOR THE PHASE,
000093:                                                                                                  #  OCTAL 0 - 127.  0:S MUST BE 0.              IF ONE WISHES TO HAVE THE TBASE OF GROUP G TO BE SET AT THIS TIME,
000094:                                                                                                  #  T IS SET TO 1, OTHERWISE IT IS SET TO 0.  SIMIARLY IF ONE WISHES TO SET LONGBASE, THEN L IS SET TO 1, OTHERWISE
000095:                                                                                                  #  IT IS SET TO 0.  SOME EXAMPLES,
000096:
000097:                                                                                                  #                                                   TC     PHASCHNG        THIS WILL CAUSE GROUP 3 TOBE SET TO 0,
000098:                                                                                                  #                                                   OCT    00003           MAKING GROUP 3 INACTIVE
000099:
000100:                                                                                                  #                                                   TC     PHASCHNG        IF A RESTART OCCURS THIS WOULD CAUSE
000101:                                                                                                  #                                                   OCT    00012           GROUP 2 TO RESTART THE LAST DISPLAY
000102:
000103:                                                                                                  #                                                   TC     PHASCHNG        THIS SETS THE TBASE OF GROUP 4 AND IN
000104:                                                                                                  #                                                   OCT    40064           CASE OF A RESTART WOULD START UP THE TWO
000105:                                                                                                  #                                                                          THINGS LOCATED IN THE DOUBLE 4.6 RESTART
000106:                                                                                                  #                                                                          LOCATION
000107:                                                                                                  #                                                   TC     PHASCHNG        THIS SETS LONGBASE AND UPON A RESTART
000108:                                                                                                  #                                                   OCT    20135           CAUSES 5.13 TO BE RESTARTED (SINCE
000109:                                                                                                  #                                                                          LONGBASE WAS SET THIS SINGLE ENTRY
000110:                                                                                                  #                                                                          SHOULD BE A LONGCALL)
000111:                                                                                                  #                                                   TC     PHASCHNG        SINCE BOTH TBASE4 AND LONGBASE ARE SET,
000112:                                                                                                  #                                                   OCT    60124           4.12 SHOULD CONTAIN BOTH A TASK AND A
000113:                                                                                                  #                                                                          LONGCALL TO BE RESTARTED
000114:
000115:                                                                                                  #  TYPE C PHASCHNG CONTAINS THE VARIABLE TYPE OF PHASCHNG INFORMATION. INSTEAD OF THE INFORMATION BEING IN A
000116:                                                                                                  #  PERMANENT FORM, ONE STORES THE DESIRED RESTART INFORMATION IN A VARIABKE LOCATION. THE BITS ARE AS FOLLOWS,
000117:
000118:                                                                                                  #                  TL0 1AD XXX CJW GGG
000119:
000120:                                                                                                  #  WHERE EACH LETTER OR NUMBER STANDS FOR A BIT.  THE G:S STAND FOR THE GROUP, OCTAL 1 - 7.  IF THE RESTART IS TO
000121:                                                                                                  #  BE BY WAITLIST, W IS SET TO 1, IF IT IS A JOB, J IS SET TO 1, IF IT IS A LONGCALL, C IS SET TO 1. ONLY ONE OF
000122:                                                                                                  #  THESE THREE BIT S MAY BE SET.  X:S ARE IGNORED  1 MUST BE 1, AND 0 MUST  BE 0.  AGAIN T STANDS FOR THE TBASE,


000124:                                                                                                  #  AND L FOR LONGBASE.  THE BITS A AND D ARE CONCERNED WITH THE VARIABLE INFORMATION. IF D IS SET TO 1, A PRIORITY
000125:                                                                                                  #  OR DELTA TIME WILL BE READ FROM THE NEXT LOCATION AFTER THE OCTAL INFORMATION, IF THIS IS TO BE INDIRECT, THAT
000126:                                                                                                  #  IS, THE NAME OF A LOCATION COMT+INING THE INFORMATION (DELTA TIME ONLY), THEN THIS IS GIVEN AS THE -GENADR OF
000127:                                                                                                  #  THAT LOCATION WHICH CONTAINS THE DELTA TIME.  IF THE OLD PRIORITY OR DELTA TIME IS TO BE USED, THAT WHICH IS
000128:                                                                                                  #  ALREADY IN THE VARIABLE STORAGE, THEN D IS SET TO 0. NEXT THE A BIT IS USED.  IF IT IS SET TO 0, THE ADDRESS
000129:                                                                                                  #  THAT WOULD BE RESTARTED DURING A RESTART IS THE NEXT LOCATION AFTER THE  PHASE INFORMATION, THAT IS, EITHER
000130:                                                                                                  #  (TC PHASCHNG) +2 OR +3, DEPENDING ON WHETHER D HAD BEEN SET OR NOT.  IF A IS SET TO 1, THEN THE ADDRESS THAT
000131:                                                                                                  #  WOULD BE RESTARTED IS THE 2CADR THAT IS READ FROM THE NEXT TWO LOCATIONS.  EXAMPLES,
000132:
000133:                                                                                                  #                                          AD       TC     PHASCHNG        THIS WOULD CAUSE LOCATION AD +3 TO BE
000134:                                                                                                  #                                          AD+1     OCT    05023           RESTARTED BY GROUP THREE WITHA PRIORITY
000135:                                                                                                  #                                          AD+2     OCT    23000           OF 23.  NOTE UPON RETURNING IT WOULD
000136:                                                                                                  #                                          AD+3                            ALSO GO TO AD+3
000137:
000138:                                                                                                  #                                          AD       TC     PHASCHNG        GROUP  1 WOULD CAUSE CAUSE CALLCALL TO
000139:                                                                                                  #                                          AD+1     OCT    27441           BE STARTED AS A LONGCALL FROM THE TIME
000140:                                                                                                  #                                          AD+2    -GENADR DELTIME         STORED IN LONGBASE (LONGBASE WAS SET) BY
000141:                                                                                                  #                                          AD+3     2CADR  CALLCALL        A DELTATIME STORED IN DELTIME.  THE
000142:                                                                                                  #                                          AD+4                            BBCON OF THE 2CADR SHOULD CONTAIN THE E
000143:                                                                                                  #                                          AD+5                            BANK OF DELTIME. PHASCHNG RETURNS TO
000144:                                                                                                  #                                                                          LOCATION AD+5
000145:
000146:                                                                                                  #  NOTE THAT IF A VARIABLE PRIORITY IS GIVEN FOR A JOB, THE JOB WILL BE RESTARTED AS A NOVAC IF THE PRIORITY IS
000147:                                                                                                  #  NEGATIVE, AS A FINDVAC IF THE PRIORITY IS POSITIVE.
000148:
000149:
000150:                                                                                                  #  TYPE B PHASCHNG IS A COMBINATION OF VARIABLE AND FIXED PHASE CHANGES. IT WILL START UP A JOB AS INDICATED
000151:                                                                                                  #  BELOW AND ALSO START UP ONE FIXED RESTART, THAT IS EITHER AN G.1 OR  A G.ODD OR THE FIRST ENTRY OF G.EVEN
000152:                                                                                                  #  DOUBLE ENTRY.  THE BIT INFORMATION IS AS FOLLOWS,
000153:
000154:                                                                                                  #                  TL1 DAP PPP PPP GGG
000155:
000156:                                                                                                  #  WHERE EACH LETTER OR NUMBER STANDS FOR A BIT.  THE G:S STAND FOR THE GROUP, OCTAL 1 - 7. THE P:S FOR THE FIXED
000157:                                                                                                  #  PHASE INFORMATION, OCTAL 0 - 127. 1 MUST BE 1.  AND AGAIN T STANDS FOR THE TBASE AND L FOR LONGBASE. D THIS
000158:                                                                                                  #  TIME STANDS ONLY FOR PRIORITY SINCE THIS WILL BE CONSIDERED A JOB, AND IT MUST BE GIVEN DIRECTLY IF GIVEN.
000159:                                                                                                  #  AGAIN A STANDS FOR THE ADDRESS OF THE LOCATION TO BE RESTARTED, 1 IF THE 2CADR IS GIVEN , OR 0 IF IT IS TO BE
000160:                                                                                                  #  THE NEXT LOCATION.(THE RETURN LOCATION OF PHASCHNG) EXAMPLES,
000161:
000162:                                                                                                  #                                          AD       TC     PHASCHNG        TBASE IS SET AND ARESTART CAUSE GROUP 3
000163:                                                                                                  #                                          AD+1     OCT    56043           TO START THE JOB AJOBAJOB WITH PRIORITY
000164:                                                                                                  #                                          AD+2     OCT    31000           31 AND THE FIRST ENTRY OF 3.4SPOT(WE CAN
000165:                                                                                                  #                                          AD+3     2CADR  AJOBAJOB        ASSUME IT IS A TASK SINCE WE SET TBASE3)
000166:                                                                                                  #                                          AD+4                            UPON RETURN FROM PHASCHNG CONTROL WOULD
000167:                                                                                                  #                                          AD+5                            GO TO AD+5
000168:
000169:                                                                                                  #                                          AD       TC     PHASCHNG        UPON A RESTART THE LAST DISPLAY WOULD BE
000170:                                                                                                  #                                          AD+1     OCT    10015           RESTARTED AND A JOB WITH THE PREVIOUSLY
000171:                                                                                                  #                                          AD+2                            STORED PRIORITY WOULD BE BEGUN AT AD+2
000172:                                                                                                  #                                                                          BY MEANS OF GROUP 5
000173:


000175:                                                                                                  #  THE NOVAC-FINDVAC CHOICE FOR JOBS HOLDS HERE ALSO - NEGATIVE PRIORITY CAUSES A NOVAC CALL, POSITIVE A FINDVAC.
000176:
000177:                                                                                                  #  SUMMARY OF BITS
000178:
000179:                                                                                                  #  TYPE A          TL0 00P PPP PPP GGG
000180:
000181:                                                                                                  #  TYPE B          TL1 DAP PPP PPP GGG
000182:
000183:                                                                                                  #  TYPE C          TL0 1AD XXX CJW GGG
000184:


000186:                                                                                                  #  2PHSCHNG IS USED WHEN ONE WISHES TO START UP A GROUP OR CHANGE A GROUP WHILE UNDER THE CONTROL OF A DIFFERENT
000187:                                                                                                  #  GROUP. FOR EXAMPLE, CHANGE THE PHASE OF GROUP 3 WHILE THE PORTION OF THE PROGRAM IS UNDER GROUP 5. ALL 2PHSCHNG
000188:                                                                                                  #  CALLS ARE MADE IN THE FOLLOWING MANNER,
000189:
000190:                                                                                                  #                                                   TC     2PHSCHNG
000191:                                                                                                  #                                                   OCT    XXXXX
000192:                                                                                                  #                                                   OCT    YYYYY
000193:
000194:                                                                                                  #  WHERE OCT XXXXX MUST BE OF TYPE A AND OCT YYYYY MAY BE OF EITHER TYPE A OR TYPE B OR TYPEC.  THERE IS ONE
000195:                                                                                                  #  DIFFERENCE --- NOTE- IF LONGBASE IS TO BE SET THIS INFORMATION IS GIVEN IN THE OCT YYYYY INFORMATION, IT WILL
000196:                                                                                                  #  BE DISREGARDED IF GIVEN WITH THE OCT XXXXX INFORMATION. A COUPLE OF EXAMPLES MAY HELP,
000197:
000198:                                                                                                  #                                          AD       TC     2PHSCHNG        SET TBASE3 AND IF A RESTART OCCURS START
000199:                                                                                                  #                                          AD+1     OCT    40083           THE TWO ENTRIES IN 3.8 TABLE LOCATION
000200:                                                                                                  #                                          AD+2     OCT    05025           THIS IS OF TYPE C, SET THE JOB TO BE
000201:                                                                                                  #                                          AD+3     OCT    18000           TO BE LOCATION AD+4, WITH A PRIORITY 18,
000202:                                                                                                  #                                          AD+4                            FOR GROUP 5 PHASE INFORMATION
000203:
000204:    5261                                           COUNT    02/PHASE
000205:
000206:    5261           00004        2PHSCHNG           INHINT                                         #  THE ENTRY FOR A DOUBLE PHASE CHANGE
000207:    5262           50002                           NDX      Q
000208:    5263           30000                           CA       0
000209:    5264           24002                           INCR     Q
000210:    5265           54072                           TS       TEMPP2
000211:
000212:    5266           74716                           MASK     OCT7
000213:    5267           60000                           DOUBLE
000214:    5270           54071                           TS       TEMPG2
000215:
000216:    5271           30072                           CA       TEMPP2
000217:    5272           74765                           MASK     OCT17770                              #  NEED ONLY 1770, BUT WHY GET A NEW CONST.
000218:    5273           00006                           EXTEND
000219:    5274           74677                           MP       BIT12
000220:    5275           56072                           XCH      TEMPP2
000221:
000222:    5276           74674                           MASK     BIT15
000223:    5277           54066                           TS       TEMPSW2                               #  INDICATES WHETHER TO SET TBASE OR NOT
000224:
000225:    5300           15304                           TCF      PHASCHNG   +3
000226:
000227:
000228:    5301           00004        PHASCHNG           INHINT
000229:    5302           34712                           CA       ONE                                   #  INDICATESWE CAME FROM A PHASCHNG ENTRY
000230:    5303           54066                           TS       TEMPSW2
000231:
000232:    5304           50002                           NDX      Q
000233:    5305           30000                           CA       0
000234:    5306           24002                           INCR     Q
000235:    5307           54065                           TS       TEMPSW


000237:    5310           00006                           EXTEND
000238:    5311           35314                           DCA      ADRPCHN2                              #  OFF TO SWITCHED BANK
000239:    5312           52006                           DTCB
000240:


000242:    5313  40,2000                                  SBANK=   PINSUPER
000243:    5313  E3,1400                                  EBANK=   LST1
000244:    5313           02355 20103  ADRPCHN2           2CADR    PHSCHNG2
000245:
000246:
000247:    5315           22073        ONEORTWO           LXCH     TEMPBBCN
000248:    5316           22006                           LXCH     BBANK
000249:    5317           22073                           LXCH     TEMPBBCN
000250:
000251:    5320           74761                           MASK     OCT14000                              #  SEE WHAT KIND OF PHASE CHANGE IT IS
000252:    5321           10000                           CCS      A
000253:    5322           15363                           TCF      CHECKB                                #   IT IS OF TYPE :B:
000254:
000255:    5323           30062                           CA       TEMPP
000256:    5324           74704                           MASK     BIT7
000257:    5325           10000                           CCS      A                                     #   SHALL WE USE THE OLD PRIORITY
000258:    5326           15350                           TCF      GETPRIO                               #   NO GET A NEW PRIORITY (OR DELTA T)
000259:
000260:    5327           50061        OLDPRIO            NDX      TEMPG                                 #   USE THE OLD PRIORITY (OR DELTA T)
000261:    5330           31052                           CA       PHSPRDT1   -2
000262:    5331           54070                           TS       TEMPPR
000263:
000264:    5332           30062        CON1               CA       TEMPP                                 #  SEE IF A 2CADR IS GIVEN
000265:    5333           74703                           MASK     BIT8
000266:    5334           10000                           CCS      A
000267:    5335           15354                           TCF      GETNEWNM
000268:
000269:    5336           30002                           CA       Q
000270:    5337           54063                           TS       TEMPNM
000271:    5340           30006                           CA       BB
000272:    5341           00006                           EXTEND                                         #  PICK UP USERS SUPERBANK
000273:    5342           04007                           ROR      SUPERBNK
000274:    5343           54064                           TS       TEMPBB
000275:
000276:    5344           35347        TOCON2             CA       CON2ADR                               #  BACK TO SWITCHED BANK
000277:    5345           22073                           LXCH     TEMPBBCN
000278:    5346           52006                           DTCB
000279:
000280:    5347           02443        CON2ADR            GENADR   CON2
000281:
000282:    5350           50002        GETPRIO            NDX      Q                                     #  DON:T CARE IF DIRECT OR INDIRECT
000283:    5351           30000                           CA       0                                     #  LEAVE THAT DECISION TO RESTARTS
000284:    5352           24002                           INCR     Q                                     #  OBTAIN RETURN ADDRESS
000285:    5353           15331                           TCF      CON1       -1
000286:
000287:    5354           00006        GETNEWNM           EXTEND


000289:    5355           50002                           INDEX    Q
000290:    5356           30001                           DCA      0
000291:    5357           52064                           DXCH     TEMPNM
000292:    5360           34711                           CA       TWO
000293:    5361           26002                           ADS      Q                                     #  OBTAIN RETURN ADDRESS
000294:
000295:    5362           15344                           TCF      TOCON2
000296:
000297:    5363     4761               OCT14000           EQUALS   PRIO14
000298:    5363     0061               TEMPG              EQUALS   ITEMP1
000299:    5363     0062               TEMPP              EQUALS   ITEMP2
000300:    5363     0063               TEMPNM             EQUALS   ITEMP3
000301:    5363     0064               TEMPBB             EQUALS   ITEMP4
000302:    5363     0065               TEMPSW             EQUALS   ITEMP5
000303:    5363     0066               TEMPSW2            EQUALS   ITEMP6
000304:    5363     0070               TEMPPR             EQUALS   RUPTREG1
000305:    5363     0071               TEMPG2             EQUALS   RUPTREG2
000306:    5363     0072               TEMPP2             EQUALS   RUPTREG3
000307:
000308:    5363     0073               TEMPBBCN           EQUALS   RUPTREG4
000309:    5363  0000006               BB                 EQUALS   BBANK
000310:
000311:
000312: 14,3751                                           BANK     14
000313: 10,2000                                           SETLOC   PHASETAB
000314: 10,2000                                           BANK
000315:
000316: 10,2355  E3,1436                                  EBANK=   PHSNAME1
000317: 10,2355                                           COUNT    10/PHASE
000318:
000319: 10,2355           22073        PHSCHNG2           LXCH     TEMPBBCN
000320: 10,2356           30065                           CA       TEMPSW
000321: 10,2357           74716                           MASK     OCT7
000322: 10,2360           60000                           DOUBLE
000323: 10,2361           54061                           TS       TEMPG
000324:
000325: 10,2362           30065                           CA       TEMPSW
000326: 10,2363           74765                           MASK     OCT17770
000327: 10,2364           00006                           EXTEND
000328: 10,2365           74677                           MP       BIT12
000329: 10,2366           54062                           TS       TEMPP
000330:
000331: 10,2367           30065                           CA       TEMPSW
000332: 10,2370           74105                           MASK     OCT60000
000333: 10,2371           56065                           XCH      TEMPSW
000334: 10,2372           74761                           MASK     OCT14000
000335: 10,2373           10000                           CCS      A
000336: 10,2374           15315                           TCF      ONEORTWO
000337:


000339: 10,2375           30062                           CA       TEMPP                                 #  START STORING THE PHASE INFORMATION
000340: 10,2376           50061                           NDX      TEMPG
000341: 10,2377           54751                           TS       PHASE1     -2
000342:
000343: 10,2400           10066        BELOW1             CCS      TEMPSW2                               #  IS IT A PHASCHNG OR A 2PHSCHNG
000344: 10,2401           12415                           TCF      BELOW2                                #  IT:S A PHASCHNG
000345:
000346: 10,2402           12403                           TCF      +1                                    #  IT:S A 2PHSCHNG
000347: 10,2403           40072                           CS       TEMPP2
000348: 10,2404           22072                           LXCH     TEMPP2
000349: 10,2405           50071                           NDX      TEMPG2
000350: 10,2406           52751                           DXCH     -PHASE1    -2
000351:
000352: 10,2407           10066                           CCS      TEMPSW2
000353: 10,2410           12411                           NOOP                                           #  CAN:T GET HERE
000354: 10,2411           12415                           TCF      BELOW2
000355:
000356: 10,2412           40025                           CS       TIME1
000357: 10,2413           50071                           NDX      TEMPG2
000358: 10,2414           55051                           TS       TBASE1     -2
000359:
000360: 10,2415           10065        BELOW2             CCS      TEMPSW                                #  SEE IF WE SHOULD SET TBASE OR LONGBASE
000361: 10,2416           12431                           TCF      BELOW3                                #  SET LONGBASE ONLY
000362: 10,2417           12434                           TCF      BELOW4                                #  SET NEITHER
000363:
000364: 10,2420           40025                           CS       TIME1                                 #  SET TBASE TO BEGIN WITH
000365: 10,2421           50061                           NDX      TEMPG
000366: 10,2422           55051                           TS       TBASE1     -2
000367:
000368: 10,2423           30065                           CA       TEMPSW                                #   SHALL WE NOW SET LONGBASE
000369: 10,2424           62427                           AD       BIT14COM
000370: 10,2425           10000                           CCS      A
000371: 10,2426           12427                           NOOP                                           #  ***** CANT GET HERE *****
000372: 10,2427           17777        BIT14COM           OCT      17777                                 #  ***** CANT GET HERE *****
000373: 10,2430           12434                           TCF      BELOW4                                #  NO WE NEED ONLY SET TBASE
000374:
000375: 10,2431           00006        BELOW3             EXTEND                                         #  SET LONGBASE
000376: 10,2432           30025                           DCA      TIME2
000377: 10,2433           53136                           DXCH     LONGBASE
000378:
000379: 10,2434           40062        BELOW4             CS       TEMPP                                 #  AND STORE THE FINAL PART OF THE PHASE
000380: 10,2435           50061                           NDX      TEMPG
000381: 10,2436           54750                           TS       -PHASE1    -2
000382:
000383: 10,2437           30002                           CA       Q
000384: 10,2440           22073                           LXCH     TEMPBBCN
000385: 10,2441           00003                           RELINT
000386: 10,2442           52006                           DTCB
000387: 10,2443           22073        CON2               LXCH     TEMPBBCN
000388:


000390: 10,2444           30062                           CA       TEMPP
000391: 10,2445           50061                           NDX      TEMPG
000392: 10,2446           54751                           TS       PHASE1     -2
000393:
000394: 10,2447           30070                           CA       TEMPPR
000395: 10,2450           50061                           NDX      TEMPG
000396: 10,2451           55052                           TS       PHSPRDT1   -2
000397:
000398: 10,2452           00006                           EXTEND
000399: 10,2453           30064                           DCA      TEMPNM
000400: 10,2454           50061                           NDX      TEMPG
000401: 10,2455           53435                           DXCH     PHSNAME1   -2
000402:
000403: 10,2456           12400                           TCF      BELOW1
000404:
000405:    5363                                           BLOCK    02
000406:    4000                                           SETLOC   FFTAG1
000407:    4000                                           BANK
000408:
000409:    5363                                           COUNT    02/PHASE
000410:
000411:    5363           74677        CHECKB             MASK     BIT12                                 #  SINCE THIS IS OF TYPE B, THIS BIT SHOULD
000412:    5364           10000                           CCS      A                                     #   BE HERE IF WE ARE TO GET A NEW PRIORITY
000413:    5365           15350                           TCF      GETPRIO                               #  IT IS, SO GET NEW PRIORITY
000414:
000415:    5366           15327                           TCF      OLDPRIO                               #  IT ISN:T, USE THE OLD PRIORITY

End of include-file PHASE_TABLE_MAINTENANCE.agc.  Parent file is MAIN.agc


