
Source Code


000002:                                                                                                  ## Copyright:    Public domain.
000003:                                                                                                  ## Filename:     PHASE_TABLE_MAINTENANCE.agc
000004:                                                                                                  ## Purpose:      Part of the source code for Colossus build 237.
000005:                                                                                                  ##               This is for the Command Module's (CM) Apollo Guidance
000006:                                                                                                  ##               Computer (AGC), we believe for Apollo 8.
000007:                                                                                                  ## Assembler:    yaYUL
000008:                                                                                                  ## Contact:      Jim Lawton <jim DOT lawton AT gmail DOT com>
000009:                                                                                                  ## Website:      www.ibiblio.org/apollo/index.html
000010:                                                                                                  ## Page Scans:   www.ibiblio.org/apollo/ScansForConversion/Colossus237/
000011:                                                                                                  ## Mod history:  2011-04-17 JL  Adapted from corresponding Colossus 249 file.
000012:                                                                                                  ##               2016-08-14 RSB Added SBANK to handle addressing discrepancies.
000013:


000015:                                                                                                  #           SUBROUTINE TO UPDATE THE PROGRAM NUMBER DISPLAY ON THE DSKY.
000016:
000017: 43,3721                                           COUNT    02/PHASE
000018:
000019:    5243                                           BLOCK    02
000020:    4000                                           SETLOC   FFTAG1
000021:    4000                                           BANK
000022:
000023:    5243           50002        NEWMODEX           INDEX    Q                                     #  UPDATE MODREG. ENTRY FOR MODE IN FIXED.
000024:    5244           30000                           CAF      0
000025:    5245           24002                           INCR     Q
000026:
000027:    5246           55011        NEWMODEA           TS       MODREG                                #  ENTRY FOR MODE IN A.
000028:    5247           35252        MMDSPLAY           CAF      +3                                    #  DISPLAY MAJOR MODE.
000029:    5250           22006        PREBJUMP           LXCH     BBANK                                 #  PUTS BBANK IN L
000030:    5251           14577                           TCF      BANKJUMP                              #  PUTS Q INTO A
000031:    5252           20344                           CADR     SETUPDSP
000032:
000033:                                                                                                  #           RETURN TO CALLER +3 IF MODE = THAT AT CALLER +1. OTHERWISE RETURN TO CALLER +2.
000034:
000035:    5253           50002        CHECKMM            INDEX    Q
000036:    5254           40000                           CS       0
000037:    5255           61011                           AD       MODREG
000038:    5256           00006                           EXTEND
000039:    5257           16710                           BZF      Q+2
000040:    5260           16706                           TCF      Q+1                                   #  NO MATCH
000041:
000042:    5261     6711               TCQ                =        Q+2        +1
000043:
000044: 14,3751                                           BANK     14
000045: 10,2000                                           SETLOC   PHASETAB
000046: 10,2000                                           BANK
000047:
000048: 10,2344                                           COUNT    10/PHASE
000049:
000050: 10,2344           00004        SETUPDSP           INHINT
000051: 10,2345           52071                           DXCH     RUPTREG1                              #  SAVE CALLER-S RETURN 2CADR
000052: 10,2346           34371                           CAF      PRIO30                                #    EITHER A TASK OR JOB CAN COME TO
000053: 10,2347           05027                           TC       NOVAC                                 #    NEWMODEX
000054: 10,2350     1011                                  EBANK=   MODREG
000055: 10,2350           03435 60102                     2CADR    DSPMMJOB
000056: 10,2352           52071                           DXCH     RUPTREG1
000057: 10,2353           00003                           RELINT
000058: 10,2354           52006                           DXCH     Z                                     #  RETURN
000059:
000060: 10,2355  40,3435               DSPMMJOB           EQUALS   DSPMMJB
000061:
000062:
000063:    5261                                           BLOCK    02


000065:    4000                                           SETLOC   FFTAG1
000066:    4000                                           BANK
000067:


000069:                                                                                                  #  PHASCHNG IS THE MAIN WAY OF MAKING PHASE CHANGES FOR RESTARTS.  THERE ARE THREE FORMS OF PHASCHNG, KNOWN AS TYPE
000070:                                                                                                  #  A, TYPE B, AND TYPE C. THEY ARE ALL CALLED AS FOLLOWS, WHERE OCT XXXXX   CONTAINS THE PHASE INFORMATION,
000071:
000072:                                                                                                  #                                                   TC     PHASCHNG
000073:                                                                                                  #                                                   OCT    XXXXX
000074:
000075:                                                                                                  #  TYPE A IS CONCERNED WITH FIXED PHASE CHANGES, THAT IS, PHASE INFORMATIONTHAT IS STORED PERMANENTLY.  THESE
000076:                                                                                                  #  OPTIONS ARE, WHERE G STANDS FOR A GROUP AND .X FOR THE PHASE,
000077:
000078:                                                                                                  #                  G.0             INACTIVE, WILL NOT PERMIT A GROUP G RESTART
000079:                                                                                                  #                  G.1             WILL CAUSE THE LAST DISPLAY TO BE REACTIVATED, USED MAINLY IN MANNED FLIGHTS
000080:                                                                                                  #                  G.EVEN          A DOUBLE TABLE RESTART, CAN CAUSE ANY COMBINATION OF TWO JOBS, TASKS, AND/OR
000081:                                                                                                  #                                  LONGCALL TO BE RESTARTED.
000082:                                                                                                  #                  G.ODD NOT .1    A SINGLE TABLE RESTART, CAN CAUSE EITHER A JOB, TASK, OR LONGCALL RESTART
000083:
000084:                                                                                                  #  THIS INFORMATION IS PUT INTO THE OCTAL WORD AFTER TC PHASCHNG AS FOLLOWS
000085:
000086:                                                                                                  #                  TL0 00P PPP PPP GGG
000087:
000088:                                                                                                  #  WHERE EACH LETTER OR NUMBER STANTS FOR A BIT.  THE G:S STAND FOR THE GROUP, OCTAL 1 - 7, THE P:S FOR THE PHASE,
000089:                                                                                                  #  OCTAL 0 - 127.  0:S MUST BE 0.              IF ONE WISHES TO HAVE THE TBASE OF GROUP G TO BE SET AT THIS TIME,
000090:                                                                                                  #  T IS SET TO 1, OTHERWISE IT IS SET TO 0.  SIMIARLY IF ONE WISHES TO SET LONGBASE, THEN L IS SET TO 1, OTHERWISE
000091:                                                                                                  #  IT IS SET TO 0.  SOME EXAMLES,
000092:
000093:                                                                                                  #                                                   TC     PHASCHNG        THIS WILL CAUSE GROUP 3 TOBE SET TO 0,
000094:                                                                                                  #                                                   OCT    00003           MAKING GROUP 3 INACTIVE
000095:
000096:                                                                                                  #                                                   TC     PHASCHNG        IF A RESTART OCCURS THIS WOULD CAUSE
000097:                                                                                                  #                                                   OCT    00012           GROUP 2 TO RESTART THE LAST DISPLAY
000098:
000099:                                                                                                  #                                                   TC     PHASCHNG        THIS SETS THE TBASE OF GROUP 4 AND IN
000100:                                                                                                  #                                                   OCT    40064           CASE OF A RESTART WOULD START UP THE TWO
000101:                                                                                                  #                                                                          THINGS LOCATED IN THE DOUBLE 4.6 RESTART
000102:                                                                                                  #                                                                          LOCATION
000103:                                                                                                  #                                                   TC     PHASCHNG        THIS SETS LONGBASE AND UPON A RESTART
000104:                                                                                                  #                                                   OCT    20135           CAUSES 5.13 TO BE RESTARTED (SINCE
000105:                                                                                                  #                                                                          LONGBASE WAS SET THIS SINGLE ENTRY
000106:                                                                                                  #                                                                          SHOULD BE A LONGCALL)
000107:                                                                                                  #                                                   TC     PHASCHNG        SINCE BOTH TBASE4 AND LONGBASE ARE SET,
000108:                                                                                                  #                                                   OCT    60124           4.12 SHOULD CONTAIN BOTH A TASK AND A
000109:                                                                                                  #                                                                          LONGCALL TO BE RESTARTED
000110:
000111:                                                                                                  #  TYPE C PHASCHNG CONTAINS THE VARIABLE TYPE OF PHASCHNG INFORMATION. INSTEAD OF THE INFORMATION BEING IN A
000112:                                                                                                  #  PERMANENT FORM, ONE STORES THE DESIRED RESTART INFORMATION IN A VARIABKE LOCATION. THE BITS ARE AS FOLLOWS,
000113:
000114:                                                                                                  #                  TL0 1AD XXX CJW GGG
000115:
000116:                                                                                                  #  WHERE EACH LETTER OR NUMBER STANDS FOR A BIT.  THE G:S STAND FOR THE GROUP, OCTAL 1 - 7.  IF THE RESTART IS TO
000117:                                                                                                  #  BE BY WAITLIST, W IS SET TO 1, IF IT IS A JOB, J IS SET TO 1, IF IT IS A LONGCALL, C IS SET TO 1. ONLY ONE OF
000118:                                                                                                  #  THESE THREE BIT S MAY BE SET.  X:S ARE IGNORED  1 MUST BE 1, AND 0 MUST  BE 0.  AGAIN T STANDS FOR THE TBASE,


000120:                                                                                                  #  AND L FOR LONGBASE.  THE BITS A AND D ARE CONCERNED WITH THE VARIABLE INFORMATION. IF D IS SET TO 1, A PRIORITY
000121:                                                                                                  #  OR DELTA TIME WILL BE READ FROM THE NEXT LOCATION AFTER THE OCTAL INFORMATION, IF THIS IS TO BE INDIRECT, THAT
000122:                                                                                                  #  IS, THE NAME OF A LOCATION CONT+INING THE INFORMATION (DELTA TIME ONLY), THEN THIS IS GIVEN AS THE -GENADR OF
000123:                                                                                                  #  THAT LOCATION WHICH CONTAINS THE DELTA TIME.  IF THE OLD PRIORITY OR DELTA TIME IS TO BE USED, THAT WHICH IS
000124:                                                                                                  #  ALREADY IN THE VARIABLE STORAGE, THEN D IS SET TO 0. NEXT THE A BIT IS USED.  IF IT IS SET TO 0, THE ADDRESS
000125:                                                                                                  #  THAT WOULD BE RESTARTED DURING A RESTART IS THE NEXT LOCATION AFTER THE  PHASE INFORMATION, THAT IS, EITHER
000126:                                                                                                  #  (TC PHASCHNG) +2 OR +3, DEPENDING ON WHETHER D HAD BEEN SET OR NOT.  IF A IS SET TO 1, THEN THE ADDRESS THAT
000127:                                                                                                  #  WOULD BE RESTARTED IS THE 2CADR THAT IS READ FROM THE NEXT TWO LOCATIONS.  EXAMPLES,
000128:
000129:                                                                                                  #                                          AD       TC     PHASCHNG        THIS WOULD CAUSE LOCATION AD +3 TO BE
000130:                                                                                                  #                                          AD+1     OCT    05023           RESTARTED BY GROUP THREE WITHA PRIORITY
000131:                                                                                                  #                                          AD+2     OCT    23000           OF 23.  NOTE UPON RETURNING IT WOULD
000132:                                                                                                  #                                          AD+3                            ALSO GO TO AD+3
000133:
000134:                                                                                                  #                                          AD       TC     PHASCHNG        GROUP  1 WOULD CAUSE CAUSE CALLCALL TO
000135:                                                                                                  #                                          AD+1     OCT    27441           BE STARTED AS A LONGCALL FROM THE TIME
000136:                                                                                                  #                                          AD+2    -GENADR DELTIME         STORED IN LONGBASE (LONGBASE WAS SET) BY
000137:                                                                                                  #                                          AD+3     2CADR  CALLCALL        A DELTATIME STORED IN DELTIME.  THE
000138:                                                                                                  #                                          AD+4                            BBCON OF THE 2CADR SHOULD CONTAIN THE E
000139:                                                                                                  #                                          AD+5                            BANK OF DELTIME. PHASCHNG RETURNS TO
000140:                                                                                                  #                                                                          LOCATION AD+5
000141:
000142:                                                                                                  #  NOTE THAT IF A VARIABLE PRIORITY IS GIVEN FOR A JOB, THE JOB WILL BE RESTARTED AS A NOVAC IF THE PRIORITY IS
000143:                                                                                                  #  NEGATIVE, AS A FINDVAC IF THE PRIORITY IS POSITIVE.
000144:
000145:
000146:                                                                                                  #  TYPE B PHASCHNG IS A COMBINATION OF VARIABLE AND FIXED PHASE CHANGES. IT WILL START UP A JOB AS INDICATED
000147:                                                                                                  #  BELOW AND ALSO START UP ONE FIXED RESTART, THAT IS EITHER AN G.1 OR  A G.ODD OR THE FIRST ENTRY OF G.EVEN
000148:                                                                                                  #  DOUBLE ENTRY.  THE BIT INFORMATION IS AS FOLLOWS,
000149:
000150:                                                                                                  #                  TL1 DAP PPP PPP GGG
000151:
000152:                                                                                                  #  WHERE EACH LETTER OR NUMBER STANDS FOR A BIT.  THE G:S STAND FOR THE GROUP, OCTAL 1 - 7. THE P:S FOR THE FIXED
000153:                                                                                                  #  PHASE INFORMATION, OCTAL 0 - 127. 1 MUST BE 1.  AND AGAIN T STANDS FOR THE TBASE AND L FOR LONGBASE. D THIS
000154:                                                                                                  #  TIME STANDS ONLY FOR PRIORITY SINCE THIS WILL BE CONSIDERED A JOB, AND IT MUST BE GIVEN DIRECTLY IF GIVEN.
000155:                                                                                                  #  AGAIN A STANDS FOR THE ADDRESS OF THE LOCATION TO BE RESTARTED, 1 IF THE 2CADR IS GIVEN , OR 0 IF IT IS TO BE
000156:                                                                                                  #  THE NEXT LOCATION.(THE RETURN LOCATION OF PHASCHNG) EXAMPLES,
000157:
000158:                                                                                                  #                                          AD       TC     PHASCHNG        TBASE IS SET AND ARESTART CAUSE GROUP 3
000159:                                                                                                  #                                          AD+1     OCT    56043           TO START THE JOB AJOBAJOB WITH PRIORITY
000160:                                                                                                  #                                          AD+2     OCT    31000           31 AND THE FIRST ENTRY OF 3.4SPOT(WE CAN
000161:                                                                                                  #                                          AD+3     2CADR  AJOBAJOB        ASSUME IT IS A TASK SINCE WE SET TBASE3)
000162:                                                                                                  #                                          AD+4                            UPON RETURN FROM PHASCHNG CONTROL WOULD
000163:                                                                                                  #                                          AD+5                            GO TO AD+5
000164:
000165:                                                                                                  #                                          AD       TC     PHASCHNG        UPON A RESTART THE LAST DISPLAY WOULD BE
000166:                                                                                                  #                                          AD+1     OCT    10015           RESTARTED AND A JOB WITH THE PREVIOUSLY
000167:                                                                                                  #                                          AD+2                            STORED PRIORITY WOULD BE BEGUN AT AD+2
000168:                                                                                                  #                                                                          BY MEANS OF GROUP 5
000169:


000171:                                                                                                  #  THE NOVAC-FINDVAC CHOICE FOR JOBS HOLDS HERE ALSO - NEGATIVE PRIORITY CAUSES A NOVAC CALL, POSITIVE A FINDVAC.
000172:
000173:                                                                                                  #  SUMMARY OF BITS
000174:
000175:                                                                                                  #  TYPE A          TL0 00P PPP PPP GGG
000176:
000177:                                                                                                  #  TYPE B          TL1 DAP PPP PPP GGG
000178:
000179:                                                                                                  #  TYPE C          TL0 1AD XXX CJW GGG
000180:


000182:                                                                                                  #  2PHSCHNG IS USED WHEN ONE WISHES TO START UP A GROUP OR CHANGE A GROUP WHILE UNDER THE CONTROL OF A DIFFERENT
000183:                                                                                                  #  GROUP. FOR EXAMPLE, CHANGE THE PHASE OF GROUP 3 WHILE THE PORTION OF THE PROGRAM IS UNDER GROUP 5. ALL 2PHSCHNG
000184:                                                                                                  #  CALLS ARE MADE IN THE FOLLOWING MANNER,
000185:
000186:                                                                                                  #                                                   TC     2PHSCHNG
000187:                                                                                                  #                                                   OCT    XXXXX
000188:                                                                                                  #                                                   OCT    YYYYY
000189:
000190:                                                                                                  #  WHERE OCT XXXXX MUST BE OF TYPE A AND OCT YYYYY MAY BE OF EITHER TYPE A OR TYPE B OR TYPEC.  THERE IS ONE
000191:                                                                                                  #  DIFFERENCE --- NOTE- IF LONGBASE IS TO BE SET THIS INFORMATION IS GIVEN IN THE OCT YYYYY INFORMATION, IT WILL
000192:                                                                                                  #  BE DISREGARDED IF GIVEN WITH THE OCT XXXXX INFORMATION. A COUPLE OF EXAMPLES MAY HELP,
000193:
000194:                                                                                                  #                                          AD       TC     2PHACHNG        SET TBASE3 AND IF A RESTART OCCURS START
000195:                                                                                                  #                                          AD+1     OCT    40083           THE TWO ENTRIES IN 3.8 TABLE LOCATION
000196:                                                                                                  #                                          AD+2     OCT    05025           THIS IS OF TYPE C, SET THE JOB TO BE
000197:                                                                                                  #                                          AD+3     OCT    18000           TO BE LOCATION AD+4, WITH A PRIORITY 18,
000198:                                                                                                  #                                          AD+4                            FOR GROUP 5 PHASE INFORMATION.
000199:
000200:    5261                                           COUNT    02/PHASE
000201:
000202:    5261           00004        2PHSCHNG           INHINT                                         #  THE ENTRY FOR A DOUBLE PHASE CHANGE
000203:    5262           50002                           NDX      Q
000204:    5263           30000                           CA       0
000205:    5264           24002                           INCR     Q
000206:    5265           54072                           TS       TEMPP2
000207:
000208:    5266           74716                           MASK     OCT7
000209:    5267           60000                           DOUBLE
000210:    5270           54071                           TS       TEMPG2
000211:
000212:    5271           30072                           CA       TEMPP2
000213:    5272           74765                           MASK     OCT17770                              #  NEED ONLY 1770, BUT WHY GET A NEW CONST.
000214:    5273           00006                           EXTEND
000215:    5274           74677                           MP       BIT12
000216:    5275           56072                           XCH      TEMPP2
000217:
000218:    5276           74674                           MASK     BIT15
000219:    5277           54066                           TS       TEMPSW2                               #  INDICATES WHETHER TO SET TBASE OR NOT
000220:
000221:    5300           15304                           TCF      PHASCHNG   +3
000222:
000223:
000224:    5301           00004        PHASCHNG           INHINT
000225:    5302           34712                           CA       ONE                                   #  INDICATESWE CAME FROM A PHASCHNG ENTRY
000226:    5303           54066                           TS       TEMPSW2
000227:
000228:    5304           50002                           NDX      Q
000229:    5305           30000                           CA       0
000230:    5306           24002                           INCR     Q
000231:    5307           54065                           TS       TEMPSW


000233:    5310           00006                           EXTEND
000234:    5311           35314                           DCA      ADRPCHN2                              #  OFF TO SWITCHED BANK
000235:    5312           52006                           DTCB
000236:


000238:    5313  40,2000                                  SBANK=   PINSUPER
000239:    5313  E3,1400                                  EBANK=   LST1
000240:    5313           02355 20103  ADRPCHN2           2CADR    PHSCHNG2
000241:
000242:
000243:    5315           22073        ONEORTWO           LXCH     TEMPBBCN
000244:    5316           22006                           LXCH     BBANK
000245:    5317           22073                           LXCH     TEMPBBCN
000246:
000247:    5320           74761                           MASK     OCT14000                              #  SEE WHAT KIND OF PHASE CHANGE IT IS
000248:    5321           10000                           CCS      A
000249:    5322           15363                           TCF      CHECKB                                #   IT IS OF TYPE :B:
000250:
000251:    5323           30062                           CA       TEMPP
000252:    5324           74704                           MASK     BIT7
000253:    5325           10000                           CCS      A                                     #   SHALL WE USE THE OLD PRIORITY
000254:    5326           15350                           TCF      GETPRIO                               #   NO GET A NEW PRIORITY (OR DELTA T)
000255:
000256:    5327           50061        OLDPRIO            NDX      TEMPG                                 #   USE THE OLD PRIORITY (OR DELTA T)
000257:    5330           31052                           CA       PHSPRDT1   -2
000258:    5331           54070                           TS       TEMPPR
000259:
000260:    5332           30062        CON1               CA       TEMPP                                 #  SEE IF A 2CADR IS GIVEN
000261:    5333           74703                           MASK     BIT8
000262:    5334           10000                           CCS      A
000263:    5335           15354                           TCF      GETNEWNM
000264:
000265:    5336           30002                           CA       Q
000266:    5337           54063                           TS       TEMPNM
000267:    5340           30006                           CA       BB
000268:    5341           00006                           EXTEND                                         #  PICK UP USERS SUPERBANK
000269:    5342           04007                           ROR      SUPERBNK
000270:    5343           54064                           TS       TEMPBB
000271:
000272:    5344           35347        TOCON2             CA       CON2ADR                               #  BACK TO SWITCHED BANK
000273:    5345           22073                           LXCH     TEMPBBCN
000274:    5346           52006                           DTCB
000275:
000276:    5347           02443        CON2ADR            GENADR   CON2
000277:
000278:    5350           50002        GETPRIO            NDX      Q                                     #  DON:T CARE IF DIRECT OR INDIRECT
000279:    5351           30000                           CA       0                                     #  LEAVE THAT DECISION TO RESTARTS
000280:    5352           24002                           INCR     Q                                     #  OBTAIN RETURN ADDRESS
000281:    5353           15331                           TCF      CON1       -1
000282:
000283:    5354           00006        GETNEWNM           EXTEND


000285:    5355           50002                           INDEX    Q
000286:    5356           30001                           DCA      0
000287:    5357           52064                           DXCH     TEMPNM
000288:    5360           34711                           CA       TWO
000289:    5361           26002                           ADS      Q                                     #  OBTAIN RETURN ADDRESS
000290:
000291:    5362           15344                           TCF      TOCON2
000292:
000293:    5363     4761               OCT14000           EQUALS   PRIO14
000294:    5363     0061               TEMPG              EQUALS   ITEMP1
000295:    5363     0062               TEMPP              EQUALS   ITEMP2
000296:    5363     0063               TEMPNM             EQUALS   ITEMP3
000297:    5363     0064               TEMPBB             EQUALS   ITEMP4
000298:    5363     0065               TEMPSW             EQUALS   ITEMP5
000299:    5363     0066               TEMPSW2            EQUALS   ITEMP6
000300:    5363     0070               TEMPPR             EQUALS   RUPTREG1
000301:    5363     0071               TEMPG2             EQUALS   RUPTREG2
000302:    5363     0072               TEMPP2             EQUALS   RUPTREG3
000303:
000304:    5363     0073               TEMPBBCN           EQUALS   RUPTREG4
000305:    5363  0000006               BB                 EQUALS   BBANK
000306:
000307:
000308: 14,3751                                           BANK     14
000309: 10,2000                                           SETLOC   PHASETAB
000310: 10,2000                                           BANK
000311:
000312: 10,2355  E3,1436                                  EBANK=   PHSNAME1
000313: 10,2355                                           COUNT    10/PHASE
000314:
000315: 10,2355           22073        PHSCHNG2           LXCH     TEMPBBCN
000316: 10,2356           30065                           CA       TEMPSW
000317: 10,2357           74716                           MASK     OCT7
000318: 10,2360           60000                           DOUBLE
000319: 10,2361           54061                           TS       TEMPG
000320:
000321: 10,2362           30065                           CA       TEMPSW
000322: 10,2363           74765                           MASK     OCT17770
000323: 10,2364           00006                           EXTEND
000324: 10,2365           74677                           MP       BIT12
000325: 10,2366           54062                           TS       TEMPP
000326:
000327: 10,2367           30065                           CA       TEMPSW
000328: 10,2370           74105                           MASK     OCT60000
000329: 10,2371           56065                           XCH      TEMPSW
000330: 10,2372           74761                           MASK     OCT14000
000331: 10,2373           10000                           CCS      A
000332: 10,2374           15315                           TCF      ONEORTWO
000333:


000335: 10,2375           30062                           CA       TEMPP                                 #  START STORING THE PHASE INFORMATION
000336: 10,2376           50061                           NDX      TEMPG
000337: 10,2377           54751                           TS       PHASE1     -2
000338:
000339: 10,2400           10066        BELOW1             CCS      TEMPSW2                               #  IS IT A PHASCHNG OR A 2PHSCHNG
000340: 10,2401           12415                           TCF      BELOW2                                #  IT:S A PHASCHNG
000341:
000342: 10,2402           12403                           TCF      +1                                    #  IT:S A 2PHSCHNG
000343: 10,2403           40072                           CS       TEMPP2
000344: 10,2404           22072                           LXCH     TEMPP2
000345: 10,2405           50071                           NDX      TEMPG2
000346: 10,2406           52751                           DXCH     -PHASE1    -2
000347:
000348: 10,2407           10066                           CCS      TEMPSW2
000349: 10,2410           12411                           NOOP                                           #  CAN:T GET HERE
000350: 10,2411           12415                           TCF      BELOW2
000351:
000352: 10,2412           40025                           CS       TIME1
000353: 10,2413           50071                           NDX      TEMPG2
000354: 10,2414           55051                           TS       TBASE1     -2
000355:
000356: 10,2415           10065        BELOW2             CCS      TEMPSW                                #  SEE IF WE SHOULD SET TBASE OR LONGBASE
000357: 10,2416           12431                           TCF      BELOW3                                #  SET LONGBASE ONLY
000358: 10,2417           12434                           TCF      BELOW4                                #  SET NEITHER
000359:
000360: 10,2420           40025                           CS       TIME1                                 #  SET TBASE TO BEGIN WITH
000361: 10,2421           50061                           NDX      TEMPG
000362: 10,2422           55051                           TS       TBASE1     -2
000363:
000364: 10,2423           30065                           CA       TEMPSW                                #   SHALL WE NOW SET LONGBASE
000365: 10,2424           62427                           AD       BIT14COM
000366: 10,2425           10000                           CCS      A
000367: 10,2426           12427                           NOOP                                           #  ***** CANT GET HERE *****
000368: 10,2427           17777        BIT14COM           OCT      17777                                 #  ***** CANT GET HERE *****
000369: 10,2430           12434                           TCF      BELOW4                                #  NO WE NEED ONLY SET TBASE
000370:
000371: 10,2431           00006        BELOW3             EXTEND                                         #  SET LONGBASE
000372: 10,2432           30025                           DCA      TIME2
000373: 10,2433           53136                           DXCH     LONGBASE
000374:
000375: 10,2434           40062        BELOW4             CS       TEMPP                                 #  AND STORE THE FINAL PART OF THE PHASE
000376: 10,2435           50061                           NDX      TEMPG
000377: 10,2436           54750                           TS       -PHASE1    -2
000378:
000379: 10,2437           30002                           CA       Q
000380: 10,2440           22073                           LXCH     TEMPBBCN
000381: 10,2441           00003                           RELINT
000382: 10,2442           52006                           DTCB
000383: 10,2443           22073        CON2               LXCH     TEMPBBCN
000384:


000386: 10,2444           30062                           CA       TEMPP
000387: 10,2445           50061                           NDX      TEMPG
000388: 10,2446           54751                           TS       PHASE1     -2
000389:
000390: 10,2447           30070                           CA       TEMPPR
000391: 10,2450           50061                           NDX      TEMPG
000392: 10,2451           55052                           TS       PHSPRDT1   -2
000393:
000394: 10,2452           00006                           EXTEND
000395: 10,2453           30064                           DCA      TEMPNM
000396: 10,2454           50061                           NDX      TEMPG
000397: 10,2455           53435                           DXCH     PHSNAME1   -2
000398:
000399: 10,2456           12400                           TCF      BELOW1
000400:
000401:    5363                                           BLOCK    02
000402:    4000                                           SETLOC   FFTAG1
000403:    4000                                           BANK
000404:
000405:    5363                                           COUNT    02/PHASE
000406:
000407:    5363           74677        CHECKB             MASK     BIT12                                 #  SINCE THIS IS OF TYPE 8, THIS BIT SHOULD
000408:    5364           10000                           CCS      A                                     #   BE HERE IF WE ARE TO GET A NEW PRIORITY
000409:    5365           15350                           TCF      GETPRIO                               #  IT IS, SO GET NEW PRIORITY
000410:
000411:    5366           15327                           TCF      OLDPRIO                               #  IT ISN:T, USE THE OLD PRIORITY

End of include-file PHASE_TABLE_MAINTENANCE.agc.  Parent file is MAIN.agc


