
Source Code


000002:                                                                                                 #  Copyright:    Public domain.
000003:                                                                                                 #  Filename:      POWERED_FLIGHT_SUBROUTINES.agc
000004:                                                                                                 #  Purpose:      Part of the source code for Colossus build 237.
000005:                                                                                                 #                This is for the Command Module's (CM) Apollo Guidance
000006:                                                                                                 #                Computer (AGC), we believe for Apollo 8.
000007:                                                                                                 #  Assembler:    yaYUL
000008:                                                                                                 #  Contact:      Jim Lawton <jim DOT lawton AT gmail DOT com>
000009:                                                                                                 #  Website:      www.ibiblio.org/apollo/index.html
000010:                                                                                                 #  Page scans:   www.ibiblio.org/apollo/ScansForConversion/Colossus237/
000011:                                                                                                 #  Mod history:  2011-04-17 JL    Adapted from corresponding Colossus 249 file.
000012:
000013:                                                                                                 # # Page 1329
000014: 14,3412                                          BANK     14                                    #  SAME FBANK AS THE FINDCDUD SUB-PROGRAM
000015: 23,2000                                          SETLOC   POWFLITE
000016: 23,2000                                          BANK
000017:
000018: 23,3432     0142                                 EBANK=   DEXDEX
000019: 23,3432                                          COUNT*   $$/POWFL
000020:
000021:                                                                                                 #      CDUTRIG, CDUTRIG1, CDUTRIG2, AND CD*TR*GS ALL COMPUTE THE SINES AND
000022:                                                                                                 #  COSINES OF THREE 2'S COMPLEMENT ANGLES AND PLACE THE RESULT, DOUBLE
000023:                                                                                                 #  PRECISION, IN THE SAME ORDER AS THE INPUTS, AT SINCDU AND COSCDU.   AN
000024:                                                                                                 #  ADDITIONAL OUTPUT IS THE 1'S COMPLEMENT ANGLES AT CDUSPOT.   THESE
000025:                                                                                                 #  ROUTINES GO OUT OF THEIR WAY TO LEAVE THE MPAC AREA AS THEY FIND IT,
000026:                                                                                                 #  EXCEPT FOR THE GENERALLY UNIMPORTANT MPAC +2.   THEY DIFFER ONLY IN
000027:                                                                                                 #  WHERE THEY GET THE ANGLES, AND IN METHOD OF CALLING.
000028:
000029:                                                                                                 #      CDUTRIG (AND CDUTRIG1, WHICH CAN BE CALLED IN BASIC) COMPUTE THE
000030:                                                                                                 #  SINES AND COSINES FROM THE CURRENT CONTENTS OF THE CDU REGISTERS.
000031:                                                                                                 #  THE CONTENTS OF CDUTEMP, ETC., ARE NOT TOUCHED SO THAT THEY MAY
000032:                                                                                                 #  CONTINUE TO FORM A CONSISTENT SET WITH THE LATEST PIPA READINGS.
000033:
000034:                                                                                                 #      CDUTRIG1 IS LIKE CDUTRIG EXCEPT THAT IT CAN BE CALLED IN BASIC.
000035:
000036:                                                                                                 #      CD*TR*GS FINDS CDU VALUES IN CDUSPOT RATHER THAN IN CDUTEMP.   THIS
000037:                                                                                                 #  ALLOWS USERS TO MAKE TRANSFORMATIONS USING ARBITRARY ANGLES, OR REAL
000038:                                                                                                 #  ANGLES IN AN ORDER OTHER THAN X Y Z.   A CALL TO THIS ROUTINE IS
000039:                                                                                                 #  NECESSARY IN PREPARATION FOR A CALL TO AX*SR*T IN EITHER OF ITS TWO
000040:                                                                                                 #  MODES (SMNB OR NBSM).   SINCE AX*SR*T EXPECTS TO FIND THE SINES AND
000041:                                                                                                 #  COSINES IN THE ORDER Y Z X THE ANGLES MUST HAVE BEEN PLACED IN CDUSPOT
000042:                                                                                                 #  IN THIS ORDER.   CD*TR*GS NEED NOT BE REPEATED WHEN AX*SR*T IS CALLED
000043:                                                                                                 #  MORE THAN ONCE, PROVIDED THE ANGLES HAVE NOT CHANGED.   NOTE THAT SINCE
000044:                                                                                                 #  IT CLOBBERS BUF2 (IN THE SINE AND COSINE ROUTINES) CD*TR*GS CANNOT BE
000045:                                                                                                 #  CALLED USING BANKCALL.   SORRY.
000046:
000047:                                                                                                 #      CD*TR*G IS LIKE CD*TR*GS EXCEPT THAT IT CAN BE CALLED IN
000048:                                                                                                 #  INTERPRETIVE.
000049:
000050: 23,3432           77776        CDUTRIG           EXIT
000051: 23,3433           03442                          TC       CDUTRIGS
000052: 23,3434           06006                          TC       INTPRET
000053: 23,3435           77616                          RVQ
000054:
000055: 23,3436           77776        CD*TR*G           EXIT
000056: 23,3437           03450                          TC       CD*TR*GS
000057: 23,3440           06006                          TC       INTPRET
000058: 23,3441           77616                          RVQ
000059:
000060: 23,3442           30032        CDUTRIGS          CA       CDUX
000061: 23,3443           54772                          TS       CDUSPOT    +4
000062: 23,3444           30033                          CA       CDUY
000063: 23,3445           54766                          TS       CDUSPOT
000064:                                                                                                 # # Page 1330
000065: 23,3446           30034                          CA       CDUZ
000066: 23,3447           54770                          TS       CDUSPOT    +2
000067:
000068: 23,3450           00006        CD*TR*GS          EXTEND
000069: 23,3451           22142                          QXCH     TEM2
000070: 23,3452           34710                          CAF      FOUR
000071: 23,3453           76211        TR*GL**P          MASK     SIX                                   #  MAKE IT EVEN AND SMALLER
000072: 23,3454           54143                          TS       TEM3
000073: 23,3455           50143                          INDEX    TEM3
000074: 23,3456           30766                          CA       CDUSPOT
000075: 23,3457           52155                          DXCH     MPAC                                  #  STORING 2'S COMP ANGLE, LOADING MPAC
000076: 23,3460           52127                          DXCH     VBUF       +4                         #  STORING MPAC FOR LATER RESTORATION
000077: 23,3461           04652                          TC       USPRCADR
000078: 23,3462           45510                          CADR     CDULOGIC
000079: 23,3463           00006                          EXTEND
000080: 23,3464           30155                          DCA      MPAC
000081: 23,3465           50143                          INDEX    TEM3
000082: 23,3466           52767                          DXCH     CDUSPOT                               #  STORING 1'S COMPLEMENT ANGLE
000083: 23,3467           04652                          TC       USPRCADR
000084: 23,3470           01516                          CADR     COSINE
000085: 23,3471           52155                          DXCH     MPAC
000086: 23,3472           50143                          INDEX    TEM3
000087: 23,3473           52745                          DXCH     COSCDU                                #  STORING COSINE
000088: 23,3474           00006                          EXTEND
000089: 23,3475           50143                          INDEX    TEM3
000090: 23,3476           30767                          DCA      CDUSPOT                               #  LOADING 1'S COMPLEMENT ANGLE
000091: 23,3477           04652                          TC       USPRCADR
000092: 23,3500           01530                          CADR     SINE       +1                         #  SINE +1 EXPECTS ARGUMENT IN A AND L
000093: 23,3501           52127                          DXCH     VBUF       +4                         #  BRINGING UP PRIOR MPAC TO BE RESTORED
000094: 23,3502           52155                          DXCH     MPAC
000095: 23,3503           50143                          INDEX    TEM3
000096: 23,3504           52737                          DXCH     SINCDU
000097: 23,3505           10143                          CCS      TEM3
000098: 23,3506           13453                          TCF      TR*GL**P
000099: 23,3507           00142                          TC       TEM2
000100:
000101:                                                                                                 # # Page 1331
000102:                                                                                                 #  ****************************************************************************************************************
000103:
000104:                                                                                                 #      QUICTRIG, INTENDED FOR QUIDANCE CYCLE USE WHERE TIME IS CRITICAL, IS A MUCH FASTER VERSION OF CD*TR*GS.
000105:                                                                                                 #  QUICTRIG COMPUTES AND STORES THE SINES AND COSINES OF THE 2'S COMPLEMENT ANGLES AT CDUSPOT, CDUSPOT +2,
000106:                                                                                                 #  AND CDUSPOT +4.   UNLIKE CD*TR*GS, QUICTRIG DOES NOT LEAVE THE 1'S COMPLEMENT VERSIONS OF THE ANGLES IN
000107:                                                                                                 #  CDUSPOT.   QUICTRIG'S EXECUTION TIME IS 4.1 MS;   THIS IS 10 TIMES AS FAST AS CD*TR*GS.   QUICTRIG MAY BE
000108:                                                                                                 #  CALLED FROM INTERPRETIVE AS AN RTB OP-CODE, OR FROM BASIC VIA BANKCALL OR IBNKCALL.
000109:
000110: 23,3510           00004        QUICTRIG          INHINT                                         #  INHINT SINCE DAP USES THE SAME TEMPS
000111: 23,3511           00006                          EXTEND
000112: 23,3512           22061                          QXCH     ITEMP1
000113: 23,3513           34710                          CAF      FOUR
000114: 23,3514           76211                 +4       MASK     SIX
000115: 23,3515           54062                          TS       ITEMP2
000116: 23,3516           50062                          INDEX    ITEMP2
000117: 23,3517           30766                          CA       CDUSPOT
000118: 23,3520           04770                          TC       SPSIN
000119: 23,3521           00006                          EXTEND
000120: 23,3522           74675                          MP       BIT14                                 #  SCALE DOWN TO MATCH INTERPRETER OUTPUTS
000121: 23,3523           50062                          INDEX    ITEMP2
000122: 23,3524           52737                          DXCH     SINCDU
000123: 23,3525           50062                          INDEX    ITEMP2
000124: 23,3526           30766                          CA       CDUSPOT
000125: 23,3527           04767                          TC       SPCOS
000126: 23,3530           00006                          EXTEND
000127: 23,3531           74675                          MP       BIT14
000128: 23,3532           50062                          INDEX    ITEMP2
000129: 23,3533           52745                          DXCH     COSCDU
000130: 23,3534           10062                          CCS      ITEMP2
000131: 23,3535           13514                          TCF      QUICTRIG   +4
000132: 23,3536           30061                          CA       ITEMP1
000133: 23,3537           00003                          RELINT
000134: 23,3540           00000                          TC       A
000135:
000136:                                                                                                 # # Page 1332
000137:                                                                                                 #  ****************************************************************************************************************
000138:
000139:
000140:                                                                                                 #      THESE INTERFACE ROUTINES MAKE IT POSSIBLE TO CALL AX*SR*T, ETC., IN
000141:                                                                                                 #  INTERPRETIVE.   LATER, WHERE POSSIBLE, THEY WILL BE ELIMINATED.
000142:
000143:                                                                                                 #      NBSM WILL BE THE FIRST TO GO.   IT SHOULD NOT BE USED.
000144:
000145: 23,3541           77620        NBSM              STQ
000146: 23,3542           00047                                   X2
000147: 23,3543           76740                          LXC,1    VLOAD*
000148: 23,3544           00050                                   S1                                    #  BASE ADDRESS OF THE CDU ANGLES IS IN S1
000149: 23,3545           00001                                   0,1
000150: 23,3546           24767                          STOVL    CDUSPOT
000151: 23,3547           00041                                   32D                                   #  VECTOR TO BE TRANSFORMED IS IN 32D
000152: 23,3550           77624                          CALL
000153: 23,3551           47572                                   TRG*NBSM
000154: 23,3552           34041                          STCALL   32D                                   #  SINCE THERE'S NO STGOTO
000155: 23,3553           00047                                   X2
000156:
000157:                                                                                                 #      THESE INTERFACE ROUTINES ARE PERMANENT.   ALL RESTORE USER'S EBANK
000158:                                                                                                 #  SETTING.   ALL ARE STRICT INTERPRETIVE SUBROUTINES, CALLED USING "CALL",
000159:                                                                                                 #  RETURNING VIA QPRET.   ALL EXPECT AND RETURN THE VECTOR TO BE TRANSFOR-
000160:                                                                                                 #  MED INTERPRETER-STYLE IN MPAC; COMPONENTS AT MPAC, MPAC +3, AND MPAC +5.
000161:
000162:                                                                                                 #      TRG*SMNB AND TRG*NBSM BOTH EXPECT TO SEE THE 2'S COMPLEMENT ANGLES
000163:                                                                                                 #  AT CDUSPOT (ORDER Y Z X, AT CDUSPOT, CDUSPOT +2, AND CDUSPOT +4; ODD
000164:                                                                                                 #  LOCATIONS NEED NOT BE ZEROED).   TRG*NBSM DOES THE NB TO SM TRANSFOR-
000165:                                                                                                 #  MATION;  TRG*SMNB, VICE VERSA.
000166:
000167:                                                                                                 #      CDU*NBSM DOES ITS TRANSFORMATION USING THE PRESENT CONTENTS OF
000168:                                                                                                 #  THE CDU COUNTERS.   OTHERWISE IT IS LIKE TRG*NBSM.
000169:
000170:                                                                                                 #      CDU*SMNB IS THE COMPLEMENT OF CDU*NBSM.
000171:
000172: 23,3554           77776        CDU*SMNB          EXIT
000173: 23,3555           03442                          TC       CDUTRIGS
000174: 23,3556           13561                          TCF      C*MM*N1
000175:
000176: 23,3557           77776        TRG*SMNB          EXIT
000177: 23,3560           03450                          TC       CD*TR*GS
000178: 23,3561           07501        C*MM*N1           TC       MPACVBUF                              #  AX*SR*T EXPECTS VECTOR IN VBUF
000179: 23,3562           46214                          CS       THREE                                 #  SIGNAL FOR SM TO NB TRANSFORMATION
000180: 23,3563           03603        C*MM*N2           TC       AX*SR*T
000181: 23,3564           06006                          TC       INTPRET
000182: 23,3565           43575                          VLOAD    RVQ
000183: 23,3566           00123                                   VBUF
000184:
000185: 23,3567           77776        CDU*NBSM          EXIT
000186: 23,3570           03442                          TC       CDUTRIGS
000187:                                                                                                 # # Page 1333
000188: 23,3571           13574                          TCF      C*MM*N3
000189:
000190: 23,3572           77776        TRG*NBSM          EXIT
000191: 23,3573           03450                          TC       CD*TR*GS
000192: 23,3574           07501        C*MM*N3           TC       MPACVBUF                              #  FOR AX*SR*T
000193: 23,3575           36214                          CA       THREE                                 #  SIGNAL FOR NB TO SM TRANSFORMATION
000194: 23,3576           13563                          TCF      C*MM*N2
000195:
000196:                                                                                                 #      *NBSM* AND *SMNB* EXPECT TO SEE THE SINES AND COSINES (AT SINCDU
000197:                                                                                                 #  AND COSCDU) RATHER THAN THE ANGLES THEMSELVES.   OTHERWISE THEY ARE
000198:                                                                                                 #  LIKE TRG*NBSM AND TRG*SMNB.
000199:
000200:                                                                                                 #      NOTE THAT JUST AS CD*TR*GS NEED BE CALLED ONLY ONCE FOR EACH SERIES
000201:                                                                                                 #  OF TRANSFORMATIONS USING THE SAME ANGLES, SO TOO ONLY ONE OF TRG*NBSM
000202:                                                                                                 #  AND TRG*SMNB NEED BE CALLED FOR EACH SERIES.   FOR SUBSEQUENT TRANSFOR-
000203:                                                                                                 #  MATIONS USE *NBSM* AND *SMNB*.
000204:
000205: 23,3577           77776        *SMNB*            EXIT
000206: 23,3600           13561                          TCF      C*MM*N1
000207:
000208: 23,3601           77776        *NBSM*            EXIT
000209: 23,3602           13574                          TCF      C*MM*N3
000210:
000211:                                                                                                 #        AX*SR*T COMBINES THE OLD SMNB AND NBSM.   FOR THE NB TO SM
000212:                                                                                                 #  TRANSFORMATION, ENTER WITH +3 IN A.   FOR SM TO NB, ENTER WITH -3.
000213:                                                                                                 #  THE VECTOR TO BE TRANSFORMED ARRIVES, AND IS RETURNED, IN VBUF.
000214:                                                                                                 #  AX*SR*T EXPECTS TO FIND THE SINES AND COSINES OF THE ANGLES OF ROTATION
000215:                                                                                                 #  AT SINCDU AND COSCDU, IN THE ORDER Y Z X.   A CALL TO CD*TR*GS, WITH
000216:                                                                                                 #  THE 2'S COMPLEMENT ANGLES (ORDER Y Z X) AT CDUSPOT, WILL TAKE CARE OF
000217:                                                                                                 #  THIS.   HERE IS A SAMPLE CALLING SEQUENCE:-
000218:
000219:                                                                                                 #                             TC     CDUTRIGS
000220:                                                                                                 #                             CS     THREE       ("CA  THREE" FOR NBSM)
000221:                                                                                                 #                             TC     AX*SR*T
000222:
000223:                                                                                                 #  THE CALL TO CD*TR*GS NEED NOT BE REPEATED, WHEN AX*SR*T IS CALLED MORE
000224:                                                                                                 #  THAN ONCE, UNLESS THE ANGLES HAVE CHANGED.
000225:
000226:                                                                                                 #      AX*SR*T IS GUARANTEED SAFE ONLY FOR VECTORS OF MAGNITUDE LESS THAN
000227:                                                                                                 #  UNITY.   A LOOK AT THE CASE IN WHICH A VECTOR OF GREATER MAGNITUDE
000228:                                                                                                 #  HAPPENS TO LIE ALONG AN AXIS OF THE SYSTEM TO WHICH IT IS TO BE TRANS-
000229:                                                                                                 #  FORMED CONVINCES ONE THAT THIS IS A RESTRICTION WHICH MUST BE ACCEPTED.
000230:
000231: 23,3603           54142        AX*SR*T           TS       DEXDEX                                #  WHERE IT BECOMES THE INDEX OF INDEXES
000232: 23,3604           00006                          EXTEND
000233: 23,3605           22145                          QXCH     RTNSAVER
000234:
000235: 23,3606           10142        R*TL**P           CCS      DEXDEX                                #          +3 --> 0     -3 --> 2
000236: 23,3607           40142                          CS       DEXDEX                                #  THUS:   +2 --> 1     -2 --> 1
000237: 23,3610           66214                          AD       THREE                                 #          +1 --> 2     -1 --> 0
000238:                                                                                                 # # Page 1334
000239: 23,3611           00006                          EXTEND
000240: 23,3612           50000                          INDEX    A
000241: 23,3613           33672                          DCA      INDEXI
000242: 23,3614           52144                          DXCH     DEXI
000243:
000244: 23,3615           34712                          CA       ONE
000245: 23,3616           54130                          TS       BUF
000246: 23,3617           00006                          EXTEND
000247: 23,3620           50143                          INDEX    DEX1
000248: 23,3621           40123                          DCS      VBUF
000249: 23,3622           13624                          TCF      LOOP1                                 #    REALLY BE A SUBTRACT, AND VICE VERSA
000250:
000251: 23,3623           52131        LOOP2             DXCH     BUF                                   #  LOADING VECTOR COMPONENT, STORING INDEX
000252:
000253: 23,3624           52155        LOOP1             DXCH     MPAC
000254: 23,3625           33670                          CA       SINSLOC
000255: 23,3626           60143                          AD       DEX1
000256: 23,3627           54116                          TS       ADDRWD
000257:
000258: 23,3630           07056                          TC       DMPSUB                                #  MULTIPLY AT SIN(CDUANGLE)
000259: 23,3631           10142                          CCS      DEXDEX
000260: 23,3632           52155                          DXCH     MPAC                                  #  NBSM CASE
000261: 23,3633           13636                          TCF      +3
000262: 23,3634           00006                          EXTEND                                         #  SMNB CASE
000263: 23,3635           40155                          DCS      MPAC
000264: 23,3636           52134                          DXCH     TERM1TMP
000265:
000266: 23,3637           36211                          CA       SIX                                   #  SINCDU AND COSCDU (EACH 6 WORDS) MUST
000267: 23,3640           26116                          ADS      ADDRWD                                #    BE CONSECUTIVE AND IN THAT ORDER
000268:
000269: 23,3641           00006                          EXTEND
000270: 23,3642           50130                          INDEX    BUF
000271: 23,3643           50143                          INDEX    DEX1
000272: 23,3644           30123                          DCA      VBUF
000273: 23,3645           52155                          DXCH     MPAC
000274: 23,3646           07056                          TC       DMPSUB                                #  MULTIPLY BY COS(CDUANGLE)
000275: 23,3647           52155                          DXCH     MPAC
000276: 23,3650           20134                          DAS      TERM1TMP
000277: 23,3651           52134                          DXCH     TERM1TMP
000278: 23,3652           20001                          DDOUBL
000279: 23,3653           50130                          INDEX    BUF
000280: 23,3654           50143                          INDEX    DEX1
000281: 23,3655           52123                          DXCH     VBUF
000282: 23,3656           52131                          DXCH     BUF                                   #  LOADING INDEX, STORING VECTOR COMPONENT
000283:
000284: 23,3657           10000                          CCS      A                                     #  'CAUSE THAT'S WHERE THE INDEX NOW IS
000285: 23,3660           13623                          TCF      LOOP2
000286:
000287: 23,3661           00006                          EXTEND
000288: 23,3662           26142                          DIM      DEXDEX                                #  DECREMENT MAGNITUDE PRESERVING SIGN
000289:                                                                                                 # # Page 1335
000290: 23,3663           10142        TSTPOINT          CCS      DEXDEX                                #  ONLY THE BRANCHING FUNCTION IS USED
000291: 23,3664           13606                          TCF      R*TL**P
000292: 23,3665           00145                          TC       RTNSAVER
000293: 23,3666           13606                          TCF      R*TL**P
000294: 23,3667           00145                          TC       RTNSAVER
000295:
000296:
000297: 23,3670           00736        SINSLOC           ADRES    SINCDU                                #  FOR USE IN SETTING ADDRWD
000298:
000299:
000300: 23,3671           00004        INDEXI            DEC      4          B-14                       #  **********    DON'T    **********
000301: 23,3672           00002                          DEC      2          B-14                       #  **********    TOUCH    **********
000302: 23,3673           00000                          DEC      0          B-14                       #  **********    THESE    **********
000303: 23,3674           00004                          DEC      4          B-14                       #  **********  CONSTANTS  **********
000304:
000305:
000306:                                                                                                 #  ****************************************************************************************************************
000307:
000308:                                                                                                 # # Page 1336
000309:                                                                                                 #  THIS SUBROUTINE COMPUTES INCREMENTAL CHANGES IN CDU(GIMBAL) ANGLES FROM INCREMENTAL CHANGES ABOUT SM AXES. IT
000310:                                                                                                 #  REQUIRES SM INCREMENTS AS A DP VECTOR SCALED AT ONE REVOLUTION(DTHETASM,+2,+4).  SIN,COS(CDUY,Z,X) ARE IN
000311:                                                                                                 #  SINCDU,+2,+4 AND COSCDU,+2,+4 RESPECTIVELY,SCALED TO ONE HALF. CDU INCREENTS ARE PLACED IN DCDU,+2,+4 SCALED TO
000312:                                                                                                 #  ONE REVOLUTION.
000313:
000314:                                                                                                 #         *  COS(IGA)SEC(MGA)          0          -SIN(IGA)SEC(MGA) *
000315:                                                                                                 #         *                                                         *
000316:                                                                                                 #         * -COS(IGA)TAN(MGA)          1           SIN(IGA)TAN(MGA) *
000317:                                                                                                 #         *                                                         *
000318:                                                                                                 #         *      SIN(IGA)              0               COS(IGA)     *
000319:
000320: 14,3412                                          BANK     14
000321: 23,2000                                          SETLOC   POWFLIT1
000322: 23,2000                                          BANK
000323: 23,3675           41345        SMCDURES          DLOAD    DMP
000324: 23,3676           03212                                   DTHETASM
000325: 23,3677           00745                                   COSCDUY
000326:
000327: 23,3700           41325                          PDDL     DMP
000328: 23,3701           03216                                   DTHETASM   +4
000329: 23,3702           00737                                   SINCDUY
000330:
000331: 23,3703           77621                          BDSU
000332: 23,3704           77671                          DDV
000333: 23,3705           00747                                   COSCDUZ
000334: 23,3706           03204                          STORE    DCDU
000335:
000336: 23,3707           72405                          DMP      SL1                                   #  SCALE
000337: 23,3710           00741                                   SINCDUZ
000338: 23,3711           77621                          BDSU
000339:
000340: 23,3712           03214                                   DTHETASM   +2
000341: 23,3713           17206                          STODL    DCDU       +2
000342: 23,3714           03212                                   DTHETASM
000343:
000344: 23,3715           65205                          DMP      PDDL
000345: 23,3716           00737                                   SINCDUY
000346: 23,3717           03216                                   DTHETASM   +4
000347:
000348: 23,3720           43205                          DMP      DAD
000349: 23,3721           00745                                   COSCDUY
000350: 23,3722           77752                          SL1
000351: 23,3723           03210                          STORE    DCDU       +4
000352: 23,3724           77616                          RVQ

End of include-file POWERED_FLIGHT_SUBROUTINES.agc.  Parent file is MAIN.agc


