
Source Code


000002:                                                                                                 #  Copyright:    Public domain.
000003:                                                                                                 #  Filename:      R30.agc
000004:                                                                                                 #  Purpose:      Part of the source code for Colossus build 237.
000005:                                                                                                 #                This is for the Command Module's (CM) Apollo Guidance
000006:                                                                                                 #                Computer (AGC), we believe for Apollo 8.
000007:                                                                                                 #  Assembler:    yaYUL
000008:                                                                                                 #  Contact:      Jim Lawton <jim DOT lawton AT gmail DOT com>
000009:                                                                                                 #  Website:      www.ibiblio.org/apollo/index.html
000010:                                                                                                 #  Page scans:   www.ibiblio.org/apollo/ScansForConversion/Colossus237/
000011:                                                                                                 #  Mod history:  2011-02-05 JL   Adapted from corresponding Colossus 249 file.
000012:
000013:                                                                                                 # # Page 503
000014:                                                                                                 #  SUBROUTINE NAME:  V82CALL
000015:                                                                                                 #  MOD NO:  0                                                               DATE:           16 FEB 67
000016:                                                                                                 #  MOD BY:  RR BAIRNSFATHER                                                 LOG SECTION:    R30
000017:                                                                                                 #  MOD NO: 1             MOD BY: RR BAIRNSFATHER       DATE: 11 APR 67      SR30.1 CHANGED TO ALLOW MONITOR OPERN
000018:                                                                                                 #  MOD  NO: 2            MOD  BY ALONSO                DATE : 11 DEC 67     VB82 PROGRAM REWRITTEN
000019:                                                                                                 #  MOD NO: 3             MOD  BY ALONSO                DATE: 26 MAR 68      PROG MOD TO HANDLE DIF EARTH/MOON SCALE
000020:                                                                                                 #   NEW FUNCTIONAL DESCRIPTION:    CALLED BY VERB 82 ENTER.  PRIORITY 10.
000021:                                                                                                 #    USED THROUGHOUT.               CALCULATE AND DISPLAY ORBITAL PARAMETERS
000022:
000023:                                                                                                 #  1. IF AVERAGE G IS OFF:
000024:                                                                                                 #            FLASH DISPLAY V04N06. R2 INDICATES WHICH SHIP'S STATE VECTOR IS
000025:                                                                                                 #             TO BE UPDATED. INITIAL CHOICE IS THIS SHIP (R2=1). ASTRONAUT
000026:                                                                                                 #             CAN CHANGE TO OTHER SHIP BY V22EXE, WHERE X IS NOT EQ 1.
000027:                                                                                                 #            SELECTED STATE VECTOR UPDATED BY THISPREC (OTHPREC).
000028:                                                                                                 #            CALLS SR30.1 (WHICH CALLS TFFCONMU + TFFRP/RA) TO CALCULATE
000029:                                                                                                 #             RPER (PERIGEE RADIUS), RAPO (APOGEE RADIUS), HPER (PERIGEE
000030:                                                                                                 #             HEIGHT ABOVE LAUNCH PAD OR LAUNAR LANDING SITE), HARD (APOGEE
000031:                                                                                                 #             HEIGHT AS ABOVE), TPER (TIME TO PERIGEE), TFF (TIME TO
000032:                                                                                                 #             INTERSECT 300 KFT ABOVE PAD OR 36KFT ABOVE LANDING SITE).
000033:                                                                                                 #            FLASH MONITOR V16N44 (HAPO, HPER, TFF).TFF IS -59MS59S IF IT WAS
000034:                                                                                                 #             NOT COMPUTABLE, OTHERWISE IT INCREMENTS ONCE PER SECOND.
000035:                                                                                                 #             ASTRONAUT HAS OPTION TO MONITOR TPER BY KEYING IN N 32 E.
000036:                                                                                                 #             DISPLAY IS IN HMS, IS NEGATIVE (AS WAS TFF), AND INCREMENTS
000037:                                                                                                 #             ONCE PER SECOND ONLY IF TFF DISPLAY WAS -59M59S.
000038:
000039:                                                                                                 #  2. IF AVERAGE G IS ON:
000040:                                                                                                 #            CALLS SR30.1 APPROX EVERY TWO SECS.  STATE VECTOR IS ALWAYS
000041:                                                                                                 #             FOR THIS VEHICLE. V82 DOES NOT DISTURB STATE VECTOR.  RESULTS
000042:                                                                                                 #             OF SR30.1 ARE RAPO, RPER, HAPO, HPER, TPER, TFF.
000043:                                                                                                 #            FLASH MONITOR V16N44 (HAPO, HPER, TFF).
000044:                                                                                                 #            IF MODE IS P11, THEN CALL DELRSPL SO ASTRONAUT CAN MONITOR
000045:                                                                                                 #             RESULTS BY N50E. SPLASH COMPUTATION DONE ONCE FOR TWO SECS.
000046:
000047:
000048:                                                                                                 #  ADDENDUM: HAPO AND HPER SHOULD BE CHANGED TO READ HAPOX AND HPERX IN THE
000049:                                                                                                 #            ABOVE REMARKS.
000050:
000051:                                                                                                 #  CALLING SEQUENCE:  VERB 82 ENTER.
000052:
000053:
000054:                                                                                                 #  SUBROUTINES CALLED:  SR30.1, GOXDSPF
000055:                                                                                                 #                        MAYBE - THISPREC , OTHPREC, LOADTIME, DELRSPL
000056:                                                                                                 #  NORMAL EXIT MODES:  TC ENDEXT
000057:
000058:                                                                                                 #  ALARMS:  NONE
000059:
000060:                                                                                                 #  OUTPUT:  HAPOX    (-29) M
000061:                                                                                                 #            HPERX    (-29) M
000062:                                                                                                 #            RAPO     (-29) M EARTH
000063:                                                                                                 #                     (-27) M MOON
000064:                                                                                                 # # Page 504
000065:                                                                                                 #            RPER     (-29) M EARTH
000066:                                                                                                 #                     (-27) M MOON
000067:                                                                                                 #            TFF      (-28) CS      CONTAINS NEGATIVE QUANTITY
000068:                                                                                                 #            -TPER    (-28) CS      CONTAINS NEGATIVE QUANTITY
000069:                                                                                                 #            RSP-RREC (-29) M       IF DELRSPL CALLED
000070:
000071:                                                                                                 #  ERASABLE INITIALIZATION REQUIRED: STATE VECTOR.
000072:
000073:                                                                                                 #  DEBRIS:  QPRET, RONE, VONE,TFF/RTMU, HPERMIN, RPADTEM, V82EMFLG.
000074:                                                                                                 #           MAYBE: TSTART82, V82FLAGS, TDEC1.
000075:
000076:
000077: ???????  E4,1751                                 EBANK=   HAPOX
000078: 31,2021                                          BANK     31
000079: 23,2000                                          SETLOC   R30LOC
000080: 23,2000                                          BANK
000081: 23,2332                                          COUNT*   $$/R30
000082:
000083: 23,2332           06006        V82CALL           TC       INTPRET
000084: 23,2333           52014                          BON      GOTO
000085: 23,2334           00716                                   AVEGFLAG
000086: 23,2335           46566                                   V82GON                                #  IF AVERAGE G ON
000087: 23,2336           46337                                   V82GOFF                               #  IF AVERAGE G OFF
000088:
000089:
000090: 23,2337           77776        V82GOFF           EXIT                                           #  ALLOW ASTRONAUT TO SELECT VEHICLE
000091: 23,2340           34711                          CAF      TWO                                   #  DESIRED FOR ORBITAL PARAMETERS
000092: 23,2341           55131                          TS       OPTION1                               #  CALCULATION AND DISPLAY.
000093: 23,2342           34712                          CAF      ONE
000094: 23,2343           55132                          TS       OPTION1    +1
000095: 23,2344           32406                          CAF      OPTIONVN                              #  V 04 N 06
000096: 23,2345           04555                          TC       BANKCALL
000097: 23,2346           20465                          CADR     GOXDSPF
000098: 23,2347           05423                          TC       ENDEXT                                #  TERMINATE
000099: 23,2350           02352                          TC       +2                                    #  PROCEED
000100: 23,2351           02344                          TC       -5                                    #  DATA IN. OPTION1+1 = 1 FOR THIS VEHICLE.
000101:                                                                                                 #                  UNEQ 1 FOR OTHER VEHICLE.
000102: 23,2352           34707                          CAF      BIT4                                  #  80 MS
000103: 23,2353           05140                          TC       WAITLIST
000104: 23,2354  E4,1743                                 EBANK=   TFF
000105: 23,2354           02531 46064                    2CADR    TICKTEST
000106: 23,2356           00003                          RELINT
000107: 23,2357           32410        V82GOFLP          CAF      TFFBANK                               #  MAJOR RECYCLE LOOP ENTRY
000108: 23,2360           54003                          TS       EBANK
000109: 23,2361           34714                          CAF      ZERO
000110: 23,2362           55742                          TS       V82FLAGS                              #  ZERO FLAGS FOR TICKTEST, INHIBITS
000111:                                                                                                 #                                           DECREMENTING OF TFF AND -TPER.
000112: 23,2363           34756                          CAF      PRIO7
000113: 23,2364           05042                          TC       FINDVAC                               #  V82GOFF1 WILL EXECUTE STATE VECTOR
000114:                                                                                                 # # Page 505
000115: 23,2365  E4,1743                                 EBANK=   TFF                                   #  UPDATE AND ORBIT CALCULATIONS FOR
000116: 23,2365           02411 46064                    2CADR    V82GOFF1                              #  SELECTED VEHICLE ABOUT PROPER BODY.
000117: 23,2367           00003                          RELINT
000118: 23,2370           36214        V82STALL          CAF      THREE                                 #  STALL IN THIS LOOP AND WITHOLD V 16 N 44
000119: 23,2371           71742                          MASK     V82FLAGS                              #  UNTIL STATE VECTOR UPDATE SETS ONE OF
000120: 23,2372           10000                          CCS      A                                     #  OUR FLAG BITS.
000121: 23,2373           02400                          TC       FLAGGON                               #  EXIT FROM STALL LOOP.
000122: 23,2374           34734                          CAF      1SEC
000123: 23,2375           04555                          TC       BANKCALL
000124: 23,2376           01730                          CADR     DELAYJOB
000125: 23,2377           02370                          TC       V82STALL
000126:
000127: 23,2400           32407        FLAGGON           CAF      V16N44                                #  MONITOR HAPO,HPER,TFF.
000128: 23,2401           04555                          TC       BANKCALL
000129: 23,2402           20465                          CADR     GOXDSPF
000130: 23,2403           05514                          TC       B5OFF                                 #  TERM  THIS TELLS TICKTEST TO KILL ITSELF
000131: 23,2404           05514                          TC       B5OFF                                 #  PROCEED  DITTO
000132: 23,2405           02357                          TC       V82GOFLP                              #  RECYCLE  RECOMPUTE STATE VECT + DISPLAY
000133:
000134: 23,2406           01006        OPTIONVN          VN       0406
000135: 23,2407           04054        V16N44            VN       1644
000136: 23,2410           02343        TFFBANK           ECADR    TFF
000137:
000138:
000139: 23,2411           06006        V82GOFF1          TC       INTPRET
000140: 23,2412           77634                          RTB
000141: 23,2413           45505                                   LOADTIME
000142: 23,2414           00041                          STORE    TDEC1                                 #  TIME FOR STATE VECTOR UPDATE.
000143: 23,2415           02325                          STORE    TSTART82                              #  TIME FOR INTERNAL USE.
000144: 23,2416           77776                          EXIT
000145: 23,2417           41132                          CS       OPTION1    +1                         #  1 FOR THIS VEHICLE, NOT 1 FOR OTHER.
000146: 23,2420           64712                          AD       ONE
000147: 23,2421           00006                          EXTEND
000148: 23,2422           12446                          BZF      THISSHIP
000149: 23,2423           06006        OTHSHIP           TC       INTPRET
000150: 23,2424           77624                          CALL                                           #  CALL STATE VECTOR UPDATE FOR OTHER SHIP.
000151: 23,2425           27036                                   OTHPREC
000152: 23,2426           77775        BOTHSHIP          VLOAD                                          #  MOVE RESULTS INTO TFFCONIC STORAGE AREAS
000153: 23,2427           00001                                   RATT                                  #   TO BE CALLED BY SR30.1.
000154: 23,2430           26327                          STOVL    RONE                                  #  RATT AT (-29)M FOR EARTH OR MOON
000155: 23,2431           00007                                   VATT
000156: 23,2432           02335                          STORE    VONE                                  #   VATT AT (-7)M/CS FOR EARTH OR MOON
000157: 23,2433           77743                          DLOAD*
000158: 23,2434           71321                                   1/RTMUE,2                             #   X2 IS 0 FOR EARTH CENTERED STATE VEC
000159: 23,2435           00037                          STORE    TFF/RTMU                              #   X2 IS 2 FOR MOON
000160: 23,2436           77743                          DLOAD*                                         #  AS LEFT BY THISPREC OR OTHPREC.
000161: 23,2437           71315                                   MINPERE,2
000162: 23,2440           02321                          STORE    HPERMIN                               #    TFFRTMU, HPERMIN AND RPADTEM ARE ALL
000163: 23,2441           46135                          SLOAD    BHIZ                                  #  EARTH/MOON PARAMETERS AS SET HERE.
000164:                                                                                                 # # Page 506
000165: 23,2442           00050                                   X2
000166: 23,2443           46463                                   EARTHPAD
000167: 23,2444           77650                          GOTO
000168: 23,2445           46467                                   MOONPAD
000169:
000170: 23,2446           06006        THISSHIP          TC       INTPRET
000171: 23,2447           77624                          CALL                                           #  CALL STATE VECTOR UPDATE FOR THIS SHIP.
000172: 23,2450           27022                                   THISPREC
000173: 23,2451           77650                          GOTO
000174: 23,2452           46426                                   BOTHSHIP
000175:
000176:                                                                                                 #  THE FOLLOWING CONSTANTS ARE PAIRWISE INDEXED. DO NOT SEPARATE PAIRS.
000177:
000178: 23,2453           27533 07571  1/RTMUM           2DEC*    .45162595  E-4        B14*
000179: 23,2455           25004 06702  1/RTMUE           2DEC*    .50087529  E-5        B17*
000180: 23,2457           00001 11530  MINPERM           2DEC     10668      B-27                       #  35 KFT MIN PERIGEE HEIGHT FOR MOON(-27)M
000181: 23,2461           00002 31230  MINPERE           2DEC     91440      B-29                       #  300 KFT (-29)M FOR EARTH
000182:
000183: 23,2463           43145        EARTHPAD          DLOAD    CLRGO                                 #   PAD 37-B RADIUS.  SCALED AT (-29)M
000184: 23,2464           05311                                   RPAD
000185: 23,2465           04622                                   V82EMFLG                              #   INDICATE EARTH SCALING FOR SR30.1
000186: 23,2466           46473                                   BOTHPAD
000187:
000188: 23,2467           51575        MOONPAD           VLOAD    ABVAL                                 #  COMPUTE MOON PAD RADIUS FROM RLS VECTOR.
000189: 23,2470           02026                                   RLS                                   #   SCALED AT (-27)M.
000190: 23,2471           77614                          SET
000191: 23,2472           04462                                   V82EMFLG                              #   INDICATE MOON SCALING FOR SR30.1
000192: 23,2473           36323        BOTHPAD           STCALL   RPADTEM
000193: 23,2474           46667                                   SR30.1                                #  CALCULATE ORBITAL PARAMETERS
000194: 23,2475           77776                          EXIT
000195: 23,2476           31011                          CA       MODREG                                #  ARE WE IN POO
000196: 23,2477           00006                          EXTEND
000197: 23,2500           12645                          BZF      CANDEL                                #  YES, DO DELRSPL
000198: 23,2501           06006        SPLRET1           TC       INTPRET
000199: 23,2502           45234                          RTB      DSU
000200: 23,2503           45505                                   LOADTIME
000201: 23,2504           02325                                   TSTART82                              #  PRESENT TIME - TIME V82GOFF1 BEGAN
000202: 23,2505           02325                          STORE    TSTART82                              #                 SAVE IT
000203: 23,2506           53145                          DLOAD    BZE                                   #  SR30.1 SETS -TPER=0 IF HPER L/
000204: 23,2507           02346                                   -TPER                                 #   HPERMIN (300 OR 35) KFT.
000205: 23,2510           46521                                   TICKTFF                               #  (-TPER = 0)
000206: 23,2511           43345        TICKTPER          DLOAD    DAD                                   #  (-TPER NON ZERO)  TFF WAS NOT COMPUTED,
000207: 23,2512           02346                                   -TPER                                 #  BUT WAS SET TO 59M59S.DONT DICK TFF, DO
000208: 23,2513           02325                                   TSTART82                              #  TICK -TPER. DISPLAY BOTH.
000209: 23,2514           02346                          STORE    -TPER                                 #  -TPER CORRECTED FOR TIME SINCE V82GOFF1
000210: 23,2515           77776                          EXIT                                           #  BEGAN.
000211:
000212:                                                                                                 # # Page 507
000213: 23,2516           34712                          CAF      BIT1
000214: 23,2517           55742                          TS       V82FLAGS                              #  INFORMS TICKTEST TO INCREMENT ONLY -TPER
000215: 23,2520           05112                          TC       ENDOFJOB
000216:
000217: 23,2521           43345        TICKTFF           DLOAD    DAD                                   #  (-TPER=0)  TFF WAS COMPUTED.TICK TFF.
000218: 23,2522           02344                                   TFF                                   #  DO NOT TICK -TPER.DISPLAY TFF, BUT NOT
000219: 23,2523           02325                                   TSTART82                              #  -TPER.
000220: 23,2524           02344                          STORE    TFF                                   #  TFF CORRECTED FOR TIME SINCE V82GOFF1
000221: 23,2525           77776                          EXIT                                           #  BEGAN.
000222: 23,2526           34711                          CAF      BIT2
000223: 23,2527           55742                          TS       V82FLAGS                              #  INFORMS TICKTEST TO INCREMENT ONLY TFF.
000224: 23,2530           05112                          TC       ENDOFJOB
000225:
000226:
000227: 23,2531           34706        TICKTEST          CAF      BIT5                                  #  THIS WAITLIST PROGRAM PERPETUATES ITSELF
000228: 23,2532           71044                          MASK     EXTVBACT                              #  ONCE A SEC UNTIL BIT 5 OF EXTVBACT =0.
000229: 23,2533           10000                          CCS      A
000230: 23,2534           02542                          TC       DOTICK
000231: 23,2535           37662                          CAF      PRIO25
000232: 23,2536           05027                          TC       NOVAC                                 #  TERMINATE V 82.CANT CALL ENDEXT IN RUPT.
000233: 23,2537     1044                                 EBANK=   EXTVBACT
000234: 23,2537           05423 04062                    2CADR    ENDEXT
000235: 23,2541           05213                          TC       TASKOVER
000236: 23,2542           34734        DOTICK            CAF      1SEC                                  #  RE-REQUEST TICKTEST.
000237: 23,2543           05140                          TC       WAITLIST
000238: 23,2544  E4,1743                                 EBANK=   TFF
000239: 23,2544           02531 46064                    2CADR    TICKTEST
000240: 23,2546           36214                          CAF      THREE
000241: 23,2547           71742                          MASK     V82FLAGS
000242: 23,2550           50000                          INDEX    A
000243: 23,2551           02552                          TC       +1
000244: 23,2552           05213                          TC       TASKOVER                              #  IF NO FLAGBITS SET DONT' CHANGE TFF OR
000245:                                                                                                 #                                           -TPER, BUT CONTINUE LOOP.
000246: 23,2553           02561                          TC       TPERTICK                              #  ONLY BIT 1 SET. INCR -TPER BY 1 SEC.
000247: 23,2554           34734        TFFTICK           CAF      1SEC                                  #  ONLY BIT 2 SET. INCR TFF BY 1 SEC.
000248: 23,2555           54001                          TS       L
000249: 23,2556           34714                          CAF      ZERO
000250: 23,2557           21744                          DAS      TFF
000251: 23,2560           05213                          TC       TASKOVER
000252: 23,2561           34734        TPERTICK          CAF      1SEC
000253: 23,2562           54001                          TS       L
000254: 23,2563           34714                          CAF      ZERO
000255: 23,2564           21746                          DAS      -TPER
000256: 23,2565           05213                          TC       TASKOVER
000257:
000258:                                                                                                 # # Page 508
000259: 23,2566           77776        V82GON            EXIT                                           #   AVERAGE G ON. USE CURRENT STATE VECTOR
000260:                                                                                                 #                                           FOR ORBITAL PARAMETER CALCULATIONS.
000261: 23,2567           34756                          CAF      PRIO7                                 #  LESS THAN LAMBERT
000262: 23,2570           05042                          TC       FINDVAC                               #  V82GON1 WILL PERFORM ORBIT CALCULATIONS
000263: 23,2571  E4,1743                                 EBANK=   TFF                                   #  ABOUT PROPER BODY APPROX ONCE PER SEC.
000264: 23,2571           02604 46064                    2CADR    V82GON1
000265: 23,2573           00003                          RELINT
000266: 23,2574           10067                          CCS      NEWJOB                                #  WITHOLD V16 N44 UNTIL FIRST ORBIT CALC
000267: 23,2575           05057                          TC       CHANG1                                #  IS DONE. NOTE: V82GON1 (PRIO7, FINDVAC
000268:                                                                                                 #                                           JOB) IS COMPLETED BEFORE V82GON (PRIO7,
000269:                                                                                                 #                                           NOVAC JOB).
000270: 23,2576           32407        V82REDSP          CAF      V16N44                                #  MONITOR HAPO, HPER, TFF
000271: 23,2577           04555                          TC       BANKCALL
000272: 23,2600           20465                          CADR     GOXDSPF
000273: 23,2601           05514                          TC       B5OFF                                 #  TERM THIS TELLS V82GON1 TO KILL ITSELF.
000274: 23,2602           05514                          TC       B5OFF                                 #  PROC DITTO.
000275: 23,2603           02576                          TC       V82REDSP                              #  RECYCLE
000276:
000277: 23,2604           06006        V82GON1           TC       INTPRET                               #  THIS EXEC PROGRAM PERPETUATES ITSELF
000278:                                                                                                 #                                           ONCE A SEC UNTIL BIT 5 OF EXTVBACT =0.
000279: 23,2605           52175                          VLOAD    GOTO                                  #  HOLDS OFF CCS NEWJOB BETWEEN RN AND
000280: 23,2606           01171                                   RN                                    #    VN FETCH SO RN , VN ARE FROM SAME
000281: 23,2607           46610                                   NEXTLINE                              #    STATE VECTOR UPDATE.
000282: 23,2610           26327        NEXTLINE          STOVL    RONE                                  #   RN AT (-29)M FOR EARTH OR MOON
000283: 23,2611           01177                                   VN
000284: 23,2612           02335                          STORE    VONE                                  #  VN AT (-7)M/CS FOR EARTH OR MOON
000285: 23,2613           52014                          BON      GOTO
000286: 23,2614           04303                                   MOONTHIS                              #  FLAG INDICATES BODY ABOUT WHICH ORBITAL
000287: 23,2615           46617                                   MOONGON                               #     CALCULATIONS ARE TO BE PERFORMED.
000288: 23,2616           46630                                   EARTHGON                              #    IF SET - MOON , IF RESET - EARTH.
000289:
000290: 23,2617           71214        MOONGON           SET      DLOAD
000291: 23,2620           04462                                   V82EMFLG                              #  INDICATE MOON SCALING FOR SR30.1
000292: 23,2621           06454                                   1/RTMUM                               #  LUNAR PARAMETERS LOADED HERE FOR SR30.1
000293: 23,2622           14037                          STODL    TFF/RTMU
000294: 23,2623           06460                                   MINPERM
000295: 23,2624           26321                          STOVL    HPERMIN
000296: 23,2625           02026                                   RLS                                   #   SCALED AT (-27)M
000297: 23,2626           52046                          ABVAL    GOTO
000298: 23,2627           46637                                   V82GON2
000299: 23,2630           71214        EARTHGON          CLEAR    DLOAD
000300: 23,2631           04662                                   V82EMFLG                              #  INDICATE EARTH SCALING FOR SR30.1
000301: 23,2632           06456                                   1/RTMUE                               #  EARTH PARAMETERS LOADED HERE FOR SR30.1
000302: 23,2633           14037                          STODL    TFF/RTMU
000303: 23,2634           06462                                   MINPERE
000304: 23,2635           16321                          STODL    HPERMIN
000305: 23,2636           05311                                   RPAD
000306: 23,2637           36323        V82GON2           STCALL   RPADTEM                               #  COMMON CODE FOR EARTH & MOON.
000307: 23,2640           46667                                   SR30.1
000308:                                                                                                 # # Page 509
000309: 23,2641           77776                          EXIT
000310: 23,2642           05253                          TC       CHECKMM
000311: 23,2643           00013                          DEC      11         B-14
000312: 23,2644           02657                          TC       V82GON3                               #  NOT IN MODE 11.
000313: 23,2645           06006        CANDEL            TC       INTPRET                               #  IN MODE 11 OR 00
000314: 23,2646           77624                          CALL
000315: 23,2647           27371                                   INTSTALL                              #  DELRSPL DOES INTWAKE
000316: 23,2650           45145                          DLOAD    CALL
000317: 23,2651           02344                                   TFF
000318: 23,2652           64017                                   DELRSPL                               #  RETURN IS TO NEXT LINE ( SPLRET ).
000319: 23,2653           77776        SPLRET            EXIT
000320:
000321: 23,2654           31011                          CA       MODREG
000322: 23,2655           00006                          EXTEND
000323: 23,2656           12501                          BZF      SPLRET1
000324: 23,2657           34706        V82GON3           CAF      BIT5
000325: 23,2660           71044                          MASK     EXTVBACT                              #  SEE IF ASTRONAUT HAS SIGNALLED TERMINATE
000326: 23,2661           00006                          EXTEND
000327: 23,2662           15423                          BZF      ENDEXT                                #  YES, TERMINATE VB 82 LOOP
000328: 23,2663           34734                          CAF      1SEC
000329: 23,2664           04555                          TC       BANKCALL                              #  WAIT ONE SECOND BEFORE REPEATING
000330: 23,2665           01730                          CADR     DELAYJOB                              #    ORBITAL PARAMETER COMPUTATION.
000331: 23,2666           02604                          TC       V82GON1
000332:
000333:                                                                                                 # # Page 510
000334:                                                                                                 #  SUBROUTINE NAME:     SR30.1
000335:                                                                                                 #  MOD NO:  0                                                               DATE:           16 FEB 67
000336:                                                                                                 #  MOD BY:  RR BAIRNSFATHER                                                 LOG SECTION:    R32
000337:                                                                                                 #  MOD NO:  1            MOD BY:  RR BAIRNSFATHER      DATE: 11 APR 67      SR30.1 CHANGED TO ALLOW MONITOR OPERN
000338:                                                                                                 #  MOD NO:  2            MOD BY:  RR BAIRNSFATHER      DATE:  14 APR 67     ADD OVFL CK FOR RAPO
000339:                                                                                                 #  MOD NO:  3            MOD BY ALONSO                 DATE: 11 DEC 67      SUBROUTINE REWRITTEN
000340:                                                                                                 #  MOD NO: 4             MOD BY ALONSO                 DATE: 26 MAR 68      PROG MOD TO HANDLE DIF EARTH/MOON SCALE
000341:                                                                                                 #  MOD NO:  5            MOD BY:  RR BAIRNSFATHER      DATE:  6 AUG 68      OVFL CK FOR HAPO & HPER.VOIDS MOD #2.
000342:
000343:
000344:                                                                                                 #  NEW FUNCTIONAL DESCRIPTION:     ORBITAL PARAMETERS DISPLAY FOR NOUNS 32  AND 44.
000345:                                                                                                 #  SR30.1 CALLS TFFCONMU AND TFFRP/RA TO CALCULATE RPER (PERIGEE RADIUS),
000346:                                                                                                 #  RAPO (APOGEE RADIUS), HPER (PERIGEE HEIGHT ABOVE LAUNCH PAD OR LUNAR
000347:                                                                                                 #  LANDING SITE), HAPO (APOGEE HEIGHT AS ABOVE), TPER (TIME TO PERIGEE),
000348:                                                                                                 #  TFF (TIME TO INTERSECT 300 KFT ABOVE PAD OR 35KFT ABOVE LANDING SITE).
000349:                                                                                                 #  IF HPER IS GREATER THAN OR EQUAL TO HPERMIN, CALCULATES TPER AND STORES
000350:                                                                                                 #  NEGATIVE    IN -TPER. OTHERWISE STORES +0 IN -TPER. WHENEVER TPER IS
000351:                                                                                                 #  CALCULATED, TFF IS NOT COMPUTABLE AND DEFAULTS TO -59MIN 59SEC. IF HAPO
000352:                                                                                                 #  WOULD EXCEED 9999.9 NM, IT IS LIMITED TO THAT VALUE FOR DISPLAY.
000353:
000354:                                                                                                 #  ADDENDUM: HAPO AND HPER SHOULD BE CHANGED TO READ HAPOX AND HPERX IN THE
000355:                                                                                                 #             ABOVE REMARKS.
000356:
000357:                                                                                                 #  CALLING SEQUENCE:          CALL
000358:                                                                                                 #                                   SR30.1
000359:                                                                                                 #  SUBROUTINES CALLED:        TFFCONMU, TFFRP/RA, CALCTPER, CALCTFF
000360:                                                                                                 #  NORMAL EXIT MODE:          CALLING LINE +1 (STILL IN INTERPRETIVE MODE)
000361:                                                                                                 #  ALARMS:                    NONE
000362:                                                                                                 #  OUTPUT:  RAPO   (-29) M EARTH   APOGEE RADIUS   EARTH CENTERED COORD.
000363:                                                                                                 #                   (-27) M MOON                    MOON CENTERED COORD.
000364:                                                                                                 #            RPER   (-29) M EARTH   PERIGEE RADIUS  EARTH CENTERED COORD.
000365:                                                                                                 #                   (-27) M MOON                    MOON CENTERED COORD.
000366:                                                                                                 #            HAPOX  (-29) M         APOGEE ALTITUDE ABOVE PAD OR LAND. SITE MAX VALUE LIMITED TO 9999.9 NM.
000367:                                                                                                 #            HPERX  (-29) M         PERIGEE ALT. ABOVE PAD OR LAND. SITE    MAX VALUE LIMITED TO 9999.9 NM.
000368:                                                                                                 #            TFF    (-28) CS        TIME TO 300KFT OR 35KFT ALTITUDE
000369:                                                                                                 #            -TPER  (-28) CS        TIME TO PERIGEE
000370:                                                                                                 #  ERASABLE INITIALIZATION REQUIRED-
000371:                                                                                                 #            TFF/RTMU (+17) EARTH   RECIPROCAL OF PROPER GRAV CONSTANT FOR
000372:                                                                                                 #                     (+14) MOON    EARTH OR MOON = 1/SQRT(MU).
000373:                                                                                                 #            RONE    (-29) M        STATE VECTOR
000374:                                                                                                 #            VONE    (-7)  M/CS     STATE VECTOR
000375:                                                                                                 #            RPADTEM (-29) M EARTH  RADIUS OF LAUNCH PAD OR LUNAR LANDING
000376:                                                                                                 #                    (-27) M MOON   SITE.
000377:                                                                                                 #            HPERMIN (-29) M EARTH  (300 OR 35)KFT MINIMUM PERIGEE ALTITUDE
000378:                                                                                                 #                    (-27) M MOON   ABOVE LAUNCH PAD OR LUNAR LANDING SITE.
000379:                                                                                                 #            V82EMFLG (INT SW BIT) RESET FOR EARTH, SET FOR MOON.
000380:
000381:                                                                                                 #  DEBRIS:  QPREG, PDL, S2
000382:
000383:                                                                                                 # # Page 511
000384: 23,2667                                          COUNT*   $$/SR30S
000385:
000386: 23,2667           44001        SR30.1            SETPD    STQ                                   #  INITIALIZE PUSHDOWN LIST.
000387: 23,2670           00001                                   0
000388: 23,2671           00051                                   S2
000389:                                                                                                 #                                           SR30.1 INPUT: RONE AT (-29)M EARTH/MOON
000390:                                                                                                 #                                                         VONE AT (-7)M/CS
000391:                                                                                                 #                                            TFFCONMU,TFFRP/RA,CALCTPER AND CALCTFF
000392:                                                                                                 #                                            CALLS REQUIRE :
000393:                                                                                                 #                                            EARTH CENTERED (NO RESCALING REQUIRED)
000394:                                                                                                 #                                                          RONE SCALED TO B-29 M
000395:                                                                                                 #                                                          VONE SCALED TO B-7 M/CS
000396:                                                                                                 #                                            MOON CENTERED  (RESCALING REQUIRED)
000397:                                                                                                 #                                                          RONE SCALED TO B-27 M
000398:                                                                                                 #                                                          VONE SCALED TO B-5  M/CS
000399: 23,2672           77214                          BOFF     VLOAD
000400: 23,2673           04742                                   V82EMFLG                              #    OFF FOR EARTH ,  ON FOR MOON.
000401: 23,2674           46703                                   TFFCALLS
000402: 23,2675           02327                                   RONE
000403: 23,2676           77752                          VSL2
000404: 23,2677           26327                          STOVL    RONE
000405: 23,2700           02335                                   VONE
000406: 23,2701           77752                          VSL2
000407: 23,2702           02335                          STORE    VONE
000408: 23,2703           77624        TFFCALLS          CALL
000409: 23,2704           56722                                   TFFCONMU
000410: 23,2705           77624                          CALL                                           #  TFFRP/RA COMPUTES RAPO,RPER.
000411: 23,2706           56770                                   TFFRP/RA
000412:                                                                                                 #                                           RETURNS WITH RAPO IN D(MPAC).
000413: 23,2707           77625                          DSU
000414: 23,2710           02323                                   RPADTEM
000415: 23,2711           64414                          BOFF     SR2R                                  #  NEED HAPO AT (-29)M FOR DISPLAY.
000416:                                                                                                 #                                           IF MOON CENTERED, RESCALE FROM (-27)M.
000417:                                                                                                 #                                            IF EARTH CENTERED ALREADY AT (-29)M.
000418: 23,2712           04742                                   V82EMFLG                              #   OFF FOR EARTH , ON FOR MOON.
000419: 23,2713           46714                                   +1
000420: 23,2714           77624                          CALL                                           #  IF RAPO > MAXNM, SET RAPO =9999.9 NM.
000421: 23,2715           46754                                   MAXCHK                                #  OTHERWISE STORE (RAPO-RPADTEM) IN HAPO.
000422: 23,2716           16352        STORHAPO          STODL    HAPOX
000423: 23,2717           00017                                   RPER
000424: 23,2720           77625                          DSU
000425: 23,2721           02323                                   RPADTEM                               #  GIVES HPER AT (-29)M EARTH, (-27)M MOON.
000426: 23,2722           00161                          STORE    MPAC       +4                         #  SAVE THIS FOR COMPARISON TO HPERMIN.
000427: 23,2723           64414                          BOFF     SR2R                                  #  NEED HPER AT (-29)M FOR DISPLAY.
000428:                                                                                                 #                                           IF MOON CENTERED, RESCALE FROM (-27)M.
000429:                                                                                                 #                                           IF EARTH CENTERED ALREADY AT (-29)M.
000430: 23,2724           04742                                   V82EMFLG                              #  OFF FOR EARTH,  ON FOR MOON.
000431: 23,2725           46726                                   +1
000432: 23,2726           77624                          CALL                                           #  IF HPER > MAXNM, SET HPER = 9999.9 NM.
000433: 23,2727           46754                                   MAXCHK
000434:                                                                                                 # # Page 512
000435: 23,2730           16354        STORHPER          STODL    HPERX                                 #  STORE (RPER - RPADTEM) INTO HPERX.
000436: 23,2731           00161                                   MPAC       +4
000437: 23,2732           51025                          DSU      BPL                                   #  HPERMIN AT (-29)M FOR EARTH, (-27)M MOON
000438: 23,2733           02321                                   HPERMIN                               #  IF HPER L/   HPERMIN (300 OR 35)KFT,
000439: 23,2734           46740                                   DOTPER                                #   THEN ZERO INTO -TPER.
000440: 23,2735           52145                          DLOAD    GOTO                                  #    OTHERWISE CALCULATE TPER.
000441: 23,2736           15332                                   HI6ZEROS
000442: 23,2737           46744                                   SKIPTPER
000443: 23,2740           45145        DOTPER            DLOAD    CALL
000444: 23,2741           00017                                   RPER
000445: 23,2742           57026                                   CALCTPER
000446: 23,2743           77676                          DCOMP                                          #  TPER IS PUT NEG INTO -TPER.
000447: 23,2744           16346        SKIPTPER          STODL    -TPER
000448: 23,2745           02321                                   HPERMIN                               #  HPERMIN AT (-29)M FOR EARTH, (-27)M MOON
000449: 23,2746           45015                          DAD      CALL
000450: 23,2747           02323                                   RPADTEM                               #  RPADTEM AT (-29)M FOR EARTH, (-27)M MOON
000451: 23,2750           57031                                   CALCTFF                               #  GIVES 59M59S FOR TFF IF HPER G/
000452: 23,2751           77676                          DCOMP                                          #    HPERMIN + RPADTEM. (TPER WAS NON ZERO)
000453: 23,2752           36344                          STCALL   TFF                                   #  OTHERWISE COMPUTES TFF.       (GOTO)
000454: 23,2753           00051                                   S2
000455:
000456: 23,2754           51025        MAXCHK            DSU      BPL                                   #  IF C(MPAC) > 9999.9 NM, MPAC = 9999.9 NM
000457: 23,2755           06764                                   MAXNM
000458: 23,2756           46761                                   +3                                    #  OTHERWISE C(MPAC) - B(MPAC).
000459: 23,2757           43415                          DAD      RVQ
000460: 23,2760           06764                                   MAXNM
000461: 23,2761           43545                 +3       DLOAD    RVQ                                   #  (USED BY P30 - P37 ALSO)
000462: 23,2762           06764                                   MAXNM
000463:
000464: 23,2763           01065 05603  MAXNM             2OCT     01065      05603
000465:
000466:                                                                                                 # # Page 513

End of include-file R30.agc.  Parent file is MAIN.agc


