
Source Code


000002:                                                                                                 #  Copyright:    Public domain.
000003:                                                                                                 #  Filename:      RCS-CSM_DIGITAL_AUTOPILOT.agc
000004:                                                                                                 #  Purpose:      Part of the source code for Colossus build 237.
000005:                                                                                                 #                This is for the Command Module's (CM) Apollo Guidance
000006:                                                                                                 #                Computer (AGC), we believe for Apollo 8.
000007:                                                                                                 #  Assembler:    yaYUL
000008:                                                                                                 #  Contact:      Jim Lawton <jim DOT lawton AT gmail DOT com>
000009:                                                                                                 #  Website:      www.ibiblio.org/apollo/index.html
000010:                                                                                                 #  Page scans:   www.ibiblio.org/apollo/ScansForConversion/Colossus237/
000011:                                                                                                 #  Mod history:  2011-03-17 JL    Adapted from corresponding Colossus 249 file.
000012:
000013:                                                                                                 # # Page 970
000014:                                                                                                 #  T5 INTERRUPT PROGRAM FOR THE RCS-CSM AUTOPILOT
000015:                                                                                                 #       START OF T5 INTERRUPT PROGRAM
000016:
000017: 20,3550                                          BANK     20
000018: 21,2000                                          SETLOC   DAPS3
000019: 21,2000                                          BANK
000020:
000021: 21,2071                                          COUNT    21/DAPRC
000022:
000023: 21,2071  E6,1510                                 EBANK=   KMPAC
000024: 21,2071           22016        REDORCS           LXCH     BANKRUPT                              #  RESTART OF AUTOPILOT COMES HERE
000025: 21,2072           31465                          CA       T5PHASE                               #  ON A T5 RUPT.
000026: 21,2073           00006                          EXTEND
000027: 21,2074           62076                          BZMF     +2                                    #  IF T5PHASE +0, -0, OR -, RESET TO -
000028: 21,2075           12100                          TCF      +3                                    #  IF T5PHASE +, LEAVE IT +.  DO A FRESHDAP
000029: 21,2076           44712                          CS       ONE
000030: 21,2077           55465                          TS       T5PHASE
000031: 21,2100           00006                          EXTEND
000032: 21,2101           32105                          DCA      RCSLOC
000033: 21,2102           53313                          DXCH     T5LOC                                 #  HOOK UP T5RUPT TO AUTOPILOT
000034: 21,2103           12107                          TCF      RCSATT     +1
000035: 21,2104  E6,1510                                 EBANK=   KMPAC
000036: 21,2104           02106 42066  RCSLOC            2CADR    RCSATT
000037:
000038:
000039: 21,2106           22016        RCSATT            LXCH     BANKRUPT                              #  SAVE BB
000040: 21,2107           00006                          EXTEND                                         #  SAVE Q
000041: 21,2110           22012                          QXCH     QRUPT
000042: 21,2111           34674                          CAF      BIT15                                 #  BIT15 CHAN31 = 0 IF IMU POWER IS ON AND
000043: 21,2112           00006                          EXTEND                                         #  S/C CONT SW IS IN CMC (I.E. IF G/C AUTO
000044: 21,2113           02031                          RAND     CHAN31                                #  PILOT IS FULLY ENABLED)
000045: 21,2114           00006                          EXTEND
000046: 21,2115           12144                          BZF      SETT5                                 #  IF G/C AUTOPILOT IS FULLY ENABLED,
000047:                                                                                                 #                                           GO TO SETT5
000048:
000049: 21,2116           41501                          CS       RCSFLAGS                              #  IF G/C AUTOPILOT IS NOT FULLY ENABLED,
000050: 21,2117           74675                          MASK     BIT14
000051: 21,2120           27501                          ADS      RCSFLAGS                              #  SET NORATE FLAG,
000052: 21,2121           34672                          CAF      POSMAX
000053: 21,2122           55332                          TS       HOLDFLAG                              #  SET HOLDFLAG +,
000054: 21,2123           34714                          CAF      ZERO                                  #  ZERO ERRORX, ERRORY, AND ERRORZ,
000055: 21,2124           55567                          TS       ERRORX
000056: 21,2125           55570                          TS       ERRORY
000057: 21,2126           55571                          TS       ERRORZ
000058: 21,2127           34675                          CAF      BIT14
000059: 21,2130           00006                          EXTEND
000060: 21,2131           02031                          RAND     CHAN31                                #  AND CHECK FREE FUNCTION (BIT14 CHAN31).
000061: 21,2132           00006                          EXTEND
000062:                                                                                                 # # Page 971
000063: 21,2133           12144                          BZF      SETT5                                 #  IF IN FREE MODE, GO TO SETT5.
000064:
000065: 21,2134           55465                          TS       T5PHASE                               #  IF NOT IN FREE MODE,
000066: 21,2135           37676                          CAF      OCT37766                              #  SCHEDULE REINITIALIZATION (FRESHDAP)
000067: 21,2136           54030                          TS       TIME5                                 #  IN 100 MS VIA T5RUPT
000068:
000069: 21,2137           02616                          TCR      ZEROJET                               #  ZERO JET CHANNELS IN 14 MS VIA ZEROJET
000070:
000071: 21,2140           12334                          TCF      KMATRIX
000072: 21,2141           37770        DELTATT           OCT      37770                                 #  80MS (TIME5)
000073: 21,2142           37776        DELTATT2          OCT      37776                                 #  20MS (TIME5)
000074: 21,2143           37634        ONESEK            DEC      16284      B-14                       #  1 SEC(TIME5)
000075: 21,2144                        CHAN5             EQUALS   5
000076: 21,2144                        CHAN6             EQUALS   6
000077: 21,2144     7671               PRIO34A           =        PRIO34
000078:
000079:                                                                                                 #           CHECK PHASE OF T5 PROGRAM
000080:
000081:                                                                                                 #      BECAUSE OF THE LENGTH OF THE T5 PROGRAM, IT HAS BEEN DIVIDED INTO
000082:                                                                                                 #  THREE PARTS, T5PHASE1, T5PHASE2, AND THE JET SELECTION LOGIC,
000083:                                                                                                 #  TO ALLOW FOR THE EXECUTION OF OTHER
000084:                                                                                                 #  INTERRUPTS.  T5PHASE IS ALSO USED IN THE INITIALIZATION OF THE AUTOPILOT
000085:                                                                                                 #  VARIABLES AT TURN ON.
000086:                                                                                                 #  THE CODING OF T5PHASE IS...
000087:
000088:                                                                                                 #             + = INITIALIZE T5 RCS-CSM AUTOPILOT
000089:                                                                                                 #  T5PHASE = +0 = PHASE2 OF THE T5 PROGRAM
000090:                                                                                                 #             - = RESTART DAP
000091:                                                                                                 #            -0 = PHASE1 OF THE T5 PROGRAM
000092:
000093: 21,2144           11465        SETT5             CCS      T5PHASE
000094: 21,2145           12530                          TCF      FRESHDAP                              #  TURN ON AUTOPILOT
000095: 21,2146           12645                          TCF      T5PHASE2                              #  BRANCH TO PHASE2 OF PROGRAM
000096: 21,2147           12532                          TCF      REDAP                                 #  RESTART AUTOPILOT
000097:
000098:
000099: 21,2150           55465                          TS       T5PHASE                               #  PHASE 1  RESET  FOR PHASE 2
000100: 21,2151           30030                          CA       TIME5
000101: 21,2152           55634                          TS       T5TIME                                #  USED IN COMPENSATING FOR DELAYS IN T5
000102: 21,2153           32142                          CAF      DELTATT2                              #  RESET FOR T5RUPT IN 20MS FOR PHASE2
000103: 21,2154           54030                          TS       TIME5                                 #  OF PROGRAM
000104:
000105:                                                                                                 # # Page 972
000106:                                                                                                 #  IMU STATUS CHECK
000107:
000108: 21,2155           41321                          CS       IMODES33                              #  CHECK IMU STATUS
000109: 21,2156           74705                          MASK     BIT6                                  #  BIT6 = 0 IMU OK
000110: 21,2157           10000                          CCS      A                                     #  BIT6 = 1 NO IMU
000111: 21,2160           12174                          TCF      RATEFILT
000112: 21,2161           41501        FREECHK           CS       RCSFLAGS                              #  BIT14 INDICATES THAT RATES HAVE NOT BEEN
000113: 21,2162           74675                          MASK     BIT14                                 #  INITIALIZED
000114: 21,2163           27501                          ADS      RCSFLAGS
000115: 21,2164           34675                          CAF      BIT14                                 #  NO ATTITUDE REFERENCE
000116: 21,2165           55332                          TS       HOLDFLAG                              #  STOP ANY AUTOMATIC STEERING AND PREPARE
000117:                                                                                                 #                                           TO PICK UP CDU ANGLES UPON RESUMPTION OF
000118:                                                                                                 #                                           ATTITUDE HOLD
000119: 21,2166           00006                          EXTEND
000120: 21,2167           02031                          RAND     CHAN31                                #  CHECK FOR FREE MODE
000121: 21,2170           00006                          EXTEND
000122: 21,2171           12403                          BZF      KRESUME1                              #  IN FREE MODE PROVIDE FREE CONTROL ONLY
000123: 21,2172           12520                          TCF      REINIT                                #  .....TILT...............................
000124: 21,2173           00030        BITS4,5           OCT      30
000125:
000126:
000127: 21,2174           31501        RATEFILT          CA       RCSFLAGS                              #  SEE IF RATEFILTER HAS BEEN INITIALIZED
000128: 21,2175           74675                          MASK     BIT14
000129: 21,2176           00006                          EXTEND                                         #  IF SO, PROCEED WITH RATE DERIVATION
000130: 21,2177           12201                          BZF      +2
000131: 21,2200           12334                          TCF      KMATRIX                               #  IF NOT, SKIP RATE DERIVATION
000132:
000133:                                                                                                 #           RATE FILTER     TIMING = 7.72MS
000134:
000135:                                                                                                 #  RATE FILTER EQUATIONS
000136:                                                                                                 #  DRHO = DELRHO - (.1)ADOT + (1 - GAIN1)DRHO
000137:                                                                                                 #                                            -1
000138:                                                                                                 #  ADOT = ADOT   + GAIN2 DRHO + KMJ DFT
000139:                                                                                                 #             -1
000140:                                                                                                 #        -        *     -     -
000141:                                                                                                 #  WHERE DELRHO = AMGB (CDU - CDU  )
000142:                                                                                                 #                                 -1
000143:
000144: 21,2201           34711                          CAF      TWO
000145: 21,2202           55506        DRHOLOOP          TS       SPNDX
000146: 21,2203           60000                          DOUBLE
000147: 21,2204           55507                          TS       DPNDX
000148: 21,2205           51507                          INDEX    DPNDX
000149: 21,2206           41552                          CS       DRHO                                  #  DRHO SCALED 180 DEGS
000150: 21,2207           00006                          EXTEND
000151: 21,2210           51617                          INDEX    ATTKALMN                              #  PICK UP DESIRED FILTER GAIN
000152: 21,2211           73063                          MP       GAIN1
000153: 21,2212           51507                          INDEX    DPNDX
000154: 21,2213           21553                          DAS      DRHO                                  #  (1 -.064)DRHO
000155: 21,2214           00006                          EXTEND
000156:                                                                                                 # # Page 973
000157: 21,2215           51507                          INDEX    DPNDX
000158: 21,2216           41534                          DCS      ADOT
000159: 21,2217           53511                          DXCH     KMPAC                                 #  -(.1)ADOT
000160: 21,2220           34676                          CA       QUARTER
000161: 21,2221           02026                          TC       SMALLMP
000162: 21,2222           53511                          DXCH     KMPAC
000163: 21,2223           51507                          INDEX    DPNDX
000164: 21,2224           21553                          DAS      DRHO
000165: 21,2225           11506                          CCS      SPNDX
000166: 21,2226           12202                          TCF      DRHOLOOP
000167:
000168: 21,2227           30032                          CA       CDUX                                  #  MEASURED BODY RATES--
000169: 21,2230           57635                          XCH      RHO
000170: 21,2231           00006                          EXTEND
000171: 21,2232           21635                          MSU      RHO                                   #  -        *     -     -
000172: 21,2233           40000                          COM                                            #  DELRHO = AMGB (CDU - CDU  )
000173:                                                                                                 #                                                                   -1
000174: 21,2234           22007                          ZL
000175: 21,2235           53516                          DXCH     DELTEMPX
000176: 21,2236           30033                          CA       CDUY
000177: 21,2237           57636                          XCH      RHO1
000178: 21,2240           00006                          EXTEND
000179: 21,2241           21636                          MSU      RHO1
000180: 21,2242           40000                          COM
000181: 21,2243           55502                          TS       T5TEMP                                #  (CDUY - RHO1)    SCALED 90 DEGS
000182: 21,2244           00006                          EXTEND
000183: 21,2245           71640                          MP       AMGB1
000184: 21,2246           21516                          DAS      DELTEMPX                              #  DELTEMPX = (CDUX-RHO) + AMGB1(CDUY-RHO1)
000185:                                                                                                 #                                           MUST BE DOUBLE PRECISION OR WILL LOSE
000186:                                                                                                 #                                           PULSES
000187: 21,2247           31641                          CA       AMGB4
000188: 21,2250           00006                          EXTEND
000189: 21,2251           71502                          MP       T5TEMP
000190: 21,2252           53520                          DXCH     DELTEMPY
000191: 21,2253           31643                          CA       AMGB7
000192: 21,2254           00006                          EXTEND
000193: 21,2255           71502                          MP       T5TEMP
000194: 21,2256           53522                          DXCH     DELTEMPZ
000195: 21,2257           30034                          CA       CDUZ
000196: 21,2260           57637                          XCH      RHO2
000197: 21,2261           00006                          EXTEND
000198: 21,2262           21637                          MSU      RHO2
000199: 21,2263           40000                          COM
000200: 21,2264           55502                          TS       T5TEMP                                #  (CDUZ - RHO2)    SCALED 90 DEGS
000201: 21,2265           00006                          EXTEND
000202: 21,2266           71642                          MP       AMGB5
000203: 21,2267           21520                          DAS      DELTEMPY                              #  DELTEMPY =AMGB4(CDUY-RHO1)
000204:                                                                                                 #                                                           + AMGB5(CDUZ-RHO2)
000205: 21,2270           31644                          CA       AMGB8
000206: 21,2271           00006                          EXTEND
000207:                                                                                                 # # Page 974
000208: 21,2272           71502                          MP       T5TEMP
000209: 21,2273           21522                          DAS      DELTEMPZ                              #  DELTEMPZ =AMBG7(CDUY-RHO1)
000210:                                                                                                 #                                                          + AMGB8(CDUZ-RHO2)
000211: 21,2274           34711                          CAF      TWO
000212: 21,2275           55506        ADOTLOOP          TS       SPNDX
000213: 21,2276           60000                          DOUBLE
000214: 21,2277           55507                          TS       DPNDX
000215: 21,2300           00006                          EXTEND
000216: 21,2301           51507                          INDEX    DPNDX
000217: 21,2302           31516                          DCA      DELTEMPX
000218: 21,2303           51507                          INDEX    DPNDX
000219: 21,2304           21553                          DAS      DRHO
000220: 21,2305           00006                          EXTEND
000221: 21,2306           51507                          INDEX    DPNDX
000222: 21,2307           31516                          DCA      DELTEMPX
000223: 21,2310           51507                          INDEX    DPNDX
000224: 21,2311           21542                          DAS      MERRORX
000225: 21,2312           51507                          INDEX    DPNDX
000226: 21,2313           31552                          CA       DRHO
000227: 21,2314           60000                          DOUBLE                                         #  N.B.
000228: 21,2315           60000                          DOUBLE                                         #  N.B.
000229: 21,2316           00006                          EXTEND
000230: 21,2317           51617                          INDEX    ATTKALMN                              #  PICK UP DESIRED FILTER GAINS
000231: 21,2320           73101                          MP       GAIN2
000232: 21,2321           51507                          INDEX    DPNDX                                 #  ADOT  + (.16)(.1)DRHO
000233: 21,2322           21534                          DAS      ADOT                                  #      -1
000234: 21,2323           51506                          INDEX    SPNDX                                 #  S/C TORQUE TO INERTIA RATIO
000235: 21,2324           31620                          CA       KMJ                                   #  SCALED (450)(1600)/(57.3)(16384)=1/1.3
000236: 21,2325           00006                          EXTEND
000237: 21,2326           51506                          INDEX    SPNDX
000238: 21,2327           71547                          MP       DFT
000239: 21,2330           51507                          INDEX    DPNDX
000240: 21,2331           21534                          DAS      ADOT                                  #  KMJ(DFT)
000241: 21,2332           11506                          CCS      SPNDX
000242: 21,2333           12275                          TCF      ADOTLOOP                              #  END CALCULATION OF VEHICLE RATES
000243: 21,2334           31560        KMATRIX           CA       ATTSEC
000244: 21,2335           74721                          MASK     LOW4
000245: 21,2336           10000                          CCS      A
000246: 21,2337           12345                          TCF      TENTHSEK
000247: 21,2340           37671                          CAF      PRIO34                                #  CALL FOR 1 SEC UPDATE OF TRANSFORMATION
000248: 21,2341           05027                          TC       NOVAC                                 #  MATRIX FROM GIMBAL AXES TO BODY AXES
000249: 21,2342  E6,1510                                 EBANK=   KMPAC
000250: 21,2342           03444 44066                    2CADR    AMBGUPDT
000251: 21,2344           34334                          CAF      NINE
000252:
000253: 21,2345           55560        TENTHSEK          TS       ATTSEC
000254:
000255:                                                                                                 # # Page 975
000256:                                                                                                 #  WHEN AUTOMATIC MANEUVERS ARE BEING PERFORMED, THE FOLLOWING ANGLE ADDITION MUST BE MADE TO PROVIDE A SMOOTH
000257:                                                                                                 #  SEQUENCE OF ANGULAR COMMANDS TO THE AUTOPILOT--
000258:
000259:                                                                                                 #           CDUXD = CDUXD + DELCDUX    (DOUBLE PRECISION)
000260:                                                                                                 #           CDUYD = CDUYD + DELCDUY    (DOUBLE PRECISION)
000261:                                                                                                 #           CDUZD = CDUZD + DELCDUZ    (DOUBLE PRECISION)
000262:
000263:                                                                                                 #  THE STEERING PROGRAMS-
000264:                                                                                                 #           1) ATTITUDE MANEUVER ROUTINE
000265:                                                                                                 #           2) LEM TRACKING
000266:
000267:                                                                                                 #  SHOULD GENERATE THE DESIRED ANGLES (CDUXD, CDUYD, CDUZD) AS WELL AS THE INCREMENTAL ANGLES (DELCDUX, DELCDUY,
000268:                                                                                                 #  DELCDUZ) SO THAT THE GIMBAL ANGLE COMMANDS CAN BE INTERPOLATED BETWEEN UPDATES.
000269:
000270:                                                                                                 #  HOLDFLAG CODING-
000271:
000272:                                                                                                 #      +  = GRAB PRESENT CDU ANGLES AND STORE IN THETADX, THETADY, THETADZ
000273:                                                                                                 #           AND PERFORM ATTITUDE HOLD ABOUT THESE ANGLES
000274:                                                                                                 #           ALSO IGNORE AUTOMATIC STEERING
000275:                                                                                                 #           SET = + BY
000276:                                                                                                 #                  1) INITIALIZATION PHASE OF AUTOPILOT
000277:                                                                                                 #                  2) OCCURANCE OF RHC COMMANDS
000278:                                                                                                 #                  3) FREE MODE
000279:                                                                                                 #                  4) SWITCH OVER TO ATTITUDE HOLD FROM AUTO
000280:                                                                                                 #                     WHILE DOING AUTOMATIC STEERING (IN THIS CASE
000281:                                                                                                 #                     HOLDFLAG IS NOT ACTUALLY SET TO +, BUT THE LOGIC
000282:                                                                                                 #                     FUNCTIONS AS IF IT WERE.)
000283:                                                                                                 #                  5) S/C CONTROL SWITCH IN SCS
000284:                                                                                                 #                  6) IMU POWER OFF
000285:                                                                                                 #      +0 = IN ATTITUDE HOLD ABOUT A PREVIOUSLY ESTABLISHED REFERENCE
000286:                                                                                                 #       - = PERFORMING AUTOMATIC MANEUVER
000287:                                                                                                 #      -0 = NOT USED AT PRESENT
000288:
000289:
000290:                                                                                                 #         NOTE THAT THIS FLAG MUST BE  SET = -  BY THE STEERING PROGRAM IF IT IS TO COMMAND THE AUTOPILOT.
000291:                                                                                                 #  SINCE ASTRONAUT ACTION MAY CHANGE THE HOLDFLAG SETTING, IT SHOULD BE MONITORED BY THE STEERING PROGRAM TO
000292:                                                                                                 #  DETERMINE IF THE AUTOMATIC SEQUENCE HAS BEEN INTERRUPTED AND IF SO, TAKE APPROPRIATE ACTION.
000293:
000294:
000295: 21,2346           41332                          CS       HOLDFLAG
000296: 21,2347           00006                          EXTEND
000297: 21,2350           62375                          BZMF     DACNDLS                               #  IF HOLDFLAG +0,-0,+, BYPASS AUTOMATIC
000298:                                                                                                 #                                           COMMANDS
000299: 21,2351           34711        DCDUINCR          CAF      TWO
000300: 21,2352           55506        DELOOP            TS       SPNDX
000301: 21,2353           60000                          DOUBLE
000302: 21,2354           55507                          TS       DPNDX
000303: 21,2355           00006                          EXTEND
000304: 21,2356           50000                          INDEX    A
000305: 21,2357           31647                          DCA      CDUXD
000306:                                                                                                 # # Page 976
000307: 21,2360           53511                          DXCH     KMPAC
000308: 21,2361           00006                          EXTEND
000309: 21,2362           51507                          INDEX    DPNDX
000310: 21,2363           31576                          DCA      DELCDUX
000311: 21,2364           02040                          TC       DPADD
000312: 21,2365           00006                          EXTEND
000313: 21,2366           31511                          DCA      KMPAC
000314: 21,2367           51506                          INDEX    SPNDX
000315: 21,2370           55572                          TS       THETADX
000316: 21,2371           51507                          INDEX    DPNDX
000317: 21,2372           53647                          DXCH     CDUXD
000318: 21,2373           11506                          CCS      SPNDX
000319: 21,2374           12352                          TCF      DELOOP
000320:
000321:                                                                                                 # # Page 977
000322:                                                                                                 #  RCS-CSM AUTOPILOT ATTITUDE ERROR DISPLAY
000323:
000324:                                                                                                 #  THREE TYPES OF ATTITUDE ERRORS MAY BE DISPLAYED ON THE FDAI-
000325:
000326:                                                                                                 #           MODE 1) AUTOPILOT FOLLOWING ERRORS                 SELECTED BY V61E
000327:                                                                                                 #                   GENERATED INTERNALLY BY THE AUTOPILOT
000328:
000329:                                                                                                 #           MODE 2) TOTAL ATTITUDE ERRORS                      SELECTED BY V62E
000330:                                                                                                 #                   WITH RESPECT TO THE CONTENTS OF N22
000331:
000332:                                                                                                 #           MODE 3) TOTAL ASTRONAUT ATTITUDE ERRORS            SELECTED BY V63E
000333:                                                                                                 #                   WITH RESPECT TO THE CONTENTS OF N17
000334:
000335:                                                                                                 #  MODE 1 IS PROVIDED AS A MONITOR OF THE RCS DAP AND ITS ABILITY TO TRACK AUTOMATIC STEERING COMMANDS.  IN THIS
000336:                                                                                                 #  MODE THE ATTITUDE ERRORS WILL BE ZEROED WHEN THE CMC MODE SWITCH IS IN FREE
000337:
000338:                                                                                                 #  MODE 2 IS PROVIDED TO ASSIST THE CREW IN MANUALLY MANEUVERING THE S/C TO THE ATTITUDE (GIMBAL ANGLES) SPECIFIED
000339:                                                                                                 #  IN N22.  THE ATTITUDE ERRORS WRT THESE ANGLES AND THE CURRENT CDU ANGLES ARE RESOLVED INTO S/C CONTROL AXES
000340:                                                                                                 #  AS A FLY-TO INDICATOR.
000341:
000342:                                                                                                 #  MODE 3 IS PROVIDED TO ASSIST THE CREW IN MANUALLY MANEUVERING THE S/C TO THE ATTITUDE (GIMBAL ANGLES) SPECIFIED
000343:                                                                                                 #  IN N17.  THE ATTITUDE ERRORS WRT THESE ANGLES AND THE CURRENT CDU ANGLES ARE RESOLVED INTO S/C CONTROL AXES
000344:                                                                                                 #  AS A FLY-TO INDICATOR.
000345:
000346:                                                                                                 #     V60 IS PROVIDED TO LOAD N17 WITH A SNAPSHOT OF THE CURRENT CDU ANGLES, THUS SYNCHRONIZING THE MODE 3 DISPLAY
000347:                                                                                                 #  WITH THE CURRENT S/C ATTITUDE.  THIS VERB MAY BE USED AT ANY TIME.
000348:
000349:                                                                                                 #     THESE DISPLAYS WILL BE AVAILIABLE IN ANY MODE (AUTO, HOLD, FREE, G+N, OR SCS) ONCE THE RCS DAP HAS BEEN
000350:                                                                                                 #  INITIATED VIA V46E.  MODE 1, HOWEVER, WILL BE MEANINGFUL ONLY IN G+N AUTO OR HOLD.  THE CREW MAY PRESET (VIA
000351:                                                                                                 #  V25N17) AN ATTITUDE REFERENCE (DESIRED GIMBAL ANGLES) INTO N17 AT ANY TIME.
000352:
000353:
000354: 21,2375           41501        DACNDLS           CS       RCSFLAGS                              #  ALTERNATE  BETWEEN FDAIDSP1 AND FDAIDSP2
000355: 21,2376           74707                          MASK     BIT4
000356: 21,2377           00006                          EXTEND
000357: 21,2400           13144                          BZF      FDAIDSP2
000358:
000359: 21,2401           27501        FDAIDSP1          ADS      RCSFLAGS
000360: 21,2402           02404                          TC       NEEDLER
000361: 21,2403           15222        KRESUME1          TCF      RESUME                                #  END PHASE 1
000362:
000363:                                                                                                 # # Page 978
000364:                                                                                                 #  FDAI ATTITUDE ERROR DISPLAY SUBROUTINE
000365:
000366:                                                                                                 #  PROGRAM DESCRIPTION:    D. KEENE   5/24/67
000367:
000368:                                                                                                 #      THIS SUBROUTINE IS USED TO DISPLAY ATTITUDE ERRORS ON THE FDAI VIA THE DIGITAL TO ANALOG CONVERTERS (DACS)
000369:                                                                                                 #  IN THE CDUS.  CARE IS TAKEN TO METER OUT THE APPROPRIATE NUMBER OF PULSES TO THE IMU ERROR COUNTERS AND PREVENT
000370:                                                                                                 #  OVERFLOW, TO CONTROL THE RELAY SEQUENCING, AND TO AVOID INTERFERENCE WITH THE COARSE ALIGN LOOP WHICH ALSO USES
000371:                                                                                                 #  THE DACS.
000372:
000373:
000374:                                                                                                 #  CALLING SEQUENCE:
000375:
000376:                                                                                                 #      DURING THE INITIALIZATION SECTION OF THE USER'S PROGRAM, BIT3 OF RCSFLAGS SHOULD BE SET TO INITIATE THE
000377:                                                                                                 #  TURN-ON SEQUENCE WITHIN THE NEEDLES PROGRAM:
000378:
000379:                                                                                                 #           CS     RCSFLAGS        IN EBANK6
000380:                                                                                                 #           MASK   BIT3
000381:                                                                                                 #           ADS    RCSFLAGS
000382:
000383:                                                                                                 #  THEREAFTER, THE ATTITUDE ERRORS GENERATED BY THE USER SHOULD BE TRANFERRED TO THE FOLLOWING LOCATIONS IN EBANK6:
000384:
000385:                                                                                                 #           AK     SCALED 180 DEGREES  NOTE: THESE LOCATIONS ARE SUBJECT
000386:                                                                                                 #           AK1    SCALED 180 DEGREES        TO CHANGE
000387:                                                                                                 #           AK2    SCALED 180 DEGREES
000388:
000389:                                                                                                 #  FULL SCALED DEFLECTION CORRESPONDS TO 16 7/8 DEGREES OF ATTITUDE ERROR
000390:                                                                                                 #           (= 384 BITS IN IMU ERROR COUNTER)
000391:
000392:                                                                                                 #  A CALL TO NEEDLER WILL THEN UPDATE THE DISPLAY:
000393:
000394:                                                                                                 #           INHINT
000395:                                                                                                 #           TC     IBNKCALL        NOTE: EBANK SHOULD BE SET TO E6
000396:                                                                                                 #           CADR   NEEDLER
000397:                                                                                                 #           RELINT
000398:
000399:                                                                                                 #      THIS PROCESS SHOULD BE REPEATED EACH TIME THE ERRORS ARE UPDATED.  AT LEAST 3 PASSES THRU THE PRORAM ARE
000400:                                                                                                 #  REQUIRED BEFORE ANYTHING IS ACTUALLY DISPLAYED ON THE ERROR METERS.
000401:                                                                                                 #  NOTE: EACH CALL TO NEEDLER MUST BE SEPARATED BY AT LEAST 50MS TO ASSURE PROPER RELAY SEQUENCING.
000402:
000403:                                                                                                 #  ERASABLE USED:
000404:                                                                                                 #                       AK         CDUXCMD
000405:                                                                                                 #                       AK1        CDUYCMD
000406:                                                                                                 #                       AK2        CDUZCMD
000407:                                                                                                 #                       EDRIVEX    A,L,Q
000408:                                                                                                 #                       EDRIVEY    T5TEMP
000409:                                                                                                 #                       EDRIVEZ    SPNDX
000410:
000411:                                                                                                 #  SWITCHES:            RCSFLAGS   BITS 3,2
000412:
000413:                                                                                                 #  I/O CHANNELS:        CHAN12     BIT 4 (COARSE ALIGN - READ ONLY)
000414:                                                                                                 # # Page 979
000415:                                                                                                 #                       CHAN12     BIT 6 (IMU ERROR COUNTER ENABLE)
000416:                                                                                                 #                       CHAN14     BIT 13,14,15 (DAC ACTIVITY)
000417:
000418:
000419:                                                                                                 #  SIGN CONVENTION<   AK = THETAC - THETA
000420:                                                                                                 #            WHERE    THETAC = COMMAND ANGLE
000421:                                                                                                 #                     THETA = PRESENT ANGLE
000422:
000423:
000424: 21,2404           34707        NEEDLER           CAF      BIT4                                  #  CHECK FOR COARSE ALIGN ENABLE
000425: 21,2405           00006                          EXTEND                                         #  IF IN COARSE ALIGN DO NOT USE IMU
000426: 21,2406           02012                          RAND     CHAN12                                #  ERROR COUNTERS. DONT USE NEEDLES
000427: 21,2407           00006                          EXTEND
000428: 21,2410           12415                          BZF      NEEDLER1
000429: 21,2411           41501                          CS       RCSFLAGS                              #  SET BIT3 FOR INITIALIZATION PASS
000430: 21,2412           74710                          MASK     BIT3
000431: 21,2413           27501                          ADS      RCSFLAGS
000432: 21,2414           00002                          TC       Q
000433:
000434: 21,2415           31501        NEEDLER1          CA       RCSFLAGS
000435: 21,2416           76211                          MASK     SIX
000436: 21,2417           00006                          EXTEND
000437: 21,2420           12455                          BZF      NEEDLES3
000438: 21,2421           74710                          MASK     BIT3
000439: 21,2422           00006                          EXTEND
000440: 21,2423           12446                          BZF      NEEDLER2                              #  BIT3 = 0, BIT2 = 1
000441:
000442: 21,2424           44705                          CS       BIT6                                  #  FIRST PASS BIT3 = 1
000443: 21,2425           00006                          EXTEND                                         #  DISABLE IMU ERROR COUNTER TO ZERO DACS
000444: 21,2426           03012                          WAND     CHAN12                                #  MUST WAIT AT LEAST 60 MS BEFORE
000445: 21,2427           44714        NEEDLE11          CS       ZERO                                  #  ENABLING COUNTERS.
000446: 21,2430           55476                          TS       AK                                    #  ZERO THE INPUTS ON FIRST PASS
000447: 21,2431           55477                          TS       AK1
000448: 21,2432           55500                          TS       AK2
000449: 21,2433           55503                          TS       EDRIVEX                               #  ZERO THE DISPLAY REGISTERS
000450: 21,2434           55504                          TS       EDRIVEY
000451: 21,2435           55505                          TS       EDRIVEZ
000452: 21,2436           54050                          TS       CDUXCMD                               #  ZERO THE OUT COUNTERS
000453: 21,2437           54051                          TS       CDUYCMD
000454: 21,2440           54052                          TS       CDUZCMD
000455: 21,2441           46211                          CS       SIX                                   #  RESET RCSFLAGS FOR PASS2
000456: 21,2442           71501                          MASK     RCSFLAGS
000457: 21,2443           64711                          AD       BIT2
000458: 21,2444           55501                          TS       RCSFLAGS
000459: 21,2445           00002                          TC       Q                                     #  END PASS1
000460:
000461: 21,2446           34705        NEEDLER2          CAF      BIT6                                  #  ENABLE IMU ERROR COUNTERS
000462: 21,2447           00006                          EXTEND
000463: 21,2450           05012                          WOR      CHAN12
000464: 21,2451           46211                          CS       SIX                                   #  RESET RCSFLAGS TO DISPLAY ATTITUDE
000465:                                                                                                 # # Page 980
000466: 21,2452           71501                          MASK     RCSFLAGS                              #  ERRORS    WAIT ATLEAST 4 MS FOR
000467: 21,2453           55501                          TS       RCSFLAGS                              #  RELAY CLOSURE
000468: 21,2454           00002                          TC       Q
000469:
000470:
000471: 21,2455           34705        NEEDLES3          CAF      BIT6                                  #  CHECK TO SEE IF IMU ERROR COUNTER
000472: 21,2456           00006                          EXTEND                                         #  IS ENABLED
000473: 21,2457           02012                          RAND     CHAN12
000474: 21,2460           00006                          EXTEND                                         #  IF NOT RECYCLE NEEDLES
000475: 21,2461           12411                          BZF      NEEDLER    +5
000476:
000477: 21,2462           34711        NEEDLES           CAF      TWO
000478: 21,2463           55506        DACLOOP           TS       SPNDX
000479: 21,2464           44676                          CS       QUARTER
000480: 21,2465           00006                          EXTEND
000481: 21,2466           51506                          INDEX    SPNDX
000482: 21,2467           71476                          MP       AK
000483: 21,2470           54001                          TS       L
000484: 21,2471           10000                          CCS      A
000485: 21,2472           32526                          CA       DACLIMIT
000486: 21,2473           12475                          TCF      +2
000487: 21,2474           42526                          CS       DACLIMIT
000488: 21,2475           60001                          AD       L
000489: 21,2476           55502                          TS       T5TEMP                                #  OVFLO CHK
000490: 21,2477           12503                          TCF      +4
000491: 21,2500           50000                          INDEX    A                                     #  ON OVERFLOW LIMIT OUTPUT TO +-384
000492: 21,2501           32526                          CAF      DACLIMIT
000493: 21,2502           54001                          TS       L
000494: 21,2503           51506                          INDEX    SPNDX
000495: 21,2504           41503                          CS       EDRIVEX                               #  CURRENT VALUE OF DAC
000496: 21,2505           60001                          AD       L
000497: 21,2506           51506                          INDEX    SPNDX
000498: 21,2507           26050                          ADS      CDUXCMD
000499: 21,2510           51506                          INDEX    SPNDX
000500: 21,2511           23503                          LXCH     EDRIVEX
000501: 21,2512           11506                          CCS      SPNDX
000502: 21,2513           12463                          TCF      DACLOOP
000503: 21,2514           37707                          CAF      13,14,15
000504: 21,2515           00006                          EXTEND
000505: 21,2516           05014                          WOR      CHAN14                                #  SET DAC ACTIVITY BITS
000506: 21,2517           00002                          TC       Q
000507:
000508: 21,2520           32524        REINIT            CAF      DELAY200                              #  ........TILT LOGIC
000509: 21,2521           54030                          TS       TIME5                                 #  REINITIALIZE DAP IN 200MS
000510: 21,2522           55465                          TS       T5PHASE
000511: 21,2523           15222                          TCF      RESUME
000512: 21,2524           37754        DELAY200          DEC      16364      B-14                       #  200MS
000513:
000514:
000515: 21,2525           77177                          DEC      -384       B-14
000516:
000517:                                                                                                 # # Page 981
000518: 21,2526           37200        DACLIMIT          DEC      16000      B-14
000519: 21,2527           00600                          DEC      384        B-14
000520:
000521:                                                                                                 # # Page 982
000522:                                                                                                 #  INITIALIZATION PROGRAM FOR RCS-CSM AUTOPILOT
000523:
000524:                                                                                                 #  THE FOLLOWING QUANTITIES WILL BE ZEROED AND SHOULD APPEAR IN CONSECUTIVE LOCATIONS IN MEMORY AFTER WBODY
000525:
000526:                                                                                                 #  WBODY   (+1)    DFT             TAU2
000527:                                                                                                 #  WBODY1  (+1)    DFT1            BIAS
000528:                                                                                                 #  WBODY2  (+1)    DFT2            BIAS1
000529:                                                                                                 #  ADOT    (+1)    DRHO   (+1)     BIAS2
000530:                                                                                                 #  ADOT1   (+1)    DRHO1  (+1)     ERRORX
000531:                                                                                                 #  ADOT2   (+1)    DRHO2  (+1)     ERRORY
000532:                                                                                                 #  MERRORX (+1)    ATTSEC          ERRORZ
000533:                                                                                                 #  MERRORY (+1)    TAU
000534:                                                                                                 #  MERRORZ (+1)    TAU1
000535: 21,2530           34712        FRESHDAP          CAF      ONE                                   #  RESET HOLDFLAG TO STOP AUTOMATIC
000536: 21,2531           55332                          TS       HOLDFLAG                              #  STEERING AND PREPARE TO PICK UP AN
000537:                                                                                                 #                                           ATTITUDE HOLD REFERENCE
000538:
000539: 21,2532           04633        REDAP             TC       IBNKCALL                              #  DECODE DAPDATR1, DAPDATR2 FOR DEADBANDS
000540: 21,2533           40145                          CADR     S41.2                                 #  RATES, QUADFAILS, QUAD MANAGEMENT
000541:
000542: 21,2534           04633                          TC       IBNKCALL                              #  DECODE IXX, IAVG, AND CONVERT
000543: 21,2535           40276                          CADR     S40.14                                #  TO AUTOPILOT GAINS
000544:
000545: 21,2536           32607                          CAF      NO.T5VAR                              #  NO. LOCATIONS TO BE ZEROED MINUS ONE
000546: 21,2537           55506        ZEROT5            TS       SPNDX                                 #  ZERO ALL NECESSARY ERASABLE REGISTERS
000547: 21,2540           34714                          CAF      ZERO
000548: 21,2541           51506                          INDEX    SPNDX
000549: 21,2542           55525                          TS       WBODY
000550: 21,2543           11506                          CCS      SPNDX
000551: 21,2544           12537                          TCF      ZEROT5
000552: 21,2545           02616                          TCR      ZEROJET
000553:
000554: 21,2546           44714                          CS       ZERO
000555: 21,2547           55633                          TS       CHANTEMP                              #  INITIALIZE MINIMUM IMPULSE CONTROL
000556:
000557: 21,2550           55632                          TS       CH31TEMP                              #  INITIALIZE RHC POSITION MEMORY FOR
000558:                                                                                                 #                                           MANUAL RATE MODES
000559: 21,2551           32610                          CAF      =.24
000560: 21,2552           55654                          TS       SLOPE                                 #  INITIALIZE SWITCHING LOGIC SLOPE
000561:
000562: 21,2553           34710                          CAF      FOUR
000563: 21,2554           55634                          TS       T5TIME                                #  PHASE 0 RESETS FOR PHASE 2 INTERRUPT IN
000564:                                                                                                 #                                           60 MS. PHASE 2 RESETS FOR PHASE 1 RUPT
000565:                                                                                                 #                                           IN (80MS - T5TIME(40MS)). THEREFORE
000566:                                                                                                 #                                           PHASE 1 (RATEFILTER) BEGINS CYCLING 100
000567:                                                                                                 #                                           MS FROM NOW AND EVERY 100MS THEREAFTER
000568:
000569: 21,2555           34717                          CAF      ELEVEN
000570: 21,2556           55617                          TS       ATTKALMN                              #  RESET TO PICK UP KALMAN FILTER TAINS
000571:                                                                                                 #                                           TO INITIALIZE THE S/C ANGULAR RATES
000572:                                                                                                 # # Page 983
000573: 21,2557           30032                          CA       CDUX
000574: 21,2560           55635                          TS       RHO
000575: 21,2561           30033                          CA       CDUY
000576: 21,2562           55636                          TS       RHO1
000577: 21,2563           30034                          CA       CDUZ
000578: 21,2564           55637                          TS       RHO2
000579: 21,2565           34714                          CAF      ZERO                                  #  RESET AUTOPILOT TO BEGIN EXECUTING
000580: 21,2566           55465                          TS       T5PHASE                               #  PHASE2 OF PROGRAM
000581:
000582: 21,2567           41321                          CS       IMODES33                              #  CHECK IMU STATUS
000583: 21,2570           74705                          MASK     BIT6                                  #  IF BIT6 = 0 IMU IN FINE ALIGN
000584: 21,2571           10000                          CCS      A                                     #  IF BIT6 = 1 IMU NOT READY
000585: 21,2572           12576                          TCF      IMUAOK
000586: 21,2573           55617                          TS       ATTKALMN                              #  CANNOT USE IMU
000587: 21,2574           32612                          CAF      RCSINITB                              #  PROVIDE FREE CONTROL ONLY
000588: 21,2575           12603                          TCF      RCSSWIT                               #  DONT START UP RATE FILTER
000589:                                                                                                 #                                           SIGNAL NO RATE FILTER
000590:
000591: 21,2576           37671        IMUAOK            CAF      PRIO34                                #  START MATRIX INITIALIZATION
000592: 21,2577           05027                          TC       NOVAC                                 #  BYPASS IF IMU NOT IN FINE ALIGN
000593: 21,2600  E6,1510                                 EBANK=   KMPAC
000594: 21,2600           03444 44066                    2CADR    AMBGUPDT
000595: 21,2602           32611                          CAF      RCSINIT                               #  CLEAR BIT14 -ASSUME WE HAVE A GOOD IMU
000596: 21,2603           55501        RCSSWIT           TS       RCSFLAGS                              #  CLEAR BIT1  -INITIALIZE T6 PROGRAM
000597:                                                                                                 #                                             SET BIT3  -INITIALIZE NEEDLES
000598:                                                                                                 #                                           CLEAR BIT4  -RESET FOR FDAIDSP1
000599: 21,2604           32613                          CAF      T5WAIT60                              #  NEXT T5RUPT 60 MS FROM NOW TO ALLOW IMU
000600:                                                                                                 #                                           ERROR COUNTER TO ZERO.
000601:                                                                                                 #                                           (MINIMUM DELAY = 15 MS)
000602: 21,2605           54030                          TS       TIME5                                 #  SINCE ATTKALMN IS +11, PROGRAM WILL THEN
000603: 21,2606           05222                          TC       RESUME                                #  PICK UP THE KALMAN FILTER GAINS. RATE
000604:                                                                                                 #                                           FILTER WILL BEGIN OPERATING ZOOMS FROM
000605:                                                                                                 #                                           NOW
000606:
000607:                                                                                                 #  CONSTANTS USED IN INITIALIZATION PROGRAM
000608:
000609: 21,2607           00044        NO.T5VAR          DEC      36         B-14
000610: 21,2610           07534        =.24              DEC      .24                                   #  = SLOPE OF 0.6/SEC
000611: 21,2611           00004        RCSINIT           OCT      00004
000612: 21,2612           20004        RCSINITB          OCT      20004
000613: 21,2613           37772        T5WAIT60          DEC      16378      B-14                       #  = 6 CS
000614: 21,2614  E6,1510                                 EBANK=   KMPAC
000615: 21,2614           03646 36066  T6ADDR            2CADR    T6START
000616:
000617:
000618: 21,2616           34717        ZEROJET           CAF      ELEVEN                                #  ZERO  BLAST2, BLAST1, BLAST, YWORD2,
000619: 21,2617           55506                          TS       SPNDX                                 #  YWORD1, PWORD2, PWORD1, RWORD2,
000620: 21,2620           34714                          CAF      ZERO                                  #  AND RWORD1.
000621:                                                                                                 # # Page 984
000622: 21,2621           51506                          INDEX    SPNDX
000623: 21,2622           55451                          TS       RWORD1
000624: 21,2623           11506                          CCS      SPNDX
000625: 21,2624           12617                          TCF      ZEROJET    +1
000626:
000627: 21,2625           34710                          CAF      FOUR
000628: 21,2626           55462                          TS       BLAST1     +1
000629: 21,2627           34717                          CAF      ELEVEN
000630: 21,2630           55464                          TS       BLAST2     +1
000631:
000632: 21,2631           44712                          CS       BIT1
000633: 21,2632           71501                          MASK     RCSFLAGS
000634: 21,2633           55501                          TS       RCSFLAGS                              #  RESET BIT1 OF RCSFLAGS TO 0
000635:
000636: 21,2634           00006                          EXTEND
000637: 21,2635           32615                          DCA      T6ADDR
000638: 21,2636           53311                          DXCH     T6LOC
000639: 21,2637           33034                          CAF      =+14MS                                #  ENABLE T6RUPT TO SHUT OFF JETS IN 14 MS.
000640: 21,2640           54031                          TS       TIME6
000641: 21,2641           34674                          CAF      BIT15
000642: 21,2642           00006                          EXTEND
000643: 21,2643           05013                          WOR      CHAN13
000644:
000645: 21,2644           00002                          TC       Q
000646:
000647: 21,2645           11617        T5PHASE2          CCS      ATTKALMN                              #  IF (+) INITIALIZE RATE ESTIMATE
000648: 21,2646           13132                          TCF      KALUPDT
000649:
000650:
000651: 21,2647           12651                          TCF      +2                                    #  ONLY IF ATTKALMN POSITIVE
000652: 21,2650           12651                          TCF      +1
000653: 21,2651           32142                          CA       DELTATT2                              #  RESET FOR PHASE3 IN 20 MS
000654: 21,2652           56030                          XCH      TIME5                                 #  (JET SELECTION LOGIC )
000655: 21,2653           27634                          ADS      T5TIME                                #  TO COMPENSATE FOR DELAYS IN T5RUPT
000656:
000657:
000658: 21,2654           31501                          CA       RCSFLAGS                              #  IF A HIGH RATE AUTO MANEUVER IS IN
000659: 21,2655           74674                          MASK     BIT15                                 #  PROGRESS (BIT 15 OF RCSFLAGS SET), SET
000660: 21,2656           00006                          EXTEND                                         #  ATTKALMN TO -1
000661: 21,2657           12661                          BZF      NOHIAUTO                              #  OTHERWISE SET ATTKALMN TO 0.
000662: 21,2660           44712                          CS       ONE
000663: 21,2661           55617        NOHIAUTO          TS       ATTKALMN
000664:
000665:                                                                                                 # # Page 985
000666:                                                                                                 #           MANUAL ROTATION COMMANDS
000667: 21,2662           43016                          CS       OCT01760                              #  RESET FORCED FIRING BITS (BITS 10 TO 5
000668: 21,2663           71501                          MASK     RCSFLAGS                              #  OF RCSFLAGS) TO ZERO
000669: 21,2664           55501                          TS       RCSFLAGS
000670:
000671: 21,2665           00006                          EXTEND
000672: 21,2666           00031                          READ     CHAN31
000673: 21,2667           54001                          TS       L
000674: 21,2670           31632                          CA       CH31TEMP
000675: 21,2671           00006                          EXTEND
000676: 21,2672           06001                          RXOR     LCHAN
000677: 21,2673           73022                          MASK     MANROT                                #  = OCT00077
000678: 21,2674           00006                          EXTEND
000679: 21,2675           62710                          BZMF     NOCHANGE
000680:
000681: 21,2676           22000                          LXCH     A
000682: 21,2677           55632                          TS       CH31TEMP                              #  SAVE CONTENTS OF CHANNEL 31 IN CH31TEMP
000683:
000684: 21,2700           30001                          CA       L
000685: 21,2701           00006                          EXTEND
000686: 21,2702           74706                          MP       BIT5                                  #  PUT BITS 6-1 OF A IN BITS 10-5 OF L
000687: 21,2703           30001                          CA       L
000688: 21,2704           27501                          ADS      RCSFLAGS                              #  SET FORCED FIRING BITS FOR AXES WITH
000689:                                                                                                 #                                           WITH CHANGES IN COMMAND. BITS 10,9 FOR
000690:                                                                                                 #                                           ROLL, BITS 8,7 FOR YAW, BITS 6,5 FOR
000691:                                                                                                 #                                           PITCH
000692:
000693: 21,2705           41501                          CS       RCSFLAGS                              #  SET RATE DAMPING FLAGS (BITS 13,12,AND
000694: 21,2706           73023                          MASK     OCT16000                              #  11 OF RCSFLAGS)
000695: 21,2707           27501                          ADS      RCSFLAGS
000696:
000697: 21,2710           41632        NOCHANGE          CS       CH31TEMP
000698: 21,2711           73022                          MASK     MANROT
000699: 21,2712           00006                          EXTEND
000700: 21,2713           63234                          BZMF     AHFNOROT                              #  IF NO MANUAL COMMANDS, GO TO AHFNOROT
000701:
000702: 21,2714           55332                          TS       HOLDFLAG                              #  SET HOLDFLAG +
000703:
000704: 21,2715           03114                          TC       STICKCHK                              #  WHEN THE RHC IS OUT OF DETENT, PMANNDX,
000705:                                                                                                 #                                           YMANNDX, AND RMANNDX ARE ALL SET, BY
000706:                                                                                                 #                                           MEANS OF STICKCHK, TO 0, 1, OR 2 FOR NO,
000707:                                                                                                 #                                           +, OR - ROTATION RESPECTIVELY AS
000708:                                                                                                 #                                           COMMANDED BY THE RHC.
000709:
000710:                                                                                                 #                                           HOWEVER, IT IS WELL TO NOTE THAT AFTER
000711:                                                                                                 #                                           THE RHC IS RETURNED TO DETENT, THE
000712:                                                                                                 #                                           PROGRAM BRANCHES TO AHFNOROT AND AVOIDS
000713:                                                                                                 #                                           STICKCHK SO PMANNDX, YMANNDX, AND
000714:                                                                                                 #                                           RMANNDX ARE NOT RESET TO ZERO BUT RATHER
000715:                                                                                                 #                                           LEFT SET TO THEIR LAST OUT OF DETENT
000716:                                                                                                 # # Page 986
000717:                                                                                                 #                                           VALUES.
000718:
000719: 21,2716           40075                          CS       FLAGWRD1                              #  SET STIKFLAG TO INFORM STEERING
000720: 21,2717           74675                          MASK     BIT14                                 #  PROGRAMS (P20) THAT ASTRONAUT HAS
000721: 21,2720           26075                          ADS      FLAGWRD1                              #  ASSUMED ROTATIONAL CONTROL OF SPACECRAFT
000722:
000723: 21,2721           34675                          CAF      BIT14
000724: 21,2722           00006                          EXTEND
000725: 21,2723           02031                          RAND     CHAN31
000726: 21,2724           00006                          EXTEND
000727: 21,2725           63035                          BZMF     FREEFUNC
000728:
000729: 21,2726           31501                          CA       RCSFLAGS                              #  EXAMINE RCSFLAGS TO SEE IF RATE FILTER
000730: 21,2727           74675                          MASK     BIT14                                 #  HAS BEEN INITIALIZED
000731: 21,2730           10000                          CCS      A                                     #  IF SO, PROCEED WITH MANUAL RATE COMMANDS
000732: 21,2731           12520                          TCF      REINIT                                #  .....TILT, RECYCLE TO INITIALIZE FILTER
000733:
000734: 21,2732           44715                          CS       FIVE                                  #  IF MANUAL MANEUVER IS AT HIGH RTE, SET
000735: 21,2733           61130                          AD       RATEINDX                              #  ATTKALMN TO -1.
000736: 21,2734           00006                          EXTEND                                         #  OTHERWISE, LEAVE ATTKALMN ALONE.
000737: 21,2735           62740                          BZMF     +3
000738: 21,2736           44712                          CS       ONE
000739: 21,2737           55617                          TS       ATTKALMN
000740:
000741:
000742: 21,2740           34711                          CAF      TWO                                   #  AUTO-HOLD MANUAL ROTATION
000743: 21,2741           55506        SETWBODY          TS       SPNDX
000744: 21,2742           60000                          DOUBLE
000745: 21,2743           55507                          TS       DPNDX
000746: 21,2744           51506                          INDEX    SPNDX                                 #  RMANNDX = 0 NO ROTATION
000747: 21,2745           31656                          CA       RMANNDX                               #          = 1  + ROTATION
000748: 21,2746           00006                          EXTEND                                         #          = 2  - ROTATION
000749: 21,2747           12771                          BZF      NORATE                                #  IF NO ROTATION COMMAND ON THIS AXIS,
000750:                                                                                                 #                                           GO TO NORATE.
000751:
000752: 21,2750           61130                          AD       RATEINDX                              #  RATEINDX = 0  0.05 DEG/SEC
000753: 21,2751           54002                          TS       Q                                     #           = 2  0.2  DEG/SEC
000754: 21,2752           50002                          INDEX    Q                                     #           = 4  0.5  DEG/SEC
000755: 21,2753           33023                          CA       MANTABLE   -1                         #           = 6  4.0  DEG/SEC
000756: 21,2754           00006                          EXTEND
000757: 21,2755           74702                          MP       BIT9                                  #  MULTIPLY MANTABLE BY 2 TO THE -6
000758: 21,2756           51507                          INDEX    DPNDX                                 #  TO GET COMMANDED RATE.
000759: 21,2757           53526                          DXCH     WBODY                                 #  SET WBODY TO COMMANDED RATE.
000760:
000761: 21,2760           31501                          CA       RCSFLAGS
000762: 21,2761           73023                          MASK     OCT16000                              #  IS RATE DAMPING COMPLETED (BITS 13,12AND
000763: 21,2762           00006                          EXTEND                                         #  11 OF RCSFLAGS ALL ZERO.) IF SO, GO TO
000764: 21,2763           13001                          BZF      MERUPDAT                              #  MERUPDAT TO UPDATE CUMULATIVE ATTITUDE
000765:                                                                                                 #                                           ERROR.
000766:
000767:                                                                                                 # # Page 987
000768: 21,2764           34714        ZEROER            CA       ZERO                                  #  ZEROER ZEROS MERRORS
000769: 21,2765           22007                          ZL
000770: 21,2766           51507                          INDEX    DPNDX
000771: 21,2767           53542                          DXCH     MERRORX
000772: 21,2770           13007                          TCF      SPNDXCHK
000773:
000774: 21,2771           22007        NORATE            ZL
000775: 21,2772           51507                          INDEX    DPNDX
000776: 21,2773           53526                          DXCH     WBODY                                 #  ZERO WBODY FOR THIS AXIS
000777: 21,2774           31501                          CA       RCSFLAGS
000778: 21,2775           73023                          MASK     OCT16000
000779: 21,2776           00006                          EXTEND                                         #  IS RATE DAMPING COMPLETED
000780: 21,2777           13007                          BZF      SPNDXCHK                              #  YES, KEEP CURRENT MERRORX GO TO SPNDXCHK
000781: 21,3000           12764                          TCF      ZEROER                                #  NO,GO TO ZEROER
000782:
000783: 21,3001           50002        MERUPDAT          INDEX    Q                                     #  MERRORX=MERRORX+MEASURED CHANGE IN ANGLE
000784: 21,3002           43023                          CS       MANTABLE   -1                         #  -COMMANDED CHANGE IN ANGLE
000785: 21,3003           00006                          EXTEND                                         #  THE ADDITION OF MEASURED CHANGE IN ANGLE
000786: 21,3004           74704                          MP       BIT7                                  #  HAS ALREADY BEEN DONE IN THE RATE FILTER
000787: 21,3005           51507                          INDEX    DPNDX                                 #  COMMANDED CHANGE IN ANGLE = WBODY TIMES
000788: 21,3006           21542                          DAS      MERRORX                               #  .1SEC = MANTABLE ENTRY TIMES 2 TO THE -8
000789:
000790: 21,3007           51507        SPNDXCHK          INDEX    DPNDX
000791: 21,3010           31541                          CA       MERRORX
000792: 21,3011           51506                          INDEX    SPNDX
000793: 21,3012           55567                          TS       ERRORX                                #  ERRORX = HIGH ORDER WORD OF MERRORX
000794: 21,3013           11506                          CCS      SPNDX
000795: 21,3014           12741                          TCF      SETWBODY
000796: 21,3015           13425                          TCF      JETS
000797:
000798:
000799: 21,3016           01760        OCT01760          OCT      01760                                 #  FORCED FIRING BITS MASK
000800:
000801: 21,3017           01400        OCT01400          OCT      01400                                 #  ROLL FORCED FIRING MASK       ORDER OF
000802: 21,3020           00060        OCT00060          OCT      00060                                 #  PITCH FORCED FIRING MASK      DEFINITION
000803: 21,3021           00300        OCT00300          OCT      00300                                 #  YAW FORCED FIRING MASK        MUST BE
000804:                                                                                                 #                                                                         PRESERVED
000805:                                                                                                 #                                                                       FOR INDEXING
000806: 21,3022           00077        MANROT            OCT      77
000807: 21,3023           16000        OCT16000          OCT      16000                                 #  RATE DAMPING FLAGS MASK
000808: 21,3024           00165        MANTABLE          DEC      .0071111
000809: 21,3025           77612                          DEC      -.0071111
000810: 21,3026           00722                          DEC      .028444
000811: 21,3027           77055                          DEC      -.028444
000812: 21,3030           02215                          DEC      .071111
000813: 21,3031           75562                          DEC      -.071111
000814: 21,3032           22151                          DEC      .568889
000815: 21,3033           55626                          DEC      -.568889
000816: 21,3034           00027        =+14MS            DEC      23         B-14
000817: 21,3035           51656        FREEFUNC          INDEX    RMANNDX                               #  ACCELERATION
000818:                                                                                                 # # Page 988
000819: 21,3036           33047                          CA       FREETAU                               #  COMMANDS
000820: 21,3037           55561                          TS       TAU
000821: 21,3040           51657                          INDEX    PMANNDX
000822: 21,3041           33047                          CA       FREETAU                               #  FREETAU    0 SEC
000823: 21,3042           55562                          TS       TAU1                                  #  +1        +0.10 SEC
000824: 21,3043           51660                          INDEX    YMANNDX                               #  +2        -0.10 SEC
000825: 21,3044           33047                          CA       FREETAU                               #  (+3)       0 SEC
000826: 21,3045           55563                          TS       TAU2
000827: 21,3046           13053                          TCF      T6PROGM
000828:
000829: 21,3047           00000        FREETAU           DEC      0          B-14
000830: 21,3050           00740                          DEC      480        B-14
000831: 21,3051           77037                          DEC      -480       B-14
000832: 21,3052           00000                          DEC      0          B-14
000833:
000834: 21,3053           34714        T6PROGM           CAF      ZERO                                  #  FOR MANUAL ROTATIONS
000835: 21,3054           55567                          TS       ERRORX
000836: 21,3055           55570                          TS       ERRORY
000837: 21,3056           55571                          TS       ERRORZ
000838: 21,3057           13743                          TCF      T6PROG
000839:
000840:                                                                                                 # # Page 989
000841: 21,3060           06604                          DEC      .2112                                 #  FILTER GAIN FOR TRANSLATION, LEM ON
000842: 21,3061           32703                          DEC      .8400                                 #  FILTER GAIN FOR TRANSLATION 2(ZETA)WN DT
000843: 21,3062           06604                          DEC      .2112                                 #  FILTER GAIN FOR 4 DEGREE/SEC MANEUVERS
000844: 21,3063           02031        GAIN1             DEC      .0640                                 #  KALMAN FILTER GAINS FOR INITIALIZATION
000845: 21,3064           12132                          DEC      .3180                                 #  OF ATTITUDE RATES
000846: 21,3065           13030                          DEC      .3452
000847: 21,3066           14047                          DEC      .3774
000848: 21,3067           15241                          DEC      .4161
000849: 21,3070           16650                          DEC      .4634
000850: 21,3071           20555                          DEC      .5223
000851: 21,3072           23065                          DEC      .5970
000852: 21,3073           26137                          DEC      .6933
000853: 21,3074           32053                          DEC      .8151
000854: 21,3075           35712                          DEC      .9342
000855:
000856: 21,3076           00435                          DEC      .0174                                 #  FILTER GAIN FOR TRANSLATION, LEM ON
000857: 21,3077           13412                          DEC      .3600                                 #  FILTER GAIN FOR TRANSLATION (WN)(WN)DT
000858: 21,3100           00435                          DEC      .0174                                 #  FILTER GAIN FOR 4 DEGREE/SEC MANEUVERS
000859: 21,3101           00032        GAIN2             DEC      .0016                                 #  SCALED 10
000860: 21,3102           01350                          DEC      .0454
000861: 21,3103           01575                          DEC      .0545
000862: 21,3104           02103                          DEC      .0666
000863: 21,3105           02523                          DEC      .0832
000864: 21,3106           03327                          DEC      .1069
000865: 21,3107           04432                          DEC      .1422
000866: 21,3110           06264                          DEC      .1985
000867: 21,3111           11351                          DEC      .2955
000868: 21,3112           17324                          DEC      .4817
000869: 21,3113           33622                          DEC      .8683
000870: 21,3114           55502        STICKCHK          TS       T5TEMP
000871: 21,3115           76214                          MASK     THREE                                 #  INDECES FOR MANUAL ROTATION
000872: 21,3116           55657                          TS       PMANNDX
000873: 21,3117           31502                          CA       T5TEMP
000874: 21,3120           00006                          EXTEND                                         #  MAN RATE 0   0 RATE (DP)
000875: 21,3121           74676                          MP       QUARTER                               #           +1   +RATE (DP)
000876: 21,3122           55502                          TS       T5TEMP                                #           +2   -RATE (DP)
000877: 21,3123           76214                          MASK     THREE                                 #          (+3)  0 RATE (DP)
000878: 21,3124           55660                          TS       YMANNDX
000879: 21,3125           31502                          CA       T5TEMP
000880: 21,3126           00006                          EXTEND
000881: 21,3127           74676                          MP       QUARTER
000882: 21,3130           55656                          TS       RMANNDX
000883: 21,3131           00002                          TC       Q
000884:
000885:
000886: 21,3132           55617        KALUPDT           TS       ATTKALMN                              #  INITIALIZATION OF ATTITUDE RATES USING
000887:                                                                                                 #                                           KALMAN FILTER TAKES 1.1 SEC
000888:
000889: 21,3133           32141                          CA       DELTATT                               #  =1SEC - 80MS
000890: 21,3134           61634                          AD       T5TIME                                #  + DELAYS
000891:                                                                                                 # # Page 990
000892: 21,3135           54030                          TS       TIME5
000893: 21,3136           13141                          TCF      +3
000894: 21,3137           32142                          CAF      DELTATT2                              #  SAFETY PLAY TO ASSURE
000895: 21,3140           54030                          TS       TIME5                                 #  A T5RUPT
000896:
000897:
000898: 21,3141           44714        KRESUME2          CS       ZERO                                  #  RESET FOR PHASE1
000899: 21,3142           55465                          TS       T5PHASE                               #  RESUME INTERRUPTED PROGRAM
000900: 21,3143           15222                          TCF      RESUME
000901:
000902:
000903: 21,3144           44707        FDAIDSP2          CS       BIT4                                  #  RESET FOR FDAIDSP1
000904: 21,3145           71501                          MASK     RCSFLAGS
000905: 21,3146           55501                          TS       RCSFLAGS
000906:
000907: 21,3147           40074                          CS       FLAGWRD0                              #  ON - DISPLAY ONE OF THE TOTAL ATTITUDE
000908: 21,3150           74702                          MASK     BIT9                                  #  ERRORS
000909: 21,3151           00006                          EXTEND
000910: 21,3152           13161                          BZF      FDAITOTL
000911: 21,3153           00006                          EXTEND
000912: 21,3154           41570                          DCS      ERRORX                                #  OFF -DISPLAY AUTOPILOT FOLLOWING ERROR
000913: 21,3155           53477                          DXCH     AK
000914: 21,3156           41571                          CS       ERRORZ
000915: 21,3157           55500                          TS       AK2
000916: 21,3160           15222                          TCF      RESUME                                #  END PHASE 1
000917:
000918:
000919: 21,3161           30105        FDAITOTL          CA       FLAGWRD9
000920: 21,3162           74705                          MASK     BIT6
000921: 21,3163           00006                          EXTEND
000922: 21,3164           13227                          BZF      WRTN17                                #  IS N22ORN17 (BIT6 OF FLAGWRD9) = 0
000923:                                                                                                 #                                           IF SO, GO TO WRTN17
000924: 21,3165           00006        WRTN22            EXTEND                                         #  OTHERWISE, CONTINUE ON TO WRTN22 AND
000925: 21,3166           31157                          DCA      CTHETA                                #  GET SET TO COMPUTE TOTAL ATTITUDE
000926: 21,3167           53514                          DXCH     WTEMP                                 #  ERROR WRT N22 BY PICKING UP THE THREE
000927: 21,3170           31155                          CA       CPHI                                  #  COMPONENTS OF N22
000928:
000929: 21,3171           00006        GETAKS            EXTEND                                         #  COMPUTE TOTAL ATTITUDE ERROR FOR
000930: 21,3172           20032                          MSU      CDUX                                  #  DISPLAY ON FDAI ERROR NEEDLES
000931: 21,3173           55476                          TS       AK
000932: 21,3174           31513                          CA       WTEMP
000933: 21,3175           00006                          EXTEND
000934: 21,3176           20033                          MSU      CDUY
000935: 21,3177           55502                          TS       T5TEMP
000936: 21,3200           00006                          EXTEND
000937: 21,3201           71640                          MP       AMGB1
000938: 21,3202           27476                          ADS      AK
000939: 21,3203           31502                          CA       T5TEMP
000940: 21,3204           00006                          EXTEND
000941: 21,3205           71641                          MP       AMGB4
000942:                                                                                                 # # Page 991
000943: 21,3206           55477                          TS       AK1
000944: 21,3207           31502                          CA       T5TEMP
000945: 21,3210           00006                          EXTEND
000946: 21,3211           71643                          MP       AMGB7
000947: 21,3212           55500                          TS       AK2
000948: 21,3213           31514                          CA       WTEMP      +1
000949: 21,3214           00006                          EXTEND
000950: 21,3215           20034                          MSU      CDUZ
000951: 21,3216           55502                          TS       T5TEMP
000952: 21,3217           00006                          EXTEND
000953: 21,3220           71642                          MP       AMGB5
000954: 21,3221           27477                          ADS      AK1
000955: 21,3222           31502                          CA       T5TEMP
000956: 21,3223           00006                          EXTEND
000957: 21,3224           71644                          MP       AMGB8
000958: 21,3225           27500                          ADS      AK2
000959: 21,3226           15222                          TCF      RESUME                                #  END PHASE1 OF RCS DAP
000960:
000961: 21,3227           00006        WRTN17            EXTEND                                         #  GET SET TO COMPUTE TOTAL ASTRONAUT
000962: 21,3230           31335                          DCA      CPHIX      +1                         #  ATTITUDE ERROR WRT N17 BY PICKING UP
000963: 21,3231           53514                          DXCH     WTEMP                                 #  THE THREE COMPONENTS OF N17
000964: 21,3232           31333                          CA       CPHIX
000965: 21,3233           13171                          TCF      GETAKS
000966:
000967:                                                                                                 # # Page 992

End of include-file RCS-CSM_DIGITAL_AUTOPILOT.agc.  Parent file is MAIN.agc


