
Source Code


000002:                                                                                                 #  Copyright:    Public domain.
000003:                                                                                                 #  Filename:      RCS-CSM_DAP_EXECUTIVE_PROGRAMS.agc
000004:                                                                                                 #  Purpose:      Part of the source code for Colossus build 237.
000005:                                                                                                 #                This is for the Command Module's (CM) Apollo Guidance
000006:                                                                                                 #                Computer (AGC), we believe for Apollo 8.
000007:                                                                                                 #  Assembler:    yaYUL
000008:                                                                                                 #  Contact:      Jim Lawton <jim DOT lawton AT gmail DOT com>
000009:                                                                                                 #  Website:      www.ibiblio.org/apollo/index.html
000010:                                                                                                 #  Page scans:   www.ibiblio.org/apollo/ScansForConversion/Colossus237/
000011:                                                                                                 #  Mod history:  2011-03-15 JL    Adapted from corresponding Colossus 249 file.
000012:
000013:                                                                                                 # # Page 1012
000014:                                                                                                 #  CALCULATION OF  AMGB, AMBG     ONCE EVERY SECOND
000015:
000016:                                                                                                 #   AMGB =  1   SIN(PSI)           0
000017:                                                                                                 #           0   COS(PSI)COS(PHI)   SIN(PHI)
000018:                                                                                                 #           0   -COS(PSI)SIN(PHI)  COS(PHI)
000019:
000020:                                                                                                 #   AMBG =  1   -TAN(PSI)COS(PHI)  TAN(PSI)SIN(PHI)
000021:                                                                                                 #           0   COS(PHI)/COS(PSI)  -SIN(PHI)/COS(PSI)
000022:                                                                                                 #           0   SIN(PHI)           COS(PHI)
000023:
000024:                                                                                                 #   WHERE PHI AND PSI ARE CDU ANGLES
000025:
000026:
000027: 20,3550                                          BANK     20
000028: 22,2000                                          SETLOC   DAPS8
000029: 22,2000                                          BANK
000030:
000031: 22,3444                                          COUNT*   $$/DAPEX
000032: 22,3444  E6,1510                                 EBANK=   KMPAC
000033: 22,3444           30102        AMBGUPDT          CA       FLAGWRD6                              #  CHECK FOR RCS AUTOPILOT
000034: 22,3445           00006                          EXTEND
000035: 22,3446           65112                          BZMF     ENDOFJOB                              #  BIT15 = 0, BIT14 = 1
000036: 22,3447           74675                          MASK     BIT14                                 #  IF NOT RCS, EXIT
000037: 22,3450           00006                          EXTEND
000038: 22,3451           15112                          BZF      ENDOFJOB                              #  TO PROTECT TVC DAP ON SWITCHOVER
000039:
000040: 22,3452           30034                          CA       CDUZ
000041: 22,3453           04770                          TC       SPSIN2
000042: 22,3454           55640                          TS       AMGB1                                 #  CALCULATE AMGB
000043: 22,3455           30034                          CA       CDUZ
000044: 22,3456           04767                          TC       SPCOS2
000045: 22,3457           55645                          TS       CAPSI                                 #  MUST CHECK FOR GIMBAL LOCK
000046: 22,3460           33504                          CAF      QUADANGL                              #  = 7.25  DEGREES JET QUAD ANGULAR OFFSET
000047: 22,3461           00006                          EXTEND
000048: 22,3462           20032                          MSU      CDUX
000049: 22,3463           40000                          COM                                            #  CDUX - 7.25 DEG
000050: 22,3464           04767                          TC       SPCOS1
000051: 22,3465           55644                          TS       AMGB8
000052: 22,3466           00006                          EXTEND
000053: 22,3467           71645                          MP       CAPSI
000054: 22,3470           55641                          TS       AMGB4
000055: 22,3471           33504                          CAF      QUADANGL
000056: 22,3472           00006                          EXTEND
000057: 22,3473           20032                          MSU      CDUX
000058: 22,3474           40000                          COM                                            #  CDUX - 7.25 DEG
000059: 22,3475           04770                          TC       SPSIN1
000060: 22,3476           55642                          TS       AMGB5
000061: 22,3477           00006                          EXTEND
000062: 22,3500           71645                          MP       CAPSI
000063: 22,3501           40000                          COM
000064:                                                                                                 # # Page 1013
000065: 22,3502           55643                          TS       AMGB7
000066: 22,3503           15112                          TCF      ENDOFJOB
000067: 22,3504           01224        QUADANGL          DEC      660        B-14                       #  = 7.25 DEGREES

End of include-file RCS-CSM_DAP_EXECUTIVE_PROGRAMS.agc.  Parent file is MAIN.agc


