
Source Code


000002:                                                                                                  ## Copyright:   Public domain.
000003:                                                                                                  ## Filename:    RCS-CSM_DAP_EXECUTIVE_PROGRAMS.agc
000004:                                                                                                  ## Purpose:     Part of the source code for Colossus build 237.
000005:                                                                                                  ##              This is for the Command Module's (CM) Apollo Guidance
000006:                                                                                                  ##              Computer (AGC), for Apollo 8.
000007:                                                                                                  ## Assembler:   yaYUL
000008:                                                                                                  ## Contact:     Jim Lawton <jim DOT lawton AT gmail DOT com>
000009:                                                                                                  ## Website:     www.ibiblio.org/apollo/index.html
000010:                                                                                                  ## Page Scans:  www.ibiblio.org/apollo/ScansForConversion/Colossus237/
000011:                                                                                                  ## Mod history: 2011-03-15 JL   Adapted from corresponding Colossus 249 file.
000012:                                                                                                  ##              2017-01-01 RSB  Proofed comment text using octopus/ProoferComments,
000013:                                                                                                  ##                              and fixed errors found.
000014:


000016:                                                                                                  #  CALCULATION OF  AMGB, AMBG     ONCE EVERY SECOND
000017:
000018:                                                                                                  #   AMGB =  1   SIN(PSI)           0
000019:                                                                                                  #           0   COS(PSI)COS(PHI)   SIN(PHI)
000020:                                                                                                  #           0   -COS(PSI)SIN(PHI)  COS(PHI)
000021:
000022:                                                                                                  #   AMBG =  1   -TAN(PSI)COS(PHI)  TAN(PSI)SIN(PHI)
000023:                                                                                                  #           0   COS(PHI)/COS(PSI)  -SIN(PHI)/COS(PSI)
000024:                                                                                                  #           0   SIN(PHI)           COS(PHI)
000025:
000026:                                                                                                  #   WHERE PHI AND PSI ARE CDU ANGLES
000027:
000028:
000029: 20,3550                                           BANK     20
000030: 22,2000                                           SETLOC   DAPS8
000031: 22,2000                                           BANK
000032:
000033: 22,3444                                           COUNT*   $$/DAPEX
000034: 22,3444  E6,1510                                  EBANK=   KMPAC
000035: 22,3444           30102        AMBGUPDT           CA       FLAGWRD6                              #  CHECK FOR RCS AUTOPILOT
000036: 22,3445           00006                           EXTEND
000037: 22,3446           65112                           BZMF     ENDOFJOB                              #  BIT15 = 0, BIT14 = 1
000038: 22,3447           74675                           MASK     BIT14                                 #  IF NOT RCS, EXIT
000039: 22,3450           00006                           EXTEND
000040: 22,3451           15112                           BZF      ENDOFJOB                              #  TO PROTECT TVC DAP ON SWITCHOVER
000041:
000042: 22,3452           30034                           CA       CDUZ
000043: 22,3453           04770                           TC       SPSIN2
000044: 22,3454           55640                           TS       AMGB1                                 #  CALCULATE AMGB
000045: 22,3455           30034                           CA       CDUZ
000046: 22,3456           04767                           TC       SPCOS2
000047: 22,3457           55645                           TS       CAPSI                                 #  MUST CHECK FOR GIMBAL LOCK
000048: 22,3460           33504                           CAF      QUADANGL                              #  = 7.25  DEGREES JET QUAD ANGULAR OFFSET
000049: 22,3461           00006                           EXTEND
000050: 22,3462           20032                           MSU      CDUX
000051: 22,3463           40000                           COM                                            #  CDUX - 7.25 DEG
000052: 22,3464           04767                           TC       SPCOS1
000053: 22,3465           55644                           TS       AMGB8
000054: 22,3466           00006                           EXTEND
000055: 22,3467           71645                           MP       CAPSI
000056: 22,3470           55641                           TS       AMGB4
000057: 22,3471           33504                           CAF      QUADANGL
000058: 22,3472           00006                           EXTEND
000059: 22,3473           20032                           MSU      CDUX
000060: 22,3474           40000                           COM                                            #  CDUX - 7.25 DEG
000061: 22,3475           04770                           TC       SPSIN1
000062: 22,3476           55642                           TS       AMGB5
000063: 22,3477           00006                           EXTEND
000064: 22,3500           71645                           MP       CAPSI
000065: 22,3501           40000                           COM


000067: 22,3502           55643                           TS       AMGB7
000068: 22,3503           15112                           TCF      ENDOFJOB
000069: 22,3504           01224        QUADANGL           DEC      660        B-14                       #  = 7.25 DEGREES

End of include-file RCS-CSM_DAP_EXECUTIVE_PROGRAMS.agc.  Parent file is MAIN.agc


