
Source Code


000002:                                                                                                  ## Copyright:   Public domain.
000003:                                                                                                  ## Filename:    REENTRY_CONTROL.agc
000004:                                                                                                  ## Purpose:     Part of the source code for Colossus build 237.
000005:                                                                                                  ##              This is for the Command Module's (CM) Apollo Guidance
000006:                                                                                                  ##              Computer (AGC), for Apollo 8.
000007:                                                                                                  ## Assembler:   yaYUL
000008:                                                                                                  ## Contact:     Jim Lawton <jim DOT lawton AT gmail DOT com>
000009:                                                                                                  ## Website:     www.ibiblio.org/apollo/index.html
000010:                                                                                                  ## Page Scans:  www.ibiblio.org/apollo/ScansForConversion/Colossus237/
000011:                                                                                                  ## Mod history: 2011-03-03 JL   Adapted from corresponding Colossus 249 file.
000012:                                                                                                  ##              2011-04-27 JL   Fixed symbol name.
000013:                                                                                                  ##              2012-10-08 JL   Fixed incorrect value on p808.
000014:                                                                                                  ##              2016-11-02 RSB  Typo (offset-reference +2 was not indented).
000015:                                                                                                  ##              2017-01-01 RSB  Proofed comment text using octopus/ProoferComments,
000016:                                                                                                  ##                              and fixed errors found.
000017:                                                                                                  ##              2017-01-18 RSB  Fixed comment-text errors noted while diff'ing
000018:                                                                                                  ##                              vs Colossus 249.
000019:


000021:                                                                                                  #  ENTRY INITIALIZATION ROUTINE
000022:                                                                                                  #   -----------------------------
000023:
000024: 25,2000                                           BANK     25
000025: 25,2000                                           SETLOC   REENTRY
000026: 25,2000                                           BANK
000027:
000028: 25,2000                                           COUNT*   $$/ENTRY
000029: 25,2000  E7,1451                                  EBANK=   RTINIT
000030:
000031: 25,2000     4753               EBENTRY            =        EBANK7
000032: 25,2000     4752               EBAOG              EQUALS   EBANK6
000033: 25,2000     4675               NTRYPRIO           EQUALS   PRIO20                                #  (SERVICER)
000034: 25,2000     0102               CM/FLAGS           EQUALS   STATE      +6
000035:
000036: 25,2000           77776        STARTENT           EXIT                                           #  MM = 63
000037:                                                                                                  #                               COME HERE FROM  CM/POSE .  RESTARTED IN CM/POSE.
000038:
000039: 25,2001           42113                           CS       ENTMASK                               #  INITIALIZE ALL SWITCHES TO ZERO
000040:                                                                                                  #                                          EXCEPT LATSW, ENTRYDSP AND GONEPAST.
000041:                                                                                                  #                                          GONEBY 112D BIT8 FLAG7,SELF INITIALIZING
000042: 25,2002           00004                           INHINT
000043: 25,2003           70102                           MASK     CM/FLAGS
000044:                                                                                                  #                                          ENTRYDSP = 92D  B13
000045:                                                                                                  #                                          GONEPAST=95D B10,  RELVELSW=96D B9
000046:                                                                                                  #                                          EGSW = 97D  B8
000047:                                                                                                  #                                          HIND=99D B6         INRLSW=100D B5
000048:                                                                                                  #                                          LATSW=101D B4       .05GSW=102D B3
000049:
000050: 25,2004           62114                           AD       ENTRYSW                               #  SET ENTRYDSP, LATSW, GONEPAST.
000051: 25,2005           54102                           TS       CM/FLAGS
000052:
000053: 25,2006           00003                           RELINT
000054:
000055: 25,2007           06006                           TC       INTPRET
000056:
000057: 25,2010           77735                           SLOAD
000058: 25,2011           03011                                    LODPAD
000059: 25,2012           03626                           STORE    LOD
000060:
000061: 25,2013           77735                           SLOAD
000062: 25,2014           03010                                    LADPAD
000063: 25,2015           03624                           STORE    LAD
000064:
000065: 25,2016           77605                           DMP                                            #  L/DCMINR = LAD COS(15)
000066: 25,2017           15320                                    COS15
000067: 25,2020           17630                           STODL    L/DCMINR
000068: 25,2021           15145                                    LATSLOPE
000069: 25,2022           70405                           DMP      SR1                                   #  KLAT = LAD/24
000070: 25,2023           03624                                    LAD


000072: 25,2024           17632                           STODL    KLAT
000073: 25,2025           15176                                    Q7F
000074: 25,2026           17175                           STODL    Q7                                    #  Q7 = Q7F
000075: 25,2027           17334                                    NEARONE                               #  1.0 -1BIT
000076: 25,2030           17614                           STODL    FACTOR
000077: 25,2031           03624                                    LAD
000078: 25,2032           57565                           SIGN     DCOMP
000079: 25,2033           03327                                    HEADSUP                               #  MAY BE NOISE FOR DISPLAY P61
000080: 25,2034           37634                           STCALL   L/D                                   #  L/D = - LAD SGN(HEADSUP)
000081:
000082: 25,2035           52063                                    STARTEN1                              #  RETURN VIA GOTOADDR
000083: 25,2036           47375                           VLOAD    VXV
000084: 25,2037           01177                                    VN                                    #  (-7) M/CS
000085: 25,2040           01760                                    UNITR                                 #  .5 UNIT          REF COORDS
000086: 25,2041           50256                           UNIT     DOT
000087: 25,2042           03474                                    RT                                    #  RT/2  TARGET VECTOR      REF COORDS
000088: 25,2043           03676                           STORE    LATANG                                #  LATANG = UNI.RT /4
000089: 25,2044           47076                           DCOMP    RTB
000090: 25,2045           45707                                    SIGNMPAC
000091: 25,2046           17644                           STODL    K2ROLL                                #  K2ROLL = -SGN(LATANG)
000092:
000093: 25,2047           03624                                    LAD
000094: 25,2050           43205                           DMP      DAD
000095: 25,2051           15200                                    Q21
000096: 25,2052           15202                                    Q22
000097: 25,2053           03712                           STORE    Q2                                    #  Q2 = -1152 + 500 LAD
000098:
000099: 25,2054           66331                           SSP      SSP
000100: 25,2055           03646                                    GOTOADDR                              #  SET SELECTOR FOR INITIAL PASS
000101: 25,2056           52260                                    INITROLL
000102: 25,2057           03325                                    POSEXIT
000103: 25,2060           52115                                    SCALEPOP                              #  SET CM/POSE TO CONTINUE AT SCALEPOP
000104:
000105: 25,2061           77634                           RTB
000106: 25,2062           53603                                    SERVNOUT                              #  OMIT INITIAL DISPLAY, SINCE 1ST GUESSBAD
000107:
000108:                                                                                                  #  CALCULATE THE INITIAL TARGET VECTOR:  RTINIT,  ALSO RTEAST, RTNORM  AND  RT.    ALL ARE .5 UNIT AND IN
000109:                                                                                                  #   REFERENCE COORDINATES.
000110:
000111: 25,2063           77220        STARTEN1           STQ      VLOAD
000112: 25,2064           03645                                    GOTOADDR
000113: 25,2065           03401                                    LAT(SPL)                              #  TARGET COORDINATES
000114: 25,2066           43014                           CLEAR    CLEAR                                 #  DO CALL USING PAD RADIUS. WILL UNIT IT.
000115: 25,2067           00662                                    ERADFLAG                              #  ANYWAY.
000116: 25,2070           01663                                    LUNAFLAG
000117: 25,2071           15104                           STODL    LAT
000118: 25,2072           15332                                    3ZEROS
000119:
000120: 25,2073           15110                           STODL    LAT        +4                         #  SET ALT=0.
000121: 25,2074           01205                                    PIPTIME                               #  ESTABLISH RTINIT AT TIME OF PRESENT


000123:                                                                                                  #                                          RN AND VN.
000124: 25,2075           37524                           STCALL   TIME/RTO                              #  SAVE TIME BASE OF RTINIT.
000125: 25,2076           26373                                    LALOTORV                              #  C(MPAC) =TIME   (PIPTIME)
000126: 25,2077           77656                           UNIT                                           #  ANSWER IN ALPHAV ALSO
000127: 25,2100           17452                           STODL    RTINIT                                #  .5 UNIT TARGET          REF COORDS
000128: 25,2101           12112                                    500SEC                                #  NOMINAL ENTRY TIME FOR P63
000129:                                                                                                  #                                          TIME/RTO = PIPTIME, STILL.
000130: 25,2102           37606                           STCALL   DTEAROT                               #  INITIALIZE EARROT
000131: 25,2103           46215                                    EARROT1                               #  GET RT
000132: 25,2104           72441                           DOT      SL1
000133: 25,2105           01760                                    UNITR                                 #  RT/2 IN MPAC
000134: 25,2106           77726                           ACOS
000135: 25,2107           37702                           STCALL   THETAH                                #  RANGE ANGLE /360
000136: 25,2110           03645                                    GOTOADDR                              #  RETURN TO CALLER
000137:
000138: 25,2111           00003 01520  500SEC             2DEC     50000      B-28                       #  CS
000139:
000140: 25,2113           11774        ENTMASK            OCT      11774
000141: 25,2114           11010        ENTRYSW            OCT      11010                                 #  ENTRYDSP B13, GONEPAST B10, LATSW B4
000142:


000144: 25,2115           77624        SCALEPOP           CALL
000145: 25,2116           52125                                    TARGETNG
000146:
000147: 25,2117           77776                           EXIT
000148:
000149: 25,2120           05301        REFAZE10           TC       PHASCHNG
000150: 25,2121           10035                           OCT      10035                                 #  SERVICER 5.3 RESTART AT REFAZE10
000151:
000152: 25,2122           06006                           TC       INTPRET
000153:
000154:                                                                                                  #           JUMP TO PARTICULAR RE-ENTRY PHASE:
000155:
000156:                                                                                                  #                                          SEQUENCE
000157: 25,2123           77650                           GOTO
000158: 25,2124           03645                                    GOTOADDR
000159:
000160:
000161:
000162:                                                                                                  #           GOTOADDR  CONTAINS THE ADDRESS OF THE ROLL COMMAND EQUATIONS APPROPRIATE TO THE CURRENT PHASE OF
000163:                                                                                                  #  RE-ENTRY.  SEQUENCING IS AS FOLLOWS:
000164:
000165:                                                                                                  #  INITROLL ADDRESS IS SET HERE INITIALLY. HOLDS INITIAL ROLL ATTITUDE UNTIL KAT  IS EXCEEDED. THEN HOLDS NEW ROLL
000166:                                                                                                  #           ATTITUDE UNTIL  VRTHRESH  IS EXCEEDED.  THEN BRANCHES TO
000167:
000168:                                                                                                  #  HUNTEST  THIS SECTION CHECKS TO SEE IF THE PREDICTED RANGE AT NOMINAL   L/D FROM PRESENT CONDITIONS IS LESS
000169:                                                                                                  #           THAN THE DESIRED RANGE.
000170:                                                                                                  #             IF NOT - A ROLL COMMAND IS GENERATED BY THE CONSTANT DRAG CONTROLLER.
000171:                                                                                                  #             IF SO - CONTROL AND GOTOADDR ARE SET TO  UPCONTRL.
000172:                                                                                                  #           USUALLY NO ITERATION IS INVOLVED EXCEPT IF THE RANGE DESIRED IS TOO LONG ON THE FIRST PASS THROUGH
000173:                                                                                                  #           HUNTEST.
000174:
000175:                                                                                                  #  UPCONTRL CONTROLS ROLL DURING THE SUPER-CIRCULAR PHASE.  UPCONTRL IS TERMINATED EITHER
000176:                                                                                                  #             (A)  WHEN THE DRAG (AS MEASURED BY THE PIPAS) FALLS BELOW Q7 ,  OR
000177:                                                                                                  #             (B)  IF RDOT IS NEGATIVE AND REFERENCE VL EXCEEDS V.
000178:                                                                                                  #           IN CASE (A),  GOTOADDR  IS SET TO  KEP2  AND IN CASE (B), TO PREDICT3  SKIPPING THE KEPLER PHASE OF
000179:                                                                                                  #           ENTRY.
000180:
000181:                                                                                                  #  KEP2     GOTOADDR IS SET HERE DURING THE KEPLER PHASE TO MONITOR DRAG. THE SPACECRAFT IS INSTANTANEOUSLY
000182:                                                                                                  #           TRIMMED IN PITCH AND YAW TO THE COMPUTED RELATIVE VELOCITY. THE LAST COMPUTED ROLL ANGLE IS MAINTAINED.
000183:                                                                                                  #           WHEN THE MEASURED DRAG EXCEEDS Q7 +0.5, GOTOADDR  IS SET TO
000184:
000185:                                                                                                  #  PREDICT3 THIS CONTROLS THE FINAL SUB-ORBITAL PHASE. ROLL COMMANDS CEASE
000186:                                                                                                  #           WHEN  V  IS LESS THAN  VQUIT. AN EXIT IS MADE TO
000187:
000188:                                                                                                  #  P67.1    THE LAST COMPUTED ROLL ANGLE IS MAINTAINED. RATE DAMPING IS DONE IN PITCH AND YAW. PRESENT LATITUDE
000189:                                                                                                  #           AND LONGITUDE ARE COMPUTED FOR DISPLAY.
000190:                                                                                                  #           ENTRY IS TERMINATED WHEN DISKY RESPONSE IS MADE TO TO THIS FINAL FLASHING DISPLAY.
000191:


000193:                                                                                                  #   PROCESS AVERAGE G OUTPUT...SCALE IT AND GET INPUT DATA
000194:
000195:
000196:                                                                                                  #  * START  TARGETING ...
000197:
000198: 25,2125  E7,1451                                  EBANK=   RTINIT
000199:
000200:                                                                                                  #                               TARGETNG IS CALLED BY P61, FROM GROUP 4.
000201:                                                                                                  #                               TARGETNG IS CALLED BY ENTRY, FROM GROUP 5.
000202:
000203:                                                                                                  #                                          ALL MM COME HERE.
000204: 25,2125           77214        TARGETNG           BOFF     VLOAD                                 #  ENTER WITH PROPER EB FROM CM/POSE(TEST)
000205: 25,2126           03346                                    RELVELSW                              #  RELVELSW = 96D  BIT9
000206: 25,2127           52133                                    GETVEL                                #  WANT INERTIAL VEL. GO GET IT.
000207: 25,2130           03526                                    -VREL                                 #  NEW V  IS RELATIVE, CONTINUE
000208:
000209: 25,2131           52076                           VCOMP    GOTO                                  #  (VREL) = (V) + KWE UNITR*UNITW
000210: 25,2132           52136                                    GETUNITV   -1                         #  - VREL WAS LEFT BY CM/POSE
000211:
000212: 25,2133           74375        GETVEL             VLOAD    VXSC                                  #  INERTIAL V WANTED
000213: 25,2134           01177                                    VN                                    #  KVSCALE = (12800 / .3048) / 2VS
000214: 25,2135           15230                                    KVSCALE                               #  KVSCALE = .81491944
000215: 25,2136           03516                           STORE    VEL                                   #  V/2 VS
000216:
000217: 25,2137           44056        GETUNITV           UNIT     STQ
000218: 25,2140           03373                                    60GENRET
000219: 25,2141           17510                           STODL    UNITV
000220: 25,2142           00043                                    34D
000221: 25,2143           03622                           STORE    VSQUARE                               #  VSQ/4
000222:
000223: 25,2144           77625                           DSU                                            #  LEQ = VSQUARE - 1
000224: 25,2145           15322                                    FOURTH                                #  4 G-S FULL SCALE
000225: 25,2146           17654                           STODL    LEQ                                   #  LEQ/4
000226:
000227: 25,2147           00045                                    36D
000228: 25,2150           27674                           STOVL    V                                     #  V/2 VS = VEL/2 VS
000229:
000230: 25,2151           03516                                    VEL
000231: 25,2152           72441                           DOT      SL1                                   #  RDOT= V.UNITR
000232: 25,2153           01760                                    UNITR
000233: 25,2154           27700                           STOVL    RDOT                                  #  RDOT / 2 VS
000234:
000235: 25,2155           01163                                    DELV                                  #  PIPA COUNTS IN PLATFORM COORDS.
000236: 25,2156           41246                           ABVAL    DMP
000237: 25,2157           15232                                    KASCALE
000238: 25,2160           53152                           SL1      BZE
000239: 25,2161           55132                                    SETMIND
000240: 25,2162           27640        DSTORE             STOVL    D                                     #  ACCELERATION USED TO APPROX DRAG
000241: 25,2163           03516                                    VEL
000242: 25,2164           53435                           VXV      UNIT                                  #  UNI = UNIT(V*R)


000244: 25,2165           01760                                    UNITR
000245: 25,2166           03502                           STORE    UNI                                   #  .5 UNI                REF COORDS.
000246:
000247: 25,2167           71214                           BOFF     DLOAD
000248: 25,2170           03346                                    RELVELSW
000249: 25,2171           55073                                    GETETA
000250: 25,2172           15332                                    3ZEROS
000251: 25,2173           43225        UPDATERT           DSU      DAD                                   #  PIPTIME-TIME/RTO =ELAPSED TIME SINCE
000252:                                                                                                  #                                          RTINIT  WAS ESTABLISHED.
000253: 25,2174           03524                                    TIME/RTO
000254: 25,2175           01205                                    PIPTIME
000255: 25,2176           37606                           STCALL   DTEAROT                               #  GET PREDICTED TARGET VECTOR  RT
000256:
000257: 25,2177           46225                                    EARROT2
000258: 25,2200           40241                           DOT      SETPD                                 #  SINCE (RT) UNIT VECT, THIS IS 1/4 MAX
000259: 25,2201           03502                                    UNI                                   #  LATANG = RT.UNI
000260: 25,2202           00001                                    0
000261: 25,2203           27676                           STOVL    LATANG                                #  LATANG = MAC LATANG / 4
000262:
000263: 25,2204           03474                                    RT
000264: 25,2205           77614                           CLEAR
000265: 25,2206           03667                                    GONEBY                                #  SHOW HAVE NOT GONE PAST TARGET.
000266: 25,2207           50235                           VXV      DOT                                   #  IF RT*UNITR.UNI NEG, GONEBY=1
000267: 25,2210           01760                                    UNITR                                 #  GONEPAST IS CONDITIONAL SW SET IN
000268: 25,2211           03502                                    UNI                                   #  FINAL PHASE.
000269: 25,2212           43044                           BPL      SET
000270: 25,2213           52215                                    +2
000271: 25,2214           03467                                    GONEBY                                #  SHOW HAVE     GONE PAST TARGET.
000272:
000273: 25,2215           77775                           VLOAD
000274: 25,2216           03474                                    RT
000275: 25,2217           45241        GETANGLE           DOT      DSU                                   #  THETA = ARCCOS(RT.UNITR)
000276: 25,2220           01760                                    UNITR
000277: 25,2221           15162                                    NEAR1/4                               #  TO IMPROVE ACCURACY, CALC RANGE BY
000278: 25,2222           43244                           BPL      DAD                                   #  TINYTHET IF HIGH ORDER PART OF
000279: 25,2223           55135                                    TINYTHET                              #  ARCCOS ARGUMENT IS ZERO
000280: 25,2224           15162                                    NEAR1/4
000281: 25,2225           65552                           SL1      ACOS
000282: 25,2226           03702        THETDONE           STORE    THETAH                                #  THETAH/360
000283:                                                                                                  #                                          HI WORD, LO BIT =1.32 NM=360 60/16384
000284:
000285: 25,2227           57414                           BON      DCOMP
000286: 25,2230           03707                                    GONEBY                                #  =1 IF HAVE GONE PAST TARGET.
000287:                                                                                                  #                                          (SIGN MAY BECOME ERRATIC VERY NEAR
000288:                                                                                                  #                                          TARGET DUE TO LOSS OF PRECISION.)
000289: 25,2231           52232                                    +1
000290: 25,2232           17714                           STODL    RTGON67                               #  RANGE ERROR: NEG IF WILL FALL SHORT.
000291:
000292: 25,2233           03640                                    D
000293: 25,2234           50025                           DSU      BMN


000295: 25,2235           15240                                    .05G
000296: 25,2236           52255                                    NO.05G
000297: 25,2237           77214                           SET      VLOAD
000298: 25,2240           03074                                    .05GSW
000299: 25,2241           03433                                    DELVREF
000300: 25,2242           50206                           PUSH     DOT
000301: 25,2243           03542                                    UXA/2
000302: 25,2244           63552                           SL1      DSQ
000303: 25,2245           47515                           PDVL     VSQ                                   #  EXCHANGE WITH PDL.
000304: 25,2246           56225                           DSU      DDV
000305: 25,2247           00001                                    0
000306: 25,2250           75400                           BOV      SQRT
000307: 25,2251           52253                                    NOLDCALC                              #  OVFL LAST CLEARED IN EARROT2 ABOVE.
000308: 25,2252           03727                           STORE    L/DCALC
000309:
000310: 25,2253           77650        NOLDCALC           GOTO
000311: 25,2254           03373                                    60GENRET
000312:
000313: 25,2255           52014        NO.05G             CLEAR    GOTO                                  #  THIS WAY FOR DAP.(MAY INTERRUPT)
000314: 25,2256           03274                                    .05GSW                                #  .05GSW = 102D  B3
000315: 25,2257           52253                                    NOLDCALC                              #  KEEP SINGLE EXIT FOR TARGETNG
000316:


000318:                                                                                                  #     SUBROUTINES CALLED BY SCALEPOP (TARGETING):
000319:
000320: 26,3073                                           BANK     26
000321: 26,2000                                           SETLOC   REENTRY1
000322: 26,2000                                           BANK
000323:
000324: 26,3073                                           COUNT*   $$/ENTRY
000325:
000326: 26,3073           56345        GETETA             DLOAD    DDV                                   #  D = D +D(-RDOT/HS -2D/V)  DT/2
000327:                                                                                                  #                                          DT/2  =  2/2  = 1
000328: 26,3074           03700                                    RDOT
000329: 26,3075           15314                                    -HSCALED
000330: 26,3076           41325                           PDDL     DMP
000331: 26,3077           03640                                    D
000332: 26,3100           15316                                    -KSCALE
000333: 26,3101           43271                           DDV      DAD
000334: 26,3102           03674                                    V
000335:                                                                                                  #                                          -RDOT/HS FROM PDL.
000336: 26,3103           43205                           DMP      DAD
000337: 26,3104           03640                                    D
000338: 26,3105           03640                                    D
000339: 26,3106           03640                           STORE    D
000340:
000341: 26,3107           71214                           BON      DLOAD                                 #  EGSW INDICATES FINAL PHASE.
000342: 26,3110           03307                                    EGSW
000343: 26,3111           55116                                    SUBETA
000344: 26,3112           03702                                    THETAH
000345: 26,3113           52005                           DMP      GOTO
000346: 26,3114           15234                                    KTETA                                 #  = 1000X2PI/(2)E14 163.84
000347: 26,3115           52173                                    UPDATERT
000348:
000349: 26,3116           45345        SUBETA             DLOAD    DSU                                   #  SWITCH FROM  INERTIAL TO RELATIVE VEL.
000350: 26,3117           03674                                    V
000351: 26,3120           15322                                    VMIN
000352: 26,3121           43044                           BPL      SET
000353: 26,3122           55124                                    SUBETA2
000354: 26,3123           03066                                    RELVELSW
000355:
000356: 26,3124           41345        SUBETA2            DLOAD    DMP
000357:
000358: 26,3125           03702                                    THETAH
000359: 26,3126           15236                                    KT1                                   #  KT1 = KT
000360: 26,3127           52071                           DDV      GOTO
000361: 26,3130           03674                                    V                                     #  KT = RE(2 PI)/2 VS 16384 163.84/ 2 VSAT
000362: 26,3131           52173                                    UPDATERT
000363:
000364: 26,3132           52145        SETMIND            DLOAD    GOTO
000365: 26,3133           16326                                    1BITDP
000366: 26,3134           52162                                    DSTORE
000367:


000369: 26,3135           51425        TINYTHET           DSU      ABS                                   #  ENTER WITH X-.249
000370: 26,3136           16327                                    1BITDP     +          1               #  GET 1/4 - MPAC
000371: 26,3137           75461                           SL       SQRT                                  #  SCALE UP BEFORE SQRT
000372: 26,3140           20216                                    13D                                   #  HAS FACTOR FOR UP SCALING
000373: 26,3141           52005                           DMP      GOTO
000374: 26,3142           15246                                    KACOS
000375: 26,3143           52226                                    THETDONE
000376:


000378:                                                                                                  #  * START   INITIAL ROLL  ...
000379:
000380: 25,2260                                           BANK     25
000381: 25,2000                                           SETLOC   REENTRY
000382: 25,2000                                           BANK
000383:
000384: 25,2260                                           COUNT*   $$/ENTRY
000385:
000386:                                                                                                  #                                          MM = 63 , 64 ..
000387: 25,2260           43014        INITROLL           BON      BOFF                                  #  IF D- .05G NEG, GO TO LIMITL/D
000388: 25,2261           03312                                    INRLSW
000389: 25,2262           52354                                    INITRL1
000390: 25,2263           03354                                    .05GSW
000391: 25,2264           53521                                    LIMITL/D
000392:
000393:                                                                                                  #                                          MM = 64, NOW
000394:
000395:                                                                                                  #                                                      3
000396:                                                                                                  #                                          KA = KA1 LEQ  + KA2
000397: 25,2265           63545                           DLOAD    DSQ
000398: 25,2266           03654                                    LEQ
000399: 25,2267           56205                           DMP      DDV
000400: 25,2270           03654                                    LEQ
000401: 25,2271           15304                                    1/KA1                                 #  = 25 /(64  1.8)
000402: 25,2272           47015                           DAD      RTB
000403: 25,2273           15306                                    KA2                                   #  = .2
000404: 25,2274           54432                                    P64                                   #  ROLLC        VI            RDOT
000405:                                                                                                  #                                          XXX.XX DEG   XXXXX. FPS    XXXXX. FPS
000406: 25,2275           03720                           STORE    KAT
000407:
000408: 25,2276           45345                           DLOAD    DSU                                   #  IF V-VFINAL1 NEG, GO TO FINAL PHASE.
000409: 25,2277           03674                                    V
000410: 25,2300           15302                                    VFINAL1
000411: 25,2301           51014                           CLEAR    BPL                                   #  (CAN'T CLEAR INRLSW AFTER HERE:RESTARTS)
000412: 25,2302           03265                                    GONEPAST                              #  GONEPAST WAS INITIALLY SET=1 TO FORCE
000413:                                                                                                  #                                          ROLLC TO REMAIN AS DEFINED BY HEADSUP
000414:                                                                                                  #                                          UNTIL START OF P64. (UNTIL D > .05G)
000415: 25,2303           52310                                    D0EQ
000416: 25,2304           52131                           SSP      GOTO
000417: 25,2305           03646                                    GOTOADDR
000418: 25,2306           53311                                    KEP2                                  #  AND IDLE UNTIL D>0.2G.  (NO P66 HERE)
000419: 25,2307           52343                                    INROLOUT                              #  GO TO LIMITL/D AFTER SETTING INRLSW.
000420:
000421: 25,2310           41345        D0EQ               DLOAD    DMP                                   #  D0 = KA3 LEQ + KA4
000422: 25,2311           03654                                    LEQ
000423: 25,2312           15310                                    KA3
000424: 25,2313           77615                           DAD
000425: 25,2314           15312                                    KA4
000426: 25,2315           03710                           STORE    D0                                    #  D0/805
000427: 25,2316           40065                           BDDV     BOV


000429: 25,2317           15266                                    C001                                  #  (-4/25 G)  B-8
000430: 25,2320           52321                                    +1                                    #  CLEAR OVFIND, IF ON.
000431: 25,2321           17706                           STODL    C/D0                                  #  (-4/D0)  B-8
000432: 25,2322           03624                                    LAD                                   #  IF V-VFINAL +K(RDOT/V)CUBED POS,L/D=-LAD
000433: 25,2323           17634                           STODL    L/D
000434: 25,2324           03700                                    RDOT
000435: 25,2325           41471                           DDV      PUSH
000436: 25,2326           03674                                    V
000437: 25,2327           41316                           DSQ      DMP
000438: 25,2330           45271                           DDV      DSU
000439: 25,2331           15276                                    1/K44
000440: 25,2332           15300                                    VFINAL
000441:                                                                                                  #                                                            3
000442:                                                                                                  #                                          V-VFINAL +(RDOT/V)  / K44   OVFL $
000443:
000444: 25,2333           40015                           DAD      BOV
000445: 25,2334           03674                                    V
000446: 25,2335           52343                                    INROLOUT                              #  GO TO LIMITL/D AFTER SETTING INRLSW.
000447: 25,2336           71240                           BMN      DLOAD
000448: 25,2337           52343                                    INROLOUT                              #  GO TO LIMITL/D AFTER SETTING INRLSW.
000449: 25,2340           03624                                    LAD
000450: 25,2341           77676                           DCOMP
000451: 25,2342           03634                           STORE    L/D
000452:
000453:                                                                                                  #                                          SET INRLSW AT END FOR RESTART PROTECTION
000454: 25,2343           77614        INROLOUT           BOFSET                                         #  END OF PRE .05G PATH OF INITROLL.
000455: 25,2344           03052                                    INRLSW                                #  SWITCH IS ZERO INITIALLY.
000456: 25,2345           53521                                    LIMITL/D                              #  (GO TO)
000457:
000458: 25,2346           45345        KATEST             DLOAD    DSU                                   #  IF KAT - D POS, GO TO CONSTD
000459: 25,2347           03720                                    KAT
000460: 25,2350           03640                                    D                                     #  IF POS, OUT WITH COMMAND VIA LIMITL/D
000461: 25,2351           52044                           BPL      GOTO
000462: 25,2352           53521                                    LIMITL/D
000463: 25,2353           53224                                    CONSTD
000464:
000465: 25,2354           43345        INITRL1            DLOAD    DAD                                   #  IF RDOT + VRCONT POS, GO TO HUNTEST
000466: 25,2355           03700                                    RDOT
000467: 25,2356           15260                                    VRCONT
000468: 25,2357           45040                           BMN      CALL                                  #  IF POSITIVE, FALL INTO HUNTEST.
000469: 25,2360           52346                                    KATEST
000470:
000471: 25,2361           53014                                    FOREHUNT                              #  INITIALIZE HUNTEST.
000472:


000474:                                                                                                  #  * START   HUNT TEST   ..
000475:
000476:                                                                                                  #                                          MM = 64
000477: 25,2362           77731                           SSP                                            #  INITIALIZE HUNTEST ON FIRST PASS
000478: 25,2363           03646                                    GOTOADDR
000479: 25,2364           52365                                    HUNTEST                               #  MUST GO AFTER FOREHUNT FOR RESTARTS.
000480:
000481: 25,2365           77745        HUNTEST            DLOAD
000482: 25,2366           03640                                    D
000483: 25,2367           17664                           STODL    A1                                    #  A1/805  = A1/ 25G
000484:
000485: 25,2370           03624                                    LAD
000486: 25,2371           17647                           STODL    TEM1B
000487: 25,2372           03700                                    RDOT
000488: 25,2373           71240                           BMN      DLOAD                                 #  IF RDOT NEG,TEM1B=LAD, OTHERWISE = LEWD
000489: 25,2374           52400                                    A0CALC
000490: 25,2375           03725                                    LEWD
000491: 25,2376           17647                           STODL    TEM1B
000492:
000493: 25,2377           03700                                    RDOT
000494: 25,2400           43271        A0CALC             DDV      DAD                                   #  V1 = V + RDOT/TEM1B
000495: 25,2401           03647                                    TEM1B
000496: 25,2402           03674                                    V
000497: 25,2403           14326                           STODL    V1                                    #  V1/2 VS
000498:
000499: 25,2404           03700                                    RDOT
000500: 25,2405           56316                           DSQ      DDV                                   #  A0=(V1/V)SQ(D+RDOT SQ/(TEM1B 2 C1 HS)
000501: 25,2406           03647                                    TEM1B
000502: 25,2407           43271                           DDV      DAD
000503: 25,2410           15272                                    2C1HS
000504: 25,2411           03640                                    D
000505: 25,2412           41205                           DMP      DMP
000506: 25,2413           00326                                    V1
000507: 25,2414           00326                                    V1
000508: 25,2415           77671                           DDV
000509: 25,2416           03622                                    VSQUARE
000510: 25,2417           14330                           STODL    A0                                    #  A0/805   = A0/ 25G
000511:
000512: 25,2420           03700                                    RDOT
000513: 25,2421           71244                           BPL      DLOAD
000514: 25,2422           52425                                    V1LEAD
000515: 25,2423           00330                                    A0
000516: 25,2424           03664                           STORE    A1                                    #  A1/25G
000517:
000518: 25,2425           51145        V1LEAD             DLOAD    BPL                                   #  IF L/D NEG, V1=V1 - 1000
000519: 25,2426           03634                                    L/D
000520: 25,2427           52434                                    HUNTEST1
000521:
000522: 25,2430           45345                           DLOAD    DSU
000523: 25,2431           00326                                    V1


000525: 25,2432           15214                                    VQUIT
000526: 25,2433           00326                           STORE    V1
000527:
000528: 25,2434           41345        HUNTEST1           DLOAD    DMP                                   #  ALP = 2 C1 HS A0/LEWD V1 V1
000529: 25,2435           00330                                    A0
000530: 25,2436           15272                                    2C1HS
000531: 25,2437           40271                           DDV      SETPD
000532: 25,2440           00326                                    V1
000533: 25,2441           00001                                    0
000534: 25,2442           56271                           DDV      DDV
000535: 25,2443           00326                                    V1
000536: 25,2444           03725                                    LEWD
000537: 25,2445           03704                           STORE    ALP
000538:
000539: 25,2446           55221                           BDSU     BDDV                                  #  FACT1 = V1 / (1 - ALP)
000540: 25,2447           17334                                    BARELY1
000541: 25,2450           00326                                    V1
000542: 25,2451           17616                           STODL    FACT1                                 #  FACT1 / 2VS
000543:
000544: 25,2452           03704                                    ALP
000545: 25,2453           41225                           DSU      DMP                                   #  FACT2 = ALP(ALP - 1) / A0
000546: 25,2454           17334                                    BARELY1
000547: 25,2455           03704                                    ALP
000548: 25,2456           77671                           DDV
000549: 25,2457           00330                                    A0
000550: 25,2460           03620                           STORE    FACT2                                 #  FACT2  (25G)
000551:
000552: 25,2461           43205                           DMP      DAD
000553: 25,2462           03175                                    Q7                                    #  Q7 /805 = Q7 / 25G
000554: 25,2463           03704                                    ALP                                   #  VL=FACT1 (1-SQRT(Q7 FACT2 +ALP)  )
000555: 25,2464           44366                           SQRT     BDSU
000556: 25,2465           17334                                    BARELY1
000557: 25,2466           77605                           DMP
000558: 25,2467           03616                                    FACT1
000559: 25,2470           03767                           STORE    VL                                    #  VL / 2 VS
000560:
000561: 25,2471           41221                           BDSU     DMP                                   #  GAMMAL1 = LEWD (V1-VL)/VL
000562: 25,2472           00326                                    V1
000563: 25,2473           03725                                    LEWD
000564: 25,2474           77671                           DDV
000565: 25,2475           03767                                    VL
000566: 25,2476           14027                           STODL    GAMMAL1                               #  GAMMAL1 USED IN UPCONTROL
000567:
000568:                                                                                                  #                                          GAMMAL1 = PDL 22D.
000569: 25,2477           03767                                    VL
000570: 25,2500           50025                           DSU      BMN                                   #  IF VL-VLMIN NEG, GO TO PREFINAL
000571: 25,2501           15204                                    VLMIN
000572: 25,2502           53326                                    PREFINAL
000573:
000574: 25,2503           63545                           DLOAD    DSQ


000576: 25,2504           03767                                    VL
000577: 25,2505           17666                           STODL    VBARS                                 #  VBARS / 4 VS VS
000578:
000579: 25,2506           15330                                    HALVE                                 #  IF VSAT-VL  NEG, GO TO CONSTD
000580: 25,2507           50025                           DSU      BMN
000581: 25,2510           03767                                    VL
000582: 25,2511           53220                                    BECONSTD                              #  SET MODE=HUNTEST, CONTINUE IN CONSTD
000583: 25,2512           17662                           STODL    DVL                                   #  DVL / 2VS
000584:
000585: 25,2513           15330                                    HALVE
000586: 25,2514           03672                           STORE    VS1                                   #  VS1 = VSAT
000587:
000588: 25,2515           50025                           DSU      BMN                                   #  IF V1 GREATER THAN VSAT , GO ON
000589: 25,2516           00326                                    V1
000590: 25,2517           52525                                    GETDHOOK
000591: 25,2520           77621                           BDSU
000592: 25,2521           03662                                    DVL
000593: 25,2522           17662                           STODL    DVL                                   #  DVL = DVL - (VSAT-V1) = V1 - VL
000594: 25,2523           00326                                    V1
000595: 25,2524           03672                           STORE    VS1                                   #  VS1 = V1,  IN THIS CASE
000596:
000597: 25,2525           45145        GETDHOOK           DLOAD    CALL                                  #  DHOOK=((1-VS1/FACT1) SQ -ALP)/FACT2
000598: 25,2526           03672                                    VS1                                   #  VS1 /2 VS
000599: 25,2527           52776                                    DHOOKYQ7                              #  GO CALC DHOOK
000600: 25,2530           03656                           STORE    DHOOK                                 #  DHOOK /25G
000601:
000602: 25,2531           56261                           SR       DDV
000603: 25,2532           20606                                    5                                     #  CHOOK
000604: 25,2533           03175                                    Q7
000605: 25,2534           77625                           DSU
000606: 25,2535           15250                                    CHOOK                                 #  = 1  (-5)  = .25 /8
000607: 25,2536           03660                           STORE    AHOOKDV
000608:
000609: 25,2537           41215                           DAD      DMP                                   #  GAMMAL= GAMMAL1-CH1 DVL SQ(1+AHOOK DVL)
000610: 25,2540           15252                                    1/8TH                                 #                            /DHOOK VBARS
000611: 25,2541           15254                                    CH1
000612: 25,2542           41205                           DMP      DMP
000613: 25,2543           03662                                    DVL
000614: 25,2544           03662                                    DVL
000615: 25,2545           56271                           DDV      DDV
000616: 25,2546           03656                                    DHOOK
000617: 25,2547           03666                                    VBARS
000618: 25,2550           50021                           BDSU     BMN
000619: 25,2551           00027                                    GAMMAL1
000620: 25,2552           52743                                    NEGAMA
000621: 25,2553           03771        HUNTEST3           STORE    GAMMAL
000622:
000623: 25,2554           77625                           DSU                                            #  GAMMAL1=GAMMAL1 +Q19 (GAMMAL-GAMMAL1)
000624: 25,2555           00027                                    GAMMAL1
000625: 25,2556           43205                           DMP      DAD


000627: 25,2557           15330                                    Q19
000628: 25,2560           00027                                    GAMMAL1
000629: 25,2561           14027                           STODL    GAMMAL1
000630: 25,2562           03771                                    GAMMAL
000631:


000633:                                                                                                  #   *START    RANGE PREDICTION  ...
000634:
000635:                                                                                                  #                                          C(MPAC) = GAMMAL
000636: 25,2563           60516        RANGER             DSQ      SR2                                   #  COSG = 1-GAMMAL SQ/2, TRUNCATED SERIES
000637: 25,2564           77621                           BDSU
000638: 25,2565           15330                                    HALVE
000639: 25,2566           17670                           STODL    COSG/2
000640: 25,2567           03666                                    VBARS                                 #  E=SQRT(1+VBARS........
000641:
000642: 25,2570           41225                           DSU      DMP
000643: 25,2571           15330                                    HALVE
000644: 25,2572           03666                                    VBARS
000645: 25,2573           41205                           DMP      DMP
000646: 25,2574           03670                                    COSG/2
000647: 25,2575           03670                                    COSG/2
000648: 25,2576           43312                           SL2      DAD
000649: 25,2577           17330                                    C1/16                                 #  C1/16 = 1/16
000650: 25,2600           65366                           SQRT     PDDL                                  #  E/4 INTO PDL
000651:
000652: 25,2601           03666                                    VBARS
000653: 25,2602           41205                           DMP      DMP                                   #  ASKEP/2 = ARCSIN(VBARS COSG SING/E)
000654: 25,2603           03670                                    COSG/2
000655: 25,2604           03771                                    GAMMAL
000656: 25,2605           67471                           DDV      ASIN
000657: 25,2606           41552                           SL1      PUSH                                  #  ASKEP TO PDL 0.
000658: 25,2607           17731                           STODL    ASKEP                                 #  BALLISTIC RANGE       ASKEP/2PI
000659:
000660:                                                                                                  #                                  FOR TM, STORE RANGE COMPONENTS OVERLAPPING (SP)
000661: 25,2610           03767                                    VL
000662: 25,2611           43205                           DMP      DAD                                   #  ASP1 = Q2 + Q3 VL
000663: 25,2612           15170                                    Q3
000664: 25,2613           03712                                    Q2
000665: 25,2614           03732                           STORE    ASP1                                  #  FINAL PHASE RANGE     ASP1/2 PI
000666:
000667: 25,2615           63525                           PDDL     DSQ                                   #  ASP1 TO PDL 2.
000668: 25,2616           00326                                    V1
000669:                                                                                                  #                                                            2
000670:                                                                                                  #                                          ASPUP= -C12 LOG(V1 Q7/VBARS A0)/GAMMAL1
000671: 25,2617           56205                           DMP      DDV
000672: 25,2620           03175                                    Q7
000673: 25,2621           03666                                    VBARS
000674: 25,2622           45071                           DDV      CALL
000675: 25,2623           00330                                    A0
000676: 25,2624           46155                                    LOG                                   #  RETURN WITH -LOG IN MPAC
000677:
000678: 25,2625           56205                           DMP      DDV
000679: 25,2626           15206                                    C12
000680: 25,2627           00027                                    GAMMAL1
000681: 25,2630           03733                           STORE    ASPUP                                 #  UP PHASE RANGE       ASPUP / 2 PI


000683: 25,2631           41325                           PDDL     DMP                                   #  ASPUP TO PDL 4.
000684: 25,2632           15256                                    KC3                                   #  KC3 =-4 VS VS/ 2 PI 805 RE
000685:                                                                                                  #                                          ASPDWN = KC3 RDOT V / A0
000686: 25,2633           03700                                    RDOT
000687: 25,2634           56205                           DMP      DDV
000688: 25,2635           03674                                    V
000689: 25,2636           00330                                    A0
000690: 25,2637           41471                           DDV      PUSH                                  #  ASPDWN TO PDL 6.
000691: 25,2640           03624                                    LAD
000692: 25,2641           17734                           STODL    ASPDWN                                #  RANGE TO PULL OUT        ASPDWN /2 PI
000693:
000694: 25,2642           15174                                    Q6
000695: 25,2643           41225                           DSU      DMP                                   #  ASP3 = Q5(Q6-GAMMAL)
000696: 25,2644           03771                                    GAMMAL
000697: 25,2645           15172                                    Q5
000698: 25,2646           27735                           STOVL    ASP3                                  #  GAMMA CORRECTION        ASP3/2PI
000699:
000700: 25,2647           03731                                    ASKEP                                 #  GET HI-WD AND
000701: 25,2650           17126                           STODL    ASPS(TM)                              #  SAVE HI-WORD OF ASP'S FOR TM.
000702:
000703: 25,2651           03735                                    ASP3
000704: 25,2652           43215                           DAD      DAD
000705:                                                                                                  #                                          ASPDWN FROM PDL 6.
000706:                                                                                                  #                                          ASPUP FROM PDL 4.
000707: 25,2653           43215                           DAD      DAD
000708:                                                                                                  #                                          ASP1 FROM PDL 2.
000709:                                                                                                  #                                          ASKEP FROM PDL 0.
000710: 25,2654           41025                           DSU      BOVB                                  #  CLEAR OVFIND.
000711: 25,2655           03702                                    THETAH
000712: 25,2656           57314                                    TCDANZIG
000713: 25,2657           03610                           STORE    DIFF                                  #  DIFF = (ASP-THETAH) /2 PI
000714:                                                                                                  #                               ASP=ASKEP+ASP1+ASPUP+ASP3+ASPDWN = TOTAL RANGE
000715:
000716: 25,2660           45246                           ABS      DSU                                   #  IF ABS(THETAH-ASP) -25NM NEG, GO TO UPSY
000717: 25,2661           15222                                    25NM
000718: 25,2662           43040                           BMN      BON
000719: 25,2663           53025                                    GOTOUPSY
000720: 25,2664           03311                                    HIND
000721: 25,2665           52671                                    GETLEWD
000722:
000723: 25,2666           51145                           DLOAD    BPL
000724: 25,2667           03610                                    DIFF
000725: 25,2670           53213                                    DCONSTD                               #  EVENTUALLY SETS MODE = HUNTEST.
000726: 25,2671           41345        GETLEWD            DLOAD    DMP
000727:                                                                                                  #                                          DLEWD = DLEWD (DIFF/(DIFFOLD-DIFF))
000728: 25,2672           03642                                    DLEWD
000729: 25,2673           03610                                    DIFF
000730: 25,2674           45325                           PDDL     DSU
000731: 25,2675           03612                                    DIFFOLD
000732: 25,2676           03610                                    DIFF


000734: 25,2677           77665                           BDDV
000735: 25,2700           77626        LWDSTORE           STADR
000736: 25,2701           74135                           STORE    DLEWD
000737: 25,2702           50015                           DAD      BMN                                   #  IF LEWD+DLEWD NEG,DLEWD=-LEWD/2
000738: 25,2703           03725                                    LEWD
000739: 25,2704           52737                                    LEWDPTR
000740: 25,2705           77600                           BOV
000741: 25,2706           52733                                    LEWDOVFL
000742: 25,2707           03725                           STORE    LEWD
000743:
000744: 25,2710           77776        SIDETRAK           EXIT
000745:
000746: 25,2711           34753                           CA       EBENTRY
000747: 25,2712           54003                           TS       EBANK
000748:
000749: 25,2713           34763                           CA       PRIO16                                #  DROP GRP 5 RESTART PRIO TO 1 LESS THAN
000750: 25,2714           55064                           TS       PHSPRDT5                              #  GRP 4.
000751:
000752: 25,2715           05301                           TC       PHASCHNG
000753: 25,2716           00474                           OCT      00474                                 #  RESTART GRP 4 AT PRE-HUNT.
000754:                                                                                                  #                                          FORCE RESTART TO PICK UP IN GRP 4:
000755:                                                                                                  #                                          USE PRIO 17 FOR GRP 4( < SERVICER PRIO)
000756: 25,2717           34763                           CA       PRIO16                                #  CONTINUE GRP 5 AT LOWER PRIO THAN EITHER
000757:                                                                                                  #                                          GRP 4 OR SERVICER.
000758: 25,2720           05103                           TC       PRIOCHNG
000759:
000760: 25,2721           33024                           CAF      ADENDEXT                              #  SIDETRACK NEXT PASS UNTIL THIS ONE DONE.
000761: 25,2722           55645                           TS       GOTOADDR                              #  ONLY AFTER RESTART IS LEFT AFTER DETOUR.
000762:
000763: 25,2723           06006                           TC       INTPRET
000764:
000765: 25,2724           43145                           DLOAD    SET
000766: 25,2725           03610                                    DIFF
000767: 25,2726           03071                                    HIND
000768: 25,2727           17612                           STODL    DIFFOLD                               #  DIFFOLD / 2 PI
000769:
000770: 25,2730           15176                                    Q7F
000771: 25,2731           37175                           STCALL   Q7                                    #  Q7 / 805 FPSS
000772: 25,2732           52365                                    HUNTEST                               #   (GO TO )
000773:
000774: 25,2733           77745        LEWDOVFL           DLOAD
000775: 25,2734           17334                                    NEARONE
000776: 25,2735           37725                           STCALL   LEWD
000777: 25,2736           53213                                    DCONSTD                               #  (GO TO)  ALSO WILL SET MODE = HUNTEST
000778:
000779: 25,2737           70545        LEWDPTR            DLOAD    SR1
000780: 25,2740           03725                                    LEWD
000781: 25,2741           52076                           DCOMP    GOTO
000782: 25,2742           52700                                    LWDSTORE
000783:


000785:                                                                                                  #   NEGAMA IS PART OF HUNTEST ...
000786:
000787: 25,2743           41205        NEGAMA             DMP      DMP                                   #  ENTER WITH GAMMAL IN MPAC
000788: 25,2744           03767                                    VL
000789: 25,2745           15146                                    1/3RD
000790: 25,2746           41325                           PDDL     DMP                                   #  PUSH GAMMAL VL/3
000791: 25,2747           03725                                    LEWD
000792: 25,2750           15146                                    1/3RD
000793: 25,2751           43325                           PDDL     DAD                                   #  PUSH LEWD/3
000794: 25,2752           03660                                    AHOOKDV
000795: 25,2753           15145                                    1/12TH
000796: 25,2754           41205                           DMP      DMP                                   #  DEL VL =(GAMMAL VL/3)/(LEWD/3-DVL
000797: 25,2755           03662                                    DVL                                   #  (2/3 + AHOOKDV)(CH1 GS/DHOOK VL))
000798: 25,2756           15254                                    CH1
000799: 25,2757           56271                           DDV      DDV
000800: 25,2760           03656                                    DHOOK
000801: 25,2761           03767                                    VL
000802: 25,2762           55221                           BDSU     BDDV
000803:                                                                                                  #                                          LEWD/3
000804:                                                                                                  #                                          GAMMAL VL /3
000805: 25,2763           77615                           DAD
000806: 25,2764           03767                                    VL
000807: 25,2765           37767                           STCALL   VL                                    #  VL/2 VS
000808:
000809: 25,2766           52776                                    DHOOKYQ7                              #  GO CALC Q7
000810:                                                                                                  #                                          Q7=((1-VL/FACT1)SQ - ALP)/FACT2
000811: 25,2767           17175                           STODL    Q7                                    #  Q7 / 25G
000812:
000813: 25,2770           03767                                    VL
000814: 25,2771           77716                           DSQ
000815: 25,2772           17666                           STODL    VBARS                                 #  VBARS / 4 VS VS
000816:
000817: 25,2773           15332                                    3ZEROS
000818: 25,2774           77650                           GOTO                                           #  SET GAMMAL = 0
000819: 25,2775           52553                                    HUNTEST3
000820:
000821: 25,2776           56342        DHOOKYQ7           SR1      DDV                                   #  SUBROUTINE TO CALC DHOOK OR Q7)
000822: 25,2777           03616                                    FACT1
000823: 25,3000           72421                           BDSU     SL1
000824: 25,3001           15330                                    HALVE
000825: 25,3002           45316                           DSQ      DSU
000826: 25,3003           03704                                    ALP
000827: 25,3004           43471                           DDV      RVQ
000828: 25,3005           03620                                    FACT2
000829:


000831:
000832:
000833:
000834:                                                                                                  #                               COME TO PRE-HUNT WHEN RESTART OCCURS AFTER
000835:                                                                                                  #                               HUNTEST IS SIDE-TRACKED AT SIDETRAK.
000836:                                                                                                  #                               PICK UP IN GROUP 4.
000837:
000838: 25,3006           06006        PRE-HUNT           TC       INTPRET
000839: 25,3007           45014                           CLEAR    CALL
000840: 25,3010           03271                                    HIND                                  #  HIND       99D  BIT 6  FLAG 6
000841: 25,3011           53014                                    FOREHUNT                              #  RE-INITIALIZE HUNTEST AFTER RE-START.
000842: 25,3012           77650                           GOTO
000843: 25,3013           52365                                    HUNTEST
000844:
000845:
000846: 25,3014           77745        FOREHUNT           DLOAD                                          #  INITIALIZE HUNTEST.
000847: 25,3015           15332                                    3ZEROS
000848: 25,3016           17612                           STODL    DIFFOLD
000849: 25,3017           15156                                    DLEWD0
000850: 25,3020           17642                           STODL    DLEWD
000851: 25,3021           15150                                    LEWD1
000852: 25,3022           03725                           STORE    LEWD
000853: 25,3023           77616                           RVQ
000854:
000855:
000856:
000857: 25,3024           53570        ADENDEXT           CADR     ENDEXIT
000858:


000860:                                                                                                  #  * START  UP CONTROL  ...
000861:
000862:                                                                                                  #                                          MM = 65
000863: 25,3025           77634        GOTOUPSY           RTB                                            #  END OF HUNTEST
000864: 25,3026           54440                                    P65                                   #  HUNTEST USE OF GRP4 IS DISABLED BY P65
000865:                                                                                                  #                                          USE FOR DISPLAY.
000866:                                                                                                  #                                          SET MODE = UPCONTRL.
000867:                                                                                                  #                                          RETURN FROM P65 DIRECTLY TO UPCONTRL
000868:                                                                                                  #                                          VIA THE GOTOADDR AT REFAZE10.
000869:
000870: 25,3027           45345        UPCONTRL           DLOAD    DSU                                   #  IF D-140 POS, NOSWITCH =1
000871: 25,3030           03640                                    D                                     #  (SUPPRESS LATERAL SWITCH)
000872: 25,3031           15220                                    C21
000873: 25,3032           43040                           BMN      SET
000874: 25,3033           53035                                    +2
000875: 25,3034           03070                                    NOSWITCH
000876:
000877: 25,3035           45345                           DLOAD    DSU                                   #  IF  V-V1  POS, GO TO DOWN CONTROL.
000878: 25,3036           03674                                    V
000879: 25,3037           00326                                    V1
000880: 25,3040           71244                           BPL      DLOAD
000881: 25,3041           53252                                    DOWNCNTL
000882: 25,3042           03640                                    D
000883: 25,3043           50025                           DSU      BMN                                   #  IF D- Q7 NEG, GO TO KEP
000884: 25,3044           03175                                    Q7
000885: 25,3045           53305                                    KEP
000886: 25,3046           51145                           DLOAD    BPL                                   #  IF RDOT NEG, DO VLTEST
000887: 25,3047           03700                                    RDOT
000888: 25,3050           53057                                    CONT1
000889:
000890: 25,3051           45345        VLTEST             DLOAD    DSU                                   #  IF V-VL-C18 NEG,EGSW=1,MODE=PREDICT3
000891: 25,3052           03674                                    V
000892: 25,3053           03767                                    VL
000893: 25,3054           50025                           DSU      BMN
000894: 25,3055           15164                                    C18
000895: 25,3056           53326                                    PREFINAL
000896:
000897: 25,3057           77745        CONT1              DLOAD                                          #  IF D-A0 POS, L/D = LAD, GO TO LIMITL/D
000898: 25,3060           03640                                    D
000899: 25,3061           50025                           DSU      BMN
000900: 25,3062           00330                                    A0
000901: 25,3063           53067                                    CONT3
000902: 25,3064           52145                           DLOAD    GOTO
000903: 25,3065           03624                                    LAD
000904: 25,3066           53520                                    STOREL/D
000905:
000906: 25,3067           41345        CONT3              DLOAD    DMP                                   #  VREF=FACT1(1-SQRT(FACT2 D + ALP))
000907: 25,3070           03640                                    D
000908: 25,3071           03620                                    FACT2


000910: 25,3072           75415                           DAD      SQRT
000911: 25,3073           03704                                    ALP
000912: 25,3074           41221                           BDSU     DMP
000913: 25,3075           17334                                    BARELY1
000914: 25,3076           03616                                    FACT1
000915: 25,3077           01160                           STORE    VREF                                  #  VREF / 2VS
000916:
000917: 25,3100           41221                           BDSU     DMP                                   #  RDOTREF = LEWD(V1-VREF)
000918: 25,3101           00326                                    V1
000919: 25,3102           03725                                    LEWD
000920: 25,3103           15156                           STODL    RDOTREF                               #  RDOTREF / 2VS
000921:
000922: 25,3104           03672                                    VS1
000923: 25,3105           50025                           DSU      BMN                                   #  IF VSAT-VREF NEG, GO TO CONTINU2
000924: 25,3106           01160                                    VREF
000925: 25,3107           53126                                    CONTINU2
000926:
000927: 25,3110           41406                           PUSH     PUSH                                  #  VS1-VREF  TO PDL TWICE
000928: 25,3111           56205                           DMP      DDV                                   #  RDHOOK=CH1(1+DV AHOOKDV/DVL) DV DV
000929: 25,3112           03660                                    AHOOKDV                               #      /DHOOK VREF
000930: 25,3113           03662                                    DVL                                   #  WHERE  DV = (VS1-VREF)
000931: 25,3114           41215                           DAD      DMP
000932: 25,3115           15252                                    1/8TH
000933: 25,3116           15254                                    CH1
000934: 25,3117           41205                           DMP      DMP
000935:                                                                                                  #                                          VS1-VREF  FROM PDL TWICE.
000936: 25,3120           77671                           DDV
000937: 25,3121           03656                                    DHOOK
000938: 25,3122           44271                           DDV      BDSU
000939: 25,3123           01160                                    VREF
000940: 25,3124           01156                                    RDOTREF                               #  C(RDOTREF)= LEWD (V1-VREF)
000941: 25,3125           01156                           STORE    RDOTREF                               #  RDOTREF = RDOTREF - RDHOOK
000942:
000943: 25,3126           45345        CONTINU2           DLOAD    DSU
000944: 25,3127           03640                                    D
000945: 25,3130           15312                                    Q7MIN
000946: 25,3131           50004                           BOVB     BMN
000947: 25,3132           57314                                    TCDANZIG                              #  CLEAR OVFL IND, IF ON.
000948: 25,3133           53144                                    UPCNTRL3
000949: 25,3134           45345                           DLOAD    DSU
000950: 25,3135           03664                                    A1
000951: 25,3136           03175                                    Q7
000952: 25,3137           45325                           PDDL     DSU
000953: 25,3140           03640                                    D
000954: 25,3141           03175                                    Q7
000955: 25,3142           45471                           DDV      STADR
000956: 25,3143           74163                           STORE    FACTOR                                #  FACTOR / 25G
000957:


000959:                                                                                                  #  SKIPPER
000960:
000961:                                                                                                  #                               DELTA L/D=-((RDOT-RDOTREF)F1 KB1+V-VREF)F1 KB2
000962:                                                                                                  #                                   WHERE F1 = FACTOR
000963:
000964: 25,3144           77745        UPCNTRL3           DLOAD
000965: 25,3145           03700                                    RDOT
000966: 25,3146           41225                           DSU      DMP                                   #  L/D = LEWD
000967: 25,3147           01156                                    RDOTREF                               #  -((RDOT-RDOTREF)F1/KB1+V-VREF)F1/KB2
000968: 25,3150           03614                                    FACTOR
000969: 25,3151           43271                           DDV      DAD
000970: 25,3152           15210                                    1/KB1
000971: 25,3153           03674                                    V
000972: 25,3154           41225                           DSU      DMP
000973: 25,3155           01160                                    VREF
000974: 25,3156           03614                                    FACTOR
000975: 25,3157           41471                           DDV      PUSH
000976:
000977: 25,3160           15212                                    -1/KB2                                #  DELTA L/D INTO PDL
000978: 25,3161           51400                           BOV      ABS                                   #  NONLINEAR CIRCUIT FOR REDUCING HIGH GAIN
000979: 25,3162           53465                                    GOMAXL/D
000980: 25,3163           50025                           DSU      BMN
000981: 25,3164           15274                                    PT1/16
000982: 25,3165           53172                                    NEXT1
000983: 25,3166           43205                           DMP      DAD
000984: 25,3167           15152                                    POINT1
000985: 25,3170           15274                                    PT1/16
000986: 25,3171           41565                           SIGN     PUSH                                  #  ATTACH SIGN OF PUSH TO MPAC THEN PUSH
000987:
000988: 25,3172           42545        NEXT1              DLOAD    SL4
000989:                                                                                                  #                                          DELTA L/D FROM PDL.
000990:
000991: 25,3173           77615                           DAD
000992: 25,3174           03725                                    LEWD
000993: 25,3175           41400        NEGTESTS           BOV      PUSH                                  #  L/D TO PDL FOR USE IN NEGTESTS.
000994: 25,3176           53465                                    GOMAXL/D
000995: 25,3177           17634                           STODL    L/D
000996:                                                                                                  #                                          IF D-C20 POS, LATSW =0
000997:                                                                                                  #                                          AND IF L/D NEG, L/D = 0.
000998: 25,3200           03640                                    D
000999: 25,3201           50025                           DSU      BMN
001000: 25,3202           15216                                    C20
001001: 25,3203           53521                                    LIMITL/D
001002: 25,3204           71214                           CLEAR    DLOAD
001003: 25,3205           03273                                    LATSW                                 #  =21D.  ROLL OVER TOP, REGARDLESS.
001004:                                                                                                  #                                          L/D FROM PDL.
001005: 25,3206           71244                           BPL      DLOAD
001006: 25,3207           53521                                    LIMITL/D
001007: 25,3210           15332                                    3ZEROS
001008: 25,3211           37634                           STCALL   L/D
001009: 25,3212           53521                                    LIMITL/D                              #  (GO TO)


001011: 25,3213           77745        DCONSTD            DLOAD                                          #  TWO RANGER ENTRIES TO CONSTD HERE
001012: 25,3214           03610                                    DIFF
001013:                                                                                                  #                                          SAVE OLD VALUE OF DIFF FOR NEXT PASS.
001014: 25,3215           17612                           STODL    DIFFOLD                               #  DIFFOLD / 2 PI
001015:
001016: 25,3216           15176                                    Q7F
001017: 25,3217           03175                           STORE    Q7
001018:
001019: 25,3220           47131        BECONSTD           SSP      RTB                                   #  A HUNTEST ENTRY INTO CONSTD.
001020: 25,3221           03646                                    GOTOADDR                              #  RESET MODE TO HUNTEST
001021: 25,3222           52365                                    HUNTEST
001022: 25,3223           54505                                    KILLGRP4                              #  DEACTIVATE GRP4 FROM HUNTEST.
001023:
001024: 25,3224           77604        CONSTD             BOVB
001025: 25,3225           57314                                    TCDANZIG                              #  CLEAR OVF IND IF ON.
001026:
001027: 25,3226           41345                           DLOAD    DMP
001028: 25,3227           03654                                    LEQ
001029: 25,3230           03706                                    C/D0                                  #  C/D0 = -4/D0  B-8
001030: 25,3231           41325                           PDDL     DMP                                   #  LEQ C/D0  INTO PDL
001031: 25,3232           15262                                    2HS                                   #  2HS / 4 VS VS
001032: 25,3233           03710                                    D0
001033: 25,3234           43271                           DDV      DAD                                   #  RDOTREF = - 2 HS D0/V
001034: 25,3235           03674                                    V
001035: 25,3236           03700                                    RDOT
001036: 25,3237           43205                           DMP      DAD
001037: 25,3240           15226                                    K2D                                   #  C/D0 LEQ + K2D(RDOT-RDOTREF) INTO PD
001038: 25,3241           77725                           PDDL
001039: 25,3242           03710                                    D0                                    #  D0 /805
001040:
001041: 25,3243           77621        CONSTD1            BDSU                                           #  ENTER WITH  DREF  IN MPAC
001042: 25,3244           03640                                    D
001043: 25,3245           43205                           DMP      DAD
001044: 25,3246           15224                                    K1D                                   #  K2D TERM FROM PUSH
001045: 25,3247           52061                           SL       GOTO
001046: 25,3250           20211                                    8D
001047: 25,3251           53175                                    NEGTESTS                              #  (GO TO)
001048:
001049:
001050: 25,3252           77604        DOWNCNTL           BOVB                                           #  INITIAL PART OF UPCONTROL.
001051: 25,3253           57314                                    TCDANZIG                              #  CLEAR OVFIND , IF ON.
001052:
001053: 25,3254           54345                           DLOAD    SR
001054: 25,3255           03624                                    LAD
001055: 25,3256           20611                                    8D
001056: 25,3257           45325                           PDDL     DSU                                   #  RDTR = LAD(V1-V)
001057: 25,3260           03674                                    V
001058: 25,3261           00326                                    V1
001059: 25,3262           43205                           DMP      DAD
001060: 25,3263           03624                                    LAD


001062: 25,3264           03700                                    RDOT
001063: 25,3265           43205                           DMP      DAD
001064: 25,3266           15226                                    K2D
001065:                                                                                                  #                                          PUSH UP LAD.
001066: 25,3267           45325                           PDDL     DSU                                   #  LAD + K2D(RDOT-RDTR) INTO PD
001067: 25,3270           00326                                    V1
001068: 25,3271           03674                                    V
001069: 25,3272           41316                           DSQ      DMP
001070: 25,3273           03624                                    LAD
001071: 25,3274           65271                           DDV      PDDL                                  #  (V1-V)SQ LAD/(2 C1 HS) INTO PD
001072: 25,3275           15272                                    2C1HS
001073: 25,3276           00326                                    V1
001074: 25,3277           56316                           DSQ      DDV
001075: 25,3300           03622                                    VSQUARE
001076: 25,3301           45265                           BDDV     DSU                                   #  DREF = (V/V1)SQ A0 - PD
001077: 25,3302           00330                                    A0
001078:                                                                                                  #                                          PUSH UP HERE
001079: 25,3303           77650                           GOTO                                           #  C(MPAC) = DREF
001080: 25,3304           53243                                    CONSTD1
001081:
001082:                                                                                                  #                                            2           2
001083:                                                                                                  #                               DREF = (V/V1)  A0 -(V-V1)  LAD/2 C1 HS
001084:


001086:                                                                                                  #  * START  BALLISTIC PHASE  ...
001087:
001088:                                                                                                  #                                          MM = 66     UPCONTRL ENTRY INTO KEP2.
001089: 25,3305           66234        KEP                RTB      SSP
001090: 25,3306           54473                                    P66                                   #   DISPLAY TRIM GIMBAL ANGLE VALUES.
001091: 25,3307           03646                                    GOTOADDR                              #  SET GOTOADDR TO KEPLER PHASE.
001092: 25,3310           53311                                    KEP2
001093:
001094:                                                                                                  #                               KEP2 CAN ALSO BE STARTED UP DIRECTLY FROM INITROLL
001095:                                                                                                  #                               IN P64. PROGRAM WILL IDLE IN P64 UNTIL D EXCEEDS
001096:                                                                                                  #                               .2 G BEFORE GOING ON TO P67.
001097:
001098: 25,3311           45345        KEP2               DLOAD    DSU                                   #  IF Q7F+KDMIN -D NEG,GO TO FINAL PHASE.
001099: 25,3312           15166                                    Q7FKDMIN                              #  (Q7F + KDMIN)/805
001100: 25,3313           03640                                    D
001101: 25,3314           72240                           BMN      TLOAD
001102: 25,3315           53326                                    PREFINAL
001103:
001104:
001105:                                                                                                  #                                          SET ROLLHOLD = ROLLC, IN CASE CMDAPMOD
001106: 25,3316           03316                                    ROLLC                                 #  = +1 EVER ENTERED.
001107: 25,3317           00157                           STORE    MPAC       +2
001108:
001109: 25,3320           72214                           BON      TLOAD                                 #  IF D > .05G, KEEP PRESENT ROLL COMMAND.
001110: 25,3321           03314                                    .05GSW                                #  IF D < .05G, SET ROLL COMMAND = 0.
001111: 25,3322           53324                                    +2
001112: 25,3323           15332                                    3ZEROS                                #  SET ROLLC & ROLLHOLD =0.
001113: 25,3324           37316                 +2        STCALL   ROLLC                                 #  (SP ROLLHOLD FOLLOWS DP ROLLC)
001114: 25,3325           54402                                    P62.3                                 #  CALC DESIRED GIMBAL ANGLES AT PRESENT
001115:                                                                                                  #                                         RN, VN  TO YIELD TRIM ATTITUDE.
001116:                                                                                                  #                                         AVAILABLE IN CPHI'S FOR N22.
001117:


001119:                                                                                                  #  START  FINAL  PHASE  ..
001120:
001121:                                                                                                  #                                          MM = 67
001122: 25,3326           47131        PREFINAL           SSP      RTB
001123: 25,3327           03646                                    GOTOADDR                              #  RESTART PROTECT: RESET GOTOADDR IF CAME
001124: 25,3330           53326                                    PREFINAL                              #  FROM HUNTEST.
001125: 25,3331           54477                                    P67                                   #  DISABLES GRP4. FINE IF FROM HUNTEST.BUT
001126:                                                                                                  #                                          MAY ALSO REMOVE RESTART PROTECTION OF
001127:                                                                                                  #                                          N69 (P65).
001128:                                                                                                  #                                          ROLLC        XRNGERR       DNRNGERR
001129:                                                                                                  #                                          XXX.XX DEG   XXXX.X NM     XXXX.X NM
001130:
001131: 25,3332           66214                           SET      SSP
001132: 25,3333           03067                                    EGSW
001133: 25,3334           03646                                    GOTOADDR
001134: 25,3335           53336                                    PREDICT3
001135:
001136:
001137: 25,3336           45345        PREDICT3           DLOAD    DSU                                   #  IF V-VQUIT NEG, STOP STEERING
001138: 25,3337           03674                                    V
001139: 25,3340           15214                                    VQUIT
001140: 25,3341           77440                           BMN      EXIT
001141: 25,3342           53605                                    STEEROFF
001142:
001143: 25,3343           34753                           CA       EBENTRY                               #  PRECAUTIONARY.
001144: 25,3344           54003                           TS       EBANK
001145:
001146: 25,3345           35660                           CA       TWELVE
001147: 25,3346           55771        BACK               TS       JJ
001148:
001149: 25,3347           41673                           CS       V
001150: 25,3350           51771                           INDEX    JJ
001151: 25,3351           63631                           AD       VREFER                                #  VREF - V, HIGHEST VREF AT END OF TABLE.
001152: 25,3352           10000                           CCS      A                                     #  IF VREF-V POS LOOP BACK
001153: 25,3353           11771                           CCS      JJ                                    #  DECREMENT JJ , JJ CANNOT BE ZERO
001154: 25,3354           13346                           TCF      BACK
001155: 25,3355           64712                           AD       ONE
001156: 25,3356           55646                           TS       TEM1B                                 #  V-VREF IN TEM1B (MUST BE POSITIVE NUM)
001157:
001158: 25,3357           51771                           INDEX    JJ
001159: 25,3360           43631                           CS       VREFER
001160: 25,3361           51771                           INDEX    JJ
001161: 25,3362           63632                           AD       VREFER     +          1               #  V(K+1) - V(K)     (POS NUM)
001162: 25,3363           57646                           XCH      TEM1B
001163: 25,3364           22007                           ZL
001164: 25,3365           00006                           EXTEND
001165: 25,3366           11646                           DV       TEM1B
001166: 25,3367           55651                           TS       GRAD                                  #  GRAD = (V-VREF)/(VK+1 - VK)   (POS NUM
001167:
001168: 25,3370           34715                           CAF      FIVE
001169:


001171: 25,3371           55650        BACK2              TS       MM
001172: 25,3372           34720                           CAF      THIRTEEN
001173: 25,3373           27771                           ADS      JJ
001174: 25,3374           50000                           INDEX    A
001175: 25,3375           43631                           CS       VREFER
001176: 25,3376           51771                           INDEX    JJ
001177: 25,3377           63632                           AD       VREFER     +          1               #   X(K+1) - X(K)
001178: 25,3400           00006                           EXTEND
001179: 25,3401           71651                           MP       GRAD
001180: 25,3402           51771                           INDEX    JJ
001181: 25,3403           63631                           AD       VREFER
001182: 25,3404           51650                           INDEX    MM
001183: 25,3405           55652                           TS       FX                                    #   FX = AK + GRAD (AK+1 - AK)
001184: 25,3406           11650                           CCS      MM
001185: 25,3407           13371                           TCF      BACK2
001186: 25,3410           57653                           XCH      FX         +1                         #  ZERO FX +1 AND GET DREFR
001187: 25,3411           61637                           AD       D
001188: 25,3412           00006                           EXTEND
001189: 25,3413           71657                           MP       FX         +          5               #   F1
001190: 25,3414           52155                           DXCH     MPAC                                  #  MPAC = F1(D-DREF)
001191:
001192: 25,3415           00006                           EXTEND
001193: 25,3416           41700                           DCS      RDOT                                  #  FORM RDOTREF - RDOT
001194: 25,3417           20001                           DDOUBL
001195: 25,3420           20001                           DDOUBL
001196: 25,3421           20001                           DDOUBL                                         #  SCALE UP BY 8 FOR THIS PHASE.
001197: 25,3422           61655                           AD       FX         +          3               #   RDOTREF
001198: 25,3423           00006                           EXTEND
001199: 25,3424           71656                           MP       FX         +          4               #   F2
001200: 25,3425           61654                           AD       FX         +2                         #  RTOGO
001201: 25,3426           20155                           DAS      MPAC                                  #  ADD F2(DADV1-DADVR)
001202: 25,3427           30154                           CA       MPAC
001203: 25,3430           55770                           TS       PREDANG
001204:                                                                                                  #                                          L/D = LOD +(THETA- PREDANG)/ Y
001205: 25,3431           06006                           TC       INTPRET
001206:
001207: 25,3432           45242                           SR3      DSU
001208: 25,3433           03702                                    THETAH
001209: 25,3434           43014                           BON      BOFF
001210: 25,3435           03305                                    GONEPAST
001211: 25,3436           53463                                    GONEGLAD
001212: 25,3437           03747                                    GONEBY
001213: 25,3440           53446                                    HAVDNRNG
001214: 25,3441           43145                           DLOAD    SET                                   #  SET GONEPAST IF GONEBY SET & LATCH IN -
001215: 25,3442           13765                                    MAXRNG                                #  DISPLAY = 9999.9 IF GONEBY         PLACE
001216: 25,3443           03065                                    GONEPAST
001217: 25,3444           37716                           STCALL   DNRNGERR
001218: 25,3445           53463                                    GONEGLAD
001219:
001220: 25,3446           03716        HAVDNRNG           STORE    DNRNGERR                              #  = (PREDANG - THETA) /360


001222: 25,3447           77676                           DCOMP                                          #    FALL SHORT IF NEG, OVERSHOOT IF POS
001223: 25,3450           56204                           BOVB     DDV
001224: 25,3451           57314                                    TCDANZIG                              #  CLEAR OVFIND IF ON.
001225: 25,3452           03653                                    FX                                    #  FX= DRANGE/D L/D = Y
001226: 25,3453           40061                           SL       BOV
001227: 25,3454           20206                                    5
001228: 25,3455           53465                                    GOMAXL/D
001229: 25,3456           40015                           DAD      BOV
001230: 25,3457           03626                                    LOD
001231: 25,3460           53465                                    GOMAXL/D
001232: 25,3461           37634                           STCALL   L/D
001233: 25,3462           53471                                    GLIMITER                              #  (GO TO)
001234:
001235:                                                                                                  #  GONEGLAD  AND GOPOSMAX  ENTRY POINTS FOR  GLIMITER  ...
001236:
001237: 25,3463           77745        GONEGLAD           DLOAD                                          #  SET L/D = -LAD
001238: 25,3464           13464                                    GONEGLAD                              #  (ANY NEGATIVE NUMBER WILL DO)
001239:
001240: 25,3465           41234        GOMAXL/D           RTB      DMP                                   #  L/D = LAD SIGN(MPAC)
001241: 25,3466           45707                                    SIGNMPAC
001242: 25,3467           03624                                    LAD
001243: 25,3470           03634                           STORE    L/D                                   #  AND FALL INTO GLIMITER SECTION
001244:
001245: 25,3471           45345        GLIMITER           DLOAD    DSU                                   #  IF GMAX/2-D POS, GO TO LIMITL/D
001246: 25,3472           15160                                    GMAX/2
001247: 25,3473           03640                                    D
001248: 25,3474           43244                           BPL      DAD                                   #  IF GMAX  -D NEG, GO TO GOPOSLAD
001249: 25,3475           53521                                    LIMITL/D
001250: 25,3476           15160                                    GMAX/2
001251: 25,3477           41240                           BMN      DMP
001252: 25,3500           53516                                    GOPOSLAD
001253: 25,3501           15262                                    2HS
001254: 25,3502           41325                           PDDL     DMP                                   #  2HS(GMAX-D) INTO PD
001255: 25,3503           03654                                    LEQ
001256: 25,3504           15330                                    1/GMAX
001257: 25,3505           41215                           DAD      DMP
001258: 25,3506           03624                                    LAD
001259: 25,3507           56325                           PDDL     DDV                                   #  2HS(GMAX-D) (LEQ/GMAX+LAD) INTO PD
001260: 25,3510           15264                                    2HSGMXSQ
001261: 25,3511           03622                                    VSQUARE
001262: 25,3512           75415                           DAD      SQRT                                  #  XLIM = SQRT(PD+(2HSGMAX/V)SQ)
001263: 25,3513           51015                           DAD      BPL                                   #  IF RDOT+XLIM POS, GO TO LIMITL/D
001264: 25,3514           03700                                    RDOT
001265: 25,3515           53521                                    LIMITL/D
001266:
001267: 25,3516           77745        GOPOSLAD           DLOAD
001268: 25,3517           03624                                    LAD
001269: 25,3520           03634        STOREL/D           STORE    L/D
001270:


001272: 25,3521           77745        LIMITL/D           DLOAD
001273: 25,3522           03634                                    L/D
001274: 25,3523           17636                           STODL    L/D1
001275: 25,3524           03622                                    VSQUARE
001276:
001277: 25,3525           77614                           BON                                            #  NO LATERAL CONTROL IF PAST TARGET
001278: 25,3526           03305                                    GONEPAST
001279: 25,3527           53561                                    L355
001280: 25,3530           43205                           DMP      DAD                                   #  Y= KLAT VSQUARE + LATBIAS
001281: 25,3531           03632                                    KLAT
001282: 25,3532           15242                                    LATBIAS                               #  Y INTO PD
001283: 25,3533           51525        L350               PDDL     ABS                                   #  IF ABS(L/D)-L/DCMINR NEG, GO TO L353
001284: 25,3534           03634                                    L/D
001285: 25,3535           50025                           DSU      BMN
001286: 25,3536           03630                                    L/DCMINR
001287: 25,3537           53546                                    L353
001288: 25,3540           75345                           DLOAD    SIGN                                  #  IF K2ROLL LATANG NEG, GO TO L357
001289: 25,3541           03676                                    LATANG
001290: 25,3542           03644                                    K2ROLL
001291: 25,3543           71240                           BMN      DLOAD
001292: 25,3544           53624                                    L357
001293: 25,3545           41542                           SR1      PUSH                                  #  Y = Y/2
001294: 25,3546           75345        L353               DLOAD    SIGN                                  #  IF LATANG SIGN(K2ROLL)-Y POS, SWITCH
001295: 25,3547           03676                                    LATANG
001296: 25,3550           03644                                    K2ROLL
001297: 25,3551           77625                           DSU
001298: 25,3552           71240                           BMN      DLOAD
001299: 25,3553           53561                                    L355
001300: 25,3554           03644                                    K2ROLL
001301: 25,3555           57414                           BONCLR   DCOMP                                 #  IF NOSWITCH =1, K2ROLL= K2ROLL
001302: 25,3556           03210                                    NOSWITCH
001303: 25,3557           53561                                    L355
001304: 25,3560           03644                           STORE    K2ROLL                                #  K2ROLL = -K2ROLL
001305:
001306: 25,3561           56345        L355               DLOAD    DDV                                   #  ROLLC = ACOS(  (L/D1) / LAD)
001307: 25,3562           03636                                    L/D1
001308: 25,3563           03624                                    LAD                                   #  MPAC SET TO +-1 IF OVERFLOW***
001309: 25,3564           65542                           SR1      ACOS
001310: 25,3565           77765                           SIGN
001311: 25,3566           03644                                    K2ROLL
001312: 25,3567           03316                           STORE    ROLLC
001313:
001314: 25,3570           77776        ENDEXIT            EXIT
001315:
001316: 25,3571           34676        OVERNOUT           CA       BIT13                                 #  ENTRYDSP  =92D  B13
001317: 25,3572           70102                           MASK     CM/FLAGS
001318: 25,3573           00006                           EXTEND
001319: 25,3574           13600                           BZF      NODISKY                               #  OMIT DISPLAY.
001320:
001321: 25,3575           31263                           CA       ENTRYVN                               #  ALL ENTRY DISPLAYS ARE DONE HERE.


001323: 25,3576           04555                           TC       BANKCALL
001324: 25,3577           20621                           CADR     REGODSPR                              #  NO ABORT IF DISKY IN USE
001325:
001326: 25,3600           00004        NODISKY            INHINT
001327: 25,3601           10067                           CCS      NEWJOB                                #  PROTECT READACCS GRP 5, IF SIDETRACKED.
001328: 25,3602           05057                           TC       CHANG1
001329: 25,3603           04574        SERVNOUT           TC       POSTJUMP                              #  ( COME HERE FROM P67.3)
001330: 25,3604           77136                           CADR     SERVEXIT                              #  AND END AVERAGEG JOB VIA  ENDOFJOB.
001331:


001333:                                                                                                  #           DISPLAY WHEN V IS LESS THAN VQUIT.
001334:
001335: 25,3605           77776        STEEROFF           EXIT
001336: 25,3606           34753                           CA       EBENTRY                               #  PRECAUTIONARY.
001337: 25,3607           54003                           TS       EBANK
001338:
001339: 25,3610           34763                           CA       PRIO16                                #  2 LESS THAN NTRYPRIO.
001340: 25,3611           05027                           TC       NOVAC
001341: 25,3612  E6,1661                                  EBANK=   AOG                                   #  ANY EB HERE
001342: 25,3612           02511 54066                     2CADR    P67.1                                 #  START UP REMAINDER OF P67
001343:                                                                                                  #                                          RTOGO        LAT           LONG
001344:                                                                                                  #                                          XXXX.X NM    XXX.XX DEG    XXX.XX DEG
001345:
001346: 25,3614           05261                           TC       2PHSCHNG                              #  INHINT/RELINT DONE.
001347: 25,3615           00414                           OCT      00414                                 #  4.41 RESTART FOR P67.1 DISPLAY JOB.
001348: 25,3616           10035                           OCT      10035                                 #  SERVICER 5.3 RESTART.
001349:
001350: 25,3617           33623                           CA       P67.2CAD                              #  HEREAFTER, DO LAT, LONG.
001351: 25,3620           55645                           TS       GOTOADDR
001352:
001353: 25,3621           06006                           TC       INTPRET
001354: 25,3622           77650                           GOTO
001355: 25,3623           54530        P67.2CAD                    P67.2                                 #  CONTINUE FOR LAT, LONG THIS TIME.
001356:
001357: 25,3624           75345        L357               DLOAD    SIGN                                  #  L/D = L/DCMINR SIGN(L/D)
001358: 25,3625           03630                                    L/DCMINR
001359: 25,3626           03634                                    L/D
001360: 25,3627           37636                           STCALL   L/D1
001361: 25,3630           53561                                    L355                                  #  (GO TO )
001362:


001364:                                                                                                  #      TABLE USED FOR SUB-ORBITAL REFERENCE TRAJECTORY CONTROL.
001365:
001366:
001367: 25,3631           00474        VREFER             DEC      .019288                               #  REFERENCE VELOCITY SCALED V/51532.3946
001368: 25,3632           01235                           DEC      .040809                               #  13 POINTS ARE STORED AS THE INDEPENDENT
001369: 25,3633           02337                           DEC      .076107                               #  VARIABLE AND THEN SIX 13 POINT FUNCTIONS
001370: 25,3634           03721                           DEC      .122156                               #  OF V ARE STORED CONSECUTIVELY
001371: 25,3635           05230                           DEC      .165546
001372: 25,3636           06213                           DEC      .196012
001373: 25,3637           10550                           DEC      .271945
001374: 25,3640           11717                           DEC      .309533
001375: 25,3641           13314                           DEC      .356222
001376: 25,3642           14736                           DEC      .404192
001377: 25,3643           16255                           DEC      .448067
001378: 25,3644           16457                           DEC      .456023
001379: 25,3645           25570                           DEC      .67918                                #   HIGHVELOCITY FOR SAFETY
001380:
001381: 25,3646           77526                           DEC      -.010337                              #  DRANGE/DA   SCALED DRDA/(2700/805)
001382: 25,3647           77360                           DEC      -.016550
001383: 25,3650           77106                           DEC      -.026935
001384: 25,3651           76516                           DEC      -.042039
001385: 25,3652           76071                           DEC      -.058974
001386: 25,3653           75570                           DEC      -.070721
001387: 25,3654           74661                           DEC      -.098538
001388: 25,3655           74436                           DEC      -.107482
001389: 25,3656           73212                           DEC      -.147762
001390: 25,3657           71640                           DEC      -.193289
001391: 25,3660           54557                           DEC      -.602557
001392: 25,3661           40000                           DEC      -.99999
001393: 25,3662           40000                           DEC      -.99999
001394:
001395: 25,3663           77635                           DEC      -.0478599  B-3                        #  -DRANGE/DRDOT
001396: 25,3664           77563                           DEC      -.0683663  B-3                        #  SCALED((2VS/8 2700) DR/DRDOT)
001397: 25,3665           77354                           DEC      -.1343468  B-3
001398: 25,3666           76712                           DEC      -.2759846  B-3
001399: 25,3667           76066                           DEC      -.4731437  B-3
001400: 25,3670           75322                           DEC      -.6472087  B-3
001401: 25,3671           73237                           DEC      -1.171693  B-3
001402: 25,3672           72104                           DEC      -1.466382  B-3
001403: 25,3673           70301                           DEC      -1.905171  B-3
001404: 25,3674           65635                           DEC      -2.547990  B-3
001405: 25,3675           57311                           DEC      -4.151220  B-3
001406: 25,3676           50575                           DEC      -5.813617  B-3
001407: 25,3677           50575                           DEC      -5.813617  B-3
001408:


001410:
001411:
001412:
001413: 25,3700           74443                           DEC      -.0134001  B3                         #  RDOTREF    SCALED (8 RDT/2VS)
001414: 25,3701           74333                           DEC      -.013947   B3
001415: 25,3702           74433                           DEC      -.013462   B3
001416: 25,3703           74763                           DEC      -.011813   B3
001417: 25,3704           75432                           DEC      -.0095631  B3
001418: 25,3705           75735                           DEC      -.00806946 B3
001419: 25,3706           76200                           DEC      -.006828   B3
001420: 25,3707           75735                           DEC      -.00806946 B3
001421: 25,3710           75140                           DEC      -.0109791  B3
001422: 25,3711           74075                           DEC      -.0151498  B3
001423: 25,3712           73312                           DEC      -.0179817  B3
001424: 25,3713           73732                           DEC      -.0159061  B3
001425: 25,3714           73732                           DEC      -.0159061  B3
001426:
001427: 25,3715           00015                           DEC      .0008067                              #  RANGE TO GO SCALED RTOGO/2700
001428: 25,3716           00066                           DEC      .0032963                              #           8.9
001429: 25,3717           00206                           DEC      .0081852                              #           22.1
001430: 25,3720           00431                           DEC      .017148
001431: 25,3721           00712                           DEC      .027926
001432: 25,3722           01136                           DEC      .037
001433: 25,3723           02015                           DEC      .063296
001434: 25,3724           02374                           DEC      .077889
001435: 25,3725           03123                           DEC      .098815
001436: 25,3726           04051                           DEC      .127519
001437: 25,3727           05767                           DEC      .186963
001438: 25,3730           07476                           DEC      .238148
001439: 25,3731           11324                           DEC      .294185185
001440:
001441: 25,3732           76272                           DEC      -.051099                              #  -AREF/805
001442: 25,3733           75472                           DEC      -.074534
001443: 25,3734           74604                           DEC      -.101242
001444: 25,3735           74210                           DEC      -.116646
001445: 25,3736           74052                           DEC      -.122360
001446: 25,3737           73735                           DEC      -.127081
001447: 25,3740           73217                           DEC      -.147453
001448: 25,3741           73013                           DEC      -.155528
001449: 25,3742           73155                           DEC      -.149565
001450: 25,3743           74151                           DEC      -.118509
001451: 25,3744           76703                           DEC      -.034907
001452: 25,3745           77575                           DEC      -.007950
001453: 25,3746           77575                           DEC      -.007950
001454:


001456:
001457:
001458:
001459: 25,3747           00112                           DEC      .004491                               #  DRANGE/D L/D SCALED Y/2700
001460: 25,3750           00204                           DEC      .008081
001461: 25,3751           00407                           DEC      .016030
001462: 25,3752           01113                           DEC      .035815
001463: 25,3753           02161                           DEC      .069422
001464: 25,3754           03260                           DEC      .104519
001465: 25,3755           03717                           DEC      .122
001466: 25,3756           05411                           DEC      .172407
001467: 25,3757           10057                           DEC      .252852
001468: 25,3760           13476                           DEC      .363148
001469: 25,3761           20324                           DEC      .512963
001470: 25,3762           21677                           DEC      .558519
001471: 25,3763           21677                           DEC      .558519                               #   END OF STORED REFERENCE
001472:


001474:                                                                                                  #  REENTRY CONSTANTS.
001475:
001476:                                                                                                  #  DEFINED BY EQUALS
001477:
001478: 25,3764     4721               DEC15              =        LOW4
001479:                                                                                                  #                                          GAMMAL1  =      22D
001480:
001481: 25,3764           16631 06755  MAXRNG             2OCT     16631      06755                      #  DNRNGERR = 9999.9 IF GONEPAST=1
001482:
001483: 26,3144                                           BANK     26
001484: 26,2000                                           SETLOC   REENTRY1
001485: 26,2000                                           BANK
001486:
001487: 26,3144                                           COUNT*   $$/ENTRY
001488:
001489: 26,3144  27,3333               BARELY1            =        NEARONE                               #  COMMON TO BOTH DISK,DANCE.DEFND IN TFF
001490:                                                                                                  #                                          1BITDP               COMMON TO BOTH DISK AND DANCE. DEFND IN VECPOINT.
001491:
001492: 26,3144           02525        1/12TH             DEC      .083333                               #  DP 1/12 USES HI WORD IN 1/3 BELOW
001493: 26,3145           12525 12525  1/3RD              2DEC     .3333333333                            #  DP 1/3
001494:
001495:
001496:                                                                                                  #   BELOW:  VS   =   VSAT  = 25766.1973  FT/SEC
001497:
001498:                                                                                                  #           RE   =  21,202,900   FEET
001499:
001500: 26,3147           04631 23146  LEWD1              2DEC     .15
001501: 26,3151           03146 14632  POINT1             2DEC     .1
001502: 26,3153           06314 31463  POINT2             2DEC     .2                                    #  .2
001503: 26,3155           76314 71462  DLEWD0             2DEC     -.05                                  #   -.05
001504: 26,3157           05075 16051  GMAX/2             2DEC     .16                                   #  8 GS / 2
001505: 26,3161  26,3331               3ZEROS             EQUALS   HI6ZEROS
001506: 26,3161           07777 00000  NEAR1/4            2OCT     07777      00000                      #   1/4 LESS 1 BIT IN UPPER PART.
001507: 26,3163           00236 36763  C18                2DEC     .0097026346                            #   500/2VS
001508: 26,3165           00204 11303  Q7FKDMIN           2DEC     .0080745342                            #  6.5/805  (Q7F +KDMIN) = 6 + .5)
001509: 26,3167  27,3327               C1/16              =        DP2(-4)
001510:
001511: 26,3167           05260 05572  Q3                 2DEC     .167003132                            #   .07 2VS/21600
001512: 26,3171           12343 21616  Q5                 2DEC     .326388889                            #   .3 23500/21600


001514: 26,3173           01073 31515  Q6                 2DEC     .0349                                 #  2 DEG, APPROX 820/23500
001515: 26,3175           00172 03571  Q7F                2DEC     .0074534161                            #   6/805    (VALUE OF Q7 IN FIXED MEM.)
001516: 26,3177  26,3327               Q19                =        HALVE                                 #  Q19 = .5
001517: 26,3177           00573 10230  Q21                2DEC     .0231481481                            #  500/21600
001518: 26,3201           76226 45761  Q22                2DEC     -.053333333                            #  -1152/21600
001519: 26,3203           13132 33062  VLMIN              2DEC     .34929485                             #  18000/2 VS
001520: 26,3205  26,3321               VMIN               =        FOURTH                                #  (VS/2) / 2VS
001521: 26,3205           00160 05104  C12                2DEC     .00684572901                            #  32 28500/(21202900 2 PI)
001522: 26,3207           11322 32265  1/KB1              2DEC     .29411765                             #  1 / 3.4
001523: 26,3211           75047 72454  -1/KB2             2DEC     -.0057074322 B4                         #  = - 1/(  .0034  2  VS)   EXP +4
001524: 26,3213           00475 35746  VQUIT              2DEC     .019405269                            #  1000 /2VS
001525: 26,3215           06751 27515  C20                2DEC     .21739130                             #   (175 FPSS) LIFT UP IF ABOVE C20
001526: 26,3217           05441 14412  C21                2DEC     .17391304                             #  140/805
001527: 26,3221           00022 36641  25NM               2DEC     .0011574074                            #  25/21600        (25 NAUT MILES)
001528: 26,3223           01003 06315  K1D                2DEC     .0314453125                            #  =C16 805/256 = .01 805/256
001529: 26,3225           71435 75516  K2D                2DEC     -.201298418                            #  -C17 2VS/256 = -.001 2VS/256
001530: 26,3227           32047 24367  KVSCALE            2DEC     .81491944                             #   12800/(2 VS .3048)
001531: 26,3231           37200 05636  KASCALE            2DEC     .97657358                             #   5.85 16384/(4 .3048 100 805)
001532: 26,3233           00046 13137  KTETA              2DEC*    .383495203 E2         B-14*           #     1000 2PI/16384(163.84)
001533: 26,3235           00017 30730  KT1                2DEC*    .157788327 E          2               #   RE(2PI)/2 VS(16384) 163.84
001534: 26,3237           00040 30447  .05G               2DEC     .002                                  #   .05/25
001535: 26,3241           00000 17565  LATBIAS            2DEC     .00003                                #   APPRX .5 NM/ 4(21600/2 PI)
001536: 26,3243           01727 20103  KWE                2DEC     .120056652 B-1
001537: 26,3245           00121 17460  KACOS              2DEC     .004973592                            #   1/32(2PI)
001538: 26,3247           01000 00000  CHOOK              2DEC     1          B-5                        #   .25/8
001539: 26,3251           04000 00000  1/8TH              2DEC     .125


001541: 26,3253           12172 34122  CH1                2DEC     .32                                   #  8 CH1/25 = 8 (1) /25
001542: 26,3255           77152 51354  KC3                2DEC     -.0247622232                            #  -(4 VS VS/ 2 PI 805 RE)
001543: 26,3257           00336 21610  VRCONT             2DEC     .0135836886                            #   700/2 VSAT
001544: 26,3261  26,3327               HALVE              EQUALS   HIDPHALF
001545: 26,3261  26,3321               FOURTH             EQUALS   HIDP1/4
001546:
001547: 26,3261  26,3327               1/GMAX             EQUALS   HALVE                                 #  4/GMAX = 4 / 8
001548: 26,3261           00433 02775  2HS                2DEC     .0172786611                            #   2 28500 25 32.2/(4 VS VS)
001549: 26,3263           00000 20017  2HSGMXSQ           2DEC     .0000305717                            #  (2 28500 8 32.2/ 4 VS VS)SQ
001550: 26,3265           77765 70243  C001               2DEC     -.000625                              #  -(4/25)/256    LEQ/D0 CONST
001551: 26,3267           31463 06315  POINT8             2DEC     .8
001552: 26,3271           00541 33575  2C1HS              2DEC     .0215983264                            #   2 1.25 28500 805/(2 VS)SQ
001553: 26,3273           00146 14632  PT1/16             2DEC     .1         B-4
001554: 26,3275           00052 30013  1/K44              2DEC     .00260929464                            #  2 VS/19749550
001555: 26,3277           20411 03041  VFINAL             2DEC     .51618016                             #  26600/2 VS
001556: 26,3301           20610 10513  VFINAL1            2DEC     .523942273                            #  = 27000 / 2 VS
001557: 26,3303           11473 02355  1/KA1              2DEC     .30048077                             #  25/(1.3 64)
001558: 26,3305           00203 02234  KA2                2DEC     .008                                  #  .2 / 25
001559: 26,3307           16237 00146  KA3                2DEC     .44720497                             #  = 90  4/805
001560: 26,3311           01456 03450  KA4                2DEC     .049689441                            #  40/805
001561: 26,3313  26,3311               Q7MIN              =        KA4                                   #  = 40/805 = .049689441
001562: 26,3313           56232 72332  -HSCALED           2DEC     -.55305018                            #  -28500/2 VS
001563: 26,3315           77000 43741  -KSCALE            2DEC     -.0312424837                            #  -805/VS
001564: 26,3317           36702 21727  COS15              2DEC     .965
001565: 26,3321  26,3144               LATSLOPE           EQUALS   1/12TH
001566:                                                                                                  #      ... END OF RE-ENTRY CONSTANTS ...

End of include-file REENTRY_CONTROL.agc.  Parent file is MAIN.agc


