
Source Code


000002:                                                                                                  ## Copyright:   Public domain.
000003:                                                                                                  ## Filename:    RESTARTS_ROUTINE.agc
000004:                                                                                                  ## Purpose:     Part of the source code for Colossus build 237.
000005:                                                                                                  ##              This is for the Command Module's (CM) Apollo Guidance
000006:                                                                                                  ##              Computer (AGC), for Apollo 8.
000007:                                                                                                  ## Assembler:   yaYUL
000008:                                                                                                  ## Contact:     Jim Lawton <jim DOT lawton AT gmail DOT com>
000009:                                                                                                  ## Website:     www.ibiblio.org/apollo/index.html
000010:                                                                                                  ## Page Scans:  www.ibiblio.org/apollo/ScansForConversion/Colossus237/
000011:                                                                                                  ## Mod history: 2011-04-17 JL   Adapted from corresponding Colossus 249 file.
000012:                                                                                                  ##              2017-01-01 RSB  Proofed comment text using octopus/ProoferComments,
000013:                                                                                                  ##                              and fixed errors found.
000014:                                                                                                  ##              2017-03-14 RSB  Comment-text fixes noted in proofing Luminary 116.
000015:


000017: 01,3520                                           BANK     01
000018: 01,2000                                           SETLOC   RESTART
000019: 01,2000                                           BANK
000020:
000021: 01,3520  E3,1436                                  EBANK=   PHSNAME1                              #  GOPROG MUST SWITCH TO THIS EBANK
000022:
000023: 01,3520                                           COUNT    01/RSROU
000024:
000025: 01,3520           30161        RESTARTS           CA       MPAC       +5                         #  GET GROUP NUMBER -1
000026: 01,3521           60000                           DOUBLE                                         #  SAVE FOR INDEXING
000027: 01,3522           54155                           TS       TEMP2G
000028:
000029: 01,3523           33762                           CA       PHS2CADR                              #  SET UP EXIT IN CASE IT IS AN EVEN
000030: 01,3524           54157                           TS       TEMPSWCH                              #  TABLE PHASE
000031:
000032: 01,3525           33557                           CA       RTRNCADR                              #  TO SAVE TIME ASSUME IT WILL GET NEXT
000033: 01,3526           54707                           TS       GOLOC      +2                         #  GROUP AFTER THIS
000034:
000035: 01,3527           30154                           CA       TEMPPHS
000036: 01,3530           74744                           MASK     OCT1400
000037: 01,3531           10000                           CCS      A                                     #  IS IT A VARIABLE OR TABLE RESTART
000038: 01,3532           13543                           TCF      ITSAVAR                               #  IT:S A VARIABLE RESTART
000039:
000040: 01,3533           10154        GETPART2           CCS      TEMPPHS                               #  IS IT AN X.1 RESTART
000041: 01,3534           10000                           CCS      A
000042: 01,3535           13643                           TCF      ITSATBL                               #  NO, ITS A TABLE RESTART
000043:
000044: 01,3536           34761                           CA       PRIO14                                #  IT IS AN X.1 RESTART, THEREFORE START
000045: 01,3537           05042                           TC       FINDVAC                               #  THE DISPLAY RESTART JOB
000046: 01,3540  E3,1400                                  EBANK=   LST1
000047: 01,3540           03165 20103                     2CADR    INITDSP
000048:
000049: 01,3542           03557                           TC       RTRNCADR                              #  FINISHED WITH THIS GROUP, GET NEXT ONE
000050:
000051: 01,3543           74744        ITSAVAR            MASK     OCT1400                               #  IS IT TYPE B ?
000052: 01,3544           10000                           CCS      A
000053: 01,3545           13614                           TCF      ITSLIKEB                              #  YES,IT IS TYPE B
000054:
000055: 01,3546           00006                           EXTEND                                         #  STORE THE JOB (OR TASK) 2CADR FOR EXIT
000056: 01,3547           50155                           NDX      TEMP2G
000057: 01,3550           31437                           DCA      PHSNAME1
000058: 01,3551           52706                           DXCH     GOLOC
000059:
000060: 01,3552           30154                           CA       TEMPPHS                               #  SEE IF THIS IS A JOB, TASK, OR A LONGCAL
000061: 01,3553           74716                           MASK     OCT7
000062: 01,3554           67715                           AD       MINUS2
000063: 01,3555           10000                           CCS      A
000064: 01,3556           13726                           TCF      ITSLNGCL                              #  ITS A LONGCALL
000065:


000067: 01,3557           04570        RTRNCADR           TC       SWRETURN                              #  CANT GET HERE
000068: 01,3560           13562                           TCF      ITSAWAIT
000069:
000070: 01,3561           13627                           TCF      ITSAJOB                               #  ITS A JOB
000071:
000072: 01,3562           33766        ITSAWAIT           CA       WTLTCADR                              #  SET UP WAITLIST CALL
000073: 01,3563           54704                           TS       GOLOC      -1
000074:
000075: 01,3564           50155                           NDX      TEMP2G                                #  DIRECTLY STORED
000076: 01,3565           31054                           CA       PHSPRDT1
000077: 01,3566           10000        TIMETEST           CCS      A                                     #  IS IT AN IMMEDIATE RESTART
000078: 01,3567           24000                           INCR     A                                     #  NO,
000079: 01,3570           13573                           TCF      FINDTIME                              #  FIND OUT WHEN IT SHOULD BEGIN
000080:
000081: 01,3571           15367                           TCF      ITSINDIR                              #  STORED INDIRECTLY
000082:
000083: 01,3572           13612                           TCF      IMEDIATE                              #  IT WANTS AN IMMEDIATE RESTART
000084:
000085:                                                                                                  #  ***** THIS MUST BE IN FIXED FIXED *****
000086:
000087:    5367                                           BLOCK    02
000088:    4000                                           SETLOC   FFTAG2
000089:    4000                                           BANK
000090:
000091:    5367                                           COUNT    02/RSROU
000092:
000093:    5367           22706        ITSINDIR           LXCH     GOLOC      +1                         #  GET THE CORRECT E BANK IN CASE THIS IS
000094:    5370           22006                           LXCH     BB                                    #  SWITCHED ERRASIBLE
000095:
000096:    5371           50000                           NDX      A                                     #  GET THE TIME INDIRECTLY
000097:    5372           30001                           CA       1
000098:
000099:    5373           22006                           LXCH     BB                                    #  RESTORE THE BB AND GOLOC
000100:    5374           22706                           LXCH     GOLOC      +1
000101:
000102:    5375           13573                           TCF      FINDTIME                              #  FIND OUT WHEN IT SHOULD BEGIN
000103:
000104:                                                                                                  #  ***** YOU MAY RETURN TO SWITCHED FIXED *****
000105:
000106: 01,3573                                           BANK     01
000107: 01,2000                                           SETLOC   RESTART
000108: 01,2000                                           BANK
000109:
000110: 01,3573                                           COUNT    01/RSROU
000111:
000112: 01,3573           40000        FINDTIME           COM                                            #  MAKE NEGITIVE SINCE IT WILL BE SUBTRACTD
000113: 01,3574           54001                           TS       L                                     #  AND SAVE
000114: 01,3575           50155                           NDX      TEMP2G
000115: 01,3576           41053                           CS       TBASE1
000116: 01,3577           00006                           EXTEND


000118: 01,3600           60025                           SU       TIME1
000119: 01,3601           10000                           CCS      A
000120: 01,3602           40000                           COM
000121: 01,3603           67700                           AD       OCT37776
000122: 01,3604           64712                           AD       ONE
000123: 01,3605           60001                           AD       L
000124: 01,3606           10000                           CCS      A
000125: 01,3607           34714                           CA       ZERO
000126: 01,3610           13612                           TCF      +2
000127: 01,3611           13612                           TCF      +1
000128: 01,3612           64712        IMEDIATE           AD       ONE
000129: 01,3613           00704                           TC       GOLOC      -1
000130: 01,3614           33557        ITSLIKEB           CA       RTRNCADR                              #  TYPE B,             SO STORE RETURN IN
000131: 01,3615           54157                           TS       TEMPSWCH                              #  TEMPSWCH IN CASE OF AN EVEN PHASE
000132:
000133: 01,3616           33763                           CA       PRT2CADR                              #  SET UP EXIT TO GET TABLE PART OF THIS
000134: 01,3617           54707                           TS       GOLOC      +2                         #  VARIABLE TYPE OF PHASE
000135:
000136: 01,3620           30154                           CA       TEMPPHS                               #  MAKE THE PHASE LOOK RIGHT FOR THE TABLE
000137: 01,3621           76043                           MASK     OCT177                                #  PART OF THIS VARIABLE PHASE
000138: 01,3622           54154                           TS       TEMPPHS
000139:
000140: 01,3623           00006                           EXTEND
000141: 01,3624           50155                           NDX      TEMP2G                                #  OBTAIN THE JOB:S 2CADR
000142: 01,3625           31437                           DCA      PHSNAME1
000143: 01,3626           52706                           DXCH     GOLOC
000144:
000145: 01,3627           50155        ITSAJOB            NDX      TEMP2G                                #  NOW ADD THE PRIORITY AND LET:S GO
000146: 01,3630           31054                           CA       PHSPRDT1
000147: 01,3631           54704        CHKNOVAC           TS       GOLOC      -1                         #  SAVE PRIO UNTIL WE SEE IF ITS
000148: 01,3632           00006                           EXTEND                                         #  A FINDVAC OR A NOVAC
000149: 01,3633           63637                           BZMF     ITSNOVAC
000150:
000151: 01,3634           33765                           CAF      FVACCADR                              #  POSITIVE, SET UP FINDVAC CALL.
000152: 01,3635           56704                           XCH      GOLOC      -1                         #  PICK UP PRIO,
000153: 01,3636           00704                           TC       GOLOC      -1                         #  AND GO
000154:
000155: 01,3637           33767        ITSNOVAC           CAF      NOVACADR                              #  NEGATIVE,
000156: 01,3640           56704                           XCH      GOLOC      -1                         #  SET UP NOVAC CALL,
000157: 01,3641           40000                           COM                                            #  CORRECT PRIO,
000158: 01,3642           00704                           TC       GOLOC      -1                         #  AND GO
000159:
000160: 01,3643           54020        ITSATBL            TS       CYR                                   #  FIND OUT IF THE PHASE IS ODD OR EVEN
000161: 01,3644           10020                           CCS      CYR
000162: 01,3645           13646                           TCF      +1                                    #  IT:S EVEN
000163: 01,3646           13744                           TCF      ITSEVEN
000164:
000165: 01,3647           33557                           CA       RTRNCADR                              #  IN CASE THIS IS THE SECOND PART OF A
000166: 01,3650           54707                           TS       GOLOC      +2                         #  TYPE B RESTART, WE NEED PROPER EXIT
000167:


000169: 01,3651           30154                           CA       TEMPPHS                               #  SET UP POINTER FOR FINDING OUR PLACE IN
000170: 01,3652           54021                           TS       SR                                    #  THE RESTART TABLES
000171: 01,3653           60021                           AD       SR
000172: 01,3654           50155                           NDX      TEMP2G
000173: 01,3655           62001                           AD       SIZETAB    +1
000174: 01,3656           54156                           TS       POINTER
000175:
000176: 01,3657           00006        CONTBL2            EXTEND                                         #  FIND OUT WHAT:S IN THE TABLE
000177: 01,3660           50156                           NDX      POINTER
000178: 01,3661           32002                           DCA      CADRTAB                               #  GET THE 2CADR
000179:
000180: 01,3662           22706                           LXCH     GOLOC      +1                         #  STORE THE BB INFORMATION
000181:
000182: 01,3663           10000                           CCS      A                                     #  IS IT A JOB OR IS IT  TIMED
000183: 01,3664           24000                           INCR     A                                     #  POSITIVE, MUST BE A JOB
000184: 01,3665           13740                           TCF      ITSAJOB2
000185:
000186: 01,3666           24000                           INCR     A                                     #  MUST BE EITHER A WAITLIST OR LONGCALL
000187: 01,3667           54705                           TS       GOLOC                                 #  LET-S STORE THE CORRECT CADR
000188:
000189: 01,3670           33766                           CA       WTLTCADR                              #  SET UP OUR EXIT TO WAITLIST
000190: 01,3671           54704                           TS       GOLOC      -1
000191:
000192: 01,3672           30706                           CA       GOLOC      +1                         #  NOW FIND OUT IF IT IS A WAITLIST CALL
000193: 01,3673           74701                           MASK     BIT10                                 #  THIS SHOULD BE ONE IF WE HAVE -BB
000194: 01,3674           10000                           CCS      A                                     #  FOR THAT MATTER SO SHOULD BE BITS 9,8,7,
000195:                                                                                                  #                                          6,5, AND LAST BUT NOT LEAST (PERHAPS NOT
000196:                                                                                                  #                                          IN IMPORTANCE ANYWAY. BIT 4
000197: 01,3675           13733                           TCF      ITSWTLST                              #  IT IS A WAITLIST CALL
000198:
000199: 01,3676           50156                           NDX      POINTER                               #  OBTAIN THE ORIGINAL DELTA T
000200: 01,3677           32000                           CA       PRDTTAB                               #  ADDRESS FOR THIS LONGCALL
000201:
000202: 01,3700           15376                           TCF      ITSLGCL1                              #  NOW GO GET THE DELTA TIME
000203:
000204:                                                                                                  #  ***** THIS MUST BE IN FIXED FIXED *****
000205:
000206:    5376                                           BLOCK    02
000207:    4000                                           SETLOC   FFTAG2
000208:    4000                                           BANK
000209:
000210:    5376                                           COUNT    02/RSROU
000211:
000212:    5376           22706        ITSLGCL1           LXCH     GOLOC      +1                         #  OBTAIN THE CORRECT E BANK
000213:    5377           22006                           LXCH     BB
000214:    5400           22706                           LXCH     GOLOC      +1                         #  AND PRESERVE OUR E AND F BANKS
000215:
000216:    5401           00006                           EXTEND                                         #  GET THE DELTA TIME
000217:    5402           50000                           NDX      A
000218:    5403           30001                           DCA      0


000220:    5404           22706                           LXCH     GOLOC      +1                         #  RESTORE OUR E AND F BANK
000221:    5405           22006                           LXCH     BB                                    #  RESTORE THE TASKS E AND F BANKS
000222:    5406           22706                           LXCH     GOLOC      +1                         #  AND PRESERVE OUR L
000223:
000224:    5407           13701                           TCF      ITSLGCL2                              #  NOW LET:S PROCESS THIS LONGCALL
000225:
000226:                                                                                                  #  ***** YOU  MAY RETURN TO  SWITCHED FIXED *****
000227:
000228: 01,3701                                           BANK     01
000229: 01,2000                                           SETLOC   RESTART
000230: 01,2000                                           BANK
000231:
000232: 01,3701                                           COUNT    01/RSROU
000233:
000234: 01,3701           53140        ITSLGCL2           DXCH     LONGTIME
000235:
000236: 01,3702           00006                           EXTEND                                         #  CALCULATE TIME LEFT
000237: 01,3703           40025                           DCS      TIME2
000238: 01,3704           21140                           DAS      LONGTIME
000239: 01,3705           00006                           EXTEND
000240: 01,3706           31136                           DCA      LONGBASE
000241: 01,3707           21140                           DAS      LONGTIME
000242:
000243: 01,3710           11137                           CCS      LONGTIME                              #  FIND OUT HOW THIS SHOULD BE RESTARTED
000244: 01,3711           13721                           TCF      LONGCLCL
000245: 01,3712           13714                           TCF      +2
000246: 01,3713           13607                           TCF      IMEDIATE   -3
000247: 01,3714           11140                           CCS      LONGTIME   +1
000248: 01,3715           13721                           TCF      LONGCLCL
000249: 01,3716           13717                           NOOP                                           #  CAN:T GET HERE    *********
000250: 01,3717           13607                           TCF      IMEDIATE   -3
000251: 01,3720           13612                           TCF      IMEDIATE
000252:
000253: 01,3721           33764        LONGCLCL           CA       LGCLCADR                              #  WE WILL GO TO LONGCALL
000254: 01,3722           54704                           TS       GOLOC      -1
000255:
000256: 01,3723           00006                           EXTEND                                         #  PREPARE OUR ENTRY TO LONGCALL
000257: 01,3724           31140                           DCA      LONGTIME
000258: 01,3725           00704                           TC       GOLOC      -1
000259:
000260: 01,3726           33766        ITSLNGCL           CA       WTLTCADR                              #  ASSUME IT WILL GO TO WAITLIST
000261: 01,3727           54704                           TS       GOLOC      -1
000262:
000263: 01,3730           50155                           NDX      TEMP2G
000264: 01,3731           41054                           CS       PHSPRDT1                              #  GET THE DELTA T ADDRESS
000265:
000266: 01,3732           15376                           TCF      ITSLGCL1                              #  NOW GET THE DELTA TIME
000267:
000268: 01,3733           40706        ITSWTLST           CS       GOLOC      +1                         #  CORRECT THE BBCON INFORMATION
000269: 01,3734           54706                           TS       GOLOC      +1


000271: 01,3735           50156                           NDX      POINTER                               #  GET THE DT AND FIND OUT IF IT WAS STORED
000272: 01,3736           32000                           CA       PRDTTAB                               #  DIRECTLY OR INDIRECTLY
000273:
000274: 01,3737           13566                           TCF      TIMETEST                              #  FIND OUT HOW THE TIME IS STORED
000275:
000276: 01,3740           56705        ITSAJOB2           XCH      GOLOC                                 #  STORE THE CADR
000277:
000278: 01,3741           50156                           NDX      POINTER                               #  ADD THE PRIORITY AND LET:S GO
000279: 01,3742           32000                           CA       PRDTTAB
000280:
000281: 01,3743           13631                           TCF      CHKNOVAC
000282:
000283: 01,3744           30157        ITSEVEN            CA       TEMPSWCH                              #  SET UP FOR EITHER THE SECOND PART OF THE
000284: 01,3745           54707                           TS       GOLOC      +2                         #  TABLE, OR A RETURN FOR THE NEXT GROUP
000285:
000286: 01,3746           50155                           NDX      TEMP2G                                #  SET UP POINTER FOR OUR LOCATION WITHIN
000287: 01,3747           32000                           CA       SIZETAB                               #  THE TABLE
000288: 01,3750           60154                           AD       TEMPPHS                               #  THIS MAY LOOK BAD BUT LET:S SEE YOU DO
000289: 01,3751           60154                           AD       TEMPPHS                               #  BETTER IN TIME OR NUMBERR OF LOCATIONS
000290: 01,3752           60154                           AD       TEMPPHS
000291: 01,3753           54156                           TS       POINTER
000292:
000293: 01,3754           13657                           TCF      CONTBL2                               #  NOW PROCESS WHAT IS IN THE TABLE
000294:
000295: 01,3755           36214        PHSPART2           CA       THREE                                 #  SET THE POINTER FOR THE SECOND HALF OF
000296: 01,3756           26156                           ADS      POINTER                               #  THE TABLE
000297:
000298: 01,3757           33557                           CA       RTRNCADR                              #  THIS WILL BE OUR LAST TIME THROUGH THE
000299: 01,3760           54707                           TS       GOLOC      +2                         #  EVEN TABLE , SO AFTER IT  GET THE NEXT
000300:                                                                                                  #  GROUP
000301: 01,3761           13657                           TCF      CONTBL2                               #  SO LET:S GET THE SECOND ENTRY IN THE TBL
000302:
000303: 01,3762     0154               TEMPPHS            EQUALS   MPAC
000304: 01,3762     0155               TEMP2G             EQUALS   MPAC       +1
000305: 01,3762     0156               POINTER            EQUALS   MPAC       +2
000306: 01,3762     0157               TEMPSWCH           EQUALS   MPAC       +3
000307: 01,3762     0705               GOLOC              EQUALS   VAC5       +20D
000308: 01,3762     7715               MINUS2             EQUALS   NEG2
000309: 01,3762     6043               OCT177             EQUALS   LOW7
000310:
000311:
000312: 01,3762           03755        PHS2CADR           GENADR   PHSPART2
000313: 01,3763           03533        PRT2CADR           GENADR   GETPART2
000314: 01,3764           05231        LGCLCADR           GENADR   LONGCALL
000315: 01,3765           05042        FVACCADR           GENADR   FINDVAC
000316: 01,3766           05140        WTLTCADR           GENADR   WAITLIST
000317: 01,3767           05027        NOVACADR           GENADR   NOVAC

End of include-file RESTARTS_ROUTINE.agc.  Parent file is MAIN.agc


