
Source Code


000002:                                                                                                  #  Copyright:    Public domain.
000003:                                                                                                  #  Filename:     SERVICE_ROUTINES.agc
000004:                                                                                                  #  Purpose:      Part of the source code for Colossus build 237.
000005:                                                                                                  #                This is for the Command Module's (CM) Apollo Guidance
000006:                                                                                                  #                Computer (AGC), we believe for Apollo 8.
000007:                                                                                                  #  Assembler:    yaYUL
000008:                                                                                                  #  Contact:      Jim Lawton <jim DOT lawton AT gmail DOT com>
000009:                                                                                                  #  Website:      www.ibiblio.org/apollo/index.html
000010:                                                                                                  #  Page scans:   www.ibiblio.org/apollo/ScansForConversion/Colossus237/
000011:                                                                                                  #  Mod history:  2011-04-17 JL   Adapted from corresponding Colossus 249 file.
000012:
000013:                                                                                                  # # Page 1449
000014:    7717                                           BLOCK    3
000015:    6000                                           SETLOC   FFTAG6
000016:    6000                                           BANK
000017:    7717                                           COUNT    03/FLAG
000018:
000019:    7717           54001        UPENT2             TS       L                                     #  WHICH FLAGWORD IS IT
000020:    7720           74716                           MASK     OCT7
000021:    7721           56001                           XCH      L                                     #  SAVE IN L FOR INDEXING
000022:
000023:    7722           75630                           MASK     OCT77770                              #  OBTAIN THE BIT INFORMATION
000024:    7723           00004                           INHINT                                         #  PREVENT INTERUPTS
000025:    7724           54061                           TS       ITEMP1                                #  STORE THE BIT INFORMATION TEMPORARIALY
000026:
000027:    7725           50001                           NDX      L
000028:    7726           40074                           CS       FLAGWRD0
000029:    7727           70061                           MASK     ITEMP1
000030:    7730           50001                           NDX      L
000031:    7731           26074                           ADS      FLAGWRD0
000032:    7732           00003                           RELINT                                         #  RELEASE INTERUPT INHIBIT
000033:
000034:    7733           24002                           INCR     Q                                     #  OBTAIN THE CORRECT RETURN ADDRESS
000035:    7734           00002                           TC       Q                                     #  RETURN
000036:
000037:    7735           54001        DOWNENT2           TS       L                                     #  WHICH FLAGWORD IS IT
000038:    7736           74716                           MASK     OCT7
000039:    7737           56001                           XCH      L                                     #  SAVE IN L FOR INDEXING
000040:
000041:    7740           75630                           MASK     OCT77770                              #  OBTAIN THE BIT INFORMATION
000042:    7741           40000                           COM                                            #  START TO PROCESS THE INFORMATION
000043:
000044:    7742           00004                           INHINT                                         #  PREVENT INTERUPTS
000045:    7743           50001                           NDX      L
000046:    7744           70074                           MASK     FLAGWRD0
000047:    7745           50001                           NDX      L
000048:    7746           54074                           TS       FLAGWRD0
000049:    7747           00003                           RELINT                                         #  RELEASE INTERUPT INHIBIT
000050:
000051:    7750           24002                           INCR     Q                                     #  OBTAIN THE CORRECT RETURN ADDRESS
000052:    7751           00002                           TC       Q                                     #  RETURN
000053:
000054:    7752     4716               OCT7               EQUALS   SEVEN
000055: 10,3671                                           BANK     10
000056:
000057:                                                                                                  # # Page 1450
000058:                                                                                                  #      UPFLAG AND DOWNFLAG ARE ENTIRELY GENERAL FLAG SETTING AND CLEARING SUBROUTINES.   USING THEM, WHETHER OR
000059:                                                                                                  #  NOT IN INTERRUPT, ONE MAY SET OR CLEAR ANY SINGLE, NAMED BIT IN ANY ERASABLE REGISTER, SUBJECT OF COURSE TO
000060:                                                                                                  #  EBANK SETTING.   A "NAMED" BIT, AS THE WORD IS USED HERE, IS ANY BIT WITH A NAME FORMALLY ASSIGNED BY THE YUL
000061:                                                                                                  #  ASSEMBLER.
000062:
000063:                                                                                                  #      AT PRESENT THE ONLY NAMED BITS ARE THOSE IN THE FLAGWORDS.   ASSEMBLER CHANGES WILL MAKE IT POSSIBLE TO
000064:                                                                                                  #  NAME ANY BIT IN ERASABLE MEMORY.
000065:
000066:                                                                                                  #      CALLING SEQUENCES ARE AS FOLLOWS:-
000067:
000068:                                                                                                  #                      TC     UPFLAG                    TC     DOWNFLAG
000069:                                                                                                  #                      ADRES  NAME OF FLAG              ADRES  NAME OF FLAG
000070:
000071:                                                                                                  #      RETURN IS TO THE LOCATION FOLLOWING THE "ADRES" ABOUT .58 MS AFTER THE "TC".
000072:
000073:                                                                                                  #      UPON RETURN A CONTAINS THE CURRENT FLAGWRD SETTING.
000074:
000075:    5435                                           BLOCK    02
000076:    4000                                           SETLOC   FFTAG1
000077:    4000                                           BANK
000078:    5435                                           COUNT*   $$/FLAG
000079:
000080:    5435           30002        UPFLAG             CA       Q
000081:    5436           05453                           TC       DEBIT
000082:    5437           40000                           COM                                            #  +(15 - BIT)
000083:    5440           00006                           EXTEND
000084:    5441           04001                           ROR      LCHAN                                 #  SET BIT
000085:    5442           50061        COMFLAG            INDEX    ITEMP1
000086:    5443           54074                           TS       FLAGWRD0
000087:    5444           22063                           LXCH     ITEMP3
000088:    5445           00003                           RELINT
000089:    5446           00001                           TC       L
000090:
000091:
000092:    5447           30002        DOWNFLAG           CA       Q
000093:    5450           05453                           TC       DEBIT
000094:    5451           70001                           MASK     L                                     #  RESET BIT
000095:    5452           15442                           TCF      COMFLAG
000096:
000097:
000098:    5453           64712        DEBIT              AD       ONE                                   #  GET DE BITS
000099:    5454           00004                           INHINT
000100:    5455           54063                           TS       ITEMP3
000101:    5456           34721                           CA       LOW4                                  #  DEC15
000102:    5457           54061                           TS       ITEMP1
000103:    5460           50063                           INDEX    ITEMP3
000104:    5461           27777                           CA       0          -1                         #  ADRES
000105:    5462           54001                           TS       L
000106:    5463           34714                           CA       ZERO
000107:                                                                                                  # # Page 1451
000108:    5464           00006                           EXTEND
000109:    5465           10061                           DV       ITEMP1                                #  A = FLAGWRD, L = (15 - BIT)
000110:    5466           52062                           DXCH     ITEMP1
000111:    5467           50061                           INDEX    ITEMP1
000112:    5470           30074                           CA       FLAGWRD0
000113:    5471           54001                           TS       L                                     #  CURRENT STATE
000114:    5472           50062                           INDEX    ITEMP2
000115:    5473           44674                           CS       BIT15                                 #  -(15 - BIT)
000116:    5474           00002                           TC       Q
000117:
000118:                                                                                                  # # Page 1452
000119:                                                                                                  #  DELAYJOB- A GENERAL ROUTINE TO DELAY A JOB A SPECIFIC AMOUNT OF TIME BEFORE PICKING UP AGAIN.
000120:
000121:                                                                                                  #  ENTRANCE REQUIREMENTS...
000122:                                                                                                  #                                                   CAF    DT              DELAY JOB FOR DT CENTISECS
000123:                                                                                                  #                                                   TC     BANKCALL
000124:                                                                                                  #                                                   CADR   DELAYJOB
000125:
000126: 06,3651                                           BANK     06
000127: 00,2000                                           SETLOC   DLAYJOB
000128: 00,2000                                           BANK
000129:
000130:                                                                                                  #  THIS MUST REMAIN IN BANK 0 *****************************************
000131: 00,3730                                           COUNT    00/DELAY
000132:
000133: 00,3730           00004        DELAYJOB           INHINT
000134: 00,3731           54002                           TS       Q                                     #  STORE DELAY DT IN Q FOR DLY -1 IN
000135:
000136: 00,3732           36214                           CAF      DELAYNUM                              #  WAITLIST
000137: 00,3733           54070        DELLOOP            TS       RUPTREG1
000138: 00,3734           50000                           INDEX    A
000139: 00,3735           31141                           CA       DELAYLOC                              #  IS THIS DELAYLOC AVAILABLE
000140: 00,3736           00006                           EXTEND
000141: 00,3737           13744                           BZF      OK2DELAY                              #  YES
000142:
000143: 00,3740           10070                           CCS      RUPTREG1                              #  NO, TRY NEXT DELAYLOC
000144: 00,3741           13733                           TCF      DELLOOP
000145:
000146: 00,3742           05604                           TC       BAILOUT                               #  NO AVAILABLE LOCS AVAILABLE.
000147: 00,3743           01104                           OCT      1104
000148:
000149: 00,3744           33764        OK2DELAY           CA       TCSLEEP                               #  SET WAITLIST IMMEDIATE RETURN
000150: 00,3745           54061                           TS       WAITEXIT
000151:
000152: 00,3746           30004                           CA       FBANK
000153: 00,3747           60070                           AD       RUPTREG1                              #  STORE BBANK FOR TASK CALL
000154: 00,3750           54001                           TS       L
000155:
000156: 00,3751           33765                           CAF      WAKECAD                               #  STORE CADR FOR TASK CALL
000157: 00,3752           15146                           TCF      DLY2       -1                         #  DLY IS IN WAITLIST ROUTINE
000158:
000159: 00,3753           04604        TCGETCAD           TC       MAKECADR                              #  GET CALLERS FCADR
000160:
000161: 00,3754           50070                           INDEX    RUPTREG1
000162: 00,3755           55141                           TS       DELAYLOC                              #  SAVE DELAY CADRS
000163:
000164: 00,3756           05070                           TC       JOBSLEEP
000165:
000166: 00,3757           34714        WAKER              CAF      ZERO
000167: 00,3760           50006                           INDEX    BBANK
000168: 00,3761           57141                           XCH      DELAYLOC                              #  MAKE DELAYLOC AVAILABLE
000169:                                                                                                  # # Page 1453
000170: 00,3762           05074                           TC       JOBWAKE
000171:
000172: 00,3763           05213                           TC       TASKOVER
000173:
000174: 00,3764           03751        TCSLEEP            GENADR   TCGETCAD   -2
000175: 00,3765           03757        WAKECAD            GENADR   WAKER
000176:
000177:                                                                                                  # # Page 1454
000178:                                                                                                  #  GENTRAN, A BLOCK TRANSFER ROUTINE.
000179:
000180:                                                                                                  #  WRITTEN BY D. EYLES
000181:                                                                                                  #  MOD 1 BY KERNAN                                                         UTILITYM REV 17 11/18/67
000182:
000183:                                                                                                  #  MOD 2 BY SCHULENBERG  (REMOVE RELINT)   SKIPPER REV 4 2/28/68
000184:
000185:                                                                                                  #           THIS ROUTINE IS USEFUL FOR TRANSFERRING N CONSECUTIVE ERASABLE OR FIXED QUANTITIES TO SOME OTHER N
000186:                                                                                                  #  CONSECUTIVE ERASABLE LOCATIONS.  IF BOTH BLOCKS OF DATA ARE IN SWITCHABLE EBANKS, THEY MUST BE IN THE SAME ONE.
000187:
000188:                                                                                                  #           GENTRAN IS CALLABLE IN A JOB AS WELL AS A RUPT.  THE CALLING SEQUENCE IS:
000189:
000190:                                                                                                  #                                          I        CA     N-1             # OF QUANTITIES MINUS ONE.
000191:                                                                                                  #                                          I +1     TC     GENTRAN         IN FIXED-FIXED.
000192:                                                                                                  #                                          I +2     ADRES  L               STARTING ADRES OF DATA TO BE MOVED.
000193:                                                                                                  #                                          I +3     ADRES  M               STARTING ADRES OF DUPLICATION BLOCK.
000194:                                                                                                  #                                          I +4                            RETURNS HERE.
000195:
000196:                                                                                                  #           GENTRAN TAKES 25 MCT'S (300 MICROSECONDS) PER ITEM + 5 MCT'S (60 MICS) FOR ENTERING AND EXITING.
000197:
000198:                                                                                                  #           A, L AND ITEMP1 ARE NOT PRESERVED.
000199:
000200:    5475                                           BLOCK    02
000201:    4000                                           SETLOC   FFTAG4
000202:    4000                                           BANK
000203:
000204:    5475     0061                                  EBANK=   ITEMP1
000205:
000206:    5475                                           COUNT*   $$/TRAN
000207:
000208:    5475           00004        GENTRAN            INHINT
000209:    5476           54061                           TS       ITEMP1                                #  SAVE N-1.
000210:    5477           50002                           INDEX    Q                                     #  C(Q) = ADRES L.
000211:    5500           60000                           AD       0                                     #  ADRES (L + N - 1).
000212:    5501           50000                           INDEX    A
000213:    5502           30000                           CA       0                                     #  C(ABOVE).
000214:    5503           54001                           TS       L                                     #  SAVE DATA.
000215:    5504           30061                           CA       ITEMP1
000216:    5505           50002                           INDEX    Q
000217:    5506           60001                           AD       1                                     #  ADRES (M + N - 1).
000218:    5507           50000                           INDEX    A
000219:    5510           22000                           LXCH     0                                     #  STUFF IT.
000220:    5511           10061                           CCS      ITEMP1                                #  LOOP UNTIL N-1 = 0.
000221:    5512           15476                           TCF      GENTRAN    +1
000222:    5513           16710                           TCF      Q+2                                   #  RETURN TO CALLER.
000223:
000224:                                                                                                  # # Page 1455
000225:                                                                                                  #  B5OFF   ZERO BIT 5 OF EXTVBACT, WHICH IS SET BY TESTXACT.
000226:
000227:                                                                                                  #           MAY BE USED AS NEEDED BY ANY EXTENDED VERB WHICH HAS DONE TESTXACT
000228:
000229:    5514                                           COUNT*   $$/EXTVB
000230:
000231:    5514           44706        B5OFF              CS       BIT5
000232:    5515           71044                           MASK     EXTVBACT
000233:    5516           55044                           TS       EXTVBACT
000234:    5517           05112                           TC       ENDOFJOB
000235:
000236:                                                                                                  # # Page 1456
000237:                                                                                                  #  SUBROUTINES TO TURNOFF AND TURN ON TRACKER FAIL LIGHT.
000238:
000239:    5520           00004        TRFAILOF           INHINT
000240:    5521           47704                           CS       OCT40200                              #  TURN OFF TRACKER LIGHT
000241:    5522           71036                           MASK     DSPTAB     +11D
000242:    5523           64674                           AD       BIT15
000243:    5524           55036                           TS       DSPTAB     +11D
000244:    5525           41331                           CS       OPTMODES                              #  TO INSURE THAT OCDU FAIL WILL GO ON
000245:    5526           74704                           MASK     BIT7                                  #  AGAIN IF IT WAS ON IN ADDITION TO
000246:    5527           27331                           ADS      OPTMODES                              #  TRACKER FAIL.
000247:
000248:    5530           00003        REQ                RELINT
000249:    5531           00002                           TC       Q
000250:
000251:    5532           00004        TRFAILON           INHINT
000252:    5533           41036                           CS       DSPTAB     +11D                       #  TURN ON
000253:    5534           77704                           MASK     OCT40200
000254:    5535           27036                           ADS      DSPTAB     +11D
000255:    5536           15530                           TCF      REQ

End of include-file SERVICE_ROUTINES.agc.  Parent file is MAIN.agc


