
Source Code


000002:                                                                                                  ## Copyright:   Public domain.
000003:                                                                                                  ## Filename:    SERVICE_ROUTINES.agc
000004:                                                                                                  ## Purpose:     Part of the source code for Colossus build 237.
000005:                                                                                                  ##              This is for the Command Module's (CM) Apollo Guidance
000006:                                                                                                  ##              Computer (AGC), for Apollo 8.
000007:                                                                                                  ## Assembler:   yaYUL
000008:                                                                                                  ## Contact:     Jim Lawton <jim DOT lawton AT gmail DOT com>
000009:                                                                                                  ## Website:     www.ibiblio.org/apollo/index.html
000010:                                                                                                  ## Page Scans:  www.ibiblio.org/apollo/ScansForConversion/Colossus237/
000011:                                                                                                  ## Mod history: 2011-04-17 JL   Adapted from corresponding Colossus 249 file.
000012:                                                                                                  ##              2017-01-01 RSB  Proofed comment text using octopus/ProoferComments,
000013:                                                                                                  ##                              and fixed errors found.
000014:


000016:    7717                                           BLOCK    3
000017:    6000                                           SETLOC   FFTAG6
000018:    6000                                           BANK
000019:    7717                                           COUNT    03/FLAG
000020:
000021:    7717           54001        UPENT2             TS       L                                     #  WHICH FLAGWORD IS IT
000022:    7720           74716                           MASK     OCT7
000023:    7721           56001                           XCH      L                                     #  SAVE IN L FOR INDEXING
000024:
000025:    7722           75630                           MASK     OCT77770                              #  OBTAIN THE BIT INFORMATION
000026:    7723           00004                           INHINT                                         #  PREVENT INTERUPTS
000027:    7724           54061                           TS       ITEMP1                                #  STORE THE BIT INFORMATION TEMPORARIALY
000028:
000029:    7725           50001                           NDX      L
000030:    7726           40074                           CS       FLAGWRD0
000031:    7727           70061                           MASK     ITEMP1
000032:    7730           50001                           NDX      L
000033:    7731           26074                           ADS      FLAGWRD0
000034:    7732           00003                           RELINT                                         #  RELEASE INTERUPT INHIBIT
000035:
000036:    7733           24002                           INCR     Q                                     #  OBTAIN THE CORRECT RETURN ADDRESS
000037:    7734           00002                           TC       Q                                     #  RETURN
000038:
000039:    7735           54001        DOWNENT2           TS       L                                     #  WHICH FLAGWORD IS IT
000040:    7736           74716                           MASK     OCT7
000041:    7737           56001                           XCH      L                                     #  SAVE IN L FOR INDEXING
000042:
000043:    7740           75630                           MASK     OCT77770                              #  OBTAIN THE BIT INFORMATION
000044:    7741           40000                           COM                                            #  START TO PROCESS THE INFORMATION
000045:
000046:    7742           00004                           INHINT                                         #  PREVENT INTERUPTS
000047:    7743           50001                           NDX      L
000048:    7744           70074                           MASK     FLAGWRD0
000049:    7745           50001                           NDX      L
000050:    7746           54074                           TS       FLAGWRD0
000051:    7747           00003                           RELINT                                         #  RELEASE INTERUPT INHIBIT
000052:
000053:    7750           24002                           INCR     Q                                     #  OBTAIN THE CORRECT RETURN ADDRESS
000054:    7751           00002                           TC       Q                                     #  RETURN
000055:
000056:    7752     4716               OCT7               EQUALS   SEVEN
000057: 10,3671                                           BANK     10
000058:


000060:                                                                                                  #      UPFLAG AND DOWNFLAG ARE ENTIRELY GENERAL FLAG SETTING AND CLEARING SUBROUTINES.   USING THEM, WHETHER OR
000061:                                                                                                  #  NOT IN INTERRUPT, ONE MAY SET OR CLEAR ANY SINGLE, NAMED BIT IN ANY ERASABLE REGISTER, SUBJECT OF COURSE TO
000062:                                                                                                  #  EBANK SETTING.   A "NAMED" BIT, AS THE WORD IS USED HERE, IS ANY BIT WITH A NAME FORMALLY ASSIGNED BY THE YUL
000063:                                                                                                  #  ASSEMBLER.
000064:
000065:                                                                                                  #      AT PRESENT THE ONLY NAMED BITS ARE THOSE IN THE FLAGWORDS.   ASSEMBLER CHANGES WILL MAKE IT POSSIBLE TO
000066:                                                                                                  #  NAME ANY BIT IN ERASABLE MEMORY.
000067:
000068:                                                                                                  #      CALLING SEQUENCES ARE AS FOLLOWS:-
000069:
000070:                                                                                                  #                      TC     UPFLAG                    TC     DOWNFLAG
000071:                                                                                                  #                      ADRES  NAME OF FLAG              ADRES  NAME OF FLAG
000072:
000073:                                                                                                  #      RETURN IS TO THE LOCATION FOLLOWING THE "ADRES" ABOUT .58 MS AFTER THE "TC".
000074:
000075:                                                                                                  #      UPON RETURN A CONTAINS THE CURRENT FLAGWRD SETTING.
000076:
000077:    5435                                           BLOCK    02
000078:    4000                                           SETLOC   FFTAG1
000079:    4000                                           BANK
000080:    5435                                           COUNT*   $$/FLAG
000081:
000082:    5435           30002        UPFLAG             CA       Q
000083:    5436           05453                           TC       DEBIT
000084:    5437           40000                           COM                                            #  +(15 - BIT)
000085:    5440           00006                           EXTEND
000086:    5441           04001                           ROR      LCHAN                                 #  SET BIT
000087:    5442           50061        COMFLAG            INDEX    ITEMP1
000088:    5443           54074                           TS       FLAGWRD0
000089:    5444           22063                           LXCH     ITEMP3
000090:    5445           00003                           RELINT
000091:    5446           00001                           TC       L
000092:
000093:
000094:    5447           30002        DOWNFLAG           CA       Q
000095:    5450           05453                           TC       DEBIT
000096:    5451           70001                           MASK     L                                     #  RESET BIT
000097:    5452           15442                           TCF      COMFLAG
000098:
000099:
000100:    5453           64712        DEBIT              AD       ONE                                   #  GET DE BITS
000101:    5454           00004                           INHINT
000102:    5455           54063                           TS       ITEMP3
000103:    5456           34721                           CA       LOW4                                  #  DEC15
000104:    5457           54061                           TS       ITEMP1
000105:    5460           50063                           INDEX    ITEMP3
000106:    5461           27777                           CA       0          -1                         #  ADRES
000107:    5462           54001                           TS       L
000108:    5463           34714                           CA       ZERO


000110:    5464           00006                           EXTEND
000111:    5465           10061                           DV       ITEMP1                                #  A = FLAGWRD, L = (15 - BIT)
000112:    5466           52062                           DXCH     ITEMP1
000113:    5467           50061                           INDEX    ITEMP1
000114:    5470           30074                           CA       FLAGWRD0
000115:    5471           54001                           TS       L                                     #  CURRENT STATE
000116:    5472           50062                           INDEX    ITEMP2
000117:    5473           44674                           CS       BIT15                                 #  -(15 - BIT)
000118:    5474           00002                           TC       Q
000119:


000121:                                                                                                  #  DELAYJOB- A GENERAL ROUTINE TO DELAY A JOB A SPECIFIC AMOUNT OF TIME BEFORE PICKING UP AGAIN.
000122:
000123:                                                                                                  #  ENTRANCE REQUIREMENTS...
000124:                                                                                                  #                                                   CAF    DT              DELAY JOB FOR DT CENTISECS
000125:                                                                                                  #                                                   TC     BANKCALL
000126:                                                                                                  #                                                   CADR   DELAYJOB
000127:
000128: 06,3651                                           BANK     06
000129: 00,2000                                           SETLOC   DLAYJOB
000130: 00,2000                                           BANK
000131:
000132:                                                                                                  #  THIS MUST REMAIN IN BANK 0 *****************************************
000133: 00,3730                                           COUNT    00/DELAY
000134:
000135: 00,3730           00004        DELAYJOB           INHINT
000136: 00,3731           54002                           TS       Q                                     #  STORE DELAY DT IN Q FOR DLY -1 IN
000137:
000138: 00,3732           36214                           CAF      DELAYNUM                              #  WAITLIST
000139: 00,3733           54070        DELLOOP            TS       RUPTREG1
000140: 00,3734           50000                           INDEX    A
000141: 00,3735           31141                           CA       DELAYLOC                              #  IS THIS DELAYLOC AVAILABLE
000142: 00,3736           00006                           EXTEND
000143: 00,3737           13744                           BZF      OK2DELAY                              #  YES
000144:
000145: 00,3740           10070                           CCS      RUPTREG1                              #  NO, TRY NEXT DELAYLOC
000146: 00,3741           13733                           TCF      DELLOOP
000147:
000148: 00,3742           05604                           TC       BAILOUT                               #  NO AVAILABLE LOCS AVAILABLE.
000149: 00,3743           01104                           OCT      1104
000150:
000151: 00,3744           33764        OK2DELAY           CA       TCSLEEP                               #  SET WAITLIST IMMEDIATE RETURN
000152: 00,3745           54061                           TS       WAITEXIT
000153:
000154: 00,3746           30004                           CA       FBANK
000155: 00,3747           60070                           AD       RUPTREG1                              #  STORE BBANK FOR TASK CALL
000156: 00,3750           54001                           TS       L
000157:
000158: 00,3751           33765                           CAF      WAKECAD                               #  STORE CADR FOR TASK CALL
000159: 00,3752           15146                           TCF      DLY2       -1                         #  DLY IS IN WAITLIST ROUTINE
000160:
000161: 00,3753           04604        TCGETCAD           TC       MAKECADR                              #  GET CALLERS FCADR
000162:
000163: 00,3754           50070                           INDEX    RUPTREG1
000164: 00,3755           55141                           TS       DELAYLOC                              #  SAVE DELAY CADRS
000165:
000166: 00,3756           05070                           TC       JOBSLEEP
000167:
000168: 00,3757           34714        WAKER              CAF      ZERO
000169: 00,3760           50006                           INDEX    BBANK
000170: 00,3761           57141                           XCH      DELAYLOC                              #  MAKE DELAYLOC AVAILABLE


000172: 00,3762           05074                           TC       JOBWAKE
000173:
000174: 00,3763           05213                           TC       TASKOVER
000175:
000176: 00,3764           03751        TCSLEEP            GENADR   TCGETCAD   -2
000177: 00,3765           03757        WAKECAD            GENADR   WAKER
000178:


000180:                                                                                                  #  GENTRAN, A BLOCK TRANSFER ROUTINE.
000181:
000182:                                                                                                  #  WRITTEN BY D. EYLES
000183:                                                                                                  #  MOD 1 BY KERNAN                                                         UTILITYM REV 17 11/18/67
000184:
000185:                                                                                                  #  MOD 2 BY SCHULENBERG  (REMOVE RELINT)   SKIPPER REV 4 2/28/68
000186:
000187:                                                                                                  #           THIS ROUTINE IS USEFULL FOR TRANSFERING N CONSECUTIVE ERASABLE OR FIXED QUANTITIES TO SOME OTHER N
000188:                                                                                                  #  CONSECUTIVE ERASABLE LOCATIONS.  IF BOTH BLOCKS OF DATA ARE IN SWITCHABLE EBANKS, THEY MUST BE IN THE SAME ONE.
000189:
000190:                                                                                                  #           GENTRAN IS CALLABLE IN A JOB AS WELL AS A RUPT.  THE CALLING SEQUENCE IS:
000191:
000192:                                                                                                  #                                          I        CA     N-1             # OF QUANTITIES MINUS ONE.
000193:                                                                                                  #                                          I +1     TC     GENTRAN         IN FIXED-FIXED.
000194:                                                                                                  #                                          I +2     ADRES  L               STARTING ADRES OF DATA TO BE MOVED.
000195:                                                                                                  #                                          I +3     ADRES  M               STARTING ADRES OF DUPLICATION BLOCK.
000196:                                                                                                  #                                          I +4                            RETURNS HERE.
000197:
000198:                                                                                                  #           GENTRAN TAKES 25 MCT'S (300 MICROSECONDS) PER ITEM + 5 MCT'S (60 MICS) FOR ENTERING AND EXITING.
000199:
000200:                                                                                                  #           A, L AND ITEMP1 ARE NOT PRESERVED.
000201:
000202:    5475                                           BLOCK    02
000203:    4000                                           SETLOC   FFTAG4
000204:    4000                                           BANK
000205:
000206:    5475     0061                                  EBANK=   ITEMP1
000207:
000208:    5475                                           COUNT*   $$/TRAN
000209:
000210:    5475           00004        GENTRAN            INHINT
000211:    5476           54061                           TS       ITEMP1                                #  SAVE N-1.
000212:    5477           50002                           INDEX    Q                                     #  C(Q) = ADRES L.
000213:    5500           60000                           AD       0                                     #  ADRES (L + N - 1).
000214:    5501           50000                           INDEX    A
000215:    5502           30000                           CA       0                                     #  C(ABOVE).
000216:    5503           54001                           TS       L                                     #  SAVE DATA.
000217:    5504           30061                           CA       ITEMP1
000218:    5505           50002                           INDEX    Q
000219:    5506           60001                           AD       1                                     #  ADRES (M + N - 1).
000220:    5507           50000                           INDEX    A
000221:    5510           22000                           LXCH     0                                     #  STUFF IT.
000222:    5511           10061                           CCS      ITEMP1                                #  LOOP UNTIL N-1 = 0.
000223:    5512           15476                           TCF      GENTRAN    +1
000224:    5513           16710                           TCF      Q+2                                   #  RETURN TO CALLER.
000225:


000227:                                                                                                  #  B5OFF   ZERO BIT 5 OF EXTVBACT, WHICH IS SET BY TESTXACT.
000228:
000229:                                                                                                  #           MAY BE USED AS NEEDED BY ANY EXTENDED VERB WHICH HAS DONE TESTXACT
000230:
000231:    5514                                           COUNT*   $$/EXTVB
000232:
000233:    5514           44706        B5OFF              CS       BIT5
000234:    5515           71044                           MASK     EXTVBACT
000235:    5516           55044                           TS       EXTVBACT
000236:    5517           05112                           TC       ENDOFJOB
000237:


000239:                                                                                                  #  SUBROUTINES TO TURNOFF AND TURN ON TRACKER FAIL LIGHT.
000240:
000241:    5520           00004        TRFAILOF           INHINT
000242:    5521           47704                           CS       OCT40200                              #  TURN OFF TRACKER LIGHT
000243:    5522           71036                           MASK     DSPTAB     +11D
000244:    5523           64674                           AD       BIT15
000245:    5524           55036                           TS       DSPTAB     +11D
000246:    5525           41331                           CS       OPTMODES                              #  TO INSURE THAT OCDU FAIL WILL GO ON
000247:    5526           74704                           MASK     BIT7                                  #  AGAIN IF IT WAS ON IN ADDITION TO
000248:    5527           27331                           ADS      OPTMODES                              #  TRACKER FAIL.
000249:
000250:    5530           00003        REQ                RELINT
000251:    5531           00002                           TC       Q
000252:
000253:    5532           00004        TRFAILON           INHINT
000254:    5533           41036                           CS       DSPTAB     +11D                       #  TURN ON
000255:    5534           77704                           MASK     OCT40200
000256:    5535           27036                           ADS      DSPTAB     +11D
000257:    5536           15530                           TCF      REQ

End of include-file SERVICE_ROUTINES.agc.  Parent file is MAIN.agc


