
Source Code


000002:                                                                                                  ## Copyright:    Public domain.
000003:                                                                                                  ## Filename:     SERVICER207.agc
000004:                                                                                                  ## Purpose:      Part of the source code for Colossus build 237.
000005:                                                                                                  ##               This is for the Command Module's (CM) Apollo Guidance
000006:                                                                                                  ##               Computer (AGC), we believe for Apollo 8.
000007:                                                                                                  ## Assembler:    yaYUL
000008:                                                                                                  ## Contact:      Jim Lawton <jim DOT lawton AT gmail DOT com>
000009:                                                                                                  ## Website:      www.ibiblio.org/apollo/index.html
000010:                                                                                                  ## Page Scans:   www.ibiblio.org/apollo/ScansForConversion/Colossus237/
000011:                                                                                                  ## Mod history:  2011-02-28 JL  Adapted from corresponding Colossus 249 file.
000012:


000014:                                                                                                  #  PROGRAM NAME - PREREAD, READACCS, SERVICER, AVERAGE G.
000015:
000016:
000017:                                                                                                  #  MOD NO.  00   BY M.HAMILTON   DEC.12, 1966
000018:
000019:
000020:                                                                                                  #  FUNCTIONAL DESCRIPTION
000021:
000022:                                                                                                  #  THE ROUTINES DESCRIBED BELOW ARE USED TO CALCULATE VALUES OF RN, VN, AND GDT/2 DURING ACCELERATED FLIGHT.
000023:                                                                                                  #  THE SEVERAL ROUTINES COMPRISE A PACKAGE AND ARE NOT MEANT TO BE USED AS SEPARATE SUBROUTINES.
000024:
000025:                                                                                                  #  GENERAL REFERENCES TO  SERVICER  OR  AVERAGE G  ARE UNDERSTOOD TO REFER TO THE ENTIRE SET OF ROUTINES INCLUDING
000026:                                                                                                  #  READACCS, SERVICER, AVERAGE G, INTEREAD, SMOOTHER, AND ANY ADDITIONAL ROUTINES ATTACHED AT AVGEXIT (SEE BELOW).
000027:
000028:                                                                                                  #  PROGRAMS INITIATING SERVICER ARE REQUIRED TO MAKE A WAITLIST CALL FOR PREREAD (OR, IF LIFTOFF, FOR BIBIBIAS)
000029:                                                                                                  #  AT 2 SECONDS BEFORE THE FIRST AVERAGE G UPDATE IN ORDER TO INITIALIZE THE SEQUENCE, WHICH WILL RECUR EVERY
000030:                                                                                                  #  2 SECONDS FROM THAT TIME ON AS LONG AS AVEGFLAG REMAINS SET.
000031:
000032:                                                                                                  #  THE USE OF ERASABLE AVGEXIT ALLOWS VARIOUS ROUTINES TO BE PERFORMED AS PART OF THE NORMAL CYCLE (SEE
000033:                                                                                                  #  EXPLANATION OF AVGEXIT BELOW).
000034:
000035:                                                                                                  #  DESCRIPTIONS OF INDIVIDUAL ROUTINES FOLLOW.
000036:
000037:
000038:                                                                                                  #     PREREAD
000039:
000040:                                                                                                  #           PREVIOUSLY EXTRAPOLATED VALUES COPIED FROM RN1, VN1, AND PIPTIME1 INTO RN, VN, AND PIPTIME.
000041:                                                                                                  #           LASTBIAS JOB SCHEDULED.
000042:                                                                                                  #           PIPS READ AND CLEARED VIA PIPASR SUBROUTINE.
000043:                                                                                                  #           AVERAGE G FLAG SET ON.
000044:                                                                                                  #           DRIFT FLAG SET OFF.
000045:                                                                                                  #           V37 FLAG SET ON.
000046:                                                                                                  #           INITIALIZATION OF   1) THRUST MONITOR (DVMON) - DVCNTR SET TO ONE.
000047:                                                                                                  #                               2) TOTAL ACCUMULATED DELV VALUE (DVTOTAL) - SET TO ZERO.
000048:                                                                                                  #                               3) AXIS VECTOR (AXIS) - SET TO (.5,0,0).
000049:                                                                                                  #           NORMLIZE JOB SCHEDULED.
000050:                                                                                                  #           READACCS TASH CALLED IN 2 SECONDS.
000051:
000052:
000053:                                                                                                  #     NORMLIZE
000054:
000055:                                                                                                  #           GDT/2 INITIALIZED VIA CALCGRAV SUBROUTINE.
000056:
000057:
000058:                                                                                                  #     READACCS
000059:
000060:                                                                                                  #           IF ONMON FLAG SET QUIKREAD ROUTINE IS PERFORMED BEFORE PIPASR ZEROS THE PIPA REGISTERS, AND THE 1/2 SEC
000061:                                                                                                  #           ONMONITOR LOOP IS INITIATED TO PROVIDE DOWNLINK INFORMATION DURING ENTRY.
000062:                                                                                                  #           PIPS READ AND CLEARED BY PIPASR SUBROUTINE.
000063:                                                                                                  #           IF CM/DSTBY IS ON, ENTRY VARIABLES INITIALIZED AND SETJTAG TASK CALLED.


000065:                                                                                                  #           IF AVERAGEG FLAG ON    READACCS CALLED TO RECYCLE IN 2 SECONDS.
000066:                                                                                                  #           IF AVERAGEG FLAG OFF   AVERAGE G EXIT (AVGEXIT) SET TO 2CADR AVGEND FOR FINAL PASS.
000067:                                                                                                  #           SERVICER JOB SCHEDULED.
000068:
000069:
000070:                                                                                                  #           TEST CONNECTOR OUTBIT TURNED ON.
000071:
000072:
000073:                                                                                                  #  ONMNITOR
000074:
000075:                                                                                                  #           A SEQUENCE OF THREE PASSES THROUGH QUICKREAD FOLLOWING A CALL TO READACCS WITH ONMONFLG SET AT 1/2
000076:                                                                                                  #           SEC INTERVALS. INTERVALS ARE COUNTED OUT BY PIPCTR, INITIALIZED AT 3 BY READACCS
000077:
000078:                                                                                                  #     QUIKREAD
000079:
000080:                                                                                                  #         READS CURRENT PIPS INTO X,Y,ZPIPBUF. READS OLD X,Y,ZPIPBUF INTO X,Y,ZOLDBUF. VALUES ARE SENT TO
000081:                                                                                                  #           DOWNLIST DURING ENTRY.
000082:                                                                                                  #     SERVICER
000083:                                                                                                  #           DELV VALUES CHECKED TO DETECT RUNAWAY PIP -
000084:                                                                                                  #                  IF BAD PIP   1) ALARM SENT.
000085:                                                                                                  #                               2) COMPENSATION, DVTOTAL ACCUMULATION, AND DVMON BYPASSED.  CONTROL
000086:                                                                                                  #                                  TRANSFERRED TO AVERAGE G.
000087:                                                                                                  #           PIPS COMPENSATED VIA 1/PIPA SUBROUTINE.
000088:                                                                                                  #           DVTOTAL INCREMENTED BY ABSOLUTE VALUE OF DELV.
000089:                                                                                                  #           THRUST MONITOR (DVMON) PERFORMED UNLESS IDLE FLAG IS ON.
000090:                                                                                                  #           CONTROL TRANSFERRED TO AVERAGE Q.
000091:
000092:
000093:                                                                                                  #           DVMON
000094:
000095:                                                                                                  #              THRESHOLD VALUE (PLACED IN DVTHRUSH BY USER) CHECKED AGAINST ABSOLUTE VALUE OF DELV TO CHECK
000096:                                                                                                  #              THRUST LEVEL.
000097:                                                                                                  #                  IF THRUST    1) ULLAGE OFF ROUTINE PERFORMED.
000098:                                                                                                  #                               2) STEERING FLAG TURNED ON AT FIRST DETECTION OF THRUST.
000099:                                                                                                  #                               3) CONTROL TRANSFERRED TO AVERAGE G.
000100:                                                                                                  #                  IF NO THRUST 1) ON FIRST PASS THROUGH MONITOR, CONTROL TRANSFERRED TO AVERAGE G.
000101:                                                                                                  #                               2) ON SUBSEQUENT PASSES, CONTROL TRANSFERRED TO ENGINE FAIL ROUTINE IF THRUST
000102:                                                                                                  #                                  HAS FAILED FOR 3 CONSECUTIVE PASSES.
000103:
000104:
000105:                                                                                                  #                ENGINE FAIL
000106:
000107:                                                                                                  #                   ENGFAIL1 TASK CALLED IN 2.5 SECONDS.  THIS WILL RETURN CONTROL TO TIG-5 SO THAT THE IGNITION
000108:                                                                                                  #                       SEQUENCE MAY BE REPEATED.
000109:                                                                                                  #                   ENGINOF3 PERFORMED.
000110:                                                                                                  #                   DAP SET UP FOR RCS.
000111:
000112:
000113:                                                                                                  #     AVERAGE G
000114:


000116:                                                                                                  #           RN1, VN1, GDT1/2 CALCULATED VIA CALCRVG ROUTINE BY UPDATING RN, VN WITH DELV AND AN AVERAGED VALUE
000117:                                                                                                  #           OF GDT/2
000118:                                                                                                  #           RN1, VN1, GDT1/2, PIPTIME1 COPIED INTO RN, VN, GDT/2, PIPTIME FOR RESTART PROTECTION.
000119:                                                                                                  #           CONTROL TRANSFERRED TO ADDRESS SPECIFIED BY USER (OR BY READACCS FOR LAST PASS) IN AVEGEXIT.
000120:                                                                                                  #           LAST PASS (AVGEND)  1) FREE FALL GYRO COMPENSATION SET UP.
000121:                                                                                                  #                               2) DRIFT FLAG TURNED ON.
000122:                                                                                                  #                               3) STATE VECTOR TRANSFERRED VIA AVETOMID ROUTINE.
000123:                                                                                                  #                               4) ONMONITOR FLAG RESET.
000124:                                                                                                  #                               5) V37 FLAG RESET.
000125:                                                                                                  #                               6) TEST CONNECTOR OUTBIT RESET.
000126:                                                                                                  #                               7) CONTROL TRANSFERRED TO CANV37 TO CONTINUE MM CHANGE ROUTINE (R00).
000127:
000128:
000129:                                                                                                  #  CALLING SEQUENCE
000130:
000131:                                                                                                  #           PREREAD ENTERED DIRECTLY FROM TIG-30 VIA POSTJUMP.
000132:                                                                                                  #           READACCS CALLED AS WAITLIST TASK.
000133:
000134:
000135:                                                                                                  #  SUBROUTINES CALLED
000136:
000137:                                                                                                  #           UTILITY ROUTINES - PHASCHNG FLAGUP FLAGDOWN NOVAC FINDVAC WAITLIST ALARM NEWPHASE 2PHSCHNG
000138:
000139:                                                                                                  #           OTHER - PIPASR  1/PIPA  CALCGRAV  CALCRVG  AVETOMID
000140:
000141:
000142:                                                                                                  #  NORMAL EXIT MODES
000143:
000144:                                                                                                  #           ENDOFJOB  TASKOVER  CANV37
000145:
000146:                                                                                                  #           AVGEXIT - THIS IS A DOUBLE PRECISION ERASABLE LOCATION BY WHICH CONTROL IS TRANSFERRED AT THE END
000147:                                                                                                  #                     OF EACH CYCLE OF AVERAGE G.
000148:                                                                                                  #                     THE 2CADR OF A ROUTINE TO BE PERFORMED AT THAT TIME (E.G., STEERING EQUATIONS TO BE REPORTED
000149:                                                                                                  #                     AT 2 SECOND INTERVALS) MAY BE SET BY THE USER INTO AVGEXIT.
000150:                                                                                                  #                     ALL SUCH ROUTINES SHOULD RETURN TO SERVEXIT, WHICH IS THE NORMAL EXIT FROM AVERAGE G.
000151:
000152:                                                                                                  #           SERVEXIT - DOES A PHASE CHANGE FOR RESTART PROTECTION AND GOES TO ENDOFJOB.
000153:                                                                                                  #                     THE 2CADR OF SERVEXIT IS SET INTO AVGEXIT BY THE USER IF NO OTHER ROUTINE (SEE ABOVE).
000154:
000155:                                                                                                  #           AVGEND - LAST PASS OF AVERAGE G EXITS HERE, BYPASSING SPECIAL ROUTINE (SEE ABOVE UNDER READACCS).
000156:                                                                                                  #                     FINAL EXIT IS TO CANV37.                             F AVERAGE G).
000157:
000158:
000159:                                                                                                  #  OUTPUT
000160:
000161:                                                                                                  #     DVTOTAL(2)  PIPTIME(2)  XPIPBUF(2)  YPIPBUF(2)  ZPIPBUF(2)
000162:                                                                                                  #     RN(6)        REFERENCE COORD.   SCALED AT 2(+29)M/CS
000163:                                                                                                  #     VN(6)        REFERENCE COORD.   SCALED AT 2(+7)M/CS
000164:                                                                                                  #     GDT/2(6)     REFERENCE COORD.   SCALED AT 2(+7)M/CS
000165:                                                                                                  #     DELV(6)      STABLE MEMB. COORD.SCALED AT 2(+14)*5.85*10(-4)M/CS (KPIP1 USED TO GET DV/2 AT 2(+7))


000167:                                                                                                  #     DELVREF(6)   REFERENCE COORD.   SCALED AT 2(+7)M/CS
000168:
000169:                                                                                                  #  INITIALIZATION
000170:
000171:                                                                                                  #           ONMONITOR FLAG SET BY ENTRY TO SHOW PIPBUF VALUES REQUIRED.
000172:                                                                                                  #           IDLE FLAG ON IF DVMON TO BE BYPASSED.
000173:                                                                                                  #           DVTHRUSH SET TO APPROPRIATE VALUE FOR DVMON.
000174:                                                                                                  #           AVGEXIT SET TO 2CADR OF ROUTINE, IF ANY, TO BE PERFORMED AFTER EACH CYCLE OF AVERAGE G.  IF NO ROUTINE
000175:                                                                                                  #                  TO BE DONE, AVGEXIT SET TO SERVEXIT.
000176:                                                                                                  #           VALUES NEEDED
000177:                                                                                                  #                  REFSMMAT
000178:                                                                                                  #                  UNITW - FULL UNIT VECTOR, IN REFERENCE COORD., OF EARTH S ROTATIONAL VECTOR
000179:                                                                                                  #                  RN1, VN1, PIPTIME1 - IN REFERENCE COORD., CONSISTENT WITH TIME OF EXECUTION OF PREREAD
000180:
000181:
000182:                                                                                                  #  DEBRIS
000183:
000184:                                                                                                  #     CENTRALS     A, L, Q
000185:                                                                                                  #     OTHER        INTERNAL - DVCNTR(1)  PIPAGE(1)  PIPCTR(1)  AVGEXIT(2)
000186:                                                                                                  #                  EXTERNAL - ITEMP1(1)  ITEMP2(1)  RUPTREG1(1)  TEMX(1)  TEMY(1)  TEMZ(1)
000187:                                                                                                  #                  USEFUL DEBRIS
000188:                                                                                                  #                     RN1(6)  VN1(6)  GDT1/2  PIPTIME1(2)
000189:                                                                                                  #                         THESE LOCATIONS USED AS BUFFER STORAGE FOR NEWLY CALCULATED VALUES OF RN, VN, GDT/2,
000190:                                                                                                  #                         AND PIPTIME DURING PERFORMANCE OF SERVICER ROUTINES.
000191:                                                                                                  #                     UNITR - HALF UNIT VECTOR OF RN, REFERENCE COORD.
000192:                                                                                                  #                     RMAG SCALED AT 2(+58) IN 36D.
000193:                                                                                                  #                     RMAGSQ SCALED AT 2(+58) IN 34D.
000194:                                                                                                  #                     (RE/RMAG)SQ IN 32D.
000195:
000196:
000197: 27,2633                                           BANK     27
000198: 37,2000                                           SETLOC   SERVICES
000199: 37,2000                                           BANK
000200:
000201: 37,2604  E7,1431                                  EBANK=   DVCNTR
000202:                                                                                                  #  *************************************   PREREAD   **************************************************************
000203:
000204:
000205: 37,2604                                           COUNT    37/SERV
000206:
000207: 37,2604           34113        PREREAD            CA       OCT31                                 #  5.31 PROTECTS REDO5.31 AS IMMEDIATE TASK
000208: 37,2605           54001                           TS       L
000209: 37,2606           40000                           COM
000210: 37,2607           52763                           DXCH     -PHASE5
000211:
000212: 37,2610           34766                           CAF      PRIO21
000213: 37,2611           05027                           TC       NOVAC
000214: 37,2612  E3,1460                                  EBANK=   NBDX
000215: 37,2612           03636 14063                     2CADR    LASTBIAS                              #  DO LAST GYRO COMPENSATION IN FREE FALL


000217: 37,2614           02631        REDO5.31           TC       PREREAD1
000218:
000219: 37,2615           37667                           CAF      PRIO32
000220: 37,2616           05042                           TC       FINDVAC                               #  SET UP NORMLIZE JOB REQUIRED PRIOR TO
000221: 37,2617  E7,1431                                  EBANK=   DVCNTR                                #  FIRST AVERAGE G PASS
000222: 37,2617           03145 76067                     2CADR    NORMLIZE
000223: 37,2621           34735                           CAF      2SECS
000224: 37,2622           05140                           TC       WAITLIST
000225: 37,2623  E6,1661                                  EBANK=   AOG
000226: 37,2623           02653 76066                     2CADR    READACCS
000227: 37,2625           44711                           CS       TWO
000228: 37,2626           04114                           TC       NEWPHASE
000229: 37,2627           00005                           OCT      5
000230:
000231: 37,2630           15213                           TCF      TASKOVER
000232:
000233:
000234: 37,2631           00006        PREREAD1           EXTEND
000235: 37,2632           22070                           QXCH     RUPTREG1
000236:
000237: 37,2633           03163                           TC       PIPASR                                #  CLEAR + READ PIPS LAST TIME IN FREE FALL
000238:
000239: 37,2634           34712                           CAF      ONE                                   #  SET UP PIPAGE FOR REREADAC IN CASE A
000240: 37,2635           55230                           TS       PIPAGE                                #       RESTART OCCURS BEFORE READACCS
000241:
000242: 37,2636           40075                           CS       FLAGWRD1                              #  SET AVEG FLAG
000243: 37,2637           74712                           MASK     BIT1
000244: 37,2640           26075                           ADS      FLAGWRD1
000245:
000246: 37,2641           34672                           CA       POSMAX
000247: 37,2642           70076                           MASK     FLAGWRD2
000248: 37,2643           54076                           TS       FLAGWRD2                              #  KNOCK DOWN DRIFT FLAG
000249:
000250: 37,2644           40103                           CS       FLAGWRD7                              #  SET V37 FLAG
000251: 37,2645           74705                           MASK     BIT6
000252: 37,2646           26103                           ADS      FLAGWRD7
000253:
000254: 37,2647           34714                           CAF      ZERO
000255: 37,2650           55425                           TS       DVTOTAL                               #  CLEAR DVTOTAL
000256: 37,2651           55426                           TS       DVTOTAL    +1
000257:
000258: 37,2652           00070                           TC       RUPTREG1
000259:


000261:                                                                                                  #  *************************************   READACCS   **************************************************************
000262: 37,2653  E6,1661                                  EBANK=   AOG
000263: 37,2653           03163        READACCS           TC       PIPASR
000264:
000265: 37,2654           34715        PIPSDONE           CAF      FIVE
000266: 37,2655           54001                           TS       L
000267: 37,2656           40000                           COM
000268: 37,2657           52763                           DXCH     -PHASE5
000269:
000270: 37,2660           34712        REDO5.5            CAF      ONE                                   #  SHOW PIPS HAVE BEEN READ
000271: 37,2661           55230                           TS       PIPAGE
000272:
000273: 37,2662           34711                           CA       TWO                                   #  SET PIPCTR FOR ONMINTOR
000274: 37,2663           55227                           TS       PIPCTR                                #  AFTER ABOVE PHASCHNG
000275:
000276: 37,2664           40102                           CS       CM/FLAGS
000277: 37,2665           74711                           MASK     BIT2                                  #  CM/DSTBY
000278: 37,2666           10000                           CCS      A
000279: 37,2667           02742                           TC       CHEKAVEG
000280:
000281: 37,2670           41246                           CS       PIPTIME1   +1
000282: 37,2671           55065                           TS       TBASE6                                #  FOR RESTARTS
000283: 37,2672           00006                           EXTEND                                         #  CONTINUE FOR ENTRY DAP
000284: 37,2673           31662                           DCA      AOG
000285: 37,2674           53670                           DXCH     AOG/PIP
000286: 37,2675           31663                           CA       AMG
000287: 37,2676           57671                           XCH      AMG/PIP
000288: 37,2677           00006                           EXTEND
000289: 37,2700           31665                           DCA      ROLL/180
000290: 37,2701           53673                           DXCH     ROLL/PIP
000291: 37,2702           31666                           CA       BETA/180
000292: 37,2703           57674                           XCH      BETA/PIP
000293: 37,2704           30102                           CA       CM/FLAGS
000294: 37,2705           74677                           MASK     BIT12                                 #  CM/DAPARM  93D  BIT12
000295: 37,2706           00006                           EXTEND                                         #  DURING ENTRY, WHEN RCS DAP IS INACTIVE,
000296: 37,2707           12725                           BZF      NOSAVPIP                              #  SAVE PIPAS EACH 0.5 SEC FOR TM.
000297:
000298: 37,2710           32775                           CA       0.5SEC
000299: 37,2711           05140                           TC       WAITLIST
000300: 37,2712  E6,1533                                  EBANK=   XPIPBUF
000301: 37,2712           02776 76066                     2CADR    QUIKREAD
000302:                                                                                                  #                                          NO NEED TO RESTART PROTECT THIS.
000303: 37,2714           31162                           CA       DELVX                                 #  SAVE PIPAS AS READ (BUT NOT COMPENSATED)
000304: 37,2715           57533                           XCH      XPIPBUF
000305: 37,2716           55536                           TS       XOLDBUF
000306:
000307: 37,2717           31164                           CA       DELVY
000308: 37,2720           57534                           XCH      YPIPBUF
000309: 37,2721           55537                           TS       YOLDBUF


000311: 37,2722           31166                           CA       DELVZ
000312: 37,2723           57535                           XCH      ZPIPBUF
000313: 37,2724           55540                           TS       ZOLDBUF
000314:
000315: 37,2725           34715        NOSAVPIP           CA       FIVE
000316: 37,2726           55725                           TS       CM/GYMDT
000317:
000318: 37,2727           33142                           CA       JTAGTIME                              #  ACTIVATE CM/RCS AFTER PIPUP TO GO
000319:                                                                                                  #                                          IN JTAGTIME +5 CS.
000320: 37,2730           05140                           TC       WAITLIST
000321: 37,2731  E6,1661                                  EBANK=   AOG
000322: 37,2731           03222 32066                     2CADR    SETJTAG
000323:
000324: 37,2733           46214                           CS       THREE                                 #  1.3SPOT FOR SETJTAG
000325: 37,2734           04114                           TC       NEWPHASE
000326: 37,2735           00001                           OCT      1
000327:
000328: 37,2736           34362                           CAF      OCT37
000329: 37,2737           54001                           TS       L
000330: 37,2740           40000                           COM
000331: 37,2741           52763                           DXCH     -PHASE5
000332:
000333: 37,2742           40075        CHEKAVEG           CS       FLAGWRD1
000334: 37,2743           74712                           MASK     BIT1
000335: 37,2744           10000                           CCS      A                                     #  IF AVEG FLAG DOWN SET FINAL EXIT AVEG
000336: 37,2745           02765                           TC       AVEGOUT
000337:
000338: 37,2746           34735                           CAF      2SECS
000339: 37,2747           05140                           TC       WAITLIST
000340: 37,2750  E6,1661                                  EBANK=   AOG
000341: 37,2750           02653 76066                     2CADR    READACCS
000342:
000343: 37,2752           34675        MAKESERV           CAF      PRIO20                                #  ESTABLISH SERVICER ROUTINE
000344: 37,2753           05042                           TC       FINDVAC
000345: 37,2754  E7,1431                                  EBANK=   DVCNTR
000346: 37,2754           03013 76067                     2CADR    SERVICER
000347:
000348: 37,2756           44710                           CS       FOUR                                  #  RESTART SERVICER AND READACCS
000349: 37,2757           04114                           TC       NEWPHASE
000350: 37,2760           00005                           OCT      5
000351:
000352: 37,2761           34702                           CAF      BIT9
000353: 37,2762           00006                           EXTEND
000354: 37,2763           05011                           WOR      DSALMOUT                              #  TURN TEST CONNECTOR OUTBIT ON
000355:
000356: 37,2764           15213                           TCF      TASKOVER                              #  END PREVIOUS READACCS WAITLIST TASK
000357:


000359: 37,2765           00006        AVEGOUT            EXTEND
000360: 37,2766           32772                           DCA      AVOUTCAD
000361: 37,2767           53223                           DXCH     AVGEXIT
000362: 37,2770           12752                           TCF      MAKESERV
000363:
000364: 37,2771  E7,1431                                  EBANK=   DVCNTR
000365: 37,2771           03074 76067  AVOUTCAD           2CADR    AVGEND
000366:


000368:                                                                                                  #  ROUTINE NAME: ONMNITOR
000369:                                                                                                  #  MOD 04 BY BAIRNSFATHER  30 APR 1968                     REDO ONMNITOR TO SAVE PIPS EACH 0.5 SEC FOR TM,ENTRY.
000370:                                                                                                  #  MOD 03 BY FISHER DECEMBER 1967
000371:                                                                                                  #  MOD 02 BY RYE SEPT 1967
000372:                                                                                                  #  MOD 01 BY KOSMALA 23 MAR 1967
000373:                                                                                                  #  MOD 00 BY KOSMALA 27 FEB 1967
000374:
000375:                                                                                                  #  FUNCTIONAL DESCRIPTION
000376:
000377:                                                                                                  #           THE PURPOSE OF ONMONITOR IS TO PROVIDE 1/2 SEC.READING OF PIPAS FOR DOWNLIST DURING ENTRY.
000378:                                                                                                  #           X,Y,ZPIPBUF CONTAIN PRESENT VALUES X,Y,ZOLDBUF CONTAIN VALUES FROM PREVIOUS READING.
000379:
000380:                                                                                                  #  CALLING SEQUENCE
000381:
000382:                                                                                                  #           CALL AS WAITLIST TASK. TERMINATES ITSELF IN TASKOVER
000383:
000384:                                                                                                  #  INITIALIZATION
000385:
000386:                                                                                                  #           PIPCTR = 2 (FOR DT = 0.5 SEC)
000387:                                                                                                  #           X,Y,ZPIPBUF SET TO PREVIOUS PIPAX,Y,Z
000388:
000389:                                                                                                  #  OUTPUT
000390:
000391:                                                                                                  #           X,Y,ZPIPBUF, X,Y,ZOLDBUF
000392:                                                                                                  #  DEBRIS
000393:
000394:                                                                                                  #           X,Y,ZPIPBUF CONTAIN LAST PIPAX,Y,Z VALUES
000395:                                                                                                  #                  X,Y,ZOLDBUF CONTAIN LAST-BUT-ONE PIPAX,Y,Z VALUES
000396:                                                                                                  #           RUPTREG1
000397:                                                                                                  #           PIPCTR
000398:
000399: 37,2773           55227        ONMNITOR           TS       PIPCTR
000400:
000401: 37,2774           05156                           TC       FIXDELAY                              #  WAIT
000402: 37,2775           00062        0.5SEC             DEC      50         B-14
000403:
000404: 37,2776           34711        QUIKREAD           CAF      TWO
000405: 37,2777           54070                           TS       RUPTREG1
000406: 37,3000           50000                           INDEX    A
000407: 37,3001           30037                           CA       PIPAX                                 #  SAVE ACTUAL PIPAS FOR TM.
000408: 37,3002           50070                           INDEX    RUPTREG1
000409: 37,3003           57533                           XCH      XPIPBUF                               #  UPDATE X,Y,ZPIPBUF
000410: 37,3004           50070                           INDEX    RUPTREG1
000411: 37,3005           55536                           TS       XOLDBUF                               #  AND X,Y,ZOLDBUF
000412: 37,3006           10070        CHKCTR             CCS      RUPTREG1
000413: 37,3007           12777                           TCF      QUIKREAD   +1                         #  LOOP AGAIN
000414: 37,3010           11227                           CCS      PIPCTR
000415: 37,3011           12773                           TCF      ONMNITOR
000416: 37,3012           05213                           TC       TASKOVER
000417:


000419:                                                                                                  #  *************************************   SERVICER   **************************************************************
000420:
000421:
000422: 37,3013  E7,1431                                  EBANK=   DVCNTR
000423:
000424: 37,3013           34711        SERVICER           CAF      TWO
000425: 37,3014           00004                           INHINT
000426: 37,3015           54070        PIPCHECK           TS       RUPTREG1
000427:
000428: 37,3016           60000                           DOUBLE
000429: 37,3017           50000                           INDEX    A
000430: 37,3020           11162                           CCS      DELVX
000431: 37,3021           03023                           TC       +2
000432: 37,3022           03031                           TC       PIPLOOP
000433:
000434: 37,3023           63141                           AD       -MAXDELV                              #  DO PIPA-SATURATION TEST BEFORE
000435: 37,3024           00006                           EXTEND
000436: 37,3025           63031                           BZMF     PIPLOOP                               #  COMPENSATION.
000437:
000438: 37,3026           05537                           TC       ALARM
000439: 37,3027           00205                           OCT      00205                                 #  SATURATED-PIPA ALARM  ***CHANGE LATER
000440: 37,3030           03052                           TC       AVERAGEG
000441:
000442: 37,3031           10070        PIPLOOP            CCS      RUPTREG1
000443: 37,3032           13015                           TCF      PIPCHECK
000444:
000445: 37,3033           05301                           TC       PHASCHNG                              #  RESTART REREADAC + SERVICER
000446: 37,3034           16035                           OCT      16035
000447: 37,3035           20000                           OCT      20000
000448: 37,3036  E7,1431                                  EBANK=   DVCNTR
000449: 37,3036           03042 76067                     2CADR    DVTOTUP
000450:
000451: 37,3040           04555                           TC       BANKCALL                              #  PIPA COMPENSATION CALL
000452: 37,3041           15262                           CADR     1/PIPA
000453:
000454: 37,3042           06006        DVTOTUP            TC       INTPRET
000455: 37,3043           51575                           VLOAD    ABVAL                                 #  GET ABS VALUE OF DELV
000456: 37,3044           01163                                    DELV
000457: 37,3045           77405                           DMP      EXIT
000458: 37,3046           37356                                    KPIP1                                 #  SCALE AT 2(+7)
000459:
000460: 37,3047           00006                           EXTEND
000461: 37,3050           30155                           DCA      MPAC
000462: 37,3051           21426                           DAS      DVTOTAL                               #  ACCUMULATE DVTOTAL
000463: 37,3052           05301        AVERAGEG           TC       PHASCHNG
000464: 37,3053           10035                           OCT      10035
000465:
000466: 37,3054           06006                           TC       INTPRET
000467: 37,3055           77624                           CALL


000469: 37,3056           77325                                    CALCRVG
000470: 37,3057           77776                           EXIT
000471:
000472: 37,3060           05301                           TC       PHASCHNG
000473: 37,3061           10035                           OCT      10035
000474:
000475: 37,3062           34113                           CAF      OCT31                                 #  COPY RN1,VN1,GOT102,GOBL1/2,PIPTIME1
000476: 37,3063           05475                           TC       GENTRAN                               #  INTO RN ,VN ,GDT/12 ,GOBL/2 ,PIPTIME
000477: 37,3064           01231                           ADRES    RN1
000478: 37,3065           01170                           ADRES    RN
000479: 37,3066           00003                           RELINT                                         #  GENTRAN DOES AN INHINT
000480: 37,3067           05301                           TC       PHASCHNG
000481: 37,3070           10035                           OCT      10035
000482:
000483: 37,3071           00006                           EXTEND
000484: 37,3072           31223                           DCA      AVGEXIT
000485: 37,3073           52006                           DXCH     Z                                     #  AVERAGEG EXIT
000486:
000487: 37,3074           31205        AVGEND             CA       PIPTIME    +1                         #  FINAL AVERAGE G EXIT
000488: 37,3075           55074                           TS       OLDBT1                                #  SET UP FREE FALL GYRO COMPENSATION
000489:
000490: 37,3076           05435                           TC       UPFLAG                                #  SET DRIFTFLG
000491: 37,3077           00036                           ADRES    DRIFTFLG                              #  BIT 15  FLAG 2
000492: 37,3100           05261                           TC       2PHSCHNG
000493: 37,3101           00005                           OCT      5                                     #  GROUP 5 OFF
000494: 37,3102           05022                           OCT      05022                                 #  GROUP 2 ON FOR AVETOMID
000495: 37,3103           20000                           OCT      20000
000496:
000497: 37,3104           06006                           TC       INTPRET
000498: 37,3105           77624                           CALL
000499: 37,3106           27472                                    AVETOMID                              #  CONVERT STATE VECTOR TO REFERENCE SCALE.
000500: 37,3107           77776                           EXIT
000501:
000502: 37,3110           34714                           CAF      ZERO                                  #  ZERO MARK COUNTERS.
000503: 37,3111           55125                           TS       VHFCNT
000504: 37,3112           55126                           TS       TRKMKCNT
000505:
000506: 37,3113           04555                           TC       BANKCALL
000507: 37,3114           17112                           CADR     PIPFREE
000508:
000509: 37,3115           44702                           CS       BIT9
000510: 37,3116           55734                           TS       MRKBUF2                               #  INVALIDATE MARK BUFFER
000511: 37,3117           00006                           EXTEND
000512: 37,3120           03011                           WAND     DSALMOUT
000513:
000514: 37,3121           05447                           TC       DOWNFLAG
000515: 37,3122           00147                           ADRES    CM/DSTBY
000516:
000517: 37,3123           05447                           TC       DOWNFLAG
000518: 37,3124           00162                           ADRES    V37FLAG


000520: 37,3125           34704                           CAF      BIT7                                  #  RESTORE GROUP 1 + 2 IF P20 IS RUNNING.
000521: 37,3126           70074                           MASK     FLAGWRD0
000522: 37,3127           00006                           EXTEND
000523: 37,3130           13134                           BZF      +4
000524:
000525: 37,3131           05261                           TC       2PHSCHNG
000526: 37,3132           00111                           OCT      111                                   #  1.11SPOT
000527: 37,3133           00132                           OCT      132                                   #  2.13SPOT
000528:
000529: 37,3134           04574                           TC       POSTJUMP
000530: 37,3135           10123                           CADR     CANV37
000531:
000532: 37,3136           05301        SERVEXIT           TC       PHASCHNG
000533: 37,3137           00035                           OCT      00035                                 #  A, 5.3 = REREADAC  (ONLY)
000534:
000535: 37,3140           15112                           TCF      ENDOFJOB
000536:
000537: 37,3141     4717               DVTHRUSH           EQUALS   ELEVEN                                #  15 PERCENT OF 2SEC PIPA ACCUMULATION,
000538:                                                                                                  #                                               FOR 503-FULL CSM/LEM....DELV SC.AT
000539:                                                                                                  #                                               5.85 CM/SEC.
000540:
000541: 37,3141           63401        -MAXDELV           DEC      -6398      B-14                       #  3200 PPS FOR 2 SEC  CCS TAKES 1
000542:
000543:
000544: 37,3142           00170        JTAGTIME           DEC      120        B-14                       #  = 1 SEC + T CDU, T CDU = .1 SEC
000545:
000546: 37,3143           00372        2.5SEC             DEC      250        B-14
000547: 37,3144           00044        MDOTFAIL           DEC      144.0      B-16                       #  5 SEC MASS LOSS AT 28.8 KG/SEC
000548:                                                                                                  #                                          SHOULD BE 2-4 SECS FOR NO START
000549:                                                                                                  #                                                    6-8 SECS FOR FAILURE
000550:


000552:                                                                                                  #     NORMLIZE PERFORMS THE INITIALIZATION REQUIRED PRIOR TO THE FIRST ENTRY TO AVERAGEG, AND SCALES RN SO THAT IT
000553:                                                                                                  #  HAS 1 LEADING BINARY ZERO. IN MOST MISSIONS, RN WILL BE SCALED AT 2(+29), BUT IN THE 206 MISSION, RN WILL BE
000554:                                                                                                  #  SCALED AT 2(+24)M.
000555:
000556:
000557: 37,3145           34720        NORMLIZE           CAF      THIRTEEN                              #  SET UP TO COPY 14 REGS- RN1,VN1,PIPTIME1
000558: 37,3146           05475                           TC       GENTRAN                               #  INTO RN,VN, PIPTIME
000559: 37,3147           01231                           ADRES    RN1                                   #  FROM HERE
000560: 37,3150           01170                           ADRES    RN                                    #  TO HERE
000561:
000562: 37,3151           00003                           RELINT
000563: 37,3152           06006                           TC       INTPRET
000564: 37,3153           45175                           VLOAD    CALL                                  #  LOAD RN FOR CALCGRAV
000565: 37,3154           01171                                    RN
000566: 37,3155           77260                                    CALCGRAV                              #  INITIALISE UNITR RMAG GDT1
000567:
000568: 37,3156           25207                           STOVL    GDT/2
000569: 37,3157           01256                                    GOBL1/2
000570: 37,3160           01215                           STORE    GOBL/2
000571: 37,3161           77776                           EXIT
000572: 37,3162           15112                           TCF      ENDOFJOB
000573:


000575:                                                                                                  #  *****  PIPA READER *****
000576:
000577:
000578:                                                                                                  #                  MOD NO. 00  BY D. LICKLY  DEC.9 1966
000579:
000580:
000581:                                                                                                  #  FUNCTIONAL DESCRIPTION
000582:
000583:                                                                                                  #     SUBROUTINE TO READ PIPA COUNTERS, TRYING TO BE VERY CAREFUL SO THAT IT WILL BE RESTARTABLE.
000584:                                                                                                  #     PIPA READINGS ARE STORED IN THE VECTOR DELV. THE HIGH ORDER PART OF EACH COMPONENT CONTAINS THE PIPA READING,
000585:                                                                                                  #     RESTARTS BEGIN AT REREADAC.
000586:
000587:
000588:                                                                                                  #     AT THE END OF THE PIPA READER THE CDUS ARE READ AND STORED AS A
000589:                                                                                                  #  VECTOR IN CDUTEMP.  THE HIGH ORDER PART OF EACH COMPONENT CONTAINS
000590:                                                                                                  #  THE CDU READING IN 2S COMP IN THE ORDER CDUX,Y,Z.  THE THRUST
000591:                                                                                                  #  VECTOR ESTIMATOR IN FINDCDUD REQUIRES THE CDUS BE READ AT PIPTIME.
000592:
000593:                                                                                                  #  CALLING SEQUENCE AND EXIT
000594:
000595:                                                                                                  #     CALL VIA TC, ISWCALL, ETC.
000596:
000597:                                                                                                  #     EXIT IS VIA Q.
000598:
000599:
000600:                                                                                                  #  INPUT
000601:
000602:                                                                                                  #     INPUT IS THROUGH THE COUNTERS PIPAX, PIPAY, PIPAZ, AND TIME2.
000603:
000604:
000605:                                                                                                  #  OUTPUT
000606:
000607:                                                                                                  #     HIGH ORDER COMPONENTS OF THE VECTOR DELV CONTAIN THE PIPA READINGS.
000608:                                                                                                  #     PIPTIME CONTAINS TIME OF PIPA READING.
000609:
000610:
000611:                                                                                                  #  DEBRIS (ERASABLE LOCATIONS DESTROYED BY PROGRAM)
000612:
000613:                                                                                                  #           LOW ORDER DELV'S ARE ZEROED FOR TM INDICATION.
000614:                                                                                                  #           TEMX   TEMY   TEMZ   PIPAGE
000615:
000616:
000617: 37,3163           00006        PIPASR             EXTEND
000618: 37,3164           30025                           DCA      TIME2
000619: 37,3165           53246                           DXCH     PIPTIME1                              #  CURRENT TIME  POSITIVE VALUE
000620: 37,3166           44714                           CS       ZERO                                  #  INITIALIZAE THESE AT NEG ZERO.
000621: 37,3167           55224                           TS       TEMX
000622: 37,3170           55225                           TS       TEMY
000623: 37,3171           55226                           TS       TEMZ


000625: 37,3172           34714                           CA       ZERO
000626: 37,3173           55166                           TS       DELVZ                                 #  OTHER DELVS OK INCLUDING LOW ORDER
000627: 37,3174           55164                           TS       DELVY
000628:
000629: 37,3175           55163                           TS       DELVX      +1                         #  LOW ORDER DELV'S ARE ZEROED FOR TM: THIS
000630: 37,3176           55165                           TS       DELVY      +1                         #  IF DNLNK'D LOW ORDER DELVS ARE NZ, THEY
000631: 37,3177           55167                           TS       DELVZ      +1                         #  CONTAIN PROPER COMPENSATION. IF=0, THEN
000632:                                                                                                  #                                          THE TM VALUES ARE BEFORE COMPENSATION.
000633:
000634: 37,3200           55230                           TS       PIPAGE                                #  SHOW PIPA READING IN PROGRESS
000635:
000636: 37,3201           00006        REPIP1             EXTEND
000637: 37,3202           40040                           DCS      PIPAX                                 #  X AND Y PIPS READ
000638: 37,3203           53225                           DXCH     TEMX
000639: 37,3204           52040                           DXCH     PIPAX                                 #  PIPAS SET TO NEG ZERO AS READ.
000640: 37,3205           55162                           TS       DELVX
000641: 37,3206           23164                           LXCH     DELVY
000642:
000643: 37,3207           40041        REPIP3             CS       PIPAZ                                 #  REPEAT PROCESS FOR Z PIP
000644: 37,3210           57226                           XCH      TEMZ
000645: 37,3211           56041                           XCH      PIPAZ
000646: 37,3212           55166        DODELVZ            TS       DELVZ
000647:
000648: 37,3213           00002                           TC       Q
000649:
000650:
000651: 37,3214  E6,1661                                  EBANK=   AOG
000652:
000653: 37,3214           10763        REREADAC           CCS      PHASE5                                #  LAST PASS CHECK
000654: 37,3215           13217                           TCF      +2
000655: 37,3216           15213                           TCF      TASKOVER
000656:
000657: 37,3217           11230                           CCS      PIPAGE
000658: 37,3220           12653                           TCF      READACCS                              #  PIP READING NOT STARTED. GO TO BEGINNING
000659:
000660: 37,3221           33257                           CAF      DONEADR                               #  SET UP RETURN FROM PIPASR
000661: 37,3222           54002                           TS       Q
000662:
000663: 37,3223           11166                           CCS      DELVZ
000664: 37,3224           00002                           TC       Q                                     #  Z DONE, GO DO CDUS
000665: 37,3225           13230                           TCF      +3                                    #  Z NOT DONE, CHECK Y.
000666: 37,3226           00002                           TC       Q
000667: 37,3227           00002                           TC       Q
000668: 37,3230           22007                           ZL
000669: 37,3231           11164                           CCS      DELVY
000670: 37,3232           13235                           TCF      +3
000671: 37,3233           13244                           TCF      CHKTEMX                               #  Y NOT DONE, CHECK X.
000672: 37,3234           13235                           TCF      +1
000673: 37,3235           22041                           LXCH     PIPAZ                                 #  Y DONE, ZERO Z PIP.


000675: 37,3236           11226                           CCS      TEMZ
000676: 37,3237           41226                           CS       TEMZ                                  #  TEMZ NOT = -0, CONTAINS -PIPAZ VALUE.
000677: 37,3240           13212                           TCF      DODELVZ
000678: 37,3241           13237                           TCF      -2
000679: 37,3242           23166                           LXCH     DELVZ                                 #  TEMZ = -0, L HAS ZPIP VALUE.
000680: 37,3243           00002                           TC       Q
000681:
000682: 37,3244           11224        CHKTEMX            CCS      TEMX                                  #  HAS THIS CHANGED
000683: 37,3245           41224                           CS       TEMX                                  #  YES
000684: 37,3246           13251                           TCF      +3                                    #  YES
000685: 37,3247           13245                           TCF      -2                                    #  YES
000686: 37,3250           13201                           TCF      REPIP1                                #  NO
000687: 37,3251           55162                           TS       DELVX
000688:
000689: 37,3252           41225                           CS       TEMY
000690: 37,3253           55164                           TS       DELVY
000691:
000692: 37,3254           44714                           CS       ZERO                                  #  ZERO X AND Y PIPS
000693: 37,3255           52040                           DXCH     PIPAX                                 #  L STILL ZERO FROM ABOVE
000694:
000695: 37,3256           13207                           TCF      REPIP3
000696:
000697: 37,3257           02654        DONEADR            GENADR   PIPSDONE
000698:


000700:                                                                                                  #  *************************************************************************************************************
000701:
000702:                                                                                                  #           ROUTINE CALCRVG INTEGRATES THE EQUATIONS OF MOTION BY AVERAGING THE THRUST AND GRAVITATIONAL
000703:                                                                                                  #  ACCELERATIONS OVER A TIME INTERVAL OF 2 SECONDS.
000704:
000705:                                                                                                  #           FOR THE EARTH-CENTERED GRAVITATIONAL FIELD, THE PERTURBATION DUE TO OBLATENESS IS COMPUTED TO THE FIRST
000706:                                                                                                  #  HARMONIC COEFFICIENT J.
000707:
000708:                                                                                                  #           ROUTINE CALCRVG REQUIRES...
000709:                                                                                                  #                  1) THRUST ACCELERATION INCREMENTS IN DELV SCALED SAME AS PIPAX,Y,Z IN STABLE MEMBER COORDS.
000710:                                                                                                  #                  2) VN SCALED 2(+7)M/CS IN REFERENCE COORDS.
000711:                                                                                                  #                  3) RN SCALED AT 2(+29) METERS IN REFERENCE COORDS.
000712:                                                                                                  #                  4) UNITW THE EARTH S UNIT ROTATIONAL VECTOR (SCALED AS A FULL UNIT VECTOR) IN REFERENCE COORDS.
000713:
000714:                                                                                                  #  IT LEAVES RN1 UPDATED (SCALED AT 2(+29)M, VN1 (SCALED AT 2(+7)M/CS), AND GDT1/2 (SCALED AT 2(+7)M/CS). ALSO HALF
000715:                                                                                                  #  UNIT VECTOR UNITR, RMAG IN 36D SCALED AT 2(+29)M, R MAG SQ. IN 34D SCALED AT 2(+58) M SQ.
000716:
000717:
000718: 37,3260           41456        CALCGRAV           UNIT     PUSH                                  #  ENTER WITH RN IN MPAC
000719: 37,3261           01760                           STORE    UNITR
000720: 37,3262           67340                           LXC,1    SLOAD
000721: 37,3263           03746                                    RTX2
000722: 37,3264           00047                                    X1
000723: 37,3265           77240                           BMN      VLOAD
000724: 37,3266           77314                                    ITISMOON
000725: 37,3267           41441                           DOT      PUSH
000726: 37,3270           01714                                    UNITW
000727: 37,3271           44316                           DSQ      BDSU
000728: 37,3272           37366                                    DP1/20
000729: 37,3273           56325                           PDDL     DDV
000730: 37,3274           37370                                    RESQ
000731: 37,3275           00043                                    34D                                   #  (RN)SQ
000732: 37,3276           00041                           STORE    32D                                   #  TEMP FOR (RE/RN)SQ
000733: 37,3277           41205                           DMP      DMP
000734: 37,3300           37372                                    20J
000735: 37,3301           65361                           VXSC     PDDL
000736: 37,3302           01760                                    UNITR
000737: 37,3303           41205                           DMP      DMP
000738: 37,3304           37374                                    2J
000739: 37,3305           00041                                    32D
000740: 37,3306           53361                           VXSC     VAD
000741: 37,3307           01714                                    UNITW
000742: 37,3310           77626                           STADR
000743: 37,3311           76521                           STORE    GOBL1/2
000744: 37,3312           41455                           VAD      PUSH
000745: 37,3313           01760                                    UNITR
000746: 37,3314           60345        ITISMOON           DLOAD    NORM
000747: 37,3315           00043                                    34D
000748: 37,3316           00050                                    X2
000749: 37,3317           53663                           BDDV*    SLR*


000751: 37,3320           37360                                    -MUDT(E),1
000752: 37,3321           56623                                    0          -21D,2
000753: 37,3322           45561                           VXSC     STADR
000754: 37,3323           76527                           STORE    GDT1/2                                #  SCALED AT 2(+7) M/CS
000755: 37,3324           77616                           RVQ
000756:
000757: 37,3325           74375        CALCRVG            VLOAD    VXSC
000758: 37,3326           01163                                    DELV
000759: 37,3327           37356                                    KPIP1
000760: 37,3330           76505                           VXM      VSL1
000761: 37,3331           01736                                    REFSMMAT
000762: 37,3332           03433                           STORE    DELVREF                               #  DELV IN REF COORDS AT 2(+7)
000763: 37,3333           41562                           VSR1     PUSH
000764: 37,3334           41455                           VAD      PUSH                                  #  (DV-OLDGDT)/2 TO PD SCALED AT 2(+7)M/CS
000765: 37,3335           01207                                    GDT/2
000766: 37,3336           74255                           VAD      VXSC
000767: 37,3337           01177                                    VN
000768: 37,3340           37364                                    2SEC(22)
000769: 37,3341           44055                           VAD      STQ
000770: 37,3342           01171                                    RN
000771: 37,3343           00037                                    31D
000772: 37,3344           35232                           STCALL   RN1                                   #  TEMP STORAGE OF RN SCALED 2(+29)M
000773: 37,3345           77260                                    CALCGRAV
000774:
000775: 37,3346           53255                           VAD      VAD
000776: 37,3347           77655                           VAD
000777: 37,3350           01177                                    VN
000778: 37,3351           35240                           STCALL   VN1                                   #  TEMP STORAGE OF VN SCALED 2(+7)M/CS
000779: 37,3352           00037                                    31D
000780:
000781: 37,3353           03215 27057  KPIP               2DEC     .1024                                 #  SCALES DELV TO 2(+4)
000782: 37,3355           02312 32537  KPIP1              2DEC     0.074880                              #  207 DELV SCALING. 1 PULSE = 5.85 CM/SEC.
000783: 37,3357           61377 55754  -MUDT(E)           2DEC*    -7.9720645 E+12       B-44*
000784: 37,3361           77644 65556  -MUDT(M)           2DEC*    -9.805556  E+10       B-44*
000785: 37,3363           00000 31000  2SEC(22)           2DEC     200        B-22
000786:
000787: 37,3365           01463 06315  DP1/20             2DEC     0.05
000788: 37,3367           00001 05000  RESQ               2DEC*    40.6809913 E12        B-59*
000789: 37,3371           02047 36332  20J                2DEC*    3.24692010 E-2        B1*
000790: 37,3373           00152 14511  2J                 2DEC*    3.24692010 E-3        B1*

End of include-file SERVICER207.agc.  Parent file is MAIN.agc


