
Source Code


000002:                                                                                                  ## Copyright:   Public domain.
000003:                                                                                                  ## Filename:    SINGLE_PRECISION_SUBROUTINES.agc
000004:                                                                                                  ## Purpose:     Part of the source code for Colossus build 237.
000005:                                                                                                  ##              This is for the Command Module's (CM) Apollo Guidance
000006:                                                                                                  ##              Computer (AGC), for Apollo 8.
000007:                                                                                                  ## Assembler:   yaYUL
000008:                                                                                                  ## Contact:     Onno Hommes <ohommes@alumni.cmu.edu>
000009:                                                                                                  ## Website:     www.ibiblio.org/apollo/index.html
000010:                                                                                                  ## Page Scans:  www.ibiblio.org/apollo/ScansForConversion/Colossus237/
000011:                                                                                                  ## Mod history: 2010-06-03 OH   Adapted from corresponding Colossus 249 file.
000012:                                                                                                  ##              2010-12-04 JL   Remove Colossus 249 header comments. Change to double-has page numbers.
000013:                                                                                                  ##              2011-02-08 JL   Minor fixes.
000014:                                                                                                  ##              2017-01-01 RSB  Proofed comment text using octopus/ProoferComments,
000015:                                                                                                  ##                              and fixed errors found.
000016:


000018:    4767                                           BLOCK    02
000019:
000020:                                                                                                  #  SINGLE PRECISION SINE AND COSINE
000021:
000022:    4767                                           COUNT    02/INTER
000023:    4767           64675        SPCOS              AD       HALF                                  #  ARGUMENTS SCALED AT PI
000024:    4770           55075        SPSIN              TS       TEMK
000025:    4771           14773                           TCF      SPT
000026:    4772           41075                           CS       TEMK
000027:    4773           60000        SPT                DOUBLE
000028:    4774           55075                           TS       TEMK
000029:    4775           15006                           TCF      POLLEY
000030:    4776           57075                           XCH      TEMK
000031:    4777           51075                           INDEX    TEMK
000032:    5000           64673                           AD       LIMITS
000033:    5001           40000                           COM
000034:    5002           61075                           AD       TEMK
000035:    5003           55075                           TS       TEMK
000036:    5004           15006                           TCF      POLLEY
000037:    5005           15024                           TCF      ARG90
000038:    5006           00006        POLLEY             EXTEND
000039:    5007           71075                           MP       TEMK
000040:    5010           55076                           TS       SQ
000041:    5011           00006                           EXTEND
000042:    5012           74742                           MP       C5/2
000043:    5013           67706                           AD       C3/2
000044:    5014           00006                           EXTEND
000045:    5015           71076                           MP       SQ
000046:    5016           67666                           AD       C1/2
000047:    5017           00006                           EXTEND
000048:    5020           71075                           MP       TEMK
000049:    5021           20001                           DDOUBL
000050:    5022           55075                           TS       TEMK
000051:    5023           00002                           TC       Q
000052:    5024           50000        ARG90              INDEX    A
000053:    5025           44673                           CS       LIMITS
000054:    5026           00002                           TC       Q                                     #  RESULT SCALED AT 1
000055:                                                                                                  #           SPROOT WAS DELETED IN REV 51 OF MASTER. ASS. CONT. HAS CARDS.

End of include-file SINGLE_PRECISION_SUBROUTINES.agc.  Parent file is MAIN.agc


