
Source Code


000002:                                                                                                  ## Copyright:   Public domain.
000003:                                                                                                  ## Filename:    STABLE_ORBIT_-_P38-P39.agc
000004:                                                                                                  ## Purpose:     Part of the source code for Colossus build 237.
000005:                                                                                                  ##              This is for the Command Module's (CM) Apollo Guidance
000006:                                                                                                  ##              Computer (AGC), for Apollo 8.
000007:                                                                                                  ## Assembler:   yaYUL
000008:                                                                                                  ## Contact:     Onno Hommes <ohommes@alumni.cmu.edu>
000009:                                                                                                  ## Website:     www.ibiblio.org/apollo/index.html
000010:                                                                                                  ## Page Scans:  www.ibiblio.org/apollo/ScansForConversion/Colossus237/
000011:                                                                                                  ## Mod history: 2010-06-03 OH   Adapted from corresponding Colossus 249 file.
000012:                                                                                                  ##              2010-12-04 JL   Remove Colossus 249 header comments. Change to double-has page numbers.
000013:                                                                                                  ##              2011-02-06 JL   Minor fixes.
000014:                                                                                                  ##              2016-12-31 RSB  Proofed comment text using octopus/ProoferComments,
000015:                                                                                                  ##                              and corrected errors found.
000016:


000018:                                                                                                  #  STABLE ORBIT RENDEZVOUS PROGRAMS (P38 AND P78)
000019:
000020:                                                                                                  #  MOD NO -1          LOG SECTION - STABLE ORBIT - P38-P39
000021:                                                                                                  #  MOD BY RUDNICKI.S  DATE 25JAN68
000022:
000023:                                                                                                  #  FUNCTIONAL DESCRIPTION
000024:
000025:                                                                                                  #        P38 AND P78 CALCULATE THE REQUIRED DELTA V AND OTHER INITIAL
000026:                                                                                                  #        CONDITIONS REQUIRED BY THE AGC TO (1) PUT THE ACTIVE VEHICLE
000027:                                                                                                  #        ON A TRANSFER TRAJECTORY THAT INTERCEPTS THE PASSIVE VEHICLE
000028:                                                                                                  #        ORBIT A GIVEN DISTANCE, DELTA R, EITHER AHEAD OF OR BEHIND THE
000029:                                                                                                  #        PASSIVE VEHICLE AND (2) ACTUALLY PLACE THE ACTIVE VEHICLE IN THE
000030:                                                                                                  #        PASSIVE VEHICLE ORBIT WITH A DELTA R SEPARATION BETWEEN THE TWO
000031:                                                                                                  #        VEHICLES
000032:
000033:                                                                                                  #  CALLING SEQUENCE
000034:
000035:                                                                                                  #        ASTRONAUT REQUEST THRU DSKY
000036:
000037:                                                                                                  #        V37E38E   IF THIS VEHICLE IS ACTIVE VEHICLE
000038:                                                                                                  #        V37E78E   IF OTHER VEHICLE IS ACTIVE VEHICLE
000039:
000040:                                                                                                  #  INPUT
000041:
000042:                                                                                                  #        (1) SOI MANEUVER
000043:
000044:                                                                                                  #                (A) TIG      TIME OF SOI MANEUVER
000045:                                                                                                  #                (B) CENTANG  ORBITAL CENTRAL ANGLE OF THE PASSIVE VEHICLE
000046:                                                                                                  #                             DURING TRANSFER FROM TIG TO TIME OF INTERCEPT
000047:                                                                                                  #                (C) DELTAR   THE DESIRED SEPARATION OF THE TWO VEHICLES
000048:                                                                                                  #                             SPECIFIED AS A DISTANCE ALONG THE PASSIVE VEHICLE
000049:                                                                                                  #                             ORBIT
000050:                                                                                                  #                (D) OPTION   EQUALS 1 FOR SOI
000051:
000052:                                                                                                  #        (2) SOR MANEUVER
000053:
000054:                                                                                                  #                (A) TIG      TIME OF SOR MANEUVER
000055:                                                                                                  #                (B) CENTANG  AN OPTIONAL RESPECIFICATION OF 1 (B) ABOVE
000056:                                                                                                  #                (C) OPTION   EQUALS 2 FOR SOR
000057:                                                                                                  #                (D) DELTTIME THE TIME REQUIRED TO TRAVERSE DELTA R WHEN
000058:                                                                                                  #                             TRAVELING AT A VELOCITY EQUAL TO THE HORIZONTAL
000059:                                                                                                  #                             VELOCITY OF THE PASSIVE VEHICLE - SAVED FROM
000060:                                                                                                  #                             SOI PHASE
000061:                                                                                                  #                (E) TINT     TIME OF INTERCEPT (SOI) - SAVED FROM SOI PHASE
000062:
000063:                                                                                                  #  OUTPUT
000064:
000065:                                                                                                  #        (1) TRKMKCNT NUMBER OF MARKS
000066:                                                                                                  #        (2) TTOGO    TIME TO GO
000067:                                                                                                  #        (3) +MGA     MIDDLE GIMBAL ANGLE


000069:                                                                                                  #        (4) DSPTEM1  TIME OF INTERCEPT OF PASSIVE VEHICLE ORBIT
000070:                                                                                                  #                     (FOR SOI ONLY)
000071:                                                                                                  #        (5) POSTTPI  PERIGEE ALTITUDE OF ACTIVE VEHICLE ORBIT AFTER
000072:                                                                                                  #                     THE SOI (SOR) MANEUVER
000073:                                                                                                  #        (6) DELVTPI  MAGNITUDE OF DELTA V AT SOI (SOR) TIME
000074:                                                                                                  #        (7) DELVTPF  MAGNITUDE OF DELTA V AT INTERCEPT TIME
000075:                                                                                                  #        (8) DELVLVC  DELTA VELOCITY AT SOI (AND SOR) - LOCAL VERTICAL
000076:                                                                                                  #                     COORDINATES
000077:
000078:                                                                                                  #  SUBROUTINES USED
000079:
000080:                                                                                                  #        AVFLAGA
000081:                                                                                                  #        AVFLAGP
000082:                                                                                                  #        VNDSPLY
000083:                                                                                                  #        BANKCALL
000084:                                                                                                  #        GOFLASHR
000085:                                                                                                  #        GOTOPOOH
000086:                                                                                                  #        BLANKET
000087:                                                                                                  #        ENDOFJOB
000088:                                                                                                  #        PREC/TT
000089:                                                                                                  #        SELECTMU
000090:                                                                                                  #        INTRPVP
000091:                                                                                                  #        MAINRTNE
000092:
000093: 04,3103                                           BANK     04
000094: 04,2000                                           SETLOC   STBLEORB
000095: 04,2000                                           BANK
000096:
000097: 04,3103  E4,1770                                  EBANK=   SUBEXIT
000098: 04,3103                                           COUNT*   $$/P3879
000099:
000100: 04,3103           04555        P38                TC       BANKCALL
000101: 04,3104           73726                           CADR     AVFLAGA                               #  THIS VEHICLE ACTIVE
000102: 04,3105           03110                           TC       +3
000103: 04,3106           04555        P78                TC       BANKCALL
000104: 04,3107           73741                           CADR     AVFLAGP                               #  OTHER VEHICLE ACTIVE
000105: 04,3110           04555                           TC       BANKCALL
000106: 04,3111           73746                           CADR     P20FLGON                              #  SET UPDATFLG, TRACKFLG
000107: 04,3112           33435                           CAF      V06N33SR                              #  DISPLAY TIG
000108: 04,3113           03424                           TC       VNDSPLY
000109: 04,3114           33436                           CAF      V06N55SR                              #  DISPLAY CENTANG
000110: 04,3115           04555                           TCR      BANKCALL
000111: 04,3116           20763                           CADR     GOFLASHR
000112: 04,3117           14106                           TCF      GOTOPOOH                              #  TERMINATE
000113: 04,3120           13125                           TCF      +5                                    #  PROCEED
000114: 04,3121           13114                           TCF      -5                                    #  RECYCLE
000115: 04,3122           36214                           CAF      THREE                                 #  IMMEDIATE RETURN - BLANK R1, R2
000116: 04,3123           05415                           TCR      BLANKET
000117: 04,3124           15112                           TCF      ENDOFJOB
000118: 04,3125           34715                           CAF      FIVE


000120: 04,3126           55131                           TS       OPTION1
000121: 04,3127           34712                           CAF      ONE
000122: 04,3130           55132                           TS       OPTION2                               #  OPTION CODE IS SET TO 1
000123: 04,3131           33437                           CAF      V04N06SR                              #  DISPLAY OPTION CODE - 1 = SOI, 2 = SOR
000124: 04,3132           04555                           TCR      BANKCALL
000125: 04,3133           20763                           CADR     GOFLASHR
000126: 04,3134           14106                           TCF      GOTOPOOH                              #  TERMINATE
000127: 04,3135           13142                           TCF      +5                                    #  PROCEED
000128: 04,3136           13131                           TCF      -5                                    #  RECYCLE
000129: 04,3137           34710                           CAF      BIT3                                  #  IMMEDIATE RETURN - BLANK R3
000130: 04,3140           05415                           TCR      BLANKET
000131: 04,3141           15112                           TCF      ENDOFJOB
000132: 04,3142           06006                           TC       INTPRET
000133: 04,3143           70535                           SLOAD    SR1
000134: 04,3144           01133                                    OPTION2
000135: 04,3145           71230                           BHIZ     DLOAD
000136: 04,3146           11154                                    OPTN1
000137: 04,3147           03656                                    TINT
000138: 04,3150           02611                           STORE    TINTSOI                               #  STORE FOR SOR PHASE
000139: 04,3151           77614                           CLRGO
000140: 04,3152           01230                                    OPTNSW                                #  OPTNSW; ON = SOI, OFF = SOR
000141: 04,3153           11200                                    JUNCTN1
000142: 04,3154           45014        OPTN1              SET      CALL                                  #  SOI
000143: 04,3155           01070                                    OPTNSW
000144: 04,3156           11357                                    PREC/TT
000145: 04,3157           77615                           DAD
000146: 04,3160           03413                                    TIG
000147: 04,3161           03656                           STORE    TINT                                  #  TI = TIG + TF
000148: 04,3162           01046                           STORE    DSPTEM1                               #  FOR DISPLAY
000149: 04,3163           77776                           EXIT
000150: 04,3164           33440                           CAF      V06N57SR                              #  DISPLAY DELTA R
000151: 04,3165           04555                           TCR      BANKCALL
000152: 04,3166           20763                           CADR     GOFLASHR
000153: 04,3167           14106                           TCF      GOTOPOOH                              #  TERMINATE
000154: 04,3170           13175                           TCF      +5                                    #  PROCEED
000155: 04,3171           13164                           TCF      -5                                    #  RECYCLE
000156: 04,3172           36211                           CAF      SIX                                   #  IMMEDIATE RETURN - BLANK R2, R3
000157: 04,3173           05415                           TCR      BLANKET
000158: 04,3174           15112                           TCF      ENDOFJOB
000159: 04,3175           33441                           CAF      V06N34SR                              #  DISPLAY TIME OF INTERCEPT
000160: 04,3176           03424                           TC       VNDSPLY
000161: 04,3177           06006                           TC       INTPRET
000162: 04,3200           45014        JUNCTN1            CLEAR    CALL
000163: 04,3201           04266                                    P39/79SW
000164: 04,3202           10716                                    SELECTMU                              #  SELECT MU, CLEAR FINALFLG, GO TO VN1645
000165: 04,3203           77624        RECYCLE            CALL
000166: 04,3204           11357                                    PREC/TT
000167: 04,3205           71214                           BOFF     DLOAD
000168: 04,3206           01350                                    OPTNSW
000169: 04,3207           11227                                    OPTN2


000171: 04,3210           03656                                    TINT
000172: 04,3211           34041                           STCALL   TDEC1                                 #  PRECISION UPDATE PASSIVE VEHICLE TO
000173: 04,3212           11410                                    INTRPVP                               #     INTERCEPT TIME
000174: 04,3213           53575                           VLOAD    UNIT
000175: 04,3214           00001                                    RATT                                  #  RP/(RP)
000176: 04,3215           47315                           PDVL     VXV
000177: 04,3216           00007                                    VATT
000178: 04,3217           60246                           ABVAL    NORM                                  #  (VP X RP/(RP))
000179: 04,3220           00047                                    X1
000180: 04,3221           56325                           PDDL     DDV
000181: 04,3222           02611                                    DELTAR
000182: 04,3223           77657                           SL*                                            #  DELTA R / (VP X RP/RP)
000183: 04,3224           20172                                    0          -7,1
000184: 04,3225           36613                           STCALL   DELTTIME                              #  DELTA T = (RP) DELTA R / (VP X RP)
000185: 04,3226           11233                                    JUNCTN2
000186: 04,3227           43345        OPTN2              DLOAD    DAD
000187: 04,3230           02611                                    TINTSOI
000188: 04,3231           00037                                    T
000189: 04,3232           03656                           STORE    TINT                                  #  TI = TI + TF
000190: 04,3233           45345        JUNCTN2            DLOAD    DSU
000191: 04,3234           03656                                    TINT
000192: 04,3235           02613                                    DELTTIME
000193: 04,3236           02615                           STORE    TARGTIME                              #  TT = TI - DELTA T
000194:                                                                                                  #  .... MAINRTNE ....
000195:                                                                                                  #  SUBROUTINES USED
000196:
000197:                                                                                                  #        S3435.25
000198:                                                                                                  #        PERIAPO1
000199:                                                                                                  #        SHIFTR1
000200:                                                                                                  #        VNDSPLY
000201:                                                                                                  #        BANKCALL
000202:                                                                                                  #        GOFLASH
000203:                                                                                                  #        GOTOPOOH
000204:                                                                                                  #        VN1645
000205:
000206: 04,3237           34041        MAINRTNE           STCALL   TDEC1                                 #  PRECISION UPDATE PASSIVE VEHICLE TO
000207: 04,3240           11410                                    INTRPVP                               #     TARGET TIME
000208: 04,3241           77745                           DLOAD
000209: 04,3242           03413                                    TIG
000210: 04,3243           03503                           STORE    INTIME
000211: 04,3244           77331                           SSP      VLOAD
000212: 04,3245           02371                                    SUBEXIT
000213: 04,3246           11252                                    TEST3979
000214: 04,3247           00001                                    RATT
000215: 04,3250           77624                           CALL
000216: 04,3251           72547                                    S3435.25
000217: 04,3252           43014        TEST3979           BOFF     BON
000218: 04,3253           04346                                    P39/79SW
000219: 04,3254           11263                                    MAINRTN1
000220: 04,3255           01311                                    FINALFLG


000222: 04,3256           11261                                    P39P79
000223: 04,3257           77614                           SET
000224: 04,3260           00470                                    UPDATFLG
000225: 04,3261           77776        P39P79             EXIT
000226: 04,3262           03310                           TC       DSPLY81                               #  FOR P39 AND P79
000227: 04,3263           51575        MAINRTN1           VLOAD    ABVAL
000228: 04,3264           03646                                    DELVEET3
000229: 04,3265           26635                           STOVL    DELVTPI                               #  DELTA V
000230: 04,3266           03640                                    VPASS4
000231: 04,3267           51451                           VSU      ABVAL
000232: 04,3270           03620                                    VTPRIME
000233: 04,3271           26637                           STOVL    DELVTPF                               #  DELTA V (FINAL) = V'T - VT
000234: 04,3272           03540                                    RACT3
000235: 04,3273           45115                           PDVL     CALL
000236: 04,3274           03612                                    VIPRIME
000237: 04,3275           45312                                    PERIAPO1                              #  GET PERIGEE ALTITUDE
000238: 04,3276           77624                           CALL
000239: 04,3277           45422                                    SHIFTR1
000240: 04,3300           02641                           STORE    POSTTPI
000241: 04,3301           43014                           BON      SET
000242: 04,3302           01311                                    FINALFLG
000243: 04,3303           11305                                    DSPLY58
000244: 04,3304           00470                                    UPDATFLG
000245: 04,3305           77776        DSPLY58            EXIT
000246: 04,3306           33442                           CAF      V06N58SR                              #  DISPLAY HP, DELTA V, DELTA V (FINAL)
000247: 04,3307           03424                           TC       VNDSPLY
000248: 04,3310           33443        DSPLY81            CAF      V06N81SR                              #  DISPLAY DELTA V (LV)
000249: 04,3311           03424                           TC       VNDSPLY
000250: 04,3312           06006                           TC       INTPRET
000251: 04,3313           77214                           CLEAR    VLOAD
000252: 04,3314           01267                                    XDELVFLG
000253: 04,3315           03646                                    DELVEET3
000254: 04,3316           37646                           STCALL   DELVSIN
000255: 04,3317           73005                                    VN1645                                #  DISPLAY TRKMKCNT, TTOGO, +MGA
000256: 04,3320           52014                           BON      GOTO
000257: 04,3321           04306                                    P39/79SW
000258: 04,3322           11344                                    P39/P79B
000259: 04,3323           11203                                    RECYCLE
000260:                                                                                                  #  STABLE ORBIT MIDCOURSE PROGRAM (P39 AND P79)
000261:
000262:                                                                                                  #  MOD NO -1          LOG SECTION - STABLE ORBIT - P38-P39
000263:                                                                                                  #  MOD BY RUDNICKI.S  DATE 25JAN68
000264:
000265:                                                                                                  #  FUNCTIONAL DESCRIPTION
000266:
000267:                                                                                                  #        P39 AND P79 CALCULATE THE REQUIRED DELTA V AND OTHER INITIAL
000268:                                                                                                  #        CONDITIONS REQUIRED BY THE AGC TO MAKE A MIDCOURSE CORRECTION
000269:                                                                                                  #        MANEUVER AFTER COMPLETING THE SOI MANEUVER BUT BEFORE MAKING
000270:                                                                                                  #        THE SOR MANEUVER
000271:


000273:                                                                                                  #  CALLING SEQUENCE
000274:
000275:                                                                                                  #        ASTRONAUT REQUEST THRU DSKY
000276:
000277:                                                                                                  #        V37E39E   IF THIS VEHICLE IS ACTIVE VEHICLE
000278:                                                                                                  #        V37E79E   IF OTHER VEHICLE IS ACTIVE VEHICLE
000279:
000280:                                                                                                  #  INPUT
000281:
000282:                                                                                                  #        (1) TPASS4   TIME OF INTERCEPT - SAVED FROM P38/P78
000283:                                                                                                  #        (2) TARGTIME TIME THAT PASSIVE VEHICLE IS AT INTERCEPT POINT -
000284:                                                                                                  #                     SAVED FROM P38/P78
000285:
000286:                                                                                                  #  OUTPUT
000287:
000288:                                                                                                  #        (1) TRKMKCNT NUMBER OF MARKS
000289:                                                                                                  #        (2) TTOGO    TIME TO GO
000290:                                                                                                  #        (3) +MGA     MIDDLE GIMBAL ANGLE
000291:                                                                                                  #        (4) DELVLVC  DELTA VELOCITY AT MID - LOCAL VERTICAL COORDINATES
000292:
000293:                                                                                                  #  SUBROUTINES USED
000294:
000295:                                                                                                  #        AVFLAGA
000296:                                                                                                  #        AVFLAGP
000297:                                                                                                  #        LOADTIME
000298:                                                                                                  #        SELECTMU
000299:                                                                                                  #        PRECSET
000300:                                                                                                  #        S34/35.1
000301:                                                                                                  #        MAINRTNE
000302:
000303: 04,3324           04555        P39                TC       BANKCALL
000304: 04,3325           73726                           CADR     AVFLAGA                               #  THIS VEHICLE ACTIVE
000305: 04,3326           00006                           EXTEND
000306: 04,3327           31422                           DCA      ATIGINC
000307: 04,3330           03335                           TC       P39/P79A
000308: 04,3331           04555        P79                TC       BANKCALL
000309: 04,3332           73741                           CADR     AVFLAGP                               #  OTHER VEHICLE ACTIVE
000310: 04,3333           00006                           EXTEND
000311: 04,3334           31424                           DCA      PTIGINC
000312: 04,3335           53764        P39/P79A           DXCH     KT                                    #  TIME TO PREPARE FOR BURN
000313: 04,3336           04555                           TC       BANKCALL
000314: 04,3337           73746                           CADR     P20FLGON                              #  SET UPDATFLG, TRACKFLG
000315: 04,3340           06006                           TC       INTPRET
000316: 04,3341           45014                           SET      CALL
000317: 04,3342           04066                                    P39/79SW
000318: 04,3343           10716                                    SELECTMU                              #  SELECT MU, CLEAR FINALFLG, GO TO VN1645
000319: 04,3344           43234        P39/P79B           RTB      DAD
000320: 04,3345           45505                                    LOADTIME
000321: 04,3346           02364                                    KT
000322: 04,3347           03413                           STORE    TIG                                   #  TIG = T (PRESENT) + PREPARATION TIME


000324: 04,3350           34041                           STCALL   TDEC1                                 #  PRECISION UPDATE ACTIVE AND PASSIVE
000325: 04,3351           45354                                    PRECSET                               #     VEHICLES TO TIG
000326: 04,3352           77624                           CALL
000327: 04,3353           72522                                    S34/35.1                              #  GET UNIT NORMAL
000328: 04,3354           52145                           DLOAD    GOTO
000329: 04,3355           02615                                    TARGTIME
000330: 04,3356           11237                                    MAINRTNE                              #  CALCULATE DELTA V AND DELTA V (LV)
000331:                                                                                                  #  .... PREC/TT ....
000332:                                                                                                  #  SUBROUTINES USED
000333:
000334:                                                                                                  #        PRECSET
000335:                                                                                                  #        TIMETHET
000336:                                                                                                  #        S34/35.1
000337:
000338: 04,3357           71220        PREC/TT            STQ      DLOAD
000339: 04,3360           02367                                    RTRN
000340: 04,3361           03413                                    TIG
000341: 04,3362           34041                           STCALL   TDEC1                                 #  PRECISION UPDATE ACTIVE AND PASSIVE
000342: 04,3363           45354                                    PRECSET                               #     VEHICLES TO TIG
000343: 04,3364           53775                           VLOAD    VSR*
000344: 04,3365           03554                                    RPASS3
000345: 04,3366           57176                                    0,2
000346: 04,3367           16657                           STODL    RVEC
000347: 04,3370           03754                                    CENTANG
000348: 04,3371           71406                           PUSH     COS
000349: 04,3372           16734                           STODL    CSTH
000350: 04,3373           43156                           SIN      SET
000351: 04,3374           03466                                    RVSW
000352: 04,3375           26732                           STOVL    SNTH
000353: 04,3376           03562                                    VPASS3
000354: 04,3377           77657                           VSR*
000355: 04,3400           57176                                    0,2
000356: 04,3401           36746                           STCALL   VVEC                                  #  GET TRANSFER TIME BASED ON CENTANG OF
000357: 04,3402           24737                                    TIMETHET                              #     PASSIVE VEHICLE
000358: 04,3403           77624                           CALL
000359: 04,3404           72522                                    S34/35.1                              #  GET UNIT NORMAL
000360: 04,3405           52145                           DLOAD    GOTO
000361: 04,3406           00037                                    T
000362: 04,3407           02367                                    RTRN
000363:                                                                                                  #  .... INTRPVP ....
000364:                                                                                                  #  SUBROUTINES USED
000365:
000366:                                                                                                  #        CSMPREC
000367:                                                                                                  #        LEMPREC
000368:
000369: 04,3410           43020        INTRPVP            STQ      BOFF                                  #  PRECISION UPDATE PASSIVE VEHICLE TO
000370: 04,3411           02367                                    RTRN                                  #     TDEC1
000371: 04,3412           01352                                    AVFLAG
000372: 04,3413           11420                                    OTHERV
000373: 04,3414           77624                           CALL


000375: 04,3415           27022                                    CSMPREC
000376: 04,3416           77650                           GOTO
000377: 04,3417           02367                                    RTRN
000378: 04,3420           77624        OTHERV             CALL
000379: 04,3421           27036                                    LEMPREC
000380: 04,3422           77650                           GOTO
000381: 04,3423           02367                                    RTRN
000382:                                                                                                  #  .... VNDSPLY ....
000383:                                                                                                  #  SUBROUTINES USED
000384:
000385:                                                                                                  #        BANKCALL
000386:                                                                                                  #        GOFLASH
000387:                                                                                                  #        GOTOPOOH
000388:
000389: 04,3424           00006        VNDSPLY            EXTEND                                         #  FLASH DISPLAY
000390: 04,3425           23767                           QXCH     RTRN
000391: 04,3426           55765                           TS       VERBNOUN
000392: 04,3427           31765                           CA       VERBNOUN
000393: 04,3430           04555                           TCR      BANKCALL
000394: 04,3431           20624                           CADR     GOFLASH
000395: 04,3432           14106                           TCF      GOTOPOOH                              #  TERMINATE
000396: 04,3433           01767                           TC       RTRN                                  #  PROCEED
000397: 04,3434           13427                           TCF      -5                                    #  RECYCLE
000398: 04,3435           01441        V06N33SR           VN       0633
000399: 04,3436           01467        V06N55SR           VN       0655
000400: 04,3437           01006        V04N06SR           VN       0406
000401: 04,3440           01471        V06N57SR           VN       0657
000402: 04,3441           01442        V06N34SR           VN       0634
000403: 04,3442           01472        V06N58SR           VN       0658
000404: 04,3443           01521        V06N81SR           VN       0681

End of include-file STABLE_ORBIT_-_P38-P39.agc.  Parent file is MAIN.agc


