
Source Code


000002:                                                                                                 #  Copyright:     Public domain.
000003:                                                                                                 #  Filename:      STABLE_ORBIT_-_P38-P39.agc
000004:                                                                                                 #  Purpose:       Part of the source code for Colossus build 237.
000005:                                                                                                 #                 This is for the Command Module's (CM) Apollo Guidance
000006:                                                                                                 #                 Computer (AGC), we believe for Apollo 8.
000007:                                                                                                 #  Assembler:     yaYUL
000008:                                                                                                 #  Contact:       Onno Hommes <ohommes@alumni.cmu.edu>
000009:                                                                                                 #  Website:       www.ibiblio.org/apollo/index.html
000010:                                                                                                 #  Page scans:    www.ibiblio.org/apollo/ScansForConversion/Colossus237/
000011:                                                                                                 #  Mod history:   2010-06-03 OH   Adapted from corresponding Colossus 249 file.
000012:                                                                                                 #                 2010-12-04 JL   Remove Colossus 249 header comments. Change to double-has page numbers.
000013:                                                                                                 #                 2011-02-06 JL   Minor fixes.
000014:
000015:                                                                                                 # # Page 514
000016:                                                                                                 #  STABLE ORBIT RENDEZVOUS PROGRAMS (P38 AND P78)
000017:
000018:                                                                                                 #  MOD NO -1          LOG SECTION - STABLE ORBIT - P38-P39
000019:                                                                                                 #  MOD BY RUDNICKI.S  DATE 25JAN68
000020:
000021:                                                                                                 #  FUNCTIONAL DESCRIPTION
000022:
000023:                                                                                                 #         P38 AND P78 CALCULATE THE REQUIRED DELTA V AND OTHER INITIAL
000024:                                                                                                 #         CONDITIONS REQUIRED BY THE AGC TO (1) PUT THE ACTIVE VEHICLE
000025:                                                                                                 #         ON A TRANSFER TRAJECTORY THAT INTERCEPTS THE PASSIVE VEHICLE
000026:                                                                                                 #         ORBIT A GIVEN DISTANCE, DELTA R, EITHER AHEAD OF OR BEHIND THE
000027:                                                                                                 #         PASSIVE VEHICLE AND (2) ACTUALLY PLACE THE ACTIVE VEHICLE IN THE
000028:                                                                                                 #         PASSIVE VEHICLE ORBIT WITH A DELTA R SEPARATION BETWEEN THE TWO
000029:                                                                                                 #         VEHICLES
000030:
000031:                                                                                                 #  CALLING SEQUENCE
000032:
000033:                                                                                                 #         ASTRONAUT REQUEST THRU DSKY
000034:
000035:                                                                                                 #         V37E38E   IF THIS VEHICLE IS ACTIVE VEHICLE
000036:                                                                                                 #         V37E78E   IF OTHER VEHICLE IS ACTIVE VEHICLE
000037:
000038:                                                                                                 #  INPUT
000039:
000040:                                                                                                 #         (1) SOI MANEUVER
000041:
000042:                                                                                                 #                 (A) TIG      TIME OF SOI MANEUVER
000043:                                                                                                 #                 (B) CENTANG  ORBITAL CENTRAL ANGLE OF THE PASSIVE VEHICLE
000044:                                                                                                 #                             DURING THE TRANSFER FROM TIG TO TIME OF INTERCEPT
000045:                                                                                                 #                 (C) DELTAR   THE DESIRED SEPARATION OF THE TWO VEHICLES
000046:                                                                                                 #                             SPECIFIED AS A DISTANCE ALONG THE PASSIVE VEHICLE
000047:                                                                                                 #                             ORBIT
000048:                                                                                                 #                 (D) OPTION   EQUALS 1 FOR SOI
000049:
000050:                                                                                                 #         (2) SOR MANEUVER
000051:
000052:                                                                                                 #                 (A) TIG      TIME OF SOR MANEUVER
000053:                                                                                                 #                 (B) CENTANG  AN OPTIONAL RESPECIFICATION OF 1 (B) ABOVE
000054:                                                                                                 #                 (C) OPTION   EQUALS 2 FOR SOR
000055:                                                                                                 #                 (D) DELTTIME THE TIME REQUIRED TO TRAVERSE DELTA R WHEN
000056:                                                                                                 #                             TRAVELING AT A VELOCITY EQUAL TO THE HORIZONTAL
000057:                                                                                                 #                             VELOCITY OF THE PASSIVE VEHICLE - SAVED FROM
000058:                                                                                                 #                             SOI PHASE
000059:                                                                                                 #                 (E) TINT     TIME OF INTERCEPT (SOI) - SAVED FROM SOI PHASE
000060:
000061:                                                                                                 #  OUTPUT
000062:
000063:                                                                                                 #         (1) TRKMKCNT NUMBER OF MARKS
000064:                                                                                                 #         (2) TTOGO    TIME TO GO
000065:                                                                                                 #         (3) +MGA     MIDDLE GIMBAL ANGLE
000066:                                                                                                 # # Page 515
000067:                                                                                                 #         (4) DSPTEM1  TIME OF INTERCEPT OF PASSIVE VEHICLE ORBIT
000068:                                                                                                 #                     (FOR SOI ONLY)
000069:                                                                                                 #         (5) POSTTPI  PERIGEE ALTITUDE OF ACTIVE VEHICLE ORBIT AFTER
000070:                                                                                                 #                     THE SOI (SOR) MANEUVER
000071:                                                                                                 #         (6) DELVTPI  MAGNITUDE OF DELTA V AT SOI (SOR) TIME
000072:                                                                                                 #         (7) DELVTPF  MAGNITUDE OF DELTA V AT INTERCEPT TIME
000073:                                                                                                 #         (8) DELTA    VELOCITY AT SOI (AND SOR) - LOCAL VERTICAL
000074:                                                                                                 #                     COORDINATES
000075:
000076:                                                                                                 #  SUBROUTINE USED
000077:
000078:                                                                                                 #         AVFLAGA
000079:                                                                                                 #         AVFLAGP
000080:                                                                                                 #         VNDSPLY
000081:                                                                                                 #         BANKCALL
000082:                                                                                                 #         GOFLASHR
000083:                                                                                                 #         GOTOPOOH
000084:                                                                                                 #         BLANKET
000085:                                                                                                 #         ENDOFJOB
000086:                                                                                                 #         PREC/TT
000087:                                                                                                 #         SELECTMU
000088:                                                                                                 #         INTRPVP
000089:                                                                                                 #         MAINRTNE
000090:
000091: 04,3103                                          BANK     04
000092: 04,2000                                          SETLOC   STBLEORB
000093: 04,2000                                          BANK
000094:
000095: 04,3103  E4,1770                                 EBANK=   SUBEXIT
000096: 04,3103                                          COUNT*   $$/P3879
000097:
000098: 04,3103           04555        P38               TC       BANKCALL
000099: 04,3104           73726                          CADR     AVFLAGA                               #  THIS VEHICLE ACTIVE
000100: 04,3105           03110                          TC       +3
000101: 04,3106           04555        P78               TC       BANKCALL
000102: 04,3107           73741                          CADR     AVFLAGP                               #  OTHER VEHICLE ACTIVE
000103: 04,3110           04555                          TC       BANKCALL
000104: 04,3111           73746                          CADR     P20FLGON                              #  SET UPDATFLG, TRACKFLG
000105: 04,3112           33435                          CAF      V06N33SR                              #  DISPLAY TIG
000106: 04,3113           03424                          TC       VNDSPLY
000107: 04,3114           33436                          CAF      V06N55SR                              #  DISPLAY CENTANG
000108: 04,3115           04555                          TCR      BANKCALL
000109: 04,3116           20763                          CADR     GOFLASHR
000110: 04,3117           14106                          TCF      GOTOPOOH                              #  TERMINATE
000111: 04,3120           13125                          TCF      +5                                    #  PROCEED
000112: 04,3121           13114                          TCF      -5                                    #  RECYCLE
000113: 04,3122           36214                          CAF      THREE                                 #  IMMEDIATE RETURN - BLANK R1, R2
000114: 04,3123           05415                          TCR      BLANKET
000115: 04,3124           15112                          TCF      ENDOFJOB
000116: 04,3125           34715                          CAF      FIVE
000117:                                                                                                 # # Page 516
000118: 04,3126           55131                          TS       OPTION1
000119: 04,3127           34712                          CAF      ONE
000120: 04,3130           55132                          TS       OPTION2                               #  OPTION CODE IS SET TO 1
000121: 04,3131           33437                          CAF      V04N06SR                              #  DISPLAY OPTION CODE - 1 = SOI, 2 = SOR
000122: 04,3132           04555                          TCR      BANKCALL
000123: 04,3133           20763                          CADR     GOFLASHR
000124: 04,3134           14106                          TCF      GOTOPOOH                              #  TERMINATE
000125: 04,3135           13142                          TCF      +5                                    #  PROCEED
000126: 04,3136           13131                          TCF      -5                                    #  RECYCLE
000127: 04,3137           34710                          CAF      BIT3                                  #  IMMEDIATE RETURN - BLANK R3
000128: 04,3140           05415                          TCR      BLANKET
000129: 04,3141           15112                          TCF      ENDOFJOB
000130: 04,3142           06006                          TC       INTPRET
000131: 04,3143           70535                          SLOAD    SR1
000132: 04,3144           01133                                   OPTION2
000133: 04,3145           71230                          BHIZ     DLOAD
000134: 04,3146           11154                                   OPTN1
000135: 04,3147           03656                                   TINT
000136: 04,3150           02611                          STORE    TINTSOI                               #  STORE FOR SOR PHASE
000137: 04,3151           77614                          CLRGO
000138: 04,3152           01230                                   OPTNSW                                #  OPTNSW; ON = SOI, OFF = SOR
000139: 04,3153           11200                                   JUNCTN1
000140: 04,3154           45014        OPTN1             SET      CALL                                  #  SOI
000141: 04,3155           01070                                   OPTNSW
000142: 04,3156           11357                                   PREC/TT
000143: 04,3157           77615                          DAD
000144: 04,3160           03413                                   TIG
000145: 04,3161           03656                          STORE    TINT                                  #  TI = TIG + TF
000146: 04,3162           01046                          STORE    DSPTEM1                               #  FOR DISPLAY
000147: 04,3163           77776                          EXIT
000148: 04,3164           33440                          CAF      V06N57SR                              #  DISPLAY DELTA R
000149: 04,3165           04555                          TCR      BANKCALL
000150: 04,3166           20763                          CADR     GOFLASHR
000151: 04,3167           14106                          TCF      GOTOPOOH                              #  TERMINATE
000152: 04,3170           13175                          TCF      +5                                    #  PROCEED
000153: 04,3171           13164                          TCF      -5                                    #  RECYCLE
000154: 04,3172           36211                          CAF      SIX                                   #  IMMEDIATE RETURN - BLANK R2, R3
000155: 04,3173           05415                          TCR      BLANKET
000156: 04,3174           15112                          TCF      ENDOFJOB
000157: 04,3175           33441                          CAF      V06N34SR                              #  DISPLAY TIME OF INTERCEPT
000158: 04,3176           03424                          TC       VNDSPLY
000159: 04,3177           06006                          TC       INTPRET
000160: 04,3200           45014        JUNCTN1           CLEAR    CALL
000161: 04,3201           04266                                   P39/79SW
000162: 04,3202           10716                                   SELECTMU                              #  SELECT MU, CLEAR FINALFLG, GO TO VN1645
000163: 04,3203           77624        RECYCLE           CALL
000164: 04,3204           11357                                   PREC/TT
000165: 04,3205           71214                          BOFF     DLOAD
000166: 04,3206           01350                                   OPTNSW
000167: 04,3207           11227                                   OPTN2
000168:                                                                                                 # # Page 517
000169: 04,3210           03656                                   TINT
000170: 04,3211           34041                          STCALL   TDEC1                                 #  PRECISION UPDATE PASSIVE VEHICLE TO
000171: 04,3212           11410                                   INTRPVP                               #     INTERCEPT TIME
000172: 04,3213           53575                          VLOAD    UNIT
000173: 04,3214           00001                                   RATT                                  #  RP/(RP)
000174: 04,3215           47315                          PDVL     VXV
000175: 04,3216           00007                                   VATT
000176: 04,3217           60246                          ABVAL    NORM                                  #  (VP X RP/(RP))
000177: 04,3220           00047                                   X1
000178: 04,3221           56325                          PDDL     DDV
000179: 04,3222           02611                                   DELTAR
000180: 04,3223           77657                          SL*                                            #  DELTA R / (VP X RP/RP)
000181: 04,3224           20172                                   0          -7,1
000182: 04,3225           36613                          STCALL   DELTTIME                              #  DELTA T = (RP) DELTA R / (VP X RP)
000183: 04,3226           11233                                   JUNCTN2
000184: 04,3227           43345        OPTN2             DLOAD    DAD
000185: 04,3230           02611                                   TINTSOI
000186: 04,3231           00037                                   T
000187: 04,3232           03656                          STORE    TINT                                  #  TI = TI + TF
000188: 04,3233           45345        JUNCTN2           DLOAD    DSU
000189: 04,3234           03656                                   TINT
000190: 04,3235           02613                                   DELTTIME
000191: 04,3236           02615                          STORE    TARGTIME                              #  TT = TI - DELTA T
000192:                                                                                                 #  .... MAINRTNE ....
000193:                                                                                                 #  SUBROUTINES USED
000194:
000195:                                                                                                 #         S3435.25
000196:                                                                                                 #         PERIAPO1
000197:                                                                                                 #         SHIFTR1
000198:                                                                                                 #         VNDSPLY
000199:                                                                                                 #         BANKCALL
000200:                                                                                                 #         GOFLASH
000201:                                                                                                 #         GOTOPOOH
000202:                                                                                                 #         VN1645
000203:
000204: 04,3237           34041        MAINRTNE          STCALL   TDEC1                                 #  PRECISION UPDATE PASSIVE VEHICLE TO
000205: 04,3240           11410                                   INTRPVP                               #     TARGET TIME
000206: 04,3241           77745                          DLOAD
000207: 04,3242           03413                                   TIG
000208: 04,3243           03503                          STORE    INTIME
000209: 04,3244           77331                          SSP      VLOAD
000210: 04,3245           02371                                   SUBEXIT
000211: 04,3246           11252                                   TEST3979
000212: 04,3247           00001                                   RATT
000213: 04,3250           77624                          CALL
000214: 04,3251           72547                                   S3435.25
000215: 04,3252           43014        TEST3979          BOFF     BON
000216: 04,3253           04346                                   P39/79SW
000217: 04,3254           11263                                   MAINRTN1
000218: 04,3255           01311                                   FINALFLG
000219:                                                                                                 # # Page 518
000220: 04,3256           11261                                   P39P79
000221: 04,3257           77614                          SET
000222: 04,3260           00470                                   UPDATFLG
000223: 04,3261           77776        P39P79            EXIT
000224: 04,3262           03310                          TC       DSPLY81                               #  FOR P39 AND P79
000225: 04,3263           51575        MAINRTN1          VLOAD    ABVAL
000226: 04,3264           03646                                   DELVEET3
000227: 04,3265           26635                          STOVL    DELVTPI                               #  DELTA V
000228: 04,3266           03640                                   VPASS4
000229: 04,3267           51451                          VSU      ABVAL
000230: 04,3270           03620                                   VTPRIME
000231: 04,3271           26637                          STOVL    DELVTPF                               #  DELTA V (FINAL) = V'T - VT
000232: 04,3272           03540                                   RACT3
000233: 04,3273           45115                          PDVL     CALL
000234: 04,3274           03612                                   VIPRIME
000235: 04,3275           45312                                   PERIAPO1                              #  GET PERIGEE ALTITUDE
000236: 04,3276           77624                          CALL
000237: 04,3277           45422                                   SHIFTR1
000238: 04,3300           02641                          STORE    POSTTPI
000239: 04,3301           43014                          BON      SET
000240: 04,3302           01311                                   FINALFLG
000241: 04,3303           11305                                   DSPLY58
000242: 04,3304           00470                                   UPDATFLG
000243: 04,3305           77776        DSPLY58           EXIT
000244: 04,3306           33442                          CAF      V06N58SR                              #  DISPLAY HP, DELTA V, DELTA V (FINAL)
000245: 04,3307           03424                          TC       VNDSPLY
000246: 04,3310           33443        DSPLY81           CAF      V06N81SR                              #  DISPLAY DELTA V (LV)
000247: 04,3311           03424                          TC       VNDSPLY
000248: 04,3312           06006                          TC       INTPRET
000249: 04,3313           77214                          CLEAR    VLOAD
000250: 04,3314           01267                                   XDELVFLG
000251: 04,3315           03646                                   DELVEET3
000252: 04,3316           37646                          STCALL   DELVSIN
000253: 04,3317           73005                                   VN1645                                #  DISPLAY TRKMKCNT, TTOGO, +MGA
000254: 04,3320           52014                          BON      GOTO
000255: 04,3321           04306                                   P39/79SW
000256: 04,3322           11344                                   P39/P79B
000257: 04,3323           11203                                   RECYCLE
000258:                                                                                                 #  STABLE ORBIT MIDCOURSE PROGRAM (P39 AND P79)
000259:
000260:                                                                                                 #  MOD NO -1          LOG SECTION - STABLE ORBIT - P38-P39
000261:                                                                                                 #  MOD BY RUDNICKI.S  DATE 25JAN68
000262:
000263:                                                                                                 #  FUNCTIONAL DESCRIPTION
000264:
000265:                                                                                                 #         P39 AND P79 CALCULATE THE REQUIRED DELTA V AND OTHER INITIAL
000266:                                                                                                 #         CONDITIONS REQUIRED BY THE AGC TO MAKE A MIDCOURSE CORRECTION
000267:                                                                                                 #         MANEUVER AFTER COMPLETING THE SOI MANEUVER BUT BEFORE MAKING
000268:                                                                                                 #         THE SOR MANEUVER.
000269:
000270:                                                                                                 # # Page 519
000271:                                                                                                 #  CALLING SEQUENCE
000272:
000273:                                                                                                 #         ASTRONAUT REQUEST THRU DSKY
000274:
000275:                                                                                                 #         V37E39E   IF THIS VEHICLE IS ACTIVE VEHICLE
000276:                                                                                                 #         V37E79E   IF OTHER VEHICLE IS ACTIVE VEHICLE
000277:
000278:                                                                                                 #  INPUT
000279:
000280:                                                                                                 #         (1) TPASS4   TIME OF INTERCEPT - SAVED FROM P38/P78
000281:                                                                                                 #         (2) TARGTIME TIME THAT PASSIVE VEHICLE IS AT INTERCEPT POINT -
000282:                                                                                                 #                     SAVED FROM P38/P78
000283:
000284:                                                                                                 #  OUTPUT
000285:
000286:                                                                                                 #         (1) TRKMKCNT NUMBER OF MARKS
000287:                                                                                                 #         (2) TTOGO    TIME TO GO
000288:                                                                                                 #         (3) +MGA     MIDDLE GIMBAL ANGLE
000289:                                                                                                 #         (4) DELVLVC  DELTA VELOCITY AT MID - LOCAL VERTICAL COORDINATES
000290:
000291:                                                                                                 #  SUBROUTINES USED
000292:
000293:                                                                                                 #         AVFLAGA
000294:                                                                                                 #         AVFLAGP
000295:                                                                                                 #         LOADTIME
000296:                                                                                                 #         SELECTMU
000297:                                                                                                 #         PRECSET
000298:                                                                                                 #         S34/35.1
000299:                                                                                                 #         MAINRTNE
000300:
000301: 04,3324           04555        P39               TC       BANKCALL
000302: 04,3325           73726                          CADR     AVFLAGA                               #  THIS VEHICLE ACTIVE
000303: 04,3326           00006                          EXTEND
000304: 04,3327           31422                          DCA      ATIGINC
000305: 04,3330           03335                          TC       P39/P79A
000306: 04,3331           04555        P79               TC       BANKCALL
000307: 04,3332           73741                          CADR     AVFLAGP                               #  OTHER VEHICLE ACTIVE
000308: 04,3333           00006                          EXTEND
000309: 04,3334           31424                          DCA      PTIGINC
000310: 04,3335           53764        P39/P79A          DXCH     KT                                    #  TIME TO PREPARE FOR BURN
000311: 04,3336           04555                          TC       BANKCALL
000312: 04,3337           73746                          CADR     P20FLGON                              #  SET UPDATFLG, TRACKFLG
000313: 04,3340           06006                          TC       INTPRET
000314: 04,3341           45014                          SET      CALL
000315: 04,3342           04066                                   P39/79SW
000316: 04,3343           10716                                   SELECTMU                              #  SELECT MU, CLEAR FINALFLG, GO TO VN1645
000317: 04,3344           43234        P39/P79B          RTB      DAD
000318: 04,3345           45505                                   LOADTIME
000319: 04,3346           02364                                   KT
000320: 04,3347           03413                          STORE    TIG                                   #  TIG = T (PRESENT) + PREPARATION TIME
000321:                                                                                                 # # Page 520
000322: 04,3350           34041                          STCALL   TDEC1                                 #  PRECISION UPDATE ACTIVE AND PASSIVE
000323: 04,3351           45354                                   PRECSET                               #     VEHICLES TO TIG
000324: 04,3352           77624                          CALL
000325: 04,3353           72522                                   S34/35.1                              #  GET UNIT NORMAL
000326: 04,3354           52145                          DLOAD    GOTO
000327: 04,3355           02615                                   TARGTIME
000328: 04,3356           11237                                   MAINRTNE                              #  CALCULATE DELTA V AND DELTA V (LV)
000329:                                                                                                 #  .... PREC/TT ....
000330:                                                                                                 #  SUBROUTINES USED
000331:
000332:                                                                                                 #         PRECSET
000333:                                                                                                 #         TIMETHET
000334:                                                                                                 #         S34/35.1
000335:
000336: 04,3357           71220        PREC/TT           STQ      DLOAD
000337: 04,3360           02367                                   RTRN
000338: 04,3361           03413                                   TIG
000339: 04,3362           34041                          STCALL   TDEC1                                 #  PRECISION UPDATE ACTIVE AND PASSIVE
000340: 04,3363           45354                                   PRECSET                               #     VEHICLES TO TIG
000341: 04,3364           53775                          VLOAD    VSR*
000342: 04,3365           03554                                   RPASS3
000343: 04,3366           57176                                   0,2
000344: 04,3367           16657                          STODL    RVEC
000345: 04,3370           03754                                   CENTANG
000346: 04,3371           71406                          PUSH     COS
000347: 04,3372           16734                          STODL    CSTH
000348: 04,3373           43156                          SIN      SET
000349: 04,3374           03466                                   RVSW
000350: 04,3375           26732                          STOVL    SNTH
000351: 04,3376           03562                                   VPASS3
000352: 04,3377           77657                          VSR*
000353: 04,3400           57176                                   0,2
000354: 04,3401           36746                          STCALL   VVEC                                  #  GET TRANSFER TIME BASED ON CENTANG OF
000355: 04,3402           24737                                   TIMETHET                              #     PASSIVE VEHICLE
000356: 04,3403           77624                          CALL
000357: 04,3404           72522                                   S34/35.1                              #  GET UNIT NORMAL
000358: 04,3405           52145                          DLOAD    GOTO
000359: 04,3406           00037                                   T
000360: 04,3407           02367                                   RTRN
000361:                                                                                                 #  .... INTRPVP ....
000362:                                                                                                 #  SUBROUTINES USED
000363:
000364:                                                                                                 #         CSMPREC
000365:                                                                                                 #         LEMPREC
000366:
000367: 04,3410           43020        INTRPVP           STQ      BOFF                                  #  PRECISION UPDATE PASSIVE VEHICLE TO
000368: 04,3411           02367                                   RTRN                                  #     TDEC1
000369: 04,3412           01352                                   AVFLAG
000370: 04,3413           11420                                   OTHERV
000371: 04,3414           77624                          CALL
000372:                                                                                                 # # Page 521
000373: 04,3415           27022                                   CSMPREC
000374: 04,3416           77650                          GOTO
000375: 04,3417           02367                                   RTRN
000376: 04,3420           77624        OTHERV            CALL
000377: 04,3421           27036                                   LEMPREC
000378: 04,3422           77650                          GOTO
000379: 04,3423           02367                                   RTRN
000380:                                                                                                 #  .... VNDSPLY ....
000381:                                                                                                 #  SUBROUTINES USED
000382:
000383:                                                                                                 #         BANKCALL
000384:                                                                                                 #         GOFLASH
000385:                                                                                                 #         GOTOPOOH
000386:
000387: 04,3424           00006        VNDSPLY           EXTEND                                         #  FLASH DISPLAY
000388: 04,3425           23767                          QXCH     RTRN
000389: 04,3426           55765                          TS       VERBNOUN
000390: 04,3427           31765                          CA       VERBNOUN
000391: 04,3430           04555                          TCR      BANKCALL
000392: 04,3431           20624                          CADR     GOFLASH
000393: 04,3432           14106                          TCF      GOTOPOOH                              #  TERMINATE
000394: 04,3433           01767                          TC       RTRN                                  #  PROCEED
000395: 04,3434           13427                          TCF      -5                                    #  RECYCLE
000396: 04,3435           01441        V06N33SR          VN       0633
000397: 04,3436           01467        V06N55SR          VN       0655
000398: 04,3437           01006        V04N06SR          VN       0406
000399: 04,3440           01471        V06N57SR          VN       0657
000400: 04,3441           01442        V06N34SR          VN       0634
000401: 04,3442           01472        V06N58SR          VN       0658
000402: 04,3443           01521        V06N81SR          VN       0681

End of include-file STABLE_ORBIT_-_P38-P39.agc.  Parent file is MAIN.agc


