
Source Code


000002:                                                                                                  ## Copyright:   Public domain.
000003:                                                                                                  ## Filename:    SXTMARK.agc
000004:                                                                                                  ## Purpose:     Part of the source code for Colossus build 237.
000005:                                                                                                  ##              This is for the Command Module's (CM) Apollo Guidance
000006:                                                                                                  ##              Computer (AGC), for Apollo 8.
000007:                                                                                                  ## Assembler:   yaYUL
000008:                                                                                                  ## Contact:     Jim Lawton <jim DOT lawton AT gmail DOT com>
000009:                                                                                                  ## Website:     www.ibiblio.org/apollo/index.html
000010:                                                                                                  ## Page Scans:  www.ibiblio.org/apollo/ScansForConversion/Colossus237/
000011:                                                                                                  ## Mod history: 2011-01-13 JL   Adapted from corresponding Colossus 249 file.
000012:                                                                                                  ##              2016-12-30 RSB  Proofed comment text using octopus/ProoferComments,
000013:                                                                                                  ##                              and corrected errors found.
000014:


000016:
000017:                                                                                                  #  PROGRAM NAME - SXTMARK                                DATE- 5 APRIL 1967
000018:                                                                                                  #  PROGRAM MODIFIED BY 258/278 PROGRAMMERS              LOG SECTION SXTMARK
000019:                                                                                                  #  MOD BY- R. MELANSON TO ADD DOCUMENTATION       ASSEMBLY SUNDISK REV. 116
000020:                                                                                                  #
000021:                                                                                                  #  FUNCTIONAL DESCRIPTION-
000022:                                                                                                  #     SXTMARK IS CALLED FROM INTERNAL ROUTINES WHICH MAY REQUIRE STAR OR LANDMARK MARKINGS BY THE ASTRONAUT. IF
000023:                                                                                                  #     THE MARK SYSTEM IS NOT IN USE, SXTMARK RESERVES A VAC AREA FOR MARKING AND REQUESTS EXECUTIONOF THE MKVB51
000024:                                                                                                  #     ROUTINE VIA THE EXECUTIVE JOB PRIORITY LIST. R21 USES THIS ROUTINE TO DETERMINE IF THE MARK SYSTEM CAN BE
000025:                                                                                                  #     USED. IF YES, SXTMARK RETURNS TO R21 TO PERFORM ITS OWN MARK REQUESTS VIA THE V51 FLASH.
000026:
000027:                                                                                                  #  CALLING SEQUENCE-
000028:
000029:                                                                                                  #     CAF    (NO. MARK REQUESTS IN BITS 1-3 OF A)
000030:                                                                                                  #     TC     BANKCALL
000031:                                                                                                  #     CADR   SXTMARK
000032:
000033:                                                                                                  #  NORMAL EXIT MODE-
000034:                                                                                                  #     SWRETURN
000035:
000036:                                                                                                  #  ALARM OR ABORT EXIT MODE-
000037:                                                                                                  #     ABORT
000038:
000039:                                                                                                  #  OUTPUT-
000040:                                                                                                  #     1) MARKSTAT CONTAINS MARK VALUE (BITS 14-12) AND VAC AREA ADDRESS
000041:                                                                                                  #     2) QPRET = VAC AREA POINTER VALUE
000042:                                                                                                  #     3) 1ST WORD OF RESERVED VAC AREA SET TO +0
000043:                                                                                                  #     4) PRIO32 PLACED IN A REGISTER
000044:
000045:                                                                                                  #  ERASABLE INITIALIZATION-
000046:                                                                                                  #     1) BITS 1-3 OF A = NO. MARKS REQUESTED
000047:                                                                                                  #     2) BITS 2,3 OF EXTVBACT =0
000048:                                                                                                  #     3) A VAC AREA MUST BE AVAILABLE (WORD 1 = ADDRESS OF VAC AREA)
000049:
000050:                                                                                                  #  DEBRIS-
000051:                                                                                                  #     A,Q,L,RUPTREG1,MARKSTAT,QPRET,BIT2 OF EXTVBACT
000052:
000053: 13,2036                                           BANK     13
000054: 07,2000                                           SETLOC   SXTMARKE
000055: 07,2000                                           BANK
000056:
000057: 07,2002  E7,1725                                  EBANK=   MRKBUF1
000058: 07,2002                                           COUNT    07/SXTMK
000059:
000060: 07,2002           00004        SXTMARK            INHINT
000061: 07,2003           54070                           TS       RUPTREG1                              #  NUMBER OF MARKS WANTED
000062:
000063: 07,2004           36211                           CAF      SIX                                   #  BIT2 = MARKING SYSTEM IN USE
000064: 07,2005           71044                           MASK     EXTVBACT                              #  BIT3 = EXTENDED VERB IN PROGRESS
000065: 07,2006           10000                           CCS      A
000066: 07,2007           02013                           TC       MKABORT                               #  SET THEREFORE ABORT


000068: 07,2010           34711                           CAF      BIT2                                  #  NOT SET
000069: 07,2011           27044                           ADS      EXTVBACT                              #  SET IT, RESET IN ENDMARK
000070: 07,2012           02015                           TC       MARKOK                                #  YES, FIND VAC AREA
000071:
000072: 07,2013           05604        MKABORT            TC       BAILOUT
000073: 07,2014           01211                           OCT      01211
000074: 07,2015           10400        MARKOK             CCS      VAC1USE                               #  FIND VAC AREA
000075: 07,2016           02031                           TC       MKVACFND
000076: 07,2017           10454                           CCS      VAC2USE
000077: 07,2020           02031                           TC       MKVACFND
000078: 07,2021           10530                           CCS      VAC3USE
000079: 07,2022           02031                           TC       MKVACFND
000080: 07,2023           10604                           CCS      VAC4USE
000081: 07,2024           02031                           TC       MKVACFND
000082: 07,2025           10660                           CCS      VAC5USE
000083: 07,2026           02031                           TC       MKVACFND
000084: 07,2027           05604                           TC       BAILOUT
000085: 07,2030           01207                           OCT      01207
000086:
000087: 07,2031           64711        MKVACFND           AD       TWO                                   #  ADDRESS OF VAC AREA
000088: 07,2032           55330                           TS       MARKSTAT
000089: 07,2033           50000                           INDEX    A
000090: 07,2034           54052                           TS       QPRET                                 #  STORE NEXT AVAILABLE MARK SLOT
000091:
000092: 07,2035           34714                           CAF      ZERO                                  #  SHOW VAC AREA OCCUPIED
000093: 07,2036           51330                           INDEX    MARKSTAT
000094: 07,2037           53777                           TS       0          -1
000095:
000096: 07,2040           05253                           TC       CHECKMM                               #  BACKUP MARK ROUTINE USES SXTMARK
000097: 07,2041           00065                           MM       53         B-14
000098: 07,2042           12044                           TCF      +2
000099: 07,2043           14570                           TCF      SWRETURN
000100: 07,2044           05253                           TC       CHECKMM
000101: 07,2045           00066                           MM       54         B-14
000102: 07,2046           12050                           TCF      +2
000103: 07,2047           14570                           TCF      SWRETURN
000104: 07,2050           34677                           CAF      BIT12                                 #  DESIRED NUMBER OF MARKS IN 12-14
000105: 07,2051           00006                           EXTEND
000106: 07,2052           70070                           MP       RUPTREG1
000107: 07,2053           56001                           XCH      L
000108: 07,2054           27330                           ADS      MARKSTAT
000109:
000110: 07,2055           37667                           CAF      PRIO32                                #  ENTER MARK JOB
000111: 07,2056           05027                           TC       NOVAC
000112: 07,2057     1330                                  EBANK=   MARKSTAT
000113: 07,2057           02346 16062                     2CADR    MKVB51
000114:
000115: 07,2061           00003                           RELINT
000116: 07,2062           14570                           TCF      SWRETURN                              #  SAME AS MODEEXIT
000117:


000119:
000120:                                                                                                  #  PROGRAM NAME - MKRELEAS                               DATE- 5 APRIL 1967
000121:                                                                                                  #  PROGRAM MODIFIED BY 258/278 PROGRAMMERS              LOG SECTION SXTMARK
000122:                                                                                                  #  MOD BY- R. MELANSON TO ADD DOCUMENTATION       ASSEMBLY SUNDISK REV. 116
000123:
000124:                                                                                                  #  FUNCTIONAL DESCRIPTION-
000125:                                                                                                  #     MKRELEAS IS EXECUTED BY INTERNAL ROUTINES TO RELEASE THE MARK SYSTEM TO MAKE IT AVAILABLE TO OTHER INTERNAL
000126:                                                                                                  #     SYSTEM ROUTINES. IT ALSO CLEARS THE COARSE OPTICS FLAG BIT AND DISABLES THE OPTICS ERROR COUNTER.
000127:
000128:                                                                                                  #  CALLING SEQUENCE-
000129:
000130:                                                                                                  #     TC    BANKCALL
000131:                                                                                                  #     CADR MKRELEAS
000132:
000133:                                                                                                  #  NORMAL EXIT MODE-
000134:                                                                                                  #     SWRETURN
000135:
000136:                                                                                                  #  ALARM OR ABORT EXIT MODE- NONE
000137:
000138:                                                                                                  #  OUTPUT-
000139:                                                                                                  #     1) BIT9 OPTMODES SET TO 0
000140:                                                                                                  #     2) OPTIND SET TO -1
000141:                                                                                                  #     3) 1ST WORD OF VAC AREA SET TO VAC ADDRESS TO SIGNIFY AVAILABILITY.
000142:                                                                                                  #     4) MARKSTAT CLEARED
000143:                                                                                                  #     5) BIT2 CHANNEL 12 SET TO 0
000144:
000145:                                                                                                  #  ERASABLE INITIALIZATION- NONE
000146:
000147:                                                                                                  #  DEBRIS-
000148:                                                                                                  #     A,MARKSTAT,BIT9 OPTMODES,OPTIND,BIT2 CHANNEL 12
000149:
000150: 07,2063           34714        MKRELEAS           CAF      ZERO                                  #  SHOW MARK SYSTEM NOW AVAILABLE
000151: 07,2064           57330                           XCH      MARKSTAT
000152: 07,2065           10000                           CCS      A
000153: 07,2066           50000                           INDEX    A
000154: 07,2067           54000                           TS       0
000155: 07,2070           00004        MKRLEES            INHINT
000156: 07,2071           44702                           CS       BIT9                                  #  COARSE OPTICS RETURN FLAG.
000157: 07,2072           71331                           MASK     OPTMODES
000158: 07,2073           55331                           TS       OPTMODES
000159:
000160: 07,2074           37716                           CA       NEGONE
000161: 07,2075           55303                           TS       OPTIND                                #  KILL COARS OPTICS
000162:
000163: 07,2076           44711                           CS       BIT2                                  #  DISABLE OPTICS ERROR COUNTER
000164: 07,2077           00006                           EXTEND
000165: 07,2100           03012                           WAND     CHAN12
000166:
000167: 07,2101           00003                           RELINT
000168: 07,2102           04570                           TC       SWRETURN
000169:


000171:
000172:                                                                                                  #  PROGRAM NAME - MARKRUPT                                       DATE- 5 APRIL 1967
000173:                                                                                                  #  PROGRAM MODIFIED BY 258/278 PROGRAMMERS                       LOG SECTION SXTMARK
000174:                                                                                                  #  MOD BY- R. MELANSON TO ADD DOCUMENTATION                      ASSEMBLY SUNDISK REV. 116
000175:
000176:                                                                                                  #  FUNCTIONAL DESCRIPTION-
000177:                                                                                                  #     MARKRUPT STORES CDUS,OPTICS AND TIME AND TRANSFERS CONTROL TO THE MARKIT,MARK REJECT OR KEYCOM ROUTINES IF
000178:                                                                                                  #     BITS IN CHANNEL 16 ARE SET AS REQUIRED.
000179:
000180:                                                                                                  #  CALLING SEQUENCE-
000181:                                                                                                  #     ROUTINE ENTERED VIA KEYRUPT2 WHEN MARK,MARK REJECT OR DSKY KEYS DEPRESSED BY THE OPERATOR.
000182:
000183:                                                                                                  #  NORMAL EXIT MODE-
000184:                                                                                                  #     MARKIT, MKREJECT OR POSTJUMP ROUTINES (MARK, MARK REJECT OR DSKY CODE)
000185:
000186:                                                                                                  #  ALARM OR ABORT EXIT MODE-
000187:                                                                                                  #     ALARM AND RESUME
000188:
000189:                                                                                                  #  OUTPUT-
000190:                                                                                                  #     RUPTSTOR+5 = CDUT, RUPTSTOR+3 = CDUS, RUPTSTOR+2 = CDUY,
000191:                                                                                                  #     RUPTREG3 = CDUZ, RUPTSTOR+6 = CDUX, RUPTSTOR+1 AND SAMPTIME+1 =TIME1,
000192:                                                                                                  #     RUPTSTOR AND SAMPTIME = TIME2
000193:
000194:                                                                                                  #  ERASABLE INITIALIZATION-
000195:                                                                                                  #     CDUT,CDUS,CDUY,CDUZ,CDUX,TIME2,TIME1,CHANNEL 16 BITS 6,7 OR 1-5
000196:
000197:                                                                                                  #  DEBRIS-
000198:                                                                                                  #     A,QRUPT,RUPTREG3,SAMPTIME,SAMPTIME+1,RUPTSTOR TO RUPTSTOR+6 EXCEPT RUPTSTOR+4 (LOCATION 67)
000199:
000200: 07,2103           54016        MARKRUPT           TS       BANKRUPT                              #  STORE  CDUS AND OPTICS NOW
000201: 07,2104           30035                           CA       CDUT
000202: 07,2105           54362                           TS       MKCDUT
000203: 07,2106           30036                           CA       CDUS
000204: 07,2107           54360                           TS       MKCDUS
000205: 07,2110           30033                           CA       CDUY
000206: 07,2111           54357                           TS       MKCDUY
000207: 07,2112           30034                           CA       CDUZ
000208: 07,2113           54361                           TS       MKCDUZ
000209: 07,2114           30032                           CA       CDUX
000210: 07,2115           54363                           TS       MKCDUX
000211: 07,2116           00006                           EXTEND
000212: 07,2117           30025                           DCA      TIME2                                 #  GET TIME
000213: 07,2120           52356                           DXCH     MKT2T1
000214: 07,2121           00006                           EXTEND
000215: 07,2122           30356                           DCA      MKT2T1
000216: 07,2123           52014                           DXCH     SAMPTIME                              #  RUPT TIME FOR NOUN 65.
000217:
000218: 07,2124           56002                           XCH      Q
000219: 07,2125           54012                           TS       QRUPT
000220:
000221: 07,2126           34705                           CAF      BIT6                                  #  SEE IF MARK OR MKREJECT


000223: 07,2127           00006                           EXTEND
000224: 07,2130           02016                           RAND     NAVKEYIN
000225: 07,2131           10000                           CCS      A
000226: 07,2132           02427                           TC       MARKIT                                #  ITS A MARK
000227:
000228: 07,2133           34704                           CAF      BIT7                                  #  NOT A MARK, SEE IF MKREJECT
000229: 07,2134           00006                           EXTEND
000230: 07,2135           02016                           RAND     NAVKEYIN
000231: 07,2136           10000                           CCS      A
000232: 07,2137           02300                           TC       MKREJECT                              #  ITS A MARK REJECT
000233:
000234: 07,2140           34362        KEYCALL            CAF      OCT37                                 #  NOT MARK OR MKREJECT, SEE IF KEYCODE
000235: 07,2141           00006                           EXTEND
000236: 07,2142           02016                           RAND     NAVKEYIN
000237: 07,2143           00006                           EXTEND
000238: 07,2144           12147                           BZF      +3                                    #  IF NO INBITS
000239: 07,2145           04574                           TC       POSTJUMP
000240: 07,2146           17622                           CADR     KEYCOM                                #  IT,S A KEY CODE, NOT A MARK.
000241:
000242: 07,2147           05537                 +3        TC       ALARM                                 #  ALARM IF NO INBITS
000243: 07,2150           00113                           OCT      113
000244: 07,2151           05222                           TC       RESUME
000245:


000247:
000248:                                                                                                  #  PROGRAM NAME - MARKCONT                                 DATE- 19 SEPT 1967
000249:
000250:                                                                                                  #  PROGRAM MODIFIED BY 258/278 PROGRAMMERS                LOG SECTION SXTMARK
000251:                                                                                                  #  MOD BY- R. MELANSON TO ADD DOCUMENTATION         ASSEMBLY SUNDISK REV. 116
000252:
000253:                                                                                                  #  FUNCTIONAL DESCRIPTION-
000254:                                                                                                  #     MARKCONT IS USED TO PERFORM A SPECIAL MARK FUNCTION FOR R21, TO EXECUTE A SPECIAL DISPLAY OF OPTICS AND TIME OR
000255:                                                                                                  #       TO PERFORM A MARK OF A STAR OR LAND SIGHTING BASED UPON FLASHING V-N.
000256:
000257:                                                                                                  #  CALLING SEQUENCE-
000258:                                                                                                  #       FROM MARKDIF
000259:
000260:                                                                                                  #  NORMAL EXIT MODE-
000261:                                                                                                  #       TASKOVER
000262:
000263:                                                                                                  #  ALARM OR ABORT EXIT MODE-
000264:                                                                                                  #       ALARM AND TASKOVER
000265:
000266:                                                                                                  #  OUTPUT-
000267:                                                                                                  #     1) FOR R21-
000268:                                                                                                  #        EBANK=EBANK7
000269:                                                                                                  #        MRKBUF1 TO MRKBUF1+6 = TIME2,TIME1,CDUY,OPTICX,CDUZ,OPTICSY,CDUX OF CURRENT R21 MARK FUNCTION.
000270:                                                                                                  #        MRKBUF2 TO MRKBUF2+6 CONTAINS PREVIOUS R21 MARK VALUES.
000271:                                                                                                  #     2) FOR SPECIAL DISPLAY JOB-
000272:                                                                                                  #        RUPTREG1 AND MRKBUF1 = CDUS,RUPTREG2 AND MRKBUF1 +1 = CDUT.
000273:                                                                                                  #        RUPTREG3 AND MRKBUF1 +2 = TIME2,RUPTREG4 AND MRKBUF1 +3 = TIME1
000274:                                                                                                  #     3) FOR NORMAL MARKING-
000275:                                                                                                  #        DECREMENT BITS14-12 OF MARKSTAT BY 1,
000276:                                                                                                  #        BIT10 MARKSTAT SET TO 1,INCREMENT QPRET BY 7,
000277:                                                                                                  #        STORE TIME2,TIME1,CDUY,CDUS,CDUZ,CDUT AND CDUX IN VAC+1 TO VAC+7
000278:
000279:                                                                                                  #  ERASABLE INITIALIZATION-
000280:                                                                                                  #     1) FOR R21-
000281:                                                                                                  #        BIT14 OF STATE+2 =1, MRKBUF1 TO MRKBUF1+6, ITEMP1, RUPTREG3,
000282:                                                                                                  #        RUPTSTOR TO RUPTSTOR+6 EXCEPT RUPTSTOR+4
000283:                                                                                                  #     2) FOR SPECIAL DISPLAY JOB-
000284:                                                                                                  #        BIT14 OF STATE+2 =0,MARKSTAT =+0,RUPTREG1,RUPTREG2,RUPTREG3
000285:                                                                                                  #        RUPTREG4,RUPTSTOR,RUPTSTOR+1,RUPTSTOR+3,RUPTSTOR+5,
000286:                                                                                                  #        BIT12 OF STATE+5 (V59 FLAG),MRKBUF1 THRU MRKBUF1+3
000287:                                                                                                  #     3) FOR NORMAL MARKING-
000288:                                                                                                  #        BIT14 OF STATE+2 =0, MARKSTAT =VAC ADDRESS,A REG,ITEMP1,RUPTREG3,
000289:                                                                                                  #        RUPTSTOR TO RUPTSTOR+6 EXCEPT RUPTSTOR+4
000290:
000291:                                                                                                  #  DEBRIS-
000292:                                                                                                  #     1) FOR R21-
000293:                                                                                                  #        A,ITEMP1,MRKBUF1,MRKBUF2
000294:                                                                                                  #     2) FOR SPECIAL DISPLAY JOB-
000295:                                                                                                  #        A,RUPTREG1,RUPTREG2,RUPTREG3,RUPTREG4,MPAC TO MPAC+3
000296:                                                                                                  #     3) FOR NORMAL MARKING-
000297:                                                                                                  #        A,MARKSTAT,ITEMP1,QPRET,VAC+1 TO VAC+7 OF VAC AREA IN USE
000298:


000300:
000301: 07,2152           34675        MARKCONT           CAF      BIT14
000302: 07,2153           70076                           MASK     STATE      +2                         #  R21 MARK (SPECIAL MARKING FOR R21)
000303: 07,2154           00006                           EXTEND
000304: 07,2155           12167                           BZF      MARKET                                #  NOT SET THEREFORE REGULAR MARKING
000305: 07,2156           36211        MARKIT1            CAF      SIX                                   #  SPECIAL FOR R21
000306: 07,2157           05475                           TC       GENTRAN                               #  TRANSFER MRKBUF1 TO MRKBUF2
000307: 07,2160           01725                           ADRES    MRKBUF1
000308: 07,2161           01734                           ADRES    MRKBUF2
000309:
000310: 07,2162           36211                           CAF      SIX                                   #  TRANSFER CURRENT MARK DATA TO MARKBUF1
000311: 07,2163           05475                           TC       GENTRAN
000312: 07,2164           00355                           ADRES    MKT2T1
000313: 07,2165           01725                           ADRES    MRKBUF1
000314:
000315: 07,2166           15213                           TCF      TASKOVER
000316:
000317: 07,2167           11330        MARKET             CCS      MARKSTAT                              #  SEE IF MARKS CALLED FOR
000318: 07,2170           02224                           TC       MARK2                                 #  COLLECT MARKS
000319:
000320: 07,2171           36211                           CAF      SIX
000321: 07,2172           05475                           TC       GENTRAN                               #  TRANSFER MARK DATA TO MARKDOWN
000322: 07,2173           00355                           ADRES    MKT2T1
000323: 07,2174           01674                           ADRES    MARKDOWN
000324:
000325: 07,2175           36211                           CAF      SIX
000326: 07,2176           05475                           TC       GENTRAN                               #  TRANSFER MARK DATA TO MRKBUF1 FOR
000327: 07,2177           00355                           ADRES    MKT2T1                                #  SPECIAL DISPLAY OF SHAFT AND TRUNION
000328: 07,2200           01725                           ADRES    MRKBUF1                               #  IF V59 ACTING
000329:
000330: 07,2201           34711                           CAF      TWO                                   #  IS MARKING SYSTEM IN USE (BIT2)
000331: 07,2202           71044                           MASK     EXTVBACT
000332: 07,2203           00006                           EXTEND
000333: 07,2204           12216                           BZF      MARKET3                               #  MARKING NOT CALLED FOR
000334: 07,2205           34677                           CAF      BIT12
000335: 07,2206           70101                           MASK     STATE      +5                         #  V59FLAG
000336: 07,2207           00006                           EXTEND
000337: 07,2210           12216                           BZF      MARKET3                               #  IF V59FLAG NOT SET-MARK UNCALLED FOR
000338: 07,2211           34754                           CAF      PRIO5                                 #  CALIBRATION MARK (SET) FOR P23
000339: 07,2212           05027                           TC       NOVAC                                 #  SPECIAL DISPLAY JOB
000340: 07,2213  E7,1725                                  EBANK=   MRKBUF1
000341: 07,2213           02405 76067                     2CADR    MARKDISP
000342:
000343: 07,2215           15213                           TCF      TASKOVER
000344: 07,2216           05537        MARKET3            TC       ALARM
000345: 07,2217           00122                           OCT      122                                   #  MARKING NOT CALLED FOR
000346: 07,2220           15213                           TCF      TASKOVER
000347: 07,2221           05537        114ALM             TC       ALARM                                 #  MARK NOT WANTED
000348: 07,2222           00114                           OCT      114
000349: 07,2223           15213                           TCF      TASKOVER
000350:


000352:                                                                                                  #     STORE MARK DATA IN MKVAC AND INCREMENT POINTER
000353:
000354: 07,2224           67711        MARK2              AD       74K                                   #  SEE IF MARKS WANTED-REDUCE MARKS WANTED
000355: 07,2225           00006                           EXTEND
000356: 07,2226           62221                           BZMF     114ALM                                #  MARK NOT WANTED-ALARM
000357: 07,2227           55330                           TS       MARKSTAT
000358: 07,2230           40000                           COM
000359: 07,2231           74701                           MASK     BIT10                                 #  SET BIT10 TO ENABLE REJECT
000360: 07,2232           27330                           ADS      MARKSTAT
000361:
000362: 07,2233           74741                           MASK     LOW9
000363: 07,2234           54061                           TS       ITEMP1
000364: 07,2235           50000                           INDEX    A
000365: 07,2236           56052                           XCH      QPRET                                 #  PICK UP MARK SLOT-POINTER
000366: 07,2237           54062                           TS       ITEMP2                                #  SAVE CURRENT POINTER
000367: 07,2240           64716                           AD       SEVEN                                 #  INCREMENT POINTER
000368: 07,2241           50061                           INDEX    ITEMP1
000369: 07,2242           54052                           TS       QPRET                                 #  STORE ADVANCED POINTER
000370:
000371: 07,2243           00006        VACSTOR            EXTEND
000372: 07,2244           30356                           DCA      MKT2T1
000373: 07,2245           50062                           INDEX    ITEMP2
000374: 07,2246           52001                           DXCH     0
000375: 07,2247           30357                           CA       MKCDUY
000376: 07,2250           50062                           INDEX    ITEMP2
000377: 07,2251           54002                           TS       2
000378: 07,2252           30360                           CA       MKCDUS
000379: 07,2253           50062                           INDEX    ITEMP2
000380: 07,2254           54003                           TS       3
000381: 07,2255           30361                           CA       MKCDUZ
000382: 07,2256           50062                           INDEX    ITEMP2
000383: 07,2257           54004                           TS       4
000384: 07,2260           30362                           CA       MKCDUT
000385: 07,2261           50062                           INDEX    ITEMP2
000386: 07,2262           54005                           TS       5
000387: 07,2263           30363                           CA       MKCDUX
000388: 07,2264           50062                           INDEX    ITEMP2
000389: 07,2265           54006                           TS       6
000390:
000391: 07,2266           37671                           CAF      PRIO34                                #  IF ALL MARKS MADE FLASH VB50
000392: 07,2267           71330                           MASK     MARKSTAT
000393: 07,2270           00006                           EXTEND
000394: 07,2271           12273                           BZF      +2
000395: 07,2272           15213                           TCF      TASKOVER
000396: 07,2273           37667                           CAF      PRIO32
000397: 07,2274           05027                           TC       NOVAC
000398: 07,2275     1330                                  EBANK=   MARKSTAT
000399: 07,2275           02421 16062                     2CADR    MKVB50
000400: 07,2277           15213                           TCF      TASKOVER
000401:


000403:
000404:                                                                                                  #  PROGRAM NAME - MKREJECT                               DATE- 5 APRIL 1967
000405:                                                                                                  #  PROGRAM MODIFIED BY 258/278 PROGRAMMERS              LOG SECTION SXTMARK
000406:                                                                                                  #  MOD BY- R. MELANSON TO ADD DOCUMENTATION       ASSEMBLY SUNDISK REV. 116
000407:
000408:                                                                                                  #  FUNCTIONAL DESCRIPTION-
000409:                                                                                                  #     ROUTINE ALLOWS OPERATOR TO REJECT MARK MADE PRIOR TO ACCEPTANCE AND ALLOWS A NEW MARK TO BE MADE BY ASTRONAUT
000410:
000411:                                                                                                  #  CALLING SEQUENCE-
000412:                                                                                                  #     FROM MARKRUPT IF BIT7 OF CHANNEL 16 IS 1.
000413:
000414:                                                                                                  #  NORMAL EXIT MODE-
000415:                                                                                                  #     RESUME
000416:
000417:                                                                                                  #  ALARM OR ABORT EXIT MODE-
000418:                                                                                                  #     ALARM AND RESUME
000419:
000420:                                                                                                  #  OUTPUT-
000421:                                                                                                  #     1) FOR R21-
000422:                                                                                                  #       MRKBUF1 SET TO -1
000423:                                                                                                  #     2) FOR NORMAL MARKING-
000424:                                                                                                  #        BIT10 MARKSTAT =0,INCREMENT NO. MARKS BY 1,DECREMENT QPRET BY 7
000425:
000426:                                                                                                  #  ERASABLE INITIALIZATION-
000427:                                                                                                  #     1) FOR R21-
000428:                                                                                                  #        BIT14 OF STATE+2 SET TO 1
000429:                                                                                                  #     2) FOR NORMAL MARKING-
000430:                                                                                                  #        BIT14 OF STATE+2 SET TO 0,MARKSTAT,QPRET
000431:
000432:                                                                                                  #  DEBRIS-
000433:                                                                                                  #     1) FOR R21-
000434:                                                                                                  #        A,MARKSTAT,EBANK
000435:                                                                                                  #     2) FOR NORMAL MARKING-
000436:                                                                                                  #        A,MARKSTAT,ITEMP1,QPRET
000437:
000438: 07,2300           34675        MKREJECT           CAF      BIT14
000439: 07,2301           70076                           MASK     STATE      +2                         #  R21 MARK (SPECIAL MARKING FOR R21)
000440: 07,2302           00006                           EXTEND
000441: 07,2303           12307                           BZF      MRKREJCT                              #  NOT SET THEREFORE REGULAR REJECT
000442: 07,2304           37716                           CA       NEGONE                                #  -1 (FOR R22)
000443: 07,2305           55725                           TS       MRKBUF1                               #  -0 IN TIME IS FLAG TO R22 SIGNIFYING A
000444: 07,2306           05222                           TC       RESUME                                #  REJECTED MARK
000445: 07,2307           11330        MRKREJCT           CCS      MARKSTAT                              #  SEE IF MARKS BEING ACCEPTED
000446: 07,2310           02314                           TC       REJECT2
000447: 07,2311           05537                           TC       ALARM                                 #  MARKS NOT BEING ACCEPTED
000448: 07,2312           00112                           OCT      112
000449: 07,2313           05222                           TC       RESUME
000450:
000451: 07,2314           44701        REJECT2            CS       BIT10                                 #  SEE IF MARK HAD BEEN MADE SINCE LAST
000452: 07,2315           71330                           MASK     MARKSTAT                              #  REJECT, AND SET BIT10 TO ZERO TO
000453: 07,2316           57330                           XCH      MARKSTAT                              #  SHOW MARK REJECT


000455: 07,2317           74701                           MASK     BIT10
000456: 07,2320           10000                           CCS      A
000457: 07,2321           02325                           TC       REJECT3
000458:
000459: 07,2322           05537                           TC       ALARM                                 #  DONT ACCEPT TWO REJECTS TOGETHER
000460: 07,2323           00110                           OCT      110
000461: 07,2324           05222                           TC       RESUME
000462:
000463: 07,2325           34741        REJECT3            CAF      LOW9                                  #  DECREMENT POINTER TO REJECT MARK
000464: 07,2326           71330                           MASK     MARKSTAT
000465: 07,2327           54061                           TS       ITEMP1
000466: 07,2330           44716                           CS       SEVEN
000467: 07,2331           50061                           INDEX    ITEMP1
000468: 07,2332           26052                           ADS      QPRET                                 #  NEW POINTER
000469:
000470: 07,2333           34677                           CAF      BIT12                                 #  INCREMENT MARKS WANTED AND IF FIELD
000471: 07,2334           61330                           AD       MARKSTAT                              #  IS NOW NON-ZERO, CHANGE TO VB51 TO
000472: 07,2335           57330                           XCH      MARKSTAT                              #  INDICATE MORE MARKS WANTED
000473: 07,2336           77671                           MASK     PRIO34                                #  INDICATE MORE MARKS WANTED
000474: 07,2337           10000                           CCS      A
000475: 07,2340           05222                           TC       RESUME
000476: 07,2341           37667                           CAF      PRIO32
000477: 07,2342           05027                           TC       NOVAC
000478: 07,2343     1330                                  EBANK=   MARKSTAT
000479: 07,2343           02346 16062                     2CADR    MKVB51
000480: 07,2345           05222                           TC       RESUME
000481:


000483:
000484:                                                                                                  #  PROGRAM DESCRIPTION MKVB51 AND MKVB50
000485:
000486:                                                                                                  #  AUTHOR-BARNERT DATE-2-15-67 MOD-0
000487:                                                                                                  #  PURPOSE  FLASH V51N70,V51N43, OR V51 TO REQUEST MARKING,
000488:                                                                                                  #           AND V50N25 R1=16 TO REQUEST TERMINATE MARKING
000489:
000490:                                                                                                  #  CALLING SEQUENCE   AS JOB WITHIN SXTMARK
000491:
000492:                                                                                                  #  EXIT TO ENDMARK UPON RECEIPT OF V33, V34 CAUSES GOTOPOOH, ENTER
000493:                                                                                                  #           RECYCLES THE DISPLAY
000494:
000495:                                                                                                  #  NOTE- SXTMARK AUTOMATICALLY CHANGES FROM CALLING MKVB51 TO MKVB50 WHEN
000496:                                                                                                  #           SUFFICIENT MARKS HAVE BEEN MADE, AND THE REVERSE WHEN A MARK
000497:                                                                                                  #           REJECT REDUCES THE NUMBER MADE BELOW THAT REQUIRED
000498:
000499:                                                                                                  #  SUBROUTINES CALLED- BANKCALL, GOMARK2,GOODEND,ENDMARK,WAITLIST
000500:
000501:                                                                                                  #  ALARM OR ABORT MODES - NONE
000502:
000503:                                                                                                  #  ERASABLE USED-VERBREG,MARKSTAT,QPRET,DSPTEM1
000504:
000505:                                                                                                  #  OUTPUT  MARKSTAT=VAC ADDRESS
000506:
000507:                                                                                                  #          QPRET=   NO. MARKS
000508: 07,2346           04555        MKVB51             TC       BANKCALL                              #  CLEAR DISPLAY FOR MARK VERB
000509: 07,2347           20464                           CADR     KLEENEX
000510: 07,2350           32426                           CAF      VB51                                  #  DISPLAY MARK VB51
000511: 07,2351           04555                           TC       BANKCALL
000512: 07,2352           20476                           CADR     GOMARK4
000513: 07,2353           12356                           TCF      TERMSXT                               #  VB34-TERMINATE
000514: 07,2354           12367                           TCF      ENTANSWR                              #  V33-PROCEED-MARKING DONE
000515: 07,2355           12415                           TCF      MKVB5X                                #  ENTER-RECYCLE TO INITIAL MARK DISPLAY
000516:
000517: 07,2356           05425        TERMSXT            TC       CLEARMRK                              #  CLEAR MARK ACTIVITY.
000518:
000519: 07,2357           05253                           TC       CHECKMM
000520: 07,2360           00003                           MM       03         B-14
000521: 07,2361           12363                           TCF      +2
000522: 07,2362           02365                           TC       TERMP03
000523: 07,2363           04574                           TC       POSTJUMP
000524: 07,2364           30176                           CADR     TERM52
000525:
000526: 07,2365           05435        TERMP03            TC       UPFLAG
000527: 07,2366           00032                           ADRES    TRM03FLG
000528: 07,2367           34741        ENTANSWR           CAF      LOW9                                  #  PUT VAC ADR IN MARKSTAT AND NO. OF
000529: 07,2370           71330                           MASK     MARKSTAT                              #  MARKS MADE IN QPRET BEFORE LEAVING
000530: 07,2371           55330                           TS       MARKSTAT                              #  SXTMARK
000531: 07,2372           40000                           COM
000532: 07,2373           51330                           INDEX    MARKSTAT
000533: 07,2374           60052                           AD       QPRET


000535: 07,2375           00006                           EXTEND
000536: 07,2376           62402                           BZMF     JAMIT                                 #  NO MARKS MADE, SHOW IT IN QPRET, R53
000537: 07,2377           00006                           EXTEND                                         #    WILL PICK IT UP AND RECYCLE
000538: 07,2400           74677                           MP       BIT12                                 #  THIS PUTS NUMBER MARKS-1 IN A
000539: 07,2401           64712                           AD       ONE
000540: 07,2402           51330        JAMIT              INDEX    MARKSTAT                              #  STORE NO OF MARKS MADE
000541: 07,2403           54052                           TS       QPRET
000542: 07,2404           00004                           INHINT                                         #  SERVICE OPTSTALL INTERFACE WITH
000543: 07,2405           34715                           CAF      FIVE
000544: 07,2406           05140                           TC       WAITLIST
000545: 07,2407     1330                                  EBANK=   MARKSTAT
000546: 07,2407           02412 16062                     2CADR    ENDMARKS
000547: 07,2411           05423                           TC       ENDMARK                               #  KNOCKS DOWN MARKING FLAG + DOES ENDOFJOB
000548:
000549: 07,2412           34712        ENDMARKS           CAF      ONE
000550: 07,2413           04633                           TC       IBNKCALL
000551: 07,2414           17467                           CADR     GOODEND
000552: 07,2415           37671        MKVB5X             CAF      PRIO34
000553: 07,2416           71330                           MASK     MARKSTAT                              #  RE-DISPLAY VB51 IF MORE MARKS WANTED
000554: 07,2417           10000                           CCS      A                                     #  AND VB50 IF ALL IN
000555: 07,2420           12346                           TCF      MKVB51
000556: 07,2421           34333        MKVB50             CAF      R1D1                                  #  OCT 16
000557: 07,2422           55045                           TS       DSPTEM1
000558: 07,2423           32425                           CAF      V50N25
000559: 07,2424           12351                           TCF      MKVB51     +3
000560:
000561: 07,2425           14431        V50N25             VN       5025
000562: 07,2426           14600        VB51               VN       5100
000563: 07,2427     4362               OCT37              =        LOW5
000564:
000565:                                                                                                  #  PROGRAM NAME - MARKIT                                 DATE- 19 SEPT 1967
000566:
000567:                                                                                                  #  CALLING SEQUENCE
000568:                                                                                                  #     FROM MARKRUPT IF CHAN 16 BIT 6 = 1
000569:
000570:                                                                                                  #  EXIT
000571:                                                                                                  #     RESUME
000572:
000573:                                                                                                  #  INPUT
000574:                                                                                                  #     CDUCHKWD. ALSO ALL INITIALIZATION FOR MARKCONT
000575:
000576:                                                                                                  #  OUTPUT
000577:                                                                                                  #     MKT2T1,MKCDUX,MKCDUY,MKCDUZ,MKCDUS,MKCDUT
000578:
000579:                                                                                                  #  ALARM EXIT
000580:                                                                                                  #     NONE
000581:
000582: 07,2427           11341        MARKIT             CCS      CDUCHKWD
000583: 07,2430           12433                           TCF      +3                                    #  DELAY OF CDUCHKWD CS IF PNZ


000585: 07,2431           12433                           TCF      +2
000586: 07,2432           34714                           CAF      ZERO
000587: 07,2433           64712                           AD       ONE                                   #  10 MS IF NO CHECK
000588: 07,2434           05140                           TC       WAITLIST
000589: 07,2435  E7,1725                                  EBANK=   MRKBUF1
000590: 07,2435           02203 20067                     2CADR    MARKDIF
000591: 07,2437           15222                           TCF      RESUME
000592:
000593: 10,2000                                           SETLOC   SXTMARK1
000594: 10,2000                                           BANK
000595:
000596: 10,2203                                           COUNT    10/SXTMK
000597:
000598:                                                                                                  #  PROGRAM NAME - MARKDIF                                DATE- 19 SEPT 1967
000599:
000600:                                                                                                  #  CALLING SEQUENCE
000601:                                                                                                  #     WAITLIST FROM MARKIT
000602:
000603:                                                                                                  #  EXIT
000604:                                                                                                  #     TASKOVER OT IBNKCALL TO MARKCONT
000605:
000606:                                                                                                  #  INPUT
000607:                                                                                                  #     OUTPUT FROM MARKIT, INPUT TO MARKCONT, CDUCHKWD
000608:
000609:                                                                                                  #  OUTPUT
000610:                                                                                                  #     RUPTSTOR - RUPTSTOR+3,RUPTREG3,RUPTSTOR+5 - RUPTSTOR +6
000611:
000612:                                                                                                  #  ALARM EXIT
000613:                                                                                                  #     ALARM AND TASKOVER
000614:
000615: 10,2203           31341        MARKDIF            CA       CDUCHKWD                              #  IF DELAY CHECK IS ZERO OR NEG, ACP MARK
000616: 10,2204           00006                           EXTEND
000617: 10,2205           62216                           BZMF     MKACPT
000618: 10,2206           44712                           CS       BIT1
000619: 10,2207           54354                           TS       MKNDX                                 #  SET INDEX -1
000620: 10,2210           30363                           CA       MKCDUX
000621: 10,2211           02220                           TC       DIFCHK                                #  SEE IF VEHICLE RATE  TO MUCH AT MARK
000622: 10,2212           30357                           CA       MKCDUY
000623: 10,2213           02220                           TC       DIFCHK
000624: 10,2214           30361                           CA       MKCDUZ
000625: 10,2215           02220                           TC       DIFCHK
000626:
000627: 10,2216           04633        MKACPT             TC       IBNKCALL
000628: 10,2217           16152                           CADR     MARKCONT                              #  MARK DATA OK, WHAT DO WE DO WITH IT
000629:
000630: 10,2220           24354        DIFCHK             INCR     MKNDX                                 #  INCREMENT INDEX
000631:
000632: 10,2221           00006                           EXTEND
000633: 10,2222           50354                           INDEX    MKNDX


000635: 10,2223           20032                           MSU      CDUX                                  #  GET MARK(ICDU) - CURRENT(ICDU)
000636: 10,2224           10000                           CCS      A
000637: 10,2225           12231                           TCF      +4
000638: 10,2226           00002                           TC       Q
000639: 10,2227           12231                           TCF      +2
000640: 10,2230           00002                           TC       Q
000641: 10,2231           67715                           AD       NEG2                                  #  SEE IF DIFFERENCE GREATER THAN 3 BITS
000642: 10,2232           00006                           EXTEND
000643: 10,2233           62230                           BZMF     -3                                    #  NOT GREATER
000644:
000645: 10,2234           05537                           TC       ALARM                                 #  COUPLED WITH PROGRAM ALARM
000646: 10,2235           00121                           OCT      00121
000647:
000648: 10,2236           15213                           TCF      TASKOVER                              #  DO NOT ACCEPT

End of include-file SXTMARK.agc.  Parent file is MAIN.agc


