
Source Code


000002:                                                                                                  ## Copyright:   Public domain.
000003:                                                                                                  ## Filename:    SYSTEM_TEST_STANDARD_LEAD_INS.agc
000004:                                                                                                  ## Purpose:     Part of the source code for Colossus build 237.
000005:                                                                                                  ##              This is for the Command Module's (CM) Apollo Guidance
000006:                                                                                                  ##              Computer (AGC), for Apollo 8.
000007:                                                                                                  ## Assembler:   yaYUL
000008:                                                                                                  ## Contact:     Jim Lawton <jim DOT lawton AT gmail DOT com>
000009:                                                                                                  ## Website:     www.ibiblio.org/apollo/index.html
000010:                                                                                                  ## Page Scans:  www.ibiblio.org/apollo/ScansForConversion/Colossus237/
000011:                                                                                                  ## Mod history: 2011-01-27 JL   Adapted from corresponding Colossus 249 file.
000012:                                                                                                  ##              2016-12-30 RSB  Proofed comment text using octopus/ProoferComments,
000013:                                                                                                  ##                              and corrected errors found.
000014:                                                                                                  ##              2017-01-20 RSB  Fixed comment-text errors noted while diff'ing
000015:                                                                                                  ##                              vs Colossus 249.
000016:


000018: 22,3310  E5,1671                                  EBANK=   XSM
000019:
000020: 33,2000                                           BANK     33
000021: 04,2000                                           SETLOC   E/PROG
000022: 04,2000                                           BANK
000023:
000024: 04,2557                                           COUNT*   $$/P07
000025:
000026:                                                                                                  #           SPECIAL PROGRAMS TO EASE THE PANGS OF ERASABLE MEMORY PROGRAMS.
000027:
000028:                                                                                                  #  E/BKCALL   FOR DOING BANKCALLS FROM AND RETURNING TO ERASABLE.
000029:
000030:                                                                                                  #           THIS ROUTINE IS CALLABLE FROM ERASABLE OR FIXED.  LIKE BANKCALL, HOWEVER, SWITCHING BETWEEN S3 AND S4
000031:                                                                                                  #  IS NOT POSSIBLE.
000032:
000033:                                                                                                  #           THE CALLING SEQUENCE IS:
000034:
000035:                                                                                                  #                                                   TC     BANKCALL
000036:                                                                                                  #                                                   CADR   E/BKCALL
000037:                                                                                                  #                                                   CADR   ROUTINE         WHERE YOU WANT TO GO IN FIXED.
000038:                                                                                                  #                                                   RETURN HERE FROM DISPLAY TERMINATE, BAD STALL OR TC Q.
000039:                                                                                                  #                                                   RETURN HERE FROM DISPLAY PROCEED OR GOOD RETURN FROM STALL.
000040:                                                                                                  #                                                   RETURN HERE FROM DISPLAY ENTER OR RECYCLE.
000041:
000042:                                                                                                  #           THIS ROUTINE REQUIRES TWO ERASABLES (EBUF2, +1) IN UNSWITCHED WHICH ARE UNSHARED BY INTERRUPTS AND
000043:                                                                                                  #  OTHER EMEMORY PROGRAMS.
000044:
000045:                                                                                                  #           A + L ARE PRESERVED THROUGH BANKCALL AND E/BKCALL.
000046:
000047: 04,2557           52134        E/BKCALL           DXCH     BUF2                                  #  SAVE A,L AND GET DP RETURN.
000048: 04,2560           52365                           DXCH     EBUF2                                 #  SAVE DP RETURN.
000049: 04,2561           24364                           INCR     EBUF2                                 #  RETURN +1 BECAUSE DOUBLE CADR.
000050: 04,2562           30006                           CA       BBANK
000051: 04,2563           74747                           MASK     LOW10                                 #  GET CURRENT EBANK.  (SBANK SOMEDAY)
000052: 04,2564           26365                           ADS      EBUF2      +1                         #  FORM BBCON.  (WAS FBANK)
000053: 04,2565           50364                           NDX      EBUF2
000054: 04,2566           27777                           CA       0          -1                         #  GET CADR OF ROUTINE.
000055: 04,2567           04561                           TC       SWCALL                                #  GO TO ROUTINE, SETTING Q TO SWRETURN
000056:                                                                                                  #                                          AND RESTORING A + L.
000057: 04,2570           02574                           TC       +4                                    #  TX Q, V34, OR BAD STALL RETURN.
000058: 04,2571           02573                           TC       +2                                    #  PROCEED OR GOOD STALL RETURN.
000059: 04,2572           24364                           INCR     EBUF2                                 #  ENTER OR RECYCLE RETURN.
000060: 04,2573           24364                           INCR     EBUF2
000061: 04,2574           52365        E/SWITCH           DXCH     EBUF2
000062: 04,2575           52006                           DTCB
000063:


000065:                                                                                                  #  E/CALL          FOR CALLING A FIXED MEMORY INTERPRETIVE SUBROUTINE FROM ERASABLE AND RETURNING TO ERASABLE.
000066:
000067:                                                                                                  #           THE CALLING SEQUENCE IS...
000068:                                                                                                  #                                                   RTB
000069:                                                                                                  #                                                          E/CALL
000070:                                                                                                  #                                                   CADR   ROUTINE         THE INTERPRETIVE SUBROUTINE YOU WANT.
000071:                                                                                                  #                                                                          RETURNS HERE IN INTERPRETIVE.
000072:
000073: 04,2576           22164        E/CALL             LXCH     LOC                                   #  ADRES -1 OF CADR.
000074: 04,2577           50001                           INDEX    L
000075: 04,2600           30001                           CA       L                                     #  CADR IN A.
000076: 04,2601           24001                           INCR     L
000077: 04,2602           24001                           INCR     L                                     #  RETURN ADRES IN L.
000078: 04,2603           52365                           DXCH     EBUF2                                 #  STORE CADR AND RETURN.
000079: 04,2604           06006                           TC       INTPRET
000080: 04,2605           77624                           CALL
000081: 04,2606           00364                                    EBUF2                                 #  INDIRECTLY EXECUTE ROUTINE.  IT MUST
000082: 04,2607           77776                           EXIT                                           #  LEAVE VIA RVQ OR EQUIVALENT.
000083: 04,2610           22365                           LXCH     EBUF2      +1                         #  PICK UP RETURN.
000084: 04,2611           16010                           TCF      INTPRET    +2                         #  SET LOC AND RETURB TO CALLER
000085:


000087:                                                                                                  #  E/JOBWAK        FOR WAKING UP ERASABLE MEMORY JOBS.
000088:
000089:                                                                                                  #           THIS ROUTINE MUST BE CALLED IN INTERRUPT OR WITH INTERRUPTS INHIBITED.
000090:
000091:                                                                                                  #           THE CALLING SEQUENCE IS:
000092:
000093:                                                                                                  #                                                   INHINT
000094:                                                                                                  #                                                     .
000095:                                                                                                  #                                                     .
000096:                                                                                                  #                                                   CA     WAKEADR         ADDRESS OF SLEEPING JOB
000097:                                                                                                  #                                                   TC     IBNKCALL
000098:                                                                                                  #                                                   CADR   E/JOBWAK
000099:                                                                                                  #                                                     .                    RETURNS HERE
000100:                                                                                                  #                                                     .
000101:                                                                                                  #                                                     .
000102:                                                                                                  #                                                   RELINT                 IF YOU DID AN INHINT.
000103:
000104: 33,2000                                           BANK     33
000105: 04,2000                                           SETLOC   E/PROG
000106: 04,2000                                           BANK
000107:
000108: 04,2612                                           COUNT*   $$/P07
000109:
000110: 04,2612           05074        E/JOBWAK           TC       JOBWAKE                               #  ARRIVE IWTH ADRES IN A.
000111: 04,2613           44700                           CS       BIT11
000112: 04,2614           50064                           NDX      LOCCTR
000113: 04,2615           26164                           ADS      LOC                                   #  KNOCK FIXED MEMORY BIT OUT OF ADRES.
000114: 04,2616           00072                           TC       RUPTREG3                              #  RETURN
000115:
000116:
000117:                                                                                                  #  THESE PROGRAMS ARE PROVIDED TO ALLOW OVERLAY OF BANKS 30 THRU 33 OF THE 205 VERSIONS OF SYSTEM TESTS AND
000118:                                                                                                  #  PRELAUNCH ALIGN.  THE INTENT IS TO ALLOW THE STG AND HYBRID LABS TO RUN ALL THE TESTS WITH COLOSSUS.
000119:
000120:
000121: 33,2000                                           BANK     33
000122: 33,2000                                           SETLOC   TESTLEAD
000123: 33,2000                                           BANK
000124:
000125: 33,2000                                           COUNT    33/COMST
000126:
000127: 33,2000  E5,1425                                  EBANK=   QPLACE
000128:
000129: 33,2000           03426        COMPVER            TC       GCOMPVER                              #  MUST BE 33,2000.
000130:
000131: 33,2001           03133        GTSCPSS1           TC       GTSCPSS                               #  MUST BE AT 33,2001
000132:
000133: 33,2002           05243        REDO               TC       NEWMODEX                              #  DISPLAY MM 07.
000134: 33,2003           00007                           MM       07         B-14                       #  FALL INTO IMUTEST

End of include-file SYSTEM_TEST_STANDARD_LEAD_INS.agc.  Parent file is MAIN.agc


