
Source Code


000002:                                                                                                 #  Copyright:    Public domain.
000003:                                                                                                 #  Filename:      SYSTEM_TEST_STANDARD_LEAD_INS.agc
000004:                                                                                                 #  Purpose:      Part of the source code for Colossus build 237.
000005:                                                                                                 #                This is for the Command Module's (CM) Apollo Guidance
000006:                                                                                                 #                Computer (AGC), we believe for Apollo 8.
000007:                                                                                                 #  Assembler:    yaYUL
000008:                                                                                                 #  Contact:      Jim Lawton <jim DOT lawton AT gmail DOT com>
000009:                                                                                                 #  Website:      www.ibiblio.org/apollo/index.html
000010:                                                                                                 #  Page scans:   www.ibiblio.org/apollo/ScansForConversion/Colossus237/
000011:                                                                                                 #  Mod history:  2011-01-27 JL   Adapted from corresponding Colossus 249 file.
000012:
000013:                                                                                                 # # Page 411
000014: ???????  0002671                                 EBANK=   XSM
000015:
000016: 33,2000                                          BANK     33
000017: 04,2000                                          SETLOC   E/PROG
000018: 04,2000                                          BANK
000019:
000020: 04,2557                                          COUNT*   $$/P07
000021:
000022:                                                                                                 #            SPECIAL PROGRAMS TO EASE THE PANGS OF ERASABLE MEMORY PROGRAMS.
000023:
000024:                                                                                                 #  E/BKCALL   FOR DOING BANKCALLS FROM AND RETURNING TO ERASABLE.
000025:
000026:                                                                                                 #            THIS ROUTINE IS CALLABLE FROM ERASABLE OR FIXED.  LIKE BANKCALL, HOWEVER, SWITCHING BETWEEN S3 AND S4
000027:                                                                                                 #  IS NOT POSSIBLE.
000028:
000029:                                                                                                 #            THE CALLING SEQUENCE IS:
000030:
000031:                                                                                                 #                                                    TC     BANKCALL
000032:                                                                                                 #                                                    CADR   E/BKCALL
000033:                                                                                                 #                                                    CADR   ROUTINE         WHERE YOO WANT TO GO IN FIXED.
000034:                                                                                                 #                                                    RETURN HERE FROM DISPLAY TERMINATE, BAD STALL OR TC Q.
000035:                                                                                                 #                                                    RETURN HERE FROM DISPLAY PROCEED OR GOOD RETURN FROM STALL.
000036:                                                                                                 #                                                    RETURN HERE FROM DISPLAY ENTER OR RECYCLE.
000037:
000038:                                                                                                 #            THIS ROUTINE REQUIRES TWO ERASABLES (EBUF2, +1) IN UNSWITCHED WHICH ARE UNSHARED BY INTERRUPTS AND
000039:                                                                                                 #  OTHER EMEMORY PROGRAMS.
000040:
000041:                                                                                                 #            A + L ARE PRESERVED THROUGH BANKCALL AND E/BKCALL.
000042:
000043: 04,2557           52134        E/BKCALL          DXCH     BUF2                                  #  SAVE A,L AND GET DP RETURN
000044: 04,2560           52365                          DXCH     EBUF2                                 #  SAVE DP RETURN.
000045: 04,2561           24364                          INCR     EBUF2                                 #  RETURN +1 BECAUSE DOUBLE CADR.
000046: 04,2562           30006                          CA       BBANK
000047: 04,2563           74747                          MASK     LOW10                                 #  GET CURRENT EBANK.  (SBANK SOMEDAY)
000048: 04,2564           26365                          ADS      EBUF2      +1                         #  FORM BBCON.  (WAS FBANK)
000049: 04,2565           50364                          NDX      EBUF2
000050: 04,2566           27777                          CA       0          -1                         #  GET CADR OF ROUTINE.
000051: 04,2567           04561                          TC       SWCALL                                #  GO TO ROUTINE, SETTING Q TO SWRETURN
000052:                                                                                                 #                                           AND RESTORING A + L.
000053: 04,2570           02574                          TC       +4                                    #  TX Q, V34, OR BAD STALL RETURN.
000054: 04,2571           02573                          TC       +2                                    #  PROCEED OR GOOD STALL RETURN.
000055: 04,2572           24364                          INCR     EBUF2                                 #  ENTER OR RECYCLE RETURN.
000056: 04,2573           24364                          INCR     EBUF2
000057: 04,2574           52365        E/SWITCH          DXCH     EBUF2
000058: 04,2575           52006                          DTCB
000059:
000060:                                                                                                 # # Page 412
000061:                                                                                                 #  E/CALL   FOR CALLING A FIXED MEMORY INTERPRETIVE SUBROUTINE FROM ERASABLE AND RETURNING TO ERASABLE.
000062:
000063:                                                                                                 #            THE CALLING SEQUENCE IS...
000064:                                                                                                 #                                                    RTB
000065:                                                                                                 #                                                           E/CALL
000066:                                                                                                 #                                                    CADR   ROUTINE         THE INTERPRETIVE SUBROUTINE YOU WANT.
000067:                                                                                                 #                                                                           RETURNS HERE IN INTERPRETIVE.
000068:
000069: 04,2576           22164        E/CALL            LXCH     LOC                                   #  ADRES -1 OF CADR.
000070: 04,2577           50001                          INDEX    L
000071: 04,2600           30001                          CA       L                                     #  CADR IN A.
000072: 04,2601           24001                          INCR     L
000073: 04,2602           24001                          INCR     L                                     #  RETURN ADRES IN L.
000074: 04,2603           52365                          DXCH     EBUF2                                 #  STORE CADR AND RETURN.
000075: 04,2604           06006                          TC       INTPRET
000076: 04,2605           77624                          CALL
000077: 04,2606           00364                                   EBUF2                                 #  INDIRECTLY EXECUTE ROUTINE.  IT MUST
000078: 04,2607           77776                          EXIT                                           #  LEAVE VIA RVQ OR EQUIVALENT.
000079: 04,2610           22365                          LXCH     EBUF2      +1                         #  PICK UP RETURN.
000080: 04,2611           16010                          TCF      INTPRET    +2                         #  SET LOC AND RETURN TO CALLER.
000081:
000082:                                                                                                 # # Page 413
000083:                                                                                                 #  E/JOBWAK         FOR WAKING UP ERASABLE MEMORY JOBS.
000084:
000085:                                                                                                 #            THIS ROUTINE MUST BE CALLED IN INTERRUPT OR WITH INTERRUPTS INHIBITED.
000086:
000087:                                                                                                 #            THE CALLING SEQUENCE IS:
000088:
000089:                                                                                                 #                                                    INHINT
000090:                                                                                                 #                                                      .
000091:                                                                                                 #                                                      .
000092:                                                                                                 #                                                    CA     WAKEADR         ADDRESS OF SLEEPING JOB
000093:                                                                                                 #                                                    TC     IBNKCALL
000094:                                                                                                 #                                                    CADR   E/JOBWAK
000095:                                                                                                 #                                                      .                    RETURNS HERE
000096:                                                                                                 #                                                      .
000097:                                                                                                 #                                                      .
000098:                                                                                                 #                                                    RELINT                 IF YOU DID AND INHINT.
000099:
000100: 33,2000                                          BANK     33
000101: 04,2000                                          SETLOC   E/PROG
000102: 04,2000                                          BANK
000103:
000104: 04,2612                                          COUNT*   $$/P07
000105:
000106: 04,2612           05074        E/JOBWAK          TC       JOBWAKE                               #  ARRIVE WITH ADRES IN A.
000107: 04,2613           44700                          CS       BIT11
000108: 04,2614           50064                          NDX      LOCCTR
000109: 04,2615           26164                          ADS      LOC                                   #  KNOCK FIXED MEMORY BIT OUT OF ADRES.
000110: 04,2616           00072                          TC       RUPTREG3                              #  RETURN
000111:
000112:
000113:                                                                                                 #  THESE PROGRAMS ARE PROVIDED TO ALLOW OVERLAY OF BANKS 30 THRU 33 OF THE 205 VERSIONS OF SYSTEM TESTS AND
000114:                                                                                                 #  PRELAUNCH ALIGN.  THE INTENT IS TO ALLOW THE STG AND HYBRID LABS TO RUN ALL THE TESTS WITH COLOSSUS.
000115:
000116:
000117: 33,2000                                          BANK     33
000118: 33,2000                                          SETLOC   TESTLEAD
000119: 33,2000                                          BANK
000120:
000121: 33,2000                                          COUNT    33/COMST
000122:
000123: 33,2000  E5,1425                                 EBANK=   QPLACE
000124:
000125: 33,2000           03426        COMPVER           TC       GCOMPVER                              #  MUST BE 33,2000.
000126:
000127: 33,2001           03133        GTSCPSS1          TC       GTSCPSS                               #  MUST BE AT 33,2001
000128:
000129: 33,2002           05243        REDO              TC       NEWMODEX                              #  DISPLAY MM 07.
000130: 33,2003           00007                          MM       07         B-14                       #  FALL INTO IMUTEST

End of include-file SYSTEM_TEST_STANDARD_LEAD_INS.agc.  Parent file is MAIN.agc


