
Source Code


000002:                                                                                                  #  Copyright:    Public domain.
000003:                                                                                                  #  Filename:     TAGS_FOR_RELATIVE_SETLOC_AND_BLANK_BANK_CARDS.agc
000004:                                                                                                  #  Purpose:      Part of the source code for Colossus build 237.
000005:                                                                                                  #                This is for the Command Module's (CM) Apollo Guidance
000006:                                                                                                  #                Computer (AGC), we believe for Apollo 8.
000007:                                                                                                  #  Assembler:    yaYUL
000008:                                                                                                  #  Contact:      Sergio Navarro <sergionavarrog@gmail.com>
000009:                                                                                                  #  Website:      www.ibiblio.org/apollo/index.html
000010:                                                                                                  #  Page scans:   www.ibiblio.org/apollo/ScansForConversion/Colossus237/
000011:                                                                                                  #  Mod history:  2009-10-21 SN   Adapted from corresponding Colossus 249 file.
000012:                                                                                                  #                2011-01-17 JL   Renamed to match 237 module name. Minor fixes.
000013:
000014:                                                                                                  # # Page 25
000015:
000016: ???????                        FIXED              MEMORY   120000     -          167777
000017: ???????                                           COUNT    BANKSUM
000018:
000019:                                                                                                  #           MODULE 1 CONTAINS BANKS 0 THROUGH 5
000020:
000021:    4000                                           BLOCK    02
000022:    4000                        FFTAG1             EQUALS
000023:    4000                        FFTAG2             EQUALS
000024:    4000                        FFTAG3             EQUALS
000025:    4000                        FFTAG4             EQUALS
000026:    4000                        FFTAG7             EQUALS
000027:    4000                        FFTAG8             EQUALS
000028:    4000                        FFTAG9             EQUALS
000029:    4000                        FFTAG10            EQUALS
000030:    4000                        FFTAG12            EQUALS
000031:    4000                                           BNKSUM   02
000032:
000033:
000034:    6000                                           BLOCK    03
000035:    6000                        FFTAG5             EQUALS
000036:    6000                        FFTAG6             EQUALS
000037:    6000                                           BNKSUM   03
000038:
000039:
000040: 00,2000                                           BANK     00
000041: 00,2000                        DLAYJOB            EQUALS
000042: 00,2000                                           BNKSUM   00
000043:
000044:
000045: 01,2000                                           BANK     01
000046: 01,2000                        RESTART            EQUALS
000047: 01,2000                                           BNKSUM   01
000048:
000049:
000050: 04,2000                                           BANK     4
000051: 04,2000                        VERB37             EQUALS
000052: 04,2000                        CONICS1            EQUALS
000053: 04,2000                        PINBALL4           EQUALS
000054: 04,2000                        R36LM              EQUALS
000055: 04,2000                        INTPRET2           EQUALS
000056: 04,2000                        IMUCAL1            EQUALS
000057: 04,2000                        STBLEORB           EQUALS
000058: 04,2000                        E/PROG             EQUALS
000059: 04,2000                        MIDDGIM            EQUALS
000060: 04,2000                                           BNKSUM   04
000061:
000062:                                                                                                  # # Page 26
000063:
000064: 05,2000                                           BANK     5
000065: 05,2000                        FRANDRES           EQUALS
000066: 05,2000                        DOWNTELM           EQUALS
000067: 05,2000                        DAPMASS            EQUALS
000068: 05,2000                                           BNKSUM   05
000069:
000070:
000071:                                                                                                  #           MODULE 2 CONTAINS BANKS 6 THROUGH 13
000072:
000073: 06,2000                                           BANK     6
000074: 06,2000                        IMUCOMP            EQUALS
000075: 06,2000                        T4RUP              EQUALS
000076: 06,2000                        IMUCAL2            EQUALS
000077: 06,2000                                           BNKSUM   06
000078:
000079:
000080: 07,2000                                           BANK     7
000081: 07,2000                        SXTMARKE           EQUALS
000082: 07,2000                        R02                EQUALS
000083: 07,2000                        MODESW             EQUALS
000084: 07,2000                        XANG               EQUALS
000085: 07,2000                        KEYRUPT            EQUALS
000086: 07,2000                                           BNKSUM   07
000087:
000088:
000089: 10,2000                                           BANK     10
000090: 10,2000                        DISPLAYS           EQUALS
000091: 10,2000                        PHASETAB           EQUALS
000092: 10,2000                        COMGEOM2           EQUALS
000093: 10,2000                        SXTMARK1           EQUALS
000094: 10,2000                        P60S4              EQUALS
000095: 10,2000                        OPTDRV             EQUALS
000096: 10,2000                                           BNKSUM   10
000097:
000098:
000099: 11,2000                                           BANK     11
000100: 11,2000                        ORBITAL            EQUALS
000101: 11,2000                        ORBITAL1           EQUALS                                         #  CONSTANTS
000102: 11,2000                        INTVEL             EQUALS
000103: 11,2000                        S52/2              EQUALS
000104: 11,2000                                           BNKSUM   11
000105:
000106:
000107: 12,2000                                           BANK     12
000108: 12,2000                        CONICS             EQUALS
000109:                                                                                                  # # Page 27
000110: 12,2000                                           BNKSUM   12
000111:
000112:
000113: 13,2000                                           BANK     13
000114: 13,2000                        P76LOC             EQUALS
000115: 13,2000                        LATLONG            EQUALS
000116: 13,2000                        INTINIT            EQUALS
000117: 13,2000                        SR52/1             EQUALS
000118: 13,2000                        ORBITAL2           EQUALS
000119: 13,2000                                           BNKSUM   13
000120:
000121:                                                                                                  #  SPACER
000122:
000123:                                                                                                  #           MODULE 3 CONTAINS BANKS 14 THROUGH 21
000124:
000125: 14,2000                                           BANK     14
000126: 14,2000                        STARTAB            EQUALS
000127: 14,2000                        RT53               EQUALS
000128: 14,2000                        P50S1              EQUALS
000129: 14,2000                                           BNKSUM   14
000130:
000131:
000132: 15,2000                                           BANK     15
000133: 15,2000                        P50S               EQUALS
000134: 15,2000                        ETRYDAP            EQUALS
000135: 15,2000                        S52/3              EQUALS
000136: 15,2000                                           BNKSUM   15
000137:
000138:
000139: 16,2000                                           BANK     16
000140: 16,2000                        P40S1              EQUALS
000141: 16,2000                        DAPROLL            EQUALS
000142: 16,2000                        P50S2              EQUALS
000143: 16,2000                                           BNKSUM   16
000144:
000145:
000146: 17,2000                                           BANK     17
000147: 17,2000                        DAPS4              EQUALS
000148: 17,2000                        DAPS5              EQUALS
000149: 17,2000                        DAPS7              EQUALS
000150: 17,2000                                           BNKSUM   17
000151:
000152:
000153: 20,2000                                           BANK     20
000154:                                                                                                  # # Page 28
000155: 20,2000                        DAPS6              EQUALS
000156: 20,2000                        DAPS1              EQUALS
000157: 20,2000                        DAPS2              EQUALS
000158: 20,2000                                           BNKSUM   20
000159:
000160:
000161: 21,2000                                           BANK     21
000162: 21,2000                        DAPS3              EQUALS
000163: 21,2000                        MYSUBS             EQUALS
000164: 21,2000                                           BNKSUM   21
000165:
000166:
000167:                                                                                                  #           MODULE 4 CONTAINS BANKS 22 THROUGH 27
000168:
000169: 22,2000                                           BANK     22
000170: 22,2000                        RTBCODES           EQUALS
000171: 22,2000                        RTBCODE1           EQUALS
000172: 22,2000                        DAPS8              EQUALS
000173: 22,2000                        APOPERI            EQUALS
000174: 22,2000                        P40S5              EQUALS
000175: 22,2000                        KALCMON2           EQUALS
000176: 22,2000                        KALCMON1           EQUALS
000177: 22,2000                                           BNKSUM   22
000178:
000179:
000180: 23,2000                                           BANK     23
000181: 23,2000                        P20S2              EQUALS
000182: 23,2000                        INFLIGHT           EQUALS
000183: 23,2000                        COMGEOM1           EQUALS
000184: 23,2000                        POWFLITE           EQUALS
000185: 23,2000                        POWFLIT1           EQUALS
000186: 23,2000                        RENDGUID           EQUALS
000187: 23,2000                        POWFLIT2           EQUALS
000188: 23,2000                        R30LOC             EQUALS
000189: 23,2000                        P11FOUR            EQUALS
000190: 23,2000                                           BNKSUM   23
000191:
000192:
000193: 24,2000                                           BANK     24
000194: 24,2000                        LOADDAP            EQUALS
000195: 24,2000                        P40S               EQUALS
000196: 24,2000                                           BNKSUM   24
000197:
000198:
000199: 25,2000                                           BANK     25
000200:                                                                                                  # # Page 29
000201: 25,2000                        REENTRY            EQUALS
000202: 25,2000                                           BNKSUM   25
000203:
000204:
000205: 26,2000                                           BANK     26
000206: 26,2000                        INTPRET1           EQUALS
000207: 26,2000                        REENTRY1           EQUALS
000208: 26,2000                        P60S               EQUALS
000209: 26,2000                        P60S1              EQUALS
000210: 26,2000                        P60S2              EQUALS
000211: 26,2000                        P60S3              EQUALS
000212: 26,2000                        PLANTIN            EQUALS                                         #  LUNAR ROT
000213: 26,2000                        EPHEM              EQUALS
000214: 26,2000                        P05P06             EQUALS
000215: 26,2000                        26P50S             EQUALS
000216: 26,2000                                           BNKSUM   26
000217:
000218:
000219:
000220: 27,2000                                           BANK     27
000221: 27,2000                        TOF-FF             EQUALS
000222: 27,2000                        TOF-FF1            EQUALS
000223: 27,2000                        MANUVER            EQUALS
000224: 27,2000                        MANUVER1           EQUALS
000225: 27,2000                        VECPT              EQUALS
000226: 27,2000                        UPDATE1            EQUALS
000227: 27,2000                        UPDATE2            EQUALS
000228: 27,2000                        R22S1              EQUALS
000229: 27,2000                        P60S5              EQUALS
000230: 27,2000                                           BNKSUM   27
000231:
000232:
000233:                                                                                                  #           MODULE 5 CONTAINS BANKS 30 THROUGH 35
000234:
000235: 30,2000                                           BANK     30
000236: 30,2000                        IMUSUPER           EQUALS
000237: 30,2000                        LOWSUPER           EQUALS
000238: 30,2000                        FCSTART            EQUALS                                         #  STANDARD LOCATION FOR THIS.  (FOR EXTVB)
000239: 30,2000                        LOPC               EQUALS
000240: 30,2000                        P20S1              EQUALS
000241: 30,2000                        P20S6              EQUALS
000242: 30,2000                        P40S3              EQUALS
000243: 30,2000                        R35A               EQUALS
000244: 30,2000                                           BNKSUM   30
000245:
000246:
000247: 31,2000                                           BANK     31
000248:                                                                                                  # # Page 30
000249: 31,2000                        R35                EQUALS
000250: 31,2000                        RT23               EQUALS
000251: 31,2000                        P30S1A             EQUALS
000252: 31,2000                        R34                EQUALS
000253: 31,2000                                           BNKSUM   31
000254:
000255:
000256: 32,2000                                           BANK     32
000257: 32,2000                        MSGSCAN1           EQUALS
000258: 32,2000                        RTE                EQUALS
000259: 32,2000                        DELRSPL1           EQUALS
000260: 32,2000                        IMUCAL3            EQUALS
000261: 32,2000                                           BNKSUM   32
000262:
000263:
000264: 33,2000                                           BANK     33
000265: 33,2000                        TESTLEAD           EQUALS
000266: 33,2000                        IMUCAL             EQUALS
000267: 33,2000                                           BNKSUM   33
000268:
000269:
000270: 34,2000                                           BANK     34
000271: 34,2000                        P11ONE             EQUALS
000272: 34,2000                        P20S3              EQUALS
000273: 34,2000                        P20S4              EQUALS
000274: 34,2000                        RTECON             EQUALS
000275: 34,2000                                           BNKSUM   34
000276:
000277:
000278: 35,2000                                           BANK     35
000279: 35,2000                        RTECON1            EQUALS
000280: 35,2000                        CSI/CDH            EQUALS
000281: 35,2000                        P30S1              EQUALS
000282: 35,2000                        P30S               EQUALS
000283: 35,2000                        R31                EQUALS
000284: 35,2000                        P17S1              EQUALS
000285: 35,2000                                           BNKSUM   35
000286:
000287:
000288:                                                                                                  #           MODULE 6 CONTAINS BANKS 36 THROUGH 43
000289:
000290: 36,2000                                           BANK     36
000291: 36,2000                        MEASINC            EQUALS
000292: 36,2000                        MEASINC1           EQUALS
000293: 36,2000                        P17S               EQUALS
000294: 36,2000                        RTE1               EQUALS
000295: 36,2000                                           BNKSUM   36
000296:
000297:                                                                                                  # # Page 31
000298:
000299: 37,2000                                           BANK     37
000300: 37,2000                        P20S               EQUALS
000301: 37,2000                        BODYATT            EQUALS
000302: 37,2000                        RENDEZ             EQUALS
000303: 37,2000                        SERVICES           EQUALS
000304: 37,2000                        P11TWO             EQUALS
000305: 37,2000                                           BNKSUM   37
000306:
000307:
000308: 40,2000                                           BANK     40
000309: 40,2000                        PINSUPER           EQUALS
000310: 40,2000                        SELFSUPR           EQUALS
000311: 40,2000                        PINBALL1           EQUALS
000312: 40,2000                                           BNKSUM   40
000313:
000314:
000315: 41,2000                                           BANK     41
000316: 41,2000                        PINBALL2           EQUALS
000317: 41,2000                                           BNKSUM   41
000318:
000319:
000320: 42,2000                                           BANK     42
000321: 42,2000                        SBAND              EQUALS
000322: 42,2000                        PINBALL3           EQUALS
000323: 42,2000                        EXTVBS             EQUALS
000324: 42,2000                                           BNKSUM   42
000325:
000326:
000327: 43,2000                                           BANK     43
000328: 43,2000                        SELFCHEC           EQUALS
000329: 43,2000                        EXTVERBS           EQUALS
000330: 43,2000                                           BNKSUM   43
000331:
000332:
000333: 43,2000  26,3331               HI6ZEROS           EQUALS   ZEROVECS                              #  ZERO VECTOR ALWAYS IN HIGH MEMORY
000334: 43,2000  04,3452               LO6ZEROS           EQUALS   ZEROVEC                               #  ZERO VECTOR ALWAYS IN LOW MEMORY
000335: 43,2000  26,3327               HIDPHALF           EQUALS   UNITX
000336: 43,2000  04,3450               LODPHALF           EQUALS   XUNIT
000337: 43,2000  26,3321               HIDP1/4            EQUALS   DP1/4TH
000338: 43,2000  04,3476               LODP1/4            EQUALS   D1/4                                  #  2DEC .25
000339: 43,2000  26,3327               HIUNITX            EQUALS   UNITX
000340: 43,2000  26,3325               HIUNITY            EQUALS   UNITY
000341: 43,2000  26,3323               HIUNITZ            EQUALS   UNITZ
000342: 43,2000  04,3450               LOUNITX            EQUALS   XUNIT                                 #  2DEC .5
000343: 43,2000  04,3446               LOUNITY            EQUALS   YUNIT                                 #  2DEC 0
000344:                                                                                                  # # Page 32
000345: 43,2000  04,3444               LOUNITZ            EQUALS   ZUNIT                                 #  2DEC 0
000346: 43,2000  11,3706               3/4LOWDP           EQUALS   3/4                                   #  2DEC 3.0 B-2
000347: 43,2000  30,2000                                  SBANK=   LOWSUPER
000348:
000349:
000350:                                                                                                  #  ROPE-SPECIFIC ASSIGNS OBVIATING NEED TO CHECK COMPUTER FLAG IN DETVRUZVING INTEGRATION AREA ENTRIES
000351:
000352: 43,2000  13,3036               OTHPREC            EQUALS   LEMPREC
000353: 43,2000  13,2711               ATOPOTH            EQUALS   ATOPLEM
000354: 43,2000  13,2636               ATOPTHIS           EQUALS   ATOPCSM
000355: 43,2000  0000173               MOONTHIS           EQUALS   CMOONFLG
000356: 43,2000  0000174               MOONOTH            EQUALS   LMOONFLG
000357: 43,2000  13,2651               MOVATHIS           EQUALS   MOVEACSM
000358: 43,2000  35,3204               STATEST            EQUALS   V83CALL                               #  * TEMPORARY
000359: 43,2000  13,3022               THISPREC           EQUALS   CSMPREC
000360: 43,2000  26,3327               THISAXIS           =        UNITX
000361: 43,2000     4747               ERASID             EQUALS   LOW10                                 #  DOWNLINK ERASABLE DUMP ID
000362: 43,2000     6214               DELAYNUM           EQUALS   THREE
000363:                                                                                                  #  ****************************************************************************************************************
000364:
000365:                                                                                                  #     THE FOLLOWING ECADRS ARE DEFINED TO FACILITATE EBANK SWITCHING. THEY ALSO MAKE IT EASIER FOR
000366:                                                                                                  #  ERASABLE CONTROL TO REARRANGE ERASABLE MEMORY WITHOUT DISRUPTING THE PROGRAMS WHICH SET EBANKS.
000367:                                                                                                  #  PRIOR TO ROPE RELEASE FIXED MEMORY CAN BE SAVED BY SETTING EACH EBXXXX =EBANKX (X=4,5,6,7).EBANKX OF COURSE
000368:                                                                                                  #  WILL BE THE BANK WHERE THE ERASABLES REFERENCED IN EBXXXX WILL BE STORED.
000369:
000370: 07,2000                                           BANK     7
000371: 07,2000  E7,1674                                  EBANK=   MARKDOWN
000372: 07,2000           03674        EBMARKDO           ECADR    MARKDOWN
000373: 07,2001  E7,1725                                  EBANK=   MRKBUF1
000374: 07,2001           03725        EBMRKBUF           ECADR    MRKBUF1
000375:
000376: 24,2000                                           BANK     24
000377: 24,2000  E7,1431                                  EBANK=   DVCNTR
000378: 24,2000           03431        EBDVCNTR           ECADR    DVCNTR
000379: 24,2001  E7,1672                                  EBANK=   P40TMP
000380: 24,2001           03672        EBP40TMP           ECADR    P40TMP
000381:
000382: 34,2000                                           BANK     34
000383: 34,2000  E7,1431                                  EBANK=   DVCNTR
000384: 34,2000           03431        EBDVCNT            ECADR    DVCNTR
000385: 34,2001  E5,1426                                  EBANK=   QPLACES
000386: 34,2001           02426        EBQPLACE           ECADR    QPLACES
000387:
000388: 37,2000                                           BANK     37
000389: 37,2000     1231                                  EBANK=   RN1
000390: 37,2000           01231        EBRN1              ECADR    RN1
000391:
000392:                                                                                                  #  ****************************************************************************************************************
000393:
000394:                                                                                                  # # Page 33
000395:
000396:                                                                                                  #  SUBROUTINE CALLS
000397:
000398: 37,2001                                           SUBRO    KILERASE
000399: 37,2001                                           SUBRO    KOOLADE
000400: 37,2001                                           SUBRO    SMOOCH
000401: 37,2001                                           SUBRO    PANDORA
000402: 37,2001                                           SUBRO    DAPCSM
000403: 37,2001                                           SUBRO    SATRAP
000404:
000405:
000406:                                                                                                  #  *** END OF MAIN PROGRAM ***

End of include-file TAGS_FOR_RELATIVE_SETLOC_AND_BLANK_BANK_CARDS.agc.  Parent file is MAIN.agc


