
Source Code


000002:                                                                                                  ## Copyright:   Public domain.
000003:                                                                                                  ## Filename:    TAGS_FOR_RELATIVE_SETLOC_AND_BLANK_BANK_CARDS.agc
000004:                                                                                                  ## Purpose:     Part of the source code for Colossus build 237.
000005:                                                                                                  ##              This is for the Command Module's (CM) Apollo Guidance
000006:                                                                                                  ##              Computer (AGC), for Apollo 8.
000007:                                                                                                  ## Assembler:   yaYUL
000008:                                                                                                  ## Contact:     Sergio Navarro <sergionavarrog@gmail.com>
000009:                                                                                                  ## Website:     www.ibiblio.org/apollo/index.html
000010:                                                                                                  ## Page Scans:  www.ibiblio.org/apollo/ScansForConversion/Colossus237/
000011:                                                                                                  ## Mod history: 2009-10-21 SN   Adapted from corresponding Colossus 249 file.
000012:                                                                                                  ##              2011-01-17 JL    Renamed to match 237 module name. Minor fixes.
000013:                                                                                                  ##              2016-12-29 RSB  Proofed comment text using octopus/ProoferComments,
000014:                                                                                                  ##                              and corrected errors found.
000015:


000017:
000018: ???????                        FIXED              MEMORY   120000     -          167777
000019: ???????                                           COUNT    BANKSUM
000020:
000021:                                                                                                  #           MODULE 1 CONTAINS BANKS 0 THROUGH 5
000022:
000023:    4000                                           BLOCK    02
000024:    4000                        FFTAG1             EQUALS
000025:    4000                        FFTAG2             EQUALS
000026:    4000                        FFTAG3             EQUALS
000027:    4000                        FFTAG4             EQUALS
000028:    4000                        FFTAG7             EQUALS
000029:    4000                        FFTAG8             EQUALS
000030:    4000                        FFTAG9             EQUALS
000031:    4000                        FFTAG10            EQUALS
000032:    4000                        FFTAG12            EQUALS
000033:    4000                                           BNKSUM   02
000034:
000035:
000036:    6000                                           BLOCK    03
000037:    6000                        FFTAG5             EQUALS
000038:    6000                        FFTAG6             EQUALS
000039:    6000                                           BNKSUM   03
000040:
000041:
000042: 00,2000                                           BANK     00
000043: 00,2000                        DLAYJOB            EQUALS
000044: 00,2000                                           BNKSUM   00
000045:
000046:
000047: 01,2000                                           BANK     01
000048: 01,2000                        RESTART            EQUALS
000049: 01,2000                                           BNKSUM   01
000050:
000051:
000052: 04,2000                                           BANK     4
000053: 04,2000                        VERB37             EQUALS
000054: 04,2000                        CONICS1            EQUALS
000055: 04,2000                        PINBALL4           EQUALS
000056: 04,2000                        R36LM              EQUALS
000057: 04,2000                        INTPRET2           EQUALS
000058: 04,2000                        IMUCAL1            EQUALS
000059: 04,2000                        STBLEORB           EQUALS
000060: 04,2000                        E/PROG             EQUALS
000061: 04,2000                        MIDDGIM            EQUALS
000062: 04,2000                                           BNKSUM   04
000063:


000065:
000066: 05,2000                                           BANK     5
000067: 05,2000                        FRANDRES           EQUALS
000068: 05,2000                        DOWNTELM           EQUALS
000069: 05,2000                        DAPMASS            EQUALS
000070: 05,2000                                           BNKSUM   05
000071:
000072:
000073:                                                                                                  #           MODULE 2 CONTAINS BANKS 6 THROUGH 13
000074:
000075: 06,2000                                           BANK     6
000076: 06,2000                        IMUCOMP            EQUALS
000077: 06,2000                        T4RUP              EQUALS
000078: 06,2000                        IMUCAL2            EQUALS
000079: 06,2000                                           BNKSUM   06
000080:
000081:
000082: 07,2000                                           BANK     7
000083: 07,2000                        SXTMARKE           EQUALS
000084: 07,2000                        R02                EQUALS
000085: 07,2000                        MODESW             EQUALS
000086: 07,2000                        XANG               EQUALS
000087: 07,2000                        KEYRUPT            EQUALS
000088: 07,2000                                           BNKSUM   07
000089:
000090:
000091: 10,2000                                           BANK     10
000092: 10,2000                        DISPLAYS           EQUALS
000093: 10,2000                        PHASETAB           EQUALS
000094: 10,2000                        COMGEOM2           EQUALS
000095: 10,2000                        SXTMARK1           EQUALS
000096: 10,2000                        P60S4              EQUALS
000097: 10,2000                        OPTDRV             EQUALS
000098: 10,2000                                           BNKSUM   10
000099:
000100:
000101: 11,2000                                           BANK     11
000102: 11,2000                        ORBITAL            EQUALS
000103: 11,2000                        ORBITAL1           EQUALS                                         #  CONSTANTS
000104: 11,2000                        INTVEL             EQUALS
000105: 11,2000                        S52/2              EQUALS
000106: 11,2000                                           BNKSUM   11
000107:
000108:
000109: 12,2000                                           BANK     12
000110: 12,2000                        CONICS             EQUALS


000112: 12,2000                                           BNKSUM   12
000113:
000114:
000115: 13,2000                                           BANK     13
000116: 13,2000                        P76LOC             EQUALS
000117: 13,2000                        LATLONG            EQUALS
000118: 13,2000                        INTINIT            EQUALS
000119: 13,2000                        SR52/1             EQUALS
000120: 13,2000                        ORBITAL2           EQUALS
000121: 13,2000                                           BNKSUM   13
000122:
000123:                                                                                                  #  SPACER
000124:
000125:                                                                                                  #           MODULE 3 CONTAINS BANKS 14 THROUGH 21
000126:
000127: 14,2000                                           BANK     14
000128: 14,2000                        STARTAB            EQUALS
000129: 14,2000                        RT53               EQUALS
000130: 14,2000                        P50S1              EQUALS
000131: 14,2000                                           BNKSUM   14
000132:
000133:
000134: 15,2000                                           BANK     15
000135: 15,2000                        P50S               EQUALS
000136: 15,2000                        ETRYDAP            EQUALS
000137: 15,2000                        S52/3              EQUALS
000138: 15,2000                                           BNKSUM   15
000139:
000140:
000141: 16,2000                                           BANK     16
000142: 16,2000                        P40S1              EQUALS
000143: 16,2000                        DAPROLL            EQUALS
000144: 16,2000                        P50S2              EQUALS
000145: 16,2000                                           BNKSUM   16
000146:
000147:
000148: 17,2000                                           BANK     17
000149: 17,2000                        DAPS4              EQUALS
000150: 17,2000                        DAPS5              EQUALS
000151: 17,2000                        DAPS7              EQUALS
000152: 17,2000                                           BNKSUM   17
000153:
000154:
000155: 20,2000                                           BANK     20


000157: 20,2000                        DAPS6              EQUALS
000158: 20,2000                        DAPS1              EQUALS
000159: 20,2000                        DAPS2              EQUALS
000160: 20,2000                                           BNKSUM   20
000161:
000162:
000163: 21,2000                                           BANK     21
000164: 21,2000                        DAPS3              EQUALS
000165: 21,2000                        MYSUBS             EQUALS
000166: 21,2000                                           BNKSUM   21
000167:
000168:
000169:                                                                                                  #           MODULE 4 CONTAINS BANKS 22 THROUGH 27
000170:
000171: 22,2000                                           BANK     22
000172: 22,2000                        RTBCODES           EQUALS
000173: 22,2000                        RTBCODE1           EQUALS
000174: 22,2000                        DAPS8              EQUALS
000175: 22,2000                        APOPERI            EQUALS
000176: 22,2000                        P40S5              EQUALS
000177: 22,2000                        KALCMON2           EQUALS
000178: 22,2000                        KALCMON1           EQUALS
000179: 22,2000                                           BNKSUM   22
000180:
000181:
000182: 23,2000                                           BANK     23
000183: 23,2000                        P20S2              EQUALS
000184: 23,2000                        INFLIGHT           EQUALS
000185: 23,2000                        COMGEOM1           EQUALS
000186: 23,2000                        POWFLITE           EQUALS
000187: 23,2000                        POWFLIT1           EQUALS
000188: 23,2000                        RENDGUID           EQUALS
000189: 23,2000                        POWFLIT2           EQUALS
000190: 23,2000                        R30LOC             EQUALS
000191: 23,2000                        P11FOUR            EQUALS
000192: 23,2000                                           BNKSUM   23
000193:
000194:
000195: 24,2000                                           BANK     24
000196: 24,2000                        LOADDAP            EQUALS
000197: 24,2000                        P40S               EQUALS
000198: 24,2000                                           BNKSUM   24
000199:
000200:
000201: 25,2000                                           BANK     25


000203: 25,2000                        REENTRY            EQUALS
000204: 25,2000                                           BNKSUM   25
000205:
000206:
000207: 26,2000                                           BANK     26
000208: 26,2000                        INTPRET1           EQUALS
000209: 26,2000                        REENTRY1           EQUALS
000210: 26,2000                        P60S               EQUALS
000211: 26,2000                        P60S1              EQUALS
000212: 26,2000                        P60S2              EQUALS
000213: 26,2000                        P60S3              EQUALS
000214: 26,2000                        PLANTIN            EQUALS                                         #  LUNAR ROT
000215: 26,2000                        EPHEM              EQUALS
000216: 26,2000                        P05P06             EQUALS
000217: 26,2000                        26P50S             EQUALS
000218: 26,2000                                           BNKSUM   26
000219:
000220:
000221:
000222: 27,2000                                           BANK     27
000223: 27,2000                        TOF-FF             EQUALS
000224: 27,2000                        TOF-FF1            EQUALS
000225: 27,2000                        MANUVER            EQUALS
000226: 27,2000                        MANUVER1           EQUALS
000227: 27,2000                        VECPT              EQUALS
000228: 27,2000                        UPDATE1            EQUALS
000229: 27,2000                        UPDATE2            EQUALS
000230: 27,2000                        R22S1              EQUALS
000231: 27,2000                        P60S5              EQUALS
000232: 27,2000                                           BNKSUM   27
000233:
000234:
000235:                                                                                                  #           MODULE 5 CONTAINS BANKS 30 THROUGH 35
000236:
000237: 30,2000                                           BANK     30
000238: 30,2000                        IMUSUPER           EQUALS
000239: 30,2000                        LOWSUPER           EQUALS
000240: 30,2000                        FCSTART            EQUALS                                         #  STANDARD LOCATION FOR THIS.  (FOR EXTVB)
000241: 30,2000                        LOPC               EQUALS
000242: 30,2000                        P20S1              EQUALS
000243: 30,2000                        P20S6              EQUALS
000244: 30,2000                        P40S3              EQUALS
000245: 30,2000                        R35A               EQUALS
000246: 30,2000                                           BNKSUM   30
000247:
000248:
000249: 31,2000                                           BANK     31


000251: 31,2000                        R35                EQUALS
000252: 31,2000                        RT23               EQUALS
000253: 31,2000                        P30S1A             EQUALS
000254: 31,2000                        R34                EQUALS
000255: 31,2000                                           BNKSUM   31
000256:
000257:
000258: 32,2000                                           BANK     32
000259: 32,2000                        MSGSCAN1           EQUALS
000260: 32,2000                        RTE                EQUALS
000261: 32,2000                        DELRSPL1           EQUALS
000262: 32,2000                        IMUCAL3            EQUALS
000263: 32,2000                                           BNKSUM   32
000264:
000265:
000266: 33,2000                                           BANK     33
000267: 33,2000                        TESTLEAD           EQUALS
000268: 33,2000                        IMUCAL             EQUALS
000269: 33,2000                                           BNKSUM   33
000270:
000271:
000272: 34,2000                                           BANK     34
000273: 34,2000                        P11ONE             EQUALS
000274: 34,2000                        P20S3              EQUALS
000275: 34,2000                        P20S4              EQUALS
000276: 34,2000                        RTECON             EQUALS
000277: 34,2000                                           BNKSUM   34
000278:
000279:
000280: 35,2000                                           BANK     35
000281: 35,2000                        RTECON1            EQUALS
000282: 35,2000                        CSI/CDH            EQUALS
000283: 35,2000                        P30S1              EQUALS
000284: 35,2000                        P30S               EQUALS
000285: 35,2000                        R31                EQUALS
000286: 35,2000                        P17S1              EQUALS
000287: 35,2000                                           BNKSUM   35
000288:
000289:
000290:                                                                                                  #           MODULE 6 CONTAINS BANKS 36 THROUGH 43
000291:
000292: 36,2000                                           BANK     36
000293: 36,2000                        MEASINC            EQUALS
000294: 36,2000                        MEASINC1           EQUALS
000295: 36,2000                        P17S               EQUALS
000296: 36,2000                        RTE1               EQUALS
000297: 36,2000                                           BNKSUM   36
000298:


000300:
000301: 37,2000                                           BANK     37
000302: 37,2000                        P20S               EQUALS
000303: 37,2000                        BODYATT            EQUALS
000304: 37,2000                        RENDEZ             EQUALS
000305: 37,2000                        SERVICES           EQUALS
000306: 37,2000                        P11TWO             EQUALS
000307: 37,2000                                           BNKSUM   37
000308:
000309:
000310: 40,2000                                           BANK     40
000311: 40,2000                        PINSUPER           EQUALS
000312: 40,2000                        SELFSUPR           EQUALS
000313: 40,2000                        PINBALL1           EQUALS
000314: 40,2000                                           BNKSUM   40
000315:
000316:
000317: 41,2000                                           BANK     41
000318: 41,2000                        PINBALL2           EQUALS
000319: 41,2000                                           BNKSUM   41
000320:
000321:
000322: 42,2000                                           BANK     42
000323: 42,2000                        SBAND              EQUALS
000324: 42,2000                        PINBALL3           EQUALS
000325: 42,2000                        EXTVBS             EQUALS
000326: 42,2000                                           BNKSUM   42
000327:
000328:
000329: 43,2000                                           BANK     43
000330: 43,2000                        SELFCHEC           EQUALS
000331: 43,2000                        EXTVERBS           EQUALS
000332: 43,2000                                           BNKSUM   43
000333:
000334:
000335: 43,2000  26,3331               HI6ZEROS           EQUALS   ZEROVECS                              #  ZERO VECTOR ALWAYS IN HIGH MEMORY
000336: 43,2000  04,3452               LO6ZEROS           EQUALS   ZEROVEC                               #  ZERO VECTOR ALWAYS IN LOW MEMORY
000337: 43,2000  26,3327               HIDPHALF           EQUALS   UNITX
000338: 43,2000  04,3450               LODPHALF           EQUALS   XUNIT
000339: 43,2000  26,3321               HIDP1/4            EQUALS   DP1/4TH
000340: 43,2000  04,3476               LODP1/4            EQUALS   D1/4                                  #  2DEC .25
000341: 43,2000  26,3327               HIUNITX            EQUALS   UNITX
000342: 43,2000  26,3325               HIUNITY            EQUALS   UNITY
000343: 43,2000  26,3323               HIUNITZ            EQUALS   UNITZ
000344: 43,2000  04,3450               LOUNITX            EQUALS   XUNIT                                 #  2DEC .5
000345: 43,2000  04,3446               LOUNITY            EQUALS   YUNIT                                 #  2DEC 0


000347: 43,2000  04,3444               LOUNITZ            EQUALS   ZUNIT                                 #  2DEC 0
000348: 43,2000  11,3706               3/4LOWDP           EQUALS   3/4                                   #  2DEC 3.0 B-2
000349: 43,2000  30,2000                                  SBANK=   LOWSUPER
000350:
000351:
000352:                                                                                                  #  ROPE SPECIFIC ASSIGNS OBVIATING NEED TO CHECK COMPUTER FLAG IN DETVRUZVING INTEGRATION AREA ENTRIES
000353:
000354: 43,2000  13,3036               OTHPREC            EQUALS   LEMPREC
000355: 43,2000  13,2711               ATOPOTH            EQUALS   ATOPLEM
000356: 43,2000  13,2636               ATOPTHIS           EQUALS   ATOPCSM
000357: 43,2000  0000173               MOONTHIS           EQUALS   CMOONFLG
000358: 43,2000  0000174               MOONOTH            EQUALS   LMOONFLG
000359: 43,2000  13,2651               MOVATHIS           EQUALS   MOVEACSM
000360: 43,2000  35,3204               STATEST            EQUALS   V83CALL                               #  * TEMPORARY
000361: 43,2000  13,3022               THISPREC           EQUALS   CSMPREC
000362: 43,2000  26,3327               THISAXIS           =        UNITX
000363: 43,2000     4747               ERASID             EQUALS   LOW10                                 #  DOWNLINK ERASABLE DUMP ID
000364: 43,2000     6214               DELAYNUM           EQUALS   THREE
000365:                                                                                                  #  ****************************************************************************************************************
000366:
000367:                                                                                                  #     THE FOLLOWING ECADRS ARE DEFINED TO FACILITATE EBANK SWITCHING. THEY ALSO MAKE IT EASIER FOR
000368:                                                                                                  #  ERASABLE CONTROL TO REARRANGE ERASABLE MEMORY WITHOUT DISRUPTING THE PROGRAMS WHICH SET EBANKS.
000369:                                                                                                  #  PRIOR TO ROPE RELEASE FIXED MEMORY CAN BE SAVED BY SETTING EACH EBXXXX =EBANKX (X=4,5,6,7).EBANKX OF COURSE
000370:                                                                                                  #  WILL BE THE BANK WHERE THE ERASABLES REFERENCED IN EBXXXX WILL BE STORED.
000371:
000372: 07,2000                                           BANK     7
000373: 07,2000  E7,1674                                  EBANK=   MARKDOWN
000374: 07,2000           03674        EBMARKDO           ECADR    MARKDOWN
000375: 07,2001  E7,1725                                  EBANK=   MRKBUF1
000376: 07,2001           03725        EBMRKBUF           ECADR    MRKBUF1
000377:
000378: 24,2000                                           BANK     24
000379: 24,2000  E7,1431                                  EBANK=   DVCNTR
000380: 24,2000           03431        EBDVCNTR           ECADR    DVCNTR
000381: 24,2001  E7,1672                                  EBANK=   P40TMP
000382: 24,2001           03672        EBP40TMP           ECADR    P40TMP
000383:
000384: 34,2000                                           BANK     34
000385: 34,2000  E7,1431                                  EBANK=   DVCNTR
000386: 34,2000           03431        EBDVCNT            ECADR    DVCNTR
000387: 34,2001  E5,1426                                  EBANK=   QPLACES
000388: 34,2001           02426        EBQPLACE           ECADR    QPLACES
000389:
000390: 37,2000                                           BANK     37
000391: 37,2000     1231                                  EBANK=   RN1
000392: 37,2000           01231        EBRN1              ECADR    RN1
000393:
000394:                                                                                                  #  ****************************************************************************************************************
000395:


000397: 37,2001                                           SUBRO    KILERASE
000398: 37,2001                                           SUBRO    KOOLADE
000399: 37,2001                                           SUBRO    SMOOCH
000400: 37,2001                                           SUBRO    PANDORA
000401: 37,2001                                           SUBRO    DAPCSM
000402: 37,2001                                           SUBRO    SATRAP
000403:

End of include-file TAGS_FOR_RELATIVE_SETLOC_AND_BLANK_BANK_CARDS.agc.  Parent file is MAIN.agc


