
Source Code


000002:                                                                                                  ## Copyright:   Public domain.
000003:                                                                                                  ## Filename:    TPI_SEARCH.agc
000004:                                                                                                  ## Purpose:     Part of the source code for Colossus build 237.
000005:                                                                                                  ##              This is for the Command Module's (CM) Apollo Guidance
000006:                                                                                                  ##              Computer (AGC), for Apollo 8.
000007:                                                                                                  ## Assembler:   yaYUL
000008:                                                                                                  ## Contact:     Jim Lawton <jim DOT lawton AT gmail DOT com>
000009:                                                                                                  ## Website:     www.ibiblio.org/apollo/index.html
000010:                                                                                                  ## Page Scans:  www.ibiblio.org/apollo/ScansForConversion/Colossus237/
000011:                                                                                                  ## Mod history: 2011-02-14 JL   Adapted from corresponding Colossus 249 file.
000012:                                                                                                  ##              2016-12-31 RSB  Proofed comment text using octopus/ProoferComments,
000013:                                                                                                  ##                              and corrected errors found.
000014:


000016:                                                                                                  #  PROGRAM DESCRIPTION S17.1 AND S17.2
000017:
000018:                                                                                                  #  FUNCTIONAL DESCRIPTION
000019:
000020:                                                                                                  #           THE TPI SEARCH ROUTINE DETERMINES THE MINIMUM TOTAL VELOCITY TRANSFER TRAJECTORY FROM A GIVEN TPI
000021:                                                                                                  #  MANEUVER TIME WITHIN THE CONSTRAINT OF A SAFE PERICENTER.  THIS VELOCITY IS THE SUM OF THE IMPULSIVE VELOCITIES
000022:                                                                                                  #  FOR THE TPI AND TPF MANEUVERS.
000023:                                                                                                  #           THE S17.1 ROUTINE EXTRAPOLATES THE STATE VECTORS OF BOTH VEHICLES TO THE TPI TIME AND COMPUTES THE
000024:                                                                                                  #  RELATIVE PHASE ANGLE BETWEEN THE VEHICLES, THE ALTITUDE DIFFERENCE(I.E. THE MAGNITUDE DIFFERENCE OF THE
000025:                                                                                                  #  POSITION VECTORS) AND SELECTS A SEARCH SECTOR BASED ON THE SIGN OF THE ALTITUDE DIFFERENCE.
000026:                                                                                                  #           THE S17.2 ROUTINE FURTHER DEFINES THE SEARCH SECTOR BY COMPUTING ANGULAR LIMITS AND USES THE TIME THETA
000027:                                                                                                  #  SUBROUTINE TO COMPUTE THE SEARCH START AND END TIMES.  THE SEARCH IS THEN MADE IN AN ITERATIVE LOOP USING THE
000028:                                                                                                  #  LAMBERT SUBROUTINE TO COMPUTE THE VELOCITIES REQUIRED AT TPI TIME AND AT TPF TIME.  EXIT FROM THE SEARCH LOOP
000029:                                                                                                  #  IS MADE WHEN SOLUTION CRITERIA ARE MET (NORMAL EXIT) OR AS SOON AS IT IS EVIDENT THAT NO SOLUTION EXISTS IN
000030:                                                                                                  #  THE SECTOR SEARCHED.
000031:
000032:                                                                                                  #  CALLING SEQUENCE
000033:
000034:                                                                                                  #           BOTH ROUTINES ARE CALLED IN INTERPRETIVE CODE AND RETURN VIA QPRET.  S17.1 HAS ONLY A NORMAL EXIT.
000035:                                                                                                  #  S17.2 RETURNS VIA QPRET FOR NORMAL EXIT AND TO ALARUMS FOR ERROR EXIT.
000036:                                                                                                  #  SUBROUTINES CALLED
000037:
000038:                                                                                                  #           CSMCONIC
000039:                                                                                                  #           LEMCONIC
000040:                                                                                                  #           TIMETHET
000041:                                                                                                  #           INITVEL
000042:
000043: 36,2000                                           BANK     36
000044: 36,2000                                           SETLOC   P17S
000045: 36,2000                                           BANK
000046:
000047: 36,2000                                           COUNT    36/TPI
000048:
000049: 36,2000  E7,1537                                  EBANK=   RACT3
000050:
000051:                                                                                                  #        **** TEMPORARY ****
000052:
000053: 36,2000           00004 31566  HPE                2DEC     157420.0   B-29                       #  EARTH'S MIN. PERICENTER ALTITUDE 85 N.M.
000054:
000055: 36,2002           00000 12326  HPL                2DEC     10668.0213 B-29                       #  MOON:S MIN. PERICENTER ALTITUDE 35000FT
000056: 36,2004           00002 16100  CDSEC              2DEC     40000      B-28
000057: 36,2006           00000 35230  CLSEC              2DEC     15000      B-28
000058: 36,2010           12137 06033  PIINVERS           2DEC     .3183098862
000059: 36,2012           06161 30707  SEC1THET           2DEC     .1944444444


000061: 36,2014           35252 25253  SEC2THET           2DEC     .9166666667
000062: 36,2016           67777 77777  MANYFEET           2DEC     -1.0       B-2
000063: 36,2020           00000 30760  LIMVEL             2DEC     .6096      E-2        B-7             #  2FPS
000064: 36,2022           00000 00114  DFTMOON            2DEC     .1524      E3         B-29            #  500 FEET
000065: 36,2024           00040 30447  DP-.002            2DEC     0.002
000066: 36,2026           71220        S17.1              STQ      DLOAD
000067: 36,2027           01340                                    NORMEX
000068: 36,2030           03663                                    TTPI
000069: 36,2031           34041                           STCALL   TDEC1                                 #  ADVANCE PASSIVE VEHICLE  TO TPI
000070: 36,2032           27057                                    LEMCONIC
000071: 36,2033           77624                           CALL
000072: 36,2034           45372                                    LEMSTORE
000073: 36,2035           77745                           DLOAD
000074: 36,2036           03663                                    TTPI
000075: 36,2037           34041                           STCALL   TDEC1                                 #  ADVANCE  ACTIVE VEHICLE TO TPI
000076: 36,2040           27045                                    CSMCONIC
000077: 36,2041           77624                           CALL
000078: 36,2042           45402                                    CSMSTORE
000079: 36,2043           77775                           VLOAD
000080: 36,2044           03540                                    RACT3
000081: 36,2045           63246                           ABVAL    PDVL                                  #   /RA/ 0D                         PL  2D
000082: 36,2046           03554                                    RPASS3
000083: 36,2047           65256                           UNIT     PDDL                                  #   UNIT RP 0D                      PL  6D
000084: 36,2050           43021                           BDSU     SET
000085: 36,2051           00045                                    36D                                   #  /RP/ -/RA/
000086: 36,2052           00076                                    KFLAG                                 #   OFF = +
000087: 36,2053           43040                           BMN      CLEAR
000088: 36,2054           74056                                    +2
000089: 36,2055           00276                                    KFLAG                                 #   ON = -
000090: 36,2056           27754                           STOVL    DELHITE
000091: 36,2057           00001                                    0D
000092: 36,2060           53435                           VXV      UNIT
000093: 36,2061           03562                                    VPASS3
000094: 36,2062           27646                           STOVL    E2                                    #  ALMOST IT SAVE FOR 17.2
000095: 36,2063           03540                                    RACT3
000096: 36,2064           46206                           PUSH     VPROJ
000097: 36,2065           03646                                    E2
000098: 36,2066           51352                           VSL2     BVSU                                  #  RPA
000099: 36,2067           50256                           UNIT     DOT
000100: 36,2070           00001                                    0D
000101: 36,2071           65552                           SL1      ACOS
000102: 36,2072           77715                           PDVL
000103: 36,2073           50235                           VXV      DOT
000104: 36,2074           03540                                    RACT3
000105: 36,2075           03646                                    E2


000107: 36,2076           75325                           PDDL     SIGN
000108: 36,2077           77626                           STADR
000109: 36,2100           61160                           STODL    THETZERO                              #  CENTRAL ANGLE
000110: 36,2101           00047                                    X1
000111: 36,2102           37746                           STCALL   XRS                                   #  SAVE INDICES FOR FURTHER USE
000112: 36,2103           01340                                    NORMEX                                #   += ACTIVE AHEAD   -= ACTIVE BEHIND
000113: 36,2104           77220        S17.2              STQ      VLOAD                                 #  COMPUTE SEARCH SECTOR LIMITS
000114: 36,2105           03657                                    QTEMP
000115: 36,2106           03540                                    RACT3
000116: 36,2107           50256                           UNIT     DOT
000117: 36,2110           03646                                    E2
000118: 36,2111           75446                           ABS      SQRT
000119: 36,2112           43352                           SL1      DAD
000120: 36,2113           34025                                    DP-.002                               #  ADD .002 RADIANS TO IT
000121: 36,2114           57414                           BON      DCOMP                                 #  GIVES CORRECT SINE, COSINE MUST BE
000122: 36,2115           00316                                    KFLAG                                 #  COMP. ADD .5 FOR ANGLE
000123: 36,2116           74117                                    +1
000124:                                                                                                  #  PHI(0)=180-(-(THETAZERO +K5IT)), PHI(I)=180-(-(THETAZERO+K2IT))
000125:                                                                                                  #  SIN(180-ALPHA)=SIN(ALPHA) ETC
000126: 36,2117           40205                           DMP      SETPD
000127: 36,2120           34011                                    PIINVERS                              #  REVOLUTIONARY HERES TWO IT
000128: 36,2121           00001                                    0D
000129: 36,2122           45206                           PUSH     DSU
000130: 36,2123           02617                                    THETZERO
000131: 36,2124           02611                           STORE    IT                                    #  PHI(I) , -(THETZERO + K2IT)
000132: 36,2125           41525                           PDDL     PUSH
000133: 36,2126           43342                           SR1      DAD
000134: 36,2127           41415                           DAD      PUSH                                  #  PHI(0) , -(THETZERO + K5IT)
000135: 36,2130           43156                           SIN      SET
000136: 36,2131           03466                                    RVSW
000137: 36,2132           16732                           STODL    SNTH
000138: 36,2133           50146                           COS      BMN
000139: 36,2134           74136                                    +2
000140: 36,2135           77676                           DCOMP
000141: 36,2136           16734                           STODL    CSTH
000142: 36,2137           03746                                    XRS
000143: 36,2140           24047                           STOVL    X1
000144: 36,2141           03554                                    RPASS3
000145: 36,2142           77657                           VSR*
000146: 36,2143           57176                                    0,2
000147: 36,2144           26657                           STOVL    RVEC
000148: 36,2145           03562                                    VPASS3
000149: 36,2146           77657                           VSR*
000150: 36,2147           57176                                    0,2
000151: 36,2150           36746                           STCALL   VVEC
000152: 36,2151           24737                                    TIMETHET
000153: 36,2152           77745                           DLOAD                                          #  SAVE START TIME AND GET END TIME
000154: 36,2153           00037                                    T
000155: 36,2154           03752                           STORE    TF
000156: 36,2155           16627                           STODL    TFO


000158: 36,2156           02611                                    IT
000159: 36,2157           73406                           PUSH     SIN
000160: 36,2160           16732                           STODL    SNTH
000161: 36,2161           50146                           COS      BMN
000162: 36,2162           74164                                    +2
000163: 36,2163           77676                           DCOMP
000164: 36,2164           02734                           STORE    CSTH
000165: 36,2165           45150                           LXA,1    CALL
000166: 36,2166           03745                                    XRS
000167: 36,2167           24737                                    TIMETHET
000168:                                                                                                  #  INITIALIZE LOOP
000169: 36,2170           43145                           DLOAD    CLEAR
000170: 36,2171           00037                                    T
000171: 36,2172           03661                                    ITSWICH
000172: 36,2173           16621                           STODL    TFI                                   #  SAVE TIME FOR LOOP TEST
000173: 36,2174           15340                                    DPPOSMAX
000174: 36,2175           16623                           STODL    DELVEE
000175: 36,2176           34017                                    MANYFEET
000176: 36,2177           16625                           STODL    HP
000177: 36,2200           34013                                    SEC1THET                              #  70 DEGREES
000178: 36,2201           71214                           BON      DLOAD
000179: 36,2202           00316                                    KFLAG
000180: 36,2203           74205                                    +2
000181: 36,2204           34015                                    SEC2THET                              #  330 DEGREES
000182: 36,2205           37750                           STCALL   THETL
000183: 36,2206           74230                                    CONCAUL
000184: 36,2207           70545        BIS                DLOAD    SR1
000185: 36,2210           02734                                    CSTH
000186: 36,2211           14021                           STODL    COSTH
000187: 36,2212           02732                                    SNTH
000188: 36,2213           77742                           SR1
000189: 36,2214           34023                           STCALL   SINTH                                 #  GET 4 QUADRANT THETA
000190: 36,2215           47211                                    ARCTRIG
000191: 36,2216           43244                           BPL      DAD
000192: 36,2217           74221                                    +2
000193: 36,2220           15340                                    DPPOSMAX                              #  PUT THETA BETWEEN 0,1
000194: 36,2221           65221                           BDSU     PDDL
000195: 36,2222           03750                                    THETL
000196: 36,2223           03752                                    TF
000197: 36,2224           75225                           DSU      SIGN                                  #  FAST TIMES
000198: 36,2225           02621                                    TFI
000199: 36,2226           77640                           BMN
000200: 36,2227           74432                                    RNGETEST                              #  TIME MUST HAVE A STOP
000201:                                                                                                  #  ADVANCE PASSIVE FOR TARGET VECTOR
000202: 36,2230           77745        CONCAUL            DLOAD
000203: 36,2231           03663                                    TTPI
000204: 36,2232           43015                           DAD      BON
000205: 36,2233           03752                                    TF
000206: 36,2234           01312                                    AVFLAG
000207: 36,2235           74242                                    ADVCSM


000209: 36,2236           34041                           STCALL   TDEC1
000210: 36,2237           27057                                    LEMCONIC
000211: 36,2240           77650                           GOTO
000212: 36,2241           74244                                    JUNCT3
000213: 36,2242           34041        ADVCSM             STCALL   TDEC1
000214: 36,2243           27045                                    CSMCONIC
000215:                                                                                                  #  SAVE BACK VALUES OF HP AND DELVEE
000216: 36,2244           77775        JUNCT3             VLOAD
000217: 36,2245           00007                                    VATT
000218: 36,2246           27640                           STOVL    VPASS4
000219: 36,2247           00001                                    RATT
000220: 36,2250           03632                           STORE    RPASS4
000221: 36,2251           17415                           STODL    RTARG
000222: 36,2252           03752                                    TF
000223: 36,2253           17423                           STODL    DELLT4
000224: 36,2254           02625                                    HP
000225: 36,2255           16631                           STODL    HPO
000226: 36,2256           02623                                    DELVEE
000227: 36,2257           16633                           STODL    DELVEO
000228:                                                                                                  #  PREPARE FOR LAMBERT
000229: 36,2260           03663                                    TTPI
000230: 36,2261           17503                           STODL    INTIME
000231: 36,2262           03746                                    XRS
000232: 36,2263           17746                           STODL    RTX1
000233: 36,2264           15332                                    HI6ZEROS
000234: 36,2265           65201                           SETPD    PDDL
000235: 36,2266           00001                                    0D
000236: 36,2267           33147                                    EPSFOUR
000237: 36,2270           77715                           PDVL
000238: 36,2271           03540                                    RACT3
000239: 36,2272           27570                           STOVL    RINIT
000240: 36,2273           03546                                    VACT3
000241: 36,2274           37576                           STCALL   VINIT
000242: 36,2275           22000                                    INITVEL
000243:                                                                                                  #  COMPUTE H ET CETERA
000244: 36,2276           52375                           VLOAD    VSU
000245: 36,2277           03620                                    VTPRIME
000246: 36,2300           03640                                    VPASS4
000247: 36,2301           41446                           ABVAL    PUSH
000248: 36,2302           26637                           STOVL    RELDELV                               #  /V2-VP(TPI+TF)/
000249: 36,2303           03646                                    DELVEET3                              #  V1-VA
000250: 36,2304           77646                           ABVAL                                          #  /V1-VA/
000251: 36,2305           02635                           STORE    MAGVTPI
000252: 36,2306           45415                           DAD      STADR
000253: 36,2307           61154                           STODL    DELVEE
000254: 36,2310           03746                                    XRS
000255: 36,2311           24047                           STOVL    X1
000256: 36,2312           03612                                    VIPRIME
000257: 36,2313           77657                           VSR*
000258: 36,2314           57176                                    0,2


000260: 36,2315           26746                           STOVL    VVEC
000261: 36,2316           03540                                    RACT3
000262: 36,2317           77657                           VSR*
000263: 36,2320           57176                                    0,2
000264: 36,2321           36657                           STCALL   RVEC
000265: 36,2322           45322                                    PERIAPO
000266: 36,2323           71354                           LXA,2    DLOAD
000267: 36,2324           03746                                    XRS        +1
000268: 36,2325           77657                           SL*
000269: 36,2326           57576                                    0,2
000270: 36,2327           02625                           STORE    HP
000271:                                                                                                  #  ITSWICH DENOTES INTERPOLATION--SOLUTION ACCEPTANCE IS FORCED
000272: 36,2330           71214                           BON      DLOAD
000273: 36,2331           03701                                    ITSWICH
000274: 36,2332           74443                                    ENDEN
000275: 36,2333           02321                                    HPERMIN
000276: 36,2334           50025                           DSU      BMN
000277: 36,2335           02625                                    HP
000278: 36,2336           74401                                    HALFSAFE
000279: 36,2337           45325                           PDDL     DSU                                   #  WAS PERICENTER ALT SAFE
000280: 36,2340           02321                                    HPERMIN
000281: 36,2341           02631                                    HPO
000282: 36,2342           45240                           BMN      DSU                                   #  (HPLIM-HPO)-(HPLIM-HP)=HP-HPO
000283: 36,2343           74360                                    INTERP                                #  SOLUTION AT HAND
000284: 36,2344           71240                           BMN      DLOAD
000285: 36,2345           73534                                    ALARUMS                               #  ITS GETTING WORSE - SOUND THE ALARM
000286: 36,2346           34005                                    CDSEC
000287: 36,2347           57414        JUNCT1             BOFF     DCOMP                                 #  OFF IS PLUS ON IS MINUS
000288: 36,2350           00356                                    KFLAG
000289: 36,2351           74352                                    +1
000290: 36,2352           03744                           STORE    DELTEE
000291: 36,2353           43345        JUNCT2             DLOAD    DAD
000292: 36,2354           03744                                    DELTEE
000293: 36,2355           03752                                    TF
000294: 36,2356           37752                           STCALL   TF
000295: 36,2357           74207                                    BIS                                   #  RECYCLE
000296: 36,2360           45214        INTERP             SET      DSU                                   #  HP-HPO
000297: 36,2361           03461                                    ITSWICH
000298: 36,2362           65301                           NORM     PDDL
000299: 36,2363           00047                                    X1
000300: 36,2364           34023                                    DFTMOON
000301: 36,2365           45215                           DAD      DSU
000302: 36,2366           02321                                    HPERMIN
000303: 36,2367           02625                                    HP
000304: 36,2370           70501                           NORM     SR1
000305: 36,2371           00050                                    X2
000306: 36,2372           56264                           XSU,2    DDV
000307: 36,2373           00046                                    X1
000308: 36,2374           53605                           DMP      SR*
000309: 36,2375           03744                                    DELTEE


000311: 36,2376           57177                                    0          -1,2
000312: 36,2377           37744                           STCALL   DELTEE
000313: 36,2400           74353                                    JUNCT2
000314: 36,2401           45325        HALFSAFE           PDDL     DSU                                   #  SAVE HP-HPLIM FOR POSSIBLE
000315: 36,2402           02623                                    DELVEE
000316: 36,2403           02633                                    DELVEO                                #  SAVE THIS TOO
000317: 36,2404           51406                           PUSH     ABS
000318: 36,2405           50025                           DSU      BMN
000319: 36,2406           34021                                    LIMVEL                                #  2 FT PS
000320: 36,2407           74443                                    ENDEN
000321: 36,2410           45345                           DLOAD    DSU
000322: 36,2411           02321                                    HPERMIN
000323: 36,2412           02631                                    HPO
000324: 36,2413           77725                           PDDL
000325: 36,2414           71240                           BMN      DLOAD
000326: 36,2415           74424                                    LRGRDVO
000327: 36,2416           71244                           BPL      DLOAD
000328: 36,2417           74360                                    INTERP
000329: 36,2420           03744                                    DELTEE
000330: 36,2421           57542                           SR1      DCOMP
000331: 36,2422           37744                           STCALL   DELTEE
000332: 36,2423           74353                                    JUNCT2
000333: 36,2424           77745        LRGRDVO            DLOAD
000334: 36,2425           71240                           BMN      DLOAD
000335: 36,2426           74353                                    JUNCT2
000336: 36,2427           34007                                    CLSEC
000337: 36,2430           77650                           GOTO
000338: 36,2431           74347                                    JUNCT1
000339:                                                                                                  #  TIME RAN OUT ASSUME SOLUTION IF SAFE PERICENTER
000340: 36,2432           45345        RNGETEST           DLOAD    DSU
000341: 36,2433           02625                                    HP
000342: 36,2434           02321                                    HPERMIN
000343: 36,2435           71240                           BMN      DLOAD
000344: 36,2436           73534                                    ALARUMS
000345: 36,2437           03752                                    TF
000346: 36,2440           77625                           DSU
000347: 36,2441           03744                                    DELTEE
000348: 36,2442           03752                           STORE    TF                                    #  TIME OF SOLUTION
000349: 36,2443           77775        ENDEN              VLOAD
000350: 36,2444           03620                                    VTPRIME
000351: 36,2445           65241                           DOT      PDDL                                  #  SG2 WITH MAGNITUDE
000352: 36,2446           03632                                    RPASS4
000353: 36,2447           02637                                    RELDELV
000354: 36,2450           45565                           SIGN     STADR                                 #  NOW SIGN(RELDELV)=SIGN(SG2)
000355: 36,2451           41140                           STCALL   RELDELV
000356: 36,2452           16440                                    TRANSANG                              #  COMPUTE OMEGA T , CENTRAL ANGLE
000357: 36,2453           50375                           VLOAD    DOT
000358: 36,2454           03540                                    RACT3
000359: 36,2455           03612                                    VIPRIME                               #  SG1
000360: 36,2456           51165                           SIGN     BPL                                   #  IF POSITIVE THEN SG1 = SG2 OTHERWISE


000362: 36,2457           02637                                    RELDELV
000363: 36,2460           74470                                    USEKAY                                #  SIGN(SG2-SG1)=SIGN(SG2)=SIGN(RELDELV)
000364: 36,2461           57535                           SLOAD    DCOMP
000365: 36,2462           33144                                    DECTWO
000366: 36,2463           51165                           SIGN     BPL
000367: 36,2464           02637                                    RELDELV
000368: 36,2465           74476                                    NEXUS
000369: 36,2466           52076                           DCOMP    GOTO
000370: 36,2467           74474                                    USEKAY     +4
000371: 36,2470           43135        USEKAY             SLOAD    BON
000372: 36,2471           33144                                    DECTWO
000373: 36,2472           00316                                    KFLAG
000374: 36,2473           74476                                    NEXUS
000375: 36,2474           77625                           DSU
000376: 36,2475           36100                                    P21ONENN
000377: 36,2476           17646        NEXUS              STODL    NN1
000378: 36,2477           02625                                    HP
000379: 36,2500           36641                           STCALL   POSTTPI
000380: 36,2501           03657                                    QTEMP
000381: 07,2440                                           BANK     07
000382: 07,2000                                           SETLOC   XANG
000383: 07,2000                                           BANK
000384: 07,2440                                           COUNT    07/XANG
000385:
000386:                                                                                                  #  CENTRAL ANGLE SUBROUTINE
000387:                                                                                                  #          THIS SUBROUTINE COMPUTES THE CENTRAL ANGLE OF TRAVEL OF THE
000388:                                                                                                  #  PASSIVE VEHICLE DURING THE TRANSFER.
000389:
000390: 07,2440           40220        TRANSANG           STQ      SETPD
000391: 07,2441           02370                                    SUBEXIT
000392: 07,2442           00001                                    0
000393: 07,2443           73150                           LXA,1    LXA,2
000394: 07,2444           03745                                    XRS
000395: 07,2445           03746                                    XRS        +1
000396: 07,2446           53775                           VLOAD    VSR*
000397: 07,2447           03640                                    VPASS4
000398: 07,2450           57176                                    0,2
000399: 07,2451           22746                           STODL*   VVEC
000400: 07,2452           11630                                    MUTABLE    +2,1
000401: 07,2453           53715                           PDVL     VSR*                                  #  SQRT MU  (+18 OR +15)          00D
000402: 07,2454           03632                                    RPASS4
000403: 07,2455           57176                                    0,2
000404: 07,2456           64646                           ABVAL    PDDL*                                 #  MAGNITUDE OF R  (+29 OR +27)   02D
000405: 07,2457           11626                                    MUTABLE,1
000406: 07,2460           47515                           PDVL     VSQ                                   #  1/MU  (+34 OR +28)             04D
000407: 07,2461           02746                                    VVEC
000408: 07,2462           57301                           NORM     DMPR                                  #  PUSH LIST AT 02D
000409: 07,2463           00047                                    X1
000410: 07,2464           53605                           DMP      SRR*
000411: 07,2465           00003                                    02D


000413: 07,2466           21576                                    0          -3,1
000414: 07,2467           77621                           BDSU                                           #  R V**/MU  (+6)
000415: 07,2470           11503                                    D1/32
000416: 07,2471           65301                           NORM     PDDL
000417: 07,2472           00047                                    X1                                    #  (2 - R V**/MU)     (+6-N)
000418: 07,2473           56362                           SR1R     DDV                                   #  MAGNITUDE OF R     (+30 OR +28)
000419: 07,2474           41457                           SL*      PUSH                                  #  R/(2 - R V**/MU)   (+29 OR +27)02D
000420: 07,2475           20174                                    0          -5,1
000421: 07,2476           75542                           SR1      SQRT
000422: 07,2477           77605                           DMP
000423: 07,2500           65301                           NORM     PDDL                                  #  ASUBP***                       00D
000424: 07,2501           00047                                    X1
000425: 07,2502           56342                           SR1      DDV
000426: 07,2503           53605                           DMP      SL*
000427: 07,2504           03752                                    TF
000428: 07,2505           20201                                    0,1
000429: 07,2506           60325                           PDDL     NORM
000430: 07,2507           11515                                    2PISC
000431: 07,2510           00047                                    X1
000432: 07,2511           56325                           PDDL     DDV
000433: 07,2512           77657                           SL*
000434: 07,2513           20176                                    0          -3,1                       #  CENTANG = (SQRT(MU/ASUP***)TF)
000435: 07,2514           37754                           STCALL   CENTANG                               #  IN REVOLUTIONS B-0
000436: 07,2515           02370                                    SUBEXIT
000437: 35,3431                                           BANK     35
000438: 35,2000                                           SETLOC   P17S1
000439: 35,2000                                           BANK
000440: 35,3431                                           COUNT    35/P17
000441:
000442:                                                                                                  #  TPI SEARCH DISPLAY ROUTINE
000443:
000444: 35,3431           03726        P17                TC       AVFLAGA                               #  AVFLAG = CSM , SET TRACK + UPDATE FLAGS
000445: 35,3432           03434                           TC       P17.1
000446: 35,3433           03741        P77                TC       AVFLAGP                               #  AVFLAG = LEM , SET TRACK + UPDATE FLAGS
000447: 35,3434           03746        P17.1              TC       P20FLGON                              #   SET UPDATE FLAG
000448: 35,3435           33125                           CAF      V06N37                                #   DISPLAY TTPI TIME
000449: 35,3436           03114                           TC       VNPOOH
000450: 35,3437           06006                           TC       INTPRET
000451: 35,3440           45014                           CLEAR    CALL
000452: 35,3441           00670                                    UPDATFLG
000453: 35,3442           74026                                    S17.1                                 #  UPDATE STATE VECTORS TO TTPI
000454: 35,3443           76014                           SET      AXT,1
000455: 35,3444           00470                                    UPDATFLG
000456: 35,3445           00002                           DEC      2          B-14                       #  DELTA H = 2  K POSITIVE , KFLAG OFF
000457: 35,3446           76014                           BOFF     AXT,1
000458: 35,3447           00356                                    KFLAG
000459: 35,3450           73452                                    +2
000460: 35,3451           00001                           DEC      1          B-14                       #  DELTA H = 1  K NEGATIVE , KFLAG ON
000461: 35,3452           77530                           SXA,1    EXIT
000462: 35,3453           01132                                    OPTION2


000464: 35,3454           33543                           CAF      V06N72                                #  DISPLAY PHI , DELTA H , SEARCH OPTION K
000465: 35,3455           03517                           TC       VNCOMP17
000466: 35,3456           06006                           TC       INTPRET
000467: 35,3457           43014                           CLEAR    SET
000468: 35,3460           00670                                    UPDATFLG
000469: 35,3461           00076                                    KFLAG
000470: 35,3462           45335                           SLOAD    DSU
000471: 35,3463           01133                                    OPTION2                               #  RESET KFLAG ON FOR OPTION =1
000472: 35,3464           36100                                    P21ONENN                              #             OFF FOR OPTION =2
000473: 35,3465           43030                           BHIZ     CLEAR
000474: 35,3466           73470                                    +2
000475: 35,3467           00276                                    KFLAG
000476: 35,3470           46135                           SLOAD    BHIZ
000477: 35,3471           03747                                    XRS        +1
000478: 35,3472           73476                                    +4
000479: 35,3473           52145                           DLOAD    GOTO
000480: 35,3474           34003                                    HPL
000481: 35,3475           73500                                    P17.2
000482: 35,3476           77745                           DLOAD
000483: 35,3477           34001                                    HPE
000484: 35,3500           36321        P17.2              STCALL   HPERMIN
000485: 35,3501           74104                                    S17.2
000486: 35,3502           77414                           SET      EXIT
000487: 35,3503           00470                                    UPDATFLG
000488: 35,3504           33127        P17.3              CAF      V06N58                                #  DISPLAY DELTA VTPI , DELTA VTPF , AND H
000489: 35,3505           03517                           TC       VNCOMP17
000490: 35,3506           33126                           CAF      V06N55                                #  DISPLAY PERICENTER CODE AND CENTRAL ANG,
000491: 35,3507           04555                           TC       BANKCALL
000492: 35,3510           20763                           CADR     GOFLASHR
000493: 35,3511           04106                           TC       GOTOPOOH                              #  TERMINATE PROGRAM
000494: 35,3512           04106                           TC       GOTOPOOH                              #  END PROGRAM
000495: 35,3513           03434                           TC       P17.1                                 #  RECYCLE WITH NEW TTPI OR SEARCH OPTION
000496: 35,3514           34711                           CAF      TWO                                   #  BLANK R2
000497: 35,3515           05415                           TC       BLANKET
000498: 35,3516           15112                           TCF      ENDOFJOB
000499: 35,3517  E4,1767                                  EBANK=   RTRN
000500:
000501: 35,3517           00006        VNCOMP17           EXTEND
000502: 35,3520           23766                           QXCH     QSAVED
000503: 35,3521           55765                           TS       VERBNOUN
000504: 35,3522           31765                           CA       VERBNOUN
000505: 35,3523           04555                           TCR      BANKCALL
000506: 35,3524           20624                           CADR     GOFLASH
000507: 35,3525           03522                           TC       -3                                    #  TERMINATE ILLEGAL REDISPLAY
000508: 35,3526           01766                           TC       QSAVED                                #  PROCEED
000509: 35,3527           40154                           CS       MPAC                                  #  RECYCLE WITH NEW TPI TIME
000510: 35,3530           64705                           AD       BIT6                                  #  OR PROCEED WITH NEW SEARCH OPTION
000511: 35,3531           00006                           EXTEND
000512: 35,3532           13434                           BZF      P17.1
000513: 35,3533           03522                           TC       VNCOMP17   +3


000515: 35,3534           77414        ALARUMS            SET      EXIT
000516: 35,3535           00470                                    UPDATFLG
000517: 35,3536           05537                           TC       ALARM
000518: 35,3537           00124                           OCT      00124                                 #  NO SAFE PERCENTER IN THIS SECTOR
000519: 35,3540           34743                           CAF      V05N09
000520: 35,3541           03517                           TC       VNCOMP17
000521: 35,3542           04106                           TC       GOTOPOOH                              #  PROCEED ILLEGAL TERMINATE PROGRAM
000522: 35,3543           01510        V06N72             VN       0672

End of include-file TPI_SEARCH.agc.  Parent file is MAIN.agc


