
Source Code


000002:                                                                                                  ## Copyright:    Public domain.
000003:                                                                                                  ## Filename:     TVCDAPS.agc
000004:                                                                                                  ## Purpose:      Part of the source code for Colossus build 237.
000005:                                                                                                  ##               This is for the Command Module's (CM) Apollo Guidance
000006:                                                                                                  ##               Computer (AGC), we believe for Apollo 8.
000007:                                                                                                  ## Assembler:    yaYUL
000008:                                                                                                  ## Contact:      Jim Lawton <jim DOT lawton AT gmail DOT com>
000009:                                                                                                  ## Website:      www.ibiblio.org/apollo/index.html
000010:                                                                                                  ## Page Scans:   www.ibiblio.org/apollo/ScansForConversion/Colossus237/
000011:                                                                                                  ## Mod history:  2011-03-06 JL  Adapted from corresponding Colossus 249 file.
000012:


000014:                                                                                                  #  PROGRAM NAME....TVCDAP, CONSISTING OF PITCHDAP, YAWDAP, ETC.
000015:                                                                                                  #  LOG SECTION....TVCDAP           SUBROUTINE....DAPCSM
000016:                                                                                                  #  MOD BY ENGEL                    DATE....27 OCT, 1967
000017:
000018:                                                                                                  #  FUNCTIONAL DESCRIPTION....
000019:
000020:                                                                                                  #       SELF-PERPETUATING T5 TASKS WHICH GENERATE THE COMMAND SIGNALS
000021:                                                                                                  #       FOR THE PITCH AND YAW SPS GIMBAL ACTUATORS DURING TVC (SPS) BURNS,
000022:                                                                                                  #       IN RESPONSE TO BODY-AXIS RATE COMMANDS FROM CROSS-PRODUCT STEERING
000023:                                                                                                  #       (S40.8).  IF NO STEERING (IMPULSIVE BURNS) MAINTAINS ATTITUDE-HOLD
000024:                                                                                                  #       ABOUT THE REFERENCE (INITIAL) DIRECTIONS (ZERO RATE COMMANDS).
000025:
000026:                                                                                                  #       THE PITCH AND YAW LOOPS ARE SEPARATE, BUT STRUCTURED IDENTICALLY.
000027:                                                                                                  #       EACH ATTITUDE-RATE LOOP INCLUDES GIMBAL ANGLE RATE DERIVATION,
000028:                                                                                                  #       GIMBAL/BODY AXIS TRANSFORMATION, BODY-AXIS ATTITUDE ERROR
000029:                                                                                                  #       INTEGRATION WITH ERROR LIMITING, THE CSM/LEM FILTER  OR THE BRANCH
000030:                                                                                                  #       POINTS FOR THE CSM-ALONE (GEN3DAP) FILTER,  OUTPUT LIMITER,
000031:                                                                                                  #       CG-OFFSET TRACKER FILTER, AND THE CG-TRACKER MINOR LOOP.
000032:
000033:                                                                                                  #       THE DAPS ARE CYCLIC, CALLING EACH OTHER AT 1/2  THE DAP SAMPLE
000034:                                                                                                  #       TIME, AS DETERMINED BY T5TVCDT. THE ACTUATOR COMMANDS ARE
000035:                                                                                                  #       REGENERATED AS ANALOG VOLTAGES BY THE OPTICS ERROR COUNTERS, WHICH
000036:                                                                                                  #       TRANSMIT THE SIGNAL TO THE ACTUATOR SERVOS WHEN THERE IS PROPER CDU
000037:                                                                                                  #       MODING.
000038:
000039:                                                                                                  #       REFERENCES FOR THE CSM/LEM FILTER DESIGN INCLUDE R503 BY  STUBBS
000040:                                                                                                  #       (MIT IL OCT 1965) AND SGA MEMO R26-65 BY MARTIN (MIT IL OCT 1965).
000041:                                                                                                  #       REFERENCES FOR THE CSM FILTER DESIGN (SEE GEN3DAP) INCLUDE R533 BY
000042:                                                                                                  #       LU  (MIT IL JUNE 1966).
000043:
000044:                                                                                                  #       OPERATIONAL ASPECTS OF THE INTEGRATED CONTROL PACKAGE, WITH DESIGN-
000045:                                                                                                  #       NOMINAL PARAMETER VALUES ARE DISCUSSED IN AG R336-67 BY ENGEL
000046:                                                                                                  #       (MIT IL OCT 1967) AND SGA MEMO R18-67 BY SCHLUNDT (MIT IL OCT 1967)
000047:
000048:                                                                                                  #  CALLING SEQUENCE.... (TYPICALLY)
000049:
000050:                                                                                                  #       T5 CALL OF TVCDAPON (P40-P47) BY IGNOVER (P40-P47)
000051:                                                                                                  #       T5 CALL OF DAPINIT BY TVCINIT4 (P40-P47)
000052:                                                                                                  #       T5 CALL OF DAPINIT BY DAPINIT
000053:                                                                                                  #       T5 CALL OF PITCHDAP BY DAPINIT
000054:                                                                                                  #       T5 CALL OF YAWDAP BY PITCHDAP
000055:                                                                                                  #       T5 CALL OF PITCHDAP BY YAWDAP
000056:                                                                                                  #                  ETC.
000057:                                                                                                  #       (AUTOMATIC SEQUENCING FROM TVCDAPON)
000058:
000059:                                                                                                  #  NORMAL EXIT MODE....RESUME
000060:
000061:                                                                                                  #  ALARM OR ABORT EXIT MODES....NONE
000062:
000063:                                                                                                  #  SUBROUTINES CALLED....


000065:                                                                                                  #           HACK FOR STROKE TEST (V68) WAVEFORM GENERATION
000066:                                                                                                  #           NP0-, NP1-, NY0-, AND NY1NODE FOR GEN3DAP (LEM-OFF) FILTERS
000067:                                                                                                  #           PCOPY, YCOPY FOR COPY-CYCLES (USED ALSO BY TVC RESTART PACKAGE)
000068:                                                                                                  #           DAPINIT FOR INITIAL CDUS FOR RATE MEASUREMENTS
000069:                                                                                                  #           ERRORLIM, ACTLIM FOR INPUT (ATTITUDE-ERROR INTEGRATION) AND
000070:                                                                                                  #                 OUTPUT (ACTUATOR COMMAND) LIMITING, COMMON TO PITCH AND
000071:                                                                                                  #                 YAW DAPS
000072:                                                                                                  #           OPTVARK, NSUM, DSUM FOR CSM/LEM FILTER OPERATIONS, COMMON TO
000073:                                                                                                  #                 PITCH AND YAW DAPS
000074:                                                                                                  #           RESUME
000075:
000076:                                                                                                  #  OTHER INTERFACES....
000077:
000078:                                                                                                  #       S40.8 CROSS-PRODUCT STEERING FOR BODY AXIS RATE  COMMANDS OMEGAY,ZC
000079:                                                                                                  #       S40.15 FOR THE INITIAL DAP GAINS KP/KPDN (LEM-ON) OR KPGEN3 (-OFF)
000080:                                                                                                  #       TVCEXECUTIVE  FOR VARIABLE DAP GAINS, FILTER SAMPLE-RATE CHANGE AND
000081:                                                                                                  #           GAIN REDUCTION AT LEM-ON SWITCHOVER, SINGLE-SHOT CG. ESTIMATION
000082:                                                                                                  #           AT SWITCHOVER AND REPETITIVE CG ESTIMATION AFTER SWITCHOVER.
000083:                                                                                                  #       TVCRESTART PACKAGE FOR TVC RESTART PROTECTION.
000084:
000085:                                                                                                  #  ERASABLE INITIALIZATION REQUIRED....
000086:
000087:                                                                                                  #       29 PAD-LOAD ERASABLES ESTROKER.....EREPFRAC +1
000088:                                                                                                  #       KP/KPDN  (KPGEN3)  AS IN S40.15  (R03)
000089:                                                                                                  #       CONFIGURATION BITS  (14, 13)  OF DAPDATR1 AS IN R03
000090:                                                                                                  #       ENGINE-ON BIT (11.13) FOR RESTARTS
000091:                                                                                                  #       TVCPHASE FOR RESTARTS  (SEE IGNOVER, AND TVCINIT4)
000092:                                                                                                  #       T5 BITS (15,14 OF FLAGWRD6) FOR RESTARTS
000093:                                                                                                  #       MISCELLANEOUS VARIABLES SET UP OR COMPUTED BY TVCDAPON....TVCINIT4,
000094:                                                                                                  #             INCLUDING THE ZEROING OF 64 TEMPORARIES BY MRCLEAN
000095:                                                                                                  #       CDUX,Y,Z AND SINCDUX.... COSCDUX AS PREPARED BY CDUTRIG1 (WITH
000096:                                                                                                  #           UPDATES EVERY 1/2 SECOND)
000097:                                                                                                  #       ALSO G+N PRIMARY, TVC ENABLE, AND OPTICS ERROR COUNTER ENABLE
000098:                                                                                                  #           UNLESS BENCH-TESTING.
000099:
000100:                                                                                                  #  OUTPUT....
000101:
000102:                                                                                                  #       TVCPITCH AND TVCYAW WITH COUNTER RELEASE (11.14 AND 11.13 INCREMEN-
000103:                                                                                                  #           TAL  COMMANDS TO OPTICS ERROR COUNTERS), FILTER NODES, BODY-
000104:                                                                                                  #           AXIS ATTITUDE ERROR INTEGRATOR, TOTAL ACTUATOR COMMANDS,
000105:                                                                                                  #           OFFSET-TRACKER-FILTER OUTPUTS, ETC.
000106:                                                                                                  #  DEBRIS....
000107:
000108:                                                                                                  #       MUCH, SHAREABLE WITH RCS/ENTRY, IN EBANK6 ONLY
000109:
000110:
000111: 17,2215                                           BANK     17
000112: 20,2000                                           SETLOC   DAPS2
000113: 20,2000                                           BANK
000114:


000116: 20,2326  E6,1742                                  EBANK=   BZERO
000117:
000118:
000119: 20,2326                                           COUNT*   $$/DAPS
000120:


000122:                                                                                                  #  PITCH TVCDAP STARTS HERE....(INCOPORATES CSM/LEM DAP FILTER,  MODOR DESIGN)
000123:
000124:
000125: 20,2326           22016        PITCHDAP           LXCH     BANKRUPT                              #  T5 ENTRY,  NORMAL OR VIA DAPINIT
000126: 20,2327           00006                           EXTEND
000127: 20,2330           22012                           QXCH     QRUPT
000128:
000129: 20,2331           33403                           CAF      YAWT5                                 #  SET UP T5 CALL FOR YAW AUTOPILOT (LOW-
000130: 20,2332           55312                           TS       T5LOC                                 #       ORDER PART OF 2CADR ALREADY THERE)
000131: 20,2333           31635                           CAE      T5TVCDT
000132: 20,2334           54030                           TS       TIME5
000133:
000134: 20,2335           11614        PSTROKER           CCS      STROKER                               #  (STRKFLG)  CHECK FOR STROKE TEST
000135: 20,2336           03471                           TC       HACK                                  #  TEST-START  OR  TEST-IN-PROGRESS
000136: 20,2337           12341                           TCF      +2                                    #  NO-TEST
000137: 20,2340           03471                           TC       HACK                                  #  TEST-IN-PROGRESS
000138:
000139: 20,2341           30033        PCDUDOTS           CAE      CDUY                                  #  COMPUTE CDUYDOT
000140: 20,2342           57655                           XCH      PCDUYPST                              #       FOR PITCH AUTOPILOT
000141: 20,2343           00006                           EXTEND
000142: 20,2344           21655                           MSU      PCDUYPST
000143: 20,2345           55657                           TS       MCDUYDOT                              #       (MINUS,  SC.AT  1/2TVCDT REVS/SEC)
000144:
000145: 20,2346           30034                           CAE      CDUZ                                  #  COMPUTE CDUZDOT
000146: 20,2347           57656                           XCH      PCDUZPST                              #       FOR PITCH AUTOPILOT
000147: 20,2350           00006                           EXTEND
000148: 20,2351           21656                           MSU      PCDUZPST
000149: 20,2352           55660                           TS       MCDUZDOT                              #       (MINUS,  SC.AT  1/2TVCDT REVS/SEC)
000150:
000151: 20,2353           00006        PINTEGRL           EXTEND                                         #  COMPUTE INTEGRAL OF BODY-AXIS PITCH-RATE
000152: 20,2354           31616                           DCA      PERRB                                 #       ERROR, SC.AT B-1 REVS
000153: 20,2355           53743                           DXCH     ERRBTMP
000154:
000155: 20,2356           00006                           EXTEND
000156: 20,2357           31530                           DCA      OMEGAYC
000157: 20,2360           21743                           DAS      ERRBTMP
000158:
000159: 20,2361           40746                           CS       COSCDUZ                               #  PREPARE BODY-AXIS PITCH RATE, OMEGAYB
000160: 20,2362           00006                           EXTEND
000161: 20,2363           70750                           MP       COSCDUX
000162: 20,2364           20001                           DDOUBL
000163: 20,2365           00006                           EXTEND
000164: 20,2366           71657                           MP       MCDUYDOT
000165: 20,2367           20001                           DDOUBL
000166: 20,2370           53536                           DXCH     OMEGAYB
000167:
000168: 20,2371           41660                           CS       MCDUZDOT
000169: 20,2372           00006                           EXTEND
000170: 20,2373           70742                           MP       SINCDUX
000171: 20,2374           20001                           DDOUBL


000173: 20,2375           21536                           DAS      OMEGAYB                               #  (COMPLETED OMEGAYB, SC.AT 1/2TVCDT REVS)
000174:
000175: 20,2376           00006                           EXTEND                                         #  PICK UP -OMEGAYB (SIGN CHNG, INTEGRATE)
000176: 20,2377           41536                           DCS      OMEGAYB
000177: 20,2400           21743                           DAS      ERRBTMP
000178:
000179: 20,2401           03112        PERORLIM           TCR      ERRORLIM                              #  PITCH BODY-AXIS-ERROR  INPUT LIMITER
000180:
000181: 20,2402           31466        P1FILJMP           CAE      DAPDATR1                              #  CHECK FOR LEM-ON/-OFF
000182: 20,2403           74675                           MASK     BIT14                                 #  (BIT 14 INDICATES LEM IS ON)
000183: 20,2404           10000                           CCS      A
000184: 20,2405           12410                           TCF      +3                                    #  USE LEM-ON FILTER
000185: 20,2406           04574                           TC       POSTJUMP                              #  USE LEM-OFF (GEN3DAP) FILTER
000186: 20,2407           36215                           CADR     NP0NODE
000187:
000188: 20,2410           00006        PFORWARD           EXTEND                                         #  LEM-ON FILTER COMPUTATIONS.
000189: 20,2411           41544                           DCS      PDSUM                                 #  DENOMINATOR TERMS, SC.AT B+0 SPASCREVS
000190: 20,2412           53745                           DXCH     JZERO
000191:
000192: 20,2413           31742                           CAE      ERRBTMP                               #  INPUT ERROR,  SC.AT B-1 REVS
000193: 20,2414           61541                           AD       PNSUM                                 #  NUMERATOR TERMS, SC.AT B-1 REVS
000194: 20,2415           00006                           EXTEND
000195: 20,2416           74727                           MP       KPDN                                  #  KPDN, SC.AT B+1 SPASCREV
000196: 20,2417           21745                           DAS      JZERO
000197: 20,2420           31542                           CAE      PNSUM      +1
000198: 20,2421           00006                           EXTEND
000199: 20,2422           74727                           MP       KPDN
000200: 20,2423           27745                           ADS      JZERO      +1
000201: 20,2424           54001                           TS       L
000202: 20,2425           12427                           TCF      +2
000203: 20,2426           27744                           ADS      JZERO                                 #  (SC.AT B+0 SPASCREV), (JZERO = CMDTMP)
000204:
000205: 20,2427           00006        JZSTORE            EXTEND                                         #  PREPARE JZERO FOR DENOMINATOR LADDER
000206: 20,2430           31745                           DCA      JZERO                                 #       SC.AT B+0 SPASCREV
000207: 20,2431           20001                           DDOUBL
000208: 20,2432           20001                           DDOUBL
000209: 20,2433           20001                           DDOUBL
000210: 20,2434           53727                           DXCH     J1TMP                                 #       SC.AT B-3 SPASCREV
000211:
000212: 20,2435           03125        OPTVARKP           TCR      OPTVARK                               #  PITCH VARIABLE-GAIN PACKAGE
000213:
000214: 20,2436           00006        POFFSET            EXTEND                                         #  SIGN CHANGE IN FORWARD LOOP
000215: 20,2437           41745                           DCS      CMDTMP                                #       (GEN3DAP RETURNS AT POFFSET)
000216: 20,2440           53745                           DXCH     CMDTMP
000217: 20,2441           00006                           EXTEND                                         #  ADD IN DOUBLE-PRECISION CG OFFSETS
000218: 20,2442           31626                           DCA      PDELOFF
000219: 20,2443           21745                           DAS      CMDTMP
000220:
000221: 20,2444           31745        PROUND             CAE      CMDTMP     +1                         #  ROUND UP FOR OUTPUT
000222: 20,2445           60000                           DOUBLE


000224: 20,2446           54001                           TS       L
000225: 20,2447           34714                           CAF      ZERO
000226: 20,2450           61744                           AD       CMDTMP
000227:
000228: 20,2451           03145        PACLIM             TCR      ACTLIM                                #  PITCH ACTUATOR-COMMAND-LIMITER
000229:
000230: 20,2452           41631        POUT               CS       PCMD                                  #  INCREMENTAL PITCH COMMAND
000231: 20,2453           61744                           AD       CMDTMP
000232: 20,2454           26054                           ADS      TVCPITCH                              #  UPDATE THE ERROR COUNTER (NO RESTART-
000233:                                                                                                  #                                               PROTECT, SINCE ERROR CNTR ZEROED)
000234:
000235: 20,2455           34700                           CAF      BIT11                                 #  BIT FOR TVCPITCH COUNT RELEASE
000236: 20,2456           00006                           EXTEND
000237: 20,2457           05014                           WOR      CHAN14
000238: 20,2460           31466        P2FILJMP           CAE      DAPDATR1                              #  CHECK FOR LEM-ON/-OFF
000239: 20,2461           74675                           MASK     BIT14                                 #  (BIT 14 INDICATES LEM IS ON)
000240: 20,2462           10000                           CCS      A
000241: 20,2463           12466                           TCF      +3                                    #  USE LEM-ON FILTER
000242: 20,2464           04574                           TC       POSTJUMP                              #  USE LEM-OFF (GEN3DAP) FILTER
000243: 20,2465           36250                           CADR     NP1NODE
000244:
000245:
000246: 20,2466           31742        BZSTORE            CAE      ERRBTMP                               #  PREPARE BZERO  (UPPER WORD OF ERRBTMP)
000247: 20,2467           60000                           DOUBLE                                         #       FOR NUMERATOR LATTER....SC.AT B-1
000248: 20,2470           55717                           TS       B1TMP                                 #       SC.AT B-2 REVS FOR LADDER
000249:
000250:
000251: 20,2471           00006        PNLADDER           EXTEND                                         #  PREPARE TEMPORARIES, FOR UPDATING PITCH
000252: 20,2472           31546                           DCA      B1                                    #       NUMERATOR LADDER
000253: 20,2473           53721                           DXCH     B2TMP
000254: 20,2474           00006                           EXTEND
000255: 20,2475           31550                           DCA      B3
000256: 20,2476           53723                           DXCH     B4TMP
000257: 20,2477           00006                           EXTEND
000258: 20,2500           31552                           DCA      B5
000259: 20,2501           53725                           DXCH     B6TMP
000260:
000261: 20,2502           03157        PNSUMC             TCR      NSUM                                  #  PITCH NUMERATOR SUM
000262:
000263: 20,2503           00006        PDLADDER           EXTEND                                         #  PREPARE TEMPORARIES, FOR UPDATING PITCH
000264: 20,2504           31554                           DCA      J1                                    #       DENOMINATOR LADDER
000265: 20,2505           53731                           DXCH     J2TMP
000266: 20,2506           00006                           EXTEND
000267: 20,2507           31556                           DCA      J2
000268: 20,2510           53733                           DXCH     J3TMP
000269: 20,2511           00006                           EXTEND
000270: 20,2512           31560                           DCA      J3
000271: 20,2513           53735                           DXCH     J4TMP
000272: 20,2514           00006                           EXTEND


000274: 20,2515           31562                           DCA      J4
000275: 20,2516           53737                           DXCH     J5TMP
000276: 20,2517           00006                           EXTEND
000277: 20,2520           31564                           DCA      J5
000278: 20,2521           53741                           DXCH     J6TMP
000279:
000280: 20,2522           03217        PDSUMC             TCR      DSUM                                  #  PITCH DENOMINATOR SUM
000281:
000282: 20,2523           31744        DELBARP            CAE      CMDTMP                                #  UPDATE PITCH OFFSET-TRACKER-FILTER
000283: 20,2524           00006                           EXTEND                                         #       (GEN3DAP RETURNS AT  ..DELBARP..  )
000284: 20,2525           73404                           MP       1-E(-AT)
000285: 20,2526           53716                           DXCH     DELBRTMP
000286: 20,2527           31621                           CAE      DELPBAR
000287: 20,2530           00006                           EXTEND
000288: 20,2531           73405                           MP       E(-AT)
000289: 20,2532           21716                           DAS      DELBRTMP
000290: 20,2533           31622                           CAE      DELPBAR    +1
000291: 20,2534           00006                           EXTEND
000292: 20,2535           73405                           MP       E(-AT)
000293: 20,2536           27716                           ADS      DELBRTMP   +1
000294: 20,2537           54001                           TS       L
000295: 20,2540           12542                           TCF      +2
000296: 20,2541           27715                           ADS      DELBRTMP
000297:
000298: 20,2542           02544        PCOPYCYC           TCR      PCOPY                                 #  PITCH COPYCYCLE
000299:
000300: 20,2543           15222        PDAPEND            TCF      RESUME                                #  PITCH DAP COMPLETED
000301:


000303:                                                                                                  #  PITCH TVCDAP COPYCYCLE SUBROUTINE (CALLED VIA PITCH TVCDAP OR TVC RESTART PACKAGE)
000304:
000305: 20,2544           25654        PCOPY              INCR     TVCPHASE                              #  RESTART-PROTECT THE COPYCYCLE.
000306:                                                                                                  #                                               NOTE POSSIBLE RE-ENTRY FROM RESTART
000307:                                                                                                  #                                               PACKAGE, SHOULD A RESTART OCCUR
000308:                                                                                                  #                                               DURING PITCH COPYCYCLE.
000309:
000310: 20,2545           00006        NEWB(S)            EXTEND                                         #  UPDATE PITCH NUMERATOR LADDER FROM
000311: 20,2546           31720                           DCA      B1TMP                                 #       TEMPORARIES
000312: 20,2547           53546                           DXCH     B1
000313: 20,2550           00006                           EXTEND
000314: 20,2551           31722                           DCA      B3TMP
000315: 20,2552           53550                           DXCH     B3
000316: 20,2553           00006                           EXTEND
000317: 20,2554           31724                           DCA      B5TMP
000318: 20,2555           53552                           DXCH     B5
000319:
000320: 20,2556           00006        NEWJ(S)            EXTEND                                         #  UPDATE PITCH DENOMINATOR LADDER FROM
000321: 20,2557           31727                           DCA      J1TMP                                 #       TEMPORARIES
000322: 20,2560           53554                           DXCH     J1
000323: 20,2561           00006                           EXTEND
000324: 20,2562           31731                           DCA      J2TMP
000325: 20,2563           53556                           DXCH     J2
000326: 20,2564           00006                           EXTEND
000327: 20,2565           31733                           DCA      J3TMP
000328: 20,2566           53560                           DXCH     J3
000329: 20,2567           00006                           EXTEND
000330: 20,2570           31735                           DCA      J4TMP
000331: 20,2571           53562                           DXCH     J4
000332: 20,2572           00006                           EXTEND                                         #       (ALSO NP1TMP,+1 TO NP1,+1)
000333: 20,2573           31737                           DCA      J5TMP
000334: 20,2574           53564                           DXCH     J5
000335:
000336: 20,2575           00006        PMISC              EXTEND                                         #  MISC....PITCH-RATE-ERROR INTEGRATOR
000337: 20,2576           31743                           DCA      ERRBTMP
000338: 20,2577           55477                           TS       AK1                                   #       FOR PITCH NEEDLES, SC.AT B-1 REVS
000339: 20,2600           53616                           DXCH     PERRB
000340:
000341: 20,2601           00006                           EXTEND                                         #       PITCH NUMERATOR SUM
000342: 20,2602           31712                           DCA      NSUMTMP                               #            (ALSO NP2TMP,+1 TO NP2,+1)
000343: 20,2603           53542                           DXCH     PNSUM
000344:
000345: 20,2604           00006                           EXTEND                                         #       PITCH DENOMINATOR SUM
000346: 20,2605           31714                           DCA      DSUMTMP                               #            (ALSO NP3TMP,+1 TO NP3,+1)
000347: 20,2606           53544                           DXCH     PDSUM
000348:
000349: 20,2607           31744                           CAE      CMDTMP                                #       PITCH ACTUATOR COMMAND
000350: 20,2610           55631                           TS       PCMD
000351:
000352: 20,2611           00006                           EXTEND                                         #       PITCH OFFSET-TRACKER-FILTER


000354: 20,2612           31716                           DCA      DELBRTMP
000355: 20,2613           53622                           DXCH     DELPBAR
000356:
000357: 20,2614           25654                           INCR     TVCPHASE                              #  PITCH COPYCYCLE COMPLETED
000358:
000359: 20,2615           00002                           TC       Q
000360:


000362:                                                                                                  #  YAW   TVCDAP STARTS HERE....(INCORPORATES CSM/LEM DAP FILTER,  MODOR DESIGN)
000363:
000364: 20,2616           22016        YAWDAP             LXCH     BANKRUPT                              #  T5 ENTRY,  NORMAL
000365: 20,2617           00006                           EXTEND
000366: 20,2620           22012                           QXCH     QRUPT
000367:
000368: 20,2621           33401                           CAF      PITCHT5                               #  SET UP T5 CALL FOR PITCH AUTOPILOT (LOW-
000369: 20,2622           55312                           TS       T5LOC                                 #       ORDER PART OF 2CADR ALREADY THERE)
000370: 20,2623           31635                           CAE      T5TVCDT
000371: 20,2624           54030                           TS       TIME5
000372:
000373: 20,2625           11614        YSTROKER           CCS      STROKER                               #  (STRKFLG) CHECK FOR STROKE TEST
000374: 20,2626           03471                           TC       HACK                                  #  TEST-START  OR  TEST-IN-PROGRESS
000375: 20,2627           12631                           TCF      +2                                    #  NO-TEST
000376: 20,2630           03471                           TC       HACK                                  #  TEST-IN-PROGRESS
000377:
000378:                                                                                                  #                                          USE BODY RATES FROM PITCHDAP (PCDUDOTS)
000379:
000380: 20,2631           00006        YINTEGRL           EXTEND                                         #  COMPUTE INTEGRAL OF BODY-AXIS YAW-RATE
000381: 20,2632           31620                           DCA      YERRB                                 #       ERROR, SC.AT B-1 REVS
000382: 20,2633           53743                           DXCH     ERRBTMP
000383:
000384: 20,2634           00006                           EXTEND
000385: 20,2635           31532                           DCA      OMEGAZC
000386: 20,2636           21743                           DAS      ERRBTMP
000387:
000388: 20,2637           30746                           CAE      COSCDUZ                               #  PREPARE BODY-AXIS YAW-RATE, OMEGAZB
000389: 20,2640           00006                           EXTEND
000390: 20,2641           70742                           MP       SINCDUX
000391: 20,2642           20001                           DDOUBL
000392: 20,2643           00006                           EXTEND
000393: 20,2644           71657                           MP       MCDUYDOT
000394: 20,2645           20001                           DDOUBL
000395: 20,2646           53540                           DXCH     OMEGAZB
000396:
000397: 20,2647           41660                           CS       MCDUZDOT
000398: 20,2650           00006                           EXTEND
000399: 20,2651           70750                           MP       COSCDUX
000400: 20,2652           20001                           DDOUBL
000401: 20,2653           21540                           DAS      OMEGAZB                               #  (COMPLETED OMEGAZB, SC.AT 1/2TVCDT REVS)
000402:
000403: 20,2654           00006                           EXTEND                                         #  PICK UP -OMEGAZB (SIGN CHNG, INTEGRATE)
000404: 20,2655           41540                           DCS      OMEGAZB
000405: 20,2656           21743                           DAS      ERRBTMP
000406:
000407: 20,2657           03112        YERORLIM           TCR      ERRORLIM                              #  YAW   BODY-AXIS-ERROR  INPUT LIMITER
000408:
000409: 20,2660           31466        Y1FILJMP           CAE      DAPDATR1                              #  CHECK FOR LEM-ON/-OFF
000410: 20,2661           74675                           MASK     BIT14                                 #  (BIT 14 INDICATES LEM IS ON)
000411:


000413: 20,2662           10000                           CCS      A
000414: 20,2663           12666                           TCF      +3                                    #  USE LEM-ON FILTER
000415: 20,2664           04574                           TC       POSTJUMP                              #  USE LEM-OFF (GEN3DAP) FILTER
000416: 20,2665           36407                           CADR     NY0NODE
000417:
000418: 20,2666           00006        YFORWARD           EXTEND                                         #  LEM-ON FILTER COMPUTATIONS
000419: 20,2667           41570                           DCS      YDSUM                                 #  DENOMINATOR TERMS, SC.AT B+0 SPASCREVS
000420: 20,2670           53745                           DXCH     YZERO
000421:
000422: 20,2671           31742                           CAE      ERRBTMP                               #  INPUT ERROR,  SC.AT B-1 REVS
000423: 20,2672           61565                           AD       YNSUM                                 #  NUMERATOR TERMS, SC.AT B-1 REVS
000424: 20,2673           00006                           EXTEND
000425: 20,2674           74727                           MP       KYDN                                  #  KYDN, SC.AT B+1 SPASCREV
000426: 20,2675           21745                           DAS      YZERO
000427: 20,2676           31566                           CAE      YNSUM      +1
000428: 20,2677           00006                           EXTEND
000429: 20,2700           74727                           MP       KYDN
000430: 20,2701           27745                           ADS      YZERO      +1
000431: 20,2702           54001                           TS       L
000432: 20,2703           12705                           TCF      +2
000433: 20,2704           27744                           ADS      YZERO                                 #  (SC.AT B+0 SPASCREV), (YZERO = CMDTMP)
000434:
000435: 20,2705           00006        YZSTORE            EXTEND                                         #  PREPARE YZERO FOR DENOMINATOR LADDER
000436: 20,2706           31745                           DCA      YZERO                                 #       SC.AT B+0 SPASCREV
000437: 20,2707           20001                           DDOUBL
000438: 20,2710           20001                           DDOUBL
000439: 20,2711           20001                           DDOUBL
000440: 20,2712           53727                           DXCH     Y1TMP                                 #       SC.AT B-3 SPASCREV
000441:
000442: 20,2713           03125        OPTVARKY           TCR      OPTVARK                               #  YAW   VARIABLE-GAIN PACKAGE
000443:
000444: 20,2714           00006        YOFFSET            EXTEND                                         #  SIGN CHANGE IN FORWARD LOOP
000445: 20,2715           41745                           DCS      CMDTMP                                #       (GEN3DAP RETURNS AT YOFFSET)
000446: 20,2716           53745                           DXCH     CMDTMP
000447: 20,2717           00006                           EXTEND                                         #  ADD IN DOUBLE-PRECISION CG OFFSETS
000448: 20,2720           31630                           DCA      YDELOFF
000449: 20,2721           21745                           DAS      CMDTMP
000450:
000451: 20,2722           31745        YROUND             CAE      CMDTMP     +1                         #  ROUND UP FOR OUTPUT
000452: 20,2723           60000                           DOUBLE
000453: 20,2724           54001                           TS       L
000454: 20,2725           34714                           CAF      ZERO
000455: 20,2726           61744                           AD       CMDTMP
000456:
000457: 20,2727           03145        YACLIM             TCR      ACTLIM                                #  YAW   ACTUATOR-COMMAND-LIMITER
000458:
000459: 20,2730           41632        YOUT               CS       YCMD                                  #  INCRMENTAL YAW   COMMAND
000460: 20,2731           61744                           AD       CMDTMP
000461: 20,2732           26053                           ADS      TVCYAW                                #  UPDATE THE ERROR COUNTER (NO RESTART-
000462:                                                                                                  #                                               PROTECT, SINCE ERROR CNTR ZEROED)
000463:


000465: 20,2733           34677                           CAF      BIT12                                 #  BIT FOR TVCYAW COUNT RELEASE
000466: 20,2734           00006                           EXTEND
000467: 20,2735           05014                           WOR      CHAN14
000468: 20,2736           31466        Y2FILJMP           CAE      DAPDATR1                              #  CHECK FOR LEM-ON/-OFF
000469: 20,2737           74675                           MASK     BIT14                                 #  (BIT 14 INDICATES LEM IS ON)
000470: 20,2740           10000                           CCS      A
000471: 20,2741           12744                           TCF      +3                                    #  USE LEM-ON FILTER
000472: 20,2742           04574                           TC       POSTJUMP                              #  USE LEM-OFF (GEN3DAP) FILTER
000473: 20,2743           36442                           CADR     NY1NODE
000474:
000475:
000476: 20,2744           31742        CZSTORE            CAE      ERRBTMP                               #  PREPARE CZERO  (UPPER WORD OF ERRBTMP)
000477: 20,2745           60000                           DOUBLE                                         #       FOR NUMERATOR LATTER....SC.AT B-1
000478: 20,2746           55717                           TS       C1TMP                                 #       SC.AT B-2 REVS FOR LADDER
000479:
000480:
000481: 20,2747           00006        YNLADDER           EXTEND                                         #  PREPARE TEMPORARIES, FOR UPDATING YAW
000482: 20,2750           31572                           DCA      C1                                    #       NUMERATOR LADDER
000483: 20,2751           53721                           DXCH     C2TMP
000484: 20,2752           00006                           EXTEND
000485: 20,2753           31574                           DCA      C3
000486: 20,2754           53723                           DXCH     C4TMP
000487: 20,2755           00006                           EXTEND
000488: 20,2756           31576                           DCA      C5
000489: 20,2757           53725                           DXCH     C6TMP
000490:
000491: 20,2760           03157        YNSUMC             TCR      NSUM                                  #  YAW   NUMERATOR SUM
000492:
000493:
000494: 20,2761           00006        YDLADDER           EXTEND                                         #  PREPARE TEMPORARIES, FOR UPDATING YAW
000495: 20,2762           31600                           DCA      Y1                                    #       DENOMINATOR LADDER
000496: 20,2763           53731                           DXCH     Y2TMP
000497: 20,2764           00006                           EXTEND
000498: 20,2765           31602                           DCA      Y2
000499: 20,2766           53733                           DXCH     Y3TMP
000500: 20,2767           00006                           EXTEND
000501: 20,2770           31604                           DCA      Y3
000502: 20,2771           53735                           DXCH     Y4TMP
000503: 20,2772           00006                           EXTEND
000504: 20,2773           31606                           DCA      Y4
000505: 20,2774           53737                           DXCH     Y5TMP
000506: 20,2775           00006                           EXTEND
000507: 20,2776           31610                           DCA      Y5
000508: 20,2777           53741                           DXCH     Y6TMP
000509:
000510: 20,3000           03217        YDSUMC             TCR      DSUM                                  #  YAW   DENOMINATOR SUM
000511:
000512: 20,3001           31744        DELBARY            CAE      CMDTMP                                #  UPDATE YAW   OFFSET-TRACKER-FILTER
000513: 20,3002           00006                           EXTEND                                         #       (GEN3DAP RETURNS AT  ..DELBARY..  )
000514: 20,3003           73404                           MP       1-E(-AT)


000516: 20,3004           53716                           DXCH     DELBRTMP
000517: 20,3005           31623                           CAE      DELYBAR
000518: 20,3006           00006                           EXTEND
000519: 20,3007           73405                           MP       E(-AT)
000520: 20,3010           21716                           DAS      DELBRTMP
000521: 20,3011           31624                           CAE      DELYBAR    +1
000522: 20,3012           00006                           EXTEND
000523: 20,3013           73405                           MP       E(-AT)
000524: 20,3014           27716                           ADS      DELBRTMP   +1
000525: 20,3015           54001                           TS       L
000526: 20,3016           13020                           TCF      +2
000527: 20,3017           27715                           ADS      DELBRTMP
000528:
000529: 20,3020           03022        YCOPYCYC           TCR      YCOPY                                 #  YAW   COPYCYCLE
000530:
000531: 20,3021           15222        YDAPEND            TCF      RESUME                                #  YAW   DAP COMPLETED
000532:


000534:                                                                                                  #  YAW   TVCDAP COPYCYCLE SUBROUTINE (CALLED VIA YAW   TVCDAP OR TVC RESTART PACKAGE)
000535:
000536: 20,3022           25654        YCOPY              INCR     TVCPHASE                              #  RESTART-PROTECT THE COPYCYCLE.
000537:                                                                                                  #                                                NOTE POSSIBLE RE-ENTRY FROM RESTART
000538:                                                                                                  #                                                PACKAGE, SHOULD A RESTART OCCUR
000539:                                                                                                  #                                                DURING YAW   COPYCYCLE.
000540:
000541: 20,3023           00006        NEWC(S)            EXTEND                                         #  UPDATE YAW   NUMERATOR LADDER FROM
000542: 20,3024           31720                           DCA      C1TMP                                 #       TEMPORARIES
000543: 20,3025           53572                           DXCH     C1
000544: 20,3026           00006                           EXTEND
000545: 20,3027           31722                           DCA      C3TMP
000546: 20,3030           53574                           DXCH     C3
000547: 20,3031           00006                           EXTEND
000548: 20,3032           31724                           DCA      C5TMP
000549: 20,3033           53576                           DXCH     C5
000550:
000551: 20,3034           00006        NEWY(S)            EXTEND                                         #  UPDATE YAW   DENOMINATOR LADDER FROM
000552: 20,3035           31727                           DCA      Y1TMP                                 #       TEMPORARIES
000553: 20,3036           53600                           DXCH     Y1
000554: 20,3037           00006                           EXTEND
000555: 20,3040           31731                           DCA      Y2TMP
000556: 20,3041           53602                           DXCH     Y2
000557: 20,3042           00006                           EXTEND
000558: 20,3043           31733                           DCA      Y3TMP
000559: 20,3044           53604                           DXCH     Y3
000560: 20,3045           00006                           EXTEND
000561: 20,3046           31735                           DCA      Y4TMP
000562: 20,3047           53606                           DXCH     Y4
000563: 20,3050           00006                           EXTEND                                         #       (ALSO NY1TMP,+1 TO NY1,+1)
000564: 20,3051           31737                           DCA      Y5TMP
000565: 20,3052           53610                           DXCH     Y5
000566:
000567: 20,3053           00006        YMISC              EXTEND                                         #  MISC....YAW-RATE-ERROR INTEGRATOR
000568: 20,3054           31743                           DCA      ERRBTMP
000569: 20,3055           55500                           TS       AK2                                   #       FOR YAW   NEEDLES, SC.AT B-1 REVS
000570: 20,3056           53620                           DXCH     YERRB
000571:
000572: 20,3057           00006                           EXTEND                                         #       YAW   NUMERATOR SUM
000573: 20,3060           31712                           DCA      NSUMTMP                               #            (ALSO NY2TMP,+1 TO NY2,+1)
000574: 20,3061           53566                           DXCH     YNSUM
000575:
000576: 20,3062           00006                           EXTEND                                         #       YAW   DENOMINATOR SUM
000577: 20,3063           31714                           DCA      DSUMTMP                               #            (ALSO NY3TMP,+1 TO NY3,+1)
000578: 20,3064           53570                           DXCH     YDSUM
000579:
000580: 20,3065           31744                           CAE      CMDTMP                                #       YAW   ACTUATOR COMMAND
000581: 20,3066           55632                           TS       YCMD
000582:
000583: 20,3067           00006                           EXTEND                                         #       YAW   OFFSET-TRACKER-FILTER


000585: 20,3070           31716                           DCA      DELBRTMP
000586: 20,3071           53624                           DXCH     DELYBAR
000587:
000588: 20,3072           34714                           CAF      ZERO                                  #  YAW   COPYCYCLE COMPLETED
000589: 20,3073           55654                           TS       TVCPHASE                              #       RESET TVCPHASE
000590:
000591: 20,3074           00002                           TC       Q
000592:


000594:                                                                                                  #  SUBROUTINES COMMON TO BOTH PITCH AND YAW DAPS....
000595:
000596:
000597:                                                                                                  #  INITIALIZATION PACKAGE FOR CDURATES....
000598:
000599: 20,3075           22016        DAPINIT            LXCH     BANKRUPT                              #  T5 RUPT ENTRY (CALLED BY TVCINT4)
000600:
000601: 20,3076           37716                           CAF      NEGONE                                #       SET UP
000602: 20,3077           61635                           AD       T5TVCDT                               #       T5 CALL FOR PITCHDAP IN TVCDT SECS
000603: 20,3100           64674                           AD       NEGMAX                                #       (T5TVCDT = POSMAX - TVCDT/2 +1)
000604: 20,3101           61635                           AD       T5TVCDT
000605: 20,3102           54030                           TS       TIME5
000606: 20,3103           33401                           CAF      PITCHT5                               #       (BBCON ALREADY THERE)
000607: 20,3104           55312                           TS       T5LOC
000608:
000609: 20,3105           30033                           CAE      CDUY                                  #  READ AND STORE CDUS FOR DIFFERENTIATOR
000610: 20,3106           55655                           TS       PCDUYPST                              #       PAST-VALUES
000611: 20,3107           30034                           CAE      CDUZ
000612: 20,3110           55656                           TS       PCDUZPST
000613:
000614: 20,3111           15224                           TCF      NOQRSM
000615:
000616:
000617:                                                                                                  #  BODY-AXIS-ERROR  INPUT LIMITER PACKAGE....
000618:
000619: 20,3112           31742        ERRORLIM           CAE      ERRBTMP                               #  CHECK FOR INPUT-ERROR LIMIT
000620: 20,3113           00006                           EXTEND                                         #       CHECKS UPPER WORD ONLY
000621: 20,3114           74710                           MP       1/ERRLIM
000622: 20,3115           00006                           EXTEND
000623: 20,3116           13124                           BZF      +6
000624: 20,3117           11742                           CCS      ERRBTMP
000625: 20,3120           34676                           CAF      ERRLIM
000626: 20,3121           13123                           TCF      +2
000627: 20,3122           44676                           CS       ERRLIM
000628: 20,3123           55742                           TS       ERRBTMP                               #  LIMIT WRITES OVER UPPER WORD ONLY
000629:
000630: 20,3124           00002                           TC       Q
000631:
000632:
000633:                                                                                                  #  VARIABLE-GAIN PACKAGE....
000634:
000635: 20,3125           31744        OPTVARK            CAE      CMDTMP                                #  VARIABLE-GAIN PACKAGE....CMDTMP CONTAINS
000636: 20,3126           00006                           EXTEND                                         #       JZERO OR YZERO
000637: 20,3127           71651                           MP       VARK                                  #  VARIABLE-GAIN, SC.AT 4 ASCREV/SPASCREV
000638: 20,3130           53745                           DXCH     CMDTMP
000639: 20,3131           22000                           LXCH     A                                     #  LO-ORDER WORD OF INPUT CMDTMP
000640: 20,3132           00006                           EXTEND
000641: 20,3133           71651                           MP       VARK
000642: 20,3134           27745                           ADS      CMDTMP     +1
000643: 20,3135           54001                           TS       L


000645: 20,3136           13140                           TCF      +2
000646: 20,3137           27744                           ADS      CMDTMP
000647:
000648: 20,3140           53745                           DXCH     CMDTMP                                #  FIX UP SCALING
000649: 20,3141           20001                           DDOUBL
000650: 20,3142           20001                           DDOUBL
000651: 20,3143           53745                           DXCH     CMDTMP
000652:
000653: 20,3144           00002                           TC       Q
000654:
000655:
000656:                                                                                                  #  ACTUATOR-COMMAND LIMITER PACKAGE....
000657:
000658: 20,3145           00006        ACTLIM             EXTEND                                         #  CHECK FOR ACTUATOR COMMAND LIMIT
000659: 20,3146           73400                           MP       1/ACTSAT
000660: 20,3147           00006                           EXTEND
000661: 20,3150           13156                           BZF      +6
000662: 20,3151           11744                           CCS      CMDTMP                                #  APPLY LIMITS
000663: 20,3152           33377                           CAF      ACTSAT
000664: 20,3153           13155                           TCF      +2
000665: 20,3154           43377                           CS       ACTSAT
000666: 20,3155           55744                           TS       CMDTMP                                #  LIMITS WRITE OVER CMDTMP
000667:
000668: 20,3156           00002                           TC       Q
000669:
000670:
000671:                                                                                                  #  NUMERATOR-SUM COMPUTATION....
000672:
000673: 20,3157           31717        NSUM               CAE      B1TMP                                 #  PREPARE NUMERATOR SUM, SCALING IS AT
000674: 20,3160           00006                           EXTEND                                         #       B+0 REVS  ( = B+2 x B-2 )
000675: 20,3161           73406                           MP       N1
000676: 20,3162           53712                           DXCH     NSUMTMP
000677:
000678: 20,3163           31720                           CAE      B2TMP
000679: 20,3164           00006                           EXTEND
000680: 20,3165           73407                           MP       N2
000681: 20,3166           21712                           DAS      NSUMTMP
000682:
000683: 20,3167           31721                           CAE      B3TMP
000684: 20,3170           00006                           EXTEND
000685: 20,3171           73410                           MP       N3
000686: 20,3172           21712                           DAS      NSUMTMP
000687:
000688: 20,3173           31722                           CAE      B4TMP
000689: 20,3174           00006                           EXTEND
000690: 20,3175           73411                           MP       N4
000691: 20,3176           21712                           DAS      NSUMTMP
000692:
000693: 20,3177           31723                           CAE      B5TMP
000694: 20,3200           00006                           EXTEND


000696: 20,3201           73412                           MP       N5
000697: 20,3202           21712                           DAS      NSUMTMP
000698:
000699: 20,3203           31724                           CAE      B6TMP
000700: 20,3204           00006                           EXTEND
000701: 20,3205           73413                           MP       N6
000702: 20,3206           21712                           DAS      NSUMTMP
000703:
000704: 20,3207           31725                           CAE      B7TMP
000705: 20,3210           00006                           EXTEND
000706: 20,3211           73414                           MP       N7
000707: 20,3212           21712                           DAS      NSUMTMP
000708:
000709: 20,3213           53712        NSUMSC             DXCH     NSUMTMP                               #  FIX UP SCALING (NOW AT B+0 REVS)
000710: 20,3214           20001                           DDOUBL
000711: 20,3215           53712                           DXCH     NSUMTMP                               #  SC.AT B-1 REV
000712:
000713: 20,3216           00002                           TC       Q
000714:
000715:
000716:                                                                                                  #  DENOMINATOR-SUM COMPUTATION....
000717:
000718: 20,3217           31726        DSUM               CAE      J1TMP                                 #  PREPARE DENOMINATOR SUM, SCALED
000719: 20,3220           00006                           EXTEND                                         #       AT B+1 SPASCREVS ( = B+4 X B-3 )
000720: 20,3221           73415                           MP       D1                                    #       (J1TMP = J,YZERO,  SC.AT  B-3 REVS)
000721: 20,3222           53714                           DXCH     DSUMTMP
000722: 20,3223           31726                           CAE      J1TMP
000723: 20,3224           00006                           EXTEND
000724: 20,3225           73416                           MP       D1         +1
000725: 20,3226           27714                           ADS      DSUMTMP    +1
000726: 20,3227           54001                           TS       L
000727: 20,3230           13232                           TCF      +2
000728: 20,3231           27713                           ADS      DSUMTMP
000729: 20,3232           31727                           CAE      J1TMP      +1
000730: 20,3233           00006                           EXTEND
000731: 20,3234           73415                           MP       D1
000732: 20,3235           27714                           ADS      DSUMTMP    +1
000733: 20,3236           54001                           TS       L
000734: 20,3237           13241                           TCF      +2
000735: 20,3240           27713                           ADS      DSUMTMP
000736:
000737: 20,3241           31730        D2J2               CAE      J2TMP
000738: 20,3242           00006                           EXTEND
000739: 20,3243           73417                           MP       D2
000740: 20,3244           21714                           DAS      DSUMTMP
000741: 20,3245           31730                           CAE      J2TMP
000742: 20,3246           00006                           EXTEND
000743: 20,3247           73420                           MP       D2         +1
000744: 20,3250           27714                           ADS      DSUMTMP    +1
000745: 20,3251           54001                           TS       L


000747: 20,3252           13254                           TCF      +2
000748: 20,3253           27713                           ADS      DSUMTMP
000749: 20,3254           31731                           CAE      J2TMP      +1
000750: 20,3255           00006                           EXTEND
000751: 20,3256           73417                           MP       D2
000752: 20,3257           27714                           ADS      DSUMTMP    +1
000753: 20,3260           54001                           TS       L
000754: 20,3261           13263                           TCF      +2
000755: 20,3262           27713                           ADS      DSUMTMP
000756:
000757: 20,3263           31732        D3J3               CAE      J3TMP
000758: 20,3264           00006                           EXTEND
000759: 20,3265           73421                           MP       D3
000760: 20,3266           21714                           DAS      DSUMTMP
000761: 20,3267           31732                           CAE      J3TMP
000762: 20,3270           00006                           EXTEND
000763: 20,3271           73422                           MP       D3         +1
000764: 20,3272           27714                           ADS      DSUMTMP    +1
000765: 20,3273           54001                           TS       L
000766: 20,3274           13276                           TCF      +2
000767: 20,3275           27713                           ADS      DSUMTMP
000768: 20,3276           31733                           CAE      J3TMP      +1
000769: 20,3277           00006                           EXTEND
000770: 20,3300           73421                           MP       D3
000771: 20,3301           27714                           ADS      DSUMTMP    +1
000772: 20,3302           54001                           TS       L
000773: 20,3303           13305                           TCF      +2
000774: 20,3304           27713                           ADS      DSUMTMP
000775:
000776: 20,3305           31734        D4J4               CAE      J4TMP
000777: 20,3306           00006                           EXTEND
000778: 20,3307           73423                           MP       D4
000779: 20,3310           21714                           DAS      DSUMTMP
000780: 20,3311           31734                           CAE      J4TMP
000781: 20,3312           00006                           EXTEND
000782: 20,3313           73424                           MP       D4         +1
000783: 20,3314           27714                           ADS      DSUMTMP    +1
000784: 20,3315           54001                           TS       L
000785: 20,3316           13320                           TCF      +2
000786: 20,3317           27713                           ADS      DSUMTMP
000787: 20,3320           31735                           CAE      J4TMP      +1
000788: 20,3321           00006                           EXTEND
000789: 20,3322           73423                           MP       D4
000790: 20,3323           27714                           ADS      DSUMTMP    +1
000791: 20,3324           54001                           TS       L
000792: 20,3325           13327                           TCF      +2
000793: 20,3326           27713                           ADS      DSUMTMP
000794:
000795: 20,3327           31736        D5J5               CAE      J5TMP
000796: 20,3330           00006                           EXTEND


000798: 20,3331           73425                           MP       D5
000799: 20,3332           21714                           DAS      DSUMTMP
000800: 20,3333           31736                           CAE      J5TMP
000801: 20,3334           00006                           EXTEND
000802: 20,3335           73426                           MP       D5         +1
000803: 20,3336           27714                           ADS      DSUMTMP    +1
000804: 20,3337           54001                           TS       L
000805: 20,3340           13342                           TCF      +2
000806: 20,3341           27713                           ADS      DSUMTMP
000807: 20,3342           31737                           CAE      J5TMP      +1
000808: 20,3343           00006                           EXTEND
000809: 20,3344           73425                           MP       D5
000810: 20,3345           27714                           ADS      DSUMTMP    +1
000811: 20,3346           54001                           TS       L
000812: 20,3347           13351                           TCF      +2
000813: 20,3350           27713                           ADS      DSUMTMP
000814:
000815: 20,3351           31740        D6J6               CAE      J6TMP
000816: 20,3352           00006                           EXTEND
000817: 20,3353           73427                           MP       D6
000818: 20,3354           21714                           DAS      DSUMTMP
000819: 20,3355           31740                           CAE      J6TMP
000820: 20,3356           00006                           EXTEND
000821: 20,3357           73430                           MP       D6         +1
000822: 20,3360           27714                           ADS      DSUMTMP    +1
000823: 20,3361           54001                           TS       L
000824: 20,3362           13364                           TCF      +2
000825: 20,3363           27713                           ADS      DSUMTMP
000826: 20,3364           31741                           CAE      J6TMP      +1
000827: 20,3365           00006                           EXTEND
000828: 20,3366           73427                           MP       D6
000829: 20,3367           27714                           ADS      DSUMTMP    +1
000830: 20,3370           54001                           TS       L
000831: 20,3371           13373                           TCF      +2
000832: 20,3372           27713                           ADS      DSUMTMP
000833:
000834: 20,3373           53714        DSUMSC             DXCH     DSUMTMP                               #  FIX UP SCALING  (NOW AT B+1 SPASCREV)
000835: 20,3374           20001                           DDOUBL
000836: 20,3375           53714                           DXCH     DSUMTMP                               #  SC.AT B+0 SPASCREV
000837:
000838: 20,3376           00002                           TC       Q
000839:


000841:                                                                                                  #  CONSTANTS FOR AUTOPILOTS
000842:
000843:
000844:                                                                                                  #  NOTE....1 ASCREV (ACTUATOR CMD SCALING) = 85.41 ARCSEC/BIT  OR  1.07975111 REVS (85.41X16384/3600/360)
000845:
000846:                                                                                                  #          1 SPASCREV (SPECIAL ACTUATOR CMD SCALING) = 1.04620942 REVS
000847:
000848: 20,3377           00375        ACTSAT             DEC      253        B-14                       #  ACTUATOR LIMIT (6 DEG),  SC.AT 1ASCREV
000849: 20,3400           00101        1/ACTSAT           DEC      .0039525692                            #  RECIPROCAL (1/253)
000850:
000851: 20,3401     4676               ERRLIM             EQUALS   BIT13                                 #  FILTER INPUT LIMIT....B-3 REVS (45DEG),
000852: 20,3401     4710               1/ERRLIM           EQUALS   BIT3                                  #       SC.AT B-1 REV, AND ITS RECIPROCAL
000853:
000854: 20,3401     4727               KPDN               =        DEC45                                 #  DESIGN-NOMINAL FILTER GAIN, SC.AT B+1
000855: 20,3401     4727               KYDN               =        KPDN                                  #       SPASCREV (FOR DEC45 BITS EXACTLY)
000856:                                                                                                  #                                                    KPDN = .005747 DEG/DEG
000857:                                                                                                  #                                                    SCALED KPDN = DEC45
000858:                                                                                                  #                                                    1SPASCREV = KPDN(B+14)/(2X45)
000859:                                                                                                  #                                                               = 1.04620942 REVS
000860:
000861:
000862: 20,3401           02326        PITCHT5            GENADR   PITCHDAP                              #  UPPER WORDS OF T5 2CADRS, LOWER WORDS
000863: 20,3402           03075        DAPT5              GENADR   DAPINIT                               #       (BBCON) ALREADY THERE.  ORDER IS
000864: 20,3403           02616        YAWT5              GENADR   YAWDAP                                #       REQUIRED.
000865:
000866:
000867: 20,3404           00243        1-E(-AT)           OCT      00243                                 #  AT = .01SEC....EITHER(1/A=4SEC, T=40MS),
000868: 20,3405           37535        E(-AT)             OCT      37535                                 #                     OR(1/A=8SEC, T=80MS)
000869:
000870: 20,3406           50166        N1                 DEC      -2.9708385 B-2                        #  NUMERATOR COEFS (CSM/LEM), SC.AT B+2
000871: 20,3407           31436        N2                 DEC      3.1947342  B-2
000872: 20,3410           74561        N3                 DEC      -0.40962906 B-2
000873: 20,3411           53277        N4                 DEC      -2.5780275 B-2
000874: 20,3412           27550        N5                 DEC      2.9629319  B-2
000875: 20,3413           63725        N6                 DEC      -1.5101470 B-2
000876: 20,3414           02400        N7                 DEC      0.31243224 B-2
000877:
000878: 20,3415           66341 54237  D1                 2DEC     -4.7798977 B-4                        #  DENOMINATOR COEFS (CSM/LEM), SC.AT B+4
000879:
000880: 20,3417           22707 36641  D2                 2DEC     9.4452763  B-4


000882: 20,3421           54220 40714  D3                 2DEC     -9.8593475 B-4
000883: 20,3423           13344 21146  D4                 2DEC     5.7231811  B-4
000884: 20,3425           74401 61760  D5                 2DEC     -1.7484750 B-4
000885: 20,3427           00340 23073  D6                 2DEC     0.21933335 B-4

End of include-file TVCDAPS.agc.  Parent file is MAIN.agc


