
Source Code


000002:                                                                                                  #  Copyright:    Public domain.
000003:                                                                                                  #  Filename:     TVCEXECUTIVE.agc
000004:                                                                                                  #  Purpose:      Part of the source code for Colossus build 237.
000005:                                                                                                  #                This is for the Command Module's (CM) Apollo Guidance
000006:                                                                                                  #                Computer (AGC), we believe for Apollo 8.
000007:                                                                                                  #  Assembler:    yaYUL
000008:                                                                                                  #  Contact:      Jim Lawton <jim DOT lawton AT gmail DOT com>
000009:                                                                                                  #  Website:      www.ibiblio.org/apollo/index.html
000010:                                                                                                  #  Page scans:   www.ibiblio.org/apollo/ScansForConversion/Colossus237/
000011:                                                                                                  #  Mod history:  2011-03-06 JL   Adapted from corresponding Colossus 249 file.
000012:
000013:                                                                                                  # # Page 900
000014:                                                                                                  #  PROGRAM NAME.... DVCEXECUTIVE, CONSISTING OF TVCEXEC, NEEDLEUP, VARGAINS
000015:                                                                                                  #                   REPCHEK, SWTCHOVR, CG.CORR, STRKUP, TVCEXFIN, ETC.
000016:                                                                                                  #  LOG SECTION....TVCEXECUTIVE     SUBROUTINE ....DAPCSM
000017:                                                                                                  #  MOD BY ENGEL                    DATE 23 OCT, 1967
000018:
000019:                                                                                                  #  FUNCTIONAL DESCRIPTION....
000020:
000021:                                                                                                  #      *A SELF-PERPETUATING WAITLIST TASK AT 1/2 SECOND INTERVALS WHICH:
000022:                                                                                                  #       PREPARES THE ROLL TVC DAP LADDERS
000023:                                                                                                  #       PREPARES THE ROLL FDAI NEEDLE (FLY-TO  OGA ERROR)
000024:                                                                                                  #       PREPARES THE ROLL PHASE PLANE  OGAERR  (FLY-FROM  OGA ERROR)
000025:                                                                                                  #       PREPARES THE TVC ROLLDAP TASK WAITLIST CALL (3 CS DELAY)
000026:                                                                                                  #       UPDATES THE NEEDLES DISPLAY
000027:                                                                                                  #       IMPLEMENTS VARIABLE GAINS AND VARIABLE VEHICLE MASS
000028:                                                                                                  #       PROVIDES FOR SWITCHOVER
000029:                                                                                                  #       PROVIDES FOR A SINGLE-SHOT THRUST MISALIGNMENT CORRECTION AT SWTOVR
000030:                                                                                                  #       PROVIDES FOR REPETITIVE THRUST MISALIGNMENT CORRECTIONS FOLLOWING
000031:                                                                                                  #            SWITCHOVER
000032:                                                                                                  #       PERFORMS CERTAIN STROKE TEST FUNCTIONS
000033:
000034:                                                                                                  #  CALLING SEQUENCE....
000035:
000036:                                                                                                  #      *TVCEXEC CALLED AS A WAITLIST TASK, IN PARTICULAR BY TVCINIT4 AND BY
000037:                                                                                                  #       ITSELF, BOTH AT 1/2 SECOND INTERVALS
000038:
000039:                                                                                                  #  NORMAL EXIT MODE.... TASKOVER
000040:
000041:                                                                                                  #  ALARM OR ABORT EXIT MODES.... NONE
000042:
000043:                                                                                                  #  SUBROUTINES CALLED....NEEDLER, S40.15, MASSPROP, TASKOVER, IBNKCALL
000044:
000045:                                                                                                  #  OTHER INTERFACES....
000046:
000047:                                                                                                  #      *TVCRESTART PACKAGE FOR RESTARTS
000048:                                                                                                  #      *PITCHDAP, YAWDAP FOR VARIABLE GAINS AND ENGINE TRIM ANGLES
000049:                                                                                                  #      *S40.6 KPRIMEDT AT SWITCHOVER
000050:
000051:                                                                                                  #  ERASABLE INITIALIZATION REQUIRED....
000052:
000053:                                                                                                  #      *SEE TVCDAPON....TVCINIT4
000054:                                                                                                  #      *VARK AND 1/CONACC (S40.15 OF R03)
000055:                                                                                                  #      *V68 INITIALIZATION PRIOR TO SWITCHOVER OR FOLLOWING A RESTART
000056:                                                                                                  #       DURING A STROKE TEST, IF STROKE TEST FUNCTIONS ARE TO BE TESTED
000057:                                                                                                  #      *PAD LOADS EREPFRAC, ECORFRAC ETC.
000058:                                                                                                  #      *BITS 15,14 OF FLAGWRD6 (T5 BITS)
000059:                                                                                                  #      *TVCEXPHS FOR RESTARTS
000060:                                                                                                  #      *ENGINE-ON BIT (11.13) FOR RESTARTS
000061:                                                                                                  #      *CDUX, OGAD
000062:
000063:                                                                                                  #  OUTPUT....
000064:                                                                                                  # # Page 901
000065:                                                                                                  #      *ROLL TVC DAP LADDERS, FDAI NEEDLE (AK), AND PHASE PLANE OGAERR
000066:                                                                                                  #      *VARIABLE GAINS FOR PITCH/YAW AND ROLL TVC DAPS
000067:                                                                                                  #      *SINGLE-SHOT AND REPETITIVE CORRECTIONS TO ENGINE TRIM ANGLES
000068:                                                                                                  #       PACTOFF AND YACTOFF
000069:                                                                                                  #      *CHANGES TO DAP SAMPLE RATES, DAP GAINS, AND STEERING-GAIN SCALING
000070:                                                                                                  #       AT (LEM-ON) SWITCHOVER
000071:                                                                                                  #      *STROKER, 4 SECONDS AFTER SWITCHOVER WHEN PRIOR V66, OR 2.5
000072:                                                                                                  #       SECONDS AFTER RESTART DURING A STROKE TEST
000073:
000074:                                                                                                  #  DEBRIS.... MUCH, BUT SHAREABLE WITH RCS/ENTRY, ALL IN EBANK6
000075:
000076:
000077: 16,2660                                           BANK     16
000078: 16,2000                                           SETLOC   DAPROLL
000079: 16,2000                                           BANK
000080: 16,2660  E6,1742                                  EBANK=   BZERO
000081: 16,2660                                           COUNT*   $$/TVCX
000082: 16,2660           40102        TVCEXEC            CS       FLAGWRD6                              #  CHECK FOR TERMINATION (BITS 15,14 READ
000083: 16,2661           74105                           MASK     OCT60000                              #       10 FROM TVCDAPON TO RCSDAPON)
000084: 16,2662           00006                           EXTEND
000085: 16,2663           63142                           BZMF     TVCEXFIN                              #  TERMINATE
000086:
000087: 16,2664           34731                           CAF      .5SEC                                 #  W.L. CALL TO PERPETUATE TVCEXEC
000088: 16,2665           05140                           TC       WAITLIST
000089: 16,2666  E6,1742                                  EBANK=   BZERO
000090: 16,2666           02660 34066                     2CADR    TVCEXEC
000091:
000092: 16,2670           30032        ROLLPREP           CAE      CDUX                                  #  UPDATE ROLL LADDERS (NO NEED TO RESTART-
000093: 16,2671           57672                           XCH      OGANOW                                #       PROTECT, SINCE ROLL DAPS RE-START)
000094: 16,2672           57673                           XCH      OGAPAST
000095:
000096: 16,2673           31450                           CAE      OGAD                                  #  PREPARE ROLL FDAI NEEDLE WTIH FLY-TO
000097: 16,2674           00006                           EXTEND                                         #       ERROR (COMMAND - MEASURED)
000098: 16,2675           21672                           MSU      OGANOW
000099: 16,2676           55476                           TS       AK                                    #  FLY-TO OGA ERROR, SC.AT B-1 REVS
000100:
000101: 16,2677           00006                           EXTEND                                         #  PREPARE ROLL DAP PHASE PLANE  OGAERR
000102: 16,2700           77705                           MP       -BIT14
000103: 16,2701           55674                           TS       OGAERR                                #  PHASE-PLANE (FLY-FROM) OGAERROR,
000104:                                                                                                  #                                               SC.AT B+0 REVS
000105:
000106: 16,2702           36214                           CAF      THREE                                 #  SET UP ROLL DAP TASK (ALLOW SOME TIME)
000107: 16,2703           05140                           TC       WAITLIST
000108: 16,2704  E6,1742                                  EBANK=   BZERO
000109: 16,2704           03312 34066                     2CADR    ROLLDAP
000110: 16,2706           04633        NEEDLEUP           TC       IBNKCALL                              #  DO A NEEDLES UPDATE (RETURNS AFTER CADR)
000111: 16,2707           42404                           CADR     NEEDLER                               #       (NEEDLES RESTARTS ITSELF)
000112:
000113:                                                                                                  # # Page 902
000114: 16,2710           34676        VARGAINS           CAF      BIT13                                 #  CHECK ENGINE-ON BIT TO INHIBIT VARIABLE
000115: 16,2711           00006                           EXTEND                                         #       GAINS AND MASS IF ENGINE OFF
000116: 16,2712           02011                           RAND     DSALMOUT                              #  CHANNEL 11
000117: 16,2713           10000                           CCS      A
000118: 16,2714           12720                           TCF      +4                                    #      ON , SO OK TO UPDATE GAINS AND MASS
000119: 16,2715           34711                 +5        CAF      TWO                                   #       OFF, SO BYPASS MASS/GAIN UPDATES,
000120: 16,2716           55661                           TS       TVCEXPHS                              #            ALSO ENTRY FROM CCS BELOW WITH
000121: 16,2717           12750                           TCF      SWT/COR                               #            VCNTR = -0 (V97 R40 ENGFAIL)
000122:
000123: 16,2720           11653                           CCS      VCNTR                                 #       TEST FOR GAIN OF UPDATE TIME
000124: 16,2721           12725                           TCF      +4                                    #            NOT YET
000125: 16,2722           12731                           TCF      GAINCHNG                              #            NOW
000126: 16,2723           12723                           TCF      +0                                    #            NOT USED
000127: 16,2724           12715                           TCF      VARGAINS   +5                         #            NO, LOTHRUST (S40.8 R40)
000128:
000129: 16,2725           55663                 +4        TS       VCNTRTMP                              #       PROTECT VCNTR AND
000130: 16,2726           31474                           CAE      CSMMASS                               #      CSMMASS DURING AN IMPULSIVE BURN
000131: 16,2727           55662                           TS       MASSTMP
000132: 16,2730           12741                           TCF      EXECCOPY
000133:
000134: 16,2731           04633        GAINCHNG           TC       IBNKCALL                              #  UPDATE IXX, IAVG, IAVG/TLX
000135: 16,2732           13232                           CADR     FIXCW                                 #  MASSPROP ENTRY  (ALREADY INITIALIZED)
000136: 16,2733           03145                           TC       S40.15                                #  UPDATE 1/CONACC, VARK
000137: 16,2734           41647                           CS       TENMDOT                               #  UPDATE MASS FOR NEXT 10 SEC. OF BURN
000138: 16,2735           61474                           AD       CSMMASS
000139: 16,2736           55662                           TS       MASSTMP                               #  KG B+16
000140:
000141: 16,2737           34374                           CAF      NINETEEN                              #  RESET THE VARIABLE-GAIN UPDATE COUNTER
000142: 16,2740           55663        NOUPDATE           TS       VCNTRTMP                              #  (COUNTDOWN, FROM VARGAINS +1)
000143:
000144: 16,2741           25661        EXECCOPY           INCR     TVCEXPHS                              #  RESTART-PROTECT THE COPYCYCLE        (1)
000145:
000146: 16,2742           31662                           CAE      MASSTMP                               #  CSMMASS KG B+16
000147: 16,2743           55474                           TS       CSMMASS
000148:
000149: 16,2744           31663                           CAE      VCNTRTMP                              #  VCNTR
000150: 16,2745           55653                           TS       VCNTR
000151: 16,2746           55444                           TS       V97VCNTR                              #  FOR ENGFAIL (R41) MASS UPDATES AT SPSOFF
000152:
000153: 16,2747           25661                           INCR     TVCEXPHS                              #  COPYCYCLE OVER                       (2)
000154:
000155: 16,2750           11447        SWT/COR            CCS      CNTR                                  #  CHECK FOR SWITCHOVER/CG.CORRECTION
000156: 16,2751           12755                           TCF      +4                                    #       NOT YET
000157: 16,2752           12773                           TCF      SWTCHOVR                              #       NOW
000158: 16,2753           12761                           TCF      REPCHEK                               #       PRIOR SWITCHOVER (OR NONE)
000159: 16,2754           12773                           TCF      SWTCHOVR                              #       NOW (1/2 SEC SWITCHOVER, ONLY)
000160:
000161: 16,2755           55707                 +4        TS       CNTRTMP                               #  COUNT DOWN
000162: 16,2756           34716                           CAF      SEVEN                                 #  SETUP TVCEXPHS FOR ENTRY AT CNTRCOPY
000163: 16,2757           55661                           TS       TVCEXPHS
000164:                                                                                                  # # Page 903
000165: 16,2760           13122                           TCF      CNTRCOPY
000166:
000167: 16,2761           31652        REPCHEK            CAE      REPFRAC                               #  CHECK FOR REPETITIVE UPDATES
000168: 16,2762           00006                           EXTEND
000169: 16,2763           62770                           BZMF     +5                                    #       NO   (NEG OR +-ZERO)
000170: 16,2764           55446                           TS       TEMPDAP    +1                         #       YES, SET UP CORRECTION FUNCTION
000171: 16,2765           34715                           CAF      FIVE                                  #            ADVANCE TVCEXPHS
000172: 16,2766           55661                           TS       TVCEXPHS
000173: 16,2767           13053                           TCF      CORSETUP
000174:
000175: 16,2770           34707                 +5        CAF      EIGHT
000176: 16,2771           55661                           TS       TVCEXPHS
000177: 16,2772           13125                           TCF      STRKUP
000178:
000179: 16,2773           34676        SWTCHOVR           CAF      BIT13                                 #  CHECK ENGINE-ON BIT, NOT PERMITTING
000180: 16,2774           00006                           EXTEND                                         #       SWITCHOVER DURING ENGINE-SHUTDOWN
000181: 16,2775           02011                           RAND     DSALMOUT                              #       TAILOFF
000182: 16,2776           10000                           CCS      A
000183: 16,2777           13001                           TCF      +2                                    #  OK TO SWITCHOVER
000184: 16,3000           13142                           TCF      TVCEXFIN                              #  DONT SWITCHOVER, TERMINATE
000185:
000186: 16,3001           40105                           CS       FLAGWRD9                              #  SET SWITCHOVER FLAG (SWTOVER) FOR DWNLNK
000187: 16,3002           74674                           MASK     BIT15                                 #       AND POST-BURN TRIM UPDATES (SEE
000188: 16,3003           26105                           ADS      FLAGWRD9                              #       ..BESTTRIM.. (P40-P47))
000189:
000190: 16,3004           31466                           CAE      DAPDATR1                              #  SWITCHOVER....CHECK FOR LEM-OFF/ON
000191: 16,3005           74676                           MASK     BIT13                                 #  (NOTE, SHOWS LEM-OFF)
000192: 16,3006           00006                           EXTEND
000193: 16,3007           13013                           BZF      GAINDOWN                              #  LEM-ON....FULL SWITCHOVER/CG.CORRECTION
000194:
000195: 16,3010           34710                           CAF      FOUR                                  #  LEM-OFF....NO SWITCHOVER, JUST CG.CORR.
000196: 16,3011           55661                           TS       TVCEXPHS
000197: 16,3012           13050                           TCF      TEMPSET
000198:
000199: 16,3013           31420        GAINDOWN           CAE      ETVCDT/2                              #  LEM-ON.... DROP GAIN BY (OLDTVCDT/8CS)SQ
000200: 16,3014           00006                           EXTEND
000201: 16,3015           74706                           MP       BIT5
000202: 16,3016           22000                           LXCH     A
000203: 16,3017           00006                           EXTEND
000204: 16,3020           70000                           MP       A
000205: 16,3021           22000                           LXCH     A                                     #  (TVCDT/8CS)SQD, SC.AT 8+2
000206:
000207: 16,3022           00006                           EXTEND                                         #  PREPARE NEW GAIN CONSTANT
000208: 16,3023           71646                           MP       KTLX/I
000209: 16,3024           20001                           DDOUBL
000210: 16,3025           20001                           DDOUBL
000211: 16,3026           55702                           TS       TKTLX/I                               #  (FOR COPYCYCLE)
000212:
000213: 16,3027           25661        SWTCOPY            INCR     TVCEXPHS                              #  RESTART-PROTECT THE COPYCYCLE        (3)
000214:
000215:                                                                                                  # # Page 904
000216: 16,3030           37677                           CAF      OCT37774                              #  LEM-ON ONLY..... T5 TIMER
000217: 16,3031           55635                           TS       T5TVCDT
000218:
000219: 16,3032           31414                           CAE      EKPRIME    +1                         #  PREPARE KPRIMEDT FOR 80MS DAP, USING
000220: 16,3033           60000                           DOUBLE
000221: 16,3034           60000                           DOUBLE
000222: 16,3035           55644                           TS       KPRIMEDT                              #       (KPRIMEDT+1 IS ZERO)
000223:
000224:                                                                                                  #                                          SCALING OF OMEGAC HAS CHANGED, BUT NO
000225:                                                                                                  #                                               CHANGE OF REGISTERS.  RATE COMMANDS
000226:                                                                                                  #                                               ARE LOW BY  (OLD TVCDT)/80,  UNTIL
000227:                                                                                                  #                                               NEXT S40.6 COMPUTATION, WHICH USES
000228:                                                                                                  #                                               THE NEW  KPRIMEDT.
000229:
000230: 16,3036           31702                           CAE      TKTLX/I                               #  GAIN CONSTANT
000231: 16,3037           55646                           TS       KTLX/I
000232:
000233: 16,3040           03154                           TC       S40.15     +7                         #  UPDATE VARK (ONLY, NO CHANGE 1/CONACC)
000234:
000235: 16,3041           11614        STRKCALL           CCS      STROKER                               #  CHECK STROKER FOR VERB 68 INDICATION
000236: 16,3042           13047                           TCF      +5                                    #       STROKE TEST IN PROGRESS (80MS DAP)
000237: 16,3043           13047                           TCF      +4                                    #       +0 SAYS NO VERB 68 YET
000238: 16,3044           13047                           TCF      +3                                    #       STROKE TEST IN PROGRESS (80MS DAP)
000239: 16,3045           34707                           CAF      EIGHT                                 #       -0 SAYS PRIOR VERB68, SO START
000240: 16,3046           55664                           TS       STRKTIME                              #            STROKE TEST IN 4 SECONDS
000241:
000242: 16,3047           25661                 +543      INCR     TVCEXPHS                              #  COPYCYCLE OVER (SWTCHOVR ENTRY NEXT) (4)
000243:
000244: 16,3050           31422        TEMPSET            CAE      ECORFRAC                              #        SET UP CORRECTION FRACTION
000245: 16,3051           55446                           TS       TEMPDAP    +1
000246:
000247: 16,3052           25661                           INCR     TVCEXPHS                              #  ENTRY FROM REPCHECK AT NEXT LOCATION (5)
000248:
000249: 16,3053           31466        CORSETUP           CAE      DAPDATR1                              #  CHECK FOR LEM-OFF/ON
000250: 16,3054           74676                           MASK     BIT13                                 #  (NOTE, SHOWS LEM-OFF)
000251: 16,3055           00006                           EXTEND
000252: 16,3056           13060                           BZF      +2                                    #  LEM IS ON,  PICK UP   TEMPDAP+1
000253: 16,3057           31446                           CAE      TEMPDAP    +1                         #  LEM IS OFF, PICK UP 2(TEMPDAP+1)
000254: 16,3060           61446                           AD       TEMPDAP    +1
000255: 16,3061           55445                           TS       TEMPDAP                               #  CG.CORR USES TEMPDAP
000256:
000257: 16,3062           37716                           CAF      NEGONE                                #  SET UP FOR CNTR = -1 (SWTCHOVR DONE)
000258: 16,3063           55707                           TS       CNTRTMP                               #       (COPYCYCLE AT  .CNTRCOPY. )
000259:
000260: 16,3064           00006        CG.CORR            EXTEND                                         #  PITCH TRIM-TRACKER CORRECTION
000261: 16,3065           31626                           DCA      PDELOFF
000262: 16,3066           53704                           DXCH     PACTTMP
000263: 16,3067           41425                           CS       PACTOFF
000264: 16,3070           61621                           AD       DELPBAR
000265: 16,3071           00006                           EXTEND
000266:                                                                                                  # # Page 905
000267: 16,3072           71445                           MP       TEMPDAP
000268: 16,3073           20001                           DDOUBL
000269: 16,3074           20001                           DDOUBL
000270: 16,3075           21704                           DAS      PACTTMP
000271:
000272: 16,3076           00006                           EXTEND
000273: 16,3077           31630                           DCA      YDELOFF
000274: 16,3100           53706                           DXCH     YACTTMP
000275: 16,3101           41426                           CS       YACTOFF
000276: 16,3102           61623                           AD       DELYBAR
000277: 16,3103           00006                           EXTEND
000278: 16,3104           71445                           MP       TEMPDAP
000279: 16,3105           20001                           DDOUBL
000280: 16,3106           20001                           DDOUBL
000281: 16,3107           21706                           DAS      YACTTMP
000282:
000283: 16,3110           25661        CORCOPY            INCR     TVCEXPHS                              #  RESTART-PROTECT THE COPYCYCLE        (6)
000284:
000285: 16,3111           00006                           EXTEND                                         #  TRIM-ESTIMATES, AND
000286: 16,3112           31704                           DCA      PACTTMP
000287: 16,3113           55425                           TS       PACTOFF                               #        TRIMS
000288: 16,3114           53626                           DXCH     PDELOFF
000289:
000290: 16,3115           00006                           EXTEND
000291: 16,3116           31706                           DCA      YACTTMP
000292: 16,3117           55426                           TS       YACTOFF
000293: 16,3120           53630                           DXCH     YDELOFF
000294:
000295: 16,3121           25661                           INCR     TVCEXPHS                              #  COPYCYCLE OVER (SWT/COR ENTRY NEXT)  (7)
000296:
000297: 16,3122           31707        CNTRCOPY           CAE      CNTRTMP                               #  UPDATE CNTR (RESTARTS OK, FOLLOWS CPYCY)
000298: 16,3123           55447                           TS       CNTR
000299:
000300: 16,3124           25661                           INCR     TVCEXPHS                              #  ENTRY FROM REPCHECK AT NEXT LOCATION (8)
000301:
000302: 16,3125           11664        STRKUP             CCS      STRKTIME                              #  CHECK STROKE TEST START TIME
000303: 16,3126           13131                           TCF      +3                                    #       IN 4SEC DELAY AFTER SWITCHOVER
000304: 16,3127           13133                           TCF      STRKNOW                               #       START STROKE TEST NOW....
000305: 16,3130           13142                           TCF      TVCEXFIN                              #       NO STROKE TEST REQUEST YET
000306:
000307: 16,3131           55710                           TS       STRKTTMP                              #  COUNT DOWN
000308: 16,3132           13137                           TCF      STRKTCPY
000309:
000310: 16,3133           31412        STRKNOW            CAE      ESTROKER                              #  START THE STROKE TEST NOW....
000311: 16,3134           55614                           TS       STROKER
000312: 16,3135           37716                           CAF      NEGONE                                #  KILL THE STROKE TEST CALL
000313: 16,3136           55710                           TS       STRKTTMP
000314:
000315: 16,3137           25661        STRKTCPY           INCR     TVCEXPHS                              #  RESTART-PROTECT THE COPYCYCLE        (9)
000316:
000317:                                                                                                  # # Page 906
000318: 16,3140           31710                           CAE      STRKTTMP
000319: 16,3141           55664                           TS       STRKTIME
000320:
000321: 16,3142           34714        TVCEXFIN           CAF      ZERO                                  #  RESET TVCEXPHS
000322: 16,3143           55661                           TS       TVCEXPHS
000323:
000324: 16,3144           15213                           TCF      TASKOVER                              #  OVER AND OUT
000325:
000326:                                                                                                  # # Page 907
000327:                                                                                                  #  NAME     S40.15 INERTIA COMPUTATIONS
000328: 16,3145  E6,1650                                  EBANK=   1/CONACC
000329:
000330: 16,3145           31470        S40.15             CAE      IXX                                   #  COMPUTE 1/CONACC (RACC)....IXX SC.AT
000331: 16,3146           00006                           EXTEND                                         #       B+20  KG M SQD
000332: 16,3147           73164                           MP       2PI/M                                 #  2PI/M, SC.AT  1/(B+8 N M)
000333: 16,3150           20001                           DDOUBL
000334: 16,3151           20001                           DDOUBL
000335: 16,3152           20001                           DDOUBL
000336: 16,3153           55650                           TS       1/CONACC                              #  SC.AT  B+9  SEC SQD / REV
000337:
000338: 16,3154           31646                 +7        CAE      KTLX/I                                #  COMPUTE VARK, SCALING IN THE KTLX/I FOR
000339: 16,3155           00006                           EXTEND                                         #       LM-OFF,ON. ENTRY FROM SWITCHOVER
000340: 16,3156           71472                           MP       IAVG/TLX                              #       SCALED AT B+2  SECONDS-SQUARED
000341: 16,3157           20001                           DDOUBL                                         #       SCALING
000342: 16,3160           20001                           DDOUBL
000343: 16,3161           20001                           DDOUBL
000344: 16,3162           55651                           TS       VARK                                  #       LEM-OFF KPGEN3(0) OR LEM-ON VARK(0)
000345:
000346: 16,3163           00002                           TC       Q
000347:
000348: 16,3164           33074        2PI/M              DEC      .00331017  B+8                        #  2PI/M, SC.AT 1/(B+8 N M)

End of include-file TVCEXECUTIVE.agc.  Parent file is MAIN.agc


