
Source Code


000002:                                                                                                  #  Copyright:    Public domain.
000003:                                                                                                  #  Filename:     TVCGEN3FILTERS.agc
000004:                                                                                                  #  Purpose:      Part of the source code for Colossus build 237.
000005:                                                                                                  #                This is for the Command Module's (CM) Apollo Guidance
000006:                                                                                                  #                Computer (AGC), we believe for Apollo 8.
000007:                                                                                                  #  Assembler:    yaYUL
000008:                                                                                                  #  Contact:      Jim Lawton <jim DOT lawton AT gmail DOT com>
000009:                                                                                                  #  Website:      www.ibiblio.org/apollo/index.html
000010:                                                                                                  #  Page scans:   www.ibiblio.org/apollo/ScansForConversion/Colossus237/
000011:                                                                                                  #  Mod history:  2011-03-12 JL   Adapted from corresponding Colossus 249 file.
000012:
000013:                                                                                                  # # Page 958
000014:                                                                                                  #  PROGRAM NAME.... GEN3DAP FILTERS, CONSISTING OF NP0NODE, NP1NODE, NY0NODE, NY1NODE, ETC.
000015:                                                                                                  #  LOG SECTION.... GEN3DAP FILTERS   SUBROUTINE....DAPCSM
000016:                                                                                                  #  MOD BY ENGEL                      20 OCT, 1967
000017:
000018:                                                                                                  #  FUNCTIONAL DESCRIPTION....
000019:
000020:                                                                                                  #       THE GEN3DAP FILTER PACKAGE IS DESIGNED TO PROVIDE FLEXIBLE, LAST-MINUTE CHANGEABLE DIGITAL AUTOPILOT
000021:                                                                                                  #  FILTERS FOR LEM-OFF FLIGHT.  GROUNDRULES FOR THE DESIGN AND USE OF THE PACKAGE ARE AS FOLLOWS.....
000022:
000023:                                                                                                  #       1. FILTER COEFFICIENTS AND GAINS IN ERASABLE MEMORY
000024:                                                                                                  #       2. UP TO THIRD-ORDER NUMERATOR OR DENOMINATOR
000025:                                                                                                  #       3. OPERATIONAL FIT WITHIN THE STRUCTURE OF TEH REGULAR LEM-ON DAP CODING
000026:                                                                                                  #       4. DENOMINATOR POLES INSIDE THE Z-PLANE UNIT CIRCLE
000027:                                                                                                  #       5. NUMERATOR ZEROES INSIDE THE Z-PLANE DOUBLE-UNIT CIRCLE
000028:                                                                                                  #       6. HIGH FREQUENCY (BODE) GAIN LESS THAN 8ASCREVS, OR 8.6380088 DEG/DEG
000029:
000030:                                                                                                  #  THE FILTERS ARE SHOWN IN THE FOLLOWING DIAGRAMS.....
000031:
000032:
000033:                                                                                                  #  PITCH GEN3DAP FILTER..
000034:
000035:                                                                                                  #                                                                   KPGEN3
000036:                                                                                                  #                                                                  ********
000037:                                                                                                  #                     *****************************************           *
000038:                                                                                                  #                     *                                       *           *
000039:                                                                                                  #                     *              -1        -2        -3   *           *
000040:                                                                                                  #        EP = ERRBTMP *    AP0 + AP1 Z   + AP2 Z   + AP3 Z     *   NP0          NPD = CMDTMP  **
000041:                                                                                                  #       ***************  -----------------------------------  **********( X )*********************
000042:                                                                                                  #                     *              -1        -2        -3   *                               **
000043:                                                                                                  #                     *    1  + BP1 Z   + BP2 Z   + BP3 Z     *
000044:                                                                                                  #                     *                                       *
000045:                                                                                                  #                     *****************************************
000046:
000047:
000048:                                                                                                  #  YAW GEN3DAP FILTER..
000049:
000050:                                                                                                  #                                                                 KYGEN3
000051:                                                                                                  #                                                                ********
000052:                                                                                                  #                    *****************************************           *
000053:                                                                                                  #                    *                                       *           *
000054:                                                                                                  #                    *              -1        -2        -3   *           *
000055:                                                                                                  #       EY = ERRBTMP *    AY0 + AY1 Z   + AY2 Z   + AY3 Z     *   NY0          NYP = CMDTMP  **
000056:                                                                                                  #      ***************  -----------------------------------  **********( X )*********************
000057:                                                                                                  #                    *              -1        -2        -3   *                               **
000058:                                                                                                  #                    *    1  + BY1 Z   + BY2 Z   + BY3 Z     *
000059:                                                                                                  #                    *                                       *
000060:                                                                                                  #                    *****************************************
000061:
000062:                                                                                                  # # Page 959
000063:                                                                                                  #  THE IMPLEMENTING EQUATIONS FOR THESE FILTERS ARE AS FOLLOWS.....
000064:
000065:                                                                                                  #       PITCH GEN3DAP....                                 YAW GEN3DAP....
000066:                                                                                                  #           NPD = (B+4) KPGEN3 NP0                            NYD = (B+4) KYGEN3 NY0
000067:                                                                                                  #           NP0 = AP0 EP           +4(Z-1) NP1                NY0 = AY0 EY           +4(Z-1) NY1
000068:                                                                                                  #           NP1 = AP1 EP - BP1 NP0 + (Z-1) NP2                NY1 = AY1 EY - BY1 NY0 + (Z-1) NY2
000069:                                                                                                  #           NP2 = AP3 EP - BP2 NP0 + (Z-1) NP3                NY2 = AY2 EY - BY2 NY0 + (Z-1) NY3
000070:                                                                                                  #           NP3 = AP3 EP - BP3 NP0                            NY3 = AY3 EY - BY3 NY0
000071:
000072:
000073:                                                                                                  #       FILTER INPUTS EP AND EY ARE PICKED UP FROM REGULAR LEM-ON CODING AT ERRBTMP  (UPPER WORD ONLY),  THUS ARE
000074:                                                                                                  #  SINGLE PRECISION QUANTITIES SCALED AT B-1 REVS. FILTER OUTPUTS NPD AND NYD ARE LEFT IN DOUBLE PRECISION AT
000075:                                                                                                  #  CMDTMP, SCALED AT 1 ASCREV, READY FOR OUTPUT PROCESSING VIA REGULAR LEM-ON CODING AT ..P,YOFFSET..
000076:                                                                                                  #  FOLLOWING OUTPUT PROCESSING, RETURN TO THE GEN3DAP FILTERS IS MADE FOR CALCULATION OF THE REMAINING NODES
000077:                                                                                                  #  NP1 TO NP3, OR NY1 TO NY3.  GEN3DAP FILTERS THEN RETURN TO THE LEM-ON CODING AT  ..DELBARP,Y..   FOR RESPECTIVE
000078:                                                                                                  #  OFFSET-TRACKER-FILTER COMPUTATIONS AND COPYCYCLES. NOTE THE EQUIVALENCES...NP1TMP=J5TMP, NP1=J5,
000079:                                                                                                  #  NP2TMP=NSUMTMP, NP2=PNSUM, NP3TMP=DSUMTMP, NP3=PDSUM, WITH CORRESPONDING RELATIONS FOR YAW.  THUS THE COPY-
000080:                                                                                                  #  CYCLE  PCOPY, FROM THE GEN3DAP STANDPOINT, IS EFFECTIVE FROM PMISC-3 TO ITS END AT TC Q.  YCOPY FROM YMISC-3.
000081:
000082:
000083:                                                                                                  #  SCALING OF THE FILTER NODES, COEFFICIENTS, AND GAINS WITHIN THE AGC IS AS FOLLOWS.....
000084:
000085:                                                                                                  #           QUANTITY   QUANTITY      PHYS.UNITS     MAX.VALUE      SCALE AT (FOR)
000086:
000087:                                                                                                  #           EP         EY            REVS              1/8           B-1 REV           (CDU SCALING)
000088:
000089:                                                                                                  #           NP0        NY0           REVS             (B+1)          B+1 REV
000090:                                                                                                  #           NP1        NY1           REVS             (B+3)          B+3 REV
000091:                                                                                                  #           NP2        NY2           REVS             (B+3)          B+3 REV
000092:                                                                                                  #           NP3        NY3           REVS             (B+3)          B+3 REV
000093:
000094:                                                                                                  #           NPD        NYD         ASC REVS            (1)           1 ASCREV          (ACTUATOR CDU SCALING)
000095:
000096:                                                                                                  #           KPGEN3     KYGEN3     ASCREV/REV           (8)         B+3 ASCREV/REV
000097:
000098:                                                                                                  #           AP0        AY0         DIMLESS.             1              B+2
000099:                                                                                                  #           AP1        AY1         DIMLESS.             6              B+4
000100:                                                                                                  #           AP2        AY2         DIMLESS.             12             B+4
000101:                                                                                                  #           AP3        AY3         DIMLESS.             8              B+4
000102:
000103:                                                                                                  #           BP1        BY1         DIMLESS.             3              B+2
000104:                                                                                                  #           BP2        BY2         DIMLESS.             3              B+2
000105:                                                                                                  #           BP3        BY3         DIMLESS.             1              B+2
000106:
000107:                                                                                                  #  FILTER COEFFICIENTS, GAINS, AND NODES ARE HELD IN DOUBLE PRECISION (ERASABLE) TO PERMIT CONSERVATIVE
000108:                                                                                                  #  SCALING AND YET OFFSET TRUNCATION LOSSES.  THIS APPEARS NECESSARY IF FILTER FLEXIBILITY IS TO BE MAINTAINED.
000109:                                                                                                  #  COMPUTATION TIME IS NOT CRITICAL.
000110:
000111:                                                                                                  # # Page 960
000112:                                                                                                  #  CALLING SEQUENCE....
000113:
000114:                                                                                                  #      *TC POSTJUMP....
000115:                                                                                                  #       CADR NP0NODE, NP1, NY0, NY1.  SPECIFICALLY, FROM PITCHDAP OR YAWDAP
000116:                                                                                                  #       (TVCDAP),AT P1FILJMP, P2FILJMP, Y1FILJMP, Y2FILJMP
000117:
000118:                                                                                                  #  NORMAL EXIT MODE....
000119:
000120:                                                                                                  #      *TC POSTJUMP....
000121:                                                                                                  #       CADR  (POFFSET, DELBARP), (YOFFSET, DELBARY).     IE, RETURNS TO
000122:                                                                                                  #       PITCHDAP OR YAWDAP AT APPROPRIATE ENTRY POINT
000123:
000124:                                                                                                  #  ALARM OR ABORT EXIT MODES....NONE
000125:
000126:                                                                                                  #  SUBROUTINES CALLED.... NONE
000127:
000128:                                                                                                  #  ERASABLE INITIALIZATION REQUIRED....
000129:
000130:                                                                                                  #      *AP0(SP),AP1(DP),...AP3(DP), (PITCH AND YAW) NUMERATOR COEFFICIENTS
000131:                                                                                                  #       (PAD LOADS)
000132:                                                                                                  #      *BP1(DP),...BP3(DP), (PITCH AND YAW) DENOMINATOR COEFFICIENTS
000133:                                                                                                  #       (PAD LOADS)
000134:                                                                                                  #      *KPGEN3 (S40.15 OF R03)
000135:
000136:                                                                                                  #  OUTPUT....
000137:
000138:                                                                                                  #      *CMDTMP (NPD, NYD) FOR OUTPUT PROCESSING BY PITCHDAP OR YAWDAP
000139:                                                                                                  #      *OTHER FILTER NODES
000140:
000141:                                                                                                  #  DEBRIS....TVC TEMPORARIES, SHAREABLE WITH RCS/ENTRY IN EBANK6 ONLY
000142:
000143:
000144: 21,2026                                           BANK     21
000145: 17,2000                                           SETLOC   DAPS4
000146: 17,2000                                           BANK
000147: 17,2215  E6,1742                                  EBANK=   EP
000148: 17,2215                                           COUNT*   $$/GEN3
000149:
000150:                                                                                                  # # Page 961
000151:                                                                                                  #  PITCH GEN3DAP FILTER.....
000152:
000153: 17,2215           00006        NP0NODE            EXTEND                                         #  FORM NODE NP0....COLLECT  (PAST NP1)
000154: 17,2216           31564                           DCA      NP1                                   #       (COMES HERE FROM REG. DAP CODING)
000155: 17,2217           20001                           DDOUBL
000156: 17,2220           20001                           DDOUBL
000157: 17,2221           53562                           DXCH     NP0
000158:
000159: 17,2222           31742        AP0(EP)            CAE      EP                                    #  SPXSP MULTIPLY FOR NUMERATOR COMPONENT
000160: 17,2223           00006                           EXTEND                                         #       EP = ERRBTMP,  SP, SC.AT B-1 REVS
000161: 17,2224           71427                           MP       AP0
000162: 17,2225           21562                           DAS      NP0                                   #  COMPLETED NODE NP0, SC.AT B+1 REVS
000163:
000164:
000165: 17,2226           31561        NPDNODE            CAE      NP0                                   #  FORM NODE NPD....SPXDP MULTIPLY BY GAIN
000166: 17,2227           00006                           EXTEND
000167: 17,2230           71651                           MP       KPGEN3
000168: 17,2231           53745                           DXCH     NPD
000169: 17,2232           31562                           CAE      NP0        +1
000170: 17,2233           00006                           EXTEND
000171: 17,2234           71651                           MP       KPGEN3
000172: 17,2235           22007                           ZL
000173: 17,2236           22000                           LXCH     A
000174: 17,2237           21745                           DAS      NPD                                   #  SC.AT B+4 ASCREV SINCE KPGEN3 AT B+3
000175:
000176: 17,2240           53745                           DXCH     NPD                                   #  FIX UP SCALING
000177: 17,2241           20001                           DDOUBL
000178: 17,2242           20001                           DDOUBL
000179: 17,2243           20001                           DDOUBL
000180: 17,2244           20001                           DDOUBL
000181: 17,2245           53745                           DXCH     NPD                                   #  COMPLETED NODE NPD, SC.AT 1ASCREV
000182:
000183:
000184: 17,2246           04574                           TC       POSTJUMP                              #  TRANSFER BACK TO REGULAR DAP CODING FOR
000185: 17,2247           40436                           CADR     POFFSET                               #       OUTPUT  (NPD = CMDTMP, DP)
000186: 17,2250           00006        NP1NODE            EXTEND                                         #  FORM NODE NP1....COLLECT  (PAST NP2)
000187: 17,2251           31542                           DCA      NP2                                   #       (COMES HERE FROM REG. DAP CODING)
000188: 17,2252           53737                           DXCH     NP1TMP
000189:
000190: 17,2253           41561        BP1(NP0)           CS       NP0                                   #  DPXDP MULTIPLY FOR DENOMINATOR COMPONENT
000191: 17,2254           00006                           EXTEND
000192: 17,2255           71436                           MP       BP1
000193: 17,2256           21737                           DAS      NP1TMP
000194: 17,2257           41562                           CS       NP0        +1
000195: 17,2260           00006                           EXTEND
000196: 17,2261           71436                           MP       BP1
000197: 17,2262           27737                           ADS      NP1TMP     +1
000198: 17,2263           54001                           TS       L
000199: 17,2264           12266                           TCF      +2
000200: 17,2265           27736                           ADS      NP1TMP
000201:                                                                                                  # # Page 962
000202: 17,2266           41561                           CS       NP0
000203: 17,2267           00006                           EXTEND
000204: 17,2270           71437                           MP       BP1        +1
000205: 17,2271           27737                           ADS      NP1TMP     +1
000206: 17,2272           54001                           TS       L
000207: 17,2273           12275                           TCF      +2
000208: 17,2274           27736                           ADS      NP1TMP
000209:
000210: 17,2275           31742        AP1(EP)            CAE      EP                                    #  DPXSP MULTIPLY FOR NUMERATOR COMPONENT
000211: 17,2276           00006                           EXTEND
000212: 17,2277           71430                           MP       AP1
000213: 17,2300           21737                           DAS      NP1TMP
000214: 17,2301           31742                           CAE      EP
000215: 17,2302           00006                           EXTEND
000216: 17,2303           71431                           MP       AP1        +1
000217: 17,2304           27737                           ADS      NP1TMP     +1
000218: 17,2305           54001                           TS       L
000219: 17,2306           12310                           TCF      +2
000220: 17,2307           27736                           ADS      NP1TMP                                #  COMPLETED NODE NP1
000221:
000222: 17,2310           00006        NP2NODE            EXTEND                                         #  FORM NODE NP2....COLLECT (PAST NP3)
000223: 17,2311           31544                           DCA      NP3
000224: 17,2312           53712                           DXCH     NP2TMP
000225: 17,2313           41561        BP2(NP0)           CS       NP0                                   #  DPXDP MULTIPLY FOR DENOMINATOR COMPONENT
000226: 17,2314           00006                           EXTEND
000227: 17,2315           71440                           MP       BP2
000228: 17,2316           21712                           DAS      NP2TMP
000229: 17,2317           41562                           CS       NP0        +1
000230: 17,2320           00006                           EXTEND
000231: 17,2321           71440                           MP       BP2
000232: 17,2322           27712                           ADS      NP2TMP     +1
000233: 17,2323           54001                           TS       L
000234: 17,2324           12326                           TCF      +2
000235: 17,2325           27711                           ADS      NP2TMP
000236: 17,2326           41561                           CS       NP0
000237: 17,2327           00006                           EXTEND
000238: 17,2330           71441                           MP       BP2        +1
000239: 17,2331           27712                           ADS      NP2TMP     +1
000240: 17,2332           54001                           TS       L
000241: 17,2333           12335                           TCF      +2
000242: 17,2334           27711                           ADS      NP2TMP
000243:
000244: 17,2335           31742        AP2(EP)            CAE      EP                                    #  DPXSP MULTIPLY FOR NUMERATOR COMPONENT
000245: 17,2336           00006                           EXTEND
000246: 17,2337           71432                           MP       AP2
000247: 17,2340           21712                           DAS      NP2TMP
000248: 17,2341           31742                           CAE      EP
000249: 17,2342           00006                           EXTEND
000250: 17,2343           71433                           MP       AP2        +1
000251: 17,2344           27712                           ADS      NP2TMP     +1
000252:                                                                                                  # # Page 963
000253: 17,2345           54001                           TS       L
000254: 17,2346           12350                           TCF      +2
000255: 17,2347           27711                           ADS      NP2TMP                                #  COMPLETED NODE NP2
000256:
000257: 17,2350           41561        NP3NODE            CS       NP0                                   #  FORM NODE NP3....NO PAST NODES, DIRECT
000258: 17,2351           00006                           EXTEND                                         #       DPXDP MULTIPLY FOR DENOMINATOR
000259: 17,2352           71442                           MP       BP3                                   #       COMPONENT
000260: 17,2353           53714                           DXCH     NP3TMP
000261: 17,2354           41562                           CS       NP0        +1
000262: 17,2355           00006                           EXTEND
000263: 17,2356           71442                           MP       BP3
000264: 17,2357           27714                           ADS      NP3TMP     +1
000265: 17,2360           54001                           TS       L
000266: 17,2361           12363                           TCF      +2
000267: 17,2362           27713                           ADS      NP3TMP
000268: 17,2363           41561                           CS       NP0
000269: 17,2364           00006                           EXTEND
000270: 17,2365           71443                           MP       BP3        +1
000271: 17,2366           27714                           ADS      NP3TMP     +1
000272: 17,2367           54001                           TS       L
000273: 17,2370           12372                           TCF      +2
000274: 17,2371           27713                           ADS      NP3TMP
000275:
000276: 17,2372           31742        AP3(EP)            CAE      EP                                    #  DPXSP MULTIPLY FOR NUMERATOR COMPONENT
000277: 17,2373           00006                           EXTEND
000278: 17,2374           71434                           MP       AP3
000279: 17,2375           21714                           DAS      NP3TMP
000280: 17,2376           31742                           CAE      EP
000281: 17,2377           00006                           EXTEND
000282: 17,2400           71435                           MP       AP3        +1
000283: 17,2401           27714                           ADS      NP3TMP     +1
000284: 17,2402           54001                           TS       L
000285: 17,2403           12405                           TCF      +2
000286: 17,2404           27713                           ADS      NP3TMP                                #  COMPLETED NODE NP3, AND PITCH GEN3DAP
000287:                                                                                                  #                                               FILTER COMPUTATIONS
000288:
000289:
000290: 17,2405           04574                           TC       POSTJUMP                              #  RETURN TO CSMDAP CODING FOR PITCH
000291: 17,2406           40523                           CADR     DELBARP                               #       OFFSET-TRACKER-FILTER COMPUTATIONS,
000292:                                                                                                  #                                               AND PITCH DAP COPYCYCLE.
000293:
000294:                                                                                                  # # Page 964
000295:                                                                                                  #  YAW GEN3DAP FILTER....
000296:
000297: 17,2407           00006        NY0NODE            EXTEND                                         #  FORM NODE NY0....COLLECT (PAST NY1)
000298: 17,2410           31610                           DCA      NY1                                   #       (COMES HERE FROM REG. DAP CODING)
000299: 17,2411           20001                           DDOUBL
000300: 17,2412           20001                           DDOUBL
000301: 17,2413           53606                           DXCH     NY0
000302:
000303: 17,2414           31742        AY0(EY)            CAE      EY                                    #  SPXSP MULTIPLY FOR NUMERATOR COMPONENT
000304: 17,2415           00006                           EXTEND                                         #       EY = ERRBTMP,  SP, SC.AT B-1 REVS
000305: 17,2416           71427                           MP       AY0
000306: 17,2417           21606                           DAS      NY0                                   #  COMPLETED NODE NY0, SC.AT B+1 REVS
000307:
000308:
000309: 17,2420           31605        NYDNODE            CAE      NY0                                   #  FORM NODE NYD....SPXDP MULTIPLY BY GAIN
000310: 17,2421           00006                           EXTEND
000311: 17,2422           71651                           MP       KYGEN3
000312: 17,2423           53745                           DXCH     NYD
000313: 17,2424           31606                           CAE      NY0        +1
000314: 17,2425           00006                           EXTEND
000315: 17,2426           71651                           MP       KYGEN3
000316: 17,2427           22007                           ZL
000317: 17,2430           22000                           LXCH     A
000318: 17,2431           21745                           DAS      NYD                                   #  SC.AT B+4 ASCREV SINCE KYGEN3 AT B+1
000319:
000320: 17,2432           53745                           DXCH     NYD                                   #  FIX UP SCALING
000321: 17,2433           20001                           DDOUBL
000322: 17,2434           20001                           DDOUBL
000323: 17,2435           20001                           DDOUBL
000324: 17,2436           20001                           DDOUBL
000325: 17,2437           53745                           DXCH     NYD                                   #  COMPLETED NODE NYD, SC.AT 1ASCREV
000326:
000327:
000328: 17,2440           04574                           TC       POSTJUMP                              #  TRANSFER BACK TO REGULAR DAP CODING FOR
000329: 17,2441           40714                           CADR     YOFFSET                               #       OUTPUT  (NYD = CMDTMP, DP)
000330: 17,2442           00006        NY1NODE            EXTEND                                         #  FORM NODE NY1....COLLECT  (PAST NY2)
000331: 17,2443           31566                           DCA      NY2                                   #       (COMES HERE FROM REG. DAP CODING)
000332: 17,2444           53737                           DXCH     NY1TMP
000333:
000334: 17,2445           41605        BY1(NY0)           CS       NY0                                   #  DPXDP MULTIPLY FOR DENOMINATOR COMPONENT
000335: 17,2446           00006                           EXTEND
000336: 17,2447           71436                           MP       BY1
000337: 17,2450           21737                           DAS      NY1TMP
000338: 17,2451           41606                           CS       NY0        +1
000339: 17,2452           00006                           EXTEND
000340: 17,2453           71436                           MP       BY1
000341: 17,2454           27737                           ADS      NY1TMP     +1
000342: 17,2455           54001                           TS       L
000343: 17,2456           12460                           TCF      +2
000344: 17,2457           27736                           ADS      NY1TMP
000345:                                                                                                  # # Page 965
000346: 17,2460           41605                           CS       NY0
000347: 17,2461           00006                           EXTEND
000348: 17,2462           71437                           MP       BY1        +1
000349: 17,2463           27737                           ADS      NY1TMP     +1
000350: 17,2464           54001                           TS       L
000351: 17,2465           12467                           TCF      +2
000352: 17,2466           27736                           ADS      NY1TMP
000353:
000354: 17,2467           31742        AY1(EY)            CAE      EY                                    #  DPXSP MULTIPLY FOR NUMERATOR COMPONENT
000355: 17,2470           00006                           EXTEND
000356: 17,2471           71430                           MP       AY1
000357: 17,2472           21737                           DAS      NY1TMP
000358: 17,2473           31742                           CAE      EY
000359: 17,2474           00006                           EXTEND
000360: 17,2475           71431                           MP       AY1        +1
000361: 17,2476           27737                           ADS      NY1TMP     +1
000362: 17,2477           54001                           TS       L
000363: 17,2500           12502                           TCF      +2
000364: 17,2501           27736                           ADS      NY1TMP                                #  COMPLETED NODE NY1
000365:
000366: 17,2502           00006        NY2NODE            EXTEND                                         #  DORM NODE NY2....COLLECT (PAST NY3)
000367: 17,2503           31570                           DCA      NY3
000368: 17,2504           53712                           DXCH     NY2TMP
000369:
000370: 17,2505           41605        BY2(NY0)           CS       NY0                                   #  DPXDP MULTIPLY FOR DENOMINATOR COMPONENT
000371: 17,2506           00006                           EXTEND
000372: 17,2507           71440                           MP       BY2
000373: 17,2510           21712                           DAS      NY2TMP
000374: 17,2511           41606                           CS       NY0        +1
000375: 17,2512           00006                           EXTEND
000376: 17,2513           71440                           MP       BY2
000377: 17,2514           27712                           ADS      NY2TMP     +1
000378: 17,2515           54001                           TS       L
000379: 17,2516           12520                           TCF      +2
000380: 17,2517           27711                           ADS      NY2TMP
000381: 17,2520           41605                           CS       NY0
000382: 17,2521           00006                           EXTEND
000383: 17,2522           71441                           MP       BY2        +1
000384: 17,2523           27712                           ADS      NY2TMP     +1
000385: 17,2524           54001                           TS       L
000386: 17,2525           12527                           TCF      +2
000387: 17,2526           27711                           ADS      NY2TMP
000388:
000389: 17,2527           31742        AY2(EY)            CAE      EY                                    #  DPXSP MULTIPLY FOR NUMERATOR COMPONENT
000390: 17,2530           00006                           EXTEND
000391: 17,2531           71432                           MP       AY2
000392: 17,2532           21712                           DAS      NY2TMP
000393: 17,2533           31742                           CAE      EY
000394: 17,2534           00006                           EXTEND
000395: 17,2535           71433                           MP       AY2        +1
000396:                                                                                                  # # Page 966
000397: 17,2536           27712                           ADS      NY2TMP     +1
000398: 17,2537           54001                           TS       L
000399: 17,2540           12542                           TCF      +2
000400: 17,2541           27711                           ADS      NY2TMP                                #  COMPLETED NODE NY2
000401:
000402: 17,2542           41605        NY3NODE            CS       NY0                                   #  FORM NODE NY3....NO PAST NODES, DIRECT
000403: 17,2543           00006                           EXTEND                                         #       TO DPXDP MULTIPLY FOR DENOMINATOR
000404: 17,2544           71442                           MP       BY3                                   #       COMPONENT
000405: 17,2545           53714                           DXCH     NY3TMP
000406: 17,2546           41606                           CS       NY0        +1
000407: 17,2547           00006                           EXTEND
000408: 17,2550           71442                           MP       BY3
000409: 17,2551           27714                           ADS      NY3TMP     +1
000410: 17,2552           54001                           TS       L
000411: 17,2553           12555                           TCF      +2
000412: 17,2554           27713                           ADS      NY3TMP
000413: 17,2555           41605                           CS       NY0
000414: 17,2556           00006                           EXTEND
000415: 17,2557           71443                           MP       BY3        +1
000416: 17,2560           27714                           ADS      NY3TMP     +1
000417: 17,2561           54001                           TS       L
000418: 17,2562           12564                           TCF      +2
000419: 17,2563           27713                           ADS      NY3TMP
000420:
000421: 17,2564           31742        AY3(EY)            CAE      EY                                    #  DPXSP MULTIPLY FOR NUMERATOR COMPONENT
000422: 17,2565           00006                           EXTEND
000423: 17,2566           71434                           MP       AY3
000424: 17,2567           21714                           DAS      NY3TMP
000425: 17,2570           31742                           CAE      EY
000426: 17,2571           00006                           EXTEND
000427: 17,2572           71435                           MP       AY3        +1
000428: 17,2573           27714                           ADS      NY3TMP     +1
000429: 17,2574           54001                           TS       L
000430: 17,2575           12577                           TCF      +2
000431: 17,2576           27713                           ADS      NY3TMP                                #  COMPLETED NODE NY3, AND YAW GEN3DAP
000432:                                                                                                  #                                               FILTER COMPUTATIONS
000433:
000434:
000435: 17,2577           04574                           TC       POSTJUMP                              #  RETURN TO CSMDAP CODING FOR YAW
000436: 17,2600           41001                           CADR     DELBARY                               #       OFFSET-TRACKER-FILTER COMPUTATIONS,
000437:                                                                                                  #                                               AND YAW DAP COPYCYCLE.

End of include-file TVCGEN3FILTERS.agc.  Parent file is MAIN.agc


