
Source Code


000002:                                                                                                 #  Copyright:    Public domain.
000003:                                                                                                 #  Filename:      TVCINITIALIZE.agc
000004:                                                                                                 #  Purpose:      Part of the source code for Colossus build 237.
000005:                                                                                                 #                This is for the Command Module's (CM) Apollo Guidance
000006:                                                                                                 #                Computer (AGC), we believe for Apollo 8.
000007:                                                                                                 #  Assembler:    yaYUL
000008:                                                                                                 #  Contact:      Jim Lawton <jim DOT lawton AT gmail DOT com>
000009:                                                                                                 #  Website:      www.ibiblio.org/apollo/index.html
000010:                                                                                                 #  Page scans:   www.ibiblio.org/apollo/ScansForConversion/Colossus237/
000011:                                                                                                 #  Mod history:  2011-03-06 JL    Adapted from corresponding Colossus 249 file.
000012:                                                                                                 #                 2011-04-17 JL   Removed temporary line.
000013:
000014:                                                                                                 # # Page 896
000015:                                                                                                 #  NAME     TVCDAPON (TVC DAP INITIALIZATION AND STARTUP CALL)
000016:                                                                                                 #  MOD NO 3                        DATE  8 JUNE,1967
000017:                                                                                                 #  MOD BY ENGEL                    LOG SECTION P40-P47
000018:
000019:                                                                                                 #  FUNCTIONAL DESCRIPTION
000020:                                                                                                 #       PERFORMS TVCDAP INITIALIZATION (GAINS, TIMING PARAMETERS, FILTER VARIABLES, ETC.)
000021:                                                                                                 #       COMPUTES STEERING (S40.8) GAIN KPRIMEDT, AND ZEROES PASTDELV,+1 VARIABLE
000022:                                                                                                 #       MAKES INITIALIZATION CALL TO ..NEEDLER.. FOR TVC DAP NEEDLES-SETUP
000023:                                                                                                 #       PERFORMS INITIALIZATION FOR ROLL DAP
000024:                                                                                                 #       CALLS TVCEXECUTIVE AT TVCEXEC, VIA WAITLIST
000025:                                                                                                 #       CALLS TVCDAP CDU-RATE INITIALIZATION PKG AT DAPINIT  VIA T5
000026:                                                                                                 #       MRCLEAN AND TVCINIT4 ARE POSSIBLE TVC-RESTART ENTRIES
000027:                                                                                                 #  CALLING SEQUENCE - T5LOC=2CADR(TVCDAPON,EBANK=BZERO), T5=.6SECT5
000028:                                                                                                 #       IN PARTICULAR, CALLED BY ..IGNOVER..
000029:                                                                                                 #  NORMAL EXIT MODE
000030:                                                                                                 #       TCF RESUME
000031:                                                                                                 #  SUBROUTINES CALLED
000032:                                                                                                 #       NEEDLER, MASSPROP
000033:                                                                                                 #  ALARM OR ABORT EXIT MODES
000034:                                                                                                 #       NONE
000035:                                                                                                 #  ERASABLE INITIALIZATION REQUIRED
000036:                                                                                                 #       CSMMASS, LEMMASS, DAPDATR1 (FOR MASSPROP SUBROUTINE)
000037:                                                                                                 #       TVC PAD LOADS (SEE LEVEL III DAP AND/OR P40 TESTS)
000038:                                                                                                 #       PACTOFF, YACTOFF, CDUX
000039:                                                                                                 #       TVCPHASE, T5BITS OF FLAGWRD6, FOR RESTART PROTECTION (SEE IGNOVER)
000040:                                                                                                 #  OUTPUT
000041:                                                                                                 #       ALL TVC AND ROLL DAP ERASABLES, FLAGWRD6 (BITS 13,14), T5, WAITLIST
000042:                                                                                                 #  DEBRIS
000043:                                                                                                 #       NONE
000044:
000045: ???????                                          COUNT*   $$/INIT
000046: 17,2032                                          BANK     17
000047: 17,2000                                          SETLOC   DAPS7
000048: 17,2000                                          BANK
000049:
000050: 17,2032  E6,1742                                 EBANK=   BZERO
000051:
000052: 17,2032           22016        TVCDAPON          LXCH     BANKRUPT                              #  T5 RUPT ARRIVAL (CALL BY DOTVCON - P40)
000053: 17,2033           00006                          EXTEND                                         #  SAVE Q REQUIRED IN RESTART (MRCLEAN AND
000054: 17,2034           22012                          QXCH     QRUPT                                 #       TVCINIT4 ARE ENTRIES)
000055: 17,2035           32207        MRCLEAN           CAF      NZERO                                 #  NUMBER TO ZERO, LESS ONE  (MUST BE ODD)
000056:                                                                                                 #                                                TVC RESTARTS ENTER HERE  (NEW BANK)
000057: 17,2036           10000                 +1       CCS      A
000058: 17,2037           55447                          TS       CNTR
000059: 17,2040           34714                          CAF      ZERO
000060: 17,2041           54001                          TS       L
000061: 17,2042           51447                          INDEX    CNTR
000062: 17,2043           53530                          DXCH     OMEGAYC                               #  FIRST (LAST) TWO LOCATIONS
000063: 17,2044           11447                          CCS      CNTR
000064: 17,2045           12036                          TCF      MRCLEAN    +1
000065:                                                                                                 # # Page 897
000066: 17,2046           00006                          EXTEND                                         #  SET UP ANOTHER T5 RUPT TO CONTINUE
000067: 17,2047           32214                          DCA      INITLOC2                              #       INITIALIZATION AT TVCINIT1
000068: 17,2050           53313                          DXCH     T5LOC                                 #  THE PHSCHK2 ENTRY (REDOTVC) AT TVCDAPON
000069: 17,2051           34672                          CAF      POSMAX                                #       +3 IS IN ANOTHER BANK. MUST RESET
000070: 17,2052           54030                          TS       TIME5                                 #       BBCON TOO (FULL 2CADR), FOR THAT
000071: 17,2053           15222        ENDMRC            TCF      RESUME                                #       ENTRY.
000072:
000073: 17,2054           22016        TVCINIT1          LXCH     BANKRUPT
000074: 17,2055           00006                          EXTEND
000075: 17,2056           22012                          QXCH     QRUPT
000076:
000077: 17,2057           04633                          TC       IBNKCALL                              #  UPDATE IXX, IAVG/TLX FOR DAP GAINS (R03
000078: 17,2060           13176                          CADR     MASSPROP                              #       OR NOUNS 46 AND 47 MUST BE CORRECT)
000079:
000080: 17,2061           32030                          CAF      MDOTLO                                #  SPS FLOW RATE, SC.AT B+3 KG/CS
000081: 17,2062           00006                          EXTEND
000082: 17,2063           72210                          MP       ONETHOU
000083: 17,2064           55647                          TS       TENMDOT                               #  10-SEC MASS LOSS B+16 KG
000084: 17,2065           40000                          COM
000085: 17,2066           61474                          AD       CSMMASS
000086: 17,2067           55662                          TS       MASSTMP                               #  DECREMENT FOR FIRST 10 SEC OF BURN
000087:
000088: 17,2070           31466                          CAE      DAPDATR1                              #  CHECK LEM-ON/OFF
000089: 17,2071           74675                          MASK     BIT14
000090: 17,2072           10000                          CCS      A
000091: 17,2073           34712                          CAF      BIT1                                  #  LEM-ON (BIT1)
000092: 17,2074           55447                          TS       CNTR                                  #  LEM-OFF (ZERO)
000093:
000094: 17,2075           51447                          INDEX    CNTR                                  #  PICK UP LM-OFF,-ON KTLX/I
000095: 17,2076           31416                          CAE      EKTLX/I
000096: 17,2077           55646                          TS       KTLX/I
000097:
000098: 17,2100           04633                          TC       IBNKCALL                              #  COMPUTE 1/CONACC, VARK
000099: 17,2101           35145                          CADR     S40.15
000100:
000101: 17,2102           31420        TVCINIT2          CAE      ETVCDT/2                              #  LEM-ON VALUE (PAD-LOAD,  CS / 2)
000102: 17,2103           54001                          TS       L
000103: 17,2104           34711                          CAF      BIT2                                  #  LEM-OFF VALUE (4CS / 2)
000104: 17,2105           51447                          INDEX    CNTR
000105: 17,2106           30000                          CAE      A
000106: 17,2107           55644                          TS       KPRIMEDT                              #  (TEMP STORE)
000107:
000108: 17,2110           40000                          COM                                            #  PREPARE T5TVCDT
000109: 17,2111           64672                          AD       POSMAX
000110: 17,2112           64712                          AD       BIT1
000111: 17,2113           55635                          TS       T5TVCDT
000112:
000113: 17,2114           44674                          CS       BIT15                                 #  RESET SWTOVER FLAG
000114: 17,2115           70105                          MASK     FLAGWRD9
000115: 17,2116           54105                          TS       FLAGWRD9
000116:                                                                                                 # # Page 898
000117: 17,2117           51447                          INDEX    CNTR                                  #  PICK UP LEM-OFF,-ON KPRIME
000118: 17,2120           31413                          CAE      EKPRIME
000119: 17,2121           00006                          EXTEND
000120: 17,2122           71644                          MP       KPRIMEDT                              #  (TVCDT/2, BC.AT B+14CS)
000121: 17,2123           22000                          LXCH     A                                     #       SC.AT PI/8    (DIMENSIONLESS)
000122: 17,2124           53645                          DXCH     KPRIMEDT
000123:
000124: 17,2125           51447                          INDEX    CNTR                                  #  PICK UP LEM-OFF,-ON REPFRAC
000125: 17,2126           31423                          CAE      EREPFRAC
000126: 17,2127           55652                          TS       REPFRAC
000127:
000128: 17,2130           37716                          CAF      NEGONE                                #  PREVENT STOKE TEST UNTIL CALLED
000129: 17,2131           55664                          TS       STRKTIME
000130:
000131: 17,2132           34374                          CAF      NINETEEN                              #  SET VCNTR FOR VARIABLE-GAIN UPDATES IN
000132: 17,2133           55653                          TS       VCNTR                                 #       10 SECONDS (TVCEXEC 1/2 SEC RATE)
000133: 17,2134           55444                          TS       V97VCNTR                              #  FOR ENGFAIL (R41) LOGIC
000134:
000135: 17,2135           31421                          CAE      ETSWITCH                              #  PREPARE SWITCHOVER COUNTER
000136: 17,2136           54001                          TS       L
000137: 17,2137           60000                          DOUBLE                                         #  (COUNTER DECREMENTS EVERY 1/2 SEC)
000138: 17,2140           22000                          LXCH     A                                     #  LEM-OFF IN A, LEM-ON IN L
000139: 17,2141           51447                          INDEX    CNTR
000140: 17,2142           30000                          CAE      A
000141: 17,2143           67716                          AD       NEGONE
000142: 17,2144           55447                          TS       CNTR                                  #  CNTR = 2(SWITCHOVER TIME, SEC) -1
000143:
000144:
000145: 17,2145           31425        TVCINIT3          CAE      PACTOFF                               #  TRIM VALUES TO TRIM-TRACKERS, OUTPUT
000146: 17,2146           55625                          TS       PDELOFF                               #       TRACKERS, OFFSET-UPDATES, AND
000147: 17,2147           55631                          TS       PCMD                                  #       OFFSET-TRACKER FILTERS
000148: 17,2150           55621                          TS       DELPBAR                               #       NOTE, LO-ORDER DELOFF,DELBAR ZEROED
000149:
000150: 17,2151           31426                          CAE      YACTOFF
000151: 17,2152           55627                          TS       YDELOFF
000152: 17,2153           55632                          TS       YCMD
000153: 17,2154           55623                          TS       DELYBAR
000154:
000155: 17,2155           41501        NEEDLEIN          CS       RCSFLAGS                              #  SET BIT 3 FOR INITIALIZATION PASS AND GO
000156: 17,2156           74710                          MASK     BIT3                                  #       TO NEEDLER.  WILL CLEAR FOR TVC DAP
000157: 17,2157           27501                          ADS      RCSFLAGS                              #       (RETURNS AFTER CADR)
000158: 17,2160           04633                          TC       IBNKCALL
000159: 17,2161           42404                          CADR     NEEDLER
000160:
000161: 17,2162           34714        TVCINIT4          CAF      ZERO                                  #  SET TVCPHASE TO INDICATE TVCDAPON-THRU-
000162: 17,2163           55654                          TS       TVCPHASE                              #       NEEDLEIN INITIALIZATION FINISHED.
000163:                                                                                                 #                                                (POSSIBLE TVC-RESTART ENTRY)
000164:
000165: 17,2164           30032                          CAE      CDUX                                  #  PREPARE ROLL DAP LADDERS
000166: 17,2165           55672                          TS       OGANOW
000167:                                                                                                 # # Page 899
000168:                                                                                                 #                                           ROLL DAPS RE-START UPON A RESTART, BUT
000169:                                                                                                 #                                                RETAIN ORIGINAL OGAD (IGNOVER CDUX)
000170:
000171: 17,2166           34676                          CAF      BIT13                                 #  IF ENGINE IS ALREADY OFF, ENGINOFF HAS
000172: 17,2167           00006                          EXTEND                                         #       ALREADY ESTABLISHED THE POST-BURN
000173: 17,2170           02011                          RAND     DSALMOUT                              #       CSMMASS (MASSBACK DOES IT). DONT
000174: 17,2171           00006                          EXTEND                                         #       TOUCH CSMMASS.  IF ENGINE IS ON,
000175: 17,2172           12175                          BZF      +3                                    #       THEN ITS OK TO DO THE COPYCYCLE
000176:                                                                                                 #                                                EVEN BURNS LESS THAN 0.4 SEC ARE AOK
000177:
000178: 17,2173           31662                          CAE      MASSTMP                               #  COPYCYCLE
000179: 17,2174           55474                          TS       CSMMASS
000180:
000181: 17,2175           34731                 +3       CAF      .5SEC                                 #  CALL TVCEXECUTIVE (ROLLDAP CALL, ETC)
000182: 17,2176           05140                          TC       WAITLIST
000183: 17,2177  E6,1742                                 EBANK=   BZERO
000184: 17,2177           02660 34066                    2CADR    TVCEXEC
000185:
000186:
000187: 17,2201           00006                          EXTEND                                         #  CALL FOR DAPINIT
000188: 17,2202           32212                          DCA      DAPINIT5
000189: 17,2203           53313                          DXCH     T5LOC
000190: 17,2204           31635                          CAE      T5TVCDT                               #  (ALLOW TIME FOR RESTART COMPUTATIONS)
000191: 17,2205           54030                          TS       TIME5
000192:
000193: 17,2206           15222        ENDTVCIN          TCF      RESUME
000194:
000195:
000196: 17,2207           00101        NZERO             DEC      65         B-14                       #  MUST BE ODD FOR MRCLEAN
000197:
000198: 17,2210     4374               NINETEEN          =        VD1
000199:
000200: 17,2210           03720        ONETHOU           DEC      1000       B-13                       #  KG/CS B3 TO KG/10SEC B16 CONVERSION
000201:
000202: 17,2211  E6,1742                                 EBANK=   BZERO
000203: 17,2211           03075 40066  DAPINIT5          2CADR    DAPINIT
000204:
000205:
000206: 17,2213  E6,1742                                 EBANK=   BZERO
000207: 17,2213           02054 36066  INITLOC2          2CADR    TVCINIT1

End of include-file TVCINITIALIZE.agc.  Parent file is MAIN.agc


