
Source Code


000002:                                                                                                  ## Copyright:   Public domain.
000003:                                                                                                  ## Filename:    TVCMASSPROP.agc
000004:                                                                                                  ## Purpose:     Part of the source code for Colossus build 237.
000005:                                                                                                  ##              This is for the Command Module's (CM) Apollo Guidance
000006:                                                                                                  ##              Computer (AGC), for Apollo 8.
000007:                                                                                                  ## Assembler:   yaYUL
000008:                                                                                                  ## Contact:     Jim Lawton <jim DOT lawton AT gmail DOT com>
000009:                                                                                                  ## Website:     www.ibiblio.org/apollo/index.html
000010:                                                                                                  ## Page Scans:  www.ibiblio.org/apollo/ScansForConversion/Colossus237/
000011:                                                                                                  ## Mod history: 2011-03-06 JL   Adapted from corresponding Colossus 249 file.
000012:                                                                                                  ##              2017-01-01 RSB  Proofed comment text using octopus/ProoferComments,
000013:                                                                                                  ##                              and fixed errors found.
000014:


000016:                                                                                                  #  PROGRAM NAME....MASSPROP
000017:                                                                                                  #  LOG SECTION....TVCMASSPROP      PROGRAMMER...MELANSON (ENGEL , SCHLUNDT)
000018:
000019:
000020:                                                                                                  #  FUNCTIONAL DESCRIPTION:
000021:
000022:                                                                                                  #       MASSPROP OPERATES IN TWO MODES:(1)IF LEM MASS OR CONFIGURATION ARE UPDATED (MASSPROP DOES NOT TEST
000023:                                                                                                  #  FOR THIS) THE ENTIRE PROGRAM MUST BE RUN THROUGH, BREAKPOINT VALUES AND DERIVATIVES OF THE OUTPUTS WITH
000024:                                                                                                  #  RESPECT TO CSM MASS BEING CALCULATED PRIOR TO CALCULATION OF THE OUTPUTS. (2)OTHERWISE, THE OUTPUTS CAN BE
000025:                                                                                                  #  CALCULATED USING PREVIOUSLY COMPUTED BREAKPOINT VALUES AND DERIVATIVES.
000026:
000027:                                                                                                  #  CALLING SEQUENCES
000028:
000029:                                                                                                  #     IF LEM MASS OR CONFIGURATION HAS BEEN UPDATED, TRANSFER TO MASSPROP, OTHERWISE TRANSFER TO FIXCW.
000030:                                                                                                  #           L      TC     BANKCALL OR IBNKCALL
000031:                                                                                                  #           L+1    CADR   MASSPROP
000032:                                                                                                  #                     OR
000033:                                                                                                  #           L+1    CADR   FIXCW
000034:
000035:                                                                                                  #           L+2    RETURNS VIA Q
000036:
000037:                                                                                                  #  CALLED   IN PARTICULAR BY DONOUN47 (JOB) AND TVCEXECUTIVE (TASK)
000038:
000039:                                                                                                  #  JOBS OR TASKS INITIATED - NONE
000040:
000041:                                                                                                  #  SUBROUTINES CALLED - NONE
000042:
000043:                                                                                                  #  ERASABLE INITIALIZATION REQUIRED
000044:
000045:                                                                                                  #       LEMMASS MUST CONTAIN LEM MASS SCALED AT B+16 IN KILOGRAMS
000046:                                                                                                  #       CSMMASS MUST CONTAIN CSM MASS SCALED AT B+16 IN KILOGRAMS
000047:
000048:                                                                                                  #       DAPDATR1 MUST BE SET TO INDICATE VEHICLE CONFIGURATION.
000049:                                                                                                  #                BITS (15,14,13)  =  ( 0 , 0 , 1 )     LEM OFF
000050:                                                                                                  #                                    ( 0 , 1 , 0 )     LEM ON (ASCNT,DSCNT)
000051:                                                                                                  #                                    ( 1 , 1 , 0 )     LEM ON (ASCNT ONLY)
000052:
000053:
000054:                                                                                                  #  ALARMS - NONE
000055:
000056:                                                                                                  #  EXIT -   TC     Q
000057:
000058:                                                                                                  #  OUTPUTS:
000059:
000060:                                                                                                  #       (1)IXX, SINGLE PRECISION SCALED AT B+20 IN KG-M SQ.
000061:                                                                                                  #       (2)IAVG, SINGLE PRECISION SCALED AT B+20 IN KG-M SQ.
000062:                                                                                                  #       (3)IAVG/TLX, SINGLE PRECISION, SCALED AT B+2 SEC-SQD
000063:                                                                                                  #       THEY ARE STORED IN CONSECUTIVE REGISTERS IXX0, IXX1, IXX2
000064:
000065:                                                                                                  #       CONVERSION FACTOR :  (SLUG-FTSQ) = 0.737562 (KG-MSQ)


000067:                                                                                                  #  OUTPUTS ARE CALCULATED AS FOLLOWS:
000068:
000069:                                                                                                  #   (1) IF LEM DOCKED, LEMMASS IS FIRST ELIMINATED AS A PARAMETER
000070:
000071:                                                                                                  #       VARST0 = INTVALUE0 + LEMMASS(SLOPEVAL0)       IXX       BREAKPOINT VALUE
000072:                                                                                                  #       VARST1 = INTVALUE1 + LEMMASS(SLOPEVAL1)       IAVG      BREAKPOINT VALUE
000073:                                                                                                  #       VARST2 = INTVALUE2 + LEMMASS(SLOPEVAL2)       IAVG/TLX  BREAKPOINT VALUE
000074:
000075:                                                                                                  #       VARST3 = INTVALUE3 + LEMMASS(SLOPEVAL3)       IAVG/TLX  SLOPE  FOR CSMMASS > 33956 LBS  ( SPS > 10000 LBS)
000076:                                                                                                  #       VARST4 = INTVALUE4 + LEMMASS(SLOPEVAL4)       IAVG      SLOPE  FOR CSMMASS > 33956 LBS  ( SPS > 10000 LBS)
000077:
000078:                                                                                                  #       VARST5 = INTVALUE5 + LEMMASS(SLOPEVAL5)       IXX       SLOPE  FOR ALL VALUES OF CSMMASS
000079:
000080:                                                                                                  #       VARST6 = INTVALUE6 + LEMMASS(SLOPEVAL6)       IAVG      SLOPE  FOR CSMMASS < 33956 LBS ( SPS < 10000 LBS)
000081:                                                                                                  #       VARST7 = INTVALUE7 + LEMMASS(SLOPEVAL7)       IAVG/TLX  SLOPE  FOR CSMMASS < 33956 LBS ( SPS < 10000 LBS)
000082:
000083:                                                                                                  #       VARST8 = INTVALUE8 + LEMMASS(SLOPEVAL8)       IAVG      DECREMENT  TO BRKPT VALUE WHEN LEM DSCNT STAGE OFF
000084:                                                                                                  #       VARST9 = INTVALUE9 + LEMMASS(SLOPEVAL9)       IAVG/TLX  DECREMENT  TO BRKPT VALUE WHEN LEM DSCNT STAGE OFF
000085:
000086:
000087:                                                                                                  #   (2) IF LEM NOT DOCKED
000088:
000089:                                                                                                  #       VARST0 = NOLEMVAL0    WHERE THE MEANING AND SCALING OF VARST0
000090:                                                                                                  #          .          .       TO VARST9 ARE THE SAME AS GIVEN ABOVE
000091:                                                                                                  #          .          .
000092:                                                                                                  #          .          .       NOTE... FOR THIS CASE, VARST8,9 HAVE NO
000093:                                                                                                  #       VARST9 = NOLEMVAL9    MEANING (THEY ARE COMPUTED BUT NOT USED)
000094:
000095:
000096:                                                                                                  #   (3) THE FINAL OUTPUT CALCULATIONS ARE THEN DONE
000097:
000098:                                                                                                  #       IXX0 =  VARST0 + (CSMMASS + NEGBPW)VARST5            IXX
000099:
000100:                                                                                                  #       IXX1 =  VARST1 + (CSMMASS + NEGBPW)VARST(4 OR 6)     IAVG
000101:
000102:                                                                                                  #       IXX2 =  VARST2 + (CSMMASS + NEGBPW)VARST(3 OR 7)     IAVG/TLX
000103:
000104:                                                                                                  #  THE DATA USED CAME FROM CSM/LM SPACECRAFT OPERATIONAL DATA BOOK.
000105:                                                                                                  #       VOL. 3, NASA DOCUMENT SNA-8-D-027 (MARCH 1968)
000106:
000107:                                                                                                  #  PERTINENT MASS DATA :           CSM WEIGHT  (FULL)  64100 LBS
000108:                                                                                                  #                                              (EMPTY) 23956 LBS
000109:                                                                                                  #                                  LEM WEIGHT  (FULL)  32000 LBS
000110:                                                                                                  #                                              (EMPTY) 14116 LBS
000111:
000112:                                                                                                  #  (WEIGHTS ARE FROM AMENDMENT #1 (APRIL 24,1968) TO ABOVE DATA BOOK)
000113:


000115: 25,3766                                           BANK     25
000116: 05,2000                                           SETLOC   DAPMASS
000117: 05,2000                                           BANK
000118: 05,3176  E6,1742                                  EBANK=   BZERO
000119: 05,3176                                           COUNT*   $$/MASP
000120:
000121: 05,3176           34334        MASSPROP           CAF      NINE                                  #  MASSPROP USES TVC/RCS INTERUPT TEMPS
000122: 05,3177           55506                           TS       PHI333                                #  SET UP TEN PASSES
000123:
000124: 05,3200           31466        LEMTEST            CAE      DAPDATR1                              #  DETERMINE LEM STATUS
000125: 05,3201           74676                           MASK     BIT13
000126: 05,3202           00006                           EXTEND
000127: 05,3203           13207                           BZF      LEMYES
000128:
000129: 05,3204           51506        LEMNO              INDEX    PHI333                                #  LEM NOT ATTACHED
000130: 05,3205           33273                           CAF      NOLEMVAL
000131: 05,3206           13217                           TCF      STOINST
000132:
000133: 05,3207           31473        LEMYES             CAE      LEMMASS                               #  LEM IS ATTACHED
000134: 05,3210           60000                           DOUBLE
000135: 05,3211           00006                           EXTEND
000136: 05,3212           51506                           INDEX    PHI333
000137: 05,3213           73315                           MP       SLOPEVAL
000138: 05,3214           20001                           DDOUBL
000139: 05,3215           51506                           INDEX    PHI333
000140: 05,3216           63303                           AD       INTVALUE
000141:
000142: 05,3217           51506        STOINST            INDEX    PHI333                                #  STORAGE INST BEGIN HERE
000143: 05,3220           55511                           TS       VARST0
000144: 05,3221           11506                           CCS      PHI333                                #  ARE ALL TEN PASSES COMPLETED
000145: 05,3222           13177                           TCF      MASSPROP   +1                         #  NO - GO DECREMENT PHI333
000146:
000147: 05,3223           11466        DXTEST             CCS      DAPDATR1                              #  IF NEG, BIT15 IS 1, LEM DSCNT STAGE OFF
000148: 05,3224           13232                           TCF      FIXCW
000149: 05,3225           13232                           TCF      FIXCW
000150: 05,3226           53522                           DXCH     VARST0     +8D
000151: 05,3227           21513                           DAS      VARST0     +1
000152: 05,3230           33330                           CA       DXITFIX
000153: 05,3231           27520                           ADS      VARST0     +7
000154:
000155: 05,3232           34711        FIXCW              CAF      BIT2                                  #  COMPUTATION PHASE BEGINS HERE.  SET UP
000156: 05,3233           55506                           TS       PHI333                                #  THREE PASSES
000157: 05,3234           55507                           TS       PSI333
000158:
000159: 05,3235           31474                           CAE      CSMMASS                               #  GET DELTA CSM WEIGHT - SIGN DETERMINES
000160: 05,3236           63327                           AD       NEGBPW                                #  SLOPE LOCATIONS.
000161: 05,3237           60000                           DOUBLE
000162: 05,3240           55510                           TS       TEMP333


000164: 05,3241           00006                           EXTEND
000165: 05,3242           63245                           BZMF     PEGGY                                 #  DETERMINE CORRECT SLOPE
000166: 05,3243           37715                           CAF      NEG2
000167: 05,3244           55506                           TS       PHI333
000168:
000169: 05,3245           51506        PEGGY              INDEX    PHI333                                #  ALL IS READY - CALCULATE OUTPUTS NOW
000170: 05,3246           31516                           CAE      VARST5                                #  GET SLOPE
000171: 05,3247           00006                           EXTEND
000172: 05,3250           71510                           MP       TEMP333                               #  MULT BY DELTA CSM WEIGHT
000173: 05,3251           60000                           DOUBLE
000174: 05,3252           51507                           INDEX    PSI333
000175: 05,3253           61511                           AD       VARST0                                #  ADD BREAKPOINT VALUE
000176: 05,3254           51507                           INDEX    PSI333
000177: 05,3255           55470                           TS       IXX                                   #  ****** OUTPUTS (IXX0, IXX1, IXX2) ******
000178:
000179:
000180: 05,3256           11507                           CCS      PSI333                                #  BOOKKEEPING  - MASSPROP FINISHED OR NOT
000181: 05,3257           13267                           TCF      BOKKEP2                               #  NO - GO TAKE CARE OF INDEXING REGISTERS
000182:
000183: 05,3260           31466                           CAE      DAPDATR1                              #  UPDATE WEIGHT/G
000184: 05,3261           74675                           MASK     BIT14
000185: 05,3262           10000                           CCS      A
000186: 05,3263           31473                           CA       LEMMASS
000187: 05,3264           61474                           AD       CSMMASS
000188: 05,3265           55475                           TS       WEIGHT/G                              #  SCALED AT B+16 IN KILOGRAMS
000189: 05,3266           00002        ENDMASSP           TC       Q
000190:
000191: 05,3267           55507        BOKKEP2            TS       PSI333                                #  REDUCE PSI BY ONE
000192: 05,3270           00006                           EXTEND
000193: 05,3271           27506                           DIM      PHI333
000194: 05,3272           13245                           TCF      PEGGY
000195:


000197: 05,3273           00616        NOLEMVAL           DEC      25445.     B-20
000198: 05,3274           02526                           DEC      87450.     B-20
000199: 05,3275           02352                           DEC      .30715     B-2
000200: 05,3276           01471                           DEC      1.22877    E-5        B+12
000201: 05,3277           00634                           DEC      1.6096     B-6
000202: 05,3300           00612                           DEC      1.54       B-6
000203: 05,3301           03706                           DEC      7.77177    B-6
000204: 05,3302           04425                           DEC      3.46458    E-5        B+12
000205:
000206: 05,3303           00644        INTVALUE           DEC      26850      B-20
000207: 05,3304           03710                           DEC      127518     B-20
000208: 05,3305           04246                           DEC      .54059     B-2
000209: 05,3306           02011                           DEC      .153964    E-4        B+12
000210: 05,3307           77501                           DEC      -.742923   B-6
000211: 05,3310           00612                           DEC      1.5398     B-6
000212: 05,3311           04656                           DEC      9.68       B-6
000213: 05,3312           10372                           DEC      .647625    E-4        B+12
000214: 05,3313           77126                           DEC      -27228.    B-20
000215: 05,3314           76261                           DEC      -.206476   B-2
000216:
000217: 05,3315           00767        SLOPEVAL           DEC      1.96307    B-6
000218: 05,3316           15624                           DEC      27.5774    B-6
000219: 05,3317           03054                           DEC      2.3548     E-5        B+12
000220: 05,3320           04532                           DEC      2.1777     E-9        B+26
000221: 05,3321           10433                           DEC      1.044      E-3        B+8
000222: 05,3322           00000                           DEC      0          B-14
000223: 05,3323           22070                           DEC      2.21068    E-3        B+8
000224: 05,3324           03204                           DEC      1.5166     E-9        B+26
000225: 05,3325           77266                           DEC      -1.284     B-6
000226: 05,3326           02476                           DEC      2.         E-5        B+12
000227:
000228: 05,3327           70364        NEGBPW             DEC      -15402.17  B-16
000229: 05,3330           75420        DXITFIX            DEC*     -1.88275   E-5        B+12*

End of include-file TVCMASSPROP.agc.  Parent file is MAIN.agc


