
Source Code


000002:                                                                                                  ## Copyright:   Public domain.
000003:                                                                                                  ## Filename:    TVCRESTARTS.agc
000004:                                                                                                  ## Purpose:     Part of the source code for Colossus build 237.
000005:                                                                                                  ##              This is for the Command Module's (CM) Apollo Guidance
000006:                                                                                                  ##              Computer (AGC), for Apollo 8.
000007:                                                                                                  ## Assembler:   yaYUL
000008:                                                                                                  ## Contact:     Jim Lawton <jim DOT lawton AT gmail DOT com>
000009:                                                                                                  ## Website:     www.ibiblio.org/apollo/index.html
000010:                                                                                                  ## Page Scans:  www.ibiblio.org/apollo/ScansForConversion/Colossus237/
000011:                                                                                                  ## Mod history: 2011-03-06 JL   Adapted from corresponding Colossus 249 file.
000012:                                                                                                  ##              2017-01-01 RSB  Proofed comment text using octopus/ProoferComments,
000013:                                                                                                  ##                              and fixed errors found.
000014:


000016:                                                                                                  #  NAME....TVCRESTART PACKAGE,  CONSISTING OF REDOTVC, ENABL1, 2, CMDSOUT, PHSCHK2, ETC.
000017:                                                                                                  #  LOG SECTION....TVCRESTART PACKAGE    SUBROUTINE....DAPCSM
000018:                                                                                                  #  MOD BY ENGEL                         DATE....19 OCT, 1967
000019:
000020:                                                                                                  #  FUNCTIONAL DESCRIPTION....
000021:
000022:                                                                                                  #      *RESTART-PROOFS THE TVC DAPS, INCLUDING PITCHDAP, YAWDAP,
000023:                                                                                                  #       TVCEXECUTIVE, ROLL DAP, TVCINIT4, TVCDAPON, AND STROKE TEST
000024:                                                                                                  #      *TVC RESTARTS DESERVE SPECIAL CONSIDERATION IN SEVERAL AREAS.
000025:                                                                                                  #       RESTART DOWN-TIME IS IMPORTANT BECAUSE OF THE TRANSIENTS INTRODUCED
000026:                                                                                                  #       BY THE THRUST VECTOR RETURN TO THE ACTUATOR MECHANICAL NULLS
000027:                                                                                                  #       FOLLOWING TVC- AND OPTICS-ERROR-COUNTER-DISENABLES (CHANNEL 12).
000028:                                                                                                  #       TVC    USES A MIXTURE OF WAITLIST, T5, T6, AND JOB CALLS. THERE IS
000029:                                                                                                  #       FILTER MEMORY (UP TO 7TH ORDER) TO BE PROTECTED IF WILD TRANSIENTS
000030:                                                                                                  #       ARE TO BE AVOIDED. SEVERAL COUNTERS ARE INVOLVED FOR TIMING TVC
000031:                                                                                                  #       EVENTS SUCH AS SWITCHOVER AND STROKE TEST STARTUPS AND RE-STARTUPS.
000032:                                                                                                  #       THE TVC GAINS ARE DECREMENTED. THE GIMBAL TRIM ESTIMATORS AND THE
000033:                                                                                                  #       BODY AXIS ATTITUDE ERROR INTEGRATORS INVOLVE DIGITAL SUMMATION.
000034:                                                                                                  #       DIGITAL DIFFERENTIATORS ARE INVOLVED IN THE BODY AXIS RATE ESTIMA-
000035:                                                                                                  #       TIONS AND IN THE OUTPUTTING OF ACTUATOR COMMANDS. THERE IS AN
000036:                                                                                                  #       OFFSET-TRACKER-FILTER TO PROTECT. ETC., ETC.
000037:                                                                                                  #      *THOSE QUANTITIES WHICH MUST BE PROTECTED ARE STORED IN TEMPORARY
000038:                                                                                                  #       REGISTERS AS THEY ARE COMPUTED, FOR UPDATING THE REAL REGISTERS
000039:                                                                                                  #       DURING COPYCYCLES.
000040:                                                                                                  #      *THE SEVERAL COPYCYCLES ARE EACH PROTECTED BY PHASE POINTS AT THEIR
000041:                                                                                                  #       BEGINNING AND AT THEIR TERMINATION. THE PHASE POINTS ARE SIMPLY
000042:                                                                                                  #       ..INCR.. INSTRUCTIONS,   EITHER ..INCR TVCEXPHS.. FOR COPYCYCLES
000043:                                                                                                  #       IN THE TVCEXECUTIVE, OR ..INCR TVCPHASE.. FOR THE PITCH AND YAW
000044:                                                                                                  #       COPYCYCLES. INDEXING ON EACH OF THESE POINTERS THEN PERMITS A
000045:                                                                                                  #       RETURN TO THE APPROPRIATE RESTART POINTS.
000046:                                                                                                  #      *IF A RESTART OCCURS DURING EITHER COPYCYCLE, THAT COPYCYCLE IS
000047:                                                                                                  #       COMPLETED. THEN THE NORMAL TVCINIT4....DAPINIT....PITCHDAP STARTUP
000048:                                                                                                  #       SEQUENCE IS CALLED UPON TO GET THINGS GOING AGAIN.
000049:                                                                                                  #      *TVC-ENABLE AND OPTICS-ERROR-COUNTER ENABLE MUST BE SET ASAP
000050:                                                                                                  #       (ALLOWING FOR PROCEDURAL DELAYS). THEN THE ENGINES ARE COMMANDED
000051:                                                                                                  #       TO THE P,YACTOFF TRIM VALUES. THE DAPS ARE THEN READY TO GO ON THE
000052:                                                                                                  #       AIR, WITH THE REGULAR STARTUP SEQUENCE, EITHER AT MRCLEAN FOR A
000053:                                                                                                  #       COMPLETE INITIALIZATION OR AT TVCINIT4 FOR A PARTIAL INITIALIZATION
000054:                                                                                                  #      *FOR RESTARTS PRIOR TO THE SETTING OF THE T5 BITS IN IGNOVER THE
000055:                                                                                                  #       PRE40.6 SECTION OF S40.6 TAKES CARE OF RE-ESTABLISHING TRIMS.
000056:                                                                                                  #      *IF A RESTART OCCURS DURING THE TVCEXEC....TVCEXFIN SEQUENCE THE
000057:                                                                                                  #       COMPUTATIONS WILL BE COMPLETED, STARTING AT THE APPROPRIATE RESTART
000058:                                                                                                  #       POINT, AFTER THE DAPS ARE READY TO GO ON THE AIR.
000059:                                                                                                  #      *IF A RESTART OCCURS PRIOR TO TVCINIT4 (TVCPHASE = -1) E.G. DURING
000060:                                                                                                  #       THE EARLY DAP INITIALIZATION PHASE, THE DAP STARTUP SEQUENCE IS
000061:                                                                                                  #       ENTERED AT MRCLEAN FOR A FULL INITIALIZATION.
000062:                                                                                                  #      *RESTARTS ARE NOT CRITICAL TO THE ROLL DAP PERFORMANCES HENCE THE
000063:                                                                                                  #       THE ROLL DAP IS MERELY RESTARTED.
000064:                                                                                                  #      *RESTARTS DURING A STROKE TEST (STROKER IS NON-ZERO) WILL CAUSE THE
000065:                                                                                                  #       STROKE TEST TO BE TERMINATED. A NEW V68 ENTRY WILL BE REQUIRED


000067:                                                                                                  #       TO GET IT GOING AGAIN (NO AUTOMATIC RESTART).
000068:                                                                                                  #      *REDOTVC IS REACHED FOLLOWING ANY RESTART WHICH FINDS THE T5 BITS
000069:                                                                                                  #       (BITS 15,14 OF FLAGWRD6) SET FOR TVC. IGNOVER PREPARES TVCPHASE =-1
000070:                                                                                                  #       AND TVC EXPHS = 0 JUST BEFORE SETTING THESE BITS, JUST BEFORE
000071:                                                                                                  #       MAKING THE T5 CALL TO TVCDAPON.  T.V.N.G. TAKES OVER THE T5 CLOCK
000072:                                                                                                  #       TO CALL RCSUP/RCSDAPON WHICH RESETS THE T5 BITS(FOR RCS) ON A
000073:                                                                                                  #       NORMAL SHUTDOWN.
000074:
000075:                                                                                                  #  CALLING SEQUENCE....T5, IN PARTICULAR BY ELRSKIP OF FRESH START/RESTART
000076:
000077:                                                                                                  #  NORMAL EXIT MODES....RESUME, NOQRSM, POSTJUMP (TO TVCINIT4 OR MRCLEAN)
000078:
000079:                                                                                                  #  ALARM OR ABORT EXIT MODES....NONE
000080:
000081:                                                                                                  #  SUBROUTINES CALLED....
000082:
000083:                                                                                                  #      *PCOPY+1, YCOPY+1 (PITCH AND YAW COPYCYCLES)
000084:                                                                                                  #      *ENABLE1,2, CMDSOUT (RE-ESTABLISH ACTUATOR TRIMS)
000085:                                                                                                  #      *MRCLEAN OR TVCINIT4 (TVCDAP INITIALIZATIONS)
000086:                                                                                                  #      *EXRSTRT AND TVCEXECUTIVE PHASE POINTS 1 THRU 9
000087:                                                                                                  #      *WAITLIST, IBNKCALL, POSTJUMP, ISWCALL
000088:
000089:                                                                                                  #  OTHER INTERFACES....IGNOVER AND RCSDAPON (T5 BITS), ELRSKIP (CALLS IT)
000090:
000091:                                                                                                  #  ERASABLE INITIALIZATION REQUIRED....
000092:
000093:                                                                                                  #      *T5 BITS, TVCPHASE, TVCEXPHS
000094:                                                                                                  #      *TVC DAP VARIABLES
000095:                                                                                                  #      *OPERATIONS PERFORMED BY REDOTVC ARE BASED ON THE ASSUMPTION THAT
000096:                                                                                                  #       THE TVC DAPS ARE RUNNING NORMALLY
000097:
000098:                                                                                                  #  OUTPUT....
000099:
000100:                                                                                                  #      *PITCH AND YAW TVC DAP COPYCYCLES COMPLETED IF INTERUPTED
000101:                                                                                                  #      *TVCEXECUTIVE COMPLETED IF INTERUPTED
000102:                                                                                                  #      *STROKE TEST TERMINATED IF INTERRUPTED
000103:                                                                                                  #      *ACTUATOR TRIMS RE-ESTABLISHED (ACTUATORS BACK ON THE AIR)
000104:                                                                                                  #      *TVC DAP INITIALIZATION AS REQUIRED
000105:                                                                                                  #      *ALL TVC DAP OPERATIONS ON THE AIR
000106:
000107:                                                                                                  #  DERIS....TVC TEMPORARIES IN EBANK6
000108:
000109:
000110: 16,3165                                           BANK     16
000111: 16,2000                                           SETLOC   DAPROLL
000112: 16,2000                                           BANK
000113: 16,3165  E6,1654                                  EBANK=   TVCPHASE
000114:
000115: 16,3165                                           COUNT*   $$/RSRT
000116: 16,3165           22016        REDOTVC            LXCH     BANKRUPT                              #  TVC RESTART PACKAGE


000118: 16,3166           00006                           EXTEND
000119: 16,3167           22012                           QXCH     QRUPT                                 #  (  ..TCR..  IN  ..FINCOPY..  )
000120:
000121: 16,3170           11661        EXECPHS            CCS      TVCEXPHS                              #  CHECK TVCEXECUTIVE PHASE
000122: 16,3171           13173                           TCF      +2                                    #       MUST RESTART TVCEXECUTIVE
000123: 16,3172           13177                           TCF      TVCDAPHS                              #       NO NEED TO RESTART TVCEXECUTIVE
000124:
000125: 16,3173           34334                           CAF      NINE                                  #  9CS DELAY TO FORCE EXRSTRT TO OCCUR
000126: 16,3174           05140                           TC       WAITLIST                              #       BEFORE PITCHDAP, AFTER CMDSOUT
000127: 16,3175  E6,1661                                  EBANK=   TVCEXPHS
000128: 16,3175           03270 34066                     2CADR    EXRSTRT
000129:
000130:
000131: 16,3177           47700        TVCDAPHS           CS       OCT37776                              #  CHECK BITS 15 AND 1 OF TVCPHASE TO SEE
000132: 16,3200           71654                           MASK     TVCPHASE                              #       DAP RESTART LOCATION  (-1,1,2,3)
000133: 16,3201           10000                           CCS      A
000134: 16,3202           13255                           TCF      FINCOPY                               #       FINISH THE COPYCYCLE FIRST
000135: 16,3203           13205                           TCF      ENABL1                                #       JUST PREPARE THE OUTCOUNTERS AND GO
000136: 16,3204           13261                           TCF      TRIM/CMD                              #       (RE-)DO P,YCMD INITIALIZATION FIRST
000137:
000138:
000139: 16,3205           34703        ENABL1             CAF      BIT8                                  #  TVC ENABLE, FOLLOWED BY 40 MS (MIN) WAIT
000140: 16,3206           00006                           EXTEND                                         #       (ENABL1 ENTRIES..+0,- CCS, FINCOPY)
000141: 16,3207           05012                           WOR      CHAN12
000142: 16,3210           33274                           CAF      TVCADDR                               #  WAIT,  CALLING ENABL2  (BBCON THERE)
000143: 16,3211           55312                           TS       T5LOC
000144: 16,3212           33300                           CAF      TVCADDR    +4                         #       60MS  (TVCEXADR)
000145: 16,3213           54030                           TS       TIME5
000146:
000147: 16,3214           15222                           TCF      RESUME
000148:
000149:
000150: 16,3215           22016        ENABL2             LXCH     BANKRUPT                              #  CONTINUE PREPARATION OF OUTCOUNTERS
000151:
000152: 16,3216           34711                           CAF      BIT2                                  #  OPTICS ERROR CNTR ENABLE, 4MS MIN WAIT
000153: 16,3217           00006                           EXTEND
000154: 16,3220           05012                           WOR      CHAN12
000155: 16,3221           33276                           CAF      TVCADDR    +2                         #  WAIT, CALLING CMDSOUT (BBCON THERE)
000156: 16,3222           55312                           TS       T5LOC
000157: 16,3223           37700                           CAF      OCT37776                              #       20MS
000158: 16,3224           54030                           TS       TIME5
000159:
000160: 16,3225           15224                           TCF      NOQRSM
000161:
000162:
000163: 16,3226           22016        CMDSOUT            LXCH     BANKRUPT                              #  CONTINUE PREPARATION OF OUTCOUNTERS
000164: 16,3227           00006                           EXTEND
000165: 16,3230           22012                           QXCH     QRUPT
000166:


000168: 16,3231           44714                           CS       ZERO                                  #  MOST RECENT ACTUATOR COMMANDS
000169: 16,3232           61631                           AD       PCMD                                  #       (AVOID +0)
000170: 16,3233           54054                           TS       TVCPITCH
000171: 16,3234           44714                           CS       ZERO
000172: 16,3235           61632                           AD       YCMD
000173: 16,3236           54053                           TS       TVCYAW
000174:
000175: 16,3237           34755                           CAF      PRIO6                                 #  RELEASE THE COUNTERS (BITS 11,12)
000176: 16,3240           00006                           EXTEND
000177: 16,3241           05014                           WOR      CHAN14
000178:
000179: 16,3242           41654        PHSCHK2            CS       TVCPHASE                              #  CHECK TVCPHASE AGAIN
000180: 16,3243           00006                           EXTEND
000181: 16,3244           63247                           BZMF     +3
000182: 16,3245           04574                           TC       POSTJUMP                              #       IF NEGATIVE, RESTART AT MRCLEAN
000183: 16,3246           36035                           CADR     MRCLEAN                               #            FOR FULL INITIALIZATION
000184:
000185: 16,3247           11614        CHKSTRK            CCS      STROKER                               #  CHECK FOR STROKE TEST IN PROGRESS
000186: 16,3250           13265                           TCF      TSTINITJ                              #  YES, KILL IT
000187: 16,3251           13253                           TCF      +2                                    #  NO, PROCEED
000188: 16,3252           13265                           TCF      TSTINITJ                              #  YES, KILL IT
000189:
000190: 16,3253           04574                 +4        TC       POSTJUMP                              #       IF POSITIVE OR ZERO, RESTART AT
000191: 16,3254           36162                           CADR     TVCINIT4                              #            TVCINIT4 (ZEROS TVCPHASE, AND
000192:                                                                                                  #                                                    CALLS TVC DAPS)
000193:
000194:
000195: 16,3255           51654        FINCOPY            INDEX    TVCPHASE                              #  PICK UP THE APPROPRIATE COPYCYCLE
000196: 16,3256           33274                           CAF      TVCCADR
000197: 16,3257           04637                           TCR      ISWCALL                               #  RE-ENTER THE COPYCYCLE, RETURN AT END
000198: 16,3260           13205                           TCF      ENABL1                                #  NOW PREPARE THE OUTCOUNTERS
000199:
000200:
000201: 16,3261           00006        TRIM/CMD           EXTEND                                         #  TVCDAPON INITIALIZATION NOT COMPLETED,
000202: 16,3262           31426                           DCA      PACTOFF                               #       EG.  P,YCMD MAY NOT BE SET.  SET...
000203: 16,3263           53632                           DXCH     PCMD
000204: 16,3264           13205                           TCF      ENABL1                                #  NOW PREPARE THE OUTCOUNTERS
000205:
000206:
000207: 16,3265           34714        TSTINITJ           CAF      ZERO                                  #  DISABLE STROKE TEST (-0 SHOWS PRIOR V68)
000208: 16,3266           55614                           TS       STROKER                               #  (+0 MEANS NEW V68 REQUIRED FOR STARTUP)
000209:
000210:
000211: 16,3267           13253                           TCF      CHKSTRK    +4
000212:
000213: 16,3270           51661        EXRSTRT            INDEX    TVCEXPHS                              #  TVCEXECUTIVE RESTARTS....GO TO
000214: 16,3271           33300                           CAF      TVCEXADR                              #       APPROPRIATE RESTART POINT
000215: 16,3272           50000                           INDEX    A
000216: 16,3273           10000                           TCF      0
000217:


000219:                                                                                                  #  TVC RESTART TABLES.... ORDER IS REQUIRED.   HI-ORDER WORDS ONLY, OF 2CADRS, SINCE BBCON IS ALREADY THERE.
000220:
000221: 16,3274  16,3274               TVCADDR            =        TVCCADR                               #  TABLE OF CADRS, UNUSED LOCS FOR GENADRS
000222: 16,3274           03215        TVCCADR            GENADR   ENABL2                                #  (FOR T5 CALL, UNUSED TABLE LOC)
000223: 16,3275           40545                 +1        CADR     PCOPY      +1                         #  PITCH COPYCYCLE
000224: 16,3276           03226                 +2        GENADR   CMDSOUT                               #  (FOR T5 CALL, UNUSED TABLE LOC)
000225: 16,3277           41023                 +3        CADR     YCOPY      +1                         #  YAW COPYCYCLE
000226: 16,3300           37772        TVCEXADR           OCT      37772                                 #  (UNUSED TABLE LOC, FILL WITH 60MS, T5)
000227: 16,3301           02742                 +1        GENADR   EXECCOPY   +1                         #  TVCEXECUTIVE RESTART POINTS (ORDERED)
000228: 16,3302           02750                 +2        GENADR   SWT/COR
000229: 16,3303           03030                 +3        GENADR   SWTCOPY    +1
000230: 16,3304           03050                 +4        GENADR   TEMPSET
000231: 16,3305           03053                 +5        GENADR   CORSETUP
000232: 16,3306           03111                 +6        GENADR   CORCOPY    +1
000233: 16,3307           03122                 +7        GENADR   CNTRCOPY
000234: 16,3310           03125                 +8D       GENADR   STRKUP
000235: 16,3311           03140                 +9D       GENADR   STRKTCPY   +1

End of include-file TVCRESTARTS.agc.  Parent file is MAIN.agc


