
Source Code


000002:                                                                                                  ## Copyright:   Public domain.
000003:                                                                                                  ## Filename:    TVCSTROKETEST.agc
000004:                                                                                                  ## Purpose:     Part of the source code for Colossus build 237.
000005:                                                                                                  ##              This is for the Command Module's (CM) Apollo Guidance
000006:                                                                                                  ##              Computer (AGC), for Apollo 8.
000007:                                                                                                  ## Assembler:   yaYUL
000008:                                                                                                  ## Contact:     Jim Lawton <jim DOT lawton AT gmail DOT com>
000009:                                                                                                  ## Website:     www.ibiblio.org/apollo/index.html
000010:                                                                                                  ## Page Scans:  www.ibiblio.org/apollo/ScansForConversion/Colossus237/
000011:                                                                                                  ## Mod history: 2011-03-12 JL   Adapted from corresponding Colossus 249 file.
000012:                                                                                                  ##              2017-01-01 RSB  Proofed comment text using octopus/ProoferComments,
000013:                                                                                                  ##                              and fixed errors found.
000014:


000016:                                                                                                  #  NAME     STROKE TEST PACKAGE   (INCLUDING INITIALIZATION PACKAGE)
000017:                                                                                                  #  ORIGINAL CODING BY OLSSON       LOG SECTION....STROKE TEST PACKAGE
000018:                                                                                                  #  MOD BY ENGEL                    DATE....21 MARCH, 1967
000019:
000020:                                                                                                  #  FUNCTIONAL DESCRIPTION....
000021:                                                                                                  #       STROKE TEST PACKAGE GENERATES A WAVEFORM DESIGNED TO EXCITE BENDING
000022:                                                                                                  #       STRKTSTI (STROKE TEST INITIALIZATION) IS CALLED AS A JOB BY VB68.
000023:                                                                                                  #                IT INITIALIZES ALL ERASABLES REQD FOR A STROKE TEST, AND
000024:                                                                                                  #                THEN TESTS FOR AN 80MS DAP. IF 80MS IT SETS STROKER = ESTROKER
000025:                                                                                                  #                FOR AN IMMEDIATE STROKE TEST, OTHERWISE IT MERELY ENABLES
000026:                                                                                                  #                A STROKE TEST BY SETTING STROKER TO -0. THE STROKE TEST
000027:                                                                                                  #                THEN AWAITS SWITCHOVER TO THE 80MS DAP WHEREUPON IT IS
000028:                                                                                                  #                ENABLED AFTER AN ADDITIONAL 4 SECOND DELAY TO AVOID
000029:                                                                                                  #                THE SWITCHOVER TRANSIENTS (SEE STRKCALL, STRKUP IN
000030:                                                                                                  #                TVCEXECUTIVE)
000031:                                                                                                  #       HACK (STROKE TEST) GENERATES THE WAVEFORM BY DUMPING PULSE BURSTS
000032:                                                                                                  #                OF PROPER SIGN AND IN PROPER SEQUENCE DIRECTLY INTO
000033:                                                                                                  #                TVCPITCH, WORKING IN CONJUNCITON WITH BOTH PITCH AND YAW
000034:                                                                                                  #                TVC DAPS, WITH INTERMEDIATE WAITLIST CALLS. NOTE, HOWEVER
000035:                                                                                                  #                THAT THE STROKE TEST IS PERFORMED ONLY IN THE PITCH AXIS.
000036:                                                                                                  #                AN EXAMPLE WAVEFORM IS GIVEN BELOW, TO DEMONSTRATE STROKE-
000037:                                                                                                  #                TEST PARAMETER SELECTION
000038:                                                                                                  #       RESTARTS CAUSE TEST TO BE TERMINATED. ANOTHER V68 REQD IF TEST
000039:                                                                                                  #                IS TO BE RE-RUN.
000040:                                                                                                  #       PULSE BURST SIZE IS PAD-LOADED (ESTROKER) SO THAT AMPLITUDE OF
000041:                                                                                                  #                WAVEFORM CAN BE CHANGED.  THERE ARE TEN PULSE BURSTS IN
000042:                                                                                                  #                THE HALF-AMPLITUDE OF THE FIRST FREQUENCY SET IN THE
000043:                                                                                                  #                STANDARD WAVEFORM.  AMPLITUDE IS 10(ESTROKER)(1/42.15),
000044:                                                                                                  #                NOMINALLY 50/42.15  =  1.185 DEG
000045:                                                                                                  #  CALLING SEQUENCE....
000046:                                                                                                  #       EXTENDED VERB 68 SETS UP STRKTSTI JOB
000047:                                                                                                  #       PITCH AND YAW TVCDAPS, FINDING STROKER NON-ZERO, DO A  ..TC HACK..
000048:                                                                                                  #       AN INTERNALLY-GENERATED WAITLIST CALL ENTERS AT  ..HACKWLST..
000049:                                                                                                  #  NORMAL EXIT MODES....
000050:                                                                                                  #       TC BUNKER  (..Q.. IF ENTRY FROM DAP, ..TCTSKOVR.. IF FROM WAITLIST)LIST
000051:                                                                                                  #  SUBROUTINES CALLED....
000052:                                                                                                  #       WAITLIST
000053:                                                                                                  #  ALARM OR ABORT EXIT MODES....
000054:                                                                                                  #       NONE
000055:                                                                                                  #  ERASABLE INITIALIZATION REQUIRED....
000056:                                                                                                  #       ESTROKER (PAD-LOAD)
000057:                                                                                                  #       STROKER,  CADDY,  REVS,  CARD,  N
000058:                                                                                                  #  OUTPUT....
000059:                                                                                                  #       STRKTSTI...INITIALIZATION FOR STROKE TEST
000060:                                                                                                  #       HACK, HACKWLST...PULSE BURSTS INTO TVCPITCH VIA..ADS..
000061:                                                                                                  #                        RESETS STROKER = +0 WHEN TEST COMPLETED
000062:                                                                                                  #  DEBRIS....
000063:                                                                                                  #        N = CADDY = +0, CARD = -0, REVS = -1
000064:                                                                                                  #        BUNKER
000065:


000067:                                                                                                  #  EXAMPLE STROKE TEST WAVE FORM, DEMONSTRATING PARAMETER SELECTION
000068:
000069:
000070:                                                                                                  #  NOTE....THIS IS NOT THE OFFICIAL WAVEFORM....
000071:
000072:
000073:                                                                                                  #             **              **
000074:                                                                                                  #             **              **
000075:                                                                                                  #             **              **           EXAMPLE WAVEFORM (EACH * REPRESENTS
000076:                                                                                                  #            *  *            *  *               85.41 ARCSEC OF ACTUATOR CMND)
000077:                                                                                                  #            *  *            *  *
000078:                                                                                                  #            *  *            *  *
000079:                                                                                                  #           *    *          *    *          **      **      **      **      **
000080:                                                                                                  #           *    *          *    *          **      **      **      **      **
000081:                                                                                                  #           *    *          *    *          **      **      **      **      **
000082:                                                                                                  #          *      *        *      *        *  *    *  *    *  *    *  *    *  *    **  **  **  **  **
000083:                                                                                                  #          *      *        *      *        *  *    *  *    *  *    *  *    *  *    **  **  **  **  **
000084:                                                                                                  #          *      *        *      *        *  *    *  *    *  *    *  *    *  *    **  **  **  **  **
000085:                                                                                                  #      -----------------------------------------------------------------------------------------------------
000086:                                                                                                  #                  *      *        *      *    *  *    *  *    *  *    *  *    *  *  **  **  **  **  **
000087:                                                                                                  #                  *      *        *      *    *  *    *  *    *  *    *  *    *  *  **  **  **  **  **
000088:                                                                                                  #                  *      *        *      *    *  *    *  *    *  *    *  *    *  *  **  **  **  **  **
000089:                                                                                                  #                   *    *          *    *      **      **      **      **      **
000090:                                                                                                  #                   *    *          *    *      **      **      **      **      **
000091:                                                                                                  #                   *    *          *    *      **      **      **      **      **
000092:                                                                                                  #                    *  *            *  *
000093:                                                                                                  #                    *  *            *  *
000094:                                                                                                  #                    *  *            *  *
000095:                                                                                                  #                     **              **
000096:                                                                                                  #                     **              **
000097:                                                                                                  #                     **              **
000098:
000099:
000100:                                                                                                  #  FOR THIS (UNOFFICIAL, EXAMPLE) WAVEFORM, THE REQUIRED PARAMETERS ARE AS FOLLOWS....
000101:
000102:                                                                                                  #       FCARD    = +3    (NUMBER OF SETS)
000103:                                                                                                  #       ESTROKER = +3    (PULSE BURST SIZE, SC.AT 85.41 ARCSEC/BIT)
000104:
000105:                                                                                                  #       SET1..
000106:                                                                                                  #           FREVS  = +3  (NUMBER REVERSALS MINUS 1)
000107:                                                                                                  #           FCADDY = +4  (NUMBER OF PULSE BURSTS IN 1/2 AMPLITUDE)
000108:                                                                                                  #       SET2..
000109:                                                                                                  #           FCARD1 = +9  (NUMBER REVERSALS MINUS 1)
000110:                                                                                                  #           FCARD4 = +2  (NUMBER OF PULSE BURSTS IN 1/2 AMPLITUDE)
000111:                                                                                                  #       SET3..
000112:                                                                                                  #           FCARD2 = +9  (NUMBER REVERSALS MINUS 1)
000113:                                                                                                  #           FCARD5 = +1  (NUMBER OF PULSE BURSTS IN 1/2 AMPLITUDE)
000114:                                                                                                  #       SET4..
000115:                                                                                                  #           FCARD3 = +0  (NUMBER REVERSALS MINUS 1)
000116:                                                                                                  #           FCARD6 = +0  (NUMBER OF PULSE BURSTS IN 1/2 AMPLITUDE)
000117:


000119:                                                                                                  #  STROKE TEST INITIALIZATION PACKAGE  (AS A JOB, FROM VERB 68)
000120:
000121: 17,2215                                           BANK     17
000122: 20,2000                                           SETLOC   DAPS2
000123: 20,2000                                           BANK
000124:
000125: 20,3431                                           COUNT*   $$/STRK
000126: 20,3431  E6,1665                                  EBANK=   CADDY
000127:
000128: 20,3431           03450        STRKTSTI           TCR      TSTINIT                               #  STROKE TEST INITIALIZATION PKG  (CALLED
000129:                                                                                                  #                                               AS A JOB BY VERB68)
000130:
000131: 20,3432           00004        TVCDTCHK           INHINT                                         #  STROKE TEST PERMITTED ONLY WITH 80MS DAP
000132: 20,3433           31635                           CAE      T5TVCDT                               #       CHECK CURRENT TIMING
000133: 20,3434           54001                           TS       L
000134: 20,3435           37677                           CAF      OCT37774                              #       LOOK FOR 80MS (T5)
000135: 20,3436           00006                           EXTEND
000136: 20,3437           06001                           RXOR     LCHAN                                 #  +0 IF 80MS
000137: 20,3440           10000                           CCS      A
000138: 20,3441           13445                           TCF      +4                                    #       NOT 80MS
000139:
000140: 20,3442           31412                           CAE      ESTROKER                              #       80MS. OK, SET STROKER FOR TEST
000141: 20,3443           55614                           TS       STROKER
000142: 20,3444           13447                           TCF      +3
000143:
000144: 20,3445           44714                           CS       ZERO                                  #       ENABLE, BUT DO NOT ACTIVATE STROKE
000145: 20,3446           55614                           TS       STROKER                               #            TEST, AWAITING SWITCHOVER
000146:                                                                                                  #                                                    TO MOD0R (MOD80)
000147: 20,3447           15112                           TCF      ENDOFJOB
000148:
000149:
000150: 20,3450           43460        TSTINIT            CS       FCADDY                                #  NORMAL ENTRY FROM STRKTSTI
000151: 20,3451           55665                           TS       CADDY
000152: 20,3452           55666                           TS       N                                     #       NOTE SGN CHNG FCADDY(+) TO CADDY(-)
000153:
000154: 20,3453           33461                           CAF      FREVS
000155: 20,3454           55670                           TS       REVS
000156:
000157: 20,3455           43462                           CS       FCARD                                 #       NOTE SGN CHNG FCARD(+) TO CARD(-)
000158: 20,3456           55671                           TS       CARD
000159:
000160: 20,3457           00002                           TC       Q                                     #  RETURN TO STRKTSTI+1  (OR CHKSTRK+2OR+4)
000161:


000163:                                                                                                  #  THE OFFICIAL STROKE TEST WAVEFORM (3 JAN, 1967) CONSISTS OF FOUR STROKE SETS, AS FOLLOWS....
000164:
000165:                                                                                                  #       SET 1...10 BURSTS IN 1/2 AMP,   4 REVERSALS
000166:                                                                                                  #       SET 2... 6 BURSTS IN 1/2 AMP,   6 REVERSALS
000167:                                                                                                  #       SET 3... 5 BURSTS IN 1/2 AMP,  10 REVERSALS
000168:                                                                                                  #       SET 4... 4 BURSTS IN 1/2 AMP,  14 REVERSALS
000169:                                                                                                  #  THE PULSE BURST SIZE (ESTROKER) IS PAD-LOADED (5 BITS AS OF 3JAN,1967)
000170:                                                                                                  #  THE REMAINING WAVEFORM-GENERATING PARAMETERS ARE AS FOLLOWS....
000171:
000172: 20,3460           00012        FCADDY             DEC      10         B-14                       #  NO. PULSE BURSTS IN 1/2 AMP, SET1..(+10)
000173: 20,3461           00003        FREVS              DEC      3          B-14                       #  NO. REVERSALS MINUS 1, SET1........(  3)
000174:
000175: 20,3462           00004        FCARD              DEC      4          B-14                       #  NO. STROKE SETS....................(+ 4)
000176:
000177: 20,3463           00005        FCARD1             DEC      5          B-14                       #  NO. REVERSALS MINUS 1, SET2........(  5)
000178:
000179: 20,3464           00011        FCARD2             DEC      9          B-14                       #                            3........(  9)
000180: 20,3465           00015        FCARD3             DEC      13         B-14                       #                            4........( 13)
000181:
000182: 20,3466           00006        FCARD4             DEC      6          B-14                       #  NO. PULSE BURSTS IN 1/2 AMP, SET2..(+ 6)
000183: 20,3467           00005        FCARD5             DEC      5          B-14                       #                               SET3..(+ 5)
000184: 20,3470           00004        FCARD6             DEC      4          B-14                       #                               SET4..(+ 4)
000185:
000186: 20,3471     4711               20MS               =        BIT2
000187:
000188:
000189:                                                                                                  #  STROKE TEST PACKAGE PROPER....
000190:
000191: 20,3471  E6,1667                                  EBANK=   BUNKER
000192:
000193: 20,3471           00006        HACK               EXTEND                                         #  ENTRY (IN T5 RUPT) FROM TVCDAPS
000194: 20,3472           23667                           QXCH     BUNKER                                #  SAVE Q FOR DAP RETURN
000195:
000196: 20,3473           34711                           CAF      20MS                                  #  2DAPSX2(PASSES/DAP)X2(CS/PASS)=8CS=TVCDT
000197: 20,3474           05140                           TC       WAITLIST
000198: 20,3475  E6,1667                                  EBANK=   BUNKER
000199: 20,3475           03500 40066                     2CADR    HACKWLST
000200: 20,3477           13502                           TCF      +3
000201:
000202: 20,3500           34367        HACKWLST           CAF      TCTSKOVR                              #  ENTRY FROM WAITLIST
000203: 20,3501           55667                           TS       BUNKER                                #  BUNKER IS TC TASKOVER
000204:
000205: 20,3502           31614                           CA       STROKER                               #  STROKE
000206: 20,3503           26054                           ADS      TVCPITCH
000207:
000208: 20,3504           34700                           CAF      BIT11                                 #  RELEASE THE ERROR COUNTERS
000209: 20,3505           00006                           EXTEND
000210: 20,3506           05014                           WOR      CHAN14
000211: 20,3507           25665                           INCR     CADDY                                 #  COUNT DOWN THE NO. BURSTS, THIS SLOPE


000213: 20,3510           41665                           CS       CADDY
000214: 20,3511           00006                           EXTEND
000215: 20,3512           63514                           BZMF     +2
000216: 20,3513           01667                           TC       BUNKER                                #  EXIT, WHILE ON A SLOPE
000217:
000218:
000219: 20,3514           11670                           CCS      REVS
000220: 20,3515           13535                           TCF      REVUP                                 #  POSITIVE REVS
000221: 20,3516           13541                           TCF      REVUP      +4                         #  FINAL REVERSAL, THIS SET
000222:
000223: 20,3517           25671                           INCR     CARD                                  #  NEGATIVE REVS SET LAST PASS, READY FOR
000224: 20,3520           41671                           CS       CARD                                  #       THE NEXT SET. CHECK IF NO MORE SETS
000225: 20,3521           00006                           EXTEND
000226: 20,3522           13533                           BZF      STROKILL                              #  ALL SETS COMPLETED
000227:
000228: 20,3523           51671                           INDEX    CARD
000229: 20,3524           33466                           CAF      FCARD      +4                         #  PICK UP NO. REVERSALS (-), NEXT SET
000230: 20,3525           55670                           TS       REVS                                  #  REINITIALIZE
000231: 20,3526           51671                           INDEX    CARD
000232: 20,3527           43471                           CS       FCARD      +7                         #  PICK UP NO. BURSTS IN 1/2AMP, NEXT SET
000233: 20,3530           55666                           TS       N                                     #  REINITIALIZE
000234: 20,3531           55665                           TS       CADDY
000235: 20,3532           01667                           TC       BUNKER                                #  EXIT, AT END OF SET
000236:
000237:
000238: 20,3533           55614        STROKILL           TS       STROKER                               #  RESET (TO +0) TO END TEST
000239: 20,3534           01667                           TC       BUNKER                                #  EXIT, STROKE TEST FINIS
000240:
000241:
000242: 20,3535           55670        REVUP              TS       REVS                                  #  ALL REVERSALS EXCEPT LAST OF SET
000243: 20,3536           31666                           CA       N
000244: 20,3537           60000                           DOUBLE                                         #  2 X 1/2AMP
000245: 20,3540           13544                           TCF      +4
000246:
000247: 20,3541           44712                 +4        CS       ONE                                   #  FINAL REVERSAL, THIS SET
000248: 20,3542           55670                           TS       REVS                                  #  PREPARE TO BRANCH TO NEW BURST
000249: 20,3543           31666                           CA       N                                     #  JUST RETURN TO ZERO, FINAL SLOPE OF SET
000250: 20,3544           55665                           TS       CADDY                                 #  CADUP
000251:
000252: 20,3545           41614                           CS       STROKER                               #  CHANGE SIGN OF SLOPE
000253: 20,3546           55614                           TS       STROKER
000254: 20,3547           01667                           TC       BUNKER                                #  EXIT AT A REVERSAL (SLOPE CHANGE)

End of include-file TVCSTROKETEST.agc.  Parent file is MAIN.agc


