
Source Code


000002:                                                                                                  ## Copyright:    Public domain.
000003:                                                                                                  ## Filename:     TVCSTROKETEST.agc
000004:                                                                                                  ## Purpose:      Part of the source code for Colossus build 237.
000005:                                                                                                  ##               This is for the Command Module's (CM) Apollo Guidance
000006:                                                                                                  ##               Computer (AGC), we believe for Apollo 8.
000007:                                                                                                  ## Assembler:    yaYUL
000008:                                                                                                  ## Contact:      Jim Lawton <jim DOT lawton AT gmail DOT com>
000009:                                                                                                  ## Website:      www.ibiblio.org/apollo/index.html
000010:                                                                                                  ## Page Scans:   www.ibiblio.org/apollo/ScansForConversion/Colossus237/
000011:                                                                                                  ## Mod history:  2011-03-12 JL  Adapted from corresponding Colossus 249 file.
000012:


000014:                                                                                                  #  NAME     STROKE TEST PACKAGE   (INCLUDING INITIALIZATION PACKAGE)
000015:                                                                                                  #  ORIGINAL CODING BY OLSSON       LOG SECTION....STROKE TEST PACKAGE
000016:                                                                                                  #  MOD BY ENGEL                    DATE....21 MARCH, 1967
000017:
000018:                                                                                                  #  FUNCTIONAL DESCRIPTION....
000019:                                                                                                  #       STROKE TEST PACKAGE GENERATES A WAVEFORM DESIGNED TO EXCITE BENDING
000020:                                                                                                  #       STRKTSTI (STROKE TEST INITIALIZATION) IS CALLED AS A JOB BY VB68.
000021:                                                                                                  #                IT INITIALIZES ALL ERASABLES REQD FOR A STROKE TEST, AND
000022:                                                                                                  #                THEN TESTS FOR AN 80MS DAP. IF 80MS IT SETS STROKER = ESTROKER
000023:                                                                                                  #                FOR AN IMMEDIATE STROKE TEST, OTEHRWISE IT MERELY ENABLES
000024:                                                                                                  #                A STROKE TEST BY SETTING STROKER TO -0. THE STROKE TEST
000025:                                                                                                  #                THEN AWAITS SWITCHOVER TO THE 80MS DAP WHEREUPON IT IS
000026:                                                                                                  #                ENABLED AFTER AN ADDITIONAL 4 SECOND DELAY TO AVOID
000027:                                                                                                  #                THE SWITCHOVER TRANSIENTS (SEE STRKCALL, STRKUP IN
000028:                                                                                                  #                TVCEXECUTIVE)
000029:                                                                                                  #       HACK (STROKE TEST) GENERATES THE WAVEFORM BY DUMPING PULSE BURSTS
000030:                                                                                                  #                OF PROPER SIGN AND IN PROPER SEQUENCE DIRECTLY INTO
000031:                                                                                                  #                TVCPITCH, WORKING IN CONJUNCITON WITH BOTH PITCH AND YAW
000032:                                                                                                  #                TVC DAPS, WITH INTERMEDIAT WAITLIST CALLS. NOTE, HOWEVER
000033:                                                                                                  #                THAT THE STROKE TEST IS PERFORMED ONLY IN THE PITCH AXIS.
000034:                                                                                                  #                AN EXAMPLE WAVEFORM IS GIVEN BELOW, TO DEMONSTRATE STROKE-
000035:                                                                                                  #                TEST PARAMETER SELECTION
000036:                                                                                                  #       RESTARTS CAUSE TEST TO BE TERMINATED. ANOTHER V68 REQD IF TEST
000037:                                                                                                  #                IS TO BE RE-RUN.
000038:                                                                                                  #       PULSE BURST SIZE IS PAD-LOADED (ESTROKER) SO THAT AMPLITUDE OF
000039:                                                                                                  #                WAVEFORM CAN BE CHANGED.  THERE ARE TEN PULSE BURSTS IN
000040:                                                                                                  #                THE HALF-AMPLITUDE OF THE FIRST FREQUENCY SET IN THE
000041:                                                                                                  #                STANDARD WAVEFORM.  AMPLITUDE IS 10(ESTROKER)(1/42.15),
000042:                                                                                                  #                NOMINALLY 50/42.15  =  1.185 DEG
000043:                                                                                                  #  CALLING SEQUENCE....
000044:                                                                                                  #       EXTENDED VERB 68 SETS UP STRKTSTI JOB
000045:                                                                                                  #       PITCH AND YAW TVCDAPS, FINDING STROKER NON-ZERO, DO A  ..TC HACK..
000046:                                                                                                  #       AN INTERNALLY-GENERATED WAITLIST CALL ENTERS AT  ..HACKWLST..
000047:                                                                                                  #  NORMAL EXIT MODES....
000048:                                                                                                  #       TC BUNKER  (..Q.. IF ENTRY FROM DAP, ..TCTSKOVR.. IF FROM WAITLIST)LIST
000049:                                                                                                  #  SUBROUTINES CALLED....
000050:                                                                                                  #       WAITLIST
000051:                                                                                                  #  ALARM OR ABORT EXIT MODES....
000052:                                                                                                  #       NONE
000053:                                                                                                  #  ERASABLE INITIALIZATION REQUIRED....
000054:                                                                                                  #       ESTROKER (PAD-LOAD)
000055:                                                                                                  #       STROKER,  CADDY,  REVS,  CARD,  N
000056:                                                                                                  #  OUTPUT....
000057:                                                                                                  #       STRKTSTI...INITIALIZATION FOR STROKE TEST
000058:                                                                                                  #       HACK, HACKWLST...PULSE BURSTS INTO TVCPITCH VIA..ADS..
000059:                                                                                                  #                        RESETS STROKER = +0 WHEN TEST COMPLETED
000060:                                                                                                  #  DEBRIS....
000061:                                                                                                  #        N = CADDY = +0, CARD = -0, REVS = -1
000062:                                                                                                  #        BUNKER
000063:


000065:                                                                                                  #  EXAMPLE STROKE TEST WAVE FORM, DEMONSTRATING PARAMETER SELECTION
000066:
000067:
000068:                                                                                                  #  NOTE....THIS IS NOT THE OFFICIAL WAVEFORM....
000069:
000070:
000071:                                                                                                  #             **              **
000072:                                                                                                  #             **              **
000073:                                                                                                  #             **              **           EXAMPLE WAVEFORM (EACH * REPRESENTS
000074:                                                                                                  #            *  *            *  *               85.41 ARCSEC OF ACTUATOR CMND)
000075:                                                                                                  #            *  *            *  *
000076:                                                                                                  #            *  *            *  *
000077:                                                                                                  #           *    *          *    *          **      **      **      **      **
000078:                                                                                                  #           *    *          *    *          **      **      **      **      **
000079:                                                                                                  #           *    *          *    *          **      **      **      **      **
000080:                                                                                                  #          *      *        *      *        *  *    *  *    *  *    *  *    *  *    **  **  **  **  **
000081:                                                                                                  #          *      *        *      *        *  *    *  *    *  *    *  *    *  *    **  **  **  **  **
000082:                                                                                                  #          *      *        *      *        *  *    *  *    *  *    *  *    *  *    **  **  **  **  **
000083:                                                                                                  #      -----------------------------------------------------------------------------------------------------
000084:                                                                                                  #                  *      *        *      *    *  *    *  *    *  *    *  *    *  *  **  **  **  **  **
000085:                                                                                                  #                  *      *        *      *    *  *    *  *    *  *    *  *    *  *  **  **  **  **  **
000086:                                                                                                  #                  *      *        *      *    *  *    *  *    *  *    *  *    *  *  **  **  **  **  **
000087:                                                                                                  #                   *    *          *    *      **      **      **      **      **
000088:                                                                                                  #                   *    *          *    *      **      **      **      **      **
000089:                                                                                                  #                   *    *          *    *      **      **      **      **      **
000090:                                                                                                  #                    *  *            *  *
000091:                                                                                                  #                    *  *            *  *
000092:                                                                                                  #                    *  *            *  *
000093:                                                                                                  #                     **              **
000094:                                                                                                  #                     **              **
000095:                                                                                                  #                     **              **
000096:
000097:
000098:                                                                                                  #  FOR THIS (UNOFFICIAL, EXAMPLE) WAVEFORM, THE REQUIRED PARAMETERS ARE AS FOLLOWS....
000099:
000100:                                                                                                  #       FCARD    = +3    (NUMBER OF SETS)
000101:                                                                                                  #       ESTROKER = +3    (PULSE BURST SIZE, SC.AT 85.41 ARCSEC/BIT)
000102:
000103:                                                                                                  #       SET1..
000104:                                                                                                  #           FREVS  = +3  (NUMBER REVERSALS MINUS 1)
000105:                                                                                                  #           FCADDY = +4  (NUMBER OF PULSE BURSTS IN 1/2 AMPLITUDE)
000106:                                                                                                  #       SET2..
000107:                                                                                                  #           FCARD1 = +9  (NUMBER REVERSALS MINUS 1)
000108:                                                                                                  #           FCARD4 = +2  (NUMBER OF PULSE BURSTS IN 1/2 AMPLITUDE)
000109:                                                                                                  #       SET3..
000110:                                                                                                  #           FCARD2 = +9  (NUMBER REVERSALS MINUS 1)
000111:                                                                                                  #           FCARD5 = +1  (NUMBER OF PULSE BURSTS IN 1/2 AMPLITUDE)
000112:                                                                                                  #       SET4..
000113:                                                                                                  #           FCARD3 = +0  (NUMBER OF REVERSALS MINUS 1)
000114:                                                                                                  #           FCARD6 = +0  (NUMBER OF PULSE BURSTS IN 1/2 AMPLUTUDE)
000115:


000117:                                                                                                  #  STROKE TEST INITIALIZATION PACKAGE  (AS A JOB, FROM VERB 68)
000118:
000119: 17,2215                                           BANK     17
000120: 20,2000                                           SETLOC   DAPS2
000121: 20,2000                                           BANK
000122:
000123: 20,3431                                           COUNT*   $$/STRK
000124: 20,3431  E6,1665                                  EBANK=   CADDY
000125:
000126: 20,3431           03450        STRKTSTI           TCR      TSTINIT                               #  STROKE TEST INITIALIZATION PKG  (CALLED
000127:                                                                                                  #                                               AS A JOB BY VERB68)
000128:
000129: 20,3432           00004        TVCDTCHK           INHINT                                         #  STROKE TEST PERMITTED ONLY WITH 80MS DAP
000130: 20,3433           31635                           CAE      T5TVCDT                               #       CHECK CURRENT TIMING
000131: 20,3434           54001                           TS       L
000132: 20,3435           37677                           CAF      OCT37774                              #       LOOK FOR 80MS (T5)
000133: 20,3436           00006                           EXTEND
000134: 20,3437           06001                           RXOR     LCHAN                                 #  +0 IF 80MS
000135: 20,3440           10000                           CCS      A
000136: 20,3441           13445                           TCF      +4                                    #       NOT 80MS
000137:
000138: 20,3442           31412                           CAE      ESTROKER                              #       80MS. OK, SET STROKER FOR TEST
000139: 20,3443           55614                           TS       STROKER
000140: 20,3444           13447                           TCF      +3
000141:
000142: 20,3445           44714                           CS       ZERO                                  #       ENABLE, BUT DO NOT ACTIVATE STROKE
000143: 20,3446           55614                           TS       STROKER                               #            TEST, AWAITING SWITCHOVER
000144:                                                                                                  #                                                    TO MOD0R (MOD80)
000145: 20,3447           15112                           TCF      ENDOFJOB
000146:
000147:
000148: 20,3450           43460        TSTINIT            CS       FCADDY                                #  NORMAL ENTRY FROM STRKTSTI
000149: 20,3451           55665                           TS       CADDY
000150: 20,3452           55666                           TS       N                                     #       NOTE SGN CHNG FCADDY(+) TO CADDY(-)
000151:
000152: 20,3453           33461                           CAF      FREVS
000153: 20,3454           55670                           TS       REVS
000154:
000155: 20,3455           43462                           CS       FCARD                                 #       NOTE SGN CHNG FCARD(+) TO CARD(-)
000156: 20,3456           55671                           TS       CARD
000157:
000158: 20,3457           00002                           TC       Q                                     #  RETURN TO STRKTSTI+1  (OR CHKSTRK+2OR+4)
000159:


000161:                                                                                                  #  THE OFFICIAL STROKE TEST WAVEFORM (3 JAN, 1967) CONSISTS OF FOUR STROKE SETS, AS FOLLOWS....
000162:
000163:                                                                                                  #       SET 1...10 BURSTS IN 1/2 AMP,   4 REVERSALS
000164:                                                                                                  #       SET 2... 6 BURSTS IN 1/2 AMP,   6 REVERSALS
000165:                                                                                                  #       SET 3... 5 BURSTS IN 1/2 AMP,  10 REVERSALS
000166:                                                                                                  #       SET 4... 4 BURSTS IN 1/2 AMP,  14 REVERSALS
000167:                                                                                                  #  THE PULSE BURST SIZE (ESTROKER) IS PAD-LOADED (5 BITS AS OF 3JAN,1967)
000168:                                                                                                  #  THE REMAINING WAVEFORM-GENERATING PARAMETERS ARE AS FOLLOWS....
000169:
000170: 20,3460           00012        FCADDY             DEC      10         B-14                       #  NO. PULSE BURSTS IN 1/2 AMP, SET1..(+10)
000171: 20,3461           00003        FREVS              DEC      3          B-14                       #  NO. REVERSALS MINUS 1, SET1........(  3)
000172:
000173: 20,3462           00004        FCARD              DEC      4          B-14                       #  NO. STROKE SETS....................(+ 4)
000174:
000175: 20,3463           00005        FCARD1             DEC      5          B-14                       #  NO. REVERSALS MINUS 1, SET2........(  5)
000176:
000177: 20,3464           00011        FCARD2             DEC      9          B-14                       #                            3........(  9)
000178: 20,3465           00015        FCARD3             DEC      13         B-14                       #                            4........( 13)
000179:
000180: 20,3466           00006        FCARD4             DEC      6          B-14                       #  NO. PULSE BURSTS IN 1/2 AMP, SET2..(+ 6)
000181: 20,3467           00005        FCARD5             DEC      5          B-14                       #                               SET3..(+ 5)
000182: 20,3470           00004        FCARD6             DEC      4          B-14                       #                               SET4..(+ 4)
000183:
000184: 20,3471     4711               20MS               =        BIT2
000185:
000186:
000187:                                                                                                  #  STROKE TEST PACKAGE PROPER....
000188:
000189: 20,3471  E6,1667                                  EBANK=   BUNKER
000190:
000191: 20,3471           00006        HACK               EXTEND                                         #  ENTRY (IN T5 RUPT) FROM TVCDAPS
000192: 20,3472           23667                           QXCH     BUNKER                                #  SAVE Q FOR DAP RETURN
000193:
000194: 20,3473           34711                           CAF      20MS                                  #  2DAPSx2(PASSES/DAP)x2(CS/PASS)=8CS=TVCDT
000195: 20,3474           05140                           TC       WAITLIST
000196: 20,3475  E6,1667                                  EBANK=   BUNKER
000197: 20,3475           03500 40066                     2CADR    HACKWLST
000198: 20,3477           13502                           TCF      +3
000199:
000200: 20,3500           34367        HACKWLST           CAF      TCTSKOVR                              #  ENTRY FROM WAITLIST
000201: 20,3501           55667                           TS       BUNKER                                #  BUNKER IS TC TASKOVER
000202:
000203: 20,3502           31614                           CA       STROKER                               #  STROKE
000204: 20,3503           26054                           ADS      TVCPITCH
000205:
000206: 20,3504           34700                           CAF      BIT11                                 #  RELEASE THE ERROR COUNTERS
000207: 20,3505           00006                           EXTEND
000208: 20,3506           05014                           WOR      CHAN14
000209: 20,3507           25665                           INCR     CADDY                                 #  COUNT DOWN THE NO. BURSTS, THIS SLOPE


000211: 20,3510           41665                           CS       CADDY
000212: 20,3511           00006                           EXTEND
000213: 20,3512           63514                           BZMF     +2
000214: 20,3513           01667                           TC       BUNKER                                #  EXIT, WHILE ON A SLOPE
000215:
000216:
000217: 20,3514           11670                           CCS      REVS
000218: 20,3515           13535                           TCF      REVUP                                 #  POSITIVE REVS
000219: 20,3516           13541                           TCF      REVUP      +4                         #  FINAL REVERSAL, THE SET
000220:
000221: 20,3517           25671                           INCR     CARD                                  #  NEGATIVE REVS SET LAST PASS, READY FOR
000222: 20,3520           41671                           CS       CARD                                  #       THE NEXT SET. CHECK IF NO MORE SETS
000223: 20,3521           00006                           EXTEND
000224: 20,3522           13533                           BZF      STROKILL                              #  ALL SETS COMPLETED
000225:
000226: 20,3523           51671                           INDEX    CARD
000227: 20,3524           33466                           CAF      FCARD      +4                         #  PICK UP NO. REVERSALS (-), NEXT SET
000228: 20,3525           55670                           TS       REVS                                  #  REINITIALIZE
000229: 20,3526           51671                           INDEX    CARD
000230: 20,3527           43471                           CS       FCARD      +7                         #  PICK UP NO. BURSTS IN 1/2AMP, NEXT SET
000231: 20,3530           55666                           TS       N                                     #  REINITIALIZE
000232: 20,3531           55665                           TS       CADDY
000233: 20,3532           01667                           TC       BUNKER                                #  EXIT, AT END OF SET
000234:
000235:
000236: 20,3533           55614        STROKILL           TS       STROKER                               #  RESET (TO +0) TO END TEST
000237: 20,3534           01667                           TC       BUNKER                                #  EXIT, STROKE TEST FINIS
000238:
000239:
000240: 20,3535           55670        REVUP              TS       REVS                                  #  ALL REVERSALS EXCEPT LAST OF SET
000241: 20,3536           31666                           CA       N
000242: 20,3537           60000                           DOUBLE                                         #  2 x 1/2AMP
000243: 20,3540           13544                           TCF      +4
000244:
000245: 20,3541           44712                 +4        CS       ONE                                   #  FINAL REVERSAL, THIS SET
000246: 20,3542           55670                           TS       REVS                                  #  PREPARE TO BRANCH TO NEW BURST
000247: 20,3543           31666                           CA       N                                     #  JUST RETURN TO ZERO, FINAL SLOPE OF SET
000248: 20,3544           55665                           TS       CADDY                                 #  CADUP
000249:
000250: 20,3545           41614                           CS       STROKER                               #  CHANGE SIGN OF SLOPE
000251: 20,3546           55614                           TS       STROKER
000252: 20,3547           01667                           TC       BUNKER                                #  EXIT AT A REVERSAL (SLOPE CHANGE)

End of include-file TVCSTROKETEST.agc.  Parent file is MAIN.agc


