
Source Code


000002:                                                                                                  ## Copyright:    Public domain.
000003:                                                                                                  ## Filename:     UPDATE_PROGRAM.agc
000004:                                                                                                  ## Purpose:      Part of the source code for Colossus build 237.
000005:                                                                                                  ##               This is for the Command Module's (CM) Apollo Guidance
000006:                                                                                                  ##               Computer (AGC), we believe for Apollo 8.
000007:                                                                                                  ## Assembler:    yaYUL
000008:                                                                                                  ## Contact:      Jim Lawton <jim DOT lawton AT gmail DOT com>
000009:                                                                                                  ## Website:      www.ibiblio.org/apollo/index.html
000010:                                                                                                  ## Page Scans:   www.ibiblio.org/apollo/ScansForConversion/Colossus237/
000011:                                                                                                  ## Mod history:  2011-04-17 JL  Adapted from corresponding Colossus 249 file.
000012:


000014:                                                                                                  #  PROGRAM NAME:   P27
000015:                                                                                                  #  WRITTEN BY:     KILROY/ DE WOLF
000016:
000017:                                                                                                  #  MOD NO:         0
000018:                                                                                                  #  MOD BY:         KILROY
000019:                                                                                                  #  DATE:           01DEC67
000020:
000021:                                                                                                  #  LOG SECTION:    UPDATE PROGRAM.
000022:
000023:                                                                                                  #  FUNCT. DESCR:   P27 (THE UPDATE PROGRAM) PROCESSES COMMANDS AND DATA
000024:                                                                                                  #                      INSERTIONS REQUESTED BY THE GROUND VIA UPLINK.
000025:                                                                                                  #                      THE P27 PROGRAM WILL ACCEPT UPDATES
000026:                                                                                                  #                      ONLY DURING P00 FOR THE LM, AND ONLY DURINT P00,
000027:                                                                                                  #                  P02, AND FRESH START FOR THE CSM
000028:
000029:                                                                                                  #  CALLING SEQ:    PROGRAM IS INITIATED BY UPLINK ENTRY OF VERBS 70, 71, 72 AND 73.
000030:
000031:                                                                                                  #  SUBROUTINES:    TESTXACT, NEWMODEX, NEWMODEX +3, GOXDSPF, BANKCALL, FINDVAC, INTPRET, INTSTALL, TPAGREE,
000032:                                                                                                  #                  INTWAKEU, ENDEXT, POSTJUMP, FALTON, NEWPHASE, PHASCHNG
000033:
000034:                                                                                                  #  NORMAL EXIT:    TC ENDEXT
000035:
000036:                                                                                                  #  ALARM/ABORT:    TC FALTON FOLLOWED BY TC ENDEXT
000037:
000038:                                                                                                  #  RESTARTS:       P27 IS RESTART PROTECTED IN TWO WAYS...
000039:                                                                                                  #                  1. PRIOR TO VERIFLAG INVERSION(WHICH IS CAUSED BY THE GROUND/ASTRONAUT'S VERIFICATION OF UPDATE
000040:                                                                                                  #                     DATA BY SENDING A V33E WHEN V21N02 IS FLASHING)---
000041:                                                                                                  #                     NO PROTECTION EXCEPT PRE-P27 MODE IS RESTROED, COAST + ALIGN DOWNLIST IS SELECTED AND UPLINE
000042:                                                                                                  #                     ACTIVITY LIGHT IS TURNED OFF.(JUST AS IF A V34E WAS SENT DURING P27 DATA LOADS).
000043:                                                                                                  #                     V70,V71,V72 OR V73 WILL HAVE TO BE COMPLETELY RESENT BY USER.
000044:                                                                                                  #                  2. AFTER VERIFLAG INVERSION(WHEN UPDATE OF THE SPECIFIED ERASABLES IS BEING PERFORMED)---
000045:                                                                                                  #                     PROTECTED AGAINST RESTARTS.
000046:
000047:                                                                                                  #  DEBRIS:         UPBUFF   (20D)  TEMP STORAGE FOR ADDRESSES AND CONTENTS.
000048:                                                                                                  #                  UPVERB   (1)    VERB NUMBER MINUS 70D (E.G. FOR V72, UPVERB = 72D - 70D = 2)
000049:                                                                                                  #                  UPOLDMOD (1)    FOR MAJOR MODE INTERRUPTED BY P27.
000050:                                                                                                  #                  COMPNUMB (1)    TOTAL NUMBER OF COMPONENTS TO BE TRANSMITTED.
000051:                                                                                                  #                  UPCOUNT  (1)    ACTUAL NUMBER OF COMPONENTS RECEIVED.
000052:                                                                                                  #                  UPTEMP   (1)    SCRATCH, BUT USUALLY CONTAINS COMPONENT NUMBER TO BE CHANGED DURING VERIFY CYCLE
000053:
000054:
000055:                                                                                                  #  INPUT:
000056:
000057:                                                                                                  #   ENTRY            DESCRIPTION
000058:
000059:                                                                                                  #   V70EXXXXXEXXXXXE (LIFTOFF TIME INCREMENT) DOUBLE PRECISION OCTAL TIME INCREMENT, XXXXX XXXXX,
000060:                                                                                                  #                    IS ADDED TO TEPHEM, SUBTRACTED FROM AGC CLOCK(TIME2,TIME1), SUBTRACTED FROM CSM STATE
000061:                                                                                                  #                    VECTOR TIME(TETCSM) AND SUBTRACTED FROM LEM STATE VECTOR TIME(TETLEM).
000062:                                                                                                  #                    THE DP OCTAL TIME INCREMENT IS SCALED AT 2(28).


000064:                                                                                                  #   V71EIIEAAAAE     (CONTIGUOUS BLOCK UPDATE) II-2 OCTAL COMPONENTS,XXXXX,
000065:                                                                                                  #   XXXXXE           ARE LOADED INTO ERASABLE STARTING AT ECADR, AAAA.
000066:                                                                                                  #  XXXXXE            IT IS .GE. 3 .AND. .LE. 200.,
000067:                                                                                                  #                    AND (AAAA + II - 3) DOES NOT PRODUCE AN ADDRESS IN THE
000068:                                                                                                  #  9 NEXT BANK
000069:                                                                                                  #    .               SCALING IS SAME AS INTERNAL REGISTERS.
000070:
000071:                                                                                                  #   V72EIIE          (SCATTER UPDATE) (II-1)/2 OCTAL COMPONENTS,XXXXX, ARE
000072:                                                                                                  #   AAAAEXXXXXE      LOADED INTO ERASABLE LOCATIONS, AAAA.
000073:                                                                                                  #   AAAAEXXXXXE      II IS .GE. 3 .AND. .LE. 19D, AND MUST BE ODD.
000074:                                                                                                  #    .               SCALING IS SAME AS INTERNAL REGISTERS.
000075:
000076:                                                                                                  #   V73EXXXXXEXXXXXE (OCTAL CLOCK INCREMENT) DOUBLE PRECISION OCTAL TIME
000077:                                                                                                  #                    INCREMENT XXXXX XXXXX, IS ADDED TO THE AGC CLOCK, IN
000078:                                                                                                  #                    CENTISECONDS SCALED AT (2)28.
000079:                                                                                                  #                    THIS LOAD IS THE OCTAL EQUIVALENT OF V55.
000080:
000081:
000082:                                                                                                  #  OUTPUT:         IN ADDITION TO THE ABOVE REGISTER LOADS, ALL UPDATES
000083:                                                                                                  #                  COMPLEMENT BIT3 OF FLAGWORD7.
000084:
000085:
000086:                                                                                                  #  ADDITIONAL NOTES: VERB 71, JUST DEFINED ABOVE WILL BE USED TO PERFORM BUT NOT LIMITED TO THE FOLLOWING UPDATES--
000087:
000088:                                                                                                  #                  1. CSM/LM STATE VECTOR UPDATE
000089:                                                                                                  #                  2. REFSMMAT UPDATE
000090:
000091:
000092:                                                                                                  #           THE FOLLOWING COMMENTS DELINEATE EACH SPECIAL UPDATE----
000093:
000094:                                                                                                  #  1. CSM/LM STATE VECTOR UPDATE(ALL DATA ENTRIES IN OCTAL)
000095:
000096:                                                                                                  #  ENTRIES:        DATA DEFINITION:                                        SCALE FACTORS:
000097:                                                                                                  #  V71E            CONTIGUOUS BLOCK UPDATE VERB
000098:                                                                                                  #     21E          NUMBER OF COMPONENTS FOR STATE VECTOR UPDATE
000099:                                                                                                  #   AAAAE          ECADR OF 'UPSVFLAG'
000100:                                                                                                  #  XXXXXE          STATE VECTOR IDENTIFIER: 00001 FOR CSM, 77776 FOR LEM - EARTH SPHERE OF INFLUENCE SCALING
000101:                                                                                                  #                                           00002 FOR CSM, 77775 FOR LEM - LUNAR SPHERE OF INFLUENCE SCALING
000102:                                                                                                  #  XXXXXEXXXXXE    X POSITION
000103:                                                                                                  #  XXXXXEXXXXXE    Y POSITION
000104:                                                                                                  #  XXXXXEXXXXXE    Z POSITION
000105:                                                                                                  #  XXXXXEXXXXXE    X VELOCITY
000106:                                                                                                  #  XXXXXEXXXXXE    Y VELOCITY
000107:                                                                                                  #  XXXXXEXXXXXE    Z VELOCITY
000108:                                                                                                  #  XXXXXEXXXXXE    TIME FROM AGC CLOCK ZERO
000109:                                                                                                  #  V33E            VERB 33 TO SIGNAL THAT THE STATE VECTOR IS READY TO BE STORED.
000110:
000111:
000112:                                                                                                  #  2. REFSMMAT(ALL DATA ENTRIES IN OCTAL)
000113:                                                                                                  #  ENTRIES:        DATA DEFINITION:                                        SCALE FACTORS:


000115:                                                                                                  #  V71E            CONTIGUOUS BLOCK UPDATE VERB
000116:                                                                                                  #     24E          NUMBER OF COMPONENTS FOR REFSMMAT UPDATE
000117:                                                                                                  #   AAAAE          ECADR OF 'REFSMMAT'
000118:                                                                                                  #  XXXXXEXXXXXE    ROW 1 COLUMN 1                                          2(-1)
000119:                                                                                                  #  XXXXXEXXXXXE    ROW 1 COLUMN 2                                          2(-1)
000120:                                                                                                  #  XXXXXEXXXXXE    ROW 1 COLUMN 3                                          2(-1)
000121:                                                                                                  #  XXXXXEXXXXXE    ROW 2 COLUMN 1                                          2(-1)
000122:                                                                                                  #  XXXXXEXXXXXE    ROW 2 COLUMN 2                                          2(-1)
000123:                                                                                                  #  XXXXXEXXXXXE    ROW 2 COLUMN 3                                          2(-1)
000124:                                                                                                  #  XXXXXEXXXXXE    ROW 3 COLUMN 1                                          2(-1)
000125:                                                                                                  #  XXXXXEXXXXXE    ROW 3 COLUMN 2                                          2(-1)
000126:                                                                                                  #  XXXXXEXXXXXE    ROW 3 COLUMN 3                                          2(-1)
000127:                                                                                                  #  V33E            VERB 33 TO SIGNAL THAT REFSMMAT IS READY TO BE STORED.
000128:
000129: 07,3717                                           BANK     07
000130: 43,2000                                           SETLOC   EXTVERBS
000131: 43,2000                                           BANK
000132:
000133: 43,3721  E3,1706                                  EBANK=   TEPHEM
000134:
000135: 43,3721                                           COUNT*   $$/P27
000136: 43,3721           34714        V70UPDAT           CAF      UP70                                  #  COMES HERE ON V70E
000137: 43,3722           13730                           TCF      V73UPDAT   +1
000138:
000139: 43,3723           34712        V71UPDAT           CAF      UP71                                  #  COMES HERE ON V71E
000140: 43,3724           13730                           TCF      V73UPDAT   +1
000141:
000142: 43,3725           34711        V72UPDAT           CAF      UP72                                  #  COMES HERE ON V72E
000143: 43,3726           13730                           TCF      V73UPDAT   +1
000144:
000145: 43,3727           36214        V73UPDAT           CAF      UP73                                  #  COMES HERE ON V73E
000146:
000147: 43,3730           54331                 +1        TS       UPVERBSV                              #  SAVE UPVERB UNTIL IT'S OK TO ENTER P27
000148:
000149: 43,3731           02076                           TC       TESTXACT                              #  GRAB DISPLAY IF AVAILABLE, OTHERWISE
000150:                                                                                                  #                                          TURN*OPERATOR ERROR* ON AND TERMINATEJOB
000151:
000152: 43,3732           31011                           CA       MODREG                                #  CHECK IF UPDATE ALLOWED
000153: 43,3733           00006                           EXTEND                                         #  FIRST CHECK FOR MODREG = +0, -0
000154: 43,3734           13736                           BZF      +2                                    #  (+0 = P00, -0 = FRESH START)
000155: 43,3735           03746                           TC       CKMDMORE                              #  NOW CHECK FOR PROGRAM WHICH CAN BE
000156:                                                                                                  #                                          INTERRUPTED BY P27.
000157:
000158: 43,3736           31011                           CAE      MODREG                                #  UPDATE ALLOWED.
000159: 43,3737           54301                           TS       UPOLDMOD                              #  SAVE CURRENT MAJOR MODE
000160:


000162: 43,3740           30331                           CAE      UPVERBSV                              #  SET UPVERB TO INDICDATE TO P27
000163: 43,3741           54302                           TS       UPVERB                                #  WHICH EXTENDED VERB CALLED IT.
000164:
000165: 43,3742           34712                           CAF      ONE
000166: 43,3743           54303                           TS       UPCOUNT                               #  INITIALIZE UPCOUNT TO 1
000167:
000168: 43,3744           04574                           TC       POSTJUMP                              #  LEAVE EXTENDED VERB BANK AND
000169: 43,3745           57335                           CADR     UPPART2                               #  GO TO UPDATE PROGRAM(P27) BANK.
000170:
000171: 43,3746           40101        CKMDMORE           CS       FLAGWRD5
000172: 43,3747           74703                           MASK     BIT8                                  #  CHECK IF COMPUTER IS LGC
000173: 43,3750           10000                           CCS      A                                     #  IS COMPUTER LGC OR AGC
000174: 43,3751           13757        UPERLEM            TCF      UPERROR                               #  ERROR- IT'S THE LEM + MODE IS NOT POO.
000175: 43,3752           44711                           CS       TWO
000176: 43,3753           71011                           MASK     MODREG
000177: 43,3754           10000                           CCS      A
000178: 43,3755           13757        UPERCMC            TCF      UPERROR                               #  ERROR- IT'S THE CMC AND MODE IS NOT
000179:                                                                                                  #                                          P00 OR P02.
000180: 43,3756           00002                           TC       Q                                     #  ALLOW UPDATE TO PROCEED
000181:
000182: 43,3757           04574        UPERROR            TC       POSTJUMP                              #  TURN ON 'OPERATOR ERROR' LIGHT
000183: 43,3760           57716                           CADR     UPERROUT   +2                         #  GO TO COMMON UPDATE PROGRAM EXIT
000184:
000185: 43,3761     4714               UP70               EQUALS   ZERO
000186: 43,3761     4712               UP71               EQUALS   ONE
000187: 43,3761     4711               UP72               EQUALS   TWO
000188: 43,3761     6214               UP73               EQUALS   THREE
000189:
000190:
000191: 04,3645                                           BANK     04
000192: 27,2000                                           SETLOC   UPDATE2
000193: 27,2000                                           BANK
000194:
000195: 27,3335                                           COUNT*   $$/P27
000196:
000197: 27,3335                        UPPART2            EQUALS                                         #  UPDATE PROGRAM - PART 2
000198:
000199: 27,3335           05301                           TC       PHASCHNG                              #  SET RESTART GROUP 6 TO RESTORE OLD MODE
000200: 27,3336           07026                           OCT      07026                                 #  AND DOWNLIST AND EXIT IF RESTART OCCURS.
000201: 27,3337           30000                           OCT      30000                                 #  PRIORITY SAME AS CHRPRIO
000202: 27,3340     0304                                  EBANK=   UPBUFF
000203: 27,3340           03646 56100                     2CADR    UPOUT      +1
000204:
000205: 27,3342           34712                           CAF      ONE
000206: 27,3343           54332                           TS       DNLSTCOD                              #  DOWNLIST
000207:
000208: 27,3344           05243                           TC       NEWMODEX                              #  SET MAJOR MODE = 27
000209: 27,3345           00033                           DEC      27         B-14


000211: 27,3346           50302                           INDEX    UPVERB                                #  BRANCH DEPENDING ON WHETHER THE UPDATE
000212: 27,3347           13350                           TCF      +1                                    #  VERB REQUIRES A FIXED OR VARIABLE NUMBER
000213: 27,3350           13353                           TCF      +3                                    #  V70 FIXED.               (OF COMPONENTS.
000214: 27,3351           13356                           TCF      OHWELL1                               #  V71 VARIABLE - GO GET NO. OF COMPONENTS
000215: 27,3352           13356                           TCF      OHWELL1                               #  V72 VARIABLE - GO GET NO. OF COMPONENTS
000216: 27,3353           34711                           CA       TWO                                   #  V73 (AND V70) FIXED
000217: 27,3354           54300                           TS       COMPNUMB                              #  SET NUMBER OF COMPONENTS TO 2.
000218: 27,3355           13401                           TCF      OHWELL2                               #  GO GET THE TWO UPDATE COMPONENTS
000219:
000220: 27,3356           33451        OHWELL1            CAF      ADUPBUFF                              #  * REQUEST USER TO SEND NUMBER  *
000221: 27,3357           54156                           TS       MPAC       +2                         #  * OF COMPONENTS PARAMETER(II). *
000222: 27,3360           33452                 +2        CAF      UPLOADNV                              #  (CKV432 RETURNS HERE IF V32 ENCOUNTERED)
000223: 27,3361           04555                           TC       BANKCALL                              #  DISPLAY A FLASHING V21N01
000224: 27,3362           20465                           CADR     GOXDSPF                               #  TO REQUEST II.
000225: 27,3363           13646                           TCF      UPOUT4                                #  V32 TERMINATE UPDATE(P27) RETURN
000226: 27,3364           13360                           TCF      OHWELL1    +2
000227: 27,3365           03442                           TC       CK4V32                                #  DATA OR V32 RETURN
000228: 27,3366           44711                           CS       BIT2
000229: 27,3367           60304                           AD       UPBUFF                                #  IS II(NUMBER OF COMPONENTS PARAMETER)
000230: 27,3370           00006                           EXTEND                                         #  .GE. 3 AND .LE. 20D.
000231: 27,3371           63360                           BZMF     OHWELL1    +2
000232: 27,3372           40304                           CS       UPBUFF
000233: 27,3373           64376                           AD       UP21
000234: 27,3374           00006                           EXTEND
000235: 27,3375           63360                           BZMF     OHWELL1    +2
000236: 27,3376           30304                           CAE      UPBUFF
000237: 27,3377           54300                           TS       COMPNUMB                              #  SAVE II IN COMPNUMB
000238:
000239:
000240:                                                                                                  #           UPBUFF LOADING SEQUENCE
000241:
000242: 27,3400           24303                           INCR     UPCOUNT                               #  INCREMENT COUNT OF COMPONENTS RECEIVED.
000243: 27,3401           33616        OHWELL2            CAF      ADUPBFM1                              #  CALCULATE LOCATION(ECADR) IN UPBUFF
000244: 27,3402           60303                           AD       UPCOUNT                               #  WHERE NEXT COMPONENT SHOULD BE STORED.
000245: 27,3403           54156                 +2        TS       MPAC       +2                         #  PLACE ECADR INTO R3.
000246: 27,3404           33452                 +3        CAF      UPLOADNV                              #  (CK4V32 RETURNS HERE IF V32 ENCOUNTERED)
000247: 27,3405           04555                           TC       BANKCALL                              #  DISPLAY A FLASHING V21N01
000248: 27,3406           20465                           CADR     GOXDSPF                               #  TO REQUEST DATA.
000249: 27,3407           13646                           TCF      UPOUT4                                #  V34 TERMINATE UPDATE(P27) RETURN.
000250: 27,3410           13404                           TCF      OHWELL2    +3                         #  V33 PROCEED RETURN
000251: 27,3411           03442                           TC       CK4V32                                #  DATA OR V32 RETURN
000252: 27,3412           40303                           CS       UPCOUNT                               #  HAVE WE FINISHED RECEIVING ALL
000253: 27,3413           60300                           AD       COMPNUMB                              #  THE DATA WE EXPECTED.
000254: 27,3414           00006                           EXTEND
000255: 27,3415           63417                           BZMF     UPVERIFY                              #  YES- GO TO VERIFICATION SEQUENCE
000256: 27,3416           13400                           TCF      OHWELL2    -1                         #  NO- REQUEST ADDITIONAL DATA.
000257:
000258:
000259:                                                                                                  #           VERIFY SEQUENCE
000260:


000262: 27,3417           33450        UPVERIFY           CAF      ADUPTEMP                              #  PLACE ECADR WHERE COMPONENT NO. INDEX
000263: 27,3420           54156                           TS       MPAC       +2                         #  IS TO BE STORED INTO R3.
000264: 27,3421           33453                           CAF      UPVRFYNV                              #  (CK4V32 RETURNS HERE IF V32 ENCOUNTERED)
000265: 27,3422           04555                           TC       BANKCALL                              #  DISPLAY A FLASHING V21N02 TO REQUEXT
000266: 27,3423           20465                           CADR     GOXDSPF                               #  DATA CORRECTION OR VERIFICATION.
000267: 27,3424           13646                           TCF      UPOUT4                                #  V34 TERMINATE UPDATE(P27) RETURN
000268: 27,3425           13454                           TCF      UPSTORE                               #  V33 DATA SENT IS GOOD. GO STORE IT.
000269: 27,3426           03442                           TC       CK4V32                                #  COMPONENT NO. INDEX OR V32 RETURN
000270: 27,3427           30330                           CA       UPTEMP                                #  DOES THE COMPONENT NO. INDEX JUST SENT
000271: 27,3430           00006                           EXTEND                                         #  SPECIFY A LEGAL COMPONENT NUMBER?
000272: 27,3431           63417                           BZMF     UPVERIFY                              #  NO, IT IS NOT POSITIVE NONZERO
000273: 27,3432           40330                           CS       UPTEMP
000274: 27,3433           60300                           AD       COMPNUMB
000275: 27,3434           64712                           AD       BIT1
000276: 27,3435           00006                           EXTEND
000277: 27,3436           63417                           BZMF     UPVERIFY                              #  NO
000278: 27,3437           33616                           CAF      ADUPBFM1                              #  YES- BASED ON THE COMPONENT NO. INDEX
000279: 27,3440           60330                           AD       UPTEMP                                #  CALCULATE THE ECADR OF LOCATION IN
000280: 27,3441           13403                           TCF      OHWELL2    +2                         #  UPBUFF WHICH USER WANTS TO CHANGE.
000281:
000282: 27,3442  27,3646               UPOUT4             EQUALS   UPOUT      +1                         #  COMES HERE ON V34 TO TERMINATE UPDATE.
000283:
000284:
000285:                                                                                                  #           CHECK FOR VERB 32 SEQUENCE
000286:
000287: 27,3442           40154        CK4V32             CS       MPAC                                  #  ON DATA RETURN FROM 'GOXDSPF'
000288: 27,3443           74705                           MASK     BIT6                                  #  ON DATA RETURN FROM "GOXDSP"& THE CON-
000289: 27,3444           10000                           CCS      A                                     #  TENTS OF MPAC = VERB.  SO TEST FOR V32.
000290: 27,3445           00002                           TC       Q                                     #  IT'S NOT A V32, IT'S DATA.  PROCEED.
000291: 27,3446           50002                           INDEX    Q
000292: 27,3447           77771                           TC       0          -6                         #  V32 ENCOUNTERED - GO BACK AND GET DATA
000293:
000294: 27,3450           00330        ADUPTEMP           ADRES    UPTEMP                                #  ADDRESS OF TEMP STORAGE FOR CORRECTIONS
000295: 27,3451           00304        ADUPBUFF           ADRES    UPBUFF                                #  ADDRESS OF UPDATE DATA STORAGE BUFFER
000296: 27,3452           05201        UPLOADNV           VN       2101                                  #  VERB 21 NOUN 01
000297: 27,3453           05202        UPVRFYNV           VN       2102                                  #  VERB 21 NOUN 02
000298: 27,3454     4376               UP21               =        MD1                                   #  DEC 21 = MAX NO OF COMPONENTS +1
000299: 27,3454     4715               UPDTPHAS           EQUALS   FIVE
000300:
000301:                                                                                                  #           PRE-STORE AND FAN TO APPROPRIATE BRANCH SEQUENCE
000302:
000303: 27,3454                        UPSTORE            EQUALS                                         #  GROUND HAS VERIFIED UPDATE. STORE DATA.
000304:
000305: 27,3454           00004                           INHINT
000306:
000307: 27,3455           30103                           CAE      FLAGWRD7                              #  INVERT VERIFLAG(BIT 3 OF FLAGWRD7) TO
000308: 27,3456           56001                           XCH      L                                     #  INDICATE TO THE GROUND(VIA DOWNLINK)
000309: 27,3457           34710                           CAF      BIT3                                  #  THAT THE V33(WHICH THE GROUND SENT TO
000310: 27,3460           00006                           EXTEND                                         #  VERIFY THE UPDATE) HAS BEEN SUCCESSFULLY
000311: 27,3461           06001                           RXOR     LCHAN                                 #  RECEIVED BY THE UPDATE PROGRAM


000313: 27,3462           54103                           TS       FLAGWRD7
000314:
000315: 27,3463           05301                           TC       PHASCHNG                              #  SET RESTART GROUP 6 TO REDO THE UPDATE
000316: 27,3464           04026                           OCT      04026                                 #  DATA STORE IF A RESTART OCCURS.
000317: 27,3465           00004                           INHINT                                         #  (BECAUSE PHASCHNG DID A RELINT)
000318:
000319: 27,3466           44711                           CS       TWO                                   #  GO TO UPFNDVAC IF INSTALL IS REQUIRED.
000320: 27,3467           60302                           AD       UPVERB                                #  THAT IS, IF IT'S A V70 - V72.
000321: 27,3470           00006                           EXTEND                                         #  GO TO UPEND73 IF IT'S A V73.
000322: 27,3471           63500                           BZMF     UPFNDVAC
000323:
000324:                                                                                                  #           VERB 73 BRANCH
000325:
000326: 27,3472           00006        UPEND73            EXTEND                                         #  V73-PERFORM DP OCTAL AGC CLOCK INCREMENT
000327: 27,3473           30305                           DCA      UPBUFF
000328: 27,3474           52315                           DXCH     UPBUFF     +8D
000329: 27,3475           03523                           TC       TIMEDIDL
000330: 27,3476           04400                           TC       FALTON                                #  ERROR- TURN ON *OPERATOR ERROR* LIGHT
000331: 27,3477           03646                           TC       UPOUT      +1                         #  GO TO COMMON UPDATE PROGRAM EXIT
000332:
000333: 27,3500           34371        UPFNDVAC           CAF      CHRPRIO                               #  (USE EXTENDED VERB PRIORITY)
000334: 27,3501           05042                           TC       FINDVAC                               #  GET VAC AREA FOR 'CALL INTSTALL'
000335: 27,3502  E3,1706                                  EBANK=   TEPHEM
000336: 27,3502           03505 56103                     2CADR    UPJOB                                 #  (NOTE: THIS WILL ALSO SET EBANK FOR
000337: 27,3504           05112                           TC       ENDOFJOB                              #  'TEPHEM' UPDATE BY V70)
000338:
000339: 27,3505           06006        UPJOB              TC       INTPRET                               #  THIS COULD BE A STATE VECTOR UPDATE--SO
000340: 27,3506           77624                           CALL                                           #  WAIT(PUT JOB TO SLEEP) IF ORBIT INT(OI)
000341: 27,3507           27371                                    INTSTALL                              #  IS IN PROGRESS--OR--GRAB OI AND RETURN
000342:                                                                                                  #                                          TO UPWAKE IF OI IS NOT IN PROGRESS.
000343:
000344: 27,3510           77776        UPWAKE             EXIT
000345:
000346: 27,3511           05301                           TC       PHASCHNG                              #  RESTART PROTECT(GROUP 6)
000347: 27,3512           04026                           OCT      04026
000348:
000349: 27,3513           05435                           TC       UPFLAG                                #  SET INTEGRATION RESTART BIT
000350: 27,3514           00236                           ADRES    REINTFLG
000351: 27,3515           00004                           INHINT
000352: 27,3516                        UPPART3            EQUALS
000353:
000354: 27,3516           50302                           INDEX    UPVERB                                #  BRANCH TO THE APPROPRIATE UPDATE VERB
000355: 27,3517           13520                           TCF      +1                                    #  ROUTINE TO ACTUALLY PERFORM THE UPDATE
000356: 27,3520           13657                           TCF      UPEND70                               #  V70
000357: 27,3521           13566                           TCF      UPEND71                               #  V71
000358: 27,3522           13620                           TCF      UPEND72                               #  V72
000359:
000360:
000361:                                                                                                  #           ROUTINE TO INCREMENT CLOCK(TIME2,TIME1) WITH CONTENTS OF DP WORD AT UPBUFF.


000363: 27,3523           00006        TIMEDIDL           EXTEND
000364: 27,3524           22330                           QXCH     UPTEMP                                #  SAVE Q FOR RETURN
000365: 27,3525           34714                           CAF      ZERO                                  #  ZERO AND SAVE TIME2,TIME1
000366: 27,3526           22007                           ZL
000367: 27,3527           52025                           DXCH     TIME2
000368: 27,3530           52327                           DXCH     UPBUFF     +18D                       #  STORE IN CASE OF OVERFLOW
000369:
000370: 27,3531           34715                           CAF      UPDTPHAS                              #  SO
000371: 27,3532           54001                           TS       L                                     #  A
000372: 27,3533           40000                           COM                                            #  QUICK
000373: 27,3534           52765                           DXCH     -PHASE6                               #  PHASCHNG
000374:
000375: 27,3535           00004        TIMEDIDR           INHINT
000376:
000377: 27,3536           34714                           CAF      ZERO
000378: 27,3537           22007                           ZL                                             #  PICK UP INCRMENTER(AND ZERO
000379: 27,3540           54156                           TS       MPAC       +2                         #  IT IN CASE OF RESTARTS) AND
000380: 27,3541           52315                           DXCH     UPBUFF     +8D                        #  STORE IT
000381: 27,3542           52155                           DXCH     MPAC                                  #  INTO MPAC FOR TPAGREE.
000382:
000383: 27,3543           00006                           EXTEND
000384: 27,3544           30327                           DCA      UPBUFF     +18D
000385: 27,3545           20155                           DAS      MPAC                                  #  FORM SUM IN MPAC
000386: 27,3546           00006                           EXTEND
000387: 27,3547           13556                           BZF      DELTATOK                              #  TEST FOR OVERFLOW
000388: 27,3550           34714                           CAF      ZERO
000389: 27,3551           52327                           DXCH     UPBUFF     +18D                       #  OVERFLOW, RESTORE OLD VALUE OF CLOCK
000390: 27,3552           20025                           DAS      TIME2                                 #  AND TURN ON OPERATOR ERROR
000391:
000392: 27,3553           05301                           TC       PHASCHNG                              #  RESTART PROTECT(GROUP 6)
000393: 27,3554           04026                           OCT      04026
000394:
000395: 27,3555           00330                           TC       UPTEMP                                #  GO TO ERROR EXIT
000396:
000397: 27,3556           07226        DELTATOK           TC       TPAGREE                               #  FORCE SIGN AGREEMENT
000398: 27,3557           52155                           DXCH     MPAC
000399: 27,3560           20025                           DAS      TIME2                                 #  INCREMENT TIME2,TIME1
000400:
000401: 27,3561           05301                           TC       PHASCHNG                              #  RESTART PROTECT(GROUP 6)
000402: 27,3562           04026                           OCT      04026
000403:
000404: 27,3563           00004                           INHINT
000405: 27,3564           50330                           INDEX    UPTEMP                                #  (CODED THIS WAY FOR RESTART PROTECTION)
000406: 27,3565           00001                           TC       1                                     #  NORMAL RETURN
000407:                                                                                                  #           VERB 71 BRANCH
000408:
000409: 27,3566           30305        UPEND71            CAE      UPBUFF     +1                         #  SET EBANK
000410: 27,3567           54003                           TS       EBANK                                 #     AND
000411: 27,3570           74373                           MASK     LOW8                                  #  CALCULATE
000412: 27,3571           54330                           TS       UPTEMP                                #  S-REG VALUE OF RECEIVING AREA


000414: 27,3572           67714                           AD       NEG3                                  #  IN THE PROCESS OF
000415: 27,3573           60300                           AD       COMPNUMB                              #  PERFORMING
000416: 27,3574           00006                           EXTEND                                         #  THIS UPDATE
000417: 27,3575           13603                           BZF      STORLP71                              #  WILL WE
000418: 27,3576           74702                           MASK     BIT9                                  #  OVERFLOW
000419: 27,3577           10000                           CCS      A                                     #  INTO THE NEXT EBANK....
000420: 27,3600           13714                           TCF      UPERROUT                              #  YES
000421:
000422: 27,3601           37714                           CA       NEG3                                  #  NO- CALCULATE NUMBER OF
000423: 27,3602           60300                           AD       COMPNUMB                              #  WORDS TO BE STORED MINUS ONE
000424: 27,3603           54154        STORLP71           TS       MPAC                                  #  SAVE NO. OF WORDS REMAINING MINUS ONE
000425: 27,3604           50000                           INDEX    A                                     #  TAKE NEXT UPDATE WORD FROM
000426: 27,3605           30306                           CA       UPBUFF     +2                         #  UPBUFF AND
000427: 27,3606           54001                           TS       L                                     #  SAVE IT IN L
000428: 27,3607           30154                           CA       MPAC                                  #  CALCULATE NEXT
000429: 27,3610           60330                           AD       UPTEMP                                #  RECEIVING ADDRESS
000430: 27,3611           50000                           INDEX    A
000431: 27,3612  E3,1400                                  EBANK=   1400
000432: 27,3612           23400                           LXCH     1400                                  #  UPDATE THE REGISTER  BY CONTENTS OF L
000433: 27,3613  E3,1706                                  EBANK=   TEPHEM
000434: 27,3613           10154                           CCS      MPAC                                  #  ARE THERE ANY WORDS LEFT TO BE STORED
000435: 27,3614           13603                           TCF      STORLP71                              #  YES
000436: 27,3615           13645                           TCF      UPOUT                                 #  NO- THEN EXIT UPDATE PROGRAM
000437: 27,3616           00303        ADUPBFM1           ADRES    UPBUFF     -1                         #  SAME AS ADUPBUFF BUT LESS 1 (DON'T MOVE)
000438: 27,3617           13645                           TCF      UPOUT                                 #  NO- EXIT UPDATE(HERE WHEN COMPNUMB = 3)
000439:
000440:
000441:                                                                                                  #           VERB 72 BRANCH
000442:
000443: 27,3620           34712        UPEND72            CAF      BIT1                                  #  HAVE AN ODD NO. OF COMPONENTS
000444: 27,3621           70300                           MASK     COMPNUMB                              #  BEEN SENT FOR A V72 UPDATE...
000445: 27,3622           10000                           CCS      A
000446: 27,3623           13625                           TCF      +2                                    #  YES
000447: 27,3624           13714                           TCF      UPERROUT                              #  ERROR- SHOULD BE ODD NO. OF COMPONENTS
000448: 27,3625           44711                           CS       BIT2
000449: 27,3626           60300                           AD       COMPNUMB
000450: 27,3627           54154        LDLOOP72           TS       MPAC                                  #  NOW PERFORM THE UPDATE
000451: 27,3630           50000                           INDEX    A
000452: 27,3631           30305                           CAE      UPBUFF     +1                         #  PICK UP NEXT UPDATE WORD
000453: 27,3632           22000                           LXCH     A
000454: 27,3633           10154                           CCS      MPAC                                  #  SET POINTER TO ECADR(MUST BE CCS)
000455: 27,3634           54154                           TS       MPAC
000456: 27,3635           50000                           INDEX    A
000457: 27,3636           30305                           CAE      UPBUFF     +1                         #  PICK UP NEXT ECADR OF REG TO BE UPDATED
000458: 27,3637           54003                           TS       EBANK                                 #  SET EBANK
000459: 27,3640           74373                           MASK     LOW8                                  #  ISOLATE RELATIVE ADDRESS
000460: 27,3641           50000                           INDEX    A
000461: 27,3642  E3,1400                                  EBANK=   1400
000462: 27,3642           23400                           LXCH     1400                                  #  UPDATE THE REGISTER BY CONTENTS OF L
000463: 27,3643  E3,1706                                  EBANK=   TEPHEM


000465: 27,3643           10154                           CCS      MPAC                                  #  ARE WE THORUGH THE V72 UPDATE...
000466: 27,3644           13627                           TCF      LDLOOP72                              #  NO
000467:
000468:
000469:                                                                                                  #           NORMAL FINISH OF P27
000470:
000471: 27,3645                        UPOUT              EQUALS
000472: 27,3645           02633                           TC       INTWAKEU                              #  RELEASE  GRAB  OF ORBITAL INTEGRATION
000473: 27,3646           30301                 +1        CAE      UPOLDMOD                              #  RESTORE PRIOR P27 MODE
000474: 27,3647           05246                           TC       NEWMODEX   +3
000475: 27,3650           34714                           CAF      ZERO
000476: 27,3651           54332                           TS       DNLSTCOD
000477: 27,3652           03721                           TC       UPACTOFF                              #  TURN OFF 'UPLINK ACTIVITY' LIGHT
000478:
000479: 27,3653           00006                           EXTEND                                         #  KILL GROUP 6.
000480: 27,3654           34714                           DCA      NEG0
000481: 27,3655           52765                           DXCH     -PHASE6
000482:
000483: 27,3656           05423                           TC       ENDEXT                                #  EXTENDED VERB EXIT
000484:
000485:
000486:                                                                                                  #           VERB 70 BRANCH
000487:
000488: 27,3657           00006        UPEND70            EXTEND                                         #  V70 DOES THE FOLLOWING WITH DP DELTA
000489: 27,3660           40305                           DCS      UPBUFF                                #  TIME IN UPBUFF
000490: 27,3661           52315                           DXCH     UPBUFF     +8D
000491: 27,3662           03523                           TC       TIMEDIDL                              #  DECREMENT AGC CLOCK
000492:
000493: 27,3663           03714                           TC       UPERROUT                              #  ERROR WHILE DECREMENTING CLOCK -- EXIT
000494:
000495: 27,3664  E3,1706                                  EBANK=   TEPHEM
000496: 27,3664           00006                           EXTEND
000497: 27,3665           40305                           DCS      UPBUFF                                #  COPY DECREMENTERS FOR
000498: 27,3666           52317                           DXCH     UPBUFF     +10D                       #  RESTART PROTECTION
000499: 27,3667           00006                           EXTEND
000500: 27,3670           40305                           DCS      UPBUFF
000501: 27,3671           52321                           DXCH     UPBUFF     +12D
000502:
000503: 27,3672           05301                           TC       PHASCHNG                              #  RESTART PROTECT(GROUP 6)
000504: 27,3673           04026                           OCT      04026
000505:
000506: 27,3674           34714                           CAF      ZERO
000507: 27,3675           22007                           ZL
000508: 27,3676           52317                           DXCH     UPBUFF     +10D                       #  DECREMENT CSM STATE VECTOR TIME
000509: 27,3677           21571                           DAS      TETCSM
000510:
000511: 27,3700           34714                           CAF      ZERO
000512: 27,3701           22007                           ZL
000513: 27,3702           52321                           DXCH     UPBUFF     +12D                       #  DECREMENT LEM STATE VECTOR TIME
000514: 27,3703           21643                           DAS      TETLEM


000516: 27,3704           34714                           CAF      ZERO
000517: 27,3705           22007                           ZL
000518: 27,3706           52305                           DXCH     UPBUFF
000519: 27,3707           21710                           DAS      TEPHEM     +1                         #  INCREMENT TP TEPHEM
000520: 27,3710           27706                           ADS      TEPHEM
000521:
000522: 27,3711           05301                           TC       PHASCHNG                              #  RESTART PROTECT(GROUP 6)
000523: 27,3712           04026                           OCT      04026
000524:
000525: 27,3713     0304                                  EBANK=   UPBUFF
000526:
000527: 27,3713           03645                           TC       UPOUT                                 #  GO TO STANDARD UPDATE PROGRAM EXIT
000528:
000529:
000530:                                                                                                  #           ERROR SEQUENCE
000531:
000532: 27,3714           04400        UPERROUT           TC       FALTON                                #  TURN ON *OPERATOR ERROR* LIGHT
000533: 27,3715           13645                           TCF      UPOUT                                 #  GO TO COMMON UPDATE PROGRAM EXIT
000534:
000535: 27,3716           04400                 +2        TC       FALTON                                #  TURN ON 'OPERATOR ERROR' LIGHT
000536: 27,3717           03721                           TC       UPACTOFF                              #  TURN OFF'UPLINK ACTIVITY'LIGHT
000537: 27,3720           05423                           TC       ENDEXT                                #  EXTENDED VERB EXIT
000538:                                                                                                  #                                          (THE PURPOSE OF UPERROUT +2 EXIT IS
000539:                                                                                                  #                                          TO PROVIDE AN ERROR EXIT WHICH DOES NOT
000540:                                                                                                  #                                          RESET ANY RESTART GROUPS)
000541:
000542:
000543:
000544:                                                                                                  #           :UPACTOFF: IS A ROUTINE TO TURN OFF UPLINK ACTIVITY LIGHT ON ALL EXITS FROM UPDATE PROGRAM(P27).
000545:
000546: 27,3721           44710        UPACTOFF           CS       BIT3
000547: 27,3722           00006                           EXTEND                                         #  TURN OFF UPLINK ACTIVITY LIGHT
000548: 27,3723           03011                           WAND     DSALMOUT                              #  (BIT 3 OF CHANNEL 11)
000549: 27,3724           00002                           TC       Q

End of include-file UPDATE_PROGRAM.agc.  Parent file is MAIN.agc


