
Source Code


000002:                                                                                                  ## Copyright:   Public domain.
000003:                                                                                                  ## Filename:    WAITLIST.agc
000004:                                                                                                  ## Purpose:     Part of the source code for Colossus build 237.
000005:                                                                                                  ##              This is for the Command Module's (CM) Apollo Guidance
000006:                                                                                                  ##              Computer (AGC), for Apollo 8.
000007:                                                                                                  ## Assembler:   yaYUL
000008:                                                                                                  ## Contact:     Onno Hommes <ohommes@alumni.cmu.edu>
000009:                                                                                                  ## Website:     www.ibiblio.org/apollo/index.html
000010:                                                                                                  ## Page Scans:  www.ibiblio.org/apollo/ScansForConversion/Colossus237/
000011:                                                                                                  ## Mod history: 2010-06-02 OH   Adapted from corresponding Colossus 249 file.
000012:                                                                                                  ##              2010-12-04 JL   Remove Colossus 249 header comments. Change to double-has page numbers.
000013:                                                                                                  ##              2011-02-12 JL   Minor fixes.
000014:                                                                                                  ##              2016-11-02 RSB  Typo (offset-reference -1 was not indented).
000015:                                                                                                  ##              2017-01-01 RSB  Proofed comment text using octopus/ProoferComments,
000016:                                                                                                  ##                              and fixed errors found.
000017:                                                                                                  ##              2017-01-20 RSB  Fixed comment-text errors noted while diff'ing
000018:                                                                                                  ##                              vs Colossus 249.
000019:                                                                                                  ##              2017-02-09 RSB  Comment-text fixes identified in proofing Artemis 72
000020:                                                                                                  ##              2017-03-16 RSB  Comment-text fixes identified in 5-way
000021:                                                                                                  ##                              side-by-side diff of Luminary 69/99/116/131/210.
000022:


000024:                                                                                                  #  PROGRAM DESCRIPTION                                                                     DATE - 10 OCTOBER 1966
000025:                                                                                                  #  MOD NO - 2                                                                              LOG SECTION - WAITLIST
000026:                                                                                                  #  MOD BY - MILLER   (DTMAX INCREASED TO 162.5 SEC)                                        ASSEMBLY SUNBURST REV 5
000027:                                                                                                  #  MOD 3 BY KERNAN  (INHINT INSERTED AT WAITLIST)  2/28/68 SKIPPER REV 4
000028:
000029:                                                                                                  #  MOD 4BY KERNAN (TWIDDLE IN 54)  3/28/68 SKIPPER REV 13.
000030:
000031:
000032:                                                                                                  #  FUNCTIONAL DESCRIPTION-
000033:                                                                                                  #          PART OF A SECTION OF PROGRAMS,-WAITLIST, TASKOVER, T3RUPT, USED  TO CALL A PROGRAM, (CALLED A TASK),
000034:                                                                                                  #     WHICH IS TO BEGIN IN C(A) CENTISECONDS.  WAITLIST UPDATES TIME3, LST1 AND LST2. THE MEANING OF THESE LISTS
000035:                                                                                                  #     FOLLOW.
000036:
000037:                                                                                                  #                  C(TIME3)  = 16384 -(T1-T) CENTISECONDS, (T=PRESENT TIME, T1-TIME FOR TASK1)
000038:
000039:
000040:                                                                                                  #                               C(LST1)    = -(T2-T1)+1
000041:                                                                                                  #                               C(LST1 +1) = -(T3-T2)+1
000042:                                                                                                  #                               C(LST1 +2) = -(T4-T3)+1
000043:                                                                                                  #                                          .
000044:                                                                                                  #                                          .
000045:                                                                                                  #                               C(LST1 +6) = -(T8-T7)+1
000046:                                                                                                  #                               C(LST1 +7) = -(T9-T8)+1
000047:
000048:                                                                                                  #                               C(LST2)    = 2CADR OF TASK1
000049:                                                                                                  #                               C(LST2 +2) = 2CADR OF TASK2
000050:                                                                                                  #                                          .
000051:                                                                                                  #                                          .
000052:                                                                                                  #                               C(LST2 +14)= 2CADR OF TASK8
000053:                                                                                                  #                               C(LST2 +16)= 2CADR OF TASK9
000054:
000055:                                                                                                  #  WARNINGS-
000056:                                                                                                  #  --------
000057:                                                                                                  #               1) 1 <= C(A) <= 16250D (1 CENTISECOND TO 162.5 SEC)
000058:                                                                                                  #               2) 9 TASKS MAXIMUM
000059:                                                                                                  #               3) TASKS CALLED UNDER INTERRUPT INHIBITED
000060:                                                                                                  #               4) TASKS END BY TC TASKOVER
000061:
000062:                                                                                                  #  CALLING SEQUENCE-
000063:
000064:                                                                                                  #               L-1    CA     DELTAT   (TIME IN CENTISECONDS TO TASK START)
000065:                                                                                                  #               L      TC     WAITLIST
000066:                                                                                                  #               L+1    2CADR  DESIRED TASK
000067:                                                                                                  #               L+2    (MINOR OF 2CADR)
000068:                                                                                                  #               L+3    RELINT          (RETURNS HERE)
000069:
000070:                                                                                                  #  TWIDDLE-
000071:                                                                                                  #  -------
000072:                                                                                                  #               TWIDDLE IS FOR USE WHEN THE TASK BEING SET UP IS IN THE SAME EBANK AND FBANK AS THE USER.   IN
000073:                                                                                                  #               SUCH CASES, IT IMPROVES UPON WAITLIST BY ELIMINATING THE NEED FOR THE BBCON HALF OF THE 2CADR,


000075:                                                                                                  #               SAVING A WORD.   TWIDDLE IS LIKE WAITLIST IN EVERY RESPECT EXCEPT CALLING SEQUENCE, TO WIT-
000076:
000077:                                                                                                  #               L-1    CA     DELTAT
000078:                                                                                                  #               L      TC     TWIDDLE
000079:                                                                                                  #               L+1    ADRES  DESIRED TASK
000080:                                                                                                  #               L+2    RELINT               (RETURNS HERE)
000081:
000082:                                                                                                  #  NORMAL EXIT MODES-
000083:
000084:                                                                                                  #               AT L+3 OF CALLING SEQUENCE
000085:
000086:                                                                                                  #  ALARM OR ABORT EXIT MODES-
000087:
000088:                                                                                                  #               TC     ABORT
000089:                                                                                                  #               OCT    1203   (WAITLIST OVERFLOW - TOO MANY TASKS)
000090:
000091:                                                                                                  #  ERASABLE INITIALIZATION REQUIRED-
000092:
000093:                                                                                                  #               ACCOMPLISHED BY FRESH START,--LST2,..., LST2 +16 =ENDTASK
000094:                                                                                                  #                                             LST1,..., LST1 +7  =NEG1/2
000095:
000096:                                                                                                  #  OUTPUT--
000097:
000098:                                                                                                  #               LST1 AND LST2 UPDATED WITH NEW TASK AND ASSOCIATED TIME.
000099:                                                                                                  #  DEBRIS-
000100:
000101:                                                                                                  #               CENTRALS- A,Q,L
000102:                                                                                                  #               OTHER   - WAITEXIT, WAITADR, WAITTEMP, WAITBANK
000103:                                                                                                  #  DETAILED ANALYSIS OF TIMING-
000104:                                                                                                  #          CONTROL WILL NOT BE RETURNED TO THE SPECIFIED ADDRESS (2CADR)   IN EXACTLY DELTA T CENTISECONDS.
000105:                                                                                                  #     THE APPROXIMATE TIME MAY BE CALCULATED AS FOLLOWS
000106:
000107:                                                                                                  #               LET TO = THE TIME OF THE TC WAITLIST
000108:                                                                                                  #               LET TS = TO +147U + COUNTER INCREMENTS (SET UP TIME)
000109:                                                                                                  #               LET X  = TS -(100TS)/100  (VARIANCE FROM COUNTERS)
000110:                                                                                                  #               LET Y  = LENGTH OF TIME OF INHIBIT INTERRUPT AFTER T3RUPT
000111:                                                                                                  #               LET Z  = LENGTH OF TIME TO PROCESS TASKS WHICH ARE DUE THIS T3RUPT BUT DISPATCHED EARLIER.
000112:                                                                                                  #     (Z=0, USUALLY)
000113:                                                                                                  #               LET DELTD = THE ACTUAL TIME TAKEN TO GIVE CONTROL TO 2CADR
000114:                                                                                                  #            THEN   DELTD = TS+DELTA T -X +Y +Z +1.05MS* +COUNTERS*
000115:                                                                                                  #     *-THE TIME TAKEN BY WAITLIST ITSELF AND THE COUNTER TICKING DURING THIS WAITLIST TIME.
000116:
000117:
000118:                                                                                                  #          IN SHORT, THE ACTUAL TIME TO RETURN CONTROL TO A 2CADR IS AUGMENTED BY THE TIME TO SET UP THE TASK:S
000119:                                                                                                  #     INTERRUPT, ALL COUNTERS TICKING, THE T3RUPT PROCESSING TIME, THE WAITLIST PROCESSING TIME AND THE POSSIBILITY
000120:                                                                                                  #     OF OTHER TASKS INHIBITING THE INTERRUPT.
000121:
000122:
000123:    5130                                           BLOCK    02


000125:    5130  E3,1400                                  EBANK=   LST1                                  #  TASK LISTS IN SWITCHED E BANK.
000126:
000127:    5130                                           COUNT    02/WAIT
000128:
000129:    5130           00004        TWIDDLE            INHINT
000130:    5131           54001                           TS       L                                     #  SAVE DELAY TIME IN L
000131:    5132           34672                           CA       POSMAX
000132:    5133           26002                           ADS      Q                                     #  CREATING OVERFLOW AND Q-1 IN Q
000133:    5134           30006                           CA       BBANK
000134:    5135           00006                           EXTEND
000135:    5136           04007                           ROR      SUPERBNK
000136:    5137           56001                           XCH      L
000137:
000138:    5140           00004        WAITLIST           INHINT
000139:    5141           56002                           XCH      Q                                     #  SAVE DELTA T IN Q AND RETURN IN
000140:    5142           54061                           TS       WAITEXIT                              #  WAITEXIT.
000141:    5143           00006                           EXTEND
000142:    5144           50061                           INDEX    WAITEXIT                              #  IF TWIDDLING, THE TS SKIPS TO HERE
000143:    5145           30001                           DCA      0                                     #  PICK UP 2CADR OF TASK.
000144:    5146           54063                 -1        TS       WAITADR                               #  BBCON WILL REMAIN IN L
000145:    5147           35155        DLY2               CAF      WAITBB                                #  ENTRY FROM FIXDELAY AND VARDELAY.
000146:    5150           56006                           XCH      BBANK
000147:    5151           13246                           TCF      WAIT2
000148:
000149:                                                                                                  #           RETURN TO CALLER AFTER TASK INSERTION:
000150:
000151:    5152           52062        LVWTLIST           DXCH     WAITEXIT
000152:    5153           64711                           AD       TWO
000153:    5154           52006                           DTCB
000154:
000155:    5155  E3,1400                                  EBANK=   LST1
000156:    5155           02063        WAITBB             BBCON    WAIT2
000157:
000158:                                                                                                  #           RETURN TO CALLER +2 AFTER WAITING DT SPECIFIED AT CALLER +1.
000159:
000160:    5156           50002        FIXDELAY           INDEX    Q                                     #  BOTH ROUTINES MUST BE CALLED UNDER
000161:    5157           30000                           CAF      0                                     #  WAITLIST CONTROL AND TERMINATE THE TASK
000162:    5160           24002                           INCR     Q                                     #  IN WHICH THEY WERE CALLED.
000163:
000164:                                                                                                  #           RETURN TO CALLER +1 AFTER WAITING THE DT AS ARRIVING IN A.
000165:
000166:    5161           56002        VARDELAY           XCH      Q                                     #  DT TO Q. TASK ADRES TO WAITADR.
000167:    5162           54063                           TS       WAITADR
000168:    5163           30006                           CA       BBANK                                 #  BBANK IS SAVED DURING DELAY.
000169:    5164           00006                           EXTEND
000170:    5165           04007                           ROR      SUPERBNK                              #  ADD SBANK TO BBCON.
000171:    5166           54001                           TS       L
000172:    5167           35172                           CAF      DELAYEX
000173:    5170           54061                           TS       WAITEXIT                              #  GO TO TASKOVER AFTER TASK ENTRY.
000174:    5171           15147                           TCF      DLY2
000175:


000177:    5172           15211        DELAYEX            TCF      TASKOVER   -2                         #  RETURNS TO TASKOVER
000178:


000180:                                                                                                  #  ENDTASK MUST BE ENTERED IN FIXED-FIXED SO IT IS DISTINGUISHABLE BY ITS ADRES ALONE.
000181:
000182:    5173  E3,1400                                  EBANK=   LST1
000183:    5173           72602 73714  ENDTASK            -2CADR   SVCT3
000184:
000185:    5175           10076        SVCT3              CCS      FLAGWRD2                              #  DRIFT FLAG
000186:    5176           15213                           TCF      TASKOVER
000187:    5177           15213                           TCF      TASKOVER
000188:    5200           15201                           TCF      +1
000189:
000190:    5201           11322                           CCS      IMUCADR                               #  DON'T DO NBDONLY IF SOMEONE ELSE IS IN
000191:    5202           15213                           TCF      TASKOVER                              #  IMUSTALL.
000192:    5203           15206                           TCF      +3
000193:    5204           15213                           TCF      TASKOVER
000194:    5205           15213                           TCF      TASKOVER
000195:
000196:    5206           37672                 +3        CAF      PRIO35                                #  COMPENSATE FOR NBD COEFFICIENTS ONLY.
000197:    5207           05027                           TC       NOVAC                                 #      ENABLE EVERY 81.93 SECONDS
000198:    5210  E3,1460                                  EBANK=   NBDX
000199:    5210           03542 14063                     2CADR    NBDONLY
000200:    5212           15213                           TCF      TASKOVER
000201:


000203:                                                                                                  #           BEGIN TASK INSERTION.
000204:
000205: 01,3246                                           BANK     01
000206: 01,3246                                           COUNT    01/WAIT
000207:
000208: 01,3246           54062        WAIT2              TS       WAITBANK                              #  BBANK OF CALLING PROGRAM.
000209: 01,3247           40026                           CS       TIME3
000210: 01,3250           64703                           AD       BIT8                                  #  BIT 8 = OCT 200
000211: 01,3251           10000                           CCS      A                                     #  TEST 200 - C(TIME3).  IF POSITIVE,
000212:                                                                                                  #                                          IT MEANS THAT TIME3 OVERFLOW HAS OCCURRED PRIOR TO CS  TIME3 AND THAT
000213:                                                                                                  #                                          C(TIME3) = T - T1, INSTEAD OF 1.0 - (T1 - T).  THE FOLLOWING FOUR
000214:                                                                                                  #                                          ORDERS SET C(A) = TD - T1 + 1 IN EITHER CASE.
000215:
000216: 01,3252           66056                           AD       OCT40001                              #  OVERFLOW HAS OCCURRED.  SET C(A) =
000217: 01,3253           40000                           CS       A                                     #  T - T1 + 1.0 - 201
000218:
000219:                                                                                                  #  NORMAL CASE (C(A) NNZ) YIELDS SAME C(A):  -( -(1.0-(T1-T)) + 200) - 1
000220:
000221: 01,3254           63402                           AD       OCT40201
000222: 01,3255           60002                           AD       Q                                     #  RESULT = TD - T1 + 1.
000223:
000224: 01,3256           10000                           CCS      A                                     #  TEST TD - T1 + 1
000225:
000226: 01,3257           61400                           AD       LST1                                  #  IF TD - T1 POS, GO TO WTLST5 WITH
000227: 01,3260           13322                           TCF      WTLST5                                #  C(A) = (TD - T1) + C(LST1) = TD-T2+1
000228:
000229: 01,3261           13262                           NOOP
000230: 01,3262           40002                           CS       Q
000231:
000232:                                                                                                  #  NOTE THAT THIS PROGRAM SECTION IS NEVER ENTERED WHEN T-T1 G/E -1,
000233:                                                                                                  #  SINCE TD-T1+1 = (TD-T) + (T-T1+1), AND DELTA T = TD-T G/E +1 .  (G/E
000234:                                                                                                  #  SYMBOL MEANS GREATER THAN OR EQUAL TO).  THUS THERE NEED BE NO CON-
000235:                                                                                                  #  CERN OVER A PREVIOUS OR IMMINENT OVERFLOW OF TIME3 HERE.
000236:
000237: 01,3263           64675                           AD       POS1/2                                #  WHEN TD IS NEXT, FORM QUANTITY
000238: 01,3264           64675                           AD       POS1/2                                #    1.0 - DELTA T = 1.0 - (TD - T)
000239: 01,3265           56026                           XCH      TIME3
000240: 01,3266           64674                           AD       NEGMAX
000241: 01,3267           60002                           AD       Q                                     #  1.0 - DELTAT T NOW COMPLETE.
000242: 01,3270           00006                           EXTEND                                         #  ZERO INDEX Q.
000243: 01,3271           22007                           QXCH     7                                     #  (ZQ)
000244:


000246: 01,3272           57400        WTLST4             XCH      LST1
000247: 01,3273           57401                           XCH      LST1       +1
000248: 01,3274           57402                           XCH      LST1       +2
000249: 01,3275           57403                           XCH      LST1       +3
000250: 01,3276           57404                           XCH      LST1       +4
000251: 01,3277           57405                           XCH      LST1       +5
000252: 01,3300           57406                           XCH      LST1       +6
000253: 01,3301           57407                           XCH      LST1       +7
000254:
000255: 01,3302           30063                           CA       WAITADR                               #  (MINOR PART OF TASK CADR HAS BEEN IN L.)
000256: 01,3303           50002                           INDEX    Q
000257: 01,3304           13305                           TCF      +1
000258:
000259: 01,3305           53411                           DXCH     LST2
000260: 01,3306           53413                           DXCH     LST2       +2
000261: 01,3307           53415                           DXCH     LST2       +4
000262: 01,3310           53417                           DXCH     LST2       +6
000263: 01,3311           53421                           DXCH     LST2       +8D
000264: 01,3312           53423                           DXCH     LST2       +10D                       #  AT END, CHECK THAT C(LST2 +10) IS STD
000265: 01,3313           53425                           DXCH     LST2       +12D
000266: 01,3314           53427                           DXCH     LST2       +14D
000267: 01,3315           53431                           DXCH     LST2       +16D
000268: 01,3316           65173                           AD       ENDTASK                               #    END ITEM, AS CHECK FOR EXCEEDING
000269:                                                                                                  #                                            THE LENGTH OF THE LIST.
000270: 01,3317           00006                           EXTEND                                         #  DUMMY TASK ADRES SHOULD BE IN FIXED-
000271: 01,3320           15152                           BZF      LVWTLIST                              #  FIXED SO ITS ADRES ALONE DISTINGUISHES
000272: 01,3321           13375                           TCF      WTABORT                               #  IT.
000273:


000275: 01,3322           10000        WTLST5             CCS      A                                     #  TEST TD - T2 + 1
000276: 01,3323           61401                           AD       LST1       +1
000277: 01,3324           13330                           TCF      +4
000278: 01,3325           64712                           AD       ONE
000279: 01,3326           03403                           TC       WTLST2
000280: 01,3327           00001                           OCT      1
000281:
000282: 01,3330           10000                 +4        CCS      A                                     #  TEST TD - T3 + 1
000283: 01,3331           61402                           AD       LST1       +2
000284: 01,3332           13336                           TCF      +4
000285: 01,3333           64712                           AD       ONE
000286: 01,3334           03403                           TC       WTLST2
000287: 01,3335           00002                           OCT      2
000288:
000289: 01,3336           10000                 +4        CCS      A                                     #  TEST TD - T4 + 1
000290: 01,3337           61403                           AD       LST1       +3
000291: 01,3340           13344                           TCF      +4
000292: 01,3341           64712                           AD       ONE
000293: 01,3342           03403                           TC       WTLST2
000294: 01,3343           00003                           OCT      3
000295:
000296: 01,3344           10000                 +4        CCS      A                                     #  TEST TD - T5 + 1
000297: 01,3345           61404                           AD       LST1       +4
000298: 01,3346           13352                           TCF      +4
000299: 01,3347           64712                           AD       ONE
000300: 01,3350           03403                           TC       WTLST2
000301: 01,3351           00004                           OCT      4
000302:
000303: 01,3352           10000                 +4        CCS      A                                     #  TEST TD - T6 + 1
000304: 01,3353           61405                           AD       LST1       +5
000305: 01,3354           13360                           TCF      +4
000306: 01,3355           64712                           AD       ONE
000307: 01,3356           03403                           TC       WTLST2
000308: 01,3357           00005                           OCT      5
000309:
000310: 01,3360           10000                 +4        CCS      A                                     #  TEST TD - T7 + 1
000311: 01,3361           61406                           AD       LST1       +6
000312: 01,3362           13366                           TCF      +4
000313: 01,3363           64712                           AD       ONE
000314: 01,3364           03403                           TC       WTLST2
000315: 01,3365           00006                           OCT      6
000316:


000318: 01,3366           10000                 +4        CCS      A
000319: 01,3367           61407                           AD       LST1       +7
000320: 01,3370           13374                           TCF      +4
000321: 01,3371           64712                           AD       ONE
000322: 01,3372           03403                           TC       WTLST2
000323: 01,3373           00007                           OCT      7
000324:
000325: 01,3374           10000                 +4        CCS      A
000326: 01,3375           05604        WTABORT            TC       BAILOUT                               #  NO ROOM IN THE INN.
000327: 01,3376           01203                           OCT      1203
000328:
000329: 01,3377           64712                           AD       ONE
000330: 01,3400           03403                           TC       WTLST2
000331: 01,3401           00010                           OCT      10
000332:
000333: 01,3402           40201        OCT40201           OCT      40201
000334:


000336:                                                                                                  #  THE ENTRY TO WTLST2 JUST PRECEDING OCT  N  IS FOR T  LE TD LE T   -1.
000337:                                                                                                  #                                                     N           N+1
000338:
000339:                                                                                                  #  (LE MEANS LESS THAN OR EQUAL TO).  AT ENTRY, C(A) = -(TD - T   + 1)
000340:                                                                                                  #                                                              N+1
000341:
000342:                                                                                                  #  THE LST1 ENTRY -(T   - T +1) IS TO BE REPLACED BY -(TD - T  + 1), AND
000343:                                                                                                  #                    N+1   N                                 N
000344:
000345:                                                                                                  #  THE ENTRY -(T   - TD + 1) IS TO BE INSERTED IMMEDIATELY FOLLOWING.
000346:                                                                                                  #               N+1
000347:
000348: 01,3403           54064        WTLST2             TS       WAITTEMP                              #      C(A) = -(TD - T   + 1)
000349: 01,3404           50002                           INDEX    Q
000350: 01,3405           30000                           CAF      0
000351: 01,3406           54002                           TS       Q                                     #  INDEX VALUE INTO Q.
000352:
000353: 01,3407           34712                           CAF      ONE
000354: 01,3410           60064                           AD       WAITTEMP
000355: 01,3411           50002                           INDEX    Q                                     #  C(A) = -(TD - T ) + 1.
000356: 01,3412           27377                           ADS      LST1       -1                         #                 N
000357:
000358: 01,3413           40064                           CS       WAITTEMP
000359: 01,3414           50002                           INDEX    Q
000360: 01,3415           13272                           TCF      WTLST4
000361:
000362:                                                                                                  #  C(TIME3) = 1.0 - (T1 - T)
000363:
000364:                                                                                                  #  C(LST1  ) = - (T2 - T1) + 1
000365:                                                                                                  #  C(LST1+1) = - (T3 - T2) + 1
000366:                                                                                                  #  C(LST1+2) = - (T4 - T3) + 1
000367:                                                                                                  #  C(LST1+3) = - (T5 - T4) + 1
000368:                                                                                                  #  C(LST1+4) = - (T6 - T5) + 1
000369:
000370:                                                                                                  #  C(LST2   ) = 2CADR  TASK1
000371:                                                                                                  #  C(LST2+2 ) = 2CADR  TASK2
000372:                                                                                                  #  C(LST2+4 ) = 2CADR  TASK3
000373:                                                                                                  #  C(LST2+6 ) = 2CADR  TASK4
000374:                                                                                                  #  C(LST2+8 ) = 2CADR  TASK5
000375:                                                                                                  #  C(LST2+10) = 2CADR  TASK6
000376:


000378:                                                                                                  #           ENTERS HERE ON T3 RUPT TO DISPATCH WAITLISTED TASK.
000379:
000380: 01,3416           00006        T3RUPT             EXTEND
000381: 01,3417           04007                           ROR      SUPERBNK                              #  READ CURRENT SUPERBANK VALUE AND
000382: 01,3420           54016                           TS       BANKRUPT                              #  SAVE WITH E AND F BANK VALUES.
000383: 01,3421           00006                           EXTEND
000384: 01,3422           22012                           QXCH     QRUPT
000385:
000386: 01,3423           34673        T3RUPT2            CAF      NEG1/2                                #  DISPATCH WAITLIST TASK.
000387: 01,3424           57407                           XCH      LST1       +7
000388: 01,3425           57406                           XCH      LST1       +6
000389: 01,3426           57405                           XCH      LST1       +5
000390: 01,3427           57404                           XCH      LST1       +4                         #  1.  MOVE UP LST1 CONTENTS, ENTERING
000391: 01,3430           57403                           XCH      LST1       +3                         #      A VALUE OF 1/2 +1 AT THE BOTTOM
000392: 01,3431           57402                           XCH      LST1       +2                         #      FOR T6-T5, CORRESPONDING TO THE
000393: 01,3432           57401                           XCH      LST1       +1                         #      INTERVAL 81.91 SEC FOR ENDTASK.
000394: 01,3433           57400                           XCH      LST1
000395: 01,3434           64672                           AD       POSMAX                                #  2. SET T3 = 1.0 - T2 - T USING LIST 1.
000396: 01,3435           26026                           ADS      TIME3                                 #     SO T3 WONT TICK DURING UPDATE.
000397: 01,3436           54734                           TS       RUPTAGN
000398: 01,3437           44714                           CS       ZERO
000399: 01,3440           54734                           TS       RUPTAGN                               #  SETS RUPTAGN TO +1 ON OVERFLOW.
000400:
000401: 01,3441           00006                           EXTEND                                         #  DISPATCH TASK.
000402: 01,3442           45174                           DCS      ENDTASK
000403: 01,3443           53431                           DXCH     LST2       +16D
000404: 01,3444           53427                           DXCH     LST2       +14D
000405: 01,3445           53425                           DXCH     LST2       +12D
000406: 01,3446           53423                           DXCH     LST2       +10D
000407: 01,3447           53421                           DXCH     LST2       +8D
000408: 01,3450           53417                           DXCH     LST2       +6
000409: 01,3451           53415                           DXCH     LST2       +4
000410: 01,3452           53413                           DXCH     LST2       +2
000411: 01,3453           53411                           DXCH     LST2
000412:
000413: 01,3454           56001                           XCH      L
000414: 01,3455           00006                           EXTEND
000415: 01,3456           01007                           WRITE    SUPERBNK                              #  SET SUPERBANK FROM BBCON OF 2CADR
000416: 01,3457           56001                           XCH      L                                     #  RESTORE TO L FOR DXCH Z.
000417: 01,3460           52006                           DTCB
000418:


000420:                                                                                                  #           RETURN, AFTER EXECUTION OF T3 OVERFLOW TASK:
000421:
000422:    5213                                           BLOCK    02
000423:    5213                                           COUNT    02/WAIT
000424:
000425:    5213           10734        TASKOVER           CCS      RUPTAGN                               #  IF +1 RETURN TO T3RUPT, IF -0 RESUME.
000426:    5214           35155                           CAF      WAITBB
000427:    5215           54006                           TS       BBANK
000428:    5216           13423                           TCF      T3RUPT2                               #  DISPATCH NEXT TASK IF IT WAS DUE.
000429:
000430:    5217           30016                           CA       BANKRUPT
000431:    5220           00006                           EXTEND
000432:    5221           01007                           WRITE    SUPERBNK                              #  RESTORE SUPERBANK BEFORE RESUME IS DONE
000433:
000434:    5222           00006        RESUME             EXTEND
000435:    5223           22012                           QXCH     QRUPT
000436:    5224           30016        NOQRSM             CA       BANKRUPT
000437:    5225           56006                           XCH      BBANK
000438:    5226           52011        NOQBRSM            DXCH     ARUPT
000439:    5227           00003                           RELINT
000440:    5230           50017                           RESUME
000441:


000443:                                                                                                  #  LONGCALL
000444:
000445:                                                                                                  #  PROGRAM DESCRIPTION                                  DATE- 17 MARCH 1967
000446:                                                                                                  #  PROGRAM WRITTEN BY W.H. VANDEVER                    LOG SECTION WAITLIST
000447:                                                                                                  #  MOD BY- R. MELANSON TO ADD DOCUMENTATION       ASSEMBLY SUNDISK REV. 100
000448:
000449:                                                                                                  #  FUNCTIONAL DESCRIPTION-
000450:                                                                                                  #  LONGCALL IS CALLED WITH THE DELTA TIME ARRIVING IN A,L SCALED AS TIME2,TIME1 WITH THE 2CADR OF THE TASK
000451:                                                                                                  #  IMMEDIATELY FOLLOWING THE TC LONGCALL.  FOR EXAMPLE, IT MIGHT BE DONE AS FOLLOWS WHERE TIMELOC IS THE NAME OF
000452:                                                                                                  #  A DP REGISTER CONTAINING A DELTA TIME AND WHERE TASKTODO IS THE NAME OF THE LOCATION AT WHICH LONGCALL IS TO
000453:                                                                                                  #  START
000454:
000455:                                                                                                  #  CALLING SEQUENCE-
000456:                                                                                                  #                                                   EXTEND
000457:                                                                                                  #                                                   DCA    TIMELOC
000458:                                                                                                  #                                                   TC     LONGCALL
000459:                                                                                                  #                                                   2CADR  TASKTODO
000460:
000461:                                                                                                  #  NORMAL EXIT MODE-
000462:                                                                                                  #     1). TC    WAITLIST
000463:                                                                                                  #     2). DTCB  (TO L+3 OF CALLING ROUTINE 1ST PASS THRU LONGCYCL)
000464:                                                                                                  #     3). DTCB  (TO TASKOVER ON SUBSEQUENT PASSES THRU LONGCYCL)
000465:
000466:                                                                                                  #  ALARM OR ABORT EXIT MODE-
000467:                                                                                                  #     NONE
000468:
000469:                                                                                                  #  OUTPUT-
000470:                                                                                                  #     LONGTIME AND LONGTIME+1 = DELTA TIME
000471:                                                                                                  #     LONGEXIT AND LONGEXIT+1 = RETURN 2CADR
000472:                                                                                                  #     LONGCADR AND LONGCADR+1 = TASK 2CADR
000473:                                                                                                  #     A = SINGLE PRECISION TIME FOR WAITLIST
000474:
000475:                                                                                                  #  ERASABLE INITIALIZATION-
000476:                                                                                                  #     A = MOST SIGNIFICANT PART OF DELTA TIME
000477:                                                                                                  #     L = LEAST SIGNIFICANT PART OF DELTA TIME
000478:                                                                                                  #     Q = ADDRESS OF 2CADR TASK VALUE
000479:
000480:                                                                                                  #  DEBRIS-
000481:                                                                                                  #     A,Q,L
000482:                                                                                                  #     LONGCADR AND LONGCADR+1
000483:                                                                                                  #     LONGEXIT AND LONGEXIT+1
000484:                                                                                                  #     LONGTIME AND LONGTIME+1
000485:
000486:                                                                                                  #  *** THE FOLLOWING IS TO BE IN FIXED-FIXED AND UNSWITCHED ERRASIBLE ***
000487:
000488:    5231                                           BLOCK    02
000489:    5231  E3,1400                                  EBANK=   LST1
000490:    5231           53140        LONGCALL           DXCH     LONGTIME                              #  OBTAIN THE DELTA TIME
000491:
000492:    5232           00006                           EXTEND                                         #  OBTAIN THE 2CADR


000494:    5233           50002                           NDX      Q
000495:    5234           30001                           DCA      0
000496:    5235           53134                           DXCH     LONGCADR
000497:
000498:    5236           00006                           EXTEND                                         #  NOW GO TO THE APPROPRIATE SWITCHED BANK
000499:    5237           35242                           DCA      LGCL2CDR                              #  FOR THE REST OF LONGCALL
000500:    5240           52006                           DTCB
000501:
000502:    5241  E3,1400                                  EBANK=   LST1
000503:    5241           03461 02063  LGCL2CDR           2CADR    LNGCALL2
000504:
000505:                                                                                                  #  *** THE FOLLOWING MAY BE IN A SWITCHED BANK, INCLUDING ITS ERASABLE ***
000506:
000507: 01,3461                                           BANK     01
000508: 01,3461                                           COUNT    01/WAIT
000509:
000510: 01,3461           23435        LNGCALL2           LXCH     LONGEXIT   +1                         #  SAVE THE CORRECT BB FOR RETURN
000511: 01,3462           34711                           CA       TWO                                   #  OBTAIN THE RETURN ADDRESS
000512: 01,3463           26002                           ADS      Q
000513: 01,3464           55434                           TS       LONGEXIT
000514:
000515:                                                                                                  #           *** WAITLIST TASK LONGCYCL ***
000516: 01,3465           00006        LONGCYCL           EXTEND                                         #  CAN WE SUCCESFULLY TAKE ABOUT 1.25
000517: 01,3466           43477                           DCS      DPBIT14                               #  MINUTES OFF OF LONGTIME
000518: 01,3467           21140                           DAS      LONGTIME
000519:
000520: 01,3470           11140                           CCS      LONGTIME   +1                         #  THE REASONIBG BEHIND THIS PART IS
000521: 01,3471           13510                           TCF      MUCHTIME                              #  INVOLVED, TAKING INTO ACCOUNT THAT THE
000522:                                                                                                  #                                          WORDS MAY NOT BE SIGNED CORRECTED (DP
000523:                                                                                                  #                                          BASIC INSTRUCTIONS
000524:                                                                                                  #                                          DO NOT SIGN CORRECT) AND THAT WE SUBTRAC
000525:                                                                                                  #                                          TED BIT14 (1 OVER HALF THE POS. VALUE
000526:                                                                                                  #                                          REPRESENTIBLE IN SINGLE WORD)
000527: 01,3472           13473                           NOOP                                           #  CAN:T GET HERE    **********
000528: 01,3473           13474                           TCF      +1
000529: 01,3474           11137                           CCS      LONGTIME
000530: 01,3475           13510                           TCF      MUCHTIME
000531: 01,3476           00000        DPBIT14            OCT      00000
000532: 01,3477           20000                           OCT      20000
000533:
000534:                                                                                                  #                                          LONGCALL
000535: 01,3500           34675        LASTTIME           CA       BIT14                                 #  GET BACK THE CORRECT DELTA TFOR WAITLIST
000536: 01,3501           27140                           ADS      LONGTIME   +1
000537: 01,3502           05140                           TC       WAITLIST
000538: 01,3503  E3,1400                                  EBANK=   LST1
000539: 01,3503           03515 02063                     2CADR    GETCADR                               #  THE ENTRY TO OUR LONGCADR
000540:
000541: 01,3505           33517        LONGRTRN           CA       TSKOVCDR                              #  SET IT UP SO THAT ONLY THE FIRST EXIT IS


000543: 01,3506           53435                           DXCH     LONGEXIT                              #  TO THE CALLER OF LONGCALL
000544: 01,3507           52006                           DTCB                                           #  THE REST ARE TO TASKOVER
000545:
000546: 01,3510           34675        MUCHTIME           CA       BIT14                                 #  WE HAVE OVER OUR ABOUT 1.25 MINUTES
000547: 01,3511           05140                           TC       WAITLIST                              #  SO SET UP FOR ANOTHER CYCLE THROUGH HERE
000548: 01,3512  E3,1400                                  EBANK=   LST1
000549: 01,3512           03465 02063                     2CADR    LONGCYCL
000550:
000551: 01,3514           13505                           TCF      LONGRTRN                              #  NOW EXIT PROPERLY
000552:
000553:                                                                                                  #           *** WAITLIST TASK GETCADR ***
000554: 01,3515           53134        GETCADR            DXCH     LONGCADR                              #  GET THE LONGCALL THAT WE WISHED TO START
000555: 01,3516           52006                           DTCB                                           #  AND TRANSFER CONTROL TO IT
000556:
000557: 01,3517           05213        TSKOVCDR           GENADR   TASKOVER

End of include-file WAITLIST.agc.  Parent file is MAIN.agc


