
Source Code


000002:                                                                                                  ## Copyright:   Public domain.
000003:                                                                                                  ## Filename:    WAITLIST.agc
000004:                                                                                                  ## Purpose:     Part of the source code for Colossus build 237.
000005:                                                                                                  ##              This is for the Command Module's (CM) Apollo Guidance
000006:                                                                                                  ##              Computer (AGC), we believe for Apollo 8.
000007:                                                                                                  ## Assembler:   yaYUL
000008:                                                                                                  ## Contact:     Onno Hommes <ohommes@alumni.cmu.edu>
000009:                                                                                                  ## Website:     www.ibiblio.org/apollo/index.html
000010:                                                                                                  ## Page Scans:  www.ibiblio.org/apollo/ScansForConversion/Colossus237/
000011:                                                                                                  ## Mod history: 2010-06-02 OH   Adapted from corresponding Colossus 249 file.
000012:                                                                                                  ##              2010-12-04 JL   Remove Colossus 249 header comments. Change to double-has page numbers.
000013:                                                                                                  ##              2011-02-12 JL   Minor fixes.
000014:                                                                                                  ##              2016-11-02 RSB  Typo (offset-reference -1 was not indented).
000015:


000017:                                                                                                  #  PROGRAM DESCRIPTION                                                                     DATE - 10 OCTOBER 1966
000018:                                                                                                  #  MOD NO - 2                                                                              LOG SECTION - WAITLIST
000019:                                                                                                  #  MOD BY - MILLER   (DTMAX INCREASED TO 162.5 SEC)                                        ASSEMBLY SUNBURST REV 5
000020:                                                                                                  #  MOD 3 BY KERNAN  (INHINT INSERTED AT WAITLIST)  2/28/68 SKIPPER REV 4
000021:
000022:                                                                                                  #  MOD 4BY KERNAN (TWIDDLE IN 54)  3/28/68 SKIPPER REV 13.
000023:
000024:
000025:                                                                                                  #  FUNCTIONAL DESCRIPTION-
000026:                                                                                                  #          PART OF A SECTION OF PROGRAMS,-WAITLIST, TASKOVER, T3RUPT, USED  TO CALL A PROGRAM, (CALLED A TASK),
000027:                                                                                                  #     WHICH IS TO BEGIN IN C(A) CENTISECONDS.  WAITLIST UPDATES TIME3, LST1, AND LST2. THE MEANING OF THESE LISTS
000028:                                                                                                  #     FOLLOW.
000029:
000030:                                                                                                  #                  C(TIME3)  = 16384 -(T1-T) CENTISECONDS, (T=PRESENT TIME, T1-TIME FOR TASK1)
000031:
000032:
000033:                                                                                                  #                               C(LST1)    = -(T2-T1)+1
000034:                                                                                                  #                               C(LST1 +1) = -(T3-T2)+1
000035:                                                                                                  #                               C(LST1 +2) = -(T4-T3)+1
000036:                                                                                                  #                                          .
000037:                                                                                                  #                                          .
000038:                                                                                                  #                               C(LST1 +6) = -(T8-T7)+1
000039:                                                                                                  #                               C(LST1 +7) = -(T9-T8)+1
000040:
000041:                                                                                                  #                               C(LST2)    = 2CADR OF TASK1
000042:                                                                                                  #                               C(LST2 +2) = 2CADR OF TASK2
000043:                                                                                                  #                                          .
000044:                                                                                                  #                                          .
000045:                                                                                                  #                               C(LST2 +14)= 2CADR OF TASK8
000046:                                                                                                  #                               C(LST2 +16)= 2CADR OF TASK9
000047:
000048:                                                                                                  #  WARNINGS-
000049:                                                                                                  #  --------
000050:                                                                                                  #               1) 1 <= C(A) <= 16250D (1 CENTISCOND TO 162.5 SEC)
000051:                                                                                                  #               2) 9 TASKS MAXIMUM
000052:                                                                                                  #               3) TASKS CALLED UNDER INTERRUPT INHIBITED
000053:                                                                                                  #               4) TASKS END BY TC TASKOVER
000054:
000055:                                                                                                  #  CALLING SEQUENCE-
000056:
000057:                                                                                                  #               L-1    CA     DELTAT   (TIME IN CENTISECONDS TO TASK START)
000058:                                                                                                  #               L      TC     WAITLIST
000059:                                                                                                  #               L+1    2CADR  DESIRED TASK
000060:                                                                                                  #               L+2    (MINOR OF 2CADR)
000061:                                                                                                  #               L+3    RELINT          (RETURNS HERE)
000062:
000063:                                                                                                  #  TWIDDLE-
000064:                                                                                                  #  -------
000065:                                                                                                  #               TWIDDLE IS FOR USE WHEN THE TASK BEING SET UP IS IN THE SAME EBANK AND FBANK AS THE USER.   IN
000066:                                                                                                  #               SUCH CASES, IT IMPROVES UPON WAITLIST BY ELIMINATING THE NEED FOR THE BBCON HALF OF THE 2CADR,


000068:                                                                                                  #               SAVING A WORD.   TWIDDLE IS LIKE WAITLIST IN EVERY RESPECT EXCEPT CALLING SEQUENCE, TO WIT-
000069:
000070:                                                                                                  #               L-1    CA     DELTAT
000071:                                                                                                  #               L      TC     TWIDDLE
000072:                                                                                                  #               L+1    ADRES  DESIRED TASK
000073:                                                                                                  #               L+2    RELINT               (RETURNS HERE)
000074:
000075:                                                                                                  #  NORMAL EXIT MODES-
000076:
000077:                                                                                                  #               AT L+3 OF CALLING SEQUENCE.
000078:
000079:                                                                                                  #  ALARM OR ABORT EXIT MODES-
000080:
000081:                                                                                                  #               TC     ABORT
000082:                                                                                                  #               OCT    1203   (WAITLIST OVERFLOW - TOO MANY TASKS)
000083:
000084:                                                                                                  #  ERASABLE INITIALIZATION REQUIRED-
000085:
000086:                                                                                                  #               ACCOMPLISHED BY FRESH START,--LST2,..., LST2 +16 =ENDTASK
000087:                                                                                                  #                                             LST1,..., LST1 +7  =NEG1/2
000088:
000089:                                                                                                  #  OUTPUT--
000090:
000091:                                                                                                  #               LST1 AND LST2 UPDATED WTIH NEW TASK AND ASSOCIATED TIME.
000092:                                                                                                  #  DEBRIS-
000093:
000094:                                                                                                  #               CENTRALS- A,Q,L
000095:                                                                                                  #               OTHER   - WAITEXIT, WAITADR, WAITTEMP, WAITBANK
000096:                                                                                                  #  DETAILED ANALYSIS OF TIMING-
000097:                                                                                                  #          CONTROL WILL NOT BE RETURNED TO THE SPECIFIED ADDRESS (2CADR)   IN EXACTLY DELTA T CENTISECONDS.
000098:                                                                                                  #     THE APPROXIMATE TIME MAY BE CALCULATED AS FOLLOWS:
000099:
000100:                                                                                                  #               LET T0 = THE TIME OF THE TC WAITLIST
000101:                                                                                                  #               LET TS = T0 +147U + COUNTER INCREMENTS (SET UP TIME)
000102:                                                                                                  #               LET X  = TS -(100TS)/100  (VARIANCE FROM COUNTERS)
000103:                                                                                                  #               LET Y  = LENGTH OF TIME OF INHIBIT INTERRUPT AFTER T3RUPT
000104:                                                                                                  #               LET Z  = LENGTH OF TIME TO PROCESS TASKS WHICH ARE DUE THIS T3RUPT BUT DISPATCHED EARLIER.
000105:                                                                                                  #     (Z=0, USUALLY).
000106:                                                                                                  #               LET DELTD = THE ACTUAL TIME TAKEN TO GIVE CONTROL TO 2CADR
000107:                                                                                                  #            THEN   DELTD = TS+DELTA T -X +Y +Z +1.05MS* +COUNTERS*
000108:                                                                                                  #     *-THE TIME TAKEN BY WAITLIST ITSELF AND THE COUNTER TICKING DURING THIS WAITLIST TIME.
000109:
000110:
000111:                                                                                                  #          IN SHORT, THE ACTUAL TIME TO RETURN CONTROL TO A 2CADR IS AUGMENTED BY THE TIME TO SET UP THE TASK:S
000112:                                                                                                  #     INTERRUPT, ALL COUNTERS TICKING, THE T3RUPT PROCESSING TIME, THE WAITLIST PROCESSING TIME AND THE POSSIBILITY
000113:                                                                                                  #     OF OTHER TASKS INHIBITING THE INTERRUPT.
000114:
000115:
000116:    5130                                           BLOCK    02


000118:    5130  E3,1400                                  EBANK=   LST1                                  #  TASK LISTS IN SWITCHED E BANK.
000119:
000120:    5130                                           COUNT    02/WAIT
000121:
000122:    5130           00004        TWIDDLE            INHINT
000123:    5131           54001                           TS       L                                     #  SAVE DELAY TIME IN L
000124:    5132           34672                           CA       POSMAX
000125:    5133           26002                           ADS      Q                                     #  CREATING OVERFLOW AND Q-1 IN Q
000126:    5134           30006                           CA       BBANK
000127:    5135           00006                           EXTEND
000128:    5136           04007                           ROR      SUPERBNK
000129:    5137           56001                           XCH      L
000130:
000131:    5140           00004        WAITLIST           INHINT
000132:    5141           56002                           XCH      Q                                     #  SAVE DELTA T IN Q AND RETURN IN
000133:    5142           54061                           TS       WAITEXIT                              #  WAITEXIT.
000134:    5143           00006                           EXTEND
000135:    5144           50061                           INDEX    WAITEXIT                              #  IF TWIDDLING, THE TS SKIPS TO HERE
000136:    5145           30001                           DCA      0                                     #  PICK UP 2CADR OF TASK.
000137:    5146           54063                 -1        TS       WAITADR                               #  BBCON WILL REMAIN IN L
000138:    5147           35155        DLY2               CAF      WAITBB                                #  ENTRY FROM FIXDELAY AND VARDELAY.
000139:    5150           56006                           XCH      BBANK
000140:    5151           13246                           TCF      WAIT2
000141:
000142:                                                                                                  #           RETURN TO CALLER AFTER TASK INSERTION:
000143:
000144:    5152           52062        LVWTLIST           DXCH     WAITEXIT
000145:    5153           64711                           AD       TWO
000146:    5154           52006                           DTCB
000147:
000148:    5155  E3,1400                                  EBANK=   LST1
000149:    5155           02063        WAITBB             BBCON    WAIT2
000150:
000151:                                                                                                  #           RETURN TO CALLER +2 AFTER WAITING DT SPECIFIED AT CALLER +1.
000152:
000153:    5156           50002        FIXDELAY           INDEX    Q                                     #  BOTH ROUTINES MUST BE CALLED UNDER
000154:    5157           30000                           CAF      0                                     #  WAITLIST CONTROL AND TERMINATE THE TASK
000155:    5160           24002                           INCR     Q                                     #  IN WHICH THEY WERE CALLED.
000156:
000157:                                                                                                  #           RETURN TO CALLER +1 AFTER WAITING THE DT AS ARRIVING IN A.
000158:
000159:    5161           56002        VARDELAY           XCH      Q                                     #  DT TO Q. TASK ADRES TO WAITADR.
000160:    5162           54063                           TS       WAITADR
000161:    5163           30006                           CA       BBANK                                 #  BBANK IS SAVED DURING DELAY.
000162:    5164           00006                           EXTEND
000163:    5165           04007                           ROR      SUPERBNK                              #  ADD SBANK TO BBCON.
000164:    5166           54001                           TS       L
000165:    5167           35172                           CAF      DELAYEX
000166:    5170           54061                           TS       WAITEXIT                              #  GO TO TASKOVER AFTER TASK ENTRY.
000167:    5171           15147                           TCF      DLY2
000168:


000170:    5172           15211        DELAYEX            TCF      TASKOVER   -2                         #  RETURNS TO TASKOVER
000171:


000173:                                                                                                  #  ENDTASK MUST BE ENTERED IN FIXED-FIXED SO IT IS DISTINGUISHABLE BY ITS ADRES ALONE.
000174:
000175:    5173  E3,1400                                  EBANK=   LST1
000176:    5173           72602 73714  ENDTASK            -2CADR   SVCT3
000177:
000178:    5175           10076        SVCT3              CCS      FLAGWRD2                              #  DRIFT FLAG
000179:    5176           15213                           TCF      TASKOVER
000180:    5177           15213                           TCF      TASKOVER
000181:    5200           15201                           TCF      +1
000182:
000183:    5201           11322                           CCS      IMUCADR                               #  DON'T DO NBDONLY IF SOMEONE ELSE IS IN
000184:    5202           15213                           TCF      TASKOVER                              #  IMUSTALL.
000185:    5203           15206                           TCF      +3
000186:    5204           15213                           TCF      TASKOVER
000187:    5205           15213                           TCF      TASKOVER
000188:
000189:    5206           37672                 +3        CAF      PRIO35                                #  COMPENSATE FOR NBD COEFFICIENTS ONLY.
000190:    5207           05027                           TC       NOVAC                                 #      ENABLE EVERY 81.93 SECONDS
000191:    5210  E3,1460                                  EBANK=   NBDX
000192:    5210           03542 14063                     2CADR    NBDONLY
000193:    5212           15213                           TCF      TASKOVER
000194:


000196:                                                                                                  #           BEGIN TASK INSERTION.
000197:
000198: 01,3246                                           BANK     01
000199: 01,3246                                           COUNT    01/WAIT
000200:
000201: 01,3246           54062        WAIT2              TS       WAITBANK                              #  BBANK OF CALLING PROGRAM.
000202: 01,3247           40026                           CS       TIME3
000203: 01,3250           64703                           AD       BIT8                                  #  BIT 8 = OCT 200
000204: 01,3251           10000                           CCS      A                                     #  TEST 200 - C(TIME3).  IF POSITIVE,
000205:                                                                                                  #                                          IT MEANS THAT TIME3 OVERFLOW HAS OCCURRED PRIOR TO CS  TIME3 AND THAT
000206:                                                                                                  #                                          C(TIME3) = T - T1, INSTEAD OF 1.0 - (T1 - T).  THE FOLLOWING FOUR
000207:                                                                                                  #                                          ORDERS SET C(A) = TD - T1 + 1 IN EITHER CASE.
000208:
000209: 01,3252           66056                           AD       OCT40001                              #  OVERFLOW HAS OCCURRED.  SET C(A) =
000210: 01,3253           40000                           CS       A                                     #  T - T1 + 1.0 - 201
000211:
000212:                                                                                                  #  NORMAL CASE (C(A) NNZ) YIELDS SAME C(A):  -( -(1.0-(T1-T)) + 200) - 1
000213:
000214: 01,3254           63402                           AD       OCT40201
000215: 01,3255           60002                           AD       Q                                     #  RESULT = TD - T1 + 1.
000216:
000217: 01,3256           10000                           CCS      A                                     #  TEST TD - T1 + 1
000218:
000219: 01,3257           61400                           AD       LST1                                  #  IF TD - T1 POS, GO TO WTLST5 WITH
000220: 01,3260           13322                           TCF      WTLST5                                #  C(A) = (TD - T1) + C(LST1) = TD-T2+1
000221:
000222: 01,3261           13262                           NOOP
000223: 01,3262           40002                           CS       Q
000224:
000225:                                                                                                  #  NOTE THAT THIS PROGRAM SECTION IS NEVER ENTERED WHEN T-T1 G/E -1,
000226:                                                                                                  #  SINCE TD-T1+1 = (TD-T) + (T-T1+1), AND DELTA T = TD-T G/E +1 .  (G/E
000227:                                                                                                  #  SYMBOL MEANS GREATER THAN OR EQUAL TO).  THUS THERE NEED BE NO CON-
000228:                                                                                                  #  CERN OVER A PREVIOUS OR IMMINENT OVEFLOW OF TIME3 HERE.
000229:
000230: 01,3263           64675                           AD       POS1/2                                #  WHEN TD IS NEXT, FORM QUANTITY
000231: 01,3264           64675                           AD       POS1/2                                #    1.0 - DELTA T = 1.0 - (TD - T)
000232: 01,3265           56026                           XCH      TIME3
000233: 01,3266           64674                           AD       NEGMAX
000234: 01,3267           60002                           AD       Q                                     #  1.0 - DELTAT T NOW COMPLETE.
000235: 01,3270           00006                           EXTEND                                         #  ZERO INDEX Q.
000236: 01,3271           22007                           QXCH     7                                     #  (ZQ)
000237:


000239: 01,3272           57400        WTLST4             XCH      LST1
000240: 01,3273           57401                           XCH      LST1       +1
000241: 01,3274           57402                           XCH      LST1       +2
000242: 01,3275           57403                           XCH      LST1       +3
000243: 01,3276           57404                           XCH      LST1       +4
000244: 01,3277           57405                           XCH      LST1       +5
000245: 01,3300           57406                           XCH      LST1       +6
000246: 01,3301           57407                           XCH      LST1       +7
000247:
000248: 01,3302           30063                           CA       WAITADR                               #  (MINOR PART OF TASK CADR HAS BEEN IN L.)
000249: 01,3303           50002                           INDEX    Q
000250: 01,3304           13305                           TCF      +1
000251:
000252: 01,3305           53411                           DXCH     LST2
000253: 01,3306           53413                           DXCH     LST2       +2
000254: 01,3307           53415                           DXCH     LST2       +4
000255: 01,3310           53417                           DXCH     LST2       +6
000256: 01,3311           53421                           DXCH     LST2       +8D
000257: 01,3312           53423                           DXCH     LST2       +10D                       #  AT END, CHECK THAT C(LST2 +10) IS STD
000258: 01,3313           53425                           DXCH     LST2       +12D
000259: 01,3314           53427                           DXCH     LST2       +14D
000260: 01,3315           53431                           DXCH     LST2       +16D
000261: 01,3316           65173                           AD       ENDTASK                               #    END ITEM, AS CHECK FOR EXCEEDING
000262:                                                                                                  #                                            THE LENGTH OF THE LIST.
000263: 01,3317           00006                           EXTEND                                         #  DUMMY TASK ADRES SHOULD BE IN FIXED-
000264: 01,3320           15152                           BZF      LVWTLIST                              #  FIXED SO ITS ADRES ALONE DISTINGUISHES
000265: 01,3321           13375                           TCF      WTABORT                               #  IT.
000266:


000268: 01,3322           10000        WTLST5             CCS      A                                     #  TEST TD - T2 + 1
000269: 01,3323           61401                           AD       LST1       +1
000270: 01,3324           13330                           TCF      +4
000271: 01,3325           64712                           AD       ONE
000272: 01,3326           03403                           TC       WTLST2
000273: 01,3327           00001                           OCT      1
000274:
000275: 01,3330           10000                 +4        CCS      A                                     #  TEST TD - T3 + 1
000276: 01,3331           61402                           AD       LST1       +2
000277: 01,3332           13336                           TCF      +4
000278: 01,3333           64712                           AD       ONE
000279: 01,3334           03403                           TC       WTLST2
000280: 01,3335           00002                           OCT      2
000281:
000282: 01,3336           10000                 +4        CCS      A                                     #  TEST TD - T4 + 1
000283: 01,3337           61403                           AD       LST1       +3
000284: 01,3340           13344                           TCF      +4
000285: 01,3341           64712                           AD       ONE
000286: 01,3342           03403                           TC       WTLST2
000287: 01,3343           00003                           OCT      3
000288:
000289: 01,3344           10000                 +4        CCS      A                                     #  TEST TD - T5 + 1
000290: 01,3345           61404                           AD       LST1       +4
000291: 01,3346           13352                           TCF      +4
000292: 01,3347           64712                           AD       ONE
000293: 01,3350           03403                           TC       WTLST2
000294: 01,3351           00004                           OCT      4
000295:
000296: 01,3352           10000                 +4        CCS      A                                     #  TEST TD - T6 + 1
000297: 01,3353           61405                           AD       LST1       +5
000298: 01,3354           13360                           TCF      +4
000299: 01,3355           64712                           AD       ONE
000300: 01,3356           03403                           TC       WTLST2
000301: 01,3357           00005                           OCT      5
000302:
000303: 01,3360           10000                 +4        CCS      A                                     #  TEST TD - T7 + 1
000304: 01,3361           61406                           AD       LST1       +6
000305: 01,3362           13366                           TCF      +4
000306: 01,3363           64712                           AD       ONE
000307: 01,3364           03403                           TC       WTLST2
000308: 01,3365           00006                           OCT      6
000309:


000311: 01,3366           10000                 +4        CCS      A
000312: 01,3367           61407                           AD       LST1       +7
000313: 01,3370           13374                           TCF      +4
000314: 01,3371           64712                           AD       ONE
000315: 01,3372           03403                           TC       WTLST2
000316: 01,3373           00007                           OCT      7
000317:
000318: 01,3374           10000                 +4        CCS      A
000319: 01,3375           05604        WTABORT            TC       BAILOUT                               #  NO ROOM IN THE INN.
000320: 01,3376           01203                           OCT      1203
000321:
000322: 01,3377           64712                           AD       ONE
000323: 01,3400           03403                           TC       WTLST2
000324: 01,3401           00010                           OCT      10
000325:
000326: 01,3402           40201        OCT40201           OCT      40201
000327:


000329:                                                                                                  #  THE ENTRY TC WTLST2 JUST PRECEDING OCT  N  IS FOR T  LE TD LE T   -1.
000330:                                                                                                  #                                                     N           N+1
000331:
000332:                                                                                                  #  (LE MEANS LESS THAN OR EQUAL TO).  AT ENTRY, C(A) = -(TD - T   + 1)
000333:                                                                                                  #                                                              N+1
000334:
000335:                                                                                                  #  THE LST1 ENTRY -(T   - T +1) IS TO BE REPLACED BY -(TD - T  + 1), AND
000336:                                                                                                  #                    N+1   N                                 N
000337:
000338:                                                                                                  #  THE ENTRY -(T   - TD + 1) IS TO BE INSERTED IMMEDIATELY FOLLOWING.
000339:                                                                                                  #               N+1
000340:
000341: 01,3403           54064        WTLST2             TS       WAITTEMP                              #      C(A) = -(TD - T   + 1)
000342: 01,3404           50002                           INDEX    Q
000343: 01,3405           30000                           CAF      0
000344: 01,3406           54002                           TS       Q                                     #  INDEX VALUE INTO Q.
000345:
000346: 01,3407           34712                           CAF      ONE
000347: 01,3410           60064                           AD       WAITTEMP
000348: 01,3411           50002                           INDEX    Q                                     #  C(A) = -(TD - T ) + 1.
000349: 01,3412           27377                           ADS      LST1       -1                         #                 N
000350:
000351: 01,3413           40064                           CS       WAITTEMP
000352: 01,3414           50002                           INDEX    Q
000353: 01,3415           13272                           TCF      WTLST4
000354:
000355:                                                                                                  #  C(TIME3) = 1.0 - (T1 - T)
000356:
000357:                                                                                                  #  C(LST1  ) = - (T2 - T1) + 1
000358:                                                                                                  #  C(LST1+1) = - (T3 - T2) + 1
000359:                                                                                                  #  C(LST1+2) = - (T4 - T3) + 1
000360:                                                                                                  #  C(LST1+3) = - (T5 - T4) + 1
000361:                                                                                                  #  C(LST1+4) = - (T6 - T5) + 1
000362:
000363:                                                                                                  #  C(LST2   ) = 2CADR  TASK1
000364:                                                                                                  #  C(LST2+2 ) = 2CADR  TASK2
000365:                                                                                                  #  C(LST2+4 ) = 2CADR  TASK3
000366:                                                                                                  #  C(LST2+6 ) = 2CADR  TASK4
000367:                                                                                                  #  C(LST2+8 ) = 2CADR  TASK5
000368:                                                                                                  #  C(LST2+10) = 2CADR  TASK6
000369:


000371:                                                                                                  #           ENTERS HERE ON T3 RUPT TO DISPATCH WAITLISTED TASK.
000372:
000373: 01,3416           00006        T3RUPT             EXTEND
000374: 01,3417           04007                           ROR      SUPERBNK                              #  READ CURRENT SUPERBANK VALUE AND
000375: 01,3420           54016                           TS       BANKRUPT                              #  SAVE WITH E AND F BANK VALUES.
000376: 01,3421           00006                           EXTEND
000377: 01,3422           22012                           QXCH     QRUPT
000378:
000379: 01,3423           34673        T3RUPT2            CAF      NEG1/2                                #  DISPATCH WAITLIST TASK.
000380: 01,3424           57407                           XCH      LST1       +7
000381: 01,3425           57406                           XCH      LST1       +6
000382: 01,3426           57405                           XCH      LST1       +5
000383: 01,3427           57404                           XCH      LST1       +4                         #  1.  MOVE UP LST1 CONTENTS, ENTERING
000384: 01,3430           57403                           XCH      LST1       +3                         #      A VALUE OF 1/2 +1 AT THE BOTTOM
000385: 01,3431           57402                           XCH      LST1       +2                         #      FOR T6-T5, CORRESPONDING TO THE
000386: 01,3432           57401                           XCH      LST1       +1                         #      INTERVAL 81.91 SEC FOR ENDTASK.
000387: 01,3433           57400                           XCH      LST1
000388: 01,3434           64672                           AD       POSMAX                                #  2. SET T3 = 1.0 - T2 - T USING LIST 1.
000389: 01,3435           26026                           ADS      TIME3                                 #     SO T3 WONT TICK DURING UPDATE.
000390: 01,3436           54734                           TS       RUPTAGN
000391: 01,3437           44714                           CS       ZERO
000392: 01,3440           54734                           TS       RUPTAGN                               #  SETS RUPTAGN TO +1 ON OVERFLOW.
000393:
000394: 01,3441           00006                           EXTEND                                         #  DISPATCH TASK.
000395: 01,3442           45174                           DCS      ENDTASK
000396: 01,3443           53431                           DXCH     LST2       +16D
000397: 01,3444           53427                           DXCH     LST2       +14D
000398: 01,3445           53425                           DXCH     LST2       +12D
000399: 01,3446           53423                           DXCH     LST2       +10D
000400: 01,3447           53421                           DXCH     LST2       +8D
000401: 01,3450           53417                           DXCH     LST2       +6
000402: 01,3451           53415                           DXCH     LST2       +4
000403: 01,3452           53413                           DXCH     LST2       +2
000404: 01,3453           53411                           DXCH     LST2
000405:
000406: 01,3454           56001                           XCH      L
000407: 01,3455           00006                           EXTEND
000408: 01,3456           01007                           WRITE    SUPERBNK                              #  SET SUPERBANK FROM BBCON OF 2CADR
000409: 01,3457           56001                           XCH      L                                     #  RESTORE TO L FOR DXCH Z.
000410: 01,3460           52006                           DTCB
000411:


000413:                                                                                                  #           RETURN, AFTER EXECUTION OF T3 OVERFLOW TASK:
000414:
000415:    5213                                           BLOCK    02
000416:    5213                                           COUNT    02/WAIT
000417:
000418:    5213           10734        TASKOVER           CCS      RUPTAGN                               #  IF +1 RETURN TO T3RUPT, IF -0 RESUME.
000419:    5214           35155                           CAF      WAITBB
000420:    5215           54006                           TS       BBANK
000421:    5216           13423                           TCF      T3RUPT2                               #  DISPATCH NEXT TASK IF IT WAS DUE.
000422:
000423:    5217           30016                           CA       BANKRUPT
000424:    5220           00006                           EXTEND
000425:    5221           01007                           WRITE    SUPERBNK                              #  RESTORE SUPERBANK BEFORE RESUME IS DONE
000426:
000427:    5222           00006        RESUME             EXTEND
000428:    5223           22012                           QXCH     QRUPT
000429:    5224           30016        NOQRSM             CA       BANKRUPT
000430:    5225           56006                           XCH      BBANK
000431:    5226           52011        NOQBRSM            DXCH     ARUPT
000432:    5227           00003                           RELINT
000433:    5230           50017                           RESUME
000434:


000436:                                                                                                  #  LONGCALL
000437:
000438:                                                                                                  #  PROGRAM DESCRIPTION                                  DATE- 17 MARCH 1967
000439:                                                                                                  #  PROGRAM WRITTEN BY W.H. VANDEVER                    LOG SECTION WAITLIST
000440:                                                                                                  #  MOD BY- R. MELANSON TO ADD DOCUMENTATION       ASSEMBLY SUNDISK REV. 100
000441:
000442:                                                                                                  #  FUNCTIONAL DESCRIPTION-
000443:                                                                                                  #  LONGCALL IS CALLED WITH THE DELTA TIME ARRIVING IN A,L SCALED AS TIME2,TIME1 WITH THE 2CADR OF THE TASK
000444:                                                                                                  #  IMMEDIATELY FOLLOWING THE TC LONGCALL.  FOR EXAMPLE, IT MIGHT BE DONE AS FOLLOWS WHERE TIMELOC IS THE NAME OF
000445:                                                                                                  #  A DP REGISTER CONTAINING A DELTA TIME AND WHERE TASKTODO IS THE NAME OF THE LOCATION AT WHICH LONGCALL IS TO
000446:                                                                                                  #  START.
000447:
000448:                                                                                                  #  CALLING SEQUENCE-
000449:                                                                                                  #                                                   EXTEND
000450:                                                                                                  #                                                   DCA    TIMELOC
000451:                                                                                                  #                                                   TC     LONGCALL
000452:                                                                                                  #                                                   2CADR  TASKTODO
000453:
000454:                                                                                                  #  NORMAL EXIT MODE-
000455:                                                                                                  #     1). TC    WAITLIST
000456:                                                                                                  #     2). DTCB  (TO L+3 OF CALLING ROUTINE 1ST PASS THRU LONGCYCL)
000457:                                                                                                  #     3). DTCB  (TO TASKOVER ON SUBSEQUENT PASSES THRU LONGCYCL)
000458:
000459:                                                                                                  #  ALARM OR ABORT EXIT MODE-
000460:                                                                                                  #     NONE
000461:
000462:                                                                                                  #  OUTPUT-
000463:                                                                                                  #     LONGTIME AND LONGTIME+1 = DELTA TIME
000464:                                                                                                  #     LONGEXIT AND LONGEXIT+1 = RETURN 2CADR
000465:                                                                                                  #     LONGCADR AND LONGCADR+1 = TASK 2CADR
000466:                                                                                                  #     A = SINGLE PRECISION TIME FOR WAITLIST
000467:
000468:                                                                                                  #  ERASABLE INITIALIZATION-
000469:                                                                                                  #     A = MOST SIGNIFICANT PART OF DELTA TIME
000470:                                                                                                  #     L = LEAST SIGNIFICANT PART OF DELTA TIME
000471:                                                                                                  #     Q = ADDRESS OF 2CADR TASK VALUE
000472:
000473:                                                                                                  #  DEBRIS-
000474:                                                                                                  #     A,Q,L
000475:                                                                                                  #     LONGCADR AND LONGCADR+1
000476:                                                                                                  #     LONGEXIT AND LONGEXIT+1
000477:                                                                                                  #     LONGTIME AND LONGTIME+1
000478:
000479:                                                                                                  #  *** THE FOLLOWING IS TO BE IN FIXED-FIXED AND UNSWITCHED ERRASIBLE **
000480:
000481:    5231                                           BLOCK    02
000482:    5231  E3,1400                                  EBANK=   LST1
000483:    5231           53140        LONGCALL           DXCH     LONGTIME                              #  OBTAIN THE DELTA TIME
000484:
000485:    5232           00006                           EXTEND                                         #  OBTAIN THE 2CADR


000487:    5233           50002                           NDX      Q
000488:    5234           30001                           DCA      0
000489:    5235           53134                           DXCH     LONGCADR
000490:
000491:    5236           00006                           EXTEND                                         #  NOW GO TO THE APPROPRIATE SWITCHED BANK
000492:    5237           35242                           DCA      LGCL2CDR                              #  FOR THE REST OF LONGCALL
000493:    5240           52006                           DTCB
000494:
000495:    5241  E3,1400                                  EBANK=   LST1
000496:    5241           03461 02063  LGCL2CDR           2CADR    LNGCALL2
000497:
000498:                                                                                                  #  *** THE FOLLOWING MAY BE IN A SWITCHED BANK, INCLUDING ITS ERASABLE ***
000499:
000500: 01,3461                                           BANK     01
000501: 01,3461                                           COUNT    01/WAIT
000502:
000503: 01,3461           23435        LNGCALL2           LXCH     LONGEXIT   +1                         #  SAVE THE CORRECT BB FOR RETURN
000504: 01,3462           34711                           CA       TWO                                   #  OBTAIN THE RETURN ADDRESS
000505: 01,3463           26002                           ADS      Q
000506: 01,3464           55434                           TS       LONGEXIT
000507:
000508:                                                                                                  #           *** WAITLIST TASK LONGCYCL ***
000509: 01,3465           00006        LONGCYCL           EXTEND                                         #  CAN WE SUCCESFULLY TAKE ABOUT 1.25
000510: 01,3466           43477                           DCS      DPBIT14                               #  MINUTES OFF OF LONGTIME
000511: 01,3467           21140                           DAS      LONGTIME
000512:
000513: 01,3470           11140                           CCS      LONGTIME   +1                         #  THE REASONING BEHIND THIS PART IS
000514: 01,3471           13510                           TCF      MUCHTIME                              #  INVOLVED, TAKING INTO ACCOUNT THAT THE
000515:                                                                                                  #                                          WORDS MAY NOT BE SIGNED CORRECTED (DP
000516:                                                                                                  #                                          BASIC INSTRUCTIONS
000517:                                                                                                  #                                          DO NOT SIGN CORRECT) AND THAT WE SUBTRAC
000518:                                                                                                  #                                          TED BIT14 (1 OVER HALF THE POS. VALUE
000519:                                                                                                  #                                          REPRESENTABLE IN SINGLE WORD)
000520: 01,3472           13473                           NOOP                                           #  CAN:T GET HERE    **********
000521: 01,3473           13474                           TCF      +1
000522: 01,3474           11137                           CCS      LONGTIME
000523: 01,3475           13510                           TCF      MUCHTIME
000524: 01,3476           00000        DPBIT14            OCT      00000
000525: 01,3477           20000                           OCT      20000
000526:
000527:                                                                                                  #                                          LONGCALL
000528: 01,3500           34675        LASTTIME           CA       BIT14                                 #  GET BACK THE CORRECT DELTA TFOR WAITLIST
000529: 01,3501           27140                           ADS      LONGTIME   +1
000530: 01,3502           05140                           TC       WAITLIST
000531: 01,3503  E3,1400                                  EBANK=   LST1
000532: 01,3503           03515 02063                     2CADR    GETCADR                               #  THE ENTRY TO OUR LONGCADR
000533:
000534: 01,3505           33517        LONGRTRN           CA       TSKOVCDR                              #  SET IT UP SO THAT ONLY THE FIRST EXIT IS


000536: 01,3506           53435                           DXCH     LONGEXIT                              #  TO THE CALLER OF LONGCALL
000537: 01,3507           52006                           DTCB                                           #  THE REST ARE TO TASKOVER
000538:
000539: 01,3510           34675        MUCHTIME           CA       BIT14                                 #  WE HAVE OVER OUR ABOUT 1.25 MINUTES
000540: 01,3511           05140                           TC       WAITLIST                              #  SO SET UP FOR ANOTHER CYCLE THROUGH HERE
000541: 01,3512  E3,1400                                  EBANK=   LST1
000542: 01,3512           03465 02063                     2CADR    LONGCYCL
000543:
000544: 01,3514           13505                           TCF      LONGRTRN                              #  NOW EXIT PROPERLY
000545:
000546:                                                                                                  #           *** WAITLIST TASK GETCADR ***
000547: 01,3515           53134        GETCADR            DXCH     LONGCADR                              #  GET THE LONGCALL THAT WE WISHED TO START
000548: 01,3516           52006                           DTCB                                           #  AND TRANSFER CONTROL TO IT
000549:
000550: 01,3517           05213        TSKOVCDR           GENADR   TASKOVER

End of include-file WAITLIST.agc.  Parent file is MAIN.agc


