¤
                                              EXTERNAL SYMBOL DICTIONARY                                       PAGE    1
SYMBOL   TYPE  ID  ADDR  LENGTH  LD ID                                                         AP101S 3.0 09.37 07/22/05
ASINH     SD 0001 000000 000040
#QLOG     ER 0002
#QSQRT    ER 0003
¤
         ASINH-- ARCSINCH,SINGLE PRECISION                                                                     PAGE    2
  LOC  OBJECT CODE   ADR1 ADR2      SOURCE STATEMENT                                           AP101S 3.0 09.37 07/22/05
                                  2 *
                                  3 * WHEN DATA_REMOTE IS IN EFFECT, THE LDM INSTRUCTIONS ARE NEEDED
                                  4 * AROUND THE CALL TO THIS RTL ROUTINE BECAUSE R1/R3 IS USED AS
                                  5 * A BASE REGISTER. (CR12620)
                                  6 *
                                  7 *   ARCSINCH(X)=LN(X+SQRT(X**2+1))                                      00000200
                                  8 *                                                                       00000300
                                  9 * THE FUNCTION IS MADE ODD BY TAKING THE ABSOLUTE VALUE OF THE          00000400
                                 10 * ARGUMENT, COMPUTING THE FUNCTION, AND REVERSING THE SIGN OF THE       00000500
                                 11 * RESULT IF THE ARGUMENT WAS NEGATIVE. IF THE ABSOLUTE VALUE OF         00000600
                                 12 * THE ARGUMENT IS VERY SMALL,ARCSINH(X) NEARLY EQUALS X. FOR            00000700
                                 13 * LARGER VALUES OF ABS(X), A TAYLOR SERIES POLYNOMIAL FOR ARCSINH(X)    00000800
                                 14 * IS COMPUTED. OTHERWISE, THE COMPUTATION USES THE SQRT AND LOG         00000900
                                 15 * SUBROUTINES STRAIGHTFORWARDLY, UNLESS ABS(X) IS SO LARGE THAT         00001000
                                 16 * SQRT(X**2+1) IS INDISTINGUISHABLE  (TO SINGLE PREC) FROM X.           00001100
                                 17 * IN THAT CASE,LN(X)+LN2 IS CALCULATED TO AVOID EXPONENT                00001200
                                 18 * OVERFLOW ERRORS AND USELESS CALCULATIONS.                             00001300
                                 19 *                                                                       00001400
                                 20          MACRO                                                          00001500
                                 21          WORKAREA                                                       00001600
                                 22 BUFF     DS    E                                                        00001700
                                 23          MEND                                                           00001800
                                 24 ASINH    AMAIN ACALL=YES                                                00001900
                                 25+***********************************************************************
                                 26+*
                                 27+*        PRIMARY ENTRY POINT
                                 28+*
                                 29+***********************************************************************
00000                            30+ASINH    CSECT                                                          01-AMAIN
00000                            31+STACK    DSECT                                                          01-AMAIN
                                 32+*        DS    18H            STANDARD STACK AREA DEFINITION
00000                            33+         DS    F              PSW (LEFT HALF)                           01-AMAIN
00002                            34+         DS    2F             R0,R1                                     01-AMAIN
00006                            35+ARG2     DS    F              R2                                        01-AMAIN
00008                            36+         DS    F              R3                                        01-AMAIN
0000A                            37+ARG4     DS    F              R4                                        01-AMAIN
0000C                            38+ARG5     DS    F              R5                                        01-AMAIN
0000E                            39+ARG6     DS    F              R6                                        01-AMAIN
00010                            40+ARG7     DS    F              R7                                        01-AMAIN
                                 41+*        END OF STANDARD STACK AREA
00012                            42+BUFF     DS    E                                                        02-00022
00014                            43+STACKEND DS    0F             END OF COMBINED STACK AREA                01-AMAIN
00000                            44+ASINH    CSECT                                                          01-AMAIN
0000000                          45+         USING STACK,0        ADDRESS STACK AREA                        01-AMAIN
00000 E0FB 0014      0014        46+         IAL   0,STACKEND-STACK SET STACK SIZE                          01-AMAIN
00002 B624 0000      0009 0000   47+         NIST  9(0),0         CLEAR ON ERROR INFO (LCL DATA PTR)        01-AMAIN
                                 49 * COMPUTES HYPERBOLIC ARC-SINE IN SINGLE PRECISION                      00002000
                                 50          INPUT F0             SCALAR SP                                 00002100
0000000                          51+F0       EQU   0                                                        01-INPUT
                                 53          OUTPUT F0            SCALAR SP                                 00002200
                                 55          WORK  R1,R2,R5,R6,R7,F1,F2,F3,F4                               00002300
0000001                          56+R1       EQU   1                                                        01-WORK
0000002                          57+R2       EQU   2                                                        01-WORK
0000005                          58+R5       EQU   5                                                        01-WORK
0000006                          59+R6       EQU   6                                                        01-WORK
0000007                          60+R7       EQU   7                                                        01-WORK
0000001                          61+F1       EQU   1                                                        01-WORK
0000002                          62+F2       EQU   2                                                        01-WORK
0000003                          63+F3       EQU   3                                                        01-WORK
0000004                          64+F4       EQU   4                                                        01-WORK
00004 22E8                       66          LFXR  R2,F0                                                    00002400
00005 78E0                       67          LER   F0,F0                                                    00002500
00006 DD04           0008 0001   68          BNM   POS                                                      00002600
00007 78E8                       69          LECR  F0,F0                                                    00002700
00008 48FF 002A      0034 002A   70 POS      CE    F0,XBEST    IF SMALLER THAN THIS, NEST TERM IN           00002800
0000A DD08           000D 0002   71          BNL   HAUSDORF    TAYLOR SERIES WOULDN'T CHANGE RESULT         00002900
0000B 28EA                       72          LFLR  F0,R2                                                    00003000
                                 73          AEXIT                                                          00003100
                                 74+*********RETURN TO CALLER**********************************************
0000C                            75+         DS    0H                                                       01-AEXIT
0000C 97E8                       76+$RET1    SRET  7,0            RETURN TO CALLER                          01-AEXIT
                                 77+***********************************************************************
0000D 48FF 0027      0036 0027   79 HAUSDORF CE    F0,BIG                                                   00003200
0000F DA14           0015 0005   80          BL    REGULAR                                                  00003300
i                                 81          ACALL LOG                                                      00003400
         ASINH-- ARCSINCH,SINGLE PRECISION                                                                     PAGE    3
  LOC  OBJECT CODE   ADR1 ADR2      SOURCE STATEMENT                                           AP101S 3.0 09.37 07/22/05
                                 82+         EXTRN #QLOG                                                    01-ACALL
00010 D0FF                       83+         DC  X'D0FF'          CALL PROCEDURE ROUTINE                    01-ACALL
00011 3800                       84+         DC  Y(#QLOG+X'3800') INDIRECTLY THRU QCON                      01-ACALL
00012 50F7 002A      003E 002A   85          AE    F0,LN2                                                   00003500
00014 DF60           002D 0018   86          B     SIGN                                                     00003600
00015 48FF 0021      0038 0021   87 REGULAR  CE    F0,POLYBEST                                              00003700
00017 D930           0024 000C   88          BH    NORMAL                                                   00003800
00018 7AE0                       89          LER   F2,F0          TAYLOR SERIES IS                          00003900
00019 62E2                       90          MER   F2,F2          X-1/6X**3+3/40X**5                        00004000
0001A 7CE2                       91          LER   F4,F2                                                    00004100
0001B 64F7 001F      003C 001F   92          ME    F4,A2                                                    00004200
0001D 54F7 001B      003A 001B   93          AE    F4,A1                                                    00004300
0001F 64E2                       94          MER   F4,F2                                                    00004400
00020 54F7 0010      0032 0010   95          AE    F4,ONE                                                   00004500
00022 60E4                       96          MER   F0,F4                                                    00004600
00023 DF24           002D 0009   97          B     SIGN                                                     00004700
00024 3824           0012        98 NORMAL   STE   F0,BUFF                                                  00004800
00025 60E0                       99          MER   F0,F0                                                    00004900
00026 50F7 000A      0032 000A  100          AE    F0,ONE                                                   00005000
                                101          ABAL  SQRT                                                     00005100
                                102+         EXTRN #QSQRT                                                   01-ABAL
00028 E4F7                      103+         DC  X'E4F7'          CALL INTRINSIC INDIRECTLY                 01-ABAL
00029 3800                      104+         DC  Y(#QSQRT+X'3800')                                         X01-ABAL
                                   +                              THROUGH QCON
0002A 5024           0012       105          AE    F0,BUFF                                                  00005200
                                106          ACALL LOG                                                      00005300
0002B D0FF                      107+         DC  X'D0FF'          CALL PROCEDURE ROUTINE                    01-ACALL
0002C 3800                      108+         DC  Y(#QLOG+X'3800') INDIRECTLY THRU QCON                      01-ACALL
0002D 1AE2                      109 SIGN     LR    R2,R2                                                    00005400
0002E DD04           0030 0001  110          BNM   FIN                                                      00005500
0002F 78E8                      111          LECR  F0,F0                                                    00005600
                                112 FIN      AEXIT                                                          00005700
                                113+*********RETURN TO CALLER**********************************************
00030                           114+FIN      DS    0H                                                       01-AEXIT
00030 97E8                      115+$RET2    SRET  7,0            RETURN TO CALLER                          01-AEXIT
                                116+***********************************************************************
00031 C9FB
00032 41100000                  118 ONE      DC    E'1'                                                     00005800
00034 3E3A25DA                  119 XBEST    DC    X'3E3A25DA'                                              00005900
00036 47100000                  120 BIG      DC    X'47100000'                                              00006000
00038 4037614E                  121 POLYBEST DC    X'4037614E'                                              00006100
0003A C02AAAAB                  122 A1       DC    X'C02AAAAB'                                              00006200
0003C 40133333                  123 A2       DC    X'40133333'                                              00006300
0003E 40B17218                  124 LN2      DC    X'40B17218'                                              00006400
                                125          ACLOSE                                                         00006500
00040                           126+         LTORG                                                          02-ERRPA
                                127+****************ERROR PARAMETER AREA***********************************
                                128+***  NO ERRORS SENT IN ASINH                                            02-ERRPA
                                129+****************END OF ERROR PARAMETER AREA****************************
                                130+         END                                                            01-ACLOS
¤
                                                 RELOCATION DICTIONARY                                         PAGE    4
 POS.ID   REL.ID   FLAGS   ADDRESS                                                             AP101S 3.0 09.37 07/22/05
  0001     0002     00     000011
  0001     0002     00     00002C
  0001     0003     00     000029
¤
                                             CROSS REFERENCE                                                   PAGE    5
SYMBOL    LEN    VALUE   DEFN   REFERENCES                                                     AP101S 3.0 09.37 07/22/05
A1           2   00003A   122     93
A2           2   00003C   123     92
ARG2         2   000006    35
ARG4         2   00000A    37
ARG5         2   00000C    38
ARG6         2   00000E    39
ARG7         2   000010    40
ASINH        1 00000000    30     44
BIG          2   000036   120     79
BUFF         2   000012    42     98   105
F0           1 00000000    51     66    67    67    69    69    70    72    79    85    87    89    96    98    99    99
                                 100   105   111   111
F1           1 00000001    61
F2           1 00000002    62     89    90    90    91    94
F3           1 00000003    63
F4           1 00000004    64     91    92    93    94    95    96
FIN          1   000030   114    110
HAUSDORF     2   00000D    79     71
LN2          2   00003E   124     85
NORMAL       2   000024    98     88
ONE          2   000032   118     95   100
POLYBEST     2   000038   121     87
POS          2   000008    70     68
R1           1 00000001    56
R2           1 00000002    57     66    72   109   109
R5           1 00000005    58
R6           1 00000006    59
R7           1 00000007    60
REGULAR      2   000015    87     80
SIGN         1   00002D   109     86    97
STACK        1 00000000    31     45    46
STACKEND     2   000014    43     46
XBEST        2   000034   119     70
$RET1        1   00000C    76
$RET2        1   000030   115
#QLOG        1 00000000    82     84   108
#QSQRT       1 00000000   102    104
¤
                                  DIAGNOSTIC CROSS REFERENCE AND ASSEMBLER SUMMARY                             PAGE    6
                                                                                               AP101S 3.0 09.37 07/22/05
     NO STATEMENTS FLAGGED IN THIS ASSEMBLY
   OVERRIDING PARAMETERS-  ESD,RLD,SYSPARM=PASS
   OPTIONS FOR THIS ASSEMBLY
    NODECK,LOAD,LIST,XREF,NORENT,TEST,NOMULT,ALGN,ESD ,RLD ,NOSREF,LINECT= 80,MSGLEVEL=   0,SYSPARM= PASS
   NO OVERRIDING DD NAMES
      70 CARDS FROM SYSIN     448 CARDS FROM SYSLIB
     192 LINES OUTPUT          13 CARDS OUTPUT
