¤
                                              EXTERNAL SYMBOL DICTIONARY                                       PAGE    1
SYMBOL   TYPE  ID  ADDR  LENGTH  LD ID                                                         AP101S 3.0 09.37 07/22/05
ATANH     SD 0001 000000 00003A
#QLOG     ER 0002
#LATANH   SD 0003 00003A 000002
¤
         ATANH--ARCTANH,SINGLE PRECISION                                                                       PAGE    2
  LOC  OBJECT CODE   ADR1 ADR2      SOURCE STATEMENT                                           AP101S 3.0 09.37 07/22/05
                                  2 *
                                  3 * WHEN DATA_REMOTE IS IN EFFECT, THE LDM INSTRUCTIONS ARE NOT NEEDED
                                  4 * AROUND THE CALL TO THIS RTL ROUTINE BECAUSE R1/R3 IS NOT USED AS
                                  5 * A BASE REGISTER. (CR12620)
                                  6 *
                                  7 *   ARCTANCH(X)=|X|  FOR  4.1138977E-05 < |X|                           00000200
                                  8 *   ARCTANCH(X)=1/2*LN((1+X)/(1-X))  FOR  4.1138977E-05 <= |X| <= .1875 00000300
                                  9 *   ARCTANCH(X)=X+(1/3)X**3+(1/5)X**5  FOR |X| > .1875                  00000400
                                 10 *                                                                       00000500
                                 11 * IF ABS(X) IS VERY SMALL, ARCTANH(X) NEARLY EQUALS X. IF IT IS         00000600
                                 12 * LARGER, THE TAYLOR SERIES FOR ARCTANH(X) IS CALCULATED. FOR           00000700
                                 13 * STILL LARGER X, THE LOG SUBROUTINE IS USED AS INDICATED. IN THAT      00000800
                                 14 * CASE, THE FUNCTION IS MADE ODD BY CALCULATING THE FUNCTION FOR        00000900
                                 15 * POSITIVE X, AND REVERSING THE SIGN OF THE RESULT IF X IS NEGATIVE.    00001000
                                 16 * IF ABS(X) IS NOT LESS THAN ONE, AN ERROR IS SIGNALED.                 00001100
                                 17 *                                                                       00001200
                                 18 * REVISION HISTORY                                                      00001301
                                 19 * ----------------                                                      00001401
                                 20 * DATE     NAME  REL   DR NUMBER AND TITLE                              00001501
                                 21 *                                                                       00001601
                                 22 * 03/15/91  RAH  23V2  CR11055 RUNTIME LIBRARY CODE COMMENT CHANGES     00001701
                                 23 *                                                                       00001801
                                 24 ATANH    AMAIN ACALL=YES                                                00001900
                                 25+***********************************************************************
                                 26+*
                                 27+*        PRIMARY ENTRY POINT
                                 28+*
                                 29+***********************************************************************
00000                            30+ATANH    CSECT                                                          01-AMAIN
00000                            31+STACK    DSECT                                                          01-AMAIN
                                 32+*        DS    18H            STANDARD STACK AREA DEFINITION
00000                            33+         DS    F              PSW (LEFT HALF)                           01-AMAIN
00002                            34+         DS    2F             R0,R1                                     01-AMAIN
00006                            35+ARG2     DS    F              R2                                        01-AMAIN
00008                            36+         DS    F              R3                                        01-AMAIN
0000A                            37+ARG4     DS    F              R4                                        01-AMAIN
0000C                            38+ARG5     DS    F              R5                                        01-AMAIN
0000E                            39+ARG6     DS    F              R6                                        01-AMAIN
00010                            40+ARG7     DS    F              R7                                        01-AMAIN
                                 41+*        END OF STANDARD STACK AREA
                                 42+*        NO ADDITIONAL STACK STORAGE REQUIRED FOR THIS ROUTINE
00012                            43+STACKEND DS    0F             END OF COMBINED STACK AREA                01-AMAIN
00000                            44+ATANH    CSECT                                                          01-AMAIN
0000000                          45+         USING STACK,0        ADDRESS STACK AREA                        01-AMAIN
00000 B624 0000      0009 0000   46+         NIST  9(0),0         CLEAR ON ERROR INFO (LCL DATA PTR)        01-AMAIN
                                 48 * COMPUTES HYPERBOLIC ARC-TANGENT IN SINGLE PRECISION                   00002000
                                 49          INPUT F0             SCALAR SP                                 00002100
0000000                          50+F0       EQU   0                                                        01-INPUT
                                 52          OUTPUT F0            SCALAR SP                                 00002200
                                 54          WORK  R5,R6,R7,F1,F2,F3,F4                                     00002300
0000005                          55+R5       EQU   5                                                        01-WORK
0000006                          56+R6       EQU   6                                                        01-WORK
0000007                          57+R7       EQU   7                                                        01-WORK
0000001                          58+F1       EQU   1                                                        01-WORK
0000002                          59+F2       EQU   2                                                        01-WORK
0000003                          60+F3       EQU   3                                                        01-WORK
0000004                          61+F4       EQU   4                                                        01-WORK
00002 7AE0                       63          LER   F2,F0                                                    00002400
00003 DD04           0005 0001   64          BNM   POS                                                      00002500
00004 7AEA                       65          LECR  F2,F2                                                    00002600
00005 4AFF 0027      002E 0027   66 POS      CE    F2,ONE                                                   00002700
00007 DD84           0029 0021   67          BNL   ERROR                                                    00002800
00008 4AFF 002A      0034 002A   68          CE    F2,TINY   IF SMALLER THAN THIS, THE NEXT TERM IN THE     00002900
0000A DA74           0028 001D   69          BL    EXIT      TAYLOR SERIES WOULDN'T CHANGE THE RESULT.      00003000
0000B 4AFF 0025      0032 0025   70          CE    F2,SMALL  IF NOT SMALLER THAN THIS,POLYNOMIAL ERRORS     00003100
0000D D930           001A 000C   71          BH    NORMAL    BECOME LARGER THAN OTHER AVERAGE ERRORS.       00003200
0000E 62E2                       72          MER   F2,F2     TAYLOR SERIES IS X+(1/3)X**3+(1/5)X**5.        00003300
0000F 7CE2                       73          LER   F4,F2                                                    00003400
00010 64E4                       74          MER   F4,F4                                                    00003500
00011 62E0                       75          MER   F2,F0                                                    00003600
00012 64E0                       76          MER   F4,F0                                                    00003700
00013 62F7 0021      0036 0021   77          ME    F2,THIRD                                                 00003800
00015 64F7 0021      0038 0021   78          ME    F4,FIFTH                                                 00003900
00017 52E4                       79          AER   F2,F4                                                    00004000
00018 50E2                       80          AER   F0,F2                                                    00004100
i                                 81          AEXIT                                                          00004200
         ATANH--ARCTANH,SINGLE PRECISION                                                                       PAGE    3
  LOC  OBJECT CODE   ADR1 ADR2      SOURCE STATEMENT                                           AP101S 3.0 09.37 07/22/05
                                 82+*********RETURN TO CALLER**********************************************
00019                            83+         DS    0H                                                       01-AEXIT
00019 97E8                       84+$RET1    SRET  7,0            RETURN TO CALLER                          01-AEXIT
                                 85+***********************************************************************
0001A 27E8                       87 NORMAL   LFXR  R7,F0                                                    00004300
0001B 78F7 0011      002E 0011   88          LE    F0,ONE                                                   00004400
0001D 7CE0                       89          LER   F4,F0                                                    00004500
0001E 50E2                       90          AER   F0,F2                                                    00004600
0001F 5CE2                       91          SER   F4,F2                                                    00004700
00020 68E4                       92          DER   F0,F4                                                    00004800
                                 93          ACALL LOG                                                      00004900
                                 94+         EXTRN #QLOG                                                    01-ACALL
00021 D0FF                       95+         DC  X'D0FF'          CALL PROCEDURE ROUTINE                    01-ACALL
00022 3800                       96+         DC  Y(#QLOG+X'3800') INDIRECTLY THRU QCON                      01-ACALL
00023 68F7 000B      0030 000B   97          DE    F0,TWO                                                   00005000
00025 1FE7                       98          LR    R7,R7                                                    00005100
00026 DD04           0028 0001   99          BNM   EXIT                                                     00005200
00027 78E8                      100          LECR  F0,F0                                                    00005300
                                101 EXIT     AEXIT                                                          00005400
                                102+*********RETURN TO CALLER**********************************************
00028                           103+EXIT     DS    0H                                                       01-AEXIT
00028 97E8                      104+$RET2    SRET  7,0            RETURN TO CALLER                          01-AEXIT
                                105+***********************************************************************
                                107 ERROR    AERROR 60            1<=|ARG|                                  00005500
                                108+*********ISSUE SEND ERROR SVC******************************************
00029 C9FB 003A      003A       109+ERROR    SVC   AERROR1        ISSUE SEND ERROR SVC                      01-AERRO
                                110+*********SEND ERROR SVC RETURNS CONTROL FOR STANDARD FIXUP*************
0002B 58E0                      111          SER   F0,F0                                                    00005600
                                112          AEXIT                                                          00005700
                                113+*********RETURN TO CALLER**********************************************
0002C                           114+         DS    0H                                                       01-AEXIT
0002C 97E8                      115+$RET3    SRET  7,0            RETURN TO CALLER                          01-AEXIT
                                116+***********************************************************************
0002D C9FB
0002E 41100000                  118 ONE      DC    E'1'                                                     00005800
00030 41200000                  119 TWO      DC    E'2'                                                     00005900
00032 40300000                  120 SMALL    DC    X'40300000'    .1875                                     00006000
00034 3D2B2329                  121 TINY     DC    X'3D2B2329'    4.1138977E-05                             00006100
00036 40555555                  122 THIRD    DC    X'40555555'                                              00006200
00038 40333333                  123 FIFTH    DC    X'40333333'                                              00006300
                                124          ACLOSE                                                         00007000
0003A                           125+         LTORG                                                          02-ERRPA
                                126+****************ERROR PARAMETER AREA***********************************
0003A                           127+#LATANH  CSECT                                                          02-ERRPA
                                128+***  ATANH SENDS THE FOLLOWING ERROR                                    02-ERRPA
                                130+***  ERROR NUMBER 60 IN GROUP 4                                         02-ERRPA
0003A 0014                      132+AERROR1  DC    H'20'          SVC CODE FOR SEND ERROR                   02-ERRPA
0003B 043C                      133+         DC    Y(4*256+60)                      8 BIT GROUP AND NUMBER  02-ERRPA
                                134+****************END OF ERROR PARAMETER AREA****************************
                                135+         END                                                            01-ACLOS
¤
                                                 RELOCATION DICTIONARY                                         PAGE    4
 POS.ID   REL.ID   FLAGS   ADDRESS                                                             AP101S 3.0 09.37 07/22/05
  0001     0002     00     000022
  0001     0003     00     00002A
¤
                                             CROSS REFERENCE                                                   PAGE    5
SYMBOL    LEN    VALUE   DEFN   REFERENCES                                                     AP101S 3.0 09.37 07/22/05
AERROR1      1   00003A   132    109
ARG2         2   000006    35
ARG4         2   00000A    37
ARG5         2   00000C    38
ARG6         2   00000E    39
ARG7         2   000010    40
ATANH        1 00000000    30     44
ERROR        2   000029   109     67
EXIT         1   000028   103     69    99
F0           1 00000000    50     63    75    76    80    87    88    89    90    92    97   100   100   111   111
F1           1 00000001    58
F2           1 00000002    59     63    65    65    66    68    70    72    72    73    75    77    79    80    90    91
F3           1 00000003    60
F4           1 00000004    61     73    74    74    76    78    79    89    91    92
FIFTH        2   000038   123     78
NORMAL       1   00001A    87     71
ONE          2   00002E   118     66    88
POS          2   000005    66     64
R5           1 00000005    55
R6           1 00000006    56
R7           1 00000007    57     87    98    98
SMALL        2   000032   120     70
STACK        1 00000000    31     45
STACKEND     2   000012    43
THIRD        2   000036   122     77
TINY         2   000034   121     68
TWO          2   000030   119     97
$RET1        1   000019    84
$RET2        1   000028   104
$RET3        1   00002C   115
#LATANH      1 0000003A   127
#QLOG        1 00000000    94     96
¤
                                  DIAGNOSTIC CROSS REFERENCE AND ASSEMBLER SUMMARY                             PAGE    6
                                                                                               AP101S 3.0 09.37 07/22/05
     NO STATEMENTS FLAGGED IN THIS ASSEMBLY
   OVERRIDING PARAMETERS-  ESD,RLD,SYSPARM=PASS
   OPTIONS FOR THIS ASSEMBLY
    NODECK,LOAD,LIST,XREF,NORENT,TEST,NOMULT,ALGN,ESD ,RLD ,NOSREF,LINECT= 80,MSGLEVEL=   0,SYSPARM= PASS
   NO OVERRIDING DD NAMES
      69 CARDS FROM SYSIN     418 CARDS FROM SYSLIB
     187 LINES OUTPUT          14 CARDS OUTPUT
