¤
                                              EXTERNAL SYMBOL DICTIONARY                                       PAGE    1
SYMBOL   TYPE  ID  ADDR  LENGTH  LD ID                                                         AP101S 3.0 09.37 07/22/05
CASPV     SD 0001 000000 000040
CASP      LD      000001        0001
#LCASPV   SD 0002 000040 000002
¤
         CASPV - CHARACTER ASSIGN,PARTITIONED INPUT                                                            PAGE    2
  LOC  OBJECT CODE   ADR1 ADR2      SOURCE STATEMENT                                           AP101S 3.0 09.37 07/22/05
                                  2 *
                                  3 * WHEN DATA_REMOTE IS IN EFFECT, THE LDM INSTRUCTIONS ARE NEEDED
                                  4 * AROUND THE CALL TO THIS RTL ROUTINE BECAUSE R1/R3 IS USED AS
                                  5 * A BASE REGISTER. (CR12620)
                                  6 *
                                  7 **********************************************                          00000200
                                  8 **** CHARACTER ASSIGN - PARTITIONED INPUT ****                          00000300
                                  9 **********************************************                          00000400
                                 10 *                                                                       00000500
                                 11 *                                                                       00000600
                                 12 CASPV    AMAIN INTSIC=YES                                               00000700
                                 13+***********************************************************************
                                 14+*
                                 15+*        PRIMARY ENTRY POINT
                                 16+*
                                 17+***********************************************************************
00000                            18+CASPV    CSECT                                                          01-AMAIN
                                 20 * ASSIGNS A PARTITION OF A CHARACTER STRING TO A                        00000800
                                 21 * TEMPORARY                                                             00000900
                                 22          INPUT R2,            ADDRESS OF CHARACTER STRING              X00001000
                                                   R5,            FIRST ELT. OF PARTITION                  X00001100
                                                   R6             LAST ELT. OF PARTITION                    00001200
0000002                          23+R2       EQU   2                                                        01-INPUT
0000005                          24+R5       EQU   5                                                        01-INPUT
0000006                          25+R6       EQU   6                                                        01-INPUT
                                 27          OUTPUT R1            DESTINATION FOR STRING                    00001300
0000001                          28+R1       EQU   1                                                        01-OUTPU
                                 30          WORK  R3                                                       00001400
0000003                          31+R3       EQU   3                                                        01-WORK
00000 A201           0000        33          SHW   0(R1)          SET MAXLEN OF VAC TO 255                  00001500
                                 34 *                                                                       00001600
                                 35 *CHECK THE 1ST CHAR (I) SPECIFIED.IF IT'S LESS THAN 1                   00001700
                                 36 *THEN IT'S AN ERROR.CALL ERROR ROUTINE AND THEN SET                     00001800
                                 37 *I TO 1                                                                 00001900
                                 38 *                                                                       00002000
                                 39 CASP     AENTRY                                                         00002100
                                 40+***********************************************************************
                                 41+*
                                 42+*        SECONDARY ENTRY POINT
                                 43+*
                                 44+***********************************************************************
00001                            45+CASP     DS    0H                                                       01-AENTR
                                 46+         ENTRY CASP                                                     01-AENTR
                                 48 * ASSIGNS A PARTITION STRING TO A RECIEVER STRING                       00002200
                                 49          INPUT R2,            ADDRESS OF CHARACTER STRING              X00002300
                                                   R5,            FIRST ELT. OF PARTITION                  X00002400
                                                   R6             LAST ELT. OF PARTITION                    00002500
                                 51          OUTPUT R1            DESTINATION FOR STRING                    00002600
                                 53          WORK  R3                                                       00002700
00001 1DE5                       55          LR    R5,R5                                                    00002800
00002 D910           0007 0004   56          BP    L1                                                       00002900
00003 EDF3 0001      0001        57          LA    R5,1                                                     00003000
                                 58          AERROR 17            INDICES OUT-OF-BOUNDS FOR INPUT STRING    00003100
                                 59+*********ISSUE SEND ERROR SVC******************************************
00005 C9FB 0040      0040        60+         SVC   AERROR1        ISSUE SEND ERROR SVC                      01-AERRO
                                 61+*********SEND ERROR SVC RETURNS CONTROL FOR STANDARD FIXUP*************
                                 62 *                                                                       00003200
                                 63 *CHECK THE LAST CHAR (J) SPECIFIED.IF IT'S GREATER THAN                 00003300
                                 64 *THE CURRLENGTH OF THE INPUT STRING THEN THAT'S AN ERROR                00003400
                                 65 *ALSO.CALL ERROR ROUTINE AND REDUCE J TO THE CURRLENGTH                 00003500
                                 66 *                                                                       00003600
00007 9B02           0000        67 L1       LH    R3,0(R2)                                                 00003700
00008 B6E3 00FF           00FF   68          NHI   R3,X'00FF'                                               00003800
0000A 16E3                       69          CR    R6,R3                                                    00003900
0000B DE0C           000F 0003   70          BLE   L2                                                       00004000
0000C 1EE3                       71          LR    R6,R3                                                    00004100
                                 72          AERROR 17            INDICES OUT-OF-BOUNDS FOR INPUT STRING    00004200
                                 73+*********ISSUE SEND ERROR SVC******************************************
0000D C9FB 0040      0040        74+         SVC   AERROR1        ISSUE SEND ERROR SVC                      01-AERRO
                                 75+*********SEND ERROR SVC RETURNS CONTROL FOR STANDARD FIXUP*************
                                 76 *                                                                       00004300
i                                 77 *CHECK TO SEE IF J<I-1. IF SO THEN THIS IS AN ERROR ALSO                00004400
         CASPV - CHARACTER ASSIGN,PARTITIONED INPUT                                                            PAGE    3
  LOC  OBJECT CODE   ADR1 ADR2      SOURCE STATEMENT                                           AP101S 3.0 09.37 07/22/05
                                 78 *CALL ERROR ROUTINE AND GIVE THE FIXUP AS A NULL STRING                 00004500
                                 79 *                                                                       00004600
                                 80 *IF J<I AND THE INPUT STRING IS A NULL STRING THEN                      00004700
                                 81 *DO NOT GENERATE AN ERROR                                               00004800
                                 82 *                                                                       00004900
0000F 0EE5                       83 L2       SR    R6,R5                                                    00005000
00010 B0E6 0001           0001   84          AHI   R6,X'0001'                                               00005100
00012 DD14           0018 0005   85          BNM   L3                                                       00005200
00013 0EE6                       86          SR    R6,R6                                                    00005300
00014 1BE3                       87          LR    R3,R3                                                    00005400
00015 DC08           0018 0002   88          BZ    L3                                                       00005500
                                 89          AERROR 17            INDICES OUT-OF-BOUNDS FOR INPUT STRING    00005600
                                 90+*********ISSUE SEND ERROR SVC******************************************
00016 C9FB 0040      0040        91+         SVC   AERROR1        ISSUE SEND ERROR SVC                      01-AERRO
                                 92+*********SEND ERROR SVC RETURNS CONTROL FOR STANDARD FIXUP*************
                                 93 *                                                                       00005700
                                 94 *MAKE SURE PARTITION LENGTH DOES NOT EXCEED THE MAXLENGTH               00005800
                                 95 *OF THE DESTINATION STRING.IF IT DOES,TRUNCATE IT                       00005900
                                 96 *                                                                       00006000
00018 9B01           0000        97 L3       LH    R3,0(R1)                                                 00006100
00019 F322                0008   98          SRL   R3,8                                                     00006200
0001A B6E3 00FF           00FF   99          NHI   R3,X'00FF'                                               00006300
0001C 16E3                      100          CR    R6,R3                                                    00006400
0001D DE04           001F 0001  101          BLE   L4                                                       00006500
0001E 1EE3                      102          LR    R6,R3                                                    00006600
0001F F320                0008  103 L4       SLL   R3,8           RESTORE MAXLEN OF DESTINATION             00006700
00020 2BE6                      104          OR    R3,R6          WITH NEW CURRLEN                          00006800
00021 BB01           0000       105          STH   R3,0(R1)                                                 00006900
                                106 *                                                                       00007000
                                107 *INCREMENT CHAR COUNT BEFORE DIVIDING BY TWO TO ROUND                   00007100
                                108 *OFF RESULTING 1/2WD COUNT TO THE NEXT HIGHEST 1/2WD                    00007200
                                109 *                                                                       00007300
00022 B0E6 0001           0001  110          AHI   R6,X'0001'                                               00007400
00024 B5E6 0001           0001  111          CHI   R6,X'0001'     EXIT IF NULL PARTITION                    00007500
00026 DC58           003D 0016  112          BE    EXIT                                                     00007600
00027 F606                0001  113          SRL   R6,1                                                     00007700
                                114 *                                                                       00007800
                                115 *IF I IS ODD THEN ALL THAT IS INVOLVED IS A STRAIGHT                    00007900
                                116 *1/2WD TO 1/2WD TRANSFER                                                00008000
                                117 *                                                                       00008100
                                118 *IF NOT THEN YOU HAVE TO DEAL WITH ALIGNMENT PROBLEMS                   00008200
                                119 *SIMILARLY TO THE SECOND MOVEMENT IN CONCATENATE(CATV)                  00008300
                                120 *                                                                       00008400
00028 B3E5 0001           0001  121          TRB   R5,X'0001'                                               00008500
0002A F506                0001  122          SRL   R5,1                                                     00008600
0002B D92C           0037 000B  123          BO    L6                                                       00008700
0002C 02E5                      124          AR    R2,R5                                                    00008800
0002D 9D02           0000       125          LH    R5,0(R2)                                                 00008900
0002E 85FA 0001      0001       126 L5       IHL   R5,1(R2)                                                 00009000
00030 F520                0008  127          SLL   R5,8                                                     00009100
00031 BD05           0001       128          STH   R5,1(R1)                                                 00009200
00032 E905           0001       129          LA    R1,1(R1)                                                 00009300
00033 EA06           0001       130          LA    R2,1(R2)                                                 00009400
00034 F520                0008  131          SLL   R5,8                                                     00009500
00035 DE23           002E 0008  132          BCTB  R6,L5                                                    00009600
00036 DF18           003D 0006  133          B     EXIT                                                     00009700
00037 02E5                      134 L6       AR    R2,R5                                                    00009800
00038 9D06           0001       135 L7       LH   R5,1(R2)                                                  00009900
00039 BD05           0001       136          STH   R5,1(R1)                                                 00010000
0003A E905           0001       137          LA    R1,1(R1)                                                 00010100
0003B EA06           0001       138          LA    R2,1(R2)                                                 00010200
0003C DE17           0038 0005  139          BCTB  R6,L7                                                    00010300
                                140 EXIT     AEXIT                                                          00010400
                                141+*********RETURN TO CALLER**********************************************
0003D                           142+EXIT     DS    0H                                                       01-AEXIT
0003D 9B24           0009       143+         LH    3,9(0)         RESTORE LOCAL DATA BASE                   01-AEXIT
0003E 9914           0005       144+         LH    1,5(0)         RESTORE PROGRAM DATA BASE                 01-AEXIT
0003F C7EC                      145+$RET1    BCRE  7,4            RETURN TO CALLER                          01-AEXIT
                                146+***********************************************************************
                                148          ACLOSE                                                         00010500
00040                           149+         LTORG                                                          02-ERRPA
                                150+****************ERROR PARAMETER AREA***********************************
00040                           151+#LCASPV  CSECT                                                          02-ERRPA
                                152+***  CASPV SENDS THE FOLLOWING ERROR                                    02-ERRPA
                                154+***  ERROR NUMBER 17 IN GROUP 4                                         02-ERRPA
i00040 0014                      156+AERROR1  DC    H'20'          SVC CODE FOR SEND ERROR                   02-ERRPA
         CASPV - CHARACTER ASSIGN,PARTITIONED INPUT                                                            PAGE    4
  LOC  OBJECT CODE   ADR1 ADR2      SOURCE STATEMENT                                           AP101S 3.0 09.37 07/22/05
00041 0411                      157+         DC    Y(4*256+17)                      8 BIT GROUP AND NUMBER  02-ERRPA
                                158+****************END OF ERROR PARAMETER AREA****************************
                                159+         END                                                            01-ACLOS
¤
                                                 RELOCATION DICTIONARY                                         PAGE    5
 POS.ID   REL.ID   FLAGS   ADDRESS                                                             AP101S 3.0 09.37 07/22/05
  0001     0002     00     000006
  0001     0002     00     00000E
  0001     0002     00     000017
¤
                                             CROSS REFERENCE                                                   PAGE    6
SYMBOL    LEN    VALUE   DEFN   REFERENCES                                                     AP101S 3.0 09.37 07/22/05
AERROR1      1   000040   156     60    74    91
CASP         1   000001    45     46
CASPV        1 00000000    18
EXIT         1   00003D   142    112   133
L1           2   000007    67     56
L2           1   00000F    83     70
L3           2   000018    97     85    88
L4           1   00001F   103    101
L5           2   00002E   126    132
L6           1   000037   134    123
L7           2   000038   135    139
R1           1 00000001    28     33    33    97    97   105   105   128   128   129   129   129   136   136   137   137
                                 137
R2           1 00000002    23     67    67   124   125   125   126   126   130   130   130   134   135   135   138   138
                                 138
R3           1 00000003    31     67    68    69    71    87    87    97    98    99   100   102   103   104   105
R5           1 00000005    24     55    55    57    83   121   122   124   125   126   127   128   131   134   135   136
R6           1 00000006    25     69    71    83    84    86    86   100   102   104   110   111   113   132   139
$RET1        1   00003F   145
#LCASPV      1 00000040   151
¤
                                  DIAGNOSTIC CROSS REFERENCE AND ASSEMBLER SUMMARY                             PAGE    7
                                                                                               AP101S 3.0 09.37 07/22/05
     NO STATEMENTS FLAGGED IN THIS ASSEMBLY
   OVERRIDING PARAMETERS-  ESD,RLD,SYSPARM=PASS
   OPTIONS FOR THIS ASSEMBLY
    NODECK,LOAD,LIST,XREF,NORENT,TEST,NOMULT,ALGN,ESD ,RLD ,NOSREF,LINECT= 80,MSGLEVEL=   0,SYSPARM= PASS
   NO OVERRIDING DD NAMES
     110 CARDS FROM SYSIN     426 CARDS FROM SYSLIB
     203 LINES OUTPUT          10 CARDS OUTPUT
