¤
                                              EXTERNAL SYMBOL DICTIONARY                                       PAGE    1
SYMBOL   TYPE  ID  ADDR  LENGTH  LD ID                                                         AP101S 3.0 09.37 07/22/05
CASRV     SD 0001 000000 000024
CASR      LD      000006        0001
¤
         CASRV--CHARACTER ASSIGN, REMOTE                                                                       PAGE    2
  LOC  OBJECT CODE   ADR1 ADR2      SOURCE STATEMENT                                           AP101S 3.0 09.37 07/22/05
                                  2 *
                                  3 * WHEN DATA_REMOTE IS IN EFFECT, THE LDM INSTRUCTIONS ARE NEEDED
                                  4 * AROUND THE CALL TO THIS RTL ROUTINE BECAUSE R1/R3 IS USED AS
                                  5 * A BASE REGISTER. (CR12620)
                                  6 *
                                  7 CASRV    AMAIN                                                          00000200
                                  8+***********************************************************************
                                  9+*
                                 10+*        PRIMARY ENTRY POINT
                                 11+*
                                 12+***********************************************************************
00000                            13+CASRV    CSECT                                                          01-AMAIN
00000                            14+STACK    DSECT                                                          01-AMAIN
                                 15+*        DS    18H            STANDARD STACK AREA DEFINITION
00000                            16+         DS    F              PSW (LEFT HALF)                           01-AMAIN
00002                            17+         DS    2F             R0,R1                                     01-AMAIN
00006                            18+ARG2     DS    F              R2                                        01-AMAIN
00008                            19+         DS    F              R3                                        01-AMAIN
0000A                            20+ARG4     DS    F              R4                                        01-AMAIN
0000C                            21+ARG5     DS    F              R5                                        01-AMAIN
0000E                            22+ARG6     DS    F              R6                                        01-AMAIN
00010                            23+ARG7     DS    F              R7                                        01-AMAIN
                                 24+*        END OF STANDARD STACK AREA
                                 25+*        NO ADDITIONAL STACK STORAGE REQUIRED FOR THIS ROUTINE
00012                            26+STACKEND DS    0F             END OF COMBINED STACK AREA                01-AMAIN
00000                            27+CASRV    CSECT                                                          01-AMAIN
0000000                          28+         USING STACK,0        ADDRESS STACK AREA                        01-AMAIN
00000 B624 0000      0009 0000   29+         NIST  9(0),0         CLEAR ON ERROR INFO (LCL DATA PTR)        01-AMAIN
                                 31 *                                                                       00000300
                                 32 * ASSIGN C1 TO C2 WHERE C1 IS A TEMPORARY CHARACTER STRING AND          00000400
                                 33 *   C2 IS A REMOTE CHARACTER STRING.                                    00000500
                                 34 *                                                                       00000600
                                 35          INPUT R4             ZCON(CHARACTER) C1                        00000700
0000004                          36+R4       EQU   4                                                        01-INPUT
                                 38          OUTPUT R2            ZCON(CHARACTER) C2                        00000800
0000002                          39+R2       EQU   2                                                        01-OUTPU
                                 41          WORK  R3,R5,R7                                                 00000900
0000003                          42+R3       EQU   3                                                        01-WORK
0000005                          43+R5       EQU   5                                                        01-WORK
0000007                          44+R7       EQU   7                                                        01-WORK
                                 46 *                                                                       00001000
                                 47 * ALGORITHM:                                                            00001100
                                 48 *   DESCRIPTOR(C2) = 255 || 255;                                        00001200
                                 49 *   GO TO CASR;                                                         00001300
                                 50 *                                                                       00001400
00002 77E7                       51          XR    R7,R7          CLEAR R7                                  00001500
00003 A2F4 F806      0006        52          SHW@# ARG2(R7)       SET THE DESCRIPTOR FIELD OF C2            00001600
                                 53 *                             TO ALL ONES                               00001700
00005 DF08           0008 0002   54          B     MERG                                                     00001800
                                 55 CASR     AENTRY                                                         00001900
                                 56+***********************************************************************
                                 57+*
                                 58+*        SECONDARY ENTRY POINT
                                 59+*
                                 60+***********************************************************************
00006                            61+CASR     DS    0H                                                       01-AENTR
                                 62+         ENTRY CASR                                                     01-AENTR
00006 B624 0000      0009 0000   63+         NIST  9(0),0         CLEAR ERROR VECTOR POINTER                01-AENTR
                                 65 *                                                                       00002000
                                 66 * ASSIGN C1 TO C2 WHERE C1 AND C2 ARE CHARACTER STRINGS, AT LEAST       00002100
                                 67 *   ONE OF WHICH IS REMOTE.                                             00002200
                                 68 *                                                                       00002300
                                 69          INPUT R4             ZCON(CHARACTER) C1                        00002400
                                 71          OUTPUT R2            ZCON(CHARACTER) C2                        00002500
                                 73          WORK R3,R5,R7                                                  00002600
                                 75 *                                                                       00002700
                                 76 * ALGORITHM:                                                            00002800
                                 77 *   TEMP = MIN(CURRENT_LENGTH(C1), MAXIMUM_LENGTH(C2));                 00002900
                                 78 *   DESCRIPTOR(C2) = MAXIMUM_LENGTH(C2) || TEMP;                        00003000
                                 79 *   IF TEMP = 0 THEN                                                    00003100
                                 80 *     RETURN;                                                           00003200
i                                 81 *   DO FOR I = 1 TO (TEMP + 1) / 2 BY 2;                                00003300
         CASRV--CHARACTER ASSIGN, REMOTE                                                                       PAGE    3
  LOC  OBJECT CODE   ADR1 ADR2      SOURCE STATEMENT                                           AP101S 3.0 09.37 07/22/05
                                 82 *     C2$(2 AT I) = C1$(2 AT I);                                        00003400
                                 83 *   END;                                                                00003500
                                 84 *                                                                       00003600
00008 77E7                       85 MERG     XR    R7,R7          CLEAR R7 (TO BE USED IN INDEXED FORM)     00003700
00009 9BF4 F80A      000A        86          LH@#  R3,ARG4(R7)    GET C1 DESCRIPTOR HALFOWRD                00003800
0000B B6E3 00FF           00FF   87          NHI   R3,X'00FF'     MASK OFF MAXLENGTH                        00003900
0000D 9DF4 F806      0006        88          LH@#  R5,ARG2(R7)    GET C2 DESCRIPTOR HALFWORD                00004000
0000F F522                0008   89          SRL   R5,8           SHIFT MAXLEN TO LOWER BYTE                00004100
00010 B6E5 00FF           00FF   90          NHI   R5,X'00FF'     MASK (ALSO CLEARS LOWER HALF OF REGISTER) 00004200
00012 13E5                       91          CR    R3,R5          COMPARE CURRLEN TO MAXLEN                 00004300
00013 DE04           0015 0001   92          BLE   L1             IF CURRLEN > MAXLEN THEN                  00004400
00014 1BE5                       93          LR    R3,R5          MOVE MAXLEN TO CURRLEN                    00004500
00015 F520                0008   94 L1       SLL   R5,8           REMIX MAXLEN                              00004600
00016 2DE3                       95          OR    R5,R3          WITH CURRENT LENGTH                       00004700
00017 BDF4 F806      0006        96          STH@# R5,ARG2(R7)    SET DESCRIPTOR OF C2                      00004800
00019 EB07           0001        97          LA    R3,1(R3)       ADD 1 TO R3 (CURRENT LENGTH)              00004900
0001A B5E3 0001           0001   98          CHI   R3,X'0001'     IF NULL STRING EXIT                       00005000
0001C DC18           0023 0006   99          BE    EXIT                                                     00005100
0001D F306                0001  100          SRL   R3,1           GET # OF HALFWORDS TO BE MOVED            00005200
0001E 9DF4 780A      000A       101 L2       LH@#  R5,ARG4(R3)    GET HALFWORD FROM C1                      00005300
00020 BDF4 7806      0006       102          STH@# R5,ARG2(R3)    STORE IN HALFWORD OF C2                   00005400
00022 DB17           001E 0005  103          BCTB  R3,L2                                                    00005500
                                104 EXIT     AEXIT                                                          00005600
                                105+*********RETURN TO CALLER**********************************************
00023                           106+EXIT     DS    0H                                                       01-AEXIT
00023 97E8                      107+$RET1    SRET  7,0            RETURN TO CALLER                          01-AEXIT
                                108+***********************************************************************
                                110          ACLOSE                                                         00005700
00024                           111+         LTORG                                                          02-ERRPA
                                112+****************ERROR PARAMETER AREA***********************************
                                113+***  NO ERRORS SENT IN CASRV                                            02-ERRPA
                                114+****************END OF ERROR PARAMETER AREA****************************
                                115+         END                                                            01-ACLOS
¤
                                             CROSS REFERENCE                                                   PAGE    4
SYMBOL    LEN    VALUE   DEFN   REFERENCES                                                     AP101S 3.0 09.37 07/22/05
ARG2         2   000006    18     52    88    96   102
ARG4         2   00000A    20     86   101
ARG5         2   00000C    21
ARG6         2   00000E    22
ARG7         2   000010    23
CASR         1   000006    61     62
CASRV        1 00000000    13     27
EXIT         1   000023   106     99
L1           1   000015    94     92
L2           2   00001E   101    103
MERG         1   000008    85     54
R2           1 00000002    39
R3           1 00000003    42     86    87    91    93    95    97    97    97    98   100   101   102   103
R4           1 00000004    36
R5           1 00000005    43     88    89    90    91    93    94    95    96   101   102
R7           1 00000007    44     51    51    52    85    85    86    88    96
STACK        1 00000000    14     28
STACKEND     2   000012    26
$RET1        1   000023   107
¤
                                  DIAGNOSTIC CROSS REFERENCE AND ASSEMBLER SUMMARY                             PAGE    5
                                                                                               AP101S 3.0 09.37 07/22/05
     NO STATEMENTS FLAGGED IN THIS ASSEMBLY
   OVERRIDING PARAMETERS-  ESD,RLD,SYSPARM=PASS
   OPTIONS FOR THIS ASSEMBLY
    NODECK,LOAD,LIST,XREF,NORENT,TEST,NOMULT,ALGN,ESD ,RLD ,NOSREF,LINECT= 80,MSGLEVEL=   0,SYSPARM= PASS
   NO OVERRIDING DD NAMES
      62 CARDS FROM SYSIN     410 CARDS FROM SYSLIB
     147 LINES OUTPUT           8 CARDS OUTPUT
