¤
                                              EXTERNAL SYMBOL DICTIONARY                                       PAGE    1
SYMBOL   TYPE  ID  ADDR  LENGTH  LD ID                                                         AP101S 3.0 09.37 07/22/05
CTOB      SD 0001 000000 000020
#QGTBYTE  ER 0002
#LCTOB    SD 0003 000020 000002
¤
         CTOB--CHARACTER TO BIT STRING CONVERSION                                                              PAGE    2
  LOC  OBJECT CODE   ADR1 ADR2      SOURCE STATEMENT                                           AP101S 3.0 09.37 07/22/05
                                  2 *
                                  3 * WHEN DATA_REMOTE IS IN EFFECT, THE LDM INSTRUCTIONS ARE NOT NEEDED
                                  4 * AROUND THE CALL TO THIS RTL ROUTINE BECAUSE R1/R3 IS NOT USED AS
                                  5 * A BASE REGISTER. (CR12620)
                                  6 *
                                  7 CTOB     AMAIN                                                          00000200
                                  8+***********************************************************************
                                  9+*
                                 10+*        PRIMARY ENTRY POINT
                                 11+*
                                 12+***********************************************************************
00000                            13+CTOB     CSECT                                                          01-AMAIN
00000                            14+STACK    DSECT                                                          01-AMAIN
                                 15+*        DS    18H            STANDARD STACK AREA DEFINITION
00000                            16+         DS    F              PSW (LEFT HALF)                           01-AMAIN
00002                            17+         DS    2F             R0,R1                                     01-AMAIN
00006                            18+ARG2     DS    F              R2                                        01-AMAIN
00008                            19+         DS    F              R3                                        01-AMAIN
0000A                            20+ARG4     DS    F              R4                                        01-AMAIN
0000C                            21+ARG5     DS    F              R5                                        01-AMAIN
0000E                            22+ARG6     DS    F              R6                                        01-AMAIN
00010                            23+ARG7     DS    F              R7                                        01-AMAIN
                                 24+*        END OF STANDARD STACK AREA
                                 25+*        NO ADDITIONAL STACK STORAGE REQUIRED FOR THIS ROUTINE
00012                            26+STACKEND DS    0F             END OF COMBINED STACK AREA                01-AMAIN
00000                            27+CTOB     CSECT                                                          01-AMAIN
0000000                          28+         USING STACK,0        ADDRESS STACK AREA                        01-AMAIN
00000 B624 0000      0009 0000   29+         NIST  9(0),0         CLEAR ON ERROR INFO (LCL DATA PTR)        01-AMAIN
                                 31 *                                                                       00000300
                                 32 * CONVERT A CHARACTER STRING, C1, TO A BIT STRING, B2.                  00000400
                                 33 *                                                                       00000500
                                 34          INPUT R2             CHARACTER(C1)                             00000600
0000002                          35+R2       EQU   2                                                        01-INPUT
                                 37          OUTPUT R5            BIT(32) ( THIS IS B1 )                    00000700
0000005                          38+R5       EQU   5                                                        01-OUTPU
                                 40          WORK  R3,R6,R7,F0                                              00000800
0000003                          41+R3       EQU   3                                                        01-WORK
0000006                          42+R6       EQU   6                                                        01-WORK
0000007                          43+R7       EQU   7                                                        01-WORK
0000000                          44+F0       EQU   0                                                        01-WORK
                                 46 *                                                                       00000900
                                 47 * ALGORITHM:                                                            00001000
                                 48 *   TEMP = 0;                                                           00001100
                                 49 *   ONES = -1;                                                          00001200
                                 50 *   IF CURRENT_LENGTH(C1) = 0 THEN                                      00001300
                                 51 *     DO;                                                               00001400
                                 52 *       SEND ERROR$(4:29);                                              00001500
                                 53 *       RETURN 0;                                                       00001600
                                 54 *     END;                                                              00001700
                                 55 *   DO FOR I = 1 TO CURRENT_LENGTH(C1);                                 00001800
                                 56 *     IF C1$(I) = '0' THEN                                              00001900
                                 57 *       TEMP = SLL(TEMP,1);                                             00002000
                                 58 *     ELSE                                                              00002100
                                 59 *       IF C1$(I) = '1' THEN                                            00002200
                                 60 *         DO;                                                           00002300
                                 61 *           TEMP = SLDL(TEMP || ONES,1);                                00002400
                                 62 *           ONES = SRA(ONES,1); /* MAINTAINS # OF ONES IN ONES */       00002500
                                 63 *         END;                                                          00002600
                                 64 *       ELSE                                                            00002700
                                 65 *         IF C1$(I) ^= ' ' THEN                                         00002800
                                 66 *           DO;                                                         00002900
                                 67 *             SEND ERROR$(4:29);                                        00003000
                                 68 *             RETURN 0;                                                 00003100
                                 69 *           END;                                                        00003200
                                 70 *   END;                                                                00003300
                                 71 *   RETURN TEMP;                                                        00003400
                                 72 *                                                                       00003500
00002 76E6                       73          XR    R6,R6          CLEAR R6 (WILL ACT AS ACCUMULATOR)        00003600
00003 9B02           0000        74          LH    R3,0(R2)       GET C1 DESCRIPTOR                         00003700
00004 B6E3 00FF           00FF   75          NHI   R3,X'00FF'     MASK OFF MAXIMUM LENGTH                   00003800
00006 DC54           001C 0015   76          BZ    ERROR          IF CURRENT LENGTH = 0 THEN ERROR          00003900
00007 EFF3 FFFF      FFFF        77          LHI   R7,X'FFFF'     PUT ONES IN R7                            00004000
                                 78 *                                                                       00004100
                                 79 LOOP     ABAL  GTBYTE         CHARACTER IN TOP HALF R5                  00004200
                                 80+         EXTRN #QGTBYTE                                                 01-ABAL
i00009 E4F7                       81+LOOP     DC  X'E4F7'          CALL INTRINSIC INDIRECTLY                 01-ABAL
         CTOB--CHARACTER TO BIT STRING CONVERSION                                                              PAGE    3
  LOC  OBJECT CODE   ADR1 ADR2      SOURCE STATEMENT                                           AP101S 3.0 09.37 07/22/05
0000A 3800                       82+         DC  Y(#QGTBYTE+X'3800')                                       X01-ABAL
                                   +                              THROUGH QCON
0000B B5E5 0030           0030   83          CHI   R5,X'30'       IF CHARACTER IS NOT '0',                  00004300
0000D DB08           0010 0002   84          BNE   CK1            SEE IF IT IS '1'.                         00004400
0000E F604                0001   85          SLL   R6,1           ENTER 0 IN LOW BIT R6                     00004500
0000F DF24           0019 0009   86          B     DECLEN                                                   00004600
                                 87 *                                                                       00004700
00010 B5E5 0031           0031   88 CK1      CHI   R5,X'31'       IF CHARACTER IS NOT '1',                  00004800
00012 DB0C           0016 0003   89          BNE   CKB            SEE IF IT IS A BLANK                      00004900
00013 FE04                0001   90          SLDL  R6,1           ENTER 1 IN LOW BIT R6                     00005000
00014 F705                0001   91          SRA   R7,1           KEEP PLENTY OF ONES IN R7                 00005100
00015 DF0C           0019 0003   92          B     DECLEN                                                   00005200
                                 93 *                                                                       00005300
00016 B5E5 0020           0020   94 CKB      CHI   R5,X'20'       IF CHARACTER IS NOT BLANK, ERROR:         00005400
00018 DB0C           001C 0003   95          BNE   ERROR          ONLY '0','1',AND ' ' ARE VALID            00005500
                                 96 *                                                                       00005600
00019 DB47           0009 0011   97 DECLEN   BCT   R3,LOOP        DECREMENT LENGTH AND LOOP IF ^=0          00005700
                                 98 *                                                                       00005800
0001A 3618           000C        99 EXIT     ST    R6,ARG5        RETURN VALUE IN R5                        00005900
                                100          AEXIT                                                          00006000
                                101+*********RETURN TO CALLER**********************************************
0001B                           102+         DS    0H                                                       01-AEXIT
0001B 97E8                      103+$RET1    SRET  7,0            RETURN TO CALLER                          01-AEXIT
                                104+***********************************************************************
                                106 *                                                                       00006100
                                107 ERROR    AERROR 29            ILLEGAL BIT STRING                        00006200
                                108+*********ISSUE SEND ERROR SVC******************************************
0001C C9FB 0020      0020       109+ERROR    SVC   AERROR1        ISSUE SEND ERROR SVC                      01-AERRO
                                110+*********SEND ERROR SVC RETURNS CONTROL FOR STANDARD FIXUP*************
0001E 76E6                      111          XR    R6,R6          FIXUP RETURNS 0                           00006300
0001F DF1A           001A 0006  112          B     EXIT                                                     00006400
                                113 *                                                                       00006500
                                114          ACLOSE                                                         00006600
00020                           115+         LTORG                                                          02-ERRPA
                                116+****************ERROR PARAMETER AREA***********************************
00020                           117+#LCTOB   CSECT                                                          02-ERRPA
                                118+***  CTOB SENDS THE FOLLOWING ERROR                                     02-ERRPA
                                120+***  ERROR NUMBER 29 IN GROUP 4                                         02-ERRPA
00020 0014                      122+AERROR1  DC    H'20'          SVC CODE FOR SEND ERROR                   02-ERRPA
00021 041D                      123+         DC    Y(4*256+29)                      8 BIT GROUP AND NUMBER  02-ERRPA
                                124+****************END OF ERROR PARAMETER AREA****************************
                                125+         END                                                            01-ACLOS
¤
                                                 RELOCATION DICTIONARY                                         PAGE    4
 POS.ID   REL.ID   FLAGS   ADDRESS                                                             AP101S 3.0 09.37 07/22/05
  0001     0002     00     00000A
  0001     0003     00     00001D
¤
                                             CROSS REFERENCE                                                   PAGE    5
SYMBOL    LEN    VALUE   DEFN   REFERENCES                                                     AP101S 3.0 09.37 07/22/05
AERROR1      1   000020   122    109
ARG2         2   000006    18
ARG4         2   00000A    20
ARG5         2   00000C    21     99
ARG6         2   00000E    22
ARG7         2   000010    23
CK1          2   000010    88     84
CKB          2   000016    94     89
CTOB         1 00000000    13     27
DECLEN       2   000019    97     86    92
ERROR        2   00001C   109     76    95
EXIT         2   00001A    99    112
F0           1 00000000    44
LOOP         1   000009    81     97
R2           1 00000002    35     74    74
R3           1 00000003    41     74    75    97
R5           1 00000005    38     83    88    94
R6           1 00000006    42     73    73    85    90    99   111   111
R7           1 00000007    43     77    91
STACK        1 00000000    14     28
STACKEND     2   000012    26
$RET1        1   00001B   103
#LCTOB       1 00000020   117
#QGTBYTE     1 00000000    80     82
¤
                                  DIAGNOSTIC CROSS REFERENCE AND ASSEMBLER SUMMARY                             PAGE    6
                                                                                               AP101S 3.0 09.37 07/22/05
     NO STATEMENTS FLAGGED IN THIS ASSEMBLY
   OVERRIDING PARAMETERS-  ESD,RLD,SYSPARM=PASS
   OPTIONS FOR THIS ASSEMBLY
    NODECK,LOAD,LIST,XREF,NORENT,TEST,NOMULT,ALGN,ESD ,RLD ,NOSREF,LINECT= 80,MSGLEVEL=   0,SYSPARM= PASS
   NO OVERRIDING DD NAMES
      71 CARDS FROM SYSIN     424 CARDS FROM SYSLIB
     171 LINES OUTPUT          11 CARDS OUTPUT
