¤
                                              EXTERNAL SYMBOL DICTIONARY                                       PAGE    1
SYMBOL   TYPE  ID  ADDR  LENGTH  LD ID                                                         AP101S 3.0 09.37 07/22/05
DLOG      SD 0001 000000 0000B8
#LDLOG    SD 0002 0000B8 000002
¤
         DLOG -- DOUBLE PRECISION LOGARITHM FUNCTION                                                           PAGE    2
  LOC  OBJECT CODE   ADR1 ADR2      SOURCE STATEMENT                                           AP101S 3.0 09.37 07/22/05
                                  2 *
                                  3 * WHEN DATA_REMOTE IS IN EFFECT, THE LDM INSTRUCTIONS ARE NOT NEEDED
                                  4 * AROUND THE CALL TO THIS RTL ROUTINE BECAUSE R1/R3 IS NOT USED AS
                                  5 * A BASE REGISTER. (CR12620)
                                  6 *
                                  7 *                                                                       00000200
                                  8 *      LOGARITHMIC FUNCTION (LONG)                                      00000300
                                  9 *              1. WRITE X = (M*2**-Q)*16**P, M MANTISSA BETWEEN 1/2     00000400
                                 10 *                   AND 1, Q INTEGER BETWEEN 0 AND 3. DEFINE A=1, B=0   00000500
                                 11 *                     IF M GREATER THAN SQRT2/2, OTHERWISE A=1/2, B=1.  00000600
                                 12 *              2. WRITE Z = (M-A)/(M+A), THEN                           00000700
                                 13 *                   LOG(X) = (4P-Q-B)LOG(2)+LOG((1+Z)/(1-Z)).           00000800
                                 14 *                                                                       00000900
                                 15 * REVISION HISTORY
                                 16 * ----------------
                                 17 * DATE     NAME  REL   DR NUMBER AND TITLE
                                 18 *
                                 19 * 02/16/93  RAH  24V1  DR108626 - DLOG CAN ALTER F6 AND F7
                                 20 *                        UNINTENTIONALLY. FIX - MOVED THE STED INST
                                 21 *                        BEFORE THE START LABEL.
                                 22 *
                                 23          MACRO                                                          00001000
                                 24          WORKAREA                                                       00001100
                                 25 SAVE6    DS    D                                                        00001200
                                 26          MEND                                                           00001300
                                 27 *                                                                       00001400
                                 28 DLOG     AMAIN QDED=YES                                                 00001500
                                 29+***********************************************************************
                                 30+*
                                 31+*        PRIMARY ENTRY POINT
                                 32+*
                                 33+***********************************************************************
00000                            34+DLOG     CSECT                                                          01-AMAIN
00000                            35+STACK    DSECT                                                          01-AMAIN
                                 36+*        DS    18H            STANDARD STACK AREA DEFINITION
00000                            37+         DS    F              PSW (LEFT HALF)                           01-AMAIN
00002                            38+         DS    2F             R0,R1                                     01-AMAIN
00006                            39+ARG2     DS    F              R2                                        01-AMAIN
00008                            40+         DS    F              R3                                        01-AMAIN
0000A                            41+ARG4     DS    F              R4                                        01-AMAIN
0000C                            42+ARG5     DS    F              R5                                        01-AMAIN
0000E                            43+ARG6     DS    F              R6                                        01-AMAIN
00010                            44+ARG7     DS    F              R7                                        01-AMAIN
                                 45+*        END OF STANDARD STACK AREA
00012                            46+SAVE6    DS    D                                                        02-00025
00016                            47+QARGA    DS    D                                                        01-AMAIN
0001A                            48+QARGB    DS    D                                                        01-AMAIN
0001E                            49+STACKEND DS    0F             END OF COMBINED STACK AREA                01-AMAIN
00000                            50+DLOG     CSECT                                                          01-AMAIN
0000000                          51+         USING STACK,0        ADDRESS STACK AREA                        01-AMAIN
00000 B624 0000      0009 0000   52+         NIST  9(0),0         CLEAR ON ERROR INFO (LCL DATA PTR)        01-AMAIN
                                 54 * COMPUTE LOG(X) IN DOUBLE PRECISION                                    00001600
                                 55          INPUT F0             SCALAR DP                                 00001700
0000000                          56+F0       EQU   0                                                        01-INPUT
                                 58          OUTPUT F0            SCALAR DP                                 00001800
                                 60          WORK  R2,R3,R4,R5,R6,R7,F1,F2,F3,F4,F6                         00001900
0000002                          61+R2       EQU   2                                                        01-WORK
0000003                          62+R3       EQU   3                                                        01-WORK
0000004                          63+R4       EQU   4                                                        01-WORK
0000005                          64+R5       EQU   5                                                        01-WORK
0000006                          65+R6       EQU   6                                                        01-WORK
0000007                          66+R7       EQU   7                                                        01-WORK
0000001                          67+F1       EQU   1                                                        01-WORK
0000002                          68+F2       EQU   2                                                        01-WORK
0000003                          69+F3       EQU   3                                                        01-WORK
0000004                          70+F4       EQU   4                                                        01-WORK
                                 71+***** WARNING: F6 MUST BE PRESERVED ACROSS CALLS                        01-WORK
0000006                          72+F6       EQU   6                                                        01-WORK
00002 3EF8 0012      0012        74          STED  F6,SAVE6                                  /* DR108626 */
00004 7BE1                       75 START    LER   F3,F1                                                    00002000
00005 7AE0                       76          LER   F2,F0                                                    00002100
00006 C6F7 0073      007B 0073   77          BNP   ERROR                                                    00002200
00008 26E8                       78          LFXR  R6,F0                                                    00002400
00009 27E9                       79          LFXR  R7,F1                                                    00002500
0000A 1AE6                       80          LR    R2,R6                                                    00002600
i0000B 0BE3                       81          SR    R3,R3                                                    00002700
         DLOG -- DOUBLE PRECISION LOGARITHM FUNCTION                                                           PAGE    3
  LOC  OBJECT CODE   ADR1 ADR2      SOURCE STATEMENT                                           AP101S 3.0 09.37 07/22/05
0000C FA62                0018   82          SRDL  R2,24                                                    00002800
0000D F306                0001   83          SRL   R3,1                                                     00002900
0000E E5EB                       84          NCT   R5,R3          Q IN R5, M IN R7                          00003000
0000F F248                0012   85          SLL   R2,18                                                    00003100
00010 0AE5                       86          SR    R2,R5          4P-Q+OFFSET IN R6 TOP                     00003200
00011 FEF4                003D   87          SLDL  R6,61                                                    00003300
00012 26F7 00A0      00B4 00A0   88          N     R6,MASK                                                  00003400
00014 B0E6 4000           4000   89          AHI   R6,X'4000'                                               00003500
00016 28EE                       90          LFLR  F0,R6                                                    00003600
00017 29EF                       91          LFLR  F1,R7                                                    00003700
00018 7CFF 008C      00A6 008C   92          LED   F4,ONE                                                   00003800
0001A 7EFF 008E      00AA 008E   93          LED   F6,HALF                                                  00003900
0001C 48FF 0094      00B2 0094   94          CE    F0,LIMIT                                                 00004000
0001E D914           0024 0005   95          BH    POS                                                      00004100
0001F 7CFF 0089      00AA 0089   96          LED   F4,HALF                                                  00004200
00021 7EFF 008B      00AE 008B   97          LED   F6,QUARTER                                               00004300
00023 DA03           0024 0000   98          BCTB  R2,*+1         B=1                                       00004400
                                 99 *                                                                       00004500
00024 EA16           0005       100 POS      LA    R2,5(R2)       **INCREMENT BIAS BY 5  /*DR103652-ADD*/   00004601
00025 F242                0010  101          SRL   R2,16          GET 4P-Q-B+261 IN R2   /*DR103652-MOD*/   00004701
00026 B0E2 4600           4600  102          AHI   R2,X'4600'     BOTTOM, AND FLOAT                         00004800
                                103 *                                                                       00004900
                                104 *  COMPUTE 2Z=(M-A)/(0.5M+0.5A)                                         00005000
                                105 *                                                                       00005100
00028 7AE0                      106          LER   F2,F0                                                    00005200
00029 7BE1                      107          LER   F3,F1                                                    00005300
0002A 32FF 007E      00AA 007E  108          MED   F2,HALF                                                  00005400
0002C 58EC                      109          SEDR  F0,F4                                                    00005500
0002D 52EE                      110          AEDR  F2,F6                                                    00005600
0002E 78E0                      111          LER   F0,F0          CHECK IF DIVIDEND ZERO                    00005700
                                112         QDEDR  F0,F2                                                    00005800
0002F 38F8 0016      0016       113+         STED  F0,QARGA                                                 01-QDEDR
00031 3AF8 001A      001A       114+         STED  F2,QARGB                                                 01-QDEDR
00033 68E2                      115+         DER   F0,F2                                                    01-QDEDR
00034 7AE0                      116+         LER   F2,F0                                                    01-QDEDR
00035 7BE1                      117+         LER   F2+1,F0+1                                                01-QDEDR
00036 32F8 001A      001A       118+         MED   F2,QARGB                                                 01-QDEDR
00038 5AF8 0016      0016       119+         SED   F2,QARGA                                                 01-QDEDR
0003A 6A34           001A       120+         DE    F2,QARGB                                                 01-QDEDR
0003B 58EA                      121+         SEDR  F0,F2                                                    01-QDEDR
0003C 7AF8 001A      001A       122+         LED   F2,QARGB                                                 01-QDEDR
                                123 *                                                                       00005900
                                124 *  COMPUTE LOG((1+Z)/(1-Z)) BY A MINIMAX                                00006000
                                125 *  APPROXIMATION OF THE FORM                                            00006100
                                126 *  W+C1*W**3(W**2+C2+C3/(W**2+C4+C5/(W**2+C6))).                        00006200
0003E 7AE0                      127          LER   F2,F0                                                    00006300
0003F 7BE1                      128          LER   F3,F1                                                    00006400
00040 32EA                      129          MEDR  F2,F2                                                    00006500
00041 7CFF 0047      008A 0047  130          LED   F4,C6                                                    00006600
00043 54EA                      131          AEDR  F4,F2                                                    00006700
00044 7EFF 0048      008E 0048  132          LED   F6,C5                                                    00006800
                                133         QDEDR  F6,F4                                                    00006900
00046 3EF8 0016      0016       134+         STED  F6,QARGA                                                 01-QDEDR
00048 3CF8 001A      001A       135+         STED  F4,QARGB                                                 01-QDEDR
0004A 6EE4                      136+         DER   F6,F4                                                    01-QDEDR
0004B 7CE6                      137+         LER   F4,F6                                                    01-QDEDR
0004C 7DE7                      138+         LER   F4+1,F6+1                                                01-QDEDR
0004D 34F8 001A      001A       139+         MED   F4,QARGB                                                 01-QDEDR
0004F 5CF8 0016      0016       140+         SED   F4,QARGA                                                 01-QDEDR
00051 6C34           001A       141+         DE    F4,QARGB                                                 01-QDEDR
00052 5EEC                      142+         SEDR  F6,F4                                                    01-QDEDR
00053 7CF8 001A      001A       143+         LED   F4,QARGB                                                 01-QDEDR
00055 56FF 003B      0092 003B  144          AED   F6,C4                                                    00007000
00057 56EA                      145          AEDR  F6,F2                                                    00007100
00058 7CFF 003C      0096 003C  146          LED   F4,C3                                                    00007200
                                147         QDEDR  F4,F6                                                    00007300
0005A 3CF8 0016      0016       148+         STED  F4,QARGA                                                 01-QDEDR
0005C 3EF8 001A      001A       149+         STED  F6,QARGB                                                 01-QDEDR
0005E 6CE6                      150+         DER   F4,F6                                                    01-QDEDR
0005F 7EE4                      151+         LER   F6,F4                                                    01-QDEDR
00060 7FE5                      152+         LER   F6+1,F4+1                                                01-QDEDR
00061 36F8 001A      001A       153+         MED   F6,QARGB                                                 01-QDEDR
00063 5EF8 0016      0016       154+         SED   F6,QARGA                                                 01-QDEDR
00065 6E34           001A       155+         DE    F6,QARGB                                                 01-QDEDR
00066 5CEE                      156+         SEDR  F4,F6                                                    01-QDEDR
00067 7EF8 001A      001A       157+         LED   F6,QARGB                                                 01-QDEDR
00069 54FF 002F      009A 002F  158          AED   F4,C2                                                    00007400
0006B 54EA                      159          AEDR  F4,F2                                                    00007500
0006C 34FF 0030      009E 0030  160          MED   F4,C1                                                    00007600
i0006E 34EA                      161          MEDR  F4,F2                                                    00007700
         DLOG -- DOUBLE PRECISION LOGARITHM FUNCTION                                                           PAGE    4
  LOC  OBJECT CODE   ADR1 ADR2      SOURCE STATEMENT                                           AP101S 3.0 09.37 07/22/05
0006F 34E8                      162          MEDR  F4,F0                                                    00007800
00070 54E8                      163          AEDR  F4,F0                                                    00007900
                                164 *                                                                       00008000
00071 28EA                      165          LFLR  F0,R2                                                    00008100
00072 59E1                      166          SER   F1,F1          4P-Q-B+261  /*DR103652-MOD COMMENT*/      00008201
00073 58F7 0041      00B6 0041  167          SE    F0,E261        4P-Q-B      /*DR103652-MOD*/              00008301
00075 30FF 002B      00A2 002B  168          MED   F0,LOGE2                                                 00008400
00077 50EC                      169          AEDR  F0,F4                                                    00008500
                                170 *                                                                       00008600
00078 7EF8 0012      0012       171 EXIT     LED   F6,SAVE6                                                 00008700
                                172          AEXIT                                                          00008800
                                173+*********RETURN TO CALLER**********************************************
0007A                           174+         DS    0H                                                       01-AEXIT
0007A 97E8                      175+$RET1    SRET  7,0            RETURN TO CALLER                          01-AEXIT
                                176+***********************************************************************
                                178 *                                                                       00008900
                                179 ERROR    AERROR 7             ARG<=0                                    00009000
                                180+*********ISSUE SEND ERROR SVC******************************************
0007B C9FB 00B8      00B8       181+ERROR    SVC   AERROR1        ISSUE SEND ERROR SVC                      01-AERRO
                                182+*********SEND ERROR SVC RETURNS CONTROL FOR STANDARD FIXUP*************
0007D 78E0                      183          LER   F0,F0                                                    00009100
0007E DC0C           0082 0003  184          BZ    FIXUP                                                    00009200
0007F 78E8                      185          LECR  F0,F0                                                    00009300
00080 C7F7 087E      0004 007E  186          B     START                                                    00009400
00082 78FF 0002      0086 0002  187 FIXUP    LED   F0,INFINITY                                              00009500
00084 DF36           0078 000D  188          B     EXIT                                                     00009600
                                189 *                                                                       00009700
00085 C9FB
00086                           190          DS    0D                                                       00009800
00086 FFFFFFFFFFFFFFFF          191 INFINITY DC    X'FFFFFFFFFFFFFFFF'    FIX FOR ZERO ARGUMENT             00009900
0008A C158FA4E0E40C0A5          192 C6       DC    X'C158FA4E0E40C0A5'    -0.5561109595943017E+1            00010000
0008E C12A017578F548D1          193 C5       DC    X'C12A017578F548D1'    -0.2625356171124214E+1            00010100
00092 C16F2A64DDFCC1FD          194 C4       DC    X'C16F2A64DDFCC1FD'    -0.6947850100648906E+1            00010200
00096 C38E5A1C55CEB1C4          195 C3       DC    X'C38E5A1C55CEB1C4'    -0.2277631917769813E+4            00010300
0009A 422FC604E13C20FE          196 C2       DC    X'422FC604E13C20FE'     0.4777351196020117E+2            00010400
0009E 3DDABB6C9F18C6DD          197 C1       DC    X'3DDABB6C9F18C6DD'     0.2085992109128247E-3            00010500
000A2 40B17217F7D1CF7B          198 LOGE2    DC    X'40B17217F7D1CF7B'     LOG(2) BASE E + FUDGE 1          00010600
000A6 4110000000000000          199 ONE      DC    X'4110000000000000'    1.0                               00010700
000AA 4080000000000000          200 HALF     DC    X'4080000000000000'    0.5                               00010800
000AE 4040000000000000          201 QUARTER  DC    X'4040000000000000'    0.25                              00010900
000B2 40B504F3                  202 LIMIT    DC    X'40B504F3'               1/SQRT 2                       00011000
000B4 00FFFFFF                  203 MASK     DC    X'00FFFFFF'                                              00011100
000B6 43105000                  204 E261     DC    X'43105000'    261.0   /*DR103652-MOD*/                  00011201
                                205          ACLOSE                                                         00011300
000B8                           206+         LTORG                                                          02-ERRPA
                                207+****************ERROR PARAMETER AREA***********************************
000B8                           208+#LDLOG   CSECT                                                          02-ERRPA
                                209+***  DLOG SENDS THE FOLLOWING ERROR                                     02-ERRPA
                                211+***  ERROR NUMBER 7 IN GROUP 4                                          02-ERRPA
000B8 0014                      213+AERROR1  DC    H'20'          SVC CODE FOR SEND ERROR                   02-ERRPA
000B9 0407                      214+         DC    Y(4*256+7)                       8 BIT GROUP AND NUMBER  02-ERRPA
                                215+****************END OF ERROR PARAMETER AREA****************************
                                216+         END                                                            01-ACLOS
¤
                                                 RELOCATION DICTIONARY                                         PAGE    5
 POS.ID   REL.ID   FLAGS   ADDRESS                                                             AP101S 3.0 09.37 07/22/05
  0001     0002     00     00007C
¤
                                             CROSS REFERENCE                                                   PAGE    6
SYMBOL    LEN    VALUE   DEFN   REFERENCES                                                     AP101S 3.0 09.37 07/22/05
AERROR1      1   0000B8   213    181
ARG2         2   000006    39
ARG4         2   00000A    41
ARG5         2   00000C    42
ARG6         2   00000E    43
ARG7         2   000010    44
C1           4   00009E   197    160
C2           4   00009A   196    158
C3           4   000096   195    146
C4           4   000092   194    144
C5           4   00008E   193    132
C6           4   00008A   192    130
DLOG         1 00000000    34     50
E261         2   0000B6   204    167
ERROR        2   00007B   181     77
EXIT         2   000078   171    188
F0           1 00000000    56     76    78    90    94   106   109   111   111   113   115   116   117   121   127   162
                                 163   165   167   168   169   183   183   185   185   187
F1           1 00000001    67     75    79    91   107   128   166   166
F2           1 00000002    68     76   106   108   110   114   115   116   117   118   119   120   121   122   127   129
                                 129   131   145   159   161
F3           1 00000003    69     75   107   128
F4           1 00000004    70     92    96   109   130   131   135   136   137   138   139   140   141   142   143   146
                                 148   150   151   152   156   158   159   160   161   162   163   169
F6           1 00000006    72     74    93    97   110   132   134   136   137   138   142   144   145   149   150   151
                                 152   153   154   155   156   157   171
FIXUP        2   000082   187    184
HALF         4   0000AA   200     93    96   108
INFINITY     4   000086   191    187
LIMIT        2   0000B2   202     94
LOGE2        4   0000A2   198    168
MASK         2   0000B4   203     88
ONE          4   0000A6   199     92
POS          2   000024   100     95
QARGA        4   000016    47    113   119   134   140   148   154
QARGB        4   00001A    48    114   118   120   122   135   139   141   143   149   153   155   157
QUARTER      4   0000AE   201     97
R2           1 00000002    61     80    82    85    86    98   100   100   100   101   102   165
R3           1 00000003    62     81    81    83    84
R4           1 00000004    63
R5           1 00000005    64     84    86
R6           1 00000006    65     78    80    87    88    89    90
R7           1 00000007    66     79    91
SAVE6        4   000012    46     74   171
STACK        1 00000000    35     51
STACKEND     2   00001E    49
START        1   000004    75    186
$RET1        1   00007A   175
#LDLOG       1 000000B8   208
¤
                                  DIAGNOSTIC CROSS REFERENCE AND ASSEMBLER SUMMARY                             PAGE    7
                                                                                               AP101S 3.0 09.37 07/22/05
     NO STATEMENTS FLAGGED IN THIS ASSEMBLY
   OVERRIDING PARAMETERS-  ESD,RLD,SYSPARM=PASS
   OPTIONS FOR THIS ASSEMBLY
    NODECK,LOAD,LIST,XREF,NORENT,TEST,NOMULT,ALGN,ESD ,RLD ,NOSREF,LINECT= 80,MSGLEVEL=   0,SYSPARM= PASS
   NO OVERRIDING DD NAMES
     126 CARDS FROM SYSIN     380 CARDS FROM SYSLIB
     287 LINES OUTPUT          20 CARDS OUTPUT
