¤
                                              EXTERNAL SYMBOL DICTIONARY                                       PAGE    1
SYMBOL   TYPE  ID  ADDR  LENGTH  LD ID                                                         AP101S 3.0 09.37 07/22/05
DTAN      SD 0001 000000 0000C4
#LDTAN    SD 0002 0000C4 000004
¤
         DTAN  DOUBLE PRECISION TANGENT                                                                        PAGE    2
  LOC  OBJECT CODE   ADR1 ADR2      SOURCE STATEMENT                                           AP101S 3.0 09.37 07/22/05
                                  2 *
                                  3 * WHEN DATA_REMOTE IS IN EFFECT, THE LDM INSTRUCTIONS ARE NOT NEEDED
                                  4 * AROUND THE CALL TO THIS RTL ROUTINE BECAUSE R1/R3 IS NOT USED AS
                                  5 * A BASE REGISTER. (CR12620)
                                  6 *
                                  7 *                                                                       00000201
                                  8 * REVISION HISTORY:                                                     00000301
                                  9 *                                                                       00000401
                                 10 *   DATE       NAME  DR/SSCR#   DESCRIPTION                             00000501
                                 11 *   --------   ----  --------   -------------------------------------   00000601
                                 12 *   12/16/89   JAC   DR103762   REPLACED QCED/QCEDR MACRO WITH          00000701
                                 13 *                               CED/CEDR INSTRUCTION                    00000801
                                 14 *   02/22/93   RSJ   DR108670   REPLACED QDEDR F0,PIOV4 WITH
                                 15 *                               MED F0,FOUROVPI
                                 16 *                                                                       00000901
                                 17          MACRO                                                          00001000
                                 18          WORKAREA                                                       00001100
                                 19 OCTANT   DS    D                                                        00001200
                                 20 TEMP     DS    D                                                        00001300
                                 21 TEST     DS    D                                                        00001400
                                 22          MEND                                                           00001500
                                 23 *                                                                       00001600
                                 24 DTAN     AMAIN QDED=YES                                                 00001700
                                 25+***********************************************************************
                                 26+*
                                 27+*        PRIMARY ENTRY POINT
                                 28+*
                                 29+***********************************************************************
00000                            30+DTAN     CSECT                                                          01-AMAIN
00000                            31+STACK    DSECT                                                          01-AMAIN
                                 32+*        DS    18H            STANDARD STACK AREA DEFINITION
00000                            33+         DS    F              PSW (LEFT HALF)                           01-AMAIN
00002                            34+         DS    2F             R0,R1                                     01-AMAIN
00006                            35+ARG2     DS    F              R2                                        01-AMAIN
00008                            36+         DS    F              R3                                        01-AMAIN
0000A                            37+ARG4     DS    F              R4                                        01-AMAIN
0000C                            38+ARG5     DS    F              R5                                        01-AMAIN
0000E                            39+ARG6     DS    F              R6                                        01-AMAIN
00010                            40+ARG7     DS    F              R7                                        01-AMAIN
                                 41+*        END OF STANDARD STACK AREA
00012                            42+OCTANT   DS    D                                                        02-00019
00016                            43+TEMP     DS    D                                                        02-00020
0001A                            44+TEST     DS    D                                                        02-00021
0001E                            45+QARGA    DS    D                                                        01-AMAIN
00022                            46+QARGB    DS    D                                                        01-AMAIN
00026                            47+STACKEND DS    0F             END OF COMBINED STACK AREA                01-AMAIN
00000                            48+DTAN     CSECT                                                          01-AMAIN
0000000                          49+         USING STACK,0        ADDRESS STACK AREA                        01-AMAIN
00000 B624 0000      0009 0000   50+         NIST  9(0),0         CLEAR ON ERROR INFO (LCL DATA PTR)        01-AMAIN
                                 52 * PERFORMS TANGENT(X) IN DOUBLE PRECISION                               00001800
                                 53          INPUT F0             SCALAR DP RADIANS                         00001900
0000000                          54+F0       EQU   0                                                        01-INPUT
                                 56          OUTPUT F0            SCALAR DP                                 00002000
                                 58          WORK  R5,R6,F1,F2,F3,F4,F5                                     00002100
0000005                          59+R5       EQU   5                                                        01-WORK
0000006                          60+R6       EQU   6                                                        01-WORK
0000001                          61+F1       EQU   1                                                        01-WORK
0000002                          62+F2       EQU   2                                                        01-WORK
0000003                          63+F3       EQU   3                                                        01-WORK
0000004                          64+F4       EQU   4                                                        01-WORK
0000005                          65+F5       EQU   5                                                        01-WORK
00002 0EE6                       67          SR    R6,R6                                                    00002200
00003 7CFF 008D      0092 008D   68          LED   F4,ONE                                                   00002300
00005 7AFF 00B3      00BA 00B3   69          LED   F2,INIT                                                  00002400
00007 3AF8 001A      001A        70          STED  F2,TEST                                                  00002500
00009 78E0                       71          LER   F0,F0                                                    00002600
0000A DD0C           000E 0003   72          BNM   POS                                                      00002700
0000B 78E8                       73          LECR  F0,F0                                                    00002800
0000C 9EF7 0081      008F 0081   74          LH    R6,INFINITY+1                                            00002900
                                 75 *                                                                       00003000
0000E 48FF 00AE      00BE 00AE   76 POS      CE    F0,MAX                                                   00003100
00010 C5F7 0071      0083 0071   77          BNL   ERROR1                                                   00003200
00012 30FF 0086      009A 0086   78          MED   F0,FOUROVPI                                              00003300
00014 3824           0012        79          STE   F0,OCTANT                                                00003400
00015 25E8                       80          LFXR  R5,F0                                                    00003500
i00016 B6E5 FF00           FF00   81          NHI   R5,X'FF00'                                               00003600
         DTAN  DOUBLE PRECISION TANGENT                                                                        PAGE    3
  LOC  OBJECT CODE   ADR1 ADR2      SOURCE STATEMENT                                           AP101S 3.0 09.37 07/22/05
00018 BD68           001A        82          STH   R5,TEST                                                  00003700
00019 48EC                       83          CER   F0,F4                                                    00003800
0001A DD0C           001E 0003   84          BNL   NORMAL                                                   00003900
0001B B154 00FF      0015 00FF   85          ZB    OCTANT+3,X'00FF'                                         00004000
0001D DF34           002B 000D   86          B     JOIN                                                     00004100
                                 87 *                                                                       00004200
0001E 7AE0                       88 NORMAL   LER   F2,F0                                                    00004300
0001F 7BE1                       89          LER   F3,F1                                                    00004400
00020 52FF 0074      0096 0074   90          AED   F2,CH4E                                                  00004500
00022 3AF8 0012      0012        91          STED  F2,OCTANT                                                00004600
00024 5AFF 0070      0096 0070   92          SED   F2,CH4E                                                  00004700
00026 58EA                       93          SEDR  F0,F2          FRACTION IN F0                            00004800
                                 94 *                                                                       00004900
00027 B354 0001      0015 0001   95          TB    OCTANT+3,X'0001'                                         00005000
00029 DC04           002B 0001   96          BZ    JOIN                                                     00005100
0002A 58EC                       97          SEDR  F0,F4          IFF ODD OCTANT, W=1-FRACTION              00005200
                                 98 *                                                                       00005300
0002B 7CE0                       99 JOIN     LER   F4,F0                                                    00005400
0002C DD04           002E 0001  100          BNM   WPOS                                                     00005500
0002D 7CEC                      101          LECR  F4,F4                                                    00005600
0002E 7DE1                      102 WPOS     LER   F5,F1                                                    00005700
0002F 3CF8 0016      0016       103          STED  F4,TEMP                                                  00005800
00031 7AFF 0077      00AA 0077  104          LED   F2,B3                                                    00005900
00033 4CFF 008D      00C2 008D  105          CE    F4,UNFLO                                                 00006000
00035 DD0C           0039 0003  106          BNL   POLY                                                     00006100
00036 7CFF 005A      0092 005A  107          LED   F4,ONE                                                   00006200
00038 DF38           0047 000E  108          B     SKIP                                                     00006300
00039 30E8                      109 POLY     MEDR  F0,F0                                                    00006400
0003A 7CE0                      110          LER   F4,F0                                                    00006500
0003B 7DE1                      111          LER   F5,F1                                                    00006600
0003C 54FF 0060      009E 0060  112          AED   F4,A2                                                    00006700
0003E 34E8                      113          MEDR  F4,F0                                                    00006800
0003F 54FF 0061      00A2 0061  114          AED   F4,A1                                                    00006900
00041 32E8                      115          MEDR  F2,F0                                                    00007000
00042 52FF 006A      00AE 006A  116          AED   F2,B2                                                    00007100
00044 32E8                      117          MEDR  F2,F0                                                    00007200
00045 52FF 006B      00B2 006B  118          AED   F2,B1                                                    00007300
00047 32E8                      119 SKIP     MEDR  F2,F0                                                    00007400
00048 52FF 006C      00B6 006C  120          AED   F2,B0                                                    00007500
0004A 30EC                      121          MEDR  F0,F4                                                    00007600
0004B 50FF 0059      00A6 0059  122          AED   F0,A0                                                    00007700
0004D 7CF8 0016      0016       123          LED   F4,TEMP                                                  00007800
0004F 30EC                      124          MEDR  F0,F4                                                    00007900
00050 B354 0003      0015 0003  125          TB    OCTANT+3,X'0003'                                         00008000
00052 DA40           0063 0010  126          BM    COTN                                                     00008100
                                127         QDEDR  F0,F2          IF OCTANT IS 0 OR 3(MOD 4),               00008200
00053 38F8 001E      001E       128+         STED  F0,QARGA                                                 01-QDEDR
00055 3AF8 0022      0022       129+         STED  F2,QARGB                                                 01-QDEDR
00057 68E2                      130+         DER   F0,F2                                                    01-QDEDR
00058 7AE0                      131+         LER   F2,F0                                                    01-QDEDR
00059 7BE1                      132+         LER   F2+1,F0+1                                                01-QDEDR
0005A 32F8 0022      0022       133+         MED   F2,QARGB                                                 01-QDEDR
0005C 5AF8 001E      001E       134+         SED   F2,QARGA                                                 01-QDEDR
0005E 6A44           0022       135+         DE    F2,QARGB                                                 01-QDEDR
0005F 58EA                      136+         SEDR  F0,F2                                                    01-QDEDR
00060 7AF8 0022      0022       137+         LED   F2,QARGB                                                 01-QDEDR
00062 DF50           0077 0014  138          B     SIGN           THE ANSWER IS TAN(W*PI/4)=P(W)/Q(W).      00008300
                                139 *                                             /* DR103762 NEXT LINE */  00008401
00063 1CF8 001A      001A       140 COTN     CED   F4,TEST        IF OCTANT IS 1 OR 2(MOD 4),               00008501
00065 DE88           0088 0022  141          BNH   ERROR2         AND IF W IS TOO SMALL, SINGULARITY        00008601
                                142         QDEDR  F2,F0          TROUBLE.  OTHERWISE, THE ANSWER IS        00008701
00066 3AF8 001E      001E       143+         STED  F2,QARGA                                                 01-QDEDR
00068 38F8 0022      0022       144+         STED  F0,QARGB                                                 01-QDEDR
0006A 6AE0                      145+         DER   F2,F0                                                    01-QDEDR
0006B 78E2                      146+         LER   F0,F2                                                    01-QDEDR
0006C 79E3                      147+         LER   F0+1,F2+1                                                01-QDEDR
0006D 30F8 0022      0022       148+         MED   F0,QARGB                                                 01-QDEDR
0006F 58F8 001E      001E       149+         SED   F0,QARGA                                                 01-QDEDR
00071 6844           0022       150+         DE    F0,QARGB                                                 01-QDEDR
00072 5AE8                      151+         SEDR  F2,F0                                                    01-QDEDR
00073 78F8 0022      0022       152+         LED   F0,QARGB                                                 01-QDEDR
00075 78E2                      153          LER   F0,F2          COTAN(W*PI/4)=Q(W)/P(W).                  00008800
00076 79E3                      154          LER   F1,F3                                                    00008900
                                155 *                                                                       00009000
00077 B354 0002      0015 0002  156 SIGN     TB    OCTANT+3,X'0002'                                         00009100
00079 DC0C           007D 0003  157          BZ    NXTEST                                                   00009200
0007A 78E0                      158          LER   F0,F0          WORKAROUND FOR BUG                        00009300
0007B DC04           007D 0001  159          BZ    NXTEST         IN LECR INSTRUCTION.                      00009400
0007C 78E8                      160          LECR  F0,F0                                                    00009500
i                                161 *                                                                       00009600
         DTAN  DOUBLE PRECISION TANGENT                                                                        PAGE    4
  LOC  OBJECT CODE   ADR1 ADR2      SOURCE STATEMENT                                           AP101S 3.0 09.37 07/22/05
0007D 1EE6                      162 NXTEST   LR    R6,R6                                                    00009700
0007E DC0C           0082 0003  163          BZ    EXIT                                                     00009800
0007F 78E0                      164          LER   F0,F0          WORKAROUND FOR BUG                        00009900
00080 DC04           0082 0001  165          BZ    EXIT           IN LECR INSTRUCTION.                      00010000
00081 78E8                      166          LECR  F0,F0                                                    00010100
                                167 *                                                                       00010200
                                168 EXIT     AEXIT                                                          00010300
                                169+*********RETURN TO CALLER**********************************************
00082                           170+EXIT     DS    0H                                                       01-AEXIT
00082 97E8                      171+$RET1    SRET  7,0            RETURN TO CALLER                          01-AEXIT
                                172+***********************************************************************
                                174 *                                                                       00010400
                                175 ERROR1   AERROR 11            |ARG| >= PI*2**50                         00010500
                                176+*********ISSUE SEND ERROR SVC******************************************
00083 C9FB 00C4      00C4       177+ERROR1   SVC   AERROR1        ISSUE SEND ERROR SVC                      01-AERRO
                                178+*********SEND ERROR SVC RETURNS CONTROL FOR STANDARD FIXUP*************
00085 78FF 000B      0092 000B  179          LED   F0,ONE         STANDARD FIXUP RETURNS 1                  00010600
00087 DF1A           0082 0006  180          B     EXIT                                                     00010700
                                181 *                                                                       00010800
                                182 ERROR2   AERROR 12            TOO CLOSE TO SINGULARITY                  00010900
                                183+*********ISSUE SEND ERROR SVC******************************************
00088 C9FB 00C6      00C6       184+ERROR2   SVC   AERROR2        ISSUE SEND ERROR SVC                      01-AERRO
                                185+*********SEND ERROR SVC RETURNS CONTROL FOR STANDARD FIXUP*************
0008A 78FF 0002      008E 0002  186          LED   F0,INFINITY                                              00011000
0008C DF2E           0082 000B  187          B     EXIT                                                     00011100
                                188 *                                                                       00011200
0008D C9FB
0008E                           189          DS    0D                                                       00011300
0008E 7FFFFFFFFFFFFFFF          190 INFINITY DC    X'7FFFFFFFFFFFFFFF' LARGEST NUMBER FOR FIX               00011400
00092 4110000000000000          191 ONE      DC    X'4110000000000000' 1.0                                  00011500
00096 4E10000000000000          192 CH4E     DC    X'4E10000000000000'                                      00011600
0009A 41145F306DC9C882          193 FOUROVPI DC    X'41145F306DC9C882' 4/PI                                 00011700
0009E C325FD4A87357CAF          194 A2       DC    X'C325FD4A87357CAF'    -607.8306953515                   00011800
000A2 44AFFA6393159226          195 A1       DC    X'44AFFA6393159226'   45050.3889630777                   00011900
000A6 C58AFDD0A41992D4          196 A0       DC    X'C58AFDD0A41992D4' -569309.0400634512  +3F IN ABS       00012000
000AA 422376F171F72282          197 B3       DC    X'422376F171F72282'      35.4646216610                   00012100
000AE C41926DBBB1F469B          198 B2       DC    X'C41926DBBB1F469B'   -6438.8583240077                   00012200
000B2 4532644B1E45A133          199 B1       DC    X'4532644B1E45A133' +206404.6948906228                   00012300
000B6 C5B0F82C871A3B68          200 B0       DC    X'C5B0F82C871A3B68' -724866.7829840012                   00012400
000BA 0000000000000008          201 INIT     DC    X'0000000000000008' COMPARAND WITHOUT CHARACTERISTIC     00012500
000BE 4DC90FDA                  202 MAX      DC    X'4DC90FDA'          PI*2**50                            00012600
000C0 02145F31                  203 MIN      DC    X'02145F31'          (4/PI)*2**(-252)                    00012700
000C2 35400000                  204 UNFLO    DC    X'35400000'          2**(-46)                            00012800
                                205          ACLOSE                                                         00013000
000C4                           206+         LTORG                                                          02-ERRPA
                                207+****************ERROR PARAMETER AREA***********************************
000C4                           208+#LDTAN   CSECT                                                          02-ERRPA
                                209+***  DTAN SENDS THE FOLLOWING ERRORS                                    02-ERRPA
                                211+***  ERROR NUMBER 11 IN GROUP 4                                         02-ERRPA
000C4 0014                      213+AERROR1  DC    H'20'          SVC CODE FOR SEND ERROR                   02-ERRPA
000C5 040B                      214+         DC    Y(4*256+11)                      8 BIT GROUP AND NUMBER  02-ERRPA
                                216+***  ERROR NUMBER 12 IN GROUP 4                                         02-ERRPA
000C6 0014                      218+AERROR2  DC    H'20'          SVC CODE FOR SEND ERROR                   02-ERRPA
000C7 040C                      219+         DC    Y(4*256+12)                      8 BIT GROUP AND NUMBER  02-ERRPA
                                220+****************END OF ERROR PARAMETER AREA****************************
                                221+         END                                                            01-ACLOS
¤
                                                 RELOCATION DICTIONARY                                         PAGE    5
 POS.ID   REL.ID   FLAGS   ADDRESS                                                             AP101S 3.0 09.37 07/22/05
  0001     0002     00     000084
  0001     0002     00     000089
¤
                                             CROSS REFERENCE                                                   PAGE    6
SYMBOL    LEN    VALUE   DEFN   REFERENCES                                                     AP101S 3.0 09.37 07/22/05
A0           4   0000A6   196    122
A1           4   0000A2   195    114
A2           4   00009E   194    112
AERROR1      1   0000C4   213    177
AERROR2      1   0000C6   218    184
ARG2         2   000006    35
ARG4         2   00000A    37
ARG5         2   00000C    38
ARG6         2   00000E    39
ARG7         2   000010    40
B0           4   0000B6   200    120
B1           4   0000B2   199    118
B2           4   0000AE   198    116
B3           4   0000AA   197    104
CH4E         4   000096   192     90    92
COTN         2   000063   140    126
DTAN         1 00000000    30     48
ERROR1       2   000083   177     77
ERROR2       2   000088   184    141
EXIT         1   000082   170    163   165   180   187
F0           1 00000000    54     71    71    73    73    76    78    79    80    83    88    93    97    99   109   109
                                 110   113   115   117   119   121   122   124   128   130   131   132   136   144   145
                                 146   147   148   149   150   151   152   153   158   158   160   160   164   164   166
                                 166   179   186
F1           1 00000001    61     89   102   111   154
F2           1 00000002    62     69    70    88    90    91    92    93   104   115   116   117   118   119   120   129
                                 130   131   132   133   134   135   136   137   143   145   146   147   151   153
F3           1 00000003    63     89   154
F4           1 00000004    64     68    83    97    99   101   101   103   105   107   110   112   113   114   121   123
                                 124   140
F5           1 00000005    65    102   111
FOUROVPI     4   00009A   193     78
INFINITY     4   00008E   190     74   186
INIT         4   0000BA   201     69
JOIN         1   00002B    99     86    96
MAX          2   0000BE   202     76
MIN          2   0000C0   203
NORMAL       1   00001E    88     84
NXTEST       1   00007D   162    157   159
OCTANT       4   000012    42     79    85    91    95   125   156
ONE          4   000092   191     68   107   179
POLY         1   000039   109    106
POS          2   00000E    76     72
QARGA        4   00001E    45    128   134   143   149
QARGB        4   000022    46    129   133   135   137   144   148   150   152
R5           1 00000005    59     80    81    82
R6           1 00000006    60     67    67    74   162   162
SIGN         2   000077   156    138
SKIP         1   000047   119    108
STACK        1 00000000    31     49
STACKEND     2   000026    47
TEMP         4   000016    43    103   123
TEST         4   00001A    44     70    82   140
UNFLO        2   0000C2   204    105
WPOS         1   00002E   102    100
$RET1        1   000082   171
#LDTAN       1 000000C4   208
¤
                                  DIAGNOSTIC CROSS REFERENCE AND ASSEMBLER SUMMARY                             PAGE    7
                                                                                               AP101S 3.0 09.37 07/22/05
     NO STATEMENTS FLAGGED IN THIS ASSEMBLY
   OVERRIDING PARAMETERS-  ESD,RLD,SYSPARM=PASS
   OPTIONS FOR THIS ASSEMBLY
    NODECK,LOAD,LIST,XREF,NORENT,TEST,NOMULT,ALGN,ESD ,RLD ,NOSREF,LINECT= 80,MSGLEVEL=   0,SYSPARM= PASS
   NO OVERRIDING DD NAMES
     136 CARDS FROM SYSIN     380 CARDS FROM SYSLIB
     299 LINES OUTPUT          22 CARDS OUTPUT
