¤
                                              EXTERNAL SYMBOL DICTIONARY                                       PAGE    1
SYMBOL   TYPE  ID  ADDR  LENGTH  LD ID                                                         AP101S 3.0 09.37 07/22/05
EATAN2    SD 0001 000000 000094
ATAN      LD      000005        0001
#LEATAN2  SD 0002 000094 00000A
¤
         ARCTANGENT(SINGLE,2 ENTRIES)                                                                          PAGE    2
  LOC  OBJECT CODE   ADR1 ADR2      SOURCE STATEMENT                                           AP101S 3.0 09.37 07/22/05
                                  2 *
                                  3 * WHEN DATA_REMOTE IS IN EFFECT, THE LDM INSTRUCTIONS ARE NOT NEEDED
                                  4 * AROUND THE CALL TO THIS RTL ROUTINE BECAUSE R1/R3 IS NOT USED AS
                                  5 * A BASE REGISTER. (CR12620)
                                  6 *
                                  7 EATAN2   AMAIN                                                          00000200
                                  8+***********************************************************************
                                  9+*
                                 10+*        PRIMARY ENTRY POINT
                                 11+*
                                 12+***********************************************************************
00000                            13+EATAN2   CSECT                                                          01-AMAIN
00000                            14+STACK    DSECT                                                          01-AMAIN
                                 15+*        DS    18H            STANDARD STACK AREA DEFINITION
00000                            16+         DS    F              PSW (LEFT HALF)                           01-AMAIN
00002                            17+         DS    2F             R0,R1                                     01-AMAIN
00006                            18+ARG2     DS    F              R2                                        01-AMAIN
00008                            19+         DS    F              R3                                        01-AMAIN
0000A                            20+ARG4     DS    F              R4                                        01-AMAIN
0000C                            21+ARG5     DS    F              R5                                        01-AMAIN
0000E                            22+ARG6     DS    F              R6                                        01-AMAIN
00010                            23+ARG7     DS    F              R7                                        01-AMAIN
                                 24+*        END OF STANDARD STACK AREA
                                 25+*        NO ADDITIONAL STACK STORAGE REQUIRED FOR THIS ROUTINE
00012                            26+STACKEND DS    0F             END OF COMBINED STACK AREA                01-AMAIN
00000                            27+EATAN2   CSECT                                                          01-AMAIN
0000000                          28+         USING STACK,0        ADDRESS STACK AREA                        01-AMAIN
00000 B624 0000      0009 0000   29+         NIST  9(0),0         CLEAR ON ERROR INFO (LCL DATA PTR)        01-AMAIN
                                 31 * COMPUTES ARC-TANGENT(ARG1,ARG2) BY FRACTIONAL APPROXIMATION IN        00000300
                                 32 * THE RANGE (-PI,PI) IN SINGLE PRECISION                                00000400
                                 33          INPUT F0,            SCALAR SP                                X00000500
                                                   F2             SCALAR SP                                 00000600
0000000                          34+F0       EQU   0                                                        01-INPUT
0000002                          35+F2       EQU   2                                                        01-INPUT
                                 37          OUTPUT F0            SCALAR SP RADIANS                         00000700
                                 39          WORK  R1,R2,R4,R5,R6,R7,F1,F4,F5,F6,F7                         00000800
0000001                          40+R1       EQU   1                                                        01-WORK
0000002                          41+R2       EQU   2                                                        01-WORK
0000004                          42+R4       EQU   4                                                        01-WORK
0000005                          43+R5       EQU   5                                                        01-WORK
0000006                          44+R6       EQU   6                                                        01-WORK
0000007                          45+R7       EQU   7                                                        01-WORK
0000001                          46+F1       EQU   1                                                        01-WORK
0000004                          47+F4       EQU   4                                                        01-WORK
0000005                          48+F5       EQU   5                                                        01-WORK
                                 49+***** WARNING: F6 MUST BE PRESERVED ACROSS CALLS                        01-WORK
0000006                          50+F6       EQU   6                                                        01-WORK
0000007                          51+F7       EQU   7                                                        01-WORK
00002 B2E1 FFFF           FFFF   53          OHI   R1,X'FFFF'     FLAG=1 FOR ARCTAN2                        00000900
00004 DF0C           0008 0003   54          B     MERGE                                                    00001000
                                 55 ATAN     AENTRY                                                         00001100
                                 56+***********************************************************************
                                 57+*
                                 58+*        SECONDARY ENTRY POINT
                                 59+*
                                 60+***********************************************************************
00005                            61+ATAN     DS    0H                                                       01-AENTR
                                 62+         ENTRY ATAN                                                     01-AENTR
00005 B624 0000      0009 0000   63+         NIST  9(0),0         CLEAR ERROR VECTOR POINTER                01-AENTR
                                 65 * COMPUTES ARCTAN(X) BY FRACTIONAL APPROXIMATION IN                     00001200
                                 66 * THE RANGE (-PI/2,PI/2) IN SINGLE PRECISION                            00001300
                                 67          INPUT F0             SCALAR SP                                 00001400
                                 69          OUTPUT F0            SCALAR SP RADIANS                         00001500
                                 71          WORK  R2,F2,F4,F6                                              00001600
                                 72+***** WARNING: F6 MUST BE PRESERVED ACROSS CALLS                        01-WORK
00007 09E1                       74          SR    R1,R1          FLAG=0 FOR ARCTAN                         00001700
00008 59E1                       75 MERGE    SER   F1,F1          THIS IS TO PREVENT UNORMALIZED INPUT      00002000
                                 76 *                             TO FLOATING DIVIDE                        00002100
00009 EAF3 0096      0096        77          LA    R2,DATA     SET POINTER TO ADDRESS OF FULLWORD '0'       00002200
0000B 26E8                       78          LFXR  R6,F0        SAVE FIRST(OR ONLY) ARG                     00002300
0000C 1EE6                       79          LR    R6,R6          TEST SIGN OF FIRST(OR ONLY) ARG           00002400
i0000D DD04           000F 0001   80          BNM   TEST1                                                    00002500
         ARCTANGENT(SINGLE,2 ENTRIES)                                                                          PAGE    3
  LOC  OBJECT CODE   ADR1 ADR2      SOURCE STATEMENT                                           AP101S 3.0 09.37 07/22/05
0000E 78E8                       81 MINUS    LECR  F0,F0    USE POSITIVE ARG                                00002600
0000F 19E1                       82 TEST1    LR    R1,R1          SET CONDITION CODE ACCORDING TO ENTRY     00002700
00010 DC90           0035 0024   83          BZ    ATAN1   IF ATAN ENTRY, SKIP TO MAIN CIRCUIT              00002800
                                 84 *  IF ARCT2 ENTRY THEN DO THIS                                          00002900
00011 27EA                       85          LFXR  R7,F2          SAVE COSARG                               00003000
00012 1FE7                       86          LR    R7,R7          SET CONDITION CODE FOR COSARG             00003100
00013 DB1C           001B 0007   87          BNZ   CHECK                                                    00003200
00014 1EE6                       88          LR    R6,R6          IF COSARG=SINARG=0,                       00003210
00015 C4F7 005C      0073 005C   89          BZ    ERROR              THEN ERROR                            00003220
00017 78F7 0065      007E 0065   90 VALUE    LE    F0,PIOV2       IF COSARG=0,SINARG NOT=0,RETURN +/- PI/2  00003230
00019 C7F7 0052      006D 0052   91          B     STEST                                                    00003240
                                 92 *    PROTECTION ADDED TO AVOID EXPONENT OVERFLOW IN THE DEIVDE WHICH    00003241
                                 93 *    COMPUTES THE TANGENT.  THE PROTECTION SCHEME DEFAULTS TO           00003242
                                 94 *    +/- PI/2 WHEN EXPONENT(SINARG) - EXPONENT(COSARG) >= 7.            00003243
0001B 24E8                       95 CHECK    LFXR  R4,F0          GET EXPONENT OF SINARG * 16**2(I.E. EXP   00003250
0001C B6E4 7F00           7F00   96          NHI   R4,X'7F00'        IS IN HIGH ORDER BITS,                 00003260
                                 97 *                                0'S IN LOW ORDER BITS).                00003261
0001E 78E0                       98          LER   F0,F0          IF SINARG=0, CONTINUE WITH TANGENT        00003262
0001F DC1C           0027 0007   99          BZ    TANDIV            DIVIDE                                 00003263
00020 25EA                      100          LFXR  R5,F2          GET EXPONENT OF COSARG * 16**2            00003270
00021 B6E5 7F00           7F00  101          NHI   R5,X'7F00'                                               00003280
00023 0CE5                      102          SR    R4,R5          DELTA =(EXP(SINARG)-EXP(COSARG)) * 16**2  00003290
00024 B5E4 0700           0700  103          CHI   R4,X'0700'     IF DELTA >=  7 * 16**2,                   00003291
00026 DD42           0017 0010  104          BNL   VALUE              RETURN +/- PI/2                       00003292
                                105 *    BEGINNING OF TANGENT APPROXIMATION ALGORITHM.                      00003293
00027 68E2                      106 TANDIV   DER   F0,F2    X=|SINARG|/COSARG                               00003300
00028 1FE7                      107          LR    R7,R7   CHECK SIGN OF COSARG                             00003310
00029 D920           0032 0008  108          BP    NORM    COSARG>0,X=|SINARG|/|COSARG|, SO CONTINUE        00003400
0002A 78E8                      109          LECR  F0,F0    COSARG<0, LOAD POSITIVE X                       00003500
0002B 48FF 0053      0080 0053  110          CE    F0,LOWLIM IF COSARG<0 AND X<=16**-6 THEN RETURN +/- PI   00003600
0002D D910           0032 0004  111          BH    NORM                                                     00003700
0002E 78F7 004C      007C 004C  112          LE    F0,PI                                                    00003800
00030 C7F7 003B      006D 003B  113          B     STEST                                                    00003900
00032 48FF 004E      0082 004E  114 NORM     CE    F0,HIGHLIM   IF COSARG NOT=0 AND X>16**6                 00004400
00034 D97A           0017 001E  115          BH    VALUE      THEN RETURN +/- PI/2                          00004500
                                116 *   MAIN CIRCUIT- ATAN FN WITH SINARG=TAN% OR X=|SINARG|/|COSARG|       00004600
                                117 *   FIND %(ANGLE) AND FIX QUADRANTS AND SIGN OF RESULT                  00004700
00035 48FF 0041      0078 0041  118 ATAN1    CE    F0,FLONE                                                 00004800
00037 DE14           003D 0005  119          BNH   REDUC   IF X>1, THEN TAKE INVERSE                        00004900
00038 7AE0                      120          LER   F2,F0   PUT X IN F2                                      00005000
00039 78F7 003D      0078 003D  121          LE    F0,FLONE                                                 00005100
0003B 68E2                      122          DER   F0,F2   F0=1/X                                           00005200
0003C EA12           0004       123          LA    R2,4(R2)   MEANS REDUCTION FOR X>1 TAKEN                 00005300
                                124 *   CHECK FOR X<16**-3.  ALSO, CHECK IF X<=TAN(PI/12)                   00005400
                                125 *   IF NOT, THEN REDUCE X                                               00005500
0003D 48FF 0051      0090 0051  126 REDUC    CE    F0,SMALL    IF X<16**-3 THEN ANSWER=X                    00005600
0003F DA80           0060 0020  127          BL    READY       THIS AVOIDS UNDERFLOW EXCEPTION              00005700
00040 24EE                      128          LFXR  R4,F6          SAVE F6                                   00005710
00041 25EF                      129          LFXR  R5,F7          SAVE F7                                   00005720
00042 48FF 004E      0092 004E  130          CE    F0,TAN15    IF X>TAN(PI/12), THEN REDUCE USING           00005800
00044 DE28           004F 000A  131          BNH   OK          ATAN(X)=PI/6+TAN(Y), WHERE                   00005900
00045 7AE0                      132          LER   F2,F0       Y=(X*SQRT3-1)/(X+SQRT3)                      00006000
00046 60F7 0044      008C 0044  133          ME    F0,RT3M1                                                 00006100
00048 58F7 002E      0078 002E  134          SE    F0,FLONE    TO PROTECT SIGNIFICANT BITS, COMPUTE         00006200
0004A 50E2                      135          AER   F0,F2       X*SQRT3-1 AS X(SQRT3-1)-1+X                  00006300
0004B 52F7 0041      008E 0041  136          AE    F2,RT3                                                   00006400
0004D 68E2                      137          DER   F0,F2                                                    00006500
0004E EA0A           0002       138          LA    R2,2(R2)    MEANS REDUCTION FOR X OR 1/X>TAN(PI/12)      00006600
                                139 *   NOW X IS LESS THAN TAN(PI/12), SO COMPUTE ATAN                      00006700
0004F 7CE0                      140 OK       LER   F4,F0     F4=X                                           00006800
00050 60E0                      141          MER   F0,F0    ATAN(X)/X=D+C*XSQ+B/(XSQ+A)                     00006900
00051 7AE0                      142          LER   F2,F0                                                    00007000
00052 60F7 0034      0088 0034  143          ME    F0,C                                                     00007100
00054 52F7 002E      0084 002E  144          AE    F2,A                                                     00007200
00056 7EF7 002E      0086 002E  145          LE    F6,B                                                     00007300
00058 5FE7                      146          SER   F7,F7          THIS IS TO PREVENT UNNORMALIZED INPUT     00007400
                                147 *                             TO FLOATING DIVIDE                        00007500
00059 6EE2                      148          DER   F6,F2                                                    00007600
0005A 50E6                      149          AER   F0,6                                                     00007700
0005B 50F7 002D      008A 002D  150          AE    F0,D                                                     00007800
0005D 60E4                      151          MER   F0,F4     MULTIPLY BY X;  F0=ATAN(X)                     00007900
0005E 2EEC                      152          LFLR  F6,R4     RESTORE F6,F7                                  00007910
0005F 2FED                      153          LFLR  F7,R5                                                    00007920
                                154 *   NOW ADJUST ANGLE TO PROPER SECTION                                  00008000
                                155 *   R2=0 MEANS X<=TAN(PI/12)   ACTION TAKEN- ADD 0                      00008100
                                156 *   R2=2(0) MEANS TAN(PI/12)<X<=1   ACTION TAKEN- ADD PI/6              00008200
                                157 *   R2=4 MEANS 1/X<=TAN(PI/12)   ACTION TAKEN- SUBTRACT PI/2            00008300
                                158 *   R2=2(4) MEANS 1/X>TAN(PI/12)   ACTION TAKEN- SUBTRACT PI/3          00008400
00060 5002           0000       159 READY    AE    F0,0(R2)     SETS CONDITION CODE                         00008500
i00061 DD04           0063 0001  160          BNM   POSOK     WANT POSITIVE ANSWER                           00008600
         ARCTANGENT(SINGLE,2 ENTRIES)                                                                          PAGE    4
  LOC  OBJECT CODE   ADR1 ADR2      SOURCE STATEMENT                                           AP101S 3.0 09.37 07/22/05
00062 78E8                      161          LECR  F0,F0                                                    00008700
                                162 *   ANSWER POSITIVE.  CHECK IF EATAN2 ENTRY AND COSARG<0                00008800
                                163 *   IF SO, THEN F0=PI-F0                                                00008900
                                164 *   IF TWO ARGS(EATAN2 ENTRY), THEN ANSWER IN RANGE (-PI,PI)            00009000
00063 19E1                      165 POSOK    LR    R1,R1      SET CONDITION CODE                            00009100
00064 DC20           006D 0008  166          BZ    STEST                                                    00009200
00065 1FE7                      167          LR    R7,R7          EATAN2-CHECK COSARG                       00009300
00066 DD18           006D 0006  168          BNM   STEST      GO TO STEST IF COSARG>=0                      00009400
00067 7AF7 0013      007C 0013  169          LE    F2,PI                                                    00009500
00069 5AE0                      170          SER   F2,F0      COSARG<0                                      00009600
0006A 78E2                      171          LER   F0,F2    ANSWER IN F0                                    00009700
0006B DD04           006D 0001  172          BNM   STEST    WANT POSITIVE ANSWER                            00009800
0006C 78E8                      173          LECR  F0,F0                                                    00009900
                                174 *   STEST MAKES SIGN OF ANSWER AGREE WITH SIGN OF SINARG                00010000
                                175 *   IF ONLY ONE ARG(ATAN ENTRY), THEN ANSWER IN RANGE (-PI/2,PI/2)      00010100
0006D 1EE6                      176 STEST    LR    R6,R6          SET CONDITION CODE                        00010200
0006E DD0C           0072 0003  177          BNM   EXIT                                                     00010300
0006F 78E0                      178          LER   F0,F0          WORKAROUND FOR BUG                        00010400
00070 DC04           0072 0001  179          BZ    EXIT           IN LECR INSTRUCTION.                      00010500
00071 78E8                      180          LECR  F0,F0                                                    00010600
                                181 EXIT     AEXIT                                                          00010900
                                182+*********RETURN TO CALLER**********************************************
00072                           183+EXIT     DS    0H                                                       01-AEXIT
00072 97E8                      184+$RET1    SRET  7,0            RETURN TO CALLER                          01-AEXIT
                                185+***********************************************************************
                                187 *     ERROR HANDLER FOR SINARG=COSARG=0                                 00011000
00073 58E0                      188 ERROR    SER   F0,F0                                                    00011100
                                189          AERROR 62            ARG1=ARG2=0                               00011200
                                190+*********ISSUE SEND ERROR SVC******************************************
00074 C9FB 0094      0094       191+         SVC   AERROR1        ISSUE SEND ERROR SVC                      01-AERRO
                                192+*********SEND ERROR SVC RETURNS CONTROL FOR STANDARD FIXUP*************
00076 DF16           0072 0005  193          B     EXIT                                                     00011300
00077 C9FB
00078                           194          DS   0F    ALIGN ON FULLWORD BOUNDARY                          00011400
00078 41100000                  195 FLONE    DC   X'41100000'                                               00011500
0007A 00000000                  196 FLZERO   DC   X'00000000'                                               00011600
0007C 413243F7                  197 PI       DC   X'413243F7'                                               00011700
0007E 411921FB                  198 PIOV2    DC   X'411921FB'   +PI/2                                       00011800
00080 3B100000                  199 LOWLIM   DC   X'3B100000'   16**-6                                      00011900
00082 47100000                  200 HIGHLIM  DC   X'47100000'   16**6                                       00012000
00084 41168A5E                  201 A        DC   X'41168A5E'   1.4087812                                   00012100
00086 408F239C                  202 B        DC   X'408F239C'   0.55913711                                  00012200
00088 BFD35F49                  203 C        DC   X'BFD35F49'  -0.051604543                                 00012300
0008A 409A6524                  204 D        DC   X'409A6524'   0.60310579                                  00012400
0008C 40BB67AF                  205 RT3M1    DC   X'40BB67AF'   SQRT3-1                                     00012500
0008E 411BB67B                  206 RT3      DC   X'411BB67B'   SQRT3                                       00012600
00090 3E100000                  207 SMALL    DC   X'3E100000'   16**-3                                      00012700
00092 40449851                  208 TAN15    DC   X'40449851'   TAN(PI/12)                                  00012800
                                209          ADATA                                                          00012900
                                210+*********DATA CSECT****************************************************
00094                           211+         LTORG                                                          02-ERRPA
                                212+****************ERROR PARAMETER AREA***********************************
00094                           213+#LEATAN2 CSECT                                                          02-ERRPA
                                214+***  EATAN2 SENDS THE FOLLOWING ERROR                                   02-ERRPA
                                216+***  ERROR NUMBER 62 IN GROUP 4                                         02-ERRPA
00094 0014                      218+AERROR1  DC    H'20'          SVC CODE FOR SEND ERROR                   02-ERRPA
00095 043E                      219+         DC    Y(4*256+62)                      8 BIT GROUP AND NUMBER  02-ERRPA
                                220+****************END OF ERROR PARAMETER AREA****************************
00096                           221+#LEATAN2 CSECT                                                          01-ADATA
00096 00000000                  222 DATA     DC   E'0'                  THESE FOUR                          00013000
00098 40860A92                  223          DC   X'40860A92'   PI/6      CONSTANTS                         00013100
0009A C11921FB                  224          DC   X'C11921FB'  -PI/2         MUST BE                        00013200
0009C C110C152                  225          DC   X'C110C152'  -PI/3            CONSECUTIVE                 00013300
                                226          ACLOSE                                                         00013400
                                227+         END                                                            01-ACLOS
¤
                                                 RELOCATION DICTIONARY                                         PAGE    5
 POS.ID   REL.ID   FLAGS   ADDRESS                                                             AP101S 3.0 09.37 07/22/05
  0001     0002     00     00000A
  0001     0002     00     000075
¤
                                             CROSS REFERENCE                                                   PAGE    6
SYMBOL    LEN    VALUE   DEFN   REFERENCES                                                     AP101S 3.0 09.37 07/22/05
A            2   000084   201    144
AERROR1      1   000094   218    191
ARG2         2   000006    18
ARG4         2   00000A    20
ARG5         2   00000C    21
ARG6         2   00000E    22
ARG7         2   000010    23
ATAN         1   000005    61     62
ATAN1        2   000035   118     83
B            2   000086   202    145
C            2   000088   203    143
CHECK        1   00001B    95     87
D            2   00008A   204    150
DATA         2   000096   222     77
EATAN2       1 00000000    13     27
ERROR        1   000073   188     89
EXIT         1   000072   183    177   179   193
F0           1 00000000    34     78    81    81    90    95    98    98   106   109   109   110   112   114   118   120
                                 121   122   126   130   132   133   134   135   137   140   141   141   142   143   149
                                 150   151   159   161   161   170   171   173   173   178   178   180   180   188   188
F1           1 00000001    46     75    75
F2           1 00000002    35     85   100   106   120   122   132   135   136   137   142   144   148   169   170   171
F4           1 00000004    47    140   151
F5           1 00000005    48
F6           1 00000006    50    128   145   148   152
F7           1 00000007    51    129   146   146   153
FLONE        2   000078   195    118   121   134
FLZERO       2   00007A   196
HIGHLIM      2   000082   200    114
LOWLIM       2   000080   199    110
MERGE        1   000008    75     54
MINUS        1   00000E    81
NORM         2   000032   114    108   111
OK           1   00004F   140    131
PI           2   00007C   197    112   169
PIOV2        2   00007E   198     90
POSOK        1   000063   165    160
R1           1 00000001    40     53    74    74    82    82   165   165
R2           1 00000002    41     77   123   123   123   138   138   138   159   159
R4           1 00000004    42     95    96   102   103   128   152
R5           1 00000005    43    100   101   102   129   153
R6           1 00000006    44     78    79    79    88    88   176   176
R7           1 00000007    45     85    86    86   107   107   167   167
READY        2   000060   159    127
REDUC        2   00003D   126    119
RT3          2   00008E   206    136
RT3M1        2   00008C   205    133
SMALL        2   000090   207    126
STACK        1 00000000    14     28
STACKEND     2   000012    26
STEST        1   00006D   176     91   113   166   168   172
TAN15        2   000092   208    130
TANDIV       1   000027   106     99
TEST1        1   00000F    82     80
VALUE        2   000017    90    104   115
$RET1        1   000072   184
#LEATAN2     1 00000094   213    221
¤
                                  DIAGNOSTIC CROSS REFERENCE AND ASSEMBLER SUMMARY                             PAGE    7
                                                                                               AP101S 3.0 09.37 07/22/05
     NO STATEMENTS FLAGGED IN THIS ASSEMBLY
   OVERRIDING PARAMETERS-  ESD,RLD,SYSPARM=PASS
   OPTIONS FOR THIS ASSEMBLY
    NODECK,LOAD,LIST,XREF,NORENT,TEST,NOMULT,ALGN,ESD ,RLD ,NOSREF,LINECT= 80,MSGLEVEL=   0,SYSPARM= PASS
   NO OVERRIDING DD NAMES
     154 CARDS FROM SYSIN     440 CARDS FROM SYSLIB
     305 LINES OUTPUT          21 CARDS OUTPUT
