¤
                                              EXTERNAL SYMBOL DICTIONARY                                       PAGE    1
SYMBOL   TYPE  ID  ADDR  LENGTH  LD ID                                                         AP101S 3.0 09.38 07/22/05
IPWRI     SD 0001 000000 00002E
IPWRH     LD      000004        0001
HPWRH     LD      000009        0001
#LIPWRI   SD 0002 00002E 000002
¤
         IPWRI -- EXPONENTIATION OF AN INTEGER TO AN INTEGRAL POWER                                            PAGE    2
  LOC  OBJECT CODE   ADR1 ADR2      SOURCE STATEMENT                                           AP101S 3.0 09.38 07/22/05
                                  2 *
                                  3 * WHEN DATA_REMOTE IS IN EFFECT, THE LDM INSTRUCTIONS ARE NOT NEEDED
                                  4 * AROUND THE CALL TO THIS RTL ROUTINE BECAUSE R1/R3 IS NOT USED AS
                                  5 * A BASE REGISTER. (CR12620)
                                  6 *
                                  7 * IPWRI: INTEGER TO AN INTEGRAL POWER                                   00000200
                                  8 *                                                                       00000300
                                  9 *        1. INPUTS: BASE IN R5 FULLWORD, EXPONENT IN R6 FULLWORD.       00000400
                                 10 *        2. OUTPUT IN R5 FULLWORD.                                      00000500
                                 11 *        3. SUCCESSIVELY TAKE FIRST, SECOND, FOURTH, ETC.,              00000600
                                 12 *           POWERS OF BASE, SIMULTANEOUSLY SHIFTING EXPONENT RIGHT.     00000700
                                 13 *        4. MULTIPLY POWER OF BASE INTO ANSWER WHEN '1' IS SHIFTED OUT. 00000800
                                 14 *        5. ERROR GIVEN WHEN BASE=0 AND EXPONENT<=0.                    00000900
                                 15 *                                                                       00001000
                                 16 IPWRI    AMAIN                                                          00001100
                                 17+***********************************************************************
                                 18+*
                                 19+*        PRIMARY ENTRY POINT
                                 20+*
                                 21+***********************************************************************
00000                            22+IPWRI    CSECT                                                          01-AMAIN
00000                            23+STACK    DSECT                                                          01-AMAIN
                                 24+*        DS    18H            STANDARD STACK AREA DEFINITION
00000                            25+         DS    F              PSW (LEFT HALF)                           01-AMAIN
00002                            26+         DS    2F             R0,R1                                     01-AMAIN
00006                            27+ARG2     DS    F              R2                                        01-AMAIN
00008                            28+         DS    F              R3                                        01-AMAIN
0000A                            29+ARG4     DS    F              R4                                        01-AMAIN
0000C                            30+ARG5     DS    F              R5                                        01-AMAIN
0000E                            31+ARG6     DS    F              R6                                        01-AMAIN
00010                            32+ARG7     DS    F              R7                                        01-AMAIN
                                 33+*        END OF STANDARD STACK AREA
                                 34+*        NO ADDITIONAL STACK STORAGE REQUIRED FOR THIS ROUTINE
00012                            35+STACKEND DS    0F             END OF COMBINED STACK AREA                01-AMAIN
00000                            36+IPWRI    CSECT                                                          01-AMAIN
0000000                          37+         USING STACK,0        ADDRESS STACK AREA                        01-AMAIN
00000 B624 0000      0009 0000   38+         NIST  9(0),0         CLEAR ON ERROR INFO (LCL DATA PTR)        01-AMAIN
                                 40 * COMPUTES DOUBLE PRECISION INTEGER TO                                  00001200
                                 41 * POSITIVE DOUBLE PRECISION INTEGER POWER                               00001300
                                 42          INPUT R5,            INTEGER DP                               X00001400
                                                   R6             INTEGER DP                                00001500
0000005                          43+R5       EQU   5                                                        01-INPUT
0000006                          44+R6       EQU   6                                                        01-INPUT
                                 46          OUTPUT R5            INTEGER DP                                00001600
                                 48          WORK  R1,R2,R4,R7                                              00001700
0000001                          49+R1       EQU   1                                                        01-WORK
0000002                          50+R2       EQU   2                                                        01-WORK
0000004                          51+R4       EQU   4                                                        01-WORK
0000007                          52+R7       EQU   7                                                        01-WORK
00002 71E1                       54          XR    R1,R1          CLEAR FLAG TO INDICATE FULLWORD           00001800
00003 DF2C           000F 000B   55          B     MERGE          AND CONTINUE                              00001900
                                 56 *                                                                       00002000
                                 57 IPWRH    AENTRY                                                         00002100
                                 58+***********************************************************************
                                 59+*
                                 60+*        SECONDARY ENTRY POINT
                                 61+*
                                 62+***********************************************************************
00004                            63+IPWRH    DS    0H                                                       01-AENTR
                                 64+         ENTRY IPWRH                                                    01-AENTR
00004 B624 0000      0009 0000   65+         NIST  9(0),0         CLEAR ERROR VECTOR POINTER                01-AENTR
                                 67 * COMPUTES DOUBLE PRECISION INTEGER TO                                  00002200
                                 68 * POSITIVE SINGLE PRECISION INTEGER POWER                               00002300
                                 69          INPUT R5,            INTEGER DP                               X00002400
                                                   R6             INTEGER SP                                00002500
                                 71          OUTPUT R5            INTEGER DP                                00002600
                                 73          WORK  R1,R2,R4,R7                                              00002700
00006 71E1                       75          XR    R1,R1          CLEAR FLAG FOR FULLWORD RESULT            00002800
00007 F641                0010   76          SRA   R6,16          GET FULLWORD EXPONENT                     00002900
00008 DF18           000F 0006   77          B     MERGE          AND CONTINUE                              00003000
                                 78 *                                                                       00003100
i                                 79 *                                                                       00003200
         IPWRI -- EXPONENTIATION OF AN INTEGER TO AN INTEGRAL POWER                                            PAGE    3
  LOC  OBJECT CODE   ADR1 ADR2      SOURCE STATEMENT                                           AP101S 3.0 09.38 07/22/05
                                 80 HPWRH    AENTRY                                                         00003300
                                 81+***********************************************************************
                                 82+*
                                 83+*        SECONDARY ENTRY POINT
                                 84+*
                                 85+***********************************************************************
00009                            86+HPWRH    DS    0H                                                       01-AENTR
                                 87+         ENTRY HPWRH                                                    01-AENTR
00009 B624 0000      0009 0000   88+         NIST  9(0),0         CLEAR ERROR VECTOR POINTER                01-AENTR
                                 90 * COMPUTES SINGLE PRECISION INTEGER TO                                  00003400
                                 91 * POSITIVE SINGLE PRECISION INTEGER POWER                               00003500
                                 92          INPUT R5,            INTEGER SP                               X00003600
                                                   R6             INTEGER SP                                00003700
                                 94          OUTPUT R5            INTEGER SP                                00003800
                                 96          WORK  R1,R2,R4,R7                                              00003900
0000B E9F3 0001      0001        98          LA    R1,1           SET FLAG FOR HALFWORD RESULT              00004000
0000D F541                0010   99          SRA   R5,16          GET FULLWORD BASE                         00004100
0000E F641                0010  100          SRA   R6,16          GET FULLWORD EXPONENT                     00004200
                                101 *                                                                       00004300
0000F 1AE5                      102 MERGE    LR    R2,R5          BASE IN R2                                00004400
00010 DB14           0016 0005  103          BNZ   NOTZERO                                                  00004500
00011 1EE6                      104          LR    R6,R6          GIVE ERROR IF BASE=0                      00004600
00012 DE5C           002A 0017  105          BNP   ERROR          AND EXPONENT<=0.                          00004700
                                106 *                                                                       00004800
                                107 *  RETURN 0 IF BASE=0 AND EXPONENT>0,                                   00004900
                                108 *  OR IF BASE^=0 AND EXPONENT<0                                         00005000
                                109 *                                                                       00005100
00013 0DE5                      110 ZERO     SR    R5,R5                                                    00005200
00014 3518           000C       111          ST    R5,ARG5                                                  00005300
00015 DF4C           0029 0013  112          B     EXIT                                                     00005400
                                113 *                                                                       00005500
                                114 * MAIN COMPUTATION SECTION                                              00005600
                                115 *                                                                       00005700
00016 1EE6                      116 NOTZERO  LR    R6,R6                                                    00005800
00017 DA16           0013 0005  117          BM    ZERO           RETURN ZERO IF EXPONENT<0                 00005900
00018 BCE3                0003  118          LFXI  R4,1                                                     00006000
00019 F442                0010  119          SRL   R4,16                                                    00006100
0001A DC28           0025 000A  120          BZ    OUT            RETURN 1 IF EXPONENT=0                    00006200
                                121 *                                                                       00006300
0001B FE06                0001  122 ILOOP    SRDL  R6,1                                                     00006400
0001C 1FE7                      123          LR    R7,R7          CHECK FOR 1 SHIFTED OUT                   00006500
0001D DD08           0020 0002  124          BNM   NOMULT         AND DON'T MULTIPLY IF NOT                 00006600
0001E 44E2                      125          MR    R4,R2                                                    00006700
0001F FC7C                001F  126          SLDL  R4,31                                                    00006800
                                127 *                                                                       00006900
00020 1EE6                      128 NOMULT   LR    R6,R6          EXIT WHEN REMAINING                       00007000
00021 DC0C           0025 0003  129          BZ    OUT            EXPONENT GOES TO 0.                       00007100
00022 42E2                      130          MR    R2,R2          OTHERWISE, DO INTEGER                     00007200
00023 FA7C                001F  131          SLDL  R2,31          MULTIPLY AND CONTINUE                     00007300
00024 DF2A           001B 000A  132          B     ILOOP          THROUGH LOOP.                             00007400
                                133 *                                                                       00007500
                                134 *  GET PROPER PRECISION IN ANSWER                                       00007600
                                135 *                                                                       00007700
00025 19E1                      136 OUT      LR    R1,R1          STORE IMMEDIATELY IF                      00007800
00026 DC04           0028 0001  137          BZ    STORE          HALFWORD FLAG=0,                          00007900
00027 F440                0010  138          SLL   R4,16          OTHERWISE SHIFT TO HALFWORD POSITION.     00008000
00028 3418           000C       139 STORE    ST    R4,ARG5                                                  00008100
                                140 *                                                                       00008200
                                141 EXIT     AEXIT                                                          00008300
                                142+*********RETURN TO CALLER**********************************************
00029                           143+EXIT     DS    0H                                                       01-AEXIT
00029 97E8                      144+$RET1    SRET  7,0            RETURN TO CALLER                          01-AEXIT
                                145+***********************************************************************
                                147 *                                                                       00008400
                                148 ERROR    AERROR 4             ZERO RAISED TO POWER <= 0                 00008500
                                149+*********ISSUE SEND ERROR SVC******************************************
0002A C9FB 002E      002E       150+ERROR    SVC   AERROR1        ISSUE SEND ERROR SVC                      01-AERRO
                                151+*********SEND ERROR SVC RETURNS CONTROL FOR STANDARD FIXUP*************
0002C DF6A           0013 001A  152          B     ZERO           FIXUP RETURNS 0                           00008600
                                153          ACLOSE                                                         00008700
0002D C9FB
0002E                           154+         LTORG                                                          02-ERRPA
                                155+****************ERROR PARAMETER AREA***********************************
0002E                           156+#LIPWRI  CSECT                                                          02-ERRPA
i                                157+***  IPWRI SENDS THE FOLLOWING ERROR                                    02-ERRPA
         IPWRI -- EXPONENTIATION OF AN INTEGER TO AN INTEGRAL POWER                                            PAGE    4
  LOC  OBJECT CODE   ADR1 ADR2      SOURCE STATEMENT                                           AP101S 3.0 09.38 07/22/05

                                159+***  ERROR NUMBER 4 IN GROUP 4                                          02-ERRPA
0002E 0014                      161+AERROR1  DC    H'20'          SVC CODE FOR SEND ERROR                   02-ERRPA
0002F 0404                      162+         DC    Y(4*256+4)                       8 BIT GROUP AND NUMBER  02-ERRPA
                                163+****************END OF ERROR PARAMETER AREA****************************
                                164+         END                                                            01-ACLOS
¤
                                                 RELOCATION DICTIONARY                                         PAGE    5
 POS.ID   REL.ID   FLAGS   ADDRESS                                                             AP101S 3.0 09.38 07/22/05
  0001     0002     00     00002B
¤
                                             CROSS REFERENCE                                                   PAGE    6
SYMBOL    LEN    VALUE   DEFN   REFERENCES                                                     AP101S 3.0 09.38 07/22/05
AERROR1      1   00002E   161    150
ARG2         2   000006    27
ARG4         2   00000A    29
ARG5         2   00000C    30    111   139
ARG6         2   00000E    31
ARG7         2   000010    32
ERROR        2   00002A   150    105
EXIT         1   000029   143    112
HPWRH        1   000009    86     87
ILOOP        1   00001B   122    132
IPWRH        1   000004    63     64
IPWRI        1 00000000    22     36
MERGE        1   00000F   102     55    77
NOMULT       1   000020   128    124
NOTZERO      1   000016   116    103
OUT          1   000025   136    120   129
R1           1 00000001    49     54    54    75    75    98   136   136
R2           1 00000002    50    102   125   130   130   131
R4           1 00000004    51    118   119   125   126   138   139
R5           1 00000005    43     99   102   110   110   111
R6           1 00000006    44     76   100   104   104   116   116   122   128   128
R7           1 00000007    52    123   123
STACK        1 00000000    23     37
STACKEND     2   000012    35
STORE        2   000028   139    137
ZERO         1   000013   110    117   152
$RET1        1   000029   144
#LIPWRI      1 0000002E   156
¤
                                  DIAGNOSTIC CROSS REFERENCE AND ASSEMBLER SUMMARY                             PAGE    7
                                                                                               AP101S 3.0 09.38 07/22/05
     NO STATEMENTS FLAGGED IN THIS ASSEMBLY
   OVERRIDING PARAMETERS-  ESD,RLD,SYSPARM=PASS
   OPTIONS FOR THIS ASSEMBLY
    NODECK,LOAD,LIST,XREF,NORENT,TEST,NOMULT,ALGN,ESD ,RLD ,NOSREF,LINECT= 80,MSGLEVEL=   0,SYSPARM= PASS
   NO OVERRIDING DD NAMES
      92 CARDS FROM SYSIN     432 CARDS FROM SYSLIB
     212 LINES OUTPUT          13 CARDS OUTPUT
