¤
                                              EXTERNAL SYMBOL DICTIONARY                                       PAGE    1
SYMBOL   TYPE  ID  ADDR  LENGTH  LD ID                                                         AP101S 3.0 09.38 07/22/05
LOG       SD 0001 000000 000050
#LLOG     SD 0002 000050 000002
¤
         LOG -- SINGLE PRECISION NATURAL LOGARITHM FUNCTION                                                    PAGE    2
  LOC  OBJECT CODE   ADR1 ADR2      SOURCE STATEMENT                                           AP101S 3.0 09.38 07/22/05
                                  2 *
                                  3 * WHEN DATA_REMOTE IS IN EFFECT, THE LDM INSTRUCTIONS ARE NOT NEEDED
                                  4 * AROUND THE CALL TO THIS RTL ROUTINE BECAUSE R1/R3 IS NOT USED AS
                                  5 * A BASE REGISTER. (CR12620)
                                  6 *
                                  7 * LOG: LOGARITHM(SINGLE PRECISION)                                      00000200
                                  8 *                                                                       00000300
                                  9 *        1. INPUT AND OUTPUT VIA F0.                                    00000400
                                 10 *        2. LET X = (16**P)(2**(-Q))(M), WHERE P AND Q ARE INTEGERS,    00000500
                                 11 *           0<=Q<=3, AND 1/2<=M<1.                                      00000600
                                 12 *        3. IF M>SQRT(2)/2, LET A=1,B=0. OTHERWISE, LET A=0,B=1.        00000700
                                 13 *        4. LET Z=(M-A)/(M+A).                                          00000800
                                 14 *        5. THEN LOG(X)=(4P-Q-B)LOG(2)+LOG((1+Z)/(1-Z)).                00000900
                                 15 *        6. AN ERROR IS GIVEN IF X<=0.                                  00001000
                                 16 *        7. FLOATING REGISTERS USED: F0-F5.                             00001100
                                 17 *                                                                       00001200
                                 18 LOG      AMAIN                                                          00001300
                                 19+***********************************************************************
                                 20+*
                                 21+*        PRIMARY ENTRY POINT
                                 22+*
                                 23+***********************************************************************
00000                            24+LOG      CSECT                                                          01-AMAIN
00000                            25+STACK    DSECT                                                          01-AMAIN
                                 26+*        DS    18H            STANDARD STACK AREA DEFINITION
00000                            27+         DS    F              PSW (LEFT HALF)                           01-AMAIN
00002                            28+         DS    2F             R0,R1                                     01-AMAIN
00006                            29+ARG2     DS    F              R2                                        01-AMAIN
00008                            30+         DS    F              R3                                        01-AMAIN
0000A                            31+ARG4     DS    F              R4                                        01-AMAIN
0000C                            32+ARG5     DS    F              R5                                        01-AMAIN
0000E                            33+ARG6     DS    F              R6                                        01-AMAIN
00010                            34+ARG7     DS    F              R7                                        01-AMAIN
                                 35+*        END OF STANDARD STACK AREA
                                 36+*        NO ADDITIONAL STACK STORAGE REQUIRED FOR THIS ROUTINE
00012                            37+STACKEND DS    0F             END OF COMBINED STACK AREA                01-AMAIN
00000                            38+LOG      CSECT                                                          01-AMAIN
0000000                          39+         USING STACK,0        ADDRESS STACK AREA                        01-AMAIN
00000 B624 0000      0009 0000   40+         NIST  9(0),0         CLEAR ON ERROR INFO (LCL DATA PTR)        01-AMAIN
                                 42 * COMPUTES LOG(X) IN SINGLE PRECISION                                   00001400
                                 43          INPUT F0             SCALAR SP                                 00001500
0000000                          44+F0       EQU   0                                                        01-INPUT
                                 46          OUTPUT F0            SCALAR SP                                 00001600
                                 48          WORK  R5,R6,R7,F1,F2,F3,F4                                     00001700
0000005                          49+R5       EQU   5                                                        01-WORK
0000006                          50+R6       EQU   6                                                        01-WORK
0000007                          51+R7       EQU   7                                                        01-WORK
0000001                          52+F1       EQU   1                                                        01-WORK
0000002                          53+F2       EQU   2                                                        01-WORK
0000003                          54+F3       EQU   3                                                        01-WORK
0000004                          55+F4       EQU   4                                                        01-WORK
00002 59E1                       57 START    SER   F1,F1                                                    00001800
00003 7AE0                       58          LER   F2,F0          CLEAR F1 TO PREVENT UNDERFLOW ERORS AS F1 00001900
                                 59 *                             IS GARBAGE SINCE THIS IS A SINGLE PRECIS- 00002000
                                 60 *                             ON ROUTINE                                00002100
00004 DEC4           0036 0031   61          BNP   ERROR                                                    00002200
00005 26E8                       62          LFXR  R6,F0                                                    00002300
00006 0FE7                       63          SR    R7,R7          CLEAR R7 TO RECEIVE MANTISSA              00002400
00007 FE62                0018   64          SRDL  R6,24          P+64 IN R6 LOW 8 BITS                     00002500
00008 F706                0001   65          SRL   R7,1                                                     00002600
00009 E5EF                       66          NCT   R5,R7          Q IN R5 TOP HALFWORD, M IN R7             00002700
0000A F648                0012   67          SLL   R6,18          4(P+64) IN R6 TOP HALFWORD                00002800
0000B 0EE5                       68          SR    R6,R5          (4P-Q)+OFFSET IN R6                       00002900
0000C 8AE1                0001   69          LFLI  F2,1           A=1, B=0 IF M>SQRT(2)/2                   00003000
0000D 7BF7 003B      004A 003B   70          LE    F3,HALF        A/2=1/2                                   00003100
0000F 17F7 002F      0040 002F   71          C     R7,LIMIT                                                 00003200
00011 D918           0018 0006   72          BH    POS                                                      00003300
00012 7AF7 0036      004A 0036   73          LE    F2,HALF        A=1/2 IF M<=SQRT(2)/2                     00003400
00014 7BF7 0036      004C 0036   74          LE    F3,QUARTER     A/2=1/4                                   00003500
00016 B0E6 FFFF           FFFF   75          AHI   R6,X'FFFF'     B=1                                       00003600
                                 76 *                                                                       00003700
00018 B0E6 FF00           FF00   77 POS      AHI   R6,X'FF00'     4P-Q-B READY IN R6 TOP                    00003800
0001A F71E                0007   78          SRL   R7,7                                                     00003900
0001B B0E7 4000           4000   79          AHI   R7,X'4000'     FLOAT M AND                               00004000
0001D 28EF                       80          LFLR  F0,R7          PUT IN F0                                 00004100
i                                 81 *                                                                       00004200
         LOG -- SINGLE PRECISION NATURAL LOGARITHM FUNCTION                                                    PAGE    3
  LOC  OBJECT CODE   ADR1 ADR2      SOURCE STATEMENT                                           AP101S 3.0 09.38 07/22/05
0001E 7CE0                       82          LER   F4,F0          M IN F4                                   00004300
0001F 58E2                       83          SER   F0,F2          M-A IN F0                                 00004400
00020 DC40           0031 0010   84          BZ    ELSPETH        IF Z=0, LOG((1+Z)/(1-Z))=0                00004500
00021 64F7 0027      004A 0027   85          ME    F4,HALF        M/2 IN F4                                 00004600
00023 54E3                       86          AER   F4,F3          M/2+A/2 IN F4                             00004700
00024 68E4                       87          DER   F0,F4          W IN F2. W=2Z=2(M-A)/(M+A)                00004800
                                 88 *                                                                       00004900
00025 7AE0                       89          LER   F2,F0          NOW, COMPUTE LOG((1+Z)/(1-Z))             00005000
00026 60E0                       90          MER   F0,F0          BY THE MINIMAX APPROXIMATION              00005100
00027 7CF7 001F      0048 001F   91          LE    F4,S           W+W(R*W**2/(S-W**2))                      00005200
00029 5CE0                       92          SER   F4,F0                                                    00005300
0002A 60F7 001A      0046 001A   93          ME    F0,R                                                     00005400
0002C 68E4                       94          DER   F0,F4                                                    00005500
0002D 60E2                       95          MER   F0,F2                                                    00005600
0002E 7BF7 0012      0042 0012   96          LE    F3,ROUND                                                 00005700
00030 50EA                       97          AEDR  F0,F2          W+W(R*W**2/(S-W**2))                      00005800
                                 98 *                                                                       00005900
                                 99 *  NOW, WE HAD TO KLUDGE TO GET AROUND                                  00006000
                                100 *  ERROR IN SIMULATION OF CVFL. IN THE FINAL                            00006100
                                101 *  VERSION, THE FOLLOWING SEQUENCE IS                                   00006200
                                102 *  REPLACED BY THE SINGLE INSTRUCTION:                                  00006300
                                103 *                                                                       00006400
00031 3AEE                      104 ELSPETH  CVFL  F2,R6                                                    00006500
                                105 *                                                                       00006600
                                106 *ELSPETH  LR    R6,R6                                                   00006700
                                107 *         BNM   CVPOS                                                   00006800
                                108 *         LACR  R6,R6                                                   00006900
                                109 *         AHI   R6,X'C200'                                              00007000
                                110 *         B     NEXXT                                                   00007100
                                111 *CVPOS    AHI   R6,X'4200'                                              00007200
                                112 *NEXXT    LFLR  F2,R6                                                   00007300
                                113 *                                                                       00007400
                                114 *  END OF KLUDGE                                                        00007500
                                115 *                                                                       00007600
00032 62F7 0010      0044 0010  116          ME    F2,LOGE2       (4P-Q-B)LOG(2)                            00007700
00034 50EA                      117          AEDR  F0,F2          ANSWER IN F0                              00007800
                                118 EXIT     AEXIT                                                          00007900
                                119+*********RETURN TO CALLER**********************************************
00035                           120+EXIT     DS    0H                                                       01-AEXIT
00035 97E8                      121+$RET1    SRET  7,0            RETURN TO CALLER                          01-AEXIT
                                122+***********************************************************************
                                124 *                                                                       00008000
                                125 ERROR    AERROR 7             ARG <= 0                                  00008100
                                126+*********ISSUE SEND ERROR SVC******************************************
00036 C9FB 0050      0050       127+ERROR    SVC   AERROR1        ISSUE SEND ERROR SVC                      01-AERRO
                                128+*********SEND ERROR SVC RETURNS CONTROL FOR STANDARD FIXUP*************
                                129 * FIXUP SECTION                                                         00008200
00038 78E0                      130          LER   F0,F0                                                    00008300
00039 DC0C           003D 0003  131          BZ    ARGZERO                                                  00008400
0003A 78E8                      132          LECR  F0,F0          IF ARG<0, GET |ARG|                       00008500
0003B C7F7 083B      0002 003B  133          B     START          AND TRY AGAIN.                            00008600
                                134 *                                                                       00008700
0003D 78F7 000F      004E 000F  135 ARGZERO  LE    F0,INFINITY    IF ARG=0, RETURN MAXIMUM NEGATIVE         00008800
0003F DF2E           0035 000B  136          B     EXIT           FLOATING POINT NUMBER.                    00008900
                                137 *                                                                       00009000
00040                           138          DS    0F                                                       00009100
00040 5A8279D8                  139 LIMIT    DC    X'5A8279D8'    SQRT(2)/2                                 00009200
00042 F0000000                  140 ROUND    DC    X'F0000000'                                              00009300
00044 40B17219                  141 LOGE2    DC    X'40B17219'    LOG(BASE E)2 + FUDGE                      00009400
00046 408D8BC7                  142 R        DC    X'408D8BC7'    0.55291413                                00009500
00048 416A298C                  143 S        DC    X'416A298C'    6.6351437                                 00009600
0004A 40800000                  144 HALF     DC    X'40800000'    0.5                                       00009700
0004C 40400000                  145 QUARTER  DC    X'40400000'    0.25                                      00009800
0004E FFFFFFFF                  146 INFINITY DC    X'FFFFFFFF'                                              00009900
                                147          ACLOSE                                                         00010000
00050                           148+         LTORG                                                          02-ERRPA
                                149+****************ERROR PARAMETER AREA***********************************
00050                           150+#LLOG    CSECT                                                          02-ERRPA
                                151+***  LOG SENDS THE FOLLOWING ERROR                                      02-ERRPA
                                153+***  ERROR NUMBER 7 IN GROUP 4                                          02-ERRPA
00050 0014                      155+AERROR1  DC    H'20'          SVC CODE FOR SEND ERROR                   02-ERRPA
00051 0407                      156+         DC    Y(4*256+7)                       8 BIT GROUP AND NUMBER  02-ERRPA
                                157+****************END OF ERROR PARAMETER AREA****************************
                                158+         END                                                            01-ACLOS
¤
                                                 RELOCATION DICTIONARY                                         PAGE    4
 POS.ID   REL.ID   FLAGS   ADDRESS                                                             AP101S 3.0 09.38 07/22/05
  0001     0002     00     000037
¤
                                             CROSS REFERENCE                                                   PAGE    5
SYMBOL    LEN    VALUE   DEFN   REFERENCES                                                     AP101S 3.0 09.38 07/22/05
AERROR1      1   000050   155    127
ARG2         2   000006    29
ARG4         2   00000A    31
ARG5         2   00000C    32
ARG6         2   00000E    33
ARG7         2   000010    34
ARGZERO      2   00003D   135    131
ELSPETH      1   000031   104     84
ERROR        2   000036   127     61
EXIT         1   000035   120    136
F0           1 00000000    44     58    62    80    82    83    87    89    90    90    92    93    94    95    97   117
                                 130   130   132   132   135
F1           1 00000001    52     57    57
F2           1 00000002    53     58    69    73    83    89    95    97   104   116   117
F3           1 00000003    54     70    74    86    96
F4           1 00000004    55     82    85    86    87    91    92    94
HALF         2   00004A   144     70    73    85
INFINITY     2   00004E   146    135
LIMIT        2   000040   139     71
LOG          1 00000000    24     38
LOGE2        2   000044   141    116
POS          2   000018    77     72
QUARTER      2   00004C   145     74
R            2   000046   142     93
R5           1 00000005    49     66    68
R6           1 00000006    50     62    64    67    68    75    77   104
R7           1 00000007    51     63    63    65    66    71    78    79    80
ROUND        2   000042   140     96
S            2   000048   143     91
STACK        1 00000000    25     39
STACKEND     2   000012    37
START        1   000002    57    133
$RET1        1   000035   121
#LLOG        1 00000050   150
¤
                                  DIAGNOSTIC CROSS REFERENCE AND ASSEMBLER SUMMARY                             PAGE    6
                                                                                               AP101S 3.0 09.38 07/22/05
     NO STATEMENTS FLAGGED IN THIS ASSEMBLY
   OVERRIDING PARAMETERS-  ESD,RLD,SYSPARM=PASS
   OPTIONS FOR THIS ASSEMBLY
    NODECK,LOAD,LIST,XREF,NORENT,TEST,NOMULT,ALGN,ESD ,RLD ,NOSREF,LINECT= 80,MSGLEVEL=   0,SYSPARM= PASS
   NO OVERRIDING DD NAMES
     105 CARDS FROM SYSIN     366 CARDS FROM SYSLIB
     211 LINES OUTPUT          14 CARDS OUTPUT
