¤
                                              EXTERNAL SYMBOL DICTIONARY                                       PAGE    1
SYMBOL   TYPE  ID  ADDR  LENGTH  LD ID                                                         AP101S 3.0 09.38 07/22/05
MM11S3    SD 0001 000000 000012
¤
         MM11S3--MATRIX TRANSPOSE, LENGTH 3, SP                                                                PAGE    2
  LOC  OBJECT CODE   ADR1 ADR2      SOURCE STATEMENT                                           AP101S 3.0 09.38 07/22/05
                                  2 *
                                  3 * WHEN DATA_REMOTE IS IN EFFECT, THE LDM INSTRUCTIONS ARE NEEDED
                                  4 * AROUND THE CALL TO THIS RTL ROUTINE BECAUSE R1/R3 IS USED AS
                                  5 * A BASE REGISTER. (CR12620)
                                  6 *
                                  7 MM11S3   AMAIN  INTSIC=YES                                              00000200
                                  8+***********************************************************************
                                  9+*
                                 10+*        PRIMARY ENTRY POINT
                                 11+*
                                 12+***********************************************************************
00000                            13+MM11S3   CSECT                                                          01-AMAIN
                                 15 *                                                                       00000300
                                 16 * TAKE THE TRANSPOSE OF A 3 X 3 SINGLE PRECISION MATRIX                 00000400
                                 17 *                                                                       00000500
                                 18          INPUT  R2           MATRIX(3,3) SP                             00000600
0000002                          19+R2       EQU   2                                                        01-INPUT
                                 21          OUTPUT R1           MATRIX(3,3) SP                             00000700
0000001                          22+R1       EQU   1                                                        01-OUTPU
                                 24          WORK   R5,F0,F1,F2                                             00000800
0000005                          25+R5       EQU   5                                                        01-WORK
0000000                          26+F0       EQU   0                                                        01-WORK
0000001                          27+F1       EQU   1                                                        01-WORK
0000002                          28+F2       EQU   2                                                        01-WORK
                                 30 *                                                                       00000900
                                 31 * ALGORITHM:                                                            00001000
                                 32 *   SEE ALGORITHM DESCRIPTION IN MM11D3                                 00001100
                                 33 *                                                                       00001200
00000 BDE3                0003   34          LFXI   R5,1                                                    00001300
00001 E5FB 0002      0002        35          IAL    R5,2                                                    00001400
                                 36 *                                                                       00001500
                                 37 * THE ABOVE SETS THE CONTENTS OF R5 TO INDEX || COUNT FOR THE BIX       00001600
                                 38 *   INSTRUCTION.                                                        00001700
                                 39 *                                                                       00001800
00003 7806           0002        40 MM11S3L  LE     F0,2(R2)                                                00001900
00004 790A           0004        41          LE     F1,4(R2)                                                00002000
00005 7A0E           0006        42          LE     F2,6(R2)                                                00002100
00006 38F5 A000      0000        43          STE    F0,0(R5,R1)                                             00002200
00008 39F5 A006      0006        44          STE    F1,6(R5,R1)                                             00002300
0000A 3AF5 A00C      000C        45          STE    F2,12(R5,R1)                                            00002400
0000C EA1A           0006        46          LA     R2,6(R2)                                                00002500
0000D DDF7 080C      0003 000C   47          BIX    R5,MM11S3L                                              00002600
                                 48          AEXIT                                                          00002700
                                 49+*********RETURN TO CALLER**********************************************
0000F                            50+         DS    0H                                                       01-AEXIT
0000F 9914           0005        51+         LH    1,5(0)         RESTORE PROGRAM DATA BASE                 01-AEXIT
00010 C7EC                       52+$RET1    BCRE  7,4            RETURN TO CALLER                          01-AEXIT
                                 53+***********************************************************************
                                 55          ACLOSE                                                         00002800
00011 C9FB
00012                            56+         LTORG                                                          02-ERRPA
                                 57+****************ERROR PARAMETER AREA***********************************
                                 58+***  NO ERRORS SENT IN MM11S3                                           02-ERRPA
                                 59+****************END OF ERROR PARAMETER AREA****************************
                                 60+         END                                                            01-ACLOS
¤
                                             CROSS REFERENCE                                                   PAGE    3
SYMBOL    LEN    VALUE   DEFN   REFERENCES                                                     AP101S 3.0 09.38 07/22/05
F0           1 00000000    26     40    43
F1           1 00000001    27     41    44
F2           1 00000002    28     42    45
MM11S3       1 00000000    13
MM11S3L      2   000003    40     47
R1           1 00000001    22     43    44    45
R2           1 00000002    19     40    40    41    41    42    42    46    46    46
R5           1 00000005    25     34    35    43    43    44    44    45    45    47
$RET1        1   000010    52
¤
                                  DIAGNOSTIC CROSS REFERENCE AND ASSEMBLER SUMMARY                             PAGE    4
                                                                                               AP101S 3.0 09.38 07/22/05
     NO STATEMENTS FLAGGED IN THIS ASSEMBLY
   OVERRIDING PARAMETERS-  ESD,RLD,SYSPARM=PASS
   OPTIONS FOR THIS ASSEMBLY
    NODECK,LOAD,LIST,XREF,NORENT,TEST,NOMULT,ALGN,ESD ,RLD ,NOSREF,LINECT= 80,MSGLEVEL=   0,SYSPARM= PASS
   NO OVERRIDING DD NAMES
      33 CARDS FROM SYSIN     338 CARDS FROM SYSLIB
      84 LINES OUTPUT           4 CARDS OUTPUT
