¤
                                              EXTERNAL SYMBOL DICTIONARY                                       PAGE    1
SYMBOL   TYPE  ID  ADDR  LENGTH  LD ID                                                         AP101S 3.0 09.38 07/22/05
MM11D3    SD 0001 000000 000016
¤
         MM11D3--MATRIX TRANSPOSE, LENGTH 3, DP                                                                PAGE    2
  LOC  OBJECT CODE   ADR1 ADR2      SOURCE STATEMENT                                           AP101S 3.0 09.38 07/22/05
                                  2 *
                                  3 * WHEN DATA_REMOTE IS IN EFFECT, THE LDM INSTRUCTIONS ARE NEEDED
                                  4 * AROUND THE CALL TO THIS RTL ROUTINE BECAUSE R1/R3 IS USED AS
                                  5 * A BASE REGISTER. (CR12620)
                                  6 *
                                  7 MM11D3   AMAIN INTSIC=YES                                               00000200
                                  8+***********************************************************************
                                  9+*
                                 10+*        PRIMARY ENTRY POINT
                                 11+*
                                 12+***********************************************************************
00000                            13+MM11D3   CSECT                                                          01-AMAIN
                                 15 *                                                                       00000300
                                 16 * TAKE THE TRANSPOSE OF A 3 X 3 DOUBLE PRECISION MATRIX                 00000400
                                 17 *                                                                       00000500
                                 18          INPUT R2             MATRIX(3,3) DP                            00000600
0000002                          19+R2       EQU   2                                                        01-INPUT
                                 21          OUTPUT R1            MATRIX(3,3) DP                            00000700
0000001                          22+R1       EQU   1                                                        01-OUTPU
                                 24          WORK  R5,F0,F2,F4                                              00000800
0000005                          25+R5       EQU   5                                                        01-WORK
0000000                          26+F0       EQU   0                                                        01-WORK
0000002                          27+F2       EQU   2                                                        01-WORK
0000004                          28+F4       EQU   4                                                        01-WORK
                                 30 *                                                                       00000900
                                 31 * ALGORITHM:                                                            00001000
                                 32 *   THIS ROUTINE USES 1 LOOP.                                           00001100
                                 33 *   EACH ITERATION THROUGH THE LOOP TAKES ROW I OF THE INPUT MATRIX     00001200
                                 34 *   AND SPRAYS IT THRU COLUMN I OF THE OUTPUT MATRIX FOR 1 <= I <=3.    00001300
                                 35 *                                                                       00001400
00000 EDF3 0001      0001        36          LA    R5,1                                                     00001500
00002 E5FB 0002      0002        37          IAL   R5,2                                                     00001600
                                 38 *                                                                       00001700
                                 39 * THE ABOVE SETS THE CONTENTS OF R5 TO INDEX || COUNT FOR THE BIX       00001800
                                 40 *   INSTRUCTION.                                                        00001900
                                 41 *                                                                       00002000
00004 78FA 0004      0004        42 MM11D3L  LED   F0,4(R2)                                                 00002100
00006 7AFA 0008      0008        43          LED   F2,8(R2)                                                 00002200
00008 7CFA 000C      000C        44          LED   F4,12(R2)                                                00002300
0000A 38FD A000      0000        45          STED  F0,0(R5,R1)                                              00002400
0000C 3AFD A00C      000C        46          STED  F2,12(R5,R1)                                             00002500
0000E 3CFD A018      0018        47          STED  F4,24(R5,R1)                                             00002600
00010 EA32           000C        48          LA    R2,12(R2)                                                00002700
00011 DDF7 080F      0004 000F   49          BIX   R5,MM11D3L                                               00002800
                                 50          AEXIT                                                          00002900
                                 51+*********RETURN TO CALLER**********************************************
00013                            52+         DS    0H                                                       01-AEXIT
00013 9914           0005        53+         LH    1,5(0)         RESTORE PROGRAM DATA BASE                 01-AEXIT
00014 C7EC                       54+$RET1    BCRE  7,4            RETURN TO CALLER                          01-AEXIT
                                 55+***********************************************************************
                                 57          ACLOSE                                                         00003000
00015 C9FB
00016                            58+         LTORG                                                          02-ERRPA
                                 59+****************ERROR PARAMETER AREA***********************************
                                 60+***  NO ERRORS SENT IN MM11D3                                           02-ERRPA
                                 61+****************END OF ERROR PARAMETER AREA****************************
                                 62+         END                                                            01-ACLOS
¤
                                             CROSS REFERENCE                                                   PAGE    3
SYMBOL    LEN    VALUE   DEFN   REFERENCES                                                     AP101S 3.0 09.38 07/22/05
F0           1 00000000    26     42    45
F2           1 00000002    27     43    46
F4           1 00000004    28     44    47
MM11D3       1 00000000    13
MM11D3L      2   000004    42     49
R1           1 00000001    22     45    46    47
R2           1 00000002    19     42    42    43    43    44    44    48    48    48
R5           1 00000005    25     36    37    45    45    46    46    47    47    49
$RET1        1   000014    54
¤
                                  DIAGNOSTIC CROSS REFERENCE AND ASSEMBLER SUMMARY                             PAGE    4
                                                                                               AP101S 3.0 09.38 07/22/05
     NO STATEMENTS FLAGGED IN THIS ASSEMBLY
   OVERRIDING PARAMETERS-  ESD,RLD,SYSPARM=PASS
   OPTIONS FOR THIS ASSEMBLY
    NODECK,LOAD,LIST,XREF,NORENT,TEST,NOMULT,ALGN,ESD ,RLD ,NOSREF,LINECT= 80,MSGLEVEL=   0,SYSPARM= PASS
   NO OVERRIDING DD NAMES
      35 CARDS FROM SYSIN     338 CARDS FROM SYSLIB
      86 LINES OUTPUT           4 CARDS OUTPUT
