¤
                                              EXTERNAL SYMBOL DICTIONARY                                       PAGE    1
SYMBOL   TYPE  ID  ADDR  LENGTH  LD ID                                                         AP101S 3.0 09.38 07/22/05
MM12DN    SD 0001 000000 0000A4
¤
         MM12DN--DETERMINANT OF AN N X N MATRIX, DP                                                            PAGE    2
  LOC  OBJECT CODE   ADR1 ADR2      SOURCE STATEMENT                                           AP101S 3.0 09.38 07/22/05
                                  2 *
                                  3 * WHEN DATA_REMOTE IS IN EFFECT, THE LDM INSTRUCTIONS ARE NEEDED
                                  4 * AROUND THE CALL TO THIS RTL ROUTINE BECAUSE R1/R3 IS USED AS
                                  5 * A BASE REGISTER. (CR12620)
                                  6 *
                                  7          MACRO                                                          00000200
                                  8          WORKAREA                                                       00000300
                                  9 DETSAV   DS    1D                                                       00000400
                                 10          MEND                                                           00000500
                                 11 MM12DN   AMAIN QDED=YES                                                 00000600
                                 12+***********************************************************************
                                 13+*
                                 14+*        PRIMARY ENTRY POINT
                                 15+*
                                 16+***********************************************************************
00000                            17+MM12DN   CSECT                                                          01-AMAIN
00000                            18+STACK    DSECT                                                          01-AMAIN
                                 19+*        DS    18H            STANDARD STACK AREA DEFINITION
00000                            20+         DS    F              PSW (LEFT HALF)                           01-AMAIN
00002                            21+         DS    2F             R0,R1                                     01-AMAIN
00006                            22+ARG2     DS    F              R2                                        01-AMAIN
00008                            23+         DS    F              R3                                        01-AMAIN
0000A                            24+ARG4     DS    F              R4                                        01-AMAIN
0000C                            25+ARG5     DS    F              R5                                        01-AMAIN
0000E                            26+ARG6     DS    F              R6                                        01-AMAIN
00010                            27+ARG7     DS    F              R7                                        01-AMAIN
                                 28+*        END OF STANDARD STACK AREA
00012                            29+DETSAV   DS    1D                                                       02-00009
00016                            30+QARGA    DS    D                                                        01-AMAIN
0001A                            31+QARGB    DS    D                                                        01-AMAIN
0001E                            32+STACKEND DS    0F             END OF COMBINED STACK AREA                01-AMAIN
00000                            33+MM12DN   CSECT                                                          01-AMAIN
0000000                          34+         USING STACK,0        ADDRESS STACK AREA                        01-AMAIN
00000 B624 0000      0009 0000   35+         NIST  9(0),0         CLEAR ON ERROR INFO (LCL DATA PTR)        01-AMAIN
                                 37 *                                                                       00000700
                                 38 * TAKES THE DETERMINANT OF AN N X N DOUBLE PRECISION MATRIX WHERE N     00000800
                                 39 *   IS NOT EQUAL TO 3.                                                  00000900
                                 40 *                                                                       00001000
                                 41          INPUT R2,            MATRIX(N,N) DP                           X00001100
                                                   R4,            MATRIX(N,N) DP TEMPORARY WORKAREA        X00001200
                                                   R5             INTEGER(N) SP                             00001300
0000002                          42+R2       EQU   2                                                        01-INPUT
0000004                          43+R4       EQU   4                                                        01-INPUT
0000005                          44+R5       EQU   5                                                        01-INPUT
                                 46          OUTPUT F0            SCALAR DP                                 00001400
0000000                          47+F0       EQU   0                                                        01-OUTPU
                                 49          WORK  R1,R3,R6,R7,F1,F2,F3,F4,F5                               00001500
0000001                          50+R1       EQU   1                                                        01-WORK
0000003                          51+R3       EQU   3                                                        01-WORK
0000006                          52+R6       EQU   6                                                        01-WORK
0000007                          53+R7       EQU   7                                                        01-WORK
0000001                          54+F1       EQU   1                                                        01-WORK
0000002                          55+F2       EQU   2                                                        01-WORK
0000003                          56+F3       EQU   3                                                        01-WORK
0000004                          57+F4       EQU   4                                                        01-WORK
0000005                          58+F5       EQU   5                                                        01-WORK
                                 60 *                                                                       00001600
                                 61 * ALGORITHM:                                                            00001700
                                 62 * IF N = 2 THEN                                                         00001800
                                 63 *    RETURN (A(1,1) * A(2,2) - (A(2,1) * A(1,2)))                       00001900
                                 64 * ELSE                                                                  00002000
                                 65 * DET=1.0                                                               00002100
                                 66 *FOR K=1 TO N-1 DO                                                      00002200
                                 67 *    BEGIN                                                              00002300
                                 68 *    BIG=0.0                                                            00002400
                                 69 *    I1=J1=K                                                            00002500
                                 70 *    FOR I=K TO N DO                                                    00002600
                                 71 *    FOR J=K TO N DO                                                    00002700
                                 72 *       IF ABS(A(I,J))>BIG THEN                                         00002800
                                 73 *       BEGIN                                                           00002900
                                 74 *       BIG=ABS(A(I,J)                                                  00003000
                                 75 *       I1=I                                                            00003100
                                 76 *       J1=J                                                            00003200
                                 77 *       END                                                             00003300
                                 78 *    IF I1^=K THEN                                                      00003400
i                                 79 *       BEGIN                                                           00003500
         MM12DN--DETERMINANT OF AN N X N MATRIX, DP                                                            PAGE    3
  LOC  OBJECT CODE   ADR1 ADR2      SOURCE STATEMENT                                           AP101S 3.0 09.38 07/22/05
                                 80 *       DET=-DET                                                        00003600
                                 81 *       FOR J=K TO N DO SWITCH(A(I1,J),A(K,J));                         00003700
                                 82 *       END;                                                            00003800
                                 83 *    IF J1^=K THEN                                                      00003900
                                 84 *       BEGIN                                                           00004000
                                 85 *       DET=-DET                                                        00004100
                                 86 *       FOR I=K TO N DO SWITCH(A(I,J1),A(I,K))                          00004200
                                 87 *       END                                                             00004300
                                 88 *    DET=DET*A(K,K)                                                     00004400
                                 89 *    FOR I=K+1 TO N DO                                                  00004500
                                 90 *       BEGIN                                                           00004600
                                 91 *       TEMP1=-A(I,K)/A(K,K)                                            00004700
                                 92 *       FOR J=K+1 TO N DO                                               00004800
                                 93 *          A(I,J)=A(I,J)+A(K,J)*TEMP1                                   00004900
                                 94 *       END                                                             00005000
                                 95 *    END                                                                00005100
                                 96 * DET=DET*A(N,N)                                                        00005200
                                 97 *                                                                       00005300
00002 B5E5 0002           0002   98          CHI   R5,2                                                     00005400
00004 DB2C           0010 000B   99          BNE   NLEN                                                     00005500
00005 78FA 0004      0004       100          LED   F0,4(R2)                                                 00005600
00007 30FA 0010      0010       101          MED   F0,16(R2)                                                00005700
00009 7AFA 0008      0008       102          LED   F2,8(R2)                                                 00005800
0000B 32FA 000C      000C       103          MED   F2,12(R2)                                                00005900
0000D 58EA                      104          SEDR  F0,F2                                                    00006000
0000E C7F7 0092      00A2 0092  105          B     OUT                                                      00006100
00010 1FE5                      106 NLEN     LR    R7,R5                                                    00006200
00011 47E5                      107          MR    R7,R5                                                    00006300
00012 F73C                000F  108          SLL   R7,15                                                    00006400
00013 19E4                      109          LR    R1,R4                                                    00006500
00014 1CE5                      110          LR    R4,R5                                                    00006600
00015 F408                0002  111          SLL   R4,2                                                     00006700
00016 78FE E000      0000       112 MVLOOP   LED   F0,0(R7,R2)                                              00006800
00018 38FD E000      0000       113          STED  F0,0(R7,R1)                                              00006900
0001A DF17           0016 0005  114          BCTB  R7,MVLOOP                                                00007000
0001B 5DE5                      115          SER   F5,F5                                                    00007100
0001C 8CE1                0001  116          LFLI  F4,1                                                     00007200
0001D BDE3                0003  117          LFXI  R5,1                                                     00007300
0001E 58E8                      118 ALOOP    SEDR  F0,F0                                                    00007400
0001F 1FE5                      119          LR    R7,R5                                                    00007500
00020 9928           000A       120          LH    R1,ARG4                                                  00007600
00021 09E4                      121          SR    R1,R4                                                    00007700
00022 01E4                      122 SLOOP    AR    R1,R4                                                    00007800
00023 DF0B           0022 0002  123          BCTB  R7,SLOOP                                                 00007900
00024 1EE5                      124          LR    R6,R5          I1=K                                      00008000
00025 1FE5                      125          LR    R7,R5          J1=K                                      00008100
00026 1BE5                      126          LR    R3,R5          I=K TO N                                  00008200
00027 1AE5                      127 DLOOP    LR    R2,R5          J = K TO N                                00008300
00028 7AFD 4000      0000       128 ELOOP    LED   F2,0(R2,R1)                                              00008400
0002A DD04           002C 0001  129          BNL   COMP                                                     00008500
0002B 7AEA                      130 C1       LECR  F2,F2                                                    00008600
                                131 COMP    QCEDR  F0,F2                                                    00008700
0002C 48EA                      132+COMP     CER   F0,F2                                                    01-QCEDR
0002D DD10           0032 0004  133          BNL   GLOOP                                                    00008800
0002E 78E2                      134          LER   F0,F2                                                    00008900
0002F 79E3                      135          LER   F1,F3                                                    00009000
00030 1EE3                      136          LR    R6,R3                                                    00009100
00031 1FE2                      137          LR    R7,R2                                                    00009200
00032 EA06           0001       138 GLOOP    LA    R2,1(R2)       J COUNTER                                 00009300
00033 9230           000C       139          CH    R2,ARG5                                                  00009400
00034 DE36           0028 000D  140          BLE   ELOOP                                                    00009500
00035 EB07           0001       141          LA    R3,1(R3)                                                 00009600
00036 01E4                      142          AR    R1,R4          ROW I = I + 1                             00009700
00037 9330           000C       143          CH    R3,ARG5                                                  00009800
00038 DE4A           0027 0012  144          BLE   DLOOP                                                    00009900
00039 9928           000A       145          LH    R1,ARG4                                                  00010000
0003A 1BE5                      146          LR    R3,R5                                                    00010100
0003B 09E4                      147          SR    R1,R4                                                    00010200
0003C 1AE1                      148          LR    R2,R1                                                    00010300
0003D 01E4                      149 K2       AR    R1,R4                                                    00010400
0003E DB0B           003D 0002  150          BCTB  R3,K2                                                    00010500
0003F 16E5                      151          CR    R6,R5                                                    00010600
00040 DC40           0051 0010  152          BE    L                                                        00010700
00041 7CEC                      153 J        LECR  F4,F4                                                    00010800
00042 1BE6                      154          LR    R3,R6                                                    00010900
00043 02E4                      155 K1       AR    R2,R4                                                    00011000
00044 DB0B           0043 0002  156          BCTB  R3,K1                                                    00011100
00045 1BE5                      157          LR    R3,R5                                                    00011200
00046 78FD 6000      0000       158 KLOOP    LED   F0,0(R3,R1)    A(K,J)                                    00011300
i00048 7AFE 6000      0000       159          LED   F2,0(R3,R2)    A(I1,J)                                   00011400
         MM12DN--DETERMINANT OF AN N X N MATRIX, DP                                                            PAGE    4
  LOC  OBJECT CODE   ADR1 ADR2      SOURCE STATEMENT                                           AP101S 3.0 09.38 07/22/05
0004A 3AFD 6000      0000       160          STED  F2,0(R3,R1)    A(K,J)                                    00011500
0004C 38FE 6000      0000       161          STED  F0,0(R3,R2)    A(I1,J)                                   00011600
0004E EB07           0001       162          LA    R3,1(R3)                                                 00011700
0004F 9330           000C       163          CH    R3,ARG5                                                  00011800
00050 DE2E           0046 000B  164          BNH   KLOOP                                                    00011900
00051 1AE1                      165 L        LR    R2,R1                                                    00012000
00052 17E5                      166          CR    R7,R5                                                    00012100
00053 DC38           0062 000E  167          BE    Q                                                        00012200
00054 7CEC                      168 N        LECR  F4,F4                                                    00012300
00055 1BE5                      169          LR    R3,R5          I = K TO N                                00012400
00056 78FD E000      0000       170 OLOOP    LED   F0,0(R7,R1)    A(I,J1)                                   00012500
00058 7AFD A000      0000       171          LED   F2,0(R5,R1)    A(I,K)                                    00012600
0005A 3AFD E000      0000       172          STED  F2,0(R7,R1)    A(I,J1)                                   00012700
0005C 38FD A000      0000       173          STED  F0,0(R5,R1)    A(I,K)                                    00012800
0005E 01E4                      174          AR    R1,R4                                                    00012900
0005F EB07           0001       175          LA    R3,1(R3)                                                 00013000
00060 9330           000C       176          CH    R3,ARG5                                                  00013100
00061 DE32           0056 000C  177          BNH   OLOOP                                                    00013200
00062 78FE A000      0000       178 Q        LED   F0,0(R5,R2)    A(K,K)                                    00013300
00064 34E8                      179          MEDR  F4,F0          DET * A(K,K)                              00013400
00065 9928           000A       180          LH    R1,ARG4                                                  00013500
00066 3CF8 0012      0012       181          STED  F4,DETSAV                                                00013600
00068 7CE0                      182          LER   F4,F0                                                    00013700
00069 7DE1                      183          LER   F5,F1                                                    00013800
0006A 19E2                      184 R        LR    R1,R2                                                    00013900
0006B 02E4                      185          AR    R2,R4                                                    00014000
0006C 1BE5                      186          LR    R3,R5                                                    00014100
0006D EB07           0001       187          LA    R3,1(R3)                                                 00014200
0006E 59E1                      188          SER   F1,F1                                                    00014300
0006F 88E1                0001  189          LFLI  F0,1                                                     00014400
                                190         QDEDR  F0,F4                                                    00014500
00070 38F8 0016      0016       191+         STED  F0,QARGA                                                 01-QDEDR
00072 3CF8 001A      001A       192+         STED  F4,QARGB                                                 01-QDEDR
00074 68E4                      193+         DER   F0,F4                                                    01-QDEDR
00075 7CE0                      194+         LER   F4,F0                                                    01-QDEDR
00076 7DE1                      195+         LER   F4+1,F0+1                                                01-QDEDR
00077 34F8 001A      001A       196+         MED   F4,QARGB                                                 01-QDEDR
00079 5CF8 0016      0016       197+         SED   F4,QARGA                                                 01-QDEDR
0007B 6C34           001A       198+         DE    F4,QARGB                                                 01-QDEDR
0007C 58EC                      199+         SEDR  F0,F4                                                    01-QDEDR
0007D 7CF8 001A      001A       200+         LED   F4,QARGB                                                 01-QDEDR
0007F 1FE5                      201 RLOOP    LR    R7,R5                                                    00014600
00080 B0E7 0001           0001  202          AHI   R7,1           K + 1                                     00014700
00082 7AFE A000      0000       203          LED   F2,0(R5,R2)    A(I,K)                                    00014800
00084 7AEA                      204          LECR  F2,F2          -A(I,K)                                   00014900
00085 32E8                      205 T        MEDR  F2,F0          TEMP1                                     00015000
00086 7CFD E000      0000       206 ULOOP    LED   F4,0(R7,R1)    A(K,J)                                    00015100
00088 34EA                      207          MEDR  F4,F2          A(K,J) * TEMP1                            00015200
00089 54FE E000      0000       208 V        AED   F4,0(R7,R2)    A(I,J)                                    00015300
0008B 3CFE E000      0000       209          STED  F4,0(R7,R2)                                              00015400
0008D B0E7 0001           0001  210          AHI   R7,1           J = J + 1                                 00015500
0008F 9730           000C       211          CH    R7,ARG5                                                  00015600
00090 DE2E           0086 000B  212          BNH   ULOOP                                                    00015700
00091 02E4                      213          AR    R2,R4                                                    00015800
00092 EB07           0001       214          LA    R3,1(R3)                                                 00015900
00093 9330           000C       215          CH    R3,ARG5                                                  00016000
00094 DE5A           007F 0016  216          BNH   RLOOP                                                    00016100
00095 B0E5 0001           0001  217          AHI   R5,1                                                     00016200
00097 7CF8 0012      0012       218          LED   F4,DETSAV                                                00016300
00099 9530           000C       219          CH    R5,ARG5                                                  00016400
0009A C2F7 087E      001E 007E  220          BL    ALOOP                                                    00016500
0009C 0AE4                      221          SR    R2,R4                                                    00016600
0009D 9D30           000C       222          LH    R5,ARG5                                                  00016700
0009E 34FE A000      0000       223          MED   F4,0(R5,R2)                                              00016800
000A0 78E4                      224          LER   F0,F4                                                    00016900
000A1 79E5                      225          LER   F1,F5                                                    00017000
                                226 OUT      AEXIT                                                          00017100
                                227+*********RETURN TO CALLER**********************************************
000A2                           228+OUT      DS    0H                                                       01-AEXIT
000A2 97E8                      229+$RET1    SRET  7,0            RETURN TO CALLER                          01-AEXIT
                                230+***********************************************************************
                                232          ACLOSE                                                         00017200
000A3 C9FB
000A4                           233+         LTORG                                                          02-ERRPA
                                234+****************ERROR PARAMETER AREA***********************************
                                235+***  NO ERRORS SENT IN MM12DN                                           02-ERRPA
                                236+****************END OF ERROR PARAMETER AREA****************************
                                237+         END                                                            01-ACLOS
¤
                                             CROSS REFERENCE                                                   PAGE    5
SYMBOL    LEN    VALUE   DEFN   REFERENCES                                                     AP101S 3.0 09.38 07/22/05
ALOOP        1   00001E   118    220
ARG2         2   000006    22
ARG4         2   00000A    24    120   145   180
ARG5         2   00000C    25    139   143   163   176   211   215   219   222
ARG6         2   00000E    26
ARG7         2   000010    27
C1           1   00002B   130
COMP         1   00002C   132    129
DETSAV       4   000012    29    181   218
DLOOP        1   000027   127    144
ELOOP        2   000028   128    140
F0           1 00000000    47    100   101   104   112   113   118   118   132   134   158   161   170   173   178   179
                                 182   189   191   193   194   195   199   205   224
F1           1 00000001    54    135   183   188   188   225
F2           1 00000002    55    102   103   104   128   130   130   132   134   159   160   171   172   203   204   204
                                 205   207
F3           1 00000003    56    135
F4           1 00000004    57    116   153   153   168   168   179   181   182   192   193   194   195   196   197   198
                                 199   200   206   207   208   209   218   223   224
F5           1 00000005    58    115   115   183   225
GLOOP        2   000032   138    133
J            1   000041   153
K1           1   000043   155    156
K2           1   00003D   149    150
KLOOP        2   000046   158    164
L            1   000051   165    152
MM12DN       1 00000000    17     33
MVLOOP       2   000016   112    114
N            1   000054   168
NLEN         1   000010   106     99
OLOOP        2   000056   170    177
OUT          1   0000A2   228    105
Q            2   000062   178    167
QARGA        4   000016    30    191   197
QARGB        4   00001A    31    192   196   198   200
R            1   00006A   184
R1           1 00000001    50    109   113   120   121   122   128   142   145   147   148   149   158   160   165   170
                                 171   172   173   174   180   184   206
R2           1 00000002    42    100   100   101   101   102   102   103   103   112   127   128   128   137   138   138
                                 138   139   148   155   159   161   165   178   184   185   203   208   209   213   221
                                 223
R3           1 00000003    51    126   136   141   141   141   143   146   150   154   156   157   158   158   159   159
                                 160   160   161   161   162   162   162   163   169   175   175   175   176   186   187
                                 187   187   214   214   214   215
R4           1 00000004    43    109   110   111   121   122   142   147   149   155   174   185   213   221
R5           1 00000005    44     98   106   107   110   117   119   124   125   126   127   146   151   157   166   169
                                 171   171   173   173   178   178   186   201   203   203   217   219   222   223   223
R6           1 00000006    52    124   136   151   154
R7           1 00000007    53    106   107   108   112   112   113   113   114   119   123   125   137   166   170   170
                                 172   172   201   202   206   206   208   208   209   209   210   211
RLOOP        1   00007F   201    216
SLOOP        1   000022   122    123
STACK        1 00000000    18     34
STACKEND     2   00001E    32
T            1   000085   205
ULOOP        2   000086   206    212
V            2   000089   208
$RET1        1   0000A2   229
¤
                                  DIAGNOSTIC CROSS REFERENCE AND ASSEMBLER SUMMARY                             PAGE    6
                                                                                               AP101S 3.0 09.38 07/22/05
     NO STATEMENTS FLAGGED IN THIS ASSEMBLY
   OVERRIDING PARAMETERS-  ESD,RLD,SYSPARM=PASS
   OPTIONS FOR THIS ASSEMBLY
    NODECK,LOAD,LIST,XREF,NORENT,TEST,NOMULT,ALGN,ESD ,RLD ,NOSREF,LINECT= 80,MSGLEVEL=   0,SYSPARM= PASS
   NO OVERRIDING DD NAMES
     177 CARDS FROM SYSIN     362 CARDS FROM SYSLIB
     316 LINES OUTPUT          15 CARDS OUTPUT
