¤
                                              EXTERNAL SYMBOL DICTIONARY                                       PAGE    1
SYMBOL   TYPE  ID  ADDR  LENGTH  LD ID                                                         AP101S 3.0 09.38 07/22/05
MM14D3    SD 0001 000000 000090
#QMM12D3  ER 0002
#QMM15DN  ER 0003
#LMM14D3  SD 0004 000090 000002
¤
         MM14D3--MATRIX INVERSE,3 X 3,SINGLE PREC                                                              PAGE    2
  LOC  OBJECT CODE   ADR1 ADR2      SOURCE STATEMENT                                           AP101S 3.0 09.38 07/22/05
                                  2 *
                                  3 * WHEN DATA_REMOTE IS IN EFFECT, THE LDM INSTRUCTIONS ARE NEEDED
                                  4 * AROUND THE CALL TO THIS RTL ROUTINE BECAUSE R1/R3 IS USED AS
                                  5 * A BASE REGISTER. (CR12620)
                                  6 *
                                  7 MM14D3   AMAIN   ACALL=YES,QDED=YES                                     00000200
                                  8+***********************************************************************
                                  9+*
                                 10+*        PRIMARY ENTRY POINT
                                 11+*
                                 12+***********************************************************************
00000                            13+MM14D3   CSECT                                                          01-AMAIN
00000                            14+STACK    DSECT                                                          01-AMAIN
                                 15+*        DS    18H            STANDARD STACK AREA DEFINITION
00000                            16+         DS    F              PSW (LEFT HALF)                           01-AMAIN
00002                            17+         DS    2F             R0,R1                                     01-AMAIN
00006                            18+ARG2     DS    F              R2                                        01-AMAIN
00008                            19+         DS    F              R3                                        01-AMAIN
0000A                            20+ARG4     DS    F              R4                                        01-AMAIN
0000C                            21+ARG5     DS    F              R5                                        01-AMAIN
0000E                            22+ARG6     DS    F              R6                                        01-AMAIN
00010                            23+ARG7     DS    F              R7                                        01-AMAIN
                                 24+*        END OF STANDARD STACK AREA
                                 25+*        NO ADDITIONAL STACK STORAGE REQUIRED FOR THIS ROUTINE
00012                            26+QARGA    DS    D                                                        01-AMAIN
00016                            27+QARGB    DS    D                                                        01-AMAIN
0001A                            28+STACKEND DS    0F             END OF COMBINED STACK AREA                01-AMAIN
00000                            29+MM14D3   CSECT                                                          01-AMAIN
0000000                          30+         USING STACK,0        ADDRESS STACK AREA                        01-AMAIN
00000 E0FB 001A      001A        31+         IAL   0,STACKEND-STACK SET STACK SIZE                          01-AMAIN
00002 B624 0000      0009 0000   32+         NIST  9(0),0         CLEAR ON ERROR INFO (LCL DATA PTR)        01-AMAIN
                                 34 *                                                                       00000300
                                 35 *  GENERATES THE INVERSE MATRIX :                                       00000400
                                 36 *                                                                       00000500
                                 37 *   M(3,3)= INVERSE (M1(3,3) )                                          00000600
                                 38 *                                                                       00000700
                                 39 *   WHERE  M,M1 ARE DP                                                  00000800
                                 40 *                                                                       00000900
                                 41          INPUT R4             MATRIX(3,3)  DP                           00001000
0000004                          42+R4       EQU   4                                                        01-INPUT
                                 44          OUTPUT R2            MATRIX(3,3)  DP                           00001100
0000002                          45+R2       EQU   2                                                        01-OUTPU
                                 47          WORK  R1,R5,F0,F2,F4,F3                                        00001200
0000001                          48+R1       EQU   1                                                        01-WORK
0000005                          49+R5       EQU   5                                                        01-WORK
0000000                          50+F0       EQU   0                                                        01-WORK
0000002                          51+F2       EQU   2                                                        01-WORK
0000004                          52+F4       EQU   4                                                        01-WORK
0000003                          53+F3       EQU   3                                                        01-WORK
                                 55 *                                                                       00001300
                                 56 * ALGORITHM:                                                            00001400
                                 57 *                                                                       00001500
                                 58 *   INVERSE (M) = DET( M$(I^=3,J^=3) )/ DET(M)                          00001600
                                 59 *                                                                       00001700
00004 19E2                       60          LR    R1,R2                                                    00001800
00005 1AE4                       61          LR    R2,R4                                                    00001900
                                 62          ACALL MM12D3                                                   00002000
                                 63+         EXTRN #QMM12D3                                                 01-ACALL
00006 D0FF                       64+         DC  X'D0FF'          CALL PROCEDURE ROUTINE                    01-ACALL
00007 3800                       65+         DC  Y(#QMM12D3+X'3800')                                       X01-ACALL
                                   +                              INDIRECTLY THRU QCON
00008 78E0                       66          LER   F0,F0                                                    00002100
00009 C4F7 007E      0089 007E   67          BZ    AOUT                                                     00002200
0000B 5BE3                       68          SER   F3,F3                                                    00002300
0000C 8AE1                0001   69          LFLI  F2,1                                                     00002400
                                 70         QDEDR  F2,F0                                                    00002500
0000D 3AF8 0012      0012        71+         STED  F2,QARGA                                                 01-QDEDR
0000F 38F8 0016      0016        72+         STED  F0,QARGB                                                 01-QDEDR
00011 6AE0                       73+         DER   F2,F0                                                    01-QDEDR
00012 78E2                       74+         LER   F0,F2                                                    01-QDEDR
00013 79E3                       75+         LER   F0+1,F2+1                                                01-QDEDR
00014 30F8 0016      0016        76+         MED   F0,QARGB                                                 01-QDEDR
00016 58F8 0012      0012        77+         SED   F0,QARGA                                                 01-QDEDR
00018 682C           0016        78+         DE    F0,QARGB                                                 01-QDEDR
00019 5AE8                       79+         SEDR  F2,F0                                                    01-QDEDR
i0001A 78F8 0016      0016        80+         LED   F0,QARGB                                                 01-QDEDR
         MM14D3--MATRIX INVERSE,3 X 3,SINGLE PREC                                                              PAGE    3
  LOC  OBJECT CODE   ADR1 ADR2      SOURCE STATEMENT                                           AP101S 3.0 09.38 07/22/05
0001C 78FA 0014      0014        81          LED   F0,20(R2)                                                00002600
0001E 7CFA 0020      0020        82          LED   F4,32(R2)                                                00002700
00020 30FA 0024      0024        83          MED   F0,36(R2)                                                00002800
00022 34FA 0018      0018        84          MED   F4,24(R2)                                                00002900
00024 58EC                       85          SEDR  F0,F4                                                    00003000
00025 30EA                       86          MEDR  F0,F2                                                    00003100
00026 38F9 0004      0004        87          STED  F0,4(R1)       I(1,1)                                    00003200
00028 78FA 0008      0008        88          LED   F0,8(R2)                                                 00003300
0002A 7CFA 0020      0020        89          LED   F4,32(R2)                                                00003400
0002C 30FA 0024      0024        90          MED   F0,36(R2)                                                00003500
0002E 34FA 000C      000C        91          MED   F4,12(R2)                                                00003600
00030 5CE8                       92          SEDR  F4,F0                                                    00003700
00031 34EA                       93          MEDR  F4,F2                                                    00003800
00032 3CF9 0008      0008        94          STED  F4,8(R1)       I(1,2)                                    00003900
00034 78FA 0008      0008        95          LED   F0,8(R2)                                                 00004000
00036 7CFA 0014      0014        96          LED   F4,20(R2)                                                00004100
00038 30FA 0018      0018        97          MED   F0,24(R2)                                                00004200
0003A 34FA 000C      000C        98          MED   F4,12(R2)                                                00004300
0003C 58EC                       99          SEDR  F0,F4                                                    00004400
0003D 30EA                      100          MEDR  F0,F2                                                    00004500
0003E 38F9 000C      000C       101          STED  F0,12(R1)       I(1,3)                                   00004600
00040 78FA 0010      0010       102          LED   F0,16(R2)                                                00004700
00042 7CFA 001C      001C       103          LED   F4,28(R2)                                                00004800
00044 30FA 0024      0024       104          MED   F0,36(R2)                                                00004900
00046 34FA 0018      0018       105          MED   F4,24(R2)                                                00005000
00048 5CE8                      106          SEDR  F4,F0                                                    00005100
00049 34EA                      107          MEDR  F4,F2                                                    00005200
0004A 3CF9 0010      0010       108          STED  F4,16(R1)       I(2,1)                                   00005300
0004C 78FA 0004      0004       109          LED   F0,4(R2)                                                 00005400
0004E 7CFA 001C      001C       110          LED   F4,28(R2)                                                00005500
00050 30FA 0024      0024       111          MED   F0,36(R2)                                                00005600
00052 34FA 000C      000C       112          MED   F4,12(R2)                                                00005700
00054 58EC                      113          SEDR  F0,F4                                                    00005800
00055 30EA                      114          MEDR  F0,F2                                                    00005900
00056 38F9 0014      0014       115          STED  F0,20(R1)      I(2,2)                                    00006000
00058 78FA 0004      0004       116          LED   F0,4(R2)                                                 00006100
0005A 7CFA 0010      0010       117          LED   F4,16(R2)                                                00006200
0005C 30FA 0018      0018       118          MED   F0,24(R2)                                                00006300
0005E 34FA 000C      000C       119          MED   F4,12(R2)                                                00006400
00060 5CE8                      120          SEDR  F4,F0                                                    00006500
00061 34EA                      121          MEDR  F4,F2                                                    00006600
00062 3CF9 0018      0018       122          STED  F4,24(R1)      I(2,3)                                    00006700
00064 78FA 0010      0010       123          LED   F0,16(R2)                                                00006800
00066 7CFA 001C      001C       124          LED   F4,28(R2)                                                00006900
00068 30FA 0020      0020       125          MED   F0,32(R2)                                                00007000
0006A 34FA 0014      0014       126          MED   F4,20(R2)                                                00007100
0006C 58EC                      127          SEDR  F0,F4                                                    00007200
0006D 30EA                      128          MEDR  F0,F2                                                    00007300
0006E 38F9 001C      001C       129          STED  F0,28(R1)      I(3,1)                                    00007400
00070 78FA 0004      0004       130          LED   F0,4(R2)                                                 00007500
00072 7CFA 001C      001C       131          LED   F4,28(R2)                                                00007600
00074 30FA 0020      0020       132          MED   F0,32(R2)                                                00007700
00076 34FA 0008      0008       133          MED   F4,8(R2)                                                 00007800
00078 5CE8                      134          SEDR  F4,F0                                                    00007900
00079 34EA                      135          MEDR  F4,F2                                                    00008000
0007A 3CF9 0020      0020       136          STED  F4,32(R1)      I(3,2)                                    00008100
0007C 78FA 0004      0004       137          LED   F0,4(R2)                                                 00008200
0007E 7CFA 0010      0010       138          LED   F4,16(R2)                                                00008300
00080 30FA 0014      0014       139          MED   F0,20(R2)                                                00008400
00082 34FA 0008      0008       140          MED   F4,8(R2)                                                 00008500
00084 58EC                      141          SEDR  F0,F4                                                    00008600
00085 30EA                      142          MEDR  F0,F2                                                    00008700
00086 38F9 0024      0024       143          STED  F0,36(R1)      I(3,3)                                    00008800
                                144 OUT      AEXIT                                                          00008900
                                145+*********RETURN TO CALLER**********************************************
00088                           146+OUT      DS    0H                                                       01-AEXIT
00088 97E8                      147+$RET1    SRET  7,0            RETURN TO CALLER                          01-AEXIT
                                148+***********************************************************************
                                150 AOUT     AERROR   27         ERROR:THIS IS A SINGULAR MATRIX            00009000
                                151+*********ISSUE SEND ERROR SVC******************************************
00089 C9FB 0090      0090       152+AOUT     SVC   AERROR1        ISSUE SEND ERROR SVC                      01-AERRO
                                153+*********SEND ERROR SVC RETURNS CONTROL FOR STANDARD FIXUP*************
0008B EDF3 0003      0003       154          LA    R5,3                                                     00009100
                                155          ABAL MM15DN                                                    00009200
                                156+         EXTRN #QMM15DN                                                 01-ABAL
0008D E4F7                      157+         DC  X'E4F7'          CALL INTRINSIC INDIRECTLY                 01-ABAL
0008E 3800                      158+         DC  Y(#QMM15DN+X'3800')                                       X01-ABAL
                                   +                              THROUGH QCON
i0008F DF22           0088 0008  159          B     OUT                                                      00009300
         MM14D3--MATRIX INVERSE,3 X 3,SINGLE PREC                                                              PAGE    4
  LOC  OBJECT CODE   ADR1 ADR2      SOURCE STATEMENT                                           AP101S 3.0 09.38 07/22/05
                                160          ACLOSE                                                         00009400
00090                           161+         LTORG                                                          02-ERRPA
                                162+****************ERROR PARAMETER AREA***********************************
00090                           163+#LMM14D3 CSECT                                                          02-ERRPA
                                164+***  MM14D3 SENDS THE FOLLOWING ERROR                                   02-ERRPA
                                166+***  ERROR NUMBER 27 IN GROUP 4                                         02-ERRPA
00090 0014                      168+AERROR1  DC    H'20'          SVC CODE FOR SEND ERROR                   02-ERRPA
00091 041B                      169+         DC    Y(4*256+27)                      8 BIT GROUP AND NUMBER  02-ERRPA
                                170+****************END OF ERROR PARAMETER AREA****************************
                                171+         END                                                            01-ACLOS
¤
                                                 RELOCATION DICTIONARY                                         PAGE    5
 POS.ID   REL.ID   FLAGS   ADDRESS                                                             AP101S 3.0 09.38 07/22/05
  0001     0002     00     000007
  0001     0003     00     00008E
  0001     0004     00     00008A
¤
                                             CROSS REFERENCE                                                   PAGE    6
SYMBOL    LEN    VALUE   DEFN   REFERENCES                                                     AP101S 3.0 09.38 07/22/05
AERROR1      1   000090   168    152
AOUT         2   000089   152     67
ARG2         2   000006    18
ARG4         2   00000A    20
ARG5         2   00000C    21
ARG6         2   00000E    22
ARG7         2   000010    23
F0           1 00000000    50     66    66    72    73    74    75    76    77    78    79    80    81    83    85    86
                                  87    88    90    92    95    97    99   100   101   102   104   106   109   111   113
                                 114   115   116   118   120   123   125   127   128   129   130   132   134   137   139
                                 141   142   143
F2           1 00000002    51     69    71    73    74    75    79    86    93   100   107   114   121   128   135   142
F3           1 00000003    53     68    68
F4           1 00000004    52     82    84    85    89    91    92    93    94    96    98    99   103   105   106   107
                                 108   110   112   113   117   119   120   121   122   124   126   127   131   133   134
                                 135   136   138   140   141
MM14D3       1 00000000    13     29
OUT          1   000088   146    159
QARGA        4   000012    26     71    77
QARGB        4   000016    27     72    76    78    80
R1           1 00000001    48     60    87    87    94    94   101   101   108   108   115   115   122   122   129   129
                                 136   136   143   143
R2           1 00000002    45     60    61    81    81    82    82    83    83    84    84    88    88    89    89    90
                                  90    91    91    95    95    96    96    97    97    98    98   102   102   103   103
                                 104   104   105   105   109   109   110   110   111   111   112   112   116   116   117
                                 117   118   118   119   119   123   123   124   124   125   125   126   126   130   130
                                 131   131   132   132   133   133   137   137   138   138   139   139   140   140
R4           1 00000004    42     61
R5           1 00000005    49    154
STACK        1 00000000    14     30    31
STACKEND     2   00001A    28     31
$RET1        1   000088   147
#LMM14D3     1 00000090   163
#QMM12D3     1 00000000    63     65
#QMM15DN     1 00000000   156    158
¤
                                  DIAGNOSTIC CROSS REFERENCE AND ASSEMBLER SUMMARY                             PAGE    7
                                                                                               AP101S 3.0 09.38 07/22/05
     NO STATEMENTS FLAGGED IN THIS ASSEMBLY
   OVERRIDING PARAMETERS-  ESD,RLD,SYSPARM=PASS
   OPTIONS FOR THIS ASSEMBLY
    NODECK,LOAD,LIST,XREF,NORENT,TEST,NOMULT,ALGN,ESD ,RLD ,NOSREF,LINECT= 80,MSGLEVEL=   0,SYSPARM= PASS
   NO OVERRIDING DD NAMES
      99 CARDS FROM SYSIN     496 CARDS FROM SYSLIB
     233 LINES OUTPUT          16 CARDS OUTPUT
