¤
                                              EXTERNAL SYMBOL DICTIONARY                                       PAGE    1
SYMBOL   TYPE  ID  ADDR  LENGTH  LD ID                                                         AP101S 3.0 09.38 07/22/05
MM1SNP    SD 0001 000000 000010
¤
         MM1SNP--PARTITIONED MATRIX MOVE, LENGTH N, SP                                                         PAGE    2
  LOC  OBJECT CODE   ADR1 ADR2      SOURCE STATEMENT                                           AP101S 3.0 09.38 07/22/05
                                  2 *
                                  3 * WHEN DATA_REMOTE IS IN EFFECT, THE LDM INSTRUCTIONS ARE NEEDED
                                  4 * AROUND THE CALL TO THIS RTL ROUTINE BECAUSE R1/R3 IS USED AS
                                  5 * A BASE REGISTER. (CR12620)
                                  6 *
                                  7 MM1SNP   AMAIN INTSIC=YES                                               00000200
                                  8+***********************************************************************
                                  9+*
                                 10+*        PRIMARY ENTRY POINT
                                 11+*
                                 12+***********************************************************************
00000                            13+MM1SNP   CSECT                                                          01-AMAIN
                                 15 *                                                                       00000300
                                 16 * MOVE AN N X M PARTITION OF M1 TO ALL OR AN N X M PARTITION OF M2 OR   00000400
                                 17 *   MOVE ALL OF M1 TO AN N X M PARTITION OF M2, WHERE M1 AND M2 ARE     00000500
                                 18 *   SINGLE PRECISION MATRICES.                                          00000600
                                 19 *                                                                       00000700
                                 20          INPUT R2,            MATRIX(N,M) SP ( THIS IS M1 )            X00000800
                                                   R5,            INTEGER(N) SP                            X00000900
                                                   R6,            INTEGER(M) SP                            X00001000
                                                   R7             INTEGER(INDEL || OUTDEL) SP               00001100
0000002                          21+R2       EQU   2                                                        01-INPUT
0000005                          22+R5       EQU   5                                                        01-INPUT
0000006                          23+R6       EQU   6                                                        01-INPUT
0000007                          24+R7       EQU   7                                                        01-INPUT
                                 26          OUTPUT R1            MATRIX(N,M) SP ( THIS IS M2)              00001200
0000001                          27+R1       EQU   1                                                        01-OUTPU
                                 29          WORK  R3,F0,F1                                                 00001300
0000003                          30+R3       EQU   3                                                        01-WORK
0000000                          31+F0       EQU   0                                                        01-WORK
0000001                          32+F1       EQU   1                                                        01-WORK
                                 34 *                                                                       00001400
                                 35 * ALGORITHM:                                                            00001500
                                 36 *   SEE ALGORITHM DESCRIPTION IN MM1DNP                                 00001600
                                 37 *                                                                       00001700
00000 0BE3                       38          SR    R3,R3          CLEAR R3                                  00001800
00001 29EE                       39          LFLR  F1,R6          SAVE # OF COLUMNS                         00001900
00002 03EF                       40          XUL   R3,R7          PLACE OUTDEL IN R3                        00002000
00003 26E9                       41 OUTLOOP  LFXR  R6,F1          LOAD # OF COLUMNS                         00002100
00004 7806           0002        42 INLOOP   LE    F0,2(R2)                                                 00002200
00005 EA0A           0002        43          LA    R2,2(R2)       BUMP THE INPUT POINTER BY A FULL WORD     00002300
00006 3805           0002        44          STE   F0,2(R1)                                                 00002400
00007 E909           0002        45          LA    R1,2(R1)       BUMP THE OUTPUT POINTER BY A FULL WORD    00002500
00008 DE17           0004 0005   46          BCTB  R6,INLOOP                                                00002600
00009 01E3                       47          AR    R1,R3          BUMP THE OUTPUT POINTER TO THE NEXT ROW   00002700
0000A 02E7                       48          AR    R2,R7          BUMP THE INPUT POINTER TO THE NEXT ROW    00002800
0000B DD27           0003 0009   49          BCTB  R5,OUTLOOP                                               00002900
                                 50 *                                                                       00003000
                                 51 * SEE COMMENT ON BIX IN MM1DNP                                          00003100
                                 52 *                                                                       00003200
                                 53          AEXIT                                                          00003300
                                 54+*********RETURN TO CALLER**********************************************
0000C                            55+         DS    0H                                                       01-AEXIT
0000C 9B24           0009        56+         LH    3,9(0)         RESTORE LOCAL DATA BASE                   01-AEXIT
0000D 9914           0005        57+         LH    1,5(0)         RESTORE PROGRAM DATA BASE                 01-AEXIT
0000E C7EC                       58+$RET1    BCRE  7,4            RETURN TO CALLER                          01-AEXIT
                                 59+***********************************************************************
                                 61          ACLOSE                                                         00003400
0000F C9FB
00010                            62+         LTORG                                                          02-ERRPA
                                 63+****************ERROR PARAMETER AREA***********************************
                                 64+***  NO ERRORS SENT IN MM1SNP                                           02-ERRPA
                                 65+****************END OF ERROR PARAMETER AREA****************************
                                 66+         END                                                            01-ACLOS
¤
                                             CROSS REFERENCE                                                   PAGE    3
SYMBOL    LEN    VALUE   DEFN   REFERENCES                                                     AP101S 3.0 09.38 07/22/05
F0           1 00000000    31     42    44
F1           1 00000001    32     39    41
INLOOP       2   000004    42     46
MM1SNP       1 00000000    13
OUTLOOP      1   000003    41     49
R1           1 00000001    27     44    44    45    45    45    47
R2           1 00000002    21     42    42    43    43    43    48
R3           1 00000003    30     38    38    40    47
R5           1 00000005    22     49
R6           1 00000006    23     39    41    46
R7           1 00000007    24     40    48
$RET1        1   00000E    58
¤
                                  DIAGNOSTIC CROSS REFERENCE AND ASSEMBLER SUMMARY                             PAGE    4
                                                                                               AP101S 3.0 09.38 07/22/05
     NO STATEMENTS FLAGGED IN THIS ASSEMBLY
   OVERRIDING PARAMETERS-  ESD,RLD,SYSPARM=PASS
   OPTIONS FOR THIS ASSEMBLY
    NODECK,LOAD,LIST,XREF,NORENT,TEST,NOMULT,ALGN,ESD ,RLD ,NOSREF,LINECT= 80,MSGLEVEL=   0,SYSPARM= PASS
   NO OVERRIDING DD NAMES
      39 CARDS FROM SYSIN     338 CARDS FROM SYSLIB
      96 LINES OUTPUT           5 CARDS OUTPUT
