¤
MMWDNP                                        EXTERNAL SYMBOL DICTIONARY                                       PAGE    1
SYMBOL   TYPE  ID  ADDR  LENGTH  LD ID                                                         AP101S 3.0 09.38 07/22/05
MMWDNP    SD 0001 000000 000020
#QSKIP    ER 0002
#QCOLUMN  ER 0003
#QDOUT    ER 0004
¤
MMWDNP   DOUBLE PRECISION VECTOR/MATRIX OUTPUT INTERFACE                                                       PAGE    2
  LOC  OBJECT CODE   ADR1 ADR2      SOURCE STATEMENT                                           AP101S 3.0 09.38 07/22/05
                                  2 *
                                  3 * WHEN DATA_REMOTE IS IN EFFECT, THE LDM INSTRUCTIONS ARE NOT NEEDED
                                  4 * AROUND THE CALL TO THIS RTL ROUTINE BECAUSE R1/R3 IS NOT USED AS
                                  5 * A BASE REGISTER. (CR12620)
                                  6 *
                                  7          MACRO                                                          00000200
                                  8          WORKAREA                                                       00000300
                                  9 HOLD1    DS    H                                                        00000400
                                 10 HOLD7    DS    H                                                        00000500
                                 11          MEND                                                           00000600
                                 12 MMWDNP   AMAIN ACALL=YES                                                00000700
                                 13+***********************************************************************
                                 14+*
                                 15+*        PRIMARY ENTRY POINT
                                 16+*
                                 17+***********************************************************************
00000                            18+MMWDNP   CSECT                                                          01-AMAIN
00000                            19+STACK    DSECT                                                          01-AMAIN
                                 20+*        DS    18H            STANDARD STACK AREA DEFINITION
00000                            21+         DS    F              PSW (LEFT HALF)                           01-AMAIN
00002                            22+         DS    2F             R0,R1                                     01-AMAIN
00006                            23+ARG2     DS    F              R2                                        01-AMAIN
00008                            24+         DS    F              R3                                        01-AMAIN
0000A                            25+ARG4     DS    F              R4                                        01-AMAIN
0000C                            26+ARG5     DS    F              R5                                        01-AMAIN
0000E                            27+ARG6     DS    F              R6                                        01-AMAIN
00010                            28+ARG7     DS    F              R7                                        01-AMAIN
                                 29+*        END OF STANDARD STACK AREA
00012                            30+HOLD1    DS    H                                                        02-00009
00013                            31+HOLD7    DS    H                                                        02-00010
00014                            32+STACKEND DS    0F             END OF COMBINED STACK AREA                01-AMAIN
00000                            33+MMWDNP   CSECT                                                          01-AMAIN
0000000                          34+         USING STACK,0        ADDRESS STACK AREA                        01-AMAIN
00000 E0FB 0014      0014        35+         IAL   0,STACKEND-STACK SET STACK SIZE                          01-AMAIN
00002 B624 0000      0009 0000   36+         NIST  9(0),0         CLEAR ON ERROR INFO (LCL DATA PTR)        01-AMAIN
                                 38 * OUTPUT AN M*N DOUBLE PRECISION VECTOR/MATRIX                          00000800
                                 39          INPUT R2,            POINTER TO 0'TH ELT. OF VECTOR/MATRIX    X00000900
                                                   R5,            NO. OF ROWS(M)                           X00001000
                                                   R6,            NO. OF COLOMNS(N)                        X00001100
                                                   R7             DELTA DIMENSION                           00001200
0000002                          40+R2       EQU   2                                                        01-INPUT
0000005                          41+R5       EQU   5                                                        01-INPUT
0000006                          42+R6       EQU   6                                                        01-INPUT
0000007                          43+R7       EQU   7                                                        01-INPUT
                                 45          OUTPUT NONE                                                    00001300
                                 47          WORK  R1,F0                                                    00001400
0000001                          48+R1       EQU   1                                                        01-WORK
0000000                          49+F0       EQU   0                                                        01-WORK
00004 E9F3 0004      0004        51          LHI   R1,4                                                     00001500
00006 1FE7                       52          LR    R7,R7                                                    00001600
00007 DC10           000C 0004   53          BZ    OK                                                       00001700
00008 B5E5 0001           0001   54          CHI   R5,1                                                     00001800
0000A DB04           000C 0001   55          BNE   OK                                                       00001900
0000B 19E7                       56          LR    R1,R7                                                    00002000
0000C B948           0012        57 OK       STH   R1,HOLD1                                                 00002100
0000D BF4C           0013        58          STH   R7,HOLD7                                                 00002200
0000E 1FE5                       59          LR    R7,R5                                                    00002300
0000F EDF3 0001      0001        60 OLOOP    LHI   R5,1                                                     00002400
                                 61          ACALL SKIP                                                     00002500
                                 62+         EXTRN #QSKIP                                                   01-ACALL
00011 D0FF                       63+         DC  X'D0FF'          CALL PROCEDURE ROUTINE                    01-ACALL
00012 3800                       64+         DC  Y(#QSKIP+X'3800')                                         X01-ACALL
                                   +                              INDIRECTLY THRU QCON
                                 65          ACALL COLUMN                                                   00002600
                                 66+         EXTRN #QCOLUMN                                                 01-ACALL
00013 D0FF                       67+         DC  X'D0FF'          CALL PROCEDURE ROUTINE                    01-ACALL
00014 3800                       68+         DC  Y(#QCOLUMN+X'3800')                                       X01-ACALL
                                   +                              INDIRECTLY THRU QCON
00015 1DE6                       69          LR    R5,R6                                                    00002700
00016 78FA 0004      0004        70 LOOP     LED   F0,4(R2)                                                 00002800
                                 71          ACALL DOUT                                                     00002900
                                 72+         EXTRN #QDOUT                                                   01-ACALL
00018 D0FF                       73+         DC  X'D0FF'          CALL PROCEDURE ROUTINE                    01-ACALL
00019 3800                       74+         DC  Y(#QDOUT+X'3800')                                         X01-ACALL
                                   +                              INDIRECTLY THRU QCON
i0001A 8248           0012        75          AH    R2,HOLD1                                                 00003000
MMWDNP   DOUBLE PRECISION VECTOR/MATRIX OUTPUT INTERFACE                                                       PAGE    3
  LOC  OBJECT CODE   ADR1 ADR2      SOURCE STATEMENT                                           AP101S 3.0 09.38 07/22/05
0001B DD1B           0016 0006   76          BCT   R5,LOOP                                                  00003100
0001C 824C           0013        77          AH    R2,HOLD7                                                 00003200
0001D DF3F           000F 000F   78          BCT   R7,OLOOP                                                 00003300
                                 79          AEXIT                                                          00003400
                                 80+*********RETURN TO CALLER**********************************************
0001E                            81+         DS    0H                                                       01-AEXIT
0001E 97E8                       82+$RET1    SRET  7,0            RETURN TO CALLER                          01-AEXIT
                                 83+***********************************************************************
                                 85          ACLOSE                                                         00003500
0001F C9FB
00020                            86+         LTORG                                                          02-ERRPA
                                 87+****************ERROR PARAMETER AREA***********************************
                                 88+***  NO ERRORS SENT IN MMWDNP                                           02-ERRPA
                                 89+****************END OF ERROR PARAMETER AREA****************************
                                 90+         END                                                            01-ACLOS
¤
MMWDNP                                           RELOCATION DICTIONARY                                         PAGE    4
 POS.ID   REL.ID   FLAGS   ADDRESS                                                             AP101S 3.0 09.38 07/22/05
  0001     0002     00     000012
  0001     0003     00     000014
  0001     0004     00     000019
¤
MMWDNP                                       CROSS REFERENCE                                                   PAGE    5
SYMBOL    LEN    VALUE   DEFN   REFERENCES                                                     AP101S 3.0 09.38 07/22/05
ARG2         2   000006    23
ARG4         2   00000A    25
ARG5         2   00000C    26
ARG6         2   00000E    27
ARG7         2   000010    28
F0           1 00000000    49     70
HOLD1        1   000012    30     57    75
HOLD7        1   000013    31     58    77
LOOP         2   000016    70     76
MMWDNP       1 00000000    18     33
OK           2   00000C    57     53    55
OLOOP        2   00000F    60     78
R1           1 00000001    48     51    56    57
R2           1 00000002    40     70    70    75    77
R5           1 00000005    41     54    59    60    69    76
R6           1 00000006    42     69
R7           1 00000007    43     52    52    56    58    59    78
STACK        1 00000000    19     34    35
STACKEND     2   000014    32     35
$RET1        1   00001E    82
#QCOLUMN     1 00000000    66     68
#QDOUT       1 00000000    72     74
#QSKIP       1 00000000    62     64
¤
MMWDNP                            DIAGNOSTIC CROSS REFERENCE AND ASSEMBLER SUMMARY                             PAGE    6
                                                                                               AP101S 3.0 09.38 07/22/05
     NO STATEMENTS FLAGGED IN THIS ASSEMBLY
   OVERRIDING PARAMETERS-  ESD,RLD,SYSPARM=PASS
   OPTIONS FOR THIS ASSEMBLY
    NODECK,LOAD,LIST,XREF,NORENT,TEST,NOMULT,ALGN,ESD ,RLD ,NOSREF,LINECT= 80,MSGLEVEL=   0,SYSPARM= PASS
   NO OVERRIDING DD NAMES
      40 CARDS FROM SYSIN     390 CARDS FROM SYSLIB
     145 LINES OUTPUT          11 CARDS OUTPUT
