
                                              EXTERNAL SYMBOL DICTIONARY                                       PAGE    1
SYMBOL   TYPE  ID  ADDR  LENGTH  LD ID                                                         AP101S 3.0 09.39 07/22/05
MR0SNP    SD 0001 000000 000010

         MR0SNP--SCALAR TO REMOTE PARTITIONED MATRIX MOVE, SP                                                  PAGE    2
  LOC  OBJECT CODE   ADR1 ADR2      SOURCE STATEMENT                                           AP101S 3.0 09.39 07/22/05
                                  2 *
                                  3 * WHEN DATA_REMOTE IS IN EFFECT, THE LDM INSTRUCTIONS ARE NOT NEEDED
                                  4 * AROUND THE CALL TO THIS RTL ROUTINE BECAUSE R1/R3 IS NOT USED AS
                                  5 * A BASE REGISTER. (CR12620)
                                  6 *
                                  7          MACRO                                                          00000200
                                  8          WORKAREA                                                       00000300
                                  9 TARG2    DS    F                                                        00000400
                                 10          MEND                                                           00000500
                                 11 MR0SNP   AMAIN                                                          00000600
                                 12+***********************************************************************
                                 13+*
                                 14+*        PRIMARY ENTRY POINT
                                 15+*
                                 16+***********************************************************************
00000                            17+MR0SNP   CSECT                                                          01-AMAIN
00000                            18+STACK    DSECT                                                          01-AMAIN
                                 19+*        DS    18H            STANDARD STACK AREA DEFINITION
00000                            20+         DS    F              PSW (LEFT HALF)                           01-AMAIN
00002                            21+         DS    2F             R0,R1                                     01-AMAIN
00006                            22+ARG2     DS    F              R2                                        01-AMAIN
00008                            23+         DS    F              R3                                        01-AMAIN
0000A                            24+ARG4     DS    F              R4                                        01-AMAIN
0000C                            25+ARG5     DS    F              R5                                        01-AMAIN
0000E                            26+ARG6     DS    F              R6                                        01-AMAIN
00010                            27+ARG7     DS    F              R7                                        01-AMAIN
                                 28+*        END OF STANDARD STACK AREA
00012                            29+TARG2    DS    F                                                        02-00009
00014                            30+STACKEND DS    0F             END OF COMBINED STACK AREA                01-AMAIN
00000                            31+MR0SNP   CSECT                                                          01-AMAIN
0000000                          32+         USING STACK,0        ADDRESS STACK AREA                        01-AMAIN
00000 B624 0000      0009 0000   33+         NIST  9(0),0         CLEAR ON ERROR INFO (LCL DATA PTR)        01-AMAIN
                                 35 *                                                                       00000700
                                 36 * FILL AN N X M PARTITION OF A REMOTE SINGLE PRECISION MATRIX WITH      00000800
                                 37 *   A SINGLE PRECISION SCALAR.                                          00000900
                                 38 *                                                                       00001000
                                 39          INPUT R5,            INTEGER(N) SP                            X00001100
                                                   R6,            INTEGER(M) SP                            X00001200
                                                   R7,            INTEGER(OUTDEL) SP                       X00001300
                                                   F0             SCALAR SP                                 00001400
0000005                          40+R5       EQU   5                                                        01-INPUT
0000006                          41+R6       EQU   6                                                        01-INPUT
0000007                          42+R7       EQU   7                                                        01-INPUT
0000000                          43+F0       EQU   0                                                        01-INPUT
                                 45          OUTPUT R2            ZCON(MATRIX(N,M)) SP                      00001500
0000002                          46+R2       EQU   2                                                        01-OUTPU
                                 48 *                                                                       00001600
                                 49 * ALGORITHM:                                                            00001700
                                 50 *   SEE ALGORITHM DESCRIPTION IN MR0DNP                                 00001800
                                 51 *                                                                       00001900
00002 3224           0012        52          ST    R2,TARG2       SAVE ZCON IN TARG2                        00002000
00003 1AE6                       53          LR    R2,R6          PLACE M IN R2                             00002100
00004 F204                0001   54          SLL   R2,1           GET # OF HALFWORDS / ROW OF               00002200
                                 55 *                             PARTITION OF MATRIX                       00002300
00005 07E2                       56          AR    R7,R2          GET # OF HALFWORDS / ROW OF MATRIX        00002400
00006 1AE6                       57          LR    R2,R6          SAVE M IN R2                              00002500
00007 38F4 D812      0012        58 MR0SNPX  STE@# F0,TARG2(R6)                                             00002600
00009 DE0F           0007 0003   59          BCTB  R6,MR0SNPX                                               00002700
0000A 1EE2                       60          LR    R6,R2          RESET R6 TO M                             00002800
0000B 07F8 0012      0012        61          AST   R7,TARG2       BUMP OUTPUT PTR TO NEXT ROW               00002900
0000D DD1F           0007 0007   62          BCTB  R5,MR0SNPX                                               00003000
                                 63          AEXIT                                                          00003100
                                 64+*********RETURN TO CALLER**********************************************
0000E                            65+         DS    0H                                                       01-AEXIT
0000E 97E8                       66+$RET1    SRET  7,0            RETURN TO CALLER                          01-AEXIT
                                 67+***********************************************************************
                                 69          ACLOSE                                                         00003200
0000F C9FB
00010                            70+         LTORG                                                          02-ERRPA
                                 71+****************ERROR PARAMETER AREA***********************************
                                 72+***  NO ERRORS SENT IN MR0SNP                                           02-ERRPA
                                 73+****************END OF ERROR PARAMETER AREA****************************
                                 74+         END                                                            01-ACLOS

                                             CROSS REFERENCE                                                   PAGE    3
SYMBOL    LEN    VALUE   DEFN   REFERENCES                                                     AP101S 3.0 09.39 07/22/05
ARG2         2   000006    22
ARG4         2   00000A    24
ARG5         2   00000C    25
ARG6         2   00000E    26
ARG7         2   000010    27
F0           1 00000000    43     58
MR0SNP       1 00000000    17     31
MR0SNPX      2   000007    58     59    62
R2           1 00000002    46     52    53    54    56    57    60
R5           1 00000005    40     62
R6           1 00000006    41     53    57    58    59    60
R7           1 00000007    42     56    61
STACK        1 00000000    18     32
STACKEND     2   000014    30
TARG2        2   000012    29     52    58    61
$RET1        1   00000E    66

                                  DIAGNOSTIC CROSS REFERENCE AND ASSEMBLER SUMMARY                             PAGE    4
                                                                                               AP101S 3.0 09.39 07/22/05
     NO STATEMENTS FLAGGED IN THIS ASSEMBLY
   OVERRIDING PARAMETERS-  ESD,RLD,SYSPARM=PASS
   OPTIONS FOR THIS ASSEMBLY
    NODECK,LOAD,LIST,XREF,NORENT,TEST,NOMULT,ALGN,ESD ,RLD ,NOSREF,LINECT= 80,MSGLEVEL=   0,SYSPARM= PASS
   NO OVERRIDING DD NAMES
      37 CARDS FROM SYSIN     315 CARDS FROM SYSLIB
     109 LINES OUTPUT           7 CARDS OUTPUT
