¤
                                              EXTERNAL SYMBOL DICTIONARY                                       PAGE    1
SYMBOL   TYPE  ID  ADDR  LENGTH  LD ID                                                         AP101S 3.0 09.39 07/22/05
MR1SNP    SD 0001 000000 000016
¤
         MR1SNP--REMOTE PARTITIONED MATRIX MOVE, DP                                                            PAGE    2
  LOC  OBJECT CODE   ADR1 ADR2      SOURCE STATEMENT                                           AP101S 3.0 09.39 07/22/05
                                  2 *
                                  3 * WHEN DATA_REMOTE IS IN EFFECT, THE LDM INSTRUCTIONS ARE NOT NEEDED
                                  4 * AROUND THE CALL TO THIS RTL ROUTINE BECAUSE R1/R3 IS NOT USED AS
                                  5 * A BASE REGISTER. (CR12620)
                                  6 *
                                  7          MACRO                                                          00000200
                                  8          WORKAREA                                                       00000300
                                  9 TARG2    DS    F                                                        00000400
                                 10 TARG4    DS    F                                                        00000500
                                 11          MEND                                                           00000600
                                 12 MR1SNP   AMAIN                                                          00000700
                                 13+***********************************************************************
                                 14+*
                                 15+*        PRIMARY ENTRY POINT
                                 16+*
                                 17+***********************************************************************
00000                            18+MR1SNP   CSECT                                                          01-AMAIN
00000                            19+STACK    DSECT                                                          01-AMAIN
                                 20+*        DS    18H            STANDARD STACK AREA DEFINITION
00000                            21+         DS    F              PSW (LEFT HALF)                           01-AMAIN
00002                            22+         DS    2F             R0,R1                                     01-AMAIN
00006                            23+ARG2     DS    F              R2                                        01-AMAIN
00008                            24+         DS    F              R3                                        01-AMAIN
0000A                            25+ARG4     DS    F              R4                                        01-AMAIN
0000C                            26+ARG5     DS    F              R5                                        01-AMAIN
0000E                            27+ARG6     DS    F              R6                                        01-AMAIN
00010                            28+ARG7     DS    F              R7                                        01-AMAIN
                                 29+*        END OF STANDARD STACK AREA
00012                            30+TARG2    DS    F                                                        02-00009
00014                            31+TARG4    DS    F                                                        02-00010
00016                            32+STACKEND DS    0F             END OF COMBINED STACK AREA                01-AMAIN
00000                            33+MR1SNP   CSECT                                                          01-AMAIN
0000000                          34+         USING STACK,0        ADDRESS STACK AREA                        01-AMAIN
00000 B624 0000      0009 0000   35+         NIST  9(0),0         CLEAR ON ERROR INFO (LCL DATA PTR)        01-AMAIN
                                 37 *                                                                       00000800
                                 38 * MOVE AN N X M PARTITION OF M1 TO ALL OR AN N X M PARTITION OF M2 OR   00000900
                                 39 *   MOVE ALL OF M1 TO AN N X M PARTITION OF M2, WHERE M1 AND M2 ARE     00001000
                                 40 *   SINGLE PRECISION MATRICES, AT LEAST ONE OF WHICH IS REMOTE          00001100
                                 41 *                                                                       00001200
                                 42          INPUT R4,            MATRIX(N,M) SP                           X00001300
                                                   R5,            INTEGER(N) SP                            X00001400
                                                   R6,            INTEGER(M) SP                            X00001500
                                                   R7             INTEGER(INDEL || OUTDEL) SP               00001600
0000004                          43+R4       EQU   4                                                        01-INPUT
0000005                          44+R5       EQU   5                                                        01-INPUT
0000006                          45+R6       EQU   6                                                        01-INPUT
0000007                          46+R7       EQU   7                                                        01-INPUT
                                 48          OUTPUT R2            MATRIX(N,M) DP                            00001700
0000002                          49+R2       EQU   2                                                        01-OUTPU
                                 51          WORK R3,F0                                                     00001800
0000003                          52+R3       EQU   3                                                        01-WORK
0000000                          53+F0       EQU   0                                                        01-WORK
                                 55 *                                                                       00001900
                                 56 * ALGORITHM:                                                            00002000
                                 57 *   SEE ALGORITHM DESCRIPTION IN MR1DNP                                 00002100
                                 58 *                                                                       00002200
00002 3224           0012        59          ST    R2,TARG2       STORE OUTPUT ZCON IN TARG2                00002300
00003 3428           0014        60          ST    R4,TARG4       STORE INPUT ZCON IN TARG4                 00002400
00004 0BE3                       61          SR    R3,R3          CLEAR R3                                  00002500
00005 03EF                       62          XUL   R3,R7          PLACE OUTDEL IN R3                        00002600
00006 1CE6                       63          LR    R4,R6          PLACE M IN R4                             00002700
00007 F404                0001   64          SLL   R4,1           GET # HALFWORDS / ROW OF                  00002800
                                 65 *                             N X M PARTITION                           00002900
00008 03E4                       66          AR    R3,R4          GET # HALFWORDS / ROW OF M2               00003000
00009 07E4                       67          AR    R7,R4          GET # HALFWORDS / ROW OF M1               00003100
0000A 78F4 D814      0014        68 MR1SNPX  LE@#  F0,TARG4(R6)                                             00003200
0000C 38F4 D812      0012        69          STE@# F0,TARG2(R6)                                             00003300
0000E DE17           000A 0005   70          BCTB  R6,MR1SNPX                                               00003400
0000F 9E38           000E        71          LH    R6,ARG6        RESET COUNTER TO M                        00003500
00010 07F8 0014      0014        72          AST   R7,TARG4       POINT TO NEXT 'IN' ROW                    00003600
00012 03F8 0012      0012        73          AST   R3,TARG2       POINT TO NEXT 'OUT' ROW                   00003700
00014 DD2F           000A 000B   74          BCTB  R5,MR1SNPX                                               00003800
                                 75          AEXIT                                                          00003900
                                 76+*********RETURN TO CALLER**********************************************
00015                            77+         DS    0H                                                       01-AEXIT
i00015 97E8                       78+$RET1    SRET  7,0            RETURN TO CALLER                          01-AEXIT
         MR1SNP--REMOTE PARTITIONED MATRIX MOVE, DP                                                            PAGE    3
  LOC  OBJECT CODE   ADR1 ADR2      SOURCE STATEMENT                                           AP101S 3.0 09.39 07/22/05
                                 79+***********************************************************************
                                 81          ACLOSE                                                         00004000
00016                            82+         LTORG                                                          02-ERRPA
                                 83+****************ERROR PARAMETER AREA***********************************
                                 84+***  NO ERRORS SENT IN MR1SNP                                           02-ERRPA
                                 85+****************END OF ERROR PARAMETER AREA****************************
                                 86+         END                                                            01-ACLOS
¤
                                             CROSS REFERENCE                                                   PAGE    4
SYMBOL    LEN    VALUE   DEFN   REFERENCES                                                     AP101S 3.0 09.39 07/22/05
ARG2         2   000006    23
ARG4         2   00000A    25
ARG5         2   00000C    26
ARG6         2   00000E    27     71
ARG7         2   000010    28
F0           1 00000000    53     68    69
MR1SNP       1 00000000    18     33
MR1SNPX      2   00000A    68     70    74
R2           1 00000002    49     59
R3           1 00000003    52     61    61    62    66    73
R4           1 00000004    43     60    63    64    66    67
R5           1 00000005    44     74
R6           1 00000006    45     63    68    69    70    71
R7           1 00000007    46     62    67    72
STACK        1 00000000    19     34
STACKEND     2   000016    32
TARG2        2   000012    30     59    69    73
TARG4        2   000014    31     60    68    72
$RET1        1   000015    78
¤
                                  DIAGNOSTIC CROSS REFERENCE AND ASSEMBLER SUMMARY                             PAGE    5
                                                                                               AP101S 3.0 09.39 07/22/05
     NO STATEMENTS FLAGGED IN THIS ASSEMBLY
   OVERRIDING PARAMETERS-  ESD,RLD,SYSPARM=PASS
   OPTIONS FOR THIS ASSEMBLY
    NODECK,LOAD,LIST,XREF,NORENT,TEST,NOMULT,ALGN,ESD ,RLD ,NOSREF,LINECT= 80,MSGLEVEL=   0,SYSPARM= PASS
   NO OVERRIDING DD NAMES
      45 CARDS FROM SYSIN     338 CARDS FROM SYSLIB
     124 LINES OUTPUT           7 CARDS OUTPUT
