¤
                                              EXTERNAL SYMBOL DICTIONARY                                       PAGE    1
SYMBOL   TYPE  ID  ADDR  LENGTH  LD ID                                                         AP101S 3.0 09.39 07/22/05
MV6D3     SD 0001 000000 000018
¤
         MV6D3 -- MATRIX*VECTOR,LENGTH 3,DBLE PRECISION                                                        PAGE    2
  LOC  OBJECT CODE   ADR1 ADR2      SOURCE STATEMENT                                           AP101S 3.0 09.39 07/22/05
                                  2 *
                                  3 * WHEN DATA_REMOTE IS IN EFFECT, THE LDM INSTRUCTIONS ARE NEEDED
                                  4 * AROUND THE CALL TO THIS RTL ROUTINE BECAUSE R1/R3 IS USED AS
                                  5 * A BASE REGISTER. (CR12620)
                                  6 *
                                  7 * * * * * * * * * * * * * * * * * * * * * * * * * * * * * * * * * * * * 00000200
                                  8 * R2-MATRIX,R3-VECTOR,R1-RESULT '                                       00000300
                                  9 * MODIFIED SEPT.,1975 TO UNWIND LOOP (BY IBM HOUSTON)                   00000400
                                 10 * * * * * * * * * * * * * * * * * * * * * * * * * * * * * * * * * * * * 00000500
                                 11 MV6D3    AMAIN INTSIC=YES                                               00000600
                                 12+***********************************************************************
                                 13+*
                                 14+*        PRIMARY ENTRY POINT
                                 15+*
                                 16+***********************************************************************
00000                            17+MV6D3    CSECT                                                          01-AMAIN
                                 19 *     COMPUTE THE MATRIX VECTOR PRODUCT:                                00000700
                                 20 *                                                                       00000800
                                 21 *        V(3)=M(3,3)*V1(3)                                              00000900
                                 22 *                                                                       00001000
                                 23          INPUT R2,            MATRIX(3,3) DP                           X00001100
                                                   R3             VECTOR(3) DP                              00001200
0000002                          24+R2       EQU   2                                                        01-INPUT
0000003                          25+R3       EQU   3                                                        01-INPUT
                                 27          OUTPUT R1            VECTOR(3) DP                              00001300
0000001                          28+R1       EQU   1                                                        01-OUTPU
                                 30          WORK  R6,F0,F1,F2,F3                                           00001400
0000006                          31+R6       EQU   6                                                        01-WORK
0000000                          32+F0       EQU   0                                                        01-WORK
0000001                          33+F1       EQU   1                                                        01-WORK
0000002                          34+F2       EQU   2                                                        01-WORK
0000003                          35+F3       EQU   3                                                        01-WORK
                                 37 *                                                                       00001500
                                 38 *      ALGORITHM:                                                       00001600
                                 39 *                                                                       00001700
                                 40 *       DO FO I=1 TO 3;                                                 00001800
                                 41 *         ACC=0;                                                        00001900
                                 42 *         DO FOR J=1 TO 3;                                              00002000
                                 43 *          ACC=ACC+M$(I,J)*V1$(J);                                      00002100
                                 44 *         END;                                                          00002200
                                 45 *         V$(I)=ACC;                                                    00002300
                                 46 *       END                                                             00002400
                                 47 *                                                                       00002500
00000 EEF3 0003      0003        48 MV6D3X   LA    R6,3                                                     00002600
00002 780B           0004        49 LOOP1    LE    F0,4(R3)                                                 00002700
00003 790F           0006        50          LE    F1,6(R3)                                                 00002800
00004 30FA 0004      0004        51          MED   F0,4(R2)                                                 00002900
00006 7A13           0008        52          LE    F2,8(R3)                                                 00003000
00007 7B17           000A        53          LE    F3,10(R3)                                                00003100
00008 32FA 0008      0008        54          MED   F2,8(R2)                                                 00003200
0000A 50EA                       55          AEDR  F0,F2                                                    00003300
0000B 7A1B           000C        56          LE    F2,12(R3)                                                00003400
0000C 7B1F           000E        57          LE    F3,14(R3)                                                00003500
0000D 32FA 000C      000C        58          MED   F2,12(R2)                                                00003600
0000F 50EA                       59          AEDR  F0,F2                                                    00003700
00010 38F9 0004      0004        60          STED  F0,4(R1)                                                 00003800
00012 E911           0004        61          LA    R1,4(R1)                                                 00003900
00013 EA32           000C        62          LA    R2,12(R2)                                                00004000
00014 DE4F           0002 0013   63          BCTB  R6,LOOP1                                                 00004100
                                 64          AEXIT                                                          00004200
                                 65+*********RETURN TO CALLER**********************************************
00015                            66+         DS    0H                                                       01-AEXIT
00015 9B24           0009        67+         LH    3,9(0)         RESTORE LOCAL DATA BASE                   01-AEXIT
00016 9914           0005        68+         LH    1,5(0)         RESTORE PROGRAM DATA BASE                 01-AEXIT
00017 C7EC                       69+$RET1    BCRE  7,4            RETURN TO CALLER                          01-AEXIT
                                 70+***********************************************************************
                                 72          ACLOSE                                                         00004300
00018                            73+         LTORG                                                          02-ERRPA
                                 74+****************ERROR PARAMETER AREA***********************************
                                 75+***  NO ERRORS SENT IN MV6D3                                            02-ERRPA
                                 76+****************END OF ERROR PARAMETER AREA****************************
                                 77+         END                                                            01-ACLOS
¤
                                             CROSS REFERENCE                                                   PAGE    3
SYMBOL    LEN    VALUE   DEFN   REFERENCES                                                     AP101S 3.0 09.39 07/22/05
F0           1 00000000    32     49    51    55    59    60
F1           1 00000001    33     50
F2           1 00000002    34     52    54    55    56    58    59
F3           1 00000003    35     53    57
LOOP1        2   000002    49     63
MV6D3        1 00000000    17
MV6D3X       2   000000    48
R1           1 00000001    28     60    60    61    61    61
R2           1 00000002    24     51    51    54    54    58    58    62    62    62
R3           1 00000003    25     49    49    50    50    52    52    53    53    56    56    57    57
R6           1 00000006    31     48    63
$RET1        1   000017    69
¤
                                  DIAGNOSTIC CROSS REFERENCE AND ASSEMBLER SUMMARY                             PAGE    4
                                                                                               AP101S 3.0 09.39 07/22/05
     NO STATEMENTS FLAGGED IN THIS ASSEMBLY
   OVERRIDING PARAMETERS-  ESD,RLD,SYSPARM=PASS
   OPTIONS FOR THIS ASSEMBLY
    NODECK,LOAD,LIST,XREF,NORENT,TEST,NOMULT,ALGN,ESD ,RLD ,NOSREF,LINECT= 80,MSGLEVEL=   0,SYSPARM= PASS
   NO OVERRIDING DD NAMES
      48 CARDS FROM SYSIN     338 CARDS FROM SYSLIB
     104 LINES OUTPUT           4 CARDS OUTPUT
