¤
                                              EXTERNAL SYMBOL DICTIONARY                                       PAGE    1
SYMBOL   TYPE  ID  ADDR  LENGTH  LD ID                                                         AP101S 3.0 09.39 07/22/05
SQRT      SD 0001 000000 000030
#LSQRT    SD 0002 000030 00000E
¤
         SQRT -- SINGLE PRECISION SQUARE ROOT FUNCTION                                                         PAGE    2
  LOC  OBJECT CODE   ADR1 ADR2      SOURCE STATEMENT                                           AP101S 3.0 09.39 07/22/05
                                  2 *
                                  3 * WHEN DATA_REMOTE IS IN EFFECT, THE LDM INSTRUCTIONS ARE NEEDED
                                  4 * AROUND THE CALL TO THIS RTL ROUTINE BECAUSE R1/R3 IS USED AS
                                  5 * A BASE REGISTER. (CR12620)
                                  6 *
                                  7 * SQRT: SQUARE ROOT(SINGLE)                                             00000200
                                  8 *                                                                       00000300
                                  9 *        1. INPUT AND OUTPUT VIA F0.                                    00000400
                                 10 *        2. WRITE X = 16**(2P-Q)*M, WHERE 1/16<=M<1.                    00000500
                                 11 *        3. COMPUTE SQRT(M) BY A HYPERBOLIC APPROXIMATION               00000600
                                 12 *           OF THE FORM A-B/(C+M).                                      00000700
                                 13 *        4. THEN SQRT(X) = (16**P)(4**(-Q))(SQRT(M)).                   00000800
                                 14 *        5. FOLLOW WITH TWO PASSES OF THE NEWTON-RAPHSON ITERATION.     00000900
                                 15 *        6. REGISTERS USED: R5-R7,F0-F4.                                00001000
                                 16 *        7. AVAIL NOT DISTURBED.                                        00001100
                                 17 *                                                                       00001200
                                 18 SQRT     AMAIN INTSIC=YES                                               00001300
                                 19+***********************************************************************
                                 20+*
                                 21+*        PRIMARY ENTRY POINT
                                 22+*
                                 23+***********************************************************************
00000                            24+SQRT     CSECT                                                          01-AMAIN
                                 26 * COMPUTES SQUARE ROOT IN SINGLE PRECISION                              00001400
                                 27          INPUT F0             SCALAR SP                                 00001500
0000000                          28+F0       EQU   0                                                        01-INPUT
                                 30          OUTPUT F0            SCALAR SP                                 00001600
                                 32          WORK  R1,R5,R6,R7,F1,F2,F3                                     00001700
0000001                          33+R1       EQU   1                                                        01-WORK
0000005                          34+R5       EQU   5                                                        01-WORK
0000006                          35+R6       EQU   6                                                        01-WORK
0000007                          36+R7       EQU   7                                                        01-WORK
0000001                          37+F1       EQU   1                                                        01-WORK
0000002                          38+F2       EQU   2                                                        01-WORK
0000003                          39+F3       EQU   3                                                        01-WORK
00000 E9F3 0032      0032        41          LA    R1,A                                                     00001800
0000032                          42          USING A,R1                                                     00001900
00002 7AE0                       43 START    LER   F2,F0                                                    00002000
00003 DE88           0026 0022   44          BNP   ERROR          ARGUMENT NEGATIVE OR ZERO                 00002100
                                 45 *                                                                       00002200
00004 27E8                       46          LFXR  R7,F0          TRANSFER TO GENERAL REGISTER              00002300
00005 76E6                       47          XR    R6,R6                                                    00002400
00006 FE1C                0007   48          SLDL  R6,7           Q & MANTISSA IN R7                        00002500
00007 F660                0018   49          SLL   R6,24          CHAR OF ANSWER - (Q+32) IN R6             00002600
00008 1FE7                       50          LR    R7,R7          CHECK FOR Q=1                             00002700
00009 DD0C           000D 0003   51          BCF   5,GORP                                                   00002800
                                 52 *                                                                       00002900
0000A B0E6 0100           0100   53          AHI   R6,X'0100'     ADD 1 TO CHAR FOR Q=1                     00003000
0000C E909           0002        54          LA    R1,2(R1)       FULLWORD INDEX                            00003100
                                 55 *                                                                       00003200
0000D 1DE6                       56 GORP     LR    R5,R6          CHARACTERISTIC OF ANSWER IN R5            00003300
0000E F705                0001   57          SRA   R7,1            FIXED M/2 + 'QQ' IN TOP BITS             00003400
0000F 0711           003A        58          A     R7,C           ADD C/2, AND ELIMINATE 'QQ'               00003500
00010 1E09           0036        59          L     R6,B           -B/2 OR -B/8 AT BIT 7(MANTISSA POS.)      00003600
00011 4EE7                       60          DR    R6,R7          (R6) = (4**(-Q))(-B/(C+M)) AT BIT 7       00003700
00012 0601           0032        61          A     R6,A           A OR A/4 AT BIT 7 + CHAR=32               00003800
00013 06E5                       62          AR    R6,R5          RESTORE CHARACTERISTIC OF ANSWER          00003900
00014 29EE                       63          LFLR  F1,R6                                                    00004000
                                 64 *                                                                       00004100
                                 65          DROP  R1                                                       00004200
                                 66 *                                                                       00004300
                                 67 *  TWO PASSES OF THE NEWTON-RAPHSON ITERATION                           00004400
                                 68 *                                                                       00004500
00015 68E1                       69          DER   F0,F1                                                    00004600
00016 50E1                       70          AER   F0,F1                                                    00004700
00017 7BF7 0013      002C 0013   71          LE    F3,FHALF                                                 00004800
00019 60E3                       72          MER   F0,F3                                                    00004900
0001A 6AE0                       73          DER   F2,F0                                                    00005000
                                 74 *                                                                       00005100
0001B B6E6 FF00           FF00   75          NHI   R6,X'FF00'     PUT CHARACTERISTIC OF                     00005200
0001D 06F7 000F      002E 000F   76          A     R6,ROUND       ANSWER IN ROUND                           00005300
0001F 29EE                       77          LFLR  F1,R6          DIGIT, AND ADD                            00005400
00020 50E1                       78          AER   F0,F1          TO INTERMEDIATE RESULT                    00005500
                                 79 *                                                                       00005600
00021 58E2                       80          SER   F0,F2                                                    00005700
i00022 60E3                       81          MER   F0,F3                                                    00005800
         SQRT -- SINGLE PRECISION SQUARE ROOT FUNCTION                                                         PAGE    3
  LOC  OBJECT CODE   ADR1 ADR2      SOURCE STATEMENT                                           AP101S 3.0 09.39 07/22/05
00023 50E2                       82          AER   F0,F2          ANSWER IN F0                              00005900
                                 83 *                                                                       00006000
                                 84 EXIT     AEXIT                AND RETURN                                00006100
                                 85+*********RETURN TO CALLER**********************************************
00024                            86+EXIT     DS    0H                                                       01-AEXIT
00024 9914           0005        87+         LH    1,5(0)         RESTORE PROGRAM DATA BASE                 01-AEXIT
00025 C7EC                       88+$RET1    BCRE  7,4            RETURN TO CALLER                          01-AEXIT
                                 89+***********************************************************************
                                 91 *                                                                       00006200
00026 DC0E           0024 0003   92 ERROR    BCB   4,EXIT         EXIT IF ARG=0                             00006300
                                 93          AERROR 5             ARGUMENT<0                                00006400
                                 94+*********ISSUE SEND ERROR SVC******************************************
00027 C9FB 0030      0030        95+         SVC   AERROR1        ISSUE SEND ERROR SVC                      01-AERRO
                                 96+*********SEND ERROR SVC RETURNS CONTROL FOR STANDARD FIXUP*************
00029 78E8                       97          LECR  F0,F0          FIXUP: GET |ARG|                          00006500
0002A DFA6           0002 0029   98          B     START          AND TRY AGAIN                             00006600
                                 99 *                                                                       00006700
0002B C9FB
0002C 40800000                  100 FHALF    DC    E'0.5'                                                   00006800
0002E 00000001                  101 ROUND    DC    X'00000001'                                              00006900
                                102 *                                                                       00007000
                                103          ADATA                                                          00007100
                                104+*********DATA CSECT****************************************************
00030                           105+         LTORG                                                          02-ERRPA
                                106+****************ERROR PARAMETER AREA***********************************
00030                           107+#LSQRT   CSECT                                                          02-ERRPA
                                108+***  SQRT SENDS THE FOLLOWING ERROR                                     02-ERRPA
                                110+***  ERROR NUMBER 5 IN GROUP 4                                          02-ERRPA
00030 0014                      112+AERROR1  DC    H'20'          SVC CODE FOR SEND ERROR                   02-ERRPA
00031 0405                      113+         DC    Y(4*256+5)                       8 BIT GROUP AND NUMBER  02-ERRPA
                                114+****************END OF ERROR PARAMETER AREA****************************
00032                           115+#LSQRT   CSECT                                                          01-ADATA
00032 21AE7D00                  116 A        DC    X'21AE7D00'    1.6815948=A + X'20'                       00007200
00034 206B9F40                  117          DC    X'206B9F40'    0.4203987=A/4 + X'20'                     00007300
00036 FF5B02F1                  118 B        DC    X'FF5B02F1'    -1.2889728=B                              00007400
00038 FFD6C0BD                  119          DC    X'FFD6C0BD'    -0.3222432=B/4                            00007500
0003A 35CFC610                  120 C        DC    X'35CFC610'    0.8408065=C/2                             00007600
0003C 75CFC610                  121          DC    X'75CFC610'    0.8408065=C/2 + X'40'                     00007700
                                122          ACLOSE                                                         00007800
                                123+         END                                                            01-ACLOS
¤
                                                 RELOCATION DICTIONARY                                         PAGE    4
 POS.ID   REL.ID   FLAGS   ADDRESS                                                             AP101S 3.0 09.39 07/22/05
  0001     0002     00     000001
  0001     0002     00     000028
¤
                                             CROSS REFERENCE                                                   PAGE    5
SYMBOL    LEN    VALUE   DEFN   REFERENCES                                                     AP101S 3.0 09.39 07/22/05
A            2   000032   116     41    42    61
AERROR1      1   000030   112     95
B            2   000036   118     59
C            2   00003A   120     58
ERROR        1   000026    92     44
EXIT         1   000024    86     92
F0           1 00000000    28     43    46    69    70    72    73    78    80    81    82    97    97
F1           1 00000001    37     63    69    70    77    78
F2           1 00000002    38     43    73    80    82
F3           1 00000003    39     71    72    81
FHALF        2   00002C   100     71
GORP         1   00000D    56     51
R1           1 00000001    33     41    42    54    54    54    65
R5           1 00000005    34     56    62
R6           1 00000006    35     47    47    48    49    53    56    59    60    61    62    63    75    76    77
R7           1 00000007    36     46    50    50    57    58    60
ROUND        2   00002E   101     76
SQRT         1 00000000    24
START        1   000002    43     98
$RET1        1   000025    88
#LSQRT       1 00000030   107    115
¤
                                  DIAGNOSTIC CROSS REFERENCE AND ASSEMBLER SUMMARY                             PAGE    6
                                                                                               AP101S 3.0 09.39 07/22/05
     NO STATEMENTS FLAGGED IN THIS ASSEMBLY
   OVERRIDING PARAMETERS-  ESD,RLD,SYSPARM=PASS
   OPTIONS FOR THIS ASSEMBLY
    NODECK,LOAD,LIST,XREF,NORENT,TEST,NOMULT,ALGN,ESD ,RLD ,NOSREF,LINECT= 80,MSGLEVEL=   0,SYSPARM= PASS
   NO OVERRIDING DD NAMES
      83 CARDS FROM SYSIN     368 CARDS FROM SYSLIB
     165 LINES OUTPUT          10 CARDS OUTPUT
