¤
                                              EXTERNAL SYMBOL DICTIONARY                                       PAGE    1
SYMBOL   TYPE  ID  ADDR  LENGTH  LD ID                                                         AP101S 3.0 09.39 07/22/05
STBYTE    SD 0001 000000 000016
¤
         STBYTE--INTRINSIC USED FOR CHARACTER MANIPULATION                                                     PAGE    2
  LOC  OBJECT CODE   ADR1 ADR2      SOURCE STATEMENT                                           AP101S 3.0 09.39 07/22/05
                                  2 *
                                  3 * WHEN DATA_REMOTE IS IN EFFECT, THE LDM INSTRUCTIONS ARE NEEDED
                                  4 * AROUND THE CALL TO THIS RTL ROUTINE BECAUSE R1/R3 IS USED AS
                                  5 * A BASE REGISTER. (CR12620)
                                  6 *
                                  7 STBYTE   AMAIN INTSIC=INTERNAL                                          00000200
                                  8+***********************************************************************
                                  9+*
                                 10+*        PRIMARY ENTRY POINT
                                 11+*
                                 12+***********************************************************************
00000                            13+STBYTE   CSECT                                                          01-AMAIN
                                 15 *                                                                       00000300
                                 16 * STORE ONE CHARACTER INTO A CHARACTER STRING.  THIS IS USED FOR        00000400
                                 17 *   CHARACTER MANIPULATION BY OTHER CHARACTER ROUTINES.                 00000500
                                 18 *                                                                       00000600
                                 19          INPUT R1,            BYTE DISP INDICATOR IN LOWER HALF        X00000700
                                                   R5             SINGLE CHARACTER                          00000800
0000001                          20+R1       EQU   1                                                        01-INPUT
0000005                          21+R5       EQU   5                                                        01-INPUT
                                 23          OUTPUT R1            HALFWORD TO STORE INTO                    00000900
                                 25          WORK  R4,F0                                                    00001000
0000004                          26+R4       EQU   4                                                        01-WORK
0000000                          27+F0       EQU   0                                                        01-WORK
                                 29 *                                                                       00001100
                                 30 *                                                                       00001200
                                 31 *                                                                       00001300
00000 28EC                       32          LFLR  F0,R4          SAVE RETURN ADDRESS IN F0                 00001400
00001 1CF7 000B      000E 000B   33          L     R4,BYTEDISP    GET WHICH BYTE POINTER                    00001500
00003 01E4                       34          AR    R1,R4          INCREMENT BYTE ADDRESS PTR                00001600
00004 24E1                       35          NR    R4,R1          TEST FOR WHICH BYTE                       00001700
00005 DC28           0010 000A   36          BZ    LOWER          IF ZERO THEN LOWER BYTE                   00001800
                                 37 *                                                                       00001900
                                 38 * THIS PART HANDLES STORING OF THE UPPER BYTE                           00002000
                                 39 *                                                                       00002100
00006 B105 FF00      0001 FF00   40          ZB    1(R1),X'FF00'  ZERO OUT  CURRENTLY EXISTING CHAR         00002200
00008 F520                0008   41          SLL   R5,8           GET INPUT CHAR TO UPPER HALF              00002300
00009 8505           0001        42          AH    R5,1(R1)       MERGE TWO CHARS                           00002400
0000A BD05           0001        43          STH   R5,1(R1)       STORE 2 CHARS                             00002500
0000B 24E8                       44          LFXR  R4,F0          RESTORE RETURN ADDRESS                    00002600
                                 45          AEXIT                AND RETURN                                00002700
                                 46+*********RETURN TO CALLER**********************************************
0000C                            47+         DS    0H                                                       01-AEXIT
0000C C7E4                       48+$RET1    BCR   7,4            RETURN TO CALLER                          01-AEXIT
                                 49+***********************************************************************
                                 51 *                                                                       00002800
                                 52 * THIS PART HANDLES STORING OF THE LOWER BYTE                           00002900
                                 53 *                                                                       00003000
0000D C9FB
0000E                            54          DS    0F                                                       00003100
0000E 00008000                   55 BYTEDISP DC    X'00008000'                                              00003200
00010 B101 00FF      0000 00FF   56 LOWER    ZB    0(R1),X'00FF'  ZERO OUT EXISTING LOWER CHAR              00003300
00012 8501           0000        57          AH    R5,0(R1)       MERGE TWO CHARS                           00003400
00013 BD01           0000        58          STH   R5,0(R1)       STORE TWO CHARS                           00003500
00014 24E8                       59          LFXR  R4,F0          RESTORE RETURN ADDRESS                    00003600
                                 60          AEXIT                AND RETURN                                00003700
                                 61+*********RETURN TO CALLER**********************************************
00015                            62+         DS    0H                                                       01-AEXIT
00015 C7E4                       63+$RET2    BCR   7,4            RETURN TO CALLER                          01-AEXIT
                                 64+***********************************************************************
                                 66          ACLOSE                                                         00003800
00016                            67+         LTORG                                                          02-ERRPA
                                 68+****************ERROR PARAMETER AREA***********************************
                                 69+***  NO ERRORS SENT IN STBYTE                                           02-ERRPA
                                 70+****************END OF ERROR PARAMETER AREA****************************
                                 71+         END                                                            01-ACLOS
¤
                                             CROSS REFERENCE                                                   PAGE    3
SYMBOL    LEN    VALUE   DEFN   REFERENCES                                                     AP101S 3.0 09.39 07/22/05
BYTEDISP     2   00000E    55     33
F0           1 00000000    27     32    44    59
LOWER        2   000010    56     36
R1           1 00000001    20     34    35    40    42    42    43    43    56    57    57    58    58
R4           1 00000004    26     32    33    34    35    44    59
R5           1 00000005    21     41    42    43    57    58
STBYTE       1 00000000    13
$RET1        1   00000C    48
$RET2        1   000015    63
¤
                                  DIAGNOSTIC CROSS REFERENCE AND ASSEMBLER SUMMARY                             PAGE    4
                                                                                               AP101S 3.0 09.39 07/22/05
     NO STATEMENTS FLAGGED IN THIS ASSEMBLY
   OVERRIDING PARAMETERS-  ESD,RLD,SYSPARM=PASS
   OPTIONS FOR THIS ASSEMBLY
    NODECK,LOAD,LIST,XREF,NORENT,TEST,NOMULT,ALGN,ESD ,RLD ,NOSREF,LINECT= 80,MSGLEVEL=   0,SYSPARM= PASS
   NO OVERRIDING DD NAMES
      43 CARDS FROM SYSIN     338 CARDS FROM SYSLIB
      95 LINES OUTPUT           6 CARDS OUTPUT
