¤
                                              EXTERNAL SYMBOL DICTIONARY                                       PAGE    1
SYMBOL   TYPE  ID  ADDR  LENGTH  LD ID                                                         AP101S 3.0 09.39 07/22/05
VM6S3     SD 0001 000000 000010
¤
         VM6S3 -- VECTOR MATRIX MULTIPLY,LENGTH 3,SINGLEPREC                                                   PAGE    2
  LOC  OBJECT CODE   ADR1 ADR2      SOURCE STATEMENT                                           AP101S 3.0 09.39 07/22/05
                                  2 *
                                  3 * WHEN DATA_REMOTE IS IN EFFECT, THE LDM INSTRUCTIONS ARE NEEDED
                                  4 * AROUND THE CALL TO THIS RTL ROUTINE BECAUSE R1/R3 IS USED AS
                                  5 * A BASE REGISTER. (CR12620)
                                  6 *
                                  7 VM6S3    AMAIN INTSIC=YES                                               00000200
                                  8+***********************************************************************
                                  9+*
                                 10+*        PRIMARY ENTRY POINT
                                 11+*
                                 12+***********************************************************************
00000                            13+VM6S3    CSECT                                                          01-AMAIN
                                 15 *                                                                       00000300
                                 16 *     COMPUTES THE VECTOR MATRIX PRODUCT:                               00000400
                                 17 *                                                                       00000500
                                 18 *       V(3)=V1(3) X M(3,3)                                             00000600
                                 19 *                                                                       00000700
                                 20 *       WHERE  V,V1,M ARE SP                                            00000800
                                 21 *                                                                       00000900
                                 22          INPUT R3,            MATRIX(3,3)  SP                          X00001000
                                                   R2             VECTOR(3)    SP                           00001100
0000003                          23+R3       EQU   3                                                        01-INPUT
0000002                          24+R2       EQU   2                                                        01-INPUT
                                 26          OUTPUT R1            VECTOR(3)    SP                           00001200
0000001                          27+R1       EQU   1                                                        01-OUTPU
                                 29          WORK  R5,F0,F2                                                 00001300
0000005                          30+R5       EQU   5                                                        01-WORK
0000000                          31+F0       EQU   0                                                        01-WORK
0000002                          32+F2       EQU   2                                                        01-WORK
                                 34 *                                                                       00001400
                                 35 *   ALGORITHM:                                                          00001500
                                 36 *    DO FOR I=1 TO 3 ;                                                  00001600
                                 37 *     V(I)=V1(1)M(1,I)+V1(2)M(2,I)+V1(3)M(3,I);                         00001700
                                 38 *     END;                                                              00001800
                                 39 *                                                                       00001900
00000 BDE5                0005   40          LFXI  R5,3           R5=3                                      00002000
00001 7806           0002        41 LOOP     LE    F0,2(R2)       GET 1 ST' V1 ELE.                         00002100
00002 7A0A           0004        42          LE    F2,4(R2)       GET 2 ND' V1 ELE.                         00002200
00003 6007           0002        43          ME    F0,2(R3)       MUL BY M(1,I)                             00002300
00004 6213           0008        44          ME    F2,8(R3)       MUL BY M(2,I)                             00002400
00005 50EA                       45          AEDR  F0,F2          TEMP SUM                                  00002500
00006 7A0E           0006        46          LE    F2,6(R2)       GET 3 RD' ELE.                            00002600
00007 621F           000E        47          ME    F2,14(R3)      MUL BY M(3,I)                             00002700
00008 50EA                       48          AEDR  F0,F2          GET V(I) ELE.                             00002800
00009 3805           0002        49          STE   F0,2(R1)       PLACE V ELE.                              00002900
0000A E909           0002        50          LA    R1,2(R1)       BUMP V PTR BY 2                           00003000
0000B EB0B           0002        51          LA    R3,2(R3)       BUMP M PTR TO NEXT COL                    00003100
0000C DD33           0001 000C   52          BCTB  R5,LOOP        I=1 TO 3 COUNTER                          00003200
                                 53          AEXIT                                                          00003300
                                 54+*********RETURN TO CALLER**********************************************
0000D                            55+         DS    0H                                                       01-AEXIT
0000D 9B24           0009        56+         LH    3,9(0)         RESTORE LOCAL DATA BASE                   01-AEXIT
0000E 9914           0005        57+         LH    1,5(0)         RESTORE PROGRAM DATA BASE                 01-AEXIT
0000F C7EC                       58+$RET1    BCRE  7,4            RETURN TO CALLER                          01-AEXIT
                                 59+***********************************************************************
                                 61          ACLOSE                                                         00003400
00010                            62+         LTORG                                                          02-ERRPA
                                 63+****************ERROR PARAMETER AREA***********************************
                                 64+***  NO ERRORS SENT IN VM6S3                                            02-ERRPA
                                 65+****************END OF ERROR PARAMETER AREA****************************
                                 66+         END                                                            01-ACLOS
¤
                                             CROSS REFERENCE                                                   PAGE    3
SYMBOL    LEN    VALUE   DEFN   REFERENCES                                                     AP101S 3.0 09.39 07/22/05
F0           1 00000000    31     41    43    45    48    49
F2           1 00000002    32     42    44    45    46    47    48
LOOP         2   000001    41     52
R1           1 00000001    27     49    49    50    50    50
R2           1 00000002    24     41    41    42    42    46    46
R3           1 00000003    23     43    43    44    44    47    47    51    51    51
R5           1 00000005    30     40    52
VM6S3        1 00000000    13
$RET1        1   00000F    58
¤
                                  DIAGNOSTIC CROSS REFERENCE AND ASSEMBLER SUMMARY                             PAGE    4
                                                                                               AP101S 3.0 09.39 07/22/05
     NO STATEMENTS FLAGGED IN THIS ASSEMBLY
   OVERRIDING PARAMETERS-  ESD,RLD,SYSPARM=PASS
   OPTIONS FOR THIS ASSEMBLY
    NODECK,LOAD,LIST,XREF,NORENT,TEST,NOMULT,ALGN,ESD ,RLD ,NOSREF,LINECT= 80,MSGLEVEL=   0,SYSPARM= PASS
   NO OVERRIDING DD NAMES
      39 CARDS FROM SYSIN     338 CARDS FROM SYSLIB
      90 LINES OUTPUT           4 CARDS OUTPUT
