¤
                                              EXTERNAL SYMBOL DICTIONARY                                       PAGE    1
SYMBOL   TYPE  ID  ADDR  LENGTH  LD ID                                                         AP101S 3.0 09.39 07/22/05
VR1SNP    SD 0001 000000 000014
¤
         VR1SNP--REMOVE COLUMN VECTOR MOVE, SP                                                                 PAGE    2
  LOC  OBJECT CODE   ADR1 ADR2      SOURCE STATEMENT                                           AP101S 3.0 09.39 07/22/05
                                  2 *
                                  3 * WHEN DATA_REMOTE IS IN EFFECT, THE LDM INSTRUCTIONS ARE NOT NEEDED
                                  4 * AROUND THE CALL TO THIS RTL ROUTINE BECAUSE R1/R3 IS NOT USED AS
                                  5 * A BASE REGISTER. (CR12620)
                                  6 *
                                  7 VR1SNP   AMAIN                                                          00000200
                                  8+***********************************************************************
                                  9+*
                                 10+*        PRIMARY ENTRY POINT
                                 11+*
                                 12+***********************************************************************
00000                            13+VR1SNP   CSECT                                                          01-AMAIN
00000                            14+STACK    DSECT                                                          01-AMAIN
                                 15+*        DS    18H            STANDARD STACK AREA DEFINITION
00000                            16+         DS    F              PSW (LEFT HALF)                           01-AMAIN
00002                            17+         DS    2F             R0,R1                                     01-AMAIN
00006                            18+ARG2     DS    F              R2                                        01-AMAIN
00008                            19+         DS    F              R3                                        01-AMAIN
0000A                            20+ARG4     DS    F              R4                                        01-AMAIN
0000C                            21+ARG5     DS    F              R5                                        01-AMAIN
0000E                            22+ARG6     DS    F              R6                                        01-AMAIN
00010                            23+ARG7     DS    F              R7                                        01-AMAIN
                                 24+*        END OF STANDARD STACK AREA
                                 25+*        NO ADDITIONAL STACK STORAGE REQUIRED FOR THIS ROUTINE
00012                            26+STACKEND DS    0F             END OF COMBINED STACK AREA                01-AMAIN
00000                            27+VR1SNP   CSECT                                                          01-AMAIN
0000000                          28+         USING STACK,0        ADDRESS STACK AREA                        01-AMAIN
00000 B624 0000      0009 0000   29+         NIST  9(0),0         CLEAR ON ERROR INFO (LCL DATA PTR)        01-AMAIN
                                 31 *                                                                       00000300
                                 32 * MOVES V1 TO V2 THERE V1 AND V2 ARE SINGLE PRECISION VECTORS,          00000400
                                 33 *   AT LEAST ONE OF WHICH IS REMOTE AND AT LEAST ONE OF WHICH IS        00000500
                                 34 *   A COLUMN VECTOR WITHIN A MATRIX, BOTH OF WHICH ARE LENGTH N         00000600
                                 35 *                                                                       00000700
                                 36          INPUT R4,            ZCON(VECTOR(N)) SP                       X00000800
                                                   R5,            INTEGER(N) SP                            X00000900
                                                   R6,            INTEGER(INDEL) SP                        X00001000
                                                   R7             INTEGER(OUTDEL) SP                        00001100
0000004                          37+R4       EQU   4                                                        01-INPUT
0000005                          38+R5       EQU   5                                                        01-INPUT
0000006                          39+R6       EQU   6                                                        01-INPUT
0000007                          40+R7       EQU   7                                                        01-INPUT
                                 42          OUTPUT R2            ZCON(VECTOR(N)) SP                        00001200
0000002                          43+R2       EQU   2                                                        01-OUTPU
                                 45          WORK F0                                                        00001300
0000000                          46+F0       EQU   0                                                        01-WORK
                                 48 *                                                                       00001400
                                 49 * ALGORITHM:                                                            00001500
                                 50 *   SEE ALGORITHM DESCRIPTION IN VR1DNP                                 00001600
                                 51 *                                                                       00001700
00002 BCE3                0003   52          LFXI  R4,1           SET INDEX REG TO 1                        00001800
00003 1AE4                       53          LR    R2,R4                                                    00001900
00004 F706                0001   54          SRL   R7,1           CONVERT HW TO INDEX                       00002000
00005 1FE7                       55          LR    R7,R7          SET CONDITION CODE                        00002100
00006 DB04           0008 0001   56          BNZ   VR1            IF OUTDEL>0 THEN BRANCH                   00002200
00007 1FE2                       57          LR    R7,R2          ELEMENTS ARE IN A ROW                     00002300
00008 F606                0001   58 VR1      SRL   R6,1           CONVERT HW TO INDEX                       00002400
00009 1EE6                       59          LR    R6,R6          SET CONDITION CODE                        00002500
0000A DB04           000C 0001   60          BNZ   VR2            BRANCH IF INDEL>0                         00002600
0000B 1EE4                       61          LR    R6,R4          ELEMENTS ARE IN A ROW                     00002700
0000C 78F4 980A      000A        62 VR2      LE@#  F0,ARG4(R4)    LOAD NEXT ELEMENT                         00002800
0000E 38F4 5806      0006        63          STE@# F0,ARG2(R2)    STORE NEXT ELEMENT                        00002900
00010 02E7                       64          AR    R2,R7          ADVANCE TO NEXT STORAGE ELEMENT           00003000
00011 04E6                       65          AR    R4,R6          ADVANCE TO NEXT ELEMENT TO BE MOVED       00003100
00012 DD1F           000C 0007   66          BCTB  R5,VR2                                                   00003200
                                 67          AEXIT                                                          00003300
                                 68+*********RETURN TO CALLER**********************************************
00013                            69+         DS    0H                                                       01-AEXIT
00013 97E8                       70+$RET1    SRET  7,0            RETURN TO CALLER                          01-AEXIT
                                 71+***********************************************************************
                                 73          ACLOSE                                                         00003400
00014                            74+         LTORG                                                          02-ERRPA
                                 75+****************ERROR PARAMETER AREA***********************************
                                 76+***  NO ERRORS SENT IN VR1SNP                                           02-ERRPA
                                 77+****************END OF ERROR PARAMETER AREA****************************
                                 78+         END                                                            01-ACLOS
¤
                                             CROSS REFERENCE                                                   PAGE    3
SYMBOL    LEN    VALUE   DEFN   REFERENCES                                                     AP101S 3.0 09.39 07/22/05
ARG2         2   000006    18     63
ARG4         2   00000A    20     62
ARG5         2   00000C    21
ARG6         2   00000E    22
ARG7         2   000010    23
F0           1 00000000    46     62    63
R2           1 00000002    43     53    57    63    64
R4           1 00000004    37     52    53    61    62    65
R5           1 00000005    38     66
R6           1 00000006    39     58    59    59    61    65
R7           1 00000007    40     54    55    55    57    64
STACK        1 00000000    14     28
STACKEND     2   000012    26
VR1          1   000008    58     56
VR1SNP       1 00000000    13     27
VR2          2   00000C    62     60    66
$RET1        1   000013    70
¤
                                  DIAGNOSTIC CROSS REFERENCE AND ASSEMBLER SUMMARY                             PAGE    4
                                                                                               AP101S 3.0 09.39 07/22/05
     NO STATEMENTS FLAGGED IN THIS ASSEMBLY
   OVERRIDING PARAMETERS-  ESD,RLD,SYSPARM=PASS
   OPTIONS FOR THIS ASSEMBLY
    NODECK,LOAD,LIST,XREF,NORENT,TEST,NOMULT,ALGN,ESD ,RLD ,NOSREF,LINECT= 80,MSGLEVEL=   0,SYSPARM= PASS
   NO OVERRIDING DD NAMES
      39 CARDS FROM SYSIN     344 CARDS FROM SYSLIB
     112 LINES OUTPUT           7 CARDS OUTPUT
