¤
                                              EXTERNAL SYMBOL DICTIONARY                                       PAGE    1
SYMBOL   TYPE  ID  ADDR  LENGTH  LD ID                                                         AP101S 3.0 09.40 07/22/05
VV10D3    SD 0001 000000 000046
VV10DN    LD      000006        0001
VV9D3     LD      00002B        0001
VV9DN     LD      000031        0001
#QDSQRT   ER 0002
#QVV0DN   ER 0003
#LVV10D3  SD 0004 000046 000002
¤
         VV10D3--UNIT VECTOR, LENGTH 3 OR N, DP                                                                PAGE    2
  LOC  OBJECT CODE   ADR1 ADR2      SOURCE STATEMENT                                           AP101S 3.0 09.40 07/22/05
                                  2 *
                                  3 * WHEN DATA_REMOTE IS IN EFFECT, THE LDM INSTRUCTIONS ARE NEEDED
                                  4 * AROUND THE CALL TO THIS RTL ROUTINE BECAUSE R1/R3 IS USED AS
                                  5 * A BASE REGISTER. (CR12620)
                                  6 *
                                  7          MACRO                                                          00000200
                                  8          WORKAREA                                                       00000300
                                  9 TARG5    DS    F                                                        00000400
                                 10          MEND                                                           00000500
                                 11 VV10D3   AMAIN ACALL=YES,QDED=YES                                       00000600
                                 12+***********************************************************************
                                 13+*
                                 14+*        PRIMARY ENTRY POINT
                                 15+*
                                 16+***********************************************************************
00000                            17+VV10D3   CSECT                                                          01-AMAIN
00000                            18+STACK    DSECT                                                          01-AMAIN
                                 19+*        DS    18H            STANDARD STACK AREA DEFINITION
00000                            20+         DS    F              PSW (LEFT HALF)                           01-AMAIN
00002                            21+         DS    2F             R0,R1                                     01-AMAIN
00006                            22+ARG2     DS    F              R2                                        01-AMAIN
00008                            23+         DS    F              R3                                        01-AMAIN
0000A                            24+ARG4     DS    F              R4                                        01-AMAIN
0000C                            25+ARG5     DS    F              R5                                        01-AMAIN
0000E                            26+ARG6     DS    F              R6                                        01-AMAIN
00010                            27+ARG7     DS    F              R7                                        01-AMAIN
                                 28+*        END OF STANDARD STACK AREA
00012                            29+TARG5    DS    F                                                        02-00009
00014                            30+QARGA    DS    D                                                        01-AMAIN
00018                            31+QARGB    DS    D                                                        01-AMAIN
0001C                            32+STACKEND DS    0F             END OF COMBINED STACK AREA                01-AMAIN
00000                            33+VV10D3   CSECT                                                          01-AMAIN
0000000                          34+         USING STACK,0        ADDRESS STACK AREA                        01-AMAIN
00000 E0FB 001C      001C        35+         IAL   0,STACKEND-STACK SET STACK SIZE                          01-AMAIN
00002 B624 0000      0009 0000   36+         NIST  9(0),0         CLEAR ON ERROR INFO (LCL DATA PTR)        01-AMAIN
                                 38 *                                                                       00000700
                                 39 * FINDS THE UNIT VECTOR OF V1 WHERE V1 IS A DOUBLE PRECISION            00000800
                                 40 *   3 VECTOR.                                                           00000900
                                 41 *                                                                       00001000
                                 42          INPUT R4             VECTOR(3) DP                              00001100
0000004                          43+R4       EQU   4                                                        01-INPUT
                                 45          OUTPUT R2            VECTOR(3) DP                              00001200
0000002                          46+R2       EQU   2                                                        01-OUTPU
                                 48          WORK  R1,R5,R6,F0,F2,F3,F4                                     00001300
0000001                          49+R1       EQU   1                                                        01-WORK
0000005                          50+R5       EQU   5                                                        01-WORK
0000006                          51+R6       EQU   6                                                        01-WORK
0000000                          52+F0       EQU   0                                                        01-WORK
0000002                          53+F2       EQU   2                                                        01-WORK
0000003                          54+F3       EQU   3                                                        01-WORK
0000004                          55+F4       EQU   4                                                        01-WORK
                                 57 *                                                                       00001400
                                 58 * ALGORITHM:                                                            00001500
                                 59 *   F0 = ABVAL(V1);                                                     00001600
                                 60 *   IF F0 = 0 THEN                                                      00001700
                                 61 *     DO;                                                               00001800
                                 62 *       SEND ERROR;                                                     00001900
                                 63 *       RETURN 0_VECTOR;                                                00002000
                                 64 *     END;                                                              00002100
                                 65 *   ELSE                                                                00002200
                                 66 *     DO;                                                               00002300
                                 67 *       F2 = 1 / F0;                                                    00002400
                                 68 *       DO FOR I = 3 TO 1 BY -1;                                        00002500
                                 69 *         RESULTS$(I) = V1$(I) F2;                                      00002600
                                 70 *       END;                                                            00002700
                                 71 *     END;                                                              00002800
                                 72 *                                                                       00002900
00004 BDE5                0005   73          LFXI  R5,3           SET COUNT TO 3                            00003000
00005 DF10           000A 0004   74          B     UNIT                                                     00003100
                                 75 VV10DN   AENTRY                                                         00003200
                                 76+***********************************************************************
                                 77+*
                                 78+*        SECONDARY ENTRY POINT
                                 79+*
                                 80+***********************************************************************
i00006                            81+VV10DN   DS    0H                                                       01-AENTR
         VV10D3--UNIT VECTOR, LENGTH 3 OR N, DP                                                                PAGE    3
  LOC  OBJECT CODE   ADR1 ADR2      SOURCE STATEMENT                                           AP101S 3.0 09.40 07/22/05
                                 82+         ENTRY VV10DN                                                   01-AENTR
00006 E0FB 001C      001C        83+         IAL   0,STACKEND-STACK SET STACK SIZE                          01-AENTR
00008 B624 0000      0009 0000   84+         NIST  9(0),0         CLEAR ERROR VECTOR POINTER                01-AENTR
                                 86 *                                                                       00003300
                                 87 * FINDS THE UNIT VECTOR OF V1 WHERE V1 IS A DOUBLE PRECISION            00003400
                                 88 *   VECTOR OF LENGTH N WHERE N IS NOT EQUAL TO 3.                       00003500
                                 89 *                                                                       00003600
                                 90          INPUT R4,            VECTOR(N) DP                             X00003700
                                                   R5             INTEGER(N) SP                             00003800
                                 92          OUTPUT R2            VECTOR(N) DP                              00003900
                                 94          WORK  R1,R6,F0,F2,F3,F4                                        00004000
                                 96 *                                                                       00004100
                                 97 * ALGORITHM:                                                            00004200
                                 98 *   F0 = ABVAL(V1);                                                     00004300
                                 99 *   IF F0 = 0 THEN                                                      00004400
                                100 *     DO;                                                               00004500
                                101 *       SEND ERROR;                                                     00004600
                                102 *       RETURN 0_VECTOR;                                                00004700
                                103 *     END;                                                              00004800
                                104 *   ELSE                                                                00004900
                                105 *     DO;                                                               00005000
                                106 *       F2 = 1 / F0;                                                    00005100
                                107 *       DO FOR I = N TO 1 BY -1;                                        00005200
                                108 *         RESULTS$(I) = V1$(I) F2;                                      00005300
                                109 *       END;                                                            00005400
                                110 *     END;                                                              00005500
                                111 *                                                                       00005600
0000A 19E2                      112 UNIT     LR    R1,R2          PUT BASE OF OUTPUT IN R1 FOR              00005700
                                113 *                             ADDRESSING PURPOSES                       00005800
0000B 1AE4                      114          LR    R2,R4               "        "                           00005900
0000C 3524           0012       115          ST    R5,TARG5       STORE COUNT IN STACK                      00006000
0000D E6F7 0028      0037 0028  116          BAL   R6,MAG         FIND THE MAGNITUDE OF V1                  00006100
0000F 1D24           0012       117          L     R5,TARG5       RELOAD NUMBER OF ELEMENTS                 00006200
00010 5BE3                      118          SER   F3,F3          CLEAR RIGHT HALF OF F2                    00006300
00011 78E0                      119          LER   F0,F0          SET CONDITION CODE                        00006400
00012 DCB4           0040 002D  120          BZ    AOUT           IF ZERO THEN SEND ERROR AND PERFORM FIX   00006500
00013 9A28           000A       121          LH    R2,ARG4        RELOAD INPUT BASE                         00006600
00014 8AE1                0001  122          LFLI  F2,1           SET F2 TO 1                               00006700
                                123         QDEDR  F2,F0          TAKE 1 / MAGNITUDE                        00006800
00015 3AF8 0014      0014       124+         STED  F2,QARGA                                                 01-QDEDR
00017 38F8 0018      0018       125+         STED  F0,QARGB                                                 01-QDEDR
00019 6AE0                      126+         DER   F2,F0                                                    01-QDEDR
0001A 78E2                      127+         LER   F0,F2                                                    01-QDEDR
0001B 79E3                      128+         LER   F0+1,F2+1                                                01-QDEDR
0001C 30F8 0018      0018       129+         MED   F0,QARGB                                                 01-QDEDR
0001E 58F8 0014      0014       130+         SED   F0,QARGA                                                 01-QDEDR
00020 6830           0018       131+         DE    F0,QARGB                                                 01-QDEDR
00021 5AE8                      132+         SEDR  F2,F0                                                    01-QDEDR
00022 78F8 0018      0018       133+         LED   F0,QARGB                                                 01-QDEDR
00024 78FE A000      0000       134 ULOOP    LED   F0,0(R5,R2)    GET ELEMENT FROM INPUT                    00006900
00026 30EA                      135          MEDR  F0,F2          MULTIPLY BY 1 / MAGNITUDE                 00007000
00027 38FD A000      0000       136          STED  F0,0(R5,R1)    STORE IN RESULT VECTOR                    00007100
00029 DD1B           0024 0006  137          BCTB  R5,ULOOP                                                 00007200
0002A DF68           0045 001A  138          B     OUT                                                      00007300
                                139 VV9D3    AENTRY                                                         00007400
                                140+***********************************************************************
                                141+*
                                142+*        SECONDARY ENTRY POINT
                                143+*
                                144+***********************************************************************
0002B                           145+VV9D3    DS    0H                                                       01-AENTR
                                146+         ENTRY VV9D3                                                    01-AENTR
0002B E0FB 001C      001C       147+         IAL   0,STACKEND-STACK SET STACK SIZE                          01-AENTR
0002D B624 0000      0009 0000  148+         NIST  9(0),0         CLEAR ERROR VECTOR POINTER                01-AENTR
                                150 *                                                                       00007500
                                151 * RETURNS THE MAGNITUDE OF V1 WHERE V1 IS A DOUBLE PRECISION            00007600
                                152 *   3 VECTOR.                                                           00007700
                                153 *                                                                       00007800
                                154          INPUT R2             VECTOR(3) DP                              00007900
                                156          OUTPUT F0            SCALAR DP                                 00008000
                                158          WORK  R5,R6,F2,F4                                              00008100
i                                160 *                                                                       00008200
         VV10D3--UNIT VECTOR, LENGTH 3 OR N, DP                                                                PAGE    4
  LOC  OBJECT CODE   ADR1 ADR2      SOURCE STATEMENT                                           AP101S 3.0 09.40 07/22/05
                                161 * ALGORITHM:                                                            00008300
                                162 *   F0 = 0;                                                             00008400
                                163 *   DO FOR I = 3 TO 1 BY -1;                                            00008500
                                164 *     F0 = F0 + V1$(I) ** 2;                                            00008600
                                165 *   END;                                                                00008700
                                166 *   F0 = SQRT(F0);                                                      00008800
                                167 *                                                                       00008900
0002F BDE5                0005  168          LFXI  R5,3           SET COUNTER TO 3                          00009000
00030 DF10           0035 0004  169          B RMAG                                                         00009100
                                170 VV9DN    AENTRY                                                         00009200
                                171+***********************************************************************
                                172+*
                                173+*        SECONDARY ENTRY POINT
                                174+*
                                175+***********************************************************************
00031                           176+VV9DN    DS    0H                                                       01-AENTR
                                177+         ENTRY VV9DN                                                    01-AENTR
00031 E0FB 001C      001C       178+         IAL   0,STACKEND-STACK SET STACK SIZE                          01-AENTR
00033 B624 0000      0009 0000  179+         NIST  9(0),0         CLEAR ERROR VECTOR POINTER                01-AENTR
                                181 *                                                                       00009300
                                182 * RETURNS THE MAGNITUDE OF V1 WHERE V1 IS A DOUBLE PRECISION            00009400
                                183 *   VECTOR OF LENGTH N WHERE N IS NOT EQUAL TO 3.                       00009500
                                184 *                                                                       00009600
                                185          INPUT R2,            VECTOR(N) DP                             X00009700
                                                   R5             INTEGER(N) SP                             00009800
                                187          OUTPUT F0            SCALAR DP                                 00009900
                                189          WORK  R6,F2,F4                                                 00010000
                                191 *                                                                       00010100
                                192 * ALGORITHM:                                                            00010200
                                193 *   F0 = 0;                                                             00010300
                                194 *   DO FOR I = N TO 1 BY -1;                                            00010400
                                195 *     F0 = F0 + V1$(I) ** 2;                                            00010500
                                196 *   END;                                                                00010600
                                197 *   F0 = SQRT(F0);                                                      00010700
                                198 *                                                                       00010800
00035 EEF7 000E      0045 000E  199 RMAG     LA    R6,OUT         IF ABVAL THEN LOAD INTO R6                00010900
                                200 *                             ADDRESS OF RETURN SEQUENCE.               00011000
00037 58E8                      201 MAG      SEDR  F0,F0          CLEAR F0                                  00011100
00038 7AFE A000      0000       202 LOOP     LED   F2,0(R5,R2)    GET ELEMENT FROM INPUT                    00011200
0003A 32EA                      203          MEDR  F2,F2          SQUARE THE ELEMENT                        00011300
0003B 50EA                      204          AEDR  F0,F2          ADD TO ACCUMULATOR                        00011400
0003C DD17           0038 0005  205          BCTB  R5,LOOP                                                  00011500
                                206          ACALL DSQRT          TAKE SQRT OF F0                           00011600
                                207+         EXTRN #QDSQRT                                                  01-ACALL
0003D D0FF                      208+         DC  X'D0FF'          CALL PROCEDURE ROUTINE                    01-ACALL
0003E 3800                      209+         DC  Y(#QDSQRT+X'3800')                                        X01-ACALL
                                   +                              INDIRECTLY THRU QCON
0003F C7E6                      210          BR    R6             EITHER RETURN TO CALLER OR TO             00011700
                                211 *                             UNIT VECTOR ROUTINE                       00011800
                                212 AOUT     AERROR 28            VECTOR/MATRIX DIVIDE BY 0                 00011900
                                213+*********ISSUE SEND ERROR SVC******************************************
00040 C9FB 0046      0046       214+AOUT     SVC   AERROR1        ISSUE SEND ERROR SVC                      01-AERRO
                                215+*********SEND ERROR SVC RETURNS CONTROL FOR STANDARD FIXUP*************
00042 58E8                      216          SEDR  F0,F0          CLEAR F0                                  00012000
                                217          ABAL  VV0DN          MAKE THE RESULT THE 0 VECTOR              00012100
                                218+         EXTRN #QVV0DN                                                  01-ABAL
00043 E4F7                      219+         DC  X'E4F7'          CALL INTRINSIC INDIRECTLY                 01-ABAL
00044 3800                      220+         DC  Y(#QVV0DN+X'3800')                                        X01-ABAL
                                   +                              THROUGH QCON
                                221 OUT      AEXIT                                                          00012200
                                222+*********RETURN TO CALLER**********************************************
00045                           223+OUT      DS    0H                                                       01-AEXIT
00045 97E8                      224+$RET1    SRET  7,0            RETURN TO CALLER                          01-AEXIT
                                225+***********************************************************************
                                227          ACLOSE                                                         00012300
00046                           228+         LTORG                                                          02-ERRPA
                                229+****************ERROR PARAMETER AREA***********************************
00046                           230+#LVV10D3 CSECT                                                          02-ERRPA
                                231+***  VV10D3 SENDS THE FOLLOWING ERROR                                   02-ERRPA
                                233+***  ERROR NUMBER 28 IN GROUP 4                                         02-ERRPA
00046 0014                      235+AERROR1  DC    H'20'          SVC CODE FOR SEND ERROR                   02-ERRPA
i00047 041C                      236+         DC    Y(4*256+28)                      8 BIT GROUP AND NUMBER  02-ERRPA
         VV10D3--UNIT VECTOR, LENGTH 3 OR N, DP                                                                PAGE    5
  LOC  OBJECT CODE   ADR1 ADR2      SOURCE STATEMENT                                           AP101S 3.0 09.40 07/22/05
                                237+****************END OF ERROR PARAMETER AREA****************************
                                238+         END                                                            01-ACLOS
¤
                                                 RELOCATION DICTIONARY                                         PAGE    6
 POS.ID   REL.ID   FLAGS   ADDRESS                                                             AP101S 3.0 09.40 07/22/05
  0001     0002     00     00003E
  0001     0003     00     000044
  0001     0004     00     000041
¤
                                             CROSS REFERENCE                                                   PAGE    7
SYMBOL    LEN    VALUE   DEFN   REFERENCES                                                     AP101S 3.0 09.40 07/22/05
AERROR1      1   000046   235    214
AOUT         2   000040   214    120
ARG2         2   000006    22
ARG4         2   00000A    24    121
ARG5         2   00000C    25
ARG6         2   00000E    26
ARG7         2   000010    27
F0           1 00000000    52    119   119   125   126   127   128   129   130   131   132   133   134   135   136   201
                                 201   204   216   216
F2           1 00000002    53    122   124   126   127   128   132   135   202   203   203   204
F3           1 00000003    54    118   118
F4           1 00000004    55
LOOP         2   000038   202    205
MAG          1   000037   201    116
OUT          1   000045   223    138   199
QARGA        4   000014    30    124   130
QARGB        4   000018    31    125   129   131   133
R1           1 00000001    49    112   136
R2           1 00000002    46    112   114   121   134   202
R4           1 00000004    43    114
R5           1 00000005    50     73   115   117   134   134   136   136   137   168   202   202   205
R6           1 00000006    51    116   199   210
RMAG         2   000035   199    169
STACK        1 00000000    18     34    35    83   147   178
STACKEND     2   00001C    32     35    83   147   178
TARG5        2   000012    29    115   117
ULOOP        2   000024   134    137
UNIT         1   00000A   112     74
VV10D3       1 00000000    17     33
VV10DN       1   000006    81     82
VV9D3        1   00002B   145    146
VV9DN        1   000031   176    177
$RET1        1   000045   224
#LVV10D3     1 00000046   230
#QDSQRT      1 00000000   207    209
#QVV0DN      1 00000000   218    220
¤
                                  DIAGNOSTIC CROSS REFERENCE AND ASSEMBLER SUMMARY                             PAGE    8
                                                                                               AP101S 3.0 09.40 07/22/05
     NO STATEMENTS FLAGGED IN THIS ASSEMBLY
   OVERRIDING PARAMETERS-  ESD,RLD,SYSPARM=PASS
   OPTIONS FOR THIS ASSEMBLY
    NODECK,LOAD,LIST,XREF,NORENT,TEST,NOMULT,ALGN,ESD ,RLD ,NOSREF,LINECT= 80,MSGLEVEL=   0,SYSPARM= PASS
   NO OVERRIDING DD NAMES
     128 CARDS FROM SYSIN     556 CARDS FROM SYSLIB
     296 LINES OUTPUT          16 CARDS OUTPUT
