¤
                                              EXTERNAL SYMBOL DICTIONARY                                       PAGE    1
SYMBOL   TYPE  ID  ADDR  LENGTH  LD ID                                                         AP101S 3.0 09.40 07/22/05
VV1S3P    SD 0001 000000 00000E
VV1SNP    LD      000001        0001
¤
         VV1S3P--COLUMN VECTOR MOVE, LENGTH 3 OR N, SP                                                         PAGE    2
  LOC  OBJECT CODE   ADR1 ADR2      SOURCE STATEMENT                                           AP101S 3.0 09.40 07/22/05
                                  2 *
                                  3 * WHEN DATA_REMOTE IS IN EFFECT, THE LDM INSTRUCTIONS ARE NEEDED
                                  4 * AROUND THE CALL TO THIS RTL ROUTINE BECAUSE R1/R3 IS USED AS
                                  5 * A BASE REGISTER. (CR12620)
                                  6 *
                                  7 VV1S3P   AMAIN INTSIC=YES                                               00000200
                                  8+***********************************************************************
                                  9+*
                                 10+*        PRIMARY ENTRY POINT
                                 11+*
                                 12+***********************************************************************
00000                            13+VV1S3P   CSECT                                                          01-AMAIN
                                 15 *                                                                       00000300
                                 16 * MOVE V1 TO V2 WHERE V1 AND V2 ARE SINGLE PRECISION 3 VECTORS,         00000400
                                 17 *   AT LEAST ONE OF WHICH IS A COLUMN VECTOR WITHIN A MATRIX.           00000500
                                 18 *                                                                       00000600
                                 19          INPUT R2,            VECTOR(3) SP                             X00000700
                                                   R6,            INTEGER(INDEL) SP                        X00000800
                                                   R7             INTEGER(OUTDEL) SP                        00000900
0000002                          20+R2       EQU   2                                                        01-INPUT
0000006                          21+R6       EQU   6                                                        01-INPUT
0000007                          22+R7       EQU   7                                                        01-INPUT
                                 24          OUTPUT R1            VECTOR(3) SP                              00001000
0000001                          25+R1       EQU   1                                                        01-OUTPU
                                 27          WORK  R5,F0                                                    00001100
0000005                          28+R5       EQU   5                                                        01-WORK
0000000                          29+F0       EQU   0                                                        01-WORK
                                 31 *                                                                       00001200
                                 32 * ALGORITHM:                                                            00001300
                                 33 *   SEE ALGORITHM DESCRIPTION IN VV1D3P                                 00001400
                                 34 *                                                                       00001500
00000 BDE5                0005   35          LFXI  R5,3                                                     00001600
                                 36 VV1SNP   AENTRY                                                         00001700
                                 37+***********************************************************************
                                 38+*
                                 39+*        SECONDARY ENTRY POINT
                                 40+*
                                 41+***********************************************************************
00001                            42+VV1SNP   DS    0H                                                       01-AENTR
                                 43+         ENTRY VV1SNP                                                   01-AENTR
                                 45 *                                                                       00001800
                                 46 * MOVE V1 TO V2 WHERE V1 AND V2 ARE SINGLE PRECISION VECTORS OF LENGTH  00001900
                                 47 *   N WHERE N IS NOT EQUAL TO 3 AND WHERE AT LEAST ONE OF V1 AND V2 IS  00002000
                                 48 *   A COLUMN VECTOR WITHIN A MATRIX.                                    00002100
                                 49 *                                                                       00002200
                                 50          INPUT R2,            VECTOR(N) SP                             X00002300
                                                   R5,            INTEGER(N) SP                            X00002400
                                                   R6,            INTEGER(INDEL) SP                        X00002500
                                                   R7             INTEGER(OUTDEL) SP                        00002600
                                 52          OUTPUT R1            VECTOR(N) SP                              00002700
                                 54          WORK  F0                                                       00002800
                                 56 *                                                                       00002900
                                 57 * ALGORITHM:                                                            00003000
                                 58 *   SEE ALGORITHM DESCRIPTION IN VV1D3P                                 00003100
                                 59 *                                                                       00003200
00001 1FE7                       60          LR    R7,R7          SET CONDITION CODE                        00003300
00002 DB04           0004 0001   61          BNZ   VV1S3P1        IF OUTDEL > 0 THEN CHECK INDEL            00003400
00003 BFE4                0004   62          LFXI  R7,2           ELSE SET R7 TO POINT TO CONSECUTIVE       00003500
                                 63 *                             ELEMENTS                                  00003600
00004 1EE6                       64 VV1S3P1  LR    R6,R6          SET CONDITION CODE                        00003700
00005 DB04           0007 0001   65          BNZ   VV1S3P2        IF INDEL > 0 THEN PERFORM LOOP            00003800
00006 BEE4                0004   66          LFXI  R6,2           ELSE SET R6 TO POINT TO CONSECUTIVE       00003900
                                 67 *                             ELEMENTS                                  00004000
00007 7806           0002        68 VV1S3P2  LE    F0,2(R2)                                                 00004100
00008 3805           0002        69          STE   F0,2(R1)                                                 00004200
00009 01E7                       70          AR    R1,R7          BUMP OUTPUT PTR TO NEXT ELEMENT           00004300
0000A 02E6                       71          AR    R2,R6          BUMP INPUT PTR TO NEXT ELEMENT            00004400
0000B DD17           0007 0005   72          BCTB  R5,VV1S3P2                                               00004500
                                 73          AEXIT                                                          00004600
                                 74+*********RETURN TO CALLER**********************************************
0000C                            75+         DS    0H                                                       01-AEXIT
i0000C 9914           0005        76+         LH    1,5(0)         RESTORE PROGRAM DATA BASE                 01-AEXIT
         VV1S3P--COLUMN VECTOR MOVE, LENGTH 3 OR N, SP                                                         PAGE    3
  LOC  OBJECT CODE   ADR1 ADR2      SOURCE STATEMENT                                           AP101S 3.0 09.40 07/22/05
0000D C7EC                       77+$RET1    BCRE  7,4            RETURN TO CALLER                          01-AEXIT
                                 78+***********************************************************************
                                 80          ACLOSE                                                         00004700
0000E                            81+         LTORG                                                          02-ERRPA
                                 82+****************ERROR PARAMETER AREA***********************************
                                 83+***  NO ERRORS SENT IN VV1S3P                                           02-ERRPA
                                 84+****************END OF ERROR PARAMETER AREA****************************
                                 85+         END                                                            01-ACLOS
¤
                                             CROSS REFERENCE                                                   PAGE    4
SYMBOL    LEN    VALUE   DEFN   REFERENCES                                                     AP101S 3.0 09.40 07/22/05
F0           1 00000000    29     68    69
R1           1 00000001    25     69    69    70
R2           1 00000002    20     68    68    71
R5           1 00000005    28     35    72
R6           1 00000006    21     64    64    66    71
R7           1 00000007    22     60    60    62    70
VV1S3P       1 00000000    13
VV1S3P1      1   000004    64     61
VV1S3P2      2   000007    68     65    72
VV1SNP       1   000001    42     43
$RET1        1   00000D    77
¤
                                  DIAGNOSTIC CROSS REFERENCE AND ASSEMBLER SUMMARY                             PAGE    5
                                                                                               AP101S 3.0 09.40 07/22/05
     NO STATEMENTS FLAGGED IN THIS ASSEMBLY
   OVERRIDING PARAMETERS-  ESD,RLD,SYSPARM=PASS
   OPTIONS FOR THIS ASSEMBLY
    NODECK,LOAD,LIST,XREF,NORENT,TEST,NOMULT,ALGN,ESD ,RLD ,NOSREF,LINECT= 80,MSGLEVEL=   0,SYSPARM= PASS
   NO OVERRIDING DD NAMES
      52 CARDS FROM SYSIN     404 CARDS FROM SYSLIB
     114 LINES OUTPUT           5 CARDS OUTPUT
