¤
                                              EXTERNAL SYMBOL DICTIONARY                                       PAGE    1
SYMBOL   TYPE  ID  ADDR  LENGTH  LD ID                                                         AP101S 3.0 09.40 07/22/05
VV1T3P    SD 0001 000000 00000E
VV1TNP    LD      000001        0001
¤
         VV1T3P--COLUMN VECTOR MOVE, LENGTH 3 OR N, DP TO SP                                                   PAGE    2
  LOC  OBJECT CODE   ADR1 ADR2      SOURCE STATEMENT                                           AP101S 3.0 09.40 07/22/05
                                  2 *
                                  3 * WHEN DATA_REMOTE IS IN EFFECT, THE LDM INSTRUCTIONS ARE NEEDED
                                  4 * AROUND THE CALL TO THIS RTL ROUTINE BECAUSE R1/R3 IS USED AS
                                  5 * A BASE REGISTER. (CR12620)
                                  6 *
                                  7 VV1T3P   AMAIN INTSIC=YES                                               00000200
                                  8+***********************************************************************
                                  9+*
                                 10+*        PRIMARY ENTRY POINT
                                 11+*
                                 12+***********************************************************************
00000                            13+VV1T3P   CSECT                                                          01-AMAIN
                                 15 *                                                                       00000300
                                 16 * MOVE V1 TO V2 WHERE V1 IS A DOUBLE PRECISION 3 VECTOR AND V2 IS A     00000400
                                 17 *   SINGLE PRECISION 3 VECTOR, AT LEAST ONE OF WHICH IS A COLUMN VECTOR 00000500
                                 18 *   WITHIN A MATRIX.                                                    00000600
                                 19 *                                                                       00000700
                                 20          INPUT R2,            VECTOR(3) DP                             X00000800
                                                   R6,            INTEGER(INDEL) SP                        X00000900
                                                   R7             INTEGER(OUTDEL) SP                        00001000
0000002                          21+R2       EQU   2                                                        01-INPUT
0000006                          22+R6       EQU   6                                                        01-INPUT
0000007                          23+R7       EQU   7                                                        01-INPUT
                                 25          OUTPUT R1            VECTOR(3) SP                              00001100
0000001                          26+R1       EQU   1                                                        01-OUTPU
                                 28          WORK  R5,F0                                                    00001200
0000005                          29+R5       EQU   5                                                        01-WORK
0000000                          30+F0       EQU   0                                                        01-WORK
                                 32 *                                                                       00001300
                                 33 * ALGORITHM:                                                            00001400
                                 34 *   SEE ALGORITHM DESCRIPTION IN VV1D3P                                 00001500
                                 35 *                                                                       00001600
00000 BDE5                0005   36          LFXI  R5,3                                                     00001700
                                 37 VV1TNP   AENTRY                                                         00001800
                                 38+***********************************************************************
                                 39+*
                                 40+*        SECONDARY ENTRY POINT
                                 41+*
                                 42+***********************************************************************
00001                            43+VV1TNP   DS    0H                                                       01-AENTR
                                 44+         ENTRY VV1TNP                                                   01-AENTR
                                 46 *                                                                       00001900
                                 47 * MOVE V1 TO V2 WHERE V1 IS A DOUBLE PRECISION VECTOR OF LENGTH         00002000
                                 48 *   N AND V2 IS A SINGLE PRECISION VECTOR OF LENGTH N AT LEAST          00002100
                                 49 *   ONE OF WHICH IS A COLUMN VECTOR WITHIN A MATRIX, AND WHERE          00002200
                                 50 *   N IS NOT EQUAL TO 3.                                                00002300
                                 51 *                                                                       00002400
                                 52          INPUT R2,            VECTOR(N) DP                             X00002500
                                                   R5,            INTEGER(N) SP                            X00002600
                                                   R6,            INTEGER(INDEL) SP                        X00002700
                                                   R7             INTEGER(OUTDEL) SP                        00002800
                                 54          OUTPUT R1            VECTOR(N) SP                              00002900
                                 56          WORK  F0                                                       00003000
                                 58 *                                                                       00003100
                                 59 * ALGORITHM:                                                            00003200
                                 60 *   SEE ALGORITHM DESCRIPTION IN VV1D3P                                 00003300
                                 61 *                                                                       00003400
00001 1FE7                       62          LR    R7,R7          SET CONDITION CODE                        00003500
00002 DB04           0004 0001   63          BNZ   DSNP1          IF OUTDEL ^= 0 THEN CHECK INDEL           00003600
00003 BFE4                0004   64          LFXI  R7,2           ELSE SET R7 TO ACCESS CONSECUTIVE         00003700
                                 65 *                             ELEMENTS.                                 00003800
00004 1EE6                       66 DSNP1    LR    R6,R6          SET CONDITION CODE                        00003900
00005 DB04           0007 0001   67          BNZ   DSNP2          IF INDEL ^= 0 THEN DO THE LOOP            00004000
00006 BEE6                0006   68          LFXI  R6,4           ELSE SET R6 TO ACCESS CONSECUTIVE         00004100
                                 69 *                             ELEMENTS.                                 00004200
00007 780A           0004        70 DSNP2    LE    F0,4(R2)       LOAD ELEMENT TO BE MOVED                  00004300
00008 3805           0002        71          STE   F0,2(R1)       STORE ELEMENT                             00004400
00009 01E7                       72          AR    R1,R7          ADVANCE TO NEXT STORAGE SPOT              00004500
0000A 02E6                       73          AR    R2,R6          ADVANCE TO NEXT ELEMENT TO BE MOVED       00004600
0000B DD17           0007 0005   74          BCTB  R5,DSNP2                                                 00004700
                                 75          AEXIT                                                          00004800
i                                 76+*********RETURN TO CALLER**********************************************
         VV1T3P--COLUMN VECTOR MOVE, LENGTH 3 OR N, DP TO SP                                                   PAGE    3
  LOC  OBJECT CODE   ADR1 ADR2      SOURCE STATEMENT                                           AP101S 3.0 09.40 07/22/05
0000C                            77+         DS    0H                                                       01-AEXIT
0000C 9914           0005        78+         LH    1,5(0)         RESTORE PROGRAM DATA BASE                 01-AEXIT
0000D C7EC                       79+$RET1    BCRE  7,4            RETURN TO CALLER                          01-AEXIT
                                 80+***********************************************************************
                                 82          ACLOSE                                                         00004900
0000E                            83+         LTORG                                                          02-ERRPA
                                 84+****************ERROR PARAMETER AREA***********************************
                                 85+***  NO ERRORS SENT IN VV1T3P                                           02-ERRPA
                                 86+****************END OF ERROR PARAMETER AREA****************************
                                 87+         END                                                            01-ACLOS
¤
                                             CROSS REFERENCE                                                   PAGE    4
SYMBOL    LEN    VALUE   DEFN   REFERENCES                                                     AP101S 3.0 09.40 07/22/05
DSNP1        1   000004    66     63
DSNP2        2   000007    70     67    74
F0           1 00000000    30     70    71
R1           1 00000001    26     71    71    72
R2           1 00000002    21     70    70    73
R5           1 00000005    29     36    74
R6           1 00000006    22     66    66    68    73
R7           1 00000007    23     62    62    64    72
VV1T3P       1 00000000    13
VV1TNP       1   000001    43     44
$RET1        1   00000D    79
¤
                                  DIAGNOSTIC CROSS REFERENCE AND ASSEMBLER SUMMARY                             PAGE    5
                                                                                               AP101S 3.0 09.40 07/22/05
     NO STATEMENTS FLAGGED IN THIS ASSEMBLY
   OVERRIDING PARAMETERS-  ESD,RLD,SYSPARM=PASS
   OPTIONS FOR THIS ASSEMBLY
    NODECK,LOAD,LIST,XREF,NORENT,TEST,NOMULT,ALGN,ESD ,RLD ,NOSREF,LINECT= 80,MSGLEVEL=   0,SYSPARM= PASS
   NO OVERRIDING DD NAMES
      54 CARDS FROM SYSIN     404 CARDS FROM SYSLIB
     116 LINES OUTPUT           5 CARDS OUTPUT
