¤
                                              EXTERNAL SYMBOL DICTIONARY                                       PAGE    1
SYMBOL   TYPE  ID  ADDR  LENGTH  LD ID                                                         AP101S 3.0 09.40 07/22/05
VV1W3P    SD 0001 000000 000012
VV1WNP    LD      000002        0001
¤
         VV1W3P--COLUMN VECTOR MOVE, LENGTH 3 OR N, SP TO DP                                                   PAGE    2
  LOC  OBJECT CODE   ADR1 ADR2      SOURCE STATEMENT                                           AP101S 3.0 09.40 07/22/05
                                  2 *
                                  3 * WHEN DATA_REMOTE IS IN EFFECT, THE LDM INSTRUCTIONS ARE NEEDED
                                  4 * AROUND THE CALL TO THIS RTL ROUTINE BECAUSE R1/R3 IS USED AS
                                  5 * A BASE REGISTER. (CR12620)
                                  6 *
                                  7 VV1W3P   AMAIN INTSIC=YES                                               00000200
                                  8+***********************************************************************
                                  9+*
                                 10+*        PRIMARY ENTRY POINT
                                 11+*
                                 12+***********************************************************************
00000                            13+VV1W3P   CSECT                                                          01-AMAIN
                                 15 *                                                                       00000300
                                 16 * MOVE V1 TO V2 WHERE V1 IS A SINGLE PRECISION 3 VECTOR AND V2 IS       00000400
                                 17 *   A DOUBLE PRECISION 3 VECTOR WHERE AT LEAST ONE OF V1 AND V2         00000500
                                 18 *   IS A COLUMN VECTOR WITHIN A MATRIX.                                 00000600
                                 19 *                                                                       00000700
                                 20          INPUT R2,            VECTOR(3) SP                             X00000800
                                                   R6,            INTEGER(INDEL) SP                        X00000900
                                                   R7             INTEGER(OUTDEL) SP                        00001000
0000002                          21+R2       EQU   2                                                        01-INPUT
0000006                          22+R6       EQU   6                                                        01-INPUT
0000007                          23+R7       EQU   7                                                        01-INPUT
                                 25          OUTPUT R1            VECTOR(3) DP                              00001100
0000001                          26+R1       EQU   1                                                        01-OUTPU
                                 28          WORK  R5,F0,F1                                                 00001200
0000005                          29+R5       EQU   5                                                        01-WORK
0000000                          30+F0       EQU   0                                                        01-WORK
0000001                          31+F1       EQU   1                                                        01-WORK
                                 33 *                                                                       00001300
                                 34 * ALGORITHM:                                                            00001400
                                 35 *   SEE ALGORITHM DESCRIPTION IN VV1D3P                                 00001500
                                 36 *                                                                       00001600
00000 EDF3 0003      0003        37          LA    R5,3                                                     00001700
                                 38 VV1WNP   AENTRY                                                         00001800
                                 39+***********************************************************************
                                 40+*
                                 41+*        SECONDARY ENTRY POINT
                                 42+*
                                 43+***********************************************************************
00002                            44+VV1WNP   DS    0H                                                       01-AENTR
                                 45+         ENTRY VV1WNP                                                   01-AENTR
                                 47 *                                                                       00001900
                                 48 * MOVE V1 TO V2 WHERE V1 IS A SINGLE PRECISION VECTOR OF LENGTH         00002000
                                 49 *   N AND V2 IS A DOUBLE PRECISION VECTOR OF LENGTH N AND WHERE         00002100
                                 50 *   AT LEAST ONE OF V1 AND V2 IS A COLUMN VECTOR WITHIN A MATRIX.       00002200
                                 51 *                                                                       00002300
                                 52          INPUT R2,            VECTOR(N) SP                             X00002400
                                                   R5,            INTEGER(N) SP                            X00002500
                                                   R6,            INTEGER(INDEL) SP                        X00002600
                                                   R7             INTEGER(OUTDEL) SP                        00002700
                                 54          OUTPUT R1            VECTOR(N) DP                              00002800
                                 56          WORK  F0,F1                                                    00002900
                                 58 *                                                                       00003000
                                 59 * ALGORITHM:                                                            00003100
                                 60 *   SEE ALGORITHM DESCRIPTION IN VV1D3P                                 00003200
                                 61 *                                                                       00003300
00002 59E1                       62          SER   F1,F1          CLEAR F1                                  00003400
00003 1FE7                       63          LR    R7,R7          TEST R7 FOR 0                             00003500
00004 DB04           0006 0001   64          BNZ   SDNP1          IF OUTDEL>0 THEN CHECK INDEL              00003600
00005 BFE6                0006   65          LFXI  R7,4           ELSE SET R7 TO ACCESS CONSECUTIVE         00003700
                                 66 *                             ELEMENTS                                  00003800
00006 1EE6                       67 SDNP1    LR    R6,R6          SET CONDITION CODE                        00003900
00007 DB04           0009 0001   68          BNZ   SDNP2          IF INDEL>0 THEN PERFORM LOOP              00004000
00008 BEE4                0004   69          LFXI  R6,2           ELSE SET R6 TO ACCESS CONSECUTIVE         00004100
                                 70 *                             ELEMENTS.                                 00004200
00009 7806           0002        71 SDNP2    LE    F0,2(R2)       FIND NEXT ELEMENT                         00004300
0000A 38F9 0004      0004        72          STED  F0,4(R1)       STORE IN NEXT STORAGE ELEMENT             00004400
0000C 01E7                       73          AR    R1,R7          ADVANCE TO NEXT STORAGE ELEMENT           00004500
0000D 02E6                       74          AR    R2,R6          ADVANCE TO NEXT ELEMENT TO BE STORED      00004600
0000E DD1B           0009 0006   75          BCTB  R5,SDNP2                                                 00004700
i                                 76          AEXIT                                                          00004800
         VV1W3P--COLUMN VECTOR MOVE, LENGTH 3 OR N, SP TO DP                                                   PAGE    3
  LOC  OBJECT CODE   ADR1 ADR2      SOURCE STATEMENT                                           AP101S 3.0 09.40 07/22/05
                                 77+*********RETURN TO CALLER**********************************************
0000F                            78+         DS    0H                                                       01-AEXIT
0000F 9914           0005        79+         LH    1,5(0)         RESTORE PROGRAM DATA BASE                 01-AEXIT
00010 C7EC                       80+$RET1    BCRE  7,4            RETURN TO CALLER                          01-AEXIT
                                 81+***********************************************************************
                                 83          ACLOSE                                                         00004900
00011 C9FB
00012                            84+         LTORG                                                          02-ERRPA
                                 85+****************ERROR PARAMETER AREA***********************************
                                 86+***  NO ERRORS SENT IN VV1W3P                                           02-ERRPA
                                 87+****************END OF ERROR PARAMETER AREA****************************
                                 88+         END                                                            01-ACLOS
¤
                                             CROSS REFERENCE                                                   PAGE    4
SYMBOL    LEN    VALUE   DEFN   REFERENCES                                                     AP101S 3.0 09.40 07/22/05
F0           1 00000000    30     71    72
F1           1 00000001    31     62    62
R1           1 00000001    26     72    72    73
R2           1 00000002    21     71    71    74
R5           1 00000005    29     37    75
R6           1 00000006    22     67    67    69    74
R7           1 00000007    23     63    63    65    73
SDNP1        1   000006    67     64
SDNP2        2   000009    71     68    75
VV1W3P       1 00000000    13
VV1WNP       1   000002    44     45
$RET1        1   000010    80
¤
                                  DIAGNOSTIC CROSS REFERENCE AND ASSEMBLER SUMMARY                             PAGE    5
                                                                                               AP101S 3.0 09.40 07/22/05
     NO STATEMENTS FLAGGED IN THIS ASSEMBLY
   OVERRIDING PARAMETERS-  ESD,RLD,SYSPARM=PASS
   OPTIONS FOR THIS ASSEMBLY
    NODECK,LOAD,LIST,XREF,NORENT,TEST,NOMULT,ALGN,ESD ,RLD ,NOSREF,LINECT= 80,MSGLEVEL=   0,SYSPARM= PASS
   NO OVERRIDING DD NAMES
      54 CARDS FROM SYSIN     404 CARDS FROM SYSLIB
     119 LINES OUTPUT           5 CARDS OUTPUT
