¤
                                              EXTERNAL SYMBOL DICTIONARY                                       PAGE    1
SYMBOL   TYPE  ID  ADDR  LENGTH  LD ID                                                         AP101S 3.0 09.40 07/22/05
VV6D3     SD 0001 000000 000010
¤
         VV6D3--VECTOR DOT PRODUCT,LENGTH 3,DBLE PREC                                                          PAGE    2
  LOC  OBJECT CODE   ADR1 ADR2      SOURCE STATEMENT                                           AP101S 3.0 09.40 07/22/05
                                  2 *
                                  3 * WHEN DATA_REMOTE IS IN EFFECT, THE LDM INSTRUCTIONS ARE NEEDED
                                  4 * AROUND THE CALL TO THIS RTL ROUTINE BECAUSE R1/R3 IS USED AS
                                  5 * A BASE REGISTER. (CR12620)
                                  6 *
                                  7 VV6D3    AMAIN INTSIC=YES                                               00000200
                                  8+***********************************************************************
                                  9+*
                                 10+*        PRIMARY ENTRY POINT
                                 11+*
                                 12+***********************************************************************
00000                            13+VV6D3    CSECT                                                          01-AMAIN
                                 15 *                                                                       00000300
                                 16 *   COMPUTES THE DOT PRODUCT :                                          00000400
                                 17 *                                                                       00000500
                                 18 *    S = V1(3) . V2(3)                                                  00000600
                                 19 *                                                                       00000700
                                 20 *   WHERE S,V1,V2  ARE DP                                               00000800
                                 21 *                                                                       00000900
                                 22          INPUT R2,            VECTOR(3)  DP                            X00001000
                                                   R3             VECTOR(3)  DP                             00001100
0000002                          23+R2       EQU   2                                                        01-INPUT
0000003                          24+R3       EQU   3                                                        01-INPUT
                                 26          OUTPUT F0            SCALAR     DP                             00001200
0000000                          27+F0       EQU   0                                                        01-OUTPU
                                 29          WORK  F1,F2,F3                                                 00001300
0000001                          30+F1       EQU   1                                                        01-WORK
0000002                          31+F2       EQU   2                                                        01-WORK
0000003                          32+F3       EQU   3                                                        01-WORK
                                 34 *                                                                       00001400
                                 35 *   ALGORITHM :                                                         00001500
                                 36 *   S=V1(1)V2(1)+V1(2)V2(2)+V1(3)V2(3);                                 00001600
                                 37 *                                                                       00001700
00000 780B           0004        38          LE    F0,4(R3)      GET V1(1) ELE.                             00001800
00001 790F           0006        39          LE    F1,6(R3)                                                 00001900
00002 30FA 0004      0004        40          MED   F0,4(R2)      MUL BY V2(1)                               00002000
00004 7A13           0008        41          LE    F2,8(R3)                                                 00002100
00005 7B17           000A        42          LE    F3,10(R3)                                                00002200
00006 32FA 0008      0008        43          MED   F2,8(R2)                                                 00002300
00008 50EA                       44          AEDR  F0,F2         GET V(1)V2(1)+V1(2)V2(2)                   00002400
00009 7A1B           000C        45          LE    F2,12(R3)                                                00002500
0000A 7B1F           000E        46          LE    F3,14(R3)                                                00002600
0000B 32FA 000C      000C        47          MED   F2,12(R2)                                                00002700
0000D 50EA                       48          AEDR  F0,F2         GET S                                      00002800
                                 49          AEXIT                                                          00002900
                                 50+*********RETURN TO CALLER**********************************************
0000E                            51+         DS    0H                                                       01-AEXIT
0000E 9B24           0009        52+         LH    3,9(0)         RESTORE LOCAL DATA BASE                   01-AEXIT
0000F C7EC                       53+$RET1    BCRE  7,4            RETURN TO CALLER                          01-AEXIT
                                 54+***********************************************************************
                                 56          ACLOSE                                                         00003000
00010                            57+         LTORG                                                          02-ERRPA
                                 58+****************ERROR PARAMETER AREA***********************************
                                 59+***  NO ERRORS SENT IN VV6D3                                            02-ERRPA
                                 60+****************END OF ERROR PARAMETER AREA****************************
                                 61+         END                                                            01-ACLOS
¤
                                             CROSS REFERENCE                                                   PAGE    3
SYMBOL    LEN    VALUE   DEFN   REFERENCES                                                     AP101S 3.0 09.40 07/22/05
F0           1 00000000    27     38    40    44    48
F1           1 00000001    30     39
F2           1 00000002    31     41    43    44    45    47    48
F3           1 00000003    32     42    46
R2           1 00000002    23     40    40    43    43    47    47
R3           1 00000003    24     38    38    39    39    41    41    42    42    45    45    46    46
VV6D3        1 00000000    13
$RET1        1   00000F    53
¤
                                  DIAGNOSTIC CROSS REFERENCE AND ASSEMBLER SUMMARY                             PAGE    4
                                                                                               AP101S 3.0 09.40 07/22/05
     NO STATEMENTS FLAGGED IN THIS ASSEMBLY
   OVERRIDING PARAMETERS-  ESD,RLD,SYSPARM=PASS
   OPTIONS FOR THIS ASSEMBLY
    NODECK,LOAD,LIST,XREF,NORENT,TEST,NOMULT,ALGN,ESD ,RLD ,NOSREF,LINECT= 80,MSGLEVEL=   0,SYSPARM= PASS
   NO OVERRIDING DD NAMES
      35 CARDS FROM SYSIN     338 CARDS FROM SYSLIB
      84 LINES OUTPUT           4 CARDS OUTPUT
