¤
                                              EXTERNAL SYMBOL DICTIONARY                                       PAGE    1
SYMBOL   TYPE  ID  ADDR  LENGTH  LD ID                                                         AP101S 3.0 09.40 07/22/05
VV7D3     SD 0001 000000 000014
¤
         VV7D3--VECTOR NEGATE,LENGTH 3,DOUBLE PREC                                                             PAGE    2
  LOC  OBJECT CODE   ADR1 ADR2      SOURCE STATEMENT                                           AP101S 3.0 09.40 07/22/05
                                  2 *
                                  3 * WHEN DATA_REMOTE IS IN EFFECT, THE LDM INSTRUCTIONS ARE NEEDED
                                  4 * AROUND THE CALL TO THIS RTL ROUTINE BECAUSE R1/R3 IS USED AS
                                  5 * A BASE REGISTER. (CR12620)
                                  6 *
                                  7 VV7D3    AMAIN INTSIC=YES                                               00000200
                                  8+***********************************************************************
                                  9+*
                                 10+*        PRIMARY ENTRY POINT
                                 11+*
                                 12+***********************************************************************
00000                            13+VV7D3    CSECT                                                          01-AMAIN
                                 15 *                                                                       00000300
                                 16 *   GENERATES THE NEGATIVE VECTOR :                                     00000400
                                 17 *                                                                       00000500
                                 18 *     V(3) = -V1(3)                                                     00000600
                                 19 *                                                                       00000700
                                 20 *  WHERE V V1 ARE DP                                                    00000800
                                 21 *                                                                       00000900
                                 22          INPUT R2             VECTOR(3)  DP                             00001000
0000002                          23+R2       EQU   2                                                        01-INPUT
                                 25          OUTPUT R1            VECTOR(3)  DP                             00001100
0000001                          26+R1       EQU   1                                                        01-OUTPU
                                 28          WORK  F0,F2,F4                                                 00001200
0000000                          29+F0       EQU   0                                                        01-WORK
0000002                          30+F2       EQU   2                                                        01-WORK
0000004                          31+F4       EQU   4                                                        01-WORK
                                 33 *                                                                       00001300
                                 34 * ALGORITHM :                                                           00001400
                                 35 * V = (-V1(1),-V1(2),-V1(3))                                            00001500
                                 36 *                                                                       00001600
00000 78FA 0004      0004        37          LED   F0,4(R2)      GET V1(1).                                 00001700
00002 DC04           0004 0001   38          BZ    FX1            WORKAROUND FOR LECR BUG.                  00001800
00003 78E8                       39          LECR  F0,F0          COMPLEMENT.                               00001900
00004 7AFA 0008      0008        40 FX1      LED   F2,8(R2)       GET V1(2).                                00002000
00006 DC04           0008 0001   41          BZ    FX2            WORKAROUND FOR LECR BUG.                  00002100
00007 7AEA                       42          LECR  F2,F2          COMPLEMENT.                               00002200
00008 7CFA 000C      000C        43 FX2      LED   F4,12(R2)      GET V1(3).                                00002300
0000A DC04           000C 0001   44          BZ    FX3            WORKAROUND FOR LECR BUG.                  00002400
0000B 7CEC                       45          LECR  F4,F4          COMPLEMENT.                               00002500
0000C 38F9 0004      0004        46 FX3      STED  F0,4(R1)       STORE V2(1).                              00002600
0000E 3AF9 0008      0008        47          STED  F2,8(R1)       STORE V2(2).                              00002700
00010 3CF9 000C      000C        48          STED  F4,12(R1)      STORE V2(3).                              00002800
                                 49          AEXIT                                                          00002900
                                 50+*********RETURN TO CALLER**********************************************
00012                            51+         DS    0H                                                       01-AEXIT
00012 9914           0005        52+         LH    1,5(0)         RESTORE PROGRAM DATA BASE                 01-AEXIT
00013 C7EC                       53+$RET1    BCRE  7,4            RETURN TO CALLER                          01-AEXIT
                                 54+***********************************************************************
                                 56          ACLOSE                                                         00003000
00014                            57+         LTORG                                                          02-ERRPA
                                 58+****************ERROR PARAMETER AREA***********************************
                                 59+***  NO ERRORS SENT IN VV7D3                                            02-ERRPA
                                 60+****************END OF ERROR PARAMETER AREA****************************
                                 61+         END                                                            01-ACLOS
¤
                                             CROSS REFERENCE                                                   PAGE    3
SYMBOL    LEN    VALUE   DEFN   REFERENCES                                                     AP101S 3.0 09.40 07/22/05
F0           1 00000000    29     37    39    39    46
F2           1 00000002    30     40    42    42    47
F4           1 00000004    31     43    45    45    48
FX1          2   000004    40     38
FX2          2   000008    43     41
FX3          2   00000C    46     44
R1           1 00000001    26     46    46    47    47    48    48
R2           1 00000002    23     37    37    40    40    43    43
VV7D3        1 00000000    13
$RET1        1   000013    53
¤
                                  DIAGNOSTIC CROSS REFERENCE AND ASSEMBLER SUMMARY                             PAGE    4
                                                                                               AP101S 3.0 09.40 07/22/05
     NO STATEMENTS FLAGGED IN THIS ASSEMBLY
   OVERRIDING PARAMETERS-  ESD,RLD,SYSPARM=PASS
   OPTIONS FOR THIS ASSEMBLY
    NODECK,LOAD,LIST,XREF,NORENT,TEST,NOMULT,ALGN,ESD ,RLD ,NOSREF,LINECT= 80,MSGLEVEL=   0,SYSPARM= PASS
   NO OVERRIDING DD NAMES
      35 CARDS FROM SYSIN     338 CARDS FROM SYSLIB
      85 LINES OUTPUT           5 CARDS OUTPUT
