
Source Code


000002:                                                                                                  ## Copyright:   Public domain.
000003:                                                                                                  ## Filename:    ALARM_AND_ABORT.agc
000004:                                                                                                  ## Purpose:     A section of Luminary revision 98.
000005:                                                                                                  ##              It is part of the reconstructed source code for the a
000006:                                                                                                  ##              development version of the flight software for the Lunar
000007:                                                                                                  ##              Module's (LM) Apollo Guidance Computer (AGC) for Apollo 11.
000008:                                                                                                  ##              The code has been recreated from a copy of Luminary 99
000009:                                                                                                  ##              revision 001, using asterisks indicating changed lines in
000010:                                                                                                  ##              the listing and Luminary Memo #85, which lists changes between
000011:                                                                                                  ##              Luminary 98 and 99.
000012:                                                                                                  ## Reference:   pp. 1381-1385
000013:                                                                                                  ## Assembler:   yaYUL
000014:                                                                                                  ## Contact:     Ron Burkey <info@sandroid.org>.
000015:                                                                                                  ## Website:     www.ibiblio.org/apollo/index.html
000016:                                                                                                  ## Mod history: 2019-07-28 MAS  Created from Luminary 99.
000017:


000019:                                                                                                  #  THE FOLLOWING SUBROUTINE MAY BE CALLED TO DISPLAY A NON-ABORTIVE ALARM CONDITION.  IT MAY BE CALLED
000020:                                                                                                  #  EITHER IN INTERRUPT OR UNDER EXECUTIVE CONTROL.
000021:
000022:                                                                                                  #  CALLING SEQUENCE IS AS FOLLOWS:
000023:                                                                                                  #                TC      ALARM
000024:                                                                                                  #                OCT     AAANN           ALARM NO. NN IN GENERAL AREA AAA.
000025:                                                                                                  #                                        (RETURNS HERE)
000026:
000027:    5567                                           BLOCK    02
000028:    4000                                           SETLOC   FFTAG7
000029:    4000                                           BANK
000030:
000031:    5567     0375                                  EBANK=   FAILREG
000032:
000033:    5567                                           COUNT*   $$/ALARM
000034:
000035:                                                                                                  #  ALARM TURNS ON THE PROGRAM ALARM LIGHT, BUT DOES NOT DISPLAY.
000036:
000037:    5567           00004        ALARM              INHINT
000038:
000039:    5570           30002                           CA       Q
000040:    5571           55363        ALARM2             TS       ALMCADR
000041:    5572           50002                           INDEX    Q
000042:    5573           30000                           CA       0
000043:    5574           54001        BORTENT            TS       L
000044:
000045:    5575           30006        PRIOENT            CA       BBANK
000046:    5576           00006                 +1        EXTEND
000047:    5577           04007                           ROR      SUPERBNK                              #  ADD SUPER BITS.
000048:    5600           55364                           TS       ALMCADR    +1
000049:
000050:    5601           30002        LARMENT            CA       Q                                     #  STORE RETURN FOR ALARM
000051:    5602           54061                           TS       ITEMP1
000052:
000053:    5603           10375        CHKFAIL1           CCS      FAILREG                               #  IS ANYTHING IN FAILREG
000054:    5604           15607                           TCF      CHKFAIL2                              #  YES TRY NEXT REG
000055:    5605           22375                           LXCH     FAILREG
000056:    5606           15621                           TCF      PROGLARM                              #  TURN ALARM LIGHT ON FOR FIRST ALARM
000057:
000058:    5607           10376        CHKFAIL2           CCS      FAILREG    +1
000059:    5610           15613                           TCF      FAIL3
000060:    5611           22376                           LXCH     FAILREG    +1
000061:    5612           15624                           TCF      MULTEXIT
000062:
000063:    5613           30377        FAIL3              CA       FAILREG    +2
000064:    5614           74733                           MASK     POSMAX
000065:    5615           10000                           CCS      A
000066:    5616           15630                           TCF      MULTFAIL
000067:    5617           22377                           LXCH     FAILREG    +2
000068:    5620           15624                           TCF      MULTEXIT
000069:


000071:
000072:    5621           41036        PROGLARM           CS       DSPTAB     +11D
000073:    5622           75642                           MASK     OCT40400
000074:    5623           27036                           ADS      DSPTAB     +11D
000075:
000076:
000077:    5624           56061        MULTEXIT           XCH      ITEMP1                                #  OBTAIN RETURN ADDRESS IN A
000078:    5625           00003                           RELINT
000079:    5626           50000                           INDEX    A
000080:    5627           00001                           TC       1
000081:
000082:    5630           30001        MULTFAIL           CA       L
000083:    5631           64735                           AD       BIT15
000084:    5632           54377                           TS       FAILREG    +2
000085:
000086:    5633           15624                           TCF      MULTEXIT
000087:
000088:                                                                                                  #  PRIOLARM DISPLAYS V05N09 VIA PRIODSPR WITH 3 RETURNS TO THE USER FROM THE ASTRONAUT AT CALL LOC +1,+2,+3 AND
000089:                                                                                                  #  AN IMMEDIATE RETURN TO THE USER AT CALL LOC +4.  EXAMPLE FOLLOWS,
000090:                                                                                                  #                CAF     OCTXX           ALARM CODE
000091:                                                                                                  #                TC      BANKCALL
000092:                                                                                                  #                CADR    PRIOLARM
000093:                                                                                                  #                ...     ...
000094:                                                                                                  #                ...     ...
000095:                                                                                                  #                ...     ...             ASTRONAUT RETURN
000096:                                                                                                  #                TC      PHASCHNG        IMMEDIATE RETURN TO USER.  RESTART
000097:                                                                                                  #                OCT     X.1             PHASE CHANGE FOR PRIO DISPLAY
000098:
000099: 10,3562                                           BANK     10
000100: 10,2000                                           SETLOC   DISPLAYS
000101: 10,2000                                           BANK
000102:
000103: 10,3562                                           COUNT*   $$/DSPLA
000104: 10,3562           00004        PRIOLARM           INHINT                                         #  * * * KEEP IN DISPLAY ROUTINES BANK
000105: 10,3563           54001                           TS       L                                     #  SAVE ALARM CODE
000106:
000107: 10,3564           30133                           CA       BUF2                                  #  2 CADR OF PRIOLARM USER
000108: 10,3565           55363                           TS       ALMCADR
000109: 10,3566           30134                           CA       BUF2       +1
000110: 10,3567           05576                           TC       PRIOENT    +1                         #  * LEAVE L ALONE
000111: 10,3570           77467        -2SEC              DEC      -200       B-14                       #  *** DONT MOVE
000112: 10,3571           35006                           CAF      V05N09
000113: 10,3572           12504                           TCF      PRIODSPR
000114:
000115:    5634                                           BLOCK    02
000116:    4000                                           SETLOC   FFTAG7
000117:    4000                                           BANK
000118:
000119:    5634                                           COUNT*   $$/ALARM
000120:    5634           00004        BAILOUT            INHINT
000121:    5635           30002                           CA       Q


000123:    5636           55363                           TS       ALMCADR
000124:
000125:    5637           50002                           INDEX    Q
000126:    5640           30000                           CAF      0
000127:    5641           05574                           TC       BORTENT
000128:    5642           40400        OCT40400           OCT      40400
000129:
000130:    5643           00004                           INHINT
000131:    5644           34752        WHIMPER            CA       TWO
000132:    5645           60005                           AD       Z
000133:    5646           54017                           TS       BRUPT
000134:    5647           50017                           RESUME
000135:    5650           04635                           TC       POSTJUMP                              #  RESUME SENDS CONTROL HERE
000136:    5651           12765                           CADR     ENEMA
000137:    5652           00004        POODOO             INHINT
000138:    5653           30002                           CA       Q
000139:    5654           55363        ABORT2             TS       ALMCADR
000140:    5655           50002                           INDEX    Q
000141:    5656           30000                           CAF      0
000142:    5657           05574                           TC       BORTENT
000143:    5660           77770        OCT77770           OCT      77770                                 #  DON'T MOVE
000144:
000145:    5661           34765                           CAF      OCT35                                 #  4.35SPOT FOR GOPOODOO
000146:    5662           54001                           TS       L
000147:    5663           40000                           COM
000148:    5664           52761                           DXCH     -PHASE4
000149:    5665           00004        GOPOODOO           INHINT
000150:    5666           04616                           TC       BANKCALL                              #  RESET STATEFLG, REINTFLG, AND NODOFLAG.
000151:    5667           27755                           CADR     FLAGS
000152:    5670           30103                           CA       FLAGWRD7                              #  IS SERVICER CURRENTLY IN OPERATION?
000153:    5671           74746                           MASK     V37FLBIT
000154:    5672           10000                           CCS      A
000155:    5673           15701                           TCF      STRTIDLE
000156:    5674           04616                           TC       BANKCALL                              #  TERMINATE GRPS 1, 3, 5, AND 6
000157:    5675           12652                           CADR     V37KLEAN
000158:    5676           04616                           TC       BANKCALL                              #  TERMINATE GRPS 2, 4, 1, 3, 5, AND 6
000159:    5677           12643                           CADR     MR.KLEAN                              #        (I.E., GRP 4 LAST)
000160:    5700           15644                           TCF      WHIMPER
000161:    5701           35743        STRTIDLE           CAF      BBSERVDL
000162:    5702           04727                           TC       SUPERSW
000163:    5703           04616                           TC       BANKCALL                              #  PUT SERVICER INTO ITS "GROUND" STATE
000164:    5704           57321                           CADR     SERVIDLE                              #  AND PROCEED TO GOTOPOOH.
000165:    5705           00004        CCSHOLE            INHINT
000166:    5706           30002                           CA       Q
000167:    5707           05654                           TC       ABORT2
000168:    5710           01103        OCT21103           OCT      1103
000169:    5711           00004        CURTAINS           INHINT
000170:    5712           30002                           CA       Q
000171:    5713           05571                           TC       ALARM2
000172:    5714           00217        OCT217             OCT      00217


000174:    5715           01363                           TC       ALMCADR                               #  RETURN TO USER
000175:
000176:    5716           00004        BAILOUT1           INHINT
000177:    5717           53364                           DXCH     ALMCADR
000178:    5720           35742                           CAF      ADR40400
000179:    5721           54061        BOTHABRT           TS       ITEMP1
000180:    5722           50002                           INDEX    Q
000181:    5723           30000                           CAF      0
000182:    5724           54001                           TS       L
000183:    5725           15603                           TCF      CHKFAIL1
000184:    5726           00004        POODOO1            INHINT
000185:    5727           53364                           DXCH     ALMCADR
000186:    5730           35741                           CAF      ADR77770
000187:    5731           15721                           TCF      BOTHABRT
000188:
000189:    5732           00004        ALARM1             INHINT
000190:    5733           53364                           DXCH     ALMCADR
000191:    5734           00004        ALMNCADR           INHINT
000192:    5735           50002                           INDEX    Q
000193:    5736           30000                           CA       0
000194:    5737           54001                           TS       L
000195:    5740           15601                           TCF      LARMENT
000196:
000197:    5741           15660        ADR77770           TCF      OCT77770
000198:    5742           15642        ADR40400           TCF      OCT40400
000199:    5743     5155               DOALARM            EQUALS   ENDOFJOB
000200:    5743  E7,1515                                  EBANK=   DVCNTR
000201:    5743           56067        BBSERVDL           BBCON    SERVIDLE
000202:
000203:                                                                                                  #  CALLING SEQUENCE FOR VARALARM
000204:                                                                                                  #                CAF     (ALARM)
000205:                                                                                                  #                TC      VARALARM
000206:
000207:                                                                                                  #  VARALARM TURNS ON PROGRAM ALARM LIGHT BUT DOES NOT DISPLAY
000208:
000209:    5744           00004        VARALARM           INHINT
000210:
000211:    5745           54001                           TS       L                                     #  SAVE USERS ALARM CODE
000212:
000213:    5746           30002                           CA       Q                                     #  SAVE USERS Q
000214:    5747           55363                           TS       ALMCADR
000215:
000216:    5750           05575                           TC       PRIOENT
000217:    5751           00014        OCT14              OCT      14                                    #  DONT MOVE
000218:
000219:    5752           01363                           TC       ALMCADR                               #  RETURN TO USER
000220:
000221:    5753     5644               ABORT              EQUALS   WHIMPER
000222: 13,3755                                           BANK     13
000223: 13,2000                                           SETLOC   ABTFLGS
000224: 13,2000                                           BANK


000226: 13,3755                                           COUNT*   $$/ALARM
000227:
000228: 13,3755           44747        FLAGS              CS       STATEBIT
000229: 13,3756           70077                           MASK     FLAGWRD3
000230: 13,3757           54077                           TS       FLAGWRD3
000231: 13,3760           44745                           CS       REINTBIT
000232: 13,3761           70106                           MASK     FLGWRD10
000233: 13,3762           54106                           TS       FLGWRD10
000234: 13,3763           44753                           CS       NODOBIT
000235: 13,3764           70076                           MASK     FLAGWRD2
000236: 13,3765           54076                           TS       FLAGWRD2
000237: 13,3766           00002                           TC       Q
000238:

End of include-file ALARM_AND_ABORT.agc.  Parent file is MAIN.agc


