
Source Code


000002:                                                                                                  ## Copyright:   Public domain.
000003:                                                                                                  ## Filename:    ALARM_AND_ABORT.agc
000004:                                                                                                  ## Purpose:     A section of Luminary revision 98.
000005:                                                                                                  ##              It is part of the reconstructed source code for the a
000006:                                                                                                  ##              development version of the flight software for the Lunar
000007:                                                                                                  ##              Module's (LM) Apollo Guidance Computer (AGC) for Apollo 11.
000008:                                                                                                  ##              The code has been recreated from a copy of Luminary 99
000009:                                                                                                  ##              revision 001, using asterisks indicating changed lines in
000010:                                                                                                  ##              the listing and Luminary Memo #85, which lists changes between
000011:                                                                                                  ##              Luminary 98 and 99.
000012:                                                                                                  ## Reference:   pp. 1381-1385
000013:                                                                                                  ## Assembler:   yaYUL
000014:                                                                                                  ## Contact:     Ron Burkey <info@sandroid.org>.
000015:                                                                                                  ## Website:     www.ibiblio.org/apollo/index.html
000016:                                                                                                  ## Mod history: 2019-07-28 MAS  Created from Luminary 99.
000017:                                                                                                  ##              2021-05-30 ABS  OCT21103 -> OCT1103
000018:


000020:                                                                                                  #  THE FOLLOWING SUBROUTINE MAY BE CALLED TO DISPLAY A NON-ABORTIVE ALARM CONDITION.  IT MAY BE CALLED
000021:                                                                                                  #  EITHER IN INTERRUPT OR UNDER EXECUTIVE CONTROL.
000022:
000023:                                                                                                  #  CALLING SEQUENCE IS AS FOLLOWS:
000024:                                                                                                  #                TC      ALARM
000025:                                                                                                  #                OCT     AAANN           ALARM NO. NN IN GENERAL AREA AAA.
000026:                                                                                                  #                                        (RETURNS HERE)
000027:
000028:    5567                                           BLOCK    02
000029:    4000                                           SETLOC   FFTAG7
000030:    4000                                           BANK
000031:
000032:    5567     0375                                  EBANK=   FAILREG
000033:
000034:    5567                                           COUNT*   $$/ALARM
000035:
000036:                                                                                                  #  ALARM TURNS ON THE PROGRAM ALARM LIGHT, BUT DOES NOT DISPLAY.
000037:
000038:    5567           00004        ALARM              INHINT
000039:
000040:    5570           30002                           CA       Q
000041:    5571           55363        ALARM2             TS       ALMCADR
000042:    5572           50002                           INDEX    Q
000043:    5573           30000                           CA       0
000044:    5574           54001        BORTENT            TS       L
000045:
000046:    5575           30006        PRIOENT            CA       BBANK
000047:    5576           00006                 +1        EXTEND
000048:    5577           04007                           ROR      SUPERBNK                              #  ADD SUPER BITS.
000049:    5600           55364                           TS       ALMCADR    +1
000050:
000051:    5601           30002        LARMENT            CA       Q                                     #  STORE RETURN FOR ALARM
000052:    5602           54061                           TS       ITEMP1
000053:
000054:    5603           10375        CHKFAIL1           CCS      FAILREG                               #  IS ANYTHING IN FAILREG
000055:    5604           15607                           TCF      CHKFAIL2                              #  YES TRY NEXT REG
000056:    5605           22375                           LXCH     FAILREG
000057:    5606           15621                           TCF      PROGLARM                              #  TURN ALARM LIGHT ON FOR FIRST ALARM
000058:
000059:    5607           10376        CHKFAIL2           CCS      FAILREG    +1
000060:    5610           15613                           TCF      FAIL3
000061:    5611           22376                           LXCH     FAILREG    +1
000062:    5612           15624                           TCF      MULTEXIT
000063:
000064:    5613           30377        FAIL3              CA       FAILREG    +2
000065:    5614           74733                           MASK     POSMAX
000066:    5615           10000                           CCS      A
000067:    5616           15630                           TCF      MULTFAIL
000068:    5617           22377                           LXCH     FAILREG    +2
000069:    5620           15624                           TCF      MULTEXIT
000070:


000072:
000073:    5621           41036        PROGLARM           CS       DSPTAB     +11D
000074:    5622           75642                           MASK     OCT40400
000075:    5623           27036                           ADS      DSPTAB     +11D
000076:
000077:
000078:    5624           56061        MULTEXIT           XCH      ITEMP1                                #  OBTAIN RETURN ADDRESS IN A
000079:    5625           00003                           RELINT
000080:    5626           50000                           INDEX    A
000081:    5627           00001                           TC       1
000082:
000083:    5630           30001        MULTFAIL           CA       L
000084:    5631           64735                           AD       BIT15
000085:    5632           54377                           TS       FAILREG    +2
000086:
000087:    5633           15624                           TCF      MULTEXIT
000088:
000089:                                                                                                  #  PRIOLARM DISPLAYS V05N09 VIA PRIODSPR WITH 3 RETURNS TO THE USER FROM THE ASTRONAUT AT CALL LOC +1,+2,+3 AND
000090:                                                                                                  #  AN IMMEDIATE RETURN TO THE USER AT CALL LOC +4.  EXAMPLE FOLLOWS,
000091:                                                                                                  #                CAF     OCTXX           ALARM CODE
000092:                                                                                                  #                TC      BANKCALL
000093:                                                                                                  #                CADR    PRIOLARM
000094:                                                                                                  #                ...     ...
000095:                                                                                                  #                ...     ...
000096:                                                                                                  #                ...     ...             ASTRONAUT RETURN
000097:                                                                                                  #                TC      PHASCHNG        IMMEDIATE RETURN TO USER.  RESTART
000098:                                                                                                  #                OCT     X.1             PHASE CHANGE FOR PRIO DISPLAY
000099:
000100: 10,3562                                           BANK     10
000101: 10,2000                                           SETLOC   DISPLAYS
000102: 10,2000                                           BANK
000103:
000104: 10,3562                                           COUNT*   $$/DSPLA
000105: 10,3562           00004        PRIOLARM           INHINT                                         #  * * * KEEP IN DISPLAY ROUTINES BANK
000106: 10,3563           54001                           TS       L                                     #  SAVE ALARM CODE
000107:
000108: 10,3564           30133                           CA       BUF2                                  #  2 CADR OF PRIOLARM USER
000109: 10,3565           55363                           TS       ALMCADR
000110: 10,3566           30134                           CA       BUF2       +1
000111: 10,3567           05576                           TC       PRIOENT    +1                         #  * LEAVE L ALONE
000112: 10,3570           77467        -2SEC              DEC      -200       B-14                       #  *** DONT MOVE
000113: 10,3571           35006                           CAF      V05N09
000114: 10,3572           12504                           TCF      PRIODSPR
000115:
000116:    5634                                           BLOCK    02
000117:    4000                                           SETLOC   FFTAG7
000118:    4000                                           BANK
000119:
000120:    5634                                           COUNT*   $$/ALARM
000121:    5634           00004        BAILOUT            INHINT
000122:    5635           30002                           CA       Q


000124:    5636           55363                           TS       ALMCADR
000125:
000126:    5637           50002                           INDEX    Q
000127:    5640           30000                           CAF      0
000128:    5641           05574                           TC       BORTENT
000129:    5642           40400        OCT40400           OCT      40400
000130:
000131:    5643           00004                           INHINT
000132:    5644           34752        WHIMPER            CA       TWO
000133:    5645           60005                           AD       Z
000134:    5646           54017                           TS       BRUPT
000135:    5647           50017                           RESUME
000136:    5650           04635                           TC       POSTJUMP                              #  RESUME SENDS CONTROL HERE
000137:    5651           12765                           CADR     ENEMA
000138:    5652           00004        POODOO             INHINT
000139:    5653           30002                           CA       Q
000140:    5654           55363        ABORT2             TS       ALMCADR
000141:    5655           50002                           INDEX    Q
000142:    5656           30000                           CAF      0
000143:    5657           05574                           TC       BORTENT
000144:    5660           77770        OCT77770           OCT      77770                                 #  DON'T MOVE
000145:
000146:    5661           34765                           CAF      OCT35                                 #  4.35SPOT FOR GOPOODOO
000147:    5662           54001                           TS       L
000148:    5663           40000                           COM
000149:    5664           52761                           DXCH     -PHASE4
000150:    5665           00004        GOPOODOO           INHINT
000151:    5666           04616                           TC       BANKCALL                              #  RESET STATEFLG, REINTFLG, AND NODOFLAG.
000152:    5667           27755                           CADR     FLAGS
000153:    5670           30103                           CA       FLAGWRD7                              #  IS SERVICER CURRENTLY IN OPERATION?
000154:    5671           74746                           MASK     V37FLBIT
000155:    5672           10000                           CCS      A
000156:    5673           15701                           TCF      STRTIDLE
000157:    5674           04616                           TC       BANKCALL                              #  TERMINATE GRPS 1, 3, 5, AND 6
000158:    5675           12652                           CADR     V37KLEAN
000159:    5676           04616                           TC       BANKCALL                              #  TERMINATE GRPS 2, 4, 1, 3, 5, AND 6
000160:    5677           12643                           CADR     MR.KLEAN                              #        (I.E., GRP 4 LAST)
000161:    5700           15644                           TCF      WHIMPER
000162:    5701           35743        STRTIDLE           CAF      BBSERVDL
000163:    5702           04727                           TC       SUPERSW
000164:    5703           04616                           TC       BANKCALL                              #  PUT SERVICER INTO ITS "GROUND" STATE
000165:    5704           57321                           CADR     SERVIDLE                              #  AND PROCEED TO GOTOPOOH.
000166:    5705           00004        CCSHOLE            INHINT
000167:    5706           30002                           CA       Q
000168:    5707           05654                           TC       ABORT2
000169:    5710           01103        OCT1103            OCT      1103
000170:    5711           00004        CURTAINS           INHINT
000171:    5712           30002                           CA       Q
000172:    5713           05571                           TC       ALARM2
000173:    5714           00217        OCT217             OCT      00217


000175:    5715           01363                           TC       ALMCADR                               #  RETURN TO USER
000176:
000177:    5716           00004        BAILOUT1           INHINT
000178:    5717           53364                           DXCH     ALMCADR
000179:    5720           35742                           CAF      ADR40400
000180:    5721           54061        BOTHABRT           TS       ITEMP1
000181:    5722           50002                           INDEX    Q
000182:    5723           30000                           CAF      0
000183:    5724           54001                           TS       L
000184:    5725           15603                           TCF      CHKFAIL1
000185:    5726           00004        POODOO1            INHINT
000186:    5727           53364                           DXCH     ALMCADR
000187:    5730           35741                           CAF      ADR77770
000188:    5731           15721                           TCF      BOTHABRT
000189:
000190:    5732           00004        ALARM1             INHINT
000191:    5733           53364                           DXCH     ALMCADR
000192:    5734           00004        ALMNCADR           INHINT
000193:    5735           50002                           INDEX    Q
000194:    5736           30000                           CA       0
000195:    5737           54001                           TS       L
000196:    5740           15601                           TCF      LARMENT
000197:
000198:    5741           15660        ADR77770           TCF      OCT77770
000199:    5742           15642        ADR40400           TCF      OCT40400
000200:    5743     5155               DOALARM            EQUALS   ENDOFJOB
000201:    5743  E7,1515                                  EBANK=   DVCNTR
000202:    5743           56067        BBSERVDL           BBCON    SERVIDLE
000203:
000204:                                                                                                  #  CALLING SEQUENCE FOR VARALARM
000205:                                                                                                  #                CAF     (ALARM)
000206:                                                                                                  #                TC      VARALARM
000207:
000208:                                                                                                  #  VARALARM TURNS ON PROGRAM ALARM LIGHT BUT DOES NOT DISPLAY
000209:
000210:    5744           00004        VARALARM           INHINT
000211:
000212:    5745           54001                           TS       L                                     #  SAVE USERS ALARM CODE
000213:
000214:    5746           30002                           CA       Q                                     #  SAVE USERS Q
000215:    5747           55363                           TS       ALMCADR
000216:
000217:    5750           05575                           TC       PRIOENT
000218:    5751           00014        OCT14              OCT      14                                    #  DONT MOVE
000219:
000220:    5752           01363                           TC       ALMCADR                               #  RETURN TO USER
000221:
000222:    5753     5644               ABORT              EQUALS   WHIMPER
000223: 13,3755                                           BANK     13
000224: 13,2000                                           SETLOC   ABTFLGS
000225: 13,2000                                           BANK


000227: 13,3755                                           COUNT*   $$/ALARM
000228:
000229: 13,3755           44747        FLAGS              CS       STATEBIT
000230: 13,3756           70077                           MASK     FLAGWRD3
000231: 13,3757           54077                           TS       FLAGWRD3
000232: 13,3760           44745                           CS       REINTBIT
000233: 13,3761           70106                           MASK     FLGWRD10
000234: 13,3762           54106                           TS       FLGWRD10
000235: 13,3763           44753                           CS       NODOBIT
000236: 13,3764           70076                           MASK     FLAGWRD2
000237: 13,3765           54076                           TS       FLAGWRD2
000238: 13,3766           00002                           TC       Q
000239:

End of include-file ALARM_AND_ABORT.agc.  Parent file is MAIN.agc


